{
	"contracts/games/InstantBingo.sol": {
		"InstantBingo": {
			"abi": [
				{
					"inputs": [
						{
							"internalType": "string",
							"name": "manufacturer",
							"type": "string"
						}
					],
					"stateMutability": "nonpayable",
					"type": "constructor"
				},
				{
					"anonymous": false,
					"inputs": [
						{
							"indexed": false,
							"internalType": "uint256",
							"name": "balance",
							"type": "uint256"
						}
					],
					"name": "ContractBalanceWithdrawn",
					"type": "event"
				},
				{
					"anonymous": false,
					"inputs": [
						{
							"indexed": false,
							"internalType": "uint256",
							"name": "game",
							"type": "uint256"
						},
						{
							"indexed": false,
							"internalType": "uint256",
							"name": "card",
							"type": "uint256"
						},
						{
							"indexed": false,
							"internalType": "uint256",
							"name": "formNumber",
							"type": "uint256"
						},
						{
							"indexed": false,
							"internalType": "uint256",
							"name": "serialNo",
							"type": "uint256"
						}
					],
					"name": "GameCardNumbersAdded",
					"type": "event"
				},
				{
					"anonymous": false,
					"inputs": [
						{
							"indexed": false,
							"internalType": "uint256",
							"name": "game",
							"type": "uint256"
						}
					],
					"name": "GameCreated",
					"type": "event"
				},
				{
					"anonymous": false,
					"inputs": [
						{
							"indexed": false,
							"internalType": "uint256",
							"name": "game",
							"type": "uint256"
						},
						{
							"indexed": false,
							"internalType": "uint256",
							"name": "winningNumber",
							"type": "uint256"
						}
					],
					"name": "GameEnded",
					"type": "event"
				},
				{
					"anonymous": false,
					"inputs": [
						{
							"indexed": false,
							"internalType": "uint256",
							"name": "game",
							"type": "uint256"
						},
						{
							"indexed": false,
							"internalType": "address",
							"name": "winner",
							"type": "address"
						},
						{
							"indexed": false,
							"internalType": "uint256",
							"name": "amount",
							"type": "uint256"
						}
					],
					"name": "GamePrizeClaimed",
					"type": "event"
				},
				{
					"anonymous": false,
					"inputs": [
						{
							"indexed": false,
							"internalType": "uint256",
							"name": "game",
							"type": "uint256"
						},
						{
							"indexed": false,
							"internalType": "uint256",
							"name": "ticketNo",
							"type": "uint256"
						},
						{
							"indexed": false,
							"internalType": "uint256",
							"name": "gameSerialNo",
							"type": "uint256"
						}
					],
					"name": "GameTicketPurchase",
					"type": "event"
				},
				{
					"inputs": [],
					"name": "MAX_CARD_NUMBER",
					"outputs": [
						{
							"internalType": "uint256",
							"name": "",
							"type": "uint256"
						}
					],
					"stateMutability": "view",
					"type": "function"
				},
				{
					"inputs": [],
					"name": "MAX_TICKETS",
					"outputs": [
						{
							"internalType": "uint256",
							"name": "",
							"type": "uint256"
						}
					],
					"stateMutability": "view",
					"type": "function"
				},
				{
					"inputs": [],
					"name": "MIN_CARD_NUMBER",
					"outputs": [
						{
							"internalType": "uint256",
							"name": "",
							"type": "uint256"
						}
					],
					"stateMutability": "view",
					"type": "function"
				},
				{
					"inputs": [],
					"name": "MIN_NUMBERS_PER_CARD",
					"outputs": [
						{
							"internalType": "uint256",
							"name": "",
							"type": "uint256"
						}
					],
					"stateMutability": "view",
					"type": "function"
				},
				{
					"inputs": [],
					"name": "YEARS",
					"outputs": [
						{
							"internalType": "uint256",
							"name": "",
							"type": "uint256"
						}
					],
					"stateMutability": "view",
					"type": "function"
				},
				{
					"inputs": [
						{
							"internalType": "uint256",
							"name": "game",
							"type": "uint256"
						},
						{
							"internalType": "uint256",
							"name": "formNumber",
							"type": "uint256"
						},
						{
							"internalType": "string",
							"name": "ticket",
							"type": "string"
						},
						{
							"internalType": "string",
							"name": "signature",
							"type": "string"
						}
					],
					"name": "addGameCard",
					"outputs": [
						{
							"internalType": "uint256",
							"name": "card",
							"type": "uint256"
						}
					],
					"stateMutability": "nonpayable",
					"type": "function"
				},
				{
					"inputs": [
						{
							"internalType": "address",
							"name": "wallet",
							"type": "address"
						}
					],
					"name": "addPlayer",
					"outputs": [],
					"stateMutability": "nonpayable",
					"type": "function"
				},
				{
					"inputs": [
						{
							"internalType": "uint256",
							"name": "game",
							"type": "uint256"
						},
						{
							"internalType": "uint256",
							"name": "_ticketNumber",
							"type": "uint256"
						}
					],
					"name": "buyTicket",
					"outputs": [],
					"stateMutability": "payable",
					"type": "function"
				},
				{
					"inputs": [
						{
							"internalType": "uint256",
							"name": "game",
							"type": "uint256"
						}
					],
					"name": "claimPrize",
					"outputs": [],
					"stateMutability": "nonpayable",
					"type": "function"
				},
				{
					"inputs": [
						{
							"internalType": "uint256",
							"name": "game",
							"type": "uint256"
						}
					],
					"name": "closeGame",
					"outputs": [],
					"stateMutability": "nonpayable",
					"type": "function"
				},
				{
					"inputs": [],
					"name": "getContractBalance",
					"outputs": [
						{
							"internalType": "uint256",
							"name": "",
							"type": "uint256"
						}
					],
					"stateMutability": "view",
					"type": "function"
				},
				{
					"inputs": [
						{
							"internalType": "uint256",
							"name": "game",
							"type": "uint256"
						},
						{
							"internalType": "uint256",
							"name": "card",
							"type": "uint256"
						}
					],
					"name": "getGameCardNumbers",
					"outputs": [
						{
							"components": [
								{
									"internalType": "uint256",
									"name": "game",
									"type": "uint256"
								},
								{
									"internalType": "uint256",
									"name": "serialNo",
									"type": "uint256"
								},
								{
									"internalType": "uint256",
									"name": "formNumber",
									"type": "uint256"
								},
								{
									"internalType": "string",
									"name": "ticket",
									"type": "string"
								},
								{
									"internalType": "string",
									"name": "signature",
									"type": "string"
								}
							],
							"internalType": "struct InstantBingo.Card",
							"name": "",
							"type": "tuple"
						}
					],
					"stateMutability": "view",
					"type": "function"
				},
				{
					"inputs": [
						{
							"internalType": "uint256",
							"name": "game",
							"type": "uint256"
						}
					],
					"name": "getGameEndTime",
					"outputs": [
						{
							"internalType": "uint256",
							"name": "",
							"type": "uint256"
						}
					],
					"stateMutability": "view",
					"type": "function"
				},
				{
					"inputs": [
						{
							"internalType": "uint256",
							"name": "game",
							"type": "uint256"
						}
					],
					"name": "getGameState",
					"outputs": [
						{
							"internalType": "enum InstantBingo.GameState",
							"name": "",
							"type": "uint8"
						}
					],
					"stateMutability": "view",
					"type": "function"
				},
				{
					"inputs": [],
					"name": "getGames",
					"outputs": [
						{
							"components": [
								{
									"internalType": "uint256",
									"name": "serialNo",
									"type": "uint256"
								},
								{
									"internalType": "uint256",
									"name": "gameStartTime",
									"type": "uint256"
								},
								{
									"internalType": "uint256",
									"name": "gameEndTime",
									"type": "uint256"
								},
								{
									"internalType": "enum InstantBingo.GameState",
									"name": "state",
									"type": "uint8"
								},
								{
									"internalType": "uint256",
									"name": "totalPlayers",
									"type": "uint256"
								},
								{
									"internalType": "uint256",
									"name": "maxPlayers",
									"type": "uint256"
								},
								{
									"internalType": "uint256",
									"name": "totalCards",
									"type": "uint256"
								},
								{
									"internalType": "uint256",
									"name": "totalNumbers",
									"type": "uint256"
								},
								{
									"internalType": "uint256",
									"name": "numbersPerCard",
									"type": "uint256"
								}
							],
							"internalType": "struct InstantBingo.Game[]",
							"name": "",
							"type": "tuple[]"
						}
					],
					"stateMutability": "view",
					"type": "function"
				},
				{
					"inputs": [],
					"name": "getPlayers",
					"outputs": [
						{
							"internalType": "address[]",
							"name": "",
							"type": "address[]"
						}
					],
					"stateMutability": "view",
					"type": "function"
				},
				{
					"inputs": [],
					"name": "maxPayout",
					"outputs": [
						{
							"internalType": "uint256",
							"name": "",
							"type": "uint256"
						}
					],
					"stateMutability": "view",
					"type": "function"
				},
				{
					"inputs": [],
					"name": "minAge",
					"outputs": [
						{
							"internalType": "uint256",
							"name": "",
							"type": "uint256"
						}
					],
					"stateMutability": "view",
					"type": "function"
				},
				{
					"inputs": [
						{
							"internalType": "uint256",
							"name": "startTime",
							"type": "uint256"
						},
						{
							"internalType": "uint256",
							"name": "endTime",
							"type": "uint256"
						},
						{
							"internalType": "uint256",
							"name": "serialNo",
							"type": "uint256"
						},
						{
							"internalType": "uint256",
							"name": "ticketCount",
							"type": "uint256"
						}
					],
					"name": "newGame",
					"outputs": [
						{
							"internalType": "uint256",
							"name": "",
							"type": "uint256"
						}
					],
					"stateMutability": "nonpayable",
					"type": "function"
				},
				{
					"inputs": [],
					"name": "owner",
					"outputs": [
						{
							"internalType": "address",
							"name": "",
							"type": "address"
						}
					],
					"stateMutability": "view",
					"type": "function"
				},
				{
					"inputs": [],
					"name": "sponsor",
					"outputs": [
						{
							"internalType": "string",
							"name": "",
							"type": "string"
						}
					],
					"stateMutability": "view",
					"type": "function"
				},
				{
					"inputs": [],
					"name": "totalPlayers",
					"outputs": [
						{
							"internalType": "uint256",
							"name": "",
							"type": "uint256"
						}
					],
					"stateMutability": "view",
					"type": "function"
				},
				{
					"inputs": [],
					"name": "winningNumber",
					"outputs": [
						{
							"internalType": "uint256",
							"name": "",
							"type": "uint256"
						}
					],
					"stateMutability": "view",
					"type": "function"
				},
				{
					"inputs": [
						{
							"internalType": "uint256",
							"name": "game",
							"type": "uint256"
						}
					],
					"name": "withdrawRemainingFunds",
					"outputs": [],
					"stateMutability": "nonpayable",
					"type": "function"
				},
				{
					"inputs": [
						{
							"internalType": "uint16",
							"name": "year",
							"type": "uint16"
						}
					],
					"name": "yearToEpoch",
					"outputs": [
						{
							"internalType": "uint256",
							"name": "",
							"type": "uint256"
						}
					],
					"stateMutability": "view",
					"type": "function"
				}
			],
			"devdoc": {
				"kind": "dev",
				"methods": {},
				"version": 1
			},
			"evm": {
				"assembly": "    /* \"contracts/games/InstantBingo.sol\":72:13727  contract InstantBingo {... */\n  mstore(0x40, 0x80)\n    /* \"contracts/games/InstantBingo.sol\":402:405  250 */\n  0xfa\n    /* \"contracts/games/InstantBingo.sol\":375:405  uint256 public maxPayout = 250 */\n  0x01\n  sstore\n    /* \"contracts/games/InstantBingo.sol\":435:437  18 */\n  0x12\n    /* \"contracts/games/InstantBingo.sol\":411:437  uint256 public minAge = 18 */\n  0x02\n  sstore\n    /* \"contracts/games/InstantBingo.sol\":5099:5233  constructor(string memory manufacturer) {... */\n  callvalue\n  dup1\n  iszero\n  tag_1\n  jumpi\n  0x00\n  dup1\n  revert\ntag_1:\n  pop\n  mload(0x40)\n  sub(codesize, bytecodeSize)\n  dup1\n  bytecodeSize\n  dup4\n  codecopy\n  dup2\n  dup2\n  add\n  0x40\n  mstore\n  dup2\n  add\n  swap1\n  tag_2\n  swap2\n  swap1\n  tag_3\n  jump\t// in\ntag_2:\n    /* \"contracts/games/InstantBingo.sol\":5157:5167  msg.sender */\n  caller\n    /* \"contracts/games/InstantBingo.sol\":5149:5154  owner */\n  0x00\n  dup1\n    /* \"contracts/games/InstantBingo.sol\":5149:5167  owner = msg.sender */\n  0x0100\n  exp\n  dup2\n  sload\n  dup2\n  0xffffffffffffffffffffffffffffffffffffffff\n  mul\n  not\n  and\n  swap1\n  dup4\n  0xffffffffffffffffffffffffffffffffffffffff\n  and\n  mul\n  or\n  swap1\n  sstore\n  pop\n    /* \"contracts/games/InstantBingo.sol\":5193:5194  0 */\n  0x00\n    /* \"contracts/games/InstantBingo.sol\":5177:5190  winningNumber */\n  0x04\n    /* \"contracts/games/InstantBingo.sol\":5177:5194  winningNumber = 0 */\n  dup2\n  swap1\n  sstore\n  pop\n    /* \"contracts/games/InstantBingo.sol\":5214:5226  manufacturer */\n  dup1\n    /* \"contracts/games/InstantBingo.sol\":5204:5211  sponsor */\n  0x09\n    /* \"contracts/games/InstantBingo.sol\":5204:5226  sponsor = manufacturer */\n  swap1\n  dup2\n  tag_6\n  swap2\n  swap1\n  tag_7\n  jump\t// in\ntag_6:\n  pop\n    /* \"contracts/games/InstantBingo.sol\":5099:5233  constructor(string memory manufacturer) {... */\n  pop\n    /* \"contracts/games/InstantBingo.sol\":72:13727  contract InstantBingo {... */\n  jump(tag_8)\n    /* \"#utility.yul\":7:82   */\ntag_9:\n    /* \"#utility.yul\":40:46   */\n  0x00\n    /* \"#utility.yul\":73:75   */\n  0x40\n    /* \"#utility.yul\":67:76   */\n  mload\n    /* \"#utility.yul\":57:76   */\n  swap1\n  pop\n    /* \"#utility.yul\":7:82   */\n  swap1\n  jump\t// out\n    /* \"#utility.yul\":88:205   */\ntag_10:\n    /* \"#utility.yul\":197:198   */\n  0x00\n    /* \"#utility.yul\":194:195   */\n  dup1\n    /* \"#utility.yul\":187:199   */\n  revert\n    /* \"#utility.yul\":211:328   */\ntag_11:\n    /* \"#utility.yul\":320:321   */\n  0x00\n    /* \"#utility.yul\":317:318   */\n  dup1\n    /* \"#utility.yul\":310:322   */\n  revert\n    /* \"#utility.yul\":334:451   */\ntag_12:\n    /* \"#utility.yul\":443:444   */\n  0x00\n    /* \"#utility.yul\":440:441   */\n  dup1\n    /* \"#utility.yul\":433:445   */\n  revert\n    /* \"#utility.yul\":457:574   */\ntag_13:\n    /* \"#utility.yul\":566:567   */\n  0x00\n    /* \"#utility.yul\":563:564   */\n  dup1\n    /* \"#utility.yul\":556:568   */\n  revert\n    /* \"#utility.yul\":580:682   */\ntag_14:\n    /* \"#utility.yul\":621:627   */\n  0x00\n    /* \"#utility.yul\":672:674   */\n  0x1f\n    /* \"#utility.yul\":668:675   */\n  not\n    /* \"#utility.yul\":663:665   */\n  0x1f\n    /* \"#utility.yul\":656:661   */\n  dup4\n    /* \"#utility.yul\":652:666   */\n  add\n    /* \"#utility.yul\":648:676   */\n  and\n    /* \"#utility.yul\":638:676   */\n  swap1\n  pop\n    /* \"#utility.yul\":580:682   */\n  swap2\n  swap1\n  pop\n  jump\t// out\n    /* \"#utility.yul\":688:868   */\ntag_15:\n    /* \"#utility.yul\":736:813   */\n  0x4e487b7100000000000000000000000000000000000000000000000000000000\n    /* \"#utility.yul\":733:734   */\n  0x00\n    /* \"#utility.yul\":726:814   */\n  mstore\n    /* \"#utility.yul\":833:837   */\n  0x41\n    /* \"#utility.yul\":830:831   */\n  0x04\n    /* \"#utility.yul\":823:838   */\n  mstore\n    /* \"#utility.yul\":857:861   */\n  0x24\n    /* \"#utility.yul\":854:855   */\n  0x00\n    /* \"#utility.yul\":847:862   */\n  revert\n    /* \"#utility.yul\":874:1155   */\ntag_16:\n    /* \"#utility.yul\":957:984   */\n  tag_50\n    /* \"#utility.yul\":979:983   */\n  dup3\n    /* \"#utility.yul\":957:984   */\n  tag_14\n  jump\t// in\ntag_50:\n    /* \"#utility.yul\":949:955   */\n  dup2\n    /* \"#utility.yul\":945:985   */\n  add\n    /* \"#utility.yul\":1087:1093   */\n  dup2\n    /* \"#utility.yul\":1075:1085   */\n  dup2\n    /* \"#utility.yul\":1072:1094   */\n  lt\n    /* \"#utility.yul\":1051:1069   */\n  0xffffffffffffffff\n    /* \"#utility.yul\":1039:1049   */\n  dup3\n    /* \"#utility.yul\":1036:1070   */\n  gt\n    /* \"#utility.yul\":1033:1095   */\n  or\n    /* \"#utility.yul\":1030:1118   */\n  iszero\n  tag_51\n  jumpi\n    /* \"#utility.yul\":1098:1116   */\n  tag_52\n  tag_15\n  jump\t// in\ntag_52:\n    /* \"#utility.yul\":1030:1118   */\ntag_51:\n    /* \"#utility.yul\":1138:1148   */\n  dup1\n    /* \"#utility.yul\":1134:1136   */\n  0x40\n    /* \"#utility.yul\":1127:1149   */\n  mstore\n    /* \"#utility.yul\":917:1155   */\n  pop\n    /* \"#utility.yul\":874:1155   */\n  pop\n  pop\n  jump\t// out\n    /* \"#utility.yul\":1161:1290   */\ntag_17:\n    /* \"#utility.yul\":1195:1201   */\n  0x00\n    /* \"#utility.yul\":1222:1242   */\n  tag_54\n  tag_9\n  jump\t// in\ntag_54:\n    /* \"#utility.yul\":1212:1242   */\n  swap1\n  pop\n    /* \"#utility.yul\":1251:1284   */\n  tag_55\n    /* \"#utility.yul\":1279:1283   */\n  dup3\n    /* \"#utility.yul\":1271:1277   */\n  dup3\n    /* \"#utility.yul\":1251:1284   */\n  tag_16\n  jump\t// in\ntag_55:\n    /* \"#utility.yul\":1161:1290   */\n  swap2\n  swap1\n  pop\n  jump\t// out\n    /* \"#utility.yul\":1296:1604   */\ntag_18:\n    /* \"#utility.yul\":1358:1362   */\n  0x00\n    /* \"#utility.yul\":1448:1466   */\n  0xffffffffffffffff\n    /* \"#utility.yul\":1440:1446   */\n  dup3\n    /* \"#utility.yul\":1437:1467   */\n  gt\n    /* \"#utility.yul\":1434:1490   */\n  iszero\n  tag_57\n  jumpi\n    /* \"#utility.yul\":1470:1488   */\n  tag_58\n  tag_15\n  jump\t// in\ntag_58:\n    /* \"#utility.yul\":1434:1490   */\ntag_57:\n    /* \"#utility.yul\":1508:1537   */\n  tag_59\n    /* \"#utility.yul\":1530:1536   */\n  dup3\n    /* \"#utility.yul\":1508:1537   */\n  tag_14\n  jump\t// in\ntag_59:\n    /* \"#utility.yul\":1500:1537   */\n  swap1\n  pop\n    /* \"#utility.yul\":1592:1596   */\n  0x20\n    /* \"#utility.yul\":1586:1590   */\n  dup2\n    /* \"#utility.yul\":1582:1597   */\n  add\n    /* \"#utility.yul\":1574:1597   */\n  swap1\n  pop\n    /* \"#utility.yul\":1296:1604   */\n  swap2\n  swap1\n  pop\n  jump\t// out\n    /* \"#utility.yul\":1610:1856   */\ntag_19:\n    /* \"#utility.yul\":1691:1692   */\n  0x00\n    /* \"#utility.yul\":1701:1814   */\ntag_61:\n    /* \"#utility.yul\":1715:1721   */\n  dup4\n    /* \"#utility.yul\":1712:1713   */\n  dup2\n    /* \"#utility.yul\":1709:1722   */\n  lt\n    /* \"#utility.yul\":1701:1814   */\n  iszero\n  tag_63\n  jumpi\n    /* \"#utility.yul\":1800:1801   */\n  dup1\n    /* \"#utility.yul\":1795:1798   */\n  dup3\n    /* \"#utility.yul\":1791:1802   */\n  add\n    /* \"#utility.yul\":1785:1803   */\n  mload\n    /* \"#utility.yul\":1781:1782   */\n  dup2\n    /* \"#utility.yul\":1776:1779   */\n  dup5\n    /* \"#utility.yul\":1772:1783   */\n  add\n    /* \"#utility.yul\":1765:1804   */\n  mstore\n    /* \"#utility.yul\":1737:1739   */\n  0x20\n    /* \"#utility.yul\":1734:1735   */\n  dup2\n    /* \"#utility.yul\":1730:1740   */\n  add\n    /* \"#utility.yul\":1725:1740   */\n  swap1\n  pop\n    /* \"#utility.yul\":1701:1814   */\n  jump(tag_61)\ntag_63:\n    /* \"#utility.yul\":1848:1849   */\n  0x00\n    /* \"#utility.yul\":1839:1845   */\n  dup5\n    /* \"#utility.yul\":1834:1837   */\n  dup5\n    /* \"#utility.yul\":1830:1846   */\n  add\n    /* \"#utility.yul\":1823:1850   */\n  mstore\n    /* \"#utility.yul\":1672:1856   */\n  pop\n    /* \"#utility.yul\":1610:1856   */\n  pop\n  pop\n  pop\n  jump\t// out\n    /* \"#utility.yul\":1862:2296   */\ntag_20:\n    /* \"#utility.yul\":1951:1956   */\n  0x00\n    /* \"#utility.yul\":1976:2042   */\n  tag_65\n    /* \"#utility.yul\":1992:2041   */\n  tag_66\n    /* \"#utility.yul\":2034:2040   */\n  dup5\n    /* \"#utility.yul\":1992:2041   */\n  tag_18\n  jump\t// in\ntag_66:\n    /* \"#utility.yul\":1976:2042   */\n  tag_17\n  jump\t// in\ntag_65:\n    /* \"#utility.yul\":1967:2042   */\n  swap1\n  pop\n    /* \"#utility.yul\":2065:2071   */\n  dup3\n    /* \"#utility.yul\":2058:2063   */\n  dup2\n    /* \"#utility.yul\":2051:2072   */\n  mstore\n    /* \"#utility.yul\":2103:2107   */\n  0x20\n    /* \"#utility.yul\":2096:2101   */\n  dup2\n    /* \"#utility.yul\":2092:2108   */\n  add\n    /* \"#utility.yul\":2141:2144   */\n  dup5\n    /* \"#utility.yul\":2132:2138   */\n  dup5\n    /* \"#utility.yul\":2127:2130   */\n  dup5\n    /* \"#utility.yul\":2123:2139   */\n  add\n    /* \"#utility.yul\":2120:2145   */\n  gt\n    /* \"#utility.yul\":2117:2229   */\n  iszero\n  tag_67\n  jumpi\n    /* \"#utility.yul\":2148:2227   */\n  tag_68\n  tag_13\n  jump\t// in\ntag_68:\n    /* \"#utility.yul\":2117:2229   */\ntag_67:\n    /* \"#utility.yul\":2238:2290   */\n  tag_69\n    /* \"#utility.yul\":2283:2289   */\n  dup5\n    /* \"#utility.yul\":2278:2281   */\n  dup3\n    /* \"#utility.yul\":2273:2276   */\n  dup6\n    /* \"#utility.yul\":2238:2290   */\n  tag_19\n  jump\t// in\ntag_69:\n    /* \"#utility.yul\":1957:2296   */\n  pop\n    /* \"#utility.yul\":1862:2296   */\n  swap4\n  swap3\n  pop\n  pop\n  pop\n  jump\t// out\n    /* \"#utility.yul\":2316:2671   */\ntag_21:\n    /* \"#utility.yul\":2383:2388   */\n  0x00\n    /* \"#utility.yul\":2432:2435   */\n  dup3\n    /* \"#utility.yul\":2425:2429   */\n  0x1f\n    /* \"#utility.yul\":2417:2423   */\n  dup4\n    /* \"#utility.yul\":2413:2430   */\n  add\n    /* \"#utility.yul\":2409:2436   */\n  slt\n    /* \"#utility.yul\":2399:2521   */\n  tag_71\n  jumpi\n    /* \"#utility.yul\":2440:2519   */\n  tag_72\n  tag_12\n  jump\t// in\ntag_72:\n    /* \"#utility.yul\":2399:2521   */\ntag_71:\n    /* \"#utility.yul\":2550:2556   */\n  dup2\n    /* \"#utility.yul\":2544:2557   */\n  mload\n    /* \"#utility.yul\":2575:2665   */\n  tag_73\n    /* \"#utility.yul\":2661:2664   */\n  dup5\n    /* \"#utility.yul\":2653:2659   */\n  dup3\n    /* \"#utility.yul\":2646:2650   */\n  0x20\n    /* \"#utility.yul\":2638:2644   */\n  dup7\n    /* \"#utility.yul\":2634:2651   */\n  add\n    /* \"#utility.yul\":2575:2665   */\n  tag_20\n  jump\t// in\ntag_73:\n    /* \"#utility.yul\":2566:2665   */\n  swap2\n  pop\n    /* \"#utility.yul\":2389:2671   */\n  pop\n    /* \"#utility.yul\":2316:2671   */\n  swap3\n  swap2\n  pop\n  pop\n  jump\t// out\n    /* \"#utility.yul\":2677:3201   */\ntag_3:\n    /* \"#utility.yul\":2757:2763   */\n  0x00\n    /* \"#utility.yul\":2806:2808   */\n  0x20\n    /* \"#utility.yul\":2794:2803   */\n  dup3\n    /* \"#utility.yul\":2785:2792   */\n  dup5\n    /* \"#utility.yul\":2781:2804   */\n  sub\n    /* \"#utility.yul\":2777:2809   */\n  slt\n    /* \"#utility.yul\":2774:2893   */\n  iszero\n  tag_75\n  jumpi\n    /* \"#utility.yul\":2812:2891   */\n  tag_76\n  tag_10\n  jump\t// in\ntag_76:\n    /* \"#utility.yul\":2774:2893   */\ntag_75:\n    /* \"#utility.yul\":2953:2954   */\n  0x00\n    /* \"#utility.yul\":2942:2951   */\n  dup3\n    /* \"#utility.yul\":2938:2955   */\n  add\n    /* \"#utility.yul\":2932:2956   */\n  mload\n    /* \"#utility.yul\":2983:3001   */\n  0xffffffffffffffff\n    /* \"#utility.yul\":2975:2981   */\n  dup2\n    /* \"#utility.yul\":2972:3002   */\n  gt\n    /* \"#utility.yul\":2969:3086   */\n  iszero\n  tag_77\n  jumpi\n    /* \"#utility.yul\":3005:3084   */\n  tag_78\n  tag_11\n  jump\t// in\ntag_78:\n    /* \"#utility.yul\":2969:3086   */\ntag_77:\n    /* \"#utility.yul\":3110:3184   */\n  tag_79\n    /* \"#utility.yul\":3176:3183   */\n  dup5\n    /* \"#utility.yul\":3167:3173   */\n  dup3\n    /* \"#utility.yul\":3156:3165   */\n  dup6\n    /* \"#utility.yul\":3152:3174   */\n  add\n    /* \"#utility.yul\":3110:3184   */\n  tag_21\n  jump\t// in\ntag_79:\n    /* \"#utility.yul\":3100:3184   */\n  swap2\n  pop\n    /* \"#utility.yul\":2903:3194   */\n  pop\n    /* \"#utility.yul\":2677:3201   */\n  swap3\n  swap2\n  pop\n  pop\n  jump\t// out\n    /* \"#utility.yul\":3207:3306   */\ntag_22:\n    /* \"#utility.yul\":3259:3265   */\n  0x00\n    /* \"#utility.yul\":3293:3298   */\n  dup2\n    /* \"#utility.yul\":3287:3299   */\n  mload\n    /* \"#utility.yul\":3277:3299   */\n  swap1\n  pop\n    /* \"#utility.yul\":3207:3306   */\n  swap2\n  swap1\n  pop\n  jump\t// out\n    /* \"#utility.yul\":3312:3492   */\ntag_23:\n    /* \"#utility.yul\":3360:3437   */\n  0x4e487b7100000000000000000000000000000000000000000000000000000000\n    /* \"#utility.yul\":3357:3358   */\n  0x00\n    /* \"#utility.yul\":3350:3438   */\n  mstore\n    /* \"#utility.yul\":3457:3461   */\n  0x22\n    /* \"#utility.yul\":3454:3455   */\n  0x04\n    /* \"#utility.yul\":3447:3462   */\n  mstore\n    /* \"#utility.yul\":3481:3485   */\n  0x24\n    /* \"#utility.yul\":3478:3479   */\n  0x00\n    /* \"#utility.yul\":3471:3486   */\n  revert\n    /* \"#utility.yul\":3498:3818   */\ntag_24:\n    /* \"#utility.yul\":3542:3548   */\n  0x00\n    /* \"#utility.yul\":3579:3580   */\n  0x02\n    /* \"#utility.yul\":3573:3577   */\n  dup3\n    /* \"#utility.yul\":3569:3581   */\n  div\n    /* \"#utility.yul\":3559:3581   */\n  swap1\n  pop\n    /* \"#utility.yul\":3626:3627   */\n  0x01\n    /* \"#utility.yul\":3620:3624   */\n  dup3\n    /* \"#utility.yul\":3616:3628   */\n  and\n    /* \"#utility.yul\":3647:3665   */\n  dup1\n    /* \"#utility.yul\":3637:3718   */\n  tag_83\n  jumpi\n    /* \"#utility.yul\":3703:3707   */\n  0x7f\n    /* \"#utility.yul\":3695:3701   */\n  dup3\n    /* \"#utility.yul\":3691:3708   */\n  and\n    /* \"#utility.yul\":3681:3708   */\n  swap2\n  pop\n    /* \"#utility.yul\":3637:3718   */\ntag_83:\n    /* \"#utility.yul\":3765:3767   */\n  0x20\n    /* \"#utility.yul\":3757:3763   */\n  dup3\n    /* \"#utility.yul\":3754:3768   */\n  lt\n    /* \"#utility.yul\":3734:3752   */\n  dup2\n    /* \"#utility.yul\":3731:3769   */\n  sub\n    /* \"#utility.yul\":3728:3812   */\n  tag_84\n  jumpi\n    /* \"#utility.yul\":3784:3802   */\n  tag_85\n  tag_23\n  jump\t// in\ntag_85:\n    /* \"#utility.yul\":3728:3812   */\ntag_84:\n    /* \"#utility.yul\":3549:3818   */\n  pop\n    /* \"#utility.yul\":3498:3818   */\n  swap2\n  swap1\n  pop\n  jump\t// out\n    /* \"#utility.yul\":3824:3965   */\ntag_25:\n    /* \"#utility.yul\":3873:3877   */\n  0x00\n    /* \"#utility.yul\":3896:3899   */\n  dup2\n    /* \"#utility.yul\":3888:3899   */\n  swap1\n  pop\n    /* \"#utility.yul\":3919:3922   */\n  dup2\n    /* \"#utility.yul\":3916:3917   */\n  0x00\n    /* \"#utility.yul\":3909:3923   */\n  mstore\n    /* \"#utility.yul\":3953:3957   */\n  0x20\n    /* \"#utility.yul\":3950:3951   */\n  0x00\n    /* \"#utility.yul\":3940:3958   */\n  keccak256\n    /* \"#utility.yul\":3932:3958   */\n  swap1\n  pop\n    /* \"#utility.yul\":3824:3965   */\n  swap2\n  swap1\n  pop\n  jump\t// out\n    /* \"#utility.yul\":3971:4064   */\ntag_26:\n    /* \"#utility.yul\":4008:4014   */\n  0x00\n    /* \"#utility.yul\":4055:4057   */\n  0x20\n    /* \"#utility.yul\":4050:4052   */\n  0x1f\n    /* \"#utility.yul\":4043:4048   */\n  dup4\n    /* \"#utility.yul\":4039:4053   */\n  add\n    /* \"#utility.yul\":4035:4058   */\n  div\n    /* \"#utility.yul\":4025:4058   */\n  swap1\n  pop\n    /* \"#utility.yul\":3971:4064   */\n  swap2\n  swap1\n  pop\n  jump\t// out\n    /* \"#utility.yul\":4070:4177   */\ntag_27:\n    /* \"#utility.yul\":4114:4122   */\n  0x00\n    /* \"#utility.yul\":4164:4169   */\n  dup3\n    /* \"#utility.yul\":4158:4162   */\n  dup3\n    /* \"#utility.yul\":4154:4170   */\n  shl\n    /* \"#utility.yul\":4133:4170   */\n  swap1\n  pop\n    /* \"#utility.yul\":4070:4177   */\n  swap3\n  swap2\n  pop\n  pop\n  jump\t// out\n    /* \"#utility.yul\":4183:4576   */\ntag_28:\n    /* \"#utility.yul\":4252:4258   */\n  0x00\n    /* \"#utility.yul\":4302:4303   */\n  0x08\n    /* \"#utility.yul\":4290:4300   */\n  dup4\n    /* \"#utility.yul\":4286:4304   */\n  mul\n    /* \"#utility.yul\":4325:4422   */\n  tag_90\n    /* \"#utility.yul\":4355:4421   */\n  0xffffffffffffffffffffffffffffffffffffffffffffffffffffffffffffffff\n    /* \"#utility.yul\":4344:4353   */\n  dup3\n    /* \"#utility.yul\":4325:4422   */\n  tag_27\n  jump\t// in\ntag_90:\n    /* \"#utility.yul\":4443:4482   */\n  tag_91\n    /* \"#utility.yul\":4473:4481   */\n  dup7\n    /* \"#utility.yul\":4462:4471   */\n  dup4\n    /* \"#utility.yul\":4443:4482   */\n  tag_27\n  jump\t// in\ntag_91:\n    /* \"#utility.yul\":4431:4482   */\n  swap6\n  pop\n    /* \"#utility.yul\":4515:4519   */\n  dup1\n    /* \"#utility.yul\":4511:4520   */\n  not\n    /* \"#utility.yul\":4504:4509   */\n  dup5\n    /* \"#utility.yul\":4500:4521   */\n  and\n    /* \"#utility.yul\":4491:4521   */\n  swap4\n  pop\n    /* \"#utility.yul\":4564:4568   */\n  dup1\n    /* \"#utility.yul\":4554:4562   */\n  dup7\n    /* \"#utility.yul\":4550:4569   */\n  and\n    /* \"#utility.yul\":4543:4548   */\n  dup5\n    /* \"#utility.yul\":4540:4570   */\n  or\n    /* \"#utility.yul\":4530:4570   */\n  swap3\n  pop\n    /* \"#utility.yul\":4259:4576   */\n  pop\n  pop\n    /* \"#utility.yul\":4183:4576   */\n  swap4\n  swap3\n  pop\n  pop\n  pop\n  jump\t// out\n    /* \"#utility.yul\":4582:4659   */\ntag_29:\n    /* \"#utility.yul\":4619:4626   */\n  0x00\n    /* \"#utility.yul\":4648:4653   */\n  dup2\n    /* \"#utility.yul\":4637:4653   */\n  swap1\n  pop\n    /* \"#utility.yul\":4582:4659   */\n  swap2\n  swap1\n  pop\n  jump\t// out\n    /* \"#utility.yul\":4665:4725   */\ntag_30:\n    /* \"#utility.yul\":4693:4696   */\n  0x00\n    /* \"#utility.yul\":4714:4719   */\n  dup2\n    /* \"#utility.yul\":4707:4719   */\n  swap1\n  pop\n    /* \"#utility.yul\":4665:4725   */\n  swap2\n  swap1\n  pop\n  jump\t// out\n    /* \"#utility.yul\":4731:4873   */\ntag_31:\n    /* \"#utility.yul\":4781:4790   */\n  0x00\n    /* \"#utility.yul\":4814:4867   */\n  tag_95\n    /* \"#utility.yul\":4832:4866   */\n  tag_96\n    /* \"#utility.yul\":4841:4865   */\n  tag_97\n    /* \"#utility.yul\":4859:4864   */\n  dup5\n    /* \"#utility.yul\":4841:4865   */\n  tag_29\n  jump\t// in\ntag_97:\n    /* \"#utility.yul\":4832:4866   */\n  tag_30\n  jump\t// in\ntag_96:\n    /* \"#utility.yul\":4814:4867   */\n  tag_29\n  jump\t// in\ntag_95:\n    /* \"#utility.yul\":4801:4867   */\n  swap1\n  pop\n    /* \"#utility.yul\":4731:4873   */\n  swap2\n  swap1\n  pop\n  jump\t// out\n    /* \"#utility.yul\":4879:4954   */\ntag_32:\n    /* \"#utility.yul\":4922:4925   */\n  0x00\n    /* \"#utility.yul\":4943:4948   */\n  dup2\n    /* \"#utility.yul\":4936:4948   */\n  swap1\n  pop\n    /* \"#utility.yul\":4879:4954   */\n  swap2\n  swap1\n  pop\n  jump\t// out\n    /* \"#utility.yul\":4960:5229   */\ntag_33:\n    /* \"#utility.yul\":5070:5109   */\n  tag_100\n    /* \"#utility.yul\":5101:5108   */\n  dup4\n    /* \"#utility.yul\":5070:5109   */\n  tag_31\n  jump\t// in\ntag_100:\n    /* \"#utility.yul\":5131:5222   */\n  tag_101\n    /* \"#utility.yul\":5180:5221   */\n  tag_102\n    /* \"#utility.yul\":5204:5220   */\n  dup3\n    /* \"#utility.yul\":5180:5221   */\n  tag_32\n  jump\t// in\ntag_102:\n    /* \"#utility.yul\":5172:5178   */\n  dup5\n    /* \"#utility.yul\":5165:5169   */\n  dup5\n    /* \"#utility.yul\":5159:5170   */\n  sload\n    /* \"#utility.yul\":5131:5222   */\n  tag_28\n  jump\t// in\ntag_101:\n    /* \"#utility.yul\":5125:5129   */\n  dup3\n    /* \"#utility.yul\":5118:5223   */\n  sstore\n    /* \"#utility.yul\":5036:5229   */\n  pop\n    /* \"#utility.yul\":4960:5229   */\n  pop\n  pop\n  pop\n  jump\t// out\n    /* \"#utility.yul\":5235:5308   */\ntag_34:\n    /* \"#utility.yul\":5280:5283   */\n  0x00\n    /* \"#utility.yul\":5235:5308   */\n  swap1\n  jump\t// out\n    /* \"#utility.yul\":5314:5503   */\ntag_35:\n    /* \"#utility.yul\":5391:5423   */\n  tag_105\n  tag_34\n  jump\t// in\ntag_105:\n    /* \"#utility.yul\":5432:5497   */\n  tag_106\n    /* \"#utility.yul\":5490:5496   */\n  dup2\n    /* \"#utility.yul\":5482:5488   */\n  dup5\n    /* \"#utility.yul\":5476:5480   */\n  dup5\n    /* \"#utility.yul\":5432:5497   */\n  tag_33\n  jump\t// in\ntag_106:\n    /* \"#utility.yul\":5367:5503   */\n  pop\n    /* \"#utility.yul\":5314:5503   */\n  pop\n  pop\n  jump\t// out\n    /* \"#utility.yul\":5509:5695   */\ntag_36:\n    /* \"#utility.yul\":5569:5689   */\ntag_108:\n    /* \"#utility.yul\":5586:5589   */\n  dup2\n    /* \"#utility.yul\":5579:5584   */\n  dup2\n    /* \"#utility.yul\":5576:5590   */\n  lt\n    /* \"#utility.yul\":5569:5689   */\n  iszero\n  tag_110\n  jumpi\n    /* \"#utility.yul\":5640:5679   */\n  tag_111\n    /* \"#utility.yul\":5677:5678   */\n  0x00\n    /* \"#utility.yul\":5670:5675   */\n  dup3\n    /* \"#utility.yul\":5640:5679   */\n  tag_35\n  jump\t// in\ntag_111:\n    /* \"#utility.yul\":5613:5614   */\n  0x01\n    /* \"#utility.yul\":5606:5611   */\n  dup2\n    /* \"#utility.yul\":5602:5615   */\n  add\n    /* \"#utility.yul\":5593:5615   */\n  swap1\n  pop\n    /* \"#utility.yul\":5569:5689   */\n  jump(tag_108)\ntag_110:\n    /* \"#utility.yul\":5509:5695   */\n  pop\n  pop\n  jump\t// out\n    /* \"#utility.yul\":5701:6244   */\ntag_37:\n    /* \"#utility.yul\":5802:5804   */\n  0x1f\n    /* \"#utility.yul\":5797:5800   */\n  dup3\n    /* \"#utility.yul\":5794:5805   */\n  gt\n    /* \"#utility.yul\":5791:6237   */\n  iszero\n  tag_113\n  jumpi\n    /* \"#utility.yul\":5836:5874   */\n  tag_114\n    /* \"#utility.yul\":5868:5873   */\n  dup2\n    /* \"#utility.yul\":5836:5874   */\n  tag_25\n  jump\t// in\ntag_114:\n    /* \"#utility.yul\":5920:5949   */\n  tag_115\n    /* \"#utility.yul\":5938:5948   */\n  dup5\n    /* \"#utility.yul\":5920:5949   */\n  tag_26\n  jump\t// in\ntag_115:\n    /* \"#utility.yul\":5910:5918   */\n  dup2\n    /* \"#utility.yul\":5906:5950   */\n  add\n    /* \"#utility.yul\":6103:6105   */\n  0x20\n    /* \"#utility.yul\":6091:6101   */\n  dup6\n    /* \"#utility.yul\":6088:6106   */\n  lt\n    /* \"#utility.yul\":6085:6134   */\n  iszero\n  tag_116\n  jumpi\n    /* \"#utility.yul\":6124:6132   */\n  dup2\n    /* \"#utility.yul\":6109:6132   */\n  swap1\n  pop\n    /* \"#utility.yul\":6085:6134   */\ntag_116:\n    /* \"#utility.yul\":6147:6227   */\n  tag_117\n    /* \"#utility.yul\":6203:6225   */\n  tag_118\n    /* \"#utility.yul\":6221:6224   */\n  dup6\n    /* \"#utility.yul\":6203:6225   */\n  tag_26\n  jump\t// in\ntag_118:\n    /* \"#utility.yul\":6193:6201   */\n  dup4\n    /* \"#utility.yul\":6189:6226   */\n  add\n    /* \"#utility.yul\":6176:6187   */\n  dup3\n    /* \"#utility.yul\":6147:6227   */\n  tag_36\n  jump\t// in\ntag_117:\n    /* \"#utility.yul\":5806:6237   */\n  pop\n  pop\n    /* \"#utility.yul\":5791:6237   */\ntag_113:\n    /* \"#utility.yul\":5701:6244   */\n  pop\n  pop\n  pop\n  jump\t// out\n    /* \"#utility.yul\":6250:6367   */\ntag_38:\n    /* \"#utility.yul\":6304:6312   */\n  0x00\n    /* \"#utility.yul\":6354:6359   */\n  dup3\n    /* \"#utility.yul\":6348:6352   */\n  dup3\n    /* \"#utility.yul\":6344:6360   */\n  shr\n    /* \"#utility.yul\":6323:6360   */\n  swap1\n  pop\n    /* \"#utility.yul\":6250:6367   */\n  swap3\n  swap2\n  pop\n  pop\n  jump\t// out\n    /* \"#utility.yul\":6373:6542   */\ntag_39:\n    /* \"#utility.yul\":6417:6423   */\n  0x00\n    /* \"#utility.yul\":6450:6501   */\n  tag_121\n    /* \"#utility.yul\":6498:6499   */\n  0x00\n    /* \"#utility.yul\":6494:6500   */\n  not\n    /* \"#utility.yul\":6486:6491   */\n  dup5\n    /* \"#utility.yul\":6483:6484   */\n  0x08\n    /* \"#utility.yul\":6479:6492   */\n  mul\n    /* \"#utility.yul\":6450:6501   */\n  tag_38\n  jump\t// in\ntag_121:\n    /* \"#utility.yul\":6446:6502   */\n  not\n    /* \"#utility.yul\":6531:6535   */\n  dup1\n    /* \"#utility.yul\":6525:6529   */\n  dup4\n    /* \"#utility.yul\":6521:6536   */\n  and\n    /* \"#utility.yul\":6511:6536   */\n  swap2\n  pop\n    /* \"#utility.yul\":6424:6542   */\n  pop\n    /* \"#utility.yul\":6373:6542   */\n  swap3\n  swap2\n  pop\n  pop\n  jump\t// out\n    /* \"#utility.yul\":6547:6842   */\ntag_40:\n    /* \"#utility.yul\":6623:6627   */\n  0x00\n    /* \"#utility.yul\":6769:6798   */\n  tag_123\n    /* \"#utility.yul\":6794:6797   */\n  dup4\n    /* \"#utility.yul\":6788:6792   */\n  dup4\n    /* \"#utility.yul\":6769:6798   */\n  tag_39\n  jump\t// in\ntag_123:\n    /* \"#utility.yul\":6761:6798   */\n  swap2\n  pop\n    /* \"#utility.yul\":6831:6834   */\n  dup3\n    /* \"#utility.yul\":6828:6829   */\n  0x02\n    /* \"#utility.yul\":6824:6835   */\n  mul\n    /* \"#utility.yul\":6818:6822   */\n  dup3\n    /* \"#utility.yul\":6815:6836   */\n  or\n    /* \"#utility.yul\":6807:6836   */\n  swap1\n  pop\n    /* \"#utility.yul\":6547:6842   */\n  swap3\n  swap2\n  pop\n  pop\n  jump\t// out\n    /* \"#utility.yul\":6847:8242   */\ntag_7:\n    /* \"#utility.yul\":6964:7001   */\n  tag_125\n    /* \"#utility.yul\":6997:7000   */\n  dup3\n    /* \"#utility.yul\":6964:7001   */\n  tag_22\n  jump\t// in\ntag_125:\n    /* \"#utility.yul\":7066:7084   */\n  0xffffffffffffffff\n    /* \"#utility.yul\":7058:7064   */\n  dup2\n    /* \"#utility.yul\":7055:7085   */\n  gt\n    /* \"#utility.yul\":7052:7108   */\n  iszero\n  tag_126\n  jumpi\n    /* \"#utility.yul\":7088:7106   */\n  tag_127\n  tag_15\n  jump\t// in\ntag_127:\n    /* \"#utility.yul\":7052:7108   */\ntag_126:\n    /* \"#utility.yul\":7132:7170   */\n  tag_128\n    /* \"#utility.yul\":7164:7168   */\n  dup3\n    /* \"#utility.yul\":7158:7169   */\n  sload\n    /* \"#utility.yul\":7132:7170   */\n  tag_24\n  jump\t// in\ntag_128:\n    /* \"#utility.yul\":7217:7284   */\n  tag_129\n    /* \"#utility.yul\":7277:7283   */\n  dup3\n    /* \"#utility.yul\":7269:7275   */\n  dup3\n    /* \"#utility.yul\":7263:7267   */\n  dup6\n    /* \"#utility.yul\":7217:7284   */\n  tag_37\n  jump\t// in\ntag_129:\n    /* \"#utility.yul\":7311:7312   */\n  0x00\n    /* \"#utility.yul\":7335:7339   */\n  0x20\n    /* \"#utility.yul\":7322:7339   */\n  swap1\n  pop\n    /* \"#utility.yul\":7367:7369   */\n  0x1f\n    /* \"#utility.yul\":7359:7365   */\n  dup4\n    /* \"#utility.yul\":7356:7370   */\n  gt\n    /* \"#utility.yul\":7384:7385   */\n  0x01\n    /* \"#utility.yul\":7379:7997   */\n  dup2\n  eq\n  tag_131\n  jumpi\n    /* \"#utility.yul\":8041:8042   */\n  0x00\n    /* \"#utility.yul\":8058:8064   */\n  dup5\n    /* \"#utility.yul\":8055:8132   */\n  iszero\n  tag_132\n  jumpi\n    /* \"#utility.yul\":8107:8116   */\n  dup3\n    /* \"#utility.yul\":8102:8105   */\n  dup8\n    /* \"#utility.yul\":8098:8117   */\n  add\n    /* \"#utility.yul\":8092:8118   */\n  mload\n    /* \"#utility.yul\":8083:8118   */\n  swap1\n  pop\n    /* \"#utility.yul\":8055:8132   */\ntag_132:\n    /* \"#utility.yul\":8158:8225   */\n  tag_133\n    /* \"#utility.yul\":8218:8224   */\n  dup6\n    /* \"#utility.yul\":8211:8216   */\n  dup3\n    /* \"#utility.yul\":8158:8225   */\n  tag_40\n  jump\t// in\ntag_133:\n    /* \"#utility.yul\":8152:8156   */\n  dup7\n    /* \"#utility.yul\":8145:8226   */\n  sstore\n    /* \"#utility.yul\":8014:8236   */\n  pop\n    /* \"#utility.yul\":7349:8236   */\n  jump(tag_130)\n    /* \"#utility.yul\":7379:7997   */\ntag_131:\n    /* \"#utility.yul\":7431:7435   */\n  0x1f\n    /* \"#utility.yul\":7427:7436   */\n  not\n    /* \"#utility.yul\":7419:7425   */\n  dup5\n    /* \"#utility.yul\":7415:7437   */\n  and\n    /* \"#utility.yul\":7465:7502   */\n  tag_134\n    /* \"#utility.yul\":7497:7501   */\n  dup7\n    /* \"#utility.yul\":7465:7502   */\n  tag_25\n  jump\t// in\ntag_134:\n    /* \"#utility.yul\":7524:7525   */\n  0x00\n    /* \"#utility.yul\":7538:7746   */\ntag_135:\n    /* \"#utility.yul\":7552:7559   */\n  dup3\n    /* \"#utility.yul\":7549:7550   */\n  dup2\n    /* \"#utility.yul\":7546:7560   */\n  lt\n    /* \"#utility.yul\":7538:7746   */\n  iszero\n  tag_137\n  jumpi\n    /* \"#utility.yul\":7631:7640   */\n  dup5\n    /* \"#utility.yul\":7626:7629   */\n  dup10\n    /* \"#utility.yul\":7622:7641   */\n  add\n    /* \"#utility.yul\":7616:7642   */\n  mload\n    /* \"#utility.yul\":7608:7614   */\n  dup3\n    /* \"#utility.yul\":7601:7643   */\n  sstore\n    /* \"#utility.yul\":7682:7683   */\n  0x01\n    /* \"#utility.yul\":7674:7680   */\n  dup3\n    /* \"#utility.yul\":7670:7684   */\n  add\n    /* \"#utility.yul\":7660:7684   */\n  swap2\n  pop\n    /* \"#utility.yul\":7729:7731   */\n  0x20\n    /* \"#utility.yul\":7718:7727   */\n  dup6\n    /* \"#utility.yul\":7714:7732   */\n  add\n    /* \"#utility.yul\":7701:7732   */\n  swap5\n  pop\n    /* \"#utility.yul\":7575:7579   */\n  0x20\n    /* \"#utility.yul\":7572:7573   */\n  dup2\n    /* \"#utility.yul\":7568:7580   */\n  add\n    /* \"#utility.yul\":7563:7580   */\n  swap1\n  pop\n    /* \"#utility.yul\":7538:7746   */\n  jump(tag_135)\ntag_137:\n    /* \"#utility.yul\":7774:7780   */\n  dup7\n    /* \"#utility.yul\":7765:7772   */\n  dup4\n    /* \"#utility.yul\":7762:7781   */\n  lt\n    /* \"#utility.yul\":7759:7938   */\n  iszero\n  tag_138\n  jumpi\n    /* \"#utility.yul\":7832:7841   */\n  dup5\n    /* \"#utility.yul\":7827:7830   */\n  dup10\n    /* \"#utility.yul\":7823:7842   */\n  add\n    /* \"#utility.yul\":7817:7843   */\n  mload\n    /* \"#utility.yul\":7875:7923   */\n  tag_139\n    /* \"#utility.yul\":7917:7921   */\n  0x1f\n    /* \"#utility.yul\":7909:7915   */\n  dup10\n    /* \"#utility.yul\":7905:7922   */\n  and\n    /* \"#utility.yul\":7894:7903   */\n  dup3\n    /* \"#utility.yul\":7875:7923   */\n  tag_39\n  jump\t// in\ntag_139:\n    /* \"#utility.yul\":7867:7873   */\n  dup4\n    /* \"#utility.yul\":7860:7924   */\n  sstore\n    /* \"#utility.yul\":7782:7938   */\n  pop\n    /* \"#utility.yul\":7759:7938   */\ntag_138:\n    /* \"#utility.yul\":7984:7985   */\n  0x01\n    /* \"#utility.yul\":7980:7981   */\n  0x02\n    /* \"#utility.yul\":7972:7978   */\n  dup9\n    /* \"#utility.yul\":7968:7982   */\n  mul\n    /* \"#utility.yul\":7964:7986   */\n  add\n    /* \"#utility.yul\":7958:7962   */\n  dup9\n    /* \"#utility.yul\":7951:7987   */\n  sstore\n    /* \"#utility.yul\":7386:7997   */\n  pop\n  pop\n  pop\n    /* \"#utility.yul\":7349:8236   */\ntag_130:\n  pop\n    /* \"#utility.yul\":6939:8242   */\n  pop\n  pop\n  pop\n    /* \"#utility.yul\":6847:8242   */\n  pop\n  pop\n  jump\t// out\n    /* \"contracts/games/InstantBingo.sol\":72:13727  contract InstantBingo {... */\ntag_8:\n  dataSize(sub_0)\n  dup1\n  dataOffset(sub_0)\n  0x00\n  codecopy\n  0x00\n  return\nstop\n\nsub_0: assembly {\n        /* \"contracts/games/InstantBingo.sol\":72:13727  contract InstantBingo {... */\n      mstore(0x40, 0x80)\n      jumpi(tag_1, lt(calldatasize, 0x04))\n      shr(0xe0, calldataload(0x00))\n      dup1\n      0x8da5cb5b\n      gt\n      tag_27\n      jumpi\n      dup1\n      0xd7098154\n      gt\n      tag_28\n      jumpi\n      dup1\n      0xee7bdc4f\n      gt\n      tag_29\n      jumpi\n      dup1\n      0xee7bdc4f\n      eq\n      tag_23\n      jumpi\n      dup1\n      0xf60cdcf6\n      eq\n      tag_24\n      jumpi\n      dup1\n      0xfca846dc\n      eq\n      tag_25\n      jumpi\n      dup1\n      0xffde0c74\n      eq\n      tag_26\n      jumpi\n      jump(tag_1)\n    tag_29:\n      dup1\n      0xd7098154\n      eq\n      tag_20\n      jumpi\n      dup1\n      0xe0176de8\n      eq\n      tag_21\n      jumpi\n      dup1\n      0xe5a62c48\n      eq\n      tag_22\n      jumpi\n      jump(tag_1)\n    tag_28:\n      dup1\n      0x8da5cb5b\n      eq\n      tag_14\n      jumpi\n      dup1\n      0x99f526dd\n      eq\n      tag_15\n      jumpi\n      dup1\n      0xa813895b\n      eq\n      tag_16\n      jumpi\n      dup1\n      0xb1275f9a\n      eq\n      tag_17\n      jumpi\n      dup1\n      0xbd798a3f\n      eq\n      tag_18\n      jumpi\n      dup1\n      0xc04c5947\n      eq\n      tag_19\n      jumpi\n      jump(tag_1)\n    tag_27:\n      dup1\n      0x55519d87\n      gt\n      tag_30\n      jumpi\n      dup1\n      0x55519d87\n      eq\n      tag_8\n      jumpi\n      dup1\n      0x6edff590\n      eq\n      tag_9\n      jumpi\n      dup1\n      0x6f9fb98a\n      eq\n      tag_10\n      jumpi\n      dup1\n      0x73aedcec\n      eq\n      tag_11\n      jumpi\n      dup1\n      0x77c93662\n      eq\n      tag_12\n      jumpi\n      dup1\n      0x8b5b9ccc\n      eq\n      tag_13\n      jumpi\n      jump(tag_1)\n    tag_30:\n      dup1\n      0x0bd79431\n      eq\n      tag_2\n      jumpi\n      dup1\n      0x13e96552\n      eq\n      tag_3\n      jumpi\n      dup1\n      0x15c9c011\n      eq\n      tag_4\n      jumpi\n      dup1\n      0x298ec208\n      eq\n      tag_5\n      jumpi\n      dup1\n      0x2d6ef310\n      eq\n      tag_6\n      jumpi\n      dup1\n      0x4664611e\n      eq\n      tag_7\n      jumpi\n    tag_1:\n      0x00\n      dup1\n      revert\n        /* \"contracts/games/InstantBingo.sol\":250:294  uint256 public constant MAX_CARD_NUMBER = 75 */\n    tag_2:\n      callvalue\n      dup1\n      iszero\n      tag_31\n      jumpi\n      0x00\n      dup1\n      revert\n    tag_31:\n      pop\n      tag_32\n      tag_33\n      jump\t// in\n    tag_32:\n      mload(0x40)\n      tag_34\n      swap2\n      swap1\n      tag_35\n      jump\t// in\n    tag_34:\n      mload(0x40)\n      dup1\n      swap2\n      sub\n      swap1\n      return\n        /* \"contracts/games/InstantBingo.sol\":9210:9726  function addGameCard(uint256 game,uint256 formNumber,string memory ticket,string memory signature) external onlyOwner returns(uint256 card) {... */\n    tag_3:\n      callvalue\n      dup1\n      iszero\n      tag_36\n      jumpi\n      0x00\n      dup1\n      revert\n    tag_36:\n      pop\n      tag_37\n      0x04\n      dup1\n      calldatasize\n      sub\n      dup2\n      add\n      swap1\n      tag_38\n      swap2\n      swap1\n      tag_39\n      jump\t// in\n    tag_38:\n      tag_40\n      jump\t// in\n    tag_37:\n      mload(0x40)\n      tag_41\n      swap2\n      swap1\n      tag_35\n      jump\t// in\n    tag_41:\n      mload(0x40)\n      dup1\n      swap2\n      sub\n      swap1\n      return\n        /* \"contracts/games/InstantBingo.sol\":9874:10234  function yearToEpoch(uint16 year) public view returns (uint256) {        ... */\n    tag_4:\n      callvalue\n      dup1\n      iszero\n      tag_42\n      jumpi\n      0x00\n      dup1\n      revert\n    tag_42:\n      pop\n      tag_43\n      0x04\n      dup1\n      calldatasize\n      sub\n      dup2\n      add\n      swap1\n      tag_44\n      swap2\n      swap1\n      tag_45\n      jump\t// in\n    tag_44:\n      tag_46\n      jump\t// in\n    tag_43:\n      mload(0x40)\n      tag_47\n      swap2\n      swap1\n      tag_35\n      jump\t// in\n    tag_47:\n      mload(0x40)\n      dup1\n      swap2\n      sub\n      swap1\n      return\n        /* \"contracts/games/InstantBingo.sol\":10572:11462  function buyTicket(uint256 game,uint256 _ticketNumber) external payable {... */\n    tag_5:\n      tag_48\n      0x04\n      dup1\n      calldatasize\n      sub\n      dup2\n      add\n      swap1\n      tag_49\n      swap2\n      swap1\n      tag_50\n      jump\t// in\n    tag_49:\n      tag_51\n      jump\t// in\n    tag_48:\n      stop\n        /* \"contracts/games/InstantBingo.sol\":11468:12222  function closeGame(uint256 game) external onlyOwner {... */\n    tag_6:\n      callvalue\n      dup1\n      iszero\n      tag_52\n      jumpi\n      0x00\n      dup1\n      revert\n    tag_52:\n      pop\n      tag_53\n      0x04\n      dup1\n      calldatasize\n      sub\n      dup2\n      add\n      swap1\n      tag_54\n      swap2\n      swap1\n      tag_55\n      jump\t// in\n    tag_54:\n      tag_56\n      jump\t// in\n    tag_53:\n      stop\n        /* \"contracts/games/InstantBingo.sol\":481:509  uint256 public winningNumber */\n    tag_7:\n      callvalue\n      dup1\n      iszero\n      tag_57\n      jumpi\n      0x00\n      dup1\n      revert\n    tag_57:\n      pop\n      tag_58\n      tag_59\n      jump\t// in\n    tag_58:\n      mload(0x40)\n      tag_60\n      swap2\n      swap1\n      tag_35\n      jump\t// in\n    tag_60:\n      mload(0x40)\n      dup1\n      swap2\n      sub\n      swap1\n      return\n        /* \"contracts/games/InstantBingo.sol\":411:437  uint256 public minAge = 18 */\n    tag_8:\n      callvalue\n      dup1\n      iszero\n      tag_61\n      jumpi\n      0x00\n      dup1\n      revert\n    tag_61:\n      pop\n      tag_62\n      tag_63\n      jump\t// in\n    tag_62:\n      mload(0x40)\n      tag_64\n      swap2\n      swap1\n      tag_35\n      jump\t// in\n    tag_64:\n      mload(0x40)\n      dup1\n      swap2\n      sub\n      swap1\n      return\n        /* \"contracts/games/InstantBingo.sol\":201:244  uint256 public constant MIN_CARD_NUMBER = 1 */\n    tag_9:\n      callvalue\n      dup1\n      iszero\n      tag_65\n      jumpi\n      0x00\n      dup1\n      revert\n    tag_65:\n      pop\n      tag_66\n      tag_67\n      jump\t// in\n    tag_66:\n      mload(0x40)\n      tag_68\n      swap2\n      swap1\n      tag_35\n      jump\t// in\n    tag_68:\n      mload(0x40)\n      dup1\n      swap2\n      sub\n      swap1\n      return\n        /* \"contracts/games/InstantBingo.sol\":13618:13725  function getContractBalance() external view returns (uint256) {... */\n    tag_10:\n      callvalue\n      dup1\n      iszero\n      tag_69\n      jumpi\n      0x00\n      dup1\n      revert\n    tag_69:\n      pop\n      tag_70\n      tag_71\n      jump\t// in\n    tag_70:\n      mload(0x40)\n      tag_72\n      swap2\n      swap1\n      tag_35\n      jump\t// in\n    tag_72:\n      mload(0x40)\n      dup1\n      swap2\n      sub\n      swap1\n      return\n        /* \"contracts/games/InstantBingo.sol\":146:195  uint256 public constant MIN_NUMBERS_PER_CARD = 24 */\n    tag_11:\n      callvalue\n      dup1\n      iszero\n      tag_73\n      jumpi\n      0x00\n      dup1\n      revert\n    tag_73:\n      pop\n      tag_74\n      tag_75\n      jump\t// in\n    tag_74:\n      mload(0x40)\n      tag_76\n      swap2\n      swap1\n      tag_35\n      jump\t// in\n    tag_76:\n      mload(0x40)\n      dup1\n      swap2\n      sub\n      swap1\n      return\n        /* \"contracts/games/InstantBingo.sol\":4550:4571  string public sponsor */\n    tag_12:\n      callvalue\n      dup1\n      iszero\n      tag_77\n      jumpi\n      0x00\n      dup1\n      revert\n    tag_77:\n      pop\n      tag_78\n      tag_79\n      jump\t// in\n    tag_78:\n      mload(0x40)\n      tag_80\n      swap2\n      swap1\n      tag_81\n      jump\t// in\n    tag_80:\n      mload(0x40)\n      dup1\n      swap2\n      sub\n      swap1\n      return\n        /* \"contracts/games/InstantBingo.sol\":13424:13519  function getPlayers() external view returns (address[] memory) {... */\n    tag_13:\n      callvalue\n      dup1\n      iszero\n      tag_82\n      jumpi\n      0x00\n      dup1\n      revert\n    tag_82:\n      pop\n      tag_83\n      tag_84\n      jump\t// in\n    tag_83:\n      mload(0x40)\n      tag_85\n      swap2\n      swap1\n      tag_86\n      jump\t// in\n    tag_85:\n      mload(0x40)\n      dup1\n      swap2\n      sub\n      swap1\n      return\n        /* \"contracts/games/InstantBingo.sol\":349:369  address public owner */\n    tag_14:\n      callvalue\n      dup1\n      iszero\n      tag_87\n      jumpi\n      0x00\n      dup1\n      revert\n    tag_87:\n      pop\n      tag_88\n      tag_89\n      jump\t// in\n    tag_88:\n      mload(0x40)\n      tag_90\n      swap2\n      swap1\n      tag_91\n      jump\t// in\n    tag_90:\n      mload(0x40)\n      dup1\n      swap2\n      sub\n      swap1\n      return\n        /* \"contracts/games/InstantBingo.sol\":9732:9868  function getGameCardNumbers(uint256 game,uint256 card) external view returns (Card memory) {... */\n    tag_15:\n      callvalue\n      dup1\n      iszero\n      tag_92\n      jumpi\n      0x00\n      dup1\n      revert\n    tag_92:\n      pop\n      tag_93\n      0x04\n      dup1\n      calldatasize\n      sub\n      dup2\n      add\n      swap1\n      tag_94\n      swap2\n      swap1\n      tag_50\n      jump\t// in\n    tag_94:\n      tag_95\n      jump\t// in\n    tag_93:\n      mload(0x40)\n      tag_96\n      swap2\n      swap1\n      tag_97\n      jump\t// in\n    tag_96:\n      mload(0x40)\n      dup1\n      swap2\n      sub\n      swap1\n      return\n        /* \"contracts/games/InstantBingo.sol\":5239:5737  function newGame(uint256 startTime,uint256 endTime,uint256 serialNo,uint256 ticketCount) external onlyOwner returns (uint256) {... */\n    tag_16:\n      callvalue\n      dup1\n      iszero\n      tag_98\n      jumpi\n      0x00\n      dup1\n      revert\n    tag_98:\n      pop\n      tag_99\n      0x04\n      dup1\n      calldatasize\n      sub\n      dup2\n      add\n      swap1\n      tag_100\n      swap2\n      swap1\n      tag_101\n      jump\t// in\n    tag_100:\n      tag_102\n      jump\t// in\n    tag_99:\n      mload(0x40)\n      tag_103\n      swap2\n      swap1\n      tag_35\n      jump\t// in\n    tag_103:\n      mload(0x40)\n      dup1\n      swap2\n      sub\n      swap1\n      return\n        /* \"contracts/games/InstantBingo.sol\":10240:10566  function addPlayer(address wallet) external onlyOwner {... */\n    tag_17:\n      callvalue\n      dup1\n      iszero\n      tag_104\n      jumpi\n      0x00\n      dup1\n      revert\n    tag_104:\n      pop\n      tag_105\n      0x04\n      dup1\n      calldatasize\n      sub\n      dup2\n      add\n      swap1\n      tag_106\n      swap2\n      swap1\n      tag_107\n      jump\t// in\n    tag_106:\n      tag_108\n      jump\t// in\n    tag_105:\n      stop\n        /* \"contracts/games/InstantBingo.sol\":12744:13178  function withdrawRemainingFunds(uint256 game) external onlyOwner {... */\n    tag_18:\n      callvalue\n      dup1\n      iszero\n      tag_109\n      jumpi\n      0x00\n      dup1\n      revert\n    tag_109:\n      pop\n      tag_110\n      0x04\n      dup1\n      calldatasize\n      sub\n      dup2\n      add\n      swap1\n      tag_111\n      swap2\n      swap1\n      tag_55\n      jump\t// in\n    tag_111:\n      tag_112\n      jump\t// in\n    tag_110:\n      stop\n        /* \"contracts/games/InstantBingo.sol\":13525:13612  function getGames() external view returns (Game[] memory) {... */\n    tag_19:\n      callvalue\n      dup1\n      iszero\n      tag_113\n      jumpi\n      0x00\n      dup1\n      revert\n    tag_113:\n      pop\n      tag_114\n      tag_115\n      jump\t// in\n    tag_114:\n      mload(0x40)\n      tag_116\n      swap2\n      swap1\n      tag_117\n      jump\t// in\n    tag_116:\n      mload(0x40)\n      dup1\n      swap2\n      sub\n      swap1\n      return\n        /* \"contracts/games/InstantBingo.sol\":12228:12738  function claimPrize(uint256 game) external {... */\n    tag_20:\n      callvalue\n      dup1\n      iszero\n      tag_118\n      jumpi\n      0x00\n      dup1\n      revert\n    tag_118:\n      pop\n      tag_119\n      0x04\n      dup1\n      calldatasize\n      sub\n      dup2\n      add\n      swap1\n      tag_120\n      swap2\n      swap1\n      tag_55\n      jump\t// in\n    tag_120:\n      tag_121\n      jump\t// in\n    tag_119:\n      stop\n        /* \"contracts/games/InstantBingo.sol\":375:405  uint256 public maxPayout = 250 */\n    tag_21:\n      callvalue\n      dup1\n      iszero\n      tag_122\n      jumpi\n      0x00\n      dup1\n      revert\n    tag_122:\n      pop\n      tag_123\n      tag_124\n      jump\t// in\n    tag_123:\n      mload(0x40)\n      tag_125\n      swap2\n      swap1\n      tag_35\n      jump\t// in\n    tag_125:\n      mload(0x40)\n      dup1\n      swap2\n      sub\n      swap1\n      return\n        /* \"contracts/games/InstantBingo.sol\":100:140  uint256 public constant YEARS = 365 days */\n    tag_22:\n      callvalue\n      dup1\n      iszero\n      tag_126\n      jumpi\n      0x00\n      dup1\n      revert\n    tag_126:\n      pop\n      tag_127\n      tag_128\n      jump\t// in\n    tag_127:\n      mload(0x40)\n      tag_129\n      swap2\n      swap1\n      tag_35\n      jump\t// in\n    tag_129:\n      mload(0x40)\n      dup1\n      swap2\n      sub\n      swap1\n      return\n        /* \"contracts/games/InstantBingo.sol\":13301:13418  function getGameEndTime(uint256 game) external view returns (uint256) {... */\n    tag_23:\n      callvalue\n      dup1\n      iszero\n      tag_130\n      jumpi\n      0x00\n      dup1\n      revert\n    tag_130:\n      pop\n      tag_131\n      0x04\n      dup1\n      calldatasize\n      sub\n      dup2\n      add\n      swap1\n      tag_132\n      swap2\n      swap1\n      tag_55\n      jump\t// in\n    tag_132:\n      tag_133\n      jump\t// in\n    tag_131:\n      mload(0x40)\n      tag_134\n      swap2\n      swap1\n      tag_35\n      jump\t// in\n    tag_134:\n      mload(0x40)\n      dup1\n      swap2\n      sub\n      swap1\n      return\n        /* \"contracts/games/InstantBingo.sol\":448:475  uint256 public totalPlayers */\n    tag_24:\n      callvalue\n      dup1\n      iszero\n      tag_135\n      jumpi\n      0x00\n      dup1\n      revert\n    tag_135:\n      pop\n      tag_136\n      tag_137\n      jump\t// in\n    tag_136:\n      mload(0x40)\n      tag_138\n      swap2\n      swap1\n      tag_35\n      jump\t// in\n    tag_138:\n      mload(0x40)\n      dup1\n      swap2\n      sub\n      swap1\n      return\n        /* \"contracts/games/InstantBingo.sol\":300:342  uint256 public constant MAX_TICKETS = 4000 */\n    tag_25:\n      callvalue\n      dup1\n      iszero\n      tag_139\n      jumpi\n      0x00\n      dup1\n      revert\n    tag_139:\n      pop\n      tag_140\n      tag_141\n      jump\t// in\n    tag_140:\n      mload(0x40)\n      tag_142\n      swap2\n      swap1\n      tag_35\n      jump\t// in\n    tag_142:\n      mload(0x40)\n      dup1\n      swap2\n      sub\n      swap1\n      return\n        /* \"contracts/games/InstantBingo.sol\":13184:13295  function getGameState(uint256 game) external view returns (GameState) {... */\n    tag_26:\n      callvalue\n      dup1\n      iszero\n      tag_143\n      jumpi\n      0x00\n      dup1\n      revert\n    tag_143:\n      pop\n      tag_144\n      0x04\n      dup1\n      calldatasize\n      sub\n      dup2\n      add\n      swap1\n      tag_145\n      swap2\n      swap1\n      tag_55\n      jump\t// in\n    tag_145:\n      tag_146\n      jump\t// in\n    tag_144:\n      mload(0x40)\n      tag_147\n      swap2\n      swap1\n      tag_148\n      jump\t// in\n    tag_147:\n      mload(0x40)\n      dup1\n      swap2\n      sub\n      swap1\n      return\n        /* \"contracts/games/InstantBingo.sol\":250:294  uint256 public constant MAX_CARD_NUMBER = 75 */\n    tag_33:\n        /* \"contracts/games/InstantBingo.sol\":292:294  75 */\n      0x4b\n        /* \"contracts/games/InstantBingo.sol\":250:294  uint256 public constant MAX_CARD_NUMBER = 75 */\n      dup2\n      jump\t// out\n        /* \"contracts/games/InstantBingo.sol\":9210:9726  function addGameCard(uint256 game,uint256 formNumber,string memory ticket,string memory signature) external onlyOwner returns(uint256 card) {... */\n    tag_40:\n        /* \"contracts/games/InstantBingo.sol\":9336:9348  uint256 card */\n      0x00\n        /* \"contracts/games/InstantBingo.sol\":5028:5033  owner */\n      dup1\n      0x00\n      swap1\n      sload\n      swap1\n      0x0100\n      exp\n      swap1\n      div\n      0xffffffffffffffffffffffffffffffffffffffff\n      and\n        /* \"contracts/games/InstantBingo.sol\":5014:5033  msg.sender == owner */\n      0xffffffffffffffffffffffffffffffffffffffff\n      and\n        /* \"contracts/games/InstantBingo.sol\":5014:5024  msg.sender */\n      caller\n        /* \"contracts/games/InstantBingo.sol\":5014:5033  msg.sender == owner */\n      0xffffffffffffffffffffffffffffffffffffffff\n      and\n      eq\n        /* \"contracts/games/InstantBingo.sol\":5006:5075  require(msg.sender == owner, \"Only the owner can call this function\") */\n      tag_150\n      jumpi\n      mload(0x40)\n      0x08c379a000000000000000000000000000000000000000000000000000000000\n      dup2\n      mstore\n      0x04\n      add\n      tag_151\n      swap1\n      tag_152\n      jump\t// in\n    tag_151:\n      mload(0x40)\n      dup1\n      swap2\n      sub\n      swap1\n      revert\n    tag_150:\n        /* \"contracts/games/InstantBingo.sol\":9471:9487  uint256 serialNo */\n      0x00\n        /* \"contracts/games/InstantBingo.sol\":9490:9495  games */\n      0x07\n        /* \"contracts/games/InstantBingo.sol\":9496:9500  game */\n      dup7\n        /* \"contracts/games/InstantBingo.sol\":9490:9501  games[game] */\n      dup2\n      sload\n      dup2\n      lt\n      tag_154\n      jumpi\n      tag_155\n      tag_156\n      jump\t// in\n    tag_155:\n    tag_154:\n      swap1\n      0x00\n      mstore\n      keccak256(0x00, 0x20)\n      swap1\n      0x09\n      mul\n      add\n        /* \"contracts/games/InstantBingo.sol\":9490:9510  games[game].serialNo */\n      0x00\n      add\n      sload\n        /* \"contracts/games/InstantBingo.sol\":9471:9510  uint256 serialNo = games[game].serialNo */\n      swap1\n      pop\n        /* \"contracts/games/InstantBingo.sol\":9520:9529  gameCards */\n      0x08\n        /* \"contracts/games/InstantBingo.sol\":9520:9535  gameCards[game] */\n      0x00\n        /* \"contracts/games/InstantBingo.sol\":9530:9534  game */\n      dup8\n        /* \"contracts/games/InstantBingo.sol\":9520:9535  gameCards[game] */\n      dup2\n      mstore\n      0x20\n      add\n      swap1\n      dup2\n      mstore\n      0x20\n      add\n      0x00\n      keccak256\n        /* \"contracts/games/InstantBingo.sol\":9541:9588  Card(game,serialNo,formNumber,ticket,signature) */\n      mload(0x40)\n      dup1\n      0xa0\n      add\n      0x40\n      mstore\n      dup1\n        /* \"contracts/games/InstantBingo.sol\":9546:9550  game */\n      dup9\n        /* \"contracts/games/InstantBingo.sol\":9541:9588  Card(game,serialNo,formNumber,ticket,signature) */\n      dup2\n      mstore\n      0x20\n      add\n        /* \"contracts/games/InstantBingo.sol\":9551:9559  serialNo */\n      dup4\n        /* \"contracts/games/InstantBingo.sol\":9541:9588  Card(game,serialNo,formNumber,ticket,signature) */\n      dup2\n      mstore\n      0x20\n      add\n        /* \"contracts/games/InstantBingo.sol\":9560:9570  formNumber */\n      dup8\n        /* \"contracts/games/InstantBingo.sol\":9541:9588  Card(game,serialNo,formNumber,ticket,signature) */\n      dup2\n      mstore\n      0x20\n      add\n        /* \"contracts/games/InstantBingo.sol\":9571:9577  ticket */\n      dup7\n        /* \"contracts/games/InstantBingo.sol\":9541:9588  Card(game,serialNo,formNumber,ticket,signature) */\n      dup2\n      mstore\n      0x20\n      add\n        /* \"contracts/games/InstantBingo.sol\":9578:9587  signature */\n      dup6\n        /* \"contracts/games/InstantBingo.sol\":9541:9588  Card(game,serialNo,formNumber,ticket,signature) */\n      dup2\n      mstore\n      pop\n        /* \"contracts/games/InstantBingo.sol\":9520:9589  gameCards[game].push(Card(game,serialNo,formNumber,ticket,signature)) */\n      swap1\n      dup1\n      0x01\n      dup2\n      sload\n      add\n      dup1\n      dup3\n      sstore\n      dup1\n      swap2\n      pop\n      pop\n      0x01\n      swap1\n      sub\n      swap1\n      0x00\n      mstore\n      keccak256(0x00, 0x20)\n      swap1\n      0x05\n      mul\n      add\n      0x00\n      swap1\n      swap2\n      swap1\n      swap2\n      swap1\n      swap2\n      pop\n      0x00\n      dup3\n      add\n      mload\n      dup2\n      0x00\n      add\n      sstore\n      0x20\n      dup3\n      add\n      mload\n      dup2\n      0x01\n      add\n      sstore\n      0x40\n      dup3\n      add\n      mload\n      dup2\n      0x02\n      add\n      sstore\n      0x60\n      dup3\n      add\n      mload\n      dup2\n      0x03\n      add\n      swap1\n      dup2\n      tag_159\n      swap2\n      swap1\n      tag_160\n      jump\t// in\n    tag_159:\n      pop\n      0x80\n      dup3\n      add\n      mload\n      dup2\n      0x04\n      add\n      swap1\n      dup2\n      tag_161\n      swap2\n      swap1\n      tag_160\n      jump\t// in\n    tag_161:\n      pop\n      pop\n      pop\n        /* \"contracts/games/InstantBingo.sol\":9631:9632  1 */\n      0x01\n        /* \"contracts/games/InstantBingo.sol\":9606:9615  gameCards */\n      0x08\n        /* \"contracts/games/InstantBingo.sol\":9606:9621  gameCards[game] */\n      0x00\n        /* \"contracts/games/InstantBingo.sol\":9616:9620  game */\n      dup9\n        /* \"contracts/games/InstantBingo.sol\":9606:9621  gameCards[game] */\n      dup2\n      mstore\n      0x20\n      add\n      swap1\n      dup2\n      mstore\n      0x20\n      add\n      0x00\n      keccak256\n        /* \"contracts/games/InstantBingo.sol\":9606:9628  gameCards[game].length */\n      dup1\n      sload\n      swap1\n      pop\n        /* \"contracts/games/InstantBingo.sol\":9606:9632  gameCards[game].length - 1 */\n      tag_162\n      swap2\n      swap1\n      tag_163\n      jump\t// in\n    tag_162:\n        /* \"contracts/games/InstantBingo.sol\":9599:9632  card = gameCards[game].length - 1 */\n      swap2\n      pop\n        /* \"contracts/games/InstantBingo.sol\":9647:9698  GameCardNumbersAdded(game,card,formNumber,serialNo) */\n      0x3332aef7491c9cb15398882926a30726163412884d07a4b51ac2d8072aff4308\n        /* \"contracts/games/InstantBingo.sol\":9668:9672  game */\n      dup7\n        /* \"contracts/games/InstantBingo.sol\":9673:9677  card */\n      dup4\n        /* \"contracts/games/InstantBingo.sol\":9678:9688  formNumber */\n      dup8\n        /* \"contracts/games/InstantBingo.sol\":9689:9697  serialNo */\n      dup5\n        /* \"contracts/games/InstantBingo.sol\":9647:9698  GameCardNumbersAdded(game,card,formNumber,serialNo) */\n      mload(0x40)\n      tag_164\n      swap5\n      swap4\n      swap3\n      swap2\n      swap1\n      tag_165\n      jump\t// in\n    tag_164:\n      mload(0x40)\n      dup1\n      swap2\n      sub\n      swap1\n      log1\n        /* \"contracts/games/InstantBingo.sol\":9708:9719  return card */\n      pop\n        /* \"contracts/games/InstantBingo.sol\":9210:9726  function addGameCard(uint256 game,uint256 formNumber,string memory ticket,string memory signature) external onlyOwner returns(uint256 card) {... */\n      swap5\n      swap4\n      pop\n      pop\n      pop\n      pop\n      jump\t// out\n        /* \"contracts/games/InstantBingo.sol\":9874:10234  function yearToEpoch(uint16 year) public view returns (uint256) {        ... */\n    tag_46:\n        /* \"contracts/games/InstantBingo.sol\":9929:9936  uint256 */\n      0x00\n        /* \"contracts/games/InstantBingo.sol\":10020:10042  uint256 secondsInAYear */\n      dup1\n        /* \"contracts/games/InstantBingo.sol\":10045:10053  365 days */\n      0x01e13380\n        /* \"contracts/games/InstantBingo.sol\":10020:10053  uint256 secondsInAYear = 365 days */\n      swap1\n      pop\n        /* \"contracts/games/InstantBingo.sol\":10124:10146  uint256 epochTimestamp */\n      0x00\n        /* \"contracts/games/InstantBingo.sol\":10181:10195  secondsInAYear */\n      dup2\n        /* \"contracts/games/InstantBingo.sol\":10175:10177  18 */\n      0x12\n        /* \"contracts/games/InstantBingo.sol\":10168:10172  year */\n      dup6\n        /* \"contracts/games/InstantBingo.sol\":10168:10177  year + 18 */\n      tag_167\n      swap2\n      swap1\n      tag_168\n      jump\t// in\n    tag_167:\n        /* \"contracts/games/InstantBingo.sol\":10167:10195  (year + 18) * secondsInAYear */\n      0xffff\n      and\n      tag_169\n      swap2\n      swap1\n      tag_170\n      jump\t// in\n    tag_169:\n        /* \"contracts/games/InstantBingo.sol\":10149:10164  block.timestamp */\n      timestamp\n        /* \"contracts/games/InstantBingo.sol\":10149:10195  block.timestamp + (year + 18) * secondsInAYear */\n      tag_171\n      swap2\n      swap1\n      tag_172\n      jump\t// in\n    tag_171:\n        /* \"contracts/games/InstantBingo.sol\":10124:10195  uint256 epochTimestamp = block.timestamp + (year + 18) * secondsInAYear */\n      swap1\n      pop\n        /* \"contracts/games/InstantBingo.sol\":10213:10227  epochTimestamp */\n      dup1\n        /* \"contracts/games/InstantBingo.sol\":10206:10227  return epochTimestamp */\n      swap3\n      pop\n      pop\n      pop\n        /* \"contracts/games/InstantBingo.sol\":9874:10234  function yearToEpoch(uint16 year) public view returns (uint256) {        ... */\n      swap2\n      swap1\n      pop\n      jump\t// out\n        /* \"contracts/games/InstantBingo.sol\":10572:11462  function buyTicket(uint256 game,uint256 _ticketNumber) external payable {... */\n    tag_51:\n        /* \"contracts/games/InstantBingo.sol\":10683:10697  GameState.Open */\n      0x00\n        /* \"contracts/games/InstantBingo.sol\":10662:10697  games[game].state == GameState.Open */\n      0x03\n      dup2\n      gt\n      iszero\n      tag_174\n      jumpi\n      tag_175\n      tag_176\n      jump\t// in\n    tag_175:\n    tag_174:\n        /* \"contracts/games/InstantBingo.sol\":10662:10667  games */\n      0x07\n        /* \"contracts/games/InstantBingo.sol\":10668:10672  game */\n      dup4\n        /* \"contracts/games/InstantBingo.sol\":10662:10673  games[game] */\n      dup2\n      sload\n      dup2\n      lt\n      tag_177\n      jumpi\n      tag_178\n      tag_156\n      jump\t// in\n    tag_178:\n    tag_177:\n      swap1\n      0x00\n      mstore\n      keccak256(0x00, 0x20)\n      swap1\n      0x09\n      mul\n      add\n        /* \"contracts/games/InstantBingo.sol\":10662:10679  games[game].state */\n      0x03\n      add\n      0x00\n      swap1\n      sload\n      swap1\n      0x0100\n      exp\n      swap1\n      div\n      0xff\n      and\n        /* \"contracts/games/InstantBingo.sol\":10662:10697  games[game].state == GameState.Open */\n      0x03\n      dup2\n      gt\n      iszero\n      tag_180\n      jumpi\n      tag_181\n      tag_176\n      jump\t// in\n    tag_181:\n    tag_180:\n      eq\n        /* \"contracts/games/InstantBingo.sol\":10654:10742  require(games[game].state == GameState.Open, \"The game is not open for ticket purchase\") */\n      tag_182\n      jumpi\n      mload(0x40)\n      0x08c379a000000000000000000000000000000000000000000000000000000000\n      dup2\n      mstore\n      0x04\n      add\n      tag_183\n      swap1\n      tag_184\n      jump\t// in\n    tag_183:\n      mload(0x40)\n      dup1\n      swap2\n      sub\n      swap1\n      revert\n    tag_182:\n        /* \"contracts/games/InstantBingo.sol\":10882:10887  games */\n      0x07\n        /* \"contracts/games/InstantBingo.sol\":10888:10892  game */\n      dup3\n        /* \"contracts/games/InstantBingo.sol\":10882:10893  games[game] */\n      dup2\n      sload\n      dup2\n      lt\n      tag_185\n      jumpi\n      tag_186\n      tag_156\n      jump\t// in\n    tag_186:\n    tag_185:\n      swap1\n      0x00\n      mstore\n      keccak256(0x00, 0x20)\n      swap1\n      0x09\n      mul\n      add\n        /* \"contracts/games/InstantBingo.sol\":10882:10904  games[game].maxPlayers */\n      0x05\n      add\n      sload\n        /* \"contracts/games/InstantBingo.sol\":10854:10859  games */\n      0x07\n        /* \"contracts/games/InstantBingo.sol\":10860:10864  game */\n      dup4\n        /* \"contracts/games/InstantBingo.sol\":10854:10865  games[game] */\n      dup2\n      sload\n      dup2\n      lt\n      tag_188\n      jumpi\n      tag_189\n      tag_156\n      jump\t// in\n    tag_189:\n    tag_188:\n      swap1\n      0x00\n      mstore\n      keccak256(0x00, 0x20)\n      swap1\n      0x09\n      mul\n      add\n        /* \"contracts/games/InstantBingo.sol\":10854:10878  games[game].totalPlayers */\n      0x04\n      add\n      sload\n        /* \"contracts/games/InstantBingo.sol\":10854:10904  games[game].totalPlayers <= games[game].maxPlayers */\n      gt\n      iszero\n        /* \"contracts/games/InstantBingo.sol\":10846:10932  require(games[game].totalPlayers <= games[game].maxPlayers, \"Maximum players reached\") */\n      tag_191\n      jumpi\n      mload(0x40)\n      0x08c379a000000000000000000000000000000000000000000000000000000000\n      dup2\n      mstore\n      0x04\n      add\n      tag_192\n      swap1\n      tag_193\n      jump\t// in\n    tag_192:\n      mload(0x40)\n      dup1\n      swap2\n      sub\n      swap1\n      revert\n    tag_191:\n        /* \"contracts/games/InstantBingo.sol\":10967:10968  0 */\n      0x00\n        /* \"contracts/games/InstantBingo.sol\":10950:10963  _ticketNumber */\n      dup2\n        /* \"contracts/games/InstantBingo.sol\":10950:10968  _ticketNumber >= 0 */\n      lt\n      iszero\n        /* \"contracts/games/InstantBingo.sol\":10950:11011  _ticketNumber >= 0 && _ticketNumber <= games[game].maxPlayers */\n      dup1\n      iszero\n      tag_194\n      jumpi\n      pop\n        /* \"contracts/games/InstantBingo.sol\":10989:10994  games */\n      0x07\n        /* \"contracts/games/InstantBingo.sol\":10995:10999  game */\n      dup3\n        /* \"contracts/games/InstantBingo.sol\":10989:11000  games[game] */\n      dup2\n      sload\n      dup2\n      lt\n      tag_195\n      jumpi\n      tag_196\n      tag_156\n      jump\t// in\n    tag_196:\n    tag_195:\n      swap1\n      0x00\n      mstore\n      keccak256(0x00, 0x20)\n      swap1\n      0x09\n      mul\n      add\n        /* \"contracts/games/InstantBingo.sol\":10989:11011  games[game].maxPlayers */\n      0x05\n      add\n      sload\n        /* \"contracts/games/InstantBingo.sol\":10972:10985  _ticketNumber */\n      dup2\n        /* \"contracts/games/InstantBingo.sol\":10972:11011  _ticketNumber <= games[game].maxPlayers */\n      gt\n      iszero\n        /* \"contracts/games/InstantBingo.sol\":10950:11011  _ticketNumber >= 0 && _ticketNumber <= games[game].maxPlayers */\n    tag_194:\n        /* \"contracts/games/InstantBingo.sol\":10942:11037  require(_ticketNumber >= 0 && _ticketNumber <= games[game].maxPlayers, \"Invalid ticket number\") */\n      tag_198\n      jumpi\n      mload(0x40)\n      0x08c379a000000000000000000000000000000000000000000000000000000000\n      dup2\n      mstore\n      0x04\n      add\n      tag_199\n      swap1\n      tag_200\n      jump\t// in\n    tag_199:\n      mload(0x40)\n      dup1\n      swap2\n      sub\n      swap1\n      revert\n    tag_198:\n        /* \"contracts/games/InstantBingo.sol\":11070:11124  Player(games[game].serialNo,msg.sender, _ticketNumber) */\n      mload(0x40)\n      dup1\n      0x60\n      add\n      0x40\n      mstore\n      dup1\n        /* \"contracts/games/InstantBingo.sol\":11077:11082  games */\n      0x07\n        /* \"contracts/games/InstantBingo.sol\":11083:11087  game */\n      dup5\n        /* \"contracts/games/InstantBingo.sol\":11077:11088  games[game] */\n      dup2\n      sload\n      dup2\n      lt\n      tag_201\n      jumpi\n      tag_202\n      tag_156\n      jump\t// in\n    tag_202:\n    tag_201:\n      swap1\n      0x00\n      mstore\n      keccak256(0x00, 0x20)\n      swap1\n      0x09\n      mul\n      add\n        /* \"contracts/games/InstantBingo.sol\":11077:11097  games[game].serialNo */\n      0x00\n      add\n      sload\n        /* \"contracts/games/InstantBingo.sol\":11070:11124  Player(games[game].serialNo,msg.sender, _ticketNumber) */\n      dup2\n      mstore\n      0x20\n      add\n        /* \"contracts/games/InstantBingo.sol\":11098:11108  msg.sender */\n      caller\n        /* \"contracts/games/InstantBingo.sol\":11070:11124  Player(games[game].serialNo,msg.sender, _ticketNumber) */\n      0xffffffffffffffffffffffffffffffffffffffff\n      and\n      dup2\n      mstore\n      0x20\n      add\n        /* \"contracts/games/InstantBingo.sol\":11110:11123  _ticketNumber */\n      dup3\n        /* \"contracts/games/InstantBingo.sol\":11070:11124  Player(games[game].serialNo,msg.sender, _ticketNumber) */\n      dup2\n      mstore\n      pop\n        /* \"contracts/games/InstantBingo.sol\":11048:11055  players */\n      0x06\n        /* \"contracts/games/InstantBingo.sol\":11048:11067  players[msg.sender] */\n      0x00\n        /* \"contracts/games/InstantBingo.sol\":11056:11066  msg.sender */\n      caller\n        /* \"contracts/games/InstantBingo.sol\":11048:11067  players[msg.sender] */\n      0xffffffffffffffffffffffffffffffffffffffff\n      and\n      0xffffffffffffffffffffffffffffffffffffffff\n      and\n      dup2\n      mstore\n      0x20\n      add\n      swap1\n      dup2\n      mstore\n      0x20\n      add\n      0x00\n      keccak256\n        /* \"contracts/games/InstantBingo.sol\":11048:11124  players[msg.sender] = Player(games[game].serialNo,msg.sender, _ticketNumber) */\n      0x00\n      dup3\n      add\n      mload\n      dup2\n      0x00\n      add\n      sstore\n      0x20\n      dup3\n      add\n      mload\n      dup2\n      0x01\n      add\n      exp(0x0100, 0x00)\n      dup2\n      sload\n      dup2\n      0xffffffffffffffffffffffffffffffffffffffff\n      mul\n      not\n      and\n      swap1\n      dup4\n      0xffffffffffffffffffffffffffffffffffffffff\n      and\n      mul\n      or\n      swap1\n      sstore\n      pop\n      0x40\n      dup3\n      add\n      mload\n      dup2\n      0x02\n      add\n      sstore\n      swap1\n      pop\n      pop\n        /* \"contracts/games/InstantBingo.sol\":11134:11142  _players */\n      0x05\n        /* \"contracts/games/InstantBingo.sol\":11148:11158  msg.sender */\n      caller\n        /* \"contracts/games/InstantBingo.sol\":11134:11159  _players.push(msg.sender) */\n      swap1\n      dup1\n      0x01\n      dup2\n      sload\n      add\n      dup1\n      dup3\n      sstore\n      dup1\n      swap2\n      pop\n      pop\n      0x01\n      swap1\n      sub\n      swap1\n      0x00\n      mstore\n      keccak256(0x00, 0x20)\n      add\n      0x00\n      swap1\n      swap2\n      swap1\n      swap2\n      swap1\n      swap2\n      0x0100\n      exp\n      dup2\n      sload\n      dup2\n      0xffffffffffffffffffffffffffffffffffffffff\n      mul\n      not\n      and\n      swap1\n      dup4\n      0xffffffffffffffffffffffffffffffffffffffff\n      and\n      mul\n      or\n      swap1\n      sstore\n      pop\n        /* \"contracts/games/InstantBingo.sol\":11198:11199  1 */\n      0x01\n        /* \"contracts/games/InstantBingo.sol\":11170:11175  games */\n      0x07\n        /* \"contracts/games/InstantBingo.sol\":11176:11180  game */\n      dup4\n        /* \"contracts/games/InstantBingo.sol\":11170:11181  games[game] */\n      dup2\n      sload\n      dup2\n      lt\n      tag_205\n      jumpi\n      tag_206\n      tag_156\n      jump\t// in\n    tag_206:\n    tag_205:\n      swap1\n      0x00\n      mstore\n      keccak256(0x00, 0x20)\n      swap1\n      0x09\n      mul\n      add\n        /* \"contracts/games/InstantBingo.sol\":11170:11194  games[game].totalPlayers */\n      0x04\n      add\n      0x00\n        /* \"contracts/games/InstantBingo.sol\":11170:11199  games[game].totalPlayers += 1 */\n      dup3\n      dup3\n      sload\n      tag_208\n      swap2\n      swap1\n      tag_172\n      jump\t// in\n    tag_208:\n      swap3\n      pop\n      pop\n      dup2\n      swap1\n      sstore\n      pop\n        /* \"contracts/games/InstantBingo.sol\":11242:11247  games */\n      0x07\n        /* \"contracts/games/InstantBingo.sol\":11248:11252  game */\n      dup3\n        /* \"contracts/games/InstantBingo.sol\":11242:11253  games[game] */\n      dup2\n      sload\n      dup2\n      lt\n      tag_209\n      jumpi\n      tag_210\n      tag_156\n      jump\t// in\n    tag_210:\n    tag_209:\n      swap1\n      0x00\n      mstore\n      keccak256(0x00, 0x20)\n      swap1\n      0x09\n      mul\n      add\n        /* \"contracts/games/InstantBingo.sol\":11242:11264  games[game].maxPlayers */\n      0x05\n      add\n      sload\n        /* \"contracts/games/InstantBingo.sol\":11214:11219  games */\n      0x07\n        /* \"contracts/games/InstantBingo.sol\":11220:11224  game */\n      dup4\n        /* \"contracts/games/InstantBingo.sol\":11214:11225  games[game] */\n      dup2\n      sload\n      dup2\n      lt\n      tag_212\n      jumpi\n      tag_213\n      tag_156\n      jump\t// in\n    tag_213:\n    tag_212:\n      swap1\n      0x00\n      mstore\n      keccak256(0x00, 0x20)\n      swap1\n      0x09\n      mul\n      add\n        /* \"contracts/games/InstantBingo.sol\":11214:11238  games[game].totalPlayers */\n      0x04\n      add\n      sload\n        /* \"contracts/games/InstantBingo.sol\":11214:11264  games[game].totalPlayers == games[game].maxPlayers */\n      sub\n        /* \"contracts/games/InstantBingo.sol\":11210:11382  if (games[game].totalPlayers == games[game].maxPlayers) {... */\n      tag_215\n      jumpi\n        /* \"contracts/games/InstantBingo.sol\":11300:11316  GameState.Closed */\n      0x01\n        /* \"contracts/games/InstantBingo.sol\":11280:11285  games */\n      0x07\n        /* \"contracts/games/InstantBingo.sol\":11286:11290  game */\n      dup4\n        /* \"contracts/games/InstantBingo.sol\":11280:11291  games[game] */\n      dup2\n      sload\n      dup2\n      lt\n      tag_216\n      jumpi\n      tag_217\n      tag_156\n      jump\t// in\n    tag_217:\n    tag_216:\n      swap1\n      0x00\n      mstore\n      keccak256(0x00, 0x20)\n      swap1\n      0x09\n      mul\n      add\n        /* \"contracts/games/InstantBingo.sol\":11280:11297  games[game].state */\n      0x03\n      add\n      0x00\n        /* \"contracts/games/InstantBingo.sol\":11280:11316  games[game].state = GameState.Closed */\n      0x0100\n      exp\n      dup2\n      sload\n      dup2\n      0xff\n      mul\n      not\n      and\n      swap1\n      dup4\n      0x03\n      dup2\n      gt\n      iszero\n      tag_219\n      jumpi\n      tag_220\n      tag_176\n      jump\t// in\n    tag_220:\n    tag_219:\n      mul\n      or\n      swap1\n      sstore\n      pop\n        /* \"contracts/games/InstantBingo.sol\":11356:11371  block.timestamp */\n      timestamp\n        /* \"contracts/games/InstantBingo.sol\":11330:11335  games */\n      0x07\n        /* \"contracts/games/InstantBingo.sol\":11336:11340  game */\n      dup4\n        /* \"contracts/games/InstantBingo.sol\":11330:11341  games[game] */\n      dup2\n      sload\n      dup2\n      lt\n      tag_221\n      jumpi\n      tag_222\n      tag_156\n      jump\t// in\n    tag_222:\n    tag_221:\n      swap1\n      0x00\n      mstore\n      keccak256(0x00, 0x20)\n      swap1\n      0x09\n      mul\n      add\n        /* \"contracts/games/InstantBingo.sol\":11330:11353  games[game].gameEndTime */\n      0x02\n      add\n        /* \"contracts/games/InstantBingo.sol\":11330:11371  games[game].gameEndTime = block.timestamp */\n      dup2\n      swap1\n      sstore\n      pop\n        /* \"contracts/games/InstantBingo.sol\":11210:11382  if (games[game].totalPlayers == games[game].maxPlayers) {... */\n    tag_215:\n        /* \"contracts/games/InstantBingo.sol\":11396:11455  GameTicketPurchase(game,_ticketNumber,games[game].serialNo) */\n      0x200c56b5ea932e7efe2f882ae8b04cb25aec0c691ace0e0754b75655fec67da7\n        /* \"contracts/games/InstantBingo.sol\":11415:11419  game */\n      dup3\n        /* \"contracts/games/InstantBingo.sol\":11420:11433  _ticketNumber */\n      dup3\n        /* \"contracts/games/InstantBingo.sol\":11434:11439  games */\n      0x07\n        /* \"contracts/games/InstantBingo.sol\":11440:11444  game */\n      dup6\n        /* \"contracts/games/InstantBingo.sol\":11434:11445  games[game] */\n      dup2\n      sload\n      dup2\n      lt\n      tag_224\n      jumpi\n      tag_225\n      tag_156\n      jump\t// in\n    tag_225:\n    tag_224:\n      swap1\n      0x00\n      mstore\n      keccak256(0x00, 0x20)\n      swap1\n      0x09\n      mul\n      add\n        /* \"contracts/games/InstantBingo.sol\":11434:11454  games[game].serialNo */\n      0x00\n      add\n      sload\n        /* \"contracts/games/InstantBingo.sol\":11396:11455  GameTicketPurchase(game,_ticketNumber,games[game].serialNo) */\n      mload(0x40)\n      tag_227\n      swap4\n      swap3\n      swap2\n      swap1\n      tag_228\n      jump\t// in\n    tag_227:\n      mload(0x40)\n      dup1\n      swap2\n      sub\n      swap1\n      log1\n        /* \"contracts/games/InstantBingo.sol\":10572:11462  function buyTicket(uint256 game,uint256 _ticketNumber) external payable {... */\n      pop\n      pop\n      jump\t// out\n        /* \"contracts/games/InstantBingo.sol\":11468:12222  function closeGame(uint256 game) external onlyOwner {... */\n    tag_56:\n        /* \"contracts/games/InstantBingo.sol\":5028:5033  owner */\n      0x00\n      dup1\n      sload\n      swap1\n      0x0100\n      exp\n      swap1\n      div\n      0xffffffffffffffffffffffffffffffffffffffff\n      and\n        /* \"contracts/games/InstantBingo.sol\":5014:5033  msg.sender == owner */\n      0xffffffffffffffffffffffffffffffffffffffff\n      and\n        /* \"contracts/games/InstantBingo.sol\":5014:5024  msg.sender */\n      caller\n        /* \"contracts/games/InstantBingo.sol\":5014:5033  msg.sender == owner */\n      0xffffffffffffffffffffffffffffffffffffffff\n      and\n      eq\n        /* \"contracts/games/InstantBingo.sol\":5006:5075  require(msg.sender == owner, \"Only the owner can call this function\") */\n      tag_230\n      jumpi\n      mload(0x40)\n      0x08c379a000000000000000000000000000000000000000000000000000000000\n      dup2\n      mstore\n      0x04\n      add\n      tag_231\n      swap1\n      tag_152\n      jump\t// in\n    tag_231:\n      mload(0x40)\n      dup1\n      swap2\n      sub\n      swap1\n      revert\n    tag_230:\n        /* \"contracts/games/InstantBingo.sol\":11559:11575  GameState.Closed */\n      0x01\n        /* \"contracts/games/InstantBingo.sol\":11538:11575  games[game].state == GameState.Closed */\n      0x03\n      dup2\n      gt\n      iszero\n      tag_233\n      jumpi\n      tag_234\n      tag_176\n      jump\t// in\n    tag_234:\n    tag_233:\n        /* \"contracts/games/InstantBingo.sol\":11538:11543  games */\n      0x07\n        /* \"contracts/games/InstantBingo.sol\":11544:11548  game */\n      dup3\n        /* \"contracts/games/InstantBingo.sol\":11538:11549  games[game] */\n      dup2\n      sload\n      dup2\n      lt\n      tag_235\n      jumpi\n      tag_236\n      tag_156\n      jump\t// in\n    tag_236:\n    tag_235:\n      swap1\n      0x00\n      mstore\n      keccak256(0x00, 0x20)\n      swap1\n      0x09\n      mul\n      add\n        /* \"contracts/games/InstantBingo.sol\":11538:11555  games[game].state */\n      0x03\n      add\n      0x00\n      swap1\n      sload\n      swap1\n      0x0100\n      exp\n      swap1\n      div\n      0xff\n      and\n        /* \"contracts/games/InstantBingo.sol\":11538:11575  games[game].state == GameState.Closed */\n      0x03\n      dup2\n      gt\n      iszero\n      tag_238\n      jumpi\n      tag_239\n      tag_176\n      jump\t// in\n    tag_239:\n    tag_238:\n      eq\n        /* \"contracts/games/InstantBingo.sol\":11530:11606  require(games[game].state == GameState.Closed, \"The game is not closed yet\") */\n      tag_240\n      jumpi\n      mload(0x40)\n      0x08c379a000000000000000000000000000000000000000000000000000000000\n      dup2\n      mstore\n      0x04\n      add\n      tag_241\n      swap1\n      tag_242\n      jump\t// in\n    tag_241:\n      mload(0x40)\n      dup1\n      swap2\n      sub\n      swap1\n      revert\n    tag_240:\n        /* \"contracts/games/InstantBingo.sol\":11856:11861  games */\n      0x07\n        /* \"contracts/games/InstantBingo.sol\":11862:11866  game */\n      dup2\n        /* \"contracts/games/InstantBingo.sol\":11856:11867  games[game] */\n      dup2\n      sload\n      dup2\n      lt\n      tag_243\n      jumpi\n      tag_244\n      tag_156\n      jump\t// in\n    tag_244:\n    tag_243:\n      swap1\n      0x00\n      mstore\n      keccak256(0x00, 0x20)\n      swap1\n      0x09\n      mul\n      add\n        /* \"contracts/games/InstantBingo.sol\":11856:11878  games[game].maxPlayers */\n      0x05\n      add\n      sload\n        /* \"contracts/games/InstantBingo.sol\":11835:11850  block.timestamp */\n      timestamp\n        /* \"contracts/games/InstantBingo.sol\":11818:11851  abi.encodePacked(block.timestamp) */\n      add(0x20, mload(0x40))\n      tag_246\n      swap2\n      swap1\n      tag_247\n      jump\t// in\n    tag_246:\n      mload(0x40)\n      0x20\n      dup2\n      dup4\n      sub\n      sub\n      dup2\n      mstore\n      swap1\n      0x40\n      mstore\n        /* \"contracts/games/InstantBingo.sol\":11808:11852  keccak256(abi.encodePacked(block.timestamp)) */\n      dup1\n      mload\n      swap1\n      0x20\n      add\n      keccak256\n        /* \"contracts/games/InstantBingo.sol\":11800:11853  uint256(keccak256(abi.encodePacked(block.timestamp))) */\n      0x00\n      shr\n        /* \"contracts/games/InstantBingo.sol\":11800:11878  uint256(keccak256(abi.encodePacked(block.timestamp))) % games[game].maxPlayers */\n      tag_248\n      swap2\n      swap1\n      tag_249\n      jump\t// in\n    tag_248:\n        /* \"contracts/games/InstantBingo.sol\":11784:11797  winningNumber */\n      0x04\n        /* \"contracts/games/InstantBingo.sol\":11784:11878  winningNumber = uint256(keccak256(abi.encodePacked(block.timestamp))) % games[game].maxPlayers */\n      dup2\n      swap1\n      sstore\n      pop\n        /* \"contracts/games/InstantBingo.sol\":11909:11927  GameState.Finished */\n      0x02\n        /* \"contracts/games/InstantBingo.sol\":11889:11894  games */\n      0x07\n        /* \"contracts/games/InstantBingo.sol\":11895:11899  game */\n      dup3\n        /* \"contracts/games/InstantBingo.sol\":11889:11900  games[game] */\n      dup2\n      sload\n      dup2\n      lt\n      tag_250\n      jumpi\n      tag_251\n      tag_156\n      jump\t// in\n    tag_251:\n    tag_250:\n      swap1\n      0x00\n      mstore\n      keccak256(0x00, 0x20)\n      swap1\n      0x09\n      mul\n      add\n        /* \"contracts/games/InstantBingo.sol\":11889:11906  games[game].state */\n      0x03\n      add\n      0x00\n        /* \"contracts/games/InstantBingo.sol\":11889:11927  games[game].state = GameState.Finished */\n      0x0100\n      exp\n      dup2\n      sload\n      dup2\n      0xff\n      mul\n      not\n      and\n      swap1\n      dup4\n      0x03\n      dup2\n      gt\n      iszero\n      tag_253\n      jumpi\n      tag_254\n      tag_176\n      jump\t// in\n    tag_254:\n    tag_253:\n      mul\n      or\n      swap1\n      sstore\n      pop\n        /* \"contracts/games/InstantBingo.sol\":12026:12031  games */\n      0x07\n        /* \"contracts/games/InstantBingo.sol\":12032:12036  game */\n      dup2\n        /* \"contracts/games/InstantBingo.sol\":12026:12037  games[game] */\n      dup2\n      sload\n      dup2\n      lt\n      tag_255\n      jumpi\n      tag_256\n      tag_156\n      jump\t// in\n    tag_256:\n    tag_255:\n      swap1\n      0x00\n      mstore\n      keccak256(0x00, 0x20)\n      swap1\n      0x09\n      mul\n      add\n        /* \"contracts/games/InstantBingo.sol\":12026:12048  games[game].maxPlayers */\n      0x05\n      add\n      sload\n        /* \"contracts/games/InstantBingo.sol\":11998:12003  games */\n      0x07\n        /* \"contracts/games/InstantBingo.sol\":12004:12008  game */\n      dup3\n        /* \"contracts/games/InstantBingo.sol\":11998:12009  games[game] */\n      dup2\n      sload\n      dup2\n      lt\n      tag_258\n      jumpi\n      tag_259\n      tag_156\n      jump\t// in\n    tag_259:\n    tag_258:\n      swap1\n      0x00\n      mstore\n      keccak256(0x00, 0x20)\n      swap1\n      0x09\n      mul\n      add\n        /* \"contracts/games/InstantBingo.sol\":11998:12022  games[game].totalPlayers */\n      0x04\n      add\n      sload\n        /* \"contracts/games/InstantBingo.sol\":11998:12048  games[game].totalPlayers == games[game].maxPlayers */\n      eq\n        /* \"contracts/games/InstantBingo.sol\":11998:12085  games[game].totalPlayers == games[game].maxPlayers && address(this).balance > maxPayout */\n      dup1\n      iszero\n      tag_261\n      jumpi\n      pop\n        /* \"contracts/games/InstantBingo.sol\":12076:12085  maxPayout */\n      sload(0x01)\n        /* \"contracts/games/InstantBingo.sol\":12052:12073  address(this).balance */\n      selfbalance\n        /* \"contracts/games/InstantBingo.sol\":12052:12085  address(this).balance > maxPayout */\n      gt\n        /* \"contracts/games/InstantBingo.sol\":11998:12085  games[game].totalPlayers == games[game].maxPlayers && address(this).balance > maxPayout */\n    tag_261:\n        /* \"contracts/games/InstantBingo.sol\":11994:12170  if (games[game].totalPlayers == games[game].maxPlayers && address(this).balance > maxPayout) {... */\n      iszero\n      tag_262\n      jumpi\n        /* \"contracts/games/InstantBingo.sol\":12109:12114  owner */\n      0x00\n      dup1\n      sload\n      swap1\n      0x0100\n      exp\n      swap1\n      div\n      0xffffffffffffffffffffffffffffffffffffffff\n      and\n        /* \"contracts/games/InstantBingo.sol\":12101:12124  payable(owner).transfer */\n      0xffffffffffffffffffffffffffffffffffffffff\n      and\n        /* \"contracts/games/InstantBingo.sol\":12101:12159  payable(owner).transfer(address(this).balance - maxPayout) */\n      0x08fc\n        /* \"contracts/games/InstantBingo.sol\":12149:12158  maxPayout */\n      sload(0x01)\n        /* \"contracts/games/InstantBingo.sol\":12125:12146  address(this).balance */\n      selfbalance\n        /* \"contracts/games/InstantBingo.sol\":12125:12158  address(this).balance - maxPayout */\n      tag_263\n      swap2\n      swap1\n      tag_163\n      jump\t// in\n    tag_263:\n        /* \"contracts/games/InstantBingo.sol\":12101:12159  payable(owner).transfer(address(this).balance - maxPayout) */\n      swap1\n      dup2\n      iszero\n      mul\n      swap1\n      mload(0x40)\n      0x00\n      mload(0x40)\n      dup1\n      dup4\n      sub\n      dup2\n      dup6\n      dup9\n      dup9\n      call\n      swap4\n      pop\n      pop\n      pop\n      pop\n      iszero\n      dup1\n      iszero\n      tag_265\n      jumpi\n      returndatasize\n      0x00\n      dup1\n      returndatacopy\n      revert(0x00, returndatasize)\n    tag_265:\n      pop\n        /* \"contracts/games/InstantBingo.sol\":11994:12170  if (games[game].totalPlayers == games[game].maxPlayers && address(this).balance > maxPayout) {... */\n    tag_262:\n        /* \"contracts/games/InstantBingo.sol\":12185:12215  GameEnded(game, winningNumber) */\n      0x4c4660db760944215f41e957066d756ad5fd0eed1b4640632322eb06f77b034d\n        /* \"contracts/games/InstantBingo.sol\":12195:12199  game */\n      dup2\n        /* \"contracts/games/InstantBingo.sol\":12201:12214  winningNumber */\n      sload(0x04)\n        /* \"contracts/games/InstantBingo.sol\":12185:12215  GameEnded(game, winningNumber) */\n      mload(0x40)\n      tag_266\n      swap3\n      swap2\n      swap1\n      tag_267\n      jump\t// in\n    tag_266:\n      mload(0x40)\n      dup1\n      swap2\n      sub\n      swap1\n      log1\n        /* \"contracts/games/InstantBingo.sol\":11468:12222  function closeGame(uint256 game) external onlyOwner {... */\n      pop\n      jump\t// out\n        /* \"contracts/games/InstantBingo.sol\":481:509  uint256 public winningNumber */\n    tag_59:\n      sload(0x04)\n      dup2\n      jump\t// out\n        /* \"contracts/games/InstantBingo.sol\":411:437  uint256 public minAge = 18 */\n    tag_63:\n      sload(0x02)\n      dup2\n      jump\t// out\n        /* \"contracts/games/InstantBingo.sol\":201:244  uint256 public constant MIN_CARD_NUMBER = 1 */\n    tag_67:\n        /* \"contracts/games/InstantBingo.sol\":243:244  1 */\n      0x01\n        /* \"contracts/games/InstantBingo.sol\":201:244  uint256 public constant MIN_CARD_NUMBER = 1 */\n      dup2\n      jump\t// out\n        /* \"contracts/games/InstantBingo.sol\":13618:13725  function getContractBalance() external view returns (uint256) {... */\n    tag_71:\n        /* \"contracts/games/InstantBingo.sol\":13671:13678  uint256 */\n      0x00\n        /* \"contracts/games/InstantBingo.sol\":13697:13718  address(this).balance */\n      selfbalance\n        /* \"contracts/games/InstantBingo.sol\":13690:13718  return address(this).balance */\n      swap1\n      pop\n        /* \"contracts/games/InstantBingo.sol\":13618:13725  function getContractBalance() external view returns (uint256) {... */\n      swap1\n      jump\t// out\n        /* \"contracts/games/InstantBingo.sol\":146:195  uint256 public constant MIN_NUMBERS_PER_CARD = 24 */\n    tag_75:\n        /* \"contracts/games/InstantBingo.sol\":193:195  24 */\n      0x18\n        /* \"contracts/games/InstantBingo.sol\":146:195  uint256 public constant MIN_NUMBERS_PER_CARD = 24 */\n      dup2\n      jump\t// out\n        /* \"contracts/games/InstantBingo.sol\":4550:4571  string public sponsor */\n    tag_79:\n      0x09\n      dup1\n      sload\n      tag_269\n      swap1\n      tag_270\n      jump\t// in\n    tag_269:\n      dup1\n      0x1f\n      add\n      0x20\n      dup1\n      swap2\n      div\n      mul\n      0x20\n      add\n      mload(0x40)\n      swap1\n      dup2\n      add\n      0x40\n      mstore\n      dup1\n      swap3\n      swap2\n      swap1\n      dup2\n      dup2\n      mstore\n      0x20\n      add\n      dup3\n      dup1\n      sload\n      tag_271\n      swap1\n      tag_270\n      jump\t// in\n    tag_271:\n      dup1\n      iszero\n      tag_272\n      jumpi\n      dup1\n      0x1f\n      lt\n      tag_273\n      jumpi\n      0x0100\n      dup1\n      dup4\n      sload\n      div\n      mul\n      dup4\n      mstore\n      swap2\n      0x20\n      add\n      swap2\n      jump(tag_272)\n    tag_273:\n      dup3\n      add\n      swap2\n      swap1\n      0x00\n      mstore\n      keccak256(0x00, 0x20)\n      swap1\n    tag_274:\n      dup2\n      sload\n      dup2\n      mstore\n      swap1\n      0x01\n      add\n      swap1\n      0x20\n      add\n      dup1\n      dup4\n      gt\n      tag_274\n      jumpi\n      dup3\n      swap1\n      sub\n      0x1f\n      and\n      dup3\n      add\n      swap2\n    tag_272:\n      pop\n      pop\n      pop\n      pop\n      pop\n      dup2\n      jump\t// out\n        /* \"contracts/games/InstantBingo.sol\":13424:13519  function getPlayers() external view returns (address[] memory) {... */\n    tag_84:\n        /* \"contracts/games/InstantBingo.sol\":13469:13485  address[] memory */\n      0x60\n        /* \"contracts/games/InstantBingo.sol\":13504:13512  _players */\n      0x05\n        /* \"contracts/games/InstantBingo.sol\":13497:13512  return _players */\n      dup1\n      sload\n      dup1\n      0x20\n      mul\n      0x20\n      add\n      mload(0x40)\n      swap1\n      dup2\n      add\n      0x40\n      mstore\n      dup1\n      swap3\n      swap2\n      swap1\n      dup2\n      dup2\n      mstore\n      0x20\n      add\n      dup3\n      dup1\n      sload\n      dup1\n      iszero\n      tag_276\n      jumpi\n      0x20\n      mul\n      dup3\n      add\n      swap2\n      swap1\n      0x00\n      mstore\n      keccak256(0x00, 0x20)\n      swap1\n    tag_277:\n      dup2\n      0x00\n      swap1\n      sload\n      swap1\n      0x0100\n      exp\n      swap1\n      div\n      0xffffffffffffffffffffffffffffffffffffffff\n      and\n      0xffffffffffffffffffffffffffffffffffffffff\n      and\n      dup2\n      mstore\n      0x20\n      add\n      swap1\n      0x01\n      add\n      swap1\n      dup1\n      dup4\n      gt\n      tag_277\n      jumpi\n    tag_276:\n      pop\n      pop\n      pop\n      pop\n      pop\n      swap1\n      pop\n        /* \"contracts/games/InstantBingo.sol\":13424:13519  function getPlayers() external view returns (address[] memory) {... */\n      swap1\n      jump\t// out\n        /* \"contracts/games/InstantBingo.sol\":349:369  address public owner */\n    tag_89:\n      0x00\n      dup1\n      sload\n      swap1\n      0x0100\n      exp\n      swap1\n      div\n      0xffffffffffffffffffffffffffffffffffffffff\n      and\n      dup2\n      jump\t// out\n        /* \"contracts/games/InstantBingo.sol\":9732:9868  function getGameCardNumbers(uint256 game,uint256 card) external view returns (Card memory) {... */\n    tag_95:\n        /* \"contracts/games/InstantBingo.sol\":9810:9821  Card memory */\n      tag_278\n      tag_279\n      jump\t// in\n    tag_278:\n        /* \"contracts/games/InstantBingo.sol\":9840:9849  gameCards */\n      0x08\n        /* \"contracts/games/InstantBingo.sol\":9840:9855  gameCards[game] */\n      0x00\n        /* \"contracts/games/InstantBingo.sol\":9850:9854  game */\n      dup5\n        /* \"contracts/games/InstantBingo.sol\":9840:9855  gameCards[game] */\n      dup2\n      mstore\n      0x20\n      add\n      swap1\n      dup2\n      mstore\n      0x20\n      add\n      0x00\n      keccak256\n        /* \"contracts/games/InstantBingo.sol\":9856:9860  card */\n      dup3\n        /* \"contracts/games/InstantBingo.sol\":9840:9861  gameCards[game][card] */\n      dup2\n      sload\n      dup2\n      lt\n      tag_281\n      jumpi\n      tag_282\n      tag_156\n      jump\t// in\n    tag_282:\n    tag_281:\n      swap1\n      0x00\n      mstore\n      keccak256(0x00, 0x20)\n      swap1\n      0x05\n      mul\n      add\n        /* \"contracts/games/InstantBingo.sol\":9833:9861  return gameCards[game][card] */\n      mload(0x40)\n      dup1\n      0xa0\n      add\n      0x40\n      mstore\n      swap1\n      dup2\n      0x00\n      dup3\n      add\n      sload\n      dup2\n      mstore\n      0x20\n      add\n      0x01\n      dup3\n      add\n      sload\n      dup2\n      mstore\n      0x20\n      add\n      0x02\n      dup3\n      add\n      sload\n      dup2\n      mstore\n      0x20\n      add\n      0x03\n      dup3\n      add\n      dup1\n      sload\n      tag_284\n      swap1\n      tag_270\n      jump\t// in\n    tag_284:\n      dup1\n      0x1f\n      add\n      0x20\n      dup1\n      swap2\n      div\n      mul\n      0x20\n      add\n      mload(0x40)\n      swap1\n      dup2\n      add\n      0x40\n      mstore\n      dup1\n      swap3\n      swap2\n      swap1\n      dup2\n      dup2\n      mstore\n      0x20\n      add\n      dup3\n      dup1\n      sload\n      tag_285\n      swap1\n      tag_270\n      jump\t// in\n    tag_285:\n      dup1\n      iszero\n      tag_286\n      jumpi\n      dup1\n      0x1f\n      lt\n      tag_287\n      jumpi\n      0x0100\n      dup1\n      dup4\n      sload\n      div\n      mul\n      dup4\n      mstore\n      swap2\n      0x20\n      add\n      swap2\n      jump(tag_286)\n    tag_287:\n      dup3\n      add\n      swap2\n      swap1\n      0x00\n      mstore\n      keccak256(0x00, 0x20)\n      swap1\n    tag_288:\n      dup2\n      sload\n      dup2\n      mstore\n      swap1\n      0x01\n      add\n      swap1\n      0x20\n      add\n      dup1\n      dup4\n      gt\n      tag_288\n      jumpi\n      dup3\n      swap1\n      sub\n      0x1f\n      and\n      dup3\n      add\n      swap2\n    tag_286:\n      pop\n      pop\n      pop\n      pop\n      pop\n      dup2\n      mstore\n      0x20\n      add\n      0x04\n      dup3\n      add\n      dup1\n      sload\n      tag_289\n      swap1\n      tag_270\n      jump\t// in\n    tag_289:\n      dup1\n      0x1f\n      add\n      0x20\n      dup1\n      swap2\n      div\n      mul\n      0x20\n      add\n      mload(0x40)\n      swap1\n      dup2\n      add\n      0x40\n      mstore\n      dup1\n      swap3\n      swap2\n      swap1\n      dup2\n      dup2\n      mstore\n      0x20\n      add\n      dup3\n      dup1\n      sload\n      tag_290\n      swap1\n      tag_270\n      jump\t// in\n    tag_290:\n      dup1\n      iszero\n      tag_291\n      jumpi\n      dup1\n      0x1f\n      lt\n      tag_292\n      jumpi\n      0x0100\n      dup1\n      dup4\n      sload\n      div\n      mul\n      dup4\n      mstore\n      swap2\n      0x20\n      add\n      swap2\n      jump(tag_291)\n    tag_292:\n      dup3\n      add\n      swap2\n      swap1\n      0x00\n      mstore\n      keccak256(0x00, 0x20)\n      swap1\n    tag_293:\n      dup2\n      sload\n      dup2\n      mstore\n      swap1\n      0x01\n      add\n      swap1\n      0x20\n      add\n      dup1\n      dup4\n      gt\n      tag_293\n      jumpi\n      dup3\n      swap1\n      sub\n      0x1f\n      and\n      dup3\n      add\n      swap2\n    tag_291:\n      pop\n      pop\n      pop\n      pop\n      pop\n      dup2\n      mstore\n      pop\n      pop\n      swap1\n      pop\n        /* \"contracts/games/InstantBingo.sol\":9732:9868  function getGameCardNumbers(uint256 game,uint256 card) external view returns (Card memory) {... */\n      swap3\n      swap2\n      pop\n      pop\n      jump\t// out\n        /* \"contracts/games/InstantBingo.sol\":5239:5737  function newGame(uint256 startTime,uint256 endTime,uint256 serialNo,uint256 ticketCount) external onlyOwner returns (uint256) {... */\n    tag_102:\n        /* \"contracts/games/InstantBingo.sol\":5356:5363  uint256 */\n      0x00\n        /* \"contracts/games/InstantBingo.sol\":5028:5033  owner */\n      dup1\n      0x00\n      swap1\n      sload\n      swap1\n      0x0100\n      exp\n      swap1\n      div\n      0xffffffffffffffffffffffffffffffffffffffff\n      and\n        /* \"contracts/games/InstantBingo.sol\":5014:5033  msg.sender == owner */\n      0xffffffffffffffffffffffffffffffffffffffff\n      and\n        /* \"contracts/games/InstantBingo.sol\":5014:5024  msg.sender */\n      caller\n        /* \"contracts/games/InstantBingo.sol\":5014:5033  msg.sender == owner */\n      0xffffffffffffffffffffffffffffffffffffffff\n      and\n      eq\n        /* \"contracts/games/InstantBingo.sol\":5006:5075  require(msg.sender == owner, \"Only the owner can call this function\") */\n      tag_295\n      jumpi\n      mload(0x40)\n      0x08c379a000000000000000000000000000000000000000000000000000000000\n      dup2\n      mstore\n      0x04\n      add\n      tag_296\n      swap1\n      tag_152\n      jump\t// in\n    tag_296:\n      mload(0x40)\n      dup1\n      swap2\n      sub\n      swap1\n      revert\n    tag_295:\n        /* \"contracts/games/InstantBingo.sol\":5375:5380  games */\n      0x07\n        /* \"contracts/games/InstantBingo.sol\":5399:5656  Game(startTime,... */\n      mload(0x40)\n      dup1\n      0x0120\n      add\n      0x40\n      mstore\n      dup1\n        /* \"contracts/games/InstantBingo.sol\":5404:5413  startTime */\n      dup8\n        /* \"contracts/games/InstantBingo.sol\":5399:5656  Game(startTime,... */\n      dup2\n      mstore\n      0x20\n      add\n        /* \"contracts/games/InstantBingo.sol\":5431:5438  endTime */\n      dup7\n        /* \"contracts/games/InstantBingo.sol\":5399:5656  Game(startTime,... */\n      dup2\n      mstore\n      0x20\n      add\n        /* \"contracts/games/InstantBingo.sol\":5456:5464  serialNo */\n      dup6\n        /* \"contracts/games/InstantBingo.sol\":5399:5656  Game(startTime,... */\n      dup2\n      mstore\n      0x20\n      add\n        /* \"contracts/games/InstantBingo.sol\":5482:5496  GameState.Open */\n      0x00\n        /* \"contracts/games/InstantBingo.sol\":5399:5656  Game(startTime,... */\n      0x03\n      dup2\n      gt\n      iszero\n      tag_298\n      jumpi\n      tag_299\n      tag_176\n      jump\t// in\n    tag_299:\n    tag_298:\n      dup2\n      mstore\n      0x20\n      add\n        /* \"contracts/games/InstantBingo.sol\":5514:5525  ticketCount */\n      dup5\n        /* \"contracts/games/InstantBingo.sol\":5399:5656  Game(startTime,... */\n      dup2\n      mstore\n      0x20\n      add\n        /* \"contracts/games/InstantBingo.sol\":5543:5554  ticketCount */\n      dup5\n        /* \"contracts/games/InstantBingo.sol\":5399:5656  Game(startTime,... */\n      dup2\n      mstore\n      0x20\n      add\n        /* \"contracts/games/InstantBingo.sol\":5573:5584  ticketCount */\n      dup5\n        /* \"contracts/games/InstantBingo.sol\":5399:5656  Game(startTime,... */\n      dup2\n      mstore\n      0x20\n      add\n        /* \"contracts/games/InstantBingo.sol\":292:294  75 */\n      0x4b\n        /* \"contracts/games/InstantBingo.sol\":5399:5656  Game(startTime,... */\n      dup2\n      mstore\n      0x20\n      add\n        /* \"contracts/games/InstantBingo.sol\":193:195  24 */\n      0x18\n        /* \"contracts/games/InstantBingo.sol\":5399:5656  Game(startTime,... */\n      dup2\n      mstore\n      pop\n        /* \"contracts/games/InstantBingo.sol\":5375:5657  games.push(... */\n      swap1\n      dup1\n      0x01\n      dup2\n      sload\n      add\n      dup1\n      dup3\n      sstore\n      dup1\n      swap2\n      pop\n      pop\n      0x01\n      swap1\n      sub\n      swap1\n      0x00\n      mstore\n      keccak256(0x00, 0x20)\n      swap1\n      0x09\n      mul\n      add\n      0x00\n      swap1\n      swap2\n      swap1\n      swap2\n      swap1\n      swap2\n      pop\n      0x00\n      dup3\n      add\n      mload\n      dup2\n      0x00\n      add\n      sstore\n      0x20\n      dup3\n      add\n      mload\n      dup2\n      0x01\n      add\n      sstore\n      0x40\n      dup3\n      add\n      mload\n      dup2\n      0x02\n      add\n      sstore\n      0x60\n      dup3\n      add\n      mload\n      dup2\n      0x03\n      add\n      exp(0x0100, 0x00)\n      dup2\n      sload\n      dup2\n      0xff\n      mul\n      not\n      and\n      swap1\n      dup4\n      0x03\n      dup2\n      gt\n      iszero\n      tag_301\n      jumpi\n      tag_302\n      tag_176\n      jump\t// in\n    tag_302:\n    tag_301:\n      mul\n      or\n      swap1\n      sstore\n      pop\n      0x80\n      dup3\n      add\n      mload\n      dup2\n      0x04\n      add\n      sstore\n      0xa0\n      dup3\n      add\n      mload\n      dup2\n      0x05\n      add\n      sstore\n      0xc0\n      dup3\n      add\n      mload\n      dup2\n      0x06\n      add\n      sstore\n      0xe0\n      dup3\n      add\n      mload\n      dup2\n      0x07\n      add\n      sstore\n      0x0100\n      dup3\n      add\n      mload\n      dup2\n      0x08\n      add\n      sstore\n      pop\n      pop\n        /* \"contracts/games/InstantBingo.sol\":5672:5701  GameCreated(games.length - 1) */\n      0xbd19c47e9925eb6f7be8bb1c13a841e0240aaeaf17f217e90022e9c8eb66877f\n        /* \"contracts/games/InstantBingo.sol\":5699:5700  1 */\n      0x01\n        /* \"contracts/games/InstantBingo.sol\":5684:5689  games */\n      0x07\n        /* \"contracts/games/InstantBingo.sol\":5684:5696  games.length */\n      dup1\n      sload\n      swap1\n      pop\n        /* \"contracts/games/InstantBingo.sol\":5684:5700  games.length - 1 */\n      tag_303\n      swap2\n      swap1\n      tag_163\n      jump\t// in\n    tag_303:\n        /* \"contracts/games/InstantBingo.sol\":5672:5701  GameCreated(games.length - 1) */\n      mload(0x40)\n      tag_304\n      swap2\n      swap1\n      tag_35\n      jump\t// in\n    tag_304:\n      mload(0x40)\n      dup1\n      swap2\n      sub\n      swap1\n      log1\n        /* \"contracts/games/InstantBingo.sol\":5718:5723  games */\n      0x07\n        /* \"contracts/games/InstantBingo.sol\":5718:5730  games.length */\n      dup1\n      sload\n      swap1\n      pop\n        /* \"contracts/games/InstantBingo.sol\":5711:5730  return games.length */\n      swap1\n      pop\n        /* \"contracts/games/InstantBingo.sol\":5239:5737  function newGame(uint256 startTime,uint256 endTime,uint256 serialNo,uint256 ticketCount) external onlyOwner returns (uint256) {... */\n      swap5\n      swap4\n      pop\n      pop\n      pop\n      pop\n      jump\t// out\n        /* \"contracts/games/InstantBingo.sol\":10240:10566  function addPlayer(address wallet) external onlyOwner {... */\n    tag_108:\n        /* \"contracts/games/InstantBingo.sol\":5028:5033  owner */\n      0x00\n      dup1\n      sload\n      swap1\n      0x0100\n      exp\n      swap1\n      div\n      0xffffffffffffffffffffffffffffffffffffffff\n      and\n        /* \"contracts/games/InstantBingo.sol\":5014:5033  msg.sender == owner */\n      0xffffffffffffffffffffffffffffffffffffffff\n      and\n        /* \"contracts/games/InstantBingo.sol\":5014:5024  msg.sender */\n      caller\n        /* \"contracts/games/InstantBingo.sol\":5014:5033  msg.sender == owner */\n      0xffffffffffffffffffffffffffffffffffffffff\n      and\n      eq\n        /* \"contracts/games/InstantBingo.sol\":5006:5075  require(msg.sender == owner, \"Only the owner can call this function\") */\n      tag_306\n      jumpi\n      mload(0x40)\n      0x08c379a000000000000000000000000000000000000000000000000000000000\n      dup2\n      mstore\n      0x04\n      add\n      tag_307\n      swap1\n      tag_152\n      jump\t// in\n    tag_307:\n      mload(0x40)\n      dup1\n      swap2\n      sub\n      swap1\n      revert\n    tag_306:\n        /* \"contracts/games/InstantBingo.sol\":10304:10314  bool found */\n      0x00\n        /* \"contracts/games/InstantBingo.sol\":10337:10346  uint256 i */\n      dup1\n        /* \"contracts/games/InstantBingo.sol\":10332:10470  for (uint256 i=0; i<_players.length; i++) {... */\n    tag_309:\n        /* \"contracts/games/InstantBingo.sol\":10352:10360  _players */\n      0x05\n        /* \"contracts/games/InstantBingo.sol\":10352:10367  _players.length */\n      dup1\n      sload\n      swap1\n      pop\n        /* \"contracts/games/InstantBingo.sol\":10350:10351  i */\n      dup2\n        /* \"contracts/games/InstantBingo.sol\":10350:10367  i<_players.length */\n      lt\n        /* \"contracts/games/InstantBingo.sol\":10332:10470  for (uint256 i=0; i<_players.length; i++) {... */\n      iszero\n      tag_310\n      jumpi\n        /* \"contracts/games/InstantBingo.sol\":10407:10413  wallet */\n      dup3\n        /* \"contracts/games/InstantBingo.sol\":10392:10413  _players[i] == wallet */\n      0xffffffffffffffffffffffffffffffffffffffff\n      and\n        /* \"contracts/games/InstantBingo.sol\":10392:10400  _players */\n      0x05\n        /* \"contracts/games/InstantBingo.sol\":10401:10402  i */\n      dup3\n        /* \"contracts/games/InstantBingo.sol\":10392:10403  _players[i] */\n      dup2\n      sload\n      dup2\n      lt\n      tag_312\n      jumpi\n      tag_313\n      tag_156\n      jump\t// in\n    tag_313:\n    tag_312:\n      swap1\n      0x00\n      mstore\n      keccak256(0x00, 0x20)\n      add\n      0x00\n      swap1\n      sload\n      swap1\n      0x0100\n      exp\n      swap1\n      div\n      0xffffffffffffffffffffffffffffffffffffffff\n      and\n        /* \"contracts/games/InstantBingo.sol\":10392:10413  _players[i] == wallet */\n      0xffffffffffffffffffffffffffffffffffffffff\n      and\n      sub\n        /* \"contracts/games/InstantBingo.sol\":10388:10460  if (_players[i] == wallet) {... */\n      tag_315\n      jumpi\n        /* \"contracts/games/InstantBingo.sol\":10441:10445  true */\n      0x01\n        /* \"contracts/games/InstantBingo.sol\":10433:10445  found = true */\n      swap2\n      pop\n        /* \"contracts/games/InstantBingo.sol\":10388:10460  if (_players[i] == wallet) {... */\n    tag_315:\n        /* \"contracts/games/InstantBingo.sol\":10369:10372  i++ */\n      dup1\n      dup1\n      0x01\n      add\n      swap2\n      pop\n      pop\n        /* \"contracts/games/InstantBingo.sol\":10332:10470  for (uint256 i=0; i<_players.length; i++) {... */\n      jump(tag_309)\n    tag_310:\n      pop\n        /* \"contracts/games/InstantBingo.sol\":10496:10501  false */\n      0x00\n        /* \"contracts/games/InstantBingo.sol\":10487:10501  found == false */\n      iszero\n      iszero\n        /* \"contracts/games/InstantBingo.sol\":10487:10492  found */\n      dup2\n        /* \"contracts/games/InstantBingo.sol\":10487:10501  found == false */\n      iszero\n      iszero\n      eq\n        /* \"contracts/games/InstantBingo.sol\":10479:10528  require(found == false,\"player is already added\") */\n      tag_316\n      jumpi\n      mload(0x40)\n      0x08c379a000000000000000000000000000000000000000000000000000000000\n      dup2\n      mstore\n      0x04\n      add\n      tag_317\n      swap1\n      tag_318\n      jump\t// in\n    tag_317:\n      mload(0x40)\n      dup1\n      swap2\n      sub\n      swap1\n      revert\n    tag_316:\n        /* \"contracts/games/InstantBingo.sol\":10538:10546  _players */\n      0x05\n        /* \"contracts/games/InstantBingo.sol\":10552:10558  wallet */\n      dup3\n        /* \"contracts/games/InstantBingo.sol\":10538:10559  _players.push(wallet) */\n      swap1\n      dup1\n      0x01\n      dup2\n      sload\n      add\n      dup1\n      dup3\n      sstore\n      dup1\n      swap2\n      pop\n      pop\n      0x01\n      swap1\n      sub\n      swap1\n      0x00\n      mstore\n      keccak256(0x00, 0x20)\n      add\n      0x00\n      swap1\n      swap2\n      swap1\n      swap2\n      swap1\n      swap2\n      0x0100\n      exp\n      dup2\n      sload\n      dup2\n      0xffffffffffffffffffffffffffffffffffffffff\n      mul\n      not\n      and\n      swap1\n      dup4\n      0xffffffffffffffffffffffffffffffffffffffff\n      and\n      mul\n      or\n      swap1\n      sstore\n      pop\n        /* \"contracts/games/InstantBingo.sol\":10294:10566  {... */\n      pop\n        /* \"contracts/games/InstantBingo.sol\":10240:10566  function addPlayer(address wallet) external onlyOwner {... */\n      pop\n      jump\t// out\n        /* \"contracts/games/InstantBingo.sol\":12744:13178  function withdrawRemainingFunds(uint256 game) external onlyOwner {... */\n    tag_112:\n        /* \"contracts/games/InstantBingo.sol\":5028:5033  owner */\n      0x00\n      dup1\n      sload\n      swap1\n      0x0100\n      exp\n      swap1\n      div\n      0xffffffffffffffffffffffffffffffffffffffff\n      and\n        /* \"contracts/games/InstantBingo.sol\":5014:5033  msg.sender == owner */\n      0xffffffffffffffffffffffffffffffffffffffff\n      and\n        /* \"contracts/games/InstantBingo.sol\":5014:5024  msg.sender */\n      caller\n        /* \"contracts/games/InstantBingo.sol\":5014:5033  msg.sender == owner */\n      0xffffffffffffffffffffffffffffffffffffffff\n      and\n      eq\n        /* \"contracts/games/InstantBingo.sol\":5006:5075  require(msg.sender == owner, \"Only the owner can call this function\") */\n      tag_321\n      jumpi\n      mload(0x40)\n      0x08c379a000000000000000000000000000000000000000000000000000000000\n      dup2\n      mstore\n      0x04\n      add\n      tag_322\n      swap1\n      tag_152\n      jump\t// in\n    tag_322:\n      mload(0x40)\n      dup1\n      swap2\n      sub\n      swap1\n      revert\n    tag_321:\n        /* \"contracts/games/InstantBingo.sol\":12848:12866  GameState.Archived */\n      0x03\n        /* \"contracts/games/InstantBingo.sol\":12827:12866  games[game].state == GameState.Archived */\n      dup1\n      dup2\n      gt\n      iszero\n      tag_324\n      jumpi\n      tag_325\n      tag_176\n      jump\t// in\n    tag_325:\n    tag_324:\n        /* \"contracts/games/InstantBingo.sol\":12827:12832  games */\n      0x07\n        /* \"contracts/games/InstantBingo.sol\":12833:12837  game */\n      dup3\n        /* \"contracts/games/InstantBingo.sol\":12827:12838  games[game] */\n      dup2\n      sload\n      dup2\n      lt\n      tag_326\n      jumpi\n      tag_327\n      tag_156\n      jump\t// in\n    tag_327:\n    tag_326:\n      swap1\n      0x00\n      mstore\n      keccak256(0x00, 0x20)\n      swap1\n      0x09\n      mul\n      add\n        /* \"contracts/games/InstantBingo.sol\":12827:12844  games[game].state */\n      0x03\n      add\n      0x00\n      swap1\n      sload\n      swap1\n      0x0100\n      exp\n      swap1\n      div\n      0xff\n      and\n        /* \"contracts/games/InstantBingo.sol\":12827:12866  games[game].state == GameState.Archived */\n      0x03\n      dup2\n      gt\n      iszero\n      tag_329\n      jumpi\n      tag_330\n      tag_176\n      jump\t// in\n    tag_330:\n    tag_329:\n      eq\n        /* \"contracts/games/InstantBingo.sol\":12819:12900  require(games[game].state == GameState.Archived, \"The game has not finished yet\") */\n      tag_331\n      jumpi\n      mload(0x40)\n      0x08c379a000000000000000000000000000000000000000000000000000000000\n      dup2\n      mstore\n      0x04\n      add\n      tag_332\n      swap1\n      tag_333\n      jump\t// in\n    tag_332:\n      mload(0x40)\n      dup1\n      swap2\n      sub\n      swap1\n      revert\n    tag_331:\n        /* \"contracts/games/InstantBingo.sol\":12963:12969  7 days */\n      0x093a80\n        /* \"contracts/games/InstantBingo.sol\":12937:12942  games */\n      0x07\n        /* \"contracts/games/InstantBingo.sol\":12943:12947  game */\n      dup3\n        /* \"contracts/games/InstantBingo.sol\":12937:12948  games[game] */\n      dup2\n      sload\n      dup2\n      lt\n      tag_334\n      jumpi\n      tag_335\n      tag_156\n      jump\t// in\n    tag_335:\n    tag_334:\n      swap1\n      0x00\n      mstore\n      keccak256(0x00, 0x20)\n      swap1\n      0x09\n      mul\n      add\n        /* \"contracts/games/InstantBingo.sol\":12937:12960  games[game].gameEndTime */\n      0x02\n      add\n      sload\n        /* \"contracts/games/InstantBingo.sol\":12937:12969  games[game].gameEndTime + 7 days */\n      tag_337\n      swap2\n      swap1\n      tag_172\n      jump\t// in\n    tag_337:\n        /* \"contracts/games/InstantBingo.sol\":12918:12933  block.timestamp */\n      timestamp\n        /* \"contracts/games/InstantBingo.sol\":12918:12969  block.timestamp >= games[game].gameEndTime + 7 days */\n      lt\n      iszero\n        /* \"contracts/games/InstantBingo.sol\":12910:13008  require(block.timestamp >= games[game].gameEndTime + 7 days, \"Withdrawal time has not passed yet\") */\n      tag_338\n      jumpi\n      mload(0x40)\n      0x08c379a000000000000000000000000000000000000000000000000000000000\n      dup2\n      mstore\n      0x04\n      add\n      tag_339\n      swap1\n      tag_340\n      jump\t// in\n    tag_339:\n      mload(0x40)\n      dup1\n      swap2\n      sub\n      swap1\n      revert\n    tag_338:\n        /* \"contracts/games/InstantBingo.sol\":13018:13041  uint256 contractBalance */\n      0x00\n        /* \"contracts/games/InstantBingo.sol\":13044:13065  address(this).balance */\n      selfbalance\n        /* \"contracts/games/InstantBingo.sol\":13018:13065  uint256 contractBalance = address(this).balance */\n      swap1\n      pop\n        /* \"contracts/games/InstantBingo.sol\":13083:13088  owner */\n      0x00\n      dup1\n      sload\n      swap1\n      0x0100\n      exp\n      swap1\n      div\n      0xffffffffffffffffffffffffffffffffffffffff\n      and\n        /* \"contracts/games/InstantBingo.sol\":13075:13098  payable(owner).transfer */\n      0xffffffffffffffffffffffffffffffffffffffff\n      and\n        /* \"contracts/games/InstantBingo.sol\":13075:13115  payable(owner).transfer(contractBalance) */\n      0x08fc\n        /* \"contracts/games/InstantBingo.sol\":13099:13114  contractBalance */\n      dup3\n        /* \"contracts/games/InstantBingo.sol\":13075:13115  payable(owner).transfer(contractBalance) */\n      swap1\n      dup2\n      iszero\n      mul\n      swap1\n      mload(0x40)\n      0x00\n      mload(0x40)\n      dup1\n      dup4\n      sub\n      dup2\n      dup6\n      dup9\n      dup9\n      call\n      swap4\n      pop\n      pop\n      pop\n      pop\n      iszero\n      dup1\n      iszero\n      tag_342\n      jumpi\n      returndatasize\n      0x00\n      dup1\n      returndatacopy\n      revert(0x00, returndatasize)\n    tag_342:\n      pop\n        /* \"contracts/games/InstantBingo.sol\":13130:13171  ContractBalanceWithdrawn(contractBalance) */\n      0x8030349df01c447169490954f7d7e84fced918106c79dc48fa0560bba769086f\n        /* \"contracts/games/InstantBingo.sol\":13155:13170  contractBalance */\n      dup2\n        /* \"contracts/games/InstantBingo.sol\":13130:13171  ContractBalanceWithdrawn(contractBalance) */\n      mload(0x40)\n      tag_343\n      swap2\n      swap1\n      tag_35\n      jump\t// in\n    tag_343:\n      mload(0x40)\n      dup1\n      swap2\n      sub\n      swap1\n      log1\n        /* \"contracts/games/InstantBingo.sol\":12809:13178  {... */\n      pop\n        /* \"contracts/games/InstantBingo.sol\":12744:13178  function withdrawRemainingFunds(uint256 game) external onlyOwner {... */\n      pop\n      jump\t// out\n        /* \"contracts/games/InstantBingo.sol\":13525:13612  function getGames() external view returns (Game[] memory) {... */\n    tag_115:\n        /* \"contracts/games/InstantBingo.sol\":13568:13581  Game[] memory */\n      0x60\n        /* \"contracts/games/InstantBingo.sol\":13600:13605  games */\n      0x07\n        /* \"contracts/games/InstantBingo.sol\":13593:13605  return games */\n      dup1\n      sload\n      dup1\n      0x20\n      mul\n      0x20\n      add\n      mload(0x40)\n      swap1\n      dup2\n      add\n      0x40\n      mstore\n      dup1\n      swap3\n      swap2\n      swap1\n      dup2\n      dup2\n      mstore\n      0x20\n      add\n      0x00\n      swap1\n    tag_345:\n      dup3\n      dup3\n      lt\n      iszero\n      tag_346\n      jumpi\n      dup4\n      dup3\n      swap1\n      0x00\n      mstore\n      keccak256(0x00, 0x20)\n      swap1\n      0x09\n      mul\n      add\n      mload(0x40)\n      dup1\n      0x0120\n      add\n      0x40\n      mstore\n      swap1\n      dup2\n      0x00\n      dup3\n      add\n      sload\n      dup2\n      mstore\n      0x20\n      add\n      0x01\n      dup3\n      add\n      sload\n      dup2\n      mstore\n      0x20\n      add\n      0x02\n      dup3\n      add\n      sload\n      dup2\n      mstore\n      0x20\n      add\n      0x03\n      dup3\n      add\n      0x00\n      swap1\n      sload\n      swap1\n      0x0100\n      exp\n      swap1\n      div\n      0xff\n      and\n      0x03\n      dup2\n      gt\n      iszero\n      tag_348\n      jumpi\n      tag_349\n      tag_176\n      jump\t// in\n    tag_349:\n    tag_348:\n      0x03\n      dup2\n      gt\n      iszero\n      tag_350\n      jumpi\n      tag_351\n      tag_176\n      jump\t// in\n    tag_351:\n    tag_350:\n      dup2\n      mstore\n      0x20\n      add\n      0x04\n      dup3\n      add\n      sload\n      dup2\n      mstore\n      0x20\n      add\n      0x05\n      dup3\n      add\n      sload\n      dup2\n      mstore\n      0x20\n      add\n      0x06\n      dup3\n      add\n      sload\n      dup2\n      mstore\n      0x20\n      add\n      0x07\n      dup3\n      add\n      sload\n      dup2\n      mstore\n      0x20\n      add\n      0x08\n      dup3\n      add\n      sload\n      dup2\n      mstore\n      pop\n      pop\n      dup2\n      mstore\n      0x20\n      add\n      swap1\n      0x01\n      add\n      swap1\n      jump(tag_345)\n    tag_346:\n      pop\n      pop\n      pop\n      pop\n      swap1\n      pop\n        /* \"contracts/games/InstantBingo.sol\":13525:13612  function getGames() external view returns (Game[] memory) {... */\n      swap1\n      jump\t// out\n        /* \"contracts/games/InstantBingo.sol\":12228:12738  function claimPrize(uint256 game) external {... */\n    tag_121:\n        /* \"contracts/games/InstantBingo.sol\":12310:12328  GameState.Finished */\n      0x02\n        /* \"contracts/games/InstantBingo.sol\":12289:12328  games[game].state == GameState.Finished */\n      0x03\n      dup2\n      gt\n      iszero\n      tag_353\n      jumpi\n      tag_354\n      tag_176\n      jump\t// in\n    tag_354:\n    tag_353:\n        /* \"contracts/games/InstantBingo.sol\":12289:12294  games */\n      0x07\n        /* \"contracts/games/InstantBingo.sol\":12295:12299  game */\n      dup3\n        /* \"contracts/games/InstantBingo.sol\":12289:12300  games[game] */\n      dup2\n      sload\n      dup2\n      lt\n      tag_355\n      jumpi\n      tag_356\n      tag_156\n      jump\t// in\n    tag_356:\n    tag_355:\n      swap1\n      0x00\n      mstore\n      keccak256(0x00, 0x20)\n      swap1\n      0x09\n      mul\n      add\n        /* \"contracts/games/InstantBingo.sol\":12289:12306  games[game].state */\n      0x03\n      add\n      0x00\n      swap1\n      sload\n      swap1\n      0x0100\n      exp\n      swap1\n      div\n      0xff\n      and\n        /* \"contracts/games/InstantBingo.sol\":12289:12328  games[game].state == GameState.Finished */\n      0x03\n      dup2\n      gt\n      iszero\n      tag_358\n      jumpi\n      tag_359\n      tag_176\n      jump\t// in\n    tag_359:\n    tag_358:\n      eq\n        /* \"contracts/games/InstantBingo.sol\":12281:12362  require(games[game].state == GameState.Finished, \"The game has not finished yet\") */\n      tag_360\n      jumpi\n      mload(0x40)\n      0x08c379a000000000000000000000000000000000000000000000000000000000\n      dup2\n      mstore\n      0x04\n      add\n      tag_361\n      swap1\n      tag_333\n      jump\t// in\n    tag_361:\n      mload(0x40)\n      dup1\n      swap2\n      sub\n      swap1\n      revert\n    tag_360:\n        /* \"contracts/games/InstantBingo.sol\":12394:12402  _players */\n      0x05\n        /* \"contracts/games/InstantBingo.sol\":12403:12416  winningNumber */\n      sload(0x04)\n        /* \"contracts/games/InstantBingo.sol\":12394:12417  _players[winningNumber] */\n      dup2\n      sload\n      dup2\n      lt\n      tag_362\n      jumpi\n      tag_363\n      tag_156\n      jump\t// in\n    tag_363:\n    tag_362:\n      swap1\n      0x00\n      mstore\n      keccak256(0x00, 0x20)\n      add\n      0x00\n      swap1\n      sload\n      swap1\n      0x0100\n      exp\n      swap1\n      div\n      0xffffffffffffffffffffffffffffffffffffffff\n      and\n        /* \"contracts/games/InstantBingo.sol\":12380:12417  msg.sender == _players[winningNumber] */\n      0xffffffffffffffffffffffffffffffffffffffff\n      and\n        /* \"contracts/games/InstantBingo.sol\":12380:12390  msg.sender */\n      caller\n        /* \"contracts/games/InstantBingo.sol\":12380:12417  msg.sender == _players[winningNumber] */\n      0xffffffffffffffffffffffffffffffffffffffff\n      and\n      eq\n        /* \"contracts/games/InstantBingo.sol\":12372:12444  require(msg.sender == _players[winningNumber], \"You are not the winner\") */\n      tag_365\n      jumpi\n      mload(0x40)\n      0x08c379a000000000000000000000000000000000000000000000000000000000\n      dup2\n      mstore\n      0x04\n      add\n      tag_366\n      swap1\n      tag_367\n      jump\t// in\n    tag_366:\n      mload(0x40)\n      dup1\n      swap2\n      sub\n      swap1\n      revert\n    tag_365:\n        /* \"contracts/games/InstantBingo.sol\":12454:12473  uint256 prizeAmount */\n      0x00\n        /* \"contracts/games/InstantBingo.sol\":12488:12509  address(this).balance */\n      selfbalance\n        /* \"contracts/games/InstantBingo.sol\":12476:12485  maxPayout */\n      sload(0x01)\n        /* \"contracts/games/InstantBingo.sol\":12476:12509  maxPayout < address(this).balance */\n      lt\n        /* \"contracts/games/InstantBingo.sol\":12476:12545  maxPayout < address(this).balance ? maxPayout : address(this).balance */\n      tag_368\n      jumpi\n        /* \"contracts/games/InstantBingo.sol\":12524:12545  address(this).balance */\n      selfbalance\n        /* \"contracts/games/InstantBingo.sol\":12476:12545  maxPayout < address(this).balance ? maxPayout : address(this).balance */\n      jump(tag_369)\n    tag_368:\n        /* \"contracts/games/InstantBingo.sol\":12512:12521  maxPayout */\n      sload(0x01)\n        /* \"contracts/games/InstantBingo.sol\":12476:12545  maxPayout < address(this).balance ? maxPayout : address(this).balance */\n    tag_369:\n        /* \"contracts/games/InstantBingo.sol\":12454:12545  uint256 prizeAmount = maxPayout < address(this).balance ? maxPayout : address(this).balance */\n      swap1\n      pop\n        /* \"contracts/games/InstantBingo.sol\":12571:12572  0 */\n      0x00\n        /* \"contracts/games/InstantBingo.sol\":12555:12568  winningNumber */\n      0x04\n        /* \"contracts/games/InstantBingo.sol\":12555:12572  winningNumber = 0 */\n      dup2\n      swap1\n      sstore\n      pop\n        /* \"contracts/games/InstantBingo.sol\":12602:12620  GameState.Archived */\n      0x03\n        /* \"contracts/games/InstantBingo.sol\":12582:12587  games */\n      0x07\n        /* \"contracts/games/InstantBingo.sol\":12588:12592  game */\n      dup4\n        /* \"contracts/games/InstantBingo.sol\":12582:12593  games[game] */\n      dup2\n      sload\n      dup2\n      lt\n      tag_370\n      jumpi\n      tag_371\n      tag_156\n      jump\t// in\n    tag_371:\n    tag_370:\n      swap1\n      0x00\n      mstore\n      keccak256(0x00, 0x20)\n      swap1\n      0x09\n      mul\n      add\n        /* \"contracts/games/InstantBingo.sol\":12582:12599  games[game].state */\n      0x03\n      add\n      0x00\n        /* \"contracts/games/InstantBingo.sol\":12582:12620  games[game].state = GameState.Archived */\n      0x0100\n      exp\n      dup2\n      sload\n      dup2\n      0xff\n      mul\n      not\n      and\n      swap1\n      dup4\n      0x03\n      dup2\n      gt\n      iszero\n      tag_373\n      jumpi\n      tag_374\n      tag_176\n      jump\t// in\n    tag_374:\n    tag_373:\n      mul\n      or\n      swap1\n      sstore\n      pop\n        /* \"contracts/games/InstantBingo.sol\":12638:12648  msg.sender */\n      caller\n        /* \"contracts/games/InstantBingo.sol\":12630:12658  payable(msg.sender).transfer */\n      0xffffffffffffffffffffffffffffffffffffffff\n      and\n        /* \"contracts/games/InstantBingo.sol\":12630:12671  payable(msg.sender).transfer(prizeAmount) */\n      0x08fc\n        /* \"contracts/games/InstantBingo.sol\":12659:12670  prizeAmount */\n      dup3\n        /* \"contracts/games/InstantBingo.sol\":12630:12671  payable(msg.sender).transfer(prizeAmount) */\n      swap1\n      dup2\n      iszero\n      mul\n      swap1\n      mload(0x40)\n      0x00\n      mload(0x40)\n      dup1\n      dup4\n      sub\n      dup2\n      dup6\n      dup9\n      dup9\n      call\n      swap4\n      pop\n      pop\n      pop\n      pop\n      iszero\n      dup1\n      iszero\n      tag_376\n      jumpi\n      returndatasize\n      0x00\n      dup1\n      returndatacopy\n      revert(0x00, returndatasize)\n    tag_376:\n      pop\n        /* \"contracts/games/InstantBingo.sol\":12686:12731  GamePrizeClaimed(game,msg.sender,prizeAmount) */\n      0xcfa66a04fba946530a770b8c54edc8dc6c1ad73f6928ae77ea7517d027e76e62\n        /* \"contracts/games/InstantBingo.sol\":12703:12707  game */\n      dup3\n        /* \"contracts/games/InstantBingo.sol\":12708:12718  msg.sender */\n      caller\n        /* \"contracts/games/InstantBingo.sol\":12719:12730  prizeAmount */\n      dup4\n        /* \"contracts/games/InstantBingo.sol\":12686:12731  GamePrizeClaimed(game,msg.sender,prizeAmount) */\n      mload(0x40)\n      tag_377\n      swap4\n      swap3\n      swap2\n      swap1\n      tag_378\n      jump\t// in\n    tag_377:\n      mload(0x40)\n      dup1\n      swap2\n      sub\n      swap1\n      log1\n        /* \"contracts/games/InstantBingo.sol\":12271:12738  {... */\n      pop\n        /* \"contracts/games/InstantBingo.sol\":12228:12738  function claimPrize(uint256 game) external {... */\n      pop\n      jump\t// out\n        /* \"contracts/games/InstantBingo.sol\":375:405  uint256 public maxPayout = 250 */\n    tag_124:\n      sload(0x01)\n      dup2\n      jump\t// out\n        /* \"contracts/games/InstantBingo.sol\":100:140  uint256 public constant YEARS = 365 days */\n    tag_128:\n        /* \"contracts/games/InstantBingo.sol\":132:140  365 days */\n      0x01e13380\n        /* \"contracts/games/InstantBingo.sol\":100:140  uint256 public constant YEARS = 365 days */\n      dup2\n      jump\t// out\n        /* \"contracts/games/InstantBingo.sol\":13301:13418  function getGameEndTime(uint256 game) external view returns (uint256) {... */\n    tag_133:\n        /* \"contracts/games/InstantBingo.sol\":13362:13369  uint256 */\n      0x00\n        /* \"contracts/games/InstantBingo.sol\":13388:13393  games */\n      0x07\n        /* \"contracts/games/InstantBingo.sol\":13394:13398  game */\n      dup3\n        /* \"contracts/games/InstantBingo.sol\":13388:13399  games[game] */\n      dup2\n      sload\n      dup2\n      lt\n      tag_380\n      jumpi\n      tag_381\n      tag_156\n      jump\t// in\n    tag_381:\n    tag_380:\n      swap1\n      0x00\n      mstore\n      keccak256(0x00, 0x20)\n      swap1\n      0x09\n      mul\n      add\n        /* \"contracts/games/InstantBingo.sol\":13388:13411  games[game].gameEndTime */\n      0x02\n      add\n      sload\n        /* \"contracts/games/InstantBingo.sol\":13381:13411  return games[game].gameEndTime */\n      swap1\n      pop\n        /* \"contracts/games/InstantBingo.sol\":13301:13418  function getGameEndTime(uint256 game) external view returns (uint256) {... */\n      swap2\n      swap1\n      pop\n      jump\t// out\n        /* \"contracts/games/InstantBingo.sol\":448:475  uint256 public totalPlayers */\n    tag_137:\n      sload(0x03)\n      dup2\n      jump\t// out\n        /* \"contracts/games/InstantBingo.sol\":300:342  uint256 public constant MAX_TICKETS = 4000 */\n    tag_141:\n        /* \"contracts/games/InstantBingo.sol\":338:342  4000 */\n      0x0fa0\n        /* \"contracts/games/InstantBingo.sol\":300:342  uint256 public constant MAX_TICKETS = 4000 */\n      dup2\n      jump\t// out\n        /* \"contracts/games/InstantBingo.sol\":13184:13295  function getGameState(uint256 game) external view returns (GameState) {... */\n    tag_146:\n        /* \"contracts/games/InstantBingo.sol\":13243:13252  GameState */\n      0x00\n        /* \"contracts/games/InstantBingo.sol\":13271:13276  games */\n      0x07\n        /* \"contracts/games/InstantBingo.sol\":13277:13281  game */\n      dup3\n        /* \"contracts/games/InstantBingo.sol\":13271:13282  games[game] */\n      dup2\n      sload\n      dup2\n      lt\n      tag_384\n      jumpi\n      tag_385\n      tag_156\n      jump\t// in\n    tag_385:\n    tag_384:\n      swap1\n      0x00\n      mstore\n      keccak256(0x00, 0x20)\n      swap1\n      0x09\n      mul\n      add\n        /* \"contracts/games/InstantBingo.sol\":13271:13288  games[game].state */\n      0x03\n      add\n      0x00\n      swap1\n      sload\n      swap1\n      0x0100\n      exp\n      swap1\n      div\n      0xff\n      and\n        /* \"contracts/games/InstantBingo.sol\":13264:13288  return games[game].state */\n      swap1\n      pop\n        /* \"contracts/games/InstantBingo.sol\":13184:13295  function getGameState(uint256 game) external view returns (GameState) {... */\n      swap2\n      swap1\n      pop\n      jump\t// out\n    tag_279:\n      mload(0x40)\n      dup1\n      0xa0\n      add\n      0x40\n      mstore\n      dup1\n      0x00\n      dup2\n      mstore\n      0x20\n      add\n      0x00\n      dup2\n      mstore\n      0x20\n      add\n      0x00\n      dup2\n      mstore\n      0x20\n      add\n      0x60\n      dup2\n      mstore\n      0x20\n      add\n      0x60\n      dup2\n      mstore\n      pop\n      swap1\n      jump\t// out\n        /* \"#utility.yul\":7:84   */\n    tag_387:\n        /* \"#utility.yul\":44:51   */\n      0x00\n        /* \"#utility.yul\":73:78   */\n      dup2\n        /* \"#utility.yul\":62:78   */\n      swap1\n      pop\n        /* \"#utility.yul\":7:84   */\n      swap2\n      swap1\n      pop\n      jump\t// out\n        /* \"#utility.yul\":90:208   */\n    tag_388:\n        /* \"#utility.yul\":177:201   */\n      tag_480\n        /* \"#utility.yul\":195:200   */\n      dup2\n        /* \"#utility.yul\":177:201   */\n      tag_387\n      jump\t// in\n    tag_480:\n        /* \"#utility.yul\":172:175   */\n      dup3\n        /* \"#utility.yul\":165:202   */\n      mstore\n        /* \"#utility.yul\":90:208   */\n      pop\n      pop\n      jump\t// out\n        /* \"#utility.yul\":214:436   */\n    tag_35:\n        /* \"#utility.yul\":307:311   */\n      0x00\n        /* \"#utility.yul\":345:347   */\n      0x20\n        /* \"#utility.yul\":334:343   */\n      dup3\n        /* \"#utility.yul\":330:348   */\n      add\n        /* \"#utility.yul\":322:348   */\n      swap1\n      pop\n        /* \"#utility.yul\":358:429   */\n      tag_482\n        /* \"#utility.yul\":426:427   */\n      0x00\n        /* \"#utility.yul\":415:424   */\n      dup4\n        /* \"#utility.yul\":411:428   */\n      add\n        /* \"#utility.yul\":402:408   */\n      dup5\n        /* \"#utility.yul\":358:429   */\n      tag_388\n      jump\t// in\n    tag_482:\n        /* \"#utility.yul\":214:436   */\n      swap3\n      swap2\n      pop\n      pop\n      jump\t// out\n        /* \"#utility.yul\":442:517   */\n    tag_389:\n        /* \"#utility.yul\":475:481   */\n      0x00\n        /* \"#utility.yul\":508:510   */\n      0x40\n        /* \"#utility.yul\":502:511   */\n      mload\n        /* \"#utility.yul\":492:511   */\n      swap1\n      pop\n        /* \"#utility.yul\":442:517   */\n      swap1\n      jump\t// out\n        /* \"#utility.yul\":523:640   */\n    tag_390:\n        /* \"#utility.yul\":632:633   */\n      0x00\n        /* \"#utility.yul\":629:630   */\n      dup1\n        /* \"#utility.yul\":622:634   */\n      revert\n        /* \"#utility.yul\":646:763   */\n    tag_391:\n        /* \"#utility.yul\":755:756   */\n      0x00\n        /* \"#utility.yul\":752:753   */\n      dup1\n        /* \"#utility.yul\":745:757   */\n      revert\n        /* \"#utility.yul\":769:891   */\n    tag_392:\n        /* \"#utility.yul\":842:866   */\n      tag_487\n        /* \"#utility.yul\":860:865   */\n      dup2\n        /* \"#utility.yul\":842:866   */\n      tag_387\n      jump\t// in\n    tag_487:\n        /* \"#utility.yul\":835:840   */\n      dup2\n        /* \"#utility.yul\":832:867   */\n      eq\n        /* \"#utility.yul\":822:885   */\n      tag_488\n      jumpi\n        /* \"#utility.yul\":881:882   */\n      0x00\n        /* \"#utility.yul\":878:879   */\n      dup1\n        /* \"#utility.yul\":871:883   */\n      revert\n        /* \"#utility.yul\":822:885   */\n    tag_488:\n        /* \"#utility.yul\":769:891   */\n      pop\n      jump\t// out\n        /* \"#utility.yul\":897:1036   */\n    tag_393:\n        /* \"#utility.yul\":943:948   */\n      0x00\n        /* \"#utility.yul\":981:987   */\n      dup2\n        /* \"#utility.yul\":968:988   */\n      calldataload\n        /* \"#utility.yul\":959:988   */\n      swap1\n      pop\n        /* \"#utility.yul\":997:1030   */\n      tag_490\n        /* \"#utility.yul\":1024:1029   */\n      dup2\n        /* \"#utility.yul\":997:1030   */\n      tag_392\n      jump\t// in\n    tag_490:\n        /* \"#utility.yul\":897:1036   */\n      swap3\n      swap2\n      pop\n      pop\n      jump\t// out\n        /* \"#utility.yul\":1042:1159   */\n    tag_394:\n        /* \"#utility.yul\":1151:1152   */\n      0x00\n        /* \"#utility.yul\":1148:1149   */\n      dup1\n        /* \"#utility.yul\":1141:1153   */\n      revert\n        /* \"#utility.yul\":1165:1282   */\n    tag_395:\n        /* \"#utility.yul\":1274:1275   */\n      0x00\n        /* \"#utility.yul\":1271:1272   */\n      dup1\n        /* \"#utility.yul\":1264:1276   */\n      revert\n        /* \"#utility.yul\":1288:1390   */\n    tag_396:\n        /* \"#utility.yul\":1329:1335   */\n      0x00\n        /* \"#utility.yul\":1380:1382   */\n      0x1f\n        /* \"#utility.yul\":1376:1383   */\n      not\n        /* \"#utility.yul\":1371:1373   */\n      0x1f\n        /* \"#utility.yul\":1364:1369   */\n      dup4\n        /* \"#utility.yul\":1360:1374   */\n      add\n        /* \"#utility.yul\":1356:1384   */\n      and\n        /* \"#utility.yul\":1346:1384   */\n      swap1\n      pop\n        /* \"#utility.yul\":1288:1390   */\n      swap2\n      swap1\n      pop\n      jump\t// out\n        /* \"#utility.yul\":1396:1576   */\n    tag_397:\n        /* \"#utility.yul\":1444:1521   */\n      0x4e487b7100000000000000000000000000000000000000000000000000000000\n        /* \"#utility.yul\":1441:1442   */\n      0x00\n        /* \"#utility.yul\":1434:1522   */\n      mstore\n        /* \"#utility.yul\":1541:1545   */\n      0x41\n        /* \"#utility.yul\":1538:1539   */\n      0x04\n        /* \"#utility.yul\":1531:1546   */\n      mstore\n        /* \"#utility.yul\":1565:1569   */\n      0x24\n        /* \"#utility.yul\":1562:1563   */\n      0x00\n        /* \"#utility.yul\":1555:1570   */\n      revert\n        /* \"#utility.yul\":1582:1863   */\n    tag_398:\n        /* \"#utility.yul\":1665:1692   */\n      tag_496\n        /* \"#utility.yul\":1687:1691   */\n      dup3\n        /* \"#utility.yul\":1665:1692   */\n      tag_396\n      jump\t// in\n    tag_496:\n        /* \"#utility.yul\":1657:1663   */\n      dup2\n        /* \"#utility.yul\":1653:1693   */\n      add\n        /* \"#utility.yul\":1795:1801   */\n      dup2\n        /* \"#utility.yul\":1783:1793   */\n      dup2\n        /* \"#utility.yul\":1780:1802   */\n      lt\n        /* \"#utility.yul\":1759:1777   */\n      0xffffffffffffffff\n        /* \"#utility.yul\":1747:1757   */\n      dup3\n        /* \"#utility.yul\":1744:1778   */\n      gt\n        /* \"#utility.yul\":1741:1803   */\n      or\n        /* \"#utility.yul\":1738:1826   */\n      iszero\n      tag_497\n      jumpi\n        /* \"#utility.yul\":1806:1824   */\n      tag_498\n      tag_397\n      jump\t// in\n    tag_498:\n        /* \"#utility.yul\":1738:1826   */\n    tag_497:\n        /* \"#utility.yul\":1846:1856   */\n      dup1\n        /* \"#utility.yul\":1842:1844   */\n      0x40\n        /* \"#utility.yul\":1835:1857   */\n      mstore\n        /* \"#utility.yul\":1625:1863   */\n      pop\n        /* \"#utility.yul\":1582:1863   */\n      pop\n      pop\n      jump\t// out\n        /* \"#utility.yul\":1869:1998   */\n    tag_399:\n        /* \"#utility.yul\":1903:1909   */\n      0x00\n        /* \"#utility.yul\":1930:1950   */\n      tag_500\n      tag_389\n      jump\t// in\n    tag_500:\n        /* \"#utility.yul\":1920:1950   */\n      swap1\n      pop\n        /* \"#utility.yul\":1959:1992   */\n      tag_501\n        /* \"#utility.yul\":1987:1991   */\n      dup3\n        /* \"#utility.yul\":1979:1985   */\n      dup3\n        /* \"#utility.yul\":1959:1992   */\n      tag_398\n      jump\t// in\n    tag_501:\n        /* \"#utility.yul\":1869:1998   */\n      swap2\n      swap1\n      pop\n      jump\t// out\n        /* \"#utility.yul\":2004:2312   */\n    tag_400:\n        /* \"#utility.yul\":2066:2070   */\n      0x00\n        /* \"#utility.yul\":2156:2174   */\n      0xffffffffffffffff\n        /* \"#utility.yul\":2148:2154   */\n      dup3\n        /* \"#utility.yul\":2145:2175   */\n      gt\n        /* \"#utility.yul\":2142:2198   */\n      iszero\n      tag_503\n      jumpi\n        /* \"#utility.yul\":2178:2196   */\n      tag_504\n      tag_397\n      jump\t// in\n    tag_504:\n        /* \"#utility.yul\":2142:2198   */\n    tag_503:\n        /* \"#utility.yul\":2216:2245   */\n      tag_505\n        /* \"#utility.yul\":2238:2244   */\n      dup3\n        /* \"#utility.yul\":2216:2245   */\n      tag_396\n      jump\t// in\n    tag_505:\n        /* \"#utility.yul\":2208:2245   */\n      swap1\n      pop\n        /* \"#utility.yul\":2300:2304   */\n      0x20\n        /* \"#utility.yul\":2294:2298   */\n      dup2\n        /* \"#utility.yul\":2290:2305   */\n      add\n        /* \"#utility.yul\":2282:2305   */\n      swap1\n      pop\n        /* \"#utility.yul\":2004:2312   */\n      swap2\n      swap1\n      pop\n      jump\t// out\n        /* \"#utility.yul\":2318:2464   */\n    tag_401:\n        /* \"#utility.yul\":2415:2421   */\n      dup3\n        /* \"#utility.yul\":2410:2413   */\n      dup2\n        /* \"#utility.yul\":2405:2408   */\n      dup4\n        /* \"#utility.yul\":2392:2422   */\n      calldatacopy\n        /* \"#utility.yul\":2456:2457   */\n      0x00\n        /* \"#utility.yul\":2447:2453   */\n      dup4\n        /* \"#utility.yul\":2442:2445   */\n      dup4\n        /* \"#utility.yul\":2438:2454   */\n      add\n        /* \"#utility.yul\":2431:2458   */\n      mstore\n        /* \"#utility.yul\":2318:2464   */\n      pop\n      pop\n      pop\n      jump\t// out\n        /* \"#utility.yul\":2470:2895   */\n    tag_402:\n        /* \"#utility.yul\":2548:2553   */\n      0x00\n        /* \"#utility.yul\":2573:2639   */\n      tag_508\n        /* \"#utility.yul\":2589:2638   */\n      tag_509\n        /* \"#utility.yul\":2631:2637   */\n      dup5\n        /* \"#utility.yul\":2589:2638   */\n      tag_400\n      jump\t// in\n    tag_509:\n        /* \"#utility.yul\":2573:2639   */\n      tag_399\n      jump\t// in\n    tag_508:\n        /* \"#utility.yul\":2564:2639   */\n      swap1\n      pop\n        /* \"#utility.yul\":2662:2668   */\n      dup3\n        /* \"#utility.yul\":2655:2660   */\n      dup2\n        /* \"#utility.yul\":2648:2669   */\n      mstore\n        /* \"#utility.yul\":2700:2704   */\n      0x20\n        /* \"#utility.yul\":2693:2698   */\n      dup2\n        /* \"#utility.yul\":2689:2705   */\n      add\n        /* \"#utility.yul\":2738:2741   */\n      dup5\n        /* \"#utility.yul\":2729:2735   */\n      dup5\n        /* \"#utility.yul\":2724:2727   */\n      dup5\n        /* \"#utility.yul\":2720:2736   */\n      add\n        /* \"#utility.yul\":2717:2742   */\n      gt\n        /* \"#utility.yul\":2714:2826   */\n      iszero\n      tag_510\n      jumpi\n        /* \"#utility.yul\":2745:2824   */\n      tag_511\n      tag_395\n      jump\t// in\n    tag_511:\n        /* \"#utility.yul\":2714:2826   */\n    tag_510:\n        /* \"#utility.yul\":2835:2889   */\n      tag_512\n        /* \"#utility.yul\":2882:2888   */\n      dup5\n        /* \"#utility.yul\":2877:2880   */\n      dup3\n        /* \"#utility.yul\":2872:2875   */\n      dup6\n        /* \"#utility.yul\":2835:2889   */\n      tag_401\n      jump\t// in\n    tag_512:\n        /* \"#utility.yul\":2554:2895   */\n      pop\n        /* \"#utility.yul\":2470:2895   */\n      swap4\n      swap3\n      pop\n      pop\n      pop\n      jump\t// out\n        /* \"#utility.yul\":2915:3255   */\n    tag_403:\n        /* \"#utility.yul\":2971:2976   */\n      0x00\n        /* \"#utility.yul\":3020:3023   */\n      dup3\n        /* \"#utility.yul\":3013:3017   */\n      0x1f\n        /* \"#utility.yul\":3005:3011   */\n      dup4\n        /* \"#utility.yul\":3001:3018   */\n      add\n        /* \"#utility.yul\":2997:3024   */\n      slt\n        /* \"#utility.yul\":2987:3109   */\n      tag_514\n      jumpi\n        /* \"#utility.yul\":3028:3107   */\n      tag_515\n      tag_394\n      jump\t// in\n    tag_515:\n        /* \"#utility.yul\":2987:3109   */\n    tag_514:\n        /* \"#utility.yul\":3145:3151   */\n      dup2\n        /* \"#utility.yul\":3132:3152   */\n      calldataload\n        /* \"#utility.yul\":3170:3249   */\n      tag_516\n        /* \"#utility.yul\":3245:3248   */\n      dup5\n        /* \"#utility.yul\":3237:3243   */\n      dup3\n        /* \"#utility.yul\":3230:3234   */\n      0x20\n        /* \"#utility.yul\":3222:3228   */\n      dup7\n        /* \"#utility.yul\":3218:3235   */\n      add\n        /* \"#utility.yul\":3170:3249   */\n      tag_402\n      jump\t// in\n    tag_516:\n        /* \"#utility.yul\":3161:3249   */\n      swap2\n      pop\n        /* \"#utility.yul\":2977:3255   */\n      pop\n        /* \"#utility.yul\":2915:3255   */\n      swap3\n      swap2\n      pop\n      pop\n      jump\t// out\n        /* \"#utility.yul\":3261:4386   */\n    tag_39:\n        /* \"#utility.yul\":3367:3373   */\n      0x00\n        /* \"#utility.yul\":3375:3381   */\n      dup1\n        /* \"#utility.yul\":3383:3389   */\n      0x00\n        /* \"#utility.yul\":3391:3397   */\n      dup1\n        /* \"#utility.yul\":3440:3443   */\n      0x80\n        /* \"#utility.yul\":3428:3437   */\n      dup6\n        /* \"#utility.yul\":3419:3426   */\n      dup8\n        /* \"#utility.yul\":3415:3438   */\n      sub\n        /* \"#utility.yul\":3411:3444   */\n      slt\n        /* \"#utility.yul\":3408:3528   */\n      iszero\n      tag_518\n      jumpi\n        /* \"#utility.yul\":3447:3526   */\n      tag_519\n      tag_390\n      jump\t// in\n    tag_519:\n        /* \"#utility.yul\":3408:3528   */\n    tag_518:\n        /* \"#utility.yul\":3567:3568   */\n      0x00\n        /* \"#utility.yul\":3592:3645   */\n      tag_520\n        /* \"#utility.yul\":3637:3644   */\n      dup8\n        /* \"#utility.yul\":3628:3634   */\n      dup3\n        /* \"#utility.yul\":3617:3626   */\n      dup9\n        /* \"#utility.yul\":3613:3635   */\n      add\n        /* \"#utility.yul\":3592:3645   */\n      tag_393\n      jump\t// in\n    tag_520:\n        /* \"#utility.yul\":3582:3645   */\n      swap5\n      pop\n        /* \"#utility.yul\":3538:3655   */\n      pop\n        /* \"#utility.yul\":3694:3696   */\n      0x20\n        /* \"#utility.yul\":3720:3773   */\n      tag_521\n        /* \"#utility.yul\":3765:3772   */\n      dup8\n        /* \"#utility.yul\":3756:3762   */\n      dup3\n        /* \"#utility.yul\":3745:3754   */\n      dup9\n        /* \"#utility.yul\":3741:3763   */\n      add\n        /* \"#utility.yul\":3720:3773   */\n      tag_393\n      jump\t// in\n    tag_521:\n        /* \"#utility.yul\":3710:3773   */\n      swap4\n      pop\n        /* \"#utility.yul\":3665:3783   */\n      pop\n        /* \"#utility.yul\":3850:3852   */\n      0x40\n        /* \"#utility.yul\":3839:3848   */\n      dup6\n        /* \"#utility.yul\":3835:3853   */\n      add\n        /* \"#utility.yul\":3822:3854   */\n      calldataload\n        /* \"#utility.yul\":3881:3899   */\n      0xffffffffffffffff\n        /* \"#utility.yul\":3873:3879   */\n      dup2\n        /* \"#utility.yul\":3870:3900   */\n      gt\n        /* \"#utility.yul\":3867:3984   */\n      iszero\n      tag_522\n      jumpi\n        /* \"#utility.yul\":3903:3982   */\n      tag_523\n      tag_391\n      jump\t// in\n    tag_523:\n        /* \"#utility.yul\":3867:3984   */\n    tag_522:\n        /* \"#utility.yul\":4008:4071   */\n      tag_524\n        /* \"#utility.yul\":4063:4070   */\n      dup8\n        /* \"#utility.yul\":4054:4060   */\n      dup3\n        /* \"#utility.yul\":4043:4052   */\n      dup9\n        /* \"#utility.yul\":4039:4061   */\n      add\n        /* \"#utility.yul\":4008:4071   */\n      tag_403\n      jump\t// in\n    tag_524:\n        /* \"#utility.yul\":3998:4071   */\n      swap3\n      pop\n        /* \"#utility.yul\":3793:4081   */\n      pop\n        /* \"#utility.yul\":4148:4150   */\n      0x60\n        /* \"#utility.yul\":4137:4146   */\n      dup6\n        /* \"#utility.yul\":4133:4151   */\n      add\n        /* \"#utility.yul\":4120:4152   */\n      calldataload\n        /* \"#utility.yul\":4179:4197   */\n      0xffffffffffffffff\n        /* \"#utility.yul\":4171:4177   */\n      dup2\n        /* \"#utility.yul\":4168:4198   */\n      gt\n        /* \"#utility.yul\":4165:4282   */\n      iszero\n      tag_525\n      jumpi\n        /* \"#utility.yul\":4201:4280   */\n      tag_526\n      tag_391\n      jump\t// in\n    tag_526:\n        /* \"#utility.yul\":4165:4282   */\n    tag_525:\n        /* \"#utility.yul\":4306:4369   */\n      tag_527\n        /* \"#utility.yul\":4361:4368   */\n      dup8\n        /* \"#utility.yul\":4352:4358   */\n      dup3\n        /* \"#utility.yul\":4341:4350   */\n      dup9\n        /* \"#utility.yul\":4337:4359   */\n      add\n        /* \"#utility.yul\":4306:4369   */\n      tag_403\n      jump\t// in\n    tag_527:\n        /* \"#utility.yul\":4296:4369   */\n      swap2\n      pop\n        /* \"#utility.yul\":4091:4379   */\n      pop\n        /* \"#utility.yul\":3261:4386   */\n      swap3\n      swap6\n      swap2\n      swap5\n      pop\n      swap3\n      pop\n      jump\t// out\n        /* \"#utility.yul\":4392:4481   */\n    tag_404:\n        /* \"#utility.yul\":4428:4435   */\n      0x00\n        /* \"#utility.yul\":4468:4474   */\n      0xffff\n        /* \"#utility.yul\":4461:4466   */\n      dup3\n        /* \"#utility.yul\":4457:4475   */\n      and\n        /* \"#utility.yul\":4446:4475   */\n      swap1\n      pop\n        /* \"#utility.yul\":4392:4481   */\n      swap2\n      swap1\n      pop\n      jump\t// out\n        /* \"#utility.yul\":4487:4607   */\n    tag_405:\n        /* \"#utility.yul\":4559:4582   */\n      tag_530\n        /* \"#utility.yul\":4576:4581   */\n      dup2\n        /* \"#utility.yul\":4559:4582   */\n      tag_404\n      jump\t// in\n    tag_530:\n        /* \"#utility.yul\":4552:4557   */\n      dup2\n        /* \"#utility.yul\":4549:4583   */\n      eq\n        /* \"#utility.yul\":4539:4601   */\n      tag_531\n      jumpi\n        /* \"#utility.yul\":4597:4598   */\n      0x00\n        /* \"#utility.yul\":4594:4595   */\n      dup1\n        /* \"#utility.yul\":4587:4599   */\n      revert\n        /* \"#utility.yul\":4539:4601   */\n    tag_531:\n        /* \"#utility.yul\":4487:4607   */\n      pop\n      jump\t// out\n        /* \"#utility.yul\":4613:4750   */\n    tag_406:\n        /* \"#utility.yul\":4658:4663   */\n      0x00\n        /* \"#utility.yul\":4696:4702   */\n      dup2\n        /* \"#utility.yul\":4683:4703   */\n      calldataload\n        /* \"#utility.yul\":4674:4703   */\n      swap1\n      pop\n        /* \"#utility.yul\":4712:4744   */\n      tag_533\n        /* \"#utility.yul\":4738:4743   */\n      dup2\n        /* \"#utility.yul\":4712:4744   */\n      tag_405\n      jump\t// in\n    tag_533:\n        /* \"#utility.yul\":4613:4750   */\n      swap3\n      swap2\n      pop\n      pop\n      jump\t// out\n        /* \"#utility.yul\":4756:5083   */\n    tag_45:\n        /* \"#utility.yul\":4814:4820   */\n      0x00\n        /* \"#utility.yul\":4863:4865   */\n      0x20\n        /* \"#utility.yul\":4851:4860   */\n      dup3\n        /* \"#utility.yul\":4842:4849   */\n      dup5\n        /* \"#utility.yul\":4838:4861   */\n      sub\n        /* \"#utility.yul\":4834:4866   */\n      slt\n        /* \"#utility.yul\":4831:4950   */\n      iszero\n      tag_535\n      jumpi\n        /* \"#utility.yul\":4869:4948   */\n      tag_536\n      tag_390\n      jump\t// in\n    tag_536:\n        /* \"#utility.yul\":4831:4950   */\n    tag_535:\n        /* \"#utility.yul\":4989:4990   */\n      0x00\n        /* \"#utility.yul\":5014:5066   */\n      tag_537\n        /* \"#utility.yul\":5058:5065   */\n      dup5\n        /* \"#utility.yul\":5049:5055   */\n      dup3\n        /* \"#utility.yul\":5038:5047   */\n      dup6\n        /* \"#utility.yul\":5034:5056   */\n      add\n        /* \"#utility.yul\":5014:5066   */\n      tag_406\n      jump\t// in\n    tag_537:\n        /* \"#utility.yul\":5004:5066   */\n      swap2\n      pop\n        /* \"#utility.yul\":4960:5076   */\n      pop\n        /* \"#utility.yul\":4756:5083   */\n      swap3\n      swap2\n      pop\n      pop\n      jump\t// out\n        /* \"#utility.yul\":5089:5563   */\n    tag_50:\n        /* \"#utility.yul\":5157:5163   */\n      0x00\n        /* \"#utility.yul\":5165:5171   */\n      dup1\n        /* \"#utility.yul\":5214:5216   */\n      0x40\n        /* \"#utility.yul\":5202:5211   */\n      dup4\n        /* \"#utility.yul\":5193:5200   */\n      dup6\n        /* \"#utility.yul\":5189:5212   */\n      sub\n        /* \"#utility.yul\":5185:5217   */\n      slt\n        /* \"#utility.yul\":5182:5301   */\n      iszero\n      tag_539\n      jumpi\n        /* \"#utility.yul\":5220:5299   */\n      tag_540\n      tag_390\n      jump\t// in\n    tag_540:\n        /* \"#utility.yul\":5182:5301   */\n    tag_539:\n        /* \"#utility.yul\":5340:5341   */\n      0x00\n        /* \"#utility.yul\":5365:5418   */\n      tag_541\n        /* \"#utility.yul\":5410:5417   */\n      dup6\n        /* \"#utility.yul\":5401:5407   */\n      dup3\n        /* \"#utility.yul\":5390:5399   */\n      dup7\n        /* \"#utility.yul\":5386:5408   */\n      add\n        /* \"#utility.yul\":5365:5418   */\n      tag_393\n      jump\t// in\n    tag_541:\n        /* \"#utility.yul\":5355:5418   */\n      swap3\n      pop\n        /* \"#utility.yul\":5311:5428   */\n      pop\n        /* \"#utility.yul\":5467:5469   */\n      0x20\n        /* \"#utility.yul\":5493:5546   */\n      tag_542\n        /* \"#utility.yul\":5538:5545   */\n      dup6\n        /* \"#utility.yul\":5529:5535   */\n      dup3\n        /* \"#utility.yul\":5518:5527   */\n      dup7\n        /* \"#utility.yul\":5514:5536   */\n      add\n        /* \"#utility.yul\":5493:5546   */\n      tag_393\n      jump\t// in\n    tag_542:\n        /* \"#utility.yul\":5483:5546   */\n      swap2\n      pop\n        /* \"#utility.yul\":5438:5556   */\n      pop\n        /* \"#utility.yul\":5089:5563   */\n      swap3\n      pop\n      swap3\n      swap1\n      pop\n      jump\t// out\n        /* \"#utility.yul\":5569:5898   */\n    tag_55:\n        /* \"#utility.yul\":5628:5634   */\n      0x00\n        /* \"#utility.yul\":5677:5679   */\n      0x20\n        /* \"#utility.yul\":5665:5674   */\n      dup3\n        /* \"#utility.yul\":5656:5663   */\n      dup5\n        /* \"#utility.yul\":5652:5675   */\n      sub\n        /* \"#utility.yul\":5648:5680   */\n      slt\n        /* \"#utility.yul\":5645:5764   */\n      iszero\n      tag_544\n      jumpi\n        /* \"#utility.yul\":5683:5762   */\n      tag_545\n      tag_390\n      jump\t// in\n    tag_545:\n        /* \"#utility.yul\":5645:5764   */\n    tag_544:\n        /* \"#utility.yul\":5803:5804   */\n      0x00\n        /* \"#utility.yul\":5828:5881   */\n      tag_546\n        /* \"#utility.yul\":5873:5880   */\n      dup5\n        /* \"#utility.yul\":5864:5870   */\n      dup3\n        /* \"#utility.yul\":5853:5862   */\n      dup6\n        /* \"#utility.yul\":5849:5871   */\n      add\n        /* \"#utility.yul\":5828:5881   */\n      tag_393\n      jump\t// in\n    tag_546:\n        /* \"#utility.yul\":5818:5881   */\n      swap2\n      pop\n        /* \"#utility.yul\":5774:5891   */\n      pop\n        /* \"#utility.yul\":5569:5898   */\n      swap3\n      swap2\n      pop\n      pop\n      jump\t// out\n        /* \"#utility.yul\":5904:6003   */\n    tag_407:\n        /* \"#utility.yul\":5956:5962   */\n      0x00\n        /* \"#utility.yul\":5990:5995   */\n      dup2\n        /* \"#utility.yul\":5984:5996   */\n      mload\n        /* \"#utility.yul\":5974:5996   */\n      swap1\n      pop\n        /* \"#utility.yul\":5904:6003   */\n      swap2\n      swap1\n      pop\n      jump\t// out\n        /* \"#utility.yul\":6009:6178   */\n    tag_408:\n        /* \"#utility.yul\":6093:6104   */\n      0x00\n        /* \"#utility.yul\":6127:6133   */\n      dup3\n        /* \"#utility.yul\":6122:6125   */\n      dup3\n        /* \"#utility.yul\":6115:6134   */\n      mstore\n        /* \"#utility.yul\":6167:6171   */\n      0x20\n        /* \"#utility.yul\":6162:6165   */\n      dup3\n        /* \"#utility.yul\":6158:6172   */\n      add\n        /* \"#utility.yul\":6143:6172   */\n      swap1\n      pop\n        /* \"#utility.yul\":6009:6178   */\n      swap3\n      swap2\n      pop\n      pop\n      jump\t// out\n        /* \"#utility.yul\":6184:6430   */\n    tag_409:\n        /* \"#utility.yul\":6265:6266   */\n      0x00\n        /* \"#utility.yul\":6275:6388   */\n    tag_550:\n        /* \"#utility.yul\":6289:6295   */\n      dup4\n        /* \"#utility.yul\":6286:6287   */\n      dup2\n        /* \"#utility.yul\":6283:6296   */\n      lt\n        /* \"#utility.yul\":6275:6388   */\n      iszero\n      tag_552\n      jumpi\n        /* \"#utility.yul\":6374:6375   */\n      dup1\n        /* \"#utility.yul\":6369:6372   */\n      dup3\n        /* \"#utility.yul\":6365:6376   */\n      add\n        /* \"#utility.yul\":6359:6377   */\n      mload\n        /* \"#utility.yul\":6355:6356   */\n      dup2\n        /* \"#utility.yul\":6350:6353   */\n      dup5\n        /* \"#utility.yul\":6346:6357   */\n      add\n        /* \"#utility.yul\":6339:6378   */\n      mstore\n        /* \"#utility.yul\":6311:6313   */\n      0x20\n        /* \"#utility.yul\":6308:6309   */\n      dup2\n        /* \"#utility.yul\":6304:6314   */\n      add\n        /* \"#utility.yul\":6299:6314   */\n      swap1\n      pop\n        /* \"#utility.yul\":6275:6388   */\n      jump(tag_550)\n    tag_552:\n        /* \"#utility.yul\":6422:6423   */\n      0x00\n        /* \"#utility.yul\":6413:6419   */\n      dup5\n        /* \"#utility.yul\":6408:6411   */\n      dup5\n        /* \"#utility.yul\":6404:6420   */\n      add\n        /* \"#utility.yul\":6397:6424   */\n      mstore\n        /* \"#utility.yul\":6246:6430   */\n      pop\n        /* \"#utility.yul\":6184:6430   */\n      pop\n      pop\n      pop\n      jump\t// out\n        /* \"#utility.yul\":6436:6813   */\n    tag_410:\n        /* \"#utility.yul\":6524:6527   */\n      0x00\n        /* \"#utility.yul\":6552:6591   */\n      tag_554\n        /* \"#utility.yul\":6585:6590   */\n      dup3\n        /* \"#utility.yul\":6552:6591   */\n      tag_407\n      jump\t// in\n    tag_554:\n        /* \"#utility.yul\":6607:6678   */\n      tag_555\n        /* \"#utility.yul\":6671:6677   */\n      dup2\n        /* \"#utility.yul\":6666:6669   */\n      dup6\n        /* \"#utility.yul\":6607:6678   */\n      tag_408\n      jump\t// in\n    tag_555:\n        /* \"#utility.yul\":6600:6678   */\n      swap4\n      pop\n        /* \"#utility.yul\":6687:6752   */\n      tag_556\n        /* \"#utility.yul\":6745:6751   */\n      dup2\n        /* \"#utility.yul\":6740:6743   */\n      dup6\n        /* \"#utility.yul\":6733:6737   */\n      0x20\n        /* \"#utility.yul\":6726:6731   */\n      dup7\n        /* \"#utility.yul\":6722:6738   */\n      add\n        /* \"#utility.yul\":6687:6752   */\n      tag_409\n      jump\t// in\n    tag_556:\n        /* \"#utility.yul\":6777:6806   */\n      tag_557\n        /* \"#utility.yul\":6799:6805   */\n      dup2\n        /* \"#utility.yul\":6777:6806   */\n      tag_396\n      jump\t// in\n    tag_557:\n        /* \"#utility.yul\":6772:6775   */\n      dup5\n        /* \"#utility.yul\":6768:6807   */\n      add\n        /* \"#utility.yul\":6761:6807   */\n      swap2\n      pop\n        /* \"#utility.yul\":6528:6813   */\n      pop\n        /* \"#utility.yul\":6436:6813   */\n      swap3\n      swap2\n      pop\n      pop\n      jump\t// out\n        /* \"#utility.yul\":6819:7132   */\n    tag_81:\n        /* \"#utility.yul\":6932:6936   */\n      0x00\n        /* \"#utility.yul\":6970:6972   */\n      0x20\n        /* \"#utility.yul\":6959:6968   */\n      dup3\n        /* \"#utility.yul\":6955:6973   */\n      add\n        /* \"#utility.yul\":6947:6973   */\n      swap1\n      pop\n        /* \"#utility.yul\":7019:7028   */\n      dup2\n        /* \"#utility.yul\":7013:7017   */\n      dup2\n        /* \"#utility.yul\":7009:7029   */\n      sub\n        /* \"#utility.yul\":7005:7006   */\n      0x00\n        /* \"#utility.yul\":6994:7003   */\n      dup4\n        /* \"#utility.yul\":6990:7007   */\n      add\n        /* \"#utility.yul\":6983:7030   */\n      mstore\n        /* \"#utility.yul\":7047:7125   */\n      tag_559\n        /* \"#utility.yul\":7120:7124   */\n      dup2\n        /* \"#utility.yul\":7111:7117   */\n      dup5\n        /* \"#utility.yul\":7047:7125   */\n      tag_410\n      jump\t// in\n    tag_559:\n        /* \"#utility.yul\":7039:7125   */\n      swap1\n      pop\n        /* \"#utility.yul\":6819:7132   */\n      swap3\n      swap2\n      pop\n      pop\n      jump\t// out\n        /* \"#utility.yul\":7138:7252   */\n    tag_411:\n        /* \"#utility.yul\":7205:7211   */\n      0x00\n        /* \"#utility.yul\":7239:7244   */\n      dup2\n        /* \"#utility.yul\":7233:7245   */\n      mload\n        /* \"#utility.yul\":7223:7245   */\n      swap1\n      pop\n        /* \"#utility.yul\":7138:7252   */\n      swap2\n      swap1\n      pop\n      jump\t// out\n        /* \"#utility.yul\":7258:7442   */\n    tag_412:\n        /* \"#utility.yul\":7357:7368   */\n      0x00\n        /* \"#utility.yul\":7391:7397   */\n      dup3\n        /* \"#utility.yul\":7386:7389   */\n      dup3\n        /* \"#utility.yul\":7379:7398   */\n      mstore\n        /* \"#utility.yul\":7431:7435   */\n      0x20\n        /* \"#utility.yul\":7426:7429   */\n      dup3\n        /* \"#utility.yul\":7422:7436   */\n      add\n        /* \"#utility.yul\":7407:7436   */\n      swap1\n      pop\n        /* \"#utility.yul\":7258:7442   */\n      swap3\n      swap2\n      pop\n      pop\n      jump\t// out\n        /* \"#utility.yul\":7448:7580   */\n    tag_413:\n        /* \"#utility.yul\":7515:7519   */\n      0x00\n        /* \"#utility.yul\":7538:7541   */\n      dup2\n        /* \"#utility.yul\":7530:7541   */\n      swap1\n      pop\n        /* \"#utility.yul\":7568:7572   */\n      0x20\n        /* \"#utility.yul\":7563:7566   */\n      dup3\n        /* \"#utility.yul\":7559:7573   */\n      add\n        /* \"#utility.yul\":7551:7573   */\n      swap1\n      pop\n        /* \"#utility.yul\":7448:7580   */\n      swap2\n      swap1\n      pop\n      jump\t// out\n        /* \"#utility.yul\":7586:7712   */\n    tag_414:\n        /* \"#utility.yul\":7623:7630   */\n      0x00\n        /* \"#utility.yul\":7663:7705   */\n      0xffffffffffffffffffffffffffffffffffffffff\n        /* \"#utility.yul\":7656:7661   */\n      dup3\n        /* \"#utility.yul\":7652:7706   */\n      and\n        /* \"#utility.yul\":7641:7706   */\n      swap1\n      pop\n        /* \"#utility.yul\":7586:7712   */\n      swap2\n      swap1\n      pop\n      jump\t// out\n        /* \"#utility.yul\":7718:7814   */\n    tag_415:\n        /* \"#utility.yul\":7755:7762   */\n      0x00\n        /* \"#utility.yul\":7784:7808   */\n      tag_565\n        /* \"#utility.yul\":7802:7807   */\n      dup3\n        /* \"#utility.yul\":7784:7808   */\n      tag_414\n      jump\t// in\n    tag_565:\n        /* \"#utility.yul\":7773:7808   */\n      swap1\n      pop\n        /* \"#utility.yul\":7718:7814   */\n      swap2\n      swap1\n      pop\n      jump\t// out\n        /* \"#utility.yul\":7820:7928   */\n    tag_416:\n        /* \"#utility.yul\":7897:7921   */\n      tag_567\n        /* \"#utility.yul\":7915:7920   */\n      dup2\n        /* \"#utility.yul\":7897:7921   */\n      tag_415\n      jump\t// in\n    tag_567:\n        /* \"#utility.yul\":7892:7895   */\n      dup3\n        /* \"#utility.yul\":7885:7922   */\n      mstore\n        /* \"#utility.yul\":7820:7928   */\n      pop\n      pop\n      jump\t// out\n        /* \"#utility.yul\":7934:8113   */\n    tag_417:\n        /* \"#utility.yul\":8003:8013   */\n      0x00\n        /* \"#utility.yul\":8024:8070   */\n      tag_569\n        /* \"#utility.yul\":8066:8069   */\n      dup4\n        /* \"#utility.yul\":8058:8064   */\n      dup4\n        /* \"#utility.yul\":8024:8070   */\n      tag_416\n      jump\t// in\n    tag_569:\n        /* \"#utility.yul\":8102:8106   */\n      0x20\n        /* \"#utility.yul\":8097:8100   */\n      dup4\n        /* \"#utility.yul\":8093:8107   */\n      add\n        /* \"#utility.yul\":8079:8107   */\n      swap1\n      pop\n        /* \"#utility.yul\":7934:8113   */\n      swap3\n      swap2\n      pop\n      pop\n      jump\t// out\n        /* \"#utility.yul\":8119:8232   */\n    tag_418:\n        /* \"#utility.yul\":8189:8193   */\n      0x00\n        /* \"#utility.yul\":8221:8225   */\n      0x20\n        /* \"#utility.yul\":8216:8219   */\n      dup3\n        /* \"#utility.yul\":8212:8226   */\n      add\n        /* \"#utility.yul\":8204:8226   */\n      swap1\n      pop\n        /* \"#utility.yul\":8119:8232   */\n      swap2\n      swap1\n      pop\n      jump\t// out\n        /* \"#utility.yul\":8268:9000   */\n    tag_419:\n        /* \"#utility.yul\":8387:8390   */\n      0x00\n        /* \"#utility.yul\":8416:8470   */\n      tag_572\n        /* \"#utility.yul\":8464:8469   */\n      dup3\n        /* \"#utility.yul\":8416:8470   */\n      tag_411\n      jump\t// in\n    tag_572:\n        /* \"#utility.yul\":8486:8572   */\n      tag_573\n        /* \"#utility.yul\":8565:8571   */\n      dup2\n        /* \"#utility.yul\":8560:8563   */\n      dup6\n        /* \"#utility.yul\":8486:8572   */\n      tag_412\n      jump\t// in\n    tag_573:\n        /* \"#utility.yul\":8479:8572   */\n      swap4\n      pop\n        /* \"#utility.yul\":8596:8652   */\n      tag_574\n        /* \"#utility.yul\":8646:8651   */\n      dup4\n        /* \"#utility.yul\":8596:8652   */\n      tag_413\n      jump\t// in\n    tag_574:\n        /* \"#utility.yul\":8675:8682   */\n      dup1\n        /* \"#utility.yul\":8706:8707   */\n      0x00\n        /* \"#utility.yul\":8691:8975   */\n    tag_575:\n        /* \"#utility.yul\":8716:8722   */\n      dup4\n        /* \"#utility.yul\":8713:8714   */\n      dup2\n        /* \"#utility.yul\":8710:8723   */\n      lt\n        /* \"#utility.yul\":8691:8975   */\n      iszero\n      tag_577\n      jumpi\n        /* \"#utility.yul\":8792:8798   */\n      dup2\n        /* \"#utility.yul\":8786:8799   */\n      mload\n        /* \"#utility.yul\":8819:8882   */\n      tag_578\n        /* \"#utility.yul\":8878:8881   */\n      dup9\n        /* \"#utility.yul\":8863:8876   */\n      dup3\n        /* \"#utility.yul\":8819:8882   */\n      tag_417\n      jump\t// in\n    tag_578:\n        /* \"#utility.yul\":8812:8882   */\n      swap8\n      pop\n        /* \"#utility.yul\":8905:8965   */\n      tag_579\n        /* \"#utility.yul\":8958:8964   */\n      dup4\n        /* \"#utility.yul\":8905:8965   */\n      tag_418\n      jump\t// in\n    tag_579:\n        /* \"#utility.yul\":8895:8965   */\n      swap3\n      pop\n        /* \"#utility.yul\":8751:8975   */\n      pop\n        /* \"#utility.yul\":8738:8739   */\n      0x01\n        /* \"#utility.yul\":8735:8736   */\n      dup2\n        /* \"#utility.yul\":8731:8740   */\n      add\n        /* \"#utility.yul\":8726:8740   */\n      swap1\n      pop\n        /* \"#utility.yul\":8691:8975   */\n      jump(tag_575)\n    tag_577:\n        /* \"#utility.yul\":8695:8709   */\n      pop\n        /* \"#utility.yul\":8991:8994   */\n      dup6\n        /* \"#utility.yul\":8984:8994   */\n      swap4\n      pop\n        /* \"#utility.yul\":8392:9000   */\n      pop\n      pop\n      pop\n        /* \"#utility.yul\":8268:9000   */\n      swap3\n      swap2\n      pop\n      pop\n      jump\t// out\n        /* \"#utility.yul\":9006:9379   */\n    tag_86:\n        /* \"#utility.yul\":9149:9153   */\n      0x00\n        /* \"#utility.yul\":9187:9189   */\n      0x20\n        /* \"#utility.yul\":9176:9185   */\n      dup3\n        /* \"#utility.yul\":9172:9190   */\n      add\n        /* \"#utility.yul\":9164:9190   */\n      swap1\n      pop\n        /* \"#utility.yul\":9236:9245   */\n      dup2\n        /* \"#utility.yul\":9230:9234   */\n      dup2\n        /* \"#utility.yul\":9226:9246   */\n      sub\n        /* \"#utility.yul\":9222:9223   */\n      0x00\n        /* \"#utility.yul\":9211:9220   */\n      dup4\n        /* \"#utility.yul\":9207:9224   */\n      add\n        /* \"#utility.yul\":9200:9247   */\n      mstore\n        /* \"#utility.yul\":9264:9372   */\n      tag_581\n        /* \"#utility.yul\":9367:9371   */\n      dup2\n        /* \"#utility.yul\":9358:9364   */\n      dup5\n        /* \"#utility.yul\":9264:9372   */\n      tag_419\n      jump\t// in\n    tag_581:\n        /* \"#utility.yul\":9256:9372   */\n      swap1\n      pop\n        /* \"#utility.yul\":9006:9379   */\n      swap3\n      swap2\n      pop\n      pop\n      jump\t// out\n        /* \"#utility.yul\":9385:9503   */\n    tag_420:\n        /* \"#utility.yul\":9472:9496   */\n      tag_583\n        /* \"#utility.yul\":9490:9495   */\n      dup2\n        /* \"#utility.yul\":9472:9496   */\n      tag_415\n      jump\t// in\n    tag_583:\n        /* \"#utility.yul\":9467:9470   */\n      dup3\n        /* \"#utility.yul\":9460:9497   */\n      mstore\n        /* \"#utility.yul\":9385:9503   */\n      pop\n      pop\n      jump\t// out\n        /* \"#utility.yul\":9509:9731   */\n    tag_91:\n        /* \"#utility.yul\":9602:9606   */\n      0x00\n        /* \"#utility.yul\":9640:9642   */\n      0x20\n        /* \"#utility.yul\":9629:9638   */\n      dup3\n        /* \"#utility.yul\":9625:9643   */\n      add\n        /* \"#utility.yul\":9617:9643   */\n      swap1\n      pop\n        /* \"#utility.yul\":9653:9724   */\n      tag_585\n        /* \"#utility.yul\":9721:9722   */\n      0x00\n        /* \"#utility.yul\":9710:9719   */\n      dup4\n        /* \"#utility.yul\":9706:9723   */\n      add\n        /* \"#utility.yul\":9697:9703   */\n      dup5\n        /* \"#utility.yul\":9653:9724   */\n      tag_420\n      jump\t// in\n    tag_585:\n        /* \"#utility.yul\":9509:9731   */\n      swap3\n      swap2\n      pop\n      pop\n      jump\t// out\n        /* \"#utility.yul\":9737:9845   */\n    tag_421:\n        /* \"#utility.yul\":9814:9838   */\n      tag_587\n        /* \"#utility.yul\":9832:9837   */\n      dup2\n        /* \"#utility.yul\":9814:9838   */\n      tag_387\n      jump\t// in\n    tag_587:\n        /* \"#utility.yul\":9809:9812   */\n      dup3\n        /* \"#utility.yul\":9802:9839   */\n      mstore\n        /* \"#utility.yul\":9737:9845   */\n      pop\n      pop\n      jump\t// out\n        /* \"#utility.yul\":9851:10010   */\n    tag_422:\n        /* \"#utility.yul\":9925:9936   */\n      0x00\n        /* \"#utility.yul\":9959:9965   */\n      dup3\n        /* \"#utility.yul\":9954:9957   */\n      dup3\n        /* \"#utility.yul\":9947:9966   */\n      mstore\n        /* \"#utility.yul\":9999:10003   */\n      0x20\n        /* \"#utility.yul\":9994:9997   */\n      dup3\n        /* \"#utility.yul\":9990:10004   */\n      add\n        /* \"#utility.yul\":9975:10004   */\n      swap1\n      pop\n        /* \"#utility.yul\":9851:10010   */\n      swap3\n      swap2\n      pop\n      pop\n      jump\t// out\n        /* \"#utility.yul\":10016:10373   */\n    tag_423:\n        /* \"#utility.yul\":10094:10097   */\n      0x00\n        /* \"#utility.yul\":10122:10161   */\n      tag_590\n        /* \"#utility.yul\":10155:10160   */\n      dup3\n        /* \"#utility.yul\":10122:10161   */\n      tag_407\n      jump\t// in\n    tag_590:\n        /* \"#utility.yul\":10177:10238   */\n      tag_591\n        /* \"#utility.yul\":10231:10237   */\n      dup2\n        /* \"#utility.yul\":10226:10229   */\n      dup6\n        /* \"#utility.yul\":10177:10238   */\n      tag_422\n      jump\t// in\n    tag_591:\n        /* \"#utility.yul\":10170:10238   */\n      swap4\n      pop\n        /* \"#utility.yul\":10247:10312   */\n      tag_592\n        /* \"#utility.yul\":10305:10311   */\n      dup2\n        /* \"#utility.yul\":10300:10303   */\n      dup6\n        /* \"#utility.yul\":10293:10297   */\n      0x20\n        /* \"#utility.yul\":10286:10291   */\n      dup7\n        /* \"#utility.yul\":10282:10298   */\n      add\n        /* \"#utility.yul\":10247:10312   */\n      tag_409\n      jump\t// in\n    tag_592:\n        /* \"#utility.yul\":10337:10366   */\n      tag_593\n        /* \"#utility.yul\":10359:10365   */\n      dup2\n        /* \"#utility.yul\":10337:10366   */\n      tag_396\n      jump\t// in\n    tag_593:\n        /* \"#utility.yul\":10332:10335   */\n      dup5\n        /* \"#utility.yul\":10328:10367   */\n      add\n        /* \"#utility.yul\":10321:10367   */\n      swap2\n      pop\n        /* \"#utility.yul\":10098:10373   */\n      pop\n        /* \"#utility.yul\":10016:10373   */\n      swap3\n      swap2\n      pop\n      pop\n      jump\t// out\n        /* \"#utility.yul\":10439:11647   */\n    tag_424:\n        /* \"#utility.yul\":10550:10553   */\n      0x00\n        /* \"#utility.yul\":10586:10590   */\n      0xa0\n        /* \"#utility.yul\":10581:10584   */\n      dup4\n        /* \"#utility.yul\":10577:10591   */\n      add\n        /* \"#utility.yul\":10673:10677   */\n      0x00\n        /* \"#utility.yul\":10666:10671   */\n      dup4\n        /* \"#utility.yul\":10662:10678   */\n      add\n        /* \"#utility.yul\":10656:10679   */\n      mload\n        /* \"#utility.yul\":10692:10755   */\n      tag_595\n        /* \"#utility.yul\":10749:10753   */\n      0x00\n        /* \"#utility.yul\":10744:10747   */\n      dup7\n        /* \"#utility.yul\":10740:10754   */\n      add\n        /* \"#utility.yul\":10726:10738   */\n      dup3\n        /* \"#utility.yul\":10692:10755   */\n      tag_421\n      jump\t// in\n    tag_595:\n        /* \"#utility.yul\":10601:10765   */\n      pop\n        /* \"#utility.yul\":10851:10855   */\n      0x20\n        /* \"#utility.yul\":10844:10849   */\n      dup4\n        /* \"#utility.yul\":10840:10856   */\n      add\n        /* \"#utility.yul\":10834:10857   */\n      mload\n        /* \"#utility.yul\":10870:10933   */\n      tag_596\n        /* \"#utility.yul\":10927:10931   */\n      0x20\n        /* \"#utility.yul\":10922:10925   */\n      dup7\n        /* \"#utility.yul\":10918:10932   */\n      add\n        /* \"#utility.yul\":10904:10916   */\n      dup3\n        /* \"#utility.yul\":10870:10933   */\n      tag_421\n      jump\t// in\n    tag_596:\n        /* \"#utility.yul\":10775:10943   */\n      pop\n        /* \"#utility.yul\":11031:11035   */\n      0x40\n        /* \"#utility.yul\":11024:11029   */\n      dup4\n        /* \"#utility.yul\":11020:11036   */\n      add\n        /* \"#utility.yul\":11014:11037   */\n      mload\n        /* \"#utility.yul\":11050:11113   */\n      tag_597\n        /* \"#utility.yul\":11107:11111   */\n      0x40\n        /* \"#utility.yul\":11102:11105   */\n      dup7\n        /* \"#utility.yul\":11098:11112   */\n      add\n        /* \"#utility.yul\":11084:11096   */\n      dup3\n        /* \"#utility.yul\":11050:11113   */\n      tag_421\n      jump\t// in\n    tag_597:\n        /* \"#utility.yul\":10953:11123   */\n      pop\n        /* \"#utility.yul\":11207:11211   */\n      0x60\n        /* \"#utility.yul\":11200:11205   */\n      dup4\n        /* \"#utility.yul\":11196:11212   */\n      add\n        /* \"#utility.yul\":11190:11213   */\n      mload\n        /* \"#utility.yul\":11260:11263   */\n      dup5\n        /* \"#utility.yul\":11254:11258   */\n      dup3\n        /* \"#utility.yul\":11250:11264   */\n      sub\n        /* \"#utility.yul\":11243:11247   */\n      0x60\n        /* \"#utility.yul\":11238:11241   */\n      dup7\n        /* \"#utility.yul\":11234:11248   */\n      add\n        /* \"#utility.yul\":11227:11265   */\n      mstore\n        /* \"#utility.yul\":11286:11359   */\n      tag_598\n        /* \"#utility.yul\":11354:11358   */\n      dup3\n        /* \"#utility.yul\":11340:11352   */\n      dup3\n        /* \"#utility.yul\":11286:11359   */\n      tag_423\n      jump\t// in\n    tag_598:\n        /* \"#utility.yul\":11278:11359   */\n      swap2\n      pop\n        /* \"#utility.yul\":11133:11370   */\n      pop\n        /* \"#utility.yul\":11457:11461   */\n      0x80\n        /* \"#utility.yul\":11450:11455   */\n      dup4\n        /* \"#utility.yul\":11446:11462   */\n      add\n        /* \"#utility.yul\":11440:11463   */\n      mload\n        /* \"#utility.yul\":11510:11513   */\n      dup5\n        /* \"#utility.yul\":11504:11508   */\n      dup3\n        /* \"#utility.yul\":11500:11514   */\n      sub\n        /* \"#utility.yul\":11493:11497   */\n      0x80\n        /* \"#utility.yul\":11488:11491   */\n      dup7\n        /* \"#utility.yul\":11484:11498   */\n      add\n        /* \"#utility.yul\":11477:11515   */\n      mstore\n        /* \"#utility.yul\":11536:11609   */\n      tag_599\n        /* \"#utility.yul\":11604:11608   */\n      dup3\n        /* \"#utility.yul\":11590:11602   */\n      dup3\n        /* \"#utility.yul\":11536:11609   */\n      tag_423\n      jump\t// in\n    tag_599:\n        /* \"#utility.yul\":11528:11609   */\n      swap2\n      pop\n        /* \"#utility.yul\":11380:11620   */\n      pop\n        /* \"#utility.yul\":11637:11641   */\n      dup1\n        /* \"#utility.yul\":11630:11641   */\n      swap2\n      pop\n        /* \"#utility.yul\":10555:11647   */\n      pop\n        /* \"#utility.yul\":10439:11647   */\n      swap3\n      swap2\n      pop\n      pop\n      jump\t// out\n        /* \"#utility.yul\":11653:12010   */\n    tag_97:\n        /* \"#utility.yul\":11788:11792   */\n      0x00\n        /* \"#utility.yul\":11826:11828   */\n      0x20\n        /* \"#utility.yul\":11815:11824   */\n      dup3\n        /* \"#utility.yul\":11811:11829   */\n      add\n        /* \"#utility.yul\":11803:11829   */\n      swap1\n      pop\n        /* \"#utility.yul\":11875:11884   */\n      dup2\n        /* \"#utility.yul\":11869:11873   */\n      dup2\n        /* \"#utility.yul\":11865:11885   */\n      sub\n        /* \"#utility.yul\":11861:11862   */\n      0x00\n        /* \"#utility.yul\":11850:11859   */\n      dup4\n        /* \"#utility.yul\":11846:11863   */\n      add\n        /* \"#utility.yul\":11839:11886   */\n      mstore\n        /* \"#utility.yul\":11903:12003   */\n      tag_601\n        /* \"#utility.yul\":11998:12002   */\n      dup2\n        /* \"#utility.yul\":11989:11995   */\n      dup5\n        /* \"#utility.yul\":11903:12003   */\n      tag_424\n      jump\t// in\n    tag_601:\n        /* \"#utility.yul\":11895:12003   */\n      swap1\n      pop\n        /* \"#utility.yul\":11653:12010   */\n      swap3\n      swap2\n      pop\n      pop\n      jump\t// out\n        /* \"#utility.yul\":12016:12781   */\n    tag_101:\n        /* \"#utility.yul\":12102:12108   */\n      0x00\n        /* \"#utility.yul\":12110:12116   */\n      dup1\n        /* \"#utility.yul\":12118:12124   */\n      0x00\n        /* \"#utility.yul\":12126:12132   */\n      dup1\n        /* \"#utility.yul\":12175:12178   */\n      0x80\n        /* \"#utility.yul\":12163:12172   */\n      dup6\n        /* \"#utility.yul\":12154:12161   */\n      dup8\n        /* \"#utility.yul\":12150:12173   */\n      sub\n        /* \"#utility.yul\":12146:12179   */\n      slt\n        /* \"#utility.yul\":12143:12263   */\n      iszero\n      tag_603\n      jumpi\n        /* \"#utility.yul\":12182:12261   */\n      tag_604\n      tag_390\n      jump\t// in\n    tag_604:\n        /* \"#utility.yul\":12143:12263   */\n    tag_603:\n        /* \"#utility.yul\":12302:12303   */\n      0x00\n        /* \"#utility.yul\":12327:12380   */\n      tag_605\n        /* \"#utility.yul\":12372:12379   */\n      dup8\n        /* \"#utility.yul\":12363:12369   */\n      dup3\n        /* \"#utility.yul\":12352:12361   */\n      dup9\n        /* \"#utility.yul\":12348:12370   */\n      add\n        /* \"#utility.yul\":12327:12380   */\n      tag_393\n      jump\t// in\n    tag_605:\n        /* \"#utility.yul\":12317:12380   */\n      swap5\n      pop\n        /* \"#utility.yul\":12273:12390   */\n      pop\n        /* \"#utility.yul\":12429:12431   */\n      0x20\n        /* \"#utility.yul\":12455:12508   */\n      tag_606\n        /* \"#utility.yul\":12500:12507   */\n      dup8\n        /* \"#utility.yul\":12491:12497   */\n      dup3\n        /* \"#utility.yul\":12480:12489   */\n      dup9\n        /* \"#utility.yul\":12476:12498   */\n      add\n        /* \"#utility.yul\":12455:12508   */\n      tag_393\n      jump\t// in\n    tag_606:\n        /* \"#utility.yul\":12445:12508   */\n      swap4\n      pop\n        /* \"#utility.yul\":12400:12518   */\n      pop\n        /* \"#utility.yul\":12557:12559   */\n      0x40\n        /* \"#utility.yul\":12583:12636   */\n      tag_607\n        /* \"#utility.yul\":12628:12635   */\n      dup8\n        /* \"#utility.yul\":12619:12625   */\n      dup3\n        /* \"#utility.yul\":12608:12617   */\n      dup9\n        /* \"#utility.yul\":12604:12626   */\n      add\n        /* \"#utility.yul\":12583:12636   */\n      tag_393\n      jump\t// in\n    tag_607:\n        /* \"#utility.yul\":12573:12636   */\n      swap3\n      pop\n        /* \"#utility.yul\":12528:12646   */\n      pop\n        /* \"#utility.yul\":12685:12687   */\n      0x60\n        /* \"#utility.yul\":12711:12764   */\n      tag_608\n        /* \"#utility.yul\":12756:12763   */\n      dup8\n        /* \"#utility.yul\":12747:12753   */\n      dup3\n        /* \"#utility.yul\":12736:12745   */\n      dup9\n        /* \"#utility.yul\":12732:12754   */\n      add\n        /* \"#utility.yul\":12711:12764   */\n      tag_393\n      jump\t// in\n    tag_608:\n        /* \"#utility.yul\":12701:12764   */\n      swap2\n      pop\n        /* \"#utility.yul\":12656:12774   */\n      pop\n        /* \"#utility.yul\":12016:12781   */\n      swap3\n      swap6\n      swap2\n      swap5\n      pop\n      swap3\n      pop\n      jump\t// out\n        /* \"#utility.yul\":12787:12909   */\n    tag_425:\n        /* \"#utility.yul\":12860:12884   */\n      tag_610\n        /* \"#utility.yul\":12878:12883   */\n      dup2\n        /* \"#utility.yul\":12860:12884   */\n      tag_415\n      jump\t// in\n    tag_610:\n        /* \"#utility.yul\":12853:12858   */\n      dup2\n        /* \"#utility.yul\":12850:12885   */\n      eq\n        /* \"#utility.yul\":12840:12903   */\n      tag_611\n      jumpi\n        /* \"#utility.yul\":12899:12900   */\n      0x00\n        /* \"#utility.yul\":12896:12897   */\n      dup1\n        /* \"#utility.yul\":12889:12901   */\n      revert\n        /* \"#utility.yul\":12840:12903   */\n    tag_611:\n        /* \"#utility.yul\":12787:12909   */\n      pop\n      jump\t// out\n        /* \"#utility.yul\":12915:13054   */\n    tag_426:\n        /* \"#utility.yul\":12961:12966   */\n      0x00\n        /* \"#utility.yul\":12999:13005   */\n      dup2\n        /* \"#utility.yul\":12986:13006   */\n      calldataload\n        /* \"#utility.yul\":12977:13006   */\n      swap1\n      pop\n        /* \"#utility.yul\":13015:13048   */\n      tag_613\n        /* \"#utility.yul\":13042:13047   */\n      dup2\n        /* \"#utility.yul\":13015:13048   */\n      tag_425\n      jump\t// in\n    tag_613:\n        /* \"#utility.yul\":12915:13054   */\n      swap3\n      swap2\n      pop\n      pop\n      jump\t// out\n        /* \"#utility.yul\":13060:13389   */\n    tag_107:\n        /* \"#utility.yul\":13119:13125   */\n      0x00\n        /* \"#utility.yul\":13168:13170   */\n      0x20\n        /* \"#utility.yul\":13156:13165   */\n      dup3\n        /* \"#utility.yul\":13147:13154   */\n      dup5\n        /* \"#utility.yul\":13143:13166   */\n      sub\n        /* \"#utility.yul\":13139:13171   */\n      slt\n        /* \"#utility.yul\":13136:13255   */\n      iszero\n      tag_615\n      jumpi\n        /* \"#utility.yul\":13174:13253   */\n      tag_616\n      tag_390\n      jump\t// in\n    tag_616:\n        /* \"#utility.yul\":13136:13255   */\n    tag_615:\n        /* \"#utility.yul\":13294:13295   */\n      0x00\n        /* \"#utility.yul\":13319:13372   */\n      tag_617\n        /* \"#utility.yul\":13364:13371   */\n      dup5\n        /* \"#utility.yul\":13355:13361   */\n      dup3\n        /* \"#utility.yul\":13344:13353   */\n      dup6\n        /* \"#utility.yul\":13340:13362   */\n      add\n        /* \"#utility.yul\":13319:13372   */\n      tag_426\n      jump\t// in\n    tag_617:\n        /* \"#utility.yul\":13309:13372   */\n      swap2\n      pop\n        /* \"#utility.yul\":13265:13382   */\n      pop\n        /* \"#utility.yul\":13060:13389   */\n      swap3\n      swap2\n      pop\n      pop\n      jump\t// out\n        /* \"#utility.yul\":13395:13529   */\n    tag_427:\n        /* \"#utility.yul\":13482:13488   */\n      0x00\n        /* \"#utility.yul\":13516:13521   */\n      dup2\n        /* \"#utility.yul\":13510:13522   */\n      mload\n        /* \"#utility.yul\":13500:13522   */\n      swap1\n      pop\n        /* \"#utility.yul\":13395:13529   */\n      swap2\n      swap1\n      pop\n      jump\t// out\n        /* \"#utility.yul\":13535:13739   */\n    tag_428:\n        /* \"#utility.yul\":13654:13665   */\n      0x00\n        /* \"#utility.yul\":13688:13694   */\n      dup3\n        /* \"#utility.yul\":13683:13686   */\n      dup3\n        /* \"#utility.yul\":13676:13695   */\n      mstore\n        /* \"#utility.yul\":13728:13732   */\n      0x20\n        /* \"#utility.yul\":13723:13726   */\n      dup3\n        /* \"#utility.yul\":13719:13733   */\n      add\n        /* \"#utility.yul\":13704:13733   */\n      swap1\n      pop\n        /* \"#utility.yul\":13535:13739   */\n      swap3\n      swap2\n      pop\n      pop\n      jump\t// out\n        /* \"#utility.yul\":13745:13897   */\n    tag_429:\n        /* \"#utility.yul\":13832:13836   */\n      0x00\n        /* \"#utility.yul\":13855:13858   */\n      dup2\n        /* \"#utility.yul\":13847:13858   */\n      swap1\n      pop\n        /* \"#utility.yul\":13885:13889   */\n      0x20\n        /* \"#utility.yul\":13880:13883   */\n      dup3\n        /* \"#utility.yul\":13876:13890   */\n      add\n        /* \"#utility.yul\":13868:13890   */\n      swap1\n      pop\n        /* \"#utility.yul\":13745:13897   */\n      swap2\n      swap1\n      pop\n      jump\t// out\n        /* \"#utility.yul\":13903:14083   */\n    tag_176:\n        /* \"#utility.yul\":13951:14028   */\n      0x4e487b7100000000000000000000000000000000000000000000000000000000\n        /* \"#utility.yul\":13948:13949   */\n      0x00\n        /* \"#utility.yul\":13941:14029   */\n      mstore\n        /* \"#utility.yul\":14048:14052   */\n      0x21\n        /* \"#utility.yul\":14045:14046   */\n      0x04\n        /* \"#utility.yul\":14038:14053   */\n      mstore\n        /* \"#utility.yul\":14072:14076   */\n      0x24\n        /* \"#utility.yul\":14069:14070   */\n      0x00\n        /* \"#utility.yul\":14062:14077   */\n      revert\n        /* \"#utility.yul\":14089:14206   */\n    tag_430:\n        /* \"#utility.yul\":14174:14175   */\n      0x04\n        /* \"#utility.yul\":14167:14172   */\n      dup2\n        /* \"#utility.yul\":14164:14176   */\n      lt\n        /* \"#utility.yul\":14154:14200   */\n      tag_623\n      jumpi\n        /* \"#utility.yul\":14180:14198   */\n      tag_624\n      tag_176\n      jump\t// in\n    tag_624:\n        /* \"#utility.yul\":14154:14200   */\n    tag_623:\n        /* \"#utility.yul\":14089:14206   */\n      pop\n      jump\t// out\n        /* \"#utility.yul\":14212:14347   */\n    tag_431:\n        /* \"#utility.yul\":14261:14268   */\n      0x00\n        /* \"#utility.yul\":14290:14295   */\n      dup2\n        /* \"#utility.yul\":14279:14295   */\n      swap1\n      pop\n        /* \"#utility.yul\":14296:14341   */\n      tag_626\n        /* \"#utility.yul\":14335:14340   */\n      dup3\n        /* \"#utility.yul\":14296:14341   */\n      tag_430\n      jump\t// in\n    tag_626:\n        /* \"#utility.yul\":14212:14347   */\n      swap2\n      swap1\n      pop\n      jump\t// out\n        /* \"#utility.yul\":14353:14488   */\n    tag_432:\n        /* \"#utility.yul\":14413:14422   */\n      0x00\n        /* \"#utility.yul\":14446:14482   */\n      tag_628\n        /* \"#utility.yul\":14476:14481   */\n      dup3\n        /* \"#utility.yul\":14446:14482   */\n      tag_431\n      jump\t// in\n    tag_628:\n        /* \"#utility.yul\":14433:14482   */\n      swap1\n      pop\n        /* \"#utility.yul\":14353:14488   */\n      swap2\n      swap1\n      pop\n      jump\t// out\n        /* \"#utility.yul\":14494:14635   */\n    tag_433:\n        /* \"#utility.yul\":14581:14628   */\n      tag_630\n        /* \"#utility.yul\":14622:14627   */\n      dup2\n        /* \"#utility.yul\":14581:14628   */\n      tag_432\n      jump\t// in\n    tag_630:\n        /* \"#utility.yul\":14576:14579   */\n      dup3\n        /* \"#utility.yul\":14569:14629   */\n      mstore\n        /* \"#utility.yul\":14494:14635   */\n      pop\n      pop\n      jump\t// out\n        /* \"#utility.yul\":14701:16481   */\n    tag_434:\n        /* \"#utility.yul\":14828:14834   */\n      0x0120\n        /* \"#utility.yul\":14823:14826   */\n      dup3\n        /* \"#utility.yul\":14819:14835   */\n      add\n        /* \"#utility.yul\":14921:14925   */\n      0x00\n        /* \"#utility.yul\":14914:14919   */\n      dup3\n        /* \"#utility.yul\":14910:14926   */\n      add\n        /* \"#utility.yul\":14904:14927   */\n      mload\n        /* \"#utility.yul\":14940:15003   */\n      tag_632\n        /* \"#utility.yul\":14997:15001   */\n      0x00\n        /* \"#utility.yul\":14992:14995   */\n      dup6\n        /* \"#utility.yul\":14988:15002   */\n      add\n        /* \"#utility.yul\":14974:14986   */\n      dup3\n        /* \"#utility.yul\":14940:15003   */\n      tag_421\n      jump\t// in\n    tag_632:\n        /* \"#utility.yul\":14845:15013   */\n      pop\n        /* \"#utility.yul\":15104:15108   */\n      0x20\n        /* \"#utility.yul\":15097:15102   */\n      dup3\n        /* \"#utility.yul\":15093:15109   */\n      add\n        /* \"#utility.yul\":15087:15110   */\n      mload\n        /* \"#utility.yul\":15123:15186   */\n      tag_633\n        /* \"#utility.yul\":15180:15184   */\n      0x20\n        /* \"#utility.yul\":15175:15178   */\n      dup6\n        /* \"#utility.yul\":15171:15185   */\n      add\n        /* \"#utility.yul\":15157:15169   */\n      dup3\n        /* \"#utility.yul\":15123:15186   */\n      tag_421\n      jump\t// in\n    tag_633:\n        /* \"#utility.yul\":15023:15196   */\n      pop\n        /* \"#utility.yul\":15285:15289   */\n      0x40\n        /* \"#utility.yul\":15278:15283   */\n      dup3\n        /* \"#utility.yul\":15274:15290   */\n      add\n        /* \"#utility.yul\":15268:15291   */\n      mload\n        /* \"#utility.yul\":15304:15367   */\n      tag_634\n        /* \"#utility.yul\":15361:15365   */\n      0x40\n        /* \"#utility.yul\":15356:15359   */\n      dup6\n        /* \"#utility.yul\":15352:15366   */\n      add\n        /* \"#utility.yul\":15338:15350   */\n      dup3\n        /* \"#utility.yul\":15304:15367   */\n      tag_421\n      jump\t// in\n    tag_634:\n        /* \"#utility.yul\":15206:15377   */\n      pop\n        /* \"#utility.yul\":15460:15464   */\n      0x60\n        /* \"#utility.yul\":15453:15458   */\n      dup3\n        /* \"#utility.yul\":15449:15465   */\n      add\n        /* \"#utility.yul\":15443:15466   */\n      mload\n        /* \"#utility.yul\":15479:15552   */\n      tag_635\n        /* \"#utility.yul\":15546:15550   */\n      0x60\n        /* \"#utility.yul\":15541:15544   */\n      dup6\n        /* \"#utility.yul\":15537:15551   */\n      add\n        /* \"#utility.yul\":15523:15535   */\n      dup3\n        /* \"#utility.yul\":15479:15552   */\n      tag_433\n      jump\t// in\n    tag_635:\n        /* \"#utility.yul\":15387:15562   */\n      pop\n        /* \"#utility.yul\":15652:15656   */\n      0x80\n        /* \"#utility.yul\":15645:15650   */\n      dup3\n        /* \"#utility.yul\":15641:15657   */\n      add\n        /* \"#utility.yul\":15635:15658   */\n      mload\n        /* \"#utility.yul\":15671:15734   */\n      tag_636\n        /* \"#utility.yul\":15728:15732   */\n      0x80\n        /* \"#utility.yul\":15723:15726   */\n      dup6\n        /* \"#utility.yul\":15719:15733   */\n      add\n        /* \"#utility.yul\":15705:15717   */\n      dup3\n        /* \"#utility.yul\":15671:15734   */\n      tag_421\n      jump\t// in\n    tag_636:\n        /* \"#utility.yul\":15572:15744   */\n      pop\n        /* \"#utility.yul\":15832:15836   */\n      0xa0\n        /* \"#utility.yul\":15825:15830   */\n      dup3\n        /* \"#utility.yul\":15821:15837   */\n      add\n        /* \"#utility.yul\":15815:15838   */\n      mload\n        /* \"#utility.yul\":15851:15914   */\n      tag_637\n        /* \"#utility.yul\":15908:15912   */\n      0xa0\n        /* \"#utility.yul\":15903:15906   */\n      dup6\n        /* \"#utility.yul\":15899:15913   */\n      add\n        /* \"#utility.yul\":15885:15897   */\n      dup3\n        /* \"#utility.yul\":15851:15914   */\n      tag_421\n      jump\t// in\n    tag_637:\n        /* \"#utility.yul\":15754:15924   */\n      pop\n        /* \"#utility.yul\":16012:16016   */\n      0xc0\n        /* \"#utility.yul\":16005:16010   */\n      dup3\n        /* \"#utility.yul\":16001:16017   */\n      add\n        /* \"#utility.yul\":15995:16018   */\n      mload\n        /* \"#utility.yul\":16031:16094   */\n      tag_638\n        /* \"#utility.yul\":16088:16092   */\n      0xc0\n        /* \"#utility.yul\":16083:16086   */\n      dup6\n        /* \"#utility.yul\":16079:16093   */\n      add\n        /* \"#utility.yul\":16065:16077   */\n      dup3\n        /* \"#utility.yul\":16031:16094   */\n      tag_421\n      jump\t// in\n    tag_638:\n        /* \"#utility.yul\":15934:16104   */\n      pop\n        /* \"#utility.yul\":16194:16198   */\n      0xe0\n        /* \"#utility.yul\":16187:16192   */\n      dup3\n        /* \"#utility.yul\":16183:16199   */\n      add\n        /* \"#utility.yul\":16177:16200   */\n      mload\n        /* \"#utility.yul\":16213:16276   */\n      tag_639\n        /* \"#utility.yul\":16270:16274   */\n      0xe0\n        /* \"#utility.yul\":16265:16268   */\n      dup6\n        /* \"#utility.yul\":16261:16275   */\n      add\n        /* \"#utility.yul\":16247:16259   */\n      dup3\n        /* \"#utility.yul\":16213:16276   */\n      tag_421\n      jump\t// in\n    tag_639:\n        /* \"#utility.yul\":16114:16286   */\n      pop\n        /* \"#utility.yul\":16378:16384   */\n      0x0100\n        /* \"#utility.yul\":16371:16376   */\n      dup3\n        /* \"#utility.yul\":16367:16385   */\n      add\n        /* \"#utility.yul\":16361:16386   */\n      mload\n        /* \"#utility.yul\":16399:16464   */\n      tag_640\n        /* \"#utility.yul\":16456:16462   */\n      0x0100\n        /* \"#utility.yul\":16451:16454   */\n      dup6\n        /* \"#utility.yul\":16447:16463   */\n      add\n        /* \"#utility.yul\":16433:16445   */\n      dup3\n        /* \"#utility.yul\":16399:16464   */\n      tag_421\n      jump\t// in\n    tag_640:\n        /* \"#utility.yul\":16296:16474   */\n      pop\n        /* \"#utility.yul\":14797:16481   */\n      pop\n        /* \"#utility.yul\":14701:16481   */\n      pop\n      pop\n      jump\t// out\n        /* \"#utility.yul\":16487:16748   */\n    tag_435:\n        /* \"#utility.yul\":16596:16606   */\n      0x00\n        /* \"#utility.yul\":16617:16703   */\n      tag_642\n        /* \"#utility.yul\":16699:16702   */\n      dup4\n        /* \"#utility.yul\":16691:16697   */\n      dup4\n        /* \"#utility.yul\":16617:16703   */\n      tag_434\n      jump\t// in\n    tag_642:\n        /* \"#utility.yul\":16735:16741   */\n      0x0120\n        /* \"#utility.yul\":16730:16733   */\n      dup4\n        /* \"#utility.yul\":16726:16742   */\n      add\n        /* \"#utility.yul\":16712:16742   */\n      swap1\n      pop\n        /* \"#utility.yul\":16487:16748   */\n      swap3\n      swap2\n      pop\n      pop\n      jump\t// out\n        /* \"#utility.yul\":16754:16887   */\n    tag_436:\n        /* \"#utility.yul\":16844:16848   */\n      0x00\n        /* \"#utility.yul\":16876:16880   */\n      0x20\n        /* \"#utility.yul\":16871:16874   */\n      dup3\n        /* \"#utility.yul\":16867:16881   */\n      add\n        /* \"#utility.yul\":16859:16881   */\n      swap1\n      pop\n        /* \"#utility.yul\":16754:16887   */\n      swap2\n      swap1\n      pop\n      jump\t// out\n        /* \"#utility.yul\":16957:17849   */\n    tag_437:\n        /* \"#utility.yul\":17116:17119   */\n      0x00\n        /* \"#utility.yul\":17145:17219   */\n      tag_645\n        /* \"#utility.yul\":17213:17218   */\n      dup3\n        /* \"#utility.yul\":17145:17219   */\n      tag_427\n      jump\t// in\n    tag_645:\n        /* \"#utility.yul\":17235:17341   */\n      tag_646\n        /* \"#utility.yul\":17334:17340   */\n      dup2\n        /* \"#utility.yul\":17329:17332   */\n      dup6\n        /* \"#utility.yul\":17235:17341   */\n      tag_428\n      jump\t// in\n    tag_646:\n        /* \"#utility.yul\":17228:17341   */\n      swap4\n      pop\n        /* \"#utility.yul\":17365:17441   */\n      tag_647\n        /* \"#utility.yul\":17435:17440   */\n      dup4\n        /* \"#utility.yul\":17365:17441   */\n      tag_429\n      jump\t// in\n    tag_647:\n        /* \"#utility.yul\":17464:17471   */\n      dup1\n        /* \"#utility.yul\":17495:17496   */\n      0x00\n        /* \"#utility.yul\":17480:17824   */\n    tag_648:\n        /* \"#utility.yul\":17505:17511   */\n      dup4\n        /* \"#utility.yul\":17502:17503   */\n      dup2\n        /* \"#utility.yul\":17499:17512   */\n      lt\n        /* \"#utility.yul\":17480:17824   */\n      iszero\n      tag_650\n      jumpi\n        /* \"#utility.yul\":17581:17587   */\n      dup2\n        /* \"#utility.yul\":17575:17588   */\n      mload\n        /* \"#utility.yul\":17608:17711   */\n      tag_651\n        /* \"#utility.yul\":17707:17710   */\n      dup9\n        /* \"#utility.yul\":17692:17705   */\n      dup3\n        /* \"#utility.yul\":17608:17711   */\n      tag_435\n      jump\t// in\n    tag_651:\n        /* \"#utility.yul\":17601:17711   */\n      swap8\n      pop\n        /* \"#utility.yul\":17734:17814   */\n      tag_652\n        /* \"#utility.yul\":17807:17813   */\n      dup4\n        /* \"#utility.yul\":17734:17814   */\n      tag_436\n      jump\t// in\n    tag_652:\n        /* \"#utility.yul\":17724:17814   */\n      swap3\n      pop\n        /* \"#utility.yul\":17540:17824   */\n      pop\n        /* \"#utility.yul\":17527:17528   */\n      0x01\n        /* \"#utility.yul\":17524:17525   */\n      dup2\n        /* \"#utility.yul\":17520:17529   */\n      add\n        /* \"#utility.yul\":17515:17529   */\n      swap1\n      pop\n        /* \"#utility.yul\":17480:17824   */\n      jump(tag_648)\n    tag_650:\n        /* \"#utility.yul\":17484:17498   */\n      pop\n        /* \"#utility.yul\":17840:17843   */\n      dup6\n        /* \"#utility.yul\":17833:17843   */\n      swap4\n      pop\n        /* \"#utility.yul\":17121:17849   */\n      pop\n      pop\n      pop\n        /* \"#utility.yul\":16957:17849   */\n      swap3\n      swap2\n      pop\n      pop\n      jump\t// out\n        /* \"#utility.yul\":17855:18308   */\n    tag_117:\n        /* \"#utility.yul\":18038:18042   */\n      0x00\n        /* \"#utility.yul\":18076:18078   */\n      0x20\n        /* \"#utility.yul\":18065:18074   */\n      dup3\n        /* \"#utility.yul\":18061:18079   */\n      add\n        /* \"#utility.yul\":18053:18079   */\n      swap1\n      pop\n        /* \"#utility.yul\":18125:18134   */\n      dup2\n        /* \"#utility.yul\":18119:18123   */\n      dup2\n        /* \"#utility.yul\":18115:18135   */\n      sub\n        /* \"#utility.yul\":18111:18112   */\n      0x00\n        /* \"#utility.yul\":18100:18109   */\n      dup4\n        /* \"#utility.yul\":18096:18113   */\n      add\n        /* \"#utility.yul\":18089:18136   */\n      mstore\n        /* \"#utility.yul\":18153:18301   */\n      tag_654\n        /* \"#utility.yul\":18296:18300   */\n      dup2\n        /* \"#utility.yul\":18287:18293   */\n      dup5\n        /* \"#utility.yul\":18153:18301   */\n      tag_437\n      jump\t// in\n    tag_654:\n        /* \"#utility.yul\":18145:18301   */\n      swap1\n      pop\n        /* \"#utility.yul\":17855:18308   */\n      swap3\n      swap2\n      pop\n      pop\n      jump\t// out\n        /* \"#utility.yul\":18314:18465   */\n    tag_438:\n        /* \"#utility.yul\":18411:18458   */\n      tag_656\n        /* \"#utility.yul\":18452:18457   */\n      dup2\n        /* \"#utility.yul\":18411:18458   */\n      tag_432\n      jump\t// in\n    tag_656:\n        /* \"#utility.yul\":18406:18409   */\n      dup3\n        /* \"#utility.yul\":18399:18459   */\n      mstore\n        /* \"#utility.yul\":18314:18465   */\n      pop\n      pop\n      jump\t// out\n        /* \"#utility.yul\":18471:18713   */\n    tag_148:\n        /* \"#utility.yul\":18574:18578   */\n      0x00\n        /* \"#utility.yul\":18612:18614   */\n      0x20\n        /* \"#utility.yul\":18601:18610   */\n      dup3\n        /* \"#utility.yul\":18597:18615   */\n      add\n        /* \"#utility.yul\":18589:18615   */\n      swap1\n      pop\n        /* \"#utility.yul\":18625:18706   */\n      tag_658\n        /* \"#utility.yul\":18703:18704   */\n      0x00\n        /* \"#utility.yul\":18692:18701   */\n      dup4\n        /* \"#utility.yul\":18688:18705   */\n      add\n        /* \"#utility.yul\":18679:18685   */\n      dup5\n        /* \"#utility.yul\":18625:18706   */\n      tag_438\n      jump\t// in\n    tag_658:\n        /* \"#utility.yul\":18471:18713   */\n      swap3\n      swap2\n      pop\n      pop\n      jump\t// out\n        /* \"#utility.yul\":18719:18943   */\n    tag_439:\n        /* \"#utility.yul\":18859:18893   */\n      0x4f6e6c7920746865206f776e65722063616e2063616c6c20746869732066756e\n        /* \"#utility.yul\":18855:18856   */\n      0x00\n        /* \"#utility.yul\":18847:18853   */\n      dup3\n        /* \"#utility.yul\":18843:18857   */\n      add\n        /* \"#utility.yul\":18836:18894   */\n      mstore\n        /* \"#utility.yul\":18928:18935   */\n      0x6374696f6e000000000000000000000000000000000000000000000000000000\n        /* \"#utility.yul\":18923:18925   */\n      0x20\n        /* \"#utility.yul\":18915:18921   */\n      dup3\n        /* \"#utility.yul\":18911:18926   */\n      add\n        /* \"#utility.yul\":18904:18936   */\n      mstore\n        /* \"#utility.yul\":18719:18943   */\n      pop\n      jump\t// out\n        /* \"#utility.yul\":18949:19315   */\n    tag_440:\n        /* \"#utility.yul\":19091:19094   */\n      0x00\n        /* \"#utility.yul\":19112:19179   */\n      tag_661\n        /* \"#utility.yul\":19176:19178   */\n      0x25\n        /* \"#utility.yul\":19171:19174   */\n      dup4\n        /* \"#utility.yul\":19112:19179   */\n      tag_408\n      jump\t// in\n    tag_661:\n        /* \"#utility.yul\":19105:19179   */\n      swap2\n      pop\n        /* \"#utility.yul\":19188:19281   */\n      tag_662\n        /* \"#utility.yul\":19277:19280   */\n      dup3\n        /* \"#utility.yul\":19188:19281   */\n      tag_439\n      jump\t// in\n    tag_662:\n        /* \"#utility.yul\":19306:19308   */\n      0x40\n        /* \"#utility.yul\":19301:19304   */\n      dup3\n        /* \"#utility.yul\":19297:19309   */\n      add\n        /* \"#utility.yul\":19290:19309   */\n      swap1\n      pop\n        /* \"#utility.yul\":18949:19315   */\n      swap2\n      swap1\n      pop\n      jump\t// out\n        /* \"#utility.yul\":19321:19740   */\n    tag_152:\n        /* \"#utility.yul\":19487:19491   */\n      0x00\n        /* \"#utility.yul\":19525:19527   */\n      0x20\n        /* \"#utility.yul\":19514:19523   */\n      dup3\n        /* \"#utility.yul\":19510:19528   */\n      add\n        /* \"#utility.yul\":19502:19528   */\n      swap1\n      pop\n        /* \"#utility.yul\":19574:19583   */\n      dup2\n        /* \"#utility.yul\":19568:19572   */\n      dup2\n        /* \"#utility.yul\":19564:19584   */\n      sub\n        /* \"#utility.yul\":19560:19561   */\n      0x00\n        /* \"#utility.yul\":19549:19558   */\n      dup4\n        /* \"#utility.yul\":19545:19562   */\n      add\n        /* \"#utility.yul\":19538:19585   */\n      mstore\n        /* \"#utility.yul\":19602:19733   */\n      tag_664\n        /* \"#utility.yul\":19728:19732   */\n      dup2\n        /* \"#utility.yul\":19602:19733   */\n      tag_440\n      jump\t// in\n    tag_664:\n        /* \"#utility.yul\":19594:19733   */\n      swap1\n      pop\n        /* \"#utility.yul\":19321:19740   */\n      swap2\n      swap1\n      pop\n      jump\t// out\n        /* \"#utility.yul\":19746:19926   */\n    tag_156:\n        /* \"#utility.yul\":19794:19871   */\n      0x4e487b7100000000000000000000000000000000000000000000000000000000\n        /* \"#utility.yul\":19791:19792   */\n      0x00\n        /* \"#utility.yul\":19784:19872   */\n      mstore\n        /* \"#utility.yul\":19891:19895   */\n      0x32\n        /* \"#utility.yul\":19888:19889   */\n      0x04\n        /* \"#utility.yul\":19881:19896   */\n      mstore\n        /* \"#utility.yul\":19915:19919   */\n      0x24\n        /* \"#utility.yul\":19912:19913   */\n      0x00\n        /* \"#utility.yul\":19905:19920   */\n      revert\n        /* \"#utility.yul\":19932:20112   */\n    tag_441:\n        /* \"#utility.yul\":19980:20057   */\n      0x4e487b7100000000000000000000000000000000000000000000000000000000\n        /* \"#utility.yul\":19977:19978   */\n      0x00\n        /* \"#utility.yul\":19970:20058   */\n      mstore\n        /* \"#utility.yul\":20077:20081   */\n      0x22\n        /* \"#utility.yul\":20074:20075   */\n      0x04\n        /* \"#utility.yul\":20067:20082   */\n      mstore\n        /* \"#utility.yul\":20101:20105   */\n      0x24\n        /* \"#utility.yul\":20098:20099   */\n      0x00\n        /* \"#utility.yul\":20091:20106   */\n      revert\n        /* \"#utility.yul\":20118:20438   */\n    tag_270:\n        /* \"#utility.yul\":20162:20168   */\n      0x00\n        /* \"#utility.yul\":20199:20200   */\n      0x02\n        /* \"#utility.yul\":20193:20197   */\n      dup3\n        /* \"#utility.yul\":20189:20201   */\n      div\n        /* \"#utility.yul\":20179:20201   */\n      swap1\n      pop\n        /* \"#utility.yul\":20246:20247   */\n      0x01\n        /* \"#utility.yul\":20240:20244   */\n      dup3\n        /* \"#utility.yul\":20236:20248   */\n      and\n        /* \"#utility.yul\":20267:20285   */\n      dup1\n        /* \"#utility.yul\":20257:20338   */\n      tag_668\n      jumpi\n        /* \"#utility.yul\":20323:20327   */\n      0x7f\n        /* \"#utility.yul\":20315:20321   */\n      dup3\n        /* \"#utility.yul\":20311:20328   */\n      and\n        /* \"#utility.yul\":20301:20328   */\n      swap2\n      pop\n        /* \"#utility.yul\":20257:20338   */\n    tag_668:\n        /* \"#utility.yul\":20385:20387   */\n      0x20\n        /* \"#utility.yul\":20377:20383   */\n      dup3\n        /* \"#utility.yul\":20374:20388   */\n      lt\n        /* \"#utility.yul\":20354:20372   */\n      dup2\n        /* \"#utility.yul\":20351:20389   */\n      sub\n        /* \"#utility.yul\":20348:20432   */\n      tag_669\n      jumpi\n        /* \"#utility.yul\":20404:20422   */\n      tag_670\n      tag_441\n      jump\t// in\n    tag_670:\n        /* \"#utility.yul\":20348:20432   */\n    tag_669:\n        /* \"#utility.yul\":20169:20438   */\n      pop\n        /* \"#utility.yul\":20118:20438   */\n      swap2\n      swap1\n      pop\n      jump\t// out\n        /* \"#utility.yul\":20444:20585   */\n    tag_442:\n        /* \"#utility.yul\":20493:20497   */\n      0x00\n        /* \"#utility.yul\":20516:20519   */\n      dup2\n        /* \"#utility.yul\":20508:20519   */\n      swap1\n      pop\n        /* \"#utility.yul\":20539:20542   */\n      dup2\n        /* \"#utility.yul\":20536:20537   */\n      0x00\n        /* \"#utility.yul\":20529:20543   */\n      mstore\n        /* \"#utility.yul\":20573:20577   */\n      0x20\n        /* \"#utility.yul\":20570:20571   */\n      0x00\n        /* \"#utility.yul\":20560:20578   */\n      keccak256\n        /* \"#utility.yul\":20552:20578   */\n      swap1\n      pop\n        /* \"#utility.yul\":20444:20585   */\n      swap2\n      swap1\n      pop\n      jump\t// out\n        /* \"#utility.yul\":20591:20684   */\n    tag_443:\n        /* \"#utility.yul\":20628:20634   */\n      0x00\n        /* \"#utility.yul\":20675:20677   */\n      0x20\n        /* \"#utility.yul\":20670:20672   */\n      0x1f\n        /* \"#utility.yul\":20663:20668   */\n      dup4\n        /* \"#utility.yul\":20659:20673   */\n      add\n        /* \"#utility.yul\":20655:20678   */\n      div\n        /* \"#utility.yul\":20645:20678   */\n      swap1\n      pop\n        /* \"#utility.yul\":20591:20684   */\n      swap2\n      swap1\n      pop\n      jump\t// out\n        /* \"#utility.yul\":20690:20797   */\n    tag_444:\n        /* \"#utility.yul\":20734:20742   */\n      0x00\n        /* \"#utility.yul\":20784:20789   */\n      dup3\n        /* \"#utility.yul\":20778:20782   */\n      dup3\n        /* \"#utility.yul\":20774:20790   */\n      shl\n        /* \"#utility.yul\":20753:20790   */\n      swap1\n      pop\n        /* \"#utility.yul\":20690:20797   */\n      swap3\n      swap2\n      pop\n      pop\n      jump\t// out\n        /* \"#utility.yul\":20803:21196   */\n    tag_445:\n        /* \"#utility.yul\":20872:20878   */\n      0x00\n        /* \"#utility.yul\":20922:20923   */\n      0x08\n        /* \"#utility.yul\":20910:20920   */\n      dup4\n        /* \"#utility.yul\":20906:20924   */\n      mul\n        /* \"#utility.yul\":20945:21042   */\n      tag_675\n        /* \"#utility.yul\":20975:21041   */\n      0xffffffffffffffffffffffffffffffffffffffffffffffffffffffffffffffff\n        /* \"#utility.yul\":20964:20973   */\n      dup3\n        /* \"#utility.yul\":20945:21042   */\n      tag_444\n      jump\t// in\n    tag_675:\n        /* \"#utility.yul\":21063:21102   */\n      tag_676\n        /* \"#utility.yul\":21093:21101   */\n      dup7\n        /* \"#utility.yul\":21082:21091   */\n      dup4\n        /* \"#utility.yul\":21063:21102   */\n      tag_444\n      jump\t// in\n    tag_676:\n        /* \"#utility.yul\":21051:21102   */\n      swap6\n      pop\n        /* \"#utility.yul\":21135:21139   */\n      dup1\n        /* \"#utility.yul\":21131:21140   */\n      not\n        /* \"#utility.yul\":21124:21129   */\n      dup5\n        /* \"#utility.yul\":21120:21141   */\n      and\n        /* \"#utility.yul\":21111:21141   */\n      swap4\n      pop\n        /* \"#utility.yul\":21184:21188   */\n      dup1\n        /* \"#utility.yul\":21174:21182   */\n      dup7\n        /* \"#utility.yul\":21170:21189   */\n      and\n        /* \"#utility.yul\":21163:21168   */\n      dup5\n        /* \"#utility.yul\":21160:21190   */\n      or\n        /* \"#utility.yul\":21150:21190   */\n      swap3\n      pop\n        /* \"#utility.yul\":20879:21196   */\n      pop\n      pop\n        /* \"#utility.yul\":20803:21196   */\n      swap4\n      swap3\n      pop\n      pop\n      pop\n      jump\t// out\n        /* \"#utility.yul\":21202:21262   */\n    tag_446:\n        /* \"#utility.yul\":21230:21233   */\n      0x00\n        /* \"#utility.yul\":21251:21256   */\n      dup2\n        /* \"#utility.yul\":21244:21256   */\n      swap1\n      pop\n        /* \"#utility.yul\":21202:21262   */\n      swap2\n      swap1\n      pop\n      jump\t// out\n        /* \"#utility.yul\":21268:21410   */\n    tag_447:\n        /* \"#utility.yul\":21318:21327   */\n      0x00\n        /* \"#utility.yul\":21351:21404   */\n      tag_679\n        /* \"#utility.yul\":21369:21403   */\n      tag_680\n        /* \"#utility.yul\":21378:21402   */\n      tag_681\n        /* \"#utility.yul\":21396:21401   */\n      dup5\n        /* \"#utility.yul\":21378:21402   */\n      tag_387\n      jump\t// in\n    tag_681:\n        /* \"#utility.yul\":21369:21403   */\n      tag_446\n      jump\t// in\n    tag_680:\n        /* \"#utility.yul\":21351:21404   */\n      tag_387\n      jump\t// in\n    tag_679:\n        /* \"#utility.yul\":21338:21404   */\n      swap1\n      pop\n        /* \"#utility.yul\":21268:21410   */\n      swap2\n      swap1\n      pop\n      jump\t// out\n        /* \"#utility.yul\":21416:21491   */\n    tag_448:\n        /* \"#utility.yul\":21459:21462   */\n      0x00\n        /* \"#utility.yul\":21480:21485   */\n      dup2\n        /* \"#utility.yul\":21473:21485   */\n      swap1\n      pop\n        /* \"#utility.yul\":21416:21491   */\n      swap2\n      swap1\n      pop\n      jump\t// out\n        /* \"#utility.yul\":21497:21766   */\n    tag_449:\n        /* \"#utility.yul\":21607:21646   */\n      tag_684\n        /* \"#utility.yul\":21638:21645   */\n      dup4\n        /* \"#utility.yul\":21607:21646   */\n      tag_447\n      jump\t// in\n    tag_684:\n        /* \"#utility.yul\":21668:21759   */\n      tag_685\n        /* \"#utility.yul\":21717:21758   */\n      tag_686\n        /* \"#utility.yul\":21741:21757   */\n      dup3\n        /* \"#utility.yul\":21717:21758   */\n      tag_448\n      jump\t// in\n    tag_686:\n        /* \"#utility.yul\":21709:21715   */\n      dup5\n        /* \"#utility.yul\":21702:21706   */\n      dup5\n        /* \"#utility.yul\":21696:21707   */\n      sload\n        /* \"#utility.yul\":21668:21759   */\n      tag_445\n      jump\t// in\n    tag_685:\n        /* \"#utility.yul\":21662:21666   */\n      dup3\n        /* \"#utility.yul\":21655:21760   */\n      sstore\n        /* \"#utility.yul\":21573:21766   */\n      pop\n        /* \"#utility.yul\":21497:21766   */\n      pop\n      pop\n      pop\n      jump\t// out\n        /* \"#utility.yul\":21772:21845   */\n    tag_450:\n        /* \"#utility.yul\":21817:21820   */\n      0x00\n        /* \"#utility.yul\":21772:21845   */\n      swap1\n      jump\t// out\n        /* \"#utility.yul\":21851:22040   */\n    tag_451:\n        /* \"#utility.yul\":21928:21960   */\n      tag_689\n      tag_450\n      jump\t// in\n    tag_689:\n        /* \"#utility.yul\":21969:22034   */\n      tag_690\n        /* \"#utility.yul\":22027:22033   */\n      dup2\n        /* \"#utility.yul\":22019:22025   */\n      dup5\n        /* \"#utility.yul\":22013:22017   */\n      dup5\n        /* \"#utility.yul\":21969:22034   */\n      tag_449\n      jump\t// in\n    tag_690:\n        /* \"#utility.yul\":21904:22040   */\n      pop\n        /* \"#utility.yul\":21851:22040   */\n      pop\n      pop\n      jump\t// out\n        /* \"#utility.yul\":22046:22232   */\n    tag_452:\n        /* \"#utility.yul\":22106:22226   */\n    tag_692:\n        /* \"#utility.yul\":22123:22126   */\n      dup2\n        /* \"#utility.yul\":22116:22121   */\n      dup2\n        /* \"#utility.yul\":22113:22127   */\n      lt\n        /* \"#utility.yul\":22106:22226   */\n      iszero\n      tag_694\n      jumpi\n        /* \"#utility.yul\":22177:22216   */\n      tag_695\n        /* \"#utility.yul\":22214:22215   */\n      0x00\n        /* \"#utility.yul\":22207:22212   */\n      dup3\n        /* \"#utility.yul\":22177:22216   */\n      tag_451\n      jump\t// in\n    tag_695:\n        /* \"#utility.yul\":22150:22151   */\n      0x01\n        /* \"#utility.yul\":22143:22148   */\n      dup2\n        /* \"#utility.yul\":22139:22152   */\n      add\n        /* \"#utility.yul\":22130:22152   */\n      swap1\n      pop\n        /* \"#utility.yul\":22106:22226   */\n      jump(tag_692)\n    tag_694:\n        /* \"#utility.yul\":22046:22232   */\n      pop\n      pop\n      jump\t// out\n        /* \"#utility.yul\":22238:22781   */\n    tag_453:\n        /* \"#utility.yul\":22339:22341   */\n      0x1f\n        /* \"#utility.yul\":22334:22337   */\n      dup3\n        /* \"#utility.yul\":22331:22342   */\n      gt\n        /* \"#utility.yul\":22328:22774   */\n      iszero\n      tag_697\n      jumpi\n        /* \"#utility.yul\":22373:22411   */\n      tag_698\n        /* \"#utility.yul\":22405:22410   */\n      dup2\n        /* \"#utility.yul\":22373:22411   */\n      tag_442\n      jump\t// in\n    tag_698:\n        /* \"#utility.yul\":22457:22486   */\n      tag_699\n        /* \"#utility.yul\":22475:22485   */\n      dup5\n        /* \"#utility.yul\":22457:22486   */\n      tag_443\n      jump\t// in\n    tag_699:\n        /* \"#utility.yul\":22447:22455   */\n      dup2\n        /* \"#utility.yul\":22443:22487   */\n      add\n        /* \"#utility.yul\":22640:22642   */\n      0x20\n        /* \"#utility.yul\":22628:22638   */\n      dup6\n        /* \"#utility.yul\":22625:22643   */\n      lt\n        /* \"#utility.yul\":22622:22671   */\n      iszero\n      tag_700\n      jumpi\n        /* \"#utility.yul\":22661:22669   */\n      dup2\n        /* \"#utility.yul\":22646:22669   */\n      swap1\n      pop\n        /* \"#utility.yul\":22622:22671   */\n    tag_700:\n        /* \"#utility.yul\":22684:22764   */\n      tag_701\n        /* \"#utility.yul\":22740:22762   */\n      tag_702\n        /* \"#utility.yul\":22758:22761   */\n      dup6\n        /* \"#utility.yul\":22740:22762   */\n      tag_443\n      jump\t// in\n    tag_702:\n        /* \"#utility.yul\":22730:22738   */\n      dup4\n        /* \"#utility.yul\":22726:22763   */\n      add\n        /* \"#utility.yul\":22713:22724   */\n      dup3\n        /* \"#utility.yul\":22684:22764   */\n      tag_452\n      jump\t// in\n    tag_701:\n        /* \"#utility.yul\":22343:22774   */\n      pop\n      pop\n        /* \"#utility.yul\":22328:22774   */\n    tag_697:\n        /* \"#utility.yul\":22238:22781   */\n      pop\n      pop\n      pop\n      jump\t// out\n        /* \"#utility.yul\":22787:22904   */\n    tag_454:\n        /* \"#utility.yul\":22841:22849   */\n      0x00\n        /* \"#utility.yul\":22891:22896   */\n      dup3\n        /* \"#utility.yul\":22885:22889   */\n      dup3\n        /* \"#utility.yul\":22881:22897   */\n      shr\n        /* \"#utility.yul\":22860:22897   */\n      swap1\n      pop\n        /* \"#utility.yul\":22787:22904   */\n      swap3\n      swap2\n      pop\n      pop\n      jump\t// out\n        /* \"#utility.yul\":22910:23079   */\n    tag_455:\n        /* \"#utility.yul\":22954:22960   */\n      0x00\n        /* \"#utility.yul\":22987:23038   */\n      tag_705\n        /* \"#utility.yul\":23035:23036   */\n      0x00\n        /* \"#utility.yul\":23031:23037   */\n      not\n        /* \"#utility.yul\":23023:23028   */\n      dup5\n        /* \"#utility.yul\":23020:23021   */\n      0x08\n        /* \"#utility.yul\":23016:23029   */\n      mul\n        /* \"#utility.yul\":22987:23038   */\n      tag_454\n      jump\t// in\n    tag_705:\n        /* \"#utility.yul\":22983:23039   */\n      not\n        /* \"#utility.yul\":23068:23072   */\n      dup1\n        /* \"#utility.yul\":23062:23066   */\n      dup4\n        /* \"#utility.yul\":23058:23073   */\n      and\n        /* \"#utility.yul\":23048:23073   */\n      swap2\n      pop\n        /* \"#utility.yul\":22961:23079   */\n      pop\n        /* \"#utility.yul\":22910:23079   */\n      swap3\n      swap2\n      pop\n      pop\n      jump\t// out\n        /* \"#utility.yul\":23084:23379   */\n    tag_456:\n        /* \"#utility.yul\":23160:23164   */\n      0x00\n        /* \"#utility.yul\":23306:23335   */\n      tag_707\n        /* \"#utility.yul\":23331:23334   */\n      dup4\n        /* \"#utility.yul\":23325:23329   */\n      dup4\n        /* \"#utility.yul\":23306:23335   */\n      tag_455\n      jump\t// in\n    tag_707:\n        /* \"#utility.yul\":23298:23335   */\n      swap2\n      pop\n        /* \"#utility.yul\":23368:23371   */\n      dup3\n        /* \"#utility.yul\":23365:23366   */\n      0x02\n        /* \"#utility.yul\":23361:23372   */\n      mul\n        /* \"#utility.yul\":23355:23359   */\n      dup3\n        /* \"#utility.yul\":23352:23373   */\n      or\n        /* \"#utility.yul\":23344:23373   */\n      swap1\n      pop\n        /* \"#utility.yul\":23084:23379   */\n      swap3\n      swap2\n      pop\n      pop\n      jump\t// out\n        /* \"#utility.yul\":23384:24779   */\n    tag_160:\n        /* \"#utility.yul\":23501:23538   */\n      tag_709\n        /* \"#utility.yul\":23534:23537   */\n      dup3\n        /* \"#utility.yul\":23501:23538   */\n      tag_407\n      jump\t// in\n    tag_709:\n        /* \"#utility.yul\":23603:23621   */\n      0xffffffffffffffff\n        /* \"#utility.yul\":23595:23601   */\n      dup2\n        /* \"#utility.yul\":23592:23622   */\n      gt\n        /* \"#utility.yul\":23589:23645   */\n      iszero\n      tag_710\n      jumpi\n        /* \"#utility.yul\":23625:23643   */\n      tag_711\n      tag_397\n      jump\t// in\n    tag_711:\n        /* \"#utility.yul\":23589:23645   */\n    tag_710:\n        /* \"#utility.yul\":23669:23707   */\n      tag_712\n        /* \"#utility.yul\":23701:23705   */\n      dup3\n        /* \"#utility.yul\":23695:23706   */\n      sload\n        /* \"#utility.yul\":23669:23707   */\n      tag_270\n      jump\t// in\n    tag_712:\n        /* \"#utility.yul\":23754:23821   */\n      tag_713\n        /* \"#utility.yul\":23814:23820   */\n      dup3\n        /* \"#utility.yul\":23806:23812   */\n      dup3\n        /* \"#utility.yul\":23800:23804   */\n      dup6\n        /* \"#utility.yul\":23754:23821   */\n      tag_453\n      jump\t// in\n    tag_713:\n        /* \"#utility.yul\":23848:23849   */\n      0x00\n        /* \"#utility.yul\":23872:23876   */\n      0x20\n        /* \"#utility.yul\":23859:23876   */\n      swap1\n      pop\n        /* \"#utility.yul\":23904:23906   */\n      0x1f\n        /* \"#utility.yul\":23896:23902   */\n      dup4\n        /* \"#utility.yul\":23893:23907   */\n      gt\n        /* \"#utility.yul\":23921:23922   */\n      0x01\n        /* \"#utility.yul\":23916:24534   */\n      dup2\n      eq\n      tag_715\n      jumpi\n        /* \"#utility.yul\":24578:24579   */\n      0x00\n        /* \"#utility.yul\":24595:24601   */\n      dup5\n        /* \"#utility.yul\":24592:24669   */\n      iszero\n      tag_716\n      jumpi\n        /* \"#utility.yul\":24644:24653   */\n      dup3\n        /* \"#utility.yul\":24639:24642   */\n      dup8\n        /* \"#utility.yul\":24635:24654   */\n      add\n        /* \"#utility.yul\":24629:24655   */\n      mload\n        /* \"#utility.yul\":24620:24655   */\n      swap1\n      pop\n        /* \"#utility.yul\":24592:24669   */\n    tag_716:\n        /* \"#utility.yul\":24695:24762   */\n      tag_717\n        /* \"#utility.yul\":24755:24761   */\n      dup6\n        /* \"#utility.yul\":24748:24753   */\n      dup3\n        /* \"#utility.yul\":24695:24762   */\n      tag_456\n      jump\t// in\n    tag_717:\n        /* \"#utility.yul\":24689:24693   */\n      dup7\n        /* \"#utility.yul\":24682:24763   */\n      sstore\n        /* \"#utility.yul\":24551:24773   */\n      pop\n        /* \"#utility.yul\":23886:24773   */\n      jump(tag_714)\n        /* \"#utility.yul\":23916:24534   */\n    tag_715:\n        /* \"#utility.yul\":23968:23972   */\n      0x1f\n        /* \"#utility.yul\":23964:23973   */\n      not\n        /* \"#utility.yul\":23956:23962   */\n      dup5\n        /* \"#utility.yul\":23952:23974   */\n      and\n        /* \"#utility.yul\":24002:24039   */\n      tag_718\n        /* \"#utility.yul\":24034:24038   */\n      dup7\n        /* \"#utility.yul\":24002:24039   */\n      tag_442\n      jump\t// in\n    tag_718:\n        /* \"#utility.yul\":24061:24062   */\n      0x00\n        /* \"#utility.yul\":24075:24283   */\n    tag_719:\n        /* \"#utility.yul\":24089:24096   */\n      dup3\n        /* \"#utility.yul\":24086:24087   */\n      dup2\n        /* \"#utility.yul\":24083:24097   */\n      lt\n        /* \"#utility.yul\":24075:24283   */\n      iszero\n      tag_721\n      jumpi\n        /* \"#utility.yul\":24168:24177   */\n      dup5\n        /* \"#utility.yul\":24163:24166   */\n      dup10\n        /* \"#utility.yul\":24159:24178   */\n      add\n        /* \"#utility.yul\":24153:24179   */\n      mload\n        /* \"#utility.yul\":24145:24151   */\n      dup3\n        /* \"#utility.yul\":24138:24180   */\n      sstore\n        /* \"#utility.yul\":24219:24220   */\n      0x01\n        /* \"#utility.yul\":24211:24217   */\n      dup3\n        /* \"#utility.yul\":24207:24221   */\n      add\n        /* \"#utility.yul\":24197:24221   */\n      swap2\n      pop\n        /* \"#utility.yul\":24266:24268   */\n      0x20\n        /* \"#utility.yul\":24255:24264   */\n      dup6\n        /* \"#utility.yul\":24251:24269   */\n      add\n        /* \"#utility.yul\":24238:24269   */\n      swap5\n      pop\n        /* \"#utility.yul\":24112:24116   */\n      0x20\n        /* \"#utility.yul\":24109:24110   */\n      dup2\n        /* \"#utility.yul\":24105:24117   */\n      add\n        /* \"#utility.yul\":24100:24117   */\n      swap1\n      pop\n        /* \"#utility.yul\":24075:24283   */\n      jump(tag_719)\n    tag_721:\n        /* \"#utility.yul\":24311:24317   */\n      dup7\n        /* \"#utility.yul\":24302:24309   */\n      dup4\n        /* \"#utility.yul\":24299:24318   */\n      lt\n        /* \"#utility.yul\":24296:24475   */\n      iszero\n      tag_722\n      jumpi\n        /* \"#utility.yul\":24369:24378   */\n      dup5\n        /* \"#utility.yul\":24364:24367   */\n      dup10\n        /* \"#utility.yul\":24360:24379   */\n      add\n        /* \"#utility.yul\":24354:24380   */\n      mload\n        /* \"#utility.yul\":24412:24460   */\n      tag_723\n        /* \"#utility.yul\":24454:24458   */\n      0x1f\n        /* \"#utility.yul\":24446:24452   */\n      dup10\n        /* \"#utility.yul\":24442:24459   */\n      and\n        /* \"#utility.yul\":24431:24440   */\n      dup3\n        /* \"#utility.yul\":24412:24460   */\n      tag_455\n      jump\t// in\n    tag_723:\n        /* \"#utility.yul\":24404:24410   */\n      dup4\n        /* \"#utility.yul\":24397:24461   */\n      sstore\n        /* \"#utility.yul\":24319:24475   */\n      pop\n        /* \"#utility.yul\":24296:24475   */\n    tag_722:\n        /* \"#utility.yul\":24521:24522   */\n      0x01\n        /* \"#utility.yul\":24517:24518   */\n      0x02\n        /* \"#utility.yul\":24509:24515   */\n      dup9\n        /* \"#utility.yul\":24505:24519   */\n      mul\n        /* \"#utility.yul\":24501:24523   */\n      add\n        /* \"#utility.yul\":24495:24499   */\n      dup9\n        /* \"#utility.yul\":24488:24524   */\n      sstore\n        /* \"#utility.yul\":23923:24534   */\n      pop\n      pop\n      pop\n        /* \"#utility.yul\":23886:24773   */\n    tag_714:\n      pop\n        /* \"#utility.yul\":23476:24779   */\n      pop\n      pop\n      pop\n        /* \"#utility.yul\":23384:24779   */\n      pop\n      pop\n      jump\t// out\n        /* \"#utility.yul\":24785:24965   */\n    tag_457:\n        /* \"#utility.yul\":24833:24910   */\n      0x4e487b7100000000000000000000000000000000000000000000000000000000\n        /* \"#utility.yul\":24830:24831   */\n      0x00\n        /* \"#utility.yul\":24823:24911   */\n      mstore\n        /* \"#utility.yul\":24930:24934   */\n      0x11\n        /* \"#utility.yul\":24927:24928   */\n      0x04\n        /* \"#utility.yul\":24920:24935   */\n      mstore\n        /* \"#utility.yul\":24954:24958   */\n      0x24\n        /* \"#utility.yul\":24951:24952   */\n      0x00\n        /* \"#utility.yul\":24944:24959   */\n      revert\n        /* \"#utility.yul\":24971:25165   */\n    tag_163:\n        /* \"#utility.yul\":25011:25015   */\n      0x00\n        /* \"#utility.yul\":25031:25051   */\n      tag_726\n        /* \"#utility.yul\":25049:25050   */\n      dup3\n        /* \"#utility.yul\":25031:25051   */\n      tag_387\n      jump\t// in\n    tag_726:\n        /* \"#utility.yul\":25026:25051   */\n      swap2\n      pop\n        /* \"#utility.yul\":25065:25085   */\n      tag_727\n        /* \"#utility.yul\":25083:25084   */\n      dup4\n        /* \"#utility.yul\":25065:25085   */\n      tag_387\n      jump\t// in\n    tag_727:\n        /* \"#utility.yul\":25060:25085   */\n      swap3\n      pop\n        /* \"#utility.yul\":25109:25110   */\n      dup3\n        /* \"#utility.yul\":25106:25107   */\n      dup3\n        /* \"#utility.yul\":25102:25111   */\n      sub\n        /* \"#utility.yul\":25094:25111   */\n      swap1\n      pop\n        /* \"#utility.yul\":25133:25134   */\n      dup2\n        /* \"#utility.yul\":25127:25131   */\n      dup2\n        /* \"#utility.yul\":25124:25135   */\n      gt\n        /* \"#utility.yul\":25121:25158   */\n      iszero\n      tag_728\n      jumpi\n        /* \"#utility.yul\":25138:25156   */\n      tag_729\n      tag_457\n      jump\t// in\n    tag_729:\n        /* \"#utility.yul\":25121:25158   */\n    tag_728:\n        /* \"#utility.yul\":24971:25165   */\n      swap3\n      swap2\n      pop\n      pop\n      jump\t// out\n        /* \"#utility.yul\":25171:25724   */\n    tag_165:\n        /* \"#utility.yul\":25348:25352   */\n      0x00\n        /* \"#utility.yul\":25386:25389   */\n      0x80\n        /* \"#utility.yul\":25375:25384   */\n      dup3\n        /* \"#utility.yul\":25371:25390   */\n      add\n        /* \"#utility.yul\":25363:25390   */\n      swap1\n      pop\n        /* \"#utility.yul\":25400:25471   */\n      tag_731\n        /* \"#utility.yul\":25468:25469   */\n      0x00\n        /* \"#utility.yul\":25457:25466   */\n      dup4\n        /* \"#utility.yul\":25453:25470   */\n      add\n        /* \"#utility.yul\":25444:25450   */\n      dup8\n        /* \"#utility.yul\":25400:25471   */\n      tag_388\n      jump\t// in\n    tag_731:\n        /* \"#utility.yul\":25481:25553   */\n      tag_732\n        /* \"#utility.yul\":25549:25551   */\n      0x20\n        /* \"#utility.yul\":25538:25547   */\n      dup4\n        /* \"#utility.yul\":25534:25552   */\n      add\n        /* \"#utility.yul\":25525:25531   */\n      dup7\n        /* \"#utility.yul\":25481:25553   */\n      tag_388\n      jump\t// in\n    tag_732:\n        /* \"#utility.yul\":25563:25635   */\n      tag_733\n        /* \"#utility.yul\":25631:25633   */\n      0x40\n        /* \"#utility.yul\":25620:25629   */\n      dup4\n        /* \"#utility.yul\":25616:25634   */\n      add\n        /* \"#utility.yul\":25607:25613   */\n      dup6\n        /* \"#utility.yul\":25563:25635   */\n      tag_388\n      jump\t// in\n    tag_733:\n        /* \"#utility.yul\":25645:25717   */\n      tag_734\n        /* \"#utility.yul\":25713:25715   */\n      0x60\n        /* \"#utility.yul\":25702:25711   */\n      dup4\n        /* \"#utility.yul\":25698:25716   */\n      add\n        /* \"#utility.yul\":25689:25695   */\n      dup5\n        /* \"#utility.yul\":25645:25717   */\n      tag_388\n      jump\t// in\n    tag_734:\n        /* \"#utility.yul\":25171:25724   */\n      swap6\n      swap5\n      pop\n      pop\n      pop\n      pop\n      pop\n      jump\t// out\n        /* \"#utility.yul\":25730:25923   */\n    tag_168:\n        /* \"#utility.yul\":25769:25772   */\n      0x00\n        /* \"#utility.yul\":25788:25807   */\n      tag_736\n        /* \"#utility.yul\":25805:25806   */\n      dup3\n        /* \"#utility.yul\":25788:25807   */\n      tag_404\n      jump\t// in\n    tag_736:\n        /* \"#utility.yul\":25783:25807   */\n      swap2\n      pop\n        /* \"#utility.yul\":25821:25840   */\n      tag_737\n        /* \"#utility.yul\":25838:25839   */\n      dup4\n        /* \"#utility.yul\":25821:25840   */\n      tag_404\n      jump\t// in\n    tag_737:\n        /* \"#utility.yul\":25816:25840   */\n      swap3\n      pop\n        /* \"#utility.yul\":25863:25864   */\n      dup3\n        /* \"#utility.yul\":25860:25861   */\n      dup3\n        /* \"#utility.yul\":25856:25865   */\n      add\n        /* \"#utility.yul\":25849:25865   */\n      swap1\n      pop\n        /* \"#utility.yul\":25886:25892   */\n      0xffff\n        /* \"#utility.yul\":25881:25884   */\n      dup2\n        /* \"#utility.yul\":25878:25893   */\n      gt\n        /* \"#utility.yul\":25875:25916   */\n      iszero\n      tag_738\n      jumpi\n        /* \"#utility.yul\":25896:25914   */\n      tag_739\n      tag_457\n      jump\t// in\n    tag_739:\n        /* \"#utility.yul\":25875:25916   */\n    tag_738:\n        /* \"#utility.yul\":25730:25923   */\n      swap3\n      swap2\n      pop\n      pop\n      jump\t// out\n        /* \"#utility.yul\":25929:26339   */\n    tag_170:\n        /* \"#utility.yul\":25969:25976   */\n      0x00\n        /* \"#utility.yul\":25992:26012   */\n      tag_741\n        /* \"#utility.yul\":26010:26011   */\n      dup3\n        /* \"#utility.yul\":25992:26012   */\n      tag_387\n      jump\t// in\n    tag_741:\n        /* \"#utility.yul\":25987:26012   */\n      swap2\n      pop\n        /* \"#utility.yul\":26026:26046   */\n      tag_742\n        /* \"#utility.yul\":26044:26045   */\n      dup4\n        /* \"#utility.yul\":26026:26046   */\n      tag_387\n      jump\t// in\n    tag_742:\n        /* \"#utility.yul\":26021:26046   */\n      swap3\n      pop\n        /* \"#utility.yul\":26081:26082   */\n      dup3\n        /* \"#utility.yul\":26078:26079   */\n      dup3\n        /* \"#utility.yul\":26074:26083   */\n      mul\n        /* \"#utility.yul\":26103:26133   */\n      tag_743\n        /* \"#utility.yul\":26121:26132   */\n      dup2\n        /* \"#utility.yul\":26103:26133   */\n      tag_387\n      jump\t// in\n    tag_743:\n        /* \"#utility.yul\":26092:26133   */\n      swap2\n      pop\n        /* \"#utility.yul\":26282:26283   */\n      dup3\n        /* \"#utility.yul\":26273:26280   */\n      dup3\n        /* \"#utility.yul\":26269:26284   */\n      div\n        /* \"#utility.yul\":26266:26267   */\n      dup5\n        /* \"#utility.yul\":26263:26285   */\n      eq\n        /* \"#utility.yul\":26243:26244   */\n      dup4\n        /* \"#utility.yul\":26236:26245   */\n      iszero\n        /* \"#utility.yul\":26216:26299   */\n      or\n        /* \"#utility.yul\":26193:26332   */\n      tag_744\n      jumpi\n        /* \"#utility.yul\":26312:26330   */\n      tag_745\n      tag_457\n      jump\t// in\n    tag_745:\n        /* \"#utility.yul\":26193:26332   */\n    tag_744:\n        /* \"#utility.yul\":25977:26339   */\n      pop\n        /* \"#utility.yul\":25929:26339   */\n      swap3\n      swap2\n      pop\n      pop\n      jump\t// out\n        /* \"#utility.yul\":26345:26536   */\n    tag_172:\n        /* \"#utility.yul\":26385:26388   */\n      0x00\n        /* \"#utility.yul\":26404:26424   */\n      tag_747\n        /* \"#utility.yul\":26422:26423   */\n      dup3\n        /* \"#utility.yul\":26404:26424   */\n      tag_387\n      jump\t// in\n    tag_747:\n        /* \"#utility.yul\":26399:26424   */\n      swap2\n      pop\n        /* \"#utility.yul\":26438:26458   */\n      tag_748\n        /* \"#utility.yul\":26456:26457   */\n      dup4\n        /* \"#utility.yul\":26438:26458   */\n      tag_387\n      jump\t// in\n    tag_748:\n        /* \"#utility.yul\":26433:26458   */\n      swap3\n      pop\n        /* \"#utility.yul\":26481:26482   */\n      dup3\n        /* \"#utility.yul\":26478:26479   */\n      dup3\n        /* \"#utility.yul\":26474:26483   */\n      add\n        /* \"#utility.yul\":26467:26483   */\n      swap1\n      pop\n        /* \"#utility.yul\":26502:26505   */\n      dup1\n        /* \"#utility.yul\":26499:26500   */\n      dup3\n        /* \"#utility.yul\":26496:26506   */\n      gt\n        /* \"#utility.yul\":26493:26529   */\n      iszero\n      tag_749\n      jumpi\n        /* \"#utility.yul\":26509:26527   */\n      tag_750\n      tag_457\n      jump\t// in\n    tag_750:\n        /* \"#utility.yul\":26493:26529   */\n    tag_749:\n        /* \"#utility.yul\":26345:26536   */\n      swap3\n      swap2\n      pop\n      pop\n      jump\t// out\n        /* \"#utility.yul\":26542:26769   */\n    tag_458:\n        /* \"#utility.yul\":26682:26716   */\n      0x5468652067616d65206973206e6f74206f70656e20666f72207469636b657420\n        /* \"#utility.yul\":26678:26679   */\n      0x00\n        /* \"#utility.yul\":26670:26676   */\n      dup3\n        /* \"#utility.yul\":26666:26680   */\n      add\n        /* \"#utility.yul\":26659:26717   */\n      mstore\n        /* \"#utility.yul\":26751:26761   */\n      0x7075726368617365000000000000000000000000000000000000000000000000\n        /* \"#utility.yul\":26746:26748   */\n      0x20\n        /* \"#utility.yul\":26738:26744   */\n      dup3\n        /* \"#utility.yul\":26734:26749   */\n      add\n        /* \"#utility.yul\":26727:26762   */\n      mstore\n        /* \"#utility.yul\":26542:26769   */\n      pop\n      jump\t// out\n        /* \"#utility.yul\":26775:27141   */\n    tag_459:\n        /* \"#utility.yul\":26917:26920   */\n      0x00\n        /* \"#utility.yul\":26938:27005   */\n      tag_753\n        /* \"#utility.yul\":27002:27004   */\n      0x28\n        /* \"#utility.yul\":26997:27000   */\n      dup4\n        /* \"#utility.yul\":26938:27005   */\n      tag_408\n      jump\t// in\n    tag_753:\n        /* \"#utility.yul\":26931:27005   */\n      swap2\n      pop\n        /* \"#utility.yul\":27014:27107   */\n      tag_754\n        /* \"#utility.yul\":27103:27106   */\n      dup3\n        /* \"#utility.yul\":27014:27107   */\n      tag_458\n      jump\t// in\n    tag_754:\n        /* \"#utility.yul\":27132:27134   */\n      0x40\n        /* \"#utility.yul\":27127:27130   */\n      dup3\n        /* \"#utility.yul\":27123:27135   */\n      add\n        /* \"#utility.yul\":27116:27135   */\n      swap1\n      pop\n        /* \"#utility.yul\":26775:27141   */\n      swap2\n      swap1\n      pop\n      jump\t// out\n        /* \"#utility.yul\":27147:27566   */\n    tag_184:\n        /* \"#utility.yul\":27313:27317   */\n      0x00\n        /* \"#utility.yul\":27351:27353   */\n      0x20\n        /* \"#utility.yul\":27340:27349   */\n      dup3\n        /* \"#utility.yul\":27336:27354   */\n      add\n        /* \"#utility.yul\":27328:27354   */\n      swap1\n      pop\n        /* \"#utility.yul\":27400:27409   */\n      dup2\n        /* \"#utility.yul\":27394:27398   */\n      dup2\n        /* \"#utility.yul\":27390:27410   */\n      sub\n        /* \"#utility.yul\":27386:27387   */\n      0x00\n        /* \"#utility.yul\":27375:27384   */\n      dup4\n        /* \"#utility.yul\":27371:27388   */\n      add\n        /* \"#utility.yul\":27364:27411   */\n      mstore\n        /* \"#utility.yul\":27428:27559   */\n      tag_756\n        /* \"#utility.yul\":27554:27558   */\n      dup2\n        /* \"#utility.yul\":27428:27559   */\n      tag_459\n      jump\t// in\n    tag_756:\n        /* \"#utility.yul\":27420:27559   */\n      swap1\n      pop\n        /* \"#utility.yul\":27147:27566   */\n      swap2\n      swap1\n      pop\n      jump\t// out\n        /* \"#utility.yul\":27572:27745   */\n    tag_460:\n        /* \"#utility.yul\":27712:27737   */\n      0x4d6178696d756d20706c61796572732072656163686564000000000000000000\n        /* \"#utility.yul\":27708:27709   */\n      0x00\n        /* \"#utility.yul\":27700:27706   */\n      dup3\n        /* \"#utility.yul\":27696:27710   */\n      add\n        /* \"#utility.yul\":27689:27738   */\n      mstore\n        /* \"#utility.yul\":27572:27745   */\n      pop\n      jump\t// out\n        /* \"#utility.yul\":27751:28117   */\n    tag_461:\n        /* \"#utility.yul\":27893:27896   */\n      0x00\n        /* \"#utility.yul\":27914:27981   */\n      tag_759\n        /* \"#utility.yul\":27978:27980   */\n      0x17\n        /* \"#utility.yul\":27973:27976   */\n      dup4\n        /* \"#utility.yul\":27914:27981   */\n      tag_408\n      jump\t// in\n    tag_759:\n        /* \"#utility.yul\":27907:27981   */\n      swap2\n      pop\n        /* \"#utility.yul\":27990:28083   */\n      tag_760\n        /* \"#utility.yul\":28079:28082   */\n      dup3\n        /* \"#utility.yul\":27990:28083   */\n      tag_460\n      jump\t// in\n    tag_760:\n        /* \"#utility.yul\":28108:28110   */\n      0x20\n        /* \"#utility.yul\":28103:28106   */\n      dup3\n        /* \"#utility.yul\":28099:28111   */\n      add\n        /* \"#utility.yul\":28092:28111   */\n      swap1\n      pop\n        /* \"#utility.yul\":27751:28117   */\n      swap2\n      swap1\n      pop\n      jump\t// out\n        /* \"#utility.yul\":28123:28542   */\n    tag_193:\n        /* \"#utility.yul\":28289:28293   */\n      0x00\n        /* \"#utility.yul\":28327:28329   */\n      0x20\n        /* \"#utility.yul\":28316:28325   */\n      dup3\n        /* \"#utility.yul\":28312:28330   */\n      add\n        /* \"#utility.yul\":28304:28330   */\n      swap1\n      pop\n        /* \"#utility.yul\":28376:28385   */\n      dup2\n        /* \"#utility.yul\":28370:28374   */\n      dup2\n        /* \"#utility.yul\":28366:28386   */\n      sub\n        /* \"#utility.yul\":28362:28363   */\n      0x00\n        /* \"#utility.yul\":28351:28360   */\n      dup4\n        /* \"#utility.yul\":28347:28364   */\n      add\n        /* \"#utility.yul\":28340:28387   */\n      mstore\n        /* \"#utility.yul\":28404:28535   */\n      tag_762\n        /* \"#utility.yul\":28530:28534   */\n      dup2\n        /* \"#utility.yul\":28404:28535   */\n      tag_461\n      jump\t// in\n    tag_762:\n        /* \"#utility.yul\":28396:28535   */\n      swap1\n      pop\n        /* \"#utility.yul\":28123:28542   */\n      swap2\n      swap1\n      pop\n      jump\t// out\n        /* \"#utility.yul\":28548:28719   */\n    tag_462:\n        /* \"#utility.yul\":28688:28711   */\n      0x496e76616c6964207469636b6574206e756d6265720000000000000000000000\n        /* \"#utility.yul\":28684:28685   */\n      0x00\n        /* \"#utility.yul\":28676:28682   */\n      dup3\n        /* \"#utility.yul\":28672:28686   */\n      add\n        /* \"#utility.yul\":28665:28712   */\n      mstore\n        /* \"#utility.yul\":28548:28719   */\n      pop\n      jump\t// out\n        /* \"#utility.yul\":28725:29091   */\n    tag_463:\n        /* \"#utility.yul\":28867:28870   */\n      0x00\n        /* \"#utility.yul\":28888:28955   */\n      tag_765\n        /* \"#utility.yul\":28952:28954   */\n      0x15\n        /* \"#utility.yul\":28947:28950   */\n      dup4\n        /* \"#utility.yul\":28888:28955   */\n      tag_408\n      jump\t// in\n    tag_765:\n        /* \"#utility.yul\":28881:28955   */\n      swap2\n      pop\n        /* \"#utility.yul\":28964:29057   */\n      tag_766\n        /* \"#utility.yul\":29053:29056   */\n      dup3\n        /* \"#utility.yul\":28964:29057   */\n      tag_462\n      jump\t// in\n    tag_766:\n        /* \"#utility.yul\":29082:29084   */\n      0x20\n        /* \"#utility.yul\":29077:29080   */\n      dup3\n        /* \"#utility.yul\":29073:29085   */\n      add\n        /* \"#utility.yul\":29066:29085   */\n      swap1\n      pop\n        /* \"#utility.yul\":28725:29091   */\n      swap2\n      swap1\n      pop\n      jump\t// out\n        /* \"#utility.yul\":29097:29516   */\n    tag_200:\n        /* \"#utility.yul\":29263:29267   */\n      0x00\n        /* \"#utility.yul\":29301:29303   */\n      0x20\n        /* \"#utility.yul\":29290:29299   */\n      dup3\n        /* \"#utility.yul\":29286:29304   */\n      add\n        /* \"#utility.yul\":29278:29304   */\n      swap1\n      pop\n        /* \"#utility.yul\":29350:29359   */\n      dup2\n        /* \"#utility.yul\":29344:29348   */\n      dup2\n        /* \"#utility.yul\":29340:29360   */\n      sub\n        /* \"#utility.yul\":29336:29337   */\n      0x00\n        /* \"#utility.yul\":29325:29334   */\n      dup4\n        /* \"#utility.yul\":29321:29338   */\n      add\n        /* \"#utility.yul\":29314:29361   */\n      mstore\n        /* \"#utility.yul\":29378:29509   */\n      tag_768\n        /* \"#utility.yul\":29504:29508   */\n      dup2\n        /* \"#utility.yul\":29378:29509   */\n      tag_463\n      jump\t// in\n    tag_768:\n        /* \"#utility.yul\":29370:29509   */\n      swap1\n      pop\n        /* \"#utility.yul\":29097:29516   */\n      swap2\n      swap1\n      pop\n      jump\t// out\n        /* \"#utility.yul\":29522:29964   */\n    tag_228:\n        /* \"#utility.yul\":29671:29675   */\n      0x00\n        /* \"#utility.yul\":29709:29711   */\n      0x60\n        /* \"#utility.yul\":29698:29707   */\n      dup3\n        /* \"#utility.yul\":29694:29712   */\n      add\n        /* \"#utility.yul\":29686:29712   */\n      swap1\n      pop\n        /* \"#utility.yul\":29722:29793   */\n      tag_770\n        /* \"#utility.yul\":29790:29791   */\n      0x00\n        /* \"#utility.yul\":29779:29788   */\n      dup4\n        /* \"#utility.yul\":29775:29792   */\n      add\n        /* \"#utility.yul\":29766:29772   */\n      dup7\n        /* \"#utility.yul\":29722:29793   */\n      tag_388\n      jump\t// in\n    tag_770:\n        /* \"#utility.yul\":29803:29875   */\n      tag_771\n        /* \"#utility.yul\":29871:29873   */\n      0x20\n        /* \"#utility.yul\":29860:29869   */\n      dup4\n        /* \"#utility.yul\":29856:29874   */\n      add\n        /* \"#utility.yul\":29847:29853   */\n      dup6\n        /* \"#utility.yul\":29803:29875   */\n      tag_388\n      jump\t// in\n    tag_771:\n        /* \"#utility.yul\":29885:29957   */\n      tag_772\n        /* \"#utility.yul\":29953:29955   */\n      0x40\n        /* \"#utility.yul\":29942:29951   */\n      dup4\n        /* \"#utility.yul\":29938:29956   */\n      add\n        /* \"#utility.yul\":29929:29935   */\n      dup5\n        /* \"#utility.yul\":29885:29957   */\n      tag_388\n      jump\t// in\n    tag_772:\n        /* \"#utility.yul\":29522:29964   */\n      swap5\n      swap4\n      pop\n      pop\n      pop\n      pop\n      jump\t// out\n        /* \"#utility.yul\":29970:30146   */\n    tag_464:\n        /* \"#utility.yul\":30110:30138   */\n      0x5468652067616d65206973206e6f7420636c6f73656420796574000000000000\n        /* \"#utility.yul\":30106:30107   */\n      0x00\n        /* \"#utility.yul\":30098:30104   */\n      dup3\n        /* \"#utility.yul\":30094:30108   */\n      add\n        /* \"#utility.yul\":30087:30139   */\n      mstore\n        /* \"#utility.yul\":29970:30146   */\n      pop\n      jump\t// out\n        /* \"#utility.yul\":30152:30518   */\n    tag_465:\n        /* \"#utility.yul\":30294:30297   */\n      0x00\n        /* \"#utility.yul\":30315:30382   */\n      tag_775\n        /* \"#utility.yul\":30379:30381   */\n      0x1a\n        /* \"#utility.yul\":30374:30377   */\n      dup4\n        /* \"#utility.yul\":30315:30382   */\n      tag_408\n      jump\t// in\n    tag_775:\n        /* \"#utility.yul\":30308:30382   */\n      swap2\n      pop\n        /* \"#utility.yul\":30391:30484   */\n      tag_776\n        /* \"#utility.yul\":30480:30483   */\n      dup3\n        /* \"#utility.yul\":30391:30484   */\n      tag_464\n      jump\t// in\n    tag_776:\n        /* \"#utility.yul\":30509:30511   */\n      0x20\n        /* \"#utility.yul\":30504:30507   */\n      dup3\n        /* \"#utility.yul\":30500:30512   */\n      add\n        /* \"#utility.yul\":30493:30512   */\n      swap1\n      pop\n        /* \"#utility.yul\":30152:30518   */\n      swap2\n      swap1\n      pop\n      jump\t// out\n        /* \"#utility.yul\":30524:30943   */\n    tag_242:\n        /* \"#utility.yul\":30690:30694   */\n      0x00\n        /* \"#utility.yul\":30728:30730   */\n      0x20\n        /* \"#utility.yul\":30717:30726   */\n      dup3\n        /* \"#utility.yul\":30713:30731   */\n      add\n        /* \"#utility.yul\":30705:30731   */\n      swap1\n      pop\n        /* \"#utility.yul\":30777:30786   */\n      dup2\n        /* \"#utility.yul\":30771:30775   */\n      dup2\n        /* \"#utility.yul\":30767:30787   */\n      sub\n        /* \"#utility.yul\":30763:30764   */\n      0x00\n        /* \"#utility.yul\":30752:30761   */\n      dup4\n        /* \"#utility.yul\":30748:30765   */\n      add\n        /* \"#utility.yul\":30741:30788   */\n      mstore\n        /* \"#utility.yul\":30805:30936   */\n      tag_778\n        /* \"#utility.yul\":30931:30935   */\n      dup2\n        /* \"#utility.yul\":30805:30936   */\n      tag_465\n      jump\t// in\n    tag_778:\n        /* \"#utility.yul\":30797:30936   */\n      swap1\n      pop\n        /* \"#utility.yul\":30524:30943   */\n      swap2\n      swap1\n      pop\n      jump\t// out\n        /* \"#utility.yul\":30949:31028   */\n    tag_466:\n        /* \"#utility.yul\":30988:30995   */\n      0x00\n        /* \"#utility.yul\":31017:31022   */\n      dup2\n        /* \"#utility.yul\":31006:31022   */\n      swap1\n      pop\n        /* \"#utility.yul\":30949:31028   */\n      swap2\n      swap1\n      pop\n      jump\t// out\n        /* \"#utility.yul\":31034:31191   */\n    tag_467:\n        /* \"#utility.yul\":31139:31184   */\n      tag_781\n        /* \"#utility.yul\":31159:31183   */\n      tag_782\n        /* \"#utility.yul\":31177:31182   */\n      dup3\n        /* \"#utility.yul\":31159:31183   */\n      tag_387\n      jump\t// in\n    tag_782:\n        /* \"#utility.yul\":31139:31184   */\n      tag_466\n      jump\t// in\n    tag_781:\n        /* \"#utility.yul\":31134:31137   */\n      dup3\n        /* \"#utility.yul\":31127:31185   */\n      mstore\n        /* \"#utility.yul\":31034:31191   */\n      pop\n      pop\n      jump\t// out\n        /* \"#utility.yul\":31197:31453   */\n    tag_247:\n        /* \"#utility.yul\":31309:31312   */\n      0x00\n        /* \"#utility.yul\":31324:31399   */\n      tag_784\n        /* \"#utility.yul\":31395:31398   */\n      dup3\n        /* \"#utility.yul\":31386:31392   */\n      dup5\n        /* \"#utility.yul\":31324:31399   */\n      tag_467\n      jump\t// in\n    tag_784:\n        /* \"#utility.yul\":31424:31426   */\n      0x20\n        /* \"#utility.yul\":31419:31422   */\n      dup3\n        /* \"#utility.yul\":31415:31427   */\n      add\n        /* \"#utility.yul\":31408:31427   */\n      swap2\n      pop\n        /* \"#utility.yul\":31444:31447   */\n      dup2\n        /* \"#utility.yul\":31437:31447   */\n      swap1\n      pop\n        /* \"#utility.yul\":31197:31453   */\n      swap3\n      swap2\n      pop\n      pop\n      jump\t// out\n        /* \"#utility.yul\":31459:31639   */\n    tag_468:\n        /* \"#utility.yul\":31507:31584   */\n      0x4e487b7100000000000000000000000000000000000000000000000000000000\n        /* \"#utility.yul\":31504:31505   */\n      0x00\n        /* \"#utility.yul\":31497:31585   */\n      mstore\n        /* \"#utility.yul\":31604:31608   */\n      0x12\n        /* \"#utility.yul\":31601:31602   */\n      0x04\n        /* \"#utility.yul\":31594:31609   */\n      mstore\n        /* \"#utility.yul\":31628:31632   */\n      0x24\n        /* \"#utility.yul\":31625:31626   */\n      0x00\n        /* \"#utility.yul\":31618:31633   */\n      revert\n        /* \"#utility.yul\":31645:31821   */\n    tag_249:\n        /* \"#utility.yul\":31677:31678   */\n      0x00\n        /* \"#utility.yul\":31694:31714   */\n      tag_787\n        /* \"#utility.yul\":31712:31713   */\n      dup3\n        /* \"#utility.yul\":31694:31714   */\n      tag_387\n      jump\t// in\n    tag_787:\n        /* \"#utility.yul\":31689:31714   */\n      swap2\n      pop\n        /* \"#utility.yul\":31728:31748   */\n      tag_788\n        /* \"#utility.yul\":31746:31747   */\n      dup4\n        /* \"#utility.yul\":31728:31748   */\n      tag_387\n      jump\t// in\n    tag_788:\n        /* \"#utility.yul\":31723:31748   */\n      swap3\n      pop\n        /* \"#utility.yul\":31767:31768   */\n      dup3\n        /* \"#utility.yul\":31757:31792   */\n      tag_789\n      jumpi\n        /* \"#utility.yul\":31772:31790   */\n      tag_790\n      tag_468\n      jump\t// in\n    tag_790:\n        /* \"#utility.yul\":31757:31792   */\n    tag_789:\n        /* \"#utility.yul\":31813:31814   */\n      dup3\n        /* \"#utility.yul\":31810:31811   */\n      dup3\n        /* \"#utility.yul\":31806:31815   */\n      mod\n        /* \"#utility.yul\":31801:31815   */\n      swap1\n      pop\n        /* \"#utility.yul\":31645:31821   */\n      swap3\n      swap2\n      pop\n      pop\n      jump\t// out\n        /* \"#utility.yul\":31827:32159   */\n    tag_267:\n        /* \"#utility.yul\":31948:31952   */\n      0x00\n        /* \"#utility.yul\":31986:31988   */\n      0x40\n        /* \"#utility.yul\":31975:31984   */\n      dup3\n        /* \"#utility.yul\":31971:31989   */\n      add\n        /* \"#utility.yul\":31963:31989   */\n      swap1\n      pop\n        /* \"#utility.yul\":31999:32070   */\n      tag_792\n        /* \"#utility.yul\":32067:32068   */\n      0x00\n        /* \"#utility.yul\":32056:32065   */\n      dup4\n        /* \"#utility.yul\":32052:32069   */\n      add\n        /* \"#utility.yul\":32043:32049   */\n      dup6\n        /* \"#utility.yul\":31999:32070   */\n      tag_388\n      jump\t// in\n    tag_792:\n        /* \"#utility.yul\":32080:32152   */\n      tag_793\n        /* \"#utility.yul\":32148:32150   */\n      0x20\n        /* \"#utility.yul\":32137:32146   */\n      dup4\n        /* \"#utility.yul\":32133:32151   */\n      add\n        /* \"#utility.yul\":32124:32130   */\n      dup5\n        /* \"#utility.yul\":32080:32152   */\n      tag_388\n      jump\t// in\n    tag_793:\n        /* \"#utility.yul\":31827:32159   */\n      swap4\n      swap3\n      pop\n      pop\n      pop\n      jump\t// out\n        /* \"#utility.yul\":32165:32338   */\n    tag_469:\n        /* \"#utility.yul\":32305:32330   */\n      0x706c6179657220697320616c7265616479206164646564000000000000000000\n        /* \"#utility.yul\":32301:32302   */\n      0x00\n        /* \"#utility.yul\":32293:32299   */\n      dup3\n        /* \"#utility.yul\":32289:32303   */\n      add\n        /* \"#utility.yul\":32282:32331   */\n      mstore\n        /* \"#utility.yul\":32165:32338   */\n      pop\n      jump\t// out\n        /* \"#utility.yul\":32344:32710   */\n    tag_470:\n        /* \"#utility.yul\":32486:32489   */\n      0x00\n        /* \"#utility.yul\":32507:32574   */\n      tag_796\n        /* \"#utility.yul\":32571:32573   */\n      0x17\n        /* \"#utility.yul\":32566:32569   */\n      dup4\n        /* \"#utility.yul\":32507:32574   */\n      tag_408\n      jump\t// in\n    tag_796:\n        /* \"#utility.yul\":32500:32574   */\n      swap2\n      pop\n        /* \"#utility.yul\":32583:32676   */\n      tag_797\n        /* \"#utility.yul\":32672:32675   */\n      dup3\n        /* \"#utility.yul\":32583:32676   */\n      tag_469\n      jump\t// in\n    tag_797:\n        /* \"#utility.yul\":32701:32703   */\n      0x20\n        /* \"#utility.yul\":32696:32699   */\n      dup3\n        /* \"#utility.yul\":32692:32704   */\n      add\n        /* \"#utility.yul\":32685:32704   */\n      swap1\n      pop\n        /* \"#utility.yul\":32344:32710   */\n      swap2\n      swap1\n      pop\n      jump\t// out\n        /* \"#utility.yul\":32716:33135   */\n    tag_318:\n        /* \"#utility.yul\":32882:32886   */\n      0x00\n        /* \"#utility.yul\":32920:32922   */\n      0x20\n        /* \"#utility.yul\":32909:32918   */\n      dup3\n        /* \"#utility.yul\":32905:32923   */\n      add\n        /* \"#utility.yul\":32897:32923   */\n      swap1\n      pop\n        /* \"#utility.yul\":32969:32978   */\n      dup2\n        /* \"#utility.yul\":32963:32967   */\n      dup2\n        /* \"#utility.yul\":32959:32979   */\n      sub\n        /* \"#utility.yul\":32955:32956   */\n      0x00\n        /* \"#utility.yul\":32944:32953   */\n      dup4\n        /* \"#utility.yul\":32940:32957   */\n      add\n        /* \"#utility.yul\":32933:32980   */\n      mstore\n        /* \"#utility.yul\":32997:33128   */\n      tag_799\n        /* \"#utility.yul\":33123:33127   */\n      dup2\n        /* \"#utility.yul\":32997:33128   */\n      tag_470\n      jump\t// in\n    tag_799:\n        /* \"#utility.yul\":32989:33128   */\n      swap1\n      pop\n        /* \"#utility.yul\":32716:33135   */\n      swap2\n      swap1\n      pop\n      jump\t// out\n        /* \"#utility.yul\":33141:33320   */\n    tag_471:\n        /* \"#utility.yul\":33281:33312   */\n      0x5468652067616d6520686173206e6f742066696e697368656420796574000000\n        /* \"#utility.yul\":33277:33278   */\n      0x00\n        /* \"#utility.yul\":33269:33275   */\n      dup3\n        /* \"#utility.yul\":33265:33279   */\n      add\n        /* \"#utility.yul\":33258:33313   */\n      mstore\n        /* \"#utility.yul\":33141:33320   */\n      pop\n      jump\t// out\n        /* \"#utility.yul\":33326:33692   */\n    tag_472:\n        /* \"#utility.yul\":33468:33471   */\n      0x00\n        /* \"#utility.yul\":33489:33556   */\n      tag_802\n        /* \"#utility.yul\":33553:33555   */\n      0x1d\n        /* \"#utility.yul\":33548:33551   */\n      dup4\n        /* \"#utility.yul\":33489:33556   */\n      tag_408\n      jump\t// in\n    tag_802:\n        /* \"#utility.yul\":33482:33556   */\n      swap2\n      pop\n        /* \"#utility.yul\":33565:33658   */\n      tag_803\n        /* \"#utility.yul\":33654:33657   */\n      dup3\n        /* \"#utility.yul\":33565:33658   */\n      tag_471\n      jump\t// in\n    tag_803:\n        /* \"#utility.yul\":33683:33685   */\n      0x20\n        /* \"#utility.yul\":33678:33681   */\n      dup3\n        /* \"#utility.yul\":33674:33686   */\n      add\n        /* \"#utility.yul\":33667:33686   */\n      swap1\n      pop\n        /* \"#utility.yul\":33326:33692   */\n      swap2\n      swap1\n      pop\n      jump\t// out\n        /* \"#utility.yul\":33698:34117   */\n    tag_333:\n        /* \"#utility.yul\":33864:33868   */\n      0x00\n        /* \"#utility.yul\":33902:33904   */\n      0x20\n        /* \"#utility.yul\":33891:33900   */\n      dup3\n        /* \"#utility.yul\":33887:33905   */\n      add\n        /* \"#utility.yul\":33879:33905   */\n      swap1\n      pop\n        /* \"#utility.yul\":33951:33960   */\n      dup2\n        /* \"#utility.yul\":33945:33949   */\n      dup2\n        /* \"#utility.yul\":33941:33961   */\n      sub\n        /* \"#utility.yul\":33937:33938   */\n      0x00\n        /* \"#utility.yul\":33926:33935   */\n      dup4\n        /* \"#utility.yul\":33922:33939   */\n      add\n        /* \"#utility.yul\":33915:33962   */\n      mstore\n        /* \"#utility.yul\":33979:34110   */\n      tag_805\n        /* \"#utility.yul\":34105:34109   */\n      dup2\n        /* \"#utility.yul\":33979:34110   */\n      tag_472\n      jump\t// in\n    tag_805:\n        /* \"#utility.yul\":33971:34110   */\n      swap1\n      pop\n        /* \"#utility.yul\":33698:34117   */\n      swap2\n      swap1\n      pop\n      jump\t// out\n        /* \"#utility.yul\":34123:34344   */\n    tag_473:\n        /* \"#utility.yul\":34263:34297   */\n      0x5769746864726177616c2074696d6520686173206e6f74207061737365642079\n        /* \"#utility.yul\":34259:34260   */\n      0x00\n        /* \"#utility.yul\":34251:34257   */\n      dup3\n        /* \"#utility.yul\":34247:34261   */\n      add\n        /* \"#utility.yul\":34240:34298   */\n      mstore\n        /* \"#utility.yul\":34332:34336   */\n      0x6574000000000000000000000000000000000000000000000000000000000000\n        /* \"#utility.yul\":34327:34329   */\n      0x20\n        /* \"#utility.yul\":34319:34325   */\n      dup3\n        /* \"#utility.yul\":34315:34330   */\n      add\n        /* \"#utility.yul\":34308:34337   */\n      mstore\n        /* \"#utility.yul\":34123:34344   */\n      pop\n      jump\t// out\n        /* \"#utility.yul\":34350:34716   */\n    tag_474:\n        /* \"#utility.yul\":34492:34495   */\n      0x00\n        /* \"#utility.yul\":34513:34580   */\n      tag_808\n        /* \"#utility.yul\":34577:34579   */\n      0x22\n        /* \"#utility.yul\":34572:34575   */\n      dup4\n        /* \"#utility.yul\":34513:34580   */\n      tag_408\n      jump\t// in\n    tag_808:\n        /* \"#utility.yul\":34506:34580   */\n      swap2\n      pop\n        /* \"#utility.yul\":34589:34682   */\n      tag_809\n        /* \"#utility.yul\":34678:34681   */\n      dup3\n        /* \"#utility.yul\":34589:34682   */\n      tag_473\n      jump\t// in\n    tag_809:\n        /* \"#utility.yul\":34707:34709   */\n      0x40\n        /* \"#utility.yul\":34702:34705   */\n      dup3\n        /* \"#utility.yul\":34698:34710   */\n      add\n        /* \"#utility.yul\":34691:34710   */\n      swap1\n      pop\n        /* \"#utility.yul\":34350:34716   */\n      swap2\n      swap1\n      pop\n      jump\t// out\n        /* \"#utility.yul\":34722:35141   */\n    tag_340:\n        /* \"#utility.yul\":34888:34892   */\n      0x00\n        /* \"#utility.yul\":34926:34928   */\n      0x20\n        /* \"#utility.yul\":34915:34924   */\n      dup3\n        /* \"#utility.yul\":34911:34929   */\n      add\n        /* \"#utility.yul\":34903:34929   */\n      swap1\n      pop\n        /* \"#utility.yul\":34975:34984   */\n      dup2\n        /* \"#utility.yul\":34969:34973   */\n      dup2\n        /* \"#utility.yul\":34965:34985   */\n      sub\n        /* \"#utility.yul\":34961:34962   */\n      0x00\n        /* \"#utility.yul\":34950:34959   */\n      dup4\n        /* \"#utility.yul\":34946:34963   */\n      add\n        /* \"#utility.yul\":34939:34986   */\n      mstore\n        /* \"#utility.yul\":35003:35134   */\n      tag_811\n        /* \"#utility.yul\":35129:35133   */\n      dup2\n        /* \"#utility.yul\":35003:35134   */\n      tag_474\n      jump\t// in\n    tag_811:\n        /* \"#utility.yul\":34995:35134   */\n      swap1\n      pop\n        /* \"#utility.yul\":34722:35141   */\n      swap2\n      swap1\n      pop\n      jump\t// out\n        /* \"#utility.yul\":35147:35319   */\n    tag_475:\n        /* \"#utility.yul\":35287:35311   */\n      0x596f7520617265206e6f74207468652077696e6e657200000000000000000000\n        /* \"#utility.yul\":35283:35284   */\n      0x00\n        /* \"#utility.yul\":35275:35281   */\n      dup3\n        /* \"#utility.yul\":35271:35285   */\n      add\n        /* \"#utility.yul\":35264:35312   */\n      mstore\n        /* \"#utility.yul\":35147:35319   */\n      pop\n      jump\t// out\n        /* \"#utility.yul\":35325:35691   */\n    tag_476:\n        /* \"#utility.yul\":35467:35470   */\n      0x00\n        /* \"#utility.yul\":35488:35555   */\n      tag_814\n        /* \"#utility.yul\":35552:35554   */\n      0x16\n        /* \"#utility.yul\":35547:35550   */\n      dup4\n        /* \"#utility.yul\":35488:35555   */\n      tag_408\n      jump\t// in\n    tag_814:\n        /* \"#utility.yul\":35481:35555   */\n      swap2\n      pop\n        /* \"#utility.yul\":35564:35657   */\n      tag_815\n        /* \"#utility.yul\":35653:35656   */\n      dup3\n        /* \"#utility.yul\":35564:35657   */\n      tag_475\n      jump\t// in\n    tag_815:\n        /* \"#utility.yul\":35682:35684   */\n      0x20\n        /* \"#utility.yul\":35677:35680   */\n      dup3\n        /* \"#utility.yul\":35673:35685   */\n      add\n        /* \"#utility.yul\":35666:35685   */\n      swap1\n      pop\n        /* \"#utility.yul\":35325:35691   */\n      swap2\n      swap1\n      pop\n      jump\t// out\n        /* \"#utility.yul\":35697:36116   */\n    tag_367:\n        /* \"#utility.yul\":35863:35867   */\n      0x00\n        /* \"#utility.yul\":35901:35903   */\n      0x20\n        /* \"#utility.yul\":35890:35899   */\n      dup3\n        /* \"#utility.yul\":35886:35904   */\n      add\n        /* \"#utility.yul\":35878:35904   */\n      swap1\n      pop\n        /* \"#utility.yul\":35950:35959   */\n      dup2\n        /* \"#utility.yul\":35944:35948   */\n      dup2\n        /* \"#utility.yul\":35940:35960   */\n      sub\n        /* \"#utility.yul\":35936:35937   */\n      0x00\n        /* \"#utility.yul\":35925:35934   */\n      dup4\n        /* \"#utility.yul\":35921:35938   */\n      add\n        /* \"#utility.yul\":35914:35961   */\n      mstore\n        /* \"#utility.yul\":35978:36109   */\n      tag_817\n        /* \"#utility.yul\":36104:36108   */\n      dup2\n        /* \"#utility.yul\":35978:36109   */\n      tag_476\n      jump\t// in\n    tag_817:\n        /* \"#utility.yul\":35970:36109   */\n      swap1\n      pop\n        /* \"#utility.yul\":35697:36116   */\n      swap2\n      swap1\n      pop\n      jump\t// out\n        /* \"#utility.yul\":36122:36564   */\n    tag_378:\n        /* \"#utility.yul\":36271:36275   */\n      0x00\n        /* \"#utility.yul\":36309:36311   */\n      0x60\n        /* \"#utility.yul\":36298:36307   */\n      dup3\n        /* \"#utility.yul\":36294:36312   */\n      add\n        /* \"#utility.yul\":36286:36312   */\n      swap1\n      pop\n        /* \"#utility.yul\":36322:36393   */\n      tag_819\n        /* \"#utility.yul\":36390:36391   */\n      0x00\n        /* \"#utility.yul\":36379:36388   */\n      dup4\n        /* \"#utility.yul\":36375:36392   */\n      add\n        /* \"#utility.yul\":36366:36372   */\n      dup7\n        /* \"#utility.yul\":36322:36393   */\n      tag_388\n      jump\t// in\n    tag_819:\n        /* \"#utility.yul\":36403:36475   */\n      tag_820\n        /* \"#utility.yul\":36471:36473   */\n      0x20\n        /* \"#utility.yul\":36460:36469   */\n      dup4\n        /* \"#utility.yul\":36456:36474   */\n      add\n        /* \"#utility.yul\":36447:36453   */\n      dup6\n        /* \"#utility.yul\":36403:36475   */\n      tag_420\n      jump\t// in\n    tag_820:\n        /* \"#utility.yul\":36485:36557   */\n      tag_821\n        /* \"#utility.yul\":36553:36555   */\n      0x40\n        /* \"#utility.yul\":36542:36551   */\n      dup4\n        /* \"#utility.yul\":36538:36556   */\n      add\n        /* \"#utility.yul\":36529:36535   */\n      dup5\n        /* \"#utility.yul\":36485:36557   */\n      tag_388\n      jump\t// in\n    tag_821:\n        /* \"#utility.yul\":36122:36564   */\n      swap5\n      swap4\n      pop\n      pop\n      pop\n      pop\n      jump\t// out\n\n    auxdata: 0xa2646970667358221220d78dd22a79f5fc368e762dcfb71c893d66f14cfad3918ef5d59fba7fa88b10c664736f6c63430008160033\n}\n",
				"bytecode": {
					"linkReferences": {},
					"object": "608060405260fa60015560126002553480156200001a575f80fd5b506040516200335b3803806200335b833981810160405281019062000040919062000224565b335f806101000a81548173ffffffffffffffffffffffffffffffffffffffff021916908373ffffffffffffffffffffffffffffffffffffffff1602179055505f6004819055508060099081620000979190620004aa565b50506200058e565b5f604051905090565b5f80fd5b5f80fd5b5f80fd5b5f80fd5b5f601f19601f8301169050919050565b7f4e487b71000000000000000000000000000000000000000000000000000000005f52604160045260245ffd5b6200010082620000b8565b810181811067ffffffffffffffff82111715620001225762000121620000c8565b5b80604052505050565b5f620001366200009f565b9050620001448282620000f5565b919050565b5f67ffffffffffffffff821115620001665762000165620000c8565b5b6200017182620000b8565b9050602081019050919050565b5f5b838110156200019d57808201518184015260208101905062000180565b5f8484015250505050565b5f620001be620001b88462000149565b6200012b565b905082815260208101848484011115620001dd57620001dc620000b4565b5b620001ea8482856200017e565b509392505050565b5f82601f830112620002095762000208620000b0565b5b81516200021b848260208601620001a8565b91505092915050565b5f602082840312156200023c576200023b620000a8565b5b5f82015167ffffffffffffffff8111156200025c576200025b620000ac565b5b6200026a84828501620001f2565b91505092915050565b5f81519050919050565b7f4e487b71000000000000000000000000000000000000000000000000000000005f52602260045260245ffd5b5f6002820490506001821680620002c257607f821691505b602082108103620002d857620002d76200027d565b5b50919050565b5f819050815f5260205f209050919050565b5f6020601f8301049050919050565b5f82821b905092915050565b5f600883026200033c7fffffffffffffffffffffffffffffffffffffffffffffffffffffffffffffffff82620002ff565b620003488683620002ff565b95508019841693508086168417925050509392505050565b5f819050919050565b5f819050919050565b5f620003926200038c620003868462000360565b62000369565b62000360565b9050919050565b5f819050919050565b620003ad8362000372565b620003c5620003bc8262000399565b8484546200030b565b825550505050565b5f90565b620003db620003cd565b620003e8818484620003a2565b505050565b5b818110156200040f57620004035f82620003d1565b600181019050620003ee565b5050565b601f8211156200045e576200042881620002de565b6200043384620002f0565b8101602085101562000443578190505b6200045b6200045285620002f0565b830182620003ed565b50505b505050565b5f82821c905092915050565b5f620004805f198460080262000463565b1980831691505092915050565b5f6200049a83836200046f565b9150826002028217905092915050565b620004b58262000273565b67ffffffffffffffff811115620004d157620004d0620000c8565b5b620004dd8254620002aa565b620004ea82828562000413565b5f60209050601f83116001811462000520575f84156200050b578287015190505b6200051785826200048d565b86555062000586565b601f1984166200053086620002de565b5f5b82811015620005595784890151825560018201915060208501945060208101905062000532565b8683101562000579578489015162000575601f8916826200046f565b8355505b6001600288020188555050505b505050505050565b612dbf806200059c5f395ff3fe608060405260043610610165575f3560e01c80638da5cb5b116100d0578063d709815411610089578063ee7bdc4f11610063578063ee7bdc4f1461050d578063f60cdcf614610549578063fca846dc14610573578063ffde0c741461059d57610165565b8063d709815414610491578063e0176de8146104b9578063e5a62c48146104e357610165565b80638da5cb5b1461037557806399f526dd1461039f578063a813895b146103db578063b1275f9a14610417578063bd798a3f1461043f578063c04c59471461046757610165565b806355519d871161012257806355519d87146102795780636edff590146102a35780636f9fb98a146102cd57806373aedcec146102f757806377c93662146103215780638b5b9ccc1461034b57610165565b80630bd794311461016957806313e965521461019357806315c9c011146101cf578063298ec2081461020b5780632d6ef310146102275780634664611e1461024f575b5f80fd5b348015610174575f80fd5b5061017d6105d9565b60405161018a9190611b82565b60405180910390f35b34801561019e575f80fd5b506101b960048036038101906101b49190611d12565b6105de565b6040516101c69190611b82565b60405180910390f35b3480156101da575f80fd5b506101f560048036038101906101f09190611de5565b6107a4565b6040516102029190611b82565b60405180910390f35b61022560048036038101906102209190611e10565b6107e1565b005b348015610232575f80fd5b5061024d60048036038101906102489190611e4e565b610c18565b005b34801561025a575f80fd5b50610263610eed565b6040516102709190611b82565b60405180910390f35b348015610284575f80fd5b5061028d610ef3565b60405161029a9190611b82565b60405180910390f35b3480156102ae575f80fd5b506102b7610ef9565b6040516102c49190611b82565b60405180910390f35b3480156102d8575f80fd5b506102e1610efe565b6040516102ee9190611b82565b60405180910390f35b348015610302575f80fd5b5061030b610f05565b6040516103189190611b82565b60405180910390f35b34801561032c575f80fd5b50610335610f0a565b6040516103429190611ef3565b60405180910390f35b348015610356575f80fd5b5061035f610f96565b60405161036c9190611ffa565b60405180910390f35b348015610380575f80fd5b50610389611021565b6040516103969190612029565b60405180910390f35b3480156103aa575f80fd5b506103c560048036038101906103c09190611e10565b611044565b6040516103d29190612113565b60405180910390f35b3480156103e6575f80fd5b5061040160048036038101906103fc9190612133565b6111cb565b60405161040e9190611b82565b60405180910390f35b348015610422575f80fd5b5061043d600480360381019061043891906121c1565b6113ae565b005b34801561044a575f80fd5b5061046560048036038101906104609190611e4e565b611576565b005b348015610472575f80fd5b5061047b6117ae565b60405161048891906123bd565b60405180910390f35b34801561049c575f80fd5b506104b760048036038101906104b29190611e4e565b611894565b005b3480156104c4575f80fd5b506104cd611ac0565b6040516104da9190611b82565b60405180910390f35b3480156104ee575f80fd5b506104f7611ac6565b6040516105049190611b82565b60405180910390f35b348015610518575f80fd5b50610533600480360381019061052e9190611e4e565b611ace565b6040516105409190611b82565b60405180910390f35b348015610554575f80fd5b5061055d611afa565b60405161056a9190611b82565b60405180910390f35b34801561057e575f80fd5b50610587611b00565b6040516105949190611b82565b60405180910390f35b3480156105a8575f80fd5b506105c360048036038101906105be9190611e4e565b611b06565b6040516105d091906123ec565b60405180910390f35b604b81565b5f805f9054906101000a900473ffffffffffffffffffffffffffffffffffffffff1673ffffffffffffffffffffffffffffffffffffffff163373ffffffffffffffffffffffffffffffffffffffff161461066d576040517f08c379a000000000000000000000000000000000000000000000000000000000815260040161066490612475565b60405180910390fd5b5f6007868154811061068257610681612493565b5b905f5260205f2090600902015f0154905060085f8781526020019081526020015f206040518060a0016040528088815260200183815260200187815260200186815260200185815250908060018154018082558091505060019003905f5260205f2090600502015f909190919091505f820151815f01556020820151816001015560408201518160020155606082015181600301908161072291906126ba565b50608082015181600401908161073891906126ba565b505050600160085f8881526020019081526020015f208054905061075c91906127b6565b91507f3332aef7491c9cb15398882926a30726163412884d07a4b51ac2d8072aff43088683878460405161079394939291906127e9565b60405180910390a150949350505050565b5f806301e1338090505f816012856107bc919061282c565b61ffff166107ca9190612861565b426107d591906128a2565b90508092505050919050565b5f60038111156107f4576107f3612215565b5b6007838154811061080857610807612493565b5b905f5260205f2090600902016003015f9054906101000a900460ff16600381111561083657610835612215565b5b14610876576040517f08c379a000000000000000000000000000000000000000000000000000000000815260040161086d90612945565b60405180910390fd5b6007828154811061088a57610889612493565b5b905f5260205f20906009020160050154600783815481106108ae576108ad612493565b5b905f5260205f2090600902016004015411156108ff576040517f08c379a00000000000000000000000000000000000000000000000000000000081526004016108f6906129ad565b60405180910390fd5b5f811015801561093257506007828154811061091e5761091d612493565b5b905f5260205f209060090201600501548111155b610971576040517f08c379a000000000000000000000000000000000000000000000000000000000815260040161096890612a15565b60405180910390fd5b6040518060600160405280600784815481106109905761098f612493565b5b905f5260205f2090600902015f015481526020013373ffffffffffffffffffffffffffffffffffffffff1681526020018281525060065f3373ffffffffffffffffffffffffffffffffffffffff1673ffffffffffffffffffffffffffffffffffffffff1681526020019081526020015f205f820151815f01556020820151816001015f6101000a81548173ffffffffffffffffffffffffffffffffffffffff021916908373ffffffffffffffffffffffffffffffffffffffff16021790555060408201518160020155905050600533908060018154018082558091505060019003905f5260205f20015f9091909190916101000a81548173ffffffffffffffffffffffffffffffffffffffff021916908373ffffffffffffffffffffffffffffffffffffffff160217905550600160078381548110610ad257610ad1612493565b5b905f5260205f2090600902016004015f828254610aef91906128a2565b9250508190555060078281548110610b0a57610b09612493565b5b905f5260205f2090600902016005015460078381548110610b2e57610b2d612493565b5b905f5260205f2090600902016004015403610bb757600160078381548110610b5957610b58612493565b5b905f5260205f2090600902016003015f6101000a81548160ff02191690836003811115610b8957610b88612215565b5b02179055504260078381548110610ba357610ba2612493565b5b905f5260205f209060090201600201819055505b7f200c56b5ea932e7efe2f882ae8b04cb25aec0c691ace0e0754b75655fec67da7828260078581548110610bee57610bed612493565b5b905f5260205f2090600902015f0154604051610c0c93929190612a33565b60405180910390a15050565b5f8054906101000a900473ffffffffffffffffffffffffffffffffffffffff1673ffffffffffffffffffffffffffffffffffffffff163373ffffffffffffffffffffffffffffffffffffffff1614610ca5576040517f08c379a0000000000000000000000000000000000000000000000000000000008152600401610c9c90612475565b60405180910390fd5b60016003811115610cb957610cb8612215565b5b60078281548110610ccd57610ccc612493565b5b905f5260205f2090600902016003015f9054906101000a900460ff166003811115610cfb57610cfa612215565b5b14610d3b576040517f08c379a0000000000000000000000000000000000000000000000000000000008152600401610d3290612ab2565b60405180910390fd5b60078181548110610d4f57610d4e612493565b5b905f5260205f2090600902016005015442604051602001610d709190612af0565b604051602081830303815290604052805190602001205f1c610d929190612b37565b600481905550600260078281548110610dae57610dad612493565b5b905f5260205f2090600902016003015f6101000a81548160ff02191690836003811115610dde57610ddd612215565b5b021790555060078181548110610df757610df6612493565b5b905f5260205f2090600902016005015460078281548110610e1b57610e1a612493565b5b905f5260205f20906009020160040154148015610e39575060015447115b15610eaf575f8054906101000a900473ffffffffffffffffffffffffffffffffffffffff1673ffffffffffffffffffffffffffffffffffffffff166108fc60015447610e8591906127b6565b90811502906040515f60405180830381858888f19350505050158015610ead573d5f803e3d5ffd5b505b7f4c4660db760944215f41e957066d756ad5fd0eed1b4640632322eb06f77b034d81600454604051610ee2929190612b67565b60405180910390a150565b60045481565b60025481565b600181565b5f47905090565b601881565b60098054610f17906124ed565b80601f0160208091040260200160405190810160405280929190818152602001828054610f43906124ed565b8015610f8e5780601f10610f6557610100808354040283529160200191610f8e565b820191905f5260205f20905b815481529060010190602001808311610f7157829003601f168201915b505050505081565b6060600580548060200260200160405190810160405280929190818152602001828054801561101757602002820191905f5260205f20905b815f9054906101000a900473ffffffffffffffffffffffffffffffffffffffff1673ffffffffffffffffffffffffffffffffffffffff1681526020019060010190808311610fce575b5050505050905090565b5f8054906101000a900473ffffffffffffffffffffffffffffffffffffffff1681565b61104c611b3e565b60085f8481526020019081526020015f20828154811061106f5761106e612493565b5b905f5260205f2090600502016040518060a00160405290815f820154815260200160018201548152602001600282015481526020016003820180546110b3906124ed565b80601f01602080910402602001604051908101604052809291908181526020018280546110df906124ed565b801561112a5780601f106111015761010080835404028352916020019161112a565b820191905f5260205f20905b81548152906001019060200180831161110d57829003601f168201915b50505050508152602001600482018054611143906124ed565b80601f016020809104026020016040519081016040528092919081815260200182805461116f906124ed565b80156111ba5780601f10611191576101008083540402835291602001916111ba565b820191905f5260205f20905b81548152906001019060200180831161119d57829003601f168201915b505050505081525050905092915050565b5f805f9054906101000a900473ffffffffffffffffffffffffffffffffffffffff1673ffffffffffffffffffffffffffffffffffffffff163373ffffffffffffffffffffffffffffffffffffffff161461125a576040517f08c379a000000000000000000000000000000000000000000000000000000000815260040161125190612475565b60405180910390fd5b60076040518061012001604052808781526020018681526020018581526020015f600381111561128d5761128c612215565b5b8152602001848152602001848152602001848152602001604b81526020016018815250908060018154018082558091505060019003905f5260205f2090600902015f909190919091505f820151815f015560208201518160010155604082015181600201556060820151816003015f6101000a81548160ff0219169083600381111561131c5761131b612215565b5b02179055506080820151816004015560a0820151816005015560c0820151816006015560e08201518160070155610100820151816008015550507fbd19c47e9925eb6f7be8bb1c13a841e0240aaeaf17f217e90022e9c8eb66877f600160078054905061138991906127b6565b6040516113969190611b82565b60405180910390a16007805490509050949350505050565b5f8054906101000a900473ffffffffffffffffffffffffffffffffffffffff1673ffffffffffffffffffffffffffffffffffffffff163373ffffffffffffffffffffffffffffffffffffffff161461143b576040517f08c379a000000000000000000000000000000000000000000000000000000000815260040161143290612475565b60405180910390fd5b5f805b6005805490508110156114cb578273ffffffffffffffffffffffffffffffffffffffff166005828154811061147657611475612493565b5b905f5260205f20015f9054906101000a900473ffffffffffffffffffffffffffffffffffffffff1673ffffffffffffffffffffffffffffffffffffffff16036114be57600191505b808060010191505061143e565b505f151581151514611512576040517f08c379a000000000000000000000000000000000000000000000000000000000815260040161150990612bd8565b60405180910390fd5b600582908060018154018082558091505060019003905f5260205f20015f9091909190916101000a81548173ffffffffffffffffffffffffffffffffffffffff021916908373ffffffffffffffffffffffffffffffffffffffff1602179055505050565b5f8054906101000a900473ffffffffffffffffffffffffffffffffffffffff1673ffffffffffffffffffffffffffffffffffffffff163373ffffffffffffffffffffffffffffffffffffffff1614611603576040517f08c379a00000000000000000000000000000000000000000000000000000000081526004016115fa90612475565b60405180910390fd5b60038081111561161657611615612215565b5b6007828154811061162a57611629612493565b5b905f5260205f2090600902016003015f9054906101000a900460ff16600381111561165857611657612215565b5b14611698576040517f08c379a000000000000000000000000000000000000000000000000000000000815260040161168f90612c40565b60405180910390fd5b62093a80600782815481106116b0576116af612493565b5b905f5260205f209060090201600201546116ca91906128a2565b42101561170c576040517f08c379a000000000000000000000000000000000000000000000000000000000815260040161170390612cce565b60405180910390fd5b5f4790505f8054906101000a900473ffffffffffffffffffffffffffffffffffffffff1673ffffffffffffffffffffffffffffffffffffffff166108fc8290811502906040515f60405180830381858888f19350505050158015611772573d5f803e3d5ffd5b507f8030349df01c447169490954f7d7e84fced918106c79dc48fa0560bba769086f816040516117a29190611b82565b60405180910390a15050565b60606007805480602002602001604051908101604052809291908181526020015f905b8282101561188b578382905f5260205f209060090201604051806101200160405290815f82015481526020016001820154815260200160028201548152602001600382015f9054906101000a900460ff16600381111561183457611833612215565b5b600381111561184657611845612215565b5b815260200160048201548152602001600582015481526020016006820154815260200160078201548152602001600882015481525050815260200190600101906117d1565b50505050905090565b600260038111156118a8576118a7612215565b5b600782815481106118bc576118bb612493565b5b905f5260205f2090600902016003015f9054906101000a900460ff1660038111156118ea576118e9612215565b5b1461192a576040517f08c379a000000000000000000000000000000000000000000000000000000000815260040161192190612c40565b60405180910390fd5b6005600454815481106119405761193f612493565b5b905f5260205f20015f9054906101000a900473ffffffffffffffffffffffffffffffffffffffff1673ffffffffffffffffffffffffffffffffffffffff163373ffffffffffffffffffffffffffffffffffffffff16146119d5576040517f08c379a00000000000000000000000000000000000000000000000000000000081526004016119cc90612d36565b60405180910390fd5b5f47600154106119e557476119e9565b6001545b90505f600481905550600360078381548110611a0857611a07612493565b5b905f5260205f2090600902016003015f6101000a81548160ff02191690836003811115611a3857611a37612215565b5b02179055503373ffffffffffffffffffffffffffffffffffffffff166108fc8290811502906040515f60405180830381858888f19350505050158015611a80573d5f803e3d5ffd5b507fcfa66a04fba946530a770b8c54edc8dc6c1ad73f6928ae77ea7517d027e76e62823383604051611ab493929190612d54565b60405180910390a15050565b60015481565b6301e1338081565b5f60078281548110611ae357611ae2612493565b5b905f5260205f209060090201600201549050919050565b60035481565b610fa081565b5f60078281548110611b1b57611b1a612493565b5b905f5260205f2090600902016003015f9054906101000a900460ff169050919050565b6040518060a001604052805f81526020015f81526020015f815260200160608152602001606081525090565b5f819050919050565b611b7c81611b6a565b82525050565b5f602082019050611b955f830184611b73565b92915050565b5f604051905090565b5f80fd5b5f80fd5b611bb581611b6a565b8114611bbf575f80fd5b50565b5f81359050611bd081611bac565b92915050565b5f80fd5b5f80fd5b5f601f19601f8301169050919050565b7f4e487b71000000000000000000000000000000000000000000000000000000005f52604160045260245ffd5b611c2482611bde565b810181811067ffffffffffffffff82111715611c4357611c42611bee565b5b80604052505050565b5f611c55611b9b565b9050611c618282611c1b565b919050565b5f67ffffffffffffffff821115611c8057611c7f611bee565b5b611c8982611bde565b9050602081019050919050565b828183375f83830152505050565b5f611cb6611cb184611c66565b611c4c565b905082815260208101848484011115611cd257611cd1611bda565b5b611cdd848285611c96565b509392505050565b5f82601f830112611cf957611cf8611bd6565b5b8135611d09848260208601611ca4565b91505092915050565b5f805f8060808587031215611d2a57611d29611ba4565b5b5f611d3787828801611bc2565b9450506020611d4887828801611bc2565b935050604085013567ffffffffffffffff811115611d6957611d68611ba8565b5b611d7587828801611ce5565b925050606085013567ffffffffffffffff811115611d9657611d95611ba8565b5b611da287828801611ce5565b91505092959194509250565b5f61ffff82169050919050565b611dc481611dae565b8114611dce575f80fd5b50565b5f81359050611ddf81611dbb565b92915050565b5f60208284031215611dfa57611df9611ba4565b5b5f611e0784828501611dd1565b91505092915050565b5f8060408385031215611e2657611e25611ba4565b5b5f611e3385828601611bc2565b9250506020611e4485828601611bc2565b9150509250929050565b5f60208284031215611e6357611e62611ba4565b5b5f611e7084828501611bc2565b91505092915050565b5f81519050919050565b5f82825260208201905092915050565b5f5b83811015611eb0578082015181840152602081019050611e95565b5f8484015250505050565b5f611ec582611e79565b611ecf8185611e83565b9350611edf818560208601611e93565b611ee881611bde565b840191505092915050565b5f6020820190508181035f830152611f0b8184611ebb565b905092915050565b5f81519050919050565b5f82825260208201905092915050565b5f819050602082019050919050565b5f73ffffffffffffffffffffffffffffffffffffffff82169050919050565b5f611f6582611f3c565b9050919050565b611f7581611f5b565b82525050565b5f611f868383611f6c565b60208301905092915050565b5f602082019050919050565b5f611fa882611f13565b611fb28185611f1d565b9350611fbd83611f2d565b805f5b83811015611fed578151611fd48882611f7b565b9750611fdf83611f92565b925050600181019050611fc0565b5085935050505092915050565b5f6020820190508181035f8301526120128184611f9e565b905092915050565b61202381611f5b565b82525050565b5f60208201905061203c5f83018461201a565b92915050565b61204b81611b6a565b82525050565b5f82825260208201905092915050565b5f61206b82611e79565b6120758185612051565b9350612085818560208601611e93565b61208e81611bde565b840191505092915050565b5f60a083015f8301516120ae5f860182612042565b5060208301516120c16020860182612042565b5060408301516120d46040860182612042565b50606083015184820360608601526120ec8282612061565b915050608083015184820360808601526121068282612061565b9150508091505092915050565b5f6020820190508181035f83015261212b8184612099565b905092915050565b5f805f806080858703121561214b5761214a611ba4565b5b5f61215887828801611bc2565b945050602061216987828801611bc2565b935050604061217a87828801611bc2565b925050606061218b87828801611bc2565b91505092959194509250565b6121a081611f5b565b81146121aa575f80fd5b50565b5f813590506121bb81612197565b92915050565b5f602082840312156121d6576121d5611ba4565b5b5f6121e3848285016121ad565b91505092915050565b5f81519050919050565b5f82825260208201905092915050565b5f819050602082019050919050565b7f4e487b71000000000000000000000000000000000000000000000000000000005f52602160045260245ffd5b6004811061225357612252612215565b5b50565b5f81905061226382612242565b919050565b5f61227282612256565b9050919050565b61228281612268565b82525050565b61012082015f82015161229d5f850182612042565b5060208201516122b06020850182612042565b5060408201516122c36040850182612042565b5060608201516122d66060850182612279565b5060808201516122e96080850182612042565b5060a08201516122fc60a0850182612042565b5060c082015161230f60c0850182612042565b5060e082015161232260e0850182612042565b50610100820151612337610100850182612042565b50505050565b5f6123488383612288565b6101208301905092915050565b5f602082019050919050565b5f61236b826121ec565b61237581856121f6565b935061238083612206565b805f5b838110156123b0578151612397888261233d565b97506123a283612355565b925050600181019050612383565b5085935050505092915050565b5f6020820190508181035f8301526123d58184612361565b905092915050565b6123e681612268565b82525050565b5f6020820190506123ff5f8301846123dd565b92915050565b7f4f6e6c7920746865206f776e65722063616e2063616c6c20746869732066756e5f8201527f6374696f6e000000000000000000000000000000000000000000000000000000602082015250565b5f61245f602583611e83565b915061246a82612405565b604082019050919050565b5f6020820190508181035f83015261248c81612453565b9050919050565b7f4e487b71000000000000000000000000000000000000000000000000000000005f52603260045260245ffd5b7f4e487b71000000000000000000000000000000000000000000000000000000005f52602260045260245ffd5b5f600282049050600182168061250457607f821691505b602082108103612517576125166124c0565b5b50919050565b5f819050815f5260205f209050919050565b5f6020601f8301049050919050565b5f82821b905092915050565b5f600883026125797fffffffffffffffffffffffffffffffffffffffffffffffffffffffffffffffff8261253e565b612583868361253e565b95508019841693508086168417925050509392505050565b5f819050919050565b5f6125be6125b96125b484611b6a565b61259b565b611b6a565b9050919050565b5f819050919050565b6125d7836125a4565b6125eb6125e3826125c5565b84845461254a565b825550505050565b5f90565b6125ff6125f3565b61260a8184846125ce565b505050565b5b8181101561262d576126225f826125f7565b600181019050612610565b5050565b601f821115612672576126438161251d565b61264c8461252f565b8101602085101561265b578190505b61266f6126678561252f565b83018261260f565b50505b505050565b5f82821c905092915050565b5f6126925f1984600802612677565b1980831691505092915050565b5f6126aa8383612683565b9150826002028217905092915050565b6126c382611e79565b67ffffffffffffffff8111156126dc576126db611bee565b5b6126e682546124ed565b6126f1828285612631565b5f60209050601f831160018114612722575f8415612710578287015190505b61271a858261269f565b865550612781565b601f1984166127308661251d565b5f5b8281101561275757848901518255600182019150602085019450602081019050612732565b868310156127745784890151612770601f891682612683565b8355505b6001600288020188555050505b505050505050565b7f4e487b71000000000000000000000000000000000000000000000000000000005f52601160045260245ffd5b5f6127c082611b6a565b91506127cb83611b6a565b92508282039050818111156127e3576127e2612789565b5b92915050565b5f6080820190506127fc5f830187611b73565b6128096020830186611b73565b6128166040830185611b73565b6128236060830184611b73565b95945050505050565b5f61283682611dae565b915061284183611dae565b9250828201905061ffff81111561285b5761285a612789565b5b92915050565b5f61286b82611b6a565b915061287683611b6a565b925082820261288481611b6a565b9150828204841483151761289b5761289a612789565b5b5092915050565b5f6128ac82611b6a565b91506128b783611b6a565b92508282019050808211156128cf576128ce612789565b5b92915050565b7f5468652067616d65206973206e6f74206f70656e20666f72207469636b6574205f8201527f7075726368617365000000000000000000000000000000000000000000000000602082015250565b5f61292f602883611e83565b915061293a826128d5565b604082019050919050565b5f6020820190508181035f83015261295c81612923565b9050919050565b7f4d6178696d756d20706c617965727320726561636865640000000000000000005f82015250565b5f612997601783611e83565b91506129a282612963565b602082019050919050565b5f6020820190508181035f8301526129c48161298b565b9050919050565b7f496e76616c6964207469636b6574206e756d62657200000000000000000000005f82015250565b5f6129ff601583611e83565b9150612a0a826129cb565b602082019050919050565b5f6020820190508181035f830152612a2c816129f3565b9050919050565b5f606082019050612a465f830186611b73565b612a536020830185611b73565b612a606040830184611b73565b949350505050565b7f5468652067616d65206973206e6f7420636c6f736564207965740000000000005f82015250565b5f612a9c601a83611e83565b9150612aa782612a68565b602082019050919050565b5f6020820190508181035f830152612ac981612a90565b9050919050565b5f819050919050565b612aea612ae582611b6a565b612ad0565b82525050565b5f612afb8284612ad9565b60208201915081905092915050565b7f4e487b71000000000000000000000000000000000000000000000000000000005f52601260045260245ffd5b5f612b4182611b6a565b9150612b4c83611b6a565b925082612b5c57612b5b612b0a565b5b828206905092915050565b5f604082019050612b7a5f830185611b73565b612b876020830184611b73565b9392505050565b7f706c6179657220697320616c72656164792061646465640000000000000000005f82015250565b5f612bc2601783611e83565b9150612bcd82612b8e565b602082019050919050565b5f6020820190508181035f830152612bef81612bb6565b9050919050565b7f5468652067616d6520686173206e6f742066696e6973686564207965740000005f82015250565b5f612c2a601d83611e83565b9150612c3582612bf6565b602082019050919050565b5f6020820190508181035f830152612c5781612c1e565b9050919050565b7f5769746864726177616c2074696d6520686173206e6f742070617373656420795f8201527f6574000000000000000000000000000000000000000000000000000000000000602082015250565b5f612cb8602283611e83565b9150612cc382612c5e565b604082019050919050565b5f6020820190508181035f830152612ce581612cac565b9050919050565b7f596f7520617265206e6f74207468652077696e6e6572000000000000000000005f82015250565b5f612d20601683611e83565b9150612d2b82612cec565b602082019050919050565b5f6020820190508181035f830152612d4d81612d14565b9050919050565b5f606082019050612d675f830186611b73565b612d74602083018561201a565b612d816040830184611b73565b94935050505056fea2646970667358221220d78dd22a79f5fc368e762dcfb71c893d66f14cfad3918ef5d59fba7fa88b10c664736f6c63430008160033",
					"opcodes": "PUSH1 0x80 PUSH1 0x40 MSTORE PUSH1 0xFA PUSH1 0x1 SSTORE PUSH1 0x12 PUSH1 0x2 SSTORE CALLVALUE DUP1 ISZERO PUSH3 0x1A JUMPI PUSH0 DUP1 REVERT JUMPDEST POP PUSH1 0x40 MLOAD PUSH3 0x335B CODESIZE SUB DUP1 PUSH3 0x335B DUP4 CODECOPY DUP2 DUP2 ADD PUSH1 0x40 MSTORE DUP2 ADD SWAP1 PUSH3 0x40 SWAP2 SWAP1 PUSH3 0x224 JUMP JUMPDEST CALLER PUSH0 DUP1 PUSH2 0x100 EXP DUP2 SLOAD DUP2 PUSH20 0xFFFFFFFFFFFFFFFFFFFFFFFFFFFFFFFFFFFFFFFF MUL NOT AND SWAP1 DUP4 PUSH20 0xFFFFFFFFFFFFFFFFFFFFFFFFFFFFFFFFFFFFFFFF AND MUL OR SWAP1 SSTORE POP PUSH0 PUSH1 0x4 DUP2 SWAP1 SSTORE POP DUP1 PUSH1 0x9 SWAP1 DUP2 PUSH3 0x97 SWAP2 SWAP1 PUSH3 0x4AA JUMP JUMPDEST POP POP PUSH3 0x58E JUMP JUMPDEST PUSH0 PUSH1 0x40 MLOAD SWAP1 POP SWAP1 JUMP JUMPDEST PUSH0 DUP1 REVERT JUMPDEST PUSH0 DUP1 REVERT JUMPDEST PUSH0 DUP1 REVERT JUMPDEST PUSH0 DUP1 REVERT JUMPDEST PUSH0 PUSH1 0x1F NOT PUSH1 0x1F DUP4 ADD AND SWAP1 POP SWAP2 SWAP1 POP JUMP JUMPDEST PUSH32 0x4E487B7100000000000000000000000000000000000000000000000000000000 PUSH0 MSTORE PUSH1 0x41 PUSH1 0x4 MSTORE PUSH1 0x24 PUSH0 REVERT JUMPDEST PUSH3 0x100 DUP3 PUSH3 0xB8 JUMP JUMPDEST DUP2 ADD DUP2 DUP2 LT PUSH8 0xFFFFFFFFFFFFFFFF DUP3 GT OR ISZERO PUSH3 0x122 JUMPI PUSH3 0x121 PUSH3 0xC8 JUMP JUMPDEST JUMPDEST DUP1 PUSH1 0x40 MSTORE POP POP POP JUMP JUMPDEST PUSH0 PUSH3 0x136 PUSH3 0x9F JUMP JUMPDEST SWAP1 POP PUSH3 0x144 DUP3 DUP3 PUSH3 0xF5 JUMP JUMPDEST SWAP2 SWAP1 POP JUMP JUMPDEST PUSH0 PUSH8 0xFFFFFFFFFFFFFFFF DUP3 GT ISZERO PUSH3 0x166 JUMPI PUSH3 0x165 PUSH3 0xC8 JUMP JUMPDEST JUMPDEST PUSH3 0x171 DUP3 PUSH3 0xB8 JUMP JUMPDEST SWAP1 POP PUSH1 0x20 DUP2 ADD SWAP1 POP SWAP2 SWAP1 POP JUMP JUMPDEST PUSH0 JUMPDEST DUP4 DUP2 LT ISZERO PUSH3 0x19D JUMPI DUP1 DUP3 ADD MLOAD DUP2 DUP5 ADD MSTORE PUSH1 0x20 DUP2 ADD SWAP1 POP PUSH3 0x180 JUMP JUMPDEST PUSH0 DUP5 DUP5 ADD MSTORE POP POP POP POP JUMP JUMPDEST PUSH0 PUSH3 0x1BE PUSH3 0x1B8 DUP5 PUSH3 0x149 JUMP JUMPDEST PUSH3 0x12B JUMP JUMPDEST SWAP1 POP DUP3 DUP2 MSTORE PUSH1 0x20 DUP2 ADD DUP5 DUP5 DUP5 ADD GT ISZERO PUSH3 0x1DD JUMPI PUSH3 0x1DC PUSH3 0xB4 JUMP JUMPDEST JUMPDEST PUSH3 0x1EA DUP5 DUP3 DUP6 PUSH3 0x17E JUMP JUMPDEST POP SWAP4 SWAP3 POP POP POP JUMP JUMPDEST PUSH0 DUP3 PUSH1 0x1F DUP4 ADD SLT PUSH3 0x209 JUMPI PUSH3 0x208 PUSH3 0xB0 JUMP JUMPDEST JUMPDEST DUP2 MLOAD PUSH3 0x21B DUP5 DUP3 PUSH1 0x20 DUP7 ADD PUSH3 0x1A8 JUMP JUMPDEST SWAP2 POP POP SWAP3 SWAP2 POP POP JUMP JUMPDEST PUSH0 PUSH1 0x20 DUP3 DUP5 SUB SLT ISZERO PUSH3 0x23C JUMPI PUSH3 0x23B PUSH3 0xA8 JUMP JUMPDEST JUMPDEST PUSH0 DUP3 ADD MLOAD PUSH8 0xFFFFFFFFFFFFFFFF DUP2 GT ISZERO PUSH3 0x25C JUMPI PUSH3 0x25B PUSH3 0xAC JUMP JUMPDEST JUMPDEST PUSH3 0x26A DUP5 DUP3 DUP6 ADD PUSH3 0x1F2 JUMP JUMPDEST SWAP2 POP POP SWAP3 SWAP2 POP POP JUMP JUMPDEST PUSH0 DUP2 MLOAD SWAP1 POP SWAP2 SWAP1 POP JUMP JUMPDEST PUSH32 0x4E487B7100000000000000000000000000000000000000000000000000000000 PUSH0 MSTORE PUSH1 0x22 PUSH1 0x4 MSTORE PUSH1 0x24 PUSH0 REVERT JUMPDEST PUSH0 PUSH1 0x2 DUP3 DIV SWAP1 POP PUSH1 0x1 DUP3 AND DUP1 PUSH3 0x2C2 JUMPI PUSH1 0x7F DUP3 AND SWAP2 POP JUMPDEST PUSH1 0x20 DUP3 LT DUP2 SUB PUSH3 0x2D8 JUMPI PUSH3 0x2D7 PUSH3 0x27D JUMP JUMPDEST JUMPDEST POP SWAP2 SWAP1 POP JUMP JUMPDEST PUSH0 DUP2 SWAP1 POP DUP2 PUSH0 MSTORE PUSH1 0x20 PUSH0 KECCAK256 SWAP1 POP SWAP2 SWAP1 POP JUMP JUMPDEST PUSH0 PUSH1 0x20 PUSH1 0x1F DUP4 ADD DIV SWAP1 POP SWAP2 SWAP1 POP JUMP JUMPDEST PUSH0 DUP3 DUP3 SHL SWAP1 POP SWAP3 SWAP2 POP POP JUMP JUMPDEST PUSH0 PUSH1 0x8 DUP4 MUL PUSH3 0x33C PUSH32 0xFFFFFFFFFFFFFFFFFFFFFFFFFFFFFFFFFFFFFFFFFFFFFFFFFFFFFFFFFFFFFFFF DUP3 PUSH3 0x2FF JUMP JUMPDEST PUSH3 0x348 DUP7 DUP4 PUSH3 0x2FF JUMP JUMPDEST SWAP6 POP DUP1 NOT DUP5 AND SWAP4 POP DUP1 DUP7 AND DUP5 OR SWAP3 POP POP POP SWAP4 SWAP3 POP POP POP JUMP JUMPDEST PUSH0 DUP2 SWAP1 POP SWAP2 SWAP1 POP JUMP JUMPDEST PUSH0 DUP2 SWAP1 POP SWAP2 SWAP1 POP JUMP JUMPDEST PUSH0 PUSH3 0x392 PUSH3 0x38C PUSH3 0x386 DUP5 PUSH3 0x360 JUMP JUMPDEST PUSH3 0x369 JUMP JUMPDEST PUSH3 0x360 JUMP JUMPDEST SWAP1 POP SWAP2 SWAP1 POP JUMP JUMPDEST PUSH0 DUP2 SWAP1 POP SWAP2 SWAP1 POP JUMP JUMPDEST PUSH3 0x3AD DUP4 PUSH3 0x372 JUMP JUMPDEST PUSH3 0x3C5 PUSH3 0x3BC DUP3 PUSH3 0x399 JUMP JUMPDEST DUP5 DUP5 SLOAD PUSH3 0x30B JUMP JUMPDEST DUP3 SSTORE POP POP POP POP JUMP JUMPDEST PUSH0 SWAP1 JUMP JUMPDEST PUSH3 0x3DB PUSH3 0x3CD JUMP JUMPDEST PUSH3 0x3E8 DUP2 DUP5 DUP5 PUSH3 0x3A2 JUMP JUMPDEST POP POP POP JUMP JUMPDEST JUMPDEST DUP2 DUP2 LT ISZERO PUSH3 0x40F JUMPI PUSH3 0x403 PUSH0 DUP3 PUSH3 0x3D1 JUMP JUMPDEST PUSH1 0x1 DUP2 ADD SWAP1 POP PUSH3 0x3EE JUMP JUMPDEST POP POP JUMP JUMPDEST PUSH1 0x1F DUP3 GT ISZERO PUSH3 0x45E JUMPI PUSH3 0x428 DUP2 PUSH3 0x2DE JUMP JUMPDEST PUSH3 0x433 DUP5 PUSH3 0x2F0 JUMP JUMPDEST DUP2 ADD PUSH1 0x20 DUP6 LT ISZERO PUSH3 0x443 JUMPI DUP2 SWAP1 POP JUMPDEST PUSH3 0x45B PUSH3 0x452 DUP6 PUSH3 0x2F0 JUMP JUMPDEST DUP4 ADD DUP3 PUSH3 0x3ED JUMP JUMPDEST POP POP JUMPDEST POP POP POP JUMP JUMPDEST PUSH0 DUP3 DUP3 SHR SWAP1 POP SWAP3 SWAP2 POP POP JUMP JUMPDEST PUSH0 PUSH3 0x480 PUSH0 NOT DUP5 PUSH1 0x8 MUL PUSH3 0x463 JUMP JUMPDEST NOT DUP1 DUP4 AND SWAP2 POP POP SWAP3 SWAP2 POP POP JUMP JUMPDEST PUSH0 PUSH3 0x49A DUP4 DUP4 PUSH3 0x46F JUMP JUMPDEST SWAP2 POP DUP3 PUSH1 0x2 MUL DUP3 OR SWAP1 POP SWAP3 SWAP2 POP POP JUMP JUMPDEST PUSH3 0x4B5 DUP3 PUSH3 0x273 JUMP JUMPDEST PUSH8 0xFFFFFFFFFFFFFFFF DUP2 GT ISZERO PUSH3 0x4D1 JUMPI PUSH3 0x4D0 PUSH3 0xC8 JUMP JUMPDEST JUMPDEST PUSH3 0x4DD DUP3 SLOAD PUSH3 0x2AA JUMP JUMPDEST PUSH3 0x4EA DUP3 DUP3 DUP6 PUSH3 0x413 JUMP JUMPDEST PUSH0 PUSH1 0x20 SWAP1 POP PUSH1 0x1F DUP4 GT PUSH1 0x1 DUP2 EQ PUSH3 0x520 JUMPI PUSH0 DUP5 ISZERO PUSH3 0x50B JUMPI DUP3 DUP8 ADD MLOAD SWAP1 POP JUMPDEST PUSH3 0x517 DUP6 DUP3 PUSH3 0x48D JUMP JUMPDEST DUP7 SSTORE POP PUSH3 0x586 JUMP JUMPDEST PUSH1 0x1F NOT DUP5 AND PUSH3 0x530 DUP7 PUSH3 0x2DE JUMP JUMPDEST PUSH0 JUMPDEST DUP3 DUP2 LT ISZERO PUSH3 0x559 JUMPI DUP5 DUP10 ADD MLOAD DUP3 SSTORE PUSH1 0x1 DUP3 ADD SWAP2 POP PUSH1 0x20 DUP6 ADD SWAP5 POP PUSH1 0x20 DUP2 ADD SWAP1 POP PUSH3 0x532 JUMP JUMPDEST DUP7 DUP4 LT ISZERO PUSH3 0x579 JUMPI DUP5 DUP10 ADD MLOAD PUSH3 0x575 PUSH1 0x1F DUP10 AND DUP3 PUSH3 0x46F JUMP JUMPDEST DUP4 SSTORE POP JUMPDEST PUSH1 0x1 PUSH1 0x2 DUP9 MUL ADD DUP9 SSTORE POP POP POP JUMPDEST POP POP POP POP POP POP JUMP JUMPDEST PUSH2 0x2DBF DUP1 PUSH3 0x59C PUSH0 CODECOPY PUSH0 RETURN INVALID PUSH1 0x80 PUSH1 0x40 MSTORE PUSH1 0x4 CALLDATASIZE LT PUSH2 0x165 JUMPI PUSH0 CALLDATALOAD PUSH1 0xE0 SHR DUP1 PUSH4 0x8DA5CB5B GT PUSH2 0xD0 JUMPI DUP1 PUSH4 0xD7098154 GT PUSH2 0x89 JUMPI DUP1 PUSH4 0xEE7BDC4F GT PUSH2 0x63 JUMPI DUP1 PUSH4 0xEE7BDC4F EQ PUSH2 0x50D JUMPI DUP1 PUSH4 0xF60CDCF6 EQ PUSH2 0x549 JUMPI DUP1 PUSH4 0xFCA846DC EQ PUSH2 0x573 JUMPI DUP1 PUSH4 0xFFDE0C74 EQ PUSH2 0x59D JUMPI PUSH2 0x165 JUMP JUMPDEST DUP1 PUSH4 0xD7098154 EQ PUSH2 0x491 JUMPI DUP1 PUSH4 0xE0176DE8 EQ PUSH2 0x4B9 JUMPI DUP1 PUSH4 0xE5A62C48 EQ PUSH2 0x4E3 JUMPI PUSH2 0x165 JUMP JUMPDEST DUP1 PUSH4 0x8DA5CB5B EQ PUSH2 0x375 JUMPI DUP1 PUSH4 0x99F526DD EQ PUSH2 0x39F JUMPI DUP1 PUSH4 0xA813895B EQ PUSH2 0x3DB JUMPI DUP1 PUSH4 0xB1275F9A EQ PUSH2 0x417 JUMPI DUP1 PUSH4 0xBD798A3F EQ PUSH2 0x43F JUMPI DUP1 PUSH4 0xC04C5947 EQ PUSH2 0x467 JUMPI PUSH2 0x165 JUMP JUMPDEST DUP1 PUSH4 0x55519D87 GT PUSH2 0x122 JUMPI DUP1 PUSH4 0x55519D87 EQ PUSH2 0x279 JUMPI DUP1 PUSH4 0x6EDFF590 EQ PUSH2 0x2A3 JUMPI DUP1 PUSH4 0x6F9FB98A EQ PUSH2 0x2CD JUMPI DUP1 PUSH4 0x73AEDCEC EQ PUSH2 0x2F7 JUMPI DUP1 PUSH4 0x77C93662 EQ PUSH2 0x321 JUMPI DUP1 PUSH4 0x8B5B9CCC EQ PUSH2 0x34B JUMPI PUSH2 0x165 JUMP JUMPDEST DUP1 PUSH4 0xBD79431 EQ PUSH2 0x169 JUMPI DUP1 PUSH4 0x13E96552 EQ PUSH2 0x193 JUMPI DUP1 PUSH4 0x15C9C011 EQ PUSH2 0x1CF JUMPI DUP1 PUSH4 0x298EC208 EQ PUSH2 0x20B JUMPI DUP1 PUSH4 0x2D6EF310 EQ PUSH2 0x227 JUMPI DUP1 PUSH4 0x4664611E EQ PUSH2 0x24F JUMPI JUMPDEST PUSH0 DUP1 REVERT JUMPDEST CALLVALUE DUP1 ISZERO PUSH2 0x174 JUMPI PUSH0 DUP1 REVERT JUMPDEST POP PUSH2 0x17D PUSH2 0x5D9 JUMP JUMPDEST PUSH1 0x40 MLOAD PUSH2 0x18A SWAP2 SWAP1 PUSH2 0x1B82 JUMP JUMPDEST PUSH1 0x40 MLOAD DUP1 SWAP2 SUB SWAP1 RETURN JUMPDEST CALLVALUE DUP1 ISZERO PUSH2 0x19E JUMPI PUSH0 DUP1 REVERT JUMPDEST POP PUSH2 0x1B9 PUSH1 0x4 DUP1 CALLDATASIZE SUB DUP2 ADD SWAP1 PUSH2 0x1B4 SWAP2 SWAP1 PUSH2 0x1D12 JUMP JUMPDEST PUSH2 0x5DE JUMP JUMPDEST PUSH1 0x40 MLOAD PUSH2 0x1C6 SWAP2 SWAP1 PUSH2 0x1B82 JUMP JUMPDEST PUSH1 0x40 MLOAD DUP1 SWAP2 SUB SWAP1 RETURN JUMPDEST CALLVALUE DUP1 ISZERO PUSH2 0x1DA JUMPI PUSH0 DUP1 REVERT JUMPDEST POP PUSH2 0x1F5 PUSH1 0x4 DUP1 CALLDATASIZE SUB DUP2 ADD SWAP1 PUSH2 0x1F0 SWAP2 SWAP1 PUSH2 0x1DE5 JUMP JUMPDEST PUSH2 0x7A4 JUMP JUMPDEST PUSH1 0x40 MLOAD PUSH2 0x202 SWAP2 SWAP1 PUSH2 0x1B82 JUMP JUMPDEST PUSH1 0x40 MLOAD DUP1 SWAP2 SUB SWAP1 RETURN JUMPDEST PUSH2 0x225 PUSH1 0x4 DUP1 CALLDATASIZE SUB DUP2 ADD SWAP1 PUSH2 0x220 SWAP2 SWAP1 PUSH2 0x1E10 JUMP JUMPDEST PUSH2 0x7E1 JUMP JUMPDEST STOP JUMPDEST CALLVALUE DUP1 ISZERO PUSH2 0x232 JUMPI PUSH0 DUP1 REVERT JUMPDEST POP PUSH2 0x24D PUSH1 0x4 DUP1 CALLDATASIZE SUB DUP2 ADD SWAP1 PUSH2 0x248 SWAP2 SWAP1 PUSH2 0x1E4E JUMP JUMPDEST PUSH2 0xC18 JUMP JUMPDEST STOP JUMPDEST CALLVALUE DUP1 ISZERO PUSH2 0x25A JUMPI PUSH0 DUP1 REVERT JUMPDEST POP PUSH2 0x263 PUSH2 0xEED JUMP JUMPDEST PUSH1 0x40 MLOAD PUSH2 0x270 SWAP2 SWAP1 PUSH2 0x1B82 JUMP JUMPDEST PUSH1 0x40 MLOAD DUP1 SWAP2 SUB SWAP1 RETURN JUMPDEST CALLVALUE DUP1 ISZERO PUSH2 0x284 JUMPI PUSH0 DUP1 REVERT JUMPDEST POP PUSH2 0x28D PUSH2 0xEF3 JUMP JUMPDEST PUSH1 0x40 MLOAD PUSH2 0x29A SWAP2 SWAP1 PUSH2 0x1B82 JUMP JUMPDEST PUSH1 0x40 MLOAD DUP1 SWAP2 SUB SWAP1 RETURN JUMPDEST CALLVALUE DUP1 ISZERO PUSH2 0x2AE JUMPI PUSH0 DUP1 REVERT JUMPDEST POP PUSH2 0x2B7 PUSH2 0xEF9 JUMP JUMPDEST PUSH1 0x40 MLOAD PUSH2 0x2C4 SWAP2 SWAP1 PUSH2 0x1B82 JUMP JUMPDEST PUSH1 0x40 MLOAD DUP1 SWAP2 SUB SWAP1 RETURN JUMPDEST CALLVALUE DUP1 ISZERO PUSH2 0x2D8 JUMPI PUSH0 DUP1 REVERT JUMPDEST POP PUSH2 0x2E1 PUSH2 0xEFE JUMP JUMPDEST PUSH1 0x40 MLOAD PUSH2 0x2EE SWAP2 SWAP1 PUSH2 0x1B82 JUMP JUMPDEST PUSH1 0x40 MLOAD DUP1 SWAP2 SUB SWAP1 RETURN JUMPDEST CALLVALUE DUP1 ISZERO PUSH2 0x302 JUMPI PUSH0 DUP1 REVERT JUMPDEST POP PUSH2 0x30B PUSH2 0xF05 JUMP JUMPDEST PUSH1 0x40 MLOAD PUSH2 0x318 SWAP2 SWAP1 PUSH2 0x1B82 JUMP JUMPDEST PUSH1 0x40 MLOAD DUP1 SWAP2 SUB SWAP1 RETURN JUMPDEST CALLVALUE DUP1 ISZERO PUSH2 0x32C JUMPI PUSH0 DUP1 REVERT JUMPDEST POP PUSH2 0x335 PUSH2 0xF0A JUMP JUMPDEST PUSH1 0x40 MLOAD PUSH2 0x342 SWAP2 SWAP1 PUSH2 0x1EF3 JUMP JUMPDEST PUSH1 0x40 MLOAD DUP1 SWAP2 SUB SWAP1 RETURN JUMPDEST CALLVALUE DUP1 ISZERO PUSH2 0x356 JUMPI PUSH0 DUP1 REVERT JUMPDEST POP PUSH2 0x35F PUSH2 0xF96 JUMP JUMPDEST PUSH1 0x40 MLOAD PUSH2 0x36C SWAP2 SWAP1 PUSH2 0x1FFA JUMP JUMPDEST PUSH1 0x40 MLOAD DUP1 SWAP2 SUB SWAP1 RETURN JUMPDEST CALLVALUE DUP1 ISZERO PUSH2 0x380 JUMPI PUSH0 DUP1 REVERT JUMPDEST POP PUSH2 0x389 PUSH2 0x1021 JUMP JUMPDEST PUSH1 0x40 MLOAD PUSH2 0x396 SWAP2 SWAP1 PUSH2 0x2029 JUMP JUMPDEST PUSH1 0x40 MLOAD DUP1 SWAP2 SUB SWAP1 RETURN JUMPDEST CALLVALUE DUP1 ISZERO PUSH2 0x3AA JUMPI PUSH0 DUP1 REVERT JUMPDEST POP PUSH2 0x3C5 PUSH1 0x4 DUP1 CALLDATASIZE SUB DUP2 ADD SWAP1 PUSH2 0x3C0 SWAP2 SWAP1 PUSH2 0x1E10 JUMP JUMPDEST PUSH2 0x1044 JUMP JUMPDEST PUSH1 0x40 MLOAD PUSH2 0x3D2 SWAP2 SWAP1 PUSH2 0x2113 JUMP JUMPDEST PUSH1 0x40 MLOAD DUP1 SWAP2 SUB SWAP1 RETURN JUMPDEST CALLVALUE DUP1 ISZERO PUSH2 0x3E6 JUMPI PUSH0 DUP1 REVERT JUMPDEST POP PUSH2 0x401 PUSH1 0x4 DUP1 CALLDATASIZE SUB DUP2 ADD SWAP1 PUSH2 0x3FC SWAP2 SWAP1 PUSH2 0x2133 JUMP JUMPDEST PUSH2 0x11CB JUMP JUMPDEST PUSH1 0x40 MLOAD PUSH2 0x40E SWAP2 SWAP1 PUSH2 0x1B82 JUMP JUMPDEST PUSH1 0x40 MLOAD DUP1 SWAP2 SUB SWAP1 RETURN JUMPDEST CALLVALUE DUP1 ISZERO PUSH2 0x422 JUMPI PUSH0 DUP1 REVERT JUMPDEST POP PUSH2 0x43D PUSH1 0x4 DUP1 CALLDATASIZE SUB DUP2 ADD SWAP1 PUSH2 0x438 SWAP2 SWAP1 PUSH2 0x21C1 JUMP JUMPDEST PUSH2 0x13AE JUMP JUMPDEST STOP JUMPDEST CALLVALUE DUP1 ISZERO PUSH2 0x44A JUMPI PUSH0 DUP1 REVERT JUMPDEST POP PUSH2 0x465 PUSH1 0x4 DUP1 CALLDATASIZE SUB DUP2 ADD SWAP1 PUSH2 0x460 SWAP2 SWAP1 PUSH2 0x1E4E JUMP JUMPDEST PUSH2 0x1576 JUMP JUMPDEST STOP JUMPDEST CALLVALUE DUP1 ISZERO PUSH2 0x472 JUMPI PUSH0 DUP1 REVERT JUMPDEST POP PUSH2 0x47B PUSH2 0x17AE JUMP JUMPDEST PUSH1 0x40 MLOAD PUSH2 0x488 SWAP2 SWAP1 PUSH2 0x23BD JUMP JUMPDEST PUSH1 0x40 MLOAD DUP1 SWAP2 SUB SWAP1 RETURN JUMPDEST CALLVALUE DUP1 ISZERO PUSH2 0x49C JUMPI PUSH0 DUP1 REVERT JUMPDEST POP PUSH2 0x4B7 PUSH1 0x4 DUP1 CALLDATASIZE SUB DUP2 ADD SWAP1 PUSH2 0x4B2 SWAP2 SWAP1 PUSH2 0x1E4E JUMP JUMPDEST PUSH2 0x1894 JUMP JUMPDEST STOP JUMPDEST CALLVALUE DUP1 ISZERO PUSH2 0x4C4 JUMPI PUSH0 DUP1 REVERT JUMPDEST POP PUSH2 0x4CD PUSH2 0x1AC0 JUMP JUMPDEST PUSH1 0x40 MLOAD PUSH2 0x4DA SWAP2 SWAP1 PUSH2 0x1B82 JUMP JUMPDEST PUSH1 0x40 MLOAD DUP1 SWAP2 SUB SWAP1 RETURN JUMPDEST CALLVALUE DUP1 ISZERO PUSH2 0x4EE JUMPI PUSH0 DUP1 REVERT JUMPDEST POP PUSH2 0x4F7 PUSH2 0x1AC6 JUMP JUMPDEST PUSH1 0x40 MLOAD PUSH2 0x504 SWAP2 SWAP1 PUSH2 0x1B82 JUMP JUMPDEST PUSH1 0x40 MLOAD DUP1 SWAP2 SUB SWAP1 RETURN JUMPDEST CALLVALUE DUP1 ISZERO PUSH2 0x518 JUMPI PUSH0 DUP1 REVERT JUMPDEST POP PUSH2 0x533 PUSH1 0x4 DUP1 CALLDATASIZE SUB DUP2 ADD SWAP1 PUSH2 0x52E SWAP2 SWAP1 PUSH2 0x1E4E JUMP JUMPDEST PUSH2 0x1ACE JUMP JUMPDEST PUSH1 0x40 MLOAD PUSH2 0x540 SWAP2 SWAP1 PUSH2 0x1B82 JUMP JUMPDEST PUSH1 0x40 MLOAD DUP1 SWAP2 SUB SWAP1 RETURN JUMPDEST CALLVALUE DUP1 ISZERO PUSH2 0x554 JUMPI PUSH0 DUP1 REVERT JUMPDEST POP PUSH2 0x55D PUSH2 0x1AFA JUMP JUMPDEST PUSH1 0x40 MLOAD PUSH2 0x56A SWAP2 SWAP1 PUSH2 0x1B82 JUMP JUMPDEST PUSH1 0x40 MLOAD DUP1 SWAP2 SUB SWAP1 RETURN JUMPDEST CALLVALUE DUP1 ISZERO PUSH2 0x57E JUMPI PUSH0 DUP1 REVERT JUMPDEST POP PUSH2 0x587 PUSH2 0x1B00 JUMP JUMPDEST PUSH1 0x40 MLOAD PUSH2 0x594 SWAP2 SWAP1 PUSH2 0x1B82 JUMP JUMPDEST PUSH1 0x40 MLOAD DUP1 SWAP2 SUB SWAP1 RETURN JUMPDEST CALLVALUE DUP1 ISZERO PUSH2 0x5A8 JUMPI PUSH0 DUP1 REVERT JUMPDEST POP PUSH2 0x5C3 PUSH1 0x4 DUP1 CALLDATASIZE SUB DUP2 ADD SWAP1 PUSH2 0x5BE SWAP2 SWAP1 PUSH2 0x1E4E JUMP JUMPDEST PUSH2 0x1B06 JUMP JUMPDEST PUSH1 0x40 MLOAD PUSH2 0x5D0 SWAP2 SWAP1 PUSH2 0x23EC JUMP JUMPDEST PUSH1 0x40 MLOAD DUP1 SWAP2 SUB SWAP1 RETURN JUMPDEST PUSH1 0x4B DUP2 JUMP JUMPDEST PUSH0 DUP1 PUSH0 SWAP1 SLOAD SWAP1 PUSH2 0x100 EXP SWAP1 DIV PUSH20 0xFFFFFFFFFFFFFFFFFFFFFFFFFFFFFFFFFFFFFFFF AND PUSH20 0xFFFFFFFFFFFFFFFFFFFFFFFFFFFFFFFFFFFFFFFF AND CALLER PUSH20 0xFFFFFFFFFFFFFFFFFFFFFFFFFFFFFFFFFFFFFFFF AND EQ PUSH2 0x66D JUMPI PUSH1 0x40 MLOAD PUSH32 0x8C379A000000000000000000000000000000000000000000000000000000000 DUP2 MSTORE PUSH1 0x4 ADD PUSH2 0x664 SWAP1 PUSH2 0x2475 JUMP JUMPDEST PUSH1 0x40 MLOAD DUP1 SWAP2 SUB SWAP1 REVERT JUMPDEST PUSH0 PUSH1 0x7 DUP7 DUP2 SLOAD DUP2 LT PUSH2 0x682 JUMPI PUSH2 0x681 PUSH2 0x2493 JUMP JUMPDEST JUMPDEST SWAP1 PUSH0 MSTORE PUSH1 0x20 PUSH0 KECCAK256 SWAP1 PUSH1 0x9 MUL ADD PUSH0 ADD SLOAD SWAP1 POP PUSH1 0x8 PUSH0 DUP8 DUP2 MSTORE PUSH1 0x20 ADD SWAP1 DUP2 MSTORE PUSH1 0x20 ADD PUSH0 KECCAK256 PUSH1 0x40 MLOAD DUP1 PUSH1 0xA0 ADD PUSH1 0x40 MSTORE DUP1 DUP9 DUP2 MSTORE PUSH1 0x20 ADD DUP4 DUP2 MSTORE PUSH1 0x20 ADD DUP8 DUP2 MSTORE PUSH1 0x20 ADD DUP7 DUP2 MSTORE PUSH1 0x20 ADD DUP6 DUP2 MSTORE POP SWAP1 DUP1 PUSH1 0x1 DUP2 SLOAD ADD DUP1 DUP3 SSTORE DUP1 SWAP2 POP POP PUSH1 0x1 SWAP1 SUB SWAP1 PUSH0 MSTORE PUSH1 0x20 PUSH0 KECCAK256 SWAP1 PUSH1 0x5 MUL ADD PUSH0 SWAP1 SWAP2 SWAP1 SWAP2 SWAP1 SWAP2 POP PUSH0 DUP3 ADD MLOAD DUP2 PUSH0 ADD SSTORE PUSH1 0x20 DUP3 ADD MLOAD DUP2 PUSH1 0x1 ADD SSTORE PUSH1 0x40 DUP3 ADD MLOAD DUP2 PUSH1 0x2 ADD SSTORE PUSH1 0x60 DUP3 ADD MLOAD DUP2 PUSH1 0x3 ADD SWAP1 DUP2 PUSH2 0x722 SWAP2 SWAP1 PUSH2 0x26BA JUMP JUMPDEST POP PUSH1 0x80 DUP3 ADD MLOAD DUP2 PUSH1 0x4 ADD SWAP1 DUP2 PUSH2 0x738 SWAP2 SWAP1 PUSH2 0x26BA JUMP JUMPDEST POP POP POP PUSH1 0x1 PUSH1 0x8 PUSH0 DUP9 DUP2 MSTORE PUSH1 0x20 ADD SWAP1 DUP2 MSTORE PUSH1 0x20 ADD PUSH0 KECCAK256 DUP1 SLOAD SWAP1 POP PUSH2 0x75C SWAP2 SWAP1 PUSH2 0x27B6 JUMP JUMPDEST SWAP2 POP PUSH32 0x3332AEF7491C9CB15398882926A30726163412884D07A4B51AC2D8072AFF4308 DUP7 DUP4 DUP8 DUP5 PUSH1 0x40 MLOAD PUSH2 0x793 SWAP5 SWAP4 SWAP3 SWAP2 SWAP1 PUSH2 0x27E9 JUMP JUMPDEST PUSH1 0x40 MLOAD DUP1 SWAP2 SUB SWAP1 LOG1 POP SWAP5 SWAP4 POP POP POP POP JUMP JUMPDEST PUSH0 DUP1 PUSH4 0x1E13380 SWAP1 POP PUSH0 DUP2 PUSH1 0x12 DUP6 PUSH2 0x7BC SWAP2 SWAP1 PUSH2 0x282C JUMP JUMPDEST PUSH2 0xFFFF AND PUSH2 0x7CA SWAP2 SWAP1 PUSH2 0x2861 JUMP JUMPDEST TIMESTAMP PUSH2 0x7D5 SWAP2 SWAP1 PUSH2 0x28A2 JUMP JUMPDEST SWAP1 POP DUP1 SWAP3 POP POP POP SWAP2 SWAP1 POP JUMP JUMPDEST PUSH0 PUSH1 0x3 DUP2 GT ISZERO PUSH2 0x7F4 JUMPI PUSH2 0x7F3 PUSH2 0x2215 JUMP JUMPDEST JUMPDEST PUSH1 0x7 DUP4 DUP2 SLOAD DUP2 LT PUSH2 0x808 JUMPI PUSH2 0x807 PUSH2 0x2493 JUMP JUMPDEST JUMPDEST SWAP1 PUSH0 MSTORE PUSH1 0x20 PUSH0 KECCAK256 SWAP1 PUSH1 0x9 MUL ADD PUSH1 0x3 ADD PUSH0 SWAP1 SLOAD SWAP1 PUSH2 0x100 EXP SWAP1 DIV PUSH1 0xFF AND PUSH1 0x3 DUP2 GT ISZERO PUSH2 0x836 JUMPI PUSH2 0x835 PUSH2 0x2215 JUMP JUMPDEST JUMPDEST EQ PUSH2 0x876 JUMPI PUSH1 0x40 MLOAD PUSH32 0x8C379A000000000000000000000000000000000000000000000000000000000 DUP2 MSTORE PUSH1 0x4 ADD PUSH2 0x86D SWAP1 PUSH2 0x2945 JUMP JUMPDEST PUSH1 0x40 MLOAD DUP1 SWAP2 SUB SWAP1 REVERT JUMPDEST PUSH1 0x7 DUP3 DUP2 SLOAD DUP2 LT PUSH2 0x88A JUMPI PUSH2 0x889 PUSH2 0x2493 JUMP JUMPDEST JUMPDEST SWAP1 PUSH0 MSTORE PUSH1 0x20 PUSH0 KECCAK256 SWAP1 PUSH1 0x9 MUL ADD PUSH1 0x5 ADD SLOAD PUSH1 0x7 DUP4 DUP2 SLOAD DUP2 LT PUSH2 0x8AE JUMPI PUSH2 0x8AD PUSH2 0x2493 JUMP JUMPDEST JUMPDEST SWAP1 PUSH0 MSTORE PUSH1 0x20 PUSH0 KECCAK256 SWAP1 PUSH1 0x9 MUL ADD PUSH1 0x4 ADD SLOAD GT ISZERO PUSH2 0x8FF JUMPI PUSH1 0x40 MLOAD PUSH32 0x8C379A000000000000000000000000000000000000000000000000000000000 DUP2 MSTORE PUSH1 0x4 ADD PUSH2 0x8F6 SWAP1 PUSH2 0x29AD JUMP JUMPDEST PUSH1 0x40 MLOAD DUP1 SWAP2 SUB SWAP1 REVERT JUMPDEST PUSH0 DUP2 LT ISZERO DUP1 ISZERO PUSH2 0x932 JUMPI POP PUSH1 0x7 DUP3 DUP2 SLOAD DUP2 LT PUSH2 0x91E JUMPI PUSH2 0x91D PUSH2 0x2493 JUMP JUMPDEST JUMPDEST SWAP1 PUSH0 MSTORE PUSH1 0x20 PUSH0 KECCAK256 SWAP1 PUSH1 0x9 MUL ADD PUSH1 0x5 ADD SLOAD DUP2 GT ISZERO JUMPDEST PUSH2 0x971 JUMPI PUSH1 0x40 MLOAD PUSH32 0x8C379A000000000000000000000000000000000000000000000000000000000 DUP2 MSTORE PUSH1 0x4 ADD PUSH2 0x968 SWAP1 PUSH2 0x2A15 JUMP JUMPDEST PUSH1 0x40 MLOAD DUP1 SWAP2 SUB SWAP1 REVERT JUMPDEST PUSH1 0x40 MLOAD DUP1 PUSH1 0x60 ADD PUSH1 0x40 MSTORE DUP1 PUSH1 0x7 DUP5 DUP2 SLOAD DUP2 LT PUSH2 0x990 JUMPI PUSH2 0x98F PUSH2 0x2493 JUMP JUMPDEST JUMPDEST SWAP1 PUSH0 MSTORE PUSH1 0x20 PUSH0 KECCAK256 SWAP1 PUSH1 0x9 MUL ADD PUSH0 ADD SLOAD DUP2 MSTORE PUSH1 0x20 ADD CALLER PUSH20 0xFFFFFFFFFFFFFFFFFFFFFFFFFFFFFFFFFFFFFFFF AND DUP2 MSTORE PUSH1 0x20 ADD DUP3 DUP2 MSTORE POP PUSH1 0x6 PUSH0 CALLER PUSH20 0xFFFFFFFFFFFFFFFFFFFFFFFFFFFFFFFFFFFFFFFF AND PUSH20 0xFFFFFFFFFFFFFFFFFFFFFFFFFFFFFFFFFFFFFFFF AND DUP2 MSTORE PUSH1 0x20 ADD SWAP1 DUP2 MSTORE PUSH1 0x20 ADD PUSH0 KECCAK256 PUSH0 DUP3 ADD MLOAD DUP2 PUSH0 ADD SSTORE PUSH1 0x20 DUP3 ADD MLOAD DUP2 PUSH1 0x1 ADD PUSH0 PUSH2 0x100 EXP DUP2 SLOAD DUP2 PUSH20 0xFFFFFFFFFFFFFFFFFFFFFFFFFFFFFFFFFFFFFFFF MUL NOT AND SWAP1 DUP4 PUSH20 0xFFFFFFFFFFFFFFFFFFFFFFFFFFFFFFFFFFFFFFFF AND MUL OR SWAP1 SSTORE POP PUSH1 0x40 DUP3 ADD MLOAD DUP2 PUSH1 0x2 ADD SSTORE SWAP1 POP POP PUSH1 0x5 CALLER SWAP1 DUP1 PUSH1 0x1 DUP2 SLOAD ADD DUP1 DUP3 SSTORE DUP1 SWAP2 POP POP PUSH1 0x1 SWAP1 SUB SWAP1 PUSH0 MSTORE PUSH1 0x20 PUSH0 KECCAK256 ADD PUSH0 SWAP1 SWAP2 SWAP1 SWAP2 SWAP1 SWAP2 PUSH2 0x100 EXP DUP2 SLOAD DUP2 PUSH20 0xFFFFFFFFFFFFFFFFFFFFFFFFFFFFFFFFFFFFFFFF MUL NOT AND SWAP1 DUP4 PUSH20 0xFFFFFFFFFFFFFFFFFFFFFFFFFFFFFFFFFFFFFFFF AND MUL OR SWAP1 SSTORE POP PUSH1 0x1 PUSH1 0x7 DUP4 DUP2 SLOAD DUP2 LT PUSH2 0xAD2 JUMPI PUSH2 0xAD1 PUSH2 0x2493 JUMP JUMPDEST JUMPDEST SWAP1 PUSH0 MSTORE PUSH1 0x20 PUSH0 KECCAK256 SWAP1 PUSH1 0x9 MUL ADD PUSH1 0x4 ADD PUSH0 DUP3 DUP3 SLOAD PUSH2 0xAEF SWAP2 SWAP1 PUSH2 0x28A2 JUMP JUMPDEST SWAP3 POP POP DUP2 SWAP1 SSTORE POP PUSH1 0x7 DUP3 DUP2 SLOAD DUP2 LT PUSH2 0xB0A JUMPI PUSH2 0xB09 PUSH2 0x2493 JUMP JUMPDEST JUMPDEST SWAP1 PUSH0 MSTORE PUSH1 0x20 PUSH0 KECCAK256 SWAP1 PUSH1 0x9 MUL ADD PUSH1 0x5 ADD SLOAD PUSH1 0x7 DUP4 DUP2 SLOAD DUP2 LT PUSH2 0xB2E JUMPI PUSH2 0xB2D PUSH2 0x2493 JUMP JUMPDEST JUMPDEST SWAP1 PUSH0 MSTORE PUSH1 0x20 PUSH0 KECCAK256 SWAP1 PUSH1 0x9 MUL ADD PUSH1 0x4 ADD SLOAD SUB PUSH2 0xBB7 JUMPI PUSH1 0x1 PUSH1 0x7 DUP4 DUP2 SLOAD DUP2 LT PUSH2 0xB59 JUMPI PUSH2 0xB58 PUSH2 0x2493 JUMP JUMPDEST JUMPDEST SWAP1 PUSH0 MSTORE PUSH1 0x20 PUSH0 KECCAK256 SWAP1 PUSH1 0x9 MUL ADD PUSH1 0x3 ADD PUSH0 PUSH2 0x100 EXP DUP2 SLOAD DUP2 PUSH1 0xFF MUL NOT AND SWAP1 DUP4 PUSH1 0x3 DUP2 GT ISZERO PUSH2 0xB89 JUMPI PUSH2 0xB88 PUSH2 0x2215 JUMP JUMPDEST JUMPDEST MUL OR SWAP1 SSTORE POP TIMESTAMP PUSH1 0x7 DUP4 DUP2 SLOAD DUP2 LT PUSH2 0xBA3 JUMPI PUSH2 0xBA2 PUSH2 0x2493 JUMP JUMPDEST JUMPDEST SWAP1 PUSH0 MSTORE PUSH1 0x20 PUSH0 KECCAK256 SWAP1 PUSH1 0x9 MUL ADD PUSH1 0x2 ADD DUP2 SWAP1 SSTORE POP JUMPDEST PUSH32 0x200C56B5EA932E7EFE2F882AE8B04CB25AEC0C691ACE0E0754B75655FEC67DA7 DUP3 DUP3 PUSH1 0x7 DUP6 DUP2 SLOAD DUP2 LT PUSH2 0xBEE JUMPI PUSH2 0xBED PUSH2 0x2493 JUMP JUMPDEST JUMPDEST SWAP1 PUSH0 MSTORE PUSH1 0x20 PUSH0 KECCAK256 SWAP1 PUSH1 0x9 MUL ADD PUSH0 ADD SLOAD PUSH1 0x40 MLOAD PUSH2 0xC0C SWAP4 SWAP3 SWAP2 SWAP1 PUSH2 0x2A33 JUMP JUMPDEST PUSH1 0x40 MLOAD DUP1 SWAP2 SUB SWAP1 LOG1 POP POP JUMP JUMPDEST PUSH0 DUP1 SLOAD SWAP1 PUSH2 0x100 EXP SWAP1 DIV PUSH20 0xFFFFFFFFFFFFFFFFFFFFFFFFFFFFFFFFFFFFFFFF AND PUSH20 0xFFFFFFFFFFFFFFFFFFFFFFFFFFFFFFFFFFFFFFFF AND CALLER PUSH20 0xFFFFFFFFFFFFFFFFFFFFFFFFFFFFFFFFFFFFFFFF AND EQ PUSH2 0xCA5 JUMPI PUSH1 0x40 MLOAD PUSH32 0x8C379A000000000000000000000000000000000000000000000000000000000 DUP2 MSTORE PUSH1 0x4 ADD PUSH2 0xC9C SWAP1 PUSH2 0x2475 JUMP JUMPDEST PUSH1 0x40 MLOAD DUP1 SWAP2 SUB SWAP1 REVERT JUMPDEST PUSH1 0x1 PUSH1 0x3 DUP2 GT ISZERO PUSH2 0xCB9 JUMPI PUSH2 0xCB8 PUSH2 0x2215 JUMP JUMPDEST JUMPDEST PUSH1 0x7 DUP3 DUP2 SLOAD DUP2 LT PUSH2 0xCCD JUMPI PUSH2 0xCCC PUSH2 0x2493 JUMP JUMPDEST JUMPDEST SWAP1 PUSH0 MSTORE PUSH1 0x20 PUSH0 KECCAK256 SWAP1 PUSH1 0x9 MUL ADD PUSH1 0x3 ADD PUSH0 SWAP1 SLOAD SWAP1 PUSH2 0x100 EXP SWAP1 DIV PUSH1 0xFF AND PUSH1 0x3 DUP2 GT ISZERO PUSH2 0xCFB JUMPI PUSH2 0xCFA PUSH2 0x2215 JUMP JUMPDEST JUMPDEST EQ PUSH2 0xD3B JUMPI PUSH1 0x40 MLOAD PUSH32 0x8C379A000000000000000000000000000000000000000000000000000000000 DUP2 MSTORE PUSH1 0x4 ADD PUSH2 0xD32 SWAP1 PUSH2 0x2AB2 JUMP JUMPDEST PUSH1 0x40 MLOAD DUP1 SWAP2 SUB SWAP1 REVERT JUMPDEST PUSH1 0x7 DUP2 DUP2 SLOAD DUP2 LT PUSH2 0xD4F JUMPI PUSH2 0xD4E PUSH2 0x2493 JUMP JUMPDEST JUMPDEST SWAP1 PUSH0 MSTORE PUSH1 0x20 PUSH0 KECCAK256 SWAP1 PUSH1 0x9 MUL ADD PUSH1 0x5 ADD SLOAD TIMESTAMP PUSH1 0x40 MLOAD PUSH1 0x20 ADD PUSH2 0xD70 SWAP2 SWAP1 PUSH2 0x2AF0 JUMP JUMPDEST PUSH1 0x40 MLOAD PUSH1 0x20 DUP2 DUP4 SUB SUB DUP2 MSTORE SWAP1 PUSH1 0x40 MSTORE DUP1 MLOAD SWAP1 PUSH1 0x20 ADD KECCAK256 PUSH0 SHR PUSH2 0xD92 SWAP2 SWAP1 PUSH2 0x2B37 JUMP JUMPDEST PUSH1 0x4 DUP2 SWAP1 SSTORE POP PUSH1 0x2 PUSH1 0x7 DUP3 DUP2 SLOAD DUP2 LT PUSH2 0xDAE JUMPI PUSH2 0xDAD PUSH2 0x2493 JUMP JUMPDEST JUMPDEST SWAP1 PUSH0 MSTORE PUSH1 0x20 PUSH0 KECCAK256 SWAP1 PUSH1 0x9 MUL ADD PUSH1 0x3 ADD PUSH0 PUSH2 0x100 EXP DUP2 SLOAD DUP2 PUSH1 0xFF MUL NOT AND SWAP1 DUP4 PUSH1 0x3 DUP2 GT ISZERO PUSH2 0xDDE JUMPI PUSH2 0xDDD PUSH2 0x2215 JUMP JUMPDEST JUMPDEST MUL OR SWAP1 SSTORE POP PUSH1 0x7 DUP2 DUP2 SLOAD DUP2 LT PUSH2 0xDF7 JUMPI PUSH2 0xDF6 PUSH2 0x2493 JUMP JUMPDEST JUMPDEST SWAP1 PUSH0 MSTORE PUSH1 0x20 PUSH0 KECCAK256 SWAP1 PUSH1 0x9 MUL ADD PUSH1 0x5 ADD SLOAD PUSH1 0x7 DUP3 DUP2 SLOAD DUP2 LT PUSH2 0xE1B JUMPI PUSH2 0xE1A PUSH2 0x2493 JUMP JUMPDEST JUMPDEST SWAP1 PUSH0 MSTORE PUSH1 0x20 PUSH0 KECCAK256 SWAP1 PUSH1 0x9 MUL ADD PUSH1 0x4 ADD SLOAD EQ DUP1 ISZERO PUSH2 0xE39 JUMPI POP PUSH1 0x1 SLOAD SELFBALANCE GT JUMPDEST ISZERO PUSH2 0xEAF JUMPI PUSH0 DUP1 SLOAD SWAP1 PUSH2 0x100 EXP SWAP1 DIV PUSH20 0xFFFFFFFFFFFFFFFFFFFFFFFFFFFFFFFFFFFFFFFF AND PUSH20 0xFFFFFFFFFFFFFFFFFFFFFFFFFFFFFFFFFFFFFFFF AND PUSH2 0x8FC PUSH1 0x1 SLOAD SELFBALANCE PUSH2 0xE85 SWAP2 SWAP1 PUSH2 0x27B6 JUMP JUMPDEST SWAP1 DUP2 ISZERO MUL SWAP1 PUSH1 0x40 MLOAD PUSH0 PUSH1 0x40 MLOAD DUP1 DUP4 SUB DUP2 DUP6 DUP9 DUP9 CALL SWAP4 POP POP POP POP ISZERO DUP1 ISZERO PUSH2 0xEAD JUMPI RETURNDATASIZE PUSH0 DUP1 RETURNDATACOPY RETURNDATASIZE PUSH0 REVERT JUMPDEST POP JUMPDEST PUSH32 0x4C4660DB760944215F41E957066D756AD5FD0EED1B4640632322EB06F77B034D DUP2 PUSH1 0x4 SLOAD PUSH1 0x40 MLOAD PUSH2 0xEE2 SWAP3 SWAP2 SWAP1 PUSH2 0x2B67 JUMP JUMPDEST PUSH1 0x40 MLOAD DUP1 SWAP2 SUB SWAP1 LOG1 POP JUMP JUMPDEST PUSH1 0x4 SLOAD DUP2 JUMP JUMPDEST PUSH1 0x2 SLOAD DUP2 JUMP JUMPDEST PUSH1 0x1 DUP2 JUMP JUMPDEST PUSH0 SELFBALANCE SWAP1 POP SWAP1 JUMP JUMPDEST PUSH1 0x18 DUP2 JUMP JUMPDEST PUSH1 0x9 DUP1 SLOAD PUSH2 0xF17 SWAP1 PUSH2 0x24ED JUMP JUMPDEST DUP1 PUSH1 0x1F ADD PUSH1 0x20 DUP1 SWAP2 DIV MUL PUSH1 0x20 ADD PUSH1 0x40 MLOAD SWAP1 DUP2 ADD PUSH1 0x40 MSTORE DUP1 SWAP3 SWAP2 SWAP1 DUP2 DUP2 MSTORE PUSH1 0x20 ADD DUP3 DUP1 SLOAD PUSH2 0xF43 SWAP1 PUSH2 0x24ED JUMP JUMPDEST DUP1 ISZERO PUSH2 0xF8E JUMPI DUP1 PUSH1 0x1F LT PUSH2 0xF65 JUMPI PUSH2 0x100 DUP1 DUP4 SLOAD DIV MUL DUP4 MSTORE SWAP2 PUSH1 0x20 ADD SWAP2 PUSH2 0xF8E JUMP JUMPDEST DUP3 ADD SWAP2 SWAP1 PUSH0 MSTORE PUSH1 0x20 PUSH0 KECCAK256 SWAP1 JUMPDEST DUP2 SLOAD DUP2 MSTORE SWAP1 PUSH1 0x1 ADD SWAP1 PUSH1 0x20 ADD DUP1 DUP4 GT PUSH2 0xF71 JUMPI DUP3 SWAP1 SUB PUSH1 0x1F AND DUP3 ADD SWAP2 JUMPDEST POP POP POP POP POP DUP2 JUMP JUMPDEST PUSH1 0x60 PUSH1 0x5 DUP1 SLOAD DUP1 PUSH1 0x20 MUL PUSH1 0x20 ADD PUSH1 0x40 MLOAD SWAP1 DUP2 ADD PUSH1 0x40 MSTORE DUP1 SWAP3 SWAP2 SWAP1 DUP2 DUP2 MSTORE PUSH1 0x20 ADD DUP3 DUP1 SLOAD DUP1 ISZERO PUSH2 0x1017 JUMPI PUSH1 0x20 MUL DUP3 ADD SWAP2 SWAP1 PUSH0 MSTORE PUSH1 0x20 PUSH0 KECCAK256 SWAP1 JUMPDEST DUP2 PUSH0 SWAP1 SLOAD SWAP1 PUSH2 0x100 EXP SWAP1 DIV PUSH20 0xFFFFFFFFFFFFFFFFFFFFFFFFFFFFFFFFFFFFFFFF AND PUSH20 0xFFFFFFFFFFFFFFFFFFFFFFFFFFFFFFFFFFFFFFFF AND DUP2 MSTORE PUSH1 0x20 ADD SWAP1 PUSH1 0x1 ADD SWAP1 DUP1 DUP4 GT PUSH2 0xFCE JUMPI JUMPDEST POP POP POP POP POP SWAP1 POP SWAP1 JUMP JUMPDEST PUSH0 DUP1 SLOAD SWAP1 PUSH2 0x100 EXP SWAP1 DIV PUSH20 0xFFFFFFFFFFFFFFFFFFFFFFFFFFFFFFFFFFFFFFFF AND DUP2 JUMP JUMPDEST PUSH2 0x104C PUSH2 0x1B3E JUMP JUMPDEST PUSH1 0x8 PUSH0 DUP5 DUP2 MSTORE PUSH1 0x20 ADD SWAP1 DUP2 MSTORE PUSH1 0x20 ADD PUSH0 KECCAK256 DUP3 DUP2 SLOAD DUP2 LT PUSH2 0x106F JUMPI PUSH2 0x106E PUSH2 0x2493 JUMP JUMPDEST JUMPDEST SWAP1 PUSH0 MSTORE PUSH1 0x20 PUSH0 KECCAK256 SWAP1 PUSH1 0x5 MUL ADD PUSH1 0x40 MLOAD DUP1 PUSH1 0xA0 ADD PUSH1 0x40 MSTORE SWAP1 DUP2 PUSH0 DUP3 ADD SLOAD DUP2 MSTORE PUSH1 0x20 ADD PUSH1 0x1 DUP3 ADD SLOAD DUP2 MSTORE PUSH1 0x20 ADD PUSH1 0x2 DUP3 ADD SLOAD DUP2 MSTORE PUSH1 0x20 ADD PUSH1 0x3 DUP3 ADD DUP1 SLOAD PUSH2 0x10B3 SWAP1 PUSH2 0x24ED JUMP JUMPDEST DUP1 PUSH1 0x1F ADD PUSH1 0x20 DUP1 SWAP2 DIV MUL PUSH1 0x20 ADD PUSH1 0x40 MLOAD SWAP1 DUP2 ADD PUSH1 0x40 MSTORE DUP1 SWAP3 SWAP2 SWAP1 DUP2 DUP2 MSTORE PUSH1 0x20 ADD DUP3 DUP1 SLOAD PUSH2 0x10DF SWAP1 PUSH2 0x24ED JUMP JUMPDEST DUP1 ISZERO PUSH2 0x112A JUMPI DUP1 PUSH1 0x1F LT PUSH2 0x1101 JUMPI PUSH2 0x100 DUP1 DUP4 SLOAD DIV MUL DUP4 MSTORE SWAP2 PUSH1 0x20 ADD SWAP2 PUSH2 0x112A JUMP JUMPDEST DUP3 ADD SWAP2 SWAP1 PUSH0 MSTORE PUSH1 0x20 PUSH0 KECCAK256 SWAP1 JUMPDEST DUP2 SLOAD DUP2 MSTORE SWAP1 PUSH1 0x1 ADD SWAP1 PUSH1 0x20 ADD DUP1 DUP4 GT PUSH2 0x110D JUMPI DUP3 SWAP1 SUB PUSH1 0x1F AND DUP3 ADD SWAP2 JUMPDEST POP POP POP POP POP DUP2 MSTORE PUSH1 0x20 ADD PUSH1 0x4 DUP3 ADD DUP1 SLOAD PUSH2 0x1143 SWAP1 PUSH2 0x24ED JUMP JUMPDEST DUP1 PUSH1 0x1F ADD PUSH1 0x20 DUP1 SWAP2 DIV MUL PUSH1 0x20 ADD PUSH1 0x40 MLOAD SWAP1 DUP2 ADD PUSH1 0x40 MSTORE DUP1 SWAP3 SWAP2 SWAP1 DUP2 DUP2 MSTORE PUSH1 0x20 ADD DUP3 DUP1 SLOAD PUSH2 0x116F SWAP1 PUSH2 0x24ED JUMP JUMPDEST DUP1 ISZERO PUSH2 0x11BA JUMPI DUP1 PUSH1 0x1F LT PUSH2 0x1191 JUMPI PUSH2 0x100 DUP1 DUP4 SLOAD DIV MUL DUP4 MSTORE SWAP2 PUSH1 0x20 ADD SWAP2 PUSH2 0x11BA JUMP JUMPDEST DUP3 ADD SWAP2 SWAP1 PUSH0 MSTORE PUSH1 0x20 PUSH0 KECCAK256 SWAP1 JUMPDEST DUP2 SLOAD DUP2 MSTORE SWAP1 PUSH1 0x1 ADD SWAP1 PUSH1 0x20 ADD DUP1 DUP4 GT PUSH2 0x119D JUMPI DUP3 SWAP1 SUB PUSH1 0x1F AND DUP3 ADD SWAP2 JUMPDEST POP POP POP POP POP DUP2 MSTORE POP POP SWAP1 POP SWAP3 SWAP2 POP POP JUMP JUMPDEST PUSH0 DUP1 PUSH0 SWAP1 SLOAD SWAP1 PUSH2 0x100 EXP SWAP1 DIV PUSH20 0xFFFFFFFFFFFFFFFFFFFFFFFFFFFFFFFFFFFFFFFF AND PUSH20 0xFFFFFFFFFFFFFFFFFFFFFFFFFFFFFFFFFFFFFFFF AND CALLER PUSH20 0xFFFFFFFFFFFFFFFFFFFFFFFFFFFFFFFFFFFFFFFF AND EQ PUSH2 0x125A JUMPI PUSH1 0x40 MLOAD PUSH32 0x8C379A000000000000000000000000000000000000000000000000000000000 DUP2 MSTORE PUSH1 0x4 ADD PUSH2 0x1251 SWAP1 PUSH2 0x2475 JUMP JUMPDEST PUSH1 0x40 MLOAD DUP1 SWAP2 SUB SWAP1 REVERT JUMPDEST PUSH1 0x7 PUSH1 0x40 MLOAD DUP1 PUSH2 0x120 ADD PUSH1 0x40 MSTORE DUP1 DUP8 DUP2 MSTORE PUSH1 0x20 ADD DUP7 DUP2 MSTORE PUSH1 0x20 ADD DUP6 DUP2 MSTORE PUSH1 0x20 ADD PUSH0 PUSH1 0x3 DUP2 GT ISZERO PUSH2 0x128D JUMPI PUSH2 0x128C PUSH2 0x2215 JUMP JUMPDEST JUMPDEST DUP2 MSTORE PUSH1 0x20 ADD DUP5 DUP2 MSTORE PUSH1 0x20 ADD DUP5 DUP2 MSTORE PUSH1 0x20 ADD DUP5 DUP2 MSTORE PUSH1 0x20 ADD PUSH1 0x4B DUP2 MSTORE PUSH1 0x20 ADD PUSH1 0x18 DUP2 MSTORE POP SWAP1 DUP1 PUSH1 0x1 DUP2 SLOAD ADD DUP1 DUP3 SSTORE DUP1 SWAP2 POP POP PUSH1 0x1 SWAP1 SUB SWAP1 PUSH0 MSTORE PUSH1 0x20 PUSH0 KECCAK256 SWAP1 PUSH1 0x9 MUL ADD PUSH0 SWAP1 SWAP2 SWAP1 SWAP2 SWAP1 SWAP2 POP PUSH0 DUP3 ADD MLOAD DUP2 PUSH0 ADD SSTORE PUSH1 0x20 DUP3 ADD MLOAD DUP2 PUSH1 0x1 ADD SSTORE PUSH1 0x40 DUP3 ADD MLOAD DUP2 PUSH1 0x2 ADD SSTORE PUSH1 0x60 DUP3 ADD MLOAD DUP2 PUSH1 0x3 ADD PUSH0 PUSH2 0x100 EXP DUP2 SLOAD DUP2 PUSH1 0xFF MUL NOT AND SWAP1 DUP4 PUSH1 0x3 DUP2 GT ISZERO PUSH2 0x131C JUMPI PUSH2 0x131B PUSH2 0x2215 JUMP JUMPDEST JUMPDEST MUL OR SWAP1 SSTORE POP PUSH1 0x80 DUP3 ADD MLOAD DUP2 PUSH1 0x4 ADD SSTORE PUSH1 0xA0 DUP3 ADD MLOAD DUP2 PUSH1 0x5 ADD SSTORE PUSH1 0xC0 DUP3 ADD MLOAD DUP2 PUSH1 0x6 ADD SSTORE PUSH1 0xE0 DUP3 ADD MLOAD DUP2 PUSH1 0x7 ADD SSTORE PUSH2 0x100 DUP3 ADD MLOAD DUP2 PUSH1 0x8 ADD SSTORE POP POP PUSH32 0xBD19C47E9925EB6F7BE8BB1C13A841E0240AAEAF17F217E90022E9C8EB66877F PUSH1 0x1 PUSH1 0x7 DUP1 SLOAD SWAP1 POP PUSH2 0x1389 SWAP2 SWAP1 PUSH2 0x27B6 JUMP JUMPDEST PUSH1 0x40 MLOAD PUSH2 0x1396 SWAP2 SWAP1 PUSH2 0x1B82 JUMP JUMPDEST PUSH1 0x40 MLOAD DUP1 SWAP2 SUB SWAP1 LOG1 PUSH1 0x7 DUP1 SLOAD SWAP1 POP SWAP1 POP SWAP5 SWAP4 POP POP POP POP JUMP JUMPDEST PUSH0 DUP1 SLOAD SWAP1 PUSH2 0x100 EXP SWAP1 DIV PUSH20 0xFFFFFFFFFFFFFFFFFFFFFFFFFFFFFFFFFFFFFFFF AND PUSH20 0xFFFFFFFFFFFFFFFFFFFFFFFFFFFFFFFFFFFFFFFF AND CALLER PUSH20 0xFFFFFFFFFFFFFFFFFFFFFFFFFFFFFFFFFFFFFFFF AND EQ PUSH2 0x143B JUMPI PUSH1 0x40 MLOAD PUSH32 0x8C379A000000000000000000000000000000000000000000000000000000000 DUP2 MSTORE PUSH1 0x4 ADD PUSH2 0x1432 SWAP1 PUSH2 0x2475 JUMP JUMPDEST PUSH1 0x40 MLOAD DUP1 SWAP2 SUB SWAP1 REVERT JUMPDEST PUSH0 DUP1 JUMPDEST PUSH1 0x5 DUP1 SLOAD SWAP1 POP DUP2 LT ISZERO PUSH2 0x14CB JUMPI DUP3 PUSH20 0xFFFFFFFFFFFFFFFFFFFFFFFFFFFFFFFFFFFFFFFF AND PUSH1 0x5 DUP3 DUP2 SLOAD DUP2 LT PUSH2 0x1476 JUMPI PUSH2 0x1475 PUSH2 0x2493 JUMP JUMPDEST JUMPDEST SWAP1 PUSH0 MSTORE PUSH1 0x20 PUSH0 KECCAK256 ADD PUSH0 SWAP1 SLOAD SWAP1 PUSH2 0x100 EXP SWAP1 DIV PUSH20 0xFFFFFFFFFFFFFFFFFFFFFFFFFFFFFFFFFFFFFFFF AND PUSH20 0xFFFFFFFFFFFFFFFFFFFFFFFFFFFFFFFFFFFFFFFF AND SUB PUSH2 0x14BE JUMPI PUSH1 0x1 SWAP2 POP JUMPDEST DUP1 DUP1 PUSH1 0x1 ADD SWAP2 POP POP PUSH2 0x143E JUMP JUMPDEST POP PUSH0 ISZERO ISZERO DUP2 ISZERO ISZERO EQ PUSH2 0x1512 JUMPI PUSH1 0x40 MLOAD PUSH32 0x8C379A000000000000000000000000000000000000000000000000000000000 DUP2 MSTORE PUSH1 0x4 ADD PUSH2 0x1509 SWAP1 PUSH2 0x2BD8 JUMP JUMPDEST PUSH1 0x40 MLOAD DUP1 SWAP2 SUB SWAP1 REVERT JUMPDEST PUSH1 0x5 DUP3 SWAP1 DUP1 PUSH1 0x1 DUP2 SLOAD ADD DUP1 DUP3 SSTORE DUP1 SWAP2 POP POP PUSH1 0x1 SWAP1 SUB SWAP1 PUSH0 MSTORE PUSH1 0x20 PUSH0 KECCAK256 ADD PUSH0 SWAP1 SWAP2 SWAP1 SWAP2 SWAP1 SWAP2 PUSH2 0x100 EXP DUP2 SLOAD DUP2 PUSH20 0xFFFFFFFFFFFFFFFFFFFFFFFFFFFFFFFFFFFFFFFF MUL NOT AND SWAP1 DUP4 PUSH20 0xFFFFFFFFFFFFFFFFFFFFFFFFFFFFFFFFFFFFFFFF AND MUL OR SWAP1 SSTORE POP POP POP JUMP JUMPDEST PUSH0 DUP1 SLOAD SWAP1 PUSH2 0x100 EXP SWAP1 DIV PUSH20 0xFFFFFFFFFFFFFFFFFFFFFFFFFFFFFFFFFFFFFFFF AND PUSH20 0xFFFFFFFFFFFFFFFFFFFFFFFFFFFFFFFFFFFFFFFF AND CALLER PUSH20 0xFFFFFFFFFFFFFFFFFFFFFFFFFFFFFFFFFFFFFFFF AND EQ PUSH2 0x1603 JUMPI PUSH1 0x40 MLOAD PUSH32 0x8C379A000000000000000000000000000000000000000000000000000000000 DUP2 MSTORE PUSH1 0x4 ADD PUSH2 0x15FA SWAP1 PUSH2 0x2475 JUMP JUMPDEST PUSH1 0x40 MLOAD DUP1 SWAP2 SUB SWAP1 REVERT JUMPDEST PUSH1 0x3 DUP1 DUP2 GT ISZERO PUSH2 0x1616 JUMPI PUSH2 0x1615 PUSH2 0x2215 JUMP JUMPDEST JUMPDEST PUSH1 0x7 DUP3 DUP2 SLOAD DUP2 LT PUSH2 0x162A JUMPI PUSH2 0x1629 PUSH2 0x2493 JUMP JUMPDEST JUMPDEST SWAP1 PUSH0 MSTORE PUSH1 0x20 PUSH0 KECCAK256 SWAP1 PUSH1 0x9 MUL ADD PUSH1 0x3 ADD PUSH0 SWAP1 SLOAD SWAP1 PUSH2 0x100 EXP SWAP1 DIV PUSH1 0xFF AND PUSH1 0x3 DUP2 GT ISZERO PUSH2 0x1658 JUMPI PUSH2 0x1657 PUSH2 0x2215 JUMP JUMPDEST JUMPDEST EQ PUSH2 0x1698 JUMPI PUSH1 0x40 MLOAD PUSH32 0x8C379A000000000000000000000000000000000000000000000000000000000 DUP2 MSTORE PUSH1 0x4 ADD PUSH2 0x168F SWAP1 PUSH2 0x2C40 JUMP JUMPDEST PUSH1 0x40 MLOAD DUP1 SWAP2 SUB SWAP1 REVERT JUMPDEST PUSH3 0x93A80 PUSH1 0x7 DUP3 DUP2 SLOAD DUP2 LT PUSH2 0x16B0 JUMPI PUSH2 0x16AF PUSH2 0x2493 JUMP JUMPDEST JUMPDEST SWAP1 PUSH0 MSTORE PUSH1 0x20 PUSH0 KECCAK256 SWAP1 PUSH1 0x9 MUL ADD PUSH1 0x2 ADD SLOAD PUSH2 0x16CA SWAP2 SWAP1 PUSH2 0x28A2 JUMP JUMPDEST TIMESTAMP LT ISZERO PUSH2 0x170C JUMPI PUSH1 0x40 MLOAD PUSH32 0x8C379A000000000000000000000000000000000000000000000000000000000 DUP2 MSTORE PUSH1 0x4 ADD PUSH2 0x1703 SWAP1 PUSH2 0x2CCE JUMP JUMPDEST PUSH1 0x40 MLOAD DUP1 SWAP2 SUB SWAP1 REVERT JUMPDEST PUSH0 SELFBALANCE SWAP1 POP PUSH0 DUP1 SLOAD SWAP1 PUSH2 0x100 EXP SWAP1 DIV PUSH20 0xFFFFFFFFFFFFFFFFFFFFFFFFFFFFFFFFFFFFFFFF AND PUSH20 0xFFFFFFFFFFFFFFFFFFFFFFFFFFFFFFFFFFFFFFFF AND PUSH2 0x8FC DUP3 SWAP1 DUP2 ISZERO MUL SWAP1 PUSH1 0x40 MLOAD PUSH0 PUSH1 0x40 MLOAD DUP1 DUP4 SUB DUP2 DUP6 DUP9 DUP9 CALL SWAP4 POP POP POP POP ISZERO DUP1 ISZERO PUSH2 0x1772 JUMPI RETURNDATASIZE PUSH0 DUP1 RETURNDATACOPY RETURNDATASIZE PUSH0 REVERT JUMPDEST POP PUSH32 0x8030349DF01C447169490954F7D7E84FCED918106C79DC48FA0560BBA769086F DUP2 PUSH1 0x40 MLOAD PUSH2 0x17A2 SWAP2 SWAP1 PUSH2 0x1B82 JUMP JUMPDEST PUSH1 0x40 MLOAD DUP1 SWAP2 SUB SWAP1 LOG1 POP POP JUMP JUMPDEST PUSH1 0x60 PUSH1 0x7 DUP1 SLOAD DUP1 PUSH1 0x20 MUL PUSH1 0x20 ADD PUSH1 0x40 MLOAD SWAP1 DUP2 ADD PUSH1 0x40 MSTORE DUP1 SWAP3 SWAP2 SWAP1 DUP2 DUP2 MSTORE PUSH1 0x20 ADD PUSH0 SWAP1 JUMPDEST DUP3 DUP3 LT ISZERO PUSH2 0x188B JUMPI DUP4 DUP3 SWAP1 PUSH0 MSTORE PUSH1 0x20 PUSH0 KECCAK256 SWAP1 PUSH1 0x9 MUL ADD PUSH1 0x40 MLOAD DUP1 PUSH2 0x120 ADD PUSH1 0x40 MSTORE SWAP1 DUP2 PUSH0 DUP3 ADD SLOAD DUP2 MSTORE PUSH1 0x20 ADD PUSH1 0x1 DUP3 ADD SLOAD DUP2 MSTORE PUSH1 0x20 ADD PUSH1 0x2 DUP3 ADD SLOAD DUP2 MSTORE PUSH1 0x20 ADD PUSH1 0x3 DUP3 ADD PUSH0 SWAP1 SLOAD SWAP1 PUSH2 0x100 EXP SWAP1 DIV PUSH1 0xFF AND PUSH1 0x3 DUP2 GT ISZERO PUSH2 0x1834 JUMPI PUSH2 0x1833 PUSH2 0x2215 JUMP JUMPDEST JUMPDEST PUSH1 0x3 DUP2 GT ISZERO PUSH2 0x1846 JUMPI PUSH2 0x1845 PUSH2 0x2215 JUMP JUMPDEST JUMPDEST DUP2 MSTORE PUSH1 0x20 ADD PUSH1 0x4 DUP3 ADD SLOAD DUP2 MSTORE PUSH1 0x20 ADD PUSH1 0x5 DUP3 ADD SLOAD DUP2 MSTORE PUSH1 0x20 ADD PUSH1 0x6 DUP3 ADD SLOAD DUP2 MSTORE PUSH1 0x20 ADD PUSH1 0x7 DUP3 ADD SLOAD DUP2 MSTORE PUSH1 0x20 ADD PUSH1 0x8 DUP3 ADD SLOAD DUP2 MSTORE POP POP DUP2 MSTORE PUSH1 0x20 ADD SWAP1 PUSH1 0x1 ADD SWAP1 PUSH2 0x17D1 JUMP JUMPDEST POP POP POP POP SWAP1 POP SWAP1 JUMP JUMPDEST PUSH1 0x2 PUSH1 0x3 DUP2 GT ISZERO PUSH2 0x18A8 JUMPI PUSH2 0x18A7 PUSH2 0x2215 JUMP JUMPDEST JUMPDEST PUSH1 0x7 DUP3 DUP2 SLOAD DUP2 LT PUSH2 0x18BC JUMPI PUSH2 0x18BB PUSH2 0x2493 JUMP JUMPDEST JUMPDEST SWAP1 PUSH0 MSTORE PUSH1 0x20 PUSH0 KECCAK256 SWAP1 PUSH1 0x9 MUL ADD PUSH1 0x3 ADD PUSH0 SWAP1 SLOAD SWAP1 PUSH2 0x100 EXP SWAP1 DIV PUSH1 0xFF AND PUSH1 0x3 DUP2 GT ISZERO PUSH2 0x18EA JUMPI PUSH2 0x18E9 PUSH2 0x2215 JUMP JUMPDEST JUMPDEST EQ PUSH2 0x192A JUMPI PUSH1 0x40 MLOAD PUSH32 0x8C379A000000000000000000000000000000000000000000000000000000000 DUP2 MSTORE PUSH1 0x4 ADD PUSH2 0x1921 SWAP1 PUSH2 0x2C40 JUMP JUMPDEST PUSH1 0x40 MLOAD DUP1 SWAP2 SUB SWAP1 REVERT JUMPDEST PUSH1 0x5 PUSH1 0x4 SLOAD DUP2 SLOAD DUP2 LT PUSH2 0x1940 JUMPI PUSH2 0x193F PUSH2 0x2493 JUMP JUMPDEST JUMPDEST SWAP1 PUSH0 MSTORE PUSH1 0x20 PUSH0 KECCAK256 ADD PUSH0 SWAP1 SLOAD SWAP1 PUSH2 0x100 EXP SWAP1 DIV PUSH20 0xFFFFFFFFFFFFFFFFFFFFFFFFFFFFFFFFFFFFFFFF AND PUSH20 0xFFFFFFFFFFFFFFFFFFFFFFFFFFFFFFFFFFFFFFFF AND CALLER PUSH20 0xFFFFFFFFFFFFFFFFFFFFFFFFFFFFFFFFFFFFFFFF AND EQ PUSH2 0x19D5 JUMPI PUSH1 0x40 MLOAD PUSH32 0x8C379A000000000000000000000000000000000000000000000000000000000 DUP2 MSTORE PUSH1 0x4 ADD PUSH2 0x19CC SWAP1 PUSH2 0x2D36 JUMP JUMPDEST PUSH1 0x40 MLOAD DUP1 SWAP2 SUB SWAP1 REVERT JUMPDEST PUSH0 SELFBALANCE PUSH1 0x1 SLOAD LT PUSH2 0x19E5 JUMPI SELFBALANCE PUSH2 0x19E9 JUMP JUMPDEST PUSH1 0x1 SLOAD JUMPDEST SWAP1 POP PUSH0 PUSH1 0x4 DUP2 SWAP1 SSTORE POP PUSH1 0x3 PUSH1 0x7 DUP4 DUP2 SLOAD DUP2 LT PUSH2 0x1A08 JUMPI PUSH2 0x1A07 PUSH2 0x2493 JUMP JUMPDEST JUMPDEST SWAP1 PUSH0 MSTORE PUSH1 0x20 PUSH0 KECCAK256 SWAP1 PUSH1 0x9 MUL ADD PUSH1 0x3 ADD PUSH0 PUSH2 0x100 EXP DUP2 SLOAD DUP2 PUSH1 0xFF MUL NOT AND SWAP1 DUP4 PUSH1 0x3 DUP2 GT ISZERO PUSH2 0x1A38 JUMPI PUSH2 0x1A37 PUSH2 0x2215 JUMP JUMPDEST JUMPDEST MUL OR SWAP1 SSTORE POP CALLER PUSH20 0xFFFFFFFFFFFFFFFFFFFFFFFFFFFFFFFFFFFFFFFF AND PUSH2 0x8FC DUP3 SWAP1 DUP2 ISZERO MUL SWAP1 PUSH1 0x40 MLOAD PUSH0 PUSH1 0x40 MLOAD DUP1 DUP4 SUB DUP2 DUP6 DUP9 DUP9 CALL SWAP4 POP POP POP POP ISZERO DUP1 ISZERO PUSH2 0x1A80 JUMPI RETURNDATASIZE PUSH0 DUP1 RETURNDATACOPY RETURNDATASIZE PUSH0 REVERT JUMPDEST POP PUSH32 0xCFA66A04FBA946530A770B8C54EDC8DC6C1AD73F6928AE77EA7517D027E76E62 DUP3 CALLER DUP4 PUSH1 0x40 MLOAD PUSH2 0x1AB4 SWAP4 SWAP3 SWAP2 SWAP1 PUSH2 0x2D54 JUMP JUMPDEST PUSH1 0x40 MLOAD DUP1 SWAP2 SUB SWAP1 LOG1 POP POP JUMP JUMPDEST PUSH1 0x1 SLOAD DUP2 JUMP JUMPDEST PUSH4 0x1E13380 DUP2 JUMP JUMPDEST PUSH0 PUSH1 0x7 DUP3 DUP2 SLOAD DUP2 LT PUSH2 0x1AE3 JUMPI PUSH2 0x1AE2 PUSH2 0x2493 JUMP JUMPDEST JUMPDEST SWAP1 PUSH0 MSTORE PUSH1 0x20 PUSH0 KECCAK256 SWAP1 PUSH1 0x9 MUL ADD PUSH1 0x2 ADD SLOAD SWAP1 POP SWAP2 SWAP1 POP JUMP JUMPDEST PUSH1 0x3 SLOAD DUP2 JUMP JUMPDEST PUSH2 0xFA0 DUP2 JUMP JUMPDEST PUSH0 PUSH1 0x7 DUP3 DUP2 SLOAD DUP2 LT PUSH2 0x1B1B JUMPI PUSH2 0x1B1A PUSH2 0x2493 JUMP JUMPDEST JUMPDEST SWAP1 PUSH0 MSTORE PUSH1 0x20 PUSH0 KECCAK256 SWAP1 PUSH1 0x9 MUL ADD PUSH1 0x3 ADD PUSH0 SWAP1 SLOAD SWAP1 PUSH2 0x100 EXP SWAP1 DIV PUSH1 0xFF AND SWAP1 POP SWAP2 SWAP1 POP JUMP JUMPDEST PUSH1 0x40 MLOAD DUP1 PUSH1 0xA0 ADD PUSH1 0x40 MSTORE DUP1 PUSH0 DUP2 MSTORE PUSH1 0x20 ADD PUSH0 DUP2 MSTORE PUSH1 0x20 ADD PUSH0 DUP2 MSTORE PUSH1 0x20 ADD PUSH1 0x60 DUP2 MSTORE PUSH1 0x20 ADD PUSH1 0x60 DUP2 MSTORE POP SWAP1 JUMP JUMPDEST PUSH0 DUP2 SWAP1 POP SWAP2 SWAP1 POP JUMP JUMPDEST PUSH2 0x1B7C DUP2 PUSH2 0x1B6A JUMP JUMPDEST DUP3 MSTORE POP POP JUMP JUMPDEST PUSH0 PUSH1 0x20 DUP3 ADD SWAP1 POP PUSH2 0x1B95 PUSH0 DUP4 ADD DUP5 PUSH2 0x1B73 JUMP JUMPDEST SWAP3 SWAP2 POP POP JUMP JUMPDEST PUSH0 PUSH1 0x40 MLOAD SWAP1 POP SWAP1 JUMP JUMPDEST PUSH0 DUP1 REVERT JUMPDEST PUSH0 DUP1 REVERT JUMPDEST PUSH2 0x1BB5 DUP2 PUSH2 0x1B6A JUMP JUMPDEST DUP2 EQ PUSH2 0x1BBF JUMPI PUSH0 DUP1 REVERT JUMPDEST POP JUMP JUMPDEST PUSH0 DUP2 CALLDATALOAD SWAP1 POP PUSH2 0x1BD0 DUP2 PUSH2 0x1BAC JUMP JUMPDEST SWAP3 SWAP2 POP POP JUMP JUMPDEST PUSH0 DUP1 REVERT JUMPDEST PUSH0 DUP1 REVERT JUMPDEST PUSH0 PUSH1 0x1F NOT PUSH1 0x1F DUP4 ADD AND SWAP1 POP SWAP2 SWAP1 POP JUMP JUMPDEST PUSH32 0x4E487B7100000000000000000000000000000000000000000000000000000000 PUSH0 MSTORE PUSH1 0x41 PUSH1 0x4 MSTORE PUSH1 0x24 PUSH0 REVERT JUMPDEST PUSH2 0x1C24 DUP3 PUSH2 0x1BDE JUMP JUMPDEST DUP2 ADD DUP2 DUP2 LT PUSH8 0xFFFFFFFFFFFFFFFF DUP3 GT OR ISZERO PUSH2 0x1C43 JUMPI PUSH2 0x1C42 PUSH2 0x1BEE JUMP JUMPDEST JUMPDEST DUP1 PUSH1 0x40 MSTORE POP POP POP JUMP JUMPDEST PUSH0 PUSH2 0x1C55 PUSH2 0x1B9B JUMP JUMPDEST SWAP1 POP PUSH2 0x1C61 DUP3 DUP3 PUSH2 0x1C1B JUMP JUMPDEST SWAP2 SWAP1 POP JUMP JUMPDEST PUSH0 PUSH8 0xFFFFFFFFFFFFFFFF DUP3 GT ISZERO PUSH2 0x1C80 JUMPI PUSH2 0x1C7F PUSH2 0x1BEE JUMP JUMPDEST JUMPDEST PUSH2 0x1C89 DUP3 PUSH2 0x1BDE JUMP JUMPDEST SWAP1 POP PUSH1 0x20 DUP2 ADD SWAP1 POP SWAP2 SWAP1 POP JUMP JUMPDEST DUP3 DUP2 DUP4 CALLDATACOPY PUSH0 DUP4 DUP4 ADD MSTORE POP POP POP JUMP JUMPDEST PUSH0 PUSH2 0x1CB6 PUSH2 0x1CB1 DUP5 PUSH2 0x1C66 JUMP JUMPDEST PUSH2 0x1C4C JUMP JUMPDEST SWAP1 POP DUP3 DUP2 MSTORE PUSH1 0x20 DUP2 ADD DUP5 DUP5 DUP5 ADD GT ISZERO PUSH2 0x1CD2 JUMPI PUSH2 0x1CD1 PUSH2 0x1BDA JUMP JUMPDEST JUMPDEST PUSH2 0x1CDD DUP5 DUP3 DUP6 PUSH2 0x1C96 JUMP JUMPDEST POP SWAP4 SWAP3 POP POP POP JUMP JUMPDEST PUSH0 DUP3 PUSH1 0x1F DUP4 ADD SLT PUSH2 0x1CF9 JUMPI PUSH2 0x1CF8 PUSH2 0x1BD6 JUMP JUMPDEST JUMPDEST DUP2 CALLDATALOAD PUSH2 0x1D09 DUP5 DUP3 PUSH1 0x20 DUP7 ADD PUSH2 0x1CA4 JUMP JUMPDEST SWAP2 POP POP SWAP3 SWAP2 POP POP JUMP JUMPDEST PUSH0 DUP1 PUSH0 DUP1 PUSH1 0x80 DUP6 DUP8 SUB SLT ISZERO PUSH2 0x1D2A JUMPI PUSH2 0x1D29 PUSH2 0x1BA4 JUMP JUMPDEST JUMPDEST PUSH0 PUSH2 0x1D37 DUP8 DUP3 DUP9 ADD PUSH2 0x1BC2 JUMP JUMPDEST SWAP5 POP POP PUSH1 0x20 PUSH2 0x1D48 DUP8 DUP3 DUP9 ADD PUSH2 0x1BC2 JUMP JUMPDEST SWAP4 POP POP PUSH1 0x40 DUP6 ADD CALLDATALOAD PUSH8 0xFFFFFFFFFFFFFFFF DUP2 GT ISZERO PUSH2 0x1D69 JUMPI PUSH2 0x1D68 PUSH2 0x1BA8 JUMP JUMPDEST JUMPDEST PUSH2 0x1D75 DUP8 DUP3 DUP9 ADD PUSH2 0x1CE5 JUMP JUMPDEST SWAP3 POP POP PUSH1 0x60 DUP6 ADD CALLDATALOAD PUSH8 0xFFFFFFFFFFFFFFFF DUP2 GT ISZERO PUSH2 0x1D96 JUMPI PUSH2 0x1D95 PUSH2 0x1BA8 JUMP JUMPDEST JUMPDEST PUSH2 0x1DA2 DUP8 DUP3 DUP9 ADD PUSH2 0x1CE5 JUMP JUMPDEST SWAP2 POP POP SWAP3 SWAP6 SWAP2 SWAP5 POP SWAP3 POP JUMP JUMPDEST PUSH0 PUSH2 0xFFFF DUP3 AND SWAP1 POP SWAP2 SWAP1 POP JUMP JUMPDEST PUSH2 0x1DC4 DUP2 PUSH2 0x1DAE JUMP JUMPDEST DUP2 EQ PUSH2 0x1DCE JUMPI PUSH0 DUP1 REVERT JUMPDEST POP JUMP JUMPDEST PUSH0 DUP2 CALLDATALOAD SWAP1 POP PUSH2 0x1DDF DUP2 PUSH2 0x1DBB JUMP JUMPDEST SWAP3 SWAP2 POP POP JUMP JUMPDEST PUSH0 PUSH1 0x20 DUP3 DUP5 SUB SLT ISZERO PUSH2 0x1DFA JUMPI PUSH2 0x1DF9 PUSH2 0x1BA4 JUMP JUMPDEST JUMPDEST PUSH0 PUSH2 0x1E07 DUP5 DUP3 DUP6 ADD PUSH2 0x1DD1 JUMP JUMPDEST SWAP2 POP POP SWAP3 SWAP2 POP POP JUMP JUMPDEST PUSH0 DUP1 PUSH1 0x40 DUP4 DUP6 SUB SLT ISZERO PUSH2 0x1E26 JUMPI PUSH2 0x1E25 PUSH2 0x1BA4 JUMP JUMPDEST JUMPDEST PUSH0 PUSH2 0x1E33 DUP6 DUP3 DUP7 ADD PUSH2 0x1BC2 JUMP JUMPDEST SWAP3 POP POP PUSH1 0x20 PUSH2 0x1E44 DUP6 DUP3 DUP7 ADD PUSH2 0x1BC2 JUMP JUMPDEST SWAP2 POP POP SWAP3 POP SWAP3 SWAP1 POP JUMP JUMPDEST PUSH0 PUSH1 0x20 DUP3 DUP5 SUB SLT ISZERO PUSH2 0x1E63 JUMPI PUSH2 0x1E62 PUSH2 0x1BA4 JUMP JUMPDEST JUMPDEST PUSH0 PUSH2 0x1E70 DUP5 DUP3 DUP6 ADD PUSH2 0x1BC2 JUMP JUMPDEST SWAP2 POP POP SWAP3 SWAP2 POP POP JUMP JUMPDEST PUSH0 DUP2 MLOAD SWAP1 POP SWAP2 SWAP1 POP JUMP JUMPDEST PUSH0 DUP3 DUP3 MSTORE PUSH1 0x20 DUP3 ADD SWAP1 POP SWAP3 SWAP2 POP POP JUMP JUMPDEST PUSH0 JUMPDEST DUP4 DUP2 LT ISZERO PUSH2 0x1EB0 JUMPI DUP1 DUP3 ADD MLOAD DUP2 DUP5 ADD MSTORE PUSH1 0x20 DUP2 ADD SWAP1 POP PUSH2 0x1E95 JUMP JUMPDEST PUSH0 DUP5 DUP5 ADD MSTORE POP POP POP POP JUMP JUMPDEST PUSH0 PUSH2 0x1EC5 DUP3 PUSH2 0x1E79 JUMP JUMPDEST PUSH2 0x1ECF DUP2 DUP6 PUSH2 0x1E83 JUMP JUMPDEST SWAP4 POP PUSH2 0x1EDF DUP2 DUP6 PUSH1 0x20 DUP7 ADD PUSH2 0x1E93 JUMP JUMPDEST PUSH2 0x1EE8 DUP2 PUSH2 0x1BDE JUMP JUMPDEST DUP5 ADD SWAP2 POP POP SWAP3 SWAP2 POP POP JUMP JUMPDEST PUSH0 PUSH1 0x20 DUP3 ADD SWAP1 POP DUP2 DUP2 SUB PUSH0 DUP4 ADD MSTORE PUSH2 0x1F0B DUP2 DUP5 PUSH2 0x1EBB JUMP JUMPDEST SWAP1 POP SWAP3 SWAP2 POP POP JUMP JUMPDEST PUSH0 DUP2 MLOAD SWAP1 POP SWAP2 SWAP1 POP JUMP JUMPDEST PUSH0 DUP3 DUP3 MSTORE PUSH1 0x20 DUP3 ADD SWAP1 POP SWAP3 SWAP2 POP POP JUMP JUMPDEST PUSH0 DUP2 SWAP1 POP PUSH1 0x20 DUP3 ADD SWAP1 POP SWAP2 SWAP1 POP JUMP JUMPDEST PUSH0 PUSH20 0xFFFFFFFFFFFFFFFFFFFFFFFFFFFFFFFFFFFFFFFF DUP3 AND SWAP1 POP SWAP2 SWAP1 POP JUMP JUMPDEST PUSH0 PUSH2 0x1F65 DUP3 PUSH2 0x1F3C JUMP JUMPDEST SWAP1 POP SWAP2 SWAP1 POP JUMP JUMPDEST PUSH2 0x1F75 DUP2 PUSH2 0x1F5B JUMP JUMPDEST DUP3 MSTORE POP POP JUMP JUMPDEST PUSH0 PUSH2 0x1F86 DUP4 DUP4 PUSH2 0x1F6C JUMP JUMPDEST PUSH1 0x20 DUP4 ADD SWAP1 POP SWAP3 SWAP2 POP POP JUMP JUMPDEST PUSH0 PUSH1 0x20 DUP3 ADD SWAP1 POP SWAP2 SWAP1 POP JUMP JUMPDEST PUSH0 PUSH2 0x1FA8 DUP3 PUSH2 0x1F13 JUMP JUMPDEST PUSH2 0x1FB2 DUP2 DUP6 PUSH2 0x1F1D JUMP JUMPDEST SWAP4 POP PUSH2 0x1FBD DUP4 PUSH2 0x1F2D JUMP JUMPDEST DUP1 PUSH0 JUMPDEST DUP4 DUP2 LT ISZERO PUSH2 0x1FED JUMPI DUP2 MLOAD PUSH2 0x1FD4 DUP9 DUP3 PUSH2 0x1F7B JUMP JUMPDEST SWAP8 POP PUSH2 0x1FDF DUP4 PUSH2 0x1F92 JUMP JUMPDEST SWAP3 POP POP PUSH1 0x1 DUP2 ADD SWAP1 POP PUSH2 0x1FC0 JUMP JUMPDEST POP DUP6 SWAP4 POP POP POP POP SWAP3 SWAP2 POP POP JUMP JUMPDEST PUSH0 PUSH1 0x20 DUP3 ADD SWAP1 POP DUP2 DUP2 SUB PUSH0 DUP4 ADD MSTORE PUSH2 0x2012 DUP2 DUP5 PUSH2 0x1F9E JUMP JUMPDEST SWAP1 POP SWAP3 SWAP2 POP POP JUMP JUMPDEST PUSH2 0x2023 DUP2 PUSH2 0x1F5B JUMP JUMPDEST DUP3 MSTORE POP POP JUMP JUMPDEST PUSH0 PUSH1 0x20 DUP3 ADD SWAP1 POP PUSH2 0x203C PUSH0 DUP4 ADD DUP5 PUSH2 0x201A JUMP JUMPDEST SWAP3 SWAP2 POP POP JUMP JUMPDEST PUSH2 0x204B DUP2 PUSH2 0x1B6A JUMP JUMPDEST DUP3 MSTORE POP POP JUMP JUMPDEST PUSH0 DUP3 DUP3 MSTORE PUSH1 0x20 DUP3 ADD SWAP1 POP SWAP3 SWAP2 POP POP JUMP JUMPDEST PUSH0 PUSH2 0x206B DUP3 PUSH2 0x1E79 JUMP JUMPDEST PUSH2 0x2075 DUP2 DUP6 PUSH2 0x2051 JUMP JUMPDEST SWAP4 POP PUSH2 0x2085 DUP2 DUP6 PUSH1 0x20 DUP7 ADD PUSH2 0x1E93 JUMP JUMPDEST PUSH2 0x208E DUP2 PUSH2 0x1BDE JUMP JUMPDEST DUP5 ADD SWAP2 POP POP SWAP3 SWAP2 POP POP JUMP JUMPDEST PUSH0 PUSH1 0xA0 DUP4 ADD PUSH0 DUP4 ADD MLOAD PUSH2 0x20AE PUSH0 DUP7 ADD DUP3 PUSH2 0x2042 JUMP JUMPDEST POP PUSH1 0x20 DUP4 ADD MLOAD PUSH2 0x20C1 PUSH1 0x20 DUP7 ADD DUP3 PUSH2 0x2042 JUMP JUMPDEST POP PUSH1 0x40 DUP4 ADD MLOAD PUSH2 0x20D4 PUSH1 0x40 DUP7 ADD DUP3 PUSH2 0x2042 JUMP JUMPDEST POP PUSH1 0x60 DUP4 ADD MLOAD DUP5 DUP3 SUB PUSH1 0x60 DUP7 ADD MSTORE PUSH2 0x20EC DUP3 DUP3 PUSH2 0x2061 JUMP JUMPDEST SWAP2 POP POP PUSH1 0x80 DUP4 ADD MLOAD DUP5 DUP3 SUB PUSH1 0x80 DUP7 ADD MSTORE PUSH2 0x2106 DUP3 DUP3 PUSH2 0x2061 JUMP JUMPDEST SWAP2 POP POP DUP1 SWAP2 POP POP SWAP3 SWAP2 POP POP JUMP JUMPDEST PUSH0 PUSH1 0x20 DUP3 ADD SWAP1 POP DUP2 DUP2 SUB PUSH0 DUP4 ADD MSTORE PUSH2 0x212B DUP2 DUP5 PUSH2 0x2099 JUMP JUMPDEST SWAP1 POP SWAP3 SWAP2 POP POP JUMP JUMPDEST PUSH0 DUP1 PUSH0 DUP1 PUSH1 0x80 DUP6 DUP8 SUB SLT ISZERO PUSH2 0x214B JUMPI PUSH2 0x214A PUSH2 0x1BA4 JUMP JUMPDEST JUMPDEST PUSH0 PUSH2 0x2158 DUP8 DUP3 DUP9 ADD PUSH2 0x1BC2 JUMP JUMPDEST SWAP5 POP POP PUSH1 0x20 PUSH2 0x2169 DUP8 DUP3 DUP9 ADD PUSH2 0x1BC2 JUMP JUMPDEST SWAP4 POP POP PUSH1 0x40 PUSH2 0x217A DUP8 DUP3 DUP9 ADD PUSH2 0x1BC2 JUMP JUMPDEST SWAP3 POP POP PUSH1 0x60 PUSH2 0x218B DUP8 DUP3 DUP9 ADD PUSH2 0x1BC2 JUMP JUMPDEST SWAP2 POP POP SWAP3 SWAP6 SWAP2 SWAP5 POP SWAP3 POP JUMP JUMPDEST PUSH2 0x21A0 DUP2 PUSH2 0x1F5B JUMP JUMPDEST DUP2 EQ PUSH2 0x21AA JUMPI PUSH0 DUP1 REVERT JUMPDEST POP JUMP JUMPDEST PUSH0 DUP2 CALLDATALOAD SWAP1 POP PUSH2 0x21BB DUP2 PUSH2 0x2197 JUMP JUMPDEST SWAP3 SWAP2 POP POP JUMP JUMPDEST PUSH0 PUSH1 0x20 DUP3 DUP5 SUB SLT ISZERO PUSH2 0x21D6 JUMPI PUSH2 0x21D5 PUSH2 0x1BA4 JUMP JUMPDEST JUMPDEST PUSH0 PUSH2 0x21E3 DUP5 DUP3 DUP6 ADD PUSH2 0x21AD JUMP JUMPDEST SWAP2 POP POP SWAP3 SWAP2 POP POP JUMP JUMPDEST PUSH0 DUP2 MLOAD SWAP1 POP SWAP2 SWAP1 POP JUMP JUMPDEST PUSH0 DUP3 DUP3 MSTORE PUSH1 0x20 DUP3 ADD SWAP1 POP SWAP3 SWAP2 POP POP JUMP JUMPDEST PUSH0 DUP2 SWAP1 POP PUSH1 0x20 DUP3 ADD SWAP1 POP SWAP2 SWAP1 POP JUMP JUMPDEST PUSH32 0x4E487B7100000000000000000000000000000000000000000000000000000000 PUSH0 MSTORE PUSH1 0x21 PUSH1 0x4 MSTORE PUSH1 0x24 PUSH0 REVERT JUMPDEST PUSH1 0x4 DUP2 LT PUSH2 0x2253 JUMPI PUSH2 0x2252 PUSH2 0x2215 JUMP JUMPDEST JUMPDEST POP JUMP JUMPDEST PUSH0 DUP2 SWAP1 POP PUSH2 0x2263 DUP3 PUSH2 0x2242 JUMP JUMPDEST SWAP2 SWAP1 POP JUMP JUMPDEST PUSH0 PUSH2 0x2272 DUP3 PUSH2 0x2256 JUMP JUMPDEST SWAP1 POP SWAP2 SWAP1 POP JUMP JUMPDEST PUSH2 0x2282 DUP2 PUSH2 0x2268 JUMP JUMPDEST DUP3 MSTORE POP POP JUMP JUMPDEST PUSH2 0x120 DUP3 ADD PUSH0 DUP3 ADD MLOAD PUSH2 0x229D PUSH0 DUP6 ADD DUP3 PUSH2 0x2042 JUMP JUMPDEST POP PUSH1 0x20 DUP3 ADD MLOAD PUSH2 0x22B0 PUSH1 0x20 DUP6 ADD DUP3 PUSH2 0x2042 JUMP JUMPDEST POP PUSH1 0x40 DUP3 ADD MLOAD PUSH2 0x22C3 PUSH1 0x40 DUP6 ADD DUP3 PUSH2 0x2042 JUMP JUMPDEST POP PUSH1 0x60 DUP3 ADD MLOAD PUSH2 0x22D6 PUSH1 0x60 DUP6 ADD DUP3 PUSH2 0x2279 JUMP JUMPDEST POP PUSH1 0x80 DUP3 ADD MLOAD PUSH2 0x22E9 PUSH1 0x80 DUP6 ADD DUP3 PUSH2 0x2042 JUMP JUMPDEST POP PUSH1 0xA0 DUP3 ADD MLOAD PUSH2 0x22FC PUSH1 0xA0 DUP6 ADD DUP3 PUSH2 0x2042 JUMP JUMPDEST POP PUSH1 0xC0 DUP3 ADD MLOAD PUSH2 0x230F PUSH1 0xC0 DUP6 ADD DUP3 PUSH2 0x2042 JUMP JUMPDEST POP PUSH1 0xE0 DUP3 ADD MLOAD PUSH2 0x2322 PUSH1 0xE0 DUP6 ADD DUP3 PUSH2 0x2042 JUMP JUMPDEST POP PUSH2 0x100 DUP3 ADD MLOAD PUSH2 0x2337 PUSH2 0x100 DUP6 ADD DUP3 PUSH2 0x2042 JUMP JUMPDEST POP POP POP POP JUMP JUMPDEST PUSH0 PUSH2 0x2348 DUP4 DUP4 PUSH2 0x2288 JUMP JUMPDEST PUSH2 0x120 DUP4 ADD SWAP1 POP SWAP3 SWAP2 POP POP JUMP JUMPDEST PUSH0 PUSH1 0x20 DUP3 ADD SWAP1 POP SWAP2 SWAP1 POP JUMP JUMPDEST PUSH0 PUSH2 0x236B DUP3 PUSH2 0x21EC JUMP JUMPDEST PUSH2 0x2375 DUP2 DUP6 PUSH2 0x21F6 JUMP JUMPDEST SWAP4 POP PUSH2 0x2380 DUP4 PUSH2 0x2206 JUMP JUMPDEST DUP1 PUSH0 JUMPDEST DUP4 DUP2 LT ISZERO PUSH2 0x23B0 JUMPI DUP2 MLOAD PUSH2 0x2397 DUP9 DUP3 PUSH2 0x233D JUMP JUMPDEST SWAP8 POP PUSH2 0x23A2 DUP4 PUSH2 0x2355 JUMP JUMPDEST SWAP3 POP POP PUSH1 0x1 DUP2 ADD SWAP1 POP PUSH2 0x2383 JUMP JUMPDEST POP DUP6 SWAP4 POP POP POP POP SWAP3 SWAP2 POP POP JUMP JUMPDEST PUSH0 PUSH1 0x20 DUP3 ADD SWAP1 POP DUP2 DUP2 SUB PUSH0 DUP4 ADD MSTORE PUSH2 0x23D5 DUP2 DUP5 PUSH2 0x2361 JUMP JUMPDEST SWAP1 POP SWAP3 SWAP2 POP POP JUMP JUMPDEST PUSH2 0x23E6 DUP2 PUSH2 0x2268 JUMP JUMPDEST DUP3 MSTORE POP POP JUMP JUMPDEST PUSH0 PUSH1 0x20 DUP3 ADD SWAP1 POP PUSH2 0x23FF PUSH0 DUP4 ADD DUP5 PUSH2 0x23DD JUMP JUMPDEST SWAP3 SWAP2 POP POP JUMP JUMPDEST PUSH32 0x4F6E6C7920746865206F776E65722063616E2063616C6C20746869732066756E PUSH0 DUP3 ADD MSTORE PUSH32 0x6374696F6E000000000000000000000000000000000000000000000000000000 PUSH1 0x20 DUP3 ADD MSTORE POP JUMP JUMPDEST PUSH0 PUSH2 0x245F PUSH1 0x25 DUP4 PUSH2 0x1E83 JUMP JUMPDEST SWAP2 POP PUSH2 0x246A DUP3 PUSH2 0x2405 JUMP JUMPDEST PUSH1 0x40 DUP3 ADD SWAP1 POP SWAP2 SWAP1 POP JUMP JUMPDEST PUSH0 PUSH1 0x20 DUP3 ADD SWAP1 POP DUP2 DUP2 SUB PUSH0 DUP4 ADD MSTORE PUSH2 0x248C DUP2 PUSH2 0x2453 JUMP JUMPDEST SWAP1 POP SWAP2 SWAP1 POP JUMP JUMPDEST PUSH32 0x4E487B7100000000000000000000000000000000000000000000000000000000 PUSH0 MSTORE PUSH1 0x32 PUSH1 0x4 MSTORE PUSH1 0x24 PUSH0 REVERT JUMPDEST PUSH32 0x4E487B7100000000000000000000000000000000000000000000000000000000 PUSH0 MSTORE PUSH1 0x22 PUSH1 0x4 MSTORE PUSH1 0x24 PUSH0 REVERT JUMPDEST PUSH0 PUSH1 0x2 DUP3 DIV SWAP1 POP PUSH1 0x1 DUP3 AND DUP1 PUSH2 0x2504 JUMPI PUSH1 0x7F DUP3 AND SWAP2 POP JUMPDEST PUSH1 0x20 DUP3 LT DUP2 SUB PUSH2 0x2517 JUMPI PUSH2 0x2516 PUSH2 0x24C0 JUMP JUMPDEST JUMPDEST POP SWAP2 SWAP1 POP JUMP JUMPDEST PUSH0 DUP2 SWAP1 POP DUP2 PUSH0 MSTORE PUSH1 0x20 PUSH0 KECCAK256 SWAP1 POP SWAP2 SWAP1 POP JUMP JUMPDEST PUSH0 PUSH1 0x20 PUSH1 0x1F DUP4 ADD DIV SWAP1 POP SWAP2 SWAP1 POP JUMP JUMPDEST PUSH0 DUP3 DUP3 SHL SWAP1 POP SWAP3 SWAP2 POP POP JUMP JUMPDEST PUSH0 PUSH1 0x8 DUP4 MUL PUSH2 0x2579 PUSH32 0xFFFFFFFFFFFFFFFFFFFFFFFFFFFFFFFFFFFFFFFFFFFFFFFFFFFFFFFFFFFFFFFF DUP3 PUSH2 0x253E JUMP JUMPDEST PUSH2 0x2583 DUP7 DUP4 PUSH2 0x253E JUMP JUMPDEST SWAP6 POP DUP1 NOT DUP5 AND SWAP4 POP DUP1 DUP7 AND DUP5 OR SWAP3 POP POP POP SWAP4 SWAP3 POP POP POP JUMP JUMPDEST PUSH0 DUP2 SWAP1 POP SWAP2 SWAP1 POP JUMP JUMPDEST PUSH0 PUSH2 0x25BE PUSH2 0x25B9 PUSH2 0x25B4 DUP5 PUSH2 0x1B6A JUMP JUMPDEST PUSH2 0x259B JUMP JUMPDEST PUSH2 0x1B6A JUMP JUMPDEST SWAP1 POP SWAP2 SWAP1 POP JUMP JUMPDEST PUSH0 DUP2 SWAP1 POP SWAP2 SWAP1 POP JUMP JUMPDEST PUSH2 0x25D7 DUP4 PUSH2 0x25A4 JUMP JUMPDEST PUSH2 0x25EB PUSH2 0x25E3 DUP3 PUSH2 0x25C5 JUMP JUMPDEST DUP5 DUP5 SLOAD PUSH2 0x254A JUMP JUMPDEST DUP3 SSTORE POP POP POP POP JUMP JUMPDEST PUSH0 SWAP1 JUMP JUMPDEST PUSH2 0x25FF PUSH2 0x25F3 JUMP JUMPDEST PUSH2 0x260A DUP2 DUP5 DUP5 PUSH2 0x25CE JUMP JUMPDEST POP POP POP JUMP JUMPDEST JUMPDEST DUP2 DUP2 LT ISZERO PUSH2 0x262D JUMPI PUSH2 0x2622 PUSH0 DUP3 PUSH2 0x25F7 JUMP JUMPDEST PUSH1 0x1 DUP2 ADD SWAP1 POP PUSH2 0x2610 JUMP JUMPDEST POP POP JUMP JUMPDEST PUSH1 0x1F DUP3 GT ISZERO PUSH2 0x2672 JUMPI PUSH2 0x2643 DUP2 PUSH2 0x251D JUMP JUMPDEST PUSH2 0x264C DUP5 PUSH2 0x252F JUMP JUMPDEST DUP2 ADD PUSH1 0x20 DUP6 LT ISZERO PUSH2 0x265B JUMPI DUP2 SWAP1 POP JUMPDEST PUSH2 0x266F PUSH2 0x2667 DUP6 PUSH2 0x252F JUMP JUMPDEST DUP4 ADD DUP3 PUSH2 0x260F JUMP JUMPDEST POP POP JUMPDEST POP POP POP JUMP JUMPDEST PUSH0 DUP3 DUP3 SHR SWAP1 POP SWAP3 SWAP2 POP POP JUMP JUMPDEST PUSH0 PUSH2 0x2692 PUSH0 NOT DUP5 PUSH1 0x8 MUL PUSH2 0x2677 JUMP JUMPDEST NOT DUP1 DUP4 AND SWAP2 POP POP SWAP3 SWAP2 POP POP JUMP JUMPDEST PUSH0 PUSH2 0x26AA DUP4 DUP4 PUSH2 0x2683 JUMP JUMPDEST SWAP2 POP DUP3 PUSH1 0x2 MUL DUP3 OR SWAP1 POP SWAP3 SWAP2 POP POP JUMP JUMPDEST PUSH2 0x26C3 DUP3 PUSH2 0x1E79 JUMP JUMPDEST PUSH8 0xFFFFFFFFFFFFFFFF DUP2 GT ISZERO PUSH2 0x26DC JUMPI PUSH2 0x26DB PUSH2 0x1BEE JUMP JUMPDEST JUMPDEST PUSH2 0x26E6 DUP3 SLOAD PUSH2 0x24ED JUMP JUMPDEST PUSH2 0x26F1 DUP3 DUP3 DUP6 PUSH2 0x2631 JUMP JUMPDEST PUSH0 PUSH1 0x20 SWAP1 POP PUSH1 0x1F DUP4 GT PUSH1 0x1 DUP2 EQ PUSH2 0x2722 JUMPI PUSH0 DUP5 ISZERO PUSH2 0x2710 JUMPI DUP3 DUP8 ADD MLOAD SWAP1 POP JUMPDEST PUSH2 0x271A DUP6 DUP3 PUSH2 0x269F JUMP JUMPDEST DUP7 SSTORE POP PUSH2 0x2781 JUMP JUMPDEST PUSH1 0x1F NOT DUP5 AND PUSH2 0x2730 DUP7 PUSH2 0x251D JUMP JUMPDEST PUSH0 JUMPDEST DUP3 DUP2 LT ISZERO PUSH2 0x2757 JUMPI DUP5 DUP10 ADD MLOAD DUP3 SSTORE PUSH1 0x1 DUP3 ADD SWAP2 POP PUSH1 0x20 DUP6 ADD SWAP5 POP PUSH1 0x20 DUP2 ADD SWAP1 POP PUSH2 0x2732 JUMP JUMPDEST DUP7 DUP4 LT ISZERO PUSH2 0x2774 JUMPI DUP5 DUP10 ADD MLOAD PUSH2 0x2770 PUSH1 0x1F DUP10 AND DUP3 PUSH2 0x2683 JUMP JUMPDEST DUP4 SSTORE POP JUMPDEST PUSH1 0x1 PUSH1 0x2 DUP9 MUL ADD DUP9 SSTORE POP POP POP JUMPDEST POP POP POP POP POP POP JUMP JUMPDEST PUSH32 0x4E487B7100000000000000000000000000000000000000000000000000000000 PUSH0 MSTORE PUSH1 0x11 PUSH1 0x4 MSTORE PUSH1 0x24 PUSH0 REVERT JUMPDEST PUSH0 PUSH2 0x27C0 DUP3 PUSH2 0x1B6A JUMP JUMPDEST SWAP2 POP PUSH2 0x27CB DUP4 PUSH2 0x1B6A JUMP JUMPDEST SWAP3 POP DUP3 DUP3 SUB SWAP1 POP DUP2 DUP2 GT ISZERO PUSH2 0x27E3 JUMPI PUSH2 0x27E2 PUSH2 0x2789 JUMP JUMPDEST JUMPDEST SWAP3 SWAP2 POP POP JUMP JUMPDEST PUSH0 PUSH1 0x80 DUP3 ADD SWAP1 POP PUSH2 0x27FC PUSH0 DUP4 ADD DUP8 PUSH2 0x1B73 JUMP JUMPDEST PUSH2 0x2809 PUSH1 0x20 DUP4 ADD DUP7 PUSH2 0x1B73 JUMP JUMPDEST PUSH2 0x2816 PUSH1 0x40 DUP4 ADD DUP6 PUSH2 0x1B73 JUMP JUMPDEST PUSH2 0x2823 PUSH1 0x60 DUP4 ADD DUP5 PUSH2 0x1B73 JUMP JUMPDEST SWAP6 SWAP5 POP POP POP POP POP JUMP JUMPDEST PUSH0 PUSH2 0x2836 DUP3 PUSH2 0x1DAE JUMP JUMPDEST SWAP2 POP PUSH2 0x2841 DUP4 PUSH2 0x1DAE JUMP JUMPDEST SWAP3 POP DUP3 DUP3 ADD SWAP1 POP PUSH2 0xFFFF DUP2 GT ISZERO PUSH2 0x285B JUMPI PUSH2 0x285A PUSH2 0x2789 JUMP JUMPDEST JUMPDEST SWAP3 SWAP2 POP POP JUMP JUMPDEST PUSH0 PUSH2 0x286B DUP3 PUSH2 0x1B6A JUMP JUMPDEST SWAP2 POP PUSH2 0x2876 DUP4 PUSH2 0x1B6A JUMP JUMPDEST SWAP3 POP DUP3 DUP3 MUL PUSH2 0x2884 DUP2 PUSH2 0x1B6A JUMP JUMPDEST SWAP2 POP DUP3 DUP3 DIV DUP5 EQ DUP4 ISZERO OR PUSH2 0x289B JUMPI PUSH2 0x289A PUSH2 0x2789 JUMP JUMPDEST JUMPDEST POP SWAP3 SWAP2 POP POP JUMP JUMPDEST PUSH0 PUSH2 0x28AC DUP3 PUSH2 0x1B6A JUMP JUMPDEST SWAP2 POP PUSH2 0x28B7 DUP4 PUSH2 0x1B6A JUMP JUMPDEST SWAP3 POP DUP3 DUP3 ADD SWAP1 POP DUP1 DUP3 GT ISZERO PUSH2 0x28CF JUMPI PUSH2 0x28CE PUSH2 0x2789 JUMP JUMPDEST JUMPDEST SWAP3 SWAP2 POP POP JUMP JUMPDEST PUSH32 0x5468652067616D65206973206E6F74206F70656E20666F72207469636B657420 PUSH0 DUP3 ADD MSTORE PUSH32 0x7075726368617365000000000000000000000000000000000000000000000000 PUSH1 0x20 DUP3 ADD MSTORE POP JUMP JUMPDEST PUSH0 PUSH2 0x292F PUSH1 0x28 DUP4 PUSH2 0x1E83 JUMP JUMPDEST SWAP2 POP PUSH2 0x293A DUP3 PUSH2 0x28D5 JUMP JUMPDEST PUSH1 0x40 DUP3 ADD SWAP1 POP SWAP2 SWAP1 POP JUMP JUMPDEST PUSH0 PUSH1 0x20 DUP3 ADD SWAP1 POP DUP2 DUP2 SUB PUSH0 DUP4 ADD MSTORE PUSH2 0x295C DUP2 PUSH2 0x2923 JUMP JUMPDEST SWAP1 POP SWAP2 SWAP1 POP JUMP JUMPDEST PUSH32 0x4D6178696D756D20706C61796572732072656163686564000000000000000000 PUSH0 DUP3 ADD MSTORE POP JUMP JUMPDEST PUSH0 PUSH2 0x2997 PUSH1 0x17 DUP4 PUSH2 0x1E83 JUMP JUMPDEST SWAP2 POP PUSH2 0x29A2 DUP3 PUSH2 0x2963 JUMP JUMPDEST PUSH1 0x20 DUP3 ADD SWAP1 POP SWAP2 SWAP1 POP JUMP JUMPDEST PUSH0 PUSH1 0x20 DUP3 ADD SWAP1 POP DUP2 DUP2 SUB PUSH0 DUP4 ADD MSTORE PUSH2 0x29C4 DUP2 PUSH2 0x298B JUMP JUMPDEST SWAP1 POP SWAP2 SWAP1 POP JUMP JUMPDEST PUSH32 0x496E76616C6964207469636B6574206E756D6265720000000000000000000000 PUSH0 DUP3 ADD MSTORE POP JUMP JUMPDEST PUSH0 PUSH2 0x29FF PUSH1 0x15 DUP4 PUSH2 0x1E83 JUMP JUMPDEST SWAP2 POP PUSH2 0x2A0A DUP3 PUSH2 0x29CB JUMP JUMPDEST PUSH1 0x20 DUP3 ADD SWAP1 POP SWAP2 SWAP1 POP JUMP JUMPDEST PUSH0 PUSH1 0x20 DUP3 ADD SWAP1 POP DUP2 DUP2 SUB PUSH0 DUP4 ADD MSTORE PUSH2 0x2A2C DUP2 PUSH2 0x29F3 JUMP JUMPDEST SWAP1 POP SWAP2 SWAP1 POP JUMP JUMPDEST PUSH0 PUSH1 0x60 DUP3 ADD SWAP1 POP PUSH2 0x2A46 PUSH0 DUP4 ADD DUP7 PUSH2 0x1B73 JUMP JUMPDEST PUSH2 0x2A53 PUSH1 0x20 DUP4 ADD DUP6 PUSH2 0x1B73 JUMP JUMPDEST PUSH2 0x2A60 PUSH1 0x40 DUP4 ADD DUP5 PUSH2 0x1B73 JUMP JUMPDEST SWAP5 SWAP4 POP POP POP POP JUMP JUMPDEST PUSH32 0x5468652067616D65206973206E6F7420636C6F73656420796574000000000000 PUSH0 DUP3 ADD MSTORE POP JUMP JUMPDEST PUSH0 PUSH2 0x2A9C PUSH1 0x1A DUP4 PUSH2 0x1E83 JUMP JUMPDEST SWAP2 POP PUSH2 0x2AA7 DUP3 PUSH2 0x2A68 JUMP JUMPDEST PUSH1 0x20 DUP3 ADD SWAP1 POP SWAP2 SWAP1 POP JUMP JUMPDEST PUSH0 PUSH1 0x20 DUP3 ADD SWAP1 POP DUP2 DUP2 SUB PUSH0 DUP4 ADD MSTORE PUSH2 0x2AC9 DUP2 PUSH2 0x2A90 JUMP JUMPDEST SWAP1 POP SWAP2 SWAP1 POP JUMP JUMPDEST PUSH0 DUP2 SWAP1 POP SWAP2 SWAP1 POP JUMP JUMPDEST PUSH2 0x2AEA PUSH2 0x2AE5 DUP3 PUSH2 0x1B6A JUMP JUMPDEST PUSH2 0x2AD0 JUMP JUMPDEST DUP3 MSTORE POP POP JUMP JUMPDEST PUSH0 PUSH2 0x2AFB DUP3 DUP5 PUSH2 0x2AD9 JUMP JUMPDEST PUSH1 0x20 DUP3 ADD SWAP2 POP DUP2 SWAP1 POP SWAP3 SWAP2 POP POP JUMP JUMPDEST PUSH32 0x4E487B7100000000000000000000000000000000000000000000000000000000 PUSH0 MSTORE PUSH1 0x12 PUSH1 0x4 MSTORE PUSH1 0x24 PUSH0 REVERT JUMPDEST PUSH0 PUSH2 0x2B41 DUP3 PUSH2 0x1B6A JUMP JUMPDEST SWAP2 POP PUSH2 0x2B4C DUP4 PUSH2 0x1B6A JUMP JUMPDEST SWAP3 POP DUP3 PUSH2 0x2B5C JUMPI PUSH2 0x2B5B PUSH2 0x2B0A JUMP JUMPDEST JUMPDEST DUP3 DUP3 MOD SWAP1 POP SWAP3 SWAP2 POP POP JUMP JUMPDEST PUSH0 PUSH1 0x40 DUP3 ADD SWAP1 POP PUSH2 0x2B7A PUSH0 DUP4 ADD DUP6 PUSH2 0x1B73 JUMP JUMPDEST PUSH2 0x2B87 PUSH1 0x20 DUP4 ADD DUP5 PUSH2 0x1B73 JUMP JUMPDEST SWAP4 SWAP3 POP POP POP JUMP JUMPDEST PUSH32 0x706C6179657220697320616C7265616479206164646564000000000000000000 PUSH0 DUP3 ADD MSTORE POP JUMP JUMPDEST PUSH0 PUSH2 0x2BC2 PUSH1 0x17 DUP4 PUSH2 0x1E83 JUMP JUMPDEST SWAP2 POP PUSH2 0x2BCD DUP3 PUSH2 0x2B8E JUMP JUMPDEST PUSH1 0x20 DUP3 ADD SWAP1 POP SWAP2 SWAP1 POP JUMP JUMPDEST PUSH0 PUSH1 0x20 DUP3 ADD SWAP1 POP DUP2 DUP2 SUB PUSH0 DUP4 ADD MSTORE PUSH2 0x2BEF DUP2 PUSH2 0x2BB6 JUMP JUMPDEST SWAP1 POP SWAP2 SWAP1 POP JUMP JUMPDEST PUSH32 0x5468652067616D6520686173206E6F742066696E697368656420796574000000 PUSH0 DUP3 ADD MSTORE POP JUMP JUMPDEST PUSH0 PUSH2 0x2C2A PUSH1 0x1D DUP4 PUSH2 0x1E83 JUMP JUMPDEST SWAP2 POP PUSH2 0x2C35 DUP3 PUSH2 0x2BF6 JUMP JUMPDEST PUSH1 0x20 DUP3 ADD SWAP1 POP SWAP2 SWAP1 POP JUMP JUMPDEST PUSH0 PUSH1 0x20 DUP3 ADD SWAP1 POP DUP2 DUP2 SUB PUSH0 DUP4 ADD MSTORE PUSH2 0x2C57 DUP2 PUSH2 0x2C1E JUMP JUMPDEST SWAP1 POP SWAP2 SWAP1 POP JUMP JUMPDEST PUSH32 0x5769746864726177616C2074696D6520686173206E6F74207061737365642079 PUSH0 DUP3 ADD MSTORE PUSH32 0x6574000000000000000000000000000000000000000000000000000000000000 PUSH1 0x20 DUP3 ADD MSTORE POP JUMP JUMPDEST PUSH0 PUSH2 0x2CB8 PUSH1 0x22 DUP4 PUSH2 0x1E83 JUMP JUMPDEST SWAP2 POP PUSH2 0x2CC3 DUP3 PUSH2 0x2C5E JUMP JUMPDEST PUSH1 0x40 DUP3 ADD SWAP1 POP SWAP2 SWAP1 POP JUMP JUMPDEST PUSH0 PUSH1 0x20 DUP3 ADD SWAP1 POP DUP2 DUP2 SUB PUSH0 DUP4 ADD MSTORE PUSH2 0x2CE5 DUP2 PUSH2 0x2CAC JUMP JUMPDEST SWAP1 POP SWAP2 SWAP1 POP JUMP JUMPDEST PUSH32 0x596F7520617265206E6F74207468652077696E6E657200000000000000000000 PUSH0 DUP3 ADD MSTORE POP JUMP JUMPDEST PUSH0 PUSH2 0x2D20 PUSH1 0x16 DUP4 PUSH2 0x1E83 JUMP JUMPDEST SWAP2 POP PUSH2 0x2D2B DUP3 PUSH2 0x2CEC JUMP JUMPDEST PUSH1 0x20 DUP3 ADD SWAP1 POP SWAP2 SWAP1 POP JUMP JUMPDEST PUSH0 PUSH1 0x20 DUP3 ADD SWAP1 POP DUP2 DUP2 SUB PUSH0 DUP4 ADD MSTORE PUSH2 0x2D4D DUP2 PUSH2 0x2D14 JUMP JUMPDEST SWAP1 POP SWAP2 SWAP1 POP JUMP JUMPDEST PUSH0 PUSH1 0x60 DUP3 ADD SWAP1 POP PUSH2 0x2D67 PUSH0 DUP4 ADD DUP7 PUSH2 0x1B73 JUMP JUMPDEST PUSH2 0x2D74 PUSH1 0x20 DUP4 ADD DUP6 PUSH2 0x201A JUMP JUMPDEST PUSH2 0x2D81 PUSH1 0x40 DUP4 ADD DUP5 PUSH2 0x1B73 JUMP JUMPDEST SWAP5 SWAP4 POP POP POP POP JUMP INVALID LOG2 PUSH5 0x6970667358 0x22 SLT KECCAK256 0xD7 DUP14 0xD2 0x2A PUSH26 0xF5FC368E762DCFB71C893D66F14CFAD3918EF5D59FBA7FA88B10 0xC6 PUSH5 0x736F6C6343 STOP ADDMOD AND STOP CALLER "
				},
				"gasEstimates": {
					"creation": {
						"codeDepositCost": "2342200",
						"executionCost": "infinite",
						"totalCost": "infinite"
					},
					"external": {
						"MAX_CARD_NUMBER()": "349",
						"MAX_TICKETS()": "413",
						"MIN_CARD_NUMBER()": "370",
						"MIN_NUMBERS_PER_CARD()": "414",
						"YEARS()": "414",
						"addGameCard(uint256,uint256,string,string)": "infinite",
						"addPlayer(address)": "infinite",
						"buyTicket(uint256,uint256)": "infinite",
						"claimPrize(uint256)": "infinite",
						"closeGame(uint256)": "infinite",
						"getContractBalance()": "401",
						"getGameCardNumbers(uint256,uint256)": "infinite",
						"getGameEndTime(uint256)": "infinite",
						"getGameState(uint256)": "5127",
						"getGames()": "infinite",
						"getPlayers()": "infinite",
						"maxPayout()": "2492",
						"minAge()": "2448",
						"newGame(uint256,uint256,uint256,uint256)": "infinite",
						"owner()": "2528",
						"sponsor()": "infinite",
						"totalPlayers()": "2491",
						"winningNumber()": "2559",
						"withdrawRemainingFunds(uint256)": "infinite",
						"yearToEpoch(uint16)": "infinite"
					}
				},
				"methodIdentifiers": {
					"MAX_CARD_NUMBER()": "0bd79431",
					"MAX_TICKETS()": "fca846dc",
					"MIN_CARD_NUMBER()": "6edff590",
					"MIN_NUMBERS_PER_CARD()": "73aedcec",
					"YEARS()": "e5a62c48",
					"addGameCard(uint256,uint256,string,string)": "13e96552",
					"addPlayer(address)": "b1275f9a",
					"buyTicket(uint256,uint256)": "298ec208",
					"claimPrize(uint256)": "d7098154",
					"closeGame(uint256)": "2d6ef310",
					"getContractBalance()": "6f9fb98a",
					"getGameCardNumbers(uint256,uint256)": "99f526dd",
					"getGameEndTime(uint256)": "ee7bdc4f",
					"getGameState(uint256)": "ffde0c74",
					"getGames()": "c04c5947",
					"getPlayers()": "8b5b9ccc",
					"maxPayout()": "e0176de8",
					"minAge()": "55519d87",
					"newGame(uint256,uint256,uint256,uint256)": "a813895b",
					"owner()": "8da5cb5b",
					"sponsor()": "77c93662",
					"totalPlayers()": "f60cdcf6",
					"winningNumber()": "4664611e",
					"withdrawRemainingFunds(uint256)": "bd798a3f",
					"yearToEpoch(uint16)": "15c9c011"
				}
			},
			"storageLayout": {
				"storage": [
					{
						"astId": 18,
						"contract": "contracts/games/InstantBingo.sol:InstantBingo",
						"label": "owner",
						"offset": 0,
						"slot": "0",
						"type": "t_address"
					},
					{
						"astId": 21,
						"contract": "contracts/games/InstantBingo.sol:InstantBingo",
						"label": "maxPayout",
						"offset": 0,
						"slot": "1",
						"type": "t_uint256"
					},
					{
						"astId": 24,
						"contract": "contracts/games/InstantBingo.sol:InstantBingo",
						"label": "minAge",
						"offset": 0,
						"slot": "2",
						"type": "t_uint256"
					},
					{
						"astId": 26,
						"contract": "contracts/games/InstantBingo.sol:InstantBingo",
						"label": "totalPlayers",
						"offset": 0,
						"slot": "3",
						"type": "t_uint256"
					},
					{
						"astId": 28,
						"contract": "contracts/games/InstantBingo.sol:InstantBingo",
						"label": "winningNumber",
						"offset": 0,
						"slot": "4",
						"type": "t_uint256"
					},
					{
						"astId": 110,
						"contract": "contracts/games/InstantBingo.sol:InstantBingo",
						"label": "_players",
						"offset": 0,
						"slot": "5",
						"type": "t_array(t_address)dyn_storage"
					},
					{
						"astId": 115,
						"contract": "contracts/games/InstantBingo.sol:InstantBingo",
						"label": "players",
						"offset": 0,
						"slot": "6",
						"type": "t_mapping(t_address,t_struct(Player)40_storage)"
					},
					{
						"astId": 119,
						"contract": "contracts/games/InstantBingo.sol:InstantBingo",
						"label": "games",
						"offset": 0,
						"slot": "7",
						"type": "t_array(t_struct(Game)96_storage)dyn_storage"
					},
					{
						"astId": 125,
						"contract": "contracts/games/InstantBingo.sol:InstantBingo",
						"label": "gameCards",
						"offset": 0,
						"slot": "8",
						"type": "t_mapping(t_uint256,t_array(t_struct(Card)107_storage)dyn_storage)"
					},
					{
						"astId": 127,
						"contract": "contracts/games/InstantBingo.sol:InstantBingo",
						"label": "sponsor",
						"offset": 0,
						"slot": "9",
						"type": "t_string_storage"
					}
				],
				"types": {
					"t_address": {
						"encoding": "inplace",
						"label": "address",
						"numberOfBytes": "20"
					},
					"t_array(t_address)dyn_storage": {
						"base": "t_address",
						"encoding": "dynamic_array",
						"label": "address[]",
						"numberOfBytes": "32"
					},
					"t_array(t_struct(Card)107_storage)dyn_storage": {
						"base": "t_struct(Card)107_storage",
						"encoding": "dynamic_array",
						"label": "struct InstantBingo.Card[]",
						"numberOfBytes": "32"
					},
					"t_array(t_struct(Game)96_storage)dyn_storage": {
						"base": "t_struct(Game)96_storage",
						"encoding": "dynamic_array",
						"label": "struct InstantBingo.Game[]",
						"numberOfBytes": "32"
					},
					"t_enum(GameState)33": {
						"encoding": "inplace",
						"label": "enum InstantBingo.GameState",
						"numberOfBytes": "1"
					},
					"t_mapping(t_address,t_struct(Player)40_storage)": {
						"encoding": "mapping",
						"key": "t_address",
						"label": "mapping(address => struct InstantBingo.Player)",
						"numberOfBytes": "32",
						"value": "t_struct(Player)40_storage"
					},
					"t_mapping(t_uint256,t_array(t_struct(Card)107_storage)dyn_storage)": {
						"encoding": "mapping",
						"key": "t_uint256",
						"label": "mapping(uint256 => struct InstantBingo.Card[])",
						"numberOfBytes": "32",
						"value": "t_array(t_struct(Card)107_storage)dyn_storage"
					},
					"t_string_storage": {
						"encoding": "bytes",
						"label": "string",
						"numberOfBytes": "32"
					},
					"t_struct(Card)107_storage": {
						"encoding": "inplace",
						"label": "struct InstantBingo.Card",
						"members": [
							{
								"astId": 98,
								"contract": "contracts/games/InstantBingo.sol:InstantBingo",
								"label": "game",
								"offset": 0,
								"slot": "0",
								"type": "t_uint256"
							},
							{
								"astId": 100,
								"contract": "contracts/games/InstantBingo.sol:InstantBingo",
								"label": "serialNo",
								"offset": 0,
								"slot": "1",
								"type": "t_uint256"
							},
							{
								"astId": 102,
								"contract": "contracts/games/InstantBingo.sol:InstantBingo",
								"label": "formNumber",
								"offset": 0,
								"slot": "2",
								"type": "t_uint256"
							},
							{
								"astId": 104,
								"contract": "contracts/games/InstantBingo.sol:InstantBingo",
								"label": "ticket",
								"offset": 0,
								"slot": "3",
								"type": "t_string_storage"
							},
							{
								"astId": 106,
								"contract": "contracts/games/InstantBingo.sol:InstantBingo",
								"label": "signature",
								"offset": 0,
								"slot": "4",
								"type": "t_string_storage"
							}
						],
						"numberOfBytes": "160"
					},
					"t_struct(Game)96_storage": {
						"encoding": "inplace",
						"label": "struct InstantBingo.Game",
						"members": [
							{
								"astId": 78,
								"contract": "contracts/games/InstantBingo.sol:InstantBingo",
								"label": "serialNo",
								"offset": 0,
								"slot": "0",
								"type": "t_uint256"
							},
							{
								"astId": 80,
								"contract": "contracts/games/InstantBingo.sol:InstantBingo",
								"label": "gameStartTime",
								"offset": 0,
								"slot": "1",
								"type": "t_uint256"
							},
							{
								"astId": 82,
								"contract": "contracts/games/InstantBingo.sol:InstantBingo",
								"label": "gameEndTime",
								"offset": 0,
								"slot": "2",
								"type": "t_uint256"
							},
							{
								"astId": 85,
								"contract": "contracts/games/InstantBingo.sol:InstantBingo",
								"label": "state",
								"offset": 0,
								"slot": "3",
								"type": "t_enum(GameState)33"
							},
							{
								"astId": 87,
								"contract": "contracts/games/InstantBingo.sol:InstantBingo",
								"label": "totalPlayers",
								"offset": 0,
								"slot": "4",
								"type": "t_uint256"
							},
							{
								"astId": 89,
								"contract": "contracts/games/InstantBingo.sol:InstantBingo",
								"label": "maxPlayers",
								"offset": 0,
								"slot": "5",
								"type": "t_uint256"
							},
							{
								"astId": 91,
								"contract": "contracts/games/InstantBingo.sol:InstantBingo",
								"label": "totalCards",
								"offset": 0,
								"slot": "6",
								"type": "t_uint256"
							},
							{
								"astId": 93,
								"contract": "contracts/games/InstantBingo.sol:InstantBingo",
								"label": "totalNumbers",
								"offset": 0,
								"slot": "7",
								"type": "t_uint256"
							},
							{
								"astId": 95,
								"contract": "contracts/games/InstantBingo.sol:InstantBingo",
								"label": "numbersPerCard",
								"offset": 0,
								"slot": "8",
								"type": "t_uint256"
							}
						],
						"numberOfBytes": "288"
					},
					"t_struct(Player)40_storage": {
						"encoding": "inplace",
						"label": "struct InstantBingo.Player",
						"members": [
							{
								"astId": 35,
								"contract": "contracts/games/InstantBingo.sol:InstantBingo",
								"label": "gameSerialNo",
								"offset": 0,
								"slot": "0",
								"type": "t_uint256"
							},
							{
								"astId": 37,
								"contract": "contracts/games/InstantBingo.sol:InstantBingo",
								"label": "playerAddress",
								"offset": 0,
								"slot": "1",
								"type": "t_address"
							},
							{
								"astId": 39,
								"contract": "contracts/games/InstantBingo.sol:InstantBingo",
								"label": "ticketNumber",
								"offset": 0,
								"slot": "2",
								"type": "t_uint256"
							}
						],
						"numberOfBytes": "96"
					},
					"t_uint256": {
						"encoding": "inplace",
						"label": "uint256",
						"numberOfBytes": "32"
					}
				}
			},
			"userdoc": {
				"kind": "user",
				"methods": {
					"addGameCard(uint256,uint256,string,string)": {
						"notice": "The Bingo Instant Ticket/Card is created offchain to comply with FS 849.0931 and sent as the following object {    name: 'GAME ONE',    manufacturer: 'AMERIONE CORPORATION',    formNumber: '1699538915902',    ticketCount: 4000,    prizeStructure: 'Community Jackpot',    price: 1,    serialNo: '16995389158695327',    ticket: 'H4sIAAAAAAAAEzVUSbLlMAi7UBYGD9hn+dX3v0Zr4C1ScRwGIQR/ce5X74u9v1iJ9/ri1BdjfpG4Hziv9z28Np/AFUwPzWGyp0zr4AXrul/c42gH0VY56kLUxP3D++Ku+KY7/s3OMsO2s+zHVAtxLt6Mz3OF49/+P8+XA+9grIFv5D/D/mMJ00P4uxsafl1cV31J10i74y5zyPSEaw+YBb/hNofPcYwul6tjBqKnrXzKdkKBkOPiSccEh2KAMe41AyAvac84JJN2RK88Q3kuEOY28iLaH8m8P65iTFfCtCTo8bs+ZblGtkJnmgW7fZ+JYEvf/nINd5icTBddiJJll3MsAuAp9T7jCo8ayGbPbg7LBDUgPFnBNsGEwx5nhnIqyaR0yPaxnBiqyGI41CAD0+css7O7A+rIbT/+D7M/ESNJzbIfWT7sTkrNGdQImz0lCttZFMJU2ySksZMmXOfoCglJEqWkj2FJrt1YTgNDs6mEStrX1UMVk8rrcMoWzpSTVKe0krHccFZDYt8RYp0Z/tceVKxerB6C3cJfckki5TeHgkP3rI3EkN2ecJqqiOmpjwaMbBwEtcCfpPq1FXXKsqnlvI1tGJcilWci04uCVHGy0bGNawgtl100w8PSzZ8GhvqfJJvE/iQ12Lvw//3Lzp3SJf9WkuT4TAvQFBn6rYZSdg/i7BDbKqZ8NLSv19jwStq9tvZqhqOl1OuFC3KZHxVNcn45QCdJH70r4Hp6PUiUvW6B5P3YGh7z540rLU6bCBiFJBFuA+CsgFm5l1vKeolhXNfN8+yM6TMxadcPly2T3ZNY7in/a3teKSJj+57f1DFSaqpxp4nmlqHcqzf4or7Xv/+AE63jXAYAAA==',    signature: 'e5zuASVCJ7opk/86IKsW3CsKsgl6pZFj3k6ndKKb0RzVV1GKpQo6C6JBTe0UWb4tRwVpEaoH6z+dbRfT8Uzg3S6QOa4v0/AhYoeCTIJONQIis+nwdJ3IX0gd8PBiyyQ5Y3bfKFM7rhEUfb1DX1tCsGNr50nGTnh5+NoLWR4ml9+z+cRTz0k5aDlanyvjutmYsD61q68AURbstx9rBnYwtmVxDfkNS2qzgvmL0DrB9JIZtVpo2hUf4x5l3xVaVXlYpLt8Gr+v+8uc89VCRIvjErl9W40Hp4srUItovMyAQSGO4E3zQl5SLUOSXSOpABNGtgPUOzjPIdIrY9lSBssjhw=='  } The ticket data is an encrypted compressed data stream of the bingo card grid with the associated rack for three chances of winning by single line, four corners or two lines The ticket data can be decrypted off chain using the private key The signature is used to verify the ticket data off-chain using the public key { name: 'GAME ONE', manufacturer: 'AMERIONE CORPORATION', formNumber: '1699792690174', ticketCount: 5, prizeStructure: 'Community Jackpot', price: 1, serialNo: '16997926892024541', ticket: 'H4sIAAAAAAAAE02U2ZEgMQhDE/KHwXcsU5t/GstDdM18dLltcwgh/GP7tvOardVseqyz2T7N+mjmcd7jf772Yll8FkdhujEPkzXS9OxYwvrcZncr2o5o8yjqjKge5y/WG2eHFfe4G5VlmGzHkR+pZsS5sRKf/2OKf+t+7OY9ViNWj33k313+fSamF+HvKmhxdeP4nOa4mss9ztx7mm5T7RZmxj7cRrh5nLsLJf9H5t8WTuzIJUFExH7jc4UMCpMAA/wVAcGdYw9QuISwBZEuol7ZjKWWRIEOtGfhR+Ev7m6euUdFPhqhh0yB5cDLwoeKhKezBOGtdj8UOxHbjYj+8eRCPdOMBGmybnbNKTiZL77oTrDutlRUCARKbSqTveKQzoBw7LxDV8jslJZY4eO4OPWptHBXqdPVl1pEeFL3CE8sOn2BgQAgY6gaOEU4L6Bb8AjsIAG4yX2IzJ2yeiMEXUeLQAnzTE1a0syCgBusTKrqai26B2r6U1rPsck0WcaU3kM62Yv1BGeohUar15Uohys2svBv5K60jhwy1hZtdrJxSMVhGRnlHL7st1MH6sWGWevl14tCK+XbVTtmdXVrhlLS2WnTfI0/bfCS76r7UZIfZQdn++awwQdPwaqSCRkwrhB7XOW0ess3otcIXNXR9x8FfvXDewmVMUhJfD2Z4ioH3MRfJH2jpnGoVZSA6qAtJ/fWU9YVMh+DpxYjYsrEb36PwkgRw9wsJrjiHQ1FvFvAPb9cSLJ/9QFGwKArojCvzC/fKQ5zDIZ6hUbQJHoBeE2SEGzZIXv8mPXcm+xd6ECVD/6soZwygSqmxockwysVZ9fr4bnKePSk5hl0sLfq4bj//gNb88ULVAYAAA==', signature: 'EELcvDn9ZE22kUPcq90uKR/xGOLLElU2WuR2pBr+jPczSc7535wO+Q9iwoznW0crNiqYpM04AlsD3skM+pb4eaoWjD91ONgDz4kweEGTn1np6C8amQsSXW3BU8n8QYuPFcLQdnbUB2hOfmW606ks1INxz1Wiii6iexNOdBLcUkf44gGgK3Zb3plFDzWSMHfy/pT/Kubjze3QRPsp9hKr5RVwW3GCySEaTfsuisqD/Ri+L/ShZegt7Boc6aQFefB7J2ambrlEA/CFZ47y4WDMAG6l4s2n1KHNGxayqN1jiH1A9Q4JSmjo1Ajp15fF40avbhdBKAzIBkXsJfUBB3Yfeg==' }"
					}
				},
				"version": 1
			}
		}
	}
}