{
  "contractName": "AccessControl",
  "abi": [
    {
      "inputs": [],
      "stateMutability": "nonpayable",
      "type": "constructor"
    },
    {
      "anonymous": false,
      "inputs": [
        {
          "indexed": false,
          "internalType": "address",
          "name": "_sender",
          "type": "address"
        }
      ],
      "name": "Sender",
      "type": "event"
    },
    {
      "inputs": [],
      "name": "getOwner",
      "outputs": [
        {
          "internalType": "address",
          "name": "",
          "type": "address"
        }
      ],
      "stateMutability": "view",
      "type": "function"
    }
  ],
  "bytecode": "0x6080604052348015600f57600080fd5b5060008054600160a060020a031916331790556085806100306000396000f3fe6080604052348015600f57600080fd5b5060043610602b5760e060020a6000350463893d20e881146030575b600080fd5b60005460408051600160a060020a039092168252519081900360200190f3fea26469706673582212208d068d1b27db6bb47bba08ba4c578da2315a28f102100d4f2fe43c847312572d64736f6c63430008120033",
  "immutableReferences": {},
  "source": "// SPDX-License-Identifier: BSL-1.1\npragma solidity >=0.4.22 <0.9.0;\n\nimport \"../../interfaces/IAccessControl.sol\";\n\ncontract AccessControl is IAccessControl {\n\n    address private owner;\n\n    // Variable to track reentrant calls\n    bool private reentrantGuard;\n\n\n    event Sender(address _sender);\n\n    constructor() {\n        owner = msg.sender;\n    }\n\n    modifier isOwner() {\n        require(msg.sender == owner, \"Not authorized\");\n        _;\n    }\n\n    modifier isContract(address _contract) {\n        require (_contract == address(this),\"not authorized contract\");\n        _;\n    }\n\n    modifier nonReentrant() {\n        require(!reentrantGuard, \"Reentrant call detected\");\n        reentrantGuard = true;\n        _;\n        reentrantGuard = false;\n    }\n\n    function getOwner() external view returns (address) {\n        return owner;\n    }\n\n}\n",
  "sourcePath": "/Volumes/My Book/projects/pingleware-contracts/contracts/finance/elmx/AccessControl.sol",
  "compiler": {
    "name": "solc",
    "version": "0.8.18+commit.87f61d96.Emscripten.clang"
  },
  "schemaVersion": "3.4.12",
  "updatedAt": "2023-10-22T00:13:31.265Z",
  "devdoc": {
    "kind": "dev",
    "methods": {},
    "version": 1
  },
  "userdoc": {
    "kind": "user",
    "methods": {},
    "version": 1
  }
}