{
  "contractName": "Account",
  "abi": [
    {
      "inputs": [
        {
          "internalType": "address",
          "name": "transaction_contract",
          "type": "address"
        }
      ],
      "stateMutability": "nonpayable",
      "type": "constructor"
    },
    {
      "anonymous": false,
      "inputs": [
        {
          "indexed": false,
          "internalType": "address",
          "name": "sender",
          "type": "address"
        },
        {
          "indexed": false,
          "internalType": "address",
          "name": "receiver",
          "type": "address"
        },
        {
          "indexed": false,
          "internalType": "uint256",
          "name": "amount",
          "type": "uint256"
        }
      ],
      "name": "AccountBalanceTransfer",
      "type": "event"
    },
    {
      "anonymous": false,
      "inputs": [
        {
          "indexed": false,
          "internalType": "address",
          "name": "sender",
          "type": "address"
        },
        {
          "indexed": false,
          "internalType": "address",
          "name": "receiver",
          "type": "address"
        },
        {
          "indexed": false,
          "internalType": "uint256",
          "name": "amount",
          "type": "uint256"
        }
      ],
      "name": "AccountTransfer",
      "type": "event"
    },
    {
      "inputs": [
        {
          "internalType": "address",
          "name": "addr",
          "type": "address"
        }
      ],
      "name": "balanceOf",
      "outputs": [
        {
          "internalType": "uint256",
          "name": "",
          "type": "uint256"
        }
      ],
      "stateMutability": "view",
      "type": "function"
    },
    {
      "inputs": [
        {
          "internalType": "address",
          "name": "addr",
          "type": "address"
        },
        {
          "internalType": "uint256",
          "name": "value",
          "type": "uint256"
        }
      ],
      "name": "isSufficientBalance",
      "outputs": [
        {
          "internalType": "bool",
          "name": "",
          "type": "bool"
        }
      ],
      "stateMutability": "view",
      "type": "function"
    },
    {
      "inputs": [
        {
          "internalType": "address",
          "name": "addr",
          "type": "address"
        },
        {
          "internalType": "uint256",
          "name": "amount",
          "type": "uint256"
        }
      ],
      "name": "setBalance",
      "outputs": [],
      "stateMutability": "nonpayable",
      "type": "function"
    },
    {
      "inputs": [
        {
          "internalType": "address",
          "name": "addr",
          "type": "address"
        }
      ],
      "name": "getBalance",
      "outputs": [
        {
          "internalType": "uint256",
          "name": "",
          "type": "uint256"
        }
      ],
      "stateMutability": "view",
      "type": "function"
    },
    {
      "inputs": [
        {
          "internalType": "address",
          "name": "addr",
          "type": "address"
        },
        {
          "internalType": "uint256",
          "name": "amount",
          "type": "uint256"
        }
      ],
      "name": "add",
      "outputs": [],
      "stateMutability": "nonpayable",
      "type": "function"
    },
    {
      "inputs": [
        {
          "internalType": "address",
          "name": "addr",
          "type": "address"
        },
        {
          "internalType": "uint256",
          "name": "amount",
          "type": "uint256"
        }
      ],
      "name": "sub",
      "outputs": [],
      "stateMutability": "nonpayable",
      "type": "function"
    },
    {
      "inputs": [
        {
          "internalType": "address",
          "name": "sender",
          "type": "address"
        },
        {
          "internalType": "address",
          "name": "receiver",
          "type": "address"
        }
      ],
      "name": "transferBalances",
      "outputs": [],
      "stateMutability": "nonpayable",
      "type": "function"
    },
    {
      "inputs": [
        {
          "internalType": "address",
          "name": "sender",
          "type": "address"
        },
        {
          "internalType": "address",
          "name": "receiver",
          "type": "address"
        },
        {
          "internalType": "uint256",
          "name": "amount",
          "type": "uint256"
        }
      ],
      "name": "transfer",
      "outputs": [],
      "stateMutability": "nonpayable",
      "type": "function"
    }
  ],
  "bytecode": "0x608060405234801561001057600080fd5b50604051610a80380380610a8083398101604081905261002f91610054565b60008054600160a060020a031916600160a060020a0392909216919091179055610084565b60006020828403121561006657600080fd5b8151600160a060020a038116811461007d57600080fd5b9392505050565b6109ed806100936000396000f3fe608060405234801561001057600080fd5b506004361061007b5760e060020a6000350463080aa4e2811461008057806326ffee081461009557806346860d14146100a857806370a08231146100d0578063beabacc8146100f1578063e30443bc14610104578063f5d82b6b14610117578063f8b2cb4f146100d0575b600080fd5b61009361008e366004610835565b61012a565b005b6100936100a3366004610868565b610327565b6100bb6100b6366004610868565b6103f7565b60405190151581526020015b60405180910390f35b6100e36100de366004610892565b610450565b6040519081526020016100c7565b6100936100ff3660046108b4565b6104a5565b610093610112366004610868565b61066f565b610093610125366004610868565b61072f565b81600160a060020a03811661015d5760405160e560020a62461bcd028152600401610154906108f0565b60405180910390fd5b81600160a060020a0381166101875760405160e560020a62461bcd028152600401610154906108f0565b60006101916107f5565b600160a060020a038616600090815260209190915260409020549050806101b66107f5565b600160a060020a038616600090815260209190915260408120919091556101db6107f5565b600160a060020a0380881660009081526020929092526040808320939093558154925160e060020a63590c4ef902815292169163590c4ef9916102279189919081904290600401610927565b600060405180830381600087803b15801561024157600080fd5b505af1158015610255573d6000803e3d6000fd5b50506000805460405160e060020a63590c4ef9028152600160a060020a03909116935063590c4ef9925061029191889186904290600401610927565b600060405180830381600087803b1580156102ab57600080fd5b505af11580156102bf573d6000803e3d6000fd5b505050507fd3e30ac6ffec919c9a93d05467e8cca192d31830bfd93c5dc0fc5b3194834b4885856102ee6107f5565b600160a060020a03881660009081526020919091526040908190205490516103189392919061094d565b60405180910390a15050505050565b81600160a060020a0381166103515760405160e560020a62461bcd028152600401610154906108f0565b6000805460405160e060020a63590c4ef9028152600160a060020a039091169163590c4ef99161038991879187904290600401610927565b600060405180830381600087803b1580156103a357600080fd5b505af11580156103b7573d6000803e3d6000fd5b50505050816103c46107f5565b600160a060020a03851660009081526020919091526040812080549091906103ed90849061098b565b9091555050505050565b600082600160a060020a0381166104235760405160e560020a62461bcd028152600401610154906108f0565b8261042c6107f5565b600160a060020a038616600090815260209190915260409020541191505092915050565b600081600160a060020a03811661047c5760405160e560020a62461bcd028152600401610154906108f0565b6104846107f5565b600160a060020a039390931660009081526020939093525050604090205490565b82600160a060020a0381166104cf5760405160e560020a62461bcd028152600401610154906108f0565b82600160a060020a0381166104f95760405160e560020a62461bcd028152600401610154906108f0565b826105026107f5565b600160a060020a038716600090815260209190915260408120805490919061052b9084906109a4565b9091555083905061053a6107f5565b600160a060020a038616600090815260209190915260408120805490919061056390849061098b565b90915550506000805460405160e060020a63590c4ef9028152600160a060020a039091169163590c4ef9916105a091899188904290600401610927565b600060405180830381600087803b1580156105ba57600080fd5b505af11580156105ce573d6000803e3d6000fd5b50506000805460405160e060020a63590c4ef9028152600160a060020a03909116935063590c4ef9925061060a91889188904290600401610927565b600060405180830381600087803b15801561062457600080fd5b505af1158015610638573d6000803e3d6000fd5b505050507f4a5c454a446a516f4491813074ec78cf8cd5e34c2514911f982db1ef8ac0fef38585856040516103189392919061094d565b81600160a060020a0381166106995760405160e560020a62461bcd028152600401610154906108f0565b6000805460405160e060020a63590c4ef9028152600160a060020a039091169163590c4ef9916106d191879187904290600401610927565b600060405180830381600087803b1580156106eb57600080fd5b505af11580156106ff573d6000803e3d6000fd5b505050508161070c6107f5565b600160a060020a0390941660009081526020949094526040909320929092555050565b81600160a060020a0381166107595760405160e560020a62461bcd028152600401610154906108f0565b6000805460405160e060020a63590c4ef9028152600160a060020a039091169163590c4ef99161079191879187904290600401610927565b600060405180830381600087803b1580156107ab57600080fd5b505af11580156107bf573d6000803e3d6000fd5b50505050816107cc6107f5565b600160a060020a03851660009081526020919091526040812080549091906103ed9084906109a4565b7f1c2c7379ab18db34d01b5248810eb5fded2a9c6da8ffd3fd2b8abde00d63d9d790565b8035600160a060020a038116811461083057600080fd5b919050565b6000806040838503121561084857600080fd5b61085183610819565b915061085f60208401610819565b90509250929050565b6000806040838503121561087b57600080fd5b61088483610819565b946020939093013593505050565b6000602082840312156108a457600080fd5b6108ad82610819565b9392505050565b6000806000606084860312156108c957600080fd5b6108d284610819565b92506108e060208501610819565b9150604084013590509250925092565b6020808252601a908201527f7a65726f2061646472657373206e6f74207065726d6974746564000000000000604082015260600190565b600160a060020a0394909416845260208401929092526040830152606082015260800190565b600160a060020a039384168152919092166020820152604081019190915260600190565b60e060020a634e487b710260009081526011600452602490fd5b8181038181111561099e5761099e610971565b92915050565b8082018082111561099e5761099e61097156fea26469706673582212206b3fb5a7c9eb9e4c2e216962b5eed253ff4f66a223001df99f83dfbfda5cd49f64736f6c63430008120033",
  "immutableReferences": {},
  "source": "// SPDX-License-Identifier: CC-BY-4.0\r\npragma solidity >=0.4.22 <0.9.0;\r\n\r\n/**\r\n * This library is using Diamond Storage to hold state variables. Additionally, library functions cannot have payable methods, in essence we have gas-free state variables?\r\n */\r\nimport \"../interfaces/ITransaction.sol\";\r\n\r\n\r\ncontract Account {\r\n    ITransaction private transaction;\r\n\r\n    event AccountBalanceTransfer(address sender,address receiver,uint256 amount);\r\n    event AccountTransfer(address sender,address receiver,uint256 amount);\r\n\r\n    modifier isValidAddress(address addr) {\r\n        require (addr != address(0), \"zero address not permitted\");\r\n        _;\r\n    }\r\n\r\n    /**\r\n     * @dev Diamond storage for adding state variables in libraries\r\n     * https://dev.to/mudgen/solidity-libraries-can-t-have-state-variables-oh-yes-they-can-3ke9\r\n     */\r\n    struct AccountStorage {\r\n        mapping (address => uint256) _balance;\r\n    }\r\n\r\n    constructor(address transaction_contract) {\r\n        transaction = ITransaction(transaction_contract);\r\n    }\r\n\r\n    function accountStorage() internal pure returns (AccountStorage storage ds)\r\n    {\r\n        bytes32 position = keccak256(\"account.storage\");\r\n        assembly { ds.slot := position }\r\n    }\r\n\r\n    function balanceOf(address addr) \r\n        external\r\n        view\r\n        isValidAddress(addr)\r\n        returns (uint256)\r\n    {\r\n        // @dev To reference the mapping using diamon storage\r\n        // https://medium.com/@mudgen/new-storage-layout-for-proxy-contracts-and-diamonds-98d01d0eadb\r\n        return accountStorage()._balance[addr];\r\n    }\r\n\r\n    function isSufficientBalance(address addr, uint256 value) \r\n        external\r\n        view\r\n        isValidAddress(addr)\r\n        returns (bool)\r\n    {\r\n        return (accountStorage()._balance[addr] > value);\r\n    }\r\n\r\n    function setBalance(address addr, uint256 amount)\r\n        external\r\n        isValidAddress(addr)\r\n    {\r\n        transaction.addTransaction(addr,0,amount,block.timestamp);\r\n        accountStorage()._balance[addr] = amount;\r\n    }\r\n\r\n    function getBalance(address addr) \r\n        external\r\n        view\r\n        isValidAddress(addr)\r\n        returns (uint256)\r\n    {\r\n        return accountStorage()._balance[addr];\r\n    }\r\n\r\n    function add(address addr, uint256 amount)\r\n        external\r\n        isValidAddress(addr)\r\n    {\r\n        transaction.addTransaction(addr,0,amount,block.timestamp);\r\n        accountStorage()._balance[addr] += amount;\r\n    }\r\n\r\n    function sub(address addr, uint256 amount)\r\n        external\r\n        isValidAddress(addr)\r\n    {\r\n        transaction.addTransaction(addr,0,amount,block.timestamp);\r\n        accountStorage()._balance[addr] -= amount;\r\n    }\r\n\r\n    function transferBalances(address sender,address receiver)\r\n        external\r\n        isValidAddress(sender)\r\n        isValidAddress(receiver)\r\n    {\r\n        uint256 amount = accountStorage()._balance[sender];\r\n        accountStorage()._balance[receiver] = amount;\r\n        accountStorage()._balance[sender] = 0;\r\n        transaction.addTransaction(sender,0,0,block.timestamp);\r\n        transaction.addTransaction(receiver,0,amount,block.timestamp);\r\n        emit AccountBalanceTransfer(sender, receiver, accountStorage()._balance[receiver]);\r\n    }\r\n\r\n    function transfer(address sender,address receiver, uint256 amount)\r\n        external\r\n        isValidAddress(sender)\r\n        isValidAddress(receiver)\r\n    {\r\n        accountStorage()._balance[sender] += amount;\r\n        accountStorage()._balance[receiver] -= amount;\r\n        transaction.addTransaction(sender,0,amount,block.timestamp);\r\n        transaction.addTransaction(receiver,0,amount,block.timestamp);\r\n        emit AccountTransfer(sender,receiver,amount);\r\n    }\r\n}",
  "sourcePath": "/Volumes/My Book/projects/pingleware-contracts/contracts/common/Account.sol",
  "compiler": {
    "name": "solc",
    "version": "0.8.18+commit.87f61d96.Emscripten.clang"
  },
  "schemaVersion": "3.4.12",
  "updatedAt": "2023-10-22T14:23:00.742Z",
  "devdoc": {
    "kind": "dev",
    "methods": {},
    "version": 1
  },
  "userdoc": {
    "kind": "user",
    "methods": {},
    "version": 1
  }
}