{
  "contractName": "ActiveOffering",
  "abi": [
    {
      "inputs": [
        {
          "internalType": "address",
          "name": "offering",
          "type": "address"
        }
      ],
      "name": "isActive",
      "outputs": [
        {
          "internalType": "bool",
          "name": "",
          "type": "bool"
        }
      ],
      "stateMutability": "view",
      "type": "function"
    },
    {
      "inputs": [
        {
          "internalType": "address",
          "name": "offering",
          "type": "address"
        },
        {
          "internalType": "bool",
          "name": "_active",
          "type": "bool"
        }
      ],
      "name": "set",
      "outputs": [],
      "stateMutability": "nonpayable",
      "type": "function"
    },
    {
      "inputs": [
        {
          "internalType": "address",
          "name": "offering",
          "type": "address"
        }
      ],
      "name": "get",
      "outputs": [
        {
          "internalType": "bool",
          "name": "",
          "type": "bool"
        }
      ],
      "stateMutability": "view",
      "type": "function"
    }
  ],
  "bytecode": "0x608060405234801561001057600080fd5b5061033e806100206000396000f3fe608060405234801561001057600080fd5b50600436106100445760e060020a600035046335e3b25a81146100495780639f8a13d71461005e578063c2bc2efc1461005e575b600080fd5b61005c610057366004610253565b610085565b005b61007161006c366004610291565b6101c2565b604051901515815260200160405180910390f35b600160a060020a0382166100b75760405160e560020a62461bcd0281526004016100ae906102b5565b60405180910390fd5b60008054600160a060020a031916600160a060020a0384169081179091556040805160e360020a631127a41d028152905163893d20e8916004808201926020929091908290030181865afa158015610113573d6000803e3d6000fd5b505050506040513d601f19601f8201168201806040525081019061013791906102eb565b600160a060020a0316330361018a5760405160e560020a62461bcd0281526020600482015260136024820152606860020a72756e617574686f72697a6564206163636573730260448201526064016100ae565b80610193610217565b600160a060020a039390931660009081526020939093526040909220805460ff19169215159290921790915550565b6000600160a060020a0382166101ed5760405160e560020a62461bcd0281526004016100ae906102b5565b6101f5610217565b600160a060020a03909216600090815260209290925250604090205460ff1690565b7f905b1574ab1d7d990cfe2833665b7b8bfbc8b2ac29c1d5d90b697649eb36db9590565b600160a060020a038116811461025057600080fd5b50565b6000806040838503121561026657600080fd5b82356102718161023b565b91506020830135801515811461028657600080fd5b809150509250929050565b6000602082840312156102a357600080fd5b81356102ae8161023b565b9392505050565b6020808252601990820152603a60020a781a5b9d985b1a59081bd999995c9a5b99c818dbdb9d1c9858dd02604082015260600190565b6000602082840312156102fd57600080fd5b81516102ae8161023b56fea2646970667358221220891bef93e6b598fcabe4a1494ce712ac71c97c65609b350ae981f7da80f661e064736f6c63430008120033",
  "immutableReferences": {},
  "source": "// SPDX-License-Identifier: CC-BY-4.0\r\npragma solidity >=0.4.22 <0.9.0;\r\n\r\nimport \"../interfaces/IOfferingContract.sol\";\r\n\r\ncontract ActiveOffering {\r\n    struct ActiveOfferingStorage {\r\n        mapping(address => bool) active;\r\n    }\r\n\r\n    IOfferingContract private Offering;\r\n\r\n\r\n    function activeOfferingStorage() internal pure returns (ActiveOfferingStorage storage ds)\r\n    {\r\n        bytes32 position = keccak256(\"activeoffering.storage\");\r\n        assembly { ds.slot := position }\r\n    }\r\n\r\n    function isActive(address offering)\r\n        external\r\n        view\r\n        returns (bool)\r\n    {\r\n        require(offering != address(0x0),\"invalid offering contract\");\r\n        return activeOfferingStorage().active[offering];\r\n    }\r\n\r\n    function set(address offering, bool _active)\r\n        external\r\n    {\r\n        require(offering != address(0x0),\"invalid offering contract\");\r\n        Offering = IOfferingContract(offering);\r\n        require(msg.sender != Offering.getOwner(),\"unauthorized access\");\r\n        activeOfferingStorage().active[offering] = _active;\r\n    }\r\n\r\n    function get(address offering)\r\n        external\r\n        view\r\n        returns (bool)\r\n    {\r\n        require(offering != address(0x0),\"invalid offering contract\");\r\n        return activeOfferingStorage().active[offering];\r\n    }\r\n\r\n}",
  "sourcePath": "/Volumes/My Book/projects/pingleware-contracts/contracts/finance/ActiveOffering.sol",
  "compiler": {
    "name": "solc",
    "version": "0.8.18+commit.87f61d96.Emscripten.clang"
  },
  "schemaVersion": "3.4.12",
  "updatedAt": "2023-10-22T14:23:00.830Z",
  "devdoc": {
    "kind": "dev",
    "methods": {},
    "version": 1
  },
  "userdoc": {
    "kind": "user",
    "methods": {},
    "version": 1
  }
}