{
  "contractName": "ActiveOffering",
  "abi": [
    {
      "inputs": [
        {
          "internalType": "address",
          "name": "offering",
          "type": "address"
        }
      ],
      "name": "isActive",
      "outputs": [
        {
          "internalType": "bool",
          "name": "",
          "type": "bool"
        }
      ],
      "stateMutability": "view",
      "type": "function"
    },
    {
      "inputs": [
        {
          "internalType": "address",
          "name": "offering",
          "type": "address"
        },
        {
          "internalType": "bool",
          "name": "_active",
          "type": "bool"
        }
      ],
      "name": "set",
      "outputs": [],
      "stateMutability": "nonpayable",
      "type": "function"
    },
    {
      "inputs": [
        {
          "internalType": "address",
          "name": "offering",
          "type": "address"
        }
      ],
      "name": "get",
      "outputs": [
        {
          "internalType": "bool",
          "name": "",
          "type": "bool"
        }
      ],
      "stateMutability": "view",
      "type": "function"
    }
  ],
  "bytecode": "0x60808060405234610016576102bf908161001c8239f35b600080fdfe604060808152600436101561001357600080fd5b600060e060020a81350491826335e3b25a1461004a57505080639f8a13d7146100455763c2bc2efc1461004557600080fd5b6101c4565b346101a557806003193601126101a5576100626101a9565b90602435918215158093036101a157600160a060020a0390811661008781151561021b565b8454600160a060020a03191681178555825160e360020a631127a41d028152602092908381600481865afa908115610197578791610130575b501633146100ee579060008051602061026a8339815191529185525282209060ff8019835416911617905580f35b50905160e560020a62461bcd028152600481019190915260136024820152606860020a72756e617574686f72697a656420616363657373026044820152606490fd5b9050833d8511610190575b601f8101601f191682016001604060020a0381118382101761017957859183918852810103126101755751818116810361017557876100c0565b8680fd5b60e060020a634e487b710289526041600452602489fd5b503d61013b565b85513d89823e3d90fd5b8380fd5b5080fd5b60043590600160a060020a03821682036101bf57565b600080fd5b346101bf5760203660031901126101bf57600160a060020a036101e56101a9565b166101f181151561021b565b60005260008051602061026a833981519152602052602060ff604060002054166040519015158152f35b1561022257565b60405160e560020a62461bcd0281526020600482015260196024820152603a60020a781a5b9d985b1a59081bd999995c9a5b99c818dbdb9d1c9858dd026044820152606490fdfe905b1574ab1d7d990cfe2833665b7b8bfbc8b2ac29c1d5d90b697649eb36db95a264697066735822122073512d829fbdb3a31703cfab7c71e5d9dad8dab1afa96190ffe890069ffc931b64736f6c63430008120033",
  "immutableReferences": {},
  "source": "// SPDX-License-Identifier: CC-BY-4.0\r\npragma solidity >=0.4.22 <0.9.0;\r\n\r\nimport \"../interfaces/IOfferingContract.sol\";\r\n\r\ncontract ActiveOffering {\r\n    struct ActiveOfferingStorage {\r\n        mapping(address => bool) active;\r\n    }\r\n\r\n    IOfferingContract private Offering;\r\n\r\n\r\n    function activeOfferingStorage() internal pure returns (ActiveOfferingStorage storage ds)\r\n    {\r\n        bytes32 position = keccak256(\"activeoffering.storage\");\r\n        assembly { ds.slot := position }\r\n    }\r\n\r\n    function isActive(address offering)\r\n        external\r\n        view\r\n        returns (bool)\r\n    {\r\n        require(offering != address(0x0),\"invalid offering contract\");\r\n        return activeOfferingStorage().active[offering];\r\n    }\r\n\r\n    function set(address offering, bool _active)\r\n        external\r\n    {\r\n        require(offering != address(0x0),\"invalid offering contract\");\r\n        Offering = IOfferingContract(offering);\r\n        require(msg.sender != Offering.getOwner(),\"unauthorized access\");\r\n        activeOfferingStorage().active[offering] = _active;\r\n    }\r\n\r\n    function get(address offering)\r\n        external\r\n        view\r\n        returns (bool)\r\n    {\r\n        require(offering != address(0x0),\"invalid offering contract\");\r\n        return activeOfferingStorage().active[offering];\r\n    }\r\n\r\n}",
  "sourcePath": "/Volumes/HOME/pingleware-contracts/contracts/finance/ActiveOffering.sol",
  "compiler": {
    "name": "solc",
    "version": "0.8.18+commit.87f61d96.Emscripten.clang"
  },
  "schemaVersion": "3.4.12",
  "updatedAt": "2024-05-23T18:56:25.164Z",
  "devdoc": {
    "kind": "dev",
    "methods": {},
    "version": 1
  },
  "userdoc": {
    "kind": "user",
    "methods": {},
    "version": 1
  }
}