{
  "contractName": "Advertiser",
  "abi": [
    {
      "inputs": [],
      "name": "isAdvertiser",
      "outputs": [
        {
          "internalType": "bool",
          "name": "",
          "type": "bool"
        }
      ],
      "stateMutability": "view",
      "type": "function"
    },
    {
      "inputs": [],
      "name": "notAdvertiser",
      "outputs": [
        {
          "internalType": "bool",
          "name": "",
          "type": "bool"
        }
      ],
      "stateMutability": "view",
      "type": "function"
    },
    {
      "inputs": [],
      "name": "getAdvertisers",
      "outputs": [
        {
          "internalType": "address[]",
          "name": "",
          "type": "address[]"
        }
      ],
      "stateMutability": "view",
      "type": "function"
    }
  ],
  "bytecode": "0x6104ef610053600b82828239805160001a607314610046577f4e487b7100000000000000000000000000000000000000000000000000000000600052600060045260246000fd5b30600052607381538281f3fe730000000000000000000000000000000000000000301460806040526004361061007d577c010000000000000000000000000000000000000000000000000000000060003504639ba099f78114610082578063d2ab4873146100b6578063d2e94037146100d8578063ec547d80146100fc578063f61aa6f014610111575b600080fd5b33600090815260008051602061049a8339815191526020526040902054155b60405190151581526020015b60405180910390f35b8180156100c257600080fd5b506100d66100d136600461033a565b6101b0565b005b33600090815260008051602061049a833981519152602052604090205415156100a1565b6101046101f3565b6040516100ad91906103eb565b81801561011d57600080fd5b506100d633600081815260008051602061049a833981519152602052604081206001908190557f657628a550cd57488caa1cca477b7b4fbd68fa8798d79248ac0dc2d0089d2c30805491820181559091527f96e2c836a76e05f2abf6d5501734a6ffc4f28b484f4c2da137174f65821f466301805473ffffffffffffffffffffffffffffffffffffffff19169091179055565b3360009081527f657628a550cd57488caa1cca477b7b4fbd68fa8798d79248ac0dc2d0089d2c2f6020908152604090912082516101ef92840190610272565b5050565b606060008051602061049a83398151915260020180548060200260200160405190810160405280929190818152602001828054801561026857602002820191906000526020600020905b815473ffffffffffffffffffffffffffffffffffffffff16815260019091019060200180831161023d575b5050505050905090565b82805461027e90610445565b90600052602060002090601f0160209004810192826102a057600085556102e6565b82601f106102b957805160ff19168380011785556102e6565b828001600101855582156102e6579182015b828111156102e65782518255916020019190600101906102cb565b506102f29291506102f6565b5090565b5b808211156102f257600081556001016102f7565b7f4e487b7100000000000000000000000000000000000000000000000000000000600052604160045260246000fd5b60006020828403121561034c57600080fd5b813567ffffffffffffffff8082111561036457600080fd5b818401915084601f83011261037857600080fd5b81358181111561038a5761038a61030b565b604051601f8201601f19908116603f011681019083821181831017156103b2576103b261030b565b816040528281528760208487010111156103cb57600080fd5b826020860160208301376000928101602001929092525095945050505050565b6020808252825182820181905260009190848201906040850190845b8181101561043957835173ffffffffffffffffffffffffffffffffffffffff1683529284019291840191600101610407565b50909695505050505050565b60028104600182168061045957607f821691505b60208210811415610493577f4e487b7100000000000000000000000000000000000000000000000000000000600052602260045260246000fd5b5091905056fe657628a550cd57488caa1cca477b7b4fbd68fa8798d79248ac0dc2d0089d2c2ea2646970667358221220a24db946f8f89c9a17f8dba7db13028c5ff6a5171b1eecad5e1a5148e192409864736f6c634300080a0033",
  "immutableReferences": {},
  "source": "// SPDX-License-Identifier: CC-BY-4.0\r\npragma solidity >=0.4.22 <0.9.0;\r\n\r\nlibrary Advertiser {\r\n\r\n    struct AdvertiserStorage {\r\n        mapping (address => uint256) advertisers;\r\n        mapping (address => string) advertisements;\r\n        address[] _advertisers;\r\n    }\r\n\r\n    function advertiserStorage() internal pure returns (AdvertiserStorage storage ds)\r\n    {\r\n        bytes32 position = keccak256(\"advertiser.storage\");\r\n        assembly { ds.slot := position }\r\n    }\r\n\r\n\r\n    function isAdvertiser()\r\n        external\r\n        view\r\n        returns (bool)\r\n    {\r\n        return (advertiserStorage().advertisers[msg.sender] != 0);\r\n    }\r\n\r\n    function notAdvertiser()\r\n        external\r\n        view\r\n        returns (bool)\r\n    {\r\n        return (advertiserStorage().advertisers[msg.sender] == 0);\r\n    }\r\n\r\n    function addAdvertiser()\r\n        external\r\n    {\r\n        advertiserStorage().advertisers[msg.sender] = 1;\r\n        advertiserStorage()._advertisers.push(msg.sender);\r\n    }\r\n\r\n    function newAdvertisement(string memory message)\r\n        external\r\n    {\r\n        advertiserStorage().advertisements[msg.sender] = message;\r\n    }\r\n\r\n    function getAdvertisers()\r\n        external\r\n        view\r\n        returns (address[] memory)\r\n    {\r\n        return advertiserStorage()._advertisers;\r\n    }\r\n\r\n}",
  "sourcePath": "G:\\projects\\pingleware-contracts\\contracts\\social\\Advertiser.sol",
  "compiler": {
    "name": "solc",
    "version": "0.8.10+commit.fc410830.Emscripten.clang"
  },
  "schemaVersion": "3.4.3",
  "updatedAt": "2021-12-25T15:51:04.392Z",
  "devdoc": {
    "kind": "dev",
    "methods": {},
    "version": 1
  },
  "userdoc": {
    "kind": "user",
    "methods": {},
    "version": 1
  }
}