{
  "contractName": "Advertiser",
  "abi": [
    {
      "anonymous": false,
      "inputs": [
        {
          "indexed": false,
          "internalType": "address",
          "name": "sender",
          "type": "address"
        },
        {
          "indexed": false,
          "internalType": "string",
          "name": "message",
          "type": "string"
        }
      ],
      "name": "AdvertisementAdded",
      "type": "event"
    },
    {
      "anonymous": false,
      "inputs": [
        {
          "indexed": false,
          "internalType": "address",
          "name": "useraddress",
          "type": "address"
        },
        {
          "indexed": false,
          "internalType": "string",
          "name": "message",
          "type": "string"
        },
        {
          "indexed": false,
          "internalType": "uint256",
          "name": "index",
          "type": "uint256"
        }
      ],
      "name": "AdvertisementDeleted",
      "type": "event"
    },
    {
      "anonymous": false,
      "inputs": [
        {
          "indexed": false,
          "internalType": "address",
          "name": "sender",
          "type": "address"
        }
      ],
      "name": "AdvertiserAdded",
      "type": "event"
    },
    {
      "inputs": [],
      "name": "isAdvertiser",
      "outputs": [
        {
          "internalType": "bool",
          "name": "",
          "type": "bool"
        }
      ],
      "stateMutability": "view",
      "type": "function",
      "constant": true
    },
    {
      "inputs": [],
      "name": "notAdvertiser",
      "outputs": [
        {
          "internalType": "bool",
          "name": "",
          "type": "bool"
        }
      ],
      "stateMutability": "view",
      "type": "function",
      "constant": true
    },
    {
      "inputs": [],
      "name": "getAdvertisements",
      "outputs": [
        {
          "internalType": "string[]",
          "name": "",
          "type": "string[]"
        }
      ],
      "stateMutability": "view",
      "type": "function",
      "constant": true
    },
    {
      "inputs": [],
      "name": "getAdvertisers",
      "outputs": [
        {
          "internalType": "address[]",
          "name": "",
          "type": "address[]"
        }
      ],
      "stateMutability": "view",
      "type": "function",
      "constant": true
    }
  ],
  "bytecode": "0x610a0a610053600b82828239805160001a607314610046577f4e487b7100000000000000000000000000000000000000000000000000000000600052600060045260246000fd5b30600052607381538281f3fe730000000000000000000000000000000000000000301460806040526004361061007a5760e060020a60003504635e7032a0811461007f5780639ba099f7146100a1578063ab111d8b146100be578063d2ab4873146100d3578063d2e94037146100f3578063ec547d80146100fb578063f452a4fe14610110575b600080fd5b81801561008b57600080fd5b5061009f61009a3660046105fe565b610130565b005b6100a96101d7565b60405190151581526020015b60405180910390f35b6100c66101f8565b6040516100b59190610666565b8180156100df57600080fd5b5061009f6100ee3660046106e1565b6102e5565b6100a9610354565b610103610376565b6040516100b59190610791565b81801561011c57600080fd5b5061009f61012b3660046107de565b6103e1565b33600160a060020a038216156101435750805b600161014d610568565b600160a060020a0383166000908152602091909152604090205561016f610568565b60020180546001810182556000918252602091829020018054600160a060020a031916600160a060020a0384169081179091556040519081527fdfaa8638b087deecf1b1ef43c6d6aa13dafc1d3374bb0e305ac4140f27f4c88f910160405180910390a15050565b60006101e1610568565b336000908152602091909152604090205415919050565b6060610202610568565b3360009081526001919091016020908152604080832080548251818502810185019093528083529193909284015b828210156102dc57838290600052602060002001805461024f90610808565b80601f016020809104026020016040519081016040528092919081815260200182805461027b90610808565b80156102c85780601f1061029d576101008083540402835291602001916102c8565b820191906000526020600020905b8154815290600101906020018083116102ab57829003601f168201915b505050505081526020019060010190610230565b50505050905090565b6102ed610568565b33600090815260019182016020908152604082208054938401815582529020016103178282610895565b507f28a4b9cafe9161bc23cfd18e2b31933a95fa7d6fec8cf992a577f03f81900ecb338260405161034992919061095a565b60405180910390a150565b600061035e610568565b33600090815260209190915260409020541515919050565b6060610380610568565b6002018054806020026020016040519081016040528092919081815260200182805480156103d757602002820191906000526020600020905b8154600160a060020a031681526001909101906020018083116103b9575b5050505050905090565b60006103eb610568565b600160a060020a038416600090815260019190910160205260409020541115610564576000610418610568565b600160a060020a03841660009081526001919091016020526040902080548390811061044657610446610986565b90600052602060002001805461045b90610808565b80601f016020809104026020016040519081016040528092919081815260200182805461048790610808565b80156104d45780601f106104a9576101008083540402835291602001916104d4565b820191906000526020600020905b8154815290600101906020018083116104b757829003601f168201915b505050505090506104e3610568565b600160a060020a03841660009081526001919091016020526040902080548390811061051157610511610986565b906000526020600020016000610527919061058c565b7f3c64449623a0a02ac51951c4388cffc6a513e2e081661e81f0139f1f1064e10283828460405161055a939291906109a0565b60405180910390a1505b5050565b7f657628a550cd57488caa1cca477b7b4fbd68fa8798d79248ac0dc2d0089d2c2e90565b50805461059890610808565b6000825580601f106105a8575050565b601f0160209004906000526020600020908101906105c691906105c9565b50565b5b808211156105de57600081556001016105ca565b5090565b8035600160a060020a03811681146105f957600080fd5b919050565b60006020828403121561061057600080fd5b610619826105e2565b9392505050565b6000815180845260005b818110156106465760208185018101518683018201520161062a565b506000602082860101526020601f19601f83011685010191505092915050565b600060208083018184528085518083526040860191506040848202870101925083870160005b828110156106ba57603f198886030184526106a8858351610620565b9450928501929085019060010161068c565b5092979650505050505050565b60e060020a634e487b710260009081526041600452602490fd5b6000602082840312156106f357600080fd5b81356001604060020a038082111561070a57600080fd5b818401915084601f83011261071e57600080fd5b813581811115610730576107306106c7565b604051601f8201601f19908116603f01168101908382118183101715610758576107586106c7565b8160405282815287602084870101111561077157600080fd5b826020860160208301376000928101602001929092525095945050505050565b6020808252825182820181905260009190848201906040850190845b818110156107d2578351600160a060020a0316835292840192918401916001016107ad565b50909695505050505050565b600080604083850312156107f157600080fd5b6107fa836105e2565b946020939093013593505050565b60028104600182168061081c57607f821691505b6020821081036108405760e060020a634e487b710260009081526022600452602490fd5b50919050565b601f821115610890576000818152602081206020601f8601048101602086101561086d5750805b6020601f860104820191505b8181101561088c57828155600101610879565b5050505b505050565b81516001604060020a038111156108ae576108ae6106c7565b6108c2816108bc8454610808565b84610846565b602080601f8311600181146108fb57600084156108df5750858301515b60028086026008870290910a600019041982161786555061088c565b600085815260208120601f198616915b8281101561092a5788860151825594840194600190910190840161090b565b508582101561094a57878501516008601f88160260020a60001904191681555b5050505050600202600101905550565b600160a060020a038316815260406020820181905260009061097e90830184610620565b949350505050565b60e060020a634e487b710260009081526032600452602490fd5b600160a060020a03841681526060602082018190526000906109c490830185610620565b905082604083015294935050505056fea26469706673582212207dc9369515f089344dfae8e753bb980ab3a729e8ef2b9d3aad410342a2c5796c64736f6c63430008120033",
  "immutableReferences": {},
  "source": "// SPDX-License-Identifier: CC-BY-4.0\r\npragma solidity >=0.4.22 <0.9.0;\r\n\r\nlibrary Advertiser {\r\n\r\n    event AdvertiserAdded(address sender);\r\n    event AdvertisementAdded(address sender, string message);\r\n    event AdvertisementDeleted(address useraddress,string message,uint index);\r\n\r\n    struct AdvertiserStorage {\r\n        mapping (address => uint256) advertisers;\r\n        mapping (address => string[]) advertisements;\r\n        address[] _advertisers;\r\n    }\r\n\r\n    function advertiserStorage() internal pure returns (AdvertiserStorage storage ds)\r\n    {\r\n        bytes32 position = keccak256(\"advertiser.storage\");\r\n        assembly { ds.slot := position }\r\n    }\r\n\r\n\r\n    function isAdvertiser()\r\n        external\r\n        view\r\n        returns (bool)\r\n    {\r\n        return (advertiserStorage().advertisers[msg.sender] != 0);\r\n    }\r\n\r\n    function notAdvertiser()\r\n        external\r\n        view\r\n        returns (bool)\r\n    {\r\n        return (advertiserStorage().advertisers[msg.sender] == 0);\r\n    }\r\n\r\n    function addAdvertiser(address requestor)\r\n        external\r\n    {\r\n        address advertiser = msg.sender;\r\n        if (requestor != address(0x0)) {\r\n            advertiser = requestor;\r\n        }\r\n        advertiserStorage().advertisers[advertiser] = 1;\r\n        advertiserStorage()._advertisers.push(advertiser);\r\n        emit AdvertiserAdded(advertiser);\r\n    }\r\n\r\n    function newAdvertisement(string memory message)\r\n        external\r\n    {\r\n        advertiserStorage().advertisements[msg.sender].push(message);\r\n        emit AdvertisementAdded(msg.sender, message);\r\n    }\r\n\r\n    function deleteAdvertisement(address advertiseraddr,uint index)\r\n        external\r\n    {\r\n        if (advertiserStorage().advertisements[advertiseraddr].length > 0) {\r\n            string memory message = advertiserStorage().advertisements[advertiseraddr][index];\r\n            delete advertiserStorage().advertisements[advertiseraddr][index];\r\n            emit AdvertisementDeleted(advertiseraddr,message,index);\r\n        }\r\n    }\r\n\r\n    function getAdvertisements()\r\n        external\r\n        view\r\n        returns (string[] memory)\r\n    {\r\n        return advertiserStorage().advertisements[msg.sender];\r\n    }\r\n\r\n    function getAdvertisers()\r\n        external\r\n        view\r\n        returns (address[] memory)\r\n    {\r\n        return advertiserStorage()._advertisers;\r\n    }\r\n\r\n}",
  "sourcePath": "/Volumes/My Book/projects/pingleware-contracts/contracts/social/Advertiser.sol",
  "compiler": {
    "name": "solc",
    "version": "0.8.18+commit.87f61d96.Emscripten.clang"
  },
  "schemaVersion": "3.4.12",
  "updatedAt": "2023-10-24T03:01:49.719Z",
  "networkType": "ethereum",
  "devdoc": {
    "kind": "dev",
    "methods": {},
    "version": 1
  },
  "userdoc": {
    "kind": "user",
    "methods": {},
    "version": 1
  }
}