{
  "contractName": "Advertiser",
  "abi": [
    {
      "anonymous": false,
      "inputs": [
        {
          "indexed": false,
          "internalType": "address",
          "name": "sender",
          "type": "address"
        },
        {
          "indexed": false,
          "internalType": "string",
          "name": "message",
          "type": "string"
        }
      ],
      "name": "AdvertisementAdded",
      "type": "event"
    },
    {
      "anonymous": false,
      "inputs": [
        {
          "indexed": false,
          "internalType": "address",
          "name": "useraddress",
          "type": "address"
        },
        {
          "indexed": false,
          "internalType": "string",
          "name": "message",
          "type": "string"
        },
        {
          "indexed": false,
          "internalType": "uint256",
          "name": "index",
          "type": "uint256"
        }
      ],
      "name": "AdvertisementDeleted",
      "type": "event"
    },
    {
      "anonymous": false,
      "inputs": [
        {
          "indexed": false,
          "internalType": "address",
          "name": "sender",
          "type": "address"
        }
      ],
      "name": "AdvertiserAdded",
      "type": "event"
    },
    {
      "inputs": [],
      "name": "isAdvertiser",
      "outputs": [
        {
          "internalType": "bool",
          "name": "",
          "type": "bool"
        }
      ],
      "stateMutability": "view",
      "type": "function"
    },
    {
      "inputs": [],
      "name": "notAdvertiser",
      "outputs": [
        {
          "internalType": "bool",
          "name": "",
          "type": "bool"
        }
      ],
      "stateMutability": "view",
      "type": "function"
    },
    {
      "inputs": [],
      "name": "getAdvertisements",
      "outputs": [
        {
          "internalType": "string[]",
          "name": "",
          "type": "string[]"
        }
      ],
      "stateMutability": "view",
      "type": "function"
    },
    {
      "inputs": [],
      "name": "getAdvertisers",
      "outputs": [
        {
          "internalType": "address[]",
          "name": "",
          "type": "address[]"
        }
      ],
      "stateMutability": "view",
      "type": "function"
    }
  ],
  "bytecode": "0x6080806040523461001c57610981908161002282393081600a0152f35b600080fdfe6080604090808252307f000000000000000000000000000000000000000000000000000000000000000014916004928336101561003b57600080fd5b60009260e060020a84350490635e7032a08214610600575080639ba099f7146105d1578063ab111d8b146104e9578063d2ab4873146102b4578063d2e9403714610284578063ec547d80146101b45763f452a4fe1461009957600080fd5b6101b057806003193601126101b0576100b06106ed565b602435916100bd82610785565b546100c6578380f35b6100e16100db846100d685610785565b6107be565b50610846565b926100ef816100d685610785565b61019b5785965094856101237f3c64449623a0a02ac51951c4388cffc6a513e2e081661e81f0139f1f1064e10297546107f0565b8061015f575b5050506101508251948594600160a060020a03168552606060208601526060850190610708565b918301520390a1803880808380f35b82601f8211600114610177575050555b853880610129565b90918082526101946020601f81852095010484016001850161082f565b555561016f565b60e060020a634e487b71028652858752602486fd5b5080fd5b82848060031936011261028157815160008051602061090c83398151915280548083529083526020939284830192909183907f96e2c836a76e05f2abf6d5501734a6ffc4f28b484f4c2da137174f65821f466390845b8181106102645750505081610220910382610748565b83519485948186019282875251809352850193925b82811061024457505050500390f35b8351600160a060020a031685528695509381019392810192600101610235565b8254600160a060020a03168452928801926001928301920161020a565b80fd5b5050816003193601126101b057806020923381526000805160206108ec8339815191528452205415159051908152f35b506101b0576020806003193601126104e55783356001604060020a038082116104e157366023830112156104e157818601358181116104cb57845192601f1991601f916103078284018516880187610748565b81865236602483830101116104c7578189926024899301838901378601015261032f33610785565b908154604060020a8110156104b15761034f9060019384820181556107be565b99909961049c578551948511610486575061036a89546107f0565b818111610452575b5085928185116001146103dc5750505095816103cb9392879860008051602061092c83398151915298916103d1575b50816002029160080260020a6000190419161790555b838051948594338652850152830190610708565b0390a180f35b9050830151386103a1565b898952868920929493908416895b81811061043d575092600292859260008051602061092c8339815191529b9c966103cb99989610610422575b505050020190556103b7565b870151908316600802840a6000190419169055388080610416565b878301518555938601939188019188016103ea565b610477908a8a52878a20888481818a0104830193828a1061047d575b0104019061082f565b38610372565b9350829361046e565b60e060020a634e487b7102895260419052602488fd5b60e060020a634e487b71028952889052602488fd5b60e060020a634e487b7102895260418a52602489fd5b8880fd5b60e060020a634e487b7102865260418752602486fd5b8480fd5b8280fd5b505091816003193601126101b05761050033610785565b805490916001604060020a0382116105bb5750918351602093610527858083020183610748565b8082528482018094845285842084915b83831061059757505050508451938085019181865251809252858501958183028601019392955b82871061056b5785850386f35b909192938280610587600193603f198a82030186528851610708565b960192019601959291909261055e565b60018881926105a9859b98999b610846565b81520192019201919096949396610537565b60e060020a634e487b7102845260419052602483fd5b5050816003193601126101b057806020923381526000805160206108ec83398151915284522054159051908152f35b929190506104e55760203660031901126104e557600161061e6106ed565b338260a060020a03918281166106e5575b50168085526000805160206108ec8339815191526020529184205560008051602061090c833981519152805490604060020a8210156106cf57600182018082558210156106b957845260208085209091018054600160a060020a031916831790559082527fdfaa8638b087deecf1b1ef43c6d6aa13dafc1d3374bb0e305ac4140f27f4c88f91a180f35b60e060020a634e487b7102855260328652602485fd5b60e060020a634e487b7102855260418652602485fd5b90503861062f565b60043590600160a060020a038216820361070357565b600080fd5b919082519283825260005b848110610734575050826000602080949584010152601f8019910116010190565b602081830181015184830182015201610713565b601f909101601f19168101906001604060020a0382119082101761076b57604052565b60e060020a634e487b710260009081526041600452602490fd5b600160a060020a031660009081527f657628a550cd57488caa1cca477b7b4fbd68fa8798d79248ac0dc2d0089d2c2f6020526040902090565b80548210156107d65760005260206000200190600090565b60e060020a634e487b710260009081526032600452602490fd5b9060016002830492168015610825575b602083101461080b57565b60e060020a634e487b710260009081526022600452602490fd5b91607f1691610800565b81811061083a575050565b6000815560010161082f565b906040519182600082549261085a846107f0565b9081845260019485811690816000146108c95750600114610886575b505061088492500383610748565b565b9093915060005260209081600020936000915b8183106108b157505061088493508201013880610876565b85548884018501529485019487945091830191610899565b91505061088494506020925060ff19168284015215158102820101388061087656fe657628a550cd57488caa1cca477b7b4fbd68fa8798d79248ac0dc2d0089d2c2e657628a550cd57488caa1cca477b7b4fbd68fa8798d79248ac0dc2d0089d2c3028a4b9cafe9161bc23cfd18e2b31933a95fa7d6fec8cf992a577f03f81900ecba2646970667358221220d29b65b78328f4e6e4aad6037aeda9984f27d74f0993a5b3c582345c1f83075064736f6c63430008120033",
  "immutableReferences": {
    "library_deploy_address": [
      {
        "length": 32,
        "start": 10
      }
    ]
  },
  "source": "// SPDX-License-Identifier: CC-BY-4.0\r\npragma solidity >=0.4.22 <0.9.0;\r\n\r\nlibrary Advertiser {\r\n\r\n    event AdvertiserAdded(address sender);\r\n    event AdvertisementAdded(address sender, string message);\r\n    event AdvertisementDeleted(address useraddress,string message,uint index);\r\n\r\n    struct AdvertiserStorage {\r\n        mapping (address => uint256) advertisers;\r\n        mapping (address => string[]) advertisements;\r\n        address[] _advertisers;\r\n    }\r\n\r\n    function advertiserStorage() internal pure returns (AdvertiserStorage storage ds)\r\n    {\r\n        bytes32 position = keccak256(\"advertiser.storage\");\r\n        assembly { ds.slot := position }\r\n    }\r\n\r\n\r\n    function isAdvertiser()\r\n        external\r\n        view\r\n        returns (bool)\r\n    {\r\n        return (advertiserStorage().advertisers[msg.sender] != 0);\r\n    }\r\n\r\n    function notAdvertiser()\r\n        external\r\n        view\r\n        returns (bool)\r\n    {\r\n        return (advertiserStorage().advertisers[msg.sender] == 0);\r\n    }\r\n\r\n    function addAdvertiser(address requestor)\r\n        external\r\n    {\r\n        address advertiser = msg.sender;\r\n        if (requestor != address(0x0)) {\r\n            advertiser = requestor;\r\n        }\r\n        advertiserStorage().advertisers[advertiser] = 1;\r\n        advertiserStorage()._advertisers.push(advertiser);\r\n        emit AdvertiserAdded(advertiser);\r\n    }\r\n\r\n    function newAdvertisement(string memory message)\r\n        external\r\n    {\r\n        advertiserStorage().advertisements[msg.sender].push(message);\r\n        emit AdvertisementAdded(msg.sender, message);\r\n    }\r\n\r\n    function deleteAdvertisement(address advertiseraddr,uint index)\r\n        external\r\n    {\r\n        if (advertiserStorage().advertisements[advertiseraddr].length > 0) {\r\n            string memory message = advertiserStorage().advertisements[advertiseraddr][index];\r\n            delete advertiserStorage().advertisements[advertiseraddr][index];\r\n            emit AdvertisementDeleted(advertiseraddr,message,index);\r\n        }\r\n    }\r\n\r\n    function getAdvertisements()\r\n        external\r\n        view\r\n        returns (string[] memory)\r\n    {\r\n        return advertiserStorage().advertisements[msg.sender];\r\n    }\r\n\r\n    function getAdvertisers()\r\n        external\r\n        view\r\n        returns (address[] memory)\r\n    {\r\n        return advertiserStorage()._advertisers;\r\n    }\r\n\r\n}",
  "sourcePath": "/Volumes/HOME/pingleware-contracts/contracts/social/Advertiser.sol",
  "compiler": {
    "name": "solc",
    "version": "0.8.18+commit.87f61d96.Emscripten.clang"
  },
  "schemaVersion": "3.4.12",
  "updatedAt": "2024-05-23T18:56:27.239Z",
  "devdoc": {
    "kind": "dev",
    "methods": {},
    "version": 1
  },
  "userdoc": {
    "kind": "user",
    "methods": {},
    "version": 1
  }
}