{
  "contractName": "AES",
  "abi": [
    {
      "inputs": [],
      "stateMutability": "nonpayable",
      "type": "constructor"
    },
    {
      "anonymous": false,
      "inputs": [
        {
          "indexed": false,
          "internalType": "string",
          "name": "decryptedData",
          "type": "string"
        }
      ],
      "name": "Decrypted",
      "type": "event"
    },
    {
      "anonymous": false,
      "inputs": [
        {
          "indexed": false,
          "internalType": "bytes",
          "name": "encryptedData",
          "type": "bytes"
        }
      ],
      "name": "Encrypted",
      "type": "event"
    },
    {
      "inputs": [],
      "name": "owner",
      "outputs": [
        {
          "internalType": "address",
          "name": "",
          "type": "address"
        }
      ],
      "stateMutability": "view",
      "type": "function"
    },
    {
      "inputs": [
        {
          "internalType": "bytes32",
          "name": "key",
          "type": "bytes32"
        },
        {
          "internalType": "string",
          "name": "data",
          "type": "string"
        }
      ],
      "name": "encrypt",
      "outputs": [
        {
          "internalType": "bytes",
          "name": "",
          "type": "bytes"
        }
      ],
      "stateMutability": "pure",
      "type": "function"
    },
    {
      "inputs": [
        {
          "internalType": "bytes32",
          "name": "key",
          "type": "bytes32"
        },
        {
          "internalType": "bytes",
          "name": "encryptedData",
          "type": "bytes"
        }
      ],
      "name": "decrypt",
      "outputs": [
        {
          "internalType": "string",
          "name": "",
          "type": "string"
        }
      ],
      "stateMutability": "pure",
      "type": "function"
    },
    {
      "inputs": [
        {
          "internalType": "bytes32",
          "name": "key",
          "type": "bytes32"
        },
        {
          "internalType": "string",
          "name": "data",
          "type": "string"
        }
      ],
      "name": "encryptAndEmit",
      "outputs": [],
      "stateMutability": "nonpayable",
      "type": "function"
    },
    {
      "inputs": [
        {
          "internalType": "bytes32",
          "name": "key",
          "type": "bytes32"
        },
        {
          "internalType": "bytes",
          "name": "encryptedData",
          "type": "bytes"
        }
      ],
      "name": "decryptAndEmit",
      "outputs": [],
      "stateMutability": "nonpayable",
      "type": "function"
    }
  ],
  "bytecode": "0x608060405234801561001057600080fd5b5060008054600160a060020a031916331790556102cb806100326000396000f3fe608060405234801561001057600080fd5b506004361061005a5760e060020a60003504630171f76c811461005f578063303ca757146100745780636700aa8a146100745780638da5cb5b1461009d578063a7d80f36146100c8575b600080fd5b61007261006d3660046101db565b6100db565b005b6100876100823660046101db565b919050565b604051610094919061027b565b60405180910390f35b6000546100b090600160a060020a031681565b604051600160a060020a039091168152602001610094565b6100726100d63660046101db565b61011a565b60405181907fb3037e531d036c1980fb05fb773b82653ea01c8c03775fc99d2df819f4d514499061010d90839061027b565b60405180910390a1505050565b60405181907fa27928d5add138a9aa14ac096633f0067188f726004a234a0a7a6bbb917e405d9061010d90839061027b565b60e060020a634e487b710260009081526041600452602490fd5b60006001604060020a03808411156101805761018061014c565b604051601f8501601f19908116603f011681019082821181831017156101a8576101a861014c565b816040528093508581528686860111156101c157600080fd5b858560208301376000602087830101525050509392505050565b600080604083850312156101ee57600080fd5b8235915060208301356001604060020a0381111561020b57600080fd5b8301601f8101851361021c57600080fd5b61022b85823560208401610166565b9150509250929050565b6000815180845260005b8181101561025b5760208185018101518683018201520161023f565b506000602082860101526020601f19601f83011685010191505092915050565b60208152600061028e6020830184610235565b939250505056fea2646970667358221220724b1862b82fa2a56d4c94400bf71f9d2556cb856ee46e235d6108f2e083de7264736f6c63430008120033",
  "immutableReferences": {},
  "source": "// SPDX-License-Identifier: BSL-1.1\npragma solidity >=0.4.22 <0.9.0;\n\ncontract AES {\n    event Encrypted(bytes encryptedData);\n    event Decrypted(string decryptedData);\n\n    address public owner;\n\n    constructor() {\n        owner = msg.sender;\n    }\n\n    modifier onlyOwner() {\n        require(msg.sender == owner, \"Only the contract owner can perform this action\");\n        _;\n    }\n\n    // Encrypt data using AES\n    function encrypt(bytes32 key, string memory data) public pure returns (bytes memory) {\n        bytes memory dataBytes = bytes(data);\n        bytes memory encryptedData = dataBytes; //AES.encrypt(key, dataBytes);\n        key;\n        return encryptedData;\n    }\n\n    // Decrypt data using AES\n    function decrypt(bytes32 key, bytes memory encryptedData) public pure returns (string memory) {\n        bytes memory decryptedData = encryptedData; //AES.decrypt(key, encryptedData);\n        key;\n        return string(decryptedData);\n    }\n\n    // Example: Encrypt and emit\n    function encryptAndEmit(bytes32 key, string memory data) public {\n        bytes memory encrypted = encrypt(key, data);\n        emit Encrypted(encrypted);\n    }\n\n    // Example: Decrypt and emit\n    function decryptAndEmit(bytes32 key, bytes memory encryptedData) public {\n        string memory decrypted = decrypt(key, encryptedData);\n        emit Decrypted(decrypted);\n    }\n}",
  "sourcePath": "/Volumes/My Book/projects/pingleware-contracts/contracts/finance/elmx/AES.sol",
  "compiler": {
    "name": "solc",
    "version": "0.8.18+commit.87f61d96.Emscripten.clang"
  },
  "schemaVersion": "3.4.12",
  "updatedAt": "2023-10-22T00:13:31.257Z",
  "devdoc": {
    "kind": "dev",
    "methods": {},
    "version": 1
  },
  "userdoc": {
    "kind": "user",
    "methods": {},
    "version": 1
  }
}