{
  "contractName": "AgriChain",
  "abi": [
    {
      "anonymous": false,
      "inputs": [
        {
          "indexed": false,
          "internalType": "address",
          "name": "sender",
          "type": "address"
        },
        {
          "indexed": false,
          "internalType": "address",
          "name": "recipient",
          "type": "address"
        }
      ],
      "name": "Destroyed",
      "type": "event"
    },
    {
      "anonymous": false,
      "inputs": [
        {
          "indexed": false,
          "internalType": "address",
          "name": "sender",
          "type": "address"
        },
        {
          "indexed": false,
          "internalType": "uint256",
          "name": "amount",
          "type": "uint256"
        }
      ],
      "name": "FallbackEvent",
      "type": "event"
    },
    {
      "anonymous": false,
      "inputs": [
        {
          "indexed": true,
          "internalType": "address",
          "name": "previousOwner",
          "type": "address"
        },
        {
          "indexed": true,
          "internalType": "address",
          "name": "newOwner",
          "type": "address"
        }
      ],
      "name": "OwnershipTransferred",
      "type": "event"
    },
    {
      "anonymous": false,
      "inputs": [
        {
          "indexed": false,
          "internalType": "address",
          "name": "sender",
          "type": "address"
        },
        {
          "indexed": false,
          "internalType": "uint256",
          "name": "amount",
          "type": "uint256"
        }
      ],
      "name": "ReceiveEvent",
      "type": "event"
    },
    {
      "anonymous": false,
      "inputs": [
        {
          "indexed": false,
          "internalType": "address",
          "name": "sender",
          "type": "address"
        },
        {
          "indexed": false,
          "internalType": "bytes",
          "name": "reason",
          "type": "bytes"
        }
      ],
      "name": "Started",
      "type": "event"
    },
    {
      "anonymous": false,
      "inputs": [
        {
          "indexed": false,
          "internalType": "address",
          "name": "sender",
          "type": "address"
        },
        {
          "indexed": false,
          "internalType": "bytes",
          "name": "reason",
          "type": "bytes"
        }
      ],
      "name": "Stopped",
      "type": "event"
    },
    {
      "anonymous": false,
      "inputs": [
        {
          "indexed": false,
          "internalType": "address",
          "name": "sender",
          "type": "address"
        },
        {
          "indexed": false,
          "internalType": "string",
          "name": "reason",
          "type": "string"
        }
      ],
      "name": "Termination",
      "type": "event"
    },
    {
      "stateMutability": "payable",
      "type": "fallback",
      "payable": true
    },
    {
      "inputs": [],
      "name": "VERSION",
      "outputs": [
        {
          "internalType": "string",
          "name": "",
          "type": "string"
        }
      ],
      "stateMutability": "view",
      "type": "function",
      "constant": true
    },
    {
      "inputs": [],
      "name": "WAIT",
      "outputs": [
        {
          "internalType": "uint256",
          "name": "",
          "type": "uint256"
        }
      ],
      "stateMutability": "view",
      "type": "function",
      "constant": true
    },
    {
      "inputs": [],
      "name": "destroy",
      "outputs": [],
      "stateMutability": "nonpayable",
      "type": "function"
    },
    {
      "inputs": [
        {
          "internalType": "address",
          "name": "_recipient",
          "type": "address"
        }
      ],
      "name": "destroyAndSend",
      "outputs": [],
      "stateMutability": "nonpayable",
      "type": "function"
    },
    {
      "inputs": [],
      "name": "getOwner",
      "outputs": [
        {
          "internalType": "address",
          "name": "",
          "type": "address"
        }
      ],
      "stateMutability": "payable",
      "type": "function",
      "payable": true
    },
    {
      "inputs": [
        {
          "internalType": "uint256",
          "name": "",
          "type": "uint256"
        }
      ],
      "name": "productIds",
      "outputs": [
        {
          "internalType": "uint256",
          "name": "",
          "type": "uint256"
        }
      ],
      "stateMutability": "view",
      "type": "function",
      "constant": true
    },
    {
      "inputs": [],
      "name": "renounceOwnership",
      "outputs": [],
      "stateMutability": "payable",
      "type": "function",
      "payable": true
    },
    {
      "inputs": [
        {
          "internalType": "address",
          "name": "newOwner",
          "type": "address"
        }
      ],
      "name": "transferOwnership",
      "outputs": [],
      "stateMutability": "payable",
      "type": "function",
      "payable": true
    },
    {
      "stateMutability": "payable",
      "type": "receive",
      "payable": true
    },
    {
      "inputs": [
        {
          "internalType": "uint256",
          "name": "prodId",
          "type": "uint256"
        },
        {
          "internalType": "string",
          "name": "pname",
          "type": "string"
        },
        {
          "internalType": "string",
          "name": "pstatus",
          "type": "string"
        },
        {
          "internalType": "string",
          "name": "pcurLoc",
          "type": "string"
        }
      ],
      "name": "addProduct",
      "outputs": [
        {
          "internalType": "uint256",
          "name": "",
          "type": "uint256"
        }
      ],
      "stateMutability": "nonpayable",
      "type": "function"
    },
    {
      "inputs": [],
      "name": "getProductIds",
      "outputs": [
        {
          "internalType": "uint256[16]",
          "name": "",
          "type": "uint256[16]"
        }
      ],
      "stateMutability": "view",
      "type": "function",
      "constant": true
    },
    {
      "inputs": [
        {
          "internalType": "uint256",
          "name": "prodId",
          "type": "uint256"
        }
      ],
      "name": "getProductDetail",
      "outputs": [
        {
          "internalType": "string",
          "name": "",
          "type": "string"
        },
        {
          "internalType": "string",
          "name": "",
          "type": "string"
        },
        {
          "internalType": "string",
          "name": "",
          "type": "string"
        },
        {
          "internalType": "bytes32",
          "name": "",
          "type": "bytes32"
        }
      ],
      "stateMutability": "view",
      "type": "function",
      "constant": true
    },
    {
      "inputs": [
        {
          "internalType": "string",
          "name": "s",
          "type": "string"
        }
      ],
      "name": "string_tobytes",
      "outputs": [
        {
          "internalType": "bytes",
          "name": "",
          "type": "bytes"
        }
      ],
      "stateMutability": "pure",
      "type": "function",
      "constant": true
    }
  ],
  "bytecode": "0x608060405260006001556003805460ff1916905534801561001f57600080fd5b5060008054600160a060020a031916339081178255426001556040519091907f8be0079c531659141344cd1fd0a4f28419497f9722a3daafe3b4186f6b6457e0908290a36111fb806100726000396000f3fe60806040526004361061009e5760e060020a600035046347428e7b81146101655780635ddc949c14610190578063715018a6146101c057806383197ef0146101ca578063893d20e8146101df578063b8fb3a51146101ff578063bc6d057714610222578063c1393d271461024d578063cb51bba91461026d578063f2fde38b1461028d578063f5074f41146102a0578063ffa1ad74146102c0576100de565b366100de577fcc85d09d309785db93d6df19917f2e6cc07fe27cd01c08c8279145deb5cf452633346040516100d4929190610c39565b60405180910390a1005b3233146101345760405160e560020a62461bcd0281526020600482015260196024820152603860020a787068697368696e672061747461636b2064657465637465643f0260448201526064015b60405180910390fd5b7f26875833861a2b006512a11f1b86edf95df96131040f3caeed72989ee985808333346040516100d4929190610c39565b34801561017157600080fd5b5061017a6102f9565b6040516101879190610c52565b60405180910390f35b34801561019c57600080fd5b506101b06101ab366004610c84565b610335565b6040516101879493929190610ced565b6101c861053e565b005b3480156101d657600080fd5b506101c86105a3565b6101e7610600565b604051600160a060020a039091168152602001610187565b34801561020b57600080fd5b50610214601e81565b604051908152602001610187565b34801561022e57600080fd5b5061024061023d366004610dde565b90565b6040516101879190610e12565b34801561025957600080fd5b50610214610268366004610e2c565b610676565b34801561027957600080fd5b50610214610288366004610c84565b61079e565b6101c861029b366004610ebd565b6107b5565b3480156102ac57600080fd5b506101c86102bb366004610ebd565b610896565b3480156102cc57600080fd5b506102406040518060400160405280600a815260200160b060020a69312e362e342d626574610281525081565b610301610c1a565b604080516102008101918290529060049060109082845b815481526020019060010190808311610318575050505050905090565b600081815260146020526040812080546060928392839282919061035890610ee6565b80601f016020809104026020016040519081016040528092919081815260200182805461038490610ee6565b80156103d15780601f106103a6576101008083540402835291602001916103d1565b820191906000526020600020905b8154815290600101906020018083116103b457829003601f168201915b5050505050905060006014600088815260200190815260200160002060010180546103fb90610ee6565b80601f016020809104026020016040519081016040528092919081815260200182805461042790610ee6565b80156104745780601f1061044957610100808354040283529160200191610474565b820191906000526020600020905b81548152906001019060200180831161045757829003601f168201915b50505050509050600060146000898152602001908152602001600020600301805461049e90610ee6565b80601f01602080910402602001604051908101604052809291908181526020018280546104ca90610ee6565b80156105175780601f106104ec57610100808354040283529160200191610517565b820191906000526020600020905b8154815290600101906020018083116104fa57829003601f168201915b50505060009a8b525050601460205260409098206002015492989197965091945092505050565b600054600160a060020a0316331461056b5760405160e560020a62461bcd02815260040161012b90610f24565b60008054604051600160a060020a03909116906000805160206111a6833981519152908390a360008054600160a060020a0319169055565b600054600160a060020a031633146105d05760405160e560020a62461bcd02815260040161012b90610f58565b600080516020611186833981519152336105e8610600565b6040516105f6929190610f8f565b60405180910390a1565b6000601e6001546106119190610fc3565b42116106325760405160e560020a62461bcd02815260040161012b90610fdc565b601e6001546106419190610fc3565b42116106625760405160e560020a62461bcd02815260040161012b90610fdc565b5042600155600054600160a060020a031690565b6000600f8511156106bf5760405160e560020a62461bcd02815260206004820152600d6024820152609960020a6c33b7903437b6b29039b4b6b7b702604482015260640161012b565b60008581526014602052604090206106d78582611058565b5060008581526014602052604090206001016106f38482611058565b50600085815260146020526040902060030161070f8382611058565b50600261072061023d8686866108ed565b60405161072d919061111d565b602060405180830381855afa15801561074a573d6000803e3d6000fd5b5050506040513d601f19601f8201168201806040525081019061076d9190611139565b600086815260146020526040902060020155846004816010811061079357610793611152565b015550929392505050565b600481601081106107ae57600080fd5b0154905081565b600054600160a060020a031633146107e25760405160e560020a62461bcd02815260040161012b90610f24565b600160a060020a03811661084d5760405160e560020a62461bcd02815260206004820152602660248201527f4f776e61626c653a206e6577206f776e657220697320746865207a65726f2061604482015260d060020a6564647265737302606482015260840161012b565b60008054604051600160a060020a03808516939216916000805160206111a683398151915291a360008054600160a060020a031916600160a060020a0392909216919091179055565b600054600160a060020a031633146108c35760405160e560020a62461bcd02815260040161012b90610f58565b60008051602061118683398151915233826040516108e2929190610f8f565b60405180910390a150565b606061091a8484846040518060200160405280600081525060405180602001604052806000815250610922565b949350505050565b805182518451865188516060948a948a948a948a948a9460009490939092909161094c9190610fc3565b6109569190610fc3565b6109609190610fc3565b61096a9190610fc3565b6001604060020a0381111561098157610981610d38565b6040519080825280601f01601f1916602001820160405280156109ab576020820181803683370190505b509050806000805b8851811015610a27578881815181106109ce576109ce611152565b602001015160f860020a900460f860020a028383806109ec9061116c565b9450815181106109fe576109fe611152565b6020010190600160f860020a031916908160001a90535080610a1f8161116c565b9150506109b3565b5060005b8751811015610a9f57878181518110610a4657610a46611152565b602001015160f860020a900460f860020a02838380610a649061116c565b945081518110610a7657610a76611152565b6020010190600160f860020a031916908160001a90535080610a978161116c565b915050610a2b565b5060005b8651811015610b1757868181518110610abe57610abe611152565b602001015160f860020a900460f860020a02838380610adc9061116c565b945081518110610aee57610aee611152565b6020010190600160f860020a031916908160001a90535080610b0f8161116c565b915050610aa3565b5060005b8551811015610b8f57858181518110610b3657610b36611152565b602001015160f860020a900460f860020a02838380610b549061116c565b945081518110610b6657610b66611152565b6020010190600160f860020a031916908160001a90535080610b878161116c565b915050610b1b565b5060005b8451811015610c0757848181518110610bae57610bae611152565b602001015160f860020a900460f860020a02838380610bcc9061116c565b945081518110610bde57610bde611152565b6020010190600160f860020a031916908160001a90535080610bff8161116c565b915050610b93565b50909d9c50505050505050505050505050565b6040518061020001604052806010906020820280368337509192915050565b600160a060020a03929092168252602082015260400190565b6102008101818360005b6010811015610c7b578151835260209283019290910190600101610c5c565b50505092915050565b600060208284031215610c9657600080fd5b5035919050565b60005b83811015610cb8578181015183820152602001610ca0565b50506000910152565b60008151808452610cd9816020860160208601610c9d565b601f01601f19169290920160200192915050565b608081526000610d006080830187610cc1565b8281036020840152610d128187610cc1565b90508281036040840152610d268186610cc1565b91505082606083015295945050505050565b60e060020a634e487b710260009081526041600452602490fd5b600082601f830112610d6357600080fd5b81356001604060020a0380821115610d7d57610d7d610d38565b604051601f8301601f19908116603f01168101908282118183101715610da557610da5610d38565b81604052838152866020858801011115610dbe57600080fd5b836020870160208301376000602085830101528094505050505092915050565b600060208284031215610df057600080fd5b81356001604060020a03811115610e0657600080fd5b61091a84828501610d52565b602081526000610e256020830184610cc1565b9392505050565b60008060008060808587031215610e4257600080fd5b8435935060208501356001604060020a0380821115610e6057600080fd5b610e6c88838901610d52565b94506040870135915080821115610e8257600080fd5b610e8e88838901610d52565b93506060870135915080821115610ea457600080fd5b50610eb187828801610d52565b91505092959194509250565b600060208284031215610ecf57600080fd5b8135600160a060020a0381168114610e2557600080fd5b600281046001821680610efa57607f821691505b602082108103610f1e5760e060020a634e487b710260009081526022600452602490fd5b50919050565b6020808252601790820152604960020a7630b1b1b2b9b9903232b734b2b2103337b91037bbb732b902604082015260600190565b6020808252601b908201527f756e617574686f72697a65642c206e6f7420746865206f776e65720000000000604082015260600190565b600160a060020a0392831681529116602082015260400190565b60e060020a634e487b710260009081526011600452602490fd5b80820180821115610fd657610fd6610fa9565b92915050565b6020808252601090820152608160020a6f3930ba32903634b6b4ba1032b93937b902604082015260600190565b601f821115611053576000818152602081206020601f860104810160208610156110305750805b6020601f860104820191505b8181101561104f5782815560010161103c565b5050505b505050565b81516001604060020a0381111561107157611071610d38565b6110858161107f8454610ee6565b84611009565b602080601f8311600181146110be57600084156110a25750858301515b60028086026008870290910a600019041982161786555061104f565b600085815260208120601f198616915b828110156110ed578886015182559484019460019091019084016110ce565b508582101561110d57878501516008601f88160260020a60001904191681555b5050505050600202600101905550565b6000825161112f818460208701610c9d565b9190910192915050565b60006020828403121561114b57600080fd5b5051919050565b60e060020a634e487b710260009081526032600452602490fd5b60006001820161117e5761117e610fa9565b506001019056fe91ca00fdf29069527d658f8dfc6d1c0bf9861780bb45ff36436f938d3595a8d68be0079c531659141344cd1fd0a4f28419497f9722a3daafe3b4186f6b6457e0a2646970667358221220df48f78583455724fc5009f98c0f1703c04b64182ab0528ba48a6b8d8481559664736f6c63430008120033",
  "immutableReferences": {},
  "source": "// SPDX-License-Identifier: CC-BY-4.0\r\npragma solidity >=0.4.22 <0.9.0;\r\n\r\n// See https://github.com/bazinga776/AgriChain-Blockchain\r\n\r\nimport \"../common/Version.sol\";\r\nimport \"../common/Frozen.sol\";\r\n\r\ncontract AgriChain is Version, Frozen {\r\n    uint[16] public productIds;\r\n\r\n    struct Data{\r\n        string name;\r\n        string status;\r\n        bytes32 hash_value;\r\n        string curLoc;\r\n    }\r\n\r\n    mapping(uint => Data) prod;\r\n\r\n    // Adding a product\r\n    function addProduct(uint prodId,string memory pname,string memory pstatus,string memory pcurLoc)\r\n        external\r\n        returns (uint)\r\n    {\r\n        require(prodId >= 0 && prodId <= 15,\"go home simon\");\r\n        prod[prodId].name = pname;\r\n        prod[prodId].status = pstatus;\r\n        prod[prodId].curLoc = pcurLoc;\r\n        prod[prodId].hash_value = sha256(string_tobytes(strConcat(pname,pstatus,pcurLoc)));\r\n        productIds[prodId] = prodId;\r\n        return prodId;\r\n    }\r\n\r\n    // Retrieving the adopters\r\n    function getProductIds()\r\n        external\r\n        view\r\n        returns (uint[16] memory)\r\n    {\r\n        return productIds;\r\n    }\r\n\r\n    function getProductDetail(uint prodId)\r\n        external\r\n        view\r\n        returns (string memory,string memory,string memory,bytes32 )\r\n    {\r\n        string memory prod_name = prod[prodId].name;\r\n        string memory prod_status = prod[prodId].status;\r\n        string memory prod_curLoc = prod[prodId].curLoc;\r\n        bytes32  prod_hash = prod[prodId].hash_value;\r\n        return (prod_name,prod_status,prod_curLoc,prod_hash);\r\n    }\r\n\r\n    function string_tobytes(string memory s)\r\n        public\r\n        pure\r\n        returns (bytes memory)\r\n    {\r\n        bytes memory b3 = bytes(s);\r\n        return b3;\r\n    }\r\n\r\n    function strConcat(string memory _a, string memory _b, string memory _c, string memory _d, string memory  _e)\r\n        internal\r\n        pure\r\n        returns (string memory)\r\n    {\r\n        bytes memory _ba = bytes(_a);\r\n        bytes memory _bb = bytes(_b);\r\n        bytes memory _bc = bytes(_c);\r\n        bytes memory _bd = bytes(_d);\r\n        bytes memory _be = bytes(_e);\r\n        string memory abcde = new string(_ba.length + _bb.length + _bc.length + _bd.length + _be.length);\r\n        bytes memory babcde = bytes(abcde);\r\n        uint k = 0;\r\n        for (uint i = 0; i < _ba.length; i++) babcde[k++] = _ba[i];\r\n        for (uint i = 0; i < _bb.length; i++) babcde[k++] = _bb[i];\r\n        for (uint i = 0; i < _bc.length; i++) babcde[k++] = _bc[i];\r\n        for (uint i = 0; i < _bd.length; i++) babcde[k++] = _bd[i];\r\n        for (uint i = 0; i < _be.length; i++) babcde[k++] = _be[i];\r\n        return string(babcde);\r\n    }\r\n\r\n    function strConcat(string memory _a, string memory _b, string memory _c)\r\n        internal\r\n        pure\r\n        returns (string memory)\r\n    {\r\n        return strConcat(_a, _b, _c, \"\", \"\");\r\n    }\r\n}",
  "sourcePath": "/Volumes/My Book/projects/pingleware-contracts/contracts/agriculture/AgriChain.sol",
  "compiler": {
    "name": "solc",
    "version": "0.8.18+commit.87f61d96.Emscripten.clang"
  },
  "schemaVersion": "3.4.12",
  "updatedAt": "2023-10-23T17:38:00.417Z",
  "networkType": "ethereum",
  "devdoc": {
    "kind": "dev",
    "methods": {
      "renounceOwnership()": {
        "details": "Leaves the contract without owner. It will not be possible to call `onlyOwner` functions anymore. Can only be called by the current owner. NOTE: Renouncing ownership will leave the contract without an owner, thereby removing any functionality that is only available to the owner."
      },
      "transferOwnership(address)": {
        "details": "Transfers ownership of the contract to a new account (`newOwner`). Can only be called by the current owner."
      }
    },
    "version": 1
  },
  "userdoc": {
    "kind": "user",
    "methods": {},
    "version": 1
  }
}