{
  "contractName": "AgriTrade",
  "abi": [
    {
      "anonymous": false,
      "inputs": [
        {
          "indexed": false,
          "internalType": "address",
          "name": "sender",
          "type": "address"
        },
        {
          "indexed": false,
          "internalType": "uint256",
          "name": "amount",
          "type": "uint256"
        }
      ],
      "name": "FallbackEvent",
      "type": "event"
    },
    {
      "anonymous": false,
      "inputs": [
        {
          "indexed": true,
          "internalType": "address",
          "name": "previousOwner",
          "type": "address"
        },
        {
          "indexed": true,
          "internalType": "address",
          "name": "newOwner",
          "type": "address"
        }
      ],
      "name": "OwnershipTransferred",
      "type": "event"
    },
    {
      "anonymous": false,
      "inputs": [
        {
          "indexed": false,
          "internalType": "address",
          "name": "sender",
          "type": "address"
        },
        {
          "indexed": false,
          "internalType": "uint256",
          "name": "amount",
          "type": "uint256"
        }
      ],
      "name": "ReceiveEvent",
      "type": "event"
    },
    {
      "stateMutability": "payable",
      "type": "fallback",
      "payable": true
    },
    {
      "inputs": [],
      "name": "VERSION",
      "outputs": [
        {
          "internalType": "string",
          "name": "",
          "type": "string"
        }
      ],
      "stateMutability": "view",
      "type": "function",
      "constant": true
    },
    {
      "inputs": [],
      "name": "WAIT",
      "outputs": [
        {
          "internalType": "uint256",
          "name": "",
          "type": "uint256"
        }
      ],
      "stateMutability": "view",
      "type": "function",
      "constant": true
    },
    {
      "inputs": [],
      "name": "c",
      "outputs": [
        {
          "internalType": "uint256",
          "name": "",
          "type": "uint256"
        }
      ],
      "stateMutability": "view",
      "type": "function",
      "constant": true
    },
    {
      "inputs": [
        {
          "internalType": "uint256",
          "name": "",
          "type": "uint256"
        }
      ],
      "name": "fm",
      "outputs": [
        {
          "internalType": "bytes",
          "name": "fid",
          "type": "bytes"
        },
        {
          "internalType": "bytes32",
          "name": "fname",
          "type": "bytes32"
        },
        {
          "internalType": "bytes32",
          "name": "loc",
          "type": "bytes32"
        },
        {
          "internalType": "bytes32",
          "name": "crop",
          "type": "bytes32"
        },
        {
          "internalType": "uint256",
          "name": "contact",
          "type": "uint256"
        },
        {
          "internalType": "uint256",
          "name": "quantity",
          "type": "uint256"
        },
        {
          "internalType": "uint256",
          "name": "exprice",
          "type": "uint256"
        }
      ],
      "stateMutability": "view",
      "type": "function",
      "constant": true
    },
    {
      "inputs": [],
      "name": "getOwner",
      "outputs": [
        {
          "internalType": "address",
          "name": "",
          "type": "address"
        }
      ],
      "stateMutability": "payable",
      "type": "function",
      "payable": true
    },
    {
      "inputs": [
        {
          "internalType": "uint256",
          "name": "",
          "type": "uint256"
        }
      ],
      "name": "l",
      "outputs": [
        {
          "internalType": "bytes",
          "name": "lotno",
          "type": "bytes"
        },
        {
          "internalType": "bytes",
          "name": "grade",
          "type": "bytes"
        },
        {
          "internalType": "uint256",
          "name": "mrp",
          "type": "uint256"
        },
        {
          "internalType": "bytes32",
          "name": "testdate",
          "type": "bytes32"
        },
        {
          "internalType": "bytes32",
          "name": "expdate",
          "type": "bytes32"
        }
      ],
      "stateMutability": "view",
      "type": "function",
      "constant": true
    },
    {
      "inputs": [],
      "name": "renounceOwnership",
      "outputs": [],
      "stateMutability": "payable",
      "type": "function",
      "payable": true
    },
    {
      "inputs": [],
      "name": "s",
      "outputs": [
        {
          "internalType": "uint256",
          "name": "",
          "type": "uint256"
        }
      ],
      "stateMutability": "view",
      "type": "function",
      "constant": true
    },
    {
      "inputs": [],
      "name": "t",
      "outputs": [
        {
          "internalType": "uint256",
          "name": "",
          "type": "uint256"
        }
      ],
      "stateMutability": "view",
      "type": "function",
      "constant": true
    },
    {
      "inputs": [
        {
          "internalType": "address",
          "name": "newOwner",
          "type": "address"
        }
      ],
      "name": "transferOwnership",
      "outputs": [],
      "stateMutability": "payable",
      "type": "function",
      "payable": true
    },
    {
      "stateMutability": "payable",
      "type": "receive",
      "payable": true
    },
    {
      "inputs": [
        {
          "internalType": "address",
          "name": "addr",
          "type": "address"
        }
      ],
      "name": "fundaddr",
      "outputs": [],
      "stateMutability": "nonpayable",
      "type": "function"
    },
    {
      "inputs": [
        {
          "internalType": "address",
          "name": "receiver",
          "type": "address"
        },
        {
          "internalType": "uint256",
          "name": "amount",
          "type": "uint256"
        },
        {
          "internalType": "address",
          "name": "sender",
          "type": "address"
        }
      ],
      "name": "sendCoin",
      "outputs": [
        {
          "internalType": "bool",
          "name": "sufficient",
          "type": "bool"
        }
      ],
      "stateMutability": "nonpayable",
      "type": "function"
    },
    {
      "inputs": [
        {
          "internalType": "address",
          "name": "addr",
          "type": "address"
        }
      ],
      "name": "getBalance",
      "outputs": [
        {
          "internalType": "uint256",
          "name": "",
          "type": "uint256"
        }
      ],
      "stateMutability": "view",
      "type": "function",
      "constant": true
    },
    {
      "inputs": [
        {
          "internalType": "bytes",
          "name": "id",
          "type": "bytes"
        },
        {
          "internalType": "bytes32",
          "name": "name",
          "type": "bytes32"
        },
        {
          "internalType": "bytes32",
          "name": "loc",
          "type": "bytes32"
        },
        {
          "internalType": "bytes32",
          "name": "cr",
          "type": "bytes32"
        },
        {
          "internalType": "uint256",
          "name": "con",
          "type": "uint256"
        },
        {
          "internalType": "uint256",
          "name": "q",
          "type": "uint256"
        },
        {
          "internalType": "uint256",
          "name": "pr",
          "type": "uint256"
        }
      ],
      "name": "produce",
      "outputs": [],
      "stateMutability": "nonpayable",
      "type": "function"
    },
    {
      "inputs": [
        {
          "internalType": "bytes",
          "name": "j",
          "type": "bytes"
        }
      ],
      "name": "getproduce",
      "outputs": [
        {
          "internalType": "bytes",
          "name": "",
          "type": "bytes"
        },
        {
          "internalType": "bytes32",
          "name": "",
          "type": "bytes32"
        },
        {
          "internalType": "bytes32",
          "name": "",
          "type": "bytes32"
        },
        {
          "internalType": "bytes32",
          "name": "",
          "type": "bytes32"
        },
        {
          "internalType": "uint256",
          "name": "",
          "type": "uint256"
        },
        {
          "internalType": "uint256",
          "name": "",
          "type": "uint256"
        },
        {
          "internalType": "uint256",
          "name": "",
          "type": "uint256"
        }
      ],
      "stateMutability": "view",
      "type": "function",
      "constant": true
    },
    {
      "inputs": [
        {
          "internalType": "bytes",
          "name": "ll",
          "type": "bytes"
        },
        {
          "internalType": "bytes",
          "name": "g",
          "type": "bytes"
        },
        {
          "internalType": "uint256",
          "name": "p",
          "type": "uint256"
        },
        {
          "internalType": "bytes32",
          "name": "tt",
          "type": "bytes32"
        },
        {
          "internalType": "bytes32",
          "name": "e",
          "type": "bytes32"
        }
      ],
      "name": "quality",
      "outputs": [],
      "stateMutability": "nonpayable",
      "type": "function"
    },
    {
      "inputs": [
        {
          "internalType": "bytes",
          "name": "k",
          "type": "bytes"
        }
      ],
      "name": "getquality",
      "outputs": [
        {
          "internalType": "bytes",
          "name": "",
          "type": "bytes"
        },
        {
          "internalType": "bytes",
          "name": "",
          "type": "bytes"
        },
        {
          "internalType": "uint256",
          "name": "",
          "type": "uint256"
        },
        {
          "internalType": "bytes32",
          "name": "",
          "type": "bytes32"
        },
        {
          "internalType": "bytes32",
          "name": "",
          "type": "bytes32"
        }
      ],
      "stateMutability": "view",
      "type": "function",
      "constant": true
    }
  ],
  "bytecode": "0x608060405260006001556001600355600160055534801561001f57600080fd5b5060008054600160a060020a031916339081178255426001556040519091907f8be0079c531659141344cd1fd0a4f28419497f9722a3daafe3b4186f6b6457e0908290a361144e806100726000396000f3fe6080604052600436106100d55760e060020a600035046304eb580c811461019c57806307467a02146101be5780632c6d8fa7146101fa5780635487e06e1461021a57806354bb13611461023a5780635ef53ded1461026b578063715018a61461028b57806386b714e214610293578063893d20e8146102b757806392d0d153146102d7578063b81e3a50146102ed578063b8fb3a511461031d578063c3da42b814610332578063f2fde38b14610348578063f8b2cb4f1461035b578063fb5ade3114610391578063ffa1ad74146103ca57610115565b36610115577fcc85d09d309785db93d6df19917f2e6cc07fe27cd01c08c8279145deb5cf4526333460405161010b929190610e6e565b60405180910390a1005b32331461016b5760405160e560020a62461bcd0281526020600482015260196024820152603860020a787068697368696e672061747461636b2064657465637465643f0260448201526064015b60405180910390fd5b7f26875833861a2b006512a11f1b86edf95df96131040f3caeed72989ee9858083333460405161010b929190610e6e565b3480156101a857600080fd5b506101bc6101b7366004610f2d565b610410565b005b3480156101ca57600080fd5b506101de6101d9366004610fab565b610538565b6040516101f19796959493929190611014565b60405180910390f35b34801561020657600080fd5b506101de610215366004611058565b610612565b34801561022657600080fd5b506101bc610235366004611094565b6107ac565b34801561024657600080fd5b5061025a610255366004610fab565b6108f7565b6040516101f1959493929190611101565b34801561027757600080fd5b5061025a610286366004611058565b610a4d565b6101bc610c24565b34801561029f57600080fd5b506102a960035481565b6040519081526020016101f1565b6102bf610c89565b604051600160a060020a0390911681526020016101f1565b3480156102e357600080fd5b506102a960055481565b3480156102f957600080fd5b5061030d610308366004611160565b610cff565b60405190151581526020016101f1565b34801561032957600080fd5b506102a9601e81565b34801561033e57600080fd5b506102a960045481565b6101bc61035636600461119c565b610d8d565b34801561036757600080fd5b506102a961037636600461119c565b600160a060020a031660009081526006602052604090205490565b34801561039d57600080fd5b506101bc6103ac36600461119c565b600160a060020a031660009081526006602052604090206107d09055565b3480156103d657600080fd5b506104036040518060400160405280600a815260200160b060020a69312e362e342d626574610281525081565b6040516101f191906111b7565b60006040518060a001604052808781526020018681526020018581526020018481526020018381525090508060098760405161044c91906111ca565b908152604051908190036020019020815181906104699082611273565b506020820151600182019061047e9082611273565b506040820151600282015560608201516003820155608090910151600490910155600a8054600181018255600091909152815182916005027fc65a7bb8d6351c1cf70c95a316cc6a92839c986682d98bc35f958f4883f9d2a8019081906104e59082611273565b50602082015160018201906104fa9082611273565b5060408201516002820155606082015160038201556080909101516004909101556005805490600061052b83611352565b9190505550505050505050565b6008818154811061054857600080fd5b906000526020600020906007020160009150905080600001805461056b906111e6565b80601f0160208091040260200160405190810160405280929190818152602001828054610597906111e6565b80156105e45780601f106105b9576101008083540402835291602001916105e4565b820191906000526020600020905b8154815290600101906020018083116105c757829003601f168201915b5050505050908060010154908060020154908060030154908060040154908060050154908060060154905087565b606060008060008060008060078860405161062d91906111ca565b9081526040519081900360200181209060079061064b908b906111ca565b90815260200160405180910390206001015460078a60405161066d91906111ca565b90815260200160405180910390206002015460078b60405161068f91906111ca565b90815260200160405180910390206003015460078c6040516106b191906111ca565b90815260200160405180910390206004015460078d6040516106d391906111ca565b90815260200160405180910390206005015460078e6040516106f591906111ca565b908152602001604051809103902060060154868054610713906111e6565b80601f016020809104026020016040519081016040528092919081815260200182805461073f906111e6565b801561078c5780601f106107615761010080835404028352916020019161078c565b820191906000526020600020905b81548152906001019060200180831161076f57829003601f168201915b505050505096509650965096509650965096509650919395979092949650565b60006040518060e00160405280898152602001888152602001878152602001868152602001858152602001848152602001838152509050806007896040516107f491906111ca565b908152604051908190036020019020815181906108119082611273565b50602082015160018083019190915560408301516002830155606083015160038301556080830151600483015560a0830151600583015560c090920151600690910155600880549182018155600052815182916007027ff3f7a9fe364faab93b216da50a3214154f22a0a2b415b23a84c8169e8b636ee3019081906108969082611273565b506020820151816001015560408201518160020155606082015181600301556080820151816004015560a0820151816005015560c082015181600601555050600360008154809291906108e890611352565b91905055505050505050505050565b600a818154811061090757600080fd5b906000526020600020906005020160009150905080600001805461092a906111e6565b80601f0160208091040260200160405190810160405280929190818152602001828054610956906111e6565b80156109a35780601f10610978576101008083540402835291602001916109a3565b820191906000526020600020905b81548152906001019060200180831161098657829003601f168201915b5050505050908060010180546109b8906111e6565b80601f01602080910402602001604051908101604052809291908181526020018280546109e4906111e6565b8015610a315780601f10610a0657610100808354040283529160200191610a31565b820191906000526020600020905b815481529060010190602001808311610a1457829003601f168201915b5050505050908060020154908060030154908060040154905085565b6060806000806000600986604051610a6591906111ca565b90815260405190819003602001812090600990610a839089906111ca565b9081526020016040518091039020600101600988604051610aa491906111ca565b908152602001604051809103902060020154600989604051610ac691906111ca565b90815260200160405180910390206003015460098a604051610ae891906111ca565b908152602001604051809103902060040154848054610b06906111e6565b80601f0160208091040260200160405190810160405280929190818152602001828054610b32906111e6565b8015610b7f5780601f10610b5457610100808354040283529160200191610b7f565b820191906000526020600020905b815481529060010190602001808311610b6257829003601f168201915b50505050509450838054610b92906111e6565b80601f0160208091040260200160405190810160405280929190818152602001828054610bbe906111e6565b8015610c0b5780601f10610be057610100808354040283529160200191610c0b565b820191906000526020600020905b815481529060010190602001808311610bee57829003601f168201915b50989f939e50959c50939a509198509650505050505050565b600054600160a060020a03163314610c515760405160e560020a62461bcd0281526004016101629061136b565b60008054604051600160a060020a03909116906000805160206113f9833981519152908390a360008054600160a060020a0319169055565b6000601e600154610c9a919061139f565b4211610cbb5760405160e560020a62461bcd028152600401610162906113b8565b601e600154610cca919061139f565b4211610ceb5760405160e560020a62461bcd028152600401610162906113b8565b5042600155600054600160a060020a031690565b600160a060020a038116600090815260066020526040812054831115610d2757506000610d86565b600160a060020a03821660009081526006602052604081208054859290610d4f9084906113e5565b9091555050600160a060020a03841660009081526006602052604081208054859290610d7c90849061139f565b9091555060019150505b9392505050565b600054600160a060020a03163314610dba5760405160e560020a62461bcd0281526004016101629061136b565b600160a060020a038116610e255760405160e560020a62461bcd02815260206004820152602660248201527f4f776e61626c653a206e6577206f776e657220697320746865207a65726f2061604482015260d060020a65646472657373026064820152608401610162565b60008054604051600160a060020a03808516939216916000805160206113f983398151915291a360008054600160a060020a031916600160a060020a0392909216919091179055565b600160a060020a03929092168252602082015260400190565b60e060020a634e487b710260009081526041600452602490fd5b600082601f830112610eb257600080fd5b81356001604060020a0380821115610ecc57610ecc610e87565b604051601f8301601f19908116603f01168101908282118183101715610ef457610ef4610e87565b81604052838152866020858801011115610f0d57600080fd5b836020870160208301376000602085830101528094505050505092915050565b600080600080600060a08688031215610f4557600080fd5b85356001604060020a0380821115610f5c57600080fd5b610f6889838a01610ea1565b96506020880135915080821115610f7e57600080fd5b50610f8b88828901610ea1565b959895975050505060408401359360608101359360809091013592509050565b600060208284031215610fbd57600080fd5b5035919050565b60005b83811015610fdf578181015183820152602001610fc7565b50506000910152565b60008151808452611000816020860160208601610fc4565b601f01601f19169290920160200192915050565b60e08152600061102760e083018a610fe8565b60208301989098525060408101959095526060850193909352608084019190915260a083015260c090910152919050565b60006020828403121561106a57600080fd5b81356001604060020a0381111561108057600080fd5b61108c84828501610ea1565b949350505050565b600080600080600080600060e0888a0312156110af57600080fd5b87356001604060020a038111156110c557600080fd5b6110d18a828b01610ea1565b9a60208a01359a5060408a013599606081013599506080810135985060a0810135975060c0013595509350505050565b60a08152600061111460a0830188610fe8565b82810360208401526111268188610fe8565b60408401969096525050606081019290925260809091015292915050565b8035600160a060020a038116811461115b57600080fd5b919050565b60008060006060848603121561117557600080fd5b61117e84611144565b92506020840135915061119360408501611144565b90509250925092565b6000602082840312156111ae57600080fd5b610d8682611144565b602081526000610d866020830184610fe8565b600082516111dc818460208701610fc4565b9190910192915050565b6002810460018216806111fa57607f821691505b60208210810361121e5760e060020a634e487b710260009081526022600452602490fd5b50919050565b601f82111561126e576000818152602081206020601f8601048101602086101561124b5750805b6020601f860104820191505b8181101561126a57828155600101611257565b5050505b505050565b81516001604060020a0381111561128c5761128c610e87565b6112a08161129a84546111e6565b84611224565b602080601f8311600181146112d957600084156112bd5750858301515b60028086026008870290910a600019041982161786555061126a565b600085815260208120601f198616915b82811015611308578886015182559484019460019091019084016112e9565b508582101561132857878501516008601f88160260020a60001904191681555b5050505050600202600101905550565b60e060020a634e487b710260009081526011600452602490fd5b60006001820161136457611364611338565b5060010190565b6020808252601790820152604960020a7630b1b1b2b9b9903232b734b2b2103337b91037bbb732b902604082015260600190565b808201808211156113b2576113b2611338565b92915050565b6020808252601090820152608160020a6f3930ba32903634b6b4ba1032b93937b902604082015260600190565b818103818111156113b2576113b261133856fe8be0079c531659141344cd1fd0a4f28419497f9722a3daafe3b4186f6b6457e0a26469706673582212208eb0cdcbad63df2ef39027bddeb9d0bb3ca73503d0383c79e8ea51c253f34fb264736f6c63430008120033",
  "immutableReferences": {},
  "source": "// SPDX-License-Identifier: CC-BY-4.0\r\npragma solidity >=0.4.22 <0.9.0;\r\n\r\n// See https://github.com/soniaRbii/Agri-Trade and\r\n// https://github.com/VivekSJ292018/Atmanirbharinnovation/tree/master/App/app for DAPP\r\n\r\nimport \"../common/Version.sol\";\r\nimport \"../common/Frozen.sol\";\r\n\r\ncontract AgriTrade is Version, Owned {\r\n\r\n    uint256 public s = 1;\r\n    uint256 public c;\r\n    uint256 public t=1;\r\n    mapping (address => uint) balances;\r\n\r\n    function fundaddr(address addr) external {\r\n        balances[addr] = 2000;\r\n    }\r\n\r\n    function sendCoin(address receiver, uint amount, address sender)\r\n        external\r\n        returns(bool sufficient)\r\n    {\r\n        if (balances[sender] < amount) {\r\n            return false;\r\n        }\r\n\r\n        balances[sender] -= amount;\r\n        balances[receiver] += amount;\r\n\r\n        return true;\r\n    }\r\n\r\n    function getBalance(address addr)\r\n        external\r\n        view\r\n        returns(uint)\r\n    {\r\n        return balances[addr];\r\n    }\r\n\r\n    struct farmer {\r\n        bytes fid;\r\n        bytes32 fname;\r\n        bytes32 loc;\r\n        bytes32 crop;\r\n        uint256 contact;\r\n        uint quantity;\r\n        uint exprice;\r\n    }\r\n\r\n    struct lot {\r\n        bytes lotno;\r\n        bytes grade;\r\n        uint mrp;\r\n        bytes32 testdate;\r\n        bytes32 expdate;\r\n    }\r\n\r\n    mapping (bytes => farmer) f1;\r\n    farmer[] public fm;\r\n\r\n    mapping (bytes => lot) l1;\r\n    lot[] public l;\r\n\r\n\r\n\r\n    function produce(bytes memory id, bytes32 name, bytes32 loc, bytes32 cr, uint256 con, uint q, uint pr)\r\n        external\r\n    {\r\n        AgriTrade.farmer memory fnew = farmer(id,name,loc,cr,con,q,pr);\r\n        f1[id] = fnew;\r\n        fm.push(fnew);\r\n        s++;\r\n    }\r\n\r\n    function getproduce(bytes memory j)\r\n        external\r\n        view\r\n        returns(bytes memory,bytes32,bytes32,bytes32,uint256,uint,uint)\r\n    {\r\n        return (f1[j].fid,f1[j].fname,f1[j].loc,f1[j].crop,f1[j].contact,f1[j].quantity,f1[j].exprice);\r\n    }\r\n\r\n    function quality(bytes memory ll, bytes memory g, uint256 p, bytes32 tt, bytes32 e)\r\n        external\r\n    {\r\n        AgriTrade.lot memory lnew = lot(ll,g,p,tt,e);\r\n        l1[ll] = lnew;\r\n        l.push(lnew);\r\n        t++;\r\n    }\r\n\r\n    function getquality(bytes memory k)\r\n        external\r\n        view\r\n        returns(bytes memory,bytes memory,uint,bytes32,bytes32)\r\n    {\r\n        return(l1[k].lotno,l1[k].grade,l1[k].mrp,l1[k].testdate,l1[k].expdate);\r\n    }\r\n}",
  "sourcePath": "/Volumes/My Book/projects/pingleware-contracts/contracts/agriculture/AgriTrade.sol",
  "compiler": {
    "name": "solc",
    "version": "0.8.18+commit.87f61d96.Emscripten.clang"
  },
  "schemaVersion": "3.4.12",
  "updatedAt": "2023-10-23T17:40:38.107Z",
  "networkType": "ethereum",
  "devdoc": {
    "kind": "dev",
    "methods": {
      "renounceOwnership()": {
        "details": "Leaves the contract without owner. It will not be possible to call `onlyOwner` functions anymore. Can only be called by the current owner. NOTE: Renouncing ownership will leave the contract without an owner, thereby removing any functionality that is only available to the owner."
      },
      "transferOwnership(address)": {
        "details": "Transfers ownership of the contract to a new account (`newOwner`). Can only be called by the current owner."
      }
    },
    "version": 1
  },
  "userdoc": {
    "kind": "user",
    "methods": {},
    "version": 1
  }
}