{
  "contractName": "AgriChain",
  "abi": [
    {
      "anonymous": false,
      "inputs": [
        {
          "indexed": false,
          "internalType": "address",
          "name": "sender",
          "type": "address"
        },
        {
          "indexed": false,
          "internalType": "address",
          "name": "recipient",
          "type": "address"
        }
      ],
      "name": "Destroyed",
      "type": "event"
    },
    {
      "anonymous": false,
      "inputs": [
        {
          "indexed": false,
          "internalType": "address",
          "name": "sender",
          "type": "address"
        },
        {
          "indexed": false,
          "internalType": "uint256",
          "name": "amount",
          "type": "uint256"
        }
      ],
      "name": "FallbackEvent",
      "type": "event"
    },
    {
      "anonymous": false,
      "inputs": [
        {
          "indexed": true,
          "internalType": "address",
          "name": "previousOwner",
          "type": "address"
        },
        {
          "indexed": true,
          "internalType": "address",
          "name": "newOwner",
          "type": "address"
        }
      ],
      "name": "OwnershipTransferred",
      "type": "event"
    },
    {
      "anonymous": false,
      "inputs": [
        {
          "indexed": false,
          "internalType": "uint256",
          "name": "prodId",
          "type": "uint256"
        },
        {
          "indexed": false,
          "internalType": "string",
          "name": "pname",
          "type": "string"
        },
        {
          "indexed": false,
          "internalType": "string",
          "name": "pstatus",
          "type": "string"
        },
        {
          "indexed": false,
          "internalType": "string",
          "name": "pcurLoc",
          "type": "string"
        },
        {
          "indexed": false,
          "internalType": "bytes32",
          "name": "hash",
          "type": "bytes32"
        }
      ],
      "name": "ProductAdded",
      "type": "event"
    },
    {
      "anonymous": false,
      "inputs": [
        {
          "indexed": false,
          "internalType": "address",
          "name": "sender",
          "type": "address"
        },
        {
          "indexed": false,
          "internalType": "uint256",
          "name": "amount",
          "type": "uint256"
        }
      ],
      "name": "ReceiveEvent",
      "type": "event"
    },
    {
      "anonymous": false,
      "inputs": [
        {
          "indexed": false,
          "internalType": "address",
          "name": "sender",
          "type": "address"
        },
        {
          "indexed": false,
          "internalType": "bytes",
          "name": "reason",
          "type": "bytes"
        }
      ],
      "name": "Started",
      "type": "event"
    },
    {
      "anonymous": false,
      "inputs": [
        {
          "indexed": false,
          "internalType": "address",
          "name": "sender",
          "type": "address"
        },
        {
          "indexed": false,
          "internalType": "bytes",
          "name": "reason",
          "type": "bytes"
        }
      ],
      "name": "Stopped",
      "type": "event"
    },
    {
      "anonymous": false,
      "inputs": [
        {
          "indexed": false,
          "internalType": "address",
          "name": "sender",
          "type": "address"
        },
        {
          "indexed": false,
          "internalType": "string",
          "name": "reason",
          "type": "string"
        }
      ],
      "name": "Termination",
      "type": "event"
    },
    {
      "stateMutability": "payable",
      "type": "fallback"
    },
    {
      "inputs": [],
      "name": "VERSION",
      "outputs": [
        {
          "internalType": "string",
          "name": "",
          "type": "string"
        }
      ],
      "stateMutability": "view",
      "type": "function"
    },
    {
      "inputs": [],
      "name": "WAIT",
      "outputs": [
        {
          "internalType": "uint256",
          "name": "",
          "type": "uint256"
        }
      ],
      "stateMutability": "view",
      "type": "function"
    },
    {
      "inputs": [],
      "name": "destroy",
      "outputs": [],
      "stateMutability": "nonpayable",
      "type": "function"
    },
    {
      "inputs": [
        {
          "internalType": "address",
          "name": "_recipient",
          "type": "address"
        }
      ],
      "name": "destroyAndSend",
      "outputs": [],
      "stateMutability": "nonpayable",
      "type": "function"
    },
    {
      "inputs": [],
      "name": "getOwner",
      "outputs": [
        {
          "internalType": "address",
          "name": "",
          "type": "address"
        }
      ],
      "stateMutability": "payable",
      "type": "function"
    },
    {
      "inputs": [
        {
          "internalType": "uint256",
          "name": "",
          "type": "uint256"
        }
      ],
      "name": "productIds",
      "outputs": [
        {
          "internalType": "uint256",
          "name": "",
          "type": "uint256"
        }
      ],
      "stateMutability": "view",
      "type": "function"
    },
    {
      "inputs": [],
      "name": "renounceOwnership",
      "outputs": [],
      "stateMutability": "payable",
      "type": "function"
    },
    {
      "inputs": [
        {
          "internalType": "address",
          "name": "newOwner",
          "type": "address"
        }
      ],
      "name": "transferOwnership",
      "outputs": [],
      "stateMutability": "payable",
      "type": "function"
    },
    {
      "stateMutability": "payable",
      "type": "receive"
    },
    {
      "inputs": [
        {
          "internalType": "uint256",
          "name": "prodId",
          "type": "uint256"
        },
        {
          "internalType": "string",
          "name": "pname",
          "type": "string"
        },
        {
          "internalType": "string",
          "name": "pstatus",
          "type": "string"
        },
        {
          "internalType": "string",
          "name": "pcurLoc",
          "type": "string"
        }
      ],
      "name": "addProduct",
      "outputs": [],
      "stateMutability": "nonpayable",
      "type": "function"
    },
    {
      "inputs": [],
      "name": "getProductIds",
      "outputs": [
        {
          "internalType": "uint256[16]",
          "name": "",
          "type": "uint256[16]"
        }
      ],
      "stateMutability": "view",
      "type": "function"
    },
    {
      "inputs": [
        {
          "internalType": "uint256",
          "name": "prodId",
          "type": "uint256"
        }
      ],
      "name": "getProductDetail",
      "outputs": [
        {
          "internalType": "string",
          "name": "",
          "type": "string"
        },
        {
          "internalType": "string",
          "name": "",
          "type": "string"
        },
        {
          "internalType": "string",
          "name": "",
          "type": "string"
        },
        {
          "internalType": "bytes32",
          "name": "",
          "type": "bytes32"
        }
      ],
      "stateMutability": "view",
      "type": "function"
    },
    {
      "inputs": [
        {
          "internalType": "string",
          "name": "s",
          "type": "string"
        }
      ],
      "name": "string_tobytes",
      "outputs": [
        {
          "internalType": "bytes",
          "name": "",
          "type": "bytes"
        }
      ],
      "stateMutability": "pure",
      "type": "function"
    }
  ],
  "bytecode": "0x6080806040523461005d5760008054600160a060020a03191633908117825542600155907f8be0079c531659141344cd1fd0a4f28419497f9722a3daafe3b4186f6b6457e08180a360ff19600354166003556110cf90816100638239f35b600080fdfe60808060405260043610156100c9575b50361561009957333203610052577f26875833861a2b006512a11f1b86edf95df96131040f3caeed72989ee98580836040518061004d343383610ff2565b0390a1005b60405160e560020a62461bcd0281526020600482015260196024820152603860020a787068697368696e672061747461636b2064657465637465643f026044820152606490fd5b7fcc85d09d309785db93d6df19917f2e6cc07fe27cd01c08c8279145deb5cf45266040518061004d343383610ff2565b60e060020a60003504906347428e7b8214610d1d575080635ddc949c14610aba578063715018a614610a7357806383197ef014610a32578063893d20e814610a0a578063b8fb3a51146109ee578063bc6d0577146109a7578063c1393d271461032b578063cb51bba9146102ff578063f2fde38b14610247578063f5074f41146101e05763ffa1ad741461015d573861000f565b346101db5760003660031901126101db5760408051908101906001604060020a038211818310176101c1576101bd91604052600a815260b060020a69312e362e342d62657461026020820152604051918291602083526020830190610dc2565b0390f35b60e060020a634e487b710260009081526041600452602490fd5b600080fd5b346101db5760203660031901126101db57600435600160a060020a0380821682036101db5760008051602061105a8339815191529161022761004d92600054163314610f29565b60408051338152600160a060020a03909216602083015290918291820190565b60203660031901126101db57600435600160a060020a03818116918290036101db5760005490811661027a81331461100d565b82156102a557829060008051602061107a833981519152600080a3600160a060020a03191617600055005b60405160e560020a62461bcd02815260206004820152602660248201527f4f776e61626c653a206e6577206f776e657220697320746865207a65726f2061604482015260d060020a65646472657373026064820152608490fd5b346101db5760203660031901126101db5760043560108110156101db5760209060040154604051908152f35b346101db5760803660031901126101db576001604060020a036024358181116101db5761035c903690600401610e5c565b6044358281116101db57610374903690600401610e5c565b916064358181116101db5761038d903690600401610e5c565b90600f6004351161096c576004356000526014602052604060002083518281116101c1576103bb8254610ea3565b601f8111610923575b50806020601f82116001146108bc576000916108b1575b50816002029160080260020a6000190419161790555b6004356000526014602052600160406000200184518281116101c1576104178254610ea3565b601f8111610868575b50806020601f8211600114610801576000916107f6575b50816002029160080260020a6000190419161790555b600435600052601460205260036040600020019082519081116101c1576104748254610ea3565b601f81116107ad575b50806020601f821160011461074457600091610739575b50816002029160080260020a6000190419161790555b604051916104b783610e03565b600083526040516104c781610e03565b600081526104f16104e96104e16104e18551895190610ee2565b865190610ee2565b825190610ee2565b946104fb86610e41565b956105096040519788610e1e565b808752610518601f1991610e41565b0136602088013760009360005b845181101561056a5761056590600160f860020a03196105458288610f18565b51169661055f61055482610f09565b9860001a918b610f18565b53610f09565b610525565b509194909260005b84518110156105975761059290600160f860020a03196105458288610f18565b610572565b509091929460005b84518110156105c4576105bf90600160f860020a03196105458288610f18565b61059f565b509091929460005b84518110156105f1576105ec90600160f860020a03196105458288610f18565b6105cc565b50919490925060005b83518110156106395761063490600160f860020a031961061a8287610f18565b51169561055f61062982610f09565b9760001a918a610f18565b6105fa565b508460206000610656898360405192828480945193849201610d9f565b8101039060025afa1561072d57600051600435600052601460205260026040600020015560106004351015610713577f735428dda5e8dedb08987beed0dbef72580c3d54a02589c61ff8bca1ca05c2bf926107086106ec936004356004356004015560043560005260146020526106fa60026040600020015493604051968796600435885260a0602089015260a0880190610dc2565b908682036040880152610dc2565b908482036060860152610dc2565b9060808301520390a1005b60e060020a634e487b710260009081526032600452602490fd5b6040513d6000823e3d90fd5b905083015186610494565b60008481526020812092505b601f198416811061079557509160029160019382601f1981161061077a575b5050020190556104aa565b8601516008601f841602840a6000190419169055878061076f565b90916020600181928589015181550193019101610750565b8260005260206000206020601f840104810191602084106107ec575b601f602091010401905b8181106107e0575061047d565b600081556001016107d3565b90915081906107c9565b905086015187610437565b6000848152602081209250601f198416905b818110610850575091839160019460029410610835575b50500201905561044d565b8901516008601f841602840a6000190419169055888061082a565b9192602060018192868d015181550194019201610813565b8260005260206000206020601f840104810191602084106108a7575b601f602091010401905b81811061089b5750610420565b6000815560010161088e565b9091508190610884565b9050850151876103db565b6000848152602081209250601f198416905b81811061090b5750918391600194600294106108f0575b5050020190556103f1565b8801516008601f841602840a600019041916905588806108e5565b9192602060018192868c0151815501940192016108ce565b8260005260206000206020601f84010481019160208410610962575b601f602091010401905b81811061095657506103c4565b60008155600101610949565b909150819061093f565b60405160e560020a62461bcd02815260206004820152600d6024820152609960020a6c33b7903437b6b29039b4b6b7b7026044820152606490fd5b346101db5760203660031901126101db576004356001604060020a0381116101db576109da6101bd913690600401610e5c565b604051918291602083526020830190610dc2565b346101db5760003660031901126101db576020604051601e8152f35b60003660031901126101db576020610a20610fbd565b604051600160a060020a039091168152f35b346101db5760003660031901126101db57610a59600160a060020a03600054163314610f29565b60008051602061105a83398151915261004d610227610fbd565b60003660031901126101db576000805490600160a060020a038216610a9933821461100d565b60008051602061107a8339815191528280a3600160a060020a031916600055005b346101db576020806003193601126101db5760043580600052601482526040600020906040519183836000835493610af185610ea3565b908184526001958681169081600014610cfd5750600114610cbc575b5050610b1b92500384610e1e565b81600052601484528060406000200191846040518094600090805490610b4082610ea3565b80855291878116908115610c9c5750600114610c5b575b5050610b6592500384610e1e565b806000526014855260036040600020019160405192600091815491610b8983610ea3565b80875292828116908115610c3c5750600114610c05575b505050610be0958392610bbb610bfb95610bed940385610e1e565b6000526014815260026040600020015494604051978897608089526080890190610dc2565b9187830390880152610dc2565b908482036040860152610dc2565b9060608301520390f35b60009081528881209093505b828410610c2957505050820185018582610bbb610ba0565b80548685018a0152928801928101610c11565b60ff19168a880152505050151586028301860190508582610bbb610ba0565b9091506000528260002090856000925b828410610c855750505091610b6592820101879289610b57565b805489850187015288945092850192879101610c6b565b915050610b6594925060ff19168284015215158102820101879289610b57565b9091506000528260002090846000925b828410610ce65750505091610b1b92820101869288610b0d565b805489850187015288945092850192869101610ccc565b915050610b1b94925060ff19168284015215158102820101869288610b0d565b346101db5760003660031901126101db57610d3781610de7565b610200809136903760405160046000825b60108210610d8957505050610d5c81610de7565b60405190600090825b60108310610d7257505050f35b600190825181526020809101920192019190610d65565b6001602081928554815201930191019091610d48565b60005b838110610db25750506000910152565b8181015183820152602001610da2565b90602091610ddb81518092818552858086019101610d9f565b601f01601f1916010190565b61020081019081106001604060020a038211176101c157604052565b602081019081106001604060020a038211176101c157604052565b601f909101601f19168101906001604060020a038211908210176101c157604052565b6001604060020a0381116101c157601f01601f191660200190565b81601f820112156101db57803590610e7382610e41565b92610e816040519485610e1e565b828452602083830101116101db57816000926020809301838601378301015290565b9060016002830492168015610ed8575b6020831014610ebe57565b60e060020a634e487b710260009081526022600452602490fd5b91607f1691610eb3565b91908201809211610eef57565b60e060020a634e487b710260009081526011600452602490fd5b6000198114610eef5760010190565b908151811015610713570160200190565b15610f3057565b60405160e560020a62461bcd02815260206004820152601b60248201527f756e617574686f72697a65642c206e6f7420746865206f776e657200000000006044820152606490fd5b15610f7f57565b60405160e560020a62461bcd0281526020600482015260106024820152608160020a6f3930ba32903634b6b4ba1032b93937b9026044820152606490fd5b600154601e8101809111610eef57610fdf904211610fda81610f78565b610f78565b42600155600054600160a060020a031690565b600160a060020a039091168152602081019190915260400190565b1561101457565b60405160e560020a62461bcd0281526020600482015260176024820152604960020a7630b1b1b2b9b9903232b734b2b2103337b91037bbb732b9026044820152606490fdfe91ca00fdf29069527d658f8dfc6d1c0bf9861780bb45ff36436f938d3595a8d68be0079c531659141344cd1fd0a4f28419497f9722a3daafe3b4186f6b6457e0a264697066735822122024808c08dd7cbcc7b6d895bc3ed1c28d8b380d6de57157f2562e621f2c3b378064736f6c63430008120033",
  "immutableReferences": {},
  "source": "// SPDX-License-Identifier: CC-BY-4.0\r\npragma solidity >=0.4.22 <0.9.0;\r\n\r\n// See https://github.com/bazinga776/AgriChain-Blockchain\r\n\r\nimport \"../common/Version.sol\";\r\nimport \"../common/Frozen.sol\";\r\n\r\ncontract AgriChain is Version, Frozen {\r\n    uint[16] public productIds;\r\n\r\n    struct Data{\r\n        string name;\r\n        string status;\r\n        bytes32 hash_value;\r\n        string curLoc;\r\n    }\r\n\r\n    mapping(uint => Data) prod;\r\n\r\n    event ProductAdded(uint prodId,string pname,string pstatus,string pcurLoc,bytes32 hash);\r\n\r\n    // Adding a product\r\n    function addProduct(uint prodId,string memory pname,string memory pstatus,string memory pcurLoc)\r\n        external\r\n    {\r\n        require(prodId >= 0 && prodId <= 15,\"go home simon\");\r\n        prod[prodId].name = pname;\r\n        prod[prodId].status = pstatus;\r\n        prod[prodId].curLoc = pcurLoc;\r\n        prod[prodId].hash_value = sha256(string_tobytes(strConcat(pname,pstatus,pcurLoc)));\r\n        productIds[prodId] = prodId;\r\n\r\n        emit ProductAdded(prodId, pname, pstatus, pcurLoc, prod[prodId].hash_value);\r\n    }\r\n\r\n    // Retrieving the adopters\r\n    function getProductIds()\r\n        external\r\n        view\r\n        returns (uint[16] memory)\r\n    {\r\n        return productIds;\r\n    }\r\n\r\n    function getProductDetail(uint prodId)\r\n        external\r\n        view\r\n        returns (string memory,string memory,string memory,bytes32 )\r\n    {\r\n        string memory prod_name = prod[prodId].name;\r\n        string memory prod_status = prod[prodId].status;\r\n        string memory prod_curLoc = prod[prodId].curLoc;\r\n        bytes32  prod_hash = prod[prodId].hash_value;\r\n        return (prod_name,prod_status,prod_curLoc,prod_hash);\r\n    }\r\n\r\n    function string_tobytes(string memory s)\r\n        public\r\n        pure\r\n        returns (bytes memory)\r\n    {\r\n        bytes memory b3 = bytes(s);\r\n        return b3;\r\n    }\r\n\r\n    function strConcat(string memory _a, string memory _b, string memory _c, string memory _d, string memory  _e)\r\n        internal\r\n        pure\r\n        returns (string memory)\r\n    {\r\n        bytes memory _ba = bytes(_a);\r\n        bytes memory _bb = bytes(_b);\r\n        bytes memory _bc = bytes(_c);\r\n        bytes memory _bd = bytes(_d);\r\n        bytes memory _be = bytes(_e);\r\n        string memory abcde = new string(_ba.length + _bb.length + _bc.length + _bd.length + _be.length);\r\n        bytes memory babcde = bytes(abcde);\r\n        uint k = 0;\r\n        for (uint i = 0; i < _ba.length; i++) babcde[k++] = _ba[i];\r\n        for (uint i = 0; i < _bb.length; i++) babcde[k++] = _bb[i];\r\n        for (uint i = 0; i < _bc.length; i++) babcde[k++] = _bc[i];\r\n        for (uint i = 0; i < _bd.length; i++) babcde[k++] = _bd[i];\r\n        for (uint i = 0; i < _be.length; i++) babcde[k++] = _be[i];\r\n        return string(babcde);\r\n    }\r\n\r\n    function strConcat(string memory _a, string memory _b, string memory _c)\r\n        internal\r\n        pure\r\n        returns (string memory)\r\n    {\r\n        return strConcat(_a, _b, _c, \"\", \"\");\r\n    }\r\n}",
  "sourcePath": "/Volumes/HOME/pingleware-contracts/contracts/agriculture/AgriChain.sol",
  "compiler": {
    "name": "solc",
    "version": "0.8.18+commit.87f61d96.Emscripten.clang"
  },
  "schemaVersion": "3.4.12",
  "updatedAt": "2024-05-23T18:56:24.837Z",
  "devdoc": {
    "kind": "dev",
    "methods": {
      "renounceOwnership()": {
        "details": "Leaves the contract without owner. It will not be possible to call `onlyOwner` functions anymore. Can only be called by the current owner. NOTE: Renouncing ownership will leave the contract without an owner, thereby removing any functionality that is only available to the owner."
      },
      "transferOwnership(address)": {
        "details": "Transfers ownership of the contract to a new account (`newOwner`). Can only be called by the current owner."
      }
    },
    "version": 1
  },
  "userdoc": {
    "kind": "user",
    "methods": {},
    "version": 1
  }
}