{
  "contractName": "AgriTrade",
  "abi": [
    {
      "anonymous": false,
      "inputs": [
        {
          "indexed": false,
          "internalType": "address",
          "name": "sender",
          "type": "address"
        },
        {
          "indexed": false,
          "internalType": "uint256",
          "name": "amount",
          "type": "uint256"
        }
      ],
      "name": "FallbackEvent",
      "type": "event"
    },
    {
      "anonymous": false,
      "inputs": [
        {
          "indexed": true,
          "internalType": "address",
          "name": "previousOwner",
          "type": "address"
        },
        {
          "indexed": true,
          "internalType": "address",
          "name": "newOwner",
          "type": "address"
        }
      ],
      "name": "OwnershipTransferred",
      "type": "event"
    },
    {
      "anonymous": false,
      "inputs": [
        {
          "indexed": false,
          "internalType": "address",
          "name": "sender",
          "type": "address"
        },
        {
          "indexed": false,
          "internalType": "uint256",
          "name": "amount",
          "type": "uint256"
        }
      ],
      "name": "ReceiveEvent",
      "type": "event"
    },
    {
      "stateMutability": "payable",
      "type": "fallback"
    },
    {
      "inputs": [],
      "name": "VERSION",
      "outputs": [
        {
          "internalType": "string",
          "name": "",
          "type": "string"
        }
      ],
      "stateMutability": "view",
      "type": "function"
    },
    {
      "inputs": [],
      "name": "WAIT",
      "outputs": [
        {
          "internalType": "uint256",
          "name": "",
          "type": "uint256"
        }
      ],
      "stateMutability": "view",
      "type": "function"
    },
    {
      "inputs": [],
      "name": "c",
      "outputs": [
        {
          "internalType": "uint256",
          "name": "",
          "type": "uint256"
        }
      ],
      "stateMutability": "view",
      "type": "function"
    },
    {
      "inputs": [
        {
          "internalType": "uint256",
          "name": "",
          "type": "uint256"
        }
      ],
      "name": "fm",
      "outputs": [
        {
          "internalType": "bytes",
          "name": "fid",
          "type": "bytes"
        },
        {
          "internalType": "bytes32",
          "name": "fname",
          "type": "bytes32"
        },
        {
          "internalType": "bytes32",
          "name": "loc",
          "type": "bytes32"
        },
        {
          "internalType": "bytes32",
          "name": "crop",
          "type": "bytes32"
        },
        {
          "internalType": "uint256",
          "name": "contact",
          "type": "uint256"
        },
        {
          "internalType": "uint256",
          "name": "quantity",
          "type": "uint256"
        },
        {
          "internalType": "uint256",
          "name": "exprice",
          "type": "uint256"
        }
      ],
      "stateMutability": "view",
      "type": "function"
    },
    {
      "inputs": [],
      "name": "getOwner",
      "outputs": [
        {
          "internalType": "address",
          "name": "",
          "type": "address"
        }
      ],
      "stateMutability": "payable",
      "type": "function"
    },
    {
      "inputs": [
        {
          "internalType": "uint256",
          "name": "",
          "type": "uint256"
        }
      ],
      "name": "l",
      "outputs": [
        {
          "internalType": "bytes",
          "name": "lotno",
          "type": "bytes"
        },
        {
          "internalType": "bytes",
          "name": "grade",
          "type": "bytes"
        },
        {
          "internalType": "uint256",
          "name": "mrp",
          "type": "uint256"
        },
        {
          "internalType": "bytes32",
          "name": "testdate",
          "type": "bytes32"
        },
        {
          "internalType": "bytes32",
          "name": "expdate",
          "type": "bytes32"
        }
      ],
      "stateMutability": "view",
      "type": "function"
    },
    {
      "inputs": [],
      "name": "renounceOwnership",
      "outputs": [],
      "stateMutability": "payable",
      "type": "function"
    },
    {
      "inputs": [],
      "name": "s",
      "outputs": [
        {
          "internalType": "uint256",
          "name": "",
          "type": "uint256"
        }
      ],
      "stateMutability": "view",
      "type": "function"
    },
    {
      "inputs": [],
      "name": "t",
      "outputs": [
        {
          "internalType": "uint256",
          "name": "",
          "type": "uint256"
        }
      ],
      "stateMutability": "view",
      "type": "function"
    },
    {
      "inputs": [
        {
          "internalType": "address",
          "name": "newOwner",
          "type": "address"
        }
      ],
      "name": "transferOwnership",
      "outputs": [],
      "stateMutability": "payable",
      "type": "function"
    },
    {
      "stateMutability": "payable",
      "type": "receive"
    },
    {
      "inputs": [
        {
          "internalType": "address",
          "name": "addr",
          "type": "address"
        }
      ],
      "name": "fundaddr",
      "outputs": [],
      "stateMutability": "nonpayable",
      "type": "function"
    },
    {
      "inputs": [
        {
          "internalType": "address",
          "name": "receiver",
          "type": "address"
        },
        {
          "internalType": "uint256",
          "name": "amount",
          "type": "uint256"
        },
        {
          "internalType": "address",
          "name": "sender",
          "type": "address"
        }
      ],
      "name": "sendCoin",
      "outputs": [
        {
          "internalType": "bool",
          "name": "sufficient",
          "type": "bool"
        }
      ],
      "stateMutability": "nonpayable",
      "type": "function"
    },
    {
      "inputs": [
        {
          "internalType": "address",
          "name": "addr",
          "type": "address"
        }
      ],
      "name": "getBalance",
      "outputs": [
        {
          "internalType": "uint256",
          "name": "",
          "type": "uint256"
        }
      ],
      "stateMutability": "view",
      "type": "function"
    },
    {
      "inputs": [
        {
          "internalType": "bytes",
          "name": "id",
          "type": "bytes"
        },
        {
          "internalType": "bytes32",
          "name": "name",
          "type": "bytes32"
        },
        {
          "internalType": "bytes32",
          "name": "loc",
          "type": "bytes32"
        },
        {
          "internalType": "bytes32",
          "name": "cr",
          "type": "bytes32"
        },
        {
          "internalType": "uint256",
          "name": "con",
          "type": "uint256"
        },
        {
          "internalType": "uint256",
          "name": "q",
          "type": "uint256"
        },
        {
          "internalType": "uint256",
          "name": "pr",
          "type": "uint256"
        }
      ],
      "name": "produce",
      "outputs": [],
      "stateMutability": "nonpayable",
      "type": "function"
    },
    {
      "inputs": [
        {
          "internalType": "bytes",
          "name": "j",
          "type": "bytes"
        }
      ],
      "name": "getproduce",
      "outputs": [
        {
          "internalType": "bytes",
          "name": "",
          "type": "bytes"
        },
        {
          "internalType": "bytes32",
          "name": "",
          "type": "bytes32"
        },
        {
          "internalType": "bytes32",
          "name": "",
          "type": "bytes32"
        },
        {
          "internalType": "bytes32",
          "name": "",
          "type": "bytes32"
        },
        {
          "internalType": "uint256",
          "name": "",
          "type": "uint256"
        },
        {
          "internalType": "uint256",
          "name": "",
          "type": "uint256"
        },
        {
          "internalType": "uint256",
          "name": "",
          "type": "uint256"
        }
      ],
      "stateMutability": "view",
      "type": "function"
    },
    {
      "inputs": [
        {
          "internalType": "bytes",
          "name": "ll",
          "type": "bytes"
        },
        {
          "internalType": "bytes",
          "name": "g",
          "type": "bytes"
        },
        {
          "internalType": "uint256",
          "name": "p",
          "type": "uint256"
        },
        {
          "internalType": "bytes32",
          "name": "tt",
          "type": "bytes32"
        },
        {
          "internalType": "bytes32",
          "name": "e",
          "type": "bytes32"
        }
      ],
      "name": "quality",
      "outputs": [],
      "stateMutability": "nonpayable",
      "type": "function"
    },
    {
      "inputs": [
        {
          "internalType": "bytes",
          "name": "k",
          "type": "bytes"
        }
      ],
      "name": "getquality",
      "outputs": [
        {
          "internalType": "bytes",
          "name": "",
          "type": "bytes"
        },
        {
          "internalType": "bytes",
          "name": "",
          "type": "bytes"
        },
        {
          "internalType": "uint256",
          "name": "",
          "type": "uint256"
        },
        {
          "internalType": "bytes32",
          "name": "",
          "type": "bytes32"
        },
        {
          "internalType": "bytes32",
          "name": "",
          "type": "bytes32"
        }
      ],
      "stateMutability": "view",
      "type": "function"
    }
  ],
  "bytecode": "0x6080806040523461005d5760008054600160a060020a03191633908117825542600155907f8be0079c531659141344cd1fd0a4f28419497f9722a3daafe3b4186f6b6457e08180a3600160035560016005556111c190816100638239f35b600080fdfe6040608081526004803610156100c4575b361561009557333203610051577f26875833861a2b006512a11f1b86edf95df96131040f3caeed72989ee985808382518061004c343383611104565b0390a1005b6020606492519160e560020a62461bcd02835282015260196024820152603860020a787068697368696e672061747461636b2064657465637465643f026044820152fd5b7fcc85d09d309785db93d6df19917f2e6cc07fe27cd01c08c8279145deb5cf452682518061004c343383611104565b600060e060020a8135046304eb580c81146108a957806307467a02146108445780632c6d8fa71461071a5780635487e06e146105f257806354bb1361146105925780635ef53ded1461049e578063715018a61461045957806386b714e21461043a578063893d20e8146103da57806392d0d153146103bb578063b81e3a501461036f578063b8fb3a5114610353578063c3da42b814610334578063f2fde38b14610277578063f8b2cb4f1461023f578063fb5ade311461020a5763ffa1ad741461018e5750610010565b8234610206578160031936011261020657805191828201906001604060020a038211848310176101f057506101ec93508152600a825260b060020a69312e362e342d6265746102602083015251918291602083526020830190610b82565b0390f35b60e060020a634e487b7102815260418552602490fd5b5080fd5b508234610206576020366003190112610206576107d090600160a060020a03610231610c3a565b168352600660205282205580f35b508234610206576020366003190112610206576020918190600160a060020a03610267610c3a565b1681526006845220549051908152f35b50919060203660031901126103305761028e610c3a565b835491600160a060020a03808416926102a833851461111f565b169384156102d6575050829060008051602061116c8339815191528580a3600160a060020a03191617815580f35b5160e560020a62461bcd028152602091810191909152602660248201527f4f776e61626c653a206e6577206f776e657220697320746865207a65726f2061604482015260d060020a65646472657373026064820152608490fd5b8280fd5b5091903461033057826003193601126103305760209250549051908152f35b50823461020657816003193601126102065760209051601e8152f35b5082346102065760603660031901126102065761038a610c3a565b60443592600160a060020a03841684036103b857506020926103af9160243590610c50565b90519015158152f35b80fd5b5082346102065781600319360112610206576020906005549051908152f35b508083916003193601126103b85760015492601e8401809411610424575061040e6020934211610409816110bf565b6110bf565b42600155549051600160a060020a039091168152f35b60e060020a634e487b7102825260119052602490fd5b5082346102065781600319360112610206576020906003549051908152f35b50806003193601126103b857805481600160a060020a03821661047d33821461111f565b60008051602061116c8339815191528280a3600160a060020a031916815580f35b50903461020657602091826003193601126103b8578135906001604060020a0382116103b85750906104d66101ec92369083016109e7565b84516105876105818351928781818701956104f2818389610b5f565b810160098152030190209461056f60018a518a81895161051381838c610b5f565b81016009815203019020019860028b5182818a5161053281838d610b5f565b8101600981520301902001549560038c5183818b51610552818388610b5f565b810160098152030190200154978c51938492839251928391610b5f565b81016009815203019020015494610aba565b95610aba565b955195869586610c00565b508290346103b85760203660031901126103b857823590600a548210156103b857506105c06101ec91610be1565b50916105cb83610aba565b926105d860018201610aba565b946002820154906003830154920154925195869586610c00565b5082346102065760e0366003190112610206576001604060020a039083358281116107165761062490369086016109e7565b9080519260e0840190848210908211176107005760206106979381846106889488965282865260243582870152604435818701526064356060870152608435608087015260a43560a087015260c43560c08701525193828580945193849201610b5f565b81016007815203019020610cd8565b600854604060020a8110156106ea578060016106b69201600855610a42565b6106d557906106c491610cd8565b6106cf600354610e34565b60035580f35b60e060020a634e487b71028352828452602483fd5b60e060020a634e487b7102835260418452602483fd5b60e060020a634e487b7102855260418652602485fd5b8380fd5b5091903461033057602092836003193601126103b8578135906001604060020a0382116103b85750906107536101ec92369083016109e7565b835181519286830193610767818487610b5f565b82019187816007948581520301902093610839600661082860018a518c818a5161079281838b610b5f565b81018a81520301902001549a60028b5182818b516107b181838c610b5f565b81018b81520301902001549460038c5183818c516107d0818388610b5f565b81018c8152030190200154968c5183818c516107ed818388610b5f565b81018c81520301902001549760058d5184818d5161080c818389610b5f565b8101858152030190200154998d51948593849251928391610b5f565b820190815203019020015495610aba565b965197889788610ba7565b508290346103b85760203660031901126103b8578235906008548210156103b857506108726101ec91610a42565b509161087d83610aba565b926001810154946002820154906003830154908301549160066005850154940154945197889788610ba7565b5082346102065760a0366003190112610206576001604060020a03908335828111610716576108db90369086016109e7565b906024358381116109a6576108f390369087016109e7565b81519360a085019081118582101761099057610952936020846109439482948997528387528287015260443581870152606435606087015260843560808701525193828580945193849201610b5f565b81016009815203019020610e5d565b600a54604060020a8110156106ea578060016109719201600a55610be1565b6106d5579061097f91610e5d565b61098a600554610e34565b60055580f35b60e060020a634e487b7102865260418752602486fd5b8480fd5b601f909101601f19168101906001604060020a038211908210176109cd57604052565b60e060020a634e487b710260009081526041600452602490fd5b81601f82011215610a3d578035906001604060020a0382116109cd5760405192610a1b601f8401601f1916602001856109aa565b82845260208383010111610a3d57816000926020809301838601378301015290565b600080fd5b600854811015610a615760086000526007602060002091020190600090565b60e060020a634e487b710260009081526032600452602490fd5b9060016002830492168015610ab0575b6020831014610a9657565b60e060020a634e487b710260009081526022600452602490fd5b91607f1691610a8b565b9060405191826000825492610ace84610a7b565b908184526001948581169081600014610b3d5750600114610afa575b5050610af8925003836109aa565b565b9093915060005260209081600020936000915b818310610b25575050610af893508201013880610aea565b85548884018501529485019487945091830191610b0d565b915050610af894506020925060ff191682840152151581028201013880610aea565b60005b838110610b725750506000910152565b8181015183820152602001610b62565b90602091610b9b81518092818552858086019101610b5f565b601f01601f1916010190565b939092610bc360c096939998979460e0875260e0870190610b82565b98602086015260408501526060840152608083015260a08201520152565b600a54811015610a6157600a6000526005602060002091020190600090565b91610c2b90610c1d6080959897969360a0865260a0860190610b82565b908482036020860152610b82565b95604083015260608201520152565b60043590600160a060020a0382168203610a3d57565b919091600160a060020a039081600093168352600660205260408320805490858210610ccf57858203918211610cb85755168152600660205260408120908154928301809311610ca1575055600190565b60e060020a634e487b710281526011600452602490fd5b60e060020a634e487b710285526011600452602485fd5b50505050905090565b81518051919291906001604060020a0382116109cd57610cf88454610a7b565b601f8111610deb575b50602090601f8311600114610d7c5791806006949260c094600092610d71575b5050816002029160080260020a6000190419161784555b6020810151600185015560408101516002850155606081015160038501556080810151600485015560a081015160058501550151910155565b015190503880610d21565b90601f1983169185600052816000209260005b818110610dd3575093600695936001936002938360c09810610db8575b50505002018455610d38565b01516008601f841602840a6000190419169055388080610dac565b92936020600181928786015181550195019301610d8f565b6000858152602081206020601f86010481019260208610610e2a575b601f602091010401915b828110610e1f575050610d01565b818155600101610e11565b9092508290610e07565b6000198114610e435760010190565b60e060020a634e487b710260009081526011600452602490fd5b815180519192916001604060020a03908181116109cd5780610e7f8654610a7b565b93601f9485811161106c575b5060209085831160011461100557600092610ffa575b5050816002029160080260020a6000190419161784555b6001918285019260208501519081519384116109cd57610ed88554610a7b565b838111610fb0575b50602092808511600114610f3f57505091806080949260049694600092610f34575b5050816002029160080260020a6000190419161790555b60408101516002850155606081015160038501550151910155565b015190503880610f02565b909392601f1984169286600052816000209360005b818110610f9a57509285926004999795926080999760029610610f7f575b5050505002019055610f19565b0151908316600802840a600019041916905538808080610f72565b8284015186559487019460209384019301610f54565b8560005260206000208460208188010482019260208810610ff0575b6020910104019082905b828110610fe4575050610ee0565b60008155018290610fd6565b9192508291610fcc565b015190503880610ea1565b60008881528281209350601f198516905b8181106110545750916002939185600196941061103a575b50505002018455610eb8565b0151600883881602840a600019041916905538808061102e565b92936020600181928786015181550195019301611016565b90915060008781526020812086602081870104820193602087106110b5575b869594939291602091010401915b8281106110a7575050610e8b565b818155859450600101611099565b919350839161108b565b156110c657565b60405160e560020a62461bcd0281526020600482015260106024820152608160020a6f3930ba32903634b6b4ba1032b93937b9026044820152606490fd5b600160a060020a039091168152602081019190915260400190565b1561112657565b60405160e560020a62461bcd0281526020600482015260176024820152604960020a7630b1b1b2b9b9903232b734b2b2103337b91037bbb732b9026044820152606490fdfe8be0079c531659141344cd1fd0a4f28419497f9722a3daafe3b4186f6b6457e0a2646970667358221220433e2d26f9ccb7b83fb64fd0f564049bf96a24f3d9b2186e1840176bf05c50a864736f6c63430008120033",
  "immutableReferences": {},
  "source": "// SPDX-License-Identifier: CC-BY-4.0\r\npragma solidity >=0.4.22 <0.9.0;\r\n\r\n// See https://github.com/soniaRbii/Agri-Trade and\r\n// https://github.com/VivekSJ292018/Atmanirbharinnovation/tree/master/App/app for DAPP\r\n\r\nimport \"../common/Version.sol\";\r\nimport \"../common/Frozen.sol\";\r\n\r\ncontract AgriTrade is Version, Owned {\r\n\r\n    uint256 public s = 1;\r\n    uint256 public c;\r\n    uint256 public t=1;\r\n    mapping (address => uint) balances;\r\n\r\n    function fundaddr(address addr) external {\r\n        balances[addr] = 2000;\r\n    }\r\n\r\n    function sendCoin(address receiver, uint amount, address sender)\r\n        external\r\n        returns(bool sufficient)\r\n    {\r\n        if (balances[sender] < amount) {\r\n            return false;\r\n        }\r\n\r\n        balances[sender] -= amount;\r\n        balances[receiver] += amount;\r\n\r\n        return true;\r\n    }\r\n\r\n    function getBalance(address addr)\r\n        external\r\n        view\r\n        returns(uint)\r\n    {\r\n        return balances[addr];\r\n    }\r\n\r\n    struct farmer {\r\n        bytes fid;\r\n        bytes32 fname;\r\n        bytes32 loc;\r\n        bytes32 crop;\r\n        uint256 contact;\r\n        uint quantity;\r\n        uint exprice;\r\n    }\r\n\r\n    struct lot {\r\n        bytes lotno;\r\n        bytes grade;\r\n        uint mrp;\r\n        bytes32 testdate;\r\n        bytes32 expdate;\r\n    }\r\n\r\n    mapping (bytes => farmer) f1;\r\n    farmer[] public fm;\r\n\r\n    mapping (bytes => lot) l1;\r\n    lot[] public l;\r\n\r\n    function produce(bytes memory id, bytes32 name, bytes32 loc, bytes32 cr, uint256 con, uint q, uint pr)\r\n        external\r\n    {\r\n        AgriTrade.farmer memory fnew = farmer(id,name,loc,cr,con,q,pr);\r\n        f1[id] = fnew;\r\n        fm.push(fnew);\r\n        s++;\r\n    }\r\n\r\n    function getproduce(bytes memory j)\r\n        external\r\n        view\r\n        returns(bytes memory,bytes32,bytes32,bytes32,uint256,uint,uint)\r\n    {\r\n        return (f1[j].fid,f1[j].fname,f1[j].loc,f1[j].crop,f1[j].contact,f1[j].quantity,f1[j].exprice);\r\n    }\r\n\r\n    function quality(bytes memory ll, bytes memory g, uint256 p, bytes32 tt, bytes32 e)\r\n        external\r\n    {\r\n        AgriTrade.lot memory lnew = lot(ll,g,p,tt,e);\r\n        l1[ll] = lnew;\r\n        l.push(lnew);\r\n        t++;\r\n    }\r\n\r\n    function getquality(bytes memory k)\r\n        external\r\n        view\r\n        returns(bytes memory,bytes memory,uint,bytes32,bytes32)\r\n    {\r\n        return(l1[k].lotno,l1[k].grade,l1[k].mrp,l1[k].testdate,l1[k].expdate);\r\n    }\r\n}",
  "sourcePath": "/Volumes/HOME/pingleware-contracts/contracts/agriculture/AgriTrade.sol",
  "compiler": {
    "name": "solc",
    "version": "0.8.18+commit.87f61d96.Emscripten.clang"
  },
  "schemaVersion": "3.4.12",
  "updatedAt": "2024-05-23T18:56:24.850Z",
  "devdoc": {
    "kind": "dev",
    "methods": {
      "renounceOwnership()": {
        "details": "Leaves the contract without owner. It will not be possible to call `onlyOwner` functions anymore. Can only be called by the current owner. NOTE: Renouncing ownership will leave the contract without an owner, thereby removing any functionality that is only available to the owner."
      },
      "transferOwnership(address)": {
        "details": "Transfers ownership of the contract to a new account (`newOwner`). Can only be called by the current owner."
      }
    },
    "version": 1
  },
  "userdoc": {
    "kind": "user",
    "methods": {},
    "version": 1
  }
}