{
  "contractName": "AircraftOwnership",
  "abi": [
    {
      "inputs": [],
      "stateMutability": "nonpayable",
      "type": "constructor"
    },
    {
      "anonymous": false,
      "inputs": [
        {
          "indexed": false,
          "internalType": "address",
          "name": "sender",
          "type": "address"
        },
        {
          "indexed": false,
          "internalType": "address",
          "name": "recipient",
          "type": "address"
        }
      ],
      "name": "Destroyed",
      "type": "event"
    },
    {
      "anonymous": false,
      "inputs": [
        {
          "indexed": false,
          "internalType": "address",
          "name": "sender",
          "type": "address"
        },
        {
          "indexed": false,
          "internalType": "uint256",
          "name": "amount",
          "type": "uint256"
        }
      ],
      "name": "FallbackEvent",
      "type": "event"
    },
    {
      "anonymous": false,
      "inputs": [
        {
          "indexed": true,
          "internalType": "address",
          "name": "previousOwner",
          "type": "address"
        },
        {
          "indexed": true,
          "internalType": "address",
          "name": "newOwner",
          "type": "address"
        }
      ],
      "name": "OwnershipTransferred",
      "type": "event"
    },
    {
      "anonymous": false,
      "inputs": [
        {
          "indexed": false,
          "internalType": "address",
          "name": "sender",
          "type": "address"
        },
        {
          "indexed": false,
          "internalType": "uint256",
          "name": "amount",
          "type": "uint256"
        }
      ],
      "name": "ReceiveEvent",
      "type": "event"
    },
    {
      "anonymous": false,
      "inputs": [
        {
          "indexed": false,
          "internalType": "address",
          "name": "sender",
          "type": "address"
        },
        {
          "indexed": false,
          "internalType": "bytes",
          "name": "reason",
          "type": "bytes"
        }
      ],
      "name": "Started",
      "type": "event"
    },
    {
      "anonymous": false,
      "inputs": [
        {
          "indexed": false,
          "internalType": "address",
          "name": "sender",
          "type": "address"
        },
        {
          "indexed": false,
          "internalType": "bytes",
          "name": "reason",
          "type": "bytes"
        }
      ],
      "name": "Stopped",
      "type": "event"
    },
    {
      "anonymous": false,
      "inputs": [
        {
          "indexed": false,
          "internalType": "address",
          "name": "sender",
          "type": "address"
        },
        {
          "indexed": false,
          "internalType": "string",
          "name": "reason",
          "type": "string"
        }
      ],
      "name": "Termination",
      "type": "event"
    },
    {
      "anonymous": false,
      "inputs": [
        {
          "indexed": false,
          "internalType": "address",
          "name": "sender",
          "type": "address"
        },
        {
          "indexed": false,
          "internalType": "address",
          "name": "receiver",
          "type": "address"
        },
        {
          "indexed": false,
          "internalType": "uint256",
          "name": "amount",
          "type": "uint256"
        }
      ],
      "name": "Transfer",
      "type": "event"
    },
    {
      "stateMutability": "payable",
      "type": "fallback",
      "payable": true
    },
    {
      "inputs": [],
      "name": "VERSION",
      "outputs": [
        {
          "internalType": "string",
          "name": "",
          "type": "string"
        }
      ],
      "stateMutability": "view",
      "type": "function",
      "constant": true
    },
    {
      "inputs": [],
      "name": "WAIT",
      "outputs": [
        {
          "internalType": "uint256",
          "name": "",
          "type": "uint256"
        }
      ],
      "stateMutability": "view",
      "type": "function",
      "constant": true
    },
    {
      "inputs": [],
      "name": "decimals",
      "outputs": [
        {
          "internalType": "uint256",
          "name": "",
          "type": "uint256"
        }
      ],
      "stateMutability": "view",
      "type": "function",
      "constant": true
    },
    {
      "inputs": [],
      "name": "destroy",
      "outputs": [],
      "stateMutability": "nonpayable",
      "type": "function"
    },
    {
      "inputs": [
        {
          "internalType": "address",
          "name": "_recipient",
          "type": "address"
        }
      ],
      "name": "destroyAndSend",
      "outputs": [],
      "stateMutability": "nonpayable",
      "type": "function"
    },
    {
      "inputs": [],
      "name": "getOwner",
      "outputs": [
        {
          "internalType": "address",
          "name": "",
          "type": "address"
        }
      ],
      "stateMutability": "payable",
      "type": "function",
      "payable": true
    },
    {
      "inputs": [],
      "name": "name",
      "outputs": [
        {
          "internalType": "string",
          "name": "",
          "type": "string"
        }
      ],
      "stateMutability": "view",
      "type": "function",
      "constant": true
    },
    {
      "inputs": [
        {
          "internalType": "address",
          "name": "",
          "type": "address"
        }
      ],
      "name": "owners",
      "outputs": [
        {
          "internalType": "uint256",
          "name": "",
          "type": "uint256"
        }
      ],
      "stateMutability": "view",
      "type": "function",
      "constant": true
    },
    {
      "inputs": [],
      "name": "renounceOwnership",
      "outputs": [],
      "stateMutability": "payable",
      "type": "function",
      "payable": true
    },
    {
      "inputs": [],
      "name": "symbol",
      "outputs": [
        {
          "internalType": "string",
          "name": "",
          "type": "string"
        }
      ],
      "stateMutability": "view",
      "type": "function",
      "constant": true
    },
    {
      "inputs": [],
      "name": "totalSupply",
      "outputs": [
        {
          "internalType": "uint256",
          "name": "",
          "type": "uint256"
        }
      ],
      "stateMutability": "view",
      "type": "function",
      "constant": true
    },
    {
      "inputs": [
        {
          "internalType": "address",
          "name": "newOwner",
          "type": "address"
        }
      ],
      "name": "transferOwnership",
      "outputs": [],
      "stateMutability": "payable",
      "type": "function",
      "payable": true
    },
    {
      "stateMutability": "payable",
      "type": "receive",
      "payable": true
    },
    {
      "inputs": [
        {
          "internalType": "address",
          "name": "to",
          "type": "address"
        },
        {
          "internalType": "uint256",
          "name": "tokens",
          "type": "uint256"
        }
      ],
      "name": "transfer",
      "outputs": [
        {
          "internalType": "bool",
          "name": "success",
          "type": "bool"
        }
      ],
      "stateMutability": "nonpayable",
      "type": "function"
    },
    {
      "inputs": [
        {
          "internalType": "address",
          "name": "from",
          "type": "address"
        },
        {
          "internalType": "address",
          "name": "to",
          "type": "address"
        },
        {
          "internalType": "uint256",
          "name": "tokens",
          "type": "uint256"
        }
      ],
      "name": "transferFrom",
      "outputs": [
        {
          "internalType": "bool",
          "name": "success",
          "type": "bool"
        }
      ],
      "stateMutability": "nonpayable",
      "type": "function"
    },
    {
      "inputs": [],
      "name": "getOwnership",
      "outputs": [
        {
          "internalType": "uint256",
          "name": "",
          "type": "uint256"
        }
      ],
      "stateMutability": "view",
      "type": "function",
      "constant": true
    }
  ],
  "bytecode": "0x608060405260006001556003805460ff1916905534801561001f57600080fd5b5060008054600160a060020a031916339081178255426001556040519091907f8be0079c531659141344cd1fd0a4f28419497f9722a3daafe3b4186f6b6457e0908290a333600090815260066020526040902060649055610dfc806100856000396000f3fe6080604052600436106100bf5760e060020a6000350463022914a7811461018657806306fdde03146101c657806318160ddd146101e857806323b872dd146101fd578063313ce5671461022d578063715018a61461024257806383197ef01461024c578063893d20e81461026157806395d89b4114610281578063a9059cbb14610296578063aacd7321146102b6578063b8fb3a51146102cb578063f2fde38b146102e0578063f5074f41146102f3578063ffa1ad7414610313576100ff565b366100ff577fcc85d09d309785db93d6df19917f2e6cc07fe27cd01c08c8279145deb5cf452633346040516100f5929190610a7f565b60405180910390a1005b3233146101555760405160e560020a62461bcd0281526020600482015260196024820152603860020a787068697368696e672061747461636b2064657465637465643f0260448201526064015b60405180910390fd5b7f26875833861a2b006512a11f1b86edf95df96131040f3caeed72989ee985808333346040516100f5929190610a7f565b34801561019257600080fd5b506101b36101a1366004610ab4565b60066020526000908152604090205481565b6040519081526020015b60405180910390f35b3480156101d257600080fd5b506101db61034c565b6040516101bd9190610ad6565b3480156101f457600080fd5b506101b3600181565b34801561020957600080fd5b5061021d610218366004610b24565b6103da565b60405190151581526020016101bd565b34801561023957600080fd5b506101b3600081565b61024a61058a565b005b34801561025857600080fd5b5061024a6105ef565b61026961064c565b604051600160a060020a0390911681526020016101bd565b34801561028d57600080fd5b506101db6106c2565b3480156102a257600080fd5b5061021d6102b1366004610b60565b6106cf565b3480156102c257600080fd5b506101b3610838565b3480156102d757600080fd5b506101b3601e81565b61024a6102ee366004610ab4565b61087f565b3480156102ff57600080fd5b5061024a61030e366004610ab4565b610960565b34801561031f57600080fd5b506101db6040518060400160405280600a815260200160b060020a69312e362e342d626574610281525081565b6005805461035990610b8a565b80601f016020809104026020016040519081016040528092919081815260200182805461038590610b8a565b80156103d25780601f106103a7576101008083540402835291602001916103d2565b820191906000526020600020905b8154815290600101906020018083116103b557829003601f168201915b505050505081565b600160a060020a03831660009081526006602052604081205484906104145760405160e560020a62461bcd02815260040161014c90610bc8565b600160a060020a03841661043d5760405160e560020a62461bcd02815260040161014c90610bf1565b600160a060020a0385166104665760405160e560020a62461bcd02815260040161014c90610bf1565b600083116104ac5760405160e560020a62461bcd02815260206004820152600d6024820152609860020a6c496e76616c69642076616c756502604482015260640161014c565b600160a060020a0385166000908152600660205260409020548311156104e75760405160e560020a62461bcd02815260040161014c90610c1a565b600160a060020a03851660009081526006602052604090205461050a90846109b7565b600160a060020a0380871660009081526006602052604080822093909355908616815220546105399084610a27565b600160a060020a038516600090815260066020526040908190209190915551600080516020610da78339815191529061057790879087908790610c6b565b60405180910390a1506001949350505050565b600054600160a060020a031633146105b75760405160e560020a62461bcd02815260040161014c90610c8f565b60008054604051600160a060020a0390911690600080516020610d87833981519152908390a360008054600160a060020a0319169055565b600054600160a060020a0316331461061c5760405160e560020a62461bcd02815260040161014c90610cc3565b600080516020610d678339815191523361063461064c565b604051610642929190610cfa565b60405180910390a1565b6000601e60015461065d9190610d14565b421161067e5760405160e560020a62461bcd02815260040161014c90610d39565b601e60015461068d9190610d14565b42116106ae5760405160e560020a62461bcd02815260040161014c90610d39565b5042600155600054600160a060020a031690565b6004805461035990610b8a565b336000818152600660205260408120549091906107015760405160e560020a62461bcd02815260040161014c90610bc8565b600160a060020a03841661072a5760405160e560020a62461bcd02815260040161014c90610bf1565b600083116107705760405160e560020a62461bcd02815260206004820152600d6024820152609860020a6c496e76616c69642056616c756502604482015260640161014c565b336000908152600660205260409020548311156107a25760405160e560020a62461bcd02815260040161014c90610c1a565b336000908152600660205260409020546107bc90846109b7565b3360009081526006602052604080822092909255600160a060020a038616815220546107e89084610a27565b600160a060020a038516600090815260066020526040908190209190915551600080516020610da78339815191529061082690339087908790610c6b565b60405180910390a15060019392505050565b3360008181526006602052604081205490919061086a5760405160e560020a62461bcd02815260040161014c90610bc8565b50503360009081526006602052604090205490565b600054600160a060020a031633146108ac5760405160e560020a62461bcd02815260040161014c90610c8f565b600160a060020a0381166109175760405160e560020a62461bcd02815260206004820152602660248201527f4f776e61626c653a206e6577206f776e657220697320746865207a65726f2061604482015260d060020a6564647265737302606482015260840161014c565b60008054604051600160a060020a0380851693921691600080516020610d8783398151915291a360008054600160a060020a031916600160a060020a0392909216919091179055565b600054600160a060020a0316331461098d5760405160e560020a62461bcd02815260040161014c90610cc3565b600080516020610d6783398151915233826040516109ac929190610cfa565b60405180910390a150565b600082821115610a0c5760405160e560020a62461bcd02815260206004820152601e60248201527f536166654d6174683a207375627472616374696f6e206f766572666c6f770000604482015260640161014c565b818303821984018114610a1e57600080fd5b90505b92915050565b600082820183811015610a1e5760405160e560020a62461bcd02815260206004820152601b60248201527f536166654d6174683a206164646974696f6e206f766572666c6f770000000000604482015260640161014c565b600160a060020a03929092168252602082015260400190565b8035600160a060020a0381168114610aaf57600080fd5b919050565b600060208284031215610ac657600080fd5b610acf82610a98565b9392505050565b600060208083528351808285015260005b81811015610b0357858101830151858201604001528201610ae7565b506000604082860101526040601f19601f8301168501019250505092915050565b600080600060608486031215610b3957600080fd5b610b4284610a98565b9250610b5060208501610a98565b9150604084013590509250925092565b60008060408385031215610b7357600080fd5b610b7c83610a98565b946020939093013593505050565b600281046001821680610b9e57607f821691505b602082108103610bc25760e060020a634e487b710260009081526022600452602490fd5b50919050565b6020808252600c9082015260a160020a6b3737ba1030b71037bbb732b902604082015260600190565b6020808252600c9082015260a060020a6b4e756c6c206164647265737302604082015260600190565b6020808252602e908201527f696e73756666696369656e74206f776e6572736869702070657263656e7461676040820152609160020a6d32903337b9103a3930b739b332b902606082015260800190565b600160a060020a039384168152919092166020820152604081019190915260600190565b6020808252601790820152604960020a7630b1b1b2b9b9903232b734b2b2103337b91037bbb732b902604082015260600190565b6020808252601b908201527f756e617574686f72697a65642c206e6f7420746865206f776e65720000000000604082015260600190565b600160a060020a0392831681529116602082015260400190565b80820180821115610a215760e060020a634e487b710260009081526011600452602490fd5b6020808252601090820152608160020a6f3930ba32903634b6b4ba1032b93937b90260408201526060019056fe91ca00fdf29069527d658f8dfc6d1c0bf9861780bb45ff36436f938d3595a8d68be0079c531659141344cd1fd0a4f28419497f9722a3daafe3b4186f6b6457e0ddf252ad1be2c89b69c2b068fc378daa952ba7f163c4a11628f55a4df523b3efa264697066735822122050504522a3b681955bcc5fb05e8570154662a8219987bd1a1b7b173edc611d5b64736f6c63430008120033",
  "immutableReferences": {},
  "source": "// SPDX-License-Identifier: CC-BY-4.0\r\npragma solidity >=0.4.22 <0.9.0;\r\n\r\nimport \"../common/Version.sol\";\r\nimport \"../common/Frozen.sol\";\r\nimport \"../libs/SafeMath.sol\";\r\n\r\ncontract AircraftOwnership is Version, Frozen {\r\n    string public symbol;   // The aircraft serial or N-number\r\n    string public name;     // Brand and model of aircraft\r\n    uint256 public constant totalSupply = 1;\r\n    uint256 public constant decimals = 0;\r\n\r\n    mapping (address => uint256) public owners;\r\n\r\n    event Transfer(address sender,address receiver,uint amount);\r\n\r\n    constructor() {\r\n        owners[msg.sender] = 100; // represents 100%\r\n    }\r\n\r\n    modifier isAuthorized(address wallet) {\r\n        require(owners[wallet] > 0,\"not an owner\");\r\n        _;\r\n    }\r\n\r\n    function transfer(address to, uint tokens) public isAuthorized(msg.sender) returns (bool success) {\r\n        require(to != address(0), \"Null address\");\r\n        require(tokens > 0, \"Invalid Value\"); // percentage of ownership being transferred\r\n        require(owners[msg.sender] >= tokens,\"insufficient ownership percentage for transfer\");\r\n\r\n        owners[msg.sender] = SafeMath.safeSub(owners[msg.sender], tokens);\r\n        owners[to] = SafeMath.safeAdd(owners[to], tokens);\r\n        emit Transfer(msg.sender, to, tokens);\r\n        return true;\r\n    }\r\n\r\n    function transferFrom(address from, address to, uint tokens) public isAuthorized(from) returns (bool success) {\r\n        require(to != address(0), \"Null address\");\r\n        require(from != address(0), \"Null address\");\r\n        require(tokens > 0, \"Invalid value\");\r\n        require(owners[from] >= tokens,\"insufficient ownership percentage for transfer\");\r\n\r\n        owners[from] = SafeMath.safeSub(owners[from], tokens);\r\n        owners[to] = SafeMath.safeAdd(owners[to], tokens);\r\n        emit Transfer(from, to, tokens);\r\n        return true;\r\n    }\r\n\r\n    function getOwnership() public view isAuthorized(msg.sender) returns(uint256) {\r\n        return owners[msg.sender];\r\n    }\r\n\r\n}",
  "sourcePath": "/Volumes/My Book/projects/pingleware-contracts/contracts/aviation/AircraftOwnership.sol",
  "compiler": {
    "name": "solc",
    "version": "0.8.18+commit.87f61d96.Emscripten.clang"
  },
  "schemaVersion": "3.4.12",
  "updatedAt": "2023-10-23T15:40:27.730Z",
  "networkType": "ethereum",
  "devdoc": {
    "kind": "dev",
    "methods": {
      "renounceOwnership()": {
        "details": "Leaves the contract without owner. It will not be possible to call `onlyOwner` functions anymore. Can only be called by the current owner. NOTE: Renouncing ownership will leave the contract without an owner, thereby removing any functionality that is only available to the owner."
      },
      "transferOwnership(address)": {
        "details": "Transfers ownership of the contract to a new account (`newOwner`). Can only be called by the current owner."
      }
    },
    "version": 1
  },
  "userdoc": {
    "kind": "user",
    "methods": {},
    "version": 1
  }
}