{
  "contractName": "AircraftOwnership",
  "abi": [
    {
      "inputs": [
        {
          "internalType": "string",
          "name": "aircraftBrand",
          "type": "string"
        },
        {
          "internalType": "string",
          "name": "aircraftSerial",
          "type": "string"
        }
      ],
      "stateMutability": "nonpayable",
      "type": "constructor"
    },
    {
      "anonymous": false,
      "inputs": [
        {
          "indexed": false,
          "internalType": "address",
          "name": "sender",
          "type": "address"
        },
        {
          "indexed": false,
          "internalType": "address",
          "name": "recipient",
          "type": "address"
        }
      ],
      "name": "Destroyed",
      "type": "event"
    },
    {
      "anonymous": false,
      "inputs": [
        {
          "indexed": false,
          "internalType": "address",
          "name": "sender",
          "type": "address"
        },
        {
          "indexed": false,
          "internalType": "uint256",
          "name": "amount",
          "type": "uint256"
        }
      ],
      "name": "FallbackEvent",
      "type": "event"
    },
    {
      "anonymous": false,
      "inputs": [
        {
          "indexed": true,
          "internalType": "address",
          "name": "previousOwner",
          "type": "address"
        },
        {
          "indexed": true,
          "internalType": "address",
          "name": "newOwner",
          "type": "address"
        }
      ],
      "name": "OwnershipTransferred",
      "type": "event"
    },
    {
      "anonymous": false,
      "inputs": [
        {
          "indexed": false,
          "internalType": "address",
          "name": "sender",
          "type": "address"
        },
        {
          "indexed": false,
          "internalType": "uint256",
          "name": "amount",
          "type": "uint256"
        }
      ],
      "name": "ReceiveEvent",
      "type": "event"
    },
    {
      "anonymous": false,
      "inputs": [
        {
          "indexed": false,
          "internalType": "address",
          "name": "sender",
          "type": "address"
        },
        {
          "indexed": false,
          "internalType": "bytes",
          "name": "reason",
          "type": "bytes"
        }
      ],
      "name": "Started",
      "type": "event"
    },
    {
      "anonymous": false,
      "inputs": [
        {
          "indexed": false,
          "internalType": "address",
          "name": "sender",
          "type": "address"
        },
        {
          "indexed": false,
          "internalType": "bytes",
          "name": "reason",
          "type": "bytes"
        }
      ],
      "name": "Stopped",
      "type": "event"
    },
    {
      "anonymous": false,
      "inputs": [
        {
          "indexed": false,
          "internalType": "address",
          "name": "sender",
          "type": "address"
        },
        {
          "indexed": false,
          "internalType": "string",
          "name": "reason",
          "type": "string"
        }
      ],
      "name": "Termination",
      "type": "event"
    },
    {
      "anonymous": false,
      "inputs": [
        {
          "indexed": false,
          "internalType": "address",
          "name": "sender",
          "type": "address"
        },
        {
          "indexed": false,
          "internalType": "address",
          "name": "receiver",
          "type": "address"
        },
        {
          "indexed": false,
          "internalType": "uint256",
          "name": "amount",
          "type": "uint256"
        }
      ],
      "name": "Transfer",
      "type": "event"
    },
    {
      "stateMutability": "payable",
      "type": "fallback",
      "payable": true
    },
    {
      "inputs": [],
      "name": "VERSION",
      "outputs": [
        {
          "internalType": "string",
          "name": "",
          "type": "string"
        }
      ],
      "stateMutability": "view",
      "type": "function",
      "constant": true
    },
    {
      "inputs": [],
      "name": "WAIT",
      "outputs": [
        {
          "internalType": "uint256",
          "name": "",
          "type": "uint256"
        }
      ],
      "stateMutability": "view",
      "type": "function",
      "constant": true
    },
    {
      "inputs": [
        {
          "internalType": "uint256",
          "name": "",
          "type": "uint256"
        }
      ],
      "name": "_owners",
      "outputs": [
        {
          "internalType": "address",
          "name": "",
          "type": "address"
        }
      ],
      "stateMutability": "view",
      "type": "function",
      "constant": true
    },
    {
      "inputs": [],
      "name": "decimals",
      "outputs": [
        {
          "internalType": "uint256",
          "name": "",
          "type": "uint256"
        }
      ],
      "stateMutability": "view",
      "type": "function",
      "constant": true
    },
    {
      "inputs": [],
      "name": "destroy",
      "outputs": [],
      "stateMutability": "nonpayable",
      "type": "function"
    },
    {
      "inputs": [
        {
          "internalType": "address",
          "name": "_recipient",
          "type": "address"
        }
      ],
      "name": "destroyAndSend",
      "outputs": [],
      "stateMutability": "nonpayable",
      "type": "function"
    },
    {
      "inputs": [],
      "name": "getOwner",
      "outputs": [
        {
          "internalType": "address",
          "name": "",
          "type": "address"
        }
      ],
      "stateMutability": "payable",
      "type": "function",
      "payable": true
    },
    {
      "inputs": [],
      "name": "name",
      "outputs": [
        {
          "internalType": "string",
          "name": "",
          "type": "string"
        }
      ],
      "stateMutability": "view",
      "type": "function",
      "constant": true
    },
    {
      "inputs": [
        {
          "internalType": "address",
          "name": "",
          "type": "address"
        }
      ],
      "name": "owners",
      "outputs": [
        {
          "internalType": "bool",
          "name": "",
          "type": "bool"
        }
      ],
      "stateMutability": "view",
      "type": "function",
      "constant": true
    },
    {
      "inputs": [
        {
          "internalType": "address",
          "name": "",
          "type": "address"
        }
      ],
      "name": "ownership",
      "outputs": [
        {
          "internalType": "uint256",
          "name": "",
          "type": "uint256"
        }
      ],
      "stateMutability": "view",
      "type": "function",
      "constant": true
    },
    {
      "inputs": [],
      "name": "renounceOwnership",
      "outputs": [],
      "stateMutability": "payable",
      "type": "function",
      "payable": true
    },
    {
      "inputs": [],
      "name": "symbol",
      "outputs": [
        {
          "internalType": "string",
          "name": "",
          "type": "string"
        }
      ],
      "stateMutability": "view",
      "type": "function",
      "constant": true
    },
    {
      "inputs": [],
      "name": "totalSupply",
      "outputs": [
        {
          "internalType": "uint256",
          "name": "",
          "type": "uint256"
        }
      ],
      "stateMutability": "view",
      "type": "function",
      "constant": true
    },
    {
      "inputs": [
        {
          "internalType": "address",
          "name": "newOwner",
          "type": "address"
        }
      ],
      "name": "transferOwnership",
      "outputs": [],
      "stateMutability": "payable",
      "type": "function",
      "payable": true
    },
    {
      "stateMutability": "payable",
      "type": "receive",
      "payable": true
    },
    {
      "inputs": [],
      "name": "getAircraftBrand",
      "outputs": [
        {
          "internalType": "string",
          "name": "",
          "type": "string"
        }
      ],
      "stateMutability": "view",
      "type": "function",
      "constant": true
    },
    {
      "inputs": [],
      "name": "getAircraftSerialNo",
      "outputs": [
        {
          "internalType": "string",
          "name": "",
          "type": "string"
        }
      ],
      "stateMutability": "view",
      "type": "function",
      "constant": true
    },
    {
      "inputs": [
        {
          "internalType": "address",
          "name": "to",
          "type": "address"
        },
        {
          "internalType": "uint256",
          "name": "tokens",
          "type": "uint256"
        }
      ],
      "name": "transfer",
      "outputs": [
        {
          "internalType": "bool",
          "name": "success",
          "type": "bool"
        }
      ],
      "stateMutability": "nonpayable",
      "type": "function"
    },
    {
      "inputs": [
        {
          "internalType": "address",
          "name": "from",
          "type": "address"
        },
        {
          "internalType": "address",
          "name": "to",
          "type": "address"
        },
        {
          "internalType": "uint256",
          "name": "tokens",
          "type": "uint256"
        }
      ],
      "name": "transferFrom",
      "outputs": [
        {
          "internalType": "bool",
          "name": "success",
          "type": "bool"
        }
      ],
      "stateMutability": "nonpayable",
      "type": "function"
    },
    {
      "inputs": [
        {
          "internalType": "address",
          "name": "wallet",
          "type": "address"
        }
      ],
      "name": "getOwnership",
      "outputs": [
        {
          "internalType": "uint256",
          "name": "",
          "type": "uint256"
        }
      ],
      "stateMutability": "view",
      "type": "function",
      "constant": true
    },
    {
      "inputs": [],
      "name": "getOwners",
      "outputs": [
        {
          "internalType": "address[]",
          "name": "",
          "type": "address[]"
        }
      ],
      "stateMutability": "view",
      "type": "function",
      "constant": true
    }
  ],
  "bytecode": "0x608060405260006001556003805460ff191690553480156200002057600080fd5b506040516200149f3803806200149f8339810160408190526200004391620001f2565b60008054600160a060020a031916339081178255426001556040519091907f8be0079c531659141344cd1fd0a4f28419497f9722a3daafe3b4186f6b6457e0908290a3600462000094828262000304565b506005620000a3838262000304565b5050336000818152600660209081526040808320606490556008805460018082019092557ff3f7a9fe364faab93b216da50a3214154f22a0a2b415b23a84c8169e8b636ee3018054600160a060020a03191690951790945560079091529020805460ff1916909117905550620003d6565b7f4e487b7100000000000000000000000000000000000000000000000000000000600052604160045260246000fd5b600082601f8301126200015557600080fd5b81516001604060020a038082111562000172576200017262000114565b604051601f8301601f19908116603f011681019082821181831017156200019d576200019d62000114565b81604052838152602092508683858801011115620001ba57600080fd5b600091505b83821015620001de5785820183015181830184015290820190620001bf565b600093810190920192909252949350505050565b600080604083850312156200020657600080fd5b82516001604060020a03808211156200021e57600080fd5b6200022c8683870162000143565b935060208501519150808211156200024357600080fd5b50620002528582860162000143565b9150509250929050565b6002810460018216806200027157607f821691505b602082108103620002ab577f4e487b7100000000000000000000000000000000000000000000000000000000600052602260045260246000fd5b50919050565b601f821115620002ff576000818152602081206020601f86010481016020861015620002da5750805b6020601f860104820191505b81811015620002fb57828155600101620002e6565b5050505b505050565b81516001604060020a0381111562000320576200032062000114565b62000338816200033184546200025c565b84620002b1565b602080601f831160018114620003745760008415620003575750858301515b60028086026008870290910a6000190419821617865550620002fb565b600085815260208120601f198616915b82811015620003a55788860151825594840194600190910190840162000384565b5085821015620003c657878501516008601f88160260020a60001904191681555b5050505050600202600101905550565b6110b980620003e66000396000f3fe6080604052600436106100f65760e060020a6000350463022914a781146101bd57806306fdde031461020257806318160ddd1461022457806323b872dd1461024757806327d6d6e0146102675780632b681a5414610294578063313ce567146102ca578063715018a6146102df57806383197ef0146102e9578063877c8476146102fe578063893d20e81461031357806395d89b4114610333578063992924a614610348578063a0e67e2b14610368578063a9059cbb1461038a578063b8fb3a51146103aa578063d1711ba1146103bf578063f2fde38b146103d4578063f5074f41146103e7578063ffa1ad741461040757610136565b36610136577fcc85d09d309785db93d6df19917f2e6cc07fe27cd01c08c8279145deb5cf4526333460405161012c929190610cb6565b60405180910390a1005b32331461018c5760405160e560020a62461bcd0281526020600482015260196024820152603860020a787068697368696e672061747461636b2064657465637465643f0260448201526064015b60405180910390fd5b7f26875833861a2b006512a11f1b86edf95df96131040f3caeed72989ee9858083333460405161012c929190610cb6565b3480156101c957600080fd5b506101ed6101d8366004610ceb565b60076020526000908152604090205460ff1681565b60405190151581526020015b60405180910390f35b34801561020e57600080fd5b50610217610440565b6040516101f99190610d0d565b34801561023057600080fd5b50610239600181565b6040519081526020016101f9565b34801561025357600080fd5b506101ed610262366004610d5b565b6104ce565b34801561027357600080fd5b50610239610282366004610ceb565b60066020526000908152604090205481565b3480156102a057600080fd5b506102396102af366004610ceb565b600160a060020a031660009081526006602052604090205490565b3480156102d657600080fd5b50610239600081565b6102e76106ad565b005b3480156102f557600080fd5b506102e7610712565b34801561030a57600080fd5b5061021761076f565b61031b610801565b604051600160a060020a0390911681526020016101f9565b34801561033f57600080fd5b50610217610877565b34801561035457600080fd5b5061031b610363366004610d97565b610884565b34801561037457600080fd5b5061037d6108ae565b6040516101f99190610db0565b34801561039657600080fd5b506101ed6103a5366004610dfd565b61090f565b3480156103b657600080fd5b50610239601e81565b3480156103cb57600080fd5b50610217610aa7565b6102e76103e2366004610ceb565b610ab6565b3480156103f357600080fd5b506102e7610402366004610ceb565b610b97565b34801561041357600080fd5b506102176040518060400160405280600a815260200160b060020a69312e362e342d626574610281525081565b6005805461044d90610e27565b80601f016020809104026020016040519081016040528092919081815260200182805461047990610e27565b80156104c65780601f1061049b576101008083540402835291602001916104c6565b820191906000526020600020905b8154815290600101906020018083116104a957829003601f168201915b505050505081565b600160a060020a038316600090815260076020526040812054849060ff1661050b5760405160e560020a62461bcd02815260040161018390610e65565b600160a060020a0384166105345760405160e560020a62461bcd02815260040161018390610e8e565b600160a060020a03851661055d5760405160e560020a62461bcd02815260040161018390610e8e565b600083116105a35760405160e560020a62461bcd02815260206004820152600d6024820152609860020a6c496e76616c69642076616c7565026044820152606401610183565b600160a060020a0385166000908152600660205260409020548311156105de5760405160e560020a62461bcd02815260040161018390610eb7565b600160a060020a0385166000908152600660205260409020546106019084610bee565b600160a060020a0380871660009081526006602052604080822093909355908616815220546106309084610c5e565b600160a060020a03851660008181526006602052604080822093909355600880546001810182559152600080516020611044833981519152018054600160a060020a0319169091179055516000805160206110648339815191529061069a90879087908790610f08565b60405180910390a1506001949350505050565b600054600160a060020a031633146106da5760405160e560020a62461bcd02815260040161018390610f2c565b60008054604051600160a060020a0390911690600080516020611024833981519152908390a360008054600160a060020a0319169055565b600054600160a060020a0316331461073f5760405160e560020a62461bcd02815260040161018390610f60565b60008051602061100483398151915233610757610801565b604051610765929190610f97565b60405180910390a1565b60606004805461077e90610e27565b80601f01602080910402602001604051908101604052809291908181526020018280546107aa90610e27565b80156107f75780601f106107cc576101008083540402835291602001916107f7565b820191906000526020600020905b8154815290600101906020018083116107da57829003601f168201915b5050505050905090565b6000601e6001546108129190610fb1565b42116108335760405160e560020a62461bcd02815260040161018390610fd6565b601e6001546108429190610fb1565b42116108635760405160e560020a62461bcd02815260040161018390610fd6565b5042600155600054600160a060020a031690565b6004805461044d90610e27565b6008818154811061089457600080fd5b600091825260209091200154600160a060020a0316905081565b606060088054806020026020016040519081016040528092919081815260200182805480156107f757602002820191906000526020600020905b8154600160a060020a031681526001909101906020018083116108e8575050505050905090565b3360008181526007602052604081205490919060ff166109445760405160e560020a62461bcd02815260040161018390610e65565b600160a060020a03841661096d5760405160e560020a62461bcd02815260040161018390610e8e565b600083116109b35760405160e560020a62461bcd02815260206004820152600d6024820152609860020a6c496e76616c69642056616c7565026044820152606401610183565b336000908152600660205260409020548311156109e55760405160e560020a62461bcd02815260040161018390610eb7565b336000908152600660205260409020546109ff9084610bee565b3360009081526006602052604080822092909255600160a060020a03861681522054610a2b9084610c5e565b600160a060020a03851660008181526006602052604080822093909355600880546001810182559152600080516020611044833981519152018054600160a060020a03191690911790555160008051602061106483398151915290610a9590339087908790610f08565b60405180910390a15060019392505050565b60606005805461077e90610e27565b600054600160a060020a03163314610ae35760405160e560020a62461bcd02815260040161018390610f2c565b600160a060020a038116610b4e5760405160e560020a62461bcd02815260206004820152602660248201527f4f776e61626c653a206e6577206f776e657220697320746865207a65726f2061604482015260d060020a65646472657373026064820152608401610183565b60008054604051600160a060020a038085169392169160008051602061102483398151915291a360008054600160a060020a031916600160a060020a0392909216919091179055565b600054600160a060020a03163314610bc45760405160e560020a62461bcd02815260040161018390610f60565b6000805160206110048339815191523382604051610be3929190610f97565b60405180910390a150565b600082821115610c435760405160e560020a62461bcd02815260206004820152601e60248201527f536166654d6174683a207375627472616374696f6e206f766572666c6f7700006044820152606401610183565b818303821984018114610c5557600080fd5b90505b92915050565b600082820183811015610c555760405160e560020a62461bcd02815260206004820152601b60248201527f536166654d6174683a206164646974696f6e206f766572666c6f7700000000006044820152606401610183565b600160a060020a03929092168252602082015260400190565b8035600160a060020a0381168114610ce657600080fd5b919050565b600060208284031215610cfd57600080fd5b610d0682610ccf565b9392505050565b600060208083528351808285015260005b81811015610d3a57858101830151858201604001528201610d1e565b506000604082860101526040601f19601f8301168501019250505092915050565b600080600060608486031215610d7057600080fd5b610d7984610ccf565b9250610d8760208501610ccf565b9150604084013590509250925092565b600060208284031215610da957600080fd5b5035919050565b6020808252825182820181905260009190848201906040850190845b81811015610df1578351600160a060020a031683529284019291840191600101610dcc565b50909695505050505050565b60008060408385031215610e1057600080fd5b610e1983610ccf565b946020939093013593505050565b600281046001821680610e3b57607f821691505b602082108103610e5f5760e060020a634e487b710260009081526022600452602490fd5b50919050565b6020808252600c9082015260a160020a6b3737ba1030b71037bbb732b902604082015260600190565b6020808252600c9082015260a060020a6b4e756c6c206164647265737302604082015260600190565b6020808252602e908201527f696e73756666696369656e74206f776e6572736869702070657263656e7461676040820152609160020a6d32903337b9103a3930b739b332b902606082015260800190565b600160a060020a039384168152919092166020820152604081019190915260600190565b6020808252601790820152604960020a7630b1b1b2b9b9903232b734b2b2103337b91037bbb732b902604082015260600190565b6020808252601b908201527f756e617574686f72697a65642c206e6f7420746865206f776e65720000000000604082015260600190565b600160a060020a0392831681529116602082015260400190565b80820180821115610c585760e060020a634e487b710260009081526011600452602490fd5b6020808252601090820152608160020a6f3930ba32903634b6b4ba1032b93937b90260408201526060019056fe91ca00fdf29069527d658f8dfc6d1c0bf9861780bb45ff36436f938d3595a8d68be0079c531659141344cd1fd0a4f28419497f9722a3daafe3b4186f6b6457e0f3f7a9fe364faab93b216da50a3214154f22a0a2b415b23a84c8169e8b636ee3ddf252ad1be2c89b69c2b068fc378daa952ba7f163c4a11628f55a4df523b3efa26469706673582212204267876d55fb210ed363bca4bcd9f879fd7ea09ad1d8221137bf81110a2d95dc64736f6c63430008120033",
  "immutableReferences": {},
  "source": "// SPDX-License-Identifier: CC-BY-4.0\r\npragma solidity >=0.4.22 <0.9.0;\r\n\r\nimport \"../common/Version.sol\";\r\nimport \"../common/Frozen.sol\";\r\nimport \"../libs/SafeMath.sol\";\r\n\r\ncontract AircraftOwnership is Version, Frozen {\r\n    string public symbol;   // The aircraft serial or N-number\r\n    string public name;     // Brand and model of aircraft\r\n    uint256 public constant totalSupply = 1;\r\n    uint256 public constant decimals = 0;\r\n\r\n    mapping (address => uint256) public ownership;\r\n    mapping (address => bool) public owners;\r\n    address[] public _owners;\r\n\r\n    event Transfer(address sender,address receiver,uint amount);\r\n\r\n    constructor(string memory aircraftBrand,string memory aircraftSerial) {\r\n        symbol = aircraftSerial;\r\n        name = aircraftBrand;\r\n        ownership[msg.sender] = 100; // represents 100%\r\n        _owners.push(msg.sender);\r\n        owners[msg.sender] = true;\r\n    }\r\n\r\n    modifier isAuthorized(address wallet) {\r\n        require(owners[wallet],\"not an owner\");\r\n        _;\r\n    }\r\n\r\n    function getAircraftBrand() external view returns (string memory) {\r\n        return name;\r\n    }\r\n\r\n    function getAircraftSerialNo() external view returns (string memory) {\r\n        return symbol;\r\n    }\r\n\r\n    function transfer(address to, uint tokens) public isAuthorized(msg.sender) returns (bool success) {\r\n        require(to != address(0), \"Null address\");\r\n        require(tokens > 0, \"Invalid Value\"); // percentage of ownership being transferred\r\n        require(ownership[msg.sender] >= tokens,\"insufficient ownership percentage for transfer\");\r\n\r\n        ownership[msg.sender] = SafeMath.safeSub(ownership[msg.sender], tokens);\r\n        ownership[to] = SafeMath.safeAdd(ownership[to], tokens);\r\n        _owners.push(to);\r\n        emit Transfer(msg.sender, to, tokens);\r\n        return true;\r\n    }\r\n\r\n    function transferFrom(address from, address to, uint tokens) public isAuthorized(from) returns (bool success) {\r\n        require(to != address(0), \"Null address\");\r\n        require(from != address(0), \"Null address\");\r\n        require(tokens > 0, \"Invalid value\");\r\n        require(ownership[from] >= tokens,\"insufficient ownership percentage for transfer\");\r\n\r\n        ownership[from] = SafeMath.safeSub(ownership[from], tokens);\r\n        ownership[to] = SafeMath.safeAdd(ownership[to], tokens);\r\n        _owners.push(to);\r\n        emit Transfer(from, to, tokens);\r\n        return true;\r\n    }\r\n\r\n    function getOwnership(address wallet) external view returns(uint256) {\r\n        return ownership[wallet];\r\n    }\r\n\r\n    function getOwners() external view returns (address[] memory) {\r\n        return _owners;\r\n    }\r\n}",
  "sourcePath": "/Volumes/My Book/projects/pingleware-contracts/contracts/aviation/AircraftOwnership.sol",
  "compiler": {
    "name": "solc",
    "version": "0.8.18+commit.87f61d96.Emscripten.clang"
  },
  "schemaVersion": "3.4.12",
  "updatedAt": "2023-10-24T23:33:40.967Z",
  "networkType": "ethereum",
  "devdoc": {
    "kind": "dev",
    "methods": {
      "renounceOwnership()": {
        "details": "Leaves the contract without owner. It will not be possible to call `onlyOwner` functions anymore. Can only be called by the current owner. NOTE: Renouncing ownership will leave the contract without an owner, thereby removing any functionality that is only available to the owner."
      },
      "transferOwnership(address)": {
        "details": "Transfers ownership of the contract to a new account (`newOwner`). Can only be called by the current owner."
      }
    },
    "version": 1
  },
  "userdoc": {
    "kind": "user",
    "methods": {},
    "version": 1
  }
}