{
  "contractName": "AircraftOwnership",
  "abi": [
    {
      "inputs": [
        {
          "internalType": "string",
          "name": "aircraftBrand",
          "type": "string"
        },
        {
          "internalType": "string",
          "name": "aircraftSerial",
          "type": "string"
        }
      ],
      "stateMutability": "nonpayable",
      "type": "constructor"
    },
    {
      "anonymous": false,
      "inputs": [
        {
          "indexed": false,
          "internalType": "address",
          "name": "sender",
          "type": "address"
        },
        {
          "indexed": false,
          "internalType": "address",
          "name": "recipient",
          "type": "address"
        }
      ],
      "name": "Destroyed",
      "type": "event"
    },
    {
      "anonymous": false,
      "inputs": [
        {
          "indexed": false,
          "internalType": "address",
          "name": "sender",
          "type": "address"
        },
        {
          "indexed": false,
          "internalType": "uint256",
          "name": "amount",
          "type": "uint256"
        }
      ],
      "name": "FallbackEvent",
      "type": "event"
    },
    {
      "anonymous": false,
      "inputs": [
        {
          "indexed": true,
          "internalType": "address",
          "name": "previousOwner",
          "type": "address"
        },
        {
          "indexed": true,
          "internalType": "address",
          "name": "newOwner",
          "type": "address"
        }
      ],
      "name": "OwnershipTransferred",
      "type": "event"
    },
    {
      "anonymous": false,
      "inputs": [
        {
          "indexed": false,
          "internalType": "address",
          "name": "sender",
          "type": "address"
        },
        {
          "indexed": false,
          "internalType": "uint256",
          "name": "amount",
          "type": "uint256"
        }
      ],
      "name": "ReceiveEvent",
      "type": "event"
    },
    {
      "anonymous": false,
      "inputs": [
        {
          "indexed": false,
          "internalType": "address",
          "name": "sender",
          "type": "address"
        },
        {
          "indexed": false,
          "internalType": "bytes",
          "name": "reason",
          "type": "bytes"
        }
      ],
      "name": "Started",
      "type": "event"
    },
    {
      "anonymous": false,
      "inputs": [
        {
          "indexed": false,
          "internalType": "address",
          "name": "sender",
          "type": "address"
        },
        {
          "indexed": false,
          "internalType": "bytes",
          "name": "reason",
          "type": "bytes"
        }
      ],
      "name": "Stopped",
      "type": "event"
    },
    {
      "anonymous": false,
      "inputs": [
        {
          "indexed": false,
          "internalType": "address",
          "name": "sender",
          "type": "address"
        },
        {
          "indexed": false,
          "internalType": "string",
          "name": "reason",
          "type": "string"
        }
      ],
      "name": "Termination",
      "type": "event"
    },
    {
      "anonymous": false,
      "inputs": [
        {
          "indexed": false,
          "internalType": "address",
          "name": "sender",
          "type": "address"
        },
        {
          "indexed": false,
          "internalType": "address",
          "name": "receiver",
          "type": "address"
        },
        {
          "indexed": false,
          "internalType": "uint256",
          "name": "amount",
          "type": "uint256"
        }
      ],
      "name": "Transfer",
      "type": "event"
    },
    {
      "stateMutability": "payable",
      "type": "fallback"
    },
    {
      "inputs": [],
      "name": "VERSION",
      "outputs": [
        {
          "internalType": "string",
          "name": "",
          "type": "string"
        }
      ],
      "stateMutability": "view",
      "type": "function"
    },
    {
      "inputs": [],
      "name": "WAIT",
      "outputs": [
        {
          "internalType": "uint256",
          "name": "",
          "type": "uint256"
        }
      ],
      "stateMutability": "view",
      "type": "function"
    },
    {
      "inputs": [
        {
          "internalType": "uint256",
          "name": "",
          "type": "uint256"
        }
      ],
      "name": "_owners",
      "outputs": [
        {
          "internalType": "address",
          "name": "",
          "type": "address"
        }
      ],
      "stateMutability": "view",
      "type": "function"
    },
    {
      "inputs": [],
      "name": "decimals",
      "outputs": [
        {
          "internalType": "uint256",
          "name": "",
          "type": "uint256"
        }
      ],
      "stateMutability": "view",
      "type": "function"
    },
    {
      "inputs": [],
      "name": "destroy",
      "outputs": [],
      "stateMutability": "nonpayable",
      "type": "function"
    },
    {
      "inputs": [
        {
          "internalType": "address",
          "name": "_recipient",
          "type": "address"
        }
      ],
      "name": "destroyAndSend",
      "outputs": [],
      "stateMutability": "nonpayable",
      "type": "function"
    },
    {
      "inputs": [],
      "name": "getOwner",
      "outputs": [
        {
          "internalType": "address",
          "name": "",
          "type": "address"
        }
      ],
      "stateMutability": "payable",
      "type": "function"
    },
    {
      "inputs": [],
      "name": "name",
      "outputs": [
        {
          "internalType": "string",
          "name": "",
          "type": "string"
        }
      ],
      "stateMutability": "view",
      "type": "function"
    },
    {
      "inputs": [
        {
          "internalType": "address",
          "name": "",
          "type": "address"
        }
      ],
      "name": "owners",
      "outputs": [
        {
          "internalType": "bool",
          "name": "",
          "type": "bool"
        }
      ],
      "stateMutability": "view",
      "type": "function"
    },
    {
      "inputs": [
        {
          "internalType": "address",
          "name": "",
          "type": "address"
        }
      ],
      "name": "ownership",
      "outputs": [
        {
          "internalType": "uint256",
          "name": "",
          "type": "uint256"
        }
      ],
      "stateMutability": "view",
      "type": "function"
    },
    {
      "inputs": [],
      "name": "renounceOwnership",
      "outputs": [],
      "stateMutability": "payable",
      "type": "function"
    },
    {
      "inputs": [],
      "name": "symbol",
      "outputs": [
        {
          "internalType": "string",
          "name": "",
          "type": "string"
        }
      ],
      "stateMutability": "view",
      "type": "function"
    },
    {
      "inputs": [],
      "name": "totalSupply",
      "outputs": [
        {
          "internalType": "uint256",
          "name": "",
          "type": "uint256"
        }
      ],
      "stateMutability": "view",
      "type": "function"
    },
    {
      "inputs": [
        {
          "internalType": "address",
          "name": "newOwner",
          "type": "address"
        }
      ],
      "name": "transferOwnership",
      "outputs": [],
      "stateMutability": "payable",
      "type": "function"
    },
    {
      "stateMutability": "payable",
      "type": "receive"
    },
    {
      "inputs": [],
      "name": "getAircraftBrand",
      "outputs": [
        {
          "internalType": "string",
          "name": "",
          "type": "string"
        }
      ],
      "stateMutability": "view",
      "type": "function"
    },
    {
      "inputs": [],
      "name": "getAircraftSerialNo",
      "outputs": [
        {
          "internalType": "string",
          "name": "",
          "type": "string"
        }
      ],
      "stateMutability": "view",
      "type": "function"
    },
    {
      "inputs": [
        {
          "internalType": "address",
          "name": "to",
          "type": "address"
        },
        {
          "internalType": "uint256",
          "name": "tokens",
          "type": "uint256"
        }
      ],
      "name": "transfer",
      "outputs": [
        {
          "internalType": "bool",
          "name": "success",
          "type": "bool"
        }
      ],
      "stateMutability": "nonpayable",
      "type": "function"
    },
    {
      "inputs": [
        {
          "internalType": "address",
          "name": "from",
          "type": "address"
        },
        {
          "internalType": "address",
          "name": "to",
          "type": "address"
        },
        {
          "internalType": "uint256",
          "name": "tokens",
          "type": "uint256"
        }
      ],
      "name": "transferFrom",
      "outputs": [
        {
          "internalType": "bool",
          "name": "success",
          "type": "bool"
        }
      ],
      "stateMutability": "nonpayable",
      "type": "function"
    },
    {
      "inputs": [
        {
          "internalType": "address",
          "name": "wallet",
          "type": "address"
        }
      ],
      "name": "getOwnership",
      "outputs": [
        {
          "internalType": "uint256",
          "name": "",
          "type": "uint256"
        }
      ],
      "stateMutability": "view",
      "type": "function"
    },
    {
      "inputs": [],
      "name": "getOwners",
      "outputs": [
        {
          "internalType": "address[]",
          "name": "",
          "type": "address[]"
        }
      ],
      "stateMutability": "view",
      "type": "function"
    }
  ],
  "bytecode": "0x608060405234620004935762001446803803806200001d8162000498565b928339810160408282031262000493578151916001604060020a03928381116200049357826200004f918301620004ed565b906020928382015185811162000493576200006b9201620004ed565b91600160a060020a0319600092338285541617845560019442865533857f8be0079c531659141344cd1fd0a4f28419497f9722a3daafe3b4186f6b6457e08180a360ff1996876003541660035581519181831162000466576004938454936002928a848704961680156200045b575b898710146200042f578190601f96878111620003dc575b50899087831160011462000367578b926200035b575b505060088202840a6000190419169083021785555b80519283116200032f57600554898382049116801562000324575b88821014620002f857848111620002b1575b5086908484116001146200024557839450889362000239575b505082810292600802900a600019041916176005555b338452600683526064604085205560085490680100000000000000008210156200020d5785820180600855821015620001e1575091600791849360086040965282852001903390825416179055338352522091825416179055604051610ee69081620005608239f35b8460326024927f4e487b7100000000000000000000000000000000000000000000000000000000835252fd5b8460416024927f4e487b7100000000000000000000000000000000000000000000000000000000835252fd5b01519150388062000162565b600589528789208a9593949390929091601f1985168b5b8b8282106200029a57505085116200027e575b50505050020160055562000178565b0151908316600802840a6000190419169055388080806200026f565b8385015187558e999096019593840193016200025c565b6005895287892088868181880104830193828810620002ee575b010401908a905b828110620002e257505062000149565b8a8155018a90620002d2565b93508293620002cb565b6024896022887f4e487b7100000000000000000000000000000000000000000000000000000000835252fd5b90607f169062000137565b6024886041877f4e487b7100000000000000000000000000000000000000000000000000000000835252fd5b01519050388062000107565b888c528a8c208d94508693929091601f1984168e8e5b828210620003b757505084116200039c575b505050020185556200011c565b01516008838a1602840a60001904191690553880806200038f565b92948484939598508699929799015181550195019301918e9593918895938e6200037d565b909150878b52898b208a88818187010483019382871062000425575b918f92918796959492010401915b82811062000416575050620000f1565b8d81558594508e910162000406565b93508293620003f8565b60248a6022897f4e487b7100000000000000000000000000000000000000000000000000000000835252fd5b95607f1695620000da565b6024877f4e487b710000000000000000000000000000000000000000000000000000000081526041600452fd5b600080fd5b6040519190601f01601f191682016001604060020a03811183821017620004be57604052565b7f4e487b7100000000000000000000000000000000000000000000000000000000600052604160045260246000fd5b919080601f84011215620004935782516001604060020a038111620004be5760209062000523601f8201601f1916830162000498565b92818452828287010111620004935760005b8181106200054b57508260009394955001015290565b85810183015184820184015282016200053556fe60806040526004361015610026575b361561001e5761001c610c7e565b005b61001c610d01565b60e060020a6000350463022914a7811461015a57806306fdde031461011957806318160ddd1461015557806323b872dd1461015057806327d6d6e01461014b5780632b681a541461014b578063313ce56714610146578063715018a61461014157806383197ef01461013c578063877c847614610132578063893d20e81461013757806395d89b4114610132578063992924a61461012d578063a0e67e2b14610128578063a9059cbb14610123578063b8fb3a511461011e578063d1711ba114610119578063f2fde38b14610114578063f5074f411461010f5763ffa1ad740361000e576109af565b610969565b6108b1565b610274565b610895565b6107a6565b6106fd565b6106b4565b6105c9565b61068c565b610562565b61051c565b610500565b6104c6565b61039e565b610382565b6101aa565b60043590600160a060020a038216820361017557565b600080fd5b60243590600160a060020a038216820361017557565b600160a060020a0316600090815260066020526040902090565b3461017557602036600319011261017557600160a060020a036101cb61015f565b166000526007602052602060ff604060002054166040519015158152f35b60e060020a634e487b710260009081526041600452602490fd5b601f909101601f19168101906001604060020a0382119082101761022657604052565b6101e9565b6020808252825181830181905290939260005b82811061026057505060409293506000838284010152601f8019910116010190565b81810186015184820160400152850161023e565b346101755760008060031936011261037f5760405190806005549060028204916001808216928315610375575b602092838610851461035e57858852602088019490811561033e57506001146102e5575b6102e1876102d581890382610203565b6040519182918261022b565b0390f35b600560005294509192917f036b6384b5eca791c62761152d0c79bb0604c104a5fb6f4eb0703f3154bb3db05b83861061032d57505050910190506102d5826102e138806102c5565b805485870152948201948101610311565b60ff191685525050509115159091020190506102d5826102e138806102c5565b60e060020a634e487b710282526022600452602482fd5b93607f16936102a1565b80fd5b3461017557600036600319011261017557602060405160018152f35b34610175576060366003190112610175576103b761015f565b6103bf61017a565b604435916103ff600160a060020a036103f8818416918260005260076020526103ef60ff60406000205416610a07565b85161515610a48565b1515610a48565b821561048b5761047c8361042d600080516020610e918339815191529561042585610190565b541015610a89565b6104408161043a85610190565b54610dd2565b61044984610190565b5561045d8161045786610190565b54610d7d565b61046685610190565b5561047084610af2565b60405193849384610b5e565b0390a160405160018152602090f35b60405160e560020a62461bcd02815260206004820152600d6024820152609860020a6c496e76616c69642076616c7565026044820152606490fd5b3461017557602036600319011261017557600160a060020a036104e761015f565b1660005260066020526020604060002054604051908152f35b3461017557600036600319011261017557602060405160008152f35b60008060031936011261037f57805481600160a060020a038216610541338214610d31565b600080516020610e518339815191528280a3600160a060020a031916815580f35b346101755760008060031936011261037f57610589600160a060020a038254163314610b80565b600080516020610e318339815191526105c36105a3610c14565b60408051338152600160a060020a03909216602083015290918291820190565b0390a180f35b346101755760008060031936011261037f5760405190806004549060028204916001808216928315610682575b602092838610851461035e57858852602088019490811561033e5750600114610629576102e1876102d581890382610203565b600460005294509192917f8a35acfbc15ff81a39ae7d344fd709f28e8600b4aa8c65c6b64bfe7fe36bd19b5b83861061067157505050910190506102d5826102e138806102c5565b805485870152948201948101610655565b93607f16936105f6565b60003660031901126101755760206106a2610c14565b604051600160a060020a039091168152f35b3461017557602036600319011261017557600435600854811015610175576008600052600080516020610e718339815191520154604051600160a060020a039091168152602090f35b346101755760008060031936011261037f57604051809160085490818352602080930180926008835284832090835b8181106107895750505084610742910385610203565b60405193838594850191818652518092526040850193925b82811061076957505050500390f35b8351600160a060020a03168552869550938101939281019260010161075a565b8254600160a060020a03168452928601926001928301920161072c565b34610175576040366003190112610175576107bf61015f565b6024353360005260076020526107dc60ff60406000205416610a07565b6107f0600160a060020a0383161515610a48565b801561085a57600080516020610e91833981519152916108138261042533610190565b6108208261043a33610190565b61082933610190565b556108378261045783610190565b61084082610190565b5561084a81610af2565b61047c6040519283923384610b5e565b60405160e560020a62461bcd02815260206004820152600d6024820152609860020a6c496e76616c69642056616c7565026044820152606490fd5b34610175576000366003190112610175576020604051601e8152f35b6020366003190112610175576108c561015f565b600080549091600160a060020a0380831692916108e3338514610d31565b1691821561090f578290600080516020610e518339815191528580a3600160a060020a03191617815580f35b60405160e560020a62461bcd02815260206004820152602660248201527f4f776e61626c653a206e6577206f776e657220697320746865207a65726f2061604482015260d060020a65646472657373026064820152608490fd5b3461017557602036600319011261017557600080516020610e318339815191526109aa61099461015f565b6105a3600160a060020a03600054163314610b80565b0390a1005b346101755760003660031901126101755760408051908101906001604060020a03821181831017610226576102e191604052600a815260b060020a69312e362e342d626574610260208201526040519182918261022b565b15610a0e57565b60405160e560020a62461bcd02815260206004820152600c602482015260a160020a6b3737ba1030b71037bbb732b9026044820152606490fd5b15610a4f57565b60405160e560020a62461bcd02815260206004820152600c602482015260a060020a6b4e756c6c2061646472657373026044820152606490fd5b15610a9057565b60405160e560020a62461bcd02815260206004820152602e60248201527f696e73756666696369656e74206f776e6572736869702070657263656e7461676044820152609160020a6d32903337b9103a3930b739b332b9026064820152608490fd5b600854604060020a811015610226576001810180600855811015610b44576008600052600080516020610e71833981519152018054600160a060020a031916600160a060020a03909216919091179055565b60e060020a634e487b710260009081526032600452602490fd5b600160a060020a03918216815291166020820152604081019190915260600190565b15610b8757565b60405160e560020a62461bcd02815260206004820152601b60248201527f756e617574686f72697a65642c206e6f7420746865206f776e657200000000006044820152606490fd5b15610bd657565b60405160e560020a62461bcd0281526020600482015260106024820152608160020a6f3930ba32903634b6b4ba1032b93937b9026044820152606490fd5b600154601e8101809111610c4957610c36904211610c3181610bcf565b610bcf565b42600155600054600160a060020a031690565b60e060020a634e487b710260009081526011600452602490fd5b600160a060020a039091168152602081019190915260400190565b333203610cba577f26875833861a2b006512a11f1b86edf95df96131040f3caeed72989ee985808360405180610cb5343383610c63565b0390a1565b60405160e560020a62461bcd0281526020600482015260196024820152603860020a787068697368696e672061747461636b2064657465637465643f026044820152606490fd5b7fcc85d09d309785db93d6df19917f2e6cc07fe27cd01c08c8279145deb5cf452660405180610cb5343383610c63565b15610d3857565b60405160e560020a62461bcd0281526020600482015260176024820152604960020a7630b1b1b2b9b9903232b734b2b2103337b91037bbb732b9026044820152606490fd5b908101908110610d8a5790565b60405160e560020a62461bcd02815260206004820152601b60248201527f536166654d6174683a206164646974696f6e206f766572666c6f7700000000006044820152606490fd5b808211610de85781810391190181036101755790565b60405160e560020a62461bcd02815260206004820152601e60248201527f536166654d6174683a207375627472616374696f6e206f766572666c6f7700006044820152606490fdfe91ca00fdf29069527d658f8dfc6d1c0bf9861780bb45ff36436f938d3595a8d68be0079c531659141344cd1fd0a4f28419497f9722a3daafe3b4186f6b6457e0f3f7a9fe364faab93b216da50a3214154f22a0a2b415b23a84c8169e8b636ee3ddf252ad1be2c89b69c2b068fc378daa952ba7f163c4a11628f55a4df523b3efa2646970667358221220c01d87dde2ccd4b0ad148562efe2f269bb3484519fe051b9ebc6fbbcb48234f964736f6c63430008120033",
  "immutableReferences": {},
  "source": "// SPDX-License-Identifier: CC-BY-4.0\r\npragma solidity >=0.4.22 <0.9.0;\r\n\r\nimport \"../common/Version.sol\";\r\nimport \"../common/Frozen.sol\";\r\nimport \"../libs/SafeMath.sol\";\r\n\r\ncontract AircraftOwnership is Version, Frozen {\r\n    string public symbol;   // The aircraft serial or N-number\r\n    string public name;     // Brand and model of aircraft\r\n    uint256 public constant totalSupply = 1;\r\n    uint256 public constant decimals = 0;\r\n\r\n    mapping (address => uint256) public ownership;\r\n    mapping (address => bool) public owners;\r\n    address[] public _owners;\r\n\r\n    event Transfer(address sender,address receiver,uint amount);\r\n\r\n    constructor(string memory aircraftBrand,string memory aircraftSerial) {\r\n        symbol = aircraftSerial;\r\n        name = aircraftBrand;\r\n        ownership[msg.sender] = 100; // represents 100%\r\n        _owners.push(msg.sender);\r\n        owners[msg.sender] = true;\r\n    }\r\n\r\n    modifier isAuthorized(address wallet) {\r\n        require(owners[wallet],\"not an owner\");\r\n        _;\r\n    }\r\n\r\n    function getAircraftBrand() external view returns (string memory) {\r\n        return name;\r\n    }\r\n\r\n    function getAircraftSerialNo() external view returns (string memory) {\r\n        return symbol;\r\n    }\r\n\r\n    function transfer(address to, uint tokens) public isAuthorized(msg.sender) returns (bool success) {\r\n        require(to != address(0), \"Null address\");\r\n        require(tokens > 0, \"Invalid Value\"); // percentage of ownership being transferred\r\n        require(ownership[msg.sender] >= tokens,\"insufficient ownership percentage for transfer\");\r\n\r\n        ownership[msg.sender] = SafeMath.safeSub(ownership[msg.sender], tokens);\r\n        ownership[to] = SafeMath.safeAdd(ownership[to], tokens);\r\n        _owners.push(to);\r\n        emit Transfer(msg.sender, to, tokens);\r\n        return true;\r\n    }\r\n\r\n    function transferFrom(address from, address to, uint tokens) public isAuthorized(from) returns (bool success) {\r\n        require(to != address(0), \"Null address\");\r\n        require(from != address(0), \"Null address\");\r\n        require(tokens > 0, \"Invalid value\");\r\n        require(ownership[from] >= tokens,\"insufficient ownership percentage for transfer\");\r\n\r\n        ownership[from] = SafeMath.safeSub(ownership[from], tokens);\r\n        ownership[to] = SafeMath.safeAdd(ownership[to], tokens);\r\n        _owners.push(to);\r\n        emit Transfer(from, to, tokens);\r\n        return true;\r\n    }\r\n\r\n    function getOwnership(address wallet) external view returns(uint256) {\r\n        return ownership[wallet];\r\n    }\r\n\r\n    function getOwners() external view returns (address[] memory) {\r\n        return _owners;\r\n    }\r\n}",
  "sourcePath": "/Volumes/HOME/pingleware-contracts/contracts/aviation/AircraftOwnership.sol",
  "compiler": {
    "name": "solc",
    "version": "0.8.18+commit.87f61d96.Emscripten.clang"
  },
  "schemaVersion": "3.4.12",
  "updatedAt": "2024-05-23T18:56:24.868Z",
  "devdoc": {
    "kind": "dev",
    "methods": {
      "renounceOwnership()": {
        "details": "Leaves the contract without owner. It will not be possible to call `onlyOwner` functions anymore. Can only be called by the current owner. NOTE: Renouncing ownership will leave the contract without an owner, thereby removing any functionality that is only available to the owner."
      },
      "transferOwnership(address)": {
        "details": "Transfers ownership of the contract to a new account (`newOwner`). Can only be called by the current owner."
      }
    },
    "version": 1
  },
  "userdoc": {
    "kind": "user",
    "methods": {},
    "version": 1
  }
}