{
  "contractName": "Annuities",
  "abi": [
    {
      "anonymous": false,
      "inputs": [
        {
          "indexed": false,
          "internalType": "address",
          "name": "sender",
          "type": "address"
        },
        {
          "indexed": false,
          "internalType": "uint256",
          "name": "amount",
          "type": "uint256"
        }
      ],
      "name": "FallbackEvent",
      "type": "event"
    },
    {
      "anonymous": false,
      "inputs": [
        {
          "indexed": true,
          "internalType": "address",
          "name": "previousOwner",
          "type": "address"
        },
        {
          "indexed": true,
          "internalType": "address",
          "name": "newOwner",
          "type": "address"
        }
      ],
      "name": "OwnershipTransferred",
      "type": "event"
    },
    {
      "anonymous": false,
      "inputs": [
        {
          "indexed": false,
          "internalType": "address",
          "name": "sender",
          "type": "address"
        },
        {
          "indexed": false,
          "internalType": "uint256",
          "name": "amount",
          "type": "uint256"
        }
      ],
      "name": "ReceiveEvent",
      "type": "event"
    },
    {
      "stateMutability": "payable",
      "type": "fallback"
    },
    {
      "inputs": [],
      "name": "VERSION",
      "outputs": [
        {
          "internalType": "string",
          "name": "",
          "type": "string"
        }
      ],
      "stateMutability": "view",
      "type": "function"
    },
    {
      "inputs": [],
      "name": "WAIT",
      "outputs": [
        {
          "internalType": "uint256",
          "name": "",
          "type": "uint256"
        }
      ],
      "stateMutability": "view",
      "type": "function"
    },
    {
      "inputs": [],
      "name": "getOwner",
      "outputs": [
        {
          "internalType": "address",
          "name": "",
          "type": "address"
        }
      ],
      "stateMutability": "payable",
      "type": "function"
    },
    {
      "inputs": [],
      "name": "renounceOwnership",
      "outputs": [],
      "stateMutability": "payable",
      "type": "function"
    },
    {
      "inputs": [
        {
          "internalType": "address",
          "name": "newOwner",
          "type": "address"
        }
      ],
      "name": "transferOwnership",
      "outputs": [],
      "stateMutability": "payable",
      "type": "function"
    },
    {
      "stateMutability": "payable",
      "type": "receive"
    }
  ],
  "bytecode": "0x608080604052346100535760008054600160a060020a03191633908117825542600155907f8be0079c531659141344cd1fd0a4f28419497f9722a3daafe3b4186f6b6457e08180a361044090816100598239f35b600080fdfe6040608081526004803610156100c4575b361561009557333203610051577f26875833861a2b006512a11f1b86edf95df96131040f3caeed72989ee985808382518061004c343383610383565b0390a1005b6020606492519160e560020a62461bcd02835282015260196024820152603860020a787068697368696e672061747461636b2064657465637465643f026044820152fd5b7fcc85d09d309785db93d6df19917f2e6cc07fe27cd01c08c8279145deb5cf452682518061004c343383610383565b600060e060020a81350463715018a681146102f9578063893d20e814610296578063b8fb3a5114610276578063f2fde38b146101b45763ffa1ad741461010a5750610010565b9190346101b057826003193601126101b057815190818301906001604060020a0382118383101761019a57508252600a815260209060b060020a69312e362e342d62657461028282015282519382859384528251928382860152825b84811061018457505050828201840152601f01601f19168101030190f35b8181018301518882018801528795508201610166565b60e060020a634e487b7102855260419052602484fd5b8280fd5b50919060203660031901126101b057600160a060020a03813581811693919290849003610272578454928316916101ec83331461039e565b841561021857505082906000805160206103eb8339815191528580a3600160a060020a03191617815580f35b5160e560020a62461bcd028152602091810191909152602660248201527f4f776e61626c653a206e6577206f776e657220697320746865207a65726f2061604482015260d060020a65646472657373026064820152608490fd5b8480fd5b50823461029257816003193601126102925760209051601e8152f35b5080fd5b508083916003193601126102f65760015492601e84018094116102e057506102ca60209342116102c58161033e565b61033e565b42600155549051600160a060020a039091168152f35b60e060020a634e487b7102825260119052602490fd5b80fd5b50806003193601126102f657805481600160a060020a03821661031d33821461039e565b6000805160206103eb8339815191528280a3600160a060020a031916815580f35b1561034557565b60405160e560020a62461bcd0281526020600482015260106024820152608160020a6f3930ba32903634b6b4ba1032b93937b9026044820152606490fd5b600160a060020a039091168152602081019190915260400190565b156103a557565b60405160e560020a62461bcd0281526020600482015260176024820152604960020a7630b1b1b2b9b9903232b734b2b2103337b91037bbb732b9026044820152606490fdfe8be0079c531659141344cd1fd0a4f28419497f9722a3daafe3b4186f6b6457e0a26469706673582212209aec149fd5a63bb9171d20948cb9e4c04d23b950d61bb8e7c545c91f76c2d2c264736f6c63430008120033",
  "immutableReferences": {},
  "source": "// SPDX-License-Identifier: CC-BY-4.0\r\npragma solidity >=0.4.22 <0.9.0;\r\n\r\n/**\r\n * See example Annuity Contract at https://github.com/MaxHastings/Celery\r\n */\r\n\r\n /**\r\n  * Florida Law for Annuities: http://www.leg.state.fl.us/STATUTES/index.cfm?App_mode=Display_Statute&Search_String=&URL=0600-0699/0627/Sections/0627.4554.html\r\n  *\r\n  * An Annuity is used to fund an Employee Benefit Plan. Under the Exempt Equity Offerings permits Employee Benefit Plan,\r\n  * creating an annuity to help fund that plan.\r\n  *\r\n  * Annuities are also used to fund tax-exempt deferred compensation plan.\r\n  * Investment instruments for Annuities include: Stocks, Bonds and Currency trding\r\n  */\r\n\r\nimport \"../common/Version.sol\";\r\nimport \"../common/Owned.sol\";\r\n\r\ncontract Annuities is Version, Owned {\r\n\r\n    enum ANNUITY_TYPE {\r\n        IMMEDIATE,  // With an immediate annuity, the annuitant pays a single premium and immediately starts receiving payments at the end of each payment period, which is usually monthly or annually\r\n        DEFERRED,   // With a deferred annuity, the annuitant pays one or more premiums over what is often called the accumulation period. The premiums paid and the interest credited to the premiums goes into a fund called an accumulation fund. There may be a minimum guaranteed interest rate at which the money will accumulate during the accumulation period.\r\n        FIXED,      // A fixed annuity provides fixed-dollar income payments backed by the guarantees in the contract. The annuitant cannot lose the investment once the income payments begin. The amount of those payments will not change. With fixed annuities, the company bears the investment risk.\r\n        VARIABLE    // Variable annuity investments are securities, and fluctuate with economic conditions. The value of a variable annuity depends upon the value of the underlying investment portfolios associated with the annuity. The annuitant bears the investment risk for the value of the security. The value of the annuity will increase or decrease with the investment performance of the security.\r\n    }\r\n}",
  "sourcePath": "/Volumes/HOME/pingleware-contracts/contracts/insurance/Annuities.sol",
  "compiler": {
    "name": "solc",
    "version": "0.8.18+commit.87f61d96.Emscripten.clang"
  },
  "schemaVersion": "3.4.12",
  "updatedAt": "2024-05-23T18:56:26.460Z",
  "devdoc": {
    "kind": "dev",
    "methods": {
      "renounceOwnership()": {
        "details": "Leaves the contract without owner. It will not be possible to call `onlyOwner` functions anymore. Can only be called by the current owner. NOTE: Renouncing ownership will leave the contract without an owner, thereby removing any functionality that is only available to the owner."
      },
      "transferOwnership(address)": {
        "details": "Transfers ownership of the contract to a new account (`newOwner`). Can only be called by the current owner."
      }
    },
    "version": 1
  },
  "userdoc": {
    "kind": "user",
    "methods": {},
    "version": 1
  }
}