{
  "contractName": "Arbitration",
  "abi": [
    {
      "inputs": [
        {
          "internalType": "address",
          "name": "arbitratorWallet",
          "type": "address"
        }
      ],
      "stateMutability": "nonpayable",
      "type": "constructor"
    },
    {
      "anonymous": false,
      "inputs": [
        {
          "indexed": false,
          "internalType": "address",
          "name": "sender",
          "type": "address"
        },
        {
          "indexed": false,
          "internalType": "uint256",
          "name": "amount",
          "type": "uint256"
        }
      ],
      "name": "FallbackEvent",
      "type": "event"
    },
    {
      "anonymous": false,
      "inputs": [
        {
          "indexed": true,
          "internalType": "address",
          "name": "previousOwner",
          "type": "address"
        },
        {
          "indexed": true,
          "internalType": "address",
          "name": "newOwner",
          "type": "address"
        }
      ],
      "name": "OwnershipTransferred",
      "type": "event"
    },
    {
      "anonymous": false,
      "inputs": [
        {
          "indexed": false,
          "internalType": "address",
          "name": "sender",
          "type": "address"
        },
        {
          "indexed": false,
          "internalType": "uint256",
          "name": "amount",
          "type": "uint256"
        }
      ],
      "name": "ReceiveEvent",
      "type": "event"
    },
    {
      "anonymous": false,
      "inputs": [
        {
          "indexed": false,
          "internalType": "uint256",
          "name": "",
          "type": "uint256"
        },
        {
          "indexed": false,
          "internalType": "string",
          "name": "",
          "type": "string"
        }
      ],
      "name": "SolutionTimestampChange",
      "type": "event"
    },
    {
      "stateMutability": "payable",
      "type": "fallback"
    },
    {
      "inputs": [],
      "name": "VERSION",
      "outputs": [
        {
          "internalType": "string",
          "name": "",
          "type": "string"
        }
      ],
      "stateMutability": "view",
      "type": "function"
    },
    {
      "inputs": [],
      "name": "WAIT",
      "outputs": [
        {
          "internalType": "uint256",
          "name": "",
          "type": "uint256"
        }
      ],
      "stateMutability": "view",
      "type": "function"
    },
    {
      "inputs": [],
      "name": "finalSolution",
      "outputs": [
        {
          "internalType": "string",
          "name": "",
          "type": "string"
        }
      ],
      "stateMutability": "view",
      "type": "function"
    },
    {
      "inputs": [],
      "name": "getOwner",
      "outputs": [
        {
          "internalType": "address",
          "name": "",
          "type": "address"
        }
      ],
      "stateMutability": "payable",
      "type": "function"
    },
    {
      "inputs": [],
      "name": "renounceOwnership",
      "outputs": [],
      "stateMutability": "payable",
      "type": "function"
    },
    {
      "inputs": [
        {
          "internalType": "address",
          "name": "newOwner",
          "type": "address"
        }
      ],
      "name": "transferOwnership",
      "outputs": [],
      "stateMutability": "payable",
      "type": "function"
    },
    {
      "stateMutability": "payable",
      "type": "receive"
    },
    {
      "inputs": [
        {
          "internalType": "string",
          "name": "_A",
          "type": "string"
        }
      ],
      "name": "addSideAViewpointComment",
      "outputs": [],
      "stateMutability": "nonpayable",
      "type": "function"
    },
    {
      "inputs": [
        {
          "internalType": "string",
          "name": "_B",
          "type": "string"
        }
      ],
      "name": "addSideBViewpointComment",
      "outputs": [],
      "stateMutability": "nonpayable",
      "type": "function"
    },
    {
      "inputs": [],
      "name": "getSolution",
      "outputs": [
        {
          "internalType": "string",
          "name": "",
          "type": "string"
        }
      ],
      "stateMutability": "view",
      "type": "function"
    },
    {
      "inputs": [
        {
          "internalType": "address",
          "name": "voter",
          "type": "address"
        }
      ],
      "name": "addVoters",
      "outputs": [],
      "stateMutability": "nonpayable",
      "type": "function"
    },
    {
      "inputs": [
        {
          "internalType": "string",
          "name": "_solution",
          "type": "string"
        }
      ],
      "name": "sendSolution",
      "outputs": [],
      "stateMutability": "nonpayable",
      "type": "function"
    },
    {
      "inputs": [
        {
          "internalType": "uint256",
          "name": "_solutionsIndex",
          "type": "uint256"
        }
      ],
      "name": "vote",
      "outputs": [],
      "stateMutability": "nonpayable",
      "type": "function"
    },
    {
      "inputs": [],
      "name": "payArbitrationFees",
      "outputs": [],
      "stateMutability": "payable",
      "type": "function"
    },
    {
      "inputs": [],
      "name": "hasVoteTimeExpired",
      "outputs": [
        {
          "internalType": "bool",
          "name": "",
          "type": "bool"
        }
      ],
      "stateMutability": "view",
      "type": "function"
    },
    {
      "inputs": [
        {
          "internalType": "bool",
          "name": "currentTimestamp",
          "type": "bool"
        },
        {
          "internalType": "uint256",
          "name": "newTimestamp",
          "type": "uint256"
        },
        {
          "internalType": "string",
          "name": "reason",
          "type": "string"
        }
      ],
      "name": "updateSolutionTime",
      "outputs": [],
      "stateMutability": "nonpayable",
      "type": "function"
    }
  ],
  "bytecode": "0x608060405260006001556005600655600060095560006014556000601f5534801561002957600080fd5b50604051611332380380611332833981016040819052610048916100b4565b60008054600160a060020a031916339081178255426001556040519091907f8be0079c531659141344cd1fd0a4f28419497f9722a3daafe3b4186f6b6457e0908290a360218054600160a060020a031916600160a060020a0392909216919091179055426020556100e4565b6000602082840312156100c657600080fd5b8151600160a060020a03811681146100dd57600080fd5b9392505050565b61123f806100f36000396000f3fe6080604052600436106100bf5760e060020a60003504630121b93f8114610186578063189aa749146101a857806325575cf8146101b057806334b14c2e146101d0578063366262e7146101f05780634c105d1b1461021057806350592adf14610230578063715018a61461025b578063893d20e8146102635780639a8e813d14610283578063abde4c19146102a8578063b8fb3a51146102bd578063e605cb22146102e0578063f2fde38b14610300578063ffa1ad7414610313576100ff565b366100ff577fcc85d09d309785db93d6df19917f2e6cc07fe27cd01c08c8279145deb5cf452633346040516100f5929190610adb565b60405180910390a1005b3233146101555760405160e560020a62461bcd0281526020600482015260196024820152603860020a787068697368696e672061747461636b2064657465637465643f0260448201526064015b60405180910390fd5b7f26875833861a2b006512a11f1b86edf95df96131040f3caeed72989ee985808333346040516100f5929190610adb565b34801561019257600080fd5b506101a66101a1366004610af4565b61034c565b005b6101a6610401565b3480156101bc57600080fd5b506101a66101cb366004610b55565b610534565b3480156101dc57600080fd5b506101a66101eb366004610bb0565b610541565b3480156101fc57600080fd5b506101a661020b366004610b55565b6105c8565b34801561021c57600080fd5b506101a661022b366004610c60565b6105d5565b34801561023c57600080fd5b50610245610626565b6040516102529190610cad565b60405180910390f35b6101a66106d1565b61026b610736565b604051600160a060020a039091168152602001610252565b34801561028f57600080fd5b506102986107ac565b6040519015158152602001610252565b3480156102b457600080fd5b506102456107c4565b3480156102c957600080fd5b506102d2601e81565b604051908152602001610252565b3480156102ec57600080fd5b506101a66102fb366004610ce0565b610852565b6101a661030e366004610c60565b6108d7565b34801561031f57600080fd5b506102456040518060400160405280600a815260200160b060020a69312e362e342d626574610281525081565b3360009081526008602052604090205460ff166103aa5760405160e560020a62461bcd0281526020600482015260166024820152605060020a756e6f7420617574686f72697a656420746f20766f746502604482015260640161014c565b6064601f54106103b957600080fd5b6103d8601582600a81106103cf576103cf610d40565b015460016109b8565b601582600a81106103eb576103eb610d40565b0155601f546103fb9060016109b8565b601f5550565b600054600160a060020a0316331461045e5760405160e560020a62461bcd02815260206004820152601b60248201527f756e617574686f72697a65642c206e6f7420746865206f776e65720000000000604482015260640161014c565b60155460009060015b600a8110156104b95781601582600a811061048457610484610d40565b015411156104a757809250601581600a81106104a2576104a2610d40565b015491505b806104b181610d74565b915050610467565b50600a82600a81106104cd576104cd610d40565b6003916104db910182610e2a565b50600760036040516104ed9190610f06565b90815260405190819003602001812054600160a060020a031690303180156108fc02916000818181858888f1935050505015801561052f573d6000803e3d6000fd5b505050565b600461052f828483610f7c565b60145460090361055057600080fd5b80600a601454600a811061056657610566610d40565b01906105729082611038565b5061058060145460016109b8565b60145560405133906007906105969084906110ed565b9081526040519081900360200190208054600160a060020a0392909216600160a060020a031990921691909117905550565b600561052f828483610f7c565b602154600160a060020a031633146106025760405160e560020a62461bcd02815260040161014c90611109565b600160a060020a03166000908152600860205260409020805460ff19166001179055565b6060600a610632610a19565b600a811061064257610642610d40565b01805461064e90610d8d565b80601f016020809104026020016040519081016040528092919081815260200182805461067a90610d8d565b80156106c75780601f1061069c576101008083540402835291602001916106c7565b820191906000526020600020905b8154815290600101906020018083116106aa57829003601f168201915b5050505050905090565b600054600160a060020a031633146106fe5760405160e560020a62461bcd02815260040161014c9061113f565b60008054604051600160a060020a03909116906000805160206111ea833981519152908390a360008054600160a060020a0319169055565b6000601e6001546107479190611173565b42116107685760405160e560020a62461bcd02815260040161014c90611186565b601e6001546107779190611173565b42116107985760405160e560020a62461bcd02815260040161014c90611186565b5042600155600054600160a060020a031690565b60006203f4806107be42602054610a74565b10905090565b600380546107d190610d8d565b80601f01602080910402602001604051908101604052809291908181526020018280546107fd90610d8d565b801561084a5780601f1061081f5761010080835404028352916020019161084a565b820191906000526020600020905b81548152906001019060200180831161082d57829003601f168201915b505050505081565b602154600160a060020a0316331461087f5760405160e560020a62461bcd02815260040161014c90611109565b831561088e5742602055610894565b60208390555b7f1c85526a707cb410dff62efba4f372358e628014ae1f74430e70e82034e11a0660205483836040516108c9939291906111b3565b60405180910390a150505050565b600054600160a060020a031633146109045760405160e560020a62461bcd02815260040161014c9061113f565b600160a060020a03811661096f5760405160e560020a62461bcd02815260206004820152602660248201527f4f776e61626c653a206e6577206f776e657220697320746865207a65726f2061604482015260d060020a6564647265737302606482015260840161014c565b60008054604051600160a060020a03808516939216916000805160206111ea83398151915291a360008054600160a060020a031916600160a060020a0392909216919091179055565b600082820183811015610a105760405160e560020a62461bcd02815260206004820152601b60248201527f536166654d6174683a206164646974696f6e206f766572666c6f770000000000604482015260640161014c565b90505b92915050565b600080805b601f54811015610a6e57601582600a8110610a3b57610a3b610d40565b0154601582600a8110610a5057610a50610d40565b01541115610a5c578091505b80610a6681610d74565b915050610a1e565b50919050565b600082821115610ac95760405160e560020a62461bcd02815260206004820152601e60248201527f536166654d6174683a207375627472616374696f6e206f766572666c6f770000604482015260640161014c565b818303821984018114610a1057600080fd5b600160a060020a03929092168252602082015260400190565b600060208284031215610b0657600080fd5b5035919050565b60008083601f840112610b1f57600080fd5b5081356001604060020a03811115610b3657600080fd5b602083019150836020828501011115610b4e57600080fd5b9250929050565b60008060208385031215610b6857600080fd5b82356001604060020a03811115610b7e57600080fd5b610b8a85828601610b0d565b90969095509350505050565b60e060020a634e487b710260009081526041600452602490fd5b600060208284031215610bc257600080fd5b81356001604060020a0380821115610bd957600080fd5b818401915084601f830112610bed57600080fd5b813581811115610bff57610bff610b96565b604051601f8201601f19908116603f01168101908382118183101715610c2757610c27610b96565b81604052828152876020848701011115610c4057600080fd5b826020860160208301376000928101602001929092525095945050505050565b600060208284031215610c7257600080fd5b8135600160a060020a0381168114610a1057600080fd5b60005b83811015610ca4578181015183820152602001610c8c565b50506000910152565b6020815260008251806020840152610ccc816040850160208701610c89565b601f01601f19169190910160400192915050565b60008060008060608587031215610cf657600080fd5b84358015158114610d0657600080fd5b93506020850135925060408501356001604060020a03811115610d2857600080fd5b610d3487828801610b0d565b95989497509550505050565b60e060020a634e487b710260009081526032600452602490fd5b60e060020a634e487b710260009081526011600452602490fd5b600060018201610d8657610d86610d5a565b5060010190565b600281046001821680610da157607f821691505b602082108103610a6e5760e060020a634e487b710260009081526022600452602490fd5b601f82111561052f576000818152602081206020601f86010481016020861015610dec5750805b6020601f860104820191505b81811015610e0b57828155600101610df8565b505050505050565b6002808302600893909302900a6000190419161790565b818103610e35575050565b610e3f8254610d8d565b6001604060020a03811115610e5657610e56610b96565b610e6a81610e648454610d8d565b84610dc5565b6000601f821160018114610e985760008315610e865750848201545b610e908482610e13565b855550610eff565b600085815260209020601f19841690600086815260209020845b83811015610ed25782860154825560019586019590910190602001610eb2565b5085831015610ef257818501546008601f88160260020a60001904191681555b5050506001600284020184555b5050505050565b6000808354610f1481610d8d565b60018281168015610f2c5760018114610f4157610f70565b60ff1984168752821515830287019450610f70565b8760005260208060002060005b85811015610f675781548a820152908401908201610f4e565b50505082870194505b50929695505050505050565b6001604060020a03831115610f9357610f93610b96565b610fa783610fa18354610d8d565b83610dc5565b6000601f841160018114610fd55760008515610fc35750838201355b610fcd8682610e13565b845550610eff565b600083815260209020601f19861690835b828110156110065786850135825560209485019460019092019101610fe6565b508682101561102657858401356008601f89160260020a60001904191681555b50506001600286020183555050505050565b81516001604060020a0381111561105157611051610b96565b61105f81610e648454610d8d565b602080601f83116001811461108e576000841561107c5750858301515b6110868582610e13565b865550610e0b565b600085815260208120601f198616915b828110156110bd5788860151825594840194600190910190840161109e565b50858210156110dd57878501516008601f88160260020a60001904191681555b5050505050600202600101905550565b600082516110ff818460208701610c89565b9190910192915050565b6020808252601990820152603960020a783737ba1030baba3437b934bd32b21030b93134ba3930ba37b902604082015260600190565b6020808252601790820152604960020a7630b1b1b2b9b9903232b734b2b2103337b91037bbb732b902604082015260600190565b80820180821115610a1357610a13610d5a565b6020808252601090820152608160020a6f3930ba32903634b6b4ba1032b93937b902604082015260600190565b83815260406020820152816040820152818360608301376000818301606090810191909152601f909201601f191601019291505056fe8be0079c531659141344cd1fd0a4f28419497f9722a3daafe3b4186f6b6457e0a264697066735822122081fd7abaadc4b133426abb8cf919fa7a1749272da6bae0ae2350cbf91af469b364736f6c63430008120033",
  "immutableReferences": {},
  "source": "// SPDX-License-Identifier: CC-BY-4.0\r\npragma solidity >=0.4.22 <0.9.0;\r\n\r\n/**\r\n * Migrated from https://github.com/RychardHunt/blockchain-arbitration/blob/master/blockchainarbitration.sol\r\n */\r\n\r\n/**\r\n * This Arbitration contract interacts from the DisputeResolution contract\r\n */\r\n\r\nimport \"../common/Version.sol\";\r\nimport \"../common/Owned.sol\";\r\nimport \"../libs/SafeMath.sol\";\r\n\r\ncontract Arbitration is Version, Owned {\r\n    using SafeMath for uint256;\r\n\r\n     uint256 constant TWO_DAYS = 2 days;\r\n     uint256 constant THREE_DAYS = 3 days;\r\n\r\n    /**\r\n     * @dev Displays winning solution on the blockchain.\r\n     */\r\n    string public finalSolution;\r\n\r\n    /**\r\n    * @dev String A represents the viewpoint and argument of side A;\r\n    *      String B represents the viewpoint and argument of side B;\r\n    */\r\n    string A;\r\n    string B;\r\n\r\n    /**\r\n    * @dev Arbitration Fee as a percentage of the total balance of the contract. Base fee is 5%.\r\n    */\r\n    uint256 feePercentage = 5;\r\n\r\n    /**\r\n    * @dev solutionToSender stores solutions and addresses of solutions providers.\r\n    *      indexToVoters stores a dynamic array of voter addresses.\r\n    */\r\n    mapping (string => address) private solutionToSender;\r\n    mapping (address => bool) private voters;\r\n\r\n    uint256 private voterIndex = 0;\r\n\r\n    /*\r\n    * @dev Solutions stores the solutions at the index of the order they are received.\r\n    *      Solutions ID keeps track of how many solutions have been submitted.\r\n    */\r\n    string[10] private solutions;\r\n    uint256 private solutionsId = 0;\r\n\r\n    /*\r\n    * @dev votes for solutions of the same index\r\n    *      totalVotes keeps track of total amount of votes. Capped at 101 votes.\r\n    */\r\n    uint256[10] private votes;\r\n    uint256 totalVotes = 0;\r\n\r\n    uint256 solutionTimestamp;\r\n\r\n    address arbitrator;\r\n\r\n    event SolutionTimestampChange(uint256,string);\r\n\r\n    /**\r\n    * @dev Constructor initiates String A and String B with the parameters.\r\n    */\r\n    constructor(address arbitratorWallet) {\r\n        arbitrator = arbitratorWallet;\r\n        solutionTimestamp = block.timestamp;\r\n    }\r\n\r\n    modifier onlyArbitrator() {\r\n        require(msg.sender == arbitrator,\"not authorized arbitrator\");\r\n        _;\r\n    }\r\n\r\n    /**\r\n    * @dev Modifier for approved solutions senders.\r\n    */\r\n    modifier approveSolutionsSenders() {\r\n        _;\r\n    }\r\n\r\n    /**\r\n    * @dev Modifier for approved solutions voters.\r\n    */\r\n    modifier approveSolutionsVoters() {\r\n        require(voters[msg.sender],\"not authorized to vote\");\r\n        _;\r\n    }\r\n\r\n    function addSideAViewpointComment(string calldata _A) external {\r\n         A = _A;\r\n    }\r\n\r\n    function addSideBViewpointComment(string calldata _B) external {\r\n         B = _B;\r\n    }\r\n\r\n\r\n    function getSolution() external view returns (string memory) {\r\n        return solutions[getTopSolution()];\r\n    }\r\n\r\n    function addVoters(address voter) external onlyArbitrator() {\r\n        voters[voter] = true;\r\n    }\r\n\r\n    /**\r\n    * @dev Increase Fees by numbers of percentage points.\r\n    */\r\n    /* function increaseFees(uint256 percent) public onlyOwner {\r\n        require(feePercentage.add(percent) <= 100);\r\n        feePercentage = feePercentage.add(percent);\r\n    } */\r\n\r\n    /**\r\n    * @dev Adds a solution to the dispute. Capped at 10 solutions.\r\n    */\r\n    function sendSolution(string memory _solution)\r\n        external\r\n        approveSolutionsSenders()\r\n    {\r\n        //require(A.length > 0 && B.length > 0,\"parties have not equally responded to the dispute\");\r\n        require(solutionsId != 9);\r\n        solutions[solutionsId] = _solution;\r\n        solutionsId = SafeMath.safeAdd(solutionsId,1);\r\n        solutionToSender[_solution] = msg.sender;\r\n    }\r\n\r\n    /**\r\n    * @dev Increases votes for the index of the solution being voted. Capped at 100 votes.\r\n    */\r\n    function vote(uint256 _solutionsIndex)\r\n        external\r\n        approveSolutionsVoters()\r\n    {\r\n        //require(A.length > 0 && B.length > 0,\"parties have not equally responded to the dispute\");\r\n        require(totalVotes < 100);\r\n        votes[_solutionsIndex] = SafeMath.safeAdd(votes[_solutionsIndex],1);\r\n        totalVotes = SafeMath.safeAdd(totalVotes,1);\r\n    }\r\n\r\n    function getTopSolution() internal view returns (uint256) {\r\n        uint256 solutionIndex = 0;\r\n\r\n        for (uint i=0; i<totalVotes; i++) {\r\n            if (votes[i] > votes[solutionIndex]) {\r\n                solutionIndex = i;\r\n            }\r\n        }\r\n        return solutionIndex;\r\n    }\r\n\r\n    /**\r\n    * @dev Pays out the arbitration fee to the address of the highest voted solution.\r\n    */\r\n    function payArbitrationFees()\r\n        public\r\n        okOwner\r\n        payable\r\n    {\r\n        uint256 indexMax = 0;\r\n        uint256 maxVotes = votes[indexMax];\r\n        for (uint i = 1; i < 10; i++) {\r\n            if (votes[i] > maxVotes) {\r\n                indexMax = i;\r\n                maxVotes = votes[i];\r\n                // Doesn't deal with ties yet. Edge case.\r\n            }\r\n        }\r\n        finalSolution =  solutions[indexMax];\r\n        payable(solutionToSender[finalSolution]).transfer(address(this).balance);\r\n    }\r\n\r\n    /**\r\n    * @dev Restricts solutions sending time to 2 days.\r\n    */\r\n    function solutionsTime() private view {\r\n        require(SafeMath.safeSub(block.timestamp,solutionTimestamp) < TWO_DAYS,\"time expired for sending solutions\");\r\n    }\r\n\r\n    /**\r\n    * @dev Restricts voting time to 3 days.\r\n    */\r\n    function voteTime() private view {\r\n        require(SafeMath.safeSub(block.timestamp,solutionTimestamp) < THREE_DAYS,\"time expired for voting on a solution\");\r\n    }\r\n\r\n    function hasVoteTimeExpired() external view returns (bool) {\r\n        return (SafeMath.safeSub(block.timestamp,solutionTimestamp) < THREE_DAYS);\r\n    }\r\n\r\n    function updateSolutionTime(bool currentTimestamp,uint256 newTimestamp,string calldata reason) external onlyArbitrator() {\r\n        //require(reason.length > 0,\"missing reason for changing timestamp\");\r\n        if (currentTimestamp) {\r\n            solutionTimestamp = block.timestamp;\r\n        } else {\r\n            solutionTimestamp = newTimestamp;\r\n        }\r\n        emit SolutionTimestampChange(solutionTimestamp, reason);\r\n    }\r\n}",
  "sourcePath": "/Volumes/My Book/projects/pingleware-contracts/contracts/legal/Arbitration.sol",
  "compiler": {
    "name": "solc",
    "version": "0.8.18+commit.87f61d96.Emscripten.clang"
  },
  "schemaVersion": "3.4.12",
  "updatedAt": "2023-10-22T04:02:01.094Z",
  "devdoc": {
    "kind": "dev",
    "methods": {
      "constructor": {
        "details": "Constructor initiates String A and String B with the parameters."
      },
      "payArbitrationFees()": {
        "details": "Pays out the arbitration fee to the address of the highest voted solution."
      },
      "renounceOwnership()": {
        "details": "Leaves the contract without owner. It will not be possible to call `onlyOwner` functions anymore. Can only be called by the current owner. NOTE: Renouncing ownership will leave the contract without an owner, thereby removing any functionality that is only available to the owner."
      },
      "sendSolution(string)": {
        "details": "Adds a solution to the dispute. Capped at 10 solutions."
      },
      "transferOwnership(address)": {
        "details": "Transfers ownership of the contract to a new account (`newOwner`). Can only be called by the current owner."
      },
      "vote(uint256)": {
        "details": "Increases votes for the index of the solution being voted. Capped at 100 votes."
      }
    },
    "stateVariables": {
      "A": {
        "details": "String A represents the viewpoint and argument of side A;      String B represents the viewpoint and argument of side B;"
      },
      "feePercentage": {
        "details": "Arbitration Fee as a percentage of the total balance of the contract. Base fee is 5%."
      },
      "finalSolution": {
        "details": "Displays winning solution on the blockchain."
      },
      "solutionToSender": {
        "details": "solutionToSender stores solutions and addresses of solutions providers.      indexToVoters stores a dynamic array of voter addresses."
      }
    },
    "version": 1
  },
  "userdoc": {
    "kind": "user",
    "methods": {},
    "version": 1
  }
}