{
  "contractName": "Arbitration",
  "abi": [
    {
      "inputs": [
        {
          "internalType": "address",
          "name": "arbitratorWallet",
          "type": "address"
        }
      ],
      "stateMutability": "nonpayable",
      "type": "constructor"
    },
    {
      "anonymous": false,
      "inputs": [
        {
          "indexed": false,
          "internalType": "address",
          "name": "sender",
          "type": "address"
        },
        {
          "indexed": false,
          "internalType": "uint256",
          "name": "amount",
          "type": "uint256"
        }
      ],
      "name": "FallbackEvent",
      "type": "event"
    },
    {
      "anonymous": false,
      "inputs": [
        {
          "indexed": true,
          "internalType": "address",
          "name": "previousOwner",
          "type": "address"
        },
        {
          "indexed": true,
          "internalType": "address",
          "name": "newOwner",
          "type": "address"
        }
      ],
      "name": "OwnershipTransferred",
      "type": "event"
    },
    {
      "anonymous": false,
      "inputs": [
        {
          "indexed": false,
          "internalType": "address",
          "name": "sender",
          "type": "address"
        },
        {
          "indexed": false,
          "internalType": "uint256",
          "name": "amount",
          "type": "uint256"
        }
      ],
      "name": "ReceiveEvent",
      "type": "event"
    },
    {
      "anonymous": false,
      "inputs": [
        {
          "indexed": false,
          "internalType": "uint256",
          "name": "",
          "type": "uint256"
        },
        {
          "indexed": false,
          "internalType": "string",
          "name": "",
          "type": "string"
        }
      ],
      "name": "SolutionTimestampChange",
      "type": "event"
    },
    {
      "stateMutability": "payable",
      "type": "fallback"
    },
    {
      "inputs": [],
      "name": "VERSION",
      "outputs": [
        {
          "internalType": "string",
          "name": "",
          "type": "string"
        }
      ],
      "stateMutability": "view",
      "type": "function"
    },
    {
      "inputs": [],
      "name": "WAIT",
      "outputs": [
        {
          "internalType": "uint256",
          "name": "",
          "type": "uint256"
        }
      ],
      "stateMutability": "view",
      "type": "function"
    },
    {
      "inputs": [],
      "name": "finalSolution",
      "outputs": [
        {
          "internalType": "string",
          "name": "",
          "type": "string"
        }
      ],
      "stateMutability": "view",
      "type": "function"
    },
    {
      "inputs": [],
      "name": "getOwner",
      "outputs": [
        {
          "internalType": "address",
          "name": "",
          "type": "address"
        }
      ],
      "stateMutability": "payable",
      "type": "function"
    },
    {
      "inputs": [],
      "name": "renounceOwnership",
      "outputs": [],
      "stateMutability": "payable",
      "type": "function"
    },
    {
      "inputs": [
        {
          "internalType": "address",
          "name": "newOwner",
          "type": "address"
        }
      ],
      "name": "transferOwnership",
      "outputs": [],
      "stateMutability": "payable",
      "type": "function"
    },
    {
      "stateMutability": "payable",
      "type": "receive"
    },
    {
      "inputs": [
        {
          "internalType": "string",
          "name": "_A",
          "type": "string"
        }
      ],
      "name": "addSideAViewpointComment",
      "outputs": [],
      "stateMutability": "nonpayable",
      "type": "function"
    },
    {
      "inputs": [
        {
          "internalType": "string",
          "name": "_B",
          "type": "string"
        }
      ],
      "name": "addSideBViewpointComment",
      "outputs": [],
      "stateMutability": "nonpayable",
      "type": "function"
    },
    {
      "inputs": [],
      "name": "getSolution",
      "outputs": [
        {
          "internalType": "string",
          "name": "",
          "type": "string"
        }
      ],
      "stateMutability": "view",
      "type": "function"
    },
    {
      "inputs": [
        {
          "internalType": "address",
          "name": "voter",
          "type": "address"
        }
      ],
      "name": "addVoters",
      "outputs": [],
      "stateMutability": "nonpayable",
      "type": "function"
    },
    {
      "inputs": [
        {
          "internalType": "string",
          "name": "_solution",
          "type": "string"
        }
      ],
      "name": "sendSolution",
      "outputs": [],
      "stateMutability": "nonpayable",
      "type": "function"
    },
    {
      "inputs": [
        {
          "internalType": "uint256",
          "name": "_solutionsIndex",
          "type": "uint256"
        }
      ],
      "name": "vote",
      "outputs": [],
      "stateMutability": "nonpayable",
      "type": "function"
    },
    {
      "inputs": [],
      "name": "payArbitrationFees",
      "outputs": [],
      "stateMutability": "payable",
      "type": "function"
    },
    {
      "inputs": [],
      "name": "hasVoteTimeExpired",
      "outputs": [
        {
          "internalType": "bool",
          "name": "",
          "type": "bool"
        }
      ],
      "stateMutability": "view",
      "type": "function"
    },
    {
      "inputs": [
        {
          "internalType": "bool",
          "name": "currentTimestamp",
          "type": "bool"
        },
        {
          "internalType": "uint256",
          "name": "newTimestamp",
          "type": "uint256"
        },
        {
          "internalType": "string",
          "name": "reason",
          "type": "string"
        }
      ],
      "name": "updateSolutionTime",
      "outputs": [],
      "stateMutability": "nonpayable",
      "type": "function"
    }
  ],
  "bytecode": "0x6080346100bd576113cd80380390601f19601f83011683019183831067ffffffffffffffff8411176100c2578084926020946040528339810103126100bd5751600160a060020a038116908190036100bd576000805433600160a060020a03199182168117835542600155604051939290817f8be0079c531659141344cd1fd0a4f28419497f9722a3daafe3b4186f6b6457e08180a360056006558060095580601455601f556021541617602155426020556112db90816100f28239f35b600080fd5b7f4e487b7100000000000000000000000000000000000000000000000000000000600052604160045260246000fdfe60806040526004361015610026575b361561001e5761001c610c3d565b005b61001c610cc0565b60e060020a60003504630121b93f8114610119578063189aa7491461011457806325575cf81461010f57806334b14c2e1461010a578063366262e7146101055780634c105d1b1461010057806350592adf146100fb578063715018a6146100f6578063893d20e8146100f15780639a8e813d146100ec578063abde4c19146100e7578063b8fb3a51146100e2578063e605cb22146100dd578063f2fde38b146100d85763ffa1ad740361000e57610b6b565b610abe565b6109fc565b6109e0565b610926565b6107c1565b610772565b61072c565b6106b0565b61061d565b610508565b610496565b61034b565b6101cb565b346101c65760203660031901126101c657600435600090338252600860205260ff60408320541615610182576064601f54101561017e57600a81101561017957601501610166815461120f565b9055610173601f5461120f565b601f5580f35b610e8c565b5080fd5b60405160e560020a62461bcd0281526020600482015260166024820152605060020a756e6f7420617574686f72697a656420746f20766f7465026044820152606490fd5b600080fd5b6000806003193601126102ed578054600160a060020a031633036102a5578060155460015b600a811061025b578361020b61020585610eb8565b5061107a565b8080808061023961022d61022d61022061116a565b54600160a060020a031690565b600160a060020a031690565b303190828215610252575bf11561024d5780f35b611203565b506108fc610244565b8161027661026883610ea6565b90549060080260020a900490565b1161028a575b6102859061106b565b6101f0565b9150508061028561029d61026883610ea6565b91905061027c565b60405160e560020a62461bcd02815260206004820152601b60248201527f756e617574686f72697a65642c206e6f7420746865206f776e657200000000006044820152606490fd5b80fd5b9181601f840112156101c6578235916001604060020a0383116101c657602083818601950101116101c657565b60206003198201126101c657600435906001604060020a0382116101c657610347916004016102f0565b9091565b346101c6576103593661031d565b6001604060020a03811161043e5761037b81610376600454610842565b610d3c565b600091601f82116001146103bb579181926000926103b0575b5050816002029160080260020a60001904191617600455600080f35b013590503880610394565b60046000527f8a35acfbc15ff81a39ae7d344fd709f28e8600b4aa8c65c6b64bfe7fe36bd19b92601f198316815b8181106104265750916001949184600295941061040b575b5050500201600455005b01356008601f841602840a6000190419169055388080610401565b919460206001819288870135815501960192016103e9565b60e060020a634e487b710260009081526041600452602490fd5b601f909101601f19168101906001604060020a0382119082101761043e57604052565b6001604060020a03811161043e57601f01601f191660200190565b346101c65760203660031901126101c6576004356001604060020a0381116101c657366023820112156101c65780600401356104d18161047b565b906104df6040519283610458565b80825236602482850101116101c657602081600092602461001c96018386013783010152610f3e565b346101c6576105163661031d565b6001604060020a03811161043e5761053881610533600554610842565b610d90565b600091601f82116001146105785791819260009261056d575b5050816002029160080260020a60001904191617600555600080f35b013590503880610551565b60056000527f036b6384b5eca791c62761152d0c79bb0604c104a5fb6f4eb0703f3154bb3db092601f198316815b8181106105e3575091600194918460029594106105c8575b5050500201600555005b01356008601f841602840a60001904191690553880806105be565b919460206001819288870135815501960192016105a6565b60209060031901126101c657600435600160a060020a03811681036101c65790565b346101c65761062b366105fb565b602154600160a060020a0391906106459083163314610eca565b166000908152600860205260409020805460ff19166001179055005b60005b8381106106745750506000910152565b8181015183820152602001610664565b604091602082526106a48151809281602086015260208686019101610661565b601f01601f1916010190565b346101c65760003660031901126101c657600080601f54905b8181106106f5576106f16106e56106df85610eb8565b50610881565b60405191829182610684565b0390f35b600a8082101561017957601582810154918510156101795784015410610724575b61071f9061106b565b6106c9565b915081610716565b6000806003193601126102ed57805481600160a060020a038216610751338214610cf0565b6000805160206112868339815191528280a3600160a060020a031916815580f35b60003660031901126101c657600154601e81018091116107bc576107a090421161079b81610bdd565b610bdd565b42600155600054604051600160a060020a039091168152602090f35b610bc3565b346101c65760003660031901126101c6576020544281116107fa578042039019420181036101c6576040516203f4809091108152602090f35b60405160e560020a62461bcd02815260206004820152601e60248201527f536166654d6174683a207375627472616374696f6e206f766572666c6f7700006044820152606490fd5b9060016002830492168015610877575b602083101461085d57565b60e060020a634e487b710260009081526022600452602490fd5b91607f1691610852565b906040519182600082549261089584610842565b90818452600194858116908160001461090457506001146108c1575b50506108bf92500383610458565b565b9093915060005260209081600020936000915b8183106108ec5750506108bf935082010138806108b1565b855488840185015294850194879450918301916108d4565b9150506108bf94506020925060ff1916828401521515810282010138806108b1565b346101c6576000806003193601126102ed576040518160035461094881610842565b808452906001908181169081156109b95750600114610972575b6106f1846106e581880382610458565b60038352602094506000805160206112668339815191525b8284106109a657505050816106f1936106e59282010193610962565b805485850187015292850192810161098a565b6106f196506106e59450602092508593915060ff1916828401521515810282010193610962565b346101c65760003660031901126101c6576020604051601e8152f35b346101c65760603660031901126101c65760043580151581036101c657604435906001604060020a0382116101c6576060610a5c7f1c85526a707cb410dff62efba4f372358e628014ae1f74430e70e82034e11a069336906004016102f0565b9092610a74600160a060020a03602154163314610eca565b15610ab357426020555b6020549080604051948593845260406020850152816040850152848401376000828201840152601f01601f19168101030190a1005b602435602055610a7e565b610ac7366105fb565b600080549091600160a060020a038083169291610ae5338514610cf0565b16918215610b115782906000805160206112868339815191528580a3600160a060020a03191617815580f35b60405160e560020a62461bcd02815260206004820152602660248201527f4f776e61626c653a206e6577206f776e657220697320746865207a65726f2061604482015260d060020a65646472657373026064820152608490fd5b346101c65760003660031901126101c65760408051908101906001604060020a0382118183101761043e576106f191604052600a815260b060020a69312e362e342d6265746102602082015260405191829182610684565b60e060020a634e487b710260009081526011600452602490fd5b15610be457565b60405160e560020a62461bcd0281526020600482015260106024820152608160020a6f3930ba32903634b6b4ba1032b93937b9026044820152606490fd5b600160a060020a039091168152602081019190915260400190565b333203610c79577f26875833861a2b006512a11f1b86edf95df96131040f3caeed72989ee985808360405180610c74343383610c22565b0390a1565b60405160e560020a62461bcd0281526020600482015260196024820152603860020a787068697368696e672061747461636b2064657465637465643f026044820152606490fd5b7fcc85d09d309785db93d6df19917f2e6cc07fe27cd01c08c8279145deb5cf452660405180610c74343383610c22565b15610cf757565b60405160e560020a62461bcd0281526020600482015260176024820152604960020a7630b1b1b2b9b9903232b734b2b2103337b91037bbb732b9026044820152606490fd5b601f8111610d48575050565b600090600482526020822090602080601f86010483019410610d86575b601f602091010401915b828110610d7b57505050565b818155600101610d6f565b9092508290610d65565b601f8111610d9c575050565b600090600582526020822090602080601f86010483019410610dda575b601f602091010401915b828110610dcf57505050565b818155600101610dc3565b9092508290610db9565b601f8111610df0575050565b600090600382526020822090602080601f86010483019410610e2e575b601f602091010401915b828110610e2357505050565b818155600101610e17565b9092508290610e0d565b90601f8111610e4657505050565b60009182526020822090602080601f86010483019410610e82575b601f602091010401915b828110610e7757505050565b818155600101610e6b565b9092508290610e61565b60e060020a634e487b710260009081526032600452602490fd5b600a8110156101795760150190600090565b600a81101561017957600a0190600090565b15610ed157565b60405160e560020a62461bcd0281526020600482015260196024820152603960020a783737ba1030baba3437b934bd32b21030b93134ba3930ba37b9026044820152606490fd5b6020610f31918160405193828580945193849201610661565b8101600781520301902090565b90601454600981146101c657600a8110156101795782519290600a016001604060020a03841161043e57610f7c84610f768354610842565b83610e38565b602080601f8611600114610ff7575093806108bf9495600091610fec575b50816002029160080260020a6000190419161790555b610fc3610fbe60145461120f565b601455565b610fcd3391610f18565b8054600160a060020a031916600160a060020a03909216919091179055565b905083015138610f9a565b90601f19861661100c84600052602060002090565b926000905b82821061105357505095600192600292826108bf989910611038575b505002019055610fb0565b8601516008601f841602840a6000190419169055388061102d565b80600185968294968a01518155019501930190611011565b60001981146107bc5760010190565b806003146111675761108c8154610842565b906001604060020a03821161043e5781906110b1826110ac600354610842565b610de4565b600090601f83116001146110eb576000926110e0575b5050816002029160080260020a60001904191617600355565b0154905038806110c7565b600090815260209020601f1984169250600360005260008051602061126683398151915292825b81811061114f57509160029391856001969410611134575b5050500201600355565b01546008601f841602840a600019041916905538808061112a565b82840154855560019485019490930192602001611112565b50565b60405160035481600061117c83610842565b926001908181169081156111e957506001146111a3575b5060209250600781520301902090565b6003600090815260209250906000805160206112668339815191525b8583106111d55750505050602091810138611193565b8054878401528694509183019181016111bf565b60ff19168452506020938015150283019150389050611193565b6040513d6000823e3d90fd5b6001810190811061121d5790565b60405160e560020a62461bcd02815260206004820152601b60248201527f536166654d6174683a206164646974696f6e206f766572666c6f7700000000006044820152606490fdfec2575a0e9e593c00f959f8c92f12db2869c3395a3b0502d05e2516446f71f85b8be0079c531659141344cd1fd0a4f28419497f9722a3daafe3b4186f6b6457e0a26469706673582212202a8d9846429d516c5c365428cd443393897fafd9b06aa7cdc5de6fcc9855c71764736f6c63430008120033",
  "immutableReferences": {},
  "source": "// SPDX-License-Identifier: CC-BY-4.0\r\npragma solidity >=0.4.22 <0.9.0;\r\n\r\n/**\r\n * Migrated from https://github.com/RychardHunt/blockchain-arbitration/blob/master/blockchainarbitration.sol\r\n */\r\n\r\n/**\r\n * This Arbitration contract interacts from the DisputeResolution contract\r\n */\r\n\r\nimport \"../common/Version.sol\";\r\nimport \"../common/Owned.sol\";\r\nimport \"../libs/SafeMath.sol\";\r\n\r\ncontract Arbitration is Version, Owned {\r\n    using SafeMath for uint256;\r\n\r\n     uint256 constant TWO_DAYS = 2 days;\r\n     uint256 constant THREE_DAYS = 3 days;\r\n\r\n    /**\r\n     * @dev Displays winning solution on the blockchain.\r\n     */\r\n    string public finalSolution;\r\n\r\n    /**\r\n    * @dev String A represents the viewpoint and argument of side A;\r\n    *      String B represents the viewpoint and argument of side B;\r\n    */\r\n    string A;\r\n    string B;\r\n\r\n    /**\r\n    * @dev Arbitration Fee as a percentage of the total balance of the contract. Base fee is 5%.\r\n    */\r\n    uint256 feePercentage = 5;\r\n\r\n    /**\r\n    * @dev solutionToSender stores solutions and addresses of solutions providers.\r\n    *      indexToVoters stores a dynamic array of voter addresses.\r\n    */\r\n    mapping (string => address) private solutionToSender;\r\n    mapping (address => bool) private voters;\r\n\r\n    uint256 private voterIndex = 0;\r\n\r\n    /*\r\n    * @dev Solutions stores the solutions at the index of the order they are received.\r\n    *      Solutions ID keeps track of how many solutions have been submitted.\r\n    */\r\n    string[10] private solutions;\r\n    uint256 private solutionsId = 0;\r\n\r\n    /*\r\n    * @dev votes for solutions of the same index\r\n    *      totalVotes keeps track of total amount of votes. Capped at 101 votes.\r\n    */\r\n    uint256[10] private votes;\r\n    uint256 totalVotes = 0;\r\n\r\n    uint256 solutionTimestamp;\r\n\r\n    address arbitrator;\r\n\r\n    event SolutionTimestampChange(uint256,string);\r\n\r\n    /**\r\n    * @dev Constructor initiates String A and String B with the parameters.\r\n    */\r\n    constructor(address arbitratorWallet) {\r\n        arbitrator = arbitratorWallet;\r\n        solutionTimestamp = block.timestamp;\r\n    }\r\n\r\n    modifier onlyArbitrator() {\r\n        require(msg.sender == arbitrator,\"not authorized arbitrator\");\r\n        _;\r\n    }\r\n\r\n    /**\r\n    * @dev Modifier for approved solutions senders.\r\n    */\r\n    modifier approveSolutionsSenders() {\r\n        _;\r\n    }\r\n\r\n    /**\r\n    * @dev Modifier for approved solutions voters.\r\n    */\r\n    modifier approveSolutionsVoters() {\r\n        require(voters[msg.sender],\"not authorized to vote\");\r\n        _;\r\n    }\r\n\r\n    function addSideAViewpointComment(string calldata _A) external {\r\n         A = _A;\r\n    }\r\n\r\n    function addSideBViewpointComment(string calldata _B) external {\r\n         B = _B;\r\n    }\r\n\r\n\r\n    function getSolution() external view returns (string memory) {\r\n        return solutions[getTopSolution()];\r\n    }\r\n\r\n    function addVoters(address voter) external onlyArbitrator() {\r\n        voters[voter] = true;\r\n    }\r\n\r\n    /**\r\n    * @dev Increase Fees by numbers of percentage points.\r\n    */\r\n    /* function increaseFees(uint256 percent) public onlyOwner {\r\n        require(feePercentage.add(percent) <= 100);\r\n        feePercentage = feePercentage.add(percent);\r\n    } */\r\n\r\n    /**\r\n    * @dev Adds a solution to the dispute. Capped at 10 solutions.\r\n    */\r\n    function sendSolution(string memory _solution)\r\n        external\r\n        approveSolutionsSenders()\r\n    {\r\n        //require(A.length > 0 && B.length > 0,\"parties have not equally responded to the dispute\");\r\n        require(solutionsId != 9);\r\n        solutions[solutionsId] = _solution;\r\n        solutionsId = SafeMath.safeAdd(solutionsId,1);\r\n        solutionToSender[_solution] = msg.sender;\r\n    }\r\n\r\n    /**\r\n    * @dev Increases votes for the index of the solution being voted. Capped at 100 votes.\r\n    */\r\n    function vote(uint256 _solutionsIndex)\r\n        external\r\n        approveSolutionsVoters()\r\n    {\r\n        //require(A.length > 0 && B.length > 0,\"parties have not equally responded to the dispute\");\r\n        require(totalVotes < 100);\r\n        votes[_solutionsIndex] = SafeMath.safeAdd(votes[_solutionsIndex],1);\r\n        totalVotes = SafeMath.safeAdd(totalVotes,1);\r\n    }\r\n\r\n    function getTopSolution() internal view returns (uint256) {\r\n        uint256 solutionIndex = 0;\r\n\r\n        for (uint i=0; i<totalVotes; i++) {\r\n            if (votes[i] > votes[solutionIndex]) {\r\n                solutionIndex = i;\r\n            }\r\n        }\r\n        return solutionIndex;\r\n    }\r\n\r\n    /**\r\n    * @dev Pays out the arbitration fee to the address of the highest voted solution.\r\n    */\r\n    function payArbitrationFees()\r\n        public\r\n        okOwner\r\n        payable\r\n    {\r\n        uint256 indexMax = 0;\r\n        uint256 maxVotes = votes[indexMax];\r\n        for (uint i = 1; i < 10; i++) {\r\n            if (votes[i] > maxVotes) {\r\n                indexMax = i;\r\n                maxVotes = votes[i];\r\n                // Doesn't deal with ties yet. Edge case.\r\n            }\r\n        }\r\n        finalSolution =  solutions[indexMax];\r\n        payable(solutionToSender[finalSolution]).transfer(address(this).balance);\r\n    }\r\n\r\n    /**\r\n    * @dev Restricts solutions sending time to 2 days.\r\n    */\r\n    function solutionsTime() private view {\r\n        require(SafeMath.safeSub(block.timestamp,solutionTimestamp) < TWO_DAYS,\"time expired for sending solutions\");\r\n    }\r\n\r\n    /**\r\n    * @dev Restricts voting time to 3 days.\r\n    */\r\n    function voteTime() private view {\r\n        require(SafeMath.safeSub(block.timestamp,solutionTimestamp) < THREE_DAYS,\"time expired for voting on a solution\");\r\n    }\r\n\r\n    function hasVoteTimeExpired() external view returns (bool) {\r\n        return (SafeMath.safeSub(block.timestamp,solutionTimestamp) < THREE_DAYS);\r\n    }\r\n\r\n    function updateSolutionTime(bool currentTimestamp,uint256 newTimestamp,string calldata reason) external onlyArbitrator() {\r\n        //require(reason.length > 0,\"missing reason for changing timestamp\");\r\n        if (currentTimestamp) {\r\n            solutionTimestamp = block.timestamp;\r\n        } else {\r\n            solutionTimestamp = newTimestamp;\r\n        }\r\n        emit SolutionTimestampChange(solutionTimestamp, reason);\r\n    }\r\n}",
  "sourcePath": "/Volumes/HOME/pingleware-contracts/contracts/legal/Arbitration.sol",
  "compiler": {
    "name": "solc",
    "version": "0.8.18+commit.87f61d96.Emscripten.clang"
  },
  "schemaVersion": "3.4.12",
  "updatedAt": "2024-05-23T18:56:26.753Z",
  "devdoc": {
    "kind": "dev",
    "methods": {
      "constructor": {
        "details": "Constructor initiates String A and String B with the parameters."
      },
      "payArbitrationFees()": {
        "details": "Pays out the arbitration fee to the address of the highest voted solution."
      },
      "renounceOwnership()": {
        "details": "Leaves the contract without owner. It will not be possible to call `onlyOwner` functions anymore. Can only be called by the current owner. NOTE: Renouncing ownership will leave the contract without an owner, thereby removing any functionality that is only available to the owner."
      },
      "sendSolution(string)": {
        "details": "Adds a solution to the dispute. Capped at 10 solutions."
      },
      "transferOwnership(address)": {
        "details": "Transfers ownership of the contract to a new account (`newOwner`). Can only be called by the current owner."
      },
      "vote(uint256)": {
        "details": "Increases votes for the index of the solution being voted. Capped at 100 votes."
      }
    },
    "stateVariables": {
      "A": {
        "details": "String A represents the viewpoint and argument of side A;      String B represents the viewpoint and argument of side B;"
      },
      "feePercentage": {
        "details": "Arbitration Fee as a percentage of the total balance of the contract. Base fee is 5%."
      },
      "finalSolution": {
        "details": "Displays winning solution on the blockchain."
      },
      "solutionToSender": {
        "details": "solutionToSender stores solutions and addresses of solutions providers.      indexToVoters stores a dynamic array of voter addresses."
      }
    },
    "version": 1
  },
  "userdoc": {
    "kind": "user",
    "methods": {},
    "version": 1
  }
}