{
  "contractName": "ATS",
  "abi": [
    {
      "inputs": [
        {
          "internalType": "string",
          "name": "_tradingSystemName",
          "type": "string"
        }
      ],
      "stateMutability": "nonpayable",
      "type": "constructor"
    },
    {
      "anonymous": false,
      "inputs": [
        {
          "indexed": false,
          "internalType": "address",
          "name": "transferAgent",
          "type": "address"
        },
        {
          "indexed": false,
          "internalType": "address",
          "name": "issuer",
          "type": "address"
        },
        {
          "indexed": false,
          "internalType": "string",
          "name": "symbol",
          "type": "string"
        },
        {
          "indexed": false,
          "internalType": "uint256",
          "name": "ask",
          "type": "uint256"
        }
      ],
      "name": "AskPriceUpdated",
      "type": "event"
    },
    {
      "anonymous": false,
      "inputs": [
        {
          "indexed": false,
          "internalType": "address",
          "name": "transferAgent",
          "type": "address"
        },
        {
          "indexed": false,
          "internalType": "address",
          "name": "issuer",
          "type": "address"
        },
        {
          "indexed": false,
          "internalType": "string",
          "name": "symbol",
          "type": "string"
        },
        {
          "indexed": false,
          "internalType": "uint256",
          "name": "bid",
          "type": "uint256"
        }
      ],
      "name": "BidPriceUpdated",
      "type": "event"
    },
    {
      "anonymous": false,
      "inputs": [
        {
          "indexed": true,
          "internalType": "address",
          "name": "swapper",
          "type": "address"
        },
        {
          "indexed": true,
          "internalType": "uint256",
          "name": "ethInput",
          "type": "uint256"
        },
        {
          "indexed": true,
          "internalType": "uint256",
          "name": "tokenOutput",
          "type": "uint256"
        }
      ],
      "name": "EthToTokenSwap",
      "type": "event"
    },
    {
      "anonymous": false,
      "inputs": [
        {
          "indexed": false,
          "internalType": "address",
          "name": "issuer",
          "type": "address"
        },
        {
          "indexed": false,
          "internalType": "string",
          "name": "symbol",
          "type": "string"
        },
        {
          "indexed": false,
          "internalType": "uint256",
          "name": "expiry",
          "type": "uint256"
        }
      ],
      "name": "ExpiryUpdated",
      "type": "event"
    },
    {
      "anonymous": false,
      "inputs": [
        {
          "indexed": false,
          "internalType": "address",
          "name": "investor",
          "type": "address"
        },
        {
          "indexed": false,
          "internalType": "string",
          "name": "investor_type",
          "type": "string"
        }
      ],
      "name": "InvestorAdded",
      "type": "event"
    },
    {
      "anonymous": false,
      "inputs": [
        {
          "indexed": false,
          "internalType": "address",
          "name": "liquidityProvider",
          "type": "address"
        },
        {
          "indexed": true,
          "internalType": "uint256",
          "name": "tokensInput",
          "type": "uint256"
        },
        {
          "indexed": true,
          "internalType": "uint256",
          "name": "ethInput",
          "type": "uint256"
        },
        {
          "indexed": true,
          "internalType": "uint256",
          "name": "liquidityMinted",
          "type": "uint256"
        }
      ],
      "name": "LiquidityProvided",
      "type": "event"
    },
    {
      "anonymous": false,
      "inputs": [
        {
          "indexed": false,
          "internalType": "address",
          "name": "liquidityRemover",
          "type": "address"
        },
        {
          "indexed": true,
          "internalType": "uint256",
          "name": "tokensOutput",
          "type": "uint256"
        },
        {
          "indexed": true,
          "internalType": "uint256",
          "name": "ethOutput",
          "type": "uint256"
        },
        {
          "indexed": true,
          "internalType": "uint256",
          "name": "liquidityWithdrawn",
          "type": "uint256"
        }
      ],
      "name": "LiquidityRemoved",
      "type": "event"
    },
    {
      "anonymous": false,
      "inputs": [
        {
          "indexed": false,
          "internalType": "address",
          "name": "transferAgent",
          "type": "address"
        },
        {
          "indexed": false,
          "internalType": "address",
          "name": "issuer",
          "type": "address"
        },
        {
          "indexed": false,
          "internalType": "string",
          "name": "symbol",
          "type": "string"
        },
        {
          "indexed": false,
          "internalType": "uint256",
          "name": "amount",
          "type": "uint256"
        }
      ],
      "name": "MaxOfferingAmountUpdated",
      "type": "event"
    },
    {
      "anonymous": false,
      "inputs": [
        {
          "indexed": false,
          "internalType": "address",
          "name": "issuer",
          "type": "address"
        },
        {
          "indexed": false,
          "internalType": "string",
          "name": "symbol",
          "type": "string"
        },
        {
          "indexed": false,
          "internalType": "uint256",
          "name": "maxInvestors",
          "type": "uint256"
        }
      ],
      "name": "MaximumAccreditedInvestorsUpdated",
      "type": "event"
    },
    {
      "anonymous": false,
      "inputs": [
        {
          "indexed": false,
          "internalType": "address",
          "name": "issuer",
          "type": "address"
        },
        {
          "indexed": false,
          "internalType": "string",
          "name": "symbol",
          "type": "string"
        },
        {
          "indexed": false,
          "internalType": "uint256",
          "name": "maxInvestors",
          "type": "uint256"
        }
      ],
      "name": "MaximumNonAccreditedInvestorsUpdated",
      "type": "event"
    },
    {
      "anonymous": false,
      "inputs": [
        {
          "indexed": false,
          "internalType": "address",
          "name": "issuer",
          "type": "address"
        },
        {
          "indexed": false,
          "internalType": "string",
          "name": "symbol",
          "type": "string"
        },
        {
          "indexed": false,
          "internalType": "uint256",
          "name": "maxInvestors",
          "type": "uint256"
        }
      ],
      "name": "MaximumSophisticatedInvestorsUpdated",
      "type": "event"
    },
    {
      "anonymous": false,
      "inputs": [
        {
          "indexed": false,
          "internalType": "address",
          "name": "transferAgent",
          "type": "address"
        },
        {
          "indexed": false,
          "internalType": "address",
          "name": "issuer",
          "type": "address"
        },
        {
          "indexed": false,
          "internalType": "string",
          "name": "symbol",
          "type": "string"
        },
        {
          "indexed": false,
          "internalType": "uint256",
          "name": "amount",
          "type": "uint256"
        }
      ],
      "name": "MinOfferingAmountUpdated",
      "type": "event"
    },
    {
      "anonymous": false,
      "inputs": [
        {
          "indexed": false,
          "internalType": "address",
          "name": "issuer",
          "type": "address"
        }
      ],
      "name": "NewIssuerRegistered",
      "type": "event"
    },
    {
      "anonymous": false,
      "inputs": [
        {
          "indexed": false,
          "internalType": "string",
          "name": "symbol",
          "type": "string"
        },
        {
          "indexed": false,
          "internalType": "address",
          "name": "issuer",
          "type": "address"
        },
        {
          "indexed": false,
          "internalType": "uint256",
          "name": "shares",
          "type": "uint256"
        }
      ],
      "name": "NewSecurityRegistered",
      "type": "event"
    },
    {
      "anonymous": false,
      "inputs": [
        {
          "indexed": false,
          "internalType": "address",
          "name": "issuer",
          "type": "address"
        },
        {
          "indexed": false,
          "internalType": "string",
          "name": "symbol",
          "type": "string"
        },
        {
          "indexed": false,
          "internalType": "uint256",
          "name": "shares",
          "type": "uint256"
        }
      ],
      "name": "OutstandingSharesUpdated",
      "type": "event"
    },
    {
      "anonymous": false,
      "inputs": [
        {
          "indexed": false,
          "internalType": "address",
          "name": "issuer",
          "type": "address"
        },
        {
          "indexed": false,
          "internalType": "string",
          "name": "symbol",
          "type": "string"
        },
        {
          "indexed": false,
          "internalType": "uint256",
          "name": "shares",
          "type": "uint256"
        }
      ],
      "name": "RemainingSharesUpdated",
      "type": "event"
    },
    {
      "anonymous": false,
      "inputs": [
        {
          "indexed": false,
          "internalType": "address",
          "name": "issuer",
          "type": "address"
        },
        {
          "indexed": false,
          "internalType": "string",
          "name": "symbol",
          "type": "string"
        }
      ],
      "name": "SecuirtyIsRestricted",
      "type": "event"
    },
    {
      "anonymous": false,
      "inputs": [
        {
          "indexed": false,
          "internalType": "address",
          "name": "issuer",
          "type": "address"
        },
        {
          "indexed": false,
          "internalType": "string",
          "name": "symbol",
          "type": "string"
        }
      ],
      "name": "SecurityIsUnrestricted",
      "type": "event"
    },
    {
      "anonymous": false,
      "inputs": [
        {
          "indexed": false,
          "internalType": "string",
          "name": "symbol",
          "type": "string"
        },
        {
          "indexed": false,
          "internalType": "string",
          "name": "action",
          "type": "string"
        }
      ],
      "name": "SecurityUpdated",
      "type": "event"
    },
    {
      "anonymous": false,
      "inputs": [
        {
          "indexed": false,
          "internalType": "string",
          "name": "reason",
          "type": "string"
        },
        {
          "indexed": false,
          "internalType": "uint256",
          "name": "amount",
          "type": "uint256"
        }
      ],
      "name": "SelfDestructing",
      "type": "event"
    },
    {
      "anonymous": false,
      "inputs": [
        {
          "indexed": true,
          "internalType": "address",
          "name": "swapper",
          "type": "address"
        },
        {
          "indexed": true,
          "internalType": "uint256",
          "name": "tokensInput",
          "type": "uint256"
        },
        {
          "indexed": true,
          "internalType": "uint256",
          "name": "ethOutput",
          "type": "uint256"
        }
      ],
      "name": "TokenToEthSwap",
      "type": "event"
    },
    {
      "anonymous": false,
      "inputs": [
        {
          "indexed": false,
          "internalType": "address",
          "name": "issuer",
          "type": "address"
        },
        {
          "indexed": false,
          "internalType": "string",
          "name": "symbol",
          "type": "string"
        }
      ],
      "name": "TradingEnabled",
      "type": "event"
    },
    {
      "anonymous": false,
      "inputs": [
        {
          "indexed": false,
          "internalType": "address",
          "name": "issuer",
          "type": "address"
        },
        {
          "indexed": false,
          "internalType": "string",
          "name": "symbol",
          "type": "string"
        },
        {
          "indexed": false,
          "internalType": "string",
          "name": "reason",
          "type": "string"
        }
      ],
      "name": "TradingStopped",
      "type": "event"
    },
    {
      "anonymous": false,
      "inputs": [
        {
          "indexed": false,
          "internalType": "address",
          "name": "newAgent",
          "type": "address"
        }
      ],
      "name": "TransferAgentAdded",
      "type": "event"
    },
    {
      "anonymous": false,
      "inputs": [
        {
          "indexed": false,
          "internalType": "address",
          "name": "transferAgent",
          "type": "address"
        }
      ],
      "name": "TransferAgentDisabled",
      "type": "event"
    },
    {
      "anonymous": false,
      "inputs": [
        {
          "indexed": false,
          "internalType": "address",
          "name": "sender",
          "type": "address"
        },
        {
          "indexed": false,
          "internalType": "address",
          "name": "issuer",
          "type": "address"
        },
        {
          "indexed": false,
          "internalType": "string",
          "name": "symbol",
          "type": "string"
        },
        {
          "indexed": false,
          "internalType": "uint256",
          "name": "fee",
          "type": "uint256"
        }
      ],
      "name": "TransferFeeChange",
      "type": "event"
    },
    {
      "inputs": [],
      "name": "OWNER",
      "outputs": [
        {
          "internalType": "address",
          "name": "",
          "type": "address"
        }
      ],
      "stateMutability": "view",
      "type": "function"
    },
    {
      "inputs": [],
      "name": "TRADING_SYSTEM",
      "outputs": [
        {
          "internalType": "string",
          "name": "",
          "type": "string"
        }
      ],
      "stateMutability": "view",
      "type": "function"
    },
    {
      "inputs": [
        {
          "internalType": "uint256",
          "name": "",
          "type": "uint256"
        }
      ],
      "name": "symbols",
      "outputs": [
        {
          "internalType": "string",
          "name": "",
          "type": "string"
        }
      ],
      "stateMutability": "view",
      "type": "function"
    },
    {
      "inputs": [
        {
          "internalType": "address",
          "name": "_transferAgent",
          "type": "address"
        }
      ],
      "name": "addTransferAgent",
      "outputs": [],
      "stateMutability": "nonpayable",
      "type": "function"
    },
    {
      "inputs": [
        {
          "internalType": "address",
          "name": "_transferAgent",
          "type": "address"
        }
      ],
      "name": "disableTransferAgent",
      "outputs": [],
      "stateMutability": "nonpayable",
      "type": "function"
    },
    {
      "inputs": [
        {
          "internalType": "address",
          "name": "_issuer",
          "type": "address"
        }
      ],
      "name": "addIssuer",
      "outputs": [],
      "stateMutability": "nonpayable",
      "type": "function"
    },
    {
      "inputs": [
        {
          "internalType": "address",
          "name": "_issuer",
          "type": "address"
        },
        {
          "internalType": "enum OfferingTypeInterface.OfferingType",
          "name": "_offeringType",
          "type": "uint8"
        },
        {
          "internalType": "address",
          "name": "_token",
          "type": "address"
        },
        {
          "internalType": "string",
          "name": "_symbol",
          "type": "string"
        },
        {
          "internalType": "uint256",
          "name": "tokens",
          "type": "uint256"
        }
      ],
      "name": "registerSecurity",
      "outputs": [
        {
          "internalType": "uint256",
          "name": "",
          "type": "uint256"
        }
      ],
      "stateMutability": "payable",
      "type": "function"
    },
    {
      "inputs": [
        {
          "internalType": "uint256",
          "name": "xInput",
          "type": "uint256"
        },
        {
          "internalType": "uint256",
          "name": "xFee",
          "type": "uint256"
        },
        {
          "internalType": "uint256",
          "name": "xReserves",
          "type": "uint256"
        },
        {
          "internalType": "uint256",
          "name": "yReserves",
          "type": "uint256"
        }
      ],
      "name": "price",
      "outputs": [
        {
          "internalType": "uint256",
          "name": "yOutput",
          "type": "uint256"
        }
      ],
      "stateMutability": "pure",
      "type": "function"
    },
    {
      "inputs": [
        {
          "internalType": "address",
          "name": "lp",
          "type": "address"
        }
      ],
      "name": "getLiquidity",
      "outputs": [
        {
          "internalType": "uint256",
          "name": "",
          "type": "uint256"
        }
      ],
      "stateMutability": "view",
      "type": "function"
    },
    {
      "inputs": [
        {
          "internalType": "address",
          "name": "_issuer",
          "type": "address"
        },
        {
          "internalType": "string",
          "name": "_symbol",
          "type": "string"
        }
      ],
      "name": "buy",
      "outputs": [
        {
          "internalType": "uint256",
          "name": "tokenOutput",
          "type": "uint256"
        }
      ],
      "stateMutability": "payable",
      "type": "function"
    },
    {
      "inputs": [
        {
          "internalType": "address",
          "name": "_issuer",
          "type": "address"
        },
        {
          "internalType": "string",
          "name": "_symbol",
          "type": "string"
        },
        {
          "internalType": "uint256",
          "name": "amountTokens",
          "type": "uint256"
        }
      ],
      "name": "sell",
      "outputs": [
        {
          "internalType": "uint256",
          "name": "ethOutput",
          "type": "uint256"
        }
      ],
      "stateMutability": "nonpayable",
      "type": "function"
    },
    {
      "inputs": [
        {
          "internalType": "address",
          "name": "_issuer",
          "type": "address"
        },
        {
          "internalType": "string",
          "name": "_symbol",
          "type": "string"
        }
      ],
      "name": "deposit",
      "outputs": [
        {
          "internalType": "uint256",
          "name": "tokensDeposited",
          "type": "uint256"
        }
      ],
      "stateMutability": "payable",
      "type": "function"
    },
    {
      "inputs": [
        {
          "internalType": "address",
          "name": "_issuer",
          "type": "address"
        },
        {
          "internalType": "string",
          "name": "_symbol",
          "type": "string"
        },
        {
          "internalType": "uint256",
          "name": "amount",
          "type": "uint256"
        }
      ],
      "name": "withdraw",
      "outputs": [
        {
          "internalType": "uint256",
          "name": "eth_amount",
          "type": "uint256"
        },
        {
          "internalType": "uint256",
          "name": "token_amount",
          "type": "uint256"
        }
      ],
      "stateMutability": "nonpayable",
      "type": "function"
    },
    {
      "inputs": [
        {
          "internalType": "address",
          "name": "_issuer",
          "type": "address"
        },
        {
          "internalType": "string",
          "name": "_symbol",
          "type": "string"
        },
        {
          "internalType": "string",
          "name": "_cusip",
          "type": "string"
        }
      ],
      "name": "updateCUSIP",
      "outputs": [],
      "stateMutability": "nonpayable",
      "type": "function"
    },
    {
      "inputs": [
        {
          "internalType": "address",
          "name": "_issuer",
          "type": "address"
        },
        {
          "internalType": "string",
          "name": "_symbol",
          "type": "string"
        },
        {
          "internalType": "string",
          "name": "_isin",
          "type": "string"
        }
      ],
      "name": "updateISIN",
      "outputs": [],
      "stateMutability": "nonpayable",
      "type": "function"
    },
    {
      "inputs": [
        {
          "internalType": "address",
          "name": "_issuer",
          "type": "address"
        },
        {
          "internalType": "string",
          "name": "_symbol",
          "type": "string"
        },
        {
          "internalType": "uint256",
          "name": "_expiry",
          "type": "uint256"
        }
      ],
      "name": "setExpiry",
      "outputs": [],
      "stateMutability": "nonpayable",
      "type": "function"
    },
    {
      "inputs": [
        {
          "internalType": "address",
          "name": "_issuer",
          "type": "address"
        },
        {
          "internalType": "string",
          "name": "_symbol",
          "type": "string"
        }
      ],
      "name": "startAcceptionTrades",
      "outputs": [],
      "stateMutability": "nonpayable",
      "type": "function"
    },
    {
      "inputs": [
        {
          "internalType": "address",
          "name": "_issuer",
          "type": "address"
        },
        {
          "internalType": "string",
          "name": "_symbol",
          "type": "string"
        },
        {
          "internalType": "string",
          "name": "_reason",
          "type": "string"
        }
      ],
      "name": "stopAcceptingTrades",
      "outputs": [],
      "stateMutability": "nonpayable",
      "type": "function"
    },
    {
      "inputs": [
        {
          "internalType": "address",
          "name": "_issuer",
          "type": "address"
        },
        {
          "internalType": "string",
          "name": "_symbol",
          "type": "string"
        },
        {
          "internalType": "uint256",
          "name": "_maxInvestors",
          "type": "uint256"
        }
      ],
      "name": "setMaxAccreditedInvestors",
      "outputs": [],
      "stateMutability": "nonpayable",
      "type": "function"
    },
    {
      "inputs": [
        {
          "internalType": "address",
          "name": "_issuer",
          "type": "address"
        },
        {
          "internalType": "string",
          "name": "_symbol",
          "type": "string"
        },
        {
          "internalType": "uint256",
          "name": "_maxInvestors",
          "type": "uint256"
        }
      ],
      "name": "setMaxSophisticatedInvestors",
      "outputs": [],
      "stateMutability": "nonpayable",
      "type": "function"
    },
    {
      "inputs": [
        {
          "internalType": "address",
          "name": "_issuer",
          "type": "address"
        },
        {
          "internalType": "string",
          "name": "_symbol",
          "type": "string"
        },
        {
          "internalType": "uint256",
          "name": "_maxInvestors",
          "type": "uint256"
        }
      ],
      "name": "setMaxNonAccreditedInvestors",
      "outputs": [],
      "stateMutability": "nonpayable",
      "type": "function"
    },
    {
      "inputs": [
        {
          "internalType": "address",
          "name": "_issuer",
          "type": "address"
        },
        {
          "internalType": "string",
          "name": "_symbol",
          "type": "string"
        },
        {
          "internalType": "uint256",
          "name": "_shares",
          "type": "uint256"
        }
      ],
      "name": "updateOutstandingShares",
      "outputs": [],
      "stateMutability": "nonpayable",
      "type": "function"
    },
    {
      "inputs": [
        {
          "internalType": "address",
          "name": "_issuer",
          "type": "address"
        },
        {
          "internalType": "string",
          "name": "_symbol",
          "type": "string"
        },
        {
          "internalType": "uint256",
          "name": "_shares",
          "type": "uint256"
        }
      ],
      "name": "updateRemainingShares",
      "outputs": [],
      "stateMutability": "nonpayable",
      "type": "function"
    },
    {
      "inputs": [
        {
          "internalType": "address",
          "name": "_issuer",
          "type": "address"
        },
        {
          "internalType": "string",
          "name": "_symbol",
          "type": "string"
        }
      ],
      "name": "setRestrictedSecurity",
      "outputs": [],
      "stateMutability": "nonpayable",
      "type": "function"
    },
    {
      "inputs": [
        {
          "internalType": "address",
          "name": "_issuer",
          "type": "address"
        },
        {
          "internalType": "string",
          "name": "_symbol",
          "type": "string"
        }
      ],
      "name": "setUnRestrictedSecurity",
      "outputs": [],
      "stateMutability": "nonpayable",
      "type": "function"
    },
    {
      "inputs": [
        {
          "internalType": "address",
          "name": "_investor",
          "type": "address"
        }
      ],
      "name": "addAcreditedInvestor",
      "outputs": [],
      "stateMutability": "nonpayable",
      "type": "function"
    },
    {
      "inputs": [
        {
          "internalType": "address",
          "name": "_investor",
          "type": "address"
        }
      ],
      "name": "addNonAccreditedInvestor",
      "outputs": [],
      "stateMutability": "nonpayable",
      "type": "function"
    },
    {
      "inputs": [
        {
          "internalType": "address",
          "name": "_investor",
          "type": "address"
        }
      ],
      "name": "addAffiliatedInvestor",
      "outputs": [],
      "stateMutability": "nonpayable",
      "type": "function"
    },
    {
      "inputs": [
        {
          "internalType": "address",
          "name": "_brokerDealer",
          "type": "address"
        }
      ],
      "name": "addBrokerDealer",
      "outputs": [],
      "stateMutability": "nonpayable",
      "type": "function"
    },
    {
      "inputs": [
        {
          "internalType": "address",
          "name": "_issuer",
          "type": "address"
        },
        {
          "internalType": "string",
          "name": "_symbol",
          "type": "string"
        },
        {
          "internalType": "uint256",
          "name": "_fee",
          "type": "uint256"
        }
      ],
      "name": "setFee",
      "outputs": [],
      "stateMutability": "nonpayable",
      "type": "function"
    },
    {
      "inputs": [
        {
          "internalType": "address",
          "name": "_issuer",
          "type": "address"
        },
        {
          "internalType": "string",
          "name": "_symbol",
          "type": "string"
        },
        {
          "internalType": "uint256",
          "name": "_bid",
          "type": "uint256"
        }
      ],
      "name": "setBid",
      "outputs": [],
      "stateMutability": "nonpayable",
      "type": "function"
    },
    {
      "inputs": [
        {
          "internalType": "address",
          "name": "_issuer",
          "type": "address"
        },
        {
          "internalType": "string",
          "name": "_symbol",
          "type": "string"
        },
        {
          "internalType": "uint256",
          "name": "_ask",
          "type": "uint256"
        }
      ],
      "name": "setAsk",
      "outputs": [],
      "stateMutability": "nonpayable",
      "type": "function"
    },
    {
      "inputs": [
        {
          "internalType": "address",
          "name": "_issuer",
          "type": "address"
        },
        {
          "internalType": "string",
          "name": "_symbol",
          "type": "string"
        },
        {
          "internalType": "uint256",
          "name": "_amount",
          "type": "uint256"
        }
      ],
      "name": "setMinOfferingAmount",
      "outputs": [],
      "stateMutability": "nonpayable",
      "type": "function"
    },
    {
      "inputs": [
        {
          "internalType": "address",
          "name": "_issuer",
          "type": "address"
        },
        {
          "internalType": "string",
          "name": "_symbol",
          "type": "string"
        },
        {
          "internalType": "uint256",
          "name": "_amount",
          "type": "uint256"
        }
      ],
      "name": "setMaxOfferingAmount",
      "outputs": [],
      "stateMutability": "nonpayable",
      "type": "function"
    },
    {
      "inputs": [
        {
          "internalType": "address payable",
          "name": "_issuer",
          "type": "address"
        },
        {
          "internalType": "string",
          "name": "_symbol",
          "type": "string"
        },
        {
          "internalType": "uint256",
          "name": "_amount",
          "type": "uint256"
        }
      ],
      "name": "buyForResale",
      "outputs": [],
      "stateMutability": "payable",
      "type": "function"
    },
    {
      "inputs": [
        {
          "internalType": "address",
          "name": "_issuer",
          "type": "address"
        },
        {
          "internalType": "string",
          "name": "_symbol",
          "type": "string"
        }
      ],
      "name": "getBalance",
      "outputs": [
        {
          "internalType": "uint256",
          "name": "",
          "type": "uint256"
        }
      ],
      "stateMutability": "view",
      "type": "function"
    },
    {
      "inputs": [
        {
          "internalType": "address",
          "name": "_issuer",
          "type": "address"
        },
        {
          "internalType": "string",
          "name": "_symbol",
          "type": "string"
        }
      ],
      "name": "getOfferingType",
      "outputs": [
        {
          "internalType": "enum OfferingTypeInterface.OfferingType",
          "name": "",
          "type": "uint8"
        }
      ],
      "stateMutability": "view",
      "type": "function"
    },
    {
      "inputs": [
        {
          "internalType": "address",
          "name": "_issuer",
          "type": "address"
        },
        {
          "internalType": "string",
          "name": "_symbol",
          "type": "string"
        }
      ],
      "name": "getOffering",
      "outputs": [
        {
          "components": [
            {
              "internalType": "contract IERC20",
              "name": "token",
              "type": "address"
            },
            {
              "internalType": "string",
              "name": "name",
              "type": "string"
            },
            {
              "internalType": "string",
              "name": "symbol",
              "type": "string"
            },
            {
              "internalType": "uint256",
              "name": "maxShares",
              "type": "uint256"
            },
            {
              "internalType": "enum OfferingTypeInterface.OfferingType",
              "name": "offeringType",
              "type": "uint8"
            },
            {
              "internalType": "uint256",
              "name": "minOffering",
              "type": "uint256"
            },
            {
              "internalType": "uint256",
              "name": "maxOffering",
              "type": "uint256"
            },
            {
              "internalType": "uint256",
              "name": "started",
              "type": "uint256"
            },
            {
              "internalType": "uint256",
              "name": "expiry",
              "type": "uint256"
            },
            {
              "internalType": "uint256",
              "name": "maxAccredited",
              "type": "uint256"
            },
            {
              "internalType": "uint256",
              "name": "maxSophisticated",
              "type": "uint256"
            },
            {
              "internalType": "uint256",
              "name": "maxNonAccredited",
              "type": "uint256"
            },
            {
              "internalType": "uint256",
              "name": "lastTimeRequest",
              "type": "uint256"
            },
            {
              "internalType": "uint256",
              "name": "outstanding",
              "type": "uint256"
            },
            {
              "internalType": "uint256",
              "name": "remaining",
              "type": "uint256"
            },
            {
              "internalType": "string",
              "name": "cusip",
              "type": "string"
            },
            {
              "internalType": "string",
              "name": "isin",
              "type": "string"
            },
            {
              "internalType": "address",
              "name": "issuer",
              "type": "address"
            },
            {
              "internalType": "bool",
              "name": "restricted",
              "type": "bool"
            },
            {
              "internalType": "bool",
              "name": "active",
              "type": "bool"
            },
            {
              "internalType": "uint256",
              "name": "price",
              "type": "uint256"
            },
            {
              "internalType": "uint256",
              "name": "bid",
              "type": "uint256"
            },
            {
              "internalType": "uint256",
              "name": "ask",
              "type": "uint256"
            },
            {
              "internalType": "uint256",
              "name": "fee",
              "type": "uint256"
            },
            {
              "internalType": "uint256",
              "name": "totalSupply",
              "type": "uint256"
            },
            {
              "internalType": "uint256",
              "name": "reserve",
              "type": "uint256"
            }
          ],
          "internalType": "struct OfferingInfoInterface.OfferingInfo",
          "name": "",
          "type": "tuple"
        }
      ],
      "stateMutability": "view",
      "type": "function"
    }
  ],
  "bytecode": "0x60a06040523480156200001157600080fd5b50604051620059ba380380620059ba83398101604081905262000034916200007d565b336080526000620000468282620001fa565b5050620002cc565b7f4e487b7100000000000000000000000000000000000000000000000000000000600052604160045260246000fd5b600060208083850312156200009157600080fd5b82516001604060020a0380821115620000a957600080fd5b818501915085601f830112620000be57600080fd5b815181811115620000d357620000d36200004e565b604051601f8201601f19908116603f01168101908382118183101715620000fe57620000fe6200004e565b8160405282815288868487010111156200011757600080fd5b600093505b828410156200013b57848401860151818501870152928501926200011c565b600086848301015280965050505050505092915050565b6002810460018216806200016757607f821691505b602082108103620001a1577f4e487b7100000000000000000000000000000000000000000000000000000000600052602260045260246000fd5b50919050565b601f821115620001f5576000818152602081206020601f86010481016020861015620001d05750805b6020601f860104820191505b81811015620001f157828155600101620001dc565b5050505b505050565b81516001604060020a038111156200021657620002166200004e565b6200022e8162000227845462000152565b84620001a7565b602080601f8311600181146200026a57600084156200024d5750858301515b60028086026008870290910a6000190419821617865550620001f1565b600085815260208120601f198616915b828110156200029b578886015182559484019460019091019084016200027a565b5085821015620002bc57878501516008601f88160260020a60001904191681555b5050505050600202600101905550565b6080516156c4620002f6600039600081816102110152818161129d01526134c501526156c46000f3fe6080604052600436106101b85760e060020a60003504630b0e34dd81146101bd57806310f2d3f7146101df578063117803e3146101ff5780631dd7cecf146102495780631f6eafc51461027757806320694db0146102ac5780632308d645146102cc57806327cb1b9b146102ec5780633169b5821461030c578063316c2d8d1461032c5780633290defe1461035957806332bcfbad1461037957806345d0edc914610399578063478a6d0d146103b95780634be0d8fa146103d957806361b82731146103ec578063629338901461040c5780636394f7981461042c578063772022581461044c578063785585011461045f578063834518381461047f57806384ce495f1461049257806389a84e57146104b25780638af75a1b146104df578063a1205a18146104ff578063a747b93b1461051f578063a85c88b31461053f578063acfa0d9c1461055f578063b03145991461057f578063b141fcdc1461059f578063b7482509146105bf578063ccce413b146105d2578063d58929f6146105ff578063d79e6cad1461061f578063ddcd82de1461063f578063df4dc20914610654578063edf4b4b014610674578063f2f802d514610694575b600080fd5b3480156101c957600080fd5b506101dd6101d8366004614a8b565b6106b4565b005b3480156101eb57600080fd5b506101dd6101fa366004614b00565b610842565b34801561020b57600080fd5b506102337f000000000000000000000000000000000000000000000000000000000000000081565b6040516102409190614b65565b60405180910390f35b34801561025557600080fd5b50610269610264366004614b79565b610902565b604051908152602001610240565b34801561028357600080fd5b50610297610292366004614b00565b610a0a565b60408051928352602083019190915201610240565b3480156102b857600080fd5b506101dd6102c7366004614bc8565b610f39565b3480156102d857600080fd5b506101dd6102e7366004614bc8565b611068565b3480156102f857600080fd5b506101dd610307366004614b00565b6111d2565b34801561031857600080fd5b506101dd610327366004614bc8565b611292565b34801561033857600080fd5b5061034c610347366004614b79565b6113b3565b6040516102409190614c25565b34801561036557600080fd5b50610269610374366004614b00565b61140f565b34801561038557600080fd5b506101dd610394366004614b00565b611424565b3480156103a557600080fd5b506101dd6103b4366004614b79565b611549565b3480156103c557600080fd5b506101dd6103d4366004614b00565b61162d565b6101dd6103e7366004614b00565b6116ef565b3480156103f857600080fd5b506101dd610407366004614b00565b611edc565b34801561041857600080fd5b506101dd610427366004614b00565b611f9c565b34801561043857600080fd5b506101dd610447366004614bc8565b61205e565b61026961045a366004614c33565b6121c8565b34801561046b57600080fd5b506101dd61047a366004614b00565b612aa2565b61026961048d366004614b79565b612b62565b34801561049e57600080fd5b506101dd6104ad366004614a8b565b612b75565b3480156104be57600080fd5b506104d26104cd366004614b79565b612ced565b6040516102409190614d03565b3480156104eb57600080fd5b506101dd6104fa366004614a8b565b6130c1565b34801561050b57600080fd5b506101dd61051a366004614b00565b61319b565b34801561052b57600080fd5b5061026961053a366004614bc8565b61325b565b34801561054b57600080fd5b506101dd61055a366004614b00565b613287565b34801561056b57600080fd5b506101dd61057a366004614bc8565b613347565b34801561058b57600080fd5b506101dd61059a366004614bc8565b6134ba565b3480156105ab57600080fd5b506101dd6105ba366004614b00565b6135ea565b6102696105cd366004614b79565b6136ac565b3480156105de57600080fd5b506105f26105ed366004614ec5565b613c1a565b6040516102409190614ede565b34801561060b57600080fd5b506101dd61061a366004614b79565b613cc6565b34801561062b57600080fd5b5061026961063a366004614ef1565b613df1565b34801561064b57600080fd5b506105f2613e32565b34801561066057600080fd5b506101dd61066f366004614b00565b613e3f565b34801561068057600080fd5b506101dd61068f366004614bc8565b613f01565b3480156106a057600080fd5b506101dd6106af366004614b79565b614030565b6106bc614108565b336000908152602091909152604090205460ff166106f85760405160e560020a62461bcd0281526004016106ef90614f23565b60405180910390fd5b610700614108565b600701600084600160a060020a0316600160a060020a03168152602001908152602001600020826040516107349190614f58565b9081526040519081900360200190206011015460ff60a860020a909104166107715760405160e560020a62461bcd0281526004016106ef90614f74565b8061077a614108565b600701600085600160a060020a0316600160a060020a03168152602001908152602001600020836040516107ae9190614f58565b9081526020016040518091039020600f0190816107cb9190615038565b5060008051602061564f8339815191526107e3614108565b600701600085600160a060020a0316600160a060020a03168152602001908152602001600020836040516108179190614f58565b90815260200160405180910390206002016040516108359190615179565b60405180910390a1505050565b61084a614108565b336000908152602091909152604090205460ff1661087d5760405160e560020a62461bcd0281526004016106ef90614f23565b80610886614108565b600701600085600160a060020a0316600160a060020a03168152602001908152602001600020836040516108ba9190614f58565b9081526020016040518091039020600901819055507f41acc76fc0d3dd22ff7cd4a7741a0dfc79d68bc7784f229e7319cb4f5803771b838383604051610835939291906151be565b600061090c614108565b600701600084600160a060020a0316600160a060020a03168152602001908152602001600020826040516109409190614f58565b9081526040519081900360200190206011015460ff60a860020a9091041661097d5760405160e560020a62461bcd0281526004016106ef906151f2565b610985614108565b336000908152600691909101602052604090206109a0614108565b600701600085600160a060020a0316600160a060020a03168152602001908152602001600020836040516109d49190614f58565b90815260200160405180910390206002016040516109f29190615227565b90815260200160405180910390205490505b92915050565b600080610a15614108565b336000908152600291909101602052604090205460ff1680610a525750610a3a614108565b336000908152600591909101602052604090205460ff165b610a715760405160e560020a62461bcd0281526004016106ef9061529d565b610a79614108565b600701600086600160a060020a0316600160a060020a0316815260200190815260200160002084604051610aad9190614f58565b9081526040519081900360200190206011015460ff60a860020a909104161580610b23575042610adb614108565b600701600087600160a060020a0316600160a060020a0316815260200190815260200160002085604051610b0f9190614f58565b908152602001604051809103902060080154105b610b975760405160e560020a62461bcd02815260206004820152603960248201527f7769746864726177616c73207065726d697474656420666f7220696e2d6163746044820152603960020a7834bb329037b91032bc3834b932b21037b33332b934b733b9970260648201526084016106ef565b82610ba0614108565b336000908152600a9190910160205260409020541015610bfc5760405160e560020a62461bcd0281526020600482015260116024820152607860020a706e6f7420656e6f756768207368617265730260448201526064016106ef565b3031610c06614108565b60090154610c149085615314565b610c1e919061533a565b9150610c28614108565b600701600086600160a060020a0316600160a060020a0316815260200190815260200160002084604051610c5c9190614f58565b9081526040519081900360200181205460e060020a6370a08231028252600160a060020a0316906370a0823190610c97903090600401614b65565b602060405180830381865afa158015610cb4573d6000803e3d6000fd5b505050506040513d601f19601f82011682018060405250810190610cd89190615351565b610ce0614108565b60090154610cee9085615314565b610cf8919061533a565b905082610d03614108565b600701600087600160a060020a0316600160a060020a0316815260200190815260200160002085604051610d379190614f58565b9081526020016040518091039020600d016000828254610d57919061536a565b90915550839050610d66614108565b336000908152600a91909101602052604081208054909190610d8990849061536a565b90915550839050610d98614108565b6009016000828254610daa919061536a565b90915550610db89050614108565b600701600086600160a060020a0316600160a060020a0316815260200190815260200160002084604051610dec9190614f58565b9081526040519081900360200181205460e060020a63a9059cbb028252600160a060020a03169063a9059cbb90610e29903390859060040161537d565b6020604051808303816000875af1158015610e48573d6000803e3d6000fd5b505050506040513d601f19601f82011682018060405250810190610e6c9190615396565b610e8b5760405160e560020a62461bcd0281526004016106ef906153b8565b604051600090339084908381818185875af1925050503d8060008114610ecd576040519150601f19603f3d011682016040523d82523d6000602084013e610ed2565b606091505b5050905080610ef65760405160e560020a62461bcd0281526004016106ef906153ea565b8183857f1dc8bb69df2b8e91fbdcbfcf93d951b3f0000f085a95fe3f7946d6161439245d33604051610f289190614b65565b60405180910390a450935093915050565b610f41614108565b336000908152602091909152604090205460ff16610f745760405160e560020a62461bcd0281526004016106ef90614f23565b610f7c614108565b600160a060020a0382166000908152600191909101602052604090205460ff1615610fec5760405160e560020a62461bcd02815260206004820152601d60248201527f6973737565722068617320616c7265616479206265656e20616464656400000060448201526064016106ef565b6001610ff6614108565b600160a060020a03831660008181526001929092016020908152604092839020805460ff191694151594909417909355815190815291820181905260069082015260d160020a6534b9b9bab2b902606082015260008051602061566f833981519152906080015b60405180910390a150565b611070614108565b336000908152602091909152604090205460ff16806110aa5750611092614108565b336000908152600591909101602052604090205460ff165b6110c95760405160e560020a62461bcd0281526004016106ef9061541a565b6110d1614108565b600160a060020a0382166000908152600491909101602052604090205460ff16156111505760405160e560020a62461bcd028152602060048201526024808201527f616666696c696174656420696e766573746f7220697320616c72656164792061604482015260e260020a63191919590260648201526084016106ef565b600161115a614108565b600160a060020a03831660008181526004929092016020908152604092839020805460ff1916941515949094179093558151908152918201819052601390820152606960020a7230b33334b634b0ba32b216b4b73b32b9ba37b902606082015260008051602061566f8339815191529060800161105d565b6111da614108565b336000908152602091909152604090205460ff1661120d5760405160e560020a62461bcd0281526004016106ef90614f23565b80611216614108565b600701600085600160a060020a0316600160a060020a031681526020019081526020016000208360405161124a9190614f58565b9081526020016040518091039020600b01819055507f7ecb4662542d7b087546a5778823c427375906b39277cdb58a1ba82d825d9bdb838383604051610835939291906151be565b33600160a060020a037f000000000000000000000000000000000000000000000000000000000000000016146112dd5760405160e560020a62461bcd0281526004016106ef90615465565b6112e5614108565b600160a060020a0382166000908152602091909152604090205460ff1615156001146113505760405160e560020a62461bcd0281526020600482015260146024820152606260020a731b9bdd0818481d1c985b9cd9995c881859d95b9d0260448201526064016106ef565b600061135a614108565b600160a060020a0383166000908152602091909152604090819020805460ff191692151592909217909155517f43eb85119429291324d6f5289dbaf9f35876512cd30259af9a62e439897a4df79061105d908390614b65565b60006113bd614108565b600701600084600160a060020a0316600160a060020a03168152602001908152602001600020826040516113f19190614f58565b9081526040519081900360200190206004015460ff16905092915050565b600061141c84848461412c565b949350505050565b61142c614108565b336000908152602091909152604090205460ff1661145f5760405160e560020a62461bcd0281526004016106ef90614f23565b6103e881106114c25760405160e560020a62461bcd02815260206004820152602360248201527f666565206d7573742062652067726561746572207468616e20312520283c3130604482015260e860020a623030290260648201526084016106ef565b806114cb614108565b600701600085600160a060020a0316600160a060020a03168152602001908152602001600020836040516114ff9190614f58565b9081526020016040518091039020601501819055507f0cbb3307ce35f168751c533ef46d0409b8f89ee2a38448e6065c3c9280a7ee12338484846040516108359493929190615490565b611551614108565b336000908152602091909152604090205460ff166115845760405160e560020a62461bcd0281526004016106ef90614f23565b600061158e614108565b600701600084600160a060020a0316600160a060020a03168152602001908152602001600020826040516115c29190614f58565b908152604051908190036020018120601101805492151560a060020a0260a060020a60ff0219909316929092179091557f8ee4bbe57da630d04f9d2869cb098cdfdfbd9fd26504d64f7a1bc473398b39bf9061162190849084906154cd565b60405180910390a15050565b611635614108565b336000908152602091909152604090205460ff166116685760405160e560020a62461bcd0281526004016106ef90614f23565b80611671614108565b600701600085600160a060020a0316600160a060020a03168152602001908152602001600020836040516116a59190614f58565b9081526020016040518091039020600501819055507fcc1bdfb7eae4a7d66cc9fcc05434467b274e32ce37ff334de7ed5f69bd401877338484846040516108359493929190615490565b6116f7614108565b336000908152600591909101602052604090205460ff1661175c5760405160e560020a62461bcd0281526020600482015260196024820152603960020a783737ba1030903b30b634b210313937b5b2b916b232b0b632b90260448201526064016106ef565b611764614108565b600701600084600160a060020a0316600160a060020a03168152602001908152602001600020826040516117989190614f58565b9081526040519081900360200190206011015460ff60a860020a909104166117d55760405160e560020a62461bcd0281526004016106ef906151f2565b806117de614108565b600701600085600160a060020a0316600160a060020a03168152602001908152602001600020836040516118129190614f58565b90815260200160405180910390206012015461182e919061533a565b3410156118805760405160e560020a62461bcd02815260206004820152601e60248201527f696e73756666696369656e742066756e647320746f207075726368617365000060448201526064016106ef565b600061188a614108565b600701600085600160a060020a0316600160a060020a03168152602001908152602001600020836040516118be9190614f58565b908152602001604051809103902060080154111561196f57426118df614108565b600701600085600160a060020a0316600160a060020a03168152602001908152602001600020836040516119139190614f58565b9081526020016040518091039020600801541061196f5760405160e560020a62461bcd0281526020600482015260146024820152606260020a731bd999995c9a5b99c81a185cc8195e1c1a5c99590260448201526064016106ef565b611977614108565b600701600084600160a060020a0316600160a060020a03168152602001908152602001600020826040516119ab9190614f58565b908152602001604051809103902060050154811015611a285760405160e560020a62461bcd02815260206004820152602d60248201527f707572636861736520616d6f756e74206973206c657373207468616e206d696e6044820152609860020a6c696d756d206f66666572696e670260648201526084016106ef565b611a30614108565b600701600084600160a060020a0316600160a060020a0316815260200190815260200160002082604051611a649190614f58565b9081526020016040518091039020600601548110611ae65760405160e560020a62461bcd02815260206004820152603360248201527f707572636861736520616d6f756e74206578636565647320746865206d6178696044820152606a60020a721b5d5b481bd999995c9a5b99c8185b5bdd5b9d0260648201526084016106ef565b611aee614108565b600701600084600160a060020a0316600160a060020a0316815260200190815260200160002082604051611b229190614f58565b9081526020016040518091039020600d0154611b3c614108565b600701600085600160a060020a0316600160a060020a0316815260200190815260200160002083604051611b709190614f58565b908152602001604051809103902060030154611b8c919061536a565b811115611bf15760405160e560020a62461bcd02815260206004820152602760248201527f6e6f7420656e6f75676820617661696c61626c652073686172657320746f2070604482015260c860020a66757263686173650260648201526084016106ef565b80611bfa614108565b600701600085600160a060020a0316600160a060020a0316815260200190815260200160002083604051611c2e9190614f58565b9081526020016040518091039020600d016000828254611c4e91906154f1565b90915550819050611c5d614108565b600701600085600160a060020a0316600160a060020a0316815260200190815260200160002083604051611c919190614f58565b9081526020016040518091039020600e016000828254611cb1919061536a565b90915550819050611cc0614108565b33600090815260069190910160205260409020611cdb614108565b600701600086600160a060020a0316600160a060020a0316815260200190815260200160002084604051611d0f9190614f58565b9081526020016040518091039020600201604051611d2d9190615227565b90815260200160405180910390206000828254611d4a91906154f1565b909155506000905081611d5b614108565b600701600086600160a060020a0316600160a060020a0316815260200190815260200160002084604051611d8f9190614f58565b908152602001604051809103902060120154611dab919061533a565b905060006103e8611dba614108565b600701600087600160a060020a0316600160a060020a0316815260200190815260200160002085604051611dee9190614f58565b908152602001604051809103902060150154611e0a9190615314565b611e14908361533a565b90506000611e22828461536a565b9050611e2c614108565b600701600087600160a060020a0316600160a060020a0316815260200190815260200160002085604051611e609190614f58565b90815260405190819003602001812060110154600160a060020a03169083156108fc029084906000818181858888f19350505050158015611ea5573d6000803e3d6000fd5b50604051309082156108fc029083906000818181858888f19350505050158015611ed3573d6000803e3d6000fd5b50505050505050565b611ee4614108565b336000908152602091909152604090205460ff16611f175760405160e560020a62461bcd0281526004016106ef90614f23565b80611f20614108565b600701600085600160a060020a0316600160a060020a0316815260200190815260200160002083604051611f549190614f58565b9081526020016040518091039020600801819055507f804bbd61e0cdc4e4b76af6f0473df1f2cc7e55c196435e73f8911bbb1e6876ce838383604051610835939291906151be565b611fa4614108565b336000908152602091909152604090205460ff16611fd75760405160e560020a62461bcd0281526004016106ef90614f23565b80611fe0614108565b600701600085600160a060020a0316600160a060020a03168152602001908152602001600020836040516120149190614f58565b9081526020016040518091039020601401819055507fb7ab1c3633c27f2c92c4e998906b43dcc6b76bb2497b08bf9e54a9131a450656338484846040516108359493929190615490565b612066614108565b336000908152602091909152604090205460ff16806120a05750612088614108565b336000908152600591909101602052604090205460ff165b6120bf5760405160e560020a62461bcd0281526004016106ef9061541a565b6120c7614108565b600160a060020a0382166000908152600291909101602052604090205460ff16156121465760405160e560020a62461bcd028152602060048201526024808201527f6163637265646974656420696e766573746f7220697320616c72656164792061604482015260e260020a63191919590260648201526084016106ef565b6001612150614108565b600160a060020a03831660008181526002929092016020908152604092839020805460ff1916941515949094179093558151908152918201819052601390820152606960020a7230b1b1b932b234ba32b216b4b73b32b9ba37b902606082015260008051602061566f8339815191529060800161105d565b60006121d2614108565b336000908152602091909152604090205460ff168061220c57506121f4614108565b336000908152600191909101602052604090205460ff165b61227d5760405160e560020a62461bcd02815260206004820152603660248201527f6e6f7420617574686f72697a65642c206d7573742062652074686520697373756044820152605260020a75195c881bdc8818481d1c985b9cd9995c881859d95b9d0260648201526084016106ef565b612285614108565b600701600087600160a060020a0316600160a060020a03168152602001908152602001600020836040516122b99190614f58565b9081526040519081900360200190206011015460ff60a860020a90910416156123275760405160e560020a62461bcd02815260206004820152601e60248201527f736563757269747920697320616c72656164792072656769737465726564000060448201526064016106ef565b83612330614108565b600701600088600160a060020a0316600160a060020a03168152602001908152602001600020846040516123649190614f58565b908152604080519182900360200182208054600160a060020a03948516600160a060020a031990911617905560e060020a6306fdde0302825251918616916306fdde0391600480820192600092909190829003018183875af11580156123ce573d6000803e3d6000fd5b505050506040513d6000823e601f3d908101601f191682016040526123f69190810190615504565b6123fe614108565b600701600088600160a060020a0316600160a060020a03168152602001908152602001600020846040516124329190614f58565b9081526020016040518091039020600101908161244f9190615038565b5082612459614108565b600701600088600160a060020a0316600160a060020a031681526020019081526020016000208460405161248d9190614f58565b908152602001604051809103902060020190816124aa9190615038565b50846124b4614108565b600701600088600160a060020a0316600160a060020a03168152602001908152602001600020846040516124e89190614f58565b908152604051908190036020019020600401805460ff1916600183601081111561251457612514614be5565b02179055506000612523614108565b600701600088600160a060020a0316600160a060020a03168152602001908152602001600020846040516125579190614f58565b908152604051908190036020019020600701556000612574614108565b600701600088600160a060020a0316600160a060020a03168152602001908152602001600020846040516125a89190614f58565b90815260200160405180910390206008018190555083600160a060020a03166318160ddd6040518163ffffffff1660e060020a028152600401602060405180830381865afa1580156125fe573d6000803e3d6000fd5b505050506040513d601f19601f820116820180604052508101906126229190615351565b61262a614108565b600701600088600160a060020a0316600160a060020a031681526020019081526020016000208460405161265e9190614f58565b90815260200160405180910390206003018190555083600160a060020a03166318160ddd6040518163ffffffff1660e060020a028152600401602060405180830381865afa1580156126b4573d6000803e3d6000fd5b505050506040513d601f19601f820116820180604052508101906126d89190615351565b6126e0614108565b600701600088600160a060020a0316600160a060020a03168152602001908152602001600020846040516127149190614f58565b9081526040519081900360200190206016015561272f614108565b336000908152600191909101602052604090205460ff16156127bf5733612754614108565b600701600088600160a060020a0316600160a060020a03168152602001908152602001600020846040516127889190614f58565b9081526040519081900360200190206011018054600160a060020a0392909216600160a060020a031990921691909117905561289c565b6127c7614108565b600160a060020a0387166000908152600191909101602052604090205460ff1661282c5760405160e560020a62461bcd0281526020600482015260106024820152608160020a6f3737ba103b30b634b21034b9b9bab2b90260448201526064016106ef565b85612835614108565b600701600088600160a060020a0316600160a060020a03168152602001908152602001600020846040516128699190614f58565b9081526040519081900360200190206011018054600160a060020a0392909216600160a060020a03199092169190911790555b600034116128e55760405160e560020a62461bcd0281526020600482015260106024820152608360020a6f0dccacac840e8de40e6cadcc8408aa890260448201526064016106ef565b8134146129355760405160e560020a62461bcd0281526020600482015260186024820152604060020a77696e636f72726563742065786368616e67652076616c75650260448201526064016106ef565b61293d614108565b600901541561298e5760405160e560020a62461bcd0281526020600482015260176024820152604a60020a7611115608185b1c9958591e481a5b9a5d1a585b1a5e99590260448201526064016106ef565b612996614108565b600701600087600160a060020a0316600160a060020a03168152602001908152602001600020836040516129ca9190614f58565b9081526040519081900360200181205460e060020a6323b872dd028252600160a060020a0316906323b872dd90612a099033903090879060040161557a565b6020604051808303816000875af1158015612a28573d6000803e3d6000fd5b505050506040513d601f19601f82011682018060405250810190612a4c9190615396565b612a6b5760405160e560020a62461bcd0281526004016106ef9061559e565b34612a74614108565b336000908152600a9190910160205260409020553031612a92614108565b6009018190559695505050505050565b612aaa614108565b336000908152602091909152604090205460ff16612add5760405160e560020a62461bcd0281526004016106ef90614f23565b80612ae6614108565b600701600085600160a060020a0316600160a060020a0316815260200190815260200160002083604051612b1a9190614f58565b9081526020016040518091039020600a01819055507ff4da1df4c0fb61c1020709d48e7e471aa339edb6b85935f969dac2c27206627d838383604051610835939291906151be565b6000612b6e8383614553565b9392505050565b612b7d614108565b336000908152602091909152604090205460ff16612bb05760405160e560020a62461bcd0281526004016106ef90614f23565b612bb8614108565b600701600084600160a060020a0316600160a060020a0316815260200190815260200160002082604051612bec9190614f58565b9081526040519081900360200190206011015460ff60a860020a90910416612c295760405160e560020a62461bcd0281526004016106ef90614f74565b80612c32614108565b600701600085600160a060020a0316600160a060020a0316815260200190815260200160002083604051612c669190614f58565b90815260200160405180910390206010019081612c839190615038565b5060008051602061564f833981519152612c9b614108565b600701600085600160a060020a0316600160a060020a0316815260200190815260200160002083604051612ccf9190614f58565b908152602001604051809103902060020160405161083591906155ca565b612cf56148c2565b612cfd614108565b600701600084600160a060020a0316600160a060020a0316815260200190815260200160002082604051612d319190614f58565b90815260408051918290036020908101832061034084019092528154600160a060020a0316835260018201805491840191612d6b90614fab565b80601f0160208091040260200160405190810160405280929190818152602001828054612d9790614fab565b8015612de45780601f10612db957610100808354040283529160200191612de4565b820191906000526020600020905b815481529060010190602001808311612dc757829003601f168201915b50505050508152602001600282018054612dfd90614fab565b80601f0160208091040260200160405190810160405280929190818152602001828054612e2990614fab565b8015612e765780601f10612e4b57610100808354040283529160200191612e76565b820191906000526020600020905b815481529060010190602001808311612e5957829003601f168201915b505050918352505060038201546020820152600482015460409091019060ff166010811115612ea757612ea7614be5565b6010811115612eb857612eb8614be5565b81526020016005820154815260200160068201548152602001600782015481526020016008820154815260200160098201548152602001600a8201548152602001600b8201548152602001600c8201548152602001600d8201548152602001600e8201548152602001600f82018054612f3090614fab565b80601f0160208091040260200160405190810160405280929190818152602001828054612f5c90614fab565b8015612fa95780601f10612f7e57610100808354040283529160200191612fa9565b820191906000526020600020905b815481529060010190602001808311612f8c57829003601f168201915b50505050508152602001601082018054612fc290614fab565b80601f0160208091040260200160405190810160405280929190818152602001828054612fee90614fab565b801561303b5780601f106130105761010080835404028352916020019161303b565b820191906000526020600020905b81548152906001019060200180831161301e57829003601f168201915b50505091835250506011820154600160a060020a038116602083015260ff60a060020a820481161515604084015260a860020a909104161515606082015260128201546080820152601382015460a0820152601482015460c0820152601582015460e0820152601682015461010082015260179091015461012090910152905092915050565b6130c9614108565b336000908152602091909152604090205460ff166130fc5760405160e560020a62461bcd0281526004016106ef90614f23565b6000613106614108565b600701600085600160a060020a0316600160a060020a031681526020019081526020016000208360405161313a9190614f58565b908152604051908190036020018120601101805492151560a860020a0260a860020a60ff0219909316929092179091557f5c3fb1c98a59c3f1ac4df0431516d5707c8c60ca80660897958e0ce344d072f8906108359085908590859061560e565b6131a3614108565b336000908152602091909152604090205460ff166131d65760405160e560020a62461bcd0281526004016106ef90614f23565b806131df614108565b600701600085600160a060020a0316600160a060020a03168152602001908152602001600020836040516132139190614f58565b9081526020016040518091039020600e01819055507fc644c36182fa78f40f5b671cdca0e3353ef035d6dbf5081ab98b9833fdcfcf28838383604051610835939291906151be565b6000613265614108565b600160a060020a039092166000908152600a9290920160205250604090205490565b61328f614108565b336000908152602091909152604090205460ff166132c25760405160e560020a62461bcd0281526004016106ef90614f23565b806132cb614108565b600701600085600160a060020a0316600160a060020a03168152602001908152602001600020836040516132ff9190614f58565b9081526020016040518091039020600d01819055507f9c9f29f5dfebc6df0ff357240bd68714f96cf59ed1b82f54d8a3b572d4be17a1838383604051610835939291906151be565b61334f614108565b336000908152602091909152604090205460ff16806133895750613371614108565b336000908152600591909101602052604090205460ff165b6133a85760405160e560020a62461bcd0281526004016106ef9061541a565b6133b0614108565b600160a060020a0382166000908152600391909101602052604090205460ff16156134345760405160e560020a62461bcd02815260206004820152602860248201527f6e6f6e2d6163637265646974656420696e766573746f7220697320616c726561604482015260c260020a67191e4818591919590260648201526084016106ef565b600161343e614108565b600160a060020a03831660008181526003929092016020908152604092839020805460ff1916941515949094179093558151908152918201819052601790820152604960020a763737b716b0b1b1b932b234ba32b21034b73b32b9ba37b902606082015260008051602061566f8339815191529060800161105d565b33600160a060020a037f000000000000000000000000000000000000000000000000000000000000000016146135055760405160e560020a62461bcd0281526004016106ef90615465565b61350d614108565b600160a060020a0382166000908152602091909152604090205460ff16156135875760405160e560020a62461bcd02815260206004820152602160248201527f416c72656164792061646465642061732061207472616e73666572206167656e604482015260fa60020a601d0260648201526084016106ef565b6001613591614108565b600160a060020a0383166000908152602091909152604090819020805460ff191692151592909217909155517f1e9fcacb7052d8badc53a7061f6dc79beafe00b872cc7d0a57c541023eb9eabc9061105d908390614b65565b6135f2614108565b336000908152602091909152604090205460ff166136255760405160e560020a62461bcd0281526004016106ef90614f23565b8061362e614108565b600701600085600160a060020a0316600160a060020a03168152602001908152602001600020836040516136629190614f58565b9081526020016040518091039020601301819055507f0a941c72e9dab7176425444d10194092ad850471dff62dccfa4ee184ce7cbf95338484846040516108359493929190615490565b60006136b6614108565b336000908152600291909101602052604090205460ff16806136f357506136db614108565b336000908152600591909101602052604090205460ff165b6137125760405160e560020a62461bcd0281526004016106ef9061529d565b61371a614108565b600701600084600160a060020a0316600160a060020a031681526020019081526020016000208260405161374e9190614f58565b9081526040516020918190039190910190206011015460a860020a900460ff1615156001146137d65760405160e560020a62461bcd02815260206004820152602860248201527f6465706f73697473207065726d697474656420666f7220616374697665206f66604482015260c160020a673332b934b733b9970260648201526084016106ef565b6137de614108565b600701600084600160a060020a0316600160a060020a03168152602001908152602001600020826040516138129190614f58565b9081526020016040518091039020600801546000148061387e575042613836614108565b600701600085600160a060020a0316600160a060020a031681526020019081526020016000208360405161386a9190614f58565b908152602001604051809103902060080154115b6138e35760405160e560020a62461bcd02815260206004820152602a60248201527f6465706f73697473207065726d697474656420666f7220756e65787069726564604482015260b060020a69206f66666572696e67730260648201526084016106ef565b600034116139325760405160e560020a62461bcd0281526020600482015260166024820152605060020a756e65656420746f2073656e64206c69717569646974790260448201526064016106ef565b34600061393d614108565b600701600086600160a060020a0316600160a060020a03168152602001908152602001600020846040516139719190614f58565b9081526040519081900360200181205460e060020a6370a08231028252600160a060020a0316906370a08231906139ac903090600401614b65565b602060405180830381865afa1580156139c9573d6000803e3d6000fd5b505050506040513d601f19601f820116820180604052508101906139ed9190615351565b905060006139fc34303161536a565b9050613a0883826154f1565b613a12838561533a565b613a1c9190615314565b9350600081613a29614108565b60090154613a37908661533a565b613a419190615314565b905080613a4c614108565b600701600089600160a060020a0316600160a060020a0316815260200190815260200160002087604051613a809190614f58565b9081526020016040518091039020600d016000828254613aa091906154f1565b90915550819050613aaf614108565b336000908152600a91909101602052604081208054909190613ad29084906154f1565b90915550819050613ae1614108565b6009016000828254613af391906154f1565b90915550613b019050614108565b600701600088600160a060020a0316600160a060020a0316815260200190815260200160002086604051613b359190614f58565b9081526040519081900360200181205460e060020a6323b872dd028252600160a060020a0316906323b872dd90613b7490339030908a9060040161557a565b6020604051808303816000875af1158015613b93573d6000803e3d6000fd5b505050506040513d601f19601f82011682018060405250810190613bb79190615396565b613bd65760405160e560020a62461bcd0281526004016106ef906153b8565b8434827f3bca7014f4c0ccc8016338c79f4c00e82068dbadaf4f01ca5449040fdd39f50033604051613c089190614b65565b60405180910390a45050505092915050565b60018181548110613c2a57600080fd5b906000526020600020016000915090508054613c4590614fab565b80601f0160208091040260200160405190810160405280929190818152602001828054613c7190614fab565b8015613cbe5780601f10613c9357610100808354040283529160200191613cbe565b820191906000526020600020905b815481529060010190602001808311613ca157829003601f168201915b505050505081565b613cce614108565b336000908152602091909152604090205460ff16613d015760405160e560020a62461bcd0281526004016106ef90614f23565b6001613d0b614108565b600701600084600160a060020a0316600160a060020a0316815260200190815260200160002082604051613d3f9190614f58565b908152604051908190036020019020601101805491151560a860020a0260a860020a60ff021990921691909117905542613d77614108565b600701600084600160a060020a0316600160a060020a0316815260200190815260200160002082604051613dab9190614f58565b9081526020016040518091039020600701819055507ffc708fca8a60a3db9c6d40d037e8b01b5ae409134e03367a2feae7437c03133982826040516116219291906154cd565b6000613dff6103e885615314565b94506000613e0d838761533a565b90506000613e1b87866154f1565b9050613e278183615314565b979650505050505050565b60008054613c4590614fab565b613e47614108565b336000908152602091909152604090205460ff16613e7a5760405160e560020a62461bcd0281526004016106ef90614f23565b80613e83614108565b600701600085600160a060020a0316600160a060020a0316815260200190815260200160002083604051613eb79190614f58565b9081526020016040518091039020600601819055507fa7c63f508bc01af71058058dacad79c29b57540d32d3871cdae80e4823301894338484846040516108359493929190615490565b613f09614108565b336000908152602091909152604090205460ff16613f3c5760405160e560020a62461bcd0281526004016106ef90614f23565b613f44614108565b600160a060020a0382166000908152600591909101602052604090205460ff1615613fb45760405160e560020a62461bcd02815260206004820152601e60248201527f62726f6b65722d6465616c657220697320616c7265616479206164646564000060448201526064016106ef565b6001613fbe614108565b600160a060020a03831660008181526005929092016020908152604092839020805460ff1916941515949094179093558151908152918201819052600d90820152609960020a6c313937b5b2b916b232b0b632b902606082015260008051602061566f8339815191529060800161105d565b614038614108565b336000908152602091909152604090205460ff1661406b5760405160e560020a62461bcd0281526004016106ef90614f23565b6001614075614108565b600701600084600160a060020a0316600160a060020a03168152602001908152602001600020826040516140a99190614f58565b908152604051908190036020018120601101805492151560a060020a0260a060020a60ff0219909316929092179091557f92b0864351252cb53db1ebd0da85fcd32d80afb737960294d40e6df0025849c59061162190849084906154cd565b7fdd0a0a5bbdd38da42f182db897d57bdc5dafdfad18739d4d6515df6a75b8bfca90565b60008082116141765760405160e560020a62461bcd0281526020600482015260106024820152608060020a6f6d7573742073656e6420746f6b656e730260448201526064016106ef565b61417e614108565b600701600085600160a060020a0316600160a060020a03168152602001908152602001600020836040516141b29190614f58565b9081526040519081900360200181205460e060020a6370a08231028252600160a060020a0316906370a08231906141ed903390600401614b65565b602060405180830381865afa15801561420a573d6000803e3d6000fd5b505050506040513d601f19601f8201168201806040525081019061422e9190615351565b82111561427a5760405160e560020a62461bcd0281526020600482015260146024820152606260020a731a5b9d985b1a59081d1bdad95b88185b5bdd5b9d0260448201526064016106ef565b61438b82614286614108565b600701600087600160a060020a0316600160a060020a03168152602001908152602001600020856040516142ba9190614f58565b9081526020016040518091039020601501546142d4614108565b600701600088600160a060020a0316600160a060020a03168152602001908152602001600020866040516143089190614f58565b9081526040519081900360200181205460e060020a6370a08231028252600160a060020a0316906370a0823190614343903090600401614b65565b602060405180830381865afa158015614360573d6000803e3d6000fd5b505050506040513d601f19601f820116820180604052508101906143849190615351565b3031613df1565b9050303181106143d45760405160e560020a62461bcd02815260206004820152600e6024820152609360020a6d0dcdee840cadcdeeaced0408aa890260448201526064016106ef565b6143dc614108565b600701600085600160a060020a0316600160a060020a03168152602001908152602001600020836040516144109190614f58565b9081526040519081900360200181205460e060020a6323b872dd028252600160a060020a0316906323b872dd9061444f9033903090879060040161557a565b6020604051808303816000875af115801561446e573d6000803e3d6000fd5b505050506040513d601f19601f820116820180604052508101906144929190615396565b6144b15760405160e560020a62461bcd0281526004016106ef906153b8565b604051600090339083908381818185875af1925050503d80600081146144f3576040519150601f19603f3d011682016040523d82523d6000602084013e6144f8565b606091505b505090508061451c5760405160e560020a62461bcd0281526004016106ef906153ea565b6040518390839033907f472303b1e7ca7d00fb77f255c0a8c577f9ca4264c0306aaed3ff18e831523a6d90600090a4509392505050565b600080341161459a5760405160e560020a62461bcd02815260206004820152600d6024820152609b60020a6c0daeae6e840e6cadcc8408aa890260448201526064016106ef565b6146b0346145a6614108565b600701600086600160a060020a0316600160a060020a03168152602001908152602001600020846040516145da9190614f58565b908152604051908190036020019020601501546145f834303161536a565b614600614108565b600701600088600160a060020a0316600160a060020a03168152602001908152602001600020866040516146349190614f58565b9081526040519081900360200181205460e060020a6370a08231028252600160a060020a0316906370a082319061466f903090600401614b65565b602060405180830381865afa15801561468c573d6000803e3d6000fd5b505050506040513d601f19601f8201168201806040525081019061063a9190615351565b90506146ba614108565b600701600084600160a060020a0316600160a060020a03168152602001908152602001600020826040516146ee9190614f58565b9081526040519081900360200181205460e060020a6370a08231028252600160a060020a0316906370a0823190614729903090600401614b65565b602060405180830381865afa158015614746573d6000803e3d6000fd5b505050506040513d601f19601f8201168201806040525081019061476a9190615351565b81106147b25760405160e560020a62461bcd0281526020600482015260116024820152607860020a706e6f7420656e6f75676820746f6b656e730260448201526064016106ef565b6147ba614108565b600701600084600160a060020a0316600160a060020a03168152602001908152602001600020826040516147ee9190614f58565b9081526040519081900360200181205460e060020a63a9059cbb028252600160a060020a03169063a9059cbb9061482b903390859060040161537d565b6020604051808303816000875af115801561484a573d6000803e3d6000fd5b505050506040513d601f19601f8201168201806040525081019061486e9190615396565b61488d5760405160e560020a62461bcd0281526004016106ef9061559e565b6040518190349033907f6d4870e9281c01ea54a4420c8684ac713b77f0c590b40c4b1fbf4c6ba892ccea90600090a492915050565b6040518061034001604052806000600160a060020a031681526020016060815260200160608152602001600081526020016000601081111561490657614906614be5565b81526020016000815260200160008152602001600081526020016000815260200160008152602001600081526020016000815260200160008152602001600081526020016000815260200160608152602001606081526020016000600160a060020a031681526020016000151581526020016000151581526020016000815260200160008152602001600081526020016000815260200160008152602001600081525090565b600160a060020a03811681146149c157600080fd5b50565b60e060020a634e487b710260009081526041600452602490fd5b604051601f8201601f191681016001604060020a0381118282101715614a0657614a066149c4565b604052919050565b60006001604060020a03821115614a2757614a276149c4565b50601f01601f191660200190565b600082601f830112614a4657600080fd5b8135614a59614a5482614a0e565b6149de565b818152846020838601011115614a6e57600080fd5b816020850160208301376000918101602001919091529392505050565b600080600060608486031215614aa057600080fd5b8335614aab816149ac565b925060208401356001604060020a0380821115614ac757600080fd5b614ad387838801614a35565b93506040860135915080821115614ae957600080fd5b50614af686828701614a35565b9150509250925092565b600080600060608486031215614b1557600080fd5b8335614b20816149ac565b925060208401356001604060020a03811115614b3b57600080fd5b614b4786828701614a35565b925050604084013590509250925092565b600160a060020a03169052565b600160a060020a0391909116815260200190565b60008060408385031215614b8c57600080fd5b8235614b97816149ac565b915060208301356001604060020a03811115614bb257600080fd5b614bbe85828601614a35565b9150509250929050565b600060208284031215614bda57600080fd5b8135612b6e816149ac565b60e060020a634e487b710260009081526021600452602490fd5b60118110614c215760e060020a634e487b710260009081526021600452602490fd5b9052565b60208101610a048284614bff565b600080600080600060a08688031215614c4b57600080fd5b8535614c56816149ac565b9450602086013560118110614c6a57600080fd5b93506040860135614c7a816149ac565b925060608601356001604060020a03811115614c9557600080fd5b614ca188828901614a35565b95989497509295608001359392505050565b60005b83811015614cce578181015183820152602001614cb6565b50506000910152565b60008151808452614cef816020860160208601614cb3565b601f01601f19169290920160200192915050565b60208152614d15602082018351614b58565b60006020830151610340806040850152614d33610360850183614cd7565b91506040850151601f1980868503016060870152614d518483614cd7565b93506060870151608087015260808701519150614d7160a0870183614bff565b60a087015160c08781019190915287015160e08088019190915287015161010080880191909152870151610120808801919091528701516101408088019190915287015161016080880191909152870151610180808801919091528701516101a0808801919091528701516101c0808801919091528701516101e080880191909152870151868503820161020080890191909152909250614e128584614cd7565b945080880151925050610220818786030181880152614e318584614cd7565b94508088015192505050610240614e4a81870183614b58565b8601519050610260614e5f8682018315159052565b8601519050610280614e748682018315159052565b8601516102a0868101919091528601516102c0808701919091528601516102e08087019190915286015161030080870191909152860151610320808701919091529095015193019290925250919050565b600060208284031215614ed757600080fd5b5035919050565b602081526000612b6e6020830184614cd7565b60008060008060808587031215614f0757600080fd5b5050823594602084013594506040840135936060013592509050565b6020808252601890820152604260020a771b9bdd081d985b1a59081d1c985b9cd9995c881859d95b9d02604082015260600190565b60008251614f6a818460208701614cb3565b9190910192915050565b6020808252601a908201527f7365637572697479206973206e6f742072656769737465726564000000000000604082015260600190565b600281046001821680614fbf57607f821691505b602082108103614fe35760e060020a634e487b710260009081526022600452602490fd5b50919050565b601f821115615033576000818152602081206020601f860104810160208610156150105750805b6020601f860104820191505b8181101561502f5782815560010161501c565b5050505b505050565b81516001604060020a03811115615051576150516149c4565b6150658161505f8454614fab565b84614fe9565b602080601f83116001811461509e57600084156150825750858301515b60028086026008870290910a600019041982161786555061502f565b600085815260208120601f198616915b828110156150cd578886015182559484019460019091019084016150ae565b50858210156150ed57878501516008601f88160260020a60001904191681555b5050505050600202600101905550565b6000815461510a81614fab565b80855260206001838116801561512757600181146151405761516e565b60ff19851688840152831515830288018301955061516e565b866000528260002060005b858110156151665781548a820186015290830190840161514b565b890184019650505b505050505092915050565b60408152600061518c60408301846150fd565b8281036020840152600d8152609a60020a6c10d554d254081d5c19185d19590260208201526040810191505092915050565b600160a060020a03841681526060602082018190526000906151e290830185614cd7565b9050826040830152949350505050565b6020808252601890820152604060020a776f66666572696e6720646f6573206e6f742065786973747302604082015260600190565b600080835461523581614fab565b6001828116801561524d576001811461526257615291565b60ff1984168752821515830287019450615291565b8760005260208060002060005b858110156152885781548a82015290840190820161526f565b50505082870194505b50929695505050505050565b6020808252603c908201527f756e617574686f72697a65642e206e6f7420616e20616363726564697465642060408201527f696e766573746f72206e6f7220612062726f6b65722d6465616c657200000000606082015260800190565b60e060020a634e487b710260009081526011600452602490fd5b6000826153355760e060020a634e487b710260009081526012600452602490fd5b500490565b8082028115828204841417610a0457610a046152fa565b60006020828403121561536357600080fd5b5051919050565b81810381811115610a0457610a046152fa565b600160a060020a03929092168252602082015260400190565b6000602082840312156153a857600080fd5b81518015158114612b6e57600080fd5b6020808252601590820152605a60020a741d1bdad95b881d1c985b9cd9995c8819985a5b195902604082015260600190565b6020808252601390820152606a60020a72115512081d1c985b9cd9995c8819985a5b195902604082015260600190565b60208082526028908201527f6e6f742061207472616e73666572206167656e74206e6f7220612062726f6b65604082015260c160020a673916b232b0b632b902606082015260800190565b6020808252600e90820152609260020a6d1b9bdd08185d5d1a1bdc9a5e995902604082015260600190565b600160a060020a038581168252841660208201526080604082018190526000906154bc90830185614cd7565b905082606083015295945050505050565b600160a060020a038316815260406020820181905260009061141c90830184614cd7565b80820180821115610a0457610a046152fa565b60006020828403121561551657600080fd5b81516001604060020a0381111561552c57600080fd5b8201601f8101841361553d57600080fd5b805161554b614a5482614a0e565b81815285602083850101111561556057600080fd5b615571826020830160208601614cb3565b95945050505050565b600160a060020a039384168152919092166020820152604081019190915260600190565b6020808252600f90820152608a60020a6e1d1c985b9cd9995c8819985a5b195902604082015260600190565b6040815260006155dd60408301846150fd565b8281036020840152600c815260a260020a6b1254d253881d5c19185d19590260208201526040810191505092915050565b600160a060020a038416815260606020820181905260009061563290830185614cd7565b82810360408401526156448185614cd7565b969550505050505056fe01827b84ffeabaf7c1bc8523e78dab11b8cfaee8b6b25b6aa4a28fea32b840cb2560fc858fc2c1e090fffd0312888791019bfe76df7391fa3c0d69e428a95948a2646970667358221220c24ea5323f9caea41737f29313138796d74aa43c425ae4a7adc20930ffaa32fd64736f6c63430008120033",
  "immutableReferences": {
    "16617": [
      {
        "length": 32,
        "start": 529
      },
      {
        "length": 32,
        "start": 4765
      },
      {
        "length": 32,
        "start": 13509
      }
    ]
  },
  "source": "// SPDX-License-Identifier: CC-BY-4.0\npragma solidity >=0.7.0 <0.9.0;\n\ninterface OfferingTypeInterface {\n    enum OfferingType {\n        SECTION3A11,\n        RULE147,\n        RULE147A,\n        SECTION4A2,\n        RULE504,\n        RULE505,\n        RULE506B,\n        RULE506C,\n        RULE701,\n        REGAT1,\n        REGAT2,\n        REGS,\n        REGCF,\n        S1,\n        S3,\n        F1,\n        F3\n    }\n}\n\ninterface IERC20 {\n    function totalSupply() external view returns (uint256);\n    function balanceOf(address account) external view returns (uint256);\n    function allowance(address owner, address spender) external view returns (uint256);\n    function transfer(address recipient, uint256 amount) external returns (bool);\n    function approve(address spender, uint256 amount) external returns (bool);\n    function transferFrom(address sender, address recipient, uint256 tokens) external returns (bool);\n\n    function name() external returns (string memory);\n    function symbol() external returns (string memory);\n\n    event Transfer(address indexed from, address indexed to, uint256 tokens);\n    event Approval(address indexed tokenOwner, address indexed spender, uint256 tokens);\n    event Buyerlist(address indexed tokenHolder);\n    event issueDivi(address indexed tokenHolder,uint256 amount);\n    event startSale(uint256 fromtime,uint256 totime,uint256 rate,uint256 supply);\n}\n\n\ninterface OfferingInfoInterface {\n    struct OfferingInfo {\n        IERC20          token;\n        string          name;\n        string          symbol;\n        uint256         maxShares;\n        OfferingTypeInterface.OfferingType    offeringType;\n        uint256         minOffering;\n        uint256         maxOffering;\n        uint256         started;            // epoch timestamp\n        uint256         expiry;             // epoch timestamp, 0=no expiry\n        uint256         maxAccredited;\n        uint256         maxSophisticated;\n        uint256         maxNonAccredited;\n        uint256         lastTimeRequest;\n        uint256         outstanding;\n        uint256         remaining;\n        string          cusip;\n        string          isin;\n        address         issuer;\n        bool            restricted;\n        bool            active;\n        uint256         price; // initial share price\n        uint256         bid;\n        uint256         ask;\n        uint256         fee; // transfer fee\n        uint256         totalSupply;\n        uint256         reserve;\n    }    \n}\n\n\ncontract ATS {\n\n    string public TRADING_SYSTEM;\n\n    address public immutable OWNER;\n\n    string[] public symbols;\n\n    struct ATSStorage {\n        mapping (address => bool) transferAgent;\n\n        mapping (address => bool) issuers;\n        mapping (address => bool) accredited_investors;\n        mapping (address => bool) nonaccredited_investors;\n        mapping (address => bool) affiliated_investors;\n        mapping (address => bool) broker_dealers;\n\n        mapping (address => mapping (string => uint256)) balances;\n        mapping (address => mapping (string => OfferingInfoInterface.OfferingInfo)) offering;\n        mapping (address => uint256) fee;\n\n        // liquidity\n        uint256 totalLiquidity;\n        mapping(address => uint256) liquidity;\n    }\n\n    function atsStorage() internal pure returns (ATSStorage storage ds)\n    {\n        bytes32 position = keccak256(\"ats.storage\");\n        assembly { ds.slot := position }\n    }\n\n\n    event SelfDestructing(string reason,uint256 amount);\n    event TransferAgentAdded(address newAgent);\n    event TransferAgentDisabled(address transferAgent);\n    event InvestorAdded(address investor,string investor_type);\n    event NewIssuerRegistered(address issuer);\n    event NewSecurityRegistered(string symbol,address issuer,uint256 shares);\n    event SecurityUpdated(string symbol,string action);\n    event TransferFeeChange(address sender,address issuer,string symbol,uint256 fee);\n    event TradingEnabled(address issuer,string symbol);\n    event TradingStopped(address issuer,string symbol,string reason);\n    event ExpiryUpdated(address issuer,string symbol,uint256 expiry);\n    event MaximumAccreditedInvestorsUpdated(address issuer,string symbol,uint256 maxInvestors);\n    event MaximumSophisticatedInvestorsUpdated(address issuer,string symbol,uint256 maxInvestors);\n    event MaximumNonAccreditedInvestorsUpdated(address issuer,string symbol,uint256 maxInvestors);\n    event OutstandingSharesUpdated(address issuer,string symbol,uint256 shares);\n    event RemainingSharesUpdated(address issuer,string symbol,uint256 shares);\n    event SecuirtyIsRestricted(address issuer,string symbol);\n    event SecurityIsUnrestricted(address issuer,string symbol);\n    event BidPriceUpdated(address transferAgent,address issuer,string symbol,uint256 bid);\n    event AskPriceUpdated(address transferAgent,address issuer,string symbol,uint256 ask);\n    event MinOfferingAmountUpdated(address transferAgent,address issuer,string symbol,uint256 amount);\n    event MaxOfferingAmountUpdated(address transferAgent,address issuer,string symbol,uint256 amount);\n\n    event EthToTokenSwap(address indexed swapper,uint256 indexed ethInput,uint256 indexed tokenOutput);\n    event TokenToEthSwap(address indexed swapper,uint256 indexed tokensInput,uint256 indexed ethOutput);\n    event LiquidityProvided(address liquidityProvider,uint256 indexed tokensInput,uint256 indexed ethInput,uint256 indexed liquidityMinted);\n    event LiquidityRemoved(address liquidityRemover,uint256 indexed tokensOutput,uint256 indexed ethOutput,uint256 indexed liquidityWithdrawn);\n\n\n    constructor(string memory _tradingSystemName) {\n        OWNER = msg.sender;\n        TRADING_SYSTEM = _tradingSystemName;\n    }\n\n    modifier isOwner() {\n        require(msg.sender == OWNER,\"not authorized\");\n        _;\n    }\n\n    modifier isTransferAgent() {\n        require(atsStorage().transferAgent[msg.sender],\"not valid transfer agent\");\n        _;\n    }\n\n    modifier isIssuer() {\n        require(atsStorage().issuers[msg.sender],\"not a permitted issuer\");\n        _;\n    }\n\n    modifier isIssuerOrTransferAgent() {\n        require(atsStorage().transferAgent[msg.sender] || atsStorage().issuers[msg.sender],\"not authorized, must be the issuer or a transfer agent\");\n        _;\n    }\n\n    modifier isBrokerDealer() {\n        require(atsStorage().broker_dealers[msg.sender],\"not a valid broker-dealer\");\n        _;\n    }\n\n    modifier isAccreditedInvestorOrBrokerDealer() {\n        require(atsStorage().accredited_investors[msg.sender] || atsStorage().broker_dealers[msg.sender],\"unauthorized. not an accredited investor nor a broker-dealer\");\n        _;\n    }\n\n    modifier isTransferAgentOrBrokerDealer() {\n        require(atsStorage().transferAgent[msg.sender] || atsStorage().broker_dealers[msg.sender],\"not a transfer agent nor a broker-dealer\");\n        _;\n    }\n\n    /*\n     * A Transfer Agent is required. The transfer agent can be the issuer or registered broker-dealer, before a \n     * new security is registered.\n     */\n    function addTransferAgent(address _transferAgent) public isOwner {\n        require(atsStorage().transferAgent[_transferAgent] == false,\"Already added as a transfer agent\");\n        atsStorage().transferAgent[_transferAgent] = true;\n        emit TransferAgentAdded(_transferAgent);\n    }\n    function disableTransferAgent(address _transferAgent) public isOwner {\n        require(atsStorage().transferAgent[_transferAgent] == true,\"not a transfer agent\");\n        atsStorage().transferAgent[_transferAgent] = false;\n        emit TransferAgentDisabled(_transferAgent);\n    }\n    /*\n     * An issuer must be added before a new security can be registered. Only the transfer agent can add an issuer.\n     */\n    function addIssuer(address _issuer) public isTransferAgent {\n        require(atsStorage().issuers[_issuer] == false,\"issuer has already been added\");\n        atsStorage().issuers[_issuer] = true;\n        emit InvestorAdded(_issuer, \"issuer\");\n    }\n    /*\n     */\n    function registerSecurity(address _issuer, OfferingTypeInterface.OfferingType _offeringType,address _token,string memory _symbol,uint256 tokens) public payable isIssuerOrTransferAgent returns (uint256) {\n        require(atsStorage().offering[_issuer][_symbol].active == false,\"security is already registered\");\n    \n        atsStorage().offering[_issuer][_symbol].token = IERC20(_token);\n        atsStorage().offering[_issuer][_symbol].name = IERC20(_token).name();\n        atsStorage().offering[_issuer][_symbol].symbol = _symbol;\n        atsStorage().offering[_issuer][_symbol].offeringType = _offeringType;\n        atsStorage().offering[_issuer][_symbol].started = 0;\n        atsStorage().offering[_issuer][_symbol].expiry = 0;\n        atsStorage().offering[_issuer][_symbol].maxShares = IERC20(_token).totalSupply();\n        atsStorage().offering[_issuer][_symbol].totalSupply = IERC20(_token).totalSupply();\n    \n        if (atsStorage().issuers[msg.sender]) {\n            // issuer is registering the offering\n            atsStorage().offering[_issuer][_symbol].issuer = msg.sender;\n        } else {\n            // transfer agent is registering the offering\n            require(atsStorage().issuers[_issuer],\"not valid issuer\");\n            atsStorage().offering[_issuer][_symbol].issuer = _issuer;\n        }\n\n        // initializing liquidity\n        require(msg.value > 0, \"need to send ETH\");\n        require(msg.value == tokens, \"incorrect exchange value\");\n        require(atsStorage().totalLiquidity == 0, \"DEX already initialized\");\n        require(\n            atsStorage().offering[_issuer][_symbol].token.transferFrom(msg.sender, address(this), tokens),\n            \"transfer failed\"\n        );\n        atsStorage().liquidity[msg.sender] = msg.value;\n        return atsStorage().totalLiquidity = address(this).balance;\n    }\n\n    /**\n     * @notice returns yOutput, or yDelta for xInput (or xDelta)\n     */\n    function price(\n        uint256 xInput,\n        uint256 xFee,\n        uint256 xReserves,\n        uint256 yReserves\n    ) public pure returns (uint256 yOutput) {\n        // 0.3% trading fee\n        xInput = xFee / 1000;\n        uint256 numerator = xInput * yReserves;\n        uint256 denominator = xReserves + xInput;\n        return numerator / denominator;\n    }\n\n    /**\n     * @notice returns liquidity for a user.\n     */\n    function getLiquidity(address lp) public view returns (uint256) {\n        return atsStorage().liquidity[lp];\n    }\n\n    function buy(address _issuer,string memory _symbol) public payable returns (uint256 tokenOutput) {\n        return ethToToken(_issuer,_symbol);\n    }\n    /**\n     * @notice sends Ether to DEX in exchange for token\n     */\n    function ethToToken(address _issuer,string memory _symbol) private returns (uint256 tokenOutput) {\n        require(msg.value > 0, \"must send ETH\");\n        tokenOutput = price(\n            msg.value,\n            atsStorage().offering[_issuer][_symbol].fee,\n            (address(this).balance - msg.value),\n            atsStorage().offering[_issuer][_symbol].token.balanceOf(address(this))\n        );\n        require(\n            tokenOutput < atsStorage().offering[_issuer][_symbol].token.balanceOf(address(this)),\n            \"not enough tokens\"\n        );\n        require(atsStorage().offering[_issuer][_symbol].token.transfer(msg.sender, tokenOutput), \"transfer failed\");\n        emit EthToTokenSwap(\n            msg.sender,\n            msg.value,\n            tokenOutput\n        );\n    }\n\n    function sell(address _issuer,string memory _symbol,uint256 amountTokens) public returns (uint256 ethOutput) {\n        return tokenToEth(_issuer,_symbol,amountTokens);        \n    }\n\n    /**\n     * @notice sends token to DEX in exchange for Ether\n     */\n    function tokenToEth(address _issuer,string memory _symbol,uint256 tokenInput) private returns (uint256 ethOutput) {\n        require(tokenInput > 0, \"must send tokens\");\n        require(\n            tokenInput <= atsStorage().offering[_issuer][_symbol].token.balanceOf(msg.sender),\n            \"invalid token amount\"\n        );\n        ethOutput = price(\n            tokenInput,\n            atsStorage().offering[_issuer][_symbol].fee,\n            atsStorage().offering[_issuer][_symbol].token.balanceOf(address(this)),\n            address(this).balance\n        );\n        require(ethOutput < address(this).balance, \"not enough ETH\");\n        require(\n            atsStorage().offering[_issuer][_symbol].token.transferFrom(msg.sender, address(this), tokenInput),\n            \"token transfer failed\"\n        );\n        (bool success, ) = payable(msg.sender).call{value: ethOutput}(\"\");\n        require(success, \"ETH transfer failed\");\n        emit TokenToEthSwap(\n            msg.sender,\n            ethOutput,\n            tokenInput\n        );\n    }\n\n    /**\n     * @notice allows deposits of token and ETH to liquidity pool\n     */\n    function deposit(address _issuer,string memory _symbol) public payable isAccreditedInvestorOrBrokerDealer returns (uint256 tokensDeposited) {\n        // deposit to liquidity permitted for active and non-expired offerings\n        require(atsStorage().offering[_issuer][_symbol].active == true,\"deposits permitted for active offerings.\");\n        require(atsStorage().offering[_issuer][_symbol].expiry == 0 || atsStorage().offering[_issuer][_symbol].expiry > block.timestamp,\"deposits permitted for unexpired offerings\");\n\n        require(msg.value > 0, \"need to send liquidity\");\n        uint256 dy = msg.value;\n        uint256 x = atsStorage().offering[_issuer][_symbol].token.balanceOf(address(this)); // token reserves\n        uint256 y = address(this).balance - msg.value; // ETH reserves\n        tokensDeposited = ((dy * x) / (y + dy));\n        uint256 shares = (dy * atsStorage().totalLiquidity) / y;\n        atsStorage().offering[_issuer][_symbol].outstanding += shares;\n        atsStorage().liquidity[msg.sender] += shares;\n        atsStorage().totalLiquidity += shares;\n        require(\n            atsStorage().offering[_issuer][_symbol].token.transferFrom(msg.sender, address(this), tokensDeposited),\n            \"token transfer failed\"\n        );\n        emit LiquidityProvided(msg.sender, shares, msg.value, tokensDeposited);\n    }\n\n    /**\n     * @notice allows withdrawal of tokens and ETH from liquidity pool\n     */\n    function withdraw(address _issuer,string memory _symbol,uint256 amount)\n        public\n        isAccreditedInvestorOrBrokerDealer\n        returns (uint256 eth_amount, uint256 token_amount)\n    {\n        // withdrawals permitted for in-active or expired offerings\n        require(atsStorage().offering[_issuer][_symbol].active == false || atsStorage().offering[_issuer][_symbol].expiry < block.timestamp,\"withdrawals permitted for in-active or expired offerings.\");\n        require(atsStorage().liquidity[msg.sender] >= amount, \"not enough shares\");\n        // dy = s / T * y\n        // dx = s / T * X\n        eth_amount = (amount / atsStorage().totalLiquidity) * address(this).balance;\n        token_amount =\n            (amount / atsStorage().totalLiquidity) *\n            atsStorage().offering[_issuer][_symbol].token.balanceOf(address(this));\n        atsStorage().offering[_issuer][_symbol].outstanding -= amount;\n        atsStorage().liquidity[msg.sender] -= amount;\n        atsStorage().totalLiquidity -= amount;\n        require(\n            atsStorage().offering[_issuer][_symbol].token.transfer(msg.sender, token_amount),\n            \"token transfer failed\"\n        );\n        (bool success, ) = payable(msg.sender).call{value: eth_amount}(\"\");\n        require(success, \"ETH transfer failed\");\n        emit LiquidityRemoved(msg.sender, amount, eth_amount, token_amount);\n    }    \n\n    function updateCUSIP(address _issuer,string memory _symbol,string memory _cusip) public isTransferAgent {\n        require(atsStorage().offering[_issuer][_symbol].active,\"security is not registered\");\n        atsStorage().offering[_issuer][_symbol].cusip = _cusip;\n        emit SecurityUpdated(atsStorage().offering[_issuer][_symbol].symbol, \"CUSIP updated\");\n    }\n\n    function updateISIN(address _issuer,string memory _symbol,string memory _isin) public isTransferAgent {\n        require(atsStorage().offering[_issuer][_symbol].active,\"security is not registered\");\n        atsStorage().offering[_issuer][_symbol].isin = _isin;\n        emit SecurityUpdated(atsStorage().offering[_issuer][_symbol].symbol, \"ISIN updated\");\n    }\n\n    function setExpiry(address _issuer,string memory _symbol,uint256 _expiry) public isTransferAgent {\n        atsStorage().offering[_issuer][_symbol].expiry = _expiry;\n        emit ExpiryUpdated(_issuer,_symbol,_expiry);\n    }\n\n    function startAcceptionTrades(address _issuer,string memory _symbol)  public isTransferAgent {\n        atsStorage().offering[_issuer][_symbol].active = true;\n        atsStorage().offering[_issuer][_symbol].started = block.timestamp;\n        emit TradingEnabled(_issuer,_symbol);        \n    }\n    function stopAcceptingTrades(address _issuer,string memory _symbol,string memory _reason) public isTransferAgent {\n        atsStorage().offering[_issuer][_symbol].active = false;\n        emit TradingStopped(_issuer,_symbol,_reason);\n    }    \n    function setMaxAccreditedInvestors(address _issuer,string memory _symbol,uint256 _maxInvestors) public isTransferAgent {\n        atsStorage().offering[_issuer][_symbol].maxAccredited = _maxInvestors;\n        emit MaximumAccreditedInvestorsUpdated(_issuer,_symbol,_maxInvestors);\n    }\n    function setMaxSophisticatedInvestors(address _issuer,string memory _symbol,uint256 _maxInvestors) public isTransferAgent {\n        atsStorage().offering[_issuer][_symbol].maxSophisticated = _maxInvestors;\n        emit MaximumSophisticatedInvestorsUpdated(_issuer,_symbol,_maxInvestors);\n    }\n    function setMaxNonAccreditedInvestors(address _issuer,string memory _symbol,uint256 _maxInvestors) public isTransferAgent {\n        atsStorage().offering[_issuer][_symbol].maxNonAccredited = _maxInvestors;\n        emit MaximumNonAccreditedInvestorsUpdated(_issuer,_symbol,_maxInvestors);\n    }\n    function updateOutstandingShares(address _issuer,string memory _symbol,uint256 _shares) public isTransferAgent {\n        atsStorage().offering[_issuer][_symbol].outstanding = _shares;\n        emit OutstandingSharesUpdated(_issuer,_symbol,_shares);\n    }\n    function updateRemainingShares(address _issuer,string memory _symbol,uint256 _shares) public isTransferAgent {\n        atsStorage().offering[_issuer][_symbol].remaining = _shares;\n        emit RemainingSharesUpdated(_issuer,_symbol,_shares);\n    }\n    function setRestrictedSecurity(address _issuer,string memory _symbol) public isTransferAgent {\n        atsStorage().offering[_issuer][_symbol].restricted = true;\n        emit SecuirtyIsRestricted(_issuer,_symbol);\n    }\n    function setUnRestrictedSecurity(address _issuer,string memory _symbol) public isTransferAgent {\n        atsStorage().offering[_issuer][_symbol].restricted = false;\n        emit SecurityIsUnrestricted(_issuer,_symbol);\n    }\n\n    /*\n     * Investor types\n     */\n    function addAcreditedInvestor(address _investor) public isTransferAgentOrBrokerDealer {\n        require(atsStorage().accredited_investors[_investor] == false,\"accredited investor is already added\");\n        atsStorage().accredited_investors[_investor] = true;\n        emit InvestorAdded(_investor, \"accredited-investor\");\n    }\n    function addNonAccreditedInvestor(address _investor) public isTransferAgentOrBrokerDealer {\n        require(atsStorage().nonaccredited_investors[_investor] == false,\"non-accredited investor is already added\");\n        atsStorage().nonaccredited_investors[_investor] = true;\n        emit InvestorAdded(_investor, \"non-accredited investor\");\n    }\n    function addAffiliatedInvestor(address _investor) public isTransferAgentOrBrokerDealer {\n        require(atsStorage().affiliated_investors[_investor] == false,\"affiliated investor is already added\");\n        atsStorage().affiliated_investors[_investor] = true;\n        emit InvestorAdded(_investor, \"affiliated-investor\");\n    }\n    function addBrokerDealer(address _brokerDealer) public isTransferAgent {\n        require(atsStorage().broker_dealers[_brokerDealer] == false,\"broker-dealer is already added\");\n        atsStorage().broker_dealers[_brokerDealer] = true;\n        emit InvestorAdded(_brokerDealer, \"broker-dealer\");\n    }\n    function setFee(address _issuer,string memory _symbol,uint256 _fee) public isTransferAgent {\n        require(_fee < 1000,\"fee must be greater than 1% (<1000)\");\n        atsStorage().offering[_issuer][_symbol].fee = _fee;\n        emit TransferFeeChange(msg.sender,_issuer,_symbol,_fee);\n    }\n    function setBid(address _issuer,string memory _symbol,uint256 _bid) public isTransferAgent {\n        atsStorage().offering[_issuer][_symbol].bid = _bid;\n        emit BidPriceUpdated(msg.sender,_issuer,_symbol,_bid);\n    }\n    function setAsk(address _issuer,string memory _symbol,uint256 _ask) public isTransferAgent {\n        atsStorage().offering[_issuer][_symbol].ask = _ask;\n        emit AskPriceUpdated(msg.sender,_issuer,_symbol,_ask);\n    }\n    function setMinOfferingAmount(address _issuer,string memory _symbol,uint256 _amount) public isTransferAgent {\n        atsStorage().offering[_issuer][_symbol].minOffering = _amount;\n        emit MinOfferingAmountUpdated(msg.sender,_issuer,_symbol,_amount);\n    }\n    function setMaxOfferingAmount(address _issuer,string memory _symbol,uint256 _amount) public isTransferAgent {\n        atsStorage().offering[_issuer][_symbol].maxOffering = _amount;\n        emit MaxOfferingAmountUpdated(msg.sender,_issuer,_symbol,_amount);\n    }\n\n    function buyForResale(address payable _issuer,string memory _symbol,uint256 _amount) public payable isBrokerDealer {\n        require(atsStorage().offering[_issuer][_symbol].active,\"offering does not exists\");\n        require(msg.value >= atsStorage().offering[_issuer][_symbol].price * _amount,\"insufficient funds to purchase\");\n        //require(atsStorage().offering[_issuer][_symbol].started > 0,\"offering has not started\");\n        //require(atsStorage().offering[_issuer][_symbol].started > block.timestamp,\"offering has not started\");\n        if (atsStorage().offering[_issuer][_symbol].expiry > 0) {\n            require(atsStorage().offering[_issuer][_symbol].expiry < block.timestamp,\"offering has expired\");\n        }\n        \n        require(_amount >= atsStorage().offering[_issuer][_symbol].minOffering,\"purchase amount is less than minimum offering\");\n        require(_amount < atsStorage().offering[_issuer][_symbol].maxOffering,\"purchase amount exceeds the maximum offering amount\");\n\n        require(_amount <= atsStorage().offering[_issuer][_symbol].maxShares - atsStorage().offering[_issuer][_symbol].outstanding,\"not enough available shares to purchase\");\n\n        atsStorage().offering[_issuer][_symbol].outstanding += _amount;\n        atsStorage().offering[_issuer][_symbol].remaining -= _amount;\n\n        atsStorage().balances[msg.sender][atsStorage().offering[_issuer][_symbol].symbol] += _amount;\n\n        uint256 total = atsStorage().offering[_issuer][_symbol].price * _amount;\n        uint256 totalWithFee = total * (atsStorage().offering[_issuer][_symbol].fee / 1000); // 997 / 1000; // 3% fee to the issuer\n        uint256 fee = total - totalWithFee;\n\n        payable(atsStorage().offering[_issuer][_symbol].issuer).transfer(totalWithFee);\n        payable(address(this)).transfer(fee);\n    }\n\n    function getBalance(address _issuer,string memory _symbol) public view returns(uint256) {\n        require(atsStorage().offering[_issuer][_symbol].active,\"offering does not exists\");\n        return atsStorage().balances[msg.sender][atsStorage().offering[_issuer][_symbol].symbol];\n    }\n\n    function getOfferingType(address _issuer,string memory _symbol) public view returns (OfferingTypeInterface.OfferingType) {\n        return atsStorage().offering[_issuer][_symbol].offeringType;\n    }\n\n    function getOffering(address _issuer,string memory _symbol) public view returns (OfferingInfoInterface.OfferingInfo memory) {\n        return atsStorage().offering[_issuer][_symbol];\n    }\n\n\n}",
  "sourcePath": "/Volumes/My Book/projects/pingleware-contracts/contracts/finance/equity/ATS.sol",
  "compiler": {
    "name": "solc",
    "version": "0.8.18+commit.87f61d96.Emscripten.clang"
  },
  "schemaVersion": "3.4.12",
  "updatedAt": "2023-10-22T00:34:41.953Z",
  "devdoc": {
    "kind": "dev",
    "methods": {},
    "version": 1
  },
  "userdoc": {
    "kind": "user",
    "methods": {
      "deposit(address,string)": {
        "notice": "allows deposits of token and ETH to liquidity pool"
      },
      "getLiquidity(address)": {
        "notice": "returns liquidity for a user."
      },
      "price(uint256,uint256,uint256,uint256)": {
        "notice": "returns yOutput, or yDelta for xInput (or xDelta)"
      },
      "withdraw(address,string,uint256)": {
        "notice": "allows withdrawal of tokens and ETH from liquidity pool"
      }
    },
    "version": 1
  }
}