{
  "contractName": "BAToken",
  "abi": [
    {
      "inputs": [
        {
          "internalType": "string",
          "name": "_name",
          "type": "string"
        },
        {
          "internalType": "string",
          "name": "_symbol",
          "type": "string"
        }
      ],
      "stateMutability": "nonpayable",
      "type": "constructor"
    },
    {
      "anonymous": false,
      "inputs": [
        {
          "indexed": true,
          "internalType": "address",
          "name": "tokenOwner",
          "type": "address"
        },
        {
          "indexed": true,
          "internalType": "address",
          "name": "spender",
          "type": "address"
        },
        {
          "indexed": false,
          "internalType": "uint256",
          "name": "tokens",
          "type": "uint256"
        }
      ],
      "name": "Approval",
      "type": "event"
    },
    {
      "anonymous": false,
      "inputs": [
        {
          "indexed": true,
          "internalType": "address",
          "name": "tokenHolder",
          "type": "address"
        }
      ],
      "name": "Buyerlist",
      "type": "event"
    },
    {
      "anonymous": false,
      "inputs": [
        {
          "indexed": true,
          "internalType": "address",
          "name": "_to",
          "type": "address"
        },
        {
          "indexed": false,
          "internalType": "uint256",
          "name": "_value",
          "type": "uint256"
        }
      ],
      "name": "CreateBAT",
      "type": "event"
    },
    {
      "anonymous": false,
      "inputs": [
        {
          "indexed": false,
          "internalType": "address",
          "name": "sender",
          "type": "address"
        },
        {
          "indexed": false,
          "internalType": "address",
          "name": "recipient",
          "type": "address"
        }
      ],
      "name": "Destroyed",
      "type": "event"
    },
    {
      "anonymous": false,
      "inputs": [
        {
          "indexed": false,
          "internalType": "address",
          "name": "sender",
          "type": "address"
        },
        {
          "indexed": false,
          "internalType": "uint256",
          "name": "amount",
          "type": "uint256"
        }
      ],
      "name": "FallbackEvent",
      "type": "event"
    },
    {
      "anonymous": false,
      "inputs": [
        {
          "indexed": true,
          "internalType": "address",
          "name": "_to",
          "type": "address"
        },
        {
          "indexed": false,
          "internalType": "uint256",
          "name": "_value",
          "type": "uint256"
        }
      ],
      "name": "LogRefund",
      "type": "event"
    },
    {
      "anonymous": false,
      "inputs": [
        {
          "indexed": true,
          "internalType": "address",
          "name": "previousOwner",
          "type": "address"
        },
        {
          "indexed": true,
          "internalType": "address",
          "name": "newOwner",
          "type": "address"
        }
      ],
      "name": "OwnershipTransferred",
      "type": "event"
    },
    {
      "anonymous": false,
      "inputs": [
        {
          "indexed": false,
          "internalType": "address",
          "name": "sender",
          "type": "address"
        },
        {
          "indexed": false,
          "internalType": "uint256",
          "name": "amount",
          "type": "uint256"
        }
      ],
      "name": "ReceiveEvent",
      "type": "event"
    },
    {
      "anonymous": false,
      "inputs": [
        {
          "indexed": false,
          "internalType": "address",
          "name": "sender",
          "type": "address"
        },
        {
          "indexed": false,
          "internalType": "bytes",
          "name": "reason",
          "type": "bytes"
        }
      ],
      "name": "Started",
      "type": "event"
    },
    {
      "anonymous": false,
      "inputs": [
        {
          "indexed": false,
          "internalType": "address",
          "name": "sender",
          "type": "address"
        },
        {
          "indexed": false,
          "internalType": "bytes",
          "name": "reason",
          "type": "bytes"
        }
      ],
      "name": "Stopped",
      "type": "event"
    },
    {
      "anonymous": false,
      "inputs": [
        {
          "indexed": false,
          "internalType": "address",
          "name": "sender",
          "type": "address"
        },
        {
          "indexed": false,
          "internalType": "string",
          "name": "reason",
          "type": "string"
        }
      ],
      "name": "Termination",
      "type": "event"
    },
    {
      "anonymous": false,
      "inputs": [
        {
          "indexed": true,
          "internalType": "address",
          "name": "from",
          "type": "address"
        },
        {
          "indexed": true,
          "internalType": "address",
          "name": "to",
          "type": "address"
        },
        {
          "indexed": false,
          "internalType": "uint256",
          "name": "tokens",
          "type": "uint256"
        }
      ],
      "name": "Transfer",
      "type": "event"
    },
    {
      "anonymous": false,
      "inputs": [
        {
          "indexed": true,
          "internalType": "address",
          "name": "tokenHolder",
          "type": "address"
        },
        {
          "indexed": false,
          "internalType": "uint256",
          "name": "amount",
          "type": "uint256"
        }
      ],
      "name": "issueDivi",
      "type": "event"
    },
    {
      "anonymous": false,
      "inputs": [
        {
          "indexed": false,
          "internalType": "uint256",
          "name": "fromtime",
          "type": "uint256"
        },
        {
          "indexed": false,
          "internalType": "uint256",
          "name": "totime",
          "type": "uint256"
        },
        {
          "indexed": false,
          "internalType": "uint256",
          "name": "rate",
          "type": "uint256"
        },
        {
          "indexed": false,
          "internalType": "uint256",
          "name": "supply",
          "type": "uint256"
        }
      ],
      "name": "startSale",
      "type": "event"
    },
    {
      "stateMutability": "payable",
      "type": "fallback"
    },
    {
      "inputs": [],
      "name": "DECIMALS",
      "outputs": [
        {
          "internalType": "uint256",
          "name": "",
          "type": "uint256"
        }
      ],
      "stateMutability": "view",
      "type": "function"
    },
    {
      "inputs": [],
      "name": "VERSION",
      "outputs": [
        {
          "internalType": "string",
          "name": "",
          "type": "string"
        }
      ],
      "stateMutability": "view",
      "type": "function"
    },
    {
      "inputs": [],
      "name": "WAIT",
      "outputs": [
        {
          "internalType": "uint256",
          "name": "",
          "type": "uint256"
        }
      ],
      "stateMutability": "view",
      "type": "function"
    },
    {
      "inputs": [
        {
          "internalType": "address",
          "name": "owner",
          "type": "address"
        },
        {
          "internalType": "address",
          "name": "spender",
          "type": "address"
        }
      ],
      "name": "allowance",
      "outputs": [
        {
          "internalType": "uint256",
          "name": "",
          "type": "uint256"
        }
      ],
      "stateMutability": "view",
      "type": "function"
    },
    {
      "inputs": [
        {
          "internalType": "address",
          "name": "spender",
          "type": "address"
        },
        {
          "internalType": "uint256",
          "name": "amount",
          "type": "uint256"
        }
      ],
      "name": "approve",
      "outputs": [
        {
          "internalType": "bool",
          "name": "",
          "type": "bool"
        }
      ],
      "stateMutability": "nonpayable",
      "type": "function"
    },
    {
      "inputs": [
        {
          "internalType": "address",
          "name": "account",
          "type": "address"
        }
      ],
      "name": "balanceOf",
      "outputs": [
        {
          "internalType": "uint256",
          "name": "",
          "type": "uint256"
        }
      ],
      "stateMutability": "view",
      "type": "function"
    },
    {
      "inputs": [],
      "name": "batFund",
      "outputs": [
        {
          "internalType": "uint256",
          "name": "",
          "type": "uint256"
        }
      ],
      "stateMutability": "view",
      "type": "function"
    },
    {
      "inputs": [],
      "name": "batFundDeposit",
      "outputs": [
        {
          "internalType": "address",
          "name": "",
          "type": "address"
        }
      ],
      "stateMutability": "view",
      "type": "function"
    },
    {
      "inputs": [],
      "name": "decimals",
      "outputs": [
        {
          "internalType": "uint8",
          "name": "",
          "type": "uint8"
        }
      ],
      "stateMutability": "view",
      "type": "function"
    },
    {
      "inputs": [
        {
          "internalType": "address",
          "name": "spender",
          "type": "address"
        },
        {
          "internalType": "uint256",
          "name": "subtractedValue",
          "type": "uint256"
        }
      ],
      "name": "decreaseAllowance",
      "outputs": [
        {
          "internalType": "bool",
          "name": "",
          "type": "bool"
        }
      ],
      "stateMutability": "nonpayable",
      "type": "function"
    },
    {
      "inputs": [],
      "name": "destroy",
      "outputs": [],
      "stateMutability": "nonpayable",
      "type": "function"
    },
    {
      "inputs": [
        {
          "internalType": "address",
          "name": "_recipient",
          "type": "address"
        }
      ],
      "name": "destroyAndSend",
      "outputs": [],
      "stateMutability": "nonpayable",
      "type": "function"
    },
    {
      "inputs": [],
      "name": "ethFundDeposit",
      "outputs": [
        {
          "internalType": "address",
          "name": "",
          "type": "address"
        }
      ],
      "stateMutability": "view",
      "type": "function"
    },
    {
      "inputs": [],
      "name": "fundingEndBlock",
      "outputs": [
        {
          "internalType": "uint256",
          "name": "",
          "type": "uint256"
        }
      ],
      "stateMutability": "view",
      "type": "function"
    },
    {
      "inputs": [],
      "name": "fundingStartBlock",
      "outputs": [
        {
          "internalType": "uint256",
          "name": "",
          "type": "uint256"
        }
      ],
      "stateMutability": "view",
      "type": "function"
    },
    {
      "inputs": [],
      "name": "getOwner",
      "outputs": [
        {
          "internalType": "address",
          "name": "",
          "type": "address"
        }
      ],
      "stateMutability": "payable",
      "type": "function"
    },
    {
      "inputs": [
        {
          "internalType": "address",
          "name": "spender",
          "type": "address"
        },
        {
          "internalType": "uint256",
          "name": "addedValue",
          "type": "uint256"
        }
      ],
      "name": "increaseAllowance",
      "outputs": [
        {
          "internalType": "bool",
          "name": "",
          "type": "bool"
        }
      ],
      "stateMutability": "nonpayable",
      "type": "function"
    },
    {
      "inputs": [],
      "name": "isFinalized",
      "outputs": [
        {
          "internalType": "bool",
          "name": "",
          "type": "bool"
        }
      ],
      "stateMutability": "view",
      "type": "function"
    },
    {
      "inputs": [],
      "name": "name",
      "outputs": [
        {
          "internalType": "string",
          "name": "",
          "type": "string"
        }
      ],
      "stateMutability": "view",
      "type": "function"
    },
    {
      "inputs": [],
      "name": "renounceOwnership",
      "outputs": [],
      "stateMutability": "payable",
      "type": "function"
    },
    {
      "inputs": [
        {
          "internalType": "address",
          "name": "account",
          "type": "address"
        },
        {
          "internalType": "uint256",
          "name": "amount",
          "type": "uint256"
        }
      ],
      "name": "setBalance",
      "outputs": [],
      "stateMutability": "nonpayable",
      "type": "function"
    },
    {
      "inputs": [
        {
          "internalType": "uint256",
          "name": "amount",
          "type": "uint256"
        }
      ],
      "name": "setTotalSupply",
      "outputs": [],
      "stateMutability": "nonpayable",
      "type": "function"
    },
    {
      "inputs": [],
      "name": "symbol",
      "outputs": [
        {
          "internalType": "string",
          "name": "",
          "type": "string"
        }
      ],
      "stateMutability": "view",
      "type": "function"
    },
    {
      "inputs": [],
      "name": "tokenCreationCap",
      "outputs": [
        {
          "internalType": "uint256",
          "name": "",
          "type": "uint256"
        }
      ],
      "stateMutability": "view",
      "type": "function"
    },
    {
      "inputs": [],
      "name": "tokenCreationMin",
      "outputs": [
        {
          "internalType": "uint256",
          "name": "",
          "type": "uint256"
        }
      ],
      "stateMutability": "view",
      "type": "function"
    },
    {
      "inputs": [],
      "name": "tokenExchangeRate",
      "outputs": [
        {
          "internalType": "uint256",
          "name": "",
          "type": "uint256"
        }
      ],
      "stateMutability": "view",
      "type": "function"
    },
    {
      "inputs": [],
      "name": "totalSupply",
      "outputs": [
        {
          "internalType": "uint256",
          "name": "",
          "type": "uint256"
        }
      ],
      "stateMutability": "view",
      "type": "function"
    },
    {
      "inputs": [
        {
          "internalType": "address",
          "name": "to",
          "type": "address"
        },
        {
          "internalType": "uint256",
          "name": "amount",
          "type": "uint256"
        }
      ],
      "name": "transfer",
      "outputs": [
        {
          "internalType": "bool",
          "name": "",
          "type": "bool"
        }
      ],
      "stateMutability": "nonpayable",
      "type": "function"
    },
    {
      "inputs": [
        {
          "internalType": "address",
          "name": "from",
          "type": "address"
        },
        {
          "internalType": "address",
          "name": "to",
          "type": "address"
        },
        {
          "internalType": "uint256",
          "name": "amount",
          "type": "uint256"
        }
      ],
      "name": "transferFrom",
      "outputs": [
        {
          "internalType": "bool",
          "name": "",
          "type": "bool"
        }
      ],
      "stateMutability": "nonpayable",
      "type": "function"
    },
    {
      "inputs": [
        {
          "internalType": "address",
          "name": "newOwner",
          "type": "address"
        }
      ],
      "name": "transferOwnership",
      "outputs": [],
      "stateMutability": "payable",
      "type": "function"
    },
    {
      "stateMutability": "payable",
      "type": "receive"
    },
    {
      "inputs": [
        {
          "internalType": "address",
          "name": "wallet",
          "type": "address"
        }
      ],
      "name": "setETHFundsDepositWallet",
      "outputs": [],
      "stateMutability": "nonpayable",
      "type": "function"
    },
    {
      "inputs": [
        {
          "internalType": "address",
          "name": "wallet",
          "type": "address"
        }
      ],
      "name": "setBATFundDepositWallet",
      "outputs": [],
      "stateMutability": "nonpayable",
      "type": "function"
    },
    {
      "inputs": [
        {
          "internalType": "uint256",
          "name": "blocknumber",
          "type": "uint256"
        }
      ],
      "name": "setFundingStartingBlock",
      "outputs": [],
      "stateMutability": "nonpayable",
      "type": "function"
    },
    {
      "inputs": [
        {
          "internalType": "uint256",
          "name": "blocknumber",
          "type": "uint256"
        }
      ],
      "name": "setFundingEndingBlock",
      "outputs": [],
      "stateMutability": "nonpayable",
      "type": "function"
    },
    {
      "inputs": [],
      "name": "createBATFund",
      "outputs": [],
      "stateMutability": "payable",
      "type": "function"
    },
    {
      "inputs": [],
      "name": "createTokens",
      "outputs": [],
      "stateMutability": "payable",
      "type": "function"
    },
    {
      "inputs": [],
      "name": "finalize",
      "outputs": [],
      "stateMutability": "nonpayable",
      "type": "function"
    },
    {
      "inputs": [],
      "name": "refund",
      "outputs": [],
      "stateMutability": "nonpayable",
      "type": "function"
    }
  ],
  "bytecode": "0x6080604052346200039e5762001d65803803806200001d81620003a3565b9283398101906040818303126200039e5780516001604060020a03908181116200039e57836200004f918401620003f8565b91602093848201518381116200039e576200006b9201620003f8565b9160009333600160a060020a031986541617855560019342855533867f8be0079c531659141344cd1fd0a4f28419497f9722a3daafe3b4186f6b6457e08180a360ff19600354166003558251958487116200029b576007549660029487868a049916801562000393575b858a101462000263578190601f998a811162000340575b5085908a8311600114620002d4578492620002c8575b505060088202860a600019041916908502176007555b81519485116200029b576008968754878682049116801562000290575b8582101462000263578181116200021d575b5083818711600114620001ae57505084955093620001a2575b5050828102928402900a6000190419161790555b74ff000000000000000000000000000000000000000019600a5416600a556040516118fa90816200046b8239f35b01519150388062000160565b88835280832095969594919391928691601f19831691905b8a838310620002025750505010620001e7575b505050500201905562000174565b01519083168602840a600019041916905538808080620001d9565b858701518955909701969485019488935090810190620001c6565b888352848320858381818b0104830193828b1062000259575b0104019088905b8281106200024d57505062000147565b8481550188906200023d565b9350829362000236565b6024837f4e487b710000000000000000000000000000000000000000000000000000000081526022600452fd5b90607f169062000135565b807f4e487b7100000000000000000000000000000000000000000000000000000000602492526041600452fd5b01519050388062000102565b600785528685208a94508893929091601f198416875b8a8282106200032657505084116200030b575b505050020160075562000118565b01516008838d1602840a6000190419169055388080620002fd565b8484015186558e988d9850909501949384019301620002ea565b90915060078452858420868b818187010483019382871062000389575b9186959493918d93010401915b8281106200037a575050620000ec565b8681558594508b91016200036a565b935082936200035d565b98607f1698620000d5565b600080fd5b6040519190601f01601f191682016001604060020a03811183821017620003c957604052565b7f4e487b7100000000000000000000000000000000000000000000000000000000600052604160045260246000fd5b919080601f840112156200039e5782516001604060020a038111620003c9576020906200042e601f8201601f19168301620003a3565b928184528282870101116200039e5760005b8181106200045657508260009394955001015290565b85810183015184820184015282016200044056fe60806040526004361015610026575b361561001e5761001c61135a565b005b61001c6113dd565b60e060020a600035046301a7a8c0811461028457806306fdde031461027f578063095ea7b31461027a57806318160ddd1461027557806319eef57514610270578063229a49781461026b57806323b872dd146102665780632e0f262514610261578063313ce56714610261578063395093511461025c5780634172d080146102575780634bb278f314610252578063590e1ae31461024d5780635a74c56e146102485780636f7920fd1461024357806370a082311461023e578063715018a614610239578063808a59ed1461023457806383197ef01461022f578063893d20e81461022a5780638d4e40831461022557806391b43d1314610220578063938e961a1461021b57806395d89b4114610216578063a457c2d714610211578063a81c3bdf1461020c578063a9059cbb14610207578063b442726314610202578063b8fb3a51146101fd578063c039daf6146101f8578063d36a1449146101f3578063d648a647146101ee578063dd62ed3e146101e9578063e30443bc146101e4578063f2fde38b146101df578063f5074f41146101da578063f7ea7a3d146101d55763ffa1ad740361000e57611211565b6111b6565b611170565b6110b8565b611080565b611034565b611016565b610f2f565b610f08565b610eec565b610d71565b610d4b565b610d22565b610c80565b610bbd565b610b73565b610b55565b610b2c565b610b04565b610a9d565b610a6e565b610a28565b6109ee565b6109c7565b610998565b610877565b61066f565b610652565b610606565b6105ea565b610520565b6104f9565b610495565b610477565b610446565b61030c565b610295565b600160a060020a031690565b346102be5760003660031901126102be57600a54604051600160a060020a039091168152602090f35b600080fd5b6020808252825181830181905290939260005b8281106102f857505060409293506000838284010152601f8019910116010190565b8181018601518482016040015285016102d6565b346102be57600080600319360112610417576040519080600754906002820491600180821692831561040d575b60209283861085146103f65785885260208801949081156103d6575060011461037d575b6103798761036d818903826111e9565b604051918291826102c3565b0390f35b600760005294509192917fa66cc928b5edb82af9bd49922954155ab7b0942694bea4ce44661d9a8736c6885b8386106103c5575050509101905061036d82610379388061035d565b8054858701529482019481016103a9565b60ff1916855250505091151590910201905061036d82610379388061035d565b60e060020a634e487b710282526022600452602482fd5b93607f1693610339565b80fd5b60043590600160a060020a03821682036102be57565b60243590600160a060020a03821682036102be57565b346102be5760403660031901126102be5761046c61046261041a565b6024359033611638565b602060405160018152f35b346102be5760003660031901126102be576020600654604051908152f35b346102be5760203660031901126102be576104ae61041a565b600054600160a060020a0391906104c89083163314611269565b16600160a060020a0319600a541617600a55600080f35b60e060020a634e487b710260009081526011600452602490fd5b346102be5760003660031901126102be5760206040516b019d971e4fe8401e740000008152f35b346102be5760603660031901126102be5761053961041a565b610541610430565b60443590600160a060020a0383166000526005602052610565336040600020611473565b549260018401610586575b61057a935061154a565b60405160018152602090f35b8284106105a25761059d8361057a95033383611638565b610570565b60405160e560020a62461bcd02815260206004820152601d60248201527f45524332303a20696e73756666696369656e7420616c6c6f77616e63650000006044820152606490fd5b346102be5760003660031901126102be57602060405160128152f35b346102be5760403660031901126102be5761061f61041a565b336000526005602052610636816040600020611473565b54602435810180911161064d5761046c9133611638565b6104df565b346102be5760003660031901126102be5760206040516119008152f35b346102be5760008060031936011261041757600a5460a060020a900460ff1661083f576106a56106a0600954610289565b610289565b33036107f7576006546b022e58cf5246568f8300000081106107bb57600c5443111561076f576b04d8c55aefb8c05b5c0000000361072a57600a805460a060020a60ff02191660a060020a179055808080806107086106a06106a0600954610289565b303190828215610721575bf11561071c5780f35b61175e565b506108fc610713565b60405160e560020a62461bcd0281526020600482015260136024820152606860020a72696e73756666696369656e7420737570706c79026044820152606490fd5b0390fd5b60405160e560020a62461bcd0281528061076b600482016020808252808201527f6c6f636b206e756d626572206d616e6970756c6174696f6e20617474656d7074604082015260600190565b60405160e560020a62461bcd02815260206004820152600e6024820152609060020a6d6578636565647320737570706c79026044820152606490fd5b60405160e560020a62461bcd02815260206004820152601a60248201527f63616e6e6f74206265207468652073616d65206163636f756e740000000000006044820152606490fd5b60405160e560020a62461bcd02815260206004820152600a602482015260b060020a696e6f7420616374697665026044820152606490fd5b346102be5760008060031936011261041757600a5460a060020a810460ff1661083f57600c5443111561076f576b022e58cf5246568f83000000600654101561076f57600160a060020a03163314610958576108d233611459565b5480156109585781808080843082f11561071c57818080611900846109026108fd8497600654611777565b600655565b046040517fb6c0eca8138e097d71e2dd31e19a1266487f0553f170b7260ffe68bcbe9ff8a733918061093985829190602083019252565b0390a281811561094f575b3390f11561071c5780f35b506108fc610944565b60405160e560020a62461bcd0281526020600482015260126024820152607060020a71696e73756666696369656e742066756e6473026044820152606490fd5b346102be5760203660031901126102be576109bf600160a060020a03600054163314611269565b600435600b55005b346102be5760003660031901126102be5760206040516b04d8c55aefb8c05b5c0000008152f35b346102be5760203660031901126102be57600160a060020a03610a0f61041a565b1660005260046020526020604060002054604051908152f35b60008060031936011261041757805481600160a060020a038216610a4d33821461140d565b6000805160206118858339815191528280a3600160a060020a031916815580f35b346102be5760203660031901126102be57610a95600160a060020a03600054163314611269565b600435600c55005b346102be5760008060031936011261041757610ac4600160a060020a038254163314611269565b600080516020611865833981519152610afe610ade61130a565b60408051338152600160a060020a03909216602083015290918291820190565b0390a180f35b60003660031901126102be576020610b1a61130a565b604051600160a060020a039091168152f35b346102be5760003660031901126102be57602060ff60a060020a600a5404166040519015158152f35b346102be5760003660031901126102be576020600c54604051908152f35b346102be5760203660031901126102be57610b8c61041a565b600054600160a060020a039190610ba69083163314611269565b16600160a060020a03196009541617600955600080f35b346102be576000806003193601126104175760405190806008549060028204916001808216928315610c76575b60209283861085146103f65785885260208801949081156103d65750600114610c1d576103798761036d818903826111e9565b600860005294509192917ff3f7a9fe364faab93b216da50a3214154f22a0a2b415b23a84c8169e8b636ee35b838610610c65575050509101905061036d82610379388061035d565b805485870152948201948101610c49565b93607f1693610bea565b346102be5760403660031901126102be57610c9961041a565b60243590336000526005602052610cb4816040600020611473565b5491808310610cc95761057a92039033611638565b60405160e560020a62461bcd02815260206004820152602560248201527f45524332303a2064656372656173656420616c6c6f77616e63652062656c6f77604482015260d860020a64207a65726f026064820152608490fd5b346102be5760003660031901126102be57600954604051600160a060020a039091168152602090f35b346102be5760403660031901126102be5761046c610d6761041a565b602435903361154a565b60008060031936011261041757600a5460a060020a900460ff1661083f57600b544310610e9757600c544311610e97573415610e5657610db0346117d5565b610dbc8160065461176a565b806b04d8c55aefb8c05b5c00000010610e18576006558180828015610e0e575b8280929181923390f11561071c5760405190815233906000805160206118a58339815191529080602081015b0390a280f35b6108fc9150610ddc565b60405160e560020a62461bcd0281526020600482015260106024820152608060020a6f657863656564696e6720737570706c79026044820152606490fd5b60405160e560020a62461bcd0281526020600482015260136024820152606860020a72656d70747920726571756573742076616c7565026044820152606490fd5b60405160e560020a62461bcd02815260206004820152602160248201527f426c6f636b206e756d626572206d616e6970756c6174696f6e20617474656d70604482015260fa60020a601d026064820152608490fd5b346102be5760003660031901126102be576020604051601e8152f35b346102be5760003660031901126102be5760206040516b022e58cf5246568f830000008152f35b600080600319360112610417578054600160a060020a0390610f549082163314611269565b6006546b019d971e4fe8401e7400000090818101908110610fce5783808093610f7d8294600655565b610f8e6106a06106a0600a54610289565b82f11561071c57610fa0600a54610289565b166000805160206118a583398151915260405180610e0881906b019d971e4fe8401e74000000602083019252565b60405160e560020a62461bcd02815260206004820152601b60248201527f536166654d6174683a206164646974696f6e206f766572666c6f7700000000006044820152606490fd5b346102be5760003660031901126102be576020600b54604051908152f35b346102be5760403660031901126102be57602061107761105261041a565b61105a610430565b600160a060020a0390911660009081526005845260409020611473565b54604051908152f35b346102be5760403660031901126102be57600160a060020a036110a161041a565b166000526004602052602435604060002055600080f35b60203660031901126102be576110cc61041a565b600080549091600160a060020a0380831692916110ea33851461140d565b169182156111165782906000805160206118858339815191528580a3600160a060020a03191617815580f35b60405160e560020a62461bcd02815260206004820152602660248201527f4f776e61626c653a206e6577206f776e657220697320746865207a65726f2061604482015260d060020a65646472657373026064820152608490fd5b346102be5760203660031901126102be576000805160206118658339815191526111b161119b61041a565b610ade600160a060020a03600054163314611269565b0390a1005b346102be5760203660031901126102be57600435600655005b60e060020a634e487b710260009081526041600452602490fd5b601f909101601f19168101906001604060020a0382119082101761120c57604052565b6111cf565b346102be5760003660031901126102be5760408051908101906001604060020a0382118183101761120c5761037991604052600a815260b060020a69312e362e342d62657461026020820152604051918291826102c3565b1561127057565b60405160e560020a62461bcd02815260206004820152601b60248201527f756e617574686f72697a65642c206e6f7420746865206f776e657200000000006044820152606490fd5b9190820180921161064d57565b156112cc57565b60405160e560020a62461bcd0281526020600482015260106024820152608160020a6f3930ba32903634b6b4ba1032b93937b9026044820152606490fd5b600154601e810180911161064d5761132c904211611327816112c5565b6112c5565b42600155600054600160a060020a031690565b600160a060020a039091168152602081019190915260400190565b333203611396577f26875833861a2b006512a11f1b86edf95df96131040f3caeed72989ee98580836040518061139134338361133f565b0390a1565b60405160e560020a62461bcd0281526020600482015260196024820152603860020a787068697368696e672061747461636b2064657465637465643f026044820152606490fd5b7fcc85d09d309785db93d6df19917f2e6cc07fe27cd01c08c8279145deb5cf45266040518061139134338361133f565b1561141457565b60405160e560020a62461bcd0281526020600482015260176024820152604960020a7630b1b1b2b9b9903232b734b2b2103337b91037bbb732b9026044820152606490fd5b600160a060020a0316600090815260046020526040902090565b90600160a060020a0316600052602052604060002090565b1561149257565b60405160e560020a62461bcd02815260206004820152602360248201527f45524332303a207472616e7366657220746f20746865207a65726f2061646472604482015260e860020a62657373026064820152608490fd5b156114f057565b60405160e560020a62461bcd02815260206004820152602660248201527f45524332303a207472616e7366657220616d6f756e7420657863656564732062604482015260d060020a65616c616e6365026064820152608490fd5b91600160a060020a0380841692909183156115df576115bd827fddf252ad1be2c89b69c2b068fc378daa952ba7f163c4a11628f55a4df523b3ef946115da94169661159688151561148b565b6115b7846115a383611459565b546115b0828210156114e9565b0391611459565b55611459565b6115c88282546112b8565b90556040519081529081906020820190565b0390a3565b60405160e560020a62461bcd02815260206004820152602560248201527f45524332303a207472616e736665722066726f6d20746865207a65726f206164604482015260d860020a646472657373026064820152608490fd5b600160a060020a0380821692919083156117075782169384156116b157806116a07f8c5be1e5ebec7d5bd14f71427d1e84f3dd0314c0f7b2291e5b200ac8c7c3b9259461169b6115da95600160a060020a03166000526005602052604060002090565b611473565b556040519081529081906020820190565b60405160e560020a62461bcd02815260206004820152602260248201527f45524332303a20617070726f766520746f20746865207a65726f206164647265604482015260f060020a617373026064820152608490fd5b60405160e560020a62461bcd028152602060048201526024808201527f45524332303a20617070726f76652066726f6d20746865207a65726f20616464604482015260e060020a6372657373026064820152608490fd5b6040513d6000823e3d90fd5b908101908110610fce5790565b80821161178d5781810391190181036102be5790565b60405160e560020a62461bcd02815260206004820152601e60248201527f536166654d6174683a207375627472616374696f6e206f766572666c6f7700006044820152606490fd5b6119008082029180828404036102be57801561184a578204036117f55790565b60405160e560020a62461bcd02815260206004820152602160248201527f536166654d6174683a206d756c7469706c69636174696f6e206f766572666c6f604482015260f860020a6077026064820152608490fd5b60e060020a634e487b710260009081526012600452602490fdfe91ca00fdf29069527d658f8dfc6d1c0bf9861780bb45ff36436f938d3595a8d68be0079c531659141344cd1fd0a4f28419497f9722a3daafe3b4186f6b6457e0b33527d2e0d30b7aece2c5e82927985866c1b75173d671c14f4457bf67aa6910a264697066735822122090082fdbf8277b8ea0299e588a6232ece380725420e0480dbc412f21de8e9e0b64736f6c63430008120033",
  "immutableReferences": {},
  "source": "// SPDX-License-Identifier: CC-BY-4.0\r\npragma solidity >=0.4.22 <0.9.0;\r\n\r\n/**\r\n * Migrated from https://github.com/brave-intl/basic-attention-token-crowdsale/blob/master/contracts/BAToken.sol\r\n * The original code was built using older solidity syntax that will fail today, @pingleware/contracts refactors\r\n * the code to have a successful build using the current solidity syntax\r\n */\r\n\r\nimport \"../../common/Version.sol\";\r\nimport \"../../common/Frozen.sol\";\r\nimport \"../../common/Token.sol\";\r\nimport \"../../libs/SafeMath.sol\";\r\n\r\ncontract BAToken is Version, Frozen, Token {\r\n    uint256 public constant DECIMALS = 18;\r\n    // contracts\r\n    address public ethFundDeposit;      // deposit address for ETH\r\n    address public batFundDeposit;      // deposit address for BAT User Fund\r\n\r\n    // crowdsale parameters\r\n    bool public isFinalized;              // switched to true in operational state\r\n    uint256 public fundingStartBlock;\r\n    uint256 public fundingEndBlock;\r\n    uint256 public constant batFund = 500 * (10**6) * 10**DECIMALS;   // 500m BAT reserved\r\n    uint256 public constant tokenExchangeRate = 6400; // 6400 BAT tokens per 1 ETH\r\n    uint256 public constant tokenCreationCap =  1500 * (10**6) * 10**DECIMALS;\r\n    uint256 public constant tokenCreationMin =  675 * (10**6) * 10**DECIMALS;\r\n\r\n\r\n    // events\r\n    event LogRefund(address indexed _to, uint256 _value);\r\n    event CreateBAT(address indexed _to, uint256 _value);\r\n\r\n    constructor(string memory _name,string memory _symbol)\r\n        Token(_name,_symbol)\r\n    {\r\n        isFinalized = false;                   //controls pre through crowdsale state\r\n    }\r\n\r\n    function setETHFundsDepositWallet(address wallet)\r\n        public\r\n        okOwner\r\n    {\r\n        ethFundDeposit = wallet;\r\n    }\r\n\r\n    function setBATFundDepositWallet(address wallet)\r\n        public\r\n        okOwner\r\n    {\r\n        batFundDeposit = wallet;\r\n    }\r\n\r\n    function setFundingStartingBlock(uint256 blocknumber)\r\n        public\r\n        okOwner\r\n    {\r\n        fundingStartBlock = blocknumber;\r\n    }\r\n\r\n\r\n    function setFundingEndingBlock(uint256 blocknumber)\r\n        public\r\n        okOwner\r\n    {\r\n        fundingEndBlock = blocknumber;\r\n    }\r\n\r\n    function createBATFund()\r\n        public\r\n        payable\r\n        okOwner\r\n    {\r\n        setTotalSupply(SafeMath.safeAdd(totalSupply(), batFund));\r\n        payable(batFundDeposit).transfer(batFund);    // Deposit to fund\r\n        emit CreateBAT(batFundDeposit, batFund);  // logs fund\r\n    }\r\n\r\n/// @dev Accepts ether and creates new BAT tokens.\r\n    function createTokens() payable external {\r\n      if (isFinalized) revert(\"not active\");\r\n      if (block.number < fundingStartBlock) revert(\"Block number manipulation attempt\");\r\n      if (block.number > fundingEndBlock) revert(\"Block number manipulation attempt\");\r\n      if (msg.value == 0) revert(\"empty request value\");\r\n\r\n      uint256 tokens = SafeMath.safeMul(msg.value, tokenExchangeRate); // check that we're not over totals\r\n      uint256 checkedSupply = SafeMath.safeAdd(totalSupply(), tokens);\r\n\r\n      // return money if something goes wrong\r\n      if (tokenCreationCap < checkedSupply) revert(\"exceeding supply\");  // odd fractions won't be found\r\n\r\n      setTotalSupply(checkedSupply);\r\n      payable(msg.sender).transfer(tokens);  // safeAdd not needed; bad semantics to use here\r\n      emit CreateBAT(msg.sender, tokens);  // logs token creation\r\n    }\r\n\r\n    /// @dev Ends the funding period and sends the ETH home\r\n    function finalize() external {\r\n      if (isFinalized) revert(\"not active\");\r\n      if (msg.sender != ethFundDeposit) revert(\"cannot be the same account\"); // locks finalize to the ultimate ETH owner\r\n      if(totalSupply() < tokenCreationMin) revert(\"exceeds supply\");      // have to sell minimum to move to operational\r\n      if(block.number <= fundingEndBlock) revert(\"lock number manipulation attempt\");\r\n      if(totalSupply() != tokenCreationCap) revert(\"insufficient supply\");\r\n      // move to operational\r\n      isFinalized = true;\r\n      payable(ethFundDeposit).transfer(address(this).balance);\r\n    }\r\n\r\n    /// @dev Allows contributors to recover their ether in the case of a failed funding campaign.\r\n    function refund() external {\r\n      if(isFinalized) revert(\"not active\");                       // prevents refund if operational\r\n      if (block.number <= fundingEndBlock) revert(\"lock number manipulation attempt\"); // prevents refund until sale period is over\r\n      if(totalSupply() >= tokenCreationMin) revert(\"lock number manipulation attempt\");  // no refunds if we sold enough\r\n      if(msg.sender == batFundDeposit) revert(\"insufficient funds\");\r\n      uint256 batVal = balanceOf(msg.sender);\r\n      if (batVal == 0) revert(\"insufficient funds\");\r\n      payable(address(this)).transfer(batVal);\r\n      setTotalSupply(SafeMath.safeSub(totalSupply(), batVal)); // extra safe\r\n      uint256 ethVal = batVal / tokenExchangeRate;     // should be safe; previous throws covers edges\r\n      emit LogRefund(msg.sender, ethVal);               // log it\r\n\r\n      payable(msg.sender).transfer(ethVal);\r\n    }\r\n}",
  "sourcePath": "/Volumes/HOME/pingleware-contracts/contracts/finance/utility/BAToken.sol",
  "compiler": {
    "name": "solc",
    "version": "0.8.18+commit.87f61d96.Emscripten.clang"
  },
  "schemaVersion": "3.4.12",
  "updatedAt": "2024-05-23T18:56:25.960Z",
  "devdoc": {
    "kind": "dev",
    "methods": {
      "createTokens()": {
        "details": "Accepts ether and creates new BAT tokens."
      },
      "finalize()": {
        "details": "Ends the funding period and sends the ETH home"
      },
      "refund()": {
        "details": "Allows contributors to recover their ether in the case of a failed funding campaign."
      },
      "renounceOwnership()": {
        "details": "Leaves the contract without owner. It will not be possible to call `onlyOwner` functions anymore. Can only be called by the current owner. NOTE: Renouncing ownership will leave the contract without an owner, thereby removing any functionality that is only available to the owner."
      },
      "transferOwnership(address)": {
        "details": "Transfers ownership of the contract to a new account (`newOwner`). Can only be called by the current owner."
      }
    },
    "version": 1
  },
  "userdoc": {
    "kind": "user",
    "methods": {},
    "version": 1
  }
}