{
  "contractName": "BAToken",
  "abi": [
    {
      "inputs": [
        {
          "internalType": "string",
          "name": "_name",
          "type": "string"
        },
        {
          "internalType": "string",
          "name": "_symbol",
          "type": "string"
        }
      ],
      "stateMutability": "nonpayable",
      "type": "constructor"
    },
    {
      "anonymous": false,
      "inputs": [
        {
          "indexed": true,
          "internalType": "address",
          "name": "tokenOwner",
          "type": "address"
        },
        {
          "indexed": true,
          "internalType": "address",
          "name": "spender",
          "type": "address"
        },
        {
          "indexed": false,
          "internalType": "uint256",
          "name": "tokens",
          "type": "uint256"
        }
      ],
      "name": "Approval",
      "type": "event"
    },
    {
      "anonymous": false,
      "inputs": [
        {
          "indexed": true,
          "internalType": "address",
          "name": "tokenHolder",
          "type": "address"
        }
      ],
      "name": "Buyerlist",
      "type": "event"
    },
    {
      "anonymous": false,
      "inputs": [
        {
          "indexed": true,
          "internalType": "address",
          "name": "_to",
          "type": "address"
        },
        {
          "indexed": false,
          "internalType": "uint256",
          "name": "_value",
          "type": "uint256"
        }
      ],
      "name": "CreateBAT",
      "type": "event"
    },
    {
      "anonymous": false,
      "inputs": [
        {
          "indexed": false,
          "internalType": "address",
          "name": "sender",
          "type": "address"
        },
        {
          "indexed": false,
          "internalType": "address",
          "name": "recipient",
          "type": "address"
        }
      ],
      "name": "Destroyed",
      "type": "event"
    },
    {
      "anonymous": false,
      "inputs": [
        {
          "indexed": false,
          "internalType": "address",
          "name": "sender",
          "type": "address"
        },
        {
          "indexed": false,
          "internalType": "uint256",
          "name": "amount",
          "type": "uint256"
        }
      ],
      "name": "FallbackEvent",
      "type": "event"
    },
    {
      "anonymous": false,
      "inputs": [
        {
          "indexed": true,
          "internalType": "address",
          "name": "_to",
          "type": "address"
        },
        {
          "indexed": false,
          "internalType": "uint256",
          "name": "_value",
          "type": "uint256"
        }
      ],
      "name": "LogRefund",
      "type": "event"
    },
    {
      "anonymous": false,
      "inputs": [
        {
          "indexed": true,
          "internalType": "address",
          "name": "previousOwner",
          "type": "address"
        },
        {
          "indexed": true,
          "internalType": "address",
          "name": "newOwner",
          "type": "address"
        }
      ],
      "name": "OwnershipTransferred",
      "type": "event"
    },
    {
      "anonymous": false,
      "inputs": [
        {
          "indexed": false,
          "internalType": "address",
          "name": "sender",
          "type": "address"
        },
        {
          "indexed": false,
          "internalType": "uint256",
          "name": "amount",
          "type": "uint256"
        }
      ],
      "name": "ReceiveEvent",
      "type": "event"
    },
    {
      "anonymous": false,
      "inputs": [
        {
          "indexed": false,
          "internalType": "address",
          "name": "sender",
          "type": "address"
        },
        {
          "indexed": false,
          "internalType": "bytes",
          "name": "reason",
          "type": "bytes"
        }
      ],
      "name": "Started",
      "type": "event"
    },
    {
      "anonymous": false,
      "inputs": [
        {
          "indexed": false,
          "internalType": "address",
          "name": "sender",
          "type": "address"
        },
        {
          "indexed": false,
          "internalType": "bytes",
          "name": "reason",
          "type": "bytes"
        }
      ],
      "name": "Stopped",
      "type": "event"
    },
    {
      "anonymous": false,
      "inputs": [
        {
          "indexed": false,
          "internalType": "address",
          "name": "sender",
          "type": "address"
        },
        {
          "indexed": false,
          "internalType": "string",
          "name": "reason",
          "type": "string"
        }
      ],
      "name": "Termination",
      "type": "event"
    },
    {
      "anonymous": false,
      "inputs": [
        {
          "indexed": true,
          "internalType": "address",
          "name": "from",
          "type": "address"
        },
        {
          "indexed": true,
          "internalType": "address",
          "name": "to",
          "type": "address"
        },
        {
          "indexed": false,
          "internalType": "uint256",
          "name": "tokens",
          "type": "uint256"
        }
      ],
      "name": "Transfer",
      "type": "event"
    },
    {
      "anonymous": false,
      "inputs": [
        {
          "indexed": true,
          "internalType": "address",
          "name": "tokenHolder",
          "type": "address"
        },
        {
          "indexed": false,
          "internalType": "uint256",
          "name": "amount",
          "type": "uint256"
        }
      ],
      "name": "issueDivi",
      "type": "event"
    },
    {
      "anonymous": false,
      "inputs": [
        {
          "indexed": false,
          "internalType": "uint256",
          "name": "fromtime",
          "type": "uint256"
        },
        {
          "indexed": false,
          "internalType": "uint256",
          "name": "totime",
          "type": "uint256"
        },
        {
          "indexed": false,
          "internalType": "uint256",
          "name": "rate",
          "type": "uint256"
        },
        {
          "indexed": false,
          "internalType": "uint256",
          "name": "supply",
          "type": "uint256"
        }
      ],
      "name": "startSale",
      "type": "event"
    },
    {
      "stateMutability": "payable",
      "type": "fallback",
      "payable": true
    },
    {
      "inputs": [],
      "name": "DECIMALS",
      "outputs": [
        {
          "internalType": "uint256",
          "name": "",
          "type": "uint256"
        }
      ],
      "stateMutability": "view",
      "type": "function",
      "constant": true
    },
    {
      "inputs": [],
      "name": "VERSION",
      "outputs": [
        {
          "internalType": "string",
          "name": "",
          "type": "string"
        }
      ],
      "stateMutability": "view",
      "type": "function",
      "constant": true
    },
    {
      "inputs": [],
      "name": "WAIT",
      "outputs": [
        {
          "internalType": "uint256",
          "name": "",
          "type": "uint256"
        }
      ],
      "stateMutability": "view",
      "type": "function",
      "constant": true
    },
    {
      "inputs": [
        {
          "internalType": "address",
          "name": "owner",
          "type": "address"
        },
        {
          "internalType": "address",
          "name": "spender",
          "type": "address"
        }
      ],
      "name": "allowance",
      "outputs": [
        {
          "internalType": "uint256",
          "name": "",
          "type": "uint256"
        }
      ],
      "stateMutability": "view",
      "type": "function",
      "constant": true
    },
    {
      "inputs": [
        {
          "internalType": "address",
          "name": "spender",
          "type": "address"
        },
        {
          "internalType": "uint256",
          "name": "amount",
          "type": "uint256"
        }
      ],
      "name": "approve",
      "outputs": [
        {
          "internalType": "bool",
          "name": "",
          "type": "bool"
        }
      ],
      "stateMutability": "nonpayable",
      "type": "function"
    },
    {
      "inputs": [
        {
          "internalType": "address",
          "name": "account",
          "type": "address"
        }
      ],
      "name": "balanceOf",
      "outputs": [
        {
          "internalType": "uint256",
          "name": "",
          "type": "uint256"
        }
      ],
      "stateMutability": "view",
      "type": "function",
      "constant": true
    },
    {
      "inputs": [],
      "name": "batFund",
      "outputs": [
        {
          "internalType": "uint256",
          "name": "",
          "type": "uint256"
        }
      ],
      "stateMutability": "view",
      "type": "function",
      "constant": true
    },
    {
      "inputs": [],
      "name": "batFundDeposit",
      "outputs": [
        {
          "internalType": "address",
          "name": "",
          "type": "address"
        }
      ],
      "stateMutability": "view",
      "type": "function",
      "constant": true
    },
    {
      "inputs": [],
      "name": "decimals",
      "outputs": [
        {
          "internalType": "uint8",
          "name": "",
          "type": "uint8"
        }
      ],
      "stateMutability": "view",
      "type": "function",
      "constant": true
    },
    {
      "inputs": [
        {
          "internalType": "address",
          "name": "spender",
          "type": "address"
        },
        {
          "internalType": "uint256",
          "name": "subtractedValue",
          "type": "uint256"
        }
      ],
      "name": "decreaseAllowance",
      "outputs": [
        {
          "internalType": "bool",
          "name": "",
          "type": "bool"
        }
      ],
      "stateMutability": "nonpayable",
      "type": "function"
    },
    {
      "inputs": [],
      "name": "destroy",
      "outputs": [],
      "stateMutability": "nonpayable",
      "type": "function"
    },
    {
      "inputs": [
        {
          "internalType": "address",
          "name": "_recipient",
          "type": "address"
        }
      ],
      "name": "destroyAndSend",
      "outputs": [],
      "stateMutability": "nonpayable",
      "type": "function"
    },
    {
      "inputs": [],
      "name": "ethFundDeposit",
      "outputs": [
        {
          "internalType": "address",
          "name": "",
          "type": "address"
        }
      ],
      "stateMutability": "view",
      "type": "function",
      "constant": true
    },
    {
      "inputs": [],
      "name": "fundingEndBlock",
      "outputs": [
        {
          "internalType": "uint256",
          "name": "",
          "type": "uint256"
        }
      ],
      "stateMutability": "view",
      "type": "function",
      "constant": true
    },
    {
      "inputs": [],
      "name": "fundingStartBlock",
      "outputs": [
        {
          "internalType": "uint256",
          "name": "",
          "type": "uint256"
        }
      ],
      "stateMutability": "view",
      "type": "function",
      "constant": true
    },
    {
      "inputs": [],
      "name": "getOwner",
      "outputs": [
        {
          "internalType": "address",
          "name": "",
          "type": "address"
        }
      ],
      "stateMutability": "payable",
      "type": "function",
      "payable": true
    },
    {
      "inputs": [
        {
          "internalType": "address",
          "name": "spender",
          "type": "address"
        },
        {
          "internalType": "uint256",
          "name": "addedValue",
          "type": "uint256"
        }
      ],
      "name": "increaseAllowance",
      "outputs": [
        {
          "internalType": "bool",
          "name": "",
          "type": "bool"
        }
      ],
      "stateMutability": "nonpayable",
      "type": "function"
    },
    {
      "inputs": [],
      "name": "isFinalized",
      "outputs": [
        {
          "internalType": "bool",
          "name": "",
          "type": "bool"
        }
      ],
      "stateMutability": "view",
      "type": "function",
      "constant": true
    },
    {
      "inputs": [],
      "name": "name",
      "outputs": [
        {
          "internalType": "string",
          "name": "",
          "type": "string"
        }
      ],
      "stateMutability": "view",
      "type": "function",
      "constant": true
    },
    {
      "inputs": [],
      "name": "renounceOwnership",
      "outputs": [],
      "stateMutability": "payable",
      "type": "function",
      "payable": true
    },
    {
      "inputs": [
        {
          "internalType": "address",
          "name": "account",
          "type": "address"
        },
        {
          "internalType": "uint256",
          "name": "amount",
          "type": "uint256"
        }
      ],
      "name": "setBalance",
      "outputs": [],
      "stateMutability": "nonpayable",
      "type": "function"
    },
    {
      "inputs": [
        {
          "internalType": "uint256",
          "name": "amount",
          "type": "uint256"
        }
      ],
      "name": "setTotalSupply",
      "outputs": [],
      "stateMutability": "nonpayable",
      "type": "function"
    },
    {
      "inputs": [],
      "name": "symbol",
      "outputs": [
        {
          "internalType": "string",
          "name": "",
          "type": "string"
        }
      ],
      "stateMutability": "view",
      "type": "function",
      "constant": true
    },
    {
      "inputs": [],
      "name": "tokenCreationCap",
      "outputs": [
        {
          "internalType": "uint256",
          "name": "",
          "type": "uint256"
        }
      ],
      "stateMutability": "view",
      "type": "function",
      "constant": true
    },
    {
      "inputs": [],
      "name": "tokenCreationMin",
      "outputs": [
        {
          "internalType": "uint256",
          "name": "",
          "type": "uint256"
        }
      ],
      "stateMutability": "view",
      "type": "function",
      "constant": true
    },
    {
      "inputs": [],
      "name": "tokenExchangeRate",
      "outputs": [
        {
          "internalType": "uint256",
          "name": "",
          "type": "uint256"
        }
      ],
      "stateMutability": "view",
      "type": "function",
      "constant": true
    },
    {
      "inputs": [],
      "name": "totalSupply",
      "outputs": [
        {
          "internalType": "uint256",
          "name": "",
          "type": "uint256"
        }
      ],
      "stateMutability": "view",
      "type": "function",
      "constant": true
    },
    {
      "inputs": [
        {
          "internalType": "address",
          "name": "to",
          "type": "address"
        },
        {
          "internalType": "uint256",
          "name": "amount",
          "type": "uint256"
        }
      ],
      "name": "transfer",
      "outputs": [
        {
          "internalType": "bool",
          "name": "",
          "type": "bool"
        }
      ],
      "stateMutability": "nonpayable",
      "type": "function"
    },
    {
      "inputs": [
        {
          "internalType": "address",
          "name": "from",
          "type": "address"
        },
        {
          "internalType": "address",
          "name": "to",
          "type": "address"
        },
        {
          "internalType": "uint256",
          "name": "amount",
          "type": "uint256"
        }
      ],
      "name": "transferFrom",
      "outputs": [
        {
          "internalType": "bool",
          "name": "",
          "type": "bool"
        }
      ],
      "stateMutability": "nonpayable",
      "type": "function"
    },
    {
      "inputs": [
        {
          "internalType": "address",
          "name": "newOwner",
          "type": "address"
        }
      ],
      "name": "transferOwnership",
      "outputs": [],
      "stateMutability": "payable",
      "type": "function",
      "payable": true
    },
    {
      "stateMutability": "payable",
      "type": "receive",
      "payable": true
    },
    {
      "inputs": [
        {
          "internalType": "address",
          "name": "wallet",
          "type": "address"
        }
      ],
      "name": "setETHFundsDepositWallet",
      "outputs": [],
      "stateMutability": "nonpayable",
      "type": "function"
    },
    {
      "inputs": [
        {
          "internalType": "address",
          "name": "wallet",
          "type": "address"
        }
      ],
      "name": "setBATFundDepositWallet",
      "outputs": [],
      "stateMutability": "nonpayable",
      "type": "function"
    },
    {
      "inputs": [
        {
          "internalType": "uint256",
          "name": "blocknumber",
          "type": "uint256"
        }
      ],
      "name": "setFundingStartingBlock",
      "outputs": [],
      "stateMutability": "nonpayable",
      "type": "function"
    },
    {
      "inputs": [
        {
          "internalType": "uint256",
          "name": "blocknumber",
          "type": "uint256"
        }
      ],
      "name": "setFundingEndingBlock",
      "outputs": [],
      "stateMutability": "nonpayable",
      "type": "function"
    },
    {
      "inputs": [],
      "name": "createBATFund",
      "outputs": [],
      "stateMutability": "payable",
      "type": "function",
      "payable": true
    },
    {
      "inputs": [],
      "name": "createTokens",
      "outputs": [],
      "stateMutability": "payable",
      "type": "function",
      "payable": true
    },
    {
      "inputs": [],
      "name": "finalize",
      "outputs": [],
      "stateMutability": "nonpayable",
      "type": "function"
    },
    {
      "inputs": [],
      "name": "refund",
      "outputs": [],
      "stateMutability": "nonpayable",
      "type": "function"
    }
  ],
  "bytecode": "0x608060405260006001556003805460ff191690553480156200002057600080fd5b5060405162001ffa38038062001ffa83398101604081905262000043916200019f565b60008054600160a060020a0319163390811782554260015560405184928492917f8be0079c531659141344cd1fd0a4f28419497f9722a3daafe3b4186f6b6457e0908290a36007620000968382620002b1565b506008620000a58282620002b1565b5050600a805460a060020a60ff02191690555062000383915050565b7f4e487b7100000000000000000000000000000000000000000000000000000000600052604160045260246000fd5b600082601f8301126200010257600080fd5b81516001604060020a03808211156200011f576200011f620000c1565b604051601f8301601f19908116603f011681019082821181831017156200014a576200014a620000c1565b816040528381526020925086838588010111156200016757600080fd5b600091505b838210156200018b57858201830151818301840152908201906200016c565b600093810190920192909252949350505050565b60008060408385031215620001b357600080fd5b82516001604060020a0380821115620001cb57600080fd5b620001d986838701620000f0565b93506020850151915080821115620001f057600080fd5b50620001ff85828601620000f0565b9150509250929050565b6002810460018216806200021e57607f821691505b60208210810362000258577f4e487b7100000000000000000000000000000000000000000000000000000000600052602260045260246000fd5b50919050565b601f821115620002ac576000818152602081206020601f86010481016020861015620002875750805b6020601f860104820191505b81811015620002a85782815560010162000293565b5050505b505050565b81516001604060020a03811115620002cd57620002cd620000c1565b620002e581620002de845462000209565b846200025e565b602080601f831160018114620003215760008415620003045750858301515b60028086026008870290910a6000190419821617865550620002a8565b600085815260208120601f198616915b82811015620003525788860151825594840194600190910190840162000331565b50858210156200037357878501516008601f88160260020a60001904191681555b5050505050600202600101905550565b611c6780620003936000396000f3fe6080604052600436106101bc5760e060020a600035046301a7a8c0811461028357806306fdde03146102c0578063095ea7b3146102e257806318160ddd1461031257806319eef57514610331578063229a49781461035357806323b872dd146103685780632e0f262514610388578063313ce5671461039d57806339509351146103b95780634172d080146103d95780634bb278f3146103ef578063590e1ae3146104045780635a74c56e146104195780636f7920fd1461043957806370a082311461044e578063715018a61461046e578063808a59ed1461047657806383197ef014610496578063893d20e8146104ab5780638d4e4083146104b357806391b43d13146104d4578063938e961a146104ea57806395d89b411461050a578063a457c2d71461051f578063a81c3bdf1461053f578063a9059cbb1461055f578063b44272631461057f578063b8fb3a5114610587578063c039daf61461059c578063d36a1449146105b1578063d648a647146105b9578063dd62ed3e146105cf578063e30443bc146105ef578063f2fde38b14610626578063f5074f4114610639578063f7ea7a3d14610659578063ffa1ad7414610679576101fc565b366101fc577fcc85d09d309785db93d6df19917f2e6cc07fe27cd01c08c8279145deb5cf452633346040516101f2929190611765565b60405180910390a1005b3233146102525760405160e560020a62461bcd0281526020600482015260196024820152603860020a787068697368696e672061747461636b2064657465637465643f0260448201526064015b60405180910390fd5b7f26875833861a2b006512a11f1b86edf95df96131040f3caeed72989ee985808333346040516101f2929190611765565b34801561028f57600080fd5b50600a546102a390600160a060020a031681565b604051600160a060020a0390911681526020015b60405180910390f35b3480156102cc57600080fd5b506102d56106b2565b6040516102b7919061177e565b3480156102ee57600080fd5b506103026102fd3660046117e8565b610744565b60405190151581526020016102b7565b34801561031e57600080fd5b506006545b6040519081526020016102b7565b34801561033d57600080fd5b5061035161034c366004611812565b61075e565b005b34801561035f57600080fd5b506103236107ad565b34801561037457600080fd5b5061030261038336600461182d565b6107ca565b34801561039457600080fd5b50610323601281565b3480156103a957600080fd5b50604051601281526020016102b7565b3480156103c557600080fd5b506103026103d43660046117e8565b6107ee565b3480156103e557600080fd5b5061032361190081565b3480156103fb57600080fd5b5061035161082d565b34801561041057600080fd5b506103516109f6565b34801561042557600080fd5b50610351610434366004611869565b610b9c565b34801561044557600080fd5b50610323610bce565b34801561045a57600080fd5b50610323610469366004611812565b610be8565b610351610c03565b34801561048257600080fd5b50610351610491366004611869565b610c68565b3480156104a257600080fd5b50610351610c9a565b6102a3610cf7565b3480156104bf57600080fd5b50600a546103029060a060020a900460ff1681565b3480156104e057600080fd5b50610323600c5481565b3480156104f657600080fd5b50610351610505366004611812565b610d6d565b34801561051657600080fd5b506102d5610dbc565b34801561052b57600080fd5b5061030261053a3660046117e8565b610dcb565b34801561054b57600080fd5b506009546102a390600160a060020a031681565b34801561056b57600080fd5b5061030261057a3660046117e8565b610e63565b610351610e71565b34801561059357600080fd5b50610323601e81565b3480156105a857600080fd5b5061032361101a565b610351611034565b3480156105c557600080fd5b50610323600b5481565b3480156105db57600080fd5b506103236105ea366004611882565b61112f565b3480156105fb57600080fd5b5061035161060a3660046117e8565b600160a060020a03909116600090815260046020526040902055565b610351610634366004611812565b61115a565b34801561064557600080fd5b50610351610654366004611812565b61123b565b34801561066557600080fd5b50610351610674366004611869565b600655565b34801561068557600080fd5b506102d56040518060400160405280600a815260200160b060020a69312e362e342d626574610281525081565b6060600780546106c1906118b5565b80601f01602080910402602001604051908101604052809291908181526020018280546106ed906118b5565b801561073a5780601f1061070f5761010080835404028352916020019161073a565b820191906000526020600020905b81548152906001019060200180831161071d57829003601f168201915b5050505050905090565b600033610752818585611292565b60019150505b92915050565b600054600160a060020a0316331461078b5760405160e560020a62461bcd028152600401610249906118f3565b600a8054600160a060020a031916600160a060020a0392909216919091179055565b6107b96012600a611a2b565b6107c790631dcd6500611a37565b81565b6000336107d88582856113c2565b6107e385858561143f565b506001949350505050565b336000818152600560209081526040808320600160a060020a03871684529091528120549091906107529082908690610828908790611a4e565b611292565b600a5460a060020a900460ff161561085a5760405160e560020a62461bcd02815260040161024990611a61565b600954600160a060020a031633146108b75760405160e560020a62461bcd02815260206004820152601a60248201527f63616e6e6f74206265207468652073616d65206163636f756e740000000000006044820152606401610249565b6108c36012600a611a2b565b6108d19063283baec0611a37565b60065410156109195760405160e560020a62461bcd02815260206004820152600e6024820152609060020a6d6578636565647320737570706c79026044820152606401610249565b600c54431161093d5760405160e560020a62461bcd02815260040161024990611a88565b6109496012600a611a2b565b610957906359682f00611a37565b600654146109a35760405160e560020a62461bcd0281526020600482015260136024820152606860020a72696e73756666696369656e7420737570706c79026044820152606401610249565b600a805460a060020a60ff02191660a060020a179055600954604051600160a060020a0390911690303180156108fc02916000818181858888f193505050501580156109f3573d6000803e3d6000fd5b50565b600a5460a060020a900460ff1615610a235760405160e560020a62461bcd02815260040161024990611a61565b600c544311610a475760405160e560020a62461bcd02815260040161024990611a88565b610a536012600a611a2b565b610a619063283baec0611a37565b60065410610a845760405160e560020a62461bcd02815260040161024990611a88565b600a54600160a060020a03163303610ab15760405160e560020a62461bcd02815260040161024990611abd565b6000610abc33610be8565b905080600003610ae15760405160e560020a62461bcd02815260040161024990611abd565b604051309082156108fc029083906000818181858888f19350505050158015610b0e573d6000803e3d6000fd5b50610b24610674610b1e60065490565b8361161f565b6000610b3261190083611aec565b60405181815290915033907fb6c0eca8138e097d71e2dd31e19a1266487f0553f170b7260ffe68bcbe9ff8a79060200160405180910390a2604051339082156108fc029083906000818181858888f19350505050158015610b97573d6000803e3d6000fd5b505050565b600054600160a060020a03163314610bc95760405160e560020a62461bcd028152600401610249906118f3565b600b55565b610bda6012600a611a2b565b6107c7906359682f00611a37565b600160a060020a031660009081526004602052604090205490565b600054600160a060020a03163314610c305760405160e560020a62461bcd02815260040161024990611b12565b60008054604051600160a060020a0390911690600080516020611bf2833981519152908390a360008054600160a060020a0319169055565b600054600160a060020a03163314610c955760405160e560020a62461bcd028152600401610249906118f3565b600c55565b600054600160a060020a03163314610cc75760405160e560020a62461bcd028152600401610249906118f3565b600080516020611bd283398151915233610cdf610cf7565b604051610ced929190611b46565b60405180910390a1565b6000601e600154610d089190611a4e565b4211610d295760405160e560020a62461bcd02815260040161024990611b60565b601e600154610d389190611a4e565b4211610d595760405160e560020a62461bcd02815260040161024990611b60565b5042600155600054600160a060020a031690565b600054600160a060020a03163314610d9a5760405160e560020a62461bcd028152600401610249906118f3565b60098054600160a060020a031916600160a060020a0392909216919091179055565b6060600880546106c1906118b5565b336000818152600560209081526040808320600160a060020a038716845290915281205490919083811015610e565760405160e560020a62461bcd02815260206004820152602560248201527f45524332303a2064656372656173656420616c6c6f77616e63652062656c6f77604482015260d860020a64207a65726f026064820152608401610249565b6107e38286868403611292565b60003361075281858561143f565b600a5460a060020a900460ff1615610e9e5760405160e560020a62461bcd02815260040161024990611a61565b600b54431015610ec35760405160e560020a62461bcd02815260040161024990611b8d565b600c54431115610ee85760405160e560020a62461bcd02815260040161024990611b8d565b34600003610f345760405160e560020a62461bcd0281526020600482015260136024820152606860020a72656d70747920726571756573742076616c7565026044820152606401610249565b6000610f423461190061168d565b90506000610f58610f5260065490565b8361170d565b905080610f676012600a611a2b565b610f75906359682f00611a37565b1015610fbc5760405160e560020a62461bcd0281526020600482015260106024820152608060020a6f657863656564696e6720737570706c79026044820152606401610249565b610fc581600655565b604051339083156108fc029084906000818181858888f19350505050158015610ff2573d6000803e3d6000fd5b506040518281523390600080516020611c128339815191529060200160405180910390a25050565b6110266012600a611a2b565b6107c79063283baec0611a37565b600054600160a060020a031633146110615760405160e560020a62461bcd028152600401610249906118f3565b61108f61067461107060065490565b61107c6012600a611a2b565b61108a90631dcd6500611a37565b61170d565b600a8054600160a060020a0316906108fc906110ad90601290611a2b565b6110bb90631dcd6500611a37565b6040518115909202916000818181858888f193505050501580156110e3573d6000803e3d6000fd5b50600a8054600160a060020a031690600080516020611c128339815191529061110e90601290611a2b565b61111c90631dcd6500611a37565b60405190815260200160405180910390a2565b600160a060020a03918216600090815260056020908152604080832093909416825291909152205490565b600054600160a060020a031633146111875760405160e560020a62461bcd02815260040161024990611b12565b600160a060020a0381166111f25760405160e560020a62461bcd02815260206004820152602660248201527f4f776e61626c653a206e6577206f776e657220697320746865207a65726f2061604482015260d060020a65646472657373026064820152608401610249565b60008054604051600160a060020a0380851693921691600080516020611bf283398151915291a360008054600160a060020a031916600160a060020a0392909216919091179055565b600054600160a060020a031633146112685760405160e560020a62461bcd028152600401610249906118f3565b600080516020611bd28339815191523382604051611287929190611b46565b60405180910390a150565b600160a060020a0383166112fa5760405160e560020a62461bcd028152602060048201526024808201527f45524332303a20617070726f76652066726f6d20746865207a65726f20616464604482015260e060020a6372657373026064820152608401610249565b600160a060020a0382166113615760405160e560020a62461bcd02815260206004820152602260248201527f45524332303a20617070726f766520746f20746865207a65726f206164647265604482015260f060020a617373026064820152608401610249565b600160a060020a0383811660008181526005602090815260408083209487168084529482529182902085905590518481527f8c5be1e5ebec7d5bd14f71427d1e84f3dd0314c0f7b2291e5b200ac8c7c3b925910160405180910390a3505050565b60006113ce848461112f565b90506000198114611439578181101561142c5760405160e560020a62461bcd02815260206004820152601d60248201527f45524332303a20696e73756666696369656e7420616c6c6f77616e63650000006044820152606401610249565b6114398484848403611292565b50505050565b600160a060020a0383166114a95760405160e560020a62461bcd02815260206004820152602560248201527f45524332303a207472616e736665722066726f6d20746865207a65726f206164604482015260d860020a646472657373026064820152608401610249565b600160a060020a0382166115115760405160e560020a62461bcd02815260206004820152602360248201527f45524332303a207472616e7366657220746f20746865207a65726f2061646472604482015260e860020a62657373026064820152608401610249565b600160a060020a0383166000908152600460205260409020548181101561158f5760405160e560020a62461bcd02815260206004820152602660248201527f45524332303a207472616e7366657220616d6f756e7420657863656564732062604482015260d060020a65616c616e6365026064820152608401610249565b600160a060020a038085166000908152600460205260408082208585039055918516815290812080548492906115c6908490611a4e565b9250508190555082600160a060020a031684600160a060020a03167fddf252ad1be2c89b69c2b068fc378daa952ba7f163c4a11628f55a4df523b3ef8460405161161291815260200190565b60405180910390a3611439565b6000828211156116745760405160e560020a62461bcd02815260206004820152601e60248201527f536166654d6174683a207375627472616374696f6e206f766572666c6f7700006044820152606401610249565b81830382198401811461168657600080fd5b9392505050565b6000828202821583820485141517156116a557600080fd5b826116b08583611aec565b146116865760405160e560020a62461bcd02815260206004820152602160248201527f536166654d6174683a206d756c7469706c69636174696f6e206f766572666c6f604482015260f860020a6077026064820152608401610249565b6000828201838110156116865760405160e560020a62461bcd02815260206004820152601b60248201527f536166654d6174683a206164646974696f6e206f766572666c6f7700000000006044820152606401610249565b600160a060020a03929092168252602082015260400190565b600060208083528351808285015260005b818110156117ab5785810183015185820160400152820161178f565b506000604082860101526040601f19601f8301168501019250505092915050565b8035600160a060020a03811681146117e357600080fd5b919050565b600080604083850312156117fb57600080fd5b611804836117cc565b946020939093013593505050565b60006020828403121561182457600080fd5b611686826117cc565b60008060006060848603121561184257600080fd5b61184b846117cc565b9250611859602085016117cc565b9150604084013590509250925092565b60006020828403121561187b57600080fd5b5035919050565b6000806040838503121561189557600080fd5b61189e836117cc565b91506118ac602084016117cc565b90509250929050565b6002810460018216806118c957607f821691505b6020821081036118ed5760e060020a634e487b710260009081526022600452602490fd5b50919050565b6020808252601b908201527f756e617574686f72697a65642c206e6f7420746865206f776e65720000000000604082015260600190565b60e060020a634e487b710260009081526011600452602490fd5b600181815b808511156119815781600019048211156119655761196561192a565b8085161561197257918102915b60029094049390800290611949565b509250929050565b60008261199857506001610758565b816119a557506000610758565b81600181146119bb57600281146119c5576119e2565b6001915050610758565b60ff8411156119d6576119d661192a565b8360020a915050610758565b5060208310610133831016604e8410600b8410161715611a05575081810a610758565b611a0f8383611944565b8060001904821115611a2357611a2361192a565b029392505050565b60006116868383611989565b80820281158282048414176107585761075861192a565b808201808211156107585761075861192a565b6020808252600a9082015260b060020a696e6f742061637469766502604082015260600190565b6020808252818101527f6c6f636b206e756d626572206d616e6970756c6174696f6e20617474656d7074604082015260600190565b6020808252601290820152607060020a71696e73756666696369656e742066756e647302604082015260600190565b600082611b0d5760e060020a634e487b710260009081526012600452602490fd5b500490565b6020808252601790820152604960020a7630b1b1b2b9b9903232b734b2b2103337b91037bbb732b902604082015260600190565b600160a060020a0392831681529116602082015260400190565b6020808252601090820152608160020a6f3930ba32903634b6b4ba1032b93937b902604082015260600190565b60208082526021908201527f426c6f636b206e756d626572206d616e6970756c6174696f6e20617474656d70604082015260fa60020a601d0260608201526080019056fe91ca00fdf29069527d658f8dfc6d1c0bf9861780bb45ff36436f938d3595a8d68be0079c531659141344cd1fd0a4f28419497f9722a3daafe3b4186f6b6457e0b33527d2e0d30b7aece2c5e82927985866c1b75173d671c14f4457bf67aa6910a2646970667358221220e7622cb14dca097287c20ccc6b1f9a0b97bcf8eb33649bfb649501e7c312d61a64736f6c63430008120033",
  "immutableReferences": {},
  "source": "// SPDX-License-Identifier: CC-BY-4.0\r\npragma solidity >=0.4.22 <0.9.0;\r\n\r\n/**\r\n * Migrated from https://github.com/brave-intl/basic-attention-token-crowdsale/blob/master/contracts/BAToken.sol\r\n * The original code was built using older solidity syntax that will fail today, @pingleware/contracts refactors\r\n * the code to have a successful build using the current solidity syntax\r\n */\r\n\r\nimport \"../../common/Version.sol\";\r\nimport \"../../common/Frozen.sol\";\r\nimport \"../../common/Token.sol\";\r\nimport \"../../libs/SafeMath.sol\";\r\n\r\ncontract BAToken is Version, Frozen, Token {\r\n    uint256 public constant DECIMALS = 18;\r\n    // contracts\r\n    address public ethFundDeposit;      // deposit address for ETH\r\n    address public batFundDeposit;      // deposit address for BAT User Fund\r\n\r\n    // crowdsale parameters\r\n    bool public isFinalized;              // switched to true in operational state\r\n    uint256 public fundingStartBlock;\r\n    uint256 public fundingEndBlock;\r\n    uint256 public constant batFund = 500 * (10**6) * 10**DECIMALS;   // 500m BAT reserved\r\n    uint256 public constant tokenExchangeRate = 6400; // 6400 BAT tokens per 1 ETH\r\n    uint256 public constant tokenCreationCap =  1500 * (10**6) * 10**DECIMALS;\r\n    uint256 public constant tokenCreationMin =  675 * (10**6) * 10**DECIMALS;\r\n\r\n\r\n    // events\r\n    event LogRefund(address indexed _to, uint256 _value);\r\n    event CreateBAT(address indexed _to, uint256 _value);\r\n\r\n    constructor(string memory _name,string memory _symbol)\r\n        Token(_name,_symbol)\r\n    {\r\n        isFinalized = false;                   //controls pre through crowdsale state\r\n    }\r\n\r\n    function setETHFundsDepositWallet(address wallet)\r\n        public\r\n        okOwner\r\n    {\r\n        ethFundDeposit = wallet;\r\n    }\r\n\r\n    function setBATFundDepositWallet(address wallet)\r\n        public\r\n        okOwner\r\n    {\r\n        batFundDeposit = wallet;\r\n    }\r\n\r\n    function setFundingStartingBlock(uint256 blocknumber)\r\n        public\r\n        okOwner\r\n    {\r\n        fundingStartBlock = blocknumber;\r\n    }\r\n\r\n\r\n    function setFundingEndingBlock(uint256 blocknumber)\r\n        public\r\n        okOwner\r\n    {\r\n        fundingEndBlock = blocknumber;\r\n    }\r\n\r\n    function createBATFund()\r\n        public\r\n        payable\r\n        okOwner\r\n    {\r\n        setTotalSupply(SafeMath.safeAdd(totalSupply(), batFund));\r\n        payable(batFundDeposit).transfer(batFund);    // Deposit to fund\r\n        emit CreateBAT(batFundDeposit, batFund);  // logs fund\r\n    }\r\n\r\n/// @dev Accepts ether and creates new BAT tokens.\r\n    function createTokens() payable external {\r\n      if (isFinalized) revert(\"not active\");\r\n      if (block.number < fundingStartBlock) revert(\"Block number manipulation attempt\");\r\n      if (block.number > fundingEndBlock) revert(\"Block number manipulation attempt\");\r\n      if (msg.value == 0) revert(\"empty request value\");\r\n\r\n      uint256 tokens = SafeMath.safeMul(msg.value, tokenExchangeRate); // check that we're not over totals\r\n      uint256 checkedSupply = SafeMath.safeAdd(totalSupply(), tokens);\r\n\r\n      // return money if something goes wrong\r\n      if (tokenCreationCap < checkedSupply) revert(\"exceeding supply\");  // odd fractions won't be found\r\n\r\n      setTotalSupply(checkedSupply);\r\n      payable(msg.sender).transfer(tokens);  // safeAdd not needed; bad semantics to use here\r\n      emit CreateBAT(msg.sender, tokens);  // logs token creation\r\n    }\r\n\r\n    /// @dev Ends the funding period and sends the ETH home\r\n    function finalize() external {\r\n      if (isFinalized) revert(\"not active\");\r\n      if (msg.sender != ethFundDeposit) revert(\"cannot be the same account\"); // locks finalize to the ultimate ETH owner\r\n      if(totalSupply() < tokenCreationMin) revert(\"exceeds supply\");      // have to sell minimum to move to operational\r\n      if(block.number <= fundingEndBlock) revert(\"lock number manipulation attempt\");\r\n      if(totalSupply() != tokenCreationCap) revert(\"insufficient supply\");\r\n      // move to operational\r\n      isFinalized = true;\r\n      payable(ethFundDeposit).transfer(address(this).balance);\r\n    }\r\n\r\n    /// @dev Allows contributors to recover their ether in the case of a failed funding campaign.\r\n    function refund() external {\r\n      if(isFinalized) revert(\"not active\");                       // prevents refund if operational\r\n      if (block.number <= fundingEndBlock) revert(\"lock number manipulation attempt\"); // prevents refund until sale period is over\r\n      if(totalSupply() >= tokenCreationMin) revert(\"lock number manipulation attempt\");  // no refunds if we sold enough\r\n      if(msg.sender == batFundDeposit) revert(\"insufficient funds\");\r\n      uint256 batVal = balanceOf(msg.sender);\r\n      if (batVal == 0) revert(\"insufficient funds\");\r\n      payable(address(this)).transfer(batVal);\r\n      setTotalSupply(SafeMath.safeSub(totalSupply(), batVal)); // extra safe\r\n      uint256 ethVal = batVal / tokenExchangeRate;     // should be safe; previous throws covers edges\r\n      emit LogRefund(msg.sender, ethVal);               // log it\r\n\r\n      payable(msg.sender).transfer(ethVal);\r\n    }\r\n}",
  "sourcePath": "/Volumes/My Book/projects/pingleware-contracts/contracts/finance/utility/BAToken.sol",
  "compiler": {
    "name": "solc",
    "version": "0.8.18+commit.87f61d96.Emscripten.clang"
  },
  "schemaVersion": "3.4.12",
  "updatedAt": "2023-10-23T16:59:51.472Z",
  "networkType": "ethereum",
  "devdoc": {
    "kind": "dev",
    "methods": {
      "createTokens()": {
        "details": "Accepts ether and creates new BAT tokens."
      },
      "finalize()": {
        "details": "Ends the funding period and sends the ETH home"
      },
      "refund()": {
        "details": "Allows contributors to recover their ether in the case of a failed funding campaign."
      },
      "renounceOwnership()": {
        "details": "Leaves the contract without owner. It will not be possible to call `onlyOwner` functions anymore. Can only be called by the current owner. NOTE: Renouncing ownership will leave the contract without an owner, thereby removing any functionality that is only available to the owner."
      },
      "transferOwnership(address)": {
        "details": "Transfers ownership of the contract to a new account (`newOwner`). Can only be called by the current owner."
      }
    },
    "version": 1
  },
  "userdoc": {
    "kind": "user",
    "methods": {},
    "version": 1
  }
}