{
  "contractName": "BestBooks",
  "abi": [
    {
      "anonymous": false,
      "inputs": [
        {
          "indexed": false,
          "internalType": "string",
          "name": "accountName",
          "type": "string"
        },
        {
          "indexed": false,
          "internalType": "string",
          "name": "category",
          "type": "string"
        }
      ],
      "name": "AccountCreated",
      "type": "event"
    },
    {
      "anonymous": false,
      "inputs": [
        {
          "indexed": false,
          "internalType": "string",
          "name": "accountName",
          "type": "string"
        }
      ],
      "name": "AccountDeleted",
      "type": "event"
    },
    {
      "anonymous": false,
      "inputs": [
        {
          "indexed": false,
          "internalType": "string",
          "name": "accountName",
          "type": "string"
        },
        {
          "indexed": false,
          "internalType": "string",
          "name": "category",
          "type": "string"
        }
      ],
      "name": "AccountUpdated",
      "type": "event"
    },
    {
      "anonymous": false,
      "inputs": [
        {
          "indexed": false,
          "internalType": "uint256",
          "name": "index",
          "type": "uint256"
        },
        {
          "indexed": false,
          "internalType": "uint256",
          "name": "timestamp",
          "type": "uint256"
        },
        {
          "indexed": false,
          "internalType": "string",
          "name": "debitAccount",
          "type": "string"
        },
        {
          "indexed": false,
          "internalType": "string",
          "name": "creditAccount",
          "type": "string"
        },
        {
          "indexed": false,
          "internalType": "string",
          "name": "description",
          "type": "string"
        },
        {
          "indexed": false,
          "internalType": "int256",
          "name": "debitAmount",
          "type": "int256"
        },
        {
          "indexed": false,
          "internalType": "int256",
          "name": "creditAmount",
          "type": "int256"
        }
      ],
      "name": "EntryAdded",
      "type": "event"
    },
    {
      "anonymous": false,
      "inputs": [
        {
          "indexed": false,
          "internalType": "uint256",
          "name": "timestamp",
          "type": "uint256"
        },
        {
          "indexed": false,
          "internalType": "string",
          "name": "debitAccount",
          "type": "string"
        },
        {
          "indexed": false,
          "internalType": "string",
          "name": "creditAccount",
          "type": "string"
        },
        {
          "indexed": false,
          "internalType": "string",
          "name": "description",
          "type": "string"
        },
        {
          "indexed": false,
          "internalType": "int256",
          "name": "debitAmount",
          "type": "int256"
        },
        {
          "indexed": false,
          "internalType": "int256",
          "name": "creditAmount",
          "type": "int256"
        },
        {
          "indexed": false,
          "internalType": "string",
          "name": "reason",
          "type": "string"
        }
      ],
      "name": "EntryDeleted",
      "type": "event"
    },
    {
      "inputs": [
        {
          "internalType": "string",
          "name": "",
          "type": "string"
        }
      ],
      "name": "balances",
      "outputs": [
        {
          "internalType": "int256",
          "name": "",
          "type": "int256"
        }
      ],
      "stateMutability": "view",
      "type": "function",
      "constant": true
    },
    {
      "inputs": [
        {
          "internalType": "string",
          "name": "",
          "type": "string"
        }
      ],
      "name": "chartOfAccounts",
      "outputs": [
        {
          "internalType": "string",
          "name": "name",
          "type": "string"
        },
        {
          "internalType": "string",
          "name": "category",
          "type": "string"
        }
      ],
      "stateMutability": "view",
      "type": "function",
      "constant": true
    },
    {
      "inputs": [
        {
          "internalType": "uint256",
          "name": "",
          "type": "uint256"
        }
      ],
      "name": "ledger",
      "outputs": [
        {
          "internalType": "uint256",
          "name": "timestamp",
          "type": "uint256"
        },
        {
          "internalType": "string",
          "name": "debitAccount",
          "type": "string"
        },
        {
          "internalType": "string",
          "name": "creditAccount",
          "type": "string"
        },
        {
          "internalType": "string",
          "name": "description",
          "type": "string"
        },
        {
          "internalType": "int256",
          "name": "debitAmount",
          "type": "int256"
        },
        {
          "internalType": "int256",
          "name": "creditAmount",
          "type": "int256"
        }
      ],
      "stateMutability": "view",
      "type": "function",
      "constant": true
    },
    {
      "inputs": [],
      "name": "ledgerCount",
      "outputs": [
        {
          "internalType": "uint256",
          "name": "",
          "type": "uint256"
        }
      ],
      "stateMutability": "view",
      "type": "function",
      "constant": true
    },
    {
      "inputs": [
        {
          "internalType": "uint256",
          "name": "timestamp",
          "type": "uint256"
        },
        {
          "internalType": "string",
          "name": "debitAccount",
          "type": "string"
        },
        {
          "internalType": "string",
          "name": "creditAccount",
          "type": "string"
        },
        {
          "internalType": "string",
          "name": "description",
          "type": "string"
        },
        {
          "internalType": "int256",
          "name": "debitAmount",
          "type": "int256"
        },
        {
          "internalType": "int256",
          "name": "creditAmount",
          "type": "int256"
        }
      ],
      "name": "addEntry",
      "outputs": [],
      "stateMutability": "nonpayable",
      "type": "function"
    },
    {
      "inputs": [
        {
          "internalType": "uint256",
          "name": "index",
          "type": "uint256"
        },
        {
          "internalType": "string",
          "name": "reason",
          "type": "string"
        }
      ],
      "name": "deleteEntry",
      "outputs": [],
      "stateMutability": "nonpayable",
      "type": "function"
    },
    {
      "inputs": [
        {
          "internalType": "string",
          "name": "accountName",
          "type": "string"
        }
      ],
      "name": "getBalance",
      "outputs": [
        {
          "internalType": "int256",
          "name": "",
          "type": "int256"
        }
      ],
      "stateMutability": "view",
      "type": "function",
      "constant": true
    },
    {
      "inputs": [
        {
          "internalType": "uint256",
          "name": "index",
          "type": "uint256"
        }
      ],
      "name": "getLedgerEntry",
      "outputs": [
        {
          "internalType": "uint256",
          "name": "",
          "type": "uint256"
        },
        {
          "internalType": "string",
          "name": "",
          "type": "string"
        },
        {
          "internalType": "string",
          "name": "",
          "type": "string"
        },
        {
          "internalType": "string",
          "name": "",
          "type": "string"
        },
        {
          "internalType": "int256",
          "name": "",
          "type": "int256"
        },
        {
          "internalType": "int256",
          "name": "",
          "type": "int256"
        }
      ],
      "stateMutability": "view",
      "type": "function",
      "constant": true
    },
    {
      "inputs": [],
      "name": "getLedgerIndex",
      "outputs": [
        {
          "internalType": "uint256",
          "name": "",
          "type": "uint256"
        }
      ],
      "stateMutability": "view",
      "type": "function",
      "constant": true
    },
    {
      "inputs": [
        {
          "internalType": "string",
          "name": "accountName",
          "type": "string"
        },
        {
          "internalType": "string",
          "name": "category",
          "type": "string"
        }
      ],
      "name": "createAccount",
      "outputs": [],
      "stateMutability": "nonpayable",
      "type": "function"
    },
    {
      "inputs": [
        {
          "internalType": "string",
          "name": "accountName",
          "type": "string"
        },
        {
          "internalType": "string",
          "name": "newCategory",
          "type": "string"
        }
      ],
      "name": "updateAccount",
      "outputs": [],
      "stateMutability": "nonpayable",
      "type": "function"
    },
    {
      "inputs": [
        {
          "internalType": "string",
          "name": "accountName",
          "type": "string"
        }
      ],
      "name": "deleteAccount",
      "outputs": [],
      "stateMutability": "nonpayable",
      "type": "function"
    },
    {
      "inputs": [
        {
          "internalType": "string",
          "name": "accountName",
          "type": "string"
        }
      ],
      "name": "getAccount",
      "outputs": [
        {
          "internalType": "string",
          "name": "",
          "type": "string"
        },
        {
          "internalType": "string",
          "name": "",
          "type": "string"
        }
      ],
      "stateMutability": "view",
      "type": "function",
      "constant": true
    }
  ],
  "bytecode": "0x6080604052600060035534801561001557600080fd5b50611bdd806100256000396000f3fe608060405234801561001057600080fd5b50600436106100b25760e060020a600035046310a7fd7b81146100b757806319289287146100e55780632afd97a4146100fa5780633108f23c146101335780633a51d2461461014657806342a8d33f1461015957806343ec56651461016c5780634518f6b31461017f57806347de950b146101a0578063534c1bdd146101a85780639bb00ae3146101bb578063d5e363f9146101c4578063da267cbe146101d7575b600080fd5b6100ca6100c5366004611537565b6101ea565b6040516100dc969594939291906115a0565b60405180910390f35b6100f86100f336600461169b565b6103b6565b005b6101256101083660046116fe565b805160208183018101805160008252928201919093012091525481565b6040519081526020016100dc565b6100f861014136600461173a565b6105a8565b6101256101543660046116fe565b610984565b6100f8610167366004611776565b6109fd565b6100ca61017a366004611537565b610c10565b61019261018d3660046116fe565b610eb8565b6040516100dc929190611819565b600354610125565b6100f86101b636600461169b565b611070565b61012560035481565b6100f86101d23660046116fe565b6112e5565b6101926101e53660046116fe565b6113aa565b60016020819052600091825260409091208054918101805461020b90611847565b80601f016020809104026020016040519081016040528092919081815260200182805461023790611847565b80156102845780601f1061025957610100808354040283529160200191610284565b820191906000526020600020905b81548152906001019060200180831161026757829003601f168201915b50505050509080600201805461029990611847565b80601f01602080910402602001604051908101604052809291908181526020018280546102c590611847565b80156103125780601f106102e757610100808354040283529160200191610312565b820191906000526020600020905b8154815290600101906020018083116102f557829003601f168201915b50505050509080600301805461032790611847565b80601f016020809104026020016040519081016040528092919081815260200182805461035390611847565b80156103a05780601f10610375576101008083540402835291602001916103a0565b820191906000526020600020905b81548152906001019060200180831161038357829003601f168201915b5050505050908060040154908060050154905086565b816002816040516103c7919061187f565b90815260405190819003602001902080546103e190611847565b1590506104345760405160e560020a62461bcd0281526020600482015260166024820152605060020a754163636f756e7420616c7265616479206578697374730260448201526064015b60405180910390fd5b60008351116104865760405160e560020a62461bcd0281526020600482015260186024820152604260020a771058d8dbdd5b9d081b985b59481a5cc81c995c5d5a5c995902604482015260640161042b565b60008251116104da5760405160e560020a62461bcd02815260206004820152601c60248201527f4163636f756e742063617465676f727920697320726571756972656400000000604482015260640161042b565b6002836040516104ea919061187f565b908152604051908190036020019020805461050490611847565b90506000036105a357604080518082018252848152602081018490529051819060029061053290879061187f565b9081526040519081900360200190208151819061054f90826118e9565b506020820151600182019061056490826118e9565b509050507f9fbcc3a0fbc0b273608d66d207894f9a1003472bd7851526e415304078d9f71e8484604051610599929190611819565b60405180910390a1505b505050565b6000828152600160205260409020546105d65760405160e560020a62461bcd02815260040161042b906119ae565b60408051600081526020810180835281519020916105f69184910161187f565b604051602081830303815290604052805190602001200361065c5760405160e560020a62461bcd02815260206004820152601b60248201527f726561736f6e2063616e6e6f74206265206c65667420656d7074790000000000604482015260640161042b565b6000828152600160208181526040808420815160c0810190925280548252928301805491939284019161068e90611847565b80601f01602080910402602001604051908101604052809291908181526020018280546106ba90611847565b80156107075780601f106106dc57610100808354040283529160200191610707565b820191906000526020600020905b8154815290600101906020018083116106ea57829003601f168201915b5050505050815260200160028201805461072090611847565b80601f016020809104026020016040519081016040528092919081815260200182805461074c90611847565b80156107995780601f1061076e57610100808354040283529160200191610799565b820191906000526020600020905b81548152906001019060200180831161077c57829003601f168201915b505050505081526020016003820180546107b290611847565b80601f01602080910402602001604051908101604052809291908181526020018280546107de90611847565b801561082b5780601f106108005761010080835404028352916020019161082b565b820191906000526020600020905b81548152906001019060200180831161080e57829003601f168201915b5050509183525050600482015460208083019190915260059092015460409182015260008681526001928390529081208181559293509061086e908301826114e1565b61087c6002830160006114e1565b61088a6003830160006114e1565b50600060048201819055600590910181905560038054916108aa836119f9565b91905055508060800151600082602001516040516108c8919061187f565b908152602001604051809103902060008282546108e59190611a10565b909155505060a081015160408083015190516000916109039161187f565b908152602001604051809103902060008282546109209190611a10565b9091555050805160208201516040808401516060850151608086015160a087015193517f29faa72a3dc6aac138fb83ee33b8d40f98197282ade1d142c8b7bf855cc7a90b9661097796909590949392918a90611a37565b60405180910390a1505050565b6000816000600282604051610999919061187f565b90815260405190819003602001902080546109b390611847565b9050116109d55760405160e560020a62461bcd02815260040161042b90611aa4565b6000836040516109e5919061187f565b90815260200160405180910390205491505b50919050565b846000600282604051610a10919061187f565b9081526040519081900360200190208054610a2a90611847565b905011610a4c5760405160e560020a62461bcd02815260040161042b90611aa4565b846000600282604051610a5f919061187f565b9081526040519081900360200190208054610a7990611847565b905011610a9b5760405160e560020a62461bcd02815260040161042b90611aa4565b83600088604051610aac919061187f565b90815260200160405180910390206000828254610ac99190611ad7565b9250508190555082600087604051610ae1919061187f565b90815260200160405180910390206000828254610afe9190611ad7565b90915550506040805160c08101825289815260208082018a81528284018a9052606083018990526080830188905260a08301879052600354600090815260019283905293909320825181559251919283929091820190610b5e90826118e9565b5060408201516002820190610b7390826118e9565b5060608201516003820190610b8890826118e9565b506080820151600482015560a09091015160059091015560038054906000610baf83611aff565b91905055507fa009d739df97fae475a2d015ad185b174857a1930281d3061efa2bad0a176a546001600354610be49190611b18565b8a8a8a8a8a8a604051610bfd9796959493929190611b31565b60405180910390a1505050505050505050565b600060608060606000806003548710610c685760405160e560020a62461bcd0281526020600482015260146024820152606360020a73092dcecc2d8d2c840d8cac8cecae440d2dcc8caf02604482015260640161042b565b600087815260016020526040902054610c965760405160e560020a62461bcd02815260040161042b906119ae565b6000878152600160208181526040808420815160c08101909252805482529283018054919392840191610cc890611847565b80601f0160208091040260200160405190810160405280929190818152602001828054610cf490611847565b8015610d415780601f10610d1657610100808354040283529160200191610d41565b820191906000526020600020905b815481529060010190602001808311610d2457829003601f168201915b50505050508152602001600282018054610d5a90611847565b80601f0160208091040260200160405190810160405280929190818152602001828054610d8690611847565b8015610dd35780601f10610da857610100808354040283529160200191610dd3565b820191906000526020600020905b815481529060010190602001808311610db657829003601f168201915b50505050508152602001600382018054610dec90611847565b80601f0160208091040260200160405190810160405280929190818152602001828054610e1890611847565b8015610e655780601f10610e3a57610100808354040283529160200191610e65565b820191906000526020600020905b815481529060010190602001808311610e4857829003601f168201915b50505050508152602001600482015481526020016005820154815250509050806000015181602001518260400151836060015184608001518560a001519650965096509650965096505091939550919395565b606080826000600282604051610ece919061187f565b9081526040519081900360200190208054610ee890611847565b905011610f0a5760405160e560020a62461bcd02815260040161042b90611aa4565b6000600285604051610f1c919061187f565b9081526020016040518091039020604051806040016040529081600082018054610f4590611847565b80601f0160208091040260200160405190810160405280929190818152602001828054610f7190611847565b8015610fbe5780601f10610f9357610100808354040283529160200191610fbe565b820191906000526020600020905b815481529060010190602001808311610fa157829003601f168201915b50505050508152602001600182018054610fd790611847565b80601f016020809104026020016040519081016040528092919081815260200182805461100390611847565b80156110505780601f1061102557610100808354040283529160200191611050565b820191906000526020600020905b81548152906001019060200180831161103357829003601f168201915b505050505081525050905080600001518160200151935093505050915091565b816000600282604051611083919061187f565b908152604051908190036020019020805461109d90611847565b9050116110bf5760405160e560020a62461bcd02815260040161042b90611aa4565b60008251116111135760405160e560020a62461bcd02815260206004820181905260248201527f4e6577206163636f756e742063617465676f7279206973207265717569726564604482015260640161042b565b6000600284604051611125919061187f565b908152602001604051809103902060405180604001604052908160008201805461114e90611847565b80601f016020809104026020016040519081016040528092919081815260200182805461117a90611847565b80156111c75780601f1061119c576101008083540402835291602001916111c7565b820191906000526020600020905b8154815290600101906020018083116111aa57829003601f168201915b505050505081526020016001820180546111e090611847565b80601f016020809104026020016040519081016040528092919081815260200182805461120c90611847565b80156112595780601f1061122e57610100808354040283529160200191611259565b820191906000526020600020905b81548152906001019060200180831161123c57829003601f168201915b50505050508152505090508281602001819052508060028560405161127e919061187f565b9081526040519081900360200190208151819061129b90826118e9565b50602082015160018201906112b090826118e9565b509050507f8d2efd8ac538b6cc081be200d32b1d77be0f50a344d93c0b94cec33ee6ffae448484604051610599929190611819565b8060006002826040516112f8919061187f565b908152604051908190036020019020805461131290611847565b9050116113345760405160e560020a62461bcd02815260040161042b90611aa4565b600282604051611344919061187f565b908152604051908190036020019020600061135f82826114e1565b61136d6001830160006114e1565b50507f68621f32198be2aabd285ff157a36182342ebc518a0e054c08a1461ae0d864318260405161139e9190611b8d565b60405180910390a15050565b80516020818301810180516002825292820191909301209152805481906113d090611847565b80601f01602080910402602001604051908101604052809291908181526020018280546113fc90611847565b80156114495780601f1061141e57610100808354040283529160200191611449565b820191906000526020600020905b81548152906001019060200180831161142c57829003601f168201915b50505050509080600101805461145e90611847565b80601f016020809104026020016040519081016040528092919081815260200182805461148a90611847565b80156114d75780601f106114ac576101008083540402835291602001916114d7565b820191906000526020600020905b8154815290600101906020018083116114ba57829003601f168201915b5050505050905082565b5080546114ed90611847565b6000825580601f106114fd575050565b601f01602090049060005260206000209081019061151b919061151e565b50565b5b80821115611533576000815560010161151f565b5090565b60006020828403121561154957600080fd5b5035919050565b60005b8381101561156b578181015183820152602001611553565b50506000910152565b6000815180845261158c816020860160208601611550565b601f01601f19169290920160200192915050565b86815260c0602082015260006115b960c0830188611574565b82810360408401526115cb8188611574565b905082810360608401526115df8187611574565b6080840195909552505060a00152949350505050565b60e060020a634e487b710260009081526041600452602490fd5b600082601f83011261162057600080fd5b81356001604060020a038082111561163a5761163a6115f5565b604051601f8301601f19908116603f01168101908282118183101715611662576116626115f5565b8160405283815286602085880101111561167b57600080fd5b836020870160208301376000602085830101528094505050505092915050565b600080604083850312156116ae57600080fd5b82356001604060020a03808211156116c557600080fd5b6116d18683870161160f565b935060208501359150808211156116e757600080fd5b506116f48582860161160f565b9150509250929050565b60006020828403121561171057600080fd5b81356001604060020a0381111561172657600080fd5b6117328482850161160f565b949350505050565b6000806040838503121561174d57600080fd5b8235915060208301356001604060020a0381111561176a57600080fd5b6116f48582860161160f565b60008060008060008060c0878903121561178f57600080fd5b8635955060208701356001604060020a03808211156117ad57600080fd5b6117b98a838b0161160f565b965060408901359150808211156117cf57600080fd5b6117db8a838b0161160f565b955060608901359150808211156117f157600080fd5b506117fe89828a0161160f565b9350506080870135915060a087013590509295509295509295565b60408152600061182c6040830185611574565b828103602084015261183e8185611574565b95945050505050565b60028104600182168061185b57607f821691505b6020821081036109f75760e060020a634e487b710260009081526022600452602490fd5b60008251611891818460208701611550565b9190910192915050565b601f8211156105a3576000818152602081206020601f860104810160208610156118c25750805b6020601f860104820191505b818110156118e1578281556001016118ce565b505050505050565b81516001604060020a03811115611902576119026115f5565b611916816119108454611847565b8461189b565b602080601f83116001811461194f57600084156119335750858301515b60028086026008870290910a60001904198216178655506118e1565b600085815260208120601f198616915b8281101561197e5788860151825594840194600190910190840161195f565b508582101561199e57878501516008601f88160260020a60001904191681555b5050505050600202600101905550565b6020808252601490820152606260020a73195b9d1c9e48191bd95cc81b9bdd08195e1a5cdd02604082015260600190565b60e060020a634e487b710260009081526011600452602490fd5b600081611a0857611a086119df565b506000190190565b8181036000831280158383131683831282161715611a3057611a306119df565b5092915050565b87815260e060208201526000611a5060e0830189611574565b8281036040840152611a628189611574565b90508281036060840152611a768188611574565b90508560808401528460a084015282810360c0840152611a968185611574565b9a9950505050505050505050565b6020808252601690820152605260020a751058d8dbdd5b9d08191bd95cc81b9bdd08195e1a5cdd02604082015260600190565b8082018281126000831280158216821582161715611af757611af76119df565b505092915050565b600060018201611b1157611b116119df565b5060010190565b81810381811115611b2b57611b2b6119df565b92915050565b87815286602082015260e060408201526000611b5060e0830188611574565b8281036060840152611b628188611574565b90508281036080840152611b768187611574565b60a0840195909552505060c0015295945050505050565b602081526000611ba06020830184611574565b939250505056fea2646970667358221220b877bf6fddd227516e5750a106c88efea71e01d18751ab98c3a018f049697a6164736f6c63430008120033",
  "immutableReferences": {},
  "source": "// SPDX-License-Identifier: BSL-1.1\npragma solidity >=0.4.22 <0.9.0;\n\n/**\n * BestBooks Accounting Application Framework is a registered trademark &trade; of PRESSPAGE ENTERTAINMENT INC.\n */\n\nimport \"../../interfaces/IBestBooks.sol\";\n\ncontract BestBooks is IBestBooks {\n    mapping(string => int256) public balances;\n    mapping(uint256 => Entry) public ledger;\n    mapping(string => Account) public chartOfAccounts;\n\n    uint256 public ledgerCount=0;\n\n    function addEntry(\n        uint256 timestamp,\n        string memory debitAccount,\n        string memory creditAccount,\n        string memory description,\n        int256 debitAmount,\n        int256 creditAmount\n    ) override external accountExists(debitAccount) accountExists(creditAccount) {\n        \n        balances[debitAccount] += debitAmount;\n        balances[creditAccount] += creditAmount;\n\n        Entry memory entry = Entry(\n            timestamp,\n            debitAccount,\n            creditAccount,\n            description,\n            debitAmount,\n            creditAmount\n        );\n        ledger[ledgerCount] = entry;\n        ledgerCount++;\n\n        emit EntryAdded((ledgerCount - 1),timestamp, debitAccount, creditAccount, description, debitAmount, creditAmount);\n    }\n\n    function deleteEntry(uint256 index,string memory reason) external {\n        require(ledger[index].timestamp > 0,\"entry does not exist\");\n        require(keccak256(abi.encodePacked(reason)) != keccak256(abi.encodePacked(\"\")),\"reason cannot be left empty\");\n        Entry memory deletedEntry = ledger[index];\n        delete ledger[index];\n        ledgerCount--;\n        // update the account balances\n        balances[deletedEntry.debitAccount] -= deletedEntry.debitAmount;\n        balances[deletedEntry.creditAccount] -= deletedEntry.creditAmount;\n        emit EntryDeleted(deletedEntry.timestamp, deletedEntry.debitAccount, deletedEntry.creditAccount, deletedEntry.description, deletedEntry.debitAmount, deletedEntry.creditAmount,reason);\n    }\n\n    function getBalance(string memory accountName) override external view accountExists(accountName)  returns (int256) {\n        return balances[accountName];\n    }\n\n    function getLedgerEntry(uint256 index) override external view  returns (\n        uint256,\n        string memory,\n        string memory,\n        string memory,\n        int256,\n        int256\n    ) {\n        require(index < ledgerCount, \"Invalid ledger index\");\n        require(ledger[index].timestamp > 0,\"entry does not exist\");\n        Entry memory entry = ledger[index];\n        return (\n            entry.timestamp,\n            entry.debitAccount,\n            entry.creditAccount,\n            entry.description,\n            entry.debitAmount,\n            entry.creditAmount\n        );\n    }\n\n    function getLedgerIndex() external view returns (uint256) {\n        return ledgerCount;\n    }\n\n    /** \n      * FIXME: receives index out of bounds error\n      *\n    function getLedgerEntryByRange(uint256 startingTimestamp,uint256 endingTimestamp) external payable  returns(Entry[] memory) {\n        Entry[] memory entries;\n        uint256 index=0;\n        if (ledgerCount > 0) {\n            for (uint256 i=0; i<ledgerCount; i++) {\n                if (ledger[i].timestamp >= startingTimestamp && ledger[i].timestamp < endingTimestamp) {\n                    Entry memory entry = ledger[i];\n                    entries[index++] = entry;\n                }\n            }\n        }\n        return entries;\n    }\n    */\n        \n    modifier accountExists(string memory accountName) {\n        require(bytes(chartOfAccounts[accountName].name).length > 0, \"Account does not exist\");\n        _;\n    }\n\n    modifier accountNotExist(string memory accountName) {\n        require(bytes(chartOfAccounts[accountName].name).length == 0, \"Account already exists\");\n        _;\n    }\n    \n    function createAccount(string memory accountName, string memory category) override external accountNotExist(accountName) {\n        require(bytes(accountName).length > 0, \"Account name is required\");\n        require(bytes(category).length > 0, \"Account category is required\");\n\n        if (bytes(chartOfAccounts[accountName].name).length == 0) {\n            Account memory account = Account(accountName, category);\n            chartOfAccounts[accountName] = account;\n            emit AccountCreated(accountName, category);\n        }\n    }\n    \n    function updateAccount(string memory accountName, string memory newCategory) override external accountExists(accountName) {\n        require(bytes(newCategory).length > 0, \"New account category is required\");\n        \n        Account memory account = chartOfAccounts[accountName];\n        account.category = newCategory;\n        chartOfAccounts[accountName] = account;\n\n        emit AccountUpdated(accountName, newCategory);\n    }\n    \n    function deleteAccount(string memory accountName) override external  accountExists(accountName) {\n        delete chartOfAccounts[accountName];\n        emit AccountDeleted(accountName);\n    }\n    \n    function getAccount(string memory accountName) override external view accountExists(accountName) returns (string memory, string memory) {\n        Account memory account = chartOfAccounts[accountName];\n        return (account.name, account.category);\n    }\n}\n",
  "sourcePath": "/Volumes/My Book/projects/pingleware-contracts/contracts/finance/elmx/BestBooks.sol",
  "compiler": {
    "name": "solc",
    "version": "0.8.18+commit.87f61d96.Emscripten.clang"
  },
  "schemaVersion": "3.4.12",
  "updatedAt": "2023-10-27T16:42:38.110Z",
  "networkType": "ethereum",
  "devdoc": {
    "kind": "dev",
    "methods": {},
    "version": 1
  },
  "userdoc": {
    "kind": "user",
    "methods": {},
    "version": 1
  }
}