{
  "contractName": "BestBooks",
  "abi": [
    {
      "anonymous": false,
      "inputs": [
        {
          "indexed": false,
          "internalType": "string",
          "name": "accountName",
          "type": "string"
        },
        {
          "indexed": false,
          "internalType": "string",
          "name": "category",
          "type": "string"
        }
      ],
      "name": "AccountCreated",
      "type": "event"
    },
    {
      "anonymous": false,
      "inputs": [
        {
          "indexed": false,
          "internalType": "string",
          "name": "accountName",
          "type": "string"
        }
      ],
      "name": "AccountDeleted",
      "type": "event"
    },
    {
      "anonymous": false,
      "inputs": [
        {
          "indexed": false,
          "internalType": "string",
          "name": "accountName",
          "type": "string"
        },
        {
          "indexed": false,
          "internalType": "string",
          "name": "category",
          "type": "string"
        }
      ],
      "name": "AccountUpdated",
      "type": "event"
    },
    {
      "anonymous": false,
      "inputs": [
        {
          "indexed": false,
          "internalType": "uint256",
          "name": "timestamp",
          "type": "uint256"
        },
        {
          "indexed": false,
          "internalType": "string",
          "name": "debitAccount",
          "type": "string"
        },
        {
          "indexed": false,
          "internalType": "string",
          "name": "creditAccount",
          "type": "string"
        },
        {
          "indexed": false,
          "internalType": "string",
          "name": "description",
          "type": "string"
        },
        {
          "indexed": false,
          "internalType": "int256",
          "name": "debitAmount",
          "type": "int256"
        },
        {
          "indexed": false,
          "internalType": "int256",
          "name": "creditAmount",
          "type": "int256"
        }
      ],
      "name": "EntryAdded",
      "type": "event"
    },
    {
      "inputs": [
        {
          "internalType": "string",
          "name": "",
          "type": "string"
        }
      ],
      "name": "balances",
      "outputs": [
        {
          "internalType": "int256",
          "name": "",
          "type": "int256"
        }
      ],
      "stateMutability": "view",
      "type": "function",
      "constant": true
    },
    {
      "inputs": [
        {
          "internalType": "string",
          "name": "",
          "type": "string"
        }
      ],
      "name": "chartOfAccounts",
      "outputs": [
        {
          "internalType": "string",
          "name": "name",
          "type": "string"
        },
        {
          "internalType": "string",
          "name": "category",
          "type": "string"
        }
      ],
      "stateMutability": "view",
      "type": "function",
      "constant": true
    },
    {
      "inputs": [
        {
          "internalType": "uint256",
          "name": "",
          "type": "uint256"
        }
      ],
      "name": "ledger",
      "outputs": [
        {
          "internalType": "uint256",
          "name": "timestamp",
          "type": "uint256"
        },
        {
          "internalType": "string",
          "name": "debitAccount",
          "type": "string"
        },
        {
          "internalType": "string",
          "name": "creditAccount",
          "type": "string"
        },
        {
          "internalType": "string",
          "name": "description",
          "type": "string"
        },
        {
          "internalType": "int256",
          "name": "debitAmount",
          "type": "int256"
        },
        {
          "internalType": "int256",
          "name": "creditAmount",
          "type": "int256"
        }
      ],
      "stateMutability": "view",
      "type": "function",
      "constant": true
    },
    {
      "inputs": [],
      "name": "ledgerCount",
      "outputs": [
        {
          "internalType": "uint256",
          "name": "",
          "type": "uint256"
        }
      ],
      "stateMutability": "view",
      "type": "function",
      "constant": true
    },
    {
      "inputs": [
        {
          "internalType": "uint256",
          "name": "timestamp",
          "type": "uint256"
        },
        {
          "internalType": "string",
          "name": "debitAccount",
          "type": "string"
        },
        {
          "internalType": "string",
          "name": "creditAccount",
          "type": "string"
        },
        {
          "internalType": "string",
          "name": "description",
          "type": "string"
        },
        {
          "internalType": "int256",
          "name": "debitAmount",
          "type": "int256"
        },
        {
          "internalType": "int256",
          "name": "creditAmount",
          "type": "int256"
        }
      ],
      "name": "addEntry",
      "outputs": [],
      "stateMutability": "nonpayable",
      "type": "function"
    },
    {
      "inputs": [
        {
          "internalType": "string",
          "name": "account",
          "type": "string"
        }
      ],
      "name": "getBalance",
      "outputs": [
        {
          "internalType": "int256",
          "name": "",
          "type": "int256"
        }
      ],
      "stateMutability": "view",
      "type": "function",
      "constant": true
    },
    {
      "inputs": [
        {
          "internalType": "uint256",
          "name": "index",
          "type": "uint256"
        }
      ],
      "name": "getLedgerEntry",
      "outputs": [
        {
          "internalType": "uint256",
          "name": "",
          "type": "uint256"
        },
        {
          "internalType": "string",
          "name": "",
          "type": "string"
        },
        {
          "internalType": "string",
          "name": "",
          "type": "string"
        },
        {
          "internalType": "string",
          "name": "",
          "type": "string"
        },
        {
          "internalType": "int256",
          "name": "",
          "type": "int256"
        },
        {
          "internalType": "int256",
          "name": "",
          "type": "int256"
        }
      ],
      "stateMutability": "view",
      "type": "function",
      "constant": true
    },
    {
      "inputs": [
        {
          "internalType": "uint256",
          "name": "startingTimestamp",
          "type": "uint256"
        },
        {
          "internalType": "uint256",
          "name": "endingTimestamp",
          "type": "uint256"
        }
      ],
      "name": "getLedgerEntryByRange",
      "outputs": [
        {
          "components": [
            {
              "internalType": "uint256",
              "name": "timestamp",
              "type": "uint256"
            },
            {
              "internalType": "string",
              "name": "debitAccount",
              "type": "string"
            },
            {
              "internalType": "string",
              "name": "creditAccount",
              "type": "string"
            },
            {
              "internalType": "string",
              "name": "description",
              "type": "string"
            },
            {
              "internalType": "int256",
              "name": "debitAmount",
              "type": "int256"
            },
            {
              "internalType": "int256",
              "name": "creditAmount",
              "type": "int256"
            }
          ],
          "internalType": "struct IBestBooks.Entry[]",
          "name": "",
          "type": "tuple[]"
        }
      ],
      "stateMutability": "payable",
      "type": "function",
      "payable": true
    },
    {
      "inputs": [
        {
          "internalType": "string",
          "name": "accountName",
          "type": "string"
        },
        {
          "internalType": "string",
          "name": "category",
          "type": "string"
        }
      ],
      "name": "createAccount",
      "outputs": [],
      "stateMutability": "nonpayable",
      "type": "function"
    },
    {
      "inputs": [
        {
          "internalType": "string",
          "name": "accountName",
          "type": "string"
        },
        {
          "internalType": "string",
          "name": "newCategory",
          "type": "string"
        }
      ],
      "name": "updateAccount",
      "outputs": [],
      "stateMutability": "nonpayable",
      "type": "function"
    },
    {
      "inputs": [
        {
          "internalType": "string",
          "name": "accountName",
          "type": "string"
        }
      ],
      "name": "deleteAccount",
      "outputs": [],
      "stateMutability": "nonpayable",
      "type": "function"
    },
    {
      "inputs": [
        {
          "internalType": "string",
          "name": "accountName",
          "type": "string"
        }
      ],
      "name": "getAccount",
      "outputs": [
        {
          "internalType": "string",
          "name": "",
          "type": "string"
        },
        {
          "internalType": "string",
          "name": "",
          "type": "string"
        }
      ],
      "stateMutability": "view",
      "type": "function",
      "constant": true
    }
  ],
  "bytecode": "0x608060405234801561001057600080fd5b50611876806100206000396000f3fe60806040526004361061009a5760e060020a600035046310a7fd7b811461009f57806319289287146100da5780632afd97a4146100fc5780633a51d2461461014257806342a8d33f1461016257806343ec5665146101825780634518f6b3146101a2578063534c1bdd146101d05780639bb00ae3146101f0578063d5e363f914610206578063da267cbe14610226578063e2783fd814610246575b600080fd5b3480156100ab57600080fd5b506100bf6100ba36600461125d565b610266565b6040516100d1969594939291906112c6565b60405180910390f35b3480156100e657600080fd5b506100fa6100f53660046113c1565b610432565b005b34801561010857600080fd5b50610134610117366004611424565b805160208183018101805160008252928201919093012091525481565b6040519081526020016100d1565b34801561014e57600080fd5b5061013461015d366004611424565b6105aa565b34801561016e57600080fd5b506100fa61017d366004611460565b6105d1565b34801561018e57600080fd5b506100bf61019d36600461125d565b610734565b3480156101ae57600080fd5b506101c26101bd366004611424565b6109ae565b6040516100d1929190611503565b3480156101dc57600080fd5b506100fa6101eb3660046113c1565b610b16565b3480156101fc57600080fd5b5061013460035481565b34801561021257600080fd5b506100fa610221366004611424565b610d99565b34801561023257600080fd5b506101c2610241366004611424565b610e5e565b610259610254366004611531565b610f95565b6040516100d19190611553565b60016020819052600091825260409091208054918101805461028790611610565b80601f01602080910402602001604051908101604052809291908181526020018280546102b390611610565b80156103005780601f106102d557610100808354040283529160200191610300565b820191906000526020600020905b8154815290600101906020018083116102e357829003601f168201915b50505050509080600201805461031590611610565b80601f016020809104026020016040519081016040528092919081815260200182805461034190611610565b801561038e5780601f106103635761010080835404028352916020019161038e565b820191906000526020600020905b81548152906001019060200180831161037157829003601f168201915b5050505050908060030180546103a390611610565b80601f01602080910402602001604051908101604052809291908181526020018280546103cf90611610565b801561041c5780601f106103f15761010080835404028352916020019161041c565b820191906000526020600020905b8154815290600101906020018083116103ff57829003601f168201915b5050505050908060040154908060050154905086565b60008251116104895760405160e560020a62461bcd0281526020600482015260186024820152604260020a771058d8dbdd5b9d081b985b59481a5cc81c995c5d5a5c99590260448201526064015b60405180910390fd5b60008151116104dd5760405160e560020a62461bcd02815260206004820152601c60248201527f4163636f756e742063617465676f7279206973207265717569726564000000006044820152606401610480565b6002826040516104ed919061164e565b908152604051908190036020019020805461050790611610565b90506000036105a657604080518082018252838152602081018390529051819060029061053590869061164e565b9081526040519081900360200190208151819061055290826116b9565b506020820151600182019061056790826116b9565b509050507f9fbcc3a0fbc0b273608d66d207894f9a1003472bd7851526e415304078d9f71e838360405161059c929190611503565b60405180910390a1505b5050565b600080826040516105bb919061164e565b9081526020016040518091039020549050919050565b816000866040516105e2919061164e565b908152602001604051809103902060008282546105ff9190611798565b9250508190555080600085604051610617919061164e565b908152602001604051809103902060008282546106349190611798565b90915550506040805160c0810182528781526020808201888152828401889052606083018790526080830186905260a0830185905260035460009081526001928390529390932082518155925191928392909182019061069490826116b9565b50604082015160028201906106a990826116b9565b50606082015160038201906106be90826116b9565b506080820151600482015560a090910151600590910155600380549060006106e5836117c0565b91905055507fb0a64e04c54c07dfd699c9598fe862b17436f48f19d1d8aa1ee51142b10fb133878787878787604051610723969594939291906112c6565b60405180910390a150505050505050565b60006060806060600080600354871061078c5760405160e560020a62461bcd0281526020600482015260146024820152606360020a73092dcecc2d8d2c840d8cac8cecae440d2dcc8caf026044820152606401610480565b6000878152600160208181526040808420815160c081019092528054825292830180549193928401916107be90611610565b80601f01602080910402602001604051908101604052809291908181526020018280546107ea90611610565b80156108375780601f1061080c57610100808354040283529160200191610837565b820191906000526020600020905b81548152906001019060200180831161081a57829003601f168201915b5050505050815260200160028201805461085090611610565b80601f016020809104026020016040519081016040528092919081815260200182805461087c90611610565b80156108c95780601f1061089e576101008083540402835291602001916108c9565b820191906000526020600020905b8154815290600101906020018083116108ac57829003601f168201915b505050505081526020016003820180546108e290611610565b80601f016020809104026020016040519081016040528092919081815260200182805461090e90611610565b801561095b5780601f106109305761010080835404028352916020019161095b565b820191906000526020600020905b81548152906001019060200180831161093e57829003601f168201915b50505050508152602001600482015481526020016005820154815250509050806000015181602001518260400151836060015184608001518560a001519650965096509650965096505091939550919395565b60608060006002846040516109c3919061164e565b90815260200160405180910390206040518060400160405290816000820180546109ec90611610565b80601f0160208091040260200160405190810160405280929190818152602001828054610a1890611610565b8015610a655780601f10610a3a57610100808354040283529160200191610a65565b820191906000526020600020905b815481529060010190602001808311610a4857829003601f168201915b50505050508152602001600182018054610a7e90611610565b80601f0160208091040260200160405190810160405280929190818152602001828054610aaa90611610565b8015610af75780601f10610acc57610100808354040283529160200191610af7565b820191906000526020600020905b815481529060010190602001808311610ada57829003601f168201915b5050505050815250509050806000015181602001519250925050915091565b816000600282604051610b29919061164e565b9081526040519081900360200190208054610b4390611610565b905011610b655760405160e560020a62461bcd028152600401610480906117d9565b6000825111610bb95760405160e560020a62461bcd02815260206004820181905260248201527f4e6577206163636f756e742063617465676f72792069732072657175697265646044820152606401610480565b6000600284604051610bcb919061164e565b9081526020016040518091039020604051806040016040529081600082018054610bf490611610565b80601f0160208091040260200160405190810160405280929190818152602001828054610c2090611610565b8015610c6d5780601f10610c4257610100808354040283529160200191610c6d565b820191906000526020600020905b815481529060010190602001808311610c5057829003601f168201915b50505050508152602001600182018054610c8690611610565b80601f0160208091040260200160405190810160405280929190818152602001828054610cb290611610565b8015610cff5780601f10610cd457610100808354040283529160200191610cff565b820191906000526020600020905b815481529060010190602001808311610ce257829003601f168201915b505050505081525050905082816020018190525080600285604051610d24919061164e565b90815260405190819003602001902081518190610d4190826116b9565b5060208201516001820190610d5690826116b9565b509050507f8d2efd8ac538b6cc081be200d32b1d77be0f50a344d93c0b94cec33ee6ffae448484604051610d8b929190611503565b60405180910390a150505050565b806000600282604051610dac919061164e565b9081526040519081900360200190208054610dc690611610565b905011610de85760405160e560020a62461bcd028152600401610480906117d9565b600282604051610df8919061164e565b9081526040519081900360200190206000610e138282611207565b610e21600183016000611207565b50507f68621f32198be2aabd285ff157a36182342ebc518a0e054c08a1461ae0d8643182604051610e52919061180c565b60405180910390a15050565b8051602081830181018051600282529282019190930120915280548190610e8490611610565b80601f0160208091040260200160405190810160405280929190818152602001828054610eb090611610565b8015610efd5780601f10610ed257610100808354040283529160200191610efd565b820191906000526020600020905b815481529060010190602001808311610ee057829003601f168201915b505050505090806001018054610f1290611610565b80601f0160208091040260200160405190810160405280929190818152602001828054610f3e90611610565b8015610f8b5780601f10610f6057610100808354040283529160200191610f8b565b820191906000526020600020905b815481529060010190602001808311610f6e57829003601f168201915b5050505050905082565b6060806000805b6003548110156111fd576000818152600160205260409020548611801590610fd1575060008181526001602052604090205485115b156111eb57600081815260016020818152604092839020835160c081019094528054845291820180549184019161100790611610565b80601f016020809104026020016040519081016040528092919081815260200182805461103390611610565b80156110805780601f1061105557610100808354040283529160200191611080565b820191906000526020600020905b81548152906001019060200180831161106357829003601f168201915b5050505050815260200160028201805461109990611610565b80601f01602080910402602001604051908101604052809291908181526020018280546110c590611610565b80156111125780601f106110e757610100808354040283529160200191611112565b820191906000526020600020905b8154815290600101906020018083116110f557829003601f168201915b5050505050815260200160038201805461112b90611610565b80601f016020809104026020016040519081016040528092919081815260200182805461115790611610565b80156111a45780601f10611179576101008083540402835291602001916111a4565b820191906000526020600020905b81548152906001019060200180831161118757829003601f168201915b50505050508152602001600482015481526020016005820154815250508383806111cd906117c0565b9450815181106111df576111df611826565b60200260200101819052505b806111f5816117c0565b915050610f9c565b5090949350505050565b50805461121390611610565b6000825580601f10611223575050565b601f0160209004906000526020600020908101906112419190611244565b50565b5b808211156112595760008155600101611245565b5090565b60006020828403121561126f57600080fd5b5035919050565b60005b83811015611291578181015183820152602001611279565b50506000910152565b600081518084526112b2816020860160208601611276565b601f01601f19169290920160200192915050565b86815260c0602082015260006112df60c083018861129a565b82810360408401526112f1818861129a565b90508281036060840152611305818761129a565b6080840195909552505060a00152949350505050565b60e060020a634e487b710260009081526041600452602490fd5b600082601f83011261134657600080fd5b81356001604060020a03808211156113605761136061131b565b604051601f8301601f19908116603f011681019082821181831017156113885761138861131b565b816040528381528660208588010111156113a157600080fd5b836020870160208301376000602085830101528094505050505092915050565b600080604083850312156113d457600080fd5b82356001604060020a03808211156113eb57600080fd5b6113f786838701611335565b9350602085013591508082111561140d57600080fd5b5061141a85828601611335565b9150509250929050565b60006020828403121561143657600080fd5b81356001604060020a0381111561144c57600080fd5b61145884828501611335565b949350505050565b60008060008060008060c0878903121561147957600080fd5b8635955060208701356001604060020a038082111561149757600080fd5b6114a38a838b01611335565b965060408901359150808211156114b957600080fd5b6114c58a838b01611335565b955060608901359150808211156114db57600080fd5b506114e889828a01611335565b9350506080870135915060a087013590509295509295509295565b604081526000611516604083018561129a565b8281036020840152611528818561129a565b95945050505050565b6000806040838503121561154457600080fd5b50508035926020909101359150565b60208082528251828201819052600091906040908185019080840286018301878501865b8381101561160257603f19898403018552815160c08151855288820151818a8701526115a58287018261129a565b91505087820151858203898701526115bd828261129a565b915050606080830151868303828801526115d7838261129a565b6080858101519089015260a09485015194909701939093525050509386019390860190600101611577565b509098975050505050505050565b60028104600182168061162457607f821691505b6020821081036116485760e060020a634e487b710260009081526022600452602490fd5b50919050565b60008251611660818460208701611276565b9190910192915050565b601f8211156116b4576000818152602081206020601f860104810160208610156116915750805b6020601f860104820191505b818110156116b05782815560010161169d565b5050505b505050565b81516001604060020a038111156116d2576116d261131b565b6116e6816116e08454611610565b8461166a565b602080601f83116001811461171f57600084156117035750858301515b60028086026008870290910a60001904198216178655506116b0565b600085815260208120601f198616915b8281101561174e5788860151825594840194600190910190840161172f565b508582101561176e57878501516008601f88160260020a60001904191681555b5050505050600202600101905550565b60e060020a634e487b710260009081526011600452602490fd5b80820182811260008312801582168215821617156117b8576117b861177e565b505092915050565b6000600182016117d2576117d261177e565b5060010190565b6020808252601690820152605260020a751058d8dbdd5b9d08191bd95cc81b9bdd08195e1a5cdd02604082015260600190565b60208152600061181f602083018461129a565b9392505050565b60e060020a634e487b710260009081526032600452602490fdfea264697066735822122049998a64d7dff686acbe4e98aa5e85886422336bf294c52332b986012c3d552164736f6c63430008120033",
  "immutableReferences": {},
  "source": "// SPDX-License-Identifier: BSL-1.1\npragma solidity >=0.4.22 <0.9.0;\n\n/**\n * BestBooks Accounting Application Framework is a registered trademark &trade; of PRESSPAGE ENTERTAINMENT INC.\n */\n\nimport \"../../interfaces/IBestBooks.sol\";\nimport \"../../interfaces/IMemberPool.sol\";\n\ncontract BestBooks is IBestBooks {\n    mapping(string => int256) public balances;\n    mapping(uint256 => Entry) public ledger;\n    mapping(string => Account) public chartOfAccounts;\n\n    uint256 public ledgerCount;\n\n    function addEntry(\n        uint256 timestamp,\n        string memory debitAccount,\n        string memory creditAccount,\n        string memory description,\n        int256 debitAmount,\n        int256 creditAmount\n    ) override external {\n        \n        balances[debitAccount] += debitAmount;\n        balances[creditAccount] += creditAmount;\n\n        Entry memory entry = Entry(\n            timestamp,\n            debitAccount,\n            creditAccount,\n            description,\n            debitAmount,\n            creditAmount\n        );\n        ledger[ledgerCount] = entry;\n        ledgerCount++;\n\n        emit EntryAdded(timestamp, debitAccount, creditAccount, description, debitAmount, creditAmount);\n    }\n\n    function getBalance(string memory account) override external view  returns (int256) {\n        return balances[account];\n    }\n\n    function getLedgerEntry(uint256 index) override external view  returns (\n        uint256,\n        string memory,\n        string memory,\n        string memory,\n        int256,\n        int256\n    ) {\n        require(index < ledgerCount, \"Invalid ledger index\");\n        Entry memory entry = ledger[index];\n        return (\n            entry.timestamp,\n            entry.debitAccount,\n            entry.creditAccount,\n            entry.description,\n            entry.debitAmount,\n            entry.creditAmount\n        );\n    }\n\n    function getLedgerEntryByRange(uint256 startingTimestamp,uint256 endingTimestamp) external payable  returns(Entry[] memory) {\n        Entry[] memory entries;\n        uint256 index=0;\n\n        for (uint256 i=0; i<ledgerCount; i++) {\n            if (ledger[i].timestamp >= startingTimestamp && ledger[i].timestamp < endingTimestamp) {\n                entries[index++] = ledger[i];\n            }\n        }\n        return entries;\n    }\n        \n    modifier accountExists(string memory accountName) {\n        require(bytes(chartOfAccounts[accountName].name).length > 0, \"Account does not exist\");\n        _;\n    }\n    \n    function createAccount(string memory accountName, string memory category) override external {\n        require(bytes(accountName).length > 0, \"Account name is required\");\n        require(bytes(category).length > 0, \"Account category is required\");\n\n        if (bytes(chartOfAccounts[accountName].name).length == 0) {\n            Account memory account = Account(accountName, category);\n            chartOfAccounts[accountName] = account;\n            emit AccountCreated(accountName, category);\n        }\n    }\n    \n    function updateAccount(string memory accountName, string memory newCategory) override external accountExists(accountName) {\n        require(bytes(newCategory).length > 0, \"New account category is required\");\n        \n        Account memory account = chartOfAccounts[accountName];\n        account.category = newCategory;\n        chartOfAccounts[accountName] = account;\n\n        emit AccountUpdated(accountName, newCategory);\n    }\n    \n    function deleteAccount(string memory accountName) override external  accountExists(accountName) {\n        delete chartOfAccounts[accountName];\n        emit AccountDeleted(accountName);\n    }\n    \n    function getAccount(string memory accountName) override external view  returns (string memory, string memory) {\n        Account memory account = chartOfAccounts[accountName];\n        return (account.name, account.category);\n    }\n}\n",
  "sourcePath": "/Volumes/My Book/projects/pingleware-contracts/contracts/finance/elmx/BestBooks.sol",
  "compiler": {
    "name": "solc",
    "version": "0.8.18+commit.87f61d96.Emscripten.clang"
  },
  "schemaVersion": "3.4.12",
  "updatedAt": "2023-10-23T16:59:33.144Z",
  "networkType": "ethereum",
  "devdoc": {
    "kind": "dev",
    "methods": {},
    "version": 1
  },
  "userdoc": {
    "kind": "user",
    "methods": {},
    "version": 1
  }
}