{
  "contractName": "BlockchainBNB",
  "abi": [
    {
      "inputs": [],
      "stateMutability": "nonpayable",
      "type": "constructor"
    },
    {
      "anonymous": false,
      "inputs": [
        {
          "indexed": false,
          "internalType": "uint256",
          "name": "bid",
          "type": "uint256"
        }
      ],
      "name": "Booked",
      "type": "event"
    },
    {
      "anonymous": false,
      "inputs": [
        {
          "indexed": false,
          "internalType": "address",
          "name": "from",
          "type": "address"
        },
        {
          "indexed": false,
          "internalType": "uint256",
          "name": "bid",
          "type": "uint256"
        }
      ],
      "name": "BookingCancelled",
      "type": "event"
    },
    {
      "anonymous": false,
      "inputs": [
        {
          "indexed": false,
          "internalType": "address",
          "name": "from",
          "type": "address"
        },
        {
          "indexed": false,
          "internalType": "uint256",
          "name": "bid",
          "type": "uint256"
        }
      ],
      "name": "BookingComplete",
      "type": "event"
    },
    {
      "anonymous": false,
      "inputs": [
        {
          "indexed": false,
          "internalType": "uint256",
          "name": "bid",
          "type": "uint256"
        }
      ],
      "name": "Cancelled",
      "type": "event"
    },
    {
      "anonymous": false,
      "inputs": [
        {
          "indexed": false,
          "internalType": "address",
          "name": "from",
          "type": "address"
        }
      ],
      "name": "CreateAccountEvent",
      "type": "event"
    },
    {
      "anonymous": false,
      "inputs": [
        {
          "indexed": false,
          "internalType": "address",
          "name": "from",
          "type": "address"
        },
        {
          "indexed": false,
          "internalType": "uint256",
          "name": "lid",
          "type": "uint256"
        }
      ],
      "name": "CreateListingEvent",
      "type": "event"
    },
    {
      "anonymous": false,
      "inputs": [
        {
          "indexed": false,
          "internalType": "address",
          "name": "from",
          "type": "address"
        }
      ],
      "name": "DeleteAccountEvent",
      "type": "event"
    },
    {
      "anonymous": false,
      "inputs": [
        {
          "indexed": false,
          "internalType": "address",
          "name": "from",
          "type": "address"
        },
        {
          "indexed": false,
          "internalType": "uint256",
          "name": "lid",
          "type": "uint256"
        }
      ],
      "name": "DeleteListingEvent",
      "type": "event"
    },
    {
      "anonymous": false,
      "inputs": [
        {
          "indexed": false,
          "internalType": "address",
          "name": "sender",
          "type": "address"
        },
        {
          "indexed": false,
          "internalType": "address",
          "name": "recipient",
          "type": "address"
        }
      ],
      "name": "Destroyed",
      "type": "event"
    },
    {
      "anonymous": false,
      "inputs": [
        {
          "indexed": false,
          "internalType": "int256",
          "name": "code",
          "type": "int256"
        }
      ],
      "name": "Error",
      "type": "event"
    },
    {
      "anonymous": false,
      "inputs": [
        {
          "indexed": false,
          "internalType": "address",
          "name": "sender",
          "type": "address"
        },
        {
          "indexed": false,
          "internalType": "uint256",
          "name": "amount",
          "type": "uint256"
        }
      ],
      "name": "FallbackEvent",
      "type": "event"
    },
    {
      "anonymous": false,
      "inputs": [
        {
          "indexed": false,
          "internalType": "string",
          "name": "functionName",
          "type": "string"
        },
        {
          "indexed": false,
          "internalType": "string",
          "name": "msg",
          "type": "string"
        }
      ],
      "name": "Log",
      "type": "event"
    },
    {
      "anonymous": false,
      "inputs": [
        {
          "indexed": false,
          "internalType": "uint256",
          "name": "",
          "type": "uint256"
        },
        {
          "indexed": false,
          "internalType": "uint256",
          "name": "",
          "type": "uint256"
        }
      ],
      "name": "Log",
      "type": "event"
    },
    {
      "anonymous": false,
      "inputs": [
        {
          "indexed": true,
          "internalType": "address",
          "name": "previousOwner",
          "type": "address"
        },
        {
          "indexed": true,
          "internalType": "address",
          "name": "newOwner",
          "type": "address"
        }
      ],
      "name": "OwnershipTransferred",
      "type": "event"
    },
    {
      "anonymous": false,
      "inputs": [
        {
          "indexed": false,
          "internalType": "address",
          "name": "from",
          "type": "address"
        },
        {
          "indexed": false,
          "internalType": "uint256",
          "name": "bid",
          "type": "uint256"
        },
        {
          "indexed": false,
          "internalType": "uint256",
          "name": "stars",
          "type": "uint256"
        }
      ],
      "name": "RatingComplete",
      "type": "event"
    },
    {
      "anonymous": false,
      "inputs": [
        {
          "indexed": false,
          "internalType": "address",
          "name": "sender",
          "type": "address"
        },
        {
          "indexed": false,
          "internalType": "uint256",
          "name": "amount",
          "type": "uint256"
        }
      ],
      "name": "ReceiveEvent",
      "type": "event"
    },
    {
      "anonymous": false,
      "inputs": [
        {
          "indexed": false,
          "internalType": "address",
          "name": "sender",
          "type": "address"
        },
        {
          "indexed": false,
          "internalType": "bytes",
          "name": "reason",
          "type": "bytes"
        }
      ],
      "name": "Started",
      "type": "event"
    },
    {
      "anonymous": false,
      "inputs": [
        {
          "indexed": false,
          "internalType": "address",
          "name": "sender",
          "type": "address"
        },
        {
          "indexed": false,
          "internalType": "bytes",
          "name": "reason",
          "type": "bytes"
        }
      ],
      "name": "Stopped",
      "type": "event"
    },
    {
      "anonymous": false,
      "inputs": [
        {
          "indexed": false,
          "internalType": "address",
          "name": "sender",
          "type": "address"
        },
        {
          "indexed": false,
          "internalType": "string",
          "name": "reason",
          "type": "string"
        }
      ],
      "name": "Termination",
      "type": "event"
    },
    {
      "anonymous": false,
      "inputs": [
        {
          "indexed": false,
          "internalType": "address",
          "name": "from",
          "type": "address"
        }
      ],
      "name": "UpdateAccountEvent",
      "type": "event"
    },
    {
      "anonymous": false,
      "inputs": [
        {
          "indexed": false,
          "internalType": "address",
          "name": "from",
          "type": "address"
        },
        {
          "indexed": false,
          "internalType": "uint256",
          "name": "lid",
          "type": "uint256"
        }
      ],
      "name": "UpdateListingEvent",
      "type": "event"
    },
    {
      "stateMutability": "payable",
      "type": "fallback"
    },
    {
      "inputs": [],
      "name": "BOOK_CONFLICT",
      "outputs": [
        {
          "internalType": "int256",
          "name": "",
          "type": "int256"
        }
      ],
      "stateMutability": "view",
      "type": "function"
    },
    {
      "inputs": [],
      "name": "NOT_FOUND",
      "outputs": [
        {
          "internalType": "int256",
          "name": "",
          "type": "int256"
        }
      ],
      "stateMutability": "view",
      "type": "function"
    },
    {
      "inputs": [],
      "name": "VERSION",
      "outputs": [
        {
          "internalType": "string",
          "name": "",
          "type": "string"
        }
      ],
      "stateMutability": "view",
      "type": "function"
    },
    {
      "inputs": [],
      "name": "WAIT",
      "outputs": [
        {
          "internalType": "uint256",
          "name": "",
          "type": "uint256"
        }
      ],
      "stateMutability": "view",
      "type": "function"
    },
    {
      "inputs": [],
      "name": "destroy",
      "outputs": [],
      "stateMutability": "nonpayable",
      "type": "function"
    },
    {
      "inputs": [
        {
          "internalType": "address",
          "name": "_recipient",
          "type": "address"
        }
      ],
      "name": "destroyAndSend",
      "outputs": [],
      "stateMutability": "nonpayable",
      "type": "function"
    },
    {
      "inputs": [],
      "name": "getOwner",
      "outputs": [
        {
          "internalType": "address",
          "name": "",
          "type": "address"
        }
      ],
      "stateMutability": "payable",
      "type": "function"
    },
    {
      "inputs": [],
      "name": "renounceOwnership",
      "outputs": [],
      "stateMutability": "payable",
      "type": "function"
    },
    {
      "inputs": [
        {
          "internalType": "address",
          "name": "newOwner",
          "type": "address"
        }
      ],
      "name": "transferOwnership",
      "outputs": [],
      "stateMutability": "payable",
      "type": "function"
    },
    {
      "stateMutability": "payable",
      "type": "receive"
    },
    {
      "inputs": [
        {
          "internalType": "string",
          "name": "name",
          "type": "string"
        }
      ],
      "name": "createAccount",
      "outputs": [],
      "stateMutability": "nonpayable",
      "type": "function"
    },
    {
      "inputs": [],
      "name": "hasAccount",
      "outputs": [
        {
          "internalType": "bool",
          "name": "",
          "type": "bool"
        }
      ],
      "stateMutability": "view",
      "type": "function"
    },
    {
      "inputs": [
        {
          "internalType": "address",
          "name": "owner",
          "type": "address"
        }
      ],
      "name": "getAccountAll",
      "outputs": [
        {
          "internalType": "string",
          "name": "name",
          "type": "string"
        },
        {
          "internalType": "uint256",
          "name": "dateCreated",
          "type": "uint256"
        },
        {
          "internalType": "uint256",
          "name": "totalScore",
          "type": "uint256"
        },
        {
          "internalType": "uint256",
          "name": "nRatings",
          "type": "uint256"
        }
      ],
      "stateMutability": "view",
      "type": "function"
    },
    {
      "inputs": [
        {
          "internalType": "uint256",
          "name": "lid",
          "type": "uint256"
        }
      ],
      "name": "getListingAll",
      "outputs": [
        {
          "internalType": "address",
          "name": "owner",
          "type": "address"
        },
        {
          "internalType": "uint256",
          "name": "price",
          "type": "uint256"
        },
        {
          "internalType": "string",
          "name": "location",
          "type": "string"
        },
        {
          "internalType": "enum BlockchainBNB.Country",
          "name": "country",
          "type": "uint8"
        },
        {
          "internalType": "uint256",
          "name": "balance",
          "type": "uint256"
        },
        {
          "internalType": "string",
          "name": "imageCID",
          "type": "string"
        },
        {
          "internalType": "string",
          "name": "imageCIDSource",
          "type": "string"
        }
      ],
      "stateMutability": "view",
      "type": "function"
    },
    {
      "inputs": [
        {
          "internalType": "enum BlockchainBNB.Country",
          "name": "country",
          "type": "uint8"
        },
        {
          "internalType": "string",
          "name": "location",
          "type": "string"
        },
        {
          "internalType": "uint256",
          "name": "price",
          "type": "uint256"
        }
      ],
      "name": "createListing",
      "outputs": [],
      "stateMutability": "payable",
      "type": "function"
    },
    {
      "inputs": [
        {
          "internalType": "uint256",
          "name": "lid",
          "type": "uint256"
        },
        {
          "internalType": "uint256",
          "name": "fromDate",
          "type": "uint256"
        },
        {
          "internalType": "uint256",
          "name": "nbOfDays",
          "type": "uint256"
        }
      ],
      "name": "bookListing",
      "outputs": [],
      "stateMutability": "payable",
      "type": "function"
    },
    {
      "inputs": [
        {
          "internalType": "uint256",
          "name": "lid",
          "type": "uint256"
        },
        {
          "internalType": "uint256",
          "name": "price",
          "type": "uint256"
        },
        {
          "internalType": "string",
          "name": "location",
          "type": "string"
        },
        {
          "internalType": "enum BlockchainBNB.Country",
          "name": "country",
          "type": "uint8"
        }
      ],
      "name": "setListing",
      "outputs": [],
      "stateMutability": "nonpayable",
      "type": "function"
    },
    {
      "inputs": [
        {
          "internalType": "uint256",
          "name": "lid",
          "type": "uint256"
        },
        {
          "internalType": "string",
          "name": "cid",
          "type": "string"
        },
        {
          "internalType": "string",
          "name": "cidSource",
          "type": "string"
        }
      ],
      "name": "setListingImage",
      "outputs": [],
      "stateMutability": "nonpayable",
      "type": "function"
    },
    {
      "inputs": [
        {
          "internalType": "uint256",
          "name": "lid",
          "type": "uint256"
        }
      ],
      "name": "deleteListing",
      "outputs": [],
      "stateMutability": "nonpayable",
      "type": "function"
    },
    {
      "inputs": [
        {
          "internalType": "uint256",
          "name": "lid",
          "type": "uint256"
        }
      ],
      "name": "depositIntoListing",
      "outputs": [],
      "stateMutability": "payable",
      "type": "function"
    },
    {
      "inputs": [
        {
          "internalType": "uint256",
          "name": "lid",
          "type": "uint256"
        },
        {
          "internalType": "uint256",
          "name": "amount",
          "type": "uint256"
        }
      ],
      "name": "withdrawFromListing",
      "outputs": [],
      "stateMutability": "nonpayable",
      "type": "function"
    },
    {
      "inputs": [
        {
          "internalType": "uint256",
          "name": "bid",
          "type": "uint256"
        }
      ],
      "name": "fulfilBooking",
      "outputs": [],
      "stateMutability": "nonpayable",
      "type": "function"
    },
    {
      "inputs": [
        {
          "internalType": "uint256",
          "name": "bid",
          "type": "uint256"
        },
        {
          "internalType": "uint256",
          "name": "stars",
          "type": "uint256"
        }
      ],
      "name": "rate",
      "outputs": [],
      "stateMutability": "nonpayable",
      "type": "function"
    },
    {
      "inputs": [
        {
          "internalType": "uint256",
          "name": "bid",
          "type": "uint256"
        }
      ],
      "name": "cancelBooking",
      "outputs": [],
      "stateMutability": "nonpayable",
      "type": "function"
    },
    {
      "inputs": [
        {
          "internalType": "uint256",
          "name": "bid",
          "type": "uint256"
        }
      ],
      "name": "getBookingAll",
      "outputs": [
        {
          "internalType": "uint256",
          "name": "lid",
          "type": "uint256"
        },
        {
          "internalType": "address",
          "name": "guest",
          "type": "address"
        },
        {
          "internalType": "address",
          "name": "host",
          "type": "address"
        },
        {
          "internalType": "uint256",
          "name": "fromDate",
          "type": "uint256"
        },
        {
          "internalType": "uint256",
          "name": "toDate",
          "type": "uint256"
        }
      ],
      "stateMutability": "view",
      "type": "function"
    },
    {
      "inputs": [
        {
          "internalType": "uint256",
          "name": "bid",
          "type": "uint256"
        }
      ],
      "name": "getBookingDates",
      "outputs": [
        {
          "internalType": "uint256",
          "name": "fromDate",
          "type": "uint256"
        },
        {
          "internalType": "uint256",
          "name": "toDate",
          "type": "uint256"
        }
      ],
      "stateMutability": "view",
      "type": "function"
    },
    {
      "inputs": [],
      "name": "getNextPos",
      "outputs": [
        {
          "internalType": "uint256",
          "name": "",
          "type": "uint256"
        }
      ],
      "stateMutability": "view",
      "type": "function"
    },
    {
      "inputs": [
        {
          "internalType": "uint256",
          "name": "pos",
          "type": "uint256"
        }
      ],
      "name": "setNextPos",
      "outputs": [],
      "stateMutability": "nonpayable",
      "type": "function"
    },
    {
      "inputs": [
        {
          "internalType": "uint256",
          "name": "pos",
          "type": "uint256"
        }
      ],
      "name": "getListingId",
      "outputs": [
        {
          "components": [
            {
              "internalType": "uint256",
              "name": "fromDate",
              "type": "uint256"
            },
            {
              "internalType": "uint256",
              "name": "toDate",
              "type": "uint256"
            },
            {
              "internalType": "uint256",
              "name": "bid",
              "type": "uint256"
            },
            {
              "internalType": "uint256",
              "name": "next",
              "type": "uint256"
            }
          ],
          "internalType": "struct BlockchainBNB.Node",
          "name": "",
          "type": "tuple"
        }
      ],
      "stateMutability": "view",
      "type": "function"
    },
    {
      "inputs": [],
      "name": "isEmpty",
      "outputs": [
        {
          "internalType": "bool",
          "name": "",
          "type": "bool"
        }
      ],
      "stateMutability": "view",
      "type": "function"
    },
    {
      "inputs": [],
      "name": "_printAll",
      "outputs": [],
      "stateMutability": "nonpayable",
      "type": "function"
    },
    {
      "inputs": [],
      "name": "_printJunk",
      "outputs": [],
      "stateMutability": "nonpayable",
      "type": "function"
    },
    {
      "inputs": [],
      "name": "freeJunk",
      "outputs": [],
      "stateMutability": "nonpayable",
      "type": "function"
    },
    {
      "inputs": [],
      "name": "useNextPos",
      "outputs": [
        {
          "internalType": "uint256",
          "name": "pos",
          "type": "uint256"
        }
      ],
      "stateMutability": "nonpayable",
      "type": "function"
    },
    {
      "inputs": [
        {
          "internalType": "uint256",
          "name": "bid",
          "type": "uint256"
        },
        {
          "internalType": "uint256",
          "name": "fromDate",
          "type": "uint256"
        },
        {
          "internalType": "uint256",
          "name": "toDate",
          "type": "uint256"
        }
      ],
      "name": "book",
      "outputs": [
        {
          "internalType": "int256",
          "name": "",
          "type": "int256"
        }
      ],
      "stateMutability": "nonpayable",
      "type": "function"
    },
    {
      "inputs": [
        {
          "internalType": "uint256",
          "name": "bid",
          "type": "uint256"
        }
      ],
      "name": "cancel",
      "outputs": [
        {
          "internalType": "int256",
          "name": "",
          "type": "int256"
        }
      ],
      "stateMutability": "nonpayable",
      "type": "function"
    },
    {
      "inputs": [],
      "name": "cancelPastBookings",
      "outputs": [],
      "stateMutability": "nonpayable",
      "type": "function"
    },
    {
      "inputs": [
        {
          "internalType": "uint256",
          "name": "id",
          "type": "uint256"
        }
      ],
      "name": "find",
      "outputs": [
        {
          "internalType": "int256",
          "name": "",
          "type": "int256"
        }
      ],
      "stateMutability": "view",
      "type": "function"
    },
    {
      "inputs": [],
      "name": "hasActiveBookings",
      "outputs": [
        {
          "internalType": "bool",
          "name": "",
          "type": "bool"
        }
      ],
      "stateMutability": "view",
      "type": "function"
    },
    {
      "inputs": [
        {
          "internalType": "uint256",
          "name": "id",
          "type": "uint256"
        }
      ],
      "name": "getDates",
      "outputs": [
        {
          "internalType": "uint256",
          "name": "fromDate",
          "type": "uint256"
        },
        {
          "internalType": "uint256",
          "name": "toDate",
          "type": "uint256"
        }
      ],
      "stateMutability": "view",
      "type": "function"
    }
  ],
  "bytecode": "0x608080604052346101005760fd60036040600033600160a060020a03198254161781554260015533817f8be0079c531659141344cd1fd0a4f28419497f9722a3daafe3b4186f6b6457e08180a360ff19835416835560017f5dedd704c826bf4c6f99c9ca5a0f7e987c3b3b1200c9ce86c99d27eaf238c9155560017f5dedd704c826bf4c6f99c9ca5a0f7e987c3b3b1200c9ce86c99d27eaf238c9165560017f5dedd704c826bf4c6f99c9ca5a0f7e987c3b3b1200c9ce86c99d27eaf238c917558080527f5dedd704c826bf4c6f99c9ca5a0f7e987c3b3b1200c9ce86c99d27eaf238c9186020528083838220015583815220015561324c90816101068239f35b600080fdfe608060405260043610156100c7575b361561009757333203610050577f26875833861a2b006512a11f1b86edf95df96131040f3caeed72989ee98580836040518061004b3433836126c3565b0390a1005b60405160e560020a62461bcd0281526020600482015260196024820152603860020a787068697368696e672061747461636b2064657465637465643f026044820152606490fd5b7fcc85d09d309785db93d6df19917f2e6cc07fe27cd01c08c8279145deb5cf45266040518061004b3433836126c3565b60e060020a60003504630dca825e81146123655780630e3ee9f81461233f5780631c017d1414612176578063226026ca14611c94578063298daf5b14611ad05780633e530e5b14611ab257806340e58ee514611a9457806343bebfbf1461174d57806346615b47146116b657806348dc66bb1461169b5780634c4c20101461167a5780635232bbfe1461164f57806356fe15f2146115265780635b8bf7cf1461148d5780635ffce20a14611470578063667cb5541461142d578063681fe70c146113eb578063715018a6146113a45780637374004314611387578063778e9f9c14611009578063815a00a614610f8257806383197ef014610f4157806387aeebf114610f1c578063893d20e814610ef45780638f76a38014610ec4578063a98d5fc814610e9a578063b8fb3a5114610e7e578063bb78110b14610df4578063bc3abefa14610b0c578063cc85a55b14610a6b578063ccf6cbdb1461095a578063dca2590f146108d3578063ddd60ae014610878578063e24b5a15146107c7578063e6282c6e14610621578063e66c9c781461041e578063f2fde38b14610366578063f5074f41146102ff5763ffa1ad740361000e57346102fa5760003660031901126102fa5760408051908101906001604060020a038211818310176102e0576102dc91604052600a815260b060020a69312e362e342d626574610260208201526040519182916020835260208301906125ad565b0390f35b60e060020a634e487b710260009081526041600452602490fd5b600080fd5b346102fa5760203660031901126102fa57600435600160a060020a0380821682036102fa576000805160206130b78339815191529161034661004b926000541633146125ed565b60408051338152600160a060020a03909216602083015290918291820190565b60203660031901126102fa57600435600160a060020a03818116918290036102fa576000549081166103998133146126de565b82156103c4578290600080516020613117833981519152600080a3600160a060020a03191617600055005b60405160e560020a62461bcd02815260206004820152602660248201527f4f776e61626c653a206e6577206f776e657220697320746865207a65726f2061604482015260d060020a65646472657373026064820152608490fd5b346102fa5760803660031901126102fa576001604060020a036004356044358281116102fa57610452903690600401612527565b6064359060f18210156102fa57600160a060020a039061047e33836104768261272a565b5416146127b9565b83600052600080516020613197833981519152906020918083526104a886604060002054146128aa565b856000528083526104c6600194339086604060002001541614612941565b856000528252604060002091600283019180519788116102e0576104ea8354612763565b601f81116105e8575b5081601f8911600114610564575091876000805160206130778339815191529861004b9897959361054c9795600092610559575b5050816002029160080260020a6000190419161790555b6024356003820155016128f9565b60405191829133836126c3565b015190508a80610527565b9190601f1989168460005283600020936000905b8282106105d15750508961004b9998969488969461054c99946000805160206130778339815191529d600295106105b6575b5050500201905561053e565b01516008601f841602840a60001904191690558b80806105aa565b808986978294978701518155019601940190610578565b6106119084600052836000208480601f8d0104820192818d10610617575b601f010401906127a2565b886104f3565b9192508291610606565b346102fa576020806003193601126102fa57600160a060020a039060043561064d33846104768261272a565b806000526000805160206131978339815191529283835261067482604060002054146128aa565b8160005283835261069033826001604060002001541614612941565b816000528383526040600020906106a5612f62565b6107695760008083836106c98396956001600486980194868654965501541661272a565b5416828215610760575bf115610754577fa22215aaafee14089534beea92ffab6bf4171a36093c34cbaad8e830ff06942b9261004b928260005252600060076040822082815582600182015561072160028201612990565b82600382015582600482015561073960058201612990565b61074560068201612990565b015560405191829133836126c3565b6040513d6000823e3d90fd5b506108fc6106d3565b60405160e560020a62461bcd02815260048101859052602a60248201527f43616e6e6f742064656c657465206c697374696e672077697468206163746976604482015260b060020a696520626f6f6b696e6773026064820152608490fd5b346102fa5760203660031901126102fa57600435600160a060020a038082168083036102fa578261080261080792846104766108649761272a565b61272a565b9060405190610815826124b3565b8254168152608061082860018401612805565b928360208401526002810154928360408201526004600383015492836060840152015492839101526040519485946080865260808601906125ad565b926020850152604084015260608301520390f35b346102fa5760003660031901126102fa575b610892612a27565b6108d15761089e612a91565b6000526000805160206131578339815191526020526000600360408220828155826001820155826002820155015561088a565b005b346102fa5760003660031901126102fa576000805260008051602061315783398151915260208181526000805160206131b7833981519152546003929190805b61091957005b8060005282825260008051602061305783398151915260408060002060018154910154825191825285820152a1600052818152826040600020015480610913565b346102fa5760203660031901126102fa57600160a060020a0360043561098433836104768261272a565b8060005260008051602061319783398151915290816020526109ac81604060002054146128aa565b600052602052604060002060018101549160038201549060ff60a060020a850416610a196004850154936109e260028701612805565b906109fb60066109f460058a01612805565b9801612805565b9460405198168852602088015260e0604088015260e08701906125ad565b60f1821015610a515785946102dc94610a43936060880152608087015285820360a08701526125ad565b9083820360c08501526125ad565b60e060020a634e487b710260009081526021600452602490fd5b346102fa5760203660031901126102fa5760006060604051610a8c816124ce565b828152826020820152826040820152015260043560005260008051602061315783398151915260205260806040600020604051610ac8816124ce565b815491828252600181015460208301908152606060036002840154936040860194855201549301928352604051938452516020840152516040830152516060820152f35b346102fa5760603660031901126102fa576001604060020a036004356024358281116102fa57610b40903690600401612527565b916044358181116102fa57610b59903690600401612527565b600160a060020a039190610b7133846104768261272a565b8360005260008051602061319783398151915294602095808752610b9b86604060002054146128aa565b85600052808752610bb9600195339087604060002001541614612941565b85600052865260406000206005810182518581116102e057610bdb8254612763565b93601f94858111610dc8575b508990858311600114610d585760069493929160009183610d4d575b5050816002029160080260020a6000190419161790555b019382519384116102e057610c2f8554612763565b828111610d17575b5086828511600114610c945750505090806000805160206130778339815191529561004b959493600092610c89575b5050816002029160080260020a60001904191617905560405191829133836126c3565b015190508680610c66565b9196909392601f1984168660005283600020936000905b828210610d005750509784926002949261004b999897966000805160206130778339815191529b10610ce5575b505050500201905561054c565b0151908316600802840a600019041916905587808080610cd8565b808886978294978701518155019601940190610cab565b610d3e908660005288600020898581818a0104830193828a10610d44575b010401906127a2565b87610c37565b93508293610d35565b015190508b80610c03565b9392918891601f19821695846000528c600020968d6000905b828210610db05750509160069791846002959410610d96575b50505002019055610c1a565b01516008838a1602840a60001904191690558c8080610d8a565b848401518a5598909501978c9593810193018e610d71565b610dee90846000528b6000208c888181880104830193828810610d4457010401906127a2565b8a610be7565b346102fa5760203660031901126102fa5760a0600435806000526000805160206130d783398151915280602052610e3182604060002054146129d8565b81600052602052610e46604060002091612f97565b9060018301549260018560020a0360038160028401541692015416906040519485526020850152604084015260608301526080820152f35b346102fa5760003660031901126102fa576020604051601e8152f35b346102fa5760203660031901126102fa576040610eb8600435612f97565b82519182526020820152f35b346102fa5760003660031901126102fa57602033600160a060020a03610ee98261272a565b541614604051908152f35b60003660031901126102fa576020610f0a61268e565b604051600160a060020a039091168152f35b346102fa5760003660031901126102fa576020610f37612f62565b6040519015158152f35b346102fa5760003660031901126102fa57610f68600160a060020a036000541633146125ed565b6000805160206130b783398151915261004b61034661268e565b60203660031901126102fa57600160a060020a03600435610fa733836104768261272a565b80600052610fec6000805160206131978339815191529283602052610fd283604060002054146128aa565b826000528360205233906001604060002001541614612941565b600052602052600460406000200161100534825461263c565b9055005b61101236612593565b91600160a060020a039061102a33836104768261272a565b806000526000805160206131978339815191529360209185835261105481604060002054146128aa565b8060005285835260406000206003810154908160020291600283048103611241578402936002850292808404821490151715611241576201518090818102918183041490151715611241576110a9908861263c565b90338760018301541614611330578234106112e85760040196828854106112875790611103917f5dedd704c826bf4c6f99c9ca5a0f7e987c3b3b1200c9ce86c99d27eaf238c9178054906110fc82612925565b9055612b24565b966000881261125b57826000528452600485600160406000200154169302956002870482036112415760405160e08101966001604060020a038811828910176102e0576000988a8a99988a99986111f6986006958c9b6040528488528388019182526040880191338352606089019384526000805160206130d783398151915260808a01958e875260a08b01978f895260c08c01998a528f525260408d2098518955516001890155806002890192511691600160a060020a031992838254161790556003880192511690825416179055516004850155516005840155519101556111ee828254612934565b905534612934565b818115611238575b3390f1156107545761004b7f025dbd581669a73c614e67628084f17e7c102d78ab06c0352393b1a2808ae6e09160405191829133836126c3565b506108fc6111fe565b60e060020a634e487b710260009081526011600452602490fd5b50505050505050506000341561127e575b60008080809334903390f11561075457005b506108fc61126c565b60405160e560020a62461bcd02815260048101879052602d60248201527f4c697374696e67206d7573742068617665207374616b6520616d6f756e7420696044820152609860020a6c6e206974732062616c616e6365026064820152608490fd5b60405160e560020a62461bcd02815260048101879052602481018790527f4775657374206d757374207374616b65207477696365207468652070726963656044820152606490fd5b60405160e560020a62461bcd02815260048101879052602360248201527f4f776e65722063616e6e6f7420626f6f6b207468656972206f776e206c697374604482015260e860020a62696e67026064820152608490fd5b346102fa5760003660031901126102fa5760206040516001198152f35b60003660031901126102fa576000805490600160a060020a0382166113ca3382146126de565b6000805160206131178339815191528280a3600160a060020a031916600055005b346102fa5760003660031901126102fa576000805260008051602061315783398151915260209081526000805160206131b78339815191525460405190158152f35b346102fa5760203660031901126102fa576040610eb8600435806000526000805160206130d783398151915260205261146b818460002054146129d8565b612f97565b346102fa5760003660031901126102fa5760206040516000198152f35b346102fa5760003660031901126102fa576114a6612a27565b156114ad57005b60fd6000819052600080516020613157833981519152602081815260008051602061309783398151915254600393905b8181036114e657005b8060005283835260008051602061305783398151915260408060002060018154910154825191825286820152a160005282825283604060002001546114dd565b346102fa576115343661257d565b600160a060020a03919061154c33846104768261272a565b81600052600080516020613197833981519152928360205261157483604060002054146128aa565b826000528360205261159133826001604060002001541614612941565b82600052836020526004604060002001918254918282116115f257600095869586956115be858897612934565b905584526020526115d78160016040862001541661272a565b54168282156115e9575bf11561075457005b506108fc6115e1565b60405160e560020a62461bcd02815260206004820152602960248201527f43616e6e6f74207769746864726177206d6f7265207468616e206c697374696e604482015260b860020a68672062616c616e6365026064820152608490fd5b346102fa5760003660031901126102fa5760206000805160206131d783398151915254604051908152f35b346102fa57602061169361168d36612593565b91612b24565b604051908152f35b346102fa5760003660031901126102fa576020611693612aec565b346102fa5760003660031901126102fa576000805260008051602061315783398151915260208181526000805160206131b783398151915254600392919083815b611722575b50805b61170557005b61170e81612e21565b6000528181528260406000200154806116ff565b9080600052838352604060002090426001830154106117455750015483816116f7565b9190506116fc565b346102fa5761175b3661257d565b816000526000805160206130d78339815191529160209280845261178582604060002054146129d8565b600183101580611a89575b15611a4157600082815281855260409020600281018054600160a060020a03939084169033821490818015611a32575b156119dc578660005288526117db86604060002054146129d8565b6117e486612f97565b9050421061198557156118b857505060048101805461186157611841859360036000805160206131f78339815191529896946060986004955501600361182c8383541661272a565b0161183887825461263c565b9055541661272a565b0161184c8154612925565b90555b604051923384528301526040820152a1005b60405160e560020a62461bcd02815260048101879052602360248201527f4f776e657220616c72656164792072617465642c2063616e6e6f742072652d72604482015260e860020a62617465026064820152608490fd5b90913384600383015416146118e5575b50505050916060916000805160206131f78339815191529361184f565b600501805461192e5785936000805160206131f7833981519152979593600361182c60049560609a611917965561272a565b016119228154612925565b905591938193866118c8565b60405160e560020a62461bcd02815260048101889052602360248201527f477565737420616c72656164792072617465642c2063616e6e6f742072652d72604482015260e860020a62617465026064820152608490fd5b60405160e560020a62461bcd028152600481018990526024808201527f43616e6e6f742072617465206120626f6f6b696e67206265666f726520697420604482015260e060020a63656e6473026064820152608490fd5b60405160e560020a62461bcd028152600481018a9052602260248201527f53656e646572206e6f742070617274696369706174656420696e20626f6f6b69604482015260f060020a616e67026064820152608490fd5b503386600387015416146117c0565b60405160e560020a62461bcd02815260048101859052601a60248201527f537461727320617267206d75737420626520696e205b312c355d0000000000006044820152606490fd5b506005831115611790565b346102fa5760203660031901126102fa576020611693600435612d6d565b346102fa5760203660031901126102fa576020611693600435612ef2565b346102fa576020806003193601126102fa576001604060020a03906004358281116102fa57611b03903690600401612527565b60405190611b10826124b3565b33825282820190815260408201428152606083019160008352608084019560008752611b3b3361272a565b94518554600160a060020a031916600160a060020a0391909116178555905180516001808701939192909183116102e057611b768454612763565b601f8111611c66575b508791601f8411600114611bea5750918060049694926000805160206131378339815191529a9694600092611bdf575b5050816002029160080260020a6000190419161790555b51600285015551600384015551910155604051338152a1005b015190508a80611baf565b9291601f1983169185600052896000209260005b818110611c51575092600292859260049a98966000805160206131378339815191529e9a989610611c36575b50505002019055611bc6565b01516008601f841602840a60001904191690558b8080611c2a565b82840151855593860193928b01928b01611bfe565b611c8e9085600052896000208a80601f88010482019281881061061757601f010401906127a2565b89611b7f565b60603660031901126102fa5760043560f18110156102fa576024356001604060020a0381116102fa57611ccb903690600401612527565b90611ce133600160a060020a036104768261272a565b60008051602061303783398151915254604051919061012083016001604060020a038111848210176102e057604052808352602083019333855260408401928352606084015260443560808401523460a0840152604051611d41816124e9565b6000815260c0840152604051611d56816124e9565b6000815260e08401523361010084015260005260008051602061319783398151915260205260406000209282518455600160a060020a03905116906001840191600160a060020a03198354161782555160f1811015610a5157611db8916128f9565b60608101518051906001604060020a0382116102e0578190611ddd6002860154612763565b601f8111612140575b50602090601f83116001146120cc576000926120c1575b5050816002029160080260020a6000190419161760028301555b6080810151600383015560a0810151600483015560c081015180516001604060020a0381116102e057806005850192611e508454612763565b601f811161208e575b50602090601f83116001146120255760009261201a575b5050816002029160080260020a6000190419161790555b60e081015180519092906001604060020a0381116102e0576006820190611eae8254612763565b601f8111611fdc575b506020601f8211600114611f6f57819060079596600092611f64575b5050816002029160080260020a6000190419161790555b0190610100600160a060020a0391015116600160a060020a03198254161790557fd36a604b26ac6ddd3a307854dd18187ce6348b2ee1c6346ae8ada070619044d961004b60008051602061303783398151915254611f4781612925565b6000805160206130378339815191525560405191829133836126c3565b015190508680611ed3565b601f198216958360005260206000209660005b818110611fc457509660029284926001956007999a10611fa9575b50505002019055611eea565b01516008601f841602840a6000190419169055878080611f9d565b83830151895560019098019760209384019301611f82565b61200a908360005260206000206020601f85010481019160208510612010575b601f602091010401906127a2565b85611eb7565b9091508190611ffc565b015190508580611e70565b6000858152602081209350601f198516905b8181106120765750916002939185600196941061205b575b50505002019055611e87565b01516008601f841602840a600019041916905586808061204f565b92936020600181928786015181550195019301612037565b6120bb908560005260206000206020601f8601048101916020861061201057601f602091010401906127a2565b86611e59565b015190508480611dfd565b91506002850160005260206000209160005b601f19851681106121285750918391600293600195601f1981161061210d575b50505002016002830155611e17565b01516008601f841602840a60001904191690558580806120fe565b919260206001819286850151815501940192016120de565b612170906002870160005260206000206020601f8601048101916020861061201057601f602091010401906127a2565b85611de6565b346102fa576020806003193601126102fa57600435806000526000805160206130d78339815191528083526121b182604060002054146129d8565b816000528252604060002091600183015492600160a060020a039182600283015416916121eb846003830154169561146b818454146129d8565b90508333036122ea5742106122915760060194600060048754049655600286029186159587840460021487171561124157878661225760009693879694600080516020613197833981519152889788978852526122506004604088200191825461263c565b905561272a565b54168289612288575bf1156107545760009384938493612277859461272a565b54169083906115e957f11561075457005b506108fc612260565b60405160e560020a62461bcd02815260048101839052602560248201527f43616e6e6f742066756c66696c20626f6f6b696e67206265666f726520656e64604482015260d860020a642064617465026064820152608490fd5b60405160e560020a62461bcd02815260048101849052602160248201527f4f6e6c792067756573742063616e2063616c6c2066756c66696c426f6f6b696e604482015260f860020a6067026064820152608490fd5b346102fa5760203660031901126102fa576004356000805160206131d783398151915255005b346102fa5760203660031901126102fa57600435806000526000805160206130d7833981519152806020526123a082604060002054146129d8565b6000828152602082905260409020600381015433600160a060020a03918216149182156124a2575b5050156124475760006123da83612d6d565b12156123e257005b8161004b917f5cd299de5eeda67273101925bf237bc1f11d5a691d78d173827e51af1a0a720b936000526020526000600660408220828155826001820155826002820155826003820155826004820155826005820155015560405191829133836126c3565b60405160e560020a62461bcd02815260206004820152602760248201527f4f6e6c79204775657374206f7220486f73742063616e2063616e63656c206120604482015260c860020a66626f6f6b696e67026064820152608490fd5b6002919250015416331483806123c8565b60a081019081106001604060020a038211176102e057604052565b608081019081106001604060020a038211176102e057604052565b602081019081106001604060020a038211176102e057604052565b601f909101601f19168101906001604060020a038211908210176102e057604052565b81601f820112156102fa578035906001604060020a0382116102e0576040519261255b601f8401601f191660200185612504565b828452602083830101116102fa57816000926020809301838601378301015290565b60409060031901126102fa576004359060243590565b60609060031901126102fa57600435906024359060443590565b919082519283825260005b8481106125d9575050826000602080949584010152601f8019910116010190565b6020818301810151848301820152016125b8565b156125f457565b60405160e560020a62461bcd02815260206004820152601b60248201527f756e617574686f72697a65642c206e6f7420746865206f776e657200000000006044820152606490fd5b9190820180921161124157565b1561265057565b60405160e560020a62461bcd0281526020600482015260106024820152608160020a6f3930ba32903634b6b4ba1032b93937b9026044820152606490fd5b600154601e8101809111611241576126b09042116126ab81612649565b612649565b42600155600054600160a060020a031690565b600160a060020a039091168152602081019190915260400190565b156126e557565b60405160e560020a62461bcd0281526020600482015260176024820152604960020a7630b1b1b2b9b9903232b734b2b2103337b91037bbb732b9026044820152606490fd5b600160a060020a031660009081527f5dedd704c826bf4c6f99c9ca5a0f7e987c3b3b1200c9ce86c99d27eaf238c91a6020526040902090565b9060016002830492168015612798575b602083101461277e57565b60e060020a634e487b710260009081526022600452602490fd5b91607f1691612773565b8181106127ad575050565b600081556001016127a2565b156127c057565b60405160e560020a62461bcd0281526020600482015260176024820152604860020a76496e76616c6964206163636f756e742061646472657373026044820152606490fd5b906040519182600082549261281984612763565b9081845260019485811690816000146128885750600114612845575b505061284392500383612504565b565b9093915060005260209081600020936000915b81831061287057505061284393508201013880612835565b85548884018501529485019487945091830191612858565b91505061284394506020925060ff191682840152151581028201013880612835565b156128b157565b60405160e560020a62461bcd02815260206004820152601a60248201527f496e76616c6964206c697374696e67206964656e7469666965720000000000006044820152606490fd5b9060f1811015610a5157815460a060020a60ff02191660a060020a90910260a060020a60ff0216179055565b60001981146112415760010190565b9190820391821161124157565b1561294857565b60405160e560020a62461bcd02815260206004820152601f60248201527f4f6e6c79206c697374696e6720686f73742063616e206368616e6765206974006044820152606490fd5b61299a8154612763565b90816129a4575050565b81601f600093116001146129b6575055565b9080839182526129d46020601f8185209501048401600185016127a2565b5555565b156129df57565b60405160e560020a62461bcd02815260206004820152601a60248201527f496e76616c696420626f6f6b696e67206964656e7469666965720000000000006044820152606490fd5b612a2f612a66565b8015612a385790565b5060fd6000819052600080516020613157833981519152602052600080516020613097833981519152541490565b60fd600052600080516020613157833981519152602052600080516020613097833981519152541590565b60008051602061315783398151915260205260008051602061309783398151915280546000818152604081206003015460fd90915290915590565b600052600080516020613157833981519152602052600360406000200155565b612af4612a27565b15612b19576000805160206131d7833981519152805490612b1482612925565b905590565b612b21612a91565b90565b9092919283811015612d2957600080805260008051602061315783398151915260208181526000805160206131b78339815191525490936040939092600392805b612c21575083891115612bdf576000805160206130f7833981519152969798612b8c612aec565b91865195612b99876124ce565b8652878601918252868601928a8452612bba81606089019660008852612acc565b600052875285600020945185555160018501555160028401555191015551838152a190565b845160e560020a62461bcd0281526004810187905260216024820152600080516020613177833981519152604482015260f860020a6065026064820152608490fd5b909881600052898752856000209081549160019283820154881015600014612d0257505085811115612cc0576000805160206130f783398151915298999a612c67612aec565b885197612c73896124ce565b8852898801928352612c9c898901958d8752612c968360608c0199838b52612acc565b82612acc565b6000528852866000209551865551908501555160028401555191015551838152a190565b865160e560020a62461bcd0281526004810189905260216024820152600080516020613177833981519152604482015260f860020a6065026064820152608490fd5b919b9094509291508a11612d1a579183015480612b65565b50600119985050505050505050565b60405160e560020a62461bcd0281526020600482015260166024820152605260020a75125b9d985b1a590819185d195cc81c1c9bdd9a591959026044820152606490fd5b600080805260008051602061315783398151915260208181526000805160206131b783398151915254600394604094825b612daf575050505050505060001990565b826000528484528560002082600282015414612ddc57505081600052838352858560002001549182612d9e565b7fc41d93b8bfbf9fd7cf5bfe271fd649ab6a6fec0ea101c23b82a2a28eca2533a99694955090612e19939297612e1492015490612acc565b612e21565b51838152a190565b60fd8114612eaa57612e31612a66565b612e7c575b60fd600052600080516020613157833981519152602081905260008051602061309783398151915254612e699083612acc565b60fd600052602052600360406000200155565b60fd600081905260008051602061315783398151915260205260008051602061309783398151915255612e36565b60405160e560020a62461bcd02815260206004820181905260248201527f43616e6e6f74206164642070726f7669646564206e6f646520746f204a756e6b6044820152606490fd5b600080805260008051602061315783398151915260208181526000805160206131b78339815191525460039493919260409291805b612f38575050505050505060001990565b8083528185528383209086600283015414612f57575086015480612f27565b965050505050505090565b6000805160206131578339815191526020526000805160206131b7833981519152546000908152604090206001015442111590565b612fa090612ef2565b6000198114612ff957600052600080516020613157833981519152602052604060002090604051612fd0816124ce565b825490818152606060036001860154958660208501526002810154604085015201549101529190565b60405160e560020a62461bcd02815260206004820152600f6024820152608a60020a6e115b9d1c9e481b9bdd08199bdd5b99026044820152606490fdfe5dedd704c826bf4c6f99c9ca5a0f7e987c3b3b1200c9ce86c99d27eaf238c916bd0faddf87043dd749c1b9d4dca8a12589b8cb5e2106832111ce23f219b143676fc76287509fc676c5cd25d662ee5b00364220ea69a988b31ec7920b1357c2c5cf2036804204e8369b06eb3a7f362474500587d40aad35b35a13ba0f1b969bf391ca00fdf29069527d658f8dfc6d1c0bf9861780bb45ff36436f938d3595a8d65dedd704c826bf4c6f99c9ca5a0f7e987c3b3b1200c9ce86c99d27eaf238c91b14ff8756fe8fd210f0770ea0ee3d1280d24ff2d70afa3f23464c87194dd2767b8be0079c531659141344cd1fd0a4f28419497f9722a3daafe3b4186f6b6457e011c87e2575a7867afc280ab61854f506ad57e4d37816196d77d9b739af0599f15dedd704c826bf4c6f99c9ca5a0f7e987c3b3b1200c9ce86c99d27eaf238c91866726f6d44617465206d757374206265206c657373207468616e20746f4461745dedd704c826bf4c6f99c9ca5a0f7e987c3b3b1200c9ce86c99d27eaf238c91908565ddffd7f44e7eb1691ce89864023692dbb37f97cc16e167735d33b2a456d5dedd704c826bf4c6f99c9ca5a0f7e987c3b3b1200c9ce86c99d27eaf238c91558675ce0cebd00cbe703f1f22533c3e384cdf0297f573f2fa555ea956e70b3c9a26469706673582212201b43caace003551bc28eb773e230d1c671dc60acfe071a27a8ef1689f8a2d1fd64736f6c63430008120033",
  "immutableReferences": {},
  "source": "// SPDX-License-Identifier: CC-BY-4.0\r\npragma solidity >=0.4.22 <0.9.0;\r\n\r\n/**\r\n * Migrated from https://github.com/skfarhat/ethbnb\r\n */\r\n\r\nimport \"../common/Version.sol\";\r\nimport \"../common/Frozen.sol\";\r\n\r\ncontract BlockchainBNB is Version, Frozen {\r\n  bytes32 constant private ZERO_BYTES = bytes32(0);\r\n  address constant private ZERO_ADDRESS = address(0);\r\n\r\n  uint constant private SECONDS_PER_DAY = 3600 * 24;\r\n  uint constant private HEAD = 0;\r\n  uint constant private JUNK = 2^256-1; // We assume there won't be that many bookings\r\n\r\n  int public constant NOT_FOUND = -1;\r\n  int public constant BOOK_CONFLICT = -2;\r\n\r\n  enum Country {\r\n    AF, AX, AL, DZ, AS, AD, AO, AI, AG, AR, AM, AW, AU, AT, AZ, BS, BH,\r\n    BD, BB, BY, BE, BZ, BJ, BM, BT, BO, BA, BW, BV, BR, VG, BN, BG, BF,\r\n    BI, TC, KH, CM, CA, CV, KY, CF, TD, CL, CN, CX, CC, CO, KM, CG, CD,\r\n    CK, CR, CI, HR, CU, CY, CZ, DK, DJ, DM, DO, EC, EG, SV, GB, GQ, ER,\r\n    EE, ET, EU, FK, FO, FJ, FI, FR, GF, PF, TF, GA, GM, GE, DE, GH, GI,\r\n    GR, GL, GD, GP, GU, GT, GW, GN, GY, HT, HM, HN, HK, HU, IS, IN, IO,\r\n    ID, IR, IQ, IE, IL, IT, JM, JP, JO, KZ, KE, KI, KW, KG, LA, LV, LB,\r\n    LS, LR, LY, LI, LT, LU, MO, MK, MG, MW, MY, MV, ML, MT, MH, MQ, MR,\r\n    MU, YT, MX, FM, MD, MC, MN, ME, MS, MA, MZ, NA, NR, NP, AN, NL, NC,\r\n    PG, NZ, NI, NE, NG, NU, NF, KP, MP, NO, OM, PK, PW, PS, PA, PY, PE,\r\n    PH, PN, PL, PT, PR, QA, RE, RO, RU, RW, SH, KN, LC, PM, VC, WS, SM,\r\n    GS, ST, SA, SN, CS, RS, SC, SL, SG, SK, SI, SB, SO, ZA, KR, ES, LK,\r\n    SD, SR, SJ, SZ, SE, CH, SY, TW, TJ, TZ, TH, TL, TG, TK, TO, TT, TN,\r\n    TR, TM, TV, UG, UA, AE, US, UY, UM, VI, UZ, VU, VA, VE, VN, WF, EH,\r\n    YE, ZM, ZW\r\n  }\r\n\r\n  struct Node {\r\n    /// Booking's start date in seconds\r\n    uint fromDate;\r\n    /// Booking's end date in seconds\r\n    uint toDate;\r\n    uint bid;\r\n    uint next;\r\n  }\r\n\r\n  struct Listing {\r\n    uint lid;\r\n    address owner;\r\n    Country country;\r\n    string location;\r\n    uint price;\r\n    uint balance;\r\n    string imageCID;\r\n    string imageCIDSource;\r\n    address booker;\r\n  }\r\n\r\n  struct Account {\r\n    address payable owner;\r\n    string name;\r\n    uint dateCreated;\r\n    /**\r\n     * Account's average rating (out of 5) can be computed as\r\n     * totalScore / totalRatings\r\n     */\r\n    uint totalScore;\r\n    uint nRatings;\r\n  }\r\n\r\n  struct Booking {\r\n    uint bid;\r\n    uint lid;\r\n    address guestAddr;\r\n    address hostAddr;\r\n\r\n    /**\r\n     * Rating assigned to the owner by the guest\r\n     * defaults to 0 which means nothing was set\r\n     */\r\n    uint ownerRating;\r\n    /**\r\n     * Rating assigned to the guest by the owner\r\n     * defaults to 0 which means nothing was set\r\n     */\r\n    uint guestRating;\r\n\r\n    /**\r\n     * When a booking is made, the listing balance (staked by the host)\r\n     * along with the value staked by the guest are added to the balance here.\r\n     * The listing balance is obviously decreased.\r\n     */\r\n    uint256 balance;\r\n  }\r\n\r\n  // =======================================================================\r\n  // MEMBER VARIABLES\r\n  // =======================================================================\r\n\r\n  event Log(string functionName, string msg);\r\n  event Error(int code);\r\n\r\n  // Account events\r\n  event CreateAccountEvent(address from);\r\n  event UpdateAccountEvent(address from);\r\n  event DeleteAccountEvent(address from);\r\n  // Listing events\r\n  event CreateListingEvent(address from, uint lid);\r\n  event UpdateListingEvent(address from, uint lid);\r\n  event DeleteListingEvent(address from, uint lid);\r\n  // Booking events\r\n  event BookingComplete(address from, uint bid);\r\n  event BookingCancelled(address from, uint bid);\r\n\r\n  event RatingComplete(address from, uint bid, uint stars);\r\n\r\n  event Booked(uint bid);\r\n  event Cancelled(uint bid);\r\n  event Log(uint, uint);\r\n\r\n\r\n  struct BlockchainBNBStorage {\r\n    uint nextPos;\r\n    /**\r\n    * Listings will have incrementing Ids starting from 1\r\n    */\r\n    uint nextListingId;\r\n    /**\r\n    * Bookings will have incrementing Ids starting from 1\r\n    */\r\n    uint nextBookingId;\r\n    mapping (uint => Node) nodes;\r\n    /** Store all created listings  */\r\n    mapping(uint => Listing) listings;\r\n    /** Stores accounts */\r\n    mapping(address => Account) accounts;\r\n    /** Stores bookings */\r\n    mapping(uint => Booking) bookings;\r\n  }\r\n\r\n  BlockchainBNBStorage bnbStorage;\r\n\r\n  constructor() {\r\n    blockchainBNBStorage().nextPos = 1;\r\n    blockchainBNBStorage().nextListingId = 1;\r\n    blockchainBNBStorage().nextBookingId = 1;\r\n    blockchainBNBStorage().nodes[HEAD].next = HEAD; // (implicit since HEAD = 0)\r\n    blockchainBNBStorage().nodes[JUNK].next = JUNK;\r\n  }\r\n\r\n  function blockchainBNBStorage()\r\n      internal\r\n      pure\r\n      returns (BlockchainBNBStorage storage ds)\r\n  {\r\n      bytes32 position = keccak256(\"BlockchainBNB.storage\");\r\n      assembly {\r\n          ds.slot := position\r\n      }\r\n  }\r\n\r\n  // =======================================================================\r\n  // FUNCTIONS\r\n  // =======================================================================\r\n\r\n  modifier accountExists() {\r\n    require(blockchainBNBStorage().accounts[msg.sender].owner == msg.sender, 'Invalid account address');\r\n    _;\r\n  }\r\n\r\n  modifier validBooking(uint bid) {\r\n    require(blockchainBNBStorage().bookings[bid].bid == bid, 'Invalid booking identifier');\r\n    _;\r\n  }\r\n\r\n  modifier listingExists(uint lid) {\r\n    require(blockchainBNBStorage().accounts[msg.sender].owner == msg.sender, 'Invalid account address');\r\n    require(blockchainBNBStorage().listings[lid].lid == lid, 'Invalid listing identifier');\r\n    _;\r\n  }\r\n\r\n  modifier onlyListingHost(uint lid) {\r\n    require(blockchainBNBStorage().listings[lid].owner == msg.sender, 'Only listing host can change it');\r\n    _;\r\n  }\r\n\r\n  function createAccount(string memory name) public {\r\n    blockchainBNBStorage().accounts[msg.sender] = Account({\r\n      owner : payable(msg.sender),\r\n      name : name,\r\n      dateCreated : block.timestamp,\r\n      totalScore: 0,\r\n      nRatings: 0\r\n    });\r\n    emit CreateAccountEvent(msg.sender);\r\n  }\r\n\r\n  function hasAccount() public view returns (bool) {\r\n    return blockchainBNBStorage().accounts[msg.sender].owner == msg.sender;\r\n  }\r\n\r\n  function getAccountAll(address owner) public view\r\n    returns (string memory name, uint dateCreated, uint totalScore, uint nRatings) {\r\n      require(blockchainBNBStorage().accounts[owner].owner == owner, 'Invalid account address');\r\n      Account memory account = blockchainBNBStorage().accounts[owner];\r\n      return (account.name, account.dateCreated, account.totalScore, account.nRatings);\r\n    }\r\n\r\n  function getListingAll(uint lid) public listingExists(lid) view\r\n    returns (address owner, uint price, string memory location, Country country, uint256 balance,\r\n      string memory imageCID, string memory imageCIDSource) {\r\n      Listing storage l = blockchainBNBStorage().listings[lid];\r\n      return (l.owner, l.price, l.location, l.country, l.balance, l.imageCID, l.imageCIDSource);\r\n    }\r\n\r\n  /**\r\n   * Creates a new listing for the message sender\r\n   * and returns the Id of the created listing\r\n   *\r\n   * When the listing create the smart-contract will have had the 2xprice amount\r\n   * added to its balance.\r\n   */\r\n  function createListing(Country country, string memory location, uint price)\r\n    public payable accountExists() {\r\n        // Note: enforce a maximum number of listings per user?\r\n        blockchainBNBStorage().listings[blockchainBNBStorage().nextListingId] = Listing({\r\n          lid : blockchainBNBStorage().nextListingId,\r\n          owner: msg.sender,\r\n          country: country,\r\n          location: location,\r\n          price: price,\r\n          balance: msg.value,\r\n          imageCID: '',\r\n          imageCIDSource: '',\r\n          booker: msg.sender\r\n        });\r\n        emit CreateListingEvent(msg.sender, blockchainBNBStorage().nextListingId++);\r\n  }\r\n\r\n  /**\r\n   * Book a listing\r\n   *\r\n   * @param lid          id of the listing to be booked\r\n   * @param fromDate     start date of the booking in seconds\r\n   * @param nbOfDays     number of days for which the booking will be made\r\n   */\r\n  function bookListing(uint lid, uint fromDate, uint nbOfDays)\r\n    public payable listingExists(lid) {\r\n      // TODO: cap the number of booked days to 30 or so\r\n      Listing storage listing = blockchainBNBStorage().listings[lid];\r\n      address payable guest = payable(msg.sender);\r\n      uint256 stake = 2 * listing.price * nbOfDays;\r\n      uint toDate = fromDate + nbOfDays * SECONDS_PER_DAY;\r\n      require(listing.owner != guest, 'Owner cannot book their own listing');\r\n\r\n      // Ensure both guest and host have staked the same\r\n      require(msg.value >= stake, 'Guest must stake twice the price');\r\n      require(listing.balance >= stake, 'Listing must have stake amount in its balance');\r\n\r\n      // Try to book.\r\n      // If successful, create a booking event with the balance amount\r\n      // If unsuccessful, refund the stake to guest\r\n      int res = book(blockchainBNBStorage().nextBookingId++, fromDate, toDate);\r\n      if (res >= 0) {\r\n        uint bid = uint(res);\r\n        // Save the booking\r\n        blockchainBNBStorage().bookings[bid] = Booking({\r\n          bid: bid,\r\n          lid: lid,\r\n          hostAddr: blockchainBNBStorage().listings[lid].owner,\r\n          guestAddr: guest,\r\n          ownerRating: 0,\r\n          guestRating: 0,\r\n          // Add the amounts staked by the guest\r\n          // and by the host to the booking balance\r\n          balance: 2 * stake\r\n        });\r\n        // Decrement the listing balance\r\n        listing.balance -= stake;\r\n        // Refund any excess to the guest\r\n        guest.transfer(msg.value - stake);\r\n        emit BookingComplete(msg.sender, bid);\r\n      } else {\r\n        // Refund all Ether provided if the booking failed\r\n        guest.transfer(msg.value);\r\n      }\r\n    }\r\n\r\n  function setListing(uint lid, uint price, string memory location, Country country)\r\n    public listingExists(lid) onlyListingHost(lid) {\r\n      Listing storage listing = blockchainBNBStorage().listings[lid];\r\n      listing.location = location;\r\n      listing.price = price;\r\n      listing.country = country;\r\n      emit UpdateListingEvent(msg.sender, lid);\r\n  }\r\n\r\n  function setListingImage(uint lid, string memory cid, string memory cidSource)\r\n    public listingExists(lid) onlyListingHost(lid) {\r\n      Listing storage listing = blockchainBNBStorage().listings[lid];\r\n      listing.imageCID = cid;\r\n      listing.imageCIDSource = cidSource;\r\n      emit UpdateListingEvent(msg.sender, lid);\r\n  }\r\n\r\n  /**\r\n   * Returns the listing balance to its owner and deletes the listing\r\n   *\r\n   * Only if there are no active bookings.\r\n   *\r\n   * @param lid   id of the listing to be deleted\r\n   */\r\n  function deleteListing(uint lid) public listingExists(lid) onlyListingHost(lid) {\r\n    // Check that there are no active bookings before we proceed\r\n    Listing storage listing = blockchainBNBStorage().listings[lid];\r\n    require(false == hasActiveBookings(), 'Cannot delete listing with active bookings');\r\n\r\n    // Return listing balance to its owner\r\n    uint toReturn = listing.balance;\r\n    listing.balance = 0;\r\n    blockchainBNBStorage().accounts[listing.owner].owner.transfer(toReturn);\r\n\r\n    // Delete listing's storage\r\n    delete blockchainBNBStorage().listings[lid];\r\n    emit DeleteListingEvent(msg.sender, lid);\r\n  }\r\n\r\n  function depositIntoListing(uint lid)\r\n    public payable\r\n    listingExists(lid)\r\n    onlyListingHost(lid)\r\n    {\r\n      Listing storage listing = blockchainBNBStorage().listings[lid];\r\n      listing.balance += msg.value;\r\n  }\r\n\r\n  function withdrawFromListing(uint lid, uint amount)\r\n    public\r\n    listingExists(lid)\r\n    onlyListingHost(lid)\r\n    {\r\n      Listing storage listing = blockchainBNBStorage().listings[lid];\r\n      require(amount <= listing.balance, 'Cannot withdraw more than listing balance');\r\n      listing.balance -= amount;\r\n      blockchainBNBStorage().accounts[blockchainBNBStorage().listings[lid].owner].owner.transfer(amount);\r\n  }\r\n\r\n  /**\r\n   * Invoked by the guest of a booking after the booking end,\r\n   * confirming the host fulfilled their obligations, and\r\n   * releasing funds held in escrow.\r\n   *\r\n   * @param bid       id of the booking\r\n   */\r\n  function fulfilBooking(uint bid) public validBooking(bid) {\r\n    Booking storage booking = blockchainBNBStorage().bookings[bid];\r\n    uint lid = booking.lid;\r\n    address guest = booking.guestAddr;\r\n    address host = booking.hostAddr;\r\n    (, uint toDate) = getBookingDates(bid);\r\n    require(msg.sender == guest, 'Only guest can call fulfilBooking');\r\n    require(toDate <= block.timestamp, 'Cannot fulfil booking before end date');\r\n\r\n    // Fund Release:\r\n    //    Guest receives:    booking.balance\r\n    //    Listing receives:  2 x booking.balance\r\n    //    Owner:             booking.balance\r\n    //\r\n    uint256 amount = booking.balance / 4;\r\n    booking.balance = 0;\r\n    blockchainBNBStorage().listings[lid].balance += amount * 2;\r\n    blockchainBNBStorage().accounts[host].owner.transfer(amount);\r\n    blockchainBNBStorage().accounts[guest].owner.transfer(amount);\r\n  }\r\n\r\n  /**\r\n   * Rate the booking 1-5 stars\r\n   *\r\n   * The function checks the msg.sender and validates\r\n   * they were either owner or guest in the booking.\r\n   *\r\n   * If they were not, a PermissionDenied event is emitted.\r\n   *\r\n   * @param bid         the identifier for their booking, this\r\n   *                    coupled with msg.sender is enough to determine\r\n   *                    the person being rated\r\n   * @param stars       unsigned integer between 1 and 5, anything else\r\n   *                    will emit an error\r\n   */\r\n  function rate(uint bid, uint stars) public validBooking(bid) {\r\n    require(stars >= 1 && stars <= 5, 'Stars arg must be in [1,5]');\r\n    Booking storage booking = blockchainBNBStorage().bookings[bid];\r\n    require(booking.guestAddr == msg.sender || booking.hostAddr == msg.sender, 'Sender not participated in booking');\r\n    (, uint toDate) = getBookingDates(bid);\r\n    require(toDate <= block.timestamp, 'Cannot rate a booking before it ends');\r\n    if (booking.guestAddr == msg.sender) {\r\n      // The guest is rating the owner\r\n      require(booking.ownerRating == 0, 'Owner already rated, cannot re-rate');\r\n      // Assign the rating and adjust their account\r\n      booking.ownerRating = stars;\r\n      blockchainBNBStorage().accounts[booking.hostAddr].totalScore += stars;\r\n      blockchainBNBStorage().accounts[booking.hostAddr].nRatings++;\r\n    }\r\n    else if (booking.hostAddr == msg.sender) {\r\n      // The owner is rating the guest\r\n      require(booking.guestRating == 0, 'Guest already rated, cannot re-rate');\r\n      // Adding the rating and adjust their account\r\n      booking.guestRating = stars;\r\n      blockchainBNBStorage().accounts[booking.guestAddr].totalScore += stars;\r\n      blockchainBNBStorage().accounts[booking.guestAddr].nRatings++;\r\n    }\r\n    emit RatingComplete(msg.sender, bid, stars);\r\n  }\r\n\r\n  /**\r\n   * Cancel a booking\r\n   *\r\n   * @param bid           id of the booking to be cancelled\r\n   */\r\n  function cancelBooking(uint bid) public validBooking(bid) {\r\n    Booking storage booking = blockchainBNBStorage().bookings[bid];\r\n    require(\r\n      msg.sender == booking.hostAddr ||\r\n      msg.sender == booking.guestAddr,\r\n      'Only Guest or Host can cancel a booking'\r\n      );\r\n    int res = cancel(bid);\r\n    if (res >= 0) {\r\n      delete blockchainBNBStorage().bookings[bid];\r\n      emit BookingCancelled(msg.sender, bid);\r\n    }\r\n  }\r\n\r\n  function getBookingAll(uint bid) public view\r\n    validBooking(bid)\r\n    returns (uint lid, address guest, address host, uint fromDate, uint toDate)\r\n  {\r\n    Booking storage booking = blockchainBNBStorage().bookings[bid];\r\n    (uint fromDate1, uint toDate1) = getDates(bid);\r\n    return (booking.lid, booking.guestAddr, booking.hostAddr, fromDate1, toDate1);\r\n  }\r\n\r\n  function getBookingDates(uint bid) public view\r\n    validBooking(bid)\r\n    returns (uint fromDate, uint toDate)\r\n  {\r\n    return getDates(bid);\r\n  }\r\n\r\n  function getNextPos() public view returns (uint)\r\n  {\r\n    return blockchainBNBStorage().nextPos;\r\n  }\r\n\r\n  function setNextPos(uint pos) public\r\n  {\r\n    blockchainBNBStorage().nextPos = pos;\r\n  }\r\n\r\n  function getListingId(uint pos) public view returns (Node memory)\r\n  {\r\n    return blockchainBNBStorage().nodes[pos];\r\n  }\r\n\r\n    /// The list is empty if the HEAD node points to itself\r\n    function isEmpty() public view returns (bool)\r\n    {\r\n        return blockchainBNBStorage().nodes[HEAD].next == HEAD;\r\n    }\r\n\r\n    function createLink(uint fromNode, uint toNode) private\r\n    {\r\n        blockchainBNBStorage().nodes[fromNode].next = toNode;\r\n    }\r\n\r\n    function _printAll() public\r\n    {\r\n        uint curr = blockchainBNBStorage().nodes[HEAD].next;\r\n        while (curr != HEAD) {\r\n            emit Log(blockchainBNBStorage().nodes[curr].fromDate, blockchainBNBStorage().nodes[curr].toDate);\r\n            curr = blockchainBNBStorage().nodes[curr].next;\r\n        }\r\n    }\r\n\r\n    function _printJunk() public\r\n    {\r\n        if (!junkIsEmpty()) {\r\n            uint curr = blockchainBNBStorage().nodes[JUNK].next;\r\n            while (curr != JUNK) {\r\n                emit Log(blockchainBNBStorage().nodes[curr].fromDate, blockchainBNBStorage().nodes[curr].toDate);\r\n                curr = blockchainBNBStorage().nodes[curr].next;\r\n            }\r\n        }\r\n    }\r\n\r\n    /// Returns true if junk is initialised: if it points to itself\r\n    function junkNotInitialised() private view returns (bool)\r\n    {\r\n        return blockchainBNBStorage().nodes[JUNK].next == 0;\r\n    }\r\n\r\n    function junkIsEmpty() private view returns (bool)\r\n    {\r\n        return junkNotInitialised() || blockchainBNBStorage().nodes[JUNK].next == JUNK;\r\n    }\r\n\r\n    // Adds the provided node to junk\r\n    function addJunk(uint node) private\r\n    {\r\n        require(node != JUNK, 'Cannot add provided node to Junk');\r\n        if (junkNotInitialised()) {\r\n            blockchainBNBStorage().nodes[JUNK].next = JUNK;\r\n        }\r\n        createLink(node, blockchainBNBStorage().nodes[JUNK].next);\r\n        createLink(JUNK, node);\r\n    }\r\n\r\n    /// Pops the junk node at head of list and returns its index\r\n    function popJunk() private returns (uint)\r\n    {\r\n        uint ret = blockchainBNBStorage().nodes[JUNK].next;\r\n        createLink(JUNK, blockchainBNBStorage().nodes[ret].next);\r\n        return ret;\r\n    }\r\n\r\n    /// Free all junk storage kept for reuse\r\n    function freeJunk() public\r\n    {\r\n        while (!junkIsEmpty()) {\r\n            uint idx = popJunk();\r\n            delete blockchainBNBStorage().nodes[idx];\r\n        }\r\n    }\r\n\r\n    /// Removes node from the list. Requires the prevNode be provided.\r\n    function removeNode(uint node, uint prevNode) private\r\n    {\r\n        createLink(prevNode, blockchainBNBStorage().nodes[node].next);\r\n        addJunk(node);\r\n    }\r\n\r\n    /// Returns the next available position and updates it\r\n    function useNextPos() public returns (uint pos)\r\n    {\r\n        if (junkIsEmpty()) {\r\n            return blockchainBNBStorage().nextPos++;\r\n        } else {\r\n            // Recycle node\r\n            return popJunk();\r\n        }\r\n    }\r\n\r\n    function newNode(uint prevNode, uint nextNode, uint bid, uint fromDate, uint toDate) private\r\n    {\r\n        uint nextPos = useNextPos();\r\n        Node memory n = Node({\r\n            fromDate: fromDate,\r\n            toDate: toDate,\r\n            bid: bid,\r\n            next: nextNode\r\n        });\r\n        createLink(prevNode, nextPos);\r\n        createLink(nextPos, nextNode);  // redundant, but there for readability\r\n        blockchainBNBStorage().nodes[nextPos] = n;\r\n    }\r\n\r\n    /// Called by book function\r\n    ///\r\n    ///     - Creates a new LinkedList node\r\n    ///     - Emits Booking event\r\n    ///     - Updates nextBid\r\n    function newBook(uint prevNode, uint nextNode, uint bid, uint fromDate, uint toDate)\r\n        private returns (uint)\r\n    {\r\n        require(toDate > fromDate, 'fromDate must be less than toDate');\r\n        newNode(prevNode, nextNode, bid, fromDate, toDate);\r\n        emit Booked(bid);\r\n        return bid;\r\n    }\r\n\r\n    function book(uint bid, uint fromDate, uint toDate) public returns (int)\r\n    {\r\n        require(fromDate < toDate, 'Invalid dates provided');\r\n        uint prev = HEAD;\r\n        uint curr = blockchainBNBStorage().nodes[HEAD].next;\r\n        while (curr != HEAD) {\r\n            uint currFrom = blockchainBNBStorage().nodes[curr].fromDate;\r\n            uint currTo = blockchainBNBStorage().nodes[curr].toDate;\r\n            if (fromDate >= currTo) {\r\n                return int(newBook(prev, curr, bid, fromDate, toDate));\r\n            } else if (toDate <= currFrom) {\r\n                prev = curr;\r\n                curr = blockchainBNBStorage().nodes[curr].next;\r\n            } else {\r\n                return BOOK_CONFLICT;\r\n            }\r\n        }\r\n        return int(newBook(prev, HEAD, bid, fromDate, toDate));\r\n    }\r\n\r\n    function cancel(uint bid) public returns (int)\r\n    {\r\n        uint prev = HEAD;\r\n        uint curr = blockchainBNBStorage().nodes[prev].next;\r\n        // Find node with matching bid, then remove it\r\n        while (curr != HEAD) {\r\n            if (blockchainBNBStorage().nodes[curr].bid == bid) {\r\n                removeNode(curr, prev);\r\n                emit Cancelled(bid);\r\n                return int(bid);\r\n            }\r\n            prev = curr;\r\n            curr = blockchainBNBStorage().nodes[curr].next;\r\n        }\r\n        return NOT_FOUND;\r\n    }\r\n\r\n    function cancelPastBookings() public\r\n    {\r\n        uint curr = blockchainBNBStorage().nodes[HEAD].next;\r\n        while (curr != HEAD) {\r\n            if (blockchainBNBStorage().nodes[curr].toDate < block.timestamp) {\r\n                break;\r\n            }\r\n            curr = blockchainBNBStorage().nodes[curr].next;\r\n        }\r\n        // Add all bookings starting from curr to junk\r\n        while (curr != HEAD) {\r\n            addJunk(curr);\r\n            curr = blockchainBNBStorage().nodes[curr].next;\r\n        }\r\n    }\r\n\r\n    /// Return index of found id\r\n    function find(uint id) public view returns (int) {\r\n        uint curr = blockchainBNBStorage().nodes[HEAD].next;\r\n        while (curr != HEAD) {\r\n            if (blockchainBNBStorage().nodes[curr].bid == id) {\r\n                return int(curr);\r\n            }\r\n            curr = blockchainBNBStorage().nodes[curr].next;\r\n        }\r\n        return NOT_FOUND;\r\n    }\r\n\r\n    function hasActiveBookings() public view returns (bool)\r\n    {\r\n        uint first = blockchainBNBStorage().nodes[HEAD].next;\r\n        return blockchainBNBStorage().nodes[first].toDate >= block.timestamp;\r\n    }\r\n\r\n    function getDates(uint id) public view returns (uint fromDate, uint toDate) {\r\n        int idx = find(id);\r\n        require(idx != NOT_FOUND, 'Entry not found');\r\n        Node memory node = blockchainBNBStorage().nodes[uint(idx)];\r\n        return (node.fromDate, node.toDate);\r\n    }\r\n\r\n}",
  "sourcePath": "/Volumes/HOME/pingleware-contracts/contracts/hospitality/BlockchainBNB.sol",
  "compiler": {
    "name": "solc",
    "version": "0.8.18+commit.87f61d96.Emscripten.clang"
  },
  "schemaVersion": "3.4.12",
  "updatedAt": "2024-05-23T18:56:26.388Z",
  "devdoc": {
    "kind": "dev",
    "methods": {
      "bookListing(uint256,uint256,uint256)": {
        "params": {
          "fromDate": "start date of the booking in seconds",
          "lid": "id of the listing to be booked",
          "nbOfDays": "number of days for which the booking will be made"
        }
      },
      "cancelBooking(uint256)": {
        "params": {
          "bid": "id of the booking to be cancelled"
        }
      },
      "deleteListing(uint256)": {
        "params": {
          "lid": "id of the listing to be deleted"
        }
      },
      "fulfilBooking(uint256)": {
        "params": {
          "bid": "id of the booking"
        }
      },
      "rate(uint256,uint256)": {
        "params": {
          "bid": "the identifier for their booking, this                    coupled with msg.sender is enough to determine                    the person being rated",
          "stars": "unsigned integer between 1 and 5, anything else                    will emit an error"
        }
      },
      "renounceOwnership()": {
        "details": "Leaves the contract without owner. It will not be possible to call `onlyOwner` functions anymore. Can only be called by the current owner. NOTE: Renouncing ownership will leave the contract without an owner, thereby removing any functionality that is only available to the owner."
      },
      "transferOwnership(address)": {
        "details": "Transfers ownership of the contract to a new account (`newOwner`). Can only be called by the current owner."
      }
    },
    "version": 1
  },
  "userdoc": {
    "kind": "user",
    "methods": {
      "bookListing(uint256,uint256,uint256)": {
        "notice": "Book a listing"
      },
      "cancelBooking(uint256)": {
        "notice": "Cancel a booking"
      },
      "createListing(uint8,string,uint256)": {
        "notice": "Creates a new listing for the message sender and returns the Id of the created listing When the listing create the smart-contract will have had the 2xprice amount added to its balance."
      },
      "deleteListing(uint256)": {
        "notice": "Returns the listing balance to its owner and deletes the listing Only if there are no active bookings."
      },
      "find(uint256)": {
        "notice": "Return index of found id"
      },
      "freeJunk()": {
        "notice": "Free all junk storage kept for reuse"
      },
      "fulfilBooking(uint256)": {
        "notice": "Invoked by the guest of a booking after the booking end, confirming the host fulfilled their obligations, and releasing funds held in escrow."
      },
      "isEmpty()": {
        "notice": "The list is empty if the HEAD node points to itself"
      },
      "rate(uint256,uint256)": {
        "notice": "Rate the booking 1-5 stars The function checks the msg.sender and validates they were either owner or guest in the booking. If they were not, a PermissionDenied event is emitted."
      },
      "useNextPos()": {
        "notice": "Returns the next available position and updates it"
      }
    },
    "version": 1
  }
}