{
  "contractName": "Classifieds",
  "abi": [
    {
      "anonymous": false,
      "inputs": [
        {
          "indexed": false,
          "internalType": "uint256",
          "name": "ad",
          "type": "uint256"
        },
        {
          "indexed": false,
          "internalType": "bytes32",
          "name": "status",
          "type": "bytes32"
        }
      ],
      "name": "TradeStatusChange",
      "type": "event"
    },
    {
      "inputs": [
        {
          "internalType": "uint256",
          "name": "",
          "type": "uint256"
        }
      ],
      "name": "trades",
      "outputs": [
        {
          "internalType": "address",
          "name": "poster",
          "type": "address"
        },
        {
          "internalType": "uint256",
          "name": "item",
          "type": "uint256"
        },
        {
          "internalType": "string",
          "name": "description",
          "type": "string"
        },
        {
          "internalType": "uint256",
          "name": "price",
          "type": "uint256"
        },
        {
          "internalType": "bytes32",
          "name": "status",
          "type": "bytes32"
        }
      ],
      "stateMutability": "view",
      "type": "function"
    },
    {
      "inputs": [
        {
          "internalType": "uint256",
          "name": "_trade",
          "type": "uint256"
        }
      ],
      "name": "getTrade",
      "outputs": [
        {
          "internalType": "address",
          "name": "",
          "type": "address"
        },
        {
          "internalType": "uint256",
          "name": "",
          "type": "uint256"
        },
        {
          "internalType": "string",
          "name": "",
          "type": "string"
        },
        {
          "internalType": "uint256",
          "name": "",
          "type": "uint256"
        },
        {
          "internalType": "bytes32",
          "name": "",
          "type": "bytes32"
        }
      ],
      "stateMutability": "view",
      "type": "function"
    },
    {
      "inputs": [
        {
          "internalType": "uint256",
          "name": "_item",
          "type": "uint256"
        },
        {
          "internalType": "string",
          "name": "_description",
          "type": "string"
        },
        {
          "internalType": "uint256",
          "name": "_price",
          "type": "uint256"
        }
      ],
      "name": "openTrade",
      "outputs": [],
      "stateMutability": "nonpayable",
      "type": "function"
    },
    {
      "inputs": [
        {
          "internalType": "uint256",
          "name": "_trade",
          "type": "uint256"
        }
      ],
      "name": "executeTrade",
      "outputs": [],
      "stateMutability": "nonpayable",
      "type": "function"
    },
    {
      "inputs": [
        {
          "internalType": "uint256",
          "name": "_trade",
          "type": "uint256"
        }
      ],
      "name": "cancelTrade",
      "outputs": [],
      "stateMutability": "nonpayable",
      "type": "function"
    }
  ],
  "bytecode": "0x6080806040523461001657610a2f908161001c8239f35b600080fdfe60806040908082526004908136101561001757600080fd5b60009060e060020a823504906302d2838b82146105ed5750806309ec6cc7146104495780631e6c598e146103f35780632db25e051461036f5763ad550b371461005f57600080fd5b3461036c57606036600319011261036c578135926001604060020a0392602480359190858311610368573660238401121561036857828201359686881161035357845196602097601f19998a966100be8b601f9d8e850116018461083c565b8183523686838301011161034157818a92878d93018386013783010152600180549096600160a060020a0393918416803b1561034f578a8661011c928a838e5180968195829460e060020a6323b872dd028452309033908501610970565b03925af1801561034557918c918c96959493610322575b508a5196610140886107f4565b3388528288019081528b8801948552606088019560443587528c60808a019860e160020a6327b832b7028a526003548152600280965220985116600160a060020a0319895416178855518a8801558187019351805193841161030d578e6101a786546107b5565b9081116102ce575b508c8e9f819f8c9d9e9f9c9a9b9c50809482881160011461025257505050908493929193610247575b505082810292600802900a6000190419161790555b51600384015551910155600354928301918284116102335750506000805160206109da833981519152939460e160020a6327b832b702916003558351928352820152a180f35b60e060020a634e487b710286526011905284fd5b0151915038806101d8565b908f97959293949186169089865280862095905b82821061029e5750508511610283575b50505050020190556101ed565b0151908316600802840a600019041916905538808080610276565b9294969884989a9b9c9d508392949683929787015181550197019401918f97959391928f9c9b9a99979593610266565b8f8f8f808983925220918181890104830193828910610304575b010401905b8181106102fa57506101af565b8e81558c016102ed565b935082936102e8565b60e060020a634e487b71028d5260418a52888dfd5b61033191939495969250610829565b61034157908a8a94939238610133565b8980fd5b8a513d8d823e3d90fd5b8a80fd5b5060e060020a634e487b710285526041825284fd5b8480fd5b80fd5b503461036c57602036600319011261036c57826103ef918335815260026020522083519061039c826107f4565b8054600160a060020a03908116835260018201546020840190815294906103c56002840161085f565b91828886015260038401549384606087015201549384608082015251169451955195869586610904565b0390f35b5082903461036c57602036600319011261036c57816103ef918435815260026020522091600160a060020a03835416926001810154946104356002830161085f565b906003830154920154925195869586610904565b5091346105e9576020918260031936011261058d5780359081855260028452828520835190610477826107f4565b8054600160a060020a03908116835260018201548784019081529184906104a06002820161085f565b8886015260038101546060860152015460808401908152818451163303610591575188939291906104dc9060e160020a6327b832b70214610992565b80600154169251169051823b1561058d57865160e060020a6323b872dd02815292849284928391859183916105159190308c8501610970565b03925af180156105835761056f575b509360ba60020a6810d85b98d95b1b19590291836000805160206109da83398151915296526002825260ba60020a6810d85b98d95b1b1959029085882001558351928352820152a180f35b61057890610829565b610368578438610524565b85513d84823e3d90fd5b8380fd5b865160e560020a62461bcd028152808601899052602660248201527f54726164652063616e2062652063616e63656c6c6564206f6e6c792062792070604482015260d160020a6537b9ba32b917026064820152608490fd5b8280fd5b849150346105e95760208060031936011261058d578480359283865260028352848620610619826107f4565b6106a084600160a060020a03928381541685526001810154948281019586526106446002830161085f565b818b015260038201546060820190815291870154608082018190526106749060e160020a6327b832b70214610992565b84808c54169151169151918b8b5180968195829460e060020a6323b872dd029c8d855233908501610970565b03925af180156107ab57610774575b5060015416905191813b15610770579186916106dc9383885180968195829483528d339030908501610970565b03925af1801561076657610735575b5060c260020a67115e1958dd5d195902908495836000805160206109da83398151915296526002825260c260020a67115e1958dd5d1959029085882001558351928352820152a180f35b906000805160206109da8339815191529461075e60c260020a67115e1958dd5d19590293610829565b9450906106eb565b84513d87823e3d90fd5b8680fd5b8481813d83116107a4575b610789818361083c565b810103126107a057518015150361077057886106af565b8780fd5b503d61077f565b87513d8a823e3d90fd5b90600160028304921680156107ea575b60208310146107d057565b60e060020a634e487b710260009081526022600452602490fd5b91607f16916107c5565b60a081019081106001604060020a0382111761080f57604052565b60e060020a634e487b710260009081526041600452602490fd5b6001604060020a03811161080f57604052565b601f909101601f19168101906001604060020a0382119082101761080f57604052565b9060405191826000825492610873846107b5565b9081845260019485811690816000146108e2575060011461089f575b505061089d9250038361083c565b565b9093915060005260209081600020936000915b8183106108ca57505061089d9350820101388061088f565b855488840185015294850194879450918301916108b2565b91505061089d94506020925060ff19168284015215158102820101388061088f565b92919095949395600160a060020a031683526020908184015260a060408401528151918260a085015260005b83811061095c575050509060c08260008260809585010152601f80199101168201019460608201520152565b81810183015185820160c001528201610930565b600160a060020a03918216815291166020820152604081019190915260600190565b1561099957565b60405160e560020a62461bcd0281526020600482015260126024820152607160020a712a3930b2329034b9903737ba1027b832b717026044820152606490fdfe4d38ed2c5ea671a5ccddc331f0ebebd94a60aaf6e572543497485d4d148f9edfa26469706673582212202d1bf41ddf897906aec980486e896f84d24fcec61eee1075fbbe592b69db754964736f6c63430008120033",
  "immutableReferences": {},
  "source": "// SPDX-License-Identifier: CC-BY-4.0\r\npragma solidity >=0.4.22 <0.9.0;\r\n\r\n// redesigned from https://github.com/HQ20/contracts/blob/master/contracts/classifieds/Classifieds.sol\r\n\r\nimport \"../interfaces/IERC20.sol\";\r\nimport \"../interfaces/IERC721.sol\";\r\n\r\ncontract Classifieds {\r\n    struct Trade {\r\n        address poster;\r\n        uint256 item;\r\n        string  description;\r\n        uint256 price;\r\n        bytes32 status; // Open, Executed, Cancelled\r\n    }\r\n\r\n    IERC20 currencyToken;\r\n    IERC721 itemToken;\r\n\r\n    mapping(uint256 => Trade) public trades;\r\n\r\n    uint256 tradeCounter;\r\n\r\n    event TradeStatusChange(uint256 ad, bytes32 status);\r\n\r\n    /**\r\n     * @dev Returns the details for a trade.\r\n     * @param _trade The id for the trade.\r\n     */\r\n    function getTrade(uint256 _trade)\r\n        public\r\n        virtual\r\n        view\r\n        returns(address, uint256, string memory, uint256, bytes32)\r\n    {\r\n        Trade memory trade = trades[_trade];\r\n        return (trade.poster, trade.item, trade.description, trade.price, trade.status);\r\n    }\r\n\r\n    /**\r\n     * @dev Opens a new trade. Puts _item in escrow.\r\n     * @param _item The id for the item to trade.\r\n     * @param _price The amount of currency for which to trade the item.\r\n     */\r\n    function openTrade(uint256 _item, string memory _description, uint256 _price)\r\n        public\r\n        virtual\r\n    {\r\n        itemToken.transferFrom(msg.sender, address(this), _item);\r\n        trades[tradeCounter] = Trade({\r\n            poster: msg.sender,\r\n            item: _item,\r\n            description: _description,\r\n            price: _price,\r\n            status: \"Open\"\r\n        });\r\n        tradeCounter += 1;\r\n        emit TradeStatusChange(tradeCounter - 1, \"Open\");\r\n    }\r\n\r\n    /**\r\n     * @dev Executes a trade. Must have approved this contract to transfer the\r\n     * amount of currency specified to the poster. Transfers ownership of the\r\n     * item to the filler.\r\n     * @param _trade The id of an existing trade\r\n     */\r\n    function executeTrade(uint256 _trade)\r\n        public\r\n        virtual\r\n    {\r\n        Trade memory trade = trades[_trade];\r\n        require(trade.status == \"Open\", \"Trade is not Open.\");\r\n        currencyToken.transferFrom(msg.sender, trade.poster, trade.price);\r\n        itemToken.transferFrom(address(this), msg.sender, trade.item);\r\n        trades[_trade].status = \"Executed\";\r\n        emit TradeStatusChange(_trade, \"Executed\");\r\n    }\r\n\r\n    /**\r\n     * @dev Cancels a trade by the poster.\r\n     * @param _trade The trade to be cancelled.\r\n     */\r\n    function cancelTrade(uint256 _trade)\r\n        public\r\n        virtual\r\n    {\r\n        Trade memory trade = trades[_trade];\r\n        require(\r\n            msg.sender == trade.poster,\r\n            \"Trade can be cancelled only by poster.\"\r\n        );\r\n        require(trade.status == \"Open\", \"Trade is not Open.\");\r\n        itemToken.transferFrom(address(this), trade.poster, trade.item);\r\n        trades[_trade].status = \"Cancelled\";\r\n        emit TradeStatusChange(_trade, \"Cancelled\");\r\n    }\r\n}",
  "sourcePath": "/Volumes/HOME/pingleware-contracts/contracts/retail/Classifieds.sol",
  "compiler": {
    "name": "solc",
    "version": "0.8.18+commit.87f61d96.Emscripten.clang"
  },
  "schemaVersion": "3.4.12",
  "updatedAt": "2024-05-23T18:56:27.066Z",
  "devdoc": {
    "kind": "dev",
    "methods": {
      "cancelTrade(uint256)": {
        "details": "Cancels a trade by the poster.",
        "params": {
          "_trade": "The trade to be cancelled."
        }
      },
      "executeTrade(uint256)": {
        "details": "Executes a trade. Must have approved this contract to transfer the amount of currency specified to the poster. Transfers ownership of the item to the filler.",
        "params": {
          "_trade": "The id of an existing trade"
        }
      },
      "getTrade(uint256)": {
        "details": "Returns the details for a trade.",
        "params": {
          "_trade": "The id for the trade."
        }
      },
      "openTrade(uint256,string,uint256)": {
        "details": "Opens a new trade. Puts _item in escrow.",
        "params": {
          "_item": "The id for the item to trade.",
          "_price": "The amount of currency for which to trade the item."
        }
      }
    },
    "version": 1
  },
  "userdoc": {
    "kind": "user",
    "methods": {},
    "version": 1
  }
}