{
  "contractName": "CommercialPaper",
  "abi": [
    {
      "inputs": [],
      "stateMutability": "nonpayable",
      "type": "constructor"
    },
    {
      "anonymous": false,
      "inputs": [
        {
          "indexed": true,
          "internalType": "address",
          "name": "tokenOwner",
          "type": "address"
        },
        {
          "indexed": true,
          "internalType": "address",
          "name": "spender",
          "type": "address"
        },
        {
          "indexed": false,
          "internalType": "uint256",
          "name": "tokens",
          "type": "uint256"
        }
      ],
      "name": "Approval",
      "type": "event"
    },
    {
      "anonymous": false,
      "inputs": [
        {
          "indexed": false,
          "internalType": "address",
          "name": "pIssuer",
          "type": "address"
        },
        {
          "indexed": false,
          "internalType": "uint256",
          "name": "pFaceValue",
          "type": "uint256"
        },
        {
          "indexed": false,
          "internalType": "uint256",
          "name": "pValueDate",
          "type": "uint256"
        },
        {
          "indexed": false,
          "internalType": "uint256",
          "name": "pMaturityDate",
          "type": "uint256"
        },
        {
          "indexed": false,
          "internalType": "uint256",
          "name": "rate",
          "type": "uint256"
        }
      ],
      "name": "CommercialPaperCreated",
      "type": "event"
    },
    {
      "anonymous": false,
      "inputs": [
        {
          "indexed": false,
          "internalType": "address",
          "name": "cra",
          "type": "address"
        }
      ],
      "name": "CreditReportingAgencyAssigned",
      "type": "event"
    },
    {
      "anonymous": false,
      "inputs": [
        {
          "indexed": false,
          "internalType": "address",
          "name": "sender",
          "type": "address"
        },
        {
          "indexed": false,
          "internalType": "address",
          "name": "recipient",
          "type": "address"
        }
      ],
      "name": "Destroyed",
      "type": "event"
    },
    {
      "anonymous": false,
      "inputs": [
        {
          "indexed": false,
          "internalType": "uint256",
          "name": "exchangeRate",
          "type": "uint256"
        }
      ],
      "name": "ExchangeRateUpdated",
      "type": "event"
    },
    {
      "anonymous": false,
      "inputs": [
        {
          "indexed": false,
          "internalType": "address",
          "name": "sender",
          "type": "address"
        },
        {
          "indexed": false,
          "internalType": "uint256",
          "name": "amount",
          "type": "uint256"
        }
      ],
      "name": "FallbackEvent",
      "type": "event"
    },
    {
      "anonymous": false,
      "inputs": [
        {
          "indexed": false,
          "internalType": "address",
          "name": "investor",
          "type": "address"
        }
      ],
      "name": "InvestorAdded",
      "type": "event"
    },
    {
      "anonymous": false,
      "inputs": [
        {
          "indexed": true,
          "internalType": "address",
          "name": "previousOwner",
          "type": "address"
        },
        {
          "indexed": true,
          "internalType": "address",
          "name": "newOwner",
          "type": "address"
        }
      ],
      "name": "OwnershipTransferred",
      "type": "event"
    },
    {
      "anonymous": false,
      "inputs": [
        {
          "indexed": false,
          "internalType": "address",
          "name": "promoter",
          "type": "address"
        }
      ],
      "name": "PromoterAssigned",
      "type": "event"
    },
    {
      "anonymous": false,
      "inputs": [
        {
          "indexed": false,
          "internalType": "address",
          "name": "sender",
          "type": "address"
        },
        {
          "indexed": false,
          "internalType": "uint256",
          "name": "amount",
          "type": "uint256"
        }
      ],
      "name": "ReceiveEvent",
      "type": "event"
    },
    {
      "anonymous": false,
      "inputs": [
        {
          "indexed": false,
          "internalType": "address",
          "name": "sender",
          "type": "address"
        },
        {
          "indexed": false,
          "internalType": "bytes",
          "name": "reason",
          "type": "bytes"
        }
      ],
      "name": "Started",
      "type": "event"
    },
    {
      "anonymous": false,
      "inputs": [
        {
          "indexed": false,
          "internalType": "address",
          "name": "_contract",
          "type": "address"
        },
        {
          "indexed": false,
          "internalType": "bytes32",
          "name": "status",
          "type": "bytes32"
        }
      ],
      "name": "StatusUpdated",
      "type": "event"
    },
    {
      "anonymous": false,
      "inputs": [
        {
          "indexed": false,
          "internalType": "address",
          "name": "sender",
          "type": "address"
        },
        {
          "indexed": false,
          "internalType": "bytes",
          "name": "reason",
          "type": "bytes"
        }
      ],
      "name": "Stopped",
      "type": "event"
    },
    {
      "anonymous": false,
      "inputs": [
        {
          "indexed": false,
          "internalType": "address",
          "name": "sender",
          "type": "address"
        },
        {
          "indexed": false,
          "internalType": "string",
          "name": "reason",
          "type": "string"
        }
      ],
      "name": "Termination",
      "type": "event"
    },
    {
      "anonymous": false,
      "inputs": [
        {
          "indexed": true,
          "internalType": "address",
          "name": "from",
          "type": "address"
        },
        {
          "indexed": true,
          "internalType": "address",
          "name": "to",
          "type": "address"
        },
        {
          "indexed": false,
          "internalType": "uint256",
          "name": "tokens",
          "type": "uint256"
        }
      ],
      "name": "Transfer",
      "type": "event"
    },
    {
      "stateMutability": "payable",
      "type": "fallback"
    },
    {
      "inputs": [],
      "name": "CUSIP",
      "outputs": [
        {
          "internalType": "string",
          "name": "",
          "type": "string"
        }
      ],
      "stateMutability": "view",
      "type": "function"
    },
    {
      "inputs": [],
      "name": "DESCRIPTION",
      "outputs": [
        {
          "internalType": "string",
          "name": "",
          "type": "string"
        }
      ],
      "stateMutability": "view",
      "type": "function"
    },
    {
      "inputs": [],
      "name": "MAX_NONACCREDITED_INVESTORS",
      "outputs": [
        {
          "internalType": "uint256",
          "name": "",
          "type": "uint256"
        }
      ],
      "stateMutability": "view",
      "type": "function"
    },
    {
      "inputs": [],
      "name": "MAX_SIZE_OF_OFFERING",
      "outputs": [
        {
          "internalType": "uint256",
          "name": "",
          "type": "uint256"
        }
      ],
      "stateMutability": "view",
      "type": "function"
    },
    {
      "inputs": [],
      "name": "VERSION",
      "outputs": [
        {
          "internalType": "string",
          "name": "",
          "type": "string"
        }
      ],
      "stateMutability": "view",
      "type": "function"
    },
    {
      "inputs": [],
      "name": "WAIT",
      "outputs": [
        {
          "internalType": "uint256",
          "name": "",
          "type": "uint256"
        }
      ],
      "stateMutability": "view",
      "type": "function"
    },
    {
      "inputs": [],
      "name": "YEAR",
      "outputs": [
        {
          "internalType": "uint256",
          "name": "",
          "type": "uint256"
        }
      ],
      "stateMutability": "view",
      "type": "function"
    },
    {
      "inputs": [],
      "name": "_totalSupply",
      "outputs": [
        {
          "internalType": "uint256",
          "name": "",
          "type": "uint256"
        }
      ],
      "stateMutability": "view",
      "type": "function"
    },
    {
      "inputs": [],
      "name": "decimals",
      "outputs": [
        {
          "internalType": "uint8",
          "name": "",
          "type": "uint8"
        }
      ],
      "stateMutability": "view",
      "type": "function"
    },
    {
      "inputs": [],
      "name": "denomination",
      "outputs": [
        {
          "internalType": "uint256",
          "name": "",
          "type": "uint256"
        }
      ],
      "stateMutability": "view",
      "type": "function"
    },
    {
      "inputs": [],
      "name": "destroy",
      "outputs": [],
      "stateMutability": "nonpayable",
      "type": "function"
    },
    {
      "inputs": [
        {
          "internalType": "address",
          "name": "_recipient",
          "type": "address"
        }
      ],
      "name": "destroyAndSend",
      "outputs": [],
      "stateMutability": "nonpayable",
      "type": "function"
    },
    {
      "inputs": [],
      "name": "exchangeRate",
      "outputs": [
        {
          "internalType": "uint256",
          "name": "",
          "type": "uint256"
        }
      ],
      "stateMutability": "view",
      "type": "function"
    },
    {
      "inputs": [],
      "name": "getOwner",
      "outputs": [
        {
          "internalType": "address",
          "name": "",
          "type": "address"
        }
      ],
      "stateMutability": "payable",
      "type": "function"
    },
    {
      "inputs": [],
      "name": "name",
      "outputs": [
        {
          "internalType": "string",
          "name": "",
          "type": "string"
        }
      ],
      "stateMutability": "view",
      "type": "function"
    },
    {
      "inputs": [],
      "name": "owner",
      "outputs": [
        {
          "internalType": "address",
          "name": "",
          "type": "address"
        }
      ],
      "stateMutability": "view",
      "type": "function"
    },
    {
      "inputs": [],
      "name": "renounceOwnership",
      "outputs": [],
      "stateMutability": "payable",
      "type": "function"
    },
    {
      "inputs": [],
      "name": "symbol",
      "outputs": [
        {
          "internalType": "string",
          "name": "",
          "type": "string"
        }
      ],
      "stateMutability": "view",
      "type": "function"
    },
    {
      "inputs": [
        {
          "internalType": "address",
          "name": "newOwner",
          "type": "address"
        }
      ],
      "name": "transferOwnership",
      "outputs": [],
      "stateMutability": "payable",
      "type": "function"
    },
    {
      "stateMutability": "payable",
      "type": "receive"
    },
    {
      "inputs": [
        {
          "internalType": "address",
          "name": "_promoter",
          "type": "address"
        }
      ],
      "name": "addPromoter",
      "outputs": [],
      "stateMutability": "nonpayable",
      "type": "function"
    },
    {
      "inputs": [
        {
          "internalType": "address",
          "name": "_cra",
          "type": "address"
        }
      ],
      "name": "addCreditReportingAgency",
      "outputs": [],
      "stateMutability": "nonpayable",
      "type": "function"
    },
    {
      "inputs": [
        {
          "internalType": "address",
          "name": "investor",
          "type": "address"
        },
        {
          "internalType": "bool",
          "name": "accredited",
          "type": "bool"
        }
      ],
      "name": "addInvestor",
      "outputs": [],
      "stateMutability": "nonpayable",
      "type": "function"
    },
    {
      "inputs": [
        {
          "internalType": "uint256",
          "name": "_swapRate",
          "type": "uint256"
        }
      ],
      "name": "updateExchangeRate",
      "outputs": [],
      "stateMutability": "nonpayable",
      "type": "function"
    },
    {
      "inputs": [
        {
          "internalType": "uint256",
          "name": "pFaceValue",
          "type": "uint256"
        },
        {
          "internalType": "uint256",
          "name": "pValueDate",
          "type": "uint256"
        },
        {
          "internalType": "uint256",
          "name": "pMaturityDate",
          "type": "uint256"
        },
        {
          "internalType": "uint256",
          "name": "rate",
          "type": "uint256"
        }
      ],
      "name": "commercialPaper",
      "outputs": [],
      "stateMutability": "nonpayable",
      "type": "function"
    },
    {
      "inputs": [],
      "name": "getContractAddress",
      "outputs": [
        {
          "internalType": "address",
          "name": "",
          "type": "address"
        }
      ],
      "stateMutability": "view",
      "type": "function"
    },
    {
      "inputs": [
        {
          "internalType": "bytes32",
          "name": "pStatus",
          "type": "bytes32"
        }
      ],
      "name": "updateStatus",
      "outputs": [],
      "stateMutability": "nonpayable",
      "type": "function"
    },
    {
      "inputs": [],
      "name": "getContract",
      "outputs": [
        {
          "internalType": "address",
          "name": "",
          "type": "address"
        },
        {
          "internalType": "address",
          "name": "",
          "type": "address"
        },
        {
          "internalType": "address",
          "name": "",
          "type": "address"
        },
        {
          "internalType": "address",
          "name": "",
          "type": "address"
        },
        {
          "internalType": "uint256",
          "name": "",
          "type": "uint256"
        },
        {
          "internalType": "uint256",
          "name": "",
          "type": "uint256"
        },
        {
          "internalType": "uint256",
          "name": "",
          "type": "uint256"
        },
        {
          "internalType": "uint256",
          "name": "",
          "type": "uint256"
        },
        {
          "internalType": "bytes32",
          "name": "",
          "type": "bytes32"
        },
        {
          "internalType": "bytes32",
          "name": "",
          "type": "bytes32"
        }
      ],
      "stateMutability": "view",
      "type": "function"
    },
    {
      "inputs": [],
      "name": "buy",
      "outputs": [],
      "stateMutability": "payable",
      "type": "function"
    },
    {
      "inputs": [],
      "name": "sell",
      "outputs": [],
      "stateMutability": "payable",
      "type": "function"
    },
    {
      "inputs": [
        {
          "internalType": "address",
          "name": "tokenOwner",
          "type": "address"
        },
        {
          "internalType": "address",
          "name": "spender",
          "type": "address"
        }
      ],
      "name": "allowance",
      "outputs": [
        {
          "internalType": "uint256",
          "name": "remaining",
          "type": "uint256"
        }
      ],
      "stateMutability": "view",
      "type": "function"
    },
    {
      "inputs": [
        {
          "internalType": "address",
          "name": "spender",
          "type": "address"
        },
        {
          "internalType": "uint256",
          "name": "tokens",
          "type": "uint256"
        }
      ],
      "name": "approve",
      "outputs": [
        {
          "internalType": "bool",
          "name": "success",
          "type": "bool"
        }
      ],
      "stateMutability": "nonpayable",
      "type": "function"
    },
    {
      "inputs": [
        {
          "internalType": "address",
          "name": "to",
          "type": "address"
        },
        {
          "internalType": "uint256",
          "name": "tokens",
          "type": "uint256"
        }
      ],
      "name": "transfer",
      "outputs": [
        {
          "internalType": "bool",
          "name": "success",
          "type": "bool"
        }
      ],
      "stateMutability": "nonpayable",
      "type": "function"
    },
    {
      "inputs": [
        {
          "internalType": "address",
          "name": "from",
          "type": "address"
        },
        {
          "internalType": "address",
          "name": "to",
          "type": "address"
        },
        {
          "internalType": "uint256",
          "name": "tokens",
          "type": "uint256"
        }
      ],
      "name": "transferFrom",
      "outputs": [
        {
          "internalType": "bool",
          "name": "success",
          "type": "bool"
        }
      ],
      "stateMutability": "nonpayable",
      "type": "function"
    },
    {
      "inputs": [],
      "name": "totalSupply",
      "outputs": [
        {
          "internalType": "uint256",
          "name": "",
          "type": "uint256"
        }
      ],
      "stateMutability": "view",
      "type": "function"
    },
    {
      "inputs": [
        {
          "internalType": "address",
          "name": "tokenOwner",
          "type": "address"
        }
      ],
      "name": "balanceOf",
      "outputs": [
        {
          "internalType": "uint256",
          "name": "balance",
          "type": "uint256"
        }
      ],
      "stateMutability": "view",
      "type": "function"
    },
    {
      "inputs": [
        {
          "internalType": "uint256",
          "name": "_amount",
          "type": "uint256"
        }
      ],
      "name": "mint",
      "outputs": [
        {
          "internalType": "bool",
          "name": "",
          "type": "bool"
        }
      ],
      "stateMutability": "nonpayable",
      "type": "function"
    },
    {
      "inputs": [
        {
          "internalType": "uint256",
          "name": "_amount",
          "type": "uint256"
        }
      ],
      "name": "burn",
      "outputs": [
        {
          "internalType": "bool",
          "name": "",
          "type": "bool"
        }
      ],
      "stateMutability": "nonpayable",
      "type": "function"
    }
  ],
  "bytecode": "0x608060405234620000f65760008054600160a060020a03191633908117825542600155907f8be0079c531659141344cd1fd0a4f28419497f9722a3daafe3b4186f6b6457e08180a360ff19600354166003556200005b62000152565b620000656200022f565b62000072620186a0600855565b6200008164088e787f80600955565b336000908152601560205260409020620000a290805460ff19166001179055565b620000e5620000df620000b76008546200048c565b620000d8620000d2620000cc60065460ff1690565b60ff1690565b620002e6565b90620002fb565b6200030f565b5060405161204a9081620004fa8239f35b600080fd5b906001600283049216801562000147575b60208310146200011857565b7f4e487b7100000000000000000000000000000000000000000000000000000000600052602260045260246000fd5b91607f16916200010c565b6200015f600454620000fb565b601f8111620001fc575b50604760049081556000527f50726f6d697373617279204e6f746520666f722041424320436f72706f7261747f8a35acfbc15ff81a39ae7d344fd709f28e8600b4aa8c65c6b64bfe7fe36bd19b557f696f6e00000000000000000000000000000000000000000000000000000000007f8a35acfbc15ff81a39ae7d344fd709f28e8600b4aa8c65c6b64bfe7fe36bd19c55565b60006004815260026020601f818420940104830192015b8281106200022357505062000169565b81815560010162000213565b6200023c600554620000fb565b601f81116200026d575b507f4142432e4e4f54452e5331000000000000000000000000000000000000000016600555565b6000600581526020601f8183209301048201915b8281106200029157505062000246565b81815560010162000281565b600160a060020a0316600090815260126020526040902090565b7f4e487b7100000000000000000000000000000000000000000000000000000000600052601160045260246000fd5b604d8111620002f557600a0a90565b620002b7565b81810292918115918404141715620002f557565b600054600160a060020a039081163303620003c2577fddf252ad1be2c89b69c2b068fc378daa952ba7f163c4a11628f55a4df523b3ef620003ba600092620003636200035e8660075462000420565b600755565b6003546101009004600160a060020a0316620003966200038f8762000388846200029d565b5462000420565b916200029d565b556003546101009004600160a060020a031660405195865216939081906020820190565b0390a3600190565b60646040517f08c379a000000000000000000000000000000000000000000000000000000000815260206004820152601b60248201527f756e617574686f72697a65642c206e6f7420746865206f776e657200000000006044820152fd5b9081019081106200042e5790565b60646040517f08c379a000000000000000000000000000000000000000000000000000000000815260206004820152601b60248201527f536166654d6174683a206164646974696f6e206f766572666c6f7700000000006044820152fd5b80156200049b57624c4b400490565b60646040517f08c379a000000000000000000000000000000000000000000000000000000000815260206004820152601a60248201527f536166654d6174683a206469766973696f6e206279207a65726f0000000000006044820152fdfe60806040526004361015610026575b361561001e5761001c6114ef565b005b61001c611572565b60e060020a600035046306fdde038114610274578063095ea7b31461026f57806312a4c9641461026a57806318160ddd1461025157806323b872dd14610265578063313ce5671461026057806332a2c5d01461025b5780633ba0b9a9146102565780633eaaf86b1461025157806342966c681461024c578063457100741461024757806354a0c4581461024257806370a01b3d1461023d57806370a0823114610238578063715018a61461023357806374d791a41461022e5780637516197b1461022957806383197ef014610224578063839145401461021f578063893d20e81461021a5780638a59eb56146102155780638bca6d16146102105780638da5cb5b1461020b578063958f85bd1461020657806395d89b4114610201578063a0712d68146101fc578063a6f2ae3a146101f7578063a9059cbb146101f2578063ada732b5146101ed578063b8fb3a51146101e8578063b9e205ae146101e3578063dd62ed3e146101de578063ea303f6b146101d9578063f1ae8856146101d4578063f2fde38b146101cf578063f5074f41146101ca5763ffa1ad740361000e5761139a565b611359565b6112a1565b611151565b611107565b611077565b61101d565b611001565b610f84565b610e7b565b610dc3565b610d36565b610c73565b610bf5565b610bc8565b610baa565b610b4b565b610b23565b610b04565b610a9d565b610a7f565b6108d7565b610891565b610857565b610734565b6106b7565b610610565b610552565b6104ab565b610534565b610519565b6104f8565b6104c9565b61048f565b61045e565b61031f565b60e060020a634e487b710260009081526041600452602490fd5b604081019081106001604060020a038211176102ae57604052565b610279565b601f909101601f19168101906001604060020a038211908210176102ae57604052565b6020808252825181830181905290939260005b82811061030b57505060409293506000838284010152601f8019910116010190565b8181018601518482016040015285016102e9565b3461042d5760008060031936011261042a5760405190806004549060028204916001808216928315610420575b60209283861085146104095785885260208801949081156103e95750600114610390575b61038c87610380818903826102b3565b604051918291826102d6565b0390f35b600460005294509192917f8a35acfbc15ff81a39ae7d344fd709f28e8600b4aa8c65c6b64bfe7fe36bd19b5b8386106103d857505050910190506103808261038c3880610370565b8054858701529482019481016103bc565b60ff191685525050509115159091020190506103808261038c3880610370565b60e060020a634e487b710282526022600452602482fd5b93607f169361034c565b80fd5b600080fd5b60043590600160a060020a038216820361042d57565b60243590600160a060020a038216820361042d57565b3461042d57604036600319011261042d57602061048561047c610432565b60243590611a25565b6040519015158152f35b3461042d57600036600319011261042d57602060405160238152f35b3461042d57600036600319011261042d576020600754604051908152f35b3461042d57606036600319011261042d5760206104856104e7610432565b6104ef610448565b60443591611c48565b3461042d57600036600319011261042d57602060ff60065416604051908152f35b3461042d57600036600319011261042d576020604051308152f35b3461042d57600036600319011261042d576020600954604051908152f35b3461042d57602036600319011261042d576000600435600080516020611ff5833981519152610601600160a060020a036105908186541633146113e0565b33855260126020526105a86040862054851115611e27565b6105bc6105b785600754611ec5565b600755565b6105c7600354611809565b6105e36105dd866105d784611632565b54611ec5565b91611632565b556105ef600354611809565b60405194855216929081906020820190565b0390a360405160018152602090f35b60008060031936011261042a5761062833151561181a565b61064860016106406106393361164c565b5460ff1690565b151514611868565b61065d61065433611632565b5434111561192a565b61066960095434611f23565b6106768130311015611979565b81808280156106ad575b8280929181923390f1156106a8578061069c6106a49230611a25565b503033611c48565b5080f35b6119d6565b6108fc9150610680565b3461042d57602036600319011261042d577f28a2f18512cceb39de5ad8beb90cabd9c0e9a6901ade3db38be353d44fb6524660206106f3610432565b600054600160a060020a03919061070d90831633146113e0565b166107198115156115ee565b600a8054600160a060020a03191682179055604051908152a1005b3461042d57604036600319011261042d5761074d610432565b602435801515810361042d57600054600160a060020a039061077290821633146113e0565b8216600052601560205260ff6040600020541661081257816107f0916107c86107bb7f62e6a5118be03f9bfedb79b0ed7ed75ee4a9e15fc4c69d2c4976acde26fa2d5f9561164c565b805460ff19166001179055565b156107f5576107d6816117a5565b604051600160a060020a0390911681529081906020820190565b0390a1005b610804602360175411156116b2565b61080d81611727565b6107d6565b60405160e560020a62461bcd0281526020600482015260176024820152604860020a76696e766573746f7220616c726561647920657869737473026044820152606490fd5b3461042d57602036600319011261042d57600160a060020a03610878610432565b1660005260126020526020604060002054604051908152f35b60008060031936011261042a57805481600160a060020a0382166108b63382146115a2565b600080516020611fd58339815191528280a3600160a060020a031916815580f35b3461042d57608036600319011261042d57600435602435604435916064359261090c600160a060020a036000541633146113e0565b630163f5008111610a00577fc55ede29817074632bdf9ab62f9cac6e503d61b8eef25750b3b61883f8d3db16936107f0916109d16109486110c3565b6000808252602082015260408101869052606081018790526080810183905260a0810184905260ca60020a6618dc99585d19590260c0820181905260ca60020a661d5b9c985d19590260e0909201829052600a8054600160a060020a0319908116909155600b80549091169055600c879055600d889055600e849055600f859055601055601155565b6040805133815260208101959095528401949094526060830193909352608082019290925290819060a0820190565b60405160e560020a62461bcd028152602060048201526044602482018190527f6d61747572697479206461746520657874656e6473206265796f6e6420746865908201527f2061636365707461626c652074696d65206f66203237302064617973206f7220606482015260e060020a636c65737302608482015260a490fd5b3461042d57600036600319011261042d576020604051624c4b408152f35b3461042d5760008060031936011261042a57610ac4600160a060020a0382541633146113e0565b600080516020611fb5833981519152610afe610ade61149f565b60408051338152600160a060020a03909216602083015290918291820190565b0390a180f35b3461042d57600036600319011261042d5760206040516301e133808152f35b600036600319011261042d576020610b3961149f565b604051600160a060020a039091168152f35b3461042d57602036600319011261042d577f5035b7a4e9cd89f5a9b2ec3d72d1d3d5369cef7ebfbd647f68036c2b1ae03fa46040600435610b98600160a060020a036000541633146113e0565b806010558151903082526020820152a1005b3461042d57600036600319011261042d576020600854604051908152f35b3461042d57600036600319011261042d57600354604051610100909104600160a060020a03168152602090f35b3461042d57600036600319011261042d57610140600160a060020a0361010090808260035404169181600a541691600b541690600c54600d54600e5490600f5492601054956011549760405199308b5260208b015260408a01526060890152608088015260a087015260c086015260e0850152830152610120820152f35b3461042d5760008060031936011261042a5760405190806005549060028204916001808216928315610d2c575b60209283861085146104095785885260208801949081156103e95750600114610cd35761038c87610380818903826102b3565b600560005294509192917f036b6384b5eca791c62761152d0c79bb0604c104a5fb6f4eb0703f3154bb3db05b838610610d1b57505050910190506103808261038c3880610370565b805485870152948201948101610cff565b93607f1693610ca0565b3461042d57602036600319011261042d576004356000600080516020611ff5833981519152610601600160a060020a03610d748185541633146113e0565b610d8085600754611e70565b6007558061010060035404168085526012602052610da56105dd876040882054611e70565b55610db1600354611809565b60405195865216939081906020820190565b60008060031936011261042a57610ddb33151561181a565b3381526015602052610df8600160ff604084205416151514611868565b610e0760085460095490611f23565b8015610e33576106a4903404610e218160075410156118ce565b610e2b8133611a25565b503330611c48565b60405160e560020a62461bcd02815260206004820152601a60248201527f536166654d6174683a206469766973696f6e206279207a65726f0000000000006044820152606490fd5b3461042d57604036600319011261042d57610e94610432565b602435336000526015602052610eb160ff604060002054166119e2565b600160a060020a03821691610ec7831515611ad7565b610edb610ed66106398361164c565b611b18565b610ee6821515611b80565b610f00610ef4600354611809565b600160a060020a031690565b3303610f62575b42610f1182611666565b55610f1f826105d733611632565b610f2833611632565b55610f3f6105dd83610f3984611632565b54611e70565b556040519081523390600080516020611ff5833981519152908060208101610601565b610f7f610f77610f7133611666565b5461142f565b421015611bc2565b610f07565b3461042d57602036600319011261042d577fce1dd22be7af1938103d64cdf88b57df6bd0f316f2f7b524322fd4075dbdf3466020610fc0610432565b600054600160a060020a039190610fda90831633146113e0565b16610fe68115156115ee565b600b8054600160a060020a03191682179055604051908152a1005b3461042d57600036600319011261042d576020604051601e8152f35b3461042d57602036600319011261042d577f388f446e9526fe5c9af20a5919b342370c8a7c0cb05245afe1e545658fa3cdba602060043561106a600160a060020a036000541633146113e0565b80600955604051908152a1005b3461042d57604036600319011261042d5760206110ba611095610432565b61109d610448565b600160a060020a039091166000908152601384526040902061169a565b54604051908152f35b6040519061010082016001604060020a038111838210176102ae57604052565b6040519061012082016001604060020a038111838210176102ae5760405260f18252565b3461042d57600036600319011261042d5761038c60405161112781610293565b600e8152609260020a6d1513c81091481054d4d251d39151026020820152604051918291826102d6565b3461042d57600036600319011261042d5761038c61116d6110e3565b7f50726976617465204465627420546f6b656e2028436f6d6d65726369616c205060208201527f617065722920666f722050726573735061676520456e7465727461696e6d656e60408201527f7420496e6320285345432046696c6520233032312d3333323134342920756e6460608201527f65722052756c6520353036622061742068747470733a2f2f7777772e7365632e60808201527f676f762f41726368697665732f65646761722f646174612f303030313736363960a08201527f34372f3030303137363639343731393030303030312f78736c466f726d44583060c08201527f312f7072696d6172795f646f632e786d6c2e20464f522041434352454449544560e0820152607960020a70221024a72b22a9aa27a9299027a7262c9702610100820152604051918291826102d6565b602036600319011261042d576112b5610432565b600080549091600160a060020a0380831692916112d33385146115a2565b169182156112ff578290600080516020611fd58339815191528580a3600160a060020a03191617815580f35b60405160e560020a62461bcd02815260206004820152602660248201527f4f776e61626c653a206e6577206f776e657220697320746865207a65726f2061604482015260d060020a65646472657373026064820152608490fd5b3461042d57602036600319011261042d57600080516020611fb58339815191526107f0611384610432565b610ade600160a060020a036000541633146113e0565b3461042d57600036600319011261042d5761038c6040516113ba81610293565b600a815260b060020a69312e362e342d62657461026020820152604051918291826102d6565b156113e757565b60405160e560020a62461bcd02815260206004820152601b60248201527f756e617574686f72697a65642c206e6f7420746865206f776e657200000000006044820152606490fd5b906301e13380820180921161144057565b60e060020a634e487b710260009081526011600452602490fd5b1561146157565b60405160e560020a62461bcd0281526020600482015260106024820152608160020a6f3930ba32903634b6b4ba1032b93937b9026044820152606490fd5b600154601e8101809111611440576114c19042116114bc8161145a565b61145a565b42600155600054600160a060020a031690565b600160a060020a039091168152602081019190915260400190565b33320361152b577f26875833861a2b006512a11f1b86edf95df96131040f3caeed72989ee9858083604051806115263433836114d4565b0390a1565b60405160e560020a62461bcd0281526020600482015260196024820152603860020a787068697368696e672061747461636b2064657465637465643f026044820152606490fd5b7fcc85d09d309785db93d6df19917f2e6cc07fe27cd01c08c8279145deb5cf4526604051806115263433836114d4565b156115a957565b60405160e560020a62461bcd0281526020600482015260176024820152604960020a7630b1b1b2b9b9903232b734b2b2103337b91037bbb732b9026044820152606490fd5b156115f557565b60405160e560020a62461bcd02815260206004820152600f6024820152608860020a6e696e76616c69642061646472657373026044820152606490fd5b600160a060020a0316600090815260126020526040902090565b600160a060020a0316600090815260156020526040902090565b600160a060020a0316600090815260146020526040902090565b600160a060020a0316600090815260136020526040902090565b90600160a060020a0316600052602052604060002090565b156116b957565b60405160e560020a62461bcd02815260206004820152603b60248201527f6d6178696d756d206e756d626572206f66206e6f6e2d6163637265646974656460448201527f20696e766573746f727320686173206265656e207265616368656400000000006064820152608490fd5b601754604060020a8110156102ae57600181018060175581101561178b5760176000527fc624b66cc0138b8fabc209247f72d758e1cf3343756d543badbf24212bed8c15018054600160a060020a031916600160a060020a03909216919091179055565b60e060020a634e487b710260009081526032600452602490fd5b601654604060020a8110156102ae57600181018060165581101561178b5760166000527fd833147d7dc355ba459fc788f669e58cfaf9dc25ddcd0702e87d69c7b5124289018054600160a060020a031916600160a060020a03909216919091179055565b6101009004600160a060020a031690565b1561182157565b60405160e560020a62461bcd0281526020600482015260196024820152603a60020a781e995c9bc81dd85b1b195d1cc81b9bdd081858d8d95c1d1959026044820152606490fd5b1561186f57565b60405160e560020a62461bcd02815260206004820152602b60248201527f696e766573746f72206e6f74207065726d697474656420746f20627579207468604482015260a860020a6a6973207365637572697479026064820152608490fd5b156118d557565b60405160e560020a62461bcd02815260206004820152602160248201527f65786365737369766520707572636861736520616d6f756e7420726571756573604482015260fa60020a601d026064820152608490fd5b1561193157565b60405160e560020a62461bcd02815260206004820152601a60248201527f696e73756666696369656e7420746f6b656e2062616c616e63650000000000006044820152606490fd5b1561198057565b60405160e560020a62461bcd02815260206004820152602260248201527f696e73756666696369656e742062616c616e636520746f2073656e6420657468604482015260f160020a6132b9026064820152608490fd5b6040513d6000823e3d90fd5b156119e957565b60405160e560020a62461bcd02815260206004820152600e6024820152609260020a6d1b9bdd08185d5d1a1bdc9a5e9959026044820152606490fd5b336000526015602052611a3f60ff604060002054166119e2565b33600052601360205281611a5782604060002061169a565b55604051918252600160a060020a03169033907f8c5be1e5ebec7d5bd14f71427d1e84f3dd0314c0f7b2291e5b200ac8c7c3b92590602090a3600190565b15611a9c57565b60405160e560020a62461bcd02815260206004820152600d6024820152609860020a6c496e76616c69642076616c7565026044820152606490fd5b15611ade57565b60405160e560020a62461bcd02815260206004820152600c602482015260a060020a6b4e756c6c2061646472657373026044820152606490fd5b15611b1f57565b60405160e560020a62461bcd02815260206004820152602d60248201527f726563697069656e74206973206e6f7420617574686f72697a656420746f20726044820152609860020a6c65636569766520746f6b656e73026064820152608490fd5b15611b8757565b60405160e560020a62461bcd02815260206004820152600d6024820152609860020a6c496e76616c69642056616c7565026044820152606490fd5b15611bc957565b60405160e560020a62461bcd02815260206004820152604560248201527f7472616e73666572206e6f74207065726d697474656420756e6465722052756c60448201527f65203134342c20686f6c64696e6720706572696f6420686173206e6f7420656c606482015260da60020a64185c1cd95902608482015260a490fd5b9091611d6c600080516020611ff583398151915291336000526015602052611c7760ff604060002054166119e2565b600160a060020a038581169590611c8f871515611ad7565b851694611c9d861515611ad7565b611cac610ed66106398461164c565b611cb7831515611a95565b611cc5610ef4600354611809565b808714159081611d88575b50611d74575b611ceb611ce282611632565b54841115611d93565b611d09611d0033611cfb84611680565b61169a565b54841115611ddc565b42611d1383611666565b55611d21836105d783611632565b611d2a82611632565b55611d4a611d3f846105d733611cfb86611680565b91611cfb3391611680565b55611d5b6105dd83610f3984611632565b556040519081529081906020820190565b0390a3600190565b611d83610f77610f7183611666565b611cd6565b905087141538611cd0565b15611d9a57565b60405160e560020a62461bcd0281526020600482015260146024820152606060020a73496e73756666696369656e742062616c616e6365026044820152606490fd5b15611de357565b60405160e560020a62461bcd0281526020600482015260166024820152605060020a75496e73756666696369656e7420616c6c6f77616e6365026044820152606490fd5b15611e2e57565b60405160e560020a62461bcd0281526020600482015260146024820152606060020a73496e73756666696369656e742042616c616e6365026044820152606490fd5b908101908110611e7d5790565b60405160e560020a62461bcd02815260206004820152601b60248201527f536166654d6174683a206164646974696f6e206f766572666c6f7700000000006044820152606490fd5b808211611edb57818103911901810361042d5790565b60405160e560020a62461bcd02815260206004820152601e60248201527f536166654d6174683a207375627472616374696f6e206f766572666c6f7700006044820152606490fd5b908082029180828404141582151761042d578015611f9a57820403611f455790565b60405160e560020a62461bcd02815260206004820152602160248201527f536166654d6174683a206d756c7469706c69636174696f6e206f766572666c6f604482015260f860020a6077026064820152608490fd5b60e060020a634e487b710260009081526012600452602490fdfe91ca00fdf29069527d658f8dfc6d1c0bf9861780bb45ff36436f938d3595a8d68be0079c531659141344cd1fd0a4f28419497f9722a3daafe3b4186f6b6457e0ddf252ad1be2c89b69c2b068fc378daa952ba7f163c4a11628f55a4df523b3efa2646970667358221220c2f8d83dcac16ade81948684654acefc01402e1a6e6fd9185701166541967ee364736f6c63430008120033",
  "immutableReferences": {},
  "source": "// SPDX-License-Identifier: CC-BY-4.0\r\npragma solidity >=0.4.22 <0.9.0;\r\n\r\n// Commercial Paper Token with exchange\r\n\r\n/**\r\n * The issuer is the entity issuing the commercial papers. Where the commercial papers are issued through a special purpose vehicle (SPV),\r\n * the promoter is the entity incorporating the SPV for the purposes of the issuance and holds a significant ownership and control of the SPV,\r\n * i.e. it is the SPVs parent company.\r\n */\r\n\r\n/**\r\n * Licensed Securities Depository\r\n *\r\n * The Licensed Securities Depository is a specialist financial institution, licensed by the SEC,\r\n * which holds commercial papers either in certificated or uncertificated (dematerialized) form so\r\n * that ownership can be easily transferred through a book entry rather than the transfer of physical certificates.\r\n * The depository acts as the registrar and the custodian of the commercial papers.\r\n *\r\n * A depository is not needed as the commercial paper contract resides on the blockchain amd changes are still made via a book entry\r\n */\r\n\r\n /**\r\n  * 1. Commercial Paper is issued\r\n  * 2. Promoter or Issuer notifies investors\r\n  * 3. A NRSRO assigns a credit rating to the issuer\r\n  * 4. Investors transfer amount to issuer wallet in multiples of the minimaum denomination, which is typically $100,000\r\n  * 5. During repayment, issuer transfers repayment to the IPA, which  then transfer to the investor. Since a immutable log of transaction is maintain,\r\n  *     the IPA can be eliminated, and repayment comes directly from the issuer wallet.\r\n  */\r\n\r\nimport \"../../common/Version.sol\";\r\nimport \"../../common/Frozen.sol\";\r\nimport \"../../interfaces/IERC20TOKEN.sol\";\r\nimport \"../../libs/SafeMath.sol\";\r\n\r\n\r\ncontract CommercialPaper is Version, Frozen, IERC20TOKEN {\r\n    string public constant DESCRIPTION =\r\n        string(\"Private Debt Token (Commercial Paper) for PressPage Entertainment Inc (SEC File #021-332144) under Rule 506b at https://www.sec.gov/Archives/edgar/data/0001766947/000176694719000001/xslFormDX01/primary_doc.xml. FOR ACCREDITED INVESTORS ONLY.\");\r\n    string public constant CUSIP = string(\"TO BE ASSIGNED\");\r\n\r\n    uint256 public constant YEAR = 365 days;\r\n    uint256 public constant MAX_SIZE_OF_OFFERING = 5000000; // under 506(b) the maximum is unlimited\r\n\r\n    uint public constant MAX_NONACCREDITED_INVESTORS = 35;\r\n\r\n    string public name = \"Promissary Note for ABC Corporation\";\r\n    string public symbol = \"ABC.NOTE.S1\"; // maximum 11 character\r\n    uint8  public decimals;\r\n\r\n    uint256 public _totalSupply;\r\n\r\n\r\n    uint256 public denomination = 100000; // 36.75 ETH to buy 1 CP token\r\n\r\n    struct CommercialPaperInfo {\r\n        address promoter;\r\n        address cra;\r\n        uint256 faceValue;\r\n        uint256 valueDate;\r\n        uint256 maturityDate;\r\n        uint256 discountRate;\r\n        bytes32 status;\r\n        bytes32 creditRating;\r\n    }\r\n\r\n    uint256 public exchangeRate = 36750000000; // in GWEI, 1 USD = 370000 GWEI\r\n\r\n    CommercialPaperInfo cp;\r\n\r\n    mapping(address => uint) balances;\r\n    mapping(address => mapping(address => uint)) allowed;\r\n\r\n    mapping(address => uint256) transfer_log;\r\n    mapping(address => bool) whitelisted;\r\n    address[] accredited_investors;\r\n    address[] nonaccredited_investors;\r\n\r\n    event CommercialPaperCreated(address pIssuer, uint256 pFaceValue, uint256 pValueDate, uint256 pMaturityDate, uint256 rate);\r\n    event PromoterAssigned(address promoter);\r\n    event CreditReportingAgencyAssigned(address cra);\r\n    event StatusUpdated(address _contract,bytes32 status);\r\n    event InvestorAdded(address investor);\r\n    event ExchangeRateUpdated(uint256 exchangeRate);\r\n\r\n    constructor() {\r\n        whitelisted[msg.sender] = true;\r\n        mint(SafeMath.safeDiv(MAX_SIZE_OF_OFFERING, denomination) * 10 ** uint256(decimals));\r\n    }\r\n\r\n    modifier isAuthorized() {\r\n        require(whitelisted[msg.sender],\"not authorized\");\r\n        _;\r\n    }\r\n\r\n    function addPromoter(address _promoter)\r\n        public\r\n        okOwner\r\n    {\r\n        require(_promoter != address(0),\"invalid address\");\r\n        cp.promoter = _promoter;\r\n        emit PromoterAssigned(_promoter);\r\n    }\r\n\r\n    function addCreditReportingAgency(address _cra)\r\n        public\r\n        okOwner\r\n    {\r\n        require(_cra != address(0),\"invalid address\");\r\n        cp.cra = _cra;\r\n        emit CreditReportingAgencyAssigned(_cra);\r\n    }\r\n    \r\n    function addInvestor(address investor, bool accredited)\r\n        public\r\n        okOwner\r\n    {\r\n        require(whitelisted[investor] == false,\"investor already exists\");\r\n        whitelisted[investor] = true;\r\n        if (accredited) {\r\n            accredited_investors.push(investor);\r\n        } else {\r\n            require(nonaccredited_investors.length <= MAX_NONACCREDITED_INVESTORS, \"maximum number of non-accredited investors has been reached\");\r\n            nonaccredited_investors.push(investor);\r\n        }\r\n        emit InvestorAdded(investor);\r\n    }\r\n\r\n    function updateExchangeRate(uint256 _swapRate)\r\n        public\r\n        okOwner\r\n    {\r\n        exchangeRate = _swapRate;\r\n        emit ExchangeRateUpdated(exchangeRate);\r\n    }\r\n    \r\n    function commercialPaper(uint256 pFaceValue, uint256 pValueDate, uint256 pMaturityDate, uint256 rate)\r\n        public\r\n        okOwner\r\n    {\r\n        require(pMaturityDate <= 270 days,\"maturity date extends beyond the acceptable time of 270 days or less\");\r\n        cp = CommercialPaperInfo(address(0), address(0), pFaceValue, pValueDate, pMaturityDate, rate, \"created\",\"unrated\");\r\n        emit CommercialPaperCreated(msg.sender, pFaceValue, pValueDate, pMaturityDate, rate);\r\n    }\r\n    \r\n    function getContractAddress()\r\n        public\r\n        view\r\n        returns(address)\r\n    {\r\n        return address(this);\r\n    }\r\n\r\n   \r\n    function updateStatus(bytes32 pStatus)\r\n        public\r\n        okOwner\r\n    {\r\n        cp.status = pStatus;\r\n        emit StatusUpdated(address(this),pStatus);\r\n    }\r\n\r\n    function getContract()\r\n        public\r\n        view\r\n        returns(address,address,address,address,uint256,uint256,uint256,uint256,bytes32,bytes32)\r\n    {\r\n        return (address(this),owner,cp.promoter,cp.cra,cp.faceValue,cp.valueDate,cp.maturityDate,cp.discountRate,cp.status,cp.creditRating);\r\n    }\r\n\r\n    function buy()\r\n        public\r\n        payable\r\n    {\r\n        // Ensure sender wallet is valid, non-zero\r\n        require(msg.sender != address(0), \"zero wallets not accepted\");\r\n        require(whitelisted[msg.sender] == true,\"investor not permitted to buy this security\");\r\n        uint256 tokenAmount = SafeMath.safeDiv(msg.value, SafeMath.safeMul(denomination, exchangeRate));\r\n        require(_totalSupply >= tokenAmount, \"excessive purchase amount request\");\r\n        approve(msg.sender, tokenAmount);\r\n        transferFrom(payable(address(this)), msg.sender, tokenAmount);\r\n    }\r\n\r\n    function sell()\r\n        public\r\n        payable\r\n    {\r\n        // Ensure sender wallet is valid, non-zero\r\n        require(msg.sender != address(0), \"zero wallets not accepted\");\r\n        require(whitelisted[msg.sender] == true,\"investor not permitted to buy this security\");\r\n         // Ensure sender balance has enough tokens\r\n        require(balances[msg.sender] >= msg.value, \"insufficient token balance\");\r\n        uint etherAmount = SafeMath.safeMul(msg.value, exchangeRate);\r\n        require(address(this).balance >= etherAmount, \"insufficient balance to send ether\");\r\n        payable(msg.sender).transfer(etherAmount);\r\n        approve(address(this), etherAmount);\r\n        // otherwise, transfer to contract\r\n        transferFrom(msg.sender, payable(address(this)), etherAmount);\r\n    }\r\n\r\n    /**\r\n     * @dev allowance : Check approved balance\r\n     */\r\n    function allowance(address tokenOwner, address spender)\r\n        public\r\n        virtual\r\n        override\r\n        view\r\n        returns (uint remaining)\r\n    {\r\n        return allowed[tokenOwner][spender];\r\n    }\r\n\r\n    /**\r\n     * @dev approve : Approve token for spender\r\n     */\r\n    function approve(address spender, uint tokens)\r\n        public\r\n        virtual\r\n        override\r\n        isAuthorized\r\n        returns (bool success)\r\n    {\r\n        require(tokens >= 0, \"Invalid value\");\r\n        allowed[msg.sender][spender] = tokens;\r\n        emit Approval(msg.sender, spender, tokens);\r\n        return true;\r\n    }\r\n\r\n    /**\r\n     * @dev transfer : Transfer token to another etherum address\r\n     */\r\n    function transfer(address to, uint tokens)\r\n        public\r\n        virtual\r\n        override\r\n        isAuthorized\r\n        returns (bool success)\r\n    {\r\n        require(to != address(0), \"Null address\");\r\n        require(whitelisted[to],\"recipient is not authorized to receive tokens\");\r\n        require(tokens > 0, \"Invalid Value\");\r\n        if (msg.sender != owner) {\r\n            require (block.timestamp >= (transfer_log[msg.sender] + YEAR),\r\n                \"transfer not permitted under Rule 144, holding period has not elapsed\");\r\n        }\r\n        transfer_log[to] = block.timestamp;\r\n        balances[msg.sender] = SafeMath.safeSub(balances[msg.sender], tokens);\r\n        balances[to] = SafeMath.safeAdd(balances[to], tokens);\r\n        emit Transfer(msg.sender, to, tokens);\r\n        return true;\r\n    }\r\n\r\n    /**\r\n     * @dev transferFrom : Transfer token after approval\r\n     */\r\n    function transferFrom(address from, address to, uint tokens)\r\n        public\r\n        virtual\r\n        override\r\n        isAuthorized\r\n        returns (bool success)\r\n    {\r\n        require(to != address(0), \"Null address\");\r\n        require(from != address(0), \"Null address\");\r\n        require(whitelisted[to],\"recipient is not authorized to receive tokens\");\r\n        require(tokens > 0, \"Invalid value\");\r\n        if (from != owner && to != owner) {\r\n            require (block.timestamp >= (transfer_log[from] + YEAR),\r\n                \"transfer not permitted under Rule 144, holding period has not elapsed\");\r\n        }\r\n        require(tokens <= balances[from], \"Insufficient balance\");\r\n        require(tokens <= allowed[from][msg.sender], \"Insufficient allowance\");\r\n        transfer_log[to] = block.timestamp;\r\n        balances[from] = SafeMath.safeSub(balances[from], tokens);\r\n        allowed[from][msg.sender] = SafeMath.safeSub(allowed[from][msg.sender], tokens);\r\n        balances[to] = SafeMath.safeAdd(balances[to], tokens);\r\n        emit Transfer(from, to, tokens);\r\n        return true;\r\n    }\r\n\r\n    /**\r\n     * @dev totalSupply : Display total supply of token\r\n     */\r\n    function totalSupply()\r\n        public\r\n        virtual\r\n        override\r\n        view\r\n        returns (uint)\r\n    {\r\n        return _totalSupply;\r\n    }\r\n\r\n    /**\r\n     * @dev balanceOf : Displya token balance of given address\r\n     */\r\n    function balanceOf(address tokenOwner)\r\n        public\r\n        virtual\r\n        override\r\n        view\r\n        returns (uint balance)\r\n    {\r\n        return balances[tokenOwner];\r\n    }\r\n\r\n    /**\r\n     * @dev mint : To increase total supply of tokens\r\n     */\r\n    function mint(uint256 _amount)\r\n        public\r\n        okOwner\r\n        returns (bool)\r\n    {\r\n        require(_amount >= 0, \"Invalid amount\");\r\n        _totalSupply = SafeMath.safeAdd(_totalSupply, _amount);\r\n        balances[owner] = SafeMath.safeAdd(balances[owner], _amount);\r\n        emit Transfer(address(0), owner, _amount);\r\n        return true;\r\n    }\r\n\r\n     /**\r\n     * @dev mint : To increase total supply of tokens\r\n     */\r\n    function burn(uint256 _amount)\r\n        public\r\n        okOwner\r\n        returns (bool)\r\n    {\r\n        require(_amount >= 0, \"Invalid amount\");\r\n        require(_amount <= balances[msg.sender], \"Insufficient Balance\");\r\n        _totalSupply = SafeMath.safeSub(_totalSupply, _amount);\r\n        balances[owner] = SafeMath.safeSub(balances[owner], _amount);\r\n        emit Transfer(owner, address(0), _amount);\r\n        return true;\r\n    }\r\n}",
  "sourcePath": "/Volumes/HOME/pingleware-contracts/contracts/finance/debt/CommercialPaper.sol",
  "compiler": {
    "name": "solc",
    "version": "0.8.18+commit.87f61d96.Emscripten.clang"
  },
  "schemaVersion": "3.4.12",
  "updatedAt": "2024-05-23T18:56:25.633Z",
  "devdoc": {
    "kind": "dev",
    "methods": {
      "allowance(address,address)": {
        "details": "allowance : Check approved balance"
      },
      "approve(address,uint256)": {
        "details": "approve : Approve token for spender"
      },
      "balanceOf(address)": {
        "details": "balanceOf : Displya token balance of given address"
      },
      "burn(uint256)": {
        "details": "mint : To increase total supply of tokens"
      },
      "mint(uint256)": {
        "details": "mint : To increase total supply of tokens"
      },
      "renounceOwnership()": {
        "details": "Leaves the contract without owner. It will not be possible to call `onlyOwner` functions anymore. Can only be called by the current owner. NOTE: Renouncing ownership will leave the contract without an owner, thereby removing any functionality that is only available to the owner."
      },
      "totalSupply()": {
        "details": "totalSupply : Display total supply of token"
      },
      "transfer(address,uint256)": {
        "details": "transfer : Transfer token to another etherum address"
      },
      "transferFrom(address,address,uint256)": {
        "details": "transferFrom : Transfer token after approval"
      },
      "transferOwnership(address)": {
        "details": "Transfers ownership of the contract to a new account (`newOwner`). Can only be called by the current owner."
      }
    },
    "version": 1
  },
  "userdoc": {
    "kind": "user",
    "methods": {},
    "version": 1
  }
}