{
  "contractName": "Comment",
  "abi": [
    {
      "anonymous": false,
      "inputs": [
        {
          "indexed": false,
          "internalType": "address",
          "name": "sender",
          "type": "address"
        },
        {
          "indexed": false,
          "internalType": "address",
          "name": "user",
          "type": "address"
        },
        {
          "indexed": false,
          "internalType": "string",
          "name": "comment",
          "type": "string"
        }
      ],
      "name": "CommentAdded",
      "type": "event"
    },
    {
      "anonymous": false,
      "inputs": [
        {
          "indexed": false,
          "internalType": "address",
          "name": "author",
          "type": "address"
        },
        {
          "indexed": false,
          "internalType": "string",
          "name": "message",
          "type": "string"
        },
        {
          "indexed": false,
          "internalType": "uint256",
          "name": "index",
          "type": "uint256"
        }
      ],
      "name": "CommentDeleted",
      "type": "event"
    },
    {
      "inputs": [
        {
          "internalType": "address",
          "name": "poster",
          "type": "address"
        }
      ],
      "name": "getCommentTotal",
      "outputs": [
        {
          "internalType": "uint256",
          "name": "",
          "type": "uint256"
        }
      ],
      "stateMutability": "view",
      "type": "function"
    },
    {
      "inputs": [],
      "name": "getComments",
      "outputs": [
        {
          "components": [
            {
              "internalType": "address",
              "name": "comment_author",
              "type": "address"
            },
            {
              "internalType": "uint256",
              "name": "post_index",
              "type": "uint256"
            },
            {
              "internalType": "string",
              "name": "message",
              "type": "string"
            }
          ],
          "internalType": "struct Comment.CommentItem[]",
          "name": "",
          "type": "tuple[]"
        }
      ],
      "stateMutability": "view",
      "type": "function"
    },
    {
      "inputs": [
        {
          "internalType": "address",
          "name": "poster",
          "type": "address"
        }
      ],
      "name": "getCommentsForPoster",
      "outputs": [
        {
          "components": [
            {
              "internalType": "address",
              "name": "comment_author",
              "type": "address"
            },
            {
              "internalType": "uint256",
              "name": "post_index",
              "type": "uint256"
            },
            {
              "internalType": "string",
              "name": "message",
              "type": "string"
            }
          ],
          "internalType": "struct Comment.CommentItem[]",
          "name": "",
          "type": "tuple[]"
        }
      ],
      "stateMutability": "view",
      "type": "function"
    }
  ],
  "bytecode": "0x6080806040523461001c57610b3590816100228239308160080152f35b600080fdfe604060808152307f000000000000000000000000000000000000000000000000000000000000000014906004918236101561003957600080fd5b60009260e060020a84350491633603235183146106b2578263411dd2831461061c578263672c1b051461054657826391f3410c1461047a578263aae741c4146100cf57505063b84e66211461008d57600080fd5b60203660031901126100cb576020918190600160a060020a036100ae61074f565b168152600080516020610a80833981519152845220549051908152f35b5080fd5b8492506100cb5760603660031901126100cb576100ea61074f565b6001604060020a0393604435858111610476573660238201121561047657808401359386851161046057825193602095601f1993601f916101318987858401160189610865565b8088526024913683838301011161045c57818b92848c9301838c01378901015288600080516020610ae0833981519152805491826103f4575b15610389575b5050918899939188999593875161018681610830565b33815281358b82019081528982018b8152600160a060020a03958616808b52600080516020610a80833981519152909e52988a90208054909590604060020a811015610373576101dd9060019788820181556108c9565b93909361035e57518354600160a060020a03191691161782555184820155965180516002989098019796909490871161034a57505061021c86546108e5565b818111610316575b5088938186116001146102985750505092826060936102879693600080516020610aa08339815191529a9998968c9261028d575b5050816002029160080260020a6000190419161790555b8051958695338752860152840152606083019061076a565b0390a180f35b015190508b80610258565b85949192951692868c52898c20938c5b8181106103015750936060969360029387936102879b98600080516020610aa08339815191529f9e9d9b98106102e6575b505050500201905561026f565b0151908316600802840a60001904191690558c8080806102d9565b82840151865594870194928b01928b016102a8565b61033b90878d528a8d208b8481818b0104830193828b10610341575b01040190610924565b8b610224565b93508293610332565b60e060020a634e487b71028d52604190528bfd5b5060e060020a634e487b71028f528e8752838ffd5b5060e060020a634e487b71028f5260418752838ffd5b604060020a8210156103df57916103af828c9d9795939460018d9e9a9896019055610888565b60088254910260020a90600160a060020a0382810292839188160216911916179055919395998193959b50610170565b60e060020a634e487b71028b5260418652828bfd5b600160a060020a038681168d5b8581106104105750505061016a565b8183600861041d84610888565b9054910260020a90041614610453575b600019811461043e57600101610401565b60e060020a634e487b71028f5260118a52868ffd5b6001935061042d565b8a80fd5b60e060020a634e487b7102865260419052602485fd5b8480fd5b838583816003193601126100cb57338252602091600080516020610a808339815191528352838120928354926001604060020a0384116105305750845193916104c7848302830186610865565b8385529182528082208185015b8484106104ec578651806104e888826107aa565b0390f35b60038360019289516104fd81610830565b855460a060020a869003168152858501548382015261051e6002870161093b565b8b8201528152019201930192906104d4565b60e060020a634e487b7102835260419052602482fd5b83602083873660031901831361061957600160a060020a03928361056861074f565b168252600080516020610a8083398151915281528482208054936001604060020a0385116106035750918551946105a3838087020187610865565b84865282860193825282822091935b8585106105c6578751806104e889826107aa565b6003846001928a516105d781610830565b85875416815284870154838201526105f16002880161093b565b8c8201528152019301940193916105b2565b60e060020a634e487b7102845260419052602483fd5b80fd5b9091506106ae5760203660031901126106ae5735338352600080516020610a80833981519152806020528284208054610653578480f35b600080516020610ac08339815191529361067c6002610675866106a3956108c9565b500161093b565b92338752602052610698610692858389206108c9565b906109e0565b519283923384610a54565b0390a1388080808480f35b8280fd5b9150506100cb57806003193601126100cb576106cc61074f565b9060243591600160a060020a03811691828552600080516020610a808339815191529384602052818620918254610701578680f35b600080516020610ac083398151915295610723600261067585610742976108c9565b95885260205261073861069283838a206108c9565b5193849384610a54565b0390a13880808080808680f35b60043590600160a060020a038216820361076557565b600080fd5b919082519283825260005b848110610796575050826000602080949584010152601f8019910116010190565b602081830181015184830182015201610775565b602080820190808352835180925260409283810182858186028401019601946000925b8584106107de575050505050505090565b90919293949596858061081f600193603f19868203018852868c518660a060020a03815116835284810151858401520151906060908189820152019061076a565b9901940194019295949391906107cd565b606081019081106001604060020a0382111761084b57604052565b60e060020a634e487b710260009081526041600452602490fd5b601f909101601f19168101906001604060020a0382119082101761084b57604052565b600080516020610ae083398151915280548210156108af5760005260206000200190600090565b60e060020a634e487b710260009081526032600452602490fd5b80548210156108af576000526003602060002091020190600090565b906001600283049216801561091a575b602083101461090057565b60e060020a634e487b710260009081526022600452602490fd5b91607f16916108f5565b81811061092f575050565b60008155600101610924565b906040519182600082549261094f846108e5565b9081845260019485811690816000146109be575060011461097b575b505061097992500383610865565b565b9093915060005260209081600020936000915b8183106109a65750506109799350820101388061096b565b8554888401850152948501948794509183019161098e565b91505061097994506020925060ff19168284015215158102820101388061096b565b90610a3a576002600091828155826001820155016109fe81546108e5565b80610a0857505050565b82601f8211600114610a1957505055565b9091808252610a366020601f818520950104840160018501610924565b5555565b60e060020a634e487b710260009081526004819052602490fd5b939291610a7a90604092600160a060020a0316865260606020870152606086019061076a565b93015256fe250d383deeca84838be5209dfa65986f6c4f5325b1e7aa28c276e7428bf8d87cb82fdd4f7f620f390f63d82d9dbd41fe893abb4fdc05d0b97f164463c896b5f56e1f1079d7be4a07fafdac955fb6063031d97bb0ba49c8dbb81c76cc9ebf2060250d383deeca84838be5209dfa65986f6c4f5325b1e7aa28c276e7428bf8d87da264697066735822122059942185fa8912824ba7a81fee156db492341cfdc870e3f94278159b33b82d2864736f6c63430008120033",
  "immutableReferences": {
    "library_deploy_address": [
      {
        "length": 32,
        "start": 8
      }
    ]
  },
  "source": "// SPDX-License-Identifier: CC-BY-4.0\r\npragma solidity >=0.4.22 <0.9.0;\r\n\r\nlibrary Comment {\r\n\r\n    event CommentAdded(address sender,address user,string comment);\r\n    event CommentDeleted(address author,string message,uint index);\r\n\r\n    struct CommentItem {\r\n        address comment_author;\r\n        uint256 post_index;\r\n        string  message;\r\n    }\r\n\r\n    struct CommentStorage {\r\n        mapping (address => CommentItem[]) comments;\r\n        address[] comment_keys;\r\n    }\r\n\r\n    function commentStorage() internal pure returns (CommentStorage storage ds)\r\n    {\r\n        bytes32 position = keccak256(\"comment.storage\");\r\n        assembly { ds.slot := position }\r\n    }\r\n\r\n\r\n    function addComment(address poster, uint index, string memory message)\r\n        external\r\n    {\r\n        bool found = false;\r\n        if (commentStorage().comment_keys.length > 0) {\r\n            for (uint i = 0; i < commentStorage().comment_keys.length; i++) {\r\n                if (commentStorage().comment_keys[i] == poster) {\r\n                found = true;\r\n                }\r\n            }\r\n        }\r\n        if (!found) {\r\n            commentStorage().comment_keys.push(poster);\r\n        }\r\n        address comment_author = msg.sender;\r\n        CommentItem memory comment = CommentItem(comment_author, index, message);\r\n        commentStorage().comments[poster].push(comment);\r\n        emit CommentAdded(comment_author,poster,message);\r\n    }\r\n\r\n    function getCommentTotal(address poster)\r\n        external\r\n        view\r\n        returns (uint256)\r\n    {\r\n        return commentStorage().comments[poster].length;\r\n    }\r\n\r\n    function getComments()\r\n        external\r\n        view\r\n        returns (CommentItem[] memory)\r\n    {\r\n        return commentStorage().comments[msg.sender];\r\n    }\r\n\r\n    function getCommentsForPoster(address poster)\r\n        external\r\n        view\r\n        returns (CommentItem[] memory)\r\n    {\r\n        return commentStorage().comments[poster];\r\n    }\r\n\r\n    function deleteComment(address author, uint index)\r\n        external\r\n    {\r\n        if (commentStorage().comments[author].length > 0) {\r\n            string memory message = commentStorage().comments[author][index].message;\r\n            delete commentStorage().comments[author][index];\r\n            emit CommentDeleted(author,message,index);\r\n        }\r\n    }\r\n\r\n    function deleteCommentByUser(uint index)\r\n        external\r\n    {\r\n        if (commentStorage().comments[msg.sender].length > 0) {\r\n            string memory message = commentStorage().comments[msg.sender][index].message;\r\n            delete commentStorage().comments[msg.sender][index];\r\n            emit CommentDeleted(msg.sender,message,index);\r\n        }\r\n    }\r\n}",
  "sourcePath": "/Volumes/HOME/pingleware-contracts/contracts/social/Comment.sol",
  "compiler": {
    "name": "solc",
    "version": "0.8.18+commit.87f61d96.Emscripten.clang"
  },
  "schemaVersion": "3.4.12",
  "updatedAt": "2024-05-23T18:56:27.247Z",
  "devdoc": {
    "kind": "dev",
    "methods": {},
    "version": 1
  },
  "userdoc": {
    "kind": "user",
    "methods": {},
    "version": 1
  }
}