{
  "contractName": "Comment",
  "abi": [
    {
      "inputs": [
        {
          "internalType": "address",
          "name": "poster",
          "type": "address"
        }
      ],
      "name": "getCommentTotal",
      "outputs": [
        {
          "internalType": "uint256",
          "name": "",
          "type": "uint256"
        }
      ],
      "stateMutability": "view",
      "type": "function"
    },
    {
      "inputs": [],
      "name": "getComments",
      "outputs": [
        {
          "components": [
            {
              "internalType": "address",
              "name": "comment_author",
              "type": "address"
            },
            {
              "internalType": "uint256",
              "name": "post_index",
              "type": "uint256"
            },
            {
              "internalType": "string",
              "name": "message",
              "type": "string"
            }
          ],
          "internalType": "struct Comment.CommentItem[]",
          "name": "",
          "type": "tuple[]"
        }
      ],
      "stateMutability": "view",
      "type": "function"
    },
    {
      "inputs": [
        {
          "internalType": "address",
          "name": "poster",
          "type": "address"
        }
      ],
      "name": "getCommentsForPoster",
      "outputs": [
        {
          "components": [
            {
              "internalType": "address",
              "name": "comment_author",
              "type": "address"
            },
            {
              "internalType": "uint256",
              "name": "post_index",
              "type": "uint256"
            },
            {
              "internalType": "string",
              "name": "message",
              "type": "string"
            }
          ],
          "internalType": "struct Comment.CommentItem[]",
          "name": "",
          "type": "tuple[]"
        }
      ],
      "stateMutability": "view",
      "type": "function"
    }
  ],
  "bytecode": "0x61089e610053600b82828239805160001a607314610046577f4e487b7100000000000000000000000000000000000000000000000000000000600052600060045260246000fd5b30600052607381538281f3fe7300000000000000000000000000000000000000003014608060405260043610610072577c01000000000000000000000000000000000000000000000000000000006000350463672c1b05811461007757806391f3410c146100a0578063aae741c4146100a8578063b84e6621146100ca575b600080fd5b61008a6100853660046105fd565b61010e565b604051610097919061061f565b60405180910390f35b61008a610240565b8180156100b457600080fd5b506100c86100c33660046106fa565b610367565b005b6101006100d83660046105fd565b600160a060020a03166000908152600080516020610849833981519152602052604090205490565b604051908152602001610097565b6060600080516020610849833981519152600160a060020a0383166000908152602091825260408082208054825181860281018601909352808352919390929084015b8282101561023557600084815260209081902060408051606081018252600386029092018054600160a060020a03168352600181015493830193909352600283018054929392918401916101a4906107c5565b80601f01602080910402602001604051908101604052809291908181526020018280546101d0906107c5565b801561021d5780601f106101f25761010080835404028352916020019161021d565b820191906000526020600020905b81548152906001019060200180831161020057829003601f168201915b50505050508152505081526020019060010190610151565b505050509050919050565b6060600080516020610849833981519152336000908152602091825260408082208054825181860281018601909352808352919390929084015b8282101561035e57600084815260209081902060408051606081018252600386029092018054600160a060020a03168352600181015493830193909352600283018054929392918401916102cd906107c5565b80601f01602080910402602001604051908101604052809291908181526020018280546102f9906107c5565b80156103465780601f1061031b57610100808354040283529160200191610346565b820191906000526020600020905b81548152906001019060200180831161032957829003601f168201915b5050505050815250508152602001906001019061027a565b50505050905090565b7f657628a550cd57488caa1cca477b7b4fbd68fa8798d79248ac0dc2d0089d2c2f546000901561041e5760005b7f657628a550cd57488caa1cca477b7b4fbd68fa8798d79248ac0dc2d0089d2c2f5481101561041c57600160a060020a03851660008051602061084983398151915260010182815481106103ea576103ea610803565b600091825260209091200154600160a060020a0316141561040a57600191505b806104148161081c565b915050610394565b505b8061049b577f657628a550cd57488caa1cca477b7b4fbd68fa8798d79248ac0dc2d0089d2c2f80546001810182556000919091527f33eb6199c87604f0bf7856e6f29518371a9d771168c80f2b2063e664f9d6f59a01805473ffffffffffffffffffffffffffffffffffffffff1916600160a060020a0386161790555b604080516060810182523380825260208201869052918101849052600080516020610849833981519152600160a060020a03878116600090815260209283526040808220805460018082018355918452928590208651600390940201805473ffffffffffffffffffffffffffffffffffffffff19169390941692909217835584840151918301919091558301518051849361053d926002850192910190610548565b505050505050505050565b828054610554906107c5565b90600052602060002090601f01602090048101928261057657600085556105bc565b82601f1061058f57805160ff19168380011785556105bc565b828001600101855582156105bc579182015b828111156105bc5782518255916020019190600101906105a1565b506105c89291506105cc565b5090565b5b808211156105c857600081556001016105cd565b8035600160a060020a03811681146105f857600080fd5b919050565b60006020828403121561060f57600080fd5b610618826105e1565b9392505050565b6020808252825182820181905260009190604090818501908084028601830187850186805b848110156106d257898403603f1901865282518051600160a060020a0316855288810151898601528701516060888601819052815190860181905283905b808210156106a0578282018b015187830160800152908a0190610682565b808211156106b15784608082890101525b978a0197601f01601f19169590950160800194505091870191600101610644565b50919998505050505050505050565b60e060020a634e487b7102600052604160045260246000fd5b60008060006060848603121561070f57600080fd5b610718846105e1565b925060208401359150604084013567ffffffffffffffff8082111561073c57600080fd5b818601915086601f83011261075057600080fd5b813581811115610762576107626106e1565b604051601f8201601f19908116603f0116810190838211818310171561078a5761078a6106e1565b816040528281528960208487010111156107a357600080fd5b8260208601602083013760006020848301015280955050505050509250925092565b6002810460018216806107d957607f821691505b602082108114156107fd5760e060020a634e487b7102600052602260045260246000fd5b50919050565b60e060020a634e487b7102600052603260045260246000fd5b60006000198214156108415760e060020a634e487b7102600052601160045260246000fd5b506001019056fe657628a550cd57488caa1cca477b7b4fbd68fa8798d79248ac0dc2d0089d2c2ea264697066735822122083e82edaeb2879fe5bfdb15cdcffcb099f8a31dbe070dd3a508b8945337ef59864736f6c634300080a0033",
  "immutableReferences": {},
  "source": "// SPDX-License-Identifier: CC-BY-4.0\r\npragma solidity >=0.4.22 <0.9.0;\r\n\r\nlibrary Comment {\r\n\r\n    struct CommentItem {\r\n        address comment_author;\r\n        uint256 post_index;\r\n        string  message;\r\n    }\r\n\r\n    struct CommentStorage {\r\n        mapping (address => CommentItem[]) comments;\r\n        address[] comment_keys;\r\n    }\r\n\r\n    function commentStorage() internal pure returns (CommentStorage storage ds)\r\n    {\r\n        bytes32 position = keccak256(\"advertiser.storage\");\r\n        assembly { ds.slot := position }\r\n    }\r\n\r\n\r\n    function addComment(address poster, uint index, string memory message)\r\n        external\r\n    {\r\n        bool found = false;\r\n        if (commentStorage().comment_keys.length > 0) {\r\n            for (uint i = 0; i < commentStorage().comment_keys.length; i++) {\r\n                if (commentStorage().comment_keys[i] == poster) {\r\n                found = true;\r\n                }\r\n            }\r\n        }\r\n        if (!found) {\r\n            commentStorage().comment_keys.push(poster);\r\n        }\r\n        address comment_author = msg.sender;\r\n        CommentItem memory comment = CommentItem(comment_author, index, message);\r\n        commentStorage().comments[poster].push(comment);\r\n    }\r\n\r\n    function getCommentTotal(address poster)\r\n        external\r\n        view\r\n        returns (uint256)\r\n    {\r\n        return commentStorage().comments[poster].length;\r\n    }\r\n\r\n    function getComments()\r\n        external\r\n        view\r\n        returns (CommentItem[] memory)\r\n    {\r\n        return commentStorage().comments[msg.sender];\r\n    }\r\n\r\n    function getCommentsForPoster(address poster)\r\n        external\r\n        view\r\n        returns (CommentItem[] memory)\r\n    {\r\n        return commentStorage().comments[poster];\r\n    }\r\n\r\n\r\n}",
  "sourcePath": "G:\\projects\\pingleware-contracts\\contracts\\social\\Comment.sol",
  "compiler": {
    "name": "solc",
    "version": "0.8.10+commit.fc410830.Emscripten.clang"
  },
  "schemaVersion": "3.4.3",
  "updatedAt": "2021-12-25T15:51:04.399Z",
  "devdoc": {
    "kind": "dev",
    "methods": {},
    "version": 1
  },
  "userdoc": {
    "kind": "user",
    "methods": {},
    "version": 1
  }
}