{
  "contractName": "CommercialPaper",
  "abi": [
    {
      "inputs": [],
      "stateMutability": "nonpayable",
      "type": "constructor"
    },
    {
      "anonymous": false,
      "inputs": [
        {
          "indexed": true,
          "internalType": "address",
          "name": "tokenOwner",
          "type": "address"
        },
        {
          "indexed": true,
          "internalType": "address",
          "name": "spender",
          "type": "address"
        },
        {
          "indexed": false,
          "internalType": "uint256",
          "name": "tokens",
          "type": "uint256"
        }
      ],
      "name": "Approval",
      "type": "event"
    },
    {
      "anonymous": false,
      "inputs": [
        {
          "indexed": false,
          "internalType": "address",
          "name": "pIssuer",
          "type": "address"
        },
        {
          "indexed": false,
          "internalType": "uint256",
          "name": "pFaceValue",
          "type": "uint256"
        },
        {
          "indexed": false,
          "internalType": "uint256",
          "name": "pValueDate",
          "type": "uint256"
        },
        {
          "indexed": false,
          "internalType": "uint256",
          "name": "pMaturityDate",
          "type": "uint256"
        },
        {
          "indexed": false,
          "internalType": "uint256",
          "name": "rate",
          "type": "uint256"
        }
      ],
      "name": "CommercialPaperCreated",
      "type": "event"
    },
    {
      "anonymous": false,
      "inputs": [
        {
          "indexed": false,
          "internalType": "address",
          "name": "cra",
          "type": "address"
        }
      ],
      "name": "CreditReportingAgencyAssigned",
      "type": "event"
    },
    {
      "anonymous": false,
      "inputs": [
        {
          "indexed": false,
          "internalType": "address",
          "name": "sender",
          "type": "address"
        },
        {
          "indexed": false,
          "internalType": "address",
          "name": "recipient",
          "type": "address"
        }
      ],
      "name": "Destroyed",
      "type": "event"
    },
    {
      "anonymous": false,
      "inputs": [
        {
          "indexed": false,
          "internalType": "uint256",
          "name": "exchangeRate",
          "type": "uint256"
        }
      ],
      "name": "ExchangeRateUpdated",
      "type": "event"
    },
    {
      "anonymous": false,
      "inputs": [
        {
          "indexed": false,
          "internalType": "address",
          "name": "sender",
          "type": "address"
        },
        {
          "indexed": false,
          "internalType": "uint256",
          "name": "amount",
          "type": "uint256"
        }
      ],
      "name": "FallbackEvent",
      "type": "event"
    },
    {
      "anonymous": false,
      "inputs": [
        {
          "indexed": false,
          "internalType": "address",
          "name": "investor",
          "type": "address"
        }
      ],
      "name": "InvestorAdded",
      "type": "event"
    },
    {
      "anonymous": false,
      "inputs": [
        {
          "indexed": true,
          "internalType": "address",
          "name": "previousOwner",
          "type": "address"
        },
        {
          "indexed": true,
          "internalType": "address",
          "name": "newOwner",
          "type": "address"
        }
      ],
      "name": "OwnershipTransferred",
      "type": "event"
    },
    {
      "anonymous": false,
      "inputs": [
        {
          "indexed": false,
          "internalType": "address",
          "name": "promoter",
          "type": "address"
        }
      ],
      "name": "PromoterAssigned",
      "type": "event"
    },
    {
      "anonymous": false,
      "inputs": [
        {
          "indexed": false,
          "internalType": "address",
          "name": "sender",
          "type": "address"
        },
        {
          "indexed": false,
          "internalType": "uint256",
          "name": "amount",
          "type": "uint256"
        }
      ],
      "name": "ReceiveEvent",
      "type": "event"
    },
    {
      "anonymous": false,
      "inputs": [
        {
          "indexed": false,
          "internalType": "address",
          "name": "sender",
          "type": "address"
        },
        {
          "indexed": false,
          "internalType": "bytes",
          "name": "reason",
          "type": "bytes"
        }
      ],
      "name": "Started",
      "type": "event"
    },
    {
      "anonymous": false,
      "inputs": [
        {
          "indexed": false,
          "internalType": "address",
          "name": "_contract",
          "type": "address"
        },
        {
          "indexed": false,
          "internalType": "bytes32",
          "name": "status",
          "type": "bytes32"
        }
      ],
      "name": "StatusUpdated",
      "type": "event"
    },
    {
      "anonymous": false,
      "inputs": [
        {
          "indexed": false,
          "internalType": "address",
          "name": "sender",
          "type": "address"
        },
        {
          "indexed": false,
          "internalType": "bytes",
          "name": "reason",
          "type": "bytes"
        }
      ],
      "name": "Stopped",
      "type": "event"
    },
    {
      "anonymous": false,
      "inputs": [
        {
          "indexed": false,
          "internalType": "address",
          "name": "sender",
          "type": "address"
        },
        {
          "indexed": false,
          "internalType": "string",
          "name": "reason",
          "type": "string"
        }
      ],
      "name": "Termination",
      "type": "event"
    },
    {
      "anonymous": false,
      "inputs": [
        {
          "indexed": true,
          "internalType": "address",
          "name": "from",
          "type": "address"
        },
        {
          "indexed": true,
          "internalType": "address",
          "name": "to",
          "type": "address"
        },
        {
          "indexed": false,
          "internalType": "uint256",
          "name": "tokens",
          "type": "uint256"
        }
      ],
      "name": "Transfer",
      "type": "event"
    },
    {
      "stateMutability": "payable",
      "type": "fallback"
    },
    {
      "inputs": [],
      "name": "CUSIP",
      "outputs": [
        {
          "internalType": "string",
          "name": "",
          "type": "string"
        }
      ],
      "stateMutability": "view",
      "type": "function"
    },
    {
      "inputs": [],
      "name": "DESCRIPTION",
      "outputs": [
        {
          "internalType": "string",
          "name": "",
          "type": "string"
        }
      ],
      "stateMutability": "view",
      "type": "function"
    },
    {
      "inputs": [],
      "name": "MAX_NONACCREDITED_INVESTORS",
      "outputs": [
        {
          "internalType": "uint256",
          "name": "",
          "type": "uint256"
        }
      ],
      "stateMutability": "view",
      "type": "function"
    },
    {
      "inputs": [],
      "name": "MAX_SIZE_OF_OFFERING",
      "outputs": [
        {
          "internalType": "uint256",
          "name": "",
          "type": "uint256"
        }
      ],
      "stateMutability": "view",
      "type": "function"
    },
    {
      "inputs": [],
      "name": "VERSION",
      "outputs": [
        {
          "internalType": "string",
          "name": "",
          "type": "string"
        }
      ],
      "stateMutability": "view",
      "type": "function"
    },
    {
      "inputs": [],
      "name": "WAIT",
      "outputs": [
        {
          "internalType": "uint256",
          "name": "",
          "type": "uint256"
        }
      ],
      "stateMutability": "view",
      "type": "function"
    },
    {
      "inputs": [],
      "name": "YEAR",
      "outputs": [
        {
          "internalType": "uint256",
          "name": "",
          "type": "uint256"
        }
      ],
      "stateMutability": "view",
      "type": "function"
    },
    {
      "inputs": [],
      "name": "_totalSupply",
      "outputs": [
        {
          "internalType": "uint256",
          "name": "",
          "type": "uint256"
        }
      ],
      "stateMutability": "view",
      "type": "function"
    },
    {
      "inputs": [],
      "name": "decimals",
      "outputs": [
        {
          "internalType": "uint8",
          "name": "",
          "type": "uint8"
        }
      ],
      "stateMutability": "view",
      "type": "function"
    },
    {
      "inputs": [],
      "name": "denomination",
      "outputs": [
        {
          "internalType": "uint256",
          "name": "",
          "type": "uint256"
        }
      ],
      "stateMutability": "view",
      "type": "function"
    },
    {
      "inputs": [],
      "name": "destroy",
      "outputs": [],
      "stateMutability": "nonpayable",
      "type": "function"
    },
    {
      "inputs": [
        {
          "internalType": "address",
          "name": "_recipient",
          "type": "address"
        }
      ],
      "name": "destroyAndSend",
      "outputs": [],
      "stateMutability": "nonpayable",
      "type": "function"
    },
    {
      "inputs": [],
      "name": "exchangeRate",
      "outputs": [
        {
          "internalType": "uint256",
          "name": "",
          "type": "uint256"
        }
      ],
      "stateMutability": "view",
      "type": "function"
    },
    {
      "inputs": [],
      "name": "getOwner",
      "outputs": [
        {
          "internalType": "address",
          "name": "",
          "type": "address"
        }
      ],
      "stateMutability": "payable",
      "type": "function"
    },
    {
      "inputs": [],
      "name": "name",
      "outputs": [
        {
          "internalType": "string",
          "name": "",
          "type": "string"
        }
      ],
      "stateMutability": "view",
      "type": "function"
    },
    {
      "inputs": [],
      "name": "owner",
      "outputs": [
        {
          "internalType": "address",
          "name": "",
          "type": "address"
        }
      ],
      "stateMutability": "view",
      "type": "function"
    },
    {
      "inputs": [],
      "name": "renounceOwnership",
      "outputs": [],
      "stateMutability": "payable",
      "type": "function"
    },
    {
      "inputs": [],
      "name": "symbol",
      "outputs": [
        {
          "internalType": "string",
          "name": "",
          "type": "string"
        }
      ],
      "stateMutability": "view",
      "type": "function"
    },
    {
      "inputs": [
        {
          "internalType": "address",
          "name": "newOwner",
          "type": "address"
        }
      ],
      "name": "transferOwnership",
      "outputs": [],
      "stateMutability": "payable",
      "type": "function"
    },
    {
      "stateMutability": "payable",
      "type": "receive"
    },
    {
      "inputs": [
        {
          "internalType": "address",
          "name": "_promoter",
          "type": "address"
        }
      ],
      "name": "addPromoter",
      "outputs": [],
      "stateMutability": "nonpayable",
      "type": "function"
    },
    {
      "inputs": [
        {
          "internalType": "address",
          "name": "_cra",
          "type": "address"
        }
      ],
      "name": "addCreditReportingAgency",
      "outputs": [],
      "stateMutability": "nonpayable",
      "type": "function"
    },
    {
      "inputs": [
        {
          "internalType": "address",
          "name": "investor",
          "type": "address"
        },
        {
          "internalType": "bool",
          "name": "accredited",
          "type": "bool"
        }
      ],
      "name": "addInvestor",
      "outputs": [],
      "stateMutability": "nonpayable",
      "type": "function"
    },
    {
      "inputs": [
        {
          "internalType": "uint256",
          "name": "_swapRate",
          "type": "uint256"
        }
      ],
      "name": "updateExchangeRate",
      "outputs": [],
      "stateMutability": "nonpayable",
      "type": "function"
    },
    {
      "inputs": [
        {
          "internalType": "uint256",
          "name": "pFaceValue",
          "type": "uint256"
        },
        {
          "internalType": "uint256",
          "name": "pValueDate",
          "type": "uint256"
        },
        {
          "internalType": "uint256",
          "name": "pMaturityDate",
          "type": "uint256"
        },
        {
          "internalType": "uint256",
          "name": "rate",
          "type": "uint256"
        }
      ],
      "name": "commercialPaper",
      "outputs": [],
      "stateMutability": "nonpayable",
      "type": "function"
    },
    {
      "inputs": [],
      "name": "getContractAddress",
      "outputs": [
        {
          "internalType": "address",
          "name": "",
          "type": "address"
        }
      ],
      "stateMutability": "view",
      "type": "function"
    },
    {
      "inputs": [
        {
          "internalType": "bytes32",
          "name": "pStatus",
          "type": "bytes32"
        }
      ],
      "name": "updateStatus",
      "outputs": [],
      "stateMutability": "nonpayable",
      "type": "function"
    },
    {
      "inputs": [],
      "name": "getContract",
      "outputs": [
        {
          "internalType": "address",
          "name": "",
          "type": "address"
        },
        {
          "internalType": "address",
          "name": "",
          "type": "address"
        },
        {
          "internalType": "address",
          "name": "",
          "type": "address"
        },
        {
          "internalType": "address",
          "name": "",
          "type": "address"
        },
        {
          "internalType": "uint256",
          "name": "",
          "type": "uint256"
        },
        {
          "internalType": "uint256",
          "name": "",
          "type": "uint256"
        },
        {
          "internalType": "uint256",
          "name": "",
          "type": "uint256"
        },
        {
          "internalType": "uint256",
          "name": "",
          "type": "uint256"
        },
        {
          "internalType": "bytes32",
          "name": "",
          "type": "bytes32"
        },
        {
          "internalType": "bytes32",
          "name": "",
          "type": "bytes32"
        }
      ],
      "stateMutability": "view",
      "type": "function"
    },
    {
      "inputs": [],
      "name": "buy",
      "outputs": [],
      "stateMutability": "payable",
      "type": "function"
    },
    {
      "inputs": [],
      "name": "sell",
      "outputs": [],
      "stateMutability": "payable",
      "type": "function"
    },
    {
      "inputs": [
        {
          "internalType": "address",
          "name": "tokenOwner",
          "type": "address"
        },
        {
          "internalType": "address",
          "name": "spender",
          "type": "address"
        }
      ],
      "name": "allowance",
      "outputs": [
        {
          "internalType": "uint256",
          "name": "remaining",
          "type": "uint256"
        }
      ],
      "stateMutability": "view",
      "type": "function"
    },
    {
      "inputs": [
        {
          "internalType": "address",
          "name": "spender",
          "type": "address"
        },
        {
          "internalType": "uint256",
          "name": "tokens",
          "type": "uint256"
        }
      ],
      "name": "approve",
      "outputs": [
        {
          "internalType": "bool",
          "name": "success",
          "type": "bool"
        }
      ],
      "stateMutability": "nonpayable",
      "type": "function"
    },
    {
      "inputs": [
        {
          "internalType": "address",
          "name": "to",
          "type": "address"
        },
        {
          "internalType": "uint256",
          "name": "tokens",
          "type": "uint256"
        }
      ],
      "name": "transfer",
      "outputs": [
        {
          "internalType": "bool",
          "name": "success",
          "type": "bool"
        }
      ],
      "stateMutability": "nonpayable",
      "type": "function"
    },
    {
      "inputs": [
        {
          "internalType": "address",
          "name": "from",
          "type": "address"
        },
        {
          "internalType": "address",
          "name": "to",
          "type": "address"
        },
        {
          "internalType": "uint256",
          "name": "tokens",
          "type": "uint256"
        }
      ],
      "name": "transferFrom",
      "outputs": [
        {
          "internalType": "bool",
          "name": "success",
          "type": "bool"
        }
      ],
      "stateMutability": "nonpayable",
      "type": "function"
    },
    {
      "inputs": [],
      "name": "totalSupply",
      "outputs": [
        {
          "internalType": "uint256",
          "name": "",
          "type": "uint256"
        }
      ],
      "stateMutability": "view",
      "type": "function"
    },
    {
      "inputs": [
        {
          "internalType": "address",
          "name": "tokenOwner",
          "type": "address"
        }
      ],
      "name": "balanceOf",
      "outputs": [
        {
          "internalType": "uint256",
          "name": "balance",
          "type": "uint256"
        }
      ],
      "stateMutability": "view",
      "type": "function"
    },
    {
      "inputs": [
        {
          "internalType": "uint256",
          "name": "_amount",
          "type": "uint256"
        }
      ],
      "name": "mint",
      "outputs": [
        {
          "internalType": "bool",
          "name": "",
          "type": "bool"
        }
      ],
      "stateMutability": "nonpayable",
      "type": "function"
    },
    {
      "inputs": [
        {
          "internalType": "uint256",
          "name": "_amount",
          "type": "uint256"
        }
      ],
      "name": "burn",
      "outputs": [
        {
          "internalType": "bool",
          "name": "",
          "type": "bool"
        }
      ],
      "stateMutability": "nonpayable",
      "type": "function"
    }
  ],
  "bytecode": "0x60006001556003805460ff1916905560e06040526023608081815290620028f060a0396004906200003190826200046a565b5060408051808201909152600b81527f4142432e4e4f54452e533100000000000000000000000000000000000000000060208201526005906200007590826200046a565b50620186a060085564088e787f806009553480156200009357600080fd5b5060008054600160a060020a031916339081178255426001556040519091907f8be0079c531659141344cd1fd0a4f28419497f9722a3daafe3b4186f6b6457e0908290a3336000908152601560205260409020805460ff191660011790556006546200014990620001099060ff16600a6200066c565b6200012e624c4b40600854620001506401000000000262001a4e176401000000009004565b6200013a91906200067a565b640100000000620001da810204565b5062000694565b6000808211620001c1576040517f08c379a000000000000000000000000000000000000000000000000000000000815260206004820152601a60248201527f536166654d6174683a206469766973696f6e206279207a65726f00000000000060448201526064015b60405180910390fd5b600082620001ce57600080fd5b50508082045b92915050565b60008054600160a060020a0316331462000251576040517f08c379a000000000000000000000000000000000000000000000000000000000815260206004820152601b60248201527f756e617574686f72697a65642c206e6f7420746865206f776e657200000000006044820152606401620001b8565b62000273600754836200031b6401000000000262001ab5176401000000009004565b6007556003546101009004600160a060020a0316600090815260126020526040902054620002b090836401000000006200031b810262001ab51704565b60038054600160a060020a0361010091829004811660009081526012602090815260408083209690965593549451878152929094041692917fddf252ad1be2c89b69c2b068fc378daa952ba7f163c4a11628f55a4df523b3ef910160405180910390a3506001919050565b6000828201838110156200038c576040517f08c379a000000000000000000000000000000000000000000000000000000000815260206004820152601b60248201527f536166654d6174683a206164646974696f6e206f766572666c6f7700000000006044820152606401620001b8565b9392505050565b7f4e487b7100000000000000000000000000000000000000000000000000000000600052604160045260246000fd5b600281046001821680620003d757607f821691505b60208210810362000411577f4e487b7100000000000000000000000000000000000000000000000000000000600052602260045260246000fd5b50919050565b601f82111562000465576000818152602081206020601f86010481016020861015620004405750805b6020601f860104820191505b8181101562000461578281556001016200044c565b5050505b505050565b815167ffffffffffffffff81111562000487576200048762000393565b6200049f81620004988454620003c2565b8462000417565b602080601f831160018114620004db5760008415620004be5750858301515b60028086026008870290910a600019041982161786555062000461565b600085815260208120601f198616915b828110156200050c57888601518255948401946001909101908401620004eb565b50858210156200052d57878501516008601f88160260020a60001904191681555b5050505050600202600101905550565b7f4e487b7100000000000000000000000000000000000000000000000000000000600052601160045260246000fd5b600181815b80851115620005af5781600019048211156200059157620005916200053d565b808516156200059f57918102915b6002909404939080029062000571565b509250929050565b600082620005c857506001620001d4565b81620005d757506000620001d4565b8160018114620005f05760028114620005fb576200061c565b6001915050620001d4565b60ff8411156200060f576200060f6200053d565b8360020a915050620001d4565b5060208310610133831016604e8410600b841016171562000641575081810a620001d4565b6200064d83836200056c565b80600019048211156200066457620006646200053d565b029392505050565b60006200038c8383620005b7565b8082028115828204841417620001d457620001d46200053d565b61224c80620006a46000396000f3fe6080604052600436106101b15760e060020a600035046306fdde038114610278578063095ea7b3146102a357806312a4c964146102d357806318160ddd146102f657806323b872dd1461030b578063313ce5671461032b57806332a2c5d0146103575780633ba0b9a9146103735780633eaaf86b1461038957806342966c681461039f57806345710074146103bf57806354a0c458146103c957806370a01b3d146103e957806370a0823114610409578063715018a61461043f57806374d791a4146104475780637516197b1461046757806383197ef01461047e5780638391454014610493578063893d20e8146104ab5780638a59eb56146104b35780638bca6d16146104d35780638da5cb5b146104e9578063958f85bd1461050e57806395d89b41146105b4578063a0712d68146105c9578063a6f2ae3a146105e9578063a9059cbb146105f1578063ada732b514610611578063b8fb3a5114610631578063b9e205ae14610646578063dd62ed3e14610666578063ea303f6b146106ac578063f1ae8856146106e9578063f2fde38b146106fe578063f5074f4114610711578063ffa1ad7414610731576101f1565b366101f1577fcc85d09d309785db93d6df19917f2e6cc07fe27cd01c08c8279145deb5cf452633346040516101e7929190611bfb565b60405180910390a1005b3233146102475760405160e560020a62461bcd0281526020600482015260196024820152603860020a787068697368696e672061747461636b2064657465637465643f0260448201526064015b60405180910390fd5b7f26875833861a2b006512a11f1b86edf95df96131040f3caeed72989ee985808333346040516101e7929190611bfb565b34801561028457600080fd5b5061028d61076a565b60405161029a9190611c14565b60405180910390f35b3480156102af57600080fd5b506102c36102be366004611c79565b6107f8565b604051901515815260200161029a565b3480156102df57600080fd5b506102e8602381565b60405190815260200161029a565b34801561030257600080fd5b506007546102e8565b34801561031757600080fd5b506102c3610326366004611ca3565b610890565b34801561033757600080fd5b506006546103459060ff1681565b60405160ff909116815260200161029a565b34801561036357600080fd5b50305b60405161029a9190611cdf565b34801561037f57600080fd5b506102e860095481565b34801561039557600080fd5b506102e860075481565b3480156103ab57600080fd5b506102c36103ba366004611cf3565b610bee565b6103c7610d13565b005b3480156103d557600080fd5b506103c76103e4366004611d0c565b610e86565b3480156103f557600080fd5b506103c7610404366004611d27565b610f32565b34801561041557600080fd5b506102e8610424366004611d0c565b600160a060020a031660009081526012602052604090205490565b6103c7611144565b34801561045357600080fd5b506103c7610462366004611d63565b6111a9565b34801561047357600080fd5b506102e8624c4b4081565b34801561048a57600080fd5b506103c761134c565b34801561049f57600080fd5b506102e86301e1338081565b6103666113a9565b3480156104bf57600080fd5b506103c76104ce366004611cf3565b61141f565b3480156104df57600080fd5b506102e860085481565b3480156104f557600080fd5b50600354610366906101009004600160a060020a031681565b34801561051a57600080fd5b50610556600354600a54600b54600c54600d54600e54600f546010546011543098600160a060020a036101009091048116988116971696979899565b60408051600160a060020a039b8c168152998b1660208b0152978a1697890197909752979094166060870152608086019290925260a085015260c084015260e08301526101008201929092526101208101919091526101400161029a565b3480156105c057600080fd5b5061028d611483565b3480156105d557600080fd5b506102c36105e4366004611cf3565b611490565b6103c7611545565b3480156105fd57600080fd5b506102c361060c366004611c79565b61162f565b34801561061d57600080fd5b506103c761062c366004611d0c565b611801565b34801561063d57600080fd5b506102e8601e81565b34801561065257600080fd5b506103c7610661366004611cf3565b6118a2565b34801561067257600080fd5b506102e8610681366004611d95565b600160a060020a03918216600090815260136020908152604080832093909416825291909152205490565b3480156106b857600080fd5b5061028d6040518060400160405280600e8152602001609260020a6d1513c81091481054d4d251d391510281525081565b3480156106f557600080fd5b5061028d611904565b6103c761070c366004611d0c565b611921565b34801561071d57600080fd5b506103c761072c366004611d0c565b611a02565b34801561073d57600080fd5b5061028d6040518060400160405280600a815260200160b060020a69312e362e342d626574610281525081565b6004805461077790611dc8565b80601f01602080910402602001604051908101604052809291908181526020018280546107a390611dc8565b80156107f05780601f106107c5576101008083540402835291602001916107f0565b820191906000526020600020905b8154815290600101906020018083116107d357829003601f168201915b505050505081565b3360009081526015602052604081205460ff1661082a5760405160e560020a62461bcd02815260040161023e90611e06565b336000818152601360209081526040808320600160a060020a03881680855290835292819020869055518581529192917f8c5be1e5ebec7d5bd14f71427d1e84f3dd0314c0f7b2291e5b200ac8c7c3b92591015b60405180910390a35060015b92915050565b3360009081526015602052604081205460ff166108c25760405160e560020a62461bcd02815260040161023e90611e06565b600160a060020a0383166108eb5760405160e560020a62461bcd02815260040161023e90611e31565b600160a060020a0384166109145760405160e560020a62461bcd02815260040161023e90611e31565b600160a060020a03831660009081526015602052604090205460ff1661094f5760405160e560020a62461bcd02815260040161023e90611e5a565b600082116109955760405160e560020a62461bcd02815260206004820152600d6024820152609860020a6c496e76616c69642076616c756502604482015260640161023e565b600354600160a060020a0385811661010090920416148015906109cb5750600354600160a060020a038481166101009092041614155b15610a1a57600160a060020a0384166000908152601460205260409020546109f8906301e1338090611eaa565b421015610a1a5760405160e560020a62461bcd02815260040161023e90611ecf565b600160a060020a038416600090815260126020526040902054821115610a7f5760405160e560020a62461bcd0281526020600482015260146024820152606060020a73496e73756666696369656e742062616c616e636502604482015260640161023e565b600160a060020a0384166000908152601360209081526040808320338452909152902054821115610af15760405160e560020a62461bcd0281526020600482015260166024820152605060020a75496e73756666696369656e7420616c6c6f77616e636502604482015260640161023e565b600160a060020a0380841660009081526014602090815260408083204290559287168252601290522054610b259083611b14565b600160a060020a0385166000908152601260209081526040808320939093556013815282822033835290522054610b5c9083611b14565b600160a060020a038086166000908152601360209081526040808320338452825280832094909455918616815260129091522054610b9a9083611ab5565b600160a060020a0380851660008181526012602052604090819020939093559151908616906000805160206121f783398151915290610bdc9086815260200190565b60405180910390a35060019392505050565b60008054600160a060020a03163314610c1c5760405160e560020a62461bcd02815260040161023e90611f3d565b33600090815260126020526040902054821115610c785760405160e560020a62461bcd0281526020600482015260146024820152606060020a73496e73756666696369656e742042616c616e636502604482015260640161023e565b610c8460075483611b14565b6007556003546101009004600160a060020a0316600090815260126020526040902054610cb19083611b14565b60038054600160a060020a03610100918290048116600090815260126020526040808220959095559254935192939190910416906000805160206121f783398151915290610d029086815260200190565b60405180910390a35060015b919050565b33610d335760405160e560020a62461bcd02815260040161023e90611f74565b3360009081526015602052604090205460ff161515600114610d6a5760405160e560020a62461bcd02815260040161023e90611faa565b33600090815260126020526040902054341115610dcc5760405160e560020a62461bcd02815260206004820152601a60248201527f696e73756666696369656e7420746f6b656e2062616c616e6365000000000000604482015260640161023e565b6000610dda34600954611b7b565b90503031811115610e3e5760405160e560020a62461bcd02815260206004820152602260248201527f696e73756666696369656e742062616c616e636520746f2073656e6420657468604482015260f160020a6132b902606482015260840161023e565b604051339082156108fc029083906000818181858888f19350505050158015610e6b573d6000803e3d6000fd5b50610e7630826107f8565b50610e82333083610890565b5050565b600054600160a060020a03163314610eb35760405160e560020a62461bcd02815260040161023e90611f3d565b600160a060020a038116610edc5760405160e560020a62461bcd02815260040161023e90611ff8565b600a8054600160a060020a031916600160a060020a0383161790556040517f28a2f18512cceb39de5ad8beb90cabd9c0e9a6901ade3db38be353d44fb6524690610f27908390611cdf565b60405180910390a150565b600054600160a060020a03163314610f5f5760405160e560020a62461bcd02815260040161023e90611f3d565b600160a060020a03821660009081526015602052604090205460ff1615610fc85760405160e560020a62461bcd0281526020600482015260176024820152604860020a76696e766573746f7220616c72656164792065786973747302604482015260640161023e565b600160a060020a0382166000908152601560205260409020805460ff19166001179055801561104157601680546001810182556000919091527fd833147d7dc355ba459fc788f669e58cfaf9dc25ddcd0702e87d69c7b5124289018054600160a060020a031916600160a060020a038416179055611109565b601754602310156110bd5760405160e560020a62461bcd02815260206004820152603b60248201527f6d6178696d756d206e756d626572206f66206e6f6e2d6163637265646974656460448201527f20696e766573746f727320686173206265656e20726561636865640000000000606482015260840161023e565b601780546001810182556000919091527fc624b66cc0138b8fabc209247f72d758e1cf3343756d543badbf24212bed8c15018054600160a060020a031916600160a060020a0384161790555b7f62e6a5118be03f9bfedb79b0ed7ed75ee4a9e15fc4c69d2c4976acde26fa2d5f826040516111389190611cdf565b60405180910390a15050565b600054600160a060020a031633146111715760405160e560020a62461bcd02815260040161023e90612024565b60008054604051600160a060020a03909116906000805160206121d7833981519152908390a360008054600160a060020a0319169055565b600054600160a060020a031633146111d65760405160e560020a62461bcd02815260040161023e90611f3d565b630163f5008211156112645760405160e560020a62461bcd028152602060048201526044602482018190527f6d61747572697479206461746520657874656e6473206265796f6e6420746865908201527f2061636365707461626c652074696d65206f66203237302064617973206f7220606482015260e060020a636c65737302608482015260a40161023e565b604080516101008101825260008082526020808301919091528183018790526060808301879052608080840187905260a080850187905260ca60020a6618dc99585d19590260c0860181905260ca60020a661d5b9c985d19590260e0909601869052600a8054600160a060020a0319908116909155600b80549091169055600c8b9055600d8a9055600e899055600f889055601055601194909455845133815292830189905293820187905281018590529182018390527fc55ede29817074632bdf9ab62f9cac6e503d61b8eef25750b3b61883f8d3db16910160405180910390a150505050565b600054600160a060020a031633146113795760405160e560020a62461bcd02815260040161023e90611f3d565b6000805160206120c6833981519152336113916113a9565b60405161139f929190612058565b60405180910390a1565b6000601e6001546113ba9190611eaa565b42116113db5760405160e560020a62461bcd02815260040161023e90612072565b601e6001546113ea9190611eaa565b421161140b5760405160e560020a62461bcd02815260040161023e90612072565b5042600155600054600160a060020a031690565b600054600160a060020a0316331461144c5760405160e560020a62461bcd02815260040161023e90611f3d565b60108190556040517f5035b7a4e9cd89f5a9b2ec3d72d1d3d5369cef7ebfbd647f68036c2b1ae03fa490610f279030908490611bfb565b6005805461077790611dc8565b60008054600160a060020a031633146114be5760405160e560020a62461bcd02815260040161023e90611f3d565b6114ca60075483611ab5565b6007556003546101009004600160a060020a03166000908152601260205260409020546114f79083611ab5565b60038054600160a060020a0361010091829004811660009081526012602090815260408083209690965593549451878152929094041692916000805160206121f78339815191529101610d02565b336115655760405160e560020a62461bcd02815260040161023e90611f74565b3360009081526015602052604090205460ff16151560011461159c5760405160e560020a62461bcd02815260040161023e90611faa565b60006115b5346115b0600854600954611b7b565b611a4e565b90508060075410156116195760405160e560020a62461bcd02815260206004820152602160248201527f65786365737369766520707572636861736520616d6f756e7420726571756573604482015260fa60020a601d02606482015260840161023e565b61162333826107f8565b50610e82303383610890565b3360009081526015602052604081205460ff166116615760405160e560020a62461bcd02815260040161023e90611e06565b600160a060020a03831661168a5760405160e560020a62461bcd02815260040161023e90611e31565b600160a060020a03831660009081526015602052604090205460ff166116c55760405160e560020a62461bcd02815260040161023e90611e5a565b6000821161170b5760405160e560020a62461bcd02815260206004820152600d6024820152609860020a6c496e76616c69642056616c756502604482015260640161023e565b6003546101009004600160a060020a031633146117635733600090815260146020526040902054611741906301e1338090611eaa565b4210156117635760405160e560020a62461bcd02815260040161023e90611ecf565b600160a060020a038316600090815260146020908152604080832042905533835260129091529020546117969083611b14565b3360009081526012602052604080822092909255600160a060020a038516815220546117c29083611ab5565b600160a060020a0384166000818152601260205260409081902092909255905133906000805160206121f78339815191529061087e9086815260200190565b600054600160a060020a0316331461182e5760405160e560020a62461bcd02815260040161023e90611f3d565b600160a060020a0381166118575760405160e560020a62461bcd02815260040161023e90611ff8565b600b8054600160a060020a031916600160a060020a0383161790556040517fce1dd22be7af1938103d64cdf88b57df6bd0f316f2f7b524322fd4075dbdf34690610f27908390611cdf565b600054600160a060020a031633146118cf5760405160e560020a62461bcd02815260040161023e90611f3d565b60098190556040518181527f388f446e9526fe5c9af20a5919b342370c8a7c0cb05245afe1e545658fa3cdba90602001610f27565b60405180610120016040528060f181526020016120e660f1913981565b600054600160a060020a0316331461194e5760405160e560020a62461bcd02815260040161023e90612024565b600160a060020a0381166119b95760405160e560020a62461bcd02815260206004820152602660248201527f4f776e61626c653a206e6577206f776e657220697320746865207a65726f2061604482015260d060020a6564647265737302606482015260840161023e565b60008054604051600160a060020a03808516939216916000805160206121d783398151915291a360008054600160a060020a031916600160a060020a0392909216919091179055565b600054600160a060020a03163314611a2f5760405160e560020a62461bcd02815260040161023e90611f3d565b6000805160206120c68339815191523382604051610f27929190612058565b6000808211611aa25760405160e560020a62461bcd02815260206004820152601a60248201527f536166654d6174683a206469766973696f6e206279207a65726f000000000000604482015260640161023e565b600082611aae57600080fd5b5050900490565b600082820183811015611b0d5760405160e560020a62461bcd02815260206004820152601b60248201527f536166654d6174683a206164646974696f6e206f766572666c6f770000000000604482015260640161023e565b9392505050565b600082821115611b695760405160e560020a62461bcd02815260206004820152601e60248201527f536166654d6174683a207375627472616374696f6e206f766572666c6f770000604482015260640161023e565b818303821984018114611b0d57600080fd5b600082820282158382048514151715611b9357600080fd5b82611b9e858361209f565b14611b0d5760405160e560020a62461bcd02815260206004820152602160248201527f536166654d6174683a206d756c7469706c69636174696f6e206f766572666c6f604482015260f860020a607702606482015260840161023e565b600160a060020a03929092168252602082015260400190565b600060208083528351808285015260005b81811015611c4157858101830151858201604001528201611c25565b506000604082860101526040601f19601f8301168501019250505092915050565b8035600160a060020a0381168114610d0e57600080fd5b60008060408385031215611c8c57600080fd5b611c9583611c62565b946020939093013593505050565b600080600060608486031215611cb857600080fd5b611cc184611c62565b9250611ccf60208501611c62565b9150604084013590509250925092565b600160a060020a0391909116815260200190565b600060208284031215611d0557600080fd5b5035919050565b600060208284031215611d1e57600080fd5b611b0d82611c62565b60008060408385031215611d3a57600080fd5b611d4383611c62565b915060208301358015158114611d5857600080fd5b809150509250929050565b60008060008060808587031215611d7957600080fd5b5050823594602084013594506040840135936060013592509050565b60008060408385031215611da857600080fd5b611db183611c62565b9150611dbf60208401611c62565b90509250929050565b600281046001821680611ddc57607f821691505b602082108103611e005760e060020a634e487b710260009081526022600452602490fd5b50919050565b6020808252600e90820152609260020a6d1b9bdd08185d5d1a1bdc9a5e995902604082015260600190565b6020808252600c9082015260a060020a6b4e756c6c206164647265737302604082015260600190565b6020808252602d908201527f726563697069656e74206973206e6f7420617574686f72697a656420746f20726040820152609860020a6c65636569766520746f6b656e7302606082015260800190565b8082018082111561088a5760e060020a634e487b710260009081526011600452602490fd5b60208082526045908201527f7472616e73666572206e6f74207065726d697474656420756e6465722052756c60408201527f65203134342c20686f6c64696e6720706572696f6420686173206e6f7420656c606082015260da60020a64185c1cd95902608082015260a00190565b6020808252601b908201527f756e617574686f72697a65642c206e6f7420746865206f776e65720000000000604082015260600190565b6020808252601990820152603a60020a781e995c9bc81dd85b1b195d1cc81b9bdd081858d8d95c1d195902604082015260600190565b6020808252602b908201527f696e766573746f72206e6f74207065726d697474656420746f20627579207468604082015260a860020a6a697320736563757269747902606082015260800190565b6020808252600f90820152608860020a6e696e76616c6964206164647265737302604082015260600190565b6020808252601790820152604960020a7630b1b1b2b9b9903232b734b2b2103337b91037bbb732b902604082015260600190565b600160a060020a0392831681529116602082015260400190565b6020808252601090820152608160020a6f3930ba32903634b6b4ba1032b93937b902604082015260600190565b6000826120c05760e060020a634e487b710260009081526012600452602490fd5b50049056fe91ca00fdf29069527d658f8dfc6d1c0bf9861780bb45ff36436f938d3595a8d650726976617465204465627420546f6b656e2028436f6d6d65726369616c2050617065722920666f722050726573735061676520456e7465727461696e6d656e7420496e6320285345432046696c6520233032312d3333323134342920756e6465722052756c6520353036622061742068747470733a2f2f7777772e7365632e676f762f41726368697665732f65646761722f646174612f303030313736363934372f3030303137363639343731393030303030312f78736c466f726d445830312f7072696d6172795f646f632e786d6c2e20464f52204143435245444954454420494e564553544f5253204f4e4c592e8be0079c531659141344cd1fd0a4f28419497f9722a3daafe3b4186f6b6457e0ddf252ad1be2c89b69c2b068fc378daa952ba7f163c4a11628f55a4df523b3efa2646970667358221220ebeee52b242f53edb58fd48a2c69eb8940356c5e122e9ece137d7663a0abf50064736f6c6343000812003350726f6d697373617279204e6f746520666f722041424320436f72706f726174696f6e",
  "immutableReferences": {},
  "source": "// SPDX-License-Identifier: CC-BY-4.0\r\npragma solidity >=0.4.22 <0.9.0;\r\n\r\n// Commercial Paper Token with exchange\r\n\r\n/**\r\n * The issuer is the entity issuing the commercial papers. Where the commercial papers are issued through a special purpose vehicle (SPV),\r\n * the promoter is the entity incorporating the SPV for the purposes of the issuance and holds a significant ownership and control of the SPV,\r\n * i.e. it is the SPVs parent company.\r\n */\r\n\r\n/**\r\n * Licensed Securities Depository\r\n *\r\n * The Licensed Securities Depository is a specialist financial institution, licensed by the SEC,\r\n * which holds commercial papers either in certificated or uncertificated (dematerialized) form so\r\n * that ownership can be easily transferred through a book entry rather than the transfer of physical certificates.\r\n * The depository acts as the registrar and the custodian of the commercial papers.\r\n *\r\n * A depository is not needed as the commercial paper contract resides on the blockchain amd changes are still made via a book entry\r\n */\r\n\r\n /**\r\n  * 1. Commercial Paper is issued\r\n  * 2. Promoter or Issuer notifies investors\r\n  * 3. A NRSRO assigns a credit rating to the issuer\r\n  * 4. Investors transfer amount to issuer wallet in multiples of the minimaum denomination, which is typically $100,000\r\n  * 5. During repayment, issuer transfers repayment to the IPA, which  then transfer to the investor. Since a immutable log of transaction is maintain,\r\n  *     the IPA can be eliminated, and repayment comes directly from the issuer wallet.\r\n  */\r\n\r\nimport \"../../common/Version.sol\";\r\nimport \"../../common/Frozen.sol\";\r\nimport \"../../interfaces/IERC20TOKEN.sol\";\r\nimport \"../../libs/SafeMath.sol\";\r\n\r\n\r\ncontract CommercialPaper is Version, Frozen, IERC20TOKEN {\r\n    string public constant DESCRIPTION =\r\n        string(\"Private Debt Token (Commercial Paper) for PressPage Entertainment Inc (SEC File #021-332144) under Rule 506b at https://www.sec.gov/Archives/edgar/data/0001766947/000176694719000001/xslFormDX01/primary_doc.xml. FOR ACCREDITED INVESTORS ONLY.\");\r\n    string public constant CUSIP = string(\"TO BE ASSIGNED\");\r\n\r\n    uint256 public constant YEAR = 365 days;\r\n    uint256 public constant MAX_SIZE_OF_OFFERING = 5000000; // under 506(b) the maximum is unlimited\r\n\r\n    uint public constant MAX_NONACCREDITED_INVESTORS = 35;\r\n\r\n    string public name = \"Promissary Note for ABC Corporation\";\r\n    string public symbol = \"ABC.NOTE.S1\"; // maximum 11 character\r\n    uint8  public decimals;\r\n\r\n    uint256 public _totalSupply;\r\n\r\n\r\n    uint256 public denomination = 100000; // 36.75 ETH to buy 1 CP token\r\n\r\n    struct CommercialPaperInfo {\r\n        address promoter;\r\n        address cra;\r\n        uint256 faceValue;\r\n        uint256 valueDate;\r\n        uint256 maturityDate;\r\n        uint256 discountRate;\r\n        bytes32 status;\r\n        bytes32 creditRating;\r\n    }\r\n\r\n    uint256 public exchangeRate = 36750000000; // in GWEI, 1 USD = 370000 GWEI\r\n\r\n    CommercialPaperInfo cp;\r\n\r\n    mapping(address => uint) balances;\r\n    mapping(address => mapping(address => uint)) allowed;\r\n\r\n    mapping(address => uint256) transfer_log;\r\n    mapping(address => bool) whitelisted;\r\n    address[] accredited_investors;\r\n    address[] nonaccredited_investors;\r\n\r\n    event CommercialPaperCreated(address pIssuer, uint256 pFaceValue, uint256 pValueDate, uint256 pMaturityDate, uint256 rate);\r\n    event PromoterAssigned(address promoter);\r\n    event CreditReportingAgencyAssigned(address cra);\r\n    event StatusUpdated(address _contract,bytes32 status);\r\n    event InvestorAdded(address investor);\r\n    event ExchangeRateUpdated(uint256 exchangeRate);\r\n\r\n    constructor() {\r\n        whitelisted[msg.sender] = true;\r\n        mint(SafeMath.safeDiv(MAX_SIZE_OF_OFFERING, denomination) * 10 ** uint256(decimals));\r\n    }\r\n\r\n    modifier isAuthorized() {\r\n        require(whitelisted[msg.sender],\"not authorized\");\r\n        _;\r\n    }\r\n\r\n    function addPromoter(address _promoter)\r\n        public\r\n        okOwner\r\n    {\r\n        require(_promoter != address(0),\"invalid address\");\r\n        cp.promoter = _promoter;\r\n        emit PromoterAssigned(_promoter);\r\n    }\r\n\r\n    function addCreditReportingAgency(address _cra)\r\n        public\r\n        okOwner\r\n    {\r\n        require(_cra != address(0),\"invalid address\");\r\n        cp.cra = _cra;\r\n        emit CreditReportingAgencyAssigned(_cra);\r\n    }\r\n    \r\n    function addInvestor(address investor, bool accredited)\r\n        public\r\n        okOwner\r\n    {\r\n        require(whitelisted[investor] == false,\"investor already exists\");\r\n        whitelisted[investor] = true;\r\n        if (accredited) {\r\n            accredited_investors.push(investor);\r\n        } else {\r\n            require(nonaccredited_investors.length <= MAX_NONACCREDITED_INVESTORS, \"maximum number of non-accredited investors has been reached\");\r\n            nonaccredited_investors.push(investor);\r\n        }\r\n        emit InvestorAdded(investor);\r\n    }\r\n\r\n    function updateExchangeRate(uint256 _swapRate)\r\n        public\r\n        okOwner\r\n    {\r\n        exchangeRate = _swapRate;\r\n        emit ExchangeRateUpdated(exchangeRate);\r\n    }\r\n    \r\n    function commercialPaper(uint256 pFaceValue, uint256 pValueDate, uint256 pMaturityDate, uint256 rate)\r\n        public\r\n        okOwner\r\n    {\r\n        require(pMaturityDate <= 270 days,\"maturity date extends beyond the acceptable time of 270 days or less\");\r\n        cp = CommercialPaperInfo(address(0), address(0), pFaceValue, pValueDate, pMaturityDate, rate, \"created\",\"unrated\");\r\n        emit CommercialPaperCreated(msg.sender, pFaceValue, pValueDate, pMaturityDate, rate);\r\n    }\r\n    \r\n    function getContractAddress()\r\n        public\r\n        view\r\n        returns(address)\r\n    {\r\n        return address(this);\r\n    }\r\n\r\n   \r\n    function updateStatus(bytes32 pStatus)\r\n        public\r\n        okOwner\r\n    {\r\n        cp.status = pStatus;\r\n        emit StatusUpdated(address(this),pStatus);\r\n    }\r\n\r\n    function getContract()\r\n        public\r\n        view\r\n        returns(address,address,address,address,uint256,uint256,uint256,uint256,bytes32,bytes32)\r\n    {\r\n        return (address(this),owner,cp.promoter,cp.cra,cp.faceValue,cp.valueDate,cp.maturityDate,cp.discountRate,cp.status,cp.creditRating);\r\n    }\r\n\r\n    function buy()\r\n        public\r\n        payable\r\n    {\r\n        // Ensure sender wallet is valid, non-zero\r\n        require(msg.sender != address(0), \"zero wallets not accepted\");\r\n        require(whitelisted[msg.sender] == true,\"investor not permitted to buy this security\");\r\n        uint256 tokenAmount = SafeMath.safeDiv(msg.value, SafeMath.safeMul(denomination, exchangeRate));\r\n        require(_totalSupply >= tokenAmount, \"excessive purchase amount request\");\r\n        approve(msg.sender, tokenAmount);\r\n        transferFrom(payable(address(this)), msg.sender, tokenAmount);\r\n    }\r\n\r\n    function sell()\r\n        public\r\n        payable\r\n    {\r\n        // Ensure sender wallet is valid, non-zero\r\n        require(msg.sender != address(0), \"zero wallets not accepted\");\r\n        require(whitelisted[msg.sender] == true,\"investor not permitted to buy this security\");\r\n         // Ensure sender balance has enough tokens\r\n        require(balances[msg.sender] >= msg.value, \"insufficient token balance\");\r\n        uint etherAmount = SafeMath.safeMul(msg.value, exchangeRate);\r\n        require(address(this).balance >= etherAmount, \"insufficient balance to send ether\");\r\n        payable(msg.sender).transfer(etherAmount);\r\n        approve(address(this), etherAmount);\r\n        // otherwise, transfer to contract\r\n        transferFrom(msg.sender, payable(address(this)), etherAmount);\r\n    }\r\n\r\n    /**\r\n     * @dev allowance : Check approved balance\r\n     */\r\n    function allowance(address tokenOwner, address spender)\r\n        public\r\n        virtual\r\n        override\r\n        view\r\n        returns (uint remaining)\r\n    {\r\n        return allowed[tokenOwner][spender];\r\n    }\r\n\r\n    /**\r\n     * @dev approve : Approve token for spender\r\n     */\r\n    function approve(address spender, uint tokens)\r\n        public\r\n        virtual\r\n        override\r\n        isAuthorized\r\n        returns (bool success)\r\n    {\r\n        require(tokens >= 0, \"Invalid value\");\r\n        allowed[msg.sender][spender] = tokens;\r\n        emit Approval(msg.sender, spender, tokens);\r\n        return true;\r\n    }\r\n\r\n    /**\r\n     * @dev transfer : Transfer token to another etherum address\r\n     */\r\n    function transfer(address to, uint tokens)\r\n        public\r\n        virtual\r\n        override\r\n        isAuthorized\r\n        returns (bool success)\r\n    {\r\n        require(to != address(0), \"Null address\");\r\n        require(whitelisted[to],\"recipient is not authorized to receive tokens\");\r\n        require(tokens > 0, \"Invalid Value\");\r\n        if (msg.sender != owner) {\r\n            require (block.timestamp >= (transfer_log[msg.sender] + YEAR),\r\n                \"transfer not permitted under Rule 144, holding period has not elapsed\");\r\n        }\r\n        transfer_log[to] = block.timestamp;\r\n        balances[msg.sender] = SafeMath.safeSub(balances[msg.sender], tokens);\r\n        balances[to] = SafeMath.safeAdd(balances[to], tokens);\r\n        emit Transfer(msg.sender, to, tokens);\r\n        return true;\r\n    }\r\n\r\n    /**\r\n     * @dev transferFrom : Transfer token after approval\r\n     */\r\n    function transferFrom(address from, address to, uint tokens)\r\n        public\r\n        virtual\r\n        override\r\n        isAuthorized\r\n        returns (bool success)\r\n    {\r\n        require(to != address(0), \"Null address\");\r\n        require(from != address(0), \"Null address\");\r\n        require(whitelisted[to],\"recipient is not authorized to receive tokens\");\r\n        require(tokens > 0, \"Invalid value\");\r\n        if (from != owner && to != owner) {\r\n            require (block.timestamp >= (transfer_log[from] + YEAR),\r\n                \"transfer not permitted under Rule 144, holding period has not elapsed\");\r\n        }\r\n        require(tokens <= balances[from], \"Insufficient balance\");\r\n        require(tokens <= allowed[from][msg.sender], \"Insufficient allowance\");\r\n        transfer_log[to] = block.timestamp;\r\n        balances[from] = SafeMath.safeSub(balances[from], tokens);\r\n        allowed[from][msg.sender] = SafeMath.safeSub(allowed[from][msg.sender], tokens);\r\n        balances[to] = SafeMath.safeAdd(balances[to], tokens);\r\n        emit Transfer(from, to, tokens);\r\n        return true;\r\n    }\r\n\r\n    /**\r\n     * @dev totalSupply : Display total supply of token\r\n     */\r\n    function totalSupply()\r\n        public\r\n        virtual\r\n        override\r\n        view\r\n        returns (uint)\r\n    {\r\n        return _totalSupply;\r\n    }\r\n\r\n    /**\r\n     * @dev balanceOf : Displya token balance of given address\r\n     */\r\n    function balanceOf(address tokenOwner)\r\n        public\r\n        virtual\r\n        override\r\n        view\r\n        returns (uint balance)\r\n    {\r\n        return balances[tokenOwner];\r\n    }\r\n\r\n    /**\r\n     * @dev mint : To increase total supply of tokens\r\n     */\r\n    function mint(uint256 _amount)\r\n        public\r\n        okOwner\r\n        returns (bool)\r\n    {\r\n        require(_amount >= 0, \"Invalid amount\");\r\n        _totalSupply = SafeMath.safeAdd(_totalSupply, _amount);\r\n        balances[owner] = SafeMath.safeAdd(balances[owner], _amount);\r\n        emit Transfer(address(0), owner, _amount);\r\n        return true;\r\n    }\r\n\r\n     /**\r\n     * @dev mint : To increase total supply of tokens\r\n     */\r\n    function burn(uint256 _amount)\r\n        public\r\n        okOwner\r\n        returns (bool)\r\n    {\r\n        require(_amount >= 0, \"Invalid amount\");\r\n        require(_amount <= balances[msg.sender], \"Insufficient Balance\");\r\n        _totalSupply = SafeMath.safeSub(_totalSupply, _amount);\r\n        balances[owner] = SafeMath.safeSub(balances[owner], _amount);\r\n        emit Transfer(owner, address(0), _amount);\r\n        return true;\r\n    }\r\n}",
  "sourcePath": "/Volumes/My Book/projects/pingleware-contracts/contracts/finance/debt/CommercialPaper.sol",
  "compiler": {
    "name": "solc",
    "version": "0.8.18+commit.87f61d96.Emscripten.clang"
  },
  "schemaVersion": "3.4.12",
  "updatedAt": "2023-10-24T23:33:39.342Z",
  "devdoc": {
    "kind": "dev",
    "methods": {
      "allowance(address,address)": {
        "details": "allowance : Check approved balance"
      },
      "approve(address,uint256)": {
        "details": "approve : Approve token for spender"
      },
      "balanceOf(address)": {
        "details": "balanceOf : Displya token balance of given address"
      },
      "burn(uint256)": {
        "details": "mint : To increase total supply of tokens"
      },
      "mint(uint256)": {
        "details": "mint : To increase total supply of tokens"
      },
      "renounceOwnership()": {
        "details": "Leaves the contract without owner. It will not be possible to call `onlyOwner` functions anymore. Can only be called by the current owner. NOTE: Renouncing ownership will leave the contract without an owner, thereby removing any functionality that is only available to the owner."
      },
      "totalSupply()": {
        "details": "totalSupply : Display total supply of token"
      },
      "transfer(address,uint256)": {
        "details": "transfer : Transfer token to another etherum address"
      },
      "transferFrom(address,address,uint256)": {
        "details": "transferFrom : Transfer token after approval"
      },
      "transferOwnership(address)": {
        "details": "Transfers ownership of the contract to a new account (`newOwner`). Can only be called by the current owner."
      }
    },
    "version": 1
  },
  "userdoc": {
    "kind": "user",
    "methods": {},
    "version": 1
  }
}