{
  "contractName": "Congress",
  "abi": [
    {
      "inputs": [
        {
          "internalType": "address",
          "name": "houseAddress",
          "type": "address"
        },
        {
          "internalType": "address",
          "name": "senateAddress",
          "type": "address"
        }
      ],
      "stateMutability": "nonpayable",
      "type": "constructor"
    },
    {
      "inputs": [],
      "name": "house",
      "outputs": [
        {
          "internalType": "contract IHouseOfRepresentatives",
          "name": "",
          "type": "address"
        }
      ],
      "stateMutability": "view",
      "type": "function"
    },
    {
      "inputs": [],
      "name": "senate",
      "outputs": [
        {
          "internalType": "contract IUSSenate",
          "name": "",
          "type": "address"
        }
      ],
      "stateMutability": "view",
      "type": "function"
    },
    {
      "inputs": [
        {
          "internalType": "string",
          "name": "title",
          "type": "string"
        }
      ],
      "name": "introduceBill",
      "outputs": [],
      "stateMutability": "nonpayable",
      "type": "function"
    },
    {
      "inputs": [
        {
          "internalType": "string",
          "name": "electionYear",
          "type": "string"
        }
      ],
      "name": "getCertificate",
      "outputs": [
        {
          "internalType": "string",
          "name": "",
          "type": "string"
        },
        {
          "internalType": "string",
          "name": "",
          "type": "string"
        },
        {
          "internalType": "string",
          "name": "",
          "type": "string"
        },
        {
          "internalType": "string",
          "name": "",
          "type": "string"
        }
      ],
      "stateMutability": "view",
      "type": "function"
    }
  ],
  "bytecode": "0x60803461008d576108db80380390601f19601f83011683019183831067ffffffffffffffff84111761009257808492604094855283398101031261008d57610052602061004b836100c1565b92016100c1565b60028054600160a060020a03938416600160a060020a0319918216179091556003805492909316911617905560405161080590816100d68239f35b600080fd5b7f4e487b7100000000000000000000000000000000000000000000000000000000600052604160045260246000fd5b5190600160a060020a038216820361008d5756fe6080604052600436101561001257600080fd5b600060e060020a8135046346c28a08811461023f578063a6e5b8e614610216578063ed0f2e75146100775763ff9b3acf1461004c57600080fd5b34610074578060031936011261007457600254604051600160a060020a039091168152602090f35b80fd5b503461007457610086366106a1565b60025460405160e060020a63b347dd81028152602060048201529190600160a060020a03908116908484806100be6024820187610731565b0381855afa9384156101d35785946101fa575b5060405160e160020a636f90aed902815260206004820152918590839081806100fd6024820189610731565b03915afa9182156101d35785926101de575b5060035460405160e160020a6346eb0be1028152602060048201529291869184911681806101406024820189610731565b03915afa9182156101d357906101a59392918661017b97936101a9575b50506101896101979293604051978897608089526080890190610731565b908782036020890152610731565b908582036040870152610731565b908382036060850152610731565b0390f35b6101979350610189916101cd913d8091833e6101c58183610663565b81019061076e565b9261015d565b6040513d87823e3d90fd5b6101f39192503d8087833e6101c58183610663565b903861010f565b61020f9194503d8087833e6101c58183610663565b92386100d1565b5034610074578060031936011261007457600354604051600160a060020a039091168152602090f35b50346100745761024e366106a1565b906001918254600019811461061f5783018084556040519093906001604060020a036080820181811183821017610608576040908152868352336020808501918252848301878152606086018981529989529088905291872093518455518484018054600160a060020a031916600160a060020a03929092169190911790555180519182116106085760028301548460028204911680156105fe575b60208210146105e757601f811161059b575b50602093601f831160011461052c5750600393869183610521575b5050816002029160080260020a6000190419161760028201555b01925192600384101561050a57829360ff8019835416911617905560246020600160a060020a03600254166040519283809260e260020a63288c31490282523360048301525afa9081156104ff5783916104e0575b501561040157600254600160a060020a0316803b156103fd5760405160e360020a6308d851410281526020600482015291839183918290849082906103cf906024830190610731565b03925af180156103f2576103e257505080f35b6103eb90610636565b6100745780f35b6040513d84823e3d90fd5b5050fd5b60035460405160e660020a6301240157028152336004820152600160a060020a039091169190602081602481865afa9081156104d55784916104a6575b5061044a575b50505080f35b813b156103fd5760405160e360020a6308d851410281526020600482015292918391829084908290610480906024830190610731565b03925af180156103f257610497575b808291610444565b6104a090610636565b3861048f565b6104c8915060203d6020116104ce575b6104c08183610663565b810190610756565b3861043e565b503d6104b6565b6040513d86823e3d90fd5b6104f9915060203d6020116104ce576104c08183610663565b38610386565b6040513d85823e3d90fd5b60e060020a634e487b710283526021600452602483fd5b015190503880610317565b9293601f198316916002860188526020882092885b81811061058557509160029391856003989796941061056a575b50505002016002820155610331565b01516008601f841602840a600019041916905538808061055b565b8284015185559386019360209384019301610541565b600284018752602087206020601f850104810191602085106105dd575b906020601f8893010401915b8281106105d25750506102fc565b8881550185906105c4565b90915081906105b8565b60e060020a634e487b710287526022600452602487fd5b90607f16906102ea565b60e060020a634e487b710286526041600452602486fd5b60e060020a634e487b710283526011600452602483fd5b6001604060020a03811161064957604052565b60e060020a634e487b710260009081526041600452602490fd5b601f909101601f19168101906001604060020a0382119082101761064957604052565b6001604060020a03811161064957601f01601f191660200190565b6020600319820112610709576004356001604060020a0381116107095781602382011215610709578060040135906106d882610686565b926106e66040519485610663565b828452602483830101116107095781600092602460209301838601378301015290565b600080fd5b60005b8381106107215750506000910152565b8181015183820152602001610711565b9060209161074a8151809281855285808601910161070e565b601f01601f1916010190565b90816020910312610709575180151581036107095790565b602081830312610709578051906001604060020a038211610709570181601f820112156107095780516107a081610686565b926107ae6040519485610663565b81845260208284010111610709576107cc916020808501910161070e565b9056fea2646970667358221220da9e7215c36ec53545996eff289af01a7d97bf80f2d1d5e2272e56c0dfb9e3e864736f6c63430008120033",
  "immutableReferences": {},
  "source": "// SPDX-License-Identifier: BSL-1.1\npragma solidity >=0.4.22 <0.9.0;\n\nimport \"../../interfaces/IHouseOfRepresentatives.sol\";\nimport \"../../interfaces/IUSSenate.sol\";\n\ncontract Congress {\n    enum BillStatus { Introduced, Passed, Failed }\n\n    struct Bill {\n        uint256 billId;\n        address sponsor;\n        string title;\n        BillStatus status;\n    }\n\n    mapping(uint256 => Bill) private bills;\n    uint256 private billCounter;\n\n    IHouseOfRepresentatives public house;\n    IUSSenate public senate;\n\n\n    constructor(address houseAddress,address senateAddress) {\n        house = IHouseOfRepresentatives(houseAddress);\n        senate = IUSSenate(senateAddress);\n    }\n\n    function introduceBill(string memory title) external {\n        billCounter++;\n        bills[billCounter] = Bill(billCounter, msg.sender, title, BillStatus.Introduced);\n\n        if (house.isMember(msg.sender)) {\n            house.introduceBill(title);\n        } else if (senate.isSenator(msg.sender)) {\n            senate.introduceBill(title);\n        }\n    }\n\n     // Get the full certificate details\n    function getCertificate(string memory electionYear) public view returns (string memory, string memory, string memory, string memory) {\n        return (house.getPresidentElect(electionYear), electionYear, house.getHouseCertificate(electionYear), senate.getSenateCertificate(electionYear));\n    }\n}",
  "sourcePath": "/Volumes/HOME/pingleware-contracts/contracts/government/federal/Congress.sol",
  "compiler": {
    "name": "solc",
    "version": "0.8.18+commit.87f61d96.Emscripten.clang"
  },
  "schemaVersion": "3.4.12",
  "updatedAt": "2024-05-23T18:56:26.168Z",
  "devdoc": {
    "kind": "dev",
    "methods": {},
    "version": 1
  },
  "userdoc": {
    "kind": "user",
    "methods": {},
    "version": 1
  }
}