{
  "contractName": "Congress",
  "abi": [
    {
      "inputs": [
        {
          "internalType": "address",
          "name": "houseAddress",
          "type": "address"
        },
        {
          "internalType": "address",
          "name": "senateAddress",
          "type": "address"
        }
      ],
      "stateMutability": "nonpayable",
      "type": "constructor"
    },
    {
      "inputs": [],
      "name": "house",
      "outputs": [
        {
          "internalType": "contract IHouseOfRepresentatives",
          "name": "",
          "type": "address"
        }
      ],
      "stateMutability": "view",
      "type": "function"
    },
    {
      "inputs": [],
      "name": "senate",
      "outputs": [
        {
          "internalType": "contract IUSSenate",
          "name": "",
          "type": "address"
        }
      ],
      "stateMutability": "view",
      "type": "function"
    },
    {
      "inputs": [
        {
          "internalType": "string",
          "name": "title",
          "type": "string"
        }
      ],
      "name": "introduceBill",
      "outputs": [],
      "stateMutability": "nonpayable",
      "type": "function"
    },
    {
      "inputs": [
        {
          "internalType": "string",
          "name": "electionYear",
          "type": "string"
        }
      ],
      "name": "getCertificate",
      "outputs": [
        {
          "internalType": "string",
          "name": "",
          "type": "string"
        },
        {
          "internalType": "string",
          "name": "",
          "type": "string"
        },
        {
          "internalType": "string",
          "name": "",
          "type": "string"
        },
        {
          "internalType": "string",
          "name": "",
          "type": "string"
        }
      ],
      "stateMutability": "view",
      "type": "function"
    }
  ],
  "bytecode": "0x608060405234801561001057600080fd5b5060405161097338038061097383398101604081905261002f9161007c565b60028054600160a060020a03938416600160a060020a031991821617909155600380549290931691161790556100af565b8051600160a060020a038116811461007757600080fd5b919050565b6000806040838503121561008f57600080fd5b61009883610060565b91506100a660208401610060565b90509250929050565b6108b5806100be6000396000f3fe608060405234801561001057600080fd5b506004361061004f5760e060020a600035046346c28a088114610054578063a6e5b8e614610069578063ed0f2e7514610092578063ff9b3acf146100b5575b600080fd5b6100676100623660046104fb565b6100c8565b005b60035461007c90600160a060020a031681565b604051610089919061057a565b60405180910390f35b6100a56100a03660046104fb565b61030a565b60405161008994939291906105de565b60025461007c90600160a060020a031681565b600180549060006100d883610636565b90915550506040805160808101825260015481523360208201529081018290526060810160009052600180546000908152602081815260409182902084518155908401519281018054600160a060020a031916600160a060020a0390941693909317909255820151600282019061014f9082610708565b50606082015160038201805460ff1916600183600281111561017357610173610661565b02179055505060025460405160e260020a63288c3149028152600160a060020a03909116915063a230c524906101ad90339060040161057a565b602060405180830381865afa1580156101ca573d6000803e3d6000fd5b505050506040513d601f19601f820116820180604052508101906101ee91906107cd565b1561025b5760025460405160e360020a6308d85141028152600160a060020a03909116906346c28a08906102269084906004016107f6565b600060405180830381600087803b15801561024057600080fd5b505af1158015610254573d6000803e3d6000fd5b5050505050565b60035460405160e660020a6301240157028152600160a060020a039091169063490055c09061028e90339060040161057a565b602060405180830381865afa1580156102ab573d6000803e3d6000fd5b505050506040513d601f19601f820116820180604052508101906102cf91906107cd565b156103075760035460405160e360020a6308d85141028152600160a060020a03909116906346c28a08906102269084906004016107f6565b50565b60025460405160e060020a63b347dd81028152606091829182918291600160a060020a039091169063b347dd81906103469088906004016107f6565b600060405180830381865afa158015610363573d6000803e3d6000fd5b505050506040513d6000823e601f3d908101601f1916820160405261038b9190810190610809565b60025460405160e160020a636f90aed90281528791600160a060020a03169063df215db2906103be9084906004016107f6565b600060405180830381865afa1580156103db573d6000803e3d6000fd5b505050506040513d6000823e601f3d908101601f191682016040526104039190810190610809565b60035460405160e160020a6346eb0be1028152600160a060020a0390911690638dd617c290610436908b906004016107f6565b600060405180830381865afa158015610453573d6000803e3d6000fd5b505050506040513d6000823e601f3d908101601f1916820160405261047b9190810190610809565b93509350935093509193509193565b60e060020a634e487b710260009081526041600452602490fd5b604051601f8201601f191681016001604060020a03811182821017156104cc576104cc61048a565b604052919050565b60006001604060020a038211156104ed576104ed61048a565b50601f01601f191660200190565b60006020828403121561050d57600080fd5b81356001604060020a0381111561052357600080fd5b8201601f8101841361053457600080fd5b8035610547610542826104d4565b6104a4565b81815285602083850101111561055c57600080fd5b81602084016020830137600091810160200191909152949350505050565b600160a060020a0391909116815260200190565b60005b838110156105a9578181015183820152602001610591565b50506000910152565b600081518084526105ca81602086016020860161058e565b601f01601f19169290920160200192915050565b6080815260006105f160808301876105b2565b828103602084015261060381876105b2565b9050828103604084015261061781866105b2565b9050828103606084015261062b81856105b2565b979650505050505050565b60006001820161065a5760e060020a634e487b710260009081526011600452602490fd5b5060010190565b60e060020a634e487b710260009081526021600452602490fd5b60028104600182168061068f57607f821691505b6020821081036106b35760e060020a634e487b710260009081526022600452602490fd5b50919050565b601f821115610703576000818152602081206020601f860104810160208610156106e05750805b6020601f860104820191505b818110156106ff578281556001016106ec565b5050505b505050565b81516001604060020a038111156107215761072161048a565b6107358161072f845461067b565b846106b9565b602080601f83116001811461076e57600084156107525750858301515b60028086026008870290910a60001904198216178655506106ff565b600085815260208120601f198616915b8281101561079d5788860151825594840194600190910190840161077e565b50858210156107bd57878501516008601f88160260020a60001904191681555b5050505050600202600101905550565b6000602082840312156107df57600080fd5b815180151581146107ef57600080fd5b9392505050565b6020815260006107ef60208301846105b2565b60006020828403121561081b57600080fd5b81516001604060020a0381111561083157600080fd5b8201601f8101841361084257600080fd5b8051610850610542826104d4565b81815285602083850101111561086557600080fd5b61087682602083016020860161058e565b9594505050505056fea2646970667358221220504ee0d32896a0d61dac248a95ff3239190b86c370e2ecf1fad01fa5468f292564736f6c63430008120033",
  "immutableReferences": {},
  "source": "// SPDX-License-Identifier: BSL-1.1\npragma solidity >=0.4.22 <0.9.0;\n\nimport \"../../interfaces/IHouseOfRepresentatives.sol\";\nimport \"../../interfaces/IUSSenate.sol\";\n\ncontract Congress {\n    enum BillStatus { Introduced, Passed, Failed }\n\n    struct Bill {\n        uint256 billId;\n        address sponsor;\n        string title;\n        BillStatus status;\n    }\n\n    mapping(uint256 => Bill) private bills;\n    uint256 private billCounter;\n\n    IHouseOfRepresentatives public house;\n    IUSSenate public senate;\n\n\n    constructor(address houseAddress,address senateAddress) {\n        house = IHouseOfRepresentatives(houseAddress);\n        senate = IUSSenate(senateAddress);\n    }\n\n    function introduceBill(string memory title) external {\n        billCounter++;\n        bills[billCounter] = Bill(billCounter, msg.sender, title, BillStatus.Introduced);\n\n        if (house.isMember(msg.sender)) {\n            house.introduceBill(title);\n        } else if (senate.isSenator(msg.sender)) {\n            senate.introduceBill(title);\n        }\n    }\n\n     // Get the full certificate details\n    function getCertificate(string memory electionYear) public view returns (string memory, string memory, string memory, string memory) {\n        return (house.getPresidentElect(electionYear), electionYear, house.getHouseCertificate(electionYear), senate.getSenateCertificate(electionYear));\n    }\n}",
  "sourcePath": "/Volumes/My Book/projects/pingleware-contracts/contracts/government/federal/Congress.sol",
  "compiler": {
    "name": "solc",
    "version": "0.8.18+commit.87f61d96.Emscripten.clang"
  },
  "schemaVersion": "3.4.12",
  "updatedAt": "2023-10-24T17:43:07.161Z",
  "devdoc": {
    "kind": "dev",
    "methods": {},
    "version": 1
  },
  "userdoc": {
    "kind": "user",
    "methods": {},
    "version": 1
  }
}