{
  "contractName": "ConsolidatedAuditTrail",
  "abi": [
    {
      "inputs": [],
      "stateMutability": "nonpayable",
      "type": "constructor"
    },
    {
      "anonymous": false,
      "inputs": [
        {
          "indexed": false,
          "internalType": "string",
          "name": "symbol",
          "type": "string"
        },
        {
          "indexed": true,
          "internalType": "bytes32",
          "name": "uti",
          "type": "bytes32"
        },
        {
          "indexed": true,
          "internalType": "address",
          "name": "sender",
          "type": "address"
        },
        {
          "indexed": false,
          "internalType": "uint256",
          "name": "timestamp",
          "type": "uint256"
        },
        {
          "indexed": false,
          "internalType": "string",
          "name": "eventType",
          "type": "string"
        },
        {
          "indexed": false,
          "internalType": "string",
          "name": "eventData",
          "type": "string"
        }
      ],
      "name": "AuditEntryAdded",
      "type": "event"
    },
    {
      "anonymous": false,
      "inputs": [
        {
          "indexed": false,
          "internalType": "uint256",
          "name": "",
          "type": "uint256"
        },
        {
          "indexed": false,
          "internalType": "uint256",
          "name": "",
          "type": "uint256"
        }
      ],
      "name": "ExchangeRateChange",
      "type": "event"
    },
    {
      "inputs": [
        {
          "internalType": "string",
          "name": "",
          "type": "string"
        },
        {
          "internalType": "bytes32",
          "name": "",
          "type": "bytes32"
        },
        {
          "internalType": "uint256",
          "name": "",
          "type": "uint256"
        }
      ],
      "name": "auditTrail",
      "outputs": [
        {
          "internalType": "address",
          "name": "sender",
          "type": "address"
        },
        {
          "internalType": "bytes32",
          "name": "routedOrderID",
          "type": "bytes32"
        },
        {
          "internalType": "uint256",
          "name": "timestamp",
          "type": "uint256"
        },
        {
          "internalType": "string",
          "name": "symbol",
          "type": "string"
        },
        {
          "internalType": "string",
          "name": "eventType",
          "type": "string"
        },
        {
          "internalType": "string",
          "name": "eventData",
          "type": "string"
        }
      ],
      "stateMutability": "view",
      "type": "function",
      "constant": true
    },
    {
      "inputs": [],
      "name": "auditTrailTotal",
      "outputs": [
        {
          "internalType": "uint256",
          "name": "",
          "type": "uint256"
        }
      ],
      "stateMutability": "view",
      "type": "function",
      "constant": true
    },
    {
      "inputs": [],
      "name": "exchangeRate",
      "outputs": [
        {
          "internalType": "uint256",
          "name": "",
          "type": "uint256"
        }
      ],
      "stateMutability": "view",
      "type": "function",
      "constant": true
    },
    {
      "inputs": [],
      "name": "owner",
      "outputs": [
        {
          "internalType": "address",
          "name": "",
          "type": "address"
        }
      ],
      "stateMutability": "view",
      "type": "function",
      "constant": true
    },
    {
      "inputs": [
        {
          "internalType": "string",
          "name": "",
          "type": "string"
        },
        {
          "internalType": "bytes32",
          "name": "",
          "type": "bytes32"
        }
      ],
      "name": "utiExists",
      "outputs": [
        {
          "internalType": "bool",
          "name": "",
          "type": "bool"
        }
      ],
      "stateMutability": "view",
      "type": "function",
      "constant": true
    },
    {
      "inputs": [
        {
          "internalType": "string",
          "name": "symbol",
          "type": "string"
        },
        {
          "internalType": "string",
          "name": "eventDetail",
          "type": "string"
        },
        {
          "internalType": "string",
          "name": "eventType",
          "type": "string"
        },
        {
          "internalType": "string",
          "name": "eventData",
          "type": "string"
        }
      ],
      "name": "addAuditEntry",
      "outputs": [
        {
          "internalType": "bytes32",
          "name": "",
          "type": "bytes32"
        }
      ],
      "stateMutability": "nonpayable",
      "type": "function"
    },
    {
      "inputs": [
        {
          "internalType": "string",
          "name": "symbol",
          "type": "string"
        },
        {
          "internalType": "bytes32",
          "name": "uti",
          "type": "bytes32"
        }
      ],
      "name": "getAuditTrail",
      "outputs": [
        {
          "components": [
            {
              "internalType": "address",
              "name": "sender",
              "type": "address"
            },
            {
              "internalType": "bytes32",
              "name": "routedOrderID",
              "type": "bytes32"
            },
            {
              "internalType": "uint256",
              "name": "timestamp",
              "type": "uint256"
            },
            {
              "internalType": "string",
              "name": "symbol",
              "type": "string"
            },
            {
              "internalType": "string",
              "name": "eventType",
              "type": "string"
            },
            {
              "internalType": "string",
              "name": "eventData",
              "type": "string"
            }
          ],
          "internalType": "struct IConsolidatedAuditTrail.AuditEntry[]",
          "name": "",
          "type": "tuple[]"
        }
      ],
      "stateMutability": "view",
      "type": "function",
      "constant": true
    },
    {
      "inputs": [
        {
          "internalType": "uint256",
          "name": "startingTimestamp",
          "type": "uint256"
        },
        {
          "internalType": "uint256",
          "name": "endingTimestamp",
          "type": "uint256"
        },
        {
          "internalType": "string",
          "name": "symbol",
          "type": "string"
        },
        {
          "internalType": "bytes32",
          "name": "uti",
          "type": "bytes32"
        }
      ],
      "name": "getAuditTrailRange",
      "outputs": [
        {
          "components": [
            {
              "internalType": "address",
              "name": "sender",
              "type": "address"
            },
            {
              "internalType": "bytes32",
              "name": "routedOrderID",
              "type": "bytes32"
            },
            {
              "internalType": "uint256",
              "name": "timestamp",
              "type": "uint256"
            },
            {
              "internalType": "string",
              "name": "symbol",
              "type": "string"
            },
            {
              "internalType": "string",
              "name": "eventType",
              "type": "string"
            },
            {
              "internalType": "string",
              "name": "eventData",
              "type": "string"
            }
          ],
          "internalType": "struct IConsolidatedAuditTrail.AuditEntry[]",
          "name": "",
          "type": "tuple[]"
        }
      ],
      "stateMutability": "nonpayable",
      "type": "function"
    },
    {
      "inputs": [
        {
          "internalType": "uint256",
          "name": "startingTimestamp",
          "type": "uint256"
        },
        {
          "internalType": "uint256",
          "name": "endingTimestamp",
          "type": "uint256"
        },
        {
          "internalType": "string",
          "name": "symbol",
          "type": "string"
        },
        {
          "internalType": "bytes32",
          "name": "uti",
          "type": "bytes32"
        },
        {
          "internalType": "uint256",
          "name": "page",
          "type": "uint256"
        },
        {
          "internalType": "uint256",
          "name": "pageSize",
          "type": "uint256"
        }
      ],
      "name": "getAuditTrailRange",
      "outputs": [
        {
          "components": [
            {
              "internalType": "address",
              "name": "sender",
              "type": "address"
            },
            {
              "internalType": "bytes32",
              "name": "routedOrderID",
              "type": "bytes32"
            },
            {
              "internalType": "uint256",
              "name": "timestamp",
              "type": "uint256"
            },
            {
              "internalType": "string",
              "name": "symbol",
              "type": "string"
            },
            {
              "internalType": "string",
              "name": "eventType",
              "type": "string"
            },
            {
              "internalType": "string",
              "name": "eventData",
              "type": "string"
            }
          ],
          "internalType": "struct IConsolidatedAuditTrail.AuditEntry[]",
          "name": "",
          "type": "tuple[]"
        }
      ],
      "stateMutability": "view",
      "type": "function",
      "constant": true
    },
    {
      "inputs": [],
      "name": "getAuditTrailComplete",
      "outputs": [
        {
          "components": [
            {
              "internalType": "address",
              "name": "sender",
              "type": "address"
            },
            {
              "internalType": "bytes32",
              "name": "routedOrderID",
              "type": "bytes32"
            },
            {
              "internalType": "uint256",
              "name": "timestamp",
              "type": "uint256"
            },
            {
              "internalType": "string",
              "name": "symbol",
              "type": "string"
            },
            {
              "internalType": "string",
              "name": "eventType",
              "type": "string"
            },
            {
              "internalType": "string",
              "name": "eventData",
              "type": "string"
            }
          ],
          "internalType": "struct IConsolidatedAuditTrail.AuditEntry[]",
          "name": "",
          "type": "tuple[]"
        }
      ],
      "stateMutability": "view",
      "type": "function",
      "constant": true
    },
    {
      "inputs": [
        {
          "internalType": "uint256",
          "name": "newRate",
          "type": "uint256"
        }
      ],
      "name": "setExchangeRate",
      "outputs": [],
      "stateMutability": "nonpayable",
      "type": "function"
    },
    {
      "inputs": [],
      "name": "getExchangeRate",
      "outputs": [
        {
          "internalType": "uint256",
          "name": "",
          "type": "uint256"
        }
      ],
      "stateMutability": "view",
      "type": "function",
      "constant": true
    },
    {
      "inputs": [
        {
          "internalType": "uint256",
          "name": "weiAmount",
          "type": "uint256"
        }
      ],
      "name": "weiToUSD",
      "outputs": [
        {
          "internalType": "uint256",
          "name": "",
          "type": "uint256"
        }
      ],
      "stateMutability": "view",
      "type": "function",
      "constant": true
    },
    {
      "inputs": [
        {
          "internalType": "uint256",
          "name": "usdAmount",
          "type": "uint256"
        }
      ],
      "name": "usdToWei",
      "outputs": [
        {
          "internalType": "uint256",
          "name": "",
          "type": "uint256"
        }
      ],
      "stateMutability": "view",
      "type": "function",
      "constant": true
    },
    {
      "inputs": [
        {
          "internalType": "uint256",
          "name": "usdAmount",
          "type": "uint256"
        }
      ],
      "name": "usdToEth",
      "outputs": [
        {
          "internalType": "string",
          "name": "",
          "type": "string"
        }
      ],
      "stateMutability": "view",
      "type": "function",
      "constant": true
    },
    {
      "inputs": [],
      "name": "timestampToString",
      "outputs": [
        {
          "internalType": "string",
          "name": "",
          "type": "string"
        }
      ],
      "stateMutability": "view",
      "type": "function",
      "constant": true
    },
    {
      "inputs": [
        {
          "internalType": "uint256",
          "name": "value",
          "type": "uint256"
        }
      ],
      "name": "uintToString",
      "outputs": [
        {
          "internalType": "string",
          "name": "",
          "type": "string"
        }
      ],
      "stateMutability": "pure",
      "type": "function",
      "constant": true
    }
  ],
  "bytecode": "0x6080604052600060015534801561001557600080fd5b506005805461010060a860020a03191633610100021790556123ae8061003c6000396000f3fe608060405234801561001057600080fd5b50600436106100de5760e060020a6000350463101b5eed81146100e357806319b4e6a0146101115780631e54b0d81461013157806323633efb146101525780633ba0b9a91461015a57806349be9c5a146101635780634ba1e193146101765780638da5cb5b1461018b578063963d92ea146101bb578063a44a148f146101c4578063a6a86130146101d7578063bcecf667146101ea578063d2df254c146101fd578063db068e0e14610210578063e6aa216c14610225578063e93956791461022d578063f06d897014610240575b600080fd5b6100f66100f1366004611cd5565b61028e565b60405161010896959493929190611d72565b60405180910390f35b61012461011f366004611dd3565b61049c565b6040516101089190611e2a565b61014461013f366004611ef5565b610a58565b604051908152602001610108565b610124610db2565b61014460045481565b610124610171366004611fa1565b610ff2565b61017e6114d0565b604051610108919061200c565b6005546101a3906101009004600160a060020a031681565b604051600160a060020a039091168152602001610108565b61014460015481565b6101246101d236600461201f565b61165e565b6101446101e5366004612063565b6118c1565b61017e6101f8366004612063565b6118ec565b61014461020b366004612063565b611926565b61022361021e366004612063565b611940565b005b600454610144565b61017e61023b366004612063565b6119c2565b61027e61024e36600461201f565b81516020818401810180516003825292820194820194909420919093529091526000908152604090205460ff1681565b6040519015158152602001610108565b825160208185018101805160008083529383018388012091529052828152604090208054829081106102bf57600080fd5b60009182526020909120600690910201805460018201546002830154600384018054600160a060020a0390941697509195509350906102fd9061207c565b80601f01602080910402602001604051908101604052809291908181526020018280546103299061207c565b80156103765780601f1061034b57610100808354040283529160200191610376565b820191906000526020600020905b81548152906001019060200180831161035957829003601f168201915b50505050509080600401805461038b9061207c565b80601f01602080910402602001604051908101604052809291908181526020018280546103b79061207c565b80156104045780601f106103d957610100808354040283529160200191610404565b820191906000526020600020905b8154815290600101906020018083116103e757829003601f168201915b5050505050908060050180546104199061207c565b80601f01602080910402602001604051908101604052809291908181526020018280546104459061207c565b80156104925780601f1061046757610100808354040283529160200191610492565b820191906000526020600020905b81548152906001019060200180831161047557829003601f168201915b5050505050905086565b6060806000846040516104af91906120ba565b9081526040805191829003602090810183206000878152908252828120805480840286018401909452838552929184015b828210156106f35760008481526020908190206040805160c081018252600686029092018054600160a060020a0316835260018101549383019390935260028301549082015260038201805491929160608401919061053e9061207c565b80601f016020809104026020016040519081016040528092919081815260200182805461056a9061207c565b80156105b75780601f1061058c576101008083540402835291602001916105b7565b820191906000526020600020905b81548152906001019060200180831161059a57829003601f168201915b505050505081526020016004820180546105d09061207c565b80601f01602080910402602001604051908101604052809291908181526020018280546105fc9061207c565b80156106495780601f1061061e57610100808354040283529160200191610649565b820191906000526020600020905b81548152906001019060200180831161062c57829003601f168201915b505050505081526020016005820180546106629061207c565b80601f016020809104026020016040519081016040528092919081815260200182805461068e9061207c565b80156106db5780601f106106b0576101008083540402835291602001916106db565b820191906000526020600020905b8154815290600101906020018083116106be57829003601f168201915b505050505081525050815260200190600101906104e0565b50505050905060005b81518110156108135786828281518110610718576107186120d6565b6020026020010151604001511015801561074e575085828281518110610740576107406120d6565b602002602001015160400151105b15610801576002828281518110610767576107676120d6565b60209081029190910181015182546001808201855560009485529383902082516006909202018054600160a060020a031916600160a060020a03909216919091178155918101519282019290925560408201516002820155606082015160038201906107d3908261213f565b50608082015160048201906107e8908261213f565b5060a082015160058201906107fd908261213f565b5050505b8061080b8161221e565b9150506106fc565b506002805480602002602001604051908101604052809291908181526020016000905b82821015610a495760008481526020908190206040805160c081018252600686029092018054600160a060020a031683526001810154938301939093526002830154908201526003820180549192916060840191906108949061207c565b80601f01602080910402602001604051908101604052809291908181526020018280546108c09061207c565b801561090d5780601f106108e25761010080835404028352916020019161090d565b820191906000526020600020905b8154815290600101906020018083116108f057829003601f168201915b505050505081526020016004820180546109269061207c565b80601f01602080910402602001604051908101604052809291908181526020018280546109529061207c565b801561099f5780601f106109745761010080835404028352916020019161099f565b820191906000526020600020905b81548152906001019060200180831161098257829003601f168201915b505050505081526020016005820180546109b89061207c565b80601f01602080910402602001604051908101604052809291908181526020018280546109e49061207c565b8015610a315780601f10610a0657610100808354040283529160200191610a31565b820191906000526020600020905b815481529060010190602001808311610a1457829003601f168201915b50505050508152505081526020019060010190610836565b50505050915050949350505050565b60055460009060ff1615610a8a5760405160e560020a62461bcd028152600401610a8190612237565b60405180910390fd5b6005805460ff191660011790556000610aa285611ac9565b9050600386604051610ab491906120ba565b90815260408051602092819003830190206000848152925290205460ff1615610b1a5760405160e560020a62461bcd0281526020600482015260126024820152607060020a7155544920616c726561647920657869737473026044820152606401610a81565b6040805160c0810182523381526020810183815242928201928352606082018981526080830188905260a083018790526002805460018101825560009190915283517f405787fa12a823e0f2b7631cc41b3ba8828b3321ca811111fa75cd3aa3bb5ace60069092029182018054600160a060020a031916600160a060020a0390921691909117815592517f405787fa12a823e0f2b7631cc41b3ba8828b3321ca811111fa75cd3aa3bb5acf82015593517f405787fa12a823e0f2b7631cc41b3ba8828b3321ca811111fa75cd3aa3bb5ad085015551919283927f405787fa12a823e0f2b7631cc41b3ba8828b3321ca811111fa75cd3aa3bb5ad190910190610c22908261213f565b5060808201516004820190610c37908261213f565b5060a08201516005820190610c4c908261213f565b505050600087604051610c5f91906120ba565b908152604080516020928190038301902060008581529083528181208054600180820183559183529184902085516006909302018054600160a060020a031916600160a060020a039093169290921782559284015192810192909255820151600282015560608201518291906003820190610cda908261213f565b5060808201516004820190610cef908261213f565b5060a08201516005820190610d04908261213f565b5050506001600388604051610d1991906120ba565b9081526040805160209281900383019020600086815292528120805460ff1916921515929092179091556001805491610d518361221e565b919050555033600160a060020a0316827fe23fbfadf650369e2275f5705b09eec387876b680d531fd460a2cd68feb8e2c789428989604051610d96949392919061226b565b60405180910390a3506005805460ff1916905595945050505050565b60606002805480602002602001604051908101604052809291908181526020016000905b82821015610fe95760008481526020908190206040805160c081018252600686029092018054600160a060020a03168352600181015493830193909352600283015490820152600382018054919291606084019190610e349061207c565b80601f0160208091040260200160405190810160405280929190818152602001828054610e609061207c565b8015610ead5780601f10610e8257610100808354040283529160200191610ead565b820191906000526020600020905b815481529060010190602001808311610e9057829003601f168201915b50505050508152602001600482018054610ec69061207c565b80601f0160208091040260200160405190810160405280929190818152602001828054610ef29061207c565b8015610f3f5780601f10610f1457610100808354040283529160200191610f3f565b820191906000526020600020905b815481529060010190602001808311610f2257829003601f168201915b50505050508152602001600582018054610f589061207c565b80601f0160208091040260200160405190810160405280929190818152602001828054610f849061207c565b8015610fd15780601f10610fa657610100808354040283529160200191610fd1565b820191906000526020600020905b815481529060010190602001808311610fb457829003601f168201915b50505050508152505081526020019060010190610dd6565b50505050905090565b60606000808660405161100591906120ba565b9081526040805191829003602090810183206000898152908252828120805480840286018401909452838552929184015b828210156112495760008481526020908190206040805160c081018252600686029092018054600160a060020a031683526001810154938301939093526002830154908201526003820180549192916060840191906110949061207c565b80601f01602080910402602001604051908101604052809291908181526020018280546110c09061207c565b801561110d5780601f106110e25761010080835404028352916020019161110d565b820191906000526020600020905b8154815290600101906020018083116110f057829003601f168201915b505050505081526020016004820180546111269061207c565b80601f01602080910402602001604051908101604052809291908181526020018280546111529061207c565b801561119f5780601f106111745761010080835404028352916020019161119f565b820191906000526020600020905b81548152906001019060200180831161118257829003601f168201915b505050505081526020016005820180546111b89061207c565b80601f01602080910402602001604051908101604052809291908181526020018280546111e49061207c565b80156112315780601f1061120657610100808354040283529160200191611231565b820191906000526020600020905b81548152906001019060200180831161121457829003601f168201915b50505050508152505081526020019060010190611036565b505082519293505050846112a25760405160e560020a62461bcd02815260206004820152601e60248201527f50616765206d7573742062652067726561746572207468616e207a65726f00006044820152606401610a81565b600084116113045760405160e560020a62461bcd02815260206004820152602360248201527f506167652073697a65206d7573742062652067726561746572207468616e207a604482015260e860020a6265726f026064820152608401610a81565b6000846113126001886122b5565b61131c91906122c8565b9050600061132a86836122df565b905082821061137d5760405160e560020a62461bcd0281526020600482015260196024820152603860020a78537461727420696e646578206f7574206f6620626f756e6473026044820152606401610a81565b828111156113885750815b600061139483836122b5565b90506000816001604060020a038111156113b0576113b0611c2f565b60405190808252806020026020018201604052801561140f57816020015b6040805160c081018252600080825260208083018290529282015260608082018190526080820181905260a082015282526000199092019101816113ce5790505b509050835b838110156114bf578d87828151811061142f5761142f6120d6565b6020026020010151604001511015801561146557508c878281518110611457576114576120d6565b602002602001015160400151105b156114ad5786818151811061147c5761147c6120d6565b602002602001015182868361149191906122b5565b815181106114a1576114a16120d6565b60200260200101819052505b806114b78161221e565b915050611414565b509c9b505050505050505050505050565b60408051601480825281830190925260609142916000908260208201818036833701905050905060006115046001846122b5565b90505b831561156f57611518600a8561230c565b6115239060306122df565b60f860020a02828261153481612320565b935081518110611546576115466120d6565b6020010190600160f860020a031916908160001a905350611568600a85612337565b9350611507565b6000600161157d83866122b5565b61158791906122b5565b6001604060020a0381111561159e5761159e611c2f565b6040519080825280601f01601f1916602001820160405280156115c8576020820181803683370190505b50905060006115d88360016122df565b90505b84811015611654578381815181106115f5576115f56120d6565b016020015160f860020a908190040282600161161186856122b5565b61161b91906122b5565b8151811061162b5761162b6120d6565b6020010190600160f860020a031916908160001a9053508061164c8161221e565b9150506115db565b5095945050505050565b606060008360405161167091906120ba565b9081526040805191829003602090810183206000868152908252828120805480840286018401909452838552929184015b828210156118b45760008481526020908190206040805160c081018252600686029092018054600160a060020a031683526001810154938301939093526002830154908201526003820180549192916060840191906116ff9061207c565b80601f016020809104026020016040519081016040528092919081815260200182805461172b9061207c565b80156117785780601f1061174d57610100808354040283529160200191611778565b820191906000526020600020905b81548152906001019060200180831161175b57829003601f168201915b505050505081526020016004820180546117919061207c565b80601f01602080910402602001604051908101604052809291908181526020018280546117bd9061207c565b801561180a5780601f106117df5761010080835404028352916020019161180a565b820191906000526020600020905b8154815290600101906020018083116117ed57829003601f168201915b505050505081526020016005820180546118239061207c565b80601f016020809104026020016040519081016040528092919081815260200182805461184f9061207c565b801561189c5780601f106118715761010080835404028352916020019161189c565b820191906000526020600020905b81548152906001019060200180831161187f57829003601f168201915b505050505081525050815260200190600101906116a1565b5050505090505b92915050565b60008060045483670de0b6b3a76400006118db91906122c8565b6118e59190612337565b9392505050565b6060600060045483670de0b6b3a764000061190791906122c8565b6119119190612337565b9050600061191e82611af9565b949350505050565b600080670de0b6b3a7640000600454846118db91906122c8565b60055460ff16156119665760405160e560020a62461bcd028152600401610a8190612237565b6005805460ff19166001179055600480549082905560408051828152602081018490527f94ba2c03d38d7fc5b2edf28eda051d30caada7937ab30a082a826942f6a02cc4910160405180910390a150506005805460ff19169055565b6060816000036119ec575050604080518082019091526001815260fc60020a600302602082015290565b8160005b8115611a165780611a008161221e565b9150611a0f9050600a83612337565b91506119f0565b6000816001604060020a03811115611a3057611a30611c2f565b6040519080825280601f01601f191660200182016040528015611a5a576020820181803683370190505b5090508492505b821561191e57611a72600a8461230c565b611a7d9060306122df565b60f860020a0281611a8d84612320565b93508381518110611aa057611aa06120d6565b6020010190600160f860020a031916908160001a905350611ac2600a84612337565b9250611a61565b600081604051602001611adc91906120ba565b604051602081830303815290604052805190602001209050919050565b606081600003611b23575050604080518082019091526001815260fc60020a600302602082015290565b8160005b8115611b4d5780611b378161221e565b9150611b469050600a83612337565b9150611b27565b6060816001604060020a03811115611b6757611b67611c2f565b6040519080825280601f01601f191660200182016040528015611b91576020820181803683370190505b5090505b8415611c055781611ba581612320565b925060009050611bb6600a8761230c565b9050611bc3600a87612337565b9550611bd08160306122df565b60f860020a02828481518110611be857611be86120d6565b6020010190600160f860020a031916908160001a90535050611b95565b80604051602001611c16919061234b565b6040516020818303038152906040529350505050919050565b60e060020a634e487b710260009081526041600452602490fd5b600082601f830112611c5a57600080fd5b81356001604060020a0380821115611c7457611c74611c2f565b604051601f8301601f19908116603f01168101908282118183101715611c9c57611c9c611c2f565b81604052838152866020858801011115611cb557600080fd5b836020870160208301376000602085830101528094505050505092915050565b600080600060608486031215611cea57600080fd5b83356001604060020a03811115611d0057600080fd5b611d0c86828701611c49565b9660208601359650604090950135949350505050565b60005b83811015611d3d578181015183820152602001611d25565b50506000910152565b60008151808452611d5e816020860160208601611d22565b601f01601f19169290920160200192915050565b600160a060020a038716815285602082015284604082015260c060608201526000611da060c0830186611d46565b8281036080840152611db28186611d46565b905082810360a0840152611dc68185611d46565b9998505050505050505050565b60008060008060808587031215611de957600080fd5b843593506020850135925060408501356001604060020a03811115611e0d57600080fd5b611e1987828801611c49565b949793965093946060013593505050565b60208082528251828201819052600091906040908185019080840286018301878501865b83811015611ee757888303603f1901855281518051600160a060020a031684528781015188850152868101518785015260608082015160c08287018190529190611e9a83880182611d46565b9250505060808083015186830382880152611eb58382611d46565b9250505060a08083015192508582038187015250611ed38183611d46565b968901969450505090860190600101611e4e565b509098975050505050505050565b60008060008060808587031215611f0b57600080fd5b84356001604060020a0380821115611f2257600080fd5b611f2e88838901611c49565b95506020870135915080821115611f4457600080fd5b611f5088838901611c49565b94506040870135915080821115611f6657600080fd5b611f7288838901611c49565b93506060870135915080821115611f8857600080fd5b50611f9587828801611c49565b91505092959194509250565b60008060008060008060c08789031215611fba57600080fd5b863595506020870135945060408701356001604060020a03811115611fde57600080fd5b611fea89828a01611c49565b945050606087013592506080870135915060a087013590509295509295509295565b6020815260006118e56020830184611d46565b6000806040838503121561203257600080fd5b82356001604060020a0381111561204857600080fd5b61205485828601611c49565b95602094909401359450505050565b60006020828403121561207557600080fd5b5035919050565b60028104600182168061209057607f821691505b6020821081036120b45760e060020a634e487b710260009081526022600452602490fd5b50919050565b600082516120cc818460208701611d22565b9190910192915050565b60e060020a634e487b710260009081526032600452602490fd5b601f82111561213a576000818152602081206020601f860104810160208610156121175750805b6020601f860104820191505b8181101561213657828155600101612123565b5050505b505050565b81516001604060020a0381111561215857612158611c2f565b61216c81612166845461207c565b846120f0565b602080601f8311600181146121a557600084156121895750858301515b60028086026008870290910a6000190419821617865550612136565b600085815260208120601f198616915b828110156121d4578886015182559484019460019091019084016121b5565b50858210156121f457878501516008601f88160260020a60001904191681555b5050505050600202600101905550565b60e060020a634e487b710260009081526011600452602490fd5b60006001820161223057612230612204565b5060010190565b6020808252601790820152604a60020a761499595b9d1c985b9d0818d85b1b0819195d1958dd195902604082015260600190565b60808152600061227e6080830187611d46565b85602084015282810360408401526122968186611d46565b905082810360608401526122aa8185611d46565b979650505050505050565b818103818111156118bb576118bb612204565b80820281158282048414176118bb576118bb612204565b808201808211156118bb576118bb612204565b60e060020a634e487b710260009081526012600452602490fd5b60008261231b5761231b6122f2565b500690565b60008161232f5761232f612204565b506000190190565b600082612346576123466122f2565b500490565b60f160020a6118170281526000825161236b816002850160208701611d22565b919091016002019291505056fea26469706673582212202c2eac835983621737459f25184bc990e926d415d814e7750171832df1124dd964736f6c63430008120033",
  "immutableReferences": {},
  "source": "// SPDX-License-Identifier: BSL-1.1\npragma solidity >=0.4.22 <0.9.0;\n\n/*\n * In this example, the AuditableContract smart contract has a struct named AuditTrail to store relevant data such as the user address, \n * action performed, and the timestamp of the action. The auditTrails array is used to store the audit trail logs.\n *\n * The addAuditTrail function allows users to add an audit trail entry by providing the action as a parameter. \n * It creates a new AuditTrail object with the sender's address, the provided action, and the current timestamp. \n * The new entry is then added to the auditTrails array, and the AuditTrailAdded event is emitted to signal the addition of a new audit trail.\n *\n * To use this contract, deploy it to an Ethereum network, and then call the addAuditTrail function whenever you want to add an audit trail entry. \n * The action performed can be passed as an argument to the function.\n &\n * Each time the addAuditTrail function is called, a new entry will be added to the auditTrails array, \n * and the AuditTrailAdded event will be emitted. You can listen to this event to capture and store the audit trail logs externally.\n *\n * See https://www.sec.gov/divisions/marketreg/rule613-info\n*/\n// Reengineering the Audit with Blockchain and Smart Contracts - https://publications.aaahq.org/jeta/article-abstract/16/1/21/9276/Reengineering-the-Audit-with-Blockchain-and-Smart?redirectedFrom=fulltext\n\nimport \"../../interfaces/IConsolidatedAuditTrail.sol\";\n\ncontract ConsolidatedAuditTrail is IConsolidatedAuditTrail {\n\n    // Mapping of unique trade identifiers (UTIs) to their corresponding audit entries\n    mapping(string => mapping(bytes32 => AuditEntry[])) public auditTrail;\n    uint256 public auditTrailTotal = 0;\n    AuditEntry[] pending;\n    \n    // Mapping of UTIs to a flag indicating whether it exists\n    mapping(string => mapping(bytes32 => bool)) public utiExists;\n\n\n\n    uint256 public exchangeRate;\n\n    // Variable to track reentrant calls\n    bool private reentrantGuard;\n\n    address public owner;\n\n    constructor() {\n        owner = msg.sender;\n    }\n\n    modifier nonReentrant() {\n        require(!reentrantGuard, \"Reentrant call detected\");\n        reentrantGuard = true;\n        _;\n        reentrantGuard = false;\n    }\n\n\n    // Function to add a new audit entry\n    /**\n     * Trade Execution: When a trade occurs on the decentralized exchange, the financial institution calls the addAuditEntry function of the CAT contract, \n     * passing the necessary trade details, such as the trade ID, transaction details, and involved parties. \n     * For example:\n     *\n     *      catContract.addAuditEntry(\"PEIKX-A1\", \"TRADE123\", \"Trade Execution\", \"Buy 10 ETH at $2000 from Address A\");\n     *\n     * eventDetail in the following format:\n     *\n     *  {\n     *      \"tradeId\": \"TRADE123\",\n     *      \"transactionHash\": \"0x7634baeeae9a8487671906e5a60d2845974b8bfd6285ac7525ed7f5b71f090db\",\n     *      \"assetSymbol\": \"PEIKX-A1\",\n     *      \"assetContractAddress\": \"0x429Fd2E795b3C8f51b5ea08255EAB8C31Db955df\",\n     *      \"quantity\": 10,\n     *      \"buyer\": \"0x490e7f14f80807df3f814331D48103BEC8eD03bf\",\n     *      \"seller\": \"0x9F30e3755035dcaf201b2b48C85F0a4649E7a9ba\",\n     *      \"timestamp\": 1654191900\n     *  }\n     *\n     */\n    function addAuditEntry(string memory symbol, string memory eventDetail, string memory eventType, string memory eventData) override external nonReentrant returns (bytes32) {\n        \n        bytes32 uti = generateUTI(eventDetail);\n        \n        require(!utiExists[symbol][uti], \"UTI already exists\");\n        \n        AuditEntry memory entry = AuditEntry({\n            sender: msg.sender,\n            routedOrderID: uti,\n            timestamp: block.timestamp,\n            symbol: symbol,\n            eventType: eventType,\n            eventData: eventData\n        });\n\n        pending.push(entry);\n        \n        auditTrail[symbol][uti].push(entry);\n        utiExists[symbol][uti] = true;\n        auditTrailTotal++;\n        \n        emit AuditEntryAdded(symbol, uti, msg.sender, block.timestamp, eventType, eventData);\n\n        return uti;\n    }\n\n        /**\n         * CONSOLIDATED AUDIT TRAIL (CAT) entry format:\n         * -------------------------------------------\n         *\n         * assetSymbol: <token symbol>,  \n         * assetContractAddress: <contract address of token>,  \n         * quantity: <number of tokens>,  \n         * buyer: <buyer waller address>,  \n         * seller: <seller wallet address>, \n         * timestamp: <timestamp>\n         */\n    \n    // Function to retrieve the audit trail for a specific UTI\n    /**\n     * Audit Trail Retrieval: To retrieve the audit trail for a specific trade, the financial institution calls the getAuditTrail function of the CAT contract, \n     * providing the corresponding UTI. \n     * For example:\n     *\n     *      AuditEntry[] memory tradeAuditTrail = catContract.getAuditTrail(\"PEIKX-A1\", generateUTI(\"TRADE123\"));\n     *\n     */\n    function getAuditTrail(string memory symbol, bytes32 uti) override external view returns (AuditEntry[] memory) {\n        return auditTrail[symbol][uti];\n    }\n\n    function getAuditTrailRange(uint256 startingTimestamp,uint256 endingTimestamp,string memory symbol,bytes32 uti) external  returns (AuditEntry[] memory) {\n        AuditEntry[] memory selected;\n        selected = auditTrail[symbol][uti];\n\n        for (uint256 i=0; i < selected.length; i++) {\n            if (selected[i].timestamp >= startingTimestamp && selected[i].timestamp < endingTimestamp) {\n                pending.push(selected[i]);\n            }\n        }\n        return pending;\n    }\n\n    function getAuditTrailRange(uint256 startingTimestamp, uint256 endingTimestamp, string memory symbol, bytes32 uti, uint256 page, uint256 pageSize)\n        external view\n        \n        returns (AuditEntry[] memory)\n    {\n        AuditEntry[] memory selected = auditTrail[symbol][uti];\n        uint256 totalCount = selected.length;\n\n        require(page > 0, \"Page must be greater than zero\");\n        require(pageSize > 0, \"Page size must be greater than zero\");\n\n        uint256 startIndex = (page - 1) * pageSize;\n        uint256 endIndex = startIndex + pageSize;\n\n        // Ensure that startIndex is within bounds\n        require(startIndex < totalCount, \"Start index out of bounds\");\n\n        if (endIndex > totalCount) {\n            endIndex = totalCount; // Ensure endIndex does not exceed the total count\n        }\n\n        uint256 resultSize = endIndex - startIndex;\n        AuditEntry[] memory result = new AuditEntry[](resultSize);\n\n        for (uint256 i = startIndex; i < endIndex; i++) {\n            if (selected[i].timestamp >= startingTimestamp && selected[i].timestamp < endingTimestamp) {\n                result[i - startIndex] = selected[i];\n            }\n        }\n\n        return result;\n    }\n\n\n    function getAuditTrailComplete() external view  returns (AuditEntry[] memory) {\n        return pending;\n    }\n\n    /*\n     * Exchnage rate is updated nightly at 5:00 pm NY Time\n     */\n    function setExchangeRate(uint256 newRate) external nonReentrant  {\n        uint256 oldRate = exchangeRate;\n        exchangeRate = newRate;\n        emit ExchangeRateChange(oldRate, exchangeRate);\n    }\n\n    function getExchangeRate() external view returns (uint256) {\n        return exchangeRate;\n    }\n\n    function weiToUSD(uint256 weiAmount) external view returns (uint256) {\n        uint256 usdAmount = (weiAmount * exchangeRate) / 1e18; // Assuming 1 ETH = 1e18 Wei\n        return usdAmount;\n    }\n\n    function usdToWei(uint256 usdAmount) external view returns (uint256) {\n        uint256 weiAmount = (usdAmount * 1e18) / exchangeRate; // Assuming 1 ETH = 1e18 Wei\n        return weiAmount;\n    }\n\n    function usdToEth(uint256 usdAmount) external view returns (string memory) {\n        uint256 ethAmount = (usdAmount * 1e18) / exchangeRate; // Assuming 1 ETH = 1e18 Wei\n        string memory ethString = int256ToString(ethAmount); \n        return ethString;\n    }\n\n\n    // internal functions\n    // Function to generate a UTI using trade-specific details\n    function generateUTI(string memory tradeDetails) internal pure returns (bytes32) {\n        return keccak256(abi.encodePacked(tradeDetails));\n    }\n\n    function compareStrings(string memory a, string memory b) internal pure returns (bool) {\n        return (keccak256(abi.encodePacked((a))) == keccak256(abi.encodePacked((b))));\n    }\n\n    function int256ToString(uint256 value) internal pure returns (string memory) {\n        if (value == 0) {\n            return \"0\";\n        }\n                \n        uint256 temp = uint256(value);\n        uint256 length = 0;\n        while (temp != 0) {\n            length++;\n            temp /= 10;\n        }\n        \n        bytes memory buffer;\n        buffer = new bytes(length);\n        \n        while (value != 0) {\n            length--;\n            uint256 remainder = value % 10;\n            value /= 10;\n            buffer[length] = bytes1(uint8(48 + remainder));\n        }\n        \n        return string(abi.encodePacked(\"0.\", string(buffer)));\n    }\n\n    function timestampToString() external view returns (string memory) {\n        uint256 timestamp = block.timestamp;\n        uint256 maxLength = 20; // Maximum length of the string (adjust as needed)\n        bytes memory buffer = new bytes(maxLength);\n        uint256 i = maxLength - 1;\n        \n        while (timestamp > 0) {\n            buffer[i--] = bytes1(uint8(48 + timestamp % 10)); // Convert digit to ASCII\n            timestamp /= 10;\n        }\n        \n        bytes memory result = new bytes(maxLength - i - 1);\n        for (uint256 j = i + 1; j < maxLength; j++) {\n            result[j - i - 1] = buffer[j];\n        }\n        \n        return string(result);\n    }\n\n    // Helper function to convert uint to string\n    function uintToString(uint256 value) external pure returns (string memory) {\n        if (value == 0) {\n            return \"0\";\n        }\n\n        uint256 temp = value;\n        uint256 digits;\n\n        while (temp > 0) {\n            digits++;\n            temp /= 10;\n        }\n\n        bytes memory buffer = new bytes(digits);\n        temp = value;\n        while (temp > 0) {\n            buffer[--digits] = bytes1(uint8(48 + temp % 10));\n            temp /= 10;\n        }\n\n        return string(buffer);\n    }\n}\n",
  "sourcePath": "/Volumes/My Book/projects/pingleware-contracts/contracts/finance/elmx/ConsolidatedAuditTrail.sol",
  "compiler": {
    "name": "solc",
    "version": "0.8.18+commit.87f61d96.Emscripten.clang"
  },
  "schemaVersion": "3.4.12",
  "updatedAt": "2023-10-27T17:12:27.117Z",
  "networkType": "ethereum",
  "devdoc": {
    "kind": "dev",
    "methods": {},
    "version": 1
  },
  "userdoc": {
    "kind": "user",
    "methods": {
      "addAuditEntry(string,string,string,string)": {
        "notice": "Trade Execution: When a trade occurs on the decentralized exchange, the financial institution calls the addAuditEntry function of the CAT contract,  passing the necessary trade details, such as the trade ID, transaction details, and involved parties.  For example:      catContract.addAuditEntry(\"PEIKX-A1\", \"TRADE123\", \"Trade Execution\", \"Buy 10 ETH at $2000 from Address A\"); eventDetail in the following format:  {      \"tradeId\": \"TRADE123\",      \"transactionHash\": \"0x7634baeeae9a8487671906e5a60d2845974b8bfd6285ac7525ed7f5b71f090db\",      \"assetSymbol\": \"PEIKX-A1\",      \"assetContractAddress\": \"0x429Fd2E795b3C8f51b5ea08255EAB8C31Db955df\",      \"quantity\": 10,      \"buyer\": \"0x490e7f14f80807df3f814331D48103BEC8eD03bf\",      \"seller\": \"0x9F30e3755035dcaf201b2b48C85F0a4649E7a9ba\",      \"timestamp\": 1654191900  }"
      },
      "getAuditTrail(string,bytes32)": {
        "notice": "Audit Trail Retrieval: To retrieve the audit trail for a specific trade, the financial institution calls the getAuditTrail function of the CAT contract,  providing the corresponding UTI.  For example:      AuditEntry[] memory tradeAuditTrail = catContract.getAuditTrail(\"PEIKX-A1\", generateUTI(\"TRADE123\"));"
      }
    },
    "version": 1
  }
}