{
  "contractName": "consumerRegistry",
  "abi": [
    {
      "anonymous": false,
      "inputs": [
        {
          "indexed": false,
          "internalType": "address",
          "name": "sender",
          "type": "address"
        },
        {
          "indexed": false,
          "internalType": "address",
          "name": "recipient",
          "type": "address"
        }
      ],
      "name": "Destroyed",
      "type": "event"
    },
    {
      "anonymous": false,
      "inputs": [
        {
          "indexed": false,
          "internalType": "address",
          "name": "sender",
          "type": "address"
        },
        {
          "indexed": false,
          "internalType": "uint256",
          "name": "amount",
          "type": "uint256"
        }
      ],
      "name": "FallbackEvent",
      "type": "event"
    },
    {
      "anonymous": false,
      "inputs": [
        {
          "indexed": true,
          "internalType": "address",
          "name": "previousOwner",
          "type": "address"
        },
        {
          "indexed": true,
          "internalType": "address",
          "name": "newOwner",
          "type": "address"
        }
      ],
      "name": "OwnershipTransferred",
      "type": "event"
    },
    {
      "anonymous": false,
      "inputs": [
        {
          "indexed": false,
          "internalType": "address",
          "name": "sender",
          "type": "address"
        },
        {
          "indexed": false,
          "internalType": "uint256",
          "name": "amount",
          "type": "uint256"
        }
      ],
      "name": "ReceiveEvent",
      "type": "event"
    },
    {
      "anonymous": false,
      "inputs": [
        {
          "indexed": false,
          "internalType": "address",
          "name": "sender",
          "type": "address"
        },
        {
          "indexed": false,
          "internalType": "bytes",
          "name": "reason",
          "type": "bytes"
        }
      ],
      "name": "Started",
      "type": "event"
    },
    {
      "anonymous": false,
      "inputs": [
        {
          "indexed": false,
          "internalType": "address",
          "name": "sender",
          "type": "address"
        },
        {
          "indexed": false,
          "internalType": "bytes",
          "name": "reason",
          "type": "bytes"
        }
      ],
      "name": "Stopped",
      "type": "event"
    },
    {
      "anonymous": false,
      "inputs": [
        {
          "indexed": false,
          "internalType": "address",
          "name": "sender",
          "type": "address"
        },
        {
          "indexed": false,
          "internalType": "string",
          "name": "reason",
          "type": "string"
        }
      ],
      "name": "Termination",
      "type": "event"
    },
    {
      "anonymous": false,
      "inputs": [
        {
          "indexed": true,
          "internalType": "address",
          "name": "consumer",
          "type": "address"
        }
      ],
      "name": "consumerDeregistered",
      "type": "event"
    },
    {
      "anonymous": false,
      "inputs": [
        {
          "indexed": true,
          "internalType": "address",
          "name": "consumer",
          "type": "address"
        }
      ],
      "name": "consumerRegistered",
      "type": "event"
    },
    {
      "stateMutability": "payable",
      "type": "fallback"
    },
    {
      "inputs": [],
      "name": "VERSION",
      "outputs": [
        {
          "internalType": "string",
          "name": "",
          "type": "string"
        }
      ],
      "stateMutability": "view",
      "type": "function"
    },
    {
      "inputs": [],
      "name": "WAIT",
      "outputs": [
        {
          "internalType": "uint256",
          "name": "",
          "type": "uint256"
        }
      ],
      "stateMutability": "view",
      "type": "function"
    },
    {
      "inputs": [
        {
          "internalType": "address",
          "name": "",
          "type": "address"
        }
      ],
      "name": "consumers",
      "outputs": [
        {
          "internalType": "uint32",
          "name": "",
          "type": "uint32"
        }
      ],
      "stateMutability": "view",
      "type": "function"
    },
    {
      "inputs": [],
      "name": "destroy",
      "outputs": [],
      "stateMutability": "nonpayable",
      "type": "function"
    },
    {
      "inputs": [
        {
          "internalType": "address",
          "name": "_recipient",
          "type": "address"
        }
      ],
      "name": "destroyAndSend",
      "outputs": [],
      "stateMutability": "nonpayable",
      "type": "function"
    },
    {
      "inputs": [],
      "name": "getOwner",
      "outputs": [
        {
          "internalType": "address",
          "name": "",
          "type": "address"
        }
      ],
      "stateMutability": "payable",
      "type": "function"
    },
    {
      "inputs": [],
      "name": "renounceOwnership",
      "outputs": [],
      "stateMutability": "payable",
      "type": "function"
    },
    {
      "inputs": [
        {
          "internalType": "address",
          "name": "newOwner",
          "type": "address"
        }
      ],
      "name": "transferOwnership",
      "outputs": [],
      "stateMutability": "payable",
      "type": "function"
    },
    {
      "stateMutability": "payable",
      "type": "receive"
    },
    {
      "inputs": [
        {
          "internalType": "address",
          "name": "aconsumer",
          "type": "address"
        },
        {
          "internalType": "uint32",
          "name": "auserID",
          "type": "uint32"
        }
      ],
      "name": "registerConsumer",
      "outputs": [],
      "stateMutability": "payable",
      "type": "function"
    }
  ],
  "bytecode": "0x608060405260006001556003805460ff1916905534801561001f57600080fd5b5060008054600160a060020a031916339081178255426001556040519091907f8be0079c531659141344cd1fd0a4f28419497f9722a3daafe3b4186f6b6457e0908290a3610801806100726000396000f3fe60806040526004361061007d5760e060020a60003504630bf536688114610144578063715018a61461019157806383197ef01461019b578063893d20e8146101b0578063b8fb3a51146101d0578063ccf5c5cf146101f3578063f2fde38b14610206578063f5074f4114610219578063ffa1ad7414610239576100bd565b366100bd577fcc85d09d309785db93d6df19917f2e6cc07fe27cd01c08c8279145deb5cf452633346040516100b39291906105c9565b60405180910390a1005b3233146101135760405160e560020a62461bcd0281526020600482015260196024820152603860020a787068697368696e672061747461636b2064657465637465643f0260448201526064015b60405180910390fd5b7f26875833861a2b006512a11f1b86edf95df96131040f3caeed72989ee985808333346040516100b39291906105c9565b34801561015057600080fd5b5061017761015f3660046105fe565b60046020526000908152604090205463ffffffff1681565b60405163ffffffff90911681526020015b60405180910390f35b61019961027f565b005b3480156101a757600080fd5b506101996102e4565b6101b8610341565b604051600160a060020a039091168152602001610188565b3480156101dc57600080fd5b506101e5601e81565b604051908152602001610188565b610199610201366004610620565b6103b7565b6101996102143660046105fe565b610491565b34801561022557600080fd5b506101996102343660046105fe565b610572565b34801561024557600080fd5b506102726040518060400160405280600a815260200160b060020a69312e362e342d626574610281525081565b6040516101889190610660565b600054600160a060020a031633146102ac5760405160e560020a62461bcd02815260040161010a906106ae565b60008054604051600160a060020a03909116906000805160206107ac833981519152908390a360008054600160a060020a0319169055565b600054600160a060020a031633146103115760405160e560020a62461bcd02815260040161010a906106e2565b60008051602061078c83398151915233610329610341565b604051610337929190610719565b60405180910390a1565b6000601e6001546103529190610733565b42116103735760405160e560020a62461bcd02815260040161010a9061075e565b601e6001546103829190610733565b42116103a35760405160e560020a62461bcd02815260040161010a9061075e565b5042600155600054600160a060020a031690565b600054600160a060020a031633146103e45760405160e560020a62461bcd02815260040161010a906106ae565b63ffffffff81161561042957604051600160a060020a038316907faba09d491d88bf0ee0f8fc8f0168c0178e7210f18b5f524e052a72f550c4474a90600090a261045e565b604051600160a060020a038316907ffa23c8d074a5c45120a1bac6ecf198fd3fa6f45dabe40a18dfa423f69d52c30c90600090a25b600160a060020a03919091166000908152600460205260409020805463ffffffff191663ffffffff909216919091179055565b600054600160a060020a031633146104be5760405160e560020a62461bcd02815260040161010a906106ae565b600160a060020a0381166105295760405160e560020a62461bcd02815260206004820152602660248201527f4f776e61626c653a206e6577206f776e657220697320746865207a65726f2061604482015260d060020a6564647265737302606482015260840161010a565b60008054604051600160a060020a03808516939216916000805160206107ac83398151915291a360008054600160a060020a031916600160a060020a0392909216919091179055565b600054600160a060020a0316331461059f5760405160e560020a62461bcd02815260040161010a906106e2565b60008051602061078c83398151915233826040516105be929190610719565b60405180910390a150565b600160a060020a03929092168252602082015260400190565b8035600160a060020a03811681146105f957600080fd5b919050565b60006020828403121561061057600080fd5b610619826105e2565b9392505050565b6000806040838503121561063357600080fd5b61063c836105e2565b9150602083013563ffffffff8116811461065557600080fd5b809150509250929050565b600060208083528351808285015260005b8181101561068d57858101830151858201604001528201610671565b506000604082860101526040601f19601f8301168501019250505092915050565b6020808252601790820152604960020a7630b1b1b2b9b9903232b734b2b2103337b91037bbb732b902604082015260600190565b6020808252601b908201527f756e617574686f72697a65642c206e6f7420746865206f776e65720000000000604082015260600190565b600160a060020a0392831681529116602082015260400190565b808201808211156107585760e060020a634e487b710260009081526011600452602490fd5b92915050565b6020808252601090820152608160020a6f3930ba32903634b6b4ba1032b93937b90260408201526060019056fe91ca00fdf29069527d658f8dfc6d1c0bf9861780bb45ff36436f938d3595a8d68be0079c531659141344cd1fd0a4f28419497f9722a3daafe3b4186f6b6457e0a2646970667358221220aa30a025b55966d5514d0bc57595405cd8b8a18bf1078afcecad3f25385b8b6d64736f6c63430008120033",
  "immutableReferences": {},
  "source": "// SPDX-License-Identifier: CC-BY-4.0\r\npragma solidity >=0.4.22 <0.9.0;\r\n\r\nimport \"../common/Version.sol\";\r\nimport \"../common/Frozen.sol\";\r\n\r\ncontract consumerRegistry is Version, Frozen {\r\n  event consumerRegistered(address indexed consumer);\r\n  event consumerDeregistered(address indexed consumer);\r\n\r\n  // map address to userID\r\n  mapping(address => uint32) public consumers;\r\n\r\n  modifier onlyRegisteredConsumers {\r\n    require(consumers[msg.sender] > 0, \"\");\r\n    _;\r\n  }\r\n\r\n    /// @notice Allow the owner of the address `aconsumer.address()`\r\n    ///         to make transactions on behalf of user id `auserID`.\r\n    ///\r\n    /// @dev Register address aconsumer to belong to userID\r\n    ///      auserID. Addresses can be delisted (\"unregistered\") by\r\n    ///      setting the userID auserID to zero.\r\n    function registerConsumer(address aconsumer, uint32 auserID)\r\n        external\r\n        payable\r\n        onlyOwner\r\n    {\r\n        if (auserID != 0) {\r\n            emit consumerRegistered(aconsumer);\r\n        } else {\r\n            emit consumerDeregistered(aconsumer);\r\n        }\r\n        consumers[aconsumer] = auserID;\r\n    }\r\n}\r\n\r\n/// @title A contract that allows producer addresses to be registered.\r\n///\r\n/// @author Bjrn Stein, Quantum-Factory GmbH,\r\n///                      https://quantum-factory.de\r\n///\r\n/// @dev License: Attribution-NonCommercial-ShareAlike 2.0 Generic (CC\r\n///              BY-NC-SA 2.0), see\r\n///              https://creativecommons.org/licenses/by-nc-sa/2.0/\r\ncontract producerRegistry is Owned {\r\n  event producerRegistered(address indexed producer);\r\n  event producerDeregistered(address indexed producer);\r\n\r\n  // map address to bool \"is a registered producer\"\r\n  mapping(address => bool) public producers;\r\n\r\n  modifier onlyRegisteredProducers {\r\n    require(producers[msg.sender], \"\");\r\n    _;\r\n  }\r\n\r\n    /// @notice Allow the owner of address `aproducer.address()` to\r\n    ///         act as a producer (by offering energy).\r\n    function registerProducer(address aproducer)\r\n        external\r\n        payable\r\n        onlyOwner\r\n    {\r\n        emit producerRegistered(aproducer);\r\n        producers[aproducer] = true;\r\n    }\r\n\r\n    /// @notice Cease allowing the owner of address\r\n    ///         `aproducer.address()` to act as a producer (by\r\n    ///         offering energy).\r\n    function deregisterProducer(address aproducer)\r\n        external\r\n        payable\r\n        onlyOwner\r\n    {\r\n        emit producerDeregistered(aproducer);\r\n        producers[aproducer] = false;\r\n    }\r\n}\r\n\r\n/// @title The Lition Smart Contract, initial development version.\r\n///\r\n/// @author Bjrn Stein, Quantum-Factory GmbH,\r\n///                      https://quantum-factory.de\r\n///\r\n/// @dev License: Attribution-NonCommercial-ShareAlike 2.0 Generic (CC\r\n///              BY-NC-SA 2.0), see\r\n///              https://creativecommons.org/licenses/by-nc-sa/2.0/\r\ncontract EnergyStore is Version, Owned, consumerRegistry, producerRegistry {\r\n\r\n    event BidMade(address indexed producer, uint32 indexed day, uint32 indexed price, uint64 energy);\r\n    event BidRevoked(address indexed producer, uint32 indexed day, uint32 indexed price, uint64 energy);\r\n    event Deal(address indexed producer, uint32 indexed day, uint32 price, uint64 energy, uint32 indexed userID);\r\n    event DealRevoked(address indexed producer, uint32 indexed day, uint32 price, uint64 energy, uint32 indexed userID);\r\n\r\n    uint64 constant mWh = 1;\r\n    uint64 constant  Wh = 1000 * mWh;\r\n    uint64 constant kWh = 1000 * Wh;\r\n    uint64 constant MWh = 1000 * kWh;\r\n    uint64 constant GWh = 1000 * MWh;\r\n    uint64 constant TWh = 1000 * GWh;\r\n    uint64 constant maxEnergy = 18446 * GWh;\r\n\r\n    struct Bid {\r\n        address producer;   // producer's public key\r\n        uint32 day;         // day for which the offer is valid\r\n        uint32 price;       // price vs market price\r\n        uint64 energy;      // energy to sell\r\n        uint64 timestamp;   // timestamp for when the offer was submitted\r\n    }\r\n\r\n    struct Ask {\r\n        address producer;\r\n        uint32 day;\r\n        uint32 price;\r\n        uint64 energy;\r\n        uint32 userID;\r\n        uint64 timestamp;\r\n    }\r\n\r\n    // bids (for energy: offering energy for sale)\r\n    Bid[] public bids;\r\n\r\n    // asks (for energy: demanding energy to buy)\r\n    Ask[] public asks;\r\n\r\n    // map (address, day) to index into bids\r\n    mapping(address => mapping(uint32 => uint)) public bidsIndex;\r\n\r\n    // map (userid) to index into asks [last take written]\r\n    mapping(uint32 => uint) public asksIndex;\r\n\r\n    /// @notice Offer `(aenergy / 1.0e6).toFixed(6)` kWh of energy for\r\n    ///         day `aday` at a price `(aprice / 1.0e3).toFixed(3) + '\r\n    ///         ct/kWh'` above market price for a date given as day\r\n    ///         `aday` whilst asserting that the current date and time\r\n    ///         in nanoseconds since 1970 is `atimestamp`.\r\n    ///\r\n    /// @param aday Day for which the offer is valid.\r\n    /// @param aprice Price surcharge in millicent/kWh above market\r\n    ///        price\r\n    /// @param aenergy Energy to be offered in mWh\r\n    /// @param atimestamp UNIX time (seconds since 1970) in\r\n    ///        nanoseconds\r\n    function offer_energy(uint32 aday, uint32 aprice, uint64 aenergy, uint64 atimestamp)\r\n        external\r\n        payable\r\n        onlyRegisteredProducers\r\n    {\r\n        // require a minimum offer of 1 kWh\r\n        require(aenergy >= kWh, \"\");\r\n\r\n        uint idx = bidsIndex[msg.sender][aday];\r\n\r\n        // idx is either 0 or such that bids[idx] has the right producer and day (or both 0 and ...)\r\n        if ((bids.length > idx) && (bids[idx].producer == msg.sender) && (bids[idx].day == aday)) {\r\n            // we will only let newer timestamps affect the stored data\r\n            require(atimestamp > bids[idx].timestamp, \"\");\r\n\r\n            // NOTE: Should we sanity-check timestamps here (ensure that\r\n            //       they are either in the past or not in the too-distant\r\n            //       future compared to the last block's timestamp)?\r\n\r\n            emit BidRevoked(bids[idx].producer, bids[idx].day, bids[idx].price, bids[idx].energy);\r\n        }\r\n\r\n        // create entry with new index idx for (msg.sender, aday)\r\n        idx = bids.length;\r\n        bidsIndex[msg.sender][aday] = idx;\r\n        bids.push(Bid({\r\n            producer: msg.sender,\r\n            day: aday,\r\n            price: aprice,\r\n            energy: aenergy,\r\n            timestamp: atimestamp\r\n        }));\r\n        emit BidMade(bids[idx].producer, bids[idx].day, bids[idx].price, bids[idx].energy);\r\n    }\r\n\r\n    function getBidsCount()\r\n        external\r\n        view\r\n        returns(uint count)\r\n    {\r\n        return bids.length;\r\n    }\r\n\r\n    function getBidByProducerAndDay(address producer, uint32 day)\r\n        external\r\n        view\r\n        returns(uint32 price, uint64 energy)\r\n    {\r\n        uint idx = bidsIndex[producer][day];\r\n        require(bids.length > idx, \"\");\r\n        require(bids[idx].producer == producer, \"\");\r\n        require(bids[idx].day == day, \"\");\r\n        return (bids[idx].price, bids[idx].energy);\r\n    }\r\n\r\n    /// @notice Buy `(aenergy / 1.0e6).toFixed(6)` kWh of energy on\r\n    ///         behalf of user id `auserID` (possibly de-anonymized by\r\n    ///         randomization) for day `aday` at a surcharge `(aprice\r\n    ///         / 1.0e3).toFixed(3)` ct/kWh from the energy producer\r\n    ///         using the address `aproducer.address()` whilst\r\n    ///         asserting that the current time in seconds since 1970\r\n    ///         is `(atimestamp / 1.0e9)` seconds.\r\n    ///\r\n    /// @param aproducer Address of the producer offering the energy\r\n    ///        to be bought.\r\n    /// @param aday Day for which the offer is valid.\r\n    /// @param aprice Price surcharge in millicent/kWh above market\r\n    ///        price\r\n    /// @param aenergy Energy to be offered in mWh\r\n    /// @param atimestamp UNIX time (seconds since 1970) in\r\n    ///        nanoseconds\r\n    ///\r\n    /// @dev This function is meant to be called by Lition on behalf\r\n    ///      of customers.\r\n    function buy_energy(address aproducer, uint32 aday, uint32 aprice, uint64 aenergy, uint32 auserID, uint64 atimestamp)\r\n        external\r\n        payable\r\n        onlyOwner\r\n    {\r\n        buy_energy_core(aproducer, aday, aprice, aenergy, auserID, atimestamp);\r\n    }\r\n\r\n    /// @notice Buy `(aenergy / 1.0e6).toFixed(6)` kWh of energy on\r\n    ///          for day `aday` at a surcharge `(aprice /\r\n    ///          1.0e3).toFixed(3)` ct/kWh from the energy producer\r\n    ///          using the address `aproducer.address()`.\r\n    ///\r\n    /// @param aproducer Address of the producer offering the energy\r\n    ///        to be bought.\r\n    /// @param aday Day for which the offer is valid.\r\n    /// @param aprice Price surcharge in millicent/kWh above market\r\n    ///        price\r\n    /// @param aenergy Energy to be offered in mWh\r\n    ///\r\n    /// @dev This function is meant to be called by a Lition customer\r\n    ///      who has chosen to be registered for this ability and to\r\n    ///      decline anonymization by randomization of user ID.\r\n    function buy_energy(address aproducer, uint32 aday, uint32 aprice, uint64 aenergy)\r\n        external\r\n        payable\r\n        onlyRegisteredConsumers\r\n    {\r\n        buy_energy_core(aproducer, aday, aprice, aenergy, consumers[msg.sender], 0);\r\n    }\r\n\r\n    function buy_energy_core(address aproducer, uint32 aday, uint32 aprice, uint64 aenergy, uint32 auserID, uint64 atimestamp)\r\n        internal\r\n    {\r\n        // find offer by producer (aproducer) for day (aday), or zero\r\n        uint idx = bidsIndex[aproducer][aday];\r\n\r\n        // if the offer exists...\r\n        if ((bids.length > idx) && (bids[idx].producer == aproducer) && (bids[idx].day == aday)) {\r\n        // ...and has the right price\r\n            require(bids[idx].price == aprice, \"\");\r\n\r\n            // todo: prevent overwriting a later choice...\r\n\r\n            // ...then record the customer's choice\r\n            asksIndex[auserID] = asks.length;\r\n            asks.push(Ask({\r\n                producer: aproducer,\r\n                day: aday,\r\n                price: aprice,\r\n                energy: aenergy,\r\n                userID: auserID,\r\n                timestamp: atimestamp\r\n            }));\r\n            emit Deal(aproducer, aday, aprice, aenergy, auserID);\r\n        } else {\r\n            revert(\"the offer does not exist\");\r\n        }\r\n    }\r\n\r\n    function getAsksCount()\r\n        external\r\n        view\r\n        returns(uint count)\r\n    {\r\n        return asks.length;\r\n    }\r\n\r\n    function getAskByUserID(uint32 userID)\r\n        external\r\n        view\r\n        returns(address producer, uint32 day, uint32 price, uint64 energy)\r\n    {\r\n        uint idx = asksIndex[userID];\r\n        require(asks[idx].userID == userID, \"\");\r\n        return (asks[idx].producer, asks[idx].day, asks[idx].price, asks[idx].energy);\r\n    }\r\n}",
  "sourcePath": "/Volumes/My Book/projects/pingleware-contracts/contracts/energy/EnergyStore.sol",
  "compiler": {
    "name": "solc",
    "version": "0.8.18+commit.87f61d96.Emscripten.clang"
  },
  "schemaVersion": "3.4.12",
  "updatedAt": "2023-10-22T00:35:43.012Z",
  "devdoc": {
    "kind": "dev",
    "methods": {
      "registerConsumer(address,uint32)": {
        "details": "Register address aconsumer to belong to userID      auserID. Addresses can be delisted (\"unregistered\") by      setting the userID auserID to zero."
      },
      "renounceOwnership()": {
        "details": "Leaves the contract without owner. It will not be possible to call `onlyOwner` functions anymore. Can only be called by the current owner. NOTE: Renouncing ownership will leave the contract without an owner, thereby removing any functionality that is only available to the owner."
      },
      "transferOwnership(address)": {
        "details": "Transfers ownership of the contract to a new account (`newOwner`). Can only be called by the current owner."
      }
    },
    "version": 1
  },
  "userdoc": {
    "kind": "user",
    "methods": {
      "registerConsumer(address,uint32)": {
        "notice": "Allow the owner of the address `aconsumer.address()`         to make transactions on behalf of user id `auserID`."
      }
    },
    "version": 1
  }
}