{
  "contractName": "Consumer",
  "abi": [
    {
      "inputs": [],
      "name": "onlyConsumer",
      "outputs": [
        {
          "internalType": "bool",
          "name": "",
          "type": "bool"
        }
      ],
      "stateMutability": "view",
      "type": "function"
    },
    {
      "inputs": [
        {
          "internalType": "address",
          "name": "addr",
          "type": "address"
        }
      ],
      "name": "isConsumer",
      "outputs": [
        {
          "internalType": "bool",
          "name": "",
          "type": "bool"
        }
      ],
      "stateMutability": "view",
      "type": "function"
    },
    {
      "inputs": [
        {
          "internalType": "address",
          "name": "addr",
          "type": "address"
        }
      ],
      "name": "alreadyConsumer",
      "outputs": [
        {
          "internalType": "bool",
          "name": "",
          "type": "bool"
        }
      ],
      "stateMutability": "view",
      "type": "function"
    },
    {
      "inputs": [],
      "name": "getConsumers",
      "outputs": [
        {
          "internalType": "address[]",
          "name": "",
          "type": "address[]"
        }
      ],
      "stateMutability": "view",
      "type": "function"
    }
  ],
  "bytecode": "0x6103a4610053600b82828239805160001a607314610046577f4e487b7100000000000000000000000000000000000000000000000000000000600052600060045260246000fd5b30600052607381538281f3fe7300000000000000000000000000000000000000003014608060405260043610610072577c0100000000000000000000000000000000000000000000000000000000600035046322a871d081146100775780633b729b86146100ac578063834ff739146100c1578063e5283e1f14610106575b600080fd5b33600090815260008051602061034f833981519152602052604090205415155b60405190151581526020015b60405180910390f35b6100b4610119565b6040516100a39190610246565b6100976100cf3660046102a0565b73ffffffffffffffffffffffffffffffffffffffff16600090815260008051602061034f8339815191526020526040902054151590565b6100976101143660046102a0565b610198565b606060008051602061034f83398151915260010180548060200260200160405190810160405280929190818152602001828054801561018e57602002820191906000526020600020905b815473ffffffffffffffffffffffffffffffffffffffff168152600190910190602001808311610163575b5050505050905090565b600080805b7f89e51bdecbc263fe09be00aeff43205f218a6e698e087f6c8baa6be3620ddfa15481101561023f5773ffffffffffffffffffffffffffffffffffffffff841660008051602061034f8339815191526001018281548110610200576102006102dd565b60009182526020909120015473ffffffffffffffffffffffffffffffffffffffff16141561022d57600191505b806102378161030c565b91505061019d565b5092915050565b6020808252825182820181905260009190848201906040850190845b8181101561029457835173ffffffffffffffffffffffffffffffffffffffff1683529284019291840191600101610262565b50909695505050505050565b6000602082840312156102b257600080fd5b813573ffffffffffffffffffffffffffffffffffffffff811681146102d657600080fd5b9392505050565b7f4e487b7100000000000000000000000000000000000000000000000000000000600052603260045260246000fd5b6000600019821415610347577f4e487b7100000000000000000000000000000000000000000000000000000000600052601160045260246000fd5b506001019056fe89e51bdecbc263fe09be00aeff43205f218a6e698e087f6c8baa6be3620ddfa0a2646970667358221220361d23946f2ed9032a3a82d2d8bcc77bef3579b08c6bd190fa134e560ed6650464736f6c634300080a0033",
  "immutableReferences": {},
  "source": "// SPDX-License-Identifier: CC-BY-4.0\r\npragma solidity >=0.4.22 <0.9.0;\r\n\r\nlibrary Consumer {\r\n    struct ConsumerStorage {\r\n        mapping(address => uint256) consumers;\r\n        address[] _consumers;\r\n    }\r\n\r\n    function consumerStorage() internal pure returns (ConsumerStorage storage ds)\r\n    {\r\n        bytes32 position = keccak256(\"consumer.storage\");\r\n        assembly { ds.slot := position }\r\n    }\r\n\r\n    function onlyConsumer()\r\n        external\r\n        view\r\n        returns (bool)\r\n    {\r\n        return (consumerStorage().consumers[msg.sender] != 0);\r\n    }\r\n\r\n    function isConsumer(address addr)\r\n        external\r\n        view\r\n        returns (bool)\r\n    {\r\n        return (consumerStorage().consumers[addr] != 0);\r\n    }\r\n\r\n\r\n    function alreadyConsumer(address addr)\r\n        external\r\n        view\r\n        returns (bool)\r\n    {\r\n        bool found = false;\r\n        for (uint i = 0; i < consumerStorage()._consumers.length; i++) {\r\n            if (consumerStorage()._consumers[i] == addr) {\r\n                found = true;\r\n            }\r\n        }\r\n        return found;\r\n    }\r\n\r\n    function getConsumers()\r\n        external\r\n        view\r\n        returns (address[] memory)\r\n    {\r\n        return consumerStorage()._consumers;\r\n    }\r\n\r\n    function addConsumer(address addr)\r\n        internal\r\n    {\r\n        if (consumerStorage().consumers[addr] == 0) {\r\n            consumerStorage()._consumers.push(addr);\r\n        }\r\n    }\r\n\r\n}",
  "sourcePath": "G:\\projects\\pingleware-contracts\\contracts\\credit\\Consumer.sol",
  "compiler": {
    "name": "solc",
    "version": "0.8.10+commit.fc410830.Emscripten.clang"
  },
  "schemaVersion": "3.4.3",
  "updatedAt": "2021-12-25T15:51:03.591Z",
  "devdoc": {
    "kind": "dev",
    "methods": {},
    "version": 1
  },
  "userdoc": {
    "kind": "user",
    "methods": {},
    "version": 1
  }
}