{
  "contractName": "consumerRegistry",
  "abi": [
    {
      "anonymous": false,
      "inputs": [
        {
          "indexed": false,
          "internalType": "address",
          "name": "sender",
          "type": "address"
        },
        {
          "indexed": false,
          "internalType": "address",
          "name": "recipient",
          "type": "address"
        }
      ],
      "name": "Destroyed",
      "type": "event"
    },
    {
      "anonymous": false,
      "inputs": [
        {
          "indexed": false,
          "internalType": "address",
          "name": "sender",
          "type": "address"
        },
        {
          "indexed": false,
          "internalType": "uint256",
          "name": "amount",
          "type": "uint256"
        }
      ],
      "name": "FallbackEvent",
      "type": "event"
    },
    {
      "anonymous": false,
      "inputs": [
        {
          "indexed": true,
          "internalType": "address",
          "name": "previousOwner",
          "type": "address"
        },
        {
          "indexed": true,
          "internalType": "address",
          "name": "newOwner",
          "type": "address"
        }
      ],
      "name": "OwnershipTransferred",
      "type": "event"
    },
    {
      "anonymous": false,
      "inputs": [
        {
          "indexed": false,
          "internalType": "address",
          "name": "sender",
          "type": "address"
        },
        {
          "indexed": false,
          "internalType": "uint256",
          "name": "amount",
          "type": "uint256"
        }
      ],
      "name": "ReceiveEvent",
      "type": "event"
    },
    {
      "anonymous": false,
      "inputs": [
        {
          "indexed": false,
          "internalType": "address",
          "name": "sender",
          "type": "address"
        },
        {
          "indexed": false,
          "internalType": "bytes",
          "name": "reason",
          "type": "bytes"
        }
      ],
      "name": "Started",
      "type": "event"
    },
    {
      "anonymous": false,
      "inputs": [
        {
          "indexed": false,
          "internalType": "address",
          "name": "sender",
          "type": "address"
        },
        {
          "indexed": false,
          "internalType": "bytes",
          "name": "reason",
          "type": "bytes"
        }
      ],
      "name": "Stopped",
      "type": "event"
    },
    {
      "anonymous": false,
      "inputs": [
        {
          "indexed": false,
          "internalType": "address",
          "name": "sender",
          "type": "address"
        },
        {
          "indexed": false,
          "internalType": "string",
          "name": "reason",
          "type": "string"
        }
      ],
      "name": "Termination",
      "type": "event"
    },
    {
      "anonymous": false,
      "inputs": [
        {
          "indexed": true,
          "internalType": "address",
          "name": "consumer",
          "type": "address"
        }
      ],
      "name": "consumerDeregistered",
      "type": "event"
    },
    {
      "anonymous": false,
      "inputs": [
        {
          "indexed": true,
          "internalType": "address",
          "name": "consumer",
          "type": "address"
        }
      ],
      "name": "consumerRegistered",
      "type": "event"
    },
    {
      "stateMutability": "payable",
      "type": "fallback"
    },
    {
      "inputs": [],
      "name": "VERSION",
      "outputs": [
        {
          "internalType": "string",
          "name": "",
          "type": "string"
        }
      ],
      "stateMutability": "view",
      "type": "function"
    },
    {
      "inputs": [],
      "name": "WAIT",
      "outputs": [
        {
          "internalType": "uint256",
          "name": "",
          "type": "uint256"
        }
      ],
      "stateMutability": "view",
      "type": "function"
    },
    {
      "inputs": [
        {
          "internalType": "address",
          "name": "",
          "type": "address"
        }
      ],
      "name": "consumers",
      "outputs": [
        {
          "internalType": "uint32",
          "name": "",
          "type": "uint32"
        }
      ],
      "stateMutability": "view",
      "type": "function"
    },
    {
      "inputs": [],
      "name": "destroy",
      "outputs": [],
      "stateMutability": "nonpayable",
      "type": "function"
    },
    {
      "inputs": [
        {
          "internalType": "address",
          "name": "_recipient",
          "type": "address"
        }
      ],
      "name": "destroyAndSend",
      "outputs": [],
      "stateMutability": "nonpayable",
      "type": "function"
    },
    {
      "inputs": [],
      "name": "getOwner",
      "outputs": [
        {
          "internalType": "address",
          "name": "",
          "type": "address"
        }
      ],
      "stateMutability": "payable",
      "type": "function"
    },
    {
      "inputs": [],
      "name": "renounceOwnership",
      "outputs": [],
      "stateMutability": "payable",
      "type": "function"
    },
    {
      "inputs": [
        {
          "internalType": "address",
          "name": "newOwner",
          "type": "address"
        }
      ],
      "name": "transferOwnership",
      "outputs": [],
      "stateMutability": "payable",
      "type": "function"
    },
    {
      "stateMutability": "payable",
      "type": "receive"
    },
    {
      "inputs": [
        {
          "internalType": "address",
          "name": "aconsumer",
          "type": "address"
        },
        {
          "internalType": "uint32",
          "name": "auserID",
          "type": "uint32"
        }
      ],
      "name": "registerConsumer",
      "outputs": [],
      "stateMutability": "payable",
      "type": "function"
    }
  ],
  "bytecode": "0x6080806040523461005d5760008054600160a060020a03191633908117825542600155907f8be0079c531659141344cd1fd0a4f28419497f9722a3daafe3b4186f6b6457e08180a360ff19600354166003556106b990816100638239f35b600080fdfe6080604090808252600490813610156100c8575b50361561009957333203610055577f26875833861a2b006512a11f1b86edf95df96131040f3caeed72989ee98580838251806100503433836105dc565b0390a1005b6020606492519160e560020a62461bcd02835282015260196024820152603860020a787068697368696e672061747461636b2064657465637465643f026044820152fd5b7fcc85d09d309785db93d6df19917f2e6cc07fe27cd01c08c8279145deb5cf45268251806100503433836105dc565b60009060e060020a82350490630bf53668821461048557508063715018a61461043d57806383197ef0146103ef578063893d20e8146103c6578063b8fb3a51146103aa578063ccf5c5cf146102f3578063f2fde38b1461023a578063f5074f41146101e15763ffa1ad7403610013579190346101dd57826003193601126101dd57815190818301906001604060020a038211838310176101c757508252600a815260209060b060020a69312e362e342d62657461028282015282519382859384528251928382860152825b8481106101b157505050828201840152601f01601f19168101030190f35b8181018301518882018801528795508201610193565b60e060020a634e487b7102855260419052602484fd5b8280fd5b508234610236576020366003190112610236576102306000805160206106448339815191529161020f6104c4565b90610225600160a060020a0386541633146104df565b51918291338361052e565b0390a180f35b5080fd5b50919060203660031901126101dd576102516104c4565b835491600160a060020a038084169261026b3385146105f7565b1693841561029957505082906000805160206106648339815191528580a3600160a060020a03191617815580f35b5160e560020a62461bcd028152602091810191909152602660248201527f4f776e61626c653a206e6577206f776e657220697320746865207a65726f2061604482015260d060020a65646472657373026064820152608490fd5b5091806003193601126101dd576103086104c4565b916024359263ffffffff84168094036103a6578454600160a060020a03919061033490831633146105f7565b841561037a578181167faba09d491d88bf0ee0f8fc8f0168c0178e7210f18b5f524e052a72f550c4474a8780a25b16845260205282209063ffffffff1982541617905580f35b8181167ffa23c8d074a5c45120a1bac6ecf198fd3fa6f45dabe40a18dfa423f69d52c30c8780a2610362565b8480fd5b50823461023657816003193601126102365760209051601e8152f35b508281600319360112610236576020906103de61058d565b9051600160a060020a039091168152f35b50823461023657816003193601126102365761023060008051602061064483398151915291610429600160a060020a0385541633146104df565b61043161058d565b9051918291338361052e565b508060031936011261048257805481600160a060020a0382166104613382146105f7565b6000805160206106648339815191528280a3600160a060020a031916815580f35b80fd5b90508383346104c05760203660031901126104c05760209363ffffffff9291600160a060020a036104b46104c4565b16825285522054168152f35b8380fd5b60043590600160a060020a03821682036104da57565b600080fd5b156104e657565b60405160e560020a62461bcd02815260206004820152601b60248201527f756e617574686f72697a65642c206e6f7420746865206f776e657200000000006044820152606490fd5b600160a060020a0391821681529116602082015260400190565b1561054f57565b60405160e560020a62461bcd0281526020600482015260106024820152608160020a6f3930ba32903634b6b4ba1032b93937b9026044820152606490fd5b600154601e81018091116105c2576105af9042116105aa81610548565b610548565b42600155600054600160a060020a031690565b60e060020a634e487b710260009081526011600452602490fd5b600160a060020a039091168152602081019190915260400190565b156105fe57565b60405160e560020a62461bcd0281526020600482015260176024820152604960020a7630b1b1b2b9b9903232b734b2b2103337b91037bbb732b9026044820152606490fdfe91ca00fdf29069527d658f8dfc6d1c0bf9861780bb45ff36436f938d3595a8d68be0079c531659141344cd1fd0a4f28419497f9722a3daafe3b4186f6b6457e0a2646970667358221220b8da99d1c86966ffa6aee5eac0eec6cd9020b058e3629b38699562cecc6563e764736f6c63430008120033",
  "immutableReferences": {},
  "source": "// SPDX-License-Identifier: CC-BY-4.0\r\npragma solidity >=0.4.22 <0.9.0;\r\n\r\nimport \"../common/Version.sol\";\r\nimport \"../common/Frozen.sol\";\r\n\r\ncontract consumerRegistry is Version, Frozen {\r\n  event consumerRegistered(address indexed consumer);\r\n  event consumerDeregistered(address indexed consumer);\r\n\r\n  // map address to userID\r\n  mapping(address => uint32) public consumers;\r\n\r\n  modifier onlyRegisteredConsumers {\r\n    require(consumers[msg.sender] > 0, \"\");\r\n    _;\r\n  }\r\n\r\n    /// @notice Allow the owner of the address `aconsumer.address()`\r\n    ///         to make transactions on behalf of user id `auserID`.\r\n    ///\r\n    /// @dev Register address aconsumer to belong to userID\r\n    ///      auserID. Addresses can be delisted (\"unregistered\") by\r\n    ///      setting the userID auserID to zero.\r\n    function registerConsumer(address aconsumer, uint32 auserID)\r\n        external\r\n        payable\r\n        onlyOwner\r\n    {\r\n        if (auserID != 0) {\r\n            emit consumerRegistered(aconsumer);\r\n        } else {\r\n            emit consumerDeregistered(aconsumer);\r\n        }\r\n        consumers[aconsumer] = auserID;\r\n    }\r\n}\r\n\r\n/// @title A contract that allows producer addresses to be registered.\r\n///\r\n/// @author Björn Stein, Quantum-Factory GmbH,\r\n///                      https://quantum-factory.de\r\n///\r\n/// @dev License: Attribution-NonCommercial-ShareAlike 2.0 Generic (CC\r\n///              BY-NC-SA 2.0), see\r\n///              https://creativecommons.org/licenses/by-nc-sa/2.0/\r\ncontract producerRegistry is Owned {\r\n  event producerRegistered(address indexed producer);\r\n  event producerDeregistered(address indexed producer);\r\n\r\n  // map address to bool \"is a registered producer\"\r\n  mapping(address => bool) public producers;\r\n\r\n  modifier onlyRegisteredProducers {\r\n    require(producers[msg.sender], \"\");\r\n    _;\r\n  }\r\n\r\n    /// @notice Allow the owner of address `aproducer.address()` to\r\n    ///         act as a producer (by offering energy).\r\n    function registerProducer(address aproducer)\r\n        external\r\n        payable\r\n        onlyOwner\r\n    {\r\n        emit producerRegistered(aproducer);\r\n        producers[aproducer] = true;\r\n    }\r\n\r\n    /// @notice Cease allowing the owner of address\r\n    ///         `aproducer.address()` to act as a producer (by\r\n    ///         offering energy).\r\n    function deregisterProducer(address aproducer)\r\n        external\r\n        payable\r\n        onlyOwner\r\n    {\r\n        emit producerDeregistered(aproducer);\r\n        producers[aproducer] = false;\r\n    }\r\n}\r\n\r\n/// @title The Lition Smart Contract, initial development version.\r\n///\r\n/// @author Björn Stein, Quantum-Factory GmbH,\r\n///                      https://quantum-factory.de\r\n///\r\n/// @dev License: Attribution-NonCommercial-ShareAlike 2.0 Generic (CC\r\n///              BY-NC-SA 2.0), see\r\n///              https://creativecommons.org/licenses/by-nc-sa/2.0/\r\ncontract EnergyStore is Version, Owned, consumerRegistry, producerRegistry {\r\n\r\n    event BidMade(address indexed producer, uint32 indexed day, uint32 indexed price, uint64 energy);\r\n    event BidRevoked(address indexed producer, uint32 indexed day, uint32 indexed price, uint64 energy);\r\n    event Deal(address indexed producer, uint32 indexed day, uint32 price, uint64 energy, uint32 indexed userID);\r\n    event DealRevoked(address indexed producer, uint32 indexed day, uint32 price, uint64 energy, uint32 indexed userID);\r\n\r\n    uint64 constant mWh = 1;\r\n    uint64 constant  Wh = 1000 * mWh;\r\n    uint64 constant kWh = 1000 * Wh;\r\n    uint64 constant MWh = 1000 * kWh;\r\n    uint64 constant GWh = 1000 * MWh;\r\n    uint64 constant TWh = 1000 * GWh;\r\n    uint64 constant maxEnergy = 18446 * GWh;\r\n\r\n    struct Bid {\r\n        address producer;   // producer's public key\r\n        uint32 day;         // day for which the offer is valid\r\n        uint32 price;       // price vs market price\r\n        uint64 energy;      // energy to sell\r\n        uint64 timestamp;   // timestamp for when the offer was submitted\r\n    }\r\n\r\n    struct Ask {\r\n        address producer;\r\n        uint32 day;\r\n        uint32 price;\r\n        uint64 energy;\r\n        uint32 userID;\r\n        uint64 timestamp;\r\n    }\r\n\r\n    // bids (for energy: offering energy for sale)\r\n    Bid[] public bids;\r\n\r\n    // asks (for energy: demanding energy to buy)\r\n    Ask[] public asks;\r\n\r\n    // map (address, day) to index into bids\r\n    mapping(address => mapping(uint32 => uint)) public bidsIndex;\r\n\r\n    // map (userid) to index into asks [last take written]\r\n    mapping(uint32 => uint) public asksIndex;\r\n\r\n    /// @notice Offer `(aenergy / 1.0e6).toFixed(6)` kWh of energy for\r\n    ///         day `aday` at a price `(aprice / 1.0e3).toFixed(3) + '\r\n    ///         ct/kWh'` above market price for a date given as day\r\n    ///         `aday` whilst asserting that the current date and time\r\n    ///         in nanoseconds since 1970 is `atimestamp`.\r\n    ///\r\n    /// @param aday Day for which the offer is valid.\r\n    /// @param aprice Price surcharge in millicent/kWh above market\r\n    ///        price\r\n    /// @param aenergy Energy to be offered in mWh\r\n    /// @param atimestamp UNIX time (seconds since 1970) in\r\n    ///        nanoseconds\r\n    function offer_energy(uint32 aday, uint32 aprice, uint64 aenergy, uint64 atimestamp)\r\n        external\r\n        payable\r\n        onlyRegisteredProducers\r\n    {\r\n        // require a minimum offer of 1 kWh\r\n        require(aenergy >= kWh, \"\");\r\n\r\n        uint idx = bidsIndex[msg.sender][aday];\r\n\r\n        // idx is either 0 or such that bids[idx] has the right producer and day (or both 0 and ...)\r\n        if ((bids.length > idx) && (bids[idx].producer == msg.sender) && (bids[idx].day == aday)) {\r\n            // we will only let newer timestamps affect the stored data\r\n            require(atimestamp > bids[idx].timestamp, \"\");\r\n\r\n            // NOTE: Should we sanity-check timestamps here (ensure that\r\n            //       they are either in the past or not in the too-distant\r\n            //       future compared to the last block's timestamp)?\r\n\r\n            emit BidRevoked(bids[idx].producer, bids[idx].day, bids[idx].price, bids[idx].energy);\r\n        }\r\n\r\n        // create entry with new index idx for (msg.sender, aday)\r\n        idx = bids.length;\r\n        bidsIndex[msg.sender][aday] = idx;\r\n        bids.push(Bid({\r\n            producer: msg.sender,\r\n            day: aday,\r\n            price: aprice,\r\n            energy: aenergy,\r\n            timestamp: atimestamp\r\n        }));\r\n        emit BidMade(bids[idx].producer, bids[idx].day, bids[idx].price, bids[idx].energy);\r\n    }\r\n\r\n    function getBidsCount()\r\n        external\r\n        view\r\n        returns(uint count)\r\n    {\r\n        return bids.length;\r\n    }\r\n\r\n    function getBidByProducerAndDay(address producer, uint32 day)\r\n        external\r\n        view\r\n        returns(uint32 price, uint64 energy)\r\n    {\r\n        uint idx = bidsIndex[producer][day];\r\n        require(bids.length > idx, \"\");\r\n        require(bids[idx].producer == producer, \"\");\r\n        require(bids[idx].day == day, \"\");\r\n        return (bids[idx].price, bids[idx].energy);\r\n    }\r\n\r\n    /// @notice Buy `(aenergy / 1.0e6).toFixed(6)` kWh of energy on\r\n    ///         behalf of user id `auserID` (possibly de-anonymized by\r\n    ///         randomization) for day `aday` at a surcharge `(aprice\r\n    ///         / 1.0e3).toFixed(3)` ct/kWh from the energy producer\r\n    ///         using the address `aproducer.address()` whilst\r\n    ///         asserting that the current time in seconds since 1970\r\n    ///         is `(atimestamp / 1.0e9)` seconds.\r\n    ///\r\n    /// @param aproducer Address of the producer offering the energy\r\n    ///        to be bought.\r\n    /// @param aday Day for which the offer is valid.\r\n    /// @param aprice Price surcharge in millicent/kWh above market\r\n    ///        price\r\n    /// @param aenergy Energy to be offered in mWh\r\n    /// @param atimestamp UNIX time (seconds since 1970) in\r\n    ///        nanoseconds\r\n    ///\r\n    /// @dev This function is meant to be called by Lition on behalf\r\n    ///      of customers.\r\n    function buy_energy(address aproducer, uint32 aday, uint32 aprice, uint64 aenergy, uint32 auserID, uint64 atimestamp)\r\n        external\r\n        payable\r\n        onlyOwner\r\n    {\r\n        buy_energy_core(aproducer, aday, aprice, aenergy, auserID, atimestamp);\r\n    }\r\n\r\n    /// @notice Buy `(aenergy / 1.0e6).toFixed(6)` kWh of energy on\r\n    ///          for day `aday` at a surcharge `(aprice /\r\n    ///          1.0e3).toFixed(3)` ct/kWh from the energy producer\r\n    ///          using the address `aproducer.address()`.\r\n    ///\r\n    /// @param aproducer Address of the producer offering the energy\r\n    ///        to be bought.\r\n    /// @param aday Day for which the offer is valid.\r\n    /// @param aprice Price surcharge in millicent/kWh above market\r\n    ///        price\r\n    /// @param aenergy Energy to be offered in mWh\r\n    ///\r\n    /// @dev This function is meant to be called by a Lition customer\r\n    ///      who has chosen to be registered for this ability and to\r\n    ///      decline anonymization by randomization of user ID.\r\n    function buy_energy(address aproducer, uint32 aday, uint32 aprice, uint64 aenergy)\r\n        external\r\n        payable\r\n        onlyRegisteredConsumers\r\n    {\r\n        buy_energy_core(aproducer, aday, aprice, aenergy, consumers[msg.sender], 0);\r\n    }\r\n\r\n    function buy_energy_core(address aproducer, uint32 aday, uint32 aprice, uint64 aenergy, uint32 auserID, uint64 atimestamp)\r\n        internal\r\n    {\r\n        // find offer by producer (aproducer) for day (aday), or zero\r\n        uint idx = bidsIndex[aproducer][aday];\r\n\r\n        // if the offer exists...\r\n        if ((bids.length > idx) && (bids[idx].producer == aproducer) && (bids[idx].day == aday)) {\r\n        // ...and has the right price\r\n            require(bids[idx].price == aprice, \"\");\r\n\r\n            // todo: prevent overwriting a later choice...\r\n\r\n            // ...then record the customer's choice\r\n            asksIndex[auserID] = asks.length;\r\n            asks.push(Ask({\r\n                producer: aproducer,\r\n                day: aday,\r\n                price: aprice,\r\n                energy: aenergy,\r\n                userID: auserID,\r\n                timestamp: atimestamp\r\n            }));\r\n            emit Deal(aproducer, aday, aprice, aenergy, auserID);\r\n        } else {\r\n            revert(\"the offer does not exist\");\r\n        }\r\n    }\r\n\r\n    function getAsksCount()\r\n        external\r\n        view\r\n        returns(uint count)\r\n    {\r\n        return asks.length;\r\n    }\r\n\r\n    function getAskByUserID(uint32 userID)\r\n        external\r\n        view\r\n        returns(address producer, uint32 day, uint32 price, uint64 energy)\r\n    {\r\n        uint idx = asksIndex[userID];\r\n        require(asks[idx].userID == userID, \"\");\r\n        return (asks[idx].producer, asks[idx].day, asks[idx].price, asks[idx].energy);\r\n    }\r\n}",
  "sourcePath": "/Volumes/HOME/pingleware-contracts/contracts/energy/EnergyStore.sol",
  "compiler": {
    "name": "solc",
    "version": "0.8.18+commit.87f61d96.Emscripten.clang"
  },
  "schemaVersion": "3.4.12",
  "updatedAt": "2024-05-23T18:56:25.122Z",
  "devdoc": {
    "kind": "dev",
    "methods": {
      "registerConsumer(address,uint32)": {
        "details": "Register address aconsumer to belong to userID      auserID. Addresses can be delisted (\"unregistered\") by      setting the userID auserID to zero."
      },
      "renounceOwnership()": {
        "details": "Leaves the contract without owner. It will not be possible to call `onlyOwner` functions anymore. Can only be called by the current owner. NOTE: Renouncing ownership will leave the contract without an owner, thereby removing any functionality that is only available to the owner."
      },
      "transferOwnership(address)": {
        "details": "Transfers ownership of the contract to a new account (`newOwner`). Can only be called by the current owner."
      }
    },
    "version": 1
  },
  "userdoc": {
    "kind": "user",
    "methods": {
      "registerConsumer(address,uint32)": {
        "notice": "Allow the owner of the address `aconsumer.address()`         to make transactions on behalf of user id `auserID`."
      }
    },
    "version": 1
  }
}