{
  "contractName": "Consumer",
  "abi": [
    {
      "inputs": [],
      "name": "onlyConsumer",
      "outputs": [
        {
          "internalType": "bool",
          "name": "",
          "type": "bool"
        }
      ],
      "stateMutability": "view",
      "type": "function"
    },
    {
      "inputs": [
        {
          "internalType": "address",
          "name": "addr",
          "type": "address"
        }
      ],
      "name": "isConsumer",
      "outputs": [
        {
          "internalType": "bool",
          "name": "",
          "type": "bool"
        }
      ],
      "stateMutability": "view",
      "type": "function"
    },
    {
      "inputs": [
        {
          "internalType": "address",
          "name": "addr",
          "type": "address"
        }
      ],
      "name": "alreadyConsumer",
      "outputs": [
        {
          "internalType": "bool",
          "name": "",
          "type": "bool"
        }
      ],
      "stateMutability": "view",
      "type": "function"
    },
    {
      "inputs": [],
      "name": "getConsumers",
      "outputs": [
        {
          "internalType": "address[]",
          "name": "",
          "type": "address[]"
        }
      ],
      "stateMutability": "view",
      "type": "function"
    }
  ],
  "bytecode": "0x6080806040523461001a576102b39081610020823930815050f35b600080fdfe60806040908082526004918236101561001757600080fd5b60009160e060020a833504906322a871d08214610210575080633b729b8614610131578063834ff739146100ed5763e5283e1f1461005457600080fd5b602092836003193601126100e957600160a060020a038135818116949192908590036100e5578194829360008051602061025e8339815191528054955b8681106100a357898989519015158152f35b8186528383828c8920015416146100dc575b60001981146100c657600101610091565b60e060020a634e487b7102865260118552602486fd5b600198506100b5565b5080fd5b8280fd5b508260203660031901126100e95735600160a060020a038116908190036100e9578282916020945260008051602061023e8339815191528452205415159051908152f35b50908060031936011261020d578151809160008051602061025e8339815191529384548084526020809401908196845284842090845b868282106101f05750505050849003601f01601f19168401956001604060020a038711858810176101da575085815282865292518583018190528594938501939290915b8281106101ba57505050500390f35b8351600160a060020a0316855286955093810193928101926001016101ab565b60e060020a634e487b7102835260419052602482fd5b8354600160a060020a031685529093019260019283019201610167565b80fd5b919050826003193601126100e95760209233815260008051602061023e8339815191528452205415158152f3fe89e51bdecbc263fe09be00aeff43205f218a6e698e087f6c8baa6be3620ddfa089e51bdecbc263fe09be00aeff43205f218a6e698e087f6c8baa6be3620ddfa1a2646970667358221220e6c9a0c08ab189fe852f63792124d4d0493295a639d00de45107a1dea0475d0864736f6c63430008120033",
  "immutableReferences": {},
  "source": "// SPDX-License-Identifier: CC-BY-4.0\r\npragma solidity >=0.4.22 <0.9.0;\r\n\r\nlibrary Consumer {\r\n    struct ConsumerStorage {\r\n        mapping(address => uint256) consumers;\r\n        address[] _consumers;\r\n    }\r\n\r\n    function consumerStorage() internal pure returns (ConsumerStorage storage ds)\r\n    {\r\n        bytes32 position = keccak256(\"consumer.storage\");\r\n        assembly { ds.slot := position }\r\n    }\r\n\r\n    function onlyConsumer()\r\n        external\r\n        view\r\n        returns (bool)\r\n    {\r\n        return (consumerStorage().consumers[msg.sender] != 0);\r\n    }\r\n\r\n    function isConsumer(address addr)\r\n        external\r\n        view\r\n        returns (bool)\r\n    {\r\n        return (consumerStorage().consumers[addr] != 0);\r\n    }\r\n\r\n\r\n    function alreadyConsumer(address addr)\r\n        external\r\n        view\r\n        returns (bool)\r\n    {\r\n        bool found = false;\r\n        for (uint i = 0; i < consumerStorage()._consumers.length; i++) {\r\n            if (consumerStorage()._consumers[i] == addr) {\r\n                found = true;\r\n            }\r\n        }\r\n        return found;\r\n    }\r\n\r\n    function getConsumers()\r\n        external\r\n        view\r\n        returns (address[] memory)\r\n    {\r\n        return consumerStorage()._consumers;\r\n    }\r\n\r\n    function addConsumer(address addr)\r\n        internal\r\n    {\r\n        if (consumerStorage().consumers[addr] == 0) {\r\n            consumerStorage()._consumers.push(addr);\r\n        }\r\n    }\r\n\r\n}",
  "sourcePath": "/Volumes/HOME/pingleware-contracts/contracts/finance/credit/Consumer.sol",
  "compiler": {
    "name": "solc",
    "version": "0.8.18+commit.87f61d96.Emscripten.clang"
  },
  "schemaVersion": "3.4.12",
  "updatedAt": "2024-05-23T18:56:25.388Z",
  "devdoc": {
    "kind": "dev",
    "methods": {},
    "version": 1
  },
  "userdoc": {
    "kind": "user",
    "methods": {},
    "version": 1
  }
}