{
  "contractName": "CountyGovernment",
  "abi": [
    {
      "inputs": [
        {
          "internalType": "string",
          "name": "_countyName",
          "type": "string"
        },
        {
          "internalType": "string",
          "name": "_stateName",
          "type": "string"
        }
      ],
      "stateMutability": "nonpayable",
      "type": "constructor"
    },
    {
      "anonymous": false,
      "inputs": [
        {
          "indexed": false,
          "internalType": "uint256",
          "name": "proposalId",
          "type": "uint256"
        },
        {
          "indexed": false,
          "internalType": "enum CountyGovernment.ProposalStatus",
          "name": "status",
          "type": "uint8"
        }
      ],
      "name": "ProposalDecision",
      "type": "event"
    },
    {
      "anonymous": false,
      "inputs": [
        {
          "indexed": false,
          "internalType": "uint256",
          "name": "proposalId",
          "type": "uint256"
        },
        {
          "indexed": false,
          "internalType": "address",
          "name": "proposer",
          "type": "address"
        },
        {
          "indexed": false,
          "internalType": "string",
          "name": "description",
          "type": "string"
        }
      ],
      "name": "ProposalSubmitted",
      "type": "event"
    },
    {
      "inputs": [
        {
          "internalType": "uint256",
          "name": "",
          "type": "uint256"
        }
      ],
      "name": "commissioners",
      "outputs": [
        {
          "internalType": "address",
          "name": "",
          "type": "address"
        }
      ],
      "stateMutability": "view",
      "type": "function"
    },
    {
      "inputs": [],
      "name": "countyJudge",
      "outputs": [
        {
          "internalType": "address",
          "name": "",
          "type": "address"
        }
      ],
      "stateMutability": "view",
      "type": "function"
    },
    {
      "inputs": [],
      "name": "countyName",
      "outputs": [
        {
          "internalType": "string",
          "name": "",
          "type": "string"
        }
      ],
      "stateMutability": "view",
      "type": "function"
    },
    {
      "inputs": [],
      "name": "proposalCounter",
      "outputs": [
        {
          "internalType": "uint256",
          "name": "",
          "type": "uint256"
        }
      ],
      "stateMutability": "view",
      "type": "function"
    },
    {
      "inputs": [
        {
          "internalType": "uint256",
          "name": "",
          "type": "uint256"
        }
      ],
      "name": "proposals",
      "outputs": [
        {
          "internalType": "uint256",
          "name": "proposalId",
          "type": "uint256"
        },
        {
          "internalType": "address",
          "name": "proposer",
          "type": "address"
        },
        {
          "internalType": "string",
          "name": "description",
          "type": "string"
        },
        {
          "internalType": "enum CountyGovernment.ProposalStatus",
          "name": "status",
          "type": "uint8"
        }
      ],
      "stateMutability": "view",
      "type": "function"
    },
    {
      "inputs": [],
      "name": "stateName",
      "outputs": [
        {
          "internalType": "string",
          "name": "",
          "type": "string"
        }
      ],
      "stateMutability": "view",
      "type": "function"
    },
    {
      "inputs": [],
      "name": "getCountyAddress",
      "outputs": [
        {
          "internalType": "address",
          "name": "",
          "type": "address"
        }
      ],
      "stateMutability": "view",
      "type": "function"
    },
    {
      "inputs": [
        {
          "internalType": "address",
          "name": "account",
          "type": "address"
        }
      ],
      "name": "isCommissioner",
      "outputs": [
        {
          "internalType": "bool",
          "name": "",
          "type": "bool"
        }
      ],
      "stateMutability": "view",
      "type": "function"
    },
    {
      "inputs": [
        {
          "internalType": "address",
          "name": "newCommissioner",
          "type": "address"
        }
      ],
      "name": "addCommissioner",
      "outputs": [],
      "stateMutability": "nonpayable",
      "type": "function"
    },
    {
      "inputs": [
        {
          "internalType": "string",
          "name": "description",
          "type": "string"
        }
      ],
      "name": "submitProposal",
      "outputs": [],
      "stateMutability": "nonpayable",
      "type": "function"
    },
    {
      "inputs": [
        {
          "internalType": "uint256",
          "name": "proposalId",
          "type": "uint256"
        },
        {
          "internalType": "enum CountyGovernment.ProposalStatus",
          "name": "status",
          "type": "uint8"
        }
      ],
      "name": "decideProposal",
      "outputs": [],
      "stateMutability": "nonpayable",
      "type": "function"
    }
  ],
  "bytecode": "0x6080604052346200043a5762000f6e803803806200001d816200043f565b9283398101906040818303126200043a5780516001604060020a03908181116200043a57836200004f91840162000465565b91602093848201518381116200043a576200006b920162000465565b60028054600160a060020a0319908116331782556003549094919290680100000000000000008110156200040b5760019586820180600355821015620003dc576000916003835288832001903390825416179055806005558251858111620003af578154938786860495168015620003a4575b8986101462000377578190601f9586811162000325575b508990868311600114620002ba578492620002ae575b505060088202860a6000190419169085021781555b815194851162000281578554868582049116801562000276575b88821014620002495783811162000203575b50869280861160011462000197575084959650936200018b575b505082810292600802900a6000190419161790555b604051610a969081620004d88239f35b01519150388062000166565b91601f9594959391931985169787855280852094905b898210620001eb57505084879810620001cf575b50505050020190556200017b565b0151908316600802840a600019041916905538808080620001c1565b808985978294968601518155019601930190620001ad565b868252878220888581818a0104830193828a106200023f575b0104019087905b828110620002335750506200014c565b83815501879062000223565b935082936200021c565b6024827f4e487b710000000000000000000000000000000000000000000000000000000081526022600452fd5b90607f16906200013a565b807f4e487b7100000000000000000000000000000000000000000000000000000000602492526041600452fd5b0151905038806200010b565b8480528a85208a94508893929091601f198416878e5b8282106200030a5750508411620002ef575b5050500201815562000120565b0151600883891602840a6000190419169055388080620002e2565b8484015186558e988d98509095019493840193018e620002d0565b9091508380528984208a8781818701048301938287106200036d575b9186959493918d93010401915b8281106200035e575050620000f5565b8681558594508b91016200034e565b9350829362000341565b6024837f4e487b710000000000000000000000000000000000000000000000000000000081526022600452fd5b94607f1694620000de565b6024827f4e487b710000000000000000000000000000000000000000000000000000000081526041600452fd5b7f4e487b7100000000000000000000000000000000000000000000000000000000600052603260045260246000fd5b7f4e487b7100000000000000000000000000000000000000000000000000000000600052604160045260246000fd5b600080fd5b6040519190601f01601f191682016001604060020a038111838210176200040b57604052565b919080601f840112156200043a5782516001604060020a0381116200040b576020906200049b601f8201601f191683016200043f565b928184528282870101116200043a5760005b818110620004c357508260009394955001015290565b8581018301518482018401528201620004ad56fe608080604052600436101561001357600080fd5b60e060020a600035049063013cf08b821461077e575080630c0512e9146107605780630f3ceab61461071b578063146edb73146106a85780632e5533c01461067f578063373d6d5e146103805780637da2af6c1461025f578063b52952bf14610226578063c127d9a21461019e578063ca310af9146100bb5763cccdc8cd1461009b57600080fd5b346100b65760003660031901126100b6576020604051308152f35b600080fd5b346100b65760003660031901126100b6576040516000906000546100de8161087f565b808352600191808316908115610177575060011461011f575b61011b83610107818703826108be565b6040519182916020835260208301906108e1565b0390f35b600080805260209450917f290decd9548b62a8d60345a988386fc84ba6bc95484008f6362f93160ef3e5635b82841061016457505050810190910190610107816100f7565b805485850187015292850192810161014b565b61011b955061010793506020915091849260ff1916828401521515810282010193506100f7565b346100b65760003660031901126100b657604051600090600180546101c28161087f565b8084529082811690811561017757506001146101e85761011b83610107818703826108be565b92508060005260209283600020916000925b82841061021357505050810190910190610107816100f7565b80548585018701529285019281016101fa565b346100b65760203660031901126100b657600435600160a060020a03811681036100b65761025560209161098c565b6040519015158152f35b346100b65760403660031901126100b65760043560243560038110156100b657610295600160a060020a036002541633146109df565b81600052600460205260ff6003604060002001541660038110156103665761030a57816103076040927f2b2ae6c019433ad50fd5c760cb5f697c596737245b9191fdd7827238368fbf5d9460005260046020526102f88160038660002001610a48565b83519283526020830190610921565ba1005b60405160e560020a62461bcd02815260206004820152602860248201527f546869732070726f706f73616c206973206e6f742070656e64696e6720612064604482015260c160020a6732b1b4b9b4b7b717026064820152608490fd5b60e060020a634e487b710260009081526021600452602490fd5b346100b65760203660031901126100b6576004356001604060020a038082116100b657366023830112156100b6578160040135918183116105ff5760405191601f1993601f926103d76020878685011601866108be565b81855236602483830101116100b6578160009260246020930183880137850101526104013361098c565b1561061957610411600554610963565b93846005556040519260808401848110848211176105ff5760405285845260208401953387526040850190868252600060608701526000526004602052604060002096855188556001880190600160a060020a03905116600160a060020a0319825416179055519081519384116105ff5761048f600288015461087f565b8181116105b5575b5060209281851160011461053f57505091809160609493600092610534575b5050816002029160080260020a6000190419161760028501555b0151916003831015610366577fba63161e1c7e096aaf63cb63b137eeea26b870df0007c6e2ad029bae55d6517992600361050a9201610a48565b60055461052f60405192839283523360208401526060604084015260608301906108e1565b0390a1005b0151905086806104b6565b849391929316926002880160005260206000209360005b81811061059d5750928592600195926060989760029610610582575b50505050020160028501556104d0565b0151908316600802840a600019041916905587808080610572565b92946020600181928886015181550196019301610556565b60028801600052602060002082602081880104820192602088106105f5575b602091010401905b8181106105e95750610497565b600081556001016105dc565b91925082916105d4565b60e060020a634e487b710260009081526041600452602490fd5b60405160e560020a62461bcd02815260206004820152603260248201527f4f6e6c7920436f756e747920436f6d6d697373696f6e6572732063616e2070656044820152607160020a71393337b936903a3434b99030b1ba34b7b717026064820152608490fd5b346100b65760003660031901126100b657600254604051600160a060020a039091168152602090f35b346100b65760203660031901126100b657600435600160a060020a03818116918290036100b6576106de816002541633146109df565b600354604060020a8110156105ff578060016106fd920160035561092e565b909260088454920260020a8093029283910216911916179055600080f35b346100b65760203660031901126100b6576004356003548110156100b65761074460209161092e565b9054604051600890920260020a9004600160a060020a03168152f35b346100b65760003660031901126100b6576020600554604051908152f35b346100b657602090816003193601126100b657600435600052600482526040600020805491600191600160a060020a0383820154169285600283016000928154916107c88361087f565b8088529282811690811561085f5750600114610826575b505050509160ff600361081b936107fb8461011b9703856108be565b0154169360405196879687528601526080604086015260808501906108e1565b916060840190610921565b6000908152838120939450925b82841061084c57505050830101856003836107fb6107df565b8054878501860152928401928101610833565b60ff191685890152505050151581028401019050856003836107fb6107df565b90600160028304921680156108b4575b602083101461089a57565b60e060020a634e487b710260009081526022600452602490fd5b91607f169161088f565b601f909101601f19168101906001604060020a038211908210176105ff57604052565b919082519283825260005b84811061090d575050826000602080949584010152601f8019910116010190565b6020818301810151848301820152016108ec565b9060038210156103665752565b60035481101561094957600360005260206000200190600090565b60e060020a634e487b710260009081526032600452602490fd5b60001981146109725760010190565b60e060020a634e487b710260009081526011600452602490fd5b6003549060005b8281106109a257505050600090565b6109ab8161092e565b9054600160a060020a03848116600890930260020a90910416146109d7576109d290610963565b610993565b505050600190565b156109e657565b60405160e560020a62461bcd02815260206004820152602e60248201527f4f6e6c792074686520436f756e7479204a756467652063616e20706572666f726044820152609160020a6d36903a3434b99030b1ba34b7b717026064820152608490fd5b9060038110156103665760ff8019835416911617905556fea2646970667358221220da5033a186bba8739334537c9375d5adcb71e15fe21e2d908d3bbefc75ac972864736f6c63430008120033",
  "immutableReferences": {},
  "source": "// SPDX-License-Identifier: BSL-1.1\npragma solidity >=0.4.22 <0.9.0;\n\ncontract CountyGovernment {\n    string public countyName;\n    string public stateName;\n\n    address public countyJudge;\n    address[] public commissioners;\n\n    enum ProposalStatus { Proposed, Approved, Rejected }\n\n    struct Proposal {\n        uint256 proposalId;\n        address proposer;\n        string description;\n        ProposalStatus status;\n    }\n\n    mapping(uint256 => Proposal) public proposals;\n    uint256 public proposalCounter;\n\n    event ProposalSubmitted(uint256 proposalId, address proposer, string description);\n    event ProposalDecision(uint256 proposalId, ProposalStatus status);\n\n    modifier onlyCountyJudge() {\n        require(msg.sender == countyJudge, \"Only the County Judge can perform this action.\");\n        _;\n    }\n\n    modifier onlyCommissioner() {\n        require(isCommissioner(msg.sender), \"Only County Commissioners can perform this action.\");\n        _;\n    }\n\n    constructor(string memory _countyName,string memory _stateName) {\n        countyJudge = msg.sender;\n        commissioners.push(msg.sender);\n        proposalCounter = 0;\n        countyName = _countyName;\n        stateName = _stateName;\n    }\n\n    function getCountyAddress() public view returns (address) {\n        return address(this);\n    }\n\n    function isCommissioner(address account) public view returns (bool) {\n        for (uint256 i = 0; i < commissioners.length; i++) {\n            if (commissioners[i] == account) {\n                return true;\n            }\n        }\n        return false;\n    }\n\n    function addCommissioner(address newCommissioner) public onlyCountyJudge {\n        commissioners.push(newCommissioner);\n    }\n\n    function submitProposal(string memory description) public onlyCommissioner {\n        proposalCounter++;\n        proposals[proposalCounter] = Proposal(proposalCounter, msg.sender, description, ProposalStatus.Proposed);\n        emit ProposalSubmitted(proposalCounter, msg.sender, description);\n    }\n\n    function decideProposal(uint256 proposalId, ProposalStatus status) public onlyCountyJudge {\n        require(proposals[proposalId].status == ProposalStatus.Proposed, \"This proposal is not pending a decision.\");\n        proposals[proposalId].status = status;\n        emit ProposalDecision(proposalId, status);\n    }\n}\n",
  "sourcePath": "/Volumes/HOME/pingleware-contracts/contracts/government/county/CountyGovernment.sol",
  "compiler": {
    "name": "solc",
    "version": "0.8.18+commit.87f61d96.Emscripten.clang"
  },
  "schemaVersion": "3.4.12",
  "updatedAt": "2024-05-23T18:56:26.112Z",
  "devdoc": {
    "kind": "dev",
    "methods": {},
    "version": 1
  },
  "userdoc": {
    "kind": "user",
    "methods": {},
    "version": 1
  }
}