{
  "contractName": "CountyGovernment",
  "abi": [
    {
      "inputs": [
        {
          "internalType": "string",
          "name": "_countyName",
          "type": "string"
        },
        {
          "internalType": "string",
          "name": "_stateName",
          "type": "string"
        }
      ],
      "stateMutability": "nonpayable",
      "type": "constructor"
    },
    {
      "anonymous": false,
      "inputs": [
        {
          "indexed": false,
          "internalType": "uint256",
          "name": "proposalId",
          "type": "uint256"
        },
        {
          "indexed": false,
          "internalType": "enum CountyGovernment.ProposalStatus",
          "name": "status",
          "type": "uint8"
        }
      ],
      "name": "ProposalDecision",
      "type": "event"
    },
    {
      "anonymous": false,
      "inputs": [
        {
          "indexed": false,
          "internalType": "uint256",
          "name": "proposalId",
          "type": "uint256"
        },
        {
          "indexed": false,
          "internalType": "address",
          "name": "proposer",
          "type": "address"
        },
        {
          "indexed": false,
          "internalType": "string",
          "name": "description",
          "type": "string"
        }
      ],
      "name": "ProposalSubmitted",
      "type": "event"
    },
    {
      "inputs": [
        {
          "internalType": "uint256",
          "name": "",
          "type": "uint256"
        }
      ],
      "name": "commissioners",
      "outputs": [
        {
          "internalType": "address",
          "name": "",
          "type": "address"
        }
      ],
      "stateMutability": "view",
      "type": "function",
      "constant": true
    },
    {
      "inputs": [],
      "name": "countyJudge",
      "outputs": [
        {
          "internalType": "address",
          "name": "",
          "type": "address"
        }
      ],
      "stateMutability": "view",
      "type": "function",
      "constant": true
    },
    {
      "inputs": [],
      "name": "countyName",
      "outputs": [
        {
          "internalType": "string",
          "name": "",
          "type": "string"
        }
      ],
      "stateMutability": "view",
      "type": "function",
      "constant": true
    },
    {
      "inputs": [],
      "name": "proposalCounter",
      "outputs": [
        {
          "internalType": "uint256",
          "name": "",
          "type": "uint256"
        }
      ],
      "stateMutability": "view",
      "type": "function",
      "constant": true
    },
    {
      "inputs": [
        {
          "internalType": "uint256",
          "name": "",
          "type": "uint256"
        }
      ],
      "name": "proposals",
      "outputs": [
        {
          "internalType": "uint256",
          "name": "proposalId",
          "type": "uint256"
        },
        {
          "internalType": "address",
          "name": "proposer",
          "type": "address"
        },
        {
          "internalType": "string",
          "name": "description",
          "type": "string"
        },
        {
          "internalType": "enum CountyGovernment.ProposalStatus",
          "name": "status",
          "type": "uint8"
        }
      ],
      "stateMutability": "view",
      "type": "function",
      "constant": true
    },
    {
      "inputs": [],
      "name": "stateName",
      "outputs": [
        {
          "internalType": "string",
          "name": "",
          "type": "string"
        }
      ],
      "stateMutability": "view",
      "type": "function",
      "constant": true
    },
    {
      "inputs": [],
      "name": "getCountyAddress",
      "outputs": [
        {
          "internalType": "address",
          "name": "",
          "type": "address"
        }
      ],
      "stateMutability": "view",
      "type": "function",
      "constant": true
    },
    {
      "inputs": [
        {
          "internalType": "address",
          "name": "account",
          "type": "address"
        }
      ],
      "name": "isCommissioner",
      "outputs": [
        {
          "internalType": "bool",
          "name": "",
          "type": "bool"
        }
      ],
      "stateMutability": "view",
      "type": "function",
      "constant": true
    },
    {
      "inputs": [
        {
          "internalType": "address",
          "name": "newCommissioner",
          "type": "address"
        }
      ],
      "name": "addCommissioner",
      "outputs": [],
      "stateMutability": "nonpayable",
      "type": "function"
    },
    {
      "inputs": [
        {
          "internalType": "string",
          "name": "description",
          "type": "string"
        }
      ],
      "name": "submitProposal",
      "outputs": [],
      "stateMutability": "nonpayable",
      "type": "function"
    },
    {
      "inputs": [
        {
          "internalType": "uint256",
          "name": "proposalId",
          "type": "uint256"
        },
        {
          "internalType": "enum CountyGovernment.ProposalStatus",
          "name": "status",
          "type": "uint8"
        }
      ],
      "name": "decideProposal",
      "outputs": [],
      "stateMutability": "nonpayable",
      "type": "function"
    }
  ],
  "bytecode": "0x60806040523480156200001157600080fd5b5060405162000ea738038062000ea783398101604081905262000034916200018c565b6002805433600160a060020a031991821681179092556003805460018101825560009182527fc2575a0e9e593c00f959f8c92f12db2869c3395a3b0502d05e2516446f71f85b018054909216909217905560058190556200009683826200029e565b506001620000a582826200029e565b50505062000370565b7f4e487b7100000000000000000000000000000000000000000000000000000000600052604160045260246000fd5b600082601f830112620000ef57600080fd5b81516001604060020a03808211156200010c576200010c620000ae565b604051601f8301601f19908116603f01168101908282118183101715620001375762000137620000ae565b816040528381526020925086838588010111156200015457600080fd5b600091505b8382101562000178578582018301518183018401529082019062000159565b600093810190920192909252949350505050565b60008060408385031215620001a057600080fd5b82516001604060020a0380821115620001b857600080fd5b620001c686838701620000dd565b93506020850151915080821115620001dd57600080fd5b50620001ec85828601620000dd565b9150509250929050565b6002810460018216806200020b57607f821691505b60208210810362000245577f4e487b7100000000000000000000000000000000000000000000000000000000600052602260045260246000fd5b50919050565b601f82111562000299576000818152602081206020601f86010481016020861015620002745750805b6020601f860104820191505b81811015620002955782815560010162000280565b5050505b505050565b81516001604060020a03811115620002ba57620002ba620000ae565b620002d281620002cb8454620001f6565b846200024b565b602080601f8311600181146200030e5760008415620002f15750858301515b60028086026008870290910a600019041982161786555062000295565b600085815260208120601f198616915b828110156200033f578886015182559484019460019091019084016200031e565b50858210156200036057878501516008601f88160260020a60001904191681555b5050505050600202600101905550565b610b2780620003806000396000f3fe608060405234801561001057600080fd5b506004361061009c5760e060020a6000350463013cf08b81146100a15780630c0512e9146100cd5780630f3ceab6146100e4578063146edb731461010f5780632e5533c014610124578063373d6d5e146101375780637da2af6c1461014a578063b52952bf1461015d578063c127d9a214610180578063ca310af914610195578063cccdc8cd1461019d575b600080fd5b6100b46100af3660046106a9565b6101a3565b6040516100c49493929190610748565b60405180910390f35b6100d660055481565b6040519081526020016100c4565b6100f76100f23660046106a9565b610261565b604051600160a060020a0390911681526020016100c4565b61012261011d36600461078a565b61028b565b005b6002546100f790600160a060020a031681565b6101226101453660046107d4565b610313565b610122610158366004610884565b61047e565b61017061016b36600461078a565b6105a5565b60405190151581526020016100c4565b61018861060e565b6040516100c491906108b8565b61018861069c565b306100f7565b6004602052600090815260409020805460018201546002830180549293600160a060020a03909216926101d5906108cb565b80601f0160208091040260200160405190810160405280929190818152602001828054610201906108cb565b801561024e5780601f106102235761010080835404028352916020019161024e565b820191906000526020600020905b81548152906001019060200180831161023157829003601f168201915b5050506003909301549192505060ff1684565b6003818154811061027157600080fd5b600091825260209091200154600160a060020a0316905081565b600254600160a060020a031633146102c15760405160e560020a62461bcd0281526004016102b890610909565b60405180910390fd5b600380546001810182556000919091527fc2575a0e9e593c00f959f8c92f12db2869c3395a3b0502d05e2516446f71f85b018054600160a060020a031916600160a060020a0392909216919091179055565b61031c336105a5565b6103895760405160e560020a62461bcd02815260206004820152603260248201527f4f6e6c7920436f756e747920436f6d6d697373696f6e6572732063616e2070656044820152607160020a71393337b936903a3434b99030b1ba34b7b7170260648201526084016102b8565b600580549060006103998361095a565b909155505060408051608081018252600554815233602082015290810182905260608101600090526005546000908152600460209081526040918290208351815590830151600182018054600160a060020a031916600160a060020a0390921691909117905590820151600282019061041290826109d4565b50606082015160038201805460ff1916600183600281111561043657610436610708565b02179055509050507fba63161e1c7e096aaf63cb63b137eeea26b870df0007c6e2ad029bae55d65179600554338360405161047393929190610a99565b60405180910390a150565b600254600160a060020a031633146104ab5760405160e560020a62461bcd0281526004016102b890610909565b60008281526004602052604081206003015460ff1660028111156104d1576104d1610708565b146105355760405160e560020a62461bcd02815260206004820152602860248201527f546869732070726f706f73616c206973206e6f742070656e64696e6720612064604482015260c160020a6732b1b4b9b4b7b7170260648201526084016102b8565b6000828152600460205260409020600301805482919060ff1916600183600281111561056357610563610708565b02179055507f2b2ae6c019433ad50fd5c760cb5f697c596737245b9191fdd7827238368fbf5d8282604051610599929190610ac3565b60405180910390a15050565b6000805b6003548110156106055782600160a060020a0316600382815481106105d0576105d0610ad7565b600091825260209091200154600160a060020a0316036105f35750600192915050565b806105fd8161095a565b9150506105a9565b50600092915050565b6001805461061b906108cb565b80601f0160208091040260200160405190810160405280929190818152602001828054610647906108cb565b80156106945780601f1061066957610100808354040283529160200191610694565b820191906000526020600020905b81548152906001019060200180831161067757829003601f168201915b505050505081565b6000805461061b906108cb565b6000602082840312156106bb57600080fd5b5035919050565b6000815180845260005b818110156106e8576020818501810151868301820152016106cc565b506000602082860101526020601f19601f83011685010191505092915050565b60e060020a634e487b710260009081526021600452602490fd5b600381106107445760e060020a634e487b710260009081526021600452602490fd5b9052565b848152600160a060020a0384166020820152608060408201819052600090610772908301856106c2565b90506107816060830184610722565b95945050505050565b60006020828403121561079c57600080fd5b8135600160a060020a03811681146107b357600080fd5b9392505050565b60e060020a634e487b710260009081526041600452602490fd5b6000602082840312156107e657600080fd5b81356001604060020a03808211156107fd57600080fd5b818401915084601f83011261081157600080fd5b813581811115610823576108236107ba565b604051601f8201601f19908116603f0116810190838211818310171561084b5761084b6107ba565b8160405282815287602084870101111561086457600080fd5b826020860160208301376000928101602001929092525095945050505050565b6000806040838503121561089757600080fd5b823591506020830135600381106108ad57600080fd5b809150509250929050565b6020815260006107b360208301846106c2565b6002810460018216806108df57607f821691505b6020821081036109035760e060020a634e487b710260009081526022600452602490fd5b50919050565b6020808252602e908201527f4f6e6c792074686520436f756e7479204a756467652063616e20706572666f726040820152609160020a6d36903a3434b99030b1ba34b7b71702606082015260800190565b60006001820161097e5760e060020a634e487b710260009081526011600452602490fd5b5060010190565b601f8211156109cf576000818152602081206020601f860104810160208610156109ac5750805b6020601f860104820191505b818110156109cb578281556001016109b8565b5050505b505050565b81516001604060020a038111156109ed576109ed6107ba565b610a01816109fb84546108cb565b84610985565b602080601f831160018114610a3a5760008415610a1e5750858301515b60028086026008870290910a60001904198216178655506109cb565b600085815260208120601f198616915b82811015610a6957888601518255948401946001909101908401610a4a565b5085821015610a8957878501516008601f88160260020a60001904191681555b5050505050600202600101905550565b838152600160a060020a0383166020820152606060408201819052600090610781908301846106c2565b828152604081016107b36020830184610722565b60e060020a634e487b710260009081526032600452602490fdfea2646970667358221220009ef18a26cea9bd6697c1a8bdbfecb787f794ad0b012933442228ad42164d8264736f6c63430008120033",
  "immutableReferences": {},
  "source": "// SPDX-License-Identifier: BSL-1.1\npragma solidity >=0.4.22 <0.9.0;\n\ncontract CountyGovernment {\n    string public countyName;\n    string public stateName;\n\n    address public countyJudge;\n    address[] public commissioners;\n\n    enum ProposalStatus { Proposed, Approved, Rejected }\n\n    struct Proposal {\n        uint256 proposalId;\n        address proposer;\n        string description;\n        ProposalStatus status;\n    }\n\n    mapping(uint256 => Proposal) public proposals;\n    uint256 public proposalCounter;\n\n    event ProposalSubmitted(uint256 proposalId, address proposer, string description);\n    event ProposalDecision(uint256 proposalId, ProposalStatus status);\n\n    modifier onlyCountyJudge() {\n        require(msg.sender == countyJudge, \"Only the County Judge can perform this action.\");\n        _;\n    }\n\n    modifier onlyCommissioner() {\n        require(isCommissioner(msg.sender), \"Only County Commissioners can perform this action.\");\n        _;\n    }\n\n    constructor(string memory _countyName,string memory _stateName) {\n        countyJudge = msg.sender;\n        commissioners.push(msg.sender);\n        proposalCounter = 0;\n        countyName = _countyName;\n        stateName = _stateName;\n    }\n\n    function getCountyAddress() public view returns (address) {\n        return address(this);\n    }\n\n    function isCommissioner(address account) public view returns (bool) {\n        for (uint256 i = 0; i < commissioners.length; i++) {\n            if (commissioners[i] == account) {\n                return true;\n            }\n        }\n        return false;\n    }\n\n    function addCommissioner(address newCommissioner) public onlyCountyJudge {\n        commissioners.push(newCommissioner);\n    }\n\n    function submitProposal(string memory description) public onlyCommissioner {\n        proposalCounter++;\n        proposals[proposalCounter] = Proposal(proposalCounter, msg.sender, description, ProposalStatus.Proposed);\n        emit ProposalSubmitted(proposalCounter, msg.sender, description);\n    }\n\n    function decideProposal(uint256 proposalId, ProposalStatus status) public onlyCountyJudge {\n        require(proposals[proposalId].status == ProposalStatus.Proposed, \"This proposal is not pending a decision.\");\n        proposals[proposalId].status = status;\n        emit ProposalDecision(proposalId, status);\n    }\n}\n",
  "sourcePath": "/Volumes/My Book/projects/pingleware-contracts/contracts/government/county/CountyGovernment.sol",
  "compiler": {
    "name": "solc",
    "version": "0.8.18+commit.87f61d96.Emscripten.clang"
  },
  "schemaVersion": "3.4.12",
  "updatedAt": "2023-10-23T16:59:58.342Z",
  "networkType": "ethereum",
  "devdoc": {
    "kind": "dev",
    "methods": {},
    "version": 1
  },
  "userdoc": {
    "kind": "user",
    "methods": {},
    "version": 1
  }
}