{
  "contractName": "Course",
  "abi": [
    {
      "anonymous": false,
      "inputs": [
        {
          "indexed": false,
          "internalType": "address",
          "name": "sender",
          "type": "address"
        },
        {
          "indexed": false,
          "internalType": "uint256",
          "name": "amount",
          "type": "uint256"
        }
      ],
      "name": "FallbackEvent",
      "type": "event"
    },
    {
      "anonymous": false,
      "inputs": [
        {
          "indexed": true,
          "internalType": "address",
          "name": "previousOwner",
          "type": "address"
        },
        {
          "indexed": true,
          "internalType": "address",
          "name": "newOwner",
          "type": "address"
        }
      ],
      "name": "OwnershipTransferred",
      "type": "event"
    },
    {
      "anonymous": false,
      "inputs": [
        {
          "indexed": false,
          "internalType": "address",
          "name": "sender",
          "type": "address"
        },
        {
          "indexed": false,
          "internalType": "uint256",
          "name": "amount",
          "type": "uint256"
        }
      ],
      "name": "ReceiveEvent",
      "type": "event"
    },
    {
      "stateMutability": "payable",
      "type": "fallback",
      "payable": true
    },
    {
      "inputs": [],
      "name": "VERSION",
      "outputs": [
        {
          "internalType": "string",
          "name": "",
          "type": "string"
        }
      ],
      "stateMutability": "view",
      "type": "function",
      "constant": true
    },
    {
      "inputs": [],
      "name": "WAIT",
      "outputs": [
        {
          "internalType": "uint256",
          "name": "",
          "type": "uint256"
        }
      ],
      "stateMutability": "view",
      "type": "function",
      "constant": true
    },
    {
      "inputs": [
        {
          "internalType": "uint256",
          "name": "index",
          "type": "uint256"
        },
        {
          "internalType": "string",
          "name": "plan",
          "type": "string"
        }
      ],
      "name": "addActionPlan",
      "outputs": [
        {
          "internalType": "uint256",
          "name": "",
          "type": "uint256"
        }
      ],
      "stateMutability": "nonpayable",
      "type": "function"
    },
    {
      "inputs": [
        {
          "internalType": "uint256",
          "name": "index",
          "type": "uint256"
        },
        {
          "internalType": "string",
          "name": "equipment",
          "type": "string"
        }
      ],
      "name": "addEquipment",
      "outputs": [
        {
          "internalType": "uint256",
          "name": "",
          "type": "uint256"
        }
      ],
      "stateMutability": "nonpayable",
      "type": "function"
    },
    {
      "inputs": [
        {
          "internalType": "uint256",
          "name": "index",
          "type": "uint256"
        },
        {
          "internalType": "string",
          "name": "feedback",
          "type": "string"
        }
      ],
      "name": "addFeedback",
      "outputs": [
        {
          "internalType": "uint256",
          "name": "",
          "type": "uint256"
        }
      ],
      "stateMutability": "nonpayable",
      "type": "function"
    },
    {
      "inputs": [
        {
          "internalType": "uint256",
          "name": "index",
          "type": "uint256"
        },
        {
          "internalType": "string",
          "name": "homework",
          "type": "string"
        }
      ],
      "name": "addHomework",
      "outputs": [
        {
          "internalType": "uint256",
          "name": "",
          "type": "uint256"
        }
      ],
      "stateMutability": "nonpayable",
      "type": "function"
    },
    {
      "inputs": [
        {
          "internalType": "address",
          "name": "user",
          "type": "address"
        }
      ],
      "name": "addLessonPlanner",
      "outputs": [],
      "stateMutability": "nonpayable",
      "type": "function"
    },
    {
      "inputs": [
        {
          "internalType": "uint256",
          "name": "index",
          "type": "uint256"
        },
        {
          "internalType": "string",
          "name": "material",
          "type": "string"
        }
      ],
      "name": "addMaterial",
      "outputs": [
        {
          "internalType": "uint256",
          "name": "",
          "type": "uint256"
        }
      ],
      "stateMutability": "nonpayable",
      "type": "function"
    },
    {
      "inputs": [
        {
          "internalType": "uint256",
          "name": "index",
          "type": "uint256"
        },
        {
          "internalType": "string",
          "name": "objective",
          "type": "string"
        }
      ],
      "name": "addObjective",
      "outputs": [
        {
          "internalType": "uint256",
          "name": "",
          "type": "uint256"
        }
      ],
      "stateMutability": "nonpayable",
      "type": "function"
    },
    {
      "inputs": [
        {
          "internalType": "uint256",
          "name": "index",
          "type": "uint256"
        },
        {
          "internalType": "string",
          "name": "_reference",
          "type": "string"
        }
      ],
      "name": "addReference",
      "outputs": [
        {
          "internalType": "uint256",
          "name": "",
          "type": "uint256"
        }
      ],
      "stateMutability": "nonpayable",
      "type": "function"
    },
    {
      "inputs": [
        {
          "internalType": "address",
          "name": "user",
          "type": "address"
        }
      ],
      "name": "addStudent",
      "outputs": [],
      "stateMutability": "nonpayable",
      "type": "function"
    },
    {
      "inputs": [
        {
          "internalType": "address",
          "name": "user",
          "type": "address"
        }
      ],
      "name": "addStudentAssistance",
      "outputs": [],
      "stateMutability": "nonpayable",
      "type": "function"
    },
    {
      "inputs": [
        {
          "internalType": "uint256",
          "name": "index",
          "type": "uint256"
        },
        {
          "internalType": "string",
          "name": "task",
          "type": "string"
        }
      ],
      "name": "addTask",
      "outputs": [
        {
          "internalType": "uint256",
          "name": "",
          "type": "uint256"
        }
      ],
      "stateMutability": "nonpayable",
      "type": "function"
    },
    {
      "inputs": [
        {
          "internalType": "address",
          "name": "user",
          "type": "address"
        }
      ],
      "name": "addTeacher",
      "outputs": [],
      "stateMutability": "nonpayable",
      "type": "function"
    },
    {
      "inputs": [
        {
          "internalType": "address",
          "name": "user",
          "type": "address"
        },
        {
          "internalType": "enum EducationRoles.Role",
          "name": "_role",
          "type": "uint8"
        }
      ],
      "name": "addUser",
      "outputs": [],
      "stateMutability": "nonpayable",
      "type": "function"
    },
    {
      "inputs": [
        {
          "internalType": "string",
          "name": "name",
          "type": "string"
        },
        {
          "internalType": "string",
          "name": "description",
          "type": "string"
        },
        {
          "internalType": "string",
          "name": "course",
          "type": "string"
        },
        {
          "internalType": "string",
          "name": "subject",
          "type": "string"
        },
        {
          "internalType": "uint256",
          "name": "duration",
          "type": "uint256"
        }
      ],
      "name": "createLesson",
      "outputs": [
        {
          "internalType": "uint256",
          "name": "",
          "type": "uint256"
        }
      ],
      "stateMutability": "nonpayable",
      "type": "function"
    },
    {
      "inputs": [
        {
          "internalType": "uint256",
          "name": "index",
          "type": "uint256"
        }
      ],
      "name": "getLesson",
      "outputs": [
        {
          "components": [
            {
              "internalType": "string",
              "name": "name",
              "type": "string"
            },
            {
              "internalType": "string",
              "name": "description",
              "type": "string"
            },
            {
              "internalType": "string",
              "name": "course",
              "type": "string"
            },
            {
              "internalType": "string",
              "name": "subject",
              "type": "string"
            },
            {
              "internalType": "uint256",
              "name": "created",
              "type": "uint256"
            },
            {
              "internalType": "address",
              "name": "created_by",
              "type": "address"
            },
            {
              "internalType": "uint256",
              "name": "duration",
              "type": "uint256"
            },
            {
              "internalType": "string[]",
              "name": "objectives",
              "type": "string[]"
            },
            {
              "internalType": "string[]",
              "name": "tasks",
              "type": "string[]"
            },
            {
              "internalType": "string[]",
              "name": "action_plan",
              "type": "string[]"
            },
            {
              "internalType": "string[]",
              "name": "materials",
              "type": "string[]"
            },
            {
              "internalType": "string[]",
              "name": "equipment",
              "type": "string[]"
            },
            {
              "internalType": "string[]",
              "name": "references",
              "type": "string[]"
            },
            {
              "internalType": "string[]",
              "name": "homework",
              "type": "string[]"
            },
            {
              "internalType": "string[]",
              "name": "feedback",
              "type": "string[]"
            }
          ],
          "internalType": "struct Lesson.LessonMetadata",
          "name": "",
          "type": "tuple"
        }
      ],
      "stateMutability": "view",
      "type": "function",
      "constant": true
    },
    {
      "inputs": [],
      "name": "getLessons",
      "outputs": [
        {
          "components": [
            {
              "internalType": "string",
              "name": "name",
              "type": "string"
            },
            {
              "internalType": "string",
              "name": "description",
              "type": "string"
            },
            {
              "internalType": "string",
              "name": "course",
              "type": "string"
            },
            {
              "internalType": "string",
              "name": "subject",
              "type": "string"
            },
            {
              "internalType": "uint256",
              "name": "created",
              "type": "uint256"
            },
            {
              "internalType": "address",
              "name": "created_by",
              "type": "address"
            },
            {
              "internalType": "uint256",
              "name": "duration",
              "type": "uint256"
            },
            {
              "internalType": "string[]",
              "name": "objectives",
              "type": "string[]"
            },
            {
              "internalType": "string[]",
              "name": "tasks",
              "type": "string[]"
            },
            {
              "internalType": "string[]",
              "name": "action_plan",
              "type": "string[]"
            },
            {
              "internalType": "string[]",
              "name": "materials",
              "type": "string[]"
            },
            {
              "internalType": "string[]",
              "name": "equipment",
              "type": "string[]"
            },
            {
              "internalType": "string[]",
              "name": "references",
              "type": "string[]"
            },
            {
              "internalType": "string[]",
              "name": "homework",
              "type": "string[]"
            },
            {
              "internalType": "string[]",
              "name": "feedback",
              "type": "string[]"
            }
          ],
          "internalType": "struct Lesson.LessonMetadata[]",
          "name": "",
          "type": "tuple[]"
        }
      ],
      "stateMutability": "view",
      "type": "function",
      "constant": true
    },
    {
      "inputs": [],
      "name": "getOwner",
      "outputs": [
        {
          "internalType": "address",
          "name": "",
          "type": "address"
        }
      ],
      "stateMutability": "payable",
      "type": "function",
      "payable": true
    },
    {
      "inputs": [],
      "name": "renounceOwnership",
      "outputs": [],
      "stateMutability": "payable",
      "type": "function",
      "payable": true
    },
    {
      "inputs": [
        {
          "internalType": "address",
          "name": "newOwner",
          "type": "address"
        }
      ],
      "name": "transferOwnership",
      "outputs": [],
      "stateMutability": "payable",
      "type": "function",
      "payable": true
    },
    {
      "stateMutability": "payable",
      "type": "receive",
      "payable": true
    },
    {
      "inputs": [
        {
          "internalType": "string",
          "name": "name",
          "type": "string"
        },
        {
          "internalType": "string",
          "name": "description",
          "type": "string"
        },
        {
          "internalType": "uint256",
          "name": "credits",
          "type": "uint256"
        },
        {
          "internalType": "uint256",
          "name": "cost",
          "type": "uint256"
        }
      ],
      "name": "createCourse",
      "outputs": [
        {
          "internalType": "uint256",
          "name": "",
          "type": "uint256"
        }
      ],
      "stateMutability": "nonpayable",
      "type": "function"
    },
    {
      "inputs": [
        {
          "internalType": "uint256",
          "name": "index",
          "type": "uint256"
        }
      ],
      "name": "getCourse",
      "outputs": [
        {
          "components": [
            {
              "internalType": "string",
              "name": "name",
              "type": "string"
            },
            {
              "internalType": "string",
              "name": "description",
              "type": "string"
            },
            {
              "internalType": "uint256",
              "name": "credits",
              "type": "uint256"
            },
            {
              "internalType": "uint256",
              "name": "created",
              "type": "uint256"
            },
            {
              "internalType": "uint256[]",
              "name": "lessons",
              "type": "uint256[]"
            },
            {
              "internalType": "uint256",
              "name": "cost",
              "type": "uint256"
            },
            {
              "internalType": "address",
              "name": "teacher",
              "type": "address"
            }
          ],
          "internalType": "struct Course.CourseMetadata",
          "name": "",
          "type": "tuple"
        }
      ],
      "stateMutability": "view",
      "type": "function",
      "constant": true
    },
    {
      "inputs": [],
      "name": "getCourses",
      "outputs": [
        {
          "components": [
            {
              "internalType": "string",
              "name": "name",
              "type": "string"
            },
            {
              "internalType": "string",
              "name": "description",
              "type": "string"
            },
            {
              "internalType": "uint256",
              "name": "credits",
              "type": "uint256"
            },
            {
              "internalType": "uint256",
              "name": "created",
              "type": "uint256"
            },
            {
              "internalType": "uint256[]",
              "name": "lessons",
              "type": "uint256[]"
            },
            {
              "internalType": "uint256",
              "name": "cost",
              "type": "uint256"
            },
            {
              "internalType": "address",
              "name": "teacher",
              "type": "address"
            }
          ],
          "internalType": "struct Course.CourseMetadata[]",
          "name": "",
          "type": "tuple[]"
        }
      ],
      "stateMutability": "view",
      "type": "function",
      "constant": true
    },
    {
      "inputs": [
        {
          "internalType": "uint256",
          "name": "course",
          "type": "uint256"
        },
        {
          "internalType": "uint256",
          "name": "lesson",
          "type": "uint256"
        }
      ],
      "name": "addLesson",
      "outputs": [],
      "stateMutability": "nonpayable",
      "type": "function"
    }
  ],
  "bytecode": "0x6080604052600060015534801561001557600080fd5b5060008054600160a060020a031916339081178255426001556040519091907f8be0079c531659141344cd1fd0a4f28419497f9722a3daafe3b4186f6b6457e0908290a3613b6c806100686000396000f3fe60806040526004361061012d5760e060020a60003504630b91e28d81146101f45780632e3c89211461022a5780633867d89d1461024c5780633bc6e3091461027a578063437072b01461029a57806358fcbbfd146102ba578063715018a6146102da578063893d20e8146102e2578063902d6c53146103025780639c3eead914610322578063ac30a4c414610342578063b8fb3a5114610362578063b9ca7b4714610377578063b9d1620214610397578063bd06ea19146103b7578063c5ad1f31146103d7578063cbfe253f146103f7578063cc12647914610424578063d4c4ecfa14610446578063db5a988514610466578063dd23f8ed14610486578063dd79d1a0146104a6578063e28aa48a146104c6578063f2fde38b146104e8578063ffa1ad74146104fb5761016d565b3661016d577fcc85d09d309785db93d6df19917f2e6cc07fe27cd01c08c8279145deb5cf45263334604051610163929190613187565b60405180910390a1005b3233146101c35760405160e560020a62461bcd0281526020600482015260196024820152603860020a787068697368696e672061747461636b2064657465637465643f0260448201526064015b60405180910390fd5b7f26875833861a2b006512a11f1b86edf95df96131040f3caeed72989ee98580833334604051610163929190613187565b34801561020057600080fd5b5061021461020f3660046131a0565b610541565b60405161022191906132af565b60405180910390f35b34801561023657600080fd5b5061024a6102453660046132e5565b61076a565b005b34801561025857600080fd5b5061026c6102673660046133a6565b61084d565b604051908152602001610221565b34801561028657600080fd5b5061024a6102953660046132e5565b610994565b3480156102a657600080fd5b5061024a6102b53660046132e5565b610a04565b3480156102c657600080fd5b5061026c6102d53660046133a6565b610a73565b61024a610bb7565b6102ea610c1c565b604051600160a060020a039091168152602001610221565b34801561030e57600080fd5b5061026c61031d3660046133a6565b610c92565b34801561032e57600080fd5b5061024a61033d3660046133ec565b610dd6565b34801561034e57600080fd5b5061026c61035d366004613427565b610e71565b34801561036e57600080fd5b5061026c601e81565b34801561038357600080fd5b5061024a6103923660046134db565b6110e8565b3480156103a357600080fd5b5061026c6103b23660046133a6565b6111b9565b3480156103c357600080fd5b5061024a6103d23660046132e5565b6112fd565b3480156103e357600080fd5b5061026c6103f23660046133a6565b611369565b34801561040357600080fd5b506104176104123660046131a0565b6114ad565b60405161022191906136b9565b34801561043057600080fd5b50610439611eb5565b60405161022191906136cc565b34801561045257600080fd5b5061026c61046136600461372d565b6120c7565b34801561047257600080fd5b5061026c6104813660046133a6565b612217565b34801561049257600080fd5b5061026c6104a13660046133a6565b61235b565b3480156104b257600080fd5b5061026c6104c13660046133a6565b61249f565b3480156104d257600080fd5b506104db6125e3565b60405161022191906137a0565b61024a6104f63660046132e5565b612f8d565b34801561050757600080fd5b506105346040518060400160405280600a815260200160b060020a69312e362e342d626574610281525081565b60405161022191906137f4565b61058a6040518060e001604052806060815260200160608152602001600081526020016000815260200160608152602001600081526020016000600160a060020a031681525090565b6005828154811061059d5761059d613807565b90600052602060002090600702016040518060e00160405290816000820180546105c690613821565b80601f01602080910402602001604051908101604052809291908181526020018280546105f290613821565b801561063f5780601f106106145761010080835404028352916020019161063f565b820191906000526020600020905b81548152906001019060200180831161062257829003601f168201915b5050505050815260200160018201805461065890613821565b80601f016020809104026020016040519081016040528092919081815260200182805461068490613821565b80156106d15780601f106106a6576101008083540402835291602001916106d1565b820191906000526020600020905b8154815290600101906020018083116106b457829003601f168201915b5050505050815260200160028201548152602001600382015481526020016004820180548060200260200160405190810160405280929190818152602001828054801561073d57602002820191906000526020600020905b815481526020019060010190808311610729575b505050918352505060058201546020820152600690910154600160a060020a031660409091015292915050565b60043360009081526003602052604090205460ff1660058111156107905761079061385f565b146107b05760405160e560020a62461bcd0281526004016101ba90613879565b600160a060020a03811660009081526003602052604081205460ff1660058111156107dd576107dd61385f565b146108205760405160e560020a62461bcd02815260206004820152600d6024820152609a60020a6c1b9bdd0818481cdd1d59195b9d0260448201526064016101ba565b600160a060020a038116600090815260036020526040902080546001919060ff191682805b021790555050565b600060033360009081526003602052604090205460ff1660058111156108755761087561385f565b146108955760405160e560020a62461bcd0281526004016101ba906138bd565b33600160a060020a0316600484815481106108b2576108b2613807565b600091825260209091206005600f909202010154600160a060020a0316146108ef5760405160e560020a62461bcd0281526004016101ba906138f4565b816004848154811061090357610903613807565b90600052602060002090600f0201600b016004858154811061092757610927613807565b90600052602060002090600f0201600b01805490508154811061094c5761094c613807565b9060005260206000200190816109629190613994565b506004838154811061097657610976613807565b90600052602060002090600f0201600b018054905090505b92915050565b60053360009081526003602052604090205460ff1660058111156109ba576109ba61385f565b146109da5760405160e560020a62461bcd0281526004016101ba90613a59565b600160a060020a038116600090815260036020526040902080546004919060ff1916600183610845565b60043360009081526003602052604090205460ff166005811115610a2a57610a2a61385f565b14610a4a5760405160e560020a62461bcd0281526004016101ba90613879565b600160a060020a0381166000908152600360208190526040909120805460ff1916600183610845565b600060033360009081526003602052604090205460ff166005811115610a9b57610a9b61385f565b14610abb5760405160e560020a62461bcd0281526004016101ba906138bd565b33600160a060020a031660048481548110610ad857610ad8613807565b600091825260209091206005600f909202010154600160a060020a031614610b155760405160e560020a62461bcd0281526004016101ba906138f4565b8160048481548110610b2957610b29613807565b90600052602060002090600f020160080160048581548110610b4d57610b4d613807565b90600052602060002090600f02016008018054905081548110610b7257610b72613807565b906000526020600020019081610b889190613994565b5060048381548110610b9c57610b9c613807565b600091825260209091206008600f9092020101549392505050565b600054600160a060020a03163314610be45760405160e560020a62461bcd0281526004016101ba90613a90565b60008054604051600160a060020a0390911690600080516020613b17833981519152908390a360008054600160a060020a0319169055565b6000601e600154610c2d9190613ac4565b4211610c4e5760405160e560020a62461bcd0281526004016101ba90613ae9565b601e600154610c5d9190613ac4565b4211610c7e5760405160e560020a62461bcd0281526004016101ba90613ae9565b5042600155600054600160a060020a031690565b600060033360009081526003602052604090205460ff166005811115610cba57610cba61385f565b14610cda5760405160e560020a62461bcd0281526004016101ba906138bd565b33600160a060020a031660048481548110610cf757610cf7613807565b600091825260209091206005600f909202010154600160a060020a031614610d345760405160e560020a62461bcd0281526004016101ba906138f4565b8160048481548110610d4857610d48613807565b90600052602060002090600f0201600e0160048581548110610d6c57610d6c613807565b90600052602060002090600f0201600e018054905081548110610d9157610d91613807565b906000526020600020019081610da79190613994565b5060048381548110610dbb57610dbb613807565b60009182526020909120600e600f9092020101549392505050565b600054600160a060020a03163314610e335760405160e560020a62461bcd02815260206004820152601b60248201527f756e617574686f72697a65642c206e6f7420746865206f776e6572000000000060448201526064016101ba565b600160a060020a0382166000908152600360205260409020805482919060ff19166001836005811115610e6857610e6861385f565b02179055505050565b600060033360009081526003602052604090205460ff166005811115610e9957610e9961385f565b14610eb95760405160e560020a62461bcd0281526004016101ba906138bd565b604080516101e0810182528781526020810187905290810185905260608181018590524260808301523360a083015260c0820184905260e08201819052610100820181905261012082018190526101408201819052610160820181905261018082018190526101a082018190526101c08201819052600480546001810182556000919091528251919291600f9091027f8a35acfbc15ff81a39ae7d344fd709f28e8600b4aa8c65c6b64bfe7fe36bd19b01908190610f779082613994565b5060208201516001820190610f8c9082613994565b5060408201516002820190610fa19082613994565b5060608201516003820190610fb69082613994565b506080820151600482015560a0820151600582018054600160a060020a031916600160a060020a0390921691909117905560c0820151600682015560e0820151805161100c91600784019160209091019061306e565b50610100820151805161102991600884019160209091019061306e565b50610120820151805161104691600984019160209091019061306e565b50610140820151805161106391600a84019160209091019061306e565b50610160820151805161108091600b84019160209091019061306e565b50610180820151805161109d91600c84019160209091019061306e565b506101a082015180516110ba91600d84019160209091019061306e565b506101c082015180516110d791600e84019160209091019061306e565b505060045498975050505050505050565b60043360009081526003602052604090205460ff16600581111561110e5761110e61385f565b1461112e5760405160e560020a62461bcd0281526004016101ba90613879565b600554821061117e5760405160e560020a62461bcd0281526020600482015260166024820152605060020a75636f75727365206973206f7574206f662072616e67650260448201526064016101ba565b6005828154811061119157611191613807565b6000918252602080832060046007909302019190910180546001810182559083529120015550565b600060033360009081526003602052604090205460ff1660058111156111e1576111e161385f565b146112015760405160e560020a62461bcd0281526004016101ba906138bd565b33600160a060020a03166004848154811061121e5761121e613807565b600091825260209091206005600f909202010154600160a060020a03161461125b5760405160e560020a62461bcd0281526004016101ba906138f4565b816004848154811061126f5761126f613807565b90600052602060002090600f02016007016004858154811061129357611293613807565b90600052602060002090600f020160070180549050815481106112b8576112b8613807565b9060005260206000200190816112ce9190613994565b50600483815481106112e2576112e2613807565b600091825260209091206007600f9092020101549392505050565b60053360009081526003602052604090205460ff1660058111156113235761132361385f565b146113435760405160e560020a62461bcd0281526004016101ba90613a59565b600160a060020a0381166000908152600360205260408120805460ff1916600183610845565b600060033360009081526003602052604090205460ff1660058111156113915761139161385f565b146113b15760405160e560020a62461bcd0281526004016101ba906138bd565b33600160a060020a0316600484815481106113ce576113ce613807565b600091825260209091206005600f909202010154600160a060020a03161461140b5760405160e560020a62461bcd0281526004016101ba906138f4565b816004848154811061141f5761141f613807565b90600052602060002090600f0201600d016004858154811061144357611443613807565b90600052602060002090600f0201600d01805490508154811061146857611468613807565b90600052602060002001908161147e9190613994565b506004838154811061149257611492613807565b60009182526020909120600d600f9092020101549392505050565b61152f604051806101e0016040528060608152602001606081526020016060815260200160608152602001600081526020016000600160a060020a031681526020016000815260200160608152602001606081526020016060815260200160608152602001606081526020016060815260200160608152602001606081525090565b6004828154811061154257611542613807565b90600052602060002090600f0201604051806101e001604052908160008201805461156c90613821565b80601f016020809104026020016040519081016040528092919081815260200182805461159890613821565b80156115e55780601f106115ba576101008083540402835291602001916115e5565b820191906000526020600020905b8154815290600101906020018083116115c857829003601f168201915b505050505081526020016001820180546115fe90613821565b80601f016020809104026020016040519081016040528092919081815260200182805461162a90613821565b80156116775780601f1061164c57610100808354040283529160200191611677565b820191906000526020600020905b81548152906001019060200180831161165a57829003601f168201915b5050505050815260200160028201805461169090613821565b80601f01602080910402602001604051908101604052809291908181526020018280546116bc90613821565b80156117095780601f106116de57610100808354040283529160200191611709565b820191906000526020600020905b8154815290600101906020018083116116ec57829003601f168201915b5050505050815260200160038201805461172290613821565b80601f016020809104026020016040519081016040528092919081815260200182805461174e90613821565b801561179b5780601f106117705761010080835404028352916020019161179b565b820191906000526020600020905b81548152906001019060200180831161177e57829003601f168201915b50505050508152602001600482015481526020016005820160009054906101000a9004600160a060020a0316600160a060020a0316600160a060020a031681526020016006820154815260200160078201805480602002602001604051908101604052809291908181526020016000905b828210156118b857838290600052602060002001805461182b90613821565b80601f016020809104026020016040519081016040528092919081815260200182805461185790613821565b80156118a45780601f10611879576101008083540402835291602001916118a4565b820191906000526020600020905b81548152906001019060200180831161188757829003601f168201915b50505050508152602001906001019061180c565b50505050815260200160088201805480602002602001604051908101604052809291908181526020016000905b8282101561199157838290600052602060002001805461190490613821565b80601f016020809104026020016040519081016040528092919081815260200182805461193090613821565b801561197d5780601f106119525761010080835404028352916020019161197d565b820191906000526020600020905b81548152906001019060200180831161196057829003601f168201915b5050505050815260200190600101906118e5565b50505050815260200160098201805480602002602001604051908101604052809291908181526020016000905b82821015611a6a5783829060005260206000200180546119dd90613821565b80601f0160208091040260200160405190810160405280929190818152602001828054611a0990613821565b8015611a565780601f10611a2b57610100808354040283529160200191611a56565b820191906000526020600020905b815481529060010190602001808311611a3957829003601f168201915b5050505050815260200190600101906119be565b505050508152602001600a8201805480602002602001604051908101604052809291908181526020016000905b82821015611b43578382906000526020600020018054611ab690613821565b80601f0160208091040260200160405190810160405280929190818152602001828054611ae290613821565b8015611b2f5780601f10611b0457610100808354040283529160200191611b2f565b820191906000526020600020905b815481529060010190602001808311611b1257829003601f168201915b505050505081526020019060010190611a97565b505050508152602001600b8201805480602002602001604051908101604052809291908181526020016000905b82821015611c1c578382906000526020600020018054611b8f90613821565b80601f0160208091040260200160405190810160405280929190818152602001828054611bbb90613821565b8015611c085780601f10611bdd57610100808354040283529160200191611c08565b820191906000526020600020905b815481529060010190602001808311611beb57829003601f168201915b505050505081526020019060010190611b70565b505050508152602001600c8201805480602002602001604051908101604052809291908181526020016000905b82821015611cf5578382906000526020600020018054611c6890613821565b80601f0160208091040260200160405190810160405280929190818152602001828054611c9490613821565b8015611ce15780601f10611cb657610100808354040283529160200191611ce1565b820191906000526020600020905b815481529060010190602001808311611cc457829003601f168201915b505050505081526020019060010190611c49565b505050508152602001600d8201805480602002602001604051908101604052809291908181526020016000905b82821015611dce578382906000526020600020018054611d4190613821565b80601f0160208091040260200160405190810160405280929190818152602001828054611d6d90613821565b8015611dba5780601f10611d8f57610100808354040283529160200191611dba565b820191906000526020600020905b815481529060010190602001808311611d9d57829003601f168201915b505050505081526020019060010190611d22565b505050508152602001600e8201805480602002602001604051908101604052809291908181526020016000905b82821015611ea7578382906000526020600020018054611e1a90613821565b80601f0160208091040260200160405190810160405280929190818152602001828054611e4690613821565b8015611e935780601f10611e6857610100808354040283529160200191611e93565b820191906000526020600020905b815481529060010190602001808311611e7657829003601f168201915b505050505081526020019060010190611dfb565b505050915250909392505050565b60606005805480602002602001604051908101604052809291908181526020016000905b828210156120be57838290600052602060002090600702016040518060e0016040529081600082018054611f0c90613821565b80601f0160208091040260200160405190810160405280929190818152602001828054611f3890613821565b8015611f855780601f10611f5a57610100808354040283529160200191611f85565b820191906000526020600020905b815481529060010190602001808311611f6857829003601f168201915b50505050508152602001600182018054611f9e90613821565b80601f0160208091040260200160405190810160405280929190818152602001828054611fca90613821565b80156120175780601f10611fec57610100808354040283529160200191612017565b820191906000526020600020905b815481529060010190602001808311611ffa57829003601f168201915b5050505050815260200160028201548152602001600382015481526020016004820180548060200260200160405190810160405280929190818152602001828054801561208357602002820191906000526020600020905b81548152602001906001019080831161206f575b50505091835250506005820154602080830191909152600690920154600160a060020a03166040909101529082526001929092019101611ed9565b50505050905090565b600060043360009081526003602052604090205460ff1660058111156120ef576120ef61385f565b1461210f5760405160e560020a62461bcd0281526004016101ba90613879565b6040805160e08101825286815260208101869052908101849052426060828101919091526080820181905260a082018490523360c083015260058054600181018255600091909152825191929160079091027f036b6384b5eca791c62761152d0c79bb0604c104a5fb6f4eb0703f3154bb3db0019081906121909082613994565b50602082015160018201906121a59082613994565b506040820151600282015560608201516003820155608082015180516121d59160048401916020909101906130c4565b5060a082015160058281019190915560c09092015160069091018054600160a060020a031916600160a060020a03909216919091179055549695505050505050565b600060033360009081526003602052604090205460ff16600581111561223f5761223f61385f565b1461225f5760405160e560020a62461bcd0281526004016101ba906138bd565b33600160a060020a03166004848154811061227c5761227c613807565b600091825260209091206005600f909202010154600160a060020a0316146122b95760405160e560020a62461bcd0281526004016101ba906138f4565b81600484815481106122cd576122cd613807565b90600052602060002090600f0201600c01600485815481106122f1576122f1613807565b90600052602060002090600f0201600c01805490508154811061231657612316613807565b90600052602060002001908161232c9190613994565b506004838154811061234057612340613807565b60009182526020909120600c600f9092020101549392505050565b600060033360009081526003602052604090205460ff1660058111156123835761238361385f565b146123a35760405160e560020a62461bcd0281526004016101ba906138bd565b33600160a060020a0316600484815481106123c0576123c0613807565b600091825260209091206005600f909202010154600160a060020a0316146123fd5760405160e560020a62461bcd0281526004016101ba906138f4565b816004848154811061241157612411613807565b90600052602060002090600f02016009016004858154811061243557612435613807565b90600052602060002090600f0201600901805490508154811061245a5761245a613807565b9060005260206000200190816124709190613994565b506004838154811061248457612484613807565b600091825260209091206009600f9092020101549392505050565b600060033360009081526003602052604090205460ff1660058111156124c7576124c761385f565b146124e75760405160e560020a62461bcd0281526004016101ba906138bd565b33600160a060020a03166004848154811061250457612504613807565b600091825260209091206005600f909202010154600160a060020a0316146125415760405160e560020a62461bcd0281526004016101ba906138f4565b816004848154811061255557612555613807565b90600052602060002090600f0201600a016004858154811061257957612579613807565b90600052602060002090600f0201600a01805490508154811061259e5761259e613807565b9060005260206000200190816125b49190613994565b50600483815481106125c8576125c8613807565b60009182526020909120600a600f9092020101549392505050565b60606004805480602002602001604051908101604052809291908181526020016000905b828210156120be57838290600052602060002090600f0201604051806101e001604052908160008201805461263b90613821565b80601f016020809104026020016040519081016040528092919081815260200182805461266790613821565b80156126b45780601f10612689576101008083540402835291602001916126b4565b820191906000526020600020905b81548152906001019060200180831161269757829003601f168201915b505050505081526020016001820180546126cd90613821565b80601f01602080910402602001604051908101604052809291908181526020018280546126f990613821565b80156127465780601f1061271b57610100808354040283529160200191612746565b820191906000526020600020905b81548152906001019060200180831161272957829003601f168201915b5050505050815260200160028201805461275f90613821565b80601f016020809104026020016040519081016040528092919081815260200182805461278b90613821565b80156127d85780601f106127ad576101008083540402835291602001916127d8565b820191906000526020600020905b8154815290600101906020018083116127bb57829003601f168201915b505050505081526020016003820180546127f190613821565b80601f016020809104026020016040519081016040528092919081815260200182805461281d90613821565b801561286a5780601f1061283f5761010080835404028352916020019161286a565b820191906000526020600020905b81548152906001019060200180831161284d57829003601f168201915b50505050508152602001600482015481526020016005820160009054906101000a9004600160a060020a0316600160a060020a0316600160a060020a031681526020016006820154815260200160078201805480602002602001604051908101604052809291908181526020016000905b828210156129875783829060005260206000200180546128fa90613821565b80601f016020809104026020016040519081016040528092919081815260200182805461292690613821565b80156129735780601f1061294857610100808354040283529160200191612973565b820191906000526020600020905b81548152906001019060200180831161295657829003601f168201915b5050505050815260200190600101906128db565b50505050815260200160088201805480602002602001604051908101604052809291908181526020016000905b82821015612a605783829060005260206000200180546129d390613821565b80601f01602080910402602001604051908101604052809291908181526020018280546129ff90613821565b8015612a4c5780601f10612a2157610100808354040283529160200191612a4c565b820191906000526020600020905b815481529060010190602001808311612a2f57829003601f168201915b5050505050815260200190600101906129b4565b50505050815260200160098201805480602002602001604051908101604052809291908181526020016000905b82821015612b39578382906000526020600020018054612aac90613821565b80601f0160208091040260200160405190810160405280929190818152602001828054612ad890613821565b8015612b255780601f10612afa57610100808354040283529160200191612b25565b820191906000526020600020905b815481529060010190602001808311612b0857829003601f168201915b505050505081526020019060010190612a8d565b505050508152602001600a8201805480602002602001604051908101604052809291908181526020016000905b82821015612c12578382906000526020600020018054612b8590613821565b80601f0160208091040260200160405190810160405280929190818152602001828054612bb190613821565b8015612bfe5780601f10612bd357610100808354040283529160200191612bfe565b820191906000526020600020905b815481529060010190602001808311612be157829003601f168201915b505050505081526020019060010190612b66565b505050508152602001600b8201805480602002602001604051908101604052809291908181526020016000905b82821015612ceb578382906000526020600020018054612c5e90613821565b80601f0160208091040260200160405190810160405280929190818152602001828054612c8a90613821565b8015612cd75780601f10612cac57610100808354040283529160200191612cd7565b820191906000526020600020905b815481529060010190602001808311612cba57829003601f168201915b505050505081526020019060010190612c3f565b505050508152602001600c8201805480602002602001604051908101604052809291908181526020016000905b82821015612dc4578382906000526020600020018054612d3790613821565b80601f0160208091040260200160405190810160405280929190818152602001828054612d6390613821565b8015612db05780601f10612d8557610100808354040283529160200191612db0565b820191906000526020600020905b815481529060010190602001808311612d9357829003601f168201915b505050505081526020019060010190612d18565b505050508152602001600d8201805480602002602001604051908101604052809291908181526020016000905b82821015612e9d578382906000526020600020018054612e1090613821565b80601f0160208091040260200160405190810160405280929190818152602001828054612e3c90613821565b8015612e895780601f10612e5e57610100808354040283529160200191612e89565b820191906000526020600020905b815481529060010190602001808311612e6c57829003601f168201915b505050505081526020019060010190612df1565b505050508152602001600e8201805480602002602001604051908101604052809291908181526020016000905b82821015612f76578382906000526020600020018054612ee990613821565b80601f0160208091040260200160405190810160405280929190818152602001828054612f1590613821565b8015612f625780601f10612f3757610100808354040283529160200191612f62565b820191906000526020600020905b815481529060010190602001808311612f4557829003601f168201915b505050505081526020019060010190612eca565b505050508152505081526020019060010190612607565b600054600160a060020a03163314612fba5760405160e560020a62461bcd0281526004016101ba90613a90565b600160a060020a0381166130255760405160e560020a62461bcd02815260206004820152602660248201527f4f776e61626c653a206e6577206f776e657220697320746865207a65726f2061604482015260d060020a656464726573730260648201526084016101ba565b60008054604051600160a060020a0380851693921691600080516020613b1783398151915291a360008054600160a060020a031916600160a060020a0392909216919091179055565b8280548282559060005260206000209081019282156130b4579160200282015b828111156130b457825182906130a49082613994565b509160200191906001019061308e565b506130c092915061310b565b5090565b8280548282559060005260206000209081019282156130ff579160200282015b828111156130ff5782518255916020019190600101906130e4565b506130c0929150613128565b808211156130c057600061311f828261313d565b5060010161310b565b5b808211156130c05760008155600101613129565b50805461314990613821565b6000825580601f10613159575050565b601f0160209004906000526020600020908101906131779190613128565b50565b600160a060020a03169052565b600160a060020a03929092168252602082015260400190565b6000602082840312156131b257600080fd5b5035919050565b6000815180845260005b818110156131df576020818501810151868301820152016131c3565b506000602082860101526020601f19601f83011685010191505092915050565b6000815160e0845261321460e08501826131b9565b90506020808401518583038287015261322d83826131b9565b92505060408401516040860152606084015160608601526080840151858303608087015282815180855283850191508383019450600092505b808310156132865784518252938301936001929092019190830190613266565b5060a086015160a088015260c086015193506132a560c088018561317a565b9695505050505050565b6020815260006132c260208301846131ff565b9392505050565b8035600160a060020a03811681146132e057600080fd5b919050565b6000602082840312156132f757600080fd5b6132c2826132c9565b60e060020a634e487b710260009081526041600452602490fd5b600082601f83011261332b57600080fd5b81356001604060020a038082111561334557613345613300565b604051601f8301601f19908116603f0116810190828211818310171561336d5761336d613300565b8160405283815286602085880101111561338657600080fd5b836020870160208301376000602085830101528094505050505092915050565b600080604083850312156133b957600080fd5b8235915060208301356001604060020a038111156133d657600080fd5b6133e28582860161331a565b9150509250929050565b600080604083850312156133ff57600080fd5b613408836132c9565b915060208301356006811061341c57600080fd5b809150509250929050565b600080600080600060a0868803121561343f57600080fd5b85356001604060020a038082111561345657600080fd5b61346289838a0161331a565b9650602088013591508082111561347857600080fd5b61348489838a0161331a565b9550604088013591508082111561349a57600080fd5b6134a689838a0161331a565b945060608801359150808211156134bc57600080fd5b506134c98882890161331a565b95989497509295608001359392505050565b600080604083850312156134ee57600080fd5b50508035926020909101359150565b600081518084526020808501808196508284028101915082860160005b858110156135445782840389526135328483516131b9565b9885019893509084019060010161351a565b5091979650505050505050565b60006101e08251818552613567828601826131b9565b9150506020830151848203602086015261358182826131b9565b9150506040830151848203604086015261359b82826131b9565b915050606083015184820360608601526135b582826131b9565b9150506080830151608085015260a08301516135d460a086018261317a565b5060c083015160c085015260e083015184820360e08601526135f682826134fd565b915050610100808401518583038287015261361183826134fd565b92505050610120808401518583038287015261362d83826134fd565b92505050610140808401518583038287015261364983826134fd565b92505050610160808401518583038287015261366583826134fd565b92505050610180808401518583038287015261368183826134fd565b925050506101a0808401518583038287015261369d83826134fd565b925050506101c080840151858303828701526132a583826134fd565b6020815260006132c26020830184613551565b600060208083018184528085518083526040860191506040848202870101925083870160005b8281101561372057603f1988860301845261370e8583516131ff565b945092850192908501906001016136f2565b5092979650505050505050565b6000806000806080858703121561374357600080fd5b84356001604060020a038082111561375a57600080fd5b6137668883890161331a565b9550602087013591508082111561377c57600080fd5b506137898782880161331a565b949794965050505060408301359260600135919050565b600060208083018184528085518083526040860191506040848202870101925083870160005b8281101561372057603f198886030184526137e2858351613551565b945092850192908501906001016137c6565b6020815260006132c260208301846131b9565b60e060020a634e487b710260009081526032600452602490fd5b60028104600182168061383557607f821691505b6020821081036138595760e060020a634e487b710260009081526022600452602490fd5b50919050565b60e060020a634e487b710260009081526021600452602490fd5b60208082526021908201527f6e6f7420617574686f72697a656420746561636865722f696e7374727563746f604082015260f960020a603902606082015260800190565b6020808252601e908201527f6e6f7420617574686f72697a656420746f20706c616e206c6573736f6e730000604082015260600190565b6020808252602e908201527f6e6f7420746865206c6573736f6e20706c616e6e65722077686f2063726561746040820152609160020a6d32b2103a3434b9903632b9b9b7b702606082015260800190565b601f82111561398f576000818152602081206020601f8601048101602086101561396c5750805b6020601f860104820191505b8181101561398b57828155600101613978565b5050505b505050565b81516001604060020a038111156139ad576139ad613300565b6139c1816139bb8454613821565b84613945565b602080601f8311600181146139fa57600084156139de5750858301515b60028086026008870290910a600019041982161786555061398b565b600085815260208120601f198616915b82811015613a2957888601518255948401946001909101908401613a0a565b5085821015613a4957878501516008601f88160260020a60001904191681555b5050505050600202600101905550565b6020808252601c908201527f6e6f7420617574686f72697a65642061646d696e6973747261746f7200000000604082015260600190565b6020808252601790820152604960020a7630b1b1b2b9b9903232b734b2b2103337b91037bbb732b902604082015260600190565b8082018082111561098e5760e060020a634e487b710260009081526011600452602490fd5b6020808252601090820152608160020a6f3930ba32903634b6b4ba1032b93937b90260408201526060019056fe8be0079c531659141344cd1fd0a4f28419497f9722a3daafe3b4186f6b6457e0a2646970667358221220096abc32b647a0f74542c60403ea9de93e997f87aabf09f688eb2446cb3b09da64736f6c63430008120033",
  "immutableReferences": {},
  "source": "// SPDX-License-Identifier: CC-BY-4.0\r\npragma solidity >=0.4.22 <0.9.0;\r\n\r\nimport \"./Lesson.sol\";\r\n\r\ncontract Course is Lesson {\r\n\r\n    struct CourseMetadata {\r\n        string  name;\r\n        string  description;\r\n        uint    credits;\r\n        uint256 created;\r\n        uint[] lessons;\r\n        uint256 cost;\r\n        address teacher;\r\n    }\r\n\r\n    CourseMetadata[] private courses;\r\n\r\n    function createCourse(string memory name, string memory description, uint credits, uint256 cost)\r\n        external\r\n        isTeacher\r\n        returns (uint)\r\n    {\r\n        uint[] memory empty;\r\n        courses.push(CourseMetadata({\r\n            name: name,\r\n            description: description,\r\n            credits: credits,\r\n            created: block.timestamp,\r\n            lessons: empty,\r\n            cost: cost,\r\n            teacher: msg.sender\r\n        }));\r\n        return courses.length;\r\n    }\r\n\r\n    function getCourse(uint index)\r\n        public\r\n        view\r\n        returns (CourseMetadata memory)\r\n    {\r\n        return courses[index];\r\n    }\r\n\r\n    function getCourses()\r\n        public\r\n        view\r\n        returns (CourseMetadata[] memory)\r\n    {\r\n        return courses;\r\n    }\r\n\r\n    function addLesson(uint course,uint lesson)\r\n        public\r\n        isTeacher\r\n    {\r\n        require(course < courses.length,\"course is out of range\");\r\n        courses[course].lessons.push(lesson);\r\n    }\r\n}",
  "sourcePath": "/Volumes/My Book/projects/pingleware-contracts/contracts/education/Course.sol",
  "compiler": {
    "name": "solc",
    "version": "0.8.18+commit.87f61d96.Emscripten.clang"
  },
  "schemaVersion": "3.4.12",
  "updatedAt": "2023-10-25T00:43:22.207Z",
  "networkType": "ethereum",
  "devdoc": {
    "kind": "dev",
    "methods": {
      "renounceOwnership()": {
        "details": "Leaves the contract without owner. It will not be possible to call `onlyOwner` functions anymore. Can only be called by the current owner. NOTE: Renouncing ownership will leave the contract without an owner, thereby removing any functionality that is only available to the owner."
      },
      "transferOwnership(address)": {
        "details": "Transfers ownership of the contract to a new account (`newOwner`). Can only be called by the current owner."
      }
    },
    "version": 1
  },
  "userdoc": {
    "kind": "user",
    "methods": {},
    "version": 1
  }
}