{
  "contractName": "Course",
  "abi": [
    {
      "anonymous": false,
      "inputs": [
        {
          "indexed": false,
          "internalType": "address",
          "name": "sender",
          "type": "address"
        },
        {
          "indexed": false,
          "internalType": "uint256",
          "name": "amount",
          "type": "uint256"
        }
      ],
      "name": "FallbackEvent",
      "type": "event"
    },
    {
      "anonymous": false,
      "inputs": [
        {
          "indexed": true,
          "internalType": "address",
          "name": "previousOwner",
          "type": "address"
        },
        {
          "indexed": true,
          "internalType": "address",
          "name": "newOwner",
          "type": "address"
        }
      ],
      "name": "OwnershipTransferred",
      "type": "event"
    },
    {
      "anonymous": false,
      "inputs": [
        {
          "indexed": false,
          "internalType": "address",
          "name": "sender",
          "type": "address"
        },
        {
          "indexed": false,
          "internalType": "uint256",
          "name": "amount",
          "type": "uint256"
        }
      ],
      "name": "ReceiveEvent",
      "type": "event"
    },
    {
      "stateMutability": "payable",
      "type": "fallback"
    },
    {
      "inputs": [],
      "name": "VERSION",
      "outputs": [
        {
          "internalType": "string",
          "name": "",
          "type": "string"
        }
      ],
      "stateMutability": "view",
      "type": "function"
    },
    {
      "inputs": [],
      "name": "WAIT",
      "outputs": [
        {
          "internalType": "uint256",
          "name": "",
          "type": "uint256"
        }
      ],
      "stateMutability": "view",
      "type": "function"
    },
    {
      "inputs": [
        {
          "internalType": "uint256",
          "name": "index",
          "type": "uint256"
        },
        {
          "internalType": "string",
          "name": "plan",
          "type": "string"
        }
      ],
      "name": "addActionPlan",
      "outputs": [
        {
          "internalType": "uint256",
          "name": "",
          "type": "uint256"
        }
      ],
      "stateMutability": "nonpayable",
      "type": "function"
    },
    {
      "inputs": [
        {
          "internalType": "uint256",
          "name": "index",
          "type": "uint256"
        },
        {
          "internalType": "string",
          "name": "equipment",
          "type": "string"
        }
      ],
      "name": "addEquipment",
      "outputs": [
        {
          "internalType": "uint256",
          "name": "",
          "type": "uint256"
        }
      ],
      "stateMutability": "nonpayable",
      "type": "function"
    },
    {
      "inputs": [
        {
          "internalType": "uint256",
          "name": "index",
          "type": "uint256"
        },
        {
          "internalType": "string",
          "name": "feedback",
          "type": "string"
        }
      ],
      "name": "addFeedback",
      "outputs": [
        {
          "internalType": "uint256",
          "name": "",
          "type": "uint256"
        }
      ],
      "stateMutability": "nonpayable",
      "type": "function"
    },
    {
      "inputs": [
        {
          "internalType": "uint256",
          "name": "index",
          "type": "uint256"
        },
        {
          "internalType": "string",
          "name": "homework",
          "type": "string"
        }
      ],
      "name": "addHomework",
      "outputs": [
        {
          "internalType": "uint256",
          "name": "",
          "type": "uint256"
        }
      ],
      "stateMutability": "nonpayable",
      "type": "function"
    },
    {
      "inputs": [
        {
          "internalType": "address",
          "name": "user",
          "type": "address"
        }
      ],
      "name": "addLessonPlanner",
      "outputs": [],
      "stateMutability": "nonpayable",
      "type": "function"
    },
    {
      "inputs": [
        {
          "internalType": "uint256",
          "name": "index",
          "type": "uint256"
        },
        {
          "internalType": "string",
          "name": "material",
          "type": "string"
        }
      ],
      "name": "addMaterial",
      "outputs": [
        {
          "internalType": "uint256",
          "name": "",
          "type": "uint256"
        }
      ],
      "stateMutability": "nonpayable",
      "type": "function"
    },
    {
      "inputs": [
        {
          "internalType": "uint256",
          "name": "index",
          "type": "uint256"
        },
        {
          "internalType": "string",
          "name": "objective",
          "type": "string"
        }
      ],
      "name": "addObjective",
      "outputs": [
        {
          "internalType": "uint256",
          "name": "",
          "type": "uint256"
        }
      ],
      "stateMutability": "nonpayable",
      "type": "function"
    },
    {
      "inputs": [
        {
          "internalType": "uint256",
          "name": "index",
          "type": "uint256"
        },
        {
          "internalType": "string",
          "name": "_reference",
          "type": "string"
        }
      ],
      "name": "addReference",
      "outputs": [
        {
          "internalType": "uint256",
          "name": "",
          "type": "uint256"
        }
      ],
      "stateMutability": "nonpayable",
      "type": "function"
    },
    {
      "inputs": [
        {
          "internalType": "address",
          "name": "user",
          "type": "address"
        }
      ],
      "name": "addStudent",
      "outputs": [],
      "stateMutability": "nonpayable",
      "type": "function"
    },
    {
      "inputs": [
        {
          "internalType": "address",
          "name": "user",
          "type": "address"
        }
      ],
      "name": "addStudentAssistance",
      "outputs": [],
      "stateMutability": "nonpayable",
      "type": "function"
    },
    {
      "inputs": [
        {
          "internalType": "uint256",
          "name": "index",
          "type": "uint256"
        },
        {
          "internalType": "string",
          "name": "task",
          "type": "string"
        }
      ],
      "name": "addTask",
      "outputs": [
        {
          "internalType": "uint256",
          "name": "",
          "type": "uint256"
        }
      ],
      "stateMutability": "nonpayable",
      "type": "function"
    },
    {
      "inputs": [
        {
          "internalType": "address",
          "name": "user",
          "type": "address"
        }
      ],
      "name": "addTeacher",
      "outputs": [],
      "stateMutability": "nonpayable",
      "type": "function"
    },
    {
      "inputs": [
        {
          "internalType": "address",
          "name": "user",
          "type": "address"
        },
        {
          "internalType": "enum EducationRoles.Role",
          "name": "_role",
          "type": "uint8"
        }
      ],
      "name": "addUser",
      "outputs": [],
      "stateMutability": "nonpayable",
      "type": "function"
    },
    {
      "inputs": [
        {
          "internalType": "string",
          "name": "name",
          "type": "string"
        },
        {
          "internalType": "string",
          "name": "description",
          "type": "string"
        },
        {
          "internalType": "string",
          "name": "course",
          "type": "string"
        },
        {
          "internalType": "string",
          "name": "subject",
          "type": "string"
        },
        {
          "internalType": "uint256",
          "name": "duration",
          "type": "uint256"
        }
      ],
      "name": "createLesson",
      "outputs": [
        {
          "internalType": "uint256",
          "name": "",
          "type": "uint256"
        }
      ],
      "stateMutability": "nonpayable",
      "type": "function"
    },
    {
      "inputs": [
        {
          "internalType": "uint256",
          "name": "index",
          "type": "uint256"
        }
      ],
      "name": "getLesson",
      "outputs": [
        {
          "components": [
            {
              "internalType": "string",
              "name": "name",
              "type": "string"
            },
            {
              "internalType": "string",
              "name": "description",
              "type": "string"
            },
            {
              "internalType": "string",
              "name": "course",
              "type": "string"
            },
            {
              "internalType": "string",
              "name": "subject",
              "type": "string"
            },
            {
              "internalType": "uint256",
              "name": "created",
              "type": "uint256"
            },
            {
              "internalType": "address",
              "name": "created_by",
              "type": "address"
            },
            {
              "internalType": "uint256",
              "name": "duration",
              "type": "uint256"
            },
            {
              "internalType": "string[]",
              "name": "objectives",
              "type": "string[]"
            },
            {
              "internalType": "string[]",
              "name": "tasks",
              "type": "string[]"
            },
            {
              "internalType": "string[]",
              "name": "action_plan",
              "type": "string[]"
            },
            {
              "internalType": "string[]",
              "name": "materials",
              "type": "string[]"
            },
            {
              "internalType": "string[]",
              "name": "equipment",
              "type": "string[]"
            },
            {
              "internalType": "string[]",
              "name": "references",
              "type": "string[]"
            },
            {
              "internalType": "string[]",
              "name": "homework",
              "type": "string[]"
            },
            {
              "internalType": "string[]",
              "name": "feedback",
              "type": "string[]"
            }
          ],
          "internalType": "struct Lesson.LessonMetadata",
          "name": "",
          "type": "tuple"
        }
      ],
      "stateMutability": "view",
      "type": "function"
    },
    {
      "inputs": [],
      "name": "getLessons",
      "outputs": [
        {
          "components": [
            {
              "internalType": "string",
              "name": "name",
              "type": "string"
            },
            {
              "internalType": "string",
              "name": "description",
              "type": "string"
            },
            {
              "internalType": "string",
              "name": "course",
              "type": "string"
            },
            {
              "internalType": "string",
              "name": "subject",
              "type": "string"
            },
            {
              "internalType": "uint256",
              "name": "created",
              "type": "uint256"
            },
            {
              "internalType": "address",
              "name": "created_by",
              "type": "address"
            },
            {
              "internalType": "uint256",
              "name": "duration",
              "type": "uint256"
            },
            {
              "internalType": "string[]",
              "name": "objectives",
              "type": "string[]"
            },
            {
              "internalType": "string[]",
              "name": "tasks",
              "type": "string[]"
            },
            {
              "internalType": "string[]",
              "name": "action_plan",
              "type": "string[]"
            },
            {
              "internalType": "string[]",
              "name": "materials",
              "type": "string[]"
            },
            {
              "internalType": "string[]",
              "name": "equipment",
              "type": "string[]"
            },
            {
              "internalType": "string[]",
              "name": "references",
              "type": "string[]"
            },
            {
              "internalType": "string[]",
              "name": "homework",
              "type": "string[]"
            },
            {
              "internalType": "string[]",
              "name": "feedback",
              "type": "string[]"
            }
          ],
          "internalType": "struct Lesson.LessonMetadata[]",
          "name": "",
          "type": "tuple[]"
        }
      ],
      "stateMutability": "view",
      "type": "function"
    },
    {
      "inputs": [],
      "name": "getOwner",
      "outputs": [
        {
          "internalType": "address",
          "name": "",
          "type": "address"
        }
      ],
      "stateMutability": "payable",
      "type": "function"
    },
    {
      "inputs": [],
      "name": "renounceOwnership",
      "outputs": [],
      "stateMutability": "payable",
      "type": "function"
    },
    {
      "inputs": [
        {
          "internalType": "address",
          "name": "newOwner",
          "type": "address"
        }
      ],
      "name": "transferOwnership",
      "outputs": [],
      "stateMutability": "payable",
      "type": "function"
    },
    {
      "stateMutability": "payable",
      "type": "receive"
    },
    {
      "inputs": [
        {
          "internalType": "string",
          "name": "name",
          "type": "string"
        },
        {
          "internalType": "string",
          "name": "description",
          "type": "string"
        },
        {
          "internalType": "uint256",
          "name": "credits",
          "type": "uint256"
        },
        {
          "internalType": "uint256",
          "name": "cost",
          "type": "uint256"
        }
      ],
      "name": "createCourse",
      "outputs": [
        {
          "internalType": "uint256",
          "name": "",
          "type": "uint256"
        }
      ],
      "stateMutability": "nonpayable",
      "type": "function"
    },
    {
      "inputs": [
        {
          "internalType": "uint256",
          "name": "index",
          "type": "uint256"
        }
      ],
      "name": "getCourse",
      "outputs": [
        {
          "components": [
            {
              "internalType": "string",
              "name": "name",
              "type": "string"
            },
            {
              "internalType": "string",
              "name": "description",
              "type": "string"
            },
            {
              "internalType": "uint256",
              "name": "credits",
              "type": "uint256"
            },
            {
              "internalType": "uint256",
              "name": "created",
              "type": "uint256"
            },
            {
              "internalType": "uint256[]",
              "name": "lessons",
              "type": "uint256[]"
            },
            {
              "internalType": "uint256",
              "name": "cost",
              "type": "uint256"
            },
            {
              "internalType": "address",
              "name": "teacher",
              "type": "address"
            }
          ],
          "internalType": "struct Course.CourseMetadata",
          "name": "",
          "type": "tuple"
        }
      ],
      "stateMutability": "view",
      "type": "function"
    },
    {
      "inputs": [],
      "name": "getCourses",
      "outputs": [
        {
          "components": [
            {
              "internalType": "string",
              "name": "name",
              "type": "string"
            },
            {
              "internalType": "string",
              "name": "description",
              "type": "string"
            },
            {
              "internalType": "uint256",
              "name": "credits",
              "type": "uint256"
            },
            {
              "internalType": "uint256",
              "name": "created",
              "type": "uint256"
            },
            {
              "internalType": "uint256[]",
              "name": "lessons",
              "type": "uint256[]"
            },
            {
              "internalType": "uint256",
              "name": "cost",
              "type": "uint256"
            },
            {
              "internalType": "address",
              "name": "teacher",
              "type": "address"
            }
          ],
          "internalType": "struct Course.CourseMetadata[]",
          "name": "",
          "type": "tuple[]"
        }
      ],
      "stateMutability": "view",
      "type": "function"
    },
    {
      "inputs": [
        {
          "internalType": "uint256",
          "name": "course",
          "type": "uint256"
        },
        {
          "internalType": "uint256",
          "name": "lesson",
          "type": "uint256"
        }
      ],
      "name": "addLesson",
      "outputs": [],
      "stateMutability": "nonpayable",
      "type": "function"
    }
  ],
  "bytecode": "0x608080604052346100535760008054600160a060020a03191633908117825542600155907f8be0079c531659141344cd1fd0a4f28419497f9722a3daafe3b4186f6b6457e08180a36121c590816100598239f35b600080fdfe60808060405260043610156100c9575b50361561009957333203610052577f26875833861a2b006512a11f1b86edf95df96131040f3caeed72989ee98580836040518061004d343383611ae3565b0390a1005b60405160e560020a62461bcd0281526020600482015260196024820152603860020a787068697368696e672061747461636b2064657465637465643f026044820152606490fd5b7fcc85d09d309785db93d6df19917f2e6cc07fe27cd01c08c8279145deb5cf45266040518061004d343383611ae3565b60e060020a6000350490630b91e28d82146116ce575080632e3c8921146116105780633867d89d146115ce5780633bc6e3091461156a578063437072b01461150357806358fcbbfd146114c1578063715018a61461147a578063893d20e814611416578063902d6c53146113d45780639c3eead914611331578063ac30a4c414610ab3578063b8fb3a5114610a97578063b9ca7b47146109c4578063b9d1620214610982578063bd06ea1914610921578063c5ad1f31146108df578063cbfe253f14610836578063cc1264791461074e578063d4c4ecfa1461052e578063db5a9885146104ec578063dd23f8ed146104aa578063dd79d1a01461040c578063e28aa48a14610324578063f2fde38b1461026f5763ffa1ad74146101ec573861000f565b3461026a57600036600319011261026a5760408051908101906001604060020a038211818310176102505761024c91604052600a815260b060020a69312e362e342d6265746102602082015260405191829160208352602083019061173e565b0390f35b60e060020a634e487b710260009081526041600452602490fd5b600080fd5b602036600319011261026a57610283611819565b600054600160a060020a038082169261029d338514611afe565b169182156102ca578290600080516020612170833981519152600080a3600160a060020a03191617600055005b60405160e560020a62461bcd02815260206004820152602660248201527f4f776e61626c653a206e6577206f776e657220697320746865207a65726f2061604482015260d060020a65646472657373026064820152608490fd5b3461026a57600036600319011261026a5760045461034181611e94565b9061034f6040519283611866565b80825260046000908152602091828401917f8a35acfbc15ff81a39ae7d344fd709f28e8600b4aa8c65c6b64bfe7fe36bd19b835b8383106103e957505050506040519180830193818452518094526040830193604082820285010192916000955b8287106103bd5785850386f35b9091929382806103d9600193603f198a8203018652885161196a565b96019201960195929190926103b0565b600f866001926103fb859a999a611fd5565b815201920192019190959495610383565b3461026a5761041a366118df565b33600052600360205260ff60406000205416906006821015610490576020926104806104859261044e6003600a9614611f12565b61046f61045a84611f61565b5060050154600160a060020a031633146120d9565b8461047984611f61565b5001612142565b611f61565b500154604051908152f35b60e060020a634e487b710260009081526021600452602490fd5b3461026a576104b8366118df565b33600052600360205260ff60406000205416906006821015610490576020926104806104859261044e600360099614611f12565b3461026a576104fa366118df565b33600052600360205260ff60406000205416906006821015610490576020926104806104859261044e6003600c9614611f12565b3461026a57608036600319011261026a576001604060020a0360043581811161026a5761055f903690600401611889565b602490813583811161026a57610579903690600401611889565b90336000526020926003845260ff6040600020541660068110156107365760046105a39114611b4a565b604051916105b08361182f565b825283820192835260408201946044358652606083019342855260808401906060825260a0850193606435855260c086019633885260055499604060020a93848c101561071d5761060860019c8d8101600555611ba6565b999099610704579061061e61062792518b611c35565b518c8a01611c35565b5160028801555160038701556004860192519182519485116106ec5784116106d55750869082548484558085106106b8575b5001906000528560002060005b8381106106a75784516005808801919091558751600688018054600160a060020a031916600160a060020a0392909216919091179055546040519081528890f35b825182820155918701918801610666565b6106cf908460005285846000209182019101611c1e565b89610659565b60e060020a634e487b710260009081526041600452fd5b5060e060020a634e487b710260009081526041600452fd5b60e060020a634e487b7102600090815260048190528590fd5b60e060020a634e487b7102600090815260416004528490fd5b5060e060020a634e487b710260009081526021600452fd5b3461026a57600036600319011261026a5760055461076b81611e94565b906107796040519283611866565b80825260056000908152602091828401917f036b6384b5eca791c62761152d0c79bb0604c104a5fb6f4eb0703f3154bb3db0835b83831061081357505050506040519180830193818452518094526040830193604082820285010192916000955b8287106107e75785850386f35b909192938280610803600193603f198a8203018652885161177e565b96019201960195929190926107da565b600786600192610825859a999a611de1565b8152019201920191909594956107ad565b3461026a57602036600319011261026a576040516108538161184a565b6101c0606091828152826020820152826040820152828082015260006080820152600060a0820152600060c08201528260e08201528261010082015282610120820152826101408201528261016082015282610180820152826101a0820152015261024c6108cb6108c5600435611f61565b50611fd5565b60405191829160208352602083019061196a565b3461026a576108ed366118df565b33600052600360205260ff60406000205416906006821015610490576020926104806104859261044e6003600d9614611f12565b3461026a57602036600319011261026a5761093a611819565b33600052600360205260ff6040600020541660068110156104905760056109619114611ec3565b600160a060020a03166000908152600360205260409020805460ff19169055005b3461026a57610990366118df565b33600052600360205260ff60406000205416906006821015610490576020926104806104859261044e600360079614611f12565b3461026a57604036600319011261026a5760043533600052600360205260ff6040600020541660068110156104905760046109ff9114611b4a565b600554811015610a5357610a14600491611ba6565b50018054604060020a81101561025057610a3391600182018155611eab565b60088254910260020a908160000380926024350216911916179055600080f35b60405160e560020a62461bcd0281526020600482015260166024820152605060020a75636f75727365206973206f7574206f662072616e6765026044820152606490fd5b3461026a57600036600319011261026a576020604051601e8152f35b3461026a5760a036600319011261026a576001604060020a0360043581811161026a57610ae4903690600401611889565b9060243581811161026a57610afd903690600401611889565b9060443581811161026a57610b16903690600401611889565b9060643590811161026a57610b2f903690600401611889565b9133600052600360205260ff604060002054166006811015610490576003610b579114611f12565b60405193610b648561184a565b845260208401526040830152606090818301524260808301523360a083015260843560c08301528060e08301528061010083015280610120830152806101408301528061016083015280610180830152806101a0830152806101c0830152600454604060020a81101561025057806001610be19201600455611f61565b91909161131757610c2590610bf7845184611c35565b610c08602085015160018501611c35565b610c19604085015160028501611c35565b83015160038301611c35565b6080820151600482015560a0820151600582018054600160a060020a031916600160a060020a039290921691909117905560c0820151600682015560e0820151805190604060020a821161025057600783015482600785015580831061129f575b506020016007830160005260206000206000915b838310611282578585610100820151805190604060020a821161025057600883015482600885015580831061120a575b506020016008830160005260206000206000915b8383106111ed578585610120820151805190604060020a8211610250576009830154826009850155808310611175575b506020016009830160005260206000206000915b838310611158578585610140820151805190604060020a821161025057600a83015482600a8501558083106110e0575b50602001600a830160005260206000206000915b8383106110c3578585610160820151805190604060020a821161025057600b83015482600b85015580831061104b575b50602001600b830160005260206000206000915b83831061102e578585600c810161018083015190815191604060020a8311610250578154838355808410610fba575b506020019060005260206000206000915b838310610f9d578585600d81016101a083015190815191604060020a8311610250578154838355808410610f29575b506020019060005260206000206000915b838310610f0c576101c08601518051600e870191604060020a8211610250578254828455808310610e98575b506020019160005260206000206000925b828410610e7b576020600454604051908152f35b6001602082610e8c83945186611c35565b01920193019290610e67565b8360005282602060002091820191015b818110610eb55750610e56565b80610ec260019254611bdf565b80610ecf575b5001610ea8565b601f908181118414610ee8575050600081555b86610ec8565b610f0360206000938585528185209301048201858301611c1e565b81835555610ee2565b6001602082610f1d83945186611c35565b01920192019190610e2a565b8260005283602060002091820191015b818110610f465750610e19565b80610f5360019254611bdf565b80610f60575b5001610f39565b601f908181118414610f79575050600081555b88610f59565b610f9460206000938585528185209301048201858301611c1e565b81835555610f73565b6001602082610fae83945186611c35565b01920192019190610dea565b8260005283602060002091820191015b818110610fd75750610dd9565b80610fe460019254611bdf565b80610ff1575b5001610fca565b601f90818111841461100a575050600081555b88610fea565b61102560206000938585528185209301048201858301611c1e565b81835555611004565b600160208261103f83945186611c35565b01920192019190610daa565b600b84016000526020600020908382015b818301811061106c575050610d96565b8061107960019254611bdf565b80611086575b500161105c565b601f90818111841461109f575050600081555b8861107f565b6110ba60206000938585528185209301048201858301611c1e565b81835555611099565b60016020826110d483945186611c35565b01920192019190610d66565b600a84016000526020600020908382015b8183018110611101575050610d52565b8061110e60019254611bdf565b8061111b575b50016110f1565b601f908181118414611134575050600081555b88611114565b61114f60206000938585528185209301048201858301611c1e565b8183555561112e565b600160208261116983945186611c35565b01920192019190610d22565b600984016000526020600020908382015b8183018110611196575050610d0e565b806111a360019254611bdf565b806111b0575b5001611186565b601f9081811184146111c9575050600081555b886111a9565b6111e460206000938585528185209301048201858301611c1e565b818355556111c3565b60016020826111fe83945186611c35565b01920192019190610cde565b600884016000526020600020908382015b818301811061122b575050610cca565b8061123860019254611bdf565b80611245575b500161121b565b601f90818111841461125e575050600081555b8861123e565b61127960206000938585528185209301048201858301611c1e565b81835555611258565b600160208261129383945186611c35565b01920192019190610c9a565b600784016000526020600020908382015b81830181106112c0575050610c86565b806112cd60019254611bdf565b806112da575b50016112b0565b601f9081811184146112f3575050600081555b886112d3565b61130e60206000938585528185209301048201858301611c1e565b818355556112ed565b60e060020a634e487b710260009081526004819052602490fd5b3461026a57604036600319011261026a5761134a611819565b60243590600682101561026a57600054600160a060020a0391908216330361138c5716600052600360205260406000209060ff80198354169116179055600080f35b60405160e560020a62461bcd02815260206004820152601b60248201527f756e617574686f72697a65642c206e6f7420746865206f776e657200000000006044820152606490fd5b3461026a576113e2366118df565b33600052600360205260ff60406000205416906006821015610490576020926104806104859261044e6003600e9614611f12565b600036600319011261026a57600154601e81018091116114605761144490421161143f81611a9e565b611a9e565b42600155600054604051600160a060020a039091168152602090f35b60e060020a634e487b710260009081526011600452602490fd5b600036600319011261026a576000805490600160a060020a0382166114a0338214611afe565b6000805160206121708339815191528280a3600160a060020a031916600055005b3461026a576114cf366118df565b33600052600360205260ff60406000205416906006821015610490576020926104806104859261044e600360089614611f12565b3461026a57602036600319011261026a5761151c611819565b33600052600360205260ff6040600020541660068110156104905760046115439114611b4a565b600160a060020a03166000908152600360208190526040909120805460ff19169091179055005b3461026a57602036600319011261026a57611583611819565b33600052600360205260ff6040600020541660068110156104905760056115aa9114611ec3565b600160a060020a03166000908152600360205260409020805460ff19166004179055005b3461026a576115dc366118df565b33600052600360205260ff60406000205416906006821015610490576020926104806104859261044e6003600b9614611f12565b3461026a57602036600319011261026a57611629611819565b33600052600360205260ff6040600020541660068110156104905760046116509114611b4a565b600160a060020a031660008181526003602052604090205460ff16600681101561049057611693576000908152600360205260409020805460ff19166001179055005b60405160e560020a62461bcd02815260206004820152600d6024820152609a60020a6c1b9bdd0818481cdd1d59195b9d026044820152606490fd5b3461026a57602036600319011261026a5760c0816116ed60009361182f565b6060815260606020820152826040820152826060820152606060808201528260a0820152015261024c61172a611724600435611ba6565b50611de1565b60405191829160208352602083019061177e565b919082519283825260005b84811061176a575050826000602080949584010152601f8019910116010190565b602081830181015184830182015201611749565b90611792825160e0835260e083019061173e565b916117a9602093848301518482038686015261173e565b926040820151604084015260608201516060840152608082015193838103608085015281808651928381520195019160005b8281106118055750505060a080830151908401525060c090810151600160a060020a031691015290565b8351875295810195928101926001016117db565b60043590600160a060020a038216820361026a57565b60e081019081106001604060020a0382111761025057604052565b6101e081019081106001604060020a0382111761025057604052565b601f909101601f19168101906001604060020a0382119082101761025057604052565b81601f8201121561026a578035906001604060020a03821161025057604051926118bd601f8401601f191660200185611866565b8284526020838301011161026a57816000926020809301838601378301015290565b90604060031983011261026a5760043591602435906001604060020a03821161026a5761190e91600401611889565b90565b80518083526020808202840181019392810192600090828101905b84831061193c5750505050505090565b909192939495848061195a600193601f198682030187528a5161173e565b980193019301919493929061192c565b9061190e91611a8a611a76611a62611a4e611a3a611a26611a126119d96119c76119b46119a18b518d6101e090818152019061173e565b60208c01518d602081840391015261173e565b60408b01518c604081840391015261173e565b60608a01518b820360608d015261173e565b608089015160808b0152600160a060020a0360a08a01511660a08b015260c089015160c08b015260e08901518a820360e08c0152611911565b61010080890151908a8303908b0152611911565b6101208088015190898303908a0152611911565b610140808701519088830390890152611911565b610160808601519087830390880152611911565b610180808501519086830390870152611911565b6101a0808401519085830390860152611911565b916101c08092015191818403910152611911565b15611aa557565b60405160e560020a62461bcd0281526020600482015260106024820152608160020a6f3930ba32903634b6b4ba1032b93937b9026044820152606490fd5b600160a060020a039091168152602081019190915260400190565b15611b0557565b60405160e560020a62461bcd0281526020600482015260176024820152604960020a7630b1b1b2b9b9903232b734b2b2103337b91037bbb732b9026044820152606490fd5b15611b5157565b60405160e560020a62461bcd02815260206004820152602160248201527f6e6f7420617574686f72697a656420746561636865722f696e7374727563746f604482015260f960020a6039026064820152608490fd5b600554811015611bc55760056000526007602060002091020190600090565b60e060020a634e487b710260009081526032600452602490fd5b9060016002830492168015611c14575b6020831014611bfa57565b60e060020a634e487b710260009081526022600452602490fd5b91607f1691611bef565b818110611c29575050565b60008155600101611c1e565b815190916001604060020a038211610250578190611c538454611bdf565b601f8111611cfe575b5060209081601f8411600114611c985750600092611c8d575b5050816002029160080260020a600019041916179055565b015190503880611c75565b60008681528181209450601f198616915b828210611ce65750509160029391856001969410611ccb575b50505002019055565b01516008601f841602840a6000190419169055388080611cc2565b80600186978294978701518155019601940190611ca9565b611d2c908560005260206000206020601f86010481019160208610611d32575b601f60209101040190611c1e565b38611c5c565b9091508190611d1e565b9060405191826000825492611d5084611bdf565b908184526001948581169081600014611dbf5750600114611d7c575b5050611d7a92500383611866565b565b9093915060005260209081600020936000915b818310611da7575050611d7a93508201013880611d6c565b85548884018501529485019487945091830191611d8f565b915050611d7a94506020925060ff191682840152151581028201013880611d6c565b90604051611dee8161182f565b8092611df981611d3c565b82526001611e08818301611d3c565b6020908185015260028301546040850152600383015460608501526004830190604051928382845491828152019360005282600020926000905b828210611e7f57505050505090611e5e8160c094930382611866565b6080840152600581015460a084015260060154600160a060020a0316910152565b84548652948501949383019390830190611e42565b6001604060020a0381116102505760208091020190565b8054821015611bc55760005260206000200190600090565b15611eca57565b60405160e560020a62461bcd02815260206004820152601c60248201527f6e6f7420617574686f72697a65642061646d696e6973747261746f72000000006044820152606490fd5b15611f1957565b60405160e560020a62461bcd02815260206004820152601e60248201527f6e6f7420617574686f72697a656420746f20706c616e206c6573736f6e7300006044820152606490fd5b600454811015611bc5576004600052600f602060002091020190600090565b908154611f8c81611e94565b92611f9a6040519485611866565b818452600090815260208082208186015b848410611fb9575050505050565b6001838192611fc785611d3c565b815201920193019290611fab565b90604051611fe28161184a565b6101c06120d4600e8395611ff581611d3c565b855261200360018201611d3c565b602086015261201460028201611d3c565b604086015261202560038201611d3c565b6060860152600481015460808601526005810154600160a060020a031660a0860152600681015460c086015261205d60078201611f80565b60e086015261206e60088201611f80565b61010086015261208060098201611f80565b610120860152612092600a8201611f80565b6101408601526120a4600b8201611f80565b6101608601526120b6600c8201611f80565b6101808601526120c8600d8201611f80565b6101a086015201611f80565b910152565b156120e057565b60405160e560020a62461bcd02815260206004820152602e60248201527f6e6f7420746865206c6573736f6e20706c616e6e65722077686f2063726561746044820152609160020a6d32b2103a3434b9903632b9b9b7b7026064820152608490fd5b8054604060020a8110156102505761215f91600182018155611eab565b91909161131757611d7a91611c3556fe8be0079c531659141344cd1fd0a4f28419497f9722a3daafe3b4186f6b6457e0a2646970667358221220e14feadb075fd8964ad31ab72d9711274708f5447cc4d35e77ebe76c21e36a5164736f6c63430008120033",
  "immutableReferences": {},
  "source": "// SPDX-License-Identifier: CC-BY-4.0\r\npragma solidity >=0.4.22 <0.9.0;\r\n\r\nimport \"./Lesson.sol\";\r\n\r\ncontract Course is Lesson {\r\n\r\n    struct CourseMetadata {\r\n        string  name;\r\n        string  description;\r\n        uint    credits;\r\n        uint256 created;\r\n        uint[] lessons;\r\n        uint256 cost;\r\n        address teacher;\r\n    }\r\n\r\n    CourseMetadata[] private courses;\r\n\r\n    function createCourse(string memory name, string memory description, uint credits, uint256 cost)\r\n        external\r\n        isTeacher\r\n        returns (uint)\r\n    {\r\n        uint[] memory empty;\r\n        courses.push(CourseMetadata({\r\n            name: name,\r\n            description: description,\r\n            credits: credits,\r\n            created: block.timestamp,\r\n            lessons: empty,\r\n            cost: cost,\r\n            teacher: msg.sender\r\n        }));\r\n        return courses.length;\r\n    }\r\n\r\n    function getCourse(uint index)\r\n        public\r\n        view\r\n        returns (CourseMetadata memory)\r\n    {\r\n        return courses[index];\r\n    }\r\n\r\n    function getCourses()\r\n        public\r\n        view\r\n        returns (CourseMetadata[] memory)\r\n    {\r\n        return courses;\r\n    }\r\n\r\n    function addLesson(uint course,uint lesson)\r\n        public\r\n        isTeacher\r\n    {\r\n        require(course < courses.length,\"course is out of range\");\r\n        courses[course].lessons.push(lesson);\r\n    }\r\n}",
  "sourcePath": "/Volumes/HOME/pingleware-contracts/contracts/education/Course.sol",
  "compiler": {
    "name": "solc",
    "version": "0.8.18+commit.87f61d96.Emscripten.clang"
  },
  "schemaVersion": "3.4.12",
  "updatedAt": "2024-05-23T18:56:25.009Z",
  "devdoc": {
    "kind": "dev",
    "methods": {
      "renounceOwnership()": {
        "details": "Leaves the contract without owner. It will not be possible to call `onlyOwner` functions anymore. Can only be called by the current owner. NOTE: Renouncing ownership will leave the contract without an owner, thereby removing any functionality that is only available to the owner."
      },
      "transferOwnership(address)": {
        "details": "Transfers ownership of the contract to a new account (`newOwner`). Can only be called by the current owner."
      }
    },
    "version": 1
  },
  "userdoc": {
    "kind": "user",
    "methods": {},
    "version": 1
  }
}