{
  "contractName": "CPAMM",
  "abi": [
    {
      "inputs": [
        {
          "internalType": "address",
          "name": "_restrictedToken",
          "type": "address"
        },
        {
          "internalType": "address",
          "name": "_unrestrictedToken",
          "type": "address"
        }
      ],
      "stateMutability": "nonpayable",
      "type": "constructor"
    },
    {
      "inputs": [
        {
          "internalType": "address",
          "name": "",
          "type": "address"
        }
      ],
      "name": "balanceOf",
      "outputs": [
        {
          "internalType": "uint256",
          "name": "",
          "type": "uint256"
        }
      ],
      "stateMutability": "view",
      "type": "function",
      "constant": true
    },
    {
      "inputs": [
        {
          "internalType": "address",
          "name": "",
          "type": "address"
        }
      ],
      "name": "liquidityProviders",
      "outputs": [
        {
          "internalType": "bool",
          "name": "",
          "type": "bool"
        }
      ],
      "stateMutability": "view",
      "type": "function",
      "constant": true
    },
    {
      "inputs": [],
      "name": "owner",
      "outputs": [
        {
          "internalType": "address",
          "name": "",
          "type": "address"
        }
      ],
      "stateMutability": "view",
      "type": "function",
      "constant": true
    },
    {
      "inputs": [],
      "name": "reserve0",
      "outputs": [
        {
          "internalType": "uint256",
          "name": "",
          "type": "uint256"
        }
      ],
      "stateMutability": "view",
      "type": "function",
      "constant": true
    },
    {
      "inputs": [],
      "name": "reserve1",
      "outputs": [
        {
          "internalType": "uint256",
          "name": "",
          "type": "uint256"
        }
      ],
      "stateMutability": "view",
      "type": "function",
      "constant": true
    },
    {
      "inputs": [],
      "name": "restrictedToken",
      "outputs": [
        {
          "internalType": "contract RegD506CEquity",
          "name": "",
          "type": "address"
        }
      ],
      "stateMutability": "view",
      "type": "function",
      "constant": true
    },
    {
      "inputs": [],
      "name": "totalSupply",
      "outputs": [
        {
          "internalType": "uint256",
          "name": "",
          "type": "uint256"
        }
      ],
      "stateMutability": "view",
      "type": "function",
      "constant": true
    },
    {
      "inputs": [],
      "name": "unrestrictedToken",
      "outputs": [
        {
          "internalType": "contract RegD506CEquity",
          "name": "",
          "type": "address"
        }
      ],
      "stateMutability": "view",
      "type": "function",
      "constant": true
    },
    {
      "inputs": [
        {
          "internalType": "address",
          "name": "_liquidityProvider",
          "type": "address"
        }
      ],
      "name": "addLiquidityProvider",
      "outputs": [],
      "stateMutability": "nonpayable",
      "type": "function"
    },
    {
      "inputs": [
        {
          "internalType": "address",
          "name": "_token",
          "type": "address"
        },
        {
          "internalType": "uint256",
          "name": "_amount",
          "type": "uint256"
        }
      ],
      "name": "buy",
      "outputs": [],
      "stateMutability": "nonpayable",
      "type": "function"
    },
    {
      "inputs": [
        {
          "internalType": "address",
          "name": "_token",
          "type": "address"
        },
        {
          "internalType": "uint256",
          "name": "_amount",
          "type": "uint256"
        }
      ],
      "name": "sell",
      "outputs": [],
      "stateMutability": "nonpayable",
      "type": "function"
    },
    {
      "inputs": [
        {
          "internalType": "address",
          "name": "_tokenIn",
          "type": "address"
        },
        {
          "internalType": "uint256",
          "name": "_amountIn",
          "type": "uint256"
        }
      ],
      "name": "swap",
      "outputs": [
        {
          "internalType": "uint256",
          "name": "amountOut",
          "type": "uint256"
        }
      ],
      "stateMutability": "pure",
      "type": "function",
      "constant": true
    },
    {
      "inputs": [],
      "name": "addLiquidity",
      "outputs": [],
      "stateMutability": "nonpayable",
      "type": "function"
    },
    {
      "inputs": [],
      "name": "removeLiquidity",
      "outputs": [],
      "stateMutability": "nonpayable",
      "type": "function"
    }
  ],
  "bytecode": "0x60c060405234801561001057600080fd5b506040516104d13803806104d183398101604081905261002f91610074565b600160a060020a039182166080521660a05260058054600160a060020a031916331790556100a7565b8051600160a060020a038116811461006f57600080fd5b919050565b6000806040838503121561008757600080fd5b61009083610058565b915061009e60208401610058565b90509250929050565b60805160a0516104056100cc60003960006101830152600061011101526104056000f3fe608060405234801561001057600080fd5b50600436106100bd5760e060020a600035046318160ddd81146100c2578063443cb4bc146100de5780635a76f25e146100e757806367b9a286146100f05780636c197ff5146100fa5780636dffb99b1461010c57806370a082311461014b5780638da5cb5b1461016b57806395814fe81461017e578063c1809db1146101a5578063cce7ec13146100fa578063d004f0f7146101b8578063dbd94267146101ce578063e8078d94146100f0575b600080fd5b6100cb60025481565b6040519081526020015b60405180910390f35b6100cb60005481565b6100cb60015481565b6100f8610201565b005b6100f8610108366004610383565b5050565b6101337f000000000000000000000000000000000000000000000000000000000000000081565b604051600160a060020a0390911681526020016100d5565b6100cb6101593660046103ad565b60036020526000908152604090205481565b60055461013390600160a060020a031681565b6101337f000000000000000000000000000000000000000000000000000000000000000081565b6100f86101b33660046103ad565b61026d565b6100cb6101c6366004610383565b600092915050565b6101f16101dc3660046103ad565b60046020526000908152604090205460ff1681565b60405190151581526020016100d5565b3360009081526004602052604090205460ff16151560011461026b5760405160e560020a62461bcd0281526020600482015260186024820152604160020a773737ba1030903634b8bab4b234ba3c90383937bb34b232b90260448201526064015b60405180910390fd5b565b600554600160a060020a031633146102c65760405160e560020a62461bcd0281526020600482015260166024820152605160020a752737ba103a34329031b7b73a3930b1ba1037bbb732b9026044820152606401610262565b600160a060020a03811660009081526004602052604090205460ff16156103435760405160e560020a62461bcd02815260206004820152602560248201527f616c72656164792072656769737465726564206c69717569646974792070726f604482015260d960020a643b34b232b9026064820152608401610262565b600160a060020a03166000908152600460205260409020805460ff19166001179055565b8035600160a060020a038116811461037e57600080fd5b919050565b6000806040838503121561039657600080fd5b61039f83610367565b946020939093013593505050565b6000602082840312156103bf57600080fd5b6103c882610367565b939250505056fea2646970667358221220e3e5562f579bc7eba14d1280902b5fbe3894c7772245f31ce26cbe5303058a9764736f6c63430008120033",
  "immutableReferences": {
    "18981": [
      {
        "length": 32,
        "start": 273
      }
    ],
    "18984": [
      {
        "length": 32,
        "start": 387
      }
    ]
  },
  "source": "// SPDX-License-Identifier: CC-BY-4.0\npragma solidity >=0.4.22 <0.9.0;\n\n// See https://www.youtube.com/watch?v=JSZbvmyi_LE\n\nimport \"../elmx/RegD506CEquity.sol\";\n\ncontract CPAMM {\n    RegD506CEquity public immutable restrictedToken;\n    RegD506CEquity public immutable unrestrictedToken;\n\n    uint public reserve0;\n    uint public reserve1;\n\n    uint public totalSupply;\n\n    mapping(address => uint) public balanceOf;\n    mapping(address => bool) public liquidityProviders;\n\n    address public owner;\n\n    constructor(address _restrictedToken, address _unrestrictedToken) {\n        restrictedToken = RegD506CEquity(_restrictedToken);\n        unrestrictedToken = RegD506CEquity(_unrestrictedToken);\n        owner = msg.sender;\n    }\n\n    modifier isLiquidityProvider() {\n        require(liquidityProviders[msg.sender] == true,\"not a liquidity provider\");\n        _;\n    }\n\n    modifier isBalanceSufficient(address token, uint amount) {\n        //require(token[msg.sender].balanceOf() > amount, \"insufficient token balance of liquidity provider\");\n        _;\n    }\n\n    modifier isOwner() {\n        require(owner == msg.sender, \"Not the contract owner\");\n        _;\n    }\n\n    function _mint(address _to, uint _amount) private {\n        balanceOf[_to] += _amount;\n        totalSupply += _amount;\n    }\n\n    function _burn(address _from, uint _amount) private {\n        require(totalSupply >= _amount,\"attempt to burn more than minnted\");\n        balanceOf[_from] -= _amount;\n        totalSupply -= _amount;\n    }\n\n    function addLiquidityProvider(address _liquidityProvider) public isOwner {\n        require(liquidityProviders[_liquidityProvider] == false,\"already registered liquidity provider\");\n        liquidityProviders[_liquidityProvider] = true;\n    }\n\n    function buy(address _token, uint _amount) external {\n        // check if sender is whitelisted on the token, so they can buy \n        // calculate token out (include fees), fee 0.3%\n        // transfer token out to sender\n        // update reserves\n    }\n\n    function sell(address _token, uint _amount) external {\n\n    }\n\n    // use to exchange a restricted token for an unrestricted, under Rule 144\n    //\n    function swap(address _tokenIn, uint _amountIn) external pure returns (uint amountOut) {\n        //require(_tokenIn == address(restrictedToken) || _tokenIn == address(token2),\"invalid token\");\n        _tokenIn;\n        _amountIn;\n\n        // Pull in token in\n        // TODO: bool isRestrictedToken = _tokenIn == address(restrictedToken);\n        // TODO: (RegD506CEquity tokenId, RegD506CEquity tokenOut, uint reserveIn, uint reserveOut) = \n        // TODO: isRestrictedToken ? \n        // TODO: (restrictedToken,unrestrictedToken,reserve0,reserve1):\n        // TODO: (unrestrictedToken,restrictedToken,reserve1,reserve0);\n\n        // TODO: tokenId.transferFrom(msg.sender, address(this), _amountIn);\n\n        // Calculate token out (include fees), fee 0.3%\n        // TODO: uint amountInWithFee = (_amountIn * 997) / 1000;\n        // TODO: amountOut = ();\n        // Transfer token out to msg.sender\n        // TODO: tokenOut.transfer(msg.sender, amountOut);\n        // Update reserves\n        return 0;\n    }\n \n    function addLiquidity() isLiquidityProvider external {\n        // verify sender is a whitelisted liquidity provider\n        // pull in restrictedToken and token 1\n        // mint shares \n        // uodate reserves\n    }\n\n    function removeLiquidity() isLiquidityProvider external {\n\n    }\n}",
  "sourcePath": "/Volumes/My Book/projects/pingleware-contracts/contracts/finance/equity/CPAMM.sol",
  "compiler": {
    "name": "solc",
    "version": "0.8.18+commit.87f61d96.Emscripten.clang"
  },
  "schemaVersion": "3.4.12",
  "updatedAt": "2023-10-24T12:19:32.009Z",
  "networkType": "ethereum",
  "devdoc": {
    "kind": "dev",
    "methods": {},
    "version": 1
  },
  "userdoc": {
    "kind": "user",
    "methods": {},
    "version": 1
  }
}