{
  "contractName": "CreditReportAgency",
  "abi": [
    {
      "inputs": [],
      "stateMutability": "nonpayable",
      "type": "constructor"
    },
    {
      "anonymous": false,
      "inputs": [
        {
          "indexed": false,
          "internalType": "address",
          "name": "addr",
          "type": "address"
        },
        {
          "indexed": false,
          "internalType": "string",
          "name": "message",
          "type": "string"
        },
        {
          "indexed": false,
          "internalType": "bytes",
          "name": "data",
          "type": "bytes"
        }
      ],
      "name": "ConsumerNotified",
      "type": "event"
    },
    {
      "anonymous": false,
      "inputs": [
        {
          "indexed": false,
          "internalType": "address",
          "name": "sender",
          "type": "address"
        },
        {
          "indexed": false,
          "internalType": "address",
          "name": "recipient",
          "type": "address"
        }
      ],
      "name": "Destroyed",
      "type": "event"
    },
    {
      "anonymous": false,
      "inputs": [
        {
          "indexed": false,
          "internalType": "address",
          "name": "sender",
          "type": "address"
        },
        {
          "indexed": false,
          "internalType": "uint256",
          "name": "amount",
          "type": "uint256"
        }
      ],
      "name": "FallbackEvent",
      "type": "event"
    },
    {
      "anonymous": false,
      "inputs": [
        {
          "indexed": false,
          "internalType": "address",
          "name": "addr",
          "type": "address"
        },
        {
          "indexed": false,
          "internalType": "string",
          "name": "message",
          "type": "string"
        }
      ],
      "name": "MessageConsumer",
      "type": "event"
    },
    {
      "anonymous": false,
      "inputs": [
        {
          "indexed": true,
          "internalType": "address",
          "name": "previousOwner",
          "type": "address"
        },
        {
          "indexed": true,
          "internalType": "address",
          "name": "newOwner",
          "type": "address"
        }
      ],
      "name": "OwnershipTransferred",
      "type": "event"
    },
    {
      "anonymous": false,
      "inputs": [
        {
          "indexed": false,
          "internalType": "address",
          "name": "sender",
          "type": "address"
        },
        {
          "indexed": false,
          "internalType": "uint256",
          "name": "amount",
          "type": "uint256"
        }
      ],
      "name": "ReceiveEvent",
      "type": "event"
    },
    {
      "anonymous": false,
      "inputs": [
        {
          "indexed": false,
          "internalType": "address",
          "name": "addr",
          "type": "address"
        },
        {
          "indexed": false,
          "internalType": "uint256",
          "name": "value",
          "type": "uint256"
        }
      ],
      "name": "Received",
      "type": "event"
    },
    {
      "anonymous": false,
      "inputs": [
        {
          "indexed": false,
          "internalType": "address",
          "name": "sender",
          "type": "address"
        },
        {
          "indexed": false,
          "internalType": "bytes",
          "name": "reason",
          "type": "bytes"
        }
      ],
      "name": "Started",
      "type": "event"
    },
    {
      "anonymous": false,
      "inputs": [
        {
          "indexed": false,
          "internalType": "address",
          "name": "sender",
          "type": "address"
        },
        {
          "indexed": false,
          "internalType": "bytes",
          "name": "reason",
          "type": "bytes"
        }
      ],
      "name": "Stopped",
      "type": "event"
    },
    {
      "anonymous": false,
      "inputs": [
        {
          "indexed": false,
          "internalType": "address",
          "name": "addr",
          "type": "address"
        },
        {
          "indexed": false,
          "internalType": "string",
          "name": "message",
          "type": "string"
        }
      ],
      "name": "SubscriberAdded",
      "type": "event"
    },
    {
      "anonymous": false,
      "inputs": [
        {
          "indexed": false,
          "internalType": "address",
          "name": "addr",
          "type": "address"
        },
        {
          "indexed": false,
          "internalType": "string",
          "name": "message",
          "type": "string"
        }
      ],
      "name": "SubscriberNotified",
      "type": "event"
    },
    {
      "anonymous": false,
      "inputs": [
        {
          "indexed": false,
          "internalType": "address",
          "name": "sender",
          "type": "address"
        },
        {
          "indexed": false,
          "internalType": "string",
          "name": "reason",
          "type": "string"
        }
      ],
      "name": "Termination",
      "type": "event"
    },
    {
      "stateMutability": "payable",
      "type": "fallback"
    },
    {
      "inputs": [],
      "name": "NINETY_DAYS",
      "outputs": [
        {
          "internalType": "uint256",
          "name": "",
          "type": "uint256"
        }
      ],
      "stateMutability": "view",
      "type": "function"
    },
    {
      "inputs": [],
      "name": "THIRTY_DAYS",
      "outputs": [
        {
          "internalType": "uint256",
          "name": "",
          "type": "uint256"
        }
      ],
      "stateMutability": "view",
      "type": "function"
    },
    {
      "inputs": [],
      "name": "VERSION",
      "outputs": [
        {
          "internalType": "string",
          "name": "",
          "type": "string"
        }
      ],
      "stateMutability": "view",
      "type": "function"
    },
    {
      "inputs": [],
      "name": "WAIT",
      "outputs": [
        {
          "internalType": "uint256",
          "name": "",
          "type": "uint256"
        }
      ],
      "stateMutability": "view",
      "type": "function"
    },
    {
      "inputs": [],
      "name": "YEAR",
      "outputs": [
        {
          "internalType": "uint256",
          "name": "",
          "type": "uint256"
        }
      ],
      "stateMutability": "view",
      "type": "function"
    },
    {
      "inputs": [
        {
          "internalType": "address",
          "name": "",
          "type": "address"
        }
      ],
      "name": "balances",
      "outputs": [
        {
          "internalType": "uint256",
          "name": "",
          "type": "uint256"
        }
      ],
      "stateMutability": "view",
      "type": "function"
    },
    {
      "inputs": [],
      "name": "destroy",
      "outputs": [],
      "stateMutability": "nonpayable",
      "type": "function"
    },
    {
      "inputs": [
        {
          "internalType": "address",
          "name": "_recipient",
          "type": "address"
        }
      ],
      "name": "destroyAndSend",
      "outputs": [],
      "stateMutability": "nonpayable",
      "type": "function"
    },
    {
      "inputs": [],
      "name": "getOwner",
      "outputs": [
        {
          "internalType": "address",
          "name": "",
          "type": "address"
        }
      ],
      "stateMutability": "payable",
      "type": "function"
    },
    {
      "inputs": [],
      "name": "renounceOwnership",
      "outputs": [],
      "stateMutability": "payable",
      "type": "function"
    },
    {
      "inputs": [
        {
          "internalType": "address",
          "name": "newOwner",
          "type": "address"
        }
      ],
      "name": "transferOwnership",
      "outputs": [],
      "stateMutability": "payable",
      "type": "function"
    },
    {
      "stateMutability": "payable",
      "type": "receive"
    },
    {
      "inputs": [],
      "name": "getUserRole",
      "outputs": [
        {
          "internalType": "string",
          "name": "",
          "type": "string"
        }
      ],
      "stateMutability": "payable",
      "type": "function"
    },
    {
      "inputs": [
        {
          "internalType": "uint256",
          "name": "LastTimeStamp",
          "type": "uint256"
        },
        {
          "internalType": "uint256",
          "name": "currentTime",
          "type": "uint256"
        }
      ],
      "name": "checkExpiry",
      "outputs": [
        {
          "internalType": "bool",
          "name": "",
          "type": "bool"
        }
      ],
      "stateMutability": "pure",
      "type": "function"
    },
    {
      "inputs": [
        {
          "internalType": "uint256",
          "name": "_type",
          "type": "uint256"
        }
      ],
      "name": "addSubscriber",
      "outputs": [],
      "stateMutability": "nonpayable",
      "type": "function"
    },
    {
      "inputs": [
        {
          "internalType": "address",
          "name": "_consumer",
          "type": "address"
        },
        {
          "internalType": "address",
          "name": "subscriber",
          "type": "address"
        },
        {
          "internalType": "uint256",
          "name": "reqtime",
          "type": "uint256"
        }
      ],
      "name": "getFreeCreditReport",
      "outputs": [
        {
          "internalType": "bytes32",
          "name": "",
          "type": "bytes32"
        }
      ],
      "stateMutability": "payable",
      "type": "function"
    },
    {
      "inputs": [
        {
          "internalType": "address",
          "name": "consumer",
          "type": "address"
        }
      ],
      "name": "getReportsByConsumer",
      "outputs": [
        {
          "internalType": "bytes32",
          "name": "",
          "type": "bytes32"
        }
      ],
      "stateMutability": "payable",
      "type": "function"
    },
    {
      "inputs": [
        {
          "internalType": "address",
          "name": "consumer",
          "type": "address"
        },
        {
          "internalType": "address",
          "name": "subscriber",
          "type": "address"
        },
        {
          "internalType": "uint256",
          "name": "index",
          "type": "uint256"
        },
        {
          "internalType": "string",
          "name": "disputeDate",
          "type": "string"
        },
        {
          "internalType": "string",
          "name": "reason",
          "type": "string"
        }
      ],
      "name": "openDispute",
      "outputs": [],
      "stateMutability": "payable",
      "type": "function"
    },
    {
      "inputs": [
        {
          "internalType": "address",
          "name": "consumer",
          "type": "address"
        },
        {
          "internalType": "bytes",
          "name": "item",
          "type": "bytes"
        }
      ],
      "name": "addConsumerItem",
      "outputs": [],
      "stateMutability": "nonpayable",
      "type": "function"
    },
    {
      "inputs": [
        {
          "internalType": "address",
          "name": "_recipient",
          "type": "address"
        },
        {
          "internalType": "bytes32",
          "name": "_message",
          "type": "bytes32"
        }
      ],
      "name": "sendMessage",
      "outputs": [],
      "stateMutability": "nonpayable",
      "type": "function"
    },
    {
      "inputs": [],
      "name": "readMessage",
      "outputs": [
        {
          "internalType": "bytes32[]",
          "name": "",
          "type": "bytes32[]"
        }
      ],
      "stateMutability": "view",
      "type": "function"
    },
    {
      "inputs": [
        {
          "internalType": "address",
          "name": "consumer",
          "type": "address"
        },
        {
          "internalType": "uint256",
          "name": "index",
          "type": "uint256"
        }
      ],
      "name": "purgeDispute",
      "outputs": [],
      "stateMutability": "payable",
      "type": "function"
    },
    {
      "inputs": [
        {
          "internalType": "address",
          "name": "consumer",
          "type": "address"
        },
        {
          "internalType": "uint256",
          "name": "reqtime",
          "type": "uint256"
        }
      ],
      "name": "getConsumerReport",
      "outputs": [
        {
          "internalType": "bytes32",
          "name": "",
          "type": "bytes32"
        }
      ],
      "stateMutability": "payable",
      "type": "function"
    },
    {
      "inputs": [],
      "name": "getCreditReport",
      "outputs": [
        {
          "internalType": "bytes32",
          "name": "",
          "type": "bytes32"
        }
      ],
      "stateMutability": "view",
      "type": "function"
    },
    {
      "inputs": [],
      "name": "getInquiries",
      "outputs": [
        {
          "internalType": "string",
          "name": "",
          "type": "string"
        }
      ],
      "stateMutability": "view",
      "type": "function"
    },
    {
      "inputs": [
        {
          "internalType": "address",
          "name": "consumer",
          "type": "address"
        },
        {
          "internalType": "uint256",
          "name": "index",
          "type": "uint256"
        },
        {
          "internalType": "string",
          "name": "status",
          "type": "string"
        },
        {
          "internalType": "bool",
          "name": "purge",
          "type": "bool"
        }
      ],
      "name": "finalizeDispute",
      "outputs": [],
      "stateMutability": "payable",
      "type": "function"
    },
    {
      "inputs": [],
      "name": "getDisputes",
      "outputs": [
        {
          "internalType": "bytes32",
          "name": "",
          "type": "bytes32"
        }
      ],
      "stateMutability": "view",
      "type": "function"
    },
    {
      "inputs": [
        {
          "internalType": "address",
          "name": "consumer",
          "type": "address"
        },
        {
          "internalType": "bool",
          "name": "status",
          "type": "bool"
        }
      ],
      "name": "consumerOptsOut",
      "outputs": [],
      "stateMutability": "payable",
      "type": "function"
    },
    {
      "inputs": [
        {
          "internalType": "address",
          "name": "consumer",
          "type": "address"
        },
        {
          "internalType": "string",
          "name": "_message",
          "type": "string"
        }
      ],
      "name": "sendConsumerMessage",
      "outputs": [],
      "stateMutability": "payable",
      "type": "function"
    },
    {
      "inputs": [],
      "name": "getConsumerList",
      "outputs": [
        {
          "internalType": "address[]",
          "name": "",
          "type": "address[]"
        }
      ],
      "stateMutability": "payable",
      "type": "function"
    }
  ],
  "bytecode": "0x6080806040523461006c5760008054600160a060020a03191633908117825542600155817f8be0079c531659141344cd1fd0a4f28419497f9722a3daafe3b4186f6b6457e08180a360ff1960035416600355806008558060095580600a55600455612f8590816100728239f35b600080fdfe6080604090808252600490813610156100c8575b50361561009957333203610055577f26875833861a2b006512a11f1b86edf95df96131040f3caeed72989ee98580838251806100503433836120c2565b0390a1005b6020606492519160e560020a62461bcd02835282015260196024820152603860020a787068697368696e672061747461636b2064657465637465643f026044820152fd5b7fcc85d09d309785db93d6df19917f2e6cc07fe27cd01c08c8279145deb5cf45268251806100503433836120c2565b60009060e060020a8235049063031d5d018214611d795750806303adaee014611bee57806313c6e3a614611a9357806327e235e314611a5b57806338cf7a27146116295780633d5913ae14611500578063532c02a41461132f5780636138d597146112f95780636df2ddd8146112bd5780636f7bac39146110c7578063709ffabb14610e6d578063715018a614610e2857806375cb1c4314610aa15780637ec5783214610a4a57806383197ef0146109fc57806383914540146109dd578063893d20e8146109b4578063a21df9f014610996578063a264c26c14610871578063b1ca72a6146105fc578063b81b179f1461056f578063b8fb3a5114610553578063bf04a10d1461051c578063d7fdd770146104ec578063d91ed51d14610397578063e372c90014610379578063f2fde38b146102bc578063f5074f41146102675763ffa1ad7403610013578234610263578160031936011261026357805161025f9161023382611ecf565b600a825260b060020a69312e362e342d6265746102602083015251918291602083526020830190611fa0565b0390f35b5080fd5b508234610263576020366003190112610263576102b6600080516020612ed083398151915291610295611e14565b906102ab600160a060020a038654163314611fc5565b519182913383612014565b0390a180f35b5091906020366003190112610375576102d3611e14565b835491600160a060020a03808416926102ed3385146120dd565b1693841561031b5750508290600080516020612f108339815191528580a3600160a060020a03191617815580f35b5160e560020a62461bcd028152602091810191909152602660248201527f4f776e61626c653a206e6577206f776e657220697320746865207a65726f2061604482015260d060020a65646472657373026064820152608490fd5b8280fd5b508234610263578160031936011261026357602090516276a7008152f35b509034610263578160031936011261026357825160e460020a63022a871d028152602091829082908173__Consumer______________________________5af49081156104e257906103f09184916104b5575b50612cbe565b82516103fb81611eb4565b8281529282935b338452600080516020612eb08339815191529081845282852080548710156104a057605461049a939261043889610494946123b2565b50600160a060020a0390541693338952875260016104588a888b206123b2565b500154908651948161047387935180928c8087019101611f7d565b820190606060020a0289820152603492838201520390810184520182611eea565b946123a3565b93610402565b508361025f8451928284938452830190611fa0565b6104d59150833d85116104db575b6104cd8183611eea565b810190612176565b386103ea565b503d6104c3565b84513d85823e3d90fd5b50829034610519578160031936011261051957506105106020926024359035612316565b90519015158152f35b80fd5b5082816003193601126102635761025f90610538331515612129565b61054061218e565b9051918291602083526020830190611fa0565b50823461026357816003193601126102635760209051601e8152f35b50919034610375578260031936011261037557815160e460020a63022a871d0281529060209082908173__Consumer______________________________5af49081156105f057906105c991602094916105d95750612cbe565b6105d233612427565b9051908152f35b6104d59150843d81116104db576104cd8183611eea565b505051903d90823e3d90fd5b5034610519578060031936011261051957825160e460020a63022a871d028152602093908481858173__Consumer______________________________5af49081156105f0579061065391849161085a5750612cbe565b819282935b338452600080516020612ef0833981519152808752838520805487101561085157866106839161275a565b5090838860a060020a60019003809454169333895283825280808b8a8c20906106ab9161275a565b50600101541695338b528584528b8a8c20906106c69161275a565b5095338c528085528b8d8c81818420906106df9161275a565b509233815284895282828220906106f59161275a565b5094338252895220906107079161275a565b50958c519361071585611e99565b845283019889528b51806002819a019061072e91612d0d565b036107399089611eea565b8b83019788528b518060038193019061075191612d0d565b0361075c9082611eea565b60608301528a5180968192019061077291612d0d565b0361077d9086611eea565b6080810194855289518060058196019061079691612d0d565b036107a19085611eea565b8360a082015251169451169251915187519485948c860197885289860160f860020a605b029052606060020a80920260418701520260558501528251606993818d8688019201916107f192611f7d565b8401815191828d86840192019161080792611f7d565b01815191828c85840192019161081c92611f7d565b0190810160f860020a605d02905203604a81018252606a0161083e9082611eea565b5190209361084b906123a3565b93610658565b87838651908152f35b6104d59150863d88116104db576104cd8183611eea565b509190606036600319011261037557610888611e14565b92610891611e2f565b604435926108aa600160a060020a0384541633146120dd565b6108b5848388612594565b1561093a5773__CreditInquiry_________________________90813b1561093657855160e160020a632a8fc715028152948493869392849283926108fd928c908501612381565b03915af490811561092b5750926105d29160209461091c575b50612427565b61092590611e6c565b38610916565b8351903d90823e3d90fd5b8380fd5b845160e560020a62461bcd028152602091810191909152602760248201527f6e6f7420656c696769626c6520666f722061206672656520636f6e73756d6572604482015260ca60020a66081c995c1bdc9d026064820152608490fd5b5082346102635781600319360112610263576020905162278d008152f35b508281600319360112610263576020906109cc612073565b9051600160a060020a039091168152f35b508234610263578160031936011261026357602090516301dfe2008152f35b5082346102635781600319360112610263576102b6600080516020612ed083398151915291610a36600160a060020a038554163314611fc5565b610a3e612073565b90519182913383612014565b50828060031936011261026357610a5f611e14565b9060243591821515809303610936578354600160a060020a039190610a8790831633146120dd565b168352600760205282209060ff8019835416911617905580f35b509190608036600319011261037557610ab8611e14565b906024356044356001604060020a038111610e2457610ada9036908401611f5f565b92606435928315158403610e2057610afb66038d7ea4c68000333111612332565b855160e060020a635ec9df5b028152602095908681848173__Subscriber____________________________5af48015610e1657610b40918a91610df9575b50612ba0565b6601c6bf526340009488808080893082f115610def5730895260058752878920805490878201809211610dd95755600160a060020a03848116969092908a808080848c82f115610dcf57878b5260058952898b208054918201809211610db957918a93918c9796959355888752848a8a89600080516020612ef083398151915297888452878d82842090610bd39161275a565b505416978383528985528d82842090610beb9161275a565b5060010154168383528985528d828181862090610c079161275a565b50948681528c88528282822090610c1d9161275a565b509681528c88522090610c2f9161275a565b5094825199610c3d8b611e99565b8a52890152805180600281940190610c5491612d0d565b03610c5f9083611eea565b8701528d5180600381930190610c7491612d0d565b03610c7f9082611eea565b60608601528c51809281920190610c9591612d0d565b03610ca09082611eea565b608084015260a083015215610d9957508584528652610cca610cc48589862061275a565b90612c37565b865160e160020a631b388e650281529384928392610ceb92919084016120c2565b038173__CreditDispute_________________________5af4908115610d8f5790600080516020612f30833981519152946102b6928792610d68575b5080606060a09251968796875286015260116060860152607a60020a70191a5cdc1d5d1948199a5b985b1a5e995902608086015284015260a0830190611fa0565b60a0919250610d88903d808a833e610d808183611eea565b8101906126d3565b9190610d27565b84513d87823e3d90fd5b610db4918786528852610dae868a872061275a565b906127d4565b610cca565b60e060020a634e487b71028c526011865260248cfd5b89513d8c823e3d90fd5b60e060020a634e487b71028b526011855260248bfd5b87513d8a823e3d90fd5b610e109150883d8a116104db576104cd8183611eea565b38610b3a565b88513d8b823e3d90fd5b8680fd5b8580fd5b508060031936011261051957805481600160a060020a038216610e4c3382146120dd565b600080516020612f108339815191528280a3600160a060020a031916815580f35b509160a036600319011261037557610e83611e14565b91610e8c611e2f565b90604435906001604060020a036064358181116110c357610eb09036908401611f5f565b906084359081116110c357610ec89036908401611f5f565b90600160a060020a0394610ee0868a541633146120dd565b865160e260020a631c35b9ed02815295898780610f00898d8a84016120c2565b038173__CreditReport__________________________5af49687156110b9578a9761109d575b5080885192610f3584611e99565b169889835216936020968588840152838984015260608301528360808301528751610f5f81611eb4565b8a815260a0830152848a52600080516020612ef08339815191528752878a20805491604060020a83101561108757509861104860778a9760809b97849b97610fda7fde371f040710867afadb0d380ec315de30e2cdd4edd5062dd8c82c7418784ad79f98610dae8960129f9a9b600161105a9d01815561275a565b89519586938a850198608960020a6e2234b9b83aba329027b832b732b21d028a52602f860152606060020a809202604f860152026063840152611025815180928b8787019101611f7d565b8201611039825180938b8785019101611f7d565b01036057810184520182611eea565b519020868a5260068352838a20612731565b8151948552840152820152607260020a711b995dc8191a5cdc1d5d19481bdc195b9959026060820152a180f35b60e060020a634e487b71028c526041905260248bfd5b6110b29197503d808c833e610d808183611eea565b9538610f27565b88513d8c823e3d90fd5b8780fd5b50829081600319360112610519576110dd611e14565b906110f166038d7ea4c68000333111612332565b825160e060020a635ec9df5b028152602094908581838173__Subscriber____________________________5af49081156112215783916112a0575b501561124b576601c6bf5263400082808080843082f115611241573083526005865284832080549082820180921161122b5755600160a060020a03841683808080858582f11561122157835260058652848320805491820180921161120b575573__CreditInquiry_________________________803b1561037557845160e160020a632a8fc715028152929182918491829081906111d5906024359033908b908501612381565b03915af49081156112005750906105d292916111f15750612427565b6111fa90611e6c565b84610916565b8451903d90823e3d90fd5b60e060020a634e487b7102845260118352602484fd5b85513d85823e3d90fd5b60e060020a634e487b7102855260118452602485fd5b84513d84823e3d90fd5b835160e560020a62461bcd028152908101859052602360248201527f6163636573732064656e6965642c206f6e6c7920666f72207375627363726962604482015260e860020a62657273026064820152608490fd5b6112b79150863d88116104db576104cd8183611eea565b8661112d565b5082346102635780600319360112610263576112f690600160a060020a036112e3611e14565b1683526006602052602435908320612731565b80f35b50826020366003190112610263576105d260209261132a611318611e14565b9154600160a060020a031633146120dd565b612427565b5091908160031936011261037557611345611e14565b6024356001604060020a0381116114fc576113639036908401611f5f565b61136e331515612129565b655af3107a40009161138283333111612332565b600160a060020a0316918286526020936007855260ff868820541661147b578315611437575085808080938682f11561142a576102b690846114177fd4f628d63508889d83b99da0581078b4dd88aa9b3978a580b83c06cf1567901a965186810190611405888287516113f88187858c01611f7d565b8101038084520182611eea565b51902085895260068752828920612731565b8080519586958652850152830190611fa0565b50505051903d90823e3d90fd5b855160e560020a62461bcd02815290810185905260186024820152604060020a77696e76616c696420636f6e73756d65722061646472657373026044820152606490fd5b855160e560020a62461bcd028152908101859052604960248201527f636f6e73756d657220686173206f707465642d6f757420746f2072656365697660448201527f656420616e792065787465726e616c206d65737361676573206f7220636f6d6d606482015260b960020a683ab734b1b0ba34b7b702608482015260a490fd5b8480fd5b50918060031936011261037557611515611e14565b6024359281858593600160a060020a03936115348584541633146120dd565b865160e160020a631b388e65028152978892839261155592919084016120c2565b038173__CreditDispute_________________________5af494851561161f5791600080516020612f3083398151915295916102b69388936115f9575b506115ba91610cc4911694858952600080516020612ef083398151915260205286892061275a565b60a08451948594855260606020860152600f6060860152608a60020a6e191a5cdc1d5d194819195b195d195902608086015284015260a0830190611fa0565b610cc4919350916116166115ba933d808c833e610d808183611eea565b93915091611592565b84513d88823e3d90fd5b508234610263578060031936011261026357611643611e14565b6024916001604060020a0391908335838111610e245736602382011215610e245761167690369086818a01359101611f28565b9161168a66038d7ea4c68000333111612332565b600160a060020a03908116801515959094906116a587612b5c565b835160e060020a635ec9df5b0281526020979088818c8173__Subscriber____________________________5af4908115611a5157906116eb918b91611a345750612ba0565b6601c6bf5263400089808080843082f115611a1557308a5260058952858a20805490828201809211611a1f575589808080848c82f115611a1557878a5260058952858a208054918201809211611a0057558689527f89e51bdecbc263fe09be00aeff43205f218a6e698e087f6c8baa6be3620ddfa08852848920541561197d575b61177590612b5c565b858852600080516020612e90833981519152875283882090845185810181811085821117611968578652338152888101948786528354604060020a811015611953576117c89060019586820181556123b2565b92909261193f57518254600160a060020a031916911617815593518051909a948301949093841161192b5750506118098261180385546123e8565b8561278d565b8690601f83116001146118af575091816102b695949260c0948a9b600080516020612f308339815191529b926118a4575b5050816002029160080260020a6000190419161790555b606081519687968752860152602160608601527f6e6577206974656d2077617320616464656420746f20796f7572207265706f72608086015260fa60020a601d0260a086015284015260c0830190611fa0565b015190508b8061183a565b9190601f19821699848a52888a209a8a5b818110611916575092600080516020612f308339815191529a9b6102b6989795936002938360c09997106118fb575b50505002019055611851565b01516008601f841602840a60001904191690558c80806118ef565b838301518d559b85019b928a01928a016118c0565b60e060020a634e487b71028a526041905288fd5b60e060020a634e487b71028c528b8d52838cfd5b60e060020a634e487b71028c5260418d52838cfd5b60e060020a634e487b71028b5260418c52828bfd5b7f89e51bdecbc263fe09be00aeff43205f218a6e698e087f6c8baa6be3620ddfa1805490604060020a8210156119eb57600182018082558210156119d6578a52888a20018054600160a060020a0319168817905561176c565b60e060020a634e487b71028b5260328c52838bfd5b60e060020a634e487b71028b5260418c52838bfd5b60e060020a634e487b71028b5260118c52838bfd5b85513d8b823e3d90fd5b60e060020a634e487b71028c5260118d52848cfd5b611a4b91508a3d8c116104db576104cd8183611eea565b8c610b3a565b86513d8c823e3d90fd5b508234610263576020366003190112610263576020918190600160a060020a03611a83611e14565b1681526005845220549051908152f35b508234610263576020366003190112610263578235611ab3331515612129565b66038d7ea4c68000611ac781333111612332565b60018211611b715783808080843082f1156105f05730845260056020528284208054918201809211611b5b5755611afe9033612da2565b611b06575080f35b60808160107fae28b319183e2d4a0f4721e7fc4bb1c25a05610d1e2efb85b10dfbf7bbf4761b935191338352806020840152820152608260020a6f1cdd589cd8dc9a58995c881859191959026060820152a180f35b60e060020a634e487b7102855260118652602485fd5b825160e560020a62461bcd028152602081870152604560248201527f696e636f7272656374207375627363726962657220747970653f20303d63726560448201527f6469746f722c313d636f6c6c6563746f722c20444f4e54204d49535245505245606482015260d860020a6453454e542102608482015260a490fd5b50918260031936011261037557611c06331515612129565b8280808066038d7ea4c68000611c1e81333111612332565b3082f115611d6e57805160e160020a631db94dc30281528381848173__Consumer______________________________5af4928315611d64578493611caa575b505090815192839260208080860192818752855180945286019401925b828110611c8a57505050500390f35b8351600160a060020a031685528695509381019392810192600101611c7b565b909192503d8085843e611cbd8184611eea565b82016020918284830312610e245783516001604060020a03948582116110c357019082601f83011215610e20578151948511611d4e575082840290855194611d0785840187611eea565b85528380860192820101928311610e20578301905b828210611d2f5750505050903880611c5e565b8151600160a060020a03811681036110c3578152908301908301611d1c565b60e060020a634e487b7102875260419052602486fd5b82513d86823e3d90fd5b51913d9150823e3d90fd5b82859134610263578160031936011261026357829033835260209260068452828120918254808252858201908194845286842090845b818110611e005750505081611dc5910382611eea565b83519485948186019282875251809352850193925b828110611de957505050500390f35b835185528695509381019392810192600101611dda565b825484529288019260019283019201611daf565b60043590600160a060020a0382168203611e2a57565b600080fd5b60243590600160a060020a0382168203611e2a57565b600160a060020a03166000908152600080516020612eb08339815191526020526040902090565b6001604060020a038111611e7f57604052565b60e060020a634e487b710260009081526041600452602490fd5b60c081019081106001604060020a03821117611e7f57604052565b602081019081106001604060020a03821117611e7f57604052565b604081019081106001604060020a03821117611e7f57604052565b601f909101601f19168101906001604060020a03821190821017611e7f57604052565b6001604060020a038111611e7f57601f01601f191660200190565b929192611f3482611f0d565b91611f426040519384611eea565b829481845281830111611e2a578281602093846000960137010152565b9080601f83011215611e2a57816020611f7a93359101611f28565b90565b60005b838110611f905750506000910152565b8181015183820152602001611f80565b90602091611fb981518092818552858086019101611f7d565b601f01601f1916010190565b15611fcc57565b60405160e560020a62461bcd02815260206004820152601b60248201527f756e617574686f72697a65642c206e6f7420746865206f776e657200000000006044820152606490fd5b600160a060020a0391821681529116602082015260400190565b1561203557565b60405160e560020a62461bcd0281526020600482015260106024820152608160020a6f3930ba32903634b6b4ba1032b93937b9026044820152606490fd5b600154601e81018091116120a8576120959042116120908161202e565b61202e565b42600155600054600160a060020a031690565b60e060020a634e487b710260009081526011600452602490fd5b600160a060020a039091168152602081019190915260400190565b156120e457565b60405160e560020a62461bcd0281526020600482015260176024820152604960020a7630b1b1b2b9b9903232b734b2b2103337b91037bbb732b9026044820152606490fd5b1561213057565b60405160e560020a62461bcd0281526020600482015260186024820152604160020a7730b1b1b2b9b9903232b734b2b2103337b91039b2b73232b9026044820152606490fd5b90816020910312611e2a57518015158103611e2a5790565b600160a060020a0361219e612073565b1633146000146121cc576040516121b481611ecf565b6005815260d960020a6437bbb732b902602082015290565b6040805160e460020a630c4804ef02815233600482015260209190828160248173__Subscriber____________________________5af49081156122ee576000916122f9575b501561223f5760b160020a6939bab139b1b934b132b90290519161223583611ecf565b600a835282015290565b805160e060020a63834ff739028152336004820152828160248173__Consumer______________________________5af49081156122ee576000916122d1575b506122ac57505060405161229281611ecf565b6007815260c960020a663ab735b737bbb702602082015290565b60c160020a6731b7b739bab6b2b9029051916122c783611ecf565b6008835282015290565b6122e89150833d85116104db576104cd8183611eea565b3861227f565b82513d6000823e3d90fd5b6123109150833d85116104db576104cd8183611eea565b38612212565b62278d0081018091116120a8571061232d57600190565b600090565b1561233957565b60405160e560020a62461bcd02815260206004820152601b60248201527f696e73756666696369656e742062616c616e63652f616d6f756e7400000000006044820152606490fd5b600160a060020a03918216815291166020820152604081019190915260600190565b60001981146120a85760010190565b80548210156123ce576000526002602060002091020190600090565b60e060020a634e487b710260009081526032600452602490fd5b906001600283049216801561241d575b602083101461240357565b60e060020a634e487b710260009081526022600452602490fd5b91607f16916123f8565b906000805b600160a060020a0380851680600052600080516020612e9083398151915290602091808352604093846000208054881015612588578761246b916123b2565b50541691600052825261248185846000206123b2565b509060018092019060f860020a605b02855195858701978852860152606060020a02604185015260fa60020a600b02908160558601526000938154916124c6836123e8565b928581169081156125595750600114612516575b505050838360f860020a605d02612507946002946125109998975282015203601d19810184520182611eea565b519020916123a3565b9061242c565b9091929450600052806000206000905b83821061254557505050830160560191838160f860020a605d026124da565b805487830160560152908201908401612526565b60ff19166056808a01919091528415159094028801909301955086925083915060f860020a605d0290506124da565b50949750505050505050565b600883815592916000906125a783611e45565b54805b61262e575050506125ba81611e45565b5460001981019081116120a8576125d4918160095561269d565b9182600a558215928315612614575b5082156125fb575b50506125f657600090565b600190565b909150546276a70081018091116120a8571038806125eb565b9092506301dfe20081018091116120a857811091386125e3565b821580612661575b61264b575b80156120a85760001901806125aa565b9150612657828461269d565b855560019161263b565b50600160a060020a03808516600052600080516020612eb0833981519152602052806126918360406000206123b2565b50541690831614612636565b600160a060020a03166000908152600080516020612eb0833981519152602052604090206001916126cd916123b2565b50015490565b602081830312611e2a578051906001604060020a038211611e2a570181601f82011215611e2a57805161270581611f0d565b926127136040519485611eea565b81845260208284010111611e2a57611f7a9160208085019101611f7d565b805490604060020a821015611e7f57600182018082558210156123ce5760005260206000200155565b80548210156123ce576000526006602060002091020190600090565b818110612781575050565b60008155600101612776565b9190601f811161279c57505050565b6127c892600052602060002090602080601f850104830193106127ca575b601f60209101040190612776565b565b90915081906127ba565b90612b425781518154600160a060020a0319908116600160a060020a03928316178355602080850151600185810180549094169190941617909155604084015180516001604060020a03946002949293929181860190878111611e7f576128458161283f84546123e8565b8461278d565b8085601f97888311600114612ada57600092612acf575b505060088202880a6000190419169087021790555b600381016060880151805190888211611e7f57819061289a8261289486546123e8565b8661278d565b8690888311600114612a6757600092612a5c575b505060088202880a6000190419169087021790555b600481016080880151805190888211611e7f576128e48261180385546123e8565b85908783116001146129e85791806005949260a096946000926129dd575b5050600882028a0a6000190419169089021790555b01960151918251958611611e7f576129398661293389546123e8565b8961278d565b8093808711600114612975575050509083929160009361296a575b505082810292600802900a600019041916179055565b015191503880612954565b919593909284601f1981168960005285600020956000905b8a8383106129c357505050106129a8575b5050505002019055565b0151908316600802840a60001904191690553880808061299e565b85870151895590970196948501948893509081019061298d565b015190503880612902565b9185928992601f1983169186600052896000209260005b8b828210612a43575050916005979593918560a09a98969410612a29575b50505002019055612917565b01516008838d1602840a6000190419169055388080612a1d565b8484015186558b988f98509095019493840193016129ff565b0151905038806128ae565b869350899291601f1983169186600052896000209260005b8b828210612ab65750508411612a9c575b505050020190556128c3565b01516008838b1602840a6000190419169055388080612a90565b8484015186558b988f9850909501949384019301612a7f565b01519050388061285c565b869350899291601f1983169186600052896000209260005b8b828210612b295750508411612b0f575b50505002019055612871565b01516008838b1602840a6000190419169055388080612b03565b8484015186558b988f9850909501949384019301612af2565b60e060020a634e487b710260009081526004819052602490fd5b15612b6357565b60405160e560020a62461bcd02815260206004820152600f6024820152608860020a6e6d697373696e672061646472657373026044820152606490fd5b15612ba757565b60405160e560020a62461bcd02815260206004820152601c60248201527f6163636573732064656e69656420666f722073756273637269626572000000006044820152606490fd5b612bf981546123e8565b9081612c03575050565b81601f60009311600114612c15575055565b908083918252612c336020601f818520950104840160018501612776565b5555565b90612b425760056127c8916000808255806001830155612c5960028301612bef565b60038201612c6781546123e8565b80612c82575b505050612c7c60048201612bef565b01612bef565b82601f8211600114612c9a575050555b388080612c6d565b9091808252612cb76020601f818520950104840160018501612776565b5555612c92565b15612cc557565b60405160e560020a62461bcd02815260206004820152601a60248201527f6163636573732064656e69656420666f7220636f6e73756d65720000000000006044820152606490fd5b9060009291805491612d1e836123e8565b918282526001938481169081600014612d805750600114612d40575b50505050565b90919394506000526020928360002092846000945b838610612d6c575050505001019038808080612d3a565b805485870183015294019385908201612d55565b9294505050602093945060ff1916838301521515820201019038808080612d3a565b600090817f4317346ae582bd8e389df457fdce80980031cc45c7f93fb7267b8465e659af73928354905b818110612e5957505015612de257505050600090565b600160a060020a031660008181527f4317346ae582bd8e389df457fdce80980031cc45c7f93fb7267b8465e659af726020526040902092909255805490604060020a821015611e7f57600182018082558210156123ce57600090815260209020018054600160a060020a0319169091179055600190565b600085815260209020810154600160a060020a03858116911614612e86575b612e81906123a3565b612dcc565b60019250612e7856fe1976c9d94995177a9d059b4762326b22b4271d3517bd9ff8e9cca11477431e68c9bd89c8aa20bb12e3e84ed83a939d0b94623f7d7460b60dcb76099d9fe92b7291ca00fdf29069527d658f8dfc6d1c0bf9861780bb45ff36436f938d3595a8d6e30db33f9a0e03d58541aaa29c619b528d7e9bd6e5fee0ceed9cb32c10db64168be0079c531659141344cd1fd0a4f28419497f9722a3daafe3b4186f6b6457e02e6e917fa39bc0b6bfd39b4171baa10afab564ae167c2a5277bb8b6c225ae221a2646970667358221220830c03cd39786b73db15bfceca8f471a50bff9651338ee529a9535e74a87f2e864736f6c63430008120033",
  "immutableReferences": {},
  "source": "// SPDX-License-Identifier: CC-BY-4.0\npragma solidity >=0.4.22 <0.9.0;\n\nimport \"../../common/Version.sol\";\nimport \"../../common/Frozen.sol\";\nimport \"./Consumer.sol\";\nimport \"./Subscriber.sol\";\nimport \"./CreditInquiry.sol\";\nimport \"./CreditReport.sol\";\nimport \"./CreditDispute.sol\";\n\ncontract CreditReportAgency is Version, Frozen {\n    bytes32 constant private ZERO_BYTES = bytes32(0);\n    address constant private ZERO_ADDRESS = address(0);\n\n    uint256 constant public YEAR = 52 weeks;\n    uint256 constant public THIRTY_DAYS = 30 days;\n    uint256 constant public NINETY_DAYS = 90 days;\n\n    uint total_consumers;\n\n    mapping (address => uint256) public balances;\n    mapping (address => bytes32[]) message;\n    mapping (address => bool) optout;\n\n    event SubscriberAdded(address addr, string message);\n    event SubscriberNotified(address addr, string message);\n    event ConsumerNotified(address addr, string message, bytes data);\n\n    event Received(address addr, uint value);\n\n    event MessageConsumer(address addr,string message);\n\n    uint256 private subscriber_lastreq = 0;\n    uint256 private consumer_total = 0;\n    uint256 private consumer_lastreq = 0;\n\n\n    constructor()\n    {\n      total_consumers = 0;\n    }\n\n    modifier validSender() {\n      require(msg.sender != ZERO_ADDRESS,\"access denied for sender\");\n      _;\n    }\n\n    modifier requiresFee(uint fee) {\n      require(msg.sender.balance > fee, \"insufficient balance/amount\");\n      _;\n    }\n\n    // A consumer is entitled\n    function freeReportCheck(address consumer, address subscriber, uint256 reqtime)\n      internal\n      returns(bool)\n    {\n      bool found = false;\n      subscriber_lastreq = reqtime;\n\n      for (uint i = CreditInquiry.getTotalInquiry(consumer); i > 0; i--) {\n        if (!found && (CreditInquiry.getInquiryofSubscriber(consumer,i) == subscriber)) {\n            subscriber_lastreq = CreditInquiry.getInquiryofReqDate(consumer,i);\n            found = true;\n        }\n      }\n\n      consumer_total = CreditInquiry.getTotalInquiry(consumer) - 1;\n      consumer_lastreq = CreditInquiry.getInquiryofReqDate(consumer,consumer_total);\n\n      if (consumer_lastreq == 0 || (consumer_lastreq + YEAR) > reqtime || (subscriber_lastreq + NINETY_DAYS) < reqtime) {\n        return true;\n      }\n      return false;\n    }\n\n    function getUserRole()\n      public\n      payable\n      validSender\n      returns (string memory)\n    {\n      if (msg.sender == getOwner()) {\n        return string(\"owner\");\n      } else if (Subscriber.isSubscriber(msg.sender)) {\n        return string(\"subscriber\");\n      } else if (Consumer.isConsumer(msg.sender)) {\n        return string(\"consumer\");\n      }\n      return string(\"unknown\");\n    }\n\n    //\n    // The disputeDate is in ISO and must be converted to epoch timestamp before checking current time\n    // The currentTime is epoch timestamp provided by the caller\n    //\n    function checkExpiry(uint256 LastTimeStamp, uint256 currentTime)\n      public\n      pure\n      returns(bool)\n    {\n      if (LastTimeStamp + THIRTY_DAYS >= currentTime) {\n        return true;\n      } else {\n        return false;\n      }\n    }\n\n    //\n    // adds a new subscriber\n    //\n    function addSubscriber(uint256 _type)\n      public\n      validSender\n      requiresFee(0.001 ether)\n    {\n      require(_type <= 1,\"incorrect subscriber type? 0=creditor,1=collector, DONT MISREPRESENT!\");\n      payable(address(this)).transfer(0.001 ether);\n      balances[address(this)] += 0.001 ether;\n      if (Subscriber.addSubscriber(msg.sender, _type)) {\n        emit SubscriberAdded(msg.sender, \"subscriber added\");\n      }\n    }\n\n    function getFreeCreditReport(address _consumer, address subscriber, uint256 reqtime)\n      public\n      payable\n      onlyOwner\n      returns (bytes32)\n    {\n      require(freeReportCheck(_consumer, subscriber, reqtime), \"not eligible for a free consumer report\");\n\n      CreditInquiry.add(_consumer, subscriber, reqtime);\n      return CreditReport.getConsumerReport(_consumer);\n    }\n\n    function getReportsByConsumer(address consumer)\n      public\n      payable\n      onlyOwner\n      returns (bytes32)\n    {\n      return CreditReport.getConsumerReport(consumer);\n    }\n\n\n    //\n    // because open dispute changes the state of the contract, gas fees applies,\n    // hence the consumer must start a dispute offline, and send to the owner to create a dispute and the owner pays the gas fee\n    //\n    function openDispute(address consumer, address subscriber, uint index,\n                        string memory disputeDate,string memory reason)\n      public\n      payable\n      onlyOwner\n    {\n      CreditDispute.openDispute(consumer, subscriber,CreditReport.getConsumerReportItem(consumer,index),disputeDate,reason);\n      bytes32 dispute = keccak256(\n          abi.encodePacked(\n            \"Dispute Opened:\",\n            index,\n            subscriber,\n            consumer,\n            disputeDate,\n            reason\n          )\n        );\n\n      message[subscriber].push(dispute);\n      emit SubscriberNotified(subscriber, \"new dispute opened\");\n    }\n\n    //\n    // adds an item to the consumer report by an existing subscriber, must contain the minimum:\n    //    subscriber, open date, amount, description, balance, limit, payment status\n    //\n    function addConsumerItem(address consumer, bytes memory item)\n      public\n      requiresFee(0.001 ether)\n    {\n      require(consumer != ZERO_ADDRESS,\"missing address\");\n      require(Subscriber.onlySubscriber(), \"access denied for subscriber\");\n      // pays half the fee to the contract\n      payable(address(this)).transfer(0.0005 ether);\n      balances[address(this)] += 0.0005 ether;\n      // pays half the fee to the consumer\n      payable(consumer).transfer(0.0005 ether);\n      balances[consumer] += 0.0005 ether;\n      // add consumer, if not exist?\n      Consumer.addConsumer(consumer);\n      CreditReport.addConsumerItem(consumer, item);\n      emit ConsumerNotified(consumer, \"new item was added to your report\", item);\n    }\n\n    function sendMessage(address _recipient, bytes32 _message)\n      public\n    {\n      message[_recipient].push(_message);\n    }\n\n    function readMessage()\n      public\n      view\n      returns (bytes32[] memory)\n    {\n      return message[msg.sender];\n    }\n\n\n    function purgeDispute(address consumer, uint index)\n      public\n      payable\n      onlyOwner\n    {\n      bytes memory item = CreditDispute.getDisputeItem(consumer,index);\n      CreditDispute.purgeDispute(consumer,index);\n      emit ConsumerNotified(consumer, \"dispute deleted\", item);\n    }\n\n    //\n    // retrieves consumer report by a subscriber, half the fee is paid to the owner, and half paid to the consumer\n    //\n    function getConsumerReport(address consumer, uint reqtime)\n      public\n      payable\n      requiresFee(0.001 ether)\n      returns (bytes32)\n    {\n      require(Subscriber.onlySubscriber(), \"access denied, only for subscribers\");\n      //to.transfer(0.001 ether);\n      // pays half the fee to the contract\n      payable(address(this)).transfer(0.0005 ether);\n      balances[address(this)] += 0.0005 ether;\n      // pays half the fee to the consumer\n      payable(consumer).transfer(0.0005 ether);\n      balances[consumer] += 0.0005 ether;\n\n      CreditInquiry.add(consumer,msg.sender,reqtime);\n      return CreditReport.getConsumerReport(consumer);\n    }\n\n    // Consumer previlieges\n    //\n    // retrieves consumer report for the consumer by the owner so the consumer does not incur gas fees.\n    // to abide by law and allow free credit report to the consumer, cannot change the state on the contract,\n    // otherwise the method must pay gas fee. By not recording consumer self requests in the contract, keeps\n    // this function free.\n    //\n    //  No gas feesm because when a consumer requests their report, no record is made on the blockchain, hence\n    // no gas fees\n    function getCreditReport()\n      public\n      view\n      returns (bytes32)\n    {\n      require(Consumer.onlyConsumer(), \"access denied for consumer\");\n      return CreditReport.getConsumerReport(msg.sender);\n    }\n\n    function getInquiries()\n      public\n      view\n      returns (string memory)\n    {\n      require(Consumer.onlyConsumer(), \"access denied for consumer\");\n      return CreditInquiry.getAll(msg.sender);\n    }\n\n    function finalizeDispute(address consumer,uint index,string memory status, bool purge)\n      public\n      payable\n      requiresFee(0.001 ether)\n    {\n      require(Subscriber.onlySubscriber(), \"access denied for subscriber\");\n      // pays half the fee to the contract\n      payable(address(this)).transfer(0.0005 ether);\n      balances[address(this)] += 0.0005 ether;\n      // pays half the fee to the consumer\n      payable(consumer).transfer(0.0005 ether);\n      balances[consumer] += 0.0005 ether;\n      CreditDispute.finalizeDispute(consumer,index,status,purge);\n      bytes memory item = CreditDispute.getDisputeItem(consumer,index);\n      emit ConsumerNotified(consumer, \"dispute finalized\", item);\n    }\n\n    //\n    // The contract owner will pull a list of disputes,\n    // while iterating through each dispute,\n    // convert the disputeDate from ISO string to an epoch timestamp and get current time in epoch timestamp,\n    // check if the dispute is expired by more than 30 days from current time,\n    // if dispute is expired, delete the dispute and notifiy consumer\n    //\n    function getDisputes()\n      public\n      view\n      returns (bytes32)\n    {\n      require(Consumer.onlyConsumer(), \"access denied for consumer\");\n      return CreditDispute.getDisputes(msg.sender);\n    }\n\n    function consumerOptsOut(address consumer, bool status)\n      public\n      payable\n      onlyOwner\n    {\n      optout[consumer] = status;\n    }\n\n    /**\n     * Permits third party marketers to send messages to consumers via the connected DAPP for a fee paid to a verified consumer.\n     * Consumer has option to opt-out, if they choose to receive communication, they can now get paid for each message received.\n     *\n     * Since no Personal Identifying Information (PII) is linked to the wallet on the public chain, there is no matching demographics and\n     * just plain blind advertising which is most email campaigns.\n     */\n    function sendConsumerMessage(address consumer, string memory _message)\n      public\n      payable\n      validSender\n      requiresFee(0.0001 ether)\n    {\n      require(optout[consumer] == false,\"consumer has opted-out to received any external messages or communication\");\n      require(consumer != ZERO_ADDRESS,\"invalid consumer address\");\n      payable(consumer).transfer(0.0001 ether);\n\n      bytes32 bmessage = keccak256(abi.encodePacked(_message));\n      message[consumer].push(bmessage);      \n      emit MessageConsumer(consumer, _message);\n    }\n\n    /**\n     * A marketer can buy the consumer list of wallet addresses. No PII is attached and no demographics.\n     * Though a marketer can query the blockchain for matching transactions and develop their own demographics?\n     * The next analytic metric?\n     */\n    function getConsumerList()\n      public\n      payable\n      validSender\n      requiresFee(0.001 ether)\n      returns (address[] memory)\n    {\n      payable(address(this)).transfer(0.001 ether);\n      return Consumer.getConsumers();\n    }\n}",
  "sourcePath": "/Volumes/HOME/pingleware-contracts/contracts/finance/credit/CreditReportAgency.sol",
  "compiler": {
    "name": "solc",
    "version": "0.8.18+commit.87f61d96.Emscripten.clang"
  },
  "schemaVersion": "3.4.12",
  "updatedAt": "2024-05-23T18:56:25.455Z",
  "devdoc": {
    "kind": "dev",
    "methods": {
      "renounceOwnership()": {
        "details": "Leaves the contract without owner. It will not be possible to call `onlyOwner` functions anymore. Can only be called by the current owner. NOTE: Renouncing ownership will leave the contract without an owner, thereby removing any functionality that is only available to the owner."
      },
      "transferOwnership(address)": {
        "details": "Transfers ownership of the contract to a new account (`newOwner`). Can only be called by the current owner."
      }
    },
    "version": 1
  },
  "userdoc": {
    "kind": "user",
    "methods": {
      "getConsumerList()": {
        "notice": "A marketer can buy the consumer list of wallet addresses. No PII is attached and no demographics. Though a marketer can query the blockchain for matching transactions and develop their own demographics? The next analytic metric?"
      },
      "sendConsumerMessage(address,string)": {
        "notice": "Permits third party marketers to send messages to consumers via the connected DAPP for a fee paid to a verified consumer. Consumer has option to opt-out, if they choose to receive communication, they can now get paid for each message received. Since no Personal Identifying Information (PII) is linked to the wallet on the public chain, there is no matching demographics and just plain blind advertising which is most email campaigns."
      }
    },
    "version": 1
  }
}