{
  "contractName": "CreditReport",
  "abi": [
    {
      "inputs": [],
      "stateMutability": "nonpayable",
      "type": "constructor"
    },
    {
      "anonymous": false,
      "inputs": [
        {
          "indexed": false,
          "internalType": "address",
          "name": "addr",
          "type": "address"
        },
        {
          "indexed": false,
          "internalType": "string",
          "name": "message",
          "type": "string"
        }
      ],
      "name": "ConsumerNotified",
      "type": "event"
    },
    {
      "anonymous": false,
      "inputs": [
        {
          "indexed": false,
          "internalType": "address",
          "name": "addr",
          "type": "address"
        },
        {
          "indexed": false,
          "internalType": "string",
          "name": "message",
          "type": "string"
        }
      ],
      "name": "SubscriberAdded",
      "type": "event"
    },
    {
      "anonymous": false,
      "inputs": [
        {
          "indexed": false,
          "internalType": "address",
          "name": "addr",
          "type": "address"
        },
        {
          "indexed": false,
          "internalType": "string",
          "name": "message",
          "type": "string"
        }
      ],
      "name": "SubscriberNotified",
      "type": "event"
    },
    {
      "inputs": [],
      "name": "VERSION",
      "outputs": [
        {
          "internalType": "string",
          "name": "",
          "type": "string"
        }
      ],
      "stateMutability": "view",
      "type": "function"
    },
    {
      "inputs": [],
      "name": "getOwner",
      "outputs": [
        {
          "internalType": "address",
          "name": "addr",
          "type": "address"
        }
      ],
      "stateMutability": "view",
      "type": "function"
    },
    {
      "inputs": [],
      "name": "getUserRole",
      "outputs": [
        {
          "internalType": "string",
          "name": "",
          "type": "string"
        }
      ],
      "stateMutability": "view",
      "type": "function"
    },
    {
      "inputs": [
        {
          "internalType": "address",
          "name": "consumer",
          "type": "address"
        }
      ],
      "name": "getConsumerReportTotal",
      "outputs": [
        {
          "internalType": "uint256",
          "name": "",
          "type": "uint256"
        }
      ],
      "stateMutability": "view",
      "type": "function"
    },
    {
      "inputs": [
        {
          "internalType": "address",
          "name": "consumer",
          "type": "address"
        },
        {
          "internalType": "uint256",
          "name": "index",
          "type": "uint256"
        }
      ],
      "name": "getConsumerReportItem",
      "outputs": [
        {
          "internalType": "bytes",
          "name": "",
          "type": "bytes"
        }
      ],
      "stateMutability": "view",
      "type": "function"
    },
    {
      "inputs": [],
      "name": "getBlocktime",
      "outputs": [
        {
          "internalType": "uint256",
          "name": "",
          "type": "uint256"
        }
      ],
      "stateMutability": "view",
      "type": "function"
    },
    {
      "inputs": [
        {
          "internalType": "uint256",
          "name": "LastTimeStamp",
          "type": "uint256"
        },
        {
          "internalType": "uint256",
          "name": "currentTime",
          "type": "uint256"
        }
      ],
      "name": "checkExpiry",
      "outputs": [
        {
          "internalType": "bool",
          "name": "success",
          "type": "bool"
        }
      ],
      "stateMutability": "pure",
      "type": "function"
    },
    {
      "inputs": [
        {
          "internalType": "address",
          "name": "_recipient",
          "type": "address"
        },
        {
          "internalType": "bytes32",
          "name": "_message",
          "type": "bytes32"
        }
      ],
      "name": "sendMessage",
      "outputs": [],
      "stateMutability": "nonpayable",
      "type": "function"
    },
    {
      "inputs": [],
      "name": "readMessage",
      "outputs": [
        {
          "internalType": "bytes32[]",
          "name": "",
          "type": "bytes32[]"
        }
      ],
      "stateMutability": "view",
      "type": "function"
    },
    {
      "inputs": [],
      "name": "getSubscribers",
      "outputs": [
        {
          "internalType": "address[]",
          "name": "",
          "type": "address[]"
        }
      ],
      "stateMutability": "view",
      "type": "function"
    },
    {
      "inputs": [],
      "name": "getConsumers",
      "outputs": [
        {
          "internalType": "address[]",
          "name": "",
          "type": "address[]"
        }
      ],
      "stateMutability": "view",
      "type": "function"
    },
    {
      "inputs": [
        {
          "internalType": "address",
          "name": "consumer",
          "type": "address"
        },
        {
          "internalType": "address",
          "name": "subscriber",
          "type": "address"
        },
        {
          "internalType": "uint256",
          "name": "reqtime",
          "type": "uint256"
        }
      ],
      "name": "getFreeCreditReport",
      "outputs": [
        {
          "internalType": "bytes32",
          "name": "",
          "type": "bytes32"
        }
      ],
      "stateMutability": "payable",
      "type": "function"
    },
    {
      "inputs": [
        {
          "internalType": "address",
          "name": "consumer",
          "type": "address"
        },
        {
          "internalType": "uint256",
          "name": "index",
          "type": "uint256"
        },
        {
          "internalType": "string",
          "name": "disputeDate",
          "type": "string"
        },
        {
          "internalType": "string",
          "name": "reason",
          "type": "string"
        }
      ],
      "name": "openDispute",
      "outputs": [],
      "stateMutability": "nonpayable",
      "type": "function"
    },
    {
      "inputs": [
        {
          "internalType": "address",
          "name": "consumer",
          "type": "address"
        }
      ],
      "name": "getReportsByConsumer",
      "outputs": [
        {
          "internalType": "bytes32",
          "name": "",
          "type": "bytes32"
        }
      ],
      "stateMutability": "view",
      "type": "function"
    },
    {
      "inputs": [
        {
          "internalType": "address",
          "name": "consumer",
          "type": "address"
        },
        {
          "internalType": "uint256",
          "name": "index",
          "type": "uint256"
        }
      ],
      "name": "purgeDispute",
      "outputs": [],
      "stateMutability": "nonpayable",
      "type": "function"
    },
    {
      "inputs": [
        {
          "internalType": "address",
          "name": "addr",
          "type": "address"
        },
        {
          "internalType": "uint256",
          "name": "_type",
          "type": "uint256"
        }
      ],
      "name": "addSubscriber",
      "outputs": [],
      "stateMutability": "nonpayable",
      "type": "function"
    },
    {
      "inputs": [
        {
          "internalType": "address",
          "name": "consumer",
          "type": "address"
        },
        {
          "internalType": "bytes",
          "name": "item",
          "type": "bytes"
        }
      ],
      "name": "addConsumerItem",
      "outputs": [],
      "stateMutability": "nonpayable",
      "type": "function"
    },
    {
      "inputs": [
        {
          "internalType": "address",
          "name": "consumer",
          "type": "address"
        },
        {
          "internalType": "uint256",
          "name": "reqtime",
          "type": "uint256"
        },
        {
          "internalType": "address payable",
          "name": "to",
          "type": "address"
        }
      ],
      "name": "getConsumerReport",
      "outputs": [
        {
          "internalType": "bytes32",
          "name": "",
          "type": "bytes32"
        }
      ],
      "stateMutability": "payable",
      "type": "function"
    },
    {
      "inputs": [
        {
          "internalType": "address",
          "name": "consumer",
          "type": "address"
        },
        {
          "internalType": "uint256",
          "name": "index",
          "type": "uint256"
        },
        {
          "internalType": "string",
          "name": "status",
          "type": "string"
        },
        {
          "internalType": "bool",
          "name": "purge",
          "type": "bool"
        }
      ],
      "name": "finalizeDispute",
      "outputs": [],
      "stateMutability": "nonpayable",
      "type": "function"
    },
    {
      "inputs": [
        {
          "internalType": "uint256",
          "name": "reqtime",
          "type": "uint256"
        }
      ],
      "name": "getCreditReport",
      "outputs": [
        {
          "internalType": "bytes32",
          "name": "",
          "type": "bytes32"
        }
      ],
      "stateMutability": "payable",
      "type": "function"
    },
    {
      "inputs": [],
      "name": "getInquiries",
      "outputs": [
        {
          "internalType": "string",
          "name": "",
          "type": "string"
        }
      ],
      "stateMutability": "view",
      "type": "function"
    },
    {
      "inputs": [
        {
          "internalType": "address",
          "name": "consumer",
          "type": "address"
        }
      ],
      "name": "getDisputes",
      "outputs": [
        {
          "internalType": "bytes32",
          "name": "",
          "type": "bytes32"
        }
      ],
      "stateMutability": "view",
      "type": "function"
    }
  ],
  "bytecode": "0x608060405234801561001057600080fd5b50600a805460a060020a60ff02193316600160a860020a031990911617740100000000000000000000000000000000000000001790556000600755612ca98061005a6000396000f3fe608060405260043610610152576000357c01000000000000000000000000000000000000000000000000000000009004806375cb1c43116100c8578063d69997801161008c578063d69997801461036f578063d7fdd77014610382578063d91ed51d146103b2578063e09ee3af146103c7578063f7bddce4146103e7578063ffa1ad741461040757600080fd5b806375cb1c43146102df578063893d20e8146102ff578063a264c26c14610327578063bf04a10d1461033a578063c7068c8e1461034f57600080fd5b80633b729b861161011a5780633b729b86146101f65780633d5913ae1461020b57806357486eb61461022b5780636138d5971461024b5780636df2ddd81461026b57806370d6e7b4146102b257600080fd5b8063031d5d01146101575780630501b79f1461018257806305cc61ad1461019f57806318a92881146101c157806338cf7a27146101d4575b600080fd5b34801561016357600080fd5b5061016c610450565b60405161017991906123e9565b60405180910390f35b34801561018e57600080fd5b50425b604051908152602001610179565b3480156101ab57600080fd5b506101b46104b1565b604051610179919061242d565b6101916101cf36600461246e565b610549565b3480156101e057600080fd5b506101f46101ef36600461252b565b610616565b005b34801561020257600080fd5b506101b461083b565b34801561021757600080fd5b506101f461022636600461258f565b6108c9565b34801561023757600080fd5b506101f46102463660046125db565b610a15565b34801561025757600080fd5b5061019161026636600461265b565b610d78565b34801561027757600080fd5b506101f461028636600461258f565b600160a060020a0390911660009081526008602090815260408220805460018101825590835291200155565b3480156102be57600080fd5b506102d26102cd36600461258f565b610db7565b60405161017991906126d4565b3480156102eb57600080fd5b506101f46102fa3660046126e7565b610dc3565b34801561030b57600080fd5b50600a54604051600160a060020a039091168152602001610179565b610191610335366004612758565b611389565b34801561034657600080fd5b506102d2611601565b34801561035b57600080fd5b5061019161036a36600461265b565b611770565b61019161037d366004612799565b61178e565b34801561038e57600080fd5b506103a261039d3660046127db565b6118ee565b6040519015158152602001610179565b3480156103be57600080fd5b506102d2611913565b3480156103d357600080fd5b506101916103e236600461265b565b611a4d565b3480156103f357600080fd5b506101f461040236600461258f565b611f66565b34801561041357600080fd5b506102d26040518060400160405280600581526020017f312e302e3500000000000000000000000000000000000000000000000000000081525081565b336000908152600860209081526040918290208054835181840281018401909452808452606093928301828280156104a757602002820191906000526020600020905b815481526020019060010190808311610493575b5050505050905090565b600a54606090600160a060020a031633146104ea5760405160e560020a62461bcd0281526004016104e1906127fd565b60405180910390fd5b60058054806020026020016040519081016040528092919081815260200182805480156104a757602002820191906000526020600020905b8154600160a060020a03168152600190910190602001808311610522575050505050905090565b336000908152600260205260408120546105a85760405160e560020a62461bcd02815260206004820152601a60248201527f6163636573732064656e69656420666f7220636f6e73756d657200000000000060448201526064016104e1565b6040805180820182523380825260208083018681526000838152600383529485208054600180820183559187529290952084516002909302018054600160a060020a031916600160a060020a03909316929092178255519301929092559061060f90612161565b9392505050565b336000908152600160205260409020546106455760405160e560020a62461bcd0281526004016104e190612834565b600160a060020a03821661069e5760405160e560020a62461bcd02815260206004820152600f60248201527f6d697373696e672061646472657373000000000000000000000000000000000060448201526064016104e1565b600160a060020a03821660009081526002602052604090205461072c57600160a060020a038216600081815260026020526040812060019081905560068054918201815582527ff652222313e28459528d920b65115c16c04f3efc82aaedc97be59f3f377c0d3f018054600160a060020a031916909217909155600780549161072683612884565b91905055505b6040805180820182523381526020808201848152600160a060020a0386811660009081528084529485208054600180820183559187529584902085516002909702018054600160a060020a031916969092169590951781559051805193948594929361079d93918501920190612313565b505060408051600160a060020a0386168152602081018290526021818301527f6e6577206974656d2077617320616464656420746f20796f7572207265706f7260608201527f7400000000000000000000000000000000000000000000000000000000000000608082015290517fd87358bdb9fb3fd22dc44bf9aec10b565d35f5b8c903db24b4addfb35594895c92509081900360a00190a1505050565b600a54606090600160a060020a0316331461086b5760405160e560020a62461bcd0281526004016104e1906127fd565b60068054806020026020016040519081016040528092919081815260200182805480156104a757602002820191906000526020600020908154600160a060020a03168152600190910190602001808311610522575050505050905090565b600a54600160a060020a031633146108f65760405160e560020a62461bcd0281526004016104e1906127fd565b600160a060020a03821660009081526004602052604090208054829081106109205761092061289f565b600091825260208220600890910201818155600181018054600160a060020a03199081169091556002820180549091169055906109606003830182612397565b600482018054600160a060020a031916815560006109816005850182612397565b506109929050600683016000612397565b6109a0600783016000612397565b505060408051600160a060020a038416815260208101829052600f818301527f646973707574652064656c657465640000000000000000000000000000000000606082015290517fd87358bdb9fb3fd22dc44bf9aec10b565d35f5b8c903db24b4addfb35594895c9181900360800190a15050565b600a54600160a060020a03163314610a425760405160e560020a62461bcd0281526004016104e1906127fd565b604080518082018252600160a060020a03861660009081526020819052918220805482919087908110610a7757610a7761289f565b60009182526020808320600290920290910154600160a060020a0390811684528916825281815260409091208054929091019187908110610aba57610aba61289f565b90600052602060002090600202016001018054610ad6906128b8565b80601f0160208091040260200160405190810160405280929190818152602001828054610b02906128b8565b8015610b4f5780601f10610b2457610100808354040283529160200191610b4f565b820191906000526020600020905b815481529060010190602001808311610b3257829003601f168201915b5050509190925250506040805160e0810182528681528251600160a060020a0390811660208084019182528a8316848601818152606086018b81526080870189905260a087018b905287518085018952600080825260c08901919091529283526004845296822080546001818101835591845292849020875160089094020192835593519382018054948616600160a060020a03199586161790555160028201805491909516931692909217909255925180519495509193849392610c1b926003850192910190612313565b5060808201518051600483018054600160a060020a031916600160a060020a039092169190911781556020808301518051610c5c9260058701920190612313565b50505060a08201518051610c7a916006840191602090910190612313565b5060c08201518051610c96916007840191602090910190612313565b50508251600160a060020a03166000908152600860209081526040918290208551828701519351919450610cd5938a9391928c928b92918b91016128f6565b60408051601f1981840301815282825280516020918201208454600181018655600095865294829020909401939093558451600160a060020a031682529181018290526012818301527f6e65772064697370757465206f70656e65640000000000000000000000000000606082015290517fde371f040710867afadb0d380ec315de30e2cdd4edd5062dd8c82c7418784ad79181900360800190a1505050505050565b600a54600090600160a060020a03163314610da85760405160e560020a62461bcd0281526004016104e1906127fd565b610db182612161565b92915050565b606061060f8383612243565b33600090815260016020526040902054610df25760405160e560020a62461bcd0281526004016104e190612834565b60006040518060e001604052808581526020016004600088600160a060020a0316600160a060020a031681526020019081526020016000208681548110610e3b57610e3b61289f565b6000918252602080832060016008909302019190910154600160a060020a039081168452891682526004815260409091208054929091019187908110610e8357610e8361289f565b6000918252602080832060026008909302019190910154600160a060020a039081168452891682526004815260409091208054929091019187908110610ecb57610ecb61289f565b90600052602060002090600802016003018054610ee7906128b8565b80601f0160208091040260200160405190810160405280929190818152602001828054610f13906128b8565b8015610f605780601f10610f3557610100808354040283529160200191610f60565b820191906000526020600020905b815481529060010190602001808311610f4357829003601f168201915b505050505081526020016004600088600160a060020a0316600160a060020a031681526020019081526020016000208681548110610fa057610fa061289f565b600091825260209182902060408051808201909152600460089093029091019182018054600160a060020a03168252600590920180549193840191610fe4906128b8565b80601f0160208091040260200160405190810160405280929190818152602001828054611010906128b8565b801561105d5780601f106110325761010080835404028352916020019161105d565b820191906000526020600020905b81548152906001019060200180831161104057829003601f168201915b50505050508152505081526020016004600088600160a060020a0316600160a060020a0316815260200190815260200160002086815481106110a1576110a161289f565b906000526020600020906008020160060180546110bd906128b8565b80601f01602080910402602001604051908101604052809291908181526020018280546110e9906128b8565b80156111365780601f1061110b57610100808354040283529160200191611136565b820191906000526020600020905b81548152906001019060200180831161111957829003601f168201915b5050505050815260200184815250905081156111fd57600160a060020a03851660009081526004602052604090208054859081106111765761117661289f565b600091825260208220600890910201818155600181018054600160a060020a03199081169091556002820180549091169055906111b66003830182612397565b600482018054600160a060020a031916815560006111d76005850182612397565b506111e89050600683016000612397565b6111f6600783016000612397565b5050611313565b600160a060020a038516600090815260046020526040902080548291908690811061122a5761122a61289f565b6000918252602091829020835160089092020190815582820151600182018054600160a060020a03928316600160a060020a031991821617909155604085015160028401805491909316911617905560608301518051919261129492600385019290910190612313565b5060808201518051600483018054600160a060020a031916600160a060020a0390921691909117815560208083015180516112d59260058701920190612313565b50505060a082015180516112f3916006840191602090910190612313565b5060c0820151805161130f916007840191602090910190612313565b5050505b60408051600160a060020a0387168152602081018290526011818301527f646973707574652066696e616c697a6564000000000000000000000000000000606082015290517fd87358bdb9fb3fd22dc44bf9aec10b565d35f5b8c903db24b4addfb35594895c9181900360800190a15050505050565b600a54600090600160a060020a031633146113b95760405160e560020a62461bcd0281526004016104e1906127fd565b600160a060020a0384166000908152600360205260408120548591859185919082905b80156114a157821580156114475750600160a060020a0386166000908152600360205260408120805460019291908490811061141a5761141a61289f565b60009182526020808320600290920290910154600160a060020a0316835282019290925260400190205415155b1561148f57600160a060020a03861660009081526003602052604090208054829081106114765761147661289f565b9060005260206000209060020201600101549150600192505b806114998161299d565b9150506113dc565b50600160a060020a0385166000908152600360205260408120546114c7906001906129b4565b600160a060020a038716600090815260036020526040812080549293509091839081106114f6576114f661289f565b90600052602060002090600202016001015490508060001480611525575084611523826301dfe2006129cb565b115b8061153b575084611539846276a7006129cb565b105b61158a5760405160e560020a62461bcd02815260206004820152601e60248201527f6e6f7420656c696769626c6520666f7220612066726565207265706f7274000060448201526064016104e1565b604080518082018252600160a060020a038d811680835260208084018e81526000928352600382529482208054600180820183559184529190922084516002909202018054600160a060020a0319169190931617825592519201919091556115f18c612161565b9c9b505050505050505050505050565b6060336116535760405160e560020a62461bcd02815260206004820152601860248201527f6163636573732064656e69656420666f722073656e646572000000000000000060448201526064016104e1565b600a54600160a060020a031633141561169e575060408051808201909152600581527f6f776e6572000000000000000000000000000000000000000000000000000000602082015290565b33600090815260016020526040902054156116eb575060408051808201909152600a81527f7375627363726962657200000000000000000000000000000000000000000000602082015290565b3360009081526002602052604090205415611738575060408051808201909152600881527f636f6e73756d6572000000000000000000000000000000000000000000000000602082015290565b5060408051808201909152600781527f756e6b6e6f776e00000000000000000000000000000000000000000000000000602082015290565b600160a060020a038116600090815260208190526040812054610db1565b336000908152600160205260408120546117bd5760405160e560020a62461bcd0281526004016104e190612834565b600a548290600160a060020a0380831691161461181f5760405160e560020a62461bcd02815260206004820152600d60248201527f6e6f7420746865206f776e65720000000000000000000000000000000000000060448201526064016104e1565b66038d7ea4c680003331811061187a5760405160e560020a62461bcd02815260206004820152601b60248201527f696e73756666696369656e742062616c616e63652f616d6f756e74000000000060448201526064016104e1565b6040805180820182523381526020808201888152600160a060020a038a81166000908152600384529485208054600180820183559187529390952084516002909402018054600160a060020a03191693909116929092178255519201919091556118e387612161565b979650505050505050565b6000816118fe8462278d006129cb565b1061190b57506001610db1565b506000610db1565b336000908152600260205260409020546060906119755760405160e560020a62461bcd02815260206004820152601a60248201527f6163636573732064656e69656420666f7220636f6e73756d657200000000000060448201526064016104e1565b604080516020810190915260008082525b33600090815260036020526040902054811015611a47573360009081526003602052604090208054839190839081106119c1576119c161289f565b60009182526020808320600290920290910154338352600390915260409091208054600160a060020a0390921691849081106119ff576119ff61289f565b906000526020600020906002020160010154604051602001611a23939291906129e3565b60405160208183030381529060405291508080611a3f90612884565b915050611986565b50905090565b600a54600090600160a060020a03163314611a7d5760405160e560020a62461bcd0281526004016104e1906127fd565b6000805b600160a060020a038416600090815260046020526040902054811015611f5f576040805160e081018252600160a060020a03861660009081526004602052918220805482919085908110611ad757611ad761289f565b90600052602060002090600802016000015481526020016004600088600160a060020a0316600160a060020a031681526020019081526020016000208481548110611b2457611b2461289f565b6000918252602080832060016008909302019190910154600160a060020a039081168452891682526004815260409091208054929091019185908110611b6c57611b6c61289f565b6000918252602080832060026008909302019190910154600160a060020a039081168452891682526004815260409091208054929091019185908110611bb457611bb461289f565b90600052602060002090600802016003018054611bd0906128b8565b80601f0160208091040260200160405190810160405280929190818152602001828054611bfc906128b8565b8015611c495780601f10611c1e57610100808354040283529160200191611c49565b820191906000526020600020905b815481529060010190602001808311611c2c57829003601f168201915b505050505081526020016004600088600160a060020a0316600160a060020a031681526020019081526020016000208481548110611c8957611c8961289f565b600091825260209182902060408051808201909152600460089093029091019182018054600160a060020a03168252600590920180549193840191611ccd906128b8565b80601f0160208091040260200160405190810160405280929190818152602001828054611cf9906128b8565b8015611d465780601f10611d1b57610100808354040283529160200191611d46565b820191906000526020600020905b815481529060010190602001808311611d2957829003601f168201915b50505050508152505081526020016004600088600160a060020a0316600160a060020a031681526020019081526020016000208481548110611d8a57611d8a61289f565b90600052602060002090600802016006018054611da6906128b8565b80601f0160208091040260200160405190810160405280929190818152602001828054611dd2906128b8565b8015611e1f5780601f10611df457610100808354040283529160200191611e1f565b820191906000526020600020905b815481529060010190602001808311611e0257829003601f168201915b505050505081526020016004600088600160a060020a0316600160a060020a031681526020019081526020016000208481548110611e5f57611e5f61289f565b90600052602060002090600802016007018054611e7b906128b8565b80601f0160208091040260200160405190810160405280929190818152602001828054611ea7906128b8565b8015611ef45780601f10611ec957610100808354040283529160200191611ef4565b820191906000526020600020905b815481529060010190602001808311611ed757829003601f168201915b505050505081525090508281600001518260200151836040015184606001518560a001518660c00151604051602001611f339796959493929190612a28565b604051602081830303815290604052805190602001209250508080611f5790612884565b915050611a81565b5092915050565b600a54600160a060020a03163314611f935760405160e560020a62461bcd0281526004016104e1906127fd565b816000805b600554811015611ff15782600160a060020a031660058281548110611fbf57611fbf61289f565b600091825260209091200154600160a060020a03161415611fdf57600191505b80611fe981612884565b915050611f98565b5080156120435760405160e560020a62461bcd02815260206004820152601c60248201527f7573657220697320616c7265616479206120737562736372696265720000000060448201526064016104e1565b600160a060020a03841661209c5760405160e560020a62461bcd02815260206004820152600f60248201527f6d697373696e672061646472657373000000000000000000000000000000000060448201526064016104e1565b600160a060020a03841660008181526001602081815260408084208890556005805493840181559093527f036b6384b5eca791c62761152d0c79bb0604c104a5fb6f4eb0703f3154bb3db09091018054600160a060020a03191684179055815192835282018190526010828201527f73756273637269626572206164646564000000000000000000000000000000006060830152517fae28b319183e2d4a0f4721e7fc4bb1c25a05610d1e2efb85b10dfbf7bbf4761b9181900360800190a150505050565b60008060005b600160a060020a038416600090815260208190526040902054811015611f5f57600160a060020a03841660009081526020819052604090208054839190839081106121b4576121b461289f565b60009182526020808320600290920290910154600160a060020a0388811684529183905260409092208054919092169190849081106121f5576121f561289f565b906000526020600020906002020160010160405160200161221893929190612b00565b604051602081830303815290604052805190602001209150808061223b90612884565b915050612167565b600160a060020a0382166000908152602081905260409020805460609190839081106122715761227161289f565b9060005260206000209060020201600101805461228d906128b8565b80601f01602080910402602001604051908101604052809291908181526020018280546122b9906128b8565b80156123065780601f106122db57610100808354040283529160200191612306565b820191906000526020600020905b8154815290600101906020018083116122e957829003601f168201915b5050505050905092915050565b82805461231f906128b8565b90600052602060002090601f0160209004810192826123415760008555612387565b82601f1061235a57805160ff1916838001178555612387565b82800160010185558215612387579182015b8281111561238757825182559160200191906001019061236c565b506123939291506123d4565b5090565b5080546123a3906128b8565b6000825580601f106123b3575050565b601f0160209004906000526020600020908101906123d191906123d4565b50565b5b8082111561239357600081556001016123d5565b6020808252825182820181905260009190848201906040850190845b8181101561242157835183529284019291840191600101612405565b50909695505050505050565b6020808252825182820181905260009190848201906040850190845b81811015612421578351600160a060020a031683529284019291840191600101612449565b60006020828403121561248057600080fd5b5035919050565b600160a060020a03811681146123d157600080fd5b60e060020a634e487b7102600052604160045260246000fd5b600067ffffffffffffffff808411156124d0576124d061249c565b604051601f8501601f19908116603f011681019082821181831017156124f8576124f861249c565b8160405280935085815286868601111561251157600080fd5b858560208301376000602087830101525050509392505050565b6000806040838503121561253e57600080fd5b823561254981612487565b9150602083013567ffffffffffffffff81111561256557600080fd5b8301601f8101851361257657600080fd5b612585858235602084016124b5565b9150509250929050565b600080604083850312156125a257600080fd5b82356125ad81612487565b946020939093013593505050565b600082601f8301126125cc57600080fd5b61060f838335602085016124b5565b600080600080608085870312156125f157600080fd5b84356125fc81612487565b935060208501359250604085013567ffffffffffffffff8082111561262057600080fd5b61262c888389016125bb565b9350606087013591508082111561264257600080fd5b5061264f878288016125bb565b91505092959194509250565b60006020828403121561266d57600080fd5b813561060f81612487565b60005b8381101561269357818101518382015260200161267b565b838111156126a2576000848401525b50505050565b600081518084526126c0816020860160208601612678565b601f01601f19169290920160200192915050565b60208152600061060f60208301846126a8565b600080600080608085870312156126fd57600080fd5b843561270881612487565b935060208501359250604085013567ffffffffffffffff81111561272b57600080fd5b612737878288016125bb565b9250506060850135801515811461274d57600080fd5b939692955090935050565b60008060006060848603121561276d57600080fd5b833561277881612487565b9250602084013561278881612487565b929592945050506040919091013590565b6000806000606084860312156127ae57600080fd5b83356127b981612487565b92506020840135915060408401356127d081612487565b809150509250925092565b600080604083850312156127ee57600080fd5b50508035926020909101359150565b60208082526017908201527f6163636573732064656e69656420666f72206f776e6572000000000000000000604082015260600190565b6020808252601c908201527f6163636573732064656e69656420666f72207375627363726962657200000000604082015260600190565b60e060020a634e487b7102600052601160045260246000fd5b60006000198214156128985761289861286b565b5060010190565b60e060020a634e487b7102600052603260045260246000fd5b6002810460018216806128cc57607f821691505b602082108114156128f05760e060020a634e487b7102600052602260045260246000fd5b50919050565b7f44697370757465204f70656e65643a0000000000000000000000000000000000815286600f82015260006c01000000000000000000000000600160a060020a0381818a1602602f8501528181891602604385015250508451612960816057850160208901612678565b845190830190612977816057840160208901612678565b845191019061298d816057840160208801612678565b0160570198975050505050505050565b6000816129ac576129ac61286b565b506000190190565b6000828210156129c6576129c661286b565b500390565b600082198211156129de576129de61286b565b500190565b600084516129f5818460208901612678565b600160a060020a03949094166c010000000000000000000000000291909301908152601481019190915260340192915050565b8781527f5b00000000000000000000000000000000000000000000000000000000000000602082015286602182015260006c01000000000000000000000000600160a060020a0381818a160260418501528181891602605585015250508451612a98816069850160208901612678565b845190830190612aaf816069840160208901612678565b8451910190612ac5816069840160208801612678565b7f5d0000000000000000000000000000000000000000000000000000000000000060699290910191820152606a019998505050505050505050565b838152600060207f5b00000000000000000000000000000000000000000000000000000000000000818401526c01000000000000000000000000600160a060020a0386160260218401527f2c00000000000000000000000000000000000000000000000000000000000000603584015260366000855481600282049050600180831680612b8e57607f831692505b868310811415612baf5760e060020a634e487b710285526022600452602485fd5b808015612bc35760018114612bd857612c09565b60ff1985168a880152838a0187019550612c09565b60008b81526020902060005b85811015612bff5781548c82018a0152908401908901612be4565b505086848b010195505b5050505050612c67612c3e827f2c00000000000000000000000000000000000000000000000000000000000000815260010190565b7f5d00000000000000000000000000000000000000000000000000000000000000815260010190565b9897505050505050505056fea2646970667358221220a06f245b08c2bc97dc11c25a2c9fe2532f2fc7bd31fdb0c4d4696dbcac8c4afa64736f6c634300080a0033",
  "immutableReferences": {},
  "source": "// SPDX-License-Identifier: CC-BY-4.0\npragma solidity >=0.4.22 <0.9.0;\n\nimport \"../Version.sol\";\n\ncontract CreditReport is Version {\n  bytes32 constant private ZERO_BYTES = bytes32(0);\n  address constant private ZERO_ADDRESS = address(0);\n\n  struct Item {\n    string opendate;\n    string  description;\n    uint    amount;\n    uint    balance;\n    uint    limit;\n    string  paystatus;\n  }\n\n  struct ReportItem {\n    address subscriber;\n    bytes   item;\n  }\n\n  struct Inquiry {\n    address subscriber;\n    uint256 reqdate; // epoch timestamp\n  }\n\n  struct Dispute {\n    uint index;\n    address subscriber;\n    address consumer;\n    string  disputeDate;\n    ReportItem item;\n    string reason;\n    string status;\n  }\n\n  mapping(address => ReportItem[]) private reports;\n  mapping(address => uint256) private subscribers;\n\n  mapping(address => uint256) private consumers;\n  mapping(address => Inquiry[]) private inquiries;\n  mapping(address => Dispute[]) private disputes;\n\n  address[] private _subscribers;\n  address[] private _consumers;\n\n  uint total_consumers;\n\n  mapping (address => bytes32[]) message;\n\n  mapping (bytes => address) private _owner;\n\n  address private owner;\n  bool private initialized;\n\n  event SubscriberAdded(address addr, string message);\n  event SubscriberNotified(address addr, string message);\n  event ConsumerNotified(address addr, string message);\n\n  constructor()\n  {\n    owner = msg.sender;\n    initialized = true;\n    total_consumers = 0;\n  }\n\n  // Modifiers\n  modifier onlyOwner() {\n    require(msg.sender == owner, \"access denied for owner\");\n    _;\n  }\n\n  modifier isOwner(address addr) {\n    require(addr == owner, \"not the owner\");\n    _;\n  }\n\n  modifier validSender() {\n    require(msg.sender != ZERO_ADDRESS,\"access denied for sender\");\n    _;\n  }\n\n  modifier onlySubscriber() {\n    require(subscribers[msg.sender] != 0, \"access denied for subscriber\");\n    _;\n  }\n\n  modifier onlyConsumer() {\n    require(consumers[msg.sender] != 0, \"access denied for consumer\");\n    _;\n  }\n\n  modifier alreadySubscriber(address addr) {\n    bool found = false;\n    for (uint i = 0; i < _subscribers.length; i++) {\n      if (_subscribers[i] == addr) {\n        found = true;\n      }\n    }\n    require(found == false, \"user is already a subscriber\");\n    _;\n  }\n\n  modifier alreadyConsumer(address addr) {\n    bool found = false;\n    for (uint i = 0; i < _consumers.length; i++) {\n      if (_consumers[i] == addr) {\n        found = true;\n      }\n    }\n    require(found == false, \"user is already a consumer\");\n    _;\n  }\n\n  /**\n   * A consumer is entitled\n   */\n  modifier freeReportCheck(address consumer, address subscriber, uint256 reqtime) {\n    bool found = false;\n    uint256 subscriber_lastreq = reqtime;\n    for (uint i = inquiries[consumer].length; i > 0; i--) {\n      if (!found && subscribers[inquiries[consumer][i].subscriber] != 0) {\n          subscriber_lastreq = inquiries[consumer][i].reqdate;\n          found = true;\n      }\n    }\n\n    uint consumer_total = inquiries[consumer].length - 1;\n    uint256 consumer_lastreq = inquiries[consumer][consumer_total].reqdate;\n    require(\n      consumer_lastreq == 0 || (consumer_lastreq + 52 weeks) > reqtime || (subscriber_lastreq + 90 days) < reqtime,\n     \"not eligible for a free report\");\n     _;\n  }\n\n  modifier requiresFee(uint fee) {\n    require(msg.sender.balance > fee, \"insufficient balance/amount\");\n    _;\n  }\n\n  // Common privleges\n  /**\n   * retrieves the owner\n   */\n  function getOwner()\n    public\n    view\n    returns (address addr)\n  {\n    return owner;\n  }\n\n  function getUserRole()\n    public\n    view\n    validSender\n    returns (string memory)\n  {\n    if (msg.sender == owner) {\n      return string(\"owner\");\n    } else if (subscribers[msg.sender] != 0) {\n      return string(\"subscriber\");\n    } else if (consumers[msg.sender] != 0) {\n      return string(\"consumer\");\n    }\n    return string(\"unknown\");\n  }\n\n  function getConsumerReportTotal(address consumer)\n    public\n    view\n    returns (uint)\n  {\n    return _reportItemsTotal(consumer);\n  }\n\n  function getConsumerReportItem(address consumer,uint index)\n    public\n    view\n    returns (bytes memory)\n  {\n    return _reportItem(consumer, index);\n  }\n\n  function getBlocktime()\n    public\n    view\n    returns (uint256)\n  {\n    return block.timestamp;\n  }\n\n  /**\n   * The disputeDate is in ISO and must be converted to epoch timestamp before checking current time\n   * The currentTime is epoch timestamp provided by the caller\n   */\n  function checkExpiry(uint256 LastTimeStamp, uint256 currentTime)\n   public\n   pure\n   returns(bool success)\n  {\n    if (LastTimeStamp + 30 days >= currentTime) {\n      return true;\n    } else {\n      return false;\n    }\n  }\n\n  function sendMessage(address _recipient, bytes32 _message)\n    public\n  {\n    message[_recipient].push(_message);\n  }\n\n  function readMessage()\n    public\n    view\n    returns (bytes32[] memory)\n  {\n    return message[msg.sender];\n  }\n\n  // Owner-Administrator privileges\n  function getSubscribers()\n  public\n  view\n  onlyOwner\n  returns (address[] memory)\n  {\n    return _subscribers;\n  }\n\n  function getConsumers()\n  public\n  view\n  onlyOwner\n  returns (address[] memory)\n  {\n    return _consumers;\n  }\n\n  /**\n   * retrieves consumer report for the consumer by the owner so the consumer does not incur gas fees.\n   * to abide by law and allow free credit report to the consumer, cannot change the state on the contract,\n   * otherwise the method must pay gas fee. By not recording consumer self requests in the contract, keeps\n   * this function free.\n   */\n  function getFreeCreditReport(address consumer, address subscriber, uint256 reqtime)\n    public\n    payable\n    onlyOwner\n    freeReportCheck(consumer, subscriber, reqtime)\n    returns (bytes32)\n  {\n    Inquiry memory inquiry = Inquiry(consumer, reqtime);\n    inquiries[consumer].push(inquiry);\n    return _report(consumer);\n  }\n\n  /**\n   * because open dispute changes the state of the contract, gas fees applies,\n   * hence the consumer must start a dispute offline, and send to the owner to create a dispute and the owner pays the gas fee\n   */\n  function openDispute(address consumer, uint index, string memory disputeDate,string memory reason)\n    public\n    onlyOwner\n  {\n    ReportItem memory report = ReportItem(reports[consumer][index].subscriber,reports[consumer][index].item);\n    Dispute memory dispute = Dispute(index, report.subscriber, consumer, disputeDate, report, reason, \"\");\n    disputes[consumer].push(dispute);\n    message[report.subscriber].push(\n      keccak256(\n        abi.encodePacked(\n          \"Dispute Opened:\",\n          index,\n          report.subscriber,\n          consumer,\n          disputeDate,\n          report.item,\n          reason\n        )\n      )\n    );\n    emit SubscriberNotified(report.subscriber, \"new dispute opened\");\n  }\n\n  function getReportsByConsumer(address consumer)\n    public\n    view\n    onlyOwner\n    returns (bytes32)\n  {\n    return _report(consumer);\n  }\n\n  function purgeDispute(address consumer, uint index)\n    public\n    onlyOwner\n  {\n    delete disputes[consumer][index];\n    emit ConsumerNotified(consumer, \"dispute deleted\");\n  }\n\n  // Subscriber privileges\n  /**\n   * adds a new subscriber\n   */\n  function addSubscriber(address addr, uint256 _type)\n  public\n  onlyOwner\n  alreadySubscriber(addr)\n  {\n    require(addr != ZERO_ADDRESS,\"missing address\");\n    subscribers[addr] = _type;\n    _subscribers.push(addr);\n    emit SubscriberAdded(addr, \"subscriber added\");\n  }\n\n  /**\n   * adds an item to the consumer report by an existing subscriber, must contain the minimum:\n   *    subscriber, open date, amount, description, balance, limit, payment status\n   */\n  function addConsumerItem(address consumer, bytes memory item)\n    public\n    onlySubscriber\n  {\n    require(consumer != ZERO_ADDRESS,\"missing address\");\n    if (consumers[consumer] == 0) {\n      consumers[consumer] = 1;\n      _consumers.push(consumer);\n      total_consumers++;\n    }\n    ReportItem memory ritem = ReportItem(msg.sender, item);\n    reports[consumer].push(ritem);\n    emit ConsumerNotified(consumer, \"new item was added to your report\");\n  }\n\n  /**\n   * retrieves consumer report by a subscriber, fee is paid to the owner\n   */\n  function getConsumerReport(address consumer, uint reqtime, address payable to)\n    public\n    payable\n    onlySubscriber\n    isOwner(to)\n    requiresFee(0.001 ether)\n    returns (bytes32)\n  {\n    //to.transfer(0.001 ether);\n    Inquiry memory inquiry = Inquiry(msg.sender, reqtime);\n    inquiries[consumer].push(inquiry);\n    return _report(consumer);\n  }\n\n  function finalizeDispute(address consumer,uint index,string memory status, bool purge)\n    public\n    onlySubscriber\n  {\n    Dispute memory dispute = Dispute(\n      index,\n      disputes[consumer][index].subscriber,\n      disputes[consumer][index].consumer,\n      disputes[consumer][index].disputeDate,\n      disputes[consumer][index].item,\n      disputes[consumer][index].reason,\n      status\n    );\n\n    if (purge) {\n      delete disputes[consumer][index];\n    } else {\n      disputes[consumer][index] = dispute;\n    }\n    emit ConsumerNotified(consumer, \"dispute finalized\");\n  }\n\n  // Consumer previlieges\n  /**\n   * When the consumer is not entitled to a free annual report\n   */\n  function getCreditReport(uint256 reqtime)\n    public\n    payable\n    onlyConsumer\n    returns (bytes32)\n  {\n    Inquiry memory inquiry = Inquiry(msg.sender, reqtime);\n    inquiries[msg.sender].push(inquiry);\n    return _report(msg.sender);\n  }\n\n  function getInquiries()\n    public\n    view\n    onlyConsumer\n    returns (string memory)\n  {\n    string memory output = \"\";\n    for (uint i = 0; i < inquiries[msg.sender].length; i++) {\n      output = string(\n        abi.encodePacked(\n          output,\n          inquiries[msg.sender][i].subscriber,\n          inquiries[msg.sender][i].reqdate\n        )\n      );\n    }\n    return output;\n  }\n\n  /**\n   * The contract owner will pull a list of disputes,\n   * while iterating through each dispute,\n   * convert the disputeDate from ISO string to an epoch timestamp and get current time in epoch timestamp,\n   * check if the dispute is expired by more than 30 days from current time,\n   * if dispute is expired, delete the dispute and notifiy consumer\n   */\n  function getDisputes(address consumer)\n    public\n    view\n    onlyOwner\n    returns (bytes32)\n  {\n    bytes32 output = \"\";\n    for (uint i = 0; i < disputes[consumer].length; i++) {\n      Dispute memory _dispute = Dispute(\n        disputes[consumer][i].index,\n        disputes[consumer][i].subscriber,\n        disputes[consumer][i].consumer,\n        disputes[consumer][i].disputeDate,\n        disputes[consumer][i].item,\n        disputes[consumer][i].reason,\n        disputes[consumer][i].status\n      );\n      output = keccak256(\n        abi.encodePacked(\n          output,\n          \"[\",\n          _dispute.index,\n          _dispute.subscriber,\n          _dispute.consumer,\n          _dispute.disputeDate,\n          _dispute.reason,\n          _dispute.status,\n          \"]\"\n        )\n      );\n    }\n    return output;\n  }\n\n  // Internal privileges\n  function _report(address consumer)\n    internal\n    view\n    returns (bytes32)\n  {\n    bytes32 output;\n    for (uint i = 0; i < reports[consumer].length; i++) {\n      output = keccak256(abi.encodePacked(\n        output, \"[\",\n          reports[consumer][i].subscriber, \",\",\n          reports[consumer][i].item, \",\",\n        \"]\"\n      ));\n    }\n    return output;\n  }\n\n  function _reportItem(address consumer, uint index)\n    internal\n    view\n    returns (bytes memory)\n  {\n    return reports[consumer][index].item;\n  }\n\n  function _reportItemsTotal(address consumer)\n    internal\n    view\n    returns (uint)\n  {\n    return reports[consumer].length;\n  }\n}\n",
  "sourcePath": "G:\\projects\\pingleware-contracts\\contracts\\credit\\CreditReport.sol",
  "compiler": {
    "name": "solc",
    "version": "0.8.10+commit.fc410830.Emscripten.clang"
  },
  "schemaVersion": "3.4.3",
  "updatedAt": "2021-12-24T16:15:19.910Z",
  "devdoc": {
    "kind": "dev",
    "methods": {},
    "version": 1
  },
  "userdoc": {
    "kind": "user",
    "methods": {
      "addConsumerItem(address,bytes)": {
        "notice": "adds an item to the consumer report by an existing subscriber, must contain the minimum:    subscriber, open date, amount, description, balance, limit, payment status"
      },
      "addSubscriber(address,uint256)": {
        "notice": "adds a new subscriber"
      },
      "checkExpiry(uint256,uint256)": {
        "notice": "The disputeDate is in ISO and must be converted to epoch timestamp before checking current time The currentTime is epoch timestamp provided by the caller"
      },
      "getConsumerReport(address,uint256,address)": {
        "notice": "retrieves consumer report by a subscriber, fee is paid to the owner"
      },
      "getCreditReport(uint256)": {
        "notice": "When the consumer is not entitled to a free annual report"
      },
      "getDisputes(address)": {
        "notice": "The contract owner will pull a list of disputes, while iterating through each dispute, convert the disputeDate from ISO string to an epoch timestamp and get current time in epoch timestamp, check if the dispute is expired by more than 30 days from current time, if dispute is expired, delete the dispute and notifiy consumer"
      },
      "getFreeCreditReport(address,address,uint256)": {
        "notice": "retrieves consumer report for the consumer by the owner so the consumer does not incur gas fees. to abide by law and allow free credit report to the consumer, cannot change the state on the contract, otherwise the method must pay gas fee. By not recording consumer self requests in the contract, keeps this function free."
      },
      "getOwner()": {
        "notice": "retrieves the owner"
      },
      "openDispute(address,uint256,string,string)": {
        "notice": "because open dispute changes the state of the contract, gas fees applies, hence the consumer must start a dispute offline, and send to the owner to create a dispute and the owner pays the gas fee"
      }
    },
    "version": 1
  }
}