{
  "contractName": "Credit",
  "abi": [
    {
      "inputs": [
        {
          "internalType": "uint256",
          "name": "_requestedAmount",
          "type": "uint256"
        },
        {
          "internalType": "uint256",
          "name": "_requestedRepayments",
          "type": "uint256"
        },
        {
          "internalType": "uint256",
          "name": "_interest",
          "type": "uint256"
        },
        {
          "internalType": "bytes32",
          "name": "_description",
          "type": "bytes32"
        }
      ],
      "stateMutability": "nonpayable",
      "type": "constructor"
    },
    {
      "anonymous": false,
      "inputs": [
        {
          "indexed": false,
          "internalType": "address",
          "name": "sender",
          "type": "address"
        },
        {
          "indexed": false,
          "internalType": "address",
          "name": "recipient",
          "type": "address"
        }
      ],
      "name": "Destroyed",
      "type": "event"
    },
    {
      "anonymous": false,
      "inputs": [
        {
          "indexed": false,
          "internalType": "address",
          "name": "sender",
          "type": "address"
        },
        {
          "indexed": false,
          "internalType": "uint256",
          "name": "amount",
          "type": "uint256"
        }
      ],
      "name": "FallbackEvent",
      "type": "event"
    },
    {
      "anonymous": false,
      "inputs": [
        {
          "indexed": true,
          "internalType": "address",
          "name": "_address",
          "type": "address"
        },
        {
          "indexed": true,
          "internalType": "uint256",
          "name": "_amount",
          "type": "uint256"
        },
        {
          "indexed": true,
          "internalType": "uint256",
          "name": "timestamp",
          "type": "uint256"
        }
      ],
      "name": "LogBorrowerChangeReturned",
      "type": "event"
    },
    {
      "anonymous": false,
      "inputs": [
        {
          "indexed": true,
          "internalType": "address",
          "name": "_address",
          "type": "address"
        },
        {
          "indexed": true,
          "internalType": "bool",
          "name": "fraudStatus",
          "type": "bool"
        },
        {
          "indexed": true,
          "internalType": "uint256",
          "name": "timestamp",
          "type": "uint256"
        }
      ],
      "name": "LogBorrowerIsFraud",
      "type": "event"
    },
    {
      "anonymous": false,
      "inputs": [
        {
          "indexed": true,
          "internalType": "address",
          "name": "_address",
          "type": "address"
        },
        {
          "indexed": true,
          "internalType": "uint256",
          "name": "timestamp",
          "type": "uint256"
        }
      ],
      "name": "LogBorrowerRepaymentFinished",
      "type": "event"
    },
    {
      "anonymous": false,
      "inputs": [
        {
          "indexed": true,
          "internalType": "address",
          "name": "_address",
          "type": "address"
        },
        {
          "indexed": true,
          "internalType": "uint256",
          "name": "_amount",
          "type": "uint256"
        },
        {
          "indexed": true,
          "internalType": "uint256",
          "name": "timestamp",
          "type": "uint256"
        }
      ],
      "name": "LogBorrowerRepaymentInstallment",
      "type": "event"
    },
    {
      "anonymous": false,
      "inputs": [
        {
          "indexed": true,
          "internalType": "address",
          "name": "_address",
          "type": "address"
        },
        {
          "indexed": true,
          "internalType": "uint256",
          "name": "_amount",
          "type": "uint256"
        },
        {
          "indexed": true,
          "internalType": "uint256",
          "name": "timestamp",
          "type": "uint256"
        }
      ],
      "name": "LogBorrowerWithdrawal",
      "type": "event"
    },
    {
      "anonymous": false,
      "inputs": [
        {
          "indexed": true,
          "internalType": "address",
          "name": "_address",
          "type": "address"
        },
        {
          "indexed": true,
          "internalType": "uint256",
          "name": "timestamp",
          "type": "uint256"
        }
      ],
      "name": "LogCreditInitialized",
      "type": "event"
    },
    {
      "anonymous": false,
      "inputs": [
        {
          "indexed": true,
          "internalType": "bool",
          "name": "active",
          "type": "bool"
        },
        {
          "indexed": true,
          "internalType": "uint256",
          "name": "timestamp",
          "type": "uint256"
        }
      ],
      "name": "LogCreditStateActiveChanged",
      "type": "event"
    },
    {
      "anonymous": false,
      "inputs": [
        {
          "indexed": true,
          "internalType": "enum Credit.State",
          "name": "state",
          "type": "uint8"
        },
        {
          "indexed": true,
          "internalType": "uint256",
          "name": "timestamp",
          "type": "uint256"
        }
      ],
      "name": "LogCreditStateChanged",
      "type": "event"
    },
    {
      "anonymous": false,
      "inputs": [
        {
          "indexed": true,
          "internalType": "address",
          "name": "_address",
          "type": "address"
        },
        {
          "indexed": true,
          "internalType": "uint256",
          "name": "_amount",
          "type": "uint256"
        },
        {
          "indexed": true,
          "internalType": "uint256",
          "name": "timestamp",
          "type": "uint256"
        }
      ],
      "name": "LogLenderChangeReturned",
      "type": "event"
    },
    {
      "anonymous": false,
      "inputs": [
        {
          "indexed": true,
          "internalType": "address",
          "name": "_address",
          "type": "address"
        },
        {
          "indexed": true,
          "internalType": "uint256",
          "name": "_amount",
          "type": "uint256"
        },
        {
          "indexed": true,
          "internalType": "uint256",
          "name": "timestamp",
          "type": "uint256"
        }
      ],
      "name": "LogLenderInvestment",
      "type": "event"
    },
    {
      "anonymous": false,
      "inputs": [
        {
          "indexed": true,
          "internalType": "address",
          "name": "_address",
          "type": "address"
        },
        {
          "indexed": true,
          "internalType": "uint256",
          "name": "_amount",
          "type": "uint256"
        },
        {
          "indexed": true,
          "internalType": "uint256",
          "name": "timestamp",
          "type": "uint256"
        }
      ],
      "name": "LogLenderRefunded",
      "type": "event"
    },
    {
      "anonymous": false,
      "inputs": [
        {
          "indexed": true,
          "internalType": "address",
          "name": "_address",
          "type": "address"
        },
        {
          "indexed": true,
          "internalType": "uint256",
          "name": "timestamp",
          "type": "uint256"
        }
      ],
      "name": "LogLenderVoteForFraud",
      "type": "event"
    },
    {
      "anonymous": false,
      "inputs": [
        {
          "indexed": true,
          "internalType": "address",
          "name": "_address",
          "type": "address"
        },
        {
          "indexed": true,
          "internalType": "uint256",
          "name": "timestamp",
          "type": "uint256"
        }
      ],
      "name": "LogLenderVoteForRevoking",
      "type": "event"
    },
    {
      "anonymous": false,
      "inputs": [
        {
          "indexed": true,
          "internalType": "address",
          "name": "_address",
          "type": "address"
        },
        {
          "indexed": true,
          "internalType": "uint256",
          "name": "_amount",
          "type": "uint256"
        },
        {
          "indexed": true,
          "internalType": "uint256",
          "name": "timestamp",
          "type": "uint256"
        }
      ],
      "name": "LogLenderWithdrawal",
      "type": "event"
    },
    {
      "anonymous": false,
      "inputs": [
        {
          "indexed": true,
          "internalType": "address",
          "name": "previousOwner",
          "type": "address"
        },
        {
          "indexed": true,
          "internalType": "address",
          "name": "newOwner",
          "type": "address"
        }
      ],
      "name": "OwnershipTransferred",
      "type": "event"
    },
    {
      "anonymous": false,
      "inputs": [
        {
          "indexed": false,
          "internalType": "address",
          "name": "sender",
          "type": "address"
        },
        {
          "indexed": false,
          "internalType": "uint256",
          "name": "amount",
          "type": "uint256"
        }
      ],
      "name": "ReceiveEvent",
      "type": "event"
    },
    {
      "anonymous": false,
      "inputs": [
        {
          "indexed": false,
          "internalType": "address",
          "name": "sender",
          "type": "address"
        },
        {
          "indexed": false,
          "internalType": "bytes",
          "name": "reason",
          "type": "bytes"
        }
      ],
      "name": "Started",
      "type": "event"
    },
    {
      "anonymous": false,
      "inputs": [
        {
          "indexed": false,
          "internalType": "address",
          "name": "sender",
          "type": "address"
        },
        {
          "indexed": false,
          "internalType": "bytes",
          "name": "reason",
          "type": "bytes"
        }
      ],
      "name": "Stopped",
      "type": "event"
    },
    {
      "anonymous": false,
      "inputs": [
        {
          "indexed": false,
          "internalType": "address",
          "name": "sender",
          "type": "address"
        },
        {
          "indexed": false,
          "internalType": "string",
          "name": "reason",
          "type": "string"
        }
      ],
      "name": "Termination",
      "type": "event"
    },
    {
      "stateMutability": "payable",
      "type": "fallback"
    },
    {
      "inputs": [],
      "name": "VERSION",
      "outputs": [
        {
          "internalType": "string",
          "name": "",
          "type": "string"
        }
      ],
      "stateMutability": "view",
      "type": "function"
    },
    {
      "inputs": [],
      "name": "WAIT",
      "outputs": [
        {
          "internalType": "uint256",
          "name": "",
          "type": "uint256"
        }
      ],
      "stateMutability": "view",
      "type": "function"
    },
    {
      "inputs": [],
      "name": "destroy",
      "outputs": [],
      "stateMutability": "nonpayable",
      "type": "function"
    },
    {
      "inputs": [
        {
          "internalType": "address",
          "name": "_recipient",
          "type": "address"
        }
      ],
      "name": "destroyAndSend",
      "outputs": [],
      "stateMutability": "nonpayable",
      "type": "function"
    },
    {
      "inputs": [],
      "name": "getOwner",
      "outputs": [
        {
          "internalType": "address",
          "name": "",
          "type": "address"
        }
      ],
      "stateMutability": "payable",
      "type": "function"
    },
    {
      "inputs": [
        {
          "internalType": "address",
          "name": "",
          "type": "address"
        }
      ],
      "name": "lenders",
      "outputs": [
        {
          "internalType": "bool",
          "name": "",
          "type": "bool"
        }
      ],
      "stateMutability": "view",
      "type": "function"
    },
    {
      "inputs": [],
      "name": "renounceOwnership",
      "outputs": [],
      "stateMutability": "payable",
      "type": "function"
    },
    {
      "inputs": [
        {
          "internalType": "address",
          "name": "newOwner",
          "type": "address"
        }
      ],
      "name": "transferOwnership",
      "outputs": [],
      "stateMutability": "payable",
      "type": "function"
    },
    {
      "stateMutability": "payable",
      "type": "receive"
    },
    {
      "inputs": [],
      "name": "getBalance",
      "outputs": [
        {
          "internalType": "uint256",
          "name": "",
          "type": "uint256"
        }
      ],
      "stateMutability": "view",
      "type": "function"
    },
    {
      "inputs": [],
      "name": "invest",
      "outputs": [],
      "stateMutability": "payable",
      "type": "function"
    },
    {
      "inputs": [],
      "name": "repay",
      "outputs": [],
      "stateMutability": "payable",
      "type": "function"
    },
    {
      "inputs": [],
      "name": "withdraw",
      "outputs": [],
      "stateMutability": "nonpayable",
      "type": "function"
    },
    {
      "inputs": [],
      "name": "requestInterest",
      "outputs": [],
      "stateMutability": "nonpayable",
      "type": "function"
    },
    {
      "inputs": [],
      "name": "getCreditInfo",
      "outputs": [
        {
          "internalType": "address",
          "name": "",
          "type": "address"
        },
        {
          "internalType": "bytes32",
          "name": "",
          "type": "bytes32"
        },
        {
          "internalType": "uint256",
          "name": "",
          "type": "uint256"
        },
        {
          "internalType": "uint256",
          "name": "",
          "type": "uint256"
        },
        {
          "internalType": "uint256",
          "name": "",
          "type": "uint256"
        },
        {
          "internalType": "uint256",
          "name": "",
          "type": "uint256"
        },
        {
          "internalType": "uint256",
          "name": "",
          "type": "uint256"
        },
        {
          "internalType": "uint256",
          "name": "",
          "type": "uint256"
        },
        {
          "internalType": "enum Credit.State",
          "name": "",
          "type": "uint8"
        },
        {
          "internalType": "bool",
          "name": "",
          "type": "bool"
        },
        {
          "internalType": "uint256",
          "name": "",
          "type": "uint256"
        }
      ],
      "stateMutability": "view",
      "type": "function"
    },
    {
      "inputs": [],
      "name": "revokeVote",
      "outputs": [],
      "stateMutability": "nonpayable",
      "type": "function"
    },
    {
      "inputs": [],
      "name": "refund",
      "outputs": [],
      "stateMutability": "nonpayable",
      "type": "function"
    },
    {
      "inputs": [],
      "name": "fraudVote",
      "outputs": [
        {
          "internalType": "bool",
          "name": "",
          "type": "bool"
        }
      ],
      "stateMutability": "nonpayable",
      "type": "function"
    },
    {
      "inputs": [
        {
          "internalType": "enum Credit.State",
          "name": "_state",
          "type": "uint8"
        }
      ],
      "name": "changeState",
      "outputs": [
        {
          "internalType": "enum Credit.State",
          "name": "",
          "type": "uint8"
        }
      ],
      "stateMutability": "nonpayable",
      "type": "function"
    },
    {
      "inputs": [],
      "name": "toggleActive",
      "outputs": [
        {
          "internalType": "bool",
          "name": "",
          "type": "bool"
        }
      ],
      "stateMutability": "nonpayable",
      "type": "function"
    }
  ],
  "bytecode": "0x6080604052600060018181556003805460ff1916905560118290556012919091556200002d90429062000262565b60145560006015553480156200004257600080fd5b5060405162001d2b38038062001d2b83398101604081905262000065916200029d565b60008054600160a060020a031916339081178255426001556040519091907f8be0079c531659141344cd1fd0a4f28419497f9722a3daafe3b4186f6b6457e0908290a36003805461010060a860020a03191632610100021790556007829055600484905560088390556009839055620000ed8483640100000000620001638102620014021704565b60058190556008546200010f919064010000000062001463620001e182021704565b600a55600d81905542600b819055600354604051610100909104600160a060020a0316907ff9f75c99c0e3522cd19ffc66fd6c94989a3f0821d37d5c5bb176aab904c6335d90600090a350505050620002d4565b600082820183811015620001d8576040517f08c379a000000000000000000000000000000000000000000000000000000000815260206004820152601b60248201527f536166654d6174683a206164646974696f6e206f766572666c6f77000000000060448201526064015b60405180910390fd5b90505b92915050565b60008082116200024e576040517f08c379a000000000000000000000000000000000000000000000000000000000815260206004820152601a60248201527f536166654d6174683a206469766973696f6e206279207a65726f0000000000006044820152606401620001cf565b6000826200025b57600080fd5b5050900490565b80820180821115620001db577f4e487b7100000000000000000000000000000000000000000000000000000000600052601160045260246000fd5b60008060008060808587031215620002b457600080fd5b505082516020840151604085015160609095015191969095509092509050565b611a4780620002e46000396000f3fe6080604052600436106100eb5760e060020a600035046312065fe081146101b2578063268f1153146101d557806328fd10d71461020257806329c68dc1146102425780633ccfd60b14610257578063402d88831461026e57806343c14b2214610276578063590e1ae31461028b578063715018a6146102a057806383197ef0146102a8578063893d20e8146102bd578063b8fb3a51146102dd578063d85da7b6146102f2578063e8b5e51f14610307578063efd475ab1461030f578063f06817cf14610324578063f2fde38b14610350578063f5074f4114610363578063ffa1ad74146103835761012b565b3661012b577fcc85d09d309785db93d6df19917f2e6cc07fe27cd01c08c8279145deb5cf45263334604051610121929190611610565b60405180910390a1005b3233146101815760405160e560020a62461bcd0281526020600482015260196024820152603860020a787068697368696e672061747461636b2064657465637465643f0260448201526064015b60405180910390fd5b7f26875833861a2b006512a11f1b86edf95df96131040f3caeed72989ee98580833334604051610121929190611610565b3480156101be57600080fd5b5030315b6040519081526020015b60405180910390f35b3480156101e157600080fd5b506101f56101f0366004611629565b6103c9565b6040516101cc919061168a565b34801561020e57600080fd5b5061023261021d366004611698565b600f6020526000908152604090205460ff1681565b60405190151581526020016101cc565b34801561024e57600080fd5b50610232610456565b34801561026357600080fd5b5061026c6104db565b005b61026c610682565b34801561028257600080fd5b5061026c6108ca565b34801561029757600080fd5b5061026c610a54565b61026c610c18565b3480156102b457600080fd5b5061026c610c7d565b6102c5610cda565b604051600160a060020a0390911681526020016101cc565b3480156102e957600080fd5b506101c2601e81565b3480156102fe57600080fd5b50610232610d50565b61026c610e71565b34801561031b57600080fd5b5061026c61103f565b34801561033057600080fd5b50610339611244565b6040516101cc9b9a999897969594939291906116c1565b61026c61035e366004611698565b6112ca565b34801561036f57600080fd5b5061026c61037e366004611698565b6113ab565b34801561038f57600080fd5b506103bc6040518060400160405280600a815260200160b060020a69312e362e342d626574610281525081565b6040516101cc9190611729565b60008054600160a060020a031633146103f75760405160e560020a62461bcd02815260040161017890611777565b600e805483919060ff191660018360058111156104165761041661164a565b0217905550600e54429060ff1660058111156104345761043461164a565b60405160008051602061199283398151915290600090a35050600e5460ff1690565b60008054600160a060020a031633146104845760405160e560020a62461bcd02815260040161017890611777565b60035460ff161561049c576104976114ca565b6104a4565b6104a4611509565b426104b160035460ff1690565b604051901515906000805160206119b283398151915290600090a35060035460ff1690565b905090565b60035460ff166105005760405160e560020a62461bcd028152600401610178906117ae565b6003546101009004600160a060020a031633146105325760405160e560020a62461bcd028152600401610178906117e5565b600454303110156105885760405160e560020a62461bcd02815260206004820181905260248201527f72657175657374656420616d6f756e7420657863656564732062616c616e63656044820152606401610178565b6005600e5460ff1660058111156105a1576105a161164a565b036105e55760405160e560020a62461bcd02815260206004820152600e6024820152609260020a6d199c985d590819195d1958dd1959026044820152606401610178565b600e805460ff19166001908117909155429060405160008051602061199283398151915290600090a3604051429030319033907f20734f14d107b526674905e470e35d0a474f9fb996a7bdb034c839c8894524e690600090a4600354604051600160a060020a036101009092049190911690303180156108fc02916000818181858888f1935050505015801561067f573d6000803e3d6000fd5b50565b6003546101009004600160a060020a031633146106b45760405160e560020a62461bcd028152600401610178906117e5565b6001600e5460ff1660058111156106cd576106cd61164a565b1461070f5760405160e560020a62461bcd02815260206004820152600c602482015260a060020a6b63616e6e6f74207265706179026044820152606401610178565b60006009541161071e57600080fd5b600a5434101561072d57600080fd5b6005546006541061074057610740611810565b6009805490600061075083611844565b909155505042600c55600a546000903411156107fc5761077234600a5461154b565b905061077e348261154b565b600a541461078e5761078e611810565b3481111561079e5761079e611810565b604051339082156108fc029083906000818181858888f193505050501580156107cb573d6000803e3d6000fd5b506040514290829033907f5c9874487a2258c6bd6dc39a2cfcf7ea944b50b79d9a7152668779687b2ebd8d90600090a45b42610807348361154b565b60405133907f350a09487d622378c6efbda255f996387696319f803a2e53eee64f7aa70be85a90600090a461084761084160065434611402565b8261154b565b6006819055600554900361067f57604051429033907f25630de45a38a90cbca3a2eb35a8197e51b56d6d912581711e5e3773fe77cabc90600090a3600e80546002919060ff19166001835b0217905550600e54429060ff1660058111156108b0576108b061164a565b60405160008051602061199283398151915290600090a350565b60035460ff166108ef5760405160e560020a62461bcd028152600401610178906117ae565b6014544210156109415760405160e560020a62461bcd0281526020600482015260176024820152604a60020a761c995d9bd8d85d1a5bdb881d1a5b5948195e1c1a5c9959026044820152606401610178565b6000600e5460ff16600581111561095a5761095a61164a565b146109a25760405160e560020a62461bcd0281526020600482015260126024820152607260020a711b9bdd08185b881a5b9d99595cdd1b595b9d026044820152606401610178565b336000908152600f602052604090205460ff1615156001146109d95760405160e560020a62461bcd0281526004016101789061185b565b3360009081526013602052604090205460ff16156109f657600080fd5b60128054906000610a0683611884565b909155505033600081815260136020526040514292917fd7173ce7e4ce6f6d075259ac1a467ab8290db175a2cee8587a663c006b97e12991a360125460115403610a5257610a526115b2565b565b60035460ff16610a795760405160e560020a62461bcd028152600401610178906117ae565b336000908152600f602052604090205460ff161515600114610ab05760405160e560020a62461bcd0281526004016101789061185b565b6004600e5460ff166005811115610ac957610ac961164a565b14610b065760405160e560020a62461bcd028152602060048201526007602482015260ca60020a661c995d9bdad959026044820152606401610178565b3360009081526010602052604090205430311015610b2657610b26611810565b3360008181526010602052604080822054905181156108fc0292818181858888f19350505050158015610b5d573d6000803e3d6000fd5b5033600081815260106020526040808220549051429391927f71e252e33f19f0223f47f27d00910548d26488b9b55cb5b410b75e273152f8d691a43031600003610a5257610ba96114ca565b42610bb660035460ff1690565b604051901515906000805160206119b283398151915290600090a3600e80546003919060ff19166001835b0217905550600e54429060ff166005811115610bff57610bff61164a565b60405160008051602061199283398151915290600090a3565b600054600160a060020a03163314610c455760405160e560020a62461bcd0281526004016101789061189d565b60008054604051600160a060020a03909116906000805160206119f2833981519152908390a360008054600160a060020a0319169055565b600054600160a060020a03163314610caa5760405160e560020a62461bcd02815260040161017890611777565b6000805160206119d283398151915233610cc2610cda565b604051610cd09291906118d1565b60405180910390a1565b6000601e600154610ceb91906118eb565b4211610d0c5760405160e560020a62461bcd028152600401610178906118fe565b601e600154610d1b91906118eb565b4211610d3c5760405160e560020a62461bcd028152600401610178906118fe565b5042600155600054600160a060020a031690565b60035460009060ff16610d785760405160e560020a62461bcd028152600401610178906117ae565b336000908152600f602052604090205460ff161515600114610daf5760405160e560020a62461bcd0281526004016101789061185b565b3360009081526016602052604090205460ff1615610e0f5760405160e560020a62461bcd0281526020600482015260176024820152604960020a763137b93937bbb2b91034b9903090333930bab239ba32b9026044820152606401610178565b60158054906000610e1f83611884565b909155505033600081815260166020526040514292917f1db613004119dde2a638b639fba9960c0e6064ee7c2d06f300e41c78920ed6dc91a360155460115403610e6b576104d66115c6565b50600190565b6000600e5460ff166005811115610e8a57610e8a61164a565b14610ecd5760405160e560020a62461bcd02815260206004820152600d6024820152609a60020a6c18d85b9b9bdd081a5b9d995cdd026044820152606401610178565b600454600090303110610fab57610ef030600160a060020a03163160045461154b565b9050610efd30318261154b565b60045414610f0d57610f0d611810565b34811115610f1d57610f1d611810565b8015610f8157604051339082156108fc029083906000818181858888f19350505050158015610f50573d6000803e3d6000fd5b506040514290829033907f566803f6e271b911c84f87631bcd310d6a6510bf8882577a96fc76975703e43190600090a45b600e805460ff19166001908117909155429060405160008051602061199283398151915290600090a35b336000908152600f60205260408120805460ff191660011790556011805491610fd383611884565b909155505033600090815260106020526040902054610ff6906108419034611402565b3360009081526010602052604090205542611011348361154b565b60405133907f1b0969ce7f5b05c5e0969329a05cdbd7e2e2f6cee33ba26fd6e6bbcff82312cd90600090a450565b60035460ff166110645760405160e560020a62461bcd028152600401610178906117ae565b336000908152600f602052604090205460ff16151560011461109b5760405160e560020a62461bcd0281526004016101789061185b565b6002600e5460ff1660058111156110b4576110b461164a565b146111015760405160e560020a62461bcd0281526020600482015260176024820152604860020a76696e746572657374206973206e6f742070617961626c65026044820152606401610178565b336000908152601060205260409020546111755760405160e560020a62461bcd02815260206004820152602960248201527f696e76657374656420616d6f756e74206d757374206265206772656174657220604482015260b860020a687468616e207a65726f026064820152608401610178565b6000601154600554611187919061192b565b9050303181111561119a5761119a611810565b604051339082156108fc029083906000818181858888f193505050501580156111c7573d6000803e3d6000fd5b506040514290829033907f052f6685df2f773f854b17db1d82e2352e222010daaf8175761f02ef8782c40390600090a4303160000361067f576112086114ca565b4261121560035460ff1690565b604051901515906000805160206119b283398151915290600090a3600e80546003919060ff1916600183610892565b6000806000806000806000806000806000600360019054906101000a9004600160a060020a0316600d54600454600854600a54600954600754600554600e60009054906101000a900460ff1661129c60035460ff1690565b30600160a060020a0316319a509a509a509a509a509a509a509a509a509a509a50909192939495969798999a565b600054600160a060020a031633146112f75760405160e560020a62461bcd0281526004016101789061189d565b600160a060020a0381166113625760405160e560020a62461bcd02815260206004820152602660248201527f4f776e61626c653a206e6577206f776e657220697320746865207a65726f2061604482015260d060020a65646472657373026064820152608401610178565b60008054604051600160a060020a03808516939216916000805160206119f283398151915291a360008054600160a060020a031916600160a060020a0392909216919091179055565b600054600160a060020a031633146113d85760405160e560020a62461bcd02815260040161017890611777565b6000805160206119d283398151915233826040516113f79291906118d1565b60405180910390a150565b60008282018381101561145a5760405160e560020a62461bcd02815260206004820152601b60248201527f536166654d6174683a206164646974696f6e206f766572666c6f7700000000006044820152606401610178565b90505b92915050565b60008082116114b75760405160e560020a62461bcd02815260206004820152601a60248201527f536166654d6174683a206469766973696f6e206279207a65726f0000000000006044820152606401610178565b6000826114c357600080fd5b5050900490565b6003805460ff191690556040517fc161c5a84c30bc51746f28a7736664d7dae3f0fad3d92e4bb813d68bad76ec2190610cd09033906000903690611951565b6003805460ff191660011790556040517f33c68eeb60b17ccd4973bd4579ebb2e6156ecfd1defb9e8be822e959cca0253e90610cd09033906000903690611951565b6000828211156115a05760405160e560020a62461bcd02815260206004820152601e60248201527f536166654d6174683a207375627472616374696f6e206f766572666c6f7700006044820152606401610178565b81830382198401811461145a57600080fd5b600e80546004919060ff1916600183610be1565b60035460405160009160019142918391610100909104600160a060020a0316907fc1bb1d1e99d1e8d2705ba85717226a3fd9a86e4de2284b00dfe6f33538d5249f908690a4919050565b600160a060020a03929092168252602082015260400190565b60006020828403121561163b57600080fd5b81356006811061145a57600080fd5b60e060020a634e487b710260009081526021600452602490fd5b600681106116865760e060020a634e487b710260009081526021600452602490fd5b9052565b6020810161145d8284611664565b6000602082840312156116aa57600080fd5b8135600160a060020a038116811461145a57600080fd5b600061016082019050600160a060020a038d1682528b60208301528a60408301528960608301528860808301528760a08301528660c08301528560e083015261170e610100830186611664565b92151561012082015261014001529998505050505050505050565b600060208083528351808285015260005b818110156117565785810183015185820160400152820161173a565b506000604082860101526040601f19601f8301168501019250505092915050565b6020808252601b908201527f756e617574686f72697a65642c206e6f7420746865206f776e65720000000000604082015260600190565b6020808252601c908201527f636f6e74726163742061637469766974792069732066726f7a656e2100000000604082015260600190565b6020808252600e90820152609160020a6d3737ba1030903137b93937bbb2b902604082015260600190565b60e060020a634e487b710260009081526001600452602490fd5b60e060020a634e487b710260009081526011600452602490fd5b6000816118535761185361182a565b506000190190565b6020808252600c9082015260a160020a6b3737ba1030903632b73232b902604082015260600190565b6000600182016118965761189661182a565b5060010190565b6020808252601790820152604960020a7630b1b1b2b9b9903232b734b2b2103337b91037bbb732b902604082015260600190565b600160a060020a0392831681529116602082015260400190565b8082018082111561145d5761145d61182a565b6020808252601090820152608160020a6f3930ba32903634b6b4ba1032b93937b902604082015260600190565b60008261194c5760e060020a634e487b710260009081526012600452602490fd5b500490565b600160a060020a03841681526040602082018190528101829052818360608301376000818301606090810191909152601f909201601f191601019291505056feaaae373901e745122c2e0925ad006227969c6cd190b7d5ea2fb7fdbd1d955b35160914ea27c60aa29a5f3a69d74e6069869de36e38939de1e0a66b921d8623d291ca00fdf29069527d658f8dfc6d1c0bf9861780bb45ff36436f938d3595a8d68be0079c531659141344cd1fd0a4f28419497f9722a3daafe3b4186f6b6457e0a26469706673582212201d0ca78a9efa9743cb80c0fb32bfa25b5c2208bb6eeaeb123e89ce9dbfdb020464736f6c63430008120033",
  "immutableReferences": {},
  "source": "// SPDX-License-Identifier: CC-BY-4.0\r\npragma solidity >=0.4.22 <0.9.0;\r\n\r\nimport \"../../common/Version.sol\";\r\nimport \"../../common/Frozen.sol\";\r\nimport \"../../libs/SafeMath.sol\";\r\n\r\ncontract Credit is Version, Frozen {\r\n    // Using SafeMath for our calculations with uints.\r\n    using SafeMath for uint;\r\n\r\n    /** @dev State variables */\r\n    // Borrower is the person who generated the credit contract.\r\n    address borrower;\r\n\r\n    // Amount requested to be funded (in wei).\r\n    uint requestedAmount;\r\n\r\n    // Amount that will be returned by the borrower (including the interest).\r\n    uint returnAmount;\r\n\r\n    // Currently repaid amount.\r\n    uint repaidAmount;\r\n\r\n    // Credit interest.\r\n    uint interest;\r\n\r\n    // Requested number of repayment installments.\r\n    uint requestedRepayments;\r\n\r\n    // Remaining repayment installments.\r\n    uint remainingRepayments;\r\n\r\n    // The value of the repayment installment.\r\n    uint repaymentInstallment;\r\n\r\n    // The timestamp of credit creation.\r\n    uint requestedDate;\r\n\r\n    // The timestamp of last repayment date.\r\n    uint lastRepaymentDate;\r\n\r\n    // Description of the credit.\r\n    bytes32 description;\r\n\r\n\r\n    /** Stages that every credit contract gets trough.\r\n      *   investment - During this state only investments are allowed.\r\n      *   repayment - During this stage only repayments are allowed.\r\n      *   interestReturns - This stage gives investors opportunity to request their returns.\r\n      *   expired - This is the stage when the contract is finished its purpose.\r\n      *   fraud - The borrower was marked as fraud.\r\n    */\r\n    enum State { investment, repayment, interestReturns, expired, revoked, fraud }\r\n    State state;\r\n\r\n    // Storing the lenders for this credit.\r\n    mapping(address => bool) public lenders;\r\n\r\n    // Storing the invested amount by each lender.\r\n    mapping(address => uint) lendersInvestedAmount;\r\n\r\n    // Store the lenders count, later needed for revoke vote.\r\n    uint lendersCount = 0;\r\n\r\n    // Revoke votes count.\r\n    uint revokeVotes = 0;\r\n\r\n    // Revoke voters.\r\n    mapping(address => bool) revokeVoters;\r\n\r\n    // Time needed for a revoke voting to start.\r\n    // To be changed in production accordingly.\r\n    uint revokeTimeNeeded = block.timestamp + 1 seconds;\r\n\r\n    // Revoke votes count.\r\n    uint fraudVotes = 0;\r\n\r\n    // Revoke voters.\r\n    mapping(address => bool) fraudVoters;\r\n\r\n\r\n    /** @dev Events\r\n    *\r\n    */\r\n    event LogCreditInitialized(address indexed _address, uint indexed timestamp);\r\n    event LogCreditStateChanged(State indexed state, uint indexed timestamp);\r\n    event LogCreditStateActiveChanged(bool indexed active, uint indexed timestamp);\r\n\r\n    event LogBorrowerWithdrawal(address indexed _address, uint indexed _amount, uint indexed timestamp);\r\n    event LogBorrowerRepaymentInstallment(address indexed _address, uint indexed _amount, uint indexed timestamp);\r\n    event LogBorrowerRepaymentFinished(address indexed _address, uint indexed timestamp);\r\n    event LogBorrowerChangeReturned(address indexed _address, uint indexed _amount, uint indexed timestamp);\r\n    event LogBorrowerIsFraud(address indexed _address, bool indexed fraudStatus, uint indexed timestamp);\r\n\r\n    event LogLenderInvestment(address indexed _address, uint indexed _amount, uint indexed timestamp);\r\n    event LogLenderWithdrawal(address indexed _address, uint indexed _amount, uint indexed timestamp);\r\n    event LogLenderChangeReturned(address indexed _address, uint indexed _amount, uint indexed timestamp);\r\n    event LogLenderVoteForRevoking(address indexed _address, uint indexed timestamp);\r\n    event LogLenderVoteForFraud(address indexed _address, uint indexed timestamp);\r\n    event LogLenderRefunded(address indexed _address, uint indexed _amount, uint indexed timestamp);\r\n\r\n    /** @dev Modifiers\r\n    *\r\n    */\r\n    modifier onlyBorrower() {\r\n        require(msg.sender == borrower,\"not a borrower\");\r\n        _;\r\n    }\r\n\r\n    modifier onlyLender() {\r\n        require(lenders[msg.sender] == true,\"not a lender\");\r\n        _;\r\n    }\r\n\r\n    modifier canAskForInterest() {\r\n        require(state == State.interestReturns,\"interest is not payable\");\r\n        require(lendersInvestedAmount[msg.sender] > 0,\"invested amount must be greater than zero\");\r\n        _;\r\n    }\r\n\r\n    modifier canInvest() {\r\n        require(state == State.investment,\"cannot invest\");\r\n        _;\r\n    }\r\n\r\n    modifier canRepay() {\r\n        require(state == State.repayment,\"cannot repay\");\r\n        _;\r\n    }\r\n\r\n    modifier canWithdraw() {\r\n        require(address(this).balance >= requestedAmount,\"requested amount exceeds balance\");\r\n        _;\r\n    }\r\n\r\n    modifier isNotFraud() {\r\n        require(state != State.fraud,\"fraud detected\");\r\n        _;\r\n    }\r\n\r\n    modifier isRevokable() {\r\n        require(block.timestamp >= revokeTimeNeeded,\"revocation time expired\");\r\n        require(state == State.investment,\"not an inveestment\");\r\n        _;\r\n    }\r\n\r\n    modifier isRevoked() {\r\n        require(state == State.revoked,\"revoked\");\r\n        _;\r\n    }\r\n\r\n    /** @dev Constructor.\r\n      * @param _requestedAmount Requested credit amount (in wei).\r\n      * @param _requestedRepayments Requested number of repayments.\r\n      * @param _description Credit description.\r\n      */\r\n    constructor(uint _requestedAmount, uint _requestedRepayments, uint _interest, bytes32 _description) {\r\n\r\n        /** Set the borrower of the contract to the tx.origin\r\n          * We are using tx.origin, because the contract is going to be published\r\n          * by the main contract and msg.sender will break our logic.\r\n        */\r\n        borrower = tx.origin;\r\n\r\n        // Set the interest for the credit.\r\n        interest = _interest;\r\n\r\n        // Set the requested amount.\r\n        requestedAmount = _requestedAmount;\r\n\r\n        // Set the requested repayments.\r\n        requestedRepayments = _requestedRepayments;\r\n\r\n        /** Set the remaining repayments.\r\n          * Initially this is equal to the requested repayments.\r\n          */\r\n        remainingRepayments = _requestedRepayments;\r\n\r\n        /** Calculate the amount to be returned by the borrower.\r\n          * At this point this is the addition of the requested amount and the interest.\r\n          */\r\n        returnAmount = SafeMath.safeAdd(requestedAmount,interest);\r\n\r\n        /** Calculating the repayment installment.\r\n          * We divide the amount to be returned by the requested repayments count to get it.\r\n          */\r\n        repaymentInstallment = SafeMath.safeDiv(returnAmount,requestedRepayments);\r\n\r\n        // Set the credit description.\r\n        description = _description;\r\n\r\n        // Set the initialization date.\r\n        requestedDate = block.timestamp;\r\n\r\n        // Log credit initialization.\r\n        emit LogCreditInitialized(borrower, block.timestamp);\r\n    }\r\n\r\n    /** @dev Get current balance.\r\n      * @return address(this).balance.\r\n      */\r\n    function getBalance() public view returns (uint256) {\r\n        return address(this).balance;\r\n    }\r\n\r\n    /** @dev Invest function.\r\n      * Provides functionality for person to invest in someone's credit,\r\n      * incentivised by the return of interest.\r\n      */\r\n    function invest() public canInvest payable {\r\n        // Initialize an memory variable for the extra money that may have been sent.\r\n        uint extraMoney = 0;\r\n\r\n        // Check if contract balance is reached the requested amount.\r\n        if (address(this).balance >= requestedAmount) {\r\n\r\n            // Calculate the extra money that may have been sent.\r\n            extraMoney = SafeMath.safeSub(address(this).balance,requestedAmount);\r\n\r\n            // Assert the calculations\r\n            assert(requestedAmount == SafeMath.safeSub(address(this).balance,extraMoney));\r\n\r\n            // Assert for possible underflow / overflow\r\n            assert(extraMoney <= msg.value);\r\n\r\n            // Check if extra money is greater than 0 wei.\r\n            if (extraMoney > 0) {\r\n                // Return the extra money to the sender.\r\n                payable(msg.sender).transfer(extraMoney);\r\n\r\n                // Log change returned.\r\n                emit LogLenderChangeReturned(msg.sender, extraMoney, block.timestamp);\r\n            }\r\n\r\n            // Set the contract state to repayment.\r\n            state = State.repayment;\r\n\r\n            // Log state change.\r\n            emit LogCreditStateChanged(state, block.timestamp);\r\n        }\r\n\r\n        /** Add the investor to the lenders mapping.\r\n          * So that we know he invested in this contract.\r\n          */\r\n        lenders[msg.sender] = true;\r\n\r\n        // Increment the lenders count.\r\n        lendersCount++;\r\n\r\n        // Add the amount invested to the amount mapping.\r\n        lendersInvestedAmount[msg.sender] = SafeMath.safeSub(SafeMath.safeAdd(lendersInvestedAmount[msg.sender],msg.value),extraMoney);\r\n\r\n        // Log lender invested amount.\r\n        emit LogLenderInvestment(msg.sender, SafeMath.safeSub(msg.value,extraMoney), block.timestamp);\r\n    }\r\n\r\n    /** @dev Repayment function.\r\n      * Allows borrower to make repayment installments.\r\n      */\r\n    function repay() public onlyBorrower canRepay payable {\r\n        // The remaining repayments should be greater than 0 to continue.\r\n        require(remainingRepayments > 0);\r\n\r\n        // The value sent should be greater than the repayment installment.\r\n        require(msg.value >= repaymentInstallment);\r\n\r\n        /** Assert that the amount to be returned is greater\r\n          * than the sum of repayments made until now.\r\n          * Otherwise the credit is already repaid.\r\n          */\r\n        assert(repaidAmount < returnAmount);\r\n\r\n        // Decrement the remaining repayments.\r\n        remainingRepayments--;\r\n\r\n        // Update last repayment date.\r\n        lastRepaymentDate = block.timestamp;\r\n\r\n        // Initialize an memory variable for the extra money that may have been sent.\r\n        uint extraMoney = 0;\r\n\r\n        /** Check if the value (in wei) that is being sent is greather than the repayment installment.\r\n          * In this case we should return the change to the msg.sender.\r\n          */\r\n        if (msg.value > repaymentInstallment) {\r\n\r\n            // Calculate the extra money being sent in the transaction.\r\n            extraMoney = SafeMath.safeSub(msg.value,repaymentInstallment);\r\n\r\n            // Assert the calculations.\r\n            assert(repaymentInstallment == SafeMath.safeSub(msg.value,extraMoney));\r\n\r\n            // Assert for underflow.\r\n            assert(extraMoney <= msg.value);\r\n\r\n            // Return the change/extra money to the msg.sender.\r\n            payable(msg.sender).transfer(extraMoney);\r\n\r\n            // Log the return of the extra money.\r\n            emit LogBorrowerChangeReturned(msg.sender, extraMoney, block.timestamp);\r\n        }\r\n\r\n        // Log borrower installment received.\r\n        emit LogBorrowerRepaymentInstallment(msg.sender, SafeMath.safeSub(msg.value,extraMoney), block.timestamp);\r\n\r\n        // Add the repayment installment amount to the total repaid amount.\r\n        repaidAmount = SafeMath.safeSub(SafeMath.safeAdd(repaidAmount,msg.value),extraMoney);\r\n\r\n        // Check the repaid amount reached the amount to be returned.\r\n        if (repaidAmount == returnAmount) {\r\n\r\n            // Log credit repaid.\r\n            emit LogBorrowerRepaymentFinished(msg.sender, block.timestamp);\r\n\r\n            // Set the credit state to \"returning interests\".\r\n            state = State.interestReturns;\r\n\r\n            // Log state change.\r\n            emit LogCreditStateChanged(state, block.timestamp);\r\n        }\r\n    }\r\n\r\n    /** @dev Withdraw function.\r\n      * It can only be executed while contract is in active state.\r\n      * It is only accessible to the borrower.\r\n      * It is only accessible if the needed amount is gathered in the contract.\r\n      * It can only be executed once.\r\n      * Transfers the gathered amount to the borrower.\r\n      */\r\n    function withdraw() public isRunning onlyBorrower canWithdraw isNotFraud {\r\n        // Set the state to repayment so we can avoid reentrancy.\r\n        state = State.repayment;\r\n\r\n        // Log state change.\r\n        emit LogCreditStateChanged(state, block.timestamp);\r\n\r\n        // Log borrower withdrawal.\r\n        emit LogBorrowerWithdrawal(msg.sender, address(this).balance, block.timestamp);\r\n\r\n        // Transfer the gathered amount to the credit borrower.\r\n        payable(borrower).transfer(address(this).balance);\r\n    }\r\n\r\n    /** @dev Request interest function.\r\n      * It can only be executed while contract is in active state.\r\n      * It is only accessible to lenders.\r\n      * It is only accessible if lender funded 1 or more wei.\r\n      * It can only be executed once.\r\n      * Transfers the lended amount + interest to the lender.\r\n      */\r\n    function requestInterest() public isRunning onlyLender canAskForInterest {\r\n\r\n        // Calculate the amount to be returned to lender.\r\n//        uint lenderReturnAmount = lendersInvestedAmount[msg.sender].mul(returnAmount.div(lendersCount).div(lendersInvestedAmount[msg.sender]));\r\n        uint lenderReturnAmount = returnAmount / lendersCount;\r\n\r\n        // Assert the contract has enough balance to pay the lender.\r\n        assert(address(this).balance >= lenderReturnAmount);\r\n\r\n        // Transfer the return amount with interest to the lender.\r\n        payable(msg.sender).transfer(lenderReturnAmount);\r\n\r\n        // Log the transfer to lender.\r\n        emit LogLenderWithdrawal(msg.sender, lenderReturnAmount, block.timestamp);\r\n\r\n        // Check if the contract balance is drawned.\r\n        if (address(this).balance == 0) {\r\n\r\n            // Set the active state to false.\r\n            stop();\r\n\r\n            // Log active state change.\r\n            emit LogCreditStateActiveChanged(status(), block.timestamp);\r\n\r\n            // Set the contract stage to expired e.g. its lifespan is over.\r\n            state = State.expired;\r\n\r\n            // Log state change.\r\n            emit LogCreditStateChanged(state, block.timestamp);\r\n        }\r\n    }\r\n\r\n    /** @dev Function to get the whole credit information.\r\n      * @return borrower\r\n      * @return description\r\n      * @return requestedAmount\r\n      * @return requestedRepayments\r\n      * @return remainingRepayments\r\n      * @return interest\r\n      * @return returnAmount\r\n      * @return state\r\n      * @return active\r\n      * @return address(this).balance\r\n      */\r\n    function getCreditInfo() public view returns (address, bytes32, uint, uint, uint, uint, uint, uint, State, bool, uint) {\r\n        return (\r\n        borrower,\r\n        description,\r\n        requestedAmount,\r\n        requestedRepayments,\r\n        repaymentInstallment,\r\n        remainingRepayments,\r\n        interest,\r\n        returnAmount,\r\n        state,\r\n        status(),\r\n        address(this).balance\r\n        );\r\n    }\r\n\r\n    /** @dev Function for revoking the credit.\r\n      */\r\n    function revokeVote() public isRunning isRevokable onlyLender {\r\n        // Require only one vote per lender.\r\n        require(revokeVoters[msg.sender] == false);\r\n\r\n        // Increment the revokeVotes.\r\n        revokeVotes++;\r\n\r\n        // Note the lender has voted.\r\n        revokeVoters[msg.sender] == true;\r\n\r\n        // Log lender vote for revoking the credit contract.\r\n        emit LogLenderVoteForRevoking(msg.sender, block.timestamp);\r\n\r\n        // If the consensus is reached.\r\n        if (lendersCount == revokeVotes) {\r\n            // Call internal revoke function.\r\n            revoke();\r\n        }\r\n    }\r\n\r\n    /** @dev Revoke internal function.\r\n      */\r\n    function revoke() internal {\r\n        // Change the state to revoked.\r\n        state = State.revoked;\r\n\r\n        // Log credit revoked.\r\n        emit LogCreditStateChanged(state, block.timestamp);\r\n    }\r\n\r\n    /** @dev Function for refunding people. */\r\n    function refund() public isRunning onlyLender isRevoked {\r\n        // assert the contract have enough balance.\r\n        assert(address(this).balance >= lendersInvestedAmount[msg.sender]);\r\n\r\n        // Transfer the return amount with interest to the lender.\r\n        payable(msg.sender).transfer(lendersInvestedAmount[msg.sender]);\r\n\r\n        // Log the transfer to lender.\r\n        emit LogLenderRefunded(msg.sender, lendersInvestedAmount[msg.sender], block.timestamp);\r\n\r\n        // Check if the contract balance is drawned.\r\n        if (address(this).balance == 0) {\r\n\r\n            // Set the active state to false.\r\n            stop();\r\n\r\n            // Log active status change.\r\n            emit LogCreditStateActiveChanged(status(), block.timestamp);\r\n\r\n            // Set the contract stage to expired e.g. its lifespan is over.\r\n            state = State.expired;\r\n\r\n            // Log state change.\r\n            emit LogCreditStateChanged(state, block.timestamp);\r\n        }\r\n    }\r\n\r\n    /** @dev Function for voting the borrower as fraudster.\r\n     */\r\n    function fraudVote() public isRunning onlyLender returns (bool) {\r\n        // A lender could vote only once.\r\n        require(fraudVoters[msg.sender] == false,\"borrower is a fraudster\");\r\n\r\n        // Increment fraudVotes count.\r\n        fraudVotes++;\r\n\r\n        // Note the lender has voted.\r\n        fraudVoters[msg.sender] == true;\r\n\r\n        // Log lenders vote for fraud\r\n        emit LogLenderVoteForFraud(msg.sender, block.timestamp);\r\n\r\n        // Check if consensus is reached.\r\n        if (lendersCount == fraudVotes) {\r\n            // Invoke fraud function.\r\n            return fraud();\r\n        }\r\n        return true;\r\n    }\r\n\r\n    /** @dev Fraund function\r\n      * @return\r\n      * calls the owner contract and marks the borrower as fraudster.\r\n      */\r\n    function fraud() internal returns (bool) {\r\n        // call the owner address function with param borrower's address\r\n        bool fraudStatusResult = true; //address(getOwner()).call(bytes4(keccak256(\"setFraudStatus(address)\")), borrower);\r\n\r\n        // Log user marked as fraud.\r\n        emit LogBorrowerIsFraud(borrower, fraudStatusResult, block.timestamp);\r\n\r\n        return fraudStatusResult;\r\n    }\r\n\r\n    /** @dev Change state function.\r\n      * @param _state New state.\r\n      * Only accessible to the owner of the contract.\r\n      * Changes the state of the contract.\r\n      */\r\n    function changeState(State _state) external okOwner returns (State) {\r\n        state = _state;\r\n\r\n        // Log state change.\r\n        emit LogCreditStateChanged(state, block.timestamp);\r\n        return state;\r\n    }\r\n\r\n    /** @dev Toggle active state function.\r\n      * Only accessible to the owner of the contract.\r\n      * Toggles the active state of the contract.\r\n      * @return bool\r\n      */\r\n    function toggleActive() external okOwner returns (bool) {\r\n      if (status()) {\r\n        stop();\r\n      } else {\r\n        start();\r\n      }\r\n\r\n      // Log active status change.\r\n      emit LogCreditStateActiveChanged(status(), block.timestamp);\r\n\r\n        return status();\r\n    }\r\n\r\n}",
  "sourcePath": "/Volumes/My Book/projects/pingleware-contracts/contracts/finance/credit/Credit.sol",
  "compiler": {
    "name": "solc",
    "version": "0.8.18+commit.87f61d96.Emscripten.clang"
  },
  "schemaVersion": "3.4.12",
  "updatedAt": "2023-10-22T00:34:41.473Z",
  "devdoc": {
    "events": {
      "LogCreditInitialized(address,uint256)": {
        "details": "Events"
      }
    },
    "kind": "dev",
    "methods": {
      "changeState(uint8)": {
        "details": "Change state function.",
        "params": {
          "_state": "New state. Only accessible to the owner of the contract. Changes the state of the contract."
        }
      },
      "constructor": {
        "details": "Constructor.",
        "params": {
          "_description": "Credit description.",
          "_requestedAmount": "Requested credit amount (in wei).",
          "_requestedRepayments": "Requested number of repayments."
        }
      },
      "fraudVote()": {
        "details": "Function for voting the borrower as fraudster."
      },
      "getBalance()": {
        "details": "Get current balance.",
        "returns": {
          "_0": "address(this).balance."
        }
      },
      "getCreditInfo()": {
        "details": "Function to get the whole credit information.",
        "returns": {
          "_0": "borrower",
          "_1": "description",
          "_2": "requestedAmount",
          "_3": "requestedRepayments",
          "_4": "remainingRepayments",
          "_5": "interest",
          "_6": "returnAmount",
          "_7": "state",
          "_8": "active",
          "_9": "address(this).balance"
        }
      },
      "invest()": {
        "details": "Invest function. Provides functionality for person to invest in someone's credit, incentivised by the return of interest."
      },
      "refund()": {
        "details": "Function for refunding people. "
      },
      "renounceOwnership()": {
        "details": "Leaves the contract without owner. It will not be possible to call `onlyOwner` functions anymore. Can only be called by the current owner. NOTE: Renouncing ownership will leave the contract without an owner, thereby removing any functionality that is only available to the owner."
      },
      "repay()": {
        "details": "Repayment function. Allows borrower to make repayment installments."
      },
      "requestInterest()": {
        "details": "Request interest function. It can only be executed while contract is in active state. It is only accessible to lenders. It is only accessible if lender funded 1 or more wei. It can only be executed once. Transfers the lended amount + interest to the lender."
      },
      "revokeVote()": {
        "details": "Function for revoking the credit."
      },
      "toggleActive()": {
        "details": "Toggle active state function. Only accessible to the owner of the contract. Toggles the active state of the contract.",
        "returns": {
          "_0": "bool"
        }
      },
      "transferOwnership(address)": {
        "details": "Transfers ownership of the contract to a new account (`newOwner`). Can only be called by the current owner."
      },
      "withdraw()": {
        "details": "Withdraw function. It can only be executed while contract is in active state. It is only accessible to the borrower. It is only accessible if the needed amount is gathered in the contract. It can only be executed once. Transfers the gathered amount to the borrower."
      }
    },
    "stateVariables": {
      "borrower": {
        "details": "State variables "
      }
    },
    "version": 1
  },
  "userdoc": {
    "kind": "user",
    "methods": {},
    "version": 1
  }
}