{
  "contractName": "CreditReport",
  "abi": [
    {
      "inputs": [],
      "stateMutability": "nonpayable",
      "type": "constructor"
    },
    {
      "anonymous": false,
      "inputs": [
        {
          "indexed": false,
          "internalType": "address",
          "name": "addr",
          "type": "address"
        },
        {
          "indexed": false,
          "internalType": "string",
          "name": "message",
          "type": "string"
        }
      ],
      "name": "ConsumerNotified",
      "type": "event"
    },
    {
      "anonymous": false,
      "inputs": [
        {
          "indexed": false,
          "internalType": "address",
          "name": "addr",
          "type": "address"
        },
        {
          "indexed": false,
          "internalType": "string",
          "name": "message",
          "type": "string"
        }
      ],
      "name": "SubscriberAdded",
      "type": "event"
    },
    {
      "anonymous": false,
      "inputs": [
        {
          "indexed": false,
          "internalType": "address",
          "name": "addr",
          "type": "address"
        },
        {
          "indexed": false,
          "internalType": "string",
          "name": "message",
          "type": "string"
        }
      ],
      "name": "SubscriberNotified",
      "type": "event"
    },
    {
      "inputs": [],
      "name": "getOwner",
      "outputs": [
        {
          "internalType": "address",
          "name": "addr",
          "type": "address"
        }
      ],
      "stateMutability": "view",
      "type": "function"
    },
    {
      "inputs": [],
      "name": "getUserRole",
      "outputs": [
        {
          "internalType": "string",
          "name": "",
          "type": "string"
        }
      ],
      "stateMutability": "view",
      "type": "function"
    },
    {
      "inputs": [
        {
          "internalType": "address",
          "name": "consumer",
          "type": "address"
        }
      ],
      "name": "getConsumerReportTotal",
      "outputs": [
        {
          "internalType": "uint256",
          "name": "",
          "type": "uint256"
        }
      ],
      "stateMutability": "view",
      "type": "function"
    },
    {
      "inputs": [
        {
          "internalType": "address",
          "name": "consumer",
          "type": "address"
        },
        {
          "internalType": "uint256",
          "name": "index",
          "type": "uint256"
        }
      ],
      "name": "getConsumerReportItem",
      "outputs": [
        {
          "internalType": "bytes",
          "name": "",
          "type": "bytes"
        }
      ],
      "stateMutability": "view",
      "type": "function"
    },
    {
      "inputs": [],
      "name": "getBlocktime",
      "outputs": [
        {
          "internalType": "uint256",
          "name": "",
          "type": "uint256"
        }
      ],
      "stateMutability": "view",
      "type": "function"
    },
    {
      "inputs": [
        {
          "internalType": "uint256",
          "name": "LastTimeStamp",
          "type": "uint256"
        },
        {
          "internalType": "uint256",
          "name": "currentTime",
          "type": "uint256"
        }
      ],
      "name": "checkExpiry",
      "outputs": [
        {
          "internalType": "bool",
          "name": "success",
          "type": "bool"
        }
      ],
      "stateMutability": "pure",
      "type": "function"
    },
    {
      "inputs": [
        {
          "internalType": "address",
          "name": "_recipient",
          "type": "address"
        },
        {
          "internalType": "bytes32",
          "name": "_message",
          "type": "bytes32"
        }
      ],
      "name": "sendMessage",
      "outputs": [],
      "stateMutability": "nonpayable",
      "type": "function"
    },
    {
      "inputs": [],
      "name": "readMessage",
      "outputs": [
        {
          "internalType": "bytes32[]",
          "name": "",
          "type": "bytes32[]"
        }
      ],
      "stateMutability": "view",
      "type": "function"
    },
    {
      "inputs": [],
      "name": "getSubscribers",
      "outputs": [
        {
          "internalType": "address[]",
          "name": "",
          "type": "address[]"
        }
      ],
      "stateMutability": "view",
      "type": "function"
    },
    {
      "inputs": [],
      "name": "getConsumers",
      "outputs": [
        {
          "internalType": "address[]",
          "name": "",
          "type": "address[]"
        }
      ],
      "stateMutability": "view",
      "type": "function"
    },
    {
      "inputs": [
        {
          "internalType": "address",
          "name": "consumer",
          "type": "address"
        },
        {
          "internalType": "address",
          "name": "subscriber",
          "type": "address"
        },
        {
          "internalType": "uint256",
          "name": "reqtime",
          "type": "uint256"
        }
      ],
      "name": "getFreeCreditReport",
      "outputs": [
        {
          "internalType": "bytes32",
          "name": "",
          "type": "bytes32"
        }
      ],
      "stateMutability": "payable",
      "type": "function"
    },
    {
      "inputs": [
        {
          "internalType": "address",
          "name": "consumer",
          "type": "address"
        },
        {
          "internalType": "uint256",
          "name": "index",
          "type": "uint256"
        },
        {
          "internalType": "string",
          "name": "disputeDate",
          "type": "string"
        },
        {
          "internalType": "string",
          "name": "reason",
          "type": "string"
        }
      ],
      "name": "openDispute",
      "outputs": [],
      "stateMutability": "nonpayable",
      "type": "function"
    },
    {
      "inputs": [
        {
          "internalType": "address",
          "name": "consumer",
          "type": "address"
        }
      ],
      "name": "getReportsByConsumer",
      "outputs": [
        {
          "internalType": "bytes32",
          "name": "",
          "type": "bytes32"
        }
      ],
      "stateMutability": "view",
      "type": "function"
    },
    {
      "inputs": [
        {
          "internalType": "address",
          "name": "consumer",
          "type": "address"
        },
        {
          "internalType": "uint256",
          "name": "index",
          "type": "uint256"
        }
      ],
      "name": "purgeDispute",
      "outputs": [],
      "stateMutability": "nonpayable",
      "type": "function"
    },
    {
      "inputs": [
        {
          "internalType": "address",
          "name": "addr",
          "type": "address"
        },
        {
          "internalType": "uint256",
          "name": "_type",
          "type": "uint256"
        }
      ],
      "name": "addSubscriber",
      "outputs": [],
      "stateMutability": "nonpayable",
      "type": "function"
    },
    {
      "inputs": [
        {
          "internalType": "address",
          "name": "consumer",
          "type": "address"
        },
        {
          "internalType": "bytes",
          "name": "item",
          "type": "bytes"
        }
      ],
      "name": "addConsumerItem",
      "outputs": [],
      "stateMutability": "nonpayable",
      "type": "function"
    },
    {
      "inputs": [
        {
          "internalType": "address",
          "name": "consumer",
          "type": "address"
        },
        {
          "internalType": "uint256",
          "name": "reqtime",
          "type": "uint256"
        },
        {
          "internalType": "address payable",
          "name": "to",
          "type": "address"
        }
      ],
      "name": "getConsumerReport",
      "outputs": [
        {
          "internalType": "bytes32",
          "name": "",
          "type": "bytes32"
        }
      ],
      "stateMutability": "payable",
      "type": "function"
    },
    {
      "inputs": [
        {
          "internalType": "address",
          "name": "consumer",
          "type": "address"
        },
        {
          "internalType": "uint256",
          "name": "index",
          "type": "uint256"
        },
        {
          "internalType": "string",
          "name": "status",
          "type": "string"
        },
        {
          "internalType": "bool",
          "name": "purge",
          "type": "bool"
        }
      ],
      "name": "finalizeDispute",
      "outputs": [],
      "stateMutability": "nonpayable",
      "type": "function"
    },
    {
      "inputs": [
        {
          "internalType": "uint256",
          "name": "reqtime",
          "type": "uint256"
        }
      ],
      "name": "getCreditReport",
      "outputs": [
        {
          "internalType": "bytes32",
          "name": "",
          "type": "bytes32"
        }
      ],
      "stateMutability": "payable",
      "type": "function"
    },
    {
      "inputs": [],
      "name": "getInquiries",
      "outputs": [
        {
          "internalType": "string",
          "name": "",
          "type": "string"
        }
      ],
      "stateMutability": "view",
      "type": "function"
    },
    {
      "inputs": [
        {
          "internalType": "address",
          "name": "consumer",
          "type": "address"
        }
      ],
      "name": "getDisputes",
      "outputs": [
        {
          "internalType": "bytes32",
          "name": "",
          "type": "bytes32"
        }
      ],
      "stateMutability": "view",
      "type": "function"
    }
  ],
  "bytecode": "0x608060405234801561001057600080fd5b5033600a60006101000a81548173ffffffffffffffffffffffffffffffffffffffff021916908373ffffffffffffffffffffffffffffffffffffffff1602179055506001600a60146101000a81548160ff0219169083151502179055506000600781905550614ddb806100846000396000f3fe60806040526004361061012a5760003560e01c806370d6e7b4116100ab578063c7068c8e1161006f578063c7068c8e146103d8578063d699978014610415578063d7fdd77014610445578063d91ed51d14610482578063e09ee3af146104ad578063f7bddce4146104ea5761012a565b806370d6e7b4146102ec57806375cb1c4314610329578063893d20e814610352578063a264c26c1461037d578063bf04a10d146103ad5761012a565b80633b729b86116100f25780633b729b86146102095780633d5913ae1461023457806357486eb61461025d5780636138d597146102865780636df2ddd8146102c35761012a565b8063031d5d011461012f5780630501b79f1461015a57806305cc61ad1461018557806318a92881146101b057806338cf7a27146101e0575b600080fd5b34801561013b57600080fd5b50610144610513565b60405161015191906137fd565b60405180910390f35b34801561016657600080fd5b5061016f6105a8565b60405161017c9190613838565b60405180910390f35b34801561019157600080fd5b5061019a6105b0565b6040516101a79190613943565b60405180910390f35b6101ca60048036038101906101c591906139a5565b6106ce565b6040516101d791906139e1565b60405180910390f35b3480156101ec57600080fd5b5061020760048036038101906102029190613b6e565b61084e565b005b34801561021557600080fd5b5061021e610b83565b60405161022b9190613943565b60405180910390f35b34801561024057600080fd5b5061025b60048036038101906102569190613bca565b610ca1565b005b34801561026957600080fd5b50610284600480360381019061027f9190613cab565b610e92565b005b34801561029257600080fd5b506102ad60048036038101906102a89190613d4a565b6113df565b6040516102ba91906139e1565b60405180910390f35b3480156102cf57600080fd5b506102ea60048036038101906102e59190613da3565b611481565b005b3480156102f857600080fd5b50610313600480360381019061030e9190613bca565b6114eb565b6040516103209190613e6b565b60405180910390f35b34801561033557600080fd5b50610350600480360381019061034b9190613ec5565b6114ff565b005b34801561035e57600080fd5b50610367611d42565b6040516103749190613f57565b60405180910390f35b61039760048036038101906103929190613f72565b611d6c565b6040516103a491906139e1565b60405180910390f35b3480156103b957600080fd5b506103c26121de565b6040516103cf919061401a565b60405180910390f35b3480156103e457600080fd5b506103ff60048036038101906103fa9190613d4a565b612427565b60405161040c9190613838565b60405180910390f35b61042f600480360381019061042a919061407a565b612439565b60405161043c91906139e1565b60405180910390f35b34801561045157600080fd5b5061046c600480360381019061046791906140cd565b6126af565b604051610479919061411c565b60405180910390f35b34801561048e57600080fd5b506104976126da565b6040516104a4919061401a565b60405180910390f35b3480156104b957600080fd5b506104d460048036038101906104cf9190613d4a565b6128e5565b6040516104e191906139e1565b60405180910390f35b3480156104f657600080fd5b50610511600480360381019061050c9190613bca565b61300b565b005b6060600860003373ffffffffffffffffffffffffffffffffffffffff1673ffffffffffffffffffffffffffffffffffffffff16815260200190815260200160002080548060200260200160405190810160405280929190818152602001828054801561059e57602002820191906000526020600020905b81548152602001906001019080831161058a575b5050505050905090565b600042905090565b6060600a60009054906101000a900473ffffffffffffffffffffffffffffffffffffffff1673ffffffffffffffffffffffffffffffffffffffff163373ffffffffffffffffffffffffffffffffffffffff1614610642576040517f08c379a000000000000000000000000000000000000000000000000000000000815260040161063990614183565b60405180910390fd5b60058054806020026020016040519081016040528092919081815260200182805480156106c457602002820191906000526020600020905b8160009054906101000a900473ffffffffffffffffffffffffffffffffffffffff1673ffffffffffffffffffffffffffffffffffffffff168152602001906001019080831161067a575b5050505050905090565b600080600260003373ffffffffffffffffffffffffffffffffffffffff1673ffffffffffffffffffffffffffffffffffffffff168152602001908152602001600020541415610752576040517f08c379a0000000000000000000000000000000000000000000000000000000008152600401610749906141ef565b60405180910390fd5b600060405180604001604052803373ffffffffffffffffffffffffffffffffffffffff168152602001848152509050600360003373ffffffffffffffffffffffffffffffffffffffff1673ffffffffffffffffffffffffffffffffffffffff16815260200190815260200160002081908060018154018082558091505060019003906000526020600020906002020160009091909190915060008201518160000160006101000a81548173ffffffffffffffffffffffffffffffffffffffff021916908373ffffffffffffffffffffffffffffffffffffffff160217905550602082015181600101555050610846336132d3565b915050919050565b6000600160003373ffffffffffffffffffffffffffffffffffffffff1673ffffffffffffffffffffffffffffffffffffffff1681526020019081526020016000205414156108d1576040517f08c379a00000000000000000000000000000000000000000000000000000000081526004016108c89061425b565b60405180910390fd5b600073ffffffffffffffffffffffffffffffffffffffff168273ffffffffffffffffffffffffffffffffffffffff161415610941576040517f08c379a0000000000000000000000000000000000000000000000000000000008152600401610938906142c7565b60405180910390fd5b6000600260008473ffffffffffffffffffffffffffffffffffffffff1673ffffffffffffffffffffffffffffffffffffffff168152602001908152602001600020541415610a4a576001600260008473ffffffffffffffffffffffffffffffffffffffff1673ffffffffffffffffffffffffffffffffffffffff168152602001908152602001600020819055506006829080600181540180825580915050600190039060005260206000200160009091909190916101000a81548173ffffffffffffffffffffffffffffffffffffffff021916908373ffffffffffffffffffffffffffffffffffffffff16021790555060076000815480929190610a4490614316565b91905055505b600060405180604001604052803373ffffffffffffffffffffffffffffffffffffffff1681526020018381525090506000808473ffffffffffffffffffffffffffffffffffffffff1673ffffffffffffffffffffffffffffffffffffffff16815260200190815260200160002081908060018154018082558091505060019003906000526020600020906002020160009091909190915060008201518160000160006101000a81548173ffffffffffffffffffffffffffffffffffffffff021916908373ffffffffffffffffffffffffffffffffffffffff1602179055506020820151816001019080519060200190610b4492919061358c565b5050507fd87358bdb9fb3fd22dc44bf9aec10b565d35f5b8c903db24b4addfb35594895c83604051610b7691906143d1565b60405180910390a1505050565b6060600a60009054906101000a900473ffffffffffffffffffffffffffffffffffffffff1673ffffffffffffffffffffffffffffffffffffffff163373ffffffffffffffffffffffffffffffffffffffff1614610c15576040517f08c379a0000000000000000000000000000000000000000000000000000000008152600401610c0c90614183565b60405180910390fd5b6006805480602002602001604051908101604052809291908181526020018280548015610c9757602002820191906000526020600020905b8160009054906101000a900473ffffffffffffffffffffffffffffffffffffffff1673ffffffffffffffffffffffffffffffffffffffff1681526020019060010190808311610c4d575b5050505050905090565b600a60009054906101000a900473ffffffffffffffffffffffffffffffffffffffff1673ffffffffffffffffffffffffffffffffffffffff163373ffffffffffffffffffffffffffffffffffffffff1614610d31576040517f08c379a0000000000000000000000000000000000000000000000000000000008152600401610d2890614183565b60405180910390fd5b600460008373ffffffffffffffffffffffffffffffffffffffff1673ffffffffffffffffffffffffffffffffffffffff1681526020019081526020016000208181548110610d8257610d816143ff565b5b90600052602060002090600802016000808201600090556001820160006101000a81549073ffffffffffffffffffffffffffffffffffffffff02191690556002820160006101000a81549073ffffffffffffffffffffffffffffffffffffffff0219169055600382016000610df79190613612565b60048201600080820160006101000a81549073ffffffffffffffffffffffffffffffffffffffff0219169055600182016000610e339190613652565b5050600682016000610e459190613612565b600782016000610e559190613612565b50507fd87358bdb9fb3fd22dc44bf9aec10b565d35f5b8c903db24b4addfb35594895c82604051610e86919061447a565b60405180910390a15050565b600a60009054906101000a900473ffffffffffffffffffffffffffffffffffffffff1673ffffffffffffffffffffffffffffffffffffffff163373ffffffffffffffffffffffffffffffffffffffff1614610f22576040517f08c379a0000000000000000000000000000000000000000000000000000000008152600401610f1990614183565b60405180910390fd5b600060405180604001604052806000808873ffffffffffffffffffffffffffffffffffffffff1673ffffffffffffffffffffffffffffffffffffffff1681526020019081526020016000208681548110610f7f57610f7e6143ff565b5b906000526020600020906002020160000160009054906101000a900473ffffffffffffffffffffffffffffffffffffffff1673ffffffffffffffffffffffffffffffffffffffff1681526020016000808873ffffffffffffffffffffffffffffffffffffffff1673ffffffffffffffffffffffffffffffffffffffff168152602001908152602001600020868154811061101c5761101b6143ff565b5b90600052602060002090600202016001018054611038906144d7565b80601f0160208091040260200160405190810160405280929190818152602001828054611064906144d7565b80156110b15780601f10611086576101008083540402835291602001916110b1565b820191906000526020600020905b81548152906001019060200180831161109457829003601f168201915b5050505050815250905060006040518060e00160405280868152602001836000015173ffffffffffffffffffffffffffffffffffffffff1681526020018773ffffffffffffffffffffffffffffffffffffffff168152602001858152602001838152602001848152602001604051806020016040528060008152508152509050600460008773ffffffffffffffffffffffffffffffffffffffff1673ffffffffffffffffffffffffffffffffffffffff1681526020019081526020016000208190806001815401808255809150506001900390600052602060002090600802016000909190919091506000820151816000015560208201518160010160006101000a81548173ffffffffffffffffffffffffffffffffffffffff021916908373ffffffffffffffffffffffffffffffffffffffff16021790555060408201518160020160006101000a81548173ffffffffffffffffffffffffffffffffffffffff021916908373ffffffffffffffffffffffffffffffffffffffff160217905550606082015181600301908051906020019061124e929190613692565b5060808201518160040160008201518160000160006101000a81548173ffffffffffffffffffffffffffffffffffffffff021916908373ffffffffffffffffffffffffffffffffffffffff16021790555060208201518160010190805190602001906112bb92919061358c565b50505060a08201518160060190805190602001906112da929190613692565b5060c08201518160070190805190602001906112f7929190613692565b50505060086000836000015173ffffffffffffffffffffffffffffffffffffffff1673ffffffffffffffffffffffffffffffffffffffff168152602001908152602001600020858360000151888786602001518860405160200161136096959493929190614636565b6040516020818303038152906040528051906020012090806001815401808255809150506001900390600052602060002001600090919091909150557fde371f040710867afadb0d380ec315de30e2cdd4edd5062dd8c82c7418784ad782600001516040516113cf91906146f1565b60405180910390a1505050505050565b6000600a60009054906101000a900473ffffffffffffffffffffffffffffffffffffffff1673ffffffffffffffffffffffffffffffffffffffff163373ffffffffffffffffffffffffffffffffffffffff1614611471576040517f08c379a000000000000000000000000000000000000000000000000000000000815260040161146890614183565b60405180910390fd5b61147a826132d3565b9050919050565b600860008373ffffffffffffffffffffffffffffffffffffffff1673ffffffffffffffffffffffffffffffffffffffff1681526020019081526020016000208190806001815401808255809150506001900390600052602060002001600090919091909150555050565b60606114f7838361344d565b905092915050565b6000600160003373ffffffffffffffffffffffffffffffffffffffff1673ffffffffffffffffffffffffffffffffffffffff168152602001908152602001600020541415611582576040517f08c379a00000000000000000000000000000000000000000000000000000000081526004016115799061425b565b60405180910390fd5b60006040518060e00160405280858152602001600460008873ffffffffffffffffffffffffffffffffffffffff1673ffffffffffffffffffffffffffffffffffffffff16815260200190815260200160002086815481106115e6576115e56143ff565b5b906000526020600020906008020160010160009054906101000a900473ffffffffffffffffffffffffffffffffffffffff1673ffffffffffffffffffffffffffffffffffffffff168152602001600460008873ffffffffffffffffffffffffffffffffffffffff1673ffffffffffffffffffffffffffffffffffffffff1681526020019081526020016000208681548110611684576116836143ff565b5b906000526020600020906008020160020160009054906101000a900473ffffffffffffffffffffffffffffffffffffffff1673ffffffffffffffffffffffffffffffffffffffff168152602001600460008873ffffffffffffffffffffffffffffffffffffffff1673ffffffffffffffffffffffffffffffffffffffff1681526020019081526020016000208681548110611722576117216143ff565b5b9060005260206000209060080201600301805461173e906144d7565b80601f016020809104026020016040519081016040528092919081815260200182805461176a906144d7565b80156117b75780601f1061178c576101008083540402835291602001916117b7565b820191906000526020600020905b81548152906001019060200180831161179a57829003601f168201915b50505050508152602001600460008873ffffffffffffffffffffffffffffffffffffffff1673ffffffffffffffffffffffffffffffffffffffff1681526020019081526020016000208681548110611812576118116143ff565b5b90600052602060002090600802016004016040518060400160405290816000820160009054906101000a900473ffffffffffffffffffffffffffffffffffffffff1673ffffffffffffffffffffffffffffffffffffffff1673ffffffffffffffffffffffffffffffffffffffff168152602001600182018054611894906144d7565b80601f01602080910402602001604051908101604052809291908181526020018280546118c0906144d7565b801561190d5780601f106118e25761010080835404028352916020019161190d565b820191906000526020600020905b8154815290600101906020018083116118f057829003601f168201915b5050505050815250508152602001600460008873ffffffffffffffffffffffffffffffffffffffff1673ffffffffffffffffffffffffffffffffffffffff168152602001908152602001600020868154811061196c5761196b6143ff565b5b90600052602060002090600802016006018054611988906144d7565b80601f01602080910402602001604051908101604052809291908181526020018280546119b4906144d7565b8015611a015780601f106119d657610100808354040283529160200191611a01565b820191906000526020600020905b8154815290600101906020018083116119e457829003601f168201915b505050505081526020018481525090508115611b4257600460008673ffffffffffffffffffffffffffffffffffffffff1673ffffffffffffffffffffffffffffffffffffffff1681526020019081526020016000208481548110611a6857611a676143ff565b5b90600052602060002090600802016000808201600090556001820160006101000a81549073ffffffffffffffffffffffffffffffffffffffff02191690556002820160006101000a81549073ffffffffffffffffffffffffffffffffffffffff0219169055600382016000611add9190613612565b60048201600080820160006101000a81549073ffffffffffffffffffffffffffffffffffffffff0219169055600182016000611b199190613652565b5050600682016000611b2b9190613612565b600782016000611b3b9190613612565b5050611d04565b80600460008773ffffffffffffffffffffffffffffffffffffffff1673ffffffffffffffffffffffffffffffffffffffff1681526020019081526020016000208581548110611b9457611b936143ff565b5b90600052602060002090600802016000820151816000015560208201518160010160006101000a81548173ffffffffffffffffffffffffffffffffffffffff021916908373ffffffffffffffffffffffffffffffffffffffff16021790555060408201518160020160006101000a81548173ffffffffffffffffffffffffffffffffffffffff021916908373ffffffffffffffffffffffffffffffffffffffff1602179055506060820151816003019080519060200190611c56929190613692565b5060808201518160040160008201518160000160006101000a81548173ffffffffffffffffffffffffffffffffffffffff021916908373ffffffffffffffffffffffffffffffffffffffff1602179055506020820151816001019080519060200190611cc392919061358c565b50505060a0820151816006019080519060200190611ce2929190613692565b5060c0820151816007019080519060200190611cff929190613692565b509050505b7fd87358bdb9fb3fd22dc44bf9aec10b565d35f5b8c903db24b4addfb35594895c85604051611d33919061476b565b60405180910390a15050505050565b6000600a60009054906101000a900473ffffffffffffffffffffffffffffffffffffffff16905090565b6000600a60009054906101000a900473ffffffffffffffffffffffffffffffffffffffff1673ffffffffffffffffffffffffffffffffffffffff163373ffffffffffffffffffffffffffffffffffffffff1614611dfe576040517f08c379a0000000000000000000000000000000000000000000000000000000008152600401611df590614183565b60405180910390fd5b8383836000808290506000600360008773ffffffffffffffffffffffffffffffffffffffff1673ffffffffffffffffffffffffffffffffffffffff1681526020019081526020016000208054905090505b6000811115611faa5782158015611f285750600060016000600360008a73ffffffffffffffffffffffffffffffffffffffff1673ffffffffffffffffffffffffffffffffffffffff1681526020019081526020016000208481548110611eb857611eb76143ff565b5b906000526020600020906002020160000160009054906101000a900473ffffffffffffffffffffffffffffffffffffffff1673ffffffffffffffffffffffffffffffffffffffff1673ffffffffffffffffffffffffffffffffffffffff1681526020019081526020016000205414155b15611f9757600360008773ffffffffffffffffffffffffffffffffffffffff1673ffffffffffffffffffffffffffffffffffffffff1681526020019081526020016000208181548110611f7e57611f7d6143ff565b5b9060005260206000209060020201600101549150600192505b8080611fa290614799565b915050611e4f565b5060006001600360008873ffffffffffffffffffffffffffffffffffffffff1673ffffffffffffffffffffffffffffffffffffffff16815260200190815260200160002080549050611ffc91906147c3565b90506000600360008873ffffffffffffffffffffffffffffffffffffffff1673ffffffffffffffffffffffffffffffffffffffff1681526020019081526020016000208281548110612051576120506143ff565b5b906000526020600020906002020160010154905060008114806120825750846301dfe2008261208091906147f7565b115b8061209a5750846276a7008461209891906147f7565b105b6120d9576040517f08c379a00000000000000000000000000000000000000000000000000000000081526004016120d090614899565b60405180910390fd5b600060405180604001604052808d73ffffffffffffffffffffffffffffffffffffffff1681526020018b8152509050600360008d73ffffffffffffffffffffffffffffffffffffffff1673ffffffffffffffffffffffffffffffffffffffff16815260200190815260200160002081908060018154018082558091505060019003906000526020600020906002020160009091909190915060008201518160000160006101000a81548173ffffffffffffffffffffffffffffffffffffffff021916908373ffffffffffffffffffffffffffffffffffffffff1602179055506020820151816001015550506121cd8c6132d3565b985050505050505050509392505050565b6060600073ffffffffffffffffffffffffffffffffffffffff163373ffffffffffffffffffffffffffffffffffffffff161415612250576040517f08c379a000000000000000000000000000000000000000000000000000000000815260040161224790614905565b60405180910390fd5b600a60009054906101000a900473ffffffffffffffffffffffffffffffffffffffff1673ffffffffffffffffffffffffffffffffffffffff163373ffffffffffffffffffffffffffffffffffffffff1614156122e3576040518060400160405280600581526020017f6f776e65720000000000000000000000000000000000000000000000000000008152509050612424565b6000600160003373ffffffffffffffffffffffffffffffffffffffff1673ffffffffffffffffffffffffffffffffffffffff1681526020019081526020016000205414612367576040518060400160405280600a81526020017f73756273637269626572000000000000000000000000000000000000000000008152509050612424565b6000600260003373ffffffffffffffffffffffffffffffffffffffff1673ffffffffffffffffffffffffffffffffffffffff16815260200190815260200160002054146123eb576040518060400160405280600881526020017f636f6e73756d65720000000000000000000000000000000000000000000000008152509050612424565b6040518060400160405280600781526020017f756e6b6e6f776e0000000000000000000000000000000000000000000000000081525090505b90565b600061243282613541565b9050919050565b600080600160003373ffffffffffffffffffffffffffffffffffffffff1673ffffffffffffffffffffffffffffffffffffffff1681526020019081526020016000205414156124bd576040517f08c379a00000000000000000000000000000000000000000000000000000000081526004016124b49061425b565b60405180910390fd5b81600a60009054906101000a900473ffffffffffffffffffffffffffffffffffffffff1673ffffffffffffffffffffffffffffffffffffffff168173ffffffffffffffffffffffffffffffffffffffff161461254e576040517f08c379a000000000000000000000000000000000000000000000000000000000815260040161254590614971565b60405180910390fd5b66038d7ea4c68000803373ffffffffffffffffffffffffffffffffffffffff1631116125af576040517f08c379a00000000000000000000000000000000000000000000000000000000081526004016125a6906149dd565b60405180910390fd5b600060405180604001604052803373ffffffffffffffffffffffffffffffffffffffff168152602001878152509050600360008873ffffffffffffffffffffffffffffffffffffffff1673ffffffffffffffffffffffffffffffffffffffff16815260200190815260200160002081908060018154018082558091505060019003906000526020600020906002020160009091909190915060008201518160000160006101000a81548173ffffffffffffffffffffffffffffffffffffffff021916908373ffffffffffffffffffffffffffffffffffffffff1602179055506020820151816001015550506126a3876132d3565b93505050509392505050565b60008162278d00846126c191906147f7565b106126cf57600190506126d4565b600090505b92915050565b60606000600260003373ffffffffffffffffffffffffffffffffffffffff1673ffffffffffffffffffffffffffffffffffffffff16815260200190815260200160002054141561275f576040517f08c379a0000000000000000000000000000000000000000000000000000000008152600401612756906141ef565b60405180910390fd5b600060405180602001604052806000815250905060005b600360003373ffffffffffffffffffffffffffffffffffffffff1673ffffffffffffffffffffffffffffffffffffffff168152602001908152602001600020805490508110156128dd5781600360003373ffffffffffffffffffffffffffffffffffffffff1673ffffffffffffffffffffffffffffffffffffffff1681526020019081526020016000208281548110612812576128116143ff565b5b906000526020600020906002020160000160009054906101000a900473ffffffffffffffffffffffffffffffffffffffff16600360003373ffffffffffffffffffffffffffffffffffffffff1673ffffffffffffffffffffffffffffffffffffffff1681526020019081526020016000208381548110612895576128946143ff565b5b9060005260206000209060020201600101546040516020016128b9939291906149fd565b604051602081830303815290604052915080806128d590614316565b915050612776565b508091505090565b6000600a60009054906101000a900473ffffffffffffffffffffffffffffffffffffffff1673ffffffffffffffffffffffffffffffffffffffff163373ffffffffffffffffffffffffffffffffffffffff1614612977576040517f08c379a000000000000000000000000000000000000000000000000000000000815260040161296e90614183565b60405180910390fd5b6000805b600460008573ffffffffffffffffffffffffffffffffffffffff1673ffffffffffffffffffffffffffffffffffffffff168152602001908152602001600020805490508110156130015760006040518060e00160405280600460008873ffffffffffffffffffffffffffffffffffffffff1673ffffffffffffffffffffffffffffffffffffffff1681526020019081526020016000208481548110612a2357612a226143ff565b5b9060005260206000209060080201600001548152602001600460008873ffffffffffffffffffffffffffffffffffffffff1673ffffffffffffffffffffffffffffffffffffffff1681526020019081526020016000208481548110612a8b57612a8a6143ff565b5b906000526020600020906008020160010160009054906101000a900473ffffffffffffffffffffffffffffffffffffffff1673ffffffffffffffffffffffffffffffffffffffff168152602001600460008873ffffffffffffffffffffffffffffffffffffffff1673ffffffffffffffffffffffffffffffffffffffff1681526020019081526020016000208481548110612b2957612b286143ff565b5b906000526020600020906008020160020160009054906101000a900473ffffffffffffffffffffffffffffffffffffffff1673ffffffffffffffffffffffffffffffffffffffff168152602001600460008873ffffffffffffffffffffffffffffffffffffffff1673ffffffffffffffffffffffffffffffffffffffff1681526020019081526020016000208481548110612bc757612bc66143ff565b5b90600052602060002090600802016003018054612be3906144d7565b80601f0160208091040260200160405190810160405280929190818152602001828054612c0f906144d7565b8015612c5c5780601f10612c3157610100808354040283529160200191612c5c565b820191906000526020600020905b815481529060010190602001808311612c3f57829003601f168201915b50505050508152602001600460008873ffffffffffffffffffffffffffffffffffffffff1673ffffffffffffffffffffffffffffffffffffffff1681526020019081526020016000208481548110612cb757612cb66143ff565b5b90600052602060002090600802016004016040518060400160405290816000820160009054906101000a900473ffffffffffffffffffffffffffffffffffffffff1673ffffffffffffffffffffffffffffffffffffffff1673ffffffffffffffffffffffffffffffffffffffff168152602001600182018054612d39906144d7565b80601f0160208091040260200160405190810160405280929190818152602001828054612d65906144d7565b8015612db25780601f10612d8757610100808354040283529160200191612db2565b820191906000526020600020905b815481529060010190602001808311612d9557829003601f168201915b5050505050815250508152602001600460008873ffffffffffffffffffffffffffffffffffffffff1673ffffffffffffffffffffffffffffffffffffffff1681526020019081526020016000208481548110612e1157612e106143ff565b5b90600052602060002090600802016006018054612e2d906144d7565b80601f0160208091040260200160405190810160405280929190818152602001828054612e59906144d7565b8015612ea65780601f10612e7b57610100808354040283529160200191612ea6565b820191906000526020600020905b815481529060010190602001808311612e8957829003601f168201915b50505050508152602001600460008873ffffffffffffffffffffffffffffffffffffffff1673ffffffffffffffffffffffffffffffffffffffff1681526020019081526020016000208481548110612f0157612f006143ff565b5b90600052602060002090600802016007018054612f1d906144d7565b80601f0160208091040260200160405190810160405280929190818152602001828054612f49906144d7565b8015612f965780601f10612f6b57610100808354040283529160200191612f96565b820191906000526020600020905b815481529060010190602001808311612f7957829003601f168201915b505050505081525090508281600001518260200151836040015184606001518560a001518660c00151604051602001612fd59796959493929190614aef565b604051602081830303815290604052805190602001209250508080612ff990614316565b91505061297b565b5080915050919050565b600a60009054906101000a900473ffffffffffffffffffffffffffffffffffffffff1673ffffffffffffffffffffffffffffffffffffffff163373ffffffffffffffffffffffffffffffffffffffff161461309b576040517f08c379a000000000000000000000000000000000000000000000000000000000815260040161309290614183565b60405180910390fd5b816000805b600580549050811015613137578273ffffffffffffffffffffffffffffffffffffffff16600582815481106130d8576130d76143ff565b5b9060005260206000200160009054906101000a900473ffffffffffffffffffffffffffffffffffffffff1673ffffffffffffffffffffffffffffffffffffffff16141561312457600191505b808061312f90614316565b9150506130a0565b50600015158115151461317f576040517f08c379a000000000000000000000000000000000000000000000000000000000815260040161317690614bc6565b60405180910390fd5b600073ffffffffffffffffffffffffffffffffffffffff168473ffffffffffffffffffffffffffffffffffffffff1614156131ef576040517f08c379a00000000000000000000000000000000000000000000000000000000081526004016131e6906142c7565b60405180910390fd5b82600160008673ffffffffffffffffffffffffffffffffffffffff1673ffffffffffffffffffffffffffffffffffffffff168152602001908152602001600020819055506005849080600181540180825580915050600190039060005260206000200160009091909190916101000a81548173ffffffffffffffffffffffffffffffffffffffff021916908373ffffffffffffffffffffffffffffffffffffffff1602179055507fae28b319183e2d4a0f4721e7fc4bb1c25a05610d1e2efb85b10dfbf7bbf4761b846040516132c59190614c32565b60405180910390a150505050565b60008060005b6000808573ffffffffffffffffffffffffffffffffffffffff1673ffffffffffffffffffffffffffffffffffffffff1681526020019081526020016000208054905081101561344357816000808673ffffffffffffffffffffffffffffffffffffffff1673ffffffffffffffffffffffffffffffffffffffff1681526020019081526020016000208281548110613373576133726143ff565b5b906000526020600020906002020160000160009054906101000a900473ffffffffffffffffffffffffffffffffffffffff166000808773ffffffffffffffffffffffffffffffffffffffff1673ffffffffffffffffffffffffffffffffffffffff16815260200190815260200160002083815481106133f5576133f46143ff565b5b906000526020600020906002020160010160405160200161341893929190614d40565b604051602081830303815290604052805190602001209150808061343b90614316565b9150506132d9565b5080915050919050565b60606000808473ffffffffffffffffffffffffffffffffffffffff1673ffffffffffffffffffffffffffffffffffffffff168152602001908152602001600020828154811061349f5761349e6143ff565b5b906000526020600020906002020160010180546134bb906144d7565b80601f01602080910402602001604051908101604052809291908181526020018280546134e7906144d7565b80156135345780601f1061350957610100808354040283529160200191613534565b820191906000526020600020905b81548152906001019060200180831161351757829003601f168201915b5050505050905092915050565b60008060008373ffffffffffffffffffffffffffffffffffffffff1673ffffffffffffffffffffffffffffffffffffffff168152602001908152602001600020805490509050919050565b828054613598906144d7565b90600052602060002090601f0160209004810192826135ba5760008555613601565b82601f106135d357805160ff1916838001178555613601565b82800160010185558215613601579182015b828111156136005782518255916020019190600101906135e5565b5b50905061360e9190613718565b5090565b50805461361e906144d7565b6000825580601f10613630575061364f565b601f01602090049060005260206000209081019061364e9190613718565b5b50565b50805461365e906144d7565b6000825580601f10613670575061368f565b601f01602090049060005260206000209081019061368e9190613718565b5b50565b82805461369e906144d7565b90600052602060002090601f0160209004810192826136c05760008555613707565b82601f106136d957805160ff1916838001178555613707565b82800160010185558215613707579182015b828111156137065782518255916020019190600101906136eb565b5b5090506137149190613718565b5090565b5b80821115613731576000816000905550600101613719565b5090565b600081519050919050565b600082825260208201905092915050565b6000819050602082019050919050565b6000819050919050565b61377481613761565b82525050565b6000613786838361376b565b60208301905092915050565b6000602082019050919050565b60006137aa82613735565b6137b48185613740565b93506137bf83613751565b8060005b838110156137f05781516137d7888261377a565b97506137e283613792565b9250506001810190506137c3565b5085935050505092915050565b60006020820190508181036000830152613817818461379f565b905092915050565b6000819050919050565b6138328161381f565b82525050565b600060208201905061384d6000830184613829565b92915050565b600081519050919050565b600082825260208201905092915050565b6000819050602082019050919050565b600073ffffffffffffffffffffffffffffffffffffffff82169050919050565b60006138aa8261387f565b9050919050565b6138ba8161389f565b82525050565b60006138cc83836138b1565b60208301905092915050565b6000602082019050919050565b60006138f082613853565b6138fa818561385e565b93506139058361386f565b8060005b8381101561393657815161391d88826138c0565b9750613928836138d8565b925050600181019050613909565b5085935050505092915050565b6000602082019050818103600083015261395d81846138e5565b905092915050565b6000604051905090565b600080fd5b600080fd5b6139828161381f565b811461398d57600080fd5b50565b60008135905061399f81613979565b92915050565b6000602082840312156139bb576139ba61396f565b5b60006139c984828501613990565b91505092915050565b6139db81613761565b82525050565b60006020820190506139f660008301846139d2565b92915050565b613a058161389f565b8114613a1057600080fd5b50565b600081359050613a22816139fc565b92915050565b600080fd5b600080fd5b6000601f19601f8301169050919050565b7f4e487b7100000000000000000000000000000000000000000000000000000000600052604160045260246000fd5b613a7b82613a32565b810181811067ffffffffffffffff82111715613a9a57613a99613a43565b5b80604052505050565b6000613aad613965565b9050613ab98282613a72565b919050565b600067ffffffffffffffff821115613ad957613ad8613a43565b5b613ae282613a32565b9050602081019050919050565b82818337600083830152505050565b6000613b11613b0c84613abe565b613aa3565b905082815260208101848484011115613b2d57613b2c613a2d565b5b613b38848285613aef565b509392505050565b600082601f830112613b5557613b54613a28565b5b8135613b65848260208601613afe565b91505092915050565b60008060408385031215613b8557613b8461396f565b5b6000613b9385828601613a13565b925050602083013567ffffffffffffffff811115613bb457613bb3613974565b5b613bc085828601613b40565b9150509250929050565b60008060408385031215613be157613be061396f565b5b6000613bef85828601613a13565b9250506020613c0085828601613990565b9150509250929050565b600067ffffffffffffffff821115613c2557613c24613a43565b5b613c2e82613a32565b9050602081019050919050565b6000613c4e613c4984613c0a565b613aa3565b905082815260208101848484011115613c6a57613c69613a2d565b5b613c75848285613aef565b509392505050565b600082601f830112613c9257613c91613a28565b5b8135613ca2848260208601613c3b565b91505092915050565b60008060008060808587031215613cc557613cc461396f565b5b6000613cd387828801613a13565b9450506020613ce487828801613990565b935050604085013567ffffffffffffffff811115613d0557613d04613974565b5b613d1187828801613c7d565b925050606085013567ffffffffffffffff811115613d3257613d31613974565b5b613d3e87828801613c7d565b91505092959194509250565b600060208284031215613d6057613d5f61396f565b5b6000613d6e84828501613a13565b91505092915050565b613d8081613761565b8114613d8b57600080fd5b50565b600081359050613d9d81613d77565b92915050565b60008060408385031215613dba57613db961396f565b5b6000613dc885828601613a13565b9250506020613dd985828601613d8e565b9150509250929050565b600081519050919050565b600082825260208201905092915050565b60005b83811015613e1d578082015181840152602081019050613e02565b83811115613e2c576000848401525b50505050565b6000613e3d82613de3565b613e478185613dee565b9350613e57818560208601613dff565b613e6081613a32565b840191505092915050565b60006020820190508181036000830152613e858184613e32565b905092915050565b60008115159050919050565b613ea281613e8d565b8114613ead57600080fd5b50565b600081359050613ebf81613e99565b92915050565b60008060008060808587031215613edf57613ede61396f565b5b6000613eed87828801613a13565b9450506020613efe87828801613990565b935050604085013567ffffffffffffffff811115613f1f57613f1e613974565b5b613f2b87828801613c7d565b9250506060613f3c87828801613eb0565b91505092959194509250565b613f518161389f565b82525050565b6000602082019050613f6c6000830184613f48565b92915050565b600080600060608486031215613f8b57613f8a61396f565b5b6000613f9986828701613a13565b9350506020613faa86828701613a13565b9250506040613fbb86828701613990565b9150509250925092565b600081519050919050565b600082825260208201905092915050565b6000613fec82613fc5565b613ff68185613fd0565b9350614006818560208601613dff565b61400f81613a32565b840191505092915050565b600060208201905081810360008301526140348184613fe1565b905092915050565b60006140478261387f565b9050919050565b6140578161403c565b811461406257600080fd5b50565b6000813590506140748161404e565b92915050565b6000806000606084860312156140935761409261396f565b5b60006140a186828701613a13565b93505060206140b286828701613990565b92505060406140c386828701614065565b9150509250925092565b600080604083850312156140e4576140e361396f565b5b60006140f285828601613990565b925050602061410385828601613990565b9150509250929050565b61411681613e8d565b82525050565b6000602082019050614131600083018461410d565b92915050565b7f6163636573732064656e69656420666f72206f776e6572000000000000000000600082015250565b600061416d601783613fd0565b915061417882614137565b602082019050919050565b6000602082019050818103600083015261419c81614160565b9050919050565b7f6163636573732064656e69656420666f7220636f6e73756d6572000000000000600082015250565b60006141d9601a83613fd0565b91506141e4826141a3565b602082019050919050565b60006020820190508181036000830152614208816141cc565b9050919050565b7f6163636573732064656e69656420666f72207375627363726962657200000000600082015250565b6000614245601c83613fd0565b91506142508261420f565b602082019050919050565b6000602082019050818103600083015261427481614238565b9050919050565b7f6d697373696e6720616464726573730000000000000000000000000000000000600082015250565b60006142b1600f83613fd0565b91506142bc8261427b565b602082019050919050565b600060208201905081810360008301526142e0816142a4565b9050919050565b7f4e487b7100000000000000000000000000000000000000000000000000000000600052601160045260246000fd5b60006143218261381f565b91507fffffffffffffffffffffffffffffffffffffffffffffffffffffffffffffffff821415614354576143536142e7565b5b600182019050919050565b7f6e6577206974656d2077617320616464656420746f20796f7572207265706f7260008201527f7400000000000000000000000000000000000000000000000000000000000000602082015250565b60006143bb602183613fd0565b91506143c68261435f565b604082019050919050565b60006040820190506143e66000830184613f48565b81810360208301526143f7816143ae565b905092915050565b7f4e487b7100000000000000000000000000000000000000000000000000000000600052603260045260246000fd5b7f646973707574652064656c657465640000000000000000000000000000000000600082015250565b6000614464600f83613fd0565b915061446f8261442e565b602082019050919050565b600060408201905061448f6000830184613f48565b81810360208301526144a081614457565b905092915050565b7f4e487b7100000000000000000000000000000000000000000000000000000000600052602260045260246000fd5b600060028204905060018216806144ef57607f821691505b60208210811415614503576145026144a8565b5b50919050565b600081905092915050565b7f44697370757465204f70656e65643a0000000000000000000000000000000000600082015250565b600061454a600f83614509565b915061455582614514565b600f82019050919050565b6000819050919050565b61457b6145768261381f565b614560565b82525050565b60008160601b9050919050565b600061459982614581565b9050919050565b60006145ab8261458e565b9050919050565b6145c36145be8261389f565b6145a0565b82525050565b60006145d482613fc5565b6145de8185614509565b93506145ee818560208601613dff565b80840191505092915050565b600081905092915050565b600061461082613de3565b61461a81856145fa565b935061462a818560208601613dff565b80840191505092915050565b60006146418261453d565b915061464d828961456a565b60208201915061465d82886145b2565b60148201915061466d82876145b2565b60148201915061467d82866145c9565b91506146898285614605565b915061469582846145c9565b9150819050979650505050505050565b7f6e65772064697370757465206f70656e65640000000000000000000000000000600082015250565b60006146db601283613fd0565b91506146e6826146a5565b602082019050919050565b60006040820190506147066000830184613f48565b8181036020830152614717816146ce565b905092915050565b7f646973707574652066696e616c697a6564000000000000000000000000000000600082015250565b6000614755601183613fd0565b91506147608261471f565b602082019050919050565b60006040820190506147806000830184613f48565b818103602083015261479181614748565b905092915050565b60006147a48261381f565b915060008214156147b8576147b76142e7565b5b600182039050919050565b60006147ce8261381f565b91506147d98361381f565b9250828210156147ec576147eb6142e7565b5b828203905092915050565b60006148028261381f565b915061480d8361381f565b9250827fffffffffffffffffffffffffffffffffffffffffffffffffffffffffffffffff03821115614842576148416142e7565b5b828201905092915050565b7f6e6f7420656c696769626c6520666f7220612066726565207265706f72740000600082015250565b6000614883601e83613fd0565b915061488e8261484d565b602082019050919050565b600060208201905081810360008301526148b281614876565b9050919050565b7f6163636573732064656e69656420666f722073656e6465720000000000000000600082015250565b60006148ef601883613fd0565b91506148fa826148b9565b602082019050919050565b6000602082019050818103600083015261491e816148e2565b9050919050565b7f6e6f7420746865206f776e657200000000000000000000000000000000000000600082015250565b600061495b600d83613fd0565b915061496682614925565b602082019050919050565b6000602082019050818103600083015261498a8161494e565b9050919050565b7f696e73756666696369656e742062616c616e63652f616d6f756e740000000000600082015250565b60006149c7601b83613fd0565b91506149d282614991565b602082019050919050565b600060208201905081810360008301526149f6816149ba565b9050919050565b6000614a0982866145c9565b9150614a1582856145b2565b601482019150614a25828461456a565b602082019150819050949350505050565b6000819050919050565b614a51614a4c82613761565b614a36565b82525050565b7f5b00000000000000000000000000000000000000000000000000000000000000600082015250565b6000614a8d600183614509565b9150614a9882614a57565b600182019050919050565b7f5d00000000000000000000000000000000000000000000000000000000000000600082015250565b6000614ad9600183614509565b9150614ae482614aa3565b600182019050919050565b6000614afb828a614a40565b602082019150614b0a82614a80565b9150614b16828961456a565b602082019150614b2682886145b2565b601482019150614b3682876145b2565b601482019150614b4682866145c9565b9150614b5282856145c9565b9150614b5e82846145c9565b9150614b6982614acc565b915081905098975050505050505050565b7f7573657220697320616c72656164792061207375627363726962657200000000600082015250565b6000614bb0601c83613fd0565b9150614bbb82614b7a565b602082019050919050565b60006020820190508181036000830152614bdf81614ba3565b9050919050565b7f7375627363726962657220616464656400000000000000000000000000000000600082015250565b6000614c1c601083613fd0565b9150614c2782614be6565b602082019050919050565b6000604082019050614c476000830184613f48565b8181036020830152614c5881614c0f565b905092915050565b7f2c00000000000000000000000000000000000000000000000000000000000000600082015250565b6000614c96600183614509565b9150614ca182614c60565b600182019050919050565b60008190508160005260206000209050919050565b60008154614cce816144d7565b614cd881866145fa565b94506001821660008114614cf35760018114614d0457614d37565b60ff19831686528186019350614d37565b614d0d85614cac565b60005b83811015614d2f57815481890152600182019150602081019050614d10565b838801955050505b50505092915050565b6000614d4c8286614a40565b602082019150614d5b82614a80565b9150614d6782856145b2565b601482019150614d7682614c89565b9150614d828284614cc1565b9150614d8d82614c89565b9150614d9882614acc565b915081905094935050505056fea26469706673582212205864f5ad28e08bf2102a582623501a734d3ff8d14985d84f9f9d06d522650da564736f6c634300080a0033",
  "immutableReferences": {},
  "source": "// SPDX-License-Identifier: CC-BY-4.0\npragma solidity >=0.4.22 <0.9.0;\n\n\ncontract CreditReport {\n  bytes32 constant private ZERO_BYTES = bytes32(0);\n  address constant private ZERO_ADDRESS = address(0);\n\n  struct Item {\n    string opendate;\n    string  description;\n    uint    amount;\n    uint    balance;\n    uint    limit;\n    string  paystatus;\n  }\n\n  struct ReportItem {\n    address subscriber;\n    bytes   item;\n  }\n\n  struct Inquiry {\n    address subscriber;\n    uint256 reqdate; // epoch timestamp\n  }\n\n  struct Dispute {\n    uint index;\n    address subscriber;\n    address consumer;\n    string  disputeDate;\n    ReportItem item;\n    string reason;\n    string status;\n  }\n\n  mapping(address => ReportItem[]) private reports;\n  mapping(address => uint256) private subscribers;\n\n  mapping(address => uint256) private consumers;\n  mapping(address => Inquiry[]) private inquiries;\n  mapping(address => Dispute[]) private disputes;\n\n  address[] private _subscribers;\n  address[] private _consumers;\n\n  uint total_consumers;\n\n  mapping (address => bytes32[]) message;\n\n  mapping (bytes => address) private _owner;\n\n  address private owner;\n  bool private initialized;\n\n  event SubscriberAdded(address addr, string message);\n  event SubscriberNotified(address addr, string message);\n  event ConsumerNotified(address addr, string message);\n\n  constructor() public {\n    owner = msg.sender;\n    initialized = true;\n    total_consumers = 0;\n  }\n\n  // Modifiers\n  modifier onlyOwner() {\n    require(msg.sender == owner, \"access denied for owner\");\n    _;\n  }\n\n  modifier isOwner(address addr) {\n    require(addr == owner, \"not the owner\");\n    _;\n  }\n\n  modifier validSender() {\n    require(msg.sender != ZERO_ADDRESS,\"access denied for sender\");\n    _;\n  }\n\n  modifier onlySubscriber() {\n    require(subscribers[msg.sender] != 0, \"access denied for subscriber\");\n    _;\n  }\n\n  modifier onlyConsumer() {\n    require(consumers[msg.sender] != 0, \"access denied for consumer\");\n    _;\n  }\n\n  modifier alreadySubscriber(address addr) {\n    bool found = false;\n    for (uint i = 0; i < _subscribers.length; i++) {\n      if (_subscribers[i] == addr) {\n        found = true;\n      }\n    }\n    require(found == false, \"user is already a subscriber\");\n    _;\n  }\n\n  modifier alreadyConsumer(address addr) {\n    bool found = false;\n    for (uint i = 0; i < _consumers.length; i++) {\n      if (_consumers[i] == addr) {\n        found = true;\n      }\n    }\n    require(found == false, \"user is already a consumer\");\n    _;\n  }\n\n  /**\n   * A consumer is entitled\n   */\n  modifier freeReportCheck(address consumer, address subscriber, uint256 reqtime) {\n    bool found = false;\n    uint256 subscriber_lastreq = reqtime;\n    for (uint i = inquiries[consumer].length; i > 0; i--) {\n      if (!found && subscribers[inquiries[consumer][i].subscriber] != 0) {\n          subscriber_lastreq = inquiries[consumer][i].reqdate;\n          found = true;\n      }\n    }\n\n    uint consumer_total = inquiries[consumer].length - 1;\n    uint256 consumer_lastreq = inquiries[consumer][consumer_total].reqdate;\n    require(\n      consumer_lastreq == 0 || (consumer_lastreq + 52 weeks) > reqtime || (subscriber_lastreq + 90 days) < reqtime,\n     \"not eligible for a free report\");\n     _;\n  }\n\n  modifier requiresFee(uint fee) {\n    require(msg.sender.balance > fee, \"insufficient balance/amount\");\n    _;\n  }\n\n  // Common privleges\n  /**\n   * retrieves the owner\n   */\n  function getOwner()\n    public\n    view\n    returns (address addr)\n  {\n    return owner;\n  }\n\n  function getUserRole()\n    public\n    view\n    validSender\n    returns (string memory)\n  {\n    if (msg.sender == owner) {\n      return string(\"owner\");\n    } else if (subscribers[msg.sender] != 0) {\n      return string(\"subscriber\");\n    } else if (consumers[msg.sender] != 0) {\n      return string(\"consumer\");\n    }\n    return string(\"unknown\");\n  }\n\n  function getConsumerReportTotal(address consumer)\n    public\n    view\n    returns (uint)\n  {\n    return _reportItemsTotal(consumer);\n  }\n\n  function getConsumerReportItem(address consumer,uint index)\n    public\n    view\n    returns (bytes memory)\n  {\n    return _reportItem(consumer, index);\n  }\n\n  function getBlocktime()\n    public\n    view\n    returns (uint256)\n  {\n    return block.timestamp;\n  }\n\n  /**\n   * The disputeDate is in ISO and must be converted to epoch timestamp before checking current time\n   * The currentTime is epoch timestamp provided by the caller\n   */\n  function checkExpiry(uint256 LastTimeStamp, uint256 currentTime)\n   public\n   pure\n   returns(bool success)\n  {\n    if (LastTimeStamp + 30 days >= currentTime) {\n      return true;\n    } else {\n      return false;\n    }\n  }\n\n  function sendMessage(address _recipient, bytes32 _message)\n    public\n  {\n    message[_recipient].push(_message);\n  }\n\n  function readMessage()\n    public\n    view\n    returns (bytes32[] memory)\n  {\n    return message[msg.sender];\n  }\n\n  // Owner-Administrator privileges\n  function getSubscribers()\n  public\n  view\n  onlyOwner\n  returns (address[] memory)\n  {\n    return _subscribers;\n  }\n\n  function getConsumers()\n  public\n  view\n  onlyOwner\n  returns (address[] memory)\n  {\n    return _consumers;\n  }\n\n  /**\n   * retrieves consumer report for the consumer by the owner so the consumer does not incur gas fees.\n   * to abide by law and allow free credit report to the consumer, cannot change the state on the contract,\n   * otherwise the method must pay gas fee. By not recording consumer self requests in the contract, keeps\n   * this function free.\n   */\n  function getFreeCreditReport(address consumer, address subscriber, uint256 reqtime)\n    public\n    payable\n    onlyOwner\n    freeReportCheck(consumer, subscriber, reqtime)\n    returns (bytes32)\n  {\n    Inquiry memory inquiry = Inquiry(consumer, reqtime);\n    inquiries[consumer].push(inquiry);\n    return _report(consumer);\n  }\n\n  /**\n   * because open dispute changes the state of the contract, gas fees applies,\n   * hence the consumer must start a dispute offline, and send to the owner to create a dispute and the owner pays the gas fee\n   */\n  function openDispute(address consumer, uint index, string memory disputeDate,string memory reason)\n    public\n    onlyOwner\n  {\n    ReportItem memory report = ReportItem(reports[consumer][index].subscriber,reports[consumer][index].item);\n    Dispute memory dispute = Dispute(index, report.subscriber, consumer, disputeDate, report, reason, \"\");\n    disputes[consumer].push(dispute);\n    message[report.subscriber].push(\n      keccak256(\n        abi.encodePacked(\n          \"Dispute Opened:\",\n          index,\n          report.subscriber,\n          consumer,\n          disputeDate,\n          report.item,\n          reason\n        )\n      )\n    );\n    emit SubscriberNotified(report.subscriber, \"new dispute opened\");\n  }\n\n  function getReportsByConsumer(address consumer)\n    public\n    view\n    onlyOwner\n    returns (bytes32)\n  {\n    return _report(consumer);\n  }\n\n  function purgeDispute(address consumer, uint index)\n    public\n    onlyOwner\n  {\n    delete disputes[consumer][index];\n    emit ConsumerNotified(consumer, \"dispute deleted\");\n  }\n\n  // Subscriber privileges\n  /**\n   * adds a new subscriber\n   */\n  function addSubscriber(address addr, uint256 _type)\n  public\n  onlyOwner\n  alreadySubscriber(addr)\n  {\n    require(addr != ZERO_ADDRESS,\"missing address\");\n    subscribers[addr] = _type;\n    _subscribers.push(addr);\n    emit SubscriberAdded(addr, \"subscriber added\");\n  }\n\n  /**\n   * adds an item to the consumer report by an existing subscriber, must contain the minimum:\n   *    subscriber, open date, amount, description, balance, limit, payment status\n   */\n  function addConsumerItem(address consumer, bytes memory item)\n    public\n    onlySubscriber\n  {\n    require(consumer != ZERO_ADDRESS,\"missing address\");\n    if (consumers[consumer] == 0) {\n      consumers[consumer] = 1;\n      _consumers.push(consumer);\n      total_consumers++;\n    }\n    ReportItem memory ritem = ReportItem(msg.sender, item);\n    reports[consumer].push(ritem);\n    emit ConsumerNotified(consumer, \"new item was added to your report\");\n  }\n\n  /**\n   * retrieves consumer report by a subscriber, fee is paid to the owner\n   */\n  function getConsumerReport(address consumer, uint reqtime, address payable to)\n    public\n    payable\n    onlySubscriber\n    isOwner(to)\n    requiresFee(0.001 ether)\n    returns (bytes32)\n  {\n    //to.transfer(0.001 ether);\n    Inquiry memory inquiry = Inquiry(msg.sender, reqtime);\n    inquiries[consumer].push(inquiry);\n    return _report(consumer);\n  }\n\n  function finalizeDispute(address consumer,uint index,string memory status, bool purge)\n    public\n    onlySubscriber\n  {\n    Dispute memory dispute = Dispute(\n      index,\n      disputes[consumer][index].subscriber,\n      disputes[consumer][index].consumer,\n      disputes[consumer][index].disputeDate,\n      disputes[consumer][index].item,\n      disputes[consumer][index].reason,\n      status\n    );\n\n    if (purge) {\n      delete disputes[consumer][index];\n    } else {\n      disputes[consumer][index] = dispute;\n    }\n    emit ConsumerNotified(consumer, \"dispute finalized\");\n  }\n\n  // Consumer previlieges\n  /**\n   * When the consumer is not entitled to a free annual report\n   */\n  function getCreditReport(uint256 reqtime)\n    public\n    payable\n    onlyConsumer\n    returns (bytes32)\n  {\n    Inquiry memory inquiry = Inquiry(msg.sender, reqtime);\n    inquiries[msg.sender].push(inquiry);\n    return _report(msg.sender);\n  }\n\n  function getInquiries()\n    public\n    view\n    onlyConsumer\n    returns (string memory)\n  {\n    string memory output = \"\";\n    for (uint i = 0; i < inquiries[msg.sender].length; i++) {\n      output = string(\n        abi.encodePacked(\n          output,\n          inquiries[msg.sender][i].subscriber,\n          inquiries[msg.sender][i].reqdate\n        )\n      );\n    }\n    return output;\n  }\n\n  /**\n   * The contract owner will pull a list of disputes,\n   * while iterating through each dispute,\n   * convert the disputeDate from ISO string to an epoch timestamp and get current time in epoch timestamp,\n   * check if the dispute is expired by more than 30 days from current time,\n   * if dispute is expired, delete the dispute and notifiy consumer\n   */\n  function getDisputes(address consumer)\n    public\n    view\n    onlyOwner\n    returns (bytes32)\n  {\n    bytes32 output = \"\";\n    for (uint i = 0; i < disputes[consumer].length; i++) {\n      Dispute memory _dispute = Dispute(\n        disputes[consumer][i].index,\n        disputes[consumer][i].subscriber,\n        disputes[consumer][i].consumer,\n        disputes[consumer][i].disputeDate,\n        disputes[consumer][i].item,\n        disputes[consumer][i].reason,\n        disputes[consumer][i].status\n      );\n      output = keccak256(\n        abi.encodePacked(\n          output,\n          \"[\",\n          _dispute.index,\n          _dispute.subscriber,\n          _dispute.consumer,\n          _dispute.disputeDate,\n          _dispute.reason,\n          _dispute.status,\n          \"]\"\n        )\n      );\n    }\n    return output;\n  }\n\n  // Internal privileges\n  function _report(address consumer)\n    internal\n    view\n    returns (bytes32)\n  {\n    bytes32 output;\n    for (uint i = 0; i < reports[consumer].length; i++) {\n      output = keccak256(abi.encodePacked(\n        output, \"[\",\n          reports[consumer][i].subscriber, \",\",\n          reports[consumer][i].item, \",\",\n        \"]\"\n      ));\n    }\n    return output;\n  }\n\n  function _reportItem(address consumer, uint index)\n    internal\n    view\n    returns (bytes memory)\n  {\n    return reports[consumer][index].item;\n  }\n\n  function _reportItemsTotal(address consumer)\n    internal\n    view\n    returns (uint)\n  {\n    return reports[consumer].length;\n  }\n}\n",
  "sourcePath": "G:\\projects\\pingleware-contracts\\contracts\\credit\\CreditReport.sol",
  "compiler": {
    "name": "solc",
    "version": "0.8.10+commit.fc410830.Emscripten.clang"
  },
  "schemaVersion": "3.4.3",
  "updatedAt": "2021-12-19T21:30:59.138Z",
  "devdoc": {
    "kind": "dev",
    "methods": {},
    "version": 1
  },
  "userdoc": {
    "kind": "user",
    "methods": {
      "addConsumerItem(address,bytes)": {
        "notice": "adds an item to the consumer report by an existing subscriber, must contain the minimum:    subscriber, open date, amount, description, balance, limit, payment status"
      },
      "addSubscriber(address,uint256)": {
        "notice": "adds a new subscriber"
      },
      "checkExpiry(uint256,uint256)": {
        "notice": "The disputeDate is in ISO and must be converted to epoch timestamp before checking current time The currentTime is epoch timestamp provided by the caller"
      },
      "getConsumerReport(address,uint256,address)": {
        "notice": "retrieves consumer report by a subscriber, fee is paid to the owner"
      },
      "getCreditReport(uint256)": {
        "notice": "When the consumer is not entitled to a free annual report"
      },
      "getDisputes(address)": {
        "notice": "The contract owner will pull a list of disputes, while iterating through each dispute, convert the disputeDate from ISO string to an epoch timestamp and get current time in epoch timestamp, check if the dispute is expired by more than 30 days from current time, if dispute is expired, delete the dispute and notifiy consumer"
      },
      "getFreeCreditReport(address,address,uint256)": {
        "notice": "retrieves consumer report for the consumer by the owner so the consumer does not incur gas fees. to abide by law and allow free credit report to the consumer, cannot change the state on the contract, otherwise the method must pay gas fee. By not recording consumer self requests in the contract, keeps this function free."
      },
      "getOwner()": {
        "notice": "retrieves the owner"
      },
      "openDispute(address,uint256,string,string)": {
        "notice": "because open dispute changes the state of the contract, gas fees applies, hence the consumer must start a dispute offline, and send to the owner to create a dispute and the owner pays the gas fee"
      }
    },
    "version": 1
  }
}