{
  "contractName": "CreditReportAgency",
  "abi": [
    {
      "inputs": [],
      "stateMutability": "nonpayable",
      "type": "constructor"
    },
    {
      "anonymous": false,
      "inputs": [
        {
          "indexed": false,
          "internalType": "address",
          "name": "addr",
          "type": "address"
        },
        {
          "indexed": false,
          "internalType": "string",
          "name": "message",
          "type": "string"
        }
      ],
      "name": "ConsumerNotified",
      "type": "event"
    },
    {
      "anonymous": false,
      "inputs": [
        {
          "indexed": false,
          "internalType": "address",
          "name": "addr",
          "type": "address"
        },
        {
          "indexed": false,
          "internalType": "string",
          "name": "message",
          "type": "string"
        }
      ],
      "name": "SubscriberAdded",
      "type": "event"
    },
    {
      "anonymous": false,
      "inputs": [
        {
          "indexed": false,
          "internalType": "address",
          "name": "addr",
          "type": "address"
        },
        {
          "indexed": false,
          "internalType": "string",
          "name": "message",
          "type": "string"
        }
      ],
      "name": "SubscriberNotified",
      "type": "event"
    },
    {
      "inputs": [],
      "name": "VERSION",
      "outputs": [
        {
          "internalType": "string",
          "name": "",
          "type": "string"
        }
      ],
      "stateMutability": "view",
      "type": "function"
    },
    {
      "inputs": [],
      "name": "WAIT",
      "outputs": [
        {
          "internalType": "uint256",
          "name": "",
          "type": "uint256"
        }
      ],
      "stateMutability": "view",
      "type": "function"
    },
    {
      "inputs": [],
      "name": "getOwner",
      "outputs": [
        {
          "internalType": "address",
          "name": "",
          "type": "address"
        }
      ],
      "stateMutability": "payable",
      "type": "function"
    },
    {
      "inputs": [],
      "name": "getUserRole",
      "outputs": [
        {
          "internalType": "string",
          "name": "",
          "type": "string"
        }
      ],
      "stateMutability": "payable",
      "type": "function"
    },
    {
      "inputs": [],
      "name": "getBlocktime",
      "outputs": [
        {
          "internalType": "uint256",
          "name": "",
          "type": "uint256"
        }
      ],
      "stateMutability": "view",
      "type": "function"
    },
    {
      "inputs": [
        {
          "internalType": "uint256",
          "name": "LastTimeStamp",
          "type": "uint256"
        },
        {
          "internalType": "uint256",
          "name": "currentTime",
          "type": "uint256"
        }
      ],
      "name": "checkExpiry",
      "outputs": [
        {
          "internalType": "bool",
          "name": "",
          "type": "bool"
        }
      ],
      "stateMutability": "pure",
      "type": "function"
    },
    {
      "inputs": [
        {
          "internalType": "address",
          "name": "addr",
          "type": "address"
        },
        {
          "internalType": "uint256",
          "name": "_type",
          "type": "uint256"
        },
        {
          "internalType": "bytes32",
          "name": "encrypted",
          "type": "bytes32"
        },
        {
          "internalType": "bytes",
          "name": "signature",
          "type": "bytes"
        }
      ],
      "name": "addSubscriber",
      "outputs": [],
      "stateMutability": "nonpayable",
      "type": "function"
    },
    {
      "inputs": [
        {
          "internalType": "address",
          "name": "_consumer",
          "type": "address"
        },
        {
          "internalType": "address",
          "name": "subscriber",
          "type": "address"
        },
        {
          "internalType": "uint256",
          "name": "reqtime",
          "type": "uint256"
        },
        {
          "internalType": "bytes32",
          "name": "encrypted",
          "type": "bytes32"
        },
        {
          "internalType": "bytes",
          "name": "signature",
          "type": "bytes"
        }
      ],
      "name": "getFreeCreditReport",
      "outputs": [
        {
          "internalType": "bytes32",
          "name": "",
          "type": "bytes32"
        }
      ],
      "stateMutability": "payable",
      "type": "function"
    },
    {
      "inputs": [
        {
          "internalType": "address",
          "name": "consumer",
          "type": "address"
        },
        {
          "internalType": "bytes32",
          "name": "encrypted",
          "type": "bytes32"
        },
        {
          "internalType": "bytes",
          "name": "signature",
          "type": "bytes"
        }
      ],
      "name": "getReportsByConsumer",
      "outputs": [
        {
          "internalType": "bytes32",
          "name": "",
          "type": "bytes32"
        }
      ],
      "stateMutability": "payable",
      "type": "function"
    },
    {
      "inputs": [
        {
          "internalType": "address",
          "name": "consumer",
          "type": "address"
        },
        {
          "internalType": "address",
          "name": "subscriber",
          "type": "address"
        },
        {
          "internalType": "uint256",
          "name": "index",
          "type": "uint256"
        },
        {
          "internalType": "string",
          "name": "disputeDate",
          "type": "string"
        },
        {
          "internalType": "string",
          "name": "reason",
          "type": "string"
        },
        {
          "internalType": "bytes32",
          "name": "encrypted",
          "type": "bytes32"
        },
        {
          "internalType": "bytes",
          "name": "signature",
          "type": "bytes"
        }
      ],
      "name": "openDispute",
      "outputs": [],
      "stateMutability": "nonpayable",
      "type": "function"
    },
    {
      "inputs": [
        {
          "internalType": "address",
          "name": "consumer",
          "type": "address"
        },
        {
          "internalType": "bytes",
          "name": "item",
          "type": "bytes"
        }
      ],
      "name": "addConsumerItem",
      "outputs": [],
      "stateMutability": "nonpayable",
      "type": "function"
    },
    {
      "inputs": [
        {
          "internalType": "address",
          "name": "_recipient",
          "type": "address"
        },
        {
          "internalType": "bytes32",
          "name": "_message",
          "type": "bytes32"
        }
      ],
      "name": "sendMessage",
      "outputs": [],
      "stateMutability": "nonpayable",
      "type": "function"
    },
    {
      "inputs": [],
      "name": "readMessage",
      "outputs": [
        {
          "internalType": "bytes32[]",
          "name": "",
          "type": "bytes32[]"
        }
      ],
      "stateMutability": "view",
      "type": "function"
    },
    {
      "inputs": [
        {
          "internalType": "address",
          "name": "consumer",
          "type": "address"
        },
        {
          "internalType": "uint256",
          "name": "index",
          "type": "uint256"
        },
        {
          "internalType": "bytes32",
          "name": "encrypted",
          "type": "bytes32"
        },
        {
          "internalType": "bytes",
          "name": "signature",
          "type": "bytes"
        }
      ],
      "name": "purgeDispute",
      "outputs": [],
      "stateMutability": "nonpayable",
      "type": "function"
    },
    {
      "inputs": [
        {
          "internalType": "address",
          "name": "consumer",
          "type": "address"
        },
        {
          "internalType": "uint256",
          "name": "reqtime",
          "type": "uint256"
        },
        {
          "internalType": "address payable",
          "name": "to",
          "type": "address"
        },
        {
          "internalType": "bytes32",
          "name": "encrypted",
          "type": "bytes32"
        },
        {
          "internalType": "bytes",
          "name": "signature",
          "type": "bytes"
        }
      ],
      "name": "getConsumerReport",
      "outputs": [
        {
          "internalType": "bytes32",
          "name": "",
          "type": "bytes32"
        }
      ],
      "stateMutability": "payable",
      "type": "function"
    },
    {
      "inputs": [
        {
          "internalType": "uint256",
          "name": "reqtime",
          "type": "uint256"
        }
      ],
      "name": "getCreditReport",
      "outputs": [
        {
          "internalType": "bytes32",
          "name": "",
          "type": "bytes32"
        }
      ],
      "stateMutability": "payable",
      "type": "function"
    },
    {
      "inputs": [],
      "name": "getInquiries",
      "outputs": [
        {
          "internalType": "string",
          "name": "",
          "type": "string"
        }
      ],
      "stateMutability": "payable",
      "type": "function"
    },
    {
      "inputs": [
        {
          "internalType": "address",
          "name": "consumer",
          "type": "address"
        },
        {
          "internalType": "uint256",
          "name": "index",
          "type": "uint256"
        },
        {
          "internalType": "string",
          "name": "status",
          "type": "string"
        },
        {
          "internalType": "bool",
          "name": "purge",
          "type": "bool"
        }
      ],
      "name": "finalizeDispute",
      "outputs": [],
      "stateMutability": "nonpayable",
      "type": "function"
    },
    {
      "inputs": [
        {
          "internalType": "address",
          "name": "consumer",
          "type": "address"
        },
        {
          "internalType": "bytes32",
          "name": "encrypted",
          "type": "bytes32"
        },
        {
          "internalType": "bytes",
          "name": "signature",
          "type": "bytes"
        }
      ],
      "name": "getDisputes",
      "outputs": [
        {
          "internalType": "bytes32",
          "name": "",
          "type": "bytes32"
        }
      ],
      "stateMutability": "payable",
      "type": "function"
    }
  ],
  "bytecode": "0x6080604052600060015560006004556000600555600060065534801561002457600080fd5b5060008054600160a060020a03191633178155426001556002556135ec8061004d6000396000f3fe6080604052600436106101185760003560e060020a9004806379fdb521116100a4578063bf04a10d11610068578063bf04a10d146102cf578063ca0cb913146102e4578063d7fdd770146102f7578063d91ed51d14610327578063ffa1ad741461032f57600080fd5b806379fdb52114610247578063893d20e8146102675780639ce0632814610287578063b6180f51146102a7578063b8fb3a51146102ba57600080fd5b806338cf7a27116100eb57806338cf7a271461018b5780633df5d956146101ad578063489adb6c146101cd5780636df2ddd8146101e057806375cb1c431461022757600080fd5b8063031d5d011461011d5780630501b79f1461014857806318a92881146101655780632ff12c2f14610178575b600080fd5b34801561012957600080fd5b50610132610378565b60405161013f9190612ac9565b60405180910390f35b34801561015457600080fd5b50425b60405190815260200161013f565b610157610173366004612b0d565b6103d9565b610157610186366004612c03565b610537565b34801561019757600080fd5b506101ab6101a6366004612c5c565b610625565b005b3480156101b957600080fd5b506101ab6101c8366004612cac565b610789565b6101576101db366004612c03565b610918565b3480156101ec57600080fd5b506101ab6101fb366004612d0f565b600160a060020a0390911660009081526003602090815260408220805460018101825590835291200155565b34801561023357600080fd5b506101ab610242366004612d49565b6109fc565b34801561025357600080fd5b506101ab610262366004612db5565b610b0c565b61026f610d6c565b604051600160a060020a03909116815260200161013f565b34801561029357600080fd5b506101ab6102a2366004612cac565b610e42565b6101576102b5366004612e76565b610f96565b3480156102c657600080fd5b50610157601e81565b6102d7611199565b60405161013f9190612f44565b6101576102f2366004612f57565b61140e565b34801561030357600080fd5b50610317610312366004612fb4565b6116b0565b604051901515815260200161013f565b6102d76116d6565b34801561033b57600080fd5b506102d76040518060400160405280600581526020017f312e302e3500000000000000000000000000000000000000000000000000000081525081565b336000908152600360209081526040918290208054835181840281018401909452808452606093928301828280156103cf57602002820191906000526020600020905b8154815260200190600101908083116103bb575b5050505050905090565b600073__Consumer______________________________6322a871d06040518163ffffffff1660e060020a028152600401602060405180830381865af4158015610427573d6000803e3d6000fd5b505050506040513d601f19601f8201168201806040525081019061044b9190612fd6565b61049f5760405160e560020a62461bcd02815260206004820152601a60248201527f6163636573732064656e69656420666f7220636f6e73756d657200000000000060448201526064015b60405180910390fd5b6040517f551f8e2a000000000000000000000000000000000000000000000000000000008152336004820181905260248201526044810183905273__CreditInquiry_________________________9063551f8e2a9060640160006040518083038186803b15801561051057600080fd5b505af4158015610524573d6000803e3d6000fd5b50505050610531336117a5565b92915050565b6000805483908390600160a060020a031633146105695760405160e560020a62461bcd02815260040161049690612ff3565b60005460405160e160020a631ce6ef1902815273__ECVerify______________________________916339cdde32916105b29186918691600160a060020a03169060040161302a565b602060405180830381865af41580156105cf573d6000803e3d6000fd5b505050506040513d601f19601f820116820180604052508101906105f39190612fd6565b6106125760405160e560020a62461bcd0281526004016104969061305c565b61061b866117a5565b9695505050505050565b600160a060020a03821661064e5760405160e560020a62461bcd02815260040161049690613093565b73__Subscriber____________________________635ec9df5b6040518163ffffffff1660e060020a028152600401602060405180830381865af415801561069a573d6000803e3d6000fd5b505050506040513d601f19601f820116820180604052508101906106be9190612fd6565b6106dd5760405160e560020a62461bcd028152600401610496906130ca565b6106e6826117b0565b6106f0828261185a565b60408051600160a060020a0384168152602081018290526021818301527f6e6577206974656d2077617320616464656420746f20796f7572207265706f7260608201527f7400000000000000000000000000000000000000000000000000000000000000608082015290517fd87358bdb9fb3fd22dc44bf9aec10b565d35f5b8c903db24b4addfb35594895c9181900360a00190a15050565b60005482908290600160a060020a031633146107ba5760405160e560020a62461bcd02815260040161049690612ff3565b60005460405160e160020a631ce6ef1902815273__ECVerify______________________________916339cdde32916108039186918691600160a060020a03169060040161302a565b602060405180830381865af4158015610820573d6000803e3d6000fd5b505050506040513d601f19601f820116820180604052508101906108449190612fd6565b6108635760405160e560020a62461bcd0281526004016104969061305c565b600160a060020a03861661088c5760405160e560020a62461bcd02815260040161049690613093565b6108968686611907565b156109105760408051600160a060020a0388168152602081018290526010918101919091527f737562736372696265722061646465640000000000000000000000000000000060608201527fae28b319183e2d4a0f4721e7fc4bb1c25a05610d1e2efb85b10dfbf7bbf4761b906080015b60405180910390a15b505050505050565b6000805483908390600160a060020a0316331461094a5760405160e560020a62461bcd02815260040161049690612ff3565b60005460405160e160020a631ce6ef1902815273__ECVerify______________________________916339cdde32916109939186918691600160a060020a03169060040161302a565b602060405180830381865af41580156109b0573d6000803e3d6000fd5b505050506040513d601f19601f820116820180604052508101906109d49190612fd6565b6109f35760405160e560020a62461bcd0281526004016104969061305c565b61061b866119ba565b73__Subscriber____________________________635ec9df5b6040518163ffffffff1660e060020a028152600401602060405180830381865af4158015610a48573d6000803e3d6000fd5b505050506040513d601f19601f82011682018060405250810190610a6c9190612fd6565b610a8b5760405160e560020a62461bcd028152600401610496906130ca565b610a9784848484611e96565b60408051600160a060020a0386168152602081018290526011818301527f646973707574652066696e616c697a6564000000000000000000000000000000606082015290517fd87358bdb9fb3fd22dc44bf9aec10b565d35f5b8c903db24b4addfb35594895c9181900360800190a150505050565b60005482908290600160a060020a03163314610b3d5760405160e560020a62461bcd02815260040161049690612ff3565b60005460405160e160020a631ce6ef1902815273__ECVerify______________________________916339cdde3291610b869186918691600160a060020a03169060040161302a565b602060405180830381865af4158015610ba3573d6000803e3d6000fd5b505050506040513d601f19601f82011682018060405250810190610bc79190612fd6565b610be65760405160e560020a62461bcd0281526004016104969061305c565b6040517f70d6e7b4000000000000000000000000000000000000000000000000000000008152600160a060020a038a16600482015260248101889052610c95908a908a9073__CreditReport__________________________906370d6e7b490604401600060405180830381865af4158015610c66573d6000803e3d6000fd5b505050506040513d6000823e601f3d908101601f19168201604052610c8e9190810190613101565b89896123a1565b600160a060020a0388166000908152600360209081526040918290209151610cc7918a918c918e918c918c9101613178565b60408051601f198184030181528282528051602091820120845460018101865560009586529482902090940193909355600160a060020a038b1682529181018290526012818301527f6e65772064697370757465206f70656e65640000000000000000000000000000606082015290517fde371f040710867afadb0d380ec315de30e2cdd4edd5062dd8c82c7418784ad79181900360800190a1505050505050505050565b6000601e600154610d7d9190613221565b4211610dce5760405160e560020a62461bcd02815260206004820152601060248201527f72617465206c696d6974206572726f72000000000000000000000000000000006044820152606401610496565b601e600154610ddd9190613221565b4211610e2e5760405160e560020a62461bcd02815260206004820152601060248201527f72617465206c696d6974206572726f72000000000000000000000000000000006044820152606401610496565b5042600155600054600160a060020a031690565b60005482908290600160a060020a03163314610e735760405160e560020a62461bcd02815260040161049690612ff3565b60005460405160e160020a631ce6ef1902815273__ECVerify______________________________916339cdde3291610ebc9186918691600160a060020a03169060040161302a565b602060405180830381865af4158015610ed9573d6000803e3d6000fd5b505050506040513d601f19601f82011682018060405250810190610efd9190612fd6565b610f1c5760405160e560020a62461bcd0281526004016104969061305c565b610f2686866124db565b60408051600160a060020a038816815260208101829052600f918101919091527f646973707574652064656c65746564000000000000000000000000000000000060608201527fd87358bdb9fb3fd22dc44bf9aec10b565d35f5b8c903db24b4addfb35594895c90608001610907565b6000805483908390600160a060020a03163314610fc85760405160e560020a62461bcd02815260040161049690612ff3565b60005460405160e160020a631ce6ef1902815273__ECVerify______________________________916339cdde32916110119186918691600160a060020a03169060040161302a565b602060405180830381865af415801561102e573d6000803e3d6000fd5b505050506040513d601f19601f820116820180604052508101906110529190612fd6565b6110715760405160e560020a62461bcd0281526004016104969061305c565b61107c88888861257a565b6110f15760405160e560020a62461bcd02815260206004820152602760248201527f6e6f7420656c696769626c6520666f722061206672656520636f6e73756d657260448201527f207265706f7274000000000000000000000000000000000000000000000000006064820152608401610496565b6040517f551f8e2a000000000000000000000000000000000000000000000000000000008152600160a060020a03808a166004830152881660248201526044810187905273__CreditInquiry_________________________9063551f8e2a9060640160006040518083038186803b15801561116c57600080fd5b505af4158015611180573d6000803e3d6000fd5b5050505061118d886117a5565b98975050505050505050565b6060336111eb5760405160e560020a62461bcd02815260206004820152601860248201527f6163636573732064656e69656420666f722073656e64657200000000000000006044820152606401610496565b6111f3610d6c565b600160a060020a031633600160a060020a03161415611244575060408051808201909152600581527f6f776e6572000000000000000000000000000000000000000000000000000000602082015290565b6040517fc4804ef000000000000000000000000000000000000000000000000000000000815233600482015273__Subscriber____________________________9063c4804ef090602401602060405180830381865af41580156112ac573d6000803e3d6000fd5b505050506040513d601f19601f820116820180604052508101906112d09190612fd6565b1561130d575060408051808201909152600a81527f7375627363726962657200000000000000000000000000000000000000000000602082015290565b6040517f834ff73900000000000000000000000000000000000000000000000000000000815233600482015273__Consumer______________________________9063834ff73990602401602060405180830381865af4158015611375573d6000803e3d6000fd5b505050506040513d601f19601f820116820180604052508101906113999190612fd6565b156113d6575060408051808201909152600881527f636f6e73756d6572000000000000000000000000000000000000000000000000602082015290565b5060408051808201909152600781527f756e6b6e6f776e00000000000000000000000000000000000000000000000000602082015290565b60008054849084908490600160a060020a038085169116146114755760405160e560020a62461bcd02815260206004820152601c60248201527f6f776e6572206163636573732064656e69656420666f722075736572000000006044820152606401610496565b60005460405160e160020a631ce6ef1902815273__ECVerify______________________________916339cdde32916114be9186918691600160a060020a03169060040161302a565b602060405180830381865af41580156114db573d6000803e3d6000fd5b505050506040513d601f19601f820116820180604052508101906114ff9190612fd6565b61151e5760405160e560020a62461bcd0281526004016104969061305c565b66038d7ea4c68000333181106115795760405160e560020a62461bcd02815260206004820152601b60248201527f696e73756666696369656e742062616c616e63652f616d6f756e7400000000006044820152606401610496565b73__Subscriber____________________________635ec9df5b6040518163ffffffff1660e060020a028152600401602060405180830381865af41580156115c5573d6000803e3d6000fd5b505050506040513d601f19601f820116820180604052508101906115e99190612fd6565b6116085760405160e560020a62461bcd028152600401610496906130ca565b6040517f551f8e2a000000000000000000000000000000000000000000000000000000008152600160a060020a038b166004820152336024820152604481018a905273__CreditInquiry_________________________9063551f8e2a9060640160006040518083038186803b15801561168157600080fd5b505af4158015611695573d6000803e3d6000fd5b505050506116a28a6117a5565b9a9950505050505050505050565b6000816116c08462278d00613221565b106116cd57506001610531565b50600092915050565b606073__Consumer______________________________6322a871d06040518163ffffffff1660e060020a028152600401602060405180830381865af4158015611724573d6000803e3d6000fd5b505050506040513d601f19601f820116820180604052508101906117489190612fd6565b6117975760405160e560020a62461bcd02815260206004820152601a60248201527f6163636573732064656e69656420666f7220636f6e73756d65720000000000006044820152606401610496565b6117a033612663565b905090565b60006105318261277b565b600160a060020a03811660009081527f89e51bdecbc263fe09be00aeff43205f218a6e698e087f6c8baa6be3620ddfa06020526040902054611857577f89e51bdecbc263fe09be00aeff43205f218a6e698e087f6c8baa6be3620ddfa180546001810182556000919091527f118d60bc0c9c8d2ac11ae97523687549cfca1aa47f178f9144d00b67d660deff018054600160a060020a031916600160a060020a0383161790555b50565b600160a060020a0382166118835760405160e560020a62461bcd02815260040161049690613093565b600080516020613557833981519152600160a060020a0383811660009081526020928352604080822081518083019092523382528185018681528154600180820184559285529386902083516002909502018054600160a060020a03191694909516939093178455915180519194611900938501929101906129fa565b5050505050565b60006119128361288a565b6116cd5750600160a060020a03821660008181527f4317346ae582bd8e389df457fdce80980031cc45c7f93fb7267b8465e659af72602052604081208390557f4317346ae582bd8e389df457fdce80980031cc45c7f93fb7267b8465e659af73805460018181018355919092527fc003a111edd2c32938fc4d3e5cd9e5bef59e92448f43b16d35dac2870b5cea4f9091018054600160a060020a031916909217909155610531565b600080805b600160a060020a03841660009081526000805160206135978339815191526020526040902054811015611e8f5760006040518060c00160405280611a0e60008051602061359783398151915290565b600160a060020a038816600090815260209190915260409020805485908110611a3957611a39613239565b600091825260209182902060069091020154600160a060020a0316825201611a6c60008051602061359783398151915290565b600160a060020a038816600090815260209190915260409020805485908110611a9757611a97613239565b600091825260209182902060016006909202010154600160a060020a0316825201611acd60008051602061359783398151915290565b600160a060020a038816600090815260209190915260409020805485908110611af857611af8613239565b90600052602060002090600602016002018054611b1490613252565b80601f0160208091040260200160405190810160405280929190818152602001828054611b4090613252565b8015611b8d5780601f10611b6257610100808354040283529160200191611b8d565b820191906000526020600020905b815481529060010190602001808311611b7057829003601f168201915b50505050508152602001611bac60008051602061359783398151915290565b600160a060020a038816600090815260209190915260409020805485908110611bd757611bd7613239565b90600052602060002090600602016003018054611bf390613252565b80601f0160208091040260200160405190810160405280929190818152602001828054611c1f90613252565b8015611c6c5780601f10611c4157610100808354040283529160200191611c6c565b820191906000526020600020905b815481529060010190602001808311611c4f57829003601f168201915b50505050508152602001611c8b60008051602061359783398151915290565b600160a060020a038816600090815260209190915260409020805485908110611cb657611cb6613239565b90600052602060002090600602016004018054611cd290613252565b80601f0160208091040260200160405190810160405280929190818152602001828054611cfe90613252565b8015611d4b5780601f10611d2057610100808354040283529160200191611d4b565b820191906000526020600020905b815481529060010190602001808311611d2e57829003601f168201915b50505050508152602001611d6a60008051602061359783398151915290565b600160a060020a038816600090815260209190915260409020805485908110611d9557611d95613239565b90600052602060002090600602016005018054611db190613252565b80601f0160208091040260200160405190810160405280929190818152602001828054611ddd90613252565b8015611e2a5780601f10611dff57610100808354040283529160200191611e2a565b820191906000526020600020905b815481529060010190602001808311611e0d57829003601f168201915b505050505081525090508281600001518260200151836040015184608001518560a00151604051602001611e6396959493929190613290565b604051602081830303815290604052805190602001209250508080611e8790613361565b9150506119bf565b5092915050565b60006040518060c00160405280611eb860008051602061359783398151915290565b600160a060020a038816600090815260209190915260409020805487908110611ee357611ee3613239565b600091825260209182902060069091020154600160a060020a0316825201611f1660008051602061359783398151915290565b600160a060020a038816600090815260209190915260409020805487908110611f4157611f41613239565b600091825260209182902060016006909202010154600160a060020a0316825201611f7760008051602061359783398151915290565b600160a060020a038816600090815260209190915260409020805487908110611fa257611fa2613239565b90600052602060002090600602016002018054611fbe90613252565b80601f0160208091040260200160405190810160405280929190818152602001828054611fea90613252565b80156120375780601f1061200c57610100808354040283529160200191612037565b820191906000526020600020905b81548152906001019060200180831161201a57829003601f168201915b5050505050815260200161205660008051602061359783398151915290565b600160a060020a03881660009081526020919091526040902080548790811061208157612081613239565b9060005260206000209060060201600301805461209d90613252565b80601f01602080910402602001604051908101604052809291908181526020018280546120c990613252565b80156121165780601f106120eb57610100808354040283529160200191612116565b820191906000526020600020905b8154815290600101906020018083116120f957829003601f168201915b5050505050815260200161213560008051602061359783398151915290565b600160a060020a03881660009081526020919091526040902080548790811061216057612160613239565b9060005260206000209060060201600401805461217c90613252565b80601f01602080910402602001604051908101604052809291908181526020018280546121a890613252565b80156121f55780601f106121ca576101008083540402835291602001916121f5565b820191906000526020600020905b8154815290600101906020018083116121d857829003601f168201915b5050505050815260200184815250905081156122ab57600160a060020a03851660009081526000805160206135978339815191526020526040902080548590811061224257612242613239565b6000918252602082206006909102018054600160a060020a0319908116825560018201805490911690559061227a6002830182612a7e565b612288600383016000612a7e565b612296600483016000612a7e565b6122a4600583016000612a7e565b5050611900565b600160a060020a0385166000908152600080516020613597833981519152602052604090208054829190869081106122e5576122e5613239565b600091825260209182902083516006909202018054600160a060020a03928316600160a060020a03199182161782558484015160018301805491909416911617909155604083015180519192612343926002850192909101906129fa565b506060820151805161235f9160038401916020909101906129fa565b506080820151805161237b9160048401916020909101906129fa565b5060a082015180516123979160058401916020909101906129fa565b5050505050505050565b60006040518060c0016040528086600160a060020a0316815260200187600160a060020a0316815260200184815260200185815260200183815260200160405180602001604052806000815250815250905061240860008051602061359783398151915290565b600160a060020a038088166000908152602092835260408082208054600181810183559184529285902086516006909402018054938516600160a060020a0319948516178155868601519181018054929095169190931617909255908301518051849361247c9260028501929101906129fa565b50606082015180516124989160038401916020909101906129fa565b50608082015180516124b49160048401916020909101906129fa565b5060a082015180516124d09160058401916020909101906129fa565b505050505050505050565b600160a060020a03821660009081526000805160206135978339815191526020526040902080548290811061251257612512613239565b6000918252602082206006909102018054600160a060020a0319908116825560018201805490911690559061254a6002830182612a7e565b612558600383016000612a7e565b612566600483016000612a7e565b612574600583016000612a7e565b50505050565b60048190556000808061258c86612929565b90505b80156125e657811580156125bd575084600160a060020a03166125b28783612951565b600160a060020a0316145b156125d4576125cc86826129a9565b600455600191505b806125de8161337c565b91505061258f565b5060016125f286612929565b6125fc9190613393565b600581905561260c9086906129a9565b6006819055158061262d5750826006546301dfe20061262b9190613221565b115b806126475750826004546276a7006126459190613221565b105b1561265657600191505061265c565b60009150505b9392505050565b60408051602081019091526000808252606091905b600160a060020a03841660009081526000805160206135778339815191526020526040902054811015611e8f57600160a060020a0384166000908152600080516020613577833981519152602052604090208054839190839081106126df576126df613239565b6000918252602090912060029091020154600160a060020a0316600080516020613577833981519152600160a060020a03871660009081526020919091526040902080548490811061273357612733613239565b906000526020600020906002020160010154604051602001612757939291906133aa565b6040516020818303038152906040529150808061277390613361565b915050612678565b60008060005b600160a060020a03841660009081526000805160206135578339815191526020526040902054811015611e8f57600160a060020a0384166000908152600080516020613557833981519152602052604090208054839190839081106127e8576127e8613239565b6000918252602090912060029091020154600160a060020a0316600080516020613557833981519152600160a060020a03871660009081526020919091526040902080548490811061283c5761283c613239565b906000526020600020906002020160010160405160200161285f939291906133ef565b604051602081830303815290604052805190602001209150808061288290613361565b915050612781565b600080805b7f4317346ae582bd8e389df457fdce80980031cc45c7f93fb7267b8465e659af7354811015611e8f57600160a060020a0384167f4317346ae582bd8e389df457fdce80980031cc45c7f93fb7267b8465e659af7260010182815481106128f7576128f7613239565b600091825260209091200154600160a060020a0316141561291757600191505b8061292181613361565b91505061288f565b600160a060020a03166000908152600080516020613577833981519152602052604090205490565b600160a060020a03821660009081526000805160206135778339815191526020526040812080548390811061298857612988613239565b6000918252602090912060029091020154600160a060020a03169392505050565b600160a060020a0382166000908152600080516020613577833981519152602052604081208054839081106129e0576129e0613239565b906000526020600020906002020160010154905092915050565b828054612a0690613252565b90600052602060002090601f016020900481019282612a285760008555612a6e565b82601f10612a4157805160ff1916838001178555612a6e565b82800160010185558215612a6e579182015b82811115612a6e578251825591602001919060010190612a53565b50612a7a929150612ab4565b5090565b508054612a8a90613252565b6000825580601f10612a9a575050565b601f01602090049060005260206000209081019061185791905b5b80821115612a7a5760008155600101612ab5565b6020808252825182820181905260009190848201906040850190845b81811015612b0157835183529284019291840191600101612ae5565b50909695505050505050565b600060208284031215612b1f57600080fd5b5035919050565b600160a060020a038116811461185757600080fd5b60e060020a634e487b7102600052604160045260246000fd5b604051601f8201601f1916810167ffffffffffffffff81118282101715612b7d57612b7d612b3b565b604052919050565b600067ffffffffffffffff821115612b9f57612b9f612b3b565b50601f01601f191660200190565b600082601f830112612bbe57600080fd5b8135612bd1612bcc82612b85565b612b54565b818152846020838601011115612be657600080fd5b816020850160208301376000918101602001919091529392505050565b600080600060608486031215612c1857600080fd5b8335612c2381612b26565b925060208401359150604084013567ffffffffffffffff811115612c4657600080fd5b612c5286828701612bad565b9150509250925092565b60008060408385031215612c6f57600080fd5b8235612c7a81612b26565b9150602083013567ffffffffffffffff811115612c9657600080fd5b612ca285828601612bad565b9150509250929050565b60008060008060808587031215612cc257600080fd5b8435612ccd81612b26565b93506020850135925060408501359150606085013567ffffffffffffffff811115612cf757600080fd5b612d0387828801612bad565b91505092959194509250565b60008060408385031215612d2257600080fd5b8235612d2d81612b26565b946020939093013593505050565b801515811461185757600080fd5b60008060008060808587031215612d5f57600080fd5b8435612d6a81612b26565b935060208501359250604085013567ffffffffffffffff811115612d8d57600080fd5b612d9987828801612bad565b9250506060850135612daa81612d3b565b939692955090935050565b600080600080600080600060e0888a031215612dd057600080fd5b8735612ddb81612b26565b96506020880135612deb81612b26565b955060408801359450606088013567ffffffffffffffff80821115612e0f57600080fd5b612e1b8b838c01612bad565b955060808a0135915080821115612e3157600080fd5b612e3d8b838c01612bad565b945060a08a0135935060c08a0135915080821115612e5a57600080fd5b50612e678a828b01612bad565b91505092959891949750929550565b600080600080600060a08688031215612e8e57600080fd5b8535612e9981612b26565b94506020860135612ea981612b26565b93506040860135925060608601359150608086013567ffffffffffffffff811115612ed357600080fd5b612edf88828901612bad565b9150509295509295909350565b60005b83811015612f07578181015183820152602001612eef565b838111156125745750506000910152565b60008151808452612f30816020860160208601612eec565b601f01601f19169290920160200192915050565b60208152600061265c6020830184612f18565b600080600080600060a08688031215612f6f57600080fd5b8535612f7a81612b26565b9450602086013593506040860135612f9181612b26565b925060608601359150608086013567ffffffffffffffff811115612ed357600080fd5b60008060408385031215612fc757600080fd5b50508035926020909101359150565b600060208284031215612fe857600080fd5b815161265c81612d3b565b60208082526017908201527f6163636573732064656e69656420666f72206f776e6572000000000000000000604082015260600190565b8381526060602082015260006130436060830185612f18565b9050600160a060020a0383166040830152949350505050565b6020808252601e908201527f6163636573732064656e6965642c206f776e6572206e6f742076616c69640000604082015260600190565b6020808252600f908201527f6d697373696e6720616464726573730000000000000000000000000000000000604082015260600190565b6020808252601c908201527f6163636573732064656e69656420666f72207375627363726962657200000000604082015260600190565b60006020828403121561311357600080fd5b815167ffffffffffffffff81111561312a57600080fd5b8201601f8101841361313b57600080fd5b8051613149612bcc82612b85565b81815285602083850101111561315e57600080fd5b61316f826020830160208601612eec565b95945050505050565b7f44697370757465204f70656e65643a0000000000000000000000000000000000815285600f82015260006c01000000000000000000000000600160a060020a038181891602602f85015281818816026043850152505083516131e2816057850160208801612eec565b8351908301906131f9816057840160208801612eec565b01605701979650505050505050565b60e060020a634e487b7102600052601160045260246000fd5b6000821982111561323457613234613208565b500190565b60e060020a634e487b7102600052603260045260246000fd5b60028104600182168061326657607f821691505b6020821081141561328a5760e060020a634e487b7102600052602260045260246000fd5b50919050565b8681527f5b00000000000000000000000000000000000000000000000000000000000000602082015260006c01000000000000000000000000600160a060020a0381818a1602602185015281818916026035850152505084516132fa816049850160208901612eec565b845190830190613311816049840160208901612eec565b8451910190613327816049840160208801612eec565b7f5d0000000000000000000000000000000000000000000000000000000000000060499290910191820152604a0198975050505050505050565b600060001982141561337557613375613208565b5060010190565b60008161338b5761338b613208565b506000190190565b6000828210156133a5576133a5613208565b500390565b600084516133bc818460208901612eec565b600160a060020a03949094166c010000000000000000000000000291909301908152601481019190915260340192915050565b838152600060207f5b00000000000000000000000000000000000000000000000000000000000000818401526c01000000000000000000000000600160a060020a0386160260218401527f2c0000000000000000000000000000000000000000000000000000000000000060358401526036600085548160028204905060018083168061347d57607f831692505b86831081141561349e5760e060020a634e487b710285526022600452602485fd5b8080156134b257600181146134c7576134f8565b60ff1985168a880152838a01870195506134f8565b60008b81526020902060005b858110156134ee5781548c82018a01529084019089016134d3565b505086848b010195505b505050505061118d61352d827f2c00000000000000000000000000000000000000000000000000000000000000815260010190565b7f5d0000000000000000000000000000000000000000000000000000000000000081526001019056fe1976c9d94995177a9d059b4762326b22b4271d3517bd9ff8e9cca11477431e68c9bd89c8aa20bb12e3e84ed83a939d0b94623f7d7460b60dcb76099d9fe92b72e30db33f9a0e03d58541aaa29c619b528d7e9bd6e5fee0ceed9cb32c10db6416a2646970667358221220c9c93527d0c904551c4e0dfac594340380bc49051afed57a0b1ffce77bb1bd9264736f6c634300080a0033",
  "immutableReferences": {},
  "source": "// SPDX-License-Identifier: CC-BY-4.0\npragma solidity >=0.4.22 <0.9.0;\n\nimport \"../Version.sol\";\nimport \"../Owned.sol\";\nimport \"./Consumer.sol\";\nimport \"./Subscriber.sol\";\nimport \"./CreditInquiry.sol\";\nimport \"./CreditReport.sol\";\nimport \"./CreditDispute.sol\";\n\ncontract CreditReportAgency is Version, Owned {\n    bytes32 constant private ZERO_BYTES = bytes32(0);\n    address constant private ZERO_ADDRESS = address(0);\n\n    uint total_consumers;\n\n    mapping (address => bytes32[]) message;\n\n    event SubscriberAdded(address addr, string message);\n    event SubscriberNotified(address addr, string message);\n    event ConsumerNotified(address addr, string message);\n\n    uint256 private subscriber_lastreq = 0;\n    uint256 private consumer_total = 0;\n    uint256 private consumer_lastreq = 0;\n\n\n    constructor()\n    {\n      total_consumers = 0;\n    }\n\n    modifier validSender() {\n      require(msg.sender != ZERO_ADDRESS,\"access denied for sender\");\n      _;\n    }\n\n    modifier requiresFee(uint fee) {\n      require(msg.sender.balance > fee, \"insufficient balance/amount\");\n      _;\n    }\n\n    // A consumer is entitled\n    function freeReportCheck(address consumer, address subscriber, uint256 reqtime)\n      internal\n      returns(bool)\n    {\n      bool found = false;\n      subscriber_lastreq = reqtime;\n\n      for (uint i = CreditInquiry.getTotalInquiry(consumer); i > 0; i--) {\n        if (!found && (CreditInquiry.getInquiryofSubscriber(consumer,i) == subscriber)) {\n            subscriber_lastreq = CreditInquiry.getInquiryofReqDate(consumer,i);\n            found = true;\n        }\n      }\n\n      consumer_total = CreditInquiry.getTotalInquiry(consumer) - 1;\n      consumer_lastreq = CreditInquiry.getInquiryofReqDate(consumer,consumer_total);\n\n      if (consumer_lastreq == 0 || (consumer_lastreq + 52 weeks) > reqtime || (subscriber_lastreq + 90 days) < reqtime) {\n        return true;\n      }\n      return false;\n    }\n\n    \n    function getUserRole()\n      public\n      payable\n      validSender\n      returns (string memory)\n    {\n      if (msg.sender == getOwner()) {\n        return string(\"owner\");\n      } else if (Subscriber.isSubscriber(msg.sender)) {\n        return string(\"subscriber\");\n      } else if (Consumer.isConsumer(msg.sender)) {\n        return string(\"consumer\");\n      }\n      return string(\"unknown\");\n    }\n    \n\n    function getBlocktime()\n      public\n      view\n      returns (uint256)\n    {\n      return block.timestamp;\n    }\n\n    //\n    // The disputeDate is in ISO and must be converted to epoch timestamp before checking current time\n    // The currentTime is epoch timestamp provided by the caller\n    //\n    function checkExpiry(uint256 LastTimeStamp, uint256 currentTime)\n      public\n      pure\n      returns(bool)\n    {\n      if (LastTimeStamp + 30 days >= currentTime) {\n        return true;\n      } else {\n        return false;\n      }\n    }\n\n    //\n    // adds a new subscriber\n    //\n    function addSubscriber(address addr, uint256 _type,bytes32 encrypted, bytes memory signature)\n      public\n      onlyOwner(encrypted,signature)\n    {\n      require(addr != ZERO_ADDRESS,\"missing address\");\n      if (Subscriber.addSubscriber(addr, _type)) {\n        emit SubscriberAdded(addr, \"subscriber added\");\n      }\n    }\n\n    //\n    // retrieves consumer report for the consumer by the owner so the consumer does not incur gas fees.\n    // to abide by law and allow free credit report to the consumer, cannot change the state on the contract,\n    // otherwise the method must pay gas fee. By not recording consumer self requests in the contract, keeps\n    // this function free.\n    //\n    function getFreeCreditReport(address _consumer, address subscriber, uint256 reqtime,bytes32 encrypted, bytes memory signature)\n      public\n      payable\n      onlyOwner(encrypted,signature)\n      returns (bytes32)\n    {\n      require(freeReportCheck(_consumer, subscriber, reqtime), \"not eligible for a free consumer report\");\n\n      CreditInquiry.add(_consumer, subscriber, reqtime);\n      return CreditReport.getConsumerReport(_consumer);\n    }\n\n    function getReportsByConsumer(address consumer,bytes32 encrypted, bytes memory signature)\n      public\n      payable\n      onlyOwner(encrypted,signature)\n      returns (bytes32)\n    {\n      return CreditReport.getConsumerReport(consumer);\n    }\n\n\n    //\n    // because open dispute changes the state of the contract, gas fees applies,\n    // hence the consumer must start a dispute offline, and send to the owner to create a dispute and the owner pays the gas fee\n    //\n    function openDispute(address consumer, address subscriber, uint index, string memory disputeDate,string memory reason,bytes32 encrypted, bytes memory signature)\n      public\n      onlyOwner(encrypted,signature)\n    {\n      CreditDispute.openDispute(consumer, subscriber,CreditReport.getConsumerReportItem(consumer,index),disputeDate,reason);\n      message[subscriber].push(\n        keccak256(\n          abi.encodePacked(\n            \"Dispute Opened:\",\n            index,\n            subscriber,\n            consumer,\n            disputeDate,\n            reason\n          )\n        )\n      );\n      emit SubscriberNotified(subscriber, \"new dispute opened\");\n    }\n\n    //\n    // adds an item to the consumer report by an existing subscriber, must contain the minimum:\n    //    subscriber, open date, amount, description, balance, limit, payment status\n    //\n    function addConsumerItem(address consumer, bytes memory item)\n      public\n    {\n      require(consumer != ZERO_ADDRESS,\"missing address\");\n      require(Subscriber.onlySubscriber(), \"access denied for subscriber\");\n      // add consumer, if not exist?\n      Consumer.addConsumer(consumer);\n      CreditReport.addConsumerItem(consumer, item);\n      emit ConsumerNotified(consumer, \"new item was added to your report\");\n    }\n\n    function sendMessage(address _recipient, bytes32 _message)\n      public\n    {\n      message[_recipient].push(_message);\n    }\n\n    function readMessage()\n      public\n      view\n      returns (bytes32[] memory)\n    {\n      return message[msg.sender];\n    }\n\n\n    function purgeDispute(address consumer, uint index,bytes32 encrypted, bytes memory signature)\n      public\n      onlyOwner(encrypted,signature)\n    {\n      CreditDispute.purgeDispute(consumer,index);\n      emit ConsumerNotified(consumer, \"dispute deleted\");\n    }\n\n    //\n    // retrieves consumer report by a subscriber, fee is paid to the owner\n    //\n    function getConsumerReport(address consumer, uint reqtime, address payable to,bytes32 encrypted, bytes memory signature)\n      public\n      payable\n      isOwner(to,encrypted,signature)\n      requiresFee(0.001 ether)\n      returns (bytes32)\n    {\n      require(Subscriber.onlySubscriber(), \"access denied for subscriber\");\n      //to.transfer(0.001 ether);\n      CreditInquiry.add(consumer,msg.sender,reqtime);\n      return CreditReport.getConsumerReport(consumer);\n    }\n\n    // Consumer previlieges\n    //\n    // When the consumer is not entitled to a free annual report\n    //\n    function getCreditReport(uint256 reqtime)\n      public\n      payable\n      returns (bytes32)\n    {\n      require(Consumer.onlyConsumer(), \"access denied for consumer\");\n      CreditInquiry.add(msg.sender, msg.sender, reqtime);\n      return CreditReport.getConsumerReport(msg.sender);\n    }\n\n    function getInquiries()\n      public\n      payable\n      returns (string memory)\n    {\n      require(Consumer.onlyConsumer(), \"access denied for consumer\");\n      return CreditInquiry.getAll(msg.sender);\n    }\n\n    function finalizeDispute(address consumer,uint index,string memory status, bool purge)\n      public\n    {\n      require(Subscriber.onlySubscriber(), \"access denied for subscriber\");\n      CreditDispute.finalizeDispute(consumer,index,status,purge);\n      emit ConsumerNotified(consumer, \"dispute finalized\");\n    }\n\n    //\n    // The contract owner will pull a list of disputes,\n    // while iterating through each dispute,\n    // convert the disputeDate from ISO string to an epoch timestamp and get current time in epoch timestamp,\n    // check if the dispute is expired by more than 30 days from current time,\n    // if dispute is expired, delete the dispute and notifiy consumer\n    //\n    function getDisputes(address consumer,bytes32 encrypted, bytes memory signature)\n      public\n      payable\n      onlyOwner(encrypted,signature)\n      returns (bytes32)\n    {\n      return CreditDispute.getDisputes(consumer);\n    }\n}",
  "sourcePath": "G:\\projects\\pingleware-contracts\\contracts\\credit\\CreditReportAgency.sol",
  "compiler": {
    "name": "solc",
    "version": "0.8.10+commit.fc410830.Emscripten.clang"
  },
  "schemaVersion": "3.4.3",
  "updatedAt": "2021-12-25T15:51:03.630Z",
  "devdoc": {
    "kind": "dev",
    "methods": {},
    "version": 1
  },
  "userdoc": {
    "kind": "user",
    "methods": {},
    "version": 1
  }
}