{
  "contractName": "CreditReport",
  "abi": [
    {
      "inputs": [
        {
          "internalType": "address",
          "name": "consumer",
          "type": "address"
        }
      ],
      "name": "getConsumerReportTotal",
      "outputs": [
        {
          "internalType": "uint256",
          "name": "",
          "type": "uint256"
        }
      ],
      "stateMutability": "view",
      "type": "function"
    },
    {
      "inputs": [
        {
          "internalType": "address",
          "name": "consumer",
          "type": "address"
        },
        {
          "internalType": "uint256",
          "name": "index",
          "type": "uint256"
        }
      ],
      "name": "getConsumerReportItem",
      "outputs": [
        {
          "internalType": "bytes",
          "name": "",
          "type": "bytes"
        }
      ],
      "stateMutability": "view",
      "type": "function"
    }
  ],
  "bytecode": "0x61036c610053600b82828239805160001a607314610046577f4e487b7100000000000000000000000000000000000000000000000000000000600052600060045260246000fd5b30600052607381538281f3fe730000000000000000000000000000000000000000301460806040526004361061005c577c0100000000000000000000000000000000000000000000000000000000600035046370d6e7b48114610061578063c7068c8e1461008a575b600080fd5b61007461006f366004610212565b6100ed565b604051610081919061023c565b60405180910390f35b6100df610098366004610291565b73ffffffffffffffffffffffffffffffffffffffff1660009081527f1976c9d94995177a9d059b4762326b22b4271d3517bd9ff8e9cca11477431e68602052604090205490565b604051908152602001610081565b73ffffffffffffffffffffffffffffffffffffffff821660009081527f1976c9d94995177a9d059b4762326b22b4271d3517bd9ff8e9cca11477431e686020526040902080546060919083908110610147576101476102b3565b90600052602060002090600202016001018054610163906102e2565b80601f016020809104026020016040519081016040528092919081815260200182805461018f906102e2565b80156101dc5780601f106101b1576101008083540402835291602001916101dc565b820191906000526020600020905b8154815290600101906020018083116101bf57829003601f168201915b5050505050905092915050565b803573ffffffffffffffffffffffffffffffffffffffff8116811461020d57600080fd5b919050565b6000806040838503121561022557600080fd5b61022e836101e9565b946020939093013593505050565b600060208083528351808285015260005b818110156102695785810183015185820160400152820161024d565b8181111561027b576000604083870101525b50601f01601f1916929092016040019392505050565b6000602082840312156102a357600080fd5b6102ac826101e9565b9392505050565b7f4e487b7100000000000000000000000000000000000000000000000000000000600052603260045260246000fd5b6002810460018216806102f657607f821691505b60208210811415610330577f4e487b7100000000000000000000000000000000000000000000000000000000600052602260045260246000fd5b5091905056fea2646970667358221220dbfc33551a78fa2ead00d58e6f402b34173361b7f74988b2784ef6ea001cd0d564736f6c634300080a0033",
  "immutableReferences": {},
  "source": "// SPDX-License-Identifier: CC-BY-4.0\r\npragma solidity >=0.4.22 <0.9.0;\r\n\r\nlibrary CreditReport {\r\n    bytes32 constant private ZERO_BYTES = bytes32(0);\r\n    address constant private ZERO_ADDRESS = address(0);\r\n\r\n    struct Item {\r\n        string opendate;\r\n        string  description;\r\n        uint    amount;\r\n        uint    balance;\r\n        uint    limit;\r\n        string  paystatus;\r\n    }\r\n\r\n    struct ReportItem {\r\n        address subscriber;\r\n        bytes   item;\r\n    }\r\n\r\n    struct CreditReportStorage {\r\n      mapping(address => ReportItem[]) reports;\r\n    }\r\n\r\n    function creditReportStorage() internal pure returns (CreditReportStorage storage ds)\r\n    {\r\n        bytes32 position = keccak256(\"creditreport.storage\");\r\n        assembly { ds.slot := position }\r\n    }\r\n\r\n    function addConsumerItem(address consumer, bytes memory item)\r\n        internal\r\n    {\r\n        require(consumer != ZERO_ADDRESS,\"missing address\");\r\n        creditReportStorage().reports[consumer].push(ReportItem(msg.sender, item));\r\n    }\r\n\r\n    function getConsumerReportTotal(address consumer)\r\n        external\r\n        view\r\n        returns (uint)\r\n    {\r\n        return creditReportStorage().reports[consumer].length;\r\n    }\r\n\r\n    function getConsumerReportItem(address consumer,uint index)\r\n        public\r\n        view\r\n        returns (bytes memory)\r\n    {\r\n        return creditReportStorage().reports[consumer][index].item;\r\n    }\r\n\r\n    function getReportItem(address subscriber, bytes memory item)\r\n        internal\r\n        pure\r\n        returns (ReportItem memory)\r\n    {\r\n        return ReportItem(subscriber,item);\r\n    }\r\n\r\n    function getConsumerReport(address consumer)\r\n        internal\r\n        view\r\n        returns (bytes32)\r\n    {\r\n        return _report(consumer);\r\n    }\r\n\r\n    function _report(address consumer)\r\n        internal\r\n        view\r\n        returns (bytes32)\r\n    {\r\n        bytes32 output;\r\n        for (uint i = 0; i < creditReportStorage().reports[consumer].length; i++) {\r\n            output = keccak256(abi.encodePacked(\r\n                output, \"[\",\r\n                creditReportStorage().reports[consumer][i].subscriber, \",\",\r\n                creditReportStorage().reports[consumer][i].item, \",\",\r\n                \"]\"\r\n            ));\r\n        }\r\n        return output;\r\n    }\r\n\r\n}",
  "sourcePath": "G:\\projects\\pingleware-contracts\\contracts\\credit\\CreditReport.sol",
  "compiler": {
    "name": "solc",
    "version": "0.8.10+commit.fc410830.Emscripten.clang"
  },
  "schemaVersion": "3.4.3",
  "updatedAt": "2021-12-25T15:51:03.615Z",
  "devdoc": {
    "kind": "dev",
    "methods": {},
    "version": 1
  },
  "userdoc": {
    "kind": "user",
    "methods": {},
    "version": 1
  }
}