{
  "contractName": "CreditReportAgency",
  "abi": [
    {
      "inputs": [],
      "stateMutability": "nonpayable",
      "type": "constructor"
    },
    {
      "anonymous": false,
      "inputs": [
        {
          "indexed": false,
          "internalType": "address",
          "name": "addr",
          "type": "address"
        },
        {
          "indexed": false,
          "internalType": "string",
          "name": "message",
          "type": "string"
        }
      ],
      "name": "ConsumerNotified",
      "type": "event"
    },
    {
      "anonymous": false,
      "inputs": [
        {
          "indexed": false,
          "internalType": "address",
          "name": "addr",
          "type": "address"
        },
        {
          "indexed": false,
          "internalType": "string",
          "name": "message",
          "type": "string"
        }
      ],
      "name": "SubscriberAdded",
      "type": "event"
    },
    {
      "anonymous": false,
      "inputs": [
        {
          "indexed": false,
          "internalType": "address",
          "name": "addr",
          "type": "address"
        },
        {
          "indexed": false,
          "internalType": "string",
          "name": "message",
          "type": "string"
        }
      ],
      "name": "SubscriberNotified",
      "type": "event"
    },
    {
      "inputs": [],
      "name": "VERSION",
      "outputs": [
        {
          "internalType": "string",
          "name": "",
          "type": "string"
        }
      ],
      "stateMutability": "view",
      "type": "function"
    },
    {
      "inputs": [],
      "name": "WAIT",
      "outputs": [
        {
          "internalType": "uint256",
          "name": "",
          "type": "uint256"
        }
      ],
      "stateMutability": "view",
      "type": "function"
    },
    {
      "inputs": [],
      "name": "getOwner",
      "outputs": [
        {
          "internalType": "address",
          "name": "",
          "type": "address"
        }
      ],
      "stateMutability": "payable",
      "type": "function"
    },
    {
      "inputs": [],
      "name": "getUserRole",
      "outputs": [
        {
          "internalType": "string",
          "name": "",
          "type": "string"
        }
      ],
      "stateMutability": "payable",
      "type": "function"
    },
    {
      "inputs": [],
      "name": "getBlocktime",
      "outputs": [
        {
          "internalType": "uint256",
          "name": "",
          "type": "uint256"
        }
      ],
      "stateMutability": "view",
      "type": "function"
    },
    {
      "inputs": [
        {
          "internalType": "uint256",
          "name": "LastTimeStamp",
          "type": "uint256"
        },
        {
          "internalType": "uint256",
          "name": "currentTime",
          "type": "uint256"
        }
      ],
      "name": "checkExpiry",
      "outputs": [
        {
          "internalType": "bool",
          "name": "",
          "type": "bool"
        }
      ],
      "stateMutability": "pure",
      "type": "function"
    },
    {
      "inputs": [
        {
          "internalType": "address",
          "name": "addr",
          "type": "address"
        },
        {
          "internalType": "uint256",
          "name": "_type",
          "type": "uint256"
        },
        {
          "internalType": "bytes32",
          "name": "encrypted",
          "type": "bytes32"
        },
        {
          "internalType": "bytes",
          "name": "signature",
          "type": "bytes"
        }
      ],
      "name": "addSubscriber",
      "outputs": [],
      "stateMutability": "nonpayable",
      "type": "function"
    },
    {
      "inputs": [
        {
          "internalType": "address",
          "name": "_consumer",
          "type": "address"
        },
        {
          "internalType": "address",
          "name": "subscriber",
          "type": "address"
        },
        {
          "internalType": "uint256",
          "name": "reqtime",
          "type": "uint256"
        },
        {
          "internalType": "bytes32",
          "name": "encrypted",
          "type": "bytes32"
        },
        {
          "internalType": "bytes",
          "name": "signature",
          "type": "bytes"
        }
      ],
      "name": "getFreeCreditReport",
      "outputs": [
        {
          "internalType": "bytes32",
          "name": "",
          "type": "bytes32"
        }
      ],
      "stateMutability": "payable",
      "type": "function"
    },
    {
      "inputs": [
        {
          "internalType": "address",
          "name": "consumer",
          "type": "address"
        },
        {
          "internalType": "bytes32",
          "name": "encrypted",
          "type": "bytes32"
        },
        {
          "internalType": "bytes",
          "name": "signature",
          "type": "bytes"
        }
      ],
      "name": "getReportsByConsumer",
      "outputs": [
        {
          "internalType": "bytes32",
          "name": "",
          "type": "bytes32"
        }
      ],
      "stateMutability": "payable",
      "type": "function"
    },
    {
      "inputs": [
        {
          "internalType": "address",
          "name": "consumer",
          "type": "address"
        },
        {
          "internalType": "address",
          "name": "subscriber",
          "type": "address"
        },
        {
          "internalType": "uint256",
          "name": "index",
          "type": "uint256"
        },
        {
          "internalType": "string",
          "name": "disputeDate",
          "type": "string"
        },
        {
          "internalType": "string",
          "name": "reason",
          "type": "string"
        },
        {
          "internalType": "bytes32",
          "name": "encrypted",
          "type": "bytes32"
        },
        {
          "internalType": "bytes",
          "name": "signature",
          "type": "bytes"
        }
      ],
      "name": "openDispute",
      "outputs": [],
      "stateMutability": "nonpayable",
      "type": "function"
    },
    {
      "inputs": [
        {
          "internalType": "address",
          "name": "consumer",
          "type": "address"
        },
        {
          "internalType": "bytes",
          "name": "item",
          "type": "bytes"
        }
      ],
      "name": "addConsumerItem",
      "outputs": [],
      "stateMutability": "nonpayable",
      "type": "function"
    },
    {
      "inputs": [
        {
          "internalType": "address",
          "name": "_recipient",
          "type": "address"
        },
        {
          "internalType": "bytes32",
          "name": "_message",
          "type": "bytes32"
        }
      ],
      "name": "sendMessage",
      "outputs": [],
      "stateMutability": "nonpayable",
      "type": "function"
    },
    {
      "inputs": [],
      "name": "readMessage",
      "outputs": [
        {
          "internalType": "bytes32[]",
          "name": "",
          "type": "bytes32[]"
        }
      ],
      "stateMutability": "view",
      "type": "function"
    },
    {
      "inputs": [
        {
          "internalType": "address",
          "name": "consumer",
          "type": "address"
        },
        {
          "internalType": "uint256",
          "name": "index",
          "type": "uint256"
        },
        {
          "internalType": "bytes32",
          "name": "encrypted",
          "type": "bytes32"
        },
        {
          "internalType": "bytes",
          "name": "signature",
          "type": "bytes"
        }
      ],
      "name": "purgeDispute",
      "outputs": [],
      "stateMutability": "nonpayable",
      "type": "function"
    },
    {
      "inputs": [
        {
          "internalType": "address",
          "name": "consumer",
          "type": "address"
        },
        {
          "internalType": "uint256",
          "name": "reqtime",
          "type": "uint256"
        },
        {
          "internalType": "address payable",
          "name": "to",
          "type": "address"
        },
        {
          "internalType": "bytes32",
          "name": "encrypted",
          "type": "bytes32"
        },
        {
          "internalType": "bytes",
          "name": "signature",
          "type": "bytes"
        }
      ],
      "name": "getConsumerReport",
      "outputs": [
        {
          "internalType": "bytes32",
          "name": "",
          "type": "bytes32"
        }
      ],
      "stateMutability": "payable",
      "type": "function"
    },
    {
      "inputs": [
        {
          "internalType": "uint256",
          "name": "reqtime",
          "type": "uint256"
        }
      ],
      "name": "getCreditReport",
      "outputs": [
        {
          "internalType": "bytes32",
          "name": "",
          "type": "bytes32"
        }
      ],
      "stateMutability": "payable",
      "type": "function"
    },
    {
      "inputs": [],
      "name": "getInquiries",
      "outputs": [
        {
          "internalType": "string",
          "name": "",
          "type": "string"
        }
      ],
      "stateMutability": "payable",
      "type": "function"
    },
    {
      "inputs": [
        {
          "internalType": "address",
          "name": "consumer",
          "type": "address"
        },
        {
          "internalType": "uint256",
          "name": "index",
          "type": "uint256"
        },
        {
          "internalType": "string",
          "name": "status",
          "type": "string"
        },
        {
          "internalType": "bool",
          "name": "purge",
          "type": "bool"
        }
      ],
      "name": "finalizeDispute",
      "outputs": [],
      "stateMutability": "nonpayable",
      "type": "function"
    },
    {
      "inputs": [
        {
          "internalType": "address",
          "name": "consumer",
          "type": "address"
        },
        {
          "internalType": "bytes32",
          "name": "encrypted",
          "type": "bytes32"
        },
        {
          "internalType": "bytes",
          "name": "signature",
          "type": "bytes"
        }
      ],
      "name": "getDisputes",
      "outputs": [
        {
          "internalType": "bytes32",
          "name": "",
          "type": "bytes32"
        }
      ],
      "stateMutability": "payable",
      "type": "function"
    }
  ],
  "bytecode": "0x6080604052600060015534801561001557600080fd5b5060008054600160a060020a03191633178155426001556002556127168061003e6000396000f3fe6080604052600436106101185760003560e060020a9004806379fdb521116100a4578063bf04a10d11610068578063bf04a10d146102cf578063ca0cb913146102e4578063d7fdd770146102f7578063d91ed51d14610327578063ffa1ad741461032f57600080fd5b806379fdb52114610247578063893d20e8146102675780639ce0632814610287578063b6180f51146102a7578063b8fb3a51146102ba57600080fd5b806338cf7a27116100eb57806338cf7a271461018b5780633df5d956146101ad578063489adb6c146101cd5780636df2ddd8146101e057806375cb1c431461022757600080fd5b8063031d5d011461011d5780630501b79f1461014857806318a92881146101655780632ff12c2f14610178575b600080fd5b34801561012957600080fd5b50610132610378565b60405161013f9190611e06565b60405180910390f35b34801561015457600080fd5b50425b60405190815260200161013f565b610157610173366004611e4a565b6103d9565b610157610186366004611f40565b610537565b34801561019757600080fd5b506101ab6101a6366004611f99565b610625565b005b3480156101b957600080fd5b506101ab6101c8366004611fe9565b6107a6565b6101576101db366004611f40565b610965565b3480156101ec57600080fd5b506101ab6101fb36600461204c565b600160a060020a0390911660009081526003602090815260408220805460018101825590835291200155565b34801561023357600080fd5b506101ab610242366004612086565b610a4c565b34801561025357600080fd5b506101ab6102623660046120f2565b610b50565b61026f610d53565b604051600160a060020a03909116815260200161013f565b34801561029357600080fd5b506101ab6102a2366004611fe9565b610e29565b6101576102b53660046121b3565b610f7d565b3480156102c657600080fd5b50610157601e81565b6102d7611109565b60405161013f9190612281565b6101576102f236600461229b565b61137e565b34801561030357600080fd5b506103176103123660046122f8565b611620565b604051901515815260200161013f565b6102d7611646565b34801561033b57600080fd5b506102d76040518060400160405280600581526020017f312e302e3500000000000000000000000000000000000000000000000000000081525081565b336000908152600360209081526040918290208054835181840281018401909452808452606093928301828280156103cf57602002820191906000526020600020905b8154815260200190600101908083116103bb575b5050505050905090565b600073__Consumer______________________________6322a871d06040518163ffffffff1660e060020a028152600401602060405180830381865af4158015610427573d6000803e3d6000fd5b505050506040513d601f19601f8201168201806040525081019061044b919061231a565b61049f5760405160e560020a62461bcd02815260206004820152601a60248201527f6163636573732064656e69656420666f7220636f6e73756d657200000000000060448201526064015b60405180910390fd5b6040517f551f8e2a000000000000000000000000000000000000000000000000000000008152336004820181905260248201526044810183905273__CreditInquiry_________________________9063551f8e2a9060640160006040518083038186803b15801561051057600080fd5b505af4158015610524573d6000803e3d6000fd5b5050505061053133611715565b92915050565b6000805483908390600160a060020a031633146105695760405160e560020a62461bcd02815260040161049690612337565b60005460405160e160020a631ce6ef1902815273__ECVerify______________________________916339cdde32916105b29186918691600160a060020a03169060040161236e565b602060405180830381865af41580156105cf573d6000803e3d6000fd5b505050506040513d601f19601f820116820180604052508101906105f3919061231a565b6106125760405160e560020a62461bcd028152600401610496906123a0565b61061b86611715565b9695505050505050565b600160a060020a03821661067e5760405160e560020a62461bcd02815260206004820152600f60248201527f6d697373696e67206164647265737300000000000000000000000000000000006044820152606401610496565b73__Subscriber____________________________635ec9df5b6040518163ffffffff1660e060020a028152600401602060405180830381865af41580156106ca573d6000803e3d6000fd5b505050506040513d601f19601f820116820180604052508101906106ee919061231a565b61070d5760405160e560020a62461bcd028152600401610496906123d7565b60408051600160a060020a0384168152602081018290526021818301527f6e6577206974656d2077617320616464656420746f20796f7572207265706f7260608201527f7400000000000000000000000000000000000000000000000000000000000000608082015290517fd87358bdb9fb3fd22dc44bf9aec10b565d35f5b8c903db24b4addfb35594895c9181900360a00190a15050565b60005482908290600160a060020a031633146107d75760405160e560020a62461bcd02815260040161049690612337565b60005460405160e160020a631ce6ef1902815273__ECVerify______________________________916339cdde32916108209186918691600160a060020a03169060040161236e565b602060405180830381865af415801561083d573d6000803e3d6000fd5b505050506040513d601f19601f82011682018060405250810190610861919061231a565b6108805760405160e560020a62461bcd028152600401610496906123a0565b600160a060020a0386166108d95760405160e560020a62461bcd02815260206004820152600f60248201527f6d697373696e67206164647265737300000000000000000000000000000000006044820152606401610496565b6108e38686611720565b1561095d5760408051600160a060020a0388168152602081018290526010918101919091527f737562736372696265722061646465640000000000000000000000000000000060608201527fae28b319183e2d4a0f4721e7fc4bb1c25a05610d1e2efb85b10dfbf7bbf4761b906080015b60405180910390a15b505050505050565b6000805483908390600160a060020a031633146109975760405160e560020a62461bcd02815260040161049690612337565b60005460405160e160020a631ce6ef1902815273__ECVerify______________________________916339cdde32916109e09186918691600160a060020a03169060040161236e565b602060405180830381865af41580156109fd573d6000803e3d6000fd5b505050506040513d601f19601f82011682018060405250810190610a21919061231a565b610a405760405160e560020a62461bcd028152600401610496906123a0565b50600095945050505050565b73__Subscriber____________________________635ec9df5b6040518163ffffffff1660e060020a028152600401602060405180830381865af4158015610a98573d6000803e3d6000fd5b505050506040513d601f19601f82011682018060405250810190610abc919061231a565b610adb5760405160e560020a62461bcd028152600401610496906123d7565b60408051600160a060020a0386168152602081018290526011818301527f646973707574652066696e616c697a6564000000000000000000000000000000606082015290517fd87358bdb9fb3fd22dc44bf9aec10b565d35f5b8c903db24b4addfb35594895c9181900360800190a150505050565b60005482908290600160a060020a03163314610b815760405160e560020a62461bcd02815260040161049690612337565b60005460405160e160020a631ce6ef1902815273__ECVerify______________________________916339cdde3291610bca9186918691600160a060020a03169060040161236e565b602060405180830381865af4158015610be7573d6000803e3d6000fd5b505050506040513d601f19601f82011682018060405250810190610c0b919061231a565b610c2a5760405160e560020a62461bcd028152600401610496906123a0565b6040517f70d6e7b4000000000000000000000000000000000000000000000000000000008152600160a060020a038a16600482015260248101889052610cd9908a908a9073__CreditReport__________________________906370d6e7b490604401600060405180830381865af4158015610caa573d6000803e3d6000fd5b505050506040513d6000823e601f3d908101601f19168201604052610cd2919081019061240e565b89896117e0565b60408051600160a060020a038a168152602081018290526012818301527f6e65772064697370757465206f70656e65640000000000000000000000000000606082015290517fde371f040710867afadb0d380ec315de30e2cdd4edd5062dd8c82c7418784ad79181900360800190a1505050505050505050565b6000601e600154610d64919061249e565b4211610db55760405160e560020a62461bcd02815260206004820152601060248201527f72617465206c696d6974206572726f72000000000000000000000000000000006044820152606401610496565b601e600154610dc4919061249e565b4211610e155760405160e560020a62461bcd02815260206004820152601060248201527f72617465206c696d6974206572726f72000000000000000000000000000000006044820152606401610496565b5042600155600054600160a060020a031690565b60005482908290600160a060020a03163314610e5a5760405160e560020a62461bcd02815260040161049690612337565b60005460405160e160020a631ce6ef1902815273__ECVerify______________________________916339cdde3291610ea39186918691600160a060020a03169060040161236e565b602060405180830381865af4158015610ec0573d6000803e3d6000fd5b505050506040513d601f19601f82011682018060405250810190610ee4919061231a565b610f035760405160e560020a62461bcd028152600401610496906123a0565b610f0d8686611939565b60408051600160a060020a038816815260208101829052600f918101919091527f646973707574652064656c65746564000000000000000000000000000000000060608201527fd87358bdb9fb3fd22dc44bf9aec10b565d35f5b8c903db24b4addfb35594895c90608001610954565b6000805483908390600160a060020a03163314610faf5760405160e560020a62461bcd02815260040161049690612337565b60005460405160e160020a631ce6ef1902815273__ECVerify______________________________916339cdde3291610ff89186918691600160a060020a03169060040161236e565b602060405180830381865af4158015611015573d6000803e3d6000fd5b505050506040513d601f19601f82011682018060405250810190611039919061231a565b6110585760405160e560020a62461bcd028152600401610496906123a0565b6040517f551f8e2a000000000000000000000000000000000000000000000000000000008152600160a060020a03808a166004830152881660248201526044810187905288908890889073__CreditInquiry_________________________9063551f8e2a9060640160006040518083038186803b1580156110d957600080fd5b505af41580156110ed573d6000803e3d6000fd5b505050506110fa8b611715565b9b9a5050505050505050505050565b60603361115b5760405160e560020a62461bcd02815260206004820152601860248201527f6163636573732064656e69656420666f722073656e64657200000000000000006044820152606401610496565b611163610d53565b600160a060020a031633600160a060020a031614156111b4575060408051808201909152600581527f6f776e6572000000000000000000000000000000000000000000000000000000602082015290565b6040517fc4804ef000000000000000000000000000000000000000000000000000000000815233600482015273__Subscriber____________________________9063c4804ef090602401602060405180830381865af415801561121c573d6000803e3d6000fd5b505050506040513d601f19601f82011682018060405250810190611240919061231a565b1561127d575060408051808201909152600a81527f7375627363726962657200000000000000000000000000000000000000000000602082015290565b6040517f834ff73900000000000000000000000000000000000000000000000000000000815233600482015273__Consumer______________________________9063834ff73990602401602060405180830381865af41580156112e5573d6000803e3d6000fd5b505050506040513d601f19601f82011682018060405250810190611309919061231a565b15611346575060408051808201909152600881527f636f6e73756d6572000000000000000000000000000000000000000000000000602082015290565b5060408051808201909152600781527f756e6b6e6f776e00000000000000000000000000000000000000000000000000602082015290565b60008054849084908490600160a060020a038085169116146113e55760405160e560020a62461bcd02815260206004820152601c60248201527f6f776e6572206163636573732064656e69656420666f722075736572000000006044820152606401610496565b60005460405160e160020a631ce6ef1902815273__ECVerify______________________________916339cdde329161142e9186918691600160a060020a03169060040161236e565b602060405180830381865af415801561144b573d6000803e3d6000fd5b505050506040513d601f19601f8201168201806040525081019061146f919061231a565b61148e5760405160e560020a62461bcd028152600401610496906123a0565b66038d7ea4c68000333181106114e95760405160e560020a62461bcd02815260206004820152601b60248201527f696e73756666696369656e742062616c616e63652f616d6f756e7400000000006044820152606401610496565b73__Subscriber____________________________635ec9df5b6040518163ffffffff1660e060020a028152600401602060405180830381865af4158015611535573d6000803e3d6000fd5b505050506040513d601f19601f82011682018060405250810190611559919061231a565b6115785760405160e560020a62461bcd028152600401610496906123d7565b6040517f551f8e2a000000000000000000000000000000000000000000000000000000008152600160a060020a038b166004820152336024820152604481018a905273__CreditInquiry_________________________9063551f8e2a9060640160006040518083038186803b1580156115f157600080fd5b505af4158015611605573d6000803e3d6000fd5b505050506116128a611715565b9a9950505050505050505050565b6000816116308462278d0061249e565b1061163d57506001610531565b50600092915050565b606073__Consumer______________________________6322a871d06040518163ffffffff1660e060020a028152600401602060405180830381865af4158015611694573d6000803e3d6000fd5b505050506040513d601f19601f820116820180604052508101906116b8919061231a565b6117075760405160e560020a62461bcd02815260206004820152601a60248201527f6163636573732064656e69656420666f7220636f6e73756d65720000000000006044820152606401610496565b611710336119f7565b905090565b600061053182611b4c565b600061172b83611c91565b61163d5750600160a060020a03821660008181527f4317346ae582bd8e389df457fdce80980031cc45c7f93fb7267b8465e659af72602052604081208390557f4317346ae582bd8e389df457fdce80980031cc45c7f93fb7267b8465e659af73805460018181018355919092527fc003a111edd2c32938fc4d3e5cd9e5bef59e92448f43b16d35dac2870b5cea4f909101805473ffffffffffffffffffffffffffffffffffffffff1916909217909155610531565b60006040518060c0016040528086600160a060020a0316815260200187600160a060020a031681526020018481526020018581526020018381526020016040518060200160405280600081525081525090506118597fe30db33f9a0e03d58541aaa29c619b528d7e9bd6e5fee0ceed9cb32c10db641690565b600160a060020a03808816600090815260209283526040808220805460018181018355918452928590208651600690940201805493851673ffffffffffffffffffffffffffffffffffffffff1994851617815586860151918101805492909516919093161790925590830151805184936118da926002850192910190611d30565b50606082015180516118f6916003840191602090910190611d30565b5060808201518051611912916004840191602090910190611d30565b5060a0820151805161192e916005840191602090910190611d30565b505050505050505050565b600160a060020a03821660009081527fe30db33f9a0e03d58541aaa29c619b528d7e9bd6e5fee0ceed9cb32c10db641660205260409020805482908110611982576119826124b6565b600091825260208220600690910201805473ffffffffffffffffffffffffffffffffffffffff1990811682556001820180549091169055906119c76002830182611db4565b6119d5600383016000611db4565b6119e3600483016000611db4565b6119f1600583016000611db4565b50505050565b60408051602081019091526000808252606091905b600160a060020a03841660009081527fc9bd89c8aa20bb12e3e84ed83a939d0b94623f7d7460b60dcb76099d9fe92b726020526040902054811015611b4557600160a060020a03841660009081527fc9bd89c8aa20bb12e3e84ed83a939d0b94623f7d7460b60dcb76099d9fe92b7260205260409020805483919083908110611a9757611a976124b6565b6000918252602090912060029091020154600160a060020a03167fc9bd89c8aa20bb12e3e84ed83a939d0b94623f7d7460b60dcb76099d9fe92b72600160a060020a038716600090815260209190915260409020805484908110611afd57611afd6124b6565b906000526020600020906002020160010154604051602001611b21939291906124cf565b60405160208183030381529060405291508080611b3d90612514565b915050611a0c565b5092915050565b60008060005b600160a060020a03841660009081527f1976c9d94995177a9d059b4762326b22b4271d3517bd9ff8e9cca11477431e686020526040902054811015611b4557600160a060020a03841660009081527f1976c9d94995177a9d059b4762326b22b4271d3517bd9ff8e9cca11477431e6860205260409020805483919083908110611bdd57611bdd6124b6565b6000918252602090912060029091020154600160a060020a03167f1976c9d94995177a9d059b4762326b22b4271d3517bd9ff8e9cca11477431e68600160a060020a038716600090815260209190915260409020805484908110611c4357611c436124b6565b9060005260206000209060020201600101604051602001611c669392919061256d565b6040516020818303038152906040528051906020012091508080611c8990612514565b915050611b52565b600080805b7f4317346ae582bd8e389df457fdce80980031cc45c7f93fb7267b8465e659af7354811015611b4557600160a060020a0384167f4317346ae582bd8e389df457fdce80980031cc45c7f93fb7267b8465e659af726001018281548110611cfe57611cfe6124b6565b600091825260209091200154600160a060020a03161415611d1e57600191505b80611d2881612514565b915050611c96565b828054611d3c9061252f565b90600052602060002090601f016020900481019282611d5e5760008555611da4565b82601f10611d7757805160ff1916838001178555611da4565b82800160010185558215611da4579182015b82811115611da4578251825591602001919060010190611d89565b50611db0929150611df1565b5090565b508054611dc09061252f565b6000825580601f10611dd0575050565b601f016020900490600052602060002090810190611dee9190611df1565b50565b5b80821115611db05760008155600101611df2565b6020808252825182820181905260009190848201906040850190845b81811015611e3e57835183529284019291840191600101611e22565b50909695505050505050565b600060208284031215611e5c57600080fd5b5035919050565b600160a060020a0381168114611dee57600080fd5b60e060020a634e487b7102600052604160045260246000fd5b604051601f8201601f1916810167ffffffffffffffff81118282101715611eba57611eba611e78565b604052919050565b600067ffffffffffffffff821115611edc57611edc611e78565b50601f01601f191660200190565b600082601f830112611efb57600080fd5b8135611f0e611f0982611ec2565b611e91565b818152846020838601011115611f2357600080fd5b816020850160208301376000918101602001919091529392505050565b600080600060608486031215611f5557600080fd5b8335611f6081611e63565b925060208401359150604084013567ffffffffffffffff811115611f8357600080fd5b611f8f86828701611eea565b9150509250925092565b60008060408385031215611fac57600080fd5b8235611fb781611e63565b9150602083013567ffffffffffffffff811115611fd357600080fd5b611fdf85828601611eea565b9150509250929050565b60008060008060808587031215611fff57600080fd5b843561200a81611e63565b93506020850135925060408501359150606085013567ffffffffffffffff81111561203457600080fd5b61204087828801611eea565b91505092959194509250565b6000806040838503121561205f57600080fd5b823561206a81611e63565b946020939093013593505050565b8015158114611dee57600080fd5b6000806000806080858703121561209c57600080fd5b84356120a781611e63565b935060208501359250604085013567ffffffffffffffff8111156120ca57600080fd5b6120d687828801611eea565b92505060608501356120e781612078565b939692955090935050565b600080600080600080600060e0888a03121561210d57600080fd5b873561211881611e63565b9650602088013561212881611e63565b955060408801359450606088013567ffffffffffffffff8082111561214c57600080fd5b6121588b838c01611eea565b955060808a013591508082111561216e57600080fd5b61217a8b838c01611eea565b945060a08a0135935060c08a013591508082111561219757600080fd5b506121a48a828b01611eea565b91505092959891949750929550565b600080600080600060a086880312156121cb57600080fd5b85356121d681611e63565b945060208601356121e681611e63565b93506040860135925060608601359150608086013567ffffffffffffffff81111561221057600080fd5b61221c88828901611eea565b9150509295509295909350565b60005b8381101561224457818101518382015260200161222c565b838111156119f15750506000910152565b6000815180845261226d816020860160208601612229565b601f01601f19169290920160200192915050565b6020815260006122946020830184612255565b9392505050565b600080600080600060a086880312156122b357600080fd5b85356122be81611e63565b94506020860135935060408601356122d581611e63565b925060608601359150608086013567ffffffffffffffff81111561221057600080fd5b6000806040838503121561230b57600080fd5b50508035926020909101359150565b60006020828403121561232c57600080fd5b815161229481612078565b60208082526017908201527f6163636573732064656e69656420666f72206f776e6572000000000000000000604082015260600190565b8381526060602082015260006123876060830185612255565b9050600160a060020a0383166040830152949350505050565b6020808252601e908201527f6163636573732064656e6965642c206f776e6572206e6f742076616c69640000604082015260600190565b6020808252601c908201527f6163636573732064656e69656420666f72207375627363726962657200000000604082015260600190565b60006020828403121561242057600080fd5b815167ffffffffffffffff81111561243757600080fd5b8201601f8101841361244857600080fd5b8051612456611f0982611ec2565b81815285602083850101111561246b57600080fd5b61247c826020830160208601612229565b95945050505050565b60e060020a634e487b7102600052601160045260246000fd5b600082198211156124b1576124b1612485565b500190565b60e060020a634e487b7102600052603260045260246000fd5b600084516124e1818460208901612229565b600160a060020a03949094166c010000000000000000000000000291909301908152601481019190915260340192915050565b600060001982141561252857612528612485565b5060010190565b60028104600182168061254357607f821691505b602082108114156125675760e060020a634e487b7102600052602260045260246000fd5b50919050565b838152600060207f5b00000000000000000000000000000000000000000000000000000000000000818401526c01000000000000000000000000600160a060020a0386160260218401527f2c000000000000000000000000000000000000000000000000000000000000006035840152603660008554816002820490506001808316806125fb57607f831692505b86831081141561261c5760e060020a634e487b710285526022600452602485fd5b808015612630576001811461264557612676565b60ff1985168a880152838a0187019550612676565b60008b81526020902060005b8581101561266c5781548c82018a0152908401908901612651565b505086848b010195505b50505050506126d46126ab827f2c00000000000000000000000000000000000000000000000000000000000000815260010190565b7f5d00000000000000000000000000000000000000000000000000000000000000815260010190565b9897505050505050505056fea2646970667358221220e06bedb7f10fac46acac781705263a2dc7915ef54ef6a8305339ae8864ab13d564736f6c634300080a0033",
  "immutableReferences": {},
  "source": "// SPDX-License-Identifier: CC-BY-4.0\npragma solidity >=0.4.22 <0.9.0;\n\nimport \"../Version.sol\";\nimport \"../Owned.sol\";\nimport \"./Consumer.sol\";\nimport \"./Subscriber.sol\";\nimport \"./CreditInquiry.sol\";\nimport \"./CreditReport.sol\";\nimport \"./CreditDispute.sol\";\n\ncontract CreditReportAgency is Version, Owned {\n    bytes32 constant private ZERO_BYTES = bytes32(0);\n    address constant private ZERO_ADDRESS = address(0);\n\n    uint total_consumers;\n\n    mapping (address => bytes32[]) message;\n\n    event SubscriberAdded(address addr, string message);\n    event SubscriberNotified(address addr, string message);\n    event ConsumerNotified(address addr, string message);\n\n\n    constructor()\n    {\n      total_consumers = 0;\n    }\n\n    modifier validSender() {\n      require(msg.sender != ZERO_ADDRESS,\"access denied for sender\");\n      _;\n    }\n\n    modifier requiresFee(uint fee) {\n      require(msg.sender.balance > fee, \"insufficient balance/amount\");\n      _;\n    }\n\n    // A consumer is entitled\n    modifier freeReportCheck(address consumer, address subscriber, uint256 reqtime) {\n      //bool found = false;\n      //uint256 subscriber_lastreq = reqtime;\n      //for (uint i = inquiries[consumer].length; i > 0; i--) {\n      //  if (!found && subscribers[inquiries[consumer][i].subscriber] != 0) {\n      //      subscriber_lastreq = inquiries[consumer][i].reqdate;\n      //      found = true;\n      //  }\n      //}\n\n      //uint consumer_total = inquiries[consumer].length - 1;\n      //uint256 consumer_lastreq = inquiries[consumer][consumer_total].reqdate;\n      //require(\n      //  consumer_lastreq == 0 || (consumer_lastreq + 52 weeks) > reqtime || (subscriber_lastreq + 90 days) < reqtime,\n      //\"not eligible for a free report\");\n      _;\n    }\n\n    \n    function getUserRole()\n      public\n      payable\n      validSender\n      returns (string memory)\n    {\n      if (msg.sender == getOwner()) {\n        return string(\"owner\");\n      } else if (Subscriber.isSubscriber(msg.sender)) {\n        return string(\"subscriber\");\n      } else if (Consumer.isConsumer(msg.sender)) {\n        return string(\"consumer\");\n      }\n      return string(\"unknown\");\n    }\n    \n\n    function getBlocktime()\n      public\n      view\n      returns (uint256)\n    {\n      return block.timestamp;\n    }\n\n    //\n    // The disputeDate is in ISO and must be converted to epoch timestamp before checking current time\n    // The currentTime is epoch timestamp provided by the caller\n    //\n    function checkExpiry(uint256 LastTimeStamp, uint256 currentTime)\n      public\n      pure\n      returns(bool)\n    {\n      if (LastTimeStamp + 30 days >= currentTime) {\n        return true;\n      } else {\n        return false;\n      }\n    }\n\n    //\n    // adds a new subscriber\n    //\n    function addSubscriber(address addr, uint256 _type,bytes32 encrypted, bytes memory signature)\n      public\n      onlyOwner(encrypted,signature)\n    {\n      require(addr != ZERO_ADDRESS,\"missing address\");\n      if (Subscriber.addSubscriber(addr, _type)) {\n        emit SubscriberAdded(addr, \"subscriber added\");\n      }\n    }\n\n    //\n    // retrieves consumer report for the consumer by the owner so the consumer does not incur gas fees.\n    // to abide by law and allow free credit report to the consumer, cannot change the state on the contract,\n    // otherwise the method must pay gas fee. By not recording consumer self requests in the contract, keeps\n    // this function free.\n    //\n    function getFreeCreditReport(address _consumer, address subscriber, uint256 reqtime,bytes32 encrypted, bytes memory signature)\n      public\n      payable\n      onlyOwner(encrypted,signature)\n      freeReportCheck(_consumer, subscriber, reqtime)\n      returns (bytes32)\n    {\n      CreditInquiry.add(_consumer, subscriber, reqtime);\n      return CreditReport.getConsumerReport(_consumer);\n    }\n\n    function getReportsByConsumer(address consumer,bytes32 encrypted, bytes memory signature)\n      public\n      payable\n      onlyOwner(encrypted,signature)\n      returns (bytes32)\n    {\n      return CreditReport.getConsumerReport(consumer);\n    }\n\n\n    //\n    // because open dispute changes the state of the contract, gas fees applies,\n    // hence the consumer must start a dispute offline, and send to the owner to create a dispute and the owner pays the gas fee\n    //\n    function openDispute(address consumer, address subscriber, uint index, string memory disputeDate,string memory reason,bytes32 encrypted, bytes memory signature)\n      public\n      onlyOwner(encrypted,signature)\n    {\n      CreditDispute.openDispute(consumer, subscriber,CreditReport.getConsumerReportItem(consumer,index),disputeDate,reason);\n      //message[report.subscriber].push(\n      //  keccak256(\n      //    abi.encodePacked(\n      //      \"Dispute Opened:\",\n      //      index,\n      //      report.subscriber,\n      //      consumer,\n      //      disputeDate,\n      //      report.item,\n      //      reason\n      //    )\n      //  )\n      //);\n      emit SubscriberNotified(subscriber, \"new dispute opened\");\n    }\n\n    //\n    // adds an item to the consumer report by an existing subscriber, must contain the minimum:\n    //    subscriber, open date, amount, description, balance, limit, payment status\n    //\n    function addConsumerItem(address consumer, bytes memory item)\n      public\n    {\n      require(consumer != ZERO_ADDRESS,\"missing address\");\n      require(Subscriber.onlySubscriber(), \"access denied for subscriber\");\n      //if (consumers[consumer] == 0) {\n      //  consumers[consumer] = 1;\n      //  _consumers.push(consumer);\n      //  total_consumers++;\n      //}\n      //ReportItem memory ritem = ReportItem(msg.sender, item);\n      //reports[consumer].push(ritem);\n      emit ConsumerNotified(consumer, \"new item was added to your report\");\n    }\n\n    function sendMessage(address _recipient, bytes32 _message)\n      public\n    {\n      message[_recipient].push(_message);\n    }\n\n    function readMessage()\n      public\n      view\n      returns (bytes32[] memory)\n    {\n      return message[msg.sender];\n    }\n\n\n    function purgeDispute(address consumer, uint index,bytes32 encrypted, bytes memory signature)\n      public\n      onlyOwner(encrypted,signature)\n    {\n      CreditDispute.purgeDispute(consumer,index);\n      emit ConsumerNotified(consumer, \"dispute deleted\");\n    }\n\n    //\n    // retrieves consumer report by a subscriber, fee is paid to the owner\n    //\n    function getConsumerReport(address consumer, uint reqtime, address payable to,bytes32 encrypted, bytes memory signature)\n      public\n      payable\n      isOwner(to,encrypted,signature)\n      requiresFee(0.001 ether)\n      returns (bytes32)\n    {\n      require(Subscriber.onlySubscriber(), \"access denied for subscriber\");\n      //to.transfer(0.001 ether);\n      CreditInquiry.add(consumer,msg.sender,reqtime);\n      return CreditReport.getConsumerReport(consumer);\n    }\n\n    // Consumer previlieges\n    //\n    // When the consumer is not entitled to a free annual report\n    //\n    function getCreditReport(uint256 reqtime)\n      public\n      payable\n      returns (bytes32)\n    {\n      require(Consumer.onlyConsumer(), \"access denied for consumer\");\n      CreditInquiry.add(msg.sender, msg.sender, reqtime);\n      return CreditReport.getConsumerReport(msg.sender);\n    }\n\n    function getInquiries()\n      public\n      payable\n      returns (string memory)\n    {\n      require(Consumer.onlyConsumer(), \"access denied for consumer\");\n      return CreditInquiry.getAll(msg.sender);\n    }\n\n    function finalizeDispute(address consumer,uint index,string memory status, bool purge)\n      public\n    {\n      require(Subscriber.onlySubscriber(), \"access denied for subscriber\");\n      /*\n      Dispute memory dispute = Dispute(\n        index,\n        disputes[consumer][index].subscriber,\n        disputes[consumer][index].consumer,\n        disputes[consumer][index].disputeDate,\n        disputes[consumer][index].item,\n        disputes[consumer][index].reason,\n        status\n      );\n\n      if (purge) {\n        delete disputes[consumer][index];\n      } else {\n        disputes[consumer][index] = dispute;\n      }\n      */\n      emit ConsumerNotified(consumer, \"dispute finalized\");\n    }\n\n    //\n    // The contract owner will pull a list of disputes,\n    // while iterating through each dispute,\n    // convert the disputeDate from ISO string to an epoch timestamp and get current time in epoch timestamp,\n    // check if the dispute is expired by more than 30 days from current time,\n    // if dispute is expired, delete the dispute and notifiy consumer\n    //\n    function getDisputes(address consumer,bytes32 encrypted, bytes memory signature)\n      public\n      payable\n      onlyOwner(encrypted,signature)\n      returns (bytes32)\n    {\n      bytes32 output = \"\";\n      /*\n      for (uint i = 0; i < disputes[consumer].length; i++) {\n        Dispute memory _dispute = Dispute(\n          disputes[consumer][i].index,\n          disputes[consumer][i].subscriber,\n          disputes[consumer][i].consumer,\n          disputes[consumer][i].disputeDate,\n          disputes[consumer][i].item,\n          disputes[consumer][i].reason,\n          disputes[consumer][i].status\n        );\n        output = keccak256(\n          abi.encodePacked(\n            output,\n            \"[\",\n            _dispute.index,\n            _dispute.subscriber,\n            _dispute.consumer,\n            _dispute.disputeDate,\n            _dispute.reason,\n            _dispute.status,\n            \"]\"\n          )\n        );\n      }\n      */\n      return output;\n    }\n}",
  "sourcePath": "G:\\projects\\pingleware-contracts\\contracts\\credit\\CreditReportAgency.sol",
  "compiler": {
    "name": "solc",
    "version": "0.8.10+commit.fc410830.Emscripten.clang"
  },
  "schemaVersion": "3.4.3",
  "updatedAt": "2021-12-24T21:06:03.558Z",
  "devdoc": {
    "kind": "dev",
    "methods": {},
    "version": 1
  },
  "userdoc": {
    "kind": "user",
    "methods": {},
    "version": 1
  }
}