{
  "contractName": "CreditReport",
  "abi": [
    {
      "inputs": [],
      "stateMutability": "nonpayable",
      "type": "constructor"
    },
    {
      "anonymous": false,
      "inputs": [
        {
          "indexed": false,
          "internalType": "address",
          "name": "addr",
          "type": "address"
        },
        {
          "indexed": false,
          "internalType": "string",
          "name": "message",
          "type": "string"
        }
      ],
      "name": "ConsumerNotified",
      "type": "event"
    },
    {
      "anonymous": false,
      "inputs": [
        {
          "indexed": false,
          "internalType": "address",
          "name": "addr",
          "type": "address"
        },
        {
          "indexed": false,
          "internalType": "string",
          "name": "message",
          "type": "string"
        }
      ],
      "name": "SubscriberAdded",
      "type": "event"
    },
    {
      "anonymous": false,
      "inputs": [
        {
          "indexed": false,
          "internalType": "address",
          "name": "addr",
          "type": "address"
        },
        {
          "indexed": false,
          "internalType": "string",
          "name": "message",
          "type": "string"
        }
      ],
      "name": "SubscriberNotified",
      "type": "event"
    },
    {
      "inputs": [],
      "name": "VERSION",
      "outputs": [
        {
          "internalType": "string",
          "name": "",
          "type": "string"
        }
      ],
      "stateMutability": "view",
      "type": "function"
    },
    {
      "inputs": [],
      "name": "getOwner",
      "outputs": [
        {
          "internalType": "address",
          "name": "addr",
          "type": "address"
        }
      ],
      "stateMutability": "view",
      "type": "function"
    },
    {
      "inputs": [],
      "name": "getUserRole",
      "outputs": [
        {
          "internalType": "string",
          "name": "",
          "type": "string"
        }
      ],
      "stateMutability": "view",
      "type": "function"
    },
    {
      "inputs": [
        {
          "internalType": "address",
          "name": "consumer",
          "type": "address"
        }
      ],
      "name": "getConsumerReportTotal",
      "outputs": [
        {
          "internalType": "uint256",
          "name": "",
          "type": "uint256"
        }
      ],
      "stateMutability": "view",
      "type": "function"
    },
    {
      "inputs": [
        {
          "internalType": "address",
          "name": "consumer",
          "type": "address"
        },
        {
          "internalType": "uint256",
          "name": "index",
          "type": "uint256"
        }
      ],
      "name": "getConsumerReportItem",
      "outputs": [
        {
          "internalType": "bytes",
          "name": "",
          "type": "bytes"
        }
      ],
      "stateMutability": "view",
      "type": "function"
    },
    {
      "inputs": [],
      "name": "getBlocktime",
      "outputs": [
        {
          "internalType": "uint256",
          "name": "",
          "type": "uint256"
        }
      ],
      "stateMutability": "view",
      "type": "function"
    },
    {
      "inputs": [
        {
          "internalType": "uint256",
          "name": "LastTimeStamp",
          "type": "uint256"
        },
        {
          "internalType": "uint256",
          "name": "currentTime",
          "type": "uint256"
        }
      ],
      "name": "checkExpiry",
      "outputs": [
        {
          "internalType": "bool",
          "name": "success",
          "type": "bool"
        }
      ],
      "stateMutability": "pure",
      "type": "function"
    },
    {
      "inputs": [
        {
          "internalType": "address",
          "name": "_recipient",
          "type": "address"
        },
        {
          "internalType": "bytes32",
          "name": "_message",
          "type": "bytes32"
        }
      ],
      "name": "sendMessage",
      "outputs": [],
      "stateMutability": "nonpayable",
      "type": "function"
    },
    {
      "inputs": [],
      "name": "readMessage",
      "outputs": [
        {
          "internalType": "bytes32[]",
          "name": "",
          "type": "bytes32[]"
        }
      ],
      "stateMutability": "view",
      "type": "function"
    },
    {
      "inputs": [],
      "name": "getSubscribers",
      "outputs": [
        {
          "internalType": "address[]",
          "name": "",
          "type": "address[]"
        }
      ],
      "stateMutability": "view",
      "type": "function"
    },
    {
      "inputs": [],
      "name": "getConsumers",
      "outputs": [
        {
          "internalType": "address[]",
          "name": "",
          "type": "address[]"
        }
      ],
      "stateMutability": "view",
      "type": "function"
    },
    {
      "inputs": [
        {
          "internalType": "address",
          "name": "consumer",
          "type": "address"
        },
        {
          "internalType": "address",
          "name": "subscriber",
          "type": "address"
        },
        {
          "internalType": "uint256",
          "name": "reqtime",
          "type": "uint256"
        }
      ],
      "name": "getFreeCreditReport",
      "outputs": [
        {
          "internalType": "bytes32",
          "name": "",
          "type": "bytes32"
        }
      ],
      "stateMutability": "payable",
      "type": "function"
    },
    {
      "inputs": [
        {
          "internalType": "address",
          "name": "consumer",
          "type": "address"
        },
        {
          "internalType": "uint256",
          "name": "index",
          "type": "uint256"
        },
        {
          "internalType": "string",
          "name": "disputeDate",
          "type": "string"
        },
        {
          "internalType": "string",
          "name": "reason",
          "type": "string"
        }
      ],
      "name": "openDispute",
      "outputs": [],
      "stateMutability": "nonpayable",
      "type": "function"
    },
    {
      "inputs": [
        {
          "internalType": "address",
          "name": "consumer",
          "type": "address"
        }
      ],
      "name": "getReportsByConsumer",
      "outputs": [
        {
          "internalType": "bytes32",
          "name": "",
          "type": "bytes32"
        }
      ],
      "stateMutability": "view",
      "type": "function"
    },
    {
      "inputs": [
        {
          "internalType": "address",
          "name": "consumer",
          "type": "address"
        },
        {
          "internalType": "uint256",
          "name": "index",
          "type": "uint256"
        }
      ],
      "name": "purgeDispute",
      "outputs": [],
      "stateMutability": "nonpayable",
      "type": "function"
    },
    {
      "inputs": [
        {
          "internalType": "address",
          "name": "addr",
          "type": "address"
        },
        {
          "internalType": "uint256",
          "name": "_type",
          "type": "uint256"
        }
      ],
      "name": "addSubscriber",
      "outputs": [],
      "stateMutability": "nonpayable",
      "type": "function"
    },
    {
      "inputs": [
        {
          "internalType": "address",
          "name": "consumer",
          "type": "address"
        },
        {
          "internalType": "bytes",
          "name": "item",
          "type": "bytes"
        }
      ],
      "name": "addConsumerItem",
      "outputs": [],
      "stateMutability": "nonpayable",
      "type": "function"
    },
    {
      "inputs": [
        {
          "internalType": "address",
          "name": "consumer",
          "type": "address"
        },
        {
          "internalType": "uint256",
          "name": "reqtime",
          "type": "uint256"
        },
        {
          "internalType": "address payable",
          "name": "to",
          "type": "address"
        }
      ],
      "name": "getConsumerReport",
      "outputs": [
        {
          "internalType": "bytes32",
          "name": "",
          "type": "bytes32"
        }
      ],
      "stateMutability": "payable",
      "type": "function"
    },
    {
      "inputs": [
        {
          "internalType": "address",
          "name": "consumer",
          "type": "address"
        },
        {
          "internalType": "uint256",
          "name": "index",
          "type": "uint256"
        },
        {
          "internalType": "string",
          "name": "status",
          "type": "string"
        },
        {
          "internalType": "bool",
          "name": "purge",
          "type": "bool"
        }
      ],
      "name": "finalizeDispute",
      "outputs": [],
      "stateMutability": "nonpayable",
      "type": "function"
    },
    {
      "inputs": [
        {
          "internalType": "uint256",
          "name": "reqtime",
          "type": "uint256"
        }
      ],
      "name": "getCreditReport",
      "outputs": [
        {
          "internalType": "bytes32",
          "name": "",
          "type": "bytes32"
        }
      ],
      "stateMutability": "payable",
      "type": "function"
    },
    {
      "inputs": [],
      "name": "getInquiries",
      "outputs": [
        {
          "internalType": "string",
          "name": "",
          "type": "string"
        }
      ],
      "stateMutability": "view",
      "type": "function"
    },
    {
      "inputs": [
        {
          "internalType": "address",
          "name": "consumer",
          "type": "address"
        }
      ],
      "name": "getDisputes",
      "outputs": [
        {
          "internalType": "bytes32",
          "name": "",
          "type": "bytes32"
        }
      ],
      "stateMutability": "view",
      "type": "function"
    }
  ],
  "bytecode": "0x608060405234801561001057600080fd5b5033600a60006101000a81548173ffffffffffffffffffffffffffffffffffffffff021916908373ffffffffffffffffffffffffffffffffffffffff1602179055506001600a60146101000a81548160ff0219169083151502179055506000600781905550614e4a806100846000396000f3fe6080604052600436106101355760003560e01c806375cb1c43116100ab578063d69997801161006f578063d699978014610420578063d7fdd77014610450578063d91ed51d1461048d578063e09ee3af146104b8578063f7bddce4146104f5578063ffa1ad741461051e57610135565b806375cb1c4314610334578063893d20e81461035d578063a264c26c14610388578063bf04a10d146103b8578063c7068c8e146103e357610135565b80633b729b86116100fd5780633b729b86146102145780633d5913ae1461023f57806357486eb6146102685780636138d597146102915780636df2ddd8146102ce57806370d6e7b4146102f757610135565b8063031d5d011461013a5780630501b79f1461016557806305cc61ad1461019057806318a92881146101bb57806338cf7a27146101eb575b600080fd5b34801561014657600080fd5b5061014f610549565b60405161015c919061386c565b60405180910390f35b34801561017157600080fd5b5061017a6105de565b60405161018791906138a7565b60405180910390f35b34801561019c57600080fd5b506101a56105e6565b6040516101b291906139b2565b60405180910390f35b6101d560048036038101906101d09190613a14565b610704565b6040516101e29190613a50565b60405180910390f35b3480156101f757600080fd5b50610212600480360381019061020d9190613bdd565b610884565b005b34801561022057600080fd5b50610229610bb9565b60405161023691906139b2565b60405180910390f35b34801561024b57600080fd5b5061026660048036038101906102619190613c39565b610cd7565b005b34801561027457600080fd5b5061028f600480360381019061028a9190613d1a565b610ec8565b005b34801561029d57600080fd5b506102b860048036038101906102b39190613db9565b611415565b6040516102c59190613a50565b60405180910390f35b3480156102da57600080fd5b506102f560048036038101906102f09190613e12565b6114b7565b005b34801561030357600080fd5b5061031e60048036038101906103199190613c39565b611521565b60405161032b9190613eda565b60405180910390f35b34801561034057600080fd5b5061035b60048036038101906103569190613f34565b611535565b005b34801561036957600080fd5b50610372611d78565b60405161037f9190613fc6565b60405180910390f35b6103a2600480360381019061039d9190613fe1565b611da2565b6040516103af9190613a50565b60405180910390f35b3480156103c457600080fd5b506103cd612214565b6040516103da9190614089565b60405180910390f35b3480156103ef57600080fd5b5061040a60048036038101906104059190613db9565b61245d565b60405161041791906138a7565b60405180910390f35b61043a600480360381019061043591906140e9565b61246f565b6040516104479190613a50565b60405180910390f35b34801561045c57600080fd5b506104776004803603810190610472919061413c565b6126e5565b604051610484919061418b565b60405180910390f35b34801561049957600080fd5b506104a2612710565b6040516104af9190614089565b60405180910390f35b3480156104c457600080fd5b506104df60048036038101906104da9190613db9565b61291b565b6040516104ec9190613a50565b60405180910390f35b34801561050157600080fd5b5061051c60048036038101906105179190613c39565b613041565b005b34801561052a57600080fd5b50610533613309565b6040516105409190614089565b60405180910390f35b6060600860003373ffffffffffffffffffffffffffffffffffffffff1673ffffffffffffffffffffffffffffffffffffffff1681526020019081526020016000208054806020026020016040519081016040528092919081815260200182805480156105d457602002820191906000526020600020905b8154815260200190600101908083116105c0575b5050505050905090565b600042905090565b6060600a60009054906101000a900473ffffffffffffffffffffffffffffffffffffffff1673ffffffffffffffffffffffffffffffffffffffff163373ffffffffffffffffffffffffffffffffffffffff1614610678576040517f08c379a000000000000000000000000000000000000000000000000000000000815260040161066f906141f2565b60405180910390fd5b60058054806020026020016040519081016040528092919081815260200182805480156106fa57602002820191906000526020600020905b8160009054906101000a900473ffffffffffffffffffffffffffffffffffffffff1673ffffffffffffffffffffffffffffffffffffffff16815260200190600101908083116106b0575b5050505050905090565b600080600260003373ffffffffffffffffffffffffffffffffffffffff1673ffffffffffffffffffffffffffffffffffffffff168152602001908152602001600020541415610788576040517f08c379a000000000000000000000000000000000000000000000000000000000815260040161077f9061425e565b60405180910390fd5b600060405180604001604052803373ffffffffffffffffffffffffffffffffffffffff168152602001848152509050600360003373ffffffffffffffffffffffffffffffffffffffff1673ffffffffffffffffffffffffffffffffffffffff16815260200190815260200160002081908060018154018082558091505060019003906000526020600020906002020160009091909190915060008201518160000160006101000a81548173ffffffffffffffffffffffffffffffffffffffff021916908373ffffffffffffffffffffffffffffffffffffffff16021790555060208201518160010155505061087c33613342565b915050919050565b6000600160003373ffffffffffffffffffffffffffffffffffffffff1673ffffffffffffffffffffffffffffffffffffffff168152602001908152602001600020541415610907576040517f08c379a00000000000000000000000000000000000000000000000000000000081526004016108fe906142ca565b60405180910390fd5b600073ffffffffffffffffffffffffffffffffffffffff168273ffffffffffffffffffffffffffffffffffffffff161415610977576040517f08c379a000000000000000000000000000000000000000000000000000000000815260040161096e90614336565b60405180910390fd5b6000600260008473ffffffffffffffffffffffffffffffffffffffff1673ffffffffffffffffffffffffffffffffffffffff168152602001908152602001600020541415610a80576001600260008473ffffffffffffffffffffffffffffffffffffffff1673ffffffffffffffffffffffffffffffffffffffff168152602001908152602001600020819055506006829080600181540180825580915050600190039060005260206000200160009091909190916101000a81548173ffffffffffffffffffffffffffffffffffffffff021916908373ffffffffffffffffffffffffffffffffffffffff16021790555060076000815480929190610a7a90614385565b91905055505b600060405180604001604052803373ffffffffffffffffffffffffffffffffffffffff1681526020018381525090506000808473ffffffffffffffffffffffffffffffffffffffff1673ffffffffffffffffffffffffffffffffffffffff16815260200190815260200160002081908060018154018082558091505060019003906000526020600020906002020160009091909190915060008201518160000160006101000a81548173ffffffffffffffffffffffffffffffffffffffff021916908373ffffffffffffffffffffffffffffffffffffffff1602179055506020820151816001019080519060200190610b7a9291906135fb565b5050507fd87358bdb9fb3fd22dc44bf9aec10b565d35f5b8c903db24b4addfb35594895c83604051610bac9190614440565b60405180910390a1505050565b6060600a60009054906101000a900473ffffffffffffffffffffffffffffffffffffffff1673ffffffffffffffffffffffffffffffffffffffff163373ffffffffffffffffffffffffffffffffffffffff1614610c4b576040517f08c379a0000000000000000000000000000000000000000000000000000000008152600401610c42906141f2565b60405180910390fd5b6006805480602002602001604051908101604052809291908181526020018280548015610ccd57602002820191906000526020600020905b8160009054906101000a900473ffffffffffffffffffffffffffffffffffffffff1673ffffffffffffffffffffffffffffffffffffffff1681526020019060010190808311610c83575b5050505050905090565b600a60009054906101000a900473ffffffffffffffffffffffffffffffffffffffff1673ffffffffffffffffffffffffffffffffffffffff163373ffffffffffffffffffffffffffffffffffffffff1614610d67576040517f08c379a0000000000000000000000000000000000000000000000000000000008152600401610d5e906141f2565b60405180910390fd5b600460008373ffffffffffffffffffffffffffffffffffffffff1673ffffffffffffffffffffffffffffffffffffffff1681526020019081526020016000208181548110610db857610db761446e565b5b90600052602060002090600802016000808201600090556001820160006101000a81549073ffffffffffffffffffffffffffffffffffffffff02191690556002820160006101000a81549073ffffffffffffffffffffffffffffffffffffffff0219169055600382016000610e2d9190613681565b60048201600080820160006101000a81549073ffffffffffffffffffffffffffffffffffffffff0219169055600182016000610e6991906136c1565b5050600682016000610e7b9190613681565b600782016000610e8b9190613681565b50507fd87358bdb9fb3fd22dc44bf9aec10b565d35f5b8c903db24b4addfb35594895c82604051610ebc91906144e9565b60405180910390a15050565b600a60009054906101000a900473ffffffffffffffffffffffffffffffffffffffff1673ffffffffffffffffffffffffffffffffffffffff163373ffffffffffffffffffffffffffffffffffffffff1614610f58576040517f08c379a0000000000000000000000000000000000000000000000000000000008152600401610f4f906141f2565b60405180910390fd5b600060405180604001604052806000808873ffffffffffffffffffffffffffffffffffffffff1673ffffffffffffffffffffffffffffffffffffffff1681526020019081526020016000208681548110610fb557610fb461446e565b5b906000526020600020906002020160000160009054906101000a900473ffffffffffffffffffffffffffffffffffffffff1673ffffffffffffffffffffffffffffffffffffffff1681526020016000808873ffffffffffffffffffffffffffffffffffffffff1673ffffffffffffffffffffffffffffffffffffffff16815260200190815260200160002086815481106110525761105161446e565b5b9060005260206000209060020201600101805461106e90614546565b80601f016020809104026020016040519081016040528092919081815260200182805461109a90614546565b80156110e75780601f106110bc576101008083540402835291602001916110e7565b820191906000526020600020905b8154815290600101906020018083116110ca57829003601f168201915b5050505050815250905060006040518060e00160405280868152602001836000015173ffffffffffffffffffffffffffffffffffffffff1681526020018773ffffffffffffffffffffffffffffffffffffffff168152602001858152602001838152602001848152602001604051806020016040528060008152508152509050600460008773ffffffffffffffffffffffffffffffffffffffff1673ffffffffffffffffffffffffffffffffffffffff1681526020019081526020016000208190806001815401808255809150506001900390600052602060002090600802016000909190919091506000820151816000015560208201518160010160006101000a81548173ffffffffffffffffffffffffffffffffffffffff021916908373ffffffffffffffffffffffffffffffffffffffff16021790555060408201518160020160006101000a81548173ffffffffffffffffffffffffffffffffffffffff021916908373ffffffffffffffffffffffffffffffffffffffff1602179055506060820151816003019080519060200190611284929190613701565b5060808201518160040160008201518160000160006101000a81548173ffffffffffffffffffffffffffffffffffffffff021916908373ffffffffffffffffffffffffffffffffffffffff16021790555060208201518160010190805190602001906112f19291906135fb565b50505060a0820151816006019080519060200190611310929190613701565b5060c082015181600701908051906020019061132d929190613701565b50505060086000836000015173ffffffffffffffffffffffffffffffffffffffff1673ffffffffffffffffffffffffffffffffffffffff1681526020019081526020016000208583600001518887866020015188604051602001611396969594939291906146a5565b6040516020818303038152906040528051906020012090806001815401808255809150506001900390600052602060002001600090919091909150557fde371f040710867afadb0d380ec315de30e2cdd4edd5062dd8c82c7418784ad782600001516040516114059190614760565b60405180910390a1505050505050565b6000600a60009054906101000a900473ffffffffffffffffffffffffffffffffffffffff1673ffffffffffffffffffffffffffffffffffffffff163373ffffffffffffffffffffffffffffffffffffffff16146114a7576040517f08c379a000000000000000000000000000000000000000000000000000000000815260040161149e906141f2565b60405180910390fd5b6114b082613342565b9050919050565b600860008373ffffffffffffffffffffffffffffffffffffffff1673ffffffffffffffffffffffffffffffffffffffff1681526020019081526020016000208190806001815401808255809150506001900390600052602060002001600090919091909150555050565b606061152d83836134bc565b905092915050565b6000600160003373ffffffffffffffffffffffffffffffffffffffff1673ffffffffffffffffffffffffffffffffffffffff1681526020019081526020016000205414156115b8576040517f08c379a00000000000000000000000000000000000000000000000000000000081526004016115af906142ca565b60405180910390fd5b60006040518060e00160405280858152602001600460008873ffffffffffffffffffffffffffffffffffffffff1673ffffffffffffffffffffffffffffffffffffffff168152602001908152602001600020868154811061161c5761161b61446e565b5b906000526020600020906008020160010160009054906101000a900473ffffffffffffffffffffffffffffffffffffffff1673ffffffffffffffffffffffffffffffffffffffff168152602001600460008873ffffffffffffffffffffffffffffffffffffffff1673ffffffffffffffffffffffffffffffffffffffff16815260200190815260200160002086815481106116ba576116b961446e565b5b906000526020600020906008020160020160009054906101000a900473ffffffffffffffffffffffffffffffffffffffff1673ffffffffffffffffffffffffffffffffffffffff168152602001600460008873ffffffffffffffffffffffffffffffffffffffff1673ffffffffffffffffffffffffffffffffffffffff16815260200190815260200160002086815481106117585761175761446e565b5b9060005260206000209060080201600301805461177490614546565b80601f01602080910402602001604051908101604052809291908181526020018280546117a090614546565b80156117ed5780601f106117c2576101008083540402835291602001916117ed565b820191906000526020600020905b8154815290600101906020018083116117d057829003601f168201915b50505050508152602001600460008873ffffffffffffffffffffffffffffffffffffffff1673ffffffffffffffffffffffffffffffffffffffff16815260200190815260200160002086815481106118485761184761446e565b5b90600052602060002090600802016004016040518060400160405290816000820160009054906101000a900473ffffffffffffffffffffffffffffffffffffffff1673ffffffffffffffffffffffffffffffffffffffff1673ffffffffffffffffffffffffffffffffffffffff1681526020016001820180546118ca90614546565b80601f01602080910402602001604051908101604052809291908181526020018280546118f690614546565b80156119435780601f1061191857610100808354040283529160200191611943565b820191906000526020600020905b81548152906001019060200180831161192657829003601f168201915b5050505050815250508152602001600460008873ffffffffffffffffffffffffffffffffffffffff1673ffffffffffffffffffffffffffffffffffffffff16815260200190815260200160002086815481106119a2576119a161446e565b5b906000526020600020906008020160060180546119be90614546565b80601f01602080910402602001604051908101604052809291908181526020018280546119ea90614546565b8015611a375780601f10611a0c57610100808354040283529160200191611a37565b820191906000526020600020905b815481529060010190602001808311611a1a57829003601f168201915b505050505081526020018481525090508115611b7857600460008673ffffffffffffffffffffffffffffffffffffffff1673ffffffffffffffffffffffffffffffffffffffff1681526020019081526020016000208481548110611a9e57611a9d61446e565b5b90600052602060002090600802016000808201600090556001820160006101000a81549073ffffffffffffffffffffffffffffffffffffffff02191690556002820160006101000a81549073ffffffffffffffffffffffffffffffffffffffff0219169055600382016000611b139190613681565b60048201600080820160006101000a81549073ffffffffffffffffffffffffffffffffffffffff0219169055600182016000611b4f91906136c1565b5050600682016000611b619190613681565b600782016000611b719190613681565b5050611d3a565b80600460008773ffffffffffffffffffffffffffffffffffffffff1673ffffffffffffffffffffffffffffffffffffffff1681526020019081526020016000208581548110611bca57611bc961446e565b5b90600052602060002090600802016000820151816000015560208201518160010160006101000a81548173ffffffffffffffffffffffffffffffffffffffff021916908373ffffffffffffffffffffffffffffffffffffffff16021790555060408201518160020160006101000a81548173ffffffffffffffffffffffffffffffffffffffff021916908373ffffffffffffffffffffffffffffffffffffffff1602179055506060820151816003019080519060200190611c8c929190613701565b5060808201518160040160008201518160000160006101000a81548173ffffffffffffffffffffffffffffffffffffffff021916908373ffffffffffffffffffffffffffffffffffffffff1602179055506020820151816001019080519060200190611cf99291906135fb565b50505060a0820151816006019080519060200190611d18929190613701565b5060c0820151816007019080519060200190611d35929190613701565b509050505b7fd87358bdb9fb3fd22dc44bf9aec10b565d35f5b8c903db24b4addfb35594895c85604051611d6991906147da565b60405180910390a15050505050565b6000600a60009054906101000a900473ffffffffffffffffffffffffffffffffffffffff16905090565b6000600a60009054906101000a900473ffffffffffffffffffffffffffffffffffffffff1673ffffffffffffffffffffffffffffffffffffffff163373ffffffffffffffffffffffffffffffffffffffff1614611e34576040517f08c379a0000000000000000000000000000000000000000000000000000000008152600401611e2b906141f2565b60405180910390fd5b8383836000808290506000600360008773ffffffffffffffffffffffffffffffffffffffff1673ffffffffffffffffffffffffffffffffffffffff1681526020019081526020016000208054905090505b6000811115611fe05782158015611f5e5750600060016000600360008a73ffffffffffffffffffffffffffffffffffffffff1673ffffffffffffffffffffffffffffffffffffffff1681526020019081526020016000208481548110611eee57611eed61446e565b5b906000526020600020906002020160000160009054906101000a900473ffffffffffffffffffffffffffffffffffffffff1673ffffffffffffffffffffffffffffffffffffffff1673ffffffffffffffffffffffffffffffffffffffff1681526020019081526020016000205414155b15611fcd57600360008773ffffffffffffffffffffffffffffffffffffffff1673ffffffffffffffffffffffffffffffffffffffff1681526020019081526020016000208181548110611fb457611fb361446e565b5b9060005260206000209060020201600101549150600192505b8080611fd890614808565b915050611e85565b5060006001600360008873ffffffffffffffffffffffffffffffffffffffff1673ffffffffffffffffffffffffffffffffffffffff168152602001908152602001600020805490506120329190614832565b90506000600360008873ffffffffffffffffffffffffffffffffffffffff1673ffffffffffffffffffffffffffffffffffffffff16815260200190815260200160002082815481106120875761208661446e565b5b906000526020600020906002020160010154905060008114806120b85750846301dfe200826120b69190614866565b115b806120d05750846276a700846120ce9190614866565b105b61210f576040517f08c379a000000000000000000000000000000000000000000000000000000000815260040161210690614908565b60405180910390fd5b600060405180604001604052808d73ffffffffffffffffffffffffffffffffffffffff1681526020018b8152509050600360008d73ffffffffffffffffffffffffffffffffffffffff1673ffffffffffffffffffffffffffffffffffffffff16815260200190815260200160002081908060018154018082558091505060019003906000526020600020906002020160009091909190915060008201518160000160006101000a81548173ffffffffffffffffffffffffffffffffffffffff021916908373ffffffffffffffffffffffffffffffffffffffff1602179055506020820151816001015550506122038c613342565b985050505050505050509392505050565b6060600073ffffffffffffffffffffffffffffffffffffffff163373ffffffffffffffffffffffffffffffffffffffff161415612286576040517f08c379a000000000000000000000000000000000000000000000000000000000815260040161227d90614974565b60405180910390fd5b600a60009054906101000a900473ffffffffffffffffffffffffffffffffffffffff1673ffffffffffffffffffffffffffffffffffffffff163373ffffffffffffffffffffffffffffffffffffffff161415612319576040518060400160405280600581526020017f6f776e6572000000000000000000000000000000000000000000000000000000815250905061245a565b6000600160003373ffffffffffffffffffffffffffffffffffffffff1673ffffffffffffffffffffffffffffffffffffffff168152602001908152602001600020541461239d576040518060400160405280600a81526020017f7375627363726962657200000000000000000000000000000000000000000000815250905061245a565b6000600260003373ffffffffffffffffffffffffffffffffffffffff1673ffffffffffffffffffffffffffffffffffffffff1681526020019081526020016000205414612421576040518060400160405280600881526020017f636f6e73756d6572000000000000000000000000000000000000000000000000815250905061245a565b6040518060400160405280600781526020017f756e6b6e6f776e0000000000000000000000000000000000000000000000000081525090505b90565b6000612468826135b0565b9050919050565b600080600160003373ffffffffffffffffffffffffffffffffffffffff1673ffffffffffffffffffffffffffffffffffffffff1681526020019081526020016000205414156124f3576040517f08c379a00000000000000000000000000000000000000000000000000000000081526004016124ea906142ca565b60405180910390fd5b81600a60009054906101000a900473ffffffffffffffffffffffffffffffffffffffff1673ffffffffffffffffffffffffffffffffffffffff168173ffffffffffffffffffffffffffffffffffffffff1614612584576040517f08c379a000000000000000000000000000000000000000000000000000000000815260040161257b906149e0565b60405180910390fd5b66038d7ea4c68000803373ffffffffffffffffffffffffffffffffffffffff1631116125e5576040517f08c379a00000000000000000000000000000000000000000000000000000000081526004016125dc90614a4c565b60405180910390fd5b600060405180604001604052803373ffffffffffffffffffffffffffffffffffffffff168152602001878152509050600360008873ffffffffffffffffffffffffffffffffffffffff1673ffffffffffffffffffffffffffffffffffffffff16815260200190815260200160002081908060018154018082558091505060019003906000526020600020906002020160009091909190915060008201518160000160006101000a81548173ffffffffffffffffffffffffffffffffffffffff021916908373ffffffffffffffffffffffffffffffffffffffff1602179055506020820151816001015550506126d987613342565b93505050509392505050565b60008162278d00846126f79190614866565b10612705576001905061270a565b600090505b92915050565b60606000600260003373ffffffffffffffffffffffffffffffffffffffff1673ffffffffffffffffffffffffffffffffffffffff168152602001908152602001600020541415612795576040517f08c379a000000000000000000000000000000000000000000000000000000000815260040161278c9061425e565b60405180910390fd5b600060405180602001604052806000815250905060005b600360003373ffffffffffffffffffffffffffffffffffffffff1673ffffffffffffffffffffffffffffffffffffffff168152602001908152602001600020805490508110156129135781600360003373ffffffffffffffffffffffffffffffffffffffff1673ffffffffffffffffffffffffffffffffffffffff16815260200190815260200160002082815481106128485761284761446e565b5b906000526020600020906002020160000160009054906101000a900473ffffffffffffffffffffffffffffffffffffffff16600360003373ffffffffffffffffffffffffffffffffffffffff1673ffffffffffffffffffffffffffffffffffffffff16815260200190815260200160002083815481106128cb576128ca61446e565b5b9060005260206000209060020201600101546040516020016128ef93929190614a6c565b6040516020818303038152906040529150808061290b90614385565b9150506127ac565b508091505090565b6000600a60009054906101000a900473ffffffffffffffffffffffffffffffffffffffff1673ffffffffffffffffffffffffffffffffffffffff163373ffffffffffffffffffffffffffffffffffffffff16146129ad576040517f08c379a00000000000000000000000000000000000000000000000000000000081526004016129a4906141f2565b60405180910390fd5b6000805b600460008573ffffffffffffffffffffffffffffffffffffffff1673ffffffffffffffffffffffffffffffffffffffff168152602001908152602001600020805490508110156130375760006040518060e00160405280600460008873ffffffffffffffffffffffffffffffffffffffff1673ffffffffffffffffffffffffffffffffffffffff1681526020019081526020016000208481548110612a5957612a5861446e565b5b9060005260206000209060080201600001548152602001600460008873ffffffffffffffffffffffffffffffffffffffff1673ffffffffffffffffffffffffffffffffffffffff1681526020019081526020016000208481548110612ac157612ac061446e565b5b906000526020600020906008020160010160009054906101000a900473ffffffffffffffffffffffffffffffffffffffff1673ffffffffffffffffffffffffffffffffffffffff168152602001600460008873ffffffffffffffffffffffffffffffffffffffff1673ffffffffffffffffffffffffffffffffffffffff1681526020019081526020016000208481548110612b5f57612b5e61446e565b5b906000526020600020906008020160020160009054906101000a900473ffffffffffffffffffffffffffffffffffffffff1673ffffffffffffffffffffffffffffffffffffffff168152602001600460008873ffffffffffffffffffffffffffffffffffffffff1673ffffffffffffffffffffffffffffffffffffffff1681526020019081526020016000208481548110612bfd57612bfc61446e565b5b90600052602060002090600802016003018054612c1990614546565b80601f0160208091040260200160405190810160405280929190818152602001828054612c4590614546565b8015612c925780601f10612c6757610100808354040283529160200191612c92565b820191906000526020600020905b815481529060010190602001808311612c7557829003601f168201915b50505050508152602001600460008873ffffffffffffffffffffffffffffffffffffffff1673ffffffffffffffffffffffffffffffffffffffff1681526020019081526020016000208481548110612ced57612cec61446e565b5b90600052602060002090600802016004016040518060400160405290816000820160009054906101000a900473ffffffffffffffffffffffffffffffffffffffff1673ffffffffffffffffffffffffffffffffffffffff1673ffffffffffffffffffffffffffffffffffffffff168152602001600182018054612d6f90614546565b80601f0160208091040260200160405190810160405280929190818152602001828054612d9b90614546565b8015612de85780601f10612dbd57610100808354040283529160200191612de8565b820191906000526020600020905b815481529060010190602001808311612dcb57829003601f168201915b5050505050815250508152602001600460008873ffffffffffffffffffffffffffffffffffffffff1673ffffffffffffffffffffffffffffffffffffffff1681526020019081526020016000208481548110612e4757612e4661446e565b5b90600052602060002090600802016006018054612e6390614546565b80601f0160208091040260200160405190810160405280929190818152602001828054612e8f90614546565b8015612edc5780601f10612eb157610100808354040283529160200191612edc565b820191906000526020600020905b815481529060010190602001808311612ebf57829003601f168201915b50505050508152602001600460008873ffffffffffffffffffffffffffffffffffffffff1673ffffffffffffffffffffffffffffffffffffffff1681526020019081526020016000208481548110612f3757612f3661446e565b5b90600052602060002090600802016007018054612f5390614546565b80601f0160208091040260200160405190810160405280929190818152602001828054612f7f90614546565b8015612fcc5780601f10612fa157610100808354040283529160200191612fcc565b820191906000526020600020905b815481529060010190602001808311612faf57829003601f168201915b505050505081525090508281600001518260200151836040015184606001518560a001518660c0015160405160200161300b9796959493929190614b5e565b60405160208183030381529060405280519060200120925050808061302f90614385565b9150506129b1565b5080915050919050565b600a60009054906101000a900473ffffffffffffffffffffffffffffffffffffffff1673ffffffffffffffffffffffffffffffffffffffff163373ffffffffffffffffffffffffffffffffffffffff16146130d1576040517f08c379a00000000000000000000000000000000000000000000000000000000081526004016130c8906141f2565b60405180910390fd5b816000805b60058054905081101561316d578273ffffffffffffffffffffffffffffffffffffffff166005828154811061310e5761310d61446e565b5b9060005260206000200160009054906101000a900473ffffffffffffffffffffffffffffffffffffffff1673ffffffffffffffffffffffffffffffffffffffff16141561315a57600191505b808061316590614385565b9150506130d6565b5060001515811515146131b5576040517f08c379a00000000000000000000000000000000000000000000000000000000081526004016131ac90614c35565b60405180910390fd5b600073ffffffffffffffffffffffffffffffffffffffff168473ffffffffffffffffffffffffffffffffffffffff161415613225576040517f08c379a000000000000000000000000000000000000000000000000000000000815260040161321c90614336565b60405180910390fd5b82600160008673ffffffffffffffffffffffffffffffffffffffff1673ffffffffffffffffffffffffffffffffffffffff168152602001908152602001600020819055506005849080600181540180825580915050600190039060005260206000200160009091909190916101000a81548173ffffffffffffffffffffffffffffffffffffffff021916908373ffffffffffffffffffffffffffffffffffffffff1602179055507fae28b319183e2d4a0f4721e7fc4bb1c25a05610d1e2efb85b10dfbf7bbf4761b846040516132fb9190614ca1565b60405180910390a150505050565b6040518060400160405280600581526020017f312e302e3500000000000000000000000000000000000000000000000000000081525081565b60008060005b6000808573ffffffffffffffffffffffffffffffffffffffff1673ffffffffffffffffffffffffffffffffffffffff168152602001908152602001600020805490508110156134b257816000808673ffffffffffffffffffffffffffffffffffffffff1673ffffffffffffffffffffffffffffffffffffffff16815260200190815260200160002082815481106133e2576133e161446e565b5b906000526020600020906002020160000160009054906101000a900473ffffffffffffffffffffffffffffffffffffffff166000808773ffffffffffffffffffffffffffffffffffffffff1673ffffffffffffffffffffffffffffffffffffffff16815260200190815260200160002083815481106134645761346361446e565b5b906000526020600020906002020160010160405160200161348793929190614daf565b60405160208183030381529060405280519060200120915080806134aa90614385565b915050613348565b5080915050919050565b60606000808473ffffffffffffffffffffffffffffffffffffffff1673ffffffffffffffffffffffffffffffffffffffff168152602001908152602001600020828154811061350e5761350d61446e565b5b9060005260206000209060020201600101805461352a90614546565b80601f016020809104026020016040519081016040528092919081815260200182805461355690614546565b80156135a35780601f10613578576101008083540402835291602001916135a3565b820191906000526020600020905b81548152906001019060200180831161358657829003601f168201915b5050505050905092915050565b60008060008373ffffffffffffffffffffffffffffffffffffffff1673ffffffffffffffffffffffffffffffffffffffff168152602001908152602001600020805490509050919050565b82805461360790614546565b90600052602060002090601f0160209004810192826136295760008555613670565b82601f1061364257805160ff1916838001178555613670565b82800160010185558215613670579182015b8281111561366f578251825591602001919060010190613654565b5b50905061367d9190613787565b5090565b50805461368d90614546565b6000825580601f1061369f57506136be565b601f0160209004906000526020600020908101906136bd9190613787565b5b50565b5080546136cd90614546565b6000825580601f106136df57506136fe565b601f0160209004906000526020600020908101906136fd9190613787565b5b50565b82805461370d90614546565b90600052602060002090601f01602090048101928261372f5760008555613776565b82601f1061374857805160ff1916838001178555613776565b82800160010185558215613776579182015b8281111561377557825182559160200191906001019061375a565b5b5090506137839190613787565b5090565b5b808211156137a0576000816000905550600101613788565b5090565b600081519050919050565b600082825260208201905092915050565b6000819050602082019050919050565b6000819050919050565b6137e3816137d0565b82525050565b60006137f583836137da565b60208301905092915050565b6000602082019050919050565b6000613819826137a4565b61382381856137af565b935061382e836137c0565b8060005b8381101561385f57815161384688826137e9565b975061385183613801565b925050600181019050613832565b5085935050505092915050565b60006020820190508181036000830152613886818461380e565b905092915050565b6000819050919050565b6138a18161388e565b82525050565b60006020820190506138bc6000830184613898565b92915050565b600081519050919050565b600082825260208201905092915050565b6000819050602082019050919050565b600073ffffffffffffffffffffffffffffffffffffffff82169050919050565b6000613919826138ee565b9050919050565b6139298161390e565b82525050565b600061393b8383613920565b60208301905092915050565b6000602082019050919050565b600061395f826138c2565b61396981856138cd565b9350613974836138de565b8060005b838110156139a557815161398c888261392f565b975061399783613947565b925050600181019050613978565b5085935050505092915050565b600060208201905081810360008301526139cc8184613954565b905092915050565b6000604051905090565b600080fd5b600080fd5b6139f18161388e565b81146139fc57600080fd5b50565b600081359050613a0e816139e8565b92915050565b600060208284031215613a2a57613a296139de565b5b6000613a38848285016139ff565b91505092915050565b613a4a816137d0565b82525050565b6000602082019050613a656000830184613a41565b92915050565b613a748161390e565b8114613a7f57600080fd5b50565b600081359050613a9181613a6b565b92915050565b600080fd5b600080fd5b6000601f19601f8301169050919050565b7f4e487b7100000000000000000000000000000000000000000000000000000000600052604160045260246000fd5b613aea82613aa1565b810181811067ffffffffffffffff82111715613b0957613b08613ab2565b5b80604052505050565b6000613b1c6139d4565b9050613b288282613ae1565b919050565b600067ffffffffffffffff821115613b4857613b47613ab2565b5b613b5182613aa1565b9050602081019050919050565b82818337600083830152505050565b6000613b80613b7b84613b2d565b613b12565b905082815260208101848484011115613b9c57613b9b613a9c565b5b613ba7848285613b5e565b509392505050565b600082601f830112613bc457613bc3613a97565b5b8135613bd4848260208601613b6d565b91505092915050565b60008060408385031215613bf457613bf36139de565b5b6000613c0285828601613a82565b925050602083013567ffffffffffffffff811115613c2357613c226139e3565b5b613c2f85828601613baf565b9150509250929050565b60008060408385031215613c5057613c4f6139de565b5b6000613c5e85828601613a82565b9250506020613c6f858286016139ff565b9150509250929050565b600067ffffffffffffffff821115613c9457613c93613ab2565b5b613c9d82613aa1565b9050602081019050919050565b6000613cbd613cb884613c79565b613b12565b905082815260208101848484011115613cd957613cd8613a9c565b5b613ce4848285613b5e565b509392505050565b600082601f830112613d0157613d00613a97565b5b8135613d11848260208601613caa565b91505092915050565b60008060008060808587031215613d3457613d336139de565b5b6000613d4287828801613a82565b9450506020613d53878288016139ff565b935050604085013567ffffffffffffffff811115613d7457613d736139e3565b5b613d8087828801613cec565b925050606085013567ffffffffffffffff811115613da157613da06139e3565b5b613dad87828801613cec565b91505092959194509250565b600060208284031215613dcf57613dce6139de565b5b6000613ddd84828501613a82565b91505092915050565b613def816137d0565b8114613dfa57600080fd5b50565b600081359050613e0c81613de6565b92915050565b60008060408385031215613e2957613e286139de565b5b6000613e3785828601613a82565b9250506020613e4885828601613dfd565b9150509250929050565b600081519050919050565b600082825260208201905092915050565b60005b83811015613e8c578082015181840152602081019050613e71565b83811115613e9b576000848401525b50505050565b6000613eac82613e52565b613eb68185613e5d565b9350613ec6818560208601613e6e565b613ecf81613aa1565b840191505092915050565b60006020820190508181036000830152613ef48184613ea1565b905092915050565b60008115159050919050565b613f1181613efc565b8114613f1c57600080fd5b50565b600081359050613f2e81613f08565b92915050565b60008060008060808587031215613f4e57613f4d6139de565b5b6000613f5c87828801613a82565b9450506020613f6d878288016139ff565b935050604085013567ffffffffffffffff811115613f8e57613f8d6139e3565b5b613f9a87828801613cec565b9250506060613fab87828801613f1f565b91505092959194509250565b613fc08161390e565b82525050565b6000602082019050613fdb6000830184613fb7565b92915050565b600080600060608486031215613ffa57613ff96139de565b5b600061400886828701613a82565b935050602061401986828701613a82565b925050604061402a868287016139ff565b9150509250925092565b600081519050919050565b600082825260208201905092915050565b600061405b82614034565b614065818561403f565b9350614075818560208601613e6e565b61407e81613aa1565b840191505092915050565b600060208201905081810360008301526140a38184614050565b905092915050565b60006140b6826138ee565b9050919050565b6140c6816140ab565b81146140d157600080fd5b50565b6000813590506140e3816140bd565b92915050565b600080600060608486031215614102576141016139de565b5b600061411086828701613a82565b9350506020614121868287016139ff565b9250506040614132868287016140d4565b9150509250925092565b60008060408385031215614153576141526139de565b5b6000614161858286016139ff565b9250506020614172858286016139ff565b9150509250929050565b61418581613efc565b82525050565b60006020820190506141a0600083018461417c565b92915050565b7f6163636573732064656e69656420666f72206f776e6572000000000000000000600082015250565b60006141dc60178361403f565b91506141e7826141a6565b602082019050919050565b6000602082019050818103600083015261420b816141cf565b9050919050565b7f6163636573732064656e69656420666f7220636f6e73756d6572000000000000600082015250565b6000614248601a8361403f565b915061425382614212565b602082019050919050565b600060208201905081810360008301526142778161423b565b9050919050565b7f6163636573732064656e69656420666f72207375627363726962657200000000600082015250565b60006142b4601c8361403f565b91506142bf8261427e565b602082019050919050565b600060208201905081810360008301526142e3816142a7565b9050919050565b7f6d697373696e6720616464726573730000000000000000000000000000000000600082015250565b6000614320600f8361403f565b915061432b826142ea565b602082019050919050565b6000602082019050818103600083015261434f81614313565b9050919050565b7f4e487b7100000000000000000000000000000000000000000000000000000000600052601160045260246000fd5b60006143908261388e565b91507fffffffffffffffffffffffffffffffffffffffffffffffffffffffffffffffff8214156143c3576143c2614356565b5b600182019050919050565b7f6e6577206974656d2077617320616464656420746f20796f7572207265706f7260008201527f7400000000000000000000000000000000000000000000000000000000000000602082015250565b600061442a60218361403f565b9150614435826143ce565b604082019050919050565b60006040820190506144556000830184613fb7565b81810360208301526144668161441d565b905092915050565b7f4e487b7100000000000000000000000000000000000000000000000000000000600052603260045260246000fd5b7f646973707574652064656c657465640000000000000000000000000000000000600082015250565b60006144d3600f8361403f565b91506144de8261449d565b602082019050919050565b60006040820190506144fe6000830184613fb7565b818103602083015261450f816144c6565b905092915050565b7f4e487b7100000000000000000000000000000000000000000000000000000000600052602260045260246000fd5b6000600282049050600182168061455e57607f821691505b6020821081141561457257614571614517565b5b50919050565b600081905092915050565b7f44697370757465204f70656e65643a0000000000000000000000000000000000600082015250565b60006145b9600f83614578565b91506145c482614583565b600f82019050919050565b6000819050919050565b6145ea6145e58261388e565b6145cf565b82525050565b60008160601b9050919050565b6000614608826145f0565b9050919050565b600061461a826145fd565b9050919050565b61463261462d8261390e565b61460f565b82525050565b600061464382614034565b61464d8185614578565b935061465d818560208601613e6e565b80840191505092915050565b600081905092915050565b600061467f82613e52565b6146898185614669565b9350614699818560208601613e6e565b80840191505092915050565b60006146b0826145ac565b91506146bc82896145d9565b6020820191506146cc8288614621565b6014820191506146dc8287614621565b6014820191506146ec8286614638565b91506146f88285614674565b91506147048284614638565b9150819050979650505050505050565b7f6e65772064697370757465206f70656e65640000000000000000000000000000600082015250565b600061474a60128361403f565b915061475582614714565b602082019050919050565b60006040820190506147756000830184613fb7565b81810360208301526147868161473d565b905092915050565b7f646973707574652066696e616c697a6564000000000000000000000000000000600082015250565b60006147c460118361403f565b91506147cf8261478e565b602082019050919050565b60006040820190506147ef6000830184613fb7565b8181036020830152614800816147b7565b905092915050565b60006148138261388e565b9150600082141561482757614826614356565b5b600182039050919050565b600061483d8261388e565b91506148488361388e565b92508282101561485b5761485a614356565b5b828203905092915050565b60006148718261388e565b915061487c8361388e565b9250827fffffffffffffffffffffffffffffffffffffffffffffffffffffffffffffffff038211156148b1576148b0614356565b5b828201905092915050565b7f6e6f7420656c696769626c6520666f7220612066726565207265706f72740000600082015250565b60006148f2601e8361403f565b91506148fd826148bc565b602082019050919050565b60006020820190508181036000830152614921816148e5565b9050919050565b7f6163636573732064656e69656420666f722073656e6465720000000000000000600082015250565b600061495e60188361403f565b915061496982614928565b602082019050919050565b6000602082019050818103600083015261498d81614951565b9050919050565b7f6e6f7420746865206f776e657200000000000000000000000000000000000000600082015250565b60006149ca600d8361403f565b91506149d582614994565b602082019050919050565b600060208201905081810360008301526149f9816149bd565b9050919050565b7f696e73756666696369656e742062616c616e63652f616d6f756e740000000000600082015250565b6000614a36601b8361403f565b9150614a4182614a00565b602082019050919050565b60006020820190508181036000830152614a6581614a29565b9050919050565b6000614a788286614638565b9150614a848285614621565b601482019150614a9482846145d9565b602082019150819050949350505050565b6000819050919050565b614ac0614abb826137d0565b614aa5565b82525050565b7f5b00000000000000000000000000000000000000000000000000000000000000600082015250565b6000614afc600183614578565b9150614b0782614ac6565b600182019050919050565b7f5d00000000000000000000000000000000000000000000000000000000000000600082015250565b6000614b48600183614578565b9150614b5382614b12565b600182019050919050565b6000614b6a828a614aaf565b602082019150614b7982614aef565b9150614b8582896145d9565b602082019150614b958288614621565b601482019150614ba58287614621565b601482019150614bb58286614638565b9150614bc18285614638565b9150614bcd8284614638565b9150614bd882614b3b565b915081905098975050505050505050565b7f7573657220697320616c72656164792061207375627363726962657200000000600082015250565b6000614c1f601c8361403f565b9150614c2a82614be9565b602082019050919050565b60006020820190508181036000830152614c4e81614c12565b9050919050565b7f7375627363726962657220616464656400000000000000000000000000000000600082015250565b6000614c8b60108361403f565b9150614c9682614c55565b602082019050919050565b6000604082019050614cb66000830184613fb7565b8181036020830152614cc781614c7e565b905092915050565b7f2c00000000000000000000000000000000000000000000000000000000000000600082015250565b6000614d05600183614578565b9150614d1082614ccf565b600182019050919050565b60008190508160005260206000209050919050565b60008154614d3d81614546565b614d478186614669565b94506001821660008114614d625760018114614d7357614da6565b60ff19831686528186019350614da6565b614d7c85614d1b565b60005b83811015614d9e57815481890152600182019150602081019050614d7f565b838801955050505b50505092915050565b6000614dbb8286614aaf565b602082019150614dca82614aef565b9150614dd68285614621565b601482019150614de582614cf8565b9150614df18284614d30565b9150614dfc82614cf8565b9150614e0782614b3b565b915081905094935050505056fea26469706673582212200dcfc3b3d0f679ef97996d8c5fe4ea00a6f6d823b56dcabfb8e9121c20a8128064736f6c634300080a0033",
  "immutableReferences": {},
  "source": "// SPDX-License-Identifier: CC-BY-4.0\npragma solidity >=0.4.22 <0.9.0;\n\nimport \"../Version.sol\";\n\ncontract CreditReport is Version {\n  bytes32 constant private ZERO_BYTES = bytes32(0);\n  address constant private ZERO_ADDRESS = address(0);\n\n  struct Item {\n    string opendate;\n    string  description;\n    uint    amount;\n    uint    balance;\n    uint    limit;\n    string  paystatus;\n  }\n\n  struct ReportItem {\n    address subscriber;\n    bytes   item;\n  }\n\n  struct Inquiry {\n    address subscriber;\n    uint256 reqdate; // epoch timestamp\n  }\n\n  struct Dispute {\n    uint index;\n    address subscriber;\n    address consumer;\n    string  disputeDate;\n    ReportItem item;\n    string reason;\n    string status;\n  }\n\n  mapping(address => ReportItem[]) private reports;\n  mapping(address => uint256) private subscribers;\n\n  mapping(address => uint256) private consumers;\n  mapping(address => Inquiry[]) private inquiries;\n  mapping(address => Dispute[]) private disputes;\n\n  address[] private _subscribers;\n  address[] private _consumers;\n\n  uint total_consumers;\n\n  mapping (address => bytes32[]) message;\n\n  mapping (bytes => address) private _owner;\n\n  address private owner;\n  bool private initialized;\n\n  event SubscriberAdded(address addr, string message);\n  event SubscriberNotified(address addr, string message);\n  event ConsumerNotified(address addr, string message);\n\n  constructor()\n  {\n    owner = msg.sender;\n    initialized = true;\n    total_consumers = 0;\n  }\n\n  // Modifiers\n  modifier onlyOwner() {\n    require(msg.sender == owner, \"access denied for owner\");\n    _;\n  }\n\n  modifier isOwner(address addr) {\n    require(addr == owner, \"not the owner\");\n    _;\n  }\n\n  modifier validSender() {\n    require(msg.sender != ZERO_ADDRESS,\"access denied for sender\");\n    _;\n  }\n\n  modifier onlySubscriber() {\n    require(subscribers[msg.sender] != 0, \"access denied for subscriber\");\n    _;\n  }\n\n  modifier onlyConsumer() {\n    require(consumers[msg.sender] != 0, \"access denied for consumer\");\n    _;\n  }\n\n  modifier alreadySubscriber(address addr) {\n    bool found = false;\n    for (uint i = 0; i < _subscribers.length; i++) {\n      if (_subscribers[i] == addr) {\n        found = true;\n      }\n    }\n    require(found == false, \"user is already a subscriber\");\n    _;\n  }\n\n  modifier alreadyConsumer(address addr) {\n    bool found = false;\n    for (uint i = 0; i < _consumers.length; i++) {\n      if (_consumers[i] == addr) {\n        found = true;\n      }\n    }\n    require(found == false, \"user is already a consumer\");\n    _;\n  }\n\n  /**\n   * A consumer is entitled\n   */\n  modifier freeReportCheck(address consumer, address subscriber, uint256 reqtime) {\n    bool found = false;\n    uint256 subscriber_lastreq = reqtime;\n    for (uint i = inquiries[consumer].length; i > 0; i--) {\n      if (!found && subscribers[inquiries[consumer][i].subscriber] != 0) {\n          subscriber_lastreq = inquiries[consumer][i].reqdate;\n          found = true;\n      }\n    }\n\n    uint consumer_total = inquiries[consumer].length - 1;\n    uint256 consumer_lastreq = inquiries[consumer][consumer_total].reqdate;\n    require(\n      consumer_lastreq == 0 || (consumer_lastreq + 52 weeks) > reqtime || (subscriber_lastreq + 90 days) < reqtime,\n     \"not eligible for a free report\");\n     _;\n  }\n\n  modifier requiresFee(uint fee) {\n    require(msg.sender.balance > fee, \"insufficient balance/amount\");\n    _;\n  }\n\n  // Common privleges\n  /**\n   * retrieves the owner\n   */\n  function getOwner()\n    public\n    view\n    returns (address addr)\n  {\n    return owner;\n  }\n\n  function getUserRole()\n    public\n    view\n    validSender\n    returns (string memory)\n  {\n    if (msg.sender == owner) {\n      return string(\"owner\");\n    } else if (subscribers[msg.sender] != 0) {\n      return string(\"subscriber\");\n    } else if (consumers[msg.sender] != 0) {\n      return string(\"consumer\");\n    }\n    return string(\"unknown\");\n  }\n\n  function getConsumerReportTotal(address consumer)\n    public\n    view\n    returns (uint)\n  {\n    return _reportItemsTotal(consumer);\n  }\n\n  function getConsumerReportItem(address consumer,uint index)\n    public\n    view\n    returns (bytes memory)\n  {\n    return _reportItem(consumer, index);\n  }\n\n  function getBlocktime()\n    public\n    view\n    returns (uint256)\n  {\n    return block.timestamp;\n  }\n\n  /**\n   * The disputeDate is in ISO and must be converted to epoch timestamp before checking current time\n   * The currentTime is epoch timestamp provided by the caller\n   */\n  function checkExpiry(uint256 LastTimeStamp, uint256 currentTime)\n   public\n   pure\n   returns(bool success)\n  {\n    if (LastTimeStamp + 30 days >= currentTime) {\n      return true;\n    } else {\n      return false;\n    }\n  }\n\n  function sendMessage(address _recipient, bytes32 _message)\n    public\n  {\n    message[_recipient].push(_message);\n  }\n\n  function readMessage()\n    public\n    view\n    returns (bytes32[] memory)\n  {\n    return message[msg.sender];\n  }\n\n  // Owner-Administrator privileges\n  function getSubscribers()\n  public\n  view\n  onlyOwner\n  returns (address[] memory)\n  {\n    return _subscribers;\n  }\n\n  function getConsumers()\n  public\n  view\n  onlyOwner\n  returns (address[] memory)\n  {\n    return _consumers;\n  }\n\n  /**\n   * retrieves consumer report for the consumer by the owner so the consumer does not incur gas fees.\n   * to abide by law and allow free credit report to the consumer, cannot change the state on the contract,\n   * otherwise the method must pay gas fee. By not recording consumer self requests in the contract, keeps\n   * this function free.\n   */\n  function getFreeCreditReport(address consumer, address subscriber, uint256 reqtime)\n    public\n    payable\n    onlyOwner\n    freeReportCheck(consumer, subscriber, reqtime)\n    returns (bytes32)\n  {\n    Inquiry memory inquiry = Inquiry(consumer, reqtime);\n    inquiries[consumer].push(inquiry);\n    return _report(consumer);\n  }\n\n  /**\n   * because open dispute changes the state of the contract, gas fees applies,\n   * hence the consumer must start a dispute offline, and send to the owner to create a dispute and the owner pays the gas fee\n   */\n  function openDispute(address consumer, uint index, string memory disputeDate,string memory reason)\n    public\n    onlyOwner\n  {\n    ReportItem memory report = ReportItem(reports[consumer][index].subscriber,reports[consumer][index].item);\n    Dispute memory dispute = Dispute(index, report.subscriber, consumer, disputeDate, report, reason, \"\");\n    disputes[consumer].push(dispute);\n    message[report.subscriber].push(\n      keccak256(\n        abi.encodePacked(\n          \"Dispute Opened:\",\n          index,\n          report.subscriber,\n          consumer,\n          disputeDate,\n          report.item,\n          reason\n        )\n      )\n    );\n    emit SubscriberNotified(report.subscriber, \"new dispute opened\");\n  }\n\n  function getReportsByConsumer(address consumer)\n    public\n    view\n    onlyOwner\n    returns (bytes32)\n  {\n    return _report(consumer);\n  }\n\n  function purgeDispute(address consumer, uint index)\n    public\n    onlyOwner\n  {\n    delete disputes[consumer][index];\n    emit ConsumerNotified(consumer, \"dispute deleted\");\n  }\n\n  // Subscriber privileges\n  /**\n   * adds a new subscriber\n   */\n  function addSubscriber(address addr, uint256 _type)\n  public\n  onlyOwner\n  alreadySubscriber(addr)\n  {\n    require(addr != ZERO_ADDRESS,\"missing address\");\n    subscribers[addr] = _type;\n    _subscribers.push(addr);\n    emit SubscriberAdded(addr, \"subscriber added\");\n  }\n\n  /**\n   * adds an item to the consumer report by an existing subscriber, must contain the minimum:\n   *    subscriber, open date, amount, description, balance, limit, payment status\n   */\n  function addConsumerItem(address consumer, bytes memory item)\n    public\n    onlySubscriber\n  {\n    require(consumer != ZERO_ADDRESS,\"missing address\");\n    if (consumers[consumer] == 0) {\n      consumers[consumer] = 1;\n      _consumers.push(consumer);\n      total_consumers++;\n    }\n    ReportItem memory ritem = ReportItem(msg.sender, item);\n    reports[consumer].push(ritem);\n    emit ConsumerNotified(consumer, \"new item was added to your report\");\n  }\n\n  /**\n   * retrieves consumer report by a subscriber, fee is paid to the owner\n   */\n  function getConsumerReport(address consumer, uint reqtime, address payable to)\n    public\n    payable\n    onlySubscriber\n    isOwner(to)\n    requiresFee(0.001 ether)\n    returns (bytes32)\n  {\n    //to.transfer(0.001 ether);\n    Inquiry memory inquiry = Inquiry(msg.sender, reqtime);\n    inquiries[consumer].push(inquiry);\n    return _report(consumer);\n  }\n\n  function finalizeDispute(address consumer,uint index,string memory status, bool purge)\n    public\n    onlySubscriber\n  {\n    Dispute memory dispute = Dispute(\n      index,\n      disputes[consumer][index].subscriber,\n      disputes[consumer][index].consumer,\n      disputes[consumer][index].disputeDate,\n      disputes[consumer][index].item,\n      disputes[consumer][index].reason,\n      status\n    );\n\n    if (purge) {\n      delete disputes[consumer][index];\n    } else {\n      disputes[consumer][index] = dispute;\n    }\n    emit ConsumerNotified(consumer, \"dispute finalized\");\n  }\n\n  // Consumer previlieges\n  /**\n   * When the consumer is not entitled to a free annual report\n   */\n  function getCreditReport(uint256 reqtime)\n    public\n    payable\n    onlyConsumer\n    returns (bytes32)\n  {\n    Inquiry memory inquiry = Inquiry(msg.sender, reqtime);\n    inquiries[msg.sender].push(inquiry);\n    return _report(msg.sender);\n  }\n\n  function getInquiries()\n    public\n    view\n    onlyConsumer\n    returns (string memory)\n  {\n    string memory output = \"\";\n    for (uint i = 0; i < inquiries[msg.sender].length; i++) {\n      output = string(\n        abi.encodePacked(\n          output,\n          inquiries[msg.sender][i].subscriber,\n          inquiries[msg.sender][i].reqdate\n        )\n      );\n    }\n    return output;\n  }\n\n  /**\n   * The contract owner will pull a list of disputes,\n   * while iterating through each dispute,\n   * convert the disputeDate from ISO string to an epoch timestamp and get current time in epoch timestamp,\n   * check if the dispute is expired by more than 30 days from current time,\n   * if dispute is expired, delete the dispute and notifiy consumer\n   */\n  function getDisputes(address consumer)\n    public\n    view\n    onlyOwner\n    returns (bytes32)\n  {\n    bytes32 output = \"\";\n    for (uint i = 0; i < disputes[consumer].length; i++) {\n      Dispute memory _dispute = Dispute(\n        disputes[consumer][i].index,\n        disputes[consumer][i].subscriber,\n        disputes[consumer][i].consumer,\n        disputes[consumer][i].disputeDate,\n        disputes[consumer][i].item,\n        disputes[consumer][i].reason,\n        disputes[consumer][i].status\n      );\n      output = keccak256(\n        abi.encodePacked(\n          output,\n          \"[\",\n          _dispute.index,\n          _dispute.subscriber,\n          _dispute.consumer,\n          _dispute.disputeDate,\n          _dispute.reason,\n          _dispute.status,\n          \"]\"\n        )\n      );\n    }\n    return output;\n  }\n\n  // Internal privileges\n  function _report(address consumer)\n    internal\n    view\n    returns (bytes32)\n  {\n    bytes32 output;\n    for (uint i = 0; i < reports[consumer].length; i++) {\n      output = keccak256(abi.encodePacked(\n        output, \"[\",\n          reports[consumer][i].subscriber, \",\",\n          reports[consumer][i].item, \",\",\n        \"]\"\n      ));\n    }\n    return output;\n  }\n\n  function _reportItem(address consumer, uint index)\n    internal\n    view\n    returns (bytes memory)\n  {\n    return reports[consumer][index].item;\n  }\n\n  function _reportItemsTotal(address consumer)\n    internal\n    view\n    returns (uint)\n  {\n    return reports[consumer].length;\n  }\n}\n",
  "sourcePath": "G:\\projects\\pingleware-contracts\\contracts\\credit\\CreditReport.sol",
  "compiler": {
    "name": "solc",
    "version": "0.8.10+commit.fc410830.Emscripten.clang"
  },
  "schemaVersion": "3.4.3",
  "updatedAt": "2021-12-22T00:15:19.354Z",
  "devdoc": {
    "kind": "dev",
    "methods": {},
    "version": 1
  },
  "userdoc": {
    "kind": "user",
    "methods": {
      "addConsumerItem(address,bytes)": {
        "notice": "adds an item to the consumer report by an existing subscriber, must contain the minimum:    subscriber, open date, amount, description, balance, limit, payment status"
      },
      "addSubscriber(address,uint256)": {
        "notice": "adds a new subscriber"
      },
      "checkExpiry(uint256,uint256)": {
        "notice": "The disputeDate is in ISO and must be converted to epoch timestamp before checking current time The currentTime is epoch timestamp provided by the caller"
      },
      "getConsumerReport(address,uint256,address)": {
        "notice": "retrieves consumer report by a subscriber, fee is paid to the owner"
      },
      "getCreditReport(uint256)": {
        "notice": "When the consumer is not entitled to a free annual report"
      },
      "getDisputes(address)": {
        "notice": "The contract owner will pull a list of disputes, while iterating through each dispute, convert the disputeDate from ISO string to an epoch timestamp and get current time in epoch timestamp, check if the dispute is expired by more than 30 days from current time, if dispute is expired, delete the dispute and notifiy consumer"
      },
      "getFreeCreditReport(address,address,uint256)": {
        "notice": "retrieves consumer report for the consumer by the owner so the consumer does not incur gas fees. to abide by law and allow free credit report to the consumer, cannot change the state on the contract, otherwise the method must pay gas fee. By not recording consumer self requests in the contract, keeps this function free."
      },
      "getOwner()": {
        "notice": "retrieves the owner"
      },
      "openDispute(address,uint256,string,string)": {
        "notice": "because open dispute changes the state of the contract, gas fees applies, hence the consumer must start a dispute offline, and send to the owner to create a dispute and the owner pays the gas fee"
      }
    },
    "version": 1
  }
}