{
  "contractName": "CreditReport",
  "abi": [
    {
      "inputs": [
        {
          "internalType": "address",
          "name": "consumer",
          "type": "address"
        }
      ],
      "name": "getConsumerReportTotal",
      "outputs": [
        {
          "internalType": "uint256",
          "name": "",
          "type": "uint256"
        }
      ],
      "stateMutability": "view",
      "type": "function"
    },
    {
      "inputs": [
        {
          "internalType": "address",
          "name": "consumer",
          "type": "address"
        },
        {
          "internalType": "uint256",
          "name": "index",
          "type": "uint256"
        }
      ],
      "name": "getConsumerReportItem",
      "outputs": [
        {
          "internalType": "bytes",
          "name": "",
          "type": "bytes"
        }
      ],
      "stateMutability": "view",
      "type": "function"
    }
  ],
  "bytecode": "0x6080806040523461001a576102989081610020823930815050f35b600080fdfe60806040818152600436101561001457600080fd5b60009160e060020a833504906370d6e7b4821461007d575063c7068c8e1461003b57600080fd5b6020366003190112610079576020918190600160a060020a0361005c610227565b168152600080516020610243833981519152845220549051908152f35b5080fd5b83838060031936011261007957610092610227565b600160a060020a031682526000805160206102438339815191526020908152818320805490949193906024359081101561021057600294958252858220600195869202010193819085549560028704968281168015610206575b89891081146101ef578887528993929181156101cc5750600114610195575b505050829003601f01601f19908116830195939450926001604060020a0386118387101761017e5785929391838652818452845191828186015281955b8387106101665750508394508582601f949501015201168101030190f35b86810182015189880189015295810195889550610148565b60e060020a634e487b710282526041600452602482fd5b845281842091925083915b8783106101b9575094955085945083010185878061010b565b80548684018501529183019181016101a0565b60ff1916848801525095968796501515820285019091019150869050878061010b565b60e060020a634e487b710286526022600452602486fd5b97607f16976100ec565b60e060020a634e487b710282526032600452602482fd5b60043590600160a060020a038216820361023d57565b600080fdfe1976c9d94995177a9d059b4762326b22b4271d3517bd9ff8e9cca11477431e68a2646970667358221220c2993879b5b6564b537587979dd9ab7c6a6a4dd7d050f93a6ea51dd11952fd5a64736f6c63430008120033",
  "immutableReferences": {},
  "source": "// SPDX-License-Identifier: CC-BY-4.0\r\npragma solidity >=0.4.22 <0.9.0;\r\n\r\nlibrary CreditReport {\r\n    bytes32 constant private ZERO_BYTES = bytes32(0);\r\n    address constant private ZERO_ADDRESS = address(0);\r\n\r\n    struct Item {\r\n        string opendate;\r\n        string  description;\r\n        uint    amount;\r\n        uint    balance;\r\n        uint    limit;\r\n        string  paystatus;\r\n    }\r\n\r\n    struct ReportItem {\r\n        address subscriber;\r\n        bytes   item;\r\n    }\r\n\r\n    struct CreditReportStorage {\r\n      mapping(address => ReportItem[]) reports;\r\n    }\r\n\r\n    function creditReportStorage() internal pure returns (CreditReportStorage storage ds)\r\n    {\r\n        bytes32 position = keccak256(\"creditreport.storage\");\r\n        assembly { ds.slot := position }\r\n    }\r\n\r\n    function addConsumerItem(address consumer, bytes memory item)\r\n        internal\r\n    {\r\n        require(consumer != ZERO_ADDRESS,\"missing address\");\r\n        creditReportStorage().reports[consumer].push(ReportItem(msg.sender, item));\r\n    }\r\n\r\n    function getConsumerReportTotal(address consumer)\r\n        external\r\n        view\r\n        returns (uint)\r\n    {\r\n        return creditReportStorage().reports[consumer].length;\r\n    }\r\n\r\n    function getConsumerReportItem(address consumer,uint index)\r\n        public\r\n        view\r\n        returns (bytes memory)\r\n    {\r\n        return creditReportStorage().reports[consumer][index].item;\r\n    }\r\n\r\n    function getReportItem(address subscriber, bytes memory item)\r\n        internal\r\n        pure\r\n        returns (ReportItem memory)\r\n    {\r\n        return ReportItem(subscriber,item);\r\n    }\r\n\r\n    function getConsumerReport(address consumer)\r\n        internal\r\n        view\r\n        returns (bytes32)\r\n    {\r\n        return _report(consumer);\r\n    }\r\n\r\n    function _report(address consumer)\r\n        internal\r\n        view\r\n        returns (bytes32)\r\n    {\r\n        bytes32 output;\r\n        for (uint i = 0; i < creditReportStorage().reports[consumer].length; i++) {\r\n            output = keccak256(abi.encodePacked(\r\n                output, \"[\",\r\n                creditReportStorage().reports[consumer][i].subscriber, \",\",\r\n                creditReportStorage().reports[consumer][i].item, \",\",\r\n                \"]\"\r\n            ));\r\n        }\r\n        return output;\r\n    }\r\n\r\n}",
  "sourcePath": "/Volumes/HOME/pingleware-contracts/contracts/finance/credit/CreditReport.sol",
  "compiler": {
    "name": "solc",
    "version": "0.8.18+commit.87f61d96.Emscripten.clang"
  },
  "schemaVersion": "3.4.12",
  "updatedAt": "2024-05-23T18:56:25.448Z",
  "devdoc": {
    "kind": "dev",
    "methods": {},
    "version": 1
  },
  "userdoc": {
    "kind": "user",
    "methods": {},
    "version": 1
  }
}