{
  "contractName": "DebtToken",
  "abi": [
    {
      "inputs": [],
      "stateMutability": "nonpayable",
      "type": "constructor"
    },
    {
      "anonymous": false,
      "inputs": [
        {
          "indexed": true,
          "internalType": "address",
          "name": "tokenOwner",
          "type": "address"
        },
        {
          "indexed": true,
          "internalType": "address",
          "name": "spender",
          "type": "address"
        },
        {
          "indexed": false,
          "internalType": "uint256",
          "name": "tokens",
          "type": "uint256"
        }
      ],
      "name": "Approval",
      "type": "event"
    },
    {
      "anonymous": false,
      "inputs": [
        {
          "indexed": true,
          "internalType": "address",
          "name": "tokenHolder",
          "type": "address"
        }
      ],
      "name": "Buyerlist",
      "type": "event"
    },
    {
      "anonymous": false,
      "inputs": [
        {
          "indexed": true,
          "internalType": "address",
          "name": "from",
          "type": "address"
        },
        {
          "indexed": true,
          "internalType": "address",
          "name": "to",
          "type": "address"
        },
        {
          "indexed": false,
          "internalType": "uint256",
          "name": "tokens",
          "type": "uint256"
        }
      ],
      "name": "Transfer",
      "type": "event"
    },
    {
      "anonymous": false,
      "inputs": [
        {
          "indexed": true,
          "internalType": "address",
          "name": "tokenHolder",
          "type": "address"
        },
        {
          "indexed": false,
          "internalType": "uint256",
          "name": "amount",
          "type": "uint256"
        }
      ],
      "name": "issueDivi",
      "type": "event"
    },
    {
      "anonymous": false,
      "inputs": [
        {
          "indexed": false,
          "internalType": "uint256",
          "name": "fromtime",
          "type": "uint256"
        },
        {
          "indexed": false,
          "internalType": "uint256",
          "name": "totime",
          "type": "uint256"
        },
        {
          "indexed": false,
          "internalType": "uint256",
          "name": "rate",
          "type": "uint256"
        },
        {
          "indexed": false,
          "internalType": "uint256",
          "name": "supply",
          "type": "uint256"
        }
      ],
      "name": "startSale",
      "type": "event"
    },
    {
      "inputs": [],
      "name": "_decimals",
      "outputs": [
        {
          "internalType": "uint8",
          "name": "",
          "type": "uint8"
        }
      ],
      "stateMutability": "view",
      "type": "function",
      "constant": true
    },
    {
      "inputs": [],
      "name": "_name",
      "outputs": [
        {
          "internalType": "string",
          "name": "",
          "type": "string"
        }
      ],
      "stateMutability": "view",
      "type": "function",
      "constant": true
    },
    {
      "inputs": [],
      "name": "_owner",
      "outputs": [
        {
          "internalType": "address",
          "name": "",
          "type": "address"
        }
      ],
      "stateMutability": "view",
      "type": "function",
      "constant": true
    },
    {
      "inputs": [],
      "name": "_symbol",
      "outputs": [
        {
          "internalType": "string",
          "name": "",
          "type": "string"
        }
      ],
      "stateMutability": "view",
      "type": "function",
      "constant": true
    },
    {
      "inputs": [],
      "name": "_totalSupply",
      "outputs": [
        {
          "internalType": "uint256",
          "name": "",
          "type": "uint256"
        }
      ],
      "stateMutability": "view",
      "type": "function",
      "constant": true
    },
    {
      "inputs": [
        {
          "internalType": "address",
          "name": "",
          "type": "address"
        },
        {
          "internalType": "address",
          "name": "",
          "type": "address"
        }
      ],
      "name": "allowances",
      "outputs": [
        {
          "internalType": "uint256",
          "name": "",
          "type": "uint256"
        }
      ],
      "stateMutability": "view",
      "type": "function",
      "constant": true
    },
    {
      "inputs": [
        {
          "internalType": "address",
          "name": "",
          "type": "address"
        }
      ],
      "name": "approvals",
      "outputs": [
        {
          "internalType": "uint256",
          "name": "",
          "type": "uint256"
        }
      ],
      "stateMutability": "view",
      "type": "function",
      "constant": true
    },
    {
      "inputs": [
        {
          "internalType": "address",
          "name": "",
          "type": "address"
        }
      ],
      "name": "balances",
      "outputs": [
        {
          "internalType": "uint256",
          "name": "",
          "type": "uint256"
        }
      ],
      "stateMutability": "view",
      "type": "function",
      "constant": true
    },
    {
      "inputs": [],
      "name": "name",
      "outputs": [
        {
          "internalType": "string",
          "name": "",
          "type": "string"
        }
      ],
      "stateMutability": "view",
      "type": "function",
      "constant": true
    },
    {
      "inputs": [],
      "name": "symbol",
      "outputs": [
        {
          "internalType": "string",
          "name": "",
          "type": "string"
        }
      ],
      "stateMutability": "view",
      "type": "function",
      "constant": true
    },
    {
      "inputs": [],
      "name": "decimals",
      "outputs": [
        {
          "internalType": "uint8",
          "name": "",
          "type": "uint8"
        }
      ],
      "stateMutability": "view",
      "type": "function",
      "constant": true
    },
    {
      "inputs": [],
      "name": "totalSupply",
      "outputs": [
        {
          "internalType": "uint256",
          "name": "",
          "type": "uint256"
        }
      ],
      "stateMutability": "view",
      "type": "function",
      "constant": true
    },
    {
      "inputs": [
        {
          "internalType": "uint256",
          "name": "amount",
          "type": "uint256"
        }
      ],
      "name": "setTotalSupply",
      "outputs": [],
      "stateMutability": "nonpayable",
      "type": "function"
    },
    {
      "inputs": [
        {
          "internalType": "address",
          "name": "account",
          "type": "address"
        }
      ],
      "name": "balanceOf",
      "outputs": [
        {
          "internalType": "uint256",
          "name": "",
          "type": "uint256"
        }
      ],
      "stateMutability": "view",
      "type": "function",
      "constant": true
    },
    {
      "inputs": [
        {
          "internalType": "address",
          "name": "to",
          "type": "address"
        },
        {
          "internalType": "uint256",
          "name": "amount",
          "type": "uint256"
        }
      ],
      "name": "transfer",
      "outputs": [
        {
          "internalType": "bool",
          "name": "",
          "type": "bool"
        }
      ],
      "stateMutability": "nonpayable",
      "type": "function"
    },
    {
      "inputs": [
        {
          "internalType": "address",
          "name": "owner",
          "type": "address"
        },
        {
          "internalType": "address",
          "name": "spender",
          "type": "address"
        }
      ],
      "name": "allowance",
      "outputs": [
        {
          "internalType": "uint256",
          "name": "",
          "type": "uint256"
        }
      ],
      "stateMutability": "view",
      "type": "function",
      "constant": true
    },
    {
      "inputs": [
        {
          "internalType": "address",
          "name": "spender",
          "type": "address"
        },
        {
          "internalType": "uint256",
          "name": "amount",
          "type": "uint256"
        }
      ],
      "name": "approve",
      "outputs": [
        {
          "internalType": "bool",
          "name": "",
          "type": "bool"
        }
      ],
      "stateMutability": "nonpayable",
      "type": "function"
    },
    {
      "inputs": [
        {
          "internalType": "address",
          "name": "from",
          "type": "address"
        },
        {
          "internalType": "address",
          "name": "to",
          "type": "address"
        },
        {
          "internalType": "uint256",
          "name": "amount",
          "type": "uint256"
        }
      ],
      "name": "transferFrom",
      "outputs": [
        {
          "internalType": "bool",
          "name": "",
          "type": "bool"
        }
      ],
      "stateMutability": "nonpayable",
      "type": "function"
    },
    {
      "inputs": [
        {
          "internalType": "address",
          "name": "spender",
          "type": "address"
        },
        {
          "internalType": "uint256",
          "name": "addedValue",
          "type": "uint256"
        }
      ],
      "name": "increaseAllowance",
      "outputs": [
        {
          "internalType": "bool",
          "name": "",
          "type": "bool"
        }
      ],
      "stateMutability": "nonpayable",
      "type": "function"
    },
    {
      "inputs": [
        {
          "internalType": "address",
          "name": "spender",
          "type": "address"
        },
        {
          "internalType": "uint256",
          "name": "subtractedValue",
          "type": "uint256"
        }
      ],
      "name": "decreaseAllowance",
      "outputs": [
        {
          "internalType": "bool",
          "name": "",
          "type": "bool"
        }
      ],
      "stateMutability": "nonpayable",
      "type": "function"
    }
  ],
  "bytecode": "0x608060405234801561001057600080fd5b5060078054600160a060020a03191633179055610821806100326000396000f3fe608060405234801561001057600080fd5b50600436106100ff5760e060020a600035046306fdde038114610104578063095ea7b31461012257806318160ddd1461014557806323b872dd1461015757806327e235e31461016a578063313ce5671461018a57806332424aa3146101a357806339509351146101b05780633eaaf86b146101c357806355b6ed5c146101cc5780635d0341ba146101f757806370a082311461021757806395d89b4114610240578063a457c2d714610248578063a9059cbb1461025b578063b09f12661461026e578063b2bdfa7b14610276578063d28d8852146102a1578063dd62ed3e146102a9578063f7ea7a3d146102bc575b600080fd5b61010c6102d1565b6040516101199190610636565b60405180910390f35b6101356101303660046106a0565b610363565b6040519015158152602001610119565b6003545b604051908152602001610119565b6101356101653660046106ca565b610387565b610149610178366004610706565b60046020526000908152604090205481565b60025460ff165b60405160ff9091168152602001610119565b6002546101919060ff1681565b6101356101be3660046106a0565b610415565b61014960035481565b6101496101da366004610721565b600560209081526000928352604080842090915290825290205481565b610149610205366004610706565b60066020526000908152604090205481565b610149610225366004610706565b600160a060020a031660009081526004602052604090205490565b61010c61045f565b6101356102563660046106a0565b61046e565b6101356102693660046106a0565b6104aa565b61010c610515565b60075461028990600160a060020a031681565b604051600160a060020a039091168152602001610119565b61010c6105a3565b6101496102b7366004610721565b6105b0565b6102cf6102ca366004610754565b600355565b005b6060600080546102e09061076d565b80601f016020809104026020016040519081016040528092919081815260200182805461030c9061076d565b80156103595780601f1061032e57610100808354040283529160200191610359565b820191906000526020600020905b81548152906001019060200180831161033c57829003601f168201915b5050505050905090565b600160a060020a038216600090815260066020526040902081905560015b92915050565b600160a060020a0383166000908152600460205260408120548211156103af5750600061040e565b600160a060020a038416600090815260046020526040812080548492906103d79084906107c5565b9091555050600160a060020a038316600090815260046020526040812080548492906104049084906107d8565b9091555060019150505b9392505050565b600754600160a060020a0390811660009081526005602090815260408083209386168352929052908120805483919083906104519084906107d8565b909155506001949350505050565b6060600180546102e09061076d565b600754600160a060020a0390811660009081526005602090815260408083209386168352929052908120805483919083906104519084906107c5565b336000908152600460205260408120548211156104c957506000610381565b33600090815260046020526040812080548492906104e89084906107c5565b9091555050600160a060020a038316600090815260046020526040812080548492906104519084906107d8565b600180546105229061076d565b80601f016020809104026020016040519081016040528092919081815260200182805461054e9061076d565b801561059b5780601f106105705761010080835404028352916020019161059b565b820191906000526020600020905b81548152906001019060200180831161057e57829003601f168201915b505050505081565b600080546105229061076d565b600754600090600160a060020a0384811691161461060a5760405160e560020a62461bcd02815260206004820152600d6024820152609960020a6c3737ba103a34329037bbb732b902604482015260640160405180910390fd5b50600160a060020a03918216600090815260056020908152604080832093909416825291909152205490565b600060208083528351808285015260005b8181101561066357858101830151858201604001528201610647565b506000604082860101526040601f19601f8301168501019250505092915050565b8035600160a060020a038116811461069b57600080fd5b919050565b600080604083850312156106b357600080fd5b6106bc83610684565b946020939093013593505050565b6000806000606084860312156106df57600080fd5b6106e884610684565b92506106f660208501610684565b9150604084013590509250925092565b60006020828403121561071857600080fd5b61040e82610684565b6000806040838503121561073457600080fd5b61073d83610684565b915061074b60208401610684565b90509250929050565b60006020828403121561076657600080fd5b5035919050565b60028104600182168061078157607f821691505b6020821081036107a55760e060020a634e487b710260009081526022600452602490fd5b50919050565b60e060020a634e487b710260009081526011600452602490fd5b81810381811115610381576103816107ab565b80820180821115610381576103816107ab56fea2646970667358221220e1edd78eead5d8033da5d41473ce55dcaecca9aefdf67a8593a4e40e6f637ec164736f6c63430008120033",
  "immutableReferences": {},
  "source": "// SPDX-License-Identifier: CC-BY-4.0\npragma solidity >=0.4.22 <0.9.0;\n\nimport \"../../interfaces/IToken.sol\";\n\ncontract DebtToken is IToken {\n    string public _name;\n    string public _symbol;\n    uint8 public _decimals;\n    uint256 public _totalSupply;\n\n    mapping(address => uint256) public balances;\n    mapping(address => mapping(address => uint256)) public allowances;\n    mapping(address => uint256) public approvals;\n\n    address public _owner;\n\n    constructor() {\n        _owner = msg.sender;\n    }\n    function name() external view returns (string memory) {\n        return _name;\n    }\n    function symbol() external view returns (string memory) {\n        return _symbol;\n    }\n    function decimals() external view returns (uint8) {\n        return _decimals;\n    }\n    function totalSupply() external view returns (uint256) {\n        return _totalSupply;\n    }\n    function setTotalSupply(uint256 amount) external {\n        _totalSupply = amount;\n    }\n    function balanceOf(address account) external view returns (uint256) {\n        return balances[account];\n    }\n    function transfer(address to, uint256 amount) external returns (bool) {\n        if (balances[msg.sender] < amount) return false;\n        balances[msg.sender] -= amount;\n        balances[to] += amount;\n        return true;\n    }\n    function allowance(address owner, address spender) external view returns (uint256) {\n        require(owner == _owner,\"not the owner\");\n        return allowances[owner][spender];\n    }\n    function approve(address spender, uint256 amount) external returns (bool) {\n        approvals[spender] = amount;\n        return true;\n    }\n    function transferFrom(address from, address to, uint256 amount) external returns (bool) {\n        if (balances[from] < amount) return false;\n        balances[from] -= amount;\n        balances[to] += amount;\n        return true;\n    }\n    function increaseAllowance(address spender, uint256 addedValue) external returns (bool) {\n        allowances[_owner][spender] += addedValue;\n        return true;\n    }\n    function decreaseAllowance(address spender, uint256 subtractedValue) external returns (bool) {\n        allowances[_owner][spender] -= subtractedValue;\n        return true;\n    }\n\n}",
  "sourcePath": "/Volumes/My Book/projects/pingleware-contracts/contracts/finance/debt/DebtToken.sol",
  "compiler": {
    "name": "solc",
    "version": "0.8.18+commit.87f61d96.Emscripten.clang"
  },
  "schemaVersion": "3.4.12",
  "updatedAt": "2023-10-24T16:42:57.062Z",
  "networkType": "ethereum",
  "devdoc": {
    "kind": "dev",
    "methods": {},
    "version": 1
  },
  "userdoc": {
    "kind": "user",
    "methods": {},
    "version": 1
  }
}