{
  "contractName": "DebtToken",
  "abi": [
    {
      "inputs": [],
      "stateMutability": "nonpayable",
      "type": "constructor"
    },
    {
      "anonymous": false,
      "inputs": [
        {
          "indexed": true,
          "internalType": "address",
          "name": "tokenOwner",
          "type": "address"
        },
        {
          "indexed": true,
          "internalType": "address",
          "name": "spender",
          "type": "address"
        },
        {
          "indexed": false,
          "internalType": "uint256",
          "name": "tokens",
          "type": "uint256"
        }
      ],
      "name": "Approval",
      "type": "event"
    },
    {
      "anonymous": false,
      "inputs": [
        {
          "indexed": true,
          "internalType": "address",
          "name": "tokenHolder",
          "type": "address"
        }
      ],
      "name": "Buyerlist",
      "type": "event"
    },
    {
      "anonymous": false,
      "inputs": [
        {
          "indexed": true,
          "internalType": "address",
          "name": "from",
          "type": "address"
        },
        {
          "indexed": true,
          "internalType": "address",
          "name": "to",
          "type": "address"
        },
        {
          "indexed": false,
          "internalType": "uint256",
          "name": "tokens",
          "type": "uint256"
        }
      ],
      "name": "Transfer",
      "type": "event"
    },
    {
      "anonymous": false,
      "inputs": [
        {
          "indexed": true,
          "internalType": "address",
          "name": "tokenHolder",
          "type": "address"
        },
        {
          "indexed": false,
          "internalType": "uint256",
          "name": "amount",
          "type": "uint256"
        }
      ],
      "name": "issueDivi",
      "type": "event"
    },
    {
      "anonymous": false,
      "inputs": [
        {
          "indexed": false,
          "internalType": "uint256",
          "name": "fromtime",
          "type": "uint256"
        },
        {
          "indexed": false,
          "internalType": "uint256",
          "name": "totime",
          "type": "uint256"
        },
        {
          "indexed": false,
          "internalType": "uint256",
          "name": "rate",
          "type": "uint256"
        },
        {
          "indexed": false,
          "internalType": "uint256",
          "name": "supply",
          "type": "uint256"
        }
      ],
      "name": "startSale",
      "type": "event"
    },
    {
      "inputs": [],
      "name": "_decimals",
      "outputs": [
        {
          "internalType": "uint8",
          "name": "",
          "type": "uint8"
        }
      ],
      "stateMutability": "view",
      "type": "function"
    },
    {
      "inputs": [],
      "name": "_name",
      "outputs": [
        {
          "internalType": "string",
          "name": "",
          "type": "string"
        }
      ],
      "stateMutability": "view",
      "type": "function"
    },
    {
      "inputs": [],
      "name": "_owner",
      "outputs": [
        {
          "internalType": "address",
          "name": "",
          "type": "address"
        }
      ],
      "stateMutability": "view",
      "type": "function"
    },
    {
      "inputs": [],
      "name": "_symbol",
      "outputs": [
        {
          "internalType": "string",
          "name": "",
          "type": "string"
        }
      ],
      "stateMutability": "view",
      "type": "function"
    },
    {
      "inputs": [],
      "name": "_totalSupply",
      "outputs": [
        {
          "internalType": "uint256",
          "name": "",
          "type": "uint256"
        }
      ],
      "stateMutability": "view",
      "type": "function"
    },
    {
      "inputs": [
        {
          "internalType": "address",
          "name": "",
          "type": "address"
        },
        {
          "internalType": "address",
          "name": "",
          "type": "address"
        }
      ],
      "name": "allowances",
      "outputs": [
        {
          "internalType": "uint256",
          "name": "",
          "type": "uint256"
        }
      ],
      "stateMutability": "view",
      "type": "function"
    },
    {
      "inputs": [
        {
          "internalType": "address",
          "name": "",
          "type": "address"
        }
      ],
      "name": "approvals",
      "outputs": [
        {
          "internalType": "uint256",
          "name": "",
          "type": "uint256"
        }
      ],
      "stateMutability": "view",
      "type": "function"
    },
    {
      "inputs": [
        {
          "internalType": "address",
          "name": "",
          "type": "address"
        }
      ],
      "name": "balances",
      "outputs": [
        {
          "internalType": "uint256",
          "name": "",
          "type": "uint256"
        }
      ],
      "stateMutability": "view",
      "type": "function"
    },
    {
      "inputs": [],
      "name": "name",
      "outputs": [
        {
          "internalType": "string",
          "name": "",
          "type": "string"
        }
      ],
      "stateMutability": "view",
      "type": "function"
    },
    {
      "inputs": [],
      "name": "symbol",
      "outputs": [
        {
          "internalType": "string",
          "name": "",
          "type": "string"
        }
      ],
      "stateMutability": "view",
      "type": "function"
    },
    {
      "inputs": [],
      "name": "decimals",
      "outputs": [
        {
          "internalType": "uint8",
          "name": "",
          "type": "uint8"
        }
      ],
      "stateMutability": "view",
      "type": "function"
    },
    {
      "inputs": [],
      "name": "totalSupply",
      "outputs": [
        {
          "internalType": "uint256",
          "name": "",
          "type": "uint256"
        }
      ],
      "stateMutability": "view",
      "type": "function"
    },
    {
      "inputs": [
        {
          "internalType": "uint256",
          "name": "amount",
          "type": "uint256"
        }
      ],
      "name": "setTotalSupply",
      "outputs": [],
      "stateMutability": "nonpayable",
      "type": "function"
    },
    {
      "inputs": [
        {
          "internalType": "address",
          "name": "account",
          "type": "address"
        }
      ],
      "name": "balanceOf",
      "outputs": [
        {
          "internalType": "uint256",
          "name": "",
          "type": "uint256"
        }
      ],
      "stateMutability": "view",
      "type": "function"
    },
    {
      "inputs": [
        {
          "internalType": "address",
          "name": "to",
          "type": "address"
        },
        {
          "internalType": "uint256",
          "name": "amount",
          "type": "uint256"
        }
      ],
      "name": "transfer",
      "outputs": [
        {
          "internalType": "bool",
          "name": "",
          "type": "bool"
        }
      ],
      "stateMutability": "nonpayable",
      "type": "function"
    },
    {
      "inputs": [
        {
          "internalType": "address",
          "name": "owner",
          "type": "address"
        },
        {
          "internalType": "address",
          "name": "spender",
          "type": "address"
        }
      ],
      "name": "allowance",
      "outputs": [
        {
          "internalType": "uint256",
          "name": "",
          "type": "uint256"
        }
      ],
      "stateMutability": "view",
      "type": "function"
    },
    {
      "inputs": [
        {
          "internalType": "address",
          "name": "spender",
          "type": "address"
        },
        {
          "internalType": "uint256",
          "name": "amount",
          "type": "uint256"
        }
      ],
      "name": "approve",
      "outputs": [
        {
          "internalType": "bool",
          "name": "",
          "type": "bool"
        }
      ],
      "stateMutability": "nonpayable",
      "type": "function"
    },
    {
      "inputs": [
        {
          "internalType": "address",
          "name": "from",
          "type": "address"
        },
        {
          "internalType": "address",
          "name": "to",
          "type": "address"
        },
        {
          "internalType": "uint256",
          "name": "amount",
          "type": "uint256"
        }
      ],
      "name": "transferFrom",
      "outputs": [
        {
          "internalType": "bool",
          "name": "",
          "type": "bool"
        }
      ],
      "stateMutability": "nonpayable",
      "type": "function"
    },
    {
      "inputs": [
        {
          "internalType": "address",
          "name": "spender",
          "type": "address"
        },
        {
          "internalType": "uint256",
          "name": "addedValue",
          "type": "uint256"
        }
      ],
      "name": "increaseAllowance",
      "outputs": [
        {
          "internalType": "bool",
          "name": "",
          "type": "bool"
        }
      ],
      "stateMutability": "nonpayable",
      "type": "function"
    },
    {
      "inputs": [
        {
          "internalType": "address",
          "name": "spender",
          "type": "address"
        },
        {
          "internalType": "uint256",
          "name": "subtractedValue",
          "type": "uint256"
        }
      ],
      "name": "decreaseAllowance",
      "outputs": [
        {
          "internalType": "bool",
          "name": "",
          "type": "bool"
        }
      ],
      "stateMutability": "nonpayable",
      "type": "function"
    }
  ],
  "bytecode": "0x608080604052346100285760078054600160a060020a0319163317905561077d908161002e8239f35b600080fdfe604060808152600436101561001357600080fd5b60009060e060020a823504906306fdde0382146101b6578163095ea7b31461042757816318160ddd1461036957816323b872dd146103f557816327e235e3146102b0578163313ce567146103d357816332424aa3146103d357816339509351146103885781633eaaf86b1461036957816355b6ed5c146103205781635d0341ba146102e857816370a08231146102b057816395d89b411461020c578163a457c2d71461025c578163a9059cbb1461022a578163b09f12661461020c578163b2bdfa7b146101e3578163d28d8852146101b6578163dd62ed3e1461011d575063f7ea7a3d1461010057600080fd5b3461011a57602036600319011261011a5760043560035580f35b80fd5b9050346101b257806003193601126101b2576101376104aa565b61013f6104c5565b6007549091600160a060020a03919082169082168103610178579184918493602096526005865283832091168252845220549051908152f35b835160e560020a62461bcd02815260206004820152600d6024820152609960020a6c3737ba103a34329037bbb732b9026044820152606490fd5b5080fd5b9050346101b257816003193601126101b2576101df906101d46104db565b905191829182610461565b0390f35b9050346101b257816003193601126101b2576007549051600160a060020a039091168152602090f35b9050346101b257816003193601126101b2576101df906101d46105ca565b9050346101b257806003193601126101b25760209061025361024a6104aa565b602435906106a2565b90519015158152f35b9050346101b257806003193601126101b2578060209261027a6104aa565b600754600160a060020a039081168352600586528383209116825284522080546102a7906024359061066e565b90555160018152f35b9050346101b25760203660031901126101b2576020918190600160a060020a036102d86104aa565b1681526004845220549051908152f35b9050346101b25760203660031901126101b2576020918190600160a060020a036103106104aa565b1681526006845220549051908152f35b9050346101b257806003193601126101b2578060209261033e6104aa565b6103466104c5565b600160a060020a0391821683526005865283832091168252845220549051908152f35b9050346101b257816003193601126101b2576020906003549051908152f35b9050346101b257806003193601126101b257806020926103a66104aa565b600754600160a060020a039081168352600586528383209116825284522080546102a79060243590610695565b9050346101b257816003193601126101b25760209060ff600254169051908152f35b9050346101b25760603660031901126101b2576020906102536104166104aa565b61041e6104c5565b604435916106f6565b9050346101b257806003193601126101b257602091600160a060020a0361044c6104aa565b16815260068352816024359120555160018152f35b6020808252825181830181905290939260005b82811061049657505060409293506000838284010152601f8019910116010190565b818101860151848201604001528501610474565b60043590600160a060020a03821682036104c057565b600080fd5b60243590600160a060020a03821682036104c057565b60405190600080546002810460018083169283156105c0575b60209384841081146105a95783885290811561058e5750600114610553575b505050829003601f01601f191682016001604060020a0381118382101761053957604052565b60e060020a634e487b710260009081526041600452602490fd5b919250600080528260002091836000935b83851061057a5750505050830101388080610513565b805488860183015293019284908201610564565b60ff1916878501525050151581028401019050388080610513565b60e060020a634e487b710286526022600452602486fd5b91607f16916104f4565b60405190600060018054906002820490808316928315610664575b60209384841081146105a95783885290811561058e575060011461062957505050829003601f01601f191682016001604060020a0381118382101761053957604052565b809293506000528260002091836000935b8385106106505750505050830101388080610513565b80548886018301529301928490820161063a565b91607f16916105e5565b9190820391821161067b57565b60e060020a634e487b710260009081526011600452602490fd5b9190820180921161067b57565b336000526004602052604060002080548381106106ed57836106c39161066e565b9055600160a060020a031660005260046020526106e66040600020918254610695565b9055600190565b50505050600090565b90600160a060020a0380921660005260046020526040600020805484811061073d57846107229161066e565b90551660005260046020526106e66040600020918254610695565b505050505060009056fea2646970667358221220338f145704bfc1f8dd4946e92883a778df6b661ffdcea015b8bedf23fbcc6f0264736f6c63430008120033",
  "immutableReferences": {},
  "source": "// SPDX-License-Identifier: CC-BY-4.0\npragma solidity >=0.4.22 <0.9.0;\n\nimport \"../../interfaces/IToken.sol\";\n\ncontract DebtToken is IToken {\n    string public _name;\n    string public _symbol;\n    uint8 public _decimals;\n    uint256 public _totalSupply;\n\n    mapping(address => uint256) public balances;\n    mapping(address => mapping(address => uint256)) public allowances;\n    mapping(address => uint256) public approvals;\n\n    address public _owner;\n\n    constructor() {\n        _owner = msg.sender;\n    }\n    function name() external view returns (string memory) {\n        return _name;\n    }\n    function symbol() external view returns (string memory) {\n        return _symbol;\n    }\n    function decimals() external view returns (uint8) {\n        return _decimals;\n    }\n    function totalSupply() external view returns (uint256) {\n        return _totalSupply;\n    }\n    function setTotalSupply(uint256 amount) external {\n        _totalSupply = amount;\n    }\n    function balanceOf(address account) external view returns (uint256) {\n        return balances[account];\n    }\n    function transfer(address to, uint256 amount) external returns (bool) {\n        if (balances[msg.sender] < amount) return false;\n        balances[msg.sender] -= amount;\n        balances[to] += amount;\n        return true;\n    }\n    function allowance(address owner, address spender) external view returns (uint256) {\n        require(owner == _owner,\"not the owner\");\n        return allowances[owner][spender];\n    }\n    function approve(address spender, uint256 amount) external returns (bool) {\n        approvals[spender] = amount;\n        return true;\n    }\n    function transferFrom(address from, address to, uint256 amount) external returns (bool) {\n        if (balances[from] < amount) return false;\n        balances[from] -= amount;\n        balances[to] += amount;\n        return true;\n    }\n    function increaseAllowance(address spender, uint256 addedValue) external returns (bool) {\n        allowances[_owner][spender] += addedValue;\n        return true;\n    }\n    function decreaseAllowance(address spender, uint256 subtractedValue) external returns (bool) {\n        allowances[_owner][spender] -= subtractedValue;\n        return true;\n    }\n\n}",
  "sourcePath": "/Volumes/HOME/pingleware-contracts/contracts/finance/debt/DebtToken.sol",
  "compiler": {
    "name": "solc",
    "version": "0.8.18+commit.87f61d96.Emscripten.clang"
  },
  "schemaVersion": "3.4.12",
  "updatedAt": "2024-05-23T18:56:25.666Z",
  "devdoc": {
    "kind": "dev",
    "methods": {},
    "version": 1
  },
  "userdoc": {
    "kind": "user",
    "methods": {},
    "version": 1
  }
}