{
  "contractName": "DelawareStockToken",
  "abi": [
    {
      "inputs": [
        {
          "internalType": "string",
          "name": "_symbol",
          "type": "string"
        },
        {
          "internalType": "string",
          "name": "_name",
          "type": "string"
        },
        {
          "internalType": "uint256",
          "name": "_supply",
          "type": "uint256"
        },
        {
          "internalType": "string",
          "name": "_hash",
          "type": "string"
        },
        {
          "internalType": "address payable",
          "name": "_registry",
          "type": "address"
        }
      ],
      "stateMutability": "nonpayable",
      "type": "constructor"
    },
    {
      "anonymous": false,
      "inputs": [
        {
          "indexed": true,
          "internalType": "address",
          "name": "AuthorizedBy",
          "type": "address"
        },
        {
          "indexed": true,
          "internalType": "address",
          "name": "AddressAdded",
          "type": "address"
        }
      ],
      "name": "AddressAddedToWhitelist",
      "type": "event"
    },
    {
      "anonymous": false,
      "inputs": [
        {
          "indexed": true,
          "internalType": "address",
          "name": "AuthorizedBy",
          "type": "address"
        },
        {
          "indexed": true,
          "internalType": "address",
          "name": "AddressRemoved",
          "type": "address"
        }
      ],
      "name": "AddressRemovedFromWhitelist",
      "type": "event"
    },
    {
      "anonymous": false,
      "inputs": [
        {
          "indexed": true,
          "internalType": "address",
          "name": "tokenOwner",
          "type": "address"
        },
        {
          "indexed": true,
          "internalType": "address",
          "name": "spender",
          "type": "address"
        },
        {
          "indexed": false,
          "internalType": "uint256",
          "name": "tokens",
          "type": "uint256"
        }
      ],
      "name": "Approval",
      "type": "event"
    },
    {
      "anonymous": false,
      "inputs": [
        {
          "indexed": false,
          "internalType": "address",
          "name": "authorizedBy",
          "type": "address"
        },
        {
          "indexed": false,
          "internalType": "bool",
          "name": "newStatus",
          "type": "bool"
        }
      ],
      "name": "ChangedCompanyStatus",
      "type": "event"
    },
    {
      "anonymous": false,
      "inputs": [
        {
          "indexed": false,
          "internalType": "address",
          "name": "sender",
          "type": "address"
        },
        {
          "indexed": false,
          "internalType": "uint256",
          "name": "amount",
          "type": "uint256"
        }
      ],
      "name": "FallbackEvent",
      "type": "event"
    },
    {
      "anonymous": false,
      "inputs": [
        {
          "indexed": true,
          "internalType": "address",
          "name": "previousOwner",
          "type": "address"
        },
        {
          "indexed": true,
          "internalType": "address",
          "name": "newOwner",
          "type": "address"
        }
      ],
      "name": "OwnershipTransferred",
      "type": "event"
    },
    {
      "anonymous": false,
      "inputs": [
        {
          "indexed": false,
          "internalType": "address",
          "name": "sender",
          "type": "address"
        },
        {
          "indexed": false,
          "internalType": "uint256",
          "name": "amount",
          "type": "uint256"
        }
      ],
      "name": "ReceiveEvent",
      "type": "event"
    },
    {
      "anonymous": false,
      "inputs": [
        {
          "indexed": true,
          "internalType": "address",
          "name": "from",
          "type": "address"
        },
        {
          "indexed": true,
          "internalType": "address",
          "name": "to",
          "type": "address"
        },
        {
          "indexed": false,
          "internalType": "uint256",
          "name": "tokens",
          "type": "uint256"
        }
      ],
      "name": "Transfer",
      "type": "event"
    },
    {
      "stateMutability": "payable",
      "type": "fallback"
    },
    {
      "inputs": [],
      "name": "VERSION",
      "outputs": [
        {
          "internalType": "string",
          "name": "",
          "type": "string"
        }
      ],
      "stateMutability": "view",
      "type": "function"
    },
    {
      "inputs": [],
      "name": "WAIT",
      "outputs": [
        {
          "internalType": "uint256",
          "name": "",
          "type": "uint256"
        }
      ],
      "stateMutability": "view",
      "type": "function"
    },
    {
      "inputs": [
        {
          "internalType": "address",
          "name": "_address",
          "type": "address"
        }
      ],
      "name": "addAddressToWhitelist",
      "outputs": [],
      "stateMutability": "nonpayable",
      "type": "function"
    },
    {
      "inputs": [
        {
          "internalType": "address",
          "name": "",
          "type": "address"
        }
      ],
      "name": "balances",
      "outputs": [
        {
          "internalType": "uint256",
          "name": "",
          "type": "uint256"
        }
      ],
      "stateMutability": "view",
      "type": "function"
    },
    {
      "inputs": [],
      "name": "byLawsHash",
      "outputs": [
        {
          "internalType": "string",
          "name": "",
          "type": "string"
        }
      ],
      "stateMutability": "view",
      "type": "function"
    },
    {
      "inputs": [],
      "name": "decimals",
      "outputs": [
        {
          "internalType": "uint256",
          "name": "",
          "type": "uint256"
        }
      ],
      "stateMutability": "view",
      "type": "function"
    },
    {
      "inputs": [],
      "name": "getOwner",
      "outputs": [
        {
          "internalType": "address",
          "name": "",
          "type": "address"
        }
      ],
      "stateMutability": "payable",
      "type": "function"
    },
    {
      "inputs": [],
      "name": "isPrivateCompany",
      "outputs": [
        {
          "internalType": "bool",
          "name": "",
          "type": "bool"
        }
      ],
      "stateMutability": "view",
      "type": "function"
    },
    {
      "inputs": [
        {
          "internalType": "address",
          "name": "_address",
          "type": "address"
        }
      ],
      "name": "isWhitelisted",
      "outputs": [
        {
          "internalType": "bool",
          "name": "",
          "type": "bool"
        }
      ],
      "stateMutability": "view",
      "type": "function"
    },
    {
      "inputs": [],
      "name": "name",
      "outputs": [
        {
          "internalType": "string",
          "name": "",
          "type": "string"
        }
      ],
      "stateMutability": "view",
      "type": "function"
    },
    {
      "inputs": [],
      "name": "owner",
      "outputs": [
        {
          "internalType": "address",
          "name": "",
          "type": "address"
        }
      ],
      "stateMutability": "view",
      "type": "function"
    },
    {
      "inputs": [],
      "name": "platformWhitelist",
      "outputs": [
        {
          "internalType": "contract IdentityRegistry",
          "name": "",
          "type": "address"
        }
      ],
      "stateMutability": "view",
      "type": "function"
    },
    {
      "inputs": [
        {
          "internalType": "address",
          "name": "_address",
          "type": "address"
        }
      ],
      "name": "removeAddressFromWhitelist",
      "outputs": [],
      "stateMutability": "nonpayable",
      "type": "function"
    },
    {
      "inputs": [],
      "name": "renounceOwnership",
      "outputs": [],
      "stateMutability": "payable",
      "type": "function"
    },
    {
      "inputs": [],
      "name": "symbol",
      "outputs": [
        {
          "internalType": "string",
          "name": "",
          "type": "string"
        }
      ],
      "stateMutability": "view",
      "type": "function"
    },
    {
      "inputs": [
        {
          "internalType": "uint256",
          "name": "",
          "type": "uint256"
        }
      ],
      "name": "tokenOwners",
      "outputs": [
        {
          "internalType": "address",
          "name": "",
          "type": "address"
        }
      ],
      "stateMutability": "view",
      "type": "function"
    },
    {
      "inputs": [
        {
          "internalType": "address",
          "name": "newOwner",
          "type": "address"
        }
      ],
      "name": "transferOwnership",
      "outputs": [],
      "stateMutability": "payable",
      "type": "function"
    },
    {
      "inputs": [
        {
          "internalType": "address",
          "name": "",
          "type": "address"
        }
      ],
      "name": "whitelist",
      "outputs": [
        {
          "internalType": "bool",
          "name": "",
          "type": "bool"
        }
      ],
      "stateMutability": "view",
      "type": "function"
    },
    {
      "stateMutability": "payable",
      "type": "receive"
    },
    {
      "inputs": [
        {
          "internalType": "address",
          "name": "tokenOwner",
          "type": "address"
        }
      ],
      "name": "balanceOf",
      "outputs": [
        {
          "internalType": "uint256",
          "name": "",
          "type": "uint256"
        }
      ],
      "stateMutability": "view",
      "type": "function"
    },
    {
      "inputs": [
        {
          "internalType": "address",
          "name": "_to",
          "type": "address"
        },
        {
          "internalType": "uint256",
          "name": "_value",
          "type": "uint256"
        }
      ],
      "name": "transfer",
      "outputs": [
        {
          "internalType": "bool",
          "name": "",
          "type": "bool"
        }
      ],
      "stateMutability": "nonpayable",
      "type": "function"
    },
    {
      "inputs": [],
      "name": "togglePrivateCompany",
      "outputs": [],
      "stateMutability": "nonpayable",
      "type": "function"
    },
    {
      "inputs": [],
      "name": "ownersCount",
      "outputs": [
        {
          "internalType": "uint256",
          "name": "",
          "type": "uint256"
        }
      ],
      "stateMutability": "view",
      "type": "function"
    },
    {
      "inputs": [],
      "name": "getTokenOwners",
      "outputs": [
        {
          "internalType": "address[]",
          "name": "",
          "type": "address[]"
        }
      ],
      "stateMutability": "view",
      "type": "function"
    },
    {
      "inputs": [],
      "name": "totalSupply",
      "outputs": [
        {
          "internalType": "uint256",
          "name": "",
          "type": "uint256"
        }
      ],
      "stateMutability": "view",
      "type": "function"
    },
    {
      "inputs": [
        {
          "internalType": "uint256",
          "name": "amount",
          "type": "uint256"
        }
      ],
      "name": "setTotalSupply",
      "outputs": [],
      "stateMutability": "nonpayable",
      "type": "function"
    },
    {
      "inputs": [
        {
          "internalType": "address",
          "name": "owner",
          "type": "address"
        },
        {
          "internalType": "address",
          "name": "spender",
          "type": "address"
        }
      ],
      "name": "allowance",
      "outputs": [
        {
          "internalType": "uint256",
          "name": "",
          "type": "uint256"
        }
      ],
      "stateMutability": "view",
      "type": "function"
    },
    {
      "inputs": [
        {
          "internalType": "address",
          "name": "spender",
          "type": "address"
        },
        {
          "internalType": "uint256",
          "name": "amount",
          "type": "uint256"
        }
      ],
      "name": "approve",
      "outputs": [
        {
          "internalType": "bool",
          "name": "",
          "type": "bool"
        }
      ],
      "stateMutability": "nonpayable",
      "type": "function"
    },
    {
      "inputs": [
        {
          "internalType": "address",
          "name": "from",
          "type": "address"
        },
        {
          "internalType": "address",
          "name": "to",
          "type": "address"
        },
        {
          "internalType": "uint256",
          "name": "amount",
          "type": "uint256"
        }
      ],
      "name": "transferFrom",
      "outputs": [
        {
          "internalType": "bool",
          "name": "",
          "type": "bool"
        }
      ],
      "stateMutability": "nonpayable",
      "type": "function"
    },
    {
      "inputs": [
        {
          "internalType": "address",
          "name": "spender",
          "type": "address"
        },
        {
          "internalType": "uint256",
          "name": "addedValue",
          "type": "uint256"
        }
      ],
      "name": "increaseAllowance",
      "outputs": [
        {
          "internalType": "bool",
          "name": "",
          "type": "bool"
        }
      ],
      "stateMutability": "nonpayable",
      "type": "function"
    },
    {
      "inputs": [
        {
          "internalType": "address",
          "name": "spender",
          "type": "address"
        },
        {
          "internalType": "uint256",
          "name": "subtractedValue",
          "type": "uint256"
        }
      ],
      "name": "decreaseAllowance",
      "outputs": [
        {
          "internalType": "bool",
          "name": "",
          "type": "bool"
        }
      ],
      "stateMutability": "nonpayable",
      "type": "function"
    }
  ],
  "bytecode": "0x6080604052346200069a5762001b58803803806200001d816200069f565b928339810160a0828203126200069a5781516001604060020a0381116200069a57816200004c918401620006c5565b9060208301516001604060020a0381116200069a57816200006f918501620006c5565b9160408401519160608501516001604060020a0381116200069a576080916200009a918701620006c5565b94015192600160a060020a03841684036200069a5733600160a060020a031960015416176001556002914283553360007f8be0079c531659141344cd1fd0a4f28419497f9722a3daafe3b4186f6b6457e08180a3600160ff1960095416176009558051906001604060020a0382116200036657600554906001858304921680156200068f575b6020831014620004605781601f84931162000636575b50602090601f8311600114620005a6576000926200059a575b505060088202840a600019041916908302176005555b8051906001604060020a0382116200036657600654906001848304921680156200058f575b6020831014620004605781601f84931162000536575b50602090601f8311600114620004a6576000926200049a575b505060088202830a600019041916908202176006555b81600a558351906001604060020a03821162000366576007546001828204911680156200048f575b60208210146200046057601f811162000411575b50602094601f8311600114620003a157948293949560009362000395575b505082810292600802900a600019041916176007555b33600052600c602052604060002055600160a060020a0316600160a060020a0319600f541617600f55600e80546801000000000000000090818110156200036657600181018084558110156200033757600083815260209020018054600160a060020a03191690558154908110156200036657600181018083558110156200033757600082815260209020018054600160a060020a03191633179055546000198101908111620003085733600052600b6020526040600020556040516114209081620007388239f35b7f4e487b7100000000000000000000000000000000000000000000000000000000600052601160045260246000fd5b7f4e487b7100000000000000000000000000000000000000000000000000000000600052603260045260246000fd5b7f4e487b7100000000000000000000000000000000000000000000000000000000600052604160045260246000fd5b01519150388062000229565b601f92919219821695600760005260206000209160005b888110620003f8575083600196979810620003dc575b50505002016007556200023f565b01516008601f841602840a6000190419169055388080620003ce565b91926020600181928685015181550194019201620003b8565b600760005260206000206020601f8501048101916020851062000455575b601f602091010401905b8181106200044857506200020b565b6000815560010162000439565b90915081906200042f565b7f4e487b7100000000000000000000000000000000000000000000000000000000600052602260045260246000fd5b90607f1690620001f7565b015190503880620001b9565b60066000908152601f19851694869450927ff652222313e28459528d920b65115c16c04f3efc82aaedc97be59f3f377c0d3f9290915b8681106200051a57508360019610620004fe575b5050500201600655620001cf565b01516008601f841602840a6000190419169055388080620004f0565b81830151845587955060019093019260209283019201620004dc565b909150600660005260206000206020601f8501048101916020851062000584575b906020601f86959493010401905b818110620005745750620001a0565b6000815584935060010162000565565b909150819062000557565b91607f16916200018a565b0151905038806200014f565b60056000908152601f19851694879450927f036b6384b5eca791c62761152d0c79bb0604c104a5fb6f4eb0703f3154bb3db09290915b8681106200061a57508360019610620005fe575b505050020160055562000165565b01516008601f841602840a6000190419169055388080620005f0565b81830151845588955060019093019260209283019201620005dc565b909150600560005260206000206020601f8501048101916020851062000684575b906020601f86959493010401905b81811062000674575062000136565b6000815584935060010162000665565b909150819062000657565b91607f169162000120565b600080fd5b6040519190601f01601f191682016001604060020a038111838210176200036657604052565b919080601f840112156200069a5782516001604060020a0381116200036657602090620006fb601f8201601f191683016200069f565b928184528282870101116200069a5760005b8181106200072357508260009394955001015290565b85810183015184820184015282016200070d56fe6080604090808252600490813610156100c8575b50361561009957333203610055577f26875833861a2b006512a11f1b86edf95df96131040f3caeed72989ee9858083825180610050343383611054565b0390a1005b6020606492519160e560020a62461bcd02835282015260196024820152603860020a787068697368696e672061747461636b2064657465637465643f026044820152fd5b7fcc85d09d309785db93d6df19917f2e6cc07fe27cd01c08c8279145deb5cf4526825180610050343383611054565b60009060e060020a82350490630401a24a8214610edb5750806306fdde0314610e3b578063095ea7b314610e1157806318160ddd14610df257806323b872dd14610d2157806327e235e314610c02578063286dd3f514610ca9578063313ce56714610c8a5780633950935114610c3a5780633af32abf146108ca57806370a0823114610c02578063715018a614610bbb5780637b9417c814610b3d5780637e3e9ede14610b1457806380d01bcd14610a74578063893d20e814610a125780638da5cb5b146109ea57806395d89b41146109085780639b19251a146108ca578063a457c2d714610816578063a9059cbb14610591578063ac6af1c514610522578063b8fb3a5114610506578063b9488546146104c4578063d1b02ba7146103ff578063dd62ed3e146103b6578063f2fde38b146102fb578063f7ea7a3d146102e1578063f8a14f46146102925763ffa1ad740361001357823461028e578160031936011261028e57805191828201906001604060020a03821184831017610278575061027493508152600a825260b060020a69312e362e342d626574610260208301525191829182610f39565b0390f35b60e060020a634e487b7102815260418552602490fd5b5080fd5b509190346102dd5760203660031901126102dd573591600e548310156102da57506102be602092610fb3565b90549151600890910260020a909104600160a060020a03168152f35b80fd5b8280fd5b50903461028e57602036600319011261028e5735600a5580f35b50919060203660031901126102dd57610312610f82565b60015491600160a060020a038084169261032d33851461106f565b1693841561035c57505082906000805160206113cb8339815191528580a3600160a060020a0319161760015580f35b5160e560020a62461bcd028152602091810191909152602660248201527f4f776e61626c653a206e6577206f776e657220697320746865207a65726f2061604482015260d060020a65646472657373026064820152608490fd5b50823461028e578060031936011261028e57806020926103d4610f82565b6103dc610f9d565b600160a060020a039182168352600d865283832091168252845220549051908152f35b8382346102da57806003193601126102da578151600e80548083529083526020939284830192909183907fbb7b4a454dc3493923482f07822329ed19e8244eff582cc204f8554c3620c3fd90845b8181106104a75750505081610463910382610efc565b83519485948186019282875251809352850193925b82811061048757505050500390f35b8351600160a060020a031685528695509381019392810192600101610478565b8254600160a060020a03168452928801926001928301920161044d565b50823461028e578160031936011261028e57600e546000198101929083116104f0576020838351908152f35b60e060020a634e487b7102815260118452602490fd5b50823461028e578160031936011261028e5760209051601e8152f35b50823461028e578160031936011261028e577fb52734fc46bdfb46ff91a021440a182abee932adcac1be40cde3e0838d851b549061056c600160a060020a036001541633146110bb565b60095460ff8082161516809160ff19161760095581519033825215156020820152a180f35b508290346102da57816003193601126102da576105ac610f82565b600f54835160e060020a633af32abf028152600160a060020a03808416828801819052602097919491936024939089908290869082908a165afa90811561080c5787916107d2575b50156107ce5760ff6009541661075f575b808652600b885286862054156106ea575b506106249082359033611133565b338452600c8652848420541561063e575b85855160018152f35b600b865284842054600e546000199391908481019081116106d5576008866106859361066c61067594610fb3565b94905491610fb3565b9390940260020a9004169161110a565b600e549283019283116106c157505061069d90610fb3565b909160088354920260020a0219169055338152600b83528181205582808080610635565b60e060020a634e487b710285526011905283fd5b60e060020a634e487b71028752601183528387fd5b600e54604060020a81101561074a578261070d8260016107139401600e55610fb3565b9061110a565b600e54600019810191908211610735578652600b885286862055610624610616565b60e060020a634e487b71028752601185528387fd5b60e060020a634e487b71028752604185528387fd5b80865283885260ff878720541661060557865160e560020a62461bcd028152808501899052602d818501527f41646472657373206e6f7420696e2070726976617465207368617265686f6c646044820152609a60020a6c195c9cc81dda1a5d195b1a5cdd026064820152608490fd5b8580fd5b90508881813d8311610805575b6107e98183610efc565b810103126108015751801515810361080157896105f4565b8680fd5b503d6107df565b88513d89823e3d90fd5b50346102da57826003193601126102da5761082f610f82565b918360243592338152600d602052818120600160a060020a03861682526020522054908282106108705760208561086985850387336112bc565b5160018152f35b845160e560020a62461bcd028152602091810191909152602560248201527f45524332303a2064656372656173656420616c6c6f77616e63652062656c6f77604482015260d860020a64207a65726f026064820152608490fd5b509190346102dd5760203660031901126102dd5760209260ff91839190600160a060020a036108f7610f82565b168252855220541690519015158152f35b5091346102dd57826003193601126102dd5780519183600554600281049160019182811680156109e0575b60209586861082146109ca57508488529081156109a9575060011461096e575b6102748686610964828b0383610efc565b5191829182610f39565b929550600583528583205b828410610996575050508261027494610964928201019438610953565b8054868501880152928601928101610979565b60ff1916878601525050501515810283010192506109648261027438610953565b60e060020a634e487b7102845260229052602483fd5b93607f1693610933565b50823461028e578160031936011261028e5790549051600160a060020a039091168152602090f35b508083916003193601126102da5760025492601e8401809411610a5e57602083610a46864211610a418161100f565b61100f565b426002556001549051600160a060020a039091168152f35b60e060020a634e487b7102825260119052602490fd5b5091346102dd57826003193601126102dd578051918360075460028104916001918281168015610b0a575b60209586861082146109ca57508488529081156109a95750600114610acf576102748686610964828b0383610efc565b929550600783528583205b828410610af7575050508261027494610964928201019438610953565b8054868501880152928601928101610ada565b93607f1693610a9f565b50823461028e578160031936011261028e57600f549051600160a060020a039091168152602090f35b5091346102dd5760203660031901126102dd57610b58610f82565b600154600160a060020a039190610b7290831633146110bb565b16918284526020528220805460ff8116610bb75760ff19166001179055337f94d300f0803cc0af9991569051574a3dafd674f3b8d03f81c5ac017d5293afa68380a380f35b8380fd5b50806003193601126102da5760015481600160a060020a038216610be033821461106f565b6000805160206113cb8339815191528280a3600160a060020a03191660015580f35b50823461028e57602036600319011261028e576020918190600160a060020a03610c2a610f82565b168152600c845220549051908152f35b50823461028e578060031936011261028e57610869602092610c83610c5d610f82565b338352600d8652848320600160a060020a03821684528652918490205460243590610fe8565b90336112bc565b50823461028e578160031936011261028e576020906008549051908152f35b5091346102dd5760203660031901126102dd57610cc4610f82565b600154600160a060020a039190610cde90831633146110bb565b16918284526020528220805460ff811615610bb75760ff19169055337f5a76ef3d09a09d8a99c3d9ddddfb7770d906de670d79b5119a8c2cba903814bb8380a380f35b50903461028e57606036600319011261028e57610d3c610f82565b610d44610f9d565b600160a060020a0382168452600d602090815285852033865290529284902054604435939260018201610d80575b602086610869878787611133565b848210610da95750918391610d9e60209695610869950333836112bc565b919394819350610d72565b855160e560020a62461bcd028152602091810191909152601d60248201527f45524332303a20696e73756666696369656e7420616c6c6f77616e63650000006044820152606490fd5b50823461028e578160031936011261028e57602090600a549051908152f35b50823461028e578060031936011261028e57602090610869610e31610f82565b60243590336112bc565b5091346102dd57826003193601126102dd578051918360065460028104916001918281168015610ed1575b60209586861082146109ca57508488529081156109a95750600114610e96576102748686610964828b0383610efc565b929550600683528583205b828410610ebe575050508261027494610964928201019438610953565b8054868501880152928601928101610ea1565b93607f1693610e66565b90503461028e578160031936011261028e5760209060ff6009541615158152f35b601f909101601f19168101906001604060020a03821190821017610f1f57604052565b60e060020a634e487b710260009081526041600452602490fd5b6020808252825181830181905290939260005b828110610f6e57505060409293506000838284010152601f8019910116010190565b818101860151848201604001528501610f4c565b60043590600160a060020a0382168203610f9857565b600080fd5b60243590600160a060020a0382168203610f9857565b600e54811015610fce57600e60005260206000200190600090565b60e060020a634e487b710260009081526032600452602490fd5b91908201809211610ff557565b60e060020a634e487b710260009081526011600452602490fd5b1561101657565b60405160e560020a62461bcd0281526020600482015260106024820152608160020a6f3930ba32903634b6b4ba1032b93937b9026044820152606490fd5b600160a060020a039091168152602081019190915260400190565b1561107657565b60405160e560020a62461bcd0281526020600482015260176024820152604960020a7630b1b1b2b9b9903232b734b2b2103337b91037bbb732b9026044820152606490fd5b156110c257565b60405160e560020a62461bcd02815260206004820152601b60248201527f756e617574686f72697a65642c206e6f7420746865206f776e657200000000006044820152606490fd5b8054600160a060020a03600890930260020a838102801990921693909416909302909216179055565b600160a060020a03908116918215611263571691821561120c576000828152600c6020526040812054918083106111b257604082827fddf252ad1be2c89b69c2b068fc378daa952ba7f163c4a11628f55a4df523b3ef958760209652600c86520382822055868152206111a7828254610fe8565b9055604051908152a3565b60405160e560020a62461bcd02815260206004820152602660248201527f45524332303a207472616e7366657220616d6f756e7420657863656564732062604482015260d060020a65616c616e6365026064820152608490fd5b60405160e560020a62461bcd02815260206004820152602360248201527f45524332303a207472616e7366657220746f20746865207a65726f2061646472604482015260e860020a62657373026064820152608490fd5b60405160e560020a62461bcd02815260206004820152602560248201527f45524332303a207472616e736665722066726f6d20746865207a65726f206164604482015260d860020a646472657373026064820152608490fd5b600160a060020a03908116918215611373571691821561131d5760207f8c5be1e5ebec7d5bd14f71427d1e84f3dd0314c0f7b2291e5b200ac8c7c3b9259183600052600d8252604060002085600052825280604060002055604051908152a3565b60405160e560020a62461bcd02815260206004820152602260248201527f45524332303a20617070726f766520746f20746865207a65726f206164647265604482015260f060020a617373026064820152608490fd5b60405160e560020a62461bcd028152602060048201526024808201527f45524332303a20617070726f76652066726f6d20746865207a65726f20616464604482015260e060020a6372657373026064820152608490fdfe8be0079c531659141344cd1fd0a4f28419497f9722a3daafe3b4186f6b6457e0a26469706673582212206aefad1bf76973a3067274ebdef9ced08ec5a69591d57e4b6349b6bd9f574cc064736f6c63430008120033",
  "immutableReferences": {},
  "source": "// SPDX-License-Identifier: CC-BY-4.0\r\npragma solidity >=0.4.22 <0.9.0;\r\n\r\n/**\r\n * ERC-884\r\n */\r\n\r\nimport \"../../libs/SafeMath.sol\";\r\nimport \"../../common/IdentityRegistry.sol\";\r\n//import \"../../common/Token.sol\";\r\nimport \"../../interfaces/IERC20TOKEN.sol\";\r\nimport \"../../common/Whitelistable.sol\";\r\n\r\ncontract DelawareStockToken is IERC20TOKEN, Whitelistable {\r\n    string public symbol;\r\n    string public name;\r\n    string public byLawsHash;\r\n    uint public decimals;\r\n    bool public isPrivateCompany = true;\r\n    \r\n    uint256  _totalSupply;\r\n\r\n    mapping(address => uint) tokenOwnersIndex;\r\n    mapping(address => uint256) public balances;\r\n    mapping(address => mapping(address => uint256)) private _allowances;\r\n    address[] public tokenOwners;\r\n    \r\n    IdentityRegistry public platformWhitelist;\r\n\r\n    event ChangedCompanyStatus(address authorizedBy, bool newStatus);\r\n\r\n    constructor(string memory _symbol, string memory _name, uint _supply, string memory _hash, address payable _registry)\r\n        Whitelistable()\r\n    {\r\n        symbol = _symbol;\r\n        name = _name;\r\n        _totalSupply = _supply;\r\n        byLawsHash = _hash;\r\n        balances[msg.sender] = _supply;\r\n        platformWhitelist = IdentityRegistry(_registry);\r\n        tokenOwners.push(address(0));\r\n        tokenOwners.push(msg.sender);\r\n        uint index = tokenOwners.length;\r\n        tokenOwnersIndex[msg.sender] = index - 1;\r\n\r\n    }\r\n\r\n    modifier onlyIfWhitelisted(address _address) { // modifier to restrict access only to whitelisted accounts\r\n        require(platformWhitelist.isWhitelisted(_address));\r\n        if(isPrivateCompany){\r\n            require(isWhitelisted(_address), \"Address not in private shareholders whitelist\");\r\n        }\r\n        _;\r\n    }\r\n\r\n    function balanceOf(address tokenOwner) override public view returns (uint) {\r\n        return balances[tokenOwner];\r\n    }\r\n\r\n    function transfer(address _to, uint256 _value) onlyIfWhitelisted(_to) public virtual override returns (bool){\r\n        uint index = 0;\r\n        if(tokenOwnersIndex[_to] == 0) {\r\n            tokenOwners.push(_to);\r\n            index = tokenOwners.length - 1;\r\n            tokenOwnersIndex[_to] = index;\r\n        }\r\n        _transfer(msg.sender, _to, _value);\r\n        if(balanceOf(msg.sender) == 0){\r\n            removeTokenOwner(msg.sender);\r\n        }\r\n        return true;\r\n    }\r\n\r\n    function togglePrivateCompany() okOwner() public {\r\n        isPrivateCompany = !isPrivateCompany;\r\n        emit ChangedCompanyStatus(msg.sender, isPrivateCompany);\r\n    }\r\n\r\n    // Return the number of shareholders in the company\r\n    function ownersCount() public view returns(uint){\r\n        return tokenOwners.length - 1;\r\n    }\r\n    \r\n    // Return an array with all the token owners\r\n    function getTokenOwners() public view returns(address[] memory){\r\n        return tokenOwners;\r\n    }\r\n\r\n    // Removes entry from array at index and resizes the array appropriatly\r\n    function removeFromTokenOwnersArray(uint index) internal {\r\n        address lastElement = tokenOwners[tokenOwners.length - 1];\r\n        tokenOwners[index] = lastElement;\r\n        delete tokenOwners[tokenOwners.length - 1];\r\n    }\r\n    function totalSupply() virtual public override view returns (uint) {\r\n        return _totalSupply;\r\n    }\r\n    function setTotalSupply(uint256 amount) public {\r\n        _totalSupply = amount;\r\n    }\r\n\r\n    // Removes a token owner from the list of shareholders\r\n    function removeTokenOwner(address holder) internal {\r\n        uint i = tokenOwnersIndex[holder];\r\n        removeFromTokenOwnersArray(i);\r\n        tokenOwnersIndex[holder] = 0;\r\n    }\r\n    function allowance(address owner, address spender) public view virtual override returns (uint256) {\r\n        return _allowances[owner][spender];\r\n    }\r\n    function approve(address spender, uint256 amount) public virtual override returns (bool) {\r\n        address owner = msg.sender;\r\n        _approve(owner, spender, amount);\r\n        return true;\r\n    }\r\n    function transferFrom(\r\n        address from,\r\n        address to,\r\n        uint256 amount\r\n    ) public virtual override returns (bool) {\r\n        address spender = msg.sender;\r\n        _spendAllowance(from, spender, amount);\r\n        _transfer(from, to, amount);\r\n        return true;\r\n    }\r\n    function increaseAllowance(address spender, uint256 addedValue) public virtual returns (bool) {\r\n        address owner = msg.sender;\r\n        _approve(owner, spender, _allowances[owner][spender] + addedValue);\r\n        return true;\r\n    }\r\n    function decreaseAllowance(address spender, uint256 subtractedValue) public virtual returns (bool) {\r\n        address owner = msg.sender;\r\n        uint256 currentAllowance = _allowances[owner][spender];\r\n        require(currentAllowance >= subtractedValue, \"ERC20: decreased allowance below zero\");\r\n        unchecked {\r\n            _approve(owner, spender, currentAllowance - subtractedValue);\r\n        }\r\n\r\n        return true;\r\n    }\r\n    function _transfer(\r\n        address from,\r\n        address to,\r\n        uint256 amount\r\n    ) internal virtual {\r\n        require(from != address(0), \"ERC20: transfer from the zero address\");\r\n        require(to != address(0), \"ERC20: transfer to the zero address\");\r\n\r\n        _beforeTokenTransfer(from, to, amount);\r\n\r\n        uint256 fromBalance = balances[from];\r\n        require(fromBalance >= amount, \"ERC20: transfer amount exceeds balance\");\r\n        unchecked {\r\n            balances[from] = fromBalance - amount;\r\n        }\r\n        balances[to] += amount;\r\n\r\n        emit Transfer(from, to, amount);\r\n\r\n        _afterTokenTransfer(from, to, amount);\r\n    }\r\n    function _mint(address account, uint256 amount) internal virtual {\r\n        require(account != address(0), \"ERC20: mint to the zero address\");\r\n\r\n        _beforeTokenTransfer(address(0), account, amount);\r\n\r\n        _totalSupply += amount;\r\n        balances[account] += amount;\r\n        emit Transfer(address(0), account, amount);\r\n\r\n        _afterTokenTransfer(address(0), account, amount);\r\n    }\r\n    function _burn(address account, uint256 amount) internal virtual {\r\n        require(account != address(0), \"ERC20: burn from the zero address\");\r\n\r\n        _beforeTokenTransfer(account, address(0), amount);\r\n\r\n        uint256 accountBalance = balances[account];\r\n        require(accountBalance >= amount, \"ERC20: burn amount exceeds balance\");\r\n        unchecked {\r\n            balances[account] = accountBalance - amount;\r\n        }\r\n        _totalSupply -= amount;\r\n\r\n        emit Transfer(account, address(0), amount);\r\n\r\n        _afterTokenTransfer(account, address(0), amount);\r\n    }\r\n    function _approve(\r\n        address owner,\r\n        address spender,\r\n        uint256 amount\r\n    ) internal virtual {\r\n        require(owner != address(0), \"ERC20: approve from the zero address\");\r\n        require(spender != address(0), \"ERC20: approve to the zero address\");\r\n\r\n        _allowances[owner][spender] = amount;\r\n        emit Approval(owner, spender, amount);\r\n    }\r\n    function _spendAllowance(\r\n        address owner,\r\n        address spender,\r\n        uint256 amount\r\n    ) internal virtual {\r\n        uint256 currentAllowance = allowance(owner, spender);\r\n        if (currentAllowance != type(uint256).max) {\r\n            require(currentAllowance >= amount, \"ERC20: insufficient allowance\");\r\n            unchecked {\r\n                _approve(owner, spender, currentAllowance - amount);\r\n            }\r\n        }\r\n    }\r\n    function _beforeTokenTransfer(\r\n        address from,\r\n        address to,\r\n        uint256 amount\r\n    ) internal virtual {}\r\n    function _afterTokenTransfer(\r\n        address from,\r\n        address to,\r\n        uint256 amount\r\n    ) internal virtual {}\r\n\r\n}",
  "sourcePath": "/Volumes/HOME/pingleware-contracts/contracts/finance/equity/DelawareStockToken.sol",
  "compiler": {
    "name": "solc",
    "version": "0.8.18+commit.87f61d96.Emscripten.clang"
  },
  "schemaVersion": "3.4.12",
  "updatedAt": "2024-05-23T18:56:25.873Z",
  "devdoc": {
    "kind": "dev",
    "methods": {
      "renounceOwnership()": {
        "details": "Leaves the contract without owner. It will not be possible to call `onlyOwner` functions anymore. Can only be called by the current owner. NOTE: Renouncing ownership will leave the contract without an owner, thereby removing any functionality that is only available to the owner."
      },
      "transferOwnership(address)": {
        "details": "Transfers ownership of the contract to a new account (`newOwner`). Can only be called by the current owner."
      }
    },
    "version": 1
  },
  "userdoc": {
    "kind": "user",
    "methods": {},
    "version": 1
  }
}