{
  "contractName": "DirectEquityOffering",
  "abi": [
    {
      "inputs": [
        {
          "internalType": "enum IOfferingContract.OfferingType",
          "name": "_type",
          "type": "uint8"
        },
        {
          "internalType": "address",
          "name": "offering_contract",
          "type": "address"
        },
        {
          "internalType": "address",
          "name": "transferagent_contract",
          "type": "address"
        },
        {
          "internalType": "uint256",
          "name": "initial_supply",
          "type": "uint256"
        },
        {
          "internalType": "uint256",
          "name": "price",
          "type": "uint256"
        },
        {
          "internalType": "uint256",
          "name": "parValue",
          "type": "uint256"
        }
      ],
      "stateMutability": "nonpayable",
      "type": "constructor"
    },
    {
      "anonymous": false,
      "inputs": [
        {
          "indexed": false,
          "internalType": "address",
          "name": "sender",
          "type": "address"
        },
        {
          "indexed": false,
          "internalType": "uint256",
          "name": "amount",
          "type": "uint256"
        }
      ],
      "name": "Bought",
      "type": "event"
    },
    {
      "anonymous": false,
      "inputs": [
        {
          "indexed": false,
          "internalType": "address",
          "name": "token",
          "type": "address"
        },
        {
          "indexed": false,
          "internalType": "string",
          "name": "reason",
          "type": "string"
        }
      ],
      "name": "Destroyed",
      "type": "event"
    },
    {
      "anonymous": false,
      "inputs": [
        {
          "indexed": false,
          "internalType": "address",
          "name": "sender",
          "type": "address"
        },
        {
          "indexed": false,
          "internalType": "address",
          "name": "recipient",
          "type": "address"
        }
      ],
      "name": "Destroyed",
      "type": "event"
    },
    {
      "anonymous": false,
      "inputs": [
        {
          "indexed": false,
          "internalType": "address",
          "name": "sender",
          "type": "address"
        },
        {
          "indexed": false,
          "internalType": "uint256",
          "name": "amount",
          "type": "uint256"
        }
      ],
      "name": "FallbackEvent",
      "type": "event"
    },
    {
      "anonymous": false,
      "inputs": [
        {
          "indexed": true,
          "internalType": "address",
          "name": "previousOwner",
          "type": "address"
        },
        {
          "indexed": true,
          "internalType": "address",
          "name": "newOwner",
          "type": "address"
        }
      ],
      "name": "OwnershipTransferred",
      "type": "event"
    },
    {
      "anonymous": false,
      "inputs": [
        {
          "indexed": false,
          "internalType": "address",
          "name": "sender",
          "type": "address"
        },
        {
          "indexed": false,
          "internalType": "uint256",
          "name": "amount",
          "type": "uint256"
        }
      ],
      "name": "ReceiveEvent",
      "type": "event"
    },
    {
      "anonymous": false,
      "inputs": [
        {
          "indexed": false,
          "internalType": "address",
          "name": "sender",
          "type": "address"
        },
        {
          "indexed": false,
          "internalType": "uint256",
          "name": "amount",
          "type": "uint256"
        }
      ],
      "name": "Sold",
      "type": "event"
    },
    {
      "anonymous": false,
      "inputs": [
        {
          "indexed": false,
          "internalType": "address",
          "name": "sender",
          "type": "address"
        },
        {
          "indexed": false,
          "internalType": "bytes",
          "name": "reason",
          "type": "bytes"
        }
      ],
      "name": "Started",
      "type": "event"
    },
    {
      "anonymous": false,
      "inputs": [
        {
          "indexed": false,
          "internalType": "address",
          "name": "sender",
          "type": "address"
        },
        {
          "indexed": false,
          "internalType": "bytes",
          "name": "reason",
          "type": "bytes"
        }
      ],
      "name": "Stopped",
      "type": "event"
    },
    {
      "anonymous": false,
      "inputs": [
        {
          "indexed": false,
          "internalType": "address",
          "name": "token",
          "type": "address"
        },
        {
          "indexed": false,
          "internalType": "address",
          "name": "sender",
          "type": "address"
        },
        {
          "indexed": false,
          "internalType": "address",
          "name": "receiver",
          "type": "address"
        },
        {
          "indexed": false,
          "internalType": "uint256",
          "name": "amount",
          "type": "uint256"
        }
      ],
      "name": "Swapping",
      "type": "event"
    },
    {
      "anonymous": false,
      "inputs": [
        {
          "indexed": false,
          "internalType": "address",
          "name": "sender",
          "type": "address"
        },
        {
          "indexed": false,
          "internalType": "string",
          "name": "reason",
          "type": "string"
        }
      ],
      "name": "Termination",
      "type": "event"
    },
    {
      "stateMutability": "payable",
      "type": "fallback",
      "payable": true
    },
    {
      "inputs": [],
      "name": "VERSION",
      "outputs": [
        {
          "internalType": "string",
          "name": "",
          "type": "string"
        }
      ],
      "stateMutability": "view",
      "type": "function",
      "constant": true
    },
    {
      "inputs": [],
      "name": "WAIT",
      "outputs": [
        {
          "internalType": "uint256",
          "name": "",
          "type": "uint256"
        }
      ],
      "stateMutability": "view",
      "type": "function",
      "constant": true
    },
    {
      "inputs": [
        {
          "internalType": "address",
          "name": "",
          "type": "address"
        }
      ],
      "name": "_balances",
      "outputs": [
        {
          "internalType": "uint256",
          "name": "",
          "type": "uint256"
        }
      ],
      "stateMutability": "view",
      "type": "function",
      "constant": true
    },
    {
      "inputs": [],
      "name": "_initial_supply",
      "outputs": [
        {
          "internalType": "uint256",
          "name": "",
          "type": "uint256"
        }
      ],
      "stateMutability": "view",
      "type": "function",
      "constant": true
    },
    {
      "inputs": [
        {
          "internalType": "address",
          "name": "",
          "type": "address"
        }
      ],
      "name": "_tokens",
      "outputs": [
        {
          "internalType": "contract Token",
          "name": "",
          "type": "address"
        }
      ],
      "stateMutability": "view",
      "type": "function",
      "constant": true
    },
    {
      "inputs": [],
      "name": "destroy",
      "outputs": [],
      "stateMutability": "nonpayable",
      "type": "function"
    },
    {
      "inputs": [
        {
          "internalType": "address",
          "name": "_recipient",
          "type": "address"
        }
      ],
      "name": "destroyAndSend",
      "outputs": [],
      "stateMutability": "nonpayable",
      "type": "function"
    },
    {
      "inputs": [],
      "name": "getOwner",
      "outputs": [
        {
          "internalType": "address",
          "name": "",
          "type": "address"
        }
      ],
      "stateMutability": "payable",
      "type": "function",
      "payable": true
    },
    {
      "inputs": [],
      "name": "renounceOwnership",
      "outputs": [],
      "stateMutability": "payable",
      "type": "function",
      "payable": true
    },
    {
      "inputs": [
        {
          "internalType": "address",
          "name": "newOwner",
          "type": "address"
        }
      ],
      "name": "transferOwnership",
      "outputs": [],
      "stateMutability": "payable",
      "type": "function",
      "payable": true
    },
    {
      "stateMutability": "payable",
      "type": "receive",
      "payable": true
    },
    {
      "inputs": [
        {
          "internalType": "uint256",
          "name": "updatePrice",
          "type": "uint256"
        }
      ],
      "name": "updateTokenPrice",
      "outputs": [],
      "stateMutability": "nonpayable",
      "type": "function"
    },
    {
      "inputs": [],
      "name": "getTokenPrice",
      "outputs": [
        {
          "internalType": "uint256",
          "name": "",
          "type": "uint256"
        }
      ],
      "stateMutability": "view",
      "type": "function",
      "constant": true
    },
    {
      "inputs": [],
      "name": "startOffering",
      "outputs": [],
      "stateMutability": "payable",
      "type": "function",
      "payable": true
    },
    {
      "inputs": [],
      "name": "stopOffering",
      "outputs": [],
      "stateMutability": "payable",
      "type": "function",
      "payable": true
    },
    {
      "inputs": [
        {
          "internalType": "address",
          "name": "transferagent",
          "type": "address"
        }
      ],
      "name": "assignTransferAgent",
      "outputs": [],
      "stateMutability": "payable",
      "type": "function",
      "payable": true
    },
    {
      "inputs": [
        {
          "internalType": "string",
          "name": "name",
          "type": "string"
        },
        {
          "internalType": "string",
          "name": "symbol",
          "type": "string"
        },
        {
          "internalType": "uint256",
          "name": "maxShares",
          "type": "uint256"
        },
        {
          "internalType": "enum IOfferingContract.OfferingType",
          "name": "offeringType",
          "type": "uint8"
        }
      ],
      "name": "initialize",
      "outputs": [],
      "stateMutability": "nonpayable",
      "type": "function"
    },
    {
      "inputs": [
        {
          "internalType": "address",
          "name": "account",
          "type": "address"
        },
        {
          "internalType": "uint256",
          "name": "amount",
          "type": "uint256"
        },
        {
          "internalType": "uint256",
          "name": "epoch",
          "type": "uint256"
        }
      ],
      "name": "mint",
      "outputs": [],
      "stateMutability": "payable",
      "type": "function",
      "payable": true
    },
    {
      "inputs": [],
      "name": "buy",
      "outputs": [],
      "stateMutability": "payable",
      "type": "function",
      "payable": true
    },
    {
      "inputs": [
        {
          "internalType": "uint256",
          "name": "amount",
          "type": "uint256"
        }
      ],
      "name": "sell",
      "outputs": [],
      "stateMutability": "payable",
      "type": "function",
      "payable": true
    },
    {
      "inputs": [
        {
          "internalType": "address",
          "name": "investor2",
          "type": "address"
        },
        {
          "internalType": "contract IERC20",
          "name": "token1",
          "type": "address"
        },
        {
          "internalType": "uint256",
          "name": "_amount1",
          "type": "uint256"
        },
        {
          "internalType": "contract IERC20",
          "name": "token2",
          "type": "address"
        },
        {
          "internalType": "uint256",
          "name": "_amount2",
          "type": "uint256"
        }
      ],
      "name": "swap",
      "outputs": [],
      "stateMutability": "payable",
      "type": "function",
      "payable": true
    }
  ],
  "bytecode": "0x608060405260006001556003805460ff191690553480156200002057600080fd5b5060405162001a7638038062001a76833981016040819052620000439162000222565b60008054600160a060020a031916339081178255426001556040519091907f8be0079c531659141344cd1fd0a4f28419497f9722a3daafe3b4186f6b6457e0908290a385600c81600c8111156200009e576200009e6200028d565b1462000131576040517f08c379a000000000000000000000000000000000000000000000000000000000815260206004820152602360248201527f4578656d7074206f66666572696e677320617265206e6f74207065726d69747460448201527f656421000000000000000000000000000000000000000000000000000000000060648201526084015b60405180910390fd5b81831015620001c3576040517f08c379a000000000000000000000000000000000000000000000000000000000815260206004820152602c60248201527f496e697469616c2070726963652063616e6e6f74206265206c6573732074686160448201527f6e207061722076616c75653f0000000000000000000000000000000000000000606482015260840162000128565b5050600891909155600c8054600160a060020a03948516600160a060020a031991821617909155600b80549390941692169190911790915560045550620002bc565b8051600160a060020a03811681146200021d57600080fd5b919050565b60008060008060008060c087890312156200023c57600080fd5b8651600d81106200024c57600080fd5b95506200025c6020880162000205565b94506200026c6040880162000205565b9350606087015192506080870151915060a087015190509295509295509295565b7f4e487b7100000000000000000000000000000000000000000000000000000000600052602160045260246000fd5b6117aa80620002cc6000396000f3fe6080604052600436106100f65760e060020a600035046306f4164681146101bd578063156e29f61461020957806317d88f461461021e5780632f3fecaa1461023157806341658f3c146102395780634b94f50e14610259578063676c0d77146102785780636ebcf60714610298578063715018a6146102c557806383197ef0146102cd578063893d20e8146102e2578063a6f2ae3a146102ea578063b8fb3a51146102f2578063c488d6f214610307578063c8440f701461030f578063e4849b3214610322578063f2fde38b14610335578063f5074f4114610348578063f744596b14610368578063ffa1ad741461037e57610136565b36610136577fcc85d09d309785db93d6df19917f2e6cc07fe27cd01c08c8279145deb5cf4526333460405161012c929190611262565b60405180910390a1005b32331461018c5760405160e560020a62461bcd0281526020600482015260196024820152603860020a787068697368696e672061747461636b2064657465637465643f0260448201526064015b60405180910390fd5b7f26875833861a2b006512a11f1b86edf95df96131040f3caeed72989ee9858083333460405161012c929190611262565b3480156101c957600080fd5b506101f36101d8366004611293565b600a60205260009081526040902054600160a060020a031681565b60405161020091906112b7565b60405180910390f35b61021c6102173660046112cb565b6103c4565b005b61021c61022c366004611300565b6105af565b61021c6107d0565b34801561024557600080fd5b5061021c610254366004611401565b610807565b34801561026557600080fd5b506004545b604051908152602001610200565b34801561028457600080fd5b5061021c610293366004611484565b61095e565b3480156102a457600080fd5b5061026a6102b3366004611293565b60096020526000908152604090205481565b61021c610990565b3480156102d957600080fd5b5061021c6109f5565b6101f3610a52565b61021c610ac8565b3480156102fe57600080fd5b5061026a601e81565b61021c610ccf565b61021c61031d366004611293565b610d04565b61021c610330366004611484565b610d9b565b61021c610343366004611293565b610fee565b34801561035457600080fd5b5061021c610363366004611293565b6110cf565b34801561037457600080fd5b5061026a60085481565b34801561038a57600080fd5b506103b76040518060400160405280600a815260200160b060020a69312e362e342d626574610281525081565b60405161020091906114e3565b60035460ff166103e95760405160e560020a62461bcd028152600401610183906114f6565b600160a060020a0383166104405760405160e560020a62461bcd0281526020600482015260186024820152604060020a776d696e7420746f20746865207a65726f2061646472657373026044820152606401610183565b600b5460405160e460020a630b5bb61b028152600160a060020a039091169063b5bb61b0906104739030906004016112b7565b602060405180830381865afa158015610490573d6000803e3d6000fd5b505050506040513d601f19601f820116820180604052508101906104b4919061152d565b6105185760405160e560020a62461bcd02815260206004820152602960248201527f756e61757468726f697a65642c207472616e73666572206167656e7420697320604482015260ba60020a681b9bdd081d985b1a59026064820152608401610183565b600b5460085460405160e060020a639ceeaca7028152306004820152600160a060020a03868116602483015260448201869052606482018590526084820192909252911690639ceeaca79060a4016020604051808303816000875af1158015610585573d6000803e3d6000fd5b505050506040513d601f19601f820116820180604052508101906105a9919061152d565b50505050565b60035460ff166105d45760405160e560020a62461bcd028152600401610183906114f6565b60405160e160020a636eb1769f02815233908490600160a060020a0387169063dd62ed3e90610609908590309060040161154f565b602060405180830381865afa158015610626573d6000803e3d6000fd5b505050506040513d601f19601f8201168201806040525081019061064a9190611569565b101561069a5760405160e560020a62461bcd0281526020600482015260196024820152603860020a78546f6b656e203120616c6c6f77616e636520746f6f206c6f77026044820152606401610183565b60405160e160020a636eb1769f0281528290600160a060020a0385169063dd62ed3e906106cd908a90309060040161154f565b602060405180830381865afa1580156106ea573d6000803e3d6000fd5b505050506040513d601f19601f8201168201806040525081019061070e9190611569565b101561075e5760405160e560020a62461bcd0281526020600482015260196024820152603860020a78546f6b656e203220616c6c6f77616e636520746f6f206c6f77026044820152606401610183565b61076a8582888761111b565b6107768387838561111b565b60408051600160a060020a03878116825283811660208301528816818301526060810186905290517fa68751279918b541682a40b112185b1431eb790ac6ed647f0ac48ea0e0d95bee9181900360800190a1505050505050565b600054600160a060020a031633146107fd5760405160e560020a62461bcd02815260040161018390611582565b6108056111e1565b565b80600c81600c81111561081c5761081c6115b6565b1461087b5760405160e560020a62461bcd02815260206004820152602360248201527f4578656d7074206f66666572696e677320617265206e6f74207065726d697474604482015260e860020a62656421026064820152608401610183565b306000908152600a60205260409081902054905160e060020a63f7ea7a3d02815260048101859052600160a060020a039091169063f7ea7a3d90602401600060405180830381600087803b1580156108d257600080fd5b505af11580156108e6573d6000803e3d6000fd5b5050600c5460405160e060020a63490ced4f028152600160a060020a03909116925063490ced4f915061092590309089908990899089906004016115d0565b600060405180830381600087803b15801561093f57600080fd5b505af1158015610953573d6000803e3d6000fd5b505050505050505050565b600054600160a060020a0316331461098b5760405160e560020a62461bcd02815260040161018390611641565b600455565b600054600160a060020a031633146109bd5760405160e560020a62461bcd02815260040161018390611582565b60008054604051600160a060020a0390911690600080516020611755833981519152908390a360008054600160a060020a0319169055565b600054600160a060020a03163314610a225760405160e560020a62461bcd02815260040161018390611641565b60008051602061173583398151915233610a3a610a52565b604051610a4892919061154f565b60405180910390a1565b6000601e600154610a639190611678565b4211610a845760405160e560020a62461bcd028152600401610183906116a3565b601e600154610a939190611678565b4211610ab45760405160e560020a62461bcd028152600401610183906116a3565b5042600155600054600160a060020a031690565b60035460ff16610aed5760405160e560020a62461bcd028152600401610183906114f6565b3480610b3e5760405160e560020a62461bcd02815260206004820152601b60248201527f596f75206e65656420746f2073656e6420736f6d6520657468657200000000006044820152606401610183565b306000908152600a602090815260409182902054825160e060020a6318160ddd0281529251600160a060020a03909116926318160ddd9260048083019391928290030181865afa158015610b96573d6000803e3d6000fd5b505050506040513d601f19601f82011682018060405250810190610bba9190611569565b811115610c0c5760405160e560020a62461bcd02815260206004820181905260248201527f4e6f7420656e6f75676820746f6b656e7320696e2074686520726573657276656044820152606401610183565b306000908152600a60205260409081902054905160e060020a63a9059cbb028152600160a060020a039091169063a9059cbb90610c4f9033908590600401611262565b6020604051808303816000875af1158015610c6e573d6000803e3d6000fd5b505050506040513d601f19601f82011682018060405250810190610c92919061152d565b507fc55650ccda1011e1cdc769b1fbf546ebb8c97800b6072b49e06cd560305b1d673382604051610cc4929190611262565b60405180910390a150565b600054600160a060020a03163314610cfc5760405160e560020a62461bcd02815260040161018390611582565b610805611223565b600054600160a060020a03163314610d315760405160e560020a62461bcd02815260040161018390611582565b600b5460405160e160020a634250d3e9028152600160a060020a03909116906384a1a7d290610d66903090859060040161154f565b600060405180830381600087803b158015610d8057600080fd5b505af1158015610d94573d6000803e3d6000fd5b5050505050565b60035460ff16610dc05760405160e560020a62461bcd028152600401610183906114f6565b60008111610e245760405160e560020a62461bcd02815260206004820152602560248201527f596f75206e65656420746f2073656c6c206174206c6561737420736f6d652074604482015260d860020a646f6b656e73026064820152608401610183565b306000818152600a602052604080822054905160e160020a636eb1769f0281529192600160a060020a039091169163dd62ed3e91610e679133919060040161154f565b602060405180830381865afa158015610e84573d6000803e3d6000fd5b505050506040513d601f19601f82011682018060405250810190610ea89190611569565b905081811015610efc5760405160e560020a62461bcd0281526020600482015260196024820152603860020a78436865636b2074686520746f6b656e20616c6c6f77616e6365026044820152606401610183565b306000818152600a60205260409081902054905160e060020a6323b872dd028152600160a060020a03909116916323b872dd91610f3f91339187906004016116d0565b6020604051808303816000875af1158015610f5e573d6000803e3d6000fd5b505050506040513d601f19601f82011682018060405250810190610f82919061152d565b50604051339083156108fc029084906000818181858888f19350505050158015610fb0573d6000803e3d6000fd5b507fae92ab4b6f8f401ead768d3273e6bb937a13e39827d19c6376e8fd4512a05d9a3383604051610fe2929190611262565b60405180910390a15050565b600054600160a060020a0316331461101b5760405160e560020a62461bcd02815260040161018390611582565b600160a060020a0381166110865760405160e560020a62461bcd02815260206004820152602660248201527f4f776e61626c653a206e6577206f776e657220697320746865207a65726f2061604482015260d060020a65646472657373026064820152608401610183565b60008054604051600160a060020a038085169392169160008051602061175583398151915291a360008054600160a060020a031916600160a060020a0392909216919091179055565b600054600160a060020a031633146110fc5760405160e560020a62461bcd02815260040161018390611641565b6000805160206117358339815191523382604051610cc492919061154f565b60405160e060020a6323b872dd028152600090600160a060020a038616906323b872dd90611151908790879087906004016116d0565b6020604051808303816000875af1158015611170573d6000803e3d6000fd5b505050506040513d601f19601f82011682018060405250810190611194919061152d565b905080610d945760405160e560020a62461bcd0281526020600482015260156024820152605a60020a74151bdad95b881d1c985b9cd9995c8819985a5b1959026044820152606401610183565b6003805460ff191660011790556040517f33c68eeb60b17ccd4973bd4579ebb2e6156ecfd1defb9e8be822e959cca0253e90610a4890339060009036906116f4565b6003805460ff191690556040517fc161c5a84c30bc51746f28a7736664d7dae3f0fad3d92e4bb813d68bad76ec2190610a4890339060009036906116f4565b600160a060020a03929092168252602082015260400190565b600160a060020a038116811461129057600080fd5b50565b6000602082840312156112a557600080fd5b81356112b08161127b565b9392505050565b600160a060020a0391909116815260200190565b6000806000606084860312156112e057600080fd5b83356112eb8161127b565b95602085013595506040909401359392505050565b600080600080600060a0868803121561131857600080fd5b85356113238161127b565b945060208601356113338161127b565b935060408601359250606086013561134a8161127b565b949793965091946080013592915050565b60e060020a634e487b710260009081526041600452602490fd5b600082601f83011261138657600080fd5b81356001604060020a03808211156113a0576113a061135b565b604051601f8301601f19908116603f011681019082821181831017156113c8576113c861135b565b816040528381528660208588010111156113e157600080fd5b836020870160208301376000602085830101528094505050505092915050565b6000806000806080858703121561141757600080fd5b84356001604060020a038082111561142e57600080fd5b61143a88838901611375565b9550602087013591508082111561145057600080fd5b5061145d87828801611375565b935050604085013591506060850135600d811061147957600080fd5b939692955090935050565b60006020828403121561149657600080fd5b5035919050565b6000815180845260005b818110156114c3576020818501810151868301820152016114a7565b506000602082860101526020601f19601f83011685010191505092915050565b6020815260006112b0602083018461149d565b6020808252601c908201527f636f6e74726163742061637469766974792069732066726f7a656e2100000000604082015260600190565b60006020828403121561153f57600080fd5b815180151581146112b057600080fd5b600160a060020a0392831681529116602082015260400190565b60006020828403121561157b57600080fd5b5051919050565b6020808252601790820152604960020a7630b1b1b2b9b9903232b734b2b2103337b91037bbb732b902604082015260600190565b60e060020a634e487b710260009081526021600452602490fd5b600160a060020a038616815260a0602082018190526000906115f49083018761149d565b8281036040840152611606818761149d565b915050836060830152600d83106116315760e060020a634e487b710260009081526021600452602490fd5b8260808301529695505050505050565b6020808252601b908201527f756e617574686f72697a65642c206e6f7420746865206f776e65720000000000604082015260600190565b8082018082111561169d5760e060020a634e487b710260009081526011600452602490fd5b92915050565b6020808252601090820152608160020a6f3930ba32903634b6b4ba1032b93937b902604082015260600190565b600160a060020a039384168152919092166020820152604081019190915260600190565b600160a060020a03841681526040602082018190528101829052818360608301376000818301606090810191909152601f909201601f191601019291505056fe91ca00fdf29069527d658f8dfc6d1c0bf9861780bb45ff36436f938d3595a8d68be0079c531659141344cd1fd0a4f28419497f9722a3daafe3b4186f6b6457e0a2646970667358221220da6e25ddaa414e744a381b047432dc65cdb1bdecb6ce3747a30bec0a30658b7a64736f6c63430008120033",
  "immutableReferences": {},
  "source": "// SPDX-License-Identifier: CC-BY-4.0\r\npragma solidity >=0.4.22 <0.9.0;\r\n\r\n/**\r\n * S-1 Offering:\r\n * Corporate Finance Reporting Manual at https://www.sec.gov/page/corpfin-section-landing\r\n *\r\n * Useful for an issuer who wishes to conduct a Direct Public Offering or DPO on the blockchain after their S-1 has been quallified.\r\n * The filing fee for an S-1 is at https://www.sec.gov/ofm/Article/feeamt.html\r\n * Currently is $92.70 per $1,000,000\r\n * If you have a PAR value of $5 per share, then the minimum authorized shares would be 200,000 shares.\r\n * Liquidity is most important in a public offering!\r\n */\r\n\r\nimport \"../../libs/SafeMath.sol\";\r\nimport \"../../common/Version.sol\";\r\nimport \"../../common/Frozen.sol\";\r\nimport \"../../common/Token.sol\";\r\nimport \"../../interfaces/IERC20.sol\";\r\nimport \"../../interfaces/IOfferingContract.sol\";\r\nimport \"../../interfaces/ITransferAgent.sol\";\r\n\r\n\r\ncontract DirectEquityOffering is Version, Frozen {\r\n\r\n    // Price feeds from https://blog.chain.link/fetch-current-crypto-price-data-solidity/\r\n    // Quote ETH to USD at https://min-api.cryptocompare.com/data/price?fsym=ETH&tsyms=USD, returns amount of USD for 1 ETH\r\n    // https://api.kraken.com/0/public/Ticker?pair=ETHUSD\r\n    /**\r\n     * 2771.5 USD/ETH , 0.0003609 ETH/USD\r\n     * USD -> ETH = $5 USD * 0.0003609 ETH/USD = 0.0018045 ETH, using https://min-api.cryptocompare.com/data/price?fsym=USD&tsyms=ETH\r\n     */\r\n\r\n    // 1 equity token (min $5 par value) for 0.00180870 ETH, 1808700 Gwei\r\n    uint256 private tokenPrice;\r\n    uint256 private upperLimit_7;\r\n    uint256 private upperLimit_13;\r\n    uint256 private upperLimit_20;\r\n    uint256 public _initial_supply;\r\n\r\n\r\n    mapping (address => uint256) public _balances;\r\n    mapping (address => Token) public _tokens;\r\n\r\n    event Bought(address sender, uint256 amount);\r\n    event Sold(address sender, uint256 amount);\r\n    event Swapping(address token,address sender, address receiver, uint256 amount);\r\n    event Destroyed(address token, string reason);\r\n\r\n\r\n    modifier onlyDPO(IOfferingContract.OfferingType _type) {\r\n        require(_type == IOfferingContract.OfferingType.S1, \"Exempt offerings are not permitted!\");\r\n        _;\r\n    }\r\n\r\n    ITransferAgent TransferAgent;\r\n    IOfferingContract Offering;\r\n\r\n    constructor(IOfferingContract.OfferingType _type,\r\n                address offering_contract,\r\n                address transferagent_contract,\r\n                uint256 initial_supply,\r\n                uint256 price,\r\n                uint256 parValue)\r\n        onlyDPO(_type)\r\n    {\r\n        require(price >= parValue,\"Initial price cannot be less than par value?\");\r\n        _initial_supply = initial_supply;\r\n        Offering = IOfferingContract(offering_contract);\r\n        TransferAgent = ITransferAgent(transferagent_contract);\r\n\r\n        tokenPrice = price;\r\n        //upperLimit_7 =  price * (7 / 100);\r\n        //upperLimit_13 = price * (13 / 100);\r\n        //upperLimit_20 = price * (20 / 100);\r\n    }\r\n\r\n    function updateTokenPrice(uint256 updatePrice)\r\n        public\r\n        okOwner\r\n    {\r\n        tokenPrice = updatePrice;\r\n    }\r\n\r\n    function getTokenPrice()\r\n        public\r\n        view\r\n        returns (uint256)\r\n    {\r\n        return tokenPrice;\r\n    }\r\n\r\n    function startOffering()\r\n        public\r\n        payable\r\n        onlyOwner\r\n    {\r\n        start();\r\n    }\r\n\r\n    function stopOffering()\r\n        public\r\n        payable\r\n        onlyOwner\r\n    {\r\n        stop();\r\n    }\r\n\r\n    function assignTransferAgent(address transferagent)\r\n        public\r\n        payable\r\n        onlyOwner\r\n    {\r\n        TransferAgent.addTransferAgent(address(this), transferagent);\r\n    }\r\n\r\n    function initialize(string memory name, string memory symbol, uint256 maxShares, IOfferingContract.OfferingType offeringType)\r\n        public\r\n        onlyDPO(offeringType)\r\n    {\r\n        //if (_tokens[address(this)] == 0) {\r\n        //    _tokens[address(this)] = new Token();\r\n        //}\r\n        _tokens[address(this)].setTotalSupply(maxShares);\r\n        Offering.setOffering(address(this),name,symbol,maxShares,offeringType);\r\n    }\r\n\r\n    // The transfer agent is responsible for minting the token for the investor\r\n    function mint(address account, uint256 amount, uint256 epoch)\r\n        public\r\n        payable\r\n        isRunning\r\n    {\r\n        require(account != address(0), \"mint to the zero address\");\r\n        require(TransferAgent.checkTransferAgent(address(this)),\"unauthroized, transfer agent is not valid\");\r\n        TransferAgent.mint(address(this), account, amount, epoch, _initial_supply);\r\n    }\r\n\r\n    function buy()\r\n        public\r\n        payable\r\n        isRunning\r\n    {\r\n        uint256 amountTobuy = msg.value;\r\n        require(amountTobuy > 0, \"You need to send some ether\");\r\n        require(amountTobuy <= _tokens[address(this)].totalSupply(), \"Not enough tokens in the reserve\");\r\n        //if (_tokens[msg.sender] != 0) {\r\n        //    _tokens[msg.sender] = new Token();\r\n        //}\r\n        _tokens[address(this)].transfer(msg.sender, amountTobuy);\r\n        emit Bought(msg.sender,amountTobuy);\r\n    }\r\n\r\n    function sell(uint256 amount)\r\n        public\r\n        payable\r\n        isRunning\r\n    {\r\n        require(amount > 0, \"You need to sell at least some tokens\");\r\n        uint256 allowance = _tokens[address(this)].allowance(msg.sender, address(this));\r\n        require(allowance >= amount, \"Check the token allowance\");\r\n        //if (_tokens[msg.sender] != 0) {\r\n        //    _tokens[msg.sender] = new Token();\r\n        //}\r\n        _tokens[address(this)].transferFrom(msg.sender, address(this), amount);\r\n        payable(msg.sender).transfer(amount);\r\n        emit Sold(msg.sender,amount);\r\n    }\r\n\r\n\r\n\r\n    // Once an investor holds a token, they can freely swap it with another investor on the open market\r\n    // The receiving investor will need to be added to the stockholder list and when the sending investor\r\n    // no longer holds any tokens, they are not removed from the shareholder list\r\n    //\r\n    //this function will allow 2 people to trade 2 tokens as the same time (atomic) and swap them between accounts\r\n    //Bob holds token 1 and needs to send to alice\r\n    //Alice holds token 2 and needs to send to Bob\r\n    //this allows them to swap an amount of both tokens at the same time\r\n    //\r\n    //*** Important ***\r\n    //this contract needs an allowance to send tokens at token 1 and token 2 that is owned by owner 1 and owner 2\r\n    //\r\n    // See https://ethereum.org/en/developers/tutorials/transfers-and-approval-of-erc-20-tokens-from-a-solidity-smart-contract/\r\n    function swap(address investor2, IERC20 token1, uint _amount1, IERC20 token2, uint _amount2)\r\n        public\r\n        payable\r\n        isRunning\r\n    {\r\n\r\n            address investor1 = msg.sender;\r\n            // TODO: check is investor1 and investor2 are shareholders?\r\n            //require(msg.sender == investor1 || msg.sender == TransferAgent.getTransferAgent(address(this)), \"Not authorized\");\r\n            require(token1.allowance(investor1, address(this)) >= _amount1, \"Token 1 allowance too low\");\r\n            require(token2.allowance(investor2, address(this)) >= _amount2, \"Token 2 allowance too low\");\r\n\r\n            //transfer TokenSwap\r\n            //token1, owner1, amount 1 -> owner2.  needs to be in same order as function\r\n            _safeTransferFrom(token1, investor1, investor2, _amount1);\r\n            //token2, owner2, amount 2 -> owner1.  needs to be in same order as function\r\n            _safeTransferFrom(token2, investor2, investor1, _amount2);\r\n            emit Swapping(address(token1),investor1,investor2,_amount1);\r\n    }\r\n\r\n    //This is a private function that the function above is going to call\r\n    //the result of this transaction(bool) is assigned in a variable called sent\r\n    //then we require the transfer to be successful\r\n    function _safeTransferFrom(IERC20 token, address sender, address recipient, uint amount)\r\n        private\r\n    {\r\n        bool sent = token.transferFrom(sender, recipient, amount);\r\n        require(sent, \"Token transfer failed\");\r\n    }\r\n}",
  "sourcePath": "/Volumes/My Book/projects/pingleware-contracts/contracts/finance/equity/DirectEquityOffering.sol",
  "compiler": {
    "name": "solc",
    "version": "0.8.18+commit.87f61d96.Emscripten.clang"
  },
  "schemaVersion": "3.4.12",
  "updatedAt": "2023-10-24T05:16:51.654Z",
  "networkType": "ethereum",
  "devdoc": {
    "kind": "dev",
    "methods": {
      "renounceOwnership()": {
        "details": "Leaves the contract without owner. It will not be possible to call `onlyOwner` functions anymore. Can only be called by the current owner. NOTE: Renouncing ownership will leave the contract without an owner, thereby removing any functionality that is only available to the owner."
      },
      "transferOwnership(address)": {
        "details": "Transfers ownership of the contract to a new account (`newOwner`). Can only be called by the current owner."
      }
    },
    "version": 1
  },
  "userdoc": {
    "kind": "user",
    "methods": {},
    "version": 1
  }
}