{
  "contractName": "DisputeResolution",
  "abi": [
    {
      "inputs": [
        {
          "internalType": "address",
          "name": "arbitrationAddress",
          "type": "address"
        }
      ],
      "stateMutability": "nonpayable",
      "type": "constructor"
    },
    {
      "inputs": [
        {
          "internalType": "address",
          "name": "",
          "type": "address"
        }
      ],
      "name": "arbitrators",
      "outputs": [
        {
          "internalType": "bool",
          "name": "",
          "type": "bool"
        }
      ],
      "stateMutability": "view",
      "type": "function",
      "constant": true
    },
    {
      "inputs": [
        {
          "internalType": "address",
          "name": "party",
          "type": "address"
        },
        {
          "internalType": "bool",
          "name": "asPartyA",
          "type": "bool"
        }
      ],
      "name": "addParty",
      "outputs": [],
      "stateMutability": "nonpayable",
      "type": "function"
    },
    {
      "inputs": [
        {
          "internalType": "address",
          "name": "dispute",
          "type": "address"
        },
        {
          "internalType": "string",
          "name": "reason",
          "type": "string"
        }
      ],
      "name": "submitDispute",
      "outputs": [],
      "stateMutability": "nonpayable",
      "type": "function"
    },
    {
      "inputs": [
        {
          "internalType": "address",
          "name": "dispute",
          "type": "address"
        },
        {
          "internalType": "bool",
          "name": "resolvedInFavorOfPartyA",
          "type": "bool"
        }
      ],
      "name": "resolveDispute",
      "outputs": [],
      "stateMutability": "nonpayable",
      "type": "function"
    },
    {
      "inputs": [
        {
          "internalType": "address",
          "name": "dispute",
          "type": "address"
        }
      ],
      "name": "resetDispute",
      "outputs": [],
      "stateMutability": "nonpayable",
      "type": "function"
    }
  ],
  "bytecode": "0x608060405234801561001057600080fd5b5060405161081638038061081683398101604081905261002f91610054565b60048054600160a060020a031916600160a060020a0392909216919091179055610084565b60006020828403121561006657600080fd5b8151600160a060020a038116811461007d57600080fd5b9392505050565b610783806100936000396000f3fe608060405234801561001057600080fd5b506004361061005a5760e060020a60003504633738de3f811461005f57806351d0ea371461007457806357c1d4ff146100ab5780638d1ff7cc146100be578063fb833b33146100d1575b600080fd5b61007261006d3660046105bd565b6100e4565b005b6100976100823660046105f4565b60026020526000908152604090205460ff1681565b604051901515815260200160405180910390f35b6100726100b93660046105bd565b6102ba565b6100726100cc366004610616565b610341565b6100726100df3660046105f4565b61053d565b3360009081526002602052604090205460ff1661011f5760405160e560020a62461bcd02815260040161011690610698565b60405180910390fd5b600160a060020a038216600090815260036020819052604082205460ff169081111561014d5761014d6106e7565b036101af5760405160e560020a62461bcd02815260206004820152602660248201527f5468657265206973206e6f20616374697665206469737075746520746f207265604482015260d160020a6539b7b63b3297026064820152608401610116565b600480546040805160e060020a639a8e813d0281529051600160a060020a0390921692639a8e813d92828201926020929082900301816000875af11580156101fb573d6000803e3d6000fd5b505050506040513d601f19601f8201168201806040525081019061021f9190610701565b61026a5760405160e560020a62461bcd0281526020600482015260166024820152605260020a751d9bdd1a5b99c81a185cc81b9bdd08195e1c1a5c9959026044820152606401610116565b80156102985750600160a060020a03166000908152600360208190526040909120805460ff19169091179055565b50600160a060020a03166000908152600360205260409020805460ff19169055565b3360009081526002602052604090205460ff166102ec5760405160e560020a62461bcd02815260040161011690610698565b801561031957600160a060020a0382166000908152602081905260409020805460ff191660011790555050565b50600160a060020a03166000908152600160208190526040909120805460ff19169091179055565b3360009081526020819052604090205460ff168061036e57503360009081526001602052604090205460ff165b6103cc5760405160e560020a62461bcd028152602060048201526024808201527f596f7520617265206e6f74206120706172747920746f2074686520636f6e7472604482015260e160020a6330b1ba17026064820152608401610116565b600160a060020a038316600090815260036020819052604082205460ff16908111156103fa576103fa6106e7565b1461044a5760405160e560020a62461bcd02815260206004820152601b60248201527f546865726520697320616c7265616479206120646973707574652e00000000006044820152606401610116565b3360009081526020819052604090205460ff16156104eb57600160a060020a0383811660009081526003602052604090819020805460ff1916600117905560048054915160e360020a6304aaeb9f02815291909216916325575cf8916104b491869186910161071e565b600060405180830381600087803b1580156104ce57600080fd5b505af11580156104e2573d6000803e3d6000fd5b50505050505050565b600160a060020a0383811660009081526003602052604090819020805460ff1916600217905560048054915160e060020a63366262e7028152919092169163366262e7916104b491869186910161071e565b3360009081526002602052604090205460ff1661056f5760405160e560020a62461bcd02815260040161011690610698565b600160a060020a03166000908152600360205260409020805460ff19169055565b8035600160a060020a03811681146105a757600080fd5b919050565b80151581146105ba57600080fd5b50565b600080604083850312156105d057600080fd5b6105d983610590565b915060208301356105e9816105ac565b809150509250929050565b60006020828403121561060657600080fd5b61060f82610590565b9392505050565b60008060006040848603121561062b57600080fd5b61063484610590565b925060208401356001604060020a038082111561065057600080fd5b818601915086601f83011261066457600080fd5b81358181111561067357600080fd5b87602082850101111561068557600080fd5b6020830194508093505050509250925092565b6020808252602c908201527f4f6e6c79207468652061726269747261746f722063616e20706572666f726d20604082015260a160020a6b3a3434b99030b1ba34b7b71702606082015260800190565b60e060020a634e487b710260009081526021600452602490fd5b60006020828403121561071357600080fd5b815161060f816105ac565b60208152816020820152818360408301376000818301604090810191909152601f909201601f1916010191905056fea2646970667358221220f570489b8d4a0f172a0e12107085e0c852c3c81d11a4f3fadab4b5a6caf57a6964736f6c63430008120033",
  "immutableReferences": {},
  "source": "// SPDX-License-Identifier: CC-BY-4.0\npragma solidity >=0.4.22 <0.9.0;\n\ninterface IArbitration {\n    function hasVoteTimeExpired() external returns (bool);\n    function addSideAViewpointComment(string calldata _A) external;\n    function addSideBViewpointComment(string calldata _B) external;\n}\n\ncontract DisputeResolution {\n\n    mapping(address => bool) private partiesA;\n    mapping(address => bool) private partiesB;\n    mapping(address => bool) public arbitrators;\n    \n    enum DisputeStatus { NoDispute, PartyADispute, PartyBDispute, Resolved }\n\n    mapping(address => DisputeStatus) private disputeStatus;\n\n    IArbitration arbitrationContract;\n\n    constructor(address arbitrationAddress) {\n        arbitrationContract = IArbitration(arbitrationAddress);\n        //partyA = msg.sender;\n        //partyB = _partyB;\n        //arbitrator = _arbitrator;\n        //disputeStatus = DisputeStatus.NoDispute;\n    }\n\n    modifier onlyParties() {\n        require(partiesA[msg.sender] || partiesB[msg.sender], \"You are not a party to the contract.\");\n        _;\n    }\n\n    modifier onlyArbitrator() {\n        require(arbitrators[msg.sender], \"Only the arbitrator can perform this action.\");\n        _;\n    }\n\n    function addParty(address party,bool asPartyA) external onlyArbitrator {\n        if (asPartyA) {\n            partiesA[party] = true;\n        } else {\n            partiesB[party] = true;\n        }\n    }\n\n    function submitDispute(address dispute,string calldata reason) external onlyParties {\n        require(disputeStatus[dispute] == DisputeStatus.NoDispute, \"There is already a dispute.\");\n        if (partiesA[msg.sender]) {\n            disputeStatus[dispute] = DisputeStatus.PartyADispute;\n            arbitrationContract.addSideAViewpointComment(reason);\n        } else {\n            disputeStatus[dispute] = DisputeStatus.PartyBDispute;\n            arbitrationContract.addSideBViewpointComment(reason);\n        }\n    }\n\n    function resolveDispute(address dispute,bool resolvedInFavorOfPartyA) external onlyArbitrator {\n        require(disputeStatus[dispute] != DisputeStatus.NoDispute, \"There is no active dispute to resolve.\");\n        require(arbitrationContract.hasVoteTimeExpired(),\"voting has not expired\");\n        \n        if (resolvedInFavorOfPartyA) {\n            disputeStatus[dispute] = DisputeStatus.Resolved;\n        } else {\n            disputeStatus[dispute] = DisputeStatus.NoDispute;\n        }\n    }\n\n    function resetDispute(address dispute) external onlyArbitrator {\n        disputeStatus[dispute] = DisputeStatus.NoDispute;\n    }\n}\n",
  "sourcePath": "/Volumes/My Book/projects/pingleware-contracts/contracts/legal/DisputeReolution.sol",
  "compiler": {
    "name": "solc",
    "version": "0.8.18+commit.87f61d96.Emscripten.clang"
  },
  "schemaVersion": "3.4.12",
  "updatedAt": "2023-10-24T12:20:00.304Z",
  "networkType": "ethereum",
  "devdoc": {
    "kind": "dev",
    "methods": {},
    "version": 1
  },
  "userdoc": {
    "kind": "user",
    "methods": {},
    "version": 1
  }
}