{
  "contractName": "Donation",
  "abi": [
    {
      "anonymous": false,
      "inputs": [
        {
          "indexed": false,
          "internalType": "address",
          "name": "sender",
          "type": "address"
        },
        {
          "indexed": false,
          "internalType": "uint256",
          "name": "amount",
          "type": "uint256"
        }
      ],
      "name": "FallbackEvent",
      "type": "event"
    },
    {
      "anonymous": false,
      "inputs": [
        {
          "indexed": true,
          "internalType": "address",
          "name": "previousOwner",
          "type": "address"
        },
        {
          "indexed": true,
          "internalType": "address",
          "name": "newOwner",
          "type": "address"
        }
      ],
      "name": "OwnershipTransferred",
      "type": "event"
    },
    {
      "anonymous": false,
      "inputs": [
        {
          "indexed": false,
          "internalType": "address",
          "name": "sender",
          "type": "address"
        },
        {
          "indexed": false,
          "internalType": "uint256",
          "name": "amount",
          "type": "uint256"
        }
      ],
      "name": "ReceiveEvent",
      "type": "event"
    },
    {
      "stateMutability": "payable",
      "type": "fallback"
    },
    {
      "inputs": [],
      "name": "VERSION",
      "outputs": [
        {
          "internalType": "string",
          "name": "",
          "type": "string"
        }
      ],
      "stateMutability": "view",
      "type": "function"
    },
    {
      "inputs": [],
      "name": "WAIT",
      "outputs": [
        {
          "internalType": "uint256",
          "name": "",
          "type": "uint256"
        }
      ],
      "stateMutability": "view",
      "type": "function"
    },
    {
      "inputs": [],
      "name": "getOwner",
      "outputs": [
        {
          "internalType": "address",
          "name": "",
          "type": "address"
        }
      ],
      "stateMutability": "payable",
      "type": "function"
    },
    {
      "inputs": [],
      "name": "renounceOwnership",
      "outputs": [],
      "stateMutability": "payable",
      "type": "function"
    },
    {
      "inputs": [
        {
          "internalType": "address",
          "name": "newOwner",
          "type": "address"
        }
      ],
      "name": "transferOwnership",
      "outputs": [],
      "stateMutability": "payable",
      "type": "function"
    },
    {
      "stateMutability": "payable",
      "type": "receive"
    },
    {
      "inputs": [],
      "name": "donate",
      "outputs": [],
      "stateMutability": "payable",
      "type": "function"
    },
    {
      "inputs": [],
      "name": "moveFund",
      "outputs": [],
      "stateMutability": "payable",
      "type": "function"
    }
  ],
  "bytecode": "0x608080604052346100535760008054600160a060020a03191633908117825542600155907f8be0079c531659141344cd1fd0a4f28419497f9722a3daafe3b4186f6b6457e08180a36105b790816100598239f35b600080fdfe6040608081526004803610156100c4575b361561009557333203610051577f26875833861a2b006512a11f1b86edf95df96131040f3caeed72989ee985808382518061004c3433836104fa565b0390a1005b6020606492519160e560020a62461bcd02835282015260196024820152603860020a787068697368696e672061747461636b2064657465637465643f026044820152fd5b7fcc85d09d309785db93d6df19917f2e6cc07fe27cd01c08c8279145deb5cf452682518061004c3433836104fa565b600060e060020a8135046336a22e14811461040e578063715018a6146103c6578063893d20e81461039d578063b8fb3a511461037d578063ed88c68e1461028c578063f2fde38b146101ca5763ffa1ad74146101205750610010565b9190346101c657826003193601126101c657815190818301906001604060020a038211838310176101b057508252600a815260209060b060020a69312e362e342d62657461028282015282519382859384528251928382860152825b84811061019a57505050828201840152601f01601f19168101030190f35b818101830151888201880152879550820161017c565b60e060020a634e487b7102855260419052602484fd5b8280fd5b50919060203660031901126101c657600160a060020a0381358181169391929084900361028857845492831691610202833314610515565b841561022e57505082906000805160206105628339815191528580a3600160a060020a03191617815580f35b5160e560020a62461bcd028152602091810191909152602660248201527f4f776e61626c653a206e6577206f776e657220697320746865207a65726f2061604482015260d060020a65646472657373026064820152608490fd5b8480fd5b5091826003193601126101c657341561033d5782808080343082f115610332575060035490604060020a82101561031c5760018201806003558210156103065750600382527fc2575a0e9e593c00f959f8c92f12db2869c3395a3b0502d05e2516446f71f85b018054600160a060020a0319163317905580f35b60e060020a634e487b7102835260329052602482fd5b60e060020a634e487b7102835260419052602482fd5b51913d9150823e3d90fd5b5160e560020a62461bcd02815260209181019190915260126024820152607060020a71696e73756666696369656e742066756e6473026044820152606490fd5b50823461039957816003193601126103995760209051601e8152f35b5080fd5b508281600319360112610399576020906103b56104ab565b9051600160a060020a039091168152f35b508060031936011261040b57805481600160a060020a0382166103ea338214610515565b6000805160206105628339815191528280a3600160a060020a031916815580f35b80fd5b5082816003193601126103995781808080600160a060020a03610435818354163314610515565b61043d6104ab565b1630319082821561045d575bf115610453575080f35b51903d90823e3d90fd5b506108fc610449565b1561046d57565b60405160e560020a62461bcd0281526020600482015260106024820152608160020a6f3930ba32903634b6b4ba1032b93937b9026044820152606490fd5b600154601e81018091116104e0576104cd9042116104c881610466565b610466565b42600155600054600160a060020a031690565b60e060020a634e487b710260009081526011600452602490fd5b600160a060020a039091168152602081019190915260400190565b1561051c57565b60405160e560020a62461bcd0281526020600482015260176024820152604960020a7630b1b1b2b9b9903232b734b2b2103337b91037bbb732b9026044820152606490fdfe8be0079c531659141344cd1fd0a4f28419497f9722a3daafe3b4186f6b6457e0a2646970667358221220c902aab93064e22c04672a4faffc02612fae13cc2c04eb63c75b6d7a7de73bc764736f6c63430008120033",
  "immutableReferences": {},
  "source": "// SPDX-License-Identifier: CC-BY-4.0\r\npragma solidity >=0.4.22 <0.9.0;\r\n\r\nimport \"../common/Version.sol\";\r\nimport \"../common/Owned.sol\";\r\n\r\ncontract Donation is Version, Owned {\r\n\r\n    address[] _giver;\r\n\r\n\r\n\r\n    function donate()\r\n        public\r\n        payable\r\n    {\r\n        if (msg.value == 0) {\r\n            revert(\"insufficient funds\");\r\n        }\r\n        // transfer donation to the contract from the sender (donor)\r\n        payable(address(this)).transfer(msg.value);\r\n        addGiver(msg.sender);\r\n    }\r\n\r\n    function moveFund()\r\n        public\r\n        payable\r\n        onlyOwner\r\n    {\r\n      payable(getOwner()).transfer(address(this).balance);\r\n    }\r\n\r\n\r\n    function addGiver(address _a)\r\n        internal\r\n    {\r\n        _giver.push(_a);\r\n    }\r\n}\r\n",
  "sourcePath": "/Volumes/HOME/pingleware-contracts/contracts/non-profit/Donation.sol",
  "compiler": {
    "name": "solc",
    "version": "0.8.18+commit.87f61d96.Emscripten.clang"
  },
  "schemaVersion": "3.4.12",
  "updatedAt": "2024-05-23T18:56:27.008Z",
  "devdoc": {
    "kind": "dev",
    "methods": {
      "renounceOwnership()": {
        "details": "Leaves the contract without owner. It will not be possible to call `onlyOwner` functions anymore. Can only be called by the current owner. NOTE: Renouncing ownership will leave the contract without an owner, thereby removing any functionality that is only available to the owner."
      },
      "transferOwnership(address)": {
        "details": "Transfers ownership of the contract to a new account (`newOwner`). Can only be called by the current owner."
      }
    },
    "version": 1
  },
  "userdoc": {
    "kind": "user",
    "methods": {},
    "version": 1
  }
}