{
  "contractName": "Donation",
  "abi": [
    {
      "anonymous": false,
      "inputs": [
        {
          "indexed": false,
          "internalType": "address",
          "name": "sender",
          "type": "address"
        },
        {
          "indexed": false,
          "internalType": "uint256",
          "name": "amount",
          "type": "uint256"
        }
      ],
      "name": "FallbackEvent",
      "type": "event"
    },
    {
      "anonymous": false,
      "inputs": [
        {
          "indexed": true,
          "internalType": "address",
          "name": "previousOwner",
          "type": "address"
        },
        {
          "indexed": true,
          "internalType": "address",
          "name": "newOwner",
          "type": "address"
        }
      ],
      "name": "OwnershipTransferred",
      "type": "event"
    },
    {
      "anonymous": false,
      "inputs": [
        {
          "indexed": false,
          "internalType": "address",
          "name": "sender",
          "type": "address"
        },
        {
          "indexed": false,
          "internalType": "uint256",
          "name": "amount",
          "type": "uint256"
        }
      ],
      "name": "ReceiveEvent",
      "type": "event"
    },
    {
      "stateMutability": "payable",
      "type": "fallback",
      "payable": true
    },
    {
      "inputs": [],
      "name": "VERSION",
      "outputs": [
        {
          "internalType": "string",
          "name": "",
          "type": "string"
        }
      ],
      "stateMutability": "view",
      "type": "function",
      "constant": true
    },
    {
      "inputs": [],
      "name": "WAIT",
      "outputs": [
        {
          "internalType": "uint256",
          "name": "",
          "type": "uint256"
        }
      ],
      "stateMutability": "view",
      "type": "function",
      "constant": true
    },
    {
      "inputs": [],
      "name": "getOwner",
      "outputs": [
        {
          "internalType": "address",
          "name": "",
          "type": "address"
        }
      ],
      "stateMutability": "payable",
      "type": "function",
      "payable": true
    },
    {
      "inputs": [],
      "name": "renounceOwnership",
      "outputs": [],
      "stateMutability": "payable",
      "type": "function",
      "payable": true
    },
    {
      "inputs": [
        {
          "internalType": "address",
          "name": "newOwner",
          "type": "address"
        }
      ],
      "name": "transferOwnership",
      "outputs": [],
      "stateMutability": "payable",
      "type": "function",
      "payable": true
    },
    {
      "stateMutability": "payable",
      "type": "receive",
      "payable": true
    },
    {
      "inputs": [],
      "name": "donate",
      "outputs": [],
      "stateMutability": "payable",
      "type": "function",
      "payable": true
    },
    {
      "inputs": [],
      "name": "moveFund",
      "outputs": [],
      "stateMutability": "payable",
      "type": "function",
      "payable": true
    }
  ],
  "bytecode": "0x6080604052600060015534801561001557600080fd5b5060008054600160a060020a031916339081178255426001556040519091907f8be0079c531659141344cd1fd0a4f28419497f9722a3daafe3b4186f6b6457e0908290a361064a806100686000396000f3fe6080604052600436106100675760e060020a600035046336a22e14811461012e578063715018a614610138578063893d20e814610140578063b8fb3a5114610165578063ed88c68e14610188578063f2fde38b14610190578063ffa1ad74146101a3576100a7565b366100a7577fcc85d09d309785db93d6df19917f2e6cc07fe27cd01c08c8279145deb5cf4526333460405161009d9291906104d1565b60405180910390a1005b3233146100fd5760405160e560020a62461bcd0281526020600482015260196024820152603860020a787068697368696e672061747461636b2064657465637465643f0260448201526064015b60405180910390fd5b7f26875833861a2b006512a11f1b86edf95df96131040f3caeed72989ee9858083333460405161009d9291906104d1565b6101366101e9565b005b610136610259565b6101486102be565b604051600160a060020a0390911681526020015b60405180910390f35b34801561017157600080fd5b5061017a601e81565b60405190815260200161015c565b610136610334565b61013661019e3660046104ea565b6103f0565b3480156101af57600080fd5b506101dc6040518060400160405280600a815260200160b060020a69312e362e342d626574610281525081565b60405161015c919061051a565b600054600160a060020a031633146102165760405160e560020a62461bcd0281526004016100f490610568565b61021e6102be565b604051600160a060020a039190911690303180156108fc02916000818181858888f19350505050158015610256573d6000803e3d6000fd5b50565b600054600160a060020a031633146102865760405160e560020a62461bcd0281526004016100f490610568565b60008054604051600160a060020a03909116906000805160206105f5833981519152908390a360008054600160a060020a0319169055565b6000601e6001546102cf919061059c565b42116102f05760405160e560020a62461bcd0281526004016100f4906105c7565b601e6001546102ff919061059c565b42116103205760405160e560020a62461bcd0281526004016100f4906105c7565b5042600155600054600160a060020a031690565b3460000361037f5760405160e560020a62461bcd0281526020600482015260126024820152607060020a71696e73756666696369656e742066756e64730260448201526064016100f4565b60405130903480156108fc02916000818181858888f193505050501580156103ab573d6000803e3d6000fd5b50600380546001810182556000919091527fc2575a0e9e593c00f959f8c92f12db2869c3395a3b0502d05e2516446f71f85b018054600160a060020a03191633179055565b600054600160a060020a0316331461041d5760405160e560020a62461bcd0281526004016100f490610568565b600160a060020a0381166104885760405160e560020a62461bcd02815260206004820152602660248201527f4f776e61626c653a206e6577206f776e657220697320746865207a65726f2061604482015260d060020a656464726573730260648201526084016100f4565b60008054604051600160a060020a03808516939216916000805160206105f583398151915291a360008054600160a060020a031916600160a060020a0392909216919091179055565b600160a060020a03929092168252602082015260400190565b6000602082840312156104fc57600080fd5b8135600160a060020a038116811461051357600080fd5b9392505050565b600060208083528351808285015260005b818110156105475785810183015185820160400152820161052b565b506000604082860101526040601f19601f8301168501019250505092915050565b6020808252601790820152604960020a7630b1b1b2b9b9903232b734b2b2103337b91037bbb732b902604082015260600190565b808201808211156105c15760e060020a634e487b710260009081526011600452602490fd5b92915050565b6020808252601090820152608160020a6f3930ba32903634b6b4ba1032b93937b90260408201526060019056fe8be0079c531659141344cd1fd0a4f28419497f9722a3daafe3b4186f6b6457e0a2646970667358221220dcf3f8c56c30d5a0ddad9f209ba3cbe05c7aa84a59eb4728bee14842ee31e93264736f6c63430008120033",
  "immutableReferences": {},
  "source": "// SPDX-License-Identifier: CC-BY-4.0\r\npragma solidity >=0.4.22 <0.9.0;\r\n\r\nimport \"../common/Version.sol\";\r\nimport \"../common/Owned.sol\";\r\n\r\ncontract Donation is Version, Owned {\r\n\r\n    address[] _giver;\r\n\r\n\r\n\r\n    function donate()\r\n        public\r\n        payable\r\n    {\r\n        if (msg.value == 0) {\r\n            revert(\"insufficient funds\");\r\n        }\r\n        // transfer donation to the contract from the sender (donor)\r\n        payable(address(this)).transfer(msg.value);\r\n        addGiver(msg.sender);\r\n    }\r\n\r\n    function moveFund()\r\n        public\r\n        payable\r\n        onlyOwner\r\n    {\r\n      payable(getOwner()).transfer(address(this).balance);\r\n    }\r\n\r\n\r\n    function addGiver(address _a)\r\n        internal\r\n    {\r\n        _giver.push(_a);\r\n    }\r\n}\r\n",
  "sourcePath": "/Volumes/My Book/projects/pingleware-contracts/contracts/non-profit/Donation.sol",
  "compiler": {
    "name": "solc",
    "version": "0.8.18+commit.87f61d96.Emscripten.clang"
  },
  "schemaVersion": "3.4.12",
  "updatedAt": "2023-10-24T19:33:52.450Z",
  "networkType": "ethereum",
  "devdoc": {
    "kind": "dev",
    "methods": {
      "renounceOwnership()": {
        "details": "Leaves the contract without owner. It will not be possible to call `onlyOwner` functions anymore. Can only be called by the current owner. NOTE: Renouncing ownership will leave the contract without an owner, thereby removing any functionality that is only available to the owner."
      },
      "transferOwnership(address)": {
        "details": "Transfers ownership of the contract to a new account (`newOwner`). Can only be called by the current owner."
      }
    },
    "version": 1
  },
  "userdoc": {
    "kind": "user",
    "methods": {},
    "version": 1
  }
}