{
  "contractName": "Driver",
  "abi": [
    {
      "anonymous": false,
      "inputs": [
        {
          "indexed": false,
          "internalType": "string",
          "name": "message",
          "type": "string"
        },
        {
          "indexed": false,
          "internalType": "uint256",
          "name": "amount",
          "type": "uint256"
        }
      ],
      "name": "PaymentInfo",
      "type": "event"
    },
    {
      "anonymous": false,
      "inputs": [
        {
          "indexed": false,
          "internalType": "string",
          "name": "message",
          "type": "string"
        }
      ],
      "name": "PaymentMessage",
      "type": "event"
    },
    {
      "anonymous": false,
      "inputs": [
        {
          "indexed": false,
          "internalType": "string",
          "name": "_message",
          "type": "string"
        },
        {
          "indexed": false,
          "internalType": "uint256",
          "name": "_trackingNo",
          "type": "uint256"
        }
      ],
      "name": "TransportInfo",
      "type": "event"
    },
    {
      "anonymous": false,
      "inputs": [
        {
          "indexed": false,
          "internalType": "string",
          "name": "message",
          "type": "string"
        }
      ],
      "name": "TransportMessage",
      "type": "event"
    },
    {
      "anonymous": false,
      "inputs": [
        {
          "indexed": false,
          "internalType": "string",
          "name": "message",
          "type": "string"
        },
        {
          "indexed": false,
          "internalType": "string",
          "name": "m1",
          "type": "string"
        }
      ],
      "name": "TransportMessage1",
      "type": "event"
    },
    {
      "anonymous": false,
      "inputs": [
        {
          "indexed": false,
          "internalType": "string",
          "name": "s1",
          "type": "string"
        },
        {
          "indexed": false,
          "internalType": "string",
          "name": "s2",
          "type": "string"
        },
        {
          "indexed": false,
          "internalType": "string",
          "name": "s3",
          "type": "string"
        },
        {
          "indexed": false,
          "internalType": "address",
          "name": "s4",
          "type": "address"
        }
      ],
      "name": "add",
      "type": "event"
    },
    {
      "anonymous": false,
      "inputs": [
        {
          "indexed": false,
          "internalType": "uint256",
          "name": "value",
          "type": "uint256"
        }
      ],
      "name": "pop",
      "type": "event"
    },
    {
      "inputs": [
        {
          "internalType": "uint256",
          "name": "_trackingNo",
          "type": "uint256"
        },
        {
          "internalType": "address",
          "name": "_distaddr",
          "type": "address"
        },
        {
          "internalType": "address",
          "name": "_produceraddr",
          "type": "address"
        },
        {
          "internalType": "uint256",
          "name": "_amount",
          "type": "uint256"
        }
      ],
      "name": "acceptOrderByDistributor",
      "outputs": [],
      "stateMutability": "nonpayable",
      "type": "function"
    },
    {
      "inputs": [
        {
          "internalType": "address",
          "name": "_produceraddr",
          "type": "address"
        },
        {
          "internalType": "uint256",
          "name": "_trackingNo",
          "type": "uint256"
        }
      ],
      "name": "acceptOrderByProducer",
      "outputs": [
        {
          "internalType": "uint256",
          "name": "",
          "type": "uint256"
        }
      ],
      "stateMutability": "nonpayable",
      "type": "function"
    },
    {
      "inputs": [
        {
          "internalType": "address",
          "name": "_distaddr",
          "type": "address"
        },
        {
          "internalType": "string",
          "name": "_name",
          "type": "string"
        }
      ],
      "name": "addDistributor",
      "outputs": [],
      "stateMutability": "nonpayable",
      "type": "function"
    },
    {
      "inputs": [
        {
          "internalType": "address",
          "name": "_produceraddr",
          "type": "address"
        },
        {
          "internalType": "string",
          "name": "_name",
          "type": "string"
        }
      ],
      "name": "addProducer",
      "outputs": [],
      "stateMutability": "nonpayable",
      "type": "function"
    },
    {
      "inputs": [
        {
          "internalType": "uint256",
          "name": "_prodID",
          "type": "uint256"
        }
      ],
      "name": "addProduct",
      "outputs": [],
      "stateMutability": "nonpayable",
      "type": "function"
    },
    {
      "inputs": [
        {
          "internalType": "uint256",
          "name": "_amount",
          "type": "uint256"
        }
      ],
      "name": "checkprice",
      "outputs": [
        {
          "internalType": "uint256",
          "name": "",
          "type": "uint256"
        }
      ],
      "stateMutability": "nonpayable",
      "type": "function"
    },
    {
      "inputs": [
        {
          "internalType": "address",
          "name": "_produceraddr",
          "type": "address"
        },
        {
          "internalType": "address",
          "name": "_distaddr",
          "type": "address"
        },
        {
          "internalType": "uint256",
          "name": "_quantity",
          "type": "uint256"
        },
        {
          "internalType": "uint256",
          "name": "_prodID",
          "type": "uint256"
        }
      ],
      "name": "createOrderByDistributor",
      "outputs": [
        {
          "internalType": "uint256",
          "name": "",
          "type": "uint256"
        }
      ],
      "stateMutability": "nonpayable",
      "type": "function"
    },
    {
      "inputs": [
        {
          "internalType": "address",
          "name": "",
          "type": "address"
        }
      ],
      "name": "distributor",
      "outputs": [
        {
          "internalType": "address",
          "name": "distaddr",
          "type": "address"
        },
        {
          "internalType": "string",
          "name": "distname",
          "type": "string"
        }
      ],
      "stateMutability": "view",
      "type": "function",
      "constant": true
    },
    {
      "inputs": [
        {
          "internalType": "address",
          "name": "_from",
          "type": "address"
        },
        {
          "internalType": "address",
          "name": "_to",
          "type": "address"
        },
        {
          "internalType": "uint256",
          "name": "_amount",
          "type": "uint256"
        }
      ],
      "name": "makePayment",
      "outputs": [
        {
          "internalType": "bool",
          "name": "",
          "type": "bool"
        },
        {
          "internalType": "uint256",
          "name": "",
          "type": "uint256"
        }
      ],
      "stateMutability": "nonpayable",
      "type": "function"
    },
    {
      "inputs": [
        {
          "internalType": "uint256",
          "name": "",
          "type": "uint256"
        }
      ],
      "name": "pro",
      "outputs": [
        {
          "internalType": "uint256",
          "name": "prodID",
          "type": "uint256"
        },
        {
          "internalType": "string",
          "name": "prodname",
          "type": "string"
        },
        {
          "internalType": "uint256",
          "name": "pricePerUnit",
          "type": "uint256"
        },
        {
          "internalType": "address",
          "name": "produceraddr",
          "type": "address"
        },
        {
          "internalType": "uint256",
          "name": "stock",
          "type": "uint256"
        }
      ],
      "stateMutability": "view",
      "type": "function",
      "constant": true
    },
    {
      "inputs": [
        {
          "internalType": "address",
          "name": "",
          "type": "address"
        }
      ],
      "name": "producer",
      "outputs": [
        {
          "internalType": "address",
          "name": "produceraddr",
          "type": "address"
        },
        {
          "internalType": "string",
          "name": "producername",
          "type": "string"
        }
      ],
      "stateMutability": "view",
      "type": "function",
      "constant": true
    },
    {
      "inputs": [
        {
          "internalType": "address",
          "name": "",
          "type": "address"
        }
      ],
      "name": "product",
      "outputs": [
        {
          "internalType": "uint256",
          "name": "prodID",
          "type": "uint256"
        },
        {
          "internalType": "string",
          "name": "prodname",
          "type": "string"
        },
        {
          "internalType": "uint256",
          "name": "pricePerUnit",
          "type": "uint256"
        },
        {
          "internalType": "address",
          "name": "produceraddr",
          "type": "address"
        },
        {
          "internalType": "uint256",
          "name": "stock",
          "type": "uint256"
        }
      ],
      "stateMutability": "view",
      "type": "function",
      "constant": true
    },
    {
      "inputs": [
        {
          "internalType": "uint256",
          "name": "",
          "type": "uint256"
        }
      ],
      "name": "prostock",
      "outputs": [
        {
          "internalType": "address",
          "name": "produceraddr",
          "type": "address"
        },
        {
          "internalType": "string",
          "name": "producername",
          "type": "string"
        }
      ],
      "stateMutability": "view",
      "type": "function",
      "constant": true
    },
    {
      "inputs": [
        {
          "internalType": "uint256",
          "name": "no",
          "type": "uint256"
        },
        {
          "internalType": "uint256",
          "name": "hrs",
          "type": "uint256"
        }
      ],
      "name": "randomaccelerometer",
      "outputs": [
        {
          "internalType": "uint256[]",
          "name": "",
          "type": "uint256[]"
        }
      ],
      "stateMutability": "nonpayable",
      "type": "function"
    },
    {
      "inputs": [
        {
          "internalType": "uint256",
          "name": "no",
          "type": "uint256"
        },
        {
          "internalType": "uint256",
          "name": "hrs",
          "type": "uint256"
        }
      ],
      "name": "randomluminosity",
      "outputs": [
        {
          "internalType": "uint256[]",
          "name": "",
          "type": "uint256[]"
        }
      ],
      "stateMutability": "nonpayable",
      "type": "function"
    },
    {
      "inputs": [
        {
          "internalType": "uint256",
          "name": "no",
          "type": "uint256"
        },
        {
          "internalType": "uint256",
          "name": "hrs",
          "type": "uint256"
        }
      ],
      "name": "randomtemperature",
      "outputs": [
        {
          "internalType": "uint256[]",
          "name": "",
          "type": "uint256[]"
        }
      ],
      "stateMutability": "nonpayable",
      "type": "function"
    },
    {
      "inputs": [
        {
          "internalType": "address",
          "name": "_produceraddr",
          "type": "address"
        },
        {
          "internalType": "address",
          "name": "_distaddr",
          "type": "address"
        },
        {
          "internalType": "uint256",
          "name": "_trackingNo",
          "type": "uint256"
        },
        {
          "internalType": "uint256",
          "name": "_quantity",
          "type": "uint256"
        }
      ],
      "name": "sendOrderByDistributor",
      "outputs": [],
      "stateMutability": "nonpayable",
      "type": "function"
    },
    {
      "inputs": [
        {
          "internalType": "uint256",
          "name": "",
          "type": "uint256"
        }
      ],
      "name": "trackingorder",
      "outputs": [
        {
          "internalType": "bool",
          "name": "flag",
          "type": "bool"
        },
        {
          "internalType": "uint256",
          "name": "trackingNo",
          "type": "uint256"
        },
        {
          "internalType": "string",
          "name": "prodname",
          "type": "string"
        },
        {
          "internalType": "uint256",
          "name": "prodID",
          "type": "uint256"
        },
        {
          "internalType": "address",
          "name": "distaddr",
          "type": "address"
        },
        {
          "internalType": "address",
          "name": "produceraddr",
          "type": "address"
        },
        {
          "internalType": "uint256",
          "name": "quantity",
          "type": "uint256"
        },
        {
          "internalType": "uint256",
          "name": "amount",
          "type": "uint256"
        }
      ],
      "stateMutability": "view",
      "type": "function",
      "constant": true
    },
    {
      "inputs": [
        {
          "internalType": "address",
          "name": "_produceraddr",
          "type": "address"
        },
        {
          "internalType": "address",
          "name": "_distaddr",
          "type": "address"
        },
        {
          "internalType": "uint256",
          "name": "_quantity",
          "type": "uint256"
        },
        {
          "internalType": "uint256",
          "name": "_prodID",
          "type": "uint256"
        },
        {
          "internalType": "uint256",
          "name": "no",
          "type": "uint256"
        },
        {
          "internalType": "uint256",
          "name": "hrs",
          "type": "uint256"
        }
      ],
      "name": "drive",
      "outputs": [
        {
          "internalType": "uint256",
          "name": "",
          "type": "uint256"
        }
      ],
      "stateMutability": "nonpayable",
      "type": "function"
    },
    {
      "inputs": [
        {
          "internalType": "uint256",
          "name": "trackingNo",
          "type": "uint256"
        },
        {
          "internalType": "uint256",
          "name": "latitude",
          "type": "uint256"
        },
        {
          "internalType": "uint256",
          "name": "longitude",
          "type": "uint256"
        },
        {
          "internalType": "uint256",
          "name": "epoch",
          "type": "uint256"
        },
        {
          "internalType": "string",
          "name": "memo",
          "type": "string"
        }
      ],
      "name": "updateTrackingPosition",
      "outputs": [],
      "stateMutability": "nonpayable",
      "type": "function"
    },
    {
      "inputs": [],
      "name": "getLogs",
      "outputs": [
        {
          "components": [
            {
              "internalType": "uint256",
              "name": "trackingNo",
              "type": "uint256"
            },
            {
              "internalType": "uint256",
              "name": "latitude",
              "type": "uint256"
            },
            {
              "internalType": "uint256",
              "name": "longitude",
              "type": "uint256"
            },
            {
              "internalType": "uint256",
              "name": "epoch",
              "type": "uint256"
            },
            {
              "internalType": "string",
              "name": "memo",
              "type": "string"
            }
          ],
          "internalType": "struct Driver.Tracking[]",
          "name": "",
          "type": "tuple[]"
        }
      ],
      "stateMutability": "view",
      "type": "function",
      "constant": true
    },
    {
      "inputs": [
        {
          "internalType": "address",
          "name": "driver",
          "type": "address"
        }
      ],
      "name": "getDriverLogs",
      "outputs": [
        {
          "components": [
            {
              "internalType": "uint256",
              "name": "trackingNo",
              "type": "uint256"
            },
            {
              "internalType": "uint256",
              "name": "latitude",
              "type": "uint256"
            },
            {
              "internalType": "uint256",
              "name": "longitude",
              "type": "uint256"
            },
            {
              "internalType": "uint256",
              "name": "epoch",
              "type": "uint256"
            },
            {
              "internalType": "string",
              "name": "memo",
              "type": "string"
            }
          ],
          "internalType": "struct Driver.Tracking[]",
          "name": "",
          "type": "tuple[]"
        }
      ],
      "stateMutability": "view",
      "type": "function",
      "constant": true
    }
  ],
  "bytecode": "0x608060405234801561001057600080fd5b506123fd806100206000396000f3fe608060405234801561001057600080fd5b50600436106101155760e060020a60003504631214d2fd811461011a57806317f7dad81461012f578063274f97c61461015c5780632b69bae81461016f5780633024b810146101905780633261154c146101b0578063327a48cc146101c357806343e99996146101d657806349163513146101e95780636f135601146101fc578063724b2b0c1461020f57806387e660d314610222578063cd95c8e31461024c578063dd4742b51461026c578063e074839e1461027f578063e29cefb3146102a0578063ee81ec43146102b3578063f198c039146102c6578063f63c3075146102d9578063f67a5d2514610300578063f7e6500c14610313578063fe290ccb14610326575b600080fd5b61012d610128366004611b03565b61032e565b005b61014261013d366004611b50565b61037f565b604051610153959493929190611bb8565b60405180910390f35b61012d61016a366004611b03565b610442565b61018261017d366004611bf7565b610488565b604051908152602001610153565b6101a361019e366004611c10565b61068b565b6040516101539190611c32565b6101826101be366004611c76565b6107a8565b61012d6101d1366004611bf7565b610a2c565b6101826101e4366004611ca0565b610c27565b6101a36101f7366004611c10565b610cd9565b61018261020a366004611cf5565b610e89565b61014261021d366004611bf7565b610f5c565b610235610230366004611d37565b610f7e565b604080519215158352602083019190915201610153565b61025f61025a366004611b50565b61111b565b6040516101539190611d73565b61012d61027a366004611e05565b61124a565b61029261028d366004611b50565b6112d1565b604051610153929190611e68565b6101a36102ae366004611c10565b611380565b6102926102c1366004611bf7565b611499565b6102926102d4366004611b50565b6114c5565b6102ec6102e7366004611bf7565b6114f2565b604051610153989796959493929190611e94565b61012d61030e366004611ee9565b6115cc565b61012d610321366004611cf5565b6116dc565b61025f61191d565b600160a060020a03821660009081526003602052604090206001016103538282611fb6565b50600080516020612308833981519152818360405161037392919061207b565b60405180910390a15050565b600460205260009081526040902080546001820180549192916103a190611f2d565b80601f01602080910402602001604051908101604052809291908181526020018280546103cd90611f2d565b801561041a5780601f106103ef5761010080835404028352916020019161041a565b820191906000526020600020905b8154815290600101906020018083116103fd57829003601f168201915b505050506002830154600384015460049094015492939092600160a060020a03909116915085565b600160a060020a0382166000908152600160208190526040909120016104688282611fb6565b506000805160206123088339815191528183604051610373929190612106565b60008060005b6008548110156105e0576014600882815481106104ad576104ad612147565b906000526020600020015411156104e65760646104cb85600a61217b565b6104d591906121ac565b6104df90856121c0565b91506104ea565b8391505b60005b6007548110156105cd5760506007838154811061050c5761050c612147565b9060005260206000200154111561054557606461052a86600a61217b565b61053491906121ac565b61053e90866121c0565b9250610549565b8492505b60005b6009548110156105ba5760016009848154811061056b5761056b612147565b906000526020600020015410156105a457606461058987600a61217b565b61059391906121ac565b61059d90876121c0565b93506105a8565b8593505b806105b2816121d3565b91505061054c565b50806105c5816121d3565b9150506104ed565b50806105d8816121d3565b91505061048e565b5060408051818152601581830152605d60020a7402a3432902334b730b61020b6b7bab73a1034b99d10260608201526020810183905290516000805160206123888339815191529181900360800190a1828103610684576000805160206122c883398151915260405161067b906020808252601190820152607a60020a7010dd5cdd1bdb49dcc815995c9a599a595902604082015260600190565b60405180910390a15b5090919050565b60608260005b8381101561074c5760076103e8836040516020016106b191815260200190565b60408051601f1981840301815291905280516020909101206106d391906121ec565b81546001810183556000928352602090922090910155816106f3816121d3565b9250506000805160206123a88339815191526007828154811061071857610718612147565b906000526020600020015460405161073291815260200190565b60405180910390a180610744816121d3565b915050610691565b50600780548060200260200160405190810160405280929190818152602001828054801561079957602002820191906000526020600020905b815481526020019060010190808311610785575b50505050509150505b92915050565b600033600160a060020a038416146107e45760405160e560020a62461bcd02815260206004820152600060248201526044015b60405180910390fd5b600160a060020a0383166000908152600460205260408120600a80549192918590811061081357610813612147565b906000526020600020906008020190506000805160206123a8833981519152816001015460405161084691815260200190565b60405180910390a183816001015414801561086957508060060154826004015410155b156109ba578060060154826004015461088291906121c0565b6004830155600084815260056020908152604091829020600101548251838152600e81850152609560020a6d0383937b23ab1ba1039b2b73a1d10260608201529182015290516000805160206123888339815191529181900360800190a1600080516020612388833981519152826004015460405161093191906040808252601090820152608560020a6f029ba37b1b5903932b6b0b4b732b21d1026060820152602081019190915260800190565b60405180910390a1600b805460ff191660011790556002820154600682015460009161095c9161217b565b9050600080516020612388833981519152816040516109a891906040808252600d90820152609d60020a6c020baba379030b6b7bab73a1d1026060820152602081019190915260800190565b60405180910390a192506107a2915050565b6000805160206122c8833981519152604051610a199060208082526026908201527f496e73756666696369656e74207175616e74697479206f722077726f6e672070604082015260d260020a651c9bd91d58dd02606082015260800190565b60405180910390a1506000949350505050565b80600103610b2e57604080518082019091526008815260c060020a675265642057696e650260208083019190915260016000526006905260008051602061236883398151915290610a7d9082611fb6565b50600160008190526006602052600a7f3e5fec24aa4dc4e5aee2e025e51e1392c72a2500577559fae9665c6d52bd6a338190557f3e5fec24aa4dc4e5aee2e025e51e1392c72a2500577559fae9665c6d52bd6a31919091557f3e5fec24aa4dc4e5aee2e025e51e1392c72a2500577559fae9665c6d52bd6a35556040516000805160206122e883398151915290610b239060008051602061236883398151915290612200565b60405180910390a150565b80600203610c245760408051808201909152600a815260b060020a6957686974652057696e650260208083019190915260026000526006905260008051602061234883398151915290610b819082611fb6565b50600260008190526006602052600f7f8819ef417987f8ae7a81f42cdfb18815282fe989326fbff903d13cf0e03ace2b557f8819ef417987f8ae7a81f42cdfb18815282fe989326fbff903d13cf0e03ace295560147f8819ef417987f8ae7a81f42cdfb18815282fe989326fbff903d13cf0e03ace2d556040516000805160206122e883398151915290610b239060008051602061234883398151915290612200565b50565b600080610c3688888888610e89565b9050610c44888883896116dc565b6000610c5089836107a8565b90506000805160206122c8833981519152604051610c98906020808252601390820152606a60020a7213dc99195c881a5cc818995a5b99c81cd95b9d02604082015260600190565b60405180910390a1610caa8585610cd9565b50610cb58585611380565b50610cc0858561068b565b50610ccd82898b846115cc565b50979650505050505050565b60608260005b83811015610e30576008606483604051602001610cfe91815260200190565b60408051601f198184030181529190528051602090910120610d2091906121ec565b8154600181018355600092835260209092209091015560088054600a919083908110610d4e57610d4e612147565b9060005260206000200154610d6391906121ec565b60088281548110610d7657610d76612147565b906000526020600020018190555060088181548110610d9757610d97612147565b90600052602060002001546003610dae919061217b565b60088281548110610dc157610dc1612147565b60009182526020909120015581610dd7816121d3565b9250506000805160206123a883398151915260088281548110610dfc57610dfc612147565b9060005260206000200154604051610e1691815260200190565b60405180910390a180610e28816121d3565b915050610cdf565b506008805480602002602001604051908101604052809291908181526020018280548015610799576020028201919060005260206000209081548152602001906001019080831161078557505050505091505092915050565b600160a060020a038481166000818152600160208181526040808420958916808552600383528185208754600160a060020a03199081169097178855805490961617855580518083018890528151808203840181528183018084528151918501919091208087526005909452828620948501849055600685018a9055829052600d6080820152609960020a6c2a3930b1b5b4b733903737971d0260a0820152606081018390529051939594939192916000805160206123888339815191529181900360c00190a150979650505050505050565b600660205260009081526040902080546001820180549192916103a190611f2d565b6000807f5813616fa050686de3ec35855bc691f51a9f5a2f7429d4d4940994adc5b1eb7c83604051610fda91906040808252600a9082015260b160020a6930b6b7bab73a1034b99d026060820152602081019190915260800190565b60405180910390a1821580156110075750600160a060020a03851660009081526020819052604090205483115b1561106457600080516020612328833981519152604051611051906020808252601290820152607060020a71696e73756666696369656e742066756e647302604082015260600190565b60405180910390a1506000905080611113565b600160a060020a0385166000908152602081905260408120805485929061108c9084906121c0565b9091555050600160a060020a038416600090815260208190526040812080548592906110b99084906122b4565b909155505060405160008051602061232883398151915290611104906020808252601290820152607260020a7114dd58d8d95cdcd99d5b081c185e5b595b9d02604082015260600190565b60405180910390a15060019050815b935093915050565b600160a060020a0381166000908152601360209081526040808320805482518185028101850190935280835260609492939192909184015b8282101561123f57838290600052602060002090600502016040518060a0016040529081600082015481526020016001820154815260200160028201548152602001600382015481526020016004820180546111ae90611f2d565b80601f01602080910402602001604051908101604052809291908181526020018280546111da90611f2d565b80156112275780601f106111fc57610100808354040283529160200191611227565b820191906000526020600020905b81548152906001019060200180831161120a57829003601f168201915b50505050508152505081526020019060010190611153565b505050509050919050565b6040805160a08101825286815260208082018781528284018781526060840187815260808501878152336000908152601386529687208054600181810183559189529590972086516005909602019485559251958401959095555160028301559251600382015591519091829160048201906112c69082611fb6565b505050505050505050565b60036020526000908152604090208054600182018054600160a060020a0390921692916112fd90611f2d565b80601f016020809104026020016040519081016040528092919081815260200182805461132990611f2d565b80156113765780601f1061134b57610100808354040283529160200191611376565b820191906000526020600020905b81548152906001019060200180831161135957829003601f168201915b5050505050905082565b60608260005b83811015611440576009600a836040516020016113a591815260200190565b60408051601f1981840301815291905280516020909101206113c791906121ec565b81546001810183556000928352602090922090910155816113e7816121d3565b9250506000805160206123a88339815191526009828154811061140c5761140c612147565b906000526020600020015460405161142691815260200190565b60405180910390a180611438816121d3565b915050611386565b506009805480602002602001604051908101604052809291908181526020018280548015610799576020028201919060005260206000209081548152602001906001019080831161078557505050505091505092915050565b60026020526000908152604090208054600182018054600160a060020a0390921692916112fd90611f2d565b600160208190526000918252604090912080549181018054600160a060020a03909316926112fd90611f2d565b60056020526000908152604090208054600182015460028301805460ff90931693919261151e90611f2d565b80601f016020809104026020016040519081016040528092919081815260200182805461154a90611f2d565b80156115975780601f1061156c57610100808354040283529160200191611597565b820191906000526020600020905b81548152906001019060200180831161157a57829003601f168201915b505050600384015460048501546005860154600687015460079097015495969295600160a060020a0392831695509116925088565b6000848152600560205260409020600b5460ff16151560011461160e5760405160e560020a62461bcd02815260206004820152600060248201526044016107db565b848160010154036116d5576000805160206122c883398151915260405161165c906020808252601090820152608260020a6f141c9bd91d58dd081c9958d95a5d995902604082015260600190565b60405180910390a1600061166f83610488565b905061167c858583610f7e565b50506000805160206122c88339815191526040516116cb906020808252601b908201527f5061796d656e742073656e74206279206469737472696275746f720000000000604082015260600190565b60405180910390a1505b5050505050565b6000805160206122c88339815191526040516117399060208082526024908201527f4f7264657220686173206265656e20706c616365642062792064697374726962604082015260e160020a633aba37b902606082015260800190565b60405180910390a161177c6040518060a001604052806000815260200160608152602001600081526020016000600160a060020a03168152602001600081525090565b8060200151600a848154811061179457611794612147565b906000526020600020906008020160020190816117b19190611fb6565b5082600a84815481106117c6576117c6612147565b60009182526020909120600160089092020101558051600a8054859081106117f0576117f0612147565b90600052602060002090600802016003018190555083600a848154811061181957611819612147565b906000526020600020906008020160040160006101000a815481600160a060020a030219169083600160a060020a0316021790555084600a848154811061186257611862612147565b906000526020600020906008020160050160006101000a815481600160a060020a030219169083600160a060020a0316021790555081600a84815481106118ab576118ab612147565b9060005260206000209060080201600601819055506000805160206123a8833981519152600a84815481106118e2576118e2612147565b90600052602060002090600802016001015460405161190391815260200190565b60405180910390a161191585846107a8565b505050505050565b336000908152601360209081526040808320805482518185028101850190935280835260609492939192909184015b82821015611a3857838290600052602060002090600502016040518060a0016040529081600082015481526020016001820154815260200160028201548152602001600382015481526020016004820180546119a790611f2d565b80601f01602080910402602001604051908101604052809291908181526020018280546119d390611f2d565b8015611a205780601f106119f557610100808354040283529160200191611a20565b820191906000526020600020905b815481529060010190602001808311611a0357829003601f168201915b5050505050815250508152602001906001019061194c565b50505050905090565b8035600160a060020a0381168114611a5857600080fd5b919050565b60e060020a634e487b710260009081526041600452602490fd5b600082601f830112611a8857600080fd5b81356001604060020a0380821115611aa257611aa2611a5d565b604051601f8301601f19908116603f01168101908282118183101715611aca57611aca611a5d565b81604052838152866020858801011115611ae357600080fd5b836020870160208301376000602085830101528094505050505092915050565b60008060408385031215611b1657600080fd5b611b1f83611a41565b915060208301356001604060020a03811115611b3a57600080fd5b611b4685828601611a77565b9150509250929050565b600060208284031215611b6257600080fd5b611b6b82611a41565b9392505050565b6000815180845260005b81811015611b9857602081850181015186830182015201611b7c565b506000602082860101526020601f19601f83011685010191505092915050565b85815260a060208201526000611bd160a0830187611b72565b604083019590955250600160a060020a0392909216606083015260809091015292915050565b600060208284031215611c0957600080fd5b5035919050565b60008060408385031215611c2357600080fd5b50508035926020909101359150565b6020808252825182820181905260009190848201906040850190845b81811015611c6a57835183529284019291840191600101611c4e565b50909695505050505050565b60008060408385031215611c8957600080fd5b611c9283611a41565b946020939093013593505050565b60008060008060008060c08789031215611cb957600080fd5b611cc287611a41565b9550611cd060208801611a41565b95989597505050506040840135936060810135936080820135935060a0909101359150565b60008060008060808587031215611d0b57600080fd5b611d1485611a41565b9350611d2260208601611a41565b93969395505050506040820135916060013590565b600080600060608486031215611d4c57600080fd5b611d5584611a41565b9250611d6360208501611a41565b9150604084013590509250925092565b60208082528251828201819052600091906040908185019080840286018301878501865b83811015611df757888303603f19018552815180518452878101518885015286810151878501526060808201519085015260809081015160a091850182905290611de381860183611b72565b968901969450505090860190600101611d97565b509098975050505050505050565b600080600080600060a08688031215611e1d57600080fd5b8535945060208601359350604086013592506060860135915060808601356001604060020a03811115611e4f57600080fd5b611e5b88828901611a77565b9150509295509295909350565b600160a060020a0383168152604060208201819052600090611e8c90830184611b72565b949350505050565b60006101008a15158352896020840152806040840152611eb68184018a611b72565b60608401989098525050600160a060020a0394851660808201529290931660a083015260c082015260e001529392505050565b60008060008060808587031215611eff57600080fd5b84359350611f0f60208601611a41565b9250611f1d60408601611a41565b9396929550929360600135925050565b600281046001821680611f4157607f821691505b602082108103611f655760e060020a634e487b710260009081526022600452602490fd5b50919050565b601f821115611fb1576000818152602081206020601f86010481016020861015611f925750805b6020601f860104820191505b8181101561191557828155600101611f9e565b505050565b81516001604060020a03811115611fcf57611fcf611a5d565b611fe381611fdd8454611f2d565b84611f6b565b602080601f83116001811461201c57600084156120005750858301515b60028086026008870290910a6000190419821617865550611915565b600085815260208120601f198616915b8281101561204b5788860151825594840194600190910190840161202c565b508582101561206b57878501516008601f88160260020a60001904191681555b5050505050600202600101905550565b6080815260176080820152604d60020a7603234b9ba3934b13aba37b9103bb4ba34103730b6b29d10260a082015260c0602082015260006120bf60c0830185611b72565b82810360408401526120ed81600c815260a160020a6b30b7321030b2323932b9b99d02602082015260400190565b915050600160a060020a03831660608301529392505050565b6080815260146080820152606560020a730383937b23ab1b2b9103bb4ba34103730b6b29d10260a082015260c0602082015260006120bf60c0830185611b72565b60e060020a634e487b710260009081526032600452602490fd5b60e060020a634e487b710260009081526011600452602490fd5b80820281158282048414176107a2576107a2612161565b60e060020a634e487b710260009081526012600452602490fd5b6000826121bb576121bb612192565b500490565b818103818111156107a2576107a2612161565b6000600182016121e5576121e5612161565b5060010190565b6000826121fb576121fb612192565b500690565b60408152600f6040820152608d60020a6e0283937b23ab1ba1030b23232b21d1026060820152600060206080818401526000845461223d81611f2d565b80608087015260a060018084166000811461225f5760018114612278576122a6565b60ff1985168984015283151587028901830195506122a6565b896000528660002060005b8581101561229e5781548b8201860152908301908801612283565b8a0184019650505b509398975050505050505050565b808201808211156107a2576107a261216156fedd3992ab811c00ec01b51eb1e5cdde3ea345d77c6b3edb790710a46f696631a14d709b4bdf6932113001238501ce4e50b52f518c7f0d64c1e45fabe9a50baf388396392da1b5a882be9ee6fbe49517ea3e7153902dec4c01984e8edcd87b0705b6871ef893adcf210ef23c8a5897b726ecccd2ec16b829b33217e50da5832fb98819ef417987f8ae7a81f42cdfb18815282fe989326fbff903d13cf0e03ace2a3e5fec24aa4dc4e5aee2e025e51e1392c72a2500577559fae9665c6d52bd6a3273d9f7a85e373e3d2ab325c69eca7fdfb9815c23a01e19a369b227e3fcec17f15dcfb4fa29f6237d65e4072a4337cd02c2f31b49da269ee511b613e22d25e314a2646970667358221220786392d7ce96b12c222ed513afceff0348e461b9ff22693cb5f1a9755046347964736f6c63430008120033",
  "immutableReferences": {},
  "source": "// SPDX-License-Identifier: CC-BY-4.0\r\npragma solidity >=0.4.22 <0.9.0;\r\n\r\nimport \"./Transport.sol\";\r\n\r\ncontract Driver is Transport {\r\n\r\n    struct Tracking {\r\n        uint    trackingNo;\r\n        uint256 latitude;\r\n        uint256 longitude;\r\n        uint256 epoch;\r\n        string  memo; // driver notes, rest status, or other updates?\r\n    }\r\n\r\n    mapping (address => Tracking[]) logs;\r\n\r\n    function drive(address _produceraddr, address _distaddr, uint _quantity, uint _prodID, uint no,uint hrs)\r\n        public\r\n        returns (uint)\r\n    {\r\n        //this should return tracking no.\r\n        uint _trackingNo = createOrderByDistributor(_produceraddr,_distaddr,_quantity, _prodID);\r\n\r\n        sendOrderByDistributor(_produceraddr,_distaddr,_trackingNo,_quantity);\r\n\r\n        //this return calculated amount\r\n        uint _amount = acceptOrderByProducer(_produceraddr,_trackingNo);\r\n        emit TransportMessage(\"Order is being sent\");\r\n        randomtemperature(no,  hrs);\r\n        randomaccelerometer(no,hrs);\r\n        randomluminosity(no,hrs);\r\n        acceptOrderByDistributor(_trackingNo,_distaddr,_produceraddr,_amount);\r\n        return _trackingNo;\r\n    }\r\n\r\n    function updateTrackingPosition(uint trackingNo, uint256 latitude, uint256 longitude, uint256 epoch, string memory memo)\r\n        public\r\n    {\r\n        Tracking memory location = Tracking(trackingNo, latitude, longitude, epoch, memo);\r\n        logs[msg.sender].push(location);\r\n    }\r\n\r\n    function getLogs()\r\n        public\r\n        view\r\n        returns (Tracking[] memory)\r\n    {\r\n        return logs[msg.sender];\r\n    }\r\n\r\n    function getDriverLogs(address driver)\r\n        public\r\n        view\r\n        returns (Tracking[] memory)\r\n    {\r\n        return logs[driver];\r\n    }\r\n}\r\n",
  "sourcePath": "/Volumes/My Book/projects/pingleware-contracts/contracts/transportation/Driver.sol",
  "compiler": {
    "name": "solc",
    "version": "0.8.18+commit.87f61d96.Emscripten.clang"
  },
  "schemaVersion": "3.4.12",
  "updatedAt": "2023-10-24T12:20:49.540Z",
  "networkType": "ethereum",
  "devdoc": {
    "kind": "dev",
    "methods": {},
    "version": 1
  },
  "userdoc": {
    "kind": "user",
    "methods": {},
    "version": 1
  }
}