{
  "contractName": "Driver",
  "abi": [
    {
      "anonymous": false,
      "inputs": [
        {
          "indexed": false,
          "internalType": "string",
          "name": "message",
          "type": "string"
        },
        {
          "indexed": false,
          "internalType": "uint256",
          "name": "amount",
          "type": "uint256"
        }
      ],
      "name": "PaymentInfo",
      "type": "event"
    },
    {
      "anonymous": false,
      "inputs": [
        {
          "indexed": false,
          "internalType": "string",
          "name": "message",
          "type": "string"
        }
      ],
      "name": "PaymentMessage",
      "type": "event"
    },
    {
      "anonymous": false,
      "inputs": [
        {
          "indexed": false,
          "internalType": "string",
          "name": "_message",
          "type": "string"
        },
        {
          "indexed": false,
          "internalType": "uint256",
          "name": "_trackingNo",
          "type": "uint256"
        }
      ],
      "name": "TransportInfo",
      "type": "event"
    },
    {
      "anonymous": false,
      "inputs": [
        {
          "indexed": false,
          "internalType": "string",
          "name": "message",
          "type": "string"
        }
      ],
      "name": "TransportMessage",
      "type": "event"
    },
    {
      "anonymous": false,
      "inputs": [
        {
          "indexed": false,
          "internalType": "string",
          "name": "message",
          "type": "string"
        },
        {
          "indexed": false,
          "internalType": "string",
          "name": "m1",
          "type": "string"
        }
      ],
      "name": "TransportMessage1",
      "type": "event"
    },
    {
      "anonymous": false,
      "inputs": [
        {
          "indexed": false,
          "internalType": "string",
          "name": "s1",
          "type": "string"
        },
        {
          "indexed": false,
          "internalType": "string",
          "name": "s2",
          "type": "string"
        },
        {
          "indexed": false,
          "internalType": "string",
          "name": "s3",
          "type": "string"
        },
        {
          "indexed": false,
          "internalType": "address",
          "name": "s4",
          "type": "address"
        }
      ],
      "name": "add",
      "type": "event"
    },
    {
      "anonymous": false,
      "inputs": [
        {
          "indexed": false,
          "internalType": "uint256",
          "name": "value",
          "type": "uint256"
        }
      ],
      "name": "pop",
      "type": "event"
    },
    {
      "inputs": [
        {
          "internalType": "uint256",
          "name": "_trackingNo",
          "type": "uint256"
        },
        {
          "internalType": "address",
          "name": "_distaddr",
          "type": "address"
        },
        {
          "internalType": "address",
          "name": "_produceraddr",
          "type": "address"
        },
        {
          "internalType": "uint256",
          "name": "_amount",
          "type": "uint256"
        }
      ],
      "name": "acceptOrderByDistributor",
      "outputs": [],
      "stateMutability": "nonpayable",
      "type": "function"
    },
    {
      "inputs": [
        {
          "internalType": "address",
          "name": "_produceraddr",
          "type": "address"
        },
        {
          "internalType": "uint256",
          "name": "_trackingNo",
          "type": "uint256"
        }
      ],
      "name": "acceptOrderByProducer",
      "outputs": [
        {
          "internalType": "uint256",
          "name": "",
          "type": "uint256"
        }
      ],
      "stateMutability": "nonpayable",
      "type": "function"
    },
    {
      "inputs": [
        {
          "internalType": "address",
          "name": "_distaddr",
          "type": "address"
        },
        {
          "internalType": "string",
          "name": "_name",
          "type": "string"
        }
      ],
      "name": "addDistributor",
      "outputs": [],
      "stateMutability": "nonpayable",
      "type": "function"
    },
    {
      "inputs": [
        {
          "internalType": "address",
          "name": "_produceraddr",
          "type": "address"
        },
        {
          "internalType": "string",
          "name": "_name",
          "type": "string"
        }
      ],
      "name": "addProducer",
      "outputs": [],
      "stateMutability": "nonpayable",
      "type": "function"
    },
    {
      "inputs": [
        {
          "internalType": "uint256",
          "name": "_prodID",
          "type": "uint256"
        }
      ],
      "name": "addProduct",
      "outputs": [],
      "stateMutability": "nonpayable",
      "type": "function"
    },
    {
      "inputs": [
        {
          "internalType": "uint256",
          "name": "_amount",
          "type": "uint256"
        }
      ],
      "name": "checkprice",
      "outputs": [
        {
          "internalType": "uint256",
          "name": "",
          "type": "uint256"
        }
      ],
      "stateMutability": "nonpayable",
      "type": "function"
    },
    {
      "inputs": [
        {
          "internalType": "address",
          "name": "_produceraddr",
          "type": "address"
        },
        {
          "internalType": "address",
          "name": "_distaddr",
          "type": "address"
        },
        {
          "internalType": "uint256",
          "name": "_quantity",
          "type": "uint256"
        },
        {
          "internalType": "uint256",
          "name": "_prodID",
          "type": "uint256"
        }
      ],
      "name": "createOrderByDistributor",
      "outputs": [
        {
          "internalType": "uint256",
          "name": "",
          "type": "uint256"
        }
      ],
      "stateMutability": "nonpayable",
      "type": "function"
    },
    {
      "inputs": [
        {
          "internalType": "address",
          "name": "",
          "type": "address"
        }
      ],
      "name": "distributor",
      "outputs": [
        {
          "internalType": "address",
          "name": "distaddr",
          "type": "address"
        },
        {
          "internalType": "string",
          "name": "distname",
          "type": "string"
        }
      ],
      "stateMutability": "view",
      "type": "function"
    },
    {
      "inputs": [
        {
          "internalType": "address",
          "name": "_from",
          "type": "address"
        },
        {
          "internalType": "address",
          "name": "_to",
          "type": "address"
        },
        {
          "internalType": "uint256",
          "name": "_amount",
          "type": "uint256"
        }
      ],
      "name": "makePayment",
      "outputs": [
        {
          "internalType": "bool",
          "name": "",
          "type": "bool"
        },
        {
          "internalType": "uint256",
          "name": "",
          "type": "uint256"
        }
      ],
      "stateMutability": "nonpayable",
      "type": "function"
    },
    {
      "inputs": [
        {
          "internalType": "uint256",
          "name": "",
          "type": "uint256"
        }
      ],
      "name": "pro",
      "outputs": [
        {
          "internalType": "uint256",
          "name": "prodID",
          "type": "uint256"
        },
        {
          "internalType": "string",
          "name": "prodname",
          "type": "string"
        },
        {
          "internalType": "uint256",
          "name": "pricePerUnit",
          "type": "uint256"
        },
        {
          "internalType": "address",
          "name": "produceraddr",
          "type": "address"
        },
        {
          "internalType": "uint256",
          "name": "stock",
          "type": "uint256"
        }
      ],
      "stateMutability": "view",
      "type": "function"
    },
    {
      "inputs": [
        {
          "internalType": "address",
          "name": "",
          "type": "address"
        }
      ],
      "name": "producer",
      "outputs": [
        {
          "internalType": "address",
          "name": "produceraddr",
          "type": "address"
        },
        {
          "internalType": "string",
          "name": "producername",
          "type": "string"
        }
      ],
      "stateMutability": "view",
      "type": "function"
    },
    {
      "inputs": [
        {
          "internalType": "address",
          "name": "",
          "type": "address"
        }
      ],
      "name": "product",
      "outputs": [
        {
          "internalType": "uint256",
          "name": "prodID",
          "type": "uint256"
        },
        {
          "internalType": "string",
          "name": "prodname",
          "type": "string"
        },
        {
          "internalType": "uint256",
          "name": "pricePerUnit",
          "type": "uint256"
        },
        {
          "internalType": "address",
          "name": "produceraddr",
          "type": "address"
        },
        {
          "internalType": "uint256",
          "name": "stock",
          "type": "uint256"
        }
      ],
      "stateMutability": "view",
      "type": "function"
    },
    {
      "inputs": [
        {
          "internalType": "uint256",
          "name": "",
          "type": "uint256"
        }
      ],
      "name": "prostock",
      "outputs": [
        {
          "internalType": "address",
          "name": "produceraddr",
          "type": "address"
        },
        {
          "internalType": "string",
          "name": "producername",
          "type": "string"
        }
      ],
      "stateMutability": "view",
      "type": "function"
    },
    {
      "inputs": [
        {
          "internalType": "uint256",
          "name": "no",
          "type": "uint256"
        },
        {
          "internalType": "uint256",
          "name": "hrs",
          "type": "uint256"
        }
      ],
      "name": "randomaccelerometer",
      "outputs": [
        {
          "internalType": "uint256[]",
          "name": "",
          "type": "uint256[]"
        }
      ],
      "stateMutability": "nonpayable",
      "type": "function"
    },
    {
      "inputs": [
        {
          "internalType": "uint256",
          "name": "no",
          "type": "uint256"
        },
        {
          "internalType": "uint256",
          "name": "hrs",
          "type": "uint256"
        }
      ],
      "name": "randomluminosity",
      "outputs": [
        {
          "internalType": "uint256[]",
          "name": "",
          "type": "uint256[]"
        }
      ],
      "stateMutability": "nonpayable",
      "type": "function"
    },
    {
      "inputs": [
        {
          "internalType": "uint256",
          "name": "no",
          "type": "uint256"
        },
        {
          "internalType": "uint256",
          "name": "hrs",
          "type": "uint256"
        }
      ],
      "name": "randomtemperature",
      "outputs": [
        {
          "internalType": "uint256[]",
          "name": "",
          "type": "uint256[]"
        }
      ],
      "stateMutability": "nonpayable",
      "type": "function"
    },
    {
      "inputs": [
        {
          "internalType": "address",
          "name": "_produceraddr",
          "type": "address"
        },
        {
          "internalType": "address",
          "name": "_distaddr",
          "type": "address"
        },
        {
          "internalType": "uint256",
          "name": "_trackingNo",
          "type": "uint256"
        },
        {
          "internalType": "uint256",
          "name": "_quantity",
          "type": "uint256"
        }
      ],
      "name": "sendOrderByDistributor",
      "outputs": [],
      "stateMutability": "nonpayable",
      "type": "function"
    },
    {
      "inputs": [
        {
          "internalType": "uint256",
          "name": "",
          "type": "uint256"
        }
      ],
      "name": "trackingorder",
      "outputs": [
        {
          "internalType": "bool",
          "name": "flag",
          "type": "bool"
        },
        {
          "internalType": "uint256",
          "name": "trackingNo",
          "type": "uint256"
        },
        {
          "internalType": "string",
          "name": "prodname",
          "type": "string"
        },
        {
          "internalType": "uint256",
          "name": "prodID",
          "type": "uint256"
        },
        {
          "internalType": "address",
          "name": "distaddr",
          "type": "address"
        },
        {
          "internalType": "address",
          "name": "produceraddr",
          "type": "address"
        },
        {
          "internalType": "uint256",
          "name": "quantity",
          "type": "uint256"
        },
        {
          "internalType": "uint256",
          "name": "amount",
          "type": "uint256"
        }
      ],
      "stateMutability": "view",
      "type": "function"
    },
    {
      "inputs": [
        {
          "internalType": "address",
          "name": "_produceraddr",
          "type": "address"
        },
        {
          "internalType": "address",
          "name": "_distaddr",
          "type": "address"
        },
        {
          "internalType": "uint256",
          "name": "_quantity",
          "type": "uint256"
        },
        {
          "internalType": "uint256",
          "name": "_prodID",
          "type": "uint256"
        },
        {
          "internalType": "uint256",
          "name": "no",
          "type": "uint256"
        },
        {
          "internalType": "uint256",
          "name": "hrs",
          "type": "uint256"
        }
      ],
      "name": "drive",
      "outputs": [
        {
          "internalType": "uint256",
          "name": "",
          "type": "uint256"
        }
      ],
      "stateMutability": "nonpayable",
      "type": "function"
    },
    {
      "inputs": [
        {
          "internalType": "uint256",
          "name": "trackingNo",
          "type": "uint256"
        },
        {
          "internalType": "uint256",
          "name": "latitude",
          "type": "uint256"
        },
        {
          "internalType": "uint256",
          "name": "longitude",
          "type": "uint256"
        },
        {
          "internalType": "uint256",
          "name": "epoch",
          "type": "uint256"
        },
        {
          "internalType": "string",
          "name": "memo",
          "type": "string"
        }
      ],
      "name": "updateTrackingPosition",
      "outputs": [],
      "stateMutability": "nonpayable",
      "type": "function"
    },
    {
      "inputs": [],
      "name": "getLogs",
      "outputs": [
        {
          "components": [
            {
              "internalType": "uint256",
              "name": "trackingNo",
              "type": "uint256"
            },
            {
              "internalType": "uint256",
              "name": "latitude",
              "type": "uint256"
            },
            {
              "internalType": "uint256",
              "name": "longitude",
              "type": "uint256"
            },
            {
              "internalType": "uint256",
              "name": "epoch",
              "type": "uint256"
            },
            {
              "internalType": "string",
              "name": "memo",
              "type": "string"
            }
          ],
          "internalType": "struct Driver.Tracking[]",
          "name": "",
          "type": "tuple[]"
        }
      ],
      "stateMutability": "view",
      "type": "function"
    },
    {
      "inputs": [
        {
          "internalType": "address",
          "name": "driver",
          "type": "address"
        }
      ],
      "name": "getDriverLogs",
      "outputs": [
        {
          "components": [
            {
              "internalType": "uint256",
              "name": "trackingNo",
              "type": "uint256"
            },
            {
              "internalType": "uint256",
              "name": "latitude",
              "type": "uint256"
            },
            {
              "internalType": "uint256",
              "name": "longitude",
              "type": "uint256"
            },
            {
              "internalType": "uint256",
              "name": "epoch",
              "type": "uint256"
            },
            {
              "internalType": "string",
              "name": "memo",
              "type": "string"
            }
          ],
          "internalType": "struct Driver.Tracking[]",
          "name": "",
          "type": "tuple[]"
        }
      ],
      "stateMutability": "view",
      "type": "function"
    }
  ],
  "bytecode": "0x6080806040523461001657611f69908161001c8239f35b600080fdfe60406080815260048036101561001457600080fd5b600060e060020a813504631214d2fd8114610b8457806317f7dad814610b26578063274f97c61461096f5780632b69bae81461094e5780633024b810146109315780633261154c14610908578063327a48cc146107f057806343e999961461073057806349163513146107135780636f135601146106ed578063724b2b0c1461069757806387e660d314610659578063cd95c8e314610596578063dd4742b5146103da578063e074839e14610399578063e29cefb314610371578063ee81ec4314610331578063f198c039146102e6578063f63c307514610247578063f67a5d2514610202578063f7e6500c146101e45763fe290ccb1461011457600080fd5b346101e157806003193601126101e1573381526013602090815283822080549291906001604060020a0384116101cb5791855194610156838087020187610d68565b84865282860193825282822091935b85851061017d57875180610179898261100a565b0390f35b6005846001928a5161018e81610d18565b86548152848701548382015260028701548c820152600387015460608201526101b8868801610e62565b6080820152815201930194019391610165565b60e060020a634e487b7102835260418552602483fd5b80fd5b50346101e1576101ff6101f636610fd1565b9291909161148d565b80f35b5090346102435760803660031901126102435761021d610d02565b90604435600160a060020a038116810361023f576101ff926064359235611be7565b8380fd5b5080fd5b508290346101e15760203660031901126101e1578190833581526005602052209160ff8354169160018401549361028060028201610e62565b6003820154936102c8600160a060020a03809285015416916005850154169260076006860154950154958051998a9915158a5260208a015261010080918a0152880190610f07565b946060870152608086015260a085015260c084015260e08301520390f35b8382346101e15760203660031901126101e1576101796103266001848160a060020a039485610313610ce7565b1681528260205220938454169301610e62565b92519283928361109c565b5091903461036d57602036600319011261036d573582526002602052908190208054600160a060020a0316906101799061032690600101610e62565b8280fd5b508234610243576101799061038e61038836610f80565b90611a37565b905191829182610f96565b8382346101e15760203660031901126101e1576101796103266001848160a060020a0394856103c6610ce7565b168152600360205220938454169301610e62565b5082346102435760a0366003190112610243576001604060020a0360843581811161023f5761040c9036908601610d8b565b9180519061041982610d18565b8535825260209182810191602435835280820160443581526060830191606435835260808401978852338952601386528820938454604060020a8110156105805760019586820180825582101561056a57908b95949392918b526005888c2091020193518455518584015551600283015551600382015501935195865193841161055457506104b2836104ac8654610e23565b86611119565b81601f84116001146104ef5750508394829394926104e4575b5050816002029160080260020a60001904191617905580f35b0151905084806104cb565b909291601f198316968587528287209287905b89821061053d5750508360029596979810610522575b5050500201905580f35b01516008601f841602840a6000190419169055858080610518565b808785968294968601518155019501930190610502565b60e060020a634e487b7102865260419052602485fd5b60e060020a634e487b71028b5260328c5260248bfd5b60e060020a634e487b71028a5260418b5260248afd5b50346101e157602090816003193601126101e157600160a060020a036105ba610ce7565b16815260138252838120805492906001604060020a0384116101cb57918551946105e8838087020187610d68565b84865282860193825282822091935b85851061060b57875180610179898261100a565b6005846001928a5161061c81610d18565b86548152848701548382015260028701548c82015260038701546060820152610646868801610e62565b60808201528152019301940193916105f7565b8382346101e15760603660031901126101e15750610689610678610ce7565b610680610d02565b60443591611185565b825191151582526020820152f35b508290346101e15760203660031901126101e157816101799184358152600660205220918254926106ca60018201610e62565b94600282015490600160a060020a03600384015416920154925195869586610f47565b5082346102435760209061070c61070336610fd1565b929190916113a3565b9051908152f35b508234610243576101799061038e61072a36610f80565b906118f1565b5082346102435760c03660031901126102435760209061074e610ce7565b906107ea61075a610d02565b60443593608435916107e360a4356107826107796064358a86886113a3565b9889858761148d565b61078c88856116db565b94600080516020611e74833981519152606089518c815260138d820152606a60020a7213dc99195c881a5cc818995a5b99c81cd95b9d028b820152a16107d282826118f1565b506107dd8282611a37565b50611b18565b5085611be7565b51908152f35b5091903461036d57602036600319011261036d576001908035828103610883575061087d600080516020611e94833981519152938386526006602052838187200161084461083e8254610e23565b826110f2565b601060c060020a675265642057696e65020190558386526006602052600a818720938160028601558585558401555192839201826112e0565b0390a180f35b600214610891575b50505080f35b6108fd600080516020611e948339815191529360028652600660205283818720016108bf61083e8254610e23565b601460b060020a6957686974652057696e6502019055600286526006602052601481872093600f6002860155600285558401555192839201826112e0565b0390a138808061088b565b50823461024357806003193601126102435760209061070c610928610ce7565b602435906116db565b508234610243576101799061038e61094836610f80565b90611b18565b508290346101e15760203660031901126101e1575061070c60209235611ca5565b5090346102435761097f36610de1565b600160a060020a03909116808452600160208181528686208451949791959394919390830192906001604060020a038311610b1057506109c9826109c38554610e23565b85611119565b8590601f8311600114610a9257508697610a7b938360c098979694610a5194600080516020611eb48339815191529b91610a87575b50816002029160080260020a6000190419161790555b82519687966080885260146080890152606560020a730383937b23ab1b2b9103bb4ba34103730b6b29d10260a089015287015260c0860190610f07565b9084820390850152600c815260a160020a6b30b7321030b2323932b9b99d02602082015260400190565b9060608301520390a180f35b9050830151386109fe565b838852868820909291601f198316895b818110610afb575093600284600080516020611eb48339815191529b9c94610a7b9894610a519760c09d9c9b9910610ae0575b505002019055610a14565b8601516008601f841602840a60001904191690553880610ad5565b8b830151845592850192918901918901610aa2565b60e060020a634e487b7102885260419052602487fd5b50823461024357602036600319011261024357600160a060020a03916101799190819084610b52610ce7565b1681528560205220805493610b6960018301610e62565b95600283015491600384015416920154925195869586610f47565b50903461024357610b9436610de1565b9390600160a060020a031690818452602092600384526001908183872001918751916001604060020a038311610b105750610bd3826109c38554610e23565b8590601f8311600114610c6957508697610a7b938360c098979694610a5194600080516020611eb48339815191529b91610c5e575b50816002029160080260020a6000190419161790555b82519687966080885260176080890152604d60020a7603234b9ba3934b13aba37b9103bb4ba34103730b6b29d10260a089015287015260c0860190610f07565b905083015138610c08565b838852868820909291601f198316895b818110610cd2575093600284600080516020611eb48339815191529b9c94610a7b9894610a519760c09d9c9b9910610cb7575b505002019055610c1e565b8601516008601f841602840a60001904191690553880610cac565b8b830151845592850192918901918901610c79565b60043590600160a060020a0382168203610cfd57565b600080fd5b60243590600160a060020a0382168203610cfd57565b60a081019081106001604060020a03821117610d3357604052565b60e060020a634e487b710260009081526041600452602490fd5b604081019081106001604060020a03821117610d3357604052565b601f909101601f19168101906001604060020a03821190821017610d3357604052565b81601f82011215610cfd578035906001604060020a038211610d335760405192610dbf601f8401601f191660200185610d68565b82845260208383010111610cfd57816000926020809301838601378301015290565b906040600319830112610cfd57600435600160a060020a0381168103610cfd5791602435906001604060020a038211610cfd57610e2091600401610d8b565b90565b9060016002830492168015610e58575b6020831014610e3e57565b60e060020a634e487b710260009081526022600452602490fd5b91607f1691610e33565b9060405191826000825492610e7684610e23565b908184526001948581169081600014610ee55750600114610ea2575b5050610ea092500383610d68565b565b9093915060005260209081600020936000915b818310610ecd575050610ea093508201013880610e92565b85548884018501529485019487945091830191610eb5565b915050610ea094506020925060ff191682840152151581028201013880610e92565b919082519283825260005b848110610f33575050826000602080949584010152601f8019910116010190565b602081830181015184830182015201610f12565b91610f669060809497969592845260a0602085015260a0840190610f07565b6040830196909652600160a060020a031660608201520152565b6040906003190112610cfd576004359060243590565b6020908160408183019282815285518094520193019160005b828110610fbd575050505090565b835185529381019392810192600101610faf565b6080906003190112610cfd57600160a060020a03906004358281168103610cfd57916024359081168103610cfd57906044359060643590565b602080820190808352835180925260409283810182858186028401019601946000925b85841061103e575050505050505090565b90919293949596858061108b600193603f198682030188528b518051825283810151848301528781015188830152606080820151908301526080809101519160a080928201520190610f07565b99019401940192959493919061102d565b600160a060020a039091168152604060208201819052610e2092910190610f07565b919060088354910260020a91826000039283910216911916179055565b8181106110e6575050565b600081556001016110db565b90601f81116110ff575050565b610ea0916000526020601f816000209201048101906110db565b9190601f811161112857505050565b610ea092600052602060002090602080601f85010483019310611154575b601f602091010401906110db565b9091508190611146565b9190820391821161116b57565b60e060020a634e487b710260009081526011600452602490fd5b929192604090815192828452600a8385015260b160020a6930b6b7bab73a1034b99d0260608501527f5813616fa050686de3ec35855bc691f51a9f5a2f7429d4d4940994adc5b1eb7c60806020958887820152a18515806112c2575b61127a57600160a060020a03908160009316835282855283832061120688825461115e565b90551681528083528181208054918683018093116112635750606092600080516020611ed48339815191529492607260020a7114dd58d8d95cdcd99d5b081c185e5b595b9d0292556012815193808552840152820152a160019190565b60e060020a634e487b710281526011600452602490fd5b5050600080516020611ed483398151915292935090607060020a71696e73756666696369656e742066756e6473028260126060945193808552840152820152a1600090600090565b50600160a060020a03821660009081528085528390205486116111e1565b9060408252600f6040830152608d60020a6e0283937b23ab1ba1030b23232b21d1026060830152602091608083820152600092825461131e81610e23565b9384608085015260019182811690816000146113805750600114611345575b505050505090565b6000908152828120949550935b85851061136c5750505060a092500101388080808061133d565b805485850160a00152938201938101611352565b9250505060a0945060ff939192931916848401521515020101388080808061133d565b600080516020611ef48339815191529293608092600160a060020a03809316956006600093888552602093600185526040998a978888209216908188526003875288882092600160a060020a03199182825416179055825416179055855184810191825284815261141381610d4d565b51902097848980965260058552208460018201550155600d835193808552840152609960020a6c2a3930b1b5b4b733903737971d026060840152820152a190565b600a5481101561147357600a6000526008602060002091020190600090565b60e060020a634e487b710260009081526032600452602490fd5b909392604051946020958681526024878201527f4f7264657220686173206265656e20706c6163656420627920646973747269626040820152600080516020611e74833981519152608060609260e160020a633aba37b90284820152a1604051906114f782610d18565b60009081835280898401528160408401528181840152816080840152600261151e88611454565b50825191019290916001604060020a03831161169b57611542836104ac8654610e23565b8a91601f841160011461161e57926116109a9b9694928192600080516020611f1483398151915299979592611613575b5050816002029160080260020a6000190419161790555b86600161159582611454565b5001555160036115a488611454565b50015560046115b287611454565b50018054600160a060020a0319908116600160a060020a039384161790915560056115dc88611454565b50019186169082541617905560066115f386611454565b500155600161160185611454565b500154604051908152a16116db565b50565b015190503880611572565b9190601f1984168584528c8420935b8181106116845750936116109b9c97959360019360029383600080516020611f148339815191529c9a9810611669575b50505002019055611589565b01516008601f841602840a600019041916905538808061165d565b92938d60018192878601518155019501930161162d565b60e060020a634e487b710282526041600452602482fd5b156116b957565b60405160e560020a62461bcd0281526020600482015260006024820152604490fd5b600160a060020a0316906116f03383146116b2565b60009182526020600481526040908184209261170b81611454565b5090806001830154600080516020611f14833981519152858751838152a1148061187f575b1561182457849591600291600460809701906117546006835494019384549061115e565b809255845260058552866001878620015491875192888452600e89850152609560020a6d0383937b23ab1ba1039b2b73a1d102606085015287840152600080516020611ef483398151915280998194a1875190888252601089830152608560020a6f029ba37b1b5903932b6b0b4b732b21d102606083015287820152a1600160ff19600b541617600b55549501549485810295818704149015171561126357509083608092600d835193808552840152609d60020a6c020baba379030b6b7bab73a1d1026060840152820152a190565b5050600080516020611e7483398151915292507f496e73756666696369656e74207175616e74697479206f722077726f6e672070826026608094519380855284015282015260d260020a651c9bd91d58dd026060820152a190565b50600485015460068301541115611730565b600019811461116b5760010190565b60085481101561147357600860005260206000200190600090565b60095481101561147357600960005260206000200190600090565b60075481101561147357600760005260206000200190600090565b9060005b81811061194e575050506040518081600854808352602080930190600860005283600020936000905b82821061193457505050610e2092500382610d68565b85548452600195860195879550938101939091019061191e565b60409081519360646020958681019083825287815261196c81610d4d565b519020069460088054604060020a811015610d33576119c79761199782600161199d940185556118a0565b906110be565b6119a6846118a0565b979054600a6119b4876118a0565b9190928560029c028c0a900406916110be565b806119d1856118a0565b9190549102880a90049460039586810296818804149015171561116b57611a16600080516020611f1483398151915294611a11611a3298611997896118a0565b611891565b97611a20866118a0565b905492519302900a90048152a1611891565b6118f5565b906000915b818310611a95575050506040518081600954808352602080930190600960005283600020936000905b828210611a7b57505050610e2092500382610d68565b855484526001958601958795509381019390910190611a65565b6040928351600a60209182810190858252838152611ab281610d4d565b5190200690600991825492604060020a841015610d3357611b1295611a1160089361199787611af5956001600080516020611f148339815191529a0190556118bb565b96611aff856118bb565b90549151920260020a90048152a1611891565b91611a3c565b906000915b818310611b76575050506040518081600754808352602080930190600760005283600020936000905b828210611b5c57505050610e2092500382610d68565b855484526001958601958795509381019390910190611b46565b60409283516103e860209182810190858252838152611b9481610d4d565b5190200690600791825492604060020a841015610d3357611be195611a1160089361199787611bd7956001600080516020611f148339815191529a0190556118d6565b96611aff856118d6565b91611b1d565b92919280600052600560205260016040600020611c0c8260ff600b54161515146116b2565b015414611c1857505050565b606092611c64611c6a936040516020815260106020820152608260020a6f141c9bd91d58dd081c9958d95a5d9959026040820152600080516020611e74833981519152968791a1611ca5565b91611185565b5050606060405160208152601b60208201527f5061796d656e742073656e74206279206469737472696275746f7200000000006040820152a1565b80600080600880549160075491600954915b848110611d52575050505050600080516020611ef483398151915260806040516040815260156040820152605d60020a7402a3432902334b730b61020b6b7bab73a1034b99d1026060820152836020820152a114611d125790565b600080516020611e7483398151915260606040516020815260116020820152607a60020a7010dd5cdd1bdb49dcc815995c9a599a5959026040820152a190565b90919293945060149550611d65816118a0565b9054600297918402880a90041115611e6c57600a80880290888204148815171561116b576064611d9691048861115e565b955b6000905b858210611dba575050611dae90611891565b90869594939291611cb7565b909650605083611dc9846118d6565b90549102830a90041115611e6557600a80890290898204148915171561116b576064611df691048961115e565b965b60005b858110611e125750611e0c90611891565b90611d9c565b9750600184611e20856118bb565b90549102840a90041015611e5b57600a808a02908a8204148a15171561116b57611e506064611e5692048b61115e565b98611891565b611dfb565b611e568998611891565b8796611df8565b8695611d9856fedd3992ab811c00ec01b51eb1e5cdde3ea345d77c6b3edb790710a46f696631a14d709b4bdf6932113001238501ce4e50b52f518c7f0d64c1e45fabe9a50baf388396392da1b5a882be9ee6fbe49517ea3e7153902dec4c01984e8edcd87b0705b6871ef893adcf210ef23c8a5897b726ecccd2ec16b829b33217e50da5832fb973d9f7a85e373e3d2ab325c69eca7fdfb9815c23a01e19a369b227e3fcec17f15dcfb4fa29f6237d65e4072a4337cd02c2f31b49da269ee511b613e22d25e314a2646970667358221220cb89d4858962925b242b02dffd09cbe316be518f51c1536a9130688bfc52b32364736f6c63430008120033",
  "immutableReferences": {},
  "source": "// SPDX-License-Identifier: CC-BY-4.0\r\npragma solidity >=0.4.22 <0.9.0;\r\n\r\nimport \"./Transport.sol\";\r\n\r\ncontract Driver is Transport {\r\n\r\n    struct Tracking {\r\n        uint    trackingNo;\r\n        uint256 latitude;\r\n        uint256 longitude;\r\n        uint256 epoch;\r\n        string  memo; // driver notes, rest status, or other updates?\r\n    }\r\n\r\n    mapping (address => Tracking[]) logs;\r\n\r\n    function drive(address _produceraddr, address _distaddr, uint _quantity, uint _prodID, uint no,uint hrs)\r\n        public\r\n        returns (uint)\r\n    {\r\n        //this should return tracking no.\r\n        uint _trackingNo = createOrderByDistributor(_produceraddr,_distaddr,_quantity, _prodID);\r\n\r\n        sendOrderByDistributor(_produceraddr,_distaddr,_trackingNo,_quantity);\r\n\r\n        //this return calculated amount\r\n        uint _amount = acceptOrderByProducer(_produceraddr,_trackingNo);\r\n        emit TransportMessage(\"Order is being sent\");\r\n        randomtemperature(no,  hrs);\r\n        randomaccelerometer(no,hrs);\r\n        randomluminosity(no,hrs);\r\n        acceptOrderByDistributor(_trackingNo,_distaddr,_produceraddr,_amount);\r\n        return _trackingNo;\r\n    }\r\n\r\n    function updateTrackingPosition(uint trackingNo, uint256 latitude, uint256 longitude, uint256 epoch, string memory memo)\r\n        public\r\n    {\r\n        Tracking memory location = Tracking(trackingNo, latitude, longitude, epoch, memo);\r\n        logs[msg.sender].push(location);\r\n    }\r\n\r\n    function getLogs()\r\n        public\r\n        view\r\n        returns (Tracking[] memory)\r\n    {\r\n        return logs[msg.sender];\r\n    }\r\n\r\n    function getDriverLogs(address driver)\r\n        public\r\n        view\r\n        returns (Tracking[] memory)\r\n    {\r\n        return logs[driver];\r\n    }\r\n}\r\n",
  "sourcePath": "/Volumes/HOME/pingleware-contracts/contracts/transportation/Driver.sol",
  "compiler": {
    "name": "solc",
    "version": "0.8.18+commit.87f61d96.Emscripten.clang"
  },
  "schemaVersion": "3.4.12",
  "updatedAt": "2024-05-23T18:56:27.373Z",
  "devdoc": {
    "kind": "dev",
    "methods": {},
    "version": 1
  },
  "userdoc": {
    "kind": "user",
    "methods": {},
    "version": 1
  }
}