{
  "contractName": "EducationRoles",
  "abi": [
    {
      "anonymous": false,
      "inputs": [
        {
          "indexed": false,
          "internalType": "address",
          "name": "sender",
          "type": "address"
        },
        {
          "indexed": false,
          "internalType": "uint256",
          "name": "amount",
          "type": "uint256"
        }
      ],
      "name": "FallbackEvent",
      "type": "event"
    },
    {
      "anonymous": false,
      "inputs": [
        {
          "indexed": true,
          "internalType": "address",
          "name": "previousOwner",
          "type": "address"
        },
        {
          "indexed": true,
          "internalType": "address",
          "name": "newOwner",
          "type": "address"
        }
      ],
      "name": "OwnershipTransferred",
      "type": "event"
    },
    {
      "anonymous": false,
      "inputs": [
        {
          "indexed": false,
          "internalType": "address",
          "name": "sender",
          "type": "address"
        },
        {
          "indexed": false,
          "internalType": "uint256",
          "name": "amount",
          "type": "uint256"
        }
      ],
      "name": "ReceiveEvent",
      "type": "event"
    },
    {
      "stateMutability": "payable",
      "type": "fallback",
      "payable": true
    },
    {
      "inputs": [],
      "name": "VERSION",
      "outputs": [
        {
          "internalType": "string",
          "name": "",
          "type": "string"
        }
      ],
      "stateMutability": "view",
      "type": "function",
      "constant": true
    },
    {
      "inputs": [],
      "name": "WAIT",
      "outputs": [
        {
          "internalType": "uint256",
          "name": "",
          "type": "uint256"
        }
      ],
      "stateMutability": "view",
      "type": "function",
      "constant": true
    },
    {
      "inputs": [],
      "name": "getOwner",
      "outputs": [
        {
          "internalType": "address",
          "name": "",
          "type": "address"
        }
      ],
      "stateMutability": "payable",
      "type": "function",
      "payable": true
    },
    {
      "inputs": [],
      "name": "renounceOwnership",
      "outputs": [],
      "stateMutability": "payable",
      "type": "function",
      "payable": true
    },
    {
      "inputs": [
        {
          "internalType": "address",
          "name": "newOwner",
          "type": "address"
        }
      ],
      "name": "transferOwnership",
      "outputs": [],
      "stateMutability": "payable",
      "type": "function",
      "payable": true
    },
    {
      "stateMutability": "payable",
      "type": "receive",
      "payable": true
    },
    {
      "inputs": [
        {
          "internalType": "address",
          "name": "user",
          "type": "address"
        },
        {
          "internalType": "enum EducationRoles.Role",
          "name": "_role",
          "type": "uint8"
        }
      ],
      "name": "addUser",
      "outputs": [],
      "stateMutability": "nonpayable",
      "type": "function"
    },
    {
      "inputs": [
        {
          "internalType": "address",
          "name": "user",
          "type": "address"
        }
      ],
      "name": "addStudent",
      "outputs": [],
      "stateMutability": "nonpayable",
      "type": "function"
    },
    {
      "inputs": [
        {
          "internalType": "address",
          "name": "user",
          "type": "address"
        }
      ],
      "name": "addTeacher",
      "outputs": [],
      "stateMutability": "nonpayable",
      "type": "function"
    },
    {
      "inputs": [
        {
          "internalType": "address",
          "name": "user",
          "type": "address"
        }
      ],
      "name": "addLessonPlanner",
      "outputs": [],
      "stateMutability": "nonpayable",
      "type": "function"
    },
    {
      "inputs": [
        {
          "internalType": "address",
          "name": "user",
          "type": "address"
        }
      ],
      "name": "addStudentAssistance",
      "outputs": [],
      "stateMutability": "nonpayable",
      "type": "function"
    }
  ],
  "bytecode": "0x6080604052600060015534801561001557600080fd5b5060008054600160a060020a031916339081178255426001556040519091907f8be0079c531659141344cd1fd0a4f28419497f9722a3daafe3b4186f6b6457e0908290a3610976806100686000396000f3fe6080604052600436106100885760e060020a60003504632e3c8921811461014f5780633bc6e30914610171578063437072b014610191578063715018a6146101b1578063893d20e8146101b95780639c3eead9146101de578063b8fb3a51146101fe578063bd06ea1914610221578063f2fde38b14610241578063ffa1ad7414610254576100c8565b366100c8577fcc85d09d309785db93d6df19917f2e6cc07fe27cd01c08c8279145deb5cf452633346040516100be92919061071f565b60405180910390a1005b32331461011e5760405160e560020a62461bcd0281526020600482015260196024820152603860020a787068697368696e672061747461636b2064657465637465643f0260448201526064015b60405180910390fd5b7f26875833861a2b006512a11f1b86edf95df96131040f3caeed72989ee985808333346040516100be92919061071f565b34801561015b57600080fd5b5061016f61016a366004610754565b61029a565b005b34801561017d57600080fd5b5061016f61018c366004610754565b61037d565b34801561019d57600080fd5b5061016f6101ac366004610754565b6103ed565b61016f61045c565b6101c16104c1565b604051600160a060020a0390911681526020015b60405180910390f35b3480156101ea57600080fd5b5061016f6101f9366004610776565b610537565b34801561020a57600080fd5b50610213601e81565b6040519081526020016101d5565b34801561022d57600080fd5b5061016f61023c366004610754565b6105d2565b61016f61024f366004610754565b61063e565b34801561026057600080fd5b5061028d6040518060400160405280600a815260200160b060020a69312e362e342d626574610281525081565b6040516101d591906107b1565b60043360009081526003602052604090205460ff1660058111156102c0576102c06107ff565b146102e05760405160e560020a62461bcd02815260040161011590610819565b600160a060020a03811660009081526003602052604081205460ff16600581111561030d5761030d6107ff565b146103505760405160e560020a62461bcd02815260206004820152600d6024820152609a60020a6c1b9bdd0818481cdd1d59195b9d026044820152606401610115565b600160a060020a038116600090815260036020526040902080546001919060ff191682805b021790555050565b60053360009081526003602052604090205460ff1660058111156103a3576103a36107ff565b146103c35760405160e560020a62461bcd0281526004016101159061085d565b600160a060020a038116600090815260036020526040902080546004919060ff1916600183610375565b60043360009081526003602052604090205460ff166005811115610413576104136107ff565b146104335760405160e560020a62461bcd02815260040161011590610819565b600160a060020a0381166000908152600360208190526040909120805460ff1916600183610375565b600054600160a060020a031633146104895760405160e560020a62461bcd02815260040161011590610894565b60008054604051600160a060020a0390911690600080516020610921833981519152908390a360008054600160a060020a0319169055565b6000601e6001546104d291906108c8565b42116104f35760405160e560020a62461bcd028152600401610115906108f3565b601e60015461050291906108c8565b42116105235760405160e560020a62461bcd028152600401610115906108f3565b5042600155600054600160a060020a031690565b600054600160a060020a031633146105945760405160e560020a62461bcd02815260206004820152601b60248201527f756e617574686f72697a65642c206e6f7420746865206f776e657200000000006044820152606401610115565b600160a060020a0382166000908152600360205260409020805482919060ff191660018360058111156105c9576105c96107ff565b02179055505050565b60053360009081526003602052604090205460ff1660058111156105f8576105f86107ff565b146106185760405160e560020a62461bcd0281526004016101159061085d565b600160a060020a0381166000908152600360205260408120805460ff1916600183610375565b600054600160a060020a0316331461066b5760405160e560020a62461bcd02815260040161011590610894565b600160a060020a0381166106d65760405160e560020a62461bcd02815260206004820152602660248201527f4f776e61626c653a206e6577206f776e657220697320746865207a65726f2061604482015260d060020a65646472657373026064820152608401610115565b60008054604051600160a060020a038085169392169160008051602061092183398151915291a360008054600160a060020a031916600160a060020a0392909216919091179055565b600160a060020a03929092168252602082015260400190565b8035600160a060020a038116811461074f57600080fd5b919050565b60006020828403121561076657600080fd5b61076f82610738565b9392505050565b6000806040838503121561078957600080fd5b61079283610738565b91506020830135600681106107a657600080fd5b809150509250929050565b600060208083528351808285015260005b818110156107de578581018301518582016040015282016107c2565b506000604082860101526040601f19601f8301168501019250505092915050565b60e060020a634e487b710260009081526021600452602490fd5b60208082526021908201527f6e6f7420617574686f72697a656420746561636865722f696e7374727563746f604082015260f960020a603902606082015260800190565b6020808252601c908201527f6e6f7420617574686f72697a65642061646d696e6973747261746f7200000000604082015260600190565b6020808252601790820152604960020a7630b1b1b2b9b9903232b734b2b2103337b91037bbb732b902604082015260600190565b808201808211156108ed5760e060020a634e487b710260009081526011600452602490fd5b92915050565b6020808252601090820152608160020a6f3930ba32903634b6b4ba1032b93937b90260408201526060019056fe8be0079c531659141344cd1fd0a4f28419497f9722a3daafe3b4186f6b6457e0a264697066735822122058b3c661582e4aa46a11b355d51d92aed9deac12e8af535fd03b5a0aa97def2264736f6c63430008120033",
  "immutableReferences": {},
  "source": "// SPDX-License-Identifier: CC-BY-4.0\r\npragma solidity >=0.4.22 <0.9.0;\r\n\r\nimport \"../common/Version.sol\";\r\nimport \"../common/Owned.sol\";\r\n\r\ncontract EducationRoles is Version, Owned {\r\n    enum Role {\r\n        Student,\r\n        StudentAssistant,\r\n        Proctor,\r\n        LessonPlanner,\r\n        Teacher,\r\n        Administrator\r\n    }\r\n\r\n    mapping(address => Role) private role;\r\n\r\n    modifier isLessonPlanner()\r\n    {\r\n        require(role[msg.sender] == Role.LessonPlanner, \"not authorized to plan lessons\");\r\n        _;\r\n    }\r\n\r\n    modifier isTeacher()\r\n    {\r\n        require(role[msg.sender] == Role.Teacher, \"not authorized teacher/instructor\");\r\n        _;\r\n    }\r\n\r\n    modifier isAdministrator()\r\n    {\r\n        require(role[msg.sender] == Role.Administrator, \"not authorized administrator\");\r\n        _;\r\n    }\r\n\r\n    modifier isStudent()\r\n    {\r\n        require(role[msg.sender] == Role.Student, \"not authorized student\");\r\n        _;\r\n    }\r\n\r\n    function addUser(address user, Role _role)\r\n        public\r\n        okOwner\r\n    {\r\n        role[user] = _role;\r\n    }\r\n\r\n    function addStudent(address user)\r\n        public\r\n        isAdministrator\r\n    {\r\n        role[user] = Role.Student;\r\n    }\r\n\r\n    function addTeacher(address user)\r\n        public\r\n        isAdministrator\r\n    {\r\n        role[user] = Role.Teacher;\r\n    }\r\n\r\n    function addLessonPlanner(address user)\r\n        public\r\n        isTeacher\r\n    {\r\n        role[user] = Role.LessonPlanner;\r\n    }\r\n\r\n    function addStudentAssistance(address user)\r\n        public\r\n        isTeacher\r\n    {\r\n        require(role[user] == Role.Student,\"not a student\");\r\n        role[user] = Role.StudentAssistant;\r\n    }\r\n\r\n}",
  "sourcePath": "/Volumes/My Book/projects/pingleware-contracts/contracts/education/EducationRoles.sol",
  "compiler": {
    "name": "solc",
    "version": "0.8.18+commit.87f61d96.Emscripten.clang"
  },
  "schemaVersion": "3.4.12",
  "updatedAt": "2023-10-24T12:50:08.896Z",
  "networkType": "ethereum",
  "devdoc": {
    "kind": "dev",
    "methods": {
      "renounceOwnership()": {
        "details": "Leaves the contract without owner. It will not be possible to call `onlyOwner` functions anymore. Can only be called by the current owner. NOTE: Renouncing ownership will leave the contract without an owner, thereby removing any functionality that is only available to the owner."
      },
      "transferOwnership(address)": {
        "details": "Transfers ownership of the contract to a new account (`newOwner`). Can only be called by the current owner."
      }
    },
    "version": 1
  },
  "userdoc": {
    "kind": "user",
    "methods": {},
    "version": 1
  }
}