{
  "contractName": "EducationRoles",
  "abi": [
    {
      "anonymous": false,
      "inputs": [
        {
          "indexed": false,
          "internalType": "address",
          "name": "sender",
          "type": "address"
        },
        {
          "indexed": false,
          "internalType": "uint256",
          "name": "amount",
          "type": "uint256"
        }
      ],
      "name": "FallbackEvent",
      "type": "event"
    },
    {
      "anonymous": false,
      "inputs": [
        {
          "indexed": true,
          "internalType": "address",
          "name": "previousOwner",
          "type": "address"
        },
        {
          "indexed": true,
          "internalType": "address",
          "name": "newOwner",
          "type": "address"
        }
      ],
      "name": "OwnershipTransferred",
      "type": "event"
    },
    {
      "anonymous": false,
      "inputs": [
        {
          "indexed": false,
          "internalType": "address",
          "name": "sender",
          "type": "address"
        },
        {
          "indexed": false,
          "internalType": "uint256",
          "name": "amount",
          "type": "uint256"
        }
      ],
      "name": "ReceiveEvent",
      "type": "event"
    },
    {
      "stateMutability": "payable",
      "type": "fallback"
    },
    {
      "inputs": [],
      "name": "VERSION",
      "outputs": [
        {
          "internalType": "string",
          "name": "",
          "type": "string"
        }
      ],
      "stateMutability": "view",
      "type": "function"
    },
    {
      "inputs": [],
      "name": "WAIT",
      "outputs": [
        {
          "internalType": "uint256",
          "name": "",
          "type": "uint256"
        }
      ],
      "stateMutability": "view",
      "type": "function"
    },
    {
      "inputs": [],
      "name": "getOwner",
      "outputs": [
        {
          "internalType": "address",
          "name": "",
          "type": "address"
        }
      ],
      "stateMutability": "payable",
      "type": "function"
    },
    {
      "inputs": [],
      "name": "renounceOwnership",
      "outputs": [],
      "stateMutability": "payable",
      "type": "function"
    },
    {
      "inputs": [
        {
          "internalType": "address",
          "name": "newOwner",
          "type": "address"
        }
      ],
      "name": "transferOwnership",
      "outputs": [],
      "stateMutability": "payable",
      "type": "function"
    },
    {
      "stateMutability": "payable",
      "type": "receive"
    },
    {
      "inputs": [
        {
          "internalType": "address",
          "name": "user",
          "type": "address"
        },
        {
          "internalType": "enum EducationRoles.Role",
          "name": "_role",
          "type": "uint8"
        }
      ],
      "name": "addUser",
      "outputs": [],
      "stateMutability": "nonpayable",
      "type": "function"
    },
    {
      "inputs": [
        {
          "internalType": "address",
          "name": "user",
          "type": "address"
        }
      ],
      "name": "addStudent",
      "outputs": [],
      "stateMutability": "nonpayable",
      "type": "function"
    },
    {
      "inputs": [
        {
          "internalType": "address",
          "name": "user",
          "type": "address"
        }
      ],
      "name": "addTeacher",
      "outputs": [],
      "stateMutability": "nonpayable",
      "type": "function"
    },
    {
      "inputs": [
        {
          "internalType": "address",
          "name": "user",
          "type": "address"
        }
      ],
      "name": "addLessonPlanner",
      "outputs": [],
      "stateMutability": "nonpayable",
      "type": "function"
    },
    {
      "inputs": [
        {
          "internalType": "address",
          "name": "user",
          "type": "address"
        }
      ],
      "name": "addStudentAssistance",
      "outputs": [],
      "stateMutability": "nonpayable",
      "type": "function"
    }
  ],
  "bytecode": "0x608080604052346100535760008054600160a060020a03191633908117825542600155907f8be0079c531659141344cd1fd0a4f28419497f9722a3daafe3b4186f6b6457e08180a361080c90816100598239f35b600080fdfe6040608081526004803610156100c4575b361561009557333203610051577f26875833861a2b006512a11f1b86edf95df96131040f3caeed72989ee985808382518061004c3433836106a4565b0390a1005b6020606492519160e560020a62461bcd02835282015260196024820152603860020a787068697368696e672061747461636b2064657465637465643f026044820152fd5b7fcc85d09d309785db93d6df19917f2e6cc07fe27cd01c08c8279145deb5cf452682518061004c3433836106a4565b600060e060020a813504632e3c892181146105735780633bc6e309146104fe578063437072b014610486578063715018a614610441578063893d20e8146103de5780639c3eead91461033a578063b8fb3a511461031a578063bd06ea19146102a4578063f2fde38b146101eb5763ffa1ad74146101415750610010565b9190346101e757826003193601126101e757815190818301906001604060020a038211838310176101d157508252600a815260209060b060020a69312e362e342d62657461028282015282519382859384528251928382860152825b8481106101bb57505050828201840152601f01601f19168101030190f35b818101830151888201880152879550820161019d565b60e060020a634e487b7102855260419052602484fd5b8280fd5b50919060203660031901126101e757610202610644565b835491600160a060020a038084169261021c3385146106bf565b1693841561024a57505082906000805160206107b78339815191528580a3600160a060020a03191617815580f35b5160e560020a62461bcd028152602091810191909152602660248201527f4f776e61626c653a206e6577206f776e657220697320746865207a65726f2061604482015260d060020a65646472657373026064820152608490fd5b509190346101e75760203660031901126101e7576102c0610644565b90338452600360205260ff8385205416906006821015610304575060056102e7911461070b565b600160a060020a0316825260036020528120805460ff1916905580f35b60e060020a634e487b7102855260219052602484fd5b50823461033657816003193601126103365760209051601e8152f35b5080fd5b5091346101e757806003193601126101e757610354610644565b916024359260068410156103da578454600160a060020a039290831633036103915750168352600360205282209060ff8019835416911617905580f35b835160e560020a62461bcd028152602091810191909152601b60248201527f756e617574686f72697a65642c206e6f7420746865206f776e657200000000006044820152606490fd5b8480fd5b5080839160031936011261043e5760015492601e84018094116104285750610412602093421161040d8161065f565b61065f565b42600155549051600160a060020a039091168152f35b60e060020a634e487b7102825260119052602490fd5b80fd5b508060031936011261043e57805481600160a060020a0382166104653382146106bf565b6000805160206107b78339815191528280a3600160a060020a031916815580f35b509190346101e75760203660031901126101e7576104a2610644565b90338452600360205260ff838520541660068110156104e8576104c5911461075a565b600160a060020a0316825260036020819052908220805460ff1916909117905580f35b60e060020a634e487b7102855260218252602485fd5b5091346101e75760203660031901126101e757610519610644565b338452600360205260ff8285205416600681101561055d57600561053d911461070b565b600160a060020a0316835260036020528220805460ff1916909117905580f35b60e060020a634e487b7102855260218452602485fd5b509190346101e75760203660031901126101e75761058f610644565b338452600360205260ff8385205416600681101561062e57826105b2911461075a565b600160a060020a031680845260036020528284205490919060ff1660068110156104e8576105f25750825260036020528120805460ff1916600117905580f35b825160e560020a62461bcd028152602091810191909152600d6024820152609a60020a6c1b9bdd0818481cdd1d59195b9d026044820152606490fd5b60e060020a634e487b7102855260218352602485fd5b60043590600160a060020a038216820361065a57565b600080fd5b1561066657565b60405160e560020a62461bcd0281526020600482015260106024820152608160020a6f3930ba32903634b6b4ba1032b93937b9026044820152606490fd5b600160a060020a039091168152602081019190915260400190565b156106c657565b60405160e560020a62461bcd0281526020600482015260176024820152604960020a7630b1b1b2b9b9903232b734b2b2103337b91037bbb732b9026044820152606490fd5b1561071257565b60405160e560020a62461bcd02815260206004820152601c60248201527f6e6f7420617574686f72697a65642061646d696e6973747261746f72000000006044820152606490fd5b1561076157565b60405160e560020a62461bcd02815260206004820152602160248201527f6e6f7420617574686f72697a656420746561636865722f696e7374727563746f604482015260f960020a6039026064820152608490fdfe8be0079c531659141344cd1fd0a4f28419497f9722a3daafe3b4186f6b6457e0a2646970667358221220c98e901437a988a33ec4516645e0ff44e61dddb4b04c2d173509e8ba871073b264736f6c63430008120033",
  "immutableReferences": {},
  "source": "// SPDX-License-Identifier: CC-BY-4.0\r\npragma solidity >=0.4.22 <0.9.0;\r\n\r\nimport \"../common/Version.sol\";\r\nimport \"../common/Owned.sol\";\r\n\r\ncontract EducationRoles is Version, Owned {\r\n    enum Role {\r\n        Student,\r\n        StudentAssistant,\r\n        Proctor,\r\n        LessonPlanner,\r\n        Teacher,\r\n        Administrator\r\n    }\r\n\r\n    mapping(address => Role) private role;\r\n\r\n    modifier isLessonPlanner()\r\n    {\r\n        require(role[msg.sender] == Role.LessonPlanner, \"not authorized to plan lessons\");\r\n        _;\r\n    }\r\n\r\n    modifier isTeacher()\r\n    {\r\n        require(role[msg.sender] == Role.Teacher, \"not authorized teacher/instructor\");\r\n        _;\r\n    }\r\n\r\n    modifier isAdministrator()\r\n    {\r\n        require(role[msg.sender] == Role.Administrator, \"not authorized administrator\");\r\n        _;\r\n    }\r\n\r\n    modifier isStudent()\r\n    {\r\n        require(role[msg.sender] == Role.Student, \"not authorized student\");\r\n        _;\r\n    }\r\n\r\n    function addUser(address user, Role _role)\r\n        public\r\n        okOwner\r\n    {\r\n        role[user] = _role;\r\n    }\r\n\r\n    function addStudent(address user)\r\n        public\r\n        isAdministrator\r\n    {\r\n        role[user] = Role.Student;\r\n    }\r\n\r\n    function addTeacher(address user)\r\n        public\r\n        isAdministrator\r\n    {\r\n        role[user] = Role.Teacher;\r\n    }\r\n\r\n    function addLessonPlanner(address user)\r\n        public\r\n        isTeacher\r\n    {\r\n        role[user] = Role.LessonPlanner;\r\n    }\r\n\r\n    function addStudentAssistance(address user)\r\n        public\r\n        isTeacher\r\n    {\r\n        require(role[user] == Role.Student,\"not a student\");\r\n        role[user] = Role.StudentAssistant;\r\n    }\r\n\r\n}",
  "sourcePath": "/Volumes/HOME/pingleware-contracts/contracts/education/EducationRoles.sol",
  "compiler": {
    "name": "solc",
    "version": "0.8.18+commit.87f61d96.Emscripten.clang"
  },
  "schemaVersion": "3.4.12",
  "updatedAt": "2024-05-23T18:56:25.017Z",
  "devdoc": {
    "kind": "dev",
    "methods": {
      "renounceOwnership()": {
        "details": "Leaves the contract without owner. It will not be possible to call `onlyOwner` functions anymore. Can only be called by the current owner. NOTE: Renouncing ownership will leave the contract without an owner, thereby removing any functionality that is only available to the owner."
      },
      "transferOwnership(address)": {
        "details": "Transfers ownership of the contract to a new account (`newOwner`). Can only be called by the current owner."
      }
    },
    "version": 1
  },
  "userdoc": {
    "kind": "user",
    "methods": {},
    "version": 1
  }
}