{
  "contractName": "EETP",
  "abi": [
    {
      "inputs": [],
      "stateMutability": "nonpayable",
      "type": "constructor"
    },
    {
      "anonymous": false,
      "inputs": [
        {
          "indexed": false,
          "internalType": "bytes32",
          "name": "trans",
          "type": "bytes32"
        },
        {
          "indexed": false,
          "internalType": "address payable",
          "name": "buyer",
          "type": "address"
        }
      ],
      "name": "bought",
      "type": "event"
    },
    {
      "anonymous": false,
      "inputs": [
        {
          "indexed": false,
          "internalType": "bytes32",
          "name": "trans",
          "type": "bytes32"
        },
        {
          "indexed": false,
          "internalType": "address payable",
          "name": "buyer",
          "type": "address"
        }
      ],
      "name": "confirmed",
      "type": "event"
    },
    {
      "inputs": [
        {
          "internalType": "bytes32",
          "name": "",
          "type": "bytes32"
        }
      ],
      "name": "offers",
      "outputs": [
        {
          "internalType": "address payable",
          "name": "buyer",
          "type": "address"
        },
        {
          "internalType": "uint256",
          "name": "starting",
          "type": "uint256"
        },
        {
          "internalType": "uint256",
          "name": "duration",
          "type": "uint256"
        },
        {
          "internalType": "bool",
          "name": "confirmed",
          "type": "bool"
        }
      ],
      "stateMutability": "view",
      "type": "function"
    },
    {
      "inputs": [
        {
          "internalType": "address payable",
          "name": "_network",
          "type": "address"
        }
      ],
      "name": "addNetwork",
      "outputs": [],
      "stateMutability": "payable",
      "type": "function"
    },
    {
      "inputs": [
        {
          "internalType": "bytes32",
          "name": "_trans",
          "type": "bytes32"
        },
        {
          "internalType": "uint256",
          "name": "_starting",
          "type": "uint256"
        },
        {
          "internalType": "uint256",
          "name": "_duration",
          "type": "uint256"
        },
        {
          "internalType": "uint256",
          "name": "_timestamp",
          "type": "uint256"
        }
      ],
      "name": "buy",
      "outputs": [],
      "stateMutability": "payable",
      "type": "function"
    },
    {
      "inputs": [
        {
          "internalType": "bytes32",
          "name": "_trans",
          "type": "bytes32"
        },
        {
          "internalType": "uint256",
          "name": "_timestamp",
          "type": "uint256"
        }
      ],
      "name": "cancel",
      "outputs": [],
      "stateMutability": "payable",
      "type": "function"
    },
    {
      "inputs": [
        {
          "internalType": "bytes32",
          "name": "_trans",
          "type": "bytes32"
        },
        {
          "internalType": "uint256",
          "name": "_timestamp",
          "type": "uint256"
        }
      ],
      "name": "confirm",
      "outputs": [],
      "stateMutability": "payable",
      "type": "function"
    },
    {
      "inputs": [
        {
          "internalType": "bytes32",
          "name": "_trans",
          "type": "bytes32"
        }
      ],
      "name": "pay",
      "outputs": [],
      "stateMutability": "payable",
      "type": "function"
    }
  ],
  "bytecode": "0x6080806040523461002d5760008054600160a060020a03191633179055606460025561048690816100338239f35b600080fdfe6040608081526004908136101561001557600080fd5b60009160e060020a8335049063069455a0821461034e5781632c45df9914610238578163474d3ff0146101e05781638609cad114610130578163d567e4a4146100f4575063f2cb3d761461006857600080fd5b610071366103f3565b600154600160a060020a039392919061008d908516331461040e565b8185526003602052828520906001820154116100a7578480f35b7f742aad2efac896a7d7524137017baa0eb43b638a52ee66cbcbfd697428006eee938160036100e99301600160ff198254161790555416925192839283610437565b0390a1388080808480f35b8390602036600319011261012c5735600160a060020a0381169081900361012c5760018054600160a060020a03191691909117905580f35b5080fd5b905060203660031901126101dc57358252600360205280822080548391600160a060020a03918216331490816101c8575b5061016a575080f35b34158280826101bf575b8180809234903390f1156101b25782809291819282541682916101a8575b3491f11561019e578180f35b51903d90823e3d90fd5b6108fc9150610192565b50505051903d90823e3d90fd5b506108fc610174565b6003015460ff161515600114905038610161565b8280fd5b9050346101dc5760203660031901126101dc57608092829135815260036020522090600160a060020a038254169160018101549160ff6003600284015493015416928151948552602085015283015215156060820152f35b91905060803660031901126101dc5781356024359161025a606435841161040e565b80519360808501906001604060020a038211868310176103385750815284845260208401938585528181019386855260608201918783528488526003602052600160a060020a039586858a205416156102b1578880f35b7f06f5197f3762f9c7dafa07d8f88482f284a316958188e5740761b4977cc3a5cc976103299760039433855282526044358352878b5284602052868b20935116600160a060020a0319845416178355516001830155516002820155019051151560ff8019835416911617905551918291339083610437565b0390a138808080808080808880f35b60e060020a634e487b7102875260419052602486fd5b50508161035a366103f3565b90825260036020528282208054600160a060020a0392838216331461037d578480f35b60018301541161038c57808480f35b600160a060020a031916905560025482908190819081908181156103ea575b3390f1156103de5781808092815416600254908282156103d5575bf11561019e5781818080808480f35b506108fc6103c6565b505051903d90823e3d90fd5b506108fc6103ab565b6040906003190112610409576004359060243590565b600080fd5b1561041557565b60405160e560020a62461bcd0281526020600482015260006024820152604490fd5b908152600160a060020a0390911660208201526040019056fea26469706673582212206252fa738abed4e319c803764feb668154c760a1e22987c0b7430af5e11461e964736f6c63430008120033",
  "immutableReferences": {},
  "source": "// SPDX-License-Identifier: CC-BY-4.0\r\npragma solidity >=0.4.22 <0.9.0;\r\n\r\n/**\r\n * From: https://github.com/Yassin-MT/EETP\r\n *\r\n * An Ethereum-Based Energy Trading Protocol\r\n * This is an P2P Energy Trading Protocol built on Ethereum's Smart Contract technology. On this platform, any entity can buy or sell electricity,\r\n * there is no limit on the number of participants, and there are no intermediaries (e.g. banks, traders and energy retailers).\r\n * The proposed solution uses off-chain and on-chain processing (and storage) with the objective to perform as much processing off-chain as possible,\r\n * without compromising the security of the solution.\r\n *\r\n * Using Ethereum's smart contract technology, the solution realizes a secure, decentralized, trustworthy, and low-cost energy trading in next generation smart grids.\r\n *\r\n * The Actors\r\n * There are four actors in the proposed protocol.\r\n *      a) the producer: an entity that has a block of electricity to sell sometime in the future;\r\n *      b) the consumer: an entity that wants to buy electricity;\r\n *      c) the energy agent: an entity that maintains an energy inventory, provided by producers, and matches it to consumer requests; and\r\n *     (d) the distribution network: an electric power network that transports electricity between two end points.\r\n */\r\ncontract EETP {\r\n    address payable agent; // energy agent owns smart contract\r\n    address payable network; // distribution network\r\n\r\n    uint penality; // penality for cancelling\r\n\r\n    struct offer {\r\n        address payable buyer;\r\n        uint starting;\r\n        uint duration;\r\n        bool confirmed;\r\n    }\r\n\r\n    // hash of energy offer (processed by energy agent) mapped to offer\r\n    mapping (bytes32 => offer) public offers;\r\n\r\n    event bought(bytes32 trans, address payable buyer);\r\n    event confirmed(bytes32 trans, address payable buyer);\r\n\r\n    constructor() {\r\n        agent = payable(msg.sender);\r\n        penality = 100;\r\n    }\r\n\r\n    modifier valid(uint _starting, uint _timestamp) {\r\n        require(_starting > _timestamp, \"\");\r\n        _;\r\n    }\r\n\r\n    function addNetwork(address payable _network)\r\n        public\r\n        payable\r\n    {\r\n        network = _network;\r\n    }\r\n\r\n    function buy(bytes32 _trans, uint _starting, uint _duration, uint _timestamp)\r\n        public\r\n        valid(_starting,_timestamp)\r\n        payable\r\n    {\r\n        offer memory anOffer;\r\n\r\n        // offer must be available (ie hasn't been bought yet)\r\n        if (offers[_trans].buyer == address(0x0)) {\r\n            anOffer.buyer = payable(msg.sender);\r\n            anOffer.starting = _starting;\r\n            anOffer.duration = _duration;\r\n\r\n            offers[_trans] = anOffer;\r\n            emit bought(_trans, payable(msg.sender));\r\n        }\r\n    }\r\n\r\n    function cancel(bytes32 _trans, uint _timestamp)\r\n        public\r\n        payable\r\n    {\r\n        if (offers[_trans].buyer == msg.sender) {\r\n        // buyer can cancel is starting time for energy transfer hasn't yet started\r\n        // must pay penality\r\n        if (offers[_trans].starting > _timestamp) {\r\n            offers[_trans].buyer = payable(address(0x0));\r\n            // person must pay penality\r\n            payable(msg.sender).transfer(penality);\r\n            agent.transfer(penality);\r\n        }\r\n        }\r\n    }\r\n\r\n    modifier identity() {\r\n        require(msg.sender == network, \"\");\r\n        _;\r\n    }\r\n\r\n    // network confrims energy transfer is possible, if not offer is invalid\r\n    function confirm(bytes32 _trans, uint _timestamp)\r\n        public\r\n        identity\r\n        payable\r\n    {\r\n        if (offers[_trans].starting > _timestamp) {\r\n            offers[_trans].confirmed = true;\r\n            emit confirmed(_trans, offers[_trans].buyer);\r\n        }\r\n    }\r\n\r\n    // buyer pays once offer has been confirmed\r\n    function pay(bytes32 _trans)\r\n        public\r\n        payable\r\n    {\r\n        if (offers[_trans].buyer == msg.sender && offers[_trans].confirmed == true) {\r\n            // payment\r\n            payable(msg.sender).transfer(msg.value);\r\n            agent.transfer(msg.value);\r\n        }\r\n    }\r\n}",
  "sourcePath": "/Volumes/HOME/pingleware-contracts/contracts/energy/EETP.sol",
  "compiler": {
    "name": "solc",
    "version": "0.8.18+commit.87f61d96.Emscripten.clang"
  },
  "schemaVersion": "3.4.12",
  "updatedAt": "2024-05-23T18:56:25.081Z",
  "devdoc": {
    "kind": "dev",
    "methods": {},
    "version": 1
  },
  "userdoc": {
    "kind": "user",
    "methods": {},
    "notice": "From: https://github.com/Yassin-MT/EETP An Ethereum-Based Energy Trading Protocol This is an P2P Energy Trading Protocol built on Ethereum's Smart Contract technology. On this platform, any entity can buy or sell electricity, there is no limit on the number of participants, and there are no intermediaries (e.g. banks, traders and energy retailers). The proposed solution uses off-chain and on-chain processing (and storage) with the objective to perform as much processing off-chain as possible, without compromising the security of the solution. Using Ethereum's smart contract technology, the solution realizes a secure, decentralized, trustworthy, and low-cost energy trading in next generation smart grids. The Actors There are four actors in the proposed protocol.      a) the producer: an entity that has a block of electricity to sell sometime in the future;      b) the consumer: an entity that wants to buy electricity;      c) the energy agent: an entity that maintains an energy inventory, provided by producers, and matches it to consumer requests; and     (d) the distribution network: an electric power network that transports electricity between two end points.",
    "version": 1
  }
}