{
  "contractName": "ELMXMunicipalBond",
  "abi": [
    {
      "inputs": [
        {
          "internalType": "string",
          "name": "name",
          "type": "string"
        },
        {
          "internalType": "address",
          "name": "issuer",
          "type": "address"
        },
        {
          "internalType": "uint256",
          "name": "totalPrincipal",
          "type": "uint256"
        },
        {
          "internalType": "uint256",
          "name": "interestRate",
          "type": "uint256"
        },
        {
          "internalType": "uint256",
          "name": "maturityDate",
          "type": "uint256"
        },
        {
          "internalType": "bool",
          "name": "restricted",
          "type": "bool"
        },
        {
          "internalType": "uint256",
          "name": "maxUnits",
          "type": "uint256"
        },
        {
          "internalType": "address",
          "name": "exchangeAddress",
          "type": "address"
        }
      ],
      "stateMutability": "nonpayable",
      "type": "constructor"
    },
    {
      "anonymous": false,
      "inputs": [],
      "name": "BondMatured",
      "type": "event"
    },
    {
      "anonymous": false,
      "inputs": [
        {
          "indexed": true,
          "internalType": "address",
          "name": "seller",
          "type": "address"
        },
        {
          "indexed": false,
          "internalType": "uint256",
          "name": "bondUnits",
          "type": "uint256"
        },
        {
          "indexed": false,
          "internalType": "uint256",
          "name": "price",
          "type": "uint256"
        }
      ],
      "name": "BondQuoteAdded",
      "type": "event"
    },
    {
      "anonymous": false,
      "inputs": [
        {
          "indexed": true,
          "internalType": "address",
          "name": "seller",
          "type": "address"
        }
      ],
      "name": "BondQuoteRemoved",
      "type": "event"
    },
    {
      "anonymous": false,
      "inputs": [
        {
          "indexed": true,
          "internalType": "address",
          "name": "seller",
          "type": "address"
        },
        {
          "indexed": false,
          "internalType": "uint256",
          "name": "bondUnits",
          "type": "uint256"
        },
        {
          "indexed": false,
          "internalType": "uint256",
          "name": "price",
          "type": "uint256"
        }
      ],
      "name": "BondTradeAdded",
      "type": "event"
    },
    {
      "anonymous": false,
      "inputs": [
        {
          "indexed": true,
          "internalType": "address",
          "name": "buyer",
          "type": "address"
        },
        {
          "indexed": true,
          "internalType": "address",
          "name": "seller",
          "type": "address"
        },
        {
          "indexed": false,
          "internalType": "uint256",
          "name": "bondUnits",
          "type": "uint256"
        },
        {
          "indexed": false,
          "internalType": "uint256",
          "name": "price",
          "type": "uint256"
        }
      ],
      "name": "BondTradeExecuted",
      "type": "event"
    },
    {
      "anonymous": false,
      "inputs": [
        {
          "indexed": false,
          "internalType": "uint256",
          "name": "newPercentage",
          "type": "uint256"
        }
      ],
      "name": "FeePercentageUpdated",
      "type": "event"
    },
    {
      "anonymous": false,
      "inputs": [
        {
          "indexed": true,
          "internalType": "address",
          "name": "newRecipient",
          "type": "address"
        }
      ],
      "name": "FeeRecipientUpdated",
      "type": "event"
    },
    {
      "anonymous": false,
      "inputs": [
        {
          "indexed": true,
          "internalType": "address",
          "name": "from",
          "type": "address"
        },
        {
          "indexed": true,
          "internalType": "address",
          "name": "to",
          "type": "address"
        },
        {
          "indexed": false,
          "internalType": "uint256",
          "name": "value",
          "type": "uint256"
        }
      ],
      "name": "Transfer",
      "type": "event"
    },
    {
      "inputs": [],
      "name": "FeePercentage",
      "outputs": [
        {
          "internalType": "uint256",
          "name": "",
          "type": "uint256"
        }
      ],
      "stateMutability": "view",
      "type": "function"
    },
    {
      "inputs": [],
      "name": "bondInterestRate",
      "outputs": [
        {
          "internalType": "uint256",
          "name": "",
          "type": "uint256"
        }
      ],
      "stateMutability": "view",
      "type": "function"
    },
    {
      "inputs": [],
      "name": "bondIssuer",
      "outputs": [
        {
          "internalType": "address",
          "name": "",
          "type": "address"
        }
      ],
      "stateMutability": "view",
      "type": "function"
    },
    {
      "inputs": [],
      "name": "bondMaturityDate",
      "outputs": [
        {
          "internalType": "uint256",
          "name": "",
          "type": "uint256"
        }
      ],
      "stateMutability": "view",
      "type": "function"
    },
    {
      "inputs": [],
      "name": "bondName",
      "outputs": [
        {
          "internalType": "string",
          "name": "",
          "type": "string"
        }
      ],
      "stateMutability": "view",
      "type": "function"
    },
    {
      "inputs": [
        {
          "internalType": "uint256",
          "name": "",
          "type": "uint256"
        }
      ],
      "name": "bondQuotes",
      "outputs": [
        {
          "internalType": "address",
          "name": "seller",
          "type": "address"
        },
        {
          "internalType": "uint256",
          "name": "bondUnits",
          "type": "uint256"
        },
        {
          "internalType": "uint256",
          "name": "price",
          "type": "uint256"
        },
        {
          "internalType": "bool",
          "name": "active",
          "type": "bool"
        }
      ],
      "stateMutability": "view",
      "type": "function"
    },
    {
      "inputs": [],
      "name": "bondRestricted",
      "outputs": [
        {
          "internalType": "bool",
          "name": "",
          "type": "bool"
        }
      ],
      "stateMutability": "view",
      "type": "function"
    },
    {
      "inputs": [],
      "name": "bondTotalPrincipal",
      "outputs": [
        {
          "internalType": "uint256",
          "name": "",
          "type": "uint256"
        }
      ],
      "stateMutability": "view",
      "type": "function"
    },
    {
      "inputs": [],
      "name": "depositBalance",
      "outputs": [
        {
          "internalType": "uint256",
          "name": "",
          "type": "uint256"
        }
      ],
      "stateMutability": "view",
      "type": "function"
    },
    {
      "inputs": [],
      "name": "exchangeContract",
      "outputs": [
        {
          "internalType": "contract IExemptLiquidityMarketExchange",
          "name": "",
          "type": "address"
        }
      ],
      "stateMutability": "view",
      "type": "function"
    },
    {
      "inputs": [],
      "name": "feeRecipient",
      "outputs": [
        {
          "internalType": "address",
          "name": "",
          "type": "address"
        }
      ],
      "stateMutability": "view",
      "type": "function"
    },
    {
      "inputs": [
        {
          "internalType": "address",
          "name": "",
          "type": "address"
        }
      ],
      "name": "investorQuotes",
      "outputs": [
        {
          "internalType": "uint256",
          "name": "",
          "type": "uint256"
        }
      ],
      "stateMutability": "view",
      "type": "function"
    },
    {
      "inputs": [
        {
          "internalType": "address",
          "name": "",
          "type": "address"
        }
      ],
      "name": "investors",
      "outputs": [
        {
          "internalType": "uint256",
          "name": "principal",
          "type": "uint256"
        },
        {
          "internalType": "uint256",
          "name": "interestEarned",
          "type": "uint256"
        },
        {
          "internalType": "bool",
          "name": "redeemed",
          "type": "bool"
        }
      ],
      "stateMutability": "view",
      "type": "function"
    },
    {
      "inputs": [],
      "name": "isMatured",
      "outputs": [
        {
          "internalType": "bool",
          "name": "",
          "type": "bool"
        }
      ],
      "stateMutability": "view",
      "type": "function"
    },
    {
      "inputs": [],
      "name": "maxBondUnits",
      "outputs": [
        {
          "internalType": "uint256",
          "name": "",
          "type": "uint256"
        }
      ],
      "stateMutability": "view",
      "type": "function"
    },
    {
      "inputs": [],
      "name": "owner",
      "outputs": [
        {
          "internalType": "address",
          "name": "",
          "type": "address"
        }
      ],
      "stateMutability": "view",
      "type": "function"
    },
    {
      "inputs": [
        {
          "internalType": "address",
          "name": "wallet",
          "type": "address"
        }
      ],
      "name": "setFeeRecipient",
      "outputs": [],
      "stateMutability": "nonpayable",
      "type": "function"
    },
    {
      "inputs": [
        {
          "internalType": "uint256",
          "name": "fee",
          "type": "uint256"
        }
      ],
      "name": "setFee",
      "outputs": [],
      "stateMutability": "nonpayable",
      "type": "function"
    },
    {
      "inputs": [
        {
          "internalType": "address",
          "name": "wallet",
          "type": "address"
        },
        {
          "internalType": "uint256",
          "name": "amount",
          "type": "uint256"
        }
      ],
      "name": "buy",
      "outputs": [],
      "stateMutability": "nonpayable",
      "type": "function"
    },
    {
      "inputs": [
        {
          "internalType": "address",
          "name": "wallet",
          "type": "address"
        },
        {
          "internalType": "uint256",
          "name": "bondUnits",
          "type": "uint256"
        },
        {
          "internalType": "uint256",
          "name": "price",
          "type": "uint256"
        }
      ],
      "name": "addBondTrade",
      "outputs": [],
      "stateMutability": "nonpayable",
      "type": "function"
    },
    {
      "inputs": [
        {
          "internalType": "address",
          "name": "wallet",
          "type": "address"
        }
      ],
      "name": "removeBondQuote",
      "outputs": [],
      "stateMutability": "nonpayable",
      "type": "function"
    },
    {
      "inputs": [],
      "name": "getTotalBondUnits",
      "outputs": [
        {
          "internalType": "uint256",
          "name": "",
          "type": "uint256"
        }
      ],
      "stateMutability": "view",
      "type": "function"
    },
    {
      "inputs": [
        {
          "internalType": "address",
          "name": "wallet",
          "type": "address"
        },
        {
          "internalType": "uint256",
          "name": "bondUnits",
          "type": "uint256"
        }
      ],
      "name": "quoteBondUnits",
      "outputs": [],
      "stateMutability": "nonpayable",
      "type": "function"
    },
    {
      "inputs": [
        {
          "internalType": "address",
          "name": "seller",
          "type": "address"
        }
      ],
      "name": "getBondQuote",
      "outputs": [
        {
          "internalType": "uint256",
          "name": "bondUnits",
          "type": "uint256"
        },
        {
          "internalType": "uint256",
          "name": "price",
          "type": "uint256"
        },
        {
          "internalType": "bool",
          "name": "active",
          "type": "bool"
        }
      ],
      "stateMutability": "view",
      "type": "function"
    }
  ],
  "bytecode": "0x60806040526001600f553480156200001657600080fd5b50604051620025ae380380620025ae833981016040819052620000399162000122565b60008054600160a060020a031916331790556001620000598982620002fe565b5060028054600160a060020a03988916600160a060020a0319918216179091556003969096556004949094556005929092556006805460ff1990811690915560006007556008805492151592909116919091179055600955600d805491909316911617905550620003d0565b7f4e487b7100000000000000000000000000000000000000000000000000000000600052604160045260246000fd5b8051600160a060020a03811681146200010c57600080fd5b919050565b805180151581146200010c57600080fd5b600080600080600080600080610100898b0312156200014057600080fd5b88516001604060020a03808211156200015857600080fd5b818b0191508b601f8301126200016d57600080fd5b815181811115620001825762000182620000c5565b604051601f8201601f19908116603f01168101908382118183101715620001ad57620001ad620000c5565b81604052828152602093508e84848701011115620001ca57600080fd5b600091505b82821015620001ee5784820184015181830185015290830190620001cf565b6000848483010152809c5050505062000209818c01620000f4565b985050506040890151955060608901519450608089015193506200023060a08a0162000111565b925060c089015191506200024760e08a01620000f4565b90509295985092959890939650565b6002810460018216806200026b57607f821691505b602082108103620002a5577f4e487b7100000000000000000000000000000000000000000000000000000000600052602260045260246000fd5b50919050565b601f821115620002f9576000818152602081206020601f86010481016020861015620002d45750805b6020601f860104820191505b81811015620002f557828155600101620002e0565b5050505b505050565b81516001604060020a038111156200031a576200031a620000c5565b62000332816200032b845462000256565b84620002ab565b602080601f8311600181146200036e5760008415620003515750858301515b60028086026008870290910a6000190419821617865550620002f5565b600085815260208120601f198616915b828110156200039f578886015182559484019460019091019084016200037e565b5085821015620003c057878501516008601f88160260020a60001904191681555b5050505050600202600101905550565b6121ce80620003e06000396000f3fe608060405234801561001057600080fd5b506004361061012b5760e060020a600035046307e45ffe811461013057806309d88c8c146101635780631da8ca2214610178578063248717d4146101b75780633f0a0797146101ca57806346904840146101ea5780634ee87748146101fd57806361bc1a491461021057806369fe0e2d146102195780636f7bc9be1461022c578063729256eb1461027b5780637f2b6a0d1461028e578063887b6abc146102ab5780638da5cb5b146102c0578063a1e6c2ee146102d3578063c0cf0c63146102dc578063cc7c19ce146102e4578063cca16a9f146102f7578063cce7ec1314610300578063e28797d214610313578063e6140aee1461031c578063e74b981b14610325578063e9358ca814610338578063eaf4f27714610345575b600080fd5b61015061013e3660046118f9565b600c6020526000908152604090205481565b6040519081526020015b60405180910390f35b6101766101713660046118f9565b61034e565b005b61018b61018636600461191b565b61062f565b60408051600160a060020a0390951685526020850193909352918301521515606082015260800161015a565b6101766101c5366004611934565b610676565b600d546101dd90600160a060020a031681565b60405161015a919061195e565b600e546101dd90600160a060020a031681565b61017661020b366004611972565b61072e565b61015060075481565b61017661022736600461191b565b610b6b565b61025e61023a3660046118f9565b600b6020526000908152604090208054600182015460029092015490919060ff1683565b60408051938452602084019290925215159082015260600161015a565b6002546101dd90600160a060020a031681565b60065461029b9060ff1681565b604051901515815260200161015a565b6102b3610c35565b60405161015a91906119f5565b6000546101dd90600160a060020a031681565b61015060045481565b610150610cc3565b61025e6102f23660046118f9565b610d79565b61015060095481565b61017661030e366004611934565b610e9c565b610150600f5481565b61015060035481565b6101766103333660046118f9565b611096565b60085461029b9060ff1681565b61015060055481565b600054600160a060020a031633146103845760405160e560020a62461bcd02815260040161037b90611a08565b60405180910390fd5b6005546006805460ff1916429290921191909117905560405160008051602061217983398151915290600090a160065460ff16156103d75760405160e560020a62461bcd02815260040161037b90611a33565b6103e08161110d565b6103ff5760405160e560020a62461bcd02815260040161037b90611a6a565b600160a060020a0381166000908152600c60205260409020546104645760405160e560020a62461bcd0281526020600482015260176024820152604860020a764e6f20626f6e642071756f746520617661696c61626c6502604482015260640161037b565b600160a060020a0381166000818152600c602052604080822080549083905590519092917f015754ede06947eed80e5c3e7253a49d1c17ce35ad97fa6011c92148d7bf4ccc91a2600d5460405160e060020a63e9395679028152600481018390526000918491600160a060020a039091169063e939567990602401600060405180830381865afa1580156104fc573d6000803e3d6000fd5b505050506040513d6000823e601f3d908101601f191682016040526105249190810190611ab9565b604051602001610535929190611b65565b60408051601f19818403018152828252600d5460e060020a634ba1e1930284529151909350600160a060020a0390911691631e54b0d8916001918491634ba1e193916004808201926000929091908290030181865afa15801561059c573d6000803e3d6000fd5b505050506040513d6000823e601f3d908101601f191682016040526105c49190810190611ab9565b846040518463ffffffff1660e060020a0281526004016105e693929190611c86565b6020604051808303816000875af1158015610605573d6000803e3d6000fd5b505050506040513d601f19601f820116820180604052508101906106299190611d01565b50505050565b600a818154811061063f57600080fd5b60009182526020909120600490910201805460018201546002830154600390930154600160a060020a039092169350919060ff1684565b600054600160a060020a031633146106a35760405160e560020a62461bcd02815260040161037b90611a08565b6106ac8261114f565b6106ef5760405160e560020a62461bcd02815260206004820152600e6024820152609260020a6d1b9bdd081c9959da5cdd195c995902604482015260640161037b565b600081116107125760405160e560020a62461bcd02815260040161037b90611d1a565b600160a060020a039091166000908152600c6020526040902055565b600054600160a060020a0316331461075b5760405160e560020a62461bcd02815260040161037b90611a08565b6005546006805460ff1916429290921191909117905560405160008051602061217983398151915290600090a160065460ff16156107ae5760405160e560020a62461bcd02815260040161037b90611a33565b6107b78361110d565b6107d65760405160e560020a62461bcd02815260040161037b90611a6a565b600082116107f95760405160e560020a62461bcd02815260040161037b90611d1a565b6000811161083f5760405160e560020a62461bcd02815260206004820152600d6024820152609860020a6c496e76616c696420707269636502604482015260640161037b565b60408051608081018252600160a060020a038581168083526020808401878152848601878152600160608701818152600a8054928301815560005296517fc65a7bb8d6351c1cf70c95a316cc6a92839c986682d98bc35f958f4883f9d2a860049092029182018054600160a060020a031916919097161790955590517fc65a7bb8d6351c1cf70c95a316cc6a92839c986682d98bc35f958f4883f9d2a9850155517fc65a7bb8d6351c1cf70c95a316cc6a92839c986682d98bc35f958f4883f9d2aa84015592517fc65a7bb8d6351c1cf70c95a316cc6a92839c986682d98bc35f958f4883f9d2ab909201805460ff1916921515929092179091558251858152918201849052917f511ab2bd405b50b3ebc0f0f061159fd391c1aa6ab582ddb632f6ddeb94c53549910160405180910390a2600d5460405160e060020a63e9395679028152600481018490526000918591600160a060020a039091169063e939567990602401600060405180830381865afa1580156109c2573d6000803e3d6000fd5b505050506040513d6000823e601f3d908101601f191682016040526109ea9190810190611ab9565b600d5460405160e060020a63e939567902815260048101869052600160a060020a039091169063e939567990602401600060405180830381865afa158015610a36573d6000803e3d6000fd5b505050506040513d6000823e601f3d908101601f19168201604052610a5e9190810190611ab9565b604051602001610a7093929190611d49565b60408051601f19818403018152828252600d5460e060020a634ba1e1930284529151909350600160a060020a0390911691631e54b0d8916001918491634ba1e193916004808201926000929091908290030181865afa158015610ad7573d6000803e3d6000fd5b505050506040513d6000823e601f3d908101601f19168201604052610aff9190810190611ab9565b846040518463ffffffff1660e060020a028152600401610b2193929190611ddb565b6020604051808303816000875af1158015610b40573d6000803e3d6000fd5b505050506040513d601f19601f82011682018060405250810190610b649190611d01565b5050505050565b600054600160a060020a03163314610b985760405160e560020a62461bcd02815260040161037b90611a08565b6064811115610bfa5760405160e560020a62461bcd02815260206004820152602260248201527f4665652070657263656e74616765206d75737420626520313030206f72206c65604482015260f060020a61737302606482015260840161037b565b600f8190556040518181527f74516f05eb4bd2461d57aa1e935ee553f86a3e02bfed7759f2f772915de3d9be9060200160405180910390a150565b60018054610c4290611bcc565b80601f0160208091040260200160405190810160405280929190818152602001828054610c6e90611bcc565b8015610cbb5780601f10610c9057610100808354040283529160200191610cbb565b820191906000526020600020905b815481529060010190602001808311610c9e57829003601f168201915b505050505081565b60008054600160a060020a03163314610cf15760405160e560020a62461bcd02815260040161037b90611a08565b6000805b600a54811015610d7357600a8181548110610d1257610d12611e4c565b600091825260209091206003600490920201015460ff1615610d6157600a8181548110610d4157610d41611e4c565b90600052602060002090600402016001015482610d5e9190611e80565b91505b80610d6b81611e93565b915050610cf5565b50905090565b6000805481908190600160a060020a03163314610dab5760405160e560020a62461bcd02815260040161037b90611a08565b60005b600a54811015610e885784600160a060020a0316600a8281548110610dd557610dd5611e4c565b6000918252602090912060049091020154600160a060020a031603610e7657600a8181548110610e0757610e07611e4c565b906000526020600020906004020160010154600a8281548110610e2c57610e2c611e4c565b906000526020600020906004020160020154600a8381548110610e5157610e51611e4c565b6000918252602090912060036004909202010154919550935060ff169150610e959050565b80610e8081611e93565b915050610dae565b5060008060009250925092505b9193909250565b600054600160a060020a03163314610ec95760405160e560020a62461bcd02815260040161037b90611a08565b6005546006805460ff1916429290921191909117905560405160008051602061217983398151915290600090a160065460ff1615610f1c5760405160e560020a62461bcd02815260040161037b90611a33565b60008111610f6c5760405160e560020a62461bcd0281526020600482015260176024820152604a60020a76125b9d985b1a59081c1d5c98da185cd948185b5bdd5b9d02604482015260640161037b565b600160a060020a0382166000908152600b602052604081208054839290610f94908490611e80565b9091555050604051818152600160a060020a0383169030906000805160206121598339815191529060200160405180910390a360006064600f5483610fd99190611eac565b610fe39190611ec3565b9050801561107857600d54604051600160a060020a03909116906342a8d33f90429061101490600190602001611ee9565b60408051601f198184030181529082905260e060020a63ffffffff8516028252611045929186908190600401611f97565b600060405180830381600087803b15801561105f57600080fd5b505af1158015611073573d6000803e3d6000fd5b505050505b600954611083610cc3565b10611091576110918361117a565b505050565b600054600160a060020a031633146110c35760405160e560020a62461bcd02815260040161037b90611a08565b600e8054600160a060020a031916600160a060020a0383169081179091556040517f7a7b5a0a132f9e0581eb8527f66eae9ee89c2a3e79d4ac7e41a1f1f4d48a7fc290600090a250565b60085460009060ff161515600114801561113a575061112b826117fa565b8061113a575061113a82611875565b1561114757506001919050565b506000919050565b60085460009060ff16158061113a575060085460ff161515600114801561113a575061113a826118a9565b60005b600a548110156117f657600954600a828154811061119d5761119d611e4c565b906000526020600020906004020160010154116117e4576000600a82815481106111c9576111c9611e4c565b906000526020600020906004020160020154600a83815481106111ee576111ee611e4c565b90600052602060002090600402016001015461120a9190611eac565b90506000600a838154811061122157611221611e4c565b60009182526020822060049190910201600301805460ff191692151592909217909155600a80548490811061125857611258611e4c565b9060005260206000209060040201600101819055506000600a838154811061128257611282611e4c565b90600052602060002090600402016002018190555080600b6000600a85815481106112af576112af611e4c565b60009182526020808320600490920290910154600160a060020a03168352820192909252604001902054106117e25780600b6000600a85815481106112f6576112f6611e4c565b60009182526020808320600490920290910154600160a060020a031683528201929092526040018120805490919061132f908490612008565b9091555050600a80548390811061134857611348611e4c565b6000918252602090912060049091020154600a8054600160a060020a03909216913091600080516020612159833981519152918690811061138b5761138b611e4c565b9060005260206000209060040201600101546040516113ac91815260200190565b60405180910390a3600a82815481106113c7576113c7611e4c565b6000918252602090912060049091020154600a8054600160a060020a03909216917fb3986252f17979907f176dd1a9cec7e918af68be4ecfb70436ae54fe9c54697d91908590811061141b5761141b611e4c565b906000526020600020906004020160010154600a858154811061144057611440611e4c565b906000526020600020906004020160020154604051611469929190918252602082015260400190565b60405180910390a2600a828154811061148457611484611e4c565b6000918252602090912060049091020154600a8054600160a060020a03928316928616917f789f186cc0a1ce666d90fcfde7792038363d449592d55305c6d2cf30c94c574791869081106114da576114da611e4c565b906000526020600020906004020160010154600a86815481106114ff576114ff611e4c565b906000526020600020906004020160020154604051611528929190918252602082015260400190565b60405180910390a36000600a838154811061154557611545611e4c565b6000918252602090912060049091020154600d54600a8054600160a060020a03938416938893169163e9395679918890811061158357611583611e4c565b9060005260206000209060040201600101546040518263ffffffff1660e060020a0281526004016115b691815260200190565b600060405180830381865afa1580156115d3573d6000803e3d6000fd5b505050506040513d6000823e601f3d908101601f191682016040526115fb9190810190611ab9565b600d54600a8054600160a060020a039092169163e939567991908990811061162557611625611e4c565b9060005260206000209060040201600201546040518263ffffffff1660e060020a02815260040161165891815260200190565b600060405180830381865afa158015611675573d6000803e3d6000fd5b505050506040513d6000823e601f3d908101601f1916820160405261169d9190810190611ab9565b6040516020016116b0949392919061201b565b60408051601f19818403018152828252600d5460e060020a634ba1e1930284529151909350600160a060020a0390911691631e54b0d8916001918491634ba1e193916004808201926000929091908290030181865afa158015611717573d6000803e3d6000fd5b505050506040513d6000823e601f3d908101601f1916820160405261173f9190810190611ab9565b846040518463ffffffff1660e060020a028152600401611761939291906120c5565b6020604051808303816000875af1158015611780573d6000803e3d6000fd5b505050506040513d601f19601f820116820180604052508101906117a49190611d01565b50600a83815481106117b8576117b8611e4c565b906000526020600020906004020160010154600960008282546117db9190612008565b9091555050505b505b806117ee81611e93565b91505061117d565b5050565b600d5460405160e060020a632d598d7b028152600091600160a060020a031690632d598d7b9061182e90859060040161195e565b602060405180830381865afa15801561184b573d6000803e3d6000fd5b505050506040513d601f19601f8201168201806040525081019061186f9190612136565b92915050565b600d5460405160e260020a6324160ca1028152600091600160a060020a03169063905832849061182e90859060040161195e565b600d5460405160e060020a633af32abf028152600091600160a060020a031690633af32abf9061182e90859060040161195e565b8035600160a060020a03811681146118f457600080fd5b919050565b60006020828403121561190b57600080fd5b611914826118dd565b9392505050565b60006020828403121561192d57600080fd5b5035919050565b6000806040838503121561194757600080fd5b611950836118dd565b946020939093013593505050565b600160a060020a0391909116815260200190565b60008060006060848603121561198757600080fd5b611990846118dd565b95602085013595506040909401359392505050565b60005b838110156119c05781810151838201526020016119a8565b50506000910152565b600081518084526119e18160208601602086016119a5565b601f01601f19169290920160200192915050565b60208152600061191460208301846119c9565b6020808252600e90820152609260020a6d1b9bdd08185d5d1a1bdc9a5e995902604082015260600190565b6020808252601c908201527f54686520626f6e642068617320616c7265616479206d61747572656400000000604082015260600190565b6020808252818101527f6e6f742061636372656469746564206e6f722062726f6b65722d6465616c6572604082015260600190565b60e060020a634e487b710260009081526041600452602490fd5b600060208284031215611acb57600080fd5b81516001604060020a0380821115611ae257600080fd5b818401915084601f830112611af657600080fd5b815181811115611b0857611b08611a9f565b604051601f8201601f19908116603f01168101908382118183101715611b3057611b30611a9f565b81604052828152876020848701011115611b4957600080fd5b611b5a8360208301602088016119a5565b979650505050505050565b608560020a6f0212927a5a2a916a222a0a622a2a91d1028152600160a060020a038316606060020a02601082015260bd60020a68016102aa724aa299d10260248201528151600090611bbe81602d8501602087016119a5565b91909101602d019392505050565b600281046001821680611be057607f821691505b602082108103611c045760e060020a634e487b710260009081526022600452602490fd5b50919050565b60008154611c1781611bcc565b808552602060018381168015611c345760018114611c4d57611c7b565b60ff198516888401528315158302880183019550611c7b565b866000528260002060005b85811015611c735781548a8201860152908301908401611c58565b890184019650505b505050505092915050565b608081526000611c996080830186611c0a565b8281036020840152611cab81866119c9565b9050828103806040850152601c82527f4d756e69636970616c20426f6e642054726164652052656d6f76656400000000602083015260408101606085015250611cf760408201856119c9565b9695505050505050565b600060208284031215611d1357600080fd5b5051919050565b6020808252601290820152607060020a71496e76616c696420626f6e6420756e69747302604082015260600190565b608560020a6f0212927a5a2a916a222a0a622a2a91d1028152600160a060020a038416606060020a02601082015260bd60020a68016102aa724aa299d10260248201528251600090611da281602d8501602088016119a5565b60bd60020a6801610282924a1a29d102602d918401918201528351611dce8160368401602088016119a5565b0160360195945050505050565b608081526000611dee6080830186611c0a565b8281036020840152611e0081866119c9565b9050828103806040850152601a82527f4d756e69636970616c20426f6e64205472616465204164646564000000000000602083015260408101606085015250611cf760408201856119c9565b60e060020a634e487b710260009081526032600452602490fd5b60e060020a634e487b710260009081526011600452602490fd5b8082018082111561186f5761186f611e66565b600060018201611ea557611ea5611e66565b5060010190565b808202811582820484141761186f5761186f611e66565b600082611ee45760e060020a634e487b710260009081526012600452602490fd5b500490565b609d60020a6c02921a2ac102332b2903337b910281526000600d60008454611f1081611bcc565b60018281168015611f285760018114611f4157611f74565b60ff198416888701528215158302880186019450611f74565b8860005260208060002060005b85811015611f695781548b82018a0152908401908201611f4e565b505050858389010194505b505060a960020a6a103137b732103a37b5b2b70283525050600b01949350505050565b84815260c06020820152600460c082015260e360020a63086c2e6d0260e082015260006101008060408401526008818401525060c060020a67524345582046656502610120830152610140806060840152611ff4818401876119c9565b6080840195909552505060a0015292915050565b8181038181111561186f5761186f611e66565b60c560020a67029a2a62622a91d1028152606060020a600160a060020a038681168202600884015260bd60020a6801610212aaca2a91d102601c840152851602602582015260bd60020a68016102aa724aa299d1026039820152825160009061208b8160428501602088016119a5565b60bd60020a6801610282924a1a29d10260429184019182015283516120b781604b8401602088016119a5565b01604b019695505050505050565b6080815260006120d86080830186611c0a565b82810360208401526120ea81866119c9565b9050828103806040850152601d82527f4d756e69636970616c20426f6e64205472616465204578656375746564000000602083015260408101606085015250611cf760408201856119c9565b60006020828403121561214857600080fd5b8151801515811461191457600080fdfeddf252ad1be2c89b69c2b068fc378daa952ba7f163c4a11628f55a4df523b3ef3f8e46bc23c7815f0b03f7ec17eba7162ce102a7ff38c5c7a42eec74f4f9b94fa2646970667358221220abd50d2177040d1d898f59c5b50ba0d271b246f6049d7362a3acee90bdaa180a64736f6c63430008120033",
  "immutableReferences": {},
  "source": "// SPDX-License-Identifier: BSL-1.1\npragma solidity >=0.4.22 <0.9.0;\n\nimport \"../../interfaces/IExemptLiquidityMarketExchange.sol\";\n\ncontract ELMXMunicipalBond {\n    struct Investor {\n        uint256 principal;\n        uint256 interestEarned;\n        bool redeemed;\n    }\n\n    struct BondTrade {\n        address seller;\n        uint256 bondUnits;\n        uint256 price; \n    }\n\n    struct BondQuote {\n        address seller;\n        uint256 bondUnits;\n        uint256 price;\n        bool active;\n    }\n\n    address public owner;\n\n    string public bondName;\n    address public bondIssuer;\n    uint256 public bondTotalPrincipal;\n    uint256 public bondInterestRate;\n    uint256 public bondMaturityDate;\n    bool public isMatured;\n    uint256 public depositBalance;\n    bool public bondRestricted;\n    uint256 public maxBondUnits;\n    BondQuote[] public bondQuotes;\n\n    mapping(address => Investor) public investors;\n    mapping(address => uint256) public investorQuotes;\n\n    IExemptLiquidityMarketExchange public exchangeContract;\n\n    address public feeRecipient;\n    uint256 public FeePercentage = 1; // Fee percentage\n\n    event FeeRecipientUpdated(address indexed newRecipient);\n    event FeePercentageUpdated(uint256 newPercentage);\n    event Transfer(address indexed from, address indexed to, uint256 value);\n    event BondMatured();\n    event BondTradeAdded(address indexed seller, uint256 bondUnits, uint256 price);\n    event BondTradeExecuted(address indexed buyer, address indexed seller, uint256 bondUnits, uint256 price);\n    event BondQuoteAdded(address indexed seller, uint256 bondUnits, uint256 price);\n    event BondQuoteRemoved(address indexed seller);\n\n    modifier isOwner() {\n        require(msg.sender == owner,\"not authorized\");\n        _;\n    }\n\n    modifier notMatured() {\n        isMatured = block.timestamp > bondMaturityDate;\n        emit BondMatured();\n        require(!isMatured, \"The bond has already matured\");\n        _;\n    }\n\n\n    constructor(\n        string memory name,\n        address issuer,\n        uint256 totalPrincipal,\n        uint256 interestRate,\n        uint256 maturityDate,\n        bool restricted,\n        uint256 maxUnits,\n        address exchangeAddress\n    ) {\n        owner = msg.sender;\n\n        bondName = name;\n        bondIssuer = issuer;\n        bondTotalPrincipal = totalPrincipal;\n        bondInterestRate = interestRate;\n        bondMaturityDate = maturityDate;\n        isMatured = false;\n        depositBalance = 0;\n        bondRestricted = restricted;\n        maxBondUnits = maxUnits;\n\n        exchangeContract = IExemptLiquidityMarketExchange(exchangeAddress);\n    }\n\n    function setFeeRecipient(address wallet) external isOwner {\n        feeRecipient = address(wallet);\n        emit FeeRecipientUpdated(wallet);       \n    }\n\n    function setFee(uint256 fee) external isOwner {\n        require(fee <= 100, \"Fee percentage must be 100 or less\");\n        FeePercentage = fee; // 1=1% deposit fee\n        emit FeePercentageUpdated(fee);\n    }\n\n    /**\n     *  This modifier restricts access to the buy function to registered investors when the restricted flag is set \n     *  to false, or when the flag is set to true and the investor is also a registered investor.\n     */\n    function onlyRegisteredInvestors(address wallet) internal view returns (bool) {\n        if (bondRestricted == false || (bondRestricted == true && isRegisteredInvestor(wallet))) {\n            return true;\n        }\n        return false;\n    }\n\n    /**\n     * This modifier restricts access to the buy function to accredited investors and broker dealers \n     * when the restricted flag is set to true.\n     */ \n    function onlyAccreditedAndBrokerDealers(address wallet) internal view returns (bool) {\n        if (bondRestricted == true && (isAccreditedInvestor(wallet) || isBrokerDealer(wallet))) {\n            return true;\n        }\n        return false;\n    }\n\n    function isAccreditedInvestor(address investor) internal view returns (bool) {\n        // Implement your own logic to determine if the investor is accredited\n        // This could involve checking their income, net worth, or other requirements\n        // Return true if the investor is accredited, otherwise return false\n        return exchangeContract.isAccredited(investor);\n    }\n\n    function isBrokerDealer(address investor) internal view returns (bool) {\n        // Implement your own logic to determine if the investor is a broker dealer\n        // Return true if the investor is a broker dealer, otherwise return false\n        return exchangeContract.isBrokerDealer(investor);\n    }\n\n    function isRegisteredInvestor(address investor) internal view returns (bool) {\n        // Implement your own logic to determine if the investor is a registered investor\n        // This could involve checking a registration status or qualification requirements\n        // Return true if the investor is a registered investor, otherwise return false\n        return exchangeContract.isWhitelisted(investor);\n    }\n\n    function buy(address wallet,uint256 amount) external isOwner notMatured {\n\n        require(amount > 0, \"Invalid purchase amount\");\n\n        investors[wallet].principal += amount;\n\n        emit Transfer(address(this), wallet, amount);\n\n        // Calculate the total fee amount\n        uint256 Fee = (amount * FeePercentage) / 100;\n        // Transfer the fee amount to the fee recipient\n        if (Fee > 0) {\n            exchangeContract.addEntry(block.timestamp,\"Cash\",\"RCEX Fee\",string(abi.encodePacked(\"RCEX Fee for \",bondName,\" bond token\")),int256(Fee),int256(Fee));\n        }\n\n        // Check if the bond is fully funded\n        if (getTotalBondUnits() >= maxBondUnits) {\n            executeBondTrades(wallet);\n        }\n    }\n\n    function executeBondTrades(address wallet) internal {\n        for (uint256 i = 0; i < bondQuotes.length; i++) {\n            if (bondQuotes[i].bondUnits <= maxBondUnits) {\n                uint256 totalAmount = bondQuotes[i].bondUnits * bondQuotes[i].price;\n                bondQuotes[i].active = false;\n                bondQuotes[i].bondUnits = 0;\n                bondQuotes[i].price = 0;\n                //payable(bondQuotes[i].seller).transfer(totalAmount);\n                if (investors[bondQuotes[i].seller].principal >= totalAmount) {\n                    investors[bondQuotes[i].seller].principal -= totalAmount;\n\n                    emit Transfer(address(this), bondQuotes[i].seller, bondQuotes[i].bondUnits);\n                    emit BondTradeAdded(bondQuotes[i].seller, bondQuotes[i].bondUnits, bondQuotes[i].price);\n                    emit BondTradeExecuted(wallet, bondQuotes[i].seller, bondQuotes[i].bondUnits, bondQuotes[i].price);\n\n                    // save CAT\n                    string memory eventData = string(abi.encodePacked(\"SELLER: \", bondQuotes[i].seller, \", BUYER: \", wallet, \", UNITS: \", exchangeContract.uintToString(bondQuotes[i].bondUnits), \", PRICE: \", exchangeContract.uintToString(bondQuotes[i].price)));\n                    exchangeContract.addAuditEntry(bondName,exchangeContract.timestampToString(),\"Municipal Bond Trade Executed\",eventData);\n\n                    maxBondUnits -= bondQuotes[i].bondUnits;\n                }\n            }\n        }\n    }\n\n    function addBondTrade(address wallet,uint256 bondUnits, uint256 price) external isOwner notMatured {\n        require(onlyAccreditedAndBrokerDealers(wallet),\"not accredited nor broker-dealer\");\n        require(bondUnits > 0, \"Invalid bond units\");\n        require(price > 0, \"Invalid price\");\n\n        bondQuotes.push(BondQuote(wallet, bondUnits, price, true));\n\n        emit BondQuoteAdded(wallet, bondUnits, price);\n\n        // save CAT\n        string memory eventData = string(abi.encodePacked(\"BROKER-DEALEER: \", wallet,\", UNITS: \", exchangeContract.uintToString(bondUnits), \", PRICE: \", exchangeContract.uintToString(price)));\n        exchangeContract.addAuditEntry(bondName,exchangeContract.timestampToString(),\"Municipal Bond Trade Added\",eventData);\n    }\n\n    function removeBondQuote(address wallet) external isOwner notMatured {\n        require(onlyAccreditedAndBrokerDealers(wallet),\"not accredited nor broker-dealer\");\n        require(investorQuotes[wallet] > 0, \"No bond quote available\");\n\n        uint256 bondUnits = investorQuotes[wallet];\n        investorQuotes[wallet] = 0;\n\n        emit BondQuoteRemoved(wallet);\n\n        // save CAT\n        string memory eventData = string(abi.encodePacked(\"BROKER-DEALEER: \", wallet,\", UNITS: \", exchangeContract.uintToString(bondUnits)));\n        exchangeContract.addAuditEntry(bondName,exchangeContract.timestampToString(),\"Municipal Bond Trade Removed\",eventData);\n    }\n\n    function getTotalBondUnits() public view isOwner returns (uint256) {\n        uint256 totalUnits = 0;\n        for (uint256 i = 0; i < bondQuotes.length; i++) {\n            if (bondQuotes[i].active) {\n                totalUnits += bondQuotes[i].bondUnits;\n            }\n        }\n        return totalUnits;\n    }\n\n    function quoteBondUnits(address wallet,uint256 bondUnits) external isOwner {\n        require(onlyRegisteredInvestors(wallet),\"not registered\");\n        require(bondUnits > 0, \"Invalid bond units\");\n\n        investorQuotes[wallet] = bondUnits;\n    }\n\n    function getBondQuote(address seller) public view isOwner returns (uint256 bondUnits, uint256 price, bool active) {\n        for (uint256 i = 0; i < bondQuotes.length; i++) {\n            if (bondQuotes[i].seller == seller) {\n                return (\n                    bondQuotes[i].bondUnits,\n                    bondQuotes[i].price,\n                    bondQuotes[i].active\n                );\n            }\n        }\n        return (0, 0, false);\n    }\n}",
  "sourcePath": "/Volumes/My Book/projects/pingleware-contracts/contracts/finance/elmx/ELMXMunicipalBond.sol",
  "compiler": {
    "name": "solc",
    "version": "0.8.18+commit.87f61d96.Emscripten.clang"
  },
  "schemaVersion": "3.4.12",
  "updatedAt": "2023-10-23T10:26:07.749Z",
  "devdoc": {
    "kind": "dev",
    "methods": {},
    "version": 1
  },
  "userdoc": {
    "kind": "user",
    "methods": {},
    "version": 1
  }
}