{
  "contractName": "EndUserRole",
  "abi": [
    {
      "inputs": [],
      "stateMutability": "nonpayable",
      "type": "constructor"
    },
    {
      "anonymous": false,
      "inputs": [
        {
          "indexed": true,
          "internalType": "address",
          "name": "account",
          "type": "address"
        }
      ],
      "name": "EndUserAdded",
      "type": "event"
    },
    {
      "anonymous": false,
      "inputs": [
        {
          "indexed": true,
          "internalType": "address",
          "name": "account",
          "type": "address"
        }
      ],
      "name": "EndUserRemoved",
      "type": "event"
    },
    {
      "inputs": [
        {
          "internalType": "address",
          "name": "account",
          "type": "address"
        }
      ],
      "name": "isEndUser",
      "outputs": [
        {
          "internalType": "bool",
          "name": "",
          "type": "bool"
        }
      ],
      "stateMutability": "view",
      "type": "function"
    },
    {
      "inputs": [
        {
          "internalType": "address",
          "name": "account",
          "type": "address"
        }
      ],
      "name": "addEndUser",
      "outputs": [],
      "stateMutability": "nonpayable",
      "type": "function"
    },
    {
      "inputs": [],
      "name": "renounceEndUser",
      "outputs": [],
      "stateMutability": "nonpayable",
      "type": "function"
    }
  ],
  "bytecode": "0x608060405234801561001057600080fd5b5061002333640100000000610028810204565b6101a2565b61004060008264010000000061013161007782021704565b604051600160a060020a038216907fc3f6032baab071079d5ea3936ce1a6802e40430628436f75d2905378cb9f3a3690600090a250565b600160a060020a0381166100c0576040517f08c379a00000000000000000000000000000000000000000000000000000000081526004016100b790610191565b60405180910390fd5b6100d3828264010000000061012f810204565b1561010a576040517f08c379a00000000000000000000000000000000000000000000000000000000081526004016100b790610191565b600160a060020a0316600090815260209190915260409020805460ff19166001179055565b6000600160a060020a038216610171576040517f08c379a00000000000000000000000000000000000000000000000000000000081526004016100b790610191565b50600160a060020a03166000908152602091909152604090205460ff1690565b602080825260009082015260400190565b610363806101b16000396000f3fe608060405234801561001057600080fd5b50600436106100445760e060020a60003504633912df458114610049578063c688a47814610053578063e93e4c151461007a575b600080fd5b61005161008d565b005b6100666100613660046102ec565b610098565b604051901515815260200160405180910390f35b6100516100883660046102ec565b6100aa565b610096336101a9565b565b60006100a481836101eb565b92915050565b6100b333610098565b6101255760405160e560020a62461bcd02815260206004820152603260248201527f596f75206e65656420746f20686176652074686520636f6e73756d657220726f6044820152607060020a716c6520746f20706572666f726d20746869730260648201526084015b60405180910390fd5b61012e81610236565b50565b600160a060020a03811661015a5760405160e560020a62461bcd02815260040161011c9061031c565b61016482826101eb565b156101845760405160e560020a62461bcd02815260040161011c9061031c565b600160a060020a0316600090815260209190915260409020805460ff19166001179055565b6101b4600082610278565b604051600160a060020a038216907f5e478ea50bfc31d2ddb8bd029e9d2304b9fde7e2041b22383845686d148da7ca90600090a250565b6000600160a060020a0382166102165760405160e560020a62461bcd02815260040161011c9061031c565b50600160a060020a03166000908152602091909152604090205460ff1690565b610241600082610131565b604051600160a060020a038216907fc3f6032baab071079d5ea3936ce1a6802e40430628436f75d2905378cb9f3a3690600090a250565b600160a060020a0381166102a15760405160e560020a62461bcd02815260040161011c9061031c565b6102ab82826101eb565b6102ca5760405160e560020a62461bcd02815260040161011c9061031c565b600160a060020a0316600090815260209190915260409020805460ff19169055565b6000602082840312156102fe57600080fd5b8135600160a060020a038116811461031557600080fd5b9392505050565b60208082526000908201526040019056fea2646970667358221220b6a435abb21babc09c059176ff27df684d6970aa61a687b4945dc9af836927e264736f6c63430008120033",
  "immutableReferences": {},
  "source": "// SPDX-License-Identifier: CC-BY-4.0\r\npragma solidity >=0.4.22 <0.9.0;\r\n\r\n\r\n// Import the library 'Roles'\r\nimport \"./Roles.sol\";\r\n\r\n// Define a contract 'EndUserRole' to manage this role - add, remove, check\r\ncontract EndUserRole {\r\n  using Roles for Roles.Role;\r\n\r\n  // Define 2 events, one for Adding, and other for Removing\r\n  event EndUserAdded(address indexed account);\r\n  event EndUserRemoved(address indexed account);\r\n\r\n  // Define a struct 'endusers' by inheriting from 'Roles' library, struct Role\r\n  Roles.Role private endusers;\r\n\r\n  // In the constructor make the address that deploys this contract the 1st consumer\r\n  constructor() {\r\n      _addEndUser(msg.sender);\r\n  }\r\n\r\n  // Define a modifier that checks to see if msg.sender has the appropriate role\r\n  modifier onlyEndUser() {\r\n    require(isEndUser(msg.sender), \"You need to have the consumer role to perform this\");\r\n    _;\r\n  }\r\n\r\n  // Define a function 'isEndUser' to check this role\r\n  function isEndUser(address account) public view returns (bool) {\r\n    return endusers.has(account);\r\n  }\r\n\r\n  // Define a function 'addEndUser' that adds this role\r\n  function addEndUser(address account) public onlyEndUser {\r\n    _addEndUser(account);\r\n  }\r\n\r\n  // Define a function 'renounceEndUser' to renounce this role\r\n  function renounceEndUser() public {\r\n    _removeEndUser(msg.sender);\r\n  }\r\n\r\n  // Define an internal function '_addEndUser' to add this role, called by 'addEndUser'\r\n  function _addEndUser(address account) internal {\r\n    endusers.add(account);\r\n    emit EndUserAdded(account);\r\n  }\r\n\r\n  // Define an internal function '_removeEndUser' to remove this role, called by 'removeEndUser'\r\n  function _removeEndUser(address account) internal {\r\n    endusers.remove(account);\r\n    emit EndUserRemoved(account);\r\n  }\r\n}",
  "sourcePath": "/Volumes/My Book/projects/pingleware-contracts/contracts/scm/EndUserRole.sol",
  "compiler": {
    "name": "solc",
    "version": "0.8.18+commit.87f61d96.Emscripten.clang"
  },
  "schemaVersion": "3.4.12",
  "updatedAt": "2023-10-22T04:04:52.633Z",
  "devdoc": {
    "kind": "dev",
    "methods": {},
    "version": 1
  },
  "userdoc": {
    "kind": "user",
    "methods": {},
    "version": 1
  }
}