{
  "contractName": "EndUserRole",
  "abi": [
    {
      "inputs": [],
      "stateMutability": "nonpayable",
      "type": "constructor"
    },
    {
      "anonymous": false,
      "inputs": [
        {
          "indexed": true,
          "internalType": "address",
          "name": "account",
          "type": "address"
        }
      ],
      "name": "EndUserAdded",
      "type": "event"
    },
    {
      "anonymous": false,
      "inputs": [
        {
          "indexed": true,
          "internalType": "address",
          "name": "account",
          "type": "address"
        }
      ],
      "name": "EndUserRemoved",
      "type": "event"
    },
    {
      "inputs": [
        {
          "internalType": "address",
          "name": "account",
          "type": "address"
        }
      ],
      "name": "isEndUser",
      "outputs": [
        {
          "internalType": "bool",
          "name": "",
          "type": "bool"
        }
      ],
      "stateMutability": "view",
      "type": "function"
    },
    {
      "inputs": [
        {
          "internalType": "address",
          "name": "account",
          "type": "address"
        }
      ],
      "name": "addEndUser",
      "outputs": [],
      "stateMutability": "nonpayable",
      "type": "function"
    },
    {
      "inputs": [],
      "name": "renounceEndUser",
      "outputs": [],
      "stateMutability": "nonpayable",
      "type": "function"
    }
  ],
  "bytecode": "0x6080604052346100825761001d33151561001881610087565b610087565b60003381528060205261003760ff60408320541615610087565b3381528060205260408120600160ff19825416179055604051907fc3f6032baab071079d5ea3936ce1a6802e40430628436f75d2905378cb9f3a36339180a261027890816100c78239f35b600080fd5b1561008e57565b60446040517f08c379a00000000000000000000000000000000000000000000000000000000081526020600482015260006024820152fdfe604060808152600436101561001357600080fd5b60009060e060020a823504633912df45811461018b578063c688a4781461014d5763e93e4c151461004357600080fd5b3461014957602036600319011261014957600435600160a060020a0381169190828103610145576100753315156101f1565b3384528360205260ff8285205416156100e05761009f6100a59161009a8515156101f1565b61021a565b156101f1565b818352826020528220600160ff198254161790557fc3f6032baab071079d5ea3936ce1a6802e40430628436f75d2905378cb9f3a368280a280f35b815160e560020a62461bcd02815260206004820152603260248201527f596f75206e65656420746f20686176652074686520636f6e73756d657220726f6044820152607060020a716c6520746f20706572666f726d2074686973026064820152608490fd5b8380fd5b5080fd5b50346101495760203660031901126101495760043591600160a060020a0383168303610188575061017f60209261021a565b90519015158152f35b80fd5b50346101495781600319360112610149576101a73315156101f1565b6101b86101b33361021a565b6101f1565b33825281602052812060ff198154169055337f5e478ea50bfc31d2ddb8bd029e9d2304b9fde7e2041b22383845686d148da7ca8280a280f35b156101f857565b60405160e560020a62461bcd0281526020600482015260006024820152604490fd5b600160a060020a031661022e8115156101f1565b600052600060205260ff604060002054169056fea26469706673582212203898d08bb45e1fed3da93ab44f15fa5a43008f974fbe29e244c820b68a7f37a364736f6c63430008120033",
  "immutableReferences": {},
  "source": "// SPDX-License-Identifier: CC-BY-4.0\r\npragma solidity >=0.4.22 <0.9.0;\r\n\r\n\r\n// Import the library 'Roles'\r\nimport \"./Roles.sol\";\r\n\r\n// Define a contract 'EndUserRole' to manage this role - add, remove, check\r\ncontract EndUserRole {\r\n  using Roles for Roles.Role;\r\n\r\n  // Define 2 events, one for Adding, and other for Removing\r\n  event EndUserAdded(address indexed account);\r\n  event EndUserRemoved(address indexed account);\r\n\r\n  // Define a struct 'endusers' by inheriting from 'Roles' library, struct Role\r\n  Roles.Role private endusers;\r\n\r\n  // In the constructor make the address that deploys this contract the 1st consumer\r\n  constructor() {\r\n      _addEndUser(msg.sender);\r\n  }\r\n\r\n  // Define a modifier that checks to see if msg.sender has the appropriate role\r\n  modifier onlyEndUser() {\r\n    require(isEndUser(msg.sender), \"You need to have the consumer role to perform this\");\r\n    _;\r\n  }\r\n\r\n  // Define a function 'isEndUser' to check this role\r\n  function isEndUser(address account) public view returns (bool) {\r\n    return endusers.has(account);\r\n  }\r\n\r\n  // Define a function 'addEndUser' that adds this role\r\n  function addEndUser(address account) public onlyEndUser {\r\n    _addEndUser(account);\r\n  }\r\n\r\n  // Define a function 'renounceEndUser' to renounce this role\r\n  function renounceEndUser() public {\r\n    _removeEndUser(msg.sender);\r\n  }\r\n\r\n  // Define an internal function '_addEndUser' to add this role, called by 'addEndUser'\r\n  function _addEndUser(address account) internal {\r\n    endusers.add(account);\r\n    emit EndUserAdded(account);\r\n  }\r\n\r\n  // Define an internal function '_removeEndUser' to remove this role, called by 'removeEndUser'\r\n  function _removeEndUser(address account) internal {\r\n    endusers.remove(account);\r\n    emit EndUserRemoved(account);\r\n  }\r\n}",
  "sourcePath": "/Volumes/HOME/pingleware-contracts/contracts/scm/EndUserRole.sol",
  "compiler": {
    "name": "solc",
    "version": "0.8.18+commit.87f61d96.Emscripten.clang"
  },
  "schemaVersion": "3.4.12",
  "updatedAt": "2024-05-23T18:56:27.166Z",
  "devdoc": {
    "kind": "dev",
    "methods": {},
    "version": 1
  },
  "userdoc": {
    "kind": "user",
    "methods": {},
    "version": 1
  }
}