{
  "contractName": "EnergyStore",
  "abi": [
    {
      "anonymous": false,
      "inputs": [
        {
          "indexed": true,
          "internalType": "address",
          "name": "producer",
          "type": "address"
        },
        {
          "indexed": true,
          "internalType": "uint32",
          "name": "day",
          "type": "uint32"
        },
        {
          "indexed": true,
          "internalType": "uint32",
          "name": "price",
          "type": "uint32"
        },
        {
          "indexed": false,
          "internalType": "uint64",
          "name": "energy",
          "type": "uint64"
        }
      ],
      "name": "BidMade",
      "type": "event"
    },
    {
      "anonymous": false,
      "inputs": [
        {
          "indexed": true,
          "internalType": "address",
          "name": "producer",
          "type": "address"
        },
        {
          "indexed": true,
          "internalType": "uint32",
          "name": "day",
          "type": "uint32"
        },
        {
          "indexed": true,
          "internalType": "uint32",
          "name": "price",
          "type": "uint32"
        },
        {
          "indexed": false,
          "internalType": "uint64",
          "name": "energy",
          "type": "uint64"
        }
      ],
      "name": "BidRevoked",
      "type": "event"
    },
    {
      "anonymous": false,
      "inputs": [
        {
          "indexed": true,
          "internalType": "address",
          "name": "producer",
          "type": "address"
        },
        {
          "indexed": true,
          "internalType": "uint32",
          "name": "day",
          "type": "uint32"
        },
        {
          "indexed": false,
          "internalType": "uint32",
          "name": "price",
          "type": "uint32"
        },
        {
          "indexed": false,
          "internalType": "uint64",
          "name": "energy",
          "type": "uint64"
        },
        {
          "indexed": true,
          "internalType": "uint32",
          "name": "userID",
          "type": "uint32"
        }
      ],
      "name": "Deal",
      "type": "event"
    },
    {
      "anonymous": false,
      "inputs": [
        {
          "indexed": true,
          "internalType": "address",
          "name": "producer",
          "type": "address"
        },
        {
          "indexed": true,
          "internalType": "uint32",
          "name": "day",
          "type": "uint32"
        },
        {
          "indexed": false,
          "internalType": "uint32",
          "name": "price",
          "type": "uint32"
        },
        {
          "indexed": false,
          "internalType": "uint64",
          "name": "energy",
          "type": "uint64"
        },
        {
          "indexed": true,
          "internalType": "uint32",
          "name": "userID",
          "type": "uint32"
        }
      ],
      "name": "DealRevoked",
      "type": "event"
    },
    {
      "anonymous": false,
      "inputs": [
        {
          "indexed": false,
          "internalType": "address",
          "name": "sender",
          "type": "address"
        },
        {
          "indexed": false,
          "internalType": "address",
          "name": "recipient",
          "type": "address"
        }
      ],
      "name": "Destroyed",
      "type": "event"
    },
    {
      "anonymous": false,
      "inputs": [
        {
          "indexed": false,
          "internalType": "address",
          "name": "sender",
          "type": "address"
        },
        {
          "indexed": false,
          "internalType": "uint256",
          "name": "amount",
          "type": "uint256"
        }
      ],
      "name": "FallbackEvent",
      "type": "event"
    },
    {
      "anonymous": false,
      "inputs": [
        {
          "indexed": true,
          "internalType": "address",
          "name": "previousOwner",
          "type": "address"
        },
        {
          "indexed": true,
          "internalType": "address",
          "name": "newOwner",
          "type": "address"
        }
      ],
      "name": "OwnershipTransferred",
      "type": "event"
    },
    {
      "anonymous": false,
      "inputs": [
        {
          "indexed": false,
          "internalType": "address",
          "name": "sender",
          "type": "address"
        },
        {
          "indexed": false,
          "internalType": "uint256",
          "name": "amount",
          "type": "uint256"
        }
      ],
      "name": "ReceiveEvent",
      "type": "event"
    },
    {
      "anonymous": false,
      "inputs": [
        {
          "indexed": false,
          "internalType": "address",
          "name": "sender",
          "type": "address"
        },
        {
          "indexed": false,
          "internalType": "bytes",
          "name": "reason",
          "type": "bytes"
        }
      ],
      "name": "Started",
      "type": "event"
    },
    {
      "anonymous": false,
      "inputs": [
        {
          "indexed": false,
          "internalType": "address",
          "name": "sender",
          "type": "address"
        },
        {
          "indexed": false,
          "internalType": "bytes",
          "name": "reason",
          "type": "bytes"
        }
      ],
      "name": "Stopped",
      "type": "event"
    },
    {
      "anonymous": false,
      "inputs": [
        {
          "indexed": false,
          "internalType": "address",
          "name": "sender",
          "type": "address"
        },
        {
          "indexed": false,
          "internalType": "string",
          "name": "reason",
          "type": "string"
        }
      ],
      "name": "Termination",
      "type": "event"
    },
    {
      "anonymous": false,
      "inputs": [
        {
          "indexed": true,
          "internalType": "address",
          "name": "consumer",
          "type": "address"
        }
      ],
      "name": "consumerDeregistered",
      "type": "event"
    },
    {
      "anonymous": false,
      "inputs": [
        {
          "indexed": true,
          "internalType": "address",
          "name": "consumer",
          "type": "address"
        }
      ],
      "name": "consumerRegistered",
      "type": "event"
    },
    {
      "anonymous": false,
      "inputs": [
        {
          "indexed": true,
          "internalType": "address",
          "name": "producer",
          "type": "address"
        }
      ],
      "name": "producerDeregistered",
      "type": "event"
    },
    {
      "anonymous": false,
      "inputs": [
        {
          "indexed": true,
          "internalType": "address",
          "name": "producer",
          "type": "address"
        }
      ],
      "name": "producerRegistered",
      "type": "event"
    },
    {
      "stateMutability": "payable",
      "type": "fallback",
      "payable": true
    },
    {
      "inputs": [],
      "name": "VERSION",
      "outputs": [
        {
          "internalType": "string",
          "name": "",
          "type": "string"
        }
      ],
      "stateMutability": "view",
      "type": "function",
      "constant": true
    },
    {
      "inputs": [],
      "name": "WAIT",
      "outputs": [
        {
          "internalType": "uint256",
          "name": "",
          "type": "uint256"
        }
      ],
      "stateMutability": "view",
      "type": "function",
      "constant": true
    },
    {
      "inputs": [
        {
          "internalType": "uint256",
          "name": "",
          "type": "uint256"
        }
      ],
      "name": "asks",
      "outputs": [
        {
          "internalType": "address",
          "name": "producer",
          "type": "address"
        },
        {
          "internalType": "uint32",
          "name": "day",
          "type": "uint32"
        },
        {
          "internalType": "uint32",
          "name": "price",
          "type": "uint32"
        },
        {
          "internalType": "uint64",
          "name": "energy",
          "type": "uint64"
        },
        {
          "internalType": "uint32",
          "name": "userID",
          "type": "uint32"
        },
        {
          "internalType": "uint64",
          "name": "timestamp",
          "type": "uint64"
        }
      ],
      "stateMutability": "view",
      "type": "function",
      "constant": true
    },
    {
      "inputs": [
        {
          "internalType": "uint32",
          "name": "",
          "type": "uint32"
        }
      ],
      "name": "asksIndex",
      "outputs": [
        {
          "internalType": "uint256",
          "name": "",
          "type": "uint256"
        }
      ],
      "stateMutability": "view",
      "type": "function",
      "constant": true
    },
    {
      "inputs": [
        {
          "internalType": "uint256",
          "name": "",
          "type": "uint256"
        }
      ],
      "name": "bids",
      "outputs": [
        {
          "internalType": "address",
          "name": "producer",
          "type": "address"
        },
        {
          "internalType": "uint32",
          "name": "day",
          "type": "uint32"
        },
        {
          "internalType": "uint32",
          "name": "price",
          "type": "uint32"
        },
        {
          "internalType": "uint64",
          "name": "energy",
          "type": "uint64"
        },
        {
          "internalType": "uint64",
          "name": "timestamp",
          "type": "uint64"
        }
      ],
      "stateMutability": "view",
      "type": "function",
      "constant": true
    },
    {
      "inputs": [
        {
          "internalType": "address",
          "name": "",
          "type": "address"
        },
        {
          "internalType": "uint32",
          "name": "",
          "type": "uint32"
        }
      ],
      "name": "bidsIndex",
      "outputs": [
        {
          "internalType": "uint256",
          "name": "",
          "type": "uint256"
        }
      ],
      "stateMutability": "view",
      "type": "function",
      "constant": true
    },
    {
      "inputs": [
        {
          "internalType": "address",
          "name": "",
          "type": "address"
        }
      ],
      "name": "consumers",
      "outputs": [
        {
          "internalType": "uint32",
          "name": "",
          "type": "uint32"
        }
      ],
      "stateMutability": "view",
      "type": "function",
      "constant": true
    },
    {
      "inputs": [
        {
          "internalType": "address",
          "name": "aproducer",
          "type": "address"
        }
      ],
      "name": "deregisterProducer",
      "outputs": [],
      "stateMutability": "payable",
      "type": "function",
      "payable": true
    },
    {
      "inputs": [],
      "name": "destroy",
      "outputs": [],
      "stateMutability": "nonpayable",
      "type": "function"
    },
    {
      "inputs": [
        {
          "internalType": "address",
          "name": "_recipient",
          "type": "address"
        }
      ],
      "name": "destroyAndSend",
      "outputs": [],
      "stateMutability": "nonpayable",
      "type": "function"
    },
    {
      "inputs": [],
      "name": "getOwner",
      "outputs": [
        {
          "internalType": "address",
          "name": "",
          "type": "address"
        }
      ],
      "stateMutability": "payable",
      "type": "function",
      "payable": true
    },
    {
      "inputs": [
        {
          "internalType": "address",
          "name": "",
          "type": "address"
        }
      ],
      "name": "producers",
      "outputs": [
        {
          "internalType": "bool",
          "name": "",
          "type": "bool"
        }
      ],
      "stateMutability": "view",
      "type": "function",
      "constant": true
    },
    {
      "inputs": [
        {
          "internalType": "address",
          "name": "aconsumer",
          "type": "address"
        },
        {
          "internalType": "uint32",
          "name": "auserID",
          "type": "uint32"
        }
      ],
      "name": "registerConsumer",
      "outputs": [],
      "stateMutability": "payable",
      "type": "function",
      "payable": true
    },
    {
      "inputs": [
        {
          "internalType": "address",
          "name": "aproducer",
          "type": "address"
        }
      ],
      "name": "registerProducer",
      "outputs": [],
      "stateMutability": "payable",
      "type": "function",
      "payable": true
    },
    {
      "inputs": [],
      "name": "renounceOwnership",
      "outputs": [],
      "stateMutability": "payable",
      "type": "function",
      "payable": true
    },
    {
      "inputs": [
        {
          "internalType": "address",
          "name": "newOwner",
          "type": "address"
        }
      ],
      "name": "transferOwnership",
      "outputs": [],
      "stateMutability": "payable",
      "type": "function",
      "payable": true
    },
    {
      "stateMutability": "payable",
      "type": "receive",
      "payable": true
    },
    {
      "inputs": [
        {
          "internalType": "uint32",
          "name": "aday",
          "type": "uint32"
        },
        {
          "internalType": "uint32",
          "name": "aprice",
          "type": "uint32"
        },
        {
          "internalType": "uint64",
          "name": "aenergy",
          "type": "uint64"
        },
        {
          "internalType": "uint64",
          "name": "atimestamp",
          "type": "uint64"
        }
      ],
      "name": "offer_energy",
      "outputs": [],
      "stateMutability": "payable",
      "type": "function",
      "payable": true
    },
    {
      "inputs": [],
      "name": "getBidsCount",
      "outputs": [
        {
          "internalType": "uint256",
          "name": "count",
          "type": "uint256"
        }
      ],
      "stateMutability": "view",
      "type": "function",
      "constant": true
    },
    {
      "inputs": [
        {
          "internalType": "address",
          "name": "producer",
          "type": "address"
        },
        {
          "internalType": "uint32",
          "name": "day",
          "type": "uint32"
        }
      ],
      "name": "getBidByProducerAndDay",
      "outputs": [
        {
          "internalType": "uint32",
          "name": "price",
          "type": "uint32"
        },
        {
          "internalType": "uint64",
          "name": "energy",
          "type": "uint64"
        }
      ],
      "stateMutability": "view",
      "type": "function",
      "constant": true
    },
    {
      "inputs": [
        {
          "internalType": "address",
          "name": "aproducer",
          "type": "address"
        },
        {
          "internalType": "uint32",
          "name": "aday",
          "type": "uint32"
        },
        {
          "internalType": "uint32",
          "name": "aprice",
          "type": "uint32"
        },
        {
          "internalType": "uint64",
          "name": "aenergy",
          "type": "uint64"
        },
        {
          "internalType": "uint32",
          "name": "auserID",
          "type": "uint32"
        },
        {
          "internalType": "uint64",
          "name": "atimestamp",
          "type": "uint64"
        }
      ],
      "name": "buy_energy",
      "outputs": [],
      "stateMutability": "payable",
      "type": "function",
      "payable": true
    },
    {
      "inputs": [
        {
          "internalType": "address",
          "name": "aproducer",
          "type": "address"
        },
        {
          "internalType": "uint32",
          "name": "aday",
          "type": "uint32"
        },
        {
          "internalType": "uint32",
          "name": "aprice",
          "type": "uint32"
        },
        {
          "internalType": "uint64",
          "name": "aenergy",
          "type": "uint64"
        }
      ],
      "name": "buy_energy",
      "outputs": [],
      "stateMutability": "payable",
      "type": "function",
      "payable": true
    },
    {
      "inputs": [],
      "name": "getAsksCount",
      "outputs": [
        {
          "internalType": "uint256",
          "name": "count",
          "type": "uint256"
        }
      ],
      "stateMutability": "view",
      "type": "function",
      "constant": true
    },
    {
      "inputs": [
        {
          "internalType": "uint32",
          "name": "userID",
          "type": "uint32"
        }
      ],
      "name": "getAskByUserID",
      "outputs": [
        {
          "internalType": "address",
          "name": "producer",
          "type": "address"
        },
        {
          "internalType": "uint32",
          "name": "day",
          "type": "uint32"
        },
        {
          "internalType": "uint32",
          "name": "price",
          "type": "uint32"
        },
        {
          "internalType": "uint64",
          "name": "energy",
          "type": "uint64"
        }
      ],
      "stateMutability": "view",
      "type": "function",
      "constant": true
    }
  ],
  "bytecode": "0x608060405260006001556003805460ff1916905534801561001f57600080fd5b5060008054600160a060020a031916339081178255426001556040519091907f8be0079c531659141344cd1fd0a4f28419497f9722a3daafe3b4186f6b6457e0908290a3611a8b806100726000396000f3fe6080604052600436106101175760e060020a60003504630b0c149381146101de5780630bf536681461025257806326324eff1461029a57806327c16605146102da5780633c530ace146103085780634423c5f11461031d578063520e7b0e14610384578063542900651461039757806363505ae8146103b65780636dd8d3bf146103cb578063715018a6146103de57806383197ef0146103e6578063893d20e8146103fb5780639ed81bc91461041b578063a0376dfe1461042e578063a77674a71461048b578063b8fb3a511461049e578063bbae30c9146104b3578063ccf5c5cf146104e0578063e46b1f09146104f3578063f2fde38b1461052b578063f5074f411461053e578063ffa1ad741461055e57610157565b36610157577fcc85d09d309785db93d6df19917f2e6cc07fe27cd01c08c8279145deb5cf4526333460405161014d92919061166d565b60405180910390a1005b3233146101ad5760405160e560020a62461bcd0281526020600482015260196024820152603860020a787068697368696e672061747461636b2064657465637465643f0260448201526064015b60405180910390fd5b7f26875833861a2b006512a11f1b86edf95df96131040f3caeed72989ee9858083333460405161014d92919061166d565b3480156101ea57600080fd5b506101fe6101f9366004611686565b6105a4565b60408051600160a060020a03909716875263ffffffff9586166020880152938516938601939093526001604060020a0391821660608601529290921660808401521660a082015260c0015b60405180910390f35b34801561025e57600080fd5b5061028561026d3660046116bb565b60046020526000908152604090205463ffffffff1681565b60405163ffffffff9091168152602001610249565b3480156102a657600080fd5b506102ca6102b53660046116bb565b60056020526000908152604090205460ff1681565b6040519015158152602001610249565b3480156102e657600080fd5b506102fa6102f53660046116f1565b610611565b604051610249929190611724565b61031b6103163660046116bb565b610783565b005b34801561032957600080fd5b5061033d610338366004611686565b610808565b60408051600160a060020a03909616865263ffffffff948516602087015293909216928401929092526001604060020a03918216606084015216608082015260a001610249565b61031b61039236600461175a565b61086b565b3480156103a357600080fd5b506007545b604051908152602001610249565b3480156103c257600080fd5b506006546103a8565b61031b6103d93660046117ae565b610d46565b61031b610d89565b3480156103f257600080fd5b5061031b610dee565b610403610e4b565b604051600160a060020a039091168152602001610249565b61031b6104293660046116bb565b610ec1565b34801561043a57600080fd5b5061044e610449366004611822565b610f43565b60408051600160a060020a0395909516855263ffffffff938416602086015291909216908301526001604060020a03166060820152608001610249565b61031b61049936600461183d565b611095565b3480156104aa57600080fd5b506103a8601e81565b3480156104bf57600080fd5b506103a86104ce366004611822565b60096020526000908152604090205481565b61031b6104ee3660046116f1565b6110fa565b3480156104ff57600080fd5b506103a861050e3660046116f1565b600860209081526000928352604080842090915290825290205481565b61031b6105393660046116bb565b6111d4565b34801561054a57600080fd5b5061031b6105593660046116bb565b6112b5565b34801561056a57600080fd5b506105976040518060400160405280600a815260200160b060020a69312e362e342d626574610281525081565b6040516102499190611878565b600781815481106105b457600080fd5b600091825260209091206002909102018054600190910154600160a060020a038216925063ffffffff60a060020a830481169260c060020a90048116916001604060020a0380821692604060020a83041691606060020a90041686565b600160a060020a038216600090815260086020908152604080832063ffffffff8516845290915281205460065482919081106106625760405160e560020a62461bcd0281526004016101a4906118c6565b84600160a060020a03166006828154811061067f5761067f6118d7565b6000918252602090912060029091020154600160a060020a0316146106b95760405160e560020a62461bcd0281526004016101a4906118c6565b8363ffffffff16600682815481106106d3576106d36118d7565b600091825260209091206002909102015460a060020a900463ffffffff16146107115760405160e560020a62461bcd0281526004016101a4906118c6565b60068181548110610724576107246118d7565b906000526020600020906002020160000160189054906101000a900463ffffffff1660068281548110610759576107596118d7565b60009182526020909120600160029092020101549093506001604060020a03169150509250929050565b600054600160a060020a031633146107b05760405160e560020a62461bcd0281526004016101a4906118f1565b604051600160a060020a038216907f769268709e630d5b24d4c651adeae2d7a75c3dd7c3876275233e21570be22fd490600090a2600160a060020a03166000908152600560205260409020805460ff19166001179055565b6006818154811061081857600080fd5b600091825260209091206002909102018054600190910154600160a060020a038216925063ffffffff60a060020a830481169260c060020a900416906001604060020a0380821691604060020a90041685565b3360009081526005602052604090205460ff1661089d5760405160e560020a62461bcd0281526004016101a4906118c6565b6108aa60016103e861193f565b6108b6906103e861193f565b6001604060020a0316826001604060020a031610156108ea5760405160e560020a62461bcd0281526004016101a4906118c6565b33600090815260086020908152604080832063ffffffff8816845290915290205460065481108015610950575033600160a060020a031660068281548110610934576109346118d7565b6000918252602090912060029091020154600160a060020a0316145b801561099157508463ffffffff1660068281548110610971576109716118d7565b600091825260209091206002909102015460a060020a900463ffffffff16145b15610b0257600681815481106109a9576109a96118d7565b60009182526020909120600160029092020101546001604060020a03604060020a9091048116908316116109f25760405160e560020a62461bcd0281526004016101a4906118c6565b60068181548110610a0557610a056118d7565b906000526020600020906002020160000160189054906101000a900463ffffffff1663ffffffff1660068281548110610a4057610a406118d7565b906000526020600020906002020160000160149054906101000a900463ffffffff1663ffffffff1660068381548110610a7b57610a7b6118d7565b600091825260209091206002909102015460068054600160a060020a03909216917f664a04e305e35425afb90c28227063c0b0b433a97155f2492f415af0bd4fea34919086908110610acf57610acf6118d7565b6000918252602090912060016002909202010154604051610af9916001604060020a03169061196a565b60405180910390a45b506006805433600081815260086020908152604080832063ffffffff808c16808652918452828520879055825160a0810184529586529285019081528983169185019182526001604060020a03808a166060870190815289821660808801908152600189018a55958990529551600288027ff652222313e28459528d920b65115c16c04f3efc82aaedc97be59f3f377c0d3f8101805494519551871660c060020a0260c060020a63ffffffff02199690971660a060020a02600160c060020a0319909516600160a060020a03939093169290921793909317939093169390931790915592517ff652222313e28459528d920b65115c16c04f3efc82aaedc97be59f3f377c0d40909301805492518216604060020a026001608060020a03199093169390911692909217179055815490919082908110610c4357610c436118d7565b906000526020600020906002020160000160189054906101000a900463ffffffff1663ffffffff1660068281548110610c7e57610c7e6118d7565b906000526020600020906002020160000160149054906101000a900463ffffffff1663ffffffff1660068381548110610cb957610cb96118d7565b600091825260209091206002909102015460068054600160a060020a03909216917f35c89b54d5468d95ecdd889b5dcd7245be0bee1a5dfbe384adc4e8f547f31fd7919086908110610d0d57610d0d6118d7565b6000918252602090912060016002909202010154604051610d37916001604060020a03169061196a565b60405180910390a45050505050565b600054600160a060020a03163314610d735760405160e560020a62461bcd0281526004016101a4906118f1565b610d8186868686868661130c565b505050505050565b600054600160a060020a03163314610db65760405160e560020a62461bcd0281526004016101a4906118f1565b60008054604051600160a060020a0390911690600080516020611a36833981519152908390a360008054600160a060020a0319169055565b600054600160a060020a03163314610e1b5760405160e560020a62461bcd0281526004016101a49061197e565b600080516020611a1683398151915233610e33610e4b565b604051610e419291906119b5565b60405180910390a1565b6000601e600154610e5c91906119cf565b4211610e7d5760405160e560020a62461bcd0281526004016101a4906119e8565b601e600154610e8c91906119cf565b4211610ead5760405160e560020a62461bcd0281526004016101a4906119e8565b5042600155600054600160a060020a031690565b600054600160a060020a03163314610eee5760405160e560020a62461bcd0281526004016101a4906118f1565b604051600160a060020a038216907f0bb6d68f109745f7ae353e3b90fff6fb8245c34cca44f18d9dfa00e4d705fa6490600090a2600160a060020a03166000908152600560205260409020805460ff19169055565b63ffffffff811660008181526009602052604081205460078054929384938493849390929183908110610f7857610f786118d7565b6000918252602090912060029091020160010154604060020a900463ffffffff1614610fb95760405160e560020a62461bcd0281526004016101a4906118c6565b60078181548110610fcc57610fcc6118d7565b600091825260209091206002909102015460078054600160a060020a039092169183908110610ffd57610ffd6118d7565b906000526020600020906002020160000160149054906101000a900463ffffffff1660078381548110611032576110326118d7565b906000526020600020906002020160000160189054906101000a900463ffffffff1660078481548110611067576110676118d7565b6000918252602090912060029091020160010154929991985096506001604060020a03909116945092505050565b3360009081526004602052604090205463ffffffff166110ca5760405160e560020a62461bcd0281526004016101a4906118c6565b336000908152600460205260408120546110f491869186918691869163ffffffff9091169061130c565b50505050565b600054600160a060020a031633146111275760405160e560020a62461bcd0281526004016101a4906118f1565b63ffffffff81161561116c57604051600160a060020a038316907faba09d491d88bf0ee0f8fc8f0168c0178e7210f18b5f524e052a72f550c4474a90600090a26111a1565b604051600160a060020a038316907ffa23c8d074a5c45120a1bac6ecf198fd3fa6f45dabe40a18dfa423f69d52c30c90600090a25b600160a060020a03919091166000908152600460205260409020805463ffffffff191663ffffffff909216919091179055565b600054600160a060020a031633146112015760405160e560020a62461bcd0281526004016101a4906118f1565b600160a060020a03811661126c5760405160e560020a62461bcd02815260206004820152602660248201527f4f776e61626c653a206e6577206f776e657220697320746865207a65726f2061604482015260d060020a656464726573730260648201526084016101a4565b60008054604051600160a060020a0380851693921691600080516020611a3683398151915291a360008054600160a060020a031916600160a060020a0392909216919091179055565b600054600160a060020a031633146112e25760405160e560020a62461bcd0281526004016101a49061197e565b600080516020611a1683398151915233826040516113019291906119b5565b60405180910390a150565b600160a060020a038616600090815260086020908152604080832063ffffffff891684529091529020546006548110801561137b575086600160a060020a03166006828154811061135f5761135f6118d7565b6000918252602090912060029091020154600160a060020a0316145b80156113bc57508563ffffffff166006828154811061139c5761139c6118d7565b600091825260209091206002909102015460a060020a900463ffffffff16145b1561161b578463ffffffff16600682815481106113db576113db6118d7565b600091825260209091206002909102015460c060020a900463ffffffff16146114195760405160e560020a62461bcd0281526004016101a4906118c6565b600780549050600960008563ffffffff1663ffffffff1681526020019081526020016000208190555060076040518060c0016040528089600160a060020a031681526020018863ffffffff1681526020018763ffffffff168152602001866001604060020a031681526020018563ffffffff168152602001846001604060020a0316815250908060018154018082558091505060019003906000526020600020906002020160009091909190915060008201518160000160006101000a815481600160a060020a030219169083600160a060020a0316021790555060208201518160000160146101000a81548163ffffffff021916908363ffffffff16021790555060408201518160000160186101000a81548163ffffffff021916908363ffffffff16021790555060608201518160010160006101000a8154816001604060020a0302191690836001604060020a0316021790555060808201518160010160086101000a81548163ffffffff021916908363ffffffff16021790555060a082015181600101600c6101000a8154816001604060020a0302191690836001604060020a0316021790555050508263ffffffff168663ffffffff1688600160a060020a03167f1d809c14ce26d314cb611c6eb2d07dcbce4c1a76cfea828af40737b78dcb6070888860405161160e929190611724565b60405180910390a4611664565b60405160e560020a62461bcd0281526020600482015260186024820152604260020a771d1a19481bd999995c88191bd95cc81b9bdd08195e1a5cdd0260448201526064016101a4565b50505050505050565b600160a060020a03929092168252602082015260400190565b60006020828403121561169857600080fd5b5035919050565b8035600160a060020a03811681146116b657600080fd5b919050565b6000602082840312156116cd57600080fd5b6116d68261169f565b9392505050565b803563ffffffff811681146116b657600080fd5b6000806040838503121561170457600080fd5b61170d8361169f565b915061171b602084016116dd565b90509250929050565b63ffffffff9290921682526001604060020a0316602082015260400190565b80356001604060020a03811681146116b657600080fd5b6000806000806080858703121561177057600080fd5b611779856116dd565b9350611787602086016116dd565b925061179560408601611743565b91506117a360608601611743565b905092959194509250565b60008060008060008060c087890312156117c757600080fd5b6117d08761169f565b95506117de602088016116dd565b94506117ec604088016116dd565b93506117fa60608801611743565b9250611808608088016116dd565b915061181660a08801611743565b90509295509295509295565b60006020828403121561183457600080fd5b6116d6826116dd565b6000806000806080858703121561185357600080fd5b61185c8561169f565b935061186a602086016116dd565b9250611795604086016116dd565b600060208083528351808285015260005b818110156118a557858101830151858201604001528201611889565b506000604082860101526040601f19601f8301168501019250505092915050565b602080825260009082015260400190565b60e060020a634e487b710260009081526032600452602490fd5b6020808252601790820152604960020a7630b1b1b2b9b9903232b734b2b2103337b91037bbb732b902604082015260600190565b60e060020a634e487b710260009081526011600452602490fd5b6001604060020a0381811683821602808216919082811461196257611962611925565b505092915050565b6001604060020a0391909116815260200190565b6020808252601b908201527f756e617574686f72697a65642c206e6f7420746865206f776e65720000000000604082015260600190565b600160a060020a0392831681529116602082015260400190565b808201808211156119e2576119e2611925565b92915050565b6020808252601090820152608160020a6f3930ba32903634b6b4ba1032b93937b90260408201526060019056fe91ca00fdf29069527d658f8dfc6d1c0bf9861780bb45ff36436f938d3595a8d68be0079c531659141344cd1fd0a4f28419497f9722a3daafe3b4186f6b6457e0a26469706673582212200f895d2a909994c0b882f417efe619da1adc99fa3070735935c960f87e21aa3b64736f6c63430008120033",
  "immutableReferences": {},
  "source": "// SPDX-License-Identifier: CC-BY-4.0\r\npragma solidity >=0.4.22 <0.9.0;\r\n\r\nimport \"../common/Version.sol\";\r\nimport \"../common/Frozen.sol\";\r\n\r\ncontract consumerRegistry is Version, Frozen {\r\n  event consumerRegistered(address indexed consumer);\r\n  event consumerDeregistered(address indexed consumer);\r\n\r\n  // map address to userID\r\n  mapping(address => uint32) public consumers;\r\n\r\n  modifier onlyRegisteredConsumers {\r\n    require(consumers[msg.sender] > 0, \"\");\r\n    _;\r\n  }\r\n\r\n    /// @notice Allow the owner of the address `aconsumer.address()`\r\n    ///         to make transactions on behalf of user id `auserID`.\r\n    ///\r\n    /// @dev Register address aconsumer to belong to userID\r\n    ///      auserID. Addresses can be delisted (\"unregistered\") by\r\n    ///      setting the userID auserID to zero.\r\n    function registerConsumer(address aconsumer, uint32 auserID)\r\n        external\r\n        payable\r\n        onlyOwner\r\n    {\r\n        if (auserID != 0) {\r\n            emit consumerRegistered(aconsumer);\r\n        } else {\r\n            emit consumerDeregistered(aconsumer);\r\n        }\r\n        consumers[aconsumer] = auserID;\r\n    }\r\n}\r\n\r\n/// @title A contract that allows producer addresses to be registered.\r\n///\r\n/// @author Bjrn Stein, Quantum-Factory GmbH,\r\n///                      https://quantum-factory.de\r\n///\r\n/// @dev License: Attribution-NonCommercial-ShareAlike 2.0 Generic (CC\r\n///              BY-NC-SA 2.0), see\r\n///              https://creativecommons.org/licenses/by-nc-sa/2.0/\r\ncontract producerRegistry is Owned {\r\n  event producerRegistered(address indexed producer);\r\n  event producerDeregistered(address indexed producer);\r\n\r\n  // map address to bool \"is a registered producer\"\r\n  mapping(address => bool) public producers;\r\n\r\n  modifier onlyRegisteredProducers {\r\n    require(producers[msg.sender], \"\");\r\n    _;\r\n  }\r\n\r\n    /// @notice Allow the owner of address `aproducer.address()` to\r\n    ///         act as a producer (by offering energy).\r\n    function registerProducer(address aproducer)\r\n        external\r\n        payable\r\n        onlyOwner\r\n    {\r\n        emit producerRegistered(aproducer);\r\n        producers[aproducer] = true;\r\n    }\r\n\r\n    /// @notice Cease allowing the owner of address\r\n    ///         `aproducer.address()` to act as a producer (by\r\n    ///         offering energy).\r\n    function deregisterProducer(address aproducer)\r\n        external\r\n        payable\r\n        onlyOwner\r\n    {\r\n        emit producerDeregistered(aproducer);\r\n        producers[aproducer] = false;\r\n    }\r\n}\r\n\r\n/// @title The Lition Smart Contract, initial development version.\r\n///\r\n/// @author Bjrn Stein, Quantum-Factory GmbH,\r\n///                      https://quantum-factory.de\r\n///\r\n/// @dev License: Attribution-NonCommercial-ShareAlike 2.0 Generic (CC\r\n///              BY-NC-SA 2.0), see\r\n///              https://creativecommons.org/licenses/by-nc-sa/2.0/\r\ncontract EnergyStore is Version, Owned, consumerRegistry, producerRegistry {\r\n\r\n    event BidMade(address indexed producer, uint32 indexed day, uint32 indexed price, uint64 energy);\r\n    event BidRevoked(address indexed producer, uint32 indexed day, uint32 indexed price, uint64 energy);\r\n    event Deal(address indexed producer, uint32 indexed day, uint32 price, uint64 energy, uint32 indexed userID);\r\n    event DealRevoked(address indexed producer, uint32 indexed day, uint32 price, uint64 energy, uint32 indexed userID);\r\n\r\n    uint64 constant mWh = 1;\r\n    uint64 constant  Wh = 1000 * mWh;\r\n    uint64 constant kWh = 1000 * Wh;\r\n    uint64 constant MWh = 1000 * kWh;\r\n    uint64 constant GWh = 1000 * MWh;\r\n    uint64 constant TWh = 1000 * GWh;\r\n    uint64 constant maxEnergy = 18446 * GWh;\r\n\r\n    struct Bid {\r\n        address producer;   // producer's public key\r\n        uint32 day;         // day for which the offer is valid\r\n        uint32 price;       // price vs market price\r\n        uint64 energy;      // energy to sell\r\n        uint64 timestamp;   // timestamp for when the offer was submitted\r\n    }\r\n\r\n    struct Ask {\r\n        address producer;\r\n        uint32 day;\r\n        uint32 price;\r\n        uint64 energy;\r\n        uint32 userID;\r\n        uint64 timestamp;\r\n    }\r\n\r\n    // bids (for energy: offering energy for sale)\r\n    Bid[] public bids;\r\n\r\n    // asks (for energy: demanding energy to buy)\r\n    Ask[] public asks;\r\n\r\n    // map (address, day) to index into bids\r\n    mapping(address => mapping(uint32 => uint)) public bidsIndex;\r\n\r\n    // map (userid) to index into asks [last take written]\r\n    mapping(uint32 => uint) public asksIndex;\r\n\r\n    /// @notice Offer `(aenergy / 1.0e6).toFixed(6)` kWh of energy for\r\n    ///         day `aday` at a price `(aprice / 1.0e3).toFixed(3) + '\r\n    ///         ct/kWh'` above market price for a date given as day\r\n    ///         `aday` whilst asserting that the current date and time\r\n    ///         in nanoseconds since 1970 is `atimestamp`.\r\n    ///\r\n    /// @param aday Day for which the offer is valid.\r\n    /// @param aprice Price surcharge in millicent/kWh above market\r\n    ///        price\r\n    /// @param aenergy Energy to be offered in mWh\r\n    /// @param atimestamp UNIX time (seconds since 1970) in\r\n    ///        nanoseconds\r\n    function offer_energy(uint32 aday, uint32 aprice, uint64 aenergy, uint64 atimestamp)\r\n        external\r\n        payable\r\n        onlyRegisteredProducers\r\n    {\r\n        // require a minimum offer of 1 kWh\r\n        require(aenergy >= kWh, \"\");\r\n\r\n        uint idx = bidsIndex[msg.sender][aday];\r\n\r\n        // idx is either 0 or such that bids[idx] has the right producer and day (or both 0 and ...)\r\n        if ((bids.length > idx) && (bids[idx].producer == msg.sender) && (bids[idx].day == aday)) {\r\n            // we will only let newer timestamps affect the stored data\r\n            require(atimestamp > bids[idx].timestamp, \"\");\r\n\r\n            // NOTE: Should we sanity-check timestamps here (ensure that\r\n            //       they are either in the past or not in the too-distant\r\n            //       future compared to the last block's timestamp)?\r\n\r\n            emit BidRevoked(bids[idx].producer, bids[idx].day, bids[idx].price, bids[idx].energy);\r\n        }\r\n\r\n        // create entry with new index idx for (msg.sender, aday)\r\n        idx = bids.length;\r\n        bidsIndex[msg.sender][aday] = idx;\r\n        bids.push(Bid({\r\n            producer: msg.sender,\r\n            day: aday,\r\n            price: aprice,\r\n            energy: aenergy,\r\n            timestamp: atimestamp\r\n        }));\r\n        emit BidMade(bids[idx].producer, bids[idx].day, bids[idx].price, bids[idx].energy);\r\n    }\r\n\r\n    function getBidsCount()\r\n        external\r\n        view\r\n        returns(uint count)\r\n    {\r\n        return bids.length;\r\n    }\r\n\r\n    function getBidByProducerAndDay(address producer, uint32 day)\r\n        external\r\n        view\r\n        returns(uint32 price, uint64 energy)\r\n    {\r\n        uint idx = bidsIndex[producer][day];\r\n        require(bids.length > idx, \"\");\r\n        require(bids[idx].producer == producer, \"\");\r\n        require(bids[idx].day == day, \"\");\r\n        return (bids[idx].price, bids[idx].energy);\r\n    }\r\n\r\n    /// @notice Buy `(aenergy / 1.0e6).toFixed(6)` kWh of energy on\r\n    ///         behalf of user id `auserID` (possibly de-anonymized by\r\n    ///         randomization) for day `aday` at a surcharge `(aprice\r\n    ///         / 1.0e3).toFixed(3)` ct/kWh from the energy producer\r\n    ///         using the address `aproducer.address()` whilst\r\n    ///         asserting that the current time in seconds since 1970\r\n    ///         is `(atimestamp / 1.0e9)` seconds.\r\n    ///\r\n    /// @param aproducer Address of the producer offering the energy\r\n    ///        to be bought.\r\n    /// @param aday Day for which the offer is valid.\r\n    /// @param aprice Price surcharge in millicent/kWh above market\r\n    ///        price\r\n    /// @param aenergy Energy to be offered in mWh\r\n    /// @param atimestamp UNIX time (seconds since 1970) in\r\n    ///        nanoseconds\r\n    ///\r\n    /// @dev This function is meant to be called by Lition on behalf\r\n    ///      of customers.\r\n    function buy_energy(address aproducer, uint32 aday, uint32 aprice, uint64 aenergy, uint32 auserID, uint64 atimestamp)\r\n        external\r\n        payable\r\n        onlyOwner\r\n    {\r\n        buy_energy_core(aproducer, aday, aprice, aenergy, auserID, atimestamp);\r\n    }\r\n\r\n    /// @notice Buy `(aenergy / 1.0e6).toFixed(6)` kWh of energy on\r\n    ///          for day `aday` at a surcharge `(aprice /\r\n    ///          1.0e3).toFixed(3)` ct/kWh from the energy producer\r\n    ///          using the address `aproducer.address()`.\r\n    ///\r\n    /// @param aproducer Address of the producer offering the energy\r\n    ///        to be bought.\r\n    /// @param aday Day for which the offer is valid.\r\n    /// @param aprice Price surcharge in millicent/kWh above market\r\n    ///        price\r\n    /// @param aenergy Energy to be offered in mWh\r\n    ///\r\n    /// @dev This function is meant to be called by a Lition customer\r\n    ///      who has chosen to be registered for this ability and to\r\n    ///      decline anonymization by randomization of user ID.\r\n    function buy_energy(address aproducer, uint32 aday, uint32 aprice, uint64 aenergy)\r\n        external\r\n        payable\r\n        onlyRegisteredConsumers\r\n    {\r\n        buy_energy_core(aproducer, aday, aprice, aenergy, consumers[msg.sender], 0);\r\n    }\r\n\r\n    function buy_energy_core(address aproducer, uint32 aday, uint32 aprice, uint64 aenergy, uint32 auserID, uint64 atimestamp)\r\n        internal\r\n    {\r\n        // find offer by producer (aproducer) for day (aday), or zero\r\n        uint idx = bidsIndex[aproducer][aday];\r\n\r\n        // if the offer exists...\r\n        if ((bids.length > idx) && (bids[idx].producer == aproducer) && (bids[idx].day == aday)) {\r\n        // ...and has the right price\r\n            require(bids[idx].price == aprice, \"\");\r\n\r\n            // todo: prevent overwriting a later choice...\r\n\r\n            // ...then record the customer's choice\r\n            asksIndex[auserID] = asks.length;\r\n            asks.push(Ask({\r\n                producer: aproducer,\r\n                day: aday,\r\n                price: aprice,\r\n                energy: aenergy,\r\n                userID: auserID,\r\n                timestamp: atimestamp\r\n            }));\r\n            emit Deal(aproducer, aday, aprice, aenergy, auserID);\r\n        } else {\r\n            revert(\"the offer does not exist\");\r\n        }\r\n    }\r\n\r\n    function getAsksCount()\r\n        external\r\n        view\r\n        returns(uint count)\r\n    {\r\n        return asks.length;\r\n    }\r\n\r\n    function getAskByUserID(uint32 userID)\r\n        external\r\n        view\r\n        returns(address producer, uint32 day, uint32 price, uint64 energy)\r\n    {\r\n        uint idx = asksIndex[userID];\r\n        require(asks[idx].userID == userID, \"\");\r\n        return (asks[idx].producer, asks[idx].day, asks[idx].price, asks[idx].energy);\r\n    }\r\n}",
  "sourcePath": "/Volumes/My Book/projects/pingleware-contracts/contracts/energy/EnergyStore.sol",
  "compiler": {
    "name": "solc",
    "version": "0.8.18+commit.87f61d96.Emscripten.clang"
  },
  "schemaVersion": "3.4.12",
  "updatedAt": "2023-10-24T15:56:01.929Z",
  "networkType": "ethereum",
  "devdoc": {
    "author": "Bjrn Stein, Quantum-Factory GmbH,                      https://quantum-factory.de",
    "details": "License: Attribution-NonCommercial-ShareAlike 2.0 Generic (CC              BY-NC-SA 2.0), see              https://creativecommons.org/licenses/by-nc-sa/2.0/",
    "kind": "dev",
    "methods": {
      "buy_energy(address,uint32,uint32,uint64)": {
        "details": "This function is meant to be called by a Lition customer      who has chosen to be registered for this ability and to      decline anonymization by randomization of user ID.",
        "params": {
          "aday": "Day for which the offer is valid.",
          "aenergy": "Energy to be offered in mWh",
          "aprice": "Price surcharge in millicent/kWh above market        price",
          "aproducer": "Address of the producer offering the energy        to be bought."
        }
      },
      "buy_energy(address,uint32,uint32,uint64,uint32,uint64)": {
        "details": "This function is meant to be called by Lition on behalf      of customers.",
        "params": {
          "aday": "Day for which the offer is valid.",
          "aenergy": "Energy to be offered in mWh",
          "aprice": "Price surcharge in millicent/kWh above market        price",
          "aproducer": "Address of the producer offering the energy        to be bought.",
          "atimestamp": "UNIX time (seconds since 1970) in        nanoseconds"
        }
      },
      "offer_energy(uint32,uint32,uint64,uint64)": {
        "params": {
          "aday": "Day for which the offer is valid.",
          "aenergy": "Energy to be offered in mWh",
          "aprice": "Price surcharge in millicent/kWh above market        price",
          "atimestamp": "UNIX time (seconds since 1970) in        nanoseconds"
        }
      },
      "registerConsumer(address,uint32)": {
        "details": "Register address aconsumer to belong to userID      auserID. Addresses can be delisted (\"unregistered\") by      setting the userID auserID to zero."
      },
      "renounceOwnership()": {
        "details": "Leaves the contract without owner. It will not be possible to call `onlyOwner` functions anymore. Can only be called by the current owner. NOTE: Renouncing ownership will leave the contract without an owner, thereby removing any functionality that is only available to the owner."
      },
      "transferOwnership(address)": {
        "details": "Transfers ownership of the contract to a new account (`newOwner`). Can only be called by the current owner."
      }
    },
    "title": "The Lition Smart Contract, initial development version.",
    "version": 1
  },
  "userdoc": {
    "kind": "user",
    "methods": {
      "buy_energy(address,uint32,uint32,uint64)": {
        "notice": "Buy `(aenergy / 1.0e6).toFixed(6)` kWh of energy on          for day `aday` at a surcharge `(aprice /          1.0e3).toFixed(3)` ct/kWh from the energy producer          using the address `aproducer.address()`."
      },
      "buy_energy(address,uint32,uint32,uint64,uint32,uint64)": {
        "notice": "Buy `(aenergy / 1.0e6).toFixed(6)` kWh of energy on         behalf of user id `auserID` (possibly de-anonymized by         randomization) for day `aday` at a surcharge `(aprice         / 1.0e3).toFixed(3)` ct/kWh from the energy producer         using the address `aproducer.address()` whilst         asserting that the current time in seconds since 1970         is `(atimestamp / 1.0e9)` seconds."
      },
      "deregisterProducer(address)": {
        "notice": "Cease allowing the owner of address         `aproducer.address()` to act as a producer (by         offering energy)."
      },
      "offer_energy(uint32,uint32,uint64,uint64)": {
        "notice": "Offer `(aenergy / 1.0e6).toFixed(6)` kWh of energy for         day `aday` at a price `(aprice / 1.0e3).toFixed(3) + '         ct/kWh'` above market price for a date given as day         `aday` whilst asserting that the current date and time         in nanoseconds since 1970 is `atimestamp`."
      },
      "registerConsumer(address,uint32)": {
        "notice": "Allow the owner of the address `aconsumer.address()`         to make transactions on behalf of user id `auserID`."
      },
      "registerProducer(address)": {
        "notice": "Allow the owner of address `aproducer.address()` to         act as a producer (by offering energy)."
      }
    },
    "version": 1
  }
}