{
  "contractName": "ExchangeFee",
  "abi": [
    {
      "inputs": [
        {
          "internalType": "address",
          "name": "bestbooksAddress",
          "type": "address"
        }
      ],
      "stateMutability": "nonpayable",
      "type": "constructor"
    },
    {
      "anonymous": false,
      "inputs": [
        {
          "indexed": false,
          "internalType": "uint256",
          "name": "oldAmount",
          "type": "uint256"
        },
        {
          "indexed": false,
          "internalType": "uint256",
          "name": "newAmount",
          "type": "uint256"
        }
      ],
      "name": "FeePercentChanged",
      "type": "event"
    },
    {
      "anonymous": false,
      "inputs": [
        {
          "indexed": false,
          "internalType": "address",
          "name": "from",
          "type": "address"
        },
        {
          "indexed": false,
          "internalType": "address",
          "name": "to",
          "type": "address"
        }
      ],
      "name": "FeeRecipientChanged",
      "type": "event"
    },
    {
      "anonymous": false,
      "inputs": [
        {
          "indexed": false,
          "internalType": "address",
          "name": "_sender",
          "type": "address"
        }
      ],
      "name": "Sender",
      "type": "event"
    },
    {
      "anonymous": false,
      "inputs": [
        {
          "indexed": false,
          "internalType": "address",
          "name": "tokenAddress",
          "type": "address"
        },
        {
          "indexed": false,
          "internalType": "int256",
          "name": "amount",
          "type": "int256"
        }
      ],
      "name": "TokenFeeAdjusted",
      "type": "event"
    },
    {
      "anonymous": false,
      "inputs": [
        {
          "indexed": false,
          "internalType": "address",
          "name": "tokenAddress",
          "type": "address"
        },
        {
          "indexed": false,
          "internalType": "int256",
          "name": "amount",
          "type": "int256"
        }
      ],
      "name": "TokenFeeAssessed",
      "type": "event"
    },
    {
      "inputs": [],
      "name": "FeePercentage",
      "outputs": [
        {
          "internalType": "uint256",
          "name": "",
          "type": "uint256"
        }
      ],
      "stateMutability": "view",
      "type": "function"
    },
    {
      "inputs": [],
      "name": "feeRecipient",
      "outputs": [
        {
          "internalType": "address",
          "name": "",
          "type": "address"
        }
      ],
      "stateMutability": "view",
      "type": "function"
    },
    {
      "inputs": [],
      "name": "getOwner",
      "outputs": [
        {
          "internalType": "address",
          "name": "",
          "type": "address"
        }
      ],
      "stateMutability": "view",
      "type": "function"
    },
    {
      "inputs": [
        {
          "internalType": "uint256",
          "name": "amount",
          "type": "uint256"
        }
      ],
      "name": "setFeePercentage",
      "outputs": [],
      "stateMutability": "nonpayable",
      "type": "function"
    },
    {
      "inputs": [
        {
          "internalType": "address",
          "name": "wallet",
          "type": "address"
        }
      ],
      "name": "setFeeRecipient",
      "outputs": [],
      "stateMutability": "nonpayable",
      "type": "function"
    },
    {
      "inputs": [
        {
          "internalType": "address",
          "name": "tokenAddress",
          "type": "address"
        },
        {
          "internalType": "int256",
          "name": "amount",
          "type": "int256"
        }
      ],
      "name": "addFee",
      "outputs": [],
      "stateMutability": "nonpayable",
      "type": "function"
    },
    {
      "inputs": [
        {
          "internalType": "address",
          "name": "tokenAddress",
          "type": "address"
        },
        {
          "internalType": "int256",
          "name": "amount",
          "type": "int256"
        }
      ],
      "name": "subFee",
      "outputs": [],
      "stateMutability": "nonpayable",
      "type": "function"
    },
    {
      "inputs": [
        {
          "internalType": "address",
          "name": "tokenAddress",
          "type": "address"
        }
      ],
      "name": "getTotal",
      "outputs": [
        {
          "internalType": "int256",
          "name": "",
          "type": "int256"
        }
      ],
      "stateMutability": "view",
      "type": "function"
    }
  ],
  "bytecode": "0x6080604052600160025534801561001557600080fd5b50604051610adc380380610adc83398101604081905261003491610067565b6000805433600160a060020a03199182161790915560048054909116600160a060020a0392909216919091179055610097565b60006020828403121561007957600080fd5b8151600160a060020a038116811461009057600080fd5b9392505050565b610a36806100a66000396000f3fe608060405234801561001057600080fd5b506004361061007b5760e060020a6000350463203b24e181146100805780634690484014610095578063893d20e8146100c5578063ae06c1b7146100d6578063e28797d2146100e9578063e74b981b14610100578063ebb6dad814610113578063fa2a13ee14610126575b600080fd5b61009361008e3660046107ce565b610139565b005b6001546100a890600160a060020a031681565b604051600160a060020a0390911681526020015b60405180910390f35b600054600160a060020a03166100a8565b6100936100e43660046107f8565b610323565b6100f260025481565b6040519081526020016100bc565b61009361010e366004610811565b6103ea565b6100f2610121366004610811565b61049e565b6100936101343660046107ce565b6104ec565b60005460a060020a900460ff161561016f5760405160e560020a62461bcd02815260040161016690610833565b60405180910390fd5b6000805460a060020a60a060020a60ff0219821617909155600160a060020a031633146101b15760405160e560020a62461bcd02815260040161016690610867565b600160a060020a038216600090815260036020526040812054136102035760405160e560020a62461bcd028152602060048201526003602482015260e960020a622729a3026044820152606401610166565b8060000361023457600160a060020a038216600090815260036020526040902054600254610231919061065f565b90505b600160a060020a03821660009081526003602052604090205461025790826106f8565b600160a060020a03808416600090815260036020526040908190209290925560048054925160e060020a6342a8d33f02815292909116916342a8d33f916102a491429186918291016108c6565b600060405180830381600087803b1580156102be57600080fd5b505af11580156102d2573d6000803e3d6000fd5b505050507f0e0c985b0a0dd474c6d0820735b00d473491d806df3aa04b690b0ff90ed221638282604051610307929190610932565b60405180910390a150506000805460a060020a60ff0219169055565b6002548115801590610336575060648211155b6103a75760405160e560020a62461bcd02815260206004820152603660248201527f6d7573742062652067726561746572207468616e207a65726f206f72206c65736044820152605460020a75073207468616e206f7220657175616c20746f2031303026064820152608401610166565b600282905560408051828152602081018490527f44cb215a0ee4011e0802aea4220545b8f823c5041bb303a4ae1219f99f91e65b91015b60405180910390a15050565b600154600160a060020a039081169082166104465760405160e560020a62461bcd0281526020600482015260166024820152605060020a7563616e6e6974206265206e756c6c2061646472657373026044820152606401610166565b60018054600160a060020a031916600160a060020a0384811691821790925560408051928416835260208301919091527f0bc21fe5c3ab742ff1d15b5c4477ffbacf1167e618228078fa625edebe7f331d91016103de565b60008054600160a060020a031633146104cc5760405160e560020a62461bcd02815260040161016690610867565b50600160a060020a0381166000908152600360205260409020545b919050565b60005460a060020a900460ff16156105195760405160e560020a62461bcd02815260040161016690610833565b6000805460a060020a60a060020a60ff0219821617909155600160a060020a0316331461055b5760405160e560020a62461bcd02815260040161016690610867565b8060000361058c57600160a060020a038216600090815260036020526040902054600254610589919061065f565b90505b600160a060020a0382166000908152600360205260409020546105af908261075f565b600160a060020a03808416600090815260036020526040908190209290925560048054925160e060020a6342a8d33f02815292909116916342a8d33f916105fc914291869182910161094b565b600060405180830381600087803b15801561061657600080fd5b505af115801561062a573d6000803e3d6000fd5b505050507f757b2ebf32880fd257e84d52f8e615999faecab67dd7ec81bd403b443ec766278282604051610307929190610932565b600082600003610671575060006106f2565b8282028215838204851415171561068757600080fd5b8261069285836109ae565b146106ef5760405160e560020a62461bcd02815260206004820152602160248201527f536166654d6174683a206d756c7469706c69636174696f6e206f766572666c6f604482015260f860020a6077026064820152608401610166565b90505b92915050565b60008282131561074d5760405160e560020a62461bcd02815260206004820152601e60248201527f536166654d6174683a207375627472616374696f6e206f766572666c6f7700006044820152606401610166565b8183038219840181146106ef57600080fd5b6000828201838112156106ef5760405160e560020a62461bcd02815260206004820152601b60248201527f536166654d6174683a206164646974696f6e206f766572666c6f7700000000006044820152606401610166565b8035600160a060020a03811681146104e757600080fd5b600080604083850312156107e157600080fd5b6107ea836107b7565b946020939093013593505050565b60006020828403121561080a57600080fd5b5035919050565b60006020828403121561082357600080fd5b61082c826107b7565b9392505050565b6020808252601790820152604a60020a761499595b9d1c985b9d0818d85b1b0819195d1958dd195902604082015260600190565b6020808252600e90820152609260020a6d139bdd08185d5d1a1bdc9a5e995902604082015260600190565b6004815260e360020a6308682a6902602082015260400190565b6004815260e060020a634645455302602082015260400190565b83815260c0602082015260006108de60c08301610892565b82810360408401526108ef816108ac565b838103606085015260158152605a60020a74115e18da185b99d948119959481051129554d511510260208201526080840195909552505060a00152604001919050565b600160a060020a03929092168252602082015260400190565b83815260c06020820152600061096360c08301610892565b8281036040840152610974816108ac565b8381036060850152600c815260a060020a6b45786368616e6765204665650260208201526080840195909552505060a00152604001919050565b6000826109cf5760e060020a634e487b710260009081526012600452602490fd5b60ff60020a8214600019841416156109fb5760e060020a634e487b710260009081526011600452602490fd5b50059056fea264697066735822122087793bf0ba16059444df609b5dc0a196964137bb177ce66b49c31039292b029f64736f6c63430008120033",
  "immutableReferences": {},
  "source": "// SPDX-License-Identifier: BSL-1.1\npragma solidity >=0.4.22 <0.9.0;\n\nimport \"../../libs/SafeMath.sol\";\nimport \"../../interfaces/IBestBooks.sol\";\nimport \"../../abstract/AAccessControl.sol\";\nimport \"../../abstract/AExchangeFee.sol\";\n\ncontract ExchangeFee is AAccessControl, AExchangeFee {\n    mapping (address => int256) private fees;\n\n    IBestBooks bestbooksContract;\n\n\n    constructor(address bestbooksAddress) {\n        bestbooksContract = IBestBooks(bestbooksAddress);\n    }\n\n    function addFee(address tokenAddress, int256 amount) external nonReentrant isOwner {\n        if (amount == 0) {\n            amount = SafeMath.safeMul(fees[tokenAddress], int256(FeePercentage));\n        }\n        fees[tokenAddress] = SafeMath.safeAdd(fees[tokenAddress], amount);\n        bestbooksContract.addEntry(block.timestamp, \"CASH\", \"FEES\", \"Exchange Fee\", amount, amount);\n        emit TokenFeeAssessed(tokenAddress,amount);\n    }\n\n    function subFee(address tokenAddress, int256 amount) external nonReentrant isOwner {\n        require(fees[tokenAddress] > 0,\"NSF\");\n        if (amount == 0) {\n            amount = SafeMath.safeMul(fees[tokenAddress], int256(FeePercentage));\n        }\n        fees[tokenAddress] = SafeMath.safeSub(fees[tokenAddress], amount);\n        bestbooksContract.addEntry(block.timestamp, \"CASH\", \"FEES\", \"Exchange Fee ADJUSTED\", amount, amount);\n        emit TokenFeeAdjusted(tokenAddress,amount);\n    }\n\n    function getTotal(address tokenAddress) external view isOwner returns (int256) {\n        return fees[tokenAddress];\n    }\n}",
  "sourcePath": "/Volumes/My Book/projects/pingleware-contracts/contracts/finance/elmx/ExchangeFee.sol",
  "compiler": {
    "name": "solc",
    "version": "0.8.18+commit.87f61d96.Emscripten.clang"
  },
  "schemaVersion": "3.4.12",
  "updatedAt": "2023-10-22T00:13:31.350Z",
  "devdoc": {
    "kind": "dev",
    "methods": {},
    "version": 1
  },
  "userdoc": {
    "kind": "user",
    "methods": {},
    "version": 1
  }
}