{
  "contractName": "ExchangeFee",
  "abi": [
    {
      "inputs": [
        {
          "internalType": "address",
          "name": "bestbooksAddress",
          "type": "address"
        }
      ],
      "stateMutability": "nonpayable",
      "type": "constructor"
    },
    {
      "anonymous": false,
      "inputs": [
        {
          "indexed": false,
          "internalType": "uint256",
          "name": "oldAmount",
          "type": "uint256"
        },
        {
          "indexed": false,
          "internalType": "uint256",
          "name": "newAmount",
          "type": "uint256"
        }
      ],
      "name": "FeePercentChanged",
      "type": "event"
    },
    {
      "anonymous": false,
      "inputs": [
        {
          "indexed": false,
          "internalType": "address",
          "name": "from",
          "type": "address"
        },
        {
          "indexed": false,
          "internalType": "address",
          "name": "to",
          "type": "address"
        }
      ],
      "name": "FeeRecipientChanged",
      "type": "event"
    },
    {
      "anonymous": false,
      "inputs": [
        {
          "indexed": false,
          "internalType": "address",
          "name": "_sender",
          "type": "address"
        }
      ],
      "name": "Sender",
      "type": "event"
    },
    {
      "anonymous": false,
      "inputs": [
        {
          "indexed": false,
          "internalType": "address",
          "name": "tokenAddress",
          "type": "address"
        },
        {
          "indexed": false,
          "internalType": "int256",
          "name": "amount",
          "type": "int256"
        }
      ],
      "name": "TokenFeeAdjusted",
      "type": "event"
    },
    {
      "anonymous": false,
      "inputs": [
        {
          "indexed": false,
          "internalType": "address",
          "name": "tokenAddress",
          "type": "address"
        },
        {
          "indexed": false,
          "internalType": "int256",
          "name": "amount",
          "type": "int256"
        }
      ],
      "name": "TokenFeeAssessed",
      "type": "event"
    },
    {
      "inputs": [],
      "name": "FeePercentage",
      "outputs": [
        {
          "internalType": "uint256",
          "name": "",
          "type": "uint256"
        }
      ],
      "stateMutability": "view",
      "type": "function",
      "constant": true
    },
    {
      "inputs": [],
      "name": "feeRecipient",
      "outputs": [
        {
          "internalType": "address",
          "name": "",
          "type": "address"
        }
      ],
      "stateMutability": "view",
      "type": "function",
      "constant": true
    },
    {
      "inputs": [],
      "name": "getOwner",
      "outputs": [
        {
          "internalType": "address",
          "name": "",
          "type": "address"
        }
      ],
      "stateMutability": "view",
      "type": "function",
      "constant": true
    },
    {
      "inputs": [
        {
          "internalType": "uint256",
          "name": "amount",
          "type": "uint256"
        }
      ],
      "name": "setFeePercentage",
      "outputs": [],
      "stateMutability": "nonpayable",
      "type": "function"
    },
    {
      "inputs": [
        {
          "internalType": "address",
          "name": "wallet",
          "type": "address"
        }
      ],
      "name": "setFeeRecipient",
      "outputs": [],
      "stateMutability": "nonpayable",
      "type": "function"
    },
    {
      "inputs": [
        {
          "internalType": "address",
          "name": "tokenAddress",
          "type": "address"
        },
        {
          "internalType": "int256",
          "name": "amount",
          "type": "int256"
        }
      ],
      "name": "addFee",
      "outputs": [],
      "stateMutability": "nonpayable",
      "type": "function"
    },
    {
      "inputs": [
        {
          "internalType": "address",
          "name": "tokenAddress",
          "type": "address"
        },
        {
          "internalType": "int256",
          "name": "amount",
          "type": "int256"
        }
      ],
      "name": "subFee",
      "outputs": [],
      "stateMutability": "nonpayable",
      "type": "function"
    },
    {
      "inputs": [
        {
          "internalType": "address",
          "name": "tokenAddress",
          "type": "address"
        }
      ],
      "name": "getTotal",
      "outputs": [
        {
          "internalType": "int256",
          "name": "",
          "type": "int256"
        }
      ],
      "stateMutability": "view",
      "type": "function",
      "constant": true
    }
  ],
  "bytecode": "0x6080604052600160025534801561001557600080fd5b50604051610aae380380610aae83398101604081905261003491610067565b6000805433600160a060020a03199182161790915560048054909116600160a060020a0392909216919091179055610097565b60006020828403121561007957600080fd5b8151600160a060020a038116811461009057600080fd5b9392505050565b610a08806100a66000396000f3fe608060405234801561001057600080fd5b506004361061007b5760e060020a6000350463203b24e181146100805780634690484014610095578063893d20e8146100c5578063ae06c1b7146100d6578063e28797d2146100e9578063e74b981b14610100578063ebb6dad814610113578063fa2a13ee14610126575b600080fd5b61009361008e366004610741565b610139565b005b6001546100a890600160a060020a031681565b604051600160a060020a0390911681526020015b60405180910390f35b600054600160a060020a03166100a8565b6100936100e436600461076b565b6102fd565b6100f260025481565b6040519081526020016100bc565b61009361010e366004610784565b6103c4565b6100f2610121366004610784565b610478565b610093610134366004610741565b6104c6565b60005460a060020a900460ff161561016f5760405160e560020a62461bcd028152600401610166906107a6565b60405180910390fd5b6000805460a060020a60a060020a60ff0219821617909155600160a060020a031633146101b15760405160e560020a62461bcd028152600401610166906107da565b600160a060020a038216600090815260036020526040812054136102035760405160e560020a62461bcd028152602060048201526003602482015260e960020a622729a3026044820152606401610166565b8060000361021b57600254610218908261081f565b90505b600160a060020a0382166000908152600360205260408120805483929061024390849061084f565b90915550506004805460405160e060020a6342a8d33f028152600160a060020a03909116916342a8d33f9161027e91429186918291016108aa565b600060405180830381600087803b15801561029857600080fd5b505af11580156102ac573d6000803e3d6000fd5b505050507f0e0c985b0a0dd474c6d0820735b00d473491d806df3aa04b690b0ff90ed2216382826040516102e1929190610916565b60405180910390a150506000805460a060020a60ff0219169055565b6002548115801590610310575060648211155b6103815760405160e560020a62461bcd02815260206004820152603660248201527f6d7573742062652067726561746572207468616e207a65726f206f72206c65736044820152605460020a75073207468616e206f7220657175616c20746f2031303026064820152608401610166565b600282905560408051828152602081018490527f44cb215a0ee4011e0802aea4220545b8f823c5041bb303a4ae1219f99f91e65b91015b60405180910390a15050565b600154600160a060020a039081169082166104205760405160e560020a62461bcd0281526020600482015260166024820152605060020a7563616e6e6974206265206e756c6c2061646472657373026044820152606401610166565b60018054600160a060020a031916600160a060020a0384811691821790925560408051928416835260208301919091527f0bc21fe5c3ab742ff1d15b5c4477ffbacf1167e618228078fa625edebe7f331d91016103b8565b60008054600160a060020a031633146104a65760405160e560020a62461bcd028152600401610166906107da565b50600160a060020a0381166000908152600360205260409020545b919050565b60005460a060020a900460ff16156104f35760405160e560020a62461bcd028152600401610166906107a6565b6000805460a060020a60a060020a60ff0219821617909155600160a060020a031633146105355760405160e560020a62461bcd028152600401610166906107da565b8060000361056657600160a060020a0382166000908152600360205260409020546002546105639190610639565b90505b600160a060020a03821660009081526003602052604090205461058990826106d2565b600160a060020a03808416600090815260036020526040908190209290925560048054925160e060020a6342a8d33f02815292909116916342a8d33f916105d6914291869182910161092f565b600060405180830381600087803b1580156105f057600080fd5b505af1158015610604573d6000803e3d6000fd5b505050507f757b2ebf32880fd257e84d52f8e615999faecab67dd7ec81bd403b443ec7662782826040516102e1929190610916565b60008260000361064b575060006106cc565b8282028215838204851415171561066157600080fd5b8261066c8583610992565b146106c95760405160e560020a62461bcd02815260206004820152602160248201527f536166654d6174683a206d756c7469706c69636174696f6e206f766572666c6f604482015260f860020a6077026064820152608401610166565b90505b92915050565b6000828201838112156106c95760405160e560020a62461bcd02815260206004820152601b60248201527f536166654d6174683a206164646974696f6e206f766572666c6f7700000000006044820152606401610166565b8035600160a060020a03811681146104c157600080fd5b6000806040838503121561075457600080fd5b61075d8361072a565b946020939093013593505050565b60006020828403121561077d57600080fd5b5035919050565b60006020828403121561079657600080fd5b61079f8261072a565b9392505050565b6020808252601790820152604a60020a761499595b9d1c985b9d0818d85b1b0819195d1958dd195902604082015260600190565b6020808252600e90820152609260020a6d139bdd08185d5d1a1bdc9a5e995902604082015260600190565b60e060020a634e487b710260009081526011600452602490fd5b8082026000821260ff60020a8414161561083b5761083b610805565b81810583148215176106cc576106cc610805565b818103600083128015838313168383128216171561086f5761086f610805565b5092915050565b6004815260e360020a6308682a6902602082015260400190565b6004815260e060020a634645455302602082015260400190565b83815260c0602082015260006108c260c08301610876565b82810360408401526108d381610890565b838103606085015260158152605a60020a74115e18da185b99d948119959481051129554d511510260208201526080840195909552505060a00152604001919050565b600160a060020a03929092168252602082015260400190565b83815260c06020820152600061094760c08301610876565b828103604084015261095881610890565b8381036060850152600c815260a060020a6b45786368616e6765204665650260208201526080840195909552505060a00152604001919050565b6000826109b35760e060020a634e487b710260009081526012600452602490fd5b60ff60020a8214600019841416156109cd576109cd610805565b50059056fea2646970667358221220ce962cc0226f17a36012423e62c871857685c06382dfe9bed4c50dd97fed7b6564736f6c63430008120033",
  "immutableReferences": {},
  "source": "// SPDX-License-Identifier: BSL-1.1\npragma solidity >=0.4.22 <0.9.0;\n\nimport \"../../libs/SafeMath.sol\";\nimport \"../../interfaces/IBestBooks.sol\";\nimport \"../../abstract/AAccessControl.sol\";\nimport \"../../abstract/AExchangeFee.sol\";\n\ncontract ExchangeFee is AAccessControl, AExchangeFee {\n    mapping (address => int256) private fees;\n\n    IBestBooks bestbooksContract;\n\n\n    constructor(address bestbooksAddress) {\n        bestbooksContract = IBestBooks(bestbooksAddress);\n    }\n\n    function addFee(address tokenAddress, int256 amount) external nonReentrant isOwner {\n        if (amount == 0) {\n            amount = SafeMath.safeMul(fees[tokenAddress], int256(FeePercentage));\n        }\n        fees[tokenAddress] = SafeMath.safeAdd(fees[tokenAddress], amount);\n        bestbooksContract.addEntry(block.timestamp, \"CASH\", \"FEES\", \"Exchange Fee\", amount, amount);\n        emit TokenFeeAssessed(tokenAddress,amount);\n    }\n\n    function subFee(address tokenAddress, int256 amount) external nonReentrant isOwner {\n        require(fees[tokenAddress] > 0,\"NSF\");\n        if (amount == 0) {\n            amount *= int256(FeePercentage);\n        }\n        fees[tokenAddress] -= amount;\n        bestbooksContract.addEntry(block.timestamp, \"CASH\", \"FEES\", \"Exchange Fee ADJUSTED\", amount, amount);\n        emit TokenFeeAdjusted(tokenAddress,amount);\n    }\n\n    function getTotal(address tokenAddress) external view isOwner returns (int256) {\n        return fees[tokenAddress];\n    }\n}",
  "sourcePath": "/Volumes/My Book/projects/pingleware-contracts/contracts/finance/elmx/ExchangeFee.sol",
  "compiler": {
    "name": "solc",
    "version": "0.8.18+commit.87f61d96.Emscripten.clang"
  },
  "schemaVersion": "3.4.12",
  "updatedAt": "2023-10-28T00:12:31.759Z",
  "networkType": "ethereum",
  "devdoc": {
    "kind": "dev",
    "methods": {},
    "version": 1
  },
  "userdoc": {
    "kind": "user",
    "methods": {},
    "version": 1
  }
}