{
  "contractName": "ExchangeTradedFund",
  "abi": [
    {
      "inputs": [],
      "stateMutability": "nonpayable",
      "type": "constructor"
    },
    {
      "inputs": [],
      "name": "NAV",
      "outputs": [
        {
          "internalType": "uint256",
          "name": "",
          "type": "uint256"
        }
      ],
      "stateMutability": "view",
      "type": "function",
      "constant": true
    },
    {
      "inputs": [],
      "name": "feePercentage",
      "outputs": [
        {
          "internalType": "uint256",
          "name": "",
          "type": "uint256"
        }
      ],
      "stateMutability": "view",
      "type": "function",
      "constant": true
    },
    {
      "inputs": [],
      "name": "feeRecipient",
      "outputs": [
        {
          "internalType": "address",
          "name": "",
          "type": "address"
        }
      ],
      "stateMutability": "view",
      "type": "function",
      "constant": true
    },
    {
      "inputs": [],
      "name": "issuer",
      "outputs": [
        {
          "internalType": "address",
          "name": "",
          "type": "address"
        }
      ],
      "stateMutability": "view",
      "type": "function",
      "constant": true
    },
    {
      "inputs": [],
      "name": "issuerFeePercentage",
      "outputs": [
        {
          "internalType": "uint256",
          "name": "",
          "type": "uint256"
        }
      ],
      "stateMutability": "view",
      "type": "function",
      "constant": true
    },
    {
      "inputs": [],
      "name": "owner",
      "outputs": [
        {
          "internalType": "address",
          "name": "",
          "type": "address"
        }
      ],
      "stateMutability": "view",
      "type": "function",
      "constant": true
    },
    {
      "inputs": [
        {
          "internalType": "uint256",
          "name": "",
          "type": "uint256"
        }
      ],
      "name": "securityTokenBucket",
      "outputs": [
        {
          "internalType": "contract IOffering",
          "name": "",
          "type": "address"
        }
      ],
      "stateMutability": "view",
      "type": "function",
      "constant": true
    },
    {
      "inputs": [
        {
          "internalType": "address",
          "name": "",
          "type": "address"
        }
      ],
      "name": "shares",
      "outputs": [
        {
          "internalType": "uint256",
          "name": "",
          "type": "uint256"
        }
      ],
      "stateMutability": "view",
      "type": "function",
      "constant": true
    },
    {
      "inputs": [],
      "name": "totalFundsRaised",
      "outputs": [
        {
          "internalType": "uint256",
          "name": "",
          "type": "uint256"
        }
      ],
      "stateMutability": "view",
      "type": "function",
      "constant": true
    },
    {
      "inputs": [],
      "name": "totalShares",
      "outputs": [
        {
          "internalType": "uint256",
          "name": "",
          "type": "uint256"
        }
      ],
      "stateMutability": "view",
      "type": "function",
      "constant": true
    },
    {
      "inputs": [],
      "name": "totalTokens",
      "outputs": [
        {
          "internalType": "uint256",
          "name": "",
          "type": "uint256"
        }
      ],
      "stateMutability": "view",
      "type": "function",
      "constant": true
    },
    {
      "inputs": [
        {
          "internalType": "address",
          "name": "sponsor",
          "type": "address"
        },
        {
          "internalType": "address",
          "name": "token",
          "type": "address"
        },
        {
          "internalType": "uint256",
          "name": "amount",
          "type": "uint256"
        }
      ],
      "name": "createTokenOffering",
      "outputs": [],
      "stateMutability": "nonpayable",
      "type": "function"
    },
    {
      "inputs": [
        {
          "internalType": "uint256",
          "name": "_percentage",
          "type": "uint256"
        }
      ],
      "name": "setBrokerFeePercentage",
      "outputs": [],
      "stateMutability": "nonpayable",
      "type": "function"
    },
    {
      "inputs": [
        {
          "internalType": "uint256",
          "name": "amount",
          "type": "uint256"
        }
      ],
      "name": "buy",
      "outputs": [],
      "stateMutability": "nonpayable",
      "type": "function"
    },
    {
      "inputs": [
        {
          "internalType": "uint256",
          "name": "sharesToRedeem",
          "type": "uint256"
        }
      ],
      "name": "redeem",
      "outputs": [],
      "stateMutability": "nonpayable",
      "type": "function"
    },
    {
      "inputs": [],
      "name": "calculateNAV",
      "outputs": [
        {
          "internalType": "uint256",
          "name": "",
          "type": "uint256"
        }
      ],
      "stateMutability": "nonpayable",
      "type": "function"
    },
    {
      "inputs": [
        {
          "internalType": "address",
          "name": "_newIssuer",
          "type": "address"
        }
      ],
      "name": "changeIssuer",
      "outputs": [],
      "stateMutability": "nonpayable",
      "type": "function"
    }
  ],
  "bytecode": "0x60806040526001600355600060055560006007556001600a5534801561002457600080fd5b5060088054600160a060020a03191633179055610950806100466000396000f3fe608060405234801561001057600080fd5b50600436106100de5760e060020a600035046311ebc61981146100e35780631d143848146100fe578063361810a6146101295780633a98ef391461013e578063427c0c7f14610147578063469048401461015057806352fd856b14610163578063532475bf1461016c5780637e1c0c09146101755780637e8931591461017e5780638da5cb5b146101915780639ac76fe6146101a4578063a001ecdd146101b7578063a5298817146101c0578063ce7c2ac2146101d3578063d96a094a146101f3578063db006a7514610206575b600080fd5b6100eb610219565b6040519081526020015b60405180910390f35b60005461011190600160a060020a031681565b604051600160a060020a0390911681526020016100f5565b61013c6101373660046107a7565b610235565b005b6100eb60015481565b6100eb60025481565b60095461011190600160a060020a031681565b6100eb60075481565b6100eb60035481565b6100eb60055481565b61013c61018c3660046107dc565b6102c4565b60085461011190600160a060020a031681565b6101116101b23660046107a7565b610313565b6100eb600a5481565b61013c6101ce3660046107fe565b61033d565b6100eb6101e13660046107dc565b60066020526000908152604090205481565b61013c6102013660046107a7565b6105b3565b61013c6102143660046107a7565b61067b565b600060015460025461022b9190610854565b6007819055919050565b600854600160a060020a0316331461026b5760405160e560020a62461bcd0281526004016102629061087a565b60405180910390fd5b60648111156102bf5760405160e560020a62461bcd02815260206004820152601b60248201527f50657263656e746167652073686f756c64206265203c3d2031303000000000006044820152606401610262565b600355565b600854600160a060020a031633146102f15760405160e560020a62461bcd0281526004016102629061087a565b60008054600160a060020a031916600160a060020a0392909216919091179055565b6004818154811061032357600080fd5b600091825260209091200154600160a060020a0316905081565b6000829050600081600160a060020a03166384e62f546040518163ffffffff1660e060020a028152600401602060405180830381865afa158015610385573d6000803e3d6000fd5b505050506040513d601f19601f820116820180604052508101906103a991906108ab565b9050600082600160a060020a031663de2b4e986040518163ffffffff1660e060020a028152600401602060405180830381865afa1580156103ee573d6000803e3d6000fd5b505050506040513d601f19601f8201168201806040525081019061041291906108ab565b905060006104208383610737565b9050848110156104735760405160e560020a62461bcd0281526020600482015260186024820152604060020a776e6f7420656e6f7567682073686172657320746f20627579026044820152606401610262565b60008585600160a060020a03166398d5fdca6040518163ffffffff1660e060020a028152600401602060405180830381865afa1580156104b7573d6000803e3d6000fd5b505050506040513d601f19601f820116820180604052508101906104db91906108ab565b6104e591906108c4565b905080600760008282546104f991906108db565b9091555050604051600160a060020a0389169087156108fc029088906000818181858888f19350505050158015610534573d6000803e3d6000fd5b506004805460018101825560009182527f8a35acfbc15ff81a39ae7d344fd709f28e8600b4aa8c65c6b64bfe7fe36bd19b018054600160a060020a031916600160a060020a038816179055600580549161058d836108ee565b919050555085600160008282546105a491906108db565b90915550505050505050505050565b600081116106065760405160e560020a62461bcd02815260206004820152601d60248201527f416d6f756e74206d7573742062652067726561746572207468616e20300000006044820152606401610262565b806002600082825461061891906108db565b90915550506002546001546000919061063190846108c4565b61063b9190610854565b3360009081526006602052604081208054929350839290919061065f9084906108db565b90915550506001546002546106749190610854565b6007555050565b600081116106e15760405160e560020a62461bcd02815260206004820152602760248201527f53686172657320746f2072656465656d206d7573742062652067726561746572604482015260cc60020a660207468616e203026064820152608401610262565b3360009081526006602052604081208054839290610700908490610907565b90915550506001546002546000919061071990846108c4565b6107239190610854565b9050806002600082825461065f9190610907565b60008282111561078c5760405160e560020a62461bcd02815260206004820152601e60248201527f536166654d6174683a207375627472616374696f6e206f766572666c6f7700006044820152606401610262565b81830382198401811461079e57600080fd5b90505b92915050565b6000602082840312156107b957600080fd5b5035919050565b8035600160a060020a03811681146107d757600080fd5b919050565b6000602082840312156107ee57600080fd5b6107f7826107c0565b9392505050565b60008060006060848603121561081357600080fd5b61081c846107c0565b925061082a602085016107c0565b9150604084013590509250925092565b60e060020a634e487b710260009081526011600452602490fd5b6000826108755760e060020a634e487b710260009081526012600452602490fd5b500490565b6020808252601490820152606160020a733737ba1030baba343937b4bd32b21037bbb732b902604082015260600190565b6000602082840312156108bd57600080fd5b5051919050565b80820281158282048414176107a1576107a161083a565b808201808211156107a1576107a161083a565b6000600182016109005761090061083a565b5060010190565b818103818111156107a1576107a161083a56fea2646970667358221220dc5bd51c6644aa07f1284654d6922d4d1962049ebac65324977be10406d2f8d764736f6c63430008120033",
  "immutableReferences": {},
  "source": "// SPDX-License-Identifier: BSL-1.1\npragma solidity >=0.4.22 <0.9.0;\n\n/**\n * The ETF or ExchangeTradedFund is like the MortgageBackedSecurity where an Investment Company packages existing security tokens\n * and sells them to buyers on the secondary market.\n */\n\nimport \"../../libs/SafeMath.sol\";\nimport \"../../interfaces/IOffering.sol\";\n\ncontract ExchangeTradedFund {\n    address public issuer;\n    uint256 public totalShares;\n    uint256 public totalFundsRaised;\n\n    uint256 public issuerFeePercentage = 1; // 1% investment company fee\n\n    IOffering[] public securityTokenBucket;\n    uint256 public totalTokens = 0;\n    mapping(address => uint256) public shares;\n\n    uint256 public NAV = 0;\n\n    address public owner;\n    address public feeRecipient;\n    uint256 public feePercentage = 1; // 1% exchange fee\n\n    constructor() {\n        owner = msg.sender;\n    }\n\n    modifier onlyOwner() {\n        require(msg.sender == owner,\"not authroized owner\");\n        _;\n    }\n\n    modifier onlyIssuer() {\n        _;\n    }\n\n    modifier onlyInvestor() {\n        _;\n    }\n\n    function createTokenOffering(address sponsor,address token,uint256 amount) external onlyIssuer {\n        IOffering offering = IOffering(token);\n\n        uint256 maxShares = offering.getMaxOfferingShares(); \n        uint256 outstandingShares = offering.getOutstandingShares();\n\n        uint256 availableShares = SafeMath.safeSub(maxShares,outstandingShares);\n        require(availableShares >= amount,\"not enough shares to buy\");\n\n        uint256 neededToBuy = offering.getPrice() * amount;\n        NAV += neededToBuy;\n\n        payable(sponsor).transfer(amount); // sponsor buys and holds the tokens        \n        securityTokenBucket.push(IOffering(offering));\n        totalTokens++;\n        totalShares += amount;\n    }\n\n    function setBrokerFeePercentage(uint256 _percentage) external onlyOwner {\n        require(_percentage <= 100, \"Percentage should be <= 100\");\n        issuerFeePercentage = _percentage;\n    }\n\n    function buy(uint256 amount) external onlyInvestor {\n        require(amount > 0, \"Amount must be greater than 0\");\n        totalFundsRaised += amount;\n        uint256 sharesToMint = (amount * totalShares) / totalFundsRaised;\n\n        shares[msg.sender] += sharesToMint;\n        \n        NAV = totalFundsRaised / totalShares;\n    }\n\n    function redeem(uint256 sharesToRedeem) external onlyInvestor {\n        require(sharesToRedeem > 0, \"Shares to redeem must be greater than 0\");\n\n        shares[msg.sender] -= sharesToRedeem;\n\n        uint256 redemptionAmount = (sharesToRedeem * totalFundsRaised) / totalShares;        \n        totalFundsRaised -= redemptionAmount;\n        \n        NAV = totalFundsRaised / totalShares;\n    }\n\n    // Function to calculate the Net Asset Value (NAV) of the ETF\n    function calculateNAV() external returns (uint256) {\n        NAV = totalFundsRaised / totalShares;\n        return NAV;\n    }\n\n    function changeIssuer(address _newIssuer) external onlyOwner {\n        issuer = _newIssuer;\n    }\n}",
  "sourcePath": "/Volumes/My Book/projects/pingleware-contracts/contracts/finance/elmx/ExchangeTradedFund.sol",
  "compiler": {
    "name": "solc",
    "version": "0.8.18+commit.87f61d96.Emscripten.clang"
  },
  "schemaVersion": "3.4.12",
  "updatedAt": "2023-10-26T23:47:38.120Z",
  "networkType": "ethereum",
  "devdoc": {
    "kind": "dev",
    "methods": {},
    "version": 1
  },
  "userdoc": {
    "kind": "user",
    "methods": {},
    "version": 1
  }
}