{
  "contractName": "ExemptEquityOffering",
  "abi": [
    {
      "inputs": [
        {
          "internalType": "enum IOfferingContract.OfferingType",
          "name": "offeringType",
          "type": "uint8"
        },
        {
          "internalType": "address",
          "name": "account_contract",
          "type": "address"
        },
        {
          "internalType": "address",
          "name": "transferagent_contract",
          "type": "address"
        },
        {
          "internalType": "address",
          "name": "shares_contract",
          "type": "address"
        },
        {
          "internalType": "uint256",
          "name": "initial_supply",
          "type": "uint256"
        }
      ],
      "stateMutability": "nonpayable",
      "type": "constructor"
    },
    {
      "anonymous": false,
      "inputs": [
        {
          "indexed": false,
          "internalType": "uint256",
          "name": "amount",
          "type": "uint256"
        }
      ],
      "name": "Bought",
      "type": "event"
    },
    {
      "anonymous": false,
      "inputs": [
        {
          "indexed": false,
          "internalType": "address",
          "name": "sender",
          "type": "address"
        },
        {
          "indexed": false,
          "internalType": "address",
          "name": "recipient",
          "type": "address"
        }
      ],
      "name": "Destroyed",
      "type": "event"
    },
    {
      "anonymous": false,
      "inputs": [
        {
          "indexed": false,
          "internalType": "address",
          "name": "sender",
          "type": "address"
        },
        {
          "indexed": false,
          "internalType": "uint256",
          "name": "amount",
          "type": "uint256"
        }
      ],
      "name": "FallbackEvent",
      "type": "event"
    },
    {
      "anonymous": false,
      "inputs": [
        {
          "indexed": false,
          "internalType": "address",
          "name": "sender",
          "type": "address"
        },
        {
          "indexed": false,
          "internalType": "uint256",
          "name": "amount",
          "type": "uint256"
        }
      ],
      "name": "Minted",
      "type": "event"
    },
    {
      "anonymous": false,
      "inputs": [
        {
          "indexed": true,
          "internalType": "address",
          "name": "previousOwner",
          "type": "address"
        },
        {
          "indexed": true,
          "internalType": "address",
          "name": "newOwner",
          "type": "address"
        }
      ],
      "name": "OwnershipTransferred",
      "type": "event"
    },
    {
      "anonymous": false,
      "inputs": [
        {
          "indexed": false,
          "internalType": "address",
          "name": "sender",
          "type": "address"
        },
        {
          "indexed": false,
          "internalType": "uint256",
          "name": "amount",
          "type": "uint256"
        }
      ],
      "name": "ReceiveEvent",
      "type": "event"
    },
    {
      "anonymous": false,
      "inputs": [
        {
          "indexed": false,
          "internalType": "uint256",
          "name": "amount",
          "type": "uint256"
        }
      ],
      "name": "Sold",
      "type": "event"
    },
    {
      "anonymous": false,
      "inputs": [
        {
          "indexed": false,
          "internalType": "address",
          "name": "sender",
          "type": "address"
        },
        {
          "indexed": false,
          "internalType": "bytes",
          "name": "reason",
          "type": "bytes"
        }
      ],
      "name": "Started",
      "type": "event"
    },
    {
      "anonymous": false,
      "inputs": [
        {
          "indexed": false,
          "internalType": "address",
          "name": "sender",
          "type": "address"
        },
        {
          "indexed": false,
          "internalType": "bytes",
          "name": "reason",
          "type": "bytes"
        }
      ],
      "name": "Stopped",
      "type": "event"
    },
    {
      "anonymous": false,
      "inputs": [
        {
          "indexed": false,
          "internalType": "address",
          "name": "sender",
          "type": "address"
        },
        {
          "indexed": false,
          "internalType": "string",
          "name": "reason",
          "type": "string"
        }
      ],
      "name": "Termination",
      "type": "event"
    },
    {
      "anonymous": false,
      "inputs": [
        {
          "indexed": false,
          "internalType": "address",
          "name": "sender",
          "type": "address"
        },
        {
          "indexed": false,
          "internalType": "uint256",
          "name": "amount",
          "type": "uint256"
        }
      ],
      "name": "Transfer",
      "type": "event"
    },
    {
      "stateMutability": "payable",
      "type": "fallback"
    },
    {
      "inputs": [],
      "name": "VERSION",
      "outputs": [
        {
          "internalType": "string",
          "name": "",
          "type": "string"
        }
      ],
      "stateMutability": "view",
      "type": "function"
    },
    {
      "inputs": [],
      "name": "WAIT",
      "outputs": [
        {
          "internalType": "uint256",
          "name": "",
          "type": "uint256"
        }
      ],
      "stateMutability": "view",
      "type": "function"
    },
    {
      "inputs": [
        {
          "internalType": "address",
          "name": "",
          "type": "address"
        }
      ],
      "name": "_balances",
      "outputs": [
        {
          "internalType": "uint256",
          "name": "",
          "type": "uint256"
        }
      ],
      "stateMutability": "view",
      "type": "function"
    },
    {
      "inputs": [],
      "name": "_initial_supply",
      "outputs": [
        {
          "internalType": "uint256",
          "name": "",
          "type": "uint256"
        }
      ],
      "stateMutability": "view",
      "type": "function"
    },
    {
      "inputs": [
        {
          "internalType": "address",
          "name": "",
          "type": "address"
        }
      ],
      "name": "_tokens",
      "outputs": [
        {
          "internalType": "contract Token",
          "name": "",
          "type": "address"
        }
      ],
      "stateMutability": "view",
      "type": "function"
    },
    {
      "inputs": [],
      "name": "destroy",
      "outputs": [],
      "stateMutability": "nonpayable",
      "type": "function"
    },
    {
      "inputs": [
        {
          "internalType": "address",
          "name": "_recipient",
          "type": "address"
        }
      ],
      "name": "destroyAndSend",
      "outputs": [],
      "stateMutability": "nonpayable",
      "type": "function"
    },
    {
      "inputs": [],
      "name": "getOwner",
      "outputs": [
        {
          "internalType": "address",
          "name": "",
          "type": "address"
        }
      ],
      "stateMutability": "payable",
      "type": "function"
    },
    {
      "inputs": [],
      "name": "renounceOwnership",
      "outputs": [],
      "stateMutability": "payable",
      "type": "function"
    },
    {
      "inputs": [],
      "name": "tokenPrice",
      "outputs": [
        {
          "internalType": "uint256",
          "name": "",
          "type": "uint256"
        }
      ],
      "stateMutability": "view",
      "type": "function"
    },
    {
      "inputs": [
        {
          "internalType": "address",
          "name": "newOwner",
          "type": "address"
        }
      ],
      "name": "transferOwnership",
      "outputs": [],
      "stateMutability": "payable",
      "type": "function"
    },
    {
      "stateMutability": "payable",
      "type": "receive"
    },
    {
      "inputs": [
        {
          "internalType": "uint256",
          "name": "updatePrice",
          "type": "uint256"
        }
      ],
      "name": "updateTokenPrice",
      "outputs": [],
      "stateMutability": "nonpayable",
      "type": "function"
    },
    {
      "inputs": [],
      "name": "startOffering",
      "outputs": [],
      "stateMutability": "payable",
      "type": "function"
    },
    {
      "inputs": [],
      "name": "stopOffering",
      "outputs": [],
      "stateMutability": "payable",
      "type": "function"
    },
    {
      "inputs": [
        {
          "internalType": "address",
          "name": "transferagent",
          "type": "address"
        }
      ],
      "name": "assignTransferAgent",
      "outputs": [],
      "stateMutability": "payable",
      "type": "function"
    },
    {
      "inputs": [
        {
          "internalType": "string",
          "name": "name",
          "type": "string"
        },
        {
          "internalType": "string",
          "name": "symbol",
          "type": "string"
        },
        {
          "internalType": "uint256",
          "name": "maxShares",
          "type": "uint256"
        },
        {
          "internalType": "enum IOfferingContract.OfferingType",
          "name": "offeringType",
          "type": "uint8"
        }
      ],
      "name": "initialize",
      "outputs": [],
      "stateMutability": "nonpayable",
      "type": "function"
    },
    {
      "inputs": [
        {
          "internalType": "address",
          "name": "account",
          "type": "address"
        },
        {
          "internalType": "uint256",
          "name": "amount",
          "type": "uint256"
        },
        {
          "internalType": "uint256",
          "name": "epoch",
          "type": "uint256"
        }
      ],
      "name": "mint",
      "outputs": [],
      "stateMutability": "payable",
      "type": "function"
    },
    {
      "inputs": [],
      "name": "buy",
      "outputs": [],
      "stateMutability": "payable",
      "type": "function"
    },
    {
      "inputs": [
        {
          "internalType": "uint256",
          "name": "amount",
          "type": "uint256"
        }
      ],
      "name": "sell",
      "outputs": [],
      "stateMutability": "payable",
      "type": "function"
    }
  ],
  "bytecode": "0x608060405260006001556003805460ff191690553480156200002057600080fd5b50604051620018a1380380620018a1833981016040819052620000439162000195565b60008054600160a060020a031916339081178255426001556040519091907f8be0079c531659141344cd1fd0a4f28419497f9722a3daafe3b4186f6b6457e0908290a384600c81600c8111156200009e576200009e62000201565b0362000130576040517f08c379a000000000000000000000000000000000000000000000000000000000815260206004820152603760248201527f41207075626c6963206f66666572696e67206973204e4f54207065726d69747460448201527f656420666f72206578656d7074206f66666572696e6721000000000000000000606482015260840160405180910390fd5b5060055560088054600160a060020a03948516600160a060020a0319918216179091556009805493851693821693909317909255600a80549190931691161790555062000230565b8051600160a060020a03811681146200019057600080fd5b919050565b600080600080600060a08688031215620001ae57600080fd5b8551600d8110620001be57600080fd5b9450620001ce6020870162000178565b9350620001de6040870162000178565b9250620001ee6060870162000178565b9150608086015190509295509295909350565b7f4e487b7100000000000000000000000000000000000000000000000000000000600052602160045260246000fd5b61166180620002406000396000f3fe6080604052600436106100eb5760e060020a600035046306f4164681146101b2578063156e29f6146101fe5780632f3fecaa1461021357806341658f3c1461021b578063676c0d771461023b5780636ebcf6071461025b578063715018a6146102965780637ff9b5961461029e57806383197ef0146102b4578063893d20e8146102c9578063a6f2ae3a146102d1578063b8fb3a51146102d9578063c488d6f2146102ee578063c8440f70146102f6578063e4849b3214610309578063f2fde38b1461031c578063f5074f411461032f578063f744596b1461034f578063ffa1ad74146103655761012b565b3661012b577fcc85d09d309785db93d6df19917f2e6cc07fe27cd01c08c8279145deb5cf45263334604051610121929190611172565b60405180910390a1005b3233146101815760405160e560020a62461bcd0281526020600482015260196024820152603860020a787068697368696e672061747461636b2064657465637465643f0260448201526064015b60405180910390fd5b7f26875833861a2b006512a11f1b86edf95df96131040f3caeed72989ee98580833334604051610121929190611172565b3480156101be57600080fd5b506101e86101cd3660046111a7565b600760205260009081526040902054600160a060020a031681565b6040516101f591906111c9565b60405180910390f35b61021161020c3660046111dd565b6103ab565b005b61021161082c565b34801561022757600080fd5b506102116102363660046112b6565b610863565b34801561024757600080fd5b50610211610256366004611339565b600455565b34801561026757600080fd5b506102886102763660046111a7565b60066020526000908152604090205481565b6040519081526020016101f5565b61021161095f565b3480156102aa57600080fd5b5061028860045481565b3480156102c057600080fd5b506102116109c4565b6101e8610a21565b610211610a97565b3480156102e557600080fd5b50610288601e81565b610211610ca1565b6102116103043660046111a7565b610cd6565b610211610317366004611339565b610d6d565b61021161032a3660046111a7565b610fb9565b34801561033b57600080fd5b5061021161034a3660046111a7565b61109a565b34801561035b57600080fd5b5061028860055481565b34801561037157600080fd5b5061039e6040518060400160405280600a815260200160b060020a69312e362e342d626574610281525081565b6040516101f59190611398565b600160a060020a0383166104045760405160e560020a62461bcd02815260206004820152601f60248201527f63616e6e6f74206d696e7420746f20746865207a65726f2061646472657373006044820152606401610178565b333182106104515760405160e560020a62461bcd0281526020600482015260146024820152606060020a73696e73756666696369656e742062616c616e6365026044820152606401610178565b600a5460405160e060020a6352e4100b028152600091600160a060020a0316906352e4100b906104859030906004016111c9565b602060405180830381865afa1580156104a2573d6000803e3d6000fd5b505050506040513d601f19601f820116820180604052508101906104c691906113ab565b6104d090846113c4565b600a5460405160e060020a63f04da65b028152919250600160a060020a03169063f04da65b906105049030906004016111c9565b602060405180830381865afa158015610521573d6000803e3d6000fd5b505050506040513d601f19601f8201168201806040525081019061054591906113ab565b600a5460405160e160020a63346d0857028152600160a060020a03909116906368da10ae906105789030906004016111c9565b602060405180830381865afa158015610595573d6000803e3d6000fd5b505050506040513d601f19601f820116820180604052508101906105b991906113ab565b6105c390836113ea565b11156106145760405160e560020a62461bcd02815260206004820152601f60248201527f65786365656473206d6178696d756d206f66666572696e6720616d6f756e74006044820152606401610178565b604051309084156108fc029085906000818181858888f19350505050158015610641573d6000803e3d6000fd5b50600a5460405160e260020a6305128c4f028152600160a060020a039091169063144a313c906106779030908590600401611172565b600060405180830381600087803b15801561069157600080fd5b505af11580156106a5573d6000803e3d6000fd5b505030600090815260066020526040812080548794509092506106c99084906113ea565b9091555050306000908152600760205260409081902054905160e060020a63f7ea7a3d02815260048101839052600160a060020a039091169063f7ea7a3d90602401600060405180830381600087803b15801561072557600080fd5b505af1158015610739573d6000803e3d6000fd5b5050600c5460405160e060020a63590c4ef9028152600160a060020a038881166004830152602482018690526044820188905260648201879052909116925063590c4ef99150608401600060405180830381600087803b15801561079c57600080fd5b505af11580156107b0573d6000803e3d6000fd5b505050507f69ca02dd4edd7bf0a4abb9ed3b7af3f14778db5d61921c7dc7cd545266326de230846040516107e5929190611172565b60405180910390a17f30385c845b448a36257a6a1716e6ad2e1bc2cbe333cde1e69fe849ad6511adfe308460405161081e929190611172565b60405180910390a150505050565b600054600160a060020a031633146108595760405160e560020a62461bcd02815260040161017890611415565b6108616110f1565b565b80600c81600c81111561087857610878611449565b036108eb5760405160e560020a62461bcd02815260206004820152603760248201527f41207075626c6963206f66666572696e67206973204e4f54207065726d6974746044820152604860020a76656420666f72206578656d7074206f66666572696e6721026064820152608401610178565b600d5460405160e060020a63490ced4f028152600160a060020a039091169063490ced4f906109269030908990899089908990600401611463565b600060405180830381600087803b15801561094057600080fd5b505af1158015610954573d6000803e3d6000fd5b505050505050505050565b600054600160a060020a0316331461098c5760405160e560020a62461bcd02815260040161017890611415565b60008054604051600160a060020a039091169060008051602061160c833981519152908390a360008054600160a060020a0319169055565b600054600160a060020a031633146109f15760405160e560020a62461bcd028152600401610178906114d4565b6000805160206115ec83398151915233610a09610a21565b604051610a1792919061150b565b60405180910390a1565b6000601e600154610a3291906113ea565b4211610a535760405160e560020a62461bcd02815260040161017890611525565b601e600154610a6291906113ea565b4211610a835760405160e560020a62461bcd02815260040161017890611525565b5042600155600054600160a060020a031690565b60035460ff16610abc5760405160e560020a62461bcd02815260040161017890611552565b30600090815260076020908152604080832054815160e060020a6318160ddd0281529151349493600160a060020a03909216926318160ddd9260048083019391928290030181865afa158015610b16573d6000803e3d6000fd5b505050506040513d601f19601f82011682018060405250810190610b3a91906113ab565b905060008211610b8f5760405160e560020a62461bcd02815260206004820152601b60248201527f596f75206e65656420746f2073656e6420736f6d6520657468657200000000006044820152606401610178565b80821115610be25760405160e560020a62461bcd02815260206004820181905260248201527f4e6f7420656e6f75676820746f6b656e7320696e2074686520726573657276656044820152606401610178565b306000908152600760205260409081902054905160e060020a63a9059cbb028152600160a060020a039091169063a9059cbb90610c259033908690600401611172565b6020604051808303816000875af1158015610c44573d6000803e3d6000fd5b505050506040513d601f19601f82011682018060405250810190610c689190611589565b506040518281527f4e08ba899977cf7d4c2964bce71c6b9a7ef76ee5166a4c1249a1e08016e33ef1906020015b60405180910390a15050565b600054600160a060020a03163314610cce5760405160e560020a62461bcd02815260040161017890611415565b610861611133565b600054600160a060020a03163314610d035760405160e560020a62461bcd02815260040161017890611415565b60095460405160e160020a634250d3e9028152600160a060020a03909116906384a1a7d290610d38903090859060040161150b565b600060405180830381600087803b158015610d5257600080fd5b505af1158015610d66573d6000803e3d6000fd5b5050505050565b60035460ff16610d925760405160e560020a62461bcd02815260040161017890611552565b60008111610df65760405160e560020a62461bcd02815260206004820152602560248201527f596f75206e65656420746f2073656c6c206174206c6561737420736f6d652074604482015260d860020a646f6b656e73026064820152608401610178565b3060008181526007602052604080822054905160e160020a636eb1769f0281529192600160a060020a039091169163dd62ed3e91610e399133919060040161150b565b602060405180830381865afa158015610e56573d6000803e3d6000fd5b505050506040513d601f19601f82011682018060405250810190610e7a91906113ab565b905081811015610ece5760405160e560020a62461bcd0281526020600482015260196024820152603860020a78436865636b2074686520746f6b656e20616c6c6f77616e6365026044820152606401610178565b306000818152600760205260409081902054905160e060020a6323b872dd028152336004820152602481019290925260448201849052600160a060020a0316906323b872dd906064016020604051808303816000875af1158015610f36573d6000803e3d6000fd5b505050506040513d601f19601f82011682018060405250810190610f5a9190611589565b50604051339083156108fc029084906000818181858888f19350505050158015610f88573d6000803e3d6000fd5b506040518281527f92f64ca637d023f354075a4be751b169c1a8a9ccb6d33cdd0cb352054399572790602001610c95565b600054600160a060020a03163314610fe65760405160e560020a62461bcd02815260040161017890611415565b600160a060020a0381166110515760405160e560020a62461bcd02815260206004820152602660248201527f4f776e61626c653a206e6577206f776e657220697320746865207a65726f2061604482015260d060020a65646472657373026064820152608401610178565b60008054604051600160a060020a038085169392169160008051602061160c83398151915291a360008054600160a060020a031916600160a060020a0392909216919091179055565b600054600160a060020a031633146110c75760405160e560020a62461bcd028152600401610178906114d4565b6000805160206115ec83398151915233826040516110e692919061150b565b60405180910390a150565b6003805460ff191660011790556040517f33c68eeb60b17ccd4973bd4579ebb2e6156ecfd1defb9e8be822e959cca0253e90610a1790339060009036906115ab565b6003805460ff191690556040517fc161c5a84c30bc51746f28a7736664d7dae3f0fad3d92e4bb813d68bad76ec2190610a1790339060009036906115ab565b600160a060020a03929092168252602082015260400190565b8035600160a060020a03811681146111a257600080fd5b919050565b6000602082840312156111b957600080fd5b6111c28261118b565b9392505050565b600160a060020a0391909116815260200190565b6000806000606084860312156111f257600080fd5b6111fb8461118b565b95602085013595506040909401359392505050565b60e060020a634e487b710260009081526041600452602490fd5b600082601f83011261123b57600080fd5b81356001604060020a038082111561125557611255611210565b604051601f8301601f19908116603f0116810190828211818310171561127d5761127d611210565b8160405283815286602085880101111561129657600080fd5b836020870160208301376000602085830101528094505050505092915050565b600080600080608085870312156112cc57600080fd5b84356001604060020a03808211156112e357600080fd5b6112ef8883890161122a565b9550602087013591508082111561130557600080fd5b506113128782880161122a565b935050604085013591506060850135600d811061132e57600080fd5b939692955090935050565b60006020828403121561134b57600080fd5b5035919050565b6000815180845260005b818110156113785760208185018101518683018201520161135c565b506000602082860101526020601f19601f83011685010191505092915050565b6020815260006111c26020830184611352565b6000602082840312156113bd57600080fd5b5051919050565b6000826113e55760e060020a634e487b710260009081526012600452602490fd5b500490565b8082018082111561140f5760e060020a634e487b710260009081526011600452602490fd5b92915050565b6020808252601790820152604960020a7630b1b1b2b9b9903232b734b2b2103337b91037bbb732b902604082015260600190565b60e060020a634e487b710260009081526021600452602490fd5b600160a060020a038616815260a06020820181905260009061148790830187611352565b82810360408401526114998187611352565b915050836060830152600d83106114c45760e060020a634e487b710260009081526021600452602490fd5b8260808301529695505050505050565b6020808252601b908201527f756e617574686f72697a65642c206e6f7420746865206f776e65720000000000604082015260600190565b600160a060020a0392831681529116602082015260400190565b6020808252601090820152608160020a6f3930ba32903634b6b4ba1032b93937b902604082015260600190565b6020808252601c908201527f636f6e74726163742061637469766974792069732066726f7a656e2100000000604082015260600190565b60006020828403121561159b57600080fd5b815180151581146111c257600080fd5b600160a060020a03841681526040602082018190528101829052818360608301376000818301606090810191909152601f909201601f191601019291505056fe91ca00fdf29069527d658f8dfc6d1c0bf9861780bb45ff36436f938d3595a8d68be0079c531659141344cd1fd0a4f28419497f9722a3daafe3b4186f6b6457e0a26469706673582212208f45a960828aa469cc30fbda6394b87feafb97e5bf8a85213a22a8356d5a75d664736f6c63430008120033",
  "immutableReferences": {},
  "source": "// SPDX-License-Identifier: CC-BY-4.0\r\npragma solidity >=0.4.22 <0.9.0;\r\n\r\n\r\n\r\n\r\nimport \"../../common/Version.sol\";\r\nimport \"../../common/Frozen.sol\";\r\nimport \"../../common/Token.sol\";\r\nimport \"../../interfaces/IAccount.sol\";\r\nimport \"../../interfaces/IERC20.sol\";\r\nimport \"../../interfaces/IOfferingContract.sol\";\r\nimport \"../../interfaces/IShares.sol\";\r\nimport \"../../interfaces/IShareholder.sol\";\r\nimport \"../../interfaces/ITransaction.sol\";\r\nimport \"../../interfaces/ITransferAgent.sol\";\r\n\r\ncontract ExemptEquityOffering is Version, Frozen {\r\n\r\n    uint256 public tokenPrice; // 1 equity token (min $5 par value) for 0.00180870 ETH, 1808700 Gwei\r\n    uint256 public _initial_supply;\r\n\r\n    mapping (address => uint256) public _balances;\r\n    mapping (address => Token) public _tokens;\r\n\r\n    event Transfer(address sender, uint256 amount);\r\n    event Minted(address sender, uint256 amount);\r\n    event Bought(uint256 amount);\r\n    event Sold(uint256 amount);\r\n\r\n\r\n\r\n    modifier notDPO(IOfferingContract.OfferingType _type) {\r\n        require(_type != IOfferingContract.OfferingType.S1, \"A public offering is NOT permitted for exempt offering!\");\r\n        _;\r\n    }\r\n\r\n    IAccount Account;\r\n    ITransferAgent TransferAgent;\r\n    IShares Shares;\r\n    // using a shared library containing the shareholders, will permit current shareholders to participate in future offerings\r\n    // that is, accredited investors can participate in future exempt offerings, as well as non-accredited investors can participate\r\n    // in future public offerings and certain exempt offerings?\r\n    IShareholder Shareholder;\r\n    ITransaction Transaction;\r\n    IOfferingContract Offering;\r\n\r\n    constructor(IOfferingContract.OfferingType offeringType,\r\n                address account_contract, address transferagent_contract, address shares_contract,\r\n                uint256 initial_supply)\r\n        notDPO(offeringType)\r\n    {\r\n        _initial_supply = initial_supply;\r\n        Account = IAccount(account_contract);\r\n        TransferAgent = ITransferAgent(transferagent_contract);\r\n        Shares = IShares(shares_contract);\r\n    }\r\n\r\n    function updateTokenPrice(uint256 updatePrice)\r\n        public\r\n    {\r\n        tokenPrice = updatePrice;\r\n    }\r\n\r\n    function startOffering()\r\n        public\r\n        payable\r\n        onlyOwner\r\n    {\r\n        start();\r\n    }\r\n\r\n    function stopOffering()\r\n        public\r\n        payable\r\n        onlyOwner\r\n    {\r\n        stop();\r\n    }\r\n\r\n    function assignTransferAgent(address transferagent)\r\n        public\r\n        payable\r\n        onlyOwner\r\n    {\r\n        TransferAgent.addTransferAgent(address(this), transferagent);\r\n    }\r\n\r\n    function initialize(string memory name, string memory symbol, uint256 maxShares, IOfferingContract.OfferingType offeringType)\r\n        public\r\n        notDPO(offeringType)\r\n    {\r\n        Offering.setOffering(address(this),name,symbol,maxShares,offeringType);\r\n    }\r\n\r\n    function mint(address account, uint256 amount, uint256 epoch)\r\n        public\r\n        payable\r\n    {\r\n        require(account != address(0), \"cannot mint to the zero address\");\r\n        require(msg.sender.balance > amount, \"insufficient balance\");\r\n        //require(TransferAgent.checkTransferAgent(address(this),nonce,signature),\"unauthorized, not a valid transfer agent\");\r\n\r\n        uint256 shares = amount / Shares.getMaxPPU(address(this));\r\n        require((shares + Shares.getTotalSupply(address(this))) <= Shares.getShares(address(this)),\r\n                \"exceeds maximum offering amount\");\r\n\r\n        payable(address(this)).transfer(amount);\r\n\r\n        Shares.addTotalSupply(address(this), shares); // convert amount to debt tokens\r\n        _balances[address(this)] += amount;\r\n        _tokens[address(this)].setTotalSupply(shares);\r\n\r\n        Transaction.addTransaction(account,shares,amount,epoch);\r\n\r\n        emit Transfer(address(this), amount);\r\n        emit Minted(address(this), amount);\r\n    }\r\n\r\n    function buy()\r\n        public\r\n        payable\r\n        isRunning\r\n    {\r\n        uint256 amountTobuy = msg.value;\r\n        uint256 dexBalance = _tokens[address(this)].totalSupply();\r\n        require(amountTobuy > 0, \"You need to send some ether\");\r\n        require(amountTobuy <= dexBalance, \"Not enough tokens in the reserve\");\r\n        _tokens[address(this)].transfer(msg.sender, amountTobuy);\r\n        emit Bought(amountTobuy);\r\n    }\r\n\r\n    function sell(uint256 amount)\r\n        public\r\n        payable\r\n        isRunning\r\n    {\r\n        require(amount > 0, \"You need to sell at least some tokens\");\r\n        uint256 allowance = _tokens[address(this)].allowance(msg.sender, address(this));\r\n        require(allowance >= amount, \"Check the token allowance\");\r\n        _tokens[address(this)].transferFrom(msg.sender, address(this), amount);\r\n\r\n        payable(msg.sender).transfer(amount);\r\n        emit Sold(amount);\r\n    }\r\n}",
  "sourcePath": "/Volumes/My Book/projects/pingleware-contracts/contracts/finance/equity/ExemptEquityOffering.sol",
  "compiler": {
    "name": "solc",
    "version": "0.8.18+commit.87f61d96.Emscripten.clang"
  },
  "schemaVersion": "3.4.12",
  "updatedAt": "2023-10-23T15:40:46.961Z",
  "networkType": "ethereum",
  "devdoc": {
    "kind": "dev",
    "methods": {
      "renounceOwnership()": {
        "details": "Leaves the contract without owner. It will not be possible to call `onlyOwner` functions anymore. Can only be called by the current owner. NOTE: Renouncing ownership will leave the contract without an owner, thereby removing any functionality that is only available to the owner."
      },
      "transferOwnership(address)": {
        "details": "Transfers ownership of the contract to a new account (`newOwner`). Can only be called by the current owner."
      }
    },
    "version": 1
  },
  "userdoc": {
    "kind": "user",
    "methods": {},
    "version": 1
  }
}