{
  "contractName": "ExemptEquityOffering505",
  "abi": [
    {
      "inputs": [],
      "stateMutability": "nonpayable",
      "type": "constructor"
    },
    {
      "anonymous": false,
      "inputs": [
        {
          "indexed": false,
          "internalType": "uint256",
          "name": "value",
          "type": "uint256"
        }
      ],
      "name": "Bought",
      "type": "event"
    },
    {
      "anonymous": false,
      "inputs": [
        {
          "indexed": true,
          "internalType": "address",
          "name": "from",
          "type": "address"
        },
        {
          "indexed": false,
          "internalType": "string",
          "name": "status",
          "type": "string"
        },
        {
          "indexed": false,
          "internalType": "uint256",
          "name": "value",
          "type": "uint256"
        }
      ],
      "name": "ExemptOffering",
      "type": "event"
    },
    {
      "anonymous": false,
      "inputs": [
        {
          "indexed": false,
          "internalType": "address",
          "name": "addr",
          "type": "address"
        },
        {
          "indexed": false,
          "internalType": "uint256",
          "name": "amount",
          "type": "uint256"
        }
      ],
      "name": "Minted",
      "type": "event"
    },
    {
      "anonymous": false,
      "inputs": [
        {
          "indexed": false,
          "internalType": "address",
          "name": "addr",
          "type": "address"
        }
      ],
      "name": "MinterAdded",
      "type": "event"
    },
    {
      "anonymous": false,
      "inputs": [
        {
          "indexed": false,
          "internalType": "uint256",
          "name": "value",
          "type": "uint256"
        }
      ],
      "name": "Sold",
      "type": "event"
    },
    {
      "anonymous": false,
      "inputs": [
        {
          "indexed": false,
          "internalType": "address",
          "name": "addr",
          "type": "address"
        },
        {
          "indexed": false,
          "internalType": "uint256",
          "name": "amount",
          "type": "uint256"
        }
      ],
      "name": "Transfer",
      "type": "event"
    },
    {
      "anonymous": false,
      "inputs": [
        {
          "indexed": false,
          "internalType": "address",
          "name": "addr",
          "type": "address"
        }
      ],
      "name": "TransferAgentAdded",
      "type": "event"
    },
    {
      "anonymous": false,
      "inputs": [
        {
          "indexed": false,
          "internalType": "address",
          "name": "addr",
          "type": "address"
        }
      ],
      "name": "TransferAgentRemoved",
      "type": "event"
    },
    {
      "anonymous": false,
      "inputs": [
        {
          "indexed": false,
          "internalType": "address",
          "name": "from",
          "type": "address"
        },
        {
          "indexed": false,
          "internalType": "address",
          "name": "to",
          "type": "address"
        },
        {
          "indexed": false,
          "internalType": "uint256",
          "name": "value",
          "type": "uint256"
        }
      ],
      "name": "TransferFrom",
      "type": "event"
    },
    {
      "anonymous": false,
      "inputs": [
        {
          "indexed": false,
          "internalType": "address",
          "name": "addr",
          "type": "address"
        },
        {
          "indexed": false,
          "internalType": "bytes32",
          "name": "hash",
          "type": "bytes32"
        },
        {
          "indexed": false,
          "internalType": "address",
          "name": "sender",
          "type": "address"
        }
      ],
      "name": "VerifiedAddressAdded",
      "type": "event"
    },
    {
      "anonymous": false,
      "inputs": [
        {
          "indexed": false,
          "internalType": "address",
          "name": "addr",
          "type": "address"
        },
        {
          "indexed": false,
          "internalType": "address",
          "name": "sender",
          "type": "address"
        }
      ],
      "name": "VerifiedAddressRemoved",
      "type": "event"
    },
    {
      "anonymous": false,
      "inputs": [
        {
          "indexed": false,
          "internalType": "address",
          "name": "addr1",
          "type": "address"
        },
        {
          "indexed": false,
          "internalType": "address",
          "name": "addr2",
          "type": "address"
        },
        {
          "indexed": false,
          "internalType": "address",
          "name": "addr3",
          "type": "address"
        }
      ],
      "name": "VerifiedAddressSuperseded",
      "type": "event"
    },
    {
      "anonymous": false,
      "inputs": [
        {
          "indexed": false,
          "internalType": "address",
          "name": "addr",
          "type": "address"
        },
        {
          "indexed": false,
          "internalType": "bytes32",
          "name": "oldhash",
          "type": "bytes32"
        },
        {
          "indexed": false,
          "internalType": "bytes32",
          "name": "hash",
          "type": "bytes32"
        },
        {
          "indexed": false,
          "internalType": "address",
          "name": "sender",
          "type": "address"
        }
      ],
      "name": "VerifiedAddressUpdated",
      "type": "event"
    },
    {
      "inputs": [],
      "name": "INITIAL_SUPPLY",
      "outputs": [
        {
          "internalType": "uint256",
          "name": "",
          "type": "uint256"
        }
      ],
      "stateMutability": "view",
      "type": "function"
    },
    {
      "inputs": [],
      "name": "VERSION",
      "outputs": [
        {
          "internalType": "string",
          "name": "",
          "type": "string"
        }
      ],
      "stateMutability": "view",
      "type": "function"
    },
    {
      "inputs": [
        {
          "internalType": "address",
          "name": "",
          "type": "address"
        }
      ],
      "name": "balances",
      "outputs": [
        {
          "internalType": "uint256",
          "name": "",
          "type": "uint256"
        }
      ],
      "stateMutability": "view",
      "type": "function"
    },
    {
      "inputs": [],
      "name": "decimals",
      "outputs": [
        {
          "internalType": "uint8",
          "name": "",
          "type": "uint8"
        }
      ],
      "stateMutability": "view",
      "type": "function"
    },
    {
      "inputs": [],
      "name": "maxNonaccredited",
      "outputs": [
        {
          "internalType": "uint256",
          "name": "",
          "type": "uint256"
        }
      ],
      "stateMutability": "view",
      "type": "function"
    },
    {
      "inputs": [],
      "name": "name",
      "outputs": [
        {
          "internalType": "string",
          "name": "",
          "type": "string"
        }
      ],
      "stateMutability": "view",
      "type": "function"
    },
    {
      "inputs": [],
      "name": "negative",
      "outputs": [
        {
          "internalType": "uint256",
          "name": "",
          "type": "uint256"
        }
      ],
      "stateMutability": "view",
      "type": "function"
    },
    {
      "inputs": [],
      "name": "parValue",
      "outputs": [
        {
          "internalType": "uint256",
          "name": "",
          "type": "uint256"
        }
      ],
      "stateMutability": "view",
      "type": "function"
    },
    {
      "inputs": [],
      "name": "symbol",
      "outputs": [
        {
          "internalType": "string",
          "name": "",
          "type": "string"
        }
      ],
      "stateMutability": "view",
      "type": "function"
    },
    {
      "inputs": [],
      "name": "totalSupply",
      "outputs": [
        {
          "internalType": "uint256",
          "name": "",
          "type": "uint256"
        }
      ],
      "stateMutability": "view",
      "type": "function"
    },
    {
      "inputs": [],
      "name": "totalValueMax",
      "outputs": [
        {
          "internalType": "uint256",
          "name": "",
          "type": "uint256"
        }
      ],
      "stateMutability": "view",
      "type": "function"
    },
    {
      "inputs": [
        {
          "internalType": "address",
          "name": "",
          "type": "address"
        },
        {
          "internalType": "uint256",
          "name": "",
          "type": "uint256"
        }
      ],
      "name": "transactions",
      "outputs": [
        {
          "internalType": "address",
          "name": "addr",
          "type": "address"
        },
        {
          "internalType": "uint256",
          "name": "amount",
          "type": "uint256"
        },
        {
          "internalType": "uint256",
          "name": "time",
          "type": "uint256"
        }
      ],
      "stateMutability": "view",
      "type": "function"
    },
    {
      "inputs": [
        {
          "internalType": "address",
          "name": "addr",
          "type": "address"
        }
      ],
      "name": "balanceOf",
      "outputs": [
        {
          "internalType": "uint256",
          "name": "",
          "type": "uint256"
        }
      ],
      "stateMutability": "view",
      "type": "function"
    },
    {
      "inputs": [
        {
          "internalType": "address",
          "name": "_owner",
          "type": "address"
        },
        {
          "internalType": "address",
          "name": "spender",
          "type": "address"
        }
      ],
      "name": "allowance",
      "outputs": [
        {
          "internalType": "uint256",
          "name": "",
          "type": "uint256"
        }
      ],
      "stateMutability": "view",
      "type": "function"
    },
    {
      "inputs": [
        {
          "internalType": "address",
          "name": "addr",
          "type": "address"
        }
      ],
      "name": "addMinter",
      "outputs": [],
      "stateMutability": "nonpayable",
      "type": "function"
    },
    {
      "inputs": [
        {
          "internalType": "address",
          "name": "addr",
          "type": "address"
        }
      ],
      "name": "addTransferAgent",
      "outputs": [],
      "stateMutability": "nonpayable",
      "type": "function"
    },
    {
      "inputs": [
        {
          "internalType": "address",
          "name": "addr",
          "type": "address"
        }
      ],
      "name": "removeTransferAgent",
      "outputs": [],
      "stateMutability": "nonpayable",
      "type": "function"
    },
    {
      "inputs": [
        {
          "internalType": "address",
          "name": "_to",
          "type": "address"
        },
        {
          "internalType": "uint256",
          "name": "_amount",
          "type": "uint256"
        }
      ],
      "name": "mint",
      "outputs": [
        {
          "internalType": "bool",
          "name": "",
          "type": "bool"
        }
      ],
      "stateMutability": "nonpayable",
      "type": "function"
    },
    {
      "inputs": [
        {
          "internalType": "uint256",
          "name": "timestamp",
          "type": "uint256"
        },
        {
          "internalType": "bool",
          "name": "_active",
          "type": "bool"
        }
      ],
      "name": "toggleExemptOffering",
      "outputs": [],
      "stateMutability": "nonpayable",
      "type": "function"
    },
    {
      "inputs": [
        {
          "internalType": "address",
          "name": "addr",
          "type": "address"
        }
      ],
      "name": "getTransactions",
      "outputs": [
        {
          "internalType": "string",
          "name": "",
          "type": "string"
        }
      ],
      "stateMutability": "view",
      "type": "function"
    },
    {
      "inputs": [
        {
          "internalType": "address",
          "name": "addr",
          "type": "address"
        },
        {
          "internalType": "uint256",
          "name": "index",
          "type": "uint256"
        }
      ],
      "name": "getTransactionByIndex",
      "outputs": [
        {
          "internalType": "string",
          "name": "",
          "type": "string"
        }
      ],
      "stateMutability": "view",
      "type": "function"
    },
    {
      "inputs": [],
      "name": "holderCount",
      "outputs": [
        {
          "internalType": "uint256",
          "name": "",
          "type": "uint256"
        }
      ],
      "stateMutability": "view",
      "type": "function"
    },
    {
      "inputs": [
        {
          "internalType": "uint256",
          "name": "index",
          "type": "uint256"
        }
      ],
      "name": "holderAt",
      "outputs": [
        {
          "internalType": "address",
          "name": "",
          "type": "address"
        }
      ],
      "stateMutability": "view",
      "type": "function"
    },
    {
      "inputs": [
        {
          "internalType": "address",
          "name": "addr",
          "type": "address"
        },
        {
          "internalType": "bytes32",
          "name": "hash",
          "type": "bytes32"
        }
      ],
      "name": "addVerified",
      "outputs": [],
      "stateMutability": "nonpayable",
      "type": "function"
    },
    {
      "inputs": [
        {
          "internalType": "address",
          "name": "addr",
          "type": "address"
        }
      ],
      "name": "removeVerified",
      "outputs": [],
      "stateMutability": "nonpayable",
      "type": "function"
    },
    {
      "inputs": [
        {
          "internalType": "address",
          "name": "addr",
          "type": "address"
        },
        {
          "internalType": "bytes32",
          "name": "hash",
          "type": "bytes32"
        }
      ],
      "name": "updateVerified",
      "outputs": [],
      "stateMutability": "nonpayable",
      "type": "function"
    },
    {
      "inputs": [
        {
          "internalType": "address",
          "name": "original",
          "type": "address"
        },
        {
          "internalType": "address",
          "name": "replacement",
          "type": "address"
        }
      ],
      "name": "cancelAndReissue",
      "outputs": [],
      "stateMutability": "nonpayable",
      "type": "function"
    },
    {
      "inputs": [
        {
          "internalType": "address",
          "name": "to",
          "type": "address"
        },
        {
          "internalType": "uint256",
          "name": "value",
          "type": "uint256"
        }
      ],
      "name": "transfer",
      "outputs": [
        {
          "internalType": "bool",
          "name": "",
          "type": "bool"
        }
      ],
      "stateMutability": "nonpayable",
      "type": "function"
    },
    {
      "inputs": [
        {
          "internalType": "address",
          "name": "from",
          "type": "address"
        },
        {
          "internalType": "address",
          "name": "to",
          "type": "address"
        },
        {
          "internalType": "uint256",
          "name": "value",
          "type": "uint256"
        }
      ],
      "name": "transferFrom",
      "outputs": [
        {
          "internalType": "bool",
          "name": "",
          "type": "bool"
        }
      ],
      "stateMutability": "nonpayable",
      "type": "function"
    },
    {
      "inputs": [
        {
          "internalType": "address",
          "name": "addr",
          "type": "address"
        }
      ],
      "name": "isVerified",
      "outputs": [
        {
          "internalType": "bool",
          "name": "",
          "type": "bool"
        }
      ],
      "stateMutability": "view",
      "type": "function"
    },
    {
      "inputs": [
        {
          "internalType": "address",
          "name": "addr",
          "type": "address"
        }
      ],
      "name": "isHolder",
      "outputs": [
        {
          "internalType": "bool",
          "name": "",
          "type": "bool"
        }
      ],
      "stateMutability": "view",
      "type": "function"
    },
    {
      "inputs": [
        {
          "internalType": "address",
          "name": "addr",
          "type": "address"
        },
        {
          "internalType": "bytes32",
          "name": "hash",
          "type": "bytes32"
        }
      ],
      "name": "hasHash",
      "outputs": [
        {
          "internalType": "bool",
          "name": "",
          "type": "bool"
        }
      ],
      "stateMutability": "view",
      "type": "function"
    },
    {
      "inputs": [
        {
          "internalType": "address",
          "name": "addr",
          "type": "address"
        }
      ],
      "name": "isSuperseded",
      "outputs": [
        {
          "internalType": "bool",
          "name": "",
          "type": "bool"
        }
      ],
      "stateMutability": "view",
      "type": "function"
    },
    {
      "inputs": [
        {
          "internalType": "address",
          "name": "addr",
          "type": "address"
        }
      ],
      "name": "getCurrentFor",
      "outputs": [
        {
          "internalType": "address",
          "name": "",
          "type": "address"
        }
      ],
      "stateMutability": "view",
      "type": "function"
    },
    {
      "inputs": [
        {
          "internalType": "address",
          "name": "addr",
          "type": "address"
        },
        {
          "internalType": "uint256",
          "name": "level",
          "type": "uint256"
        }
      ],
      "name": "addShareholder",
      "outputs": [],
      "stateMutability": "nonpayable",
      "type": "function"
    },
    {
      "inputs": [],
      "name": "buy",
      "outputs": [],
      "stateMutability": "payable",
      "type": "function"
    },
    {
      "inputs": [
        {
          "internalType": "address payable",
          "name": "sender",
          "type": "address"
        },
        {
          "internalType": "uint256",
          "name": "amount",
          "type": "uint256"
        }
      ],
      "name": "sell",
      "outputs": [],
      "stateMutability": "payable",
      "type": "function"
    }
  ],
  "bytecode": "0x6080604052600080556000600c60006101000a81548160ff0219169083151502179055506000600e556001600f60006101000a81548160ff0219169083151502179055506301dfe2006010553480156200005857600080fd5b5033600960006101000a81548173ffffffffffffffffffffffffffffffffffffffff021916908373ffffffffffffffffffffffffffffffffffffffff160217905550620000cd600960009054906101000a900473ffffffffffffffffffffffffffffffffffffffff166200011260201b60201c565b6200010b600960009054906101000a900473ffffffffffffffffffffffffffffffffffffffff1669152d02c7e14af68000006200029960201b60201c565b506200061c565b600960009054906101000a900473ffffffffffffffffffffffffffffffffffffffff1673ffffffffffffffffffffffffffffffffffffffff163373ffffffffffffffffffffffffffffffffffffffff1614620001a5576040517f08c379a00000000000000000000000000000000000000000000000000000000081526004016200019c90620003e0565b60405180910390fd5b600073ffffffffffffffffffffffffffffffffffffffff168173ffffffffffffffffffffffffffffffffffffffff16141562000218576040517f08c379a00000000000000000000000000000000000000000000000000000000081526004016200020f9062000452565b60405180910390fd5b6001600660008373ffffffffffffffffffffffffffffffffffffffff1673ffffffffffffffffffffffffffffffffffffffff168152602001908152602001600020819055507f6ae172837ea30b801fbfcdd4108aa1d5bf8ff775444fd70256b44e6bf3dfc3f6816040516200028e9190620004b9565b60405180910390a150565b60008054821115620002e2576040517f08c379a0000000000000000000000000000000000000000000000000000000008152600401620002d99062000526565b60405180910390fd5b81600460008573ffffffffffffffffffffffffffffffffffffffff1673ffffffffffffffffffffffffffffffffffffffff168152602001908152602001600020600082825462000333919062000581565b925050819055507f30385c845b448a36257a6a1716e6ad2e1bc2cbe333cde1e69fe849ad6511adfe83836040516200036d929190620005ef565b60405180910390a16001905092915050565b600082825260208201905092915050565b7f6163636573732064656e69656400000000000000000000000000000000000000600082015250565b6000620003c8600d836200037f565b9150620003d58262000390565b602082019050919050565b60006020820190508181036000830152620003fb81620003b9565b9050919050565b7f6d697373696e67206d696e746572206164647265737300000000000000000000600082015250565b60006200043a6016836200037f565b9150620004478262000402565b602082019050919050565b600060208201905081810360008301526200046d816200042b565b9050919050565b600073ffffffffffffffffffffffffffffffffffffffff82169050919050565b6000620004a18262000474565b9050919050565b620004b38162000494565b82525050565b6000602082019050620004d06000830184620004a8565b92915050565b7f6578636565647320746f74616c20737570706c79000000000000000000000000600082015250565b60006200050e6014836200037f565b91506200051b82620004d6565b602082019050919050565b600060208201905081810360008301526200054181620004ff565b9050919050565b6000819050919050565b7f4e487b7100000000000000000000000000000000000000000000000000000000600052601160045260246000fd5b60006200058e8262000548565b91506200059b8362000548565b9250827fffffffffffffffffffffffffffffffffffffffffffffffffffffffffffffffff03821115620005d357620005d262000552565b5b828201905092915050565b620005e98162000548565b82525050565b6000604082019050620006066000830185620004a8565b620006156020830184620005de565b9392505050565b6154bb806200062c6000396000f3fe60806040526004361061021a5760003560e01c806347089f6211610123578063a6f2ae3a116100ab578063cc397ed31161006f578063cc397ed314610805578063d4d7b19a14610842578063dd62ed3e1461087f578063f3221c7f146108bc578063ffa1ad74146108f95761021a565b8063a6f2ae3a1461072d578063a9059cbb14610737578063b031459914610774578063b9209e331461079d578063c93fcbb4146107da5761021a565b806375724990116100f2578063757249901461065c57806379f64720146106855780638bf14094146106ae57806395d89b41146106d9578063983b2d56146107045761021a565b806347089f62146105b1578063610db94e146105da5780636c197ff51461060357806370a082311461061f5761021a565b806327e235e3116101a65780632ff2e9dc116101755780632ff2e9dc146104cc578063313ce567146104f7578063354b7b1d1461052257806340c10f191461054b5780634487b392146105885761021a565b806327e235e3146103ea5780632ab2efc8146104275780632cea64bf146104645780632da7293e1461048f5761021a565b8063197bc336116101ed578063197bc336146102f15780631aab9a9f1461032e5780631cb3ef1f146103595780631fb716e41461038457806323b872dd146103ad5761021a565b806306fdde031461021f5780630f8cda201461024a578063145381281461028757806318160ddd146102c6575b600080fd5b34801561022b57600080fd5b50610234610924565b604051610241919061427a565b60405180910390f35b34801561025657600080fd5b50610271600480360381019061026c91906142ff565b61095d565b60405161027e919061427a565b60405180910390f35b34801561029357600080fd5b506102ae60048036038101906102a99190614362565b610bdb565b6040516102bd939291906143c0565b60405180910390f35b3480156102d257600080fd5b506102db610c42565b6040516102e891906143f7565b60405180910390f35b3480156102fd57600080fd5b5061031860048036038101906103139190614412565b610c48565b604051610325919061443f565b60405180910390f35b34801561033a57600080fd5b50610343610d67565b60405161035091906143f7565b60405180910390f35b34801561036557600080fd5b5061036e610e04565b60405161037b91906143f7565b60405180910390f35b34801561039057600080fd5b506103ab60048036038101906103a69190614492565b610e28565b005b3480156103b957600080fd5b506103d460048036038101906103cf91906144d2565b611040565b6040516103e19190614534565b60405180910390f35b3480156103f657600080fd5b50610411600480360381019061040c91906142ff565b6113a9565b60405161041e91906143f7565b60405180910390f35b34801561043357600080fd5b5061044e60048036038101906104499190614362565b6113c1565b60405161045b919061427a565b60405180910390f35b34801561047057600080fd5b506104796115c5565b60405161048691906143f7565b60405180910390f35b34801561049b57600080fd5b506104b660048036038101906104b191906142ff565b6115ca565b6040516104c39190614534565b60405180910390f35b3480156104d857600080fd5b506104e16116f3565b6040516104ee91906143f7565b60405180910390f35b34801561050357600080fd5b5061050c611701565b604051610519919061456b565b60405180910390f35b34801561052e57600080fd5b50610549600480360381019061054491906145bc565b611706565b005b34801561055757600080fd5b50610572600480360381019061056d9190614362565b611935565b60405161057f9190614534565b60405180910390f35b34801561059457600080fd5b506105af60048036038101906105aa91906142ff565b611d32565b005b3480156105bd57600080fd5b506105d860048036038101906105d391906145bc565b611ee9565b005b3480156105e657600080fd5b5061060160048036038101906105fc91906142ff565b612206565b005b61061d6004803603810190610618919061463a565b612428565b005b34801561062b57600080fd5b50610646600480360381019061064191906142ff565b61271d565b60405161065391906143f7565b60405180910390f35b34801561066857600080fd5b50610683600480360381019061067e9190614362565b612766565b005b34801561069157600080fd5b506106ac60048036038101906106a7919061467a565b6129e6565b005b3480156106ba57600080fd5b506106c3612f97565b6040516106d091906143f7565b60405180910390f35b3480156106e557600080fd5b506106ee612f9e565b6040516106fb919061427a565b60405180910390f35b34801561071057600080fd5b5061072b600480360381019061072691906142ff565b612fd7565b005b610735613156565b005b34801561074357600080fd5b5061075e60048036038101906107599190614362565b613426565b60405161076b9190614534565b60405180910390f35b34801561078057600080fd5b5061079b600480360381019061079691906142ff565b61378d565b005b3480156107a957600080fd5b506107c460048036038101906107bf91906142ff565b61391f565b6040516107d19190614534565b60405180910390f35b3480156107e657600080fd5b506107ef61396e565b6040516107fc91906143f7565b60405180910390f35b34801561081157600080fd5b5061082c600480360381019061082791906142ff565b613973565b604051610839919061443f565b60405180910390f35b34801561084e57600080fd5b50610869600480360381019061086491906142ff565b613a15565b6040516108769190614534565b60405180910390f35b34801561088b57600080fd5b506108a660048036038101906108a1919061467a565b613a61565b6040516108b391906143f7565b60405180910390f35b3480156108c857600080fd5b506108e360048036038101906108de91906145bc565b613ae8565b6040516108f09190614534565b60405180910390f35b34801561090557600080fd5b5061090e613b72565b60405161091b919061427a565b60405180910390f35b6040518060400160405280600e81526020017f52756c652035303520546f6b656e00000000000000000000000000000000000081525081565b6060600960009054906101000a900473ffffffffffffffffffffffffffffffffffffffff1673ffffffffffffffffffffffffffffffffffffffff163373ffffffffffffffffffffffffffffffffffffffff16146109ef576040517f08c379a00000000000000000000000000000000000000000000000000000000081526004016109e690614706565b60405180910390fd5b600060405180602001604052806000815250905060005b600860008573ffffffffffffffffffffffffffffffffffffffff1673ffffffffffffffffffffffffffffffffffffffff16815260200190815260200160002080549050811015610bd15781600860008673ffffffffffffffffffffffffffffffffffffffff1673ffffffffffffffffffffffffffffffffffffffff1681526020019081526020016000208281548110610aa257610aa1614726565b5b906000526020600020906003020160000160009054906101000a900473ffffffffffffffffffffffffffffffffffffffff16600860008773ffffffffffffffffffffffffffffffffffffffff1673ffffffffffffffffffffffffffffffffffffffff1681526020019081526020016000208381548110610b2557610b24614726565b5b906000526020600020906003020160010154600860008873ffffffffffffffffffffffffffffffffffffffff1673ffffffffffffffffffffffffffffffffffffffff1681526020019081526020016000208481548110610b8857610b87614726565b5b906000526020600020906003020160020154604051602001610bad94939291906148de565b60405160208183030381529060405291508080610bc990614983565b915050610a06565b5080915050919050565b60086020528160005260406000208181548110610bf757600080fd5b9060005260206000209060030201600091509150508060000160009054906101000a900473ffffffffffffffffffffffffffffffffffffffff16908060010154908060020154905083565b60005481565b6000600960009054906101000a900473ffffffffffffffffffffffffffffffffffffffff1673ffffffffffffffffffffffffffffffffffffffff163373ffffffffffffffffffffffffffffffffffffffff1614610cda576040517f08c379a0000000000000000000000000000000000000000000000000000000008152600401610cd190614706565b60405180910390fd5b600a805490508210610d21576040517f08c379a0000000000000000000000000000000000000000000000000000000008152600401610d18906149f2565b60405180910390fd5b600a8281548110610d3557610d34614726565b5b9060005260206000200160009054906101000a900473ffffffffffffffffffffffffffffffffffffffff169050919050565b6000600960009054906101000a900473ffffffffffffffffffffffffffffffffffffffff1673ffffffffffffffffffffffffffffffffffffffff163373ffffffffffffffffffffffffffffffffffffffff1614610df9576040517f08c379a0000000000000000000000000000000000000000000000000000000008152600401610df090614706565b60405180910390fd5b600a80549050905090565b7fffffffffffffffffffffffffffffffffffffffffffffffffffffffffffffffff81565b600960009054906101000a900473ffffffffffffffffffffffffffffffffffffffff1673ffffffffffffffffffffffffffffffffffffffff163373ffffffffffffffffffffffffffffffffffffffff1614610eb8576040517f08c379a0000000000000000000000000000000000000000000000000000000008152600401610eaf90614706565b60405180910390fd5b81600d8190555080600c60006101000a81548160ff021916908315150217905550600c60009054906101000a900460ff1615610f97573373ffffffffffffffffffffffffffffffffffffffff167fb9c39a906441691d138569e18a2c9766e29c5def7618306a8f07d7dc1f34627b6040518060400160405280600e81526020017f52756c652035303520546f6b656e000000000000000000000000000000000000815250604051602001610f6c9190614a5e565b60405160208183030381529060405284604051610f8a929190614a80565b60405180910390a261103c565b3373ffffffffffffffffffffffffffffffffffffffff167fb9c39a906441691d138569e18a2c9766e29c5def7618306a8f07d7dc1f34627b6040518060400160405280600e81526020017f52756c652035303520546f6b656e0000000000000000000000000000000000008152506040516020016110159190614afc565b60405160208183030381529060405284604051611033929190614a80565b60405180910390a25b5050565b6000601054600d546110529190614b1e565b600d5410611095576040517f08c379a000000000000000000000000000000000000000000000000000000000815260040161108c90614bc0565b60405180910390fd5b600c60009054906101000a900460ff166110e4576040517f08c379a00000000000000000000000000000000000000000000000000000000081526004016110db90614c2c565b60405180910390fd5b826000801b600160008373ffffffffffffffffffffffffffffffffffffffff1673ffffffffffffffffffffffffffffffffffffffff16815260200190815260200160002054141561116a576040517f08c379a0000000000000000000000000000000000000000000000000000000008152600401611161906149f2565b60405180910390fd5b6111748584613bab565b600060405180606001604052808673ffffffffffffffffffffffffffffffffffffffff168152602001858152602001428152509050600860008673ffffffffffffffffffffffffffffffffffffffff1673ffffffffffffffffffffffffffffffffffffffff16815260200190815260200160002081908060018154018082558091505060019003906000526020600020906003020160009091909190915060008201518160000160006101000a81548173ffffffffffffffffffffffffffffffffffffffff021916908373ffffffffffffffffffffffffffffffffffffffff1602179055506020820151816001015560408201518160020155505060405180606001604052808773ffffffffffffffffffffffffffffffffffffffff168152602001857fffffffffffffffffffffffffffffffffffffffffffffffffffffffffffffffff6112c29190614c4c565b8152602001428152509050600860008773ffffffffffffffffffffffffffffffffffffffff1673ffffffffffffffffffffffffffffffffffffffff16815260200190815260200160002081908060018154018082558091505060019003906000526020600020906003020160009091909190915060008201518160000160006101000a81548173ffffffffffffffffffffffffffffffffffffffff021916908373ffffffffffffffffffffffffffffffffffffffff1602179055506020820151816001015560408201518160020155505061139e868686613e4f565b925050509392505050565b60046020528060005260406000206000915090505481565b6060600960009054906101000a900473ffffffffffffffffffffffffffffffffffffffff1673ffffffffffffffffffffffffffffffffffffffff163373ffffffffffffffffffffffffffffffffffffffff1614611453576040517f08c379a000000000000000000000000000000000000000000000000000000000815260040161144a90614706565b60405180910390fd5b600860008473ffffffffffffffffffffffffffffffffffffffff1673ffffffffffffffffffffffffffffffffffffffff16815260200190815260200160002082815481106114a4576114a3614726565b5b906000526020600020906003020160000160009054906101000a900473ffffffffffffffffffffffffffffffffffffffff16600860008573ffffffffffffffffffffffffffffffffffffffff1673ffffffffffffffffffffffffffffffffffffffff168152602001908152602001600020838154811061152757611526614726565b5b906000526020600020906003020160010154600860008673ffffffffffffffffffffffffffffffffffffffff1673ffffffffffffffffffffffffffffffffffffffff168152602001908152602001600020848154811061158a57611589614726565b5b9060005260206000209060030201600201546040516020016115ae93929190614ca6565b604051602081830303815290604052905092915050565b600a81565b6000600960009054906101000a900473ffffffffffffffffffffffffffffffffffffffff1673ffffffffffffffffffffffffffffffffffffffff163373ffffffffffffffffffffffffffffffffffffffff161461165c576040517f08c379a000000000000000000000000000000000000000000000000000000000815260040161165390614706565b60405180910390fd5b600073ffffffffffffffffffffffffffffffffffffffff16600260008473ffffffffffffffffffffffffffffffffffffffff1673ffffffffffffffffffffffffffffffffffffffff16815260200190815260200160002060009054906101000a900473ffffffffffffffffffffffffffffffffffffffff1673ffffffffffffffffffffffffffffffffffffffff1614159050919050565b69152d02c7e14af680000081565b600081565b600960009054906101000a900473ffffffffffffffffffffffffffffffffffffffff1673ffffffffffffffffffffffffffffffffffffffff163373ffffffffffffffffffffffffffffffffffffffff1614611796576040517f08c379a000000000000000000000000000000000000000000000000000000000815260040161178d90614706565b60405180910390fd5b816000801b600160008373ffffffffffffffffffffffffffffffffffffffff1673ffffffffffffffffffffffffffffffffffffffff16815260200190815260200160002054141561181c576040517f08c379a0000000000000000000000000000000000000000000000000000000008152600401611813906149f2565b60405180910390fd5b6000801b821415611862576040517f08c379a0000000000000000000000000000000000000000000000000000000008152600401611859906149f2565b60405180910390fd5b6000600160008573ffffffffffffffffffffffffffffffffffffffff1673ffffffffffffffffffffffffffffffffffffffff16815260200190815260200160002054905082811461192f5782600160008673ffffffffffffffffffffffffffffffffffffffff1673ffffffffffffffffffffffffffffffffffffffff168152602001908152602001600020819055507f63ec12603f028c6f74dc3c59a67d645d431250142b56676015d25475ee3fc3d3848285336040516119269493929190614d1e565b60405180910390a15b50505050565b6000601054600d546119479190614b1e565b600d541061198a576040517f08c379a000000000000000000000000000000000000000000000000000000000815260040161198190614bc0565b60405180910390fd5b600c60009054906101000a900460ff166119d9576040517f08c379a00000000000000000000000000000000000000000000000000000000081526004016119d090614c2c565b60405180910390fd5b600960009054906101000a900473ffffffffffffffffffffffffffffffffffffffff1673ffffffffffffffffffffffffffffffffffffffff163373ffffffffffffffffffffffffffffffffffffffff1614611a69576040517f08c379a0000000000000000000000000000000000000000000000000000000008152600401611a6090614706565b60405180910390fd5b6001600660003373ffffffffffffffffffffffffffffffffffffffff1673ffffffffffffffffffffffffffffffffffffffff1681526020019081526020016000205414611aeb576040517f08c379a0000000000000000000000000000000000000000000000000000000008152600401611ae290614daf565b60405180910390fd5b826000801b600160008373ffffffffffffffffffffffffffffffffffffffff1673ffffffffffffffffffffffffffffffffffffffff168152602001908152602001600020541415611b71576040517f08c379a0000000000000000000000000000000000000000000000000000000008152600401611b68906149f2565b60405180910390fd5b82600a8111611bb5576040517f08c379a0000000000000000000000000000000000000000000000000000000008152600401611bac90614e1b565b60405180910390fd5b83624c4b4081600e54611bc89190614b1e565b10611c08576040517f08c379a0000000000000000000000000000000000000000000000000000000008152600401611bff90614ead565b60405180910390fd5b84600e6000828254611c1a9190614b1e565b92505081905550600060405180606001604052808873ffffffffffffffffffffffffffffffffffffffff168152602001878152602001428152509050600860008873ffffffffffffffffffffffffffffffffffffffff1673ffffffffffffffffffffffffffffffffffffffff16815260200190815260200160002081908060018154018082558091505060019003906000526020600020906003020160009091909190915060008201518160000160006101000a81548173ffffffffffffffffffffffffffffffffffffffff021916908373ffffffffffffffffffffffffffffffffffffffff16021790555060208201518160010155604082015181600201555050611d268787613fc4565b94505050505092915050565b600960009054906101000a900473ffffffffffffffffffffffffffffffffffffffff1673ffffffffffffffffffffffffffffffffffffffff163373ffffffffffffffffffffffffffffffffffffffff1614611dc2576040517f08c379a0000000000000000000000000000000000000000000000000000000008152600401611db990614706565b60405180910390fd5b60008173ffffffffffffffffffffffffffffffffffffffff163114611e1c576040517f08c379a0000000000000000000000000000000000000000000000000000000008152600401611e1390614f19565b60405180910390fd5b6000801b600160008373ffffffffffffffffffffffffffffffffffffffff1673ffffffffffffffffffffffffffffffffffffffff1681526020019081526020016000205414611ee6576000801b600160008373ffffffffffffffffffffffffffffffffffffffff1673ffffffffffffffffffffffffffffffffffffffff168152602001908152602001600020819055507f8071c01a493142de896a206c19ca180d32e91d6486fcf11ea299f569f5d922b58133604051611edd929190614f39565b60405180910390a15b50565b600960009054906101000a900473ffffffffffffffffffffffffffffffffffffffff1673ffffffffffffffffffffffffffffffffffffffff163373ffffffffffffffffffffffffffffffffffffffff1614611f79576040517f08c379a0000000000000000000000000000000000000000000000000000000008152600401611f7090614706565b60405180910390fd5b81600073ffffffffffffffffffffffffffffffffffffffff16600260008373ffffffffffffffffffffffffffffffffffffffff1673ffffffffffffffffffffffffffffffffffffffff16815260200190815260200160002060009054906101000a900473ffffffffffffffffffffffffffffffffffffffff1673ffffffffffffffffffffffffffffffffffffffff1614612048576040517f08c379a000000000000000000000000000000000000000000000000000000000815260040161203f906149f2565b60405180910390fd5b600073ffffffffffffffffffffffffffffffffffffffff168373ffffffffffffffffffffffffffffffffffffffff1614156120b8576040517f08c379a00000000000000000000000000000000000000000000000000000000081526004016120af906149f2565b60405180910390fd5b6000801b8214156120fe576040517f08c379a00000000000000000000000000000000000000000000000000000000081526004016120f5906149f2565b60405180910390fd5b6000801b600160008573ffffffffffffffffffffffffffffffffffffffff1673ffffffffffffffffffffffffffffffffffffffff1681526020019081526020016000205414612182576040517f08c379a0000000000000000000000000000000000000000000000000000000008152600401612179906149f2565b60405180910390fd5b81600160008573ffffffffffffffffffffffffffffffffffffffff1673ffffffffffffffffffffffffffffffffffffffff168152602001908152602001600020819055507fb4f9d1d687d745820ae7c948518d6eef182cfbf5ef20b5b6a33769059592e7c88383336040516121f993929190614f62565b60405180910390a1505050565b600960009054906101000a900473ffffffffffffffffffffffffffffffffffffffff1673ffffffffffffffffffffffffffffffffffffffff163373ffffffffffffffffffffffffffffffffffffffff1614612296576040517f08c379a000000000000000000000000000000000000000000000000000000000815260040161228d90614706565b60405180910390fd5b600073ffffffffffffffffffffffffffffffffffffffff168173ffffffffffffffffffffffffffffffffffffffff1614612305576040517f08c379a00000000000000000000000000000000000000000000000000000000081526004016122fc90614fe5565b60405180910390fd5b600960009054906101000a900473ffffffffffffffffffffffffffffffffffffffff1673ffffffffffffffffffffffffffffffffffffffff168173ffffffffffffffffffffffffffffffffffffffff161415612396576040517f08c379a000000000000000000000000000000000000000000000000000000000815260040161238d90615051565b60405180910390fd5b6000600560008373ffffffffffffffffffffffffffffffffffffffff1673ffffffffffffffffffffffffffffffffffffffff16815260200190815260200160002060006101000a81548160ff0219169083151502179055507f2a6c8fd6a904ef448050f3dd3c91d69c89f6029c4144371b887bc536b34f6caa8160405161241d919061443f565b60405180910390a150565b600c60009054906101000a900460ff16612477576040517f08c379a000000000000000000000000000000000000000000000000000000000815260040161246e90614c2c565b60405180910390fd5b816000801b600160008373ffffffffffffffffffffffffffffffffffffffff1673ffffffffffffffffffffffffffffffffffffffff1681526020019081526020016000205414156124fd576040517f08c379a00000000000000000000000000000000000000000000000000000000081526004016124f4906149f2565b60405180910390fd5b60008211612540576040517f08c379a0000000000000000000000000000000000000000000000000000000008152600401612537906150e3565b60405180910390fd5b600061254c8430613a61565b905082811015612591576040517f08c379a00000000000000000000000000000000000000000000000000000000081526004016125889061514f565b60405180910390fd5b61259c843085611040565b50600060405180606001604052808673ffffffffffffffffffffffffffffffffffffffff168152602001858152602001428152509050600860008673ffffffffffffffffffffffffffffffffffffffff1673ffffffffffffffffffffffffffffffffffffffff16815260200190815260200160002081908060018154018082558091505060019003906000526020600020906003020160009091909190915060008201518160000160006101000a81548173ffffffffffffffffffffffffffffffffffffffff021916908373ffffffffffffffffffffffffffffffffffffffff160217905550602082015181600101556040820151816002015550508473ffffffffffffffffffffffffffffffffffffffff166108fc859081150290604051600060405180830381858888f193505050501580156126de573d6000803e3d6000fd5b507f92f64ca637d023f354075a4be751b169c1a8a9ccb6d33cdd0cb35205439957278460405161270e91906143f7565b60405180910390a15050505050565b6000600460008373ffffffffffffffffffffffffffffffffffffffff1673ffffffffffffffffffffffffffffffffffffffff168152602001908152602001600020549050919050565b600960009054906101000a900473ffffffffffffffffffffffffffffffffffffffff1673ffffffffffffffffffffffffffffffffffffffff163373ffffffffffffffffffffffffffffffffffffffff16146127f6576040517f08c379a00000000000000000000000000000000000000000000000000000000081526004016127ed90614706565b60405180910390fd5b6000600360008473ffffffffffffffffffffffffffffffffffffffff1673ffffffffffffffffffffffffffffffffffffffff1681526020019081526020016000205414156129e257600081141561284c576129e1565b600060405180604001604052808473ffffffffffffffffffffffffffffffffffffffff168152602001838152509050600b60008473ffffffffffffffffffffffffffffffffffffffff1673ffffffffffffffffffffffffffffffffffffffff16815260200190815260200160002081908060018154018082558091505060019003906000526020600020906002020160009091909190915060008201518160000160006101000a81548173ffffffffffffffffffffffffffffffffffffffff021916908373ffffffffffffffffffffffffffffffffffffffff160217905550602082015181600101555050600a839080600181540180825580915050600190039060005260206000200160009091909190916101000a81548173ffffffffffffffffffffffffffffffffffffffff021916908373ffffffffffffffffffffffffffffffffffffffff1602179055506001600360008573ffffffffffffffffffffffffffffffffffffffff1673ffffffffffffffffffffffffffffffffffffffff16815260200190815260200160002081905550505b5b5050565b600c60009054906101000a900460ff16612a35576040517f08c379a0000000000000000000000000000000000000000000000000000000008152600401612a2c90614c2c565b60405180910390fd5b600960009054906101000a900473ffffffffffffffffffffffffffffffffffffffff1673ffffffffffffffffffffffffffffffffffffffff163373ffffffffffffffffffffffffffffffffffffffff1614612ac5576040517f08c379a0000000000000000000000000000000000000000000000000000000008152600401612abc90614706565b60405180910390fd5b816000600360008373ffffffffffffffffffffffffffffffffffffffff1673ffffffffffffffffffffffffffffffffffffffff168152602001908152602001600020541415612b49576040517f08c379a0000000000000000000000000000000000000000000000000000000008152600401612b40906149f2565b60405180910390fd5b816000600360008373ffffffffffffffffffffffffffffffffffffffff1673ffffffffffffffffffffffffffffffffffffffff1681526020019081526020016000205414612bcc576040517f08c379a0000000000000000000000000000000000000000000000000000000008152600401612bc3906149f2565b60405180910390fd5b826000801b600160008373ffffffffffffffffffffffffffffffffffffffff1673ffffffffffffffffffffffffffffffffffffffff168152602001908152602001600020541415612c52576040517f08c379a0000000000000000000000000000000000000000000000000000000008152600401612c49906149f2565b60405180910390fd5b6000801b600160008773ffffffffffffffffffffffffffffffffffffffff1673ffffffffffffffffffffffffffffffffffffffff1681526020019081526020016000208190555083600260008773ffffffffffffffffffffffffffffffffffffffff1673ffffffffffffffffffffffffffffffffffffffff16815260200190815260200160002060006101000a81548173ffffffffffffffffffffffffffffffffffffffff021916908373ffffffffffffffffffffffffffffffffffffffff16021790555060006001600360008873ffffffffffffffffffffffffffffffffffffffff1673ffffffffffffffffffffffffffffffffffffffff16815260200190815260200160002054612d65919061516f565b905084600a8281548110612d7c57612d7b614726565b5b9060005260206000200160006101000a81548173ffffffffffffffffffffffffffffffffffffffff021916908373ffffffffffffffffffffffffffffffffffffffff160217905550600360008773ffffffffffffffffffffffffffffffffffffffff1673ffffffffffffffffffffffffffffffffffffffff16815260200190815260200160002054600360008773ffffffffffffffffffffffffffffffffffffffff1673ffffffffffffffffffffffffffffffffffffffff168152602001908152602001600020819055506000600360008873ffffffffffffffffffffffffffffffffffffffff1673ffffffffffffffffffffffffffffffffffffffff16815260200190815260200160002081905550600460008773ffffffffffffffffffffffffffffffffffffffff1673ffffffffffffffffffffffffffffffffffffffff16815260200190815260200160002054600460008773ffffffffffffffffffffffffffffffffffffffff1673ffffffffffffffffffffffffffffffffffffffff168152602001908152602001600020819055506000600460008873ffffffffffffffffffffffffffffffffffffffff1673ffffffffffffffffffffffffffffffffffffffff168152602001908152602001600020819055507fb64971100522354f3d25283cb14e2eefcb0dd26a757482ccfe42479d0a686857868633604051612f87939291906151a3565b60405180910390a1505050505050565b624c4b4081565b6040518060400160405280600981526020017f544f4b454e2e353035000000000000000000000000000000000000000000000081525081565b600960009054906101000a900473ffffffffffffffffffffffffffffffffffffffff1673ffffffffffffffffffffffffffffffffffffffff163373ffffffffffffffffffffffffffffffffffffffff1614613067576040517f08c379a000000000000000000000000000000000000000000000000000000000815260040161305e90614706565b60405180910390fd5b600073ffffffffffffffffffffffffffffffffffffffff168173ffffffffffffffffffffffffffffffffffffffff1614156130d7576040517f08c379a00000000000000000000000000000000000000000000000000000000081526004016130ce90615226565b60405180910390fd5b6001600660008373ffffffffffffffffffffffffffffffffffffffff1673ffffffffffffffffffffffffffffffffffffffff168152602001908152602001600020819055507f6ae172837ea30b801fbfcdd4108aa1d5bf8ff775444fd70256b44e6bf3dfc3f68160405161314b919061443f565b60405180910390a150565b601054600d546131669190614b1e565b600d54106131a9576040517f08c379a00000000000000000000000000000000000000000000000000000000081526004016131a090614bc0565b60405180910390fd5b600c60009054906101000a900460ff166131f8576040517f08c379a00000000000000000000000000000000000000000000000000000000081526004016131ef90614c2c565b60405180910390fd5b34624c4b4081600e5461320b9190614b1e565b1061324b576040517f08c379a000000000000000000000000000000000000000000000000000000000815260040161324290614ead565b60405180910390fd5b6000349050600061325b3061271d565b9050600082116132a0576040517f08c379a000000000000000000000000000000000000000000000000000000000815260040161329790615292565b60405180910390fd5b808211156132e3576040517f08c379a00000000000000000000000000000000000000000000000000000000081526004016132da906152fe565b60405180910390fd5b600060405180606001604052803373ffffffffffffffffffffffffffffffffffffffff168152602001848152602001428152509050600860003373ffffffffffffffffffffffffffffffffffffffff1673ffffffffffffffffffffffffffffffffffffffff16815260200190815260200160002081908060018154018082558091505060019003906000526020600020906003020160009091909190915060008201518160000160006101000a81548173ffffffffffffffffffffffffffffffffffffffff021916908373ffffffffffffffffffffffffffffffffffffffff160217905550602082015181600101556040820151816002015550506133e83384613426565b507f4e08ba899977cf7d4c2964bce71c6b9a7ef76ee5166a4c1249a1e08016e33ef18360405161341891906143f7565b60405180910390a150505050565b6000601054600d546134389190614b1e565b600d541061347b576040517f08c379a000000000000000000000000000000000000000000000000000000000815260040161347290614bc0565b60405180910390fd5b600c60009054906101000a900460ff166134ca576040517f08c379a00000000000000000000000000000000000000000000000000000000081526004016134c190614c2c565b60405180910390fd5b826000801b600160008373ffffffffffffffffffffffffffffffffffffffff1673ffffffffffffffffffffffffffffffffffffffff168152602001908152602001600020541415613550576040517f08c379a0000000000000000000000000000000000000000000000000000000008152600401613547906149f2565b60405180910390fd5b61355a3384613bab565b600060405180606001604052808673ffffffffffffffffffffffffffffffffffffffff168152602001858152602001428152509050600860008673ffffffffffffffffffffffffffffffffffffffff1673ffffffffffffffffffffffffffffffffffffffff16815260200190815260200160002081908060018154018082558091505060019003906000526020600020906003020160009091909190915060008201518160000160006101000a81548173ffffffffffffffffffffffffffffffffffffffff021916908373ffffffffffffffffffffffffffffffffffffffff1602179055506020820151816001015560408201518160020155505060405180606001604052803373ffffffffffffffffffffffffffffffffffffffff168152602001857fffffffffffffffffffffffffffffffffffffffffffffffffffffffffffffffff6136a89190614c4c565b8152602001428152509050600860003373ffffffffffffffffffffffffffffffffffffffff1673ffffffffffffffffffffffffffffffffffffffff16815260200190815260200160002081908060018154018082558091505060019003906000526020600020906003020160009091909190915060008201518160000160006101000a81548173ffffffffffffffffffffffffffffffffffffffff021916908373ffffffffffffffffffffffffffffffffffffffff1602179055506020820151816001015560408201518160020155505061378385856140a3565b9250505092915050565b600960009054906101000a900473ffffffffffffffffffffffffffffffffffffffff1673ffffffffffffffffffffffffffffffffffffffff163373ffffffffffffffffffffffffffffffffffffffff161461381d576040517f08c379a000000000000000000000000000000000000000000000000000000000815260040161381490614706565b60405180910390fd5b600073ffffffffffffffffffffffffffffffffffffffff168173ffffffffffffffffffffffffffffffffffffffff16141561388d576040517f08c379a000000000000000000000000000000000000000000000000000000000815260040161388490614fe5565b60405180910390fd5b6001600560008373ffffffffffffffffffffffffffffffffffffffff1673ffffffffffffffffffffffffffffffffffffffff16815260200190815260200160002060006101000a81548160ff0219169083151502179055507f1e9fcacb7052d8badc53a7061f6dc79beafe00b872cc7d0a57c541023eb9eabc81604051613914919061443f565b60405180910390a150565b60008060001b600160008473ffffffffffffffffffffffffffffffffffffffff1673ffffffffffffffffffffffffffffffffffffffff1681526020019081526020016000205414159050919050565b602381565b6000600960009054906101000a900473ffffffffffffffffffffffffffffffffffffffff1673ffffffffffffffffffffffffffffffffffffffff163373ffffffffffffffffffffffffffffffffffffffff1614613a05576040517f08c379a00000000000000000000000000000000000000000000000000000000081526004016139fc90614706565b60405180910390fd5b613a0e8261412c565b9050919050565b600080600360008473ffffffffffffffffffffffffffffffffffffffff1673ffffffffffffffffffffffffffffffffffffffff1681526020019081526020016000205414159050919050565b6000600760008473ffffffffffffffffffffffffffffffffffffffff1673ffffffffffffffffffffffffffffffffffffffff16815260200190815260200160002060008373ffffffffffffffffffffffffffffffffffffffff1673ffffffffffffffffffffffffffffffffffffffff16815260200190815260200160002054905092915050565b60008073ffffffffffffffffffffffffffffffffffffffff168373ffffffffffffffffffffffffffffffffffffffff161415613b275760009050613b6c565b81600160008573ffffffffffffffffffffffffffffffffffffffff1673ffffffffffffffffffffffffffffffffffffffff168152602001908152602001600020541490505b92915050565b6040518060400160405280600581526020017f312e302e3500000000000000000000000000000000000000000000000000000081525081565b6000818373ffffffffffffffffffffffffffffffffffffffff1631613bd0919061516f565b90506000811115613be15750613e4b565b60006001600360008673ffffffffffffffffffffffffffffffffffffffff1673ffffffffffffffffffffffffffffffffffffffff16815260200190815260200160002054613c2f919061516f565b905060006001600a80549050613c45919061516f565b90506000600a8281548110613c5d57613c5c614726565b5b9060005260206000200160009054906101000a900473ffffffffffffffffffffffffffffffffffffffff16905080600a8481548110613c9f57613c9e614726565b5b9060005260206000200160006101000a81548173ffffffffffffffffffffffffffffffffffffffff021916908373ffffffffffffffffffffffffffffffffffffffff160217905550600360008773ffffffffffffffffffffffffffffffffffffffff1673ffffffffffffffffffffffffffffffffffffffff16815260200190815260200160002054600360008373ffffffffffffffffffffffffffffffffffffffff1673ffffffffffffffffffffffffffffffffffffffff168152602001908152602001600020819055506000600360008873ffffffffffffffffffffffffffffffffffffffff1673ffffffffffffffffffffffffffffffffffffffff16815260200190815260200160002081905550600b60008773ffffffffffffffffffffffffffffffffffffffff1673ffffffffffffffffffffffffffffffffffffffff168152602001908152602001600020805480613dfe57613dfd61531e565b5b6001900381819060005260206000209060020201600080820160006101000a81549073ffffffffffffffffffffffffffffffffffffffff0219169055600182016000905550509055505050505b5050565b600081600460008673ffffffffffffffffffffffffffffffffffffffff1673ffffffffffffffffffffffffffffffffffffffff1681526020019081526020016000205411613ed2576040517f08c379a0000000000000000000000000000000000000000000000000000000008152600401613ec990615399565b60405180910390fd5b81600460008573ffffffffffffffffffffffffffffffffffffffff1673ffffffffffffffffffffffffffffffffffffffff1681526020019081526020016000206000828254613f219190614b1e565b9250508190555081600460008673ffffffffffffffffffffffffffffffffffffffff1673ffffffffffffffffffffffffffffffffffffffff1681526020019081526020016000206000828254613f77919061516f565b925050819055507fc0d84ce5c7ff9ca21adb0f8436ff3f4951b4bb78c4e2fae2b6837958b3946ffd848484604051613fb1939291906153b9565b60405180910390a1600190509392505050565b6000805482111561400a576040517f08c379a00000000000000000000000000000000000000000000000000000000081526004016140019061543c565b60405180910390fd5b81600460008573ffffffffffffffffffffffffffffffffffffffff1673ffffffffffffffffffffffffffffffffffffffff16815260200190815260200160002060008282546140599190614b1e565b925050819055507f30385c845b448a36257a6a1716e6ad2e1bc2cbe333cde1e69fe849ad6511adfe838360405161409192919061545c565b60405180910390a16001905092915050565b600081600460008573ffffffffffffffffffffffffffffffffffffffff1673ffffffffffffffffffffffffffffffffffffffff168152602001908152602001600020819055507f69ca02dd4edd7bf0a4abb9ed3b7af3f14778db5d61921c7dc7cd545266326de2838360405161411a92919061545c565b60405180910390a16001905092915050565b600080600260008473ffffffffffffffffffffffffffffffffffffffff1673ffffffffffffffffffffffffffffffffffffffff16815260200190815260200160002060009054906101000a900473ffffffffffffffffffffffffffffffffffffffff169050600073ffffffffffffffffffffffffffffffffffffffff168173ffffffffffffffffffffffffffffffffffffffff1614156141cf57829150506141dc565b6141d88161412c565b9150505b919050565b600081519050919050565b600082825260208201905092915050565b60005b8381101561421b578082015181840152602081019050614200565b8381111561422a576000848401525b50505050565b6000601f19601f8301169050919050565b600061424c826141e1565b61425681856141ec565b93506142668185602086016141fd565b61426f81614230565b840191505092915050565b600060208201905081810360008301526142948184614241565b905092915050565b600080fd5b600073ffffffffffffffffffffffffffffffffffffffff82169050919050565b60006142cc826142a1565b9050919050565b6142dc816142c1565b81146142e757600080fd5b50565b6000813590506142f9816142d3565b92915050565b6000602082840312156143155761431461429c565b5b6000614323848285016142ea565b91505092915050565b6000819050919050565b61433f8161432c565b811461434a57600080fd5b50565b60008135905061435c81614336565b92915050565b600080604083850312156143795761437861429c565b5b6000614387858286016142ea565b92505060206143988582860161434d565b9150509250929050565b6143ab816142c1565b82525050565b6143ba8161432c565b82525050565b60006060820190506143d560008301866143a2565b6143e260208301856143b1565b6143ef60408301846143b1565b949350505050565b600060208201905061440c60008301846143b1565b92915050565b6000602082840312156144285761442761429c565b5b60006144368482850161434d565b91505092915050565b600060208201905061445460008301846143a2565b92915050565b60008115159050919050565b61446f8161445a565b811461447a57600080fd5b50565b60008135905061448c81614466565b92915050565b600080604083850312156144a9576144a861429c565b5b60006144b78582860161434d565b92505060206144c88582860161447d565b9150509250929050565b6000806000606084860312156144eb576144ea61429c565b5b60006144f9868287016142ea565b935050602061450a868287016142ea565b925050604061451b8682870161434d565b9150509250925092565b61452e8161445a565b82525050565b60006020820190506145496000830184614525565b92915050565b600060ff82169050919050565b6145658161454f565b82525050565b6000602082019050614580600083018461455c565b92915050565b6000819050919050565b61459981614586565b81146145a457600080fd5b50565b6000813590506145b681614590565b92915050565b600080604083850312156145d3576145d261429c565b5b60006145e1858286016142ea565b92505060206145f2858286016145a7565b9150509250929050565b6000614607826142a1565b9050919050565b614617816145fc565b811461462257600080fd5b50565b6000813590506146348161460e565b92915050565b600080604083850312156146515761465061429c565b5b600061465f85828601614625565b92505060206146708582860161434d565b9150509250929050565b600080604083850312156146915761469061429c565b5b600061469f858286016142ea565b92505060206146b0858286016142ea565b9150509250929050565b7f6163636573732064656e69656400000000000000000000000000000000000000600082015250565b60006146f0600d836141ec565b91506146fb826146ba565b602082019050919050565b6000602082019050818103600083015261471f816146e3565b9050919050565b7f4e487b7100000000000000000000000000000000000000000000000000000000600052603260045260246000fd5b600081905092915050565b600061476b826141e1565b6147758185614755565b93506147858185602086016141fd565b80840191505092915050565b7f5b00000000000000000000000000000000000000000000000000000000000000600082015250565b60006147c7600183614755565b91506147d282614791565b600182019050919050565b60008160601b9050919050565b60006147f5826147dd565b9050919050565b6000614807826147ea565b9050919050565b61481f61481a826142c1565b6147fc565b82525050565b7f2c00000000000000000000000000000000000000000000000000000000000000600082015250565b600061485b600183614755565b915061486682614825565b600182019050919050565b6000819050919050565b61488c6148878261432c565b614871565b82525050565b7f5d00000000000000000000000000000000000000000000000000000000000000600082015250565b60006148c8600183614755565b91506148d382614892565b600182019050919050565b60006148ea8287614760565b91506148f5826147ba565b9150614901828661480e565b6014820191506149108261484e565b915061491c828561487b565b60208201915061492b8261484e565b9150614937828461487b565b602082019150614946826148bb565b915081905095945050505050565b7f4e487b7100000000000000000000000000000000000000000000000000000000600052601160045260246000fd5b600061498e8261432c565b91507fffffffffffffffffffffffffffffffffffffffffffffffffffffffffffffffff8214156149c1576149c0614954565b5b600182019050919050565b50565b60006149dc6000836141ec565b91506149e7826149cc565b600082019050919050565b60006020820190508181036000830152614a0b816149cf565b9050919050565b7f2068617320737461727465640000000000000000000000000000000000000000600082015250565b6000614a48600c83614755565b9150614a5382614a12565b600c82019050919050565b6000614a6a8284614760565b9150614a7582614a3b565b915081905092915050565b60006040820190508181036000830152614a9a8185614241565b9050614aa960208301846143b1565b9392505050565b7f206861732073746f707065640000000000000000000000000000000000000000600082015250565b6000614ae6600c83614755565b9150614af182614ab0565b600c82019050919050565b6000614b088284614760565b9150614b1382614ad9565b915081905092915050565b6000614b298261432c565b9150614b348361432c565b9250827fffffffffffffffffffffffffffffffffffffffffffffffffffffffffffffffff03821115614b6957614b68614954565b5b828201905092915050565b7f6f66666572696e67206861732065787069726564000000000000000000000000600082015250565b6000614baa6014836141ec565b9150614bb582614b74565b602082019050919050565b60006020820190508181036000830152614bd981614b9d565b9050919050565b7f6578656d7074206f66666572696e67206973206e6f7420616374697665000000600082015250565b6000614c16601d836141ec565b9150614c2182614be0565b602082019050919050565b60006020820190508181036000830152614c4581614c09565b9050919050565b6000614c578261432c565b9150614c628361432c565b9250817fffffffffffffffffffffffffffffffffffffffffffffffffffffffffffffffff0483118215151615614c9b57614c9a614954565b5b828202905092915050565b6000614cb1826147ba565b9150614cbd828661480e565b601482019150614ccc8261484e565b9150614cd8828561487b565b602082019150614ce78261484e565b9150614cf3828461487b565b602082019150614d02826148bb565b9150819050949350505050565b614d1881614586565b82525050565b6000608082019050614d3360008301876143a2565b614d406020830186614d0f565b614d4d6040830185614d0f565b614d5a60608301846143a2565b95945050505050565b7f6e6f742061206d696e7465720000000000000000000000000000000000000000600082015250565b6000614d99600c836141ec565b9150614da482614d63565b602082019050919050565b60006020820190508181036000830152614dc881614d8c565b9050919050565b7f616d6f756e742069732062656c6f77207061722076616c756500000000000000600082015250565b6000614e056019836141ec565b9150614e1082614dcf565b602082019050919050565b60006020820190508181036000830152614e3481614df8565b9050919050565b7f6d6178696d756d206f66666572696e6720686173206265656e2072656163686560008201527f6400000000000000000000000000000000000000000000000000000000000000602082015250565b6000614e976021836141ec565b9150614ea282614e3b565b604082019050919050565b60006020820190508181036000830152614ec681614e8a565b9050919050565b7f6163636f756e742062616c616e6365206973206e6f74207a65726f0000000000600082015250565b6000614f03601b836141ec565b9150614f0e82614ecd565b602082019050919050565b60006020820190508181036000830152614f3281614ef6565b9050919050565b6000604082019050614f4e60008301856143a2565b614f5b60208301846143a2565b9392505050565b6000606082019050614f7760008301866143a2565b614f846020830185614d0f565b614f9160408301846143a2565b949350505050565b7f6d697373696e67207472616e73666572206167656e7420616464726573730000600082015250565b6000614fcf601e836141ec565b9150614fda82614f99565b602082019050919050565b60006020820190508181036000830152614ffe81614fc2565b9050919050565b7f63616e6e6f742072656d6f766520746865206f776e6572000000000000000000600082015250565b600061503b6017836141ec565b915061504682615005565b602082019050919050565b6000602082019050818103600083015261506a8161502e565b9050919050565b7f596f75206e65656420746f2073656c6c206174206c6561737420736f6d65207460008201527f6f6b656e73000000000000000000000000000000000000000000000000000000602082015250565b60006150cd6025836141ec565b91506150d882615071565b604082019050919050565b600060208201905081810360008301526150fc816150c0565b9050919050565b7f436865636b2074686520746f6b656e20616c6c6f77616e636500000000000000600082015250565b60006151396019836141ec565b915061514482615103565b602082019050919050565b600060208201905081810360008301526151688161512c565b9050919050565b600061517a8261432c565b91506151858361432c565b92508282101561519857615197614954565b5b828203905092915050565b60006060820190506151b860008301866143a2565b6151c560208301856143a2565b6151d260408301846143a2565b949350505050565b7f6d697373696e67206d696e746572206164647265737300000000000000000000600082015250565b60006152106016836141ec565b915061521b826151da565b602082019050919050565b6000602082019050818103600083015261523f81615203565b9050919050565b7f596f75206e65656420746f2073656e6420736f6d652065746865720000000000600082015250565b600061527c601b836141ec565b915061528782615246565b602082019050919050565b600060208201905081810360008301526152ab8161526f565b9050919050565b7f4e6f7420656e6f75676820746f6b656e7320696e207468652072657365727665600082015250565b60006152e86020836141ec565b91506152f3826152b2565b602082019050919050565b60006020820190508181036000830152615317816152db565b9050919050565b7f4e487b7100000000000000000000000000000000000000000000000000000000600052603160045260246000fd5b7f696e73756666696369656e742062616c616e6365000000000000000000000000600082015250565b60006153836014836141ec565b915061538e8261534d565b602082019050919050565b600060208201905081810360008301526153b281615376565b9050919050565b60006060820190506153ce60008301866143a2565b6153db60208301856143a2565b6153e860408301846143b1565b949350505050565b7f6578636565647320746f74616c20737570706c79000000000000000000000000600082015250565b60006154266014836141ec565b9150615431826153f0565b602082019050919050565b6000602082019050818103600083015261545581615419565b9050919050565b600060408201905061547160008301856143a2565b61547e60208301846143b1565b939250505056fea26469706673582212201f9ba45fce5410c17c391cf519750f1e5b92b7d1c05e83afcaa73f0cf0d0078c64736f6c634300080a0033",
  "immutableReferences": {},
  "source": "// SPDX-License-Identifier: CC-BY-4.0\npragma solidity >=0.4.22 <0.9.0;\n\n/**\n * Under Rule 505, issuers may offer and sell up to $5 million of their securities\n * in any 12-month period.  There are limits on the types of investors who may purchase\n * the securities.  The issuer may sell to an unlimited number of accredited investors,\n * but to no more than 35 non-accredited investors.  If the issuer sells its securities to\n * non-accredited investors, the issuer must disclose certain information about itself,\n * including its financial statements.  If sales are made only to accredited investors,\n * the issuer has discretion as to what to disclose to investors.  Any information provided\n * to accredited investors must be provided to non-accredited investors.\n */\n\nimport \"../Version.sol\";\n\ncontract ExemptEquityOffering505 is Version {\n    string public constant name = \"Rule 505 Token\";\n    string public constant symbol = \"TOKEN.505\";\n    uint8 public constant decimals = 0;\n    uint256 public totalSupply = 0;\n\n    uint256 public constant negative = type(uint256).max;\n\n    uint public constant INITIAL_SUPPLY = 100000 * 1 ether;\n\n    bytes32 constant private ZERO_BYTES = bytes32(0);\n    address constant private ZERO_ADDRESS = address(0);\n\n\n    mapping(address => bytes32) private verified;\n    mapping(address => address) private cancellations;\n    mapping(address => uint256) private holderIndices;\n    mapping(address => uint256) public  balances;\n    mapping(address => bool) private transferagents;\n    mapping(address => uint256) private minters;\n    mapping(address => mapping(address => uint256)) private _allowances;\n\n    struct Transaction {\n        address addr;\n        uint256 amount;\n        uint256 time;\n    }\n\n    mapping(address => Transaction[]) public transactions;\n\n    address private owner;\n\n    address[] private shareholders;\n\n    struct Shareholder {\n        address addr;\n        uint level;\n    }\n    mapping(address => Shareholder[]) private shareholdersData;\n\n    bool internal active = false;\n    uint256 private start_timestamp;\n    event ExemptOffering(address indexed from,string status, uint256 value);\n    event Transfer(address addr, uint256 amount);\n    event TransferFrom(address from,address to,uint256 value);\n    event TransferAgentAdded(address addr);\n    event TransferAgentRemoved(address addr);\n    event MinterAdded(address addr);\n    event Minted(address addr, uint256 amount);\n    event VerifiedAddressSuperseded(address addr1,address addr2,address addr3);\n    event VerifiedAddressUpdated(address addr, bytes32 oldhash, bytes32 hash, address sender);\n    event VerifiedAddressRemoved(address addr, address sender);\n    event VerifiedAddressAdded(address addr, bytes32 hash, address sender);\n    event Bought(uint value);\n    event Sold(uint value);\n\n    uint constant public parValue = 10;\n    uint256 constant public totalValueMax = 5000000;\n    uint constant public maxNonaccredited = 35;\n    uint256 private totalValue = 0;\n\n    bool private restricted = true;\n\n     uint private year = 52 weeks;\n\n    constructor()\n    {\n        owner = msg.sender;\n        addMinter(owner);\n        _mint(owner, INITIAL_SUPPLY);\n    }\n\n    modifier onlyOwner() {\n        require(msg.sender == owner, \"access denied\");\n        _;\n    }\n\n    modifier isMinter() {\n      require(minters[msg.sender] == 1,\"not a minter\");\n      _;\n    }\n\n    modifier isActive() {\n        require(active, \"exempt offering is not active\");\n        _;\n    }\n\n    modifier isVerifiedAddress(address addr) {\n        require(verified[addr] != ZERO_BYTES, \"\");\n        _;\n    }\n\n    modifier isShareholder(address addr) {\n        require(holderIndices[addr] != 0, \"\");\n        _;\n    }\n\n    modifier isNotShareholder(address addr) {\n        require(holderIndices[addr] == 0, \"\");\n        _;\n    }\n\n    modifier isNotCancelled(address addr) {\n        require(cancellations[addr] == ZERO_ADDRESS, \"\");\n        _;\n    }\n\n    modifier isPriceBelowParValue(uint amount) {\n      require(amount > parValue, \"amount is below par value\");\n      _;\n    }\n\n    modifier isRestrictedSecurity() {\n      require(restricted != false, \"security is restricted\");\n      _;\n    }\n\n    modifier isMaximumOffering(uint256 amount) {\n        require(totalValue + amount < totalValueMax, \"maximum offering has been reached\");\n        _;\n    }\n\n    modifier isOfferingExpired() {\n        require(start_timestamp < (start_timestamp + year), \"offering has expired\");\n        _;\n    }\n    function balanceOf(address addr)\n      public\n      view\n      returns (uint256)\n    {\n      return balances[addr];\n    }\n\n    function allowance(address _owner, address spender)\n      public\n      view\n      returns (uint256)\n    {\n        return _allowances[_owner][spender];\n    }\n\n    function addMinter(address addr)\n      public\n      onlyOwner\n    {\n      require(addr != ZERO_ADDRESS, \"missing minter address\");\n      minters[addr] = 1;\n      emit MinterAdded(addr);\n    }\n\n    function addTransferAgent(address addr)\n        public\n        onlyOwner\n    {\n        require(addr != ZERO_ADDRESS, \"missing transfer agent address\");\n        transferagents[addr] = true;\n        emit TransferAgentAdded(addr);\n    }\n\n    function removeTransferAgent(address addr)\n        public\n        onlyOwner\n    {\n        require(addr == ZERO_ADDRESS,\"missing transfer agent address\");\n        require(addr != owner,\"cannot remove the owner\");\n        transferagents[addr] = false;\n        emit TransferAgentRemoved(addr);\n    }\n\n    /**\n     * As each token is minted it is added to the shareholders array.\n     * @param _to The address that will receive the minted tokens.\n     * @param _amount The amount of tokens to mint.\n     * @return A boolean that indicates if the operation was successful.\n     */\n    function mint(address _to, uint256 _amount)\n        public\n        isOfferingExpired\n        isActive\n        onlyOwner\n        isMinter\n        isVerifiedAddress(_to)\n        isPriceBelowParValue(_amount)\n        isMaximumOffering(_amount)\n        returns (bool)\n    {\n        totalValue += _amount;\n        Transaction memory trans = Transaction(_to, _amount, block.timestamp);\n        transactions[_to].push(trans);\n        return _mint(_to, _amount);\n    }\n\n    function toggleExemptOffering(uint256 timestamp, bool _active)\n        public\n        onlyOwner\n    {\n        start_timestamp = timestamp;\n        active = _active;\n\n        if (active) {\n            emit ExemptOffering(msg.sender, string(abi.encodePacked(name, \" has started\")), timestamp);\n        } else {\n            emit ExemptOffering(msg.sender, string(abi.encodePacked(name, \" has stopped\")), timestamp);\n        }\n    }\n\n    function getTransactions(address addr) public view onlyOwner returns (string memory) {\n        string memory output = \"\";\n        for (uint i = 0; i < transactions[addr].length; i++) {\n            output = string(\n                abi.encodePacked(output, \"[\", transactions[addr][i].addr, \",\", transactions[addr][i].amount, \",\",  transactions[addr][i].time, \"]\")\n            );\n        }\n        return output;\n    }\n\n    function getTransactionByIndex(address addr, uint index) public view onlyOwner returns (string memory) {\n        return string(abi.encodePacked(\n            \"[\", transactions[addr][index].addr, \",\", transactions[addr][index].amount, \",\", transactions[addr][index].time, \"]\"\n        ));\n    }\n\n    /**\n     *  The number of addresses that own tokens.\n     *  @return the number of unique addresses that own tokens.\n     */\n    function holderCount()\n        public\n        onlyOwner\n        view\n        returns (uint)\n    {\n        return shareholders.length;\n    }\n\n    /**\n     *  By counting the number of token holders using `holderCount`\n     *  you can retrieve the complete list of token holders, one at a time.\n     *  It MUST throw if `index >= holderCount()`.\n     *  @param index The zero-based index of the holder.\n     *  @return the address of the token holder with the given index.\n     */\n    function holderAt(uint256 index)\n        public\n        onlyOwner\n        view\n        returns (address)\n    {\n        require(index < shareholders.length, \"\");\n        return shareholders[index];\n    }\n\n    /**\n     *  Add a verified address, along with an associated verification hash to the contract.\n     *  Upon successful addition of a verified address, the contract must emit\n     *  `VerifiedAddressAdded(addr, hash, msg.sender)`.\n     *  It MUST throw if the supplied address or hash are zero, or if the address has already been supplied.\n     *  @param addr The address of the person represented by the supplied hash.\n     *  @param hash A cryptographic hash of the address holder's verified information.\n     */\n    function addVerified(address addr, bytes32 hash)\n        public\n        onlyOwner\n        isNotCancelled(addr)\n    {\n        require(addr != ZERO_ADDRESS, \"\");\n        require(hash != ZERO_BYTES, \"\");\n        require(verified[addr] == ZERO_BYTES, \"\");\n        verified[addr] = hash;\n        emit VerifiedAddressAdded(addr, hash, msg.sender);\n    }\n\n    /**\n     *  Remove a verified address, and the associated verification hash. If the address is\n     *  unknown to the contract then this does nothing. If the address is successfully removed, this\n     *  function must emit `VerifiedAddressRemoved(addr, msg.sender)`.\n     *  It MUST throw if an attempt is made to remove a verifiedAddress that owns Tokens.\n     *  @param addr The verified address to be removed.\n     */\n    function removeVerified(address addr)\n        public\n        onlyOwner\n    {\n        require(addr.balance == 0, \"account balance is not zero\");\n        if (verified[addr] != ZERO_BYTES) {\n            verified[addr] = ZERO_BYTES;\n            emit VerifiedAddressRemoved(addr, msg.sender);\n        }\n    }\n\n    /**\n     *  Update the hash for a verified address known to the contract.\n     *  Upon successful update of a verified address the contract must emit\n     *  `VerifiedAddressUpdated(addr, oldHash, hash, msg.sender)`.\n     *  If the hash is the same as the value already stored then\n     *  no `VerifiedAddressUpdated` event is to be emitted.\n     *  It MUST throw if the hash is zero, or if the address is unverified.\n     *  @param addr The verified address of the person represented by the supplied hash.\n     *  @param hash A new cryptographic hash of the address holder's updated verified information.\n     */\n    function updateVerified(address addr, bytes32 hash)\n        public\n        onlyOwner\n        isVerifiedAddress(addr)\n    {\n        require(hash != ZERO_BYTES, \"\");\n        bytes32 oldHash = verified[addr];\n        if (oldHash != hash) {\n            verified[addr] = hash;\n            emit VerifiedAddressUpdated(addr, oldHash, hash, msg.sender);\n        }\n    }\n\n    /**\n     *  Cancel the original address and reissue the Tokens to the replacement address.\n     *  Access to this function MUST be strictly controlled.\n     *  The `original` address MUST be removed from the set of verified addresses.\n     *  Throw if the `original` address supplied is not a shareholder.\n     *  Throw if the replacement address is not a verified address.\n     *  This function MUST emit the `VerifiedAddressSuperseded` event.\n     *  @param original The address to be superseded. This address MUST NOT be reused.\n     *  @param replacement The address  that supersedes the original. This address MUST be verified.\n     */\n    function cancelAndReissue(address original, address replacement)\n        public\n        isActive\n        onlyOwner\n        isShareholder(original)\n        isNotShareholder(replacement)\n        isVerifiedAddress(replacement)\n    {\n        // replace the original address in the shareholders array\n        // and update all the associated mappings\n        verified[original] = ZERO_BYTES;\n        cancellations[original] = replacement;\n        uint256 holderIndex = holderIndices[original] - 1;\n        shareholders[holderIndex] = replacement;\n        holderIndices[replacement] = holderIndices[original];\n        holderIndices[original] = 0;\n        balances[replacement] = balances[original];\n        balances[original] = 0;\n        emit VerifiedAddressSuperseded(original, replacement, msg.sender);\n    }\n\n    /**\n     *  The `transfer` function MUST NOT allow transfers to addresses that\n     *  have not been verified and added to the contract.\n     *  If the `to` address is not currently a shareholder then it MUST become one.\n     *  If the transfer will reduce `msg.sender`'s balance to 0 then that address\n     *  MUST be removed from the list of shareholders.\n     */\n    function transfer(address to, uint256 value)\n        public\n        isOfferingExpired\n        isActive\n        isVerifiedAddress(to)\n        returns (bool)\n    {\n        pruneShareholders(msg.sender, value);\n        Transaction memory trans = Transaction(to, value, block.timestamp);\n        transactions[to].push(trans);\n        trans = Transaction(msg.sender, negative * value, block.timestamp);\n        transactions[msg.sender].push(trans);\n\n        return _transfer(to, value);\n    }\n\n    /**\n     *  The `transferFrom` function MUST NOT allow transfers to addresses that\n     *  have not been verified and added to the contract.\n     *  If the `to` address is not currently a shareholder then it MUST become one.\n     *  If the transfer will reduce `from`'s balance to 0 then that address\n     *  MUST be removed from the list of shareholders.\n     */\n    function transferFrom(address from, address to, uint256 value)\n        public\n        isOfferingExpired\n        isActive\n        isVerifiedAddress(to)\n        returns (bool)\n    {\n        pruneShareholders(from, value);\n        Transaction memory trans = Transaction(to, value, block.timestamp);\n        transactions[to].push(trans);\n        trans = Transaction(from, negative * value, block.timestamp);\n        transactions[from].push(trans);\n\n        return _transferFrom(from, to, value);\n    }\n\n    /**\n     *  Tests that the supplied address is known to the contract.\n     *  @param addr The address to test.\n     *  @return true if the address is known to the contract.\n     */\n    function isVerified(address addr)\n        public\n        view\n        returns (bool)\n    {\n        return verified[addr] != ZERO_BYTES;\n    }\n\n    /**\n     *  Checks to see if the supplied address is a share holder.\n     *  @param addr The address to check.\n     *  @return true if the supplied address owns a token.\n     */\n    function isHolder(address addr)\n        public\n        view\n        returns (bool)\n    {\n        return holderIndices[addr] != 0;\n    }\n\n    /**\n     *  Checks that the supplied hash is associated with the given address.\n     *  @param addr The address to test.\n     *  @param hash The hash to test.\n     *  @return true if the hash matches the one supplied with the address in `addVerified`, or `updateVerified`.\n     */\n    function hasHash(address addr, bytes32 hash)\n        public\n        view\n        returns (bool)\n    {\n        if (addr == ZERO_ADDRESS) {\n            return false;\n        }\n        return verified[addr] == hash;\n    }\n\n    /**\n     *  Checks to see if the supplied address was superseded.\n     *  @param addr The address to check.\n     *  @return true if the supplied address was superseded by another address.\n     */\n    function isSuperseded(address addr)\n        public\n        view\n        onlyOwner\n        returns (bool)\n    {\n        return cancellations[addr] != ZERO_ADDRESS;\n    }\n\n    /**\n     *  Gets the most recent address, given a superseded one.\n     *  Addresses may be superseded multiple times, so this function needs to\n     *  follow the chain of addresses until it reaches the final, verified address.\n     *  @param addr The superseded address.\n     *  @return the verified address that ultimately holds the share.\n     */\n    function getCurrentFor(address addr)\n        public\n        view\n        onlyOwner\n        returns (address)\n    {\n        return findCurrentFor(addr);\n    }\n\n    /**\n     *  Recursively find the most recent address given a superseded one.\n     *  @param addr The superseded address.\n     *  @return the verified address that ultimately holds the share.\n     */\n    function findCurrentFor(address addr)\n        internal\n        view\n        returns (address)\n    {\n        address candidate = cancellations[addr];\n        if (candidate == ZERO_ADDRESS) {\n            return addr;\n        }\n        return findCurrentFor(candidate);\n    }\n\n    /**\n     *  If the address is not in the `shareholders` array then push it\n     *  and update the `holderIndices` mapping.\n     *  @param addr The address to add as a shareholder if it's not already.\n     */\n    function updateShareholders(address addr)\n        internal\n    {\n        if (holderIndices[addr] == 0) {\n          shareholders.push(addr);\n          holderIndices[addr] = 1;\n        }\n    }\n\n    function addShareholder(address addr, uint level)\n        public\n        onlyOwner\n    {\n        if (holderIndices[addr] == 0) {\n            if (level == 0) {\n                //uint nonaccredited = 0;\n                //for(uint i = 0; i < shareholders.length; i++) {\n                //    address _addr = shareholders[i];\n                //    Shareholder memory shareholder = shareholdersData[_addr];\n                //    if (shareholder.level == 0) {\n                //        nonaccredited++;\n                //    }\n                //}\n                //if (nonaccredited < maxNonaccredited) {\n                //    Shareholder memory shareholder = Shareholder(addr, level);\n                //    shareholdersData[addr].push(shareholder);\n                //    holderIndices[addr] = shareholders.push(addr);\n                //}\n            } else {\n                Shareholder memory shareholder = Shareholder(addr, level);\n                shareholdersData[addr].push(shareholder);\n                shareholders.push(addr);\n                holderIndices[addr] = 1;\n            }\n        }\n    }\n\n    /**\n     *  If the address is in the `shareholders` array and the forthcoming\n     *  transfer or transferFrom will reduce their balance to 0, then\n     *  we need to remove them from the shareholders array.\n     *  @param addr The address to prune if their balance will be reduced to 0.\n     @  @dev see https://ethereum.stackexchange.com/a/39311\n     */\n    function pruneShareholders(address addr, uint256 value)\n        internal\n    {\n        uint256 balance = addr.balance - value;\n        if (balance > 0) {\n            return;\n        }\n        uint256 holderIndex = holderIndices[addr] - 1;\n        uint256 lastIndex = shareholders.length - 1;\n        address lastHolder = shareholders[lastIndex];\n        // overwrite the addr's slot with the last shareholder\n        shareholders[holderIndex] = lastHolder;\n        // also copy over the index (thanks @mohoff for spotting this)\n        // ref https://github.com/davesag/ERC884-reference-implementation/issues/20\n        holderIndices[lastHolder] = holderIndices[addr];\n        // trim the shareholders array (which drops the last entry)\n        //delete shareholders[shareholders.length - 1];\n        // and zero out the index for addr\n        holderIndices[addr] = 0;\n        shareholdersData[addr].pop();\n    }\n\n    function buy()\n        public\n        payable\n        isOfferingExpired\n        isActive\n        isMaximumOffering(msg.value)\n    {\n        uint256 amountTobuy = msg.value;\n        uint256 dexBalance = balanceOf(address(this));\n        require(amountTobuy > 0, \"You need to send some ether\");\n        require(amountTobuy <= dexBalance, \"Not enough tokens in the reserve\");\n        Transaction memory trans = Transaction(msg.sender, amountTobuy, block.timestamp);\n        transactions[msg.sender].push(trans);\n        transfer(msg.sender, amountTobuy);\n        emit Bought(amountTobuy);\n    }\n\n    function sell(address payable sender,uint256 amount)\n        public\n        payable\n        isActive\n        isVerifiedAddress(sender)\n    {\n        require(amount > 0, \"You need to sell at least some tokens\");\n        uint256 _allowance = allowance(sender, address(this));\n        require(_allowance >= amount, \"Check the token allowance\");\n        transferFrom(sender, address(this), amount);\n        Transaction memory trans = Transaction(sender, amount, block.timestamp);\n        transactions[sender].push(trans);\n        sender.transfer(amount);\n        emit Sold(amount);\n    }\n\n    // Internal\n    function _mint(address addr, uint256 amount)\n      internal\n      returns (bool)\n    {\n      require(amount <= totalSupply, \"exceeds total supply\");\n      balances[addr] += amount;\n      emit Minted(addr, amount);\n      return true;\n    }\n\n    function _transfer(address addr, uint256 amount)\n      internal\n      returns (bool)\n    {\n      balances[addr] = amount;\n      emit Transfer(addr, amount);\n      return true;\n    }\n\n    function _transferFrom(address from,address to,uint256 value)\n      internal\n      returns (bool)\n    {\n      require(balances[from] > value, \"insufficient balance\");\n      balances[to] += value;\n      balances[from] -= value;\n      emit TransferFrom(from, to, value);\n      return true;\n    }\n}\n",
  "sourcePath": "G:\\projects\\pingleware-contracts\\contracts\\equity\\ExemptEquityOffering505.sol",
  "compiler": {
    "name": "solc",
    "version": "0.8.10+commit.fc410830.Emscripten.clang"
  },
  "schemaVersion": "3.4.3",
  "updatedAt": "2021-12-21T14:42:05.528Z",
  "devdoc": {
    "kind": "dev",
    "methods": {
      "addVerified(address,bytes32)": {
        "params": {
          "addr": "The address of the person represented by the supplied hash.",
          "hash": "A cryptographic hash of the address holder's verified information."
        }
      },
      "cancelAndReissue(address,address)": {
        "params": {
          "original": "The address to be superseded. This address MUST NOT be reused.",
          "replacement": "The address  that supersedes the original. This address MUST be verified."
        }
      },
      "getCurrentFor(address)": {
        "params": {
          "addr": "The superseded address."
        },
        "returns": {
          "_0": "the verified address that ultimately holds the share."
        }
      },
      "hasHash(address,bytes32)": {
        "params": {
          "addr": "The address to test.",
          "hash": "The hash to test."
        },
        "returns": {
          "_0": "true if the hash matches the one supplied with the address in `addVerified`, or `updateVerified`."
        }
      },
      "holderAt(uint256)": {
        "params": {
          "index": "The zero-based index of the holder."
        },
        "returns": {
          "_0": "the address of the token holder with the given index."
        }
      },
      "holderCount()": {
        "returns": {
          "_0": "the number of unique addresses that own tokens."
        }
      },
      "isHolder(address)": {
        "params": {
          "addr": "The address to check."
        },
        "returns": {
          "_0": "true if the supplied address owns a token."
        }
      },
      "isSuperseded(address)": {
        "params": {
          "addr": "The address to check."
        },
        "returns": {
          "_0": "true if the supplied address was superseded by another address."
        }
      },
      "isVerified(address)": {
        "params": {
          "addr": "The address to test."
        },
        "returns": {
          "_0": "true if the address is known to the contract."
        }
      },
      "mint(address,uint256)": {
        "params": {
          "_amount": "The amount of tokens to mint.",
          "_to": "The address that will receive the minted tokens."
        },
        "returns": {
          "_0": "A boolean that indicates if the operation was successful."
        }
      },
      "removeVerified(address)": {
        "params": {
          "addr": "The verified address to be removed."
        }
      },
      "updateVerified(address,bytes32)": {
        "params": {
          "addr": "The verified address of the person represented by the supplied hash.",
          "hash": "A new cryptographic hash of the address holder's updated verified information."
        }
      }
    },
    "version": 1
  },
  "userdoc": {
    "kind": "user",
    "methods": {
      "addVerified(address,bytes32)": {
        "notice": "Add a verified address, along with an associated verification hash to the contract.  Upon successful addition of a verified address, the contract must emit  `VerifiedAddressAdded(addr, hash, msg.sender)`.  It MUST throw if the supplied address or hash are zero, or if the address has already been supplied."
      },
      "cancelAndReissue(address,address)": {
        "notice": "Cancel the original address and reissue the Tokens to the replacement address.  Access to this function MUST be strictly controlled.  The `original` address MUST be removed from the set of verified addresses.  Throw if the `original` address supplied is not a shareholder.  Throw if the replacement address is not a verified address.  This function MUST emit the `VerifiedAddressSuperseded` event."
      },
      "getCurrentFor(address)": {
        "notice": "Gets the most recent address, given a superseded one.  Addresses may be superseded multiple times, so this function needs to  follow the chain of addresses until it reaches the final, verified address."
      },
      "hasHash(address,bytes32)": {
        "notice": "Checks that the supplied hash is associated with the given address."
      },
      "holderAt(uint256)": {
        "notice": "By counting the number of token holders using `holderCount`  you can retrieve the complete list of token holders, one at a time.  It MUST throw if `index >= holderCount()`."
      },
      "holderCount()": {
        "notice": "The number of addresses that own tokens."
      },
      "isHolder(address)": {
        "notice": "Checks to see if the supplied address is a share holder."
      },
      "isSuperseded(address)": {
        "notice": "Checks to see if the supplied address was superseded."
      },
      "isVerified(address)": {
        "notice": "Tests that the supplied address is known to the contract."
      },
      "mint(address,uint256)": {
        "notice": "As each token is minted it is added to the shareholders array."
      },
      "removeVerified(address)": {
        "notice": "Remove a verified address, and the associated verification hash. If the address is  unknown to the contract then this does nothing. If the address is successfully removed, this  function must emit `VerifiedAddressRemoved(addr, msg.sender)`.  It MUST throw if an attempt is made to remove a verifiedAddress that owns Tokens."
      },
      "transfer(address,uint256)": {
        "notice": "The `transfer` function MUST NOT allow transfers to addresses that  have not been verified and added to the contract.  If the `to` address is not currently a shareholder then it MUST become one.  If the transfer will reduce `msg.sender`'s balance to 0 then that address  MUST be removed from the list of shareholders."
      },
      "transferFrom(address,address,uint256)": {
        "notice": "The `transferFrom` function MUST NOT allow transfers to addresses that  have not been verified and added to the contract.  If the `to` address is not currently a shareholder then it MUST become one.  If the transfer will reduce `from`'s balance to 0 then that address  MUST be removed from the list of shareholders."
      },
      "updateVerified(address,bytes32)": {
        "notice": "Update the hash for a verified address known to the contract.  Upon successful update of a verified address the contract must emit  `VerifiedAddressUpdated(addr, oldHash, hash, msg.sender)`.  If the hash is the same as the value already stored then  no `VerifiedAddressUpdated` event is to be emitted.  It MUST throw if the hash is zero, or if the address is unverified."
      }
    },
    "version": 1
  }
}