{
  "contractName": "ExemptDebtOfferingBond",
  "abi": [
    {
      "inputs": [],
      "stateMutability": "nonpayable",
      "type": "constructor"
    },
    {
      "anonymous": false,
      "inputs": [
        {
          "indexed": false,
          "internalType": "address",
          "name": "sender",
          "type": "address"
        },
        {
          "indexed": false,
          "internalType": "address",
          "name": "_from",
          "type": "address"
        },
        {
          "indexed": false,
          "internalType": "uint256",
          "name": "class",
          "type": "uint256"
        },
        {
          "indexed": false,
          "internalType": "uint256",
          "name": "nonce",
          "type": "uint256"
        },
        {
          "indexed": false,
          "internalType": "uint256",
          "name": "_amount",
          "type": "uint256"
        }
      ],
      "name": "eventBurnBond",
      "type": "event"
    },
    {
      "anonymous": false,
      "inputs": [
        {
          "indexed": false,
          "internalType": "address",
          "name": "sender",
          "type": "address"
        },
        {
          "indexed": false,
          "internalType": "address",
          "name": "_to",
          "type": "address"
        },
        {
          "indexed": false,
          "internalType": "uint256",
          "name": "class",
          "type": "uint256"
        },
        {
          "indexed": false,
          "internalType": "uint256",
          "name": "nonce",
          "type": "uint256"
        },
        {
          "indexed": false,
          "internalType": "uint256",
          "name": "_amount",
          "type": "uint256"
        }
      ],
      "name": "eventIssueBond",
      "type": "event"
    },
    {
      "anonymous": false,
      "inputs": [
        {
          "indexed": false,
          "internalType": "address",
          "name": "sender",
          "type": "address"
        },
        {
          "indexed": false,
          "internalType": "address",
          "name": "_from",
          "type": "address"
        },
        {
          "indexed": false,
          "internalType": "uint256",
          "name": "class",
          "type": "uint256"
        },
        {
          "indexed": false,
          "internalType": "uint256",
          "name": "nonce",
          "type": "uint256"
        },
        {
          "indexed": false,
          "internalType": "uint256",
          "name": "_amount",
          "type": "uint256"
        }
      ],
      "name": "eventRedeemBond",
      "type": "event"
    },
    {
      "anonymous": false,
      "inputs": [
        {
          "indexed": false,
          "internalType": "address",
          "name": "sender",
          "type": "address"
        },
        {
          "indexed": false,
          "internalType": "address",
          "name": "_from",
          "type": "address"
        },
        {
          "indexed": false,
          "internalType": "address",
          "name": "_to",
          "type": "address"
        },
        {
          "indexed": false,
          "internalType": "uint256",
          "name": "class",
          "type": "uint256"
        },
        {
          "indexed": false,
          "internalType": "uint256",
          "name": "nonce",
          "type": "uint256"
        },
        {
          "indexed": false,
          "internalType": "uint256",
          "name": "_amount",
          "type": "uint256"
        }
      ],
      "name": "eventTransferBond",
      "type": "event"
    },
    {
      "inputs": [
        {
          "internalType": "uint256",
          "name": "",
          "type": "uint256"
        }
      ],
      "name": "_Fibonacci_epoch",
      "outputs": [
        {
          "internalType": "uint256",
          "name": "",
          "type": "uint256"
        }
      ],
      "stateMutability": "view",
      "type": "function"
    },
    {
      "inputs": [
        {
          "internalType": "uint256",
          "name": "",
          "type": "uint256"
        }
      ],
      "name": "_Fibonacci_number",
      "outputs": [
        {
          "internalType": "uint256",
          "name": "",
          "type": "uint256"
        }
      ],
      "stateMutability": "view",
      "type": "function"
    },
    {
      "inputs": [
        {
          "internalType": "uint256",
          "name": "",
          "type": "uint256"
        }
      ],
      "name": "_Symbol",
      "outputs": [
        {
          "internalType": "string",
          "name": "",
          "type": "string"
        }
      ],
      "stateMutability": "view",
      "type": "function"
    },
    {
      "inputs": [
        {
          "internalType": "uint256",
          "name": "",
          "type": "uint256"
        }
      ],
      "name": "_genesis_nonce_time",
      "outputs": [
        {
          "internalType": "uint256",
          "name": "",
          "type": "uint256"
        }
      ],
      "stateMutability": "view",
      "type": "function"
    },
    {
      "inputs": [
        {
          "internalType": "uint256",
          "name": "class",
          "type": "uint256"
        },
        {
          "internalType": "uint256",
          "name": "nonce",
          "type": "uint256"
        }
      ],
      "name": "activeSupply",
      "outputs": [
        {
          "internalType": "uint256",
          "name": "",
          "type": "uint256"
        }
      ],
      "stateMutability": "view",
      "type": "function"
    },
    {
      "inputs": [
        {
          "internalType": "address",
          "name": "account",
          "type": "address"
        },
        {
          "internalType": "uint256",
          "name": "class",
          "type": "uint256"
        },
        {
          "internalType": "uint256",
          "name": "nonce",
          "type": "uint256"
        }
      ],
      "name": "balanceOf",
      "outputs": [
        {
          "internalType": "uint256",
          "name": "",
          "type": "uint256"
        }
      ],
      "stateMutability": "view",
      "type": "function"
    },
    {
      "inputs": [
        {
          "internalType": "address",
          "name": "",
          "type": "address"
        },
        {
          "internalType": "uint256",
          "name": "",
          "type": "uint256"
        },
        {
          "internalType": "uint256",
          "name": "",
          "type": "uint256"
        }
      ],
      "name": "balances",
      "outputs": [
        {
          "internalType": "uint256",
          "name": "",
          "type": "uint256"
        }
      ],
      "stateMutability": "view",
      "type": "function"
    },
    {
      "inputs": [
        {
          "internalType": "uint256",
          "name": "class",
          "type": "uint256"
        },
        {
          "internalType": "uint256",
          "name": "nonce",
          "type": "uint256"
        }
      ],
      "name": "bondIsRedeemable",
      "outputs": [
        {
          "internalType": "bool",
          "name": "",
          "type": "bool"
        }
      ],
      "stateMutability": "view",
      "type": "function"
    },
    {
      "inputs": [
        {
          "internalType": "address",
          "name": "_from",
          "type": "address"
        },
        {
          "internalType": "uint256[]",
          "name": "class",
          "type": "uint256[]"
        },
        {
          "internalType": "uint256[]",
          "name": "nonce",
          "type": "uint256[]"
        },
        {
          "internalType": "uint256[]",
          "name": "_amount",
          "type": "uint256[]"
        }
      ],
      "name": "burnBond",
      "outputs": [
        {
          "internalType": "bool",
          "name": "",
          "type": "bool"
        }
      ],
      "stateMutability": "nonpayable",
      "type": "function"
    },
    {
      "inputs": [
        {
          "internalType": "uint256",
          "name": "class",
          "type": "uint256"
        },
        {
          "internalType": "uint256",
          "name": "nonce",
          "type": "uint256"
        }
      ],
      "name": "burnedSupply",
      "outputs": [
        {
          "internalType": "uint256",
          "name": "",
          "type": "uint256"
        }
      ],
      "stateMutability": "view",
      "type": "function"
    },
    {
      "inputs": [
        {
          "internalType": "uint256",
          "name": "class",
          "type": "uint256"
        },
        {
          "internalType": "address",
          "name": "bank_contract",
          "type": "address"
        },
        {
          "internalType": "string",
          "name": "bond_symbol",
          "type": "string"
        },
        {
          "internalType": "uint256",
          "name": "Fibonacci_number",
          "type": "uint256"
        },
        {
          "internalType": "uint256",
          "name": "Fibonacci_epoch",
          "type": "uint256"
        }
      ],
      "name": "createBondClass",
      "outputs": [
        {
          "internalType": "bool",
          "name": "",
          "type": "bool"
        }
      ],
      "stateMutability": "nonpayable",
      "type": "function"
    },
    {
      "inputs": [],
      "name": "dev_address",
      "outputs": [
        {
          "internalType": "address",
          "name": "",
          "type": "address"
        }
      ],
      "stateMutability": "view",
      "type": "function"
    },
    {
      "inputs": [
        {
          "internalType": "uint256",
          "name": "class",
          "type": "uint256"
        },
        {
          "internalType": "uint256",
          "name": "nonce",
          "type": "uint256"
        }
      ],
      "name": "getBondInfo",
      "outputs": [
        {
          "internalType": "string",
          "name": "BondSymbol",
          "type": "string"
        },
        {
          "internalType": "uint256",
          "name": "timestamp",
          "type": "uint256"
        },
        {
          "internalType": "uint256",
          "name": "info2",
          "type": "uint256"
        },
        {
          "internalType": "uint256",
          "name": "info3",
          "type": "uint256"
        },
        {
          "internalType": "uint256",
          "name": "info4",
          "type": "uint256"
        },
        {
          "internalType": "uint256",
          "name": "info5",
          "type": "uint256"
        },
        {
          "internalType": "uint256",
          "name": "info6",
          "type": "uint256"
        }
      ],
      "stateMutability": "view",
      "type": "function"
    },
    {
      "inputs": [
        {
          "internalType": "uint256",
          "name": "class",
          "type": "uint256"
        }
      ],
      "name": "getBondSymbol",
      "outputs": [
        {
          "internalType": "string",
          "name": "",
          "type": "string"
        }
      ],
      "stateMutability": "view",
      "type": "function"
    },
    {
      "inputs": [
        {
          "internalType": "uint256",
          "name": "class",
          "type": "uint256"
        }
      ],
      "name": "getNonceCreated",
      "outputs": [
        {
          "internalType": "uint256[]",
          "name": "",
          "type": "uint256[]"
        }
      ],
      "stateMutability": "view",
      "type": "function"
    },
    {
      "inputs": [
        {
          "internalType": "address",
          "name": "_to",
          "type": "address"
        },
        {
          "internalType": "uint256",
          "name": "class",
          "type": "uint256"
        },
        {
          "internalType": "uint256",
          "name": "_amount",
          "type": "uint256"
        }
      ],
      "name": "issueBond",
      "outputs": [
        {
          "internalType": "bool",
          "name": "",
          "type": "bool"
        }
      ],
      "stateMutability": "nonpayable",
      "type": "function"
    },
    {
      "inputs": [
        {
          "internalType": "address",
          "name": "_from",
          "type": "address"
        },
        {
          "internalType": "uint256",
          "name": "class",
          "type": "uint256"
        },
        {
          "internalType": "uint256[]",
          "name": "nonce",
          "type": "uint256[]"
        },
        {
          "internalType": "uint256[]",
          "name": "_amount",
          "type": "uint256[]"
        }
      ],
      "name": "redeemBond",
      "outputs": [
        {
          "internalType": "bool",
          "name": "",
          "type": "bool"
        }
      ],
      "stateMutability": "nonpayable",
      "type": "function"
    },
    {
      "inputs": [
        {
          "internalType": "uint256",
          "name": "class",
          "type": "uint256"
        },
        {
          "internalType": "uint256",
          "name": "nonce",
          "type": "uint256"
        }
      ],
      "name": "redeemedSupply",
      "outputs": [
        {
          "internalType": "uint256",
          "name": "",
          "type": "uint256"
        }
      ],
      "stateMutability": "view",
      "type": "function"
    },
    {
      "inputs": [
        {
          "internalType": "uint256",
          "name": "class",
          "type": "uint256"
        },
        {
          "internalType": "address",
          "name": "bank_contract",
          "type": "address"
        }
      ],
      "name": "setBond",
      "outputs": [
        {
          "internalType": "bool",
          "name": "",
          "type": "bool"
        }
      ],
      "stateMutability": "payable",
      "type": "function"
    },
    {
      "inputs": [
        {
          "internalType": "uint256",
          "name": "class",
          "type": "uint256"
        },
        {
          "internalType": "uint256",
          "name": "nonce",
          "type": "uint256"
        }
      ],
      "name": "totalSupply",
      "outputs": [
        {
          "internalType": "uint256",
          "name": "",
          "type": "uint256"
        }
      ],
      "stateMutability": "view",
      "type": "function"
    },
    {
      "inputs": [
        {
          "internalType": "address",
          "name": "_from",
          "type": "address"
        },
        {
          "internalType": "address",
          "name": "_to",
          "type": "address"
        },
        {
          "internalType": "uint256[]",
          "name": "class",
          "type": "uint256[]"
        },
        {
          "internalType": "uint256[]",
          "name": "nonce",
          "type": "uint256[]"
        },
        {
          "internalType": "uint256[]",
          "name": "_amount",
          "type": "uint256[]"
        }
      ],
      "name": "transferBond",
      "outputs": [
        {
          "internalType": "bool",
          "name": "",
          "type": "bool"
        }
      ],
      "stateMutability": "nonpayable",
      "type": "function"
    }
  ],
  "bytecode": "0x608060405233601060006101000a81548173ffffffffffffffffffffffffffffffffffffffff021916908373ffffffffffffffffffffffffffffffffffffffff1602179055503480156200005257600080fd5b5033600460006101000a81548173ffffffffffffffffffffffffffffffffffffffff021916908373ffffffffffffffffffffffffffffffffffffffff1602179055506040518060400160405280600d81526020017f534153482d55534420426f6e64000000000000000000000000000000000000008152506005600081548110620000e257620000e162000203565b5b9060005260206000200190805190602001906200010192919062000153565b5060086006600080815260200190815260200160002081905550600160076000808152602001908152602001600020819055506000600860008081526020019081526020016000208190555062000297565b828054620001619062000261565b90600052602060002090601f016020900481019282620001855760008555620001d1565b82601f10620001a057805160ff1916838001178555620001d1565b82800160010185558215620001d1579182015b82811115620001d0578251825591602001919060010190620001b3565b5b509050620001e09190620001e4565b5090565b5b80821115620001ff576000816000905550600101620001e5565b5090565b7f4e487b7100000000000000000000000000000000000000000000000000000000600052603260045260246000fd5b7f4e487b7100000000000000000000000000000000000000000000000000000000600052602260045260246000fd5b600060028204905060018216806200027a57607f821691505b6020821081141562000291576200029062000232565b5b50919050565b61351180620002a76000396000f3fe60806040526004361061012a5760003560e01c806376094580116100ab578063b15edbe51161006f578063b15edbe5146104b6578063b2ee391e146104f3578063bc3c19f714610523578063c2458d6b14610560578063ccea7b861461059d578063de26ffad146105da5761012a565b806376094580146103915780637abb8efb146103ce5780637fc81fb5146103f95780639b562239146104365780639e045638146104735761012a565b806352f7091c116100f257806352f7091c146102605780635825d8fd1461029d578063675981b7146102da5780636ca8a58f1461031757806371d68ce8146103545761012a565b80631d0f114b1461012f5780632d760d571461016c5780632ddea62b146101a95780632e513c06146101e65780634be80cb914610223575b600080fd5b34801561013b57600080fd5b50610156600480360381019061015191906123b7565b610617565b604051610163919061247d565b60405180910390f35b34801561017857600080fd5b50610193600480360381019061018e91906124fd565b6106c3565b6040516101a0919061255f565b60405180910390f35b3480156101b557600080fd5b506101d060048036038101906101cb91906125df565b61079f565b6040516101dd91906126d6565b60405180910390f35b3480156101f257600080fd5b5061020d600480360381019061020891906123b7565b610ac7565b60405161021a91906127af565b60405180910390f35b34801561022f57600080fd5b5061024a600480360381019061024591906123b7565b610b32565b604051610257919061247d565b60405180910390f35b34801561026c57600080fd5b5061028760048036038101906102829190612901565b610be2565b60405161029491906126d6565b60405180910390f35b3480156102a957600080fd5b506102c460048036038101906102bf9190612998565b610d5a565b6040516102d191906126d6565b60405180910390f35b3480156102e657600080fd5b5061030160048036038101906102fc91906124fd565b611010565b60405161030e91906126d6565b60405180910390f35b34801561032357600080fd5b5061033e600480360381019061033991906124fd565b6113a7565b60405161034b919061255f565b60405180910390f35b34801561036057600080fd5b5061037b60048036038101906103769190612a61565b6113d9565b60405161038891906126d6565b60405180910390f35b34801561039d57600080fd5b506103b860048036038101906103b391906123b7565b611561565b6040516103c5919061255f565b60405180910390f35b3480156103da57600080fd5b506103e3611579565b6040516103f09190612ab0565b60405180910390f35b34801561040557600080fd5b50610420600480360381019061041b91906123b7565b61159f565b60405161042d919061255f565b60405180910390f35b34801561044257600080fd5b5061045d600480360381019061045891906123b7565b6115b7565b60405161046a919061255f565b60405180910390f35b34801561047f57600080fd5b5061049a60048036038101906104959190612a61565b6115cf565b6040516104ad9796959493929190612acb565b60405180910390f35b3480156104c257600080fd5b506104dd60048036038101906104d89190612a61565b6117e5565b6040516104ea919061255f565b60405180910390f35b61050d60048036038101906105089190612b41565b611814565b60405161051a91906126d6565b60405180910390f35b34801561052f57600080fd5b5061054a60048036038101906105459190612a61565b61190d565b604051610557919061255f565b60405180910390f35b34801561056c57600080fd5b5061058760048036038101906105829190612a61565b61193c565b604051610594919061255f565b60405180910390f35b3480156105a957600080fd5b506105c460048036038101906105bf9190612a61565b61196b565b6040516105d1919061255f565b60405180910390f35b3480156105e657600080fd5b5061060160048036038101906105fc9190612b81565b61199a565b60405161060e91906126d6565b60405180910390f35b6005818154811061062757600080fd5b90600052602060002001600091509050805461064290612c57565b80601f016020809104026020016040519081016040528092919081815260200182805461066e90612c57565b80156106bb5780601f10610690576101008083540402835291602001916106bb565b820191906000526020600020905b81548152906001019060200180831161069e57829003601f168201915b505050505081565b60008073ffffffffffffffffffffffffffffffffffffffff168473ffffffffffffffffffffffffffffffffffffffff161415610734576040517f08c379a000000000000000000000000000000000000000000000000000000000815260040161072b90612cfb565b60405180910390fd5b600360008573ffffffffffffffffffffffffffffffffffffffff1673ffffffffffffffffffffffffffffffffffffffff168152602001908152602001600020600084815260200190815260200160002060008381526020019081526020016000205490509392505050565b600080600090505b85859050811015610ab657600d8888838181106107c7576107c6612d1b565b5b90506020020135815481106107df576107de612d1b565b5b9060005260206000200160009054906101000a900473ffffffffffffffffffffffffffffffffffffffff1673ffffffffffffffffffffffffffffffffffffffff163373ffffffffffffffffffffffffffffffffffffffff16148061086e57508973ffffffffffffffffffffffffffffffffffffffff163373ffffffffffffffffffffffffffffffffffffffff16145b6108ad576040517f08c379a00000000000000000000000000000000000000000000000000000000081526004016108a490612d96565b60405180910390fd5b8383828181106108c0576108bf612d1b565b5b90506020020135600360008c73ffffffffffffffffffffffffffffffffffffffff1673ffffffffffffffffffffffffffffffffffffffff16815260200190815260200160002060008a8a8581811061091b5761091a612d1b565b5b905060200201358152602001908152602001600020600088888581811061094557610944612d1b565b5b90506020020135815260200190815260200160002054101561099c576040517f08c379a000000000000000000000000000000000000000000000000000000000815260040161099390612e02565b60405180910390fd5b600073ffffffffffffffffffffffffffffffffffffffff168973ffffffffffffffffffffffffffffffffffffffff161415610a0c576040517f08c379a0000000000000000000000000000000000000000000000000000000008152600401610a0390612e94565b60405180910390fd5b610a648a8a8a8a85818110610a2457610a23612d1b565b5b90506020020135898986818110610a3e57610a3d612d1b565b5b90506020020135888887818110610a5857610a57612d1b565b5b90506020020135611c6a565b610aa3576040517f08c379a0000000000000000000000000000000000000000000000000000000008152600401610a9a90612eda565b60405180910390fd5b8080610aae90612f29565b9150506107a7565b506001905098975050505050505050565b6060600e6000838152602001908152602001600020805480602002602001604051908101604052809291908181526020018280548015610b2657602002820191906000526020600020905b815481526020019060010190808311610b12575b50505050509050919050565b606060058281548110610b4857610b47612d1b565b5b906000526020600020018054610b5d90612c57565b80601f0160208091040260200160405190810160405280929190818152602001828054610b8990612c57565b8015610bd65780601f10610bab57610100808354040283529160200191610bd6565b820191906000526020600020905b815481529060010190602001808311610bb957829003601f168201915b50505050509050919050565b6000600460009054906101000a900473ffffffffffffffffffffffffffffffffffffffff1673ffffffffffffffffffffffffffffffffffffffff163373ffffffffffffffffffffffffffffffffffffffff1614610c74576040517f08c379a0000000000000000000000000000000000000000000000000000000008152600401610c6b90612fbe565b60405180910390fd5b8360058781548110610c8957610c88612d1b565b5b906000526020600020019080519060200190610ca69291906122ca565b5084600d8781548110610cbc57610cbb612d1b565b5b9060005260206000200160006101000a81548173ffffffffffffffffffffffffffffffffffffffff021916908373ffffffffffffffffffffffffffffffffffffffff160217905550826006600088815260200190815260200160002081905550816007600088815260200190815260200160002081905550600060086000888152602001908152602001600020819055506001905095945050505050565b600080600090505b8585905081101561100057600d888883818110610d8257610d81612d1b565b5b9050602002013581548110610d9a57610d99612d1b565b5b9060005260206000200160009054906101000a900473ffffffffffffffffffffffffffffffffffffffff1673ffffffffffffffffffffffffffffffffffffffff163373ffffffffffffffffffffffffffffffffffffffff161480610e2957508873ffffffffffffffffffffffffffffffffffffffff163373ffffffffffffffffffffffffffffffffffffffff16145b610e68576040517f08c379a0000000000000000000000000000000000000000000000000000000008152600401610e5f90612d96565b60405180910390fd5b838382818110610e7b57610e7a612d1b565b5b90506020020135600360008b73ffffffffffffffffffffffffffffffffffffffff1673ffffffffffffffffffffffffffffffffffffffff16815260200190815260200160002060008a8a85818110610ed657610ed5612d1b565b5b9050602002013581526020019081526020016000206000888885818110610f0057610eff612d1b565b5b905060200201358152602001908152602001600020541015610f57576040517f08c379a0000000000000000000000000000000000000000000000000000000008152600401610f4e9061302a565b60405180910390fd5b610fae89898984818110610f6e57610f6d612d1b565b5b90506020020135888885818110610f8857610f87612d1b565b5b90506020020135878786818110610fa257610fa1612d1b565b5b90506020020135611daa565b610fed576040517f08c379a0000000000000000000000000000000000000000000000000000000008152600401610fe490612eda565b60405180910390fd5b8080610ff890612f29565b915050610d62565b5060019050979650505050505050565b6000600d838154811061102657611025612d1b565b5b9060005260206000200160009054906101000a900473ffffffffffffffffffffffffffffffffffffffff1673ffffffffffffffffffffffffffffffffffffffff163373ffffffffffffffffffffffffffffffffffffffff16146110be576040517f08c379a00000000000000000000000000000000000000000000000000000000081526004016110b590612d96565b60405180910390fd5b600073ffffffffffffffffffffffffffffffffffffffff168473ffffffffffffffffffffffffffffffffffffffff16141561112e576040517f08c379a000000000000000000000000000000000000000000000000000000000815260040161112590613096565b60405180910390fd5b6064821015611172576040517f08c379a000000000000000000000000000000000000000000000000000000000815260040161116990613102565b60405180910390fd5b6000600860008581526020019081526020016000205414156111c5576007600084815260200190815260200160002054426111ad9190613151565b60086000858152602001908152602001600020819055505b600060076000858152602001908152602001600020546008600086815260200190815260200160002054426111fa9190613182565b61120491906131b6565b905060006001905060006002905060008060005b600660008a81526020019081526020016000205481101561128e576000811415611245576001925061126d565b6001811415611257576002925061126c565b838561126391906131e7565b92508394508293505b5b828261127991906131e7565b9150808061128690612f29565b915050611218565b50806103e88861129e919061323d565b6112a891906131b6565b905060009150600193506002925060005b600660008a8152602001908152602001600020548110156113965760008114156112e6576001925061130e565b60018114156112f8576002925061130d565b838561130491906131e7565b92508394508293505b5b600115156113418b8b868a61132391906131e7565b6103e88888611332919061323d565b61133c91906131b6565b611e6f565b151514611383576040517f08c379a000000000000000000000000000000000000000000000000000000000815260040161137a90612eda565b60405180910390fd5b808061138e90612f29565b9150506112b9565b506001955050505050509392505050565b600360205282600052604060002060205281600052604060002060205280600052604060002060009250925050505481565b600042600c600085815260200190815260200160002060008481526020019081526020016000206000600181526020019081526020016000205410156115565760008060005b600f60008781526020019081526020016000205481116114ad57600b60008781526020019081526020016000206000828152602001908152602001600020546009600088815260200190815260200160002060008381526020019081526020016000205461148d91906131e7565b8361149891906131e7565b925080806114a590612f29565b91505061141f565b5060005b848111611538576002600b60008881526020019081526020016000206000838152602001908152602001600020546009600089815260200190815260200160002060008481526020019081526020016000205461150e91906131e7565b611518919061323d565b8261152391906131e7565b9150808061153090612f29565b9150506114b1565b5080821061154b5760019250505061155b565b60009250505061155b565b600090505b92915050565b60086020528060005260406000206000915090505481565b601060009054906101000a900473ffffffffffffffffffffffffffffffffffffffff1681565b60076020528060005260406000206000915090505481565b60066020528060005260406000206000915090505481565b6060600080600080600080600589815481106115ee576115ed612d1b565b5b90600052602060002001805461160390612c57565b80601f016020809104026020016040519081016040528092919081815260200182805461162f90612c57565b801561167c5780601f106116515761010080835404028352916020019161167c565b820191906000526020600020905b81548152906001019060200180831161165f57829003601f168201915b50505050509650600c60008a81526020019081526020016000206000898152602001908152602001600020600060018152602001908152602001600020549550600c60008a81526020019081526020016000206000898152602001908152602001600020600060028152602001908152602001600020549450600c60008a81526020019081526020016000206000898152602001908152602001600020600060038152602001908152602001600020549350600c60008a81526020019081526020016000206000898152602001908152602001600020600060048152602001908152602001600020549250600c60008a81526020019081526020016000206000898152602001908152602001600020600060058152602001908152602001600020549150600c60008a8152602001908152602001600020600089815260200190815260200160002060006006815260200190815260200160002054905092959891949750929550565b600060096000848152602001908152602001600020600083815260200190815260200160002054905092915050565b6000600460009054906101000a900473ffffffffffffffffffffffffffffffffffffffff1673ffffffffffffffffffffffffffffffffffffffff163373ffffffffffffffffffffffffffffffffffffffff16146118a6576040517f08c379a000000000000000000000000000000000000000000000000000000000815260040161189d90612fbe565b60405180910390fd5b81600d84815481106118bb576118ba612d1b565b5b9060005260206000200160006101000a81548173ffffffffffffffffffffffffffffffffffffffff021916908373ffffffffffffffffffffffffffffffffffffffff1602179055506001905092915050565b6000600a6000848152602001908152602001600020600083815260200190815260200160002054905092915050565b600060116000848152602001908152602001600020600083815260200190815260200160002054905092915050565b6000600b6000848152602001908152602001600020600083815260200190815260200160002054905092915050565b6000600d86815481106119b0576119af612d1b565b5b9060005260206000200160009054906101000a900473ffffffffffffffffffffffffffffffffffffffff1673ffffffffffffffffffffffffffffffffffffffff163373ffffffffffffffffffffffffffffffffffffffff161480611a3f57508673ffffffffffffffffffffffffffffffffffffffff163373ffffffffffffffffffffffffffffffffffffffff16145b611a7e576040517f08c379a0000000000000000000000000000000000000000000000000000000008152600401611a75906132e3565b60405180910390fd5b60005b85859050811015611c5b57838382818110611a9f57611a9e612d1b565b5b90506020020135600360008a73ffffffffffffffffffffffffffffffffffffffff1673ffffffffffffffffffffffffffffffffffffffff16815260200190815260200160002060008981526020019081526020016000206000888885818110611b0b57611b0a612d1b565b5b905060200201358152602001908152602001600020541015611b62576040517f08c379a0000000000000000000000000000000000000000000000000000000008152600401611b5990613375565b60405180910390fd5b60011515611b8988888885818110611b7d57611b7c612d1b565b5b905060200201356113d9565b151514611bcb576040517f08c379a0000000000000000000000000000000000000000000000000000000008152600401611bc290613407565b60405180910390fd5b611c098888888885818110611be357611be2612d1b565b5b90506020020135878786818110611bfd57611bfc612d1b565b5b90506020020135611faa565b611c48576040517f08c379a0000000000000000000000000000000000000000000000000000000008152600401611c3f90612eda565b60405180910390fd5b8080611c5390612f29565b915050611a81565b50600190509695505050505050565b600081600360008873ffffffffffffffffffffffffffffffffffffffff1673ffffffffffffffffffffffffffffffffffffffff168152602001908152602001600020600086815260200190815260200160002060008581526020019081526020016000206000828254611cdd9190613182565b9250508190555081600360008773ffffffffffffffffffffffffffffffffffffffff1673ffffffffffffffffffffffffffffffffffffffff168152602001908152602001600020600086815260200190815260200160002060008581526020019081526020016000206000828254611d5591906131e7565b925050819055507f9f32b8ffa303549658d2435755556a7c295c2c6ed827f75256899319ffdfa70b338787878787604051611d9596959493929190613427565b60405180910390a16001905095945050505050565b600081600360008773ffffffffffffffffffffffffffffffffffffffff1673ffffffffffffffffffffffffffffffffffffffff168152602001908152602001600020600086815260200190815260200160002060008581526020019081526020016000206000828254611e1d9190613182565b925050819055507fec63035e10dd1c8025fbe8d3c8baf46760e1ff9cdc8461ca7cbaf7fd3394f9053386868686604051611e5b959493929190613488565b60405180910390a160019050949350505050565b600080611e7c858561193c565b1415611e9857611e8e858585856120e5565b5060019050611fa2565b81600360008773ffffffffffffffffffffffffffffffffffffffff1673ffffffffffffffffffffffffffffffffffffffff168152602001908152602001600020600086815260200190815260200160002060008581526020019081526020016000206000828254611f0991906131e7565b92505081905550816009600086815260200190815260200160002060008581526020019081526020016000206000828254611f4491906131e7565b925050819055507f5d57ae351fb21d62ec3f02e7813257f8d955a4868bb8e9f3f8fbb3aa9faa4035338686600f60008981526020019081526020016000205486604051611f95959493929190613488565b60405180910390a1600190505b949350505050565b600081600360008773ffffffffffffffffffffffffffffffffffffffff1673ffffffffffffffffffffffffffffffffffffffff16815260200190815260200160002060008681526020019081526020016000206000858152602001908152602001600020600082825461201d9190613182565b925050819055508160096000868152602001908152602001600020600085815260200190815260200160002060008282546120589190613182565b9250508190555081600b60008681526020019081526020016000206000858152602001908152602001600020600082825461209391906131e7565b925050819055507f83cf0c7a97f83a855520ca4249d607c889ab1d2ceb6f65e993269001debf03a833868686866040516120d1959493929190613488565b60405180910390a160019050949350505050565b600082600f600086815260200190815260200160002054101561211b5782600f6000868152602001908152602001600020819055505b600e6000858152602001908152602001600020839080600181540180825580915050600190039060005260206000200160009091909190915055600760008581526020019081526020016000205483612174919061323d565b600860008681526020019081526020016000205461219291906131e7565b600c600086815260200190815260200160002060008581526020019081526020016000206000600181526020019081526020016000208190555081600360008773ffffffffffffffffffffffffffffffffffffffff1673ffffffffffffffffffffffffffffffffffffffff16815260200190815260200160002060008681526020019081526020016000206000858152602001908152602001600020600082825461223d91906131e7565b9250508190555081600960008681526020019081526020016000206000858152602001908152602001600020600082825461227891906131e7565b925050819055507f5d57ae351fb21d62ec3f02e7813257f8d955a4868bb8e9f3f8fbb3aa9faa403533868686866040516122b6959493929190613488565b60405180910390a160019050949350505050565b8280546122d690612c57565b90600052602060002090601f0160209004810192826122f8576000855561233f565b82601f1061231157805160ff191683800117855561233f565b8280016001018555821561233f579182015b8281111561233e578251825591602001919060010190612323565b5b50905061234c9190612350565b5090565b5b80821115612369576000816000905550600101612351565b5090565b6000604051905090565b600080fd5b600080fd5b6000819050919050565b61239481612381565b811461239f57600080fd5b50565b6000813590506123b18161238b565b92915050565b6000602082840312156123cd576123cc612377565b5b60006123db848285016123a2565b91505092915050565b600081519050919050565b600082825260208201905092915050565b60005b8381101561241e578082015181840152602081019050612403565b8381111561242d576000848401525b50505050565b6000601f19601f8301169050919050565b600061244f826123e4565b61245981856123ef565b9350612469818560208601612400565b61247281612433565b840191505092915050565b600060208201905081810360008301526124978184612444565b905092915050565b600073ffffffffffffffffffffffffffffffffffffffff82169050919050565b60006124ca8261249f565b9050919050565b6124da816124bf565b81146124e557600080fd5b50565b6000813590506124f7816124d1565b92915050565b60008060006060848603121561251657612515612377565b5b6000612524868287016124e8565b9350506020612535868287016123a2565b9250506040612546868287016123a2565b9150509250925092565b61255981612381565b82525050565b60006020820190506125746000830184612550565b92915050565b600080fd5b600080fd5b600080fd5b60008083601f84011261259f5761259e61257a565b5b8235905067ffffffffffffffff8111156125bc576125bb61257f565b5b6020830191508360208202830111156125d8576125d7612584565b5b9250929050565b60008060008060008060008060a0898b0312156125ff576125fe612377565b5b600061260d8b828c016124e8565b985050602061261e8b828c016124e8565b975050604089013567ffffffffffffffff81111561263f5761263e61237c565b5b61264b8b828c01612589565b9650965050606089013567ffffffffffffffff81111561266e5761266d61237c565b5b61267a8b828c01612589565b9450945050608089013567ffffffffffffffff81111561269d5761269c61237c565b5b6126a98b828c01612589565b92509250509295985092959890939650565b60008115159050919050565b6126d0816126bb565b82525050565b60006020820190506126eb60008301846126c7565b92915050565b600081519050919050565b600082825260208201905092915050565b6000819050602082019050919050565b61272681612381565b82525050565b6000612738838361271d565b60208301905092915050565b6000602082019050919050565b600061275c826126f1565b61276681856126fc565b93506127718361270d565b8060005b838110156127a2578151612789888261272c565b975061279483612744565b925050600181019050612775565b5085935050505092915050565b600060208201905081810360008301526127c98184612751565b905092915050565b600080fd5b7f4e487b7100000000000000000000000000000000000000000000000000000000600052604160045260246000fd5b61280e82612433565b810181811067ffffffffffffffff8211171561282d5761282c6127d6565b5b80604052505050565b600061284061236d565b905061284c8282612805565b919050565b600067ffffffffffffffff82111561286c5761286b6127d6565b5b61287582612433565b9050602081019050919050565b82818337600083830152505050565b60006128a461289f84612851565b612836565b9050828152602081018484840111156128c0576128bf6127d1565b5b6128cb848285612882565b509392505050565b600082601f8301126128e8576128e761257a565b5b81356128f8848260208601612891565b91505092915050565b600080600080600060a0868803121561291d5761291c612377565b5b600061292b888289016123a2565b955050602061293c888289016124e8565b945050604086013567ffffffffffffffff81111561295d5761295c61237c565b5b612969888289016128d3565b935050606061297a888289016123a2565b925050608061298b888289016123a2565b9150509295509295909350565b60008060008060008060006080888a0312156129b7576129b6612377565b5b60006129c58a828b016124e8565b975050602088013567ffffffffffffffff8111156129e6576129e561237c565b5b6129f28a828b01612589565b9650965050604088013567ffffffffffffffff811115612a1557612a1461237c565b5b612a218a828b01612589565b9450945050606088013567ffffffffffffffff811115612a4457612a4361237c565b5b612a508a828b01612589565b925092505092959891949750929550565b60008060408385031215612a7857612a77612377565b5b6000612a86858286016123a2565b9250506020612a97858286016123a2565b9150509250929050565b612aaa816124bf565b82525050565b6000602082019050612ac56000830184612aa1565b92915050565b600060e0820190508181036000830152612ae5818a612444565b9050612af46020830189612550565b612b016040830188612550565b612b0e6060830187612550565b612b1b6080830186612550565b612b2860a0830185612550565b612b3560c0830184612550565b98975050505050505050565b60008060408385031215612b5857612b57612377565b5b6000612b66858286016123a2565b9250506020612b77858286016124e8565b9150509250929050565b60008060008060008060808789031215612b9e57612b9d612377565b5b6000612bac89828a016124e8565b9650506020612bbd89828a016123a2565b955050604087013567ffffffffffffffff811115612bde57612bdd61237c565b5b612bea89828a01612589565b9450945050606087013567ffffffffffffffff811115612c0d57612c0c61237c565b5b612c1989828a01612589565b92509250509295509295509295565b7f4e487b7100000000000000000000000000000000000000000000000000000000600052602260045260246000fd5b60006002820490506001821680612c6f57607f821691505b60208210811415612c8357612c82612c28565b5b50919050565b7f62616c616e636520717565727920666f7220746865207a65726f20616464726560008201527f7373000000000000000000000000000000000000000000000000000000000000602082015250565b6000612ce56022836123ef565b9150612cf082612c89565b604082019050919050565b60006020820190508181036000830152612d1481612cd8565b9050919050565b7f4e487b7100000000000000000000000000000000000000000000000000000000600052603260045260246000fd5b7f6f70657261746f7220756e617574686f72697a65640000000000000000000000600082015250565b6000612d806015836123ef565b9150612d8b82612d4a565b602082019050919050565b60006020820190508181036000830152612daf81612d73565b9050919050565b7f6e6f7420656e6f75676820626f6e6420746f207472616e736665720000000000600082015250565b6000612dec601b836123ef565b9150612df782612db6565b602082019050919050565b60006020820190508181036000830152612e1b81612ddf565b9050919050565b7f63616e742774207472616e7366657220746f207a65726f20626f6e642c20757360008201527f6520276275726e426f6e6428292720696e737465616400000000000000000000602082015250565b6000612e7e6036836123ef565b9150612e8982612e22565b604082019050919050565b60006020820190508181036000830152612ead81612e71565b9050919050565b50565b6000612ec46000836123ef565b9150612ecf82612eb4565b600082019050919050565b60006020820190508181036000830152612ef381612eb7565b9050919050565b7f4e487b7100000000000000000000000000000000000000000000000000000000600052601160045260246000fd5b6000612f3482612381565b91507fffffffffffffffffffffffffffffffffffffffffffffffffffffffffffffffff821415612f6757612f66612efa565b5b600182019050919050565b7f6163636573732064656e69656400000000000000000000000000000000000000600082015250565b6000612fa8600d836123ef565b9150612fb382612f72565b602082019050919050565b60006020820190508181036000830152612fd781612f9b565b9050919050565b7f6e6f7420656e6f75676820626f6e6420746f206275726e000000000000000000600082015250565b60006130146017836123ef565b915061301f82612fde565b602082019050919050565b6000602082019050818103600083015261304381613007565b9050919050565b7f697373756520626f6e6420746f20746865207a65726f20616464726573730000600082015250565b6000613080601e836123ef565b915061308b8261304a565b602082019050919050565b600060208201905081810360008301526130af81613073565b9050919050565b7f696e76616c696420616d6f756e74000000000000000000000000000000000000600082015250565b60006130ec600e836123ef565b91506130f7826130b6565b602082019050919050565b6000602082019050818103600083015261311b816130df565b9050919050565b7f4e487b7100000000000000000000000000000000000000000000000000000000600052601260045260246000fd5b600061315c82612381565b915061316783612381565b92508261317757613176613122565b5b828206905092915050565b600061318d82612381565b915061319883612381565b9250828210156131ab576131aa612efa565b5b828203905092915050565b60006131c182612381565b91506131cc83612381565b9250826131dc576131db613122565b5b828204905092915050565b60006131f282612381565b91506131fd83612381565b9250827fffffffffffffffffffffffffffffffffffffffffffffffffffffffffffffffff0382111561323257613231612efa565b5b828201905092915050565b600061324882612381565b915061325383612381565b9250817fffffffffffffffffffffffffffffffffffffffffffffffffffffffffffffffff048311821515161561328c5761328b612efa565b5b828202905092915050565b7f4552433635393a206f70657261746f7220756e617574686f72697a6564000000600082015250565b60006132cd601d836123ef565b91506132d882613297565b602082019050919050565b600060208201905081810360008301526132fc816132c0565b9050919050565b7f4552433635393a206e6f7420656e6f75676820626f6e6420666f72207265646560008201527f6d7074696f6e0000000000000000000000000000000000000000000000000000602082015250565b600061335f6026836123ef565b915061336a82613303565b604082019050919050565b6000602082019050818103600083015261338e81613352565b9050919050565b7f4552433635393a2063616e27742072656465656d20626f6e64206265666f726560008201527f206974277320726564656d7074696f6e20646179000000000000000000000000602082015250565b60006133f16034836123ef565b91506133fc82613395565b604082019050919050565b60006020820190508181036000830152613420816133e4565b9050919050565b600060c08201905061343c6000830189612aa1565b6134496020830188612aa1565b6134566040830187612aa1565b6134636060830186612550565b6134706080830185612550565b61347d60a0830184612550565b979650505050505050565b600060a08201905061349d6000830188612aa1565b6134aa6020830187612aa1565b6134b76040830186612550565b6134c46060830185612550565b6134d16080830184612550565b969550505050505056fea264697066735822122076a128aa87b8a09bf862ead1cf4fd7a9505cf4a274212767e573d41b36d769cd64736f6c634300080a0033",
  "immutableReferences": {},
  "source": "// SPDX-License-Identifier: CC-BY-4.0\npragma solidity >=0.4.22 <0.9.0;\n\nimport \"./ExemptDebtOffering.sol\";\n\ncontract ExemptDebtOfferingBond is ExemptDebtOffering {\n  constructor()\n  {\n  }\n}\n",
  "sourcePath": "G:\\projects\\pingleware-contracts\\contracts\\debt\\ExemptDebtOfferingBond.sol",
  "compiler": {
    "name": "solc",
    "version": "0.8.10+commit.fc410830.Emscripten.clang"
  },
  "schemaVersion": "3.4.3",
  "updatedAt": "2021-12-21T01:05:24.670Z",
  "devdoc": {
    "kind": "dev",
    "methods": {},
    "version": 1
  },
  "userdoc": {
    "kind": "user",
    "methods": {},
    "version": 1
  }
}