{
  "contractName": "ExemptEquityOffering3A11",
  "abi": [
    {
      "inputs": [],
      "stateMutability": "payable",
      "type": "constructor"
    },
    {
      "anonymous": false,
      "inputs": [
        {
          "indexed": false,
          "internalType": "address",
          "name": "sender",
          "type": "address"
        },
        {
          "indexed": false,
          "internalType": "uint256",
          "name": "value",
          "type": "uint256"
        },
        {
          "indexed": false,
          "internalType": "uint256",
          "name": "epoch",
          "type": "uint256"
        }
      ],
      "name": "Bought",
      "type": "event"
    },
    {
      "anonymous": false,
      "inputs": [
        {
          "indexed": true,
          "internalType": "address",
          "name": "from",
          "type": "address"
        },
        {
          "indexed": false,
          "internalType": "string",
          "name": "status",
          "type": "string"
        },
        {
          "indexed": false,
          "internalType": "uint256",
          "name": "value",
          "type": "uint256"
        }
      ],
      "name": "ExemptOffering",
      "type": "event"
    },
    {
      "anonymous": false,
      "inputs": [
        {
          "indexed": false,
          "internalType": "address",
          "name": "addr",
          "type": "address"
        },
        {
          "indexed": false,
          "internalType": "uint256",
          "name": "amount",
          "type": "uint256"
        }
      ],
      "name": "Minted",
      "type": "event"
    },
    {
      "anonymous": false,
      "inputs": [
        {
          "indexed": false,
          "internalType": "address",
          "name": "addr",
          "type": "address"
        }
      ],
      "name": "MinterAdded",
      "type": "event"
    },
    {
      "anonymous": false,
      "inputs": [
        {
          "indexed": false,
          "internalType": "address",
          "name": "sender",
          "type": "address"
        },
        {
          "indexed": false,
          "internalType": "uint256",
          "name": "value",
          "type": "uint256"
        },
        {
          "indexed": false,
          "internalType": "uint256",
          "name": "epoch",
          "type": "uint256"
        }
      ],
      "name": "Sold",
      "type": "event"
    },
    {
      "anonymous": false,
      "inputs": [
        {
          "indexed": false,
          "internalType": "address",
          "name": "addr",
          "type": "address"
        },
        {
          "indexed": false,
          "internalType": "uint256",
          "name": "amount",
          "type": "uint256"
        }
      ],
      "name": "Transfer",
      "type": "event"
    },
    {
      "anonymous": false,
      "inputs": [
        {
          "indexed": false,
          "internalType": "address",
          "name": "owner",
          "type": "address"
        },
        {
          "indexed": false,
          "internalType": "address",
          "name": "addr",
          "type": "address"
        }
      ],
      "name": "TransferAgentAdded",
      "type": "event"
    },
    {
      "anonymous": false,
      "inputs": [
        {
          "indexed": false,
          "internalType": "address",
          "name": "owner",
          "type": "address"
        },
        {
          "indexed": false,
          "internalType": "address",
          "name": "addr",
          "type": "address"
        }
      ],
      "name": "TransferAgentRemoved",
      "type": "event"
    },
    {
      "anonymous": false,
      "inputs": [
        {
          "indexed": false,
          "internalType": "address",
          "name": "from",
          "type": "address"
        },
        {
          "indexed": false,
          "internalType": "address",
          "name": "to",
          "type": "address"
        },
        {
          "indexed": false,
          "internalType": "uint256",
          "name": "value",
          "type": "uint256"
        }
      ],
      "name": "TransferFrom",
      "type": "event"
    },
    {
      "inputs": [],
      "name": "VERSION",
      "outputs": [
        {
          "internalType": "string",
          "name": "",
          "type": "string"
        }
      ],
      "stateMutability": "view",
      "type": "function"
    },
    {
      "inputs": [],
      "name": "WAIT",
      "outputs": [
        {
          "internalType": "uint256",
          "name": "",
          "type": "uint256"
        }
      ],
      "stateMutability": "view",
      "type": "function"
    },
    {
      "inputs": [
        {
          "internalType": "address",
          "name": "addr",
          "type": "address"
        }
      ],
      "name": "addMinter",
      "outputs": [],
      "stateMutability": "nonpayable",
      "type": "function"
    },
    {
      "inputs": [
        {
          "internalType": "address",
          "name": "addr",
          "type": "address"
        },
        {
          "internalType": "uint256",
          "name": "level",
          "type": "uint256"
        }
      ],
      "name": "addShareholder",
      "outputs": [],
      "stateMutability": "payable",
      "type": "function"
    },
    {
      "inputs": [
        {
          "internalType": "address",
          "name": "addr",
          "type": "address"
        },
        {
          "internalType": "bytes32",
          "name": "encrypted",
          "type": "bytes32"
        },
        {
          "internalType": "bytes",
          "name": "signature",
          "type": "bytes"
        }
      ],
      "name": "addTransferAgent",
      "outputs": [],
      "stateMutability": "nonpayable",
      "type": "function"
    },
    {
      "inputs": [
        {
          "internalType": "address",
          "name": "addr",
          "type": "address"
        },
        {
          "internalType": "string",
          "name": "hash",
          "type": "string"
        }
      ],
      "name": "addVerified",
      "outputs": [],
      "stateMutability": "nonpayable",
      "type": "function"
    },
    {
      "inputs": [
        {
          "internalType": "address",
          "name": "_owner",
          "type": "address"
        },
        {
          "internalType": "address",
          "name": "spender",
          "type": "address"
        }
      ],
      "name": "allowance",
      "outputs": [
        {
          "internalType": "uint256",
          "name": "",
          "type": "uint256"
        }
      ],
      "stateMutability": "view",
      "type": "function"
    },
    {
      "inputs": [
        {
          "internalType": "address",
          "name": "original",
          "type": "address"
        },
        {
          "internalType": "address",
          "name": "replacement",
          "type": "address"
        }
      ],
      "name": "cancelAndReissue",
      "outputs": [],
      "stateMutability": "nonpayable",
      "type": "function"
    },
    {
      "inputs": [],
      "name": "decimals",
      "outputs": [
        {
          "internalType": "uint8",
          "name": "",
          "type": "uint8"
        }
      ],
      "stateMutability": "view",
      "type": "function"
    },
    {
      "inputs": [
        {
          "internalType": "address",
          "name": "addr",
          "type": "address"
        }
      ],
      "name": "getCurrentFor",
      "outputs": [
        {
          "internalType": "address",
          "name": "",
          "type": "address"
        }
      ],
      "stateMutability": "payable",
      "type": "function"
    },
    {
      "inputs": [],
      "name": "getOwner",
      "outputs": [
        {
          "internalType": "address",
          "name": "",
          "type": "address"
        }
      ],
      "stateMutability": "payable",
      "type": "function"
    },
    {
      "inputs": [
        {
          "internalType": "uint256",
          "name": "index",
          "type": "uint256"
        }
      ],
      "name": "holderAt",
      "outputs": [
        {
          "internalType": "address",
          "name": "",
          "type": "address"
        }
      ],
      "stateMutability": "payable",
      "type": "function"
    },
    {
      "inputs": [],
      "name": "holderCount",
      "outputs": [
        {
          "internalType": "uint256",
          "name": "",
          "type": "uint256"
        }
      ],
      "stateMutability": "payable",
      "type": "function"
    },
    {
      "inputs": [
        {
          "internalType": "address",
          "name": "addr",
          "type": "address"
        }
      ],
      "name": "isSuperseded",
      "outputs": [
        {
          "internalType": "bool",
          "name": "",
          "type": "bool"
        }
      ],
      "stateMutability": "payable",
      "type": "function"
    },
    {
      "inputs": [
        {
          "internalType": "address",
          "name": "addr",
          "type": "address"
        }
      ],
      "name": "isVerified",
      "outputs": [
        {
          "internalType": "bool",
          "name": "",
          "type": "bool"
        }
      ],
      "stateMutability": "payable",
      "type": "function"
    },
    {
      "inputs": [],
      "name": "marketCap",
      "outputs": [
        {
          "internalType": "uint256",
          "name": "",
          "type": "uint256"
        }
      ],
      "stateMutability": "view",
      "type": "function"
    },
    {
      "inputs": [
        {
          "internalType": "address",
          "name": "_to",
          "type": "address"
        },
        {
          "internalType": "uint256",
          "name": "_amount",
          "type": "uint256"
        },
        {
          "internalType": "uint256",
          "name": "_epoch",
          "type": "uint256"
        },
        {
          "internalType": "uint256",
          "name": "_initial_supply",
          "type": "uint256"
        }
      ],
      "name": "mint",
      "outputs": [
        {
          "internalType": "bool",
          "name": "",
          "type": "bool"
        }
      ],
      "stateMutability": "nonpayable",
      "type": "function"
    },
    {
      "inputs": [],
      "name": "name",
      "outputs": [
        {
          "internalType": "string",
          "name": "",
          "type": "string"
        }
      ],
      "stateMutability": "view",
      "type": "function"
    },
    {
      "inputs": [
        {
          "internalType": "address",
          "name": "addr",
          "type": "address"
        },
        {
          "internalType": "bytes32",
          "name": "encrypted",
          "type": "bytes32"
        },
        {
          "internalType": "bytes",
          "name": "signature",
          "type": "bytes"
        }
      ],
      "name": "removeTransferAgent",
      "outputs": [],
      "stateMutability": "nonpayable",
      "type": "function"
    },
    {
      "inputs": [
        {
          "internalType": "address",
          "name": "addr",
          "type": "address"
        }
      ],
      "name": "removeVerified",
      "outputs": [],
      "stateMutability": "nonpayable",
      "type": "function"
    },
    {
      "inputs": [
        {
          "internalType": "uint256",
          "name": "value",
          "type": "uint256"
        }
      ],
      "name": "setMaxUnaccreditInvestors",
      "outputs": [],
      "stateMutability": "nonpayable",
      "type": "function"
    },
    {
      "inputs": [
        {
          "internalType": "address",
          "name": "_contract",
          "type": "address"
        },
        {
          "internalType": "uint256",
          "name": "value",
          "type": "uint256"
        }
      ],
      "name": "setParValue",
      "outputs": [],
      "stateMutability": "payable",
      "type": "function"
    },
    {
      "inputs": [],
      "name": "sharesOustanding",
      "outputs": [
        {
          "internalType": "uint256",
          "name": "",
          "type": "uint256"
        }
      ],
      "stateMutability": "view",
      "type": "function"
    },
    {
      "inputs": [],
      "name": "start",
      "outputs": [],
      "stateMutability": "nonpayable",
      "type": "function"
    },
    {
      "inputs": [],
      "name": "stop",
      "outputs": [],
      "stateMutability": "nonpayable",
      "type": "function"
    },
    {
      "inputs": [],
      "name": "symbol",
      "outputs": [
        {
          "internalType": "string",
          "name": "",
          "type": "string"
        }
      ],
      "stateMutability": "view",
      "type": "function"
    },
    {
      "inputs": [
        {
          "internalType": "string",
          "name": "name",
          "type": "string"
        },
        {
          "internalType": "uint256",
          "name": "timestamp",
          "type": "uint256"
        },
        {
          "internalType": "bool",
          "name": "_active",
          "type": "bool"
        },
        {
          "internalType": "uint256",
          "name": "_initial_supply",
          "type": "uint256"
        }
      ],
      "name": "toggleExemptOffering",
      "outputs": [],
      "stateMutability": "nonpayable",
      "type": "function"
    },
    {
      "inputs": [
        {
          "internalType": "address",
          "name": "to",
          "type": "address"
        },
        {
          "internalType": "uint256",
          "name": "value",
          "type": "uint256"
        },
        {
          "internalType": "uint256",
          "name": "epoch",
          "type": "uint256"
        }
      ],
      "name": "transfer",
      "outputs": [
        {
          "internalType": "bool",
          "name": "",
          "type": "bool"
        }
      ],
      "stateMutability": "nonpayable",
      "type": "function"
    },
    {
      "inputs": [
        {
          "internalType": "address",
          "name": "from",
          "type": "address"
        },
        {
          "internalType": "address",
          "name": "to",
          "type": "address"
        },
        {
          "internalType": "uint256",
          "name": "value",
          "type": "uint256"
        },
        {
          "internalType": "uint256",
          "name": "epoch",
          "type": "uint256"
        }
      ],
      "name": "transferFrom",
      "outputs": [
        {
          "internalType": "bool",
          "name": "",
          "type": "bool"
        }
      ],
      "stateMutability": "nonpayable",
      "type": "function"
    },
    {
      "inputs": [
        {
          "internalType": "address",
          "name": "addr",
          "type": "address"
        },
        {
          "internalType": "string",
          "name": "hash",
          "type": "string"
        }
      ],
      "name": "updateVerified",
      "outputs": [],
      "stateMutability": "nonpayable",
      "type": "function"
    },
    {
      "inputs": [
        {
          "internalType": "address",
          "name": "addr",
          "type": "address"
        }
      ],
      "name": "balanceOf",
      "outputs": [
        {
          "internalType": "uint256",
          "name": "",
          "type": "uint256"
        }
      ],
      "stateMutability": "payable",
      "type": "function"
    },
    {
      "inputs": [
        {
          "internalType": "uint256",
          "name": "amount",
          "type": "uint256"
        },
        {
          "internalType": "uint256",
          "name": "epoch",
          "type": "uint256"
        }
      ],
      "name": "buy",
      "outputs": [],
      "stateMutability": "payable",
      "type": "function"
    },
    {
      "inputs": [
        {
          "internalType": "address payable",
          "name": "sender",
          "type": "address"
        },
        {
          "internalType": "uint256",
          "name": "amount",
          "type": "uint256"
        },
        {
          "internalType": "uint256",
          "name": "epoch",
          "type": "uint256"
        }
      ],
      "name": "sell",
      "outputs": [],
      "stateMutability": "payable",
      "type": "function"
    }
  ],
  "bytecode": "0x608060405260008054600682905560088290556009829055600a829055600b829055600d8054600160ff1990911681179091556301dfe200600e5562eff100600f55600160a860020a031990911661010033021782554290819055600c55620000789030906401000000006200007e8102620008ee1704565b6200014c565b3360009081526002602052604090205460ff16151560011462000126576040517f08c379a0000000000000000000000000000000000000000000000000000000008152602060048201526024808201527f6163636573732064656e69656420666f7220746865207472616e73666572206160448201527f67656e7400000000000000000000000000000000000000000000000000000000606482015260840160405180910390fd5b60078054600160a060020a031916600160a060020a039390931692909217909155600655565b6139ca806200015c6000396000f3fe6080604052600436106101f25760003560e060020a9004806384f78a9811610111578063b9209e33116100a4578063cc9a91b411610073578063cc9a91b414610562578063d6febde814610582578063dd62ed3e14610595578063fe99049a146105db578063ffa1ad74146105fb57600080fd5b8063b9209e33146104fd578063be9a655514610510578063c8278b641461052f578063cc397ed31461054f57600080fd5b80639a76d745116100e05780639a76d74514610488578063a647e8ec146104a8578063aa4a637b146104c8578063b8fb3a51146104e857600080fd5b806384f78a98146103f7578063893d20e81461041757806395d89b411461041f578063983b2d561461046857600080fd5b8063313ce567116101895780636a272462116101585780636a2724621461039e57806370a08231146103b157806375724990146103c457806379f64720146103d757600080fd5b8063313ce56714610321578063425fd0ae146103485780634487b3921461035e57806355c904d31461037e57600080fd5b8063197bc336116101c5578063197bc336146102b75780631aab9a9f146102e25780632c135b93146102f85780632da7293e1461030e57600080fd5b806306fdde03146101f757806307da68f514610256578063095bcdb6146102745780630b08058c146102a4575b600080fd5b34801561020357600080fd5b506102406040518060400160405280601381526020017f52756c6520332861292831312920546f6b656e0000000000000000000000000081525081565b60405161024d919061321e565b60405180910390f35b34801561026257600080fd5b506102726000805460ff19169055565b005b34801561028057600080fd5b5061029461028f36600461324d565b610644565b604051901515815260200161024d565b6102726102b2366004613282565b6108ee565b6102ca6102c53660046132ae565b61094b565b604051600160a060020a03909116815260200161024d565b6102ea6109ea565b60405190815260200161024d565b34801561030457600080fd5b506102ea60095481565b61029461031c3660046132c7565b610a2e565b34801561032d57600080fd5b50610336600081565b60405160ff909116815260200161024d565b34801561035457600080fd5b506102ea60085481565b34801561036a57600080fd5b506102726103793660046132c7565b610a6e565b34801561038a57600080fd5b50610272610399366004613393565b610b0c565b6102726103ac36600461324d565b610c49565b6102ea6103bf3660046132c7565b610f2f565b6102726103d2366004613282565b610f5a565b3480156103e357600080fd5b506102726103f23660046133e3565b610f9b565b34801561040357600080fd5b5061027261041236600461341c565b611071565b6102ca611297565b34801561042b57600080fd5b506102406040518060400160405280600a81526020017f544f4b454e2e334131310000000000000000000000000000000000000000000081525081565b34801561047457600080fd5b506102726104833660046132c7565b611372565b34801561049457600080fd5b506102726104a336600461341c565b611456565b3480156104b457600080fd5b506102946104c3366004613489565b611655565b3480156104d457600080fd5b506102726104e3366004613393565b6118af565b3480156104f457600080fd5b506102ea601e81565b61029461050b3660046132c7565b611941565b34801561051c57600080fd5b506102726000805460ff19166001179055565b34801561053b57600080fd5b5061027261054a3660046132ae565b61194c565b6102ca61055d3660046132c7565b61198c565b34801561056e57600080fd5b5061027261057d3660046134d2565b6119cc565b610272610590366004613533565b611b72565b3480156105a157600080fd5b506102ea6105b03660046133e3565b600160a060020a03918216600090815260036020908152604080832093909416825291909152205490565b3480156105e757600080fd5b506102946105f6366004613555565b611d53565b34801561060757600080fd5b506102406040518060400160405280600581526020017f312e302e3500000000000000000000000000000000000000000000000000000081525081565b600073__ActiveOffering________________________6322f3e2d46040518163ffffffff1660e060020a028152600401602060405180830381865af4158015610692573d6000803e3d6000fd5b505050506040513d601f19601f820116820180604052508101906106b6919061359b565b6106de5760405160e560020a62461bcd0281526004016106d5906135b8565b60405180910390fd5b6040517eba40ae000000000000000000000000000000000000000000000000000000008152600160a060020a038516600482015273__Transaction___________________________9062ba40ae90602401602060405180830381865af415801561074d573d6000803e3d6000fd5b505050506040513d601f19601f82011682018060405250810190610771919061359b565b6107905760405160e560020a62461bcd0281526004016106d5906135ef565b61079984611fec565b6107a333846120cd565b6000600654846107b3919061363f565b6040517f590c4ef900000000000000000000000000000000000000000000000000000000815290915073__Transaction___________________________9063590c4ef99061080c908890859089908990600401613664565b602060405180830381865af4158015610829573d6000803e3d6000fd5b505050506040513d601f19601f8201168201806040525081019061084d919061368a565b5073__Transaction___________________________63590c4ef93383610876886000196136a3565b876040518563ffffffff1660e060020a0281526004016108999493929190613664565b602060405180830381865af41580156108b6573d6000803e3d6000fd5b505050506040513d601f19601f820116820180604052508101906108da919061368a565b506108e58585612287565b95945050505050565b3360009081526002602052604090205460ff1615156001146109255760405160e560020a62461bcd0281526004016106d5906136c2565b60078054600160a060020a031916600160a060020a039390931692909217909155600655565b3360009081526002602052604081205460ff1615156001146109825760405160e560020a62461bcd0281526004016106d5906136c2565b61098a6122fa565b82106109db5760405160e560020a62461bcd02815260206004820152601660248201527f686f6c6465724174206f7574206f6620626f756e64730000000000000000000060448201526064016106d5565b6109e48261230d565b92915050565b3360009081526002602052604081205460ff161515600114610a215760405160e560020a62461bcd0281526004016106d5906136c2565b610a296122fa565b905090565b3360009081526002602052604081205460ff161515600114610a655760405160e560020a62461bcd0281526004016106d5906136c2565b6109e4826123a3565b3360009081526002602052604090205460ff161515600114610aa55760405160e560020a62461bcd0281526004016106d5906136c2565b600160a060020a0381163115610b005760405160e560020a62461bcd02815260206004820152601b60248201527f6163636f756e742062616c616e6365206973206e6f74207a65726f000000000060448201526064016106d5565b610b09816123d5565b50565b3360009081526002602052604090205460ff161515600114610b435760405160e560020a62461bcd0281526004016106d5906136c2565b600160a060020a038216610bc25760405160e560020a62461bcd02815260206004820152602260248201527f28616464566572696669656429202d2061646472657373206973206d6973736960448201527f6e6700000000000000000000000000000000000000000000000000000000000060648201526084016106d5565b8051610c135760405160e560020a62461bcd02815260206004820152601f60248201527f28616464566572696669656429202d2068617368206973206d697373696e670060448201526064016106d5565b610c1c82612476565b610c3b5760405160e560020a62461bcd0281526004016106d59061371f565b610c4582826124b2565b5050565b73__ActiveOffering________________________6322f3e2d46040518163ffffffff1660e060020a028152600401602060405180830381865af4158015610c95573d6000803e3d6000fd5b505050506040513d601f19601f82011682018060405250810190610cb9919061359b565b610cd85760405160e560020a62461bcd0281526004016106d5906135b8565b610ce183612476565b610d305760405160e560020a62461bcd02815260206004820152601860248201527f696e766573746f72206973206e6f74207665726966696573000000000000000060448201526064016106d5565b6040517eba40ae000000000000000000000000000000000000000000000000000000008152600160a060020a038416600482015273__Transaction___________________________9062ba40ae90602401602060405180830381865af4158015610d9f573d6000803e3d6000fd5b505050506040513d601f19601f82011682018060405250810190610dc3919061359b565b610de25760405160e560020a62461bcd0281526004016106d5906135ef565b60008211610e5b5760405160e560020a62461bcd02815260206004820152602560248201527f596f75206e65656420746f2073656c6c206174206c6561737420736f6d65207460448201527f6f6b656e7300000000000000000000000000000000000000000000000000000060648201526084016106d5565b600160a060020a038316600090815260036020908152604080832030845290915290205482811015610ed25760405160e560020a62461bcd02815260206004820152601960248201527f436865636b2074686520746f6b656e20616c6c6f77616e63650000000000000060448201526064016106d5565b610ede84308585611d53565b5060408051600160a060020a0386168152602081018590529081018390527fbac9694ac0daa55169abd117086fe32c89401d9a3b15dd1d34e55e0aa4e47a9d9060600160405180910390a150505050565b600160a060020a038116600090815260008051602061397583398151915260205260408120546109e4565b3360009081526002602052604090205460ff161515600114610f915760405160e560020a62461bcd0281526004016106d5906136c2565b610c45828261262f565b3360009081526002602052604090205460ff161515600114610fd25760405160e560020a62461bcd0281526004016106d5906136c2565b73__ActiveOffering________________________6322f3e2d46040518163ffffffff1660e060020a028152600401602060405180830381865af415801561101e573d6000803e3d6000fd5b505050506040513d601f19601f82011682018060405250810190611042919061359b565b6110615760405160e560020a62461bcd0281526004016106d5906135b8565b61106b82826127e2565b50505050565b600054829082906101009004600160a060020a031633146110d75760405160e560020a62461bcd02815260206004820152601760248201527f6163636573732064656e69656420666f72206f776e657200000000000000000060448201526064016106d5565b6000546040517f39cdde3200000000000000000000000000000000000000000000000000000000815273__ECVerify______________________________916339cdde329161113b91869186916101009004600160a060020a03169060040161377c565b602060405180830381865af4158015611158573d6000803e3d6000fd5b505050506040513d601f19601f8201168201806040525081019061117c919061359b565b6111cb5760405160e560020a62461bcd02815260206004820152601e60248201527f6163636573732064656e6965642c206f776e6572206e6f742076616c6964000060448201526064016106d5565b600160a060020a038516156112255760405160e560020a62461bcd02815260206004820152601e60248201527f6d697373696e67207472616e73666572206167656e742061646472657373000060448201526064016106d5565b600160a060020a0385166000908152600260205260409020805460ff191690557faf389abc80f1ffdb9d047f10d61eaf63326aa6d693b982d133c6064c1d13d17961126e611297565b60408051600160a060020a03928316815291881660208301520160405180910390a15050505050565b6000601e6001546112a891906137ae565b42116112f95760405160e560020a62461bcd02815260206004820152601060248201527f72617465206c696d6974206572726f720000000000000000000000000000000060448201526064016106d5565b601e60015461130891906137ae565b42116113595760405160e560020a62461bcd02815260206004820152601060248201527f72617465206c696d6974206572726f720000000000000000000000000000000060448201526064016106d5565b50426001556000546101009004600160a060020a031690565b3360009081526002602052604090205460ff1615156001146113a95760405160e560020a62461bcd0281526004016106d5906136c2565b600160a060020a0381166114025760405160e560020a62461bcd02815260206004820152601660248201527f6d697373696e67206d696e74657220616464726573730000000000000000000060448201526064016106d5565b600160a060020a0381166000818152600560209081526040918290206001905590519182527f6ae172837ea30b801fbfcdd4108aa1d5bf8ff775444fd70256b44e6bf3dfc3f691015b60405180910390a150565b600054829082906101009004600160a060020a031633146114bc5760405160e560020a62461bcd02815260206004820152601760248201527f6163636573732064656e69656420666f72206f776e657200000000000000000060448201526064016106d5565b6000546040517f39cdde3200000000000000000000000000000000000000000000000000000000815273__ECVerify______________________________916339cdde329161152091869186916101009004600160a060020a03169060040161377c565b602060405180830381865af415801561153d573d6000803e3d6000fd5b505050506040513d601f19601f82011682018060405250810190611561919061359b565b6115b05760405160e560020a62461bcd02815260206004820152601e60248201527f6163636573732064656e6965642c206f776e6572206e6f742076616c6964000060448201526064016106d5565b600160a060020a0385166116095760405160e560020a62461bcd02815260206004820152601e60248201527f6d697373696e67207472616e73666572206167656e742061646472657373000060448201526064016106d5565b600160a060020a0385166000908152600260205260409020805460ff191660011790557f2e4cac6df140daa75de705aceea9de24b1ff332042e59f804e74bdc9b8559d6b61126e611297565b3360009081526002602052604081205460ff16151560011461168c5760405160e560020a62461bcd0281526004016106d5906136c2565b336000908152600560205260409020546001146116ee5760405160e560020a62461bcd02815260206004820152600c60248201527f6e6f742061206d696e746572000000000000000000000000000000000000000060448201526064016106d5565b73__ActiveOffering________________________6322f3e2d46040518163ffffffff1660e060020a028152600401602060405180830381865af415801561173a573d6000803e3d6000fd5b505050506040513d601f19601f8201168201806040525081019061175e919061359b565b61177d5760405160e560020a62461bcd0281526004016106d5906135b8565b428310156117d05760405160e560020a62461bcd02815260206004820152601360248201527f74696d652073706f6f66696e67206572726f720000000000000000000000000060448201526064016106d5565b6117d985611fec565b6000600654856117e9919061363f565b6040517f590c4ef900000000000000000000000000000000000000000000000000000000815290915073__Transaction___________________________9063590c4ef99061184290899085908a908a90600401613664565b602060405180830381865af415801561185f573d6000803e3d6000fd5b505050506040513d601f19601f82011682018060405250810190611883919061368a565b5060075461189a90600160a060020a031686612b78565b6118a5868685612bb6565b9695505050505050565b3360009081526002602052604090205460ff1615156001146118e65760405160e560020a62461bcd0281526004016106d5906136c2565b80516119375760405160e560020a62461bcd02815260206004820152601f60248201527f28757064617465566572696669656429202d2068617368206973207a65726f0060448201526064016106d5565b610c458282612c58565b60006109e482612476565b3360009081526002602052604090205460ff1615156001146119835760405160e560020a62461bcd0281526004016106d5906136c2565b610b0981612eb1565b3360009081526002602052604081205460ff1615156001146119c35760405160e560020a62461bcd0281526004016106d5906136c2565b6109e482612ec1565b3360009081526002602052604090205460ff161515600114611a035760405160e560020a62461bcd0281526004016106d5906136c2565b60048381556040517f5f76f6ab00000000000000000000000000000000000000000000000000000000815273__ActiveOffering________________________91635f76f6ab91611a5c91869101901515815260200190565b60006040518083038186803b158015611a7457600080fd5b505af4158015611a88573d6000803e3d6000fd5b505050508115611b0c5733600160a060020a03167fb9c39a906441691d138569e18a2c9766e29c5def7618306a8f07d7dc1f34627b85604051602001611ace91906137c6565b60408051601f1981840301815290829052611aea918790613807565b60405180910390a260045415611b0757611b05338283612bb6565b505b61106b565b33600160a060020a03167fb9c39a906441691d138569e18a2c9766e29c5def7618306a8f07d7dc1f34627b85604051602001611b489190613829565b60408051601f1981840301815290829052611b64918790613807565b60405180910390a250505050565b73__ActiveOffering________________________6322f3e2d46040518163ffffffff1660e060020a028152600401602060405180830381865af4158015611bbe573d6000803e3d6000fd5b505050506040513d601f19601f82011682018060405250810190611be2919061359b565b611c015760405160e560020a62461bcd0281526004016106d5906135b8565b611c0a33612476565b611c595760405160e560020a62461bcd02815260206004820152601860248201527f696e766573746f72206973206e6f74207665726966696564000000000000000060448201526064016106d5565b60008211611cac5760405160e560020a62461bcd02815260206004820152601b60248201527f596f75206e65656420746f2073656e6420736f6d65206574686572000000000060448201526064016106d5565b600854821115611d015760405160e560020a62461bcd02815260206004820181905260248201527f4e6f7420656e6f7567682073686172657320696e20746865207265736572766560448201526064016106d5565b611d0c338383610644565b5060408051338152602081018490529081018290527fa9a40dec7a304e5915d11358b968c1e8d365992abf20f82285d1df1b30c8e24c906060015b60405180910390a15050565b600073__ActiveOffering________________________6322f3e2d46040518163ffffffff1660e060020a028152600401602060405180830381865af4158015611da1573d6000803e3d6000fd5b505050506040513d601f19601f82011682018060405250810190611dc5919061359b565b611de45760405160e560020a62461bcd0281526004016106d5906135b8565b6040517eba40ae000000000000000000000000000000000000000000000000000000008152600160a060020a038516600482015273__Transaction___________________________9062ba40ae90602401602060405180830381865af4158015611e53573d6000803e3d6000fd5b505050506040513d601f19601f82011682018060405250810190611e77919061359b565b611e965760405160e560020a62461bcd0281526004016106d5906135ef565b611e9f84611fec565b611ea985846120cd565b600060065484611eb9919061363f565b6040517f590c4ef900000000000000000000000000000000000000000000000000000000815290915073__Transaction___________________________9063590c4ef990611f12908890859089908990600401613664565b602060405180830381865af4158015611f2f573d6000803e3d6000fd5b505050506040513d601f19601f82011682018060405250810190611f53919061368a565b5073__Transaction___________________________63590c4ef98783611f7c886000196136a3565b876040518563ffffffff1660e060020a028152600401611f9f9493929190613664565b602060405180830381865af4158015611fbc573d6000803e3d6000fd5b505050506040513d601f19601f82011682018060405250810190611fe0919061368a565b506118a5868686612ed5565b611ff581612476565b6120445760405160e560020a62461bcd02815260206004820152601860248201527f696e766573746f72206973206e6f74207665726966696564000000000000000060448201526064016106d5565b61204c612f49565b600160a060020a03821660009081526001919091016020526040902054610b0957612075612f49565b60040180546001808201835560009283526020909220018054600160a060020a031916600160a060020a0384161790556120ad612f49565b600160a060020a0383166000908152600191909101602052604090205550565b60006120e382600160a060020a0385163161386a565b905080156120f057505050565b600060016120fc612f49565b600160a060020a03861660009081526001919091016020526040902054612123919061386a565b905060006001612131612f49565b6004015461213f919061386a565b9050600061214b612f49565b600401828154811061215f5761215f613881565b600091825260209091200154600160a060020a031690508061217f612f49565b600401848154811061219357612193613881565b9060005260206000200160006101000a815481600160a060020a030219169083600160a060020a031602179055506121c9612f49565b600160a060020a038716600090815260019190910160205260409020546121ee612f49565b600160a060020a03831660009081526001919091016020526040902055612213612f49565b6004016001612220612f49565b6004015461222e919061386a565b8154811061223e5761223e613881565b600091825260208220018054600160a060020a031916905561225e612f49565b600160a060020a0390971660009081526001979097016020526040909620959095555050505050565b600160a060020a03821660009081526000805160206139758339815191526020526040812082905560408051600160a060020a0385168152602081018490527f69ca02dd4edd7bf0a4abb9ed3b7af3f14778db5d61921c7dc7cd545266326de2910160405180910390a150600192915050565b6000612304612f49565b60040154919050565b6000612317612f49565b60040154821061236c5760405160e560020a62461bcd02815260206004820152601660248201527f686f6c6465724174206f7574206f6620626f756e64730000000000000000000060448201526064016106d5565b612374612f49565b600401828154811061238857612388613881565b600091825260209091200154600160a060020a031692915050565b6000806123ae612f49565b600160a060020a039384166000908152602091909152604090205490921690911415919050565b6123dd612f49565b600160a060020a03821660009081526002919091016020526040902080546124049061389a565b159050610b0957612413612f49565b600160a060020a038216600090815260029190910160205260408120612438916130f3565b60408051600160a060020a03831681523360208201527f8071c01a493142de896a206c19ca180d32e91d6486fcf11ea299f569f5d922b5910161144b565b600080612481612f49565b600160a060020a03841660009081526002919091016020526040902080546124a89061389a565b9050119050919050565b6124bb82612f6d565b6125305760405160e560020a62461bcd02815260206004820152602d60248201527f28616464566572696669656429202d20696e766573746f7220697320616c726560448201527f6164792063616e63656c6c65640000000000000000000000000000000000000060648201526084016106d5565b612538612f49565b600160a060020a038316600090815260029190910160205260409020805461255f9061389a565b1590506125815760405160e560020a62461bcd0281526004016106d59061371f565b8061258a612f49565b600201600084600160a060020a0316600160a060020a0316815260200190815260200160002090805190602001906125c392919061312d565b506125cc612f49565b600301805460018101825560009182526020909120018054600160a060020a031916600160a060020a0384161790556040517f550c196a77afc2d9b241c5742cef5ee82f2db8345acf38fed8ba8e2070b6451f90611d47908490849033906138d8565b612637612f49565b600160a060020a03831660009081526001919091016020526040902054610c4557806001141561275057612669612f49565b60070154612675612f49565b60050154106126ef5760405160e560020a62461bcd02815260206004820152603a60248201527f77696c6c2065786365656420746865206d6178696d756d206e756d626572206f60448201527f66206e6f6e2d6163637265646974656420696e766573746f727300000000000060648201526084016106d5565b6126f7612f49565b60050180546001808201835560009283526020909220018054600160a060020a031916600160a060020a03851617905561272f612f49565b600160a060020a038416600090815260019190910160205260409020555050565b806002141561279957612761612f49565b60040180546001808201835560009283526020909220018054600160a060020a031916600160a060020a03851617905561272f612f49565b8060031415610c45576127aa612f49565b60060180546001808201835560009283526020909220018054600160a060020a031916600160a060020a03851617905561272f612f49565b6000806127ee84612f9e565b6128635760405160e560020a62461bcd02815260206004820152603b60248201527f2863616e63656c616e645265697373756529202d206f726967696e616c20696e60448201527f766573746f72206973206e6f742061207368617265686f6c646572000000000060648201526084016106d5565b61286c83612fcc565b6129075760405160e560020a62461bcd02815260206004820152605960248201527f2863616e63656c616e645265697373756529202d207265706c6163656d656e7460448201527f20696e766573746f7220697320616c72656164792061207368617265686f6c6460648201527f65722c2072657175697265732061206e65772077616c6c657400000000000000608482015260a4016106d5565b61291083612476565b6129ac5760405160e560020a62461bcd028152602060048201526044602482018190527f2863616e63656c616e645265697373756529202d207265706c6163656d656e74908201527f20696e766573746f72206973206e6f74206120766572696669656420696e766560648201527f73746f7200000000000000000000000000000000000000000000000000000000608482015260a4016106d5565b604051806020016040528060008152506129c4612f49565b600201600086600160a060020a0316600160a060020a0316815260200190815260200160002090805190602001906129fd92919061312d565b5082612a07612f49565b600160a060020a038681166000908152602092909252604082208054600160a060020a03191693909116929092179091556001612a42612f49565b600160a060020a03871660009081526001919091016020526040902054612a69919061386a565b905083612a74612f49565b6004018281548110612a8857612a88613881565b9060005260206000200160006101000a815481600160a060020a030219169083600160a060020a03160217905550612abe612f49565b600160a060020a03861660009081526001919091016020526040902054612ae3612f49565b600160a060020a03861660009081526001919091016020526040812091909155612b0b612f49565b600160a060020a0387811660008181526001939093016020908152604093849020949094558251908152908716928101929092523382820152517fb64971100522354f3d25283cb14e2eefcb0dd26a757482ccfe42479d0a6868579181900360600190a150929391925050565b600160a060020a0382166000908152600080516020613975833981519152602052604081208054839290612bad9084906137ae565b90915550505050565b600081831115612c0b5760405160e560020a62461bcd02815260206004820152601460248201527f6578636565647320746f74616c20737570706c7900000000000000000000000060448201526064016106d5565b60408051600160a060020a0386168152602081018590527f30385c845b448a36257a6a1716e6ad2e1bc2cbe333cde1e69fe849ad6511adfe91015b60405180910390a15060019392505050565b612c6182612476565b612cd65760405160e560020a62461bcd02815260206004820152602a60248201527f28757064617465566572696669656429202d206e6f742061207665726966696560448201527f6420696e766573746f720000000000000000000000000000000000000000000060648201526084016106d5565b8051612d275760405160e560020a62461bcd02815260206004820152601f60248201527f28757064617465566572696669656429202d2068617368206973207a65726f0060448201526064016106d5565b6000612d31612f49565b600160a060020a0384166000908152600291909101602052604090208054612d589061389a565b80601f0160208091040260200160405190810160405280929190818152602001828054612d849061389a565b8015612dd15780601f10612da657610100808354040283529160200191612dd1565b820191906000526020600020905b815481529060010190602001808311612db457829003601f168201915b5050505050905081604051602001612de9919061390e565b6040516020818303038152906040528051906020012081604051602001612e10919061390e565b6040516020818303038152906040528051906020012014612eac5781612e34612f49565b600201600085600160a060020a0316600160a060020a031681526020019081526020016000209080519060200190612e6d92919061312d565b507f956cac7563aec785f30b680b47233cb635844cd3f2a1a24c87f96b9b7d4e754483828433604051612ea3949392919061392a565b60405180910390a15b505050565b80612eba612f49565b6007015550565b6000612ecc82612ff9565b156119c3575090565b600160a060020a0383166000908152600080516020613975833981519152602052612f01848484613037565b60408051600160a060020a038087168252851660208201529081018390527fc0d84ce5c7ff9ca21adb0f8436ff3f4951b4bb78c4e2fae2b6837958b3946ffd90606001612c46565b7f84d6a4597c1933575f1026ccae683d8d7059c2fe21797bd5217915ddf82f909c90565b600080612f78612f49565b600160a060020a0393841660009081526020919091526040902054909216909114919050565b6000612fa8612f49565b600160a060020a039092166000908152600192909201602052506040902054151590565b6000612fd6612f49565b600160a060020a0390921660009081526001929092016020525060409020541590565b600080613004612f49565b600160a060020a03808516600090815260209290925260409091205416141561302f57506001919050565b506000919050565b600160a060020a038316600090815260008051602061397583398151915260205260408120805483929061306c9084906137ae565b9091555050600160a060020a03821660009081526000805160206139758339815191526020526040812080548392906130a690849061386a565b909155505060408051600160a060020a038086168252841660208201529081018290527f4a5c454a446a516f4491813074ec78cf8cd5e34c2514911f982db1ef8ac0fef390606001612ea3565b5080546130ff9061389a565b6000825580601f1061310f575050565b601f016020900490600052602060002090810190610b0991906131b1565b8280546131399061389a565b90600052602060002090601f01602090048101928261315b57600085556131a1565b82601f1061317457805160ff19168380011785556131a1565b828001600101855582156131a1579182015b828111156131a1578251825591602001919060010190613186565b506131ad9291506131b1565b5090565b5b808211156131ad57600081556001016131b2565b60005b838110156131e15781810151838201526020016131c9565b8381111561106b5750506000910152565b6000815180845261320a8160208601602086016131c6565b601f01601f19169290920160200192915050565b60208152600061323160208301846131f2565b9392505050565b600160a060020a0381168114610b0957600080fd5b60008060006060848603121561326257600080fd5b833561326d81613238565b95602085013595506040909401359392505050565b6000806040838503121561329557600080fd5b82356132a081613238565b946020939093013593505050565b6000602082840312156132c057600080fd5b5035919050565b6000602082840312156132d957600080fd5b813561323181613238565b60e060020a634e487b7102600052604160045260246000fd5b600067ffffffffffffffff80841115613318576133186132e4565b604051601f8501601f19908116603f01168101908282118183101715613340576133406132e4565b8160405280935085815286868601111561335957600080fd5b858560208301376000602087830101525050509392505050565b600082601f83011261338457600080fd5b613231838335602085016132fd565b600080604083850312156133a657600080fd5b82356133b181613238565b9150602083013567ffffffffffffffff8111156133cd57600080fd5b6133d985828601613373565b9150509250929050565b600080604083850312156133f657600080fd5b823561340181613238565b9150602083013561341181613238565b809150509250929050565b60008060006060848603121561343157600080fd5b833561343c81613238565b925060208401359150604084013567ffffffffffffffff81111561345f57600080fd5b8401601f8101861361347057600080fd5b61347f868235602084016132fd565b9150509250925092565b6000806000806080858703121561349f57600080fd5b84356134aa81613238565b966020860135965060408601359560600135945092505050565b8015158114610b0957600080fd5b600080600080608085870312156134e857600080fd5b843567ffffffffffffffff8111156134ff57600080fd5b61350b87828801613373565b945050602085013592506040850135613523816134c4565b9396929550929360600135925050565b6000806040838503121561354657600080fd5b50508035926020909101359150565b6000806000806080858703121561356b57600080fd5b843561357681613238565b9350602085013561358681613238565b93969395505050506040820135916060013590565b6000602082840312156135ad57600080fd5b8151613231816134c4565b60208082526016908201527f6f66666572696e67206973206e6f742061637469766500000000000000000000604082015260600190565b6020808252601e908201527f686f6c64696e6720706572696f6420686173206e6f7420657870697265640000604082015260600190565b60e060020a634e487b7102600052601160045260246000fd5b60008261365f5760e060020a634e487b7102600052601260045260246000fd5b500490565b600160a060020a0394909416845260208401929092526040830152606082015260800190565b60006020828403121561369c57600080fd5b5051919050565b60008160001904831182151516156136bd576136bd613626565b500290565b60208082526024908201527f6163636573732064656e69656420666f7220746865207472616e73666572206160408201527f67656e7400000000000000000000000000000000000000000000000000000000606082015260800190565b60208082526029908201527f28616464566572696669656429202d20696e766573746f7220616c726561647960408201527f2076657269666965640000000000000000000000000000000000000000000000606082015260800190565b83815260606020820152600061379560608301856131f2565b9050600160a060020a0383166040830152949350505050565b600082198211156137c1576137c1613626565b500190565b600082516137d88184602087016131c6565b7f2068617320737461727465640000000000000000000000000000000000000000920191825250600c01919050565b60408152600061381a60408301856131f2565b90508260208301529392505050565b6000825161383b8184602087016131c6565b7f206861732073746f707065640000000000000000000000000000000000000000920191825250600c01919050565b60008282101561387c5761387c613626565b500390565b60e060020a634e487b7102600052603260045260246000fd5b6002810460018216806138ae57607f821691505b602082108114156138d25760e060020a634e487b7102600052602260045260246000fd5b50919050565b6000600160a060020a038086168352606060208401526138fb60608401866131f2565b9150808416604084015250949350505050565b600082516139208184602087016131c6565b9190910192915050565b6000600160a060020a0380871683526080602084015261394d60808401876131f2565b838103604085015261395f81876131f2565b9250508084166060840152509594505050505056fe9ce25e1144afcae8c0e64aa04f61adef5dcaf2f72b7efdf41d46270ad83d32d7a26469706673582212201844abe3d3973959cbb82b7a4e24d1125ad43febf716b40d895862c15c486cfb64736f6c634300080a0033",
  "immutableReferences": {},
  "source": "// SPDX-License-Identifier: CC-BY-4.0\npragma solidity >=0.4.22 <0.9.0;\n\n/**\n * Intrastate:Section 3(a)(11)\n * ---------------------------\n * See https://www.sec.gov/smallbusiness/exemptofferings/intrastateofferings\n *\n * Section 3(a)(11) of the Securities Act is generally known as the\n * intrastate offering exemption. This exemption seeks to facilitate the financing of\n * local business operations. To qualify for the intrastate offering exemption,\n * a company must:\n *\n *   - be organized in the state where it is offering the securities\n *   - carry out a significant amount of its business in that state and\n *   - make offers and sales only to residents of that state\n *   - resales have a holding period of six months from purchase\n *\n * The intrastate offering exemption does not limit the size of the offering or the number\n * of purchasers. A company must determine the residence of each offeree and purchaser.\n * If any of the securities are offered or sold to even one out-of-state person,\n * the exemption may be lost. Without the exemption, the company would be in violation\n * of the Securities Act if the offering does not qualify for another exemption.\n */\n\nimport \"../Owned.sol\";\nimport \"../Version.sol\";\nimport \"../Frozen.sol\";\nimport \"../Account.sol\";\nimport \"../Shareholder.sol\";\nimport \"../Transaction.sol\";\nimport \"../TransferAgent.sol\";\n\ncontract ExemptEquityOffering3A11 is Version, Frozen, TransferAgent {\n    string public constant name = \"Rule 3(a)(11) Token\";\n    string public constant symbol = \"TOKEN.3A11\";\n    uint8 public constant decimals = 0;\n\n    uint256 public sharesOustanding = 0;\n    uint256 public marketCap        = 0;\n\n    uint256 private parValue = 0;\n    uint private totalValue = 0;\n\n    uint256 private contract_creation; // The contract creation time\n\n    bool private restricted = true;\n\n    uint private year = 52 weeks;\n    uint private sixmonths = 26 weeks;\n\n    event Bought(address sender, uint256 value, uint256 epoch);\n    event Sold(address sender, uint256 value, uint256 epoch);\n\n    constructor()\n        payable\n    {\n        contract_creation = block.timestamp;\n        TransferAgent.setParValue(address(this), parValue);\n    }\n\n\n    modifier isPriceBelowParValue(uint amount) {\n      require(amount > parValue, \"amount is below par value\");\n      _;\n    }\n\n    modifier isRestrictedSecurity() {\n      require(restricted != false, \"security is restricted\");\n      _;\n    }\n\n    function balanceOf(address addr)\n      public\n      payable\n      returns (uint256)\n    {\n      return Account.balanceOf(addr);\n    }\n\n    function buy(uint256 amount, uint256 epoch)\n        public\n        payable\n    {\n        require(ActiveOffering.isActive(), \"offering is not active\");\n        require(Shareholder.isVerifiedAddress(msg.sender), \"investor is not verified\");\n        require(amount > 0, \"You need to send some ether\");\n        require(amount <= sharesOustanding, \"Not enough shares in the reserve\");\n\n        transfer(msg.sender, amount, epoch);\n        emit Bought(msg.sender,amount,epoch);\n    }\n\n    function sell(address payable sender,uint256 amount,uint256 epoch)\n        public\n        payable\n    {\n        require(ActiveOffering.isActive(),\"offering is not active\");\n        require(Shareholder.isVerifiedAddress(sender),\"investor is not verifies\");\n        require(Transaction.isHoldingPeriodOver(sender),\"holding period has not expired\");\n        require(amount > 0, \"You need to sell at least some tokens\");\n        uint256 __allowance = allowance(sender, address(this));\n        require(__allowance >= amount, \"Check the token allowance\");\n        transferFrom(sender, address(this), amount, epoch);\n\n        emit Sold(sender,amount,epoch);\n    }\n}\n",
  "sourcePath": "G:\\projects\\pingleware-contracts\\contracts\\equity\\ExemptEquityOffering3A11.sol",
  "compiler": {
    "name": "solc",
    "version": "0.8.10+commit.fc410830.Emscripten.clang"
  },
  "schemaVersion": "3.4.3",
  "updatedAt": "2021-12-24T16:15:20.094Z",
  "devdoc": {
    "kind": "dev",
    "methods": {
      "addVerified(address,string)": {
        "params": {
          "addr": "The address of the person represented by the supplied hash.",
          "hash": "A cryptographic hash of the address holder's verified information."
        }
      },
      "cancelAndReissue(address,address)": {
        "params": {
          "original": "The address to be superseded. This address MUST NOT be reused.",
          "replacement": "The address  that supersedes the original. This address MUST be verified."
        }
      },
      "getCurrentFor(address)": {
        "params": {
          "addr": "The superseded address."
        },
        "returns": {
          "_0": "the verified address that ultimately holds the share."
        }
      },
      "holderAt(uint256)": {
        "params": {
          "index": "The zero-based index of the holder."
        },
        "returns": {
          "_0": "the address of the token holder with the given index."
        }
      },
      "holderCount()": {
        "returns": {
          "_0": "the number of unique addresses that own tokens."
        }
      },
      "isSuperseded(address)": {
        "params": {
          "addr": "The address to check."
        },
        "returns": {
          "_0": "true if the supplied address was superseded by another address."
        }
      },
      "isVerified(address)": {
        "params": {
          "addr": "The address to test."
        },
        "returns": {
          "_0": "true if the address is known to the contract."
        }
      },
      "mint(address,uint256,uint256,uint256)": {
        "params": {
          "_amount": "The amount of tokens to mint.",
          "_to": "The address that will receive the minted tokens."
        },
        "returns": {
          "_0": "A boolean that indicates if the operation was successful."
        }
      },
      "removeVerified(address)": {
        "params": {
          "addr": "The verified address to be removed."
        }
      },
      "updateVerified(address,string)": {
        "params": {
          "addr": "The verified address of the person represented by the supplied hash.",
          "hash": "A new cryptographic hash of the address holder's updated verified information."
        }
      }
    },
    "version": 1
  },
  "userdoc": {
    "kind": "user",
    "methods": {
      "addShareholder(address,uint256)": {
        "notice": "Shareholder level:    1 = non-accredited shareholder    2 = accredited shareholder    3 = affiliate shareholder "
      },
      "addVerified(address,string)": {
        "notice": "Add a verified address, along with an associated verification hash to the contract.  Upon successful addition of a verified address, the contract must emit  `VerifiedAddressAdded(addr, hash, msg.sender)`.  It MUST throw if the supplied address or hash are zero, or if the address has already been supplied."
      },
      "cancelAndReissue(address,address)": {
        "notice": "Cancel the original address and reissue the Tokens to the replacement address.  Access to this function MUST be strictly controlled.  The `original` address MUST be removed from the set of verified addresses.  Throw if the `original` address supplied is not a shareholder.  Throw if the replacement address is not a verified address.  This function MUST emit the `VerifiedAddressSuperseded` event."
      },
      "getCurrentFor(address)": {
        "notice": "Gets the most recent address, given a superseded one.  Addresses may be superseded multiple times, so this function needs to  follow the chain of addresses until it reaches the final, verified address."
      },
      "holderAt(uint256)": {
        "notice": "By counting the number of token holders using `holderCount`  you can retrieve the complete list of token holders, one at a time.  It MUST throw if `index >= holderCount()`."
      },
      "holderCount()": {
        "notice": "The number of addresses that own tokens."
      },
      "isSuperseded(address)": {
        "notice": "Checks to see if the supplied address was superseded."
      },
      "isVerified(address)": {
        "notice": "Tests that the supplied address is known to the contract."
      },
      "mint(address,uint256,uint256,uint256)": {
        "notice": "As each token is minted it is added to the shareholders array."
      },
      "removeVerified(address)": {
        "notice": "Remove a verified address, and the associated verification hash. If the address is  unkblock.timestampn to the contract then this does nothing. If the address is successfully removed, this  function must emit `VerifiedAddressRemoved(addr, msg.sender)`.  It MUST throw if an attempt is made to remove a verifiedAddress that owns Tokens."
      },
      "transfer(address,uint256,uint256)": {
        "notice": "The `transfer` function MUST NOT allow transfers to addresses that  have not been verified and added to the contract.  If the `to` address is not currently a shareholder then it MUST become one.  If the transfer will reduce `msg.sender`'s balance to 0 then that address  MUST be removed from the list of shareholders."
      },
      "transferFrom(address,address,uint256,uint256)": {
        "notice": "The `transferFrom` function MUST NOT allow transfers to addresses that  have not been verified and added to the contract.  If the `to` address is not currently a shareholder then it MUST become one.  If the transfer will reduce `from`'s balance to 0 then that address  MUST be removed from the list of shareholders."
      },
      "updateVerified(address,string)": {
        "notice": "Update the hash for a verified address known to the contract.  Upon successful update of a verified address the contract must emit  `VerifiedAddressUpdated(addr, oldHash, hash, msg.sender)`.  If the hash is the same as the value already stored then  no `VerifiedAddressUpdated` event is to be emitted.  It MUST throw if the hash is zero, or if the address is unverified."
      }
    },
    "version": 1
  }
}