{
  "contractName": "ExemptDebtOffering",
  "abi": [
    {
      "inputs": [],
      "stateMutability": "nonpayable",
      "type": "constructor"
    },
    {
      "anonymous": false,
      "inputs": [
        {
          "indexed": false,
          "internalType": "address",
          "name": "sender",
          "type": "address"
        },
        {
          "indexed": false,
          "internalType": "address",
          "name": "_from",
          "type": "address"
        },
        {
          "indexed": false,
          "internalType": "uint256",
          "name": "class",
          "type": "uint256"
        },
        {
          "indexed": false,
          "internalType": "uint256",
          "name": "nonce",
          "type": "uint256"
        },
        {
          "indexed": false,
          "internalType": "uint256",
          "name": "_amount",
          "type": "uint256"
        }
      ],
      "name": "eventBurnBond",
      "type": "event"
    },
    {
      "anonymous": false,
      "inputs": [
        {
          "indexed": false,
          "internalType": "address",
          "name": "sender",
          "type": "address"
        },
        {
          "indexed": false,
          "internalType": "address",
          "name": "_to",
          "type": "address"
        },
        {
          "indexed": false,
          "internalType": "uint256",
          "name": "class",
          "type": "uint256"
        },
        {
          "indexed": false,
          "internalType": "uint256",
          "name": "nonce",
          "type": "uint256"
        },
        {
          "indexed": false,
          "internalType": "uint256",
          "name": "_amount",
          "type": "uint256"
        }
      ],
      "name": "eventIssueBond",
      "type": "event"
    },
    {
      "anonymous": false,
      "inputs": [
        {
          "indexed": false,
          "internalType": "address",
          "name": "sender",
          "type": "address"
        },
        {
          "indexed": false,
          "internalType": "address",
          "name": "_from",
          "type": "address"
        },
        {
          "indexed": false,
          "internalType": "uint256",
          "name": "class",
          "type": "uint256"
        },
        {
          "indexed": false,
          "internalType": "uint256",
          "name": "nonce",
          "type": "uint256"
        },
        {
          "indexed": false,
          "internalType": "uint256",
          "name": "_amount",
          "type": "uint256"
        }
      ],
      "name": "eventRedeemBond",
      "type": "event"
    },
    {
      "anonymous": false,
      "inputs": [
        {
          "indexed": false,
          "internalType": "address",
          "name": "sender",
          "type": "address"
        },
        {
          "indexed": false,
          "internalType": "address",
          "name": "_from",
          "type": "address"
        },
        {
          "indexed": false,
          "internalType": "address",
          "name": "_to",
          "type": "address"
        },
        {
          "indexed": false,
          "internalType": "uint256",
          "name": "class",
          "type": "uint256"
        },
        {
          "indexed": false,
          "internalType": "uint256",
          "name": "nonce",
          "type": "uint256"
        },
        {
          "indexed": false,
          "internalType": "uint256",
          "name": "_amount",
          "type": "uint256"
        }
      ],
      "name": "eventTransferBond",
      "type": "event"
    },
    {
      "inputs": [],
      "name": "VERSION",
      "outputs": [
        {
          "internalType": "string",
          "name": "",
          "type": "string"
        }
      ],
      "stateMutability": "view",
      "type": "function"
    },
    {
      "inputs": [
        {
          "internalType": "uint256",
          "name": "",
          "type": "uint256"
        }
      ],
      "name": "_Fibonacci_epoch",
      "outputs": [
        {
          "internalType": "uint256",
          "name": "",
          "type": "uint256"
        }
      ],
      "stateMutability": "view",
      "type": "function"
    },
    {
      "inputs": [
        {
          "internalType": "uint256",
          "name": "",
          "type": "uint256"
        }
      ],
      "name": "_Fibonacci_number",
      "outputs": [
        {
          "internalType": "uint256",
          "name": "",
          "type": "uint256"
        }
      ],
      "stateMutability": "view",
      "type": "function"
    },
    {
      "inputs": [
        {
          "internalType": "uint256",
          "name": "",
          "type": "uint256"
        }
      ],
      "name": "_Symbol",
      "outputs": [
        {
          "internalType": "string",
          "name": "",
          "type": "string"
        }
      ],
      "stateMutability": "view",
      "type": "function"
    },
    {
      "inputs": [
        {
          "internalType": "uint256",
          "name": "",
          "type": "uint256"
        }
      ],
      "name": "_genesis_nonce_time",
      "outputs": [
        {
          "internalType": "uint256",
          "name": "",
          "type": "uint256"
        }
      ],
      "stateMutability": "view",
      "type": "function"
    },
    {
      "inputs": [
        {
          "internalType": "address",
          "name": "",
          "type": "address"
        },
        {
          "internalType": "uint256",
          "name": "",
          "type": "uint256"
        },
        {
          "internalType": "uint256",
          "name": "",
          "type": "uint256"
        }
      ],
      "name": "balances",
      "outputs": [
        {
          "internalType": "uint256",
          "name": "",
          "type": "uint256"
        }
      ],
      "stateMutability": "view",
      "type": "function"
    },
    {
      "inputs": [],
      "name": "dev_address",
      "outputs": [
        {
          "internalType": "address",
          "name": "",
          "type": "address"
        }
      ],
      "stateMutability": "view",
      "type": "function"
    },
    {
      "inputs": [
        {
          "internalType": "uint256",
          "name": "class",
          "type": "uint256"
        },
        {
          "internalType": "address",
          "name": "bank_contract",
          "type": "address"
        }
      ],
      "name": "setBond",
      "outputs": [
        {
          "internalType": "bool",
          "name": "",
          "type": "bool"
        }
      ],
      "stateMutability": "payable",
      "type": "function"
    },
    {
      "inputs": [
        {
          "internalType": "uint256",
          "name": "class",
          "type": "uint256"
        }
      ],
      "name": "getNonceCreated",
      "outputs": [
        {
          "internalType": "uint256[]",
          "name": "",
          "type": "uint256[]"
        }
      ],
      "stateMutability": "view",
      "type": "function"
    },
    {
      "inputs": [
        {
          "internalType": "uint256",
          "name": "class",
          "type": "uint256"
        },
        {
          "internalType": "uint256",
          "name": "nonce",
          "type": "uint256"
        }
      ],
      "name": "totalSupply",
      "outputs": [
        {
          "internalType": "uint256",
          "name": "",
          "type": "uint256"
        }
      ],
      "stateMutability": "view",
      "type": "function"
    },
    {
      "inputs": [
        {
          "internalType": "uint256",
          "name": "class",
          "type": "uint256"
        },
        {
          "internalType": "address",
          "name": "bank_contract",
          "type": "address"
        },
        {
          "internalType": "string",
          "name": "bond_symbol",
          "type": "string"
        },
        {
          "internalType": "uint256",
          "name": "Fibonacci_number",
          "type": "uint256"
        },
        {
          "internalType": "uint256",
          "name": "Fibonacci_epoch",
          "type": "uint256"
        }
      ],
      "name": "createBondClass",
      "outputs": [
        {
          "internalType": "bool",
          "name": "",
          "type": "bool"
        }
      ],
      "stateMutability": "nonpayable",
      "type": "function"
    },
    {
      "inputs": [
        {
          "internalType": "uint256",
          "name": "class",
          "type": "uint256"
        },
        {
          "internalType": "uint256",
          "name": "nonce",
          "type": "uint256"
        }
      ],
      "name": "activeSupply",
      "outputs": [
        {
          "internalType": "uint256",
          "name": "",
          "type": "uint256"
        }
      ],
      "stateMutability": "view",
      "type": "function"
    },
    {
      "inputs": [
        {
          "internalType": "uint256",
          "name": "class",
          "type": "uint256"
        },
        {
          "internalType": "uint256",
          "name": "nonce",
          "type": "uint256"
        }
      ],
      "name": "burnedSupply",
      "outputs": [
        {
          "internalType": "uint256",
          "name": "",
          "type": "uint256"
        }
      ],
      "stateMutability": "view",
      "type": "function"
    },
    {
      "inputs": [
        {
          "internalType": "uint256",
          "name": "class",
          "type": "uint256"
        },
        {
          "internalType": "uint256",
          "name": "nonce",
          "type": "uint256"
        }
      ],
      "name": "redeemedSupply",
      "outputs": [
        {
          "internalType": "uint256",
          "name": "",
          "type": "uint256"
        }
      ],
      "stateMutability": "view",
      "type": "function"
    },
    {
      "inputs": [
        {
          "internalType": "address",
          "name": "account",
          "type": "address"
        },
        {
          "internalType": "uint256",
          "name": "class",
          "type": "uint256"
        },
        {
          "internalType": "uint256",
          "name": "nonce",
          "type": "uint256"
        }
      ],
      "name": "balanceOf",
      "outputs": [
        {
          "internalType": "uint256",
          "name": "",
          "type": "uint256"
        }
      ],
      "stateMutability": "view",
      "type": "function"
    },
    {
      "inputs": [
        {
          "internalType": "uint256",
          "name": "class",
          "type": "uint256"
        }
      ],
      "name": "getBondSymbol",
      "outputs": [
        {
          "internalType": "string",
          "name": "",
          "type": "string"
        }
      ],
      "stateMutability": "view",
      "type": "function"
    },
    {
      "inputs": [
        {
          "internalType": "uint256",
          "name": "class",
          "type": "uint256"
        },
        {
          "internalType": "uint256",
          "name": "nonce",
          "type": "uint256"
        }
      ],
      "name": "getBondInfo",
      "outputs": [
        {
          "internalType": "string",
          "name": "BondSymbol",
          "type": "string"
        },
        {
          "internalType": "uint256",
          "name": "timestamp",
          "type": "uint256"
        },
        {
          "internalType": "uint256",
          "name": "info2",
          "type": "uint256"
        },
        {
          "internalType": "uint256",
          "name": "info3",
          "type": "uint256"
        },
        {
          "internalType": "uint256",
          "name": "info4",
          "type": "uint256"
        },
        {
          "internalType": "uint256",
          "name": "info5",
          "type": "uint256"
        },
        {
          "internalType": "uint256",
          "name": "info6",
          "type": "uint256"
        }
      ],
      "stateMutability": "view",
      "type": "function"
    },
    {
      "inputs": [
        {
          "internalType": "uint256",
          "name": "class",
          "type": "uint256"
        },
        {
          "internalType": "uint256",
          "name": "nonce",
          "type": "uint256"
        }
      ],
      "name": "bondIsRedeemable",
      "outputs": [
        {
          "internalType": "bool",
          "name": "",
          "type": "bool"
        }
      ],
      "stateMutability": "view",
      "type": "function"
    },
    {
      "inputs": [
        {
          "internalType": "address",
          "name": "_to",
          "type": "address"
        },
        {
          "internalType": "uint256",
          "name": "class",
          "type": "uint256"
        },
        {
          "internalType": "uint256",
          "name": "_amount",
          "type": "uint256"
        }
      ],
      "name": "issueBond",
      "outputs": [
        {
          "internalType": "bool",
          "name": "",
          "type": "bool"
        }
      ],
      "stateMutability": "nonpayable",
      "type": "function"
    },
    {
      "inputs": [
        {
          "internalType": "address",
          "name": "_from",
          "type": "address"
        },
        {
          "internalType": "uint256",
          "name": "class",
          "type": "uint256"
        },
        {
          "internalType": "uint256[]",
          "name": "nonce",
          "type": "uint256[]"
        },
        {
          "internalType": "uint256[]",
          "name": "_amount",
          "type": "uint256[]"
        }
      ],
      "name": "redeemBond",
      "outputs": [
        {
          "internalType": "bool",
          "name": "",
          "type": "bool"
        }
      ],
      "stateMutability": "nonpayable",
      "type": "function"
    },
    {
      "inputs": [
        {
          "internalType": "address",
          "name": "_from",
          "type": "address"
        },
        {
          "internalType": "address",
          "name": "_to",
          "type": "address"
        },
        {
          "internalType": "uint256[]",
          "name": "class",
          "type": "uint256[]"
        },
        {
          "internalType": "uint256[]",
          "name": "nonce",
          "type": "uint256[]"
        },
        {
          "internalType": "uint256[]",
          "name": "_amount",
          "type": "uint256[]"
        }
      ],
      "name": "transferBond",
      "outputs": [
        {
          "internalType": "bool",
          "name": "",
          "type": "bool"
        }
      ],
      "stateMutability": "nonpayable",
      "type": "function"
    },
    {
      "inputs": [
        {
          "internalType": "address",
          "name": "_from",
          "type": "address"
        },
        {
          "internalType": "uint256[]",
          "name": "class",
          "type": "uint256[]"
        },
        {
          "internalType": "uint256[]",
          "name": "nonce",
          "type": "uint256[]"
        },
        {
          "internalType": "uint256[]",
          "name": "_amount",
          "type": "uint256[]"
        }
      ],
      "name": "burnBond",
      "outputs": [
        {
          "internalType": "bool",
          "name": "",
          "type": "bool"
        }
      ],
      "stateMutability": "nonpayable",
      "type": "function"
    }
  ],
  "bytecode": "0x608060405260108054600160a060020a031916331790553480156200002357600080fd5b5060048054600160a060020a0319163317905560408051808201909152600d81527f534153482d55534420426f6e6400000000000000000000000000000000000000602082015260058054600090620000805762000080620001c0565b9060005260206000200190805190602001906200009f9291906200011a565b50600080805260087f54cdd369e4e8a8515e52ca72ec816c2101831ad1f18bf44102ed171459c9b4f881905560017f6d5257204ebe7d88fd91ae87941cb2dd9d8062b64ae5a2bd2d28ec40b9fbf6df556020527f5eff886ea0ce6ca488a3d6e336d6c0f75f46d19b42c06ce5ee98e42c96d256c75562000245565b8280546200012890620001ef565b90600052602060002090601f0160209004810192826200014c576000855562000197565b82601f106200016757805160ff191683800117855562000197565b8280016001018555821562000197579182015b82811115620001975782518255916020019190600101906200017a565b50620001a5929150620001a9565b5090565b5b80821115620001a55760008155600101620001aa565b7f4e487b7100000000000000000000000000000000000000000000000000000000600052603260045260246000fd5b6002810460018216806200020457607f821691505b602082108114156200023f577f4e487b7100000000000000000000000000000000000000000000000000000000600052602260045260246000fd5b50919050565b61222980620002556000396000f3fe608060405260043610610152576000357c0100000000000000000000000000000000000000000000000000000000900480637abb8efb116100c8578063b2ee391e1161008c578063b2ee391e14610420578063bc3c19f714610433578063c2458d6b1461046b578063ccea7b86146104a3578063de26ffad146104db578063ffa1ad74146104fb57600080fd5b80637abb8efb146103235780637fc81fb51461035b5780639b562239146103885780639e045638146103b5578063b15edbe5146103e857600080fd5b806352f7091c1161011a57806352f7091c146102385780635825d8fd14610258578063675981b7146102785780636ca8a58f1461029857806371d68ce8146102d657806376094580146102f657600080fd5b80631d0f114b146101575780632d760d571461018d5780632ddea62b146101bb5780632e513c06146101eb5780634be80cb914610218575b600080fd5b34801561016357600080fd5b50610177610172366004611b9b565b610544565b6040516101849190611c01565b60405180910390f35b34801561019957600080fd5b506101ad6101a8366004611c37565b6105f0565b604051908152602001610184565b3480156101c757600080fd5b506101db6101d6366004611cb5565b6106aa565b6040519015158152602001610184565b3480156101f757600080fd5b5061020b610206366004611b9b565b61092b565b6040516101849190611d70565b34801561022457600080fd5b50610177610233366004611b9b565b61098d565b34801561024457600080fd5b506101db610253366004611dcd565b610a32565b34801561026457600080fd5b506101db610273366004611eaa565b610b40565b34801561028457600080fd5b506101db610293366004611c37565b610d40565b3480156102a457600080fd5b506101ad6102b3366004611c37565b600360209081526000938452604080852082529284528284209052825290205481565b3480156102e257600080fd5b506101db6102f1366004611f55565b610fed565b34801561030257600080fd5b506101ad610311366004611b9b565b60086020526000908152604090205481565b34801561032f57600080fd5b5060105461034390600160a060020a031681565b604051600160a060020a039091168152602001610184565b34801561036757600080fd5b506101ad610376366004611b9b565b60076020526000908152604090205481565b34801561039457600080fd5b506101ad6103a3366004611b9b565b60066020526000908152604090205481565b3480156103c157600080fd5b506103d56103d0366004611f55565b61111c565b6040516101849796959493929190611f77565b3480156103f457600080fd5b506101ad610403366004611f55565b600091825260096020908152604080842092845291905290205490565b6101db61042e366004611fbb565b611331565b34801561043f57600080fd5b506101ad61044e366004611f55565b6000918252600a6020908152604080842092845291905290205490565b34801561047757600080fd5b506101ad610486366004611f55565b600091825260116020908152604080842092845291905290205490565b3480156104af57600080fd5b506101ad6104be366004611f55565b6000918252600b6020908152604080842092845291905290205490565b3480156104e757600080fd5b506101db6104f6366004611fe7565b6113e4565b34801561050757600080fd5b506101776040518060400160405280600581526020017f312e302e3500000000000000000000000000000000000000000000000000000081525081565b6005818154811061055457600080fd5b90600052602060002001600091509050805461056f90612071565b80601f016020809104026020016040519081016040528092919081815260200182805461059b90612071565b80156105e85780601f106105bd576101008083540402835291602001916105e8565b820191906000526020600020905b8154815290600101906020018083116105cb57829003601f168201915b505050505081565b6000600160a060020a0384166106765760405160e560020a62461bcd02815260206004820152602260248201527f62616c616e636520717565727920666f7220746865207a65726f20616464726560448201527f737300000000000000000000000000000000000000000000000000000000000060648201526084015b60405180910390fd5b50600160a060020a038316600090815260036020908152604080832085845282528083208484529091529020549392505050565b6000805b8481101561091b57600d8888838181106106ca576106ca6120af565b90506020020135815481106106e1576106e16120af565b600091825260209091200154600160a060020a031633148061070b575033600160a060020a038b16145b61072a5760405160e560020a62461bcd02815260040161066d906120c8565b83838281811061073c5761073c6120af565b90506020020135600360008c600160a060020a0316600160a060020a0316815260200190815260200160002060008a8a8581811061077c5761077c6120af565b90506020020135815260200190815260200160002060008888858181106107a5576107a56120af565b90506020020135815260200190815260200160002054101561080c5760405160e560020a62461bcd02815260206004820152601b60248201527f6e6f7420656e6f75676820626f6e6420746f207472616e736665720000000000604482015260640161066d565b600160a060020a03891661088b5760405160e560020a62461bcd02815260206004820152603660248201527f63616e742774207472616e7366657220746f207a65726f20626f6e642c20757360448201527f6520276275726e426f6e6428292720696e737465616400000000000000000000606482015260840161066d565b6108e08a8a8a8a858181106108a2576108a26120af565b905060200201358989868181106108bb576108bb6120af565b905060200201358888878181106108d4576108d46120af565b9050602002013561167c565b6109095760405160e560020a62461bcd028152602060048201526000602482015260440161066d565b8061091381612118565b9150506106ae565b5060019998505050505050505050565b6000818152600e602090815260409182902080548351818402810184019094528084526060939283018282801561098157602002820191906000526020600020905b81548152602001906001019080831161096d575b50505050509050919050565b6060600582815481106109a2576109a26120af565b9060005260206000200180546109b790612071565b80601f01602080910402602001604051908101604052809291908181526020018280546109e390612071565b80156109815780601f10610a0557610100808354040283529160200191610981565b820191906000526020600020905b815481529060010190602001808311610a135750939695505050505050565b600454600090600160a060020a03163314610a925760405160e560020a62461bcd02815260206004820152600d60248201527f6163636573732064656e69656400000000000000000000000000000000000000604482015260640161066d565b8360058781548110610aa657610aa66120af565b906000526020600020019080519060200190610ac3929190611b02565b5084600d8781548110610ad857610ad86120af565b6000918252602080832091909101805473ffffffffffffffffffffffffffffffffffffffff1916600160a060020a0394909416939093179092559687526006815260408088209490945560078152838720929092555060089052832092909255506001919050565b6000805b84811015610d3157600d888883818110610b6057610b606120af565b9050602002013581548110610b7757610b776120af565b600091825260209091200154600160a060020a0316331480610ba1575033600160a060020a038a16145b610bc05760405160e560020a62461bcd02815260040161066d906120c8565b838382818110610bd257610bd26120af565b90506020020135600360008b600160a060020a0316600160a060020a0316815260200190815260200160002060008a8a85818110610c1257610c126120af565b9050602002013581526020019081526020016000206000888885818110610c3b57610c3b6120af565b905060200201358152602001908152602001600020541015610ca25760405160e560020a62461bcd02815260206004820152601760248201527f6e6f7420656e6f75676820626f6e6420746f206275726e000000000000000000604482015260640161066d565b610cf689898984818110610cb857610cb86120af565b90506020020135888885818110610cd157610cd16120af565b90506020020135878786818110610cea57610cea6120af565b90506020020135611768565b610d1f5760405160e560020a62461bcd028152602060048201526000602482015260440161066d565b80610d2981612118565b915050610b44565b50600198975050505050505050565b6000600d8381548110610d5557610d556120af565b600091825260209091200154600160a060020a03163314610d8b5760405160e560020a62461bcd02815260040161066d906120c8565b600160a060020a038416610de45760405160e560020a62461bcd02815260206004820152601e60248201527f697373756520626f6e6420746f20746865207a65726f20616464726573730000604482015260640161066d565b6064821015610e385760405160e560020a62461bcd02815260206004820152600e60248201527f696e76616c696420616d6f756e74000000000000000000000000000000000000604482015260640161066d565b600083815260086020526040902054610e7457600083815260076020526040902054610e64904261214c565b6000848152600860205260409020555b6000838152600760209081526040808320546008909252822054610e989042612160565b610ea29190612177565b905060016002600080805b600089815260066020526040902054811015610f125780610ed15760019250610ef4565b8060011415610ee35760029250610ef4565b610eed848661218b565b9394508392505b610efe838361218b565b915080610f0a81612118565b915050610ead565b5080610f20886103e86121a3565b610f2a9190612177565b905060009150600193506002925060005b60008981526006602052604090205481101561091b5780610f5f5760019250610f82565b8060011415610f715760029250610f82565b610f7b848661218b565b9394508392505b610fad8a8a610f91868a61218b565b6103e8610f9e88886121a3565b610fa89190612177565b6117f6565b1515600114610fdb5760405160e560020a62461bcd028152602060048201526000602482015260440161066d565b80610fe581612118565b915050610f3b565b6000828152600c602090815260408083208484528252808320600184529091528120544211156111125760008060005b6000868152600f60205260409020548111611088576000868152600b60209081526040808320848452825280832054898452600983528184208585529092529091205461106a919061218b565b611074908461218b565b92508061108081612118565b91505061101d565b5060005b8481116110f4576000868152600b6020908152604080832084845282528083205489845260098352818420858552909252909120546110cb919061218b565b6110d69060026121a3565b6110e0908361218b565b9150806110ec81612118565b91505061108c565b5080821061110757600192505050611116565b600092505050611116565b5060005b92915050565b60606000806000806000806005898154811061113a5761113a6120af565b90600052602060002001805461114f90612071565b80601f016020809104026020016040519081016040528092919081815260200182805461117b90612071565b80156111c85780601f1061119d576101008083540402835291602001916111c8565b820191906000526020600020905b8154815290600101906020018083116111ab57829003601f168201915b50505050509650600c60008a81526020019081526020016000206000898152602001908152602001600020600060018152602001908152602001600020549550600c60008a81526020019081526020016000206000898152602001908152602001600020600060028152602001908152602001600020549450600c60008a81526020019081526020016000206000898152602001908152602001600020600060038152602001908152602001600020549350600c60008a81526020019081526020016000206000898152602001908152602001600020600060048152602001908152602001600020549250600c60008a81526020019081526020016000206000898152602001908152602001600020600060058152602001908152602001600020549150600c60008a8152602001908152602001600020600089815260200190815260200160002060006006815260200190815260200160002054905092959891949750929550565b600454600090600160a060020a031633146113915760405160e560020a62461bcd02815260206004820152600d60248201527f6163636573732064656e69656400000000000000000000000000000000000000604482015260640161066d565b81600d84815481106113a5576113a56120af565b6000918252602090912001805473ffffffffffffffffffffffffffffffffffffffff1916600160a060020a039290921691909117905550600192915050565b6000600d86815481106113f9576113f96120af565b600091825260209091200154600160a060020a0316331480611423575033600160a060020a038816145b6114725760405160e560020a62461bcd02815260206004820152601d60248201527f4552433635393a206f70657261746f7220756e617574686f72697a6564000000604482015260640161066d565b60005b8481101561166e5783838281811061148f5761148f6120af565b600160a060020a038b1660009081526003602090815260408083208d84528252822092029390930135929091508888858181106114ce576114ce6120af565b90506020020135815260200190815260200160002054101561155b5760405160e560020a62461bcd02815260206004820152602660248201527f4552433635393a206e6f7420656e6f75676820626f6e6420666f72207265646560448201527f6d7074696f6e0000000000000000000000000000000000000000000000000000606482015260840161066d565b61157d87878784818110611571576115716120af565b90506020020135610fed565b15156001146115f75760405160e560020a62461bcd02815260206004820152603460248201527f4552433635393a2063616e27742072656465656d20626f6e64206265666f726560448201527f206974277320726564656d7074696f6e20646179000000000000000000000000606482015260840161066d565b611633888888888581811061160e5761160e6120af565b90506020020135878786818110611627576116276120af565b905060200201356118ef565b61165c5760405160e560020a62461bcd028152602060048201526000602482015260440161066d565b8061166681612118565b915050611475565b506001979650505050505050565b600160a060020a038516600090815260036020908152604080832086845282528083208584529091528120805483919083906116b9908490612160565b9091555050600160a060020a03851660009081526003602090815260408083208784528252808320868452909152812080548492906116f990849061218b565b909155505060408051338152600160a060020a038881166020830152871681830152606081018690526080810185905260a0810184905290517f9f32b8ffa303549658d2435755556a7c295c2c6ed827f75256899319ffdfa70b9181900360c00190a150600195945050505050565b600160a060020a038416600090815260036020908152604080832086845282528083208584529091528120805483919083906117a5908490612160565b90915550506040517fec63035e10dd1c8025fbe8d3c8baf46760e1ff9cdc8461ca7cbaf7fd3394f905906117e290339088908890889088906121c2565b60405180910390a15060015b949350505050565b600083815260116020908152604080832085845290915281205461182a57611820858585856119c5565b50600190506117ee565b600160a060020a038516600090815260036020908152604080832087845282528083208684529091528120805484929061186590849061218b565b909155505060008481526009602090815260408083208684529091528120805484929061189390849061218b565b90915550506000848152600f6020526040908190205490517f5d57ae351fb21d62ec3f02e7813257f8d955a4868bb8e9f3f8fbb3aa9faa4035916118df913391899189919088906121c2565b60405180910390a15060016117ee565b600160a060020a0384166000908152600360209081526040808320868452825280832085845290915281208054839190839061192c908490612160565b909155505060008481526009602090815260408083208684529091528120805484929061195a908490612160565b90915550506000848152600b602090815260408083208684529091528120805484929061198890849061218b565b90915550506040517f83cf0c7a97f83a855520ca4249d607c889ab1d2ceb6f65e993269001debf03a8906117e290339088908890889088906121c2565b6000838152600f60205260408120548311156119ed576000848152600f602052604090208390555b6000848152600e602090815260408083208054600181018255908452828420018690558683526007909152902054611a2590846121a3565b600085815260086020526040902054611a3e919061218b565b6000858152600c60209081526040808320878452825280832060018452825280832093909355600160a060020a038816825260038152828220878352815282822086835290529081208054849290611a9790849061218b565b9091555050600084815260096020908152604080832086845290915281208054849290611ac590849061218b565b90915550506040517f5d57ae351fb21d62ec3f02e7813257f8d955a4868bb8e9f3f8fbb3aa9faa4035906117e290339088908890889088906121c2565b828054611b0e90612071565b90600052602060002090601f016020900481019282611b305760008555611b76565b82601f10611b4957805160ff1916838001178555611b76565b82800160010185558215611b76579182015b82811115611b76578251825591602001919060010190611b5b565b50611b82929150611b86565b5090565b5b80821115611b825760008155600101611b87565b600060208284031215611bad57600080fd5b5035919050565b6000815180845260005b81811015611bda57602081850181015186830182015201611bbe565b81811115611bec576000602083870101525b50601f01601f19169290920160200192915050565b602081526000611c146020830184611bb4565b9392505050565b8035600160a060020a0381168114611c3257600080fd5b919050565b600080600060608486031215611c4c57600080fd5b611c5584611c1b565b95602085013595506040909401359392505050565b60008083601f840112611c7c57600080fd5b50813567ffffffffffffffff811115611c9457600080fd5b6020830191508360208083028501011115611cae57600080fd5b9250929050565b60008060008060008060008060a0898b031215611cd157600080fd5b611cda89611c1b565b9750611ce860208a01611c1b565b9650604089013567ffffffffffffffff80821115611d0557600080fd5b611d118c838d01611c6a565b909850965060608b0135915080821115611d2a57600080fd5b611d368c838d01611c6a565b909650945060808b0135915080821115611d4f57600080fd5b50611d5c8b828c01611c6a565b999c989b5096995094979396929594505050565b6020808252825182820181905260009190848201906040850190845b81811015611da857835183529284019291840191600101611d8c565b50909695505050505050565b60e060020a634e487b7102600052604160045260246000fd5b600080600080600060a08688031215611de557600080fd5b85359450611df560208701611c1b565b9350604086013567ffffffffffffffff80821115611e1257600080fd5b818801915088601f830112611e2657600080fd5b813581811115611e3857611e38611db4565b604051601f8201601f19908116603f01168101908382118183101715611e6057611e60611db4565b816040528281528b6020848701011115611e7957600080fd5b8260208601602083013760009281016020019290925250969995985095966060810135965060800135949350505050565b60008060008060008060006080888a031215611ec557600080fd5b611ece88611c1b565b9650602088013567ffffffffffffffff80821115611eeb57600080fd5b611ef78b838c01611c6a565b909850965060408a0135915080821115611f1057600080fd5b611f1c8b838c01611c6a565b909650945060608a0135915080821115611f3557600080fd5b50611f428a828b01611c6a565b989b979a50959850939692959293505050565b60008060408385031215611f6857600080fd5b50508035926020909101359150565b60e081526000611f8a60e083018a611bb4565b60208301989098525060408101959095526060850193909352608084019190915260a083015260c090910152919050565b60008060408385031215611fce57600080fd5b82359150611fde60208401611c1b565b90509250929050565b6000806000806000806080878903121561200057600080fd5b61200987611c1b565b955060208701359450604087013567ffffffffffffffff8082111561202d57600080fd5b6120398a838b01611c6a565b9096509450606089013591508082111561205257600080fd5b5061205f89828a01611c6a565b979a9699509497509295939492505050565b60028104600182168061208557607f821691505b602082108114156120a95760e060020a634e487b7102600052602260045260246000fd5b50919050565b60e060020a634e487b7102600052603260045260246000fd5b60208082526015908201527f6f70657261746f7220756e617574686f72697a65640000000000000000000000604082015260600190565b60e060020a634e487b7102600052601160045260246000fd5b600060001982141561212c5761212c6120ff565b5060010190565b60e060020a634e487b7102600052601260045260246000fd5b60008261215b5761215b612133565b500690565b600082821015612172576121726120ff565b500390565b60008261218657612186612133565b500490565b6000821982111561219e5761219e6120ff565b500190565b60008160001904831182151516156121bd576121bd6120ff565b500290565b600160a060020a03958616815293909416602084015260408301919091526060820152608081019190915260a0019056fea264697066735822122018fec3e53097d6508c464be6e69dc1f46b7fd1cf4e8a720cc14ff201990c246264736f6c634300080a0033",
  "immutableReferences": {},
  "source": "// SPDX-License-Identifier: CC-BY-4.0\npragma solidity >=0.4.22 <0.9.0;\n\nimport \"../Version.sol\";\n\ncontract ExemptDebtOffering is Version {\n  bytes32 constant private ZERO_BYTES = bytes32(0);\n  address constant private ZERO_ADDRESS = address(0);\n\n  mapping(address => bytes32) private verified;\n  mapping(address => address) private cancellations;\n  mapping(address => uint256) private holderIndices;\n  mapping(address => mapping(uint256 => mapping(uint256 => uint256))) public  balances;\n\n  address private owner;\n\n  string[] public _Symbol;\n  mapping (uint256 => uint256)  public _Fibonacci_number;\n  mapping (uint256 => uint256)  public _Fibonacci_epoch;\n  mapping (uint256 => uint256)  public _genesis_nonce_time;\n\n  mapping (uint256 => mapping(uint256 => uint256)) private _activeSupply;\n  mapping (uint256 => mapping(uint256 => uint256)) private _burnedSupply;\n  mapping (uint256 => mapping(uint256 => uint256)) private _redeemedSupply;\n  mapping (uint256 => mapping(uint256 => mapping(uint256 => uint256))) private _info;\n\n  address[] private _bankAddress;\n  mapping (uint256 => uint256[]) private _nonceCreated;\n  mapping (uint256 => uint256) private last_bond_nonce;\n\n  address public dev_address=msg.sender;\n\n  event eventIssueBond(address sender,address _to,uint256 class,uint256 nonce,uint256 _amount);\n  event eventRedeemBond(address sender,address _from,uint256 class,uint256 nonce,uint256 _amount);\n  event eventTransferBond(address sender,address _from,address _to,uint256 class,uint256 nonce,uint256 _amount);\n  event eventBurnBond(address sender,address _from,uint256 class,uint256 nonce,uint256 _amount);\n\n  constructor()\n  {\n    owner = msg.sender;\n    _Symbol[0] = \"SASH-USD Bond\";\n    _Fibonacci_number[0] = 8;\n    _Fibonacci_epoch[0] = 1;\n    _genesis_nonce_time[0] = 0;\n  }\n\n  mapping (uint256 => mapping(uint256 => uint256)) private _totalSupply;\n\n\n  modifier onlyOwner() {\n    require(msg.sender == owner, \"access denied\");\n    _;\n  }\n\n  function setBond(uint256 class, address  bank_contract)public payable onlyOwner returns (bool) {\n    _bankAddress[class] = bank_contract;\n    return true;\n  }\n\n  function getNonceCreated(uint256 class) public view returns (uint256[] memory){\n    return _nonceCreated[class];\n  }\n\n  function totalSupply(uint256 class,uint256 nonce)\n    public\n    view\n    returns (uint256)\n  {\n    return _totalSupply[class][nonce];\n  }\n\n  function createBondClass(\n    uint256 class,\n    address bank_contract,\n    string memory bond_symbol,\n    uint256 Fibonacci_number,\n    uint256 Fibonacci_epoch)\n    public\n    onlyOwner\n    returns (bool)\n  {\n    _Symbol[class] = bond_symbol;\n    _bankAddress[class] = bank_contract;\n    _Fibonacci_number[class] = Fibonacci_number;\n    _Fibonacci_epoch[class] = Fibonacci_epoch;\n    _genesis_nonce_time[class] = 0;\n    return true;\n  }\n\n  //function totalSupply( uint256 class, uint256 nonce) public override view returns (uint256) {\n  //  return _activeSupply[class][nonce]+_burnedSupply[class][nonce]+_redeemedSupply[class][nonce];\n  //}\n  function activeSupply( uint256 class, uint256 nonce) public view returns (uint256) {\n    return _activeSupply[class][nonce];\n  }\n  function burnedSupply( uint256 class, uint256 nonce) public view  returns (uint256) {\n    return _burnedSupply[class][nonce];\n  }\n  function redeemedSupply(  uint256 class, uint256 nonce) public view  returns (uint256) {\n    return _redeemedSupply[class][nonce];\n  }\n  function balanceOf(address account, uint256 class, uint256 nonce) public view returns (uint256){\n        require(account != address(0), \"balance query for the zero address\");\n        return balances[account][class][nonce];\n  }\n  function getBondSymbol(uint256 class) public view returns (string memory) {\n    return _Symbol[class];\n  }\n  function getBondInfo(\n    uint256 class,\n    uint256 nonce)\n    public\n    view\n    returns (\n      string memory BondSymbol,\n      uint256 timestamp,\n      uint256 info2,\n      uint256 info3,\n      uint256 info4,\n      uint256 info5,\n      uint256 info6)\n  {\n    BondSymbol = _Symbol[class];\n    timestamp = _info[class][nonce][1];\n    info2 = _info[class][nonce][2];\n    info3 = _info[class][nonce][3];\n    info4 = _info[class][nonce][4];\n    info5 = _info[class][nonce][5];\n    info6 = _info[class][nonce][6];\n  }\n  function bondIsRedeemable(uint256 class, uint256 nonce) public view returns (bool){\n    if(uint(_info[class][nonce][1]) < block.timestamp) {\n      uint256 total_liquidity;\n      uint256 needed_liquidity;\n      //uint256 available_liquidity;\n      for (uint i = 0; i <= last_bond_nonce[class]; i++) {\n        total_liquidity += _activeSupply[class][i]+_redeemedSupply[class][i];\n      }\n      for (uint i = 0; i <= nonce; i++) {\n          needed_liquidity += (_activeSupply[class][i]+_redeemedSupply[class][i])*2;\n          }\n      if (total_liquidity >= needed_liquidity) {\n          return(true);\n      } else{\n          return(false);\n      }\n    } else {\n      return(false);\n    }\n  }\n  function _createBond(address _to, uint256 class, uint256 nonce, uint256 _amount) private returns(bool) {\n        if(last_bond_nonce[class]<nonce) {\n          last_bond_nonce[class] = nonce;\n        }\n        _nonceCreated[class].push(nonce);\n        _info[class][nonce][1] = _genesis_nonce_time[class] + (nonce) * _Fibonacci_epoch[class];\n        balances[_to][class][nonce] += _amount;\n        _activeSupply[class][nonce] += _amount;\n        emit eventIssueBond(msg.sender, _to, class,nonce, _amount);\n        return(true);\n  }\n  function _issueBond(address _to, uint256 class, uint256 nonce, uint256 _amount) private returns(bool) {\n    if (totalSupply(class,nonce)==0){\n      _createBond(_to,class,nonce,_amount);\n      return(true);\n    } else {\n      balances[_to][class][nonce] += _amount;\n      _activeSupply[class][nonce] += _amount;\n      emit eventIssueBond(msg.sender, _to, class,last_bond_nonce[class], _amount);\n      return(true);\n    }\n  }\n  function _redeemBond(address _from, uint256 class, uint256 nonce, uint256 _amount) private returns(bool) {\n    balances[_from][class][nonce] -= _amount;\n    _activeSupply[class][nonce] -= _amount;\n    _redeemedSupply[class][nonce] += _amount;\n    emit eventRedeemBond(msg.sender,_from, class, nonce, _amount);\n    return(true);\n  }\n  function _transferBond(address _from, address _to, uint256 class, uint256 nonce, uint256 _amount) private returns(bool) {\n    balances[_from][class][nonce] -= _amount;\n    balances[_to][class][nonce] += _amount;\n    emit eventTransferBond(msg.sender,_from,_to, class, nonce, _amount);\n    return(true);\n  }\n  function _burnBond(address _from, uint256 class, uint256 nonce, uint256 _amount) private returns(bool) {\n    balances[_from][class][nonce] -= _amount;\n    emit eventBurnBond(msg.sender,_from, class, nonce, _amount);\n    return(true);\n  }\n  function issueBond(address _to, uint256  class, uint256 _amount) external returns(bool){\n    require(msg.sender==_bankAddress[class], \"operator unauthorized\");\n    require(_to != address(0), \"issue bond to the zero address\");\n    require(_amount >= 100, \"invalid amount\");\n    if (_genesis_nonce_time[class] == 0) {\n      _genesis_nonce_time[class] = block.timestamp % _Fibonacci_epoch[class];\n    }\n    uint256  now_nonce = (block.timestamp - _genesis_nonce_time[class]) / _Fibonacci_epoch[class];\n    uint256 FibonacciTimeEponge0 = 1;\n    uint256 FibonacciTimeEponge1 = 2;\n    uint256 FibonacciTimeEponge;\n    uint256 amount_out_eponge;\n    for (uint i = 0; i < _Fibonacci_number[class]; i++) {\n      if(i == 0) {\n        FibonacciTimeEponge = 1;\n      } else {\n        if (i==1) {\n          FibonacciTimeEponge = 2;\n        } else{\n          FibonacciTimeEponge = (FibonacciTimeEponge0+FibonacciTimeEponge1);\n          FibonacciTimeEponge0 = FibonacciTimeEponge1;\n          FibonacciTimeEponge1 = FibonacciTimeEponge;\n        }\n      }\n      amount_out_eponge += FibonacciTimeEponge;\n    }\n    amount_out_eponge = _amount*1e3/amount_out_eponge;\n    FibonacciTimeEponge = 0;\n    FibonacciTimeEponge0 = 1;\n    FibonacciTimeEponge1 = 2;\n    for (uint i = 0; i < _Fibonacci_number[class]; i++) {\n      if (i == 0) {\n        FibonacciTimeEponge = 1;\n      } else {\n        if (i==1) {\n          FibonacciTimeEponge = 2;\n        } else {\n          FibonacciTimeEponge = (FibonacciTimeEponge0 + FibonacciTimeEponge1);\n          FibonacciTimeEponge0 = FibonacciTimeEponge1;\n          FibonacciTimeEponge1 = FibonacciTimeEponge;\n        }\n      }\n      require(_issueBond(_to, class, now_nonce + FibonacciTimeEponge, amount_out_eponge * FibonacciTimeEponge/1e3) == true,\"\");\n    }\n    return(true);\n  }\n  function redeemBond(address _from, uint256 class, uint256[] calldata nonce, uint256[] calldata  _amount) external returns(bool){\n        require(msg.sender==_bankAddress[class] || msg.sender==_from, \"ERC659: operator unauthorized\");\n        for (uint i = 0; i < nonce.length; i++) {\n            require(balances[_from][class][nonce[i]] >= _amount[i], \"ERC659: not enough bond for redemption\");\n            require(bondIsRedeemable(class,nonce[i])==true, \"ERC659: can't redeem bond before it's redemption day\");\n            require(_redeemBond(_from,class,nonce[i],_amount[i]),\"\");\n        }\n\n        return(true);\n        }\n    function transferBond(address _from, address _to, uint256[] calldata class, uint256[] calldata nonce, uint256[] calldata _amount)\n      external\n      returns(bool)\n    {\n        for (uint n = 0; n < nonce.length; n++) {\n            require(msg.sender==_bankAddress[class[n]] || msg.sender==_from, \"operator unauthorized\");\n            require(balances[_from][class[n]][nonce[n]] >= _amount[n], \"not enough bond to transfer\");\n            require(_to!=address(0), \"cant't transfer to zero bond, use 'burnBond()' instead\");\n            require(_transferBond(_from, _to, class[n], nonce[n], _amount[n]),\"\");\n        }\n        return(true);\n    }\n    function burnBond(address _from, uint256[] calldata class, uint256[] calldata nonce, uint256[] calldata _amount) external returns(bool){\n        for (uint n = 0; n < nonce.length; n++) {\n            require(msg.sender==_bankAddress[class[n]] || msg.sender==_from, \"operator unauthorized\");\n            require(balances[_from][class[n]][nonce[n]] >= _amount[n], \"not enough bond to burn\");\n            require(_burnBond(_from, class[n], nonce[n], _amount[n]),\"\");\n        }\n        return(true);\n    }\n}\n",
  "sourcePath": "G:\\projects\\pingleware-contracts\\contracts\\debt\\ExemptDebtOffering.sol",
  "compiler": {
    "name": "solc",
    "version": "0.8.10+commit.fc410830.Emscripten.clang"
  },
  "schemaVersion": "3.4.3",
  "updatedAt": "2021-12-24T16:15:19.966Z",
  "devdoc": {
    "kind": "dev",
    "methods": {},
    "version": 1
  },
  "userdoc": {
    "kind": "user",
    "methods": {},
    "version": 1
  }
}