{
  "contractName": "ExemptEquityOffering506C",
  "abi": [
    {
      "inputs": [],
      "stateMutability": "payable",
      "type": "constructor"
    },
    {
      "anonymous": false,
      "inputs": [
        {
          "indexed": false,
          "internalType": "address",
          "name": "sender",
          "type": "address"
        },
        {
          "indexed": false,
          "internalType": "uint256",
          "name": "value",
          "type": "uint256"
        },
        {
          "indexed": false,
          "internalType": "uint256",
          "name": "epoch",
          "type": "uint256"
        }
      ],
      "name": "Bought",
      "type": "event"
    },
    {
      "anonymous": false,
      "inputs": [
        {
          "indexed": true,
          "internalType": "address",
          "name": "from",
          "type": "address"
        },
        {
          "indexed": false,
          "internalType": "string",
          "name": "status",
          "type": "string"
        },
        {
          "indexed": false,
          "internalType": "uint256",
          "name": "value",
          "type": "uint256"
        }
      ],
      "name": "ExemptOffering",
      "type": "event"
    },
    {
      "anonymous": false,
      "inputs": [
        {
          "indexed": false,
          "internalType": "address",
          "name": "addr",
          "type": "address"
        },
        {
          "indexed": false,
          "internalType": "uint256",
          "name": "amount",
          "type": "uint256"
        }
      ],
      "name": "Minted",
      "type": "event"
    },
    {
      "anonymous": false,
      "inputs": [
        {
          "indexed": false,
          "internalType": "address",
          "name": "addr",
          "type": "address"
        }
      ],
      "name": "MinterAdded",
      "type": "event"
    },
    {
      "anonymous": false,
      "inputs": [
        {
          "indexed": false,
          "internalType": "address",
          "name": "sender",
          "type": "address"
        },
        {
          "indexed": false,
          "internalType": "uint256",
          "name": "value",
          "type": "uint256"
        },
        {
          "indexed": false,
          "internalType": "uint256",
          "name": "epoch",
          "type": "uint256"
        }
      ],
      "name": "Sold",
      "type": "event"
    },
    {
      "anonymous": false,
      "inputs": [
        {
          "indexed": false,
          "internalType": "address",
          "name": "addr",
          "type": "address"
        },
        {
          "indexed": false,
          "internalType": "uint256",
          "name": "amount",
          "type": "uint256"
        }
      ],
      "name": "Transfer",
      "type": "event"
    },
    {
      "anonymous": false,
      "inputs": [
        {
          "indexed": false,
          "internalType": "address",
          "name": "owner",
          "type": "address"
        },
        {
          "indexed": false,
          "internalType": "address",
          "name": "addr",
          "type": "address"
        }
      ],
      "name": "TransferAgentAdded",
      "type": "event"
    },
    {
      "anonymous": false,
      "inputs": [
        {
          "indexed": false,
          "internalType": "address",
          "name": "owner",
          "type": "address"
        },
        {
          "indexed": false,
          "internalType": "address",
          "name": "addr",
          "type": "address"
        }
      ],
      "name": "TransferAgentRemoved",
      "type": "event"
    },
    {
      "anonymous": false,
      "inputs": [
        {
          "indexed": false,
          "internalType": "address",
          "name": "from",
          "type": "address"
        },
        {
          "indexed": false,
          "internalType": "address",
          "name": "to",
          "type": "address"
        },
        {
          "indexed": false,
          "internalType": "uint256",
          "name": "value",
          "type": "uint256"
        }
      ],
      "name": "TransferFrom",
      "type": "event"
    },
    {
      "inputs": [],
      "name": "INITIAL_SUPPLY",
      "outputs": [
        {
          "internalType": "uint256",
          "name": "",
          "type": "uint256"
        }
      ],
      "stateMutability": "view",
      "type": "function"
    },
    {
      "inputs": [],
      "name": "VERSION",
      "outputs": [
        {
          "internalType": "string",
          "name": "",
          "type": "string"
        }
      ],
      "stateMutability": "view",
      "type": "function"
    },
    {
      "inputs": [],
      "name": "WAIT",
      "outputs": [
        {
          "internalType": "uint256",
          "name": "",
          "type": "uint256"
        }
      ],
      "stateMutability": "view",
      "type": "function"
    },
    {
      "inputs": [
        {
          "internalType": "address",
          "name": "addr",
          "type": "address"
        }
      ],
      "name": "addMinter",
      "outputs": [],
      "stateMutability": "nonpayable",
      "type": "function"
    },
    {
      "inputs": [
        {
          "internalType": "address",
          "name": "addr",
          "type": "address"
        },
        {
          "internalType": "uint256",
          "name": "level",
          "type": "uint256"
        }
      ],
      "name": "addShareholder",
      "outputs": [],
      "stateMutability": "payable",
      "type": "function"
    },
    {
      "inputs": [
        {
          "internalType": "address",
          "name": "addr",
          "type": "address"
        },
        {
          "internalType": "bytes32",
          "name": "encrypted",
          "type": "bytes32"
        },
        {
          "internalType": "bytes",
          "name": "signature",
          "type": "bytes"
        }
      ],
      "name": "addTransferAgent",
      "outputs": [],
      "stateMutability": "nonpayable",
      "type": "function"
    },
    {
      "inputs": [
        {
          "internalType": "address",
          "name": "addr",
          "type": "address"
        },
        {
          "internalType": "string",
          "name": "hash",
          "type": "string"
        }
      ],
      "name": "addVerified",
      "outputs": [],
      "stateMutability": "nonpayable",
      "type": "function"
    },
    {
      "inputs": [
        {
          "internalType": "address",
          "name": "_owner",
          "type": "address"
        },
        {
          "internalType": "address",
          "name": "spender",
          "type": "address"
        }
      ],
      "name": "allowance",
      "outputs": [
        {
          "internalType": "uint256",
          "name": "",
          "type": "uint256"
        }
      ],
      "stateMutability": "view",
      "type": "function"
    },
    {
      "inputs": [
        {
          "internalType": "address",
          "name": "original",
          "type": "address"
        },
        {
          "internalType": "address",
          "name": "replacement",
          "type": "address"
        }
      ],
      "name": "cancelAndReissue",
      "outputs": [],
      "stateMutability": "nonpayable",
      "type": "function"
    },
    {
      "inputs": [],
      "name": "decimals",
      "outputs": [
        {
          "internalType": "uint8",
          "name": "",
          "type": "uint8"
        }
      ],
      "stateMutability": "view",
      "type": "function"
    },
    {
      "inputs": [
        {
          "internalType": "address",
          "name": "addr",
          "type": "address"
        }
      ],
      "name": "getCurrentFor",
      "outputs": [
        {
          "internalType": "address",
          "name": "",
          "type": "address"
        }
      ],
      "stateMutability": "payable",
      "type": "function"
    },
    {
      "inputs": [],
      "name": "getOwner",
      "outputs": [
        {
          "internalType": "address",
          "name": "",
          "type": "address"
        }
      ],
      "stateMutability": "payable",
      "type": "function"
    },
    {
      "inputs": [
        {
          "internalType": "uint256",
          "name": "index",
          "type": "uint256"
        }
      ],
      "name": "holderAt",
      "outputs": [
        {
          "internalType": "address",
          "name": "",
          "type": "address"
        }
      ],
      "stateMutability": "payable",
      "type": "function"
    },
    {
      "inputs": [],
      "name": "holderCount",
      "outputs": [
        {
          "internalType": "uint256",
          "name": "",
          "type": "uint256"
        }
      ],
      "stateMutability": "payable",
      "type": "function"
    },
    {
      "inputs": [
        {
          "internalType": "address",
          "name": "addr",
          "type": "address"
        }
      ],
      "name": "isSuperseded",
      "outputs": [
        {
          "internalType": "bool",
          "name": "",
          "type": "bool"
        }
      ],
      "stateMutability": "payable",
      "type": "function"
    },
    {
      "inputs": [
        {
          "internalType": "address",
          "name": "addr",
          "type": "address"
        }
      ],
      "name": "isVerified",
      "outputs": [
        {
          "internalType": "bool",
          "name": "",
          "type": "bool"
        }
      ],
      "stateMutability": "payable",
      "type": "function"
    },
    {
      "inputs": [],
      "name": "marketCap",
      "outputs": [
        {
          "internalType": "uint256",
          "name": "",
          "type": "uint256"
        }
      ],
      "stateMutability": "view",
      "type": "function"
    },
    {
      "inputs": [
        {
          "internalType": "address",
          "name": "_to",
          "type": "address"
        },
        {
          "internalType": "uint256",
          "name": "_amount",
          "type": "uint256"
        },
        {
          "internalType": "uint256",
          "name": "_epoch",
          "type": "uint256"
        },
        {
          "internalType": "uint256",
          "name": "_initial_supply",
          "type": "uint256"
        }
      ],
      "name": "mint",
      "outputs": [
        {
          "internalType": "bool",
          "name": "",
          "type": "bool"
        }
      ],
      "stateMutability": "nonpayable",
      "type": "function"
    },
    {
      "inputs": [],
      "name": "name",
      "outputs": [
        {
          "internalType": "string",
          "name": "",
          "type": "string"
        }
      ],
      "stateMutability": "view",
      "type": "function"
    },
    {
      "inputs": [
        {
          "internalType": "address",
          "name": "addr",
          "type": "address"
        },
        {
          "internalType": "bytes32",
          "name": "encrypted",
          "type": "bytes32"
        },
        {
          "internalType": "bytes",
          "name": "signature",
          "type": "bytes"
        }
      ],
      "name": "removeTransferAgent",
      "outputs": [],
      "stateMutability": "nonpayable",
      "type": "function"
    },
    {
      "inputs": [
        {
          "internalType": "address",
          "name": "addr",
          "type": "address"
        }
      ],
      "name": "removeVerified",
      "outputs": [],
      "stateMutability": "nonpayable",
      "type": "function"
    },
    {
      "inputs": [
        {
          "internalType": "uint256",
          "name": "value",
          "type": "uint256"
        }
      ],
      "name": "setMaxUnaccreditInvestors",
      "outputs": [],
      "stateMutability": "nonpayable",
      "type": "function"
    },
    {
      "inputs": [
        {
          "internalType": "address",
          "name": "_contract",
          "type": "address"
        },
        {
          "internalType": "uint256",
          "name": "value",
          "type": "uint256"
        }
      ],
      "name": "setParValue",
      "outputs": [],
      "stateMutability": "payable",
      "type": "function"
    },
    {
      "inputs": [],
      "name": "sharesOustanding",
      "outputs": [
        {
          "internalType": "uint256",
          "name": "",
          "type": "uint256"
        }
      ],
      "stateMutability": "view",
      "type": "function"
    },
    {
      "inputs": [],
      "name": "start",
      "outputs": [],
      "stateMutability": "nonpayable",
      "type": "function"
    },
    {
      "inputs": [],
      "name": "stop",
      "outputs": [],
      "stateMutability": "nonpayable",
      "type": "function"
    },
    {
      "inputs": [],
      "name": "symbol",
      "outputs": [
        {
          "internalType": "string",
          "name": "",
          "type": "string"
        }
      ],
      "stateMutability": "view",
      "type": "function"
    },
    {
      "inputs": [
        {
          "internalType": "string",
          "name": "name",
          "type": "string"
        },
        {
          "internalType": "uint256",
          "name": "timestamp",
          "type": "uint256"
        },
        {
          "internalType": "bool",
          "name": "_active",
          "type": "bool"
        },
        {
          "internalType": "uint256",
          "name": "_initial_supply",
          "type": "uint256"
        }
      ],
      "name": "toggleExemptOffering",
      "outputs": [],
      "stateMutability": "nonpayable",
      "type": "function"
    },
    {
      "inputs": [
        {
          "internalType": "address",
          "name": "to",
          "type": "address"
        },
        {
          "internalType": "uint256",
          "name": "value",
          "type": "uint256"
        },
        {
          "internalType": "uint256",
          "name": "epoch",
          "type": "uint256"
        }
      ],
      "name": "transfer",
      "outputs": [
        {
          "internalType": "bool",
          "name": "",
          "type": "bool"
        }
      ],
      "stateMutability": "nonpayable",
      "type": "function"
    },
    {
      "inputs": [
        {
          "internalType": "address",
          "name": "from",
          "type": "address"
        },
        {
          "internalType": "address",
          "name": "to",
          "type": "address"
        },
        {
          "internalType": "uint256",
          "name": "value",
          "type": "uint256"
        },
        {
          "internalType": "uint256",
          "name": "epoch",
          "type": "uint256"
        }
      ],
      "name": "transferFrom",
      "outputs": [
        {
          "internalType": "bool",
          "name": "",
          "type": "bool"
        }
      ],
      "stateMutability": "nonpayable",
      "type": "function"
    },
    {
      "inputs": [
        {
          "internalType": "address",
          "name": "addr",
          "type": "address"
        },
        {
          "internalType": "string",
          "name": "hash",
          "type": "string"
        }
      ],
      "name": "updateVerified",
      "outputs": [],
      "stateMutability": "nonpayable",
      "type": "function"
    },
    {
      "inputs": [
        {
          "internalType": "address",
          "name": "addr",
          "type": "address"
        }
      ],
      "name": "balanceOf",
      "outputs": [
        {
          "internalType": "uint256",
          "name": "",
          "type": "uint256"
        }
      ],
      "stateMutability": "payable",
      "type": "function"
    },
    {
      "inputs": [
        {
          "internalType": "uint256",
          "name": "amount",
          "type": "uint256"
        },
        {
          "internalType": "uint256",
          "name": "epoch",
          "type": "uint256"
        }
      ],
      "name": "buy",
      "outputs": [],
      "stateMutability": "payable",
      "type": "function"
    },
    {
      "inputs": [
        {
          "internalType": "address payable",
          "name": "sender",
          "type": "address"
        },
        {
          "internalType": "uint256",
          "name": "amount",
          "type": "uint256"
        },
        {
          "internalType": "uint256",
          "name": "epoch",
          "type": "uint256"
        }
      ],
      "name": "sell",
      "outputs": [],
      "stateMutability": "payable",
      "type": "function"
    }
  ],
  "bytecode": "0x6000805460ff19168155600181905560065560c0604052601160808190527f52756c652035303628632920546f6b656e00000000000000000000000000000060a0908152620000529160089190620001ba565b5060408051808201909152600a8082527f544f4b454e2e353036430000000000000000000000000000000000000000000060209092019182526200009991600991620001ba565b506000600a819055600b819055600c8190556301dfe200600d558054600160a860020a031916610100330217815542600155620000e6903090640100000000620000ec8102620009361704565b620002b6565b3360009081526002602052604090205460ff16151560011462000194576040517f08c379a0000000000000000000000000000000000000000000000000000000008152602060048201526024808201527f6163636573732064656e69656420666f7220746865207472616e73666572206160448201527f67656e7400000000000000000000000000000000000000000000000000000000606482015260840160405180910390fd5b60078054600160a060020a031916600160a060020a039390931692909217909155600655565b828054620001c89062000260565b90600052602060002090601f016020900481019282620001ec576000855562000237565b82601f106200020757805160ff191683800117855562000237565b8280016001018555821562000237579182015b82811115620002375782518255916020019190600101906200021a565b506200024592915062000249565b5090565b5b808211156200024557600081556001016200024a565b6002810460018216806200027557607f821691505b60208210811415620002b0577f4e487b7100000000000000000000000000000000000000000000000000000000600052602260045260246000fd5b50919050565b6139bd80620002c66000396000f3fe6080604052600436106101fd5760003560e060020a9004806384f78a9811610111578063b9209e33116100a4578063cc9a91b411610073578063cc9a91b41461051c578063d6febde81461053c578063dd62ed3e1461054f578063fe99049a14610595578063ffa1ad74146105b557600080fd5b8063b9209e33146104b7578063be9a6555146104ca578063c8278b64146104e9578063cc397ed31461050957600080fd5b80639a76d745116100e05780639a76d74514610442578063a647e8ec14610462578063aa4a637b14610482578063b8fb3a51146104a257600080fd5b806384f78a98146103e5578063893d20e81461040557806395d89b411461040d578063983b2d561461042257600080fd5b80632ff2e9dc1161019457806355c904d31161016357806355c904d31461036c5780636a2724621461038c57806370a082311461039f57806375724990146103b257806379f64720146103c557600080fd5b80632ff2e9dc146102f8578063313ce5671461030f578063425fd0ae146103365780634487b3921461034c57600080fd5b8063197bc336116101d0578063197bc3361461028e5780631aab9a9f146102b95780632c135b93146102cf5780632da7293e146102e557600080fd5b806306fdde031461020257806307da68f51461022d578063095bcdb61461024b5780630b08058c1461027b575b600080fd5b34801561020e57600080fd5b506102176105fe565b60405161022491906131da565b60405180910390f35b34801561023957600080fd5b506102496000805460ff19169055565b005b34801561025757600080fd5b5061026b610266366004613209565b61068c565b6040519015158152602001610224565b61024961028936600461323e565b610936565b6102a161029c36600461326a565b610993565b604051600160a060020a039091168152602001610224565b6102c1610a32565b604051908152602001610224565b3480156102db57600080fd5b506102c1600b5481565b61026b6102f3366004613283565b610a76565b34801561030457600080fd5b506102c1620186a081565b34801561031b57600080fd5b50610324600081565b60405160ff9091168152602001610224565b34801561034257600080fd5b506102c1600a5481565b34801561035857600080fd5b50610249610367366004613283565b610ab6565b34801561037857600080fd5b5061024961038736600461334f565b610b54565b61024961039a366004613209565b610c91565b6102c16103ad366004613283565b610f3e565b6102496103c036600461323e565b610f69565b3480156103d157600080fd5b506102496103e036600461339f565b610faa565b3480156103f157600080fd5b506102496104003660046133d8565b611080565b6102a16112a6565b34801561041957600080fd5b50610217611381565b34801561042e57600080fd5b5061024961043d366004613283565b61138e565b34801561044e57600080fd5b5061024961045d3660046133d8565b611472565b34801561046e57600080fd5b5061026b61047d366004613445565b611671565b34801561048e57600080fd5b5061024961049d36600461334f565b6118cb565b3480156104ae57600080fd5b506102c1601e81565b61026b6104c5366004613283565b61195d565b3480156104d657600080fd5b506102496000805460ff19166001179055565b3480156104f557600080fd5b5061024961050436600461326a565b611968565b6102a1610517366004613283565b6119a8565b34801561052857600080fd5b5061024961053736600461348e565b6119e8565b61024961054a3660046134ef565b611b8e565b34801561055b57600080fd5b506102c161056a36600461339f565b600160a060020a03918216600090815260036020908152604080832093909416825291909152205490565b3480156105a157600080fd5b5061026b6105b0366004613511565b611d3f565b3480156105c157600080fd5b506102176040518060400160405280600581526020017f312e302e3500000000000000000000000000000000000000000000000000000081525081565b6008805461060b90613557565b80601f016020809104026020016040519081016040528092919081815260200182805461063790613557565b80156106845780601f1061065957610100808354040283529160200191610684565b820191906000526020600020905b81548152906001019060200180831161066757829003601f168201915b505050505081565b600073__ActiveOffering________________________6322f3e2d46040518163ffffffff1660e060020a028152600401602060405180830381865af41580156106da573d6000803e3d6000fd5b505050506040513d601f19601f820116820180604052508101906106fe9190613595565b6107265760405160e560020a62461bcd02815260040161071d906135b2565b60405180910390fd5b6040517eba40ae000000000000000000000000000000000000000000000000000000008152600160a060020a038516600482015273__Transaction___________________________9062ba40ae90602401602060405180830381865af4158015610795573d6000803e3d6000fd5b505050506040513d601f19601f820116820180604052508101906107b99190613595565b6107d85760405160e560020a62461bcd02815260040161071d906135e9565b6107e184611fd8565b6107eb3384612089565b6000600654846107fb9190613639565b6040517f590c4ef900000000000000000000000000000000000000000000000000000000815290915073__Transaction___________________________9063590c4ef99061085490889085908990899060040161365e565b602060405180830381865af4158015610871573d6000803e3d6000fd5b505050506040513d601f19601f820116820180604052508101906108959190613684565b5073__Transaction___________________________63590c4ef933836108be8860001961369d565b876040518563ffffffff1660e060020a0281526004016108e1949392919061365e565b602060405180830381865af41580156108fe573d6000803e3d6000fd5b505050506040513d601f19601f820116820180604052508101906109229190613684565b5061092d8585612243565b95945050505050565b3360009081526002602052604090205460ff16151560011461096d5760405160e560020a62461bcd02815260040161071d906136bc565b60078054600160a060020a031916600160a060020a039390931692909217909155600655565b3360009081526002602052604081205460ff1615156001146109ca5760405160e560020a62461bcd02815260040161071d906136bc565b6109d26122b6565b8210610a235760405160e560020a62461bcd02815260206004820152601660248201527f686f6c6465724174206f7574206f6620626f756e647300000000000000000000604482015260640161071d565b610a2c826122c9565b92915050565b3360009081526002602052604081205460ff161515600114610a695760405160e560020a62461bcd02815260040161071d906136bc565b610a716122b6565b905090565b3360009081526002602052604081205460ff161515600114610aad5760405160e560020a62461bcd02815260040161071d906136bc565b610a2c8261235f565b3360009081526002602052604090205460ff161515600114610aed5760405160e560020a62461bcd02815260040161071d906136bc565b600160a060020a0381163115610b485760405160e560020a62461bcd02815260206004820152601b60248201527f6163636f756e742062616c616e6365206973206e6f74207a65726f0000000000604482015260640161071d565b610b5181612391565b50565b3360009081526002602052604090205460ff161515600114610b8b5760405160e560020a62461bcd02815260040161071d906136bc565b600160a060020a038216610c0a5760405160e560020a62461bcd02815260206004820152602260248201527f28616464566572696669656429202d2061646472657373206973206d6973736960448201527f6e67000000000000000000000000000000000000000000000000000000000000606482015260840161071d565b8051610c5b5760405160e560020a62461bcd02815260206004820152601f60248201527f28616464566572696669656429202d2068617368206973206d697373696e6700604482015260640161071d565b610c6482612432565b610c835760405160e560020a62461bcd02815260040161071d90613719565b610c8d828261246e565b5050565b73__ActiveOffering________________________6322f3e2d46040518163ffffffff1660e060020a028152600401602060405180830381865af4158015610cdd573d6000803e3d6000fd5b505050506040513d601f19601f82011682018060405250810190610d019190613595565b610d205760405160e560020a62461bcd02815260040161071d906135b2565b610d2983612432565b610d485760405160e560020a62461bcd02815260040161071d90613776565b6040517eba40ae000000000000000000000000000000000000000000000000000000008152600160a060020a038416600482015273__Transaction___________________________9062ba40ae90602401602060405180830381865af4158015610db7573d6000803e3d6000fd5b505050506040513d601f19601f82011682018060405250810190610ddb9190613595565b610dfa5760405160e560020a62461bcd02815260040161071d906135e9565b60008211610e735760405160e560020a62461bcd02815260206004820152602560248201527f596f75206e65656420746f2073656c6c206174206c6561737420736f6d65207460448201527f6f6b656e73000000000000000000000000000000000000000000000000000000606482015260840161071d565b33600090815260036020908152604080832030845290915290205482811015610ee15760405160e560020a62461bcd02815260206004820152601960248201527f436865636b2074686520746f6b656e20616c6c6f77616e636500000000000000604482015260640161071d565b610eed84308585611d3f565b5060408051600160a060020a0386168152602081018590529081018390527fbac9694ac0daa55169abd117086fe32c89401d9a3b15dd1d34e55e0aa4e47a9d9060600160405180910390a150505050565b600160a060020a03811660009081526000805160206139688339815191526020526040812054610a2c565b3360009081526002602052604090205460ff161515600114610fa05760405160e560020a62461bcd02815260040161071d906136bc565b610c8d82826125eb565b3360009081526002602052604090205460ff161515600114610fe15760405160e560020a62461bcd02815260040161071d906136bc565b73__ActiveOffering________________________6322f3e2d46040518163ffffffff1660e060020a028152600401602060405180830381865af415801561102d573d6000803e3d6000fd5b505050506040513d601f19601f820116820180604052508101906110519190613595565b6110705760405160e560020a62461bcd02815260040161071d906135b2565b61107a828261279e565b50505050565b600054829082906101009004600160a060020a031633146110e65760405160e560020a62461bcd02815260206004820152601760248201527f6163636573732064656e69656420666f72206f776e6572000000000000000000604482015260640161071d565b6000546040517f39cdde3200000000000000000000000000000000000000000000000000000000815273__ECVerify______________________________916339cdde329161114a91869186916101009004600160a060020a0316906004016137ad565b602060405180830381865af4158015611167573d6000803e3d6000fd5b505050506040513d601f19601f8201168201806040525081019061118b9190613595565b6111da5760405160e560020a62461bcd02815260206004820152601e60248201527f6163636573732064656e6965642c206f776e6572206e6f742076616c69640000604482015260640161071d565b600160a060020a038516156112345760405160e560020a62461bcd02815260206004820152601e60248201527f6d697373696e67207472616e73666572206167656e7420616464726573730000604482015260640161071d565b600160a060020a0385166000908152600260205260409020805460ff191690557faf389abc80f1ffdb9d047f10d61eaf63326aa6d693b982d133c6064c1d13d17961127d6112a6565b60408051600160a060020a03928316815291881660208301520160405180910390a15050505050565b6000601e6001546112b791906137df565b42116113085760405160e560020a62461bcd02815260206004820152601060248201527f72617465206c696d6974206572726f7200000000000000000000000000000000604482015260640161071d565b601e60015461131791906137df565b42116113685760405160e560020a62461bcd02815260206004820152601060248201527f72617465206c696d6974206572726f7200000000000000000000000000000000604482015260640161071d565b50426001556000546101009004600160a060020a031690565b6009805461060b90613557565b3360009081526002602052604090205460ff1615156001146113c55760405160e560020a62461bcd02815260040161071d906136bc565b600160a060020a03811661141e5760405160e560020a62461bcd02815260206004820152601660248201527f6d697373696e67206d696e746572206164647265737300000000000000000000604482015260640161071d565b600160a060020a0381166000818152600560209081526040918290206001905590519182527f6ae172837ea30b801fbfcdd4108aa1d5bf8ff775444fd70256b44e6bf3dfc3f691015b60405180910390a150565b600054829082906101009004600160a060020a031633146114d85760405160e560020a62461bcd02815260206004820152601760248201527f6163636573732064656e69656420666f72206f776e6572000000000000000000604482015260640161071d565b6000546040517f39cdde3200000000000000000000000000000000000000000000000000000000815273__ECVerify______________________________916339cdde329161153c91869186916101009004600160a060020a0316906004016137ad565b602060405180830381865af4158015611559573d6000803e3d6000fd5b505050506040513d601f19601f8201168201806040525081019061157d9190613595565b6115cc5760405160e560020a62461bcd02815260206004820152601e60248201527f6163636573732064656e6965642c206f776e6572206e6f742076616c69640000604482015260640161071d565b600160a060020a0385166116255760405160e560020a62461bcd02815260206004820152601e60248201527f6d697373696e67207472616e73666572206167656e7420616464726573730000604482015260640161071d565b600160a060020a0385166000908152600260205260409020805460ff191660011790557f2e4cac6df140daa75de705aceea9de24b1ff332042e59f804e74bdc9b8559d6b61127d6112a6565b3360009081526002602052604081205460ff1615156001146116a85760405160e560020a62461bcd02815260040161071d906136bc565b3360009081526005602052604090205460011461170a5760405160e560020a62461bcd02815260206004820152600c60248201527f6e6f742061206d696e7465720000000000000000000000000000000000000000604482015260640161071d565b73__ActiveOffering________________________6322f3e2d46040518163ffffffff1660e060020a028152600401602060405180830381865af4158015611756573d6000803e3d6000fd5b505050506040513d601f19601f8201168201806040525081019061177a9190613595565b6117995760405160e560020a62461bcd02815260040161071d906135b2565b428310156117ec5760405160e560020a62461bcd02815260206004820152601360248201527f74696d652073706f6f66696e67206572726f7200000000000000000000000000604482015260640161071d565b6117f585611fd8565b6000600654856118059190613639565b6040517f590c4ef900000000000000000000000000000000000000000000000000000000815290915073__Transaction___________________________9063590c4ef99061185e90899085908a908a9060040161365e565b602060405180830381865af415801561187b573d6000803e3d6000fd5b505050506040513d601f19601f8201168201806040525081019061189f9190613684565b506007546118b690600160a060020a031686612b34565b6118c1868685612b72565b9695505050505050565b3360009081526002602052604090205460ff1615156001146119025760405160e560020a62461bcd02815260040161071d906136bc565b80516119535760405160e560020a62461bcd02815260206004820152601f60248201527f28757064617465566572696669656429202d2068617368206973207a65726f00604482015260640161071d565b610c8d8282612c14565b6000610a2c82612432565b3360009081526002602052604090205460ff16151560011461199f5760405160e560020a62461bcd02815260040161071d906136bc565b610b5181612e6d565b3360009081526002602052604081205460ff1615156001146119df5760405160e560020a62461bcd02815260040161071d906136bc565b610a2c82612e7d565b3360009081526002602052604090205460ff161515600114611a1f5760405160e560020a62461bcd02815260040161071d906136bc565b60048381556040517f5f76f6ab00000000000000000000000000000000000000000000000000000000815273__ActiveOffering________________________91635f76f6ab91611a7891869101901515815260200190565b60006040518083038186803b158015611a9057600080fd5b505af4158015611aa4573d6000803e3d6000fd5b505050508115611b285733600160a060020a03167fb9c39a906441691d138569e18a2c9766e29c5def7618306a8f07d7dc1f34627b85604051602001611aea91906137f7565b60408051601f1981840301815290829052611b06918790613838565b60405180910390a260045415611b2357611b21338283612b72565b505b61107a565b33600160a060020a03167fb9c39a906441691d138569e18a2c9766e29c5def7618306a8f07d7dc1f34627b85604051602001611b64919061385a565b60408051601f1981840301815290829052611b80918790613838565b60405180910390a250505050565b73__ActiveOffering________________________6322f3e2d46040518163ffffffff1660e060020a028152600401602060405180830381865af4158015611bda573d6000803e3d6000fd5b505050506040513d601f19601f82011682018060405250810190611bfe9190613595565b611c1d5760405160e560020a62461bcd02815260040161071d906135b2565b611c2633612432565b611c455760405160e560020a62461bcd02815260040161071d90613776565b60008211611c985760405160e560020a62461bcd02815260206004820152601b60248201527f596f75206e65656420746f2073656e6420736f6d652065746865720000000000604482015260640161071d565b600a54821115611ced5760405160e560020a62461bcd02815260206004820181905260248201527f4e6f7420656e6f7567682073686172657320696e207468652072657365727665604482015260640161071d565b611cf833838361068c565b5060408051338152602081018490529081018290527fa9a40dec7a304e5915d11358b968c1e8d365992abf20f82285d1df1b30c8e24c906060015b60405180910390a15050565b600073__ActiveOffering________________________6322f3e2d46040518163ffffffff1660e060020a028152600401602060405180830381865af4158015611d8d573d6000803e3d6000fd5b505050506040513d601f19601f82011682018060405250810190611db19190613595565b611dd05760405160e560020a62461bcd02815260040161071d906135b2565b6040517eba40ae000000000000000000000000000000000000000000000000000000008152600160a060020a038516600482015273__Transaction___________________________9062ba40ae90602401602060405180830381865af4158015611e3f573d6000803e3d6000fd5b505050506040513d601f19601f82011682018060405250810190611e639190613595565b611e825760405160e560020a62461bcd02815260040161071d906135e9565b611e8b84611fd8565b611e958584612089565b600060065484611ea59190613639565b6040517f590c4ef900000000000000000000000000000000000000000000000000000000815290915073__Transaction___________________________9063590c4ef990611efe90889085908990899060040161365e565b602060405180830381865af4158015611f1b573d6000803e3d6000fd5b505050506040513d601f19601f82011682018060405250810190611f3f9190613684565b5073__Transaction___________________________63590c4ef98783611f688860001961369d565b876040518563ffffffff1660e060020a028152600401611f8b949392919061365e565b602060405180830381865af4158015611fa8573d6000803e3d6000fd5b505050506040513d601f19601f82011682018060405250810190611fcc9190613684565b506118c1868686612e91565b611fe181612432565b6120005760405160e560020a62461bcd02815260040161071d90613776565b612008612f05565b600160a060020a03821660009081526001919091016020526040902054610b5157612031612f05565b60040180546001808201835560009283526020909220018054600160a060020a031916600160a060020a038416179055612069612f05565b600160a060020a0383166000908152600191909101602052604090205550565b600061209f82600160a060020a0385163161389b565b905080156120ac57505050565b600060016120b8612f05565b600160a060020a038616600090815260019190910160205260409020546120df919061389b565b9050600060016120ed612f05565b600401546120fb919061389b565b90506000612107612f05565b600401828154811061211b5761211b6138b2565b600091825260209091200154600160a060020a031690508061213b612f05565b600401848154811061214f5761214f6138b2565b9060005260206000200160006101000a815481600160a060020a030219169083600160a060020a03160217905550612185612f05565b600160a060020a038716600090815260019190910160205260409020546121aa612f05565b600160a060020a038316600090815260019190910160205260409020556121cf612f05565b60040160016121dc612f05565b600401546121ea919061389b565b815481106121fa576121fa6138b2565b600091825260208220018054600160a060020a031916905561221a612f05565b600160a060020a0390971660009081526001979097016020526040909620959095555050505050565b600160a060020a03821660009081526000805160206139688339815191526020526040812082905560408051600160a060020a0385168152602081018490527f69ca02dd4edd7bf0a4abb9ed3b7af3f14778db5d61921c7dc7cd545266326de2910160405180910390a150600192915050565b60006122c0612f05565b60040154919050565b60006122d3612f05565b6004015482106123285760405160e560020a62461bcd02815260206004820152601660248201527f686f6c6465724174206f7574206f6620626f756e647300000000000000000000604482015260640161071d565b612330612f05565b6004018281548110612344576123446138b2565b600091825260209091200154600160a060020a031692915050565b60008061236a612f05565b600160a060020a039384166000908152602091909152604090205490921690911415919050565b612399612f05565b600160a060020a03821660009081526002919091016020526040902080546123c090613557565b159050610b51576123cf612f05565b600160a060020a0382166000908152600291909101602052604081206123f4916130af565b60408051600160a060020a03831681523360208201527f8071c01a493142de896a206c19ca180d32e91d6486fcf11ea299f569f5d922b59101611467565b60008061243d612f05565b600160a060020a038416600090815260029190910160205260409020805461246490613557565b9050119050919050565b61247782612f29565b6124ec5760405160e560020a62461bcd02815260206004820152602d60248201527f28616464566572696669656429202d20696e766573746f7220697320616c726560448201527f6164792063616e63656c6c656400000000000000000000000000000000000000606482015260840161071d565b6124f4612f05565b600160a060020a038316600090815260029190910160205260409020805461251b90613557565b15905061253d5760405160e560020a62461bcd02815260040161071d90613719565b80612546612f05565b600201600084600160a060020a0316600160a060020a03168152602001908152602001600020908051906020019061257f9291906130e9565b50612588612f05565b600301805460018101825560009182526020909120018054600160a060020a031916600160a060020a0384161790556040517f550c196a77afc2d9b241c5742cef5ee82f2db8345acf38fed8ba8e2070b6451f90611d33908490849033906138cb565b6125f3612f05565b600160a060020a03831660009081526001919091016020526040902054610c8d57806001141561270c57612625612f05565b60070154612631612f05565b60050154106126ab5760405160e560020a62461bcd02815260206004820152603a60248201527f77696c6c2065786365656420746865206d6178696d756d206e756d626572206f60448201527f66206e6f6e2d6163637265646974656420696e766573746f7273000000000000606482015260840161071d565b6126b3612f05565b60050180546001808201835560009283526020909220018054600160a060020a031916600160a060020a0385161790556126eb612f05565b600160a060020a038416600090815260019190910160205260409020555050565b80600214156127555761271d612f05565b60040180546001808201835560009283526020909220018054600160a060020a031916600160a060020a0385161790556126eb612f05565b8060031415610c8d57612766612f05565b60060180546001808201835560009283526020909220018054600160a060020a031916600160a060020a0385161790556126eb612f05565b6000806127aa84612f5a565b61281f5760405160e560020a62461bcd02815260206004820152603b60248201527f2863616e63656c616e645265697373756529202d206f726967696e616c20696e60448201527f766573746f72206973206e6f742061207368617265686f6c6465720000000000606482015260840161071d565b61282883612f88565b6128c35760405160e560020a62461bcd02815260206004820152605960248201527f2863616e63656c616e645265697373756529202d207265706c6163656d656e7460448201527f20696e766573746f7220697320616c72656164792061207368617265686f6c6460648201527f65722c2072657175697265732061206e65772077616c6c657400000000000000608482015260a40161071d565b6128cc83612432565b6129685760405160e560020a62461bcd028152602060048201526044602482018190527f2863616e63656c616e645265697373756529202d207265706c6163656d656e74908201527f20696e766573746f72206973206e6f74206120766572696669656420696e766560648201527f73746f7200000000000000000000000000000000000000000000000000000000608482015260a40161071d565b60405180602001604052806000815250612980612f05565b600201600086600160a060020a0316600160a060020a0316815260200190815260200160002090805190602001906129b99291906130e9565b50826129c3612f05565b600160a060020a038681166000908152602092909252604082208054600160a060020a031916939091169290921790915560016129fe612f05565b600160a060020a03871660009081526001919091016020526040902054612a25919061389b565b905083612a30612f05565b6004018281548110612a4457612a446138b2565b9060005260206000200160006101000a815481600160a060020a030219169083600160a060020a03160217905550612a7a612f05565b600160a060020a03861660009081526001919091016020526040902054612a9f612f05565b600160a060020a03861660009081526001919091016020526040812091909155612ac7612f05565b600160a060020a0387811660008181526001939093016020908152604093849020949094558251908152908716928101929092523382820152517fb64971100522354f3d25283cb14e2eefcb0dd26a757482ccfe42479d0a6868579181900360600190a150929391925050565b600160a060020a0382166000908152600080516020613968833981519152602052604081208054839290612b699084906137df565b90915550505050565b600081831115612bc75760405160e560020a62461bcd02815260206004820152601460248201527f6578636565647320746f74616c20737570706c79000000000000000000000000604482015260640161071d565b60408051600160a060020a0386168152602081018590527f30385c845b448a36257a6a1716e6ad2e1bc2cbe333cde1e69fe849ad6511adfe91015b60405180910390a15060019392505050565b612c1d82612432565b612c925760405160e560020a62461bcd02815260206004820152602a60248201527f28757064617465566572696669656429202d206e6f742061207665726966696560448201527f6420696e766573746f7200000000000000000000000000000000000000000000606482015260840161071d565b8051612ce35760405160e560020a62461bcd02815260206004820152601f60248201527f28757064617465566572696669656429202d2068617368206973207a65726f00604482015260640161071d565b6000612ced612f05565b600160a060020a0384166000908152600291909101602052604090208054612d1490613557565b80601f0160208091040260200160405190810160405280929190818152602001828054612d4090613557565b8015612d8d5780601f10612d6257610100808354040283529160200191612d8d565b820191906000526020600020905b815481529060010190602001808311612d7057829003601f168201915b5050505050905081604051602001612da59190613901565b6040516020818303038152906040528051906020012081604051602001612dcc9190613901565b6040516020818303038152906040528051906020012014612e685781612df0612f05565b600201600085600160a060020a0316600160a060020a031681526020019081526020016000209080519060200190612e299291906130e9565b507f956cac7563aec785f30b680b47233cb635844cd3f2a1a24c87f96b9b7d4e754483828433604051612e5f949392919061391d565b60405180910390a15b505050565b80612e76612f05565b6007015550565b6000612e8882612fb5565b156119df575090565b600160a060020a0383166000908152600080516020613968833981519152602052612ebd848484612ff3565b60408051600160a060020a038087168252851660208201529081018390527fc0d84ce5c7ff9ca21adb0f8436ff3f4951b4bb78c4e2fae2b6837958b3946ffd90606001612c02565b7f84d6a4597c1933575f1026ccae683d8d7059c2fe21797bd5217915ddf82f909c90565b600080612f34612f05565b600160a060020a0393841660009081526020919091526040902054909216909114919050565b6000612f64612f05565b600160a060020a039092166000908152600192909201602052506040902054151590565b6000612f92612f05565b600160a060020a0390921660009081526001929092016020525060409020541590565b600080612fc0612f05565b600160a060020a038085166000908152602092909252604090912054161415612feb57506001919050565b506000919050565b600160a060020a03831660009081526000805160206139688339815191526020526040812080548392906130289084906137df565b9091555050600160a060020a038216600090815260008051602061396883398151915260205260408120805483929061306290849061389b565b909155505060408051600160a060020a038086168252841660208201529081018290527f4a5c454a446a516f4491813074ec78cf8cd5e34c2514911f982db1ef8ac0fef390606001612e5f565b5080546130bb90613557565b6000825580601f106130cb575050565b601f016020900490600052602060002090810190610b51919061316d565b8280546130f590613557565b90600052602060002090601f016020900481019282613117576000855561315d565b82601f1061313057805160ff191683800117855561315d565b8280016001018555821561315d579182015b8281111561315d578251825591602001919060010190613142565b5061316992915061316d565b5090565b5b80821115613169576000815560010161316e565b60005b8381101561319d578181015183820152602001613185565b8381111561107a5750506000910152565b600081518084526131c6816020860160208601613182565b601f01601f19169290920160200192915050565b6020815260006131ed60208301846131ae565b9392505050565b600160a060020a0381168114610b5157600080fd5b60008060006060848603121561321e57600080fd5b8335613229816131f4565b95602085013595506040909401359392505050565b6000806040838503121561325157600080fd5b823561325c816131f4565b946020939093013593505050565b60006020828403121561327c57600080fd5b5035919050565b60006020828403121561329557600080fd5b81356131ed816131f4565b60e060020a634e487b7102600052604160045260246000fd5b600067ffffffffffffffff808411156132d4576132d46132a0565b604051601f8501601f19908116603f011681019082821181831017156132fc576132fc6132a0565b8160405280935085815286868601111561331557600080fd5b858560208301376000602087830101525050509392505050565b600082601f83011261334057600080fd5b6131ed838335602085016132b9565b6000806040838503121561336257600080fd5b823561336d816131f4565b9150602083013567ffffffffffffffff81111561338957600080fd5b6133958582860161332f565b9150509250929050565b600080604083850312156133b257600080fd5b82356133bd816131f4565b915060208301356133cd816131f4565b809150509250929050565b6000806000606084860312156133ed57600080fd5b83356133f8816131f4565b925060208401359150604084013567ffffffffffffffff81111561341b57600080fd5b8401601f8101861361342c57600080fd5b61343b868235602084016132b9565b9150509250925092565b6000806000806080858703121561345b57600080fd5b8435613466816131f4565b966020860135965060408601359560600135945092505050565b8015158114610b5157600080fd5b600080600080608085870312156134a457600080fd5b843567ffffffffffffffff8111156134bb57600080fd5b6134c78782880161332f565b9450506020850135925060408501356134df81613480565b9396929550929360600135925050565b6000806040838503121561350257600080fd5b50508035926020909101359150565b6000806000806080858703121561352757600080fd5b8435613532816131f4565b93506020850135613542816131f4565b93969395505050506040820135916060013590565b60028104600182168061356b57607f821691505b6020821081141561358f5760e060020a634e487b7102600052602260045260246000fd5b50919050565b6000602082840312156135a757600080fd5b81516131ed81613480565b60208082526016908201527f6f66666572696e67206973206e6f742061637469766500000000000000000000604082015260600190565b6020808252601e908201527f686f6c64696e6720706572696f6420686173206e6f7420657870697265640000604082015260600190565b60e060020a634e487b7102600052601160045260246000fd5b6000826136595760e060020a634e487b7102600052601260045260246000fd5b500490565b600160a060020a0394909416845260208401929092526040830152606082015260800190565b60006020828403121561369657600080fd5b5051919050565b60008160001904831182151516156136b7576136b7613620565b500290565b60208082526024908201527f6163636573732064656e69656420666f7220746865207472616e73666572206160408201527f67656e7400000000000000000000000000000000000000000000000000000000606082015260800190565b60208082526029908201527f28616464566572696669656429202d20696e766573746f7220616c726561647960408201527f2076657269666965640000000000000000000000000000000000000000000000606082015260800190565b60208082526018908201527f696e766573746f72206973206e6f742076657269666965640000000000000000604082015260600190565b8381526060602082015260006137c660608301856131ae565b9050600160a060020a0383166040830152949350505050565b600082198211156137f2576137f2613620565b500190565b60008251613809818460208701613182565b7f2068617320737461727465640000000000000000000000000000000000000000920191825250600c01919050565b60408152600061384b60408301856131ae565b90508260208301529392505050565b6000825161386c818460208701613182565b7f206861732073746f707065640000000000000000000000000000000000000000920191825250600c01919050565b6000828210156138ad576138ad613620565b500390565b60e060020a634e487b7102600052603260045260246000fd5b6000600160a060020a038086168352606060208401526138ee60608401866131ae565b9150808416604084015250949350505050565b60008251613913818460208701613182565b9190910192915050565b6000600160a060020a0380871683526080602084015261394060808401876131ae565b838103604085015261395281876131ae565b9250508084166060840152509594505050505056fe9ce25e1144afcae8c0e64aa04f61adef5dcaf2f72b7efdf41d46270ad83d32d7a2646970667358221220043226f878e38b4c2008269c705a9078d9705ba4808180abae63ec3ac8a8520f64736f6c634300080a0033",
  "immutableReferences": {},
  "source": "// SPDX-License-Identifier: CC-BY-4.0\npragma solidity >=0.4.22 <0.9.0;\n\n/**\n * Rule 506(c)\n * -----------\n * See https://www.sec.gov/smallbusiness/exemptofferings/rule506c\n *\n * Rule 506(c) permits issuers to broadly solicit and generally advertise an offering, provided that:\n *\n *  - all purchasers in the offering are accredited investors\n *  - the issuer takes reasonable steps to verify purchasers accredited investor status and\n *  - certain other conditions in Regulation D are satisfied\n *\n * Purchasers in a Rule 506(c) offering receive restricted securities. A company is required to file a notice with the Commission on Form D within 15 days\n * after the first sale of securities in the offering. Although the Securities Act provides a federal preemption from state registration and qualification under\n * Rule 506(c), the states still have authority to require notice filings and collect state fees.\n */\n \nimport \"../Owned.sol\";\nimport \"../Version.sol\";\nimport \"../Frozen.sol\";\nimport \"../Account.sol\";\nimport \"../Shareholder.sol\";\nimport \"../TransferAgent.sol\";\n\ncontract ExemptEquityOffering506C is Version, Frozen, TransferAgent {\n\n    uint public constant INITIAL_SUPPLY = 100000;\n\n    string public name      = \"Rule 506(c) Token\";\n    string public symbol    = \"TOKEN.506C\";\n    \n    uint8  public constant decimals = 0;\n    \n    uint256 public sharesOustanding = 0;\n    uint256 public marketCap        = 0;\n\n    uint256 private parValue = 0;\n\n    uint private year = 52 weeks;\n\n    event Bought(address sender, uint256 value, uint256 epoch);\n    event Sold(address sender, uint256 value, uint256 epoch);\n\n    constructor()\n        payable\n    {\n        TransferAgent.setParValue(address(this), parValue);\n    }\n\n\n    function balanceOf(address addr)\n      public\n      payable\n      returns (uint256)\n    {\n      return Account.balanceOf(addr);\n    }\n\n    function buy(uint256 amount, uint256 epoch)\n        public\n        payable\n    {\n        require(ActiveOffering.isActive(),\"offering is not active\");\n        require(Shareholder.isVerifiedAddress(msg.sender),\"investor is not verified\");\n        require(amount > 0, \"You need to send some ether\");\n        require(amount <= sharesOustanding, \"Not enough shares in the reserve\");\n\n        transfer(msg.sender, amount, epoch);\n        emit Bought(msg.sender,amount,epoch);\n    }\n\n    function sell(address payable sender,uint256 amount,uint256 epoch)\n        public\n        payable\n    {\n        require(ActiveOffering.isActive(),\"offering is not active\");\n        require(Shareholder.isVerifiedAddress(sender),\"investor is not verified\");\n        require(Transaction.isHoldingPeriodOver(sender),\"holding period has not expired\");\n        require(amount > 0, \"You need to sell at least some tokens\");\n        uint256 __allowance = allowance(msg.sender, address(this));\n        require(__allowance >= amount, \"Check the token allowance\");\n        transferFrom(sender, address(this), amount, epoch);\n\n        emit Sold(sender,amount,epoch);\n    }\n\n}\n",
  "sourcePath": "G:\\projects\\pingleware-contracts\\contracts\\equity\\ExemptEquityOffering506C.sol",
  "compiler": {
    "name": "solc",
    "version": "0.8.10+commit.fc410830.Emscripten.clang"
  },
  "schemaVersion": "3.4.3",
  "updatedAt": "2021-12-24T16:15:20.352Z",
  "devdoc": {
    "kind": "dev",
    "methods": {
      "addVerified(address,string)": {
        "params": {
          "addr": "The address of the person represented by the supplied hash.",
          "hash": "A cryptographic hash of the address holder's verified information."
        }
      },
      "cancelAndReissue(address,address)": {
        "params": {
          "original": "The address to be superseded. This address MUST NOT be reused.",
          "replacement": "The address  that supersedes the original. This address MUST be verified."
        }
      },
      "getCurrentFor(address)": {
        "params": {
          "addr": "The superseded address."
        },
        "returns": {
          "_0": "the verified address that ultimately holds the share."
        }
      },
      "holderAt(uint256)": {
        "params": {
          "index": "The zero-based index of the holder."
        },
        "returns": {
          "_0": "the address of the token holder with the given index."
        }
      },
      "holderCount()": {
        "returns": {
          "_0": "the number of unique addresses that own tokens."
        }
      },
      "isSuperseded(address)": {
        "params": {
          "addr": "The address to check."
        },
        "returns": {
          "_0": "true if the supplied address was superseded by another address."
        }
      },
      "isVerified(address)": {
        "params": {
          "addr": "The address to test."
        },
        "returns": {
          "_0": "true if the address is known to the contract."
        }
      },
      "mint(address,uint256,uint256,uint256)": {
        "params": {
          "_amount": "The amount of tokens to mint.",
          "_to": "The address that will receive the minted tokens."
        },
        "returns": {
          "_0": "A boolean that indicates if the operation was successful."
        }
      },
      "removeVerified(address)": {
        "params": {
          "addr": "The verified address to be removed."
        }
      },
      "updateVerified(address,string)": {
        "params": {
          "addr": "The verified address of the person represented by the supplied hash.",
          "hash": "A new cryptographic hash of the address holder's updated verified information."
        }
      }
    },
    "version": 1
  },
  "userdoc": {
    "kind": "user",
    "methods": {
      "addShareholder(address,uint256)": {
        "notice": "Shareholder level:    1 = non-accredited shareholder    2 = accredited shareholder    3 = affiliate shareholder "
      },
      "addVerified(address,string)": {
        "notice": "Add a verified address, along with an associated verification hash to the contract.  Upon successful addition of a verified address, the contract must emit  `VerifiedAddressAdded(addr, hash, msg.sender)`.  It MUST throw if the supplied address or hash are zero, or if the address has already been supplied."
      },
      "cancelAndReissue(address,address)": {
        "notice": "Cancel the original address and reissue the Tokens to the replacement address.  Access to this function MUST be strictly controlled.  The `original` address MUST be removed from the set of verified addresses.  Throw if the `original` address supplied is not a shareholder.  Throw if the replacement address is not a verified address.  This function MUST emit the `VerifiedAddressSuperseded` event."
      },
      "getCurrentFor(address)": {
        "notice": "Gets the most recent address, given a superseded one.  Addresses may be superseded multiple times, so this function needs to  follow the chain of addresses until it reaches the final, verified address."
      },
      "holderAt(uint256)": {
        "notice": "By counting the number of token holders using `holderCount`  you can retrieve the complete list of token holders, one at a time.  It MUST throw if `index >= holderCount()`."
      },
      "holderCount()": {
        "notice": "The number of addresses that own tokens."
      },
      "isSuperseded(address)": {
        "notice": "Checks to see if the supplied address was superseded."
      },
      "isVerified(address)": {
        "notice": "Tests that the supplied address is known to the contract."
      },
      "mint(address,uint256,uint256,uint256)": {
        "notice": "As each token is minted it is added to the shareholders array."
      },
      "removeVerified(address)": {
        "notice": "Remove a verified address, and the associated verification hash. If the address is  unkblock.timestampn to the contract then this does nothing. If the address is successfully removed, this  function must emit `VerifiedAddressRemoved(addr, msg.sender)`.  It MUST throw if an attempt is made to remove a verifiedAddress that owns Tokens."
      },
      "transfer(address,uint256,uint256)": {
        "notice": "The `transfer` function MUST NOT allow transfers to addresses that  have not been verified and added to the contract.  If the `to` address is not currently a shareholder then it MUST become one.  If the transfer will reduce `msg.sender`'s balance to 0 then that address  MUST be removed from the list of shareholders."
      },
      "transferFrom(address,address,uint256,uint256)": {
        "notice": "The `transferFrom` function MUST NOT allow transfers to addresses that  have not been verified and added to the contract.  If the `to` address is not currently a shareholder then it MUST become one.  If the transfer will reduce `from`'s balance to 0 then that address  MUST be removed from the list of shareholders."
      },
      "updateVerified(address,string)": {
        "notice": "Update the hash for a verified address known to the contract.  Upon successful update of a verified address the contract must emit  `VerifiedAddressUpdated(addr, oldHash, hash, msg.sender)`.  If the hash is the same as the value already stored then  no `VerifiedAddressUpdated` event is to be emitted.  It MUST throw if the hash is zero, or if the address is unverified."
      }
    },
    "version": 1
  }
}