{
  "contractName": "ExemptDebtOfferingStaking",
  "abi": [
    {
      "inputs": [
        {
          "internalType": "address",
          "name": "transaction_contract",
          "type": "address"
        },
        {
          "internalType": "uint256",
          "name": "_interest",
          "type": "uint256"
        },
        {
          "internalType": "uint256",
          "name": "_initial_supply",
          "type": "uint256"
        }
      ],
      "stateMutability": "nonpayable",
      "type": "constructor"
    },
    {
      "anonymous": false,
      "inputs": [
        {
          "indexed": false,
          "internalType": "address",
          "name": "sender",
          "type": "address"
        },
        {
          "indexed": false,
          "internalType": "uint256",
          "name": "amount",
          "type": "uint256"
        }
      ],
      "name": "FallbackEvent",
      "type": "event"
    },
    {
      "anonymous": false,
      "inputs": [
        {
          "indexed": false,
          "internalType": "address",
          "name": "account",
          "type": "address"
        },
        {
          "indexed": false,
          "internalType": "uint256",
          "name": "amount",
          "type": "uint256"
        }
      ],
      "name": "Minted",
      "type": "event"
    },
    {
      "anonymous": false,
      "inputs": [
        {
          "indexed": true,
          "internalType": "address",
          "name": "previousOwner",
          "type": "address"
        },
        {
          "indexed": true,
          "internalType": "address",
          "name": "newOwner",
          "type": "address"
        }
      ],
      "name": "OwnershipTransferred",
      "type": "event"
    },
    {
      "anonymous": false,
      "inputs": [
        {
          "indexed": false,
          "internalType": "address",
          "name": "sender",
          "type": "address"
        },
        {
          "indexed": false,
          "internalType": "uint256",
          "name": "amount",
          "type": "uint256"
        }
      ],
      "name": "ReceiveEvent",
      "type": "event"
    },
    {
      "anonymous": false,
      "inputs": [
        {
          "indexed": false,
          "internalType": "address",
          "name": "receiver",
          "type": "address"
        },
        {
          "indexed": false,
          "internalType": "address",
          "name": "account",
          "type": "address"
        },
        {
          "indexed": false,
          "internalType": "uint256",
          "name": "amount",
          "type": "uint256"
        }
      ],
      "name": "Transfer",
      "type": "event"
    },
    {
      "stateMutability": "payable",
      "type": "fallback"
    },
    {
      "inputs": [],
      "name": "CUSIP",
      "outputs": [
        {
          "internalType": "string",
          "name": "",
          "type": "string"
        }
      ],
      "stateMutability": "view",
      "type": "function"
    },
    {
      "inputs": [],
      "name": "ISIN",
      "outputs": [
        {
          "internalType": "string",
          "name": "",
          "type": "string"
        }
      ],
      "stateMutability": "view",
      "type": "function"
    },
    {
      "inputs": [],
      "name": "VERSION",
      "outputs": [
        {
          "internalType": "string",
          "name": "",
          "type": "string"
        }
      ],
      "stateMutability": "view",
      "type": "function"
    },
    {
      "inputs": [],
      "name": "WAIT",
      "outputs": [
        {
          "internalType": "uint256",
          "name": "",
          "type": "uint256"
        }
      ],
      "stateMutability": "view",
      "type": "function"
    },
    {
      "inputs": [],
      "name": "_availableTokens",
      "outputs": [
        {
          "internalType": "uint256",
          "name": "",
          "type": "uint256"
        }
      ],
      "stateMutability": "view",
      "type": "function"
    },
    {
      "inputs": [
        {
          "internalType": "address",
          "name": "",
          "type": "address"
        }
      ],
      "name": "_balances",
      "outputs": [
        {
          "internalType": "uint256",
          "name": "",
          "type": "uint256"
        }
      ],
      "stateMutability": "view",
      "type": "function"
    },
    {
      "inputs": [
        {
          "internalType": "address",
          "name": "",
          "type": "address"
        }
      ],
      "name": "_tokens",
      "outputs": [
        {
          "internalType": "uint256",
          "name": "",
          "type": "uint256"
        }
      ],
      "stateMutability": "view",
      "type": "function"
    },
    {
      "inputs": [],
      "name": "_totalInvested",
      "outputs": [
        {
          "internalType": "uint256",
          "name": "",
          "type": "uint256"
        }
      ],
      "stateMutability": "view",
      "type": "function"
    },
    {
      "inputs": [],
      "name": "_totalSupply",
      "outputs": [
        {
          "internalType": "uint256",
          "name": "",
          "type": "uint256"
        }
      ],
      "stateMutability": "view",
      "type": "function"
    },
    {
      "inputs": [],
      "name": "getOwner",
      "outputs": [
        {
          "internalType": "address",
          "name": "",
          "type": "address"
        }
      ],
      "stateMutability": "payable",
      "type": "function"
    },
    {
      "inputs": [],
      "name": "interest",
      "outputs": [
        {
          "internalType": "uint256",
          "name": "",
          "type": "uint256"
        }
      ],
      "stateMutability": "view",
      "type": "function"
    },
    {
      "inputs": [],
      "name": "interest_payment_interval",
      "outputs": [
        {
          "internalType": "uint256",
          "name": "",
          "type": "uint256"
        }
      ],
      "stateMutability": "view",
      "type": "function"
    },
    {
      "inputs": [],
      "name": "maximumOffering",
      "outputs": [
        {
          "internalType": "uint256",
          "name": "",
          "type": "uint256"
        }
      ],
      "stateMutability": "view",
      "type": "function"
    },
    {
      "inputs": [],
      "name": "minimumInvestment",
      "outputs": [
        {
          "internalType": "uint256",
          "name": "",
          "type": "uint256"
        }
      ],
      "stateMutability": "view",
      "type": "function"
    },
    {
      "inputs": [],
      "name": "name",
      "outputs": [
        {
          "internalType": "string",
          "name": "",
          "type": "string"
        }
      ],
      "stateMutability": "view",
      "type": "function"
    },
    {
      "inputs": [],
      "name": "renounceOwnership",
      "outputs": [],
      "stateMutability": "payable",
      "type": "function"
    },
    {
      "inputs": [],
      "name": "symbol",
      "outputs": [
        {
          "internalType": "string",
          "name": "",
          "type": "string"
        }
      ],
      "stateMutability": "view",
      "type": "function"
    },
    {
      "inputs": [
        {
          "internalType": "address",
          "name": "newOwner",
          "type": "address"
        }
      ],
      "name": "transferOwnership",
      "outputs": [],
      "stateMutability": "payable",
      "type": "function"
    },
    {
      "stateMutability": "payable",
      "type": "receive"
    },
    {
      "inputs": [],
      "name": "getTotalOffering",
      "outputs": [
        {
          "internalType": "uint256",
          "name": "",
          "type": "uint256"
        }
      ],
      "stateMutability": "view",
      "type": "function"
    },
    {
      "inputs": [
        {
          "internalType": "address",
          "name": "_address",
          "type": "address"
        }
      ],
      "name": "isStakeholder",
      "outputs": [
        {
          "internalType": "bool",
          "name": "",
          "type": "bool"
        },
        {
          "internalType": "uint256",
          "name": "",
          "type": "uint256"
        }
      ],
      "stateMutability": "view",
      "type": "function"
    },
    {
      "inputs": [
        {
          "internalType": "address",
          "name": "_stakeholder",
          "type": "address"
        }
      ],
      "name": "addStakeholder",
      "outputs": [],
      "stateMutability": "payable",
      "type": "function"
    },
    {
      "inputs": [
        {
          "internalType": "address",
          "name": "_stakeholder",
          "type": "address"
        }
      ],
      "name": "removeStakeholder",
      "outputs": [],
      "stateMutability": "payable",
      "type": "function"
    },
    {
      "inputs": [],
      "name": "getStakeholders",
      "outputs": [
        {
          "internalType": "address[]",
          "name": "",
          "type": "address[]"
        }
      ],
      "stateMutability": "view",
      "type": "function"
    },
    {
      "inputs": [],
      "name": "getStakeholderCount",
      "outputs": [
        {
          "internalType": "uint256",
          "name": "",
          "type": "uint256"
        }
      ],
      "stateMutability": "view",
      "type": "function"
    },
    {
      "inputs": [
        {
          "internalType": "address",
          "name": "_stakeholder",
          "type": "address"
        }
      ],
      "name": "stakeOf",
      "outputs": [
        {
          "internalType": "uint256",
          "name": "",
          "type": "uint256"
        }
      ],
      "stateMutability": "view",
      "type": "function"
    },
    {
      "inputs": [],
      "name": "totalStakes",
      "outputs": [
        {
          "internalType": "uint256",
          "name": "",
          "type": "uint256"
        }
      ],
      "stateMutability": "view",
      "type": "function"
    },
    {
      "inputs": [
        {
          "internalType": "uint256",
          "name": "epoch",
          "type": "uint256"
        }
      ],
      "name": "createStake",
      "outputs": [],
      "stateMutability": "payable",
      "type": "function"
    },
    {
      "inputs": [
        {
          "internalType": "uint256",
          "name": "epoch",
          "type": "uint256"
        }
      ],
      "name": "removeStake",
      "outputs": [],
      "stateMutability": "payable",
      "type": "function"
    },
    {
      "inputs": [
        {
          "internalType": "address",
          "name": "_stakeholder",
          "type": "address"
        }
      ],
      "name": "rewardOf",
      "outputs": [
        {
          "internalType": "uint256",
          "name": "",
          "type": "uint256"
        }
      ],
      "stateMutability": "view",
      "type": "function"
    },
    {
      "inputs": [],
      "name": "totalRewards",
      "outputs": [
        {
          "internalType": "uint256",
          "name": "",
          "type": "uint256"
        }
      ],
      "stateMutability": "view",
      "type": "function"
    },
    {
      "inputs": [
        {
          "internalType": "address",
          "name": "_stakeholder",
          "type": "address"
        },
        {
          "internalType": "uint256",
          "name": "epoch",
          "type": "uint256"
        }
      ],
      "name": "calculateReward",
      "outputs": [
        {
          "internalType": "uint256",
          "name": "",
          "type": "uint256"
        }
      ],
      "stateMutability": "payable",
      "type": "function"
    },
    {
      "inputs": [
        {
          "internalType": "uint256",
          "name": "epoch",
          "type": "uint256"
        }
      ],
      "name": "distributeRewards",
      "outputs": [],
      "stateMutability": "payable",
      "type": "function"
    },
    {
      "inputs": [
        {
          "internalType": "uint256",
          "name": "epoch",
          "type": "uint256"
        }
      ],
      "name": "withdrawReward",
      "outputs": [],
      "stateMutability": "nonpayable",
      "type": "function"
    },
    {
      "inputs": [
        {
          "internalType": "uint256",
          "name": "epoch",
          "type": "uint256"
        }
      ],
      "name": "withdrawTokens",
      "outputs": [],
      "stateMutability": "nonpayable",
      "type": "function"
    }
  ],
  "bytecode": "0x6080346100c2576117b280380390601f19601f83011683019183831067ffffffffffffffff8411176100c7578084926060946040528339810103126100c2578051600160a060020a038116908190036100c25760406020830151920151600160a060020a0319906000903383835416178255426001556040519433837f8be0079c531659141344cd1fd0a4f28419497f9722a3daafe3b4186f6b6457e08180a3611388600355600555600455600655600c541617600c556116bb90816100f78239f35b600080fd5b7f4e487b7100000000000000000000000000000000000000000000000000000000600052604160045260246000fdfe6080604090808252600490813610156100c8575b50361561009957333203610055577f26875833861a2b006512a11f1b86edf95df96131040f3caeed72989ee9858083825180610050343383611250565b0390a1005b6020606492519160e560020a62461bcd02835282015260196024820152603860020a787068697368696e672061747461636b2064657465637465643f026044820152fd5b7fcc85d09d309785db93d6df19917f2e6cc07fe27cd01c08c8279145deb5cf4526825180610050343383611250565b60009060e060020a82350490630393849782146110c4575080630421d964146110a557806306f416461461106d57806306fdde03146110285780630e15561a14610fb55780631852e8d914610f8a5780631bf6ddae14610cf45780631d62ebd914610cbc5780632b925b2514610c9f578063315a095d14610a9957806335de76fa14610a7a5780633eaaf86b14610a5b5780634262336014610a23578063523a3f08146109e757806359974e38146108da57806365b3c83b146108bc5780636de1ef291461089e5780636ebcf60714610866578063715018a614610821578063893d20e8146107c1578063937a105a14610388578063939624ab1461072757806395d89b41146106e2578063b3f55e4e14610699578063b6992247146105c0578063b8fb3a51146105a4578063bcb0c2d7146104cd578063bf9befb114610444578063c392f76614610425578063e5c42fd11461038d578063ea303f6b14610388578063ef037b9014610353578063f2fde38b146102965763ffa1ad7403610013578234610292578160031936011261029257805161028e9161026a82611128565b600a825260b060020a69312e362e342d626574610260208301525191829182611143565b0390f35b5080fd5b509190602036600319011261034f576102ad6110e0565b835491600160a060020a03808416926102c733851461126b565b169384156102f557505082906000805160206116468339815191528580a3600160a060020a03191617815580f35b5160e560020a62461bcd028152602091810191909152602660248201527f4f776e61626c653a206e6577206f776e657220697320746865207a65726f2061604482015260d060020a65646472657373026064820152608490fd5b8280fd5b83823461038557602036600319011261038557506103776103726110e0565b6112ec565b825191151582526020820152f35b80fd5b61118c565b50826020366003190112610292576103cd6103a66110e0565b916103bc600160a060020a03855416331461126b565b338452600a6020528320541561135d565b6103d6816112ec565b50156103e0575080f35b60095492604060020a84101561040f575061040583600161040b9495016009556112b7565b9061139c565b8080f35b60e060020a634e487b7102835260419052602482fd5b5082346102925781600319360112610292576020906005549051908152f35b5082346102925781600319360112610292578180600954945b85831061046e576020858551908152f35b9091936104a49061047e866112b7565b9054600890910260020a9004600160a060020a03168452600a60205284842054906111e4565b93600181018091116104b757919061045d565b60e060020a634e487b7102835260118252602483fd5b50906020366003190112610292576104e36110e0565b8254600160a060020a03929161050091610372908516331461126b565b919061050a578380f35b600954600019929083810190811161058e576008856105489361052f610538946112b7565b949054916112b7565b9390940260020a9004169161139c565b6009549081156105785750019061055e826112b7565b909160088354920260020a02191690556009558180808380f35b60e060020a634e487b7102855260319052602484fd5b60e060020a634e487b7102865260118352602486fd5b50823461029257816003193601126102925760209051601e8152f35b508290346103855780600319360112610385578151809160095493848352602080930180956009845284842090845b8682821061067c5750505050849003601f01601f19168401956001604060020a03871185881017610662575085815282865292518583018190528594938501939290915b82811061064257505050500390f35b8351600160a060020a031685528695509381019392810192600101610633565b60e060020a634e487b710260009081526041909152602490fd5b8354600160a060020a0316855290930192600192830192016105ef565b5082346102925781600319360112610292578254916103e8928381029381850414901517156106cc576020838351908152f35b60e060020a634e487b7102815260118452602490fd5b508234610292578160031936011261029257805161028e9161070382611128565b600a825260b160020a692222a12a172a27a5a2a70260208301525191829182611143565b5091602036600319011261034f57610747610741336112ec565b506113d2565b338352600a602052808320541561078a579061078791338452600a6020526107738185205434906113c5565b90338552600a60205284205535343361145f565b80f35b5160e560020a62461bcd0281526020918101919091526009602482015260b860020a686e6f207374616b6573026044820152606490fd5b508083916003193601126103855760015492601e840180941161080b57506107f560209342116107f08161120b565b61120b565b42600155549051600160a060020a039091168152f35b60e060020a634e487b7102825260119052602490fd5b508060031936011261038557805481600160a060020a03821661084533821461126b565b6000805160206116468339815191528280a3600160a060020a031916815580f35b508234610292576020366003190112610292576020918190600160a060020a0361088e6110e0565b1681526007845220549051908152f35b50823461029257816003193601126102925760209051624c4b408152f35b5082346102925781600319360112610292576020905162278d008152f35b50906020928360031936011261034f578254600160a060020a039483359291610906908716331461126b565b845b6009548110156109e35786600861091e836112b7565b9054910260020a90041661093285826115a3565b90808852610948600b92838652868a20546111e4565b918189528452818589205588600c541690813b156109df5788918391838a6109878b8b519889978896879560e060020a63590c4ef90287528601611418565b03925af180156109d5579087916109bd575b505060018101809111156109085760e060020a634e487b7102865260118552602486fd5b6109c6906110fb565b6109d1578538610999565b8580fd5b84513d89823e3d90fd5b8880fd5b8580f35b5091903461034f57602036600319011261034f5761078791610a0b610741336112ec565b338452600b602052832090838254925535903361145f565b508234610292576020366003190112610292576020918190600160a060020a03610a4b6110e0565b168152600a845220549051908152f35b5091903461034f578260031936011261034f5760209250549051908152f35b5082346102925781600319360112610292576020906006549051908152f35b509034610292576020928360031936011261034f57813591610abd610741336112ec565b610ac9610741336112ec565b338452600b8552610ae28383862086815491553361145f565b338452600885528184205415610c60573384526008855281842084815491556007865282852054903031821015610c1a57338652600787528386205415610bd457600786973388525285848120558580838015610bca575b8280929181923390f115610bc057610b54826006546113c5565b600655600c54600160a060020a031690813b15610bbc57868094610b9087519889968795869460e060020a63590c4ef902865233908601611418565b03925af1908115610bb35750610ba35750f35b610bac906110fb565b6103855780f35b513d84823e3d90fd5b8680fd5b83513d87823e3d90fd5b6108fc9150610b3a565b835160e560020a62461bcd028152808401889052601c60248201527f696e73756666696369656e74206163636f756e742062616c616e6365000000006044820152606490fd5b835160e560020a62461bcd028152808401889052601d60248201527f696e73756666696369656e7420636f6e74726163742062616c616e63650000006044820152606490fd5b905160e560020a62461bcd02815290810184905260136024820152606860020a726e6f20746f6b656e7320617661696c61626c65026044820152606490fd5b508234610292578160031936011261029257602090516103e88152f35b508234610292576020366003190112610292576020918190600160a060020a03610ce46110e0565b168152600b845220549051908152f35b509160209182600319360112610f86576103e8803410610f3057624c4b40610d1e346006546111e4565b1015610edc57610d30610741336112ec565b338552600a8452610d44838620541561135d565b3315610e95573385526007845282852054348110610e4f579085913383526007865234900384832055610d79346006546111e4565b6006553404610d898184546113c5565b835533825260088552838220610da08282546111e4565b9055600c54600160a060020a0316803b1561034f57845160e060020a63590c4ef9028152938492839185918391610de09181359134919033908601611418565b03925af18015610e4557610e32575b50600080516020611666833981519152815180610e0e3430338461143d565b0390a1338352600a8252600a610e2734838620546111e4565b923385525282205580f35b610e3e909391936110fb565b9138610def565b82513d86823e3d90fd5b835160e560020a62461bcd028152808401869052601b60248201527f6275726e20616d6f756e7420657863656564732062616c616e636500000000006044820152606490fd5b50905160e560020a62461bcd028152908101829052601a60248201527f6275726e2066726f6d20746865207a65726f20616464726573730000000000006044820152606490fd5b50905160e560020a62461bcd028152908101829052602160248201527f6d6178696d756d206f66666572696e6720686173206265656e20726561636865604482015260fa60020a6019026064820152608490fd5b50905160e560020a62461bcd0281529081018290526024808201527f646f6573206e6f74206d65657420746865206d696e696d756d20696e76657374604482015260e260020a631b595b9d026064820152608490fd5b8380fd5b50828060031936011261029257602090610fae610fa56110e0565b602435906115a3565b9051908152f35b5082346102925781600319360112610292578180600954945b858310610fdf576020858551908152f35b90919361101590610fef866112b7565b9054600890910260020a9004600160a060020a03168452600b60205284842054906111e4565b93600181018091116104b7579190610fce565b508234610292578160031936011261029257805161028e9161104982611128565b600a825260b160020a692222a12a102a27a5a2a70260208301525191829182611143565b508234610292576020366003190112610292576020918190600160a060020a036110956110e0565b1681526008845220549051908152f35b5082346102925781600319360112610292576020906009549051908152f35b9050346102925781600319360112610292576020906003548152f35b60043590600160a060020a03821682036110f657565b600080fd5b6001604060020a03811161110e57604052565b60e060020a634e487b710260009081526041600452602490fd5b604081019081106001604060020a0382111761110e57604052565b6020808252825181830181905290939260005b82811061117857505060409293506000838284010152601f8019910116010190565b818101860151848201604001528501611156565b346110f65760008060031936011261038557604051602081016001604060020a038111828210176111cd579161028e92604052815260405191829182611143565b60e060020a634e487b710283526041600452602483fd5b919082018092116111f157565b60e060020a634e487b710260009081526011600452602490fd5b1561121257565b60405160e560020a62461bcd0281526020600482015260106024820152608160020a6f3930ba32903634b6b4ba1032b93937b9026044820152606490fd5b600160a060020a039091168152602081019190915260400190565b1561127257565b60405160e560020a62461bcd0281526020600482015260176024820152604960020a7630b1b1b2b9b9903232b734b2b2103337b91037bbb732b9026044820152606490fd5b6009548110156112d257600960005260206000200190600090565b60e060020a634e487b710260009081526032600452602490fd5b600954919060005b8381106113075750509050600090600090565b6008611312826112b7565b9054600160a060020a038581169390920260020a900416146113545760018101809111156112f45760e060020a634e487b710260009081526011600452602490fd5b92505060019190565b1561136457565b60405160e560020a62461bcd02815260206004820152600a602482015260b060020a69686173207374616b6573026044820152606490fd5b8054600160a060020a03600890930260020a838102801990921693909416909302909216179055565b919082039182116111f157565b156113d957565b60405160e560020a62461bcd0281526020600482015260116024820152607960020a703737ba10309039ba30b5b2b437b63232b9026044820152606490fd5b909493926060926080830196600160a060020a03168352602083015260408201520152565b600160a060020a03918216815291166020820152604081019190915260600190565b600160a060020a039392848216801561155d576103e8840491611484836004546111e4565b600455600096879283526007602052604083206114a28782546111e4565b9055600c5416803b1561034f5760405160e060020a63590c4ef90281529384928391859183916114d991908b908b60048601611418565b03925af18015611552577f30385c845b448a36257a6a1716e6ad2e1bc2cbe333cde1e69fe849ad6511adfe949550611543575b506000805160206116668339815191526040518061152c8585308461143d565b0390a161153e60405192839283611250565b0390a1565b61154c906110fb565b3861150c565b6040513d87823e3d90fd5b60405160e560020a62461bcd0281526020600482015260186024820152604060020a776d696e7420746f20746865207a65726f2061646472657373026044820152606490fd5b600054600160a060020a039262278d00916115c1908516331461126b565b106115fd5716600052600a6020526040600020546005549081156115e3570490565b60e060020a634e487b710260009081526012600452602490fd5b60405160e560020a62461bcd02815260206004820152601c60248201527f696e746572657374207061796d656e7420697320746f6f20736f6f6e000000006044820152606490fdfe8be0079c531659141344cd1fd0a4f28419497f9722a3daafe3b4186f6b6457e0ddf252ad1be2c89b69c2b068fc378daa952ba7f163c4a11628f55a4df523b3efa2646970667358221220f5db8a8b7e5f6110cd740773e9ca3c4acc2b1ee26008b39b9c998c2c31c8a18164736f6c63430008120033",
  "immutableReferences": {},
  "source": "// SPDX-License-Identifier: CC-BY-4.0\r\npragma solidity >=0.4.22 <0.9.0;\r\n\r\nimport \"../../common/Version.sol\";\r\nimport \"../../common/Owned.sol\";\r\nimport \"../../interfaces/ITransaction.sol\";\r\n\r\n/**\r\n * Mechanics of a Private Placement Debt Offering\r\n * ----------------------------------------------\r\n * Using a DAPP to qualify an accredited investor, and accept monetary investment, then mint an equal token amount for the investor.\r\n * Using the staking algorithm, to create reward tokens equal to interest payments\r\n */\r\n\r\ncontract ExemptDebtOfferingStaking is Version, Owned {\r\n    string public constant name = \"DEBT TOKEN\";\r\n    string public constant symbol = \"DEBT.TOKEN\";\r\n    string public constant CUSIP = \"\";\r\n    string public constant ISIN = \"\";\r\n\r\n    uint256 public constant minimumInvestment = 1000;\r\n    uint256 public constant maximumOffering = 5000000;\r\n\r\n    uint256 public _availableTokens;\r\n    uint256 public _totalSupply;\r\n    uint    public interest; // 100=1%,300=3%\r\n    uint256 public _totalInvested;\r\n\r\n    mapping (address => uint256) public _balances;\r\n    mapping (address => uint256) public _tokens;\r\n\r\n    uint256 public constant interest_payment_interval = 30 days; // 30 days = 2592000 seconds\r\n\r\n    /**\r\n     * @notice We usually require to know who are all the stakeholders.\r\n     */\r\n    address[] internal stakeholders;\r\n\r\n    /**\r\n    * @notice The stakes for each stakeholder.\r\n    */\r\n    mapping(address => uint256) internal stakes;\r\n    /**\r\n    * @notice The accumulated rewards for each stakeholder.\r\n    */\r\n    mapping(address => uint256) internal rewards;\r\n\r\n    event Transfer(address receiver,address account,uint256 amount);\r\n    event Minted(address account,uint256 amount);\r\n\r\n    ITransaction Transaction;\r\n\r\n    constructor(address transaction_contract, uint _interest, uint256 _initial_supply)\r\n    {\r\n\r\n        _availableTokens = maximumOffering / minimumInvestment;\r\n        interest = _interest;\r\n        _totalSupply = _initial_supply;\r\n        _totalInvested = 0;\r\n\r\n        Transaction = ITransaction(transaction_contract);\r\n    }\r\n\r\n    modifier isMinimumInvestment() {\r\n        require(msg.value >= minimumInvestment,\"does not meet the minimum investment\");\r\n        _;\r\n    }\r\n\r\n    modifier isEnoughAvailable() {\r\n        require((msg.value / minimumInvestment) > _availableTokens,\"not enough available tokens, lower your investment\");\r\n        _;\r\n    }\r\n\r\n    modifier isSufficientBalance() {\r\n        require(msg.value < _totalSupply,\"Exceeds total supply\");\r\n        require((_totalSupply - msg.value) >= 0, \"Exceeds total supply\");\r\n        _;\r\n    }\r\n\r\n    modifier isValidStakeholder() {\r\n        (bool _isStakeholder, ) = isStakeholder(msg.sender);\r\n        require(_isStakeholder, \"not a stakeholder\");\r\n        _;\r\n    }\r\n\r\n    modifier noStakes() {\r\n        require(stakes[msg.sender] == 0,\"has stakes\");\r\n        _;\r\n    }\r\n\r\n    modifier isStakes() {\r\n        require(stakes[msg.sender] > 0,\"no stakes\");\r\n        _;\r\n    }\r\n    // ensure the interest payment dureation has lapsed?\r\n    modifier isInterestPaymentInterval(uint256 epoch) {\r\n        require(epoch >= interest_payment_interval,\"interest payment is too soon\");\r\n        _;\r\n    }\r\n\r\n    modifier isExceededMaximumOffering() {\r\n        require((_totalInvested + msg.value) < maximumOffering,\"maximum offering has been reached\");\r\n        _;\r\n    }\r\n\r\n    function getTotalOffering()\r\n        public\r\n        view\r\n        returns (uint256)\r\n    {\r\n        return _totalSupply * minimumInvestment;\r\n    }\r\n\r\n    /**\r\n     * Minitng is used to take an investor funds, transfer to the contract address and issue an equivalent in debt tokens\r\n     */\r\n    function _mint(address account, uint256 amount, uint256 epoch)\r\n        internal\r\n    {\r\n        require(account != address(0), \"mint to the zero address\");\r\n\r\n        _beforeTokenTransfer(address(0), account, amount);\r\n\r\n        _totalSupply += amount / minimumInvestment; // convert amount to debt tokens\r\n        _balances[account] += amount;\r\n\r\n        // add transaction: wallet, debt token qty, ether invested, timestamp\r\n        Transaction.addTransaction(account,(amount / minimumInvestment),amount,epoch);\r\n\r\n        emit Transfer(address(this), account, amount);\r\n        emit Minted(account, amount);\r\n\r\n        _afterTokenTransfer(address(0), account, amount);\r\n    }\r\n\r\n    /**\r\n     * @dev Destroys `amount` tokens from `account`, reducing the\r\n     * total supply.\r\n     *\r\n     * Emits a {Transfer} event with `to` set to the zero address.\r\n     *\r\n     * Requirements:\r\n     *\r\n     * - `account` cannot be the zero address.\r\n     * - `account` must have at least `amount` tokens.\r\n     */\r\n    function _burn(address account, uint256 amount,uint256 epoch)\r\n        internal\r\n    {\r\n        require(account != address(0), \"burn from the zero address\");\r\n\r\n        _beforeTokenTransfer(account, address(0), amount);\r\n\r\n        uint256 accountBalance = _balances[account];\r\n        require(accountBalance >= amount, \"burn amount exceeds balance\");\r\n        unchecked {\r\n            _balances[account] = accountBalance - amount;\r\n        }\r\n        _totalInvested += amount;\r\n        _totalSupply -= amount / minimumInvestment; // convert to debt token\r\n        _tokens[account] += amount / minimumInvestment;\r\n        // add transaction: wallet, debt token qty, ether invested, timestamp\r\n        Transaction.addTransaction(account,(amount / minimumInvestment),amount,epoch);\r\n\r\n        emit Transfer(account, address(this), amount);\r\n\r\n        _afterTokenTransfer(account, address(0), amount);\r\n    }\r\n\r\n    /**\r\n    * @notice A method to check if an address is a stakeholder.\r\n    * @param _address The address to verify.\r\n    * @return bool, uint256 Whether the address is a stakeholder,\r\n    * and if so its position in the stakeholders array.\r\n    */\r\n   function isStakeholder(address _address)\r\n       public\r\n       view\r\n       returns(bool, uint256)\r\n   {\r\n       for (uint256 s = 0; s < stakeholders.length; s += 1){\r\n           if (_address == stakeholders[s]) return (true, s);\r\n       }\r\n       return (false, 0);\r\n   }\r\n   /**\r\n    * @notice A method to add a stakeholder.\r\n    * @param _stakeholder The stakeholder to add.\r\n    */\r\n   function addStakeholder(address _stakeholder)\r\n       public\r\n       payable\r\n       onlyOwner\r\n       noStakes\r\n   {\r\n       (bool _isStakeholder, ) = isStakeholder(_stakeholder);\r\n       if(!_isStakeholder) stakeholders.push(_stakeholder);\r\n   }\r\n   /**\r\n    * @notice A method to remove a stakeholder.\r\n    * @param _stakeholder The stakeholder to remove.\r\n    */\r\n   function removeStakeholder(address _stakeholder)\r\n       public\r\n       payable\r\n       onlyOwner\r\n   {\r\n       (bool _isStakeholder, uint256 s) = isStakeholder(_stakeholder);\r\n       if(_isStakeholder){\r\n           stakeholders[s] = stakeholders[stakeholders.length - 1];\r\n           stakeholders.pop();\r\n       }\r\n   }\r\n\r\n    function getStakeholders()\r\n        public view\r\n        returns(address[] memory)\r\n    {\r\n        return stakeholders;\r\n    }\r\n\r\n    function getStakeholderCount()\r\n        public\r\n        view\r\n        returns(uint256)\r\n    {\r\n        return stakeholders.length;\r\n    }\r\n\r\n    /**\r\n    * @notice A method to retrieve the stake for a stakeholder.\r\n    * @param _stakeholder The stakeholder to retrieve the stake for.\r\n    * @return uint256 The amount of wei staked.\r\n    */\r\n   function stakeOf(address _stakeholder)\r\n       public\r\n       view\r\n       returns(uint256)\r\n   {\r\n       return stakes[_stakeholder];\r\n   }\r\n   /**\r\n    * @notice A method to the aggregated stakes from all stakeholders.\r\n    * @return uint256 The aggregated stakes from all stakeholders.\r\n    */\r\n   function totalStakes()\r\n       public\r\n       view\r\n       returns(uint256)\r\n   {\r\n       uint256 _totalStakes = 0;\r\n       for (uint256 s = 0; s < stakeholders.length; s += 1){\r\n           _totalStakes = _totalStakes + stakes[stakeholders[s]];\r\n       }\r\n       return _totalStakes;\r\n   }\r\n\r\n    /**\r\n    * @notice A method for a stakeholder to create a stake. This when an investor will invest in the debt offering\r\n    * @param epoch The timestamp\r\n    */\r\n   function createStake(uint256 epoch)\r\n       public\r\n       payable\r\n       isMinimumInvestment\r\n       isExceededMaximumOffering\r\n       isValidStakeholder\r\n       noStakes\r\n   {\r\n       _burn(msg.sender, msg.value, epoch);\r\n       stakes[msg.sender] = stakes[msg.sender] + msg.value;\r\n   }\r\n   /**\r\n    * @notice A method for a stakeholder to remove a stake.\r\n    * @param epoch The timestamp\r\n    */\r\n   function removeStake(uint256 epoch)\r\n       public\r\n       payable\r\n       isValidStakeholder\r\n       isStakes\r\n   {\r\n       stakes[msg.sender] = stakes[msg.sender] - msg.value;\r\n       _mint(msg.sender, msg.value, epoch);\r\n   }\r\n\r\n  \r\n   /**\r\n    * @notice A method to allow a stakeholder to check his rewards.\r\n    * @param _stakeholder The stakeholder to check rewards for.\r\n    */\r\n   function rewardOf(address _stakeholder)\r\n       public\r\n       view\r\n       returns(uint256)\r\n   {\r\n       return rewards[_stakeholder];\r\n   }\r\n   /**\r\n    * @notice A method to the aggregated rewards from all stakeholders.\r\n    * @return uint256 The aggregated rewards from all stakeholders.\r\n    */\r\n   function totalRewards()\r\n       public\r\n       view\r\n       returns(uint256)\r\n   {\r\n       uint256 _totalRewards = 0;\r\n       for (uint256 s = 0; s < stakeholders.length; s += 1){\r\n           _totalRewards = _totalRewards + rewards[stakeholders[s]];\r\n       }\r\n       return _totalRewards;\r\n   }\r\n\r\n   /*\r\n    * Calculates the interest earned on a debt offering and kept in rewards variable\r\n    * @notice A simple method that calculates the rewards for each stakeholder.\r\n    * @param _stakeholder The stakeholder to calculate rewards for.\r\n    * @param epoch The timestamp of the trasnaction\r\n    * @param encrypted Owner signed package for proper authenrication\r\n    * @param signature Owner signature\r\n    */\r\n   function calculateReward(address _stakeholder, uint256 epoch)\r\n       public\r\n       payable\r\n       onlyOwner\r\n       isInterestPaymentInterval(epoch)\r\n       returns(uint256)\r\n   {\r\n       return stakes[_stakeholder] / interest;\r\n   }\r\n   /*\r\n    * Distributes interest in tokens to the stakeholder\r\n    * @notice A method to distribute rewards to all stakeholders.\r\n    * @param epoch The timestamp of the trasnaction\r\n    * @param encrypted Owner signed package for proper authenrication\r\n    * @param signature Owner signature\r\n    */\r\n   function distributeRewards(uint256 epoch)\r\n       public\r\n       payable\r\n       onlyOwner\r\n   {\r\n       for (uint256 s = 0; s < stakeholders.length; s += 1){\r\n           address stakeholder = stakeholders[s];\r\n           uint256 reward = calculateReward(stakeholder,epoch);\r\n           uint256 earned = rewards[stakeholder] + reward;\r\n           rewards[stakeholder] = earned;\r\n           Transaction.addTransaction(stakeholder,earned,earned,epoch);\r\n       }\r\n   }\r\n   /**\r\n    * @notice A method to allow a stakeholder to withdraw his rewards.\r\n    * @param epoch The timestamp of the trasnaction\r\n    */\r\n   function withdrawReward(uint256 epoch)\r\n       public\r\n       isValidStakeholder\r\n   {\r\n       uint256 reward = rewards[msg.sender];\r\n       rewards[msg.sender] = 0;\r\n       _mint(msg.sender, reward, epoch);\r\n   }\r\n\r\n    /**\r\n     * This is the same as withdrawing the investment\r\n     * @param epoch The timestamp of the trasnaction\r\n     * \r\n     */\r\n    function withdrawTokens(uint256 epoch)\r\n        public\r\n        isValidStakeholder\r\n    {\r\n        // withdraw any reward remaining?\r\n        withdrawReward(epoch);\r\n        // ensure there are still tokens available? \r\n        require(_tokens[msg.sender] > 0,\"no tokens available\");\r\n        uint256 tokens = _tokens[msg.sender];\r\n        _tokens[msg.sender] = 0;\r\n        // ensure contract has enough funds to pay out?\r\n        uint256 accountBalance = _balances[msg.sender];\r\n        require(accountBalance < address(this).balance,\"insufficient contract balance\");\r\n        // ensure the requestor has a balance?\r\n        require(_balances[msg.sender] > 0,\"insufficient account balance\");\r\n        _balances[msg.sender] = 0;\r\n        // send the account balance to the requestor\r\n        payable(msg.sender).transfer(accountBalance);\r\n        // update total invested\r\n        _totalInvested -= accountBalance;\r\n        // record a transaction\r\n        Transaction.addTransaction(msg.sender,tokens,accountBalance,epoch);\r\n    }\r\n\r\n    /**\r\n     * @dev Hook that is called before any transfer of tokens. This includes\r\n     * minting and burning.\r\n     *\r\n     * Calling conditions:\r\n     *\r\n     * - when `from` and `to` are both non-zero, `amount` of ``from``'s tokens\r\n     * will be transferred to `to`.\r\n     * - when `from` is zero, `amount` tokens will be minted for `to`.\r\n     * - when `to` is zero, `amount` of ``from``'s tokens will be burned.\r\n     * - `from` and `to` are never both zero.\r\n     *\r\n     * To learn more about hooks, head to xref:ROOT:extending-contracts.adoc#using-hooks[Using Hooks].\r\n     */\r\n    function _beforeTokenTransfer(\r\n        address from,\r\n        address to,\r\n        uint256 amount\r\n    ) internal {}\r\n\r\n    /**\r\n     * @dev Hook that is called after any transfer of tokens. This includes\r\n     * minting and burning.\r\n     *\r\n     * Calling conditions:\r\n     *\r\n     * - when `from` and `to` are both non-zero, `amount` of ``from``'s tokens\r\n     * has been transferred to `to`.\r\n     * - when `from` is zero, `amount` tokens have been minted for `to`.\r\n     * - when `to` is zero, `amount` of ``from``'s tokens have been burned.\r\n     * - `from` and `to` are never both zero.\r\n     *\r\n     * To learn more about hooks, head to xref:ROOT:extending-contracts.adoc#using-hooks[Using Hooks].\r\n     */\r\n    function _afterTokenTransfer(\r\n        address from,\r\n        address to,\r\n        uint256 amount\r\n    ) internal {}\r\n\r\n}",
  "sourcePath": "/Volumes/HOME/pingleware-contracts/contracts/finance/debt/ExemptDebtOfferingStaking.sol",
  "compiler": {
    "name": "solc",
    "version": "0.8.18+commit.87f61d96.Emscripten.clang"
  },
  "schemaVersion": "3.4.12",
  "updatedAt": "2024-05-23T18:56:25.722Z",
  "devdoc": {
    "kind": "dev",
    "methods": {
      "addStakeholder(address)": {
        "params": {
          "_stakeholder": "The stakeholder to add."
        }
      },
      "createStake(uint256)": {
        "params": {
          "epoch": "The timestamp"
        }
      },
      "isStakeholder(address)": {
        "params": {
          "_address": "The address to verify."
        },
        "returns": {
          "_0": "bool, uint256 Whether the address is a stakeholder, and if so its position in the stakeholders array."
        }
      },
      "removeStake(uint256)": {
        "params": {
          "epoch": "The timestamp"
        }
      },
      "removeStakeholder(address)": {
        "params": {
          "_stakeholder": "The stakeholder to remove."
        }
      },
      "renounceOwnership()": {
        "details": "Leaves the contract without owner. It will not be possible to call `onlyOwner` functions anymore. Can only be called by the current owner. NOTE: Renouncing ownership will leave the contract without an owner, thereby removing any functionality that is only available to the owner."
      },
      "rewardOf(address)": {
        "params": {
          "_stakeholder": "The stakeholder to check rewards for."
        }
      },
      "stakeOf(address)": {
        "params": {
          "_stakeholder": "The stakeholder to retrieve the stake for."
        },
        "returns": {
          "_0": "uint256 The amount of wei staked."
        }
      },
      "totalRewards()": {
        "returns": {
          "_0": "uint256 The aggregated rewards from all stakeholders."
        }
      },
      "totalStakes()": {
        "returns": {
          "_0": "uint256 The aggregated stakes from all stakeholders."
        }
      },
      "transferOwnership(address)": {
        "details": "Transfers ownership of the contract to a new account (`newOwner`). Can only be called by the current owner."
      },
      "withdrawReward(uint256)": {
        "params": {
          "epoch": "The timestamp of the trasnaction"
        }
      },
      "withdrawTokens(uint256)": {
        "params": {
          "epoch": "The timestamp of the trasnaction "
        }
      }
    },
    "version": 1
  },
  "userdoc": {
    "kind": "user",
    "methods": {
      "addStakeholder(address)": {
        "notice": "A method to add a stakeholder."
      },
      "createStake(uint256)": {
        "notice": "A method for a stakeholder to create a stake. This when an investor will invest in the debt offering"
      },
      "isStakeholder(address)": {
        "notice": "A method to check if an address is a stakeholder."
      },
      "removeStake(uint256)": {
        "notice": "A method for a stakeholder to remove a stake."
      },
      "removeStakeholder(address)": {
        "notice": "A method to remove a stakeholder."
      },
      "rewardOf(address)": {
        "notice": "A method to allow a stakeholder to check his rewards."
      },
      "stakeOf(address)": {
        "notice": "A method to retrieve the stake for a stakeholder."
      },
      "totalRewards()": {
        "notice": "A method to the aggregated rewards from all stakeholders."
      },
      "totalStakes()": {
        "notice": "A method to the aggregated stakes from all stakeholders."
      },
      "withdrawReward(uint256)": {
        "notice": "A method to allow a stakeholder to withdraw his rewards."
      },
      "withdrawTokens(uint256)": {
        "notice": "This is the same as withdrawing the investment"
      }
    },
    "notice": "Mechanics of a Private Placement Debt Offering ---------------------------------------------- Using a DAPP to qualify an accredited investor, and accept monetary investment, then mint an equal token amount for the investor. Using the staking algorithm, to create reward tokens equal to interest payments",
    "version": 1
  }
}