{
  "contractName": "ExemptEquityOfferingRegC",
  "abi": [
    {
      "inputs": [],
      "stateMutability": "nonpayable",
      "type": "constructor"
    },
    {
      "anonymous": false,
      "inputs": [
        {
          "indexed": false,
          "internalType": "uint256",
          "name": "value",
          "type": "uint256"
        }
      ],
      "name": "Bought",
      "type": "event"
    },
    {
      "anonymous": false,
      "inputs": [
        {
          "indexed": true,
          "internalType": "address",
          "name": "from",
          "type": "address"
        },
        {
          "indexed": false,
          "internalType": "string",
          "name": "status",
          "type": "string"
        },
        {
          "indexed": false,
          "internalType": "uint256",
          "name": "value",
          "type": "uint256"
        }
      ],
      "name": "ExemptOffering",
      "type": "event"
    },
    {
      "anonymous": false,
      "inputs": [
        {
          "indexed": false,
          "internalType": "address",
          "name": "addr",
          "type": "address"
        },
        {
          "indexed": false,
          "internalType": "uint256",
          "name": "amount",
          "type": "uint256"
        }
      ],
      "name": "Minted",
      "type": "event"
    },
    {
      "anonymous": false,
      "inputs": [
        {
          "indexed": false,
          "internalType": "address",
          "name": "addr",
          "type": "address"
        }
      ],
      "name": "MinterAdded",
      "type": "event"
    },
    {
      "anonymous": false,
      "inputs": [
        {
          "indexed": false,
          "internalType": "uint256",
          "name": "value",
          "type": "uint256"
        }
      ],
      "name": "Sold",
      "type": "event"
    },
    {
      "anonymous": false,
      "inputs": [
        {
          "indexed": false,
          "internalType": "address",
          "name": "addr",
          "type": "address"
        },
        {
          "indexed": false,
          "internalType": "uint256",
          "name": "amount",
          "type": "uint256"
        }
      ],
      "name": "Transfer",
      "type": "event"
    },
    {
      "anonymous": false,
      "inputs": [
        {
          "indexed": false,
          "internalType": "address",
          "name": "addr",
          "type": "address"
        }
      ],
      "name": "TransferAgentAdded",
      "type": "event"
    },
    {
      "anonymous": false,
      "inputs": [
        {
          "indexed": false,
          "internalType": "address",
          "name": "addr",
          "type": "address"
        }
      ],
      "name": "TransferAgentRemoved",
      "type": "event"
    },
    {
      "anonymous": false,
      "inputs": [
        {
          "indexed": false,
          "internalType": "address",
          "name": "from",
          "type": "address"
        },
        {
          "indexed": false,
          "internalType": "address",
          "name": "to",
          "type": "address"
        },
        {
          "indexed": false,
          "internalType": "uint256",
          "name": "value",
          "type": "uint256"
        }
      ],
      "name": "TransferFrom",
      "type": "event"
    },
    {
      "anonymous": false,
      "inputs": [
        {
          "indexed": false,
          "internalType": "address",
          "name": "addr",
          "type": "address"
        },
        {
          "indexed": false,
          "internalType": "bytes32",
          "name": "hash",
          "type": "bytes32"
        },
        {
          "indexed": false,
          "internalType": "address",
          "name": "sender",
          "type": "address"
        }
      ],
      "name": "VerifiedAddressAdded",
      "type": "event"
    },
    {
      "anonymous": false,
      "inputs": [
        {
          "indexed": false,
          "internalType": "address",
          "name": "addr",
          "type": "address"
        },
        {
          "indexed": false,
          "internalType": "address",
          "name": "sender",
          "type": "address"
        }
      ],
      "name": "VerifiedAddressRemoved",
      "type": "event"
    },
    {
      "anonymous": false,
      "inputs": [
        {
          "indexed": false,
          "internalType": "address",
          "name": "addr1",
          "type": "address"
        },
        {
          "indexed": false,
          "internalType": "address",
          "name": "addr2",
          "type": "address"
        },
        {
          "indexed": false,
          "internalType": "address",
          "name": "addr3",
          "type": "address"
        }
      ],
      "name": "VerifiedAddressSuperseded",
      "type": "event"
    },
    {
      "anonymous": false,
      "inputs": [
        {
          "indexed": false,
          "internalType": "address",
          "name": "addr",
          "type": "address"
        },
        {
          "indexed": false,
          "internalType": "bytes32",
          "name": "oldhash",
          "type": "bytes32"
        },
        {
          "indexed": false,
          "internalType": "bytes32",
          "name": "hash",
          "type": "bytes32"
        },
        {
          "indexed": false,
          "internalType": "address",
          "name": "sender",
          "type": "address"
        }
      ],
      "name": "VerifiedAddressUpdated",
      "type": "event"
    },
    {
      "inputs": [],
      "name": "INITIAL_SUPPLY",
      "outputs": [
        {
          "internalType": "uint256",
          "name": "",
          "type": "uint256"
        }
      ],
      "stateMutability": "view",
      "type": "function"
    },
    {
      "inputs": [
        {
          "internalType": "address",
          "name": "",
          "type": "address"
        }
      ],
      "name": "balances",
      "outputs": [
        {
          "internalType": "uint256",
          "name": "",
          "type": "uint256"
        }
      ],
      "stateMutability": "view",
      "type": "function"
    },
    {
      "inputs": [],
      "name": "decimals",
      "outputs": [
        {
          "internalType": "uint8",
          "name": "",
          "type": "uint8"
        }
      ],
      "stateMutability": "view",
      "type": "function"
    },
    {
      "inputs": [],
      "name": "name",
      "outputs": [
        {
          "internalType": "string",
          "name": "",
          "type": "string"
        }
      ],
      "stateMutability": "view",
      "type": "function"
    },
    {
      "inputs": [],
      "name": "negative",
      "outputs": [
        {
          "internalType": "uint256",
          "name": "",
          "type": "uint256"
        }
      ],
      "stateMutability": "view",
      "type": "function"
    },
    {
      "inputs": [],
      "name": "parValue",
      "outputs": [
        {
          "internalType": "uint256",
          "name": "",
          "type": "uint256"
        }
      ],
      "stateMutability": "view",
      "type": "function"
    },
    {
      "inputs": [],
      "name": "releaseAgent",
      "outputs": [
        {
          "internalType": "address",
          "name": "",
          "type": "address"
        }
      ],
      "stateMutability": "view",
      "type": "function"
    },
    {
      "inputs": [],
      "name": "released",
      "outputs": [
        {
          "internalType": "bool",
          "name": "",
          "type": "bool"
        }
      ],
      "stateMutability": "view",
      "type": "function"
    },
    {
      "inputs": [],
      "name": "symbol",
      "outputs": [
        {
          "internalType": "string",
          "name": "",
          "type": "string"
        }
      ],
      "stateMutability": "view",
      "type": "function"
    },
    {
      "inputs": [],
      "name": "totalSupply",
      "outputs": [
        {
          "internalType": "uint256",
          "name": "",
          "type": "uint256"
        }
      ],
      "stateMutability": "view",
      "type": "function"
    },
    {
      "inputs": [],
      "name": "totalValueMax",
      "outputs": [
        {
          "internalType": "uint256",
          "name": "",
          "type": "uint256"
        }
      ],
      "stateMutability": "view",
      "type": "function"
    },
    {
      "inputs": [
        {
          "internalType": "address",
          "name": "addr",
          "type": "address"
        }
      ],
      "name": "setReleaseAgent",
      "outputs": [],
      "stateMutability": "nonpayable",
      "type": "function"
    },
    {
      "inputs": [],
      "name": "release",
      "outputs": [],
      "stateMutability": "nonpayable",
      "type": "function"
    },
    {
      "inputs": [
        {
          "internalType": "address",
          "name": "addr",
          "type": "address"
        },
        {
          "internalType": "bool",
          "name": "state",
          "type": "bool"
        }
      ],
      "name": "setTransferAgent",
      "outputs": [],
      "stateMutability": "nonpayable",
      "type": "function"
    },
    {
      "inputs": [
        {
          "internalType": "address",
          "name": "_to",
          "type": "address"
        },
        {
          "internalType": "uint256",
          "name": "_value",
          "type": "uint256"
        }
      ],
      "name": "transfer",
      "outputs": [
        {
          "internalType": "bool",
          "name": "success",
          "type": "bool"
        }
      ],
      "stateMutability": "nonpayable",
      "type": "function"
    },
    {
      "inputs": [
        {
          "internalType": "address",
          "name": "_from",
          "type": "address"
        },
        {
          "internalType": "address",
          "name": "_to",
          "type": "address"
        },
        {
          "internalType": "uint256",
          "name": "_value",
          "type": "uint256"
        }
      ],
      "name": "transferFrom",
      "outputs": [
        {
          "internalType": "bool",
          "name": "success",
          "type": "bool"
        }
      ],
      "stateMutability": "nonpayable",
      "type": "function"
    },
    {
      "inputs": [
        {
          "internalType": "uint256",
          "name": "_value",
          "type": "uint256"
        }
      ],
      "name": "burn",
      "outputs": [
        {
          "internalType": "bool",
          "name": "success",
          "type": "bool"
        }
      ],
      "stateMutability": "nonpayable",
      "type": "function"
    },
    {
      "inputs": [
        {
          "internalType": "address",
          "name": "_from",
          "type": "address"
        },
        {
          "internalType": "uint256",
          "name": "_value",
          "type": "uint256"
        }
      ],
      "name": "burnFrom",
      "outputs": [
        {
          "internalType": "bool",
          "name": "success",
          "type": "bool"
        }
      ],
      "stateMutability": "nonpayable",
      "type": "function"
    }
  ],
  "bytecode": "0x6080604052600080556000600260146101000a81548160ff0219169083151502179055506000600a60006101000a81548160ff0219169083151502179055506000600d556000600f60006101000a81548160ff0219169083151502179055506301dfe20060105562eff1006011553480156200007a57600080fd5b5069152d02c7e14af6800000600c60003373ffffffffffffffffffffffffffffffffffffffff1673ffffffffffffffffffffffffffffffffffffffff16815260200190815260200160002081905550620000e53369152d02c7e14af6800000620000ec60201b60201c565b506200036e565b6000805482111562000135576040517f08c379a00000000000000000000000000000000000000000000000000000000081526004016200012c9062000233565b60405180910390fd5b81600c60008573ffffffffffffffffffffffffffffffffffffffff1673ffffffffffffffffffffffffffffffffffffffff16815260200190815260200160002060008282546200018691906200028e565b925050819055507f30385c845b448a36257a6a1716e6ad2e1bc2cbe333cde1e69fe849ad6511adfe8383604051620001c092919062000341565b60405180910390a16001905092915050565b600082825260208201905092915050565b7f6578636565647320746f74616c20737570706c79000000000000000000000000600082015250565b60006200021b601483620001d2565b91506200022882620001e3565b602082019050919050565b600060208201905081810360008301526200024e816200020c565b9050919050565b6000819050919050565b7f4e487b7100000000000000000000000000000000000000000000000000000000600052601160045260246000fd5b60006200029b8262000255565b9150620002a88362000255565b9250827fffffffffffffffffffffffffffffffffffffffffffffffffffffffffffffffff03821115620002e057620002df6200025f565b5b828201905092915050565b600073ffffffffffffffffffffffffffffffffffffffff82169050919050565b60006200031882620002eb565b9050919050565b6200032a816200030b565b82525050565b6200033b8162000255565b82525050565b60006040820190506200035860008301856200031f565b62000367602083018462000330565b9392505050565b611528806200037e6000396000f3fe608060405234801561001057600080fd5b50600436106101165760003560e01c8063313ce567116100a25780638bf14094116100715780638bf14094146102d157806395d89b41146102ef578063961325211461030d578063a9059cbb1461032b578063d1f276d31461035b57610116565b8063313ce5671461024957806342966c681461026757806379cc67901461029757806386d1a69f146102c757610116565b806323b872dd116100e957806323b872dd1461019157806327e235e3146101c157806329ff4f53146101f15780632cea64bf1461020d5780632ff2e9dc1461022b57610116565b806302f652a31461011b57806306fdde031461013757806318160ddd146101555780631cb3ef1f14610173575b600080fd5b61013560048036038101906101309190610f8e565b610379565b005b61013f61052c565b60405161014c9190611067565b60405180910390f35b61015d610565565b60405161016a91906110a2565b60405180910390f35b61017b61056b565b60405161018891906110a2565b60405180910390f35b6101ab60048036038101906101a691906110e9565b61058f565b6040516101b8919061114b565b60405180910390f35b6101db60048036038101906101d69190611166565b61064a565b6040516101e891906110a2565b60405180910390f35b61020b60048036038101906102069190611166565b610662565b005b6102156107fe565b60405161022291906110a2565b60405180910390f35b610233610809565b60405161024091906110a2565b60405180910390f35b610251610817565b60405161025e91906111af565b60405180910390f35b610281600480360381019061027c91906111ca565b61081c565b60405161028e919061114b565b60405180910390f35b6102b160048036038101906102ac91906111f7565b6108be565b6040516102be919061114b565b60405180910390f35b6102cf610962565b005b6102d9610a67565b6040516102e691906110a2565b60405180910390f35b6102f7610a80565b6040516103049190611067565b60405180910390f35b610315610ab9565b604051610322919061114b565b60405180910390f35b610345600480360381019061034091906111f7565b610acc565b604051610352919061114b565b60405180910390f35b610363610b85565b6040516103709190611246565b60405180910390f35b600160009054906101000a900473ffffffffffffffffffffffffffffffffffffffff1673ffffffffffffffffffffffffffffffffffffffff163373ffffffffffffffffffffffffffffffffffffffff1614610409576040517f08c379a0000000000000000000000000000000000000000000000000000000008152600401610400906112ad565b60405180910390fd5b6000600260149054906101000a900460ff16151581151514610460576040517f08c379a0000000000000000000000000000000000000000000000000000000008152600401610457906112f3565b60405180910390fd5b600073ffffffffffffffffffffffffffffffffffffffff168373ffffffffffffffffffffffffffffffffffffffff1614156104d0576040517f08c379a00000000000000000000000000000000000000000000000000000000081526004016104c7906112f3565b60405180910390fd5b81600660008573ffffffffffffffffffffffffffffffffffffffff1673ffffffffffffffffffffffffffffffffffffffff16815260200190815260200160002060006101000a81548160ff021916908315150217905550505050565b6040518060400160405280601281526020017f43726f776466756e64696e6720546f6b656e000000000000000000000000000081525081565b60005481565b7fffffffffffffffffffffffffffffffffffffffffffffffffffffffffffffffff81565b600083600260149054906101000a900460ff16806105f65750600660008273ffffffffffffffffffffffffffffffffffffffff1673ffffffffffffffffffffffffffffffffffffffff16815260200190815260200160002060009054906101000a900460ff165b610635576040517f08c379a000000000000000000000000000000000000000000000000000000000815260040161062c906112f3565b60405180910390fd5b610640858585610bab565b9150509392505050565b600c6020528060005260406000206000915090505481565b600160009054906101000a900473ffffffffffffffffffffffffffffffffffffffff1673ffffffffffffffffffffffffffffffffffffffff163373ffffffffffffffffffffffffffffffffffffffff16146106f2576040517f08c379a00000000000000000000000000000000000000000000000000000000081526004016106e9906112ad565b60405180910390fd5b6000600260149054906101000a900460ff16151581151514610749576040517f08c379a0000000000000000000000000000000000000000000000000000000008152600401610740906112f3565b60405180910390fd5b600073ffffffffffffffffffffffffffffffffffffffff168273ffffffffffffffffffffffffffffffffffffffff1614156107b9576040517f08c379a00000000000000000000000000000000000000000000000000000000081526004016107b0906112f3565b60405180910390fd5b81600260006101000a81548173ffffffffffffffffffffffffffffffffffffffff021916908373ffffffffffffffffffffffffffffffffffffffff1602179055505050565b6611c37937e0800081565b69152d02c7e14af680000081565b600081565b6000600160009054906101000a900473ffffffffffffffffffffffffffffffffffffffff1673ffffffffffffffffffffffffffffffffffffffff163373ffffffffffffffffffffffffffffffffffffffff16146108ae576040517f08c379a00000000000000000000000000000000000000000000000000000000081526004016108a5906112ad565b60405180910390fd5b6108b782610d20565b9050919050565b6000600160009054906101000a900473ffffffffffffffffffffffffffffffffffffffff1673ffffffffffffffffffffffffffffffffffffffff163373ffffffffffffffffffffffffffffffffffffffff1614610950576040517f08c379a0000000000000000000000000000000000000000000000000000000008152600401610947906112ad565b60405180910390fd5b61095a8383610d87565b905092915050565b600260009054906101000a900473ffffffffffffffffffffffffffffffffffffffff1673ffffffffffffffffffffffffffffffffffffffff163373ffffffffffffffffffffffffffffffffffffffff16146109f2576040517f08c379a00000000000000000000000000000000000000000000000000000000081526004016109e9906112f3565b60405180910390fd5b6000600260149054906101000a900460ff16151581151514610a49576040517f08c379a0000000000000000000000000000000000000000000000000000000008152600401610a40906112f3565b60405180910390fd5b6001600260146101000a81548160ff02191690831515021790555050565b6611c37937e08000620186a0610a7d9190611342565b81565b6040518060400160405280600881526020017f544f4b454e2e434600000000000000000000000000000000000000000000000081525081565b600260149054906101000a900460ff1681565b600033600260149054906101000a900460ff1680610b335750600660008273ffffffffffffffffffffffffffffffffffffffff1673ffffffffffffffffffffffffffffffffffffffff16815260200190815260200160002060009054906101000a900460ff165b610b72576040517f08c379a0000000000000000000000000000000000000000000000000000000008152600401610b69906112f3565b60405180910390fd5b610b7c8484610e6a565b91505092915050565b600260009054906101000a900473ffffffffffffffffffffffffffffffffffffffff1681565b600081600c60008673ffffffffffffffffffffffffffffffffffffffff1673ffffffffffffffffffffffffffffffffffffffff1681526020019081526020016000205411610c2e576040517f08c379a0000000000000000000000000000000000000000000000000000000008152600401610c25906113e8565b60405180910390fd5b81600c60008573ffffffffffffffffffffffffffffffffffffffff1673ffffffffffffffffffffffffffffffffffffffff1681526020019081526020016000206000828254610c7d9190611408565b9250508190555081600c60008673ffffffffffffffffffffffffffffffffffffffff1673ffffffffffffffffffffffffffffffffffffffff1681526020019081526020016000206000828254610cd3919061145e565b925050819055507fc0d84ce5c7ff9ca21adb0f8436ff3f4951b4bb78c4e2fae2b6837958b3946ffd848484604051610d0d93929190611492565b60405180910390a1600190509392505050565b60008160005411610d66576040517f08c379a0000000000000000000000000000000000000000000000000000000008152600401610d5d906113e8565b60405180910390fd5b81600080828254610d77919061145e565b9250508190555060019050919050565b600081600c60008573ffffffffffffffffffffffffffffffffffffffff1673ffffffffffffffffffffffffffffffffffffffff1681526020019081526020016000205411610e0a576040517f08c379a0000000000000000000000000000000000000000000000000000000008152600401610e01906113e8565b60405180910390fd5b81600c60008573ffffffffffffffffffffffffffffffffffffffff1673ffffffffffffffffffffffffffffffffffffffff1681526020019081526020016000206000828254610e59919061145e565b925050819055506001905092915050565b600081600c60008573ffffffffffffffffffffffffffffffffffffffff1673ffffffffffffffffffffffffffffffffffffffff168152602001908152602001600020819055507f69ca02dd4edd7bf0a4abb9ed3b7af3f14778db5d61921c7dc7cd545266326de28383604051610ee19291906114c9565b60405180910390a16001905092915050565b600080fd5b600073ffffffffffffffffffffffffffffffffffffffff82169050919050565b6000610f2382610ef8565b9050919050565b610f3381610f18565b8114610f3e57600080fd5b50565b600081359050610f5081610f2a565b92915050565b60008115159050919050565b610f6b81610f56565b8114610f7657600080fd5b50565b600081359050610f8881610f62565b92915050565b60008060408385031215610fa557610fa4610ef3565b5b6000610fb385828601610f41565b9250506020610fc485828601610f79565b9150509250929050565b600081519050919050565b600082825260208201905092915050565b60005b83811015611008578082015181840152602081019050610fed565b83811115611017576000848401525b50505050565b6000601f19601f8301169050919050565b600061103982610fce565b6110438185610fd9565b9350611053818560208601610fea565b61105c8161101d565b840191505092915050565b60006020820190508181036000830152611081818461102e565b905092915050565b6000819050919050565b61109c81611089565b82525050565b60006020820190506110b76000830184611093565b92915050565b6110c681611089565b81146110d157600080fd5b50565b6000813590506110e3816110bd565b92915050565b60008060006060848603121561110257611101610ef3565b5b600061111086828701610f41565b935050602061112186828701610f41565b9250506040611132868287016110d4565b9150509250925092565b61114581610f56565b82525050565b6000602082019050611160600083018461113c565b92915050565b60006020828403121561117c5761117b610ef3565b5b600061118a84828501610f41565b91505092915050565b600060ff82169050919050565b6111a981611193565b82525050565b60006020820190506111c460008301846111a0565b92915050565b6000602082840312156111e0576111df610ef3565b5b60006111ee848285016110d4565b91505092915050565b6000806040838503121561120e5761120d610ef3565b5b600061121c85828601610f41565b925050602061122d858286016110d4565b9150509250929050565b61124081610f18565b82525050565b600060208201905061125b6000830184611237565b92915050565b7f6163636573732064656e69656400000000000000000000000000000000000000600082015250565b6000611297600d83610fd9565b91506112a282611261565b602082019050919050565b600060208201905081810360008301526112c68161128a565b9050919050565b50565b60006112dd600083610fd9565b91506112e8826112cd565b600082019050919050565b6000602082019050818103600083015261130c816112d0565b9050919050565b7f4e487b7100000000000000000000000000000000000000000000000000000000600052601160045260246000fd5b600061134d82611089565b915061135883611089565b9250817fffffffffffffffffffffffffffffffffffffffffffffffffffffffffffffffff048311821515161561139157611390611313565b5b828202905092915050565b7f696e73756666696369656e742062616c616e6365000000000000000000000000600082015250565b60006113d2601483610fd9565b91506113dd8261139c565b602082019050919050565b60006020820190508181036000830152611401816113c5565b9050919050565b600061141382611089565b915061141e83611089565b9250827fffffffffffffffffffffffffffffffffffffffffffffffffffffffffffffffff0382111561145357611452611313565b5b828201905092915050565b600061146982611089565b915061147483611089565b92508282101561148757611486611313565b5b828203905092915050565b60006060820190506114a76000830186611237565b6114b46020830185611237565b6114c16040830184611093565b949350505050565b60006040820190506114de6000830185611237565b6114eb6020830184611093565b939250505056fea2646970667358221220fbf4a1adb1f7226a504a5986ea426561e5b65261060cebef2fe94755f1e2025564736f6c634300080a0033",
  "immutableReferences": {},
  "source": "// SPDX-License-Identifier: CC-BY-4.0\npragma solidity >=0.4.22 <0.9.0;\n\n/**\n * Regulation Crowdfunding; Section 4(a)(6)\n * ----------------------------------------\n * See https://www.sec.gov/info/smallbus/secg/rccomplianceguide-051316.htm\n *\n * c. Transactions Conducted Through an Intermediary\n *\n * Each Regulation Crowdfunding offering must be exclusively conducted through one online platform. The intermediary operating the platform must be a broker-dealer\n * or a funding portal that is registered with the SEC and FINRA.\n *\n * Issuers may rely on the efforts of the intermediary to determine that the aggregate amount of securities purchased by an investor does not cause the investor\n * to exceed the investment limits, so long as the issuer does not have knowledge that the investor would exceed the investment limits as a result of purchasing\n * securities in the issuers offering.\n */\n\n// IMPORTANT NOTE: BECUASE OF THE REGULATIONS FOR CROWD FUNDING MUST BE CONDUCTED THROUGH AN INTERMEDIATARY THAT IS REGISTERED AS A BROKER-DEAKER OR FUNDING PORTAL WITH\n// THE SEC AND FINRA, THIS CROWDFUNDING TOKEN IS USEFUL FOR ONLY A REGISTERED BROKER-DEALER OR FUNDING PORTAL THAT DESIRES TO OFFER A CRYPTOCURRENCY.\n\n// An example of a crowdfunding token at https://github.com/JincorTech/ico/blob/master/contracts/JincorToken.sol\n\ncontract ExemptEquityOfferingRegC {\n    string public constant name = \"Crowdfunding Token\";\n    string public constant symbol = \"TOKEN.CF\";\n    uint8 public constant decimals = 0;\n    uint256 public totalSupply = 0;\n\n    uint256 public constant negative = type(uint256).max;\n\n    uint256 public constant INITIAL_SUPPLY = 100000 * 1 ether;\n\n    bytes32 constant private ZERO_BYTES = bytes32(0);\n    address constant private ZERO_ADDRESS = address(0);\n\n    address private owner;\n\n    /* The finalizer contract that allows unlift the transfer limits on this token */\n    address public releaseAgent;\n\n    /** A crowdsale contract can release us to the wild if ICO success. If false we are are in transfer lock up period.*/\n    bool public released = false;\n\n    /** Map of agents that are allowed to transfer tokens regardless of the lock down period. These are crowdsale contracts and possible the team multisig itself. */\n    mapping(address => bytes32) private verified;\n    mapping(address => address) private cancellations;\n    mapping(address => uint256) private holderIndices;\n    mapping(address => bool) private transferAgents;\n    mapping(address => uint256) private minters;\n    mapping(address => mapping(address => uint256)) private _allowances;\n\n    address[] private shareholders;\n\n    bool internal active = false;\n    uint256 private start_timestamp;\n\n    mapping (address => uint256) public balances;\n\n    event ExemptOffering(address indexed from,string status, uint256 value);\n    event Transfer(address addr, uint256 amount);\n    event TransferFrom(address from,address to,uint256 value);\n    event TransferAgentAdded(address addr);\n    event TransferAgentRemoved(address addr);\n    event MinterAdded(address addr);\n    event Minted(address addr, uint256 amount);\n    event VerifiedAddressSuperseded(address addr1,address addr2,address addr3);\n    event VerifiedAddressUpdated(address addr, bytes32 oldhash, bytes32 hash, address sender);\n    event VerifiedAddressRemoved(address addr, address sender);\n    event VerifiedAddressAdded(address addr, bytes32 hash, address sender);\n    event Bought(uint value);\n    event Sold(uint value);\n\n    uint constant public parValue = 5 * 0.001 ether;\n    uint constant public totalValueMax = 100000 * parValue;\n    uint private totalValue = 0;\n\n    uint256 private contract_creation; // The contract creation time\n\n    bool private restricted = false;\n\n    uint private year = 52 weeks;\n    uint private sixmonths = 26 weeks;\n\n      /**\n       * @dev Constructor that gives msg.sender all of existing tokens.\n       */\n    constructor()\n    {\n        balances[msg.sender] = INITIAL_SUPPLY;\n        _mint(msg.sender, INITIAL_SUPPLY);\n    }\n\n    modifier onlyOwner() {\n        require(msg.sender == owner, \"access denied\");\n        _;\n    }\n\n    modifier isMinter() {\n      require(minters[msg.sender] == 1,\"not a minter\");\n      _;\n    }\n\n\n    modifier isActive() {\n        require(active, \"exempt offering is not active\");\n        _;\n    }\n\n    modifier isVerifiedAddress(address addr) {\n        require(verified[addr] != ZERO_BYTES, \"\");\n        _;\n    }\n\n    /**\n    * Limit token transfer until the crowdsale is over.\n    *\n    */\n    modifier canTransfer(address _sender) {\n        require(released || transferAgents[_sender], \"\");\n        _;\n    }\n\n    /** The function can be called only before or after the tokens have been released */\n    modifier inReleaseState(bool releaseState) {\n        require(releaseState == released, \"\");\n        _;\n    }\n\n    /** The function can be called only by a whitelisted release agent. */\n    modifier onlyReleaseAgent() {\n        require(msg.sender == releaseAgent, \"\");\n        _;\n    }\n\n\n\n\n    /**\n    * Set the contract that can call release and make the token transferable.\n    *\n    * Design choice. Allow reset the release agent to fix fat finger mistakes.\n    */\n    function setReleaseAgent(address addr) public onlyOwner inReleaseState(false) {\n        require(addr != ZERO_ADDRESS, \"\");\n\n        // We don't do interface check here as we might want to a normal wallet address to act as a release agent\n        releaseAgent = addr;\n    }\n\n    function release() public onlyReleaseAgent inReleaseState(false) {\n        released = true;\n    }\n\n    /**\n    * Owner can allow a particular address (a crowdsale contract) to transfer tokens despite the lock up period.\n    */\n    function setTransferAgent(address addr, bool state) public onlyOwner inReleaseState(false) {\n        require(addr != ZERO_ADDRESS, \"\");\n        transferAgents[addr] = state;\n    }\n\n    function transfer(address _to, uint _value) public canTransfer(msg.sender) returns (bool success) {\n        // Call Burnable.transfer()\n        return _transfer(_to, _value);\n    }\n\n    function transferFrom(address _from, address _to, uint _value) public canTransfer(_from) returns (bool success) {\n        // Call Burnable.transferForm()\n        return _transferFrom(_from, _to, _value);\n    }\n\n    function burn(uint _value) public onlyOwner returns (bool success) {\n        return _burn(_value);\n    }\n\n    function burnFrom(address _from, uint _value) public onlyOwner returns (bool success) {\n        return _burnFrom(_from, _value);\n    }\n\n    // Internal\n    function _mint(address addr, uint256 amount)\n      internal\n      returns (bool)\n    {\n      require(amount <= totalSupply, \"exceeds total supply\");\n      balances[addr] += amount;\n      emit Minted(addr, amount);\n      return true;\n    }\n\n    function _transfer(address addr, uint256 amount)\n      internal\n      returns (bool)\n    {\n      balances[addr] = amount;\n      emit Transfer(addr, amount);\n      return true;\n    }\n\n    function _transferFrom(address from,address to,uint256 value)\n      internal\n      returns (bool)\n    {\n      require(balances[from] > value, \"insufficient balance\");\n      balances[to] += value;\n      balances[from] -= value;\n      emit TransferFrom(from, to, value);\n      return true;\n    }\n\n    function _burn(uint256 value)\n      internal\n      returns (bool)\n    {\n      require(totalSupply > value, \"insufficient balance\");\n      totalSupply -= value;\n      return true;\n    }\n\n    function _burnFrom(address _from,uint256 _value)\n      internal\n      returns (bool)\n    {\n      require(balances[_from] > _value, \"insufficient balance\");\n      balances[_from] -= _value;\n      return true;\n    }\n}\n",
  "sourcePath": "G:\\projects\\pingleware-contracts\\contracts\\equity\\ExemptEquityOfferingRegC.sol",
  "compiler": {
    "name": "solc",
    "version": "0.8.10+commit.fc410830.Emscripten.clang"
  },
  "schemaVersion": "3.4.3",
  "updatedAt": "2021-12-19T22:01:33.574Z",
  "devdoc": {
    "kind": "dev",
    "methods": {
      "constructor": {
        "details": "Constructor that gives msg.sender all of existing tokens."
      }
    },
    "version": 1
  },
  "userdoc": {
    "kind": "user",
    "methods": {
      "released()": {
        "notice": "A crowdsale contract can release us to the wild if ICO success. If false we are are in transfer lock up period."
      },
      "setReleaseAgent(address)": {
        "notice": "Set the contract that can call release and make the token transferable. Design choice. Allow reset the release agent to fix fat finger mistakes."
      },
      "setTransferAgent(address,bool)": {
        "notice": "Owner can allow a particular address (a crowdsale contract) to transfer tokens despite the lock up period."
      }
    },
    "notice": "Regulation Crowdfunding; Section 4(a)(6) ---------------------------------------- See https://www.sec.gov/info/smallbus/secg/rccomplianceguide-051316.htm c. Transactions Conducted Through an Intermediary Each Regulation Crowdfunding offering must be exclusively conducted through one online platform. The intermediary operating the platform must be a broker-dealer or a funding portal that is registered with the SEC and FINRA. Issuers may rely on the efforts of the intermediary to determine that the aggregate amount of securities purchased by an investor does not cause the investor to exceed the investment limits, so long as the issuer does not have knowledge that the investor would exceed the investment limits as a result of purchasing securities in the issuers offering.",
    "version": 1
  }
}