{
  "contractName": "ExemptEquityOffering147",
  "abi": [
    {
      "inputs": [],
      "stateMutability": "nonpayable",
      "type": "constructor"
    },
    {
      "anonymous": false,
      "inputs": [
        {
          "indexed": false,
          "internalType": "uint256",
          "name": "value",
          "type": "uint256"
        }
      ],
      "name": "Bought",
      "type": "event"
    },
    {
      "anonymous": false,
      "inputs": [
        {
          "indexed": true,
          "internalType": "address",
          "name": "from",
          "type": "address"
        },
        {
          "indexed": false,
          "internalType": "string",
          "name": "status",
          "type": "string"
        },
        {
          "indexed": false,
          "internalType": "uint256",
          "name": "value",
          "type": "uint256"
        }
      ],
      "name": "ExemptOffering",
      "type": "event"
    },
    {
      "anonymous": false,
      "inputs": [
        {
          "indexed": false,
          "internalType": "address",
          "name": "addr",
          "type": "address"
        },
        {
          "indexed": false,
          "internalType": "uint256",
          "name": "amount",
          "type": "uint256"
        }
      ],
      "name": "Minted",
      "type": "event"
    },
    {
      "anonymous": false,
      "inputs": [
        {
          "indexed": false,
          "internalType": "address",
          "name": "addr",
          "type": "address"
        }
      ],
      "name": "MinterAdded",
      "type": "event"
    },
    {
      "anonymous": false,
      "inputs": [
        {
          "indexed": false,
          "internalType": "uint256",
          "name": "value",
          "type": "uint256"
        }
      ],
      "name": "Sold",
      "type": "event"
    },
    {
      "anonymous": false,
      "inputs": [
        {
          "indexed": false,
          "internalType": "address",
          "name": "addr",
          "type": "address"
        },
        {
          "indexed": false,
          "internalType": "uint256",
          "name": "amount",
          "type": "uint256"
        }
      ],
      "name": "Transfer",
      "type": "event"
    },
    {
      "anonymous": false,
      "inputs": [
        {
          "indexed": false,
          "internalType": "address",
          "name": "addr",
          "type": "address"
        }
      ],
      "name": "TransferAgentAdded",
      "type": "event"
    },
    {
      "anonymous": false,
      "inputs": [
        {
          "indexed": false,
          "internalType": "address",
          "name": "addr",
          "type": "address"
        }
      ],
      "name": "TransferAgentRemoved",
      "type": "event"
    },
    {
      "anonymous": false,
      "inputs": [
        {
          "indexed": false,
          "internalType": "address",
          "name": "from",
          "type": "address"
        },
        {
          "indexed": false,
          "internalType": "address",
          "name": "to",
          "type": "address"
        },
        {
          "indexed": false,
          "internalType": "uint256",
          "name": "value",
          "type": "uint256"
        }
      ],
      "name": "TransferFrom",
      "type": "event"
    },
    {
      "anonymous": false,
      "inputs": [
        {
          "indexed": false,
          "internalType": "address",
          "name": "addr",
          "type": "address"
        },
        {
          "indexed": false,
          "internalType": "bytes32",
          "name": "hash",
          "type": "bytes32"
        },
        {
          "indexed": false,
          "internalType": "address",
          "name": "sender",
          "type": "address"
        }
      ],
      "name": "VerifiedAddressAdded",
      "type": "event"
    },
    {
      "anonymous": false,
      "inputs": [
        {
          "indexed": false,
          "internalType": "address",
          "name": "addr",
          "type": "address"
        },
        {
          "indexed": false,
          "internalType": "address",
          "name": "sender",
          "type": "address"
        }
      ],
      "name": "VerifiedAddressRemoved",
      "type": "event"
    },
    {
      "anonymous": false,
      "inputs": [
        {
          "indexed": false,
          "internalType": "address",
          "name": "addr1",
          "type": "address"
        },
        {
          "indexed": false,
          "internalType": "address",
          "name": "addr2",
          "type": "address"
        },
        {
          "indexed": false,
          "internalType": "address",
          "name": "addr3",
          "type": "address"
        }
      ],
      "name": "VerifiedAddressSuperseded",
      "type": "event"
    },
    {
      "anonymous": false,
      "inputs": [
        {
          "indexed": false,
          "internalType": "address",
          "name": "addr",
          "type": "address"
        },
        {
          "indexed": false,
          "internalType": "bytes32",
          "name": "oldhash",
          "type": "bytes32"
        },
        {
          "indexed": false,
          "internalType": "bytes32",
          "name": "hash",
          "type": "bytes32"
        },
        {
          "indexed": false,
          "internalType": "address",
          "name": "sender",
          "type": "address"
        }
      ],
      "name": "VerifiedAddressUpdated",
      "type": "event"
    },
    {
      "inputs": [],
      "name": "INITIAL_SUPPLY",
      "outputs": [
        {
          "internalType": "uint256",
          "name": "",
          "type": "uint256"
        }
      ],
      "stateMutability": "view",
      "type": "function"
    },
    {
      "inputs": [],
      "name": "VERSION",
      "outputs": [
        {
          "internalType": "string",
          "name": "",
          "type": "string"
        }
      ],
      "stateMutability": "view",
      "type": "function"
    },
    {
      "inputs": [
        {
          "internalType": "address",
          "name": "",
          "type": "address"
        }
      ],
      "name": "balances",
      "outputs": [
        {
          "internalType": "uint256",
          "name": "",
          "type": "uint256"
        }
      ],
      "stateMutability": "view",
      "type": "function"
    },
    {
      "inputs": [],
      "name": "decimals",
      "outputs": [
        {
          "internalType": "uint8",
          "name": "",
          "type": "uint8"
        }
      ],
      "stateMutability": "view",
      "type": "function"
    },
    {
      "inputs": [],
      "name": "name",
      "outputs": [
        {
          "internalType": "string",
          "name": "",
          "type": "string"
        }
      ],
      "stateMutability": "view",
      "type": "function"
    },
    {
      "inputs": [],
      "name": "negative",
      "outputs": [
        {
          "internalType": "uint256",
          "name": "",
          "type": "uint256"
        }
      ],
      "stateMutability": "view",
      "type": "function"
    },
    {
      "inputs": [],
      "name": "parValue",
      "outputs": [
        {
          "internalType": "uint256",
          "name": "",
          "type": "uint256"
        }
      ],
      "stateMutability": "view",
      "type": "function"
    },
    {
      "inputs": [],
      "name": "symbol",
      "outputs": [
        {
          "internalType": "string",
          "name": "",
          "type": "string"
        }
      ],
      "stateMutability": "view",
      "type": "function"
    },
    {
      "inputs": [],
      "name": "totalSupply",
      "outputs": [
        {
          "internalType": "uint256",
          "name": "",
          "type": "uint256"
        }
      ],
      "stateMutability": "view",
      "type": "function"
    },
    {
      "inputs": [],
      "name": "totalValueMax",
      "outputs": [
        {
          "internalType": "uint256",
          "name": "",
          "type": "uint256"
        }
      ],
      "stateMutability": "view",
      "type": "function"
    },
    {
      "inputs": [
        {
          "internalType": "address",
          "name": "",
          "type": "address"
        },
        {
          "internalType": "uint256",
          "name": "",
          "type": "uint256"
        }
      ],
      "name": "transactions",
      "outputs": [
        {
          "internalType": "address",
          "name": "addr",
          "type": "address"
        },
        {
          "internalType": "uint256",
          "name": "amount",
          "type": "uint256"
        },
        {
          "internalType": "uint256",
          "name": "time",
          "type": "uint256"
        }
      ],
      "stateMutability": "view",
      "type": "function"
    },
    {
      "inputs": [
        {
          "internalType": "address",
          "name": "addr",
          "type": "address"
        }
      ],
      "name": "balanceOf",
      "outputs": [
        {
          "internalType": "uint256",
          "name": "",
          "type": "uint256"
        }
      ],
      "stateMutability": "view",
      "type": "function"
    },
    {
      "inputs": [
        {
          "internalType": "address",
          "name": "_owner",
          "type": "address"
        },
        {
          "internalType": "address",
          "name": "spender",
          "type": "address"
        }
      ],
      "name": "allowance",
      "outputs": [
        {
          "internalType": "uint256",
          "name": "",
          "type": "uint256"
        }
      ],
      "stateMutability": "view",
      "type": "function"
    },
    {
      "inputs": [
        {
          "internalType": "address",
          "name": "addr",
          "type": "address"
        }
      ],
      "name": "addMinter",
      "outputs": [],
      "stateMutability": "nonpayable",
      "type": "function"
    },
    {
      "inputs": [
        {
          "internalType": "address",
          "name": "addr",
          "type": "address"
        }
      ],
      "name": "addTransferAgent",
      "outputs": [],
      "stateMutability": "nonpayable",
      "type": "function"
    },
    {
      "inputs": [
        {
          "internalType": "address",
          "name": "addr",
          "type": "address"
        }
      ],
      "name": "removeTransferAgent",
      "outputs": [],
      "stateMutability": "nonpayable",
      "type": "function"
    },
    {
      "inputs": [
        {
          "internalType": "address",
          "name": "_to",
          "type": "address"
        },
        {
          "internalType": "uint256",
          "name": "_amount",
          "type": "uint256"
        }
      ],
      "name": "mint",
      "outputs": [
        {
          "internalType": "bool",
          "name": "",
          "type": "bool"
        }
      ],
      "stateMutability": "nonpayable",
      "type": "function"
    },
    {
      "inputs": [
        {
          "internalType": "uint256",
          "name": "timestamp",
          "type": "uint256"
        },
        {
          "internalType": "bool",
          "name": "_active",
          "type": "bool"
        }
      ],
      "name": "toggleExemptOffering",
      "outputs": [],
      "stateMutability": "nonpayable",
      "type": "function"
    },
    {
      "inputs": [
        {
          "internalType": "address",
          "name": "addr",
          "type": "address"
        }
      ],
      "name": "getTransactions",
      "outputs": [
        {
          "internalType": "string",
          "name": "",
          "type": "string"
        }
      ],
      "stateMutability": "view",
      "type": "function"
    },
    {
      "inputs": [
        {
          "internalType": "address",
          "name": "addr",
          "type": "address"
        },
        {
          "internalType": "uint256",
          "name": "index",
          "type": "uint256"
        }
      ],
      "name": "getTransactionByIndex",
      "outputs": [
        {
          "internalType": "string",
          "name": "",
          "type": "string"
        }
      ],
      "stateMutability": "view",
      "type": "function"
    },
    {
      "inputs": [],
      "name": "holderCount",
      "outputs": [
        {
          "internalType": "uint256",
          "name": "",
          "type": "uint256"
        }
      ],
      "stateMutability": "view",
      "type": "function"
    },
    {
      "inputs": [
        {
          "internalType": "uint256",
          "name": "index",
          "type": "uint256"
        }
      ],
      "name": "holderAt",
      "outputs": [
        {
          "internalType": "address",
          "name": "",
          "type": "address"
        }
      ],
      "stateMutability": "view",
      "type": "function"
    },
    {
      "inputs": [
        {
          "internalType": "address",
          "name": "addr",
          "type": "address"
        },
        {
          "internalType": "bytes32",
          "name": "hash",
          "type": "bytes32"
        }
      ],
      "name": "addVerified",
      "outputs": [],
      "stateMutability": "nonpayable",
      "type": "function"
    },
    {
      "inputs": [
        {
          "internalType": "address",
          "name": "addr",
          "type": "address"
        }
      ],
      "name": "removeVerified",
      "outputs": [],
      "stateMutability": "nonpayable",
      "type": "function"
    },
    {
      "inputs": [
        {
          "internalType": "address",
          "name": "addr",
          "type": "address"
        },
        {
          "internalType": "bytes32",
          "name": "hash",
          "type": "bytes32"
        }
      ],
      "name": "updateVerified",
      "outputs": [],
      "stateMutability": "nonpayable",
      "type": "function"
    },
    {
      "inputs": [
        {
          "internalType": "address",
          "name": "original",
          "type": "address"
        },
        {
          "internalType": "address",
          "name": "replacement",
          "type": "address"
        }
      ],
      "name": "cancelAndReissue",
      "outputs": [],
      "stateMutability": "nonpayable",
      "type": "function"
    },
    {
      "inputs": [
        {
          "internalType": "address",
          "name": "to",
          "type": "address"
        },
        {
          "internalType": "uint256",
          "name": "value",
          "type": "uint256"
        }
      ],
      "name": "transfer",
      "outputs": [
        {
          "internalType": "bool",
          "name": "",
          "type": "bool"
        }
      ],
      "stateMutability": "nonpayable",
      "type": "function"
    },
    {
      "inputs": [
        {
          "internalType": "address",
          "name": "from",
          "type": "address"
        },
        {
          "internalType": "address",
          "name": "to",
          "type": "address"
        },
        {
          "internalType": "uint256",
          "name": "value",
          "type": "uint256"
        }
      ],
      "name": "transferFrom",
      "outputs": [
        {
          "internalType": "bool",
          "name": "",
          "type": "bool"
        }
      ],
      "stateMutability": "nonpayable",
      "type": "function"
    },
    {
      "inputs": [
        {
          "internalType": "address",
          "name": "addr",
          "type": "address"
        }
      ],
      "name": "isVerified",
      "outputs": [
        {
          "internalType": "bool",
          "name": "",
          "type": "bool"
        }
      ],
      "stateMutability": "view",
      "type": "function"
    },
    {
      "inputs": [
        {
          "internalType": "address",
          "name": "addr",
          "type": "address"
        }
      ],
      "name": "isHolder",
      "outputs": [
        {
          "internalType": "bool",
          "name": "",
          "type": "bool"
        }
      ],
      "stateMutability": "view",
      "type": "function"
    },
    {
      "inputs": [
        {
          "internalType": "address",
          "name": "addr",
          "type": "address"
        },
        {
          "internalType": "bytes32",
          "name": "hash",
          "type": "bytes32"
        }
      ],
      "name": "hasHash",
      "outputs": [
        {
          "internalType": "bool",
          "name": "",
          "type": "bool"
        }
      ],
      "stateMutability": "view",
      "type": "function"
    },
    {
      "inputs": [
        {
          "internalType": "address",
          "name": "addr",
          "type": "address"
        }
      ],
      "name": "isSuperseded",
      "outputs": [
        {
          "internalType": "bool",
          "name": "",
          "type": "bool"
        }
      ],
      "stateMutability": "view",
      "type": "function"
    },
    {
      "inputs": [
        {
          "internalType": "address",
          "name": "addr",
          "type": "address"
        }
      ],
      "name": "getCurrentFor",
      "outputs": [
        {
          "internalType": "address",
          "name": "",
          "type": "address"
        }
      ],
      "stateMutability": "view",
      "type": "function"
    },
    {
      "inputs": [],
      "name": "buy",
      "outputs": [],
      "stateMutability": "payable",
      "type": "function"
    },
    {
      "inputs": [
        {
          "internalType": "address payable",
          "name": "sender",
          "type": "address"
        },
        {
          "internalType": "uint256",
          "name": "amount",
          "type": "uint256"
        }
      ],
      "name": "sell",
      "outputs": [],
      "stateMutability": "payable",
      "type": "function"
    }
  ],
  "bytecode": "0x60806040526000808055600b805460ff19908116909155600d91909155600f805490911660011790556301dfe20060105562eff1006011553480156200004457600080fd5b5042600e5560098054600160a060020a031916339081179091556200007290640100000000620000a4810204565b6009546200009d90600160a060020a031669152d02c7e14af6800000640100000000620001e3810204565b506200030c565b600954600160a060020a031633146200011e576040517f08c379a000000000000000000000000000000000000000000000000000000000815260206004820152600d60248201527f6163636573732064656e6965640000000000000000000000000000000000000060448201526064015b60405180910390fd5b600160a060020a03811662000190576040517f08c379a000000000000000000000000000000000000000000000000000000000815260206004820152601660248201527f6d697373696e67206d696e746572206164647265737300000000000000000000604482015260640162000115565b600160a060020a0381166000818152600660209081526040918290206001905590519182527f6ae172837ea30b801fbfcdd4108aa1d5bf8ff775444fd70256b44e6bf3dfc3f6910160405180910390a150565b6000805482111562000252576040517f08c379a000000000000000000000000000000000000000000000000000000000815260206004820152601460248201527f6578636565647320746f74616c20737570706c79000000000000000000000000604482015260640162000115565b600160a060020a038316600090815260046020526040812080548492906200027c908490620002cc565b909155505060408051600160a060020a0385168152602081018490527f30385c845b448a36257a6a1716e6ad2e1bc2cbe333cde1e69fe849ad6511adfe910160405180910390a150600192915050565b6000821982111562000307577f4e487b7100000000000000000000000000000000000000000000000000000000600052601160045260246000fd5b500190565b612b29806200031c6000396000f3fe608060405260043610610221576000357c0100000000000000000000000000000000000000000000000000000000900480634487b39211610135578063a6f2ae3a116100bd578063cc397ed31161008c578063cc397ed314610697578063d4d7b19a146106b7578063dd62ed3e146106ef578063f3221c7f14610735578063ffa1ad741461075557600080fd5b8063a6f2ae3a14610617578063a9059cbb1461061f578063b03145991461063f578063b9209e331461065f57600080fd5b806370a082311161010457806370a082311461054357806379f64720146105795780638bf140941461059957806395d89b41146105ae578063983b2d56146105f757600080fd5b80634487b392146104d057806347089f62146104f0578063610db94e146105105780636c197ff51461053057600080fd5b806323b872dd116101b85780632da7293e116101875780632da7293e1461042b5780632ff2e9dc1461044b578063313ce56714610469578063354b7b1d1461049057806340c10f19146104b057600080fd5b806323b872dd1461039357806327e235e3146103c35780632ab2efc8146103f05780632cea64bf1461041057600080fd5b8063197bc336116101f4578063197bc3361461030e5780631aab9a9f146103465780631cb3ef1f1461035b5780631fb716e41461037157600080fd5b806306fdde03146102265780630f8cda201461028557806314538128146102a557806318160ddd146102ea575b600080fd5b34801561023257600080fd5b5061026f6040518060400160405280600e81526020017f52756c652031343720546f6b656e00000000000000000000000000000000000081525081565b60405161027c91906126f1565b60405180910390f35b34801561029157600080fd5b5061026f6102a0366004612719565b61079e565b3480156102b157600080fd5b506102c56102c0366004612736565b61090f565b60408051600160a060020a03909416845260208401929092529082015260600161027c565b3480156102f657600080fd5b5061030060005481565b60405190815260200161027c565b34801561031a57600080fd5b5061032e610329366004612762565b61095b565b604051600160a060020a03909116815260200161027c565b34801561035257600080fd5b506103006109e7565b34801561036757600080fd5b5061030060001981565b34801561037d57600080fd5b5061039161038c36600461277b565b610a1e565b005b34801561039f57600080fd5b506103b36103ae3660046127b0565b610b73565b604051901515815260200161027c565b3480156103cf57600080fd5b506103006103de366004612719565b60046020526000908152604090205481565b3480156103fc57600080fd5b5061026f61040b366004612736565b610de5565b34801561041c57600080fd5b506103006611c37937e0800081565b34801561043757600080fd5b506103b3610446366004612719565b610fac565b34801561045757600080fd5b5061030069152d02c7e14af680000081565b34801561047557600080fd5b5061047e600081565b60405160ff909116815260200161027c565b34801561049c57600080fd5b506103916104ab366004612736565b610ffd565b3480156104bc57600080fd5b506103b36104cb366004612736565b611121565b3480156104dc57600080fd5b506103916104eb366004612719565b611304565b3480156104fc57600080fd5b5061039161050b366004612736565b611403565b34801561051c57600080fd5b5061039161052b366004612719565b611575565b61039161053e366004612736565b6116ae565b34801561054f57600080fd5b5061030061055e366004612719565b600160a060020a031660009081526004602052604090205490565b34801561058557600080fd5b506103916105943660046127f1565b6119d8565b3480156105a557600080fd5b50610300611c05565b3480156105ba57600080fd5b5061026f6040518060400160405280600981526020017f544f4b454e2e313437000000000000000000000000000000000000000000000081525081565b34801561060357600080fd5b50610391610612366004612719565b611c1c565b610391611cef565b34801561062b57600080fd5b506103b361063a366004612736565b611eb0565b34801561064b57600080fd5b5061039161065a366004612719565b612121565b34801561066b57600080fd5b506103b361067a366004612719565b600160a060020a0316600090815260016020526040902054151590565b3480156106a357600080fd5b5061032e6106b2366004612719565b6121fb565b3480156106c357600080fd5b506103b36106d2366004612719565b600160a060020a0316600090815260036020526040902054151590565b3480156106fb57600080fd5b5061030061070a3660046127f1565b600160a060020a03918216600090815260076020908152604080832093909416825291909152205490565b34801561074157600080fd5b506103b3610750366004612736565b612234565b34801561076157600080fd5b5061026f6040518060400160405280600581526020017f312e302e3500000000000000000000000000000000000000000000000000000081525081565b600954606090600160a060020a031633146107d75760405160e560020a62461bcd0281526004016107ce9061281f565b60405180910390fd5b604080516020810190915260008082525b600160a060020a03841660009081526008602052604090205481101561090857600160a060020a038416600090815260086020526040902080548391908390811061083557610835612856565b60009182526020808320600390920290910154600160a060020a0388811684526008909252604090922080549190921691908490811061087757610877612856565b9060005260206000209060030201600101546008600088600160a060020a0316600160a060020a0316815260200190815260200160002084815481106108bf576108bf612856565b9060005260206000209060030201600201546040516020016108e49493929190612885565b6040516020818303038152906040529150808061090090612978565b9150506107e8565b5092915050565b6008602052816000526040600020818154811061092b57600080fd5b6000918252602090912060039091020180546001820154600290920154600160a060020a03909116935090915083565b600954600090600160a060020a0316331461098b5760405160e560020a62461bcd0281526004016107ce9061281f565b600a5482106109b95760405160e560020a62461bcd02815260206004820152600060248201526044016107ce565b600a82815481106109cc576109cc612856565b600091825260209091200154600160a060020a031692915050565b600954600090600160a060020a03163314610a175760405160e560020a62461bcd0281526004016107ce9061281f565b50600a5490565b600954600160a060020a03163314610a4b5760405160e560020a62461bcd0281526004016107ce9061281f565b600c829055600b805460ff191682151590811790915560ff1615610b025733600160a060020a03167fb9c39a906441691d138569e18a2c9766e29c5def7618306a8f07d7dc1f34627b6040518060400160405280600e81526020017f52756c652031343720546f6b656e000000000000000000000000000000000000815250604051602001610ada9190612993565b60408051601f1981840301815290829052610af69186906129d4565b60405180910390a25050565b33600160a060020a03167fb9c39a906441691d138569e18a2c9766e29c5def7618306a8f07d7dc1f34627b6040518060400160405280600e81526020017f52756c652031343720546f6b656e000000000000000000000000000000000000815250604051602001610ada91906129f6565b600b5460009060ff16610b9b5760405160e560020a62461bcd0281526004016107ce90612a37565b600160a060020a0383166000908152600160205260409020548390610bdf5760405160e560020a62461bcd02815260206004820152600060248201526044016107ce565b846000805b600160a060020a038316600090815260086020526040902054811015610ca657601154600160a060020a0384166000908152600860205260409020805483908110610c3157610c31612856565b906000526020600020906003020160020154610c4d9190612a6e565b600160a060020a0384166000908152600860205260409020805483908110610c7757610c77612856565b9060005260206000209060030201600201541115610c9457600191505b80610c9e81612978565b915050610be4565b5080610cc75760405160e560020a62461bcd0281526004016107ce90612a86565b610cd08661226c565b610cda87866122e6565b6040805160608082018352600160a060020a0389811680845260208085018b8152428688019081526000938452600883528784208054600180820183559186529484902088516003909602018054600160a060020a0319169587169590951785559151918401919091555160029092019190915584519283019094528a16815290918101610d6a88600019612abd565b815242602091820152600160a060020a038a811660009081526008835260408082208054600180820183559184529285902086516003909402018054600160a060020a031916939094169290921783559284015190820155908201516002909101559050610dd9888888612425565b98975050505050505050565b600954606090600160a060020a03163314610e155760405160e560020a62461bcd0281526004016107ce9061281f565b600160a060020a0383166000908152600860205260409020805483908110610e3f57610e3f612856565b60009182526020808320600390920290910154600160a060020a03868116845260089092526040909220805491909216919084908110610e8157610e81612856565b9060005260206000209060030201600101546008600086600160a060020a0316600160a060020a031681526020019081526020016000208481548110610ec957610ec9612856565b906000526020600020906003020160020154604051602001610f94939291907f5b000000000000000000000000000000000000000000000000000000000000008152600160a060020a03939093166c010000000000000000000000000260018401527f2c00000000000000000000000000000000000000000000000000000000000000601584018190526016840192909252603683019190915260378201527f5d00000000000000000000000000000000000000000000000000000000000000605782015260580190565b60405160208183030381529060405290505b92915050565b600954600090600160a060020a03163314610fdc5760405160e560020a62461bcd0281526004016107ce9061281f565b50600160a060020a0390811660009081526002602052604090205416151590565b600954600160a060020a0316331461102a5760405160e560020a62461bcd0281526004016107ce9061281f565b600160a060020a038216600090815260016020526040902054829061106e5760405160e560020a62461bcd02815260206004820152600060248201526044016107ce565b816110985760405160e560020a62461bcd02815260206004820152600060248201526044016107ce565b600160a060020a03831660009081526001602052604090205482811461111b57600160a060020a0384166000818152600160209081526040918290208690558151928352820183905281018490523360608201527f63ec12603f028c6f74dc3c59a67d645d431250142b56676015d25475ee3fc3d3906080015b60405180910390a15b50505050565b600b5460009060ff166111495760405160e560020a62461bcd0281526004016107ce90612a37565b600954600160a060020a031633146111765760405160e560020a62461bcd0281526004016107ce9061281f565b336000908152600660205260409020546001146111d85760405160e560020a62461bcd02815260206004820152600c60248201527f6e6f742061206d696e746572000000000000000000000000000000000000000060448201526064016107ce565b600160a060020a038316600090815260016020526040902054839061121c5760405160e560020a62461bcd02815260206004820152600060248201526044016107ce565b826611c37937e0800081116112765760405160e560020a62461bcd02815260206004820152601960248201527f616d6f756e742069732062656c6f77207061722076616c75650000000000000060448201526064016107ce565b61127f8561226c565b60408051606081018252600160a060020a038781168083526020808401898152428587019081526000938452600883529583208054600180820183559185529290932085516003909302018054600160a060020a03191692909416919091178355519082015591516002909201919091556112fa868661253e565b9695505050505050565b600954600160a060020a031633146113315760405160e560020a62461bcd0281526004016107ce9061281f565b600160a060020a038116311561138c5760405160e560020a62461bcd02815260206004820152601b60248201527f6163636f756e742062616c616e6365206973206e6f74207a65726f000000000060448201526064016107ce565b600160a060020a0381166000908152600160205260409020541561140057600160a060020a038116600081815260016020908152604080832092909255815192835233908301527f8071c01a493142de896a206c19ca180d32e91d6486fcf11ea299f569f5d922b591015b60405180910390a15b50565b600954600160a060020a031633146114305760405160e560020a62461bcd0281526004016107ce9061281f565b600160a060020a03808316600090815260026020526040902054839116156114775760405160e560020a62461bcd02815260206004820152600060248201526044016107ce565b600160a060020a0383166114aa5760405160e560020a62461bcd02815260206004820152600060248201526044016107ce565b816114d45760405160e560020a62461bcd02815260206004820152600060248201526044016107ce565b600160a060020a038316600090815260016020526040902054156115175760405160e560020a62461bcd02815260206004820152600060248201526044016107ce565b600160a060020a038316600081815260016020908152604091829020859055815192835282018490523382820152517fb4f9d1d687d745820ae7c948518d6eef182cfbf5ef20b5b6a33769059592e7c89181900360600190a1505050565b600954600160a060020a031633146115a25760405160e560020a62461bcd0281526004016107ce9061281f565b600160a060020a038116156115fc5760405160e560020a62461bcd02815260206004820152601e60248201527f6d697373696e67207472616e73666572206167656e742061646472657373000060448201526064016107ce565b600954600160a060020a038281169116141561165d5760405160e560020a62461bcd02815260206004820152601760248201527f63616e6e6f742072656d6f766520746865206f776e657200000000000000000060448201526064016107ce565b600160a060020a038116600081815260056020908152604091829020805460ff1916905590519182527f2a6c8fd6a904ef448050f3dd3c91d69c89f6029c4144371b887bc536b34f6caa91016113f7565b600b5460ff166116d35760405160e560020a62461bcd0281526004016107ce90612a37565b600160a060020a03821660009081526001602052604090205482906117175760405160e560020a62461bcd02815260206004820152600060248201526044016107ce565b826000805b600160a060020a0383166000908152600860205260409020548110156117de57601154600160a060020a038416600090815260086020526040902080548390811061176957611769612856565b9060005260206000209060030201600201546117859190612a6e565b600160a060020a03841660009081526008602052604090208054839081106117af576117af612856565b90600052602060002090600302016002015411156117cc57600191505b806117d681612978565b91505061171c565b50806117ff5760405160e560020a62461bcd0281526004016107ce90612a86565b600084116118785760405160e560020a62461bcd02815260206004820152602560248201527f596f75206e65656420746f2073656c6c206174206c6561737420736f6d65207460448201527f6f6b656e7300000000000000000000000000000000000000000000000000000060648201526084016107ce565b600160a060020a0385166000908152600760209081526040808320308452909152902054848110156118ef5760405160e560020a62461bcd02815260206004820152601960248201527f436865636b2074686520746f6b656e20616c6c6f77616e63650000000000000060448201526064016107ce565b6118fa863087610b73565b5060408051606081018252600160a060020a0388811680835260208084018a81524285870190815260008481526008845287812080546001808201835591835294822088516003909602018054600160a060020a03191695909716949094178655915192850192909255905160029093019290925592519192916108fc89150291899190818181858888f1935050505015801561199b573d6000803e3d6000fd5b506040518681527f92f64ca637d023f354075a4be751b169c1a8a9ccb6d33cdd0cb35205439957279060200160405180910390a150505050505050565b600b5460ff166119fd5760405160e560020a62461bcd0281526004016107ce90612a37565b600954600160a060020a03163314611a2a5760405160e560020a62461bcd0281526004016107ce9061281f565b600160a060020a0382166000908152600360205260409020548290611a6e5760405160e560020a62461bcd02815260206004820152600060248201526044016107ce565b600160a060020a038216600090815260036020526040902054829015611ab35760405160e560020a62461bcd02815260206004820152600060248201526044016107ce565b600160a060020a0383166000908152600160205260409020548390611af75760405160e560020a62461bcd02815260206004820152600060248201526044016107ce565b600160a060020a038581166000908152600160208181526040808420849055600282528084208054600160a060020a031916958a169590951790945560039052918120549091611b4691612adc565b905084600a8281548110611b5c57611b5c612856565b60009182526020808320919091018054600160a060020a031916600160a060020a039485161790558883168083526003825260408084208054958b1680865282862096909655828552849055600483528084208054868652828620558285529390935582519081529081019290925233908201527fb64971100522354f3d25283cb14e2eefcb0dd26a757482ccfe42479d0a6868579060600160405180910390a1505050505050565b611c196611c37937e08000620186a0612abd565b81565b600954600160a060020a03163314611c495760405160e560020a62461bcd0281526004016107ce9061281f565b600160a060020a038116611ca25760405160e560020a62461bcd02815260206004820152601660248201527f6d697373696e67206d696e74657220616464726573730000000000000000000060448201526064016107ce565b600160a060020a0381166000818152600660209081526040918290206001905590519182527f6ae172837ea30b801fbfcdd4108aa1d5bf8ff775444fd70256b44e6bf3dfc3f691016113f7565b600b5460ff16611d145760405160e560020a62461bcd0281526004016107ce90612a37565b33600081815260016020526040902054611d4d5760405160e560020a62461bcd02815260206004820152600060248201526044016107ce565b30600090815260046020526040902054349081611daf5760405160e560020a62461bcd02815260206004820152601b60248201527f596f75206e65656420746f2073656e6420736f6d65206574686572000000000060448201526064016107ce565b80821115611e025760405160e560020a62461bcd02815260206004820181905260248201527f4e6f7420656e6f75676820746f6b656e7320696e20746865207265736572766560448201526064016107ce565b60408051606081018252338082526020808301868152428486019081526000848152600884529586208054600180820183559188529390962085516003909402018054600160a060020a031916600160a060020a03909416939093178355905194820194909455925160029093019290925590611e7f9084611eb0565b506040518381527f4e08ba899977cf7d4c2964bce71c6b9a7ef76ee5166a4c1249a1e08016e33ef190602001611112565b600b5460009060ff16611ed85760405160e560020a62461bcd0281526004016107ce90612a37565b600160a060020a0383166000908152600160205260409020548390611f1c5760405160e560020a62461bcd02815260206004820152600060248201526044016107ce565b836000805b600160a060020a038316600090815260086020526040902054811015611fe357601154600160a060020a0384166000908152600860205260409020805483908110611f6e57611f6e612856565b906000526020600020906003020160020154611f8a9190612a6e565b600160a060020a0384166000908152600860205260409020805483908110611fb457611fb4612856565b9060005260206000209060030201600201541115611fd157600191505b80611fdb81612978565b915050611f21565b50806120045760405160e560020a62461bcd0281526004016107ce90612a86565b61200d8661226c565b61201733866122e6565b6040805160608082018352600160a060020a0389811680845260208085018b8152428688019081526000938452600883528784208054600180820183559186529484902088516003909602018054600160a060020a0319169590961694909417855590519284019290925590516002909201919091558351918201909352338152909181016120a888600019612abd565b8152426020918201523360009081526008825260408082208054600180820183559184529284902085516003909402018054600160a060020a031916600160a060020a039094169390931783559284015192820192909255908201516002909101559050612116878761260d565b979650505050505050565b600954600160a060020a0316331461214e5760405160e560020a62461bcd0281526004016107ce9061281f565b600160a060020a0381166121a75760405160e560020a62461bcd02815260206004820152601e60248201527f6d697373696e67207472616e73666572206167656e742061646472657373000060448201526064016107ce565b600160a060020a038116600081815260056020908152604091829020805460ff1916600117905590519182527f1e9fcacb7052d8badc53a7061f6dc79beafe00b872cc7d0a57c541023eb9eabc91016113f7565b600954600090600160a060020a0316331461222b5760405160e560020a62461bcd0281526004016107ce9061281f565b610fa682612660565b6000600160a060020a03831661224c57506000610fa6565b50600160a060020a03919091166000908152600160205260409020541490565b600160a060020a03811660009081526003602052604090205461140057600a805460018181019092557fc65a7bb8d6351c1cf70c95a316cc6a92839c986682d98bc35f958f4883f9d2a8018054600160a060020a038416600160a060020a0319909116811790915560009081526003602052604090205550565b60006122fc82600160a060020a03851631612adc565b9050801561230957505050565b600160a060020a03831660009081526003602052604081205461232e90600190612adc565b600a5490915060009061234390600190612adc565b90506000600a828154811061235a5761235a612856565b600091825260209091200154600a8054600160a060020a03909216925082918590811061238957612389612856565b60009182526020808320919091018054600160a060020a031916600160a060020a039485161790558883168252600390526040808220549284168252902055600a80546123d890600190612adc565b815481106123e8576123e8612856565b600091825260208083209091018054600160a060020a0319169055600160a060020a03979097168152600390965250506040842093909355505050565b600160a060020a038316600090815260046020526040812054821061248f5760405160e560020a62461bcd02815260206004820152601460248201527f696e73756666696369656e742062616c616e636500000000000000000000000060448201526064016107ce565b600160a060020a038316600090815260046020526040812080548492906124b7908490612a6e565b9091555050600160a060020a038416600090815260046020526040812080548492906124e4908490612adc565b909155505060408051600160a060020a038087168252851660208201529081018390527fc0d84ce5c7ff9ca21adb0f8436ff3f4951b4bb78c4e2fae2b6837958b3946ffd9060600160405180910390a15060019392505050565b600080548211156125945760405160e560020a62461bcd02815260206004820152601460248201527f6578636565647320746f74616c20737570706c7900000000000000000000000060448201526064016107ce565b600160a060020a038316600090815260046020526040812080548492906125bc908490612a6e565b909155505060408051600160a060020a0385168152602081018490527f30385c845b448a36257a6a1716e6ad2e1bc2cbe333cde1e69fe849ad6511adfe91015b60405180910390a150600192915050565b600160a060020a0382166000818152600460209081526040808320859055805193845290830184905290917f69ca02dd4edd7bf0a4abb9ed3b7af3f14778db5d61921c7dc7cd545266326de291016125fc565b600160a060020a0380821660009081526002602052604081205490911680612689575090919050565b61269281612660565b9392505050565b60005b838110156126b457818101518382015260200161269c565b8381111561111b5750506000910152565b600081518084526126dd816020860160208601612699565b601f01601f19169290920160200192915050565b60208152600061269260208301846126c5565b600160a060020a038116811461140057600080fd5b60006020828403121561272b57600080fd5b813561269281612704565b6000806040838503121561274957600080fd5b823561275481612704565b946020939093013593505050565b60006020828403121561277457600080fd5b5035919050565b6000806040838503121561278e57600080fd5b82359150602083013580151581146127a557600080fd5b809150509250929050565b6000806000606084860312156127c557600080fd5b83356127d081612704565b925060208401356127e081612704565b929592945050506040919091013590565b6000806040838503121561280457600080fd5b823561280f81612704565b915060208301356127a581612704565b6020808252600d908201527f6163636573732064656e69656400000000000000000000000000000000000000604082015260600190565b7f4e487b7100000000000000000000000000000000000000000000000000000000600052603260045260246000fd5b60008551612897818460208a01612699565b7f5b00000000000000000000000000000000000000000000000000000000000000920191825250600160a060020a03939093166c010000000000000000000000000260018401527f2c00000000000000000000000000000000000000000000000000000000000000601584018190526016840192909252603683019190915260378201527f5d000000000000000000000000000000000000000000000000000000000000006057820152605801919050565b7f4e487b7100000000000000000000000000000000000000000000000000000000600052601160045260246000fd5b600060001982141561298c5761298c612949565b5060010190565b600082516129a5818460208701612699565b7f2068617320737461727465640000000000000000000000000000000000000000920191825250600c01919050565b6040815260006129e760408301856126c5565b90508260208301529392505050565b60008251612a08818460208701612699565b7f206861732073746f707065640000000000000000000000000000000000000000920191825250600c01919050565b6020808252601d908201527f6578656d7074206f66666572696e67206973206e6f7420616374697665000000604082015260600190565b60008219821115612a8157612a81612949565b500190565b6020808252601a908201527f686f6c64696e6720706572696f64206973206e6f74206f766572000000000000604082015260600190565b6000816000190483118215151615612ad757612ad7612949565b500290565b600082821015612aee57612aee612949565b50039056fea26469706673582212202e7a154ac408346c35a792c5b56a07d47ae07fdee367fdf3ffbb6f1c0140d37464736f6c634300080a0033",
  "immutableReferences": {},
  "source": "// SPDX-License-Identifier: CC-BY-4.0\npragma solidity >=0.4.22 <0.9.0;\n\n/**\n * Intrastate: Rule 147\n * --------------------\n * See https://www.sec.gov/smallbusiness/exemptofferings/intrastateofferings\n *\n * Rule 147 is considered a safe harbor under Section 3(a)(11),\n * providing objective standards that a company can rely on to meet the requirements of\n * that exemption. Rule 147, as amended, has the following requirements:\n *\n *  - the company must be organized in the state where it offers and sells securities\n *  - the company must have its principal place of business in-state and satisfy at least one doing business requirement that demonstrates the in-state\n *    nature of the companys business\n *  - offers and sales of securities can only be made to in-state residents or persons who the company reasonably believes are in-state residents and\n *  - the company obtains a written representation from each purchaser providing the residency of that purchaser\n *\n * Securities purchased in an offering under Rule 147 limit resales to persons residing within the state of the offering for a period of six months\n * from the date of the sale by the issuer to the purchaser. In addition, a company must comply with state securities laws and regulations in the states\n * in which securities are offered or sold.\n * \n * Intrastate: Rule 147A\n * ---------------------\n * See https://www.sec.gov/smallbusiness/exemptofferings/intrastateofferings\n *\n * Rule 147A is a new intrastate offering exemption adopted by the Commission in\n * October 2016. Rule 147A is substantially identical to Rule 147 except that Rule 147A:\n *\n *  - allows offers to be accessible to out-of-state residents, so long sales are only made to in-state residents and\n *  - permits a company to be incorporated or organized out-of-state, so long as the company has its principal place of business in-state\n *    and satisfies at least one doing business requirement that demonstrates the in-state nature of the companys business\n */\n\n/**\n* Under 147\n* ---------\n* Example: a company must be incorporated and doing business in Florida and can only offer a private equity exempt offering to the residents of\n* Florida ONLY!\n*\n* Under 147-A\n* -----------\n* Example: a company may be incorporated in Delaware and doing business in Florida, and hence may offer private equity sales in Florida as long as\n* they meet the \"doing business\" criteria. If business meets the \"doing business\" requirement for both states, then a private equity offering\n* may be offered to the residents of both the state of Delaware and Florida.\n*/\n\nimport \"../Version.sol\";\n\ncontract ExemptEquityOffering147 is Version {\n    string public constant name = \"Rule 147 Token\";\n    string public constant symbol = \"TOKEN.147\";\n    uint8 public constant decimals = 0;\n    uint256 public totalSupply = 0;\n\n    uint256 public constant negative = type(uint256).max;\n\n    uint public constant INITIAL_SUPPLY = 100000 * 1 ether;\n\n    bytes32 constant private ZERO_BYTES = bytes32(0);\n    address constant private ZERO_ADDRESS = address(0);\n\n    mapping(address => bytes32) private verified;\n    mapping(address => address) private cancellations;\n    mapping(address => uint256) private holderIndices;\n    mapping (address => uint256) public balances;\n    mapping(address => bool) private transferagents;\n    mapping(address => uint256) private minters;\n    mapping(address => mapping(address => uint256)) private _allowances;\n\n    struct Transaction {\n        address addr;\n        uint256 amount;\n        uint256 time;\n    }\n\n    mapping(address => Transaction[]) public transactions;\n\n    address private owner;\n\n    address[] private shareholders;\n\n    bool internal active = false;\n    uint256 private start_timestamp;\n    event ExemptOffering(address indexed from,string status, uint256 value);\n    event Transfer(address addr, uint256 amount);\n    event TransferFrom(address from,address to,uint256 value);\n    event TransferAgentAdded(address addr);\n    event TransferAgentRemoved(address addr);\n    event MinterAdded(address addr);\n    event Minted(address addr, uint256 amount);\n    event VerifiedAddressSuperseded(address addr1,address addr2,address addr3);\n    event VerifiedAddressUpdated(address addr, bytes32 oldhash, bytes32 hash, address sender);\n    event VerifiedAddressRemoved(address addr, address sender);\n    event VerifiedAddressAdded(address addr, bytes32 hash, address sender);\n\n    uint constant public parValue = 5 * 0.001 ether;\n    uint constant public totalValueMax = 100000 * parValue;\n    uint private totalValue = 0;\n\n    uint256 private contract_creation; // The contract creation time\n\n    bool private restricted = true;\n\n    uint private year = 52 weeks;\n    uint private sixmonths = 26 weeks;\n\n    event Bought(uint value);\n    event Sold(uint value);\n\n    constructor()\n    {\n        contract_creation = block.timestamp;\n        owner = msg.sender;\n        addMinter(owner);\n        _mint(owner, INITIAL_SUPPLY);\n    }\n\n    modifier onlyOwner() {\n        require(msg.sender == owner, \"access denied\");\n        _;\n    }\n\n    modifier isMinter() {\n      require(minters[msg.sender] == 1,\"not a minter\");\n      _;\n    }\n\n    modifier isActive() {\n        require(active, \"exempt offering is not active\");\n        _;\n    }\n\n    modifier isVerifiedAddress(address addr) {\n        require(verified[addr] != ZERO_BYTES, \"\");\n        _;\n    }\n\n    modifier isShareholder(address addr) {\n        require(holderIndices[addr] != 0, \"\");\n        _;\n    }\n\n    modifier isNotShareholder(address addr) {\n        require(holderIndices[addr] == 0, \"\");\n        _;\n    }\n\n    modifier isNotCancelled(address addr) {\n        require(cancellations[addr] == ZERO_ADDRESS, \"\");\n        _;\n    }\n\n    modifier isOfferingExpired() {\n      require(block.timestamp < (contract_creation + sixmonths),\"offering has expired!\");\n      _;\n    }\n\n    modifier isPriceBelowParValue(uint amount) {\n      require(amount > parValue, \"amount is below par value\");\n      _;\n    }\n\n    modifier isRestrictedSecurity() {\n      require(restricted != false, \"security is restricted\");\n      _;\n    }\n\n    modifier isHoldingPeriodOver(address addr) {\n        bool over = false;\n        for (uint i = 0; i < transactions[addr].length; i++) {\n            if (transactions[addr][i].time > (transactions[addr][i].time + sixmonths)) {\n                over = true;\n            }\n        }\n        require (over, \"holding period is not over\");\n        _;\n    }\n    function balanceOf(address addr)\n      public\n      view\n      returns (uint256)\n    {\n      return balances[addr];\n    }\n\n    function allowance(address _owner, address spender)\n      public\n      view\n      returns (uint256)\n    {\n        return _allowances[_owner][spender];\n    }\n\n    function addMinter(address addr)\n      public\n      onlyOwner\n    {\n      require(addr != ZERO_ADDRESS, \"missing minter address\");\n      minters[addr] = 1;\n      emit MinterAdded(addr);\n    }\n\n    function addTransferAgent(address addr)\n        public\n        onlyOwner\n    {\n        require(addr != ZERO_ADDRESS, \"missing transfer agent address\");\n        transferagents[addr] = true;\n        emit TransferAgentAdded(addr);\n    }\n\n    function removeTransferAgent(address addr)\n        public\n        onlyOwner\n    {\n        require(addr == ZERO_ADDRESS,\"missing transfer agent address\");\n        require(addr != owner,\"cannot remove the owner\");\n        transferagents[addr] = false;\n        emit TransferAgentRemoved(addr);\n    }\n\n    /**\n     * As each token is minted it is added to the shareholders array.\n     * @param _to The address that will receive the minted tokens.\n     * @param _amount The amount of tokens to mint.\n     * @return A boolean that indicates if the operation was successful.\n     */\n    function mint(address _to, uint256 _amount)\n        public\n        isActive\n        onlyOwner\n        isMinter\n        isVerifiedAddress(_to)\n        isPriceBelowParValue(_amount)\n        returns (bool)\n    {\n        // if the address does not already own share then\n        // add the address to the shareholders array and record the index.\n        updateShareholders(_to);\n        Transaction memory trans = Transaction(_to, _amount, block.timestamp);\n        transactions[_to].push(trans);\n        return _mint(_to, _amount);\n    }\n\n    function toggleExemptOffering(uint256 timestamp, bool _active)\n        public\n        onlyOwner\n    {\n        start_timestamp = timestamp;\n        active = _active;\n\n        if (active) {\n            emit ExemptOffering(msg.sender, string(abi.encodePacked(name, \" has started\")), timestamp);\n        } else {\n            emit ExemptOffering(msg.sender, string(abi.encodePacked(name, \" has stopped\")), timestamp);\n        }\n    }\n\n    function getTransactions(address addr) public view onlyOwner returns (string memory) {\n        string memory output = \"\";\n        for (uint i = 0; i < transactions[addr].length; i++) {\n            output = string(\n                abi.encodePacked(output, \"[\", transactions[addr][i].addr, \",\", transactions[addr][i].amount, \",\",  transactions[addr][i].time, \"]\")\n            );\n        }\n        return output;\n    }\n\n    function getTransactionByIndex(address addr, uint index) public view onlyOwner returns (string memory) {\n        return string(abi.encodePacked(\n            \"[\", transactions[addr][index].addr, \",\", transactions[addr][index].amount, \",\", transactions[addr][index].time, \"]\"\n        ));\n    }\n\n    /**\n     *  The number of addresses that own tokens.\n     *  @return the number of unique addresses that own tokens.\n     */\n    function holderCount()\n        public\n        onlyOwner\n        view\n        returns (uint)\n    {\n        return shareholders.length;\n    }\n\n    /**\n     *  By counting the number of token holders using `holderCount`\n     *  you can retrieve the complete list of token holders, one at a time.\n     *  It MUST throw if `index >= holderCount()`.\n     *  @param index The zero-based index of the holder.\n     *  @return the address of the token holder with the given index.\n     */\n    function holderAt(uint256 index)\n        public\n        onlyOwner\n        view\n        returns (address)\n    {\n        require(index < shareholders.length, \"\");\n        return shareholders[index];\n    }\n\n    /**\n     *  Add a verified address, along with an associated verification hash to the contract.\n     *  Upon successful addition of a verified address, the contract must emit\n     *  `VerifiedAddressAdded(addr, hash, msg.sender)`.\n     *  It MUST throw if the supplied address or hash are zero, or if the address has already been supplied.\n     *  @param addr The address of the person represented by the supplied hash.\n     *  @param hash A cryptographic hash of the address holder's verified information.\n     */\n    function addVerified(address addr, bytes32 hash)\n        public\n        onlyOwner\n        isNotCancelled(addr)\n    {\n        require(addr != ZERO_ADDRESS, \"\");\n        require(hash != ZERO_BYTES, \"\");\n        require(verified[addr] == ZERO_BYTES, \"\");\n        verified[addr] = hash;\n        emit VerifiedAddressAdded(addr, hash, msg.sender);\n    }\n\n    /**\n     *  Remove a verified address, and the associated verification hash. If the address is\n     *  unknown to the contract then this does nothing. If the address is successfully removed, this\n     *  function must emit `VerifiedAddressRemoved(addr, msg.sender)`.\n     *  It MUST throw if an attempt is made to remove a verifiedAddress that owns Tokens.\n     *  @param addr The verified address to be removed.\n     */\n    function removeVerified(address addr)\n        public\n        onlyOwner\n    {\n        require(addr.balance == 0, \"account balance is not zero\");\n        if (verified[addr] != ZERO_BYTES) {\n            verified[addr] = ZERO_BYTES;\n            emit VerifiedAddressRemoved(addr, msg.sender);\n        }\n    }\n\n    /**\n     *  Update the hash for a verified address known to the contract.\n     *  Upon successful update of a verified address the contract must emit\n     *  `VerifiedAddressUpdated(addr, oldHash, hash, msg.sender)`.\n     *  If the hash is the same as the value already stored then\n     *  no `VerifiedAddressUpdated` event is to be emitted.\n     *  It MUST throw if the hash is zero, or if the address is unverified.\n     *  @param addr The verified address of the person represented by the supplied hash.\n     *  @param hash A new cryptographic hash of the address holder's updated verified information.\n     */\n    function updateVerified(address addr, bytes32 hash)\n        public\n        onlyOwner\n        isVerifiedAddress(addr)\n    {\n        require(hash != ZERO_BYTES, \"\");\n        bytes32 oldHash = verified[addr];\n        if (oldHash != hash) {\n            verified[addr] = hash;\n            emit VerifiedAddressUpdated(addr, oldHash, hash, msg.sender);\n        }\n    }\n\n    /**\n     *  Cancel the original address and reissue the Tokens to the replacement address.\n     *  Access to this function MUST be strictly controlled.\n     *  The `original` address MUST be removed from the set of verified addresses.\n     *  Throw if the `original` address supplied is not a shareholder.\n     *  Throw if the replacement address is not a verified address.\n     *  This function MUST emit the `VerifiedAddressSuperseded` event.\n     *  @param original The address to be superseded. This address MUST NOT be reused.\n     *  @param replacement The address  that supersedes the original. This address MUST be verified.\n     */\n    function cancelAndReissue(address original, address replacement)\n        public\n        isActive\n        onlyOwner\n        isShareholder(original)\n        isNotShareholder(replacement)\n        isVerifiedAddress(replacement)\n    {\n        // replace the original address in the shareholders array\n        // and update all the associated mappings\n        verified[original] = ZERO_BYTES;\n        cancellations[original] = replacement;\n        uint256 holderIndex = holderIndices[original] - 1;\n        shareholders[holderIndex] = replacement;\n        holderIndices[replacement] = holderIndices[original];\n        holderIndices[original] = 0;\n        balances[replacement] = balances[original];\n        balances[original] = 0;\n        emit VerifiedAddressSuperseded(original, replacement, msg.sender);\n    }\n\n    /**\n     *  The `transfer` function MUST NOT allow transfers to addresses that\n     *  have not been verified and added to the contract.\n     *  If the `to` address is not currently a shareholder then it MUST become one.\n     *  If the transfer will reduce `msg.sender`'s balance to 0 then that address\n     *  MUST be removed from the list of shareholders.\n     */\n    function transfer(address to, uint256 value)\n        public\n        isActive\n        isVerifiedAddress(to)\n        isHoldingPeriodOver(to)\n        returns (bool)\n    {\n        updateShareholders(to);\n        pruneShareholders(msg.sender, value);\n        Transaction memory trans = Transaction(to, value, block.timestamp);\n        transactions[to].push(trans);\n        trans = Transaction(msg.sender, negative * value, block.timestamp);\n        transactions[msg.sender].push(trans);\n\n        return _transfer(to, value);\n    }\n\n    /**\n     *  The `transferFrom` function MUST NOT allow transfers to addresses that\n     *  have not been verified and added to the contract.\n     *  If the `to` address is not currently a shareholder then it MUST become one.\n     *  If the transfer will reduce `from`'s balance to 0 then that address\n     *  MUST be removed from the list of shareholders.\n     */\n    function transferFrom(address from, address to, uint256 value)\n        public\n        isActive\n        isVerifiedAddress(to)\n        isHoldingPeriodOver(from)\n        returns (bool)\n    {\n        updateShareholders(to);\n        pruneShareholders(from, value);\n        Transaction memory trans = Transaction(to, value, block.timestamp);\n        transactions[to].push(trans);\n        trans = Transaction(from, negative * value, block.timestamp);\n        transactions[from].push(trans);\n\n        return _transferFrom(from, to, value);\n    }\n\n    /**\n     *  Tests that the supplied address is known to the contract.\n     *  @param addr The address to test.\n     *  @return true if the address is known to the contract.\n     */\n    function isVerified(address addr)\n        public\n        view\n        returns (bool)\n    {\n        return verified[addr] != ZERO_BYTES;\n    }\n\n    /**\n     *  Checks to see if the supplied address is a share holder.\n     *  @param addr The address to check.\n     *  @return true if the supplied address owns a token.\n     */\n    function isHolder(address addr)\n        public\n        view\n        returns (bool)\n    {\n        return holderIndices[addr] != 0;\n    }\n\n    /**\n     *  Checks that the supplied hash is associated with the given address.\n     *  @param addr The address to test.\n     *  @param hash The hash to test.\n     *  @return true if the hash matches the one supplied with the address in `addVerified`, or `updateVerified`.\n     */\n    function hasHash(address addr, bytes32 hash)\n        public\n        view\n        returns (bool)\n    {\n        if (addr == ZERO_ADDRESS) {\n            return false;\n        }\n        return verified[addr] == hash;\n    }\n\n    /**\n     *  Checks to see if the supplied address was superseded.\n     *  @param addr The address to check.\n     *  @return true if the supplied address was superseded by another address.\n     */\n    function isSuperseded(address addr)\n        public\n        view\n        onlyOwner\n        returns (bool)\n    {\n        return cancellations[addr] != ZERO_ADDRESS;\n    }\n\n    /**\n     *  Gets the most recent address, given a superseded one.\n     *  Addresses may be superseded multiple times, so this function needs to\n     *  follow the chain of addresses until it reaches the final, verified address.\n     *  @param addr The superseded address.\n     *  @return the verified address that ultimately holds the share.\n     */\n    function getCurrentFor(address addr)\n        public\n        view\n        onlyOwner\n        returns (address)\n    {\n        return findCurrentFor(addr);\n    }\n\n    /**\n     *  Recursively find the most recent address given a superseded one.\n     *  @param addr The superseded address.\n     *  @return the verified address that ultimately holds the share.\n     */\n    function findCurrentFor(address addr)\n        internal\n        view\n        returns (address)\n    {\n        address candidate = cancellations[addr];\n        if (candidate == ZERO_ADDRESS) {\n            return addr;\n        }\n        return findCurrentFor(candidate);\n    }\n\n    /**\n     *  If the address is not in the `shareholders` array then push it\n     *  and update the `holderIndices` mapping.\n     *  @param addr The address to add as a shareholder if it's not already.\n     */\n    function updateShareholders(address addr)\n        internal\n    {\n        if (holderIndices[addr] == 0) {\n          shareholders.push(addr);\n          holderIndices[addr] = 1;\n        }\n    }\n\n    /**\n     *  If the address is in the `shareholders` array and the forthcoming\n     *  transfer or transferFrom will reduce their balance to 0, then\n     *  we need to remove them from the shareholders array.\n     *  @param addr The address to prune if their balance will be reduced to 0.\n     @  @dev see https://ethereum.stackexchange.com/a/39311\n     */\n    function pruneShareholders(address addr, uint256 value)\n        internal\n    {\n        uint256 balance = addr.balance - value;\n        if (balance > 0) {\n            return;\n        }\n        uint256 holderIndex = holderIndices[addr] - 1;\n        uint256 lastIndex = shareholders.length - 1;\n        address lastHolder = shareholders[lastIndex];\n        // overwrite the addr's slot with the last shareholder\n        shareholders[holderIndex] = lastHolder;\n        // also copy over the index (thanks @mohoff for spotting this)\n        // ref https://github.com/davesag/ERC884-reference-implementation/issues/20\n        holderIndices[lastHolder] = holderIndices[addr];\n        // trim the shareholders array (which drops the last entry)\n        delete shareholders[shareholders.length - 1];\n        // and zero out the index for addr\n        holderIndices[addr] = 0;\n    }\n\n    function buy()\n        public\n        payable\n        isActive\n        isVerifiedAddress(msg.sender)\n    {\n        uint256 amountTobuy = msg.value;\n        uint256 dexBalance = balanceOf(address(this));\n        require(amountTobuy > 0, \"You need to send some ether\");\n        require(amountTobuy <= dexBalance, \"Not enough tokens in the reserve\");\n        Transaction memory trans = Transaction(msg.sender, amountTobuy, block.timestamp);\n        transactions[msg.sender].push(trans);\n        transfer(msg.sender, amountTobuy);\n        emit Bought(amountTobuy);\n    }\n\n    function sell(address payable sender,uint256 amount)\n        public\n        payable\n        isActive\n        isVerifiedAddress(sender)\n        isHoldingPeriodOver(sender)\n    {\n        require(amount > 0, \"You need to sell at least some tokens\");\n        uint256 _allowance = allowance(sender, address(this));\n        require(_allowance >= amount, \"Check the token allowance\");\n        transferFrom(sender, address(this), amount);\n        Transaction memory trans = Transaction(sender, amount, block.timestamp);\n        transactions[sender].push(trans);\n        sender.transfer(amount);\n        emit Sold(amount);\n    }\n\n    // Internal\n    function _mint(address addr, uint256 amount)\n      internal\n      returns (bool)\n    {\n      require(amount <= totalSupply, \"exceeds total supply\");\n      balances[addr] += amount;\n      emit Minted(addr, amount);\n      return true;\n    }\n\n    function _transfer(address addr, uint256 amount)\n      internal\n      returns (bool)\n    {\n      balances[addr] = amount;\n      emit Transfer(addr, amount);\n      return true;\n    }\n\n    function _transferFrom(address from,address to,uint256 value)\n      internal\n      returns (bool)\n    {\n      require(balances[from] > value, \"insufficient balance\");\n      balances[to] += value;\n      balances[from] -= value;\n      emit TransferFrom(from, to, value);\n      return true;\n    }\n}\n",
  "sourcePath": "G:\\projects\\pingleware-contracts\\contracts\\equity\\ExemptEquityOffering147.sol",
  "compiler": {
    "name": "solc",
    "version": "0.8.10+commit.fc410830.Emscripten.clang"
  },
  "schemaVersion": "3.4.3",
  "updatedAt": "2021-12-24T16:15:20.056Z",
  "devdoc": {
    "kind": "dev",
    "methods": {
      "addVerified(address,bytes32)": {
        "params": {
          "addr": "The address of the person represented by the supplied hash.",
          "hash": "A cryptographic hash of the address holder's verified information."
        }
      },
      "cancelAndReissue(address,address)": {
        "params": {
          "original": "The address to be superseded. This address MUST NOT be reused.",
          "replacement": "The address  that supersedes the original. This address MUST be verified."
        }
      },
      "getCurrentFor(address)": {
        "params": {
          "addr": "The superseded address."
        },
        "returns": {
          "_0": "the verified address that ultimately holds the share."
        }
      },
      "hasHash(address,bytes32)": {
        "params": {
          "addr": "The address to test.",
          "hash": "The hash to test."
        },
        "returns": {
          "_0": "true if the hash matches the one supplied with the address in `addVerified`, or `updateVerified`."
        }
      },
      "holderAt(uint256)": {
        "params": {
          "index": "The zero-based index of the holder."
        },
        "returns": {
          "_0": "the address of the token holder with the given index."
        }
      },
      "holderCount()": {
        "returns": {
          "_0": "the number of unique addresses that own tokens."
        }
      },
      "isHolder(address)": {
        "params": {
          "addr": "The address to check."
        },
        "returns": {
          "_0": "true if the supplied address owns a token."
        }
      },
      "isSuperseded(address)": {
        "params": {
          "addr": "The address to check."
        },
        "returns": {
          "_0": "true if the supplied address was superseded by another address."
        }
      },
      "isVerified(address)": {
        "params": {
          "addr": "The address to test."
        },
        "returns": {
          "_0": "true if the address is known to the contract."
        }
      },
      "mint(address,uint256)": {
        "params": {
          "_amount": "The amount of tokens to mint.",
          "_to": "The address that will receive the minted tokens."
        },
        "returns": {
          "_0": "A boolean that indicates if the operation was successful."
        }
      },
      "removeVerified(address)": {
        "params": {
          "addr": "The verified address to be removed."
        }
      },
      "updateVerified(address,bytes32)": {
        "params": {
          "addr": "The verified address of the person represented by the supplied hash.",
          "hash": "A new cryptographic hash of the address holder's updated verified information."
        }
      }
    },
    "version": 1
  },
  "userdoc": {
    "kind": "user",
    "methods": {
      "addVerified(address,bytes32)": {
        "notice": "Add a verified address, along with an associated verification hash to the contract.  Upon successful addition of a verified address, the contract must emit  `VerifiedAddressAdded(addr, hash, msg.sender)`.  It MUST throw if the supplied address or hash are zero, or if the address has already been supplied."
      },
      "cancelAndReissue(address,address)": {
        "notice": "Cancel the original address and reissue the Tokens to the replacement address.  Access to this function MUST be strictly controlled.  The `original` address MUST be removed from the set of verified addresses.  Throw if the `original` address supplied is not a shareholder.  Throw if the replacement address is not a verified address.  This function MUST emit the `VerifiedAddressSuperseded` event."
      },
      "getCurrentFor(address)": {
        "notice": "Gets the most recent address, given a superseded one.  Addresses may be superseded multiple times, so this function needs to  follow the chain of addresses until it reaches the final, verified address."
      },
      "hasHash(address,bytes32)": {
        "notice": "Checks that the supplied hash is associated with the given address."
      },
      "holderAt(uint256)": {
        "notice": "By counting the number of token holders using `holderCount`  you can retrieve the complete list of token holders, one at a time.  It MUST throw if `index >= holderCount()`."
      },
      "holderCount()": {
        "notice": "The number of addresses that own tokens."
      },
      "isHolder(address)": {
        "notice": "Checks to see if the supplied address is a share holder."
      },
      "isSuperseded(address)": {
        "notice": "Checks to see if the supplied address was superseded."
      },
      "isVerified(address)": {
        "notice": "Tests that the supplied address is known to the contract."
      },
      "mint(address,uint256)": {
        "notice": "As each token is minted it is added to the shareholders array."
      },
      "removeVerified(address)": {
        "notice": "Remove a verified address, and the associated verification hash. If the address is  unknown to the contract then this does nothing. If the address is successfully removed, this  function must emit `VerifiedAddressRemoved(addr, msg.sender)`.  It MUST throw if an attempt is made to remove a verifiedAddress that owns Tokens."
      },
      "transfer(address,uint256)": {
        "notice": "The `transfer` function MUST NOT allow transfers to addresses that  have not been verified and added to the contract.  If the `to` address is not currently a shareholder then it MUST become one.  If the transfer will reduce `msg.sender`'s balance to 0 then that address  MUST be removed from the list of shareholders."
      },
      "transferFrom(address,address,uint256)": {
        "notice": "The `transferFrom` function MUST NOT allow transfers to addresses that  have not been verified and added to the contract.  If the `to` address is not currently a shareholder then it MUST become one.  If the transfer will reduce `from`'s balance to 0 then that address  MUST be removed from the list of shareholders."
      },
      "updateVerified(address,bytes32)": {
        "notice": "Update the hash for a verified address known to the contract.  Upon successful update of a verified address the contract must emit  `VerifiedAddressUpdated(addr, oldHash, hash, msg.sender)`.  If the hash is the same as the value already stored then  no `VerifiedAddressUpdated` event is to be emitted.  It MUST throw if the hash is zero, or if the address is unverified."
      }
    },
    "version": 1
  }
}