{
  "contractName": "ExemptEquityOfferingRegC",
  "abi": [
    {
      "inputs": [],
      "stateMutability": "nonpayable",
      "type": "constructor"
    },
    {
      "anonymous": false,
      "inputs": [
        {
          "indexed": false,
          "internalType": "uint256",
          "name": "value",
          "type": "uint256"
        }
      ],
      "name": "Bought",
      "type": "event"
    },
    {
      "anonymous": false,
      "inputs": [
        {
          "indexed": true,
          "internalType": "address",
          "name": "from",
          "type": "address"
        },
        {
          "indexed": false,
          "internalType": "string",
          "name": "status",
          "type": "string"
        },
        {
          "indexed": false,
          "internalType": "uint256",
          "name": "value",
          "type": "uint256"
        }
      ],
      "name": "ExemptOffering",
      "type": "event"
    },
    {
      "anonymous": false,
      "inputs": [
        {
          "indexed": false,
          "internalType": "address",
          "name": "addr",
          "type": "address"
        },
        {
          "indexed": false,
          "internalType": "uint256",
          "name": "amount",
          "type": "uint256"
        }
      ],
      "name": "Minted",
      "type": "event"
    },
    {
      "anonymous": false,
      "inputs": [
        {
          "indexed": false,
          "internalType": "address",
          "name": "addr",
          "type": "address"
        }
      ],
      "name": "MinterAdded",
      "type": "event"
    },
    {
      "anonymous": false,
      "inputs": [
        {
          "indexed": false,
          "internalType": "uint256",
          "name": "value",
          "type": "uint256"
        }
      ],
      "name": "Sold",
      "type": "event"
    },
    {
      "anonymous": false,
      "inputs": [
        {
          "indexed": false,
          "internalType": "address",
          "name": "addr",
          "type": "address"
        },
        {
          "indexed": false,
          "internalType": "uint256",
          "name": "amount",
          "type": "uint256"
        }
      ],
      "name": "Transfer",
      "type": "event"
    },
    {
      "anonymous": false,
      "inputs": [
        {
          "indexed": false,
          "internalType": "address",
          "name": "addr",
          "type": "address"
        }
      ],
      "name": "TransferAgentAdded",
      "type": "event"
    },
    {
      "anonymous": false,
      "inputs": [
        {
          "indexed": false,
          "internalType": "address",
          "name": "addr",
          "type": "address"
        }
      ],
      "name": "TransferAgentRemoved",
      "type": "event"
    },
    {
      "anonymous": false,
      "inputs": [
        {
          "indexed": false,
          "internalType": "address",
          "name": "from",
          "type": "address"
        },
        {
          "indexed": false,
          "internalType": "address",
          "name": "to",
          "type": "address"
        },
        {
          "indexed": false,
          "internalType": "uint256",
          "name": "value",
          "type": "uint256"
        }
      ],
      "name": "TransferFrom",
      "type": "event"
    },
    {
      "anonymous": false,
      "inputs": [
        {
          "indexed": false,
          "internalType": "address",
          "name": "addr",
          "type": "address"
        },
        {
          "indexed": false,
          "internalType": "bytes32",
          "name": "hash",
          "type": "bytes32"
        },
        {
          "indexed": false,
          "internalType": "address",
          "name": "sender",
          "type": "address"
        }
      ],
      "name": "VerifiedAddressAdded",
      "type": "event"
    },
    {
      "anonymous": false,
      "inputs": [
        {
          "indexed": false,
          "internalType": "address",
          "name": "addr",
          "type": "address"
        },
        {
          "indexed": false,
          "internalType": "address",
          "name": "sender",
          "type": "address"
        }
      ],
      "name": "VerifiedAddressRemoved",
      "type": "event"
    },
    {
      "anonymous": false,
      "inputs": [
        {
          "indexed": false,
          "internalType": "address",
          "name": "addr1",
          "type": "address"
        },
        {
          "indexed": false,
          "internalType": "address",
          "name": "addr2",
          "type": "address"
        },
        {
          "indexed": false,
          "internalType": "address",
          "name": "addr3",
          "type": "address"
        }
      ],
      "name": "VerifiedAddressSuperseded",
      "type": "event"
    },
    {
      "anonymous": false,
      "inputs": [
        {
          "indexed": false,
          "internalType": "address",
          "name": "addr",
          "type": "address"
        },
        {
          "indexed": false,
          "internalType": "bytes32",
          "name": "oldhash",
          "type": "bytes32"
        },
        {
          "indexed": false,
          "internalType": "bytes32",
          "name": "hash",
          "type": "bytes32"
        },
        {
          "indexed": false,
          "internalType": "address",
          "name": "sender",
          "type": "address"
        }
      ],
      "name": "VerifiedAddressUpdated",
      "type": "event"
    },
    {
      "inputs": [],
      "name": "INITIAL_SUPPLY",
      "outputs": [
        {
          "internalType": "uint256",
          "name": "",
          "type": "uint256"
        }
      ],
      "stateMutability": "view",
      "type": "function"
    },
    {
      "inputs": [],
      "name": "VERSION",
      "outputs": [
        {
          "internalType": "string",
          "name": "",
          "type": "string"
        }
      ],
      "stateMutability": "view",
      "type": "function"
    },
    {
      "inputs": [
        {
          "internalType": "address",
          "name": "",
          "type": "address"
        }
      ],
      "name": "balances",
      "outputs": [
        {
          "internalType": "uint256",
          "name": "",
          "type": "uint256"
        }
      ],
      "stateMutability": "view",
      "type": "function"
    },
    {
      "inputs": [],
      "name": "decimals",
      "outputs": [
        {
          "internalType": "uint8",
          "name": "",
          "type": "uint8"
        }
      ],
      "stateMutability": "view",
      "type": "function"
    },
    {
      "inputs": [],
      "name": "name",
      "outputs": [
        {
          "internalType": "string",
          "name": "",
          "type": "string"
        }
      ],
      "stateMutability": "view",
      "type": "function"
    },
    {
      "inputs": [],
      "name": "negative",
      "outputs": [
        {
          "internalType": "uint256",
          "name": "",
          "type": "uint256"
        }
      ],
      "stateMutability": "view",
      "type": "function"
    },
    {
      "inputs": [],
      "name": "parValue",
      "outputs": [
        {
          "internalType": "uint256",
          "name": "",
          "type": "uint256"
        }
      ],
      "stateMutability": "view",
      "type": "function"
    },
    {
      "inputs": [],
      "name": "releaseAgent",
      "outputs": [
        {
          "internalType": "address",
          "name": "",
          "type": "address"
        }
      ],
      "stateMutability": "view",
      "type": "function"
    },
    {
      "inputs": [],
      "name": "released",
      "outputs": [
        {
          "internalType": "bool",
          "name": "",
          "type": "bool"
        }
      ],
      "stateMutability": "view",
      "type": "function"
    },
    {
      "inputs": [],
      "name": "symbol",
      "outputs": [
        {
          "internalType": "string",
          "name": "",
          "type": "string"
        }
      ],
      "stateMutability": "view",
      "type": "function"
    },
    {
      "inputs": [],
      "name": "totalSupply",
      "outputs": [
        {
          "internalType": "uint256",
          "name": "",
          "type": "uint256"
        }
      ],
      "stateMutability": "view",
      "type": "function"
    },
    {
      "inputs": [],
      "name": "totalValueMax",
      "outputs": [
        {
          "internalType": "uint256",
          "name": "",
          "type": "uint256"
        }
      ],
      "stateMutability": "view",
      "type": "function"
    },
    {
      "inputs": [
        {
          "internalType": "address",
          "name": "addr",
          "type": "address"
        }
      ],
      "name": "setReleaseAgent",
      "outputs": [],
      "stateMutability": "nonpayable",
      "type": "function"
    },
    {
      "inputs": [],
      "name": "release",
      "outputs": [],
      "stateMutability": "nonpayable",
      "type": "function"
    },
    {
      "inputs": [
        {
          "internalType": "address",
          "name": "addr",
          "type": "address"
        },
        {
          "internalType": "bool",
          "name": "state",
          "type": "bool"
        }
      ],
      "name": "setTransferAgent",
      "outputs": [],
      "stateMutability": "nonpayable",
      "type": "function"
    },
    {
      "inputs": [
        {
          "internalType": "address",
          "name": "_to",
          "type": "address"
        },
        {
          "internalType": "uint256",
          "name": "_value",
          "type": "uint256"
        }
      ],
      "name": "transfer",
      "outputs": [
        {
          "internalType": "bool",
          "name": "success",
          "type": "bool"
        }
      ],
      "stateMutability": "nonpayable",
      "type": "function"
    },
    {
      "inputs": [
        {
          "internalType": "address",
          "name": "_from",
          "type": "address"
        },
        {
          "internalType": "address",
          "name": "_to",
          "type": "address"
        },
        {
          "internalType": "uint256",
          "name": "_value",
          "type": "uint256"
        }
      ],
      "name": "transferFrom",
      "outputs": [
        {
          "internalType": "bool",
          "name": "success",
          "type": "bool"
        }
      ],
      "stateMutability": "nonpayable",
      "type": "function"
    },
    {
      "inputs": [
        {
          "internalType": "uint256",
          "name": "_value",
          "type": "uint256"
        }
      ],
      "name": "burn",
      "outputs": [
        {
          "internalType": "bool",
          "name": "success",
          "type": "bool"
        }
      ],
      "stateMutability": "nonpayable",
      "type": "function"
    },
    {
      "inputs": [
        {
          "internalType": "address",
          "name": "_from",
          "type": "address"
        },
        {
          "internalType": "uint256",
          "name": "_value",
          "type": "uint256"
        }
      ],
      "name": "burnFrom",
      "outputs": [
        {
          "internalType": "bool",
          "name": "success",
          "type": "bool"
        }
      ],
      "stateMutability": "nonpayable",
      "type": "function"
    }
  ],
  "bytecode": "0x608060405260008080556002805460a060020a60ff0219169055600a805460ff19908116909155600d91909155600f805490911690556301dfe20060105562eff10060115534801561005057600080fd5b50336000818152600c6020526040902069152d02c7e14af6800000908190556100829190640100000000610088810204565b506101b0565b600080548211156100f9576040517f08c379a000000000000000000000000000000000000000000000000000000000815260206004820152601460248201527f6578636565647320746f74616c20737570706c79000000000000000000000000604482015260640160405180910390fd5b600160a060020a0383166000908152600c602052604081208054849290610121908490610171565b909155505060408051600160a060020a0385168152602081018490527f30385c845b448a36257a6a1716e6ad2e1bc2cbe333cde1e69fe849ad6511adfe910160405180910390a150600192915050565b600082198211156101ab577f4e487b7100000000000000000000000000000000000000000000000000000000600052601160045260246000fd5b500190565b610b64806101bf6000396000f3fe608060405234801561001057600080fd5b506004361061013e576000357c010000000000000000000000000000000000000000000000000000000090048063313ce567116100ca57806395d89b411161008e57806395d89b411461028f57806396132521146102cb578063a9059cbb146102df578063d1f276d3146102f2578063ffa1ad741461031d57600080fd5b8063313ce5671461023f57806342966c681461025957806379cc67901461026c57806386d1a69f1461027f5780638bf140941461028757600080fd5b806323b872dd1161011157806323b872dd146101ca57806327e235e3146101ed57806329ff4f531461020d5780632cea64bf146102205780632ff2e9dc1461022e57600080fd5b806302f652a31461014357806306fdde031461015857806318160ddd146101aa5780631cb3ef1f146101c1575b600080fd5b610156610151366004610918565b610359565b005b6101946040518060400160405280601281526020017f43726f776466756e64696e6720546f6b656e000000000000000000000000000081525081565b6040516101a19190610954565b60405180910390f35b6101b360005481565b6040519081526020016101a1565b6101b360001981565b6101dd6101d83660046109a9565b610428565b60405190151581526020016101a1565b6101b36101fb3660046109e5565b600c6020526000908152604090205481565b61015661021b3660046109e5565b61049a565b6101b36611c37937e0800081565b6101b369152d02c7e14af680000081565b610247600081565b60405160ff90911681526020016101a1565b6101dd610267366004610a00565b610564565b6101dd61027a366004610a19565b6105a5565b6101566105e6565b6101b361067e565b6101946040518060400160405280600881526020017f544f4b454e2e434600000000000000000000000000000000000000000000000081525081565b6002546101dd9060a060020a900460ff1681565b6101dd6102ed366004610a19565b610695565b60025461030590600160a060020a031681565b604051600160a060020a0390911681526020016101a1565b6101946040518060400160405280600581526020017f312e302e3500000000000000000000000000000000000000000000000000000081525081565b600154600160a060020a0316331461038f5760405160e560020a62461bcd02815260040161038690610a43565b60405180910390fd5b60025460009060a060020a900460ff16156103c95760405160e560020a62461bcd0281526020600482015260006024820152604401610386565b600160a060020a0383166103fc5760405160e560020a62461bcd0281526020600482015260006024820152604401610386565b50600160a060020a03919091166000908152600660205260409020805460ff1916911515919091179055565b600254600090849060a060020a900460ff168061045d5750600160a060020a03811660009081526006602052604090205460ff165b6104865760405160e560020a62461bcd0281526020600482015260006024820152604401610386565b610491858585610705565b95945050505050565b600154600160a060020a031633146104c75760405160e560020a62461bcd02815260040161038690610a43565b60025460009060a060020a900460ff16156105015760405160e560020a62461bcd0281526020600482015260006024820152604401610386565b600160a060020a0382166105345760405160e560020a62461bcd0281526020600482015260006024820152604401610386565b506002805473ffffffffffffffffffffffffffffffffffffffff1916600160a060020a0392909216919091179055565b600154600090600160a060020a031633146105945760405160e560020a62461bcd02815260040161038690610a43565b61059d826107ee565b90505b919050565b600154600090600160a060020a031633146105d55760405160e560020a62461bcd02815260040161038690610a43565b6105df8383610832565b9392505050565b600254600160a060020a0316331461061d5760405160e560020a62461bcd0281526020600482015260006024820152604401610386565b60025460009060a060020a900460ff16156106575760405160e560020a62461bcd0281526020600482015260006024820152604401610386565b506002805474ff0000000000000000000000000000000000000000191660a060020a179055565b6106926611c37937e08000620186a0610aa9565b81565b600254600090339060a060020a900460ff16806106ca5750600160a060020a03811660009081526006602052604090205460ff165b6106f35760405160e560020a62461bcd0281526020600482015260006024820152604401610386565b6106fd84846108a2565b949350505050565b600160a060020a0383166000908152600c6020526040812054821061073f5760405160e560020a62461bcd02815260040161038690610ac8565b600160a060020a0383166000908152600c602052604081208054849290610767908490610aff565b9091555050600160a060020a0384166000908152600c602052604081208054849290610794908490610b17565b909155505060408051600160a060020a038087168252851660208201529081018390527fc0d84ce5c7ff9ca21adb0f8436ff3f4951b4bb78c4e2fae2b6837958b3946ffd9060600160405180910390a15060019392505050565b600081600054116108145760405160e560020a62461bcd02815260040161038690610ac8565b816000808282546108259190610b17565b9091555060019392505050565b600160a060020a0382166000908152600c6020526040812054821061086c5760405160e560020a62461bcd02815260040161038690610ac8565b600160a060020a0383166000908152600c602052604081208054849290610894908490610b17565b909155506001949350505050565b600160a060020a0382166000818152600c60209081526040808320859055805193845290830184905290917f69ca02dd4edd7bf0a4abb9ed3b7af3f14778db5d61921c7dc7cd545266326de2910160405180910390a150600192915050565b8035600160a060020a03811681146105a057600080fd5b6000806040838503121561092b57600080fd5b61093483610901565b91506020830135801515811461094957600080fd5b809150509250929050565b600060208083528351808285015260005b8181101561098157858101830151858201604001528201610965565b81811115610993576000604083870101525b50601f01601f1916929092016040019392505050565b6000806000606084860312156109be57600080fd5b6109c784610901565b92506109d560208501610901565b9150604084013590509250925092565b6000602082840312156109f757600080fd5b6105df82610901565b600060208284031215610a1257600080fd5b5035919050565b60008060408385031215610a2c57600080fd5b610a3583610901565b946020939093013593505050565b6020808252600d908201527f6163636573732064656e69656400000000000000000000000000000000000000604082015260600190565b7f4e487b7100000000000000000000000000000000000000000000000000000000600052601160045260246000fd5b6000816000190483118215151615610ac357610ac3610a7a565b500290565b60208082526014908201527f696e73756666696369656e742062616c616e6365000000000000000000000000604082015260600190565b60008219821115610b1257610b12610a7a565b500190565b600082821015610b2957610b29610a7a565b50039056fea264697066735822122002a8082dbdbd84e487fe5fa476c791a2c40038c44f8084b0811c9a70f637b12564736f6c634300080a0033",
  "immutableReferences": {},
  "source": "// SPDX-License-Identifier: CC-BY-4.0\npragma solidity >=0.4.22 <0.9.0;\n\n/**\n * Regulation Crowdfunding; Section 4(a)(6)\n * ----------------------------------------\n * See https://www.sec.gov/info/smallbus/secg/rccomplianceguide-051316.htm\n *\n * c. Transactions Conducted Through an Intermediary\n *\n * Each Regulation Crowdfunding offering must be exclusively conducted through one online platform. The intermediary operating the platform must be a broker-dealer\n * or a funding portal that is registered with the SEC and FINRA.\n *\n * Issuers may rely on the efforts of the intermediary to determine that the aggregate amount of securities purchased by an investor does not cause the investor\n * to exceed the investment limits, so long as the issuer does not have knowledge that the investor would exceed the investment limits as a result of purchasing\n * securities in the issuers offering.\n */\n\n// IMPORTANT NOTE: BECUASE OF THE REGULATIONS FOR CROWD FUNDING MUST BE CONDUCTED THROUGH AN INTERMEDIATARY THAT IS REGISTERED AS A BROKER-DEAKER OR FUNDING PORTAL WITH\n// THE SEC AND FINRA, THIS CROWDFUNDING TOKEN IS USEFUL FOR ONLY A REGISTERED BROKER-DEALER OR FUNDING PORTAL THAT DESIRES TO OFFER A CRYPTOCURRENCY.\n\n// An example of a crowdfunding token at https://github.com/JincorTech/ico/blob/master/contracts/JincorToken.sol\n\nimport \"../Version.sol\";\n\ncontract ExemptEquityOfferingRegC is Version {\n    string public constant name = \"Crowdfunding Token\";\n    string public constant symbol = \"TOKEN.CF\";\n    uint8 public constant decimals = 0;\n    uint256 public totalSupply = 0;\n\n    uint256 public constant negative = type(uint256).max;\n\n    uint256 public constant INITIAL_SUPPLY = 100000 * 1 ether;\n\n    bytes32 constant private ZERO_BYTES = bytes32(0);\n    address constant private ZERO_ADDRESS = address(0);\n\n    address private owner;\n\n    /* The finalizer contract that allows unlift the transfer limits on this token */\n    address public releaseAgent;\n\n    /** A crowdsale contract can release us to the wild if ICO success. If false we are are in transfer lock up period.*/\n    bool public released = false;\n\n    /** Map of agents that are allowed to transfer tokens regardless of the lock down period. These are crowdsale contracts and possible the team multisig itself. */\n    mapping(address => bytes32) private verified;\n    mapping(address => address) private cancellations;\n    mapping(address => uint256) private holderIndices;\n    mapping(address => bool) private transferAgents;\n    mapping(address => uint256) private minters;\n    mapping(address => mapping(address => uint256)) private _allowances;\n\n    address[] private shareholders;\n\n    bool internal active = false;\n    uint256 private start_timestamp;\n\n    mapping (address => uint256) public balances;\n\n    event ExemptOffering(address indexed from,string status, uint256 value);\n    event Transfer(address addr, uint256 amount);\n    event TransferFrom(address from,address to,uint256 value);\n    event TransferAgentAdded(address addr);\n    event TransferAgentRemoved(address addr);\n    event MinterAdded(address addr);\n    event Minted(address addr, uint256 amount);\n    event VerifiedAddressSuperseded(address addr1,address addr2,address addr3);\n    event VerifiedAddressUpdated(address addr, bytes32 oldhash, bytes32 hash, address sender);\n    event VerifiedAddressRemoved(address addr, address sender);\n    event VerifiedAddressAdded(address addr, bytes32 hash, address sender);\n    event Bought(uint value);\n    event Sold(uint value);\n\n    uint constant public parValue = 5 * 0.001 ether;\n    uint constant public totalValueMax = 100000 * parValue;\n    uint private totalValue = 0;\n\n    uint256 private contract_creation; // The contract creation time\n\n    bool private restricted = false;\n\n    uint private year = 52 weeks;\n    uint private sixmonths = 26 weeks;\n\n      /**\n       * @dev Constructor that gives msg.sender all of existing tokens.\n       */\n    constructor()\n    {\n        balances[msg.sender] = INITIAL_SUPPLY;\n        _mint(msg.sender, INITIAL_SUPPLY);\n    }\n\n    modifier onlyOwner() {\n        require(msg.sender == owner, \"access denied\");\n        _;\n    }\n\n    modifier isMinter() {\n      require(minters[msg.sender] == 1,\"not a minter\");\n      _;\n    }\n\n\n    modifier isActive() {\n        require(active, \"exempt offering is not active\");\n        _;\n    }\n\n    modifier isVerifiedAddress(address addr) {\n        require(verified[addr] != ZERO_BYTES, \"\");\n        _;\n    }\n\n    /**\n    * Limit token transfer until the crowdsale is over.\n    *\n    */\n    modifier canTransfer(address _sender) {\n        require(released || transferAgents[_sender], \"\");\n        _;\n    }\n\n    /** The function can be called only before or after the tokens have been released */\n    modifier inReleaseState(bool releaseState) {\n        require(releaseState == released, \"\");\n        _;\n    }\n\n    /** The function can be called only by a whitelisted release agent. */\n    modifier onlyReleaseAgent() {\n        require(msg.sender == releaseAgent, \"\");\n        _;\n    }\n\n\n\n\n    /**\n    * Set the contract that can call release and make the token transferable.\n    *\n    * Design choice. Allow reset the release agent to fix fat finger mistakes.\n    */\n    function setReleaseAgent(address addr) public onlyOwner inReleaseState(false) {\n        require(addr != ZERO_ADDRESS, \"\");\n\n        // We don't do interface check here as we might want to a normal wallet address to act as a release agent\n        releaseAgent = addr;\n    }\n\n    function release() public onlyReleaseAgent inReleaseState(false) {\n        released = true;\n    }\n\n    /**\n    * Owner can allow a particular address (a crowdsale contract) to transfer tokens despite the lock up period.\n    */\n    function setTransferAgent(address addr, bool state) public onlyOwner inReleaseState(false) {\n        require(addr != ZERO_ADDRESS, \"\");\n        transferAgents[addr] = state;\n    }\n\n    function transfer(address _to, uint _value) public canTransfer(msg.sender) returns (bool success) {\n        // Call Burnable.transfer()\n        return _transfer(_to, _value);\n    }\n\n    function transferFrom(address _from, address _to, uint _value) public canTransfer(_from) returns (bool success) {\n        // Call Burnable.transferForm()\n        return _transferFrom(_from, _to, _value);\n    }\n\n    function burn(uint _value) public onlyOwner returns (bool success) {\n        return _burn(_value);\n    }\n\n    function burnFrom(address _from, uint _value) public onlyOwner returns (bool success) {\n        return _burnFrom(_from, _value);\n    }\n\n    // Internal\n    function _mint(address addr, uint256 amount)\n      internal\n      returns (bool)\n    {\n      require(amount <= totalSupply, \"exceeds total supply\");\n      balances[addr] += amount;\n      emit Minted(addr, amount);\n      return true;\n    }\n\n    function _transfer(address addr, uint256 amount)\n      internal\n      returns (bool)\n    {\n      balances[addr] = amount;\n      emit Transfer(addr, amount);\n      return true;\n    }\n\n    function _transferFrom(address from,address to,uint256 value)\n      internal\n      returns (bool)\n    {\n      require(balances[from] > value, \"insufficient balance\");\n      balances[to] += value;\n      balances[from] -= value;\n      emit TransferFrom(from, to, value);\n      return true;\n    }\n\n    function _burn(uint256 value)\n      internal\n      returns (bool)\n    {\n      require(totalSupply > value, \"insufficient balance\");\n      totalSupply -= value;\n      return true;\n    }\n\n    function _burnFrom(address _from,uint256 _value)\n      internal\n      returns (bool)\n    {\n      require(balances[_from] > _value, \"insufficient balance\");\n      balances[_from] -= _value;\n      return true;\n    }\n}\n",
  "sourcePath": "G:\\projects\\pingleware-contracts\\contracts\\equity\\ExemptEquityOfferingRegC.sol",
  "compiler": {
    "name": "solc",
    "version": "0.8.10+commit.fc410830.Emscripten.clang"
  },
  "schemaVersion": "3.4.3",
  "updatedAt": "2021-12-24T21:06:04.131Z",
  "devdoc": {
    "kind": "dev",
    "methods": {
      "constructor": {
        "details": "Constructor that gives msg.sender all of existing tokens."
      }
    },
    "version": 1
  },
  "userdoc": {
    "kind": "user",
    "methods": {
      "released()": {
        "notice": "A crowdsale contract can release us to the wild if ICO success. If false we are are in transfer lock up period."
      },
      "setReleaseAgent(address)": {
        "notice": "Set the contract that can call release and make the token transferable. Design choice. Allow reset the release agent to fix fat finger mistakes."
      },
      "setTransferAgent(address,bool)": {
        "notice": "Owner can allow a particular address (a crowdsale contract) to transfer tokens despite the lock up period."
      }
    },
    "version": 1
  }
}