{
  "contractName": "ExemptEquityOfferingAT2",
  "abi": [
    {
      "inputs": [],
      "stateMutability": "nonpayable",
      "type": "constructor"
    },
    {
      "anonymous": false,
      "inputs": [
        {
          "indexed": false,
          "internalType": "uint256",
          "name": "value",
          "type": "uint256"
        }
      ],
      "name": "Bought",
      "type": "event"
    },
    {
      "anonymous": false,
      "inputs": [
        {
          "indexed": true,
          "internalType": "address",
          "name": "from",
          "type": "address"
        },
        {
          "indexed": false,
          "internalType": "string",
          "name": "status",
          "type": "string"
        },
        {
          "indexed": false,
          "internalType": "uint256",
          "name": "value",
          "type": "uint256"
        }
      ],
      "name": "ExemptOffering",
      "type": "event"
    },
    {
      "anonymous": false,
      "inputs": [
        {
          "indexed": false,
          "internalType": "address",
          "name": "addr",
          "type": "address"
        },
        {
          "indexed": false,
          "internalType": "uint256",
          "name": "amount",
          "type": "uint256"
        }
      ],
      "name": "Minted",
      "type": "event"
    },
    {
      "anonymous": false,
      "inputs": [
        {
          "indexed": false,
          "internalType": "address",
          "name": "addr",
          "type": "address"
        }
      ],
      "name": "MinterAdded",
      "type": "event"
    },
    {
      "anonymous": false,
      "inputs": [
        {
          "indexed": false,
          "internalType": "uint256",
          "name": "value",
          "type": "uint256"
        }
      ],
      "name": "Sold",
      "type": "event"
    },
    {
      "anonymous": false,
      "inputs": [
        {
          "indexed": false,
          "internalType": "address",
          "name": "addr",
          "type": "address"
        },
        {
          "indexed": false,
          "internalType": "uint256",
          "name": "amount",
          "type": "uint256"
        }
      ],
      "name": "Transfer",
      "type": "event"
    },
    {
      "anonymous": false,
      "inputs": [
        {
          "indexed": false,
          "internalType": "address",
          "name": "addr",
          "type": "address"
        }
      ],
      "name": "TransferAgentAdded",
      "type": "event"
    },
    {
      "anonymous": false,
      "inputs": [
        {
          "indexed": false,
          "internalType": "address",
          "name": "addr",
          "type": "address"
        }
      ],
      "name": "TransferAgentRemoved",
      "type": "event"
    },
    {
      "anonymous": false,
      "inputs": [
        {
          "indexed": false,
          "internalType": "address",
          "name": "from",
          "type": "address"
        },
        {
          "indexed": false,
          "internalType": "address",
          "name": "to",
          "type": "address"
        },
        {
          "indexed": false,
          "internalType": "uint256",
          "name": "value",
          "type": "uint256"
        }
      ],
      "name": "TransferFrom",
      "type": "event"
    },
    {
      "anonymous": false,
      "inputs": [
        {
          "indexed": false,
          "internalType": "address",
          "name": "addr",
          "type": "address"
        },
        {
          "indexed": false,
          "internalType": "bytes32",
          "name": "hash",
          "type": "bytes32"
        },
        {
          "indexed": false,
          "internalType": "address",
          "name": "sender",
          "type": "address"
        }
      ],
      "name": "VerifiedAddressAdded",
      "type": "event"
    },
    {
      "anonymous": false,
      "inputs": [
        {
          "indexed": false,
          "internalType": "address",
          "name": "addr",
          "type": "address"
        },
        {
          "indexed": false,
          "internalType": "address",
          "name": "sender",
          "type": "address"
        }
      ],
      "name": "VerifiedAddressRemoved",
      "type": "event"
    },
    {
      "anonymous": false,
      "inputs": [
        {
          "indexed": false,
          "internalType": "address",
          "name": "addr1",
          "type": "address"
        },
        {
          "indexed": false,
          "internalType": "address",
          "name": "addr2",
          "type": "address"
        },
        {
          "indexed": false,
          "internalType": "address",
          "name": "addr3",
          "type": "address"
        }
      ],
      "name": "VerifiedAddressSuperseded",
      "type": "event"
    },
    {
      "anonymous": false,
      "inputs": [
        {
          "indexed": false,
          "internalType": "address",
          "name": "addr",
          "type": "address"
        },
        {
          "indexed": false,
          "internalType": "bytes32",
          "name": "oldhash",
          "type": "bytes32"
        },
        {
          "indexed": false,
          "internalType": "bytes32",
          "name": "hash",
          "type": "bytes32"
        },
        {
          "indexed": false,
          "internalType": "address",
          "name": "sender",
          "type": "address"
        }
      ],
      "name": "VerifiedAddressUpdated",
      "type": "event"
    },
    {
      "inputs": [],
      "name": "VERSION",
      "outputs": [
        {
          "internalType": "string",
          "name": "",
          "type": "string"
        }
      ],
      "stateMutability": "view",
      "type": "function"
    },
    {
      "inputs": [
        {
          "internalType": "address",
          "name": "addr",
          "type": "address"
        }
      ],
      "name": "addMinter",
      "outputs": [],
      "stateMutability": "nonpayable",
      "type": "function"
    },
    {
      "inputs": [
        {
          "internalType": "address",
          "name": "addr",
          "type": "address"
        }
      ],
      "name": "addTransferAgent",
      "outputs": [],
      "stateMutability": "nonpayable",
      "type": "function"
    },
    {
      "inputs": [
        {
          "internalType": "address",
          "name": "addr",
          "type": "address"
        },
        {
          "internalType": "bytes32",
          "name": "hash",
          "type": "bytes32"
        }
      ],
      "name": "addVerified",
      "outputs": [],
      "stateMutability": "nonpayable",
      "type": "function"
    },
    {
      "inputs": [
        {
          "internalType": "address",
          "name": "_owner",
          "type": "address"
        },
        {
          "internalType": "address",
          "name": "spender",
          "type": "address"
        }
      ],
      "name": "allowance",
      "outputs": [
        {
          "internalType": "uint256",
          "name": "",
          "type": "uint256"
        }
      ],
      "stateMutability": "view",
      "type": "function"
    },
    {
      "inputs": [
        {
          "internalType": "address",
          "name": "addr",
          "type": "address"
        }
      ],
      "name": "balanceOf",
      "outputs": [
        {
          "internalType": "uint256",
          "name": "",
          "type": "uint256"
        }
      ],
      "stateMutability": "view",
      "type": "function"
    },
    {
      "inputs": [
        {
          "internalType": "address",
          "name": "",
          "type": "address"
        }
      ],
      "name": "balances",
      "outputs": [
        {
          "internalType": "uint256",
          "name": "",
          "type": "uint256"
        }
      ],
      "stateMutability": "view",
      "type": "function"
    },
    {
      "inputs": [],
      "name": "buy",
      "outputs": [],
      "stateMutability": "payable",
      "type": "function"
    },
    {
      "inputs": [
        {
          "internalType": "address",
          "name": "original",
          "type": "address"
        },
        {
          "internalType": "address",
          "name": "replacement",
          "type": "address"
        }
      ],
      "name": "cancelAndReissue",
      "outputs": [],
      "stateMutability": "nonpayable",
      "type": "function"
    },
    {
      "inputs": [],
      "name": "decimals",
      "outputs": [
        {
          "internalType": "uint8",
          "name": "",
          "type": "uint8"
        }
      ],
      "stateMutability": "view",
      "type": "function"
    },
    {
      "inputs": [
        {
          "internalType": "address",
          "name": "addr",
          "type": "address"
        }
      ],
      "name": "getCurrentFor",
      "outputs": [
        {
          "internalType": "address",
          "name": "",
          "type": "address"
        }
      ],
      "stateMutability": "view",
      "type": "function"
    },
    {
      "inputs": [
        {
          "internalType": "address",
          "name": "addr",
          "type": "address"
        },
        {
          "internalType": "uint256",
          "name": "index",
          "type": "uint256"
        }
      ],
      "name": "getTransactionByIndex",
      "outputs": [
        {
          "internalType": "string",
          "name": "",
          "type": "string"
        }
      ],
      "stateMutability": "view",
      "type": "function"
    },
    {
      "inputs": [
        {
          "internalType": "address",
          "name": "addr",
          "type": "address"
        }
      ],
      "name": "getTransactions",
      "outputs": [
        {
          "internalType": "string",
          "name": "",
          "type": "string"
        }
      ],
      "stateMutability": "view",
      "type": "function"
    },
    {
      "inputs": [
        {
          "internalType": "address",
          "name": "addr",
          "type": "address"
        },
        {
          "internalType": "bytes32",
          "name": "hash",
          "type": "bytes32"
        }
      ],
      "name": "hasHash",
      "outputs": [
        {
          "internalType": "bool",
          "name": "",
          "type": "bool"
        }
      ],
      "stateMutability": "view",
      "type": "function"
    },
    {
      "inputs": [
        {
          "internalType": "uint256",
          "name": "index",
          "type": "uint256"
        }
      ],
      "name": "holderAt",
      "outputs": [
        {
          "internalType": "address",
          "name": "",
          "type": "address"
        }
      ],
      "stateMutability": "view",
      "type": "function"
    },
    {
      "inputs": [],
      "name": "holderCount",
      "outputs": [
        {
          "internalType": "uint256",
          "name": "",
          "type": "uint256"
        }
      ],
      "stateMutability": "view",
      "type": "function"
    },
    {
      "inputs": [
        {
          "internalType": "address",
          "name": "addr",
          "type": "address"
        }
      ],
      "name": "isHolder",
      "outputs": [
        {
          "internalType": "bool",
          "name": "",
          "type": "bool"
        }
      ],
      "stateMutability": "view",
      "type": "function"
    },
    {
      "inputs": [
        {
          "internalType": "address",
          "name": "addr",
          "type": "address"
        }
      ],
      "name": "isSuperseded",
      "outputs": [
        {
          "internalType": "bool",
          "name": "",
          "type": "bool"
        }
      ],
      "stateMutability": "view",
      "type": "function"
    },
    {
      "inputs": [
        {
          "internalType": "address",
          "name": "addr",
          "type": "address"
        }
      ],
      "name": "isVerified",
      "outputs": [
        {
          "internalType": "bool",
          "name": "",
          "type": "bool"
        }
      ],
      "stateMutability": "view",
      "type": "function"
    },
    {
      "inputs": [
        {
          "internalType": "address",
          "name": "_to",
          "type": "address"
        },
        {
          "internalType": "uint256",
          "name": "_amount",
          "type": "uint256"
        }
      ],
      "name": "mint",
      "outputs": [
        {
          "internalType": "bool",
          "name": "",
          "type": "bool"
        }
      ],
      "stateMutability": "nonpayable",
      "type": "function"
    },
    {
      "inputs": [],
      "name": "name",
      "outputs": [
        {
          "internalType": "string",
          "name": "",
          "type": "string"
        }
      ],
      "stateMutability": "view",
      "type": "function"
    },
    {
      "inputs": [],
      "name": "negative",
      "outputs": [
        {
          "internalType": "uint256",
          "name": "",
          "type": "uint256"
        }
      ],
      "stateMutability": "view",
      "type": "function"
    },
    {
      "inputs": [],
      "name": "owner",
      "outputs": [
        {
          "internalType": "address",
          "name": "",
          "type": "address"
        }
      ],
      "stateMutability": "view",
      "type": "function"
    },
    {
      "inputs": [],
      "name": "parValue",
      "outputs": [
        {
          "internalType": "uint256",
          "name": "",
          "type": "uint256"
        }
      ],
      "stateMutability": "view",
      "type": "function"
    },
    {
      "inputs": [
        {
          "internalType": "address",
          "name": "addr",
          "type": "address"
        }
      ],
      "name": "removeTransferAgent",
      "outputs": [],
      "stateMutability": "nonpayable",
      "type": "function"
    },
    {
      "inputs": [
        {
          "internalType": "address",
          "name": "addr",
          "type": "address"
        }
      ],
      "name": "removeVerified",
      "outputs": [],
      "stateMutability": "nonpayable",
      "type": "function"
    },
    {
      "inputs": [
        {
          "internalType": "address payable",
          "name": "sender",
          "type": "address"
        },
        {
          "internalType": "uint256",
          "name": "amount",
          "type": "uint256"
        }
      ],
      "name": "sell",
      "outputs": [],
      "stateMutability": "payable",
      "type": "function"
    },
    {
      "inputs": [],
      "name": "symbol",
      "outputs": [
        {
          "internalType": "string",
          "name": "",
          "type": "string"
        }
      ],
      "stateMutability": "view",
      "type": "function"
    },
    {
      "inputs": [
        {
          "internalType": "uint256",
          "name": "timestamp",
          "type": "uint256"
        },
        {
          "internalType": "bool",
          "name": "_active",
          "type": "bool"
        }
      ],
      "name": "toggleExemptOffering",
      "outputs": [],
      "stateMutability": "nonpayable",
      "type": "function"
    },
    {
      "inputs": [],
      "name": "totalSupply",
      "outputs": [
        {
          "internalType": "uint256",
          "name": "",
          "type": "uint256"
        }
      ],
      "stateMutability": "view",
      "type": "function"
    },
    {
      "inputs": [],
      "name": "totalValueMax",
      "outputs": [
        {
          "internalType": "uint256",
          "name": "",
          "type": "uint256"
        }
      ],
      "stateMutability": "view",
      "type": "function"
    },
    {
      "inputs": [
        {
          "internalType": "address",
          "name": "",
          "type": "address"
        },
        {
          "internalType": "uint256",
          "name": "",
          "type": "uint256"
        }
      ],
      "name": "transactions",
      "outputs": [
        {
          "internalType": "address",
          "name": "addr",
          "type": "address"
        },
        {
          "internalType": "uint256",
          "name": "amount",
          "type": "uint256"
        },
        {
          "internalType": "uint256",
          "name": "time",
          "type": "uint256"
        }
      ],
      "stateMutability": "view",
      "type": "function"
    },
    {
      "inputs": [
        {
          "internalType": "address",
          "name": "to",
          "type": "address"
        },
        {
          "internalType": "uint256",
          "name": "value",
          "type": "uint256"
        }
      ],
      "name": "transfer",
      "outputs": [
        {
          "internalType": "bool",
          "name": "",
          "type": "bool"
        }
      ],
      "stateMutability": "nonpayable",
      "type": "function"
    },
    {
      "inputs": [
        {
          "internalType": "address",
          "name": "from",
          "type": "address"
        },
        {
          "internalType": "address",
          "name": "to",
          "type": "address"
        },
        {
          "internalType": "uint256",
          "name": "value",
          "type": "uint256"
        }
      ],
      "name": "transferFrom",
      "outputs": [
        {
          "internalType": "bool",
          "name": "",
          "type": "bool"
        }
      ],
      "stateMutability": "nonpayable",
      "type": "function"
    },
    {
      "inputs": [
        {
          "internalType": "address",
          "name": "addr",
          "type": "address"
        },
        {
          "internalType": "bytes32",
          "name": "hash",
          "type": "bytes32"
        }
      ],
      "name": "updateVerified",
      "outputs": [],
      "stateMutability": "nonpayable",
      "type": "function"
    }
  ],
  "bytecode": "0x608060405260006002819055600d805460ff19908116909155600f919091556301dfe20060115560138054909116905562eff1006014553480156200004357600080fd5b50600b546010546200007c91600160a060020a0316906200006d90670de0b6b3a764000062000440565b64010000000062000142810204565b506040805180820190915260198082527f526567756c6174696f6e20412054696572203220546f6b656e000000000000006020909201918252620000c3916000916200036b565b506040805180820190915260098082527f544f4b454e2e415432000000000000000000000000000000000000000000000060209092019182526200010a916001916200036b565b50600b8054600160a060020a03191633908117909155620001349064010000000062000230810204565b6302faf080601055620004d3565b6000600254821115620001b6576040517f08c379a000000000000000000000000000000000000000000000000000000000815260206004820152601460248201527f6578636565647320746f74616c20737570706c7900000000000000000000000060448201526064015b60405180910390fd5b600160a060020a03831660009081526006602052604081208054849290620001e090849062000462565b909155505060408051600160a060020a0385168152602081018490527f30385c845b448a36257a6a1716e6ad2e1bc2cbe333cde1e69fe849ad6511adfe910160405180910390a150600192915050565b600b54600160a060020a03163314620002a6576040517f08c379a000000000000000000000000000000000000000000000000000000000815260206004820152600d60248201527f6163636573732064656e696564000000000000000000000000000000000000006044820152606401620001ad565b600160a060020a03811662000318576040517f08c379a000000000000000000000000000000000000000000000000000000000815260206004820152601660248201527f6d697373696e67206d696e7465722061646472657373000000000000000000006044820152606401620001ad565b600160a060020a0381166000818152600860209081526040918290206001905590519182527f6ae172837ea30b801fbfcdd4108aa1d5bf8ff775444fd70256b44e6bf3dfc3f6910160405180910390a150565b82805462000379906200047d565b90600052602060002090601f0160209004810192826200039d5760008555620003e8565b82601f10620003b857805160ff1916838001178555620003e8565b82800160010185558215620003e8579182015b82811115620003e8578251825591602001919060010190620003cb565b50620003f6929150620003fa565b5090565b5b80821115620003f65760008155600101620003fb565b7f4e487b7100000000000000000000000000000000000000000000000000000000600052601160045260246000fd5b60008160001904831182151516156200045d576200045d62000411565b500290565b6000821982111562000478576200047862000411565b500190565b6002810460018216806200049257607f821691505b60208210811415620004cd577f4e487b7100000000000000000000000000000000000000000000000000000000600052602260045260246000fd5b50919050565b6129fb80620004e36000396000f3fe608060405260043610610221576000357c01000000000000000000000000000000000000000000000000000000009004806347089f6211610135578063a6f2ae3a116100bd578063cc397ed31161008c578063cc397ed31461062c578063d4d7b19a1461064c578063dd62ed3e14610684578063f3221c7f146106ca578063ffa1ad74146106ea57600080fd5b8063a6f2ae3a146105ac578063a9059cbb146105b4578063b0314599146105d4578063b9209e33146105f457600080fd5b806379f647201161010457806379f64720146105215780638bf14094146105415780638da5cb5b1461055757806395d89b4114610577578063983b2d561461058c57600080fd5b806347089f6214610498578063610db94e146104b85780636c197ff5146104d857806370a08231146104eb57600080fd5b806323b872dd116101b85780632da7293e116101875780632da7293e146103f1578063313ce56714610411578063354b7b1d1461043857806340c10f19146104585780634487b3921461047857600080fd5b806323b872dd1461035f57806327e235e31461038f5780632ab2efc8146103bc5780632cea64bf146103dc57600080fd5b8063197bc336116101f4578063197bc336146102da5780631aab9a9f146103125780631cb3ef1f146103275780631fb716e41461033d57600080fd5b806306fdde03146102265780630f8cda2014610251578063145381281461027157806318160ddd146102b6575b600080fd5b34801561023257600080fd5b5061023b610733565b60405161024891906124c7565b60405180910390f35b34801561025d57600080fd5b5061023b61026c3660046124ef565b6107c1565b34801561027d57600080fd5b5061029161028c36600461250c565b610932565b60408051600160a060020a039094168452602084019290925290820152606001610248565b3480156102c257600080fd5b506102cc60025481565b604051908152602001610248565b3480156102e657600080fd5b506102fa6102f5366004612538565b61097e565b604051600160a060020a039091168152602001610248565b34801561031e57600080fd5b506102cc610a0a565b34801561033357600080fd5b506102cc60001981565b34801561034957600080fd5b5061035d610358366004612551565b610a41565b005b34801561036b57600080fd5b5061037f61037a366004612586565b610b2e565b6040519015158152602001610248565b34801561039b57600080fd5b506102cc6103aa3660046124ef565b60066020526000908152604090205481565b3480156103c857600080fd5b5061023b6103d736600461250c565b610ce8565b3480156103e857600080fd5b506102cc600a81565b3480156103fd57600080fd5b5061037f61040c3660046124ef565b610eaf565b34801561041d57600080fd5b50610426600081565b60405160ff9091168152602001610248565b34801561044457600080fd5b5061035d61045336600461250c565b610f00565b34801561046457600080fd5b5061037f61047336600461250c565b611023565b34801561048457600080fd5b5061035d6104933660046124ef565b6111eb565b3480156104a457600080fd5b5061035d6104b336600461250c565b6112ea565b3480156104c457600080fd5b5061035d6104d33660046124ef565b61145c565b61035d6104e636600461250c565b611595565b3480156104f757600080fd5b506102cc6105063660046124ef565b600160a060020a031660009081526006602052604090205490565b34801561052d57600080fd5b5061035d61053c3660046125c7565b611809565b34801561054d57600080fd5b506102cc60105481565b34801561056357600080fd5b50600b546102fa90600160a060020a031681565b34801561058357600080fd5b5061023b611a37565b34801561059857600080fd5b5061035d6105a73660046124ef565b611a44565b61035d611b17565b3480156105c057600080fd5b5061037f6105cf36600461250c565b611d3d565b3480156105e057600080fd5b5061035d6105ef3660046124ef565b611ef6565b34801561060057600080fd5b5061037f61060f3660046124ef565b600160a060020a0316600090815260036020526040902054151590565b34801561063857600080fd5b506102fa6106473660046124ef565b611fd0565b34801561065857600080fd5b5061037f6106673660046124ef565b600160a060020a0316600090815260056020526040902054151590565b34801561069057600080fd5b506102cc61069f3660046125c7565b600160a060020a03918216600090815260096020908152604080832093909416825291909152205490565b3480156106d657600080fd5b5061037f6106e536600461250c565b612009565b3480156106f657600080fd5b5061023b6040518060400160405280600581526020017f312e302e3500000000000000000000000000000000000000000000000000000081525081565b60008054610740906125f5565b80601f016020809104026020016040519081016040528092919081815260200182805461076c906125f5565b80156107b95780601f1061078e576101008083540402835291602001916107b9565b820191906000526020600020905b81548152906001019060200180831161079c57829003601f168201915b505050505081565b600b54606090600160a060020a031633146107fa5760405160e560020a62461bcd0281526004016107f190612633565b60405180910390fd5b604080516020810190915260008082525b600160a060020a0384166000908152600a602052604090205481101561092b57600160a060020a0384166000908152600a602052604090208054839190839081106108585761085861266a565b60009182526020808320600390920290910154600160a060020a038881168452600a909252604090922080549190921691908490811061089a5761089a61266a565b906000526020600020906003020160010154600a600088600160a060020a0316600160a060020a0316815260200190815260200160002084815481106108e2576108e261266a565b9060005260206000209060030201600201546040516020016109079493929190612683565b6040516020818303038152906040529150808061092390612760565b91505061080b565b5092915050565b600a602052816000526040600020818154811061094e57600080fd5b6000918252602090912060039091020180546001820154600290920154600160a060020a03909116935090915083565b600b54600090600160a060020a031633146109ae5760405160e560020a62461bcd0281526004016107f190612633565b600c5482106109dc5760405160e560020a62461bcd02815260206004820152600060248201526044016107f1565b600c82815481106109ef576109ef61266a565b600091825260209091200154600160a060020a031692915050565b600b54600090600160a060020a03163314610a3a5760405160e560020a62461bcd0281526004016107f190612633565b50600c5490565b600b54600160a060020a03163314610a6e5760405160e560020a62461bcd0281526004016107f190612633565b600e829055600d805460ff191682151590811790915560ff1615610af15733600160a060020a03167fb9c39a906441691d138569e18a2c9766e29c5def7618306a8f07d7dc1f34627b6000604051602001610ac99190612818565b60408051601f1981840301815290829052610ae5918690612851565b60405180910390a25050565b33600160a060020a03167fb9c39a906441691d138569e18a2c9766e29c5def7618306a8f07d7dc1f34627b6000604051602001610ac99190612873565b6000601154600e54610b4091906128ac565b600e5410610b635760405160e560020a62461bcd0281526004016107f1906128c4565b600d5460ff16610b885760405160e560020a62461bcd0281526004016107f1906128fb565b600160a060020a0384166000908152600360205260409020548490610bcc5760405160e560020a62461bcd02815260206004820152600060248201526044016107f1565b610bd584612041565b610bdf85846120bb565b6040805160608082018352600160a060020a038781168084526020808501898152428688019081526000938452600a83528784208054600180820183559186529484902088516003909602018054600160a060020a0319169587169590951785559151918401919091555160029092019190915584519283019094528816815290918101610c6f86600019612932565b815242602091820152600160a060020a038881166000908152600a835260408082208054600180820183559184529285902086516003909402018054600160a060020a031916939094169290921783559284015190820155908201516002909101559050610cde8686866121fa565b9695505050505050565b600b54606090600160a060020a03163314610d185760405160e560020a62461bcd0281526004016107f190612633565b600160a060020a0383166000908152600a60205260409020805483908110610d4257610d4261266a565b60009182526020808320600390920290910154600160a060020a038681168452600a9092526040909220805491909216919084908110610d8457610d8461266a565b906000526020600020906003020160010154600a600086600160a060020a0316600160a060020a031681526020019081526020016000208481548110610dcc57610dcc61266a565b906000526020600020906003020160020154604051602001610e97939291907f5b000000000000000000000000000000000000000000000000000000000000008152600160a060020a03939093166c010000000000000000000000000260018401527f2c00000000000000000000000000000000000000000000000000000000000000601584018190526016840192909252603683019190915260378201527f5d00000000000000000000000000000000000000000000000000000000000000605782015260580190565b60405160208183030381529060405290505b92915050565b600b54600090600160a060020a03163314610edf5760405160e560020a62461bcd0281526004016107f190612633565b50600160a060020a0390811660009081526004602052604090205416151590565b600b54600160a060020a03163314610f2d5760405160e560020a62461bcd0281526004016107f190612633565b600160a060020a0382166000908152600360205260409020548290610f715760405160e560020a62461bcd02815260206004820152600060248201526044016107f1565b81610f9b5760405160e560020a62461bcd02815260206004820152600060248201526044016107f1565b600160a060020a03831660009081526003602052604090205482811461101d57600160a060020a0384166000818152600360209081526040918290208690558151928352820183905281018490523360608201527f63ec12603f028c6f74dc3c59a67d645d431250142b56676015d25475ee3fc3d39060800160405180910390a15b50505050565b600d5460009060ff1661104b5760405160e560020a62461bcd0281526004016107f1906128fb565b600b54600160a060020a031633146110785760405160e560020a62461bcd0281526004016107f190612633565b336000908152600860205260409020546110a75760405160e560020a62461bcd0281526004016107f190612633565b600160a060020a03831660009081526003602052604090205483906110eb5760405160e560020a62461bcd02815260206004820152600060248201526044016107f1565b8260105481600f546110fd91906128ac565b1061111d5760405160e560020a62461bcd0281526004016107f190612951565b601154600e5461112d91906128ac565b600e54106111505760405160e560020a62461bcd0281526004016107f1906128c4565b61115985612041565b83600f600082825461116b91906128ac565b909155505060408051606081018252600160a060020a038781168083526020808401898152428587019081526000938452600a83529583208054600180820183559185529290932085516003909302018054600160a060020a0319169290941691909117835551908201559151600290920191909155610cde8686612313565b600b54600160a060020a031633146112185760405160e560020a62461bcd0281526004016107f190612633565b600160a060020a03811631156112735760405160e560020a62461bcd02815260206004820152601b60248201527f6163636f756e742062616c616e6365206973206e6f74207a65726f000000000060448201526064016107f1565b600160a060020a038116600090815260036020526040902054156112e757600160a060020a038116600081815260036020908152604080832092909255815192835233908301527f8071c01a493142de896a206c19ca180d32e91d6486fcf11ea299f569f5d922b591015b60405180910390a15b50565b600b54600160a060020a031633146113175760405160e560020a62461bcd0281526004016107f190612633565b600160a060020a038083166000908152600460205260409020548391161561135e5760405160e560020a62461bcd02815260206004820152600060248201526044016107f1565b600160a060020a0383166113915760405160e560020a62461bcd02815260206004820152600060248201526044016107f1565b816113bb5760405160e560020a62461bcd02815260206004820152600060248201526044016107f1565b600160a060020a038316600090815260036020526040902054156113fe5760405160e560020a62461bcd02815260206004820152600060248201526044016107f1565b600160a060020a038316600081815260036020908152604091829020859055815192835282018490523382820152517fb4f9d1d687d745820ae7c948518d6eef182cfbf5ef20b5b6a33769059592e7c89181900360600190a1505050565b600b54600160a060020a031633146114895760405160e560020a62461bcd0281526004016107f190612633565b600160a060020a038116156114e35760405160e560020a62461bcd02815260206004820152601e60248201527f6d697373696e67207472616e73666572206167656e742061646472657373000060448201526064016107f1565b600b54600160a060020a03828116911614156115445760405160e560020a62461bcd02815260206004820152601760248201527f63616e6e6f742072656d6f766520746865206f776e657200000000000000000060448201526064016107f1565b600160a060020a038116600081815260076020908152604091829020805460ff1916905590519182527f2a6c8fd6a904ef448050f3dd3c91d69c89f6029c4144371b887bc536b34f6caa91016112de565b601154600e546115a591906128ac565b600e54106115c85760405160e560020a62461bcd0281526004016107f1906128c4565b600d5460ff166115ed5760405160e560020a62461bcd0281526004016107f1906128fb565b600160a060020a03821660009081526003602052604090205482906116315760405160e560020a62461bcd02815260206004820152600060248201526044016107f1565b600082116116aa5760405160e560020a62461bcd02815260206004820152602560248201527f596f75206e65656420746f2073656c6c206174206c6561737420736f6d65207460448201527f6f6b656e7300000000000000000000000000000000000000000000000000000060648201526084016107f1565b600160a060020a0383166000908152600960209081526040808320308452909152902054828110156117215760405160e560020a62461bcd02815260206004820152601960248201527f436865636b2074686520746f6b656e20616c6c6f77616e63650000000000000060448201526064016107f1565b61172c843085610b2e565b5060408051606081018252600160a060020a038681168083526020808401888152428587019081526000848152600a845287812080546001808201835591835294822088516003909602018054600160a060020a03191695909716949094178655915192850192909255905160029093019290925592519192916108fc87150291879190818181858888f193505050501580156117cd573d6000803e3d6000fd5b506040518481527f92f64ca637d023f354075a4be751b169c1a8a9ccb6d33cdd0cb3520543995727906020015b60405180910390a15050505050565b600d5460ff1661182e5760405160e560020a62461bcd0281526004016107f1906128fb565b600b54600160a060020a0316331461185b5760405160e560020a62461bcd0281526004016107f190612633565b600160a060020a038216600090815260056020526040902054829061189f5760405160e560020a62461bcd02815260206004820152600060248201526044016107f1565b600160a060020a0382166000908152600560205260409020548290156118e45760405160e560020a62461bcd02815260206004820152600060248201526044016107f1565b600160a060020a03831660009081526003602052604090205483906119285760405160e560020a62461bcd02815260206004820152600060248201526044016107f1565b600160a060020a038581166000908152600360209081526040808320839055600482528083208054600160a060020a031916948916949094179093556005905290812054611978906001906129ae565b905084600c828154811061198e5761198e61266a565b60009182526020808320919091018054600160a060020a031916600160a060020a039485161790558883168083526005825260408084208054958b1680865282862096909655828552849055600683528084208054868652828620558285529390935582519081529081019290925233908201527fb64971100522354f3d25283cb14e2eefcb0dd26a757482ccfe42479d0a6868579060600160405180910390a1505050505050565b60018054610740906125f5565b600b54600160a060020a03163314611a715760405160e560020a62461bcd0281526004016107f190612633565b600160a060020a038116611aca5760405160e560020a62461bcd02815260206004820152601660248201527f6d697373696e67206d696e74657220616464726573730000000000000000000060448201526064016107f1565b600160a060020a0381166000818152600860209081526040918290206001905590519182527f6ae172837ea30b801fbfcdd4108aa1d5bf8ff775444fd70256b44e6bf3dfc3f691016112de565b33600081815260036020526040902054611b505760405160e560020a62461bcd02815260206004820152600060248201526044016107f1565b601154600e54611b6091906128ac565b600e5410611b835760405160e560020a62461bcd0281526004016107f1906128c4565b600d5460ff16611ba85760405160e560020a62461bcd0281526004016107f1906128fb565b3460105481600f54611bba91906128ac565b10611bda5760405160e560020a62461bcd0281526004016107f190612951565b30600090815260066020526040902054349081611c3c5760405160e560020a62461bcd02815260206004820152601b60248201527f596f75206e65656420746f2073656e6420736f6d65206574686572000000000060448201526064016107f1565b80821115611c8f5760405160e560020a62461bcd02815260206004820181905260248201527f4e6f7420656e6f75676820746f6b656e7320696e20746865207265736572766560448201526064016107f1565b60408051606081018252338082526020808301868152428486019081526000848152600a84529586208054600180820183559188529390962085516003909402018054600160a060020a031916600160a060020a03909416939093178355905194820194909455925160029093019290925590611d0c9084611d3d565b506040518381527f4e08ba899977cf7d4c2964bce71c6b9a7ef76ee5166a4c1249a1e08016e33ef1906020016117fa565b6000601154600e54611d4f91906128ac565b600e5410611d725760405160e560020a62461bcd0281526004016107f1906128c4565b600d5460ff16611d975760405160e560020a62461bcd0281526004016107f1906128fb565b600160a060020a0383166000908152600360205260409020548390611ddb5760405160e560020a62461bcd02815260206004820152600060248201526044016107f1565b611de484612041565b611dee33846120bb565b6040805160608082018352600160a060020a038781168084526020808501898152428688019081526000938452600a83528784208054600180820183559186529484902088516003909602018054600160a060020a031916959096169490941785559051928401929092559051600290920191909155835191820190935233815290918101611e7f86600019612932565b815242602091820152336000908152600a825260408082208054600180820183559184529284902085516003909402018054600160a060020a031916600160a060020a039094169390931783559284015192820192909255908201516002909101559050611eed85856123e3565b95945050505050565b600b54600160a060020a03163314611f235760405160e560020a62461bcd0281526004016107f190612633565b600160a060020a038116611f7c5760405160e560020a62461bcd02815260206004820152601e60248201527f6d697373696e67207472616e73666572206167656e742061646472657373000060448201526064016107f1565b600160a060020a038116600081815260076020908152604091829020805460ff1916600117905590519182527f1e9fcacb7052d8badc53a7061f6dc79beafe00b872cc7d0a57c541023eb9eabc91016112de565b600b54600090600160a060020a031633146120005760405160e560020a62461bcd0281526004016107f190612633565b610ea982612436565b6000600160a060020a03831661202157506000610ea9565b50600160a060020a03919091166000908152600360205260409020541490565b600160a060020a0381166000908152600560205260409020546112e757600c805460018181019092557fdf6966c971051c3d54ec59162606531493a51404a002842f56009d7e5cf4a8c7018054600160a060020a038416600160a060020a0319909116811790915560009081526005602052604090205550565b60006120d182600160a060020a038516316129ae565b905080156120de57505050565b600160a060020a038316600090815260056020526040812054612103906001906129ae565b600c54909150600090612118906001906129ae565b90506000600c828154811061212f5761212f61266a565b600091825260209091200154600c8054600160a060020a03909216925082918590811061215e5761215e61266a565b60009182526020808320919091018054600160a060020a031916600160a060020a039485161790558883168252600590526040808220549284168252902055600c80546121ad906001906129ae565b815481106121bd576121bd61266a565b600091825260208083209091018054600160a060020a0319169055600160a060020a03979097168152600590965250506040842093909355505050565b600160a060020a03831660009081526006602052604081205482106122645760405160e560020a62461bcd02815260206004820152601460248201527f696e73756666696369656e742062616c616e636500000000000000000000000060448201526064016107f1565b600160a060020a0383166000908152600660205260408120805484929061228c9084906128ac565b9091555050600160a060020a038416600090815260066020526040812080548492906122b99084906129ae565b909155505060408051600160a060020a038087168252851660208201529081018390527fc0d84ce5c7ff9ca21adb0f8436ff3f4951b4bb78c4e2fae2b6837958b3946ffd9060600160405180910390a15060019392505050565b600060025482111561236a5760405160e560020a62461bcd02815260206004820152601460248201527f6578636565647320746f74616c20737570706c7900000000000000000000000060448201526064016107f1565b600160a060020a038316600090815260066020526040812080548492906123929084906128ac565b909155505060408051600160a060020a0385168152602081018490527f30385c845b448a36257a6a1716e6ad2e1bc2cbe333cde1e69fe849ad6511adfe91015b60405180910390a150600192915050565b600160a060020a0382166000818152600660209081526040808320859055805193845290830184905290917f69ca02dd4edd7bf0a4abb9ed3b7af3f14778db5d61921c7dc7cd545266326de291016123d2565b600160a060020a038082166000908152600460205260408120549091168061245f575090919050565b61246881612436565b9392505050565b60005b8381101561248a578181015183820152602001612472565b8381111561101d5750506000910152565b600081518084526124b381602086016020860161246f565b601f01601f19169290920160200192915050565b602081526000612468602083018461249b565b600160a060020a03811681146112e757600080fd5b60006020828403121561250157600080fd5b8135612468816124da565b6000806040838503121561251f57600080fd5b823561252a816124da565b946020939093013593505050565b60006020828403121561254a57600080fd5b5035919050565b6000806040838503121561256457600080fd5b823591506020830135801515811461257b57600080fd5b809150509250929050565b60008060006060848603121561259b57600080fd5b83356125a6816124da565b925060208401356125b6816124da565b929592945050506040919091013590565b600080604083850312156125da57600080fd5b82356125e5816124da565b9150602083013561257b816124da565b60028104600182168061260957607f821691505b6020821081141561262d5760e060020a634e487b7102600052602260045260246000fd5b50919050565b6020808252600d908201527f6163636573732064656e69656400000000000000000000000000000000000000604082015260600190565b60e060020a634e487b7102600052603260045260246000fd5b60008551612695818460208a0161246f565b7f5b00000000000000000000000000000000000000000000000000000000000000920191825250600160a060020a03939093166c010000000000000000000000000260018401527f2c00000000000000000000000000000000000000000000000000000000000000601584018190526016840192909252603683019190915260378201527f5d000000000000000000000000000000000000000000000000000000000000006057820152605801919050565b60e060020a634e487b7102600052601160045260246000fd5b600060001982141561277457612774612747565b5060010190565b80546000906002810460018083168061279557607f831692505b60208084108214156127ba5760e060020a634e487b7102600052602260045260246000fd5b8180156127ce57600181146127df5761280c565b60ff1986168952848901965061280c565b60008881526020902060005b868110156128045781548b8201529085019083016127eb565b505084890196505b50505050505092915050565b6000612824828461277b565b7f20686173207374617274656400000000000000000000000000000000000000008152600c019392505050565b604081526000612864604083018561249b565b90508260208301529392505050565b600061287f828461277b565b7f206861732073746f7070656400000000000000000000000000000000000000008152600c019392505050565b600082198211156128bf576128bf612747565b500190565b60208082526014908201527f6f66666572696e67206861732065787069726564000000000000000000000000604082015260600190565b6020808252601d908201527f6578656d7074206f66666572696e67206973206e6f7420616374697665000000604082015260600190565b600081600019048311821515161561294c5761294c612747565b500290565b60208082526021908201527f6d6178696d756d206f66666572696e6720686173206265656e2072656163686560408201527f6400000000000000000000000000000000000000000000000000000000000000606082015260800190565b6000828210156129c0576129c0612747565b50039056fea264697066735822122033e14f3d8883311da30deb19c0fb858b90792fae0999a53a664af79c3d78b41764736f6c634300080a0033",
  "immutableReferences": {},
  "source": "// SPDX-License-Identifier: CC-BY-4.0\npragma solidity >=0.4.22 <0.9.0;\n\n/**\n * Regulation A: Tier 2\n * --------------------\n * See https://www.investor.gov/introduction-investing/investing-basics/glossary/regulation\n *\n * Under Tier 2, an issuer can raise up to $50 million in any 12-month period, including no more than $15 million on behalf of selling securityholders that are\n * affiliates of the issuer.  Unlike Tier 1 offerings, the offering statement does not have to be qualified by a state securities regulator, and the issuer is subject to\n * ongoing reporting requirements in the form of an annual report on Form 1-K, a semiannual report on Form 1-SA and a current report on Form 1-U.\n */\n\nimport \"../Version.sol\";\nimport \"./ExemptEquityOfferingRegA.sol\";\n\ncontract ExemptEquityOfferingAT2 is Version, ExemptEquityOfferingRegA {\n  constructor()\n  {\n    name = \"Regulation A Tier 2 Token\";\n    symbol = \"TOKEN.AT2\";\n    owner = msg.sender;\n    addMinter(owner);\n    totalValueMax = 50000000;\n  }\n}\n",
  "sourcePath": "G:\\projects\\pingleware-contracts\\contracts\\equity\\ExemptEquityOfferingAT2.sol",
  "compiler": {
    "name": "solc",
    "version": "0.8.10+commit.fc410830.Emscripten.clang"
  },
  "schemaVersion": "3.4.3",
  "updatedAt": "2021-12-24T16:15:20.442Z",
  "devdoc": {
    "kind": "dev",
    "methods": {
      "addVerified(address,bytes32)": {
        "params": {
          "addr": "The address of the person represented by the supplied hash.",
          "hash": "A cryptographic hash of the address holder's verified information."
        }
      },
      "cancelAndReissue(address,address)": {
        "params": {
          "original": "The address to be superseded. This address MUST NOT be reused.",
          "replacement": "The address  that supersedes the original. This address MUST be verified."
        }
      },
      "getCurrentFor(address)": {
        "params": {
          "addr": "The superseded address."
        },
        "returns": {
          "_0": "the verified address that ultimately holds the share."
        }
      },
      "hasHash(address,bytes32)": {
        "params": {
          "addr": "The address to test.",
          "hash": "The hash to test."
        },
        "returns": {
          "_0": "true if the hash matches the one supplied with the address in `addVerified`, or `updateVerified`."
        }
      },
      "holderAt(uint256)": {
        "params": {
          "index": "The zero-based index of the holder."
        },
        "returns": {
          "_0": "the address of the token holder with the given index."
        }
      },
      "holderCount()": {
        "returns": {
          "_0": "the number of unique addresses that own tokens."
        }
      },
      "isHolder(address)": {
        "params": {
          "addr": "The address to check."
        },
        "returns": {
          "_0": "true if the supplied address owns a token."
        }
      },
      "isSuperseded(address)": {
        "params": {
          "addr": "The address to check."
        },
        "returns": {
          "_0": "true if the supplied address was superseded by another address."
        }
      },
      "isVerified(address)": {
        "params": {
          "addr": "The address to test."
        },
        "returns": {
          "_0": "true if the address is known to the contract."
        }
      },
      "mint(address,uint256)": {
        "params": {
          "_amount": "The amount of tokens to mint.",
          "_to": "The address that will receive the minted tokens."
        },
        "returns": {
          "_0": "A boolean that indicates if the operation was successful."
        }
      },
      "removeVerified(address)": {
        "params": {
          "addr": "The verified address to be removed."
        }
      },
      "updateVerified(address,bytes32)": {
        "params": {
          "addr": "The verified address of the person represented by the supplied hash.",
          "hash": "A new cryptographic hash of the address holder's updated verified information."
        }
      }
    },
    "version": 1
  },
  "userdoc": {
    "kind": "user",
    "methods": {
      "addVerified(address,bytes32)": {
        "notice": "Add a verified address, along with an associated verification hash to the contract.  Upon successful addition of a verified address, the contract must emit  `VerifiedAddressAdded(addr, hash, msg.sender)`.  It MUST throw if the supplied address or hash are zero, or if the address has already been supplied."
      },
      "cancelAndReissue(address,address)": {
        "notice": "Cancel the original address and reissue the Tokens to the replacement address.  Access to this function MUST be strictly controlled.  The `original` address MUST be removed from the set of verified addresses.  Throw if the `original` address supplied is not a shareholder.  Throw if the replacement address is not a verified address.  This function MUST emit the `VerifiedAddressSuperseded` event."
      },
      "getCurrentFor(address)": {
        "notice": "Gets the most recent address, given a superseded one.  Addresses may be superseded multiple times, so this function needs to  follow the chain of addresses until it reaches the final, verified address."
      },
      "hasHash(address,bytes32)": {
        "notice": "Checks that the supplied hash is associated with the given address."
      },
      "holderAt(uint256)": {
        "notice": "By counting the number of token holders using `holderCount`  you can retrieve the complete list of token holders, one at a time.  It MUST throw if `index >= holderCount()`."
      },
      "holderCount()": {
        "notice": "The number of addresses that own tokens."
      },
      "isHolder(address)": {
        "notice": "Checks to see if the supplied address is a share holder."
      },
      "isSuperseded(address)": {
        "notice": "Checks to see if the supplied address was superseded."
      },
      "isVerified(address)": {
        "notice": "Tests that the supplied address is known to the contract."
      },
      "mint(address,uint256)": {
        "notice": "As each token is minted it is added to the shareholders array."
      },
      "removeVerified(address)": {
        "notice": "Remove a verified address, and the associated verification hash. If the address is  unknown to the contract then this does nothing. If the address is successfully removed, this  function must emit `VerifiedAddressRemoved(addr, msg.sender)`.  It MUST throw if an attempt is made to remove a verifiedAddress that owns Tokens."
      },
      "transfer(address,uint256)": {
        "notice": "The `transfer` function MUST NOT allow transfers to addresses that  have not been verified and added to the contract.  If the `to` address is not currently a shareholder then it MUST become one.  If the transfer will reduce `msg.sender`'s balance to 0 then that address  MUST be removed from the list of shareholders."
      },
      "transferFrom(address,address,uint256)": {
        "notice": "The `transferFrom` function MUST NOT allow transfers to addresses that  have not been verified and added to the contract.  If the `to` address is not currently a shareholder then it MUST become one.  If the transfer will reduce `from`'s balance to 0 then that address  MUST be removed from the list of shareholders."
      },
      "updateVerified(address,bytes32)": {
        "notice": "Update the hash for a verified address known to the contract.  Upon successful update of a verified address the contract must emit  `VerifiedAddressUpdated(addr, oldHash, hash, msg.sender)`.  If the hash is the same as the value already stored then  no `VerifiedAddressUpdated` event is to be emitted.  It MUST throw if the hash is zero, or if the address is unverified."
      }
    },
    "version": 1
  }
}