{
  "contractName": "ExemptEquityOffering505",
  "abi": [
    {
      "inputs": [],
      "stateMutability": "nonpayable",
      "type": "constructor"
    },
    {
      "anonymous": false,
      "inputs": [
        {
          "indexed": false,
          "internalType": "uint256",
          "name": "value",
          "type": "uint256"
        }
      ],
      "name": "Bought",
      "type": "event"
    },
    {
      "anonymous": false,
      "inputs": [
        {
          "indexed": true,
          "internalType": "address",
          "name": "from",
          "type": "address"
        },
        {
          "indexed": false,
          "internalType": "string",
          "name": "status",
          "type": "string"
        },
        {
          "indexed": false,
          "internalType": "uint256",
          "name": "value",
          "type": "uint256"
        }
      ],
      "name": "ExemptOffering",
      "type": "event"
    },
    {
      "anonymous": false,
      "inputs": [
        {
          "indexed": false,
          "internalType": "address",
          "name": "addr",
          "type": "address"
        },
        {
          "indexed": false,
          "internalType": "uint256",
          "name": "amount",
          "type": "uint256"
        }
      ],
      "name": "Minted",
      "type": "event"
    },
    {
      "anonymous": false,
      "inputs": [
        {
          "indexed": false,
          "internalType": "address",
          "name": "addr",
          "type": "address"
        }
      ],
      "name": "MinterAdded",
      "type": "event"
    },
    {
      "anonymous": false,
      "inputs": [
        {
          "indexed": false,
          "internalType": "uint256",
          "name": "value",
          "type": "uint256"
        }
      ],
      "name": "Sold",
      "type": "event"
    },
    {
      "anonymous": false,
      "inputs": [
        {
          "indexed": false,
          "internalType": "address",
          "name": "addr",
          "type": "address"
        },
        {
          "indexed": false,
          "internalType": "uint256",
          "name": "amount",
          "type": "uint256"
        }
      ],
      "name": "Transfer",
      "type": "event"
    },
    {
      "anonymous": false,
      "inputs": [
        {
          "indexed": false,
          "internalType": "address",
          "name": "addr",
          "type": "address"
        }
      ],
      "name": "TransferAgentAdded",
      "type": "event"
    },
    {
      "anonymous": false,
      "inputs": [
        {
          "indexed": false,
          "internalType": "address",
          "name": "addr",
          "type": "address"
        }
      ],
      "name": "TransferAgentRemoved",
      "type": "event"
    },
    {
      "anonymous": false,
      "inputs": [
        {
          "indexed": false,
          "internalType": "address",
          "name": "from",
          "type": "address"
        },
        {
          "indexed": false,
          "internalType": "address",
          "name": "to",
          "type": "address"
        },
        {
          "indexed": false,
          "internalType": "uint256",
          "name": "value",
          "type": "uint256"
        }
      ],
      "name": "TransferFrom",
      "type": "event"
    },
    {
      "anonymous": false,
      "inputs": [
        {
          "indexed": false,
          "internalType": "address",
          "name": "addr",
          "type": "address"
        },
        {
          "indexed": false,
          "internalType": "bytes32",
          "name": "hash",
          "type": "bytes32"
        },
        {
          "indexed": false,
          "internalType": "address",
          "name": "sender",
          "type": "address"
        }
      ],
      "name": "VerifiedAddressAdded",
      "type": "event"
    },
    {
      "anonymous": false,
      "inputs": [
        {
          "indexed": false,
          "internalType": "address",
          "name": "addr",
          "type": "address"
        },
        {
          "indexed": false,
          "internalType": "address",
          "name": "sender",
          "type": "address"
        }
      ],
      "name": "VerifiedAddressRemoved",
      "type": "event"
    },
    {
      "anonymous": false,
      "inputs": [
        {
          "indexed": false,
          "internalType": "address",
          "name": "addr1",
          "type": "address"
        },
        {
          "indexed": false,
          "internalType": "address",
          "name": "addr2",
          "type": "address"
        },
        {
          "indexed": false,
          "internalType": "address",
          "name": "addr3",
          "type": "address"
        }
      ],
      "name": "VerifiedAddressSuperseded",
      "type": "event"
    },
    {
      "anonymous": false,
      "inputs": [
        {
          "indexed": false,
          "internalType": "address",
          "name": "addr",
          "type": "address"
        },
        {
          "indexed": false,
          "internalType": "bytes32",
          "name": "oldhash",
          "type": "bytes32"
        },
        {
          "indexed": false,
          "internalType": "bytes32",
          "name": "hash",
          "type": "bytes32"
        },
        {
          "indexed": false,
          "internalType": "address",
          "name": "sender",
          "type": "address"
        }
      ],
      "name": "VerifiedAddressUpdated",
      "type": "event"
    },
    {
      "inputs": [],
      "name": "INITIAL_SUPPLY",
      "outputs": [
        {
          "internalType": "uint256",
          "name": "",
          "type": "uint256"
        }
      ],
      "stateMutability": "view",
      "type": "function"
    },
    {
      "inputs": [],
      "name": "VERSION",
      "outputs": [
        {
          "internalType": "string",
          "name": "",
          "type": "string"
        }
      ],
      "stateMutability": "view",
      "type": "function"
    },
    {
      "inputs": [
        {
          "internalType": "address",
          "name": "",
          "type": "address"
        }
      ],
      "name": "balances",
      "outputs": [
        {
          "internalType": "uint256",
          "name": "",
          "type": "uint256"
        }
      ],
      "stateMutability": "view",
      "type": "function"
    },
    {
      "inputs": [],
      "name": "decimals",
      "outputs": [
        {
          "internalType": "uint8",
          "name": "",
          "type": "uint8"
        }
      ],
      "stateMutability": "view",
      "type": "function"
    },
    {
      "inputs": [],
      "name": "maxNonaccredited",
      "outputs": [
        {
          "internalType": "uint256",
          "name": "",
          "type": "uint256"
        }
      ],
      "stateMutability": "view",
      "type": "function"
    },
    {
      "inputs": [],
      "name": "name",
      "outputs": [
        {
          "internalType": "string",
          "name": "",
          "type": "string"
        }
      ],
      "stateMutability": "view",
      "type": "function"
    },
    {
      "inputs": [],
      "name": "negative",
      "outputs": [
        {
          "internalType": "uint256",
          "name": "",
          "type": "uint256"
        }
      ],
      "stateMutability": "view",
      "type": "function"
    },
    {
      "inputs": [],
      "name": "parValue",
      "outputs": [
        {
          "internalType": "uint256",
          "name": "",
          "type": "uint256"
        }
      ],
      "stateMutability": "view",
      "type": "function"
    },
    {
      "inputs": [],
      "name": "symbol",
      "outputs": [
        {
          "internalType": "string",
          "name": "",
          "type": "string"
        }
      ],
      "stateMutability": "view",
      "type": "function"
    },
    {
      "inputs": [],
      "name": "totalSupply",
      "outputs": [
        {
          "internalType": "uint256",
          "name": "",
          "type": "uint256"
        }
      ],
      "stateMutability": "view",
      "type": "function"
    },
    {
      "inputs": [],
      "name": "totalValueMax",
      "outputs": [
        {
          "internalType": "uint256",
          "name": "",
          "type": "uint256"
        }
      ],
      "stateMutability": "view",
      "type": "function"
    },
    {
      "inputs": [
        {
          "internalType": "address",
          "name": "",
          "type": "address"
        },
        {
          "internalType": "uint256",
          "name": "",
          "type": "uint256"
        }
      ],
      "name": "transactions",
      "outputs": [
        {
          "internalType": "address",
          "name": "addr",
          "type": "address"
        },
        {
          "internalType": "uint256",
          "name": "amount",
          "type": "uint256"
        },
        {
          "internalType": "uint256",
          "name": "time",
          "type": "uint256"
        }
      ],
      "stateMutability": "view",
      "type": "function"
    },
    {
      "inputs": [
        {
          "internalType": "address",
          "name": "addr",
          "type": "address"
        }
      ],
      "name": "balanceOf",
      "outputs": [
        {
          "internalType": "uint256",
          "name": "",
          "type": "uint256"
        }
      ],
      "stateMutability": "view",
      "type": "function"
    },
    {
      "inputs": [
        {
          "internalType": "address",
          "name": "_owner",
          "type": "address"
        },
        {
          "internalType": "address",
          "name": "spender",
          "type": "address"
        }
      ],
      "name": "allowance",
      "outputs": [
        {
          "internalType": "uint256",
          "name": "",
          "type": "uint256"
        }
      ],
      "stateMutability": "view",
      "type": "function"
    },
    {
      "inputs": [
        {
          "internalType": "address",
          "name": "addr",
          "type": "address"
        }
      ],
      "name": "addMinter",
      "outputs": [],
      "stateMutability": "nonpayable",
      "type": "function"
    },
    {
      "inputs": [
        {
          "internalType": "address",
          "name": "addr",
          "type": "address"
        }
      ],
      "name": "addTransferAgent",
      "outputs": [],
      "stateMutability": "nonpayable",
      "type": "function"
    },
    {
      "inputs": [
        {
          "internalType": "address",
          "name": "addr",
          "type": "address"
        }
      ],
      "name": "removeTransferAgent",
      "outputs": [],
      "stateMutability": "nonpayable",
      "type": "function"
    },
    {
      "inputs": [
        {
          "internalType": "address",
          "name": "_to",
          "type": "address"
        },
        {
          "internalType": "uint256",
          "name": "_amount",
          "type": "uint256"
        }
      ],
      "name": "mint",
      "outputs": [
        {
          "internalType": "bool",
          "name": "",
          "type": "bool"
        }
      ],
      "stateMutability": "nonpayable",
      "type": "function"
    },
    {
      "inputs": [
        {
          "internalType": "uint256",
          "name": "timestamp",
          "type": "uint256"
        },
        {
          "internalType": "bool",
          "name": "_active",
          "type": "bool"
        }
      ],
      "name": "toggleExemptOffering",
      "outputs": [],
      "stateMutability": "nonpayable",
      "type": "function"
    },
    {
      "inputs": [
        {
          "internalType": "address",
          "name": "addr",
          "type": "address"
        }
      ],
      "name": "getTransactions",
      "outputs": [
        {
          "internalType": "string",
          "name": "",
          "type": "string"
        }
      ],
      "stateMutability": "view",
      "type": "function"
    },
    {
      "inputs": [
        {
          "internalType": "address",
          "name": "addr",
          "type": "address"
        },
        {
          "internalType": "uint256",
          "name": "index",
          "type": "uint256"
        }
      ],
      "name": "getTransactionByIndex",
      "outputs": [
        {
          "internalType": "string",
          "name": "",
          "type": "string"
        }
      ],
      "stateMutability": "view",
      "type": "function"
    },
    {
      "inputs": [],
      "name": "holderCount",
      "outputs": [
        {
          "internalType": "uint256",
          "name": "",
          "type": "uint256"
        }
      ],
      "stateMutability": "view",
      "type": "function"
    },
    {
      "inputs": [
        {
          "internalType": "uint256",
          "name": "index",
          "type": "uint256"
        }
      ],
      "name": "holderAt",
      "outputs": [
        {
          "internalType": "address",
          "name": "",
          "type": "address"
        }
      ],
      "stateMutability": "view",
      "type": "function"
    },
    {
      "inputs": [
        {
          "internalType": "address",
          "name": "addr",
          "type": "address"
        },
        {
          "internalType": "bytes32",
          "name": "hash",
          "type": "bytes32"
        }
      ],
      "name": "addVerified",
      "outputs": [],
      "stateMutability": "nonpayable",
      "type": "function"
    },
    {
      "inputs": [
        {
          "internalType": "address",
          "name": "addr",
          "type": "address"
        }
      ],
      "name": "removeVerified",
      "outputs": [],
      "stateMutability": "nonpayable",
      "type": "function"
    },
    {
      "inputs": [
        {
          "internalType": "address",
          "name": "addr",
          "type": "address"
        },
        {
          "internalType": "bytes32",
          "name": "hash",
          "type": "bytes32"
        }
      ],
      "name": "updateVerified",
      "outputs": [],
      "stateMutability": "nonpayable",
      "type": "function"
    },
    {
      "inputs": [
        {
          "internalType": "address",
          "name": "original",
          "type": "address"
        },
        {
          "internalType": "address",
          "name": "replacement",
          "type": "address"
        }
      ],
      "name": "cancelAndReissue",
      "outputs": [],
      "stateMutability": "nonpayable",
      "type": "function"
    },
    {
      "inputs": [
        {
          "internalType": "address",
          "name": "to",
          "type": "address"
        },
        {
          "internalType": "uint256",
          "name": "value",
          "type": "uint256"
        }
      ],
      "name": "transfer",
      "outputs": [
        {
          "internalType": "bool",
          "name": "",
          "type": "bool"
        }
      ],
      "stateMutability": "nonpayable",
      "type": "function"
    },
    {
      "inputs": [
        {
          "internalType": "address",
          "name": "from",
          "type": "address"
        },
        {
          "internalType": "address",
          "name": "to",
          "type": "address"
        },
        {
          "internalType": "uint256",
          "name": "value",
          "type": "uint256"
        }
      ],
      "name": "transferFrom",
      "outputs": [
        {
          "internalType": "bool",
          "name": "",
          "type": "bool"
        }
      ],
      "stateMutability": "nonpayable",
      "type": "function"
    },
    {
      "inputs": [
        {
          "internalType": "address",
          "name": "addr",
          "type": "address"
        }
      ],
      "name": "isVerified",
      "outputs": [
        {
          "internalType": "bool",
          "name": "",
          "type": "bool"
        }
      ],
      "stateMutability": "view",
      "type": "function"
    },
    {
      "inputs": [
        {
          "internalType": "address",
          "name": "addr",
          "type": "address"
        }
      ],
      "name": "isHolder",
      "outputs": [
        {
          "internalType": "bool",
          "name": "",
          "type": "bool"
        }
      ],
      "stateMutability": "view",
      "type": "function"
    },
    {
      "inputs": [
        {
          "internalType": "address",
          "name": "addr",
          "type": "address"
        },
        {
          "internalType": "bytes32",
          "name": "hash",
          "type": "bytes32"
        }
      ],
      "name": "hasHash",
      "outputs": [
        {
          "internalType": "bool",
          "name": "",
          "type": "bool"
        }
      ],
      "stateMutability": "view",
      "type": "function"
    },
    {
      "inputs": [
        {
          "internalType": "address",
          "name": "addr",
          "type": "address"
        }
      ],
      "name": "isSuperseded",
      "outputs": [
        {
          "internalType": "bool",
          "name": "",
          "type": "bool"
        }
      ],
      "stateMutability": "view",
      "type": "function"
    },
    {
      "inputs": [
        {
          "internalType": "address",
          "name": "addr",
          "type": "address"
        }
      ],
      "name": "getCurrentFor",
      "outputs": [
        {
          "internalType": "address",
          "name": "",
          "type": "address"
        }
      ],
      "stateMutability": "view",
      "type": "function"
    },
    {
      "inputs": [
        {
          "internalType": "address",
          "name": "addr",
          "type": "address"
        },
        {
          "internalType": "uint256",
          "name": "level",
          "type": "uint256"
        }
      ],
      "name": "addShareholder",
      "outputs": [],
      "stateMutability": "nonpayable",
      "type": "function"
    },
    {
      "inputs": [],
      "name": "buy",
      "outputs": [],
      "stateMutability": "payable",
      "type": "function"
    },
    {
      "inputs": [
        {
          "internalType": "address payable",
          "name": "sender",
          "type": "address"
        },
        {
          "internalType": "uint256",
          "name": "amount",
          "type": "uint256"
        }
      ],
      "name": "sell",
      "outputs": [],
      "stateMutability": "payable",
      "type": "function"
    }
  ],
  "bytecode": "0x60806040526000808055600c805460ff19908116909155600e91909155600f805490911660011790556301dfe2006010553480156200003d57600080fd5b5060098054600160a060020a03191633908117909155620000679064010000000062000099810204565b6009546200009290600160a060020a031669152d02c7e14af6800000640100000000620001d8810204565b5062000301565b600954600160a060020a0316331462000113576040517f08c379a000000000000000000000000000000000000000000000000000000000815260206004820152600d60248201527f6163636573732064656e6965640000000000000000000000000000000000000060448201526064015b60405180910390fd5b600160a060020a03811662000185576040517f08c379a000000000000000000000000000000000000000000000000000000000815260206004820152601660248201527f6d697373696e67206d696e74657220616464726573730000000000000000000060448201526064016200010a565b600160a060020a0381166000818152600660209081526040918290206001905590519182527f6ae172837ea30b801fbfcdd4108aa1d5bf8ff775444fd70256b44e6bf3dfc3f6910160405180910390a150565b6000805482111562000247576040517f08c379a000000000000000000000000000000000000000000000000000000000815260206004820152601460248201527f6578636565647320746f74616c20737570706c7900000000000000000000000060448201526064016200010a565b600160a060020a0383166000908152600460205260408120805484929062000271908490620002c1565b909155505060408051600160a060020a0385168152602081018490527f30385c845b448a36257a6a1716e6ad2e1bc2cbe333cde1e69fe849ad6511adfe910160405180910390a150600192915050565b60008219821115620002fc577f4e487b7100000000000000000000000000000000000000000000000000000000600052601160045260246000fd5b500190565b612a8e80620003116000396000f3fe608060405260043610610237576000357c01000000000000000000000000000000000000000000000000000000009004806347089f6211610140578063a6f2ae3a116100c8578063cc397ed31161008c578063cc397ed3146106de578063d4d7b19a146106fe578063dd62ed3e14610736578063f3221c7f1461077c578063ffa1ad741461079c57600080fd5b8063a6f2ae3a14610649578063a9059cbb14610651578063b031459914610671578063b9209e3314610691578063c93fcbb4146106c957600080fd5b8063757249901161010f578063757249901461058957806379f64720146105a95780638bf14094146105c957806395d89b41146105e0578063983b2d561461062957600080fd5b806347089f6214610500578063610db94e146105205780636c197ff51461054057806370a082311461055357600080fd5b806327e235e3116101c35780632ff2e9dc116101925780632ff2e9dc1461045b578063313ce56714610479578063354b7b1d146104a057806340c10f19146104c05780634487b392146104e057600080fd5b806327e235e3146103d95780632ab2efc8146104065780632cea64bf146104265780632da7293e1461043b57600080fd5b8063197bc3361161020a578063197bc336146103245780631aab9a9f1461035c5780631cb3ef1f146103715780631fb716e41461038757806323b872dd146103a957600080fd5b806306fdde031461023c5780630f8cda201461029b57806314538128146102bb57806318160ddd14610300575b600080fd5b34801561024857600080fd5b506102856040518060400160405280600e81526020017f52756c652035303520546f6b656e00000000000000000000000000000000000081525081565b60405161029291906125ca565b60405180910390f35b3480156102a757600080fd5b506102856102b63660046125f2565b6107e5565b3480156102c757600080fd5b506102db6102d636600461260f565b610956565b60408051600160a060020a039094168452602084019290925290820152606001610292565b34801561030c57600080fd5b5061031660005481565b604051908152602001610292565b34801561033057600080fd5b5061034461033f36600461263b565b6109a2565b604051600160a060020a039091168152602001610292565b34801561036857600080fd5b50610316610a2e565b34801561037d57600080fd5b5061031660001981565b34801561039357600080fd5b506103a76103a2366004612654565b610a65565b005b3480156103b557600080fd5b506103c96103c4366004612689565b610bbe565b6040519015158152602001610292565b3480156103e557600080fd5b506103166103f43660046125f2565b60046020526000908152604090205481565b34801561041257600080fd5b5061028561042136600461260f565b610d6f565b34801561043257600080fd5b50610316600a81565b34801561044757600080fd5b506103c96104563660046125f2565b610f36565b34801561046757600080fd5b5061031669152d02c7e14af680000081565b34801561048557600080fd5b5061048e600081565b60405160ff9091168152602001610292565b3480156104ac57600080fd5b506103a76104bb36600461260f565b610f87565b3480156104cc57600080fd5b506103c96104db36600461260f565b6110ab565b3480156104ec57600080fd5b506103a76104fb3660046125f2565b6112fc565b34801561050c57600080fd5b506103a761051b36600461260f565b6113fb565b34801561052c57600080fd5b506103a761053b3660046125f2565b61156d565b6103a761054e36600461260f565b6116a6565b34801561055f57600080fd5b5061031661056e3660046125f2565b600160a060020a031660009081526004602052604090205490565b34801561059557600080fd5b506103a76105a436600461260f565b6118e6565b3480156105b557600080fd5b506103a76105c43660046126ca565b6119e1565b3480156105d557600080fd5b50610316624c4b4081565b3480156105ec57600080fd5b506102856040518060400160405280600981526020017f544f4b454e2e353035000000000000000000000000000000000000000000000081525081565b34801561063557600080fd5b506103a76106443660046125f2565b611c0e565b6103a7611ce1565b34801561065d57600080fd5b506103c961066c36600461260f565b611ecf565b34801561067d57600080fd5b506103a761068c3660046125f2565b61207f565b34801561069d57600080fd5b506103c96106ac3660046125f2565b600160a060020a0316600090815260016020526040902054151590565b3480156106d557600080fd5b50610316602381565b3480156106ea57600080fd5b506103446106f93660046125f2565b612159565b34801561070a57600080fd5b506103c96107193660046125f2565b600160a060020a0316600090815260036020526040902054151590565b34801561074257600080fd5b506103166107513660046126ca565b600160a060020a03918216600090815260076020908152604080832093909416825291909152205490565b34801561078857600080fd5b506103c961079736600461260f565b612192565b3480156107a857600080fd5b506102856040518060400160405280600581526020017f312e302e3500000000000000000000000000000000000000000000000000000081525081565b600954606090600160a060020a0316331461081e5760405160e560020a62461bcd028152600401610815906126f8565b60405180910390fd5b604080516020810190915260008082525b600160a060020a03841660009081526008602052604090205481101561094f57600160a060020a038416600090815260086020526040902080548391908390811061087c5761087c61272f565b60009182526020808320600390920290910154600160a060020a038881168452600890925260409092208054919092169190849081106108be576108be61272f565b9060005260206000209060030201600101546008600088600160a060020a0316600160a060020a0316815260200190815260200160002084815481106109065761090661272f565b90600052602060002090600302016002015460405160200161092b949392919061275e565b6040516020818303038152906040529150808061094790612851565b91505061082f565b5092915050565b6008602052816000526040600020818154811061097257600080fd5b6000918252602090912060039091020180546001820154600290920154600160a060020a03909116935090915083565b600954600090600160a060020a031633146109d25760405160e560020a62461bcd028152600401610815906126f8565b600a548210610a005760405160e560020a62461bcd0281526020600482015260006024820152604401610815565b600a8281548110610a1357610a1361272f565b600091825260209091200154600160a060020a031692915050565b600954600090600160a060020a03163314610a5e5760405160e560020a62461bcd028152600401610815906126f8565b50600a5490565b600954600160a060020a03163314610a925760405160e560020a62461bcd028152600401610815906126f8565b600d829055600c805460ff191682151590811790915560ff1615610b495733600160a060020a03167fb9c39a906441691d138569e18a2c9766e29c5def7618306a8f07d7dc1f34627b6040518060400160405280600e81526020017f52756c652035303520546f6b656e000000000000000000000000000000000000815250604051602001610b21919061286c565b60408051601f1981840301815290829052610b3d9186906128ad565b60405180910390a25050565b33600160a060020a03167fb9c39a906441691d138569e18a2c9766e29c5def7618306a8f07d7dc1f34627b6040518060400160405280600e81526020017f52756c652035303520546f6b656e000000000000000000000000000000000000815250604051602001610b2191906128cf565b5050565b6000601054600d54610bd09190612910565b600d5410610bf35760405160e560020a62461bcd02815260040161081590612928565b600c5460ff16610c185760405160e560020a62461bcd0281526004016108159061295f565b600160a060020a0383166000908152600160205260409020548390610c5c5760405160e560020a62461bcd0281526020600482015260006024820152604401610815565b610c6685846121ca565b6040805160608082018352600160a060020a038781168084526020808501898152428688019081526000938452600883528784208054600180820183559186529484902088516003909602018054600160a060020a0319169587169590951785559151918401919091555160029092019190915584519283019094528816815290918101610cf686600019612996565b815242602091820152600160a060020a0388811660009081526008835260408082208054600180820183559184529285902086516003909402018054600160a060020a031916939094169290921783559284015190820155908201516002909101559050610d658686866122fe565b9695505050505050565b600954606090600160a060020a03163314610d9f5760405160e560020a62461bcd028152600401610815906126f8565b600160a060020a0383166000908152600860205260409020805483908110610dc957610dc961272f565b60009182526020808320600390920290910154600160a060020a03868116845260089092526040909220805491909216919084908110610e0b57610e0b61272f565b9060005260206000209060030201600101546008600086600160a060020a0316600160a060020a031681526020019081526020016000208481548110610e5357610e5361272f565b906000526020600020906003020160020154604051602001610f1e939291907f5b000000000000000000000000000000000000000000000000000000000000008152600160a060020a03939093166c010000000000000000000000000260018401527f2c00000000000000000000000000000000000000000000000000000000000000601584018190526016840192909252603683019190915260378201527f5d00000000000000000000000000000000000000000000000000000000000000605782015260580190565b60405160208183030381529060405290505b92915050565b600954600090600160a060020a03163314610f665760405160e560020a62461bcd028152600401610815906126f8565b50600160a060020a0390811660009081526002602052604090205416151590565b600954600160a060020a03163314610fb45760405160e560020a62461bcd028152600401610815906126f8565b600160a060020a0382166000908152600160205260409020548290610ff85760405160e560020a62461bcd0281526020600482015260006024820152604401610815565b816110225760405160e560020a62461bcd0281526020600482015260006024820152604401610815565b600160a060020a0383166000908152600160205260409020548281146110a557600160a060020a0384166000818152600160209081526040918290208690558151928352820183905281018490523360608201527f63ec12603f028c6f74dc3c59a67d645d431250142b56676015d25475ee3fc3d3906080015b60405180910390a15b50505050565b6000601054600d546110bd9190612910565b600d54106110e05760405160e560020a62461bcd02815260040161081590612928565b600c5460ff166111055760405160e560020a62461bcd0281526004016108159061295f565b600954600160a060020a031633146111325760405160e560020a62461bcd028152600401610815906126f8565b336000908152600660205260409020546001146111945760405160e560020a62461bcd02815260206004820152600c60248201527f6e6f742061206d696e74657200000000000000000000000000000000000000006044820152606401610815565b600160a060020a03831660009081526001602052604090205483906111d85760405160e560020a62461bcd0281526020600482015260006024820152604401610815565b82600a811161122c5760405160e560020a62461bcd02815260206004820152601960248201527f616d6f756e742069732062656c6f77207061722076616c7565000000000000006044820152606401610815565b83624c4b4081600e5461123f9190612910565b1061125f5760405160e560020a62461bcd028152600401610815906129b5565b84600e60008282546112719190612910565b909155505060408051606081018252600160a060020a0388811680835260208084018a8152428587019081526000938452600883529583208054600180820183559185529290932085516003909302018054600160a060020a03191692909416919091178355519082015591516002909201919091556112f18787612417565b979650505050505050565b600954600160a060020a031633146113295760405160e560020a62461bcd028152600401610815906126f8565b600160a060020a03811631156113845760405160e560020a62461bcd02815260206004820152601b60248201527f6163636f756e742062616c616e6365206973206e6f74207a65726f00000000006044820152606401610815565b600160a060020a038116600090815260016020526040902054156113f857600160a060020a038116600081815260016020908152604080832092909255815192835233908301527f8071c01a493142de896a206c19ca180d32e91d6486fcf11ea299f569f5d922b591015b60405180910390a15b50565b600954600160a060020a031633146114285760405160e560020a62461bcd028152600401610815906126f8565b600160a060020a038083166000908152600260205260409020548391161561146f5760405160e560020a62461bcd0281526020600482015260006024820152604401610815565b600160a060020a0383166114a25760405160e560020a62461bcd0281526020600482015260006024820152604401610815565b816114cc5760405160e560020a62461bcd0281526020600482015260006024820152604401610815565b600160a060020a0383166000908152600160205260409020541561150f5760405160e560020a62461bcd0281526020600482015260006024820152604401610815565b600160a060020a038316600081815260016020908152604091829020859055815192835282018490523382820152517fb4f9d1d687d745820ae7c948518d6eef182cfbf5ef20b5b6a33769059592e7c89181900360600190a1505050565b600954600160a060020a0316331461159a5760405160e560020a62461bcd028152600401610815906126f8565b600160a060020a038116156115f45760405160e560020a62461bcd02815260206004820152601e60248201527f6d697373696e67207472616e73666572206167656e74206164647265737300006044820152606401610815565b600954600160a060020a03828116911614156116555760405160e560020a62461bcd02815260206004820152601760248201527f63616e6e6f742072656d6f766520746865206f776e65720000000000000000006044820152606401610815565b600160a060020a038116600081815260056020908152604091829020805460ff1916905590519182527f2a6c8fd6a904ef448050f3dd3c91d69c89f6029c4144371b887bc536b34f6caa91016113ef565b600c5460ff166116cb5760405160e560020a62461bcd0281526004016108159061295f565b600160a060020a038216600090815260016020526040902054829061170f5760405160e560020a62461bcd0281526020600482015260006024820152604401610815565b600082116117885760405160e560020a62461bcd02815260206004820152602560248201527f596f75206e65656420746f2073656c6c206174206c6561737420736f6d65207460448201527f6f6b656e730000000000000000000000000000000000000000000000000000006064820152608401610815565b600160a060020a0383166000908152600760209081526040808320308452909152902054828110156117ff5760405160e560020a62461bcd02815260206004820152601960248201527f436865636b2074686520746f6b656e20616c6c6f77616e6365000000000000006044820152606401610815565b61180a843085610bbe565b5060408051606081018252600160a060020a0386811680835260208084018881524285870190815260008481526008845287812080546001808201835591835294822088516003909602018054600160a060020a03191695909716949094178655915192850192909255905160029093019290925592519192916108fc87150291879190818181858888f193505050501580156118ab573d6000803e3d6000fd5b506040518481527f92f64ca637d023f354075a4be751b169c1a8a9ccb6d33cdd0cb35205439957279060200160405180910390a15050505050565b600954600160a060020a031633146119135760405160e560020a62461bcd028152600401610815906126f8565b600160a060020a038216600090815260036020526040902054610bba5780611939575050565b604080518082018252600160a060020a0380851680835260208084018681526000838152600b835286812080546001818101835591835284832097516002909102909701805497909616600160a060020a0319978816178655915194820194909455600a80548083019091557fc65a7bb8d6351c1cf70c95a316cc6a92839c986682d98bc35f958f4883f9d2a801805490951683179094559082526003905291909120555050565b600c5460ff16611a065760405160e560020a62461bcd0281526004016108159061295f565b600954600160a060020a03163314611a335760405160e560020a62461bcd028152600401610815906126f8565b600160a060020a0382166000908152600360205260409020548290611a775760405160e560020a62461bcd0281526020600482015260006024820152604401610815565b600160a060020a038216600090815260036020526040902054829015611abc5760405160e560020a62461bcd0281526020600482015260006024820152604401610815565b600160a060020a0383166000908152600160205260409020548390611b005760405160e560020a62461bcd0281526020600482015260006024820152604401610815565b600160a060020a038581166000908152600160208181526040808420849055600282528084208054600160a060020a031916958a169590951790945560039052918120549091611b4f91612a12565b905084600a8281548110611b6557611b6561272f565b60009182526020808320919091018054600160a060020a031916600160a060020a039485161790558883168083526003825260408084208054958b1680865282862096909655828552849055600483528084208054868652828620558285529390935582519081529081019290925233908201527fb64971100522354f3d25283cb14e2eefcb0dd26a757482ccfe42479d0a6868579060600160405180910390a1505050505050565b600954600160a060020a03163314611c3b5760405160e560020a62461bcd028152600401610815906126f8565b600160a060020a038116611c945760405160e560020a62461bcd02815260206004820152601660248201527f6d697373696e67206d696e7465722061646472657373000000000000000000006044820152606401610815565b600160a060020a0381166000818152600660209081526040918290206001905590519182527f6ae172837ea30b801fbfcdd4108aa1d5bf8ff775444fd70256b44e6bf3dfc3f691016113ef565b601054600d54611cf19190612910565b600d5410611d145760405160e560020a62461bcd02815260040161081590612928565b600c5460ff16611d395760405160e560020a62461bcd0281526004016108159061295f565b34624c4b4081600e54611d4c9190612910565b10611d6c5760405160e560020a62461bcd028152600401610815906129b5565b30600090815260046020526040902054349081611dce5760405160e560020a62461bcd02815260206004820152601b60248201527f596f75206e65656420746f2073656e6420736f6d6520657468657200000000006044820152606401610815565b80821115611e215760405160e560020a62461bcd02815260206004820181905260248201527f4e6f7420656e6f75676820746f6b656e7320696e2074686520726573657276656044820152606401610815565b60408051606081018252338082526020808301868152428486019081526000848152600884529586208054600180820183559188529390962085516003909402018054600160a060020a031916600160a060020a03909416939093178355905194820194909455925160029093019290925590611e9e9084611ecf565b506040518381527f4e08ba899977cf7d4c2964bce71c6b9a7ef76ee5166a4c1249a1e08016e33ef19060200161109c565b6000601054600d54611ee19190612910565b600d5410611f045760405160e560020a62461bcd02815260040161081590612928565b600c5460ff16611f295760405160e560020a62461bcd0281526004016108159061295f565b600160a060020a0383166000908152600160205260409020548390611f6d5760405160e560020a62461bcd0281526020600482015260006024820152604401610815565b611f7733846121ca565b6040805160608082018352600160a060020a038781168084526020808501898152428688019081526000938452600883528784208054600180820183559186529484902088516003909602018054600160a060020a03191695909616949094178555905192840192909255905160029092019190915583519182019093523381529091810161200886600019612996565b8152426020918201523360009081526008825260408082208054600180820183559184529284902085516003909402018054600160a060020a031916600160a060020a03909416939093178355928401519282019290925590820151600290910155905061207685856124e6565b95945050505050565b600954600160a060020a031633146120ac5760405160e560020a62461bcd028152600401610815906126f8565b600160a060020a0381166121055760405160e560020a62461bcd02815260206004820152601e60248201527f6d697373696e67207472616e73666572206167656e74206164647265737300006044820152606401610815565b600160a060020a038116600081815260056020908152604091829020805460ff1916600117905590519182527f1e9fcacb7052d8badc53a7061f6dc79beafe00b872cc7d0a57c541023eb9eabc91016113ef565b600954600090600160a060020a031633146121895760405160e560020a62461bcd028152600401610815906126f8565b610f3082612539565b6000600160a060020a0383166121aa57506000610f30565b50600160a060020a03919091166000908152600160205260409020541490565b60006121e082600160a060020a03851631612a12565b905080156121ed57505050565b600160a060020a03831660009081526003602052604081205461221290600190612a12565b600a5490915060009061222790600190612a12565b90506000600a828154811061223e5761223e61272f565b600091825260209091200154600a8054600160a060020a03909216925082918590811061226d5761226d61272f565b60009182526020808320919091018054600160a060020a031916600160a060020a03948516179055888316808352600382526040808420805495871685528185209590955590835292829055600b9052208054806122cd576122cd612a29565b6000828152602081206002600019909301928302018054600160a060020a0319168155600101559055505050505050565b600160a060020a03831660009081526004602052604081205482106123685760405160e560020a62461bcd02815260206004820152601460248201527f696e73756666696369656e742062616c616e63650000000000000000000000006044820152606401610815565b600160a060020a03831660009081526004602052604081208054849290612390908490612910565b9091555050600160a060020a038416600090815260046020526040812080548492906123bd908490612a12565b909155505060408051600160a060020a038087168252851660208201529081018390527fc0d84ce5c7ff9ca21adb0f8436ff3f4951b4bb78c4e2fae2b6837958b3946ffd9060600160405180910390a15060019392505050565b6000805482111561246d5760405160e560020a62461bcd02815260206004820152601460248201527f6578636565647320746f74616c20737570706c790000000000000000000000006044820152606401610815565b600160a060020a03831660009081526004602052604081208054849290612495908490612910565b909155505060408051600160a060020a0385168152602081018490527f30385c845b448a36257a6a1716e6ad2e1bc2cbe333cde1e69fe849ad6511adfe91015b60405180910390a150600192915050565b600160a060020a0382166000818152600460209081526040808320859055805193845290830184905290917f69ca02dd4edd7bf0a4abb9ed3b7af3f14778db5d61921c7dc7cd545266326de291016124d5565b600160a060020a0380821660009081526002602052604081205490911680612562575090919050565b61256b81612539565b9392505050565b60005b8381101561258d578181015183820152602001612575565b838111156110a55750506000910152565b600081518084526125b6816020860160208601612572565b601f01601f19169290920160200192915050565b60208152600061256b602083018461259e565b600160a060020a03811681146113f857600080fd5b60006020828403121561260457600080fd5b813561256b816125dd565b6000806040838503121561262257600080fd5b823561262d816125dd565b946020939093013593505050565b60006020828403121561264d57600080fd5b5035919050565b6000806040838503121561266757600080fd5b823591506020830135801515811461267e57600080fd5b809150509250929050565b60008060006060848603121561269e57600080fd5b83356126a9816125dd565b925060208401356126b9816125dd565b929592945050506040919091013590565b600080604083850312156126dd57600080fd5b82356126e8816125dd565b9150602083013561267e816125dd565b6020808252600d908201527f6163636573732064656e69656400000000000000000000000000000000000000604082015260600190565b7f4e487b7100000000000000000000000000000000000000000000000000000000600052603260045260246000fd5b60008551612770818460208a01612572565b7f5b00000000000000000000000000000000000000000000000000000000000000920191825250600160a060020a03939093166c010000000000000000000000000260018401527f2c00000000000000000000000000000000000000000000000000000000000000601584018190526016840192909252603683019190915260378201527f5d000000000000000000000000000000000000000000000000000000000000006057820152605801919050565b7f4e487b7100000000000000000000000000000000000000000000000000000000600052601160045260246000fd5b600060001982141561286557612865612822565b5060010190565b6000825161287e818460208701612572565b7f2068617320737461727465640000000000000000000000000000000000000000920191825250600c01919050565b6040815260006128c0604083018561259e565b90508260208301529392505050565b600082516128e1818460208701612572565b7f206861732073746f707065640000000000000000000000000000000000000000920191825250600c01919050565b6000821982111561292357612923612822565b500190565b60208082526014908201527f6f66666572696e67206861732065787069726564000000000000000000000000604082015260600190565b6020808252601d908201527f6578656d7074206f66666572696e67206973206e6f7420616374697665000000604082015260600190565b60008160001904831182151516156129b0576129b0612822565b500290565b60208082526021908201527f6d6178696d756d206f66666572696e6720686173206265656e2072656163686560408201527f6400000000000000000000000000000000000000000000000000000000000000606082015260800190565b600082821015612a2457612a24612822565b500390565b7f4e487b7100000000000000000000000000000000000000000000000000000000600052603160045260246000fdfea2646970667358221220da3c8caf25d0947ce6d6089ad6a08ef308d94266ca84dba84d60a27b5e31e29f64736f6c634300080a0033",
  "immutableReferences": {},
  "source": "// SPDX-License-Identifier: CC-BY-4.0\npragma solidity >=0.4.22 <0.9.0;\n\n/**\n * Under Rule 505, issuers may offer and sell up to $5 million of their securities\n * in any 12-month period.  There are limits on the types of investors who may purchase\n * the securities.  The issuer may sell to an unlimited number of accredited investors,\n * but to no more than 35 non-accredited investors.  If the issuer sells its securities to\n * non-accredited investors, the issuer must disclose certain information about itself,\n * including its financial statements.  If sales are made only to accredited investors,\n * the issuer has discretion as to what to disclose to investors.  Any information provided\n * to accredited investors must be provided to non-accredited investors.\n */\n\nimport \"../Version.sol\";\n\ncontract ExemptEquityOffering505 is Version {\n    string public constant name = \"Rule 505 Token\";\n    string public constant symbol = \"TOKEN.505\";\n    uint8 public constant decimals = 0;\n    uint256 public totalSupply = 0;\n\n    uint256 public constant negative = type(uint256).max;\n\n    uint public constant INITIAL_SUPPLY = 100000 * 1 ether;\n\n    bytes32 constant private ZERO_BYTES = bytes32(0);\n    address constant private ZERO_ADDRESS = address(0);\n\n\n    mapping(address => bytes32) private verified;\n    mapping(address => address) private cancellations;\n    mapping(address => uint256) private holderIndices;\n    mapping(address => uint256) public  balances;\n    mapping(address => bool) private transferagents;\n    mapping(address => uint256) private minters;\n    mapping(address => mapping(address => uint256)) private _allowances;\n\n    struct Transaction {\n        address addr;\n        uint256 amount;\n        uint256 time;\n    }\n\n    mapping(address => Transaction[]) public transactions;\n\n    address private owner;\n\n    address[] private shareholders;\n\n    struct Shareholder {\n        address addr;\n        uint level;\n    }\n    mapping(address => Shareholder[]) private shareholdersData;\n\n    bool internal active = false;\n    uint256 private start_timestamp;\n    event ExemptOffering(address indexed from,string status, uint256 value);\n    event Transfer(address addr, uint256 amount);\n    event TransferFrom(address from,address to,uint256 value);\n    event TransferAgentAdded(address addr);\n    event TransferAgentRemoved(address addr);\n    event MinterAdded(address addr);\n    event Minted(address addr, uint256 amount);\n    event VerifiedAddressSuperseded(address addr1,address addr2,address addr3);\n    event VerifiedAddressUpdated(address addr, bytes32 oldhash, bytes32 hash, address sender);\n    event VerifiedAddressRemoved(address addr, address sender);\n    event VerifiedAddressAdded(address addr, bytes32 hash, address sender);\n    event Bought(uint value);\n    event Sold(uint value);\n\n    uint constant public parValue = 10;\n    uint256 constant public totalValueMax = 5000000;\n    uint constant public maxNonaccredited = 35;\n    uint256 private totalValue = 0;\n\n    bool private restricted = true;\n\n     uint private year = 52 weeks;\n\n    constructor()\n    {\n        owner = msg.sender;\n        addMinter(owner);\n        _mint(owner, INITIAL_SUPPLY);\n    }\n\n    modifier onlyOwner() {\n        require(msg.sender == owner, \"access denied\");\n        _;\n    }\n\n    modifier isMinter() {\n      require(minters[msg.sender] == 1,\"not a minter\");\n      _;\n    }\n\n    modifier isActive() {\n        require(active, \"exempt offering is not active\");\n        _;\n    }\n\n    modifier isVerifiedAddress(address addr) {\n        require(verified[addr] != ZERO_BYTES, \"\");\n        _;\n    }\n\n    modifier isShareholder(address addr) {\n        require(holderIndices[addr] != 0, \"\");\n        _;\n    }\n\n    modifier isNotShareholder(address addr) {\n        require(holderIndices[addr] == 0, \"\");\n        _;\n    }\n\n    modifier isNotCancelled(address addr) {\n        require(cancellations[addr] == ZERO_ADDRESS, \"\");\n        _;\n    }\n\n    modifier isPriceBelowParValue(uint amount) {\n      require(amount > parValue, \"amount is below par value\");\n      _;\n    }\n\n    modifier isRestrictedSecurity() {\n      require(restricted != false, \"security is restricted\");\n      _;\n    }\n\n    modifier isMaximumOffering(uint256 amount) {\n        require(totalValue + amount < totalValueMax, \"maximum offering has been reached\");\n        _;\n    }\n\n    modifier isOfferingExpired() {\n        require(start_timestamp < (start_timestamp + year), \"offering has expired\");\n        _;\n    }\n    function balanceOf(address addr)\n      public\n      view\n      returns (uint256)\n    {\n      return balances[addr];\n    }\n\n    function allowance(address _owner, address spender)\n      public\n      view\n      returns (uint256)\n    {\n        return _allowances[_owner][spender];\n    }\n\n    function addMinter(address addr)\n      public\n      onlyOwner\n    {\n      require(addr != ZERO_ADDRESS, \"missing minter address\");\n      minters[addr] = 1;\n      emit MinterAdded(addr);\n    }\n\n    function addTransferAgent(address addr)\n        public\n        onlyOwner\n    {\n        require(addr != ZERO_ADDRESS, \"missing transfer agent address\");\n        transferagents[addr] = true;\n        emit TransferAgentAdded(addr);\n    }\n\n    function removeTransferAgent(address addr)\n        public\n        onlyOwner\n    {\n        require(addr == ZERO_ADDRESS,\"missing transfer agent address\");\n        require(addr != owner,\"cannot remove the owner\");\n        transferagents[addr] = false;\n        emit TransferAgentRemoved(addr);\n    }\n\n    /**\n     * As each token is minted it is added to the shareholders array.\n     * @param _to The address that will receive the minted tokens.\n     * @param _amount The amount of tokens to mint.\n     * @return A boolean that indicates if the operation was successful.\n     */\n    function mint(address _to, uint256 _amount)\n        public\n        isOfferingExpired\n        isActive\n        onlyOwner\n        isMinter\n        isVerifiedAddress(_to)\n        isPriceBelowParValue(_amount)\n        isMaximumOffering(_amount)\n        returns (bool)\n    {\n        totalValue += _amount;\n        Transaction memory trans = Transaction(_to, _amount, block.timestamp);\n        transactions[_to].push(trans);\n        return _mint(_to, _amount);\n    }\n\n    function toggleExemptOffering(uint256 timestamp, bool _active)\n        public\n        onlyOwner\n    {\n        start_timestamp = timestamp;\n        active = _active;\n\n        if (active) {\n            emit ExemptOffering(msg.sender, string(abi.encodePacked(name, \" has started\")), timestamp);\n        } else {\n            emit ExemptOffering(msg.sender, string(abi.encodePacked(name, \" has stopped\")), timestamp);\n        }\n    }\n\n    function getTransactions(address addr) public view onlyOwner returns (string memory) {\n        string memory output = \"\";\n        for (uint i = 0; i < transactions[addr].length; i++) {\n            output = string(\n                abi.encodePacked(output, \"[\", transactions[addr][i].addr, \",\", transactions[addr][i].amount, \",\",  transactions[addr][i].time, \"]\")\n            );\n        }\n        return output;\n    }\n\n    function getTransactionByIndex(address addr, uint index) public view onlyOwner returns (string memory) {\n        return string(abi.encodePacked(\n            \"[\", transactions[addr][index].addr, \",\", transactions[addr][index].amount, \",\", transactions[addr][index].time, \"]\"\n        ));\n    }\n\n    /**\n     *  The number of addresses that own tokens.\n     *  @return the number of unique addresses that own tokens.\n     */\n    function holderCount()\n        public\n        onlyOwner\n        view\n        returns (uint)\n    {\n        return shareholders.length;\n    }\n\n    /**\n     *  By counting the number of token holders using `holderCount`\n     *  you can retrieve the complete list of token holders, one at a time.\n     *  It MUST throw if `index >= holderCount()`.\n     *  @param index The zero-based index of the holder.\n     *  @return the address of the token holder with the given index.\n     */\n    function holderAt(uint256 index)\n        public\n        onlyOwner\n        view\n        returns (address)\n    {\n        require(index < shareholders.length, \"\");\n        return shareholders[index];\n    }\n\n    /**\n     *  Add a verified address, along with an associated verification hash to the contract.\n     *  Upon successful addition of a verified address, the contract must emit\n     *  `VerifiedAddressAdded(addr, hash, msg.sender)`.\n     *  It MUST throw if the supplied address or hash are zero, or if the address has already been supplied.\n     *  @param addr The address of the person represented by the supplied hash.\n     *  @param hash A cryptographic hash of the address holder's verified information.\n     */\n    function addVerified(address addr, bytes32 hash)\n        public\n        onlyOwner\n        isNotCancelled(addr)\n    {\n        require(addr != ZERO_ADDRESS, \"\");\n        require(hash != ZERO_BYTES, \"\");\n        require(verified[addr] == ZERO_BYTES, \"\");\n        verified[addr] = hash;\n        emit VerifiedAddressAdded(addr, hash, msg.sender);\n    }\n\n    /**\n     *  Remove a verified address, and the associated verification hash. If the address is\n     *  unknown to the contract then this does nothing. If the address is successfully removed, this\n     *  function must emit `VerifiedAddressRemoved(addr, msg.sender)`.\n     *  It MUST throw if an attempt is made to remove a verifiedAddress that owns Tokens.\n     *  @param addr The verified address to be removed.\n     */\n    function removeVerified(address addr)\n        public\n        onlyOwner\n    {\n        require(addr.balance == 0, \"account balance is not zero\");\n        if (verified[addr] != ZERO_BYTES) {\n            verified[addr] = ZERO_BYTES;\n            emit VerifiedAddressRemoved(addr, msg.sender);\n        }\n    }\n\n    /**\n     *  Update the hash for a verified address known to the contract.\n     *  Upon successful update of a verified address the contract must emit\n     *  `VerifiedAddressUpdated(addr, oldHash, hash, msg.sender)`.\n     *  If the hash is the same as the value already stored then\n     *  no `VerifiedAddressUpdated` event is to be emitted.\n     *  It MUST throw if the hash is zero, or if the address is unverified.\n     *  @param addr The verified address of the person represented by the supplied hash.\n     *  @param hash A new cryptographic hash of the address holder's updated verified information.\n     */\n    function updateVerified(address addr, bytes32 hash)\n        public\n        onlyOwner\n        isVerifiedAddress(addr)\n    {\n        require(hash != ZERO_BYTES, \"\");\n        bytes32 oldHash = verified[addr];\n        if (oldHash != hash) {\n            verified[addr] = hash;\n            emit VerifiedAddressUpdated(addr, oldHash, hash, msg.sender);\n        }\n    }\n\n    /**\n     *  Cancel the original address and reissue the Tokens to the replacement address.\n     *  Access to this function MUST be strictly controlled.\n     *  The `original` address MUST be removed from the set of verified addresses.\n     *  Throw if the `original` address supplied is not a shareholder.\n     *  Throw if the replacement address is not a verified address.\n     *  This function MUST emit the `VerifiedAddressSuperseded` event.\n     *  @param original The address to be superseded. This address MUST NOT be reused.\n     *  @param replacement The address  that supersedes the original. This address MUST be verified.\n     */\n    function cancelAndReissue(address original, address replacement)\n        public\n        isActive\n        onlyOwner\n        isShareholder(original)\n        isNotShareholder(replacement)\n        isVerifiedAddress(replacement)\n    {\n        // replace the original address in the shareholders array\n        // and update all the associated mappings\n        verified[original] = ZERO_BYTES;\n        cancellations[original] = replacement;\n        uint256 holderIndex = holderIndices[original] - 1;\n        shareholders[holderIndex] = replacement;\n        holderIndices[replacement] = holderIndices[original];\n        holderIndices[original] = 0;\n        balances[replacement] = balances[original];\n        balances[original] = 0;\n        emit VerifiedAddressSuperseded(original, replacement, msg.sender);\n    }\n\n    /**\n     *  The `transfer` function MUST NOT allow transfers to addresses that\n     *  have not been verified and added to the contract.\n     *  If the `to` address is not currently a shareholder then it MUST become one.\n     *  If the transfer will reduce `msg.sender`'s balance to 0 then that address\n     *  MUST be removed from the list of shareholders.\n     */\n    function transfer(address to, uint256 value)\n        public\n        isOfferingExpired\n        isActive\n        isVerifiedAddress(to)\n        returns (bool)\n    {\n        pruneShareholders(msg.sender, value);\n        Transaction memory trans = Transaction(to, value, block.timestamp);\n        transactions[to].push(trans);\n        trans = Transaction(msg.sender, negative * value, block.timestamp);\n        transactions[msg.sender].push(trans);\n\n        return _transfer(to, value);\n    }\n\n    /**\n     *  The `transferFrom` function MUST NOT allow transfers to addresses that\n     *  have not been verified and added to the contract.\n     *  If the `to` address is not currently a shareholder then it MUST become one.\n     *  If the transfer will reduce `from`'s balance to 0 then that address\n     *  MUST be removed from the list of shareholders.\n     */\n    function transferFrom(address from, address to, uint256 value)\n        public\n        isOfferingExpired\n        isActive\n        isVerifiedAddress(to)\n        returns (bool)\n    {\n        pruneShareholders(from, value);\n        Transaction memory trans = Transaction(to, value, block.timestamp);\n        transactions[to].push(trans);\n        trans = Transaction(from, negative * value, block.timestamp);\n        transactions[from].push(trans);\n\n        return _transferFrom(from, to, value);\n    }\n\n    /**\n     *  Tests that the supplied address is known to the contract.\n     *  @param addr The address to test.\n     *  @return true if the address is known to the contract.\n     */\n    function isVerified(address addr)\n        public\n        view\n        returns (bool)\n    {\n        return verified[addr] != ZERO_BYTES;\n    }\n\n    /**\n     *  Checks to see if the supplied address is a share holder.\n     *  @param addr The address to check.\n     *  @return true if the supplied address owns a token.\n     */\n    function isHolder(address addr)\n        public\n        view\n        returns (bool)\n    {\n        return holderIndices[addr] != 0;\n    }\n\n    /**\n     *  Checks that the supplied hash is associated with the given address.\n     *  @param addr The address to test.\n     *  @param hash The hash to test.\n     *  @return true if the hash matches the one supplied with the address in `addVerified`, or `updateVerified`.\n     */\n    function hasHash(address addr, bytes32 hash)\n        public\n        view\n        returns (bool)\n    {\n        if (addr == ZERO_ADDRESS) {\n            return false;\n        }\n        return verified[addr] == hash;\n    }\n\n    /**\n     *  Checks to see if the supplied address was superseded.\n     *  @param addr The address to check.\n     *  @return true if the supplied address was superseded by another address.\n     */\n    function isSuperseded(address addr)\n        public\n        view\n        onlyOwner\n        returns (bool)\n    {\n        return cancellations[addr] != ZERO_ADDRESS;\n    }\n\n    /**\n     *  Gets the most recent address, given a superseded one.\n     *  Addresses may be superseded multiple times, so this function needs to\n     *  follow the chain of addresses until it reaches the final, verified address.\n     *  @param addr The superseded address.\n     *  @return the verified address that ultimately holds the share.\n     */\n    function getCurrentFor(address addr)\n        public\n        view\n        onlyOwner\n        returns (address)\n    {\n        return findCurrentFor(addr);\n    }\n\n    /**\n     *  Recursively find the most recent address given a superseded one.\n     *  @param addr The superseded address.\n     *  @return the verified address that ultimately holds the share.\n     */\n    function findCurrentFor(address addr)\n        internal\n        view\n        returns (address)\n    {\n        address candidate = cancellations[addr];\n        if (candidate == ZERO_ADDRESS) {\n            return addr;\n        }\n        return findCurrentFor(candidate);\n    }\n\n    /**\n     *  If the address is not in the `shareholders` array then push it\n     *  and update the `holderIndices` mapping.\n     *  @param addr The address to add as a shareholder if it's not already.\n     */\n    function updateShareholders(address addr)\n        internal\n    {\n        if (holderIndices[addr] == 0) {\n          shareholders.push(addr);\n          holderIndices[addr] = 1;\n        }\n    }\n\n    function addShareholder(address addr, uint level)\n        public\n        onlyOwner\n    {\n        if (holderIndices[addr] == 0) {\n            if (level == 0) {\n                //uint nonaccredited = 0;\n                //for(uint i = 0; i < shareholders.length; i++) {\n                //    address _addr = shareholders[i];\n                //    Shareholder memory shareholder = shareholdersData[_addr];\n                //    if (shareholder.level == 0) {\n                //        nonaccredited++;\n                //    }\n                //}\n                //if (nonaccredited < maxNonaccredited) {\n                //    Shareholder memory shareholder = Shareholder(addr, level);\n                //    shareholdersData[addr].push(shareholder);\n                //    holderIndices[addr] = shareholders.push(addr);\n                //}\n            } else {\n                Shareholder memory shareholder = Shareholder(addr, level);\n                shareholdersData[addr].push(shareholder);\n                shareholders.push(addr);\n                holderIndices[addr] = 1;\n            }\n        }\n    }\n\n    /**\n     *  If the address is in the `shareholders` array and the forthcoming\n     *  transfer or transferFrom will reduce their balance to 0, then\n     *  we need to remove them from the shareholders array.\n     *  @param addr The address to prune if their balance will be reduced to 0.\n     @  @dev see https://ethereum.stackexchange.com/a/39311\n     */\n    function pruneShareholders(address addr, uint256 value)\n        internal\n    {\n        uint256 balance = addr.balance - value;\n        if (balance > 0) {\n            return;\n        }\n        uint256 holderIndex = holderIndices[addr] - 1;\n        uint256 lastIndex = shareholders.length - 1;\n        address lastHolder = shareholders[lastIndex];\n        // overwrite the addr's slot with the last shareholder\n        shareholders[holderIndex] = lastHolder;\n        // also copy over the index (thanks @mohoff for spotting this)\n        // ref https://github.com/davesag/ERC884-reference-implementation/issues/20\n        holderIndices[lastHolder] = holderIndices[addr];\n        // trim the shareholders array (which drops the last entry)\n        //delete shareholders[shareholders.length - 1];\n        // and zero out the index for addr\n        holderIndices[addr] = 0;\n        shareholdersData[addr].pop();\n    }\n\n    function buy()\n        public\n        payable\n        isOfferingExpired\n        isActive\n        isMaximumOffering(msg.value)\n    {\n        uint256 amountTobuy = msg.value;\n        uint256 dexBalance = balanceOf(address(this));\n        require(amountTobuy > 0, \"You need to send some ether\");\n        require(amountTobuy <= dexBalance, \"Not enough tokens in the reserve\");\n        Transaction memory trans = Transaction(msg.sender, amountTobuy, block.timestamp);\n        transactions[msg.sender].push(trans);\n        transfer(msg.sender, amountTobuy);\n        emit Bought(amountTobuy);\n    }\n\n    function sell(address payable sender,uint256 amount)\n        public\n        payable\n        isActive\n        isVerifiedAddress(sender)\n    {\n        require(amount > 0, \"You need to sell at least some tokens\");\n        uint256 _allowance = allowance(sender, address(this));\n        require(_allowance >= amount, \"Check the token allowance\");\n        transferFrom(sender, address(this), amount);\n        Transaction memory trans = Transaction(sender, amount, block.timestamp);\n        transactions[sender].push(trans);\n        sender.transfer(amount);\n        emit Sold(amount);\n    }\n\n    // Internal\n    function _mint(address addr, uint256 amount)\n      internal\n      returns (bool)\n    {\n      require(amount <= totalSupply, \"exceeds total supply\");\n      balances[addr] += amount;\n      emit Minted(addr, amount);\n      return true;\n    }\n\n    function _transfer(address addr, uint256 amount)\n      internal\n      returns (bool)\n    {\n      balances[addr] = amount;\n      emit Transfer(addr, amount);\n      return true;\n    }\n\n    function _transferFrom(address from,address to,uint256 value)\n      internal\n      returns (bool)\n    {\n      require(balances[from] > value, \"insufficient balance\");\n      balances[to] += value;\n      balances[from] -= value;\n      emit TransferFrom(from, to, value);\n      return true;\n    }\n}\n",
  "sourcePath": "G:\\projects\\pingleware-contracts\\contracts\\equity\\ExemptEquityOffering505.sol",
  "compiler": {
    "name": "solc",
    "version": "0.8.10+commit.fc410830.Emscripten.clang"
  },
  "schemaVersion": "3.4.3",
  "updatedAt": "2021-12-25T15:51:03.965Z",
  "devdoc": {
    "kind": "dev",
    "methods": {
      "addVerified(address,bytes32)": {
        "params": {
          "addr": "The address of the person represented by the supplied hash.",
          "hash": "A cryptographic hash of the address holder's verified information."
        }
      },
      "cancelAndReissue(address,address)": {
        "params": {
          "original": "The address to be superseded. This address MUST NOT be reused.",
          "replacement": "The address  that supersedes the original. This address MUST be verified."
        }
      },
      "getCurrentFor(address)": {
        "params": {
          "addr": "The superseded address."
        },
        "returns": {
          "_0": "the verified address that ultimately holds the share."
        }
      },
      "hasHash(address,bytes32)": {
        "params": {
          "addr": "The address to test.",
          "hash": "The hash to test."
        },
        "returns": {
          "_0": "true if the hash matches the one supplied with the address in `addVerified`, or `updateVerified`."
        }
      },
      "holderAt(uint256)": {
        "params": {
          "index": "The zero-based index of the holder."
        },
        "returns": {
          "_0": "the address of the token holder with the given index."
        }
      },
      "holderCount()": {
        "returns": {
          "_0": "the number of unique addresses that own tokens."
        }
      },
      "isHolder(address)": {
        "params": {
          "addr": "The address to check."
        },
        "returns": {
          "_0": "true if the supplied address owns a token."
        }
      },
      "isSuperseded(address)": {
        "params": {
          "addr": "The address to check."
        },
        "returns": {
          "_0": "true if the supplied address was superseded by another address."
        }
      },
      "isVerified(address)": {
        "params": {
          "addr": "The address to test."
        },
        "returns": {
          "_0": "true if the address is known to the contract."
        }
      },
      "mint(address,uint256)": {
        "params": {
          "_amount": "The amount of tokens to mint.",
          "_to": "The address that will receive the minted tokens."
        },
        "returns": {
          "_0": "A boolean that indicates if the operation was successful."
        }
      },
      "removeVerified(address)": {
        "params": {
          "addr": "The verified address to be removed."
        }
      },
      "updateVerified(address,bytes32)": {
        "params": {
          "addr": "The verified address of the person represented by the supplied hash.",
          "hash": "A new cryptographic hash of the address holder's updated verified information."
        }
      }
    },
    "version": 1
  },
  "userdoc": {
    "kind": "user",
    "methods": {
      "addVerified(address,bytes32)": {
        "notice": "Add a verified address, along with an associated verification hash to the contract.  Upon successful addition of a verified address, the contract must emit  `VerifiedAddressAdded(addr, hash, msg.sender)`.  It MUST throw if the supplied address or hash are zero, or if the address has already been supplied."
      },
      "cancelAndReissue(address,address)": {
        "notice": "Cancel the original address and reissue the Tokens to the replacement address.  Access to this function MUST be strictly controlled.  The `original` address MUST be removed from the set of verified addresses.  Throw if the `original` address supplied is not a shareholder.  Throw if the replacement address is not a verified address.  This function MUST emit the `VerifiedAddressSuperseded` event."
      },
      "getCurrentFor(address)": {
        "notice": "Gets the most recent address, given a superseded one.  Addresses may be superseded multiple times, so this function needs to  follow the chain of addresses until it reaches the final, verified address."
      },
      "hasHash(address,bytes32)": {
        "notice": "Checks that the supplied hash is associated with the given address."
      },
      "holderAt(uint256)": {
        "notice": "By counting the number of token holders using `holderCount`  you can retrieve the complete list of token holders, one at a time.  It MUST throw if `index >= holderCount()`."
      },
      "holderCount()": {
        "notice": "The number of addresses that own tokens."
      },
      "isHolder(address)": {
        "notice": "Checks to see if the supplied address is a share holder."
      },
      "isSuperseded(address)": {
        "notice": "Checks to see if the supplied address was superseded."
      },
      "isVerified(address)": {
        "notice": "Tests that the supplied address is known to the contract."
      },
      "mint(address,uint256)": {
        "notice": "As each token is minted it is added to the shareholders array."
      },
      "removeVerified(address)": {
        "notice": "Remove a verified address, and the associated verification hash. If the address is  unknown to the contract then this does nothing. If the address is successfully removed, this  function must emit `VerifiedAddressRemoved(addr, msg.sender)`.  It MUST throw if an attempt is made to remove a verifiedAddress that owns Tokens."
      },
      "transfer(address,uint256)": {
        "notice": "The `transfer` function MUST NOT allow transfers to addresses that  have not been verified and added to the contract.  If the `to` address is not currently a shareholder then it MUST become one.  If the transfer will reduce `msg.sender`'s balance to 0 then that address  MUST be removed from the list of shareholders."
      },
      "transferFrom(address,address,uint256)": {
        "notice": "The `transferFrom` function MUST NOT allow transfers to addresses that  have not been verified and added to the contract.  If the `to` address is not currently a shareholder then it MUST become one.  If the transfer will reduce `from`'s balance to 0 then that address  MUST be removed from the list of shareholders."
      },
      "updateVerified(address,bytes32)": {
        "notice": "Update the hash for a verified address known to the contract.  Upon successful update of a verified address the contract must emit  `VerifiedAddressUpdated(addr, oldHash, hash, msg.sender)`.  If the hash is the same as the value already stored then  no `VerifiedAddressUpdated` event is to be emitted.  It MUST throw if the hash is zero, or if the address is unverified."
      }
    },
    "version": 1
  }
}