{
  "contractName": "ExemptEquityOffering4A2",
  "abi": [
    {
      "inputs": [],
      "stateMutability": "nonpayable",
      "type": "constructor"
    },
    {
      "anonymous": false,
      "inputs": [
        {
          "indexed": false,
          "internalType": "uint256",
          "name": "value",
          "type": "uint256"
        }
      ],
      "name": "Bought",
      "type": "event"
    },
    {
      "anonymous": false,
      "inputs": [
        {
          "indexed": true,
          "internalType": "address",
          "name": "from",
          "type": "address"
        },
        {
          "indexed": false,
          "internalType": "string",
          "name": "status",
          "type": "string"
        },
        {
          "indexed": false,
          "internalType": "uint256",
          "name": "value",
          "type": "uint256"
        }
      ],
      "name": "ExemptOffering",
      "type": "event"
    },
    {
      "anonymous": false,
      "inputs": [
        {
          "indexed": false,
          "internalType": "address",
          "name": "addr",
          "type": "address"
        },
        {
          "indexed": false,
          "internalType": "uint256",
          "name": "amount",
          "type": "uint256"
        }
      ],
      "name": "Minted",
      "type": "event"
    },
    {
      "anonymous": false,
      "inputs": [
        {
          "indexed": false,
          "internalType": "address",
          "name": "addr",
          "type": "address"
        }
      ],
      "name": "MinterAdded",
      "type": "event"
    },
    {
      "anonymous": false,
      "inputs": [
        {
          "indexed": false,
          "internalType": "uint256",
          "name": "value",
          "type": "uint256"
        }
      ],
      "name": "Sold",
      "type": "event"
    },
    {
      "anonymous": false,
      "inputs": [
        {
          "indexed": false,
          "internalType": "address",
          "name": "addr",
          "type": "address"
        },
        {
          "indexed": false,
          "internalType": "uint256",
          "name": "amount",
          "type": "uint256"
        }
      ],
      "name": "Transfer",
      "type": "event"
    },
    {
      "anonymous": false,
      "inputs": [
        {
          "indexed": false,
          "internalType": "address",
          "name": "addr",
          "type": "address"
        }
      ],
      "name": "TransferAgentAdded",
      "type": "event"
    },
    {
      "anonymous": false,
      "inputs": [
        {
          "indexed": false,
          "internalType": "address",
          "name": "addr",
          "type": "address"
        }
      ],
      "name": "TransferAgentRemoved",
      "type": "event"
    },
    {
      "anonymous": false,
      "inputs": [
        {
          "indexed": false,
          "internalType": "address",
          "name": "from",
          "type": "address"
        },
        {
          "indexed": false,
          "internalType": "address",
          "name": "to",
          "type": "address"
        },
        {
          "indexed": false,
          "internalType": "uint256",
          "name": "value",
          "type": "uint256"
        }
      ],
      "name": "TransferFrom",
      "type": "event"
    },
    {
      "anonymous": false,
      "inputs": [
        {
          "indexed": false,
          "internalType": "address",
          "name": "addr",
          "type": "address"
        },
        {
          "indexed": false,
          "internalType": "bytes32",
          "name": "hash",
          "type": "bytes32"
        },
        {
          "indexed": false,
          "internalType": "address",
          "name": "sender",
          "type": "address"
        }
      ],
      "name": "VerifiedAddressAdded",
      "type": "event"
    },
    {
      "anonymous": false,
      "inputs": [
        {
          "indexed": false,
          "internalType": "address",
          "name": "addr",
          "type": "address"
        },
        {
          "indexed": false,
          "internalType": "address",
          "name": "sender",
          "type": "address"
        }
      ],
      "name": "VerifiedAddressRemoved",
      "type": "event"
    },
    {
      "anonymous": false,
      "inputs": [
        {
          "indexed": false,
          "internalType": "address",
          "name": "addr1",
          "type": "address"
        },
        {
          "indexed": false,
          "internalType": "address",
          "name": "addr2",
          "type": "address"
        },
        {
          "indexed": false,
          "internalType": "address",
          "name": "addr3",
          "type": "address"
        }
      ],
      "name": "VerifiedAddressSuperseded",
      "type": "event"
    },
    {
      "anonymous": false,
      "inputs": [
        {
          "indexed": false,
          "internalType": "address",
          "name": "addr",
          "type": "address"
        },
        {
          "indexed": false,
          "internalType": "bytes32",
          "name": "oldhash",
          "type": "bytes32"
        },
        {
          "indexed": false,
          "internalType": "bytes32",
          "name": "hash",
          "type": "bytes32"
        },
        {
          "indexed": false,
          "internalType": "address",
          "name": "sender",
          "type": "address"
        }
      ],
      "name": "VerifiedAddressUpdated",
      "type": "event"
    },
    {
      "inputs": [],
      "name": "INITIAL_SUPPLY",
      "outputs": [
        {
          "internalType": "uint256",
          "name": "",
          "type": "uint256"
        }
      ],
      "stateMutability": "view",
      "type": "function"
    },
    {
      "inputs": [
        {
          "internalType": "address",
          "name": "",
          "type": "address"
        }
      ],
      "name": "balances",
      "outputs": [
        {
          "internalType": "uint256",
          "name": "",
          "type": "uint256"
        }
      ],
      "stateMutability": "view",
      "type": "function"
    },
    {
      "inputs": [],
      "name": "decimals",
      "outputs": [
        {
          "internalType": "uint8",
          "name": "",
          "type": "uint8"
        }
      ],
      "stateMutability": "view",
      "type": "function"
    },
    {
      "inputs": [],
      "name": "name",
      "outputs": [
        {
          "internalType": "string",
          "name": "",
          "type": "string"
        }
      ],
      "stateMutability": "view",
      "type": "function"
    },
    {
      "inputs": [],
      "name": "negative",
      "outputs": [
        {
          "internalType": "uint256",
          "name": "",
          "type": "uint256"
        }
      ],
      "stateMutability": "view",
      "type": "function"
    },
    {
      "inputs": [],
      "name": "parValue",
      "outputs": [
        {
          "internalType": "uint256",
          "name": "",
          "type": "uint256"
        }
      ],
      "stateMutability": "view",
      "type": "function"
    },
    {
      "inputs": [],
      "name": "symbol",
      "outputs": [
        {
          "internalType": "string",
          "name": "",
          "type": "string"
        }
      ],
      "stateMutability": "view",
      "type": "function"
    },
    {
      "inputs": [],
      "name": "totalSupply",
      "outputs": [
        {
          "internalType": "uint256",
          "name": "",
          "type": "uint256"
        }
      ],
      "stateMutability": "view",
      "type": "function"
    },
    {
      "inputs": [],
      "name": "totalValueMax",
      "outputs": [
        {
          "internalType": "uint256",
          "name": "",
          "type": "uint256"
        }
      ],
      "stateMutability": "view",
      "type": "function"
    },
    {
      "inputs": [
        {
          "internalType": "address",
          "name": "",
          "type": "address"
        },
        {
          "internalType": "uint256",
          "name": "",
          "type": "uint256"
        }
      ],
      "name": "transactions",
      "outputs": [
        {
          "internalType": "address",
          "name": "addr",
          "type": "address"
        },
        {
          "internalType": "uint256",
          "name": "amount",
          "type": "uint256"
        },
        {
          "internalType": "uint256",
          "name": "time",
          "type": "uint256"
        }
      ],
      "stateMutability": "view",
      "type": "function"
    },
    {
      "inputs": [
        {
          "internalType": "address",
          "name": "addr",
          "type": "address"
        }
      ],
      "name": "balanceOf",
      "outputs": [
        {
          "internalType": "uint256",
          "name": "",
          "type": "uint256"
        }
      ],
      "stateMutability": "view",
      "type": "function"
    },
    {
      "inputs": [
        {
          "internalType": "address",
          "name": "_owner",
          "type": "address"
        },
        {
          "internalType": "address",
          "name": "spender",
          "type": "address"
        }
      ],
      "name": "allowance",
      "outputs": [
        {
          "internalType": "uint256",
          "name": "",
          "type": "uint256"
        }
      ],
      "stateMutability": "view",
      "type": "function"
    },
    {
      "inputs": [
        {
          "internalType": "address",
          "name": "addr",
          "type": "address"
        }
      ],
      "name": "addMinter",
      "outputs": [],
      "stateMutability": "nonpayable",
      "type": "function"
    },
    {
      "inputs": [
        {
          "internalType": "address",
          "name": "addr",
          "type": "address"
        }
      ],
      "name": "addTransferAgent",
      "outputs": [],
      "stateMutability": "nonpayable",
      "type": "function"
    },
    {
      "inputs": [
        {
          "internalType": "address",
          "name": "addr",
          "type": "address"
        }
      ],
      "name": "removeTransferAgent",
      "outputs": [],
      "stateMutability": "nonpayable",
      "type": "function"
    },
    {
      "inputs": [
        {
          "internalType": "address",
          "name": "_to",
          "type": "address"
        },
        {
          "internalType": "uint256",
          "name": "_amount",
          "type": "uint256"
        }
      ],
      "name": "mint",
      "outputs": [
        {
          "internalType": "bool",
          "name": "",
          "type": "bool"
        }
      ],
      "stateMutability": "nonpayable",
      "type": "function"
    },
    {
      "inputs": [
        {
          "internalType": "uint256",
          "name": "timestamp",
          "type": "uint256"
        },
        {
          "internalType": "bool",
          "name": "_active",
          "type": "bool"
        }
      ],
      "name": "toggleExemptOffering",
      "outputs": [],
      "stateMutability": "nonpayable",
      "type": "function"
    },
    {
      "inputs": [
        {
          "internalType": "address",
          "name": "addr",
          "type": "address"
        }
      ],
      "name": "getTransactions",
      "outputs": [
        {
          "internalType": "string",
          "name": "",
          "type": "string"
        }
      ],
      "stateMutability": "view",
      "type": "function"
    },
    {
      "inputs": [
        {
          "internalType": "address",
          "name": "addr",
          "type": "address"
        },
        {
          "internalType": "uint256",
          "name": "index",
          "type": "uint256"
        }
      ],
      "name": "getTransactionByIndex",
      "outputs": [
        {
          "internalType": "string",
          "name": "",
          "type": "string"
        }
      ],
      "stateMutability": "view",
      "type": "function"
    },
    {
      "inputs": [],
      "name": "holderCount",
      "outputs": [
        {
          "internalType": "uint256",
          "name": "",
          "type": "uint256"
        }
      ],
      "stateMutability": "view",
      "type": "function"
    },
    {
      "inputs": [
        {
          "internalType": "uint256",
          "name": "index",
          "type": "uint256"
        }
      ],
      "name": "holderAt",
      "outputs": [
        {
          "internalType": "address",
          "name": "",
          "type": "address"
        }
      ],
      "stateMutability": "view",
      "type": "function"
    },
    {
      "inputs": [
        {
          "internalType": "address",
          "name": "addr",
          "type": "address"
        },
        {
          "internalType": "bytes32",
          "name": "hash",
          "type": "bytes32"
        }
      ],
      "name": "addVerified",
      "outputs": [],
      "stateMutability": "nonpayable",
      "type": "function"
    },
    {
      "inputs": [
        {
          "internalType": "address",
          "name": "addr",
          "type": "address"
        }
      ],
      "name": "removeVerified",
      "outputs": [],
      "stateMutability": "nonpayable",
      "type": "function"
    },
    {
      "inputs": [
        {
          "internalType": "address",
          "name": "addr",
          "type": "address"
        },
        {
          "internalType": "bytes32",
          "name": "hash",
          "type": "bytes32"
        }
      ],
      "name": "updateVerified",
      "outputs": [],
      "stateMutability": "nonpayable",
      "type": "function"
    },
    {
      "inputs": [
        {
          "internalType": "address",
          "name": "original",
          "type": "address"
        },
        {
          "internalType": "address",
          "name": "replacement",
          "type": "address"
        }
      ],
      "name": "cancelAndReissue",
      "outputs": [],
      "stateMutability": "nonpayable",
      "type": "function"
    },
    {
      "inputs": [
        {
          "internalType": "address",
          "name": "to",
          "type": "address"
        },
        {
          "internalType": "uint256",
          "name": "value",
          "type": "uint256"
        }
      ],
      "name": "transfer",
      "outputs": [
        {
          "internalType": "bool",
          "name": "",
          "type": "bool"
        }
      ],
      "stateMutability": "nonpayable",
      "type": "function"
    },
    {
      "inputs": [
        {
          "internalType": "address",
          "name": "from",
          "type": "address"
        },
        {
          "internalType": "address",
          "name": "to",
          "type": "address"
        },
        {
          "internalType": "uint256",
          "name": "value",
          "type": "uint256"
        }
      ],
      "name": "transferFrom",
      "outputs": [
        {
          "internalType": "bool",
          "name": "",
          "type": "bool"
        }
      ],
      "stateMutability": "nonpayable",
      "type": "function"
    },
    {
      "inputs": [
        {
          "internalType": "address",
          "name": "addr",
          "type": "address"
        }
      ],
      "name": "isVerified",
      "outputs": [
        {
          "internalType": "bool",
          "name": "",
          "type": "bool"
        }
      ],
      "stateMutability": "view",
      "type": "function"
    },
    {
      "inputs": [
        {
          "internalType": "address",
          "name": "addr",
          "type": "address"
        }
      ],
      "name": "isHolder",
      "outputs": [
        {
          "internalType": "bool",
          "name": "",
          "type": "bool"
        }
      ],
      "stateMutability": "view",
      "type": "function"
    },
    {
      "inputs": [
        {
          "internalType": "address",
          "name": "addr",
          "type": "address"
        },
        {
          "internalType": "bytes32",
          "name": "hash",
          "type": "bytes32"
        }
      ],
      "name": "hasHash",
      "outputs": [
        {
          "internalType": "bool",
          "name": "",
          "type": "bool"
        }
      ],
      "stateMutability": "view",
      "type": "function"
    },
    {
      "inputs": [
        {
          "internalType": "address",
          "name": "addr",
          "type": "address"
        }
      ],
      "name": "isSuperseded",
      "outputs": [
        {
          "internalType": "bool",
          "name": "",
          "type": "bool"
        }
      ],
      "stateMutability": "view",
      "type": "function"
    },
    {
      "inputs": [
        {
          "internalType": "address",
          "name": "addr",
          "type": "address"
        }
      ],
      "name": "getCurrentFor",
      "outputs": [
        {
          "internalType": "address",
          "name": "",
          "type": "address"
        }
      ],
      "stateMutability": "view",
      "type": "function"
    },
    {
      "inputs": [],
      "name": "buy",
      "outputs": [],
      "stateMutability": "payable",
      "type": "function"
    },
    {
      "inputs": [
        {
          "internalType": "uint256",
          "name": "amount",
          "type": "uint256"
        }
      ],
      "name": "sell",
      "outputs": [],
      "stateMutability": "payable",
      "type": "function"
    }
  ],
  "bytecode": "0x6080604052600080556000600b60006101000a81548160ff0219169083151502179055506000600d556001600f60006101000a81548160ff0219169083151502179055503480156200005057600080fd5b5042600e8190555033600960006101000a81548173ffffffffffffffffffffffffffffffffffffffff021916908373ffffffffffffffffffffffffffffffffffffffff160217905550620000cc600960009054906101000a900473ffffffffffffffffffffffffffffffffffffffff166200011160201b60201c565b6200010a600960009054906101000a900473ffffffffffffffffffffffffffffffffffffffff1669152d02c7e14af68000006200029860201b60201c565b506200061b565b600960009054906101000a900473ffffffffffffffffffffffffffffffffffffffff1673ffffffffffffffffffffffffffffffffffffffff163373ffffffffffffffffffffffffffffffffffffffff1614620001a4576040517f08c379a00000000000000000000000000000000000000000000000000000000081526004016200019b90620003df565b60405180910390fd5b600073ffffffffffffffffffffffffffffffffffffffff168173ffffffffffffffffffffffffffffffffffffffff16141562000217576040517f08c379a00000000000000000000000000000000000000000000000000000000081526004016200020e9062000451565b60405180910390fd5b6001600660008373ffffffffffffffffffffffffffffffffffffffff1673ffffffffffffffffffffffffffffffffffffffff168152602001908152602001600020819055507f6ae172837ea30b801fbfcdd4108aa1d5bf8ff775444fd70256b44e6bf3dfc3f6816040516200028d9190620004b8565b60405180910390a150565b60008054821115620002e1576040517f08c379a0000000000000000000000000000000000000000000000000000000008152600401620002d89062000525565b60405180910390fd5b81600460008573ffffffffffffffffffffffffffffffffffffffff1673ffffffffffffffffffffffffffffffffffffffff168152602001908152602001600020600082825462000332919062000580565b925050819055507f30385c845b448a36257a6a1716e6ad2e1bc2cbe333cde1e69fe849ad6511adfe83836040516200036c929190620005ee565b60405180910390a16001905092915050565b600082825260208201905092915050565b7f6163636573732064656e69656400000000000000000000000000000000000000600082015250565b6000620003c7600d836200037e565b9150620003d4826200038f565b602082019050919050565b60006020820190508181036000830152620003fa81620003b8565b9050919050565b7f6d697373696e67206d696e746572206164647265737300000000000000000000600082015250565b6000620004396016836200037e565b9150620004468262000401565b602082019050919050565b600060208201905081810360008301526200046c816200042a565b9050919050565b600073ffffffffffffffffffffffffffffffffffffffff82169050919050565b6000620004a08262000473565b9050919050565b620004b28162000493565b82525050565b6000602082019050620004cf6000830184620004a7565b92915050565b7f6578636565647320746f74616c20737570706c79000000000000000000000000600082015250565b60006200050d6014836200037e565b91506200051a82620004d5565b602082019050919050565b600060208201905081810360008301526200054081620004fe565b9050919050565b6000819050919050565b7f4e487b7100000000000000000000000000000000000000000000000000000000600052601160045260246000fd5b60006200058d8262000547565b91506200059a8362000547565b9250827fffffffffffffffffffffffffffffffffffffffffffffffffffffffffffffffff03821115620005d257620005d162000551565b5b828201905092915050565b620005e88162000547565b82525050565b6000604082019050620006056000830185620004a7565b620006146020830184620005dd565b9392505050565b614ac4806200062b6000396000f3fe6080604052600436106101f95760003560e01c80634487b3921161010d578063a6f2ae3a116100a0578063cc397ed31161006f578063cc397ed314610774578063d4d7b19a146107b1578063dd62ed3e146107ee578063e4849b321461082b578063f3221c7f14610847576101f9565b8063a6f2ae3a146106c7578063a9059cbb146106d1578063b03145991461070e578063b9209e3314610737576101f9565b806379f64720116100dc57806379f647201461061f5780638bf140941461064857806395d89b4114610673578063983b2d561461069e576101f9565b80634487b3921461056757806347089f6214610590578063610db94e146105b957806370a08231146105e2576101f9565b806323b872dd116101905780632da7293e1161015f5780632da7293e1461046e5780632ff2e9dc146104ab578063313ce567146104d6578063354b7b1d1461050157806340c10f191461052a576101f9565b806323b872dd1461038c57806327e235e3146103c95780632ab2efc8146104065780632cea64bf14610443576101f9565b8063197bc336116101cc578063197bc336146102d05780631aab9a9f1461030d5780631cb3ef1f146103385780631fb716e414610363576101f9565b806306fdde03146101fe5780630f8cda2014610229578063145381281461026657806318160ddd146102a5575b600080fd5b34801561020a57600080fd5b50610213610884565b6040516102209190613bbc565b60405180910390f35b34801561023557600080fd5b50610250600480360381019061024b9190613c41565b6108bd565b60405161025d9190613bbc565b60405180910390f35b34801561027257600080fd5b5061028d60048036038101906102889190613ca4565b610b3b565b60405161029c93929190613d02565b60405180910390f35b3480156102b157600080fd5b506102ba610ba2565b6040516102c79190613d39565b60405180910390f35b3480156102dc57600080fd5b506102f760048036038101906102f29190613d54565b610ba8565b6040516103049190613d81565b60405180910390f35b34801561031957600080fd5b50610322610cc7565b60405161032f9190613d39565b60405180910390f35b34801561034457600080fd5b5061034d610d64565b60405161035a9190613d39565b60405180910390f35b34801561036f57600080fd5b5061038a60048036038101906103859190613dd4565b610d88565b005b34801561039857600080fd5b506103b360048036038101906103ae9190613e14565b610fa0565b6040516103c09190613e76565b60405180910390f35b3480156103d557600080fd5b506103f060048036038101906103eb9190613c41565b611316565b6040516103fd9190613d39565b60405180910390f35b34801561041257600080fd5b5061042d60048036038101906104289190613ca4565b61132e565b60405161043a9190613bbc565b60405180910390f35b34801561044f57600080fd5b50610458611532565b6040516104659190613d39565b60405180910390f35b34801561047a57600080fd5b5061049560048036038101906104909190613c41565b61153d565b6040516104a29190613e76565b60405180910390f35b3480156104b757600080fd5b506104c0611666565b6040516104cd9190613d39565b60405180910390f35b3480156104e257600080fd5b506104eb611674565b6040516104f89190613ead565b60405180910390f35b34801561050d57600080fd5b5061052860048036038101906105239190613efe565b611679565b005b34801561053657600080fd5b50610551600480360381019061054c9190613ca4565b6118a8565b60405161055e9190613e76565b60405180910390f35b34801561057357600080fd5b5061058e60048036038101906105899190613c41565b611ba9565b005b34801561059c57600080fd5b506105b760048036038101906105b29190613efe565b611d60565b005b3480156105c557600080fd5b506105e060048036038101906105db9190613c41565b61207d565b005b3480156105ee57600080fd5b5061060960048036038101906106049190613c41565b61229f565b6040516106169190613d39565b60405180910390f35b34801561062b57600080fd5b5061064660048036038101906106419190613f3e565b6122e8565b005b34801561065457600080fd5b5061065d612899565b60405161066a9190613d39565b60405180910390f35b34801561067f57600080fd5b506106886128b2565b6040516106959190613bbc565b60405180910390f35b3480156106aa57600080fd5b506106c560048036038101906106c09190613c41565b6128eb565b005b6106cf612a6a565b005b3480156106dd57600080fd5b506106f860048036038101906106f39190613ca4565b612d1a565b6040516107059190613e76565b60405180910390f35b34801561071a57600080fd5b5061073560048036038101906107309190613c41565b61308e565b005b34801561074357600080fd5b5061075e60048036038101906107599190613c41565b613220565b60405161076b9190613e76565b60405180910390f35b34801561078057600080fd5b5061079b60048036038101906107969190613c41565b61326f565b6040516107a89190613d81565b60405180910390f35b3480156107bd57600080fd5b506107d860048036038101906107d39190613c41565b613311565b6040516107e59190613e76565b60405180910390f35b3480156107fa57600080fd5b5061081560048036038101906108109190613f3e565b61335d565b6040516108229190613d39565b60405180910390f35b61084560048036038101906108409190613d54565b6133e4565b005b34801561085357600080fd5b5061086e60048036038101906108699190613efe565b613691565b60405161087b9190613e76565b60405180910390f35b6040518060400160405280601281526020017f52756c65203428612928322920546f6b656e000000000000000000000000000081525081565b6060600960009054906101000a900473ffffffffffffffffffffffffffffffffffffffff1673ffffffffffffffffffffffffffffffffffffffff163373ffffffffffffffffffffffffffffffffffffffff161461094f576040517f08c379a000000000000000000000000000000000000000000000000000000000815260040161094690613fca565b60405180910390fd5b600060405180602001604052806000815250905060005b600860008573ffffffffffffffffffffffffffffffffffffffff1673ffffffffffffffffffffffffffffffffffffffff16815260200190815260200160002080549050811015610b315781600860008673ffffffffffffffffffffffffffffffffffffffff1673ffffffffffffffffffffffffffffffffffffffff1681526020019081526020016000208281548110610a0257610a01613fea565b5b906000526020600020906003020160000160009054906101000a900473ffffffffffffffffffffffffffffffffffffffff16600860008773ffffffffffffffffffffffffffffffffffffffff1673ffffffffffffffffffffffffffffffffffffffff1681526020019081526020016000208381548110610a8557610a84613fea565b5b906000526020600020906003020160010154600860008873ffffffffffffffffffffffffffffffffffffffff1673ffffffffffffffffffffffffffffffffffffffff1681526020019081526020016000208481548110610ae857610ae7613fea565b5b906000526020600020906003020160020154604051602001610b0d94939291906141a2565b60405160208183030381529060405291508080610b2990614247565b915050610966565b5080915050919050565b60086020528160005260406000208181548110610b5757600080fd5b9060005260206000209060030201600091509150508060000160009054906101000a900473ffffffffffffffffffffffffffffffffffffffff16908060010154908060020154905083565b60005481565b6000600960009054906101000a900473ffffffffffffffffffffffffffffffffffffffff1673ffffffffffffffffffffffffffffffffffffffff163373ffffffffffffffffffffffffffffffffffffffff1614610c3a576040517f08c379a0000000000000000000000000000000000000000000000000000000008152600401610c3190613fca565b60405180910390fd5b600a805490508210610c81576040517f08c379a0000000000000000000000000000000000000000000000000000000008152600401610c78906142b6565b60405180910390fd5b600a8281548110610c9557610c94613fea565b5b9060005260206000200160009054906101000a900473ffffffffffffffffffffffffffffffffffffffff169050919050565b6000600960009054906101000a900473ffffffffffffffffffffffffffffffffffffffff1673ffffffffffffffffffffffffffffffffffffffff163373ffffffffffffffffffffffffffffffffffffffff1614610d59576040517f08c379a0000000000000000000000000000000000000000000000000000000008152600401610d5090613fca565b60405180910390fd5b600a80549050905090565b7fffffffffffffffffffffffffffffffffffffffffffffffffffffffffffffffff81565b600960009054906101000a900473ffffffffffffffffffffffffffffffffffffffff1673ffffffffffffffffffffffffffffffffffffffff163373ffffffffffffffffffffffffffffffffffffffff1614610e18576040517f08c379a0000000000000000000000000000000000000000000000000000000008152600401610e0f90613fca565b60405180910390fd5b81600c8190555080600b60006101000a81548160ff021916908315150217905550600b60009054906101000a900460ff1615610ef7573373ffffffffffffffffffffffffffffffffffffffff167fb9c39a906441691d138569e18a2c9766e29c5def7618306a8f07d7dc1f34627b6040518060400160405280601281526020017f52756c65203428612928322920546f6b656e0000000000000000000000000000815250604051602001610ecc9190614322565b60405160208183030381529060405284604051610eea929190614344565b60405180910390a2610f9c565b3373ffffffffffffffffffffffffffffffffffffffff167fb9c39a906441691d138569e18a2c9766e29c5def7618306a8f07d7dc1f34627b6040518060400160405280601281526020017f52756c65203428612928322920546f6b656e0000000000000000000000000000815250604051602001610f7591906143c0565b60405160208183030381529060405284604051610f93929190614344565b60405180910390a25b5050565b6000600b60009054906101000a900460ff16610ff1576040517f08c379a0000000000000000000000000000000000000000000000000000000008152600401610fe89061442e565b60405180910390fd5b826000801b600160008373ffffffffffffffffffffffffffffffffffffffff1673ffffffffffffffffffffffffffffffffffffffff168152602001908152602001600020541415611077576040517f08c379a000000000000000000000000000000000000000000000000000000000815260040161106e906142b6565b60405180910390fd5b60001515600f60009054906101000a900460ff16151514156110ce576040517f08c379a00000000000000000000000000000000000000000000000000000000081526004016110c59061449a565b60405180910390fd5b6110d78461371b565b6110e1858461380f565b600060405180606001604052808673ffffffffffffffffffffffffffffffffffffffff168152602001858152602001428152509050600860008673ffffffffffffffffffffffffffffffffffffffff1673ffffffffffffffffffffffffffffffffffffffff16815260200190815260200160002081908060018154018082558091505060019003906000526020600020906003020160009091909190915060008201518160000160006101000a81548173ffffffffffffffffffffffffffffffffffffffff021916908373ffffffffffffffffffffffffffffffffffffffff1602179055506020820151816001015560408201518160020155505060405180606001604052808773ffffffffffffffffffffffffffffffffffffffff168152602001857fffffffffffffffffffffffffffffffffffffffffffffffffffffffffffffffff61122f91906144ba565b8152602001428152509050600860008773ffffffffffffffffffffffffffffffffffffffff1673ffffffffffffffffffffffffffffffffffffffff16815260200190815260200160002081908060018154018082558091505060019003906000526020600020906003020160009091909190915060008201518160000160006101000a81548173ffffffffffffffffffffffffffffffffffffffff021916908373ffffffffffffffffffffffffffffffffffffffff1602179055506020820151816001015560408201518160020155505061130b868686610fa0565b925050509392505050565b60046020528060005260406000206000915090505481565b6060600960009054906101000a900473ffffffffffffffffffffffffffffffffffffffff1673ffffffffffffffffffffffffffffffffffffffff163373ffffffffffffffffffffffffffffffffffffffff16146113c0576040517f08c379a00000000000000000000000000000000000000000000000000000000081526004016113b790613fca565b60405180910390fd5b600860008473ffffffffffffffffffffffffffffffffffffffff1673ffffffffffffffffffffffffffffffffffffffff168152602001908152602001600020828154811061141157611410613fea565b5b906000526020600020906003020160000160009054906101000a900473ffffffffffffffffffffffffffffffffffffffff16600860008573ffffffffffffffffffffffffffffffffffffffff1673ffffffffffffffffffffffffffffffffffffffff168152602001908152602001600020838154811061149457611493613fea565b5b906000526020600020906003020160010154600860008673ffffffffffffffffffffffffffffffffffffffff1673ffffffffffffffffffffffffffffffffffffffff16815260200190815260200160002084815481106114f7576114f6613fea565b5b90600052602060002090600302016002015460405160200161151b93929190614514565b604051602081830303815290604052905092915050565b6611c37937e0800081565b6000600960009054906101000a900473ffffffffffffffffffffffffffffffffffffffff1673ffffffffffffffffffffffffffffffffffffffff163373ffffffffffffffffffffffffffffffffffffffff16146115cf576040517f08c379a00000000000000000000000000000000000000000000000000000000081526004016115c690613fca565b60405180910390fd5b600073ffffffffffffffffffffffffffffffffffffffff16600260008473ffffffffffffffffffffffffffffffffffffffff1673ffffffffffffffffffffffffffffffffffffffff16815260200190815260200160002060009054906101000a900473ffffffffffffffffffffffffffffffffffffffff1673ffffffffffffffffffffffffffffffffffffffff1614159050919050565b69152d02c7e14af680000081565b600081565b600960009054906101000a900473ffffffffffffffffffffffffffffffffffffffff1673ffffffffffffffffffffffffffffffffffffffff163373ffffffffffffffffffffffffffffffffffffffff1614611709576040517f08c379a000000000000000000000000000000000000000000000000000000000815260040161170090613fca565b60405180910390fd5b816000801b600160008373ffffffffffffffffffffffffffffffffffffffff1673ffffffffffffffffffffffffffffffffffffffff16815260200190815260200160002054141561178f576040517f08c379a0000000000000000000000000000000000000000000000000000000008152600401611786906142b6565b60405180910390fd5b6000801b8214156117d5576040517f08c379a00000000000000000000000000000000000000000000000000000000081526004016117cc906142b6565b60405180910390fd5b6000600160008573ffffffffffffffffffffffffffffffffffffffff1673ffffffffffffffffffffffffffffffffffffffff1681526020019081526020016000205490508281146118a25782600160008673ffffffffffffffffffffffffffffffffffffffff1673ffffffffffffffffffffffffffffffffffffffff168152602001908152602001600020819055507f63ec12603f028c6f74dc3c59a67d645d431250142b56676015d25475ee3fc3d384828533604051611899949392919061458c565b60405180910390a15b50505050565b6000600b60009054906101000a900460ff166118f9576040517f08c379a00000000000000000000000000000000000000000000000000000000081526004016118f09061442e565b60405180910390fd5b600960009054906101000a900473ffffffffffffffffffffffffffffffffffffffff1673ffffffffffffffffffffffffffffffffffffffff163373ffffffffffffffffffffffffffffffffffffffff1614611989576040517f08c379a000000000000000000000000000000000000000000000000000000000815260040161198090613fca565b60405180910390fd5b6001600660003373ffffffffffffffffffffffffffffffffffffffff1673ffffffffffffffffffffffffffffffffffffffff1681526020019081526020016000205414611a0b576040517f08c379a0000000000000000000000000000000000000000000000000000000008152600401611a029061461d565b60405180910390fd5b826000801b600160008373ffffffffffffffffffffffffffffffffffffffff1673ffffffffffffffffffffffffffffffffffffffff168152602001908152602001600020541415611a91576040517f08c379a0000000000000000000000000000000000000000000000000000000008152600401611a88906142b6565b60405180910390fd5b611a9a8461371b565b600060405180606001604052808673ffffffffffffffffffffffffffffffffffffffff168152602001858152602001428152509050600860008673ffffffffffffffffffffffffffffffffffffffff1673ffffffffffffffffffffffffffffffffffffffff16815260200190815260200160002081908060018154018082558091505060019003906000526020600020906003020160009091909190915060008201518160000160006101000a81548173ffffffffffffffffffffffffffffffffffffffff021916908373ffffffffffffffffffffffffffffffffffffffff16021790555060208201518160010155604082015181600201555050611b9f85856118a8565b9250505092915050565b600960009054906101000a900473ffffffffffffffffffffffffffffffffffffffff1673ffffffffffffffffffffffffffffffffffffffff163373ffffffffffffffffffffffffffffffffffffffff1614611c39576040517f08c379a0000000000000000000000000000000000000000000000000000000008152600401611c3090613fca565b60405180910390fd5b60008173ffffffffffffffffffffffffffffffffffffffff163114611c93576040517f08c379a0000000000000000000000000000000000000000000000000000000008152600401611c8a90614689565b60405180910390fd5b6000801b600160008373ffffffffffffffffffffffffffffffffffffffff1673ffffffffffffffffffffffffffffffffffffffff1681526020019081526020016000205414611d5d576000801b600160008373ffffffffffffffffffffffffffffffffffffffff1673ffffffffffffffffffffffffffffffffffffffff168152602001908152602001600020819055507f8071c01a493142de896a206c19ca180d32e91d6486fcf11ea299f569f5d922b58133604051611d549291906146a9565b60405180910390a15b50565b600960009054906101000a900473ffffffffffffffffffffffffffffffffffffffff1673ffffffffffffffffffffffffffffffffffffffff163373ffffffffffffffffffffffffffffffffffffffff1614611df0576040517f08c379a0000000000000000000000000000000000000000000000000000000008152600401611de790613fca565b60405180910390fd5b81600073ffffffffffffffffffffffffffffffffffffffff16600260008373ffffffffffffffffffffffffffffffffffffffff1673ffffffffffffffffffffffffffffffffffffffff16815260200190815260200160002060009054906101000a900473ffffffffffffffffffffffffffffffffffffffff1673ffffffffffffffffffffffffffffffffffffffff1614611ebf576040517f08c379a0000000000000000000000000000000000000000000000000000000008152600401611eb6906142b6565b60405180910390fd5b600073ffffffffffffffffffffffffffffffffffffffff168373ffffffffffffffffffffffffffffffffffffffff161415611f2f576040517f08c379a0000000000000000000000000000000000000000000000000000000008152600401611f26906142b6565b60405180910390fd5b6000801b821415611f75576040517f08c379a0000000000000000000000000000000000000000000000000000000008152600401611f6c906142b6565b60405180910390fd5b6000801b600160008573ffffffffffffffffffffffffffffffffffffffff1673ffffffffffffffffffffffffffffffffffffffff1681526020019081526020016000205414611ff9576040517f08c379a0000000000000000000000000000000000000000000000000000000008152600401611ff0906142b6565b60405180910390fd5b81600160008573ffffffffffffffffffffffffffffffffffffffff1673ffffffffffffffffffffffffffffffffffffffff168152602001908152602001600020819055507fb4f9d1d687d745820ae7c948518d6eef182cfbf5ef20b5b6a33769059592e7c8838333604051612070939291906146d2565b60405180910390a1505050565b600960009054906101000a900473ffffffffffffffffffffffffffffffffffffffff1673ffffffffffffffffffffffffffffffffffffffff163373ffffffffffffffffffffffffffffffffffffffff161461210d576040517f08c379a000000000000000000000000000000000000000000000000000000000815260040161210490613fca565b60405180910390fd5b600073ffffffffffffffffffffffffffffffffffffffff168173ffffffffffffffffffffffffffffffffffffffff161461217c576040517f08c379a000000000000000000000000000000000000000000000000000000000815260040161217390614755565b60405180910390fd5b600960009054906101000a900473ffffffffffffffffffffffffffffffffffffffff1673ffffffffffffffffffffffffffffffffffffffff168173ffffffffffffffffffffffffffffffffffffffff16141561220d576040517f08c379a0000000000000000000000000000000000000000000000000000000008152600401612204906147c1565b60405180910390fd5b6000600560008373ffffffffffffffffffffffffffffffffffffffff1673ffffffffffffffffffffffffffffffffffffffff16815260200190815260200160002060006101000a81548160ff0219169083151502179055507f2a6c8fd6a904ef448050f3dd3c91d69c89f6029c4144371b887bc536b34f6caa816040516122949190613d81565b60405180910390a150565b6000600460008373ffffffffffffffffffffffffffffffffffffffff1673ffffffffffffffffffffffffffffffffffffffff168152602001908152602001600020549050919050565b600b60009054906101000a900460ff16612337576040517f08c379a000000000000000000000000000000000000000000000000000000000815260040161232e9061442e565b60405180910390fd5b600960009054906101000a900473ffffffffffffffffffffffffffffffffffffffff1673ffffffffffffffffffffffffffffffffffffffff163373ffffffffffffffffffffffffffffffffffffffff16146123c7576040517f08c379a00000000000000000000000000000000000000000000000000000000081526004016123be90613fca565b60405180910390fd5b816000600360008373ffffffffffffffffffffffffffffffffffffffff1673ffffffffffffffffffffffffffffffffffffffff16815260200190815260200160002054141561244b576040517f08c379a0000000000000000000000000000000000000000000000000000000008152600401612442906142b6565b60405180910390fd5b816000600360008373ffffffffffffffffffffffffffffffffffffffff1673ffffffffffffffffffffffffffffffffffffffff16815260200190815260200160002054146124ce576040517f08c379a00000000000000000000000000000000000000000000000000000000081526004016124c5906142b6565b60405180910390fd5b826000801b600160008373ffffffffffffffffffffffffffffffffffffffff1673ffffffffffffffffffffffffffffffffffffffff168152602001908152602001600020541415612554576040517f08c379a000000000000000000000000000000000000000000000000000000000815260040161254b906142b6565b60405180910390fd5b6000801b600160008773ffffffffffffffffffffffffffffffffffffffff1673ffffffffffffffffffffffffffffffffffffffff1681526020019081526020016000208190555083600260008773ffffffffffffffffffffffffffffffffffffffff1673ffffffffffffffffffffffffffffffffffffffff16815260200190815260200160002060006101000a81548173ffffffffffffffffffffffffffffffffffffffff021916908373ffffffffffffffffffffffffffffffffffffffff16021790555060006001600360008873ffffffffffffffffffffffffffffffffffffffff1673ffffffffffffffffffffffffffffffffffffffff1681526020019081526020016000205461266791906147e1565b905084600a828154811061267e5761267d613fea565b5b9060005260206000200160006101000a81548173ffffffffffffffffffffffffffffffffffffffff021916908373ffffffffffffffffffffffffffffffffffffffff160217905550600360008773ffffffffffffffffffffffffffffffffffffffff1673ffffffffffffffffffffffffffffffffffffffff16815260200190815260200160002054600360008773ffffffffffffffffffffffffffffffffffffffff1673ffffffffffffffffffffffffffffffffffffffff168152602001908152602001600020819055506000600360008873ffffffffffffffffffffffffffffffffffffffff1673ffffffffffffffffffffffffffffffffffffffff16815260200190815260200160002081905550600460008773ffffffffffffffffffffffffffffffffffffffff1673ffffffffffffffffffffffffffffffffffffffff16815260200190815260200160002054600460008773ffffffffffffffffffffffffffffffffffffffff1673ffffffffffffffffffffffffffffffffffffffff168152602001908152602001600020819055506000600460008873ffffffffffffffffffffffffffffffffffffffff1673ffffffffffffffffffffffffffffffffffffffff168152602001908152602001600020819055507fb64971100522354f3d25283cb14e2eefcb0dd26a757482ccfe42479d0a68685786863360405161288993929190614815565b60405180910390a1505050505050565b6611c37937e08000620186a06128af91906144ba565b81565b6040518060400160405280600981526020017f544f4b454e2e344132000000000000000000000000000000000000000000000081525081565b600960009054906101000a900473ffffffffffffffffffffffffffffffffffffffff1673ffffffffffffffffffffffffffffffffffffffff163373ffffffffffffffffffffffffffffffffffffffff161461297b576040517f08c379a000000000000000000000000000000000000000000000000000000000815260040161297290613fca565b60405180910390fd5b600073ffffffffffffffffffffffffffffffffffffffff168173ffffffffffffffffffffffffffffffffffffffff1614156129eb576040517f08c379a00000000000000000000000000000000000000000000000000000000081526004016129e290614898565b60405180910390fd5b6001600660008373ffffffffffffffffffffffffffffffffffffffff1673ffffffffffffffffffffffffffffffffffffffff168152602001908152602001600020819055507f6ae172837ea30b801fbfcdd4108aa1d5bf8ff775444fd70256b44e6bf3dfc3f681604051612a5f9190613d81565b60405180910390a150565b600b60009054906101000a900460ff16612ab9576040517f08c379a0000000000000000000000000000000000000000000000000000000008152600401612ab09061442e565b60405180910390fd5b336000801b600160008373ffffffffffffffffffffffffffffffffffffffff1673ffffffffffffffffffffffffffffffffffffffff168152602001908152602001600020541415612b3f576040517f08c379a0000000000000000000000000000000000000000000000000000000008152600401612b36906142b6565b60405180910390fd5b60003490506000612b4f3061229f565b905060008211612b94576040517f08c379a0000000000000000000000000000000000000000000000000000000008152600401612b8b90614904565b60405180910390fd5b80821115612bd7576040517f08c379a0000000000000000000000000000000000000000000000000000000008152600401612bce90614970565b60405180910390fd5b600060405180606001604052803373ffffffffffffffffffffffffffffffffffffffff168152602001848152602001428152509050600860003373ffffffffffffffffffffffffffffffffffffffff1673ffffffffffffffffffffffffffffffffffffffff16815260200190815260200160002081908060018154018082558091505060019003906000526020600020906003020160009091909190915060008201518160000160006101000a81548173ffffffffffffffffffffffffffffffffffffffff021916908373ffffffffffffffffffffffffffffffffffffffff160217905550602082015181600101556040820151816002015550507f4e08ba899977cf7d4c2964bce71c6b9a7ef76ee5166a4c1249a1e08016e33ef183604051612d019190613d39565b60405180910390a1612d133384612d1a565b5050505050565b6000600b60009054906101000a900460ff16612d6b576040517f08c379a0000000000000000000000000000000000000000000000000000000008152600401612d629061442e565b60405180910390fd5b826000801b600160008373ffffffffffffffffffffffffffffffffffffffff1673ffffffffffffffffffffffffffffffffffffffff168152602001908152602001600020541415612df1576040517f08c379a0000000000000000000000000000000000000000000000000000000008152600401612de8906142b6565b60405180910390fd5b60001515600f60009054906101000a900460ff1615151415612e48576040517f08c379a0000000000000000000000000000000000000000000000000000000008152600401612e3f9061449a565b60405180910390fd5b612e518461371b565b612e5b338461380f565b600060405180606001604052808673ffffffffffffffffffffffffffffffffffffffff168152602001858152602001428152509050600860008673ffffffffffffffffffffffffffffffffffffffff1673ffffffffffffffffffffffffffffffffffffffff16815260200190815260200160002081908060018154018082558091505060019003906000526020600020906003020160009091909190915060008201518160000160006101000a81548173ffffffffffffffffffffffffffffffffffffffff021916908373ffffffffffffffffffffffffffffffffffffffff1602179055506020820151816001015560408201518160020155505060405180606001604052803373ffffffffffffffffffffffffffffffffffffffff168152602001857fffffffffffffffffffffffffffffffffffffffffffffffffffffffffffffffff612fa991906144ba565b8152602001428152509050600860003373ffffffffffffffffffffffffffffffffffffffff1673ffffffffffffffffffffffffffffffffffffffff16815260200190815260200160002081908060018154018082558091505060019003906000526020600020906003020160009091909190915060008201518160000160006101000a81548173ffffffffffffffffffffffffffffffffffffffff021916908373ffffffffffffffffffffffffffffffffffffffff160217905550602082015181600101556040820151816002015550506130848585612d1a565b9250505092915050565b600960009054906101000a900473ffffffffffffffffffffffffffffffffffffffff1673ffffffffffffffffffffffffffffffffffffffff163373ffffffffffffffffffffffffffffffffffffffff161461311e576040517f08c379a000000000000000000000000000000000000000000000000000000000815260040161311590613fca565b60405180910390fd5b600073ffffffffffffffffffffffffffffffffffffffff168173ffffffffffffffffffffffffffffffffffffffff16141561318e576040517f08c379a000000000000000000000000000000000000000000000000000000000815260040161318590614755565b60405180910390fd5b6001600560008373ffffffffffffffffffffffffffffffffffffffff1673ffffffffffffffffffffffffffffffffffffffff16815260200190815260200160002060006101000a81548160ff0219169083151502179055507f1e9fcacb7052d8badc53a7061f6dc79beafe00b872cc7d0a57c541023eb9eabc816040516132159190613d81565b60405180910390a150565b60008060001b600160008473ffffffffffffffffffffffffffffffffffffffff1673ffffffffffffffffffffffffffffffffffffffff1681526020019081526020016000205414159050919050565b6000600960009054906101000a900473ffffffffffffffffffffffffffffffffffffffff1673ffffffffffffffffffffffffffffffffffffffff163373ffffffffffffffffffffffffffffffffffffffff1614613301576040517f08c379a00000000000000000000000000000000000000000000000000000000081526004016132f890613fca565b60405180910390fd5b61330a82613a6e565b9050919050565b600080600360008473ffffffffffffffffffffffffffffffffffffffff1673ffffffffffffffffffffffffffffffffffffffff1681526020019081526020016000205414159050919050565b6000600760008473ffffffffffffffffffffffffffffffffffffffff1673ffffffffffffffffffffffffffffffffffffffff16815260200190815260200160002060008373ffffffffffffffffffffffffffffffffffffffff1673ffffffffffffffffffffffffffffffffffffffff16815260200190815260200160002054905092915050565b600b60009054906101000a900460ff16613433576040517f08c379a000000000000000000000000000000000000000000000000000000000815260040161342a9061442e565b60405180910390fd5b336000801b600160008373ffffffffffffffffffffffffffffffffffffffff1673ffffffffffffffffffffffffffffffffffffffff1681526020019081526020016000205414156134b9576040517f08c379a00000000000000000000000000000000000000000000000000000000081526004016134b0906142b6565b60405180910390fd5b600082116134fc576040517f08c379a00000000000000000000000000000000000000000000000000000000081526004016134f390614a02565b60405180910390fd5b6000613508333061335d565b90508281101561354d576040517f08c379a000000000000000000000000000000000000000000000000000000000815260040161354490614a6e565b60405180910390fd5b600060405180606001604052803373ffffffffffffffffffffffffffffffffffffffff168152602001858152602001428152509050600860003373ffffffffffffffffffffffffffffffffffffffff1673ffffffffffffffffffffffffffffffffffffffff16815260200190815260200160002081908060018154018082558091505060019003906000526020600020906003020160009091909190915060008201518160000160006101000a81548173ffffffffffffffffffffffffffffffffffffffff021916908373ffffffffffffffffffffffffffffffffffffffff160217905550602082015181600101556040820151816002015550507f92f64ca637d023f354075a4be751b169c1a8a9ccb6d33cdd0cb3520543995727846040516136779190613d39565b60405180910390a161368a333086610fa0565b5050505050565b60008073ffffffffffffffffffffffffffffffffffffffff168373ffffffffffffffffffffffffffffffffffffffff1614156136d05760009050613715565b81600160008573ffffffffffffffffffffffffffffffffffffffff1673ffffffffffffffffffffffffffffffffffffffff168152602001908152602001600020541490505b92915050565b6000600360008373ffffffffffffffffffffffffffffffffffffffff1673ffffffffffffffffffffffffffffffffffffffff16815260200190815260200160002054141561380c57600a819080600181540180825580915050600190039060005260206000200160009091909190916101000a81548173ffffffffffffffffffffffffffffffffffffffff021916908373ffffffffffffffffffffffffffffffffffffffff1602179055506001600360008373ffffffffffffffffffffffffffffffffffffffff1673ffffffffffffffffffffffffffffffffffffffff168152602001908152602001600020819055505b50565b6000818373ffffffffffffffffffffffffffffffffffffffff163161383491906147e1565b905060008111156138455750613a6a565b60006001600360008673ffffffffffffffffffffffffffffffffffffffff1673ffffffffffffffffffffffffffffffffffffffff1681526020019081526020016000205461389391906147e1565b905060006001600a805490506138a991906147e1565b90506000600a82815481106138c1576138c0613fea565b5b9060005260206000200160009054906101000a900473ffffffffffffffffffffffffffffffffffffffff16905080600a848154811061390357613902613fea565b5b9060005260206000200160006101000a81548173ffffffffffffffffffffffffffffffffffffffff021916908373ffffffffffffffffffffffffffffffffffffffff160217905550600360008773ffffffffffffffffffffffffffffffffffffffff1673ffffffffffffffffffffffffffffffffffffffff16815260200190815260200160002054600360008373ffffffffffffffffffffffffffffffffffffffff1673ffffffffffffffffffffffffffffffffffffffff16815260200190815260200160002081905550600a6001600a805490506139e291906147e1565b815481106139f3576139f2613fea565b5b9060005260206000200160006101000a81549073ffffffffffffffffffffffffffffffffffffffff02191690556000600360008873ffffffffffffffffffffffffffffffffffffffff1673ffffffffffffffffffffffffffffffffffffffff16815260200190815260200160002081905550505050505b5050565b600080600260008473ffffffffffffffffffffffffffffffffffffffff1673ffffffffffffffffffffffffffffffffffffffff16815260200190815260200160002060009054906101000a900473ffffffffffffffffffffffffffffffffffffffff169050600073ffffffffffffffffffffffffffffffffffffffff168173ffffffffffffffffffffffffffffffffffffffff161415613b115782915050613b1e565b613b1a81613a6e565b9150505b919050565b600081519050919050565b600082825260208201905092915050565b60005b83811015613b5d578082015181840152602081019050613b42565b83811115613b6c576000848401525b50505050565b6000601f19601f8301169050919050565b6000613b8e82613b23565b613b988185613b2e565b9350613ba8818560208601613b3f565b613bb181613b72565b840191505092915050565b60006020820190508181036000830152613bd68184613b83565b905092915050565b600080fd5b600073ffffffffffffffffffffffffffffffffffffffff82169050919050565b6000613c0e82613be3565b9050919050565b613c1e81613c03565b8114613c2957600080fd5b50565b600081359050613c3b81613c15565b92915050565b600060208284031215613c5757613c56613bde565b5b6000613c6584828501613c2c565b91505092915050565b6000819050919050565b613c8181613c6e565b8114613c8c57600080fd5b50565b600081359050613c9e81613c78565b92915050565b60008060408385031215613cbb57613cba613bde565b5b6000613cc985828601613c2c565b9250506020613cda85828601613c8f565b9150509250929050565b613ced81613c03565b82525050565b613cfc81613c6e565b82525050565b6000606082019050613d176000830186613ce4565b613d246020830185613cf3565b613d316040830184613cf3565b949350505050565b6000602082019050613d4e6000830184613cf3565b92915050565b600060208284031215613d6a57613d69613bde565b5b6000613d7884828501613c8f565b91505092915050565b6000602082019050613d966000830184613ce4565b92915050565b60008115159050919050565b613db181613d9c565b8114613dbc57600080fd5b50565b600081359050613dce81613da8565b92915050565b60008060408385031215613deb57613dea613bde565b5b6000613df985828601613c8f565b9250506020613e0a85828601613dbf565b9150509250929050565b600080600060608486031215613e2d57613e2c613bde565b5b6000613e3b86828701613c2c565b9350506020613e4c86828701613c2c565b9250506040613e5d86828701613c8f565b9150509250925092565b613e7081613d9c565b82525050565b6000602082019050613e8b6000830184613e67565b92915050565b600060ff82169050919050565b613ea781613e91565b82525050565b6000602082019050613ec26000830184613e9e565b92915050565b6000819050919050565b613edb81613ec8565b8114613ee657600080fd5b50565b600081359050613ef881613ed2565b92915050565b60008060408385031215613f1557613f14613bde565b5b6000613f2385828601613c2c565b9250506020613f3485828601613ee9565b9150509250929050565b60008060408385031215613f5557613f54613bde565b5b6000613f6385828601613c2c565b9250506020613f7485828601613c2c565b9150509250929050565b7f6163636573732064656e69656400000000000000000000000000000000000000600082015250565b6000613fb4600d83613b2e565b9150613fbf82613f7e565b602082019050919050565b60006020820190508181036000830152613fe381613fa7565b9050919050565b7f4e487b7100000000000000000000000000000000000000000000000000000000600052603260045260246000fd5b600081905092915050565b600061402f82613b23565b6140398185614019565b9350614049818560208601613b3f565b80840191505092915050565b7f5b00000000000000000000000000000000000000000000000000000000000000600082015250565b600061408b600183614019565b915061409682614055565b600182019050919050565b60008160601b9050919050565b60006140b9826140a1565b9050919050565b60006140cb826140ae565b9050919050565b6140e36140de82613c03565b6140c0565b82525050565b7f2c00000000000000000000000000000000000000000000000000000000000000600082015250565b600061411f600183614019565b915061412a826140e9565b600182019050919050565b6000819050919050565b61415061414b82613c6e565b614135565b82525050565b7f5d00000000000000000000000000000000000000000000000000000000000000600082015250565b600061418c600183614019565b915061419782614156565b600182019050919050565b60006141ae8287614024565b91506141b98261407e565b91506141c582866140d2565b6014820191506141d482614112565b91506141e0828561413f565b6020820191506141ef82614112565b91506141fb828461413f565b60208201915061420a8261417f565b915081905095945050505050565b7f4e487b7100000000000000000000000000000000000000000000000000000000600052601160045260246000fd5b600061425282613c6e565b91507fffffffffffffffffffffffffffffffffffffffffffffffffffffffffffffffff82141561428557614284614218565b5b600182019050919050565b50565b60006142a0600083613b2e565b91506142ab82614290565b600082019050919050565b600060208201905081810360008301526142cf81614293565b9050919050565b7f2068617320737461727465640000000000000000000000000000000000000000600082015250565b600061430c600c83614019565b9150614317826142d6565b600c82019050919050565b600061432e8284614024565b9150614339826142ff565b915081905092915050565b6000604082019050818103600083015261435e8185613b83565b905061436d6020830184613cf3565b9392505050565b7f206861732073746f707065640000000000000000000000000000000000000000600082015250565b60006143aa600c83614019565b91506143b582614374565b600c82019050919050565b60006143cc8284614024565b91506143d78261439d565b915081905092915050565b7f6578656d7074206f66666572696e67206973206e6f7420616374697665000000600082015250565b6000614418601d83613b2e565b9150614423826143e2565b602082019050919050565b600060208201905081810360008301526144478161440b565b9050919050565b7f7365637572697479206973207265737472696374656400000000000000000000600082015250565b6000614484601683613b2e565b915061448f8261444e565b602082019050919050565b600060208201905081810360008301526144b381614477565b9050919050565b60006144c582613c6e565b91506144d083613c6e565b9250817fffffffffffffffffffffffffffffffffffffffffffffffffffffffffffffffff048311821515161561450957614508614218565b5b828202905092915050565b600061451f8261407e565b915061452b82866140d2565b60148201915061453a82614112565b9150614546828561413f565b60208201915061455582614112565b9150614561828461413f565b6020820191506145708261417f565b9150819050949350505050565b61458681613ec8565b82525050565b60006080820190506145a16000830187613ce4565b6145ae602083018661457d565b6145bb604083018561457d565b6145c86060830184613ce4565b95945050505050565b7f6e6f742061206d696e7465720000000000000000000000000000000000000000600082015250565b6000614607600c83613b2e565b9150614612826145d1565b602082019050919050565b60006020820190508181036000830152614636816145fa565b9050919050565b7f6163636f756e742062616c616e6365206973206e6f74207a65726f0000000000600082015250565b6000614673601b83613b2e565b915061467e8261463d565b602082019050919050565b600060208201905081810360008301526146a281614666565b9050919050565b60006040820190506146be6000830185613ce4565b6146cb6020830184613ce4565b9392505050565b60006060820190506146e76000830186613ce4565b6146f4602083018561457d565b6147016040830184613ce4565b949350505050565b7f6d697373696e67207472616e73666572206167656e7420616464726573730000600082015250565b600061473f601e83613b2e565b915061474a82614709565b602082019050919050565b6000602082019050818103600083015261476e81614732565b9050919050565b7f63616e6e6f742072656d6f766520746865206f776e6572000000000000000000600082015250565b60006147ab601783613b2e565b91506147b682614775565b602082019050919050565b600060208201905081810360008301526147da8161479e565b9050919050565b60006147ec82613c6e565b91506147f783613c6e565b92508282101561480a57614809614218565b5b828203905092915050565b600060608201905061482a6000830186613ce4565b6148376020830185613ce4565b6148446040830184613ce4565b949350505050565b7f6d697373696e67206d696e746572206164647265737300000000000000000000600082015250565b6000614882601683613b2e565b915061488d8261484c565b602082019050919050565b600060208201905081810360008301526148b181614875565b9050919050565b7f596f75206e65656420746f2073656e6420736f6d652065746865720000000000600082015250565b60006148ee601b83613b2e565b91506148f9826148b8565b602082019050919050565b6000602082019050818103600083015261491d816148e1565b9050919050565b7f4e6f7420656e6f75676820746f6b656e7320696e207468652072657365727665600082015250565b600061495a602083613b2e565b915061496582614924565b602082019050919050565b600060208201905081810360008301526149898161494d565b9050919050565b7f596f75206e65656420746f2073656c6c206174206c6561737420736f6d65207460008201527f6f6b656e73000000000000000000000000000000000000000000000000000000602082015250565b60006149ec602583613b2e565b91506149f782614990565b604082019050919050565b60006020820190508181036000830152614a1b816149df565b9050919050565b7f436865636b2074686520746f6b656e20616c6c6f77616e636500000000000000600082015250565b6000614a58601983613b2e565b9150614a6382614a22565b602082019050919050565b60006020820190508181036000830152614a8781614a4b565b905091905056fea2646970667358221220b7f55e3ca1368436970d23b36d602a98b1a5b53d30a2d7d37bf41edb07ffa97464736f6c634300080a0033",
  "immutableReferences": {},
  "source": "// SPDX-License-Identifier: CC-BY-4.0\npragma solidity >=0.4.22 <0.9.0;\n\n/**\n * Section 4(a)(2)\n * ---------------\n * See https://www.sec.gov/smallbusiness/exemptofferings/rule506b\n *\n * To qualify for this exemption, which is sometimes referred to as the private placement\n * exemption, the purchasers of the securities must\n *\n *  - either have enough knowledge and experience in finance and business matters to be\n *    sophisticated investors (able to evaluate the risks and merits of the investment),\n *    or be able to bear the investments economic risk\n *  - have access to the type of information normally provided in a prospectus for a\n *    registered securities offering and\n *  - agree not to resell or distribute the securities to the public\n *\n * In general, public advertising of the offering, and general solicitation of investors,\n * is incompatible with the private placement exemption.\n *\n * The precise limits of the private placement exemption are not defined by rule.\n * As the number of purchasers increases and their relationship to the company and\n * its management becomes more remote, it is more difficult to show that the offering\n * qualifies for this exemption. If your company offers securities to even one person\n * who does not meet the necessary conditions, the entire offering may be in violation\n * of the Securities Act.\n *\n */\n\ncontract ExemptEquityOffering4A2 {\n    string public constant name = \"Rule 4(a)(2) Token\";\n    string public constant symbol = \"TOKEN.4A2\";\n    uint8 public constant decimals = 0;\n    uint256 public totalSupply = 0;\n\n    uint256 public constant negative = type(uint256).max;\n\n    uint public constant INITIAL_SUPPLY = 100000 * 1 ether;\n\n    bytes32 constant private ZERO_BYTES = bytes32(0);\n    address constant private ZERO_ADDRESS = address(0);\n\n\n    mapping(address => bytes32) private verified;\n    mapping(address => address) private cancellations;\n    mapping(address => uint256) private holderIndices;\n    mapping(address => uint256) public  balances;\n    mapping(address => bool) private transferagents;\n    mapping(address => uint256) private minters;\n    mapping(address => mapping(address => uint256)) private _allowances;\n\n    struct Transaction {\n        address addr;\n        uint256 amount;\n        uint256 time;\n    }\n\n    mapping(address => Transaction[]) public transactions;\n\n    address private owner;\n\n    address[] private shareholders;\n\n    bool internal active = false;\n    uint256 private start_timestamp;\n    event ExemptOffering(address indexed from,string status, uint256 value);\n    event Bought(uint value);\n    event Sold(uint value);\n    event Transfer(address addr, uint256 amount);\n    event TransferFrom(address from,address to,uint256 value);\n    event TransferAgentAdded(address addr);\n    event TransferAgentRemoved(address addr);\n    event MinterAdded(address addr);\n    event Minted(address addr, uint256 amount);\n    event VerifiedAddressSuperseded(address addr1,address addr2,address addr3);\n    event VerifiedAddressUpdated(address addr, bytes32 oldhash, bytes32 hash, address sender);\n    event VerifiedAddressRemoved(address addr, address sender);\n    event VerifiedAddressAdded(address addr, bytes32 hash, address sender);\n\n    uint constant public parValue = 5 * 0.001 ether;\n    uint constant public totalValueMax = 100000 * parValue;\n    uint private totalValue = 0;\n\n    uint256 private contract_creation; // The contract creation time\n\n    bool private restricted = true;\n\n    constructor()\n    {\n        contract_creation = block.timestamp;\n        owner = msg.sender;\n        addMinter(owner);\n        _mint(owner, INITIAL_SUPPLY);\n    }\n\n    modifier onlyOwner() {\n        require(msg.sender == owner, \"access denied\");\n        _;\n    }\n\n    modifier isMinter() {\n      require(minters[msg.sender] == 1,\"not a minter\");\n      _;\n    }\n\n    modifier isActive() {\n        require(active, \"exempt offering is not active\");\n        _;\n    }\n\n    modifier isVerifiedAddress(address addr) {\n        require(verified[addr] != ZERO_BYTES, \"\");\n        _;\n    }\n\n    modifier isShareholder(address addr) {\n        require(holderIndices[addr] != 0, \"\");\n        _;\n    }\n\n    modifier isNotShareholder(address addr) {\n        require(holderIndices[addr] == 0, \"\");\n        _;\n    }\n\n    modifier isNotCancelled(address addr) {\n        require(cancellations[addr] == ZERO_ADDRESS, \"\");\n        _;\n    }\n\n    modifier isRestrictedSecurity() {\n      require(restricted != false, \"security is restricted\");\n      _;\n    }\n\n    function balanceOf(address addr)\n      public\n      view\n      returns (uint256)\n    {\n      return balances[addr];\n    }\n\n    function allowance(address _owner, address spender)\n      public\n      view\n      returns (uint256)\n    {\n        return _allowances[_owner][spender];\n    }\n\n    function addMinter(address addr)\n      public\n      onlyOwner\n    {\n      require(addr != ZERO_ADDRESS, \"missing minter address\");\n      minters[addr] = 1;\n      emit MinterAdded(addr);\n    }\n\n    function addTransferAgent(address addr)\n        public\n        onlyOwner\n    {\n        require(addr != ZERO_ADDRESS, \"missing transfer agent address\");\n        transferagents[addr] = true;\n        emit TransferAgentAdded(addr);\n    }\n\n    function removeTransferAgent(address addr)\n        public\n        onlyOwner\n    {\n        require(addr == ZERO_ADDRESS,\"missing transfer agent address\");\n        require(addr != owner,\"cannot remove the owner\");\n        transferagents[addr] = false;\n        emit TransferAgentRemoved(addr);\n    }\n\n    /**\n     * As each token is minted it is added to the shareholders array.\n     * @param _to The address that will receive the minted tokens.\n     * @param _amount The amount of tokens to mint.\n     * @return A boolean that indicates if the operation was successful.\n     */\n    function mint(address _to, uint256 _amount)\n        public\n        isActive\n        onlyOwner\n        isMinter\n        isVerifiedAddress(_to)\n        returns (bool)\n    {\n        // if the address does not already own share then\n        // add the address to the shareholders array and record the index.\n        updateShareholders(_to);\n        Transaction memory trans = Transaction(_to, _amount, block.timestamp);\n        transactions[_to].push(trans);\n        return mint(_to, _amount);\n    }\n\n    function toggleExemptOffering(uint256 timestamp, bool _active)\n        public\n        onlyOwner\n    {\n        start_timestamp = timestamp;\n        active = _active;\n\n        if (active) {\n            emit ExemptOffering(msg.sender, string(abi.encodePacked(name, \" has started\")), timestamp);\n        } else {\n            emit ExemptOffering(msg.sender, string(abi.encodePacked(name, \" has stopped\")), timestamp);\n        }\n    }\n\n    function getTransactions(address addr) public view onlyOwner returns (string memory) {\n        string memory output = \"\";\n        for (uint i = 0; i < transactions[addr].length; i++) {\n            output = string(\n                abi.encodePacked(output, \"[\", transactions[addr][i].addr, \",\", transactions[addr][i].amount, \",\",  transactions[addr][i].time, \"]\")\n            );\n        }\n        return output;\n    }\n\n    function getTransactionByIndex(address addr, uint index) public view onlyOwner returns (string memory) {\n        return string(abi.encodePacked(\n            \"[\", transactions[addr][index].addr, \",\", transactions[addr][index].amount, \",\", transactions[addr][index].time, \"]\"\n        ));\n    }\n\n    /**\n     *  The number of addresses that own tokens.\n     *  @return the number of unique addresses that own tokens.\n     */\n    function holderCount()\n        public\n        onlyOwner\n        view\n        returns (uint)\n    {\n        return shareholders.length;\n    }\n\n    /**\n     *  By counting the number of token holders using `holderCount`\n     *  you can retrieve the complete list of token holders, one at a time.\n     *  It MUST throw if `index >= holderCount()`.\n     *  @param index The zero-based index of the holder.\n     *  @return the address of the token holder with the given index.\n     */\n    function holderAt(uint256 index)\n        public\n        onlyOwner\n        view\n        returns (address)\n    {\n        require(index < shareholders.length, \"\");\n        return shareholders[index];\n    }\n\n    /**\n     *  Add a verified address, along with an associated verification hash to the contract.\n     *  Upon successful addition of a verified address, the contract must emit\n     *  `VerifiedAddressAdded(addr, hash, msg.sender)`.\n     *  It MUST throw if the supplied address or hash are zero, or if the address has already been supplied.\n     *  @param addr The address of the person represented by the supplied hash.\n     *  @param hash A cryptographic hash of the address holder's verified information.\n     */\n    function addVerified(address addr, bytes32 hash)\n        public\n        onlyOwner\n        isNotCancelled(addr)\n    {\n        require(addr != ZERO_ADDRESS, \"\");\n        require(hash != ZERO_BYTES, \"\");\n        require(verified[addr] == ZERO_BYTES, \"\");\n        verified[addr] = hash;\n        emit VerifiedAddressAdded(addr, hash, msg.sender);\n    }\n\n    /**\n     *  Remove a verified address, and the associated verification hash. If the address is\n     *  unknown to the contract then this does nothing. If the address is successfully removed, this\n     *  function must emit `VerifiedAddressRemoved(addr, msg.sender)`.\n     *  It MUST throw if an attempt is made to remove a verifiedAddress that owns Tokens.\n     *  @param addr The verified address to be removed.\n     */\n    function removeVerified(address addr)\n        public\n        onlyOwner\n    {\n        require(addr.balance == 0, \"account balance is not zero\");\n        if (verified[addr] != ZERO_BYTES) {\n            verified[addr] = ZERO_BYTES;\n            emit VerifiedAddressRemoved(addr, msg.sender);\n        }\n    }\n\n    /**\n     *  Update the hash for a verified address known to the contract.\n     *  Upon successful update of a verified address the contract must emit\n     *  `VerifiedAddressUpdated(addr, oldHash, hash, msg.sender)`.\n     *  If the hash is the same as the value already stored then\n     *  no `VerifiedAddressUpdated` event is to be emitted.\n     *  It MUST throw if the hash is zero, or if the address is unverified.\n     *  @param addr The verified address of the person represented by the supplied hash.\n     *  @param hash A new cryptographic hash of the address holder's updated verified information.\n     */\n    function updateVerified(address addr, bytes32 hash)\n        public\n        onlyOwner\n        isVerifiedAddress(addr)\n    {\n        require(hash != ZERO_BYTES, \"\");\n        bytes32 oldHash = verified[addr];\n        if (oldHash != hash) {\n            verified[addr] = hash;\n            emit VerifiedAddressUpdated(addr, oldHash, hash, msg.sender);\n        }\n    }\n\n    /**\n     *  Cancel the original address and reissue the Tokens to the replacement address.\n     *  Access to this function MUST be strictly controlled.\n     *  The `original` address MUST be removed from the set of verified addresses.\n     *  Throw if the `original` address supplied is not a shareholder.\n     *  Throw if the replacement address is not a verified address.\n     *  This function MUST emit the `VerifiedAddressSuperseded` event.\n     *  @param original The address to be superseded. This address MUST NOT be reused.\n     *  @param replacement The address  that supersedes the original. This address MUST be verified.\n     */\n    function cancelAndReissue(address original, address replacement)\n        public\n        isActive\n        onlyOwner\n        isShareholder(original)\n        isNotShareholder(replacement)\n        isVerifiedAddress(replacement)\n    {\n        // replace the original address in the shareholders array\n        // and update all the associated mappings\n        verified[original] = ZERO_BYTES;\n        cancellations[original] = replacement;\n        uint256 holderIndex = holderIndices[original] - 1;\n        shareholders[holderIndex] = replacement;\n        holderIndices[replacement] = holderIndices[original];\n        holderIndices[original] = 0;\n        balances[replacement] = balances[original];\n        balances[original] = 0;\n        emit VerifiedAddressSuperseded(original, replacement, msg.sender);\n    }\n\n    /**\n     *  The `transfer` function MUST NOT allow transfers to addresses that\n     *  have not been verified and added to the contract.\n     *  If the `to` address is not currently a shareholder then it MUST become one.\n     *  If the transfer will reduce `msg.sender`'s balance to 0 then that address\n     *  MUST be removed from the list of shareholders.\n     */\n    function transfer(address to, uint256 value)\n        public\n        isActive\n        isVerifiedAddress(to)\n        isRestrictedSecurity\n        returns (bool)\n    {\n        updateShareholders(to);\n        pruneShareholders(msg.sender, value);\n        Transaction memory trans = Transaction(to, value, block.timestamp);\n        transactions[to].push(trans);\n        trans = Transaction(msg.sender, negative * value, block.timestamp);\n        transactions[msg.sender].push(trans);\n        return transfer(to, value);\n    }\n\n    /**\n     *  The `transferFrom` function MUST NOT allow transfers to addresses that\n     *  have not been verified and added to the contract.\n     *  If the `to` address is not currently a shareholder then it MUST become one.\n     *  If the transfer will reduce `from`'s balance to 0 then that address\n     *  MUST be removed from the list of shareholders.\n     */\n    function transferFrom(address from, address to, uint256 value)\n        public\n        isActive\n        isVerifiedAddress(to)\n        isRestrictedSecurity\n        returns (bool)\n    {\n        updateShareholders(to);\n        pruneShareholders(from, value);\n        Transaction memory trans = Transaction(to, value, block.timestamp);\n        transactions[to].push(trans);\n        trans = Transaction(from, negative * value, block.timestamp);\n        transactions[from].push(trans);\n        return transferFrom(from, to, value);\n    }\n\n    /**\n     *  Tests that the supplied address is known to the contract.\n     *  @param addr The address to test.\n     *  @return true if the address is known to the contract.\n     */\n    function isVerified(address addr)\n        public\n        view\n        returns (bool)\n    {\n        return verified[addr] != ZERO_BYTES;\n    }\n\n    /**\n     *  Checks to see if the supplied address is a share holder.\n     *  @param addr The address to check.\n     *  @return true if the supplied address owns a token.\n     */\n    function isHolder(address addr)\n        public\n        view\n        returns (bool)\n    {\n        return holderIndices[addr] != 0;\n    }\n\n    /**\n     *  Checks that the supplied hash is associated with the given address.\n     *  @param addr The address to test.\n     *  @param hash The hash to test.\n     *  @return true if the hash matches the one supplied with the address in `addVerified`, or `updateVerified`.\n     */\n    function hasHash(address addr, bytes32 hash)\n        public\n        view\n        returns (bool)\n    {\n        if (addr == ZERO_ADDRESS) {\n            return false;\n        }\n        return verified[addr] == hash;\n    }\n\n    /**\n     *  Checks to see if the supplied address was superseded.\n     *  @param addr The address to check.\n     *  @return true if the supplied address was superseded by another address.\n     */\n    function isSuperseded(address addr)\n        public\n        view\n        onlyOwner\n        returns (bool)\n    {\n        return cancellations[addr] != ZERO_ADDRESS;\n    }\n\n    /**\n     *  Gets the most recent address, given a superseded one.\n     *  Addresses may be superseded multiple times, so this function needs to\n     *  follow the chain of addresses until it reaches the final, verified address.\n     *  @param addr The superseded address.\n     *  @return the verified address that ultimately holds the share.\n     */\n    function getCurrentFor(address addr)\n        public\n        view\n        onlyOwner\n        returns (address)\n    {\n        return findCurrentFor(addr);\n    }\n\n    /**\n     *  Recursively find the most recent address given a superseded one.\n     *  @param addr The superseded address.\n     *  @return the verified address that ultimately holds the share.\n     */\n    function findCurrentFor(address addr)\n        internal\n        view\n        returns (address)\n    {\n        address candidate = cancellations[addr];\n        if (candidate == ZERO_ADDRESS) {\n            return addr;\n        }\n        return findCurrentFor(candidate);\n    }\n\n    /**\n     *  If the address is not in the `shareholders` array then push it\n     *  and update the `holderIndices` mapping.\n     *  @param addr The address to add as a shareholder if it's not already.\n     */\n    function updateShareholders(address addr)\n        internal\n    {\n        if (holderIndices[addr] == 0) {\n          shareholders.push(addr);\n          holderIndices[addr] = 1;\n        }\n    }\n\n    /**\n     *  If the address is in the `shareholders` array and the forthcoming\n     *  transfer or transferFrom will reduce their balance to 0, then\n     *  we need to remove them from the shareholders array.\n     *  @param addr The address to prune if their balance will be reduced to 0.\n     @  @dev see https://ethereum.stackexchange.com/a/39311\n     */\n    function pruneShareholders(address addr, uint256 value)\n        internal\n    {\n        uint256 balance = addr.balance - value;\n        if (balance > 0) {\n            return;\n        }\n        uint256 holderIndex = holderIndices[addr] - 1;\n        uint256 lastIndex = shareholders.length - 1;\n        address lastHolder = shareholders[lastIndex];\n        // overwrite the addr's slot with the last shareholder\n        shareholders[holderIndex] = lastHolder;\n        // also copy over the index (thanks @mohoff for spotting this)\n        // ref https://github.com/davesag/ERC884-reference-implementation/issues/20\n        holderIndices[lastHolder] = holderIndices[addr];\n        // trim the shareholders array (which drops the last entry)\n        delete shareholders[shareholders.length - 1];\n        // and zero out the index for addr\n        holderIndices[addr] = 0;\n    }\n\n    function buy()\n        public\n        payable\n        isActive\n        isVerifiedAddress(msg.sender)\n    {\n        uint256 amountTobuy = msg.value;\n        uint256 dexBalance = balanceOf(address(this));\n        require(amountTobuy > 0, \"You need to send some ether\");\n        require(amountTobuy <= dexBalance, \"Not enough tokens in the reserve\");\n        Transaction memory trans = Transaction(msg.sender, amountTobuy, block.timestamp);\n        transactions[msg.sender].push(trans);\n        emit Bought(amountTobuy);\n        transfer(msg.sender, amountTobuy);\n    }\n\n    function sell(uint256 amount)\n        public\n        payable\n        isActive\n        isVerifiedAddress(msg.sender)\n    {\n        require(amount > 0, \"You need to sell at least some tokens\");\n        uint256 _allowance = allowance(msg.sender, address(this));\n        require(_allowance >= amount, \"Check the token allowance\");\n        Transaction memory trans = Transaction(msg.sender, amount, block.timestamp);\n        transactions[msg.sender].push(trans);\n        emit Sold(amount);\n        transferFrom(msg.sender, address(this), amount);\n    }\n\n    // Internal\n    function _mint(address addr, uint256 amount)\n      internal\n      returns (bool)\n    {\n      require(amount <= totalSupply, \"exceeds total supply\");\n      balances[addr] += amount;\n      emit Minted(addr, amount);\n      return true;\n    }\n\n    function _transfer(address addr, uint256 amount)\n      internal\n      returns (bool)\n    {\n      balances[addr] = amount;\n      emit Transfer(addr, amount);\n      return true;\n    }\n\n    function _transferFrom(address from,address to,uint256 value)\n      internal\n      returns (bool)\n    {\n      require(balances[from] > value, \"insufficient balance\");\n      balances[to] += value;\n      balances[from] -= value;\n      emit TransferFrom(from, to, value);\n      return true;\n    }\n}\n",
  "sourcePath": "G:\\projects\\pingleware-contracts\\contracts\\equity\\ExemptEquityOffering4A2.sol",
  "compiler": {
    "name": "solc",
    "version": "0.8.10+commit.fc410830.Emscripten.clang"
  },
  "schemaVersion": "3.4.3",
  "updatedAt": "2021-12-21T07:17:50.394Z",
  "devdoc": {
    "kind": "dev",
    "methods": {
      "addVerified(address,bytes32)": {
        "params": {
          "addr": "The address of the person represented by the supplied hash.",
          "hash": "A cryptographic hash of the address holder's verified information."
        }
      },
      "cancelAndReissue(address,address)": {
        "params": {
          "original": "The address to be superseded. This address MUST NOT be reused.",
          "replacement": "The address  that supersedes the original. This address MUST be verified."
        }
      },
      "getCurrentFor(address)": {
        "params": {
          "addr": "The superseded address."
        },
        "returns": {
          "_0": "the verified address that ultimately holds the share."
        }
      },
      "hasHash(address,bytes32)": {
        "params": {
          "addr": "The address to test.",
          "hash": "The hash to test."
        },
        "returns": {
          "_0": "true if the hash matches the one supplied with the address in `addVerified`, or `updateVerified`."
        }
      },
      "holderAt(uint256)": {
        "params": {
          "index": "The zero-based index of the holder."
        },
        "returns": {
          "_0": "the address of the token holder with the given index."
        }
      },
      "holderCount()": {
        "returns": {
          "_0": "the number of unique addresses that own tokens."
        }
      },
      "isHolder(address)": {
        "params": {
          "addr": "The address to check."
        },
        "returns": {
          "_0": "true if the supplied address owns a token."
        }
      },
      "isSuperseded(address)": {
        "params": {
          "addr": "The address to check."
        },
        "returns": {
          "_0": "true if the supplied address was superseded by another address."
        }
      },
      "isVerified(address)": {
        "params": {
          "addr": "The address to test."
        },
        "returns": {
          "_0": "true if the address is known to the contract."
        }
      },
      "mint(address,uint256)": {
        "params": {
          "_amount": "The amount of tokens to mint.",
          "_to": "The address that will receive the minted tokens."
        },
        "returns": {
          "_0": "A boolean that indicates if the operation was successful."
        }
      },
      "removeVerified(address)": {
        "params": {
          "addr": "The verified address to be removed."
        }
      },
      "updateVerified(address,bytes32)": {
        "params": {
          "addr": "The verified address of the person represented by the supplied hash.",
          "hash": "A new cryptographic hash of the address holder's updated verified information."
        }
      }
    },
    "version": 1
  },
  "userdoc": {
    "kind": "user",
    "methods": {
      "addVerified(address,bytes32)": {
        "notice": "Add a verified address, along with an associated verification hash to the contract.  Upon successful addition of a verified address, the contract must emit  `VerifiedAddressAdded(addr, hash, msg.sender)`.  It MUST throw if the supplied address or hash are zero, or if the address has already been supplied."
      },
      "cancelAndReissue(address,address)": {
        "notice": "Cancel the original address and reissue the Tokens to the replacement address.  Access to this function MUST be strictly controlled.  The `original` address MUST be removed from the set of verified addresses.  Throw if the `original` address supplied is not a shareholder.  Throw if the replacement address is not a verified address.  This function MUST emit the `VerifiedAddressSuperseded` event."
      },
      "getCurrentFor(address)": {
        "notice": "Gets the most recent address, given a superseded one.  Addresses may be superseded multiple times, so this function needs to  follow the chain of addresses until it reaches the final, verified address."
      },
      "hasHash(address,bytes32)": {
        "notice": "Checks that the supplied hash is associated with the given address."
      },
      "holderAt(uint256)": {
        "notice": "By counting the number of token holders using `holderCount`  you can retrieve the complete list of token holders, one at a time.  It MUST throw if `index >= holderCount()`."
      },
      "holderCount()": {
        "notice": "The number of addresses that own tokens."
      },
      "isHolder(address)": {
        "notice": "Checks to see if the supplied address is a share holder."
      },
      "isSuperseded(address)": {
        "notice": "Checks to see if the supplied address was superseded."
      },
      "isVerified(address)": {
        "notice": "Tests that the supplied address is known to the contract."
      },
      "mint(address,uint256)": {
        "notice": "As each token is minted it is added to the shareholders array."
      },
      "removeVerified(address)": {
        "notice": "Remove a verified address, and the associated verification hash. If the address is  unknown to the contract then this does nothing. If the address is successfully removed, this  function must emit `VerifiedAddressRemoved(addr, msg.sender)`.  It MUST throw if an attempt is made to remove a verifiedAddress that owns Tokens."
      },
      "transfer(address,uint256)": {
        "notice": "The `transfer` function MUST NOT allow transfers to addresses that  have not been verified and added to the contract.  If the `to` address is not currently a shareholder then it MUST become one.  If the transfer will reduce `msg.sender`'s balance to 0 then that address  MUST be removed from the list of shareholders."
      },
      "transferFrom(address,address,uint256)": {
        "notice": "The `transferFrom` function MUST NOT allow transfers to addresses that  have not been verified and added to the contract.  If the `to` address is not currently a shareholder then it MUST become one.  If the transfer will reduce `from`'s balance to 0 then that address  MUST be removed from the list of shareholders."
      },
      "updateVerified(address,bytes32)": {
        "notice": "Update the hash for a verified address known to the contract.  Upon successful update of a verified address the contract must emit  `VerifiedAddressUpdated(addr, oldHash, hash, msg.sender)`.  If the hash is the same as the value already stored then  no `VerifiedAddressUpdated` event is to be emitted.  It MUST throw if the hash is zero, or if the address is unverified."
      }
    },
    "notice": "Section 4(a)(2) --------------- See https://www.sec.gov/smallbusiness/exemptofferings/rule506b To qualify for this exemption, which is sometimes referred to as the private placement exemption, the purchasers of the securities must  - either have enough knowledge and experience in finance and business matters to be    sophisticated investors (able to evaluate the risks and merits of the investment),    or be able to bear the investments economic risk  - have access to the type of information normally provided in a prospectus for a    registered securities offering and  - agree not to resell or distribute the securities to the public In general, public advertising of the offering, and general solicitation of investors, is incompatible with the private placement exemption. The precise limits of the private placement exemption are not defined by rule. As the number of purchasers increases and their relationship to the company and its management becomes more remote, it is more difficult to show that the offering qualifies for this exemption. If your company offers securities to even one person who does not meet the necessary conditions, the entire offering may be in violation of the Securities Act.",
    "version": 1
  }
}