{
  "contractName": "ExemptEquityOffering506C",
  "abi": [
    {
      "inputs": [],
      "stateMutability": "nonpayable",
      "type": "constructor"
    },
    {
      "anonymous": false,
      "inputs": [
        {
          "indexed": false,
          "internalType": "uint256",
          "name": "value",
          "type": "uint256"
        }
      ],
      "name": "Bought",
      "type": "event"
    },
    {
      "anonymous": false,
      "inputs": [
        {
          "indexed": true,
          "internalType": "address",
          "name": "from",
          "type": "address"
        },
        {
          "indexed": false,
          "internalType": "string",
          "name": "status",
          "type": "string"
        },
        {
          "indexed": false,
          "internalType": "uint256",
          "name": "value",
          "type": "uint256"
        }
      ],
      "name": "ExemptOffering",
      "type": "event"
    },
    {
      "anonymous": false,
      "inputs": [
        {
          "indexed": false,
          "internalType": "address",
          "name": "addr",
          "type": "address"
        },
        {
          "indexed": false,
          "internalType": "uint256",
          "name": "amount",
          "type": "uint256"
        }
      ],
      "name": "Minted",
      "type": "event"
    },
    {
      "anonymous": false,
      "inputs": [
        {
          "indexed": false,
          "internalType": "address",
          "name": "addr",
          "type": "address"
        }
      ],
      "name": "MinterAdded",
      "type": "event"
    },
    {
      "anonymous": false,
      "inputs": [
        {
          "indexed": false,
          "internalType": "uint256",
          "name": "value",
          "type": "uint256"
        }
      ],
      "name": "Sold",
      "type": "event"
    },
    {
      "anonymous": false,
      "inputs": [
        {
          "indexed": false,
          "internalType": "address",
          "name": "addr",
          "type": "address"
        },
        {
          "indexed": false,
          "internalType": "uint256",
          "name": "amount",
          "type": "uint256"
        }
      ],
      "name": "Transfer",
      "type": "event"
    },
    {
      "anonymous": false,
      "inputs": [
        {
          "indexed": false,
          "internalType": "address",
          "name": "addr",
          "type": "address"
        }
      ],
      "name": "TransferAgentAdded",
      "type": "event"
    },
    {
      "anonymous": false,
      "inputs": [
        {
          "indexed": false,
          "internalType": "address",
          "name": "addr",
          "type": "address"
        }
      ],
      "name": "TransferAgentRemoved",
      "type": "event"
    },
    {
      "anonymous": false,
      "inputs": [
        {
          "indexed": false,
          "internalType": "address",
          "name": "from",
          "type": "address"
        },
        {
          "indexed": false,
          "internalType": "address",
          "name": "to",
          "type": "address"
        },
        {
          "indexed": false,
          "internalType": "uint256",
          "name": "value",
          "type": "uint256"
        }
      ],
      "name": "TransferFrom",
      "type": "event"
    },
    {
      "anonymous": false,
      "inputs": [
        {
          "indexed": false,
          "internalType": "address",
          "name": "addr",
          "type": "address"
        },
        {
          "indexed": false,
          "internalType": "bytes32",
          "name": "hash",
          "type": "bytes32"
        },
        {
          "indexed": false,
          "internalType": "address",
          "name": "sender",
          "type": "address"
        }
      ],
      "name": "VerifiedAddressAdded",
      "type": "event"
    },
    {
      "anonymous": false,
      "inputs": [
        {
          "indexed": false,
          "internalType": "address",
          "name": "addr",
          "type": "address"
        },
        {
          "indexed": false,
          "internalType": "address",
          "name": "sender",
          "type": "address"
        }
      ],
      "name": "VerifiedAddressRemoved",
      "type": "event"
    },
    {
      "anonymous": false,
      "inputs": [
        {
          "indexed": false,
          "internalType": "address",
          "name": "addr1",
          "type": "address"
        },
        {
          "indexed": false,
          "internalType": "address",
          "name": "addr2",
          "type": "address"
        },
        {
          "indexed": false,
          "internalType": "address",
          "name": "addr3",
          "type": "address"
        }
      ],
      "name": "VerifiedAddressSuperseded",
      "type": "event"
    },
    {
      "anonymous": false,
      "inputs": [
        {
          "indexed": false,
          "internalType": "address",
          "name": "addr",
          "type": "address"
        },
        {
          "indexed": false,
          "internalType": "bytes32",
          "name": "oldhash",
          "type": "bytes32"
        },
        {
          "indexed": false,
          "internalType": "bytes32",
          "name": "hash",
          "type": "bytes32"
        },
        {
          "indexed": false,
          "internalType": "address",
          "name": "sender",
          "type": "address"
        }
      ],
      "name": "VerifiedAddressUpdated",
      "type": "event"
    },
    {
      "inputs": [],
      "name": "INITIAL_SUPPLY",
      "outputs": [
        {
          "internalType": "uint256",
          "name": "",
          "type": "uint256"
        }
      ],
      "stateMutability": "view",
      "type": "function"
    },
    {
      "inputs": [
        {
          "internalType": "address",
          "name": "",
          "type": "address"
        }
      ],
      "name": "balances",
      "outputs": [
        {
          "internalType": "uint256",
          "name": "",
          "type": "uint256"
        }
      ],
      "stateMutability": "view",
      "type": "function"
    },
    {
      "inputs": [],
      "name": "decimals",
      "outputs": [
        {
          "internalType": "uint8",
          "name": "",
          "type": "uint8"
        }
      ],
      "stateMutability": "view",
      "type": "function"
    },
    {
      "inputs": [],
      "name": "name",
      "outputs": [
        {
          "internalType": "string",
          "name": "",
          "type": "string"
        }
      ],
      "stateMutability": "view",
      "type": "function"
    },
    {
      "inputs": [],
      "name": "negative",
      "outputs": [
        {
          "internalType": "uint256",
          "name": "",
          "type": "uint256"
        }
      ],
      "stateMutability": "view",
      "type": "function"
    },
    {
      "inputs": [],
      "name": "symbol",
      "outputs": [
        {
          "internalType": "string",
          "name": "",
          "type": "string"
        }
      ],
      "stateMutability": "view",
      "type": "function"
    },
    {
      "inputs": [],
      "name": "totalSupply",
      "outputs": [
        {
          "internalType": "uint256",
          "name": "",
          "type": "uint256"
        }
      ],
      "stateMutability": "view",
      "type": "function"
    },
    {
      "inputs": [
        {
          "internalType": "address",
          "name": "",
          "type": "address"
        },
        {
          "internalType": "uint256",
          "name": "",
          "type": "uint256"
        }
      ],
      "name": "transactions",
      "outputs": [
        {
          "internalType": "address",
          "name": "addr",
          "type": "address"
        },
        {
          "internalType": "uint256",
          "name": "amount",
          "type": "uint256"
        },
        {
          "internalType": "uint256",
          "name": "time",
          "type": "uint256"
        }
      ],
      "stateMutability": "view",
      "type": "function"
    },
    {
      "inputs": [
        {
          "internalType": "address",
          "name": "addr",
          "type": "address"
        }
      ],
      "name": "balanceOf",
      "outputs": [
        {
          "internalType": "uint256",
          "name": "",
          "type": "uint256"
        }
      ],
      "stateMutability": "view",
      "type": "function"
    },
    {
      "inputs": [
        {
          "internalType": "address",
          "name": "_owner",
          "type": "address"
        },
        {
          "internalType": "address",
          "name": "spender",
          "type": "address"
        }
      ],
      "name": "allowance",
      "outputs": [
        {
          "internalType": "uint256",
          "name": "",
          "type": "uint256"
        }
      ],
      "stateMutability": "view",
      "type": "function"
    },
    {
      "inputs": [
        {
          "internalType": "address",
          "name": "addr",
          "type": "address"
        }
      ],
      "name": "addMinter",
      "outputs": [],
      "stateMutability": "nonpayable",
      "type": "function"
    },
    {
      "inputs": [
        {
          "internalType": "address",
          "name": "addr",
          "type": "address"
        }
      ],
      "name": "addTransferAgent",
      "outputs": [],
      "stateMutability": "nonpayable",
      "type": "function"
    },
    {
      "inputs": [
        {
          "internalType": "address",
          "name": "addr",
          "type": "address"
        }
      ],
      "name": "removeTransferAgent",
      "outputs": [],
      "stateMutability": "nonpayable",
      "type": "function"
    },
    {
      "inputs": [
        {
          "internalType": "address",
          "name": "_to",
          "type": "address"
        },
        {
          "internalType": "uint256",
          "name": "_amount",
          "type": "uint256"
        }
      ],
      "name": "mint",
      "outputs": [
        {
          "internalType": "bool",
          "name": "",
          "type": "bool"
        }
      ],
      "stateMutability": "nonpayable",
      "type": "function"
    },
    {
      "inputs": [
        {
          "internalType": "uint256",
          "name": "timestamp",
          "type": "uint256"
        },
        {
          "internalType": "bool",
          "name": "_active",
          "type": "bool"
        }
      ],
      "name": "toggleExemptOffering",
      "outputs": [],
      "stateMutability": "nonpayable",
      "type": "function"
    },
    {
      "inputs": [
        {
          "internalType": "address",
          "name": "addr",
          "type": "address"
        }
      ],
      "name": "getTransactions",
      "outputs": [
        {
          "internalType": "string",
          "name": "",
          "type": "string"
        }
      ],
      "stateMutability": "view",
      "type": "function"
    },
    {
      "inputs": [
        {
          "internalType": "address",
          "name": "addr",
          "type": "address"
        },
        {
          "internalType": "uint256",
          "name": "index",
          "type": "uint256"
        }
      ],
      "name": "getTransactionByIndex",
      "outputs": [
        {
          "internalType": "string",
          "name": "",
          "type": "string"
        }
      ],
      "stateMutability": "view",
      "type": "function"
    },
    {
      "inputs": [],
      "name": "holderCount",
      "outputs": [
        {
          "internalType": "uint256",
          "name": "",
          "type": "uint256"
        }
      ],
      "stateMutability": "view",
      "type": "function"
    },
    {
      "inputs": [
        {
          "internalType": "uint256",
          "name": "index",
          "type": "uint256"
        }
      ],
      "name": "holderAt",
      "outputs": [
        {
          "internalType": "address",
          "name": "",
          "type": "address"
        }
      ],
      "stateMutability": "view",
      "type": "function"
    },
    {
      "inputs": [
        {
          "internalType": "address",
          "name": "addr",
          "type": "address"
        },
        {
          "internalType": "bytes32",
          "name": "hash",
          "type": "bytes32"
        }
      ],
      "name": "addVerified",
      "outputs": [],
      "stateMutability": "nonpayable",
      "type": "function"
    },
    {
      "inputs": [
        {
          "internalType": "address",
          "name": "addr",
          "type": "address"
        }
      ],
      "name": "removeVerified",
      "outputs": [],
      "stateMutability": "nonpayable",
      "type": "function"
    },
    {
      "inputs": [
        {
          "internalType": "address",
          "name": "addr",
          "type": "address"
        },
        {
          "internalType": "bytes32",
          "name": "hash",
          "type": "bytes32"
        }
      ],
      "name": "updateVerified",
      "outputs": [],
      "stateMutability": "nonpayable",
      "type": "function"
    },
    {
      "inputs": [
        {
          "internalType": "address",
          "name": "original",
          "type": "address"
        },
        {
          "internalType": "address",
          "name": "replacement",
          "type": "address"
        }
      ],
      "name": "cancelAndReissue",
      "outputs": [],
      "stateMutability": "nonpayable",
      "type": "function"
    },
    {
      "inputs": [
        {
          "internalType": "address",
          "name": "to",
          "type": "address"
        },
        {
          "internalType": "uint256",
          "name": "value",
          "type": "uint256"
        }
      ],
      "name": "transfer",
      "outputs": [
        {
          "internalType": "bool",
          "name": "",
          "type": "bool"
        }
      ],
      "stateMutability": "nonpayable",
      "type": "function"
    },
    {
      "inputs": [
        {
          "internalType": "address",
          "name": "from",
          "type": "address"
        },
        {
          "internalType": "address",
          "name": "to",
          "type": "address"
        },
        {
          "internalType": "uint256",
          "name": "value",
          "type": "uint256"
        }
      ],
      "name": "transferFrom",
      "outputs": [
        {
          "internalType": "bool",
          "name": "",
          "type": "bool"
        }
      ],
      "stateMutability": "nonpayable",
      "type": "function"
    },
    {
      "inputs": [
        {
          "internalType": "address",
          "name": "addr",
          "type": "address"
        }
      ],
      "name": "isVerified",
      "outputs": [
        {
          "internalType": "bool",
          "name": "",
          "type": "bool"
        }
      ],
      "stateMutability": "view",
      "type": "function"
    },
    {
      "inputs": [
        {
          "internalType": "address",
          "name": "addr",
          "type": "address"
        }
      ],
      "name": "isHolder",
      "outputs": [
        {
          "internalType": "bool",
          "name": "",
          "type": "bool"
        }
      ],
      "stateMutability": "view",
      "type": "function"
    },
    {
      "inputs": [
        {
          "internalType": "address",
          "name": "addr",
          "type": "address"
        },
        {
          "internalType": "bytes32",
          "name": "hash",
          "type": "bytes32"
        }
      ],
      "name": "hasHash",
      "outputs": [
        {
          "internalType": "bool",
          "name": "",
          "type": "bool"
        }
      ],
      "stateMutability": "view",
      "type": "function"
    },
    {
      "inputs": [
        {
          "internalType": "address",
          "name": "addr",
          "type": "address"
        }
      ],
      "name": "isSuperseded",
      "outputs": [
        {
          "internalType": "bool",
          "name": "",
          "type": "bool"
        }
      ],
      "stateMutability": "view",
      "type": "function"
    },
    {
      "inputs": [
        {
          "internalType": "address",
          "name": "addr",
          "type": "address"
        }
      ],
      "name": "getCurrentFor",
      "outputs": [
        {
          "internalType": "address",
          "name": "",
          "type": "address"
        }
      ],
      "stateMutability": "view",
      "type": "function"
    },
    {
      "inputs": [],
      "name": "buy",
      "outputs": [],
      "stateMutability": "payable",
      "type": "function"
    },
    {
      "inputs": [
        {
          "internalType": "address payable",
          "name": "sender",
          "type": "address"
        },
        {
          "internalType": "uint256",
          "name": "amount",
          "type": "uint256"
        }
      ],
      "name": "sell",
      "outputs": [],
      "stateMutability": "payable",
      "type": "function"
    }
  ],
  "bytecode": "0x6080604052600080556000600b60006101000a81548160ff0219169083151502179055506301dfe200600d553480156200003857600080fd5b5033600960006101000a81548173ffffffffffffffffffffffffffffffffffffffff021916908373ffffffffffffffffffffffffffffffffffffffff160217905550600160056000600960009054906101000a900473ffffffffffffffffffffffffffffffffffffffff1673ffffffffffffffffffffffffffffffffffffffff1673ffffffffffffffffffffffffffffffffffffffff16815260200190815260200160002060006101000a81548160ff02191690831515021790555062000127600960009054906101000a900473ffffffffffffffffffffffffffffffffffffffff166200016c60201b60201c565b62000165600960009054906101000a900473ffffffffffffffffffffffffffffffffffffffff1669152d02c7e14af6800000620002f360201b60201c565b5062000676565b600960009054906101000a900473ffffffffffffffffffffffffffffffffffffffff1673ffffffffffffffffffffffffffffffffffffffff163373ffffffffffffffffffffffffffffffffffffffff1614620001ff576040517f08c379a0000000000000000000000000000000000000000000000000000000008152600401620001f6906200043a565b60405180910390fd5b600073ffffffffffffffffffffffffffffffffffffffff168173ffffffffffffffffffffffffffffffffffffffff16141562000272576040517f08c379a00000000000000000000000000000000000000000000000000000000081526004016200026990620004ac565b60405180910390fd5b6001600660008373ffffffffffffffffffffffffffffffffffffffff1673ffffffffffffffffffffffffffffffffffffffff168152602001908152602001600020819055507f6ae172837ea30b801fbfcdd4108aa1d5bf8ff775444fd70256b44e6bf3dfc3f681604051620002e8919062000513565b60405180910390a150565b600080548211156200033c576040517f08c379a0000000000000000000000000000000000000000000000000000000008152600401620003339062000580565b60405180910390fd5b81600460008573ffffffffffffffffffffffffffffffffffffffff1673ffffffffffffffffffffffffffffffffffffffff16815260200190815260200160002060008282546200038d9190620005db565b925050819055507f30385c845b448a36257a6a1716e6ad2e1bc2cbe333cde1e69fe849ad6511adfe8383604051620003c792919062000649565b60405180910390a16001905092915050565b600082825260208201905092915050565b7f6163636573732064656e69656400000000000000000000000000000000000000600082015250565b600062000422600d83620003d9565b91506200042f82620003ea565b602082019050919050565b60006020820190508181036000830152620004558162000413565b9050919050565b7f6d697373696e67206d696e746572206164647265737300000000000000000000600082015250565b600062000494601683620003d9565b9150620004a1826200045c565b602082019050919050565b60006020820190508181036000830152620004c78162000485565b9050919050565b600073ffffffffffffffffffffffffffffffffffffffff82169050919050565b6000620004fb82620004ce565b9050919050565b6200050d81620004ee565b82525050565b60006020820190506200052a600083018462000502565b92915050565b7f6578636565647320746f74616c20737570706c79000000000000000000000000600082015250565b600062000568601483620003d9565b9150620005758262000530565b602082019050919050565b600060208201905081810360008301526200059b8162000559565b9050919050565b6000819050919050565b7f4e487b7100000000000000000000000000000000000000000000000000000000600052601160045260246000fd5b6000620005e882620005a2565b9150620005f583620005a2565b9250827fffffffffffffffffffffffffffffffffffffffffffffffffffffffffffffffff038211156200062d576200062c620005ac565b5b828201905092915050565b6200064381620005a2565b82525050565b600060408201905062000660600083018562000502565b6200066f602083018462000638565b9392505050565b61536180620006866000396000f3fe6080604052600436106101e35760003560e01c80634487b39211610102578063a6f2ae3a11610095578063cc397ed311610064578063cc397ed314610724578063d4d7b19a14610761578063dd62ed3e1461079e578063f3221c7f146107db576101e3565b8063a6f2ae3a14610677578063a9059cbb14610681578063b0314599146106be578063b9209e33146106e7576101e3565b806370a08231116100d157806370a08231146105bd57806379f64720146105fa57806395d89b4114610623578063983b2d561461064e576101e3565b80634487b3921461052657806347089f621461054f578063610db94e146105785780636c197ff5146105a1576101e3565b806323b872dd1161017a5780632ff2e9dc116101495780632ff2e9dc1461046a578063313ce56714610495578063354b7b1d146104c057806340c10f19146104e9576101e3565b806323b872dd1461037657806327e235e3146103b35780632ab2efc8146103f05780632da7293e1461042d576101e3565b8063197bc336116101b6578063197bc336146102ba5780631aab9a9f146102f75780631cb3ef1f146103225780631fb716e41461034d576101e3565b806306fdde03146101e85780630f8cda2014610213578063145381281461025057806318160ddd1461028f575b600080fd5b3480156101f457600080fd5b506101fd610818565b60405161020a919061424d565b60405180910390f35b34801561021f57600080fd5b5061023a600480360381019061023591906142d2565b610851565b604051610247919061424d565b60405180910390f35b34801561025c57600080fd5b5061027760048036038101906102729190614335565b610ad2565b60405161028693929190614393565b60405180910390f35b34801561029b57600080fd5b506102a4610b39565b6040516102b191906143ca565b60405180910390f35b3480156102c657600080fd5b506102e160048036038101906102dc91906143e5565b610b3f565b6040516102ee9190614412565b60405180910390f35b34801561030357600080fd5b5061030c610c61565b60405161031991906143ca565b60405180910390f35b34801561032e57600080fd5b50610337610d01565b60405161034491906143ca565b60405180910390f35b34801561035957600080fd5b50610374600480360381019061036f9190614465565b610d25565b005b34801561038257600080fd5b5061039d600480360381019061039891906144a5565b610f3d565b6040516103aa9190614507565b60405180910390f35b3480156103bf57600080fd5b506103da60048036038101906103d591906142d2565b6113df565b6040516103e791906143ca565b60405180910390f35b3480156103fc57600080fd5b5061041760048036038101906104129190614335565b6113f7565b604051610424919061424d565b60405180910390f35b34801561043957600080fd5b50610454600480360381019061044f91906142d2565b6115fe565b6040516104619190614507565b60405180910390f35b34801561047657600080fd5b5061047f61172a565b60405161048c91906143ca565b60405180910390f35b3480156104a157600080fd5b506104aa611738565b6040516104b7919061453e565b60405180910390f35b3480156104cc57600080fd5b506104e760048036038101906104e2919061458f565b61173d565b005b3480156104f557600080fd5b50610510600480360381019061050b9190614335565b61196f565b60405161051d9190614507565b60405180910390f35b34801561053257600080fd5b5061054d600480360381019061054891906142d2565b611c73565b005b34801561055b57600080fd5b506105766004803603810190610571919061458f565b611e2d565b005b34801561058457600080fd5b5061059f600480360381019061059a91906142d2565b61214d565b005b6105bb60048036038101906105b6919061460d565b61236f565b005b3480156105c957600080fd5b506105e460048036038101906105df91906142d2565b6127e7565b6040516105f191906143ca565b60405180910390f35b34801561060657600080fd5b50610621600480360381019061061c919061464d565b612830565b005b34801561062f57600080fd5b50610638612de4565b604051610645919061424d565b60405180910390f35b34801561065a57600080fd5b50610675600480360381019061067091906142d2565b612e1d565b005b61067f612f9c565b005b34801561068d57600080fd5b506106a860048036038101906106a39190614335565b61324c565b6040516106b59190614507565b60405180910390f35b3480156106ca57600080fd5b506106e560048036038101906106e091906142d2565b6136ec565b005b3480156106f357600080fd5b5061070e600480360381019061070991906142d2565b61387e565b60405161071b9190614507565b60405180910390f35b34801561073057600080fd5b5061074b600480360381019061074691906142d2565b6138cd565b6040516107589190614412565b60405180910390f35b34801561076d57600080fd5b50610788600480360381019061078391906142d2565b613972565b6040516107959190614507565b60405180910390f35b3480156107aa57600080fd5b506107c560048036038101906107c0919061464d565b6139be565b6040516107d291906143ca565b60405180910390f35b3480156107e757600080fd5b5061080260048036038101906107fd919061458f565b613a45565b60405161080f9190614507565b60405180910390f35b6040518060400160405280601181526020017f52756c652035303628632920546f6b656e00000000000000000000000000000081525081565b606060011515600560003373ffffffffffffffffffffffffffffffffffffffff1673ffffffffffffffffffffffffffffffffffffffff16815260200190815260200160002060009054906101000a900460ff161515146108e6576040517f08c379a00000000000000000000000000000000000000000000000000000000081526004016108dd906146d9565b60405180910390fd5b600060405180602001604052806000815250905060005b600860008573ffffffffffffffffffffffffffffffffffffffff1673ffffffffffffffffffffffffffffffffffffffff16815260200190815260200160002080549050811015610ac85781600860008673ffffffffffffffffffffffffffffffffffffffff1673ffffffffffffffffffffffffffffffffffffffff1681526020019081526020016000208281548110610999576109986146f9565b5b906000526020600020906003020160000160009054906101000a900473ffffffffffffffffffffffffffffffffffffffff16600860008773ffffffffffffffffffffffffffffffffffffffff1673ffffffffffffffffffffffffffffffffffffffff1681526020019081526020016000208381548110610a1c57610a1b6146f9565b5b906000526020600020906003020160010154600860008873ffffffffffffffffffffffffffffffffffffffff1673ffffffffffffffffffffffffffffffffffffffff1681526020019081526020016000208481548110610a7f57610a7e6146f9565b5b906000526020600020906003020160020154604051602001610aa494939291906148b1565b60405160208183030381529060405291508080610ac090614956565b9150506108fd565b5080915050919050565b60086020528160005260406000208181548110610aee57600080fd5b9060005260206000209060030201600091509150508060000160009054906101000a900473ffffffffffffffffffffffffffffffffffffffff16908060010154908060020154905083565b60005481565b600060011515600560003373ffffffffffffffffffffffffffffffffffffffff1673ffffffffffffffffffffffffffffffffffffffff16815260200190815260200160002060009054906101000a900460ff16151514610bd4576040517f08c379a0000000000000000000000000000000000000000000000000000000008152600401610bcb906146d9565b60405180910390fd5b600a805490508210610c1b576040517f08c379a0000000000000000000000000000000000000000000000000000000008152600401610c12906149c5565b60405180910390fd5b600a8281548110610c2f57610c2e6146f9565b5b9060005260206000200160009054906101000a900473ffffffffffffffffffffffffffffffffffffffff169050919050565b600060011515600560003373ffffffffffffffffffffffffffffffffffffffff1673ffffffffffffffffffffffffffffffffffffffff16815260200190815260200160002060009054906101000a900460ff16151514610cf6576040517f08c379a0000000000000000000000000000000000000000000000000000000008152600401610ced906146d9565b60405180910390fd5b600a80549050905090565b7fffffffffffffffffffffffffffffffffffffffffffffffffffffffffffffffff81565b600960009054906101000a900473ffffffffffffffffffffffffffffffffffffffff1673ffffffffffffffffffffffffffffffffffffffff163373ffffffffffffffffffffffffffffffffffffffff1614610db5576040517f08c379a0000000000000000000000000000000000000000000000000000000008152600401610dac906146d9565b60405180910390fd5b81600c8190555080600b60006101000a81548160ff021916908315150217905550600b60009054906101000a900460ff1615610e94573373ffffffffffffffffffffffffffffffffffffffff167fb9c39a906441691d138569e18a2c9766e29c5def7618306a8f07d7dc1f34627b6040518060400160405280601181526020017f52756c652035303628632920546f6b656e000000000000000000000000000000815250604051602001610e699190614a31565b60405160208183030381529060405284604051610e87929190614a53565b60405180910390a2610f39565b3373ffffffffffffffffffffffffffffffffffffffff167fb9c39a906441691d138569e18a2c9766e29c5def7618306a8f07d7dc1f34627b6040518060400160405280601181526020017f52756c652035303628632920546f6b656e000000000000000000000000000000815250604051602001610f129190614acf565b60405160208183030381529060405284604051610f30929190614a53565b60405180910390a25b5050565b6000600b60009054906101000a900460ff16610f8e576040517f08c379a0000000000000000000000000000000000000000000000000000000008152600401610f8590614b3d565b60405180910390fd5b826000801b600160008373ffffffffffffffffffffffffffffffffffffffff1673ffffffffffffffffffffffffffffffffffffffff168152602001908152602001600020541415611014576040517f08c379a000000000000000000000000000000000000000000000000000000000815260040161100b906149c5565b60405180910390fd5b846000805b600860008473ffffffffffffffffffffffffffffffffffffffff1673ffffffffffffffffffffffffffffffffffffffff1681526020019081526020016000208054905081101561115457600d54600860008573ffffffffffffffffffffffffffffffffffffffff1673ffffffffffffffffffffffffffffffffffffffff16815260200190815260200160002082815481106110b7576110b66146f9565b5b9060005260206000209060030201600201546110d39190614b5d565b600860008573ffffffffffffffffffffffffffffffffffffffff1673ffffffffffffffffffffffffffffffffffffffff1681526020019081526020016000208281548110611124576111236146f9565b5b906000526020600020906003020160020154111561114157600191505b808061114c90614956565b915050611019565b5080611195576040517f08c379a000000000000000000000000000000000000000000000000000000000815260040161118c90614bff565b60405180910390fd5b61119e86613acf565b6111a88786613bc3565b600060405180606001604052808873ffffffffffffffffffffffffffffffffffffffff168152602001878152602001428152509050600860008873ffffffffffffffffffffffffffffffffffffffff1673ffffffffffffffffffffffffffffffffffffffff16815260200190815260200160002081908060018154018082558091505060019003906000526020600020906003020160009091909190915060008201518160000160006101000a81548173ffffffffffffffffffffffffffffffffffffffff021916908373ffffffffffffffffffffffffffffffffffffffff1602179055506020820151816001015560408201518160020155505060405180606001604052808973ffffffffffffffffffffffffffffffffffffffff168152602001877fffffffffffffffffffffffffffffffffffffffffffffffffffffffffffffffff6112f69190614c1f565b8152602001428152509050600860008973ffffffffffffffffffffffffffffffffffffffff1673ffffffffffffffffffffffffffffffffffffffff16815260200190815260200160002081908060018154018082558091505060019003906000526020600020906003020160009091909190915060008201518160000160006101000a81548173ffffffffffffffffffffffffffffffffffffffff021916908373ffffffffffffffffffffffffffffffffffffffff160217905550602082015181600101556040820151816002015550506113d2888888613e22565b9450505050509392505050565b60046020528060005260406000206000915090505481565b606060011515600560003373ffffffffffffffffffffffffffffffffffffffff1673ffffffffffffffffffffffffffffffffffffffff16815260200190815260200160002060009054906101000a900460ff1615151461148c576040517f08c379a0000000000000000000000000000000000000000000000000000000008152600401611483906146d9565b60405180910390fd5b600860008473ffffffffffffffffffffffffffffffffffffffff1673ffffffffffffffffffffffffffffffffffffffff16815260200190815260200160002082815481106114dd576114dc6146f9565b5b906000526020600020906003020160000160009054906101000a900473ffffffffffffffffffffffffffffffffffffffff16600860008573ffffffffffffffffffffffffffffffffffffffff1673ffffffffffffffffffffffffffffffffffffffff16815260200190815260200160002083815481106115605761155f6146f9565b5b906000526020600020906003020160010154600860008673ffffffffffffffffffffffffffffffffffffffff1673ffffffffffffffffffffffffffffffffffffffff16815260200190815260200160002084815481106115c3576115c26146f9565b5b9060005260206000209060030201600201546040516020016115e793929190614c79565b604051602081830303815290604052905092915050565b600060011515600560003373ffffffffffffffffffffffffffffffffffffffff1673ffffffffffffffffffffffffffffffffffffffff16815260200190815260200160002060009054906101000a900460ff16151514611693576040517f08c379a000000000000000000000000000000000000000000000000000000000815260040161168a906146d9565b60405180910390fd5b600073ffffffffffffffffffffffffffffffffffffffff16600260008473ffffffffffffffffffffffffffffffffffffffff1673ffffffffffffffffffffffffffffffffffffffff16815260200190815260200160002060009054906101000a900473ffffffffffffffffffffffffffffffffffffffff1673ffffffffffffffffffffffffffffffffffffffff1614159050919050565b69152d02c7e14af680000081565b600081565b60011515600560003373ffffffffffffffffffffffffffffffffffffffff1673ffffffffffffffffffffffffffffffffffffffff16815260200190815260200160002060009054906101000a900460ff161515146117d0576040517f08c379a00000000000000000000000000000000000000000000000000000000081526004016117c7906146d9565b60405180910390fd5b816000801b600160008373ffffffffffffffffffffffffffffffffffffffff1673ffffffffffffffffffffffffffffffffffffffff168152602001908152602001600020541415611856576040517f08c379a000000000000000000000000000000000000000000000000000000000815260040161184d906149c5565b60405180910390fd5b6000801b82141561189c576040517f08c379a0000000000000000000000000000000000000000000000000000000008152600401611893906149c5565b60405180910390fd5b6000600160008573ffffffffffffffffffffffffffffffffffffffff1673ffffffffffffffffffffffffffffffffffffffff1681526020019081526020016000205490508281146119695782600160008673ffffffffffffffffffffffffffffffffffffffff1673ffffffffffffffffffffffffffffffffffffffff168152602001908152602001600020819055507f63ec12603f028c6f74dc3c59a67d645d431250142b56676015d25475ee3fc3d3848285336040516119609493929190614cf1565b60405180910390a15b50505050565b6000600b60009054906101000a900460ff166119c0576040517f08c379a00000000000000000000000000000000000000000000000000000000081526004016119b790614b3d565b60405180910390fd5b60011515600560003373ffffffffffffffffffffffffffffffffffffffff1673ffffffffffffffffffffffffffffffffffffffff16815260200190815260200160002060009054906101000a900460ff16151514611a53576040517f08c379a0000000000000000000000000000000000000000000000000000000008152600401611a4a906146d9565b60405180910390fd5b6001600660003373ffffffffffffffffffffffffffffffffffffffff1673ffffffffffffffffffffffffffffffffffffffff1681526020019081526020016000205414611ad5576040517f08c379a0000000000000000000000000000000000000000000000000000000008152600401611acc90614d82565b60405180910390fd5b826000801b600160008373ffffffffffffffffffffffffffffffffffffffff1673ffffffffffffffffffffffffffffffffffffffff168152602001908152602001600020541415611b5b576040517f08c379a0000000000000000000000000000000000000000000000000000000008152600401611b52906149c5565b60405180910390fd5b611b6484613acf565b600060405180606001604052808673ffffffffffffffffffffffffffffffffffffffff168152602001858152602001428152509050600860008673ffffffffffffffffffffffffffffffffffffffff1673ffffffffffffffffffffffffffffffffffffffff16815260200190815260200160002081908060018154018082558091505060019003906000526020600020906003020160009091909190915060008201518160000160006101000a81548173ffffffffffffffffffffffffffffffffffffffff021916908373ffffffffffffffffffffffffffffffffffffffff16021790555060208201518160010155604082015181600201555050611c698585613f97565b9250505092915050565b60011515600560003373ffffffffffffffffffffffffffffffffffffffff1673ffffffffffffffffffffffffffffffffffffffff16815260200190815260200160002060009054906101000a900460ff16151514611d06576040517f08c379a0000000000000000000000000000000000000000000000000000000008152600401611cfd906146d9565b60405180910390fd5b60008173ffffffffffffffffffffffffffffffffffffffff163114611d60576040517f08c379a0000000000000000000000000000000000000000000000000000000008152600401611d5790614dee565b60405180910390fd5b6000801b600160008373ffffffffffffffffffffffffffffffffffffffff1673ffffffffffffffffffffffffffffffffffffffff1681526020019081526020016000205414611e2a576000801b600160008373ffffffffffffffffffffffffffffffffffffffff1673ffffffffffffffffffffffffffffffffffffffff168152602001908152602001600020819055507f8071c01a493142de896a206c19ca180d32e91d6486fcf11ea299f569f5d922b58133604051611e21929190614e0e565b60405180910390a15b50565b60011515600560003373ffffffffffffffffffffffffffffffffffffffff1673ffffffffffffffffffffffffffffffffffffffff16815260200190815260200160002060009054906101000a900460ff16151514611ec0576040517f08c379a0000000000000000000000000000000000000000000000000000000008152600401611eb7906146d9565b60405180910390fd5b81600073ffffffffffffffffffffffffffffffffffffffff16600260008373ffffffffffffffffffffffffffffffffffffffff1673ffffffffffffffffffffffffffffffffffffffff16815260200190815260200160002060009054906101000a900473ffffffffffffffffffffffffffffffffffffffff1673ffffffffffffffffffffffffffffffffffffffff1614611f8f576040517f08c379a0000000000000000000000000000000000000000000000000000000008152600401611f86906149c5565b60405180910390fd5b600073ffffffffffffffffffffffffffffffffffffffff168373ffffffffffffffffffffffffffffffffffffffff161415611fff576040517f08c379a0000000000000000000000000000000000000000000000000000000008152600401611ff6906149c5565b60405180910390fd5b6000801b821415612045576040517f08c379a000000000000000000000000000000000000000000000000000000000815260040161203c906149c5565b60405180910390fd5b6000801b600160008573ffffffffffffffffffffffffffffffffffffffff1673ffffffffffffffffffffffffffffffffffffffff16815260200190815260200160002054146120c9576040517f08c379a00000000000000000000000000000000000000000000000000000000081526004016120c0906149c5565b60405180910390fd5b81600160008573ffffffffffffffffffffffffffffffffffffffff1673ffffffffffffffffffffffffffffffffffffffff168152602001908152602001600020819055507fb4f9d1d687d745820ae7c948518d6eef182cfbf5ef20b5b6a33769059592e7c883833360405161214093929190614e37565b60405180910390a1505050565b600960009054906101000a900473ffffffffffffffffffffffffffffffffffffffff1673ffffffffffffffffffffffffffffffffffffffff163373ffffffffffffffffffffffffffffffffffffffff16146121dd576040517f08c379a00000000000000000000000000000000000000000000000000000000081526004016121d4906146d9565b60405180910390fd5b600073ffffffffffffffffffffffffffffffffffffffff168173ffffffffffffffffffffffffffffffffffffffff161461224c576040517f08c379a000000000000000000000000000000000000000000000000000000000815260040161224390614eba565b60405180910390fd5b600960009054906101000a900473ffffffffffffffffffffffffffffffffffffffff1673ffffffffffffffffffffffffffffffffffffffff168173ffffffffffffffffffffffffffffffffffffffff1614156122dd576040517f08c379a00000000000000000000000000000000000000000000000000000000081526004016122d490614f26565b60405180910390fd5b6000600560008373ffffffffffffffffffffffffffffffffffffffff1673ffffffffffffffffffffffffffffffffffffffff16815260200190815260200160002060006101000a81548160ff0219169083151502179055507f2a6c8fd6a904ef448050f3dd3c91d69c89f6029c4144371b887bc536b34f6caa816040516123649190614412565b60405180910390a150565b600b60009054906101000a900460ff166123be576040517f08c379a00000000000000000000000000000000000000000000000000000000081526004016123b590614b3d565b60405180910390fd5b816000801b600160008373ffffffffffffffffffffffffffffffffffffffff1673ffffffffffffffffffffffffffffffffffffffff168152602001908152602001600020541415612444576040517f08c379a000000000000000000000000000000000000000000000000000000000815260040161243b906149c5565b60405180910390fd5b826000805b600860008473ffffffffffffffffffffffffffffffffffffffff1673ffffffffffffffffffffffffffffffffffffffff1681526020019081526020016000208054905081101561258457600d54600860008573ffffffffffffffffffffffffffffffffffffffff1673ffffffffffffffffffffffffffffffffffffffff16815260200190815260200160002082815481106124e7576124e66146f9565b5b9060005260206000209060030201600201546125039190614b5d565b600860008573ffffffffffffffffffffffffffffffffffffffff1673ffffffffffffffffffffffffffffffffffffffff1681526020019081526020016000208281548110612554576125536146f9565b5b906000526020600020906003020160020154111561257157600191505b808061257c90614956565b915050612449565b50806125c5576040517f08c379a00000000000000000000000000000000000000000000000000000000081526004016125bc90614bff565b60405180910390fd5b60008411612608576040517f08c379a00000000000000000000000000000000000000000000000000000000081526004016125ff90614fb8565b60405180910390fd5b600061261433306139be565b905084811015612659576040517f08c379a000000000000000000000000000000000000000000000000000000000815260040161265090615024565b60405180910390fd5b612664863087610f3d565b50600060405180606001604052808873ffffffffffffffffffffffffffffffffffffffff168152602001878152602001428152509050600860008873ffffffffffffffffffffffffffffffffffffffff1673ffffffffffffffffffffffffffffffffffffffff16815260200190815260200160002081908060018154018082558091505060019003906000526020600020906003020160009091909190915060008201518160000160006101000a81548173ffffffffffffffffffffffffffffffffffffffff021916908373ffffffffffffffffffffffffffffffffffffffff160217905550602082015181600101556040820151816002015550508673ffffffffffffffffffffffffffffffffffffffff166108fc879081150290604051600060405180830381858888f193505050501580156127a6573d6000803e3d6000fd5b507f92f64ca637d023f354075a4be751b169c1a8a9ccb6d33cdd0cb3520543995727866040516127d691906143ca565b60405180910390a150505050505050565b6000600460008373ffffffffffffffffffffffffffffffffffffffff1673ffffffffffffffffffffffffffffffffffffffff168152602001908152602001600020549050919050565b600b60009054906101000a900460ff1661287f576040517f08c379a000000000000000000000000000000000000000000000000000000000815260040161287690614b3d565b60405180910390fd5b60011515600560003373ffffffffffffffffffffffffffffffffffffffff1673ffffffffffffffffffffffffffffffffffffffff16815260200190815260200160002060009054906101000a900460ff16151514612912576040517f08c379a0000000000000000000000000000000000000000000000000000000008152600401612909906146d9565b60405180910390fd5b816000600360008373ffffffffffffffffffffffffffffffffffffffff1673ffffffffffffffffffffffffffffffffffffffff168152602001908152602001600020541415612996576040517f08c379a000000000000000000000000000000000000000000000000000000000815260040161298d906149c5565b60405180910390fd5b816000600360008373ffffffffffffffffffffffffffffffffffffffff1673ffffffffffffffffffffffffffffffffffffffff1681526020019081526020016000205414612a19576040517f08c379a0000000000000000000000000000000000000000000000000000000008152600401612a10906149c5565b60405180910390fd5b826000801b600160008373ffffffffffffffffffffffffffffffffffffffff1673ffffffffffffffffffffffffffffffffffffffff168152602001908152602001600020541415612a9f576040517f08c379a0000000000000000000000000000000000000000000000000000000008152600401612a96906149c5565b60405180910390fd5b6000801b600160008773ffffffffffffffffffffffffffffffffffffffff1673ffffffffffffffffffffffffffffffffffffffff1681526020019081526020016000208190555083600260008773ffffffffffffffffffffffffffffffffffffffff1673ffffffffffffffffffffffffffffffffffffffff16815260200190815260200160002060006101000a81548173ffffffffffffffffffffffffffffffffffffffff021916908373ffffffffffffffffffffffffffffffffffffffff16021790555060006001600360008873ffffffffffffffffffffffffffffffffffffffff1673ffffffffffffffffffffffffffffffffffffffff16815260200190815260200160002054612bb29190615044565b905084600a8281548110612bc957612bc86146f9565b5b9060005260206000200160006101000a81548173ffffffffffffffffffffffffffffffffffffffff021916908373ffffffffffffffffffffffffffffffffffffffff160217905550600360008773ffffffffffffffffffffffffffffffffffffffff1673ffffffffffffffffffffffffffffffffffffffff16815260200190815260200160002054600360008773ffffffffffffffffffffffffffffffffffffffff1673ffffffffffffffffffffffffffffffffffffffff168152602001908152602001600020819055506000600360008873ffffffffffffffffffffffffffffffffffffffff1673ffffffffffffffffffffffffffffffffffffffff16815260200190815260200160002081905550600460008773ffffffffffffffffffffffffffffffffffffffff1673ffffffffffffffffffffffffffffffffffffffff16815260200190815260200160002054600460008773ffffffffffffffffffffffffffffffffffffffff1673ffffffffffffffffffffffffffffffffffffffff168152602001908152602001600020819055506000600460008873ffffffffffffffffffffffffffffffffffffffff1673ffffffffffffffffffffffffffffffffffffffff168152602001908152602001600020819055507fb64971100522354f3d25283cb14e2eefcb0dd26a757482ccfe42479d0a686857868633604051612dd493929190615078565b60405180910390a1505050505050565b6040518060400160405280600a81526020017f544f4b454e2e353036430000000000000000000000000000000000000000000081525081565b600960009054906101000a900473ffffffffffffffffffffffffffffffffffffffff1673ffffffffffffffffffffffffffffffffffffffff163373ffffffffffffffffffffffffffffffffffffffff1614612ead576040517f08c379a0000000000000000000000000000000000000000000000000000000008152600401612ea4906146d9565b60405180910390fd5b600073ffffffffffffffffffffffffffffffffffffffff168173ffffffffffffffffffffffffffffffffffffffff161415612f1d576040517f08c379a0000000000000000000000000000000000000000000000000000000008152600401612f14906150fb565b60405180910390fd5b6001600660008373ffffffffffffffffffffffffffffffffffffffff1673ffffffffffffffffffffffffffffffffffffffff168152602001908152602001600020819055507f6ae172837ea30b801fbfcdd4108aa1d5bf8ff775444fd70256b44e6bf3dfc3f681604051612f919190614412565b60405180910390a150565b600b60009054906101000a900460ff16612feb576040517f08c379a0000000000000000000000000000000000000000000000000000000008152600401612fe290614b3d565b60405180910390fd5b336000801b600160008373ffffffffffffffffffffffffffffffffffffffff1673ffffffffffffffffffffffffffffffffffffffff168152602001908152602001600020541415613071576040517f08c379a0000000000000000000000000000000000000000000000000000000008152600401613068906149c5565b60405180910390fd5b60003490506000613081306127e7565b9050600082116130c6576040517f08c379a00000000000000000000000000000000000000000000000000000000081526004016130bd90615167565b60405180910390fd5b80821115613109576040517f08c379a0000000000000000000000000000000000000000000000000000000008152600401613100906151d3565b60405180910390fd5b600060405180606001604052803373ffffffffffffffffffffffffffffffffffffffff168152602001848152602001428152509050600860003373ffffffffffffffffffffffffffffffffffffffff1673ffffffffffffffffffffffffffffffffffffffff16815260200190815260200160002081908060018154018082558091505060019003906000526020600020906003020160009091909190915060008201518160000160006101000a81548173ffffffffffffffffffffffffffffffffffffffff021916908373ffffffffffffffffffffffffffffffffffffffff1602179055506020820151816001015560408201518160020155505061320e338461324c565b507f4e08ba899977cf7d4c2964bce71c6b9a7ef76ee5166a4c1249a1e08016e33ef18360405161323e91906143ca565b60405180910390a150505050565b6000600b60009054906101000a900460ff1661329d576040517f08c379a000000000000000000000000000000000000000000000000000000000815260040161329490614b3d565b60405180910390fd5b826000801b600160008373ffffffffffffffffffffffffffffffffffffffff1673ffffffffffffffffffffffffffffffffffffffff168152602001908152602001600020541415613323576040517f08c379a000000000000000000000000000000000000000000000000000000000815260040161331a906149c5565b60405180910390fd5b836000805b600860008473ffffffffffffffffffffffffffffffffffffffff1673ffffffffffffffffffffffffffffffffffffffff1681526020019081526020016000208054905081101561346357600d54600860008573ffffffffffffffffffffffffffffffffffffffff1673ffffffffffffffffffffffffffffffffffffffff16815260200190815260200160002082815481106133c6576133c56146f9565b5b9060005260206000209060030201600201546133e29190614b5d565b600860008573ffffffffffffffffffffffffffffffffffffffff1673ffffffffffffffffffffffffffffffffffffffff1681526020019081526020016000208281548110613433576134326146f9565b5b906000526020600020906003020160020154111561345057600191505b808061345b90614956565b915050613328565b50806134a4576040517f08c379a000000000000000000000000000000000000000000000000000000000815260040161349b90614bff565b60405180910390fd5b6134ad86613acf565b6134b73386613bc3565b600060405180606001604052808873ffffffffffffffffffffffffffffffffffffffff168152602001878152602001428152509050600860008873ffffffffffffffffffffffffffffffffffffffff1673ffffffffffffffffffffffffffffffffffffffff16815260200190815260200160002081908060018154018082558091505060019003906000526020600020906003020160009091909190915060008201518160000160006101000a81548173ffffffffffffffffffffffffffffffffffffffff021916908373ffffffffffffffffffffffffffffffffffffffff1602179055506020820151816001015560408201518160020155505060405180606001604052803373ffffffffffffffffffffffffffffffffffffffff168152602001877fffffffffffffffffffffffffffffffffffffffffffffffffffffffffffffffff6136059190614c1f565b8152602001428152509050600860003373ffffffffffffffffffffffffffffffffffffffff1673ffffffffffffffffffffffffffffffffffffffff16815260200190815260200160002081908060018154018082558091505060019003906000526020600020906003020160009091909190915060008201518160000160006101000a81548173ffffffffffffffffffffffffffffffffffffffff021916908373ffffffffffffffffffffffffffffffffffffffff160217905550602082015181600101556040820151816002015550506136e08787614076565b94505050505092915050565b600960009054906101000a900473ffffffffffffffffffffffffffffffffffffffff1673ffffffffffffffffffffffffffffffffffffffff163373ffffffffffffffffffffffffffffffffffffffff161461377c576040517f08c379a0000000000000000000000000000000000000000000000000000000008152600401613773906146d9565b60405180910390fd5b600073ffffffffffffffffffffffffffffffffffffffff168173ffffffffffffffffffffffffffffffffffffffff1614156137ec576040517f08c379a00000000000000000000000000000000000000000000000000000000081526004016137e390614eba565b60405180910390fd5b6001600560008373ffffffffffffffffffffffffffffffffffffffff1673ffffffffffffffffffffffffffffffffffffffff16815260200190815260200160002060006101000a81548160ff0219169083151502179055507f1e9fcacb7052d8badc53a7061f6dc79beafe00b872cc7d0a57c541023eb9eabc816040516138739190614412565b60405180910390a150565b60008060001b600160008473ffffffffffffffffffffffffffffffffffffffff1673ffffffffffffffffffffffffffffffffffffffff1681526020019081526020016000205414159050919050565b600060011515600560003373ffffffffffffffffffffffffffffffffffffffff1673ffffffffffffffffffffffffffffffffffffffff16815260200190815260200160002060009054906101000a900460ff16151514613962576040517f08c379a0000000000000000000000000000000000000000000000000000000008152600401613959906146d9565b60405180910390fd5b61396b826140ff565b9050919050565b600080600360008473ffffffffffffffffffffffffffffffffffffffff1673ffffffffffffffffffffffffffffffffffffffff1681526020019081526020016000205414159050919050565b6000600760008473ffffffffffffffffffffffffffffffffffffffff1673ffffffffffffffffffffffffffffffffffffffff16815260200190815260200160002060008373ffffffffffffffffffffffffffffffffffffffff1673ffffffffffffffffffffffffffffffffffffffff16815260200190815260200160002054905092915050565b60008073ffffffffffffffffffffffffffffffffffffffff168373ffffffffffffffffffffffffffffffffffffffff161415613a845760009050613ac9565b81600160008573ffffffffffffffffffffffffffffffffffffffff1673ffffffffffffffffffffffffffffffffffffffff168152602001908152602001600020541490505b92915050565b6000600360008373ffffffffffffffffffffffffffffffffffffffff1673ffffffffffffffffffffffffffffffffffffffff168152602001908152602001600020541415613bc057600a819080600181540180825580915050600190039060005260206000200160009091909190916101000a81548173ffffffffffffffffffffffffffffffffffffffff021916908373ffffffffffffffffffffffffffffffffffffffff1602179055506001600360008373ffffffffffffffffffffffffffffffffffffffff1673ffffffffffffffffffffffffffffffffffffffff168152602001908152602001600020819055505b50565b6000818373ffffffffffffffffffffffffffffffffffffffff1631613be89190615044565b90506000811115613bf95750613e1e565b60006001600360008673ffffffffffffffffffffffffffffffffffffffff1673ffffffffffffffffffffffffffffffffffffffff16815260200190815260200160002054613c479190615044565b905060006001600a80549050613c5d9190615044565b90506000600a8281548110613c7557613c746146f9565b5b9060005260206000200160009054906101000a900473ffffffffffffffffffffffffffffffffffffffff16905080600a8481548110613cb757613cb66146f9565b5b9060005260206000200160006101000a81548173ffffffffffffffffffffffffffffffffffffffff021916908373ffffffffffffffffffffffffffffffffffffffff160217905550600360008773ffffffffffffffffffffffffffffffffffffffff1673ffffffffffffffffffffffffffffffffffffffff16815260200190815260200160002054600360008373ffffffffffffffffffffffffffffffffffffffff1673ffffffffffffffffffffffffffffffffffffffff16815260200190815260200160002081905550600a6001600a80549050613d969190615044565b81548110613da757613da66146f9565b5b9060005260206000200160006101000a81549073ffffffffffffffffffffffffffffffffffffffff02191690556000600360008873ffffffffffffffffffffffffffffffffffffffff1673ffffffffffffffffffffffffffffffffffffffff16815260200190815260200160002081905550505050505b5050565b600081600460008673ffffffffffffffffffffffffffffffffffffffff1673ffffffffffffffffffffffffffffffffffffffff1681526020019081526020016000205411613ea5576040517f08c379a0000000000000000000000000000000000000000000000000000000008152600401613e9c9061523f565b60405180910390fd5b81600460008573ffffffffffffffffffffffffffffffffffffffff1673ffffffffffffffffffffffffffffffffffffffff1681526020019081526020016000206000828254613ef49190614b5d565b9250508190555081600460008673ffffffffffffffffffffffffffffffffffffffff1673ffffffffffffffffffffffffffffffffffffffff1681526020019081526020016000206000828254613f4a9190615044565b925050819055507fc0d84ce5c7ff9ca21adb0f8436ff3f4951b4bb78c4e2fae2b6837958b3946ffd848484604051613f849392919061525f565b60405180910390a1600190509392505050565b60008054821115613fdd576040517f08c379a0000000000000000000000000000000000000000000000000000000008152600401613fd4906152e2565b60405180910390fd5b81600460008573ffffffffffffffffffffffffffffffffffffffff1673ffffffffffffffffffffffffffffffffffffffff168152602001908152602001600020600082825461402c9190614b5d565b925050819055507f30385c845b448a36257a6a1716e6ad2e1bc2cbe333cde1e69fe849ad6511adfe8383604051614064929190615302565b60405180910390a16001905092915050565b600081600460008573ffffffffffffffffffffffffffffffffffffffff1673ffffffffffffffffffffffffffffffffffffffff168152602001908152602001600020819055507f69ca02dd4edd7bf0a4abb9ed3b7af3f14778db5d61921c7dc7cd545266326de283836040516140ed929190615302565b60405180910390a16001905092915050565b600080600260008473ffffffffffffffffffffffffffffffffffffffff1673ffffffffffffffffffffffffffffffffffffffff16815260200190815260200160002060009054906101000a900473ffffffffffffffffffffffffffffffffffffffff169050600073ffffffffffffffffffffffffffffffffffffffff168173ffffffffffffffffffffffffffffffffffffffff1614156141a257829150506141af565b6141ab816140ff565b9150505b919050565b600081519050919050565b600082825260208201905092915050565b60005b838110156141ee5780820151818401526020810190506141d3565b838111156141fd576000848401525b50505050565b6000601f19601f8301169050919050565b600061421f826141b4565b61422981856141bf565b93506142398185602086016141d0565b61424281614203565b840191505092915050565b600060208201905081810360008301526142678184614214565b905092915050565b600080fd5b600073ffffffffffffffffffffffffffffffffffffffff82169050919050565b600061429f82614274565b9050919050565b6142af81614294565b81146142ba57600080fd5b50565b6000813590506142cc816142a6565b92915050565b6000602082840312156142e8576142e761426f565b5b60006142f6848285016142bd565b91505092915050565b6000819050919050565b614312816142ff565b811461431d57600080fd5b50565b60008135905061432f81614309565b92915050565b6000806040838503121561434c5761434b61426f565b5b600061435a858286016142bd565b925050602061436b85828601614320565b9150509250929050565b61437e81614294565b82525050565b61438d816142ff565b82525050565b60006060820190506143a86000830186614375565b6143b56020830185614384565b6143c26040830184614384565b949350505050565b60006020820190506143df6000830184614384565b92915050565b6000602082840312156143fb576143fa61426f565b5b600061440984828501614320565b91505092915050565b60006020820190506144276000830184614375565b92915050565b60008115159050919050565b6144428161442d565b811461444d57600080fd5b50565b60008135905061445f81614439565b92915050565b6000806040838503121561447c5761447b61426f565b5b600061448a85828601614320565b925050602061449b85828601614450565b9150509250929050565b6000806000606084860312156144be576144bd61426f565b5b60006144cc868287016142bd565b93505060206144dd868287016142bd565b92505060406144ee86828701614320565b9150509250925092565b6145018161442d565b82525050565b600060208201905061451c60008301846144f8565b92915050565b600060ff82169050919050565b61453881614522565b82525050565b6000602082019050614553600083018461452f565b92915050565b6000819050919050565b61456c81614559565b811461457757600080fd5b50565b60008135905061458981614563565b92915050565b600080604083850312156145a6576145a561426f565b5b60006145b4858286016142bd565b92505060206145c58582860161457a565b9150509250929050565b60006145da82614274565b9050919050565b6145ea816145cf565b81146145f557600080fd5b50565b600081359050614607816145e1565b92915050565b600080604083850312156146245761462361426f565b5b6000614632858286016145f8565b925050602061464385828601614320565b9150509250929050565b600080604083850312156146645761466361426f565b5b6000614672858286016142bd565b9250506020614683858286016142bd565b9150509250929050565b7f6163636573732064656e69656400000000000000000000000000000000000000600082015250565b60006146c3600d836141bf565b91506146ce8261468d565b602082019050919050565b600060208201905081810360008301526146f2816146b6565b9050919050565b7f4e487b7100000000000000000000000000000000000000000000000000000000600052603260045260246000fd5b600081905092915050565b600061473e826141b4565b6147488185614728565b93506147588185602086016141d0565b80840191505092915050565b7f5b00000000000000000000000000000000000000000000000000000000000000600082015250565b600061479a600183614728565b91506147a582614764565b600182019050919050565b60008160601b9050919050565b60006147c8826147b0565b9050919050565b60006147da826147bd565b9050919050565b6147f26147ed82614294565b6147cf565b82525050565b7f2c00000000000000000000000000000000000000000000000000000000000000600082015250565b600061482e600183614728565b9150614839826147f8565b600182019050919050565b6000819050919050565b61485f61485a826142ff565b614844565b82525050565b7f5d00000000000000000000000000000000000000000000000000000000000000600082015250565b600061489b600183614728565b91506148a682614865565b600182019050919050565b60006148bd8287614733565b91506148c88261478d565b91506148d482866147e1565b6014820191506148e382614821565b91506148ef828561484e565b6020820191506148fe82614821565b915061490a828461484e565b6020820191506149198261488e565b915081905095945050505050565b7f4e487b7100000000000000000000000000000000000000000000000000000000600052601160045260246000fd5b6000614961826142ff565b91507fffffffffffffffffffffffffffffffffffffffffffffffffffffffffffffffff82141561499457614993614927565b5b600182019050919050565b50565b60006149af6000836141bf565b91506149ba8261499f565b600082019050919050565b600060208201905081810360008301526149de816149a2565b9050919050565b7f2068617320737461727465640000000000000000000000000000000000000000600082015250565b6000614a1b600c83614728565b9150614a26826149e5565b600c82019050919050565b6000614a3d8284614733565b9150614a4882614a0e565b915081905092915050565b60006040820190508181036000830152614a6d8185614214565b9050614a7c6020830184614384565b9392505050565b7f206861732073746f707065640000000000000000000000000000000000000000600082015250565b6000614ab9600c83614728565b9150614ac482614a83565b600c82019050919050565b6000614adb8284614733565b9150614ae682614aac565b915081905092915050565b7f6578656d7074206f66666572696e67206973206e6f7420616374697665000000600082015250565b6000614b27601d836141bf565b9150614b3282614af1565b602082019050919050565b60006020820190508181036000830152614b5681614b1a565b9050919050565b6000614b68826142ff565b9150614b73836142ff565b9250827fffffffffffffffffffffffffffffffffffffffffffffffffffffffffffffffff03821115614ba857614ba7614927565b5b828201905092915050565b7f686f6c64696e6720706572696f64206973206e6f74206f766572000000000000600082015250565b6000614be9601a836141bf565b9150614bf482614bb3565b602082019050919050565b60006020820190508181036000830152614c1881614bdc565b9050919050565b6000614c2a826142ff565b9150614c35836142ff565b9250817fffffffffffffffffffffffffffffffffffffffffffffffffffffffffffffffff0483118215151615614c6e57614c6d614927565b5b828202905092915050565b6000614c848261478d565b9150614c9082866147e1565b601482019150614c9f82614821565b9150614cab828561484e565b602082019150614cba82614821565b9150614cc6828461484e565b602082019150614cd58261488e565b9150819050949350505050565b614ceb81614559565b82525050565b6000608082019050614d066000830187614375565b614d136020830186614ce2565b614d206040830185614ce2565b614d2d6060830184614375565b95945050505050565b7f6e6f742061206d696e7465720000000000000000000000000000000000000000600082015250565b6000614d6c600c836141bf565b9150614d7782614d36565b602082019050919050565b60006020820190508181036000830152614d9b81614d5f565b9050919050565b7f6163636f756e742062616c616e6365206973206e6f74207a65726f0000000000600082015250565b6000614dd8601b836141bf565b9150614de382614da2565b602082019050919050565b60006020820190508181036000830152614e0781614dcb565b9050919050565b6000604082019050614e236000830185614375565b614e306020830184614375565b9392505050565b6000606082019050614e4c6000830186614375565b614e596020830185614ce2565b614e666040830184614375565b949350505050565b7f6d697373696e67207472616e73666572206167656e7420616464726573730000600082015250565b6000614ea4601e836141bf565b9150614eaf82614e6e565b602082019050919050565b60006020820190508181036000830152614ed381614e97565b9050919050565b7f63616e6e6f742072656d6f766520746865206f776e6572000000000000000000600082015250565b6000614f106017836141bf565b9150614f1b82614eda565b602082019050919050565b60006020820190508181036000830152614f3f81614f03565b9050919050565b7f596f75206e65656420746f2073656c6c206174206c6561737420736f6d65207460008201527f6f6b656e73000000000000000000000000000000000000000000000000000000602082015250565b6000614fa26025836141bf565b9150614fad82614f46565b604082019050919050565b60006020820190508181036000830152614fd181614f95565b9050919050565b7f436865636b2074686520746f6b656e20616c6c6f77616e636500000000000000600082015250565b600061500e6019836141bf565b915061501982614fd8565b602082019050919050565b6000602082019050818103600083015261503d81615001565b9050919050565b600061504f826142ff565b915061505a836142ff565b92508282101561506d5761506c614927565b5b828203905092915050565b600060608201905061508d6000830186614375565b61509a6020830185614375565b6150a76040830184614375565b949350505050565b7f6d697373696e67206d696e746572206164647265737300000000000000000000600082015250565b60006150e56016836141bf565b91506150f0826150af565b602082019050919050565b60006020820190508181036000830152615114816150d8565b9050919050565b7f596f75206e65656420746f2073656e6420736f6d652065746865720000000000600082015250565b6000615151601b836141bf565b915061515c8261511b565b602082019050919050565b6000602082019050818103600083015261518081615144565b9050919050565b7f4e6f7420656e6f75676820746f6b656e7320696e207468652072657365727665600082015250565b60006151bd6020836141bf565b91506151c882615187565b602082019050919050565b600060208201905081810360008301526151ec816151b0565b9050919050565b7f696e73756666696369656e742062616c616e6365000000000000000000000000600082015250565b60006152296014836141bf565b9150615234826151f3565b602082019050919050565b600060208201905081810360008301526152588161521c565b9050919050565b60006060820190506152746000830186614375565b6152816020830185614375565b61528e6040830184614384565b949350505050565b7f6578636565647320746f74616c20737570706c79000000000000000000000000600082015250565b60006152cc6014836141bf565b91506152d782615296565b602082019050919050565b600060208201905081810360008301526152fb816152bf565b9050919050565b60006040820190506153176000830185614375565b6153246020830184614384565b939250505056fea26469706673582212200d3ad03d230b88f3577098255ff161e6ea57240a29d17717f46ab0c9bafa58d164736f6c634300080a0033",
  "immutableReferences": {},
  "source": "// SPDX-License-Identifier: MIT\npragma solidity >=0.4.22 <0.9.0;\n\n/**\n * Rule 506(c)\n * -----------\n * See https://www.sec.gov/smallbusiness/exemptofferings/rule506c\n *\n * Rule 506(c) permits issuers to broadly solicit and generally advertise an offering, provided that:\n *\n *  - all purchasers in the offering are accredited investors\n *  - the issuer takes reasonable steps to verify purchasers accredited investor status and\n *  - certain other conditions in Regulation D are satisfied\n *\n * Purchasers in a Rule 506(c) offering receive restricted securities. A company is required to file a notice with the Commission on Form D within 15 days\n * after the first sale of securities in the offering. Although the Securities Act provides a federal preemption from state registration and qualification under\n * Rule 506(c), the states still have authority to require notice filings and collect state fees.\n */\n\ncontract ExemptEquityOffering506C {\n    string public constant name = \"Rule 506(c) Token\";\n    string public constant symbol = \"TOKEN.506C\";\n    uint8 public constant decimals = 0;\n    uint256 public totalSupply = 0;\n\n    uint256 public constant negative = type(uint256).max;\n\n    uint public constant INITIAL_SUPPLY = 100000 * 1 ether;\n\n    bytes32 constant private ZERO_BYTES = bytes32(0);\n    address constant private ZERO_ADDRESS = address(0);\n\n\n    mapping(address => bytes32) private verified;\n    mapping(address => address) private cancellations;\n    mapping(address => uint256) private holderIndices;\n    mapping(address => uint256) public  balances;\n    mapping(address => bool) private transferagents;\n    mapping(address => uint256) private minters;\n    mapping(address => mapping(address => uint256)) private _allowances;\n\n\n    struct Transaction {\n        address addr;\n        uint256 amount;\n        uint256 time;\n    }\n\n    mapping(address => Transaction[]) public transactions;\n\n    address private owner;\n\n    address[] private shareholders;\n\n\n    bool internal active = false;\n    uint256 private start_timestamp;\n    event ExemptOffering(address indexed from,string status, uint256 value);\n\n    uint private year = 52 weeks;\n\n    event Bought(uint value);\n    event Sold(uint value);\n\n    event Transfer(address addr, uint256 amount);\n    event TransferFrom(address from,address to,uint256 value);\n    event TransferAgentAdded(address addr);\n    event TransferAgentRemoved(address addr);\n    event MinterAdded(address addr);\n    event Minted(address addr, uint256 amount);\n    event VerifiedAddressSuperseded(address addr1,address addr2,address addr3);\n    event VerifiedAddressUpdated(address addr, bytes32 oldhash, bytes32 hash, address sender);\n    event VerifiedAddressRemoved(address addr, address sender);\n    event VerifiedAddressAdded(address addr, bytes32 hash, address sender);\n\n    constructor() public {\n        owner = msg.sender;\n        transferagents[owner] = true;\n        addMinter(owner);\n        _mint(owner, INITIAL_SUPPLY);\n    }\n\n    modifier onlyOwner() {\n        require(msg.sender == owner, \"access denied\");\n        _;\n    }\n\n    modifier isMinter() {\n      require(minters[msg.sender] == 1,\"not a minter\");\n      _;\n    }\n\n    modifier isActive() {\n      require(active, \"exempt offering is not active\");\n      _;\n    }\n\n    modifier isVerifiedAddress(address addr) {\n        require(verified[addr] != ZERO_BYTES, \"\");\n        _;\n    }\n\n    modifier isShareholder(address addr) {\n        require(holderIndices[addr] != 0, \"\");\n        _;\n    }\n\n    modifier isNotShareholder(address addr) {\n        require(holderIndices[addr] == 0, \"\");\n        _;\n    }\n\n    modifier isNotCancelled(address addr) {\n        require(cancellations[addr] == ZERO_ADDRESS, \"\");\n        _;\n    }\n\n    modifier isHoldingPeriodOver(address addr) {\n        bool over = false;\n        for (uint i = 0; i < transactions[addr].length; i++) {\n            if (transactions[addr][i].time > (transactions[addr][i].time + year)) {\n                over = true;\n            }\n        }\n        require (over, \"holding period is not over\");\n        _;\n    }\n\n    modifier onlyTransferAgent() {\n        require(transferagents[msg.sender] == true, \"access denied\");\n        _;\n    }\n\n    function balanceOf(address addr)\n      public\n      view\n      returns (uint256)\n    {\n      return balances[addr];\n    }\n\n    function allowance(address _owner, address spender)\n      public\n      view\n      returns (uint256)\n    {\n        return _allowances[_owner][spender];\n    }\n\n    function addMinter(address addr)\n      public\n      onlyOwner\n    {\n      require(addr != ZERO_ADDRESS, \"missing minter address\");\n      minters[addr] = 1;\n      emit MinterAdded(addr);\n    }\n\n    function addTransferAgent(address addr)\n        public\n        onlyOwner\n    {\n        require(addr != ZERO_ADDRESS, \"missing transfer agent address\");\n        transferagents[addr] = true;\n        emit TransferAgentAdded(addr);\n    }\n\n    function removeTransferAgent(address addr)\n        public\n        onlyOwner\n    {\n        require(addr == ZERO_ADDRESS,\"missing transfer agent address\");\n        require(addr != owner,\"cannot remove the owner\");\n        transferagents[addr] = false;\n        emit TransferAgentRemoved(addr);\n    }\n\n    /**\n     * As each token is minted it is added to the shareholders array.\n     * @param _to The address that will receive the minted tokens.\n     * @param _amount The amount of tokens to mint.\n     * @return A boolean that indicates if the operation was successful.\n     */\n    function mint(address _to, uint256 _amount)\n        public\n        isActive\n        onlyTransferAgent\n        isMinter\n        isVerifiedAddress(_to)\n        returns (bool)\n    {\n        // if the address does not already own share then\n        // add the address to the shareholders array and record the index.\n        updateShareholders(_to);\n        Transaction memory trans = Transaction(_to, _amount, block.timestamp);\n        transactions[_to].push(trans);\n        return _mint(_to, _amount);\n    }\n\n    function toggleExemptOffering(uint256 timestamp, bool _active)\n        public\n        onlyOwner\n    {\n        start_timestamp = timestamp;\n        active = _active;\n\n        if (active) {\n            emit ExemptOffering(msg.sender, string(abi.encodePacked(name, \" has started\")), timestamp);\n        } else {\n            emit ExemptOffering(msg.sender, string(abi.encodePacked(name, \" has stopped\")), timestamp);\n        }\n    }\n\n    function getTransactions(address addr) public view onlyTransferAgent returns (string memory) {\n        string memory output = \"\";\n        for (uint i = 0; i < transactions[addr].length; i++) {\n            output = string(\n                abi.encodePacked(output, \"[\", transactions[addr][i].addr, \",\", transactions[addr][i].amount, \",\",  transactions[addr][i].time, \"]\")\n            );\n        }\n        return output;\n    }\n\n    function getTransactionByIndex(address addr, uint index) public view onlyTransferAgent returns (string memory) {\n        return string(abi.encodePacked(\n            \"[\", transactions[addr][index].addr, \",\", transactions[addr][index].amount, \",\", transactions[addr][index].time, \"]\"\n        ));\n    }\n\n    /**\n     *  The number of addresses that own tokens.\n     *  @return the number of unique addresses that own tokens.\n     */\n    function holderCount()\n        public\n        onlyTransferAgent\n        view\n        returns (uint)\n    {\n        return shareholders.length;\n    }\n\n    /**\n     *  By counting the number of token holders using `holderCount`\n     *  you can retrieve the complete list of token holders, one at a time.\n     *  It MUST throw if `index >= holderCount()`.\n     *  @param index The zero-based index of the holder.\n     *  @return the address of the token holder with the given index.\n     */\n    function holderAt(uint256 index)\n        public\n        onlyTransferAgent\n        view\n        returns (address)\n    {\n        require(index < shareholders.length, \"\");\n        return shareholders[index];\n    }\n\n    /**\n     *  Add a verified address, along with an associated verification hash to the contract.\n     *  Upon successful addition of a verified address, the contract must emit\n     *  `VerifiedAddressAdded(addr, hash, msg.sender)`.\n     *  It MUST throw if the supplied address or hash are zero, or if the address has already been supplied.\n     *  @param addr The address of the person represented by the supplied hash.\n     *  @param hash A cryptographic hash of the address holder's verified information.\n     */\n    function addVerified(address addr, bytes32 hash)\n        public\n        onlyTransferAgent\n        isNotCancelled(addr)\n    {\n        require(addr != ZERO_ADDRESS, \"\");\n        require(hash != ZERO_BYTES, \"\");\n        require(verified[addr] == ZERO_BYTES, \"\");\n        verified[addr] = hash;\n        emit VerifiedAddressAdded(addr, hash, msg.sender);\n    }\n\n    /**\n     *  Remove a verified address, and the associated verification hash. If the address is\n     *  unkblock.timestampn to the contract then this does nothing. If the address is successfully removed, this\n     *  function must emit `VerifiedAddressRemoved(addr, msg.sender)`.\n     *  It MUST throw if an attempt is made to remove a verifiedAddress that owns Tokens.\n     *  @param addr The verified address to be removed.\n     */\n    function removeVerified(address addr)\n        public\n        onlyTransferAgent\n    {\n        require(addr.balance == 0, \"account balance is not zero\");\n        if (verified[addr] != ZERO_BYTES) {\n            verified[addr] = ZERO_BYTES;\n            emit VerifiedAddressRemoved(addr, msg.sender);\n        }\n    }\n\n    /**\n     *  Update the hash for a verified address known to the contract.\n     *  Upon successful update of a verified address the contract must emit\n     *  `VerifiedAddressUpdated(addr, oldHash, hash, msg.sender)`.\n     *  If the hash is the same as the value already stored then\n     *  no `VerifiedAddressUpdated` event is to be emitted.\n     *  It MUST throw if the hash is zero, or if the address is unverified.\n     *  @param addr The verified address of the person represented by the supplied hash.\n     *  @param hash A new cryptographic hash of the address holder's updated verified information.\n     */\n    function updateVerified(address addr, bytes32 hash)\n        public\n        onlyTransferAgent\n        isVerifiedAddress(addr)\n    {\n        require(hash != ZERO_BYTES, \"\");\n        bytes32 oldHash = verified[addr];\n        if (oldHash != hash) {\n            verified[addr] = hash;\n            emit VerifiedAddressUpdated(addr, oldHash, hash, msg.sender);\n        }\n    }\n\n    /**\n     *  Cancel the original address and reissue the Tokens to the replacement address.\n     *  Access to this function MUST be strictly controlled.\n     *  The `original` address MUST be removed from the set of verified addresses.\n     *  Throw if the `original` address supplied is not a shareholder.\n     *  Throw if the replacement address is not a verified address.\n     *  This function MUST emit the `VerifiedAddressSuperseded` event.\n     *  @param original The address to be superseded. This address MUST NOT be reused.\n     *  @param replacement The address  that supersedes the original. This address MUST be verified.\n     */\n    function cancelAndReissue(address original, address replacement)\n        public\n        isActive\n        onlyTransferAgent\n        isShareholder(original)\n        isNotShareholder(replacement)\n        isVerifiedAddress(replacement)\n    {\n        // replace the original address in the shareholders array\n        // and update all the associated mappings\n        verified[original] = ZERO_BYTES;\n        cancellations[original] = replacement;\n        uint256 holderIndex = holderIndices[original] - 1;\n        shareholders[holderIndex] = replacement;\n        holderIndices[replacement] = holderIndices[original];\n        holderIndices[original] = 0;\n        balances[replacement] = balances[original];\n        balances[original] = 0;\n        emit VerifiedAddressSuperseded(original, replacement, msg.sender);\n    }\n\n    /**\n     *  The `transfer` function MUST NOT allow transfers to addresses that\n     *  have not been verified and added to the contract.\n     *  If the `to` address is not currently a shareholder then it MUST become one.\n     *  If the transfer will reduce `msg.sender`'s balance to 0 then that address\n     *  MUST be removed from the list of shareholders.\n     */\n    function transfer(address to, uint256 value)\n        public\n        isActive\n        isVerifiedAddress(to)\n        isHoldingPeriodOver(to)\n        returns (bool)\n    {\n        updateShareholders(to);\n        pruneShareholders(msg.sender, value);\n        Transaction memory trans = Transaction(to, value,block.timestamp);\n        transactions[to].push(trans);\n        trans = Transaction(msg.sender, negative * value,block.timestamp);\n        transactions[msg.sender].push(trans);\n\n        return _transfer(to, value);\n    }\n\n    /**\n     *  The `transferFrom` function MUST NOT allow transfers to addresses that\n     *  have not been verified and added to the contract.\n     *  If the `to` address is not currently a shareholder then it MUST become one.\n     *  If the transfer will reduce `from`'s balance to 0 then that address\n     *  MUST be removed from the list of shareholders.\n     */\n    function transferFrom(address from, address to, uint256 value)\n        public\n        isActive\n        isVerifiedAddress(to)\n        isHoldingPeriodOver(from)\n        returns (bool)\n    {\n        updateShareholders(to);\n        pruneShareholders(from, value);\n        Transaction memory trans = Transaction(to, value,block.timestamp);\n        transactions[to].push(trans);\n        trans = Transaction(from, negative * value, block.timestamp);\n        transactions[from].push(trans);\n\n        return _transferFrom(from, to, value);\n    }\n\n    /**\n     *  Tests that the supplied address is known to the contract.\n     *  @param addr The address to test.\n     *  @return true if the address is known to the contract.\n     */\n    function isVerified(address addr)\n        public\n        view\n        returns (bool)\n    {\n        return verified[addr] != ZERO_BYTES;\n    }\n\n    /**\n     *  Checks to see if the supplied address is a share holder.\n     *  @param addr The address to check.\n     *  @return true if the supplied address owns a token.\n     */\n    function isHolder(address addr)\n        public\n        view\n        returns (bool)\n    {\n        return holderIndices[addr] != 0;\n    }\n\n    /**\n     *  Checks that the supplied hash is associated with the given address.\n     *  @param addr The address to test.\n     *  @param hash The hash to test.\n     *  @return true if the hash matches the one supplied with the address in `addVerified`, or `updateVerified`.\n     */\n    function hasHash(address addr, bytes32 hash)\n        public\n        view\n        returns (bool)\n    {\n        if (addr == ZERO_ADDRESS) {\n            return false;\n        }\n        return verified[addr] == hash;\n    }\n\n    /**\n     *  Checks to see if the supplied address was superseded.\n     *  @param addr The address to check.\n     *  @return true if the supplied address was superseded by another address.\n     */\n    function isSuperseded(address addr)\n        public\n        view\n        onlyTransferAgent\n        returns (bool)\n    {\n        return cancellations[addr] != ZERO_ADDRESS;\n    }\n\n    /**\n     *  Gets the most recent address, given a superseded one.\n     *  Addresses may be superseded multiple times, so this function needs to\n     *  follow the chain of addresses until it reaches the final, verified address.\n     *  @param addr The superseded address.\n     *  @return the verified address that ultimately holds the share.\n     */\n    function getCurrentFor(address addr)\n        public\n        view\n        onlyTransferAgent\n        returns (address)\n    {\n        return findCurrentFor(addr);\n    }\n\n    /**\n     *  Recursively find the most recent address given a superseded one.\n     *  @param addr The superseded address.\n     *  @return the verified address that ultimately holds the share.\n     */\n    function findCurrentFor(address addr)\n        internal\n        view\n        returns (address)\n    {\n        address candidate = cancellations[addr];\n        if (candidate == ZERO_ADDRESS) {\n            return addr;\n        }\n        return findCurrentFor(candidate);\n    }\n\n    /**\n     *  If the address is not in the `shareholders` array then push it\n     *  and update the `holderIndices` mapping.\n     *  @param addr The address to add as a shareholder if it's not already.\n     */\n    function updateShareholders(address addr)\n        internal\n    {\n        if (holderIndices[addr] == 0) {\n          shareholders.push(addr);\n          holderIndices[addr] = 1;\n        }\n    }\n\n    /**\n     *  If the address is in the `shareholders` array and the forthcoming\n     *  transfer or transferFrom will reduce their balance to 0, then\n     *  we need to remove them from the shareholders array.\n     *  @param addr The address to prune if their balance will be reduced to 0.\n     @  @dev see https://ethereum.stackexchange.com/a/39311\n     */\n    function pruneShareholders(address addr, uint256 value)\n        internal\n    {\n        uint256 balance = addr.balance - value;\n        if (balance > 0) {\n            return;\n        }\n        uint256 holderIndex = holderIndices[addr] - 1;\n        uint256 lastIndex = shareholders.length - 1;\n        address lastHolder = shareholders[lastIndex];\n        // overwrite the addr's slot with the last shareholder\n        shareholders[holderIndex] = lastHolder;\n        // also copy over the index (thanks @mohoff for spotting this)\n        // ref https://github.com/davesag/ERC884-reference-implementation/issues/20\n        holderIndices[lastHolder] = holderIndices[addr];\n        // trim the shareholders array (which drops the last entry)\n        delete shareholders[shareholders.length - 1];\n        // and zero out the index for addr\n        holderIndices[addr] = 0;\n    }\n\n    function buy()\n        public\n        payable\n        isActive\n        isVerifiedAddress(msg.sender)\n    {\n        uint256 amountTobuy = msg.value;\n        uint256 dexBalance = balanceOf(address(this));\n        require(amountTobuy > 0, \"You need to send some ether\");\n        require(amountTobuy <= dexBalance, \"Not enough tokens in the reserve\");\n        Transaction memory trans = Transaction(msg.sender, amountTobuy, block.timestamp);\n        transactions[msg.sender].push(trans);\n        transfer(msg.sender, amountTobuy);\n        emit Bought(amountTobuy);\n    }\n\n    function sell(address payable sender,uint256 amount)\n        public\n        payable\n        isActive\n        isVerifiedAddress(sender)\n        isHoldingPeriodOver(sender)\n    {\n        require(amount > 0, \"You need to sell at least some tokens\");\n        uint256 __allowance = allowance(msg.sender, address(this));\n        require(__allowance >= amount, \"Check the token allowance\");\n        transferFrom(sender, address(this), amount);\n        Transaction memory trans = Transaction(sender, amount, block.timestamp);\n        transactions[sender].push(trans);\n        sender.transfer(amount);\n        emit Sold(amount);\n    }\n\n    // Internal\n    function _mint(address addr, uint256 amount)\n      internal\n      returns (bool)\n    {\n      require(amount <= totalSupply, \"exceeds total supply\");\n      balances[addr] += amount;\n      emit Minted(addr, amount);\n      return true;\n    }\n\n    function _transfer(address addr, uint256 amount)\n      internal\n      returns (bool)\n    {\n      balances[addr] = amount;\n      emit Transfer(addr, amount);\n      return true;\n    }\n\n    function _transferFrom(address from,address to,uint256 value)\n      internal\n      returns (bool)\n    {\n      require(balances[from] > value, \"insufficient balance\");\n      balances[to] += value;\n      balances[from] -= value;\n      emit TransferFrom(from, to, value);\n      return true;\n    }\n}\n",
  "sourcePath": "G:\\projects\\pingleware-contracts\\contracts\\equity\\ExemptEquityOffering506C.sol",
  "compiler": {
    "name": "solc",
    "version": "0.8.10+commit.fc410830.Emscripten.clang"
  },
  "schemaVersion": "3.4.3",
  "updatedAt": "2021-12-19T19:02:32.420Z",
  "devdoc": {
    "kind": "dev",
    "methods": {
      "addVerified(address,bytes32)": {
        "params": {
          "addr": "The address of the person represented by the supplied hash.",
          "hash": "A cryptographic hash of the address holder's verified information."
        }
      },
      "cancelAndReissue(address,address)": {
        "params": {
          "original": "The address to be superseded. This address MUST NOT be reused.",
          "replacement": "The address  that supersedes the original. This address MUST be verified."
        }
      },
      "getCurrentFor(address)": {
        "params": {
          "addr": "The superseded address."
        },
        "returns": {
          "_0": "the verified address that ultimately holds the share."
        }
      },
      "hasHash(address,bytes32)": {
        "params": {
          "addr": "The address to test.",
          "hash": "The hash to test."
        },
        "returns": {
          "_0": "true if the hash matches the one supplied with the address in `addVerified`, or `updateVerified`."
        }
      },
      "holderAt(uint256)": {
        "params": {
          "index": "The zero-based index of the holder."
        },
        "returns": {
          "_0": "the address of the token holder with the given index."
        }
      },
      "holderCount()": {
        "returns": {
          "_0": "the number of unique addresses that own tokens."
        }
      },
      "isHolder(address)": {
        "params": {
          "addr": "The address to check."
        },
        "returns": {
          "_0": "true if the supplied address owns a token."
        }
      },
      "isSuperseded(address)": {
        "params": {
          "addr": "The address to check."
        },
        "returns": {
          "_0": "true if the supplied address was superseded by another address."
        }
      },
      "isVerified(address)": {
        "params": {
          "addr": "The address to test."
        },
        "returns": {
          "_0": "true if the address is known to the contract."
        }
      },
      "mint(address,uint256)": {
        "params": {
          "_amount": "The amount of tokens to mint.",
          "_to": "The address that will receive the minted tokens."
        },
        "returns": {
          "_0": "A boolean that indicates if the operation was successful."
        }
      },
      "removeVerified(address)": {
        "params": {
          "addr": "The verified address to be removed."
        }
      },
      "updateVerified(address,bytes32)": {
        "params": {
          "addr": "The verified address of the person represented by the supplied hash.",
          "hash": "A new cryptographic hash of the address holder's updated verified information."
        }
      }
    },
    "version": 1
  },
  "userdoc": {
    "kind": "user",
    "methods": {
      "addVerified(address,bytes32)": {
        "notice": "Add a verified address, along with an associated verification hash to the contract.  Upon successful addition of a verified address, the contract must emit  `VerifiedAddressAdded(addr, hash, msg.sender)`.  It MUST throw if the supplied address or hash are zero, or if the address has already been supplied."
      },
      "cancelAndReissue(address,address)": {
        "notice": "Cancel the original address and reissue the Tokens to the replacement address.  Access to this function MUST be strictly controlled.  The `original` address MUST be removed from the set of verified addresses.  Throw if the `original` address supplied is not a shareholder.  Throw if the replacement address is not a verified address.  This function MUST emit the `VerifiedAddressSuperseded` event."
      },
      "getCurrentFor(address)": {
        "notice": "Gets the most recent address, given a superseded one.  Addresses may be superseded multiple times, so this function needs to  follow the chain of addresses until it reaches the final, verified address."
      },
      "hasHash(address,bytes32)": {
        "notice": "Checks that the supplied hash is associated with the given address."
      },
      "holderAt(uint256)": {
        "notice": "By counting the number of token holders using `holderCount`  you can retrieve the complete list of token holders, one at a time.  It MUST throw if `index >= holderCount()`."
      },
      "holderCount()": {
        "notice": "The number of addresses that own tokens."
      },
      "isHolder(address)": {
        "notice": "Checks to see if the supplied address is a share holder."
      },
      "isSuperseded(address)": {
        "notice": "Checks to see if the supplied address was superseded."
      },
      "isVerified(address)": {
        "notice": "Tests that the supplied address is known to the contract."
      },
      "mint(address,uint256)": {
        "notice": "As each token is minted it is added to the shareholders array."
      },
      "removeVerified(address)": {
        "notice": "Remove a verified address, and the associated verification hash. If the address is  unkblock.timestampn to the contract then this does nothing. If the address is successfully removed, this  function must emit `VerifiedAddressRemoved(addr, msg.sender)`.  It MUST throw if an attempt is made to remove a verifiedAddress that owns Tokens."
      },
      "transfer(address,uint256)": {
        "notice": "The `transfer` function MUST NOT allow transfers to addresses that  have not been verified and added to the contract.  If the `to` address is not currently a shareholder then it MUST become one.  If the transfer will reduce `msg.sender`'s balance to 0 then that address  MUST be removed from the list of shareholders."
      },
      "transferFrom(address,address,uint256)": {
        "notice": "The `transferFrom` function MUST NOT allow transfers to addresses that  have not been verified and added to the contract.  If the `to` address is not currently a shareholder then it MUST become one.  If the transfer will reduce `from`'s balance to 0 then that address  MUST be removed from the list of shareholders."
      },
      "updateVerified(address,bytes32)": {
        "notice": "Update the hash for a verified address known to the contract.  Upon successful update of a verified address the contract must emit  `VerifiedAddressUpdated(addr, oldHash, hash, msg.sender)`.  If the hash is the same as the value already stored then  no `VerifiedAddressUpdated` event is to be emitted.  It MUST throw if the hash is zero, or if the address is unverified."
      }
    },
    "notice": "Rule 506(c) ----------- See https://www.sec.gov/smallbusiness/exemptofferings/rule506c Rule 506(c) permits issuers to broadly solicit and generally advertise an offering, provided that:  - all purchasers in the offering are accredited investors  - the issuer takes reasonable steps to verify purchasers accredited investor status and  - certain other conditions in Regulation D are satisfied Purchasers in a Rule 506(c) offering receive restricted securities. A company is required to file a notice with the Commission on Form D within 15 days after the first sale of securities in the offering. Although the Securities Act provides a federal preemption from state registration and qualification under Rule 506(c), the states still have authority to require notice filings and collect state fees.",
    "version": 1
  }
}