{
  "contractName": "ExemptLiquidityMarketExchange",
  "abi": [
    {
      "anonymous": false,
      "inputs": [
        {
          "indexed": true,
          "internalType": "string",
          "name": "currencyPair",
          "type": "string"
        },
        {
          "indexed": true,
          "internalType": "address",
          "name": "trader",
          "type": "address"
        },
        {
          "indexed": false,
          "internalType": "uint256",
          "name": "amount",
          "type": "uint256"
        },
        {
          "indexed": false,
          "internalType": "uint256",
          "name": "price",
          "type": "uint256"
        }
      ],
      "name": "BuyOrderPlaced",
      "type": "event"
    },
    {
      "anonymous": false,
      "inputs": [
        {
          "indexed": false,
          "internalType": "string",
          "name": "decryptedData",
          "type": "string"
        }
      ],
      "name": "Decrypted",
      "type": "event"
    },
    {
      "anonymous": false,
      "inputs": [
        {
          "indexed": false,
          "internalType": "bytes",
          "name": "encryptedData",
          "type": "bytes"
        }
      ],
      "name": "Encrypted",
      "type": "event"
    },
    {
      "anonymous": false,
      "inputs": [
        {
          "indexed": false,
          "internalType": "uint256",
          "name": "newPercentage",
          "type": "uint256"
        }
      ],
      "name": "FeePercentageUpdated",
      "type": "event"
    },
    {
      "anonymous": false,
      "inputs": [
        {
          "indexed": true,
          "internalType": "address",
          "name": "newRecipient",
          "type": "address"
        }
      ],
      "name": "FeeRecipientUpdated",
      "type": "event"
    },
    {
      "anonymous": false,
      "inputs": [
        {
          "indexed": false,
          "internalType": "address",
          "name": "sender",
          "type": "address"
        },
        {
          "indexed": false,
          "internalType": "string",
          "name": "symbol",
          "type": "string"
        },
        {
          "indexed": false,
          "internalType": "uint256",
          "name": "orderId",
          "type": "uint256"
        }
      ],
      "name": "ManipulativeBehaviorDetected",
      "type": "event"
    },
    {
      "anonymous": false,
      "inputs": [
        {
          "indexed": false,
          "internalType": "address",
          "name": "sender",
          "type": "address"
        },
        {
          "indexed": false,
          "internalType": "string",
          "name": "symbol",
          "type": "string"
        },
        {
          "indexed": false,
          "internalType": "uint256",
          "name": "orderId",
          "type": "uint256"
        }
      ],
      "name": "MarketAbuseDetetcted",
      "type": "event"
    },
    {
      "anonymous": false,
      "inputs": [
        {
          "indexed": true,
          "internalType": "string",
          "name": "currencyPair",
          "type": "string"
        },
        {
          "indexed": true,
          "internalType": "address",
          "name": "trader",
          "type": "address"
        },
        {
          "indexed": false,
          "internalType": "uint256",
          "name": "amount",
          "type": "uint256"
        },
        {
          "indexed": false,
          "internalType": "uint256",
          "name": "price",
          "type": "uint256"
        }
      ],
      "name": "SellOrderPlaced",
      "type": "event"
    },
    {
      "anonymous": false,
      "inputs": [
        {
          "indexed": false,
          "internalType": "address",
          "name": "_sender",
          "type": "address"
        }
      ],
      "name": "Sender",
      "type": "event"
    },
    {
      "anonymous": false,
      "inputs": [
        {
          "indexed": true,
          "internalType": "string",
          "name": "currencyPair",
          "type": "string"
        },
        {
          "indexed": true,
          "internalType": "address",
          "name": "buyer",
          "type": "address"
        },
        {
          "indexed": true,
          "internalType": "address",
          "name": "seller",
          "type": "address"
        },
        {
          "indexed": false,
          "internalType": "uint256",
          "name": "amount",
          "type": "uint256"
        },
        {
          "indexed": false,
          "internalType": "uint256",
          "name": "price",
          "type": "uint256"
        }
      ],
      "name": "TradeExecuted",
      "type": "event"
    },
    {
      "anonymous": false,
      "inputs": [
        {
          "indexed": false,
          "internalType": "address",
          "name": "sender",
          "type": "address"
        },
        {
          "indexed": false,
          "internalType": "uint256",
          "name": "amount",
          "type": "uint256"
        }
      ],
      "name": "ValueTransferred",
      "type": "event"
    },
    {
      "inputs": [],
      "name": "FeePercentage",
      "outputs": [
        {
          "internalType": "uint256",
          "name": "",
          "type": "uint256"
        }
      ],
      "stateMutability": "view",
      "type": "function",
      "constant": true
    },
    {
      "inputs": [
        {
          "internalType": "string",
          "name": "",
          "type": "string"
        },
        {
          "internalType": "uint256",
          "name": "",
          "type": "uint256"
        }
      ],
      "name": "buyOrders",
      "outputs": [
        {
          "internalType": "uint256",
          "name": "orderId",
          "type": "uint256"
        },
        {
          "internalType": "address",
          "name": "wallet",
          "type": "address"
        },
        {
          "internalType": "uint256",
          "name": "quantity",
          "type": "uint256"
        },
        {
          "internalType": "uint256",
          "name": "price",
          "type": "uint256"
        },
        {
          "internalType": "uint256",
          "name": "paid",
          "type": "uint256"
        }
      ],
      "stateMutability": "view",
      "type": "function",
      "constant": true
    },
    {
      "inputs": [
        {
          "internalType": "bytes",
          "name": "key",
          "type": "bytes"
        },
        {
          "internalType": "bytes",
          "name": "encryptedData",
          "type": "bytes"
        }
      ],
      "name": "decrypt",
      "outputs": [
        {
          "internalType": "string",
          "name": "",
          "type": "string"
        }
      ],
      "stateMutability": "pure",
      "type": "function",
      "constant": true
    },
    {
      "inputs": [
        {
          "internalType": "bytes",
          "name": "encryptedData",
          "type": "bytes"
        },
        {
          "internalType": "bytes",
          "name": "key",
          "type": "bytes"
        }
      ],
      "name": "decryptAndEmit",
      "outputs": [],
      "stateMutability": "nonpayable",
      "type": "function"
    },
    {
      "inputs": [
        {
          "internalType": "bytes",
          "name": "key",
          "type": "bytes"
        },
        {
          "internalType": "string",
          "name": "data",
          "type": "string"
        }
      ],
      "name": "encrypt",
      "outputs": [
        {
          "internalType": "bytes",
          "name": "",
          "type": "bytes"
        }
      ],
      "stateMutability": "pure",
      "type": "function",
      "constant": true
    },
    {
      "inputs": [
        {
          "internalType": "string",
          "name": "data",
          "type": "string"
        },
        {
          "internalType": "bytes",
          "name": "key",
          "type": "bytes"
        }
      ],
      "name": "encryptAndEmit",
      "outputs": [],
      "stateMutability": "nonpayable",
      "type": "function"
    },
    {
      "inputs": [],
      "name": "feeRecipient",
      "outputs": [
        {
          "internalType": "address",
          "name": "",
          "type": "address"
        }
      ],
      "stateMutability": "view",
      "type": "function",
      "constant": true
    },
    {
      "inputs": [],
      "name": "getOwner",
      "outputs": [
        {
          "internalType": "address",
          "name": "",
          "type": "address"
        }
      ],
      "stateMutability": "view",
      "type": "function",
      "constant": true
    },
    {
      "inputs": [
        {
          "internalType": "string",
          "name": "",
          "type": "string"
        }
      ],
      "name": "highestBid",
      "outputs": [
        {
          "internalType": "uint256",
          "name": "",
          "type": "uint256"
        }
      ],
      "stateMutability": "view",
      "type": "function",
      "constant": true
    },
    {
      "inputs": [
        {
          "internalType": "string",
          "name": "",
          "type": "string"
        }
      ],
      "name": "lowestAsk",
      "outputs": [
        {
          "internalType": "uint256",
          "name": "",
          "type": "uint256"
        }
      ],
      "stateMutability": "view",
      "type": "function",
      "constant": true
    },
    {
      "inputs": [
        {
          "internalType": "string",
          "name": "",
          "type": "string"
        }
      ],
      "name": "nextOrderId",
      "outputs": [
        {
          "internalType": "uint256",
          "name": "",
          "type": "uint256"
        }
      ],
      "stateMutability": "view",
      "type": "function",
      "constant": true
    },
    {
      "inputs": [],
      "name": "owner",
      "outputs": [
        {
          "internalType": "address",
          "name": "",
          "type": "address"
        }
      ],
      "stateMutability": "view",
      "type": "function",
      "constant": true
    },
    {
      "inputs": [
        {
          "internalType": "string",
          "name": "",
          "type": "string"
        },
        {
          "internalType": "uint256",
          "name": "",
          "type": "uint256"
        }
      ],
      "name": "sellOrders",
      "outputs": [
        {
          "internalType": "uint256",
          "name": "orderId",
          "type": "uint256"
        },
        {
          "internalType": "address",
          "name": "wallet",
          "type": "address"
        },
        {
          "internalType": "uint256",
          "name": "quantity",
          "type": "uint256"
        },
        {
          "internalType": "uint256",
          "name": "price",
          "type": "uint256"
        },
        {
          "internalType": "uint256",
          "name": "paid",
          "type": "uint256"
        }
      ],
      "stateMutability": "view",
      "type": "function",
      "constant": true
    },
    {
      "inputs": [
        {
          "internalType": "address",
          "name": "catAddress",
          "type": "address"
        },
        {
          "internalType": "address",
          "name": "bestbooksAddress",
          "type": "address"
        },
        {
          "internalType": "address",
          "name": "investorManagerAddress",
          "type": "address"
        },
        {
          "internalType": "address",
          "name": "tokenManagerAddress",
          "type": "address"
        },
        {
          "internalType": "address",
          "name": "stockCertificateAddress",
          "type": "address"
        },
        {
          "internalType": "address",
          "name": "bondCertificateAddress",
          "type": "address"
        },
        {
          "internalType": "address",
          "name": "securityMetaAddress",
          "type": "address"
        },
        {
          "internalType": "address",
          "name": "exchangeFeeAddress",
          "type": "address"
        }
      ],
      "name": "setContracts",
      "outputs": [],
      "stateMutability": "nonpayable",
      "type": "function"
    },
    {
      "inputs": [
        {
          "internalType": "address",
          "name": "investor",
          "type": "address"
        },
        {
          "internalType": "address",
          "name": "token",
          "type": "address"
        },
        {
          "internalType": "int256",
          "name": "amount",
          "type": "int256"
        }
      ],
      "name": "addShares",
      "outputs": [],
      "stateMutability": "nonpayable",
      "type": "function"
    },
    {
      "inputs": [
        {
          "internalType": "address",
          "name": "investor",
          "type": "address"
        },
        {
          "internalType": "address",
          "name": "token",
          "type": "address"
        }
      ],
      "name": "getShares",
      "outputs": [
        {
          "internalType": "int256",
          "name": "",
          "type": "int256"
        }
      ],
      "stateMutability": "view",
      "type": "function",
      "constant": true
    },
    {
      "inputs": [
        {
          "internalType": "address",
          "name": "from",
          "type": "address"
        },
        {
          "internalType": "address",
          "name": "to",
          "type": "address"
        },
        {
          "internalType": "address",
          "name": "token",
          "type": "address"
        },
        {
          "internalType": "int256",
          "name": "amount",
          "type": "int256"
        }
      ],
      "name": "transferShares",
      "outputs": [],
      "stateMutability": "nonpayable",
      "type": "function"
    },
    {
      "inputs": [],
      "name": "getContracts",
      "outputs": [
        {
          "internalType": "address",
          "name": "",
          "type": "address"
        },
        {
          "internalType": "address",
          "name": "",
          "type": "address"
        },
        {
          "internalType": "address",
          "name": "",
          "type": "address"
        },
        {
          "internalType": "address",
          "name": "",
          "type": "address"
        },
        {
          "internalType": "address",
          "name": "",
          "type": "address"
        },
        {
          "internalType": "address",
          "name": "",
          "type": "address"
        },
        {
          "internalType": "address",
          "name": "",
          "type": "address"
        },
        {
          "internalType": "address",
          "name": "",
          "type": "address"
        }
      ],
      "stateMutability": "view",
      "type": "function",
      "constant": true
    },
    {
      "inputs": [
        {
          "internalType": "uint256",
          "name": "value",
          "type": "uint256"
        }
      ],
      "name": "setThreshold",
      "outputs": [],
      "stateMutability": "nonpayable",
      "type": "function"
    },
    {
      "inputs": [
        {
          "internalType": "uint256",
          "name": "value",
          "type": "uint256"
        }
      ],
      "name": "setPriceThreshold",
      "outputs": [],
      "stateMutability": "nonpayable",
      "type": "function"
    },
    {
      "inputs": [
        {
          "internalType": "address",
          "name": "wallet",
          "type": "address"
        }
      ],
      "name": "setFeeRecipient",
      "outputs": [],
      "stateMutability": "nonpayable",
      "type": "function"
    },
    {
      "inputs": [
        {
          "internalType": "uint256",
          "name": "fee",
          "type": "uint256"
        }
      ],
      "name": "setFee",
      "outputs": [],
      "stateMutability": "nonpayable",
      "type": "function"
    },
    {
      "inputs": [
        {
          "internalType": "string",
          "name": "symbol",
          "type": "string"
        },
        {
          "internalType": "address",
          "name": "tokenAddress",
          "type": "address"
        }
      ],
      "name": "setOfferingContractAddress",
      "outputs": [],
      "stateMutability": "nonpayable",
      "type": "function"
    },
    {
      "inputs": [
        {
          "internalType": "string",
          "name": "symbol",
          "type": "string"
        }
      ],
      "name": "getOrders",
      "outputs": [
        {
          "components": [
            {
              "internalType": "uint256",
              "name": "orderId",
              "type": "uint256"
            },
            {
              "internalType": "address",
              "name": "wallet",
              "type": "address"
            },
            {
              "internalType": "uint256",
              "name": "quantity",
              "type": "uint256"
            },
            {
              "internalType": "uint256",
              "name": "price",
              "type": "uint256"
            },
            {
              "internalType": "uint256",
              "name": "paid",
              "type": "uint256"
            }
          ],
          "internalType": "struct ExemptLiquidityMarketExchange.Order[]",
          "name": "",
          "type": "tuple[]"
        },
        {
          "components": [
            {
              "internalType": "uint256",
              "name": "orderId",
              "type": "uint256"
            },
            {
              "internalType": "address",
              "name": "wallet",
              "type": "address"
            },
            {
              "internalType": "uint256",
              "name": "quantity",
              "type": "uint256"
            },
            {
              "internalType": "uint256",
              "name": "price",
              "type": "uint256"
            },
            {
              "internalType": "uint256",
              "name": "paid",
              "type": "uint256"
            }
          ],
          "internalType": "struct ExemptLiquidityMarketExchange.Order[]",
          "name": "",
          "type": "tuple[]"
        }
      ],
      "stateMutability": "view",
      "type": "function",
      "constant": true
    },
    {
      "inputs": [
        {
          "internalType": "string",
          "name": "symbol",
          "type": "string"
        }
      ],
      "name": "quote",
      "outputs": [
        {
          "internalType": "uint256",
          "name": "",
          "type": "uint256"
        },
        {
          "internalType": "uint256",
          "name": "",
          "type": "uint256"
        }
      ],
      "stateMutability": "view",
      "type": "function",
      "constant": true
    },
    {
      "inputs": [
        {
          "internalType": "address",
          "name": "wallet",
          "type": "address"
        },
        {
          "internalType": "string",
          "name": "symbol",
          "type": "string"
        },
        {
          "internalType": "uint256",
          "name": "quantity",
          "type": "uint256"
        },
        {
          "internalType": "uint256",
          "name": "price",
          "type": "uint256"
        },
        {
          "internalType": "uint256",
          "name": "amount",
          "type": "uint256"
        }
      ],
      "name": "buy",
      "outputs": [],
      "stateMutability": "nonpayable",
      "type": "function"
    },
    {
      "inputs": [
        {
          "internalType": "address",
          "name": "wallet",
          "type": "address"
        },
        {
          "internalType": "string",
          "name": "symbol",
          "type": "string"
        },
        {
          "internalType": "uint256",
          "name": "orderId",
          "type": "uint256"
        }
      ],
      "name": "cancelBuy",
      "outputs": [],
      "stateMutability": "nonpayable",
      "type": "function"
    },
    {
      "inputs": [
        {
          "internalType": "address",
          "name": "wallet",
          "type": "address"
        },
        {
          "internalType": "string",
          "name": "symbol",
          "type": "string"
        },
        {
          "internalType": "uint256",
          "name": "quantity",
          "type": "uint256"
        },
        {
          "internalType": "uint256",
          "name": "price",
          "type": "uint256"
        }
      ],
      "name": "sell",
      "outputs": [],
      "stateMutability": "nonpayable",
      "type": "function"
    },
    {
      "inputs": [
        {
          "internalType": "address",
          "name": "wallet",
          "type": "address"
        },
        {
          "internalType": "string",
          "name": "symbol",
          "type": "string"
        },
        {
          "internalType": "uint256",
          "name": "orderId",
          "type": "uint256"
        }
      ],
      "name": "cancelSell",
      "outputs": [],
      "stateMutability": "nonpayable",
      "type": "function"
    },
    {
      "inputs": [
        {
          "internalType": "string",
          "name": "symbol",
          "type": "string"
        }
      ],
      "name": "detectMarketAbuse",
      "outputs": [
        {
          "internalType": "bool",
          "name": "",
          "type": "bool"
        }
      ],
      "stateMutability": "view",
      "type": "function",
      "constant": true
    },
    {
      "inputs": [
        {
          "internalType": "string",
          "name": "symbol",
          "type": "string"
        },
        {
          "internalType": "uint256",
          "name": "orderId",
          "type": "uint256"
        }
      ],
      "name": "detectManipulativeBehaviorDetected",
      "outputs": [
        {
          "internalType": "bool",
          "name": "",
          "type": "bool"
        }
      ],
      "stateMutability": "view",
      "type": "function",
      "constant": true
    },
    {
      "inputs": [
        {
          "internalType": "string",
          "name": "symbol",
          "type": "string"
        },
        {
          "internalType": "address",
          "name": "wallet",
          "type": "address"
        }
      ],
      "name": "addInvestor",
      "outputs": [],
      "stateMutability": "nonpayable",
      "type": "function"
    },
    {
      "inputs": [
        {
          "internalType": "address",
          "name": "investor",
          "type": "address"
        },
        {
          "internalType": "uint256",
          "name": "investor_type",
          "type": "uint256"
        },
        {
          "internalType": "string",
          "name": "jurisdiction",
          "type": "string"
        }
      ],
      "name": "addInvestor",
      "outputs": [],
      "stateMutability": "nonpayable",
      "type": "function"
    },
    {
      "inputs": [
        {
          "internalType": "string",
          "name": "symbol",
          "type": "string"
        },
        {
          "internalType": "address",
          "name": "wallet",
          "type": "address"
        }
      ],
      "name": "isInvestor",
      "outputs": [
        {
          "internalType": "bool",
          "name": "",
          "type": "bool"
        }
      ],
      "stateMutability": "view",
      "type": "function",
      "constant": true
    },
    {
      "inputs": [
        {
          "internalType": "address",
          "name": "wallet",
          "type": "address"
        }
      ],
      "name": "getInvestor",
      "outputs": [
        {
          "internalType": "address",
          "name": "",
          "type": "address"
        },
        {
          "internalType": "bool",
          "name": "",
          "type": "bool"
        },
        {
          "internalType": "string",
          "name": "",
          "type": "string"
        },
        {
          "internalType": "uint256",
          "name": "",
          "type": "uint256"
        }
      ],
      "stateMutability": "view",
      "type": "function",
      "constant": true
    },
    {
      "inputs": [
        {
          "internalType": "address",
          "name": "tokenAddress",
          "type": "address"
        },
        {
          "internalType": "address",
          "name": "issuer",
          "type": "address"
        },
        {
          "internalType": "string",
          "name": "name",
          "type": "string"
        },
        {
          "internalType": "string",
          "name": "symbol",
          "type": "string"
        },
        {
          "internalType": "uint256",
          "name": "totalSupply",
          "type": "uint256"
        },
        {
          "internalType": "string",
          "name": "regulation",
          "type": "string"
        }
      ],
      "name": "assignToken",
      "outputs": [],
      "stateMutability": "nonpayable",
      "type": "function"
    },
    {
      "inputs": [
        {
          "internalType": "string",
          "name": "symbol",
          "type": "string"
        }
      ],
      "name": "getToken",
      "outputs": [
        {
          "internalType": "address",
          "name": "",
          "type": "address"
        }
      ],
      "stateMutability": "view",
      "type": "function",
      "constant": true
    },
    {
      "inputs": [
        {
          "internalType": "address",
          "name": "tokenAddress",
          "type": "address"
        },
        {
          "internalType": "string",
          "name": "symbol",
          "type": "string"
        },
        {
          "internalType": "address",
          "name": "investor",
          "type": "address"
        },
        {
          "internalType": "uint256",
          "name": "initialBalance",
          "type": "uint256"
        }
      ],
      "name": "issueStockCertificate",
      "outputs": [
        {
          "internalType": "uint256",
          "name": "",
          "type": "uint256"
        }
      ],
      "stateMutability": "nonpayable",
      "type": "function"
    },
    {
      "inputs": [
        {
          "internalType": "address",
          "name": "from",
          "type": "address"
        },
        {
          "internalType": "address",
          "name": "tokenAddress",
          "type": "address"
        },
        {
          "internalType": "uint256",
          "name": "certificateId",
          "type": "uint256"
        },
        {
          "internalType": "address",
          "name": "to",
          "type": "address"
        },
        {
          "internalType": "uint256",
          "name": "amount",
          "type": "uint256"
        }
      ],
      "name": "transferStockCertificate",
      "outputs": [],
      "stateMutability": "nonpayable",
      "type": "function"
    },
    {
      "inputs": [
        {
          "internalType": "address",
          "name": "tokenAddress",
          "type": "address"
        },
        {
          "internalType": "uint256",
          "name": "certificateId",
          "type": "uint256"
        }
      ],
      "name": "getStockCertificateBalance",
      "outputs": [
        {
          "internalType": "uint256",
          "name": "",
          "type": "uint256"
        }
      ],
      "stateMutability": "view",
      "type": "function",
      "constant": true
    },
    {
      "inputs": [
        {
          "internalType": "address",
          "name": "investor",
          "type": "address"
        }
      ],
      "name": "getStockInvestorCertificates",
      "outputs": [
        {
          "internalType": "uint256[]",
          "name": "",
          "type": "uint256[]"
        }
      ],
      "stateMutability": "view",
      "type": "function",
      "constant": true
    },
    {
      "inputs": [
        {
          "internalType": "address",
          "name": "tokenAddress",
          "type": "address"
        },
        {
          "internalType": "address",
          "name": "wallet",
          "type": "address"
        },
        {
          "internalType": "uint256",
          "name": "certificateId",
          "type": "uint256"
        }
      ],
      "name": "isStockCertificateValid",
      "outputs": [
        {
          "internalType": "bool",
          "name": "",
          "type": "bool"
        }
      ],
      "stateMutability": "view",
      "type": "function",
      "constant": true
    },
    {
      "inputs": [
        {
          "internalType": "address",
          "name": "tokenAddress",
          "type": "address"
        },
        {
          "internalType": "string",
          "name": "cusipNumber",
          "type": "string"
        }
      ],
      "name": "assignCUSIPtoToken",
      "outputs": [],
      "stateMutability": "nonpayable",
      "type": "function"
    },
    {
      "inputs": [
        {
          "internalType": "address",
          "name": "tokenAddress",
          "type": "address"
        }
      ],
      "name": "getCUSIP",
      "outputs": [
        {
          "internalType": "string",
          "name": "",
          "type": "string"
        }
      ],
      "stateMutability": "view",
      "type": "function",
      "constant": true
    },
    {
      "inputs": [
        {
          "internalType": "address",
          "name": "tokenAddress",
          "type": "address"
        },
        {
          "internalType": "string",
          "name": "isinNumber",
          "type": "string"
        }
      ],
      "name": "assignISINtoToken",
      "outputs": [],
      "stateMutability": "nonpayable",
      "type": "function"
    },
    {
      "inputs": [
        {
          "internalType": "address",
          "name": "tokenAddress",
          "type": "address"
        }
      ],
      "name": "getISIN",
      "outputs": [
        {
          "internalType": "string",
          "name": "",
          "type": "string"
        }
      ],
      "stateMutability": "view",
      "type": "function",
      "constant": true
    },
    {
      "inputs": [
        {
          "internalType": "address",
          "name": "tokenAddress",
          "type": "address"
        },
        {
          "internalType": "string",
          "name": "secFileNumber",
          "type": "string"
        }
      ],
      "name": "assignFileNumber",
      "outputs": [],
      "stateMutability": "nonpayable",
      "type": "function"
    },
    {
      "inputs": [
        {
          "internalType": "address",
          "name": "tokenAddress",
          "type": "address"
        }
      ],
      "name": "getFileNumber",
      "outputs": [
        {
          "internalType": "string",
          "name": "",
          "type": "string"
        }
      ],
      "stateMutability": "view",
      "type": "function",
      "constant": true
    },
    {
      "inputs": [
        {
          "internalType": "address",
          "name": "tokenAddress",
          "type": "address"
        },
        {
          "internalType": "uint256",
          "name": "index",
          "type": "uint256"
        },
        {
          "internalType": "string",
          "name": "certificateNumber",
          "type": "string"
        }
      ],
      "name": "assignCertificateNumber",
      "outputs": [],
      "stateMutability": "nonpayable",
      "type": "function"
    },
    {
      "inputs": [
        {
          "internalType": "address",
          "name": "tokenAddress",
          "type": "address"
        },
        {
          "internalType": "uint256",
          "name": "index",
          "type": "uint256"
        }
      ],
      "name": "getCertificateNumber",
      "outputs": [
        {
          "internalType": "string",
          "name": "",
          "type": "string"
        }
      ],
      "stateMutability": "view",
      "type": "function",
      "constant": true
    }
  ],
  "bytecode": "0x60806040526001601255600a601355600560145534801561001f57600080fd5b506000805433600160a060020a03199182168117835560018054909216179055615e9f9081906200005090396000f3fe608060405234801561001057600080fd5b50600436106102475760e060020a60003504621a1c92811461024c5780623920401461026157806301a4f40e14610287578063088f0dc2146102aa5780630eca36cb146102cb57806312e01840146102de5780631840cb21146102fe57806320b140c4146103115780632134374414610324578063255ce3831461033757806328bc46271461034a5780633ab81105146103755780633fb0692814610388578063469048401461039b57806348b440d9146103bb5780634b9f4b04146103ce5780634fb52c70146103e157806351d55964146103f4578063551714f71461040757806359b4cc7c1461044a57806359d37d8a1461047557806361f156501461048857806362afeaa81461049b57806364bf7cdc146104ae57806369fe0e2d146104c157806372503ac8146104d45780637705d153146104e757806377d66687146104fa5780637ab71c2d14610525578063882b5a7314610538578063893d20e81461054b5780638b2a76de1461055c5780638da5cb5b1461057c5780638f35a75e1461058f5780638f740a34146105b2578063944374ec146105c5578063960bfe04146105d8578063971a840f146105eb57806398fe9dfb146103bb5780639ad8d6f7146105fe578063a8465d4d14610611578063a9e6091f14610624578063c1733f6814610637578063c3a2a93a1461064a578063db8f6a7e146106a4578063dc03720e146106b7578063e28797d2146106ca578063e74b981b146106d3578063eb73238b146106e6578063f42e7699146106f9575b600080fd5b61025f61025a366004614837565b61071a565b005b61027461026f36600461488d565b6107b9565b6040519081526020015b60405180910390f35b61029a61029536600461498d565b6107e6565b604051901515815260200161027e565b6102bd6102b83660046149c1565b61098d565b60405161027e929190614a02565b61029a6102d9366004614a10565b6109de565b6102f16102ec366004614a51565b610a8c565b60405161027e9190614abe565b61025f61030c366004614a10565b610b39565b6102f161031f366004614a51565b610c0f565b61025f610332366004614ad1565b610c70565b61025f610345366004614b3f565b611706565b61027461035836600461498d565b8051602081830181018051600d8252928201919093012091525481565b61025f610383366004614ba2565b611750565b61025f610396366004614bfd565b611ba1565b6011546103ae90600160a060020a031681565b60405161027e9190614c58565b6102f16103c9366004614b3f565b611c48565b61025f6103dc366004614c6c565b611ca0565b61025f6103ef366004614cc0565b611d02565b61025f610402366004614cd9565b611d34565b61041a610415366004614d2a565b611ed0565b60408051958652600160a060020a039094166020860152928401919091526060830152608082015260a00161027e565b61027461045836600461498d565b8051602081830181018051600f8252928201919093012091525481565b61025f610483366004614d6e565b611f37565b61025f610496366004614dc9565b611fd3565b61029a6104a9366004614837565b61296a565b61025f6104bc366004614e2f565b6129ce565b61025f6104cf366004614cc0565b612a2f565b6102746104e2366004614e87565b612af9565b61025f6104f5366004614837565b612baf565b61027461050836600461498d565b8051602081830181018051600e8252928201919093012091525481565b6102f1610533366004614a51565b612c23565b610274610546366004614ef6565b612c84565b600054600160a060020a03166103ae565b61056f61056a366004614a51565b612d2f565b60405161027e9190614f22565b6001546103ae90600160a060020a031681565b6105a261059d366004614a51565b612dd5565b60405161027e9493929190614f66565b61025f6105c0366004614b3f565b612e90565b61041a6105d3366004614d2a565b612ecd565b61025f6105e6366004614cc0565b612ef8565b61025f6105f9366004614c6c565b612f2a565b61025f61060c366004614fa3565b612f8c565b61025f61061f366004614ba2565b613047565b6102f1610632366004614ef6565b6133e8565b6103ae6106453660046149c1565b613490565b610652613534565b60408051600160a060020a03998a16815297891660208901529588169587019590955292861660608601529085166080850152841660a0840152831660c083015290911660e08201526101000161027e565b61029a6106b2366004614d2a565b6135b9565b61025f6106c536600461504c565b61386b565b61027460125481565b61025f6106e1366004614a51565b613916565b61025f6106f4366004614c6c565b61398d565b61070c6107073660046149c1565b6139ef565b60405161027e929190615184565b600454600160a060020a031661074e5760405160e560020a62461bcd028152600401610745906151b2565b60405180910390fd5b6004805460405160e160020a620d0e49028152600160a060020a0390911691621a1c92916107829187918791879101615222565b600060405180830381600087803b15801561079c57600080fd5b505af11580156107b0573d6000803e3d6000fd5b50505050505050565b600160a060020a038083166000908152601060209081526040808320938516835292905220545b92915050565b60008060005b600b846040516107fc919061524f565b9081526040519081900360200190205481101561087357600b84604051610823919061524f565b908152602001604051809103902081815481106108425761084261526b565b9060005260206000209060050201600301548261085f919061529f565b91508061086b816152b2565b9150506107ec565b506000600b84604051610886919061524f565b908152604051908190036020019020546108a090836152cb565b90506000805b600c866040516108b6919061524f565b9081526040519081900360200190205481101561092d57600c866040516108dd919061524f565b908152602001604051809103902081815481106108fc576108fc61526b565b90600052602060002090600502016003015482610919919061529f565b915080610925816152b2565b9150506108a6565b506000600c86604051610940919061524f565b9081526040519081900360200190205461095a90836152cb565b9050600061096884836152f1565b90506013548110610980575060019695505050505050565b5060009695505050505050565b600080600e84846040516109a2929190615304565b908152602001604051809103902054600f85856040516109c3929190615304565b908152602001604051809103902054915091505b9250929050565b600654600090600160a060020a0316610a0c5760405160e560020a62461bcd02815260040161074590615314565b60065460405160e160020a6337ee3cc9028152600160a060020a0390911690636fdc799290610a439087908790879060040161535c565b602060405180830381865afa158015610a60573d6000803e3d6000fd5b505050506040513d601f19601f82011682018060405250810190610a849190615390565b949350505050565b600854606090600160a060020a0316610aba5760405160e560020a62461bcd028152600401610745906153ab565b60085460405160e660020a624b8061028152600160a060020a03909116906312e0184090610aec908590600401614c58565b600060405180830381865afa158015610b09573d6000803e3d6000fd5b505050506040513d6000823e601f3d908101601f19168201604052610b319190810190615434565b90505b919050565b6004805460405160e060020a633af32abf0281528592600160a060020a0390921691633af32abf91610b6d91859101614c58565b602060405180830381865afa158015610b8a573d6000803e3d6000fd5b505050506040513d601f19601f82011682018060405250810190610bae9190615390565b610bcd5760405160e560020a62461bcd02815260040161074590615468565b600160a060020a03808516600090815260106020908152604080832093871683529290529081208054849290610c0490849061549d565b909155505050505050565b600854606090600160a060020a0316610c3d5760405160e560020a62461bcd028152600401610745906153ab565b60085460405160e260020a63082c5031028152600160a060020a03909116906320b140c490610aec908590600401614c58565b600454600160a060020a0316610c9b5760405160e560020a62461bcd028152600401610745906151b2565b6000600160a060020a0316600a8686604051610cb8929190615304565b90815260405190819003602001902054600160a060020a031603610cf15760405160e560020a62461bcd028152600401610745906154c5565b6004805460405160e060020a633af32abf028152600160a060020a0390911691633af32abf91610d23918a9101614c58565b602060405180830381865afa158015610d40573d6000803e3d6000fd5b505050506040513d601f19601f82011682018060405250810190610d649190615390565b610d835760405160e560020a62461bcd028152600401610745906154f5565b600a8585604051610d95929190615304565b90815260408051602092819003830181205460e060020a63a1305aa50282529151600160a060020a039092169263a1305aa5926004808401938290030181865afa158015610de7573d6000803e3d6000fd5b505050506040513d601f19601f82011682018060405250810190610e0b9190615390565b610e2a5760405160e560020a62461bcd0281526004016107459061553c565b600083118015610e3a5750600082115b610e595760405160e560020a62461bcd02815260040161074590615573565b610e638383613baf565b8111610ec55760405160e560020a62461bcd02815260206004820152602560248201527f696e73756666696369656e742066756e647320746f20706c6163652062757920604482015260d960020a6437b93232b9026064820152608401610745565b600a8585604051610ed7929190615304565b90815260408051602092819003830181205460e160020a6362720d910282529151600160a060020a039092169263c4e41b22926004808401938290030181865afa158015610f29573d6000803e3d6000fd5b505050506040513d601f19601f82011682018060405250810190610f4d91906155aa565b600a8686604051610f5f929190615304565b90815260408051602092819003830181205460e360020a631bc569d30282529151600160a060020a039092169263de2b4e98926004808401938290030181865afa158015610fb1573d6000803e3d6000fd5b505050506040513d601f19601f82011682018060405250810190610fd591906155aa565b146110485760405160e560020a62461bcd02815260206004820152603760248201527f74726164696e672064697361626c656420756e74696c2066756e64696e6720726044820152604a60020a761bdd5b99081a185cc81899595b8818dbdb5c1b195d1959026064820152608401610745565b60006040518060a00160405280600d8888604051611067929190615304565b908152602001604051809103902054815260200188600160a060020a0316815260200185815260200184815260200183815250905080600b87876040516110af929190615304565b9081526020016040518091039020600d88886040516110cf929190615304565b908152602001604051809103902054815481106110ee576110ee61526b565b600091825260209182902083516005929092020190815582820151600182018054600160a060020a031916600160a060020a039092169190911790556040808401516002830155606084015160038301556080909301516004909101558151601f88018290048202810182019092528682526111a69190889088908190840183828082843760009201919091525050604051600d925061119291508a908a90615304565b9081526020016040518091039020546135b9565b156112aa57600080516020615e4a833981519152878787600d8a8a6040516111cf929190615304565b908152604051908190036020018120546111eb949392916155c3565b60405180910390a1600a8686604051611205929190615304565b908152604080519182900360200182205460e160020a6331b08877028352600060048401526024830191909152601e60448301527f4d616e6970756c6174697665204265686176696f7220446574656374656400006064830152600160a060020a03169063636110ee906084015b600060405180830381600087803b15801561128d57600080fd5b505af11580156112a1573d6000803e3d6000fd5b505050506107b0565b6112e986868080601f0160208091040260200160405190810160405280939291908181526020018383808284376000920191909152506107e692505050565b156113c7577fc9f16d690430c1232c143ea17b4e61f83151f3c81b954950a1c643c5499cc757878787600d8a8a604051611324929190615304565b90815260405190819003602001812054611340949392916155c3565b60405180910390a1600a868660405161135a929190615304565b908152604080519182900360200182205460e160020a6331b0887702835260006004840152602483019190915260156044830152605a60020a7413585c9ad95d0810589d5cd94811195d1958dd1959026064830152600160a060020a03169063636110ee90608401611273565b600d86866040516113d9929190615304565b90815260405190819003602001902080549060006113f6836152b2565b91905055506114058686613c2f565b61140f8686613f23565b86600160a060020a03168686604051611429929190615304565b60405180910390207f28fcad331ce72427e449d96d1b7d27159236e010d2f95d0bcedba96b8dbe38f58686604051611462929190614a02565b60405180910390a360025460405160e060020a63e9395679028152600481018690526000918991600160a060020a039091169063e939567990602401600060405180830381865afa1580156114bb573d6000803e3d6000fd5b505050506040513d6000823e601f3d908101601f191682016040526114e39190810190615434565b60025460405160e060020a63e939567902815260048101889052600160a060020a039091169063e939567990602401600060405180830381865afa15801561152f573d6000803e3d6000fd5b505050506040513d6000823e601f3d908101601f191682016040526115579190810190615434565b600254604051600160a060020a039091169063e939567990600d9061157f908e908e90615304565b9081526040519081900360200181205460e060020a63ffffffff84160282526115ae9160040190815260200190565b600060405180830381865afa1580156115cb573d6000803e3d6000fd5b505050506040513d6000823e601f3d908101601f191682016040526115f39190810190615434565b60405160200161160694939291906155f9565b60408051601f1981840301815282825260025460e060020a634ba1e1930284529151909350600160a060020a0390911691631e54b0d8918a918a918591634ba1e1939160048083019260009291908290030181865afa15801561166d573d6000803e3d6000fd5b505050506040513d6000823e601f3d908101601f191682016040526116959190810190615434565b856040518563ffffffff1660e060020a0281526004016116b894939291906156b3565b6020604051808303816000875af11580156116d7573d6000803e3d6000fd5b505050506040513d601f19601f820116820180604052508101906116fb91906155aa565b505050505050505050565b60006117128284611c48565b90507fa27928d5add138a9aa14ac096633f0067188f726004a234a0a7a6bbb917e405d816040516117439190614abe565b60405180910390a1505050565b600454600160a060020a031661177b5760405160e560020a62461bcd028152600401610745906151b2565b6000600160a060020a0316600a8484604051611798929190615304565b90815260405190819003602001902054600160a060020a0316036117d15760405160e560020a62461bcd028152600401610745906154c5565b6004805460405160e060020a633af32abf028152600160a060020a0390911691633af32abf9161180391889101614c58565b602060405180830381865afa158015611820573d6000803e3d6000fd5b505050506040513d601f19601f820116820180604052508101906118449190615390565b6118635760405160e560020a62461bcd028152600401610745906154f5565b3031806118b35760405160e560020a62461bcd0281526020600482015260186024820152604160020a7721b7b73a3930b1ba103430b9903737903130b630b731b297026044820152606401610745565b6000600b85856040516118c7929190615304565b908152602001604051809103902083815481106118e6576118e661526b565b600091825260209091206005909102016001810154909150600160a060020a0387811691161461195b5760405160e560020a62461bcd02815260206004820152601c60248201527f4e6f7420746865206f776e6572206f662074686973206f726465722e000000006044820152606401610745565b6004810154604051600b906119739088908890615304565b908152602001604051809103902084815481106119925761199261526b565b600091825260208220600590910201818155600181018054600160a060020a0319169055600281018290556003810182905560040155604051600080516020615e2a833981519152906119e8908990849061571f565b60405180910390a160025460405160e060020a63e9395679028152600481018690526000918991600160a060020a039091169063e939567990602401600060405180830381865afa158015611a41573d6000803e3d6000fd5b505050506040513d6000823e601f3d908101601f19168201604052611a699190810190615434565b60025460405160e060020a63e939567902815260048101869052600160a060020a039091169063e939567990602401600060405180830381865afa158015611ab5573d6000803e3d6000fd5b505050506040513d6000823e601f3d908101601f19168201604052611add9190810190615434565b604051602001611aef93929190615738565b60408051601f1981840301815282825260025460e060020a634ba1e1930284529151909350600160a060020a0390911691631e54b0d8918a918a918591634ba1e1939160048083019260009291908290030181865afa158015611b56573d6000803e3d6000fd5b505050506040513d6000823e601f3d908101601f19168201604052611b7e9190810190615434565b856040518563ffffffff1660e060020a0281526004016116b894939291906157c4565b600654600160a060020a0316611bcc5760405160e560020a62461bcd02815260040161074590615314565b60065460405160e060020a6307ec10bd028152600160a060020a038781166004830152868116602483015260448201869052848116606483015260848201849052909116906307ec10bd9060a401600060405180830381600087803b158015611c3457600080fd5b505af11580156116fb573d6000803e3d6000fd5b60606000825111611c9a5760405160e560020a62461bcd0281526020600482015260166024820152605060020a7544617461206d757374206e6f7420626520656d707479026044820152606401610745565b50919050565b600854600160a060020a0316611ccb5760405160e560020a62461bcd028152600401610745906153ab565b60085460405160e260020a6312e7d2c1028152600160a060020a0390911690634b9f4b04906107829086908690869060040161582c565b600054600160a060020a03163314611d2f5760405160e560020a62461bcd02815260040161074590615851565b601455565b6004805460405160e060020a633af32abf0281528592600160a060020a0390921691633af32abf91611d6891859101614c58565b602060405180830381865afa158015611d85573d6000803e3d6000fd5b505050506040513d601f19601f82011682018060405250810190611da99190615390565b611dc85760405160e560020a62461bcd02815260040161074590615468565b600160a060020a03808616600090815260106020908152604080832093871683529290522054821315611e405760405160e560020a62461bcd02815260206004820152601a60248201527f696e73756666696369656e7420746f6b656e2062616c616e63650000000000006044820152606401610745565b600160a060020a03808616600090815260106020908152604080832093871683529290522054611e70908361471f565b50600160a060020a03808516600090815260106020908152604080832093871683529290522054611ea19083614786565b50600080516020615e2a8339815191528583604051611ec192919061571f565b60405180910390a15050505050565b8151602081840181018051600b825292820191850191909120919052805482908110611efb57600080fd5b600091825260209091206005909102018054600182015460028301546003840154600490940154929550600160a060020a039091169350919085565b600854600160a060020a0316611f625760405160e560020a62461bcd028152600401610745906153ab565b60085460405160e160020a632ce9bec5028152600160a060020a03909116906359d37d8a90611f9b90879087908790879060040161587c565b600060405180830381600087803b158015611fb557600080fd5b505af1158015611fc9573d6000803e3d6000fd5b5050505050505050565b600454600160a060020a0316611ffe5760405160e560020a62461bcd028152600401610745906151b2565b6000600160a060020a0316600a858560405161201b929190615304565b90815260405190819003602001902054600160a060020a0316036120545760405160e560020a62461bcd028152600401610745906154c5565b6004805460405160e060020a633af32abf028152600160a060020a0390911691633af32abf9161208691899101614c58565b602060405180830381865afa1580156120a3573d6000803e3d6000fd5b505050506040513d601f19601f820116820180604052508101906120c79190615390565b6120e65760405160e560020a62461bcd028152600401610745906154f5565b600a84846040516120f8929190615304565b90815260408051602092819003830181205460e060020a63a1305aa50282529151600160a060020a039092169263a1305aa5926004808401938290030181865afa15801561214a573d6000803e3d6000fd5b505050506040513d601f19601f8201168201806040525081019061216e9190615390565b61218d5760405160e560020a62461bcd0281526004016107459061553c565b600082116121d45760405160e560020a62461bcd02815260206004820152600e6024820152609260020a6d125b9d985b1a5908185b5bdd5b9d026044820152606401610745565b6000811161221a5760405160e560020a62461bcd02815260206004820152600d6024820152609860020a6c496e76616c6964207072696365026044820152606401610745565b60008211801561222a5750600081115b6122495760405160e560020a62461bcd02815260040161074590615573565b600a848460405161225b929190615304565b90815260408051602092819003830181205460e160020a6362720d910282529151600160a060020a039092169263c4e41b22926004808401938290030181865afa1580156122ad573d6000803e3d6000fd5b505050506040513d601f19601f820116820180604052508101906122d191906155aa565b600a85856040516122e3929190615304565b90815260408051602092819003830181205460e360020a631bc569d30282529151600160a060020a039092169263de2b4e98926004808401938290030181865afa158015612335573d6000803e3d6000fd5b505050506040513d601f19601f8201168201806040525081019061235991906155aa565b146123cf5760405160e560020a62461bcd02815260206004820152603a60248201527f74726164696e672064697361626c656420756e74696c20696e697469616c206f60448201527f66666572696e6720686173206265656e20636f6d706c657465640000000000006064820152608401610745565b81600a85856040516123e2929190615304565b9081526040519081900360200181205460e160020a6344d796e7028252600160a060020a0316906389af2dce9061241d908990600401614c58565b602060405180830381865afa15801561243a573d6000803e3d6000fd5b505050506040513d601f19601f8201168201806040525081019061245e91906155aa565b10156124c25760405160e560020a62461bcd02815260206004820152602760248201527f696e73756666696369656e742062616c616e636520696e2073656c6c65727320604482015260ca60020a661858d8dbdd5b9d026064820152608401610745565b60006040518060a00160405280600d87876040516124e1929190615304565b908152602001604051809103902054815260200187600160a060020a031681526020018481526020018381526020016000815250905080600c868660405161252a929190615304565b9081526020016040518091039020600d878760405161254a929190615304565b908152602001604051809103902054815481106125695761256961526b565b60009182526020808320845160059390930201918255830151600182018054600160a060020a031916600160a060020a03928316179055604080850151600280850191909155606086015160038501556080909501516004938401559354935160e060020a63e939567902815291820187905291928992169063e939567990602401600060405180830381865afa158015612608573d6000803e3d6000fd5b505050506040513d6000823e601f3d908101601f191682016040526126309190810190615434565b60025460405160e060020a63e939567902815260048101879052600160a060020a039091169063e939567990602401600060405180830381865afa15801561267c573d6000803e3d6000fd5b505050506040513d6000823e601f3d908101601f191682016040526126a49190810190615434565b600254604051600160a060020a039091169063e939567990600d906126cc908d908d90615304565b9081526040519081900360200181205460e060020a63ffffffff84160282526126fb9160040190815260200190565b600060405180830381865afa158015612718573d6000803e3d6000fd5b505050506040513d6000823e601f3d908101601f191682016040526127409190810190615434565b60405160200161275394939291906158a5565b60408051601f1981840301815282825260025460e060020a634ba1e1930284529151909350600160a060020a0390911691631e54b0d891899189918591634ba1e1939160048083019260009291908290030181865afa1580156127ba573d6000803e3d6000fd5b505050506040513d6000823e601f3d908101601f191682016040526127e29190810190615434565b856040518563ffffffff1660e060020a0281526004016128059493929190615960565b6020604051808303816000875af1158015612824573d6000803e3d6000fd5b505050506040513d601f19601f8201168201806040525081019061284891906155aa565b5061289586868080601f01602080910402602001604051908101604052809392919081815260200183838082843760009201919091525050604051600d925061119291508a908a90615304565b156128be57600080516020615e4a833981519152878787600d8a8a6040516111cf929190615304565b600d86866040516128d0929190615304565b90815260405190819003602001902080549060006128ed836152b2565b91905055506128fc8686613c2f565b6129068686613f23565b86600160a060020a03168686604051612920929190615304565b60405180910390207f648ca708c2c66ac3475aee7ac07562246ad0ec231ec96941b3a78da300f65af68686604051612959929190614a02565b60405180910390a350505050505050565b600454600090600160a060020a03166129985760405160e560020a62461bcd028152600401610745906151b2565b6004805460405160e560020a6305316d87028152600160a060020a039091169163a62db0e091610a439188918891889101615222565b600454600160a060020a03166129f95760405160e560020a62461bcd028152600401610745906151b2565b6004805460405160e260020a63192fdf37028152600160a060020a03909116916364bf7cdc9161078291879187918791016159c2565b600054600160a060020a03163314612a5c5760405160e560020a62461bcd02815260040161074590615851565b6064811115612abe5760405160e560020a62461bcd02815260206004820152602260248201527f4665652070657263656e74616765206d75737420626520313030206f72206c65604482015260f060020a617373026064820152608401610745565b60128190556040518181527f74516f05eb4bd2461d57aa1e935ee553f86a3e02bfed7759f2f772915de3d9be9060200160405180910390a150565b600654600090600160a060020a0316612b275760405160e560020a62461bcd02815260040161074590615314565b60065460405160e060020a63d1c083ab028152600160a060020a039091169063d1c083ab90612b6290899089908990899089906004016159ea565b6020604051808303816000875af1158015612b81573d6000803e3d6000fd5b505050506040513d601f19601f82011682018060405250810190612ba591906155aa565b9695505050505050565b600054600160a060020a03163314612bdc5760405160e560020a62461bcd02815260040161074590615851565b80600a8484604051612bef929190615304565b9081526040519081900360200190208054600160a060020a0392909216600160a060020a0319909216919091179055505050565b600854606090600160a060020a0316612c515760405160e560020a62461bcd028152600401610745906153ab565b60085460405160e060020a637ab71c2d028152600160a060020a0390911690637ab71c2d90610aec908590600401614c58565b600654600090600160a060020a0316612cb25760405160e560020a62461bcd02815260040161074590615314565b60065460405160e560020a63054c8727028152600160a060020a039091169063a990e4e090612ce7908690869060040161571f565b602060405180830381865afa158015612d04573d6000803e3d6000fd5b505050506040513d601f19601f82011682018060405250810190612d2891906155aa565b9392505050565b600654606090600160a060020a0316612d5d5760405160e560020a62461bcd02815260040161074590615314565b60065460405160e060020a63fc52d545028152600160a060020a039091169063fc52d54590612d90908590600401614c58565b600060405180830381865afa158015612dad573d6000803e3d6000fd5b505050506040513d6000823e601f3d908101601f19168201604052610b319190810190615a21565b60045460009081906060908290600160a060020a0316612e0a5760405160e560020a62461bcd028152600401610745906151b2565b6004805460405160e160020a63479ad3af028152600160a060020a0390911691638f35a75e91612e3c91899101614c58565b600060405180830381865afa158015612e59573d6000803e3d6000fd5b505050506040513d6000823e601f3d908101601f19168201604052612e819190810190615ac5565b93509350935093509193509193565b6000612e9c8284611c48565b90507fb3037e531d036c1980fb05fb773b82653ea01c8c03775fc99d2df819f4d51449816040516117439190614abe565b8151602081840181018051600c825292820191850191909120919052805482908110611efb57600080fd5b600054600160a060020a03163314612f255760405160e560020a62461bcd02815260040161074590615851565b601355565b600854600160a060020a0316612f555760405160e560020a62461bcd028152600401610745906153ab565b60085460405160e060020a63971a840f028152600160a060020a039091169063971a840f906107829086908690869060040161582c565b600054600160a060020a03163314612fb95760405160e560020a62461bcd02815260040161074590615851565b60028054600160a060020a0319908116600160a060020a039a8b1617909155600380548216988a1698909817909755600480548816968916969096179095556005805487169488169490941790935560068054861692871692909217909155600780548516918616919091179055600880548416918516919091179055600980549092169216919091179055565b600454600160a060020a03166130725760405160e560020a62461bcd028152600401610745906151b2565b6000600160a060020a0316600a848460405161308f929190615304565b90815260405190819003602001902054600160a060020a0316036130c85760405160e560020a62461bcd028152600401610745906154c5565b6004805460405160e060020a633af32abf028152600160a060020a0390911691633af32abf916130fa91889101614c58565b602060405180830381865afa158015613117573d6000803e3d6000fd5b505050506040513d601f19601f8201168201806040525081019061313b9190615390565b61315a5760405160e560020a62461bcd028152600401610745906154f5565b6000600c848460405161316e929190615304565b9081526020016040518091039020828154811061318d5761318d61526b565b600091825260209091206005909102016001810154909150600160a060020a038681169116146132025760405160e560020a62461bcd02815260206004820152601c60248201527f6e6f7420746865206f776e6572206f662074686973206f726465722e000000006044820152606401610745565b600c8484604051613214929190615304565b908152602001604051809103902082815481106132335761323361526b565b60009182526020822060059190910201818155600181018054600160a060020a031916905560028082018390556003820183905560049182018390555460405160e060020a63e93956790281529182018590528791600160a060020a039091169063e939567990602401600060405180830381865afa1580156132ba573d6000803e3d6000fd5b505050506040513d6000823e601f3d908101601f191682016040526132e29190810190615434565b6040516020016132f3929190615b2d565b60408051601f1981840301815282825260025460e060020a634ba1e1930284529151909350600160a060020a0390911691631e54b0d891889188918591634ba1e1939160048083019260009291908290030181865afa15801561335a573d6000803e3d6000fd5b505050506040513d6000823e601f3d908101601f191682016040526133829190810190615434565b856040518563ffffffff1660e060020a0281526004016133a59493929190615b8e565b6020604051808303816000875af11580156133c4573d6000803e3d6000fd5b505050506040513d601f19601f820116820180604052508101906107b091906155aa565b600854606090600160a060020a03166134165760405160e560020a62461bcd028152600401610745906153ab565b60085460405160e060020a63a9e6091f028152600160a060020a039091169063a9e6091f9061344b908690869060040161571f565b600060405180830381865afa158015613468573d6000803e3d6000fd5b505050506040513d6000823e601f3d908101601f19168201604052612d289190810190615434565b600554600090600160a060020a03166134be5760405160e560020a62461bcd02815260040161074590615bf7565b60055460405160e360020a63182e67ed028152600160a060020a039091169063c1733f68906134f39086908690600401615c3b565b602060405180830381865afa158015613510573d6000803e3d6000fd5b505050506040513d601f19601f82011682018060405250810190612d289190615c4f565b600080548190819081908190819081908190600160a060020a031633146135705760405160e560020a62461bcd02815260040161074590615851565b5050600254600354600454600554600654600754600854600954600160a060020a039788169e9688169d509487169b509286169950908516975084169550831693509190911690565b600080600e846040516135cc919061524f565b908152602001604051809103902054600b856040516135eb919061524f565b9081526020016040518091039020848154811061360a5761360a61526b565b9060005260206000209060050201600301541161369057600b84604051613631919061524f565b908152602001604051809103902083815481106136505761365061526b565b906000526020600020906005020160030154600e85604051613672919061524f565b90815260200160405180910390205461368b91906152f1565b6136fa565b600e846040516136a0919061524f565b908152602001604051809103902054600b856040516136bf919061524f565b908152602001604051809103902084815481106136de576136de61526b565b9060005260206000209060050201600301546136fa91906152f1565b90506000600f8560405161370e919061524f565b908152602001604051809103902054600c8660405161372d919061524f565b9081526020016040518091039020858154811061374c5761374c61526b565b906000526020600020906005020160030154106137d257600f85604051613773919061524f565b908152602001604051809103902054600c86604051613792919061524f565b908152602001604051809103902085815481106137b1576137b161526b565b9060005260206000209060050201600301546137cd91906152f1565b61383c565b600c856040516137e2919061524f565b908152602001604051809103902084815481106138015761380161526b565b906000526020600020906005020160030154600f86604051613823919061524f565b90815260200160405180910390205461383c91906152f1565b905060145482101580613850575060145481115b15613860576001925050506107e0565b506000949350505050565b600554600160a060020a03166138965760405160e560020a62461bcd02815260040161074590615bf7565b60055460405160e160020a636e01b907028152600160a060020a039091169063dc03720e906138d9908c908c908c908c908c908c908c908c908c90600401615c6c565b600060405180830381600087803b1580156138f357600080fd5b505af1158015613907573d6000803e3d6000fd5b50505050505050505050505050565b600054600160a060020a031633146139435760405160e560020a62461bcd02815260040161074590615851565b60118054600160a060020a031916600160a060020a0383169081179091556040517f7a7b5a0a132f9e0581eb8527f66eae9ee89c2a3e79d4ac7e41a1f1f4d48a7fc290600090a250565b600854600160a060020a03166139b85760405160e560020a62461bcd028152600401610745906153ab565b60085460405160e060020a63eb73238b028152600160a060020a039091169063eb73238b906107829086908690869060040161582c565b6060806000600160a060020a0316600a8585604051613a0f929190615304565b90815260405190819003602001902054600160a060020a031603613a485760405160e560020a62461bcd028152600401610745906154c5565b600b8484604051613a5a929190615304565b9081526020016040518091039020600c8585604051613a7a929190615304565b908152602001604051809103902081805480602002602001604051908101604052809291908181526020016000905b82821015613b105760008481526020908190206040805160a0810182526005860290920180548352600180820154600160a060020a031684860152600282015492840192909252600381015460608401526004015460808301529083529092019101613aa9565b50505050915080805480602002602001604051908101604052809291908181526020016000905b82821015613b9e5760008481526020908190206040805160a0810182526005860290920180548352600180820154600160a060020a031684860152600282015492840192909252600381015460608401526004015460808301529083529092019101613b37565b505050509050915091509250929050565b600082820282158382048514151715613bc757600080fd5b82613bd285836152cb565b14612d285760405160e560020a62461bcd02815260206004820152602160248201527f536166654d6174683a206d756c7469706c69636174696f6e206f766572666c6f604482015260f860020a6077026064820152608401610745565b600080600b8484604051613c44929190615304565b9081526020016040518091039020600081548110613c6457613c6461526b565b906000526020600020906005020160030154600e8585604051613c88929190615304565b90815260405190819003602001902055600191505b600b8484604051613caf929190615304565b90815260405190819003602001902054821015613da857600e8484604051613cd8929190615304565b908152602001604051809103902054600b8585604051613cf9929190615304565b90815260200160405180910390208381548110613d1857613d1861526b565b9060005260206000209060050201600301541115613d9657600b8484604051613d42929190615304565b90815260200160405180910390208281548110613d6157613d6161526b565b906000526020600020906005020160030154600e8585604051613d85929190615304565b908152604051908190036020019020555b81613da0816152b2565b925050613c9d565b600c8484604051613dba929190615304565b9081526020016040518091039020600081548110613dda57613dda61526b565b906000526020600020906005020160030154600f8585604051613dfe929190615304565b908152604051908190036020019020555060015b600c8484604051613e24929190615304565b90815260405190819003602001902054811015613f1d57600f8484604051613e4d929190615304565b908152602001604051809103902054600c8585604051613e6e929190615304565b90815260200160405180910390208281548110613e8d57613e8d61526b565b9060005260206000209060050201600301541015613f0b57600c8484604051613eb7929190615304565b90815260200160405180910390208181548110613ed657613ed661526b565b906000526020600020906005020160030154600f8585604051613efa929190615304565b908152604051908190036020019020555b80613f15816152b2565b915050613e12565b50505050565b600b8282604051613f35929190615304565b908152604051908190036020019020541580613f705750600c8282604051613f5e929190615304565b90815260405190819003602001902054155b15613f79575050565b6000805b600b8484604051613f8f929190615304565b9081526040519081900360200190205482108015613fcd5750600c8484604051613fba929190615304565b9081526040519081900360200190205481105b15613f1d576000600b8585604051613fe6929190615304565b908152602001604051809103902083815481106140055761400561526b565b600091825260208083206040805160a0810182526005909402909101805484526001810154600160a060020a03169284019290925260028201548382015260038201546060840152600490910154608083015251909250600c9061406c9088908890615304565b9081526020016040518091039020838154811061408b5761408b61526b565b60009182526020918290206040805160a0810182526005909302909101805483526001810154600160a060020a031693830193909352600283015490820152600382015460608083018290526004909301546080830152918401519092501061471157600081604001518360400151111561410a578160400151614110565b82604001515b90506000826060015190508260200151600160a060020a03168460200151600160a060020a03168989604051614147929190615304565b60405180910390207f424d865df397536b12696fce4ae34f828fe8ac24675ef10042bae24c2578f0db8585604051614180929190614a02565b60405180910390a4600a888860405161419a929190615304565b9081526040516020918190038201812054858301519287015160e060020a6323b872dd028352600160a060020a03909116926323b872dd926141e19290879060040161535c565b6020604051808303816000875af1158015614200573d6000803e3d6000fd5b505050506040513d601f19601f820116820180604052508101906142249190615390565b508260400151846040015111614309578360400151600c898960405161424b929190615304565b9081526020016040518091039020868154811061426a5761426a61526b565b9060005260206000209060050201600201600082825461428a91906152f1565b9091555050604051600b906142a2908a908a90615304565b908152602001604051809103902086815481106142c1576142c161526b565b600091825260208220600590910201818155600181018054600160a060020a031916905560028101829055600381018290556004015585614301816152b2565b9650506143da565b8260400151600b8989604051614320929190615304565b9081526020016040518091039020878154811061433f5761433f61526b565b9060005260206000209060050201600201600082825461435f91906152f1565b9091555050604051600c90614377908a908a90615304565b908152602001604051809103902085815481106143965761439661526b565b600091825260208220600590910201818155600181018054600160a060020a0319169055600281018290556003810182905560040155846143d6816152b2565b9550505b60006064601254836143ec9190615cd7565b6143f691906152cb565b9050600081131561449557600954604051600160a060020a039091169063fa2a13ee90600a90614429908d908d90615304565b9081526040519081900360200181205460e060020a63ffffffff841602825261446291600160a060020a0390911690859060040161571f565b600060405180830381600087803b15801561447c57600080fd5b505af1158015614490573d6000803e3d6000fd5b505050505b6020848101519086015160025460405160e060020a63e9395679028152600481018790526000939291600160a060020a03169063e939567990602401600060405180830381865afa1580156144ee573d6000803e3d6000fd5b505050506040513d6000823e601f3d908101601f191682016040526145169190810190615434565b60025460405160e060020a63e939567902815260048101889052600160a060020a039091169063e939567990602401600060405180830381865afa158015614562573d6000803e3d6000fd5b505050506040513d6000823e601f3d908101601f1916820160405261458a9190810190615434565b60025460405160e060020a63e939567902815260048101889052600160a060020a039091169063e939567990602401600060405180830381865afa1580156145d6573d6000803e3d6000fd5b505050506040513d6000823e601f3d908101601f191682016040526145fe9190810190615434565b604051602001614612959493929190615cee565b60408051601f1981840301815282825260025460e060020a634ba1e1930284529151909350600160a060020a0390911691631e54b0d8918d918d918591634ba1e1939160048083019260009291908290030181865afa158015614679573d6000803e3d6000fd5b505050506040513d6000823e601f3d908101601f191682016040526146a19190810190615434565b856040518563ffffffff1660e060020a0281526004016146c49493929190615dc5565b6020604051808303816000875af11580156146e3573d6000803e3d6000fd5b505050506040513d601f19601f8201168201806040525081019061470791906155aa565b5050505050614718565b5050613f1d565b5050613f7d565b6000828213156147745760405160e560020a62461bcd02815260206004820152601e60248201527f536166654d6174683a207375627472616374696f6e206f766572666c6f7700006044820152606401610745565b818303821984018114612d2857600080fd5b600082820183811215612d285760405160e560020a62461bcd02815260206004820152601b60248201527f536166654d6174683a206164646974696f6e206f766572666c6f7700000000006044820152606401610745565b60008083601f8401126147f057600080fd5b5081356001604060020a0381111561480757600080fd5b6020830191508360208285010111156109d757600080fd5b600160a060020a038116811461483457600080fd5b50565b60008060006040848603121561484c57600080fd5b83356001604060020a0381111561486257600080fd5b61486e868287016147de565b90945092505060208401356148828161481f565b809150509250925092565b600080604083850312156148a057600080fd5b82356148ab8161481f565b915060208301356148bb8161481f565b809150509250929050565b60e060020a634e487b710260009081526041600452602490fd5b604051601f8201601f191681016001604060020a0381118282101715614908576149086148c6565b604052919050565b60006001604060020a03821115614929576149296148c6565b50601f01601f191660200190565b600082601f83011261494857600080fd5b813561495b61495682614910565b6148e0565b81815284602083860101111561497057600080fd5b816020850160208301376000918101602001919091529392505050565b60006020828403121561499f57600080fd5b81356001604060020a038111156149b557600080fd5b610a8484828501614937565b600080602083850312156149d457600080fd5b82356001604060020a038111156149ea57600080fd5b6149f6858286016147de565b90969095509350505050565b918252602082015260400190565b600080600060608486031215614a2557600080fd5b8335614a308161481f565b92506020840135614a408161481f565b929592945050506040919091013590565b600060208284031215614a6357600080fd5b8135612d288161481f565b60005b83811015614a89578181015183820152602001614a71565b50506000910152565b60008151808452614aaa816020860160208601614a6e565b601f01601f19169290920160200192915050565b602081526000612d286020830184614a92565b60008060008060008060a08789031215614aea57600080fd5b8635614af58161481f565b955060208701356001604060020a03811115614b1057600080fd5b614b1c89828a016147de565b979a90995096976040810135976060820135975060809091013595509350505050565b60008060408385031215614b5257600080fd5b82356001604060020a0380821115614b6957600080fd5b614b7586838701614937565b93506020850135915080821115614b8b57600080fd5b50614b9885828601614937565b9150509250929050565b60008060008060608587031215614bb857600080fd5b8435614bc38161481f565b935060208501356001604060020a03811115614bde57600080fd5b614bea878288016147de565b9598909750949560400135949350505050565b600080600080600060a08688031215614c1557600080fd5b8535614c208161481f565b94506020860135614c308161481f565b9350604086013592506060860135614c478161481f565b949793965091946080013592915050565b600160a060020a0391909116815260200190565b600080600060408486031215614c8157600080fd5b8335614c8c8161481f565b925060208401356001604060020a03811115614ca757600080fd5b614cb3868287016147de565b9497909650939450505050565b600060208284031215614cd257600080fd5b5035919050565b60008060008060808587031215614cef57600080fd5b8435614cfa8161481f565b93506020850135614d0a8161481f565b92506040850135614d1a8161481f565b9396929550929360600135925050565b60008060408385031215614d3d57600080fd5b82356001604060020a03811115614d5357600080fd5b614d5f85828601614937565b95602094909401359450505050565b60008060008060608587031215614d8457600080fd5b8435614d8f8161481f565b93506020850135925060408501356001604060020a03811115614db157600080fd5b614dbd878288016147de565b95989497509550505050565b600080600080600060808688031215614de157600080fd5b8535614dec8161481f565b945060208601356001604060020a03811115614e0757600080fd5b614e13888289016147de565b9699909850959660408101359660609091013595509350505050565b600080600060608486031215614e4457600080fd5b8335614e4f8161481f565b92506020840135915060408401356001604060020a03811115614e7157600080fd5b614e7d86828701614937565b9150509250925092565b600080600080600060808688031215614e9f57600080fd5b8535614eaa8161481f565b945060208601356001604060020a03811115614ec557600080fd5b614ed1888289016147de565b9095509350506040860135614ee58161481f565b949793965091946060013592915050565b60008060408385031215614f0957600080fd5b8235614f148161481f565b946020939093013593505050565b6020808252825182820181905260009190848201906040850190845b81811015614f5a57835183529284019291840191600101614f3e565b50909695505050505050565b600160a060020a03851681528315156020820152608060408201819052600090614f9290830185614a92565b905082606083015295945050505050565b600080600080600080600080610100898b031215614fc057600080fd5b8835614fcb8161481f565b97506020890135614fdb8161481f565b96506040890135614feb8161481f565b95506060890135614ffb8161481f565b9450608089013561500b8161481f565b935060a089013561501b8161481f565b925060c089013561502b8161481f565b915060e089013561503b8161481f565b809150509295985092959890939650565b600080600080600080600080600060c08a8c03121561506a57600080fd5b89356150758161481f565b985060208a01356150858161481f565b975060408a01356001604060020a03808211156150a157600080fd5b6150ad8d838e016147de565b909950975060608c01359150808211156150c657600080fd5b6150d28d838e016147de565b909750955060808c0135945060a08c01359150808211156150f257600080fd5b506150ff8c828d016147de565b915080935050809150509295985092959850929598565b600081518084526020808501945080840160005b838110156151795781518051885283810151600160a060020a03168489015260408082015190890152606080820151908901526080908101519088015260a0909601959082019060010161512a565b509495945050505050565b6040815260006151976040830185615116565b82810360208401526151a98185615116565b95945050505050565b60208082526024908201527f496e766573746f724d616e6167657220636f6e7472616374206973204e4f5420604082015260e060020a637365742102606082015260800190565b81835281816020850137506000828201602090810191909152601f909101601f19169091010190565b6040815260006152366040830185876151f9565b9050600160a060020a0383166020830152949350505050565b60008251615261818460208701614a6e565b9190910192915050565b60e060020a634e487b710260009081526032600452602490fd5b60e060020a634e487b710260009081526011600452602490fd5b808201808211156107e0576107e0615285565b6000600182016152c4576152c4615285565b5060010190565b6000826152ec5760e060020a634e487b710260009081526012600452602490fd5b500490565b818103818111156107e0576107e0615285565b8183823760009101908152919050565b60208082526025908201527f53746f636b436572746966696361746520636f6e7472616374206973204e4f54604082015260d860020a64207365742102606082015260800190565b600160a060020a039384168152919092166020820152604081019190915260600190565b80518015158114610b3457600080fd5b6000602082840312156153a257600080fd5b612d2882615380565b60208082526021908201527f53656375726974794d65746120636f6e7472616374206973204e4f5420736574604082015260f860020a602102606082015260800190565b600082601f83011261540057600080fd5b815161540e61495682614910565b81815284602083860101111561542357600080fd5b610a84826020830160208701614a6e565b60006020828403121561544657600080fd5b81516001604060020a0381111561545c57600080fd5b610a84848285016153ef565b6020808252601890820152604260020a771b9bdd0818481dda1a5d195b1a5cdd1959081dd85b1b195d02604082015260600190565b80820182811260008312801582168215821617156154bd576154bd615285565b505092915050565b6020808252601390820152606a60020a721bd999995c9a5b99c81a5cc81b9bdd081cd95d02604082015260600190565b60208082526024908201527f6e6f7420617574686f72697a656420617320612077686974656c697374656420604082015260e160020a633ab9b2b902606082015260800190565b6020808252601a908201527f74726164696e6720686173206265656e2073757370656e646564000000000000604082015260600190565b6020808252601b908201527f496e76616c696420616d6f756e7420616e642f6f722070726963650000000000604082015260600190565b6000602082840312156155bc57600080fd5b5051919050565b600160a060020a03851681526060602082018190526000906155e890830185876151f9565b905082604083015295945050505050565b60cd60020a660212aaca2a91d1028152600160a060020a038516606060020a02600782015260b560020a690161020a6a7aaa72a1d102601b820152835160009061564a816025850160208901614a6e565b60bd60020a6801610282924a1a29d102602591840191820152845161567681602e840160208901614a6e565b60ad60020a6a0161027a92222a924a21d102602e929091019182015283516156a5816039840160208801614a6e565b016039019695505050505050565b6080815260006156c76080830186886151f9565b82810360208401526156d98186614a92565b90508281038060408501526009825260b960020a68213abc9027b93232b9026020830152604081016060850152506157146040820185614a92565b979650505050505050565b600160a060020a03929092168252602082015260400190565b60cd60020a660212aaca2a91d1028152600160a060020a038416606060020a02600782015260ad60020a6a0161027a92222a924a21d102601b820152825160009061578a816026850160208801614a6e565b60b560020a69016102922a32aa7221d10260269184019182015283516157b7816030840160208801614a6e565b0160300195945050505050565b6080815260006157d86080830186886151f9565b82810360208401526157ea8186614a92565b905082810380604085015260108252608160020a6f21b0b731b2b610213abc9027b93232b9026020830152604081016060850152506157146040820185614a92565b600160a060020a03841681526040602082018190526000906151a990830184866151f9565b6020808252600e90820152609260020a6d139bdd08185d5d1a1bdc9a5e995902604082015260600190565b600160a060020a0385168152836020820152606060408201526000612ba56060830184866151f9565b60c560020a67029a2a62622a91d1028152600160a060020a038516606060020a02600882015260b560020a690161020a6a7aaa72a1d102601c82015283516000906158f7816026850160208901614a6e565b60bd60020a6801610282924a1a29d102602691840191820152845161592381602f840160208901614a6e565b60ad60020a6a0161027a92222a924a21d102602f9290910191820152835161595281603a840160208801614a6e565b01603a019695505050505050565b6080815260006159746080830186886151f9565b82810360208401526159868186614a92565b9050828103806040850152600a825260b160020a6929b2b6361027b93232b9026020830152604081016060850152506157146040820185614a92565b600160a060020a03841681528260208201526060604082015260006151a96060830184614a92565b6000600160a060020a03808816835260806020840152615a0e6080840187896151f9565b9416604083015250606001529392505050565b60006020808385031215615a3457600080fd5b82516001604060020a0380821115615a4b57600080fd5b818501915085601f830112615a5f57600080fd5b815181811115615a7157615a716148c6565b8381029150615a818483016148e0565b8181529183018401918481019088841115615a9b57600080fd5b938501935b83851015615ab957845182529385019390850190615aa0565b98975050505050505050565b60008060008060808587031215615adb57600080fd5b8451615ae68161481f565b9350615af460208601615380565b60408601519093506001604060020a03811115615b1057600080fd5b615b1c878288016153ef565b606096909601519497939650505050565b60c560020a67029a2a62622a91d1028152600160a060020a038316606060020a02600882015260ad60020a6a0161027a92222a924a21d102601c8201528151600090615b80816027850160208701614a6e565b919091016027019392505050565b608081526000615ba26080830186886151f9565b8281036020840152615bb48186614a92565b905082810380604085015260118252607960020a7021b0b731b2b61029b2b6361027b93232b9026020830152604081016060850152506157146040820185614a92565b60208082526021908201527f546f6b656e4d616e6167657220636f6e7472616374206973204e4f5420736574604082015260f860020a602102606082015260800190565b602081526000610a846020830184866151f9565b600060208284031215615c6157600080fd5b8151612d288161481f565b600160a060020a038a811682528916602082015260c060408201819052600090615c99908301898b6151f9565b8281036060840152615cac81888a6151f9565b905085608084015282810360a0840152615cc78185876151f9565b9c9b505050505050505050505050565b80820281158282048414176107e0576107e0615285565b60c560020a67029a2a62622a91d1028152606060020a600160a060020a038781168202600884015260bd60020a6801610212aaca2a91d102601c840152861602602582015260b560020a690161020a6a7aaa72a1d10260398201528351600090615d5f816043850160208901614a6e565b60bd60020a6801610282924a1a29d1026043918401918201528451615d8b81604c840160208901614a6e565b60cd60020a66016102322a29d102604c92909101918201528351615db6816053840160208801614a6e565b01605301979650505050505050565b608081526000615dd96080830186886151f9565b8281036020840152615deb8186614a92565b9050828103806040850152600c825260a060020a6b4d61746368204f7264657273026020830152604081016060850152506157146040820185614a9256febc5da491cf47d3de78662279b6d0c7c01cb7b3a68c6e563c745ede9fea6d6fde3dafcb307ea8e4d20c5c2de129cb820a255e2d97844b4823bcf224bef7d9a5e1a264697066735822122014bb8eb0318bb1b3383dde58dd15717c3e56cedcdab56f797d96a034b449c39964736f6c63430008120033",
  "immutableReferences": {},
  "source": "// SPDX-License-Identifier: BSL-1.1\npragma solidity >=0.4.22 <0.9.0;\n\nimport \"../../interfaces/IConsolidatedAuditTrail.sol\";\nimport \"../../interfaces/IBestBooks.sol\";\nimport \"../../interfaces/IOffering.sol\";\nimport \"../../interfaces/IInvestorManager.sol\";\nimport \"../../interfaces/ITokenManager.sol\";\nimport \"../../interfaces/IStockCertificate.sol\";\nimport \"../../interfaces/IBondCertificate.sol\";\nimport \"../../interfaces/ISecurityMeta.sol\";\nimport \"../../interfaces/IExchangeFee.sol\";\nimport \"./AccessControl.sol\";\nimport \"./ConsolidatedAuditTrail.sol\";\nimport \"./BestBooks.sol\";\nimport \"./OrderBook.sol\";\nimport \"./EncryptionUtils.sol\";\nimport \"./AccessControl.sol\";\n\ncontract ExemptLiquidityMarketExchange is AccessControl, EncryptionUtils {\n    struct Order {\n        uint256 orderId;\n        address wallet;\n        uint256 quantity;\n        uint256 price;\n        uint256 paid;\n    }\n\n    struct Trade {\n        address buyer;\n        address seller;\n        address token;\n        uint amount;\n        bool isCompleted;\n    }\n\n    IConsolidatedAuditTrail private catContract;\n    IBestBooks private bestbooksContract;\n    IInvestorManager private investorManagerContract;\n    ITokenManager private tokenManagerContract;\n    IStockCertificate private stockCertificateContract;\n    IBondCertificate private bondCertificateContract;\n    ISecurityMeta private securityMetaContract;\n    IExchangeFee private exchangeFeeContract;\n\n\n    mapping(string => IOffering) offering;\n\n    mapping(string => Order[]) public buyOrders;\n    mapping(string => Order[]) public sellOrders;\n\n    mapping(string => uint256) public nextOrderId;\n\n    mapping(string => uint256) public highestBid;\n    mapping(string => uint256) public lowestAsk;\n\n    mapping(address => mapping(address => int256)) private holdings; // holdings[investor][token] = number of shares\n\n    address public feeRecipient;\n    uint256 public FeePercentage = 1; // Fee percentage\n\n    uint256 threshold = 10; // Adjust this threshold based on your requirements\n    uint256 priceThreshold = 5; // Adjust this threshold based on your requirements\n\n    event FeeRecipientUpdated(address indexed newRecipient);\n    event FeePercentageUpdated(uint256 newPercentage);\n    // Event emitted when a new buy order is placed\n    event BuyOrderPlaced(string indexed currencyPair,address indexed trader,uint256 amount,uint256 price);\n    // Event emitted when a new sell order is placed\n    event SellOrderPlaced(string indexed currencyPair,address indexed trader,uint256 amount,uint256 price);\n    // Event emitted when a trade is executed\n    event TradeExecuted(string indexed currencyPair,address indexed buyer,address indexed seller,uint256 amount,uint256 price);\n    event ValueTransferred(address sender, uint256 amount);\n    event ManipulativeBehaviorDetected(address sender,string symbol,uint256 orderId);\n    event MarketAbuseDetetcted(address sender,string symbol,uint256 orderId);\n\n    modifier isInvestorManagerContract() {\n        require(address(investorManagerContract) != address(0x0),\"InvestorManager contract is NOT set!\");\n        _;\n    }\n\n    modifier isTokenManagerContract() {\n        require(address(tokenManagerContract) != address(0x0),\"TokenManager contract is NOT set!\");\n        _;\n    }\n\n    modifier isStockCertificateContract() {\n        require(address(stockCertificateContract) != address(0x0),\"StockCertificate contract is NOT set!\");\n        _;\n    }\n\n    modifier isBondCertificateContract() {\n        require(address(bondCertificateContract) != address(0x0),\"BondCeertificate contract is NOT set!\");\n        _;\n    }\n\n    modifier isSecurityMetaContract() {\n        require(address(securityMetaContract) != address(0x0),\"SecurityMeta contract is NOT set!\");\n        _;\n    }\n\n    modifier isIssuer() {\n        _;\n    }\n\n    modifier isWhitelisted(address investor) {\n        require(investorManagerContract.isWhitelisted(investor),\"not a whitelisted wallet\");\n        _;\n    }\n\n    function setContracts(address catAddress,\n                          address bestbooksAddress,\n                          address investorManagerAddress,\n                          address tokenManagerAddress,\n                          address stockCertificateAddress,\n                          address bondCertificateAddress,\n                          address securityMetaAddress,\n                          address exchangeFeeAddress) \n    external isOwner {\n        catContract = IConsolidatedAuditTrail(catAddress);\n        bestbooksContract = IBestBooks(bestbooksAddress);\n        investorManagerContract = IInvestorManager(investorManagerAddress);\n        tokenManagerContract = ITokenManager(tokenManagerAddress);\n        stockCertificateContract = IStockCertificate(stockCertificateAddress);\n        bondCertificateContract = IBondCertificate(bondCertificateAddress);\n        securityMetaContract = ISecurityMeta(securityMetaAddress);\n        exchangeFeeContract = IExchangeFee(exchangeFeeAddress);\n    }\n\n    function addShares(address investor,address token,int256 amount) external isWhitelisted(investor) {\n        holdings[investor][token] += amount;\n    }\n\n    function getShares(address investor,address token) external view returns (int256) {\n        return holdings[investor][token];\n    }\n\n    function transferShares(address from,address to,address token,int256 amount) external isWhitelisted(to) {\n        require(holdings[from][token] >= amount,\"insufficient token balance\");\n        SafeMath.safeSub(holdings[from][token],amount);\n        SafeMath.safeAdd(holdings[to][token],amount);\n        emit ValueTransferred(from, uint256(amount));\n    }\n\n\n    function getContracts() external view isOwner returns(address,address,address,address,address,address,address,address){\n        return (address(catContract),\n                address(bestbooksContract),\n                address(investorManagerContract),\n                address(tokenManagerContract),\n                address(stockCertificateContract),\n                address(bondCertificateContract),\n                address(securityMetaContract),\n                address(exchangeFeeContract));\n    }\n\n    function setThreshold(uint256 value) external isOwner {\n        threshold = value;\n    }\n\n    function setPriceThreshold(uint256 value) external isOwner {\n        priceThreshold = value;\n    }\n\n    function setFeeRecipient(address wallet) external isOwner {\n        feeRecipient = address(wallet);\n        emit FeeRecipientUpdated(wallet);       \n    }\n\n    function setFee(uint256 fee) external isOwner {\n        require(fee <= 100, \"Fee percentage must be 100 or less\");\n        FeePercentage = fee; // 1=1% deposit fee\n        emit FeePercentageUpdated(fee);\n    }\n\n    function setOfferingContractAddress(string calldata symbol,address tokenAddress) external isOwner {\n        offering[symbol] = IOffering(tokenAddress);\n    }\n\n    function getOrders(string calldata symbol) external view returns(Order[] memory,Order[] memory) {\n        require(address(offering[symbol]) != address(0x0),\"offering is not set\");\n        return(buyOrders[symbol],sellOrders[symbol]);\n    }\n\n    // Function to get quote\n    function quote(string calldata symbol)\n        external\n        view\n        returns (uint256, uint256)\n    {\n        return (highestBid[symbol],lowestAsk[symbol]);\n    }\n\n    // Function to place a buy order\n    function buy(\n        address wallet,\n        string calldata symbol,\n        uint256 quantity,\n        uint256 price,\n        uint256 amount\n    ) external isInvestorManagerContract {\n        require(address(offering[symbol]) != address(0x0),\"offering is not set\");\n        require(investorManagerContract.isWhitelisted(wallet),\"not authorized as a whitelisted user\");\n        require(offering[symbol].getTradingStatus(),\"trading has been suspended\");\n        require(quantity > 0 && price > 0, \"Invalid amount and/or price\");\n        require(amount > SafeMath.safeMul(quantity, price),\"insufficient funds to place buy order\");\n        require(offering[symbol].getOutstandingShares() == offering[symbol].getTotalSupply(),\"trading disabled until funding round has been completed\");\n\n        // Storing the buy order details\n        Order memory order = Order(nextOrderId[symbol], wallet, quantity, price, amount);\n        buyOrders[symbol][nextOrderId[symbol]] = order;\n\n\n        if (detectManipulativeBehaviorDetected(symbol, nextOrderId[symbol])) {\n            emit ManipulativeBehaviorDetected(wallet,symbol,nextOrderId[symbol]);\n            offering[symbol].changeTradingStatus(false,\"Manipulative Behavior Detected\");\n        } else {\n            if (detectMarketAbuse(symbol)) {\n                emit MarketAbuseDetetcted(wallet, symbol, nextOrderId[symbol]);\n                offering[symbol].changeTradingStatus(false,\"Market Abuse Detected\");\n            } else {\n                nextOrderId[symbol]++;\n\n                updateQuoting(symbol);\n                matchOrders(symbol);\n                emit BuyOrderPlaced(symbol, wallet, quantity, price);\n\n                string memory eventData = string(abi.encodePacked(\"BUYER: \", wallet, \", AMOUNT: \", catContract.uintToString(quantity),\", PRICE: \", catContract.uintToString(price), \", ORDERID: \", catContract.uintToString(nextOrderId[symbol])));\n                catContract.addAuditEntry(symbol,catContract.timestampToString(),\"Buy Order\",eventData);\n            }\n        }\n    }\n\n    // Function to cancel and transfer contract balance to the caller, and remove the buy order\n    function cancelBuy(address wallet, string calldata symbol,uint256 orderId) external isInvestorManagerContract {\n        require(address(offering[symbol]) != address(0x0),\"offering is not set\");\n        require(investorManagerContract.isWhitelisted(wallet),\"not authorized as a whitelisted user\");\n        uint256 contractBalance = address(this).balance;\n        require(contractBalance > 0, \"Contract has no balance.\");\n\n        Order storage order = buyOrders[symbol][orderId];\n        require(order.wallet == wallet, \"Not the owner of this order.\");\n\n        uint256 refund = order.paid;\n\n        delete buyOrders[symbol][orderId];\n\n        //payable(msg.sender).transfer(refund);\n        emit ValueTransferred(wallet, refund);\n\n        string memory eventData = string(abi.encodePacked(\"BUYER: \", wallet, \", ORDERID: \", catContract.uintToString(orderId),\", REFUND: \", catContract.uintToString(refund)));\n        catContract.addAuditEntry(symbol,catContract.timestampToString(),\"Cancel Buy Order\",eventData);\n    }\n\n    // Function to place a sell order\n    function sell(\n        address wallet,\n        string calldata symbol,\n        uint256 quantity,\n        uint256 price\n    ) external isInvestorManagerContract {\n        require(address(offering[symbol]) != address(0x0),\"offering is not set\");\n        require(investorManagerContract.isWhitelisted(wallet),\"not authorized as a whitelisted user\");\n        require(offering[symbol].getTradingStatus(),\"trading has been suspended\");\n        require(quantity > 0, \"Invalid amount\");\n        require(price > 0, \"Invalid price\");\n        require(quantity > 0 && price > 0, \"Invalid amount and/or price\");\n        require(offering[symbol].getOutstandingShares() == offering[symbol].getTotalSupply(),\"trading disabled until initial offering has been completed\");\n        require(offering[symbol].getBalanceFrom(wallet) >= quantity,\"insufficient balance in sellers account\");\n\n        Order memory order = Order(nextOrderId[symbol], wallet, quantity, price, 0);\n        sellOrders[symbol][nextOrderId[symbol]] = order;\n\n        string memory eventData = string(abi.encodePacked(\"SELLER: \", wallet, \", AMOUNT: \", catContract.uintToString(quantity),\", PRICE: \", catContract.uintToString(price), \", ORDERID: \", catContract.uintToString(nextOrderId[symbol])));\n        catContract.addAuditEntry(symbol,catContract.timestampToString(),\"Sell Order\",eventData);\n\n\n        if (detectManipulativeBehaviorDetected(symbol, nextOrderId[symbol])) {\n            emit ManipulativeBehaviorDetected(wallet,symbol,nextOrderId[symbol]);\n            offering[symbol].changeTradingStatus(false,\"Manipulative Behavior Detected\");\n        } else {\n            nextOrderId[symbol]++;\n            updateQuoting(symbol);\n            matchOrders(symbol);\n            emit SellOrderPlaced(symbol, wallet, quantity, price);\n        }\n    }\n\n    // Cancel pending sell order\n    function cancelSell(address wallet,string calldata symbol,uint256 orderId) external isInvestorManagerContract {\n        require(address(offering[symbol]) != address(0x0),\"offering is not set\");\n        require(investorManagerContract.isWhitelisted(wallet),\"not authorized as a whitelisted user\");\n        Order storage order = sellOrders[symbol][orderId];\n        require(order.wallet == wallet, \"not the owner of this order.\");\n        delete sellOrders[symbol][orderId];\n\n        string memory eventData = string(abi.encodePacked(\"SELLER: \", wallet, \", ORDERID: \", catContract.uintToString(orderId)));\n        catContract.addAuditEntry(symbol,catContract.timestampToString(),\"Cancel Sell Order\",eventData);\n    }\n\n    function detectMarketAbuse(string memory symbol) public view  returns (bool) {\n        // Calculate average bid and ask prices\n        uint256 sumBids;\n        for (uint256 i = 0; i < buyOrders[symbol].length; i++) {\n            sumBids += buyOrders[symbol][i].price;\n        }\n        uint256 averageBid = sumBids / buyOrders[symbol].length;\n\n        uint256 sumAsks;\n        for (uint256 i = 0; i < sellOrders[symbol].length; i++) {\n            sumAsks += sellOrders[symbol][i].price;\n        }\n        uint256 averageAsk = sumAsks / sellOrders[symbol].length;\n\n        // Calculate bid-ask spread\n        uint256 spread = averageAsk - averageBid;\n\n        // Check for potential market abuse\n        if (spread >= threshold) {\n            return true;\n        }\n        return false;\n    }\n\n    function detectManipulativeBehaviorDetected(string memory symbol,uint256 orderId) public view  returns (bool) {\n        // Check if the order price deviates significantly from the current market price\n        //uint256 priceDeviation = order.price > orderBook.currentPrice ? order.price - orderBook.currentPrice : orderBook.currentPrice - order.price;\n        uint256 bidPriceDeviation = buyOrders[symbol][orderId].price > highestBid[symbol] ? buyOrders[symbol][orderId].price - highestBid[symbol] : highestBid[symbol] - buyOrders[symbol][orderId].price;\n        uint256 askPriceDeviation = sellOrders[symbol][orderId].price < lowestAsk[symbol] ? lowestAsk[symbol] - sellOrders[symbol][orderId].price : sellOrders[symbol][orderId].price - lowestAsk[symbol];\n\n        // Check for potential manipulative behavior\n        if (bidPriceDeviation >= priceThreshold || askPriceDeviation > priceThreshold) {\n            return true;\n        }\n        return false;\n    }\n\n    // INVESTOR MANAGER\n    function addInvestor(string calldata symbol,address wallet) external isInvestorManagerContract {\n        investorManagerContract.addInvestor(symbol,wallet);\n    }\n    function addInvestor(address investor, uint investor_type,string memory jurisdiction) external isInvestorManagerContract {\n        investorManagerContract.addInvestor(investor,investor_type,jurisdiction);\n    }\n    function isInvestor(string calldata symbol,address wallet) external view isInvestorManagerContract returns(bool) {\n        return investorManagerContract.findInvestor(symbol, wallet);\n    }\n    function getInvestor(address wallet) external view isInvestorManagerContract returns (address,bool,string memory,uint) {\n        return investorManagerContract.getInvestor(wallet);\n    }\n\n    // TOKEN MANAGER\n    function assignToken(address tokenAddress, address issuer, string calldata name, string calldata symbol, uint256 totalSupply, string calldata regulation) external isTokenManagerContract {\n        tokenManagerContract.assignToken(tokenAddress,issuer,name,symbol,totalSupply,regulation); \n    }\n    function getToken(string calldata symbol)  external view isTokenManagerContract returns (address) {\n        return tokenManagerContract.getToken(symbol);\n    }\n\n    // STOCK CERTIFICATES\n    function issueStockCertificate(address tokenAddress, string calldata symbol, address investor, uint256 initialBalance) external isStockCertificateContract returns(uint256) {\n        return stockCertificateContract.issueCertificate(tokenAddress,symbol,investor,initialBalance);\n    }\n    function transferStockCertificate(address from, address tokenAddress, uint256 certificateId, address to, uint256 amount) external isStockCertificateContract {\n        stockCertificateContract.transferCertificate(from,tokenAddress,certificateId,to,amount);\n    }\n    function getStockCertificateBalance(address tokenAddress, uint256 certificateId) external view isStockCertificateContract returns (uint256) {\n        return stockCertificateContract.getCertificateBalance(tokenAddress,certificateId);\n    }\n    function getStockInvestorCertificates(address investor) external view isStockCertificateContract returns (uint256[] memory) {\n        return stockCertificateContract.getInvestorCertificates(investor);\n    }\n    function isStockCertificateValid(address tokenAddress,address wallet,uint256 certificateId) external view isStockCertificateContract returns (bool) {\n        return stockCertificateContract.isCertificateValid(tokenAddress,wallet,certificateId);\n    }\n\n    // BOND CERTIFICATES\n\n    // SECURITY META\n    function assignCUSIPtoToken(address tokenAddress,string calldata cusipNumber) external isSecurityMetaContract {\n        securityMetaContract.assignCUSIPtoToken(tokenAddress,cusipNumber);\n    }\n    function getCUSIP(address tokenAddress) external view isSecurityMetaContract returns (string memory) {\n        return securityMetaContract.getCUSIP(tokenAddress);\n    }\n    function assignISINtoToken(address tokenAddress,string calldata isinNumber) external isSecurityMetaContract {\n        securityMetaContract.assignISINtoToken(tokenAddress,isinNumber);\n    }\n    function getISIN(address tokenAddress) external view isSecurityMetaContract returns (string memory) {\n        return securityMetaContract.getISIN(tokenAddress);\n    }\n    function assignFileNumber(address tokenAddress,string calldata secFileNumber) external isSecurityMetaContract {\n        securityMetaContract.assignFileNumber(tokenAddress,secFileNumber);\n    }\n    function getFileNumber(address tokenAddress) external view isSecurityMetaContract returns (string memory) {\n        return securityMetaContract.getFileNumber(tokenAddress);\n    }\n    function assignCertificateNumber(address tokenAddress,uint256 index,string calldata certificateNumber) external isSecurityMetaContract {\n        securityMetaContract.assignCertificateNumber(tokenAddress,index,certificateNumber);\n    }\n    function getCertificateNumber(address tokenAddress,uint256 index) external view isSecurityMetaContract returns (string memory) {\n        return securityMetaContract.getCertificateNumber(tokenAddress,index);\n    }\n\n\n    // INTERNAL FUNCTIONS\n\n    // Function to update the highest bid and lowest ask prices\n    function updateQuoting(string calldata symbol) internal {    \n        uint256 i = 0;\n        uint256 j = 0;\n\n        highestBid[symbol] = buyOrders[symbol][0].price;\n        for (i=1; i<buyOrders[symbol].length; i++) {\n            if (buyOrders[symbol][i].price > highestBid[symbol]) {\n                highestBid[symbol] = buyOrders[symbol][i].price;\n            }\n        }\n\n        lowestAsk[symbol] = sellOrders[symbol][0].price;\n        for(j=1;j<sellOrders[symbol].length;j++) {\n            if (sellOrders[symbol][j].price < lowestAsk[symbol]) {\n                lowestAsk[symbol] = sellOrders[symbol][j].price;\n            }\n        }\n    }\n\n    // Function to match buy and sell orders\n    function matchOrders(string calldata symbol) internal {\n        if (buyOrders[symbol].length == 0 || sellOrders[symbol].length == 0) {\n            return;\n        }\n\n        uint256 i = 0;\n        uint256 j = 0;\n\n        while (i < buyOrders[symbol].length && j < sellOrders[symbol].length) {\n            Order memory buyOrder = buyOrders[symbol][i];\n            Order memory sellOrder = sellOrders[symbol][j];\n\n            if (buyOrder.price >= sellOrder.price) {\n                uint256 tradeAmount = (buyOrder.quantity <= sellOrder.quantity)\n                    ? buyOrder.quantity\n                    : sellOrder.quantity;\n                uint256 tradePrice = sellOrder.price;\n\n                emit TradeExecuted(symbol,buyOrder.wallet,sellOrder.wallet,tradeAmount,tradePrice);\n\n                // transfer the tokens on the contract\n                offering[symbol].transferFrom(sellOrder.wallet,buyOrder.wallet,tradeAmount);\n\n\n                // Update order amounts and remove filled orders\n                if (buyOrder.quantity <= sellOrder.quantity) {\n                    sellOrders[symbol][j].quantity -= buyOrder.quantity;\n                    delete buyOrders[symbol][i];\n                    i++;\n                } else {\n                    buyOrders[symbol][i].quantity -= sellOrder.quantity;\n                    delete sellOrders[symbol][j];\n                    j++;\n                }\n                // Calculate the total fee amount\n                int256 Fee = int256((tradePrice * FeePercentage) / 100);\n                // exchnge fee amount recorded\n                if (Fee > 0) {\n                    exchangeFeeContract.addFee(address(offering[symbol]), Fee);\n                }\n\n                // save CAT\n                string memory eventData = string(abi.encodePacked(\"SELLER: \", sellOrder.wallet, \", BUYER: \", buyOrder.wallet, \", AMOUNT: \", catContract.uintToString(tradeAmount),\", PRICE: \", catContract.uintToString(tradePrice),\", FEE: \",catContract.uintToString(uint(Fee))));\n                catContract.addAuditEntry(symbol,catContract.timestampToString(),\"Match Orders\",eventData);\n            } else {\n                break;\n            }\n        }\n    }\n\n}",
  "sourcePath": "/Volumes/My Book/projects/pingleware-contracts/contracts/finance/elmx/ExemptLiquidityMarketExchange.sol",
  "compiler": {
    "name": "solc",
    "version": "0.8.18+commit.87f61d96.Emscripten.clang"
  },
  "schemaVersion": "3.4.12",
  "updatedAt": "2023-10-22T14:23:03.592Z",
  "networkType": "ethereum",
  "devdoc": {
    "kind": "dev",
    "methods": {},
    "version": 1
  },
  "userdoc": {
    "kind": "user",
    "methods": {},
    "version": 1
  }
}