{
  "contractName": "ExemptEquityOfferingRegC",
  "abi": [
    {
      "inputs": [],
      "stateMutability": "nonpayable",
      "type": "constructor"
    },
    {
      "anonymous": false,
      "inputs": [
        {
          "indexed": false,
          "internalType": "uint256",
          "name": "value",
          "type": "uint256"
        }
      ],
      "name": "Bought",
      "type": "event"
    },
    {
      "anonymous": false,
      "inputs": [
        {
          "indexed": true,
          "internalType": "address",
          "name": "from",
          "type": "address"
        },
        {
          "indexed": false,
          "internalType": "string",
          "name": "status",
          "type": "string"
        },
        {
          "indexed": false,
          "internalType": "uint256",
          "name": "value",
          "type": "uint256"
        }
      ],
      "name": "ExemptOffering",
      "type": "event"
    },
    {
      "anonymous": false,
      "inputs": [
        {
          "indexed": false,
          "internalType": "address",
          "name": "addr",
          "type": "address"
        },
        {
          "indexed": false,
          "internalType": "uint256",
          "name": "amount",
          "type": "uint256"
        }
      ],
      "name": "Minted",
      "type": "event"
    },
    {
      "anonymous": false,
      "inputs": [
        {
          "indexed": false,
          "internalType": "address",
          "name": "addr",
          "type": "address"
        }
      ],
      "name": "MinterAdded",
      "type": "event"
    },
    {
      "anonymous": false,
      "inputs": [
        {
          "indexed": false,
          "internalType": "uint256",
          "name": "value",
          "type": "uint256"
        }
      ],
      "name": "Sold",
      "type": "event"
    },
    {
      "anonymous": false,
      "inputs": [
        {
          "indexed": false,
          "internalType": "address",
          "name": "addr",
          "type": "address"
        },
        {
          "indexed": false,
          "internalType": "uint256",
          "name": "amount",
          "type": "uint256"
        }
      ],
      "name": "Transfer",
      "type": "event"
    },
    {
      "anonymous": false,
      "inputs": [
        {
          "indexed": false,
          "internalType": "address",
          "name": "addr",
          "type": "address"
        }
      ],
      "name": "TransferAgentAdded",
      "type": "event"
    },
    {
      "anonymous": false,
      "inputs": [
        {
          "indexed": false,
          "internalType": "address",
          "name": "addr",
          "type": "address"
        }
      ],
      "name": "TransferAgentRemoved",
      "type": "event"
    },
    {
      "anonymous": false,
      "inputs": [
        {
          "indexed": false,
          "internalType": "address",
          "name": "from",
          "type": "address"
        },
        {
          "indexed": false,
          "internalType": "address",
          "name": "to",
          "type": "address"
        },
        {
          "indexed": false,
          "internalType": "uint256",
          "name": "value",
          "type": "uint256"
        }
      ],
      "name": "TransferFrom",
      "type": "event"
    },
    {
      "anonymous": false,
      "inputs": [
        {
          "indexed": false,
          "internalType": "address",
          "name": "addr",
          "type": "address"
        },
        {
          "indexed": false,
          "internalType": "bytes32",
          "name": "hash",
          "type": "bytes32"
        },
        {
          "indexed": false,
          "internalType": "address",
          "name": "sender",
          "type": "address"
        }
      ],
      "name": "VerifiedAddressAdded",
      "type": "event"
    },
    {
      "anonymous": false,
      "inputs": [
        {
          "indexed": false,
          "internalType": "address",
          "name": "addr",
          "type": "address"
        },
        {
          "indexed": false,
          "internalType": "address",
          "name": "sender",
          "type": "address"
        }
      ],
      "name": "VerifiedAddressRemoved",
      "type": "event"
    },
    {
      "anonymous": false,
      "inputs": [
        {
          "indexed": false,
          "internalType": "address",
          "name": "addr1",
          "type": "address"
        },
        {
          "indexed": false,
          "internalType": "address",
          "name": "addr2",
          "type": "address"
        },
        {
          "indexed": false,
          "internalType": "address",
          "name": "addr3",
          "type": "address"
        }
      ],
      "name": "VerifiedAddressSuperseded",
      "type": "event"
    },
    {
      "anonymous": false,
      "inputs": [
        {
          "indexed": false,
          "internalType": "address",
          "name": "addr",
          "type": "address"
        },
        {
          "indexed": false,
          "internalType": "bytes32",
          "name": "oldhash",
          "type": "bytes32"
        },
        {
          "indexed": false,
          "internalType": "bytes32",
          "name": "hash",
          "type": "bytes32"
        },
        {
          "indexed": false,
          "internalType": "address",
          "name": "sender",
          "type": "address"
        }
      ],
      "name": "VerifiedAddressUpdated",
      "type": "event"
    },
    {
      "inputs": [],
      "name": "INITIAL_SUPPLY",
      "outputs": [
        {
          "internalType": "uint256",
          "name": "",
          "type": "uint256"
        }
      ],
      "stateMutability": "view",
      "type": "function"
    },
    {
      "inputs": [],
      "name": "VERSION",
      "outputs": [
        {
          "internalType": "string",
          "name": "",
          "type": "string"
        }
      ],
      "stateMutability": "view",
      "type": "function"
    },
    {
      "inputs": [
        {
          "internalType": "address",
          "name": "",
          "type": "address"
        }
      ],
      "name": "balances",
      "outputs": [
        {
          "internalType": "uint256",
          "name": "",
          "type": "uint256"
        }
      ],
      "stateMutability": "view",
      "type": "function"
    },
    {
      "inputs": [],
      "name": "decimals",
      "outputs": [
        {
          "internalType": "uint8",
          "name": "",
          "type": "uint8"
        }
      ],
      "stateMutability": "view",
      "type": "function"
    },
    {
      "inputs": [],
      "name": "name",
      "outputs": [
        {
          "internalType": "string",
          "name": "",
          "type": "string"
        }
      ],
      "stateMutability": "view",
      "type": "function"
    },
    {
      "inputs": [],
      "name": "negative",
      "outputs": [
        {
          "internalType": "uint256",
          "name": "",
          "type": "uint256"
        }
      ],
      "stateMutability": "view",
      "type": "function"
    },
    {
      "inputs": [],
      "name": "parValue",
      "outputs": [
        {
          "internalType": "uint256",
          "name": "",
          "type": "uint256"
        }
      ],
      "stateMutability": "view",
      "type": "function"
    },
    {
      "inputs": [],
      "name": "releaseAgent",
      "outputs": [
        {
          "internalType": "address",
          "name": "",
          "type": "address"
        }
      ],
      "stateMutability": "view",
      "type": "function"
    },
    {
      "inputs": [],
      "name": "released",
      "outputs": [
        {
          "internalType": "bool",
          "name": "",
          "type": "bool"
        }
      ],
      "stateMutability": "view",
      "type": "function"
    },
    {
      "inputs": [],
      "name": "symbol",
      "outputs": [
        {
          "internalType": "string",
          "name": "",
          "type": "string"
        }
      ],
      "stateMutability": "view",
      "type": "function"
    },
    {
      "inputs": [],
      "name": "totalSupply",
      "outputs": [
        {
          "internalType": "uint256",
          "name": "",
          "type": "uint256"
        }
      ],
      "stateMutability": "view",
      "type": "function"
    },
    {
      "inputs": [],
      "name": "totalValueMax",
      "outputs": [
        {
          "internalType": "uint256",
          "name": "",
          "type": "uint256"
        }
      ],
      "stateMutability": "view",
      "type": "function"
    },
    {
      "inputs": [
        {
          "internalType": "address",
          "name": "addr",
          "type": "address"
        }
      ],
      "name": "setReleaseAgent",
      "outputs": [],
      "stateMutability": "nonpayable",
      "type": "function"
    },
    {
      "inputs": [],
      "name": "release",
      "outputs": [],
      "stateMutability": "nonpayable",
      "type": "function"
    },
    {
      "inputs": [
        {
          "internalType": "address",
          "name": "addr",
          "type": "address"
        },
        {
          "internalType": "bool",
          "name": "state",
          "type": "bool"
        }
      ],
      "name": "setTransferAgent",
      "outputs": [],
      "stateMutability": "nonpayable",
      "type": "function"
    },
    {
      "inputs": [
        {
          "internalType": "address",
          "name": "_to",
          "type": "address"
        },
        {
          "internalType": "uint256",
          "name": "_value",
          "type": "uint256"
        }
      ],
      "name": "transfer",
      "outputs": [
        {
          "internalType": "bool",
          "name": "success",
          "type": "bool"
        }
      ],
      "stateMutability": "nonpayable",
      "type": "function"
    },
    {
      "inputs": [
        {
          "internalType": "address",
          "name": "_from",
          "type": "address"
        },
        {
          "internalType": "address",
          "name": "_to",
          "type": "address"
        },
        {
          "internalType": "uint256",
          "name": "_value",
          "type": "uint256"
        }
      ],
      "name": "transferFrom",
      "outputs": [
        {
          "internalType": "bool",
          "name": "success",
          "type": "bool"
        }
      ],
      "stateMutability": "nonpayable",
      "type": "function"
    },
    {
      "inputs": [
        {
          "internalType": "uint256",
          "name": "_value",
          "type": "uint256"
        }
      ],
      "name": "burn",
      "outputs": [
        {
          "internalType": "bool",
          "name": "success",
          "type": "bool"
        }
      ],
      "stateMutability": "nonpayable",
      "type": "function"
    },
    {
      "inputs": [
        {
          "internalType": "address",
          "name": "_from",
          "type": "address"
        },
        {
          "internalType": "uint256",
          "name": "_value",
          "type": "uint256"
        }
      ],
      "name": "burnFrom",
      "outputs": [
        {
          "internalType": "bool",
          "name": "success",
          "type": "bool"
        }
      ],
      "stateMutability": "nonpayable",
      "type": "function"
    }
  ],
  "bytecode": "0x6080604052600080556000600260146101000a81548160ff0219169083151502179055506000600a60006101000a81548160ff0219169083151502179055506000600d556000600f60006101000a81548160ff0219169083151502179055506301dfe20060105562eff1006011553480156200007a57600080fd5b5069152d02c7e14af6800000600c60003373ffffffffffffffffffffffffffffffffffffffff1673ffffffffffffffffffffffffffffffffffffffff16815260200190815260200160002081905550620000e53369152d02c7e14af6800000620000ec60201b60201c565b506200036e565b6000805482111562000135576040517f08c379a00000000000000000000000000000000000000000000000000000000081526004016200012c9062000233565b60405180910390fd5b81600c60008573ffffffffffffffffffffffffffffffffffffffff1673ffffffffffffffffffffffffffffffffffffffff16815260200190815260200160002060008282546200018691906200028e565b925050819055507f30385c845b448a36257a6a1716e6ad2e1bc2cbe333cde1e69fe849ad6511adfe8383604051620001c092919062000341565b60405180910390a16001905092915050565b600082825260208201905092915050565b7f6578636565647320746f74616c20737570706c79000000000000000000000000600082015250565b60006200021b601483620001d2565b91506200022882620001e3565b602082019050919050565b600060208201905081810360008301526200024e816200020c565b9050919050565b6000819050919050565b7f4e487b7100000000000000000000000000000000000000000000000000000000600052601160045260246000fd5b60006200029b8262000255565b9150620002a88362000255565b9250827fffffffffffffffffffffffffffffffffffffffffffffffffffffffffffffffff03821115620002e057620002df6200025f565b5b828201905092915050565b600073ffffffffffffffffffffffffffffffffffffffff82169050919050565b60006200031882620002eb565b9050919050565b6200032a816200030b565b82525050565b6200033b8162000255565b82525050565b60006040820190506200035860008301856200031f565b62000367602083018462000330565b9392505050565b61158a806200037e6000396000f3fe608060405234801561001057600080fd5b50600436106101215760003560e01c8063313ce567116100ad57806395d89b411161007157806395d89b41146102fa5780639613252114610318578063a9059cbb14610336578063d1f276d314610366578063ffa1ad741461038457610121565b8063313ce5671461025457806342966c681461027257806379cc6790146102a257806386d1a69f146102d25780638bf14094146102dc57610121565b806323b872dd116100f457806323b872dd1461019c57806327e235e3146101cc57806329ff4f53146101fc5780632cea64bf146102185780632ff2e9dc1461023657610121565b806302f652a31461012657806306fdde031461014257806318160ddd146101605780631cb3ef1f1461017e575b600080fd5b610140600480360381019061013b9190610ff0565b6103a2565b005b61014a610555565b60405161015791906110c9565b60405180910390f35b61016861058e565b6040516101759190611104565b60405180910390f35b610186610594565b6040516101939190611104565b60405180910390f35b6101b660048036038101906101b1919061114b565b6105b8565b6040516101c391906111ad565b60405180910390f35b6101e660048036038101906101e191906111c8565b610673565b6040516101f39190611104565b60405180910390f35b610216600480360381019061021191906111c8565b61068b565b005b610220610827565b60405161022d9190611104565b60405180910390f35b61023e610832565b60405161024b9190611104565b60405180910390f35b61025c610840565b6040516102699190611211565b60405180910390f35b61028c6004803603810190610287919061122c565b610845565b60405161029991906111ad565b60405180910390f35b6102bc60048036038101906102b79190611259565b6108e7565b6040516102c991906111ad565b60405180910390f35b6102da61098b565b005b6102e4610a90565b6040516102f19190611104565b60405180910390f35b610302610aa9565b60405161030f91906110c9565b60405180910390f35b610320610ae2565b60405161032d91906111ad565b60405180910390f35b610350600480360381019061034b9190611259565b610af5565b60405161035d91906111ad565b60405180910390f35b61036e610bae565b60405161037b91906112a8565b60405180910390f35b61038c610bd4565b60405161039991906110c9565b60405180910390f35b600160009054906101000a900473ffffffffffffffffffffffffffffffffffffffff1673ffffffffffffffffffffffffffffffffffffffff163373ffffffffffffffffffffffffffffffffffffffff1614610432576040517f08c379a00000000000000000000000000000000000000000000000000000000081526004016104299061130f565b60405180910390fd5b6000600260149054906101000a900460ff16151581151514610489576040517f08c379a000000000000000000000000000000000000000000000000000000000815260040161048090611355565b60405180910390fd5b600073ffffffffffffffffffffffffffffffffffffffff168373ffffffffffffffffffffffffffffffffffffffff1614156104f9576040517f08c379a00000000000000000000000000000000000000000000000000000000081526004016104f090611355565b60405180910390fd5b81600660008573ffffffffffffffffffffffffffffffffffffffff1673ffffffffffffffffffffffffffffffffffffffff16815260200190815260200160002060006101000a81548160ff021916908315150217905550505050565b6040518060400160405280601281526020017f43726f776466756e64696e6720546f6b656e000000000000000000000000000081525081565b60005481565b7fffffffffffffffffffffffffffffffffffffffffffffffffffffffffffffffff81565b600083600260149054906101000a900460ff168061061f5750600660008273ffffffffffffffffffffffffffffffffffffffff1673ffffffffffffffffffffffffffffffffffffffff16815260200190815260200160002060009054906101000a900460ff165b61065e576040517f08c379a000000000000000000000000000000000000000000000000000000000815260040161065590611355565b60405180910390fd5b610669858585610c0d565b9150509392505050565b600c6020528060005260406000206000915090505481565b600160009054906101000a900473ffffffffffffffffffffffffffffffffffffffff1673ffffffffffffffffffffffffffffffffffffffff163373ffffffffffffffffffffffffffffffffffffffff161461071b576040517f08c379a00000000000000000000000000000000000000000000000000000000081526004016107129061130f565b60405180910390fd5b6000600260149054906101000a900460ff16151581151514610772576040517f08c379a000000000000000000000000000000000000000000000000000000000815260040161076990611355565b60405180910390fd5b600073ffffffffffffffffffffffffffffffffffffffff168273ffffffffffffffffffffffffffffffffffffffff1614156107e2576040517f08c379a00000000000000000000000000000000000000000000000000000000081526004016107d990611355565b60405180910390fd5b81600260006101000a81548173ffffffffffffffffffffffffffffffffffffffff021916908373ffffffffffffffffffffffffffffffffffffffff1602179055505050565b6611c37937e0800081565b69152d02c7e14af680000081565b600081565b6000600160009054906101000a900473ffffffffffffffffffffffffffffffffffffffff1673ffffffffffffffffffffffffffffffffffffffff163373ffffffffffffffffffffffffffffffffffffffff16146108d7576040517f08c379a00000000000000000000000000000000000000000000000000000000081526004016108ce9061130f565b60405180910390fd5b6108e082610d82565b9050919050565b6000600160009054906101000a900473ffffffffffffffffffffffffffffffffffffffff1673ffffffffffffffffffffffffffffffffffffffff163373ffffffffffffffffffffffffffffffffffffffff1614610979576040517f08c379a00000000000000000000000000000000000000000000000000000000081526004016109709061130f565b60405180910390fd5b6109838383610de9565b905092915050565b600260009054906101000a900473ffffffffffffffffffffffffffffffffffffffff1673ffffffffffffffffffffffffffffffffffffffff163373ffffffffffffffffffffffffffffffffffffffff1614610a1b576040517f08c379a0000000000000000000000000000000000000000000000000000000008152600401610a1290611355565b60405180910390fd5b6000600260149054906101000a900460ff16151581151514610a72576040517f08c379a0000000000000000000000000000000000000000000000000000000008152600401610a6990611355565b60405180910390fd5b6001600260146101000a81548160ff02191690831515021790555050565b6611c37937e08000620186a0610aa691906113a4565b81565b6040518060400160405280600881526020017f544f4b454e2e434600000000000000000000000000000000000000000000000081525081565b600260149054906101000a900460ff1681565b600033600260149054906101000a900460ff1680610b5c5750600660008273ffffffffffffffffffffffffffffffffffffffff1673ffffffffffffffffffffffffffffffffffffffff16815260200190815260200160002060009054906101000a900460ff165b610b9b576040517f08c379a0000000000000000000000000000000000000000000000000000000008152600401610b9290611355565b60405180910390fd5b610ba58484610ecc565b91505092915050565b600260009054906101000a900473ffffffffffffffffffffffffffffffffffffffff1681565b6040518060400160405280600581526020017f312e302e3500000000000000000000000000000000000000000000000000000081525081565b600081600c60008673ffffffffffffffffffffffffffffffffffffffff1673ffffffffffffffffffffffffffffffffffffffff1681526020019081526020016000205411610c90576040517f08c379a0000000000000000000000000000000000000000000000000000000008152600401610c879061144a565b60405180910390fd5b81600c60008573ffffffffffffffffffffffffffffffffffffffff1673ffffffffffffffffffffffffffffffffffffffff1681526020019081526020016000206000828254610cdf919061146a565b9250508190555081600c60008673ffffffffffffffffffffffffffffffffffffffff1673ffffffffffffffffffffffffffffffffffffffff1681526020019081526020016000206000828254610d3591906114c0565b925050819055507fc0d84ce5c7ff9ca21adb0f8436ff3f4951b4bb78c4e2fae2b6837958b3946ffd848484604051610d6f939291906114f4565b60405180910390a1600190509392505050565b60008160005411610dc8576040517f08c379a0000000000000000000000000000000000000000000000000000000008152600401610dbf9061144a565b60405180910390fd5b81600080828254610dd991906114c0565b9250508190555060019050919050565b600081600c60008573ffffffffffffffffffffffffffffffffffffffff1673ffffffffffffffffffffffffffffffffffffffff1681526020019081526020016000205411610e6c576040517f08c379a0000000000000000000000000000000000000000000000000000000008152600401610e639061144a565b60405180910390fd5b81600c60008573ffffffffffffffffffffffffffffffffffffffff1673ffffffffffffffffffffffffffffffffffffffff1681526020019081526020016000206000828254610ebb91906114c0565b925050819055506001905092915050565b600081600c60008573ffffffffffffffffffffffffffffffffffffffff1673ffffffffffffffffffffffffffffffffffffffff168152602001908152602001600020819055507f69ca02dd4edd7bf0a4abb9ed3b7af3f14778db5d61921c7dc7cd545266326de28383604051610f4392919061152b565b60405180910390a16001905092915050565b600080fd5b600073ffffffffffffffffffffffffffffffffffffffff82169050919050565b6000610f8582610f5a565b9050919050565b610f9581610f7a565b8114610fa057600080fd5b50565b600081359050610fb281610f8c565b92915050565b60008115159050919050565b610fcd81610fb8565b8114610fd857600080fd5b50565b600081359050610fea81610fc4565b92915050565b6000806040838503121561100757611006610f55565b5b600061101585828601610fa3565b925050602061102685828601610fdb565b9150509250929050565b600081519050919050565b600082825260208201905092915050565b60005b8381101561106a57808201518184015260208101905061104f565b83811115611079576000848401525b50505050565b6000601f19601f8301169050919050565b600061109b82611030565b6110a5818561103b565b93506110b581856020860161104c565b6110be8161107f565b840191505092915050565b600060208201905081810360008301526110e38184611090565b905092915050565b6000819050919050565b6110fe816110eb565b82525050565b600060208201905061111960008301846110f5565b92915050565b611128816110eb565b811461113357600080fd5b50565b6000813590506111458161111f565b92915050565b60008060006060848603121561116457611163610f55565b5b600061117286828701610fa3565b935050602061118386828701610fa3565b925050604061119486828701611136565b9150509250925092565b6111a781610fb8565b82525050565b60006020820190506111c2600083018461119e565b92915050565b6000602082840312156111de576111dd610f55565b5b60006111ec84828501610fa3565b91505092915050565b600060ff82169050919050565b61120b816111f5565b82525050565b60006020820190506112266000830184611202565b92915050565b60006020828403121561124257611241610f55565b5b600061125084828501611136565b91505092915050565b600080604083850312156112705761126f610f55565b5b600061127e85828601610fa3565b925050602061128f85828601611136565b9150509250929050565b6112a281610f7a565b82525050565b60006020820190506112bd6000830184611299565b92915050565b7f6163636573732064656e69656400000000000000000000000000000000000000600082015250565b60006112f9600d8361103b565b9150611304826112c3565b602082019050919050565b60006020820190508181036000830152611328816112ec565b9050919050565b50565b600061133f60008361103b565b915061134a8261132f565b600082019050919050565b6000602082019050818103600083015261136e81611332565b9050919050565b7f4e487b7100000000000000000000000000000000000000000000000000000000600052601160045260246000fd5b60006113af826110eb565b91506113ba836110eb565b9250817fffffffffffffffffffffffffffffffffffffffffffffffffffffffffffffffff04831182151516156113f3576113f2611375565b5b828202905092915050565b7f696e73756666696369656e742062616c616e6365000000000000000000000000600082015250565b600061143460148361103b565b915061143f826113fe565b602082019050919050565b6000602082019050818103600083015261146381611427565b9050919050565b6000611475826110eb565b9150611480836110eb565b9250827fffffffffffffffffffffffffffffffffffffffffffffffffffffffffffffffff038211156114b5576114b4611375565b5b828201905092915050565b60006114cb826110eb565b91506114d6836110eb565b9250828210156114e9576114e8611375565b5b828203905092915050565b60006060820190506115096000830186611299565b6115166020830185611299565b61152360408301846110f5565b949350505050565b60006040820190506115406000830185611299565b61154d60208301846110f5565b939250505056fea2646970667358221220c289fa35d86ce02a6f5a3707b390f165ab17c937e8fdc542be987fd4879c4eac64736f6c634300080a0033",
  "immutableReferences": {},
  "source": "// SPDX-License-Identifier: CC-BY-4.0\npragma solidity >=0.4.22 <0.9.0;\n\n/**\n * Regulation Crowdfunding; Section 4(a)(6)\n * ----------------------------------------\n * See https://www.sec.gov/info/smallbus/secg/rccomplianceguide-051316.htm\n *\n * c. Transactions Conducted Through an Intermediary\n *\n * Each Regulation Crowdfunding offering must be exclusively conducted through one online platform. The intermediary operating the platform must be a broker-dealer\n * or a funding portal that is registered with the SEC and FINRA.\n *\n * Issuers may rely on the efforts of the intermediary to determine that the aggregate amount of securities purchased by an investor does not cause the investor\n * to exceed the investment limits, so long as the issuer does not have knowledge that the investor would exceed the investment limits as a result of purchasing\n * securities in the issuers offering.\n */\n\n// IMPORTANT NOTE: BECUASE OF THE REGULATIONS FOR CROWD FUNDING MUST BE CONDUCTED THROUGH AN INTERMEDIATARY THAT IS REGISTERED AS A BROKER-DEAKER OR FUNDING PORTAL WITH\n// THE SEC AND FINRA, THIS CROWDFUNDING TOKEN IS USEFUL FOR ONLY A REGISTERED BROKER-DEALER OR FUNDING PORTAL THAT DESIRES TO OFFER A CRYPTOCURRENCY.\n\n// An example of a crowdfunding token at https://github.com/JincorTech/ico/blob/master/contracts/JincorToken.sol\n\nimport \"../Version.sol\";\n\ncontract ExemptEquityOfferingRegC is Version {\n    string public constant name = \"Crowdfunding Token\";\n    string public constant symbol = \"TOKEN.CF\";\n    uint8 public constant decimals = 0;\n    uint256 public totalSupply = 0;\n\n    uint256 public constant negative = type(uint256).max;\n\n    uint256 public constant INITIAL_SUPPLY = 100000 * 1 ether;\n\n    bytes32 constant private ZERO_BYTES = bytes32(0);\n    address constant private ZERO_ADDRESS = address(0);\n\n    address private owner;\n\n    /* The finalizer contract that allows unlift the transfer limits on this token */\n    address public releaseAgent;\n\n    /** A crowdsale contract can release us to the wild if ICO success. If false we are are in transfer lock up period.*/\n    bool public released = false;\n\n    /** Map of agents that are allowed to transfer tokens regardless of the lock down period. These are crowdsale contracts and possible the team multisig itself. */\n    mapping(address => bytes32) private verified;\n    mapping(address => address) private cancellations;\n    mapping(address => uint256) private holderIndices;\n    mapping(address => bool) private transferAgents;\n    mapping(address => uint256) private minters;\n    mapping(address => mapping(address => uint256)) private _allowances;\n\n    address[] private shareholders;\n\n    bool internal active = false;\n    uint256 private start_timestamp;\n\n    mapping (address => uint256) public balances;\n\n    event ExemptOffering(address indexed from,string status, uint256 value);\n    event Transfer(address addr, uint256 amount);\n    event TransferFrom(address from,address to,uint256 value);\n    event TransferAgentAdded(address addr);\n    event TransferAgentRemoved(address addr);\n    event MinterAdded(address addr);\n    event Minted(address addr, uint256 amount);\n    event VerifiedAddressSuperseded(address addr1,address addr2,address addr3);\n    event VerifiedAddressUpdated(address addr, bytes32 oldhash, bytes32 hash, address sender);\n    event VerifiedAddressRemoved(address addr, address sender);\n    event VerifiedAddressAdded(address addr, bytes32 hash, address sender);\n    event Bought(uint value);\n    event Sold(uint value);\n\n    uint constant public parValue = 5 * 0.001 ether;\n    uint constant public totalValueMax = 100000 * parValue;\n    uint private totalValue = 0;\n\n    uint256 private contract_creation; // The contract creation time\n\n    bool private restricted = false;\n\n    uint private year = 52 weeks;\n    uint private sixmonths = 26 weeks;\n\n      /**\n       * @dev Constructor that gives msg.sender all of existing tokens.\n       */\n    constructor()\n    {\n        balances[msg.sender] = INITIAL_SUPPLY;\n        _mint(msg.sender, INITIAL_SUPPLY);\n    }\n\n    modifier onlyOwner() {\n        require(msg.sender == owner, \"access denied\");\n        _;\n    }\n\n    modifier isMinter() {\n      require(minters[msg.sender] == 1,\"not a minter\");\n      _;\n    }\n\n\n    modifier isActive() {\n        require(active, \"exempt offering is not active\");\n        _;\n    }\n\n    modifier isVerifiedAddress(address addr) {\n        require(verified[addr] != ZERO_BYTES, \"\");\n        _;\n    }\n\n    /**\n    * Limit token transfer until the crowdsale is over.\n    *\n    */\n    modifier canTransfer(address _sender) {\n        require(released || transferAgents[_sender], \"\");\n        _;\n    }\n\n    /** The function can be called only before or after the tokens have been released */\n    modifier inReleaseState(bool releaseState) {\n        require(releaseState == released, \"\");\n        _;\n    }\n\n    /** The function can be called only by a whitelisted release agent. */\n    modifier onlyReleaseAgent() {\n        require(msg.sender == releaseAgent, \"\");\n        _;\n    }\n\n\n\n\n    /**\n    * Set the contract that can call release and make the token transferable.\n    *\n    * Design choice. Allow reset the release agent to fix fat finger mistakes.\n    */\n    function setReleaseAgent(address addr) public onlyOwner inReleaseState(false) {\n        require(addr != ZERO_ADDRESS, \"\");\n\n        // We don't do interface check here as we might want to a normal wallet address to act as a release agent\n        releaseAgent = addr;\n    }\n\n    function release() public onlyReleaseAgent inReleaseState(false) {\n        released = true;\n    }\n\n    /**\n    * Owner can allow a particular address (a crowdsale contract) to transfer tokens despite the lock up period.\n    */\n    function setTransferAgent(address addr, bool state) public onlyOwner inReleaseState(false) {\n        require(addr != ZERO_ADDRESS, \"\");\n        transferAgents[addr] = state;\n    }\n\n    function transfer(address _to, uint _value) public canTransfer(msg.sender) returns (bool success) {\n        // Call Burnable.transfer()\n        return _transfer(_to, _value);\n    }\n\n    function transferFrom(address _from, address _to, uint _value) public canTransfer(_from) returns (bool success) {\n        // Call Burnable.transferForm()\n        return _transferFrom(_from, _to, _value);\n    }\n\n    function burn(uint _value) public onlyOwner returns (bool success) {\n        return _burn(_value);\n    }\n\n    function burnFrom(address _from, uint _value) public onlyOwner returns (bool success) {\n        return _burnFrom(_from, _value);\n    }\n\n    // Internal\n    function _mint(address addr, uint256 amount)\n      internal\n      returns (bool)\n    {\n      require(amount <= totalSupply, \"exceeds total supply\");\n      balances[addr] += amount;\n      emit Minted(addr, amount);\n      return true;\n    }\n\n    function _transfer(address addr, uint256 amount)\n      internal\n      returns (bool)\n    {\n      balances[addr] = amount;\n      emit Transfer(addr, amount);\n      return true;\n    }\n\n    function _transferFrom(address from,address to,uint256 value)\n      internal\n      returns (bool)\n    {\n      require(balances[from] > value, \"insufficient balance\");\n      balances[to] += value;\n      balances[from] -= value;\n      emit TransferFrom(from, to, value);\n      return true;\n    }\n\n    function _burn(uint256 value)\n      internal\n      returns (bool)\n    {\n      require(totalSupply > value, \"insufficient balance\");\n      totalSupply -= value;\n      return true;\n    }\n\n    function _burnFrom(address _from,uint256 _value)\n      internal\n      returns (bool)\n    {\n      require(balances[_from] > _value, \"insufficient balance\");\n      balances[_from] -= _value;\n      return true;\n    }\n}\n",
  "sourcePath": "G:\\projects\\pingleware-contracts\\contracts\\equity\\ExemptEquityOfferingRegC.sol",
  "compiler": {
    "name": "solc",
    "version": "0.8.10+commit.fc410830.Emscripten.clang"
  },
  "schemaVersion": "3.4.3",
  "updatedAt": "2021-12-22T00:15:20.043Z",
  "devdoc": {
    "kind": "dev",
    "methods": {
      "constructor": {
        "details": "Constructor that gives msg.sender all of existing tokens."
      }
    },
    "version": 1
  },
  "userdoc": {
    "kind": "user",
    "methods": {
      "released()": {
        "notice": "A crowdsale contract can release us to the wild if ICO success. If false we are are in transfer lock up period."
      },
      "setReleaseAgent(address)": {
        "notice": "Set the contract that can call release and make the token transferable. Design choice. Allow reset the release agent to fix fat finger mistakes."
      },
      "setTransferAgent(address,bool)": {
        "notice": "Owner can allow a particular address (a crowdsale contract) to transfer tokens despite the lock up period."
      }
    },
    "version": 1
  }
}