{
  "contractName": "ExemptEquityOffering506B",
  "abi": [
    {
      "inputs": [],
      "stateMutability": "payable",
      "type": "constructor"
    },
    {
      "anonymous": false,
      "inputs": [
        {
          "indexed": false,
          "internalType": "address",
          "name": "sender",
          "type": "address"
        },
        {
          "indexed": false,
          "internalType": "uint256",
          "name": "value",
          "type": "uint256"
        },
        {
          "indexed": false,
          "internalType": "uint256",
          "name": "epoch",
          "type": "uint256"
        }
      ],
      "name": "Bought",
      "type": "event"
    },
    {
      "anonymous": false,
      "inputs": [
        {
          "indexed": true,
          "internalType": "address",
          "name": "from",
          "type": "address"
        },
        {
          "indexed": false,
          "internalType": "string",
          "name": "status",
          "type": "string"
        },
        {
          "indexed": false,
          "internalType": "uint256",
          "name": "value",
          "type": "uint256"
        }
      ],
      "name": "ExemptOffering",
      "type": "event"
    },
    {
      "anonymous": false,
      "inputs": [
        {
          "indexed": false,
          "internalType": "address",
          "name": "addr",
          "type": "address"
        },
        {
          "indexed": false,
          "internalType": "uint256",
          "name": "amount",
          "type": "uint256"
        }
      ],
      "name": "Minted",
      "type": "event"
    },
    {
      "anonymous": false,
      "inputs": [
        {
          "indexed": false,
          "internalType": "address",
          "name": "addr",
          "type": "address"
        }
      ],
      "name": "MinterAdded",
      "type": "event"
    },
    {
      "anonymous": false,
      "inputs": [
        {
          "indexed": false,
          "internalType": "address",
          "name": "sender",
          "type": "address"
        },
        {
          "indexed": false,
          "internalType": "uint256",
          "name": "value",
          "type": "uint256"
        },
        {
          "indexed": false,
          "internalType": "uint256",
          "name": "epoch",
          "type": "uint256"
        }
      ],
      "name": "Sold",
      "type": "event"
    },
    {
      "anonymous": false,
      "inputs": [
        {
          "indexed": false,
          "internalType": "address",
          "name": "addr",
          "type": "address"
        },
        {
          "indexed": false,
          "internalType": "uint256",
          "name": "amount",
          "type": "uint256"
        }
      ],
      "name": "Transfer",
      "type": "event"
    },
    {
      "anonymous": false,
      "inputs": [
        {
          "indexed": false,
          "internalType": "address",
          "name": "owner",
          "type": "address"
        },
        {
          "indexed": false,
          "internalType": "address",
          "name": "addr",
          "type": "address"
        }
      ],
      "name": "TransferAgentAdded",
      "type": "event"
    },
    {
      "anonymous": false,
      "inputs": [
        {
          "indexed": false,
          "internalType": "address",
          "name": "owner",
          "type": "address"
        },
        {
          "indexed": false,
          "internalType": "address",
          "name": "addr",
          "type": "address"
        }
      ],
      "name": "TransferAgentRemoved",
      "type": "event"
    },
    {
      "anonymous": false,
      "inputs": [
        {
          "indexed": false,
          "internalType": "address",
          "name": "from",
          "type": "address"
        },
        {
          "indexed": false,
          "internalType": "address",
          "name": "to",
          "type": "address"
        },
        {
          "indexed": false,
          "internalType": "uint256",
          "name": "value",
          "type": "uint256"
        }
      ],
      "name": "TransferFrom",
      "type": "event"
    },
    {
      "inputs": [],
      "name": "INITIAL_SUPPLY",
      "outputs": [
        {
          "internalType": "uint256",
          "name": "",
          "type": "uint256"
        }
      ],
      "stateMutability": "view",
      "type": "function"
    },
    {
      "inputs": [],
      "name": "VERSION",
      "outputs": [
        {
          "internalType": "string",
          "name": "",
          "type": "string"
        }
      ],
      "stateMutability": "view",
      "type": "function"
    },
    {
      "inputs": [],
      "name": "WAIT",
      "outputs": [
        {
          "internalType": "uint256",
          "name": "",
          "type": "uint256"
        }
      ],
      "stateMutability": "view",
      "type": "function"
    },
    {
      "inputs": [
        {
          "internalType": "address",
          "name": "addr",
          "type": "address"
        }
      ],
      "name": "addMinter",
      "outputs": [],
      "stateMutability": "nonpayable",
      "type": "function"
    },
    {
      "inputs": [
        {
          "internalType": "address",
          "name": "addr",
          "type": "address"
        },
        {
          "internalType": "uint256",
          "name": "level",
          "type": "uint256"
        }
      ],
      "name": "addShareholder",
      "outputs": [],
      "stateMutability": "payable",
      "type": "function"
    },
    {
      "inputs": [
        {
          "internalType": "address",
          "name": "addr",
          "type": "address"
        },
        {
          "internalType": "bytes32",
          "name": "encrypted",
          "type": "bytes32"
        },
        {
          "internalType": "bytes",
          "name": "signature",
          "type": "bytes"
        }
      ],
      "name": "addTransferAgent",
      "outputs": [],
      "stateMutability": "nonpayable",
      "type": "function"
    },
    {
      "inputs": [
        {
          "internalType": "address",
          "name": "addr",
          "type": "address"
        },
        {
          "internalType": "string",
          "name": "hash",
          "type": "string"
        }
      ],
      "name": "addVerified",
      "outputs": [],
      "stateMutability": "nonpayable",
      "type": "function"
    },
    {
      "inputs": [
        {
          "internalType": "address",
          "name": "_owner",
          "type": "address"
        },
        {
          "internalType": "address",
          "name": "spender",
          "type": "address"
        }
      ],
      "name": "allowance",
      "outputs": [
        {
          "internalType": "uint256",
          "name": "",
          "type": "uint256"
        }
      ],
      "stateMutability": "view",
      "type": "function"
    },
    {
      "inputs": [
        {
          "internalType": "address",
          "name": "original",
          "type": "address"
        },
        {
          "internalType": "address",
          "name": "replacement",
          "type": "address"
        }
      ],
      "name": "cancelAndReissue",
      "outputs": [],
      "stateMutability": "nonpayable",
      "type": "function"
    },
    {
      "inputs": [],
      "name": "decimals",
      "outputs": [
        {
          "internalType": "uint8",
          "name": "",
          "type": "uint8"
        }
      ],
      "stateMutability": "view",
      "type": "function"
    },
    {
      "inputs": [
        {
          "internalType": "address",
          "name": "addr",
          "type": "address"
        }
      ],
      "name": "getCurrentFor",
      "outputs": [
        {
          "internalType": "address",
          "name": "",
          "type": "address"
        }
      ],
      "stateMutability": "payable",
      "type": "function"
    },
    {
      "inputs": [],
      "name": "getOwner",
      "outputs": [
        {
          "internalType": "address",
          "name": "",
          "type": "address"
        }
      ],
      "stateMutability": "payable",
      "type": "function"
    },
    {
      "inputs": [
        {
          "internalType": "uint256",
          "name": "index",
          "type": "uint256"
        }
      ],
      "name": "holderAt",
      "outputs": [
        {
          "internalType": "address",
          "name": "",
          "type": "address"
        }
      ],
      "stateMutability": "payable",
      "type": "function"
    },
    {
      "inputs": [],
      "name": "holderCount",
      "outputs": [
        {
          "internalType": "uint256",
          "name": "",
          "type": "uint256"
        }
      ],
      "stateMutability": "payable",
      "type": "function"
    },
    {
      "inputs": [
        {
          "internalType": "address",
          "name": "addr",
          "type": "address"
        }
      ],
      "name": "isSuperseded",
      "outputs": [
        {
          "internalType": "bool",
          "name": "",
          "type": "bool"
        }
      ],
      "stateMutability": "payable",
      "type": "function"
    },
    {
      "inputs": [
        {
          "internalType": "address",
          "name": "addr",
          "type": "address"
        }
      ],
      "name": "isVerified",
      "outputs": [
        {
          "internalType": "bool",
          "name": "",
          "type": "bool"
        }
      ],
      "stateMutability": "payable",
      "type": "function"
    },
    {
      "inputs": [],
      "name": "marketCap",
      "outputs": [
        {
          "internalType": "uint256",
          "name": "",
          "type": "uint256"
        }
      ],
      "stateMutability": "view",
      "type": "function"
    },
    {
      "inputs": [],
      "name": "maxNonaccredited",
      "outputs": [
        {
          "internalType": "uint256",
          "name": "",
          "type": "uint256"
        }
      ],
      "stateMutability": "view",
      "type": "function"
    },
    {
      "inputs": [],
      "name": "name",
      "outputs": [
        {
          "internalType": "string",
          "name": "",
          "type": "string"
        }
      ],
      "stateMutability": "view",
      "type": "function"
    },
    {
      "inputs": [
        {
          "internalType": "address",
          "name": "addr",
          "type": "address"
        },
        {
          "internalType": "bytes32",
          "name": "encrypted",
          "type": "bytes32"
        },
        {
          "internalType": "bytes",
          "name": "signature",
          "type": "bytes"
        }
      ],
      "name": "removeTransferAgent",
      "outputs": [],
      "stateMutability": "nonpayable",
      "type": "function"
    },
    {
      "inputs": [
        {
          "internalType": "address",
          "name": "addr",
          "type": "address"
        }
      ],
      "name": "removeVerified",
      "outputs": [],
      "stateMutability": "nonpayable",
      "type": "function"
    },
    {
      "inputs": [
        {
          "internalType": "uint256",
          "name": "value",
          "type": "uint256"
        }
      ],
      "name": "setMaxUnaccreditInvestors",
      "outputs": [],
      "stateMutability": "nonpayable",
      "type": "function"
    },
    {
      "inputs": [
        {
          "internalType": "address",
          "name": "_contract",
          "type": "address"
        },
        {
          "internalType": "uint256",
          "name": "value",
          "type": "uint256"
        }
      ],
      "name": "setParValue",
      "outputs": [],
      "stateMutability": "payable",
      "type": "function"
    },
    {
      "inputs": [],
      "name": "sharesOustanding",
      "outputs": [
        {
          "internalType": "uint256",
          "name": "",
          "type": "uint256"
        }
      ],
      "stateMutability": "view",
      "type": "function"
    },
    {
      "inputs": [],
      "name": "start",
      "outputs": [],
      "stateMutability": "nonpayable",
      "type": "function"
    },
    {
      "inputs": [],
      "name": "stop",
      "outputs": [],
      "stateMutability": "nonpayable",
      "type": "function"
    },
    {
      "inputs": [],
      "name": "symbol",
      "outputs": [
        {
          "internalType": "string",
          "name": "",
          "type": "string"
        }
      ],
      "stateMutability": "view",
      "type": "function"
    },
    {
      "inputs": [
        {
          "internalType": "string",
          "name": "name",
          "type": "string"
        },
        {
          "internalType": "uint256",
          "name": "timestamp",
          "type": "uint256"
        },
        {
          "internalType": "bool",
          "name": "_active",
          "type": "bool"
        },
        {
          "internalType": "uint256",
          "name": "_initial_supply",
          "type": "uint256"
        }
      ],
      "name": "toggleExemptOffering",
      "outputs": [],
      "stateMutability": "nonpayable",
      "type": "function"
    },
    {
      "inputs": [],
      "name": "totalValueMax",
      "outputs": [
        {
          "internalType": "uint256",
          "name": "",
          "type": "uint256"
        }
      ],
      "stateMutability": "view",
      "type": "function"
    },
    {
      "inputs": [
        {
          "internalType": "address",
          "name": "to",
          "type": "address"
        },
        {
          "internalType": "uint256",
          "name": "value",
          "type": "uint256"
        },
        {
          "internalType": "uint256",
          "name": "epoch",
          "type": "uint256"
        }
      ],
      "name": "transfer",
      "outputs": [
        {
          "internalType": "bool",
          "name": "",
          "type": "bool"
        }
      ],
      "stateMutability": "nonpayable",
      "type": "function"
    },
    {
      "inputs": [
        {
          "internalType": "address",
          "name": "from",
          "type": "address"
        },
        {
          "internalType": "address",
          "name": "to",
          "type": "address"
        },
        {
          "internalType": "uint256",
          "name": "value",
          "type": "uint256"
        },
        {
          "internalType": "uint256",
          "name": "epoch",
          "type": "uint256"
        }
      ],
      "name": "transferFrom",
      "outputs": [
        {
          "internalType": "bool",
          "name": "",
          "type": "bool"
        }
      ],
      "stateMutability": "nonpayable",
      "type": "function"
    },
    {
      "inputs": [
        {
          "internalType": "address",
          "name": "addr",
          "type": "address"
        },
        {
          "internalType": "string",
          "name": "hash",
          "type": "string"
        }
      ],
      "name": "updateVerified",
      "outputs": [],
      "stateMutability": "nonpayable",
      "type": "function"
    },
    {
      "inputs": [
        {
          "internalType": "address",
          "name": "_to",
          "type": "address"
        },
        {
          "internalType": "uint256",
          "name": "_amount",
          "type": "uint256"
        },
        {
          "internalType": "bytes32",
          "name": "encrypted",
          "type": "bytes32"
        },
        {
          "internalType": "bytes",
          "name": "signature",
          "type": "bytes"
        }
      ],
      "name": "mint",
      "outputs": [
        {
          "internalType": "bool",
          "name": "",
          "type": "bool"
        }
      ],
      "stateMutability": "nonpayable",
      "type": "function"
    },
    {
      "inputs": [
        {
          "internalType": "address",
          "name": "_to",
          "type": "address"
        },
        {
          "internalType": "uint256",
          "name": "_amount",
          "type": "uint256"
        },
        {
          "internalType": "uint256",
          "name": "_epoch",
          "type": "uint256"
        },
        {
          "internalType": "uint256",
          "name": "_initial_supply",
          "type": "uint256"
        }
      ],
      "name": "mint",
      "outputs": [
        {
          "internalType": "bool",
          "name": "",
          "type": "bool"
        }
      ],
      "stateMutability": "nonpayable",
      "type": "function"
    },
    {
      "inputs": [
        {
          "internalType": "uint256",
          "name": "amount",
          "type": "uint256"
        },
        {
          "internalType": "uint256",
          "name": "epoch",
          "type": "uint256"
        }
      ],
      "name": "buy",
      "outputs": [],
      "stateMutability": "payable",
      "type": "function"
    },
    {
      "inputs": [
        {
          "internalType": "address payable",
          "name": "sender",
          "type": "address"
        },
        {
          "internalType": "uint256",
          "name": "amount",
          "type": "uint256"
        },
        {
          "internalType": "uint256",
          "name": "epoch",
          "type": "uint256"
        }
      ],
      "name": "sell",
      "outputs": [],
      "stateMutability": "payable",
      "type": "function"
    }
  ],
  "bytecode": "0x608060405260008054600682905560088290556009829055600a829055600160a860020a0319166101003302179055426001556200004d306005640100000000620000538102620009501704565b62000121565b3360009081526002602052604090205460ff161515600114620000fb576040517f08c379a0000000000000000000000000000000000000000000000000000000008152602060048201526024808201527f6163636573732064656e69656420666f7220746865207472616e73666572206160448201527f67656e7400000000000000000000000000000000000000000000000000000000606482015260840160405180910390fd5b60078054600160a060020a031916600160a060020a039390931692909217909155600655565b613d9b80620001316000396000f3fe6080604052600436106102135760003560e060020a900480638bf140941161011c578063be9a6555116100a4578063cc9a91b411610073578063cc9a91b4146105da578063d6febde8146105fa578063dd62ed3e1461060d578063fe99049a14610653578063ffa1ad741461067357600080fd5b8063be9a655514610573578063c8278b6414610592578063c93fcbb4146105b2578063cc397ed3146105c757600080fd5b80639a76d745116100eb5780639a76d745146104eb578063a647e8ec1461050b578063aa4a637b1461052b578063b8fb3a511461054b578063b9209e331461056057600080fd5b80638bf140941461044b57806395d89b411461046257806396d66de0146104ab578063983b2d56146104cb57600080fd5b8063313ce5671161019f5780636a2724621161016e5780636a272462146103dd57806375724990146103f057806379f647201461040357806384f78a9814610423578063893d20e81461044357600080fd5b8063313ce56714610360578063425fd0ae146103875780634487b3921461039d57806355c904d3146103bd57600080fd5b8063197bc336116101e6578063197bc336146102d85780631aab9a9f146103035780632c135b93146103195780632da7293e1461032f5780632ff2e9dc1461034257600080fd5b806306fdde031461021857806307da68f514610277578063095bcdb6146102955780630b08058c146102c5575b600080fd5b34801561022457600080fd5b506102616040518060400160405280601181526020017f52756c652035303628622920546f6b656e00000000000000000000000000000081525081565b60405161026e9190613504565b60405180910390f35b34801561028357600080fd5b506102936000805460ff19169055565b005b3480156102a157600080fd5b506102b56102b0366004613533565b6106bc565b604051901515815260200161026e565b6102936102d3366004613568565b610950565b6102eb6102e6366004613594565b6109ad565b604051600160a060020a03909116815260200161026e565b61030b610a4c565b60405190815260200161026e565b34801561032557600080fd5b5061030b60095481565b6102b561033d3660046135ad565b610a90565b34801561034e57600080fd5b5061030b69152d02c7e14af680000081565b34801561036c57600080fd5b50610375600081565b60405160ff909116815260200161026e565b34801561039357600080fd5b5061030b60085481565b3480156103a957600080fd5b506102936103b83660046135ad565b610ad0565b3480156103c957600080fd5b506102936103d8366004613670565b610b6e565b6102936103eb366004613533565b610cab565b6102936103fe366004613568565b610f5f565b34801561040f57600080fd5b5061029361041e3660046136c0565b610fa0565b34801561042f57600080fd5b5061029361043e3660046136f9565b611076565b6102eb61123c565b34801561045757600080fd5b5061030b624c4b4081565b34801561046e57600080fd5b506102616040518060400160405280600a81526020017f544f4b454e2e353036420000000000000000000000000000000000000000000081525081565b3480156104b757600080fd5b506102b56104c6366004613752565b611317565b3480156104d757600080fd5b506102936104e63660046135ad565b6116f0565b3480156104f757600080fd5b506102936105063660046136f9565b6117d4565b34801561051757600080fd5b506102b56105263660046137b5565b611973565b34801561053757600080fd5b50610293610546366004613670565b611bb7565b34801561055757600080fd5b5061030b601e81565b6102b561056e3660046135ad565b611c49565b34801561057f57600080fd5b506102936000805460ff19166001179055565b34801561059e57600080fd5b506102936105ad366004613594565b611c54565b3480156105be57600080fd5b5061030b602381565b6102eb6105d53660046135ad565b611c94565b3480156105e657600080fd5b506102936105f53660046137fe565b611cd4565b61029361060836600461385f565b611e7a565b34801561061957600080fd5b5061030b6106283660046136c0565b600160a060020a03918216600090815260036020908152604080832093909416825291909152205490565b34801561065f57600080fd5b506102b561066e366004613881565b612042565b34801561067f57600080fd5b506102616040518060400160405280600581526020017f312e302e3500000000000000000000000000000000000000000000000000000081525081565b600073__ActiveOffering________________________6322f3e2d46040518163ffffffff1660e060020a028152600401602060405180830381865af415801561070a573d6000803e3d6000fd5b505050506040513d601f19601f8201168201806040525081019061072e91906138c7565b6107565760405160e560020a62461bcd02815260040161074d906138e4565b60405180910390fd5b6040517eba40ae000000000000000000000000000000000000000000000000000000008152600160a060020a038516600482015273__Transaction___________________________9062ba40ae90602401602060405180830381865af41580156107c5573d6000803e3d6000fd5b505050506040513d601f19601f820116820180604052508101906107e991906138c7565b6108085760405160e560020a62461bcd02815260040161074d9061391b565b610811846122c5565b61081b3384612376565b60006006548461082b919061396b565b60405160e060020a63590c4ef902815290915073__Transaction___________________________9063590c4ef99061086e908890859089908990600401613990565b602060405180830381865af415801561088b573d6000803e3d6000fd5b505050506040513d601f19601f820116820180604052508101906108af91906139b6565b5073__Transaction___________________________63590c4ef933836108d8886000196139cf565b876040518563ffffffff1660e060020a0281526004016108fb9493929190613990565b602060405180830381865af4158015610918573d6000803e3d6000fd5b505050506040513d601f19601f8201168201806040525081019061093c91906139b6565b506109478585612530565b95945050505050565b3360009081526002602052604090205460ff1615156001146109875760405160e560020a62461bcd02815260040161074d906139ee565b60078054600160a060020a031916600160a060020a039390931692909217909155600655565b3360009081526002602052604081205460ff1615156001146109e45760405160e560020a62461bcd02815260040161074d906139ee565b6109ec6125a3565b8210610a3d5760405160e560020a62461bcd02815260206004820152601660248201527f686f6c6465724174206f7574206f6620626f756e647300000000000000000000604482015260640161074d565b610a46826125b6565b92915050565b3360009081526002602052604081205460ff161515600114610a835760405160e560020a62461bcd02815260040161074d906139ee565b610a8b6125a3565b905090565b3360009081526002602052604081205460ff161515600114610ac75760405160e560020a62461bcd02815260040161074d906139ee565b610a468261264c565b3360009081526002602052604090205460ff161515600114610b075760405160e560020a62461bcd02815260040161074d906139ee565b600160a060020a0381163115610b625760405160e560020a62461bcd02815260206004820152601b60248201527f6163636f756e742062616c616e6365206973206e6f74207a65726f0000000000604482015260640161074d565b610b6b8161267e565b50565b3360009081526002602052604090205460ff161515600114610ba55760405160e560020a62461bcd02815260040161074d906139ee565b600160a060020a038216610c245760405160e560020a62461bcd02815260206004820152602260248201527f28616464566572696669656429202d2061646472657373206973206d6973736960448201527f6e67000000000000000000000000000000000000000000000000000000000000606482015260840161074d565b8051610c755760405160e560020a62461bcd02815260206004820152601f60248201527f28616464566572696669656429202d2068617368206973206d697373696e6700604482015260640161074d565b610c7e8261271f565b610c9d5760405160e560020a62461bcd02815260040161074d90613a4b565b610ca7828261275b565b5050565b73__ActiveOffering________________________6322f3e2d46040518163ffffffff1660e060020a028152600401602060405180830381865af4158015610cf7573d6000803e3d6000fd5b505050506040513d601f19601f82011682018060405250810190610d1b91906138c7565b610d3a5760405160e560020a62461bcd02815260040161074d906138e4565b610d438361271f565b610d625760405160e560020a62461bcd02815260040161074d90613aa8565b6040517eba40ae000000000000000000000000000000000000000000000000000000008152600160a060020a038416600482015273__Transaction___________________________9062ba40ae90602401602060405180830381865af4158015610dd1573d6000803e3d6000fd5b505050506040513d601f19601f82011682018060405250810190610df591906138c7565b610e145760405160e560020a62461bcd02815260040161074d9061391b565b60008211610e8d5760405160e560020a62461bcd02815260206004820152602560248201527f596f75206e65656420746f2073656c6c206174206c6561737420736f6d65207460448201527f6f6b656e73000000000000000000000000000000000000000000000000000000606482015260840161074d565b600160a060020a038316600090815260036020908152604080832030845290915290205482811015610f045760405160e560020a62461bcd02815260206004820152601960248201527f436865636b2074686520746f6b656e20616c6c6f77616e636500000000000000604482015260640161074d565b610f0f8430856128e4565b60408051600160a060020a0386168152602081018590529081018390527fbac9694ac0daa55169abd117086fe32c89401d9a3b15dd1d34e55e0aa4e47a9d9060600160405180910390a150505050565b3360009081526002602052604090205460ff161515600114610f965760405160e560020a62461bcd02815260040161074d906139ee565b610ca782826129a0565b3360009081526002602052604090205460ff161515600114610fd75760405160e560020a62461bcd02815260040161074d906139ee565b73__ActiveOffering________________________6322f3e2d46040518163ffffffff1660e060020a028152600401602060405180830381865af4158015611023573d6000803e3d6000fd5b505050506040513d601f19601f8201168201806040525081019061104791906138c7565b6110665760405160e560020a62461bcd02815260040161074d906138e4565b6110708282612b53565b50505050565b600054829082906101009004600160a060020a031633146110ac5760405160e560020a62461bcd02815260040161074d90613adf565b6000546040517f39cdde3200000000000000000000000000000000000000000000000000000000815273__ECVerify______________________________916339cdde329161111091869186916101009004600160a060020a031690600401613b16565b602060405180830381865af415801561112d573d6000803e3d6000fd5b505050506040513d601f19601f8201168201806040525081019061115191906138c7565b6111705760405160e560020a62461bcd02815260040161074d90613b48565b600160a060020a038516156111ca5760405160e560020a62461bcd02815260206004820152601e60248201527f6d697373696e67207472616e73666572206167656e7420616464726573730000604482015260640161074d565b600160a060020a0385166000908152600260205260409020805460ff191690557faf389abc80f1ffdb9d047f10d61eaf63326aa6d693b982d133c6064c1d13d17961121361123c565b60408051600160a060020a03928316815291881660208301520160405180910390a15050505050565b6000601e60015461124d9190613b7f565b421161129e5760405160e560020a62461bcd02815260206004820152601060248201527f72617465206c696d6974206572726f7200000000000000000000000000000000604482015260640161074d565b601e6001546112ad9190613b7f565b42116112fe5760405160e560020a62461bcd02815260206004820152601060248201527f72617465206c696d6974206572726f7200000000000000000000000000000000604482015260640161074d565b50426001556000546101009004600160a060020a031690565b60008054839083906101009004600160a060020a0316331461134e5760405160e560020a62461bcd02815260040161074d90613adf565b6000546040517f39cdde3200000000000000000000000000000000000000000000000000000000815273__ECVerify______________________________916339cdde32916113b291869186916101009004600160a060020a031690600401613b16565b602060405180830381865af41580156113cf573d6000803e3d6000fd5b505050506040513d601f19601f820116820180604052508101906113f391906138c7565b6114125760405160e560020a62461bcd02815260040161074d90613b48565b336000908152600560205260409020546001146114745760405160e560020a62461bcd02815260206004820152600c60248201527f6e6f742061206d696e7465720000000000000000000000000000000000000000604482015260640161074d565b85624c4b4081600a546114879190613b7f565b106114fd5760405160e560020a62461bcd02815260206004820152602160248201527f6d6178696d756d206f66666572696e6720686173206265656e2072656163686560448201527f6400000000000000000000000000000000000000000000000000000000000000606482015260840161074d565b73__ActiveOffering________________________6322f3e2d46040518163ffffffff1660e060020a028152600401602060405180830381865af4158015611549573d6000803e3d6000fd5b505050506040513d601f19601f8201168201806040525081019061156d91906138c7565b61158c5760405160e560020a62461bcd02815260040161074d906138e4565b6115958861271f565b6115b45760405160e560020a62461bcd02815260040161074d90613aa8565b3060009081527f54970566f6be618430aa9102c0fa36928c087f0d98124c631513f83069647e11602052604090205487116116345760405160e560020a62461bcd02815260206004820152601d60248201527f616d6f756e74206973206c657373207468616e207061722076616c7565000000604482015260640161074d565b600061163f30612ee9565b611649908961396b565b60405160e060020a63590c4ef902815290915073__Transaction___________________________9063590c4ef99061168c908c9085908d904290600401613990565b602060405180830381865af41580156116a9573d6000803e3d6000fd5b505050506040513d601f19601f820116820180604052508101906116cd91906139b6565b506116e3898969152d02c7e14af6800000612f23565b9998505050505050505050565b3360009081526002602052604090205460ff1615156001146117275760405160e560020a62461bcd02815260040161074d906139ee565b600160a060020a0381166117805760405160e560020a62461bcd02815260206004820152601660248201527f6d697373696e67206d696e746572206164647265737300000000000000000000604482015260640161074d565b600160a060020a0381166000818152600560209081526040918290206001905590519182527f6ae172837ea30b801fbfcdd4108aa1d5bf8ff775444fd70256b44e6bf3dfc3f691015b60405180910390a150565b600054829082906101009004600160a060020a0316331461180a5760405160e560020a62461bcd02815260040161074d90613adf565b6000546040517f39cdde3200000000000000000000000000000000000000000000000000000000815273__ECVerify______________________________916339cdde329161186e91869186916101009004600160a060020a031690600401613b16565b602060405180830381865af415801561188b573d6000803e3d6000fd5b505050506040513d601f19601f820116820180604052508101906118af91906138c7565b6118ce5760405160e560020a62461bcd02815260040161074d90613b48565b600160a060020a0385166119275760405160e560020a62461bcd02815260206004820152601e60248201527f6d697373696e67207472616e73666572206167656e7420616464726573730000604482015260640161074d565b600160a060020a0385166000908152600260205260409020805460ff191660011790557f2e4cac6df140daa75de705aceea9de24b1ff332042e59f804e74bdc9b8559d6b61121361123c565b3360009081526002602052604081205460ff1615156001146119aa5760405160e560020a62461bcd02815260040161074d906139ee565b33600090815260056020526040902054600114611a0c5760405160e560020a62461bcd02815260206004820152600c60248201527f6e6f742061206d696e7465720000000000000000000000000000000000000000604482015260640161074d565b73__ActiveOffering________________________6322f3e2d46040518163ffffffff1660e060020a028152600401602060405180830381865af4158015611a58573d6000803e3d6000fd5b505050506040513d601f19601f82011682018060405250810190611a7c91906138c7565b611a9b5760405160e560020a62461bcd02815260040161074d906138e4565b42831015611aee5760405160e560020a62461bcd02815260206004820152601360248201527f74696d652073706f6f66696e67206572726f7200000000000000000000000000604482015260640161074d565b611af7856122c5565b600060065485611b07919061396b565b60405160e060020a63590c4ef902815290915073__Transaction___________________________9063590c4ef990611b4a90899085908a908a90600401613990565b602060405180830381865af4158015611b67573d6000803e3d6000fd5b505050506040513d601f19601f82011682018060405250810190611b8b91906139b6565b50600754611ba290600160a060020a031686612fc5565b611bad868685612f23565b9695505050505050565b3360009081526002602052604090205460ff161515600114611bee5760405160e560020a62461bcd02815260040161074d906139ee565b8051611c3f5760405160e560020a62461bcd02815260206004820152601f60248201527f28757064617465566572696669656429202d2068617368206973207a65726f00604482015260640161074d565b610ca78282613003565b6000610a468261271f565b3360009081526002602052604090205460ff161515600114611c8b5760405160e560020a62461bcd02815260040161074d906139ee565b610b6b81613253565b3360009081526002602052604081205460ff161515600114611ccb5760405160e560020a62461bcd02815260040161074d906139ee565b610a4682613263565b3360009081526002602052604090205460ff161515600114611d0b5760405160e560020a62461bcd02815260040161074d906139ee565b60048381556040517f5f76f6ab00000000000000000000000000000000000000000000000000000000815273__ActiveOffering________________________91635f76f6ab91611d6491869101901515815260200190565b60006040518083038186803b158015611d7c57600080fd5b505af4158015611d90573d6000803e3d6000fd5b505050508115611e145733600160a060020a03167fb9c39a906441691d138569e18a2c9766e29c5def7618306a8f07d7dc1f34627b85604051602001611dd69190613b97565b60408051601f1981840301815290829052611df2918790613bd8565b60405180910390a260045415611e0f57611e0d338283612f23565b505b611070565b33600160a060020a03167fb9c39a906441691d138569e18a2c9766e29c5def7618306a8f07d7dc1f34627b85604051602001611e509190613bfa565b60408051601f1981840301815290829052611e6c918790613bd8565b60405180910390a250505050565b73__ActiveOffering________________________6322f3e2d46040518163ffffffff1660e060020a028152600401602060405180830381865af4158015611ec6573d6000803e3d6000fd5b505050506040513d601f19601f82011682018060405250810190611eea91906138c7565b611f095760405160e560020a62461bcd02815260040161074d906138e4565b611f123361271f565b611f315760405160e560020a62461bcd02815260040161074d90613aa8565b60008211611f845760405160e560020a62461bcd02815260206004820152601b60248201527f596f75206e65656420746f2073656e6420736f6d652065746865720000000000604482015260640161074d565b6000611f8f30612ee9565b611f99908461396b565b9050600854811115611ff05760405160e560020a62461bcd02815260206004820181905260248201527f4e6f7420656e6f7567682073686172657320696e207468652072657365727665604482015260640161074d565b611ffb3033856128e4565b60408051338152602081018590529081018390527fa9a40dec7a304e5915d11358b968c1e8d365992abf20f82285d1df1b30c8e24c906060015b60405180910390a1505050565b600073__ActiveOffering________________________6322f3e2d46040518163ffffffff1660e060020a028152600401602060405180830381865af4158015612090573d6000803e3d6000fd5b505050506040513d601f19601f820116820180604052508101906120b491906138c7565b6120d35760405160e560020a62461bcd02815260040161074d906138e4565b6040517eba40ae000000000000000000000000000000000000000000000000000000008152600160a060020a038516600482015273__Transaction___________________________9062ba40ae90602401602060405180830381865af4158015612142573d6000803e3d6000fd5b505050506040513d601f19601f8201168201806040525081019061216691906138c7565b6121855760405160e560020a62461bcd02815260040161074d9061391b565b61218e846122c5565b6121988584612376565b6000600654846121a8919061396b565b60405160e060020a63590c4ef902815290915073__Transaction___________________________9063590c4ef9906121eb908890859089908990600401613990565b602060405180830381865af4158015612208573d6000803e3d6000fd5b505050506040513d601f19601f8201168201806040525081019061222c91906139b6565b5073__Transaction___________________________63590c4ef98783612255886000196139cf565b876040518563ffffffff1660e060020a0281526004016122789493929190613990565b602060405180830381865af4158015612295573d6000803e3d6000fd5b505050506040513d601f19601f820116820180604052508101906122b991906139b6565b50611bad868686613277565b6122ce8161271f565b6122ed5760405160e560020a62461bcd02815260040161074d90613aa8565b6122f56132eb565b600160a060020a03821660009081526001919091016020526040902054610b6b5761231e6132eb565b60040180546001808201835560009283526020909220018054600160a060020a031916600160a060020a0384161790556123566132eb565b600160a060020a0383166000908152600191909101602052604090205550565b600061238c82600160a060020a03851631613c3b565b9050801561239957505050565b600060016123a56132eb565b600160a060020a038616600090815260019190910160205260409020546123cc9190613c3b565b9050600060016123da6132eb565b600401546123e89190613c3b565b905060006123f46132eb565b600401828154811061240857612408613c52565b600091825260209091200154600160a060020a03169050806124286132eb565b600401848154811061243c5761243c613c52565b9060005260206000200160006101000a815481600160a060020a030219169083600160a060020a031602179055506124726132eb565b600160a060020a038716600090815260019190910160205260409020546124976132eb565b600160a060020a038316600090815260019190910160205260409020556124bc6132eb565b60040160016124c96132eb565b600401546124d79190613c3b565b815481106124e7576124e7613c52565b600091825260208220018054600160a060020a03191690556125076132eb565b600160a060020a0390971660009081526001979097016020526040909620959095555050505050565b600160a060020a0382166000908152600080516020613d468339815191526020526040812082905560408051600160a060020a0385168152602081018490527f69ca02dd4edd7bf0a4abb9ed3b7af3f14778db5d61921c7dc7cd545266326de2910160405180910390a150600192915050565b60006125ad6132eb565b60040154919050565b60006125c06132eb565b6004015482106126155760405160e560020a62461bcd02815260206004820152601660248201527f686f6c6465724174206f7574206f6620626f756e647300000000000000000000604482015260640161074d565b61261d6132eb565b600401828154811061263157612631613c52565b600091825260209091200154600160a060020a031692915050565b6000806126576132eb565b600160a060020a039384166000908152602091909152604090205490921690911415919050565b6126866132eb565b600160a060020a03821660009081526002919091016020526040902080546126ad90613c6b565b159050610b6b576126bc6132eb565b600160a060020a0382166000908152600291909101602052604081206126e1916133d9565b60408051600160a060020a03831681523360208201527f8071c01a493142de896a206c19ca180d32e91d6486fcf11ea299f569f5d922b591016117c9565b60008061272a6132eb565b600160a060020a038416600090815260029190910160205260409020805461275190613c6b565b9050119050919050565b6127648261330f565b6127d95760405160e560020a62461bcd02815260206004820152602d60248201527f28616464566572696669656429202d20696e766573746f7220697320616c726560448201527f6164792063616e63656c6c656400000000000000000000000000000000000000606482015260840161074d565b6127e16132eb565b600160a060020a038316600090815260029190910160205260409020805461280890613c6b565b15905061282a5760405160e560020a62461bcd02815260040161074d90613a4b565b806128336132eb565b600201600084600160a060020a0316600160a060020a03168152602001908152602001600020908051906020019061286c929190613413565b506128756132eb565b600301805460018101825560009182526020909120018054600160a060020a031916600160a060020a0384161790556040517f550c196a77afc2d9b241c5742cef5ee82f2db8345acf38fed8ba8e2070b6451f906128d890849084903390613ca9565b60405180910390a15050565b600160a060020a0383166000908152600080516020613d46833981519152602052604081208054839290612919908490613b7f565b9091555050600160a060020a0382166000908152600080516020613d46833981519152602052604081208054839290612953908490613c3b565b909155505060408051600160a060020a038086168252841660208201529081018290527f4a5c454a446a516f4491813074ec78cf8cd5e34c2514911f982db1ef8ac0fef390606001612035565b6129a86132eb565b600160a060020a03831660009081526001919091016020526040902054610ca7578060011415612ac1576129da6132eb565b600701546129e66132eb565b6005015410612a605760405160e560020a62461bcd02815260206004820152603a60248201527f77696c6c2065786365656420746865206d6178696d756d206e756d626572206f60448201527f66206e6f6e2d6163637265646974656420696e766573746f7273000000000000606482015260840161074d565b612a686132eb565b60050180546001808201835560009283526020909220018054600160a060020a031916600160a060020a038516179055612aa06132eb565b600160a060020a038416600090815260019190910160205260409020555050565b8060021415612b0a57612ad26132eb565b60040180546001808201835560009283526020909220018054600160a060020a031916600160a060020a038516179055612aa06132eb565b8060031415610ca757612b1b6132eb565b60060180546001808201835560009283526020909220018054600160a060020a031916600160a060020a038516179055612aa06132eb565b600080612b5f84613340565b612bd45760405160e560020a62461bcd02815260206004820152603b60248201527f2863616e63656c616e645265697373756529202d206f726967696e616c20696e60448201527f766573746f72206973206e6f742061207368617265686f6c6465720000000000606482015260840161074d565b612bdd8361336e565b612c785760405160e560020a62461bcd02815260206004820152605960248201527f2863616e63656c616e645265697373756529202d207265706c6163656d656e7460448201527f20696e766573746f7220697320616c72656164792061207368617265686f6c6460648201527f65722c2072657175697265732061206e65772077616c6c657400000000000000608482015260a40161074d565b612c818361271f565b612d1d5760405160e560020a62461bcd028152602060048201526044602482018190527f2863616e63656c616e645265697373756529202d207265706c6163656d656e74908201527f20696e766573746f72206973206e6f74206120766572696669656420696e766560648201527f73746f7200000000000000000000000000000000000000000000000000000000608482015260a40161074d565b60405180602001604052806000815250612d356132eb565b600201600086600160a060020a0316600160a060020a031681526020019081526020016000209080519060200190612d6e929190613413565b5082612d786132eb565b600160a060020a038681166000908152602092909252604082208054600160a060020a03191693909116929092179091556001612db36132eb565b600160a060020a03871660009081526001919091016020526040902054612dda9190613c3b565b905083612de56132eb565b6004018281548110612df957612df9613c52565b9060005260206000200160006101000a815481600160a060020a030219169083600160a060020a03160217905550612e2f6132eb565b600160a060020a03861660009081526001919091016020526040902054612e546132eb565b600160a060020a03861660009081526001919091016020526040812091909155612e7c6132eb565b600160a060020a0387811660008181526001939093016020908152604093849020949094558251908152908716928101929092523382820152517fb64971100522354f3d25283cb14e2eefcb0dd26a757482ccfe42479d0a6868579181900360600190a150929391925050565b600160a060020a031660009081527f54970566f6be618430aa9102c0fa36928c087f0d98124c631513f83069647e11602052604090205490565b600081831115612f785760405160e560020a62461bcd02815260206004820152601460248201527f6578636565647320746f74616c20737570706c79000000000000000000000000604482015260640161074d565b60408051600160a060020a0386168152602081018590527f30385c845b448a36257a6a1716e6ad2e1bc2cbe333cde1e69fe849ad6511adfe91015b60405180910390a15060019392505050565b600160a060020a0382166000908152600080516020613d46833981519152602052604081208054839290612ffa908490613b7f565b90915550505050565b61300c8261271f565b6130815760405160e560020a62461bcd02815260206004820152602a60248201527f28757064617465566572696669656429202d206e6f742061207665726966696560448201527f6420696e766573746f7200000000000000000000000000000000000000000000606482015260840161074d565b80516130d25760405160e560020a62461bcd02815260206004820152601f60248201527f28757064617465566572696669656429202d2068617368206973207a65726f00604482015260640161074d565b60006130dc6132eb565b600160a060020a038416600090815260029190910160205260409020805461310390613c6b565b80601f016020809104026020016040519081016040528092919081815260200182805461312f90613c6b565b801561317c5780601f106131515761010080835404028352916020019161317c565b820191906000526020600020905b81548152906001019060200180831161315f57829003601f168201915b50505050509050816040516020016131949190613cdf565b60405160208183030381529060405280519060200120816040516020016131bb9190613cdf565b604051602081830303815290604052805190602001201461324e57816131df6132eb565b600201600085600160a060020a0316600160a060020a031681526020019081526020016000209080519060200190613218929190613413565b507f956cac7563aec785f30b680b47233cb635844cd3f2a1a24c87f96b9b7d4e7544838284336040516120359493929190613cfb565b505050565b8061325c6132eb565b6007015550565b600061326e8261339b565b15611ccb575090565b600160a060020a0383166000908152600080516020613d468339815191526020526132a38484846128e4565b60408051600160a060020a038087168252851660208201529081018390527fc0d84ce5c7ff9ca21adb0f8436ff3f4951b4bb78c4e2fae2b6837958b3946ffd90606001612fb3565b7f84d6a4597c1933575f1026ccae683d8d7059c2fe21797bd5217915ddf82f909c90565b60008061331a6132eb565b600160a060020a0393841660009081526020919091526040902054909216909114919050565b600061334a6132eb565b600160a060020a039092166000908152600192909201602052506040902054151590565b60006133786132eb565b600160a060020a0390921660009081526001929092016020525060409020541590565b6000806133a66132eb565b600160a060020a0380851660009081526020929092526040909120541614156133d157506001919050565b506000919050565b5080546133e590613c6b565b6000825580601f106133f5575050565b601f016020900490600052602060002090810190610b6b9190613497565b82805461341f90613c6b565b90600052602060002090601f0160209004810192826134415760008555613487565b82601f1061345a57805160ff1916838001178555613487565b82800160010185558215613487579182015b8281111561348757825182559160200191906001019061346c565b50613493929150613497565b5090565b5b808211156134935760008155600101613498565b60005b838110156134c75781810151838201526020016134af565b838111156110705750506000910152565b600081518084526134f08160208601602086016134ac565b601f01601f19169290920160200192915050565b60208152600061351760208301846134d8565b9392505050565b600160a060020a0381168114610b6b57600080fd5b60008060006060848603121561354857600080fd5b83356135538161351e565b95602085013595506040909401359392505050565b6000806040838503121561357b57600080fd5b82356135868161351e565b946020939093013593505050565b6000602082840312156135a657600080fd5b5035919050565b6000602082840312156135bf57600080fd5b81356135178161351e565b60e060020a634e487b7102600052604160045260246000fd5b600082601f8301126135f457600080fd5b813567ffffffffffffffff8082111561360f5761360f6135ca565b604051601f8301601f19908116603f01168101908282118183101715613637576136376135ca565b8160405283815286602085880101111561365057600080fd5b836020870160208301376000602085830101528094505050505092915050565b6000806040838503121561368357600080fd5b823561368e8161351e565b9150602083013567ffffffffffffffff8111156136aa57600080fd5b6136b6858286016135e3565b9150509250929050565b600080604083850312156136d357600080fd5b82356136de8161351e565b915060208301356136ee8161351e565b809150509250929050565b60008060006060848603121561370e57600080fd5b83356137198161351e565b925060208401359150604084013567ffffffffffffffff81111561373c57600080fd5b613748868287016135e3565b9150509250925092565b6000806000806080858703121561376857600080fd5b84356137738161351e565b93506020850135925060408501359150606085013567ffffffffffffffff81111561379d57600080fd5b6137a9878288016135e3565b91505092959194509250565b600080600080608085870312156137cb57600080fd5b84356137d68161351e565b966020860135965060408601359560600135945092505050565b8015158114610b6b57600080fd5b6000806000806080858703121561381457600080fd5b843567ffffffffffffffff81111561382b57600080fd5b613837878288016135e3565b94505060208501359250604085013561384f816137f0565b9396929550929360600135925050565b6000806040838503121561387257600080fd5b50508035926020909101359150565b6000806000806080858703121561389757600080fd5b84356138a28161351e565b935060208501356138b28161351e565b93969395505050506040820135916060013590565b6000602082840312156138d957600080fd5b8151613517816137f0565b60208082526016908201527f6f66666572696e67206973206e6f742061637469766500000000000000000000604082015260600190565b6020808252601e908201527f686f6c64696e6720706572696f6420686173206e6f7420657870697265640000604082015260600190565b60e060020a634e487b7102600052601160045260246000fd5b60008261398b5760e060020a634e487b7102600052601260045260246000fd5b500490565b600160a060020a0394909416845260208401929092526040830152606082015260800190565b6000602082840312156139c857600080fd5b5051919050565b60008160001904831182151516156139e9576139e9613952565b500290565b60208082526024908201527f6163636573732064656e69656420666f7220746865207472616e73666572206160408201527f67656e7400000000000000000000000000000000000000000000000000000000606082015260800190565b60208082526029908201527f28616464566572696669656429202d20696e766573746f7220616c726561647960408201527f2076657269666965640000000000000000000000000000000000000000000000606082015260800190565b60208082526018908201527f696e766573746f72206973206e6f742076657269666965640000000000000000604082015260600190565b60208082526017908201527f6163636573732064656e69656420666f72206f776e6572000000000000000000604082015260600190565b838152606060208201526000613b2f60608301856134d8565b9050600160a060020a0383166040830152949350505050565b6020808252601e908201527f6163636573732064656e6965642c206f776e6572206e6f742076616c69640000604082015260600190565b60008219821115613b9257613b92613952565b500190565b60008251613ba98184602087016134ac565b7f2068617320737461727465640000000000000000000000000000000000000000920191825250600c01919050565b604081526000613beb60408301856134d8565b90508260208301529392505050565b60008251613c0c8184602087016134ac565b7f206861732073746f707065640000000000000000000000000000000000000000920191825250600c01919050565b600082821015613c4d57613c4d613952565b500390565b60e060020a634e487b7102600052603260045260246000fd5b600281046001821680613c7f57607f821691505b60208210811415613ca35760e060020a634e487b7102600052602260045260246000fd5b50919050565b6000600160a060020a03808616835260606020840152613ccc60608401866134d8565b9150808416604084015250949350505050565b60008251613cf18184602087016134ac565b9190910192915050565b6000600160a060020a03808716835260806020840152613d1e60808401876134d8565b8381036040850152613d3081876134d8565b9250508084166060840152509594505050505056fe9ce25e1144afcae8c0e64aa04f61adef5dcaf2f72b7efdf41d46270ad83d32d7a2646970667358221220475003d91c85a60dbdd775e373b96689b0e502173115dfd2aac5a7b334a34e6364736f6c634300080a0033",
  "immutableReferences": {},
  "source": "// SPDX-License-Identifier: CC-BY-4.0\npragma solidity >=0.4.22 <0.9.0;\n\n/**\n * Rule 506(b)\n * -----------\n * https://www.sec.gov/smallbusiness/exemptofferings/\n *\n * Rule 506(b) of Regulation D is considered a safe harbor under Section 4(a)(2). It provides objective standards that a company can rely on to meet the requirements\n * of the Section 4(a)(2) exemption. Companies conducting an offering under Rule 506(b) can raise an unlimited amount of money and can sell securities to an\n * unlimited number of accredited investors. An offering under Rule 506(b), however, is subject to the following requirements:\n *\n *  - no general solicitation or advertising to market the securities\n *  - securities may not be sold to more than 35 non-accredited investors (all non-accredited investors, either alone or with a purchaser representative,\n *    must meet the legal standard of having sufficient knowledge and experience in financial and business matters to be capable of evaluating the merits and\n *    risks of the prospective investment)\n *\n * If non-accredited investors are participating in the offering, the company conducting the offering:\n *\n *  - must give any non-accredited investors disclosure documents that generally contain the same type of information as provided in Regulation A offerings\n *    (the company is not required to provide specified disclosure documents to accredited investors, but, if it does provide information to accredited investors,\n *    it must also make this information available to the non-accredited investors as well)\n *  - must give any non-accredited investors financial statement information specified in Rule 506 and\n *  - should be available to answer questions from prospective purchasers who are non-accredited investors\n *\n * Purchasers in a Rule 506(b) offering receive restricted securities.\" A company is required to file a notice with the Commission on Form D within 15 days\n * after the first sale of securities in the offering. Although the Securities Act provides a federal preemption from state registration and qualification\n * under Rule 506(b), the states still have authority to require notice filings and collect state fees.\n */\nimport \"../Owned.sol\";\nimport \"../Version.sol\";\nimport \"../Frozen.sol\";\nimport \"../ActiveOffering.sol\";\nimport \"../Shares.sol\";\nimport \"../Shareholder.sol\";\nimport \"../Transaction.sol\";\nimport \"../Account.sol\";\nimport \"../TransferAgent.sol\";\n\ncontract ExemptEquityOffering506B is Version, Frozen, TransferAgent {\n    uint public constant INITIAL_SUPPLY = 100000 * 1 ether;\n\n    string public constant name = \"Rule 506(b) Token\";\n    string public constant symbol = \"TOKEN.506B\";\n    uint8 public constant decimals = 0;\n\n    uint256 public sharesOustanding = 0;\n    uint256 public marketCap        = 0;\n\n\n\n    uint256 constant public totalValueMax = 5000000;\n    uint constant public maxNonaccredited = 35;\n    uint256 private totalValue = 0;\n\n\n    event Bought(address sender, uint256 value, uint256 epoch);\n    event Sold(address sender, uint256 value, uint256 epoch);\n\n    constructor()\n        payable\n    {\n        TransferAgent.setParValue(address(this), 5);\n    }\n\n\n    modifier isMaximumOffering(uint256 amount) {\n        require(totalValue + amount < totalValueMax, \"maximum offering has been reached\");\n        _;\n    }\n\n\n    /**\n     * As each token is minted it is added to the shareholders array.\n     * @param _to The address that will receive the minted tokens.\n     * @param _amount The amount of tokens to mint.\n     * @return A boolean that indicates if the operation was successful.\n     */\n    function mint(address _to, uint256 _amount,bytes32 encrypted, bytes memory signature)\n        public\n        onlyOwner(encrypted,signature)\n        isMinter\n        isMaximumOffering(_amount)\n        returns (bool)\n    {\n        require(ActiveOffering.isActive(),\"offering is not active\");\n        require(Shareholder.isVerifiedAddress(_to),\"investor is not verified\");\n        require(Shares.isPriceBelowParValue(address(this), _amount),\"amount is less than par value\");\n        uint256 _shares = _amount / Shares.getParValue(address(this));\n        Transaction.addTransaction(_to, _shares, _amount, block.timestamp);\n        return  _mint(_to, _amount, INITIAL_SUPPLY);\n    }\n\n\n\n\n    function buy(uint256 amount, uint256 epoch)\n        public\n        payable\n    {\n        require(ActiveOffering.isActive(),\"offering is not active\");\n        require(Shareholder.isVerifiedAddress(msg.sender),\"investor is not verified\");\n        require(amount > 0, \"You need to send some ether\");\n        uint256 shares = amount / Shares.getParValue(address(this));\n        require(shares <= sharesOustanding, \"Not enough shares in the reserve\");\n\n        Account.transfer(address(this), msg.sender, amount);\n        emit Bought(msg.sender,amount,epoch);\n    }\n\n\n    function sell(address payable sender,uint256 amount,uint256 epoch)\n        public\n        payable\n    {\n        require(ActiveOffering.isActive(),\"offering is not active\");\n        require(Shareholder.isVerifiedAddress(sender),\"investor is not verified\");\n        require(Transaction.isHoldingPeriodOver(sender),\"holding period has not expired\");\n        require(amount > 0, \"You need to sell at least some tokens\");\n        uint256 __allowance = allowance(sender, address(this));\n        require(__allowance >= amount, \"Check the token allowance\");\n        Account.transfer(sender, address(this), amount);\n\n        emit Sold(sender,amount,epoch);\n    }\n}\n",
  "sourcePath": "G:\\projects\\pingleware-contracts\\contracts\\equity\\ExemptEquityOffering506B.sol",
  "compiler": {
    "name": "solc",
    "version": "0.8.10+commit.fc410830.Emscripten.clang"
  },
  "schemaVersion": "3.4.3",
  "updatedAt": "2021-12-24T16:15:20.293Z",
  "devdoc": {
    "kind": "dev",
    "methods": {
      "addVerified(address,string)": {
        "params": {
          "addr": "The address of the person represented by the supplied hash.",
          "hash": "A cryptographic hash of the address holder's verified information."
        }
      },
      "cancelAndReissue(address,address)": {
        "params": {
          "original": "The address to be superseded. This address MUST NOT be reused.",
          "replacement": "The address  that supersedes the original. This address MUST be verified."
        }
      },
      "getCurrentFor(address)": {
        "params": {
          "addr": "The superseded address."
        },
        "returns": {
          "_0": "the verified address that ultimately holds the share."
        }
      },
      "holderAt(uint256)": {
        "params": {
          "index": "The zero-based index of the holder."
        },
        "returns": {
          "_0": "the address of the token holder with the given index."
        }
      },
      "holderCount()": {
        "returns": {
          "_0": "the number of unique addresses that own tokens."
        }
      },
      "isSuperseded(address)": {
        "params": {
          "addr": "The address to check."
        },
        "returns": {
          "_0": "true if the supplied address was superseded by another address."
        }
      },
      "isVerified(address)": {
        "params": {
          "addr": "The address to test."
        },
        "returns": {
          "_0": "true if the address is known to the contract."
        }
      },
      "mint(address,uint256,bytes32,bytes)": {
        "params": {
          "_amount": "The amount of tokens to mint.",
          "_to": "The address that will receive the minted tokens."
        },
        "returns": {
          "_0": "A boolean that indicates if the operation was successful."
        }
      },
      "mint(address,uint256,uint256,uint256)": {
        "params": {
          "_amount": "The amount of tokens to mint.",
          "_to": "The address that will receive the minted tokens."
        },
        "returns": {
          "_0": "A boolean that indicates if the operation was successful."
        }
      },
      "removeVerified(address)": {
        "params": {
          "addr": "The verified address to be removed."
        }
      },
      "updateVerified(address,string)": {
        "params": {
          "addr": "The verified address of the person represented by the supplied hash.",
          "hash": "A new cryptographic hash of the address holder's updated verified information."
        }
      }
    },
    "version": 1
  },
  "userdoc": {
    "kind": "user",
    "methods": {
      "addShareholder(address,uint256)": {
        "notice": "Shareholder level:    1 = non-accredited shareholder    2 = accredited shareholder    3 = affiliate shareholder "
      },
      "addVerified(address,string)": {
        "notice": "Add a verified address, along with an associated verification hash to the contract.  Upon successful addition of a verified address, the contract must emit  `VerifiedAddressAdded(addr, hash, msg.sender)`.  It MUST throw if the supplied address or hash are zero, or if the address has already been supplied."
      },
      "cancelAndReissue(address,address)": {
        "notice": "Cancel the original address and reissue the Tokens to the replacement address.  Access to this function MUST be strictly controlled.  The `original` address MUST be removed from the set of verified addresses.  Throw if the `original` address supplied is not a shareholder.  Throw if the replacement address is not a verified address.  This function MUST emit the `VerifiedAddressSuperseded` event."
      },
      "getCurrentFor(address)": {
        "notice": "Gets the most recent address, given a superseded one.  Addresses may be superseded multiple times, so this function needs to  follow the chain of addresses until it reaches the final, verified address."
      },
      "holderAt(uint256)": {
        "notice": "By counting the number of token holders using `holderCount`  you can retrieve the complete list of token holders, one at a time.  It MUST throw if `index >= holderCount()`."
      },
      "holderCount()": {
        "notice": "The number of addresses that own tokens."
      },
      "isSuperseded(address)": {
        "notice": "Checks to see if the supplied address was superseded."
      },
      "isVerified(address)": {
        "notice": "Tests that the supplied address is known to the contract."
      },
      "mint(address,uint256,bytes32,bytes)": {
        "notice": "As each token is minted it is added to the shareholders array."
      },
      "mint(address,uint256,uint256,uint256)": {
        "notice": "As each token is minted it is added to the shareholders array."
      },
      "removeVerified(address)": {
        "notice": "Remove a verified address, and the associated verification hash. If the address is  unkblock.timestampn to the contract then this does nothing. If the address is successfully removed, this  function must emit `VerifiedAddressRemoved(addr, msg.sender)`.  It MUST throw if an attempt is made to remove a verifiedAddress that owns Tokens."
      },
      "transfer(address,uint256,uint256)": {
        "notice": "The `transfer` function MUST NOT allow transfers to addresses that  have not been verified and added to the contract.  If the `to` address is not currently a shareholder then it MUST become one.  If the transfer will reduce `msg.sender`'s balance to 0 then that address  MUST be removed from the list of shareholders."
      },
      "transferFrom(address,address,uint256,uint256)": {
        "notice": "The `transferFrom` function MUST NOT allow transfers to addresses that  have not been verified and added to the contract.  If the `to` address is not currently a shareholder then it MUST become one.  If the transfer will reduce `from`'s balance to 0 then that address  MUST be removed from the list of shareholders."
      },
      "updateVerified(address,string)": {
        "notice": "Update the hash for a verified address known to the contract.  Upon successful update of a verified address the contract must emit  `VerifiedAddressUpdated(addr, oldHash, hash, msg.sender)`.  If the hash is the same as the value already stored then  no `VerifiedAddressUpdated` event is to be emitted.  It MUST throw if the hash is zero, or if the address is unverified."
      }
    },
    "version": 1
  }
}