{
  "contractName": "ExemptLiquidityMarketExchange",
  "abi": [
    {
      "anonymous": false,
      "inputs": [
        {
          "indexed": true,
          "internalType": "string",
          "name": "currencyPair",
          "type": "string"
        },
        {
          "indexed": true,
          "internalType": "address",
          "name": "trader",
          "type": "address"
        },
        {
          "indexed": false,
          "internalType": "uint256",
          "name": "amount",
          "type": "uint256"
        },
        {
          "indexed": false,
          "internalType": "uint256",
          "name": "price",
          "type": "uint256"
        }
      ],
      "name": "BuyOrderPlaced",
      "type": "event"
    },
    {
      "anonymous": false,
      "inputs": [
        {
          "indexed": false,
          "internalType": "string",
          "name": "decryptedData",
          "type": "string"
        }
      ],
      "name": "Decrypted",
      "type": "event"
    },
    {
      "anonymous": false,
      "inputs": [
        {
          "indexed": false,
          "internalType": "bytes",
          "name": "encryptedData",
          "type": "bytes"
        }
      ],
      "name": "Encrypted",
      "type": "event"
    },
    {
      "anonymous": false,
      "inputs": [
        {
          "indexed": false,
          "internalType": "uint256",
          "name": "newPercentage",
          "type": "uint256"
        }
      ],
      "name": "FeePercentageUpdated",
      "type": "event"
    },
    {
      "anonymous": false,
      "inputs": [
        {
          "indexed": true,
          "internalType": "address",
          "name": "newRecipient",
          "type": "address"
        }
      ],
      "name": "FeeRecipientUpdated",
      "type": "event"
    },
    {
      "anonymous": false,
      "inputs": [
        {
          "indexed": false,
          "internalType": "address",
          "name": "sender",
          "type": "address"
        },
        {
          "indexed": false,
          "internalType": "string",
          "name": "symbol",
          "type": "string"
        },
        {
          "indexed": false,
          "internalType": "uint256",
          "name": "orderId",
          "type": "uint256"
        }
      ],
      "name": "ManipulativeBehaviorDetected",
      "type": "event"
    },
    {
      "anonymous": false,
      "inputs": [
        {
          "indexed": false,
          "internalType": "address",
          "name": "sender",
          "type": "address"
        },
        {
          "indexed": false,
          "internalType": "string",
          "name": "symbol",
          "type": "string"
        },
        {
          "indexed": false,
          "internalType": "uint256",
          "name": "orderId",
          "type": "uint256"
        }
      ],
      "name": "MarketAbuseDetetcted",
      "type": "event"
    },
    {
      "anonymous": false,
      "inputs": [
        {
          "indexed": true,
          "internalType": "string",
          "name": "currencyPair",
          "type": "string"
        },
        {
          "indexed": true,
          "internalType": "address",
          "name": "trader",
          "type": "address"
        },
        {
          "indexed": false,
          "internalType": "uint256",
          "name": "amount",
          "type": "uint256"
        },
        {
          "indexed": false,
          "internalType": "uint256",
          "name": "price",
          "type": "uint256"
        }
      ],
      "name": "SellOrderPlaced",
      "type": "event"
    },
    {
      "anonymous": false,
      "inputs": [
        {
          "indexed": false,
          "internalType": "address",
          "name": "_sender",
          "type": "address"
        }
      ],
      "name": "Sender",
      "type": "event"
    },
    {
      "anonymous": false,
      "inputs": [
        {
          "indexed": true,
          "internalType": "string",
          "name": "currencyPair",
          "type": "string"
        },
        {
          "indexed": true,
          "internalType": "address",
          "name": "buyer",
          "type": "address"
        },
        {
          "indexed": true,
          "internalType": "address",
          "name": "seller",
          "type": "address"
        },
        {
          "indexed": false,
          "internalType": "uint256",
          "name": "amount",
          "type": "uint256"
        },
        {
          "indexed": false,
          "internalType": "uint256",
          "name": "price",
          "type": "uint256"
        }
      ],
      "name": "TradeExecuted",
      "type": "event"
    },
    {
      "anonymous": false,
      "inputs": [
        {
          "indexed": false,
          "internalType": "address",
          "name": "sender",
          "type": "address"
        },
        {
          "indexed": false,
          "internalType": "uint256",
          "name": "amount",
          "type": "uint256"
        }
      ],
      "name": "ValueTransferred",
      "type": "event"
    },
    {
      "inputs": [],
      "name": "FeePercentage",
      "outputs": [
        {
          "internalType": "uint256",
          "name": "",
          "type": "uint256"
        }
      ],
      "stateMutability": "view",
      "type": "function",
      "constant": true
    },
    {
      "inputs": [
        {
          "internalType": "string",
          "name": "",
          "type": "string"
        },
        {
          "internalType": "uint256",
          "name": "",
          "type": "uint256"
        }
      ],
      "name": "buyOrders",
      "outputs": [
        {
          "internalType": "uint256",
          "name": "orderId",
          "type": "uint256"
        },
        {
          "internalType": "address",
          "name": "wallet",
          "type": "address"
        },
        {
          "internalType": "uint256",
          "name": "quantity",
          "type": "uint256"
        },
        {
          "internalType": "uint256",
          "name": "price",
          "type": "uint256"
        },
        {
          "internalType": "uint256",
          "name": "paid",
          "type": "uint256"
        }
      ],
      "stateMutability": "view",
      "type": "function",
      "constant": true
    },
    {
      "inputs": [
        {
          "internalType": "bytes",
          "name": "key",
          "type": "bytes"
        },
        {
          "internalType": "bytes",
          "name": "encryptedData",
          "type": "bytes"
        }
      ],
      "name": "decrypt",
      "outputs": [
        {
          "internalType": "string",
          "name": "",
          "type": "string"
        }
      ],
      "stateMutability": "pure",
      "type": "function",
      "constant": true
    },
    {
      "inputs": [
        {
          "internalType": "bytes",
          "name": "encryptedData",
          "type": "bytes"
        },
        {
          "internalType": "bytes",
          "name": "key",
          "type": "bytes"
        }
      ],
      "name": "decryptAndEmit",
      "outputs": [],
      "stateMutability": "nonpayable",
      "type": "function"
    },
    {
      "inputs": [
        {
          "internalType": "bytes",
          "name": "key",
          "type": "bytes"
        },
        {
          "internalType": "string",
          "name": "data",
          "type": "string"
        }
      ],
      "name": "encrypt",
      "outputs": [
        {
          "internalType": "bytes",
          "name": "",
          "type": "bytes"
        }
      ],
      "stateMutability": "pure",
      "type": "function",
      "constant": true
    },
    {
      "inputs": [
        {
          "internalType": "string",
          "name": "data",
          "type": "string"
        },
        {
          "internalType": "bytes",
          "name": "key",
          "type": "bytes"
        }
      ],
      "name": "encryptAndEmit",
      "outputs": [],
      "stateMutability": "nonpayable",
      "type": "function"
    },
    {
      "inputs": [],
      "name": "feeRecipient",
      "outputs": [
        {
          "internalType": "address",
          "name": "",
          "type": "address"
        }
      ],
      "stateMutability": "view",
      "type": "function",
      "constant": true
    },
    {
      "inputs": [],
      "name": "getOwner",
      "outputs": [
        {
          "internalType": "address",
          "name": "",
          "type": "address"
        }
      ],
      "stateMutability": "view",
      "type": "function",
      "constant": true
    },
    {
      "inputs": [
        {
          "internalType": "string",
          "name": "",
          "type": "string"
        }
      ],
      "name": "highestBid",
      "outputs": [
        {
          "internalType": "uint256",
          "name": "",
          "type": "uint256"
        }
      ],
      "stateMutability": "view",
      "type": "function",
      "constant": true
    },
    {
      "inputs": [
        {
          "internalType": "string",
          "name": "",
          "type": "string"
        }
      ],
      "name": "lowestAsk",
      "outputs": [
        {
          "internalType": "uint256",
          "name": "",
          "type": "uint256"
        }
      ],
      "stateMutability": "view",
      "type": "function",
      "constant": true
    },
    {
      "inputs": [
        {
          "internalType": "string",
          "name": "",
          "type": "string"
        }
      ],
      "name": "nextOrderId",
      "outputs": [
        {
          "internalType": "uint256",
          "name": "",
          "type": "uint256"
        }
      ],
      "stateMutability": "view",
      "type": "function",
      "constant": true
    },
    {
      "inputs": [],
      "name": "owner",
      "outputs": [
        {
          "internalType": "address",
          "name": "",
          "type": "address"
        }
      ],
      "stateMutability": "view",
      "type": "function",
      "constant": true
    },
    {
      "inputs": [
        {
          "internalType": "string",
          "name": "",
          "type": "string"
        },
        {
          "internalType": "uint256",
          "name": "",
          "type": "uint256"
        }
      ],
      "name": "sellOrders",
      "outputs": [
        {
          "internalType": "uint256",
          "name": "orderId",
          "type": "uint256"
        },
        {
          "internalType": "address",
          "name": "wallet",
          "type": "address"
        },
        {
          "internalType": "uint256",
          "name": "quantity",
          "type": "uint256"
        },
        {
          "internalType": "uint256",
          "name": "price",
          "type": "uint256"
        },
        {
          "internalType": "uint256",
          "name": "paid",
          "type": "uint256"
        }
      ],
      "stateMutability": "view",
      "type": "function",
      "constant": true
    },
    {
      "inputs": [
        {
          "internalType": "address",
          "name": "catAddress",
          "type": "address"
        },
        {
          "internalType": "address",
          "name": "bestbooksAddress",
          "type": "address"
        },
        {
          "internalType": "address",
          "name": "investorManagerAddress",
          "type": "address"
        },
        {
          "internalType": "address",
          "name": "tokenManagerAddress",
          "type": "address"
        },
        {
          "internalType": "address",
          "name": "stockCertificateAddress",
          "type": "address"
        },
        {
          "internalType": "address",
          "name": "bondCertificateAddress",
          "type": "address"
        },
        {
          "internalType": "address",
          "name": "securityMetaAddress",
          "type": "address"
        },
        {
          "internalType": "address",
          "name": "exchangeFeeAddress",
          "type": "address"
        }
      ],
      "name": "setContracts",
      "outputs": [],
      "stateMutability": "nonpayable",
      "type": "function"
    },
    {
      "inputs": [
        {
          "internalType": "address",
          "name": "investor",
          "type": "address"
        },
        {
          "internalType": "address",
          "name": "token",
          "type": "address"
        },
        {
          "internalType": "int256",
          "name": "amount",
          "type": "int256"
        }
      ],
      "name": "addShares",
      "outputs": [],
      "stateMutability": "nonpayable",
      "type": "function"
    },
    {
      "inputs": [
        {
          "internalType": "address",
          "name": "investor",
          "type": "address"
        },
        {
          "internalType": "address",
          "name": "token",
          "type": "address"
        }
      ],
      "name": "getShares",
      "outputs": [
        {
          "internalType": "int256",
          "name": "",
          "type": "int256"
        }
      ],
      "stateMutability": "view",
      "type": "function",
      "constant": true
    },
    {
      "inputs": [
        {
          "internalType": "address",
          "name": "from",
          "type": "address"
        },
        {
          "internalType": "address",
          "name": "to",
          "type": "address"
        },
        {
          "internalType": "address",
          "name": "token",
          "type": "address"
        },
        {
          "internalType": "int256",
          "name": "amount",
          "type": "int256"
        }
      ],
      "name": "transferShares",
      "outputs": [],
      "stateMutability": "nonpayable",
      "type": "function"
    },
    {
      "inputs": [],
      "name": "getContracts",
      "outputs": [
        {
          "internalType": "address",
          "name": "",
          "type": "address"
        },
        {
          "internalType": "address",
          "name": "",
          "type": "address"
        },
        {
          "internalType": "address",
          "name": "",
          "type": "address"
        },
        {
          "internalType": "address",
          "name": "",
          "type": "address"
        },
        {
          "internalType": "address",
          "name": "",
          "type": "address"
        },
        {
          "internalType": "address",
          "name": "",
          "type": "address"
        },
        {
          "internalType": "address",
          "name": "",
          "type": "address"
        },
        {
          "internalType": "address",
          "name": "",
          "type": "address"
        }
      ],
      "stateMutability": "view",
      "type": "function",
      "constant": true
    },
    {
      "inputs": [
        {
          "internalType": "uint256",
          "name": "value",
          "type": "uint256"
        }
      ],
      "name": "setThreshold",
      "outputs": [],
      "stateMutability": "nonpayable",
      "type": "function"
    },
    {
      "inputs": [
        {
          "internalType": "uint256",
          "name": "value",
          "type": "uint256"
        }
      ],
      "name": "setPriceThreshold",
      "outputs": [],
      "stateMutability": "nonpayable",
      "type": "function"
    },
    {
      "inputs": [
        {
          "internalType": "address",
          "name": "wallet",
          "type": "address"
        }
      ],
      "name": "setFeeRecipient",
      "outputs": [],
      "stateMutability": "nonpayable",
      "type": "function"
    },
    {
      "inputs": [
        {
          "internalType": "uint256",
          "name": "fee",
          "type": "uint256"
        }
      ],
      "name": "setFee",
      "outputs": [],
      "stateMutability": "nonpayable",
      "type": "function"
    },
    {
      "inputs": [
        {
          "internalType": "string",
          "name": "symbol",
          "type": "string"
        },
        {
          "internalType": "address",
          "name": "tokenAddress",
          "type": "address"
        }
      ],
      "name": "setOfferingContractAddress",
      "outputs": [],
      "stateMutability": "nonpayable",
      "type": "function"
    },
    {
      "inputs": [
        {
          "internalType": "string",
          "name": "symbol",
          "type": "string"
        }
      ],
      "name": "getOrders",
      "outputs": [
        {
          "components": [
            {
              "internalType": "uint256",
              "name": "orderId",
              "type": "uint256"
            },
            {
              "internalType": "address",
              "name": "wallet",
              "type": "address"
            },
            {
              "internalType": "uint256",
              "name": "quantity",
              "type": "uint256"
            },
            {
              "internalType": "uint256",
              "name": "price",
              "type": "uint256"
            },
            {
              "internalType": "uint256",
              "name": "paid",
              "type": "uint256"
            }
          ],
          "internalType": "struct ExemptLiquidityMarketExchange.Order[]",
          "name": "",
          "type": "tuple[]"
        },
        {
          "components": [
            {
              "internalType": "uint256",
              "name": "orderId",
              "type": "uint256"
            },
            {
              "internalType": "address",
              "name": "wallet",
              "type": "address"
            },
            {
              "internalType": "uint256",
              "name": "quantity",
              "type": "uint256"
            },
            {
              "internalType": "uint256",
              "name": "price",
              "type": "uint256"
            },
            {
              "internalType": "uint256",
              "name": "paid",
              "type": "uint256"
            }
          ],
          "internalType": "struct ExemptLiquidityMarketExchange.Order[]",
          "name": "",
          "type": "tuple[]"
        }
      ],
      "stateMutability": "view",
      "type": "function",
      "constant": true
    },
    {
      "inputs": [
        {
          "internalType": "string",
          "name": "symbol",
          "type": "string"
        }
      ],
      "name": "quote",
      "outputs": [
        {
          "internalType": "uint256",
          "name": "",
          "type": "uint256"
        },
        {
          "internalType": "uint256",
          "name": "",
          "type": "uint256"
        }
      ],
      "stateMutability": "view",
      "type": "function",
      "constant": true
    },
    {
      "inputs": [
        {
          "internalType": "address",
          "name": "wallet",
          "type": "address"
        },
        {
          "internalType": "string",
          "name": "symbol",
          "type": "string"
        },
        {
          "internalType": "uint256",
          "name": "quantity",
          "type": "uint256"
        },
        {
          "internalType": "uint256",
          "name": "price",
          "type": "uint256"
        },
        {
          "internalType": "uint256",
          "name": "amount",
          "type": "uint256"
        }
      ],
      "name": "buy",
      "outputs": [],
      "stateMutability": "nonpayable",
      "type": "function"
    },
    {
      "inputs": [
        {
          "internalType": "address",
          "name": "wallet",
          "type": "address"
        },
        {
          "internalType": "string",
          "name": "symbol",
          "type": "string"
        },
        {
          "internalType": "uint256",
          "name": "orderId",
          "type": "uint256"
        }
      ],
      "name": "cancelBuy",
      "outputs": [],
      "stateMutability": "nonpayable",
      "type": "function"
    },
    {
      "inputs": [
        {
          "internalType": "address",
          "name": "wallet",
          "type": "address"
        },
        {
          "internalType": "string",
          "name": "symbol",
          "type": "string"
        },
        {
          "internalType": "uint256",
          "name": "quantity",
          "type": "uint256"
        },
        {
          "internalType": "uint256",
          "name": "price",
          "type": "uint256"
        }
      ],
      "name": "sell",
      "outputs": [],
      "stateMutability": "nonpayable",
      "type": "function"
    },
    {
      "inputs": [
        {
          "internalType": "address",
          "name": "wallet",
          "type": "address"
        },
        {
          "internalType": "string",
          "name": "symbol",
          "type": "string"
        },
        {
          "internalType": "uint256",
          "name": "orderId",
          "type": "uint256"
        }
      ],
      "name": "cancelSell",
      "outputs": [],
      "stateMutability": "nonpayable",
      "type": "function"
    },
    {
      "inputs": [
        {
          "internalType": "string",
          "name": "symbol",
          "type": "string"
        }
      ],
      "name": "detectMarketAbuse",
      "outputs": [
        {
          "internalType": "bool",
          "name": "",
          "type": "bool"
        }
      ],
      "stateMutability": "view",
      "type": "function",
      "constant": true
    },
    {
      "inputs": [
        {
          "internalType": "string",
          "name": "symbol",
          "type": "string"
        },
        {
          "internalType": "uint256",
          "name": "orderId",
          "type": "uint256"
        }
      ],
      "name": "detectManipulativeBehaviorDetected",
      "outputs": [
        {
          "internalType": "bool",
          "name": "",
          "type": "bool"
        }
      ],
      "stateMutability": "view",
      "type": "function",
      "constant": true
    },
    {
      "inputs": [
        {
          "internalType": "string",
          "name": "symbol",
          "type": "string"
        },
        {
          "internalType": "address",
          "name": "wallet",
          "type": "address"
        }
      ],
      "name": "addInvestor",
      "outputs": [],
      "stateMutability": "nonpayable",
      "type": "function"
    },
    {
      "inputs": [
        {
          "internalType": "address",
          "name": "investor",
          "type": "address"
        },
        {
          "internalType": "uint256",
          "name": "investor_type",
          "type": "uint256"
        },
        {
          "internalType": "string",
          "name": "jurisdiction",
          "type": "string"
        }
      ],
      "name": "addInvestor",
      "outputs": [],
      "stateMutability": "nonpayable",
      "type": "function"
    },
    {
      "inputs": [
        {
          "internalType": "string",
          "name": "symbol",
          "type": "string"
        },
        {
          "internalType": "address",
          "name": "wallet",
          "type": "address"
        }
      ],
      "name": "isInvestor",
      "outputs": [
        {
          "internalType": "bool",
          "name": "",
          "type": "bool"
        }
      ],
      "stateMutability": "view",
      "type": "function",
      "constant": true
    },
    {
      "inputs": [
        {
          "internalType": "address",
          "name": "wallet",
          "type": "address"
        }
      ],
      "name": "getInvestor",
      "outputs": [
        {
          "internalType": "address",
          "name": "",
          "type": "address"
        },
        {
          "internalType": "bool",
          "name": "",
          "type": "bool"
        },
        {
          "internalType": "string",
          "name": "",
          "type": "string"
        },
        {
          "internalType": "uint256",
          "name": "",
          "type": "uint256"
        }
      ],
      "stateMutability": "view",
      "type": "function",
      "constant": true
    },
    {
      "inputs": [
        {
          "internalType": "address",
          "name": "tokenManagerAddress",
          "type": "address"
        }
      ],
      "name": "assignTokenManager",
      "outputs": [],
      "stateMutability": "nonpayable",
      "type": "function"
    },
    {
      "inputs": [
        {
          "internalType": "address",
          "name": "tokenAddress",
          "type": "address"
        },
        {
          "internalType": "address",
          "name": "issuer",
          "type": "address"
        },
        {
          "internalType": "string",
          "name": "name",
          "type": "string"
        },
        {
          "internalType": "string",
          "name": "symbol",
          "type": "string"
        },
        {
          "internalType": "uint256",
          "name": "totalSupply",
          "type": "uint256"
        },
        {
          "internalType": "string",
          "name": "regulation",
          "type": "string"
        }
      ],
      "name": "assignToken",
      "outputs": [],
      "stateMutability": "nonpayable",
      "type": "function"
    },
    {
      "inputs": [
        {
          "internalType": "string",
          "name": "symbol",
          "type": "string"
        }
      ],
      "name": "getToken",
      "outputs": [
        {
          "internalType": "address",
          "name": "",
          "type": "address"
        }
      ],
      "stateMutability": "view",
      "type": "function",
      "constant": true
    },
    {
      "inputs": [
        {
          "internalType": "address",
          "name": "tokenAddress",
          "type": "address"
        },
        {
          "internalType": "string",
          "name": "symbol",
          "type": "string"
        },
        {
          "internalType": "address",
          "name": "investor",
          "type": "address"
        },
        {
          "internalType": "uint256",
          "name": "initialBalance",
          "type": "uint256"
        }
      ],
      "name": "issueStockCertificate",
      "outputs": [
        {
          "internalType": "uint256",
          "name": "",
          "type": "uint256"
        }
      ],
      "stateMutability": "nonpayable",
      "type": "function"
    },
    {
      "inputs": [
        {
          "internalType": "address",
          "name": "from",
          "type": "address"
        },
        {
          "internalType": "address",
          "name": "tokenAddress",
          "type": "address"
        },
        {
          "internalType": "uint256",
          "name": "certificateId",
          "type": "uint256"
        },
        {
          "internalType": "address",
          "name": "to",
          "type": "address"
        },
        {
          "internalType": "uint256",
          "name": "amount",
          "type": "uint256"
        }
      ],
      "name": "transferStockCertificate",
      "outputs": [],
      "stateMutability": "nonpayable",
      "type": "function"
    },
    {
      "inputs": [
        {
          "internalType": "address",
          "name": "tokenAddress",
          "type": "address"
        },
        {
          "internalType": "uint256",
          "name": "certificateId",
          "type": "uint256"
        }
      ],
      "name": "getStockCertificateBalance",
      "outputs": [
        {
          "internalType": "uint256",
          "name": "",
          "type": "uint256"
        }
      ],
      "stateMutability": "view",
      "type": "function",
      "constant": true
    },
    {
      "inputs": [
        {
          "internalType": "address",
          "name": "investor",
          "type": "address"
        }
      ],
      "name": "getStockInvestorCertificates",
      "outputs": [
        {
          "internalType": "uint256[]",
          "name": "",
          "type": "uint256[]"
        }
      ],
      "stateMutability": "view",
      "type": "function",
      "constant": true
    },
    {
      "inputs": [
        {
          "internalType": "address",
          "name": "tokenAddress",
          "type": "address"
        },
        {
          "internalType": "address",
          "name": "wallet",
          "type": "address"
        },
        {
          "internalType": "uint256",
          "name": "certificateId",
          "type": "uint256"
        }
      ],
      "name": "isStockCertificateValid",
      "outputs": [
        {
          "internalType": "bool",
          "name": "",
          "type": "bool"
        }
      ],
      "stateMutability": "view",
      "type": "function",
      "constant": true
    },
    {
      "inputs": [
        {
          "internalType": "address",
          "name": "tokenAddress",
          "type": "address"
        },
        {
          "internalType": "string",
          "name": "cusipNumber",
          "type": "string"
        }
      ],
      "name": "assignCUSIPtoToken",
      "outputs": [],
      "stateMutability": "nonpayable",
      "type": "function"
    },
    {
      "inputs": [
        {
          "internalType": "address",
          "name": "tokenAddress",
          "type": "address"
        }
      ],
      "name": "getCUSIP",
      "outputs": [
        {
          "internalType": "string",
          "name": "",
          "type": "string"
        }
      ],
      "stateMutability": "view",
      "type": "function",
      "constant": true
    },
    {
      "inputs": [
        {
          "internalType": "address",
          "name": "tokenAddress",
          "type": "address"
        },
        {
          "internalType": "string",
          "name": "isinNumber",
          "type": "string"
        }
      ],
      "name": "assignISINtoToken",
      "outputs": [],
      "stateMutability": "nonpayable",
      "type": "function"
    },
    {
      "inputs": [
        {
          "internalType": "address",
          "name": "tokenAddress",
          "type": "address"
        }
      ],
      "name": "getISIN",
      "outputs": [
        {
          "internalType": "string",
          "name": "",
          "type": "string"
        }
      ],
      "stateMutability": "view",
      "type": "function",
      "constant": true
    },
    {
      "inputs": [
        {
          "internalType": "address",
          "name": "tokenAddress",
          "type": "address"
        },
        {
          "internalType": "string",
          "name": "secFileNumber",
          "type": "string"
        }
      ],
      "name": "assignFileNumber",
      "outputs": [],
      "stateMutability": "nonpayable",
      "type": "function"
    },
    {
      "inputs": [
        {
          "internalType": "address",
          "name": "tokenAddress",
          "type": "address"
        }
      ],
      "name": "getFileNumber",
      "outputs": [
        {
          "internalType": "string",
          "name": "",
          "type": "string"
        }
      ],
      "stateMutability": "view",
      "type": "function",
      "constant": true
    },
    {
      "inputs": [
        {
          "internalType": "address",
          "name": "tokenAddress",
          "type": "address"
        },
        {
          "internalType": "uint256",
          "name": "index",
          "type": "uint256"
        },
        {
          "internalType": "string",
          "name": "certificateNumber",
          "type": "string"
        }
      ],
      "name": "assignCertificateNumber",
      "outputs": [],
      "stateMutability": "nonpayable",
      "type": "function"
    },
    {
      "inputs": [
        {
          "internalType": "address",
          "name": "tokenAddress",
          "type": "address"
        },
        {
          "internalType": "uint256",
          "name": "index",
          "type": "uint256"
        }
      ],
      "name": "getCertificateNumber",
      "outputs": [
        {
          "internalType": "string",
          "name": "",
          "type": "string"
        }
      ],
      "stateMutability": "view",
      "type": "function",
      "constant": true
    }
  ],
  "bytecode": "0x60806040526001601255600a601355600560145534801561001f57600080fd5b506000805433600160a060020a03199182168117835560018054909216179055615eda9081906200005090396000f3fe608060405234801561001057600080fd5b50600436106102525760e060020a60003504621a1c9281146102575780623920401461026c57806301a4f40e14610292578063088f0dc2146102b55780630eca36cb146102d657806312e01840146102e95780631840cb211461030957806320b140c41461031c578063213437441461032f578063255ce3831461034257806328bc4627146103555780633ab81105146103805780633fb069281461039357806346904840146103a657806348b440d9146103c65780634b9f4b04146103d95780634fb52c70146103ec57806351d55964146103ff578063551714f71461041257806359b4cc7c1461045557806359d37d8a1461048057806361f156501461049357806362afeaa8146104a657806364bf7cdc146104b957806369fe0e2d146104cc57806372503ac8146104df5780637705d153146104f257806377d66687146105055780637ab71c2d14610530578063882b5a7314610543578063893d20e8146105565780638b2a76de146105675780638da5cb5b146105875780638f35a75e1461059a5780638f740a34146105bd578063944374ec146105d0578063960bfe04146105e3578063971a840f146105f657806398fe9dfb146103c65780639ad8d6f714610609578063a8465d4d1461061c578063a9e6091f1461062f578063c1733f6814610642578063c3a2a93a14610655578063db8f6a7e146106af578063dc03720e146106c2578063df05c631146106d5578063e28797d214610705578063e74b981b1461070e578063eb73238b14610721578063f42e769914610734575b600080fd5b61026a610265366004614872565b610755565b005b61027f61027a3660046148c8565b6107f4565b6040519081526020015b60405180910390f35b6102a56102a03660046149c8565b610821565b6040519015158152602001610289565b6102c86102c33660046149fc565b6109c8565b604051610289929190614a3d565b6102a56102e4366004614a4b565b610a19565b6102fc6102f7366004614a8c565b610ac7565b6040516102899190614af9565b61026a610317366004614a4b565b610b74565b6102fc61032a366004614a8c565b610c4a565b61026a61033d366004614b0c565b610cab565b61026a610350366004614b7a565b611741565b61027f6103633660046149c8565b8051602081830181018051600d8252928201919093012091525481565b61026a61038e366004614bdd565b61178b565b61026a6103a1366004614c38565b611bdc565b6011546103b990600160a060020a031681565b6040516102899190614c93565b6102fc6103d4366004614b7a565b611c83565b61026a6103e7366004614ca7565b611cdb565b61026a6103fa366004614cfb565b611d3d565b61026a61040d366004614d14565b611d6f565b610425610420366004614d65565b611f0b565b60408051958652600160a060020a039094166020860152928401919091526060830152608082015260a001610289565b61027f6104633660046149c8565b8051602081830181018051600f8252928201919093012091525481565b61026a61048e366004614da9565b611f72565b61026a6104a1366004614e04565b61200e565b6102a56104b4366004614872565b6129a5565b61026a6104c7366004614e6a565b612a09565b61026a6104da366004614cfb565b612a6a565b61027f6104ed366004614ec2565b612b34565b61026a610500366004614872565b612bea565b61027f6105133660046149c8565b8051602081830181018051600e8252928201919093012091525481565b6102fc61053e366004614a8c565b612c5e565b61027f610551366004614f31565b612cbf565b600054600160a060020a03166103b9565b61057a610575366004614a8c565b612d6a565b6040516102899190614f5d565b6001546103b990600160a060020a031681565b6105ad6105a8366004614a8c565b612e10565b6040516102899493929190614fa1565b61026a6105cb366004614b7a565b612ecb565b6104256105de366004614d65565b612f08565b61026a6105f1366004614cfb565b612f33565b61026a610604366004614ca7565b612f65565b61026a610617366004614fde565b612fc7565b61026a61062a366004614bdd565b613082565b6102fc61063d366004614f31565b613423565b6103b96106503660046149fc565b6134cb565b61065d61356f565b60408051600160a060020a03998a16815297891660208901529588169587019590955292861660608601529085166080850152841660a0840152831660c083015290911660e082015261010001610289565b6102a56106bd366004614d65565b6135f4565b61026a6106d0366004615087565b6138a6565b61026a6106e3366004614a8c565b60058054600160a060020a031916600160a060020a0392909216919091179055565b61027f60125481565b61026a61071c366004614a8c565b613951565b61026a61072f366004614ca7565b6139c8565b6107476107423660046149fc565b613a2a565b6040516102899291906151bf565b600454600160a060020a03166107895760405160e560020a62461bcd028152600401610780906151ed565b60405180910390fd5b6004805460405160e160020a620d0e49028152600160a060020a0390911691621a1c92916107bd918791879187910161525d565b600060405180830381600087803b1580156107d757600080fd5b505af11580156107eb573d6000803e3d6000fd5b50505050505050565b600160a060020a038083166000908152601060209081526040808320938516835292905220545b92915050565b60008060005b600b84604051610837919061528a565b908152604051908190036020019020548110156108ae57600b8460405161085e919061528a565b9081526020016040518091039020818154811061087d5761087d6152a6565b9060005260206000209060050201600301548261089a91906152da565b9150806108a6816152ed565b915050610827565b506000600b846040516108c1919061528a565b908152604051908190036020019020546108db9083615306565b90506000805b600c866040516108f1919061528a565b9081526040519081900360200190205481101561096857600c86604051610918919061528a565b90815260200160405180910390208181548110610937576109376152a6565b9060005260206000209060050201600301548261095491906152da565b915080610960816152ed565b9150506108e1565b506000600c8660405161097b919061528a565b908152604051908190036020019020546109959083615306565b905060006109a3848361532c565b905060135481106109bb575060019695505050505050565b5060009695505050505050565b600080600e84846040516109dd92919061533f565b908152602001604051809103902054600f85856040516109fe92919061533f565b908152602001604051809103902054915091505b9250929050565b600654600090600160a060020a0316610a475760405160e560020a62461bcd0281526004016107809061534f565b60065460405160e160020a6337ee3cc9028152600160a060020a0390911690636fdc799290610a7e90879087908790600401615397565b602060405180830381865afa158015610a9b573d6000803e3d6000fd5b505050506040513d601f19601f82011682018060405250810190610abf91906153cb565b949350505050565b600854606090600160a060020a0316610af55760405160e560020a62461bcd028152600401610780906153e6565b60085460405160e660020a624b8061028152600160a060020a03909116906312e0184090610b27908590600401614c93565b600060405180830381865afa158015610b44573d6000803e3d6000fd5b505050506040513d6000823e601f3d908101601f19168201604052610b6c919081019061546f565b90505b919050565b6004805460405160e060020a633af32abf0281528592600160a060020a0390921691633af32abf91610ba891859101614c93565b602060405180830381865afa158015610bc5573d6000803e3d6000fd5b505050506040513d601f19601f82011682018060405250810190610be991906153cb565b610c085760405160e560020a62461bcd028152600401610780906154a3565b600160a060020a03808516600090815260106020908152604080832093871683529290529081208054849290610c3f9084906154d8565b909155505050505050565b600854606090600160a060020a0316610c785760405160e560020a62461bcd028152600401610780906153e6565b60085460405160e260020a63082c5031028152600160a060020a03909116906320b140c490610b27908590600401614c93565b600454600160a060020a0316610cd65760405160e560020a62461bcd028152600401610780906151ed565b6000600160a060020a0316600a8686604051610cf392919061533f565b90815260405190819003602001902054600160a060020a031603610d2c5760405160e560020a62461bcd02815260040161078090615500565b6004805460405160e060020a633af32abf028152600160a060020a0390911691633af32abf91610d5e918a9101614c93565b602060405180830381865afa158015610d7b573d6000803e3d6000fd5b505050506040513d601f19601f82011682018060405250810190610d9f91906153cb565b610dbe5760405160e560020a62461bcd02815260040161078090615530565b600a8585604051610dd092919061533f565b90815260408051602092819003830181205460e060020a63a1305aa50282529151600160a060020a039092169263a1305aa5926004808401938290030181865afa158015610e22573d6000803e3d6000fd5b505050506040513d601f19601f82011682018060405250810190610e4691906153cb565b610e655760405160e560020a62461bcd02815260040161078090615577565b600083118015610e755750600082115b610e945760405160e560020a62461bcd028152600401610780906155ae565b610e9e8383613bea565b8111610f005760405160e560020a62461bcd02815260206004820152602560248201527f696e73756666696369656e742066756e647320746f20706c6163652062757920604482015260d960020a6437b93232b9026064820152608401610780565b600a8585604051610f1292919061533f565b90815260408051602092819003830181205460e160020a6362720d910282529151600160a060020a039092169263c4e41b22926004808401938290030181865afa158015610f64573d6000803e3d6000fd5b505050506040513d601f19601f82011682018060405250810190610f8891906155e5565b600a8686604051610f9a92919061533f565b90815260408051602092819003830181205460e360020a631bc569d30282529151600160a060020a039092169263de2b4e98926004808401938290030181865afa158015610fec573d6000803e3d6000fd5b505050506040513d601f19601f8201168201806040525081019061101091906155e5565b146110835760405160e560020a62461bcd02815260206004820152603760248201527f74726164696e672064697361626c656420756e74696c2066756e64696e6720726044820152604a60020a761bdd5b99081a185cc81899595b8818dbdb5c1b195d1959026064820152608401610780565b60006040518060a00160405280600d88886040516110a292919061533f565b908152602001604051809103902054815260200188600160a060020a0316815260200185815260200184815260200183815250905080600b87876040516110ea92919061533f565b9081526020016040518091039020600d888860405161110a92919061533f565b90815260200160405180910390205481548110611129576111296152a6565b600091825260209182902083516005929092020190815582820151600182018054600160a060020a031916600160a060020a039092169190911790556040808401516002830155606084015160038301556080909301516004909101558151601f88018290048202810182019092528682526111e19190889088908190840183828082843760009201919091525050604051600d92506111cd91508a908a9061533f565b9081526020016040518091039020546135f4565b156112e557600080516020615e85833981519152878787600d8a8a60405161120a92919061533f565b90815260405190819003602001812054611226949392916155fe565b60405180910390a1600a868660405161124092919061533f565b908152604080519182900360200182205460e160020a6331b08877028352600060048401526024830191909152601e60448301527f4d616e6970756c6174697665204265686176696f7220446574656374656400006064830152600160a060020a03169063636110ee906084015b600060405180830381600087803b1580156112c857600080fd5b505af11580156112dc573d6000803e3d6000fd5b505050506107eb565b61132486868080601f01602080910402602001604051908101604052809392919081815260200183838082843760009201919091525061082192505050565b15611402577fc9f16d690430c1232c143ea17b4e61f83151f3c81b954950a1c643c5499cc757878787600d8a8a60405161135f92919061533f565b9081526040519081900360200181205461137b949392916155fe565b60405180910390a1600a868660405161139592919061533f565b908152604080519182900360200182205460e160020a6331b0887702835260006004840152602483019190915260156044830152605a60020a7413585c9ad95d0810589d5cd94811195d1958dd1959026064830152600160a060020a03169063636110ee906084016112ae565b600d868660405161141492919061533f565b9081526040519081900360200190208054906000611431836152ed565b91905055506114408686613c6a565b61144a8686613f5e565b86600160a060020a0316868660405161146492919061533f565b60405180910390207f28fcad331ce72427e449d96d1b7d27159236e010d2f95d0bcedba96b8dbe38f5868660405161149d929190614a3d565b60405180910390a360025460405160e060020a63e9395679028152600481018690526000918991600160a060020a039091169063e939567990602401600060405180830381865afa1580156114f6573d6000803e3d6000fd5b505050506040513d6000823e601f3d908101601f1916820160405261151e919081019061546f565b60025460405160e060020a63e939567902815260048101889052600160a060020a039091169063e939567990602401600060405180830381865afa15801561156a573d6000803e3d6000fd5b505050506040513d6000823e601f3d908101601f19168201604052611592919081019061546f565b600254604051600160a060020a039091169063e939567990600d906115ba908e908e9061533f565b9081526040519081900360200181205460e060020a63ffffffff84160282526115e99160040190815260200190565b600060405180830381865afa158015611606573d6000803e3d6000fd5b505050506040513d6000823e601f3d908101601f1916820160405261162e919081019061546f565b6040516020016116419493929190615634565b60408051601f1981840301815282825260025460e060020a634ba1e1930284529151909350600160a060020a0390911691631e54b0d8918a918a918591634ba1e1939160048083019260009291908290030181865afa1580156116a8573d6000803e3d6000fd5b505050506040513d6000823e601f3d908101601f191682016040526116d0919081019061546f565b856040518563ffffffff1660e060020a0281526004016116f394939291906156ee565b6020604051808303816000875af1158015611712573d6000803e3d6000fd5b505050506040513d601f19601f8201168201806040525081019061173691906155e5565b505050505050505050565b600061174d8284611c83565b90507fa27928d5add138a9aa14ac096633f0067188f726004a234a0a7a6bbb917e405d8160405161177e9190614af9565b60405180910390a1505050565b600454600160a060020a03166117b65760405160e560020a62461bcd028152600401610780906151ed565b6000600160a060020a0316600a84846040516117d392919061533f565b90815260405190819003602001902054600160a060020a03160361180c5760405160e560020a62461bcd02815260040161078090615500565b6004805460405160e060020a633af32abf028152600160a060020a0390911691633af32abf9161183e91889101614c93565b602060405180830381865afa15801561185b573d6000803e3d6000fd5b505050506040513d601f19601f8201168201806040525081019061187f91906153cb565b61189e5760405160e560020a62461bcd02815260040161078090615530565b3031806118ee5760405160e560020a62461bcd0281526020600482015260186024820152604160020a7721b7b73a3930b1ba103430b9903737903130b630b731b297026044820152606401610780565b6000600b858560405161190292919061533f565b90815260200160405180910390208381548110611921576119216152a6565b600091825260209091206005909102016001810154909150600160a060020a038781169116146119965760405160e560020a62461bcd02815260206004820152601c60248201527f4e6f7420746865206f776e6572206f662074686973206f726465722e000000006044820152606401610780565b6004810154604051600b906119ae908890889061533f565b908152602001604051809103902084815481106119cd576119cd6152a6565b600091825260208220600590910201818155600181018054600160a060020a0319169055600281018290556003810182905560040155604051600080516020615e6583398151915290611a23908990849061575a565b60405180910390a160025460405160e060020a63e9395679028152600481018690526000918991600160a060020a039091169063e939567990602401600060405180830381865afa158015611a7c573d6000803e3d6000fd5b505050506040513d6000823e601f3d908101601f19168201604052611aa4919081019061546f565b60025460405160e060020a63e939567902815260048101869052600160a060020a039091169063e939567990602401600060405180830381865afa158015611af0573d6000803e3d6000fd5b505050506040513d6000823e601f3d908101601f19168201604052611b18919081019061546f565b604051602001611b2a93929190615773565b60408051601f1981840301815282825260025460e060020a634ba1e1930284529151909350600160a060020a0390911691631e54b0d8918a918a918591634ba1e1939160048083019260009291908290030181865afa158015611b91573d6000803e3d6000fd5b505050506040513d6000823e601f3d908101601f19168201604052611bb9919081019061546f565b856040518563ffffffff1660e060020a0281526004016116f394939291906157ff565b600654600160a060020a0316611c075760405160e560020a62461bcd0281526004016107809061534f565b60065460405160e060020a6307ec10bd028152600160a060020a038781166004830152868116602483015260448201869052848116606483015260848201849052909116906307ec10bd9060a401600060405180830381600087803b158015611c6f57600080fd5b505af1158015611736573d6000803e3d6000fd5b60606000825111611cd55760405160e560020a62461bcd0281526020600482015260166024820152605060020a7544617461206d757374206e6f7420626520656d707479026044820152606401610780565b50919050565b600854600160a060020a0316611d065760405160e560020a62461bcd028152600401610780906153e6565b60085460405160e260020a6312e7d2c1028152600160a060020a0390911690634b9f4b04906107bd90869086908690600401615867565b600054600160a060020a03163314611d6a5760405160e560020a62461bcd0281526004016107809061588c565b601455565b6004805460405160e060020a633af32abf0281528592600160a060020a0390921691633af32abf91611da391859101614c93565b602060405180830381865afa158015611dc0573d6000803e3d6000fd5b505050506040513d601f19601f82011682018060405250810190611de491906153cb565b611e035760405160e560020a62461bcd028152600401610780906154a3565b600160a060020a03808616600090815260106020908152604080832093871683529290522054821315611e7b5760405160e560020a62461bcd02815260206004820152601a60248201527f696e73756666696369656e7420746f6b656e2062616c616e63650000000000006044820152606401610780565b600160a060020a03808616600090815260106020908152604080832093871683529290522054611eab908361475a565b50600160a060020a03808516600090815260106020908152604080832093871683529290522054611edc90836147c1565b50600080516020615e658339815191528583604051611efc92919061575a565b60405180910390a15050505050565b8151602081840181018051600b825292820191850191909120919052805482908110611f3657600080fd5b600091825260209091206005909102018054600182015460028301546003840154600490940154929550600160a060020a039091169350919085565b600854600160a060020a0316611f9d5760405160e560020a62461bcd028152600401610780906153e6565b60085460405160e160020a632ce9bec5028152600160a060020a03909116906359d37d8a90611fd69087908790879087906004016158b7565b600060405180830381600087803b158015611ff057600080fd5b505af1158015612004573d6000803e3d6000fd5b5050505050505050565b600454600160a060020a03166120395760405160e560020a62461bcd028152600401610780906151ed565b6000600160a060020a0316600a858560405161205692919061533f565b90815260405190819003602001902054600160a060020a03160361208f5760405160e560020a62461bcd02815260040161078090615500565b6004805460405160e060020a633af32abf028152600160a060020a0390911691633af32abf916120c191899101614c93565b602060405180830381865afa1580156120de573d6000803e3d6000fd5b505050506040513d601f19601f8201168201806040525081019061210291906153cb565b6121215760405160e560020a62461bcd02815260040161078090615530565b600a848460405161213392919061533f565b90815260408051602092819003830181205460e060020a63a1305aa50282529151600160a060020a039092169263a1305aa5926004808401938290030181865afa158015612185573d6000803e3d6000fd5b505050506040513d601f19601f820116820180604052508101906121a991906153cb565b6121c85760405160e560020a62461bcd02815260040161078090615577565b6000821161220f5760405160e560020a62461bcd02815260206004820152600e6024820152609260020a6d125b9d985b1a5908185b5bdd5b9d026044820152606401610780565b600081116122555760405160e560020a62461bcd02815260206004820152600d6024820152609860020a6c496e76616c6964207072696365026044820152606401610780565b6000821180156122655750600081115b6122845760405160e560020a62461bcd028152600401610780906155ae565b600a848460405161229692919061533f565b90815260408051602092819003830181205460e160020a6362720d910282529151600160a060020a039092169263c4e41b22926004808401938290030181865afa1580156122e8573d6000803e3d6000fd5b505050506040513d601f19601f8201168201806040525081019061230c91906155e5565b600a858560405161231e92919061533f565b90815260408051602092819003830181205460e360020a631bc569d30282529151600160a060020a039092169263de2b4e98926004808401938290030181865afa158015612370573d6000803e3d6000fd5b505050506040513d601f19601f8201168201806040525081019061239491906155e5565b1461240a5760405160e560020a62461bcd02815260206004820152603a60248201527f74726164696e672064697361626c656420756e74696c20696e697469616c206f60448201527f66666572696e6720686173206265656e20636f6d706c657465640000000000006064820152608401610780565b81600a858560405161241d92919061533f565b9081526040519081900360200181205460e160020a6344d796e7028252600160a060020a0316906389af2dce90612458908990600401614c93565b602060405180830381865afa158015612475573d6000803e3d6000fd5b505050506040513d601f19601f8201168201806040525081019061249991906155e5565b10156124fd5760405160e560020a62461bcd02815260206004820152602760248201527f696e73756666696369656e742062616c616e636520696e2073656c6c65727320604482015260ca60020a661858d8dbdd5b9d026064820152608401610780565b60006040518060a00160405280600d878760405161251c92919061533f565b908152602001604051809103902054815260200187600160a060020a031681526020018481526020018381526020016000815250905080600c868660405161256592919061533f565b9081526020016040518091039020600d878760405161258592919061533f565b908152602001604051809103902054815481106125a4576125a46152a6565b60009182526020808320845160059390930201918255830151600182018054600160a060020a031916600160a060020a03928316179055604080850151600280850191909155606086015160038501556080909501516004938401559354935160e060020a63e939567902815291820187905291928992169063e939567990602401600060405180830381865afa158015612643573d6000803e3d6000fd5b505050506040513d6000823e601f3d908101601f1916820160405261266b919081019061546f565b60025460405160e060020a63e939567902815260048101879052600160a060020a039091169063e939567990602401600060405180830381865afa1580156126b7573d6000803e3d6000fd5b505050506040513d6000823e601f3d908101601f191682016040526126df919081019061546f565b600254604051600160a060020a039091169063e939567990600d90612707908d908d9061533f565b9081526040519081900360200181205460e060020a63ffffffff84160282526127369160040190815260200190565b600060405180830381865afa158015612753573d6000803e3d6000fd5b505050506040513d6000823e601f3d908101601f1916820160405261277b919081019061546f565b60405160200161278e94939291906158e0565b60408051601f1981840301815282825260025460e060020a634ba1e1930284529151909350600160a060020a0390911691631e54b0d891899189918591634ba1e1939160048083019260009291908290030181865afa1580156127f5573d6000803e3d6000fd5b505050506040513d6000823e601f3d908101601f1916820160405261281d919081019061546f565b856040518563ffffffff1660e060020a028152600401612840949392919061599b565b6020604051808303816000875af115801561285f573d6000803e3d6000fd5b505050506040513d601f19601f8201168201806040525081019061288391906155e5565b506128d086868080601f01602080910402602001604051908101604052809392919081815260200183838082843760009201919091525050604051600d92506111cd91508a908a9061533f565b156128f957600080516020615e85833981519152878787600d8a8a60405161120a92919061533f565b600d868660405161290b92919061533f565b9081526040519081900360200190208054906000612928836152ed565b91905055506129378686613c6a565b6129418686613f5e565b86600160a060020a0316868660405161295b92919061533f565b60405180910390207f648ca708c2c66ac3475aee7ac07562246ad0ec231ec96941b3a78da300f65af68686604051612994929190614a3d565b60405180910390a350505050505050565b600454600090600160a060020a03166129d35760405160e560020a62461bcd028152600401610780906151ed565b6004805460405160e560020a6305316d87028152600160a060020a039091169163a62db0e091610a7e918891889188910161525d565b600454600160a060020a0316612a345760405160e560020a62461bcd028152600401610780906151ed565b6004805460405160e260020a63192fdf37028152600160a060020a03909116916364bf7cdc916107bd91879187918791016159fd565b600054600160a060020a03163314612a975760405160e560020a62461bcd0281526004016107809061588c565b6064811115612af95760405160e560020a62461bcd02815260206004820152602260248201527f4665652070657263656e74616765206d75737420626520313030206f72206c65604482015260f060020a617373026064820152608401610780565b60128190556040518181527f74516f05eb4bd2461d57aa1e935ee553f86a3e02bfed7759f2f772915de3d9be9060200160405180910390a150565b600654600090600160a060020a0316612b625760405160e560020a62461bcd0281526004016107809061534f565b60065460405160e060020a63d1c083ab028152600160a060020a039091169063d1c083ab90612b9d9089908990899089908990600401615a25565b6020604051808303816000875af1158015612bbc573d6000803e3d6000fd5b505050506040513d601f19601f82011682018060405250810190612be091906155e5565b9695505050505050565b600054600160a060020a03163314612c175760405160e560020a62461bcd0281526004016107809061588c565b80600a8484604051612c2a92919061533f565b9081526040519081900360200190208054600160a060020a0392909216600160a060020a0319909216919091179055505050565b600854606090600160a060020a0316612c8c5760405160e560020a62461bcd028152600401610780906153e6565b60085460405160e060020a637ab71c2d028152600160a060020a0390911690637ab71c2d90610b27908590600401614c93565b600654600090600160a060020a0316612ced5760405160e560020a62461bcd0281526004016107809061534f565b60065460405160e560020a63054c8727028152600160a060020a039091169063a990e4e090612d22908690869060040161575a565b602060405180830381865afa158015612d3f573d6000803e3d6000fd5b505050506040513d601f19601f82011682018060405250810190612d6391906155e5565b9392505050565b600654606090600160a060020a0316612d985760405160e560020a62461bcd0281526004016107809061534f565b60065460405160e060020a63fc52d545028152600160a060020a039091169063fc52d54590612dcb908590600401614c93565b600060405180830381865afa158015612de8573d6000803e3d6000fd5b505050506040513d6000823e601f3d908101601f19168201604052610b6c9190810190615a5c565b60045460009081906060908290600160a060020a0316612e455760405160e560020a62461bcd028152600401610780906151ed565b6004805460405160e160020a63479ad3af028152600160a060020a0390911691638f35a75e91612e7791899101614c93565b600060405180830381865afa158015612e94573d6000803e3d6000fd5b505050506040513d6000823e601f3d908101601f19168201604052612ebc9190810190615b00565b93509350935093509193509193565b6000612ed78284611c83565b90507fb3037e531d036c1980fb05fb773b82653ea01c8c03775fc99d2df819f4d514498160405161177e9190614af9565b8151602081840181018051600c825292820191850191909120919052805482908110611f3657600080fd5b600054600160a060020a03163314612f605760405160e560020a62461bcd0281526004016107809061588c565b601355565b600854600160a060020a0316612f905760405160e560020a62461bcd028152600401610780906153e6565b60085460405160e060020a63971a840f028152600160a060020a039091169063971a840f906107bd90869086908690600401615867565b600054600160a060020a03163314612ff45760405160e560020a62461bcd0281526004016107809061588c565b60028054600160a060020a0319908116600160a060020a039a8b1617909155600380548216988a1698909817909755600480548816968916969096179095556005805487169488169490941790935560068054861692871692909217909155600780548516918616919091179055600880548416918516919091179055600980549092169216919091179055565b600454600160a060020a03166130ad5760405160e560020a62461bcd028152600401610780906151ed565b6000600160a060020a0316600a84846040516130ca92919061533f565b90815260405190819003602001902054600160a060020a0316036131035760405160e560020a62461bcd02815260040161078090615500565b6004805460405160e060020a633af32abf028152600160a060020a0390911691633af32abf9161313591889101614c93565b602060405180830381865afa158015613152573d6000803e3d6000fd5b505050506040513d601f19601f8201168201806040525081019061317691906153cb565b6131955760405160e560020a62461bcd02815260040161078090615530565b6000600c84846040516131a992919061533f565b908152602001604051809103902082815481106131c8576131c86152a6565b600091825260209091206005909102016001810154909150600160a060020a0386811691161461323d5760405160e560020a62461bcd02815260206004820152601c60248201527f6e6f7420746865206f776e6572206f662074686973206f726465722e000000006044820152606401610780565b600c848460405161324f92919061533f565b9081526020016040518091039020828154811061326e5761326e6152a6565b60009182526020822060059190910201818155600181018054600160a060020a031916905560028082018390556003820183905560049182018390555460405160e060020a63e93956790281529182018590528791600160a060020a039091169063e939567990602401600060405180830381865afa1580156132f5573d6000803e3d6000fd5b505050506040513d6000823e601f3d908101601f1916820160405261331d919081019061546f565b60405160200161332e929190615b68565b60408051601f1981840301815282825260025460e060020a634ba1e1930284529151909350600160a060020a0390911691631e54b0d891889188918591634ba1e1939160048083019260009291908290030181865afa158015613395573d6000803e3d6000fd5b505050506040513d6000823e601f3d908101601f191682016040526133bd919081019061546f565b856040518563ffffffff1660e060020a0281526004016133e09493929190615bc9565b6020604051808303816000875af11580156133ff573d6000803e3d6000fd5b505050506040513d601f19601f820116820180604052508101906107eb91906155e5565b600854606090600160a060020a03166134515760405160e560020a62461bcd028152600401610780906153e6565b60085460405160e060020a63a9e6091f028152600160a060020a039091169063a9e6091f90613486908690869060040161575a565b600060405180830381865afa1580156134a3573d6000803e3d6000fd5b505050506040513d6000823e601f3d908101601f19168201604052612d63919081019061546f565b600554600090600160a060020a03166134f95760405160e560020a62461bcd02815260040161078090615c32565b60055460405160e360020a63182e67ed028152600160a060020a039091169063c1733f689061352e9086908690600401615c76565b602060405180830381865afa15801561354b573d6000803e3d6000fd5b505050506040513d601f19601f82011682018060405250810190612d639190615c8a565b600080548190819081908190819081908190600160a060020a031633146135ab5760405160e560020a62461bcd0281526004016107809061588c565b5050600254600354600454600554600654600754600854600954600160a060020a039788169e9688169d509487169b509286169950908516975084169550831693509190911690565b600080600e84604051613607919061528a565b908152602001604051809103902054600b85604051613626919061528a565b90815260200160405180910390208481548110613645576136456152a6565b906000526020600020906005020160030154116136cb57600b8460405161366c919061528a565b9081526020016040518091039020838154811061368b5761368b6152a6565b906000526020600020906005020160030154600e856040516136ad919061528a565b9081526020016040518091039020546136c6919061532c565b613735565b600e846040516136db919061528a565b908152602001604051809103902054600b856040516136fa919061528a565b90815260200160405180910390208481548110613719576137196152a6565b906000526020600020906005020160030154613735919061532c565b90506000600f85604051613749919061528a565b908152602001604051809103902054600c86604051613768919061528a565b90815260200160405180910390208581548110613787576137876152a6565b9060005260206000209060050201600301541061380d57600f856040516137ae919061528a565b908152602001604051809103902054600c866040516137cd919061528a565b908152602001604051809103902085815481106137ec576137ec6152a6565b906000526020600020906005020160030154613808919061532c565b613877565b600c8560405161381d919061528a565b9081526020016040518091039020848154811061383c5761383c6152a6565b906000526020600020906005020160030154600f8660405161385e919061528a565b908152602001604051809103902054613877919061532c565b90506014548210158061388b575060145481115b1561389b5760019250505061081b565b506000949350505050565b600554600160a060020a03166138d15760405160e560020a62461bcd02815260040161078090615c32565b60055460405160e160020a636e01b907028152600160a060020a039091169063dc03720e90613914908c908c908c908c908c908c908c908c908c90600401615ca7565b600060405180830381600087803b15801561392e57600080fd5b505af1158015613942573d6000803e3d6000fd5b50505050505050505050505050565b600054600160a060020a0316331461397e5760405160e560020a62461bcd0281526004016107809061588c565b60118054600160a060020a031916600160a060020a0383169081179091556040517f7a7b5a0a132f9e0581eb8527f66eae9ee89c2a3e79d4ac7e41a1f1f4d48a7fc290600090a250565b600854600160a060020a03166139f35760405160e560020a62461bcd028152600401610780906153e6565b60085460405160e060020a63eb73238b028152600160a060020a039091169063eb73238b906107bd90869086908690600401615867565b6060806000600160a060020a0316600a8585604051613a4a92919061533f565b90815260405190819003602001902054600160a060020a031603613a835760405160e560020a62461bcd02815260040161078090615500565b600b8484604051613a9592919061533f565b9081526020016040518091039020600c8585604051613ab592919061533f565b908152602001604051809103902081805480602002602001604051908101604052809291908181526020016000905b82821015613b4b5760008481526020908190206040805160a0810182526005860290920180548352600180820154600160a060020a031684860152600282015492840192909252600381015460608401526004015460808301529083529092019101613ae4565b50505050915080805480602002602001604051908101604052809291908181526020016000905b82821015613bd95760008481526020908190206040805160a0810182526005860290920180548352600180820154600160a060020a031684860152600282015492840192909252600381015460608401526004015460808301529083529092019101613b72565b505050509050915091509250929050565b600082820282158382048514151715613c0257600080fd5b82613c0d8583615306565b14612d635760405160e560020a62461bcd02815260206004820152602160248201527f536166654d6174683a206d756c7469706c69636174696f6e206f766572666c6f604482015260f860020a6077026064820152608401610780565b600080600b8484604051613c7f92919061533f565b9081526020016040518091039020600081548110613c9f57613c9f6152a6565b906000526020600020906005020160030154600e8585604051613cc392919061533f565b90815260405190819003602001902055600191505b600b8484604051613cea92919061533f565b90815260405190819003602001902054821015613de357600e8484604051613d1392919061533f565b908152602001604051809103902054600b8585604051613d3492919061533f565b90815260200160405180910390208381548110613d5357613d536152a6565b9060005260206000209060050201600301541115613dd157600b8484604051613d7d92919061533f565b90815260200160405180910390208281548110613d9c57613d9c6152a6565b906000526020600020906005020160030154600e8585604051613dc092919061533f565b908152604051908190036020019020555b81613ddb816152ed565b925050613cd8565b600c8484604051613df592919061533f565b9081526020016040518091039020600081548110613e1557613e156152a6565b906000526020600020906005020160030154600f8585604051613e3992919061533f565b908152604051908190036020019020555060015b600c8484604051613e5f92919061533f565b90815260405190819003602001902054811015613f5857600f8484604051613e8892919061533f565b908152602001604051809103902054600c8585604051613ea992919061533f565b90815260200160405180910390208281548110613ec857613ec86152a6565b9060005260206000209060050201600301541015613f4657600c8484604051613ef292919061533f565b90815260200160405180910390208181548110613f1157613f116152a6565b906000526020600020906005020160030154600f8585604051613f3592919061533f565b908152604051908190036020019020555b80613f50816152ed565b915050613e4d565b50505050565b600b8282604051613f7092919061533f565b908152604051908190036020019020541580613fab5750600c8282604051613f9992919061533f565b90815260405190819003602001902054155b15613fb4575050565b6000805b600b8484604051613fca92919061533f565b90815260405190819003602001902054821080156140085750600c8484604051613ff592919061533f565b9081526040519081900360200190205481105b15613f58576000600b858560405161402192919061533f565b90815260200160405180910390208381548110614040576140406152a6565b600091825260208083206040805160a0810182526005909402909101805484526001810154600160a060020a03169284019290925260028201548382015260038201546060840152600490910154608083015251909250600c906140a7908890889061533f565b908152602001604051809103902083815481106140c6576140c66152a6565b60009182526020918290206040805160a0810182526005909302909101805483526001810154600160a060020a031693830193909352600283015490820152600382015460608083018290526004909301546080830152918401519092501061474c57600081604001518360400151111561414557816040015161414b565b82604001515b90506000826060015190508260200151600160a060020a03168460200151600160a060020a0316898960405161418292919061533f565b60405180910390207f424d865df397536b12696fce4ae34f828fe8ac24675ef10042bae24c2578f0db85856040516141bb929190614a3d565b60405180910390a4600a88886040516141d592919061533f565b9081526040516020918190038201812054858301519287015160e060020a6323b872dd028352600160a060020a03909116926323b872dd9261421c92908790600401615397565b6020604051808303816000875af115801561423b573d6000803e3d6000fd5b505050506040513d601f19601f8201168201806040525081019061425f91906153cb565b508260400151846040015111614344578360400151600c898960405161428692919061533f565b908152602001604051809103902086815481106142a5576142a56152a6565b906000526020600020906005020160020160008282546142c5919061532c565b9091555050604051600b906142dd908a908a9061533f565b908152602001604051809103902086815481106142fc576142fc6152a6565b600091825260208220600590910201818155600181018054600160a060020a03191690556002810182905560038101829055600401558561433c816152ed565b965050614415565b8260400151600b898960405161435b92919061533f565b9081526020016040518091039020878154811061437a5761437a6152a6565b9060005260206000209060050201600201600082825461439a919061532c565b9091555050604051600c906143b2908a908a9061533f565b908152602001604051809103902085815481106143d1576143d16152a6565b600091825260208220600590910201818155600181018054600160a060020a031916905560028101829055600381018290556004015584614411816152ed565b9550505b60006064601254836144279190615d12565b6144319190615306565b905060008113156144d057600954604051600160a060020a039091169063fa2a13ee90600a90614464908d908d9061533f565b9081526040519081900360200181205460e060020a63ffffffff841602825261449d91600160a060020a0390911690859060040161575a565b600060405180830381600087803b1580156144b757600080fd5b505af11580156144cb573d6000803e3d6000fd5b505050505b6020848101519086015160025460405160e060020a63e9395679028152600481018790526000939291600160a060020a03169063e939567990602401600060405180830381865afa158015614529573d6000803e3d6000fd5b505050506040513d6000823e601f3d908101601f19168201604052614551919081019061546f565b60025460405160e060020a63e939567902815260048101889052600160a060020a039091169063e939567990602401600060405180830381865afa15801561459d573d6000803e3d6000fd5b505050506040513d6000823e601f3d908101601f191682016040526145c5919081019061546f565b60025460405160e060020a63e939567902815260048101889052600160a060020a039091169063e939567990602401600060405180830381865afa158015614611573d6000803e3d6000fd5b505050506040513d6000823e601f3d908101601f19168201604052614639919081019061546f565b60405160200161464d959493929190615d29565b60408051601f1981840301815282825260025460e060020a634ba1e1930284529151909350600160a060020a0390911691631e54b0d8918d918d918591634ba1e1939160048083019260009291908290030181865afa1580156146b4573d6000803e3d6000fd5b505050506040513d6000823e601f3d908101601f191682016040526146dc919081019061546f565b856040518563ffffffff1660e060020a0281526004016146ff9493929190615e00565b6020604051808303816000875af115801561471e573d6000803e3d6000fd5b505050506040513d601f19601f8201168201806040525081019061474291906155e5565b5050505050614753565b5050613f58565b5050613fb8565b6000828213156147af5760405160e560020a62461bcd02815260206004820152601e60248201527f536166654d6174683a207375627472616374696f6e206f766572666c6f7700006044820152606401610780565b818303821984018114612d6357600080fd5b600082820183811215612d635760405160e560020a62461bcd02815260206004820152601b60248201527f536166654d6174683a206164646974696f6e206f766572666c6f7700000000006044820152606401610780565b60008083601f84011261482b57600080fd5b5081356001604060020a0381111561484257600080fd5b602083019150836020828501011115610a1257600080fd5b600160a060020a038116811461486f57600080fd5b50565b60008060006040848603121561488757600080fd5b83356001604060020a0381111561489d57600080fd5b6148a986828701614819565b90945092505060208401356148bd8161485a565b809150509250925092565b600080604083850312156148db57600080fd5b82356148e68161485a565b915060208301356148f68161485a565b809150509250929050565b60e060020a634e487b710260009081526041600452602490fd5b604051601f8201601f191681016001604060020a038111828210171561494357614943614901565b604052919050565b60006001604060020a0382111561496457614964614901565b50601f01601f191660200190565b600082601f83011261498357600080fd5b81356149966149918261494b565b61491b565b8181528460208386010111156149ab57600080fd5b816020850160208301376000918101602001919091529392505050565b6000602082840312156149da57600080fd5b81356001604060020a038111156149f057600080fd5b610abf84828501614972565b60008060208385031215614a0f57600080fd5b82356001604060020a03811115614a2557600080fd5b614a3185828601614819565b90969095509350505050565b918252602082015260400190565b600080600060608486031215614a6057600080fd5b8335614a6b8161485a565b92506020840135614a7b8161485a565b929592945050506040919091013590565b600060208284031215614a9e57600080fd5b8135612d638161485a565b60005b83811015614ac4578181015183820152602001614aac565b50506000910152565b60008151808452614ae5816020860160208601614aa9565b601f01601f19169290920160200192915050565b602081526000612d636020830184614acd565b60008060008060008060a08789031215614b2557600080fd5b8635614b308161485a565b955060208701356001604060020a03811115614b4b57600080fd5b614b5789828a01614819565b979a90995096976040810135976060820135975060809091013595509350505050565b60008060408385031215614b8d57600080fd5b82356001604060020a0380821115614ba457600080fd5b614bb086838701614972565b93506020850135915080821115614bc657600080fd5b50614bd385828601614972565b9150509250929050565b60008060008060608587031215614bf357600080fd5b8435614bfe8161485a565b935060208501356001604060020a03811115614c1957600080fd5b614c2587828801614819565b9598909750949560400135949350505050565b600080600080600060a08688031215614c5057600080fd5b8535614c5b8161485a565b94506020860135614c6b8161485a565b9350604086013592506060860135614c828161485a565b949793965091946080013592915050565b600160a060020a0391909116815260200190565b600080600060408486031215614cbc57600080fd5b8335614cc78161485a565b925060208401356001604060020a03811115614ce257600080fd5b614cee86828701614819565b9497909650939450505050565b600060208284031215614d0d57600080fd5b5035919050565b60008060008060808587031215614d2a57600080fd5b8435614d358161485a565b93506020850135614d458161485a565b92506040850135614d558161485a565b9396929550929360600135925050565b60008060408385031215614d7857600080fd5b82356001604060020a03811115614d8e57600080fd5b614d9a85828601614972565b95602094909401359450505050565b60008060008060608587031215614dbf57600080fd5b8435614dca8161485a565b93506020850135925060408501356001604060020a03811115614dec57600080fd5b614df887828801614819565b95989497509550505050565b600080600080600060808688031215614e1c57600080fd5b8535614e278161485a565b945060208601356001604060020a03811115614e4257600080fd5b614e4e88828901614819565b9699909850959660408101359660609091013595509350505050565b600080600060608486031215614e7f57600080fd5b8335614e8a8161485a565b92506020840135915060408401356001604060020a03811115614eac57600080fd5b614eb886828701614972565b9150509250925092565b600080600080600060808688031215614eda57600080fd5b8535614ee58161485a565b945060208601356001604060020a03811115614f0057600080fd5b614f0c88828901614819565b9095509350506040860135614f208161485a565b949793965091946060013592915050565b60008060408385031215614f4457600080fd5b8235614f4f8161485a565b946020939093013593505050565b6020808252825182820181905260009190848201906040850190845b81811015614f9557835183529284019291840191600101614f79565b50909695505050505050565b600160a060020a03851681528315156020820152608060408201819052600090614fcd90830185614acd565b905082606083015295945050505050565b600080600080600080600080610100898b031215614ffb57600080fd5b88356150068161485a565b975060208901356150168161485a565b965060408901356150268161485a565b955060608901356150368161485a565b945060808901356150468161485a565b935060a08901356150568161485a565b925060c08901356150668161485a565b915060e08901356150768161485a565b809150509295985092959890939650565b600080600080600080600080600060c08a8c0312156150a557600080fd5b89356150b08161485a565b985060208a01356150c08161485a565b975060408a01356001604060020a03808211156150dc57600080fd5b6150e88d838e01614819565b909950975060608c013591508082111561510157600080fd5b61510d8d838e01614819565b909750955060808c0135945060a08c013591508082111561512d57600080fd5b5061513a8c828d01614819565b915080935050809150509295985092959850929598565b600081518084526020808501945080840160005b838110156151b45781518051885283810151600160a060020a03168489015260408082015190890152606080820151908901526080908101519088015260a09096019590820190600101615165565b509495945050505050565b6040815260006151d26040830185615151565b82810360208401526151e48185615151565b95945050505050565b60208082526024908201527f496e766573746f724d616e6167657220636f6e7472616374206973204e4f5420604082015260e060020a637365742102606082015260800190565b81835281816020850137506000828201602090810191909152601f909101601f19169091010190565b604081526000615271604083018587615234565b9050600160a060020a0383166020830152949350505050565b6000825161529c818460208701614aa9565b9190910192915050565b60e060020a634e487b710260009081526032600452602490fd5b60e060020a634e487b710260009081526011600452602490fd5b8082018082111561081b5761081b6152c0565b6000600182016152ff576152ff6152c0565b5060010190565b6000826153275760e060020a634e487b710260009081526012600452602490fd5b500490565b8181038181111561081b5761081b6152c0565b8183823760009101908152919050565b60208082526025908201527f53746f636b436572746966696361746520636f6e7472616374206973204e4f54604082015260d860020a64207365742102606082015260800190565b600160a060020a039384168152919092166020820152604081019190915260600190565b80518015158114610b6f57600080fd5b6000602082840312156153dd57600080fd5b612d63826153bb565b60208082526021908201527f53656375726974794d65746120636f6e7472616374206973204e4f5420736574604082015260f860020a602102606082015260800190565b600082601f83011261543b57600080fd5b81516154496149918261494b565b81815284602083860101111561545e57600080fd5b610abf826020830160208701614aa9565b60006020828403121561548157600080fd5b81516001604060020a0381111561549757600080fd5b610abf8482850161542a565b6020808252601890820152604260020a771b9bdd0818481dda1a5d195b1a5cdd1959081dd85b1b195d02604082015260600190565b80820182811260008312801582168215821617156154f8576154f86152c0565b505092915050565b6020808252601390820152606a60020a721bd999995c9a5b99c81a5cc81b9bdd081cd95d02604082015260600190565b60208082526024908201527f6e6f7420617574686f72697a656420617320612077686974656c697374656420604082015260e160020a633ab9b2b902606082015260800190565b6020808252601a908201527f74726164696e6720686173206265656e2073757370656e646564000000000000604082015260600190565b6020808252601b908201527f496e76616c696420616d6f756e7420616e642f6f722070726963650000000000604082015260600190565b6000602082840312156155f757600080fd5b5051919050565b600160a060020a03851681526060602082018190526000906156239083018587615234565b905082604083015295945050505050565b60cd60020a660212aaca2a91d1028152600160a060020a038516606060020a02600782015260b560020a690161020a6a7aaa72a1d102601b8201528351600090615685816025850160208901614aa9565b60bd60020a6801610282924a1a29d10260259184019182015284516156b181602e840160208901614aa9565b60ad60020a6a0161027a92222a924a21d102602e929091019182015283516156e0816039840160208801614aa9565b016039019695505050505050565b608081526000615702608083018688615234565b82810360208401526157148186614acd565b90508281038060408501526009825260b960020a68213abc9027b93232b90260208301526040810160608501525061574f6040820185614acd565b979650505050505050565b600160a060020a03929092168252602082015260400190565b60cd60020a660212aaca2a91d1028152600160a060020a038416606060020a02600782015260ad60020a6a0161027a92222a924a21d102601b82015282516000906157c5816026850160208801614aa9565b60b560020a69016102922a32aa7221d10260269184019182015283516157f2816030840160208801614aa9565b0160300195945050505050565b608081526000615813608083018688615234565b82810360208401526158258186614acd565b905082810380604085015260108252608160020a6f21b0b731b2b610213abc9027b93232b90260208301526040810160608501525061574f6040820185614acd565b600160a060020a03841681526040602082018190526000906151e49083018486615234565b6020808252600e90820152609260020a6d139bdd08185d5d1a1bdc9a5e995902604082015260600190565b600160a060020a0385168152836020820152606060408201526000612be0606083018486615234565b60c560020a67029a2a62622a91d1028152600160a060020a038516606060020a02600882015260b560020a690161020a6a7aaa72a1d102601c8201528351600090615932816026850160208901614aa9565b60bd60020a6801610282924a1a29d102602691840191820152845161595e81602f840160208901614aa9565b60ad60020a6a0161027a92222a924a21d102602f9290910191820152835161598d81603a840160208801614aa9565b01603a019695505050505050565b6080815260006159af608083018688615234565b82810360208401526159c18186614acd565b9050828103806040850152600a825260b160020a6929b2b6361027b93232b90260208301526040810160608501525061574f6040820185614acd565b600160a060020a03841681528260208201526060604082015260006151e46060830184614acd565b6000600160a060020a03808816835260806020840152615a49608084018789615234565b9416604083015250606001529392505050565b60006020808385031215615a6f57600080fd5b82516001604060020a0380821115615a8657600080fd5b818501915085601f830112615a9a57600080fd5b815181811115615aac57615aac614901565b8381029150615abc84830161491b565b8181529183018401918481019088841115615ad657600080fd5b938501935b83851015615af457845182529385019390850190615adb565b98975050505050505050565b60008060008060808587031215615b1657600080fd5b8451615b218161485a565b9350615b2f602086016153bb565b60408601519093506001604060020a03811115615b4b57600080fd5b615b578782880161542a565b606096909601519497939650505050565b60c560020a67029a2a62622a91d1028152600160a060020a038316606060020a02600882015260ad60020a6a0161027a92222a924a21d102601c8201528151600090615bbb816027850160208701614aa9565b919091016027019392505050565b608081526000615bdd608083018688615234565b8281036020840152615bef8186614acd565b905082810380604085015260118252607960020a7021b0b731b2b61029b2b6361027b93232b90260208301526040810160608501525061574f6040820185614acd565b60208082526021908201527f546f6b656e4d616e6167657220636f6e7472616374206973204e4f5420736574604082015260f860020a602102606082015260800190565b602081526000610abf602083018486615234565b600060208284031215615c9c57600080fd5b8151612d638161485a565b600160a060020a038a811682528916602082015260c060408201819052600090615cd4908301898b615234565b8281036060840152615ce781888a615234565b905085608084015282810360a0840152615d02818587615234565b9c9b505050505050505050505050565b808202811582820484141761081b5761081b6152c0565b60c560020a67029a2a62622a91d1028152606060020a600160a060020a038781168202600884015260bd60020a6801610212aaca2a91d102601c840152861602602582015260b560020a690161020a6a7aaa72a1d10260398201528351600090615d9a816043850160208901614aa9565b60bd60020a6801610282924a1a29d1026043918401918201528451615dc681604c840160208901614aa9565b60cd60020a66016102322a29d102604c92909101918201528351615df1816053840160208801614aa9565b01605301979650505050505050565b608081526000615e14608083018688615234565b8281036020840152615e268186614acd565b9050828103806040850152600c825260a060020a6b4d61746368204f72646572730260208301526040810160608501525061574f6040820185614acd56febc5da491cf47d3de78662279b6d0c7c01cb7b3a68c6e563c745ede9fea6d6fde3dafcb307ea8e4d20c5c2de129cb820a255e2d97844b4823bcf224bef7d9a5e1a2646970667358221220d3350ee475536f0a49d14c8fb3d2241819e90ad45ccc09adf205585e21be5a3364736f6c63430008120033",
  "immutableReferences": {},
  "source": "// SPDX-License-Identifier: BSL-1.1\npragma solidity >=0.4.22 <0.9.0;\n\nimport \"../../interfaces/IConsolidatedAuditTrail.sol\";\nimport \"../../interfaces/IBestBooks.sol\";\nimport \"../../interfaces/IOffering.sol\";\nimport \"../../interfaces/IInvestorManager.sol\";\nimport \"../../interfaces/ITokenManager.sol\";\nimport \"../../interfaces/IStockCertificate.sol\";\nimport \"../../interfaces/IBondCertificate.sol\";\nimport \"../../interfaces/ISecurityMeta.sol\";\nimport \"../../interfaces/IExchangeFee.sol\";\nimport \"./AccessControl.sol\";\nimport \"./ConsolidatedAuditTrail.sol\";\nimport \"./BestBooks.sol\";\nimport \"./OrderBook.sol\";\nimport \"./EncryptionUtils.sol\";\nimport \"./AccessControl.sol\";\n\ncontract ExemptLiquidityMarketExchange is AccessControl, EncryptionUtils {\n    struct Order {\n        uint256 orderId;\n        address wallet;\n        uint256 quantity;\n        uint256 price;\n        uint256 paid;\n    }\n\n    struct Trade {\n        address buyer;\n        address seller;\n        address token;\n        uint amount;\n        bool isCompleted;\n    }\n\n    IConsolidatedAuditTrail private catContract;\n    IBestBooks private bestbooksContract;\n    IInvestorManager private investorManagerContract;\n    ITokenManager private tokenManagerContract;\n    IStockCertificate private stockCertificateContract;\n    IBondCertificate private bondCertificateContract;\n    ISecurityMeta private securityMetaContract;\n    IExchangeFee private exchangeFeeContract;\n\n\n    mapping(string => IOffering) offering;\n\n    mapping(string => Order[]) public buyOrders;\n    mapping(string => Order[]) public sellOrders;\n\n    mapping(string => uint256) public nextOrderId;\n\n    mapping(string => uint256) public highestBid;\n    mapping(string => uint256) public lowestAsk;\n\n    mapping(address => mapping(address => int256)) private holdings; // holdings[investor][token] = number of shares\n\n    address public feeRecipient;\n    uint256 public FeePercentage = 1; // Fee percentage\n\n    uint256 threshold = 10; // Adjust this threshold based on your requirements\n    uint256 priceThreshold = 5; // Adjust this threshold based on your requirements\n\n    event FeeRecipientUpdated(address indexed newRecipient);\n    event FeePercentageUpdated(uint256 newPercentage);\n    // Event emitted when a new buy order is placed\n    event BuyOrderPlaced(string indexed currencyPair,address indexed trader,uint256 amount,uint256 price);\n    // Event emitted when a new sell order is placed\n    event SellOrderPlaced(string indexed currencyPair,address indexed trader,uint256 amount,uint256 price);\n    // Event emitted when a trade is executed\n    event TradeExecuted(string indexed currencyPair,address indexed buyer,address indexed seller,uint256 amount,uint256 price);\n    event ValueTransferred(address sender, uint256 amount);\n    event ManipulativeBehaviorDetected(address sender,string symbol,uint256 orderId);\n    event MarketAbuseDetetcted(address sender,string symbol,uint256 orderId);\n\n    modifier isInvestorManagerContract() {\n        require(address(investorManagerContract) != address(0x0),\"InvestorManager contract is NOT set!\");\n        _;\n    }\n\n    modifier isTokenManagerContract() {\n        require(address(tokenManagerContract) != address(0x0),\"TokenManager contract is NOT set!\");\n        _;\n    }\n\n    modifier isStockCertificateContract() {\n        require(address(stockCertificateContract) != address(0x0),\"StockCertificate contract is NOT set!\");\n        _;\n    }\n\n    modifier isBondCertificateContract() {\n        require(address(bondCertificateContract) != address(0x0),\"BondCeertificate contract is NOT set!\");\n        _;\n    }\n\n    modifier isSecurityMetaContract() {\n        require(address(securityMetaContract) != address(0x0),\"SecurityMeta contract is NOT set!\");\n        _;\n    }\n\n    modifier isIssuer() {\n        _;\n    }\n\n    modifier isWhitelisted(address investor) {\n        require(investorManagerContract.isWhitelisted(investor),\"not a whitelisted wallet\");\n        _;\n    }\n\n    function setContracts(address catAddress,\n                          address bestbooksAddress,\n                          address investorManagerAddress,\n                          address tokenManagerAddress,\n                          address stockCertificateAddress,\n                          address bondCertificateAddress,\n                          address securityMetaAddress,\n                          address exchangeFeeAddress) \n    external isOwner {\n        catContract = IConsolidatedAuditTrail(catAddress);\n        bestbooksContract = IBestBooks(bestbooksAddress);\n        investorManagerContract = IInvestorManager(investorManagerAddress);\n        tokenManagerContract = ITokenManager(tokenManagerAddress);\n        stockCertificateContract = IStockCertificate(stockCertificateAddress);\n        bondCertificateContract = IBondCertificate(bondCertificateAddress);\n        securityMetaContract = ISecurityMeta(securityMetaAddress);\n        exchangeFeeContract = IExchangeFee(exchangeFeeAddress);\n    }\n\n    function addShares(address investor,address token,int256 amount) external isWhitelisted(investor) {\n        holdings[investor][token] += amount;\n    }\n\n    function getShares(address investor,address token) external view returns (int256) {\n        return holdings[investor][token];\n    }\n\n    function transferShares(address from,address to,address token,int256 amount) external isWhitelisted(to) {\n        require(holdings[from][token] >= amount,\"insufficient token balance\");\n        SafeMath.safeSub(holdings[from][token],amount);\n        SafeMath.safeAdd(holdings[to][token],amount);\n        emit ValueTransferred(from, uint256(amount));\n    }\n\n\n    function getContracts() external view isOwner returns(address,address,address,address,address,address,address,address){\n        return (address(catContract),\n                address(bestbooksContract),\n                address(investorManagerContract),\n                address(tokenManagerContract),\n                address(stockCertificateContract),\n                address(bondCertificateContract),\n                address(securityMetaContract),\n                address(exchangeFeeContract));\n    }\n\n    function setThreshold(uint256 value) external isOwner {\n        threshold = value;\n    }\n\n    function setPriceThreshold(uint256 value) external isOwner {\n        priceThreshold = value;\n    }\n\n    function setFeeRecipient(address wallet) external isOwner {\n        feeRecipient = address(wallet);\n        emit FeeRecipientUpdated(wallet);       \n    }\n\n    function setFee(uint256 fee) external isOwner {\n        require(fee <= 100, \"Fee percentage must be 100 or less\");\n        FeePercentage = fee; // 1=1% deposit fee\n        emit FeePercentageUpdated(fee);\n    }\n\n    function setOfferingContractAddress(string calldata symbol,address tokenAddress) external isOwner {\n        offering[symbol] = IOffering(tokenAddress);\n    }\n\n    function getOrders(string calldata symbol) external view returns(Order[] memory,Order[] memory) {\n        require(address(offering[symbol]) != address(0x0),\"offering is not set\");\n        return(buyOrders[symbol],sellOrders[symbol]);\n    }\n\n    // Function to get quote\n    function quote(string calldata symbol)\n        external\n        view\n        returns (uint256, uint256)\n    {\n        return (highestBid[symbol],lowestAsk[symbol]);\n    }\n\n    // Function to place a buy order\n    function buy(\n        address wallet,\n        string calldata symbol,\n        uint256 quantity,\n        uint256 price,\n        uint256 amount\n    ) external isInvestorManagerContract {\n        require(address(offering[symbol]) != address(0x0),\"offering is not set\");\n        require(investorManagerContract.isWhitelisted(wallet),\"not authorized as a whitelisted user\");\n        require(offering[symbol].getTradingStatus(),\"trading has been suspended\");\n        require(quantity > 0 && price > 0, \"Invalid amount and/or price\");\n        require(amount > SafeMath.safeMul(quantity, price),\"insufficient funds to place buy order\");\n        require(offering[symbol].getOutstandingShares() == offering[symbol].getTotalSupply(),\"trading disabled until funding round has been completed\");\n\n        // Storing the buy order details\n        Order memory order = Order(nextOrderId[symbol], wallet, quantity, price, amount);\n        buyOrders[symbol][nextOrderId[symbol]] = order;\n\n\n        if (detectManipulativeBehaviorDetected(symbol, nextOrderId[symbol])) {\n            emit ManipulativeBehaviorDetected(wallet,symbol,nextOrderId[symbol]);\n            offering[symbol].changeTradingStatus(false,\"Manipulative Behavior Detected\");\n        } else {\n            if (detectMarketAbuse(symbol)) {\n                emit MarketAbuseDetetcted(wallet, symbol, nextOrderId[symbol]);\n                offering[symbol].changeTradingStatus(false,\"Market Abuse Detected\");\n            } else {\n                nextOrderId[symbol]++;\n\n                updateQuoting(symbol);\n                matchOrders(symbol);\n                emit BuyOrderPlaced(symbol, wallet, quantity, price);\n\n                string memory eventData = string(abi.encodePacked(\"BUYER: \", wallet, \", AMOUNT: \", catContract.uintToString(quantity),\", PRICE: \", catContract.uintToString(price), \", ORDERID: \", catContract.uintToString(nextOrderId[symbol])));\n                catContract.addAuditEntry(symbol,catContract.timestampToString(),\"Buy Order\",eventData);\n            }\n        }\n    }\n\n    // Function to cancel and transfer contract balance to the caller, and remove the buy order\n    function cancelBuy(address wallet, string calldata symbol,uint256 orderId) external isInvestorManagerContract {\n        require(address(offering[symbol]) != address(0x0),\"offering is not set\");\n        require(investorManagerContract.isWhitelisted(wallet),\"not authorized as a whitelisted user\");\n        uint256 contractBalance = address(this).balance;\n        require(contractBalance > 0, \"Contract has no balance.\");\n\n        Order storage order = buyOrders[symbol][orderId];\n        require(order.wallet == wallet, \"Not the owner of this order.\");\n\n        uint256 refund = order.paid;\n\n        delete buyOrders[symbol][orderId];\n\n        //payable(msg.sender).transfer(refund);\n        emit ValueTransferred(wallet, refund);\n\n        string memory eventData = string(abi.encodePacked(\"BUYER: \", wallet, \", ORDERID: \", catContract.uintToString(orderId),\", REFUND: \", catContract.uintToString(refund)));\n        catContract.addAuditEntry(symbol,catContract.timestampToString(),\"Cancel Buy Order\",eventData);\n    }\n\n    // Function to place a sell order\n    function sell(\n        address wallet,\n        string calldata symbol,\n        uint256 quantity,\n        uint256 price\n    ) external isInvestorManagerContract {\n        require(address(offering[symbol]) != address(0x0),\"offering is not set\");\n        require(investorManagerContract.isWhitelisted(wallet),\"not authorized as a whitelisted user\");\n        require(offering[symbol].getTradingStatus(),\"trading has been suspended\");\n        require(quantity > 0, \"Invalid amount\");\n        require(price > 0, \"Invalid price\");\n        require(quantity > 0 && price > 0, \"Invalid amount and/or price\");\n        require(offering[symbol].getOutstandingShares() == offering[symbol].getTotalSupply(),\"trading disabled until initial offering has been completed\");\n        require(offering[symbol].getBalanceFrom(wallet) >= quantity,\"insufficient balance in sellers account\");\n\n        Order memory order = Order(nextOrderId[symbol], wallet, quantity, price, 0);\n        sellOrders[symbol][nextOrderId[symbol]] = order;\n\n        string memory eventData = string(abi.encodePacked(\"SELLER: \", wallet, \", AMOUNT: \", catContract.uintToString(quantity),\", PRICE: \", catContract.uintToString(price), \", ORDERID: \", catContract.uintToString(nextOrderId[symbol])));\n        catContract.addAuditEntry(symbol,catContract.timestampToString(),\"Sell Order\",eventData);\n\n\n        if (detectManipulativeBehaviorDetected(symbol, nextOrderId[symbol])) {\n            emit ManipulativeBehaviorDetected(wallet,symbol,nextOrderId[symbol]);\n            offering[symbol].changeTradingStatus(false,\"Manipulative Behavior Detected\");\n        } else {\n            nextOrderId[symbol]++;\n            updateQuoting(symbol);\n            matchOrders(symbol);\n            emit SellOrderPlaced(symbol, wallet, quantity, price);\n        }\n    }\n\n    // Cancel pending sell order\n    function cancelSell(address wallet,string calldata symbol,uint256 orderId) external isInvestorManagerContract {\n        require(address(offering[symbol]) != address(0x0),\"offering is not set\");\n        require(investorManagerContract.isWhitelisted(wallet),\"not authorized as a whitelisted user\");\n        Order storage order = sellOrders[symbol][orderId];\n        require(order.wallet == wallet, \"not the owner of this order.\");\n        delete sellOrders[symbol][orderId];\n\n        string memory eventData = string(abi.encodePacked(\"SELLER: \", wallet, \", ORDERID: \", catContract.uintToString(orderId)));\n        catContract.addAuditEntry(symbol,catContract.timestampToString(),\"Cancel Sell Order\",eventData);\n    }\n\n    function detectMarketAbuse(string memory symbol) public view  returns (bool) {\n        // Calculate average bid and ask prices\n        uint256 sumBids;\n        for (uint256 i = 0; i < buyOrders[symbol].length; i++) {\n            sumBids += buyOrders[symbol][i].price;\n        }\n        uint256 averageBid = sumBids / buyOrders[symbol].length;\n\n        uint256 sumAsks;\n        for (uint256 i = 0; i < sellOrders[symbol].length; i++) {\n            sumAsks += sellOrders[symbol][i].price;\n        }\n        uint256 averageAsk = sumAsks / sellOrders[symbol].length;\n\n        // Calculate bid-ask spread\n        uint256 spread = averageAsk - averageBid;\n\n        // Check for potential market abuse\n        if (spread >= threshold) {\n            return true;\n        }\n        return false;\n    }\n\n    function detectManipulativeBehaviorDetected(string memory symbol,uint256 orderId) public view  returns (bool) {\n        // Check if the order price deviates significantly from the current market price\n        //uint256 priceDeviation = order.price > orderBook.currentPrice ? order.price - orderBook.currentPrice : orderBook.currentPrice - order.price;\n        uint256 bidPriceDeviation = buyOrders[symbol][orderId].price > highestBid[symbol] ? buyOrders[symbol][orderId].price - highestBid[symbol] : highestBid[symbol] - buyOrders[symbol][orderId].price;\n        uint256 askPriceDeviation = sellOrders[symbol][orderId].price < lowestAsk[symbol] ? lowestAsk[symbol] - sellOrders[symbol][orderId].price : sellOrders[symbol][orderId].price - lowestAsk[symbol];\n\n        // Check for potential manipulative behavior\n        if (bidPriceDeviation >= priceThreshold || askPriceDeviation > priceThreshold) {\n            return true;\n        }\n        return false;\n    }\n\n    // INVESTOR MANAGER\n    function addInvestor(string calldata symbol,address wallet) external isInvestorManagerContract {\n        investorManagerContract.addInvestor(symbol,wallet);\n    }\n    function addInvestor(address investor, uint investor_type,string memory jurisdiction) external isInvestorManagerContract {\n        investorManagerContract.addInvestor(investor,investor_type,jurisdiction);\n    }\n    function isInvestor(string calldata symbol,address wallet) external view isInvestorManagerContract returns(bool) {\n        return investorManagerContract.findInvestor(symbol, wallet);\n    }\n    function getInvestor(address wallet) external view isInvestorManagerContract returns (address,bool,string memory,uint) {\n        return investorManagerContract.getInvestor(wallet);\n    }\n\n    // TOKEN MANAGER\n    function assignTokenManager(address tokenManagerAddress) external {\n        tokenManagerContract = ITokenManager(tokenManagerAddress);\n    }\n    function assignToken(address tokenAddress, address issuer, string calldata name, string calldata symbol, uint256 totalSupply, string calldata regulation) external isTokenManagerContract {\n        tokenManagerContract.assignToken(tokenAddress,issuer,name,symbol,totalSupply,regulation); \n    }\n    function getToken(string calldata symbol)  external view isTokenManagerContract returns (address) {\n        return tokenManagerContract.getToken(symbol);\n    }\n\n    // STOCK CERTIFICATES\n    function issueStockCertificate(address tokenAddress, string calldata symbol, address investor, uint256 initialBalance) external isStockCertificateContract returns(uint256) {\n        return stockCertificateContract.issueCertificate(tokenAddress,symbol,investor,initialBalance);\n    }\n    function transferStockCertificate(address from, address tokenAddress, uint256 certificateId, address to, uint256 amount) external isStockCertificateContract {\n        stockCertificateContract.transferCertificate(from,tokenAddress,certificateId,to,amount);\n    }\n    function getStockCertificateBalance(address tokenAddress, uint256 certificateId) external view isStockCertificateContract returns (uint256) {\n        return stockCertificateContract.getCertificateBalance(tokenAddress,certificateId);\n    }\n    function getStockInvestorCertificates(address investor) external view isStockCertificateContract returns (uint256[] memory) {\n        return stockCertificateContract.getInvestorCertificates(investor);\n    }\n    function isStockCertificateValid(address tokenAddress,address wallet,uint256 certificateId) external view isStockCertificateContract returns (bool) {\n        return stockCertificateContract.isCertificateValid(tokenAddress,wallet,certificateId);\n    }\n\n    // BOND CERTIFICATES\n\n    // SECURITY META\n    function assignCUSIPtoToken(address tokenAddress,string calldata cusipNumber) external isSecurityMetaContract {\n        securityMetaContract.assignCUSIPtoToken(tokenAddress,cusipNumber);\n    }\n    function getCUSIP(address tokenAddress) external view isSecurityMetaContract returns (string memory) {\n        return securityMetaContract.getCUSIP(tokenAddress);\n    }\n    function assignISINtoToken(address tokenAddress,string calldata isinNumber) external isSecurityMetaContract {\n        securityMetaContract.assignISINtoToken(tokenAddress,isinNumber);\n    }\n    function getISIN(address tokenAddress) external view isSecurityMetaContract returns (string memory) {\n        return securityMetaContract.getISIN(tokenAddress);\n    }\n    function assignFileNumber(address tokenAddress,string calldata secFileNumber) external isSecurityMetaContract {\n        securityMetaContract.assignFileNumber(tokenAddress,secFileNumber);\n    }\n    function getFileNumber(address tokenAddress) external view isSecurityMetaContract returns (string memory) {\n        return securityMetaContract.getFileNumber(tokenAddress);\n    }\n    function assignCertificateNumber(address tokenAddress,uint256 index,string calldata certificateNumber) external isSecurityMetaContract {\n        securityMetaContract.assignCertificateNumber(tokenAddress,index,certificateNumber);\n    }\n    function getCertificateNumber(address tokenAddress,uint256 index) external view isSecurityMetaContract returns (string memory) {\n        return securityMetaContract.getCertificateNumber(tokenAddress,index);\n    }\n\n\n    // INTERNAL FUNCTIONS\n\n    // Function to update the highest bid and lowest ask prices\n    function updateQuoting(string calldata symbol) internal {    \n        uint256 i = 0;\n        uint256 j = 0;\n\n        highestBid[symbol] = buyOrders[symbol][0].price;\n        for (i=1; i<buyOrders[symbol].length; i++) {\n            if (buyOrders[symbol][i].price > highestBid[symbol]) {\n                highestBid[symbol] = buyOrders[symbol][i].price;\n            }\n        }\n\n        lowestAsk[symbol] = sellOrders[symbol][0].price;\n        for(j=1;j<sellOrders[symbol].length;j++) {\n            if (sellOrders[symbol][j].price < lowestAsk[symbol]) {\n                lowestAsk[symbol] = sellOrders[symbol][j].price;\n            }\n        }\n    }\n\n    // Function to match buy and sell orders\n    function matchOrders(string calldata symbol) internal {\n        if (buyOrders[symbol].length == 0 || sellOrders[symbol].length == 0) {\n            return;\n        }\n\n        uint256 i = 0;\n        uint256 j = 0;\n\n        while (i < buyOrders[symbol].length && j < sellOrders[symbol].length) {\n            Order memory buyOrder = buyOrders[symbol][i];\n            Order memory sellOrder = sellOrders[symbol][j];\n\n            if (buyOrder.price >= sellOrder.price) {\n                uint256 tradeAmount = (buyOrder.quantity <= sellOrder.quantity)\n                    ? buyOrder.quantity\n                    : sellOrder.quantity;\n                uint256 tradePrice = sellOrder.price;\n\n                emit TradeExecuted(symbol,buyOrder.wallet,sellOrder.wallet,tradeAmount,tradePrice);\n\n                // transfer the tokens on the contract\n                offering[symbol].transferFrom(sellOrder.wallet,buyOrder.wallet,tradeAmount);\n\n\n                // Update order amounts and remove filled orders\n                if (buyOrder.quantity <= sellOrder.quantity) {\n                    sellOrders[symbol][j].quantity -= buyOrder.quantity;\n                    delete buyOrders[symbol][i];\n                    i++;\n                } else {\n                    buyOrders[symbol][i].quantity -= sellOrder.quantity;\n                    delete sellOrders[symbol][j];\n                    j++;\n                }\n                // Calculate the total fee amount\n                int256 Fee = int256((tradePrice * FeePercentage) / 100);\n                // exchnge fee amount recorded\n                if (Fee > 0) {\n                    exchangeFeeContract.addFee(address(offering[symbol]), Fee);\n                }\n\n                // save CAT\n                string memory eventData = string(abi.encodePacked(\"SELLER: \", sellOrder.wallet, \", BUYER: \", buyOrder.wallet, \", AMOUNT: \", catContract.uintToString(tradeAmount),\", PRICE: \", catContract.uintToString(tradePrice),\", FEE: \",catContract.uintToString(uint(Fee))));\n                catContract.addAuditEntry(symbol,catContract.timestampToString(),\"Match Orders\",eventData);\n            } else {\n                break;\n            }\n        }\n    }\n\n}",
  "sourcePath": "/Volumes/My Book/projects/pingleware-contracts/contracts/finance/elmx/ExemptLiquidityMarketExchange.sol",
  "compiler": {
    "name": "solc",
    "version": "0.8.18+commit.87f61d96.Emscripten.clang"
  },
  "schemaVersion": "3.4.12",
  "updatedAt": "2023-10-24T12:33:22.201Z",
  "networkType": "ethereum",
  "devdoc": {
    "kind": "dev",
    "methods": {},
    "version": 1
  },
  "userdoc": {
    "kind": "user",
    "methods": {},
    "version": 1
  }
}