{
  "contractName": "ExemptEquityOfferingAT2",
  "abi": [
    {
      "inputs": [],
      "stateMutability": "nonpayable",
      "type": "constructor"
    },
    {
      "anonymous": false,
      "inputs": [
        {
          "indexed": false,
          "internalType": "uint256",
          "name": "value",
          "type": "uint256"
        }
      ],
      "name": "Bought",
      "type": "event"
    },
    {
      "anonymous": false,
      "inputs": [
        {
          "indexed": true,
          "internalType": "address",
          "name": "from",
          "type": "address"
        },
        {
          "indexed": false,
          "internalType": "string",
          "name": "status",
          "type": "string"
        },
        {
          "indexed": false,
          "internalType": "uint256",
          "name": "value",
          "type": "uint256"
        }
      ],
      "name": "ExemptOffering",
      "type": "event"
    },
    {
      "anonymous": false,
      "inputs": [
        {
          "indexed": false,
          "internalType": "address",
          "name": "addr",
          "type": "address"
        },
        {
          "indexed": false,
          "internalType": "uint256",
          "name": "amount",
          "type": "uint256"
        }
      ],
      "name": "Minted",
      "type": "event"
    },
    {
      "anonymous": false,
      "inputs": [
        {
          "indexed": false,
          "internalType": "address",
          "name": "addr",
          "type": "address"
        }
      ],
      "name": "MinterAdded",
      "type": "event"
    },
    {
      "anonymous": false,
      "inputs": [
        {
          "indexed": false,
          "internalType": "uint256",
          "name": "value",
          "type": "uint256"
        }
      ],
      "name": "Sold",
      "type": "event"
    },
    {
      "anonymous": false,
      "inputs": [
        {
          "indexed": false,
          "internalType": "address",
          "name": "addr",
          "type": "address"
        },
        {
          "indexed": false,
          "internalType": "uint256",
          "name": "amount",
          "type": "uint256"
        }
      ],
      "name": "Transfer",
      "type": "event"
    },
    {
      "anonymous": false,
      "inputs": [
        {
          "indexed": false,
          "internalType": "address",
          "name": "addr",
          "type": "address"
        }
      ],
      "name": "TransferAgentAdded",
      "type": "event"
    },
    {
      "anonymous": false,
      "inputs": [
        {
          "indexed": false,
          "internalType": "address",
          "name": "addr",
          "type": "address"
        }
      ],
      "name": "TransferAgentRemoved",
      "type": "event"
    },
    {
      "anonymous": false,
      "inputs": [
        {
          "indexed": false,
          "internalType": "address",
          "name": "from",
          "type": "address"
        },
        {
          "indexed": false,
          "internalType": "address",
          "name": "to",
          "type": "address"
        },
        {
          "indexed": false,
          "internalType": "uint256",
          "name": "value",
          "type": "uint256"
        }
      ],
      "name": "TransferFrom",
      "type": "event"
    },
    {
      "anonymous": false,
      "inputs": [
        {
          "indexed": false,
          "internalType": "address",
          "name": "addr",
          "type": "address"
        },
        {
          "indexed": false,
          "internalType": "bytes32",
          "name": "hash",
          "type": "bytes32"
        },
        {
          "indexed": false,
          "internalType": "address",
          "name": "sender",
          "type": "address"
        }
      ],
      "name": "VerifiedAddressAdded",
      "type": "event"
    },
    {
      "anonymous": false,
      "inputs": [
        {
          "indexed": false,
          "internalType": "address",
          "name": "addr",
          "type": "address"
        },
        {
          "indexed": false,
          "internalType": "address",
          "name": "sender",
          "type": "address"
        }
      ],
      "name": "VerifiedAddressRemoved",
      "type": "event"
    },
    {
      "anonymous": false,
      "inputs": [
        {
          "indexed": false,
          "internalType": "address",
          "name": "addr1",
          "type": "address"
        },
        {
          "indexed": false,
          "internalType": "address",
          "name": "addr2",
          "type": "address"
        },
        {
          "indexed": false,
          "internalType": "address",
          "name": "addr3",
          "type": "address"
        }
      ],
      "name": "VerifiedAddressSuperseded",
      "type": "event"
    },
    {
      "anonymous": false,
      "inputs": [
        {
          "indexed": false,
          "internalType": "address",
          "name": "addr",
          "type": "address"
        },
        {
          "indexed": false,
          "internalType": "bytes32",
          "name": "oldhash",
          "type": "bytes32"
        },
        {
          "indexed": false,
          "internalType": "bytes32",
          "name": "hash",
          "type": "bytes32"
        },
        {
          "indexed": false,
          "internalType": "address",
          "name": "sender",
          "type": "address"
        }
      ],
      "name": "VerifiedAddressUpdated",
      "type": "event"
    },
    {
      "inputs": [
        {
          "internalType": "address",
          "name": "addr",
          "type": "address"
        }
      ],
      "name": "addMinter",
      "outputs": [],
      "stateMutability": "nonpayable",
      "type": "function"
    },
    {
      "inputs": [
        {
          "internalType": "address",
          "name": "addr",
          "type": "address"
        }
      ],
      "name": "addTransferAgent",
      "outputs": [],
      "stateMutability": "nonpayable",
      "type": "function"
    },
    {
      "inputs": [
        {
          "internalType": "address",
          "name": "addr",
          "type": "address"
        },
        {
          "internalType": "bytes32",
          "name": "hash",
          "type": "bytes32"
        }
      ],
      "name": "addVerified",
      "outputs": [],
      "stateMutability": "nonpayable",
      "type": "function"
    },
    {
      "inputs": [
        {
          "internalType": "address",
          "name": "_owner",
          "type": "address"
        },
        {
          "internalType": "address",
          "name": "spender",
          "type": "address"
        }
      ],
      "name": "allowance",
      "outputs": [
        {
          "internalType": "uint256",
          "name": "",
          "type": "uint256"
        }
      ],
      "stateMutability": "view",
      "type": "function"
    },
    {
      "inputs": [
        {
          "internalType": "address",
          "name": "addr",
          "type": "address"
        }
      ],
      "name": "balanceOf",
      "outputs": [
        {
          "internalType": "uint256",
          "name": "",
          "type": "uint256"
        }
      ],
      "stateMutability": "view",
      "type": "function"
    },
    {
      "inputs": [
        {
          "internalType": "address",
          "name": "",
          "type": "address"
        }
      ],
      "name": "balances",
      "outputs": [
        {
          "internalType": "uint256",
          "name": "",
          "type": "uint256"
        }
      ],
      "stateMutability": "view",
      "type": "function"
    },
    {
      "inputs": [],
      "name": "buy",
      "outputs": [],
      "stateMutability": "payable",
      "type": "function"
    },
    {
      "inputs": [
        {
          "internalType": "address",
          "name": "original",
          "type": "address"
        },
        {
          "internalType": "address",
          "name": "replacement",
          "type": "address"
        }
      ],
      "name": "cancelAndReissue",
      "outputs": [],
      "stateMutability": "nonpayable",
      "type": "function"
    },
    {
      "inputs": [],
      "name": "decimals",
      "outputs": [
        {
          "internalType": "uint8",
          "name": "",
          "type": "uint8"
        }
      ],
      "stateMutability": "view",
      "type": "function"
    },
    {
      "inputs": [
        {
          "internalType": "address",
          "name": "addr",
          "type": "address"
        }
      ],
      "name": "getCurrentFor",
      "outputs": [
        {
          "internalType": "address",
          "name": "",
          "type": "address"
        }
      ],
      "stateMutability": "view",
      "type": "function"
    },
    {
      "inputs": [
        {
          "internalType": "address",
          "name": "addr",
          "type": "address"
        },
        {
          "internalType": "uint256",
          "name": "index",
          "type": "uint256"
        }
      ],
      "name": "getTransactionByIndex",
      "outputs": [
        {
          "internalType": "string",
          "name": "",
          "type": "string"
        }
      ],
      "stateMutability": "view",
      "type": "function"
    },
    {
      "inputs": [
        {
          "internalType": "address",
          "name": "addr",
          "type": "address"
        }
      ],
      "name": "getTransactions",
      "outputs": [
        {
          "internalType": "string",
          "name": "",
          "type": "string"
        }
      ],
      "stateMutability": "view",
      "type": "function"
    },
    {
      "inputs": [
        {
          "internalType": "address",
          "name": "addr",
          "type": "address"
        },
        {
          "internalType": "bytes32",
          "name": "hash",
          "type": "bytes32"
        }
      ],
      "name": "hasHash",
      "outputs": [
        {
          "internalType": "bool",
          "name": "",
          "type": "bool"
        }
      ],
      "stateMutability": "view",
      "type": "function"
    },
    {
      "inputs": [
        {
          "internalType": "uint256",
          "name": "index",
          "type": "uint256"
        }
      ],
      "name": "holderAt",
      "outputs": [
        {
          "internalType": "address",
          "name": "",
          "type": "address"
        }
      ],
      "stateMutability": "view",
      "type": "function"
    },
    {
      "inputs": [],
      "name": "holderCount",
      "outputs": [
        {
          "internalType": "uint256",
          "name": "",
          "type": "uint256"
        }
      ],
      "stateMutability": "view",
      "type": "function"
    },
    {
      "inputs": [
        {
          "internalType": "address",
          "name": "addr",
          "type": "address"
        }
      ],
      "name": "isHolder",
      "outputs": [
        {
          "internalType": "bool",
          "name": "",
          "type": "bool"
        }
      ],
      "stateMutability": "view",
      "type": "function"
    },
    {
      "inputs": [
        {
          "internalType": "address",
          "name": "addr",
          "type": "address"
        }
      ],
      "name": "isSuperseded",
      "outputs": [
        {
          "internalType": "bool",
          "name": "",
          "type": "bool"
        }
      ],
      "stateMutability": "view",
      "type": "function"
    },
    {
      "inputs": [
        {
          "internalType": "address",
          "name": "addr",
          "type": "address"
        }
      ],
      "name": "isVerified",
      "outputs": [
        {
          "internalType": "bool",
          "name": "",
          "type": "bool"
        }
      ],
      "stateMutability": "view",
      "type": "function"
    },
    {
      "inputs": [
        {
          "internalType": "address",
          "name": "_to",
          "type": "address"
        },
        {
          "internalType": "uint256",
          "name": "_amount",
          "type": "uint256"
        }
      ],
      "name": "mint",
      "outputs": [
        {
          "internalType": "bool",
          "name": "",
          "type": "bool"
        }
      ],
      "stateMutability": "nonpayable",
      "type": "function"
    },
    {
      "inputs": [],
      "name": "name",
      "outputs": [
        {
          "internalType": "string",
          "name": "",
          "type": "string"
        }
      ],
      "stateMutability": "view",
      "type": "function"
    },
    {
      "inputs": [],
      "name": "negative",
      "outputs": [
        {
          "internalType": "uint256",
          "name": "",
          "type": "uint256"
        }
      ],
      "stateMutability": "view",
      "type": "function"
    },
    {
      "inputs": [],
      "name": "owner",
      "outputs": [
        {
          "internalType": "address",
          "name": "",
          "type": "address"
        }
      ],
      "stateMutability": "view",
      "type": "function"
    },
    {
      "inputs": [],
      "name": "parValue",
      "outputs": [
        {
          "internalType": "uint256",
          "name": "",
          "type": "uint256"
        }
      ],
      "stateMutability": "view",
      "type": "function"
    },
    {
      "inputs": [
        {
          "internalType": "address",
          "name": "addr",
          "type": "address"
        }
      ],
      "name": "removeTransferAgent",
      "outputs": [],
      "stateMutability": "nonpayable",
      "type": "function"
    },
    {
      "inputs": [
        {
          "internalType": "address",
          "name": "addr",
          "type": "address"
        }
      ],
      "name": "removeVerified",
      "outputs": [],
      "stateMutability": "nonpayable",
      "type": "function"
    },
    {
      "inputs": [
        {
          "internalType": "address payable",
          "name": "sender",
          "type": "address"
        },
        {
          "internalType": "uint256",
          "name": "amount",
          "type": "uint256"
        }
      ],
      "name": "sell",
      "outputs": [],
      "stateMutability": "payable",
      "type": "function"
    },
    {
      "inputs": [],
      "name": "symbol",
      "outputs": [
        {
          "internalType": "string",
          "name": "",
          "type": "string"
        }
      ],
      "stateMutability": "view",
      "type": "function"
    },
    {
      "inputs": [
        {
          "internalType": "uint256",
          "name": "timestamp",
          "type": "uint256"
        },
        {
          "internalType": "bool",
          "name": "_active",
          "type": "bool"
        }
      ],
      "name": "toggleExemptOffering",
      "outputs": [],
      "stateMutability": "nonpayable",
      "type": "function"
    },
    {
      "inputs": [],
      "name": "totalSupply",
      "outputs": [
        {
          "internalType": "uint256",
          "name": "",
          "type": "uint256"
        }
      ],
      "stateMutability": "view",
      "type": "function"
    },
    {
      "inputs": [],
      "name": "totalValueMax",
      "outputs": [
        {
          "internalType": "uint256",
          "name": "",
          "type": "uint256"
        }
      ],
      "stateMutability": "view",
      "type": "function"
    },
    {
      "inputs": [
        {
          "internalType": "address",
          "name": "",
          "type": "address"
        },
        {
          "internalType": "uint256",
          "name": "",
          "type": "uint256"
        }
      ],
      "name": "transactions",
      "outputs": [
        {
          "internalType": "address",
          "name": "addr",
          "type": "address"
        },
        {
          "internalType": "uint256",
          "name": "amount",
          "type": "uint256"
        },
        {
          "internalType": "uint256",
          "name": "time",
          "type": "uint256"
        }
      ],
      "stateMutability": "view",
      "type": "function"
    },
    {
      "inputs": [
        {
          "internalType": "address",
          "name": "to",
          "type": "address"
        },
        {
          "internalType": "uint256",
          "name": "value",
          "type": "uint256"
        }
      ],
      "name": "transfer",
      "outputs": [
        {
          "internalType": "bool",
          "name": "",
          "type": "bool"
        }
      ],
      "stateMutability": "nonpayable",
      "type": "function"
    },
    {
      "inputs": [
        {
          "internalType": "address",
          "name": "from",
          "type": "address"
        },
        {
          "internalType": "address",
          "name": "to",
          "type": "address"
        },
        {
          "internalType": "uint256",
          "name": "value",
          "type": "uint256"
        }
      ],
      "name": "transferFrom",
      "outputs": [
        {
          "internalType": "bool",
          "name": "",
          "type": "bool"
        }
      ],
      "stateMutability": "nonpayable",
      "type": "function"
    },
    {
      "inputs": [
        {
          "internalType": "address",
          "name": "addr",
          "type": "address"
        },
        {
          "internalType": "bytes32",
          "name": "hash",
          "type": "bytes32"
        }
      ],
      "name": "updateVerified",
      "outputs": [],
      "stateMutability": "nonpayable",
      "type": "function"
    }
  ],
  "bytecode": "0x608060405260006002556000600d60006101000a81548160ff0219169083151502179055506000600f556301dfe2006011556000601360006101000a81548160ff02191690831515021790555062eff1006014553480156200006057600080fd5b50620000ac600b60009054906101000a900473ffffffffffffffffffffffffffffffffffffffff16670de0b6b3a7640000601054620000a0919062000525565b620001ce60201b60201c565b506040518060400160405280601981526020017f526567756c6174696f6e20412054696572203220546f6b656e0000000000000081525060009080519060200190620000fa9291906200043c565b506040518060400160405280600981526020017f544f4b454e2e415432000000000000000000000000000000000000000000000081525060019080519060200190620001489291906200043c565b5033600b60006101000a81548173ffffffffffffffffffffffffffffffffffffffff021916908373ffffffffffffffffffffffffffffffffffffffff160217905550620001bd600b60009054906101000a900473ffffffffffffffffffffffffffffffffffffffff16620002b560201b60201c565b6302faf0806010819055506200084f565b600060025482111562000218576040517f08c379a00000000000000000000000000000000000000000000000000000000081526004016200020f90620005e7565b60405180910390fd5b81600660008573ffffffffffffffffffffffffffffffffffffffff1673ffffffffffffffffffffffffffffffffffffffff168152602001908152602001600020600082825462000269919062000609565b925050819055507f30385c845b448a36257a6a1716e6ad2e1bc2cbe333cde1e69fe849ad6511adfe8383604051620002a3929190620006bc565b60405180910390a16001905092915050565b600b60009054906101000a900473ffffffffffffffffffffffffffffffffffffffff1673ffffffffffffffffffffffffffffffffffffffff163373ffffffffffffffffffffffffffffffffffffffff161462000348576040517f08c379a00000000000000000000000000000000000000000000000000000000081526004016200033f9062000739565b60405180910390fd5b600073ffffffffffffffffffffffffffffffffffffffff168173ffffffffffffffffffffffffffffffffffffffff161415620003bb576040517f08c379a0000000000000000000000000000000000000000000000000000000008152600401620003b290620007ab565b60405180910390fd5b6001600860008373ffffffffffffffffffffffffffffffffffffffff1673ffffffffffffffffffffffffffffffffffffffff168152602001908152602001600020819055507f6ae172837ea30b801fbfcdd4108aa1d5bf8ff775444fd70256b44e6bf3dfc3f681604051620004319190620007cd565b60405180910390a150565b8280546200044a9062000819565b90600052602060002090601f0160209004810192826200046e5760008555620004ba565b82601f106200048957805160ff1916838001178555620004ba565b82800160010185558215620004ba579182015b82811115620004b95782518255916020019190600101906200049c565b5b509050620004c99190620004cd565b5090565b5b80821115620004e8576000816000905550600101620004ce565b5090565b6000819050919050565b7f4e487b7100000000000000000000000000000000000000000000000000000000600052601160045260246000fd5b60006200053282620004ec565b91506200053f83620004ec565b9250817fffffffffffffffffffffffffffffffffffffffffffffffffffffffffffffffff04831182151516156200057b576200057a620004f6565b5b828202905092915050565b600082825260208201905092915050565b7f6578636565647320746f74616c20737570706c79000000000000000000000000600082015250565b6000620005cf60148362000586565b9150620005dc8262000597565b602082019050919050565b600060208201905081810360008301526200060281620005c0565b9050919050565b60006200061682620004ec565b91506200062383620004ec565b9250827fffffffffffffffffffffffffffffffffffffffffffffffffffffffffffffffff038211156200065b576200065a620004f6565b5b828201905092915050565b600073ffffffffffffffffffffffffffffffffffffffff82169050919050565b6000620006938262000666565b9050919050565b620006a58162000686565b82525050565b620006b681620004ec565b82525050565b6000604082019050620006d360008301856200069a565b620006e26020830184620006ab565b9392505050565b7f6163636573732064656e69656400000000000000000000000000000000000000600082015250565b600062000721600d8362000586565b91506200072e82620006e9565b602082019050919050565b60006020820190508181036000830152620007548162000712565b9050919050565b7f6d697373696e67206d696e746572206164647265737300000000000000000000600082015250565b60006200079360168362000586565b9150620007a0826200075b565b602082019050919050565b60006020820190508181036000830152620007c68162000784565b9050919050565b6000602082019050620007e460008301846200069a565b92915050565b7f4e487b7100000000000000000000000000000000000000000000000000000000600052602260045260246000fd5b600060028204905060018216806200083257607f821691505b60208210811415620008495762000848620007ea565b5b50919050565b615303806200085f6000396000f3fe6080604052600436106101f95760003560e01c806347089f621161010d578063983b2d56116100a0578063b9209e331161006f578063b9209e3314610753578063cc397ed314610790578063d4d7b19a146107cd578063dd62ed3e1461080a578063f3221c7f14610847576101f9565b8063983b2d56146106ba578063a6f2ae3a146106e3578063a9059cbb146106ed578063b03145991461072a576101f9565b806379f64720116100dc57806379f64720146106105780638bf14094146106395780638da5cb5b1461066457806395d89b411461068f576101f9565b806347089f6214610565578063610db94e1461058e5780636c197ff5146105b757806370a08231146105d3576101f9565b806323b872dd116101905780632da7293e1161015f5780632da7293e1461046e578063313ce567146104ab578063354b7b1d146104d657806340c10f19146104ff5780634487b3921461053c576101f9565b806323b872dd1461038c57806327e235e3146103c95780632ab2efc8146104065780632cea64bf14610443576101f9565b8063197bc336116101cc578063197bc336146102d05780631aab9a9f1461030d5780631cb3ef1f146103385780631fb716e414610363576101f9565b806306fdde03146101fe5780630f8cda2014610229578063145381281461026657806318160ddd146102a5575b600080fd5b34801561020a57600080fd5b50610213610884565b60405161022091906140d4565b60405180910390f35b34801561023557600080fd5b50610250600480360381019061024b9190614159565b610912565b60405161025d91906140d4565b60405180910390f35b34801561027257600080fd5b5061028d600480360381019061028891906141bc565b610b90565b60405161029c9392919061421a565b60405180910390f35b3480156102b157600080fd5b506102ba610bf7565b6040516102c79190614251565b60405180910390f35b3480156102dc57600080fd5b506102f760048036038101906102f2919061426c565b610bfd565b6040516103049190614299565b60405180910390f35b34801561031957600080fd5b50610322610d1c565b60405161032f9190614251565b60405180910390f35b34801561034457600080fd5b5061034d610db9565b60405161035a9190614251565b60405180910390f35b34801561036f57600080fd5b5061038a600480360381019061038591906142ec565b610ddd565b005b34801561039857600080fd5b506103b360048036038101906103ae919061432c565b610f8d565b6040516103c0919061438e565b60405180910390f35b3480156103d557600080fd5b506103f060048036038101906103eb9190614159565b6112ff565b6040516103fd9190614251565b60405180910390f35b34801561041257600080fd5b5061042d600480360381019061042891906141bc565b611317565b60405161043a91906140d4565b60405180910390f35b34801561044f57600080fd5b5061045861151b565b6040516104659190614251565b60405180910390f35b34801561047a57600080fd5b5061049560048036038101906104909190614159565b611520565b6040516104a2919061438e565b60405180910390f35b3480156104b757600080fd5b506104c0611649565b6040516104cd91906143c5565b60405180910390f35b3480156104e257600080fd5b506104fd60048036038101906104f89190614416565b61164e565b005b34801561050b57600080fd5b50610526600480360381019061052191906141bc565b61187d565b604051610533919061438e565b60405180910390f35b34801561054857600080fd5b50610563600480360381019061055e9190614159565b611c3e565b005b34801561057157600080fd5b5061058c60048036038101906105879190614416565b611df5565b005b34801561059a57600080fd5b506105b560048036038101906105b09190614159565b612112565b005b6105d160048036038101906105cc9190614494565b612334565b005b3480156105df57600080fd5b506105fa60048036038101906105f59190614159565b61267c565b6040516106079190614251565b60405180910390f35b34801561061c57600080fd5b50610637600480360381019061063291906144d4565b6126c5565b005b34801561064557600080fd5b5061064e612c76565b60405161065b9190614251565b60405180910390f35b34801561067057600080fd5b50610679612c7c565b6040516106869190614299565b60405180910390f35b34801561069b57600080fd5b506106a4612ca2565b6040516106b191906140d4565b60405180910390f35b3480156106c657600080fd5b506106e160048036038101906106dc9190614159565b612d30565b005b6106eb612eaf565b005b3480156106f957600080fd5b50610714600480360381019061070f91906141bc565b613205565b604051610721919061438e565b60405180910390f35b34801561073657600080fd5b50610751600480360381019061074c9190614159565b613575565b005b34801561075f57600080fd5b5061077a60048036038101906107759190614159565b613707565b604051610787919061438e565b60405180910390f35b34801561079c57600080fd5b506107b760048036038101906107b29190614159565b613756565b6040516107c49190614299565b60405180910390f35b3480156107d957600080fd5b506107f460048036038101906107ef9190614159565b6137f8565b604051610801919061438e565b60405180910390f35b34801561081657600080fd5b50610831600480360381019061082c91906144d4565b613844565b60405161083e9190614251565b60405180910390f35b34801561085357600080fd5b5061086e60048036038101906108699190614416565b6138cb565b60405161087b919061438e565b60405180910390f35b6000805461089190614543565b80601f01602080910402602001604051908101604052809291908181526020018280546108bd90614543565b801561090a5780601f106108df5761010080835404028352916020019161090a565b820191906000526020600020905b8154815290600101906020018083116108ed57829003601f168201915b505050505081565b6060600b60009054906101000a900473ffffffffffffffffffffffffffffffffffffffff1673ffffffffffffffffffffffffffffffffffffffff163373ffffffffffffffffffffffffffffffffffffffff16146109a4576040517f08c379a000000000000000000000000000000000000000000000000000000000815260040161099b906145c1565b60405180910390fd5b600060405180602001604052806000815250905060005b600a60008573ffffffffffffffffffffffffffffffffffffffff1673ffffffffffffffffffffffffffffffffffffffff16815260200190815260200160002080549050811015610b865781600a60008673ffffffffffffffffffffffffffffffffffffffff1673ffffffffffffffffffffffffffffffffffffffff1681526020019081526020016000208281548110610a5757610a566145e1565b5b906000526020600020906003020160000160009054906101000a900473ffffffffffffffffffffffffffffffffffffffff16600a60008773ffffffffffffffffffffffffffffffffffffffff1673ffffffffffffffffffffffffffffffffffffffff1681526020019081526020016000208381548110610ada57610ad96145e1565b5b906000526020600020906003020160010154600a60008873ffffffffffffffffffffffffffffffffffffffff1673ffffffffffffffffffffffffffffffffffffffff1681526020019081526020016000208481548110610b3d57610b3c6145e1565b5b906000526020600020906003020160020154604051602001610b629493929190614799565b60405160208183030381529060405291508080610b7e9061483e565b9150506109bb565b5080915050919050565b600a6020528160005260406000208181548110610bac57600080fd5b9060005260206000209060030201600091509150508060000160009054906101000a900473ffffffffffffffffffffffffffffffffffffffff16908060010154908060020154905083565b60025481565b6000600b60009054906101000a900473ffffffffffffffffffffffffffffffffffffffff1673ffffffffffffffffffffffffffffffffffffffff163373ffffffffffffffffffffffffffffffffffffffff1614610c8f576040517f08c379a0000000000000000000000000000000000000000000000000000000008152600401610c86906145c1565b60405180910390fd5b600c805490508210610cd6576040517f08c379a0000000000000000000000000000000000000000000000000000000008152600401610ccd906148ad565b60405180910390fd5b600c8281548110610cea57610ce96145e1565b5b9060005260206000200160009054906101000a900473ffffffffffffffffffffffffffffffffffffffff169050919050565b6000600b60009054906101000a900473ffffffffffffffffffffffffffffffffffffffff1673ffffffffffffffffffffffffffffffffffffffff163373ffffffffffffffffffffffffffffffffffffffff1614610dae576040517f08c379a0000000000000000000000000000000000000000000000000000000008152600401610da5906145c1565b60405180910390fd5b600c80549050905090565b7fffffffffffffffffffffffffffffffffffffffffffffffffffffffffffffffff81565b600b60009054906101000a900473ffffffffffffffffffffffffffffffffffffffff1673ffffffffffffffffffffffffffffffffffffffff163373ffffffffffffffffffffffffffffffffffffffff1614610e6d576040517f08c379a0000000000000000000000000000000000000000000000000000000008152600401610e64906145c1565b60405180910390fd5b81600e8190555080600d60006101000a81548160ff021916908315150217905550600d60009054906101000a900460ff1615610f18573373ffffffffffffffffffffffffffffffffffffffff167fb9c39a906441691d138569e18a2c9766e29c5def7618306a8f07d7dc1f34627b6000604051602001610eed91906149ad565b60405160208183030381529060405284604051610f0b9291906149cf565b60405180910390a2610f89565b3373ffffffffffffffffffffffffffffffffffffffff167fb9c39a906441691d138569e18a2c9766e29c5def7618306a8f07d7dc1f34627b6000604051602001610f629190614a4b565b60405160208183030381529060405284604051610f809291906149cf565b60405180910390a25b5050565b6000601154600e54610f9f9190614a6d565b600e5410610fe2576040517f08c379a0000000000000000000000000000000000000000000000000000000008152600401610fd990614b0f565b60405180910390fd5b600d60009054906101000a900460ff16611031576040517f08c379a000000000000000000000000000000000000000000000000000000000815260040161102890614b7b565b60405180910390fd5b836000801b600360008373ffffffffffffffffffffffffffffffffffffffff1673ffffffffffffffffffffffffffffffffffffffff1681526020019081526020016000205414156110b7576040517f08c379a00000000000000000000000000000000000000000000000000000000081526004016110ae906148ad565b60405180910390fd5b6110c084613955565b6110ca8584613a49565b600060405180606001604052808673ffffffffffffffffffffffffffffffffffffffff168152602001858152602001428152509050600a60008673ffffffffffffffffffffffffffffffffffffffff1673ffffffffffffffffffffffffffffffffffffffff16815260200190815260200160002081908060018154018082558091505060019003906000526020600020906003020160009091909190915060008201518160000160006101000a81548173ffffffffffffffffffffffffffffffffffffffff021916908373ffffffffffffffffffffffffffffffffffffffff1602179055506020820151816001015560408201518160020155505060405180606001604052808773ffffffffffffffffffffffffffffffffffffffff168152602001857fffffffffffffffffffffffffffffffffffffffffffffffffffffffffffffffff6112189190614b9b565b8152602001428152509050600a60008773ffffffffffffffffffffffffffffffffffffffff1673ffffffffffffffffffffffffffffffffffffffff16815260200190815260200160002081908060018154018082558091505060019003906000526020600020906003020160009091909190915060008201518160000160006101000a81548173ffffffffffffffffffffffffffffffffffffffff021916908373ffffffffffffffffffffffffffffffffffffffff160217905550602082015181600101556040820151816002015550506112f4868686613ca8565b925050509392505050565b60066020528060005260406000206000915090505481565b6060600b60009054906101000a900473ffffffffffffffffffffffffffffffffffffffff1673ffffffffffffffffffffffffffffffffffffffff163373ffffffffffffffffffffffffffffffffffffffff16146113a9576040517f08c379a00000000000000000000000000000000000000000000000000000000081526004016113a0906145c1565b60405180910390fd5b600a60008473ffffffffffffffffffffffffffffffffffffffff1673ffffffffffffffffffffffffffffffffffffffff16815260200190815260200160002082815481106113fa576113f96145e1565b5b906000526020600020906003020160000160009054906101000a900473ffffffffffffffffffffffffffffffffffffffff16600a60008573ffffffffffffffffffffffffffffffffffffffff1673ffffffffffffffffffffffffffffffffffffffff168152602001908152602001600020838154811061147d5761147c6145e1565b5b906000526020600020906003020160010154600a60008673ffffffffffffffffffffffffffffffffffffffff1673ffffffffffffffffffffffffffffffffffffffff16815260200190815260200160002084815481106114e0576114df6145e1565b5b90600052602060002090600302016002015460405160200161150493929190614bf5565b604051602081830303815290604052905092915050565b600a81565b6000600b60009054906101000a900473ffffffffffffffffffffffffffffffffffffffff1673ffffffffffffffffffffffffffffffffffffffff163373ffffffffffffffffffffffffffffffffffffffff16146115b2576040517f08c379a00000000000000000000000000000000000000000000000000000000081526004016115a9906145c1565b60405180910390fd5b600073ffffffffffffffffffffffffffffffffffffffff16600460008473ffffffffffffffffffffffffffffffffffffffff1673ffffffffffffffffffffffffffffffffffffffff16815260200190815260200160002060009054906101000a900473ffffffffffffffffffffffffffffffffffffffff1673ffffffffffffffffffffffffffffffffffffffff1614159050919050565b600081565b600b60009054906101000a900473ffffffffffffffffffffffffffffffffffffffff1673ffffffffffffffffffffffffffffffffffffffff163373ffffffffffffffffffffffffffffffffffffffff16146116de576040517f08c379a00000000000000000000000000000000000000000000000000000000081526004016116d5906145c1565b60405180910390fd5b816000801b600360008373ffffffffffffffffffffffffffffffffffffffff1673ffffffffffffffffffffffffffffffffffffffff168152602001908152602001600020541415611764576040517f08c379a000000000000000000000000000000000000000000000000000000000815260040161175b906148ad565b60405180910390fd5b6000801b8214156117aa576040517f08c379a00000000000000000000000000000000000000000000000000000000081526004016117a1906148ad565b60405180910390fd5b6000600360008573ffffffffffffffffffffffffffffffffffffffff1673ffffffffffffffffffffffffffffffffffffffff1681526020019081526020016000205490508281146118775782600360008673ffffffffffffffffffffffffffffffffffffffff1673ffffffffffffffffffffffffffffffffffffffff168152602001908152602001600020819055507f63ec12603f028c6f74dc3c59a67d645d431250142b56676015d25475ee3fc3d38482853360405161186e9493929190614c6d565b60405180910390a15b50505050565b6000600d60009054906101000a900460ff166118ce576040517f08c379a00000000000000000000000000000000000000000000000000000000081526004016118c590614b7b565b60405180910390fd5b600b60009054906101000a900473ffffffffffffffffffffffffffffffffffffffff1673ffffffffffffffffffffffffffffffffffffffff163373ffffffffffffffffffffffffffffffffffffffff161461195e576040517f08c379a0000000000000000000000000000000000000000000000000000000008152600401611955906145c1565b60405180910390fd5b6000600860003373ffffffffffffffffffffffffffffffffffffffff1673ffffffffffffffffffffffffffffffffffffffff1681526020019081526020016000205414156119e1576040517f08c379a00000000000000000000000000000000000000000000000000000000081526004016119d8906145c1565b60405180910390fd5b826000801b600360008373ffffffffffffffffffffffffffffffffffffffff1673ffffffffffffffffffffffffffffffffffffffff168152602001908152602001600020541415611a67576040517f08c379a0000000000000000000000000000000000000000000000000000000008152600401611a5e906148ad565b60405180910390fd5b8260105481600f54611a799190614a6d565b10611ab9576040517f08c379a0000000000000000000000000000000000000000000000000000000008152600401611ab090614d24565b60405180910390fd5b601154600e54611ac99190614a6d565b600e5410611b0c576040517f08c379a0000000000000000000000000000000000000000000000000000000008152600401611b0390614b0f565b60405180910390fd5b611b1585613955565b83600f6000828254611b279190614a6d565b92505081905550600060405180606001604052808773ffffffffffffffffffffffffffffffffffffffff168152602001868152602001428152509050600a60008773ffffffffffffffffffffffffffffffffffffffff1673ffffffffffffffffffffffffffffffffffffffff16815260200190815260200160002081908060018154018082558091505060019003906000526020600020906003020160009091909190915060008201518160000160006101000a81548173ffffffffffffffffffffffffffffffffffffffff021916908373ffffffffffffffffffffffffffffffffffffffff16021790555060208201518160010155604082015181600201555050611c338686613e1d565b935050505092915050565b600b60009054906101000a900473ffffffffffffffffffffffffffffffffffffffff1673ffffffffffffffffffffffffffffffffffffffff163373ffffffffffffffffffffffffffffffffffffffff1614611cce576040517f08c379a0000000000000000000000000000000000000000000000000000000008152600401611cc5906145c1565b60405180910390fd5b60008173ffffffffffffffffffffffffffffffffffffffff163114611d28576040517f08c379a0000000000000000000000000000000000000000000000000000000008152600401611d1f90614d90565b60405180910390fd5b6000801b600360008373ffffffffffffffffffffffffffffffffffffffff1673ffffffffffffffffffffffffffffffffffffffff1681526020019081526020016000205414611df2576000801b600360008373ffffffffffffffffffffffffffffffffffffffff1673ffffffffffffffffffffffffffffffffffffffff168152602001908152602001600020819055507f8071c01a493142de896a206c19ca180d32e91d6486fcf11ea299f569f5d922b58133604051611de9929190614db0565b60405180910390a15b50565b600b60009054906101000a900473ffffffffffffffffffffffffffffffffffffffff1673ffffffffffffffffffffffffffffffffffffffff163373ffffffffffffffffffffffffffffffffffffffff1614611e85576040517f08c379a0000000000000000000000000000000000000000000000000000000008152600401611e7c906145c1565b60405180910390fd5b81600073ffffffffffffffffffffffffffffffffffffffff16600460008373ffffffffffffffffffffffffffffffffffffffff1673ffffffffffffffffffffffffffffffffffffffff16815260200190815260200160002060009054906101000a900473ffffffffffffffffffffffffffffffffffffffff1673ffffffffffffffffffffffffffffffffffffffff1614611f54576040517f08c379a0000000000000000000000000000000000000000000000000000000008152600401611f4b906148ad565b60405180910390fd5b600073ffffffffffffffffffffffffffffffffffffffff168373ffffffffffffffffffffffffffffffffffffffff161415611fc4576040517f08c379a0000000000000000000000000000000000000000000000000000000008152600401611fbb906148ad565b60405180910390fd5b6000801b82141561200a576040517f08c379a0000000000000000000000000000000000000000000000000000000008152600401612001906148ad565b60405180910390fd5b6000801b600360008573ffffffffffffffffffffffffffffffffffffffff1673ffffffffffffffffffffffffffffffffffffffff168152602001908152602001600020541461208e576040517f08c379a0000000000000000000000000000000000000000000000000000000008152600401612085906148ad565b60405180910390fd5b81600360008573ffffffffffffffffffffffffffffffffffffffff1673ffffffffffffffffffffffffffffffffffffffff168152602001908152602001600020819055507fb4f9d1d687d745820ae7c948518d6eef182cfbf5ef20b5b6a33769059592e7c883833360405161210593929190614dd9565b60405180910390a1505050565b600b60009054906101000a900473ffffffffffffffffffffffffffffffffffffffff1673ffffffffffffffffffffffffffffffffffffffff163373ffffffffffffffffffffffffffffffffffffffff16146121a2576040517f08c379a0000000000000000000000000000000000000000000000000000000008152600401612199906145c1565b60405180910390fd5b600073ffffffffffffffffffffffffffffffffffffffff168173ffffffffffffffffffffffffffffffffffffffff1614612211576040517f08c379a000000000000000000000000000000000000000000000000000000000815260040161220890614e5c565b60405180910390fd5b600b60009054906101000a900473ffffffffffffffffffffffffffffffffffffffff1673ffffffffffffffffffffffffffffffffffffffff168173ffffffffffffffffffffffffffffffffffffffff1614156122a2576040517f08c379a000000000000000000000000000000000000000000000000000000000815260040161229990614ec8565b60405180910390fd5b6000600760008373ffffffffffffffffffffffffffffffffffffffff1673ffffffffffffffffffffffffffffffffffffffff16815260200190815260200160002060006101000a81548160ff0219169083151502179055507f2a6c8fd6a904ef448050f3dd3c91d69c89f6029c4144371b887bc536b34f6caa816040516123299190614299565b60405180910390a150565b601154600e546123449190614a6d565b600e5410612387576040517f08c379a000000000000000000000000000000000000000000000000000000000815260040161237e90614b0f565b60405180910390fd5b600d60009054906101000a900460ff166123d6576040517f08c379a00000000000000000000000000000000000000000000000000000000081526004016123cd90614b7b565b60405180910390fd5b816000801b600360008373ffffffffffffffffffffffffffffffffffffffff1673ffffffffffffffffffffffffffffffffffffffff16815260200190815260200160002054141561245c576040517f08c379a0000000000000000000000000000000000000000000000000000000008152600401612453906148ad565b60405180910390fd5b6000821161249f576040517f08c379a000000000000000000000000000000000000000000000000000000000815260040161249690614f5a565b60405180910390fd5b60006124ab8430613844565b9050828110156124f0576040517f08c379a00000000000000000000000000000000000000000000000000000000081526004016124e790614fc6565b60405180910390fd5b6124fb843085610f8d565b50600060405180606001604052808673ffffffffffffffffffffffffffffffffffffffff168152602001858152602001428152509050600a60008673ffffffffffffffffffffffffffffffffffffffff1673ffffffffffffffffffffffffffffffffffffffff16815260200190815260200160002081908060018154018082558091505060019003906000526020600020906003020160009091909190915060008201518160000160006101000a81548173ffffffffffffffffffffffffffffffffffffffff021916908373ffffffffffffffffffffffffffffffffffffffff160217905550602082015181600101556040820151816002015550508473ffffffffffffffffffffffffffffffffffffffff166108fc859081150290604051600060405180830381858888f1935050505015801561263d573d6000803e3d6000fd5b507f92f64ca637d023f354075a4be751b169c1a8a9ccb6d33cdd0cb35205439957278460405161266d9190614251565b60405180910390a15050505050565b6000600660008373ffffffffffffffffffffffffffffffffffffffff1673ffffffffffffffffffffffffffffffffffffffff168152602001908152602001600020549050919050565b600d60009054906101000a900460ff16612714576040517f08c379a000000000000000000000000000000000000000000000000000000000815260040161270b90614b7b565b60405180910390fd5b600b60009054906101000a900473ffffffffffffffffffffffffffffffffffffffff1673ffffffffffffffffffffffffffffffffffffffff163373ffffffffffffffffffffffffffffffffffffffff16146127a4576040517f08c379a000000000000000000000000000000000000000000000000000000000815260040161279b906145c1565b60405180910390fd5b816000600560008373ffffffffffffffffffffffffffffffffffffffff1673ffffffffffffffffffffffffffffffffffffffff168152602001908152602001600020541415612828576040517f08c379a000000000000000000000000000000000000000000000000000000000815260040161281f906148ad565b60405180910390fd5b816000600560008373ffffffffffffffffffffffffffffffffffffffff1673ffffffffffffffffffffffffffffffffffffffff16815260200190815260200160002054146128ab576040517f08c379a00000000000000000000000000000000000000000000000000000000081526004016128a2906148ad565b60405180910390fd5b826000801b600360008373ffffffffffffffffffffffffffffffffffffffff1673ffffffffffffffffffffffffffffffffffffffff168152602001908152602001600020541415612931576040517f08c379a0000000000000000000000000000000000000000000000000000000008152600401612928906148ad565b60405180910390fd5b6000801b600360008773ffffffffffffffffffffffffffffffffffffffff1673ffffffffffffffffffffffffffffffffffffffff1681526020019081526020016000208190555083600460008773ffffffffffffffffffffffffffffffffffffffff1673ffffffffffffffffffffffffffffffffffffffff16815260200190815260200160002060006101000a81548173ffffffffffffffffffffffffffffffffffffffff021916908373ffffffffffffffffffffffffffffffffffffffff16021790555060006001600560008873ffffffffffffffffffffffffffffffffffffffff1673ffffffffffffffffffffffffffffffffffffffff16815260200190815260200160002054612a449190614fe6565b905084600c8281548110612a5b57612a5a6145e1565b5b9060005260206000200160006101000a81548173ffffffffffffffffffffffffffffffffffffffff021916908373ffffffffffffffffffffffffffffffffffffffff160217905550600560008773ffffffffffffffffffffffffffffffffffffffff1673ffffffffffffffffffffffffffffffffffffffff16815260200190815260200160002054600560008773ffffffffffffffffffffffffffffffffffffffff1673ffffffffffffffffffffffffffffffffffffffff168152602001908152602001600020819055506000600560008873ffffffffffffffffffffffffffffffffffffffff1673ffffffffffffffffffffffffffffffffffffffff16815260200190815260200160002081905550600660008773ffffffffffffffffffffffffffffffffffffffff1673ffffffffffffffffffffffffffffffffffffffff16815260200190815260200160002054600660008773ffffffffffffffffffffffffffffffffffffffff1673ffffffffffffffffffffffffffffffffffffffff168152602001908152602001600020819055506000600660008873ffffffffffffffffffffffffffffffffffffffff1673ffffffffffffffffffffffffffffffffffffffff168152602001908152602001600020819055507fb64971100522354f3d25283cb14e2eefcb0dd26a757482ccfe42479d0a686857868633604051612c669392919061501a565b60405180910390a1505050505050565b60105481565b600b60009054906101000a900473ffffffffffffffffffffffffffffffffffffffff1681565b60018054612caf90614543565b80601f0160208091040260200160405190810160405280929190818152602001828054612cdb90614543565b8015612d285780601f10612cfd57610100808354040283529160200191612d28565b820191906000526020600020905b815481529060010190602001808311612d0b57829003601f168201915b505050505081565b600b60009054906101000a900473ffffffffffffffffffffffffffffffffffffffff1673ffffffffffffffffffffffffffffffffffffffff163373ffffffffffffffffffffffffffffffffffffffff1614612dc0576040517f08c379a0000000000000000000000000000000000000000000000000000000008152600401612db7906145c1565b60405180910390fd5b600073ffffffffffffffffffffffffffffffffffffffff168173ffffffffffffffffffffffffffffffffffffffff161415612e30576040517f08c379a0000000000000000000000000000000000000000000000000000000008152600401612e279061509d565b60405180910390fd5b6001600860008373ffffffffffffffffffffffffffffffffffffffff1673ffffffffffffffffffffffffffffffffffffffff168152602001908152602001600020819055507f6ae172837ea30b801fbfcdd4108aa1d5bf8ff775444fd70256b44e6bf3dfc3f681604051612ea49190614299565b60405180910390a150565b336000801b600360008373ffffffffffffffffffffffffffffffffffffffff1673ffffffffffffffffffffffffffffffffffffffff168152602001908152602001600020541415612f35576040517f08c379a0000000000000000000000000000000000000000000000000000000008152600401612f2c906148ad565b60405180910390fd5b601154600e54612f459190614a6d565b600e5410612f88576040517f08c379a0000000000000000000000000000000000000000000000000000000008152600401612f7f90614b0f565b60405180910390fd5b600d60009054906101000a900460ff16612fd7576040517f08c379a0000000000000000000000000000000000000000000000000000000008152600401612fce90614b7b565b60405180910390fd5b3460105481600f54612fe99190614a6d565b10613029576040517f08c379a000000000000000000000000000000000000000000000000000000000815260040161302090614d24565b60405180910390fd5b600034905060006130393061267c565b90506000821161307e576040517f08c379a000000000000000000000000000000000000000000000000000000000815260040161307590615109565b60405180910390fd5b808211156130c1576040517f08c379a00000000000000000000000000000000000000000000000000000000081526004016130b890615175565b60405180910390fd5b600060405180606001604052803373ffffffffffffffffffffffffffffffffffffffff168152602001848152602001428152509050600a60003373ffffffffffffffffffffffffffffffffffffffff1673ffffffffffffffffffffffffffffffffffffffff16815260200190815260200160002081908060018154018082558091505060019003906000526020600020906003020160009091909190915060008201518160000160006101000a81548173ffffffffffffffffffffffffffffffffffffffff021916908373ffffffffffffffffffffffffffffffffffffffff160217905550602082015181600101556040820151816002015550506131c63384613205565b507f4e08ba899977cf7d4c2964bce71c6b9a7ef76ee5166a4c1249a1e08016e33ef1836040516131f69190614251565b60405180910390a15050505050565b6000601154600e546132179190614a6d565b600e541061325a576040517f08c379a000000000000000000000000000000000000000000000000000000000815260040161325190614b0f565b60405180910390fd5b600d60009054906101000a900460ff166132a9576040517f08c379a00000000000000000000000000000000000000000000000000000000081526004016132a090614b7b565b60405180910390fd5b826000801b600360008373ffffffffffffffffffffffffffffffffffffffff1673ffffffffffffffffffffffffffffffffffffffff16815260200190815260200160002054141561332f576040517f08c379a0000000000000000000000000000000000000000000000000000000008152600401613326906148ad565b60405180910390fd5b61333884613955565b6133423384613a49565b600060405180606001604052808673ffffffffffffffffffffffffffffffffffffffff168152602001858152602001428152509050600a60008673ffffffffffffffffffffffffffffffffffffffff1673ffffffffffffffffffffffffffffffffffffffff16815260200190815260200160002081908060018154018082558091505060019003906000526020600020906003020160009091909190915060008201518160000160006101000a81548173ffffffffffffffffffffffffffffffffffffffff021916908373ffffffffffffffffffffffffffffffffffffffff1602179055506020820151816001015560408201518160020155505060405180606001604052803373ffffffffffffffffffffffffffffffffffffffff168152602001857fffffffffffffffffffffffffffffffffffffffffffffffffffffffffffffffff6134909190614b9b565b8152602001428152509050600a60003373ffffffffffffffffffffffffffffffffffffffff1673ffffffffffffffffffffffffffffffffffffffff16815260200190815260200160002081908060018154018082558091505060019003906000526020600020906003020160009091909190915060008201518160000160006101000a81548173ffffffffffffffffffffffffffffffffffffffff021916908373ffffffffffffffffffffffffffffffffffffffff1602179055506020820151816001015560408201518160020155505061356b8585613efd565b9250505092915050565b600b60009054906101000a900473ffffffffffffffffffffffffffffffffffffffff1673ffffffffffffffffffffffffffffffffffffffff163373ffffffffffffffffffffffffffffffffffffffff1614613605576040517f08c379a00000000000000000000000000000000000000000000000000000000081526004016135fc906145c1565b60405180910390fd5b600073ffffffffffffffffffffffffffffffffffffffff168173ffffffffffffffffffffffffffffffffffffffff161415613675576040517f08c379a000000000000000000000000000000000000000000000000000000000815260040161366c90614e5c565b60405180910390fd5b6001600760008373ffffffffffffffffffffffffffffffffffffffff1673ffffffffffffffffffffffffffffffffffffffff16815260200190815260200160002060006101000a81548160ff0219169083151502179055507f1e9fcacb7052d8badc53a7061f6dc79beafe00b872cc7d0a57c541023eb9eabc816040516136fc9190614299565b60405180910390a150565b60008060001b600360008473ffffffffffffffffffffffffffffffffffffffff1673ffffffffffffffffffffffffffffffffffffffff1681526020019081526020016000205414159050919050565b6000600b60009054906101000a900473ffffffffffffffffffffffffffffffffffffffff1673ffffffffffffffffffffffffffffffffffffffff163373ffffffffffffffffffffffffffffffffffffffff16146137e8576040517f08c379a00000000000000000000000000000000000000000000000000000000081526004016137df906145c1565b60405180910390fd5b6137f182613f86565b9050919050565b600080600560008473ffffffffffffffffffffffffffffffffffffffff1673ffffffffffffffffffffffffffffffffffffffff1681526020019081526020016000205414159050919050565b6000600960008473ffffffffffffffffffffffffffffffffffffffff1673ffffffffffffffffffffffffffffffffffffffff16815260200190815260200160002060008373ffffffffffffffffffffffffffffffffffffffff1673ffffffffffffffffffffffffffffffffffffffff16815260200190815260200160002054905092915050565b60008073ffffffffffffffffffffffffffffffffffffffff168373ffffffffffffffffffffffffffffffffffffffff16141561390a576000905061394f565b81600360008573ffffffffffffffffffffffffffffffffffffffff1673ffffffffffffffffffffffffffffffffffffffff168152602001908152602001600020541490505b92915050565b6000600560008373ffffffffffffffffffffffffffffffffffffffff1673ffffffffffffffffffffffffffffffffffffffff168152602001908152602001600020541415613a4657600c819080600181540180825580915050600190039060005260206000200160009091909190916101000a81548173ffffffffffffffffffffffffffffffffffffffff021916908373ffffffffffffffffffffffffffffffffffffffff1602179055506001600560008373ffffffffffffffffffffffffffffffffffffffff1673ffffffffffffffffffffffffffffffffffffffff168152602001908152602001600020819055505b50565b6000818373ffffffffffffffffffffffffffffffffffffffff1631613a6e9190614fe6565b90506000811115613a7f5750613ca4565b60006001600560008673ffffffffffffffffffffffffffffffffffffffff1673ffffffffffffffffffffffffffffffffffffffff16815260200190815260200160002054613acd9190614fe6565b905060006001600c80549050613ae39190614fe6565b90506000600c8281548110613afb57613afa6145e1565b5b9060005260206000200160009054906101000a900473ffffffffffffffffffffffffffffffffffffffff16905080600c8481548110613b3d57613b3c6145e1565b5b9060005260206000200160006101000a81548173ffffffffffffffffffffffffffffffffffffffff021916908373ffffffffffffffffffffffffffffffffffffffff160217905550600560008773ffffffffffffffffffffffffffffffffffffffff1673ffffffffffffffffffffffffffffffffffffffff16815260200190815260200160002054600560008373ffffffffffffffffffffffffffffffffffffffff1673ffffffffffffffffffffffffffffffffffffffff16815260200190815260200160002081905550600c6001600c80549050613c1c9190614fe6565b81548110613c2d57613c2c6145e1565b5b9060005260206000200160006101000a81549073ffffffffffffffffffffffffffffffffffffffff02191690556000600560008873ffffffffffffffffffffffffffffffffffffffff1673ffffffffffffffffffffffffffffffffffffffff16815260200190815260200160002081905550505050505b5050565b600081600660008673ffffffffffffffffffffffffffffffffffffffff1673ffffffffffffffffffffffffffffffffffffffff1681526020019081526020016000205411613d2b576040517f08c379a0000000000000000000000000000000000000000000000000000000008152600401613d22906151e1565b60405180910390fd5b81600660008573ffffffffffffffffffffffffffffffffffffffff1673ffffffffffffffffffffffffffffffffffffffff1681526020019081526020016000206000828254613d7a9190614a6d565b9250508190555081600660008673ffffffffffffffffffffffffffffffffffffffff1673ffffffffffffffffffffffffffffffffffffffff1681526020019081526020016000206000828254613dd09190614fe6565b925050819055507fc0d84ce5c7ff9ca21adb0f8436ff3f4951b4bb78c4e2fae2b6837958b3946ffd848484604051613e0a93929190615201565b60405180910390a1600190509392505050565b6000600254821115613e64576040517f08c379a0000000000000000000000000000000000000000000000000000000008152600401613e5b90615284565b60405180910390fd5b81600660008573ffffffffffffffffffffffffffffffffffffffff1673ffffffffffffffffffffffffffffffffffffffff1681526020019081526020016000206000828254613eb39190614a6d565b925050819055507f30385c845b448a36257a6a1716e6ad2e1bc2cbe333cde1e69fe849ad6511adfe8383604051613eeb9291906152a4565b60405180910390a16001905092915050565b600081600660008573ffffffffffffffffffffffffffffffffffffffff1673ffffffffffffffffffffffffffffffffffffffff168152602001908152602001600020819055507f69ca02dd4edd7bf0a4abb9ed3b7af3f14778db5d61921c7dc7cd545266326de28383604051613f749291906152a4565b60405180910390a16001905092915050565b600080600460008473ffffffffffffffffffffffffffffffffffffffff1673ffffffffffffffffffffffffffffffffffffffff16815260200190815260200160002060009054906101000a900473ffffffffffffffffffffffffffffffffffffffff169050600073ffffffffffffffffffffffffffffffffffffffff168173ffffffffffffffffffffffffffffffffffffffff1614156140295782915050614036565b61403281613f86565b9150505b919050565b600081519050919050565b600082825260208201905092915050565b60005b8381101561407557808201518184015260208101905061405a565b83811115614084576000848401525b50505050565b6000601f19601f8301169050919050565b60006140a68261403b565b6140b08185614046565b93506140c0818560208601614057565b6140c98161408a565b840191505092915050565b600060208201905081810360008301526140ee818461409b565b905092915050565b600080fd5b600073ffffffffffffffffffffffffffffffffffffffff82169050919050565b6000614126826140fb565b9050919050565b6141368161411b565b811461414157600080fd5b50565b6000813590506141538161412d565b92915050565b60006020828403121561416f5761416e6140f6565b5b600061417d84828501614144565b91505092915050565b6000819050919050565b61419981614186565b81146141a457600080fd5b50565b6000813590506141b681614190565b92915050565b600080604083850312156141d3576141d26140f6565b5b60006141e185828601614144565b92505060206141f2858286016141a7565b9150509250929050565b6142058161411b565b82525050565b61421481614186565b82525050565b600060608201905061422f60008301866141fc565b61423c602083018561420b565b614249604083018461420b565b949350505050565b6000602082019050614266600083018461420b565b92915050565b600060208284031215614282576142816140f6565b5b6000614290848285016141a7565b91505092915050565b60006020820190506142ae60008301846141fc565b92915050565b60008115159050919050565b6142c9816142b4565b81146142d457600080fd5b50565b6000813590506142e6816142c0565b92915050565b60008060408385031215614303576143026140f6565b5b6000614311858286016141a7565b9250506020614322858286016142d7565b9150509250929050565b600080600060608486031215614345576143446140f6565b5b600061435386828701614144565b935050602061436486828701614144565b9250506040614375868287016141a7565b9150509250925092565b614388816142b4565b82525050565b60006020820190506143a3600083018461437f565b92915050565b600060ff82169050919050565b6143bf816143a9565b82525050565b60006020820190506143da60008301846143b6565b92915050565b6000819050919050565b6143f3816143e0565b81146143fe57600080fd5b50565b600081359050614410816143ea565b92915050565b6000806040838503121561442d5761442c6140f6565b5b600061443b85828601614144565b925050602061444c85828601614401565b9150509250929050565b6000614461826140fb565b9050919050565b61447181614456565b811461447c57600080fd5b50565b60008135905061448e81614468565b92915050565b600080604083850312156144ab576144aa6140f6565b5b60006144b98582860161447f565b92505060206144ca858286016141a7565b9150509250929050565b600080604083850312156144eb576144ea6140f6565b5b60006144f985828601614144565b925050602061450a85828601614144565b9150509250929050565b7f4e487b7100000000000000000000000000000000000000000000000000000000600052602260045260246000fd5b6000600282049050600182168061455b57607f821691505b6020821081141561456f5761456e614514565b5b50919050565b7f6163636573732064656e69656400000000000000000000000000000000000000600082015250565b60006145ab600d83614046565b91506145b682614575565b602082019050919050565b600060208201905081810360008301526145da8161459e565b9050919050565b7f4e487b7100000000000000000000000000000000000000000000000000000000600052603260045260246000fd5b600081905092915050565b60006146268261403b565b6146308185614610565b9350614640818560208601614057565b80840191505092915050565b7f5b00000000000000000000000000000000000000000000000000000000000000600082015250565b6000614682600183614610565b915061468d8261464c565b600182019050919050565b60008160601b9050919050565b60006146b082614698565b9050919050565b60006146c2826146a5565b9050919050565b6146da6146d58261411b565b6146b7565b82525050565b7f2c00000000000000000000000000000000000000000000000000000000000000600082015250565b6000614716600183614610565b9150614721826146e0565b600182019050919050565b6000819050919050565b61474761474282614186565b61472c565b82525050565b7f5d00000000000000000000000000000000000000000000000000000000000000600082015250565b6000614783600183614610565b915061478e8261474d565b600182019050919050565b60006147a5828761461b565b91506147b082614675565b91506147bc82866146c9565b6014820191506147cb82614709565b91506147d78285614736565b6020820191506147e682614709565b91506147f28284614736565b60208201915061480182614776565b915081905095945050505050565b7f4e487b7100000000000000000000000000000000000000000000000000000000600052601160045260246000fd5b600061484982614186565b91507fffffffffffffffffffffffffffffffffffffffffffffffffffffffffffffffff82141561487c5761487b61480f565b5b600182019050919050565b50565b6000614897600083614046565b91506148a282614887565b600082019050919050565b600060208201905081810360008301526148c68161488a565b9050919050565b60008190508160005260206000209050919050565b600081546148ef81614543565b6148f98186614610565b94506001821660008114614914576001811461492557614958565b60ff19831686528186019350614958565b61492e856148cd565b60005b8381101561495057815481890152600182019150602081019050614931565b838801955050505b50505092915050565b7f2068617320737461727465640000000000000000000000000000000000000000600082015250565b6000614997600c83614610565b91506149a282614961565b600c82019050919050565b60006149b982846148e2565b91506149c48261498a565b915081905092915050565b600060408201905081810360008301526149e9818561409b565b90506149f8602083018461420b565b9392505050565b7f206861732073746f707065640000000000000000000000000000000000000000600082015250565b6000614a35600c83614610565b9150614a40826149ff565b600c82019050919050565b6000614a5782846148e2565b9150614a6282614a28565b915081905092915050565b6000614a7882614186565b9150614a8383614186565b9250827fffffffffffffffffffffffffffffffffffffffffffffffffffffffffffffffff03821115614ab857614ab761480f565b5b828201905092915050565b7f6f66666572696e67206861732065787069726564000000000000000000000000600082015250565b6000614af9601483614046565b9150614b0482614ac3565b602082019050919050565b60006020820190508181036000830152614b2881614aec565b9050919050565b7f6578656d7074206f66666572696e67206973206e6f7420616374697665000000600082015250565b6000614b65601d83614046565b9150614b7082614b2f565b602082019050919050565b60006020820190508181036000830152614b9481614b58565b9050919050565b6000614ba682614186565b9150614bb183614186565b9250817fffffffffffffffffffffffffffffffffffffffffffffffffffffffffffffffff0483118215151615614bea57614be961480f565b5b828202905092915050565b6000614c0082614675565b9150614c0c82866146c9565b601482019150614c1b82614709565b9150614c278285614736565b602082019150614c3682614709565b9150614c428284614736565b602082019150614c5182614776565b9150819050949350505050565b614c67816143e0565b82525050565b6000608082019050614c8260008301876141fc565b614c8f6020830186614c5e565b614c9c6040830185614c5e565b614ca960608301846141fc565b95945050505050565b7f6d6178696d756d206f66666572696e6720686173206265656e2072656163686560008201527f6400000000000000000000000000000000000000000000000000000000000000602082015250565b6000614d0e602183614046565b9150614d1982614cb2565b604082019050919050565b60006020820190508181036000830152614d3d81614d01565b9050919050565b7f6163636f756e742062616c616e6365206973206e6f74207a65726f0000000000600082015250565b6000614d7a601b83614046565b9150614d8582614d44565b602082019050919050565b60006020820190508181036000830152614da981614d6d565b9050919050565b6000604082019050614dc560008301856141fc565b614dd260208301846141fc565b9392505050565b6000606082019050614dee60008301866141fc565b614dfb6020830185614c5e565b614e0860408301846141fc565b949350505050565b7f6d697373696e67207472616e73666572206167656e7420616464726573730000600082015250565b6000614e46601e83614046565b9150614e5182614e10565b602082019050919050565b60006020820190508181036000830152614e7581614e39565b9050919050565b7f63616e6e6f742072656d6f766520746865206f776e6572000000000000000000600082015250565b6000614eb2601783614046565b9150614ebd82614e7c565b602082019050919050565b60006020820190508181036000830152614ee181614ea5565b9050919050565b7f596f75206e65656420746f2073656c6c206174206c6561737420736f6d65207460008201527f6f6b656e73000000000000000000000000000000000000000000000000000000602082015250565b6000614f44602583614046565b9150614f4f82614ee8565b604082019050919050565b60006020820190508181036000830152614f7381614f37565b9050919050565b7f436865636b2074686520746f6b656e20616c6c6f77616e636500000000000000600082015250565b6000614fb0601983614046565b9150614fbb82614f7a565b602082019050919050565b60006020820190508181036000830152614fdf81614fa3565b9050919050565b6000614ff182614186565b9150614ffc83614186565b92508282101561500f5761500e61480f565b5b828203905092915050565b600060608201905061502f60008301866141fc565b61503c60208301856141fc565b61504960408301846141fc565b949350505050565b7f6d697373696e67206d696e746572206164647265737300000000000000000000600082015250565b6000615087601683614046565b915061509282615051565b602082019050919050565b600060208201905081810360008301526150b68161507a565b9050919050565b7f596f75206e65656420746f2073656e6420736f6d652065746865720000000000600082015250565b60006150f3601b83614046565b91506150fe826150bd565b602082019050919050565b60006020820190508181036000830152615122816150e6565b9050919050565b7f4e6f7420656e6f75676820746f6b656e7320696e207468652072657365727665600082015250565b600061515f602083614046565b915061516a82615129565b602082019050919050565b6000602082019050818103600083015261518e81615152565b9050919050565b7f696e73756666696369656e742062616c616e6365000000000000000000000000600082015250565b60006151cb601483614046565b91506151d682615195565b602082019050919050565b600060208201905081810360008301526151fa816151be565b9050919050565b600060608201905061521660008301866141fc565b61522360208301856141fc565b615230604083018461420b565b949350505050565b7f6578636565647320746f74616c20737570706c79000000000000000000000000600082015250565b600061526e601483614046565b915061527982615238565b602082019050919050565b6000602082019050818103600083015261529d81615261565b9050919050565b60006040820190506152b960008301856141fc565b6152c6602083018461420b565b939250505056fea2646970667358221220fd43649cbd370e4090b41c7b6d804daf976fcf3b70eeadc5dae2fc8012d1837d64736f6c634300080a0033",
  "immutableReferences": {},
  "source": "// SPDX-License-Identifier: CC-BY-4.0\npragma solidity >=0.4.22 <0.9.0;\n\n/**\n * Regulation A: Tier 2\n * --------------------\n * See https://www.investor.gov/introduction-investing/investing-basics/glossary/regulation\n *\n * Under Tier 2, an issuer can raise up to $50 million in any 12-month period, including no more than $15 million on behalf of selling securityholders that are\n * affiliates of the issuer.  Unlike Tier 1 offerings, the offering statement does not have to be qualified by a state securities regulator, and the issuer is subject to\n * ongoing reporting requirements in the form of an annual report on Form 1-K, a semiannual report on Form 1-SA and a current report on Form 1-U.\n */\n\nimport \"./ExemptEquityOfferingRegA.sol\";\n\ncontract ExemptEquityOfferingAT2 is ExemptEquityOfferingRegA {\n  constructor()\n  {\n    name = \"Regulation A Tier 2 Token\";\n    symbol = \"TOKEN.AT2\";\n    owner = msg.sender;\n    addMinter(owner);\n    totalValueMax = 50000000;\n  }\n}\n",
  "sourcePath": "G:\\projects\\pingleware-contracts\\contracts\\equity\\ExemptEquityOfferingAT2.sol",
  "compiler": {
    "name": "solc",
    "version": "0.8.10+commit.fc410830.Emscripten.clang"
  },
  "schemaVersion": "3.4.3",
  "updatedAt": "2021-12-21T07:17:50.686Z",
  "devdoc": {
    "kind": "dev",
    "methods": {
      "addVerified(address,bytes32)": {
        "params": {
          "addr": "The address of the person represented by the supplied hash.",
          "hash": "A cryptographic hash of the address holder's verified information."
        }
      },
      "cancelAndReissue(address,address)": {
        "params": {
          "original": "The address to be superseded. This address MUST NOT be reused.",
          "replacement": "The address  that supersedes the original. This address MUST be verified."
        }
      },
      "getCurrentFor(address)": {
        "params": {
          "addr": "The superseded address."
        },
        "returns": {
          "_0": "the verified address that ultimately holds the share."
        }
      },
      "hasHash(address,bytes32)": {
        "params": {
          "addr": "The address to test.",
          "hash": "The hash to test."
        },
        "returns": {
          "_0": "true if the hash matches the one supplied with the address in `addVerified`, or `updateVerified`."
        }
      },
      "holderAt(uint256)": {
        "params": {
          "index": "The zero-based index of the holder."
        },
        "returns": {
          "_0": "the address of the token holder with the given index."
        }
      },
      "holderCount()": {
        "returns": {
          "_0": "the number of unique addresses that own tokens."
        }
      },
      "isHolder(address)": {
        "params": {
          "addr": "The address to check."
        },
        "returns": {
          "_0": "true if the supplied address owns a token."
        }
      },
      "isSuperseded(address)": {
        "params": {
          "addr": "The address to check."
        },
        "returns": {
          "_0": "true if the supplied address was superseded by another address."
        }
      },
      "isVerified(address)": {
        "params": {
          "addr": "The address to test."
        },
        "returns": {
          "_0": "true if the address is known to the contract."
        }
      },
      "mint(address,uint256)": {
        "params": {
          "_amount": "The amount of tokens to mint.",
          "_to": "The address that will receive the minted tokens."
        },
        "returns": {
          "_0": "A boolean that indicates if the operation was successful."
        }
      },
      "removeVerified(address)": {
        "params": {
          "addr": "The verified address to be removed."
        }
      },
      "updateVerified(address,bytes32)": {
        "params": {
          "addr": "The verified address of the person represented by the supplied hash.",
          "hash": "A new cryptographic hash of the address holder's updated verified information."
        }
      }
    },
    "version": 1
  },
  "userdoc": {
    "kind": "user",
    "methods": {
      "addVerified(address,bytes32)": {
        "notice": "Add a verified address, along with an associated verification hash to the contract.  Upon successful addition of a verified address, the contract must emit  `VerifiedAddressAdded(addr, hash, msg.sender)`.  It MUST throw if the supplied address or hash are zero, or if the address has already been supplied."
      },
      "cancelAndReissue(address,address)": {
        "notice": "Cancel the original address and reissue the Tokens to the replacement address.  Access to this function MUST be strictly controlled.  The `original` address MUST be removed from the set of verified addresses.  Throw if the `original` address supplied is not a shareholder.  Throw if the replacement address is not a verified address.  This function MUST emit the `VerifiedAddressSuperseded` event."
      },
      "getCurrentFor(address)": {
        "notice": "Gets the most recent address, given a superseded one.  Addresses may be superseded multiple times, so this function needs to  follow the chain of addresses until it reaches the final, verified address."
      },
      "hasHash(address,bytes32)": {
        "notice": "Checks that the supplied hash is associated with the given address."
      },
      "holderAt(uint256)": {
        "notice": "By counting the number of token holders using `holderCount`  you can retrieve the complete list of token holders, one at a time.  It MUST throw if `index >= holderCount()`."
      },
      "holderCount()": {
        "notice": "The number of addresses that own tokens."
      },
      "isHolder(address)": {
        "notice": "Checks to see if the supplied address is a share holder."
      },
      "isSuperseded(address)": {
        "notice": "Checks to see if the supplied address was superseded."
      },
      "isVerified(address)": {
        "notice": "Tests that the supplied address is known to the contract."
      },
      "mint(address,uint256)": {
        "notice": "As each token is minted it is added to the shareholders array."
      },
      "removeVerified(address)": {
        "notice": "Remove a verified address, and the associated verification hash. If the address is  unknown to the contract then this does nothing. If the address is successfully removed, this  function must emit `VerifiedAddressRemoved(addr, msg.sender)`.  It MUST throw if an attempt is made to remove a verifiedAddress that owns Tokens."
      },
      "transfer(address,uint256)": {
        "notice": "The `transfer` function MUST NOT allow transfers to addresses that  have not been verified and added to the contract.  If the `to` address is not currently a shareholder then it MUST become one.  If the transfer will reduce `msg.sender`'s balance to 0 then that address  MUST be removed from the list of shareholders."
      },
      "transferFrom(address,address,uint256)": {
        "notice": "The `transferFrom` function MUST NOT allow transfers to addresses that  have not been verified and added to the contract.  If the `to` address is not currently a shareholder then it MUST become one.  If the transfer will reduce `from`'s balance to 0 then that address  MUST be removed from the list of shareholders."
      },
      "updateVerified(address,bytes32)": {
        "notice": "Update the hash for a verified address known to the contract.  Upon successful update of a verified address the contract must emit  `VerifiedAddressUpdated(addr, oldHash, hash, msg.sender)`.  If the hash is the same as the value already stored then  no `VerifiedAddressUpdated` event is to be emitted.  It MUST throw if the hash is zero, or if the address is unverified."
      }
    },
    "version": 1
  }
}