{
  "contractName": "ExemptEquityOffering701",
  "abi": [
    {
      "inputs": [],
      "stateMutability": "payable",
      "type": "constructor"
    },
    {
      "anonymous": false,
      "inputs": [
        {
          "indexed": false,
          "internalType": "address",
          "name": "sender",
          "type": "address"
        },
        {
          "indexed": false,
          "internalType": "uint256",
          "name": "value",
          "type": "uint256"
        },
        {
          "indexed": false,
          "internalType": "uint256",
          "name": "epoch",
          "type": "uint256"
        }
      ],
      "name": "Bought",
      "type": "event"
    },
    {
      "anonymous": false,
      "inputs": [
        {
          "indexed": true,
          "internalType": "address",
          "name": "from",
          "type": "address"
        },
        {
          "indexed": false,
          "internalType": "string",
          "name": "status",
          "type": "string"
        },
        {
          "indexed": false,
          "internalType": "uint256",
          "name": "value",
          "type": "uint256"
        }
      ],
      "name": "ExemptOffering",
      "type": "event"
    },
    {
      "anonymous": false,
      "inputs": [
        {
          "indexed": false,
          "internalType": "address",
          "name": "addr",
          "type": "address"
        },
        {
          "indexed": false,
          "internalType": "uint256",
          "name": "amount",
          "type": "uint256"
        }
      ],
      "name": "Minted",
      "type": "event"
    },
    {
      "anonymous": false,
      "inputs": [
        {
          "indexed": false,
          "internalType": "address",
          "name": "addr",
          "type": "address"
        }
      ],
      "name": "MinterAdded",
      "type": "event"
    },
    {
      "anonymous": false,
      "inputs": [
        {
          "indexed": false,
          "internalType": "address",
          "name": "sender",
          "type": "address"
        },
        {
          "indexed": false,
          "internalType": "uint256",
          "name": "value",
          "type": "uint256"
        },
        {
          "indexed": false,
          "internalType": "uint256",
          "name": "epoch",
          "type": "uint256"
        }
      ],
      "name": "Sold",
      "type": "event"
    },
    {
      "anonymous": false,
      "inputs": [
        {
          "indexed": false,
          "internalType": "address",
          "name": "addr",
          "type": "address"
        },
        {
          "indexed": false,
          "internalType": "uint256",
          "name": "amount",
          "type": "uint256"
        }
      ],
      "name": "Transfer",
      "type": "event"
    },
    {
      "anonymous": false,
      "inputs": [
        {
          "indexed": false,
          "internalType": "address",
          "name": "owner",
          "type": "address"
        },
        {
          "indexed": false,
          "internalType": "address",
          "name": "addr",
          "type": "address"
        }
      ],
      "name": "TransferAgentAdded",
      "type": "event"
    },
    {
      "anonymous": false,
      "inputs": [
        {
          "indexed": false,
          "internalType": "address",
          "name": "owner",
          "type": "address"
        },
        {
          "indexed": false,
          "internalType": "address",
          "name": "addr",
          "type": "address"
        }
      ],
      "name": "TransferAgentRemoved",
      "type": "event"
    },
    {
      "anonymous": false,
      "inputs": [
        {
          "indexed": false,
          "internalType": "address",
          "name": "from",
          "type": "address"
        },
        {
          "indexed": false,
          "internalType": "address",
          "name": "to",
          "type": "address"
        },
        {
          "indexed": false,
          "internalType": "uint256",
          "name": "value",
          "type": "uint256"
        }
      ],
      "name": "TransferFrom",
      "type": "event"
    },
    {
      "inputs": [],
      "name": "INITIAL_SUPPLY",
      "outputs": [
        {
          "internalType": "uint256",
          "name": "",
          "type": "uint256"
        }
      ],
      "stateMutability": "view",
      "type": "function"
    },
    {
      "inputs": [],
      "name": "VERSION",
      "outputs": [
        {
          "internalType": "string",
          "name": "",
          "type": "string"
        }
      ],
      "stateMutability": "view",
      "type": "function"
    },
    {
      "inputs": [],
      "name": "WAIT",
      "outputs": [
        {
          "internalType": "uint256",
          "name": "",
          "type": "uint256"
        }
      ],
      "stateMutability": "view",
      "type": "function"
    },
    {
      "inputs": [
        {
          "internalType": "address",
          "name": "addr",
          "type": "address"
        }
      ],
      "name": "addMinter",
      "outputs": [],
      "stateMutability": "nonpayable",
      "type": "function"
    },
    {
      "inputs": [
        {
          "internalType": "address",
          "name": "addr",
          "type": "address"
        },
        {
          "internalType": "uint256",
          "name": "level",
          "type": "uint256"
        }
      ],
      "name": "addShareholder",
      "outputs": [],
      "stateMutability": "payable",
      "type": "function"
    },
    {
      "inputs": [
        {
          "internalType": "address",
          "name": "addr",
          "type": "address"
        },
        {
          "internalType": "bytes32",
          "name": "encrypted",
          "type": "bytes32"
        },
        {
          "internalType": "bytes",
          "name": "signature",
          "type": "bytes"
        }
      ],
      "name": "addTransferAgent",
      "outputs": [],
      "stateMutability": "nonpayable",
      "type": "function"
    },
    {
      "inputs": [
        {
          "internalType": "address",
          "name": "addr",
          "type": "address"
        },
        {
          "internalType": "string",
          "name": "hash",
          "type": "string"
        }
      ],
      "name": "addVerified",
      "outputs": [],
      "stateMutability": "nonpayable",
      "type": "function"
    },
    {
      "inputs": [
        {
          "internalType": "address",
          "name": "_owner",
          "type": "address"
        },
        {
          "internalType": "address",
          "name": "spender",
          "type": "address"
        }
      ],
      "name": "allowance",
      "outputs": [
        {
          "internalType": "uint256",
          "name": "",
          "type": "uint256"
        }
      ],
      "stateMutability": "view",
      "type": "function"
    },
    {
      "inputs": [
        {
          "internalType": "address",
          "name": "original",
          "type": "address"
        },
        {
          "internalType": "address",
          "name": "replacement",
          "type": "address"
        }
      ],
      "name": "cancelAndReissue",
      "outputs": [],
      "stateMutability": "nonpayable",
      "type": "function"
    },
    {
      "inputs": [],
      "name": "decimals",
      "outputs": [
        {
          "internalType": "uint8",
          "name": "",
          "type": "uint8"
        }
      ],
      "stateMutability": "view",
      "type": "function"
    },
    {
      "inputs": [
        {
          "internalType": "address",
          "name": "addr",
          "type": "address"
        }
      ],
      "name": "getCurrentFor",
      "outputs": [
        {
          "internalType": "address",
          "name": "",
          "type": "address"
        }
      ],
      "stateMutability": "payable",
      "type": "function"
    },
    {
      "inputs": [],
      "name": "getOwner",
      "outputs": [
        {
          "internalType": "address",
          "name": "",
          "type": "address"
        }
      ],
      "stateMutability": "payable",
      "type": "function"
    },
    {
      "inputs": [
        {
          "internalType": "uint256",
          "name": "index",
          "type": "uint256"
        }
      ],
      "name": "holderAt",
      "outputs": [
        {
          "internalType": "address",
          "name": "",
          "type": "address"
        }
      ],
      "stateMutability": "payable",
      "type": "function"
    },
    {
      "inputs": [],
      "name": "holderCount",
      "outputs": [
        {
          "internalType": "uint256",
          "name": "",
          "type": "uint256"
        }
      ],
      "stateMutability": "payable",
      "type": "function"
    },
    {
      "inputs": [
        {
          "internalType": "address",
          "name": "addr",
          "type": "address"
        }
      ],
      "name": "isSuperseded",
      "outputs": [
        {
          "internalType": "bool",
          "name": "",
          "type": "bool"
        }
      ],
      "stateMutability": "payable",
      "type": "function"
    },
    {
      "inputs": [
        {
          "internalType": "address",
          "name": "addr",
          "type": "address"
        }
      ],
      "name": "isVerified",
      "outputs": [
        {
          "internalType": "bool",
          "name": "",
          "type": "bool"
        }
      ],
      "stateMutability": "payable",
      "type": "function"
    },
    {
      "inputs": [],
      "name": "marketCap",
      "outputs": [
        {
          "internalType": "uint256",
          "name": "",
          "type": "uint256"
        }
      ],
      "stateMutability": "view",
      "type": "function"
    },
    {
      "inputs": [],
      "name": "name",
      "outputs": [
        {
          "internalType": "string",
          "name": "",
          "type": "string"
        }
      ],
      "stateMutability": "view",
      "type": "function"
    },
    {
      "inputs": [],
      "name": "parValue",
      "outputs": [
        {
          "internalType": "uint256",
          "name": "",
          "type": "uint256"
        }
      ],
      "stateMutability": "view",
      "type": "function"
    },
    {
      "inputs": [
        {
          "internalType": "address",
          "name": "addr",
          "type": "address"
        },
        {
          "internalType": "bytes32",
          "name": "encrypted",
          "type": "bytes32"
        },
        {
          "internalType": "bytes",
          "name": "signature",
          "type": "bytes"
        }
      ],
      "name": "removeTransferAgent",
      "outputs": [],
      "stateMutability": "nonpayable",
      "type": "function"
    },
    {
      "inputs": [
        {
          "internalType": "address",
          "name": "addr",
          "type": "address"
        }
      ],
      "name": "removeVerified",
      "outputs": [],
      "stateMutability": "nonpayable",
      "type": "function"
    },
    {
      "inputs": [
        {
          "internalType": "uint256",
          "name": "value",
          "type": "uint256"
        }
      ],
      "name": "setMaxUnaccreditInvestors",
      "outputs": [],
      "stateMutability": "nonpayable",
      "type": "function"
    },
    {
      "inputs": [
        {
          "internalType": "address",
          "name": "_contract",
          "type": "address"
        },
        {
          "internalType": "uint256",
          "name": "value",
          "type": "uint256"
        }
      ],
      "name": "setParValue",
      "outputs": [],
      "stateMutability": "payable",
      "type": "function"
    },
    {
      "inputs": [],
      "name": "sharesOustanding",
      "outputs": [
        {
          "internalType": "uint256",
          "name": "",
          "type": "uint256"
        }
      ],
      "stateMutability": "view",
      "type": "function"
    },
    {
      "inputs": [],
      "name": "start",
      "outputs": [],
      "stateMutability": "nonpayable",
      "type": "function"
    },
    {
      "inputs": [],
      "name": "stop",
      "outputs": [],
      "stateMutability": "nonpayable",
      "type": "function"
    },
    {
      "inputs": [],
      "name": "symbol",
      "outputs": [
        {
          "internalType": "string",
          "name": "",
          "type": "string"
        }
      ],
      "stateMutability": "view",
      "type": "function"
    },
    {
      "inputs": [
        {
          "internalType": "string",
          "name": "name",
          "type": "string"
        },
        {
          "internalType": "uint256",
          "name": "timestamp",
          "type": "uint256"
        },
        {
          "internalType": "bool",
          "name": "_active",
          "type": "bool"
        },
        {
          "internalType": "uint256",
          "name": "_initial_supply",
          "type": "uint256"
        }
      ],
      "name": "toggleExemptOffering",
      "outputs": [],
      "stateMutability": "nonpayable",
      "type": "function"
    },
    {
      "inputs": [],
      "name": "totalValueMax",
      "outputs": [
        {
          "internalType": "uint256",
          "name": "",
          "type": "uint256"
        }
      ],
      "stateMutability": "view",
      "type": "function"
    },
    {
      "inputs": [
        {
          "internalType": "address",
          "name": "to",
          "type": "address"
        },
        {
          "internalType": "uint256",
          "name": "value",
          "type": "uint256"
        },
        {
          "internalType": "uint256",
          "name": "epoch",
          "type": "uint256"
        }
      ],
      "name": "transfer",
      "outputs": [
        {
          "internalType": "bool",
          "name": "",
          "type": "bool"
        }
      ],
      "stateMutability": "nonpayable",
      "type": "function"
    },
    {
      "inputs": [
        {
          "internalType": "address",
          "name": "from",
          "type": "address"
        },
        {
          "internalType": "address",
          "name": "to",
          "type": "address"
        },
        {
          "internalType": "uint256",
          "name": "value",
          "type": "uint256"
        },
        {
          "internalType": "uint256",
          "name": "epoch",
          "type": "uint256"
        }
      ],
      "name": "transferFrom",
      "outputs": [
        {
          "internalType": "bool",
          "name": "",
          "type": "bool"
        }
      ],
      "stateMutability": "nonpayable",
      "type": "function"
    },
    {
      "inputs": [
        {
          "internalType": "address",
          "name": "addr",
          "type": "address"
        },
        {
          "internalType": "string",
          "name": "hash",
          "type": "string"
        }
      ],
      "name": "updateVerified",
      "outputs": [],
      "stateMutability": "nonpayable",
      "type": "function"
    },
    {
      "inputs": [
        {
          "internalType": "address",
          "name": "addr",
          "type": "address"
        }
      ],
      "name": "balanceOf",
      "outputs": [
        {
          "internalType": "uint256",
          "name": "",
          "type": "uint256"
        }
      ],
      "stateMutability": "payable",
      "type": "function"
    },
    {
      "inputs": [
        {
          "internalType": "address",
          "name": "_to",
          "type": "address"
        },
        {
          "internalType": "uint256",
          "name": "_amount",
          "type": "uint256"
        }
      ],
      "name": "mint",
      "outputs": [
        {
          "internalType": "bool",
          "name": "",
          "type": "bool"
        }
      ],
      "stateMutability": "nonpayable",
      "type": "function"
    },
    {
      "inputs": [
        {
          "internalType": "address",
          "name": "_to",
          "type": "address"
        },
        {
          "internalType": "uint256",
          "name": "_amount",
          "type": "uint256"
        },
        {
          "internalType": "uint256",
          "name": "_epoch",
          "type": "uint256"
        },
        {
          "internalType": "uint256",
          "name": "_initial_supply",
          "type": "uint256"
        }
      ],
      "name": "mint",
      "outputs": [
        {
          "internalType": "bool",
          "name": "",
          "type": "bool"
        }
      ],
      "stateMutability": "nonpayable",
      "type": "function"
    },
    {
      "inputs": [
        {
          "internalType": "uint256",
          "name": "amount",
          "type": "uint256"
        },
        {
          "internalType": "uint256",
          "name": "epoch",
          "type": "uint256"
        }
      ],
      "name": "buy",
      "outputs": [],
      "stateMutability": "payable",
      "type": "function"
    },
    {
      "inputs": [
        {
          "internalType": "address payable",
          "name": "sender",
          "type": "address"
        },
        {
          "internalType": "uint256",
          "name": "amount",
          "type": "uint256"
        },
        {
          "internalType": "uint256",
          "name": "epoch",
          "type": "uint256"
        }
      ],
      "name": "sell",
      "outputs": [],
      "stateMutability": "payable",
      "type": "function"
    }
  ],
  "bytecode": "0x608060405260008054600682905560088290556009829055600a829055600c829055600e8054600160ff1990911681179091556301dfe200600f5562eff100601055600160a860020a03199091166101003302179091554290819055600d819055600b556200008430660470de4df820006401000000006200008a81026200096b1704565b62000158565b3360009081526002602052604090205460ff16151560011462000132576040517f08c379a0000000000000000000000000000000000000000000000000000000008152602060048201526024808201527f6163636573732064656e69656420666f7220746865207472616e73666572206160448201527f67656e7400000000000000000000000000000000000000000000000000000000606482015260840160405180910390fd5b60078054600160a060020a031916600160a060020a039390931692909217909155600655565b613deb80620001686000396000f3fe60806040526004361061021e5760003560e060020a9004806379f6472011610127578063b8fb3a51116100af578063cc9a91b411610073578063cc9a91b4146105f5578063d6febde814610615578063dd62ed3e14610628578063fe99049a1461066e578063ffa1ad741461068e57600080fd5b8063b8fb3a511461057b578063b9209e3314610590578063be9a6555146105a3578063c8278b64146105c2578063cc397ed3146105e257600080fd5b806395d89b41116100f657806395d89b41146104b2578063983b2d56146104fb5780639a76d7451461051b578063a647e8ec1461053b578063aa4a637b1461055b57600080fd5b806379f647201461045557806384f78a9814610475578063893d20e8146104955780638bf140941461049d57600080fd5b80632ff2e9dc116101aa5780634487b392116101795780634487b392146103dc57806355c904d3146103fc5780636a2724621461041c57806370a082311461042f578063757249901461044257600080fd5b80632ff2e9dc14610368578063313ce5671461037f57806340c10f19146103a6578063425fd0ae146103c657600080fd5b8063197bc336116101f1578063197bc336146102e35780631aab9a9f1461030e5780632c135b93146103245780632cea64bf1461033a5780632da7293e1461035557600080fd5b806306fdde031461022357806307da68f514610282578063095bcdb6146102a05780630b08058c146102d0575b600080fd5b34801561022f57600080fd5b5061026c6040518060400160405280600e81526020017f52756c652037303120546f6b656e00000000000000000000000000000000000081525081565b6040516102799190613608565b60405180910390f35b34801561028e57600080fd5b5061029e6000805460ff19169055565b005b3480156102ac57600080fd5b506102c06102bb366004613637565b6106d7565b6040519015158152602001610279565b61029e6102de36600461366c565b61096b565b6102f66102f1366004613698565b6109c8565b604051600160a060020a039091168152602001610279565b610316610a67565b604051908152602001610279565b34801561033057600080fd5b5061031660095481565b34801561034657600080fd5b50610316660470de4df8200081565b6102c06103633660046136b1565b610aab565b34801561037457600080fd5b50610316620f424081565b34801561038b57600080fd5b50610394600081565b60405160ff9091168152602001610279565b3480156103b257600080fd5b506102c06103c136600461366c565b610aeb565b3480156103d257600080fd5b5061031660085481565b3480156103e857600080fd5b5061029e6103f73660046136b1565b610d96565b34801561040857600080fd5b5061029e61041736600461377d565b610e34565b61029e61042a366004613637565b610f71565b61031661043d3660046136b1565b6112c1565b61029e61045036600461366c565b6112ec565b34801561046157600080fd5b5061029e6104703660046137cd565b61132d565b34801561048157600080fd5b5061029e610490366004613806565b611403565b6102f661161f565b3480156104a957600080fd5b506103166116fa565b3480156104be57600080fd5b5061026c6040518060400160405280600981526020017f544f4b454e2e373031000000000000000000000000000000000000000000000081525081565b34801561050757600080fd5b5061029e6105163660046136b1565b611711565b34801561052757600080fd5b5061029e610536366004613806565b6117f5565b34801561054757600080fd5b506102c0610556366004613873565b6119f4565b34801561056757600080fd5b5061029e61057636600461377d565b611c38565b34801561058757600080fd5b50610316601e81565b6102c061059e3660046136b1565b611cca565b3480156105af57600080fd5b5061029e6000805460ff19166001179055565b3480156105ce57600080fd5b5061029e6105dd366004613698565b611cd5565b6102f66105f03660046136b1565b611d15565b34801561060157600080fd5b5061029e6106103660046138bc565b611d55565b61029e61062336600461391d565b611efb565b34801561063457600080fd5b506103166106433660046137cd565b600160a060020a03918216600090815260036020908152604080832093909416825291909152205490565b34801561067a57600080fd5b506102c061068936600461393f565b612146565b34801561069a57600080fd5b5061026c6040518060400160405280600581526020017f312e302e3500000000000000000000000000000000000000000000000000000081525081565b600073__ActiveOffering________________________6322f3e2d46040518163ffffffff1660e060020a028152600401602060405180830381865af4158015610725573d6000803e3d6000fd5b505050506040513d601f19601f820116820180604052508101906107499190613985565b6107715760405160e560020a62461bcd028152600401610768906139a2565b60405180910390fd5b6040517eba40ae000000000000000000000000000000000000000000000000000000008152600160a060020a038516600482015273__Transaction___________________________9062ba40ae90602401602060405180830381865af41580156107e0573d6000803e3d6000fd5b505050506040513d601f19601f820116820180604052508101906108049190613985565b6108235760405160e560020a62461bcd028152600401610768906139d9565b61082c846123c9565b610836338461247a565b6000600654846108469190613a29565b60405160e060020a63590c4ef902815290915073__Transaction___________________________9063590c4ef990610889908890859089908990600401613a4e565b602060405180830381865af41580156108a6573d6000803e3d6000fd5b505050506040513d601f19601f820116820180604052508101906108ca9190613a74565b5073__Transaction___________________________63590c4ef933836108f388600019613a8d565b876040518563ffffffff1660e060020a0281526004016109169493929190613a4e565b602060405180830381865af4158015610933573d6000803e3d6000fd5b505050506040513d601f19601f820116820180604052508101906109579190613a74565b506109628585612634565b95945050505050565b3360009081526002602052604090205460ff1615156001146109a25760405160e560020a62461bcd02815260040161076890613aac565b60078054600160a060020a031916600160a060020a039390931692909217909155600655565b3360009081526002602052604081205460ff1615156001146109ff5760405160e560020a62461bcd02815260040161076890613aac565b610a076126a7565b8210610a585760405160e560020a62461bcd02815260206004820152601660248201527f686f6c6465724174206f7574206f6620626f756e6473000000000000000000006044820152606401610768565b610a61826126ba565b92915050565b3360009081526002602052604081205460ff161515600114610a9e5760405160e560020a62461bcd02815260040161076890613aac565b610aa66126a7565b905090565b3360009081526002602052604081205460ff161515600114610ae25760405160e560020a62461bcd02815260040161076890613aac565b610a6182612750565b60006722b1c8c1227a0000600a541115610b705760405160e560020a62461bcd02815260206004820152603c60248201527f6578636565646564202431302c3030302c3030302077697468696e203132206d60448201527f6f6e7468732c207265706f7274696e67206973207265717569726564000000006064820152608401610768565b600b54610b81906301dfe200613b09565b421115610b8d5742600b555b3360009081526002602052604090205460ff161515600114610bc45760405160e560020a62461bcd02815260040161076890613aac565b33600090815260056020526040902054600114610c265760405160e560020a62461bcd02815260206004820152600c60248201527f6e6f742061206d696e74657200000000000000000000000000000000000000006044820152606401610768565b73__ActiveOffering________________________6322f3e2d46040518163ffffffff1660e060020a028152600401602060405180830381865af4158015610c72573d6000803e3d6000fd5b505050506040513d601f19601f82011682018060405250810190610c969190613985565b610cb55760405160e560020a62461bcd028152600401610768906139a2565b610cbe83612782565b610cdd5760405160e560020a62461bcd02815260040161076890613b21565b610ce6836123c9565b6000610cf1306127be565b610cfb9084613a29565b60405160e060020a63590c4ef902815290915073__Transaction___________________________9063590c4ef990610d3e908790859088904290600401613a4e565b602060405180830381865af4158015610d5b573d6000803e3d6000fd5b505050506040513d601f19601f82011682018060405250810190610d7f9190613a74565b50610d8e8484620f42406127f8565b949350505050565b3360009081526002602052604090205460ff161515600114610dcd5760405160e560020a62461bcd02815260040161076890613aac565b600160a060020a0381163115610e285760405160e560020a62461bcd02815260206004820152601b60248201527f6163636f756e742062616c616e6365206973206e6f74207a65726f00000000006044820152606401610768565b610e318161289a565b50565b3360009081526002602052604090205460ff161515600114610e6b5760405160e560020a62461bcd02815260040161076890613aac565b600160a060020a038216610eea5760405160e560020a62461bcd02815260206004820152602260248201527f28616464566572696669656429202d2061646472657373206973206d6973736960448201527f6e670000000000000000000000000000000000000000000000000000000000006064820152608401610768565b8051610f3b5760405160e560020a62461bcd02815260206004820152601f60248201527f28616464566572696669656429202d2068617368206973206d697373696e67006044820152606401610768565b610f4482612782565b610f635760405160e560020a62461bcd02815260040161076890613b58565b610f6d828261293b565b5050565b73__ActiveOffering________________________6322f3e2d46040518163ffffffff1660e060020a028152600401602060405180830381865af4158015610fbd573d6000803e3d6000fd5b505050506040513d601f19601f82011682018060405250810190610fe19190613985565b6110005760405160e560020a62461bcd028152600401610768906139a2565b61100983612782565b6110285760405160e560020a62461bcd02815260040161076890613b21565b6040517eba40ae000000000000000000000000000000000000000000000000000000008152600160a060020a038416600482015273__Transaction___________________________9062ba40ae90602401602060405180830381865af4158015611097573d6000803e3d6000fd5b505050506040513d601f19601f820116820180604052508101906110bb9190613985565b6110da5760405160e560020a62461bcd028152600401610768906139d9565b600082116111535760405160e560020a62461bcd02815260206004820152602560248201527f596f75206e65656420746f2073656c6c206174206c6561737420736f6d65207460448201527f6f6b656e730000000000000000000000000000000000000000000000000000006064820152608401610768565b600160a060020a0383166000908152600360209081526040808320308452909152902054828110156111ca5760405160e560020a62461bcd02815260206004820152601960248201527f436865636b2074686520746f6b656e20616c6c6f77616e6365000000000000006044820152606401610768565b6111d5843085612ac4565b60006111e0306127be565b6111ea9085613a29565b60405160e060020a63590c4ef902815290915073__Transaction___________________________9063590c4ef99061122d908890859089908990600401613a4e565b602060405180830381865af415801561124a573d6000803e3d6000fd5b505050506040513d601f19601f8201168201806040525081019061126e9190613a74565b5060408051600160a060020a0387168152602081018690529081018490527fbac9694ac0daa55169abd117086fe32c89401d9a3b15dd1d34e55e0aa4e47a9d906060015b60405180910390a15050505050565b600160a060020a0381166000908152600080516020613d968339815191526020526040812054610a61565b3360009081526002602052604090205460ff1615156001146113235760405160e560020a62461bcd02815260040161076890613aac565b610f6d8282612b80565b3360009081526002602052604090205460ff1615156001146113645760405160e560020a62461bcd02815260040161076890613aac565b73__ActiveOffering________________________6322f3e2d46040518163ffffffff1660e060020a028152600401602060405180830381865af41580156113b0573d6000803e3d6000fd5b505050506040513d601f19601f820116820180604052508101906113d49190613985565b6113f35760405160e560020a62461bcd028152600401610768906139a2565b6113fd8282612d33565b50505050565b600054829082906101009004600160a060020a031633146114695760405160e560020a62461bcd02815260206004820152601760248201527f6163636573732064656e69656420666f72206f776e65720000000000000000006044820152606401610768565b6000546040517f39cdde3200000000000000000000000000000000000000000000000000000000815273__ECVerify______________________________916339cdde32916114cd91869186916101009004600160a060020a031690600401613bb5565b602060405180830381865af41580156114ea573d6000803e3d6000fd5b505050506040513d601f19601f8201168201806040525081019061150e9190613985565b61155d5760405160e560020a62461bcd02815260206004820152601e60248201527f6163636573732064656e6965642c206f776e6572206e6f742076616c696400006044820152606401610768565b600160a060020a038516156115b75760405160e560020a62461bcd02815260206004820152601e60248201527f6d697373696e67207472616e73666572206167656e74206164647265737300006044820152606401610768565b600160a060020a0385166000908152600260205260409020805460ff191690557faf389abc80f1ffdb9d047f10d61eaf63326aa6d693b982d133c6064c1d13d17961160061161f565b60408051600160a060020a0392831681529188166020830152016112b2565b6000601e6001546116309190613b09565b42116116815760405160e560020a62461bcd02815260206004820152601060248201527f72617465206c696d6974206572726f72000000000000000000000000000000006044820152606401610768565b601e6001546116909190613b09565b42116116e15760405160e560020a62461bcd02815260206004820152601060248201527f72617465206c696d6974206572726f72000000000000000000000000000000006044820152606401610768565b50426001556000546101009004600160a060020a031690565b61170e660470de4df82000620f4240613a8d565b81565b3360009081526002602052604090205460ff1615156001146117485760405160e560020a62461bcd02815260040161076890613aac565b600160a060020a0381166117a15760405160e560020a62461bcd02815260206004820152601660248201527f6d697373696e67206d696e7465722061646472657373000000000000000000006044820152606401610768565b600160a060020a0381166000818152600560209081526040918290206001905590519182527f6ae172837ea30b801fbfcdd4108aa1d5bf8ff775444fd70256b44e6bf3dfc3f691015b60405180910390a150565b600054829082906101009004600160a060020a0316331461185b5760405160e560020a62461bcd02815260206004820152601760248201527f6163636573732064656e69656420666f72206f776e65720000000000000000006044820152606401610768565b6000546040517f39cdde3200000000000000000000000000000000000000000000000000000000815273__ECVerify______________________________916339cdde32916118bf91869186916101009004600160a060020a031690600401613bb5565b602060405180830381865af41580156118dc573d6000803e3d6000fd5b505050506040513d601f19601f820116820180604052508101906119009190613985565b61194f5760405160e560020a62461bcd02815260206004820152601e60248201527f6163636573732064656e6965642c206f776e6572206e6f742076616c696400006044820152606401610768565b600160a060020a0385166119a85760405160e560020a62461bcd02815260206004820152601e60248201527f6d697373696e67207472616e73666572206167656e74206164647265737300006044820152606401610768565b600160a060020a0385166000908152600260205260409020805460ff191660011790557f2e4cac6df140daa75de705aceea9de24b1ff332042e59f804e74bdc9b8559d6b61160061161f565b3360009081526002602052604081205460ff161515600114611a2b5760405160e560020a62461bcd02815260040161076890613aac565b33600090815260056020526040902054600114611a8d5760405160e560020a62461bcd02815260206004820152600c60248201527f6e6f742061206d696e74657200000000000000000000000000000000000000006044820152606401610768565b73__ActiveOffering________________________6322f3e2d46040518163ffffffff1660e060020a028152600401602060405180830381865af4158015611ad9573d6000803e3d6000fd5b505050506040513d601f19601f82011682018060405250810190611afd9190613985565b611b1c5760405160e560020a62461bcd028152600401610768906139a2565b42831015611b6f5760405160e560020a62461bcd02815260206004820152601360248201527f74696d652073706f6f66696e67206572726f72000000000000000000000000006044820152606401610768565b611b78856123c9565b600060065485611b889190613a29565b60405160e060020a63590c4ef902815290915073__Transaction___________________________9063590c4ef990611bcb90899085908a908a90600401613a4e565b602060405180830381865af4158015611be8573d6000803e3d6000fd5b505050506040513d601f19601f82011682018060405250810190611c0c9190613a74565b50600754611c2390600160a060020a0316866130c9565b611c2e8686856127f8565b9695505050505050565b3360009081526002602052604090205460ff161515600114611c6f5760405160e560020a62461bcd02815260040161076890613aac565b8051611cc05760405160e560020a62461bcd02815260206004820152601f60248201527f28757064617465566572696669656429202d2068617368206973207a65726f006044820152606401610768565b610f6d8282613107565b6000610a6182612782565b3360009081526002602052604090205460ff161515600114611d0c5760405160e560020a62461bcd02815260040161076890613aac565b610e3181613357565b3360009081526002602052604081205460ff161515600114611d4c5760405160e560020a62461bcd02815260040161076890613aac565b610a6182613367565b3360009081526002602052604090205460ff161515600114611d8c5760405160e560020a62461bcd02815260040161076890613aac565b60048381556040517f5f76f6ab00000000000000000000000000000000000000000000000000000000815273__ActiveOffering________________________91635f76f6ab91611de591869101901515815260200190565b60006040518083038186803b158015611dfd57600080fd5b505af4158015611e11573d6000803e3d6000fd5b505050508115611e955733600160a060020a03167fb9c39a906441691d138569e18a2c9766e29c5def7618306a8f07d7dc1f34627b85604051602001611e579190613be7565b60408051601f1981840301815290829052611e73918790613c28565b60405180910390a260045415611e9057611e8e3382836127f8565b505b6113fd565b33600160a060020a03167fb9c39a906441691d138569e18a2c9766e29c5def7618306a8f07d7dc1f34627b85604051602001611ed19190613c4a565b60408051601f1981840301815290829052611eed918790613c28565b60405180910390a250505050565b73__ActiveOffering________________________6322f3e2d46040518163ffffffff1660e060020a028152600401602060405180830381865af4158015611f47573d6000803e3d6000fd5b505050506040513d601f19601f82011682018060405250810190611f6b9190613985565b611f8a5760405160e560020a62461bcd028152600401610768906139a2565b611f9333612782565b611fb25760405160e560020a62461bcd02815260040161076890613b21565b600082116120055760405160e560020a62461bcd02815260206004820152601b60248201527f596f75206e65656420746f2073656e6420736f6d6520657468657200000000006044820152606401610768565b60085482111561205a5760405160e560020a62461bcd02815260206004820181905260248201527f4e6f7420656e6f7567682073686172657320696e2074686520726573657276656044820152606401610768565b612065303384612ac4565b6000612070306127be565b61207a9084613a29565b60405160e060020a63590c4ef902815290915073__Transaction___________________________9063590c4ef9906120bd903390859088908890600401613a4e565b602060405180830381865af41580156120da573d6000803e3d6000fd5b505050506040513d601f19601f820116820180604052508101906120fe9190613a74565b5060408051338152602081018590529081018390527fa9a40dec7a304e5915d11358b968c1e8d365992abf20f82285d1df1b30c8e24c906060015b60405180910390a1505050565b600073__ActiveOffering________________________6322f3e2d46040518163ffffffff1660e060020a028152600401602060405180830381865af4158015612194573d6000803e3d6000fd5b505050506040513d601f19601f820116820180604052508101906121b89190613985565b6121d75760405160e560020a62461bcd028152600401610768906139a2565b6040517eba40ae000000000000000000000000000000000000000000000000000000008152600160a060020a038516600482015273__Transaction___________________________9062ba40ae90602401602060405180830381865af4158015612246573d6000803e3d6000fd5b505050506040513d601f19601f8201168201806040525081019061226a9190613985565b6122895760405160e560020a62461bcd028152600401610768906139d9565b612292846123c9565b61229c858461247a565b6000600654846122ac9190613a29565b60405160e060020a63590c4ef902815290915073__Transaction___________________________9063590c4ef9906122ef908890859089908990600401613a4e565b602060405180830381865af415801561230c573d6000803e3d6000fd5b505050506040513d601f19601f820116820180604052508101906123309190613a74565b5073__Transaction___________________________63590c4ef9878361235988600019613a8d565b876040518563ffffffff1660e060020a02815260040161237c9493929190613a4e565b602060405180830381865af4158015612399573d6000803e3d6000fd5b505050506040513d601f19601f820116820180604052508101906123bd9190613a74565b50611c2e86868661337b565b6123d281612782565b6123f15760405160e560020a62461bcd02815260040161076890613b21565b6123f96133ef565b600160a060020a03821660009081526001919091016020526040902054610e31576124226133ef565b60040180546001808201835560009283526020909220018054600160a060020a031916600160a060020a03841617905561245a6133ef565b600160a060020a0383166000908152600191909101602052604090205550565b600061249082600160a060020a03851631613c8b565b9050801561249d57505050565b600060016124a96133ef565b600160a060020a038616600090815260019190910160205260409020546124d09190613c8b565b9050600060016124de6133ef565b600401546124ec9190613c8b565b905060006124f86133ef565b600401828154811061250c5761250c613ca2565b600091825260209091200154600160a060020a031690508061252c6133ef565b600401848154811061254057612540613ca2565b9060005260206000200160006101000a815481600160a060020a030219169083600160a060020a031602179055506125766133ef565b600160a060020a0387166000908152600191909101602052604090205461259b6133ef565b600160a060020a038316600090815260019190910160205260409020556125c06133ef565b60040160016125cd6133ef565b600401546125db9190613c8b565b815481106125eb576125eb613ca2565b600091825260208220018054600160a060020a031916905561260b6133ef565b600160a060020a0390971660009081526001979097016020526040909620959095555050505050565b600160a060020a0382166000908152600080516020613d968339815191526020526040812082905560408051600160a060020a0385168152602081018490527f69ca02dd4edd7bf0a4abb9ed3b7af3f14778db5d61921c7dc7cd545266326de2910160405180910390a150600192915050565b60006126b16133ef565b60040154919050565b60006126c46133ef565b6004015482106127195760405160e560020a62461bcd02815260206004820152601660248201527f686f6c6465724174206f7574206f6620626f756e6473000000000000000000006044820152606401610768565b6127216133ef565b600401828154811061273557612735613ca2565b600091825260209091200154600160a060020a031692915050565b60008061275b6133ef565b600160a060020a039384166000908152602091909152604090205490921690911415919050565b60008061278d6133ef565b600160a060020a03841660009081526002919091016020526040902080546127b490613cbb565b9050119050919050565b600160a060020a031660009081527f54970566f6be618430aa9102c0fa36928c087f0d98124c631513f83069647e11602052604090205490565b60008183111561284d5760405160e560020a62461bcd02815260206004820152601460248201527f6578636565647320746f74616c20737570706c790000000000000000000000006044820152606401610768565b60408051600160a060020a0386168152602081018590527f30385c845b448a36257a6a1716e6ad2e1bc2cbe333cde1e69fe849ad6511adfe91015b60405180910390a15060019392505050565b6128a26133ef565b600160a060020a03821660009081526002919091016020526040902080546128c990613cbb565b159050610e31576128d86133ef565b600160a060020a0382166000908152600291909101602052604081206128fd916134dd565b60408051600160a060020a03831681523360208201527f8071c01a493142de896a206c19ca180d32e91d6486fcf11ea299f569f5d922b591016117ea565b61294482613413565b6129b95760405160e560020a62461bcd02815260206004820152602d60248201527f28616464566572696669656429202d20696e766573746f7220697320616c726560448201527f6164792063616e63656c6c6564000000000000000000000000000000000000006064820152608401610768565b6129c16133ef565b600160a060020a03831660009081526002919091016020526040902080546129e890613cbb565b159050612a0a5760405160e560020a62461bcd02815260040161076890613b58565b80612a136133ef565b600201600084600160a060020a0316600160a060020a031681526020019081526020016000209080519060200190612a4c929190613517565b50612a556133ef565b600301805460018101825560009182526020909120018054600160a060020a031916600160a060020a0384161790556040517f550c196a77afc2d9b241c5742cef5ee82f2db8345acf38fed8ba8e2070b6451f90612ab890849084903390613cf9565b60405180910390a15050565b600160a060020a0383166000908152600080516020613d96833981519152602052604081208054839290612af9908490613b09565b9091555050600160a060020a0382166000908152600080516020613d96833981519152602052604081208054839290612b33908490613c8b565b909155505060408051600160a060020a038086168252841660208201529081018290527f4a5c454a446a516f4491813074ec78cf8cd5e34c2514911f982db1ef8ac0fef390606001612139565b612b886133ef565b600160a060020a03831660009081526001919091016020526040902054610f6d578060011415612ca157612bba6133ef565b60070154612bc66133ef565b6005015410612c405760405160e560020a62461bcd02815260206004820152603a60248201527f77696c6c2065786365656420746865206d6178696d756d206e756d626572206f60448201527f66206e6f6e2d6163637265646974656420696e766573746f72730000000000006064820152608401610768565b612c486133ef565b60050180546001808201835560009283526020909220018054600160a060020a031916600160a060020a038516179055612c806133ef565b600160a060020a038416600090815260019190910160205260409020555050565b8060021415612cea57612cb26133ef565b60040180546001808201835560009283526020909220018054600160a060020a031916600160a060020a038516179055612c806133ef565b8060031415610f6d57612cfb6133ef565b60060180546001808201835560009283526020909220018054600160a060020a031916600160a060020a038516179055612c806133ef565b600080612d3f84613444565b612db45760405160e560020a62461bcd02815260206004820152603b60248201527f2863616e63656c616e645265697373756529202d206f726967696e616c20696e60448201527f766573746f72206973206e6f742061207368617265686f6c64657200000000006064820152608401610768565b612dbd83613472565b612e585760405160e560020a62461bcd02815260206004820152605960248201527f2863616e63656c616e645265697373756529202d207265706c6163656d656e7460448201527f20696e766573746f7220697320616c72656164792061207368617265686f6c6460648201527f65722c2072657175697265732061206e65772077616c6c657400000000000000608482015260a401610768565b612e6183612782565b612efd5760405160e560020a62461bcd028152602060048201526044602482018190527f2863616e63656c616e645265697373756529202d207265706c6163656d656e74908201527f20696e766573746f72206973206e6f74206120766572696669656420696e766560648201527f73746f7200000000000000000000000000000000000000000000000000000000608482015260a401610768565b60405180602001604052806000815250612f156133ef565b600201600086600160a060020a0316600160a060020a031681526020019081526020016000209080519060200190612f4e929190613517565b5082612f586133ef565b600160a060020a038681166000908152602092909252604082208054600160a060020a03191693909116929092179091556001612f936133ef565b600160a060020a03871660009081526001919091016020526040902054612fba9190613c8b565b905083612fc56133ef565b6004018281548110612fd957612fd9613ca2565b9060005260206000200160006101000a815481600160a060020a030219169083600160a060020a0316021790555061300f6133ef565b600160a060020a038616600090815260019190910160205260409020546130346133ef565b600160a060020a0386166000908152600191909101602052604081209190915561305c6133ef565b600160a060020a0387811660008181526001939093016020908152604093849020949094558251908152908716928101929092523382820152517fb64971100522354f3d25283cb14e2eefcb0dd26a757482ccfe42479d0a6868579181900360600190a150929391925050565b600160a060020a0382166000908152600080516020613d968339815191526020526040812080548392906130fe908490613b09565b90915550505050565b61311082612782565b6131855760405160e560020a62461bcd02815260206004820152602a60248201527f28757064617465566572696669656429202d206e6f742061207665726966696560448201527f6420696e766573746f72000000000000000000000000000000000000000000006064820152608401610768565b80516131d65760405160e560020a62461bcd02815260206004820152601f60248201527f28757064617465566572696669656429202d2068617368206973207a65726f006044820152606401610768565b60006131e06133ef565b600160a060020a038416600090815260029190910160205260409020805461320790613cbb565b80601f016020809104026020016040519081016040528092919081815260200182805461323390613cbb565b80156132805780601f1061325557610100808354040283529160200191613280565b820191906000526020600020905b81548152906001019060200180831161326357829003601f168201915b50505050509050816040516020016132989190613d2f565b60405160208183030381529060405280519060200120816040516020016132bf9190613d2f565b604051602081830303815290604052805190602001201461335257816132e36133ef565b600201600085600160a060020a0316600160a060020a03168152602001908152602001600020908051906020019061331c929190613517565b507f956cac7563aec785f30b680b47233cb635844cd3f2a1a24c87f96b9b7d4e7544838284336040516121399493929190613d4b565b505050565b806133606133ef565b6007015550565b60006133728261349f565b15611d4c575090565b600160a060020a0383166000908152600080516020613d968339815191526020526133a7848484612ac4565b60408051600160a060020a038087168252851660208201529081018390527fc0d84ce5c7ff9ca21adb0f8436ff3f4951b4bb78c4e2fae2b6837958b3946ffd90606001612888565b7f84d6a4597c1933575f1026ccae683d8d7059c2fe21797bd5217915ddf82f909c90565b60008061341e6133ef565b600160a060020a0393841660009081526020919091526040902054909216909114919050565b600061344e6133ef565b600160a060020a039092166000908152600192909201602052506040902054151590565b600061347c6133ef565b600160a060020a0390921660009081526001929092016020525060409020541590565b6000806134aa6133ef565b600160a060020a0380851660009081526020929092526040909120541614156134d557506001919050565b506000919050565b5080546134e990613cbb565b6000825580601f106134f9575050565b601f016020900490600052602060002090810190610e31919061359b565b82805461352390613cbb565b90600052602060002090601f016020900481019282613545576000855561358b565b82601f1061355e57805160ff191683800117855561358b565b8280016001018555821561358b579182015b8281111561358b578251825591602001919060010190613570565b5061359792915061359b565b5090565b5b80821115613597576000815560010161359c565b60005b838110156135cb5781810151838201526020016135b3565b838111156113fd5750506000910152565b600081518084526135f48160208601602086016135b0565b601f01601f19169290920160200192915050565b60208152600061361b60208301846135dc565b9392505050565b600160a060020a0381168114610e3157600080fd5b60008060006060848603121561364c57600080fd5b833561365781613622565b95602085013595506040909401359392505050565b6000806040838503121561367f57600080fd5b823561368a81613622565b946020939093013593505050565b6000602082840312156136aa57600080fd5b5035919050565b6000602082840312156136c357600080fd5b813561361b81613622565b60e060020a634e487b7102600052604160045260246000fd5b600067ffffffffffffffff80841115613702576137026136ce565b604051601f8501601f19908116603f0116810190828211818310171561372a5761372a6136ce565b8160405280935085815286868601111561374357600080fd5b858560208301376000602087830101525050509392505050565b600082601f83011261376e57600080fd5b61361b838335602085016136e7565b6000806040838503121561379057600080fd5b823561379b81613622565b9150602083013567ffffffffffffffff8111156137b757600080fd5b6137c38582860161375d565b9150509250929050565b600080604083850312156137e057600080fd5b82356137eb81613622565b915060208301356137fb81613622565b809150509250929050565b60008060006060848603121561381b57600080fd5b833561382681613622565b925060208401359150604084013567ffffffffffffffff81111561384957600080fd5b8401601f8101861361385a57600080fd5b613869868235602084016136e7565b9150509250925092565b6000806000806080858703121561388957600080fd5b843561389481613622565b966020860135965060408601359560600135945092505050565b8015158114610e3157600080fd5b600080600080608085870312156138d257600080fd5b843567ffffffffffffffff8111156138e957600080fd5b6138f58782880161375d565b94505060208501359250604085013561390d816138ae565b9396929550929360600135925050565b6000806040838503121561393057600080fd5b50508035926020909101359150565b6000806000806080858703121561395557600080fd5b843561396081613622565b9350602085013561397081613622565b93969395505050506040820135916060013590565b60006020828403121561399757600080fd5b815161361b816138ae565b60208082526016908201527f6f66666572696e67206973206e6f742061637469766500000000000000000000604082015260600190565b6020808252601e908201527f686f6c64696e6720706572696f6420686173206e6f7420657870697265640000604082015260600190565b60e060020a634e487b7102600052601160045260246000fd5b600082613a495760e060020a634e487b7102600052601260045260246000fd5b500490565b600160a060020a0394909416845260208401929092526040830152606082015260800190565b600060208284031215613a8657600080fd5b5051919050565b6000816000190483118215151615613aa757613aa7613a10565b500290565b60208082526024908201527f6163636573732064656e69656420666f7220746865207472616e73666572206160408201527f67656e7400000000000000000000000000000000000000000000000000000000606082015260800190565b60008219821115613b1c57613b1c613a10565b500190565b60208082526018908201527f696e766573746f72206973206e6f742076657269666965640000000000000000604082015260600190565b60208082526029908201527f28616464566572696669656429202d20696e766573746f7220616c726561647960408201527f2076657269666965640000000000000000000000000000000000000000000000606082015260800190565b838152606060208201526000613bce60608301856135dc565b9050600160a060020a0383166040830152949350505050565b60008251613bf98184602087016135b0565b7f2068617320737461727465640000000000000000000000000000000000000000920191825250600c01919050565b604081526000613c3b60408301856135dc565b90508260208301529392505050565b60008251613c5c8184602087016135b0565b7f206861732073746f707065640000000000000000000000000000000000000000920191825250600c01919050565b600082821015613c9d57613c9d613a10565b500390565b60e060020a634e487b7102600052603260045260246000fd5b600281046001821680613ccf57607f821691505b60208210811415613cf35760e060020a634e487b7102600052602260045260246000fd5b50919050565b6000600160a060020a03808616835260606020840152613d1c60608401866135dc565b9150808416604084015250949350505050565b60008251613d418184602087016135b0565b9190910192915050565b6000600160a060020a03808716835260806020840152613d6e60808401876135dc565b8381036040850152613d8081876135dc565b9250508084166060840152509594505050505056fe9ce25e1144afcae8c0e64aa04f61adef5dcaf2f72b7efdf41d46270ad83d32d7a2646970667358221220adf82faba4fafb0ba077ea3a2c9362efc2f12d89a13966b47d8f4155f179d77c64736f6c634300080a0033",
  "immutableReferences": {},
  "source": "// SPDX-License-Identifier: CC-BY-4.0\npragma solidity >=0.4.22 <0.9.0;\n\n/**\n * Employee benefit plans  Rule 701\n * See https://www.sec.gov/smallbusiness/exemptofferings/rule701\n *\n * Rule 701 exempts certain sales of securities made to compensate employees, consultants and advisors.\n * This exemption is not available to Exchange Act reporting companies. A company can sell at least $1 million of securities under this exemption,\n * regardless of its size. A company can sell even more if it satisfies certain formulas based on its assets or on the number of its outstanding securities.\n * If a company sells more than $10 million in securities in a 12-month period, it is required to provide certain financial and other disclosure to the persons\n * that received securities in that period. Securities issued under Rule 701 are restricted securities and may not be freely traded unless the securities\n * are registered or the holders can rely on an exemption\n */\n\nimport \"../Owned.sol\";\nimport \"../Version.sol\";\nimport \"../Frozen.sol\";\nimport \"../Account.sol\";\nimport \"../ActiveOffering.sol\";\nimport \"../Transaction.sol\";\nimport \"../Shareholder.sol\";\nimport \"../Shares.sol\";\nimport \"../TransferAgent.sol\";\n\ncontract ExemptEquityOffering701 is Version, Frozen, TransferAgent {\n    uint256 constant public INITIAL_SUPPLY = 1000000;\n    string public constant name = \"Rule 701 Token\";\n    string public constant symbol = \"TOKEN.701\";\n    uint8 public constant decimals = 0;\n\n    uint256 public sharesOustanding = 0;\n    uint256 public marketCap        = 0;\n\n    uint constant public parValue = 0.00125 ether;\n    uint constant public totalValueMax = 1000000 * parValue;\n    uint256 private annual_limit = 0;\n    uint256 private start_annual_limit_period;\n    uint private totalValue = 0;\n\n    uint256 private contract_creation; // The contract creation time\n\n    bool private restricted = true;\n\n    uint private year = 52 weeks;\n    uint private sixmonths = 26 weeks;\n\n    event Bought(address sender, uint256 value, uint256 epoch);\n    event Sold(address sender, uint256 value, uint256 epoch);\n\n    constructor()\n        payable\n    {\n        contract_creation = block.timestamp;\n        start_annual_limit_period = contract_creation;\n        TransferAgent.setParValue(address(this), parValue);\n    }\n\n\n    modifier isPriceBelowParValue(uint amount) {\n      require(amount > parValue, \"amount is below par value\");\n      _;\n    }\n\n    modifier isRestrictedSecurity() {\n      require(restricted != false, \"security is restricted\");\n      _;\n    }\n\n    modifier soldGreaterTenMillionperYear() {\n        require (annual_limit <= 2.5 ether,\"exceeded $10,000,000 within 12 months, reporting is required\");\n        _;\n    }\n\n    modifier isReachedTwelveMonths() {\n        if (block.timestamp > (start_annual_limit_period + 52 weeks)) {\n            start_annual_limit_period = block.timestamp;\n        }\n        _;\n    }\n\n    function balanceOf(address addr)\n      public\n      payable\n      returns (uint256)\n    {\n      return Account.getBalance(addr);\n    }\n\n\n    /**\n     * As each token is minted it is added to the shareholders array.\n     * @param _to The address that will receive the minted tokens.\n     * @param _amount The amount of tokens to mint.\n     * @return A boolean that indicates if the operation was successful.\n     */\n    function mint(address _to, uint256 _amount)\n        public\n        soldGreaterTenMillionperYear\n        isReachedTwelveMonths\n        onlyTransferAgent\n        isMinter\n        returns (bool)\n    {\n        require(ActiveOffering.isActive(),\"offering is not active\");\n        require(Shareholder.isVerifiedAddress(_to),\"investor is not verified\");\n        // if the address does not already own share then\n        // add the address to the shareholders array and record the index.\n        Shareholder.updateShareholders(_to);\n        uint256 _shares = _amount / Shares.getParValue(address(this));\n        Transaction.addTransaction(_to, _shares, _amount, block.timestamp);\n\n        return _mint(_to, _amount, INITIAL_SUPPLY);\n    }\n\n\n    function buy(uint256 amount, uint256 epoch)\n        public\n        payable\n    {\n        require(ActiveOffering.isActive(),\"offering is not active\");\n        require(Shareholder.isVerifiedAddress(msg.sender),\"investor is not verified\");\n        require(amount > 0, \"You need to send some ether\");\n        require(amount <= sharesOustanding, \"Not enough shares in the reserve\");\n\n        Account.transfer(address(this), msg.sender, amount);\n        uint256 shares = amount / Shares.getParValue(address(this));\n        Transaction.addTransaction(msg.sender, shares, amount, epoch);\n        emit Bought(msg.sender,amount,epoch);\n    }\n\n\n    function sell(address payable sender,uint256 amount,uint256 epoch)\n        public\n        payable\n    {\n        require(ActiveOffering.isActive(),\"offering is not active\");\n        require(Shareholder.isVerifiedAddress(sender),\"investor is not verified\");\n        require(Transaction.isHoldingPeriodOver(sender),\"holding period has not expired\");\n        require(amount > 0, \"You need to sell at least some tokens\");\n        uint256 __allowance = allowance(sender, address(this));\n        require(__allowance >= amount, \"Check the token allowance\");\n        Account.transfer(sender, address(this), amount);\n        uint256 shares = amount / Shares.getParValue(address(this));\n        Transaction.addTransaction(sender, shares, amount, epoch);\n        emit Sold(sender,amount,epoch);\n    }\n}\n",
  "sourcePath": "G:\\projects\\pingleware-contracts\\contracts\\equity\\ExemptEquityOffering701.sol",
  "compiler": {
    "name": "solc",
    "version": "0.8.10+commit.fc410830.Emscripten.clang"
  },
  "schemaVersion": "3.4.3",
  "updatedAt": "2021-12-24T16:15:20.382Z",
  "devdoc": {
    "kind": "dev",
    "methods": {
      "addVerified(address,string)": {
        "params": {
          "addr": "The address of the person represented by the supplied hash.",
          "hash": "A cryptographic hash of the address holder's verified information."
        }
      },
      "cancelAndReissue(address,address)": {
        "params": {
          "original": "The address to be superseded. This address MUST NOT be reused.",
          "replacement": "The address  that supersedes the original. This address MUST be verified."
        }
      },
      "getCurrentFor(address)": {
        "params": {
          "addr": "The superseded address."
        },
        "returns": {
          "_0": "the verified address that ultimately holds the share."
        }
      },
      "holderAt(uint256)": {
        "params": {
          "index": "The zero-based index of the holder."
        },
        "returns": {
          "_0": "the address of the token holder with the given index."
        }
      },
      "holderCount()": {
        "returns": {
          "_0": "the number of unique addresses that own tokens."
        }
      },
      "isSuperseded(address)": {
        "params": {
          "addr": "The address to check."
        },
        "returns": {
          "_0": "true if the supplied address was superseded by another address."
        }
      },
      "isVerified(address)": {
        "params": {
          "addr": "The address to test."
        },
        "returns": {
          "_0": "true if the address is known to the contract."
        }
      },
      "mint(address,uint256)": {
        "params": {
          "_amount": "The amount of tokens to mint.",
          "_to": "The address that will receive the minted tokens."
        },
        "returns": {
          "_0": "A boolean that indicates if the operation was successful."
        }
      },
      "mint(address,uint256,uint256,uint256)": {
        "params": {
          "_amount": "The amount of tokens to mint.",
          "_to": "The address that will receive the minted tokens."
        },
        "returns": {
          "_0": "A boolean that indicates if the operation was successful."
        }
      },
      "removeVerified(address)": {
        "params": {
          "addr": "The verified address to be removed."
        }
      },
      "updateVerified(address,string)": {
        "params": {
          "addr": "The verified address of the person represented by the supplied hash.",
          "hash": "A new cryptographic hash of the address holder's updated verified information."
        }
      }
    },
    "version": 1
  },
  "userdoc": {
    "kind": "user",
    "methods": {
      "addShareholder(address,uint256)": {
        "notice": "Shareholder level:    1 = non-accredited shareholder    2 = accredited shareholder    3 = affiliate shareholder "
      },
      "addVerified(address,string)": {
        "notice": "Add a verified address, along with an associated verification hash to the contract.  Upon successful addition of a verified address, the contract must emit  `VerifiedAddressAdded(addr, hash, msg.sender)`.  It MUST throw if the supplied address or hash are zero, or if the address has already been supplied."
      },
      "cancelAndReissue(address,address)": {
        "notice": "Cancel the original address and reissue the Tokens to the replacement address.  Access to this function MUST be strictly controlled.  The `original` address MUST be removed from the set of verified addresses.  Throw if the `original` address supplied is not a shareholder.  Throw if the replacement address is not a verified address.  This function MUST emit the `VerifiedAddressSuperseded` event."
      },
      "getCurrentFor(address)": {
        "notice": "Gets the most recent address, given a superseded one.  Addresses may be superseded multiple times, so this function needs to  follow the chain of addresses until it reaches the final, verified address."
      },
      "holderAt(uint256)": {
        "notice": "By counting the number of token holders using `holderCount`  you can retrieve the complete list of token holders, one at a time.  It MUST throw if `index >= holderCount()`."
      },
      "holderCount()": {
        "notice": "The number of addresses that own tokens."
      },
      "isSuperseded(address)": {
        "notice": "Checks to see if the supplied address was superseded."
      },
      "isVerified(address)": {
        "notice": "Tests that the supplied address is known to the contract."
      },
      "mint(address,uint256)": {
        "notice": "As each token is minted it is added to the shareholders array."
      },
      "mint(address,uint256,uint256,uint256)": {
        "notice": "As each token is minted it is added to the shareholders array."
      },
      "removeVerified(address)": {
        "notice": "Remove a verified address, and the associated verification hash. If the address is  unkblock.timestampn to the contract then this does nothing. If the address is successfully removed, this  function must emit `VerifiedAddressRemoved(addr, msg.sender)`.  It MUST throw if an attempt is made to remove a verifiedAddress that owns Tokens."
      },
      "transfer(address,uint256,uint256)": {
        "notice": "The `transfer` function MUST NOT allow transfers to addresses that  have not been verified and added to the contract.  If the `to` address is not currently a shareholder then it MUST become one.  If the transfer will reduce `msg.sender`'s balance to 0 then that address  MUST be removed from the list of shareholders."
      },
      "transferFrom(address,address,uint256,uint256)": {
        "notice": "The `transferFrom` function MUST NOT allow transfers to addresses that  have not been verified and added to the contract.  If the `to` address is not currently a shareholder then it MUST become one.  If the transfer will reduce `from`'s balance to 0 then that address  MUST be removed from the list of shareholders."
      },
      "updateVerified(address,string)": {
        "notice": "Update the hash for a verified address known to the contract.  Upon successful update of a verified address the contract must emit  `VerifiedAddressUpdated(addr, oldHash, hash, msg.sender)`.  If the hash is the same as the value already stored then  no `VerifiedAddressUpdated` event is to be emitted.  It MUST throw if the hash is zero, or if the address is unverified."
      }
    },
    "version": 1
  }
}