{
  "contractName": "ExemptEquityOfferingRegA",
  "abi": [
    {
      "inputs": [],
      "stateMutability": "nonpayable",
      "type": "constructor"
    },
    {
      "anonymous": false,
      "inputs": [
        {
          "indexed": false,
          "internalType": "uint256",
          "name": "value",
          "type": "uint256"
        }
      ],
      "name": "Bought",
      "type": "event"
    },
    {
      "anonymous": false,
      "inputs": [
        {
          "indexed": true,
          "internalType": "address",
          "name": "from",
          "type": "address"
        },
        {
          "indexed": false,
          "internalType": "string",
          "name": "status",
          "type": "string"
        },
        {
          "indexed": false,
          "internalType": "uint256",
          "name": "value",
          "type": "uint256"
        }
      ],
      "name": "ExemptOffering",
      "type": "event"
    },
    {
      "anonymous": false,
      "inputs": [
        {
          "indexed": false,
          "internalType": "address",
          "name": "addr",
          "type": "address"
        },
        {
          "indexed": false,
          "internalType": "uint256",
          "name": "amount",
          "type": "uint256"
        }
      ],
      "name": "Minted",
      "type": "event"
    },
    {
      "anonymous": false,
      "inputs": [
        {
          "indexed": false,
          "internalType": "address",
          "name": "addr",
          "type": "address"
        }
      ],
      "name": "MinterAdded",
      "type": "event"
    },
    {
      "anonymous": false,
      "inputs": [
        {
          "indexed": false,
          "internalType": "uint256",
          "name": "value",
          "type": "uint256"
        }
      ],
      "name": "Sold",
      "type": "event"
    },
    {
      "anonymous": false,
      "inputs": [
        {
          "indexed": false,
          "internalType": "address",
          "name": "addr",
          "type": "address"
        },
        {
          "indexed": false,
          "internalType": "uint256",
          "name": "amount",
          "type": "uint256"
        }
      ],
      "name": "Transfer",
      "type": "event"
    },
    {
      "anonymous": false,
      "inputs": [
        {
          "indexed": false,
          "internalType": "address",
          "name": "addr",
          "type": "address"
        }
      ],
      "name": "TransferAgentAdded",
      "type": "event"
    },
    {
      "anonymous": false,
      "inputs": [
        {
          "indexed": false,
          "internalType": "address",
          "name": "addr",
          "type": "address"
        }
      ],
      "name": "TransferAgentRemoved",
      "type": "event"
    },
    {
      "anonymous": false,
      "inputs": [
        {
          "indexed": false,
          "internalType": "address",
          "name": "from",
          "type": "address"
        },
        {
          "indexed": false,
          "internalType": "address",
          "name": "to",
          "type": "address"
        },
        {
          "indexed": false,
          "internalType": "uint256",
          "name": "value",
          "type": "uint256"
        }
      ],
      "name": "TransferFrom",
      "type": "event"
    },
    {
      "anonymous": false,
      "inputs": [
        {
          "indexed": false,
          "internalType": "address",
          "name": "addr",
          "type": "address"
        },
        {
          "indexed": false,
          "internalType": "bytes32",
          "name": "hash",
          "type": "bytes32"
        },
        {
          "indexed": false,
          "internalType": "address",
          "name": "sender",
          "type": "address"
        }
      ],
      "name": "VerifiedAddressAdded",
      "type": "event"
    },
    {
      "anonymous": false,
      "inputs": [
        {
          "indexed": false,
          "internalType": "address",
          "name": "addr",
          "type": "address"
        },
        {
          "indexed": false,
          "internalType": "address",
          "name": "sender",
          "type": "address"
        }
      ],
      "name": "VerifiedAddressRemoved",
      "type": "event"
    },
    {
      "anonymous": false,
      "inputs": [
        {
          "indexed": false,
          "internalType": "address",
          "name": "addr1",
          "type": "address"
        },
        {
          "indexed": false,
          "internalType": "address",
          "name": "addr2",
          "type": "address"
        },
        {
          "indexed": false,
          "internalType": "address",
          "name": "addr3",
          "type": "address"
        }
      ],
      "name": "VerifiedAddressSuperseded",
      "type": "event"
    },
    {
      "anonymous": false,
      "inputs": [
        {
          "indexed": false,
          "internalType": "address",
          "name": "addr",
          "type": "address"
        },
        {
          "indexed": false,
          "internalType": "bytes32",
          "name": "oldhash",
          "type": "bytes32"
        },
        {
          "indexed": false,
          "internalType": "bytes32",
          "name": "hash",
          "type": "bytes32"
        },
        {
          "indexed": false,
          "internalType": "address",
          "name": "sender",
          "type": "address"
        }
      ],
      "name": "VerifiedAddressUpdated",
      "type": "event"
    },
    {
      "inputs": [],
      "name": "VERSION",
      "outputs": [
        {
          "internalType": "string",
          "name": "",
          "type": "string"
        }
      ],
      "stateMutability": "view",
      "type": "function"
    },
    {
      "inputs": [
        {
          "internalType": "address",
          "name": "",
          "type": "address"
        }
      ],
      "name": "balances",
      "outputs": [
        {
          "internalType": "uint256",
          "name": "",
          "type": "uint256"
        }
      ],
      "stateMutability": "view",
      "type": "function"
    },
    {
      "inputs": [],
      "name": "decimals",
      "outputs": [
        {
          "internalType": "uint8",
          "name": "",
          "type": "uint8"
        }
      ],
      "stateMutability": "view",
      "type": "function"
    },
    {
      "inputs": [],
      "name": "name",
      "outputs": [
        {
          "internalType": "string",
          "name": "",
          "type": "string"
        }
      ],
      "stateMutability": "view",
      "type": "function"
    },
    {
      "inputs": [],
      "name": "negative",
      "outputs": [
        {
          "internalType": "uint256",
          "name": "",
          "type": "uint256"
        }
      ],
      "stateMutability": "view",
      "type": "function"
    },
    {
      "inputs": [],
      "name": "owner",
      "outputs": [
        {
          "internalType": "address",
          "name": "",
          "type": "address"
        }
      ],
      "stateMutability": "view",
      "type": "function"
    },
    {
      "inputs": [],
      "name": "parValue",
      "outputs": [
        {
          "internalType": "uint256",
          "name": "",
          "type": "uint256"
        }
      ],
      "stateMutability": "view",
      "type": "function"
    },
    {
      "inputs": [],
      "name": "symbol",
      "outputs": [
        {
          "internalType": "string",
          "name": "",
          "type": "string"
        }
      ],
      "stateMutability": "view",
      "type": "function"
    },
    {
      "inputs": [],
      "name": "totalSupply",
      "outputs": [
        {
          "internalType": "uint256",
          "name": "",
          "type": "uint256"
        }
      ],
      "stateMutability": "view",
      "type": "function"
    },
    {
      "inputs": [],
      "name": "totalValueMax",
      "outputs": [
        {
          "internalType": "uint256",
          "name": "",
          "type": "uint256"
        }
      ],
      "stateMutability": "view",
      "type": "function"
    },
    {
      "inputs": [
        {
          "internalType": "address",
          "name": "",
          "type": "address"
        },
        {
          "internalType": "uint256",
          "name": "",
          "type": "uint256"
        }
      ],
      "name": "transactions",
      "outputs": [
        {
          "internalType": "address",
          "name": "addr",
          "type": "address"
        },
        {
          "internalType": "uint256",
          "name": "amount",
          "type": "uint256"
        },
        {
          "internalType": "uint256",
          "name": "time",
          "type": "uint256"
        }
      ],
      "stateMutability": "view",
      "type": "function"
    },
    {
      "inputs": [
        {
          "internalType": "address",
          "name": "addr",
          "type": "address"
        }
      ],
      "name": "balanceOf",
      "outputs": [
        {
          "internalType": "uint256",
          "name": "",
          "type": "uint256"
        }
      ],
      "stateMutability": "view",
      "type": "function"
    },
    {
      "inputs": [
        {
          "internalType": "address",
          "name": "_owner",
          "type": "address"
        },
        {
          "internalType": "address",
          "name": "spender",
          "type": "address"
        }
      ],
      "name": "allowance",
      "outputs": [
        {
          "internalType": "uint256",
          "name": "",
          "type": "uint256"
        }
      ],
      "stateMutability": "view",
      "type": "function"
    },
    {
      "inputs": [
        {
          "internalType": "address",
          "name": "addr",
          "type": "address"
        }
      ],
      "name": "addMinter",
      "outputs": [],
      "stateMutability": "nonpayable",
      "type": "function"
    },
    {
      "inputs": [
        {
          "internalType": "address",
          "name": "addr",
          "type": "address"
        }
      ],
      "name": "addTransferAgent",
      "outputs": [],
      "stateMutability": "nonpayable",
      "type": "function"
    },
    {
      "inputs": [
        {
          "internalType": "address",
          "name": "addr",
          "type": "address"
        }
      ],
      "name": "removeTransferAgent",
      "outputs": [],
      "stateMutability": "nonpayable",
      "type": "function"
    },
    {
      "inputs": [
        {
          "internalType": "address",
          "name": "_to",
          "type": "address"
        },
        {
          "internalType": "uint256",
          "name": "_amount",
          "type": "uint256"
        }
      ],
      "name": "mint",
      "outputs": [
        {
          "internalType": "bool",
          "name": "",
          "type": "bool"
        }
      ],
      "stateMutability": "nonpayable",
      "type": "function"
    },
    {
      "inputs": [
        {
          "internalType": "uint256",
          "name": "timestamp",
          "type": "uint256"
        },
        {
          "internalType": "bool",
          "name": "_active",
          "type": "bool"
        }
      ],
      "name": "toggleExemptOffering",
      "outputs": [],
      "stateMutability": "nonpayable",
      "type": "function"
    },
    {
      "inputs": [
        {
          "internalType": "address",
          "name": "addr",
          "type": "address"
        }
      ],
      "name": "getTransactions",
      "outputs": [
        {
          "internalType": "string",
          "name": "",
          "type": "string"
        }
      ],
      "stateMutability": "view",
      "type": "function"
    },
    {
      "inputs": [
        {
          "internalType": "address",
          "name": "addr",
          "type": "address"
        },
        {
          "internalType": "uint256",
          "name": "index",
          "type": "uint256"
        }
      ],
      "name": "getTransactionByIndex",
      "outputs": [
        {
          "internalType": "string",
          "name": "",
          "type": "string"
        }
      ],
      "stateMutability": "view",
      "type": "function"
    },
    {
      "inputs": [],
      "name": "holderCount",
      "outputs": [
        {
          "internalType": "uint256",
          "name": "",
          "type": "uint256"
        }
      ],
      "stateMutability": "view",
      "type": "function"
    },
    {
      "inputs": [
        {
          "internalType": "uint256",
          "name": "index",
          "type": "uint256"
        }
      ],
      "name": "holderAt",
      "outputs": [
        {
          "internalType": "address",
          "name": "",
          "type": "address"
        }
      ],
      "stateMutability": "view",
      "type": "function"
    },
    {
      "inputs": [
        {
          "internalType": "address",
          "name": "addr",
          "type": "address"
        },
        {
          "internalType": "bytes32",
          "name": "hash",
          "type": "bytes32"
        }
      ],
      "name": "addVerified",
      "outputs": [],
      "stateMutability": "nonpayable",
      "type": "function"
    },
    {
      "inputs": [
        {
          "internalType": "address",
          "name": "addr",
          "type": "address"
        }
      ],
      "name": "removeVerified",
      "outputs": [],
      "stateMutability": "nonpayable",
      "type": "function"
    },
    {
      "inputs": [
        {
          "internalType": "address",
          "name": "addr",
          "type": "address"
        },
        {
          "internalType": "bytes32",
          "name": "hash",
          "type": "bytes32"
        }
      ],
      "name": "updateVerified",
      "outputs": [],
      "stateMutability": "nonpayable",
      "type": "function"
    },
    {
      "inputs": [
        {
          "internalType": "address",
          "name": "original",
          "type": "address"
        },
        {
          "internalType": "address",
          "name": "replacement",
          "type": "address"
        }
      ],
      "name": "cancelAndReissue",
      "outputs": [],
      "stateMutability": "nonpayable",
      "type": "function"
    },
    {
      "inputs": [
        {
          "internalType": "address",
          "name": "to",
          "type": "address"
        },
        {
          "internalType": "uint256",
          "name": "value",
          "type": "uint256"
        }
      ],
      "name": "transfer",
      "outputs": [
        {
          "internalType": "bool",
          "name": "",
          "type": "bool"
        }
      ],
      "stateMutability": "nonpayable",
      "type": "function"
    },
    {
      "inputs": [
        {
          "internalType": "address",
          "name": "from",
          "type": "address"
        },
        {
          "internalType": "address",
          "name": "to",
          "type": "address"
        },
        {
          "internalType": "uint256",
          "name": "value",
          "type": "uint256"
        }
      ],
      "name": "transferFrom",
      "outputs": [
        {
          "internalType": "bool",
          "name": "",
          "type": "bool"
        }
      ],
      "stateMutability": "nonpayable",
      "type": "function"
    },
    {
      "inputs": [
        {
          "internalType": "address",
          "name": "addr",
          "type": "address"
        }
      ],
      "name": "isVerified",
      "outputs": [
        {
          "internalType": "bool",
          "name": "",
          "type": "bool"
        }
      ],
      "stateMutability": "view",
      "type": "function"
    },
    {
      "inputs": [
        {
          "internalType": "address",
          "name": "addr",
          "type": "address"
        }
      ],
      "name": "isHolder",
      "outputs": [
        {
          "internalType": "bool",
          "name": "",
          "type": "bool"
        }
      ],
      "stateMutability": "view",
      "type": "function"
    },
    {
      "inputs": [
        {
          "internalType": "address",
          "name": "addr",
          "type": "address"
        },
        {
          "internalType": "bytes32",
          "name": "hash",
          "type": "bytes32"
        }
      ],
      "name": "hasHash",
      "outputs": [
        {
          "internalType": "bool",
          "name": "",
          "type": "bool"
        }
      ],
      "stateMutability": "view",
      "type": "function"
    },
    {
      "inputs": [
        {
          "internalType": "address",
          "name": "addr",
          "type": "address"
        }
      ],
      "name": "isSuperseded",
      "outputs": [
        {
          "internalType": "bool",
          "name": "",
          "type": "bool"
        }
      ],
      "stateMutability": "view",
      "type": "function"
    },
    {
      "inputs": [
        {
          "internalType": "address",
          "name": "addr",
          "type": "address"
        }
      ],
      "name": "getCurrentFor",
      "outputs": [
        {
          "internalType": "address",
          "name": "",
          "type": "address"
        }
      ],
      "stateMutability": "view",
      "type": "function"
    },
    {
      "inputs": [],
      "name": "buy",
      "outputs": [],
      "stateMutability": "payable",
      "type": "function"
    },
    {
      "inputs": [
        {
          "internalType": "address payable",
          "name": "sender",
          "type": "address"
        },
        {
          "internalType": "uint256",
          "name": "amount",
          "type": "uint256"
        }
      ],
      "name": "sell",
      "outputs": [],
      "stateMutability": "payable",
      "type": "function"
    }
  ],
  "bytecode": "0x608060405260006002556000600d60006101000a81548160ff0219169083151502179055506000600f556301dfe2006011556000601360006101000a81548160ff02191690831515021790555062eff1006014553480156200006057600080fd5b50620000ac600b60009054906101000a900473ffffffffffffffffffffffffffffffffffffffff16670de0b6b3a7640000601054620000a09190620001d3565b620000b360201b60201c565b5062000397565b6000600254821115620000fd576040517f08c379a0000000000000000000000000000000000000000000000000000000008152600401620000f49062000295565b60405180910390fd5b81600660008573ffffffffffffffffffffffffffffffffffffffff1673ffffffffffffffffffffffffffffffffffffffff16815260200190815260200160002060008282546200014e9190620002b7565b925050819055507f30385c845b448a36257a6a1716e6ad2e1bc2cbe333cde1e69fe849ad6511adfe8383604051620001889291906200036a565b60405180910390a16001905092915050565b6000819050919050565b7f4e487b7100000000000000000000000000000000000000000000000000000000600052601160045260246000fd5b6000620001e0826200019a565b9150620001ed836200019a565b9250817fffffffffffffffffffffffffffffffffffffffffffffffffffffffffffffffff0483118215151615620002295762000228620001a4565b5b828202905092915050565b600082825260208201905092915050565b7f6578636565647320746f74616c20737570706c79000000000000000000000000600082015250565b60006200027d60148362000234565b91506200028a8262000245565b602082019050919050565b60006020820190508181036000830152620002b0816200026e565b9050919050565b6000620002c4826200019a565b9150620002d1836200019a565b9250827fffffffffffffffffffffffffffffffffffffffffffffffffffffffffffffffff03821115620003095762000308620001a4565b5b828201905092915050565b600073ffffffffffffffffffffffffffffffffffffffff82169050919050565b6000620003418262000314565b9050919050565b620003538162000334565b82525050565b62000364816200019a565b82525050565b600060408201905062000381600083018562000348565b62000390602083018462000359565b9392505050565b61537280620003a76000396000f3fe6080604052600436106102045760003560e01c806347089f6211610118578063a6f2ae3a116100a0578063cc397ed31161006f578063cc397ed31461079b578063d4d7b19a146107d8578063dd62ed3e14610815578063f3221c7f14610852578063ffa1ad741461088f57610204565b8063a6f2ae3a146106ee578063a9059cbb146106f8578063b031459914610735578063b9209e331461075e57610204565b806379f64720116100e757806379f647201461061b5780638bf14094146106445780638da5cb5b1461066f57806395d89b411461069a578063983b2d56146106c557610204565b806347089f6214610570578063610db94e146105995780636c197ff5146105c257806370a08231146105de57610204565b806323b872dd1161019b5780632da7293e1161016a5780632da7293e14610479578063313ce567146104b6578063354b7b1d146104e157806340c10f191461050a5780634487b3921461054757610204565b806323b872dd1461039757806327e235e3146103d45780632ab2efc8146104115780632cea64bf1461044e57610204565b8063197bc336116101d7578063197bc336146102db5780631aab9a9f146103185780631cb3ef1f146103435780631fb716e41461036e57610204565b806306fdde03146102095780630f8cda2014610234578063145381281461027157806318160ddd146102b0575b600080fd5b34801561021557600080fd5b5061021e6108ba565b60405161022b9190614143565b60405180910390f35b34801561024057600080fd5b5061025b600480360381019061025691906141c8565b610948565b6040516102689190614143565b60405180910390f35b34801561027d57600080fd5b506102986004803603810190610293919061422b565b610bc6565b6040516102a793929190614289565b60405180910390f35b3480156102bc57600080fd5b506102c5610c2d565b6040516102d291906142c0565b60405180910390f35b3480156102e757600080fd5b5061030260048036038101906102fd91906142db565b610c33565b60405161030f9190614308565b60405180910390f35b34801561032457600080fd5b5061032d610d52565b60405161033a91906142c0565b60405180910390f35b34801561034f57600080fd5b50610358610def565b60405161036591906142c0565b60405180910390f35b34801561037a57600080fd5b506103956004803603810190610390919061435b565b610e13565b005b3480156103a357600080fd5b506103be60048036038101906103b9919061439b565b610fc3565b6040516103cb91906143fd565b60405180910390f35b3480156103e057600080fd5b506103fb60048036038101906103f691906141c8565b611335565b60405161040891906142c0565b60405180910390f35b34801561041d57600080fd5b506104386004803603810190610433919061422b565b61134d565b6040516104459190614143565b60405180910390f35b34801561045a57600080fd5b50610463611551565b60405161047091906142c0565b60405180910390f35b34801561048557600080fd5b506104a0600480360381019061049b91906141c8565b611556565b6040516104ad91906143fd565b60405180910390f35b3480156104c257600080fd5b506104cb61167f565b6040516104d89190614434565b60405180910390f35b3480156104ed57600080fd5b5061050860048036038101906105039190614485565b611684565b005b34801561051657600080fd5b50610531600480360381019061052c919061422b565b6118b3565b60405161053e91906143fd565b60405180910390f35b34801561055357600080fd5b5061056e600480360381019061056991906141c8565b611c74565b005b34801561057c57600080fd5b5061059760048036038101906105929190614485565b611e2b565b005b3480156105a557600080fd5b506105c060048036038101906105bb91906141c8565b612148565b005b6105dc60048036038101906105d79190614503565b61236a565b005b3480156105ea57600080fd5b50610605600480360381019061060091906141c8565b6126b2565b60405161061291906142c0565b60405180910390f35b34801561062757600080fd5b50610642600480360381019061063d9190614543565b6126fb565b005b34801561065057600080fd5b50610659612cac565b60405161066691906142c0565b60405180910390f35b34801561067b57600080fd5b50610684612cb2565b6040516106919190614308565b60405180910390f35b3480156106a657600080fd5b506106af612cd8565b6040516106bc9190614143565b60405180910390f35b3480156106d157600080fd5b506106ec60048036038101906106e791906141c8565b612d66565b005b6106f6612ee5565b005b34801561070457600080fd5b5061071f600480360381019061071a919061422b565b61323b565b60405161072c91906143fd565b60405180910390f35b34801561074157600080fd5b5061075c600480360381019061075791906141c8565b6135ab565b005b34801561076a57600080fd5b50610785600480360381019061078091906141c8565b61373d565b60405161079291906143fd565b60405180910390f35b3480156107a757600080fd5b506107c260048036038101906107bd91906141c8565b61378c565b6040516107cf9190614308565b60405180910390f35b3480156107e457600080fd5b506107ff60048036038101906107fa91906141c8565b61382e565b60405161080c91906143fd565b60405180910390f35b34801561082157600080fd5b5061083c60048036038101906108379190614543565b61387a565b60405161084991906142c0565b60405180910390f35b34801561085e57600080fd5b5061087960048036038101906108749190614485565b613901565b60405161088691906143fd565b60405180910390f35b34801561089b57600080fd5b506108a461398b565b6040516108b19190614143565b60405180910390f35b600080546108c7906145b2565b80601f01602080910402602001604051908101604052809291908181526020018280546108f3906145b2565b80156109405780601f1061091557610100808354040283529160200191610940565b820191906000526020600020905b81548152906001019060200180831161092357829003601f168201915b505050505081565b6060600b60009054906101000a900473ffffffffffffffffffffffffffffffffffffffff1673ffffffffffffffffffffffffffffffffffffffff163373ffffffffffffffffffffffffffffffffffffffff16146109da576040517f08c379a00000000000000000000000000000000000000000000000000000000081526004016109d190614630565b60405180910390fd5b600060405180602001604052806000815250905060005b600a60008573ffffffffffffffffffffffffffffffffffffffff1673ffffffffffffffffffffffffffffffffffffffff16815260200190815260200160002080549050811015610bbc5781600a60008673ffffffffffffffffffffffffffffffffffffffff1673ffffffffffffffffffffffffffffffffffffffff1681526020019081526020016000208281548110610a8d57610a8c614650565b5b906000526020600020906003020160000160009054906101000a900473ffffffffffffffffffffffffffffffffffffffff16600a60008773ffffffffffffffffffffffffffffffffffffffff1673ffffffffffffffffffffffffffffffffffffffff1681526020019081526020016000208381548110610b1057610b0f614650565b5b906000526020600020906003020160010154600a60008873ffffffffffffffffffffffffffffffffffffffff1673ffffffffffffffffffffffffffffffffffffffff1681526020019081526020016000208481548110610b7357610b72614650565b5b906000526020600020906003020160020154604051602001610b989493929190614808565b60405160208183030381529060405291508080610bb4906148ad565b9150506109f1565b5080915050919050565b600a6020528160005260406000208181548110610be257600080fd5b9060005260206000209060030201600091509150508060000160009054906101000a900473ffffffffffffffffffffffffffffffffffffffff16908060010154908060020154905083565b60025481565b6000600b60009054906101000a900473ffffffffffffffffffffffffffffffffffffffff1673ffffffffffffffffffffffffffffffffffffffff163373ffffffffffffffffffffffffffffffffffffffff1614610cc5576040517f08c379a0000000000000000000000000000000000000000000000000000000008152600401610cbc90614630565b60405180910390fd5b600c805490508210610d0c576040517f08c379a0000000000000000000000000000000000000000000000000000000008152600401610d039061491c565b60405180910390fd5b600c8281548110610d2057610d1f614650565b5b9060005260206000200160009054906101000a900473ffffffffffffffffffffffffffffffffffffffff169050919050565b6000600b60009054906101000a900473ffffffffffffffffffffffffffffffffffffffff1673ffffffffffffffffffffffffffffffffffffffff163373ffffffffffffffffffffffffffffffffffffffff1614610de4576040517f08c379a0000000000000000000000000000000000000000000000000000000008152600401610ddb90614630565b60405180910390fd5b600c80549050905090565b7fffffffffffffffffffffffffffffffffffffffffffffffffffffffffffffffff81565b600b60009054906101000a900473ffffffffffffffffffffffffffffffffffffffff1673ffffffffffffffffffffffffffffffffffffffff163373ffffffffffffffffffffffffffffffffffffffff1614610ea3576040517f08c379a0000000000000000000000000000000000000000000000000000000008152600401610e9a90614630565b60405180910390fd5b81600e8190555080600d60006101000a81548160ff021916908315150217905550600d60009054906101000a900460ff1615610f4e573373ffffffffffffffffffffffffffffffffffffffff167fb9c39a906441691d138569e18a2c9766e29c5def7618306a8f07d7dc1f34627b6000604051602001610f239190614a1c565b60405160208183030381529060405284604051610f41929190614a3e565b60405180910390a2610fbf565b3373ffffffffffffffffffffffffffffffffffffffff167fb9c39a906441691d138569e18a2c9766e29c5def7618306a8f07d7dc1f34627b6000604051602001610f989190614aba565b60405160208183030381529060405284604051610fb6929190614a3e565b60405180910390a25b5050565b6000601154600e54610fd59190614adc565b600e5410611018576040517f08c379a000000000000000000000000000000000000000000000000000000000815260040161100f90614b7e565b60405180910390fd5b600d60009054906101000a900460ff16611067576040517f08c379a000000000000000000000000000000000000000000000000000000000815260040161105e90614bea565b60405180910390fd5b836000801b600360008373ffffffffffffffffffffffffffffffffffffffff1673ffffffffffffffffffffffffffffffffffffffff1681526020019081526020016000205414156110ed576040517f08c379a00000000000000000000000000000000000000000000000000000000081526004016110e49061491c565b60405180910390fd5b6110f6846139c4565b6111008584613ab8565b600060405180606001604052808673ffffffffffffffffffffffffffffffffffffffff168152602001858152602001428152509050600a60008673ffffffffffffffffffffffffffffffffffffffff1673ffffffffffffffffffffffffffffffffffffffff16815260200190815260200160002081908060018154018082558091505060019003906000526020600020906003020160009091909190915060008201518160000160006101000a81548173ffffffffffffffffffffffffffffffffffffffff021916908373ffffffffffffffffffffffffffffffffffffffff1602179055506020820151816001015560408201518160020155505060405180606001604052808773ffffffffffffffffffffffffffffffffffffffff168152602001857fffffffffffffffffffffffffffffffffffffffffffffffffffffffffffffffff61124e9190614c0a565b8152602001428152509050600a60008773ffffffffffffffffffffffffffffffffffffffff1673ffffffffffffffffffffffffffffffffffffffff16815260200190815260200160002081908060018154018082558091505060019003906000526020600020906003020160009091909190915060008201518160000160006101000a81548173ffffffffffffffffffffffffffffffffffffffff021916908373ffffffffffffffffffffffffffffffffffffffff1602179055506020820151816001015560408201518160020155505061132a868686613d17565b925050509392505050565b60066020528060005260406000206000915090505481565b6060600b60009054906101000a900473ffffffffffffffffffffffffffffffffffffffff1673ffffffffffffffffffffffffffffffffffffffff163373ffffffffffffffffffffffffffffffffffffffff16146113df576040517f08c379a00000000000000000000000000000000000000000000000000000000081526004016113d690614630565b60405180910390fd5b600a60008473ffffffffffffffffffffffffffffffffffffffff1673ffffffffffffffffffffffffffffffffffffffff16815260200190815260200160002082815481106114305761142f614650565b5b906000526020600020906003020160000160009054906101000a900473ffffffffffffffffffffffffffffffffffffffff16600a60008573ffffffffffffffffffffffffffffffffffffffff1673ffffffffffffffffffffffffffffffffffffffff16815260200190815260200160002083815481106114b3576114b2614650565b5b906000526020600020906003020160010154600a60008673ffffffffffffffffffffffffffffffffffffffff1673ffffffffffffffffffffffffffffffffffffffff168152602001908152602001600020848154811061151657611515614650565b5b90600052602060002090600302016002015460405160200161153a93929190614c64565b604051602081830303815290604052905092915050565b600a81565b6000600b60009054906101000a900473ffffffffffffffffffffffffffffffffffffffff1673ffffffffffffffffffffffffffffffffffffffff163373ffffffffffffffffffffffffffffffffffffffff16146115e8576040517f08c379a00000000000000000000000000000000000000000000000000000000081526004016115df90614630565b60405180910390fd5b600073ffffffffffffffffffffffffffffffffffffffff16600460008473ffffffffffffffffffffffffffffffffffffffff1673ffffffffffffffffffffffffffffffffffffffff16815260200190815260200160002060009054906101000a900473ffffffffffffffffffffffffffffffffffffffff1673ffffffffffffffffffffffffffffffffffffffff1614159050919050565b600081565b600b60009054906101000a900473ffffffffffffffffffffffffffffffffffffffff1673ffffffffffffffffffffffffffffffffffffffff163373ffffffffffffffffffffffffffffffffffffffff1614611714576040517f08c379a000000000000000000000000000000000000000000000000000000000815260040161170b90614630565b60405180910390fd5b816000801b600360008373ffffffffffffffffffffffffffffffffffffffff1673ffffffffffffffffffffffffffffffffffffffff16815260200190815260200160002054141561179a576040517f08c379a00000000000000000000000000000000000000000000000000000000081526004016117919061491c565b60405180910390fd5b6000801b8214156117e0576040517f08c379a00000000000000000000000000000000000000000000000000000000081526004016117d79061491c565b60405180910390fd5b6000600360008573ffffffffffffffffffffffffffffffffffffffff1673ffffffffffffffffffffffffffffffffffffffff1681526020019081526020016000205490508281146118ad5782600360008673ffffffffffffffffffffffffffffffffffffffff1673ffffffffffffffffffffffffffffffffffffffff168152602001908152602001600020819055507f63ec12603f028c6f74dc3c59a67d645d431250142b56676015d25475ee3fc3d3848285336040516118a49493929190614cdc565b60405180910390a15b50505050565b6000600d60009054906101000a900460ff16611904576040517f08c379a00000000000000000000000000000000000000000000000000000000081526004016118fb90614bea565b60405180910390fd5b600b60009054906101000a900473ffffffffffffffffffffffffffffffffffffffff1673ffffffffffffffffffffffffffffffffffffffff163373ffffffffffffffffffffffffffffffffffffffff1614611994576040517f08c379a000000000000000000000000000000000000000000000000000000000815260040161198b90614630565b60405180910390fd5b6000600860003373ffffffffffffffffffffffffffffffffffffffff1673ffffffffffffffffffffffffffffffffffffffff168152602001908152602001600020541415611a17576040517f08c379a0000000000000000000000000000000000000000000000000000000008152600401611a0e90614630565b60405180910390fd5b826000801b600360008373ffffffffffffffffffffffffffffffffffffffff1673ffffffffffffffffffffffffffffffffffffffff168152602001908152602001600020541415611a9d576040517f08c379a0000000000000000000000000000000000000000000000000000000008152600401611a949061491c565b60405180910390fd5b8260105481600f54611aaf9190614adc565b10611aef576040517f08c379a0000000000000000000000000000000000000000000000000000000008152600401611ae690614d93565b60405180910390fd5b601154600e54611aff9190614adc565b600e5410611b42576040517f08c379a0000000000000000000000000000000000000000000000000000000008152600401611b3990614b7e565b60405180910390fd5b611b4b856139c4565b83600f6000828254611b5d9190614adc565b92505081905550600060405180606001604052808773ffffffffffffffffffffffffffffffffffffffff168152602001868152602001428152509050600a60008773ffffffffffffffffffffffffffffffffffffffff1673ffffffffffffffffffffffffffffffffffffffff16815260200190815260200160002081908060018154018082558091505060019003906000526020600020906003020160009091909190915060008201518160000160006101000a81548173ffffffffffffffffffffffffffffffffffffffff021916908373ffffffffffffffffffffffffffffffffffffffff16021790555060208201518160010155604082015181600201555050611c698686613e8c565b935050505092915050565b600b60009054906101000a900473ffffffffffffffffffffffffffffffffffffffff1673ffffffffffffffffffffffffffffffffffffffff163373ffffffffffffffffffffffffffffffffffffffff1614611d04576040517f08c379a0000000000000000000000000000000000000000000000000000000008152600401611cfb90614630565b60405180910390fd5b60008173ffffffffffffffffffffffffffffffffffffffff163114611d5e576040517f08c379a0000000000000000000000000000000000000000000000000000000008152600401611d5590614dff565b60405180910390fd5b6000801b600360008373ffffffffffffffffffffffffffffffffffffffff1673ffffffffffffffffffffffffffffffffffffffff1681526020019081526020016000205414611e28576000801b600360008373ffffffffffffffffffffffffffffffffffffffff1673ffffffffffffffffffffffffffffffffffffffff168152602001908152602001600020819055507f8071c01a493142de896a206c19ca180d32e91d6486fcf11ea299f569f5d922b58133604051611e1f929190614e1f565b60405180910390a15b50565b600b60009054906101000a900473ffffffffffffffffffffffffffffffffffffffff1673ffffffffffffffffffffffffffffffffffffffff163373ffffffffffffffffffffffffffffffffffffffff1614611ebb576040517f08c379a0000000000000000000000000000000000000000000000000000000008152600401611eb290614630565b60405180910390fd5b81600073ffffffffffffffffffffffffffffffffffffffff16600460008373ffffffffffffffffffffffffffffffffffffffff1673ffffffffffffffffffffffffffffffffffffffff16815260200190815260200160002060009054906101000a900473ffffffffffffffffffffffffffffffffffffffff1673ffffffffffffffffffffffffffffffffffffffff1614611f8a576040517f08c379a0000000000000000000000000000000000000000000000000000000008152600401611f819061491c565b60405180910390fd5b600073ffffffffffffffffffffffffffffffffffffffff168373ffffffffffffffffffffffffffffffffffffffff161415611ffa576040517f08c379a0000000000000000000000000000000000000000000000000000000008152600401611ff19061491c565b60405180910390fd5b6000801b821415612040576040517f08c379a00000000000000000000000000000000000000000000000000000000081526004016120379061491c565b60405180910390fd5b6000801b600360008573ffffffffffffffffffffffffffffffffffffffff1673ffffffffffffffffffffffffffffffffffffffff16815260200190815260200160002054146120c4576040517f08c379a00000000000000000000000000000000000000000000000000000000081526004016120bb9061491c565b60405180910390fd5b81600360008573ffffffffffffffffffffffffffffffffffffffff1673ffffffffffffffffffffffffffffffffffffffff168152602001908152602001600020819055507fb4f9d1d687d745820ae7c948518d6eef182cfbf5ef20b5b6a33769059592e7c883833360405161213b93929190614e48565b60405180910390a1505050565b600b60009054906101000a900473ffffffffffffffffffffffffffffffffffffffff1673ffffffffffffffffffffffffffffffffffffffff163373ffffffffffffffffffffffffffffffffffffffff16146121d8576040517f08c379a00000000000000000000000000000000000000000000000000000000081526004016121cf90614630565b60405180910390fd5b600073ffffffffffffffffffffffffffffffffffffffff168173ffffffffffffffffffffffffffffffffffffffff1614612247576040517f08c379a000000000000000000000000000000000000000000000000000000000815260040161223e90614ecb565b60405180910390fd5b600b60009054906101000a900473ffffffffffffffffffffffffffffffffffffffff1673ffffffffffffffffffffffffffffffffffffffff168173ffffffffffffffffffffffffffffffffffffffff1614156122d8576040517f08c379a00000000000000000000000000000000000000000000000000000000081526004016122cf90614f37565b60405180910390fd5b6000600760008373ffffffffffffffffffffffffffffffffffffffff1673ffffffffffffffffffffffffffffffffffffffff16815260200190815260200160002060006101000a81548160ff0219169083151502179055507f2a6c8fd6a904ef448050f3dd3c91d69c89f6029c4144371b887bc536b34f6caa8160405161235f9190614308565b60405180910390a150565b601154600e5461237a9190614adc565b600e54106123bd576040517f08c379a00000000000000000000000000000000000000000000000000000000081526004016123b490614b7e565b60405180910390fd5b600d60009054906101000a900460ff1661240c576040517f08c379a000000000000000000000000000000000000000000000000000000000815260040161240390614bea565b60405180910390fd5b816000801b600360008373ffffffffffffffffffffffffffffffffffffffff1673ffffffffffffffffffffffffffffffffffffffff168152602001908152602001600020541415612492576040517f08c379a00000000000000000000000000000000000000000000000000000000081526004016124899061491c565b60405180910390fd5b600082116124d5576040517f08c379a00000000000000000000000000000000000000000000000000000000081526004016124cc90614fc9565b60405180910390fd5b60006124e1843061387a565b905082811015612526576040517f08c379a000000000000000000000000000000000000000000000000000000000815260040161251d90615035565b60405180910390fd5b612531843085610fc3565b50600060405180606001604052808673ffffffffffffffffffffffffffffffffffffffff168152602001858152602001428152509050600a60008673ffffffffffffffffffffffffffffffffffffffff1673ffffffffffffffffffffffffffffffffffffffff16815260200190815260200160002081908060018154018082558091505060019003906000526020600020906003020160009091909190915060008201518160000160006101000a81548173ffffffffffffffffffffffffffffffffffffffff021916908373ffffffffffffffffffffffffffffffffffffffff160217905550602082015181600101556040820151816002015550508473ffffffffffffffffffffffffffffffffffffffff166108fc859081150290604051600060405180830381858888f19350505050158015612673573d6000803e3d6000fd5b507f92f64ca637d023f354075a4be751b169c1a8a9ccb6d33cdd0cb3520543995727846040516126a391906142c0565b60405180910390a15050505050565b6000600660008373ffffffffffffffffffffffffffffffffffffffff1673ffffffffffffffffffffffffffffffffffffffff168152602001908152602001600020549050919050565b600d60009054906101000a900460ff1661274a576040517f08c379a000000000000000000000000000000000000000000000000000000000815260040161274190614bea565b60405180910390fd5b600b60009054906101000a900473ffffffffffffffffffffffffffffffffffffffff1673ffffffffffffffffffffffffffffffffffffffff163373ffffffffffffffffffffffffffffffffffffffff16146127da576040517f08c379a00000000000000000000000000000000000000000000000000000000081526004016127d190614630565b60405180910390fd5b816000600560008373ffffffffffffffffffffffffffffffffffffffff1673ffffffffffffffffffffffffffffffffffffffff16815260200190815260200160002054141561285e576040517f08c379a00000000000000000000000000000000000000000000000000000000081526004016128559061491c565b60405180910390fd5b816000600560008373ffffffffffffffffffffffffffffffffffffffff1673ffffffffffffffffffffffffffffffffffffffff16815260200190815260200160002054146128e1576040517f08c379a00000000000000000000000000000000000000000000000000000000081526004016128d89061491c565b60405180910390fd5b826000801b600360008373ffffffffffffffffffffffffffffffffffffffff1673ffffffffffffffffffffffffffffffffffffffff168152602001908152602001600020541415612967576040517f08c379a000000000000000000000000000000000000000000000000000000000815260040161295e9061491c565b60405180910390fd5b6000801b600360008773ffffffffffffffffffffffffffffffffffffffff1673ffffffffffffffffffffffffffffffffffffffff1681526020019081526020016000208190555083600460008773ffffffffffffffffffffffffffffffffffffffff1673ffffffffffffffffffffffffffffffffffffffff16815260200190815260200160002060006101000a81548173ffffffffffffffffffffffffffffffffffffffff021916908373ffffffffffffffffffffffffffffffffffffffff16021790555060006001600560008873ffffffffffffffffffffffffffffffffffffffff1673ffffffffffffffffffffffffffffffffffffffff16815260200190815260200160002054612a7a9190615055565b905084600c8281548110612a9157612a90614650565b5b9060005260206000200160006101000a81548173ffffffffffffffffffffffffffffffffffffffff021916908373ffffffffffffffffffffffffffffffffffffffff160217905550600560008773ffffffffffffffffffffffffffffffffffffffff1673ffffffffffffffffffffffffffffffffffffffff16815260200190815260200160002054600560008773ffffffffffffffffffffffffffffffffffffffff1673ffffffffffffffffffffffffffffffffffffffff168152602001908152602001600020819055506000600560008873ffffffffffffffffffffffffffffffffffffffff1673ffffffffffffffffffffffffffffffffffffffff16815260200190815260200160002081905550600660008773ffffffffffffffffffffffffffffffffffffffff1673ffffffffffffffffffffffffffffffffffffffff16815260200190815260200160002054600660008773ffffffffffffffffffffffffffffffffffffffff1673ffffffffffffffffffffffffffffffffffffffff168152602001908152602001600020819055506000600660008873ffffffffffffffffffffffffffffffffffffffff1673ffffffffffffffffffffffffffffffffffffffff168152602001908152602001600020819055507fb64971100522354f3d25283cb14e2eefcb0dd26a757482ccfe42479d0a686857868633604051612c9c93929190615089565b60405180910390a1505050505050565b60105481565b600b60009054906101000a900473ffffffffffffffffffffffffffffffffffffffff1681565b60018054612ce5906145b2565b80601f0160208091040260200160405190810160405280929190818152602001828054612d11906145b2565b8015612d5e5780601f10612d3357610100808354040283529160200191612d5e565b820191906000526020600020905b815481529060010190602001808311612d4157829003601f168201915b505050505081565b600b60009054906101000a900473ffffffffffffffffffffffffffffffffffffffff1673ffffffffffffffffffffffffffffffffffffffff163373ffffffffffffffffffffffffffffffffffffffff1614612df6576040517f08c379a0000000000000000000000000000000000000000000000000000000008152600401612ded90614630565b60405180910390fd5b600073ffffffffffffffffffffffffffffffffffffffff168173ffffffffffffffffffffffffffffffffffffffff161415612e66576040517f08c379a0000000000000000000000000000000000000000000000000000000008152600401612e5d9061510c565b60405180910390fd5b6001600860008373ffffffffffffffffffffffffffffffffffffffff1673ffffffffffffffffffffffffffffffffffffffff168152602001908152602001600020819055507f6ae172837ea30b801fbfcdd4108aa1d5bf8ff775444fd70256b44e6bf3dfc3f681604051612eda9190614308565b60405180910390a150565b336000801b600360008373ffffffffffffffffffffffffffffffffffffffff1673ffffffffffffffffffffffffffffffffffffffff168152602001908152602001600020541415612f6b576040517f08c379a0000000000000000000000000000000000000000000000000000000008152600401612f629061491c565b60405180910390fd5b601154600e54612f7b9190614adc565b600e5410612fbe576040517f08c379a0000000000000000000000000000000000000000000000000000000008152600401612fb590614b7e565b60405180910390fd5b600d60009054906101000a900460ff1661300d576040517f08c379a000000000000000000000000000000000000000000000000000000000815260040161300490614bea565b60405180910390fd5b3460105481600f5461301f9190614adc565b1061305f576040517f08c379a000000000000000000000000000000000000000000000000000000000815260040161305690614d93565b60405180910390fd5b6000349050600061306f306126b2565b9050600082116130b4576040517f08c379a00000000000000000000000000000000000000000000000000000000081526004016130ab90615178565b60405180910390fd5b808211156130f7576040517f08c379a00000000000000000000000000000000000000000000000000000000081526004016130ee906151e4565b60405180910390fd5b600060405180606001604052803373ffffffffffffffffffffffffffffffffffffffff168152602001848152602001428152509050600a60003373ffffffffffffffffffffffffffffffffffffffff1673ffffffffffffffffffffffffffffffffffffffff16815260200190815260200160002081908060018154018082558091505060019003906000526020600020906003020160009091909190915060008201518160000160006101000a81548173ffffffffffffffffffffffffffffffffffffffff021916908373ffffffffffffffffffffffffffffffffffffffff160217905550602082015181600101556040820151816002015550506131fc338461323b565b507f4e08ba899977cf7d4c2964bce71c6b9a7ef76ee5166a4c1249a1e08016e33ef18360405161322c91906142c0565b60405180910390a15050505050565b6000601154600e5461324d9190614adc565b600e5410613290576040517f08c379a000000000000000000000000000000000000000000000000000000000815260040161328790614b7e565b60405180910390fd5b600d60009054906101000a900460ff166132df576040517f08c379a00000000000000000000000000000000000000000000000000000000081526004016132d690614bea565b60405180910390fd5b826000801b600360008373ffffffffffffffffffffffffffffffffffffffff1673ffffffffffffffffffffffffffffffffffffffff168152602001908152602001600020541415613365576040517f08c379a000000000000000000000000000000000000000000000000000000000815260040161335c9061491c565b60405180910390fd5b61336e846139c4565b6133783384613ab8565b600060405180606001604052808673ffffffffffffffffffffffffffffffffffffffff168152602001858152602001428152509050600a60008673ffffffffffffffffffffffffffffffffffffffff1673ffffffffffffffffffffffffffffffffffffffff16815260200190815260200160002081908060018154018082558091505060019003906000526020600020906003020160009091909190915060008201518160000160006101000a81548173ffffffffffffffffffffffffffffffffffffffff021916908373ffffffffffffffffffffffffffffffffffffffff1602179055506020820151816001015560408201518160020155505060405180606001604052803373ffffffffffffffffffffffffffffffffffffffff168152602001857fffffffffffffffffffffffffffffffffffffffffffffffffffffffffffffffff6134c69190614c0a565b8152602001428152509050600a60003373ffffffffffffffffffffffffffffffffffffffff1673ffffffffffffffffffffffffffffffffffffffff16815260200190815260200160002081908060018154018082558091505060019003906000526020600020906003020160009091909190915060008201518160000160006101000a81548173ffffffffffffffffffffffffffffffffffffffff021916908373ffffffffffffffffffffffffffffffffffffffff160217905550602082015181600101556040820151816002015550506135a18585613f6c565b9250505092915050565b600b60009054906101000a900473ffffffffffffffffffffffffffffffffffffffff1673ffffffffffffffffffffffffffffffffffffffff163373ffffffffffffffffffffffffffffffffffffffff161461363b576040517f08c379a000000000000000000000000000000000000000000000000000000000815260040161363290614630565b60405180910390fd5b600073ffffffffffffffffffffffffffffffffffffffff168173ffffffffffffffffffffffffffffffffffffffff1614156136ab576040517f08c379a00000000000000000000000000000000000000000000000000000000081526004016136a290614ecb565b60405180910390fd5b6001600760008373ffffffffffffffffffffffffffffffffffffffff1673ffffffffffffffffffffffffffffffffffffffff16815260200190815260200160002060006101000a81548160ff0219169083151502179055507f1e9fcacb7052d8badc53a7061f6dc79beafe00b872cc7d0a57c541023eb9eabc816040516137329190614308565b60405180910390a150565b60008060001b600360008473ffffffffffffffffffffffffffffffffffffffff1673ffffffffffffffffffffffffffffffffffffffff1681526020019081526020016000205414159050919050565b6000600b60009054906101000a900473ffffffffffffffffffffffffffffffffffffffff1673ffffffffffffffffffffffffffffffffffffffff163373ffffffffffffffffffffffffffffffffffffffff161461381e576040517f08c379a000000000000000000000000000000000000000000000000000000000815260040161381590614630565b60405180910390fd5b61382782613ff5565b9050919050565b600080600560008473ffffffffffffffffffffffffffffffffffffffff1673ffffffffffffffffffffffffffffffffffffffff1681526020019081526020016000205414159050919050565b6000600960008473ffffffffffffffffffffffffffffffffffffffff1673ffffffffffffffffffffffffffffffffffffffff16815260200190815260200160002060008373ffffffffffffffffffffffffffffffffffffffff1673ffffffffffffffffffffffffffffffffffffffff16815260200190815260200160002054905092915050565b60008073ffffffffffffffffffffffffffffffffffffffff168373ffffffffffffffffffffffffffffffffffffffff1614156139405760009050613985565b81600360008573ffffffffffffffffffffffffffffffffffffffff1673ffffffffffffffffffffffffffffffffffffffff168152602001908152602001600020541490505b92915050565b6040518060400160405280600581526020017f312e302e3500000000000000000000000000000000000000000000000000000081525081565b6000600560008373ffffffffffffffffffffffffffffffffffffffff1673ffffffffffffffffffffffffffffffffffffffff168152602001908152602001600020541415613ab557600c819080600181540180825580915050600190039060005260206000200160009091909190916101000a81548173ffffffffffffffffffffffffffffffffffffffff021916908373ffffffffffffffffffffffffffffffffffffffff1602179055506001600560008373ffffffffffffffffffffffffffffffffffffffff1673ffffffffffffffffffffffffffffffffffffffff168152602001908152602001600020819055505b50565b6000818373ffffffffffffffffffffffffffffffffffffffff1631613add9190615055565b90506000811115613aee5750613d13565b60006001600560008673ffffffffffffffffffffffffffffffffffffffff1673ffffffffffffffffffffffffffffffffffffffff16815260200190815260200160002054613b3c9190615055565b905060006001600c80549050613b529190615055565b90506000600c8281548110613b6a57613b69614650565b5b9060005260206000200160009054906101000a900473ffffffffffffffffffffffffffffffffffffffff16905080600c8481548110613bac57613bab614650565b5b9060005260206000200160006101000a81548173ffffffffffffffffffffffffffffffffffffffff021916908373ffffffffffffffffffffffffffffffffffffffff160217905550600560008773ffffffffffffffffffffffffffffffffffffffff1673ffffffffffffffffffffffffffffffffffffffff16815260200190815260200160002054600560008373ffffffffffffffffffffffffffffffffffffffff1673ffffffffffffffffffffffffffffffffffffffff16815260200190815260200160002081905550600c6001600c80549050613c8b9190615055565b81548110613c9c57613c9b614650565b5b9060005260206000200160006101000a81549073ffffffffffffffffffffffffffffffffffffffff02191690556000600560008873ffffffffffffffffffffffffffffffffffffffff1673ffffffffffffffffffffffffffffffffffffffff16815260200190815260200160002081905550505050505b5050565b600081600660008673ffffffffffffffffffffffffffffffffffffffff1673ffffffffffffffffffffffffffffffffffffffff1681526020019081526020016000205411613d9a576040517f08c379a0000000000000000000000000000000000000000000000000000000008152600401613d9190615250565b60405180910390fd5b81600660008573ffffffffffffffffffffffffffffffffffffffff1673ffffffffffffffffffffffffffffffffffffffff1681526020019081526020016000206000828254613de99190614adc565b9250508190555081600660008673ffffffffffffffffffffffffffffffffffffffff1673ffffffffffffffffffffffffffffffffffffffff1681526020019081526020016000206000828254613e3f9190615055565b925050819055507fc0d84ce5c7ff9ca21adb0f8436ff3f4951b4bb78c4e2fae2b6837958b3946ffd848484604051613e7993929190615270565b60405180910390a1600190509392505050565b6000600254821115613ed3576040517f08c379a0000000000000000000000000000000000000000000000000000000008152600401613eca906152f3565b60405180910390fd5b81600660008573ffffffffffffffffffffffffffffffffffffffff1673ffffffffffffffffffffffffffffffffffffffff1681526020019081526020016000206000828254613f229190614adc565b925050819055507f30385c845b448a36257a6a1716e6ad2e1bc2cbe333cde1e69fe849ad6511adfe8383604051613f5a929190615313565b60405180910390a16001905092915050565b600081600660008573ffffffffffffffffffffffffffffffffffffffff1673ffffffffffffffffffffffffffffffffffffffff168152602001908152602001600020819055507f69ca02dd4edd7bf0a4abb9ed3b7af3f14778db5d61921c7dc7cd545266326de28383604051613fe3929190615313565b60405180910390a16001905092915050565b600080600460008473ffffffffffffffffffffffffffffffffffffffff1673ffffffffffffffffffffffffffffffffffffffff16815260200190815260200160002060009054906101000a900473ffffffffffffffffffffffffffffffffffffffff169050600073ffffffffffffffffffffffffffffffffffffffff168173ffffffffffffffffffffffffffffffffffffffff16141561409857829150506140a5565b6140a181613ff5565b9150505b919050565b600081519050919050565b600082825260208201905092915050565b60005b838110156140e45780820151818401526020810190506140c9565b838111156140f3576000848401525b50505050565b6000601f19601f8301169050919050565b6000614115826140aa565b61411f81856140b5565b935061412f8185602086016140c6565b614138816140f9565b840191505092915050565b6000602082019050818103600083015261415d818461410a565b905092915050565b600080fd5b600073ffffffffffffffffffffffffffffffffffffffff82169050919050565b60006141958261416a565b9050919050565b6141a58161418a565b81146141b057600080fd5b50565b6000813590506141c28161419c565b92915050565b6000602082840312156141de576141dd614165565b5b60006141ec848285016141b3565b91505092915050565b6000819050919050565b614208816141f5565b811461421357600080fd5b50565b600081359050614225816141ff565b92915050565b6000806040838503121561424257614241614165565b5b6000614250858286016141b3565b925050602061426185828601614216565b9150509250929050565b6142748161418a565b82525050565b614283816141f5565b82525050565b600060608201905061429e600083018661426b565b6142ab602083018561427a565b6142b8604083018461427a565b949350505050565b60006020820190506142d5600083018461427a565b92915050565b6000602082840312156142f1576142f0614165565b5b60006142ff84828501614216565b91505092915050565b600060208201905061431d600083018461426b565b92915050565b60008115159050919050565b61433881614323565b811461434357600080fd5b50565b6000813590506143558161432f565b92915050565b6000806040838503121561437257614371614165565b5b600061438085828601614216565b925050602061439185828601614346565b9150509250929050565b6000806000606084860312156143b4576143b3614165565b5b60006143c2868287016141b3565b93505060206143d3868287016141b3565b92505060406143e486828701614216565b9150509250925092565b6143f781614323565b82525050565b600060208201905061441260008301846143ee565b92915050565b600060ff82169050919050565b61442e81614418565b82525050565b60006020820190506144496000830184614425565b92915050565b6000819050919050565b6144628161444f565b811461446d57600080fd5b50565b60008135905061447f81614459565b92915050565b6000806040838503121561449c5761449b614165565b5b60006144aa858286016141b3565b92505060206144bb85828601614470565b9150509250929050565b60006144d08261416a565b9050919050565b6144e0816144c5565b81146144eb57600080fd5b50565b6000813590506144fd816144d7565b92915050565b6000806040838503121561451a57614519614165565b5b6000614528858286016144ee565b925050602061453985828601614216565b9150509250929050565b6000806040838503121561455a57614559614165565b5b6000614568858286016141b3565b9250506020614579858286016141b3565b9150509250929050565b7f4e487b7100000000000000000000000000000000000000000000000000000000600052602260045260246000fd5b600060028204905060018216806145ca57607f821691505b602082108114156145de576145dd614583565b5b50919050565b7f6163636573732064656e69656400000000000000000000000000000000000000600082015250565b600061461a600d836140b5565b9150614625826145e4565b602082019050919050565b600060208201905081810360008301526146498161460d565b9050919050565b7f4e487b7100000000000000000000000000000000000000000000000000000000600052603260045260246000fd5b600081905092915050565b6000614695826140aa565b61469f818561467f565b93506146af8185602086016140c6565b80840191505092915050565b7f5b00000000000000000000000000000000000000000000000000000000000000600082015250565b60006146f160018361467f565b91506146fc826146bb565b600182019050919050565b60008160601b9050919050565b600061471f82614707565b9050919050565b600061473182614714565b9050919050565b6147496147448261418a565b614726565b82525050565b7f2c00000000000000000000000000000000000000000000000000000000000000600082015250565b600061478560018361467f565b91506147908261474f565b600182019050919050565b6000819050919050565b6147b66147b1826141f5565b61479b565b82525050565b7f5d00000000000000000000000000000000000000000000000000000000000000600082015250565b60006147f260018361467f565b91506147fd826147bc565b600182019050919050565b6000614814828761468a565b915061481f826146e4565b915061482b8286614738565b60148201915061483a82614778565b915061484682856147a5565b60208201915061485582614778565b915061486182846147a5565b602082019150614870826147e5565b915081905095945050505050565b7f4e487b7100000000000000000000000000000000000000000000000000000000600052601160045260246000fd5b60006148b8826141f5565b91507fffffffffffffffffffffffffffffffffffffffffffffffffffffffffffffffff8214156148eb576148ea61487e565b5b600182019050919050565b50565b60006149066000836140b5565b9150614911826148f6565b600082019050919050565b60006020820190508181036000830152614935816148f9565b9050919050565b60008190508160005260206000209050919050565b6000815461495e816145b2565b614968818661467f565b945060018216600081146149835760018114614994576149c7565b60ff198316865281860193506149c7565b61499d8561493c565b60005b838110156149bf578154818901526001820191506020810190506149a0565b838801955050505b50505092915050565b7f2068617320737461727465640000000000000000000000000000000000000000600082015250565b6000614a06600c8361467f565b9150614a11826149d0565b600c82019050919050565b6000614a288284614951565b9150614a33826149f9565b915081905092915050565b60006040820190508181036000830152614a58818561410a565b9050614a67602083018461427a565b9392505050565b7f206861732073746f707065640000000000000000000000000000000000000000600082015250565b6000614aa4600c8361467f565b9150614aaf82614a6e565b600c82019050919050565b6000614ac68284614951565b9150614ad182614a97565b915081905092915050565b6000614ae7826141f5565b9150614af2836141f5565b9250827fffffffffffffffffffffffffffffffffffffffffffffffffffffffffffffffff03821115614b2757614b2661487e565b5b828201905092915050565b7f6f66666572696e67206861732065787069726564000000000000000000000000600082015250565b6000614b686014836140b5565b9150614b7382614b32565b602082019050919050565b60006020820190508181036000830152614b9781614b5b565b9050919050565b7f6578656d7074206f66666572696e67206973206e6f7420616374697665000000600082015250565b6000614bd4601d836140b5565b9150614bdf82614b9e565b602082019050919050565b60006020820190508181036000830152614c0381614bc7565b9050919050565b6000614c15826141f5565b9150614c20836141f5565b9250817fffffffffffffffffffffffffffffffffffffffffffffffffffffffffffffffff0483118215151615614c5957614c5861487e565b5b828202905092915050565b6000614c6f826146e4565b9150614c7b8286614738565b601482019150614c8a82614778565b9150614c9682856147a5565b602082019150614ca582614778565b9150614cb182846147a5565b602082019150614cc0826147e5565b9150819050949350505050565b614cd68161444f565b82525050565b6000608082019050614cf1600083018761426b565b614cfe6020830186614ccd565b614d0b6040830185614ccd565b614d18606083018461426b565b95945050505050565b7f6d6178696d756d206f66666572696e6720686173206265656e2072656163686560008201527f6400000000000000000000000000000000000000000000000000000000000000602082015250565b6000614d7d6021836140b5565b9150614d8882614d21565b604082019050919050565b60006020820190508181036000830152614dac81614d70565b9050919050565b7f6163636f756e742062616c616e6365206973206e6f74207a65726f0000000000600082015250565b6000614de9601b836140b5565b9150614df482614db3565b602082019050919050565b60006020820190508181036000830152614e1881614ddc565b9050919050565b6000604082019050614e34600083018561426b565b614e41602083018461426b565b9392505050565b6000606082019050614e5d600083018661426b565b614e6a6020830185614ccd565b614e77604083018461426b565b949350505050565b7f6d697373696e67207472616e73666572206167656e7420616464726573730000600082015250565b6000614eb5601e836140b5565b9150614ec082614e7f565b602082019050919050565b60006020820190508181036000830152614ee481614ea8565b9050919050565b7f63616e6e6f742072656d6f766520746865206f776e6572000000000000000000600082015250565b6000614f216017836140b5565b9150614f2c82614eeb565b602082019050919050565b60006020820190508181036000830152614f5081614f14565b9050919050565b7f596f75206e65656420746f2073656c6c206174206c6561737420736f6d65207460008201527f6f6b656e73000000000000000000000000000000000000000000000000000000602082015250565b6000614fb36025836140b5565b9150614fbe82614f57565b604082019050919050565b60006020820190508181036000830152614fe281614fa6565b9050919050565b7f436865636b2074686520746f6b656e20616c6c6f77616e636500000000000000600082015250565b600061501f6019836140b5565b915061502a82614fe9565b602082019050919050565b6000602082019050818103600083015261504e81615012565b9050919050565b6000615060826141f5565b915061506b836141f5565b92508282101561507e5761507d61487e565b5b828203905092915050565b600060608201905061509e600083018661426b565b6150ab602083018561426b565b6150b8604083018461426b565b949350505050565b7f6d697373696e67206d696e746572206164647265737300000000000000000000600082015250565b60006150f66016836140b5565b9150615101826150c0565b602082019050919050565b60006020820190508181036000830152615125816150e9565b9050919050565b7f596f75206e65656420746f2073656e6420736f6d652065746865720000000000600082015250565b6000615162601b836140b5565b915061516d8261512c565b602082019050919050565b6000602082019050818103600083015261519181615155565b9050919050565b7f4e6f7420656e6f75676820746f6b656e7320696e207468652072657365727665600082015250565b60006151ce6020836140b5565b91506151d982615198565b602082019050919050565b600060208201905081810360008301526151fd816151c1565b9050919050565b7f696e73756666696369656e742062616c616e6365000000000000000000000000600082015250565b600061523a6014836140b5565b915061524582615204565b602082019050919050565b600060208201905081810360008301526152698161522d565b9050919050565b6000606082019050615285600083018661426b565b615292602083018561426b565b61529f604083018461427a565b949350505050565b7f6578636565647320746f74616c20737570706c79000000000000000000000000600082015250565b60006152dd6014836140b5565b91506152e8826152a7565b602082019050919050565b6000602082019050818103600083015261530c816152d0565b9050919050565b6000604082019050615328600083018561426b565b615335602083018461427a565b939250505056fea264697066735822122008a77b9b295c34a5a93547af203f629f73103ec66574add7f7d5296e5764fa9b64736f6c634300080a0033",
  "immutableReferences": {},
  "source": "// SPDX-License-Identifier: CC-BY-4.0\npragma solidity >=0.4.22 <0.9.0;\n\n/**\n * See https://www.sec.gov/smallbusiness/exemptofferings/rega\n *\n * Regulation A is an exemption from registration for public offerings.\n * Regulation A has two offering tiers: Tier 1, for offerings of up to $20 million in a 12-month period; and Tier 2,\n * for offerings of up to $75 million in a 12-month period. For offerings of up to $20 million, companies can elect to proceed under the requirements\n * for either Tier 1 or Tier 2.\n *\n * There are certain basic requirements applicable to both Tier 1 and Tier 2 offerings, including company eligibility requirements,\n * bad actor disqualification provisions, disclosure, and other matters. Additional requirements apply to Tier 2 offerings,\n * including limitations on the amount of money a non-accredited investor may invest in a Tier 2 offering,\n * requirements for audited financial statements and the filing of ongoing reports. Issuers in Tier 2 offerings are not required to register\n * or qualify their offerings with state securities regulators.\n */\n\nimport \"../Version.sol\";\n\ncontract ExemptEquityOfferingRegA is Version {\n  string public name;\n  string public symbol;\n  uint8 public constant decimals = 0;\n  uint256 public totalSupply = 0;\n  uint256 public constant negative = type(uint256).max;\n\n  bytes32 constant private ZERO_BYTES = bytes32(0);\n  address constant private ZERO_ADDRESS = address(0);\n\n\n  mapping(address => bytes32) private verified;\n  mapping(address => address) private cancellations;\n  mapping(address => uint256) private holderIndices;\n  mapping(address => uint256) public  balances;\n  mapping(address => bool) private transferagents;\n  mapping(address => uint256) private minters;\n  mapping(address => mapping(address => uint256)) private _allowances;\n\n  struct Transaction {\n      address addr;\n      uint256 amount;\n      uint256 time;\n  }\n\n  mapping(address => Transaction[]) public transactions;\n\n  address public owner;\n\n  address[] private shareholders;\n\n  bool internal active = false;\n  uint256 private start_timestamp;\n\n  uint constant public parValue = 10;\n  uint256 private totalValue = 0;\n  uint256 public totalValueMax;\n  uint private year = 52 weeks;\n  uint256 private contract_creation; // The contract creation time\n  bool private restricted = false;\n  uint private sixmonths = 26 weeks;\n\n  event ExemptOffering(address indexed from,string status, uint256 value);\n  event Transfer(address addr, uint256 amount);\n  event TransferFrom(address from,address to,uint256 value);\n  event TransferAgentAdded(address addr);\n  event TransferAgentRemoved(address addr);\n  event MinterAdded(address addr);\n  event Minted(address addr, uint256 amount);\n  event VerifiedAddressSuperseded(address addr1,address addr2,address addr3);\n  event VerifiedAddressUpdated(address addr, bytes32 oldhash, bytes32 hash, address sender);\n  event VerifiedAddressRemoved(address addr, address sender);\n  event VerifiedAddressAdded(address addr, bytes32 hash, address sender);\n  event Bought(uint value);\n  event Sold(uint value);\n\n  constructor()\n  {\n    _mint(owner, totalValueMax * 1 ether);\n  }\n\n    modifier onlyOwner() {\n        require(msg.sender == owner, \"access denied\");\n        _;\n    }\n\n    modifier isMinter() {\n        require(minters[msg.sender] != 0,\"access denied\");\n        _;\n    }\n\n    modifier isActive() {\n        require(active, \"exempt offering is not active\");\n        _;\n    }\n\n    modifier isVerifiedAddress(address addr) {\n        require(verified[addr] != ZERO_BYTES, \"\");\n        _;\n    }\n\n    modifier isShareholder(address addr) {\n        require(holderIndices[addr] != 0, \"\");\n        _;\n    }\n\n    modifier isNotShareholder(address addr) {\n        require(holderIndices[addr] == 0, \"\");\n        _;\n    }\n\n    modifier isNotCancelled(address addr) {\n        require(cancellations[addr] == ZERO_ADDRESS, \"\");\n        _;\n    }\n\n    modifier isPriceBelowParValue(uint amount) {\n      require(amount > parValue, \"amount is below par value\");\n      _;\n    }\n\n    modifier isMaximumOffering(uint256 amount) {\n        require(totalValue + amount < totalValueMax, \"maximum offering has been reached\");\n        _;\n    }\n\n    modifier isOfferingExpired() {\n        require(start_timestamp < (start_timestamp + year), \"offering has expired\");\n        _;\n    }\n\n    function balanceOf(address addr)\n      public\n      view\n      returns (uint256)\n    {\n      return balances[addr];\n    }\n\n    function allowance(address _owner, address spender)\n      public\n      view\n      returns (uint256)\n    {\n        return _allowances[_owner][spender];\n    }\n\n    function addMinter(address addr)\n      public\n      onlyOwner\n    {\n      require(addr != ZERO_ADDRESS, \"missing minter address\");\n      minters[addr] = 1;\n      emit MinterAdded(addr);\n    }\n\n    function addTransferAgent(address addr)\n        public\n        onlyOwner\n    {\n        require(addr != ZERO_ADDRESS, \"missing transfer agent address\");\n        transferagents[addr] = true;\n        emit TransferAgentAdded(addr);\n    }\n\n    function removeTransferAgent(address addr)\n        public\n        onlyOwner\n    {\n        require(addr == ZERO_ADDRESS,\"missing transfer agent address\");\n        require(addr != owner,\"cannot remove the owner\");\n        transferagents[addr] = false;\n        emit TransferAgentRemoved(addr);\n    }\n\n    /**\n     * As each token is minted it is added to the shareholders array.\n     * @param _to The address that will receive the minted tokens.\n     * @param _amount The amount of tokens to mint.\n     * @return A boolean that indicates if the operation was successful.\n     */\n    function mint(address _to, uint256 _amount)\n        public\n        isActive\n        onlyOwner\n        isMinter\n        isVerifiedAddress(_to)\n        isMaximumOffering(_amount)\n        isOfferingExpired\n        returns (bool)\n    {\n        // if the address does not already own share then\n        // add the address to the shareholders array and record the index.\n        updateShareholders(_to);\n        totalValue += _amount;\n        Transaction memory trans = Transaction(_to, _amount, block.timestamp);\n        transactions[_to].push(trans);\n        return _mint(_to, _amount);\n    }\n\n    function toggleExemptOffering(uint256 timestamp, bool _active)\n        public\n        onlyOwner\n    {\n        start_timestamp = timestamp;\n        active = _active;\n\n        if (active) {\n            emit ExemptOffering(msg.sender, string(abi.encodePacked(name, \" has started\")), timestamp);\n        } else {\n            emit ExemptOffering(msg.sender, string(abi.encodePacked(name, \" has stopped\")), timestamp);\n        }\n    }\n\n    function getTransactions(address addr) public view onlyOwner returns (string memory) {\n        string memory output = \"\";\n        for (uint i = 0; i < transactions[addr].length; i++) {\n            output = string(\n                abi.encodePacked(output, \"[\", transactions[addr][i].addr, \",\", transactions[addr][i].amount, \",\",  transactions[addr][i].time, \"]\")\n            );\n        }\n        return output;\n    }\n\n    function getTransactionByIndex(address addr, uint index) public view onlyOwner returns (string memory) {\n        return string(abi.encodePacked(\n            \"[\", transactions[addr][index].addr, \",\", transactions[addr][index].amount, \",\", transactions[addr][index].time, \"]\"\n        ));\n    }\n\n    /**\n     *  The number of addresses that own tokens.\n     *  @return the number of unique addresses that own tokens.\n     */\n    function holderCount()\n        public\n        onlyOwner\n        view\n        returns (uint)\n    {\n        return shareholders.length;\n    }\n\n    /**\n     *  By counting the number of token holders using `holderCount`\n     *  you can retrieve the complete list of token holders, one at a time.\n     *  It MUST throw if `index >= holderCount()`.\n     *  @param index The zero-based index of the holder.\n     *  @return the address of the token holder with the given index.\n     */\n    function holderAt(uint256 index)\n        public\n        onlyOwner\n        view\n        returns (address)\n    {\n        require(index < shareholders.length, \"\");\n        return shareholders[index];\n    }\n\n    /**\n     *  Add a verified address, along with an associated verification hash to the contract.\n     *  Upon successful addition of a verified address, the contract must emit\n     *  `VerifiedAddressAdded(addr, hash, msg.sender)`.\n     *  It MUST throw if the supplied address or hash are zero, or if the address has already been supplied.\n     *  @param addr The address of the person represented by the supplied hash.\n     *  @param hash A cryptographic hash of the address holder's verified information.\n     */\n    function addVerified(address addr, bytes32 hash)\n        public\n        onlyOwner\n        isNotCancelled(addr)\n    {\n        require(addr != ZERO_ADDRESS, \"\");\n        require(hash != ZERO_BYTES, \"\");\n        require(verified[addr] == ZERO_BYTES, \"\");\n        verified[addr] = hash;\n        emit VerifiedAddressAdded(addr, hash, msg.sender);\n    }\n\n    /**\n     *  Remove a verified address, and the associated verification hash. If the address is\n     *  unknown to the contract then this does nothing. If the address is successfully removed, this\n     *  function must emit `VerifiedAddressRemoved(addr, msg.sender)`.\n     *  It MUST throw if an attempt is made to remove a verifiedAddress that owns Tokens.\n     *  @param addr The verified address to be removed.\n     */\n    function removeVerified(address addr)\n        public\n        onlyOwner\n    {\n        require(addr.balance == 0, \"account balance is not zero\");\n        if (verified[addr] != ZERO_BYTES) {\n            verified[addr] = ZERO_BYTES;\n            emit VerifiedAddressRemoved(addr, msg.sender);\n        }\n    }\n\n    /**\n     *  Update the hash for a verified address known to the contract.\n     *  Upon successful update of a verified address the contract must emit\n     *  `VerifiedAddressUpdated(addr, oldHash, hash, msg.sender)`.\n     *  If the hash is the same as the value already stored then\n     *  no `VerifiedAddressUpdated` event is to be emitted.\n     *  It MUST throw if the hash is zero, or if the address is unverified.\n     *  @param addr The verified address of the person represented by the supplied hash.\n     *  @param hash A new cryptographic hash of the address holder's updated verified information.\n     */\n    function updateVerified(address addr, bytes32 hash)\n        public\n        onlyOwner\n        isVerifiedAddress(addr)\n    {\n        require(hash != ZERO_BYTES, \"\");\n        bytes32 oldHash = verified[addr];\n        if (oldHash != hash) {\n            verified[addr] = hash;\n            emit VerifiedAddressUpdated(addr, oldHash, hash, msg.sender);\n        }\n    }\n\n    /**\n     *  Cancel the original address and reissue the Tokens to the replacement address.\n     *  Access to this function MUST be strictly controlled.\n     *  The `original` address MUST be removed from the set of verified addresses.\n     *  Throw if the `original` address supplied is not a shareholder.\n     *  Throw if the replacement address is not a verified address.\n     *  This function MUST emit the `VerifiedAddressSuperseded` event.\n     *  @param original The address to be superseded. This address MUST NOT be reused.\n     *  @param replacement The address  that supersedes the original. This address MUST be verified.\n     */\n    function cancelAndReissue(address original, address replacement)\n        public\n        isActive\n        onlyOwner\n        isShareholder(original)\n        isNotShareholder(replacement)\n        isVerifiedAddress(replacement)\n    {\n        // replace the original address in the shareholders array\n        // and update all the associated mappings\n        verified[original] = ZERO_BYTES;\n        cancellations[original] = replacement;\n        uint256 holderIndex = holderIndices[original] - 1;\n        shareholders[holderIndex] = replacement;\n        holderIndices[replacement] = holderIndices[original];\n        holderIndices[original] = 0;\n        balances[replacement] = balances[original];\n        balances[original] = 0;\n        emit VerifiedAddressSuperseded(original, replacement, msg.sender);\n    }\n\n    /**\n     *  The `transfer` function MUST NOT allow transfers to addresses that\n     *  have not been verified and added to the contract.\n     *  If the `to` address is not currently a shareholder then it MUST become one.\n     *  If the transfer will reduce `msg.sender`'s balance to 0 then that address\n     *  MUST be removed from the list of shareholders.\n     */\n    function transfer(address to, uint256 value)\n        public\n        isOfferingExpired\n        isActive\n        isVerifiedAddress(to)\n        returns (bool)\n    {\n        updateShareholders(to);\n        pruneShareholders(msg.sender, value);\n        Transaction memory trans = Transaction(to, value, block.timestamp);\n        transactions[to].push(trans);\n        trans = Transaction(msg.sender, negative * value, block.timestamp);\n        transactions[msg.sender].push(trans);\n        return _transfer(to, value);\n    }\n\n    /**\n     *  The `transferFrom` function MUST NOT allow transfers to addresses that\n     *  have not been verified and added to the contract.\n     *  If the `to` address is not currently a shareholder then it MUST become one.\n     *  If the transfer will reduce `from`'s balance to 0 then that address\n     *  MUST be removed from the list of shareholders.\n     */\n    function transferFrom(address from, address to, uint256 value)\n        public\n        isOfferingExpired\n        isActive\n        isVerifiedAddress(from)\n        returns (bool)\n    {\n        updateShareholders(to);\n        pruneShareholders(from, value);\n        Transaction memory trans = Transaction(to, value, block.timestamp);\n        transactions[to].push(trans);\n        trans = Transaction(from, negative * value, block.timestamp);\n        transactions[from].push(trans);\n        return _transferFrom(from, to, value);\n    }\n\n    /**\n     *  Tests that the supplied address is known to the contract.\n     *  @param addr The address to test.\n     *  @return true if the address is known to the contract.\n     */\n    function isVerified(address addr)\n        public\n        view\n        returns (bool)\n    {\n        return verified[addr] != ZERO_BYTES;\n    }\n\n    /**\n     *  Checks to see if the supplied address is a share holder.\n     *  @param addr The address to check.\n     *  @return true if the supplied address owns a token.\n     */\n    function isHolder(address addr)\n        public\n        view\n        returns (bool)\n    {\n        return holderIndices[addr] != 0;\n    }\n\n    /**\n     *  Checks that the supplied hash is associated with the given address.\n     *  @param addr The address to test.\n     *  @param hash The hash to test.\n     *  @return true if the hash matches the one supplied with the address in `addVerified`, or `updateVerified`.\n     */\n    function hasHash(address addr, bytes32 hash)\n        public\n        view\n        returns (bool)\n    {\n        if (addr == ZERO_ADDRESS) {\n            return false;\n        }\n        return verified[addr] == hash;\n    }\n\n    /**\n     *  Checks to see if the supplied address was superseded.\n     *  @param addr The address to check.\n     *  @return true if the supplied address was superseded by another address.\n     */\n    function isSuperseded(address addr)\n        public\n        view\n        onlyOwner\n        returns (bool)\n    {\n        return cancellations[addr] != ZERO_ADDRESS;\n    }\n\n    /**\n     *  Gets the most recent address, given a superseded one.\n     *  Addresses may be superseded multiple times, so this function needs to\n     *  follow the chain of addresses until it reaches the final, verified address.\n     *  @param addr The superseded address.\n     *  @return the verified address that ultimately holds the share.\n     */\n    function getCurrentFor(address addr)\n        public\n        view\n        onlyOwner\n        returns (address)\n    {\n        return findCurrentFor(addr);\n    }\n\n    /**\n     *  Recursively find the most recent address given a superseded one.\n     *  @param addr The superseded address.\n     *  @return the verified address that ultimately holds the share.\n     */\n    function findCurrentFor(address addr)\n        internal\n        view\n        returns (address)\n    {\n        address candidate = cancellations[addr];\n        if (candidate == ZERO_ADDRESS) {\n            return addr;\n        }\n        return findCurrentFor(candidate);\n    }\n\n    /**\n     *  If the address is not in the `shareholders` array then push it\n     *  and update the `holderIndices` mapping.\n     *  @param addr The address to add as a shareholder if it's not already.\n     */\n    function updateShareholders(address addr)\n        internal\n    {\n        if (holderIndices[addr] == 0) {\n          shareholders.push(addr);\n          holderIndices[addr] = 1;\n        }\n    }\n\n    /**\n     *  If the address is in the `shareholders` array and the forthcoming\n     *  transfer or transferFrom will reduce their balance to 0, then\n     *  we need to remove them from the shareholders array.\n     *  @param addr The address to prune if their balance will be reduced to 0.\n     @  @dev see https://ethereum.stackexchange.com/a/39311\n     */\n    function pruneShareholders(address addr, uint256 value)\n        internal\n    {\n        uint256 balance = addr.balance - value;\n        if (balance > 0) {\n            return;\n        }\n        uint256 holderIndex = holderIndices[addr] - 1;\n        uint256 lastIndex = shareholders.length - 1;\n        address lastHolder = shareholders[lastIndex];\n        // overwrite the addr's slot with the last shareholder\n        shareholders[holderIndex] = lastHolder;\n        // also copy over the index (thanks @mohoff for spotting this)\n        // ref https://github.com/davesag/ERC884-reference-implementation/issues/20\n        holderIndices[lastHolder] = holderIndices[addr];\n        // trim the shareholders array (which drops the last entry)\n        delete shareholders[shareholders.length - 1];\n        // and zero out the index for addr\n        holderIndices[addr] = 0;\n    }\n\n    function buy()\n        public\n        payable\n        isVerifiedAddress(msg.sender)\n        isOfferingExpired\n        isActive\n        isMaximumOffering(msg.value)\n    {\n        uint256 amountTobuy = msg.value;\n        uint256 dexBalance = balanceOf(address(this));\n        require(amountTobuy > 0, \"You need to send some ether\");\n        require(amountTobuy <= dexBalance, \"Not enough tokens in the reserve\");\n        Transaction memory trans = Transaction(msg.sender, amountTobuy, block.timestamp);\n        transactions[msg.sender].push(trans);\n        transfer(msg.sender, amountTobuy);\n        emit Bought(amountTobuy);\n    }\n\n    function sell(address payable sender,uint256 amount)\n        public\n        payable\n        isOfferingExpired\n        isActive\n        isVerifiedAddress(sender)\n    {\n        require(amount > 0, \"You need to sell at least some tokens\");\n        uint256 _allowance = allowance(sender, address(this));\n        require(_allowance >= amount, \"Check the token allowance\");\n        transferFrom(sender, address(this), amount);\n        Transaction memory trans = Transaction(sender, amount, block.timestamp);\n        transactions[sender].push(trans);\n        sender.transfer(amount);\n        emit Sold(amount);\n    }\n    // Internal\n    function _mint(address addr, uint256 amount)\n      internal\n      returns (bool)\n    {\n      require(amount <= totalSupply, \"exceeds total supply\");\n      balances[addr] += amount;\n      emit Minted(addr, amount);\n      return true;\n    }\n\n    function _transfer(address addr, uint256 amount)\n      internal\n      returns (bool)\n    {\n      balances[addr] = amount;\n      emit Transfer(addr, amount);\n      return true;\n    }\n\n    function _transferFrom(address from,address to,uint256 value)\n      internal\n      returns (bool)\n    {\n      require(balances[from] > value, \"insufficient balance\");\n      balances[to] += value;\n      balances[from] -= value;\n      emit TransferFrom(from, to, value);\n      return true;\n    }\n}\n",
  "sourcePath": "G:\\projects\\pingleware-contracts\\contracts\\equity\\ExemptEquityOfferingRegA.sol",
  "compiler": {
    "name": "solc",
    "version": "0.8.10+commit.fc410830.Emscripten.clang"
  },
  "schemaVersion": "3.4.3",
  "updatedAt": "2021-12-21T07:37:08.181Z",
  "devdoc": {
    "kind": "dev",
    "methods": {
      "addVerified(address,bytes32)": {
        "params": {
          "addr": "The address of the person represented by the supplied hash.",
          "hash": "A cryptographic hash of the address holder's verified information."
        }
      },
      "cancelAndReissue(address,address)": {
        "params": {
          "original": "The address to be superseded. This address MUST NOT be reused.",
          "replacement": "The address  that supersedes the original. This address MUST be verified."
        }
      },
      "getCurrentFor(address)": {
        "params": {
          "addr": "The superseded address."
        },
        "returns": {
          "_0": "the verified address that ultimately holds the share."
        }
      },
      "hasHash(address,bytes32)": {
        "params": {
          "addr": "The address to test.",
          "hash": "The hash to test."
        },
        "returns": {
          "_0": "true if the hash matches the one supplied with the address in `addVerified`, or `updateVerified`."
        }
      },
      "holderAt(uint256)": {
        "params": {
          "index": "The zero-based index of the holder."
        },
        "returns": {
          "_0": "the address of the token holder with the given index."
        }
      },
      "holderCount()": {
        "returns": {
          "_0": "the number of unique addresses that own tokens."
        }
      },
      "isHolder(address)": {
        "params": {
          "addr": "The address to check."
        },
        "returns": {
          "_0": "true if the supplied address owns a token."
        }
      },
      "isSuperseded(address)": {
        "params": {
          "addr": "The address to check."
        },
        "returns": {
          "_0": "true if the supplied address was superseded by another address."
        }
      },
      "isVerified(address)": {
        "params": {
          "addr": "The address to test."
        },
        "returns": {
          "_0": "true if the address is known to the contract."
        }
      },
      "mint(address,uint256)": {
        "params": {
          "_amount": "The amount of tokens to mint.",
          "_to": "The address that will receive the minted tokens."
        },
        "returns": {
          "_0": "A boolean that indicates if the operation was successful."
        }
      },
      "removeVerified(address)": {
        "params": {
          "addr": "The verified address to be removed."
        }
      },
      "updateVerified(address,bytes32)": {
        "params": {
          "addr": "The verified address of the person represented by the supplied hash.",
          "hash": "A new cryptographic hash of the address holder's updated verified information."
        }
      }
    },
    "version": 1
  },
  "userdoc": {
    "kind": "user",
    "methods": {
      "addVerified(address,bytes32)": {
        "notice": "Add a verified address, along with an associated verification hash to the contract.  Upon successful addition of a verified address, the contract must emit  `VerifiedAddressAdded(addr, hash, msg.sender)`.  It MUST throw if the supplied address or hash are zero, or if the address has already been supplied."
      },
      "cancelAndReissue(address,address)": {
        "notice": "Cancel the original address and reissue the Tokens to the replacement address.  Access to this function MUST be strictly controlled.  The `original` address MUST be removed from the set of verified addresses.  Throw if the `original` address supplied is not a shareholder.  Throw if the replacement address is not a verified address.  This function MUST emit the `VerifiedAddressSuperseded` event."
      },
      "getCurrentFor(address)": {
        "notice": "Gets the most recent address, given a superseded one.  Addresses may be superseded multiple times, so this function needs to  follow the chain of addresses until it reaches the final, verified address."
      },
      "hasHash(address,bytes32)": {
        "notice": "Checks that the supplied hash is associated with the given address."
      },
      "holderAt(uint256)": {
        "notice": "By counting the number of token holders using `holderCount`  you can retrieve the complete list of token holders, one at a time.  It MUST throw if `index >= holderCount()`."
      },
      "holderCount()": {
        "notice": "The number of addresses that own tokens."
      },
      "isHolder(address)": {
        "notice": "Checks to see if the supplied address is a share holder."
      },
      "isSuperseded(address)": {
        "notice": "Checks to see if the supplied address was superseded."
      },
      "isVerified(address)": {
        "notice": "Tests that the supplied address is known to the contract."
      },
      "mint(address,uint256)": {
        "notice": "As each token is minted it is added to the shareholders array."
      },
      "removeVerified(address)": {
        "notice": "Remove a verified address, and the associated verification hash. If the address is  unknown to the contract then this does nothing. If the address is successfully removed, this  function must emit `VerifiedAddressRemoved(addr, msg.sender)`.  It MUST throw if an attempt is made to remove a verifiedAddress that owns Tokens."
      },
      "transfer(address,uint256)": {
        "notice": "The `transfer` function MUST NOT allow transfers to addresses that  have not been verified and added to the contract.  If the `to` address is not currently a shareholder then it MUST become one.  If the transfer will reduce `msg.sender`'s balance to 0 then that address  MUST be removed from the list of shareholders."
      },
      "transferFrom(address,address,uint256)": {
        "notice": "The `transferFrom` function MUST NOT allow transfers to addresses that  have not been verified and added to the contract.  If the `to` address is not currently a shareholder then it MUST become one.  If the transfer will reduce `from`'s balance to 0 then that address  MUST be removed from the list of shareholders."
      },
      "updateVerified(address,bytes32)": {
        "notice": "Update the hash for a verified address known to the contract.  Upon successful update of a verified address the contract must emit  `VerifiedAddressUpdated(addr, oldHash, hash, msg.sender)`.  If the hash is the same as the value already stored then  no `VerifiedAddressUpdated` event is to be emitted.  It MUST throw if the hash is zero, or if the address is unverified."
      }
    },
    "version": 1
  }
}