{
  "contractName": "ExemptDebtOffering",
  "abi": [
    {
      "inputs": [],
      "stateMutability": "nonpayable",
      "type": "constructor"
    },
    {
      "anonymous": false,
      "inputs": [
        {
          "indexed": false,
          "internalType": "address",
          "name": "sender",
          "type": "address"
        },
        {
          "indexed": false,
          "internalType": "uint256",
          "name": "amount",
          "type": "uint256"
        }
      ],
      "name": "FallbackEvent",
      "type": "event"
    },
    {
      "anonymous": false,
      "inputs": [
        {
          "indexed": true,
          "internalType": "address",
          "name": "previousOwner",
          "type": "address"
        },
        {
          "indexed": true,
          "internalType": "address",
          "name": "newOwner",
          "type": "address"
        }
      ],
      "name": "OwnershipTransferred",
      "type": "event"
    },
    {
      "anonymous": false,
      "inputs": [
        {
          "indexed": false,
          "internalType": "address",
          "name": "sender",
          "type": "address"
        },
        {
          "indexed": false,
          "internalType": "uint256",
          "name": "amount",
          "type": "uint256"
        }
      ],
      "name": "ReceiveEvent",
      "type": "event"
    },
    {
      "anonymous": false,
      "inputs": [
        {
          "indexed": false,
          "internalType": "address",
          "name": "sender",
          "type": "address"
        },
        {
          "indexed": false,
          "internalType": "address",
          "name": "_from",
          "type": "address"
        },
        {
          "indexed": false,
          "internalType": "uint256",
          "name": "class",
          "type": "uint256"
        },
        {
          "indexed": false,
          "internalType": "uint256",
          "name": "nonce",
          "type": "uint256"
        },
        {
          "indexed": false,
          "internalType": "uint256",
          "name": "_amount",
          "type": "uint256"
        }
      ],
      "name": "eventBurnBond",
      "type": "event"
    },
    {
      "anonymous": false,
      "inputs": [
        {
          "indexed": false,
          "internalType": "address",
          "name": "sender",
          "type": "address"
        },
        {
          "indexed": false,
          "internalType": "address",
          "name": "_to",
          "type": "address"
        },
        {
          "indexed": false,
          "internalType": "uint256",
          "name": "class",
          "type": "uint256"
        },
        {
          "indexed": false,
          "internalType": "uint256",
          "name": "nonce",
          "type": "uint256"
        },
        {
          "indexed": false,
          "internalType": "uint256",
          "name": "_amount",
          "type": "uint256"
        }
      ],
      "name": "eventIssueBond",
      "type": "event"
    },
    {
      "anonymous": false,
      "inputs": [
        {
          "indexed": false,
          "internalType": "address",
          "name": "sender",
          "type": "address"
        },
        {
          "indexed": false,
          "internalType": "address",
          "name": "_from",
          "type": "address"
        },
        {
          "indexed": false,
          "internalType": "uint256",
          "name": "class",
          "type": "uint256"
        },
        {
          "indexed": false,
          "internalType": "uint256",
          "name": "nonce",
          "type": "uint256"
        },
        {
          "indexed": false,
          "internalType": "uint256",
          "name": "_amount",
          "type": "uint256"
        }
      ],
      "name": "eventRedeemBond",
      "type": "event"
    },
    {
      "anonymous": false,
      "inputs": [
        {
          "indexed": false,
          "internalType": "address",
          "name": "sender",
          "type": "address"
        },
        {
          "indexed": false,
          "internalType": "address",
          "name": "_from",
          "type": "address"
        },
        {
          "indexed": false,
          "internalType": "address",
          "name": "_to",
          "type": "address"
        },
        {
          "indexed": false,
          "internalType": "uint256",
          "name": "class",
          "type": "uint256"
        },
        {
          "indexed": false,
          "internalType": "uint256",
          "name": "nonce",
          "type": "uint256"
        },
        {
          "indexed": false,
          "internalType": "uint256",
          "name": "_amount",
          "type": "uint256"
        }
      ],
      "name": "eventTransferBond",
      "type": "event"
    },
    {
      "stateMutability": "payable",
      "type": "fallback",
      "payable": true
    },
    {
      "inputs": [],
      "name": "VERSION",
      "outputs": [
        {
          "internalType": "string",
          "name": "",
          "type": "string"
        }
      ],
      "stateMutability": "view",
      "type": "function",
      "constant": true
    },
    {
      "inputs": [],
      "name": "WAIT",
      "outputs": [
        {
          "internalType": "uint256",
          "name": "",
          "type": "uint256"
        }
      ],
      "stateMutability": "view",
      "type": "function",
      "constant": true
    },
    {
      "inputs": [
        {
          "internalType": "uint256",
          "name": "",
          "type": "uint256"
        }
      ],
      "name": "_Fibonacci_epoch",
      "outputs": [
        {
          "internalType": "uint256",
          "name": "",
          "type": "uint256"
        }
      ],
      "stateMutability": "view",
      "type": "function",
      "constant": true
    },
    {
      "inputs": [
        {
          "internalType": "uint256",
          "name": "",
          "type": "uint256"
        }
      ],
      "name": "_Fibonacci_number",
      "outputs": [
        {
          "internalType": "uint256",
          "name": "",
          "type": "uint256"
        }
      ],
      "stateMutability": "view",
      "type": "function",
      "constant": true
    },
    {
      "inputs": [
        {
          "internalType": "uint256",
          "name": "",
          "type": "uint256"
        }
      ],
      "name": "_Symbol",
      "outputs": [
        {
          "internalType": "string",
          "name": "",
          "type": "string"
        }
      ],
      "stateMutability": "view",
      "type": "function",
      "constant": true
    },
    {
      "inputs": [
        {
          "internalType": "uint256",
          "name": "",
          "type": "uint256"
        }
      ],
      "name": "_genesis_nonce_time",
      "outputs": [
        {
          "internalType": "uint256",
          "name": "",
          "type": "uint256"
        }
      ],
      "stateMutability": "view",
      "type": "function",
      "constant": true
    },
    {
      "inputs": [
        {
          "internalType": "address",
          "name": "",
          "type": "address"
        },
        {
          "internalType": "uint256",
          "name": "",
          "type": "uint256"
        },
        {
          "internalType": "uint256",
          "name": "",
          "type": "uint256"
        }
      ],
      "name": "balances",
      "outputs": [
        {
          "internalType": "uint256",
          "name": "",
          "type": "uint256"
        }
      ],
      "stateMutability": "view",
      "type": "function",
      "constant": true
    },
    {
      "inputs": [],
      "name": "dev_address",
      "outputs": [
        {
          "internalType": "address",
          "name": "",
          "type": "address"
        }
      ],
      "stateMutability": "view",
      "type": "function",
      "constant": true
    },
    {
      "inputs": [],
      "name": "getOwner",
      "outputs": [
        {
          "internalType": "address",
          "name": "",
          "type": "address"
        }
      ],
      "stateMutability": "payable",
      "type": "function",
      "payable": true
    },
    {
      "inputs": [],
      "name": "renounceOwnership",
      "outputs": [],
      "stateMutability": "payable",
      "type": "function",
      "payable": true
    },
    {
      "inputs": [
        {
          "internalType": "address",
          "name": "newOwner",
          "type": "address"
        }
      ],
      "name": "transferOwnership",
      "outputs": [],
      "stateMutability": "payable",
      "type": "function",
      "payable": true
    },
    {
      "stateMutability": "payable",
      "type": "receive",
      "payable": true
    },
    {
      "inputs": [
        {
          "internalType": "uint256",
          "name": "class",
          "type": "uint256"
        },
        {
          "internalType": "address",
          "name": "bank_contract",
          "type": "address"
        }
      ],
      "name": "setBond",
      "outputs": [
        {
          "internalType": "bool",
          "name": "",
          "type": "bool"
        }
      ],
      "stateMutability": "payable",
      "type": "function",
      "payable": true
    },
    {
      "inputs": [
        {
          "internalType": "uint256",
          "name": "class",
          "type": "uint256"
        }
      ],
      "name": "getNonceCreated",
      "outputs": [
        {
          "internalType": "uint256[]",
          "name": "",
          "type": "uint256[]"
        }
      ],
      "stateMutability": "view",
      "type": "function",
      "constant": true
    },
    {
      "inputs": [
        {
          "internalType": "uint256",
          "name": "class",
          "type": "uint256"
        },
        {
          "internalType": "address",
          "name": "bank_contract",
          "type": "address"
        },
        {
          "internalType": "string",
          "name": "bond_symbol",
          "type": "string"
        },
        {
          "internalType": "uint256",
          "name": "Fibonacci_number",
          "type": "uint256"
        },
        {
          "internalType": "uint256",
          "name": "Fibonacci_epoch",
          "type": "uint256"
        }
      ],
      "name": "createBondClass",
      "outputs": [
        {
          "internalType": "bool",
          "name": "",
          "type": "bool"
        }
      ],
      "stateMutability": "payable",
      "type": "function",
      "payable": true
    },
    {
      "inputs": [
        {
          "internalType": "uint256",
          "name": "class",
          "type": "uint256"
        },
        {
          "internalType": "uint256",
          "name": "nonce",
          "type": "uint256"
        }
      ],
      "name": "totalSupply",
      "outputs": [
        {
          "internalType": "uint256",
          "name": "",
          "type": "uint256"
        }
      ],
      "stateMutability": "view",
      "type": "function",
      "constant": true
    },
    {
      "inputs": [
        {
          "internalType": "uint256",
          "name": "class",
          "type": "uint256"
        },
        {
          "internalType": "uint256",
          "name": "nonce",
          "type": "uint256"
        }
      ],
      "name": "activeSupply",
      "outputs": [
        {
          "internalType": "uint256",
          "name": "",
          "type": "uint256"
        }
      ],
      "stateMutability": "view",
      "type": "function",
      "constant": true
    },
    {
      "inputs": [
        {
          "internalType": "uint256",
          "name": "class",
          "type": "uint256"
        },
        {
          "internalType": "uint256",
          "name": "nonce",
          "type": "uint256"
        }
      ],
      "name": "burnedSupply",
      "outputs": [
        {
          "internalType": "uint256",
          "name": "",
          "type": "uint256"
        }
      ],
      "stateMutability": "view",
      "type": "function",
      "constant": true
    },
    {
      "inputs": [
        {
          "internalType": "uint256",
          "name": "class",
          "type": "uint256"
        },
        {
          "internalType": "uint256",
          "name": "nonce",
          "type": "uint256"
        }
      ],
      "name": "redeemedSupply",
      "outputs": [
        {
          "internalType": "uint256",
          "name": "",
          "type": "uint256"
        }
      ],
      "stateMutability": "view",
      "type": "function",
      "constant": true
    },
    {
      "inputs": [
        {
          "internalType": "address",
          "name": "account",
          "type": "address"
        },
        {
          "internalType": "uint256",
          "name": "class",
          "type": "uint256"
        },
        {
          "internalType": "uint256",
          "name": "nonce",
          "type": "uint256"
        }
      ],
      "name": "balanceOf",
      "outputs": [
        {
          "internalType": "uint256",
          "name": "",
          "type": "uint256"
        }
      ],
      "stateMutability": "view",
      "type": "function",
      "constant": true
    },
    {
      "inputs": [
        {
          "internalType": "uint256",
          "name": "class",
          "type": "uint256"
        }
      ],
      "name": "getBondSymbol",
      "outputs": [
        {
          "internalType": "string",
          "name": "",
          "type": "string"
        }
      ],
      "stateMutability": "view",
      "type": "function",
      "constant": true
    },
    {
      "inputs": [
        {
          "internalType": "uint256",
          "name": "class",
          "type": "uint256"
        },
        {
          "internalType": "uint256",
          "name": "nonce",
          "type": "uint256"
        }
      ],
      "name": "getBondInfo",
      "outputs": [
        {
          "internalType": "string",
          "name": "BondSymbol",
          "type": "string"
        },
        {
          "internalType": "uint256",
          "name": "timestamp",
          "type": "uint256"
        },
        {
          "internalType": "uint256",
          "name": "info2",
          "type": "uint256"
        },
        {
          "internalType": "uint256",
          "name": "info3",
          "type": "uint256"
        },
        {
          "internalType": "uint256",
          "name": "info4",
          "type": "uint256"
        },
        {
          "internalType": "uint256",
          "name": "info5",
          "type": "uint256"
        },
        {
          "internalType": "uint256",
          "name": "info6",
          "type": "uint256"
        }
      ],
      "stateMutability": "view",
      "type": "function",
      "constant": true
    },
    {
      "inputs": [
        {
          "internalType": "uint256",
          "name": "class",
          "type": "uint256"
        },
        {
          "internalType": "uint256",
          "name": "nonce",
          "type": "uint256"
        },
        {
          "internalType": "uint256",
          "name": "epoch",
          "type": "uint256"
        }
      ],
      "name": "bondIsRedeemable",
      "outputs": [
        {
          "internalType": "bool",
          "name": "",
          "type": "bool"
        }
      ],
      "stateMutability": "view",
      "type": "function",
      "constant": true
    },
    {
      "inputs": [
        {
          "internalType": "address",
          "name": "_to",
          "type": "address"
        },
        {
          "internalType": "uint256",
          "name": "class",
          "type": "uint256"
        },
        {
          "internalType": "uint256",
          "name": "_amount",
          "type": "uint256"
        },
        {
          "internalType": "uint256",
          "name": "epoch",
          "type": "uint256"
        }
      ],
      "name": "issueBond",
      "outputs": [
        {
          "internalType": "bool",
          "name": "",
          "type": "bool"
        }
      ],
      "stateMutability": "nonpayable",
      "type": "function"
    },
    {
      "inputs": [
        {
          "internalType": "address",
          "name": "_from",
          "type": "address"
        },
        {
          "internalType": "uint256",
          "name": "class",
          "type": "uint256"
        },
        {
          "internalType": "uint256[]",
          "name": "nonce",
          "type": "uint256[]"
        },
        {
          "internalType": "uint256[]",
          "name": "_amount",
          "type": "uint256[]"
        },
        {
          "internalType": "uint256",
          "name": "epoch",
          "type": "uint256"
        }
      ],
      "name": "redeemBond",
      "outputs": [
        {
          "internalType": "bool",
          "name": "",
          "type": "bool"
        }
      ],
      "stateMutability": "nonpayable",
      "type": "function"
    },
    {
      "inputs": [
        {
          "internalType": "address",
          "name": "_from",
          "type": "address"
        },
        {
          "internalType": "address",
          "name": "_to",
          "type": "address"
        },
        {
          "internalType": "uint256[]",
          "name": "class",
          "type": "uint256[]"
        },
        {
          "internalType": "uint256[]",
          "name": "nonce",
          "type": "uint256[]"
        },
        {
          "internalType": "uint256[]",
          "name": "_amount",
          "type": "uint256[]"
        }
      ],
      "name": "transferBond",
      "outputs": [
        {
          "internalType": "bool",
          "name": "",
          "type": "bool"
        }
      ],
      "stateMutability": "nonpayable",
      "type": "function"
    },
    {
      "inputs": [
        {
          "internalType": "address",
          "name": "_from",
          "type": "address"
        },
        {
          "internalType": "uint256[]",
          "name": "class",
          "type": "uint256[]"
        },
        {
          "internalType": "uint256[]",
          "name": "nonce",
          "type": "uint256[]"
        },
        {
          "internalType": "uint256[]",
          "name": "_amount",
          "type": "uint256[]"
        }
      ],
      "name": "burnBond",
      "outputs": [
        {
          "internalType": "bool",
          "name": "",
          "type": "bool"
        }
      ],
      "stateMutability": "nonpayable",
      "type": "function"
    }
  ],
  "bytecode": "0x6080604052600060015560158054600160a060020a031916331790553480156200002857600080fd5b5060008054600160a060020a031916339081178255426001556040519091907f8be0079c531659141344cd1fd0a4f28419497f9722a3daafe3b4186f6b6457e0908290a36009805460018101825560009190915260408051808201909152600d81527f534153482d55534420426f6e640000000000000000000000000000000000000060208201527f6e1540171b6c0c960b71a7020d9f60077f6af931a8bbf590da0223dacf75c7af90910190620000e1908262000233565b50600080805260087f13da86008ba1c6922daee3e07db95305ef49ebced9f5467a0b8613fcc6b343e35560017fdf7de25b7f1fd6d0b5205f0e18f1f35bd7b8d84cce336588d184533ce43a6f7655600c6020527f13649b2456f1b42fef0f0040b3aaeabcd21a76a0f3f5defd4f583839455116e85562000306565b7f4e487b7100000000000000000000000000000000000000000000000000000000600052604160045260246000fd5b600281046001821680620001a057607f821691505b602082108103620001da577f4e487b7100000000000000000000000000000000000000000000000000000000600052602260045260246000fd5b50919050565b601f8211156200022e576000818152602081206020601f86010481016020861015620002095750805b6020601f860104820191505b818110156200022a5782815560010162000215565b5050505b505050565b815167ffffffffffffffff8111156200025057620002506200015c565b62000268816200026184546200018b565b84620001e0565b602080601f831160018114620002a45760008415620002875750858301515b60028086026008870290910a60001904198216178655506200022a565b600085815260208120601f198616915b82811015620002d557888601518255948401946001909101908401620002b4565b5085821015620002f657878501516008601f88160260020a60001904191681555b5050505050600202600101905550565b61257980620003166000396000f3fe6080604052600436106101385760e060020a60003504630230018281146101ff5780631d0f114b146102345780632d760d57146102615780632ddea62b1461028f5780632e513c06146102af5780634be80cb9146102dc57806352f7091c146102fc5780635825d8fd1461030f5780636ca8a58f1461032f5780636e2e27301461036d578063715018a61461038d57806376094580146103975780637abb8efb146103c45780637fc81fb5146103fc578063893d20e8146104295780639b562239146104315780639e0456381461045e578063ae00053114610491578063b15edbe5146104b1578063b2ee391e146104d1578063b8fb3a51146104e4578063bc3c19f7146104f9578063c2458d6b14610531578063ccea7b8614610551578063f2fde38b14610589578063ffa1ad741461059c57610178565b36610178577fcc85d09d309785db93d6df19917f2e6cc07fe27cd01c08c8279145deb5cf4526333460405161016e929190611caa565b60405180910390a1005b3233146101ce5760405160e560020a62461bcd0281526020600482015260196024820152603860020a787068697368696e672061747461636b2064657465637465643f0260448201526064015b60405180910390fd5b7f26875833861a2b006512a11f1b86edf95df96131040f3caeed72989ee9858083333460405161016e929190611caa565b34801561020b57600080fd5b5061021f61021a366004611cdf565b6105d5565b60405190151581526020015b60405180910390f35b34801561024057600080fd5b5061025461024f366004611d18565b610885565b60405161022b9190611d77565b34801561026d57600080fd5b5061028161027c366004611d8a565b610931565b60405190815260200161022b565b34801561029b57600080fd5b5061021f6102aa366004611e07565b6109cf565b3480156102bb57600080fd5b506102cf6102ca366004611d18565b610c42565b60405161022b9190611ec1565b3480156102e857600080fd5b506102546102f7366004611d18565b610ca4565b61021f61030a366004611f1f565b610d49565b34801561031b57600080fd5b5061021f61032a366004611ffb565b610e11565b34801561033b57600080fd5b5061028161034a366004611d8a565b600760209081526000938452604080852082529284528284209052825290205481565b34801561037957600080fd5b5061021f6103883660046120a5565b611004565b61039561126b565b005b3480156103a357600080fd5b506102816103b2366004611d18565b600c6020526000908152604090205481565b3480156103d057600080fd5b506015546103e490600160a060020a031681565b604051600160a060020a03909116815260200161022b565b34801561040857600080fd5b50610281610417366004611d18565b600b6020526000908152604090205481565b6103e46112d0565b34801561043d57600080fd5b5061028161044c366004611d18565b600a6020526000908152604090205481565b34801561046a57600080fd5b5061047e610479366004612137565b611346565b60405161022b9796959493929190612159565b34801561049d57600080fd5b5061021f6104ac36600461219d565b61155b565b3480156104bd57600080fd5b506102816104cc366004612137565b611688565b61021f6104df3660046121c9565b6116a9565b3480156104f057600080fd5b50610281601e81565b34801561050557600080fd5b50610281610514366004612137565b6000918252600f6020908152604080842092845291905290205490565b34801561053d57600080fd5b5061028161054c366004612137565b61171d565b34801561055d57600080fd5b5061028161056c366004612137565b600091825260106020908152604080842092845291905290205490565b6103956105973660046121f5565b611773565b3480156105a857600080fd5b506102546040518060400160405280600a815260200160b060020a69312e362e342d626574610281525081565b6000601284815481106105ea576105ea612210565b600091825260209091200154600160a060020a031633146106205760405160e560020a62461bcd0281526004016101c59061222a565b600160a060020a0385166106795760405160e560020a62461bcd02815260206004820152601e60248201527f697373756520626f6e6420746f20746865207a65726f2061646472657373000060448201526064016101c5565b60648310156106c15760405160e560020a62461bcd02815260206004820152600e6024820152609260020a6d1a5b9d985b1a5908185b5bdd5b9d0260448201526064016101c5565b6000848152600c602052604081205490036106ff576000848152600b60205260409020546106ef9083612276565b6000858152600c60205260409020555b6000848152600b6020908152604080832054600c90925282205461072390856122a4565b61072d91906122b7565b905060016002600080805b60008a8152600a602052604090205481101561079f578060000361075f5760019250610781565b806001036107705760029250610781565b61077a84866122cb565b9394508392505b61078b83836122cb565b915080610797816122de565b915050610738565b50806107ad896103e86122f7565b6107b791906122b7565b905060009150600193506002925060005b60008a8152600a602052604090205481101561087257806000036107ef5760019250610811565b806001036108005760029250610811565b61080a84866122cb565b9394508392505b61083c8b8b610820868a6122cb565b6103e861082d88886122f7565b61083791906122b7565b611854565b15156001146108605760405160e560020a62461bcd0281526004016101c59061230e565b8061086a816122de565b9150506107c8565b506001955050505050505b949350505050565b6009818154811061089557600080fd5b9060005260206000200160009150905080546108b09061231f565b80601f01602080910402602001604051908101604052809291908181526020018280546108dc9061231f565b80156109295780601f106108fe57610100808354040283529160200191610929565b820191906000526020600020905b81548152906001019060200180831161090c57829003601f168201915b505050505081565b6000600160a060020a03841661099a5760405160e560020a62461bcd02815260206004820152602260248201527f62616c616e636520717565727920666f7220746865207a65726f206164647265604482015260f060020a6173730260648201526084016101c5565b50600160a060020a038316600090815260076020908152604080832085845282528083208484529091529020545b9392505050565b6000805b84811015610c325760128888838181106109ef576109ef612210565b9050602002013581548110610a0657610a06612210565b600091825260209091200154600160a060020a0316331480610a30575033600160a060020a038b16145b610a4f5760405160e560020a62461bcd0281526004016101c59061222a565b838382818110610a6157610a61612210565b90506020020135600760008c600160a060020a0316600160a060020a0316815260200190815260200160002060008a8a85818110610aa157610aa1612210565b9050602002013581526020019081526020016000206000888885818110610aca57610aca612210565b905060200201358152602001908152602001600020541015610b315760405160e560020a62461bcd02815260206004820152601b60248201527f6e6f7420656e6f75676820626f6e6420746f207472616e73666572000000000060448201526064016101c5565b600160a060020a038916610bac5760405160e560020a62461bcd02815260206004820152603660248201527f63616e742774207472616e7366657220746f207a65726f20626f6e642c2075736044820152605260020a75194809d89d5c9b909bdb990a0a49c81a5b9cdd1958590260648201526084016101c5565b610c018a8a8a8a85818110610bc357610bc3612210565b90506020020135898986818110610bdc57610bdc612210565b90506020020135888887818110610bf557610bf5612210565b90506020020135611930565b610c205760405160e560020a62461bcd0281526004016101c59061230e565b80610c2a816122de565b9150506109d3565b5060019998505050505050505050565b600081815260136020908152604091829020805483518184028101840190945280845260609392830182828015610c9857602002820191906000526020600020905b815481526020019060010190808311610c84575b50505050509050919050565b606060098281548110610cb957610cb9612210565b906000526020600020018054610cce9061231f565b80601f0160208091040260200160405190810160405280929190818152602001828054610cfa9061231f565b8015610c985780601f10610d1c57610100808354040283529160200191610c98565b820191906000526020600020905b815481529060010190602001808311610d2a5750939695505050505050565b60008054600160a060020a03163314610d775760405160e560020a62461bcd0281526004016101c59061235d565b8360098781548110610d8b57610d8b612210565b906000526020600020019081610da191906123e0565b508460128781548110610db657610db6612210565b60009182526020808320919091018054600160a060020a031916600160a060020a039490941693909317909255968752600a8152604080882094909455600b81528387209290925550600c9052832092909255506001919050565b6000805b84811015610ff5576012888883818110610e3157610e31612210565b9050602002013581548110610e4857610e48612210565b600091825260209091200154600160a060020a0316331480610e72575033600160a060020a038a16145b610e915760405160e560020a62461bcd0281526004016101c59061222a565b838382818110610ea357610ea3612210565b90506020020135600760008b600160a060020a0316600160a060020a0316815260200190815260200160002060008a8a85818110610ee357610ee3612210565b9050602002013581526020019081526020016000206000888885818110610f0c57610f0c612210565b905060200201358152602001908152602001600020541015610f705760405160e560020a62461bcd0281526020600482015260176024820152604960020a763737ba1032b737bab3b4103137b732103a3790313ab9370260448201526064016101c5565b610fc489898984818110610f8657610f86612210565b90506020020135888885818110610f9f57610f9f612210565b90506020020135878786818110610fb857610fb8612210565b90506020020135611a1c565b610fe35760405160e560020a62461bcd0281526004016101c59061230e565b80610fed816122de565b915050610e15565b50600198975050505050505050565b60006012878154811061101957611019612210565b600091825260209091200154600160a060020a0316331480611043575033600160a060020a038916145b6110925760405160e560020a62461bcd02815260206004820152601d60248201527f4552433635393a206f70657261746f7220756e617574686f72697a656400000060448201526064016101c5565b60005b85811015610ff5578484828181106110af576110af612210565b600160a060020a038c1660009081526007602090815260408083208e84528252822092029390930135929091508989858181106110ee576110ee612210565b9050602002013581526020019081526020016000205410156111675760405160e560020a62461bcd02815260206004820152602660248201527f4552433635393a206e6f7420656e6f75676820626f6e6420666f722072656465604482015260d160020a6536b83a34b7b70260648201526084016101c5565b61118a8888888481811061117d5761117d612210565b905060200201358561155b565b15156001146111fe5760405160e560020a62461bcd02815260206004820152603460248201527f4552433635393a2063616e27742072656465656d20626f6e64206265666f72656044820152606060020a73206974277320726564656d7074696f6e206461790260648201526084016101c5565b61123a898989898581811061121557611215612210565b9050602002013588888681811061122e5761122e612210565b90506020020135611aa9565b6112595760405160e560020a62461bcd0281526004016101c59061230e565b80611263816122de565b915050611095565b600054600160a060020a031633146112985760405160e560020a62461bcd0281526004016101c59061235d565b60008054604051600160a060020a0390911690600080516020612524833981519152908390a360008054600160a060020a0319169055565b6000601e6001546112e191906122cb565b42116113025760405160e560020a62461bcd0281526004016101c5906124a5565b601e60015461131191906122cb565b42116113325760405160e560020a62461bcd0281526004016101c5906124a5565b5042600155600054600160a060020a031690565b60606000806000806000806009898154811061136457611364612210565b9060005260206000200180546113799061231f565b80601f01602080910402602001604051908101604052809291908181526020018280546113a59061231f565b80156113f25780601f106113c7576101008083540402835291602001916113f2565b820191906000526020600020905b8154815290600101906020018083116113d557829003601f168201915b50505050509650601160008a81526020019081526020016000206000898152602001908152602001600020600060018152602001908152602001600020549550601160008a81526020019081526020016000206000898152602001908152602001600020600060028152602001908152602001600020549450601160008a81526020019081526020016000206000898152602001908152602001600020600060038152602001908152602001600020549350601160008a81526020019081526020016000206000898152602001908152602001600020600060048152602001908152602001600020549250601160008a81526020019081526020016000206000898152602001908152602001600020600060058152602001908152602001600020549150601160008a8152602001908152602001600020600089815260200190815260200160002060006006815260200190815260200160002054905092959891949750929550565b60008381526011602090815260408083208584528252808320600184529091528120548211156116805760008060005b60008781526014602052604090205481116115f65760008781526010602090815260408083208484528252808320548a8452600e8352818420858552909252909120546115d891906122cb565b6115e290846122cb565b9250806115ee816122de565b91505061158b565b5060005b8581116116625760008781526010602090815260408083208484528252808320548a8452600e83528184208585529092529091205461163991906122cb565b6116449060026122f7565b61164e90836122cb565b91508061165a816122de565b9150506115fa565b50808210611675576001925050506109c8565b6000925050506109c8565b5060006109c8565b6000828152600e602090815260408083208484529091529020545b92915050565b60008054600160a060020a031633146116d75760405160e560020a62461bcd0281526004016101c59061235d565b81601284815481106116eb576116eb612210565b60009182526020909120018054600160a060020a031916600160a060020a039290921691909117905550600192915050565b6000828152601060209081526040808320848452825280832054858452600f8352818420858552835281842054868552600e8452828520868652909352908320549091611769916122cb565b6109c891906122cb565b600054600160a060020a031633146117a05760405160e560020a62461bcd0281526004016101c59061235d565b600160a060020a03811661180b5760405160e560020a62461bcd02815260206004820152602660248201527f4f776e61626c653a206e6577206f776e657220697320746865207a65726f2061604482015260d060020a656464726573730260648201526084016101c5565b60008054604051600160a060020a038085169392169160008051602061252483398151915291a360008054600160a060020a031916600160a060020a0392909216919091179055565b6000611860848461171d565b60000361187d5761187385858585611b7f565b506001905061087d565b600160a060020a03851660009081526007602090815260408083208784528252808320868452909152812080548492906118b89084906122cb565b90915550506000848152600e60209081526040808320868452909152812080548492906118e69084906122cb565b90915550506000848152601460205260409081902054905160008051602061250483398151915291611920913391899189919088906124d2565b60405180910390a150600161087d565b600160a060020a0385166000908152600760209081526040808320868452825280832085845290915281208054839190839061196d9084906122a4565b9091555050600160a060020a03851660009081526007602090815260408083208784528252808320868452909152812080548492906119ad9084906122cb565b909155505060408051338152600160a060020a038881166020830152871681830152606081018690526080810185905260a0810184905290517f9f32b8ffa303549658d2435755556a7c295c2c6ed827f75256899319ffdfa70b9181900360c00190a150600195945050505050565b600160a060020a03841660009081526007602090815260408083208684528252808320858452909152812080548391908390611a599084906122a4565b90915550506040517fec63035e10dd1c8025fbe8d3c8baf46760e1ff9cdc8461ca7cbaf7fd3394f90590611a9690339088908890889088906124d2565b60405180910390a1506001949350505050565b600160a060020a03841660009081526007602090815260408083208684528252808320858452909152812080548391908390611ae69084906122a4565b90915550506000848152600e6020908152604080832086845290915281208054849290611b149084906122a4565b9091555050600084815260106020908152604080832086845290915281208054849290611b429084906122cb565b90915550506040517f83cf0c7a97f83a855520ca4249d607c889ab1d2ceb6f65e993269001debf03a890611a9690339088908890889088906124d2565b600083815260146020526040812054831115611ba75760008481526014602052604090208390555b6000848152601360209081526040808320805460018101825590845282842001869055868352600b909152902054611bdf90846122f7565b6000858152600c6020526040902054611bf891906122cb565b6000858152601160209081526040808320878452825280832060018452825280832093909355600160a060020a038816825260078152828220878352815282822086835290529081208054849290611c519084906122cb565b90915550506000848152600e6020908152604080832086845290915281208054849290611c7f9084906122cb565b909155505060405160008051602061250483398151915290611a9690339088908890889088906124d2565b600160a060020a03929092168252602082015260400190565b8035600160a060020a0381168114611cda57600080fd5b919050565b60008060008060808587031215611cf557600080fd5b611cfe85611cc3565b966020860135965060408601359560600135945092505050565b600060208284031215611d2a57600080fd5b5035919050565b6000815180845260005b81811015611d5757602081850181015186830182015201611d3b565b506000602082860101526020601f19601f83011685010191505092915050565b6020815260006109c86020830184611d31565b600080600060608486031215611d9f57600080fd5b611da884611cc3565b95602085013595506040909401359392505050565b60008083601f840112611dcf57600080fd5b5081356001604060020a03811115611de657600080fd5b6020830191508360208083028501011115611e0057600080fd5b9250929050565b60008060008060008060008060a0898b031215611e2357600080fd5b611e2c89611cc3565b9750611e3a60208a01611cc3565b965060408901356001604060020a0380821115611e5657600080fd5b611e628c838d01611dbd565b909850965060608b0135915080821115611e7b57600080fd5b611e878c838d01611dbd565b909650945060808b0135915080821115611ea057600080fd5b50611ead8b828c01611dbd565b999c989b5096995094979396929594505050565b6020808252825182820181905260009190848201906040850190845b81811015611ef957835183529284019291840191600101611edd565b50909695505050505050565b60e060020a634e487b710260009081526041600452602490fd5b600080600080600060a08688031215611f3757600080fd5b85359450611f4760208701611cc3565b935060408601356001604060020a0380821115611f6357600080fd5b818801915088601f830112611f7757600080fd5b813581811115611f8957611f89611f05565b604051601f8201601f19908116603f01168101908382118183101715611fb157611fb1611f05565b816040528281528b6020848701011115611fca57600080fd5b8260208601602083013760009281016020019290925250969995985095966060810135965060800135949350505050565b60008060008060008060006080888a03121561201657600080fd5b61201f88611cc3565b965060208801356001604060020a038082111561203b57600080fd5b6120478b838c01611dbd565b909850965060408a013591508082111561206057600080fd5b61206c8b838c01611dbd565b909650945060608a013591508082111561208557600080fd5b506120928a828b01611dbd565b989b979a50959850939692959293505050565b600080600080600080600060a0888a0312156120c057600080fd5b6120c988611cc3565b96506020880135955060408801356001604060020a03808211156120ec57600080fd5b6120f88b838c01611dbd565b909750955060608a013591508082111561211157600080fd5b5061211e8a828b01611dbd565b989b979a50959894979596608090950135949350505050565b6000806040838503121561214a57600080fd5b50508035926020909101359150565b60e08152600061216c60e083018a611d31565b60208301989098525060408101959095526060850193909352608084019190915260a083015260c090910152919050565b6000806000606084860312156121b257600080fd5b505081359360208301359350604090920135919050565b600080604083850312156121dc57600080fd5b823591506121ec60208401611cc3565b90509250929050565b60006020828403121561220757600080fd5b6109c882611cc3565b60e060020a634e487b710260009081526032600452602490fd5b6020808252601590820152605a60020a741bdc195c985d1bdc881d5b985d5d1a1bdc9a5e995902604082015260600190565b60e060020a634e487b710260009081526012600452602490fd5b6000826122855761228561225c565b500690565b60e060020a634e487b710260009081526011600452602490fd5b818103818111156116a3576116a361228a565b6000826122c6576122c661225c565b500490565b808201808211156116a3576116a361228a565b6000600182016122f0576122f061228a565b5060010190565b80820281158282048414176116a3576116a361228a565b602080825260009082015260400190565b60028104600182168061233357607f821691505b6020821081036123575760e060020a634e487b710260009081526022600452602490fd5b50919050565b6020808252601790820152604960020a7630b1b1b2b9b9903232b734b2b2103337b91037bbb732b902604082015260600190565b601f8211156123db576000818152602081206020601f860104810160208610156123b85750805b6020601f860104820191505b818110156123d7578281556001016123c4565b5050505b505050565b81516001604060020a038111156123f9576123f9611f05565b61240d81612407845461231f565b84612391565b602080601f831160018114612446576000841561242a5750858301515b60028086026008870290910a60001904198216178655506123d7565b600085815260208120601f198616915b8281101561247557888601518255948401946001909101908401612456565b508582101561249557878501516008601f88160260020a60001904191681555b5050505050600202600101905550565b6020808252601090820152608160020a6f3930ba32903634b6b4ba1032b93937b902604082015260600190565b600160a060020a03958616815293909416602084015260408301919091526060820152608081019190915260a0019056fe5d57ae351fb21d62ec3f02e7813257f8d955a4868bb8e9f3f8fbb3aa9faa40358be0079c531659141344cd1fd0a4f28419497f9722a3daafe3b4186f6b6457e0a26469706673582212205e441aa34257d797d8678a4574f0ee4680ff702d9fd12aa6d2b869d33f6dad3964736f6c63430008120033",
  "immutableReferences": {},
  "source": "// SPDX-License-Identifier: CC-BY-4.0\npragma solidity >=0.4.22 <0.9.0;\n\nimport \"../../common/Version.sol\";\nimport \"../../common/Owned.sol\";\n\ncontract ExemptDebtOffering is Version, Owned {\n  bytes32 constant private ZERO_BYTES = bytes32(0);\n  address constant private ZERO_ADDRESS = address(0);\n\n  address[] internal stakeholders;\n\n  mapping(address => bytes32) private verified;\n  mapping(address => address) private cancellations;\n  mapping(address => uint256) private holderIndices;\n  mapping(address => mapping(uint256 => mapping(uint256 => uint256))) public  balances;\n\n  address private owner;\n\n  string[] public _Symbol;\n  mapping (uint256 => uint256)  public _Fibonacci_number;\n  mapping (uint256 => uint256)  public _Fibonacci_epoch;\n  mapping (uint256 => uint256)  public _genesis_nonce_time;\n\n  mapping (uint256 => mapping(uint256 => uint256)) private _totalSupply;\n  mapping (uint256 => mapping(uint256 => uint256)) private _activeSupply;\n  mapping (uint256 => mapping(uint256 => uint256)) private _burnedSupply;\n  mapping (uint256 => mapping(uint256 => uint256)) private _redeemedSupply;\n  mapping (uint256 => mapping(uint256 => mapping(uint256 => uint256))) private _info;\n\n  address[] private _bankAddress;\n  mapping (uint256 => uint256[]) private _nonceCreated;\n  mapping (uint256 => uint256) private last_bond_nonce;\n\n  address public dev_address=msg.sender;\n\n  event eventIssueBond(address sender,address _to,uint256 class,uint256 nonce,uint256 _amount);\n  event eventRedeemBond(address sender,address _from,uint256 class,uint256 nonce,uint256 _amount);\n  event eventTransferBond(address sender,address _from,address _to,uint256 class,uint256 nonce,uint256 _amount);\n  event eventBurnBond(address sender,address _from,uint256 class,uint256 nonce,uint256 _amount);\n\n   constructor()\n  {\n    _Symbol.push(\"SASH-USD Bond\");\n    _Fibonacci_number[0] = 8;\n    _Fibonacci_epoch[0] = 1;\n    _genesis_nonce_time[0] = 0;\n  }\n\n\n  function setBond(uint256 class, address bank_contract)\n    public\n    payable\n    onlyOwner\n    returns (bool)\n  {\n    _bankAddress[class] = bank_contract;\n    return true;\n  }\n\n  function getNonceCreated(uint256 class)\n    public\n    view\n    returns (uint256[] memory)\n  {\n    return _nonceCreated[class];\n  }\n\n  function createBondClass(\n    uint256 class,\n    address bank_contract,\n    string memory bond_symbol,\n    uint256 Fibonacci_number,\n    uint256 Fibonacci_epoch)\n      public\n      payable\n      onlyOwner\n      returns (bool)\n  {\n    _Symbol[class] = bond_symbol;\n    _bankAddress[class] = bank_contract;\n    _Fibonacci_number[class] = Fibonacci_number;\n    _Fibonacci_epoch[class] = Fibonacci_epoch;\n    _genesis_nonce_time[class] = 0;\n    return true;\n  }\n\n  function totalSupply( uint256 class, uint256 nonce)\n    public\n    view\n    returns (uint256)\n  {\n    return _activeSupply[class][nonce]+_burnedSupply[class][nonce]+_redeemedSupply[class][nonce];\n  }\n  function activeSupply( uint256 class, uint256 nonce)\n    public\n    view\n    returns (uint256)\n  {\n    return _activeSupply[class][nonce];\n  }\n  function burnedSupply( uint256 class, uint256 nonce)\n    public\n    view\n    returns (uint256)\n  {\n    return _burnedSupply[class][nonce];\n  }\n  function redeemedSupply(  uint256 class, uint256 nonce)\n    public\n    view\n    returns (uint256)\n  {\n    return _redeemedSupply[class][nonce];\n  }\n  function balanceOf(address account, uint256 class, uint256 nonce)\n    public\n    view\n    returns (uint256)\n  {\n        require(account != address(0), \"balance query for the zero address\");\n        return balances[account][class][nonce];\n  }\n  function getBondSymbol(uint256 class)\n    public\n    view\n    returns (string memory)\n  {\n    return _Symbol[class];\n  }\n  function getBondInfo(uint256 class,uint256 nonce)\n    public\n    view\n    returns (\n      string memory BondSymbol,\n      uint256 timestamp,\n      uint256 info2,\n      uint256 info3,\n      uint256 info4,\n      uint256 info5,\n      uint256 info6)\n  {\n    BondSymbol = _Symbol[class];\n    timestamp = _info[class][nonce][1];\n    info2 = _info[class][nonce][2];\n    info3 = _info[class][nonce][3];\n    info4 = _info[class][nonce][4];\n    info5 = _info[class][nonce][5];\n    info6 = _info[class][nonce][6];\n  }\n  function bondIsRedeemable(uint256 class, uint256 nonce, uint256 epoch)\n    public\n    view\n    returns (bool)\n  {\n    if(uint(_info[class][nonce][1]) < epoch) {\n      uint256 total_liquidity;\n      uint256 needed_liquidity;\n      //uint256 available_liquidity;\n      for (uint i = 0; i <= last_bond_nonce[class]; i++) {\n        total_liquidity += _activeSupply[class][i]+_redeemedSupply[class][i];\n      }\n      for (uint i = 0; i <= nonce; i++) {\n          needed_liquidity += (_activeSupply[class][i]+_redeemedSupply[class][i])*2;\n          }\n      if (total_liquidity >= needed_liquidity) {\n          return(true);\n      } else{\n          return(false);\n      }\n    } else {\n      return(false);\n    }\n  }\n\n  function _createBond(address _to, uint256 class, uint256 nonce, uint256 _amount)\n    private\n    returns(bool)\n  {\n        if(last_bond_nonce[class]<nonce) {\n          last_bond_nonce[class] = nonce;\n        }\n        _nonceCreated[class].push(nonce);\n        _info[class][nonce][1] = _genesis_nonce_time[class] + (nonce) * _Fibonacci_epoch[class];\n        balances[_to][class][nonce] += _amount;\n        _activeSupply[class][nonce] += _amount;\n        emit eventIssueBond(msg.sender, _to, class,nonce, _amount);\n        return(true);\n  }\n  function _issueBond(address _to, uint256 class, uint256 nonce, uint256 _amount)\n    private\n    returns(bool)\n  {\n    if (totalSupply(class,nonce)==0){\n      _createBond(_to,class,nonce,_amount);\n      return(true);\n    } else {\n      balances[_to][class][nonce] += _amount;\n      _activeSupply[class][nonce] += _amount;\n      emit eventIssueBond(msg.sender, _to, class,last_bond_nonce[class], _amount);\n      return(true);\n    }\n  }\n\n  function _redeemBond(address _from, uint256 class, uint256 nonce, uint256 _amount)\n    private\n    returns(bool)\n  {\n    balances[_from][class][nonce] -= _amount;\n    _activeSupply[class][nonce] -= _amount;\n    _redeemedSupply[class][nonce] += _amount;\n    emit eventRedeemBond(msg.sender,_from, class, nonce, _amount);\n    return(true);\n  }\n  function _transferBond(address _from, address _to, uint256 class, uint256 nonce, uint256 _amount)\n    private\n    returns(bool)\n  {\n    balances[_from][class][nonce] -= _amount;\n    balances[_to][class][nonce] += _amount;\n    emit eventTransferBond(msg.sender,_from,_to, class, nonce, _amount);\n    return(true);\n  }\n  function _burnBond(address _from, uint256 class, uint256 nonce, uint256 _amount)\n    private\n    returns(bool)\n  {\n    balances[_from][class][nonce] -= _amount;\n    emit eventBurnBond(msg.sender,_from, class, nonce, _amount);\n    return(true);\n  }\n  function issueBond(address _to, uint256  class, uint256 _amount, uint256 epoch)\n    external\n    returns(bool)\n  {\n    require(msg.sender==_bankAddress[class], \"operator unauthorized\");\n    require(_to != address(0), \"issue bond to the zero address\");\n    require(_amount >= 100, \"invalid amount\");\n    if (_genesis_nonce_time[class] == 0) {\n      _genesis_nonce_time[class] = epoch % _Fibonacci_epoch[class];\n    }\n    uint256  now_nonce = (epoch - _genesis_nonce_time[class]) / _Fibonacci_epoch[class];\n    uint256 FibonacciTimeEponge0 = 1;\n    uint256 FibonacciTimeEponge1 = 2;\n    uint256 FibonacciTimeEponge;\n    uint256 amount_out_eponge;\n    for (uint i = 0; i < _Fibonacci_number[class]; i++) {\n      if(i == 0) {\n        FibonacciTimeEponge = 1;\n      } else {\n        if (i==1) {\n          FibonacciTimeEponge = 2;\n        } else{\n          FibonacciTimeEponge = (FibonacciTimeEponge0+FibonacciTimeEponge1);\n          FibonacciTimeEponge0 = FibonacciTimeEponge1;\n          FibonacciTimeEponge1 = FibonacciTimeEponge;\n        }\n      }\n      amount_out_eponge += FibonacciTimeEponge;\n    }\n    amount_out_eponge = _amount*1e3/amount_out_eponge;\n    FibonacciTimeEponge = 0;\n    FibonacciTimeEponge0 = 1;\n    FibonacciTimeEponge1 = 2;\n    for (uint i = 0; i < _Fibonacci_number[class]; i++) {\n      if (i == 0) {\n        FibonacciTimeEponge = 1;\n      } else {\n        if (i==1) {\n          FibonacciTimeEponge = 2;\n        } else {\n          FibonacciTimeEponge = (FibonacciTimeEponge0 + FibonacciTimeEponge1);\n          FibonacciTimeEponge0 = FibonacciTimeEponge1;\n          FibonacciTimeEponge1 = FibonacciTimeEponge;\n        }\n      }\n      require(_issueBond(_to, class, now_nonce + FibonacciTimeEponge, amount_out_eponge * FibonacciTimeEponge/1e3) == true,\"\");\n    }\n    return(true);\n  }\n\n  function redeemBond(address _from, uint256 class, uint256[] calldata nonce, uint256[] calldata  _amount, uint256 epoch)\n    external\n    returns(bool)\n  {\n    require(msg.sender==_bankAddress[class] || msg.sender==_from, \"ERC659: operator unauthorized\");\n    for (uint i = 0; i < nonce.length; i++) {\n        require(balances[_from][class][nonce[i]] >= _amount[i], \"ERC659: not enough bond for redemption\");\n        require(bondIsRedeemable(class,nonce[i],epoch)==true, \"ERC659: can't redeem bond before it's redemption day\");\n        require(_redeemBond(_from,class,nonce[i],_amount[i]),\"\");\n    }\n\n    return(true);\n  }\n  function transferBond(address _from, address _to, uint256[] calldata class, uint256[] calldata nonce, uint256[] calldata _amount)\n      external\n      returns(bool)\n  {\n    for (uint n = 0; n < nonce.length; n++) {\n      require(msg.sender==_bankAddress[class[n]] || msg.sender==_from, \"operator unauthorized\");\n      require(balances[_from][class[n]][nonce[n]] >= _amount[n], \"not enough bond to transfer\");\n      require(_to!=address(0), \"cant't transfer to zero bond, use 'burnBond()' instead\");\n      require(_transferBond(_from, _to, class[n], nonce[n], _amount[n]),\"\");\n    }\n    return(true);\n  }\n  function burnBond(address _from, uint256[] calldata class, uint256[] calldata nonce, uint256[] calldata _amount)\n    external\n    returns(bool)\n  {\n    for (uint n = 0; n < nonce.length; n++) {\n      require(msg.sender==_bankAddress[class[n]] || msg.sender==_from, \"operator unauthorized\");\n      require(balances[_from][class[n]][nonce[n]] >= _amount[n], \"not enough bond to burn\");\n      require(_burnBond(_from, class[n], nonce[n], _amount[n]),\"\");\n    }\n    return(true);\n  }\n}\n",
  "sourcePath": "/Volumes/My Book/projects/pingleware-contracts/contracts/finance/debt/ExemptDebtOffering.sol",
  "compiler": {
    "name": "solc",
    "version": "0.8.18+commit.87f61d96.Emscripten.clang"
  },
  "schemaVersion": "3.4.12",
  "updatedAt": "2023-10-24T16:14:03.474Z",
  "networkType": "ethereum",
  "devdoc": {
    "kind": "dev",
    "methods": {
      "renounceOwnership()": {
        "details": "Leaves the contract without owner. It will not be possible to call `onlyOwner` functions anymore. Can only be called by the current owner. NOTE: Renouncing ownership will leave the contract without an owner, thereby removing any functionality that is only available to the owner."
      },
      "transferOwnership(address)": {
        "details": "Transfers ownership of the contract to a new account (`newOwner`). Can only be called by the current owner."
      }
    },
    "version": 1
  },
  "userdoc": {
    "kind": "user",
    "methods": {},
    "version": 1
  }
}