{
  "contractName": "FlashLoanArbitrage",
  "abi": [
    {
      "inputs": [
        {
          "internalType": "address",
          "name": "_factory",
          "type": "address"
        },
        {
          "internalType": "address",
          "name": "_sushiSwapRouter",
          "type": "address"
        }
      ],
      "stateMutability": "nonpayable",
      "type": "constructor"
    },
    {
      "anonymous": false,
      "inputs": [
        {
          "indexed": false,
          "internalType": "address",
          "name": "sender",
          "type": "address"
        },
        {
          "indexed": false,
          "internalType": "address",
          "name": "recipient",
          "type": "address"
        }
      ],
      "name": "Destroyed",
      "type": "event"
    },
    {
      "anonymous": false,
      "inputs": [
        {
          "indexed": false,
          "internalType": "address",
          "name": "sender",
          "type": "address"
        },
        {
          "indexed": false,
          "internalType": "uint256",
          "name": "amount",
          "type": "uint256"
        }
      ],
      "name": "FallbackEvent",
      "type": "event"
    },
    {
      "anonymous": false,
      "inputs": [
        {
          "indexed": true,
          "internalType": "address",
          "name": "previousOwner",
          "type": "address"
        },
        {
          "indexed": true,
          "internalType": "address",
          "name": "newOwner",
          "type": "address"
        }
      ],
      "name": "OwnershipTransferred",
      "type": "event"
    },
    {
      "anonymous": false,
      "inputs": [
        {
          "indexed": false,
          "internalType": "address",
          "name": "sender",
          "type": "address"
        },
        {
          "indexed": false,
          "internalType": "uint256",
          "name": "amount",
          "type": "uint256"
        }
      ],
      "name": "ReceiveEvent",
      "type": "event"
    },
    {
      "anonymous": false,
      "inputs": [
        {
          "indexed": false,
          "internalType": "address",
          "name": "sender",
          "type": "address"
        },
        {
          "indexed": false,
          "internalType": "bytes",
          "name": "reason",
          "type": "bytes"
        }
      ],
      "name": "Started",
      "type": "event"
    },
    {
      "anonymous": false,
      "inputs": [
        {
          "indexed": false,
          "internalType": "address",
          "name": "sender",
          "type": "address"
        },
        {
          "indexed": false,
          "internalType": "bytes",
          "name": "reason",
          "type": "bytes"
        }
      ],
      "name": "Stopped",
      "type": "event"
    },
    {
      "anonymous": false,
      "inputs": [
        {
          "indexed": false,
          "internalType": "address",
          "name": "sender",
          "type": "address"
        },
        {
          "indexed": false,
          "internalType": "string",
          "name": "reason",
          "type": "string"
        }
      ],
      "name": "Termination",
      "type": "event"
    },
    {
      "stateMutability": "payable",
      "type": "fallback"
    },
    {
      "inputs": [],
      "name": "VERSION",
      "outputs": [
        {
          "internalType": "string",
          "name": "",
          "type": "string"
        }
      ],
      "stateMutability": "view",
      "type": "function"
    },
    {
      "inputs": [],
      "name": "WAIT",
      "outputs": [
        {
          "internalType": "uint256",
          "name": "",
          "type": "uint256"
        }
      ],
      "stateMutability": "view",
      "type": "function"
    },
    {
      "inputs": [],
      "name": "deadline",
      "outputs": [
        {
          "internalType": "uint256",
          "name": "",
          "type": "uint256"
        }
      ],
      "stateMutability": "view",
      "type": "function"
    },
    {
      "inputs": [],
      "name": "destroy",
      "outputs": [],
      "stateMutability": "nonpayable",
      "type": "function"
    },
    {
      "inputs": [
        {
          "internalType": "address",
          "name": "_recipient",
          "type": "address"
        }
      ],
      "name": "destroyAndSend",
      "outputs": [],
      "stateMutability": "nonpayable",
      "type": "function"
    },
    {
      "inputs": [],
      "name": "factory",
      "outputs": [
        {
          "internalType": "address",
          "name": "",
          "type": "address"
        }
      ],
      "stateMutability": "view",
      "type": "function"
    },
    {
      "inputs": [],
      "name": "getOwner",
      "outputs": [
        {
          "internalType": "address",
          "name": "",
          "type": "address"
        }
      ],
      "stateMutability": "payable",
      "type": "function"
    },
    {
      "inputs": [],
      "name": "renounceOwnership",
      "outputs": [],
      "stateMutability": "payable",
      "type": "function"
    },
    {
      "inputs": [],
      "name": "sushiSwapRouter",
      "outputs": [
        {
          "internalType": "contract IUniswapV2Router02",
          "name": "",
          "type": "address"
        }
      ],
      "stateMutability": "view",
      "type": "function"
    },
    {
      "inputs": [
        {
          "internalType": "address",
          "name": "newOwner",
          "type": "address"
        }
      ],
      "name": "transferOwnership",
      "outputs": [],
      "stateMutability": "payable",
      "type": "function"
    },
    {
      "stateMutability": "payable",
      "type": "receive"
    },
    {
      "inputs": [
        {
          "internalType": "address",
          "name": "token0",
          "type": "address"
        },
        {
          "internalType": "address",
          "name": "token1",
          "type": "address"
        },
        {
          "internalType": "uint256",
          "name": "amount0",
          "type": "uint256"
        },
        {
          "internalType": "uint256",
          "name": "amount1",
          "type": "uint256"
        }
      ],
      "name": "executeTrade",
      "outputs": [],
      "stateMutability": "nonpayable",
      "type": "function"
    },
    {
      "inputs": [
        {
          "internalType": "uint256",
          "name": "_amount0",
          "type": "uint256"
        },
        {
          "internalType": "uint256",
          "name": "_amount1",
          "type": "uint256"
        }
      ],
      "name": "uniswapV2Call",
      "outputs": [],
      "stateMutability": "nonpayable",
      "type": "function"
    }
  ],
  "bytecode": "0x3461006c57611661803803601f19601f8201166080016080811067ffffffffffffffff82111761007157604092829184526080391261006c57608051600160a060020a038116810361006c5761005d906100576100a0565b906100b6565b6040516114b690816101ab8239f35b600080fd5b7f4e487b7100000000000000000000000000000000000000000000000000000000600052604160045260246000fd5b60a05190600160a060020a038216820361006c57565b60008054600160a060020a03191633908117825542600155907f8be0079c531659141344cd1fd0a4f28419497f9722a3daafe3b4186f6b6457e08180a360035491606442019242841061014c57600493909355600160a860020a0319909216600160a060020a039182166101000261010060a860020a03161760035560058054600160a060020a03191692909116919091179055565b60646040517f08c379a000000000000000000000000000000000000000000000000000000000815260206004820152601b60248201527f536166654d6174683a206164646974696f6e206f766572666c6f7700000000006044820152fdfe60806040526004361015610026575b361561001e5761001c6109f3565b005b61001c610a76565b60e060020a600035046329dcb0cf81146100e95780636900e1bc146100e4578063715018a6146100df57806383197ef0146100da578063893d20e8146100d5578063b8fb3a51146100d0578063b9078616146100cb578063c45a0155146100c6578063f2fde38b146100c1578063f5074f41146100bc578063fd829a23146100b75763ffa1ad740361000e57610884565b610790565b610746565b61068a565b61065d565b610554565b610527565b6104ff565b61049f565b610456565b61011c565b6100fe565b60009103126100f957565b600080fd5b346100f95760003660031901126100f9576020600454604051908152f35b346100f9576040806003193601126100f957600480356024359261013e610be1565b928215928315610450575084935b825160e060020a630dfe168102815260209687828581335afa91821561037257600092610431575b50845160e060020a63d21220a70281529088828681335afa918215610372576000926103fe575b506101d6906101c76101c06101bb85876101b6600354610af2565b610e11565b6104f3565b3314610bfc565b879088156103f5575b50610c40565b85156103ec576101f9815b6101ea85610c83565b600160a060020a039091169052565b85156103e35761020d825b6101ea85610c95565b85156103d95761024581935b89896102296101bb6005546104f3565b895160e060020a63095ea7b302815294859283928b84016109d8565b03816000600160a060020a03809a165af19081156103725786926000926103bc575b50610285610280828c61027b600354610af2565b610fe8565b610c83565b51998a836102976101bb6005546104f3565b926102bc87548d519889978896879560e060020a6338ed173902875233938701610d48565b03925af18015610372576102d89160009161039b575b50610c95565b51951561039457505b1690825160e060020a63a9059cbb028082528782806103038a338884016109d8565b03816000885af180156103725761033c97899760009461032893610377575b50610db3565b9451968795869485938452339084016109d8565b03925af180156103725761034c57005b8161001c92903d1061036b575b6103638183610821565b810190610cb8565b503d610359565b610b1b565b61038d908a3d8c1161036b576103638183610821565b5038610322565b90506102e1565b6103b6913d8091833e6103ae8183610821565b810190610cd0565b386102d2565b6103d2908c8d3d1061036b576103638183610821565b5038610267565b6102458293610219565b61020d81610204565b6101f9826101e1565b905015386101d0565b6101d6919250610423908a3d8c1161042a575b61041b8183610821565b810190610b03565b919061019b565b503d610411565b610449919250883d8a1161042a5761041b8183610821565b9038610174565b9361014c565b60008060031936011261049c57805481600160a060020a03821661047b338214610aa6565b6000805160206114618339815191528280a3600160a060020a031916815580f35b80fd5b346100f95760008060031936011261049c576104c6600160a060020a0382541633146108d6565b6000805160206114418339815191526104ed6104e061099e565b6040519182913383610925565b0390a180f35b600160a060020a031690565b60003660031901126100f957602061051561099e565b604051600160a060020a039091168152f35b346100f95760003660031901126100f9576020604051601e8152f35b600160a060020a038116036100f957565b346100f95760803660031901126100f9576105b7602060043561057681610543565b6024359061058382610543565b6105946101bb6101bb600354610af2565b60405160e060020a63e6a439050281529485939192849283929160048401610925565b03915afa9081156103725760009161063f575b50600160a060020a03166105df811515610b27565b6105e7610b76565b90803b156100f95760405160e060020a63022c0d9f02815290600090829081838161061c883060643560443560048601610b9e565b03925af180156103725761062c57005b8061063961001c926107d3565b806100ee565b610657915060203d811161042a5761041b8183610821565b386105ca565b346100f95760003660031901126100f957600354604051610100909104600160a060020a03168152602090f35b60203660031901126100f9576004356106a281610543565b600080549091600160a060020a0380831692916106c0338514610aa6565b169182156106ec5782906000805160206114618339815191528580a3600160a060020a03191617815580f35b60405160e560020a62461bcd02815260206004820152602660248201527f4f776e61626c653a206e6577206f776e657220697320746865207a65726f2061604482015260d060020a65646472657373026064820152608490fd5b346100f95760203660031901126100f95760008051602061144183398151915261078b60043561077581610543565b6104e0600160a060020a036000541633146108d6565b0390a1005b346100f95760003660031901126100f957600554604051600160a060020a039091168152602090f35b60e060020a634e487b710260009081526041600452602490fd5b6001604060020a0381116107e657604052565b6107b9565b604081019081106001604060020a038211176107e657604052565b606081019081106001604060020a038211176107e657604052565b601f909101601f19168101906001604060020a038211908210176107e657604052565b919082519283825260005b848110610870575050826000602080949584010152601f8019910116010190565b60208183018101518483018201520161084f565b346100f95760003660031901126100f9576108d26040516108a4816107eb565b600a815260b060020a69312e362e342d62657461026020820152604051918291602083526020830190610844565b0390f35b156108dd57565b60405160e560020a62461bcd02815260206004820152601b60248201527f756e617574686f72697a65642c206e6f7420746865206f776e657200000000006044820152606490fd5b600160a060020a0391821681529116602082015260400190565b60e060020a634e487b710260009081526011600452602490fd5b1561096057565b60405160e560020a62461bcd0281526020600482015260106024820152608160020a6f3930ba32903634b6b4ba1032b93937b9026044820152606490fd5b600154601e81018091116109d3576109c09042116109bb81610959565b610959565b42600155600054600160a060020a031690565b61093f565b600160a060020a039091168152602081019190915260400190565b333203610a2f577f26875833861a2b006512a11f1b86edf95df96131040f3caeed72989ee985808360405180610a2a3433836109d8565b0390a1565b60405160e560020a62461bcd0281526020600482015260196024820152603860020a787068697368696e672061747461636b2064657465637465643f026044820152606490fd5b7fcc85d09d309785db93d6df19917f2e6cc07fe27cd01c08c8279145deb5cf452660405180610a2a3433836109d8565b15610aad57565b60405160e560020a62461bcd0281526020600482015260176024820152604960020a7630b1b1b2b9b9903232b734b2b2103337b91037bbb732b9026044820152606490fd5b6101009004600160a060020a031690565b908160209103126100f95751610b1881610543565b90565b6040513d6000823e3d90fd5b15610b2e57565b60405160e560020a62461bcd02815260206004820152601e60248201527f436f756c64206e6f742066696e6420706f6f6c206f6e20756e697377617000006044820152606490fd5b60405190610b83826107eb565b6009825260b960020a68333630b9b43637b0b7026020830152565b9092608092610b18959483526020830152600160a060020a031660408201528160608201520190610844565b6001604060020a0381116107e65760208091020190565b60405190610bee82610806565b600282526040366020840137565b15610c0357565b60405160e560020a62461bcd02815260206004820152600f6024820152608a60020a6e125b9d985b1a590814995c5d595cdd026044820152606490fd5b15610c4757565b60405160e560020a62461bcd0281526020600482015260006024820152604490fd5b60e060020a634e487b710260009081526032600452602490fd5b805115610c905760200190565b610c69565b805160011015610c905760400190565b8051821015610c90576020809202010190565b908160209103126100f9575180151581036100f95790565b60209081818403126100f9578051906001604060020a0382116100f957019180601f840112156100f9578251610d0581610bca565b93610d136040519586610821565b818552838080870193028201019283116100f9578301905b828210610d39575050505090565b81518152908301908301610d2b565b9291909594939560a084019084526020918285015260a0604085015282518091528160c0850193019160005b828110610d9657505050509060809194600160a060020a031660608201520152565b8351600160a060020a031685529381019392810192600101610d74565b808211610dc95781810391190181036100f95790565b60405160e560020a62461bcd02815260206004820152601e60248201527f536166654d6174683a207375627472616374696f6e206f766572666c6f7700006044820152606490fd5b91610e1b91610eca565b604051606060020a600160a060020a039384168102602083019081529284168102603483015260288252939190610e5181610806565b519020604051600160f860020a031960208201908152928416909402602185015260358401527f96e8ac4277198ff8b6f785478aa9a39f403cb768dd02cbee326c3e7da348845f605580850191909152835260808301926001604060020a038411818510176107e657610b1893604052519020166104f3565b9091600160a060020a0391828416838216808214610f41571015610f3c57925b91831615610ef457565b60405160e560020a62461bcd02815260206004820152601e60248201527f556e697377617056324c6962726172793a205a45524f5f4144445245535300006044820152606490fd5b610eea565b60405160e560020a62461bcd02815260206004820152602560248201527f556e697377617056324c6962726172793a204944454e544943414c5f41444452604482015260d860020a644553534553026064820152608490fd5b90610fa482610bca565b610fb16040519182610821565b8281528092610fc2601f1991610bca565b0190602036910137565b6000198101919082116109d357565b80156109d3576000190190565b92919092600282511061109257610fff8251610f9a565b9361101361100d8651610fcc565b86610ca5565b5261101e8251610fcc565b805b61102957505050565b8061107a61106961105561104861104261108c96610fcc565b88610ca5565b51600160a060020a031690565b6110626110488589610ca5565b90866110ee565b90611074848a610ca5565b516111b8565b61108661104283610fcc565b52610fdb565b80611020565b60405160e560020a62461bcd02815260206004820152601e60248201527f556e697377617056324c6962726172793a20494e56414c49445f5041544800006044820152606490fd5b51906001607060020a03821682036100f957565b908060606004936111146111028785610eca565b5096600160a060020a03948593610e11565b60405160e260020a630240bc6b02815295869290918391165afa928315610372576000908194611160575b506001607060020a039384169493169291811691160361115c5791565b9091565b93506060843d82116111b0575b8161117a60609383610821565b8101031261049c5761118b846110da565b90604061119a602087016110da565b95015163ffffffff81160361049c57508161113f565b3d915061116d565b918215611267578115158061125e575b15611202576111f76111f2846111ec6111e7610b18976111fd976113cc565b61131d565b93610db3565b6113ac565b906113ee565b6112c7565b60405160e560020a62461bcd02815260206004820152602860248201527f556e697377617056324c6962726172793a20494e53554646494349454e545f4c604482015260c060020a674951554944495459026064820152608490fd5b508015156111c8565b60405160e560020a62461bcd02815260206004820152602c60248201527f556e697377617056324c6962726172793a20494e53554646494349454e545f4f604482015260a260020a6b155514155517d05353d55395026064820152608490fd5b600181019081106112d55790565b60405160e560020a62461bcd02815260206004820152601b60248201527f536166654d6174683a206164646974696f6e206f766572666c6f7700000000006044820152606490fd5b6103e88082029180828404036100f95780156113925782040361133d5790565b60405160e560020a62461bcd02815260206004820152602160248201527f536166654d6174683a206d756c7469706c69636174696f6e206f766572666c6f604482015260f860020a6077026064820152608490fd5b60e060020a634e487b710260009081526012600452602490fd5b6103e58082029180828404036100f95780156113925782040361133d5790565b90808202918082840414158215176100f95780156113925782040361133d5790565b81156113f8570490565b60405160e560020a62461bcd02815260206004820152601a60248201527f536166654d6174683a206469766973696f6e206279207a65726f0000000000006044820152606490fdfe91ca00fdf29069527d658f8dfc6d1c0bf9861780bb45ff36436f938d3595a8d68be0079c531659141344cd1fd0a4f28419497f9722a3daafe3b4186f6b6457e0a26469706673582212201766226754517a0b5ae40be27dd3e66b00908634df4c365d2b4773080111005764736f6c63430008120033",
  "immutableReferences": {},
  "source": "// SPDX-License-Identifier: CC-BY-4.0\r\npragma solidity >=0.4.22 <0.9.0;\r\n\r\n// Refactored from https://cryptomarketpool.com/flash-loan-arbitrage-on-uniswap-and-sushiswap/\r\n\r\n// import required interfaces\r\nimport \"../../common/Version.sol\";\r\nimport \"../../common/Frozen.sol\";\r\nimport \"../../interfaces/IERC20.sol\";\r\nimport \"../../interfaces/IUniswapV2Router02.sol\";\r\nimport \"../../interfaces/IUniswapV2Pair.sol\";\r\nimport \"../../interfaces/IUniswapV2Factory.sol\";\r\nimport \"../../libs/UniswapV2Library.sol\";\r\nimport \"../../libs/SafeMath.sol\";\r\n\r\ncontract FlashLoanArbitrage is Version, Frozen {\r\n\r\n    //uniswap factory address\r\n    address public factory;\r\n\r\n    // trade deadline used for expiration\r\n    uint public deadline = SafeMath.safeAdd(block.timestamp, 100);\r\n\r\n    //create pointer to the sushiswapRouter\r\n    IUniswapV2Router02 public sushiSwapRouter;\r\n\r\n    constructor(address _factory, address _sushiSwapRouter) {\r\n        // create uniswap factory\r\n        factory = _factory;\r\n\r\n        // create sushiswapRouter\r\n        sushiSwapRouter = IUniswapV2Router02(_sushiSwapRouter);\r\n    }\r\n\r\n\r\n\r\n    // trader needs to monitor for arbitrage opportunities with a bot or script\r\n    // this is the function that trader will call when an arbitrage opportunity exists\r\n    // tokens are the addresses that you want to trade\r\n    // this first function will create the flash loan on uniswap\r\n    // one of the amounts will be 0 and the other amount will be the amount you want to borrow\r\n    function executeTrade(address token0, address token1, uint amount0, uint amount1) external {\r\n\r\n        // get liquidity pair address for tokens on uniswap\r\n        address pairAddress = IUniswapV2Factory(factory).getPair(token0, token1);\r\n\r\n        // make sure the pair exists in uniswap\r\n        require(pairAddress != address(0), 'Could not find pool on uniswap');\r\n\r\n        // create flashloan\r\n        // create pointer to the liquidity pair address\r\n        // to create a flashloan call the swap function on the pair contract\r\n        // one amount will be 0 and the non 0 amount is for the token you want to borrow\r\n        // address is where you want to receive token that you are borrowing\r\n        // bytes can not be empty.  Need to inculde some text to initiate the flash loan\r\n        // if bytes is empty it will initiate a traditional swap\r\n        IUniswapV2Pair(pairAddress).swap(amount0, amount1, address(this), bytes('flashloan'));\r\n    }\r\n\r\n\r\n\r\n    // After the flashloan is created the below function will be called back by Uniswap\r\n    // Uniswap is expecting the function to be named uniswapV2Call\r\n    // the parameters below will be sent\r\n    // sender is the smart contract address\r\n    // amount will be the amount borrowed from the flashloan and other amount will be 0\r\n    // bytes is the calldata passed in above\r\n    function uniswapV2Call(uint _amount0, uint _amount1) external {\r\n\r\n        // the path is the array of addresses to capture pricing information\r\n        address[] memory path = new address[](2);\r\n\r\n        // get the amount of tokens that were borrowed in the flash loan amount 0 or amount 1\r\n        // call it amountTokenBorrowed and will use later in the function\r\n        uint amountTokenBorrowed = _amount0 == 0 ? _amount1 : _amount0;\r\n\r\n        // get the addresses of the two tokens from the uniswap liquidity pool\r\n        address token0 = IUniswapV2Pair(msg.sender).token0();\r\n        address token1 = IUniswapV2Pair(msg.sender).token1();\r\n\r\n        // make sure the call to this function originated from\r\n        // one of the pair contracts in uniswap to prevent unauthorized behavior\r\n        require(msg.sender == UniswapV2Library.pairFor(factory, token0, token1), 'Invalid Request');\r\n\r\n        // make sure one of the amounts = 0\r\n        require(_amount0 == 0 || _amount1 == 0,\"\");\r\n\r\n        // create and populate path array for sushiswap.\r\n        // this defines what token we are buying or selling\r\n        // if amount0 == 0 then we are going to sell token 1 and buy token 0 on sushiswap\r\n        // if amount0 is not 0 then we are going to sell token 0 and buy token 1 on sushiswap\r\n        path[0] = _amount0 == 0 ? token1 : token0;\r\n        path[1] = _amount0 == 0 ? token0 : token1;\r\n\r\n        // create a pointer to the token we are going to sell on sushiswap\r\n        IERC20 token = IERC20(_amount0 == 0 ? token1 : token0);\r\n\r\n        // approve the sushiSwapRouter to spend our tokens so the trade can occur\r\n        token.approve(address(sushiSwapRouter), amountTokenBorrowed);\r\n\r\n        // calculate the amount of tokens we need to reimburse uniswap for the flashloan\r\n        uint amountRequired = UniswapV2Library.getAmountsIn(factory, amountTokenBorrowed, path)[0];\r\n\r\n        // finally sell the token we borrowed from uniswap on sushiswap\r\n        // amountTokenBorrowed is the amount to sell\r\n        // amountRequired is the minimum amount of token to receive in exchange required to payback the flash loan\r\n        // path what we are selling or buying\r\n        // msg.sender address to receive the tokens\r\n        // deadline is the order time limit\r\n        // if the amount received does not cover the flash loan the entire transaction is reverted\r\n        uint amountReceived = sushiSwapRouter.swapExactTokensForTokens(amountTokenBorrowed,\r\n                                                                       amountRequired,\r\n                                                                       path,\r\n                                                                       payable(msg.sender),\r\n                                                                       deadline)[1];\r\n\r\n        // pointer to output token from sushiswap\r\n        IERC20 outputToken = IERC20(_amount0 == 0 ? token0 : token1);\r\n\r\n        // amount to payback flashloan\r\n        // amountRequired is the amount we need to payback\r\n        // uniswap can accept any token as payment\r\n        outputToken.transfer(msg.sender, amountRequired);\r\n\r\n        // send profit (remaining tokens) back to the address that initiated the transaction\r\n        //outputToken.transfer(tx.origin, SafeNath,safeSub(amountReceived - amountRequired));\r\n        outputToken.transfer(msg.sender, SafeMath.safeSub(amountReceived, amountRequired));\r\n    }\r\n}",
  "sourcePath": "/Volumes/HOME/pingleware-contracts/contracts/finance/banking/FlashLoanArbitrage.sol",
  "compiler": {
    "name": "solc",
    "version": "0.8.18+commit.87f61d96.Emscripten.clang"
  },
  "schemaVersion": "3.4.12",
  "updatedAt": "2024-05-23T18:56:25.319Z",
  "devdoc": {
    "kind": "dev",
    "methods": {
      "renounceOwnership()": {
        "details": "Leaves the contract without owner. It will not be possible to call `onlyOwner` functions anymore. Can only be called by the current owner. NOTE: Renouncing ownership will leave the contract without an owner, thereby removing any functionality that is only available to the owner."
      },
      "transferOwnership(address)": {
        "details": "Transfers ownership of the contract to a new account (`newOwner`). Can only be called by the current owner."
      }
    },
    "version": 1
  },
  "userdoc": {
    "kind": "user",
    "methods": {},
    "version": 1
  }
}