{
  "contractName": "FlashLoanArbitrage",
  "abi": [
    {
      "inputs": [
        {
          "internalType": "address",
          "name": "_factory",
          "type": "address"
        },
        {
          "internalType": "address",
          "name": "_sushiSwapRouter",
          "type": "address"
        }
      ],
      "stateMutability": "nonpayable",
      "type": "constructor"
    },
    {
      "anonymous": false,
      "inputs": [
        {
          "indexed": false,
          "internalType": "address",
          "name": "sender",
          "type": "address"
        },
        {
          "indexed": false,
          "internalType": "address",
          "name": "recipient",
          "type": "address"
        }
      ],
      "name": "Destroyed",
      "type": "event"
    },
    {
      "anonymous": false,
      "inputs": [
        {
          "indexed": false,
          "internalType": "address",
          "name": "sender",
          "type": "address"
        },
        {
          "indexed": false,
          "internalType": "uint256",
          "name": "amount",
          "type": "uint256"
        }
      ],
      "name": "FallbackEvent",
      "type": "event"
    },
    {
      "anonymous": false,
      "inputs": [
        {
          "indexed": true,
          "internalType": "address",
          "name": "previousOwner",
          "type": "address"
        },
        {
          "indexed": true,
          "internalType": "address",
          "name": "newOwner",
          "type": "address"
        }
      ],
      "name": "OwnershipTransferred",
      "type": "event"
    },
    {
      "anonymous": false,
      "inputs": [
        {
          "indexed": false,
          "internalType": "address",
          "name": "sender",
          "type": "address"
        },
        {
          "indexed": false,
          "internalType": "uint256",
          "name": "amount",
          "type": "uint256"
        }
      ],
      "name": "ReceiveEvent",
      "type": "event"
    },
    {
      "anonymous": false,
      "inputs": [
        {
          "indexed": false,
          "internalType": "address",
          "name": "sender",
          "type": "address"
        },
        {
          "indexed": false,
          "internalType": "bytes",
          "name": "reason",
          "type": "bytes"
        }
      ],
      "name": "Started",
      "type": "event"
    },
    {
      "anonymous": false,
      "inputs": [
        {
          "indexed": false,
          "internalType": "address",
          "name": "sender",
          "type": "address"
        },
        {
          "indexed": false,
          "internalType": "bytes",
          "name": "reason",
          "type": "bytes"
        }
      ],
      "name": "Stopped",
      "type": "event"
    },
    {
      "anonymous": false,
      "inputs": [
        {
          "indexed": false,
          "internalType": "address",
          "name": "sender",
          "type": "address"
        },
        {
          "indexed": false,
          "internalType": "string",
          "name": "reason",
          "type": "string"
        }
      ],
      "name": "Termination",
      "type": "event"
    },
    {
      "stateMutability": "payable",
      "type": "fallback"
    },
    {
      "inputs": [],
      "name": "VERSION",
      "outputs": [
        {
          "internalType": "string",
          "name": "",
          "type": "string"
        }
      ],
      "stateMutability": "view",
      "type": "function"
    },
    {
      "inputs": [],
      "name": "WAIT",
      "outputs": [
        {
          "internalType": "uint256",
          "name": "",
          "type": "uint256"
        }
      ],
      "stateMutability": "view",
      "type": "function"
    },
    {
      "inputs": [],
      "name": "deadline",
      "outputs": [
        {
          "internalType": "uint256",
          "name": "",
          "type": "uint256"
        }
      ],
      "stateMutability": "view",
      "type": "function"
    },
    {
      "inputs": [],
      "name": "destroy",
      "outputs": [],
      "stateMutability": "nonpayable",
      "type": "function"
    },
    {
      "inputs": [
        {
          "internalType": "address",
          "name": "_recipient",
          "type": "address"
        }
      ],
      "name": "destroyAndSend",
      "outputs": [],
      "stateMutability": "nonpayable",
      "type": "function"
    },
    {
      "inputs": [],
      "name": "factory",
      "outputs": [
        {
          "internalType": "address",
          "name": "",
          "type": "address"
        }
      ],
      "stateMutability": "view",
      "type": "function"
    },
    {
      "inputs": [],
      "name": "getOwner",
      "outputs": [
        {
          "internalType": "address",
          "name": "",
          "type": "address"
        }
      ],
      "stateMutability": "payable",
      "type": "function"
    },
    {
      "inputs": [],
      "name": "renounceOwnership",
      "outputs": [],
      "stateMutability": "payable",
      "type": "function"
    },
    {
      "inputs": [],
      "name": "sushiSwapRouter",
      "outputs": [
        {
          "internalType": "contract IUniswapV2Router02",
          "name": "",
          "type": "address"
        }
      ],
      "stateMutability": "view",
      "type": "function"
    },
    {
      "inputs": [
        {
          "internalType": "address",
          "name": "newOwner",
          "type": "address"
        }
      ],
      "name": "transferOwnership",
      "outputs": [],
      "stateMutability": "payable",
      "type": "function"
    },
    {
      "stateMutability": "payable",
      "type": "receive"
    },
    {
      "inputs": [
        {
          "internalType": "address",
          "name": "token0",
          "type": "address"
        },
        {
          "internalType": "address",
          "name": "token1",
          "type": "address"
        },
        {
          "internalType": "uint256",
          "name": "amount0",
          "type": "uint256"
        },
        {
          "internalType": "uint256",
          "name": "amount1",
          "type": "uint256"
        }
      ],
      "name": "executeTrade",
      "outputs": [],
      "stateMutability": "nonpayable",
      "type": "function"
    },
    {
      "inputs": [
        {
          "internalType": "uint256",
          "name": "_amount0",
          "type": "uint256"
        },
        {
          "internalType": "uint256",
          "name": "_amount1",
          "type": "uint256"
        }
      ],
      "name": "uniswapV2Call",
      "outputs": [],
      "stateMutability": "nonpayable",
      "type": "function"
    }
  ],
  "bytecode": "0x608060405260006001556003805460ff191690556200002e42606464010000000062000b56620000e082021704565b6004553480156200003e57600080fd5b506040516200192038038062001920833981016040819052620000619162000178565b60008054600160a060020a031916339081178255426001556040519091907f8be0079c531659141344cd1fd0a4f28419497f9722a3daafe3b4186f6b6457e0908290a36003805461010060a860020a031916610100600160a060020a039485160217905560058054600160a060020a03191691909216179055620001b0565b60008282018381101562000154576040517f08c379a000000000000000000000000000000000000000000000000000000000815260206004820152601b60248201527f536166654d6174683a206164646974696f6e206f766572666c6f770000000000604482015260640160405180910390fd5b9392505050565b8051600160a060020a03811681146200017357600080fd5b919050565b600080604083850312156200018c57600080fd5b62000197836200015b565b9150620001a7602084016200015b565b90509250929050565b61176080620001c06000396000f3fe60806040526004361061009e5760e060020a600035046329dcb0cf81146101655780636900e1bc1461018e578063715018a6146101b057806383197ef0146101b8578063893d20e8146101cd578063b8fb3a51146101ed578063b907861614610202578063c45a015514610222578063f2fde38b14610247578063f5074f411461025a578063fd829a231461027a578063ffa1ad741461029a576100de565b366100de577fcc85d09d309785db93d6df19917f2e6cc07fe27cd01c08c8279145deb5cf452633346040516100d492919061126b565b60405180910390a1005b3233146101345760405160e560020a62461bcd0281526020600482015260196024820152603860020a787068697368696e672061747461636b2064657465637465643f0260448201526064015b60405180910390fd5b7f26875833861a2b006512a11f1b86edf95df96131040f3caeed72989ee985808333346040516100d492919061126b565b34801561017157600080fd5b5061017b60045481565b6040519081526020015b60405180910390f35b34801561019a57600080fd5b506101ae6101a9366004611284565b6102e0565b005b6101ae610782565b3480156101c457600080fd5b506101ae6107e7565b6101d5610844565b604051600160a060020a039091168152602001610185565b3480156101f957600080fd5b5061017b601e81565b34801561020e57600080fd5b506101ae61021d3660046112be565b6108ba565b34801561022e57600080fd5b506003546101d5906101009004600160a060020a031681565b6101ae610255366004611304565b610a1e565b34801561026657600080fd5b506101ae610275366004611304565b610aff565b34801561028657600080fd5b506005546101d590600160a060020a031681565b3480156102a657600080fd5b506102d36040518060400160405280600a815260200160b060020a69312e362e342d626574610281525081565b6040516101859190611367565b6040805160028082526060820183526000926020830190803683370190505090506000831561030f5783610311565b825b9050600033600160a060020a0316630dfe16816040518163ffffffff1660e060020a028152600401602060405180830381865afa158015610356573d6000803e3d6000fd5b505050506040513d601f19601f8201168201806040525081019061037a919061139b565b9050600033600160a060020a031663d21220a76040518163ffffffff1660e060020a028152600401602060405180830381865afa1580156103bf573d6000803e3d6000fd5b505050506040513d601f19601f820116820180604052508101906103e3919061139b565b600354909150610402906101009004600160a060020a03168383610bb7565b600160a060020a031633600160a060020a03161461045a5760405160e560020a62461bcd02815260206004820152600f6024820152608a60020a6e125b9d985b1a590814995c5d595cdd02604482015260640161012b565b851580610465575084155b61048e5760405160e560020a62461bcd028152602060048201526000602482015260440161012b565b851561049a578161049c565b805b846000815181106104af576104af6113b8565b600160a060020a039092166020928302919091019091015285156104d357806104d5565b815b846001815181106104e8576104e86113b8565b600160a060020a03909216602092830291909101909101526000861561050e5782610510565b815b60055460405160e060020a63095ea7b3028152919250600160a060020a038084169263095ea7b392610548921690889060040161126b565b6020604051808303816000875af1158015610567573d6000803e3d6000fd5b505050506040513d601f19601f8201168201806040525081019061058b91906113d2565b506003546000906105ab906101009004600160a060020a03168688610c89565b6000815181106105bd576105bd6113b8565b60209081029190910101516005546004805460405160e060020a6338ed1739028152939450600093600160a060020a03909316926338ed17399261060b928b9288928e9233929091016113f4565b6000604051808303816000875af115801561062a573d6000803e3d6000fd5b505050506040513d6000823e601f3d908101601f191682016040526106529190810190611465565b600181518110610664576106646113b8565b6020026020010151905060008960001461067e5784610680565b855b60405160e060020a63a9059cbb028152909150600160a060020a0382169063a9059cbb906106b4903390879060040161126b565b6020604051808303816000875af11580156106d3573d6000803e3d6000fd5b505050506040513d601f19601f820116820180604052508101906106f791906113d2565b5080600160a060020a031663a9059cbb336107128587610e21565b6040518363ffffffff1660e060020a02815260040161073292919061126b565b6020604051808303816000875af1158015610751573d6000803e3d6000fd5b505050506040513d601f19601f8201168201806040525081019061077591906113d2565b5050505050505050505050565b600054600160a060020a031633146107af5760405160e560020a62461bcd02815260040161012b90611521565b60008054604051600160a060020a039091169060008051602061170b833981519152908390a360008054600160a060020a0319169055565b600054600160a060020a031633146108145760405160e560020a62461bcd02815260040161012b90611555565b6000805160206116eb8339815191523361082c610844565b60405161083a92919061158c565b60405180910390a1565b6000601e60015461085591906115c0565b42116108765760405160e560020a62461bcd02815260040161012b906115d3565b601e60015461088591906115c0565b42116108a65760405160e560020a62461bcd02815260040161012b906115d3565b5042600155600054600160a060020a031690565b60035460405160e060020a63e6a439050281526000916101009004600160a060020a03169063e6a43905906108f5908890889060040161158c565b602060405180830381865afa158015610912573d6000803e3d6000fd5b505050506040513d601f19601f82011682018060405250810190610936919061139b565b9050600160a060020a0381166109915760405160e560020a62461bcd02815260206004820152601e60248201527f436f756c64206e6f742066696e6420706f6f6c206f6e20756e69737761700000604482015260640161012b565b6040805180820182526009815260b960020a68333630b9b43637b0b7026020820152905160e060020a63022c0d9f028152600160a060020a0383169163022c0d9f916109e591879187913091600401611600565b600060405180830381600087803b1580156109ff57600080fd5b505af1158015610a13573d6000803e3d6000fd5b505050505050505050565b600054600160a060020a03163314610a4b5760405160e560020a62461bcd02815260040161012b90611521565b600160a060020a038116610ab65760405160e560020a62461bcd02815260206004820152602660248201527f4f776e61626c653a206e6577206f776e657220697320746865207a65726f2061604482015260d060020a6564647265737302606482015260840161012b565b60008054604051600160a060020a038085169392169160008051602061170b83398151915291a360008054600160a060020a031916600160a060020a0392909216919091179055565b600054600160a060020a03163314610b2c5760405160e560020a62461bcd02815260040161012b90611555565b6000805160206116eb8339815191523382604051610b4b92919061158c565b60405180910390a150565b600082820183811015610bae5760405160e560020a62461bcd02815260206004820152601b60248201527f536166654d6174683a206164646974696f6e206f766572666c6f770000000000604482015260640161012b565b90505b92915050565b6000806000610bc68585610e88565b604051606060020a600160a060020a038085168202602084015283160260348201529193509150869060480160405160208183030381529060405280519060200120604051602001610c67929190600160f860020a03198152600160a060020a0392909216606060020a02600183015260158201527f96e8ac4277198ff8b6f785478aa9a39f403cb768dd02cbee326c3e7da348845f603582015260550190565b60408051808303601f1901815291905280516020909101209695505050505050565b6060600282511015610ce05760405160e560020a62461bcd02815260206004820152601e60248201527f556e697377617056324c6962726172793a20494e56414c49445f504154480000604482015260640161012b565b81516001604060020a03811115610cf957610cf9611381565b604051908082528060200260200182016040528015610d22578160200160208202803683370190505b509050828160018351610d35919061162e565b81518110610d4557610d456113b8565b602002602001018181525050600060018351610d61919061162e565b90505b8015610e1957600080610db48786610d7d60018761162e565b81518110610d8d57610d8d6113b8565b6020026020010151878681518110610da757610da76113b8565b6020026020010151610f88565b91509150610ddc848481518110610dcd57610dcd6113b8565b60200260200101518383611055565b84610de860018661162e565b81518110610df857610df86113b8565b60200260200101818152505050508080610e1190611641565b915050610d64565b509392505050565b600082821115610e765760405160e560020a62461bcd02815260206004820152601e60248201527f536166654d6174683a207375627472616374696f6e206f766572666c6f770000604482015260640161012b565b818303821984018114610bae57600080fd5b60008082600160a060020a031684600160a060020a031603610f005760405160e560020a62461bcd02815260206004820152602560248201527f556e697377617056324c6962726172793a204944454e544943414c5f41444452604482015260d860020a64455353455302606482015260840161012b565b82600160a060020a031684600160a060020a031610610f20578284610f23565b83835b9092509050600160a060020a038216610f815760405160e560020a62461bcd02815260206004820152601e60248201527f556e697377617056324c6962726172793a205a45524f5f414444524553530000604482015260640161012b565b9250929050565b6000806000610f978585610e88565b509050600080610fa8888888610bb7565b600160a060020a0316630902f1ac6040518163ffffffff1660e060020a028152600401606060405180830381865afa158015610fe8573d6000803e3d6000fd5b505050506040513d601f19601f8201168201806040525081019061100c9190611674565b506001607060020a031691506001607060020a0316915082600160a060020a031687600160a060020a031614611043578082611046565b81815b90999098509650505050505050565b60008084116110c15760405160e560020a62461bcd02815260206004820152602c60248201527f556e697377617056324c6962726172793a20494e53554646494349454e545f4f604482015260a260020a6b155514155517d05353d5539502606482015260840161012b565b6000831180156110d15750600082115b6111345760405160e560020a62461bcd02815260206004820152602860248201527f556e697377617056324c6962726172793a20494e53554646494349454e545f4c604482015260c060020a67495155494449545902606482015260840161012b565b600061114b6111438587611184565b6103e8611184565b9050600061116461115c8588610e21565b6103e5611184565b905061117a6111738383611204565b6001610b56565b9695505050505050565b60008282028215838204851415171561119c57600080fd5b826111a785836116c4565b14610bae5760405160e560020a62461bcd02815260206004820152602160248201527f536166654d6174683a206d756c7469706c69636174696f6e206f766572666c6f604482015260f860020a607702606482015260840161012b565b60008082116112585760405160e560020a62461bcd02815260206004820152601a60248201527f536166654d6174683a206469766973696f6e206279207a65726f000000000000604482015260640161012b565b60008261126457600080fd5b5050900490565b600160a060020a03929092168252602082015260400190565b6000806040838503121561129757600080fd5b50508035926020909101359150565b600160a060020a03811681146112bb57600080fd5b50565b600080600080608085870312156112d457600080fd5b84356112df816112a6565b935060208501356112ef816112a6565b93969395505050506040820135916060013590565b60006020828403121561131657600080fd5b8135610bae816112a6565b6000815180845260005b818110156113475760208185018101518683018201520161132b565b506000602082860101526020601f19601f83011685010191505092915050565b60208152600061137a6020830184611321565b9392505050565b60e060020a634e487b710260009081526041600452602490fd5b6000602082840312156113ad57600080fd5b8151610bae816112a6565b60e060020a634e487b710260009081526032600452602490fd5b6000602082840312156113e457600080fd5b81518015158114610bae57600080fd5b600060a082018783526020878185015260a0604085015281875180845260c086019150828901935060005b81811015611444578451600160a060020a03168352938301939183019160010161141f565b5050600160a060020a03969096166060850152505050608001529392505050565b6000602080838503121561147857600080fd5b82516001604060020a038082111561148f57600080fd5b818501915085601f8301126114a357600080fd5b8151818111156114b5576114b5611381565b838102604051601f19603f830116810181811085821117156114d9576114d9611381565b6040529182528482019250838101850191888311156114f757600080fd5b938501935b82851015611515578451845293850193928501926114fc565b98975050505050505050565b6020808252601790820152604960020a7630b1b1b2b9b9903232b734b2b2103337b91037bbb732b902604082015260600190565b6020808252601b908201527f756e617574686f72697a65642c206e6f7420746865206f776e65720000000000604082015260600190565b600160a060020a0392831681529116602082015260400190565b60e060020a634e487b710260009081526011600452602490fd5b80820180821115610bb157610bb16115a6565b6020808252601090820152608160020a6f3930ba32903634b6b4ba1032b93937b902604082015260600190565b848152836020820152600160a060020a038316604082015260806060820152600061117a6080830184611321565b81810381811115610bb157610bb16115a6565b600081611650576116506115a6565b506000190190565b80516001607060020a038116811461166f57600080fd5b919050565b60008060006060848603121561168957600080fd5b61169284611658565b92506116a060208501611658565b9150604084015163ffffffff811681146116b957600080fd5b809150509250925092565b6000826116e55760e060020a634e487b710260009081526012600452602490fd5b50049056fe91ca00fdf29069527d658f8dfc6d1c0bf9861780bb45ff36436f938d3595a8d68be0079c531659141344cd1fd0a4f28419497f9722a3daafe3b4186f6b6457e0a2646970667358221220afbd5bbec48d4ef78d02d910f5edb50cddc6241a200ed19db24e77fbdd86b63564736f6c63430008120033",
  "immutableReferences": {},
  "source": "// SPDX-License-Identifier: CC-BY-4.0\r\npragma solidity >=0.4.22 <0.9.0;\r\n\r\n// Refactored from https://cryptomarketpool.com/flash-loan-arbitrage-on-uniswap-and-sushiswap/\r\n\r\n// import required interfaces\r\nimport \"../../common/Version.sol\";\r\nimport \"../../common/Frozen.sol\";\r\nimport \"../../interfaces/IERC20.sol\";\r\nimport \"../../interfaces/IUniswapV2Router02.sol\";\r\nimport \"../../interfaces/IUniswapV2Pair.sol\";\r\nimport \"../../interfaces/IUniswapV2Factory.sol\";\r\nimport \"../../libs/UniswapV2Library.sol\";\r\nimport \"../../libs/SafeMath.sol\";\r\n\r\ncontract FlashLoanArbitrage is Version, Frozen {\r\n\r\n    //uniswap factory address\r\n    address public factory;\r\n\r\n    // trade deadline used for expiration\r\n    uint public deadline = SafeMath.safeAdd(block.timestamp, 100);\r\n\r\n    //create pointer to the sushiswapRouter\r\n    IUniswapV2Router02 public sushiSwapRouter;\r\n\r\n    constructor(address _factory, address _sushiSwapRouter) {\r\n        // create uniswap factory\r\n        factory = _factory;\r\n\r\n        // create sushiswapRouter\r\n        sushiSwapRouter = IUniswapV2Router02(_sushiSwapRouter);\r\n    }\r\n\r\n\r\n\r\n    // trader needs to monitor for arbitrage opportunities with a bot or script\r\n    // this is the function that trader will call when an arbitrage opportunity exists\r\n    // tokens are the addresses that you want to trade\r\n    // this first function will create the flash loan on uniswap\r\n    // one of the amounts will be 0 and the other amount will be the amount you want to borrow\r\n    function executeTrade(address token0, address token1, uint amount0, uint amount1) external {\r\n\r\n        // get liquidity pair address for tokens on uniswap\r\n        address pairAddress = IUniswapV2Factory(factory).getPair(token0, token1);\r\n\r\n        // make sure the pair exists in uniswap\r\n        require(pairAddress != address(0), 'Could not find pool on uniswap');\r\n\r\n        // create flashloan\r\n        // create pointer to the liquidity pair address\r\n        // to create a flashloan call the swap function on the pair contract\r\n        // one amount will be 0 and the non 0 amount is for the token you want to borrow\r\n        // address is where you want to receive token that you are borrowing\r\n        // bytes can not be empty.  Need to inculde some text to initiate the flash loan\r\n        // if bytes is empty it will initiate a traditional swap\r\n        IUniswapV2Pair(pairAddress).swap(amount0, amount1, address(this), bytes('flashloan'));\r\n    }\r\n\r\n\r\n\r\n    // After the flashloan is created the below function will be called back by Uniswap\r\n    // Uniswap is expecting the function to be named uniswapV2Call\r\n    // the parameters below will be sent\r\n    // sender is the smart contract address\r\n    // amount will be the amount borrowed from the flashloan and other amount will be 0\r\n    // bytes is the calldata passed in above\r\n    function uniswapV2Call(uint _amount0, uint _amount1) external {\r\n\r\n        // the path is the array of addresses to capture pricing information\r\n        address[] memory path = new address[](2);\r\n\r\n        // get the amount of tokens that were borrowed in the flash loan amount 0 or amount 1\r\n        // call it amountTokenBorrowed and will use later in the function\r\n        uint amountTokenBorrowed = _amount0 == 0 ? _amount1 : _amount0;\r\n\r\n        // get the addresses of the two tokens from the uniswap liquidity pool\r\n        address token0 = IUniswapV2Pair(msg.sender).token0();\r\n        address token1 = IUniswapV2Pair(msg.sender).token1();\r\n\r\n        // make sure the call to this function originated from\r\n        // one of the pair contracts in uniswap to prevent unauthorized behavior\r\n        require(msg.sender == UniswapV2Library.pairFor(factory, token0, token1), 'Invalid Request');\r\n\r\n        // make sure one of the amounts = 0\r\n        require(_amount0 == 0 || _amount1 == 0,\"\");\r\n\r\n        // create and populate path array for sushiswap.\r\n        // this defines what token we are buying or selling\r\n        // if amount0 == 0 then we are going to sell token 1 and buy token 0 on sushiswap\r\n        // if amount0 is not 0 then we are going to sell token 0 and buy token 1 on sushiswap\r\n        path[0] = _amount0 == 0 ? token1 : token0;\r\n        path[1] = _amount0 == 0 ? token0 : token1;\r\n\r\n        // create a pointer to the token we are going to sell on sushiswap\r\n        IERC20 token = IERC20(_amount0 == 0 ? token1 : token0);\r\n\r\n        // approve the sushiSwapRouter to spend our tokens so the trade can occur\r\n        token.approve(address(sushiSwapRouter), amountTokenBorrowed);\r\n\r\n        // calculate the amount of tokens we need to reimburse uniswap for the flashloan\r\n        uint amountRequired = UniswapV2Library.getAmountsIn(factory, amountTokenBorrowed, path)[0];\r\n\r\n        // finally sell the token we borrowed from uniswap on sushiswap\r\n        // amountTokenBorrowed is the amount to sell\r\n        // amountRequired is the minimum amount of token to receive in exchange required to payback the flash loan\r\n        // path what we are selling or buying\r\n        // msg.sender address to receive the tokens\r\n        // deadline is the order time limit\r\n        // if the amount received does not cover the flash loan the entire transaction is reverted\r\n        uint amountReceived = sushiSwapRouter.swapExactTokensForTokens(amountTokenBorrowed,\r\n                                                                       amountRequired,\r\n                                                                       path,\r\n                                                                       payable(msg.sender),\r\n                                                                       deadline)[1];\r\n\r\n        // pointer to output token from sushiswap\r\n        IERC20 outputToken = IERC20(_amount0 == 0 ? token0 : token1);\r\n\r\n        // amount to payback flashloan\r\n        // amountRequired is the amount we need to payback\r\n        // uniswap can accept any token as payment\r\n        outputToken.transfer(msg.sender, amountRequired);\r\n\r\n        // send profit (remaining tokens) back to the address that initiated the transaction\r\n        //outputToken.transfer(tx.origin, SafeNath,safeSub(amountReceived - amountRequired));\r\n        outputToken.transfer(msg.sender, SafeMath.safeSub(amountReceived, amountRequired));\r\n    }\r\n}",
  "sourcePath": "/Volumes/My Book/projects/pingleware-contracts/contracts/finance/debt/FlashLoanArbitrage.sol",
  "compiler": {
    "name": "solc",
    "version": "0.8.18+commit.87f61d96.Emscripten.clang"
  },
  "schemaVersion": "3.4.12",
  "updatedAt": "2023-10-22T14:23:00.982Z",
  "devdoc": {
    "kind": "dev",
    "methods": {
      "renounceOwnership()": {
        "details": "Leaves the contract without owner. It will not be possible to call `onlyOwner` functions anymore. Can only be called by the current owner. NOTE: Renouncing ownership will leave the contract without an owner, thereby removing any functionality that is only available to the owner."
      },
      "transferOwnership(address)": {
        "details": "Transfers ownership of the contract to a new account (`newOwner`). Can only be called by the current owner."
      }
    },
    "version": 1
  },
  "userdoc": {
    "kind": "user",
    "methods": {},
    "version": 1
  }
}