{
  "contractName": "Forward",
  "abi": [
    {
      "inputs": [],
      "stateMutability": "nonpayable",
      "type": "constructor"
    },
    {
      "anonymous": false,
      "inputs": [
        {
          "indexed": false,
          "internalType": "address",
          "name": "wallet",
          "type": "address"
        },
        {
          "indexed": false,
          "internalType": "uint256",
          "name": "amount",
          "type": "uint256"
        }
      ],
      "name": "Deposit",
      "type": "event"
    },
    {
      "anonymous": false,
      "inputs": [
        {
          "indexed": false,
          "internalType": "address",
          "name": "sender",
          "type": "address"
        },
        {
          "indexed": false,
          "internalType": "address",
          "name": "recipient",
          "type": "address"
        }
      ],
      "name": "Destroyed",
      "type": "event"
    },
    {
      "anonymous": false,
      "inputs": [
        {
          "indexed": false,
          "internalType": "address",
          "name": "sender",
          "type": "address"
        },
        {
          "indexed": false,
          "internalType": "uint256",
          "name": "amount",
          "type": "uint256"
        }
      ],
      "name": "FallbackEvent",
      "type": "event"
    },
    {
      "anonymous": false,
      "inputs": [
        {
          "indexed": false,
          "internalType": "address",
          "name": "investor",
          "type": "address"
        },
        {
          "indexed": false,
          "internalType": "string",
          "name": "ccypair",
          "type": "string"
        },
        {
          "indexed": false,
          "internalType": "uint256",
          "name": "lots",
          "type": "uint256"
        },
        {
          "indexed": false,
          "internalType": "uint256",
          "name": "maturity",
          "type": "uint256"
        },
        {
          "components": [
            {
              "internalType": "string",
              "name": "ccypair",
              "type": "string"
            },
            {
              "internalType": "uint256",
              "name": "lots",
              "type": "uint256"
            },
            {
              "internalType": "uint256",
              "name": "maturity",
              "type": "uint256"
            },
            {
              "internalType": "uint256",
              "name": "rate",
              "type": "uint256"
            }
          ],
          "indexed": false,
          "internalType": "struct Forward.ForwardToken",
          "name": "token",
          "type": "tuple"
        }
      ],
      "name": "ForwardTokenMinted",
      "type": "event"
    },
    {
      "anonymous": false,
      "inputs": [
        {
          "indexed": true,
          "internalType": "address",
          "name": "previousOwner",
          "type": "address"
        },
        {
          "indexed": true,
          "internalType": "address",
          "name": "newOwner",
          "type": "address"
        }
      ],
      "name": "OwnershipTransferred",
      "type": "event"
    },
    {
      "anonymous": false,
      "inputs": [
        {
          "indexed": false,
          "internalType": "address",
          "name": "sender",
          "type": "address"
        },
        {
          "indexed": false,
          "internalType": "uint256",
          "name": "amount",
          "type": "uint256"
        }
      ],
      "name": "ReceiveEvent",
      "type": "event"
    },
    {
      "anonymous": false,
      "inputs": [
        {
          "indexed": false,
          "internalType": "address",
          "name": "sender",
          "type": "address"
        },
        {
          "indexed": false,
          "internalType": "bytes",
          "name": "reason",
          "type": "bytes"
        }
      ],
      "name": "Started",
      "type": "event"
    },
    {
      "anonymous": false,
      "inputs": [
        {
          "indexed": false,
          "internalType": "address",
          "name": "sender",
          "type": "address"
        },
        {
          "indexed": false,
          "internalType": "bytes",
          "name": "reason",
          "type": "bytes"
        }
      ],
      "name": "Stopped",
      "type": "event"
    },
    {
      "anonymous": false,
      "inputs": [
        {
          "indexed": false,
          "internalType": "address",
          "name": "sender",
          "type": "address"
        },
        {
          "indexed": false,
          "internalType": "string",
          "name": "reason",
          "type": "string"
        }
      ],
      "name": "Termination",
      "type": "event"
    },
    {
      "anonymous": false,
      "inputs": [
        {
          "indexed": false,
          "internalType": "address",
          "name": "investor",
          "type": "address"
        },
        {
          "indexed": false,
          "internalType": "uint256",
          "name": "amount",
          "type": "uint256"
        }
      ],
      "name": "Withdrawal",
      "type": "event"
    },
    {
      "stateMutability": "payable",
      "type": "fallback"
    },
    {
      "inputs": [],
      "name": "DAY",
      "outputs": [
        {
          "internalType": "uint256",
          "name": "",
          "type": "uint256"
        }
      ],
      "stateMutability": "view",
      "type": "function"
    },
    {
      "inputs": [],
      "name": "EIGHT_MONTHS",
      "outputs": [
        {
          "internalType": "uint256",
          "name": "",
          "type": "uint256"
        }
      ],
      "stateMutability": "view",
      "type": "function"
    },
    {
      "inputs": [],
      "name": "ELEVEN_MONTHS",
      "outputs": [
        {
          "internalType": "uint256",
          "name": "",
          "type": "uint256"
        }
      ],
      "stateMutability": "view",
      "type": "function"
    },
    {
      "inputs": [],
      "name": "FIVE_MONTHS",
      "outputs": [
        {
          "internalType": "uint256",
          "name": "",
          "type": "uint256"
        }
      ],
      "stateMutability": "view",
      "type": "function"
    },
    {
      "inputs": [],
      "name": "FIVE_YEARS",
      "outputs": [
        {
          "internalType": "uint256",
          "name": "",
          "type": "uint256"
        }
      ],
      "stateMutability": "view",
      "type": "function"
    },
    {
      "inputs": [],
      "name": "FOUR_MONTHS",
      "outputs": [
        {
          "internalType": "uint256",
          "name": "",
          "type": "uint256"
        }
      ],
      "stateMutability": "view",
      "type": "function"
    },
    {
      "inputs": [],
      "name": "FOUR_YEARS",
      "outputs": [
        {
          "internalType": "uint256",
          "name": "",
          "type": "uint256"
        }
      ],
      "stateMutability": "view",
      "type": "function"
    },
    {
      "inputs": [],
      "name": "MONTH",
      "outputs": [
        {
          "internalType": "uint256",
          "name": "",
          "type": "uint256"
        }
      ],
      "stateMutability": "view",
      "type": "function"
    },
    {
      "inputs": [],
      "name": "NEXT_DAY",
      "outputs": [
        {
          "internalType": "uint256",
          "name": "",
          "type": "uint256"
        }
      ],
      "stateMutability": "view",
      "type": "function"
    },
    {
      "inputs": [],
      "name": "NINE_MONTHS",
      "outputs": [
        {
          "internalType": "uint256",
          "name": "",
          "type": "uint256"
        }
      ],
      "stateMutability": "view",
      "type": "function"
    },
    {
      "inputs": [],
      "name": "ONE_MONTH",
      "outputs": [
        {
          "internalType": "uint256",
          "name": "",
          "type": "uint256"
        }
      ],
      "stateMutability": "view",
      "type": "function"
    },
    {
      "inputs": [],
      "name": "ONE_WEEK",
      "outputs": [
        {
          "internalType": "uint256",
          "name": "",
          "type": "uint256"
        }
      ],
      "stateMutability": "view",
      "type": "function"
    },
    {
      "inputs": [],
      "name": "ONE_YEAR",
      "outputs": [
        {
          "internalType": "uint256",
          "name": "",
          "type": "uint256"
        }
      ],
      "stateMutability": "view",
      "type": "function"
    },
    {
      "inputs": [],
      "name": "SEVEN_MONTHS",
      "outputs": [
        {
          "internalType": "uint256",
          "name": "",
          "type": "uint256"
        }
      ],
      "stateMutability": "view",
      "type": "function"
    },
    {
      "inputs": [],
      "name": "SEVEN_YEARS",
      "outputs": [
        {
          "internalType": "uint256",
          "name": "",
          "type": "uint256"
        }
      ],
      "stateMutability": "view",
      "type": "function"
    },
    {
      "inputs": [],
      "name": "SIX_MONTHS",
      "outputs": [
        {
          "internalType": "uint256",
          "name": "",
          "type": "uint256"
        }
      ],
      "stateMutability": "view",
      "type": "function"
    },
    {
      "inputs": [],
      "name": "SIX_YEARS",
      "outputs": [
        {
          "internalType": "uint256",
          "name": "",
          "type": "uint256"
        }
      ],
      "stateMutability": "view",
      "type": "function"
    },
    {
      "inputs": [],
      "name": "TEN_MONTHS",
      "outputs": [
        {
          "internalType": "uint256",
          "name": "",
          "type": "uint256"
        }
      ],
      "stateMutability": "view",
      "type": "function"
    },
    {
      "inputs": [],
      "name": "TEN_YEARS",
      "outputs": [
        {
          "internalType": "uint256",
          "name": "",
          "type": "uint256"
        }
      ],
      "stateMutability": "view",
      "type": "function"
    },
    {
      "inputs": [],
      "name": "THREE_MONTHS",
      "outputs": [
        {
          "internalType": "uint256",
          "name": "",
          "type": "uint256"
        }
      ],
      "stateMutability": "view",
      "type": "function"
    },
    {
      "inputs": [],
      "name": "THREE_WEEKS",
      "outputs": [
        {
          "internalType": "uint256",
          "name": "",
          "type": "uint256"
        }
      ],
      "stateMutability": "view",
      "type": "function"
    },
    {
      "inputs": [],
      "name": "THREE_YEARS",
      "outputs": [
        {
          "internalType": "uint256",
          "name": "",
          "type": "uint256"
        }
      ],
      "stateMutability": "view",
      "type": "function"
    },
    {
      "inputs": [],
      "name": "TWO_MONTHS",
      "outputs": [
        {
          "internalType": "uint256",
          "name": "",
          "type": "uint256"
        }
      ],
      "stateMutability": "view",
      "type": "function"
    },
    {
      "inputs": [],
      "name": "TWO_WEEKS",
      "outputs": [
        {
          "internalType": "uint256",
          "name": "",
          "type": "uint256"
        }
      ],
      "stateMutability": "view",
      "type": "function"
    },
    {
      "inputs": [],
      "name": "TWO_YEARS",
      "outputs": [
        {
          "internalType": "uint256",
          "name": "",
          "type": "uint256"
        }
      ],
      "stateMutability": "view",
      "type": "function"
    },
    {
      "inputs": [],
      "name": "VERSION",
      "outputs": [
        {
          "internalType": "string",
          "name": "",
          "type": "string"
        }
      ],
      "stateMutability": "view",
      "type": "function"
    },
    {
      "inputs": [],
      "name": "WAIT",
      "outputs": [
        {
          "internalType": "uint256",
          "name": "",
          "type": "uint256"
        }
      ],
      "stateMutability": "view",
      "type": "function"
    },
    {
      "inputs": [],
      "name": "WEEK",
      "outputs": [
        {
          "internalType": "uint256",
          "name": "",
          "type": "uint256"
        }
      ],
      "stateMutability": "view",
      "type": "function"
    },
    {
      "inputs": [],
      "name": "YEAR",
      "outputs": [
        {
          "internalType": "uint256",
          "name": "",
          "type": "uint256"
        }
      ],
      "stateMutability": "view",
      "type": "function"
    },
    {
      "inputs": [],
      "name": "destroy",
      "outputs": [],
      "stateMutability": "nonpayable",
      "type": "function"
    },
    {
      "inputs": [
        {
          "internalType": "address",
          "name": "_recipient",
          "type": "address"
        }
      ],
      "name": "destroyAndSend",
      "outputs": [],
      "stateMutability": "nonpayable",
      "type": "function"
    },
    {
      "inputs": [
        {
          "internalType": "string",
          "name": "",
          "type": "string"
        }
      ],
      "name": "fwdrates",
      "outputs": [
        {
          "internalType": "uint256",
          "name": "Points",
          "type": "uint256"
        },
        {
          "internalType": "uint256",
          "name": "SpotRate",
          "type": "uint256"
        },
        {
          "internalType": "uint256",
          "name": "Ask",
          "type": "uint256"
        },
        {
          "internalType": "uint256",
          "name": "Mid",
          "type": "uint256"
        },
        {
          "internalType": "uint256",
          "name": "Bid",
          "type": "uint256"
        },
        {
          "internalType": "uint256",
          "name": "Expiration",
          "type": "uint256"
        }
      ],
      "stateMutability": "view",
      "type": "function"
    },
    {
      "inputs": [],
      "name": "getOwner",
      "outputs": [
        {
          "internalType": "address",
          "name": "",
          "type": "address"
        }
      ],
      "stateMutability": "payable",
      "type": "function"
    },
    {
      "inputs": [
        {
          "internalType": "string",
          "name": "",
          "type": "string"
        }
      ],
      "name": "interestRates",
      "outputs": [
        {
          "internalType": "string",
          "name": "name",
          "type": "string"
        },
        {
          "internalType": "string",
          "name": "country",
          "type": "string"
        },
        {
          "internalType": "string",
          "name": "symbol",
          "type": "string"
        },
        {
          "internalType": "uint256",
          "name": "current_rate",
          "type": "uint256"
        },
        {
          "internalType": "uint256",
          "name": "previous_rate",
          "type": "uint256"
        },
        {
          "internalType": "string",
          "name": "change",
          "type": "string"
        }
      ],
      "stateMutability": "view",
      "type": "function"
    },
    {
      "inputs": [],
      "name": "renounceOwnership",
      "outputs": [],
      "stateMutability": "payable",
      "type": "function"
    },
    {
      "inputs": [
        {
          "internalType": "address",
          "name": "",
          "type": "address"
        }
      ],
      "name": "tokens",
      "outputs": [
        {
          "internalType": "string",
          "name": "ccypair",
          "type": "string"
        },
        {
          "internalType": "uint256",
          "name": "lots",
          "type": "uint256"
        },
        {
          "internalType": "uint256",
          "name": "maturity",
          "type": "uint256"
        },
        {
          "internalType": "uint256",
          "name": "rate",
          "type": "uint256"
        }
      ],
      "stateMutability": "view",
      "type": "function"
    },
    {
      "inputs": [
        {
          "internalType": "address",
          "name": "newOwner",
          "type": "address"
        }
      ],
      "name": "transferOwnership",
      "outputs": [],
      "stateMutability": "payable",
      "type": "function"
    },
    {
      "stateMutability": "payable",
      "type": "receive"
    },
    {
      "inputs": [
        {
          "internalType": "string",
          "name": "ccyPair",
          "type": "string"
        },
        {
          "internalType": "uint256",
          "name": "Points",
          "type": "uint256"
        },
        {
          "internalType": "uint256",
          "name": "SpotRate",
          "type": "uint256"
        },
        {
          "internalType": "uint256",
          "name": "Ask",
          "type": "uint256"
        },
        {
          "internalType": "uint256",
          "name": "Mid",
          "type": "uint256"
        },
        {
          "internalType": "uint256",
          "name": "Bid",
          "type": "uint256"
        },
        {
          "internalType": "uint256",
          "name": "Expiration",
          "type": "uint256"
        }
      ],
      "name": "updateForwardRate",
      "outputs": [],
      "stateMutability": "payable",
      "type": "function"
    },
    {
      "inputs": [
        {
          "internalType": "string",
          "name": "name",
          "type": "string"
        },
        {
          "internalType": "string",
          "name": "country",
          "type": "string"
        },
        {
          "internalType": "string",
          "name": "symbol",
          "type": "string"
        },
        {
          "internalType": "uint256",
          "name": "current_rate",
          "type": "uint256"
        },
        {
          "internalType": "uint256",
          "name": "previous_rate",
          "type": "uint256"
        },
        {
          "internalType": "string",
          "name": "change",
          "type": "string"
        }
      ],
      "name": "updateInterestRate",
      "outputs": [],
      "stateMutability": "payable",
      "type": "function"
    },
    {
      "inputs": [
        {
          "internalType": "string",
          "name": "ccypair",
          "type": "string"
        },
        {
          "internalType": "uint256",
          "name": "maturity",
          "type": "uint256"
        }
      ],
      "name": "quote",
      "outputs": [
        {
          "internalType": "uint256",
          "name": "",
          "type": "uint256"
        }
      ],
      "stateMutability": "view",
      "type": "function"
    },
    {
      "inputs": [
        {
          "internalType": "string",
          "name": "ccypair",
          "type": "string"
        },
        {
          "internalType": "uint256",
          "name": "lots",
          "type": "uint256"
        },
        {
          "internalType": "uint256",
          "name": "maturity",
          "type": "uint256"
        }
      ],
      "name": "mint",
      "outputs": [],
      "stateMutability": "payable",
      "type": "function"
    },
    {
      "inputs": [
        {
          "internalType": "uint256",
          "name": "forward_rate",
          "type": "uint256"
        }
      ],
      "name": "profitLoss",
      "outputs": [
        {
          "internalType": "uint256",
          "name": "",
          "type": "uint256"
        }
      ],
      "stateMutability": "view",
      "type": "function"
    },
    {
      "inputs": [],
      "name": "isMatured",
      "outputs": [
        {
          "internalType": "bool",
          "name": "",
          "type": "bool"
        }
      ],
      "stateMutability": "view",
      "type": "function"
    },
    {
      "inputs": [
        {
          "internalType": "uint256",
          "name": "forward_rate",
          "type": "uint256"
        }
      ],
      "name": "withdraw",
      "outputs": [],
      "stateMutability": "payable",
      "type": "function"
    },
    {
      "inputs": [],
      "name": "deposit",
      "outputs": [],
      "stateMutability": "payable",
      "type": "function"
    },
    {
      "inputs": [],
      "name": "balance",
      "outputs": [
        {
          "internalType": "uint256",
          "name": "",
          "type": "uint256"
        }
      ],
      "stateMutability": "view",
      "type": "function"
    }
  ],
  "bytecode": "0x608060405260006001556003805460ff1990811690915560078054909116905534801561002b57600080fd5b5060008054600160a060020a031916339081178255426001556040519091907f8be0079c531659141344cd1fd0a4f28419497f9722a3daafe3b4186f6b6457e0908290a36122b58061007e6000396000f3fe6080604052600436106102145760e060020a600035046301edf6a081146102db57806316d3bfbb146103035780631c635ded1461031b57806320988cef1461033057806325d70ee61461034757806327cfe8561461035c5780632e1a7d4d1461037357806342b134dd1461038657806351512c1a1461039b57806353f7e4b7146103b057806363b7717f146103d0578063695dbf97146103f0578063715018a61461040557806376b0f1e21461040d57806377006158146104205780637f2b6a0d146104ad57806383197ef0146104d2578063839145401461030357806388ee3810146104e7578063893d20e8146104fc57806389d89bae1461051c5780638e6f6b7714610531578063934d1fa414610548578063a3c3313a1461055d578063adebeb5f14610572578063b69ef8a814610587578063b8fb3a511461059b578063ba579c74146105b0578063bd2744d1146105c5578063c41c64d2146105f7578063c9fe58751461060c578063d0e30db014610621578063d1d6fb4c14610629578063d30bd3cb1461063e578063d5999a5c14610330578063d60104961461035c578063e181b5b314610651578063e19e543714610666578063e48603391461067b578063ecbefab7146106ab578063f2fde38b146106c0578063f4359ce514610531578063f5074f41146106d3578063fc742aa9146106f3578063fe904b7a14610708578063ffa1ad741461071d57610254565b36610254577fcc85d09d309785db93d6df19917f2e6cc07fe27cd01c08c8279145deb5cf4526333460405161024a929190611a04565b60405180910390a1005b3233146102aa5760405160e560020a62461bcd0281526020600482015260196024820152603860020a787068697368696e672061747461636b2064657465637465643f0260448201526064015b60405180910390fd5b7f26875833861a2b006512a11f1b86edf95df96131040f3caeed72989ee9858083333460405161024a929190611a04565b3480156102e757600080fd5b506102f0610763565b6040519081526020015b60405180910390f35b34801561030f57600080fd5b506102f06301da9c0081565b61032e610329366004611ac3565b610775565b005b34801561033c57600080fd5b506102f062278d0081565b34801561035357600080fd5b506102f0610bde565b34801561036857600080fd5b506102f06201518081565b61032e610381366004611b10565b610bed565b34801561039257600080fd5b506102f0610ec0565b3480156103a757600080fd5b506102f0610ece565b3480156103bc57600080fd5b506102f06103cb366004611b10565b610edc565b3480156103dc57600080fd5b506102f06103eb366004611b29565b610f22565b3480156103fc57600080fd5b506102f0610f37565b61032e610f45565b61032e61041b366004611bb5565b610faa565b34801561042c57600080fd5b5061048061043b366004611c8e565b80516020818301810180516005808352938301929094019190912092905281546001830154600284015460038501546004860154959094015492949193909290919086565b604080519687526020870195909552938501929092526060840152608083015260a082015260c0016102fa565b3480156104b957600080fd5b506104c261113e565b60405190151581526020016102fa565b3480156104de57600080fd5b5061032e611179565b3480156104f357600080fd5b506102f06111d6565b6105046111e5565b604051600160a060020a0390911681526020016102fa565b34801561052857600080fd5b506102f061125b565b34801561053d57600080fd5b506102f062093a8081565b34801561055457600080fd5b506102f061126a565b34801561056957600080fd5b506102f0611278565b34801561057e57600080fd5b506102f0611287565b34801561059357600080fd5b5030316102f0565b3480156105a757600080fd5b506102f0601e81565b3480156105bc57600080fd5b506102f0611295565b3480156105d157600080fd5b506105e56105e0366004611c8e565b6112a3565b6040516102fa96959493929190611d1a565b34801561060357600080fd5b506102f0611502565b34801561061857600080fd5b506102f0611510565b61032e61151e565b34801561063557600080fd5b506102f06115fe565b61032e61064c366004611d80565b61160c565b34801561065d57600080fd5b506102f061169b565b34801561067257600080fd5b506102f06116aa565b34801561068757600080fd5b5061069b610696366004611df2565b6116b8565b6040516102fa9493929190611e1b565b3480156106b757600080fd5b506102f0611768565b61032e6106ce366004611df2565b611776565b3480156106df57600080fd5b5061032e6106ee366004611df2565b611857565b3480156106ff57600080fd5b506102f06118ae565b34801561071457600080fd5b506102f06118bc565b34801561072957600080fd5b506107566040518060400160405280600a815260200160b060020a69312e362e342d626574610281525081565b6040516102fa9190611e4a565b6107726301da9c006002611e77565b81565b8160018110158015610788575060648111155b6107cf5760405160e560020a62461bcd0281526020600482015260126024820152607060020a716c6f7473206f7574206f6620626f756e64730260448201526064016102a1565b81620151808114806107e3575062093a8081145b806107fa57506107f762093a806002611e77565b81145b80610811575061080e62093a806003611e77565b81145b8061081e575062278d0081145b80610835575061083262278d006002611e77565b81145b8061084c575061084962278d006003611e77565b81145b80610863575061086062278d006004611e77565b81145b8061087a575061087762278d006005611e77565b81145b80610891575061088e62278d006006611e77565b81145b806108a857506108a562278d006007611e77565b81145b806108bf57506108bc62278d006008611e77565b81145b806108d657506108d362278d006009611e77565b81145b806108ed57506108ea62278d00600a611e77565b81145b80610904575061090162278d00600b611e77565b81145b8061091257506301da9c0081145b8061092a57506109276301da9c006002611e77565b81145b80610942575061093f6301da9c006003611e77565b81145b8061095a57506109576301da9c006004611e77565b81145b80610972575061096f6301da9c006005611e77565b81145b8061098a57506109876301da9c006006611e77565b81145b806109a2575061099f6301da9c006007611e77565b81145b806109ba57506109b76301da9c00600a611e77565b81145b610a065760405160e560020a62461bcd0281526020600482015260176024820152604860020a76696e636f7272656374206d6174757269747920646174650260448201526064016102a1565b33610a265760405160e560020a62461bcd0281526004016102a190611e8e565b6000610a3286856118cb565b9050612710610a418287611e77565b610a4b9190611e77565b333111610a975760405160e560020a62461bcd0281526020600482015260146024820152606060020a73696e73756666696369656e742062616c616e63650260448201526064016102a1565b6000610aa582612710611e77565b9050610ab18187611e77565b3414610af85760405160e560020a62461bcd0281526020600482015260106024820152608060020a6f6e6f7420656e6f7567682066756e64730260448201526064016102a1565b60405130903480156108fc02916000818181858888f19350505050158015610b24573d6000803e3d6000fd5b5060408051608081018252888152602080820189905281830188905234606083015233600090815260049091529190912081518190610b639082611f4f565b506020828101516001830155604080840151600284015560609093015160039092019190915533600081815260049092529082902091517fe262570f17a48f9507007a81c19a99357bb7fa1f6271e7df3550a098f579364f92610bcd92918b918b918b9190612014565b60405180910390a150505050505050565b6107726301da9c00600a611e77565b60075460ff1615610c3f5760405160e560020a62461bcd0281526020600482015260166024820152605060020a757769746864726177616c20696e2070726f67726573730260448201526064016102a1565b33610c5f5760405160e560020a62461bcd0281526004016102a190611e8e565b6007805460ff191660011790553360009081526004602052604090206002015442811115610e505733600090815260046020526040902060030154808310610de6573360009081526004602052604081206001015461271090610cc29086611e77565b610ccc9190611e77565b90503031811015610d6c57604051339082156108fc029083906000818181858888f19350505050158015610d04573d6000803e3d6000fd5b506000805160206122408339815191523382604051610d24929190611a04565b60405180910390a133600090815260046020526040812090610d4682826119ae565b50600060018201819055600282018190556003909101556007805460ff19169055610de0565b6007805460ff1916905560405160e560020a62461bcd02815260206004820152603360248201527f696e73756666696369656e7420636f6e74726163742062616c616e636520746f6044820152606a60020a72081c1c9bd8d95cdcc81dda5d1a191c985dd85b0260648201526084016102a1565b50505050565b6007805460ff1916905560405160008051602061224083398151915290610e11903390600090611a04565b60405180910390a133600090815260046020526040812090610e3382826119ae565b50600060018201819055600282018190556003909101555b505050565b6007805460ff1916905560405160e560020a62461bcd02815260206004820152602f60248201527f666f727761726420636f6e747261637420746f6b656e20686173206e6f7420726044820152608860020a6e656163686564206d617475726974790260648201526084016102a1565b61077262278d006002611e77565b61077262093a806003611e77565b600033610efe5760405160e560020a62461bcd0281526004016102a190611e8e565b33600090815260046020526040902060030154610f1b81846120f5565b9392505050565b6000610f2e83836118cb565b90505b92915050565b61077262278d006009611e77565b600054600160a060020a03163314610f725760405160e560020a62461bcd0281526004016102a190612108565b60008054604051600160a060020a0390911690600080516020612260833981519152908390a360008054600160a060020a0319169055565b6040518060c001604052808b8b8080601f016020809104026020016040519081016040528093929190818152602001838380828437600092019190915250505090825250604080516020601f8c018190048102820181019092528a815291810191908b908b9081908401838280828437600092019190915250505090825250604080516020601f8a0181900481028201810190925288815291810191908990899081908401838280828437600092019190915250505090825250602080820187905260408083018790528051601f860183900483028101830190915284815260609092019190859085908190840183828082843760009201919091525050509152506040516006906110bf908990899061213c565b908152604051908190036020019020815181906110dc9082611f4f565b50602082015160018201906110f19082611f4f565b50604082015160028201906111069082611f4f565b50606082015160038201556080820151600482015560a0820151600582019061112f9082611f4f565b50505050505050505050505050565b6000336111605760405160e560020a62461bcd0281526004016102a190611e8e565b5033600090815260046020526040902060020154421090565b600054600160a060020a031633146111a65760405160e560020a62461bcd0281526004016102a19061214c565b600080516020612220833981519152336111be6111e5565b6040516111cc929190612183565b60405180910390a1565b6107726301da9c006006611e77565b6000601e6001546111f6919061219d565b42116112175760405160e560020a62461bcd0281526004016102a1906121b0565b601e600154611226919061219d565b42116112475760405160e560020a62461bcd0281526004016102a1906121b0565b5042600155600054600160a060020a031690565b6107726301da9c006007611e77565b61077262093a806002611e77565b6107726301da9c006003611e77565b61077262278d00600b611e77565b61077262278d006006611e77565b80516020818301810180516006825292820191909301209152805481906112c990611ec3565b80601f01602080910402602001604051908101604052809291908181526020018280546112f590611ec3565b80156113425780601f1061131757610100808354040283529160200191611342565b820191906000526020600020905b81548152906001019060200180831161132557829003601f168201915b50505050509080600101805461135790611ec3565b80601f016020809104026020016040519081016040528092919081815260200182805461138390611ec3565b80156113d05780601f106113a5576101008083540402835291602001916113d0565b820191906000526020600020905b8154815290600101906020018083116113b357829003601f168201915b5050505050908060020180546113e590611ec3565b80601f016020809104026020016040519081016040528092919081815260200182805461141190611ec3565b801561145e5780601f106114335761010080835404028352916020019161145e565b820191906000526020600020905b81548152906001019060200180831161144157829003601f168201915b50505050509080600301549080600401549080600501805461147f90611ec3565b80601f01602080910402602001604051908101604052809291908181526020018280546114ab90611ec3565b80156114f85780601f106114cd576101008083540402835291602001916114f8565b820191906000526020600020905b8154815290600101906020018083116114db57829003601f168201915b5050505050905086565b61077262278d006008611e77565b61077262278d006004611e77565b3361153e5760405160e560020a62461bcd0281526004016102a190611e8e565b600034116115a05760405160e560020a62461bcd02815260206004820152602360248201527f6f6e6c7920706f73697469766520616d6f756e747320666f722061206465706f604482015260ea60020a621cda5d0260648201526084016102a1565b60405130903480156108fc02916000818181858888f193505050501580156115cc573d6000803e3d6000fd5b507fe1fffcc4923d04b559f4d29a8bfc6cda04eb5b0d3c460751c2402c5c5cc9109c33346040516111cc929190611a04565b61077262278d00600a611e77565b6040518060c00160405280878152602001868152602001858152602001848152602001838152602001828152506005898960405161164b92919061213c565b9081526040805160209281900383019020835181559183015160018301558201516002820155606082015160038201556080820151600482015560a0909101516005909101555050505050505050565b6107726301da9c006005611e77565b61077262278d006005611e77565b6004602052600090815260409020805481906116d390611ec3565b80601f01602080910402602001604051908101604052809291908181526020018280546116ff90611ec3565b801561174c5780601f106117215761010080835404028352916020019161174c565b820191906000526020600020905b81548152906001019060200180831161172f57829003601f168201915b5050505050908060010154908060020154908060030154905084565b61077262278d006003611e77565b600054600160a060020a031633146117a35760405160e560020a62461bcd0281526004016102a190612108565b600160a060020a03811661180e5760405160e560020a62461bcd02815260206004820152602660248201527f4f776e61626c653a206e6577206f776e657220697320746865207a65726f2061604482015260d060020a656464726573730260648201526084016102a1565b60008054604051600160a060020a038085169392169160008051602061226083398151915291a360008054600160a060020a031916600160a060020a0392909216919091179055565b600054600160a060020a031633146118845760405160e560020a62461bcd0281526004016102a19061214c565b60008051602061222083398151915233826040516118a3929190612183565b60405180910390a150565b61077262278d006007611e77565b6107726301da9c006004611e77565b6000806005846040516118de91906121dd565b9081526020016040518091039020600101549050600060068560405161190491906121dd565b9081526020016040518091039020600301549050600060068660405161192a91906121dd565b908152602001604051809103902060030154600161194891906121f9565b90506119586301da9c00866121f9565b6119629082611e77565b61196d90600161219d565b61197b6301da9c00876121f9565b6119859084611e77565b61199090600161219d565b61199a91906121f9565b6119a49084611e77565b9695505050505050565b5080546119ba90611ec3565b6000825580601f106119ca575050565b601f0160209004906000526020600020908101906119e891906119eb565b50565b5b80821115611a0057600081556001016119ec565b5090565b600160a060020a03929092168252602082015260400190565b60e060020a634e487b710260009081526041600452602490fd5b600082601f830112611a4857600080fd5b81356001604060020a0380821115611a6257611a62611a1d565b604051601f8301601f19908116603f01168101908282118183101715611a8a57611a8a611a1d565b81604052838152866020858801011115611aa357600080fd5b836020870160208301376000602085830101528094505050505092915050565b600080600060608486031215611ad857600080fd5b83356001604060020a03811115611aee57600080fd5b611afa86828701611a37565b9660208601359650604090950135949350505050565b600060208284031215611b2257600080fd5b5035919050565b60008060408385031215611b3c57600080fd5b82356001604060020a03811115611b5257600080fd5b611b5e85828601611a37565b95602094909401359450505050565b60008083601f840112611b7f57600080fd5b5081356001604060020a03811115611b9657600080fd5b602083019150836020828501011115611bae57600080fd5b9250929050565b60008060008060008060008060008060c08b8d031215611bd457600080fd5b8a356001604060020a0380821115611beb57600080fd5b611bf78e838f01611b6d565b909c509a5060208d0135915080821115611c1057600080fd5b611c1c8e838f01611b6d565b909a50985060408d0135915080821115611c3557600080fd5b611c418e838f01611b6d565b909850965060608d0135955060808d0135945060a08d0135915080821115611c6857600080fd5b50611c758d828e01611b6d565b915080935050809150509295989b9194979a5092959850565b600060208284031215611ca057600080fd5b81356001604060020a03811115611cb657600080fd5b611cc284828501611a37565b949350505050565b60005b83811015611ce5578181015183820152602001611ccd565b50506000910152565b60008151808452611d06816020860160208601611cca565b601f01601f19169290920160200192915050565b60c081526000611d2d60c0830189611cee565b8281036020840152611d3f8189611cee565b90508281036040840152611d538188611cee565b905085606084015284608084015282810360a0840152611d738185611cee565b9998505050505050505050565b60008060008060008060008060e0898b031215611d9c57600080fd5b88356001604060020a03811115611db257600080fd5b611dbe8b828c01611b6d565b909c909b5060208b01359a60408101359a50606081013599506080810135985060a0810135975060c0013595509350505050565b600060208284031215611e0457600080fd5b8135600160a060020a0381168114610f1b57600080fd5b608081526000611e2e6080830187611cee565b6020830195909552506040810192909252606090910152919050565b602081526000610f2e6020830184611cee565b60e060020a634e487b710260009081526011600452602490fd5b8082028115828204841417610f3157610f31611e5d565b6020808252601890820152604260020a771dd85b1b195d081859191c995cdcc81b9bdd081d985b1a5902604082015260600190565b600281046001821680611ed757607f821691505b602082108103611efb5760e060020a634e487b710260009081526022600452602490fd5b50919050565b601f821115610e4b576000818152602081206020601f86010481016020861015611f285750805b6020601f860104820191505b81811015611f4757828155600101611f34565b505050505050565b81516001604060020a03811115611f6857611f68611a1d565b611f7c81611f768454611ec3565b84611f01565b602080601f831160018114611fb55760008415611f995750858301515b60028086026008870290910a6000190419821617865550611f47565b600085815260208120601f198616915b82811015611fe457888601518255948401946001909101908401611fc5565b508582101561200457878501516008601f88160260020a60001904191681555b5050505050600202600101905550565b600160a060020a038616815260a060208083018290526000919061203a84830189611cee565b8760408601528660608601528481036080860152608081526000865461205f81611ec3565b80608085015260018083166000811461207f5760018114612098576120c6565b60ff1984168689015282151587028601880194506120c6565b8a6000528660002060005b848110156120be5781548882018b01529083019088016120a3565b870189019550505b508901549484019490945250600287015460408301526003909601546060909101525092979650505050505050565b81810381811115610f3157610f31611e5d565b6020808252601790820152604960020a7630b1b1b2b9b9903232b734b2b2103337b91037bbb732b902604082015260600190565b8183823760009101908152919050565b6020808252601b908201527f756e617574686f72697a65642c206e6f7420746865206f776e65720000000000604082015260600190565b600160a060020a0392831681529116602082015260400190565b80820180821115610f3157610f31611e5d565b6020808252601090820152608160020a6f3930ba32903634b6b4ba1032b93937b902604082015260600190565b600082516121ef818460208701611cca565b9190910192915050565b60008261221a5760e060020a634e487b710260009081526012600452602490fd5b50049056fe91ca00fdf29069527d658f8dfc6d1c0bf9861780bb45ff36436f938d3595a8d67fcf532c15f0a6db0bd6d0e038bea71d30d808c7d98cb3bf7268a95bf5081b658be0079c531659141344cd1fd0a4f28419497f9722a3daafe3b4186f6b6457e0a26469706673582212202d9b5d2cd1508aa431b3877ab3144128b9b47b95b0a4031a733494c7155e55eb64736f6c63430008120033",
  "immutableReferences": {},
  "source": "// SPDX-License-Identifier: CC-BY-4.0\r\npragma solidity >=0.4.22 <0.9.0;\r\n\r\n/**\r\n * A currency forward is a binding contract in the foreign exchange market that locks in the exchange rate for the purchase or sale of a currency on a future date.\r\n * A currency forward is essentially a customizable hedging tool that does not involve an upfront margin payment. The other major benefit of a currency forward is\r\n * that its terms are not standardized and can be tailored to a particular amount and for any maturity or delivery period, unlike exchange-traded currency futures.\r\n *\r\n * https://github.com/alanwhite1203/fxForward\r\n */\r\n\r\n// Forward Currency Rates at https://www.fxempire.com/currencies/eur-usd/forward-rates\r\n\r\n/**\r\n * Calculation of the FX Forward Rate involves querying the related central bank interest rate and the spot rate for the ccy pair\r\n *\r\n * Central Bank Interest Rates at https://www.global-rates.com/en/interest-rates/central-banks/central-banks.aspx\r\n *\r\n */\r\nimport \"../../common/Version.sol\";\r\nimport \"../../common/Frozen.sol\";\r\n\r\n\r\ncontract Forward is Version, Frozen {\r\n\r\n    uint256 public constant DAY             = 60*60*24;\r\n    uint256 public constant WEEK            = 60*60*24*7;\r\n    uint256 public constant MONTH           = 60*60*24*30;\r\n    uint256 public constant YEAR            = 60*60*24*30*12;\r\n\r\n    uint256 public constant NEXT_DAY        = DAY;\r\n    uint256 public constant ONE_WEEK        = WEEK;\r\n    uint256 public constant TWO_WEEKS       = 2 * WEEK;\r\n    uint256 public constant THREE_WEEKS     = 3 * WEEK;\r\n    uint256 public constant ONE_MONTH       = MONTH;\r\n    uint256 public constant TWO_MONTHS      = 2 * MONTH;\r\n    uint256 public constant THREE_MONTHS    = 3 * MONTH;\r\n    uint256 public constant FOUR_MONTHS     = 4 * MONTH;\r\n    uint256 public constant FIVE_MONTHS     = 5 * MONTH;\r\n    uint256 public constant SIX_MONTHS      = 6 * MONTH;\r\n    uint256 public constant SEVEN_MONTHS    = 7 * MONTH;\r\n    uint256 public constant EIGHT_MONTHS    = 8 * MONTH;\r\n    uint256 public constant NINE_MONTHS     = 9 * MONTH;\r\n    uint256 public constant TEN_MONTHS      = 10 * MONTH;\r\n    uint256 public constant ELEVEN_MONTHS   = 11 * MONTH;\r\n    uint256 public constant ONE_YEAR        = YEAR;\r\n    uint256 public constant TWO_YEARS       = 2 * YEAR;\r\n    uint256 public constant THREE_YEARS     = 3 * YEAR;\r\n    uint256 public constant FOUR_YEARS      = 4 * YEAR;\r\n    uint256 public constant FIVE_YEARS      = 5 * YEAR;\r\n    uint256 public constant SIX_YEARS       = 6 * YEAR;\r\n    uint256 public constant SEVEN_YEARS     = 7 * YEAR;\r\n    uint256 public constant TEN_YEARS       = 10 * YEAR;\r\n\r\n    struct ForwardToken {\r\n        string   ccypair;\r\n        uint256  lots;\r\n        uint256  maturity;\r\n        uint256  rate;\r\n    }\r\n\r\n    struct ForwardRates {\r\n        uint256  Points;     // -0.33,\r\n        uint256  SpotRate;   // 1.357105,\r\n        uint256  Ask;        // 1.357118,\r\n        uint256  Mid;        // 1.357072,\r\n        uint256  Bid;        // 1.357026,\r\n        uint256  Expiration; // \"Overnight\"\r\n    }\r\n\r\n    struct InterestRate {\r\n         string     name;\r\n         string\t    country;\r\n         string     symbol;\r\n         uint256    current_rate;\r\n         uint256    previous_rate;\r\n         string\t    change;\r\n    }\r\n\r\n\r\n    mapping (address => ForwardToken) public tokens;\r\n    mapping (string => ForwardRates) public fwdrates;\r\n    mapping (string => InterestRate) public interestRates;\r\n\r\n    bool private inWithdrawal = false;\r\n\r\n    event ForwardTokenMinted(address investor, string ccypair, uint256 lots, uint256 maturity, ForwardToken token);\r\n    event Withdrawal(address investor, uint256 amount);\r\n    event Deposit(address wallet, uint256 amount);\r\n\r\n    constructor()\r\n    {\r\n        /*\r\n        ForwardRates memory forwardRates = ForwardRates(-0.33, 1.357105, 1.357118, 1.357072, 1.357026, \"Overnight\");\r\n        fwdrates.append(forwardRates);\r\n\r\n        InterestRate memory interestRate = InterestRate(\"American\", \"United States\", \"USD\", 0.250, 1.250, \"03-15-2020\");\r\n        interestRates.append(interestRate);\r\n        interestRate = InterestRate(\"Australian\", \"Australia\", \"AUD\", 0.100, 0.250, \"11-03-2020\");\r\n        interestRates.append(interestRate);\r\n        interestRate = InterestRate(\"Banco Central\", \"Chile\", \"\", 5.500, 4.000, \"01-26-2022\");\r\n        interestRates.append(interestRate);\r\n        interestRate = InterestRate(\"Bank of Korea\", \"South Korea\", \"\", 1.250, 1.000, \"01-14-2022\");\r\n        interestRates.append(interestRate);\r\n        interestRate = InterestRate(\"Brazilian\", \"Brazil\", \"\", 10.750, 9.250, \"02-02-2022\");\r\n        interestRates.append(interestRate);\r\n        interestRate = InterestRate(\"British\", \"Great Britain\", \"GBP\", 0.500, 0.250, \"02-03-2022\");\r\n        interestRates.append(interestRate);\r\n        interestRate = InterestRate(\"Canadian\", \"Canada\", \"CAD\", 0.250, 0.750, \"03-27-2020\");\r\n        interestRates.append(interestRate);\r\n        interestRate = InterestRate(\"Chinese\", \"China\", \"\", 3.700, 3.800, \"01-20-2022\");\r\n        interestRates.append(interestRate);\r\n        interestRate = InterestRate(\"Czech\", \"Czech Republic\", \"\", 4.500, 3.750, \"02-03-2022\");\r\n        interestRates.append(interestRate);\r\n        interestRate = InterestRate(\"Danish\", \"Denmark\", \"\", -0.450, -0.350, \"10-01-2021\");\r\n        interestRates.append(interestRate);\r\n        interestRate = InterestRate(\"European\", \"Europe\", \"EUR\", 0.000, 0.050, \"03-10-2016\");\r\n        interestRates.append(interestRate);\r\n        interestRate = InterestRate(\"Hungarian\", \"Hungary\", \"\", 2.900, 2.400, \"01-25-2022\");\r\n        interestRates.append(interestRate);\r\n        interestRate = InterestRate(\"Indian\", \"India\", \"\", 4.000, 4.400, \"05-22-2020\");\r\n        interestRates.append(interestRate);\r\n        interestRate = InterestRate(\"Indonesian\", \"Indonesia\", \"\", 6.500, 6.750, \"06-16-2016\");\r\n        interestRates.append(interestRate);\r\n        interestRate = InterestRate(\"Israeli\", \"Israel\", \"\", 0.100, 0.250, \"04-06-2020\");\r\n        interestRates.append(interestRate);\r\n        interestRate = InterestRate(\"Japanese\", \"Japan\", \"JPY\", -0.100, 0.000, \"02-01-2016\");\r\n        interestRates.append(interestRate);\r\n        interestRate = InterestRate(\"Mexican\", \"Mexico\", \"\", 5.500, 5.000, \"12-16-2021\");\r\n        interestRates.append(interestRate);\r\n        interestRate = InterestRate(\"New Zealand\", \"New Zealand\", \"NZD\", 0.750, 0.500, \"11-24-2021\");\r\n        interestRates.append(interestRate);\r\n        interestRate = InterestRate(\"Norwegian\", \"Norway\", \"\", 0.500, 0.250, \"12-16-2021\");\r\n        interestRates.append(interestRate);\r\n        interestRate = InterestRate(\"Polish\", \"Poland\", \"\", 2.250, 1.750, \"01-04-2022\");\r\n        interestRates.append(interestRate);\r\n        interestRate = InterestRate(\"Russian\", \"Russia\", \"\", 8.500, 7.500, \"12-20-2021\");\r\n        interestRates.append(interestRate);\r\n        interestRate = InterestRate(\"Saudi Ariabian\", \"Saudi Arabia\", \"\", 1.000, 1.750, \"03-16-2020\");\r\n        interestRates.append(interestRate);\r\n        interestRate = InterestRate(\"South African\", \"South Africa\", \"\", 4.000, 3.750, \"01-27-2022\");\r\n        interestRates.append(interestRate);\r\n        interestRate = InterestRate(\"Swedish\", \"Sweden\", \"\", 0.000, -0.250, \"12-19-2019\");\r\n        interestRates.append(interestRate);\r\n        interestRate = InterestRate(\"Swiss\", \"Switzerland\", \"\", -0.750, -0.500, \"01-15-2015\");\r\n        interestRates.append(interestRate);\r\n        interestRate = InterestRate(\"Turkish\", \"Turkey\", \"\", 14.000, 15.000, \"12-16-2021\");\r\n        interestRates.append(interestRate);\r\n        */\r\n    }\r\n\r\n\r\n    modifier isCorrectMaturity(uint256 epoch) {\r\n        require(epoch == NEXT_DAY ||\r\n                epoch == ONE_WEEK ||\r\n                epoch == TWO_WEEKS ||\r\n                epoch == THREE_WEEKS ||\r\n                epoch == ONE_MONTH ||\r\n                epoch == TWO_MONTHS ||\r\n                epoch == THREE_MONTHS ||\r\n                epoch == FOUR_MONTHS ||\r\n                epoch == FIVE_MONTHS ||\r\n                epoch == SIX_MONTHS ||\r\n                epoch == SEVEN_MONTHS ||\r\n                epoch == EIGHT_MONTHS ||\r\n                epoch == NINE_MONTHS ||\r\n                epoch == TEN_MONTHS ||\r\n                epoch == ELEVEN_MONTHS ||\r\n                epoch == ONE_YEAR ||\r\n                epoch == TWO_YEARS ||\r\n                epoch == THREE_YEARS ||\r\n                epoch == FOUR_YEARS ||\r\n                epoch == FIVE_YEARS ||\r\n                epoch == SIX_YEARS ||\r\n                epoch == SEVEN_YEARS ||\r\n                epoch == TEN_YEARS,\r\n                \"incorrect maturity date\");\r\n        _;\r\n    }\r\n\r\n    modifier correctLotSize(uint256 lots) {\r\n        require(lots >= 1 && lots <= 100,\"lots out of bounds\");\r\n        _;\r\n    }\r\n\r\n    modifier notWithdrawing() {\r\n        require(inWithdrawal == false,\"withdrawal in progress\");\r\n        _;\r\n    }\r\n\r\n    function updateForwardRate(string calldata ccyPair,\r\n                               uint256 Points,\r\n                               uint256  SpotRate,\r\n                               uint256  Ask,\r\n                               uint256  Mid,\r\n                               uint256  Bid,\r\n                               uint256  Expiration)\r\n        public\r\n        payable\r\n    {\r\n        fwdrates[ccyPair] = ForwardRates(Points, SpotRate, Ask, Mid, Bid, Expiration);\r\n    }\r\n\r\n    function updateInterestRate(string calldata name,\r\n                                string calldata country,\r\n                                string calldata symbol,\r\n                                uint256 current_rate,\r\n                                uint256 previous_rate,\r\n                                string calldata change)\r\n        public\r\n        payable\r\n    {\r\n        interestRates[symbol] = InterestRate(name, country, symbol, current_rate, previous_rate, change);\r\n    }\r\n\r\n    function quote(string memory ccypair, uint256 maturity)\r\n        public\r\n        view\r\n        returns (uint256)\r\n    {\r\n        // https://api.kraken.com/0/public/Ticker?pair=GBPUSD\r\n        // {\"error\":[],\"result\":{\"ZGBPZUSD\":{\"a\":[\"1.35553\",\"1033\",\"1033.000\"],\"b\":[\"1.35526\",\"132\",\"132.000\"],\"c\":[\"1.35555\",\"2.74000000\"],\"v\":[\"646400.53966339\",\"1521216.22766749\"],\"p\":[\"1.35725\",\"1.35846\"],\"t\":[1226,3036],\"l\":[\"1.35448\",\"1.35448\"],\"h\":[\"1.36080\",\"1.36109\"],\"o\":\"1.35966\"}}}\r\n        return _quote(ccypair,maturity);\r\n    }\r\n\r\n\r\n    function _quote(string memory ccypair, uint256 maturity)\r\n        internal\r\n        view\r\n        returns (uint256)\r\n    {\r\n        uint256 tquote = fwdrates[ccypair].SpotRate;\r\n        uint256 base_interest = interestRates[ccypair].current_rate;\r\n        uint256 quote_interest = 1 / interestRates[ccypair].current_rate;\r\n        return tquote * ( ( (1 + base_interest * (maturity / ONE_YEAR)) / (1 + quote_interest * (maturity/ONE_YEAR)) ));\r\n    }\r\n\r\n    function mint(string memory ccypair, uint256 lots, uint256 maturity)\r\n        public\r\n        payable\r\n        correctLotSize(lots)\r\n        isCorrectMaturity(maturity)\r\n    {\r\n        require(msg.sender != address(0),\"wallet address not valid\");\r\n         // current forware rate for ccypair obtain from a similar source as https://www.fxempire.com/currencies/eur-usd/forward-rates\r\n        uint256 rate = _quote(ccypair,maturity);\r\n        require(msg.sender.balance > (lots * rate * uint256(10000)),\"insufficient balance\");\r\n        uint256 _rate = uint256(rate * 10000);\r\n        require(msg.value == (lots * _rate), \"not enough funds\");\r\n        payable(address(this)).transfer(msg.value); // transfer payment to contract\r\n\r\n        tokens[msg.sender] = ForwardToken(ccypair, lots, maturity, msg.value);\r\n        emit ForwardTokenMinted(msg.sender,ccypair,lots,maturity,tokens[msg.sender]);\r\n    }\r\n\r\n    // current forward rate for tokens[msg.sender].ccypair from a similar source as https://www.fxempire.com/currencies/eur-usd/forward-rates\r\n    function profitLoss(uint256 forward_rate)\r\n        public\r\n        view\r\n        returns (uint256)\r\n    {\r\n        require(msg.sender != address(0),\"wallet address not valid\");\r\n        //require(tokens[msg.sender] != bytes(0x0),\"no forward contract token exists?\");\r\n\r\n        uint256 investor_rate = tokens[msg.sender].rate;\r\n        return (forward_rate - investor_rate);\r\n    }\r\n\r\n    function isMatured()\r\n        public\r\n        view\r\n        returns (bool)\r\n    {\r\n        require(msg.sender != address(0),\"wallet address not valid\");\r\n        //require(tokens[msg.sender] != bytes(0),\"no forward contract token exists?\");\r\n\r\n        uint256 maturity_date = tokens[msg.sender].maturity;\r\n        return (maturity_date > block.timestamp);\r\n    }\r\n\r\n    // current forward rate for tokens[msg.sender].ccypair from a similar source as https://www.fxempire.com/currencies/eur-usd/forward-rates\r\n    function withdraw(uint256 forward_rate)\r\n        public\r\n        payable\r\n        notWithdrawing\r\n    {\r\n        require(msg.sender != address(0),\"wallet address not valid\");\r\n        //require(tokens[msg.sender],\"no forward contract token exists?\");\r\n\r\n        inWithdrawal = true; // prevents re-entrancy\r\n\r\n        uint256 maturity_date = tokens[msg.sender].maturity;\r\n        if (maturity_date > block.timestamp) {\r\n            uint256 investor_rate = tokens[msg.sender].rate;\r\n            \r\n            if (forward_rate >= investor_rate) {\r\n                uint256 amount = forward_rate * tokens[msg.sender].lots * uint256(10000);\r\n                if (address(this).balance > amount) {\r\n                    payable(msg.sender).transfer(amount);\r\n                    emit Withdrawal(msg.sender,amount);\r\n                    delete tokens[msg.sender];\r\n                    inWithdrawal = false;\r\n                } else {\r\n                    inWithdrawal = false;\r\n                    revert(\"insufficient contract balance to process withdrawal\");\r\n                }\r\n            } else {\r\n                inWithdrawal = false;\r\n                emit Withdrawal(msg.sender,uint256(0));\r\n                delete tokens[msg.sender];\r\n            }\r\n        } else {\r\n            inWithdrawal = false;\r\n            revert(\"forward contract token has not reached maturity\");\r\n        }\r\n    }\r\n\r\n    function deposit()\r\n        public\r\n        payable\r\n    {\r\n        require(msg.sender != address(0),\"wallet address not valid\");\r\n        require(msg.value > 0,\"only positive amounts for a deposit\");\r\n        payable(address(this)).transfer(msg.value);\r\n        emit Deposit(msg.sender,msg.value);\r\n    }\r\n\r\n    function balance()\r\n        public\r\n        view\r\n        returns (uint256)\r\n    {\r\n        return address(this).balance;\r\n    }\r\n}",
  "sourcePath": "/Volumes/My Book/projects/pingleware-contracts/contracts/finance/currency/Forward.sol",
  "compiler": {
    "name": "solc",
    "version": "0.8.18+commit.87f61d96.Emscripten.clang"
  },
  "schemaVersion": "3.4.12",
  "updatedAt": "2023-10-22T00:34:41.595Z",
  "devdoc": {
    "kind": "dev",
    "methods": {
      "renounceOwnership()": {
        "details": "Leaves the contract without owner. It will not be possible to call `onlyOwner` functions anymore. Can only be called by the current owner. NOTE: Renouncing ownership will leave the contract without an owner, thereby removing any functionality that is only available to the owner."
      },
      "transferOwnership(address)": {
        "details": "Transfers ownership of the contract to a new account (`newOwner`). Can only be called by the current owner."
      }
    },
    "version": 1
  },
  "userdoc": {
    "kind": "user",
    "methods": {},
    "version": 1
  }
}