{
  "contractName": "Forward",
  "abi": [
    {
      "inputs": [],
      "stateMutability": "nonpayable",
      "type": "constructor"
    },
    {
      "anonymous": false,
      "inputs": [
        {
          "indexed": false,
          "internalType": "address",
          "name": "wallet",
          "type": "address"
        },
        {
          "indexed": false,
          "internalType": "uint256",
          "name": "amount",
          "type": "uint256"
        }
      ],
      "name": "Deposit",
      "type": "event"
    },
    {
      "anonymous": false,
      "inputs": [
        {
          "indexed": false,
          "internalType": "address",
          "name": "sender",
          "type": "address"
        },
        {
          "indexed": false,
          "internalType": "address",
          "name": "recipient",
          "type": "address"
        }
      ],
      "name": "Destroyed",
      "type": "event"
    },
    {
      "anonymous": false,
      "inputs": [
        {
          "indexed": false,
          "internalType": "address",
          "name": "sender",
          "type": "address"
        },
        {
          "indexed": false,
          "internalType": "uint256",
          "name": "amount",
          "type": "uint256"
        }
      ],
      "name": "FallbackEvent",
      "type": "event"
    },
    {
      "anonymous": false,
      "inputs": [
        {
          "indexed": false,
          "internalType": "address",
          "name": "investor",
          "type": "address"
        },
        {
          "indexed": false,
          "internalType": "string",
          "name": "ccypair",
          "type": "string"
        },
        {
          "indexed": false,
          "internalType": "uint256",
          "name": "lots",
          "type": "uint256"
        },
        {
          "indexed": false,
          "internalType": "uint256",
          "name": "maturity",
          "type": "uint256"
        },
        {
          "components": [
            {
              "internalType": "string",
              "name": "ccypair",
              "type": "string"
            },
            {
              "internalType": "uint256",
              "name": "lots",
              "type": "uint256"
            },
            {
              "internalType": "uint256",
              "name": "maturity",
              "type": "uint256"
            },
            {
              "internalType": "uint256",
              "name": "rate",
              "type": "uint256"
            }
          ],
          "indexed": false,
          "internalType": "struct Forward.ForwardToken",
          "name": "token",
          "type": "tuple"
        }
      ],
      "name": "ForwardTokenMinted",
      "type": "event"
    },
    {
      "anonymous": false,
      "inputs": [
        {
          "indexed": true,
          "internalType": "address",
          "name": "previousOwner",
          "type": "address"
        },
        {
          "indexed": true,
          "internalType": "address",
          "name": "newOwner",
          "type": "address"
        }
      ],
      "name": "OwnershipTransferred",
      "type": "event"
    },
    {
      "anonymous": false,
      "inputs": [
        {
          "indexed": false,
          "internalType": "address",
          "name": "sender",
          "type": "address"
        },
        {
          "indexed": false,
          "internalType": "uint256",
          "name": "amount",
          "type": "uint256"
        }
      ],
      "name": "ReceiveEvent",
      "type": "event"
    },
    {
      "anonymous": false,
      "inputs": [
        {
          "indexed": false,
          "internalType": "address",
          "name": "sender",
          "type": "address"
        },
        {
          "indexed": false,
          "internalType": "bytes",
          "name": "reason",
          "type": "bytes"
        }
      ],
      "name": "Started",
      "type": "event"
    },
    {
      "anonymous": false,
      "inputs": [
        {
          "indexed": false,
          "internalType": "address",
          "name": "sender",
          "type": "address"
        },
        {
          "indexed": false,
          "internalType": "bytes",
          "name": "reason",
          "type": "bytes"
        }
      ],
      "name": "Stopped",
      "type": "event"
    },
    {
      "anonymous": false,
      "inputs": [
        {
          "indexed": false,
          "internalType": "address",
          "name": "sender",
          "type": "address"
        },
        {
          "indexed": false,
          "internalType": "string",
          "name": "reason",
          "type": "string"
        }
      ],
      "name": "Termination",
      "type": "event"
    },
    {
      "anonymous": false,
      "inputs": [
        {
          "indexed": false,
          "internalType": "address",
          "name": "investor",
          "type": "address"
        },
        {
          "indexed": false,
          "internalType": "uint256",
          "name": "amount",
          "type": "uint256"
        }
      ],
      "name": "Withdrawal",
      "type": "event"
    },
    {
      "stateMutability": "payable",
      "type": "fallback"
    },
    {
      "inputs": [],
      "name": "DAY",
      "outputs": [
        {
          "internalType": "uint256",
          "name": "",
          "type": "uint256"
        }
      ],
      "stateMutability": "view",
      "type": "function"
    },
    {
      "inputs": [],
      "name": "EIGHT_MONTHS",
      "outputs": [
        {
          "internalType": "uint256",
          "name": "",
          "type": "uint256"
        }
      ],
      "stateMutability": "view",
      "type": "function"
    },
    {
      "inputs": [],
      "name": "ELEVEN_MONTHS",
      "outputs": [
        {
          "internalType": "uint256",
          "name": "",
          "type": "uint256"
        }
      ],
      "stateMutability": "view",
      "type": "function"
    },
    {
      "inputs": [],
      "name": "FIVE_MONTHS",
      "outputs": [
        {
          "internalType": "uint256",
          "name": "",
          "type": "uint256"
        }
      ],
      "stateMutability": "view",
      "type": "function"
    },
    {
      "inputs": [],
      "name": "FIVE_YEARS",
      "outputs": [
        {
          "internalType": "uint256",
          "name": "",
          "type": "uint256"
        }
      ],
      "stateMutability": "view",
      "type": "function"
    },
    {
      "inputs": [],
      "name": "FOUR_MONTHS",
      "outputs": [
        {
          "internalType": "uint256",
          "name": "",
          "type": "uint256"
        }
      ],
      "stateMutability": "view",
      "type": "function"
    },
    {
      "inputs": [],
      "name": "FOUR_YEARS",
      "outputs": [
        {
          "internalType": "uint256",
          "name": "",
          "type": "uint256"
        }
      ],
      "stateMutability": "view",
      "type": "function"
    },
    {
      "inputs": [],
      "name": "MONTH",
      "outputs": [
        {
          "internalType": "uint256",
          "name": "",
          "type": "uint256"
        }
      ],
      "stateMutability": "view",
      "type": "function"
    },
    {
      "inputs": [],
      "name": "NEXT_DAY",
      "outputs": [
        {
          "internalType": "uint256",
          "name": "",
          "type": "uint256"
        }
      ],
      "stateMutability": "view",
      "type": "function"
    },
    {
      "inputs": [],
      "name": "NINE_MONTHS",
      "outputs": [
        {
          "internalType": "uint256",
          "name": "",
          "type": "uint256"
        }
      ],
      "stateMutability": "view",
      "type": "function"
    },
    {
      "inputs": [],
      "name": "ONE_MONTH",
      "outputs": [
        {
          "internalType": "uint256",
          "name": "",
          "type": "uint256"
        }
      ],
      "stateMutability": "view",
      "type": "function"
    },
    {
      "inputs": [],
      "name": "ONE_WEEK",
      "outputs": [
        {
          "internalType": "uint256",
          "name": "",
          "type": "uint256"
        }
      ],
      "stateMutability": "view",
      "type": "function"
    },
    {
      "inputs": [],
      "name": "ONE_YEAR",
      "outputs": [
        {
          "internalType": "uint256",
          "name": "",
          "type": "uint256"
        }
      ],
      "stateMutability": "view",
      "type": "function"
    },
    {
      "inputs": [],
      "name": "SEVEN_MONTHS",
      "outputs": [
        {
          "internalType": "uint256",
          "name": "",
          "type": "uint256"
        }
      ],
      "stateMutability": "view",
      "type": "function"
    },
    {
      "inputs": [],
      "name": "SEVEN_YEARS",
      "outputs": [
        {
          "internalType": "uint256",
          "name": "",
          "type": "uint256"
        }
      ],
      "stateMutability": "view",
      "type": "function"
    },
    {
      "inputs": [],
      "name": "SIX_MONTHS",
      "outputs": [
        {
          "internalType": "uint256",
          "name": "",
          "type": "uint256"
        }
      ],
      "stateMutability": "view",
      "type": "function"
    },
    {
      "inputs": [],
      "name": "SIX_YEARS",
      "outputs": [
        {
          "internalType": "uint256",
          "name": "",
          "type": "uint256"
        }
      ],
      "stateMutability": "view",
      "type": "function"
    },
    {
      "inputs": [],
      "name": "TEN_MONTHS",
      "outputs": [
        {
          "internalType": "uint256",
          "name": "",
          "type": "uint256"
        }
      ],
      "stateMutability": "view",
      "type": "function"
    },
    {
      "inputs": [],
      "name": "TEN_YEARS",
      "outputs": [
        {
          "internalType": "uint256",
          "name": "",
          "type": "uint256"
        }
      ],
      "stateMutability": "view",
      "type": "function"
    },
    {
      "inputs": [],
      "name": "THREE_MONTHS",
      "outputs": [
        {
          "internalType": "uint256",
          "name": "",
          "type": "uint256"
        }
      ],
      "stateMutability": "view",
      "type": "function"
    },
    {
      "inputs": [],
      "name": "THREE_WEEKS",
      "outputs": [
        {
          "internalType": "uint256",
          "name": "",
          "type": "uint256"
        }
      ],
      "stateMutability": "view",
      "type": "function"
    },
    {
      "inputs": [],
      "name": "THREE_YEARS",
      "outputs": [
        {
          "internalType": "uint256",
          "name": "",
          "type": "uint256"
        }
      ],
      "stateMutability": "view",
      "type": "function"
    },
    {
      "inputs": [],
      "name": "TWO_MONTHS",
      "outputs": [
        {
          "internalType": "uint256",
          "name": "",
          "type": "uint256"
        }
      ],
      "stateMutability": "view",
      "type": "function"
    },
    {
      "inputs": [],
      "name": "TWO_WEEKS",
      "outputs": [
        {
          "internalType": "uint256",
          "name": "",
          "type": "uint256"
        }
      ],
      "stateMutability": "view",
      "type": "function"
    },
    {
      "inputs": [],
      "name": "TWO_YEARS",
      "outputs": [
        {
          "internalType": "uint256",
          "name": "",
          "type": "uint256"
        }
      ],
      "stateMutability": "view",
      "type": "function"
    },
    {
      "inputs": [],
      "name": "VERSION",
      "outputs": [
        {
          "internalType": "string",
          "name": "",
          "type": "string"
        }
      ],
      "stateMutability": "view",
      "type": "function"
    },
    {
      "inputs": [],
      "name": "WAIT",
      "outputs": [
        {
          "internalType": "uint256",
          "name": "",
          "type": "uint256"
        }
      ],
      "stateMutability": "view",
      "type": "function"
    },
    {
      "inputs": [],
      "name": "WEEK",
      "outputs": [
        {
          "internalType": "uint256",
          "name": "",
          "type": "uint256"
        }
      ],
      "stateMutability": "view",
      "type": "function"
    },
    {
      "inputs": [],
      "name": "YEAR",
      "outputs": [
        {
          "internalType": "uint256",
          "name": "",
          "type": "uint256"
        }
      ],
      "stateMutability": "view",
      "type": "function"
    },
    {
      "inputs": [],
      "name": "destroy",
      "outputs": [],
      "stateMutability": "nonpayable",
      "type": "function"
    },
    {
      "inputs": [
        {
          "internalType": "address",
          "name": "_recipient",
          "type": "address"
        }
      ],
      "name": "destroyAndSend",
      "outputs": [],
      "stateMutability": "nonpayable",
      "type": "function"
    },
    {
      "inputs": [
        {
          "internalType": "string",
          "name": "",
          "type": "string"
        }
      ],
      "name": "fwdrates",
      "outputs": [
        {
          "internalType": "uint256",
          "name": "Points",
          "type": "uint256"
        },
        {
          "internalType": "uint256",
          "name": "SpotRate",
          "type": "uint256"
        },
        {
          "internalType": "uint256",
          "name": "Ask",
          "type": "uint256"
        },
        {
          "internalType": "uint256",
          "name": "Mid",
          "type": "uint256"
        },
        {
          "internalType": "uint256",
          "name": "Bid",
          "type": "uint256"
        },
        {
          "internalType": "uint256",
          "name": "Expiration",
          "type": "uint256"
        }
      ],
      "stateMutability": "view",
      "type": "function"
    },
    {
      "inputs": [],
      "name": "getOwner",
      "outputs": [
        {
          "internalType": "address",
          "name": "",
          "type": "address"
        }
      ],
      "stateMutability": "payable",
      "type": "function"
    },
    {
      "inputs": [
        {
          "internalType": "string",
          "name": "",
          "type": "string"
        }
      ],
      "name": "interestRates",
      "outputs": [
        {
          "internalType": "string",
          "name": "name",
          "type": "string"
        },
        {
          "internalType": "string",
          "name": "country",
          "type": "string"
        },
        {
          "internalType": "string",
          "name": "symbol",
          "type": "string"
        },
        {
          "internalType": "uint256",
          "name": "current_rate",
          "type": "uint256"
        },
        {
          "internalType": "uint256",
          "name": "previous_rate",
          "type": "uint256"
        },
        {
          "internalType": "string",
          "name": "change",
          "type": "string"
        }
      ],
      "stateMutability": "view",
      "type": "function"
    },
    {
      "inputs": [],
      "name": "renounceOwnership",
      "outputs": [],
      "stateMutability": "payable",
      "type": "function"
    },
    {
      "inputs": [
        {
          "internalType": "address",
          "name": "",
          "type": "address"
        }
      ],
      "name": "tokens",
      "outputs": [
        {
          "internalType": "string",
          "name": "ccypair",
          "type": "string"
        },
        {
          "internalType": "uint256",
          "name": "lots",
          "type": "uint256"
        },
        {
          "internalType": "uint256",
          "name": "maturity",
          "type": "uint256"
        },
        {
          "internalType": "uint256",
          "name": "rate",
          "type": "uint256"
        }
      ],
      "stateMutability": "view",
      "type": "function"
    },
    {
      "inputs": [
        {
          "internalType": "address",
          "name": "newOwner",
          "type": "address"
        }
      ],
      "name": "transferOwnership",
      "outputs": [],
      "stateMutability": "payable",
      "type": "function"
    },
    {
      "stateMutability": "payable",
      "type": "receive"
    },
    {
      "inputs": [
        {
          "internalType": "string",
          "name": "ccyPair",
          "type": "string"
        },
        {
          "internalType": "uint256",
          "name": "Points",
          "type": "uint256"
        },
        {
          "internalType": "uint256",
          "name": "SpotRate",
          "type": "uint256"
        },
        {
          "internalType": "uint256",
          "name": "Ask",
          "type": "uint256"
        },
        {
          "internalType": "uint256",
          "name": "Mid",
          "type": "uint256"
        },
        {
          "internalType": "uint256",
          "name": "Bid",
          "type": "uint256"
        },
        {
          "internalType": "uint256",
          "name": "Expiration",
          "type": "uint256"
        }
      ],
      "name": "updateForwardRate",
      "outputs": [],
      "stateMutability": "payable",
      "type": "function"
    },
    {
      "inputs": [
        {
          "internalType": "string",
          "name": "name",
          "type": "string"
        },
        {
          "internalType": "string",
          "name": "country",
          "type": "string"
        },
        {
          "internalType": "string",
          "name": "symbol",
          "type": "string"
        },
        {
          "internalType": "uint256",
          "name": "current_rate",
          "type": "uint256"
        },
        {
          "internalType": "uint256",
          "name": "previous_rate",
          "type": "uint256"
        },
        {
          "internalType": "string",
          "name": "change",
          "type": "string"
        }
      ],
      "name": "updateInterestRate",
      "outputs": [],
      "stateMutability": "payable",
      "type": "function"
    },
    {
      "inputs": [
        {
          "internalType": "string",
          "name": "ccypair",
          "type": "string"
        },
        {
          "internalType": "uint256",
          "name": "maturity",
          "type": "uint256"
        }
      ],
      "name": "quote",
      "outputs": [
        {
          "internalType": "uint256",
          "name": "",
          "type": "uint256"
        }
      ],
      "stateMutability": "view",
      "type": "function"
    },
    {
      "inputs": [
        {
          "internalType": "string",
          "name": "ccypair",
          "type": "string"
        },
        {
          "internalType": "uint256",
          "name": "lots",
          "type": "uint256"
        },
        {
          "internalType": "uint256",
          "name": "maturity",
          "type": "uint256"
        }
      ],
      "name": "mint",
      "outputs": [],
      "stateMutability": "payable",
      "type": "function"
    },
    {
      "inputs": [
        {
          "internalType": "uint256",
          "name": "forward_rate",
          "type": "uint256"
        }
      ],
      "name": "profitLoss",
      "outputs": [
        {
          "internalType": "uint256",
          "name": "",
          "type": "uint256"
        }
      ],
      "stateMutability": "view",
      "type": "function"
    },
    {
      "inputs": [],
      "name": "isMatured",
      "outputs": [
        {
          "internalType": "bool",
          "name": "",
          "type": "bool"
        }
      ],
      "stateMutability": "view",
      "type": "function"
    },
    {
      "inputs": [
        {
          "internalType": "uint256",
          "name": "forward_rate",
          "type": "uint256"
        }
      ],
      "name": "withdraw",
      "outputs": [],
      "stateMutability": "payable",
      "type": "function"
    },
    {
      "inputs": [],
      "name": "deposit",
      "outputs": [],
      "stateMutability": "payable",
      "type": "function"
    },
    {
      "inputs": [],
      "name": "balance",
      "outputs": [
        {
          "internalType": "uint256",
          "name": "",
          "type": "uint256"
        }
      ],
      "stateMutability": "view",
      "type": "function"
    }
  ],
  "bytecode": "0x608080604052346100655760008054600160a060020a03191633908117825542600155907f8be0079c531659141344cd1fd0a4f28419497f9722a3daafe3b4186f6b6457e08180a360ff19806003541660035560075416600755611f90908161006b8239f35b600080fdfe6080604090808252600490813610156100c8575b50361561009957333203610055577f26875833861a2b006512a11f1b86edf95df96131040f3caeed72989ee9858083825180610050343383611cde565b0390a1005b6020606492519160e560020a62461bcd02835282015260196024820152603860020a787068697368696e672061747461636b2064657465637465643f026044820152fd5b7fcc85d09d309785db93d6df19917f2e6cc07fe27cd01c08c8279145deb5cf4526825180610050343383611cde565b60009060e060020a823504906301edf6a0821461192d5750806316d3bfbb1461097a5780631c635ded1461135957806320988cef1461059357806325d70ee61461133a57806327cfe8561461058e5780632e1a7d4d146110ec57806342b134dd146110ce57806351512c1a146110b057806353f7e4b71461105857806363b7717f14611011578063695dbf9714610ff2578063715018a614610fad57806376b0f1e214610a945780637700615814610a035780637f2b6a0d146109cd57806383197ef01461097f578063839145401461097a57806388ee38101461095b578063893d20e81461093257806389d89bae146109135780638e6f6b77146103e9578063934d1fa4146108f5578063a3c3313a146108d6578063adebeb5f146108b7578063b69ef8a81461089b578063b8fb3a511461087f578063ba579c7414610861578063bd2744d114610753578063c41c64d214610734578063c9fe587514610716578063d0e30db01461065c578063d1d6fb4c1461063d578063d30bd3cb14610598578063d5999a5c14610593578063d60104961461058e578063e181b5b31461056f578063e19e543714610551578063e4860339146104ce578063ecbefab7146104b0578063f2fde38b146103ee578063f4359ce5146103e9578063f5074f4114610388578063fc742aa914610369578063fe904b7a1461034a5763ffa1ad7403610013578234610346578160031936011261034657805191828201906001604060020a03821184831017610330575061032c93508152600a825260b060020a69312e362e342d6265746102602083015251918291602083526020830190611bd6565b0390f35b60e060020a634e487b7102815260418552602490fd5b5080fd5b5082346103465781600319360112610346576020905163076a70008152f35b50823461034657816003193601126103465760209051630114db008152f35b509190346103e55760203660031901126103e557600160a060020a03903581811681036103e157600080516020611efb833981519152926103d06103db938654163314611bfb565b519182913383611c4a565b0390a180f35b8380fd5b8280fd5b611ae4565b50919060203660031901126103e557600160a060020a038135818116939192908490036104ac57845492831691610426833314611cf9565b84156104525750508290600080516020611f3b8339815191528580a3600160a060020a03191617815580f35b5160e560020a62461bcd028152602091810191909152602660248201527f4f776e61626c653a206e6577206f776e657220697320746865207a65726f2061604482015260d060020a65646472657373026064820152608490fd5b8480fd5b508234610346578160031936011261034657602090516276a7008152f35b509190346103e55760203660031901126103e5578035600160a060020a038116908190036103e15792829161053f9482526020522081519161051b836105148185611b41565b03846119d1565b60018201549160036002820154910154918051958695608087526080870190611bd6565b93602086015284015260608301520390f35b5082346103465781600319360112610346576020905162c5c1008152f35b508234610346578160031936011261034657602090516309450c008152f35b611a76565b611a58565b509160e03660031901126103e5578135906001604060020a0382116103e1576105c660059236908501611a94565b93908251946105d48661199c565b602435865260208601604435815284870190606435825260608801926084358452602060808a019560a43587528260a08c019960c4358b5251938492833781018a8152030190209751885551600188015551600287015551600386015551908401555191015580f35b5082346103465781600319360112610346576020905163018b82008152f35b509190826003193601126103e557610675331515611e2b565b34156106c2575081808080343082f1156106b8577fe1fffcc4923d04b559f4d29a8bfc6cda04eb5b0d3c460751c2402c5c5cc9109c9051806103db343383611cde565b51903d90823e3d90fd5b6020608492519160e560020a62461bcd028352820152602360248201527f6f6e6c7920706f73697469766520616d6f756e747320666f722061206465706f604482015260ea60020a621cda5d026064820152fd5b50823461034657816003193601126103465760209051629e34008152f35b5082346103465781600319360112610346576020905163013c68008152f35b5082903461085e57602036600319011261085e578235906001604060020a03821161085e575061082b9260056107a6602061079461032c9536908601611a3a565b81875193828580945193849201611ac1565b810160068152030190206108468551956107cb876107c48186611b41565b03886119d1565b80516107e5816107de8160018801611b41565b03826119d1565b6108398251916107fc836105148160028a01611b41565b610818600387015498870154966107c48651809a819301611b41565b83519a8b9a60c08c5260c08c0190611bd6565b908a820360208c0152611bd6565b9188830390890152611bd6565b926060860152608085015283820360a0850152611bd6565b80fd5b5082346103465781600319360112610346576020905162ed4e008152f35b50823461034657816003193601126103465760209051601e8152f35b5082346103465781600319360112610346575130318152602090f35b508234610346578160031936011261034657602090516301b30f008152f35b5082346103465781600319360112610346576020905163058fd4008152f35b50823461034657816003193601126103465760209051621275008152f35b50823461034657816003193601126103465760209051630cfa44008152f35b5082816003193601126103465760209061094a611ca9565b9051600160a060020a039091168152f35b50823461034657816003193601126103465760209051630b1fa8008152f35b611978565b5082346103465781600319360112610346576103db600080516020611efb833981519152916109b9600160a060020a038554163314611bfb565b6109c1611ca9565b90519182913383611c4a565b509190346103e557826003193601126103e557816020936002926109f2331515611e2b565b338252855220015490519042108152f35b5091346103e55760203660031901126103e5578135926001604060020a03841161085e5750610a4e6020610a3c60c09536908601611a3a565b81845193828580945193849201611ac1565b81016005815203019020805492600182015492600283015490600560038501549385015494015494815196875260208701528501526060840152608083015260a0820152f35b50919060c03660031901126103e5576001604060020a039080358281116104ac57610ac29036908301611a94565b9091602435848111610fa957610adb9036908301611a94565b9290604435868111610fa557610af49036908501611a94565b9160a43590888211610fa157610b2a96610b14610b339336908901611a94565b9890998c5197610b238961199c565b36916119f4565b865236916119f4565b9260209283820194855283610b493683866119f4565b938b840194855282610b6f606086019b6064358d52608087019b6084358d5236916119f4565b9c60a086019d8e52519384928337810160068152030190209051958651898111610f8b57808c610b9f8554611b02565b99601f9a8b8111610f60575b5087918b8411600114610efb5792610ef0575b5050816002029160080260020a6000190419161782555b60019485830190518051908b8211610e3f578d8291610bf48554611b02565b8c8111610ec5575b5088918c8411600114610e605792610e55575b5050816002029160080260020a6000190419161790555b60029788830193519384518b8111610e3f578d610c438354611b02565b888c8211610e15575b5050508d87908b8311600114610d9e579060059783610d93575b5050600882028c0a600019041916908b021790555b5160038301555185820155019651928351968711610d7d5750610c9e8754611b02565b848111610d49575b508093808711600114610ce357505050908392918693610cd8575b505082810292600802900a60001904191617905580f35b015191503880610cc1565b919593909284601f198116898b52858b20958b905b8a838310610d2f5750505010610d14575b505050500201905580f35b0151908316600802840a600019041916905538808080610d09565b858701518955909701969485019488935090810190610cf8565b610d6e90888a52828a20838781818c0104830193828c10610d74575b01040190611d45565b38610ca6565b93508293610d65565b60e060020a634e487b7102895260419052602488fd5b015190503880610c66565b9189928d92601f198316998683528b8320925b8c8c8210610deb5750508360059b10610dd1575b50505002019055610c7b565b01516008838f1602840a6000190419169055388080610dc5565b929690955081949798999a9b93878493015181550195019301928b94919998979695928f94610db1565b8285610e37945220898d8181870104830193828710610d745701040190611d45565b8d3888610c4c565b60e060020a634e487b71028e526041895260248efd5b015190503880610c0f565b909350899291601f1983168683528a8320925b8b828210610eaf57505094836002959610610e95575b50505002019055610c26565b01516008838e1602840a6000190419169055388080610e89565b8388015185558d96909401939283019201610e73565b610eea908684528d8b808620918181890104830193828910610d745701040190611d45565b38610bfc565b015190503880610bbe565b8681528881209350601f198516905b89828210610f4a5750509160029391856001969410610f30575b50505002018255610bd5565b01516008838d1602840a6000190419169055388080610f24565b6001859682939686015181550195019301610f0a565b610f85908784528c8a808620918181890104830193828910610d745701040190611d45565b38610bab565b60e060020a634e487b71028c526041875260248cfd5b8a80fd5b8880fd5b8680fd5b508060031936011261085e57805481600160a060020a038216610fd1338214611cf9565b600080516020611f3b8339815191528280a3600160a060020a031916815580f35b50823461034657816003193601126103465760209051630163f5008152f35b5082903461085e578160031936011261085e578235906001604060020a03821161085e575061104860209361105192369101611a3a565b60243590611d5c565b9051908152f35b50823461034657602036600319011261034657823591611079331515611e2b565b3381528360205260038282200154830392831161109a576020838351908152f35b60e060020a634e487b7102815260118452602490fd5b50823461034657816003193601126103465760209051621baf808152f35b50823461034657816003193601126103465760209051624f1a008152f35b509190602091826003193601126103e15760075491803560ff84166112f757611116331515611e2b565b60ff199384166001811760075533875282865283872060020154421015611296573387528286528387206003015482106112605750338652818552828620600101546111619161194b565b936127109485810295818704149015171561124a57843031116000146111e85785808680156111de575b8280929181923390f1156111d457600080516020611f1b8339815191526111bc6111ca959685519182913383611cde565b0390a1338652528320611e78565b6007541660075580f35b82513d87823e3d90fd5b6108fc915061118b565b608492519160e560020a62461bcd028352820152603360248201527f696e73756666696369656e7420636f6e74726163742062616c616e636520746f6044820152606a60020a72081c1c9bd8d95cdcc81dda5d1a191c985dd85b026064820152fd5b60e060020a634e487b7102865260118252602486fd5b90506112939491929350600755600080516020611f1b8339815191528380513381528784820152a1338552528220611e78565b80f35b835160e560020a62461bcd028152808401879052602f60248201527f666f727761726420636f6e747261637420746f6b656e20686173206e6f7420726044820152608860020a6e656163686564206d61747572697479026064820152608490fd5b50905160e560020a62461bcd02815290810183905260166024820152605060020a757769746864726177616c20696e2070726f6772657373026044820152606490fd5b5082346103465781600319360112610346576020905163128a18008152f35b509160603660031901126103e5576001604060020a0382358181116104ac576113859036908501611a3a565b92602492833592604435926001958686101580611922575b156118e25762015180851480156118d6575b80156118ca575b80156118be575b80156118b2575b80156118a6575b801561189a575b801561188e575b8015611882575b8015611876575b8015611869575b801561185c575b801561184f575b8015611842575b8015611835575b8015611828575b801561181b575b801561180e575b8015611801575b80156117f4575b80156117e7575b80156117da575b80156117cd575b1561178857611452331515611e2b565b61145c8589611d5c565b333190611469818961194b565b61271092838202918083048514901517156117735711156117345781810291818304149015171561171f5761149e908761194b565b34036116e157888034156116d8575b8180809234903090f1156116ce5783519060808201828110858211176116b957908a9186528983526020948584019089825287850192898452886060870195348752338152888a522095519081519283116116a557508d9061150f8754611b02565b601f811161166e575b508891601f84116001146115e5579460039894600080516020611edb8339815191529f9d9b97929461159c9f9d99958b95829160609e9a926115da575b5050816002029160080260020a6000190419161785555b518c85015551600284015551910155338c528152818b20928251998a99338b5260a0848c015260a08b0190611bd6565b96838a0152858901528786036080890152608086526115be6080870184611b41565b968301549086015260028201549085015201549101520390a180f35b015190503880611555565b9190601f1984168884528a8420935b818110611659575094600080516020611edb8339815191529f9d9b97929e61159c9f86829f9b979660029260609f9b9660039f9b9960039a1061163e575b5050500201855561156c565b01516008601f841602840a6000190419169055388080611632565b828401518555938f0193928b01928b016115f4565b611695908884528a84208b80601f88010482019281881061169b575b601f01040190611d45565b38611518565b919250829161168a565b60e060020a634e487b71028f52604188528efd5b5060e060020a634e487b71028a526041835289fd5b83513d8a823e3d90fd5b506108fc6114ad565b835160e560020a62461bcd028152602092810192909252601090820152608060020a6f6e6f7420656e6f7567682066756e6473026044820152606490fd5b5060e060020a634e487b710289526011825288fd5b855160e560020a62461bcd028152602081860152601481850152606060020a73696e73756666696369656e742062616c616e6365026044820152606490fd5b60e060020a634e487b71028d5260118652848dfd5b835160e560020a62461bcd028152602092810192909252601790820152604860020a76696e636f7272656374206d617475726974792064617465026044820152606490fd5b5063128a18008514611442565b50630cfa4400851461143b565b50630b1fa8008514611434565b506309450c00851461142d565b5063076a70008514611426565b5063058fd400851461141f565b506303b538008514611418565b506301da9c008514611411565b506301b30f00851461140a565b5063018b82008514611403565b50630163f50085146113fc565b5063013c680085146113f5565b50630114db0085146113ee565b5062ed4e0085146113e7565b5062c5c10085146113e0565b50629e340085146113d9565b506276a70085146113d2565b50624f1a0085146113cb565b5062278d0085146113c4565b50621baf8085146113bd565b506212750085146113b6565b5062093a8085146113af565b835160e560020a62461bcd028152602092810192909252601290820152607060020a716c6f7473206f7574206f6620626f756e6473026044820152606490fd5b50606486111561139d565b905034610346578160031936011261034657806303b5380060209252f35b8181029291811591840414171561195e57565b60e060020a634e487b710260009081526011600452602490fd5b346119975760003660031901126119975760206040516301da9c008152f35b600080fd5b60c081019081106001604060020a038211176119b757604052565b60e060020a634e487b710260009081526041600452602490fd5b601f909101601f19168101906001604060020a038211908210176119b757604052565b9192916001604060020a0382116119b75760405191611a1d601f8201601f1916602001846119d1565b829481845281830111611997578281602093846000960137010152565b9080601f8301121561199757816020611a55933591016119f4565b90565b3461199757600036600319011261199757602060405162278d008152f35b34611997576000366003190112611997576020604051620151808152f35b9181601f84011215611997578235916001604060020a038311611997576020838186019501011161199757565b60005b838110611ad45750506000910152565b8181015183820152602001611ac4565b3461199757600036600319011261199757602060405162093a808152f35b9060016002830492168015611b37575b6020831014611b1d57565b60e060020a634e487b710260009081526022600452602490fd5b91607f1691611b12565b9060009291805491611b5283611b02565b918282526001938481169081600014611bb45750600114611b74575b50505050565b90919394506000526020928360002092846000945b838610611ba0575050505001019038808080611b6e565b805485870183015294019385908201611b89565b9294505050602093945060ff1916838301521515820201019038808080611b6e565b90602091611bef81518092818552858086019101611ac1565b601f01601f1916010190565b15611c0257565b60405160e560020a62461bcd02815260206004820152601b60248201527f756e617574686f72697a65642c206e6f7420746865206f776e657200000000006044820152606490fd5b600160a060020a0391821681529116602082015260400190565b15611c6b57565b60405160e560020a62461bcd0281526020600482015260106024820152608160020a6f3930ba32903634b6b4ba1032b93937b9026044820152606490fd5b600154601e810180911161195e57611ccb904211611cc681611c64565b611c64565b42600155600054600160a060020a031690565b600160a060020a039091168152602081019190915260400190565b15611d0057565b60405160e560020a62461bcd0281526020600482015260176024820152604960020a7630b1b1b2b9b9903232b734b2b2103337b91037bbb732b9026044820152606490fd5b818110611d50575050565b60008155600101611d45565b906040518251916003611dbe602080870195611d79818789611ac1565b85016005815285826001978893030190200154958360405183818b51611da0818388611ac1565b81016006815203019020015497604051938492839251928391611ac1565b810160068152030190200154908115611e11576301da9c00611de29104809561194b565b82019384831161195e57611df791830461194b565b810180911161195e578015611e1157611a5592049061194b565b60e060020a634e487b710260009081526012600452602490fd5b15611e3257565b60405160e560020a62461bcd0281526020600482015260186024820152604260020a771dd85b1b195d081859191c995cdcc81b9bdd081d985b1a59026044820152606490fd5b6003600091611e878154611b02565b80611e9e575b508260018201558260028201550155565b601f8111600114611eb457508281555b38611e8d565b8390828252611ed16020601f818520930104820160018301611d45565b81835555611eae56fee262570f17a48f9507007a81c19a99357bb7fa1f6271e7df3550a098f579364f91ca00fdf29069527d658f8dfc6d1c0bf9861780bb45ff36436f938d3595a8d67fcf532c15f0a6db0bd6d0e038bea71d30d808c7d98cb3bf7268a95bf5081b658be0079c531659141344cd1fd0a4f28419497f9722a3daafe3b4186f6b6457e0a26469706673582212205767ab700c0640930e8ad1e62b754af55c3b76a9f5c0b1dd0378f4943871a5b964736f6c63430008120033",
  "immutableReferences": {},
  "source": "// SPDX-License-Identifier: CC-BY-4.0\r\npragma solidity >=0.4.22 <0.9.0;\r\n\r\n/**\r\n * A currency forward is a binding contract in the foreign exchange market that locks in the exchange rate for the purchase or sale of a currency on a future date.\r\n * A currency forward is essentially a customizable hedging tool that does not involve an upfront margin payment. The other major benefit of a currency forward is\r\n * that its terms are not standardized and can be tailored to a particular amount and for any maturity or delivery period, unlike exchange-traded currency futures.\r\n *\r\n * https://github.com/alanwhite1203/fxForward\r\n */\r\n\r\n// Forward Currency Rates at https://www.fxempire.com/currencies/eur-usd/forward-rates\r\n\r\n/**\r\n * Calculation of the FX Forward Rate involves querying the related central bank interest rate and the spot rate for the ccy pair\r\n *\r\n * Central Bank Interest Rates at https://www.global-rates.com/en/interest-rates/central-banks/central-banks.aspx\r\n *\r\n */\r\nimport \"../../common/Version.sol\";\r\nimport \"../../common/Frozen.sol\";\r\n\r\n\r\ncontract Forward is Version, Frozen {\r\n\r\n    uint256 public constant DAY             = 60*60*24;\r\n    uint256 public constant WEEK            = 60*60*24*7;\r\n    uint256 public constant MONTH           = 60*60*24*30;\r\n    uint256 public constant YEAR            = 60*60*24*30*12;\r\n\r\n    uint256 public constant NEXT_DAY        = DAY;\r\n    uint256 public constant ONE_WEEK        = WEEK;\r\n    uint256 public constant TWO_WEEKS       = 2 * WEEK;\r\n    uint256 public constant THREE_WEEKS     = 3 * WEEK;\r\n    uint256 public constant ONE_MONTH       = MONTH;\r\n    uint256 public constant TWO_MONTHS      = 2 * MONTH;\r\n    uint256 public constant THREE_MONTHS    = 3 * MONTH;\r\n    uint256 public constant FOUR_MONTHS     = 4 * MONTH;\r\n    uint256 public constant FIVE_MONTHS     = 5 * MONTH;\r\n    uint256 public constant SIX_MONTHS      = 6 * MONTH;\r\n    uint256 public constant SEVEN_MONTHS    = 7 * MONTH;\r\n    uint256 public constant EIGHT_MONTHS    = 8 * MONTH;\r\n    uint256 public constant NINE_MONTHS     = 9 * MONTH;\r\n    uint256 public constant TEN_MONTHS      = 10 * MONTH;\r\n    uint256 public constant ELEVEN_MONTHS   = 11 * MONTH;\r\n    uint256 public constant ONE_YEAR        = YEAR;\r\n    uint256 public constant TWO_YEARS       = 2 * YEAR;\r\n    uint256 public constant THREE_YEARS     = 3 * YEAR;\r\n    uint256 public constant FOUR_YEARS      = 4 * YEAR;\r\n    uint256 public constant FIVE_YEARS      = 5 * YEAR;\r\n    uint256 public constant SIX_YEARS       = 6 * YEAR;\r\n    uint256 public constant SEVEN_YEARS     = 7 * YEAR;\r\n    uint256 public constant TEN_YEARS       = 10 * YEAR;\r\n\r\n    struct ForwardToken {\r\n        string   ccypair;\r\n        uint256  lots;\r\n        uint256  maturity;\r\n        uint256  rate;\r\n    }\r\n\r\n    struct ForwardRates {\r\n        uint256  Points;     // -0.33,\r\n        uint256  SpotRate;   // 1.357105,\r\n        uint256  Ask;        // 1.357118,\r\n        uint256  Mid;        // 1.357072,\r\n        uint256  Bid;        // 1.357026,\r\n        uint256  Expiration; // \"Overnight\"\r\n    }\r\n\r\n    struct InterestRate {\r\n         string     name;\r\n         string\t    country;\r\n         string     symbol;\r\n         uint256    current_rate;\r\n         uint256    previous_rate;\r\n         string\t    change;\r\n    }\r\n\r\n\r\n    mapping (address => ForwardToken) public tokens;\r\n    mapping (string => ForwardRates) public fwdrates;\r\n    mapping (string => InterestRate) public interestRates;\r\n\r\n    bool private inWithdrawal = false;\r\n\r\n    event ForwardTokenMinted(address investor, string ccypair, uint256 lots, uint256 maturity, ForwardToken token);\r\n    event Withdrawal(address investor, uint256 amount);\r\n    event Deposit(address wallet, uint256 amount);\r\n\r\n    constructor()\r\n    {\r\n        /*\r\n        ForwardRates memory forwardRates = ForwardRates(-0.33, 1.357105, 1.357118, 1.357072, 1.357026, \"Overnight\");\r\n        fwdrates.append(forwardRates);\r\n\r\n        InterestRate memory interestRate = InterestRate(\"American\", \"United States\", \"USD\", 0.250, 1.250, \"03-15-2020\");\r\n        interestRates.append(interestRate);\r\n        interestRate = InterestRate(\"Australian\", \"Australia\", \"AUD\", 0.100, 0.250, \"11-03-2020\");\r\n        interestRates.append(interestRate);\r\n        interestRate = InterestRate(\"Banco Central\", \"Chile\", \"\", 5.500, 4.000, \"01-26-2022\");\r\n        interestRates.append(interestRate);\r\n        interestRate = InterestRate(\"Bank of Korea\", \"South Korea\", \"\", 1.250, 1.000, \"01-14-2022\");\r\n        interestRates.append(interestRate);\r\n        interestRate = InterestRate(\"Brazilian\", \"Brazil\", \"\", 10.750, 9.250, \"02-02-2022\");\r\n        interestRates.append(interestRate);\r\n        interestRate = InterestRate(\"British\", \"Great Britain\", \"GBP\", 0.500, 0.250, \"02-03-2022\");\r\n        interestRates.append(interestRate);\r\n        interestRate = InterestRate(\"Canadian\", \"Canada\", \"CAD\", 0.250, 0.750, \"03-27-2020\");\r\n        interestRates.append(interestRate);\r\n        interestRate = InterestRate(\"Chinese\", \"China\", \"\", 3.700, 3.800, \"01-20-2022\");\r\n        interestRates.append(interestRate);\r\n        interestRate = InterestRate(\"Czech\", \"Czech Republic\", \"\", 4.500, 3.750, \"02-03-2022\");\r\n        interestRates.append(interestRate);\r\n        interestRate = InterestRate(\"Danish\", \"Denmark\", \"\", -0.450, -0.350, \"10-01-2021\");\r\n        interestRates.append(interestRate);\r\n        interestRate = InterestRate(\"European\", \"Europe\", \"EUR\", 0.000, 0.050, \"03-10-2016\");\r\n        interestRates.append(interestRate);\r\n        interestRate = InterestRate(\"Hungarian\", \"Hungary\", \"\", 2.900, 2.400, \"01-25-2022\");\r\n        interestRates.append(interestRate);\r\n        interestRate = InterestRate(\"Indian\", \"India\", \"\", 4.000, 4.400, \"05-22-2020\");\r\n        interestRates.append(interestRate);\r\n        interestRate = InterestRate(\"Indonesian\", \"Indonesia\", \"\", 6.500, 6.750, \"06-16-2016\");\r\n        interestRates.append(interestRate);\r\n        interestRate = InterestRate(\"Israeli\", \"Israel\", \"\", 0.100, 0.250, \"04-06-2020\");\r\n        interestRates.append(interestRate);\r\n        interestRate = InterestRate(\"Japanese\", \"Japan\", \"JPY\", -0.100, 0.000, \"02-01-2016\");\r\n        interestRates.append(interestRate);\r\n        interestRate = InterestRate(\"Mexican\", \"Mexico\", \"\", 5.500, 5.000, \"12-16-2021\");\r\n        interestRates.append(interestRate);\r\n        interestRate = InterestRate(\"New Zealand\", \"New Zealand\", \"NZD\", 0.750, 0.500, \"11-24-2021\");\r\n        interestRates.append(interestRate);\r\n        interestRate = InterestRate(\"Norwegian\", \"Norway\", \"\", 0.500, 0.250, \"12-16-2021\");\r\n        interestRates.append(interestRate);\r\n        interestRate = InterestRate(\"Polish\", \"Poland\", \"\", 2.250, 1.750, \"01-04-2022\");\r\n        interestRates.append(interestRate);\r\n        interestRate = InterestRate(\"Russian\", \"Russia\", \"\", 8.500, 7.500, \"12-20-2021\");\r\n        interestRates.append(interestRate);\r\n        interestRate = InterestRate(\"Saudi Ariabian\", \"Saudi Arabia\", \"\", 1.000, 1.750, \"03-16-2020\");\r\n        interestRates.append(interestRate);\r\n        interestRate = InterestRate(\"South African\", \"South Africa\", \"\", 4.000, 3.750, \"01-27-2022\");\r\n        interestRates.append(interestRate);\r\n        interestRate = InterestRate(\"Swedish\", \"Sweden\", \"\", 0.000, -0.250, \"12-19-2019\");\r\n        interestRates.append(interestRate);\r\n        interestRate = InterestRate(\"Swiss\", \"Switzerland\", \"\", -0.750, -0.500, \"01-15-2015\");\r\n        interestRates.append(interestRate);\r\n        interestRate = InterestRate(\"Turkish\", \"Turkey\", \"\", 14.000, 15.000, \"12-16-2021\");\r\n        interestRates.append(interestRate);\r\n        */\r\n    }\r\n\r\n\r\n    modifier isCorrectMaturity(uint256 epoch) {\r\n        require(epoch == NEXT_DAY ||\r\n                epoch == ONE_WEEK ||\r\n                epoch == TWO_WEEKS ||\r\n                epoch == THREE_WEEKS ||\r\n                epoch == ONE_MONTH ||\r\n                epoch == TWO_MONTHS ||\r\n                epoch == THREE_MONTHS ||\r\n                epoch == FOUR_MONTHS ||\r\n                epoch == FIVE_MONTHS ||\r\n                epoch == SIX_MONTHS ||\r\n                epoch == SEVEN_MONTHS ||\r\n                epoch == EIGHT_MONTHS ||\r\n                epoch == NINE_MONTHS ||\r\n                epoch == TEN_MONTHS ||\r\n                epoch == ELEVEN_MONTHS ||\r\n                epoch == ONE_YEAR ||\r\n                epoch == TWO_YEARS ||\r\n                epoch == THREE_YEARS ||\r\n                epoch == FOUR_YEARS ||\r\n                epoch == FIVE_YEARS ||\r\n                epoch == SIX_YEARS ||\r\n                epoch == SEVEN_YEARS ||\r\n                epoch == TEN_YEARS,\r\n                \"incorrect maturity date\");\r\n        _;\r\n    }\r\n\r\n    modifier correctLotSize(uint256 lots) {\r\n        require(lots >= 1 && lots <= 100,\"lots out of bounds\");\r\n        _;\r\n    }\r\n\r\n    modifier notWithdrawing() {\r\n        require(inWithdrawal == false,\"withdrawal in progress\");\r\n        _;\r\n    }\r\n\r\n    function updateForwardRate(string calldata ccyPair,\r\n                               uint256 Points,\r\n                               uint256  SpotRate,\r\n                               uint256  Ask,\r\n                               uint256  Mid,\r\n                               uint256  Bid,\r\n                               uint256  Expiration)\r\n        public\r\n        payable\r\n    {\r\n        fwdrates[ccyPair] = ForwardRates(Points, SpotRate, Ask, Mid, Bid, Expiration);\r\n    }\r\n\r\n    function updateInterestRate(string calldata name,\r\n                                string calldata country,\r\n                                string calldata symbol,\r\n                                uint256 current_rate,\r\n                                uint256 previous_rate,\r\n                                string calldata change)\r\n        public\r\n        payable\r\n    {\r\n        interestRates[symbol] = InterestRate(name, country, symbol, current_rate, previous_rate, change);\r\n    }\r\n\r\n    function quote(string memory ccypair, uint256 maturity)\r\n        public\r\n        view\r\n        returns (uint256)\r\n    {\r\n        // https://api.kraken.com/0/public/Ticker?pair=GBPUSD\r\n        // {\"error\":[],\"result\":{\"ZGBPZUSD\":{\"a\":[\"1.35553\",\"1033\",\"1033.000\"],\"b\":[\"1.35526\",\"132\",\"132.000\"],\"c\":[\"1.35555\",\"2.74000000\"],\"v\":[\"646400.53966339\",\"1521216.22766749\"],\"p\":[\"1.35725\",\"1.35846\"],\"t\":[1226,3036],\"l\":[\"1.35448\",\"1.35448\"],\"h\":[\"1.36080\",\"1.36109\"],\"o\":\"1.35966\"}}}\r\n        return _quote(ccypair,maturity);\r\n    }\r\n\r\n\r\n    function _quote(string memory ccypair, uint256 maturity)\r\n        internal\r\n        view\r\n        returns (uint256)\r\n    {\r\n        uint256 tquote = fwdrates[ccypair].SpotRate;\r\n        uint256 base_interest = interestRates[ccypair].current_rate;\r\n        uint256 quote_interest = 1 / interestRates[ccypair].current_rate;\r\n        return tquote * ( ( (1 + base_interest * (maturity / ONE_YEAR)) / (1 + quote_interest * (maturity/ONE_YEAR)) ));\r\n    }\r\n\r\n    function mint(string memory ccypair, uint256 lots, uint256 maturity)\r\n        public\r\n        payable\r\n        correctLotSize(lots)\r\n        isCorrectMaturity(maturity)\r\n    {\r\n        require(msg.sender != address(0),\"wallet address not valid\");\r\n         // current forware rate for ccypair obtain from a similar source as https://www.fxempire.com/currencies/eur-usd/forward-rates\r\n        uint256 rate = _quote(ccypair,maturity);\r\n        require(msg.sender.balance > (lots * rate * uint256(10000)),\"insufficient balance\");\r\n        uint256 _rate = uint256(rate * 10000);\r\n        require(msg.value == (lots * _rate), \"not enough funds\");\r\n        payable(address(this)).transfer(msg.value); // transfer payment to contract\r\n\r\n        tokens[msg.sender] = ForwardToken(ccypair, lots, maturity, msg.value);\r\n        emit ForwardTokenMinted(msg.sender,ccypair,lots,maturity,tokens[msg.sender]);\r\n    }\r\n\r\n    // current forward rate for tokens[msg.sender].ccypair from a similar source as https://www.fxempire.com/currencies/eur-usd/forward-rates\r\n    function profitLoss(uint256 forward_rate)\r\n        public\r\n        view\r\n        returns (uint256)\r\n    {\r\n        require(msg.sender != address(0),\"wallet address not valid\");\r\n        //require(tokens[msg.sender] != bytes(0x0),\"no forward contract token exists?\");\r\n\r\n        uint256 investor_rate = tokens[msg.sender].rate;\r\n        return (forward_rate - investor_rate);\r\n    }\r\n\r\n    function isMatured()\r\n        public\r\n        view\r\n        returns (bool)\r\n    {\r\n        require(msg.sender != address(0),\"wallet address not valid\");\r\n        //require(tokens[msg.sender] != bytes(0),\"no forward contract token exists?\");\r\n\r\n        uint256 maturity_date = tokens[msg.sender].maturity;\r\n        return (maturity_date > block.timestamp);\r\n    }\r\n\r\n    // current forward rate for tokens[msg.sender].ccypair from a similar source as https://www.fxempire.com/currencies/eur-usd/forward-rates\r\n    function withdraw(uint256 forward_rate)\r\n        public\r\n        payable\r\n        notWithdrawing\r\n    {\r\n        require(msg.sender != address(0),\"wallet address not valid\");\r\n        //require(tokens[msg.sender],\"no forward contract token exists?\");\r\n\r\n        inWithdrawal = true; // prevents re-entrancy\r\n\r\n        uint256 maturity_date = tokens[msg.sender].maturity;\r\n        if (maturity_date > block.timestamp) {\r\n            uint256 investor_rate = tokens[msg.sender].rate;\r\n            \r\n            if (forward_rate >= investor_rate) {\r\n                uint256 amount = forward_rate * tokens[msg.sender].lots * uint256(10000);\r\n                if (address(this).balance > amount) {\r\n                    payable(msg.sender).transfer(amount);\r\n                    emit Withdrawal(msg.sender,amount);\r\n                    delete tokens[msg.sender];\r\n                    inWithdrawal = false;\r\n                } else {\r\n                    inWithdrawal = false;\r\n                    revert(\"insufficient contract balance to process withdrawal\");\r\n                }\r\n            } else {\r\n                inWithdrawal = false;\r\n                emit Withdrawal(msg.sender,uint256(0));\r\n                delete tokens[msg.sender];\r\n            }\r\n        } else {\r\n            inWithdrawal = false;\r\n            revert(\"forward contract token has not reached maturity\");\r\n        }\r\n    }\r\n\r\n    function deposit()\r\n        public\r\n        payable\r\n    {\r\n        require(msg.sender != address(0),\"wallet address not valid\");\r\n        require(msg.value > 0,\"only positive amounts for a deposit\");\r\n        payable(address(this)).transfer(msg.value);\r\n        emit Deposit(msg.sender,msg.value);\r\n    }\r\n\r\n    function balance()\r\n        public\r\n        view\r\n        returns (uint256)\r\n    {\r\n        return address(this).balance;\r\n    }\r\n}",
  "sourcePath": "/Volumes/HOME/pingleware-contracts/contracts/finance/currency/Forward.sol",
  "compiler": {
    "name": "solc",
    "version": "0.8.18+commit.87f61d96.Emscripten.clang"
  },
  "schemaVersion": "3.4.12",
  "updatedAt": "2024-05-23T18:56:25.504Z",
  "devdoc": {
    "kind": "dev",
    "methods": {
      "renounceOwnership()": {
        "details": "Leaves the contract without owner. It will not be possible to call `onlyOwner` functions anymore. Can only be called by the current owner. NOTE: Renouncing ownership will leave the contract without an owner, thereby removing any functionality that is only available to the owner."
      },
      "transferOwnership(address)": {
        "details": "Transfers ownership of the contract to a new account (`newOwner`). Can only be called by the current owner."
      }
    },
    "version": 1
  },
  "userdoc": {
    "kind": "user",
    "methods": {},
    "version": 1
  }
}