{
  "contractName": "FriendsFollowers",
  "abi": [
    {
      "anonymous": false,
      "inputs": [
        {
          "indexed": false,
          "internalType": "address",
          "name": "sender",
          "type": "address"
        },
        {
          "indexed": false,
          "internalType": "address",
          "name": "_follower",
          "type": "address"
        }
      ],
      "name": "FollowerDeleted",
      "type": "event"
    },
    {
      "anonymous": false,
      "inputs": [
        {
          "indexed": false,
          "internalType": "address",
          "name": "sender",
          "type": "address"
        },
        {
          "indexed": false,
          "internalType": "address",
          "name": "_friend",
          "type": "address"
        }
      ],
      "name": "FriendDeleted",
      "type": "event"
    },
    {
      "anonymous": false,
      "inputs": [
        {
          "indexed": false,
          "internalType": "address",
          "name": "requestor",
          "type": "address"
        }
      ],
      "name": "FriendRequestApproved",
      "type": "event"
    },
    {
      "anonymous": false,
      "inputs": [
        {
          "indexed": false,
          "internalType": "address",
          "name": "user",
          "type": "address"
        },
        {
          "indexed": false,
          "internalType": "address",
          "name": "follower",
          "type": "address"
        }
      ],
      "name": "NewFollowerAdded",
      "type": "event"
    },
    {
      "anonymous": false,
      "inputs": [
        {
          "indexed": false,
          "internalType": "address",
          "name": "friend",
          "type": "address"
        },
        {
          "indexed": false,
          "internalType": "string",
          "name": "message",
          "type": "string"
        }
      ],
      "name": "NotifyFriends",
      "type": "event"
    },
    {
      "inputs": [],
      "name": "getFollowers",
      "outputs": [
        {
          "internalType": "address[]",
          "name": "",
          "type": "address[]"
        }
      ],
      "stateMutability": "view",
      "type": "function"
    },
    {
      "inputs": [],
      "name": "getTotalFriendRequest",
      "outputs": [
        {
          "internalType": "uint256",
          "name": "",
          "type": "uint256"
        }
      ],
      "stateMutability": "view",
      "type": "function"
    },
    {
      "inputs": [],
      "name": "getTotalFriends",
      "outputs": [
        {
          "internalType": "uint256",
          "name": "",
          "type": "uint256"
        }
      ],
      "stateMutability": "view",
      "type": "function"
    },
    {
      "inputs": [],
      "name": "getTotalFollowers",
      "outputs": [
        {
          "internalType": "uint256",
          "name": "",
          "type": "uint256"
        }
      ],
      "stateMutability": "view",
      "type": "function"
    },
    {
      "inputs": [],
      "name": "getFriends",
      "outputs": [
        {
          "internalType": "address[]",
          "name": "",
          "type": "address[]"
        }
      ],
      "stateMutability": "view",
      "type": "function"
    },
    {
      "inputs": [],
      "name": "getFriendRequest",
      "outputs": [
        {
          "internalType": "address[]",
          "name": "",
          "type": "address[]"
        }
      ],
      "stateMutability": "view",
      "type": "function"
    }
  ],
  "bytecode": "0x6080806040523461001c57610bf9908161002282393081600a0152f35b600080fdfe6080604090808252307f00000000000000000000000000000000000000000000000000000000000000001490600436101561003957600080fd5b60009260e060020a84350491630d79f561831461086c5750816312b960121461083e5781631f8f7270146107d85781633414b1ae1461071e5781633c943819146107055781634eba96a814610675578163578ea4ed146105cb5781635dbe0fb814610510578163923ab6d2146104ef578163ad7fea7814610408578163afab31cc1461032d578163ceeac5d4146101f6578163dbb36cd214610182575063f8cd38b3146100e557600080fd5b61017f57602036600319011261017f576100fd6109d3565b600160a060020a03908116825b61011333610a61565b5481101561017b5780828460086101356101499561013033610a61565b610a9a565b9054910260020a9004161461014e576109ff565b61010a565b61017661015e8261013033610a61565b60088254910260020a600160a060020a030219169055565b6109ff565b8380f35b80fd5b838060031936011261017f5761019733610a61565b9180519182845490818152602080910195835280832092905b8282106101d6576101d286866101c8828b0383610921565b51918291826108dd565b0390f35b8354600160a060020a0316875295860195600193840193909101906101b0565b91905061032957602080600319360112610325576102126109d3565b600160a060020a0380821693909285929190835b868552600080516020610ba48339815191528252828520805482101561027c57610251828892610a9a565b919054600833930260020a90041614610273575b61026e906109ff565b610226565b60019750610265565b505085876102dc5791600080516020610ba48339815191527fbc595bcf5f203071640735c116c13f0b8e304a786705cf11c32c040f35ab951894926102d6948752526102ca33828720610acc565b51918291339083610b0f565b0390a180f35b50905160e560020a62461bcd0281526004810191909152601e60248201527f7573657220697320616c7265616479206265696e6720666f6c6c6f77656400006044820152606490fd5b8280fd5b5080fd5b919050610329578060031936011261032957906103486109d3565b916103516109e9565b600160a060020a0381811694909384821693815b858352600080516020610ba48339815191526020818152838520805484101561040457908a8a600861039c876103b3989796610a9a565b9054910260020a900416146103b8575b50506109ff565b610365565b888652526103cb61015e82858720610a9a565b7ff2144c860ab0d4259677489c961f31d16e20c4373ccc1bf275379b7cad44e7968351806103fa898983610b0f565b0390a138806103ac565b8580f35b838361017f57602036600319011261017f576104226109d3565b908092815b61043084610a61565b54811015610478576104458161013086610a61565b9054600890910260020a9004600160a060020a0316331461046f575b61046a906109ff565b610427565b60019450610461565b50909261049657506104939061048e3391610a61565b610acc565b80f35b5160e560020a62461bcd02815260206004820152602760248201527f667269656e6420726571756573742069732070656e64696e6720666f72207468604482015260c960020a6634b9903ab9b2b9026064820152608490fd5b8390816003193601126103295760209061050833610a61565b549051908152f35b91905061032957806003193601126103295761052a6109d3565b906105336109e9565b600160a060020a0392818416855b61054a83610a28565b548110156105c757808287600861056761057b9561013089610a28565b9054910260020a90041614610580576109ff565b610541565b61059061015e8261013087610a28565b7fbcba033f6e069251110b1b75369029b19821ae49fab32c5e578cf994f4474fd68651806105bf888883610b0f565b0390a16109ff565b8680f35b838361017f576105da3661095e565b90805b6105e633610a28565b54811015610671576105fb8161013033610a28565b905490600160a060020a0384808080655af3107a4000856008988960029902890a90041682f1156106675791600080516020610b84833981519152916105bf87869561064d6106629861013033610a28565b949054908c5196879602900a90041683610b29565b6105dd565b86513d86823e3d90fd5b5080f35b919050610329576020366003190112610329576106906109d3565b90600160a060020a0380831691845b6106a833610a61565b548110156106ca5780848460086101356106c59561013033610a61565b61069f565b857f29338d3c835a7f4b3428c4dfdd87c0599e385d2308bcbe8b3519f340e943be95602086856106fd8a61048e33610a28565b51908152a180f35b8390816003193601126103295760209061050833610a28565b9190506103295761072e3661095e565b825b338452600080516020610ba48339815191529060209180835284862080548310156105c7578261075f91610a9a565b905490600160a060020a039288808080655af3107a4000886008988960029902890a90041682f1156107ce5786600080516020610b84833981519152946105bf926107c998338d52526107b4878b8d20610a9a565b949054908b5196879602900a90041683610b29565b610730565b87513d8a823e3d90fd5b838060031936011261017f576107ed33610a28565b9180519182845490818152602080910195835280832092905b82821061081e576101d286866101c8828b0383610921565b8354600160a060020a031687529586019560019384019390910190610806565b8390816003193601126103295780602092338152600080516020610ba4833981519152845220549051908152f35b84918260031936011261032557338352600080516020610ba4833981519152602090815281842080548085529085528185208483019590925b8282106108bd576101d286866101c8828b0383610921565b8354600160a060020a0316875295860195600193840193909101906108a5565b6020908160408183019282815285518094520193019160005b828110610904575050505090565b8351600160a060020a0316855293810193928101926001016108f6565b601f909101601f19168101906001604060020a0382119082101761094457604052565b60e060020a634e487b710260009081526041600452602490fd5b60206003198201126109ce576001604060020a036004358181116109ce57826023820112156109ce57806004013591821161094457604051926109ab601f8401601f191660200185610921565b828452602483830101116109ce5781600092602460209301838601378301015290565b600080fd5b60043590600160a060020a03821682036109ce57565b60243590600160a060020a03821682036109ce57565b6000198114610a0e5760010190565b60e060020a634e487b710260009081526011600452602490fd5b600160a060020a031660009081527f8d4552ea204a9a5e68c524293799417cd9193405d39d7fbd41238815076a40d26020526040902090565b600160a060020a031660009081527f8d4552ea204a9a5e68c524293799417cd9193405d39d7fbd41238815076a40d16020526040902090565b8054821015610ab25760005260206000200190600090565b60e060020a634e487b710260009081526032600452602490fd5b8054604060020a81101561094457610ae991600182018155610a9a565b600882939254910260020a91600160a060020a0392808402938492160216911916179055565b600160a060020a0391821681529116602082015260400190565b600160a060020a039091168152604060208083018290528351918301829052939260005b828110610b6f57505060609293506000838284010152601f8019910116010190565b818101860151848201606001528501610b4d56feb0f281719d6154bdf4e251a559b05aa7431b719e01a7b3921218822299cb0eda8d4552ea204a9a5e68c524293799417cd9193405d39d7fbd41238815076a40d0a2646970667358221220d92d0fd2d440e62ff386dacf953f302dbc806bea45ce5f2f70487cbfdcb1955b64736f6c63430008120033",
  "immutableReferences": {
    "library_deploy_address": [
      {
        "length": 32,
        "start": 10
      }
    ]
  },
  "source": "// SPDX-License-Identifier: CC-BY-4.0\r\npragma solidity >=0.4.22 <0.9.0;\r\n\r\nlibrary FriendsFollowers {\r\n\r\n    event FriendRequestApproved(address requestor);\r\n    event NewFollowerAdded(address user, address follower);\r\n    event NotifyFriends(address friend, string message);\r\n    event FollowerDeleted(address sender,address _follower);\r\n    event FriendDeleted(address sender,address _friend);\r\n\r\n    struct FriendsFollowersStorage {\r\n        mapping (address => address[]) followers;\r\n        mapping (address => address[]) friend_requests;\r\n        mapping (address => address[]) friends;\r\n    }\r\n\r\n    function friendsFollowersStorage() internal pure returns (FriendsFollowersStorage storage ds)\r\n    {\r\n        bytes32 position = keccak256(\"friendsfollowers.storage\");\r\n        assembly { ds.slot := position }\r\n    }\r\n\r\n\r\n    /**\r\n     * Followers\r\n     */\r\n    function addFollower(address user)\r\n        external\r\n    {\r\n        bool found = false;\r\n        for (uint i = 0; i < friendsFollowersStorage().followers[user].length; i++) {\r\n            if (friendsFollowersStorage().followers[user][i] == msg.sender) {\r\n                found = true;\r\n            }\r\n        }\r\n        require(found == false,\"user is already being followed\");\r\n        friendsFollowersStorage().followers[user].push(msg.sender);\r\n        emit NewFollowerAdded(user, msg.sender);\r\n    }\r\n\r\n    function removeFollower(address _user, address _follower)\r\n        external\r\n    {\r\n        for (uint i = 0; i < friendsFollowersStorage().followers[_user].length; i++) {\r\n            if (friendsFollowersStorage().followers[_user][i] == _follower) {\r\n                delete friendsFollowersStorage().followers[_user][i];\r\n                emit FollowerDeleted(_user, _follower);\r\n            }\r\n        }\r\n    }\r\n\r\n    function removeFriend(address _user, address _friend)\r\n        external\r\n    {\r\n        for(uint i = 0; i < friendsFollowersStorage().friends[_user].length; i++) {\r\n            if (friendsFollowersStorage().friends[_user][i] == _friend) {\r\n                delete friendsFollowersStorage().friends[_user][i];\r\n                emit FriendDeleted(_user,_friend);\r\n            }\r\n        }\r\n    }\r\n\r\n    function getFollowers()\r\n        external\r\n        view\r\n        returns (address[] memory)\r\n    {\r\n        return friendsFollowersStorage().followers[msg.sender];\r\n    }\r\n\r\n    // Friend Request\r\n    function addFriendRequest(address user)\r\n        external\r\n    {\r\n        bool found = false;\r\n        for (uint i = 0; i < friendsFollowersStorage().friend_requests[user].length; i++) {\r\n            if (friendsFollowersStorage().friend_requests[user][i] == msg.sender) {\r\n                found = true;\r\n            }\r\n        }\r\n        require(found == false,\"friend request is pending for this user\");\r\n        friendsFollowersStorage().friend_requests[user].push(msg.sender);\r\n    }\r\n\r\n    function getTotalFriendRequest()\r\n        external\r\n        view\r\n        returns (uint256)\r\n    {\r\n        return friendsFollowersStorage().friend_requests[msg.sender].length;\r\n    }\r\n\r\n    function getTotalFriends()\r\n        external\r\n        view\r\n        returns (uint256)\r\n    {\r\n        return friendsFollowersStorage().friends[msg.sender].length;\r\n    }\r\n\r\n    function getTotalFollowers()\r\n        external\r\n        view\r\n        returns (uint256)\r\n    {\r\n        return friendsFollowersStorage().followers[msg.sender].length;\r\n    }\r\n\r\n    function getFriends()\r\n        external\r\n        view\r\n        returns (address[] memory)\r\n    {\r\n        return friendsFollowersStorage().friends[msg.sender];\r\n    }\r\n\r\n    function getFriendRequest()\r\n        external\r\n        view\r\n        returns (address[] memory)\r\n    {\r\n        return friendsFollowersStorage().friend_requests[msg.sender];\r\n    }\r\n\r\n    function approveFriendRequest(address requestor)\r\n        external\r\n    {\r\n        for (uint i = 0; i < friendsFollowersStorage().friend_requests[msg.sender].length; i++) {\r\n            if (friendsFollowersStorage().friend_requests[msg.sender][i] == requestor) {\r\n                delete friendsFollowersStorage().friend_requests[msg.sender][i];\r\n            }\r\n        }\r\n        friendsFollowersStorage().friends[msg.sender].push(requestor);\r\n        emit FriendRequestApproved(requestor);\r\n    }\r\n\r\n    function deleteFriendRequest(address requestor)\r\n        external\r\n    {\r\n        for (uint i = 0; i < friendsFollowersStorage().friend_requests[msg.sender].length; i++) {\r\n            if (friendsFollowersStorage().friend_requests[msg.sender][i] == requestor) {\r\n                delete friendsFollowersStorage().friend_requests[msg.sender][i];\r\n            }\r\n        }\r\n    }\r\n\r\n    function notifyFriends(string memory message)\r\n        external\r\n    {\r\n        for (uint i = 0; i < friendsFollowersStorage().friends[msg.sender].length; i++) {\r\n            payable(friendsFollowersStorage().friends[msg.sender][i]).transfer(0.0001 ether);\r\n            emit NotifyFriends(friendsFollowersStorage().friends[msg.sender][i], message);\r\n        }\r\n    }\r\n\r\n    function notifyFollowers(string memory message)\r\n        external\r\n    {\r\n        for (uint i = 0; i < friendsFollowersStorage().followers[msg.sender].length; i++) {\r\n            payable(friendsFollowersStorage().followers[msg.sender][i]).transfer(0.0001 ether);\r\n            emit NotifyFriends(friendsFollowersStorage().followers[msg.sender][i], message);\r\n        }\r\n    }\r\n}",
  "sourcePath": "/Volumes/HOME/pingleware-contracts/contracts/social/FriendsFollowers.sol",
  "compiler": {
    "name": "solc",
    "version": "0.8.18+commit.87f61d96.Emscripten.clang"
  },
  "schemaVersion": "3.4.12",
  "updatedAt": "2024-05-23T18:56:27.257Z",
  "devdoc": {
    "kind": "dev",
    "methods": {},
    "version": 1
  },
  "userdoc": {
    "kind": "user",
    "methods": {
      "addFollower(address)": {
        "notice": "Followers"
      }
    },
    "version": 1
  }
}