{
  "contractName": "FriendsFollowers",
  "abi": [
    {
      "inputs": [],
      "name": "getFollowers",
      "outputs": [
        {
          "internalType": "address",
          "name": "",
          "type": "address"
        }
      ],
      "stateMutability": "view",
      "type": "function"
    },
    {
      "inputs": [],
      "name": "getTotalFriendRequest",
      "outputs": [
        {
          "internalType": "uint256",
          "name": "",
          "type": "uint256"
        }
      ],
      "stateMutability": "view",
      "type": "function"
    },
    {
      "inputs": [],
      "name": "getFriends",
      "outputs": [
        {
          "internalType": "address[]",
          "name": "",
          "type": "address[]"
        }
      ],
      "stateMutability": "view",
      "type": "function"
    },
    {
      "inputs": [],
      "name": "getFriendRequest",
      "outputs": [
        {
          "internalType": "string",
          "name": "",
          "type": "string"
        }
      ],
      "stateMutability": "view",
      "type": "function"
    }
  ],
  "bytecode": "0x6107a6610053600b82828239805160001a607314610046577f4e487b7100000000000000000000000000000000000000000000000000000000600052600060045260246000fd5b30600052607381538281f3fe7300000000000000000000000000000000000000003014608060405260043610610088577c010000000000000000000000000000000000000000000000000000000060003504630d79f561811461008d5780631f8f7270146100d0578063923ab6d2146100e5578063ad7fea78146100fb578063ceeac5d41461011d578063dbb36cd214610181575b600080fd5b3360009081526000805160206107318339815191526020526040902054600160a060020a0316604051600160a060020a0390911681526020015b60405180910390f35b6100d8610196565b6040516100c791906105ed565b6100ed610208565b6040519081526020016100c7565b81801561010757600080fd5b5061011b61011636600461063a565b6102c9565b005b81801561012957600080fd5b5061011b61013836600461063a565b33600090815260008051602061073183398151915260205260409020805473ffffffffffffffffffffffffffffffffffffffff1916600160a060020a0392909216919091179055565b6101896104c8565b6040516100c7919061066a565b60606000805160206107318339815191526003018054806020026020016040519081016040528092919081815260200182805480156101fe57602002820191906000526020600020905b8154600160a060020a031681526001909101906020018083116101e0575b5050505050905090565b600080805b600080516020610751833981519152548110156102c3573360009081527f657628a550cd57488caa1cca477b7b4fbd68fa8798d79248ac0dc2d0089d2c2f60205260408120600080516020610751833981519152805491929184908110610276576102766106bf565b6000918252602080832090910154600160a060020a0316835282019290925260400190205460ff16156102b157816102ad816106ee565b9250505b806102bb816106ee565b91505061020d565b50919050565b60008060005b6000805160206107518339815191525481101561038a57600160a060020a0384166000805160206107318339815191526003018281548110610313576103136106bf565b600091825260209091200154600160a060020a0316141561033357600192505b33600080516020610731833981519152600301600181548110610358576103586106bf565b600091825260209091200154600160a060020a0316141561037857600191505b80610382816106ee565b9150506102cf565b5081156103f75760008051602061075183398151915280546001810182556000919091527fa853fa2d52d9248b08b1fe4c88498d96e5af4cc39a8eede3dc5d40ee48b2fa0501805473ffffffffffffffffffffffffffffffffffffffff1916600160a060020a0385161790555b801561045a5760008051602061075183398151915280546001810182556000919091527fa853fa2d52d9248b08b1fe4c88498d96e5af4cc39a8eede3dc5d40ee48b2fa0501805473ffffffffffffffffffffffffffffffffffffffff1916331790555b5050600160a060020a031660008181527f657628a550cd57488caa1cca477b7b4fbd68fa8798d79248ac0dc2d0089d2c2f6020818152604080842033855282528084208054600160ff1991821681179092559383528185209585529490915290912080549091169091179055565b60408051602081019091526000808252606091905b600080516020610751833981519152548110156102c3573360009081527f657628a550cd57488caa1cca477b7b4fbd68fa8798d79248ac0dc2d0089d2c2f60205260408120600080516020610751833981519152805491929184908110610546576105466106bf565b6000918252602080832090910154600160a060020a0316835282019290925260400190205460ff16156105db5760008051602061075183398151915280546001908110610595576105956106bf565b60009182526020918290200154604051600160a060020a039091166c01000000000000000000000000029181019190915260340160405160208183030381529060405291505b806105e5816106ee565b9150506104dd565b6020808252825182820181905260009190848201906040850190845b8181101561062e578351600160a060020a031683529284019291840191600101610609565b50909695505050505050565b60006020828403121561064c57600080fd5b8135600160a060020a038116811461066357600080fd5b9392505050565b600060208083528351808285015260005b818110156106975785810183015185820160400152820161067b565b818111156106a9576000604083870101525b50601f01601f1916929092016040019392505050565b7f4e487b7100000000000000000000000000000000000000000000000000000000600052603260045260246000fd5b6000600019821415610729577f4e487b7100000000000000000000000000000000000000000000000000000000600052601160045260246000fd5b506001019056fe657628a550cd57488caa1cca477b7b4fbd68fa8798d79248ac0dc2d0089d2c2e657628a550cd57488caa1cca477b7b4fbd68fa8798d79248ac0dc2d0089d2c31a264697066735822122028e23c5778867aba6b5073169b858d4ebb4c6c3bdb2d3f206cab3d32f007adb764736f6c634300080a0033",
  "immutableReferences": {},
  "source": "// SPDX-License-Identifier: CC-BY-4.0\r\npragma solidity >=0.4.22 <0.9.0;\r\n\r\nlibrary FriendsFollowers {\r\n\r\n    struct FriendsFollowersStorage {\r\n        mapping (address => address) followers;\r\n        mapping (address => mapping(address => bool)) friend_request;\r\n        mapping (address => address) friends;\r\n        address[] _friends;\r\n    }\r\n\r\n    function friendsFollowersStorage() internal pure returns (FriendsFollowersStorage storage ds)\r\n    {\r\n        bytes32 position = keccak256(\"advertiser.storage\");\r\n        assembly { ds.slot := position }\r\n    }\r\n\r\n\r\n\r\n    /**\r\n     * Followers\r\n     */\r\n    function addFollower(address user)\r\n        external\r\n    {\r\n        friendsFollowersStorage().followers[msg.sender] = user;\r\n    }\r\n\r\n    function getFollowers()\r\n        external\r\n        view\r\n        returns (address)\r\n    {\r\n        return friendsFollowersStorage().followers[msg.sender];\r\n    }\r\n\r\n    // Friend Request\r\n    function addFriendRequest(address user)\r\n        external\r\n    {\r\n        bool found1 = false;\r\n        bool found2 = false;\r\n        for (uint i = 0; i < friendsFollowersStorage()._friends.length; i++) {\r\n            if (friendsFollowersStorage()._friends[i] == user) {\r\n                found1 = true;\r\n            }\r\n            if (friendsFollowersStorage()._friends[1] == msg.sender) {\r\n                found2 = true;\r\n            }\r\n        }\r\n        if (found1) {\r\n            friendsFollowersStorage()._friends.push(user);\r\n        }\r\n        if (found2) {\r\n            friendsFollowersStorage()._friends.push(msg.sender);\r\n        }\r\n        friendsFollowersStorage().friend_request[user][msg.sender] = true;\r\n        friendsFollowersStorage().friend_request[msg.sender][user] = true;\r\n    }\r\n\r\n    function getTotalFriendRequest()\r\n        external\r\n        view\r\n        returns (uint256)\r\n    {\r\n        uint total = 0;\r\n        for (uint i = 0; i < friendsFollowersStorage()._friends.length; i++) {\r\n            if (friendsFollowersStorage().friend_request[msg.sender][friendsFollowersStorage()._friends[i]]) {\r\n                total++;\r\n            }\r\n        }\r\n        return total;\r\n    }\r\n\r\n    function getFriends()\r\n        external\r\n        view\r\n        returns (address[] memory)\r\n    {\r\n        return friendsFollowersStorage()._friends;\r\n    }\r\n\r\n    function getFriendRequest()\r\n        external\r\n        view\r\n        returns (string memory)\r\n    {\r\n        string memory output = \"\";\r\n        for (uint i = 0; i < friendsFollowersStorage()._friends.length; i++) {\r\n            if (friendsFollowersStorage().friend_request[msg.sender][friendsFollowersStorage()._friends[i]]) {\r\n                output = string(abi.encodePacked(friendsFollowersStorage()._friends[1]));\r\n            }\r\n        }\r\n        return output;\r\n    }\r\n\r\n}",
  "sourcePath": "G:\\projects\\pingleware-contracts\\contracts\\social\\FriendsFollowers.sol",
  "compiler": {
    "name": "solc",
    "version": "0.8.10+commit.fc410830.Emscripten.clang"
  },
  "schemaVersion": "3.4.3",
  "updatedAt": "2021-12-25T15:51:04.409Z",
  "devdoc": {
    "kind": "dev",
    "methods": {},
    "version": 1
  },
  "userdoc": {
    "kind": "user",
    "methods": {
      "addFollower(address)": {
        "notice": "Followers"
      }
    },
    "version": 1
  }
}