{
  "contractName": "FriendsFollowers",
  "abi": [
    {
      "anonymous": false,
      "inputs": [
        {
          "indexed": false,
          "internalType": "address",
          "name": "sender",
          "type": "address"
        },
        {
          "indexed": false,
          "internalType": "address",
          "name": "_follower",
          "type": "address"
        }
      ],
      "name": "FollowerDeleted",
      "type": "event"
    },
    {
      "anonymous": false,
      "inputs": [
        {
          "indexed": false,
          "internalType": "address",
          "name": "sender",
          "type": "address"
        },
        {
          "indexed": false,
          "internalType": "address",
          "name": "_friend",
          "type": "address"
        }
      ],
      "name": "FriendDeleted",
      "type": "event"
    },
    {
      "anonymous": false,
      "inputs": [
        {
          "indexed": false,
          "internalType": "address",
          "name": "requestor",
          "type": "address"
        }
      ],
      "name": "FriendRequestApproved",
      "type": "event"
    },
    {
      "anonymous": false,
      "inputs": [
        {
          "indexed": false,
          "internalType": "address",
          "name": "user",
          "type": "address"
        },
        {
          "indexed": false,
          "internalType": "address",
          "name": "follower",
          "type": "address"
        }
      ],
      "name": "NewFollowerAdded",
      "type": "event"
    },
    {
      "anonymous": false,
      "inputs": [
        {
          "indexed": false,
          "internalType": "address",
          "name": "friend",
          "type": "address"
        },
        {
          "indexed": false,
          "internalType": "string",
          "name": "message",
          "type": "string"
        }
      ],
      "name": "NotifyFriends",
      "type": "event"
    },
    {
      "inputs": [],
      "name": "getFollowers",
      "outputs": [
        {
          "internalType": "address[]",
          "name": "",
          "type": "address[]"
        }
      ],
      "stateMutability": "view",
      "type": "function",
      "constant": true
    },
    {
      "inputs": [],
      "name": "getTotalFriendRequest",
      "outputs": [
        {
          "internalType": "uint256",
          "name": "",
          "type": "uint256"
        }
      ],
      "stateMutability": "view",
      "type": "function",
      "constant": true
    },
    {
      "inputs": [],
      "name": "getTotalFriends",
      "outputs": [
        {
          "internalType": "uint256",
          "name": "",
          "type": "uint256"
        }
      ],
      "stateMutability": "view",
      "type": "function",
      "constant": true
    },
    {
      "inputs": [],
      "name": "getTotalFollowers",
      "outputs": [
        {
          "internalType": "uint256",
          "name": "",
          "type": "uint256"
        }
      ],
      "stateMutability": "view",
      "type": "function",
      "constant": true
    },
    {
      "inputs": [],
      "name": "getFriends",
      "outputs": [
        {
          "internalType": "address[]",
          "name": "",
          "type": "address[]"
        }
      ],
      "stateMutability": "view",
      "type": "function",
      "constant": true
    },
    {
      "inputs": [],
      "name": "getFriendRequest",
      "outputs": [
        {
          "internalType": "address[]",
          "name": "",
          "type": "address[]"
        }
      ],
      "stateMutability": "view",
      "type": "function",
      "constant": true
    }
  ],
  "bytecode": "0x610fd4610053600b82828239805160001a607314610046577f4e487b7100000000000000000000000000000000000000000000000000000000600052600060045260246000fd5b30600052607381538281f3fe73000000000000000000000000000000000000000030146080604052600436106100c75760e060020a60003504630d79f56181146100cc57806312b96012146100ea5780631f8f7270146101005780633414b1ae146101085780633c9438191461012a5780634eba96a814610132578063578ea4ed146101525780635dbe0fb814610172578063923ab6d214610192578063ad7fea781461019a578063afab31cc146101ba578063ceeac5d4146101da578063dbb36cd2146101fa578063f8cd38b314610202575b600080fd5b6100d4610222565b6040516100e19190610d38565b60405180910390f35b6100f2610296565b6040519081526020016100e1565b6100d46102b6565b81801561011457600080fd5b50610128610123366004610d9f565b61032b565b005b6100f2610435565b81801561013e57600080fd5b5061012861014d366004610e6b565b610458565b81801561015e57600080fd5b5061012861016d366004610d9f565b6105a8565b81801561017e57600080fd5b5061012861018d366004610e8d565b6106b7565b6100f26107e1565b8180156101a657600080fd5b506101286101b5366004610e6b565b610804565b8180156101c657600080fd5b506101286101d5366004610e8d565b61094d565b8180156101e657600080fd5b506101286101f5366004610e6b565b610a69565b6100d4610bcf565b81801561020e57600080fd5b5061012861021d366004610e6b565b610c44565b606061022c610d14565b33600090815260209182526040908190208054825181850281018501909352808352919290919083018282801561028c57602002820191906000526020600020905b8154600160a060020a0316815260019091019060200180831161026e575b5050505050905090565b60006102a0610d14565b3360009081526020919091526040902054919050565b60606102c0610d14565b33600090815260029190910160209081526040918290208054835181840281018401909452808452909183018282801561028c57602002820191906000526020600020908154600160a060020a0316815260019091019060200180831161026e575050505050905090565b60005b610336610d14565b336000908152602091909152604090205481101561043157610356610d14565b3360009081526020919091526040902080548290811061037857610378610ec0565b6000918252602082200154604051600160a060020a039091169190655af3107a40009082818181858883f193505050501580156103b9573d6000803e3d6000fd5b50600080516020610f7f8339815191526103d1610d14565b336000908152602091909152604090208054839081106103f3576103f3610ec0565b60009182526020909120015460405161041791600160a060020a0316908590610eda565b60405180910390a18061042981610f39565b91505061032e565b5050565b600061043f610d14565b3360009081526002919091016020526040902054919050565b60005b610463610d14565b33600090815260019190910160205260409020548110156105285781600160a060020a0316610490610d14565b336000908152600191909101602052604090208054839081106104b5576104b5610ec0565b600091825260209091200154600160a060020a031603610516576104d7610d14565b336000908152600191909101602052604090208054829081106104fc576104fc610ec0565b60009182526020909120018054600160a060020a03191690555b8061052081610f39565b91505061045b565b50610531610d14565b336000908152600291909101602090815260408083208054600181018255908452928290209092018054600160a060020a031916600160a060020a03851690811790915591519182527f29338d3c835a7f4b3428c4dfdd87c0599e385d2308bcbe8b3519f340e943be95910160405180910390a150565b60005b6105b3610d14565b3360009081526002919091016020526040902054811015610431576105d6610d14565b336000908152600291909101602052604090208054829081106105fb576105fb610ec0565b6000918252602082200154604051600160a060020a039091169190655af3107a40009082818181858883f1935050505015801561063c573d6000803e3d6000fd5b50600080516020610f7f833981519152610654610d14565b3360009081526002919091016020526040902080548390811061067957610679610ec0565b60009182526020909120015460405161069d91600160a060020a0316908590610eda565b60405180910390a1806106af81610f39565b9150506105ab565b60005b6106c2610d14565b600160a060020a038416600090815260029190910160205260409020548110156107dc5781600160a060020a03166106f8610d14565b600160a060020a03851660009081526002919091016020526040902080548390811061072657610726610ec0565b600091825260209091200154600160a060020a0316036107ca57610748610d14565b600160a060020a03841660009081526002919091016020526040902080548290811061077657610776610ec0565b60009182526020909120018054600160a060020a03191690556040517fbcba033f6e069251110b1b75369029b19821ae49fab32c5e578cf994f4474fd6906107c19085908590610f64565b60405180910390a15b806107d481610f39565b9150506106ba565b505050565b60006107eb610d14565b3360009081526001919091016020526040902054919050565b6000805b610810610d14565b600160a060020a0384166000908152600191909101602052604090205481101561089c573361083d610d14565b600160a060020a03851660009081526001919091016020526040902080548390811061086b5761086b610ec0565b600091825260209091200154600160a060020a03160361088a57600191505b8061089481610f39565b915050610808565b5080156109065760405160e560020a62461bcd02815260206004820152602760248201527f667269656e6420726571756573742069732070656e64696e6720666f72207468604482015260c960020a6634b9903ab9b2b90260648201526084015b60405180910390fd5b61090e610d14565b600160a060020a039092166000908152600192830160209081526040822080549485018155825290209091018054600160a060020a0319163317905550565b60005b610958610d14565b600160a060020a038416600090815260209190915260409020548110156107dc5781600160a060020a031661098b610d14565b600160a060020a0385166000908152602091909152604090208054839081106109b6576109b6610ec0565b600091825260209091200154600160a060020a031603610a57576109d8610d14565b600160a060020a038416600090815260209190915260409020805482908110610a0357610a03610ec0565b60009182526020909120018054600160a060020a03191690556040517ff2144c860ab0d4259677489c961f31d16e20c4373ccc1bf275379b7cad44e79690610a4e9085908590610f64565b60405180910390a15b80610a6181610f39565b915050610950565b6000805b610a75610d14565b600160a060020a03841660009081526020919091526040902054811015610afb5733610a9f610d14565b600160a060020a038516600090815260209190915260409020805483908110610aca57610aca610ec0565b600091825260209091200154600160a060020a031603610ae957600191505b80610af381610f39565b915050610a6d565b508015610b4d5760405160e560020a62461bcd02815260206004820152601e60248201527f7573657220697320616c7265616479206265696e6720666f6c6c6f776564000060448201526064016108fd565b610b55610d14565b600160a060020a0383166000908152602091825260408082208054600181018255908352929091209091018054600160a060020a0319163390811790915590517fbc595bcf5f203071640735c116c13f0b8e304a786705cf11c32c040f35ab951891610bc391859190610f64565b60405180910390a15050565b6060610bd9610d14565b33600090815260019190910160209081526040918290208054835181840281018401909452808452909183018282801561028c57602002820191906000526020600020908154600160a060020a0316815260019091019060200180831161026e575050505050905090565b60005b610c4f610d14565b33600090815260019190910160205260409020548110156104315781600160a060020a0316610c7c610d14565b33600090815260019190910160205260409020805483908110610ca157610ca1610ec0565b600091825260209091200154600160a060020a031603610d0257610cc3610d14565b33600090815260019190910160205260409020805482908110610ce857610ce8610ec0565b60009182526020909120018054600160a060020a03191690555b80610d0c81610f39565b915050610c47565b7f8d4552ea204a9a5e68c524293799417cd9193405d39d7fbd41238815076a40d090565b6020808252825182820181905260009190848201906040850190845b81811015610d79578351600160a060020a031683529284019291840191600101610d54565b50909695505050505050565b60e060020a634e487b710260009081526041600452602490fd5b600060208284031215610db157600080fd5b81356001604060020a0380821115610dc857600080fd5b818401915084601f830112610ddc57600080fd5b813581811115610dee57610dee610d85565b604051601f8201601f19908116603f01168101908382118183101715610e1657610e16610d85565b81604052828152876020848701011115610e2f57600080fd5b826020860160208301376000928101602001929092525095945050505050565b8035600160a060020a0381168114610e6657600080fd5b919050565b600060208284031215610e7d57600080fd5b610e8682610e4f565b9392505050565b60008060408385031215610ea057600080fd5b610ea983610e4f565b9150610eb760208401610e4f565b90509250929050565b60e060020a634e487b710260009081526032600452602490fd5b600160a060020a038316815260006020604081840152835180604085015260005b81811015610f1757858101830151858201606001528201610efb565b506000606082860101526060601f19601f830116850101925050509392505050565b600060018201610f5d5760e060020a634e487b710260009081526011600452602490fd5b5060010190565b600160a060020a039283168152911660208201526040019056feb0f281719d6154bdf4e251a559b05aa7431b719e01a7b3921218822299cb0edaa2646970667358221220ec8eda927a83529afdd89c8bf65e6c8348f1a7cde56ecc4a2019e99f6169a97464736f6c63430008120033",
  "immutableReferences": {},
  "source": "// SPDX-License-Identifier: CC-BY-4.0\r\npragma solidity >=0.4.22 <0.9.0;\r\n\r\nlibrary FriendsFollowers {\r\n\r\n    event FriendRequestApproved(address requestor);\r\n    event NewFollowerAdded(address user, address follower);\r\n    event NotifyFriends(address friend, string message);\r\n    event FollowerDeleted(address sender,address _follower);\r\n    event FriendDeleted(address sender,address _friend);\r\n\r\n    struct FriendsFollowersStorage {\r\n        mapping (address => address[]) followers;\r\n        mapping (address => address[]) friend_requests;\r\n        mapping (address => address[]) friends;\r\n    }\r\n\r\n    function friendsFollowersStorage() internal pure returns (FriendsFollowersStorage storage ds)\r\n    {\r\n        bytes32 position = keccak256(\"friendsfollowers.storage\");\r\n        assembly { ds.slot := position }\r\n    }\r\n\r\n\r\n    /**\r\n     * Followers\r\n     */\r\n    function addFollower(address user)\r\n        external\r\n    {\r\n        bool found = false;\r\n        for (uint i = 0; i < friendsFollowersStorage().followers[user].length; i++) {\r\n            if (friendsFollowersStorage().followers[user][i] == msg.sender) {\r\n                found = true;\r\n            }\r\n        }\r\n        require(found == false,\"user is already being followed\");\r\n        friendsFollowersStorage().followers[user].push(msg.sender);\r\n        emit NewFollowerAdded(user, msg.sender);\r\n    }\r\n\r\n    function removeFollower(address _user, address _follower)\r\n        external\r\n    {\r\n        for (uint i = 0; i < friendsFollowersStorage().followers[_user].length; i++) {\r\n            if (friendsFollowersStorage().followers[_user][i] == _follower) {\r\n                delete friendsFollowersStorage().followers[_user][i];\r\n                emit FollowerDeleted(_user, _follower);\r\n            }\r\n        }\r\n    }\r\n\r\n    function removeFriend(address _user, address _friend)\r\n        external\r\n    {\r\n        for(uint i = 0; i < friendsFollowersStorage().friends[_user].length; i++) {\r\n            if (friendsFollowersStorage().friends[_user][i] == _friend) {\r\n                delete friendsFollowersStorage().friends[_user][i];\r\n                emit FriendDeleted(_user,_friend);\r\n            }\r\n        }\r\n    }\r\n\r\n    function getFollowers()\r\n        external\r\n        view\r\n        returns (address[] memory)\r\n    {\r\n        return friendsFollowersStorage().followers[msg.sender];\r\n    }\r\n\r\n    // Friend Request\r\n    function addFriendRequest(address user)\r\n        external\r\n    {\r\n        bool found = false;\r\n        for (uint i = 0; i < friendsFollowersStorage().friend_requests[user].length; i++) {\r\n            if (friendsFollowersStorage().friend_requests[user][i] == msg.sender) {\r\n                found = true;\r\n            }\r\n        }\r\n        require(found == false,\"friend request is pending for this user\");\r\n        friendsFollowersStorage().friend_requests[user].push(msg.sender);\r\n    }\r\n\r\n    function getTotalFriendRequest()\r\n        external\r\n        view\r\n        returns (uint256)\r\n    {\r\n        return friendsFollowersStorage().friend_requests[msg.sender].length;\r\n    }\r\n\r\n    function getTotalFriends()\r\n        external\r\n        view\r\n        returns (uint256)\r\n    {\r\n        return friendsFollowersStorage().friends[msg.sender].length;\r\n    }\r\n\r\n    function getTotalFollowers()\r\n        external\r\n        view\r\n        returns (uint256)\r\n    {\r\n        return friendsFollowersStorage().followers[msg.sender].length;\r\n    }\r\n\r\n    function getFriends()\r\n        external\r\n        view\r\n        returns (address[] memory)\r\n    {\r\n        return friendsFollowersStorage().friends[msg.sender];\r\n    }\r\n\r\n    function getFriendRequest()\r\n        external\r\n        view\r\n        returns (address[] memory)\r\n    {\r\n        return friendsFollowersStorage().friend_requests[msg.sender];\r\n    }\r\n\r\n    function approveFriendRequest(address requestor)\r\n        external\r\n    {\r\n        for (uint i = 0; i < friendsFollowersStorage().friend_requests[msg.sender].length; i++) {\r\n            if (friendsFollowersStorage().friend_requests[msg.sender][i] == requestor) {\r\n                delete friendsFollowersStorage().friend_requests[msg.sender][i];\r\n            }\r\n        }\r\n        friendsFollowersStorage().friends[msg.sender].push(requestor);\r\n        emit FriendRequestApproved(requestor);\r\n    }\r\n\r\n    function deleteFriendRequest(address requestor)\r\n        external\r\n    {\r\n        for (uint i = 0; i < friendsFollowersStorage().friend_requests[msg.sender].length; i++) {\r\n            if (friendsFollowersStorage().friend_requests[msg.sender][i] == requestor) {\r\n                delete friendsFollowersStorage().friend_requests[msg.sender][i];\r\n            }\r\n        }\r\n    }\r\n\r\n    function notifyFriends(string memory message)\r\n        external\r\n    {\r\n        for (uint i = 0; i < friendsFollowersStorage().friends[msg.sender].length; i++) {\r\n            payable(friendsFollowersStorage().friends[msg.sender][i]).transfer(0.0001 ether);\r\n            emit NotifyFriends(friendsFollowersStorage().friends[msg.sender][i], message);\r\n        }\r\n    }\r\n\r\n    function notifyFollowers(string memory message)\r\n        external\r\n    {\r\n        for (uint i = 0; i < friendsFollowersStorage().followers[msg.sender].length; i++) {\r\n            payable(friendsFollowersStorage().followers[msg.sender][i]).transfer(0.0001 ether);\r\n            emit NotifyFriends(friendsFollowersStorage().followers[msg.sender][i], message);\r\n        }\r\n    }\r\n}",
  "sourcePath": "/Volumes/My Book/projects/pingleware-contracts/contracts/social/FriendsFollowers.sol",
  "compiler": {
    "name": "solc",
    "version": "0.8.18+commit.87f61d96.Emscripten.clang"
  },
  "schemaVersion": "3.4.12",
  "updatedAt": "2023-10-24T20:06:55.648Z",
  "networkType": "ethereum",
  "devdoc": {
    "kind": "dev",
    "methods": {},
    "version": 1
  },
  "userdoc": {
    "kind": "user",
    "methods": {
      "addFollower(address)": {
        "notice": "Followers"
      }
    },
    "version": 1
  }
}