{
  "contractName": "Frozen",
  "abi": [
    {
      "anonymous": false,
      "inputs": [
        {
          "indexed": false,
          "internalType": "address",
          "name": "sender",
          "type": "address"
        },
        {
          "indexed": false,
          "internalType": "address",
          "name": "recipient",
          "type": "address"
        }
      ],
      "name": "Destroyed",
      "type": "event"
    },
    {
      "anonymous": false,
      "inputs": [
        {
          "indexed": false,
          "internalType": "address",
          "name": "sender",
          "type": "address"
        },
        {
          "indexed": false,
          "internalType": "uint256",
          "name": "amount",
          "type": "uint256"
        }
      ],
      "name": "FallbackEvent",
      "type": "event"
    },
    {
      "anonymous": false,
      "inputs": [
        {
          "indexed": true,
          "internalType": "address",
          "name": "previousOwner",
          "type": "address"
        },
        {
          "indexed": true,
          "internalType": "address",
          "name": "newOwner",
          "type": "address"
        }
      ],
      "name": "OwnershipTransferred",
      "type": "event"
    },
    {
      "anonymous": false,
      "inputs": [
        {
          "indexed": false,
          "internalType": "address",
          "name": "sender",
          "type": "address"
        },
        {
          "indexed": false,
          "internalType": "uint256",
          "name": "amount",
          "type": "uint256"
        }
      ],
      "name": "ReceiveEvent",
      "type": "event"
    },
    {
      "anonymous": false,
      "inputs": [
        {
          "indexed": false,
          "internalType": "address",
          "name": "sender",
          "type": "address"
        },
        {
          "indexed": false,
          "internalType": "bytes",
          "name": "reason",
          "type": "bytes"
        }
      ],
      "name": "Started",
      "type": "event"
    },
    {
      "anonymous": false,
      "inputs": [
        {
          "indexed": false,
          "internalType": "address",
          "name": "sender",
          "type": "address"
        },
        {
          "indexed": false,
          "internalType": "bytes",
          "name": "reason",
          "type": "bytes"
        }
      ],
      "name": "Stopped",
      "type": "event"
    },
    {
      "anonymous": false,
      "inputs": [
        {
          "indexed": false,
          "internalType": "address",
          "name": "sender",
          "type": "address"
        },
        {
          "indexed": false,
          "internalType": "string",
          "name": "reason",
          "type": "string"
        }
      ],
      "name": "Termination",
      "type": "event"
    },
    {
      "stateMutability": "payable",
      "type": "fallback"
    },
    {
      "inputs": [],
      "name": "WAIT",
      "outputs": [
        {
          "internalType": "uint256",
          "name": "",
          "type": "uint256"
        }
      ],
      "stateMutability": "view",
      "type": "function"
    },
    {
      "inputs": [],
      "name": "destroy",
      "outputs": [],
      "stateMutability": "nonpayable",
      "type": "function"
    },
    {
      "inputs": [
        {
          "internalType": "address",
          "name": "_recipient",
          "type": "address"
        }
      ],
      "name": "destroyAndSend",
      "outputs": [],
      "stateMutability": "nonpayable",
      "type": "function"
    },
    {
      "inputs": [],
      "name": "getOwner",
      "outputs": [
        {
          "internalType": "address",
          "name": "",
          "type": "address"
        }
      ],
      "stateMutability": "payable",
      "type": "function"
    },
    {
      "inputs": [],
      "name": "renounceOwnership",
      "outputs": [],
      "stateMutability": "payable",
      "type": "function"
    },
    {
      "inputs": [
        {
          "internalType": "address",
          "name": "newOwner",
          "type": "address"
        }
      ],
      "name": "transferOwnership",
      "outputs": [],
      "stateMutability": "payable",
      "type": "function"
    },
    {
      "stateMutability": "payable",
      "type": "receive"
    }
  ],
  "bytecode": "0x608060405260006001556003805460ff1916905534801561001f57600080fd5b5060008054600160a060020a031916339081178255426001556040519091907f8be0079c531659141344cd1fd0a4f28419497f9722a3daafe3b4186f6b6457e0908290a36105c9806100726000396000f3fe60806040526004361061005c5760e060020a6000350463715018a6811461012357806383197ef01461012d578063893d20e814610142578063b8fb3a5114610167578063f2fde38b1461018a578063f5074f411461019d5761009c565b3661009c577fcc85d09d309785db93d6df19917f2e6cc07fe27cd01c08c8279145deb5cf4526333460405161009292919061042d565b60405180910390a1005b3233146100f25760405160e560020a62461bcd0281526020600482015260196024820152603860020a787068697368696e672061747461636b2064657465637465643f0260448201526064015b60405180910390fd5b7f26875833861a2b006512a11f1b86edf95df96131040f3caeed72989ee9858083333460405161009292919061042d565b61012b6101bd565b005b34801561013957600080fd5b5061012b610222565b61014a61027f565b604051600160a060020a0390911681526020015b60405180910390f35b34801561017357600080fd5b5061017c601e81565b60405190815260200161015e565b61012b610198366004610446565b6102f5565b3480156101a957600080fd5b5061012b6101b8366004610446565b6103d6565b600054600160a060020a031633146101ea5760405160e560020a62461bcd0281526004016100e990610476565b60008054604051600160a060020a0390911690600080516020610574833981519152908390a360008054600160a060020a0319169055565b600054600160a060020a0316331461024f5760405160e560020a62461bcd0281526004016100e9906104aa565b6000805160206105548339815191523361026761027f565b6040516102759291906104e1565b60405180910390a1565b6000601e60015461029091906104fb565b42116102b15760405160e560020a62461bcd0281526004016100e990610526565b601e6001546102c091906104fb565b42116102e15760405160e560020a62461bcd0281526004016100e990610526565b5042600155600054600160a060020a031690565b600054600160a060020a031633146103225760405160e560020a62461bcd0281526004016100e990610476565b600160a060020a03811661038d5760405160e560020a62461bcd02815260206004820152602660248201527f4f776e61626c653a206e6577206f776e657220697320746865207a65726f2061604482015260d060020a656464726573730260648201526084016100e9565b60008054604051600160a060020a038085169392169160008051602061057483398151915291a360008054600160a060020a031916600160a060020a0392909216919091179055565b600054600160a060020a031633146104035760405160e560020a62461bcd0281526004016100e9906104aa565b60008051602061055483398151915233826040516104229291906104e1565b60405180910390a150565b600160a060020a03929092168252602082015260400190565b60006020828403121561045857600080fd5b8135600160a060020a038116811461046f57600080fd5b9392505050565b6020808252601790820152604960020a7630b1b1b2b9b9903232b734b2b2103337b91037bbb732b902604082015260600190565b6020808252601b908201527f756e617574686f72697a65642c206e6f7420746865206f776e65720000000000604082015260600190565b600160a060020a0392831681529116602082015260400190565b808201808211156105205760e060020a634e487b710260009081526011600452602490fd5b92915050565b6020808252601090820152608160020a6f3930ba32903634b6b4ba1032b93937b90260408201526060019056fe91ca00fdf29069527d658f8dfc6d1c0bf9861780bb45ff36436f938d3595a8d68be0079c531659141344cd1fd0a4f28419497f9722a3daafe3b4186f6b6457e0a2646970667358221220fc7433f6bcc64c0bfdd0c0e121912000f8599d5ccdd1ee6d0646ee73515a999864736f6c63430008120033",
  "immutableReferences": {},
  "source": "// SPDX-License-Identifier: CC-BY-4.0\r\npragma solidity >=0.4.22 <0.9.0;\r\n\r\n/**\r\n * Add a freeze or stop when an exception is raised?\r\n *\r\n */\r\nimport \"./Destructible.sol\";\r\n\r\ncontract Frozen is Destructible {\r\n    bool private running = false;\r\n\r\n    event Started(address sender,bytes reason);\r\n    event Stopped(address sender,bytes reason);\r\n\r\n    function start()\r\n        internal\r\n    {\r\n        running = true;\r\n        emit Started(msg.sender,msg.data);\r\n    }\r\n\r\n    function stop()\r\n        internal\r\n    {\r\n        running = false;\r\n        emit Stopped(msg.sender,msg.data);\r\n    }\r\n\r\n    function status()\r\n        internal\r\n        view\r\n        returns (bool)\r\n    {\r\n        return running;\r\n    }\r\n\r\n    modifier isRunning() {\r\n        require(running, \"contract activity is frozen!\");\r\n        _;\r\n    }\r\n}",
  "sourcePath": "/Volumes/My Book/projects/pingleware-contracts/contracts/common/Frozen.sol",
  "compiler": {
    "name": "solc",
    "version": "0.8.18+commit.87f61d96.Emscripten.clang"
  },
  "schemaVersion": "3.4.12",
  "updatedAt": "2023-10-22T04:05:44.112Z",
  "devdoc": {
    "kind": "dev",
    "methods": {
      "renounceOwnership()": {
        "details": "Leaves the contract without owner. It will not be possible to call `onlyOwner` functions anymore. Can only be called by the current owner. NOTE: Renouncing ownership will leave the contract without an owner, thereby removing any functionality that is only available to the owner."
      },
      "transferOwnership(address)": {
        "details": "Transfers ownership of the contract to a new account (`newOwner`). Can only be called by the current owner."
      }
    },
    "version": 1
  },
  "userdoc": {
    "kind": "user",
    "methods": {},
    "version": 1
  }
}