{
  "contractName": "Frozen",
  "abi": [
    {
      "anonymous": false,
      "inputs": [
        {
          "indexed": false,
          "internalType": "address",
          "name": "sender",
          "type": "address"
        },
        {
          "indexed": false,
          "internalType": "address",
          "name": "recipient",
          "type": "address"
        }
      ],
      "name": "Destroyed",
      "type": "event"
    },
    {
      "anonymous": false,
      "inputs": [
        {
          "indexed": false,
          "internalType": "address",
          "name": "sender",
          "type": "address"
        },
        {
          "indexed": false,
          "internalType": "uint256",
          "name": "amount",
          "type": "uint256"
        }
      ],
      "name": "FallbackEvent",
      "type": "event"
    },
    {
      "anonymous": false,
      "inputs": [
        {
          "indexed": true,
          "internalType": "address",
          "name": "previousOwner",
          "type": "address"
        },
        {
          "indexed": true,
          "internalType": "address",
          "name": "newOwner",
          "type": "address"
        }
      ],
      "name": "OwnershipTransferred",
      "type": "event"
    },
    {
      "anonymous": false,
      "inputs": [
        {
          "indexed": false,
          "internalType": "address",
          "name": "sender",
          "type": "address"
        },
        {
          "indexed": false,
          "internalType": "uint256",
          "name": "amount",
          "type": "uint256"
        }
      ],
      "name": "ReceiveEvent",
      "type": "event"
    },
    {
      "anonymous": false,
      "inputs": [
        {
          "indexed": false,
          "internalType": "address",
          "name": "sender",
          "type": "address"
        },
        {
          "indexed": false,
          "internalType": "bytes",
          "name": "reason",
          "type": "bytes"
        }
      ],
      "name": "Started",
      "type": "event"
    },
    {
      "anonymous": false,
      "inputs": [
        {
          "indexed": false,
          "internalType": "address",
          "name": "sender",
          "type": "address"
        },
        {
          "indexed": false,
          "internalType": "bytes",
          "name": "reason",
          "type": "bytes"
        }
      ],
      "name": "Stopped",
      "type": "event"
    },
    {
      "anonymous": false,
      "inputs": [
        {
          "indexed": false,
          "internalType": "address",
          "name": "sender",
          "type": "address"
        },
        {
          "indexed": false,
          "internalType": "string",
          "name": "reason",
          "type": "string"
        }
      ],
      "name": "Termination",
      "type": "event"
    },
    {
      "stateMutability": "payable",
      "type": "fallback"
    },
    {
      "inputs": [],
      "name": "WAIT",
      "outputs": [
        {
          "internalType": "uint256",
          "name": "",
          "type": "uint256"
        }
      ],
      "stateMutability": "view",
      "type": "function"
    },
    {
      "inputs": [],
      "name": "destroy",
      "outputs": [],
      "stateMutability": "nonpayable",
      "type": "function"
    },
    {
      "inputs": [
        {
          "internalType": "address",
          "name": "_recipient",
          "type": "address"
        }
      ],
      "name": "destroyAndSend",
      "outputs": [],
      "stateMutability": "nonpayable",
      "type": "function"
    },
    {
      "inputs": [],
      "name": "getOwner",
      "outputs": [
        {
          "internalType": "address",
          "name": "",
          "type": "address"
        }
      ],
      "stateMutability": "payable",
      "type": "function"
    },
    {
      "inputs": [],
      "name": "renounceOwnership",
      "outputs": [],
      "stateMutability": "payable",
      "type": "function"
    },
    {
      "inputs": [
        {
          "internalType": "address",
          "name": "newOwner",
          "type": "address"
        }
      ],
      "name": "transferOwnership",
      "outputs": [],
      "stateMutability": "payable",
      "type": "function"
    },
    {
      "stateMutability": "payable",
      "type": "receive"
    }
  ],
  "bytecode": "0x6080806040523461005d5760008054600160a060020a03191633908117825542600155907f8be0079c531659141344cd1fd0a4f28419497f9722a3daafe3b4186f6b6457e08180a360ff19600354166003556104e390816100638239f35b600080fdfe60406080815260043610156100c4575b361561009557333203610050577f26875833861a2b006512a11f1b86edf95df96131040f3caeed72989ee985808390518061004b343383610406565b0390a1005b5160e560020a62461bcd0281526020600482015260196024820152603860020a787068697368696e672061747461636b2064657465637465643f026044820152606490fd5b7fcc85d09d309785db93d6df19917f2e6cc07fe27cd01c08c8279145deb5cf452690518061004b343383610406565b600060e060020a81350463715018a681146102c157806383197ef014610273578063893d20e81461024a578063b8fb3a511461022e578063f2fde38b146101755763f5074f4114610115575061000f565b903461017157602036600319011261017157600160a060020a03600435818116810361016d5760008051602061046e8339815191529261015c610167938654163314610309565b519182913383610358565b0390a180f35b8380fd5b5080fd5b5090602036600319011261017157600160a060020a03600435818116929083900361016d578354918216906101ab823314610421565b83156101d65750829060008051602061048e8339815191528580a3600160a060020a03191617815580f35b5160e560020a62461bcd02815260206004820152602660248201527f4f776e61626c653a206e6577206f776e657220697320746865207a65726f2061604482015260d060020a65646472657373026064820152608490fd5b50903461017157816003193601126101715760209051601e8152f35b509081600319360112610171576020906102626103b7565b9051600160a060020a039091168152f35b50903461017157816003193601126101715761016760008051602061046e833981519152916102ad600160a060020a038554163314610309565b6102b56103b7565b90519182913383610358565b508060031936011261030657805481600160a060020a0382166102e5338214610421565b60008051602061048e8339815191528280a3600160a060020a031916815580f35b80fd5b1561031057565b60405160e560020a62461bcd02815260206004820152601b60248201527f756e617574686f72697a65642c206e6f7420746865206f776e657200000000006044820152606490fd5b600160a060020a0391821681529116602082015260400190565b1561037957565b60405160e560020a62461bcd0281526020600482015260106024820152608160020a6f3930ba32903634b6b4ba1032b93937b9026044820152606490fd5b600154601e81018091116103ec576103d99042116103d481610372565b610372565b42600155600054600160a060020a031690565b60e060020a634e487b710260009081526011600452602490fd5b600160a060020a039091168152602081019190915260400190565b1561042857565b60405160e560020a62461bcd0281526020600482015260176024820152604960020a7630b1b1b2b9b9903232b734b2b2103337b91037bbb732b9026044820152606490fdfe91ca00fdf29069527d658f8dfc6d1c0bf9861780bb45ff36436f938d3595a8d68be0079c531659141344cd1fd0a4f28419497f9722a3daafe3b4186f6b6457e0a264697066735822122018d1753be36f375a72489259f6e45bc4eba482878df076e62d616097756a969c64736f6c63430008120033",
  "immutableReferences": {},
  "source": "// SPDX-License-Identifier: CC-BY-4.0\r\npragma solidity >=0.4.22 <0.9.0;\r\n\r\n/**\r\n * Add a freeze or stop when an exception is raised?\r\n *\r\n */\r\nimport \"./Destructible.sol\";\r\n\r\ncontract Frozen is Destructible {\r\n    bool private running = false;\r\n\r\n    event Started(address sender,bytes reason);\r\n    event Stopped(address sender,bytes reason);\r\n\r\n    function start()\r\n        internal\r\n    {\r\n        running = true;\r\n        emit Started(msg.sender,msg.data);\r\n    }\r\n\r\n    function stop()\r\n        internal\r\n    {\r\n        running = false;\r\n        emit Stopped(msg.sender,msg.data);\r\n    }\r\n\r\n    function status()\r\n        internal\r\n        view\r\n        returns (bool)\r\n    {\r\n        return running;\r\n    }\r\n\r\n    modifier isRunning() {\r\n        require(running, \"contract activity is frozen!\");\r\n        _;\r\n    }\r\n}",
  "sourcePath": "/Volumes/HOME/pingleware-contracts/contracts/common/Frozen.sol",
  "compiler": {
    "name": "solc",
    "version": "0.8.18+commit.87f61d96.Emscripten.clang"
  },
  "schemaVersion": "3.4.12",
  "updatedAt": "2024-05-23T18:56:24.956Z",
  "devdoc": {
    "kind": "dev",
    "methods": {
      "renounceOwnership()": {
        "details": "Leaves the contract without owner. It will not be possible to call `onlyOwner` functions anymore. Can only be called by the current owner. NOTE: Renouncing ownership will leave the contract without an owner, thereby removing any functionality that is only available to the owner."
      },
      "transferOwnership(address)": {
        "details": "Transfers ownership of the contract to a new account (`newOwner`). Can only be called by the current owner."
      }
    },
    "version": 1
  },
  "userdoc": {
    "kind": "user",
    "methods": {},
    "version": 1
  }
}