{
  "contractName": "Frozen",
  "abi": [
    {
      "inputs": [],
      "stateMutability": "nonpayable",
      "type": "constructor"
    },
    {
      "inputs": [],
      "name": "start",
      "outputs": [],
      "stateMutability": "nonpayable",
      "type": "function"
    },
    {
      "inputs": [],
      "name": "stop",
      "outputs": [],
      "stateMutability": "nonpayable",
      "type": "function"
    }
  ],
  "bytecode": "0x60806040526000805460ff19169055348015601957600080fd5b506000805460ff1916905560aa806100326000396000f3fe6080604052348015600f57600080fd5b5060043610604e577c0100000000000000000000000000000000000000000000000000000000600035046307da68f581146053578063be9a6555146063575b600080fd5b60616000805460ff19169055565b005b60616000805460ff1916600117905556fea2646970667358221220045548caeb66678914230565d159e6fd88001990c2868ff83922a36b8eabf25464736f6c634300080a0033",
  "immutableReferences": {},
  "source": "// SPDX-License-Identifier: CC-BY-4.0\r\npragma solidity >=0.4.22 <0.9.0;\r\n\r\n/**\r\n * Add a freeze or stop when an exception is raised?\r\n *\r\n */\r\n\r\ncontract Frozen {\r\n    bool private running = false;\r\n\r\n    constructor() {\r\n        running = false;\r\n    }\r\n\r\n    function start()\r\n        external\r\n    {\r\n        running = true;\r\n    }\r\n\r\n    function stop()\r\n        external\r\n    {\r\n        running = false;\r\n    }\r\n\r\n    modifier isRunning() {\r\n        require(running, \"contract activity is frozen!\");\r\n        _;\r\n    }\r\n}",
  "sourcePath": "G:\\projects\\pingleware-contracts\\contracts\\Frozen.sol",
  "compiler": {
    "name": "solc",
    "version": "0.8.10+commit.fc410830.Emscripten.clang"
  },
  "schemaVersion": "3.4.3",
  "updatedAt": "2021-12-24T21:06:03.421Z",
  "devdoc": {
    "kind": "dev",
    "methods": {},
    "version": 1
  },
  "userdoc": {
    "kind": "user",
    "methods": {},
    "notice": "Add a freeze or stop when an exception is raised?",
    "version": 1
  }
}