{
  "contractName": "GovernanceDAO",
  "abi": [
    {
      "inputs": [
        {
          "internalType": "string",
          "name": "_name",
          "type": "string"
        }
      ],
      "stateMutability": "nonpayable",
      "type": "constructor"
    },
    {
      "anonymous": false,
      "inputs": [
        {
          "indexed": false,
          "internalType": "address",
          "name": "governanceContract",
          "type": "address"
        },
        {
          "indexed": false,
          "internalType": "uint256",
          "name": "proposalId",
          "type": "uint256"
        }
      ],
      "name": "GovernanceContractAvailable",
      "type": "event"
    },
    {
      "anonymous": false,
      "inputs": [
        {
          "indexed": false,
          "internalType": "address",
          "name": "member",
          "type": "address"
        }
      ],
      "name": "MemberAdded",
      "type": "event"
    },
    {
      "anonymous": false,
      "inputs": [
        {
          "indexed": false,
          "internalType": "address",
          "name": "member",
          "type": "address"
        }
      ],
      "name": "MemberRemoved",
      "type": "event"
    },
    {
      "anonymous": false,
      "inputs": [
        {
          "indexed": false,
          "internalType": "uint256",
          "name": "oldFee",
          "type": "uint256"
        },
        {
          "indexed": false,
          "internalType": "uint256",
          "name": "newFee",
          "type": "uint256"
        },
        {
          "indexed": false,
          "internalType": "string",
          "name": "comments",
          "type": "string"
        }
      ],
      "name": "MembershipFeeChanged",
      "type": "event"
    },
    {
      "anonymous": false,
      "inputs": [
        {
          "indexed": false,
          "internalType": "uint256",
          "name": "proposalId",
          "type": "uint256"
        },
        {
          "indexed": false,
          "internalType": "string",
          "name": "description",
          "type": "string"
        }
      ],
      "name": "ProposalCreated",
      "type": "event"
    },
    {
      "anonymous": false,
      "inputs": [
        {
          "indexed": true,
          "internalType": "uint256",
          "name": "proposalId",
          "type": "uint256"
        },
        {
          "indexed": false,
          "internalType": "string",
          "name": "reason",
          "type": "string"
        }
      ],
      "name": "ProposalDeleted",
      "type": "event"
    },
    {
      "anonymous": false,
      "inputs": [
        {
          "indexed": false,
          "internalType": "uint256",
          "name": "proposalId",
          "type": "uint256"
        }
      ],
      "name": "ProposalExecuted",
      "type": "event"
    },
    {
      "anonymous": false,
      "inputs": [
        {
          "indexed": false,
          "internalType": "uint256",
          "name": "oldFee",
          "type": "uint256"
        },
        {
          "indexed": false,
          "internalType": "uint256",
          "name": "newFee",
          "type": "uint256"
        },
        {
          "indexed": false,
          "internalType": "string",
          "name": "comments",
          "type": "string"
        }
      ],
      "name": "PublicProposalFeeChange",
      "type": "event"
    },
    {
      "anonymous": false,
      "inputs": [
        {
          "indexed": false,
          "internalType": "uint256",
          "name": "proposalId",
          "type": "uint256"
        },
        {
          "indexed": false,
          "internalType": "address",
          "name": "voter",
          "type": "address"
        },
        {
          "indexed": false,
          "internalType": "bool",
          "name": "support",
          "type": "bool"
        }
      ],
      "name": "Voted",
      "type": "event"
    },
    {
      "inputs": [
        {
          "internalType": "address",
          "name": "",
          "type": "address"
        }
      ],
      "name": "memberShares",
      "outputs": [
        {
          "internalType": "uint256",
          "name": "",
          "type": "uint256"
        }
      ],
      "stateMutability": "view",
      "type": "function"
    },
    {
      "inputs": [],
      "name": "membershipFee",
      "outputs": [
        {
          "internalType": "uint256",
          "name": "",
          "type": "uint256"
        }
      ],
      "stateMutability": "view",
      "type": "function"
    },
    {
      "inputs": [],
      "name": "name",
      "outputs": [
        {
          "internalType": "string",
          "name": "",
          "type": "string"
        }
      ],
      "stateMutability": "view",
      "type": "function"
    },
    {
      "inputs": [],
      "name": "owner",
      "outputs": [
        {
          "internalType": "address",
          "name": "",
          "type": "address"
        }
      ],
      "stateMutability": "view",
      "type": "function"
    },
    {
      "inputs": [
        {
          "internalType": "uint256",
          "name": "",
          "type": "uint256"
        }
      ],
      "name": "proposals",
      "outputs": [
        {
          "internalType": "uint256",
          "name": "id",
          "type": "uint256"
        },
        {
          "internalType": "address",
          "name": "creator",
          "type": "address"
        },
        {
          "internalType": "string",
          "name": "description",
          "type": "string"
        },
        {
          "internalType": "uint256",
          "name": "forVotes",
          "type": "uint256"
        },
        {
          "internalType": "uint256",
          "name": "againstVotes",
          "type": "uint256"
        },
        {
          "internalType": "bool",
          "name": "executed",
          "type": "bool"
        },
        {
          "internalType": "address",
          "name": "actions",
          "type": "address"
        },
        {
          "internalType": "uint256",
          "name": "deadline",
          "type": "uint256"
        }
      ],
      "stateMutability": "view",
      "type": "function"
    },
    {
      "inputs": [],
      "name": "publicProposalFee",
      "outputs": [
        {
          "internalType": "uint256",
          "name": "",
          "type": "uint256"
        }
      ],
      "stateMutability": "view",
      "type": "function"
    },
    {
      "inputs": [],
      "name": "totalMembers",
      "outputs": [
        {
          "internalType": "uint256",
          "name": "",
          "type": "uint256"
        }
      ],
      "stateMutability": "view",
      "type": "function"
    },
    {
      "inputs": [],
      "name": "totalProposals",
      "outputs": [
        {
          "internalType": "uint256",
          "name": "",
          "type": "uint256"
        }
      ],
      "stateMutability": "view",
      "type": "function"
    },
    {
      "inputs": [],
      "name": "totalShares",
      "outputs": [
        {
          "internalType": "uint256",
          "name": "",
          "type": "uint256"
        }
      ],
      "stateMutability": "view",
      "type": "function"
    },
    {
      "inputs": [
        {
          "internalType": "uint256",
          "name": "",
          "type": "uint256"
        }
      ],
      "name": "voters",
      "outputs": [
        {
          "internalType": "address",
          "name": "",
          "type": "address"
        }
      ],
      "stateMutability": "view",
      "type": "function"
    },
    {
      "inputs": [
        {
          "internalType": "address",
          "name": "",
          "type": "address"
        }
      ],
      "name": "votingPower",
      "outputs": [
        {
          "internalType": "uint256",
          "name": "",
          "type": "uint256"
        }
      ],
      "stateMutability": "view",
      "type": "function"
    },
    {
      "stateMutability": "payable",
      "type": "receive"
    },
    {
      "inputs": [
        {
          "internalType": "address",
          "name": "recipient",
          "type": "address"
        },
        {
          "internalType": "uint256",
          "name": "amount",
          "type": "uint256"
        }
      ],
      "name": "withdraw",
      "outputs": [],
      "stateMutability": "nonpayable",
      "type": "function"
    },
    {
      "inputs": [
        {
          "internalType": "uint256",
          "name": "fee",
          "type": "uint256"
        },
        {
          "internalType": "string",
          "name": "comments",
          "type": "string"
        }
      ],
      "name": "changeMembershipFee",
      "outputs": [],
      "stateMutability": "nonpayable",
      "type": "function"
    },
    {
      "inputs": [
        {
          "internalType": "uint256",
          "name": "fee",
          "type": "uint256"
        },
        {
          "internalType": "string",
          "name": "comments",
          "type": "string"
        }
      ],
      "name": "changePublicProposalFee",
      "outputs": [],
      "stateMutability": "nonpayable",
      "type": "function"
    },
    {
      "inputs": [
        {
          "internalType": "address",
          "name": "member",
          "type": "address"
        }
      ],
      "name": "addMember",
      "outputs": [],
      "stateMutability": "nonpayable",
      "type": "function"
    },
    {
      "inputs": [
        {
          "internalType": "address",
          "name": "member",
          "type": "address"
        }
      ],
      "name": "removeMember",
      "outputs": [],
      "stateMutability": "nonpayable",
      "type": "function"
    },
    {
      "inputs": [
        {
          "internalType": "string",
          "name": "_description",
          "type": "string"
        },
        {
          "internalType": "uint256",
          "name": "_deadlineInDays",
          "type": "uint256"
        }
      ],
      "name": "createProposal",
      "outputs": [],
      "stateMutability": "nonpayable",
      "type": "function"
    },
    {
      "inputs": [
        {
          "internalType": "string",
          "name": "_description",
          "type": "string"
        }
      ],
      "name": "createPublicPropoal",
      "outputs": [],
      "stateMutability": "payable",
      "type": "function"
    },
    {
      "inputs": [
        {
          "internalType": "uint256",
          "name": "_proposalId",
          "type": "uint256"
        },
        {
          "internalType": "bool",
          "name": "_support",
          "type": "bool"
        }
      ],
      "name": "vote",
      "outputs": [],
      "stateMutability": "nonpayable",
      "type": "function"
    },
    {
      "inputs": [],
      "name": "requestToJoin",
      "outputs": [],
      "stateMutability": "payable",
      "type": "function"
    },
    {
      "inputs": [
        {
          "internalType": "uint256",
          "name": "_proposalId",
          "type": "uint256"
        },
        {
          "internalType": "address",
          "name": "_governanceActionsContract",
          "type": "address"
        }
      ],
      "name": "setGovernanceActionsContract",
      "outputs": [],
      "stateMutability": "nonpayable",
      "type": "function"
    },
    {
      "inputs": [
        {
          "internalType": "uint256",
          "name": "_proposalId",
          "type": "uint256"
        },
        {
          "internalType": "address",
          "name": "_governanceAddress",
          "type": "address"
        }
      ],
      "name": "notifyGovernanceContractAvailable",
      "outputs": [],
      "stateMutability": "nonpayable",
      "type": "function"
    },
    {
      "inputs": [
        {
          "internalType": "uint256",
          "name": "_proposalId",
          "type": "uint256"
        }
      ],
      "name": "executeProposal",
      "outputs": [],
      "stateMutability": "nonpayable",
      "type": "function"
    },
    {
      "inputs": [
        {
          "internalType": "uint256",
          "name": "_proposalId",
          "type": "uint256"
        },
        {
          "internalType": "string",
          "name": "_reason",
          "type": "string"
        }
      ],
      "name": "deleteProposal",
      "outputs": [],
      "stateMutability": "nonpayable",
      "type": "function"
    }
  ],
  "bytecode": "0x608060405234620003135762002249803803806200001d8162000318565b92833981019060208082840312620003135781516001604060020a039283821162000313570192601f9281848601121562000313578451818111620002cf57601f1995620000718287018816860162000318565b938285528583830101116200031357849060005b838110620002fe575050600091840101528151908111620002cf57600054946002928387049560018098168015620002c4575b8688101462000295578087116200024a575b83949596508692818511600114620001de575050600092620001d2575b505060088202830a600019041916908202176000555b33600160a060020a03198454161783556000815560006003556000600455655af3107a40006005556611c37937e08000600655336000526007825282604060002055600a825282604060002055805490838201809211620001a35755600354918201809211620001a3577fb251eb052afc73ffd02ffe85ad79990a8b3fed60d76dbc2fa2fdd7123dffd91491600355604051338152a1604051611f0a90816200033f8239f35b7f4e487b7100000000000000000000000000000000000000000000000000000000600052601160045260246000fd5b015190503880620000e7565b928895938795169260008052886000209360005b8a82821062000230575050851162000214575b505050500201600055620000fd565b0151908316600802840a60001904191690553880808062000205565b8385015187558c998b9950909601959384019301620001f2565b600080528560002086828601048101978786106200028a575b9087838b93010401975b8881106200027d575050620000ca565b600081550188906200026d565b909750879062000263565b7f4e487b7100000000000000000000000000000000000000000000000000000000600052602260045260246000fd5b96607f1696620000b8565b7f4e487b7100000000000000000000000000000000000000000000000000000000600052604160045260246000fd5b81810183015186820184015286920162000085565b600080fd5b6040519190601f01601f191682016001604060020a03811183821017620002cf5760405256fe608080604052600436101561001d575b50361561001b57600080fd5b005b60009060e060020a8235049063013cf08b82146118c85750806306fdde03146118045780630a293729146116f05780630b1ca49a1461161a5780630d61b5191461134457806311af9a86146112e75780632dacf53d1461108657806335facf7814610e485780633a98ef3914610e2a57806344f0336e14610ce75780635b5154bf14610aec5780636195cf9914610ace57806376e9255914610ab05780638da5cb5b14610a87578063a78d80fc14610a69578063c07473f614610a30578063c713a28914610a12578063c9d27afe146107c6578063ca6d56dc14610725578063d49e3f51146106b7578063d738c9c6146102e9578063da494954146102b0578063da58c7d9146102505763f3fef3a30361000f573461024d57604036600319011261024d5761014a611b45565b60015460243591600160a060020a03916101679083163314611b71565b1680156101f6573031156101ae5782808381949361018783953031611bd3565b508282156101a5575bf1156101995780f35b604051903d90823e3d90fd5b506108fc610190565b60405160e560020a62461bcd02815260206004820152601d60248201527f696e73756666696369656e7420636f6e74726163742062616c616e63650000006044820152606490fd5b60405160e560020a62461bcd02815260206004820152602360248201527f726563697069656e742063616e6e6f742062652061207a6165726f2061646472604482015260e860020a62657373026064820152608490fd5b80fd5b503461024d57602036600319011261024d576004356009548110156102ac5760099091527f6e1540171b6c0c960b71a7020d9f60077f6af931a8bbf590da0223dacf75c7af0154604051600160a060020a039091168152602090f35b5080fd5b503461024d57602036600319011261024d57602090604090600160a060020a036102d8611b45565b168152600783522054604051908152f35b508060031936011261024d573381526007602052604081205461067157600554801561065a576001043411156105925760045462278d0042018042116104ca5760405161033581611a39565b82815233602082019081526040805191936001604060020a03929182018381118382101761057857604052600f8252608960020a6e2922a8aaa2a9aa102a27902527a4a7026020830152604084019182528660608501528660808501528660a08501528660c085015260e084015284865260086020526040862093835185556001850190600160a060020a03905116600160a060020a0319825416179055518051918211610561576103f7826103ee60028701546119fa565b60028701611c83565b602090601f83116001146104ec5791806006949260e09489926104e1575b5050816002029160080260020a6000190419161760028501555b606081015160038501556080810151600485015561046e6005850161045a60a0840151151582611cd7565b60c0830151600160a060020a031690611ce8565b0151910155600454600181018091116104ca57600080516020611e958339815191529160809160045560405190815260406020820152600f6040820152608960020a6e2922a8aaa2a9aa102a27902527a4a7026060820152a180f35b60e060020a634e487b710283526011600452602483fd5b015190503880610415565b906002850187526020872091875b601f19851681106105495750836006959360019360029360e097601f1981161061052e575b5050500201600285015561042f565b01516008601f841602840a600019041916905538808061051f565b919260206001819286850151815501940192016104fa565b60e060020a634e487b710286526041600452602486fd5b60e060020a634e487b710260009081526041600452602490fd5b60405160e560020a62461bcd02815260206004820152608260248201527f6d75737420696e636c756465206d6f6e6965732077697468207468652072657160448201527f756573742e20436865636b206d656d6265727368697046656520666f7220637560648201527f7272656e742076616c75652e205573652068747470733a2f2f6574682d636f6e60848201527f7665727465722e636f6d2f20746f20636f6e766572742045544820746f20574560a482015260f160020a6124970260c482015260e490fd5b60e060020a634e487b710282526012600452602482fd5b60405160e560020a62461bcd0281526020600482015260186024820152604160020a773cb7ba9030b9329030b63932b0b23c90309036b2b6b132b9026044820152606490fd5b503461024d57604036600319011261024d577f6403a3d064bd2009472aa054c04a4c537aa93fdd8e3df35779647bed33e6c46460406106f4611b5b565b338452600760205261070a828520541515611c23565b8151600160a060020a0390911681526004356020820152a180f35b503461024d57602036600319011261024d5761073f611b45565b600154600160a060020a0391906107599083163314611b71565b16808252600760205260016040832055600a60205260016040832055600254600181018091116104ca57600255600354600181018091116104ca577fb251eb052afc73ffd02ffe85ad79990a8b3fed60d76dbc2fa2fdd7123dffd91491602091600355604051908152a180f35b503461024d57604036600319011261024d5760043560243580151590818103610a0e573384526020906007825261080260408620541515611c23565b338552600a82526040852054156109cc578385526008825261082e60ff60056040882001541615611d16565b838552600b82526040852033600052825260ff604060002054166109845783855260088252600660408620015442101561091957917ff2913dbe661ee2acc4a046d8fbcdc792373bda34c41c6086484b5345e5785e5f93916060936000146108ed57338652600a81526040862054838752600882526108b560036040892001918254611c16565b90555b828652600b8152604086203360005281526040600020600160ff1982541617905560405192835233908301526040820152a180f35b338652600a815260408620548387526008825261091260046040892001918254611c16565b90556108b8565b60405160e560020a62461bcd02815260048101839052603760248201527f50726f706f73616c20646561646c696e6520686173207061737365642e204e6f6044820152604960020a761036b7b932903b37ba34b733903832b936b4ba3a32b217026064820152608490fd5b60405160e560020a62461bcd02815260048101839052601e60248201527f416c726561647920766f746564206f6e20746869732070726f706f73616c00006044820152606490fd5b60405160e560020a62461bcd0281526004810183905260146024820152606060020a734e6f7420656c696769626c6520746f20766f7465026044820152606490fd5b8380fd5b503461024d578060031936011261024d576020600554604051908152f35b503461024d57602036600319011261024d57602090604090600160a060020a03610a58611b45565b168152600a83522054604051908152f35b503461024d578060031936011261024d576020600454604051908152f35b503461024d578060031936011261024d57600154604051600160a060020a039091168152602090f35b503461024d578060031936011261024d576020600354604051908152f35b503461024d578060031936011261024d576020600654604051908152f35b503461024d57610afb36611b13565b6001549091600160a060020a0391610b169083163314611b71565b6004549283821015610ca657818552600860205260ff600560408720015416610c5e577ff282cc3474235c7d19d0c05ddba4148cf5977034129776e8e9af60004912b4f7610b738392604051918291602083526020830190611a78565b0390a260001992808401908111610c475784526008602052604084209084526040842091818303610bcc575b505050600454908101908111610bb55760045580f35b60e060020a634e487b710282526011600452602482fd5b81610c3a6006939284935486556001860181600185015416600160a060020a0319825416179055610c036002840160028801611db1565b6003830154600387015560048301546004870155600586019061010060058501610c3160ff82541685611cd7565b54041690611ce8565b0154910155388080610b9f565b60e060020a634e487b710285526011600452602485fd5b60405160e560020a62461bcd02815260206004820152601f60248201527f43616e6e6f742064656c6574652065786563757465642070726f706f73616c006044820152606490fd5b60405160e560020a62461bcd0281526020600482015260136024820152606a60020a72125b9d985b1a59081c1c9bdc1bdcd85b081251026044820152606490fd5b503461024d57604036600319011261024d5760043590610d05611b5b565b82825260209260088452600160a060020a03610d2b816001604087200154163314611d64565b8184526008855260ff600560408620015416610dd4578184526008855261010060056040862001540416610d73578293600891610d7094525260056040842001611ce8565b80f35b60405160e560020a62461bcd02815260048101859052602d60248201527f676f7665726e616e636520616374696f6e20636f6e747261637420697320616c6044820152609a60020a6c1c9958591e481919599a5b9959026064820152608490fd5b60405160e560020a62461bcd02815260048101869052602260248201527f70726f706f73616c2068617320616c7265616479206265656e20657865637574604482015260f260020a611959026064820152608490fd5b503461024d578060031936011261024d576020600254604051908152f35b503461024d57604036600319011261024d576001604060020a03906004358281116102ac57610e7b903690600401611ab8565b602435923383526007602052610e9660408420541515611c23565b60045493620151809081810291818304149015171561106f57610eb99042611c16565b9060405190610ec782611a39565b858252602082019233845260408301908582528660608501528660808501528660a08501528660c085015260e084015286865260086020526040862093835185556001850190600160a060020a03905116600160a060020a031982541617905551805191821161056157610f42826103ee60028701546119fa565b602090601f8311600114610ffa5791806006949260e0948992610fef575b5050816002029160080260020a6000190419161760028501555b6060810151600385015560808101516004850155610fa56005850161045a60a0840151151582611cd7565b015191015560045492600184018094116104ca57600080516020611e958339815191529293600455610fe96040519283928352604060208401526040830190611a78565b0390a180f35b015190503880610f60565b906002850187526020872091875b601f19851681106110575750836006959360019360029360e097601f1981161061103c575b50505002016002850155610f7a565b01516008601f841602840a600019041916905538808061102d565b91926020600181928685015181550194019201611008565b60e060020a634e487b710284526011600452602484fd5b50602036600319011261024d576001604060020a03906004358281116102ac576110b4903690600401611ab8565b600654341061121c576004549262278d00420180421161106f57600160a060020a036001541691604051916110e883611a39565b8683526020830193845260408301908582528660608501528660808501528660a08501528660c085015260e084015286865260086020526040862093835185556001850190600160a060020a03905116600160a060020a031982541617905551805191821161056157611162826103ee60028701546119fa565b602090601f83116001146111c35791806006949260e0948992610fef575050816002029160080260020a6000190419161760028501556060810151600385015560808101516004850155610fa56005850161045a60a0840151151582611cd7565b906002850187526020872091875b601f19851681106112045750836006959360019360029360e097601f1981161061103c5750505002016002850155610f7a565b919260206001819286850151815501940192016111d1565b60405160e560020a62461bcd028152602060048201526084602482018190527f6d75737420696e636c756465203530303030303030303030303030303020776560448301527f69206f7220302e303035206574686572202861626f757420243132292077697460648301527f682074686520726571756573742e205573652068747470733a2f2f6574682d63908201527f6f6e7665727465722e636f6d2f20746f20636f6e766572742045544820746f2060a482015260e160020a632ba2a4970260c482015260e490fd5b503461024d577f212428fa9e60e2a976f6a1ba5daba11b5e7c8d8362884f8b846bd0ad2bc5e7de61131736611b13565b61132d600160a060020a03600154163314611b71565b610fe9600654918360065560405193849384611bfa565b503461024d576020806003193601126102ac5760043590818352600891828252600160a060020a03611380816001604088200154163314611d64565b818552838352604085206004600382015491015410156115c1578185528383526113b460ff60056040882001541615611d16565b81855283835260066040862001544210611579578185528383526101008181600560408920015404161561151c578286528484526113ff604087206004600382015491015490611c16565b60026009540410156114c55790859183835285855260056040842001540416803b156102ac5760405160e860020a62805f0f02815291908290600490829084905af180156114ba5761147e575b50600080516020611eb583398151915292818552825260056040852001600160ff19825416179055604051908152a180f35b6001604060020a0381116114a357604052600080516020611eb583398151915261144c565b60e060020a634e487b710285526041600452602485fd5b6040513d87823e3d90fd5b60405160e560020a62461bcd02815260048101859052602360248201527f4c657373207468616e20353025206f66206d656d62657273206861766520766f604482015260ea60020a621d1959026064820152608490fd5b60405160e560020a62461bcd02815260048101859052602960248201527f676f7665726e616e636520616374696f6e20636f6e7472616374206973206e6f604482015260ba60020a681d081919599a5b9959026064820152608490fd5b60405160e560020a62461bcd02815260048101849052602481018490527f50726f706f73616c20646561646c696e6520686173206e6f74207061737365646044820152606490fd5b60405160e560020a62461bcd02815260048101849052602560248201527f50726f706f73616c20646f6573206e6f74206861766520656e6f756768207375604482015260da60020a641c1c1bdc9d026064820152608490fd5b503461024d57602036600319011261024d57611634611b45565b600154600160a060020a039081169161164e338414611b71565b169081146116ab576020817f6e76fb4c77256006d9c38ec7d82b45a8c8f3c27b1d6766fffc42dfb8de684492928452600782526116916040852054600254611bd3565b60025580845260078252836040812055604051908152a180f35b60405160e560020a62461bcd0281526020600482015260176024820152604a60020a761bdddb995c8818d85b9b9bdd081899481c995b5bdd9959026044820152606490fd5b503461024d576116ff36611b13565b90611716600160a060020a03600154163314611b71565b60055480821061175557610fe97f59140032968e06a5cf5d2266b9bdc4770d056194732217c15cca523191210b70938360055560405193849384611bfa565b60405160e560020a62461bcd02815260206004820152606f60248201527f666565206d757374206265206174206c6561737420313030303030303030303060448201527f3030303020576569206f7220302e303030312065746865722e2055736520687460648201527f7470733a2f2f6574682d636f6e7665727465722e636f6d2f20746f20636f6e766084820152608960020a6e32b93a1022aa24103a37902ba2a4970260a482015260c490fd5b503461024d578060031936011261024d57604051818054611824816119fa565b808452906001908181169081156118a15750600114611866575b6118628461184e81880382611a55565b604051918291602083526020830190611a78565b0390f35b93508180526020938483205b82841061188e57505050816118629361184e928201019361183e565b8054858501870152928501928101611872565b611862965061184e9450602092508593915060ff191682840152151581028201019361183e565b9050346102ac576020918260031936011261024d576004358152600883526040812090815492600160a060020a0390858160019484868801541695600288019082825492611915846119fa565b808752938381169081156119d65750600114611999575b5050505061193c92500382611a55565b600384015493600481015460066005830154920154946040519889988952880152611973610100938460408a015284890190611a78565b956060880152608087015260ff8116151560a0870152041660c084015260e08301520390f35b815285812095935091905b8183106119be57508a94505082010161193c38808061192c565b855487840185015294850194869450918301916119a4565b935050505061193c94925060ff19168284015215158102820101889238808061192c565b9060016002830492168015611a2f575b6020831014611a1557565b60e060020a634e487b710260009081526022600452602490fd5b91607f1691611a0a565b61010081019081106001604060020a0382111761057857604052565b601f909101601f19168101906001604060020a0382119082101761057857604052565b919082519283825260005b848110611aa4575050826000602080949584010152601f8019910116010190565b602081830181015184830182015201611a83565b81601f82011215611b0e578035906001604060020a0382116105785760405192611aec601f8401601f191660200185611a55565b82845260208383010111611b0e57816000926020809301838601378301015290565b600080fd5b906040600319830112611b0e5760043591602435906001604060020a038211611b0e57611b4291600401611ab8565b90565b60043590600160a060020a0382168203611b0e57565b60243590600160a060020a0382168203611b0e57565b15611b7857565b60405160e560020a62461bcd02815260206004820152602760248201527f4f6e6c7920746865206f776e65722063616e20706572666f726d207468697320604482015260c960020a6630b1ba34b7b717026064820152608490fd5b91908203918211611be057565b60e060020a634e487b710260009081526011600452602490fd5b611b429392606092825260208201528160408201520190611a78565b91908201809211611be057565b15611c2a57565b60405160e560020a62461bcd02815260206004820152602560248201527f4f6e6c79206d656d626572732063616e20706572666f726d2074686973206163604482015260d960020a643a34b7b717026064820152608490fd5b90601f8111611c9157505050565b60009182526020822090602080601f86010483019410611ccd575b601f602091010401915b828110611cc257505050565b818155600101611cb6565b9092508290611cac565b9060ff801983541691151516179055565b805461010060a860020a031916600160a060020a039092166101000261010060a860020a0316919091179055565b15611d1d57565b60405160e560020a62461bcd0281526020600482015260196024820152603a60020a78141c9bdc1bdcd85b08185b1c9958591e48195e1958dd5d1959026044820152606490fd5b15611d6b57565b60405160e560020a62461bcd0281526020600482015260186024820152604160020a773737ba103a343290383937b837b9b0b61031b932b0ba37b9026044820152606490fd5b90808214611e9057611dc381546119fa565b906001604060020a038211610578578190611de882611de286546119fa565b86611c83565b600090601f8311600114611e2157600092611e16575b5050816002029160080260020a600019041916179055565b015490503880611dfe565b81526020808220858352818320935090601f1985169083905b828210611e775750509160029391856001969410611e5c575b50505002019055565b01546008601f841602840a6000190419169055388080611e53565b8495819295850154815560018091019601940190611e3a565b505056fe9c770c289ab5bf7e57cb1d23c8ceae993aea46eb64847072fd3d78ca60d3e432712ae1383f79ac853f8d882153778e0260ef8f03b504e2866e0593e04d2b291fa264697066735822122007f57a4901092484c70f3cfa6bc9de5070049fa88f1fe65af3c69bb1541c368564736f6c63430008120033",
  "immutableReferences": {},
  "source": "// SPDX-License-Identifier: CC-BY-4.0\npragma solidity >=0.4.22 <0.9.0;\n\n// Interface for the Governance Actions\ninterface IGovernanceActions {\n    event ActionExecuted(address sender);\n    function executeAction() external;\n}\n\ncontract DefaultGovernance is IGovernanceActions {\n    function executeAction() external {\n        emit ActionExecuted(msg.sender);\n    }\n}\n\ncontract GovernanceDAO {\n    string public name;\n    address public owner;\n    uint256 public totalShares;\n    uint256 public totalMembers;\n    uint256 public totalProposals;\n    uint256 public membershipFee;\n    uint256 public publicProposalFee;\n    mapping(address => uint256) public memberShares;\n\n    // Structure for a proposal\n    struct Proposal {\n        uint256 id;\n        address creator;\n        string description;\n        uint256 forVotes;\n        uint256 againstVotes;\n        bool executed;\n        address actions;\n        uint256 deadline;  // New field for proposal deadline\n    }\n\n    // Mapping of proposal ID to Proposal\n    mapping(uint256 => Proposal) public proposals;\n\n    // List of eligible voters (addresses)\n    address[] public voters;\n\n    // Mapping of voter address to their voting power\n    mapping(address => uint256) public votingPower;\n    // Mapping to track whether a member has voted on a specific proposal\n    mapping(uint256 => mapping(address => bool)) private hasVoted;\n\n    // Events\n    event MemberAdded(address member);\n    event MemberRemoved(address member);\n    event ProposalCreated(uint256 proposalId, string description);\n    event Voted(uint256 proposalId, address voter, bool support);\n    event ProposalExecuted(uint256 proposalId);\n    event GovernanceContractAvailable(address governanceContract, uint256 proposalId);\n    event MembershipFeeChanged(uint256 oldFee,uint256 newFee,string comments);\n    event ProposalDeleted(uint256 indexed proposalId, string reason);\n    event PublicProposalFeeChange(uint256 oldFee,uint256 newFee,string comments);\n\n\n    constructor(string memory _name) {\n        name = _name;\n        owner = msg.sender;\n        totalShares = 0;\n        totalMembers = 0;\n        totalProposals = 0;\n        membershipFee = 100000000000000; // onvert to 0.0001\n        publicProposalFee = 5000000000000000;\n        addMember(owner);\n    }\n\n    modifier onlyOwner() {\n        require(msg.sender == owner, \"Only the owner can perform this action.\");\n        _;\n    }\n\n    modifier onlyMember() {\n        require(memberShares[msg.sender] > 0, \"Only members can perform this action.\");\n        _;\n    }\n\n    modifier onlyCreator(uint256 _proposalId) {\n        require(proposals[_proposalId].creator == msg.sender,\"not the proposal creator\");\n        _;\n    }\n\n    receive() external payable {}\n\n    function withdraw(address recipient, uint256 amount) public onlyOwner {\n        require(recipient != address(0x0),\"recipient cannot be a zaero address\");\n        require(address(this).balance > 0, \"insufficient contract balance\");\n        require(address(this).balance - amount >= 0,\"too much withdrawal request\");\n        payable(recipient).transfer(amount);\n    }\n\n\n    function changeMembershipFee(uint256 fee,string memory comments) public onlyOwner {\n        // 100000000000000 WEI = 0.0001 ETHER\n        require(fee >= membershipFee,\"fee must be at least 100000000000000 Wei or 0.0001 ether. Use https://eth-converter.com/ to convert ETH to WEI.\");\n        uint256 oldFee = membershipFee;\n        membershipFee = fee;\n        emit MembershipFeeChanged(oldFee,membershipFee,comments);\n    }\n\n    function changePublicProposalFee(uint256 fee,string memory comments) public onlyOwner {\n        uint256 oldFee = publicProposalFee;\n        publicProposalFee = fee;\n        emit PublicProposalFeeChange(oldFee,publicProposalFee,comments);\n    }\n\n    function addMember(address member) public onlyOwner {\n        memberShares[member] = 1;\n        votingPower[member] = 1;\n        totalShares += 1;\n        totalMembers += 1;\n        emit MemberAdded(member);\n    }\n\n    function removeMember(address member) public onlyOwner {\n        require(member != owner,\"owner cannot be removed\");\n        totalShares -= memberShares[member];\n        memberShares[member] = 0;\n        emit MemberRemoved(member);\n    }\n\n    // Functions for proposal creation, voting, and execution\n    function createProposal(string memory _description, uint256 _deadlineInDays) external onlyMember {\n        uint256 proposalId = totalProposals;\n        uint256 deadline = block.timestamp + (_deadlineInDays * 1 days);\n        proposals[proposalId] = Proposal({\n            id: proposalId,\n            creator: msg.sender,\n            description: _description,\n            forVotes: 0,\n            againstVotes: 0,\n            executed: false,\n            actions: address(0x0),\n            deadline: deadline  // Set the deadline as an absolute timestamp\n        });\n\n        totalProposals = totalProposals + 1;\n\n        emit ProposalCreated(proposalId, _description);\n    }\n\n    function createPublicPropoal(string memory _description) external payable {\n        require(msg.value >= publicProposalFee, \"must include 5000000000000000 wei or 0.005 ether (about $12) with the request. Use https://eth-converter.com/ to convert ETH to WEI.\");\n        uint256 proposalId = totalProposals;\n        uint256 deadline = block.timestamp + (30 days);\n        proposals[proposalId] = Proposal({\n            id: proposalId,\n            creator: owner,\n            description: _description,\n            forVotes: 0,\n            againstVotes: 0,\n            executed: false,\n            actions: address(0x0),\n            deadline: deadline  // Set the deadline as an absolute timestamp\n        });\n\n        totalProposals = totalProposals + 1;\n\n        emit ProposalCreated(proposalId, _description);\n    }\n\n    function vote(uint256 _proposalId, bool _support) external onlyMember {\n        require(votingPower[msg.sender] > 0, \"Not eligible to vote\");\n        require(!proposals[_proposalId].executed, \"Proposal already executed\");\n        require(!hasVoted[_proposalId][msg.sender], \"Already voted on this proposal\");\n        require(\n            block.timestamp < proposals[_proposalId].deadline,\n            \"Proposal deadline has passed. No more voting permitted.\"\n        );\n\n        if (_support) {\n            proposals[_proposalId].forVotes += votingPower[msg.sender];\n        } else {\n            proposals[_proposalId].againstVotes += votingPower[msg.sender];\n        }\n\n        // Mark the member as voted for this proposal\n        hasVoted[_proposalId][msg.sender] = true;\n\n        emit Voted(_proposalId, msg.sender, _support);\n    }\n\n    function requestToJoin() external payable {\n        require(memberShares[msg.sender] == 0,\"you are already a member\");\n        require(msg.value > (1/membershipFee), \"must include monies with the request. Check membershipFee for current value. Use https://eth-converter.com/ to convert ETH to WEI.\");\n\n        uint256 proposalId = totalProposals;\n        uint256 deadline = block.timestamp + (30 days);\n        proposals[proposalId] = Proposal({\n            id: proposalId,\n            creator: msg.sender,\n            description: \"REQUEST TO JOIN\",\n            forVotes: 0,\n            againstVotes: 0,\n            executed: false,\n            actions: address(0x0),\n            deadline: deadline\n        });\n\n        totalProposals = totalProposals + 1;\n\n        emit ProposalCreated(proposalId, \"REQUEST TO JOIN\");\n    }\n\n    function setGovernanceActionsContract(uint256 _proposalId, address _governanceActionsContract) external onlyCreator(_proposalId) {\n        require(proposals[_proposalId].executed == false,\"proposal has already been executed\");\n        require(proposals[_proposalId].actions == address(0x0),\"governance action contract is already defined\");\n        // Set the contract address for governance actions\n        proposals[_proposalId].actions = _governanceActionsContract;\n    }\n\n    function notifyGovernanceContractAvailable(uint256 _proposalId, address _governanceAddress) external onlyMember {\n        emit GovernanceContractAvailable(_governanceAddress, _proposalId);\n    }\n\n    function executeProposal(uint256 _proposalId) external onlyCreator(_proposalId) {\n        require(\n            proposals[_proposalId].forVotes > proposals[_proposalId].againstVotes,\n            \"Proposal does not have enough support\"\n        );\n        require(!proposals[_proposalId].executed, \"Proposal already executed\");\n        require(\n            block.timestamp >= proposals[_proposalId].deadline,\n            \"Proposal deadline has not passed\"\n        );\n        require(proposals[_proposalId].actions != address(0x0),\"governance action contract is not defined\");\n\n        // Check if more than 50% of eligible members have voted\n        require(\n            (proposals[_proposalId].forVotes + proposals[_proposalId].againstVotes) >\n            (voters.length / 2),\n            \"Less than 50% of members have voted\"\n        );\n\n        // Invoke the governance action from the external contract\n        IGovernanceActions governanceActionsContract = IGovernanceActions(proposals[_proposalId].actions);\n        governanceActionsContract.executeAction();\n\n        proposals[_proposalId].executed = true;\n\n        emit ProposalExecuted(_proposalId);\n    }\n\n    function deleteProposal(uint256 _proposalId, string memory _reason) external onlyOwner {\n        require(_proposalId < totalProposals, \"Invalid proposal ID\");\n\n        // Ensure the proposal has not been executed before deletion\n        require(!proposals[_proposalId].executed, \"Cannot delete executed proposal\");\n\n        // Emit the ProposalDeleted event with the reason\n        emit ProposalDeleted(_proposalId, _reason);\n\n        // Delete the proposal by overwriting it with the last proposal in the array\n        proposals[_proposalId] = proposals[totalProposals - 1];\n        totalProposals = totalProposals - 1;\n    }\n}\n",
  "sourcePath": "/Volumes/HOME/pingleware-contracts/contracts/finance/dao/GovernmentDAO.sol",
  "compiler": {
    "name": "solc",
    "version": "0.8.18+commit.87f61d96.Emscripten.clang"
  },
  "schemaVersion": "3.4.12",
  "updatedAt": "2024-05-23T18:56:25.574Z",
  "devdoc": {
    "kind": "dev",
    "methods": {},
    "version": 1
  },
  "userdoc": {
    "kind": "user",
    "methods": {},
    "version": 1
  }
}