{
  "contractName": "HealthCare",
  "abi": [
    {
      "inputs": [
        {
          "internalType": "address",
          "name": "_labAdmin",
          "type": "address"
        }
      ],
      "stateMutability": "nonpayable",
      "type": "constructor"
    },
    {
      "anonymous": false,
      "inputs": [
        {
          "indexed": false,
          "internalType": "address",
          "name": "sender",
          "type": "address"
        },
        {
          "indexed": false,
          "internalType": "address",
          "name": "recipient",
          "type": "address"
        }
      ],
      "name": "Destroyed",
      "type": "event"
    },
    {
      "anonymous": false,
      "inputs": [
        {
          "indexed": false,
          "internalType": "address",
          "name": "sender",
          "type": "address"
        },
        {
          "indexed": false,
          "internalType": "uint256",
          "name": "amount",
          "type": "uint256"
        }
      ],
      "name": "FallbackEvent",
      "type": "event"
    },
    {
      "anonymous": false,
      "inputs": [
        {
          "indexed": true,
          "internalType": "address",
          "name": "previousOwner",
          "type": "address"
        },
        {
          "indexed": true,
          "internalType": "address",
          "name": "newOwner",
          "type": "address"
        }
      ],
      "name": "OwnershipTransferred",
      "type": "event"
    },
    {
      "anonymous": false,
      "inputs": [
        {
          "indexed": false,
          "internalType": "address",
          "name": "sender",
          "type": "address"
        },
        {
          "indexed": false,
          "internalType": "uint256",
          "name": "amount",
          "type": "uint256"
        }
      ],
      "name": "ReceiveEvent",
      "type": "event"
    },
    {
      "anonymous": false,
      "inputs": [
        {
          "indexed": false,
          "internalType": "address",
          "name": "sender",
          "type": "address"
        },
        {
          "indexed": false,
          "internalType": "bytes",
          "name": "reason",
          "type": "bytes"
        }
      ],
      "name": "Started",
      "type": "event"
    },
    {
      "anonymous": false,
      "inputs": [
        {
          "indexed": false,
          "internalType": "address",
          "name": "sender",
          "type": "address"
        },
        {
          "indexed": false,
          "internalType": "bytes",
          "name": "reason",
          "type": "bytes"
        }
      ],
      "name": "Stopped",
      "type": "event"
    },
    {
      "anonymous": false,
      "inputs": [
        {
          "indexed": false,
          "internalType": "address",
          "name": "sender",
          "type": "address"
        },
        {
          "indexed": false,
          "internalType": "string",
          "name": "reason",
          "type": "string"
        }
      ],
      "name": "Termination",
      "type": "event"
    },
    {
      "anonymous": false,
      "inputs": [
        {
          "indexed": false,
          "internalType": "uint256",
          "name": "ID",
          "type": "uint256"
        },
        {
          "indexed": false,
          "internalType": "string",
          "name": "testName",
          "type": "string"
        },
        {
          "indexed": false,
          "internalType": "string",
          "name": "date",
          "type": "string"
        },
        {
          "indexed": false,
          "internalType": "string",
          "name": "hospitalName",
          "type": "string"
        },
        {
          "indexed": false,
          "internalType": "uint256",
          "name": "price",
          "type": "uint256"
        }
      ],
      "name": "recordCreated",
      "type": "event"
    },
    {
      "anonymous": false,
      "inputs": [
        {
          "indexed": false,
          "internalType": "uint256",
          "name": "ID",
          "type": "uint256"
        },
        {
          "indexed": false,
          "internalType": "string",
          "name": "testName",
          "type": "string"
        },
        {
          "indexed": false,
          "internalType": "string",
          "name": "date",
          "type": "string"
        },
        {
          "indexed": false,
          "internalType": "string",
          "name": "hospitalName",
          "type": "string"
        },
        {
          "indexed": false,
          "internalType": "uint256",
          "name": "price",
          "type": "uint256"
        }
      ],
      "name": "recordSigned",
      "type": "event"
    },
    {
      "stateMutability": "payable",
      "type": "fallback"
    },
    {
      "inputs": [],
      "name": "VERSION",
      "outputs": [
        {
          "internalType": "string",
          "name": "",
          "type": "string"
        }
      ],
      "stateMutability": "view",
      "type": "function"
    },
    {
      "inputs": [],
      "name": "WAIT",
      "outputs": [
        {
          "internalType": "uint256",
          "name": "",
          "type": "uint256"
        }
      ],
      "stateMutability": "view",
      "type": "function"
    },
    {
      "inputs": [
        {
          "internalType": "uint256",
          "name": "",
          "type": "uint256"
        }
      ],
      "name": "_records",
      "outputs": [
        {
          "internalType": "uint256",
          "name": "ID",
          "type": "uint256"
        },
        {
          "internalType": "uint256",
          "name": "price",
          "type": "uint256"
        },
        {
          "internalType": "uint256",
          "name": "signatureCount",
          "type": "uint256"
        },
        {
          "internalType": "string",
          "name": "testName",
          "type": "string"
        },
        {
          "internalType": "string",
          "name": "date",
          "type": "string"
        },
        {
          "internalType": "string",
          "name": "hospitalName",
          "type": "string"
        },
        {
          "internalType": "bool",
          "name": "isValue",
          "type": "bool"
        },
        {
          "internalType": "address",
          "name": "pAddr",
          "type": "address"
        }
      ],
      "stateMutability": "view",
      "type": "function"
    },
    {
      "inputs": [],
      "name": "destroy",
      "outputs": [],
      "stateMutability": "nonpayable",
      "type": "function"
    },
    {
      "inputs": [
        {
          "internalType": "address",
          "name": "_recipient",
          "type": "address"
        }
      ],
      "name": "destroyAndSend",
      "outputs": [],
      "stateMutability": "nonpayable",
      "type": "function"
    },
    {
      "inputs": [],
      "name": "getOwner",
      "outputs": [
        {
          "internalType": "address",
          "name": "",
          "type": "address"
        }
      ],
      "stateMutability": "payable",
      "type": "function"
    },
    {
      "inputs": [
        {
          "internalType": "uint256",
          "name": "",
          "type": "uint256"
        }
      ],
      "name": "recordsArr",
      "outputs": [
        {
          "internalType": "uint256",
          "name": "",
          "type": "uint256"
        }
      ],
      "stateMutability": "view",
      "type": "function"
    },
    {
      "inputs": [],
      "name": "renounceOwnership",
      "outputs": [],
      "stateMutability": "payable",
      "type": "function"
    },
    {
      "inputs": [
        {
          "internalType": "address",
          "name": "newOwner",
          "type": "address"
        }
      ],
      "name": "transferOwnership",
      "outputs": [],
      "stateMutability": "payable",
      "type": "function"
    },
    {
      "stateMutability": "payable",
      "type": "receive"
    },
    {
      "inputs": [
        {
          "internalType": "uint256",
          "name": "_ID",
          "type": "uint256"
        },
        {
          "internalType": "string",
          "name": "_tName",
          "type": "string"
        },
        {
          "internalType": "string",
          "name": "_date",
          "type": "string"
        },
        {
          "internalType": "string",
          "name": "hName",
          "type": "string"
        },
        {
          "internalType": "uint256",
          "name": "price",
          "type": "uint256"
        }
      ],
      "name": "newRecord",
      "outputs": [],
      "stateMutability": "nonpayable",
      "type": "function"
    },
    {
      "inputs": [
        {
          "internalType": "uint256",
          "name": "_ID",
          "type": "uint256"
        }
      ],
      "name": "signRecord",
      "outputs": [],
      "stateMutability": "payable",
      "type": "function"
    }
  ],
  "bytecode": "0x6080346100cd5761107e80380390601f19601f83011683019183831067ffffffffffffffff8411176100d2578084926020946040528339810103126100cd5751600160a060020a038116908190036100cd576000805433600160a060020a0319918216811783554260015560405193927f8be0079c531659141344cd1fd0a4f28419497f9722a3daafe3b4186f6b6457e08180a360038054600160a860020a031916336101000261010060a860020a03161790556004805491909116919091179055610f7c90816101028239f35b600080fd5b7f4e487b7100000000000000000000000000000000000000000000000000000000600052604160045260246000fdfe60806040526004803610156100ca575b361561009a57333203610051577f26875833861a2b006512a11f1b86edf95df96131040f3caeed72989ee98580836040518061004c343383610de1565b0390a1005b60405160e560020a62461bcd02815260209181019190915260196024820152603860020a787068697368696e672061747461636b2064657465637465643f026044820152606490fd5b7fcc85d09d309785db93d6df19917f2e6cc07fe27cd01c08c8279145deb5cf45266040518061004c343383610de1565b60e060020a600035046317aa7fcb811461062c578063549b39fc146105f2578063715018a6146105ab57806383197ef01461056a578063893d20e814610542578063a508d0ed146103d0578063b8fb3a51146103b4578063ee96b9eb146102f0578063f2fde38b14610233578063f5074f41146101cd5763ffa1ad740361000f57346101c85760003660031901126101c857604080519081016001604060020a038111828210176101af576101ab9250604052600a815260b060020a69312e362e342d62657461026020820152604051918291602083526020830190610cbe565b0390f35b60e060020a634e487b7102600090815260418452602490fd5b600080fd5b50346101c85760203660031901126101c85735600160a060020a0380821682036101c857600080516020610f078339815191529161021361004c92600054163314610cfe565b60408051338152600160a060020a03909216602083015290918291820190565b5060203660031901126101c857600160a060020a03813581811692908390036101c85760005491821690610268823314610dfc565b831561029457508290600080516020610f27833981519152600080a3600160a060020a03191617600055005b60405160e560020a62461bcd028152602091810191909152602660248201527f4f776e61626c653a206e6577206f776e657220697320746865207a65726f2061604482015260d060020a65646472657373026064820152608490fd5b50346101c85760203660031901126101c8578035600052600560205260406000209081549060018301549261039460028201549161038661033e61033660038401610c19565b958301610c19565b600661034c60058501610c19565b93015494604051988998895260208901526040880152610378610100968760608a015287890190610cbe565b908782036080890152610cbe565b9085820360a0870152610cbe565b60ff8216151560c0850152919004600160a060020a031660e08301520390f35b346101c85760003660031901126101c8576020604051601e8152f35b506020806003193601126101c85760035461010090600160a060020a0390829004811633148015610536575b1561050b5761042e9084356000526005845260406000209260068401540416610426811515610e48565b331415610e48565b600781013360005280835261044b60016040600020541415610e48565b336000528252600160406000205560028101805460001981146104f2576001019081905560021461047857005b7fc2f555c23b76b78740a06bbfda9d00e05b6234a7e1123d7408fe22f39eaeb81f926104e782549260056104d860018301549460a060405198899889528801526104c860a0880160038601610e71565b9087820360408901528401610e71565b91858303606087015201610e71565b9060808301520390a1005b60e060020a634e487b7102600090815260118652602490fd5b60405160e560020a62461bcd0281528085018490526001602482015260fd60020a6044820152606490fd5b508084541633146103fc565b60003660031901126101c8576020610558610d92565b604051600160a060020a039091168152f35b346101c85760003660031901126101c857610591600160a060020a03600054163314610cfe565b600080516020610f0783398151915261004c610213610d92565b60003660031901126101c8576000805490600160a060020a0382166105d1338214610dfc565b600080516020610f278339815191528280a3600160a060020a031916600055005b50346101c85760203660031901126101c857356006548110156101c85761061a602091610ba5565b90546008604051920260020a90048152f35b50346101c85760a03660031901126101c8576024356001604060020a0381116101c85761065c9036908301610b4f565b6044356001604060020a0381116101c85761067a9036908401610b4f565b6064356001604060020a0381116101c8576106989036908501610b4f565b8335600052600560205260406000209060068201546106ba60ff821615610e48565b61010060a860020a031916336101000261010060a860020a03161760068301558435825583516001604060020a03811161097c5760038301906106fd8254610bda565b601f8111610ac9575b50806020601f8211600114610a6257600091610a57575b50816002029160080260020a6000190419161790555b82516001604060020a03811161097c5761074f86840154610bda565b601f8111610a0c575b50806020601f82116001146109a057600091610995575b50816002029160080260020a60001904191617858301555b80516001604060020a03811161097c576107a46005840154610bda565b601f8111610930575b50806020601f82116001146108c2576000916108b7575b50816002029160080260020a6000190419161760058301555b60843591826001820155600160ff1960068301541617600682015560006002820155600654604060020a81101561089e576104e792917fc20f59e9d68948c943c420ad03b09ad5b4b7feccfe038eb67e9845033df38e10976108488360016108909501600655610ba5565b600882939254910260020a91826000039283913502169119161790555494610882604051978897885260a0602089015260a0880190610cbe565b908682036040880152610cbe565b908482036060860152610cbe565b60e060020a634e487b7102600090815260418852602490fd5b9050820151386107c4565b600585016000908152602081209250601f198416905b8181106109185750918391600194600294106108fd575b5050020160058301556107dd565b8501516008601f841602840a600019041916905538806108ef565b919260206001819286890151815501940192016108d8565b6005840160005260206000206020601f84010481019160208410610972575b601f602091010401905b81811061096657506107ad565b60008155600101610959565b909150819061094f565b60e060020a634e487b7102600090815260418752602490fd5b90508401513861076f565b8488016000908152602081209250601f198416905b8181106109f45750918391600194600294106109d9575b5050020185830155610787565b8701516008601f841602840a600019041916905538806109cc565b9192602060018192868b0151815501940192016109b5565b86840160005260206000206020601f84010481019160208410610a4d575b601f602091010401905b818110610a415750610758565b60008155600101610a34565b9091508190610a2a565b90508601513861071d565b6000848152602081209250601f198416905b818110610ab1575091839160019460029410610a96575b505002019055610733565b8901516008601f841602840a60001904191690553880610a8b565b9192602060018192868d015181550194019201610a74565b8260005260206000206020601f84010481019160208410610b08575b601f602091010401905b818110610afc5750610706565b60008155600101610aef565b9091508190610ae5565b601f909101601f19168101906001604060020a03821190821017610b3557604052565b60e060020a634e487b710260009081526041600452602490fd5b81601f820112156101c8578035906001604060020a038211610b355760405192610b83601f8401601f191660200185610b12565b828452602083830101116101c857816000926020809301838601378301015290565b600654811015610bc057600660005260206000200190600090565b60e060020a634e487b710260009081526032600452602490fd5b9060016002830492168015610c0f575b6020831014610bf557565b60e060020a634e487b710260009081526022600452602490fd5b91607f1691610bea565b9060405191826000825492610c2d84610bda565b908184526001948581169081600014610c9c5750600114610c59575b5050610c5792500383610b12565b565b9093915060005260209081600020936000915b818310610c84575050610c5793508201013880610c49565b85548884018501529485019487945091830191610c6c565b915050610c5794506020925060ff191682840152151581028201013880610c49565b919082519283825260005b848110610cea575050826000602080949584010152601f8019910116010190565b602081830181015184830182015201610cc9565b15610d0557565b60405160e560020a62461bcd02815260206004820152601b60248201527f756e617574686f72697a65642c206e6f7420746865206f776e657200000000006044820152606490fd5b15610d5457565b60405160e560020a62461bcd0281526020600482015260106024820152608160020a6f3930ba32903634b6b4ba1032b93937b9026044820152606490fd5b600154601e8101809111610dc757610db4904211610daf81610d4d565b610d4d565b42600155600054600160a060020a031690565b60e060020a634e487b710260009081526011600452602490fd5b600160a060020a039091168152602081019190915260400190565b15610e0357565b60405160e560020a62461bcd0281526020600482015260176024820152604960020a7630b1b1b2b9b9903232b734b2b2103337b91037bbb732b9026044820152606490fd5b15610e4f57565b60405160e560020a62461bcd0281526020600482015260006024820152604490fd5b9060009291805491610e8283610bda565b918282526001938481169081600014610ee45750600114610ea4575b50505050565b90919394506000526020928360002092846000945b838610610ed0575050505001019038808080610e9e565b805485870183015294019385908201610eb9565b9294505050602093945060ff1916838301521515820201019038808080610e9e56fe91ca00fdf29069527d658f8dfc6d1c0bf9861780bb45ff36436f938d3595a8d68be0079c531659141344cd1fd0a4f28419497f9722a3daafe3b4186f6b6457e0a26469706673582212205da3ee80b4a42a0a9ea304052a05579c3cc2f7477ceb293715992543a2398cce64736f6c63430008120033",
  "immutableReferences": {},
  "source": "// SPDX-License-Identifier: CC-BY-4.0\r\npragma solidity >=0.4.22 <0.9.0;\r\n\r\n// See https://github.com/Rishabh42/HealthCare-Insurance-Ethereum for the DAPP\r\n\r\nimport \"../common/Version.sol\";\r\nimport \"../common/Frozen.sol\";\r\n\r\ncontract HealthCare is Version, Frozen {\r\n\r\n    address private hospitalAdmin;\r\n    address private labAdmin;\r\n\r\n    struct Record {\r\n        uint256 ID;\r\n        uint256 price;\r\n        uint256 signatureCount;\r\n        string testName;\r\n        string date;\r\n        string hospitalName;\r\n        bool isValue;\r\n        address pAddr;\r\n        mapping (address => uint256) signatures;\r\n    }\r\n\r\n    modifier signOnly {\r\n        require (msg.sender == hospitalAdmin || msg.sender == labAdmin, \" \");\r\n        _;\r\n    }\r\n\r\n    constructor(address _labAdmin) {\r\n        hospitalAdmin = msg.sender;\r\n        labAdmin = _labAdmin;     //assigning a hard coded address from ganache\r\n    }\r\n\r\n\r\n    // Mapping to store records\r\n    mapping (uint256=> Record) public _records;\r\n    uint256[] public recordsArr;\r\n\r\n    event recordCreated(uint256 ID, string testName, string date, string hospitalName, uint256 price);\r\n    event recordSigned(uint256 ID, string testName, string date, string hospitalName, uint256 price);\r\n\r\n    // Create new record\r\n    function newRecord (uint256 _ID, string memory _tName, string memory _date, string memory hName, uint256 price) public{\r\n        Record storage _newrecord = _records[_ID];\r\n\r\n        // Only allows new records to be created\r\n        require(!_records[_ID].isValue, \"\");\r\n            _newrecord.pAddr = msg.sender;\r\n            _newrecord.ID = _ID;\r\n            _newrecord.testName = _tName;\r\n            _newrecord.date = _date;\r\n            _newrecord.hospitalName = hName;\r\n            _newrecord.price = price;\r\n            _newrecord.isValue = true;\r\n            _newrecord.signatureCount = 0;\r\n\r\n        recordsArr.push(_ID);\r\n        emit  recordCreated(_newrecord.ID, _tName, _date, hName, price);\r\n    }\r\n\r\n    // Function to sign a record\r\n    function signRecord(uint256 _ID)\r\n        public\r\n        payable\r\n        signOnly\r\n    {\r\n        Record storage records = _records[_ID];\r\n\r\n        // Checks the aunthenticity of the address signing it\r\n        require(address(0) != records.pAddr, \"\");\r\n        require(msg.sender != records.pAddr, \"\");\r\n\r\n        // Doesn't allow the same person to sign twice\r\n        require(records.signatures[msg.sender] != 1, \"\");\r\n\r\n        records.signatures[msg.sender] = 1;\r\n        records.signatureCount++;\r\n\r\n        // Checks if the record has been signed by both the authorities to process insurance claim\r\n        if(records.signatureCount == 2)\r\n            emit  recordSigned(records.ID, records.testName, records.date, records.hospitalName, records.price);\r\n\r\n    }\r\n}",
  "sourcePath": "/Volumes/HOME/pingleware-contracts/contracts/healthcare/Healthcare.sol",
  "compiler": {
    "name": "solc",
    "version": "0.8.18+commit.87f61d96.Emscripten.clang"
  },
  "schemaVersion": "3.4.12",
  "updatedAt": "2024-05-23T18:56:26.347Z",
  "devdoc": {
    "kind": "dev",
    "methods": {
      "renounceOwnership()": {
        "details": "Leaves the contract without owner. It will not be possible to call `onlyOwner` functions anymore. Can only be called by the current owner. NOTE: Renouncing ownership will leave the contract without an owner, thereby removing any functionality that is only available to the owner."
      },
      "transferOwnership(address)": {
        "details": "Transfers ownership of the contract to a new account (`newOwner`). Can only be called by the current owner."
      }
    },
    "version": 1
  },
  "userdoc": {
    "kind": "user",
    "methods": {},
    "version": 1
  }
}