{
  "contractName": "HealthCare",
  "abi": [
    {
      "inputs": [
        {
          "internalType": "address",
          "name": "_labAdmin",
          "type": "address"
        }
      ],
      "stateMutability": "nonpayable",
      "type": "constructor"
    },
    {
      "anonymous": false,
      "inputs": [
        {
          "indexed": false,
          "internalType": "address",
          "name": "sender",
          "type": "address"
        },
        {
          "indexed": false,
          "internalType": "address",
          "name": "recipient",
          "type": "address"
        }
      ],
      "name": "Destroyed",
      "type": "event"
    },
    {
      "anonymous": false,
      "inputs": [
        {
          "indexed": false,
          "internalType": "address",
          "name": "sender",
          "type": "address"
        },
        {
          "indexed": false,
          "internalType": "uint256",
          "name": "amount",
          "type": "uint256"
        }
      ],
      "name": "FallbackEvent",
      "type": "event"
    },
    {
      "anonymous": false,
      "inputs": [
        {
          "indexed": true,
          "internalType": "address",
          "name": "previousOwner",
          "type": "address"
        },
        {
          "indexed": true,
          "internalType": "address",
          "name": "newOwner",
          "type": "address"
        }
      ],
      "name": "OwnershipTransferred",
      "type": "event"
    },
    {
      "anonymous": false,
      "inputs": [
        {
          "indexed": false,
          "internalType": "address",
          "name": "sender",
          "type": "address"
        },
        {
          "indexed": false,
          "internalType": "uint256",
          "name": "amount",
          "type": "uint256"
        }
      ],
      "name": "ReceiveEvent",
      "type": "event"
    },
    {
      "anonymous": false,
      "inputs": [
        {
          "indexed": false,
          "internalType": "address",
          "name": "sender",
          "type": "address"
        },
        {
          "indexed": false,
          "internalType": "bytes",
          "name": "reason",
          "type": "bytes"
        }
      ],
      "name": "Started",
      "type": "event"
    },
    {
      "anonymous": false,
      "inputs": [
        {
          "indexed": false,
          "internalType": "address",
          "name": "sender",
          "type": "address"
        },
        {
          "indexed": false,
          "internalType": "bytes",
          "name": "reason",
          "type": "bytes"
        }
      ],
      "name": "Stopped",
      "type": "event"
    },
    {
      "anonymous": false,
      "inputs": [
        {
          "indexed": false,
          "internalType": "address",
          "name": "sender",
          "type": "address"
        },
        {
          "indexed": false,
          "internalType": "string",
          "name": "reason",
          "type": "string"
        }
      ],
      "name": "Termination",
      "type": "event"
    },
    {
      "anonymous": false,
      "inputs": [
        {
          "indexed": false,
          "internalType": "uint256",
          "name": "ID",
          "type": "uint256"
        },
        {
          "indexed": false,
          "internalType": "string",
          "name": "testName",
          "type": "string"
        },
        {
          "indexed": false,
          "internalType": "string",
          "name": "date",
          "type": "string"
        },
        {
          "indexed": false,
          "internalType": "string",
          "name": "hospitalName",
          "type": "string"
        },
        {
          "indexed": false,
          "internalType": "uint256",
          "name": "price",
          "type": "uint256"
        }
      ],
      "name": "recordCreated",
      "type": "event"
    },
    {
      "anonymous": false,
      "inputs": [
        {
          "indexed": false,
          "internalType": "uint256",
          "name": "ID",
          "type": "uint256"
        },
        {
          "indexed": false,
          "internalType": "string",
          "name": "testName",
          "type": "string"
        },
        {
          "indexed": false,
          "internalType": "string",
          "name": "date",
          "type": "string"
        },
        {
          "indexed": false,
          "internalType": "string",
          "name": "hospitalName",
          "type": "string"
        },
        {
          "indexed": false,
          "internalType": "uint256",
          "name": "price",
          "type": "uint256"
        }
      ],
      "name": "recordSigned",
      "type": "event"
    },
    {
      "stateMutability": "payable",
      "type": "fallback",
      "payable": true
    },
    {
      "inputs": [],
      "name": "VERSION",
      "outputs": [
        {
          "internalType": "string",
          "name": "",
          "type": "string"
        }
      ],
      "stateMutability": "view",
      "type": "function",
      "constant": true
    },
    {
      "inputs": [],
      "name": "WAIT",
      "outputs": [
        {
          "internalType": "uint256",
          "name": "",
          "type": "uint256"
        }
      ],
      "stateMutability": "view",
      "type": "function",
      "constant": true
    },
    {
      "inputs": [
        {
          "internalType": "uint256",
          "name": "",
          "type": "uint256"
        }
      ],
      "name": "_records",
      "outputs": [
        {
          "internalType": "uint256",
          "name": "ID",
          "type": "uint256"
        },
        {
          "internalType": "uint256",
          "name": "price",
          "type": "uint256"
        },
        {
          "internalType": "uint256",
          "name": "signatureCount",
          "type": "uint256"
        },
        {
          "internalType": "string",
          "name": "testName",
          "type": "string"
        },
        {
          "internalType": "string",
          "name": "date",
          "type": "string"
        },
        {
          "internalType": "string",
          "name": "hospitalName",
          "type": "string"
        },
        {
          "internalType": "bool",
          "name": "isValue",
          "type": "bool"
        },
        {
          "internalType": "address",
          "name": "pAddr",
          "type": "address"
        }
      ],
      "stateMutability": "view",
      "type": "function",
      "constant": true
    },
    {
      "inputs": [],
      "name": "destroy",
      "outputs": [],
      "stateMutability": "nonpayable",
      "type": "function"
    },
    {
      "inputs": [
        {
          "internalType": "address",
          "name": "_recipient",
          "type": "address"
        }
      ],
      "name": "destroyAndSend",
      "outputs": [],
      "stateMutability": "nonpayable",
      "type": "function"
    },
    {
      "inputs": [],
      "name": "getOwner",
      "outputs": [
        {
          "internalType": "address",
          "name": "",
          "type": "address"
        }
      ],
      "stateMutability": "payable",
      "type": "function",
      "payable": true
    },
    {
      "inputs": [
        {
          "internalType": "uint256",
          "name": "",
          "type": "uint256"
        }
      ],
      "name": "recordsArr",
      "outputs": [
        {
          "internalType": "uint256",
          "name": "",
          "type": "uint256"
        }
      ],
      "stateMutability": "view",
      "type": "function",
      "constant": true
    },
    {
      "inputs": [],
      "name": "renounceOwnership",
      "outputs": [],
      "stateMutability": "payable",
      "type": "function",
      "payable": true
    },
    {
      "inputs": [
        {
          "internalType": "address",
          "name": "newOwner",
          "type": "address"
        }
      ],
      "name": "transferOwnership",
      "outputs": [],
      "stateMutability": "payable",
      "type": "function",
      "payable": true
    },
    {
      "stateMutability": "payable",
      "type": "receive",
      "payable": true
    },
    {
      "inputs": [
        {
          "internalType": "uint256",
          "name": "_ID",
          "type": "uint256"
        },
        {
          "internalType": "string",
          "name": "_tName",
          "type": "string"
        },
        {
          "internalType": "string",
          "name": "_date",
          "type": "string"
        },
        {
          "internalType": "string",
          "name": "hName",
          "type": "string"
        },
        {
          "internalType": "uint256",
          "name": "price",
          "type": "uint256"
        }
      ],
      "name": "newRecord",
      "outputs": [],
      "stateMutability": "nonpayable",
      "type": "function"
    },
    {
      "inputs": [
        {
          "internalType": "uint256",
          "name": "_ID",
          "type": "uint256"
        }
      ],
      "name": "signRecord",
      "outputs": [],
      "stateMutability": "payable",
      "type": "function",
      "payable": true
    }
  ],
  "bytecode": "0x608060405260006001556003805460ff1916905534801561001f57600080fd5b5060405161113038038061113083398101604081905261003e916100bd565b60008054600160a060020a031916339081178255426001556040519091907f8be0079c531659141344cd1fd0a4f28419497f9722a3daafe3b4186f6b6457e0908290a36003805461010060a860020a031916336101000217905560048054600160a060020a031916600160a060020a03929092169190911790556100ed565b6000602082840312156100cf57600080fd5b8151600160a060020a03811681146100e657600080fd5b9392505050565b611034806100fc6000396000f3fe6080604052600436106100935760e060020a600035046317aa7fcb811461015a578063549b39fc1461017c578063715018a6146101af57806383197ef0146101b7578063893d20e8146101cc578063a508d0ed146101ec578063b8fb3a51146101ff578063ee96b9eb14610214578063f2fde38b14610248578063f5074f411461025b578063ffa1ad741461027b576100d3565b366100d3577fcc85d09d309785db93d6df19917f2e6cc07fe27cd01c08c8279145deb5cf452633346040516100c99291906109e2565b60405180910390a1005b3233146101295760405160e560020a62461bcd0281526020600482015260196024820152603860020a787068697368696e672061747461636b2064657465637465643f0260448201526064015b60405180910390fd5b7f26875833861a2b006512a11f1b86edf95df96131040f3caeed72989ee985808333346040516100c99291906109e2565b34801561016657600080fd5b5061017a610175366004610aa1565b6102c1565b005b34801561018857600080fd5b5061019c610197366004610b3a565b6103d5565b6040519081526020015b60405180910390f35b61017a6103f6565b3480156101c357600080fd5b5061017a61045b565b6101d46104b8565b604051600160a060020a0390911681526020016101a6565b61017a6101fa366004610b3a565b61052e565b34801561020b57600080fd5b5061019c601e81565b34801561022057600080fd5b5061023461022f366004610b3a565b6106c1565b6040516101a6989796959493929190610b99565b61017a610256366004610c0d565b6108aa565b34801561026757600080fd5b5061017a610276366004610c0d565b61098b565b34801561028757600080fd5b506102b46040518060400160405280600a815260200160b060020a69312e362e342d626574610281525081565b6040516101a69190610c3d565b6000858152600560205260409020600681015460ff16156102f75760405160e560020a62461bcd02815260040161012090610c50565b60068101805461010060a860020a0319163361010002179055858155600381016103218682610cee565b50600481016103308582610cee565b506005810161033f8482610cee565b5060018082018390556006808301805460ff19168317905560006002840181905581549283018255527ff652222313e28459528d920b65115c16c04f3efc82aaedc97be59f3f377c0d3f0186905580546040517fc20f59e9d68948c943c420ad03b09ad5b4b7feccfe038eb67e9845033df38e10916103c5918890889088908890610db3565b60405180910390a1505050505050565b600681815481106103e557600080fd5b600091825260209091200154905081565b600054600160a060020a031633146104235760405160e560020a62461bcd02815260040161012090610e05565b60008054604051600160a060020a0390911690600080516020610fdf833981519152908390a360008054600160a060020a0319169055565b600054600160a060020a031633146104885760405160e560020a62461bcd02815260040161012090610e39565b600080516020610fbf833981519152336104a06104b8565b6040516104ae929190610e70565b60405180910390a1565b6000601e6001546104c99190610ea4565b42116104ea5760405160e560020a62461bcd02815260040161012090610ebd565b601e6001546104f99190610ea4565b421161051a5760405160e560020a62461bcd02815260040161012090610ebd565b5042600155600054600160a060020a031690565b6003546101009004600160a060020a03163314806105565750600454600160a060020a031633145b6105895760405160e560020a62461bcd028152602060048201526001602482015260fd60020a6044820152606401610120565b600081815260056020526040812060068101549091610100909104600160a060020a031690036105ce5760405160e560020a62461bcd02815260040161012090610c50565b60068101546101009004600160a060020a031633036106025760405160e560020a62461bcd02815260040161012090610c50565b3360009081526007820160205260409020546001036106365760405160e560020a62461bcd02815260040161012090610c50565b3360009081526007820160205260408120600190556002820180549161065b83610eea565b919050555080600201546002036106bd577fc2f555c23b76b78740a06bbfda9d00e05b6234a7e1123d7408fe22f39eaeb81f816000015482600301836004018460050185600101546040516106b4959493929190610f7f565b60405180910390a15b5050565b6005602052600090815260409020805460018201546002830154600384018054939492939192916106f190610c61565b80601f016020809104026020016040519081016040528092919081815260200182805461071d90610c61565b801561076a5780601f1061073f5761010080835404028352916020019161076a565b820191906000526020600020905b81548152906001019060200180831161074d57829003601f168201915b50505050509080600401805461077f90610c61565b80601f01602080910402602001604051908101604052809291908181526020018280546107ab90610c61565b80156107f85780601f106107cd576101008083540402835291602001916107f8565b820191906000526020600020905b8154815290600101906020018083116107db57829003601f168201915b50505050509080600501805461080d90610c61565b80601f016020809104026020016040519081016040528092919081815260200182805461083990610c61565b80156108865780601f1061085b57610100808354040283529160200191610886565b820191906000526020600020905b81548152906001019060200180831161086957829003601f168201915b5050506006909301549192505060ff811690600160a060020a036101009091041688565b600054600160a060020a031633146108d75760405160e560020a62461bcd02815260040161012090610e05565b600160a060020a0381166109425760405160e560020a62461bcd02815260206004820152602660248201527f4f776e61626c653a206e6577206f776e657220697320746865207a65726f2061604482015260d060020a65646472657373026064820152608401610120565b60008054604051600160a060020a0380851693921691600080516020610fdf83398151915291a360008054600160a060020a031916600160a060020a0392909216919091179055565b600054600160a060020a031633146109b85760405160e560020a62461bcd02815260040161012090610e39565b600080516020610fbf83398151915233826040516109d7929190610e70565b60405180910390a150565b600160a060020a03929092168252602082015260400190565b60e060020a634e487b710260009081526041600452602490fd5b600082601f830112610a2657600080fd5b81356001604060020a0380821115610a4057610a406109fb565b604051601f8301601f19908116603f01168101908282118183101715610a6857610a686109fb565b81604052838152866020858801011115610a8157600080fd5b836020870160208301376000602085830101528094505050505092915050565b600080600080600060a08688031215610ab957600080fd5b8535945060208601356001604060020a0380821115610ad757600080fd5b610ae389838a01610a15565b95506040880135915080821115610af957600080fd5b610b0589838a01610a15565b94506060880135915080821115610b1b57600080fd5b50610b2888828901610a15565b95989497509295608001359392505050565b600060208284031215610b4c57600080fd5b5035919050565b6000815180845260005b81811015610b7957602081850181015186830182015201610b5d565b506000602082860101526020601f19601f83011685010191505092915050565b60006101008a8352896020840152886040840152806060840152610bbf81840189610b53565b90508281036080840152610bd38188610b53565b905082810360a0840152610be78187610b53565b94151560c08401525050600160a060020a039190911660e0909101529695505050505050565b600060208284031215610c1f57600080fd5b8135600160a060020a0381168114610c3657600080fd5b9392505050565b602081526000610c366020830184610b53565b602080825260009082015260400190565b600281046001821680610c7557607f821691505b602082108103610c995760e060020a634e487b710260009081526022600452602490fd5b50919050565b601f821115610ce9576000818152602081206020601f86010481016020861015610cc65750805b6020601f860104820191505b81811015610ce557828155600101610cd2565b5050505b505050565b81516001604060020a03811115610d0757610d076109fb565b610d1b81610d158454610c61565b84610c9f565b602080601f831160018114610d545760008415610d385750858301515b60028086026008870290910a6000190419821617865550610ce5565b600085815260208120601f198616915b82811015610d8357888601518255948401946001909101908401610d64565b5085821015610da357878501516008601f88160260020a60001904191681555b5050505050600202600101905550565b85815260a060208201526000610dcc60a0830187610b53565b8281036040840152610dde8187610b53565b90508281036060840152610df28186610b53565b9150508260808301529695505050505050565b6020808252601790820152604960020a7630b1b1b2b9b9903232b734b2b2103337b91037bbb732b902604082015260600190565b6020808252601b908201527f756e617574686f72697a65642c206e6f7420746865206f776e65720000000000604082015260600190565b600160a060020a0392831681529116602082015260400190565b60e060020a634e487b710260009081526011600452602490fd5b80820180821115610eb757610eb7610e8a565b92915050565b6020808252601090820152608160020a6f3930ba32903634b6b4ba1032b93937b902604082015260600190565b600060018201610efc57610efc610e8a565b5060010190565b60008154610f1081610c61565b808552602060018381168015610f2d5760018114610f4657610f74565b60ff198516888401528315158302880183019550610f74565b866000528260002060005b85811015610f6c5781548a8201860152908301908401610f51565b890184019650505b505050505092915050565b85815260a060208201526000610f9860a0830187610f03565b8281036040840152610faa8187610f03565b90508281036060840152610df28186610f0356fe91ca00fdf29069527d658f8dfc6d1c0bf9861780bb45ff36436f938d3595a8d68be0079c531659141344cd1fd0a4f28419497f9722a3daafe3b4186f6b6457e0a2646970667358221220f86e2019198406cca3539373c02838a2a05e1730b50b0603e0820a26bd76853b64736f6c63430008120033",
  "immutableReferences": {},
  "source": "// SPDX-License-Identifier: CC-BY-4.0\r\npragma solidity >=0.4.22 <0.9.0;\r\n\r\n// See https://github.com/Rishabh42/HealthCare-Insurance-Ethereum for the DAPP\r\n\r\nimport \"../common/Version.sol\";\r\nimport \"../common/Frozen.sol\";\r\n\r\ncontract HealthCare is Version, Frozen {\r\n\r\n    address private hospitalAdmin;\r\n    address private labAdmin;\r\n\r\n    struct Record {\r\n        uint256 ID;\r\n        uint256 price;\r\n        uint256 signatureCount;\r\n        string testName;\r\n        string date;\r\n        string hospitalName;\r\n        bool isValue;\r\n        address pAddr;\r\n        mapping (address => uint256) signatures;\r\n    }\r\n\r\n    modifier signOnly {\r\n        require (msg.sender == hospitalAdmin || msg.sender == labAdmin, \" \");\r\n        _;\r\n    }\r\n\r\n    constructor(address _labAdmin) {\r\n        hospitalAdmin = msg.sender;\r\n        labAdmin = _labAdmin;     //assigning a hard coded address from ganache\r\n    }\r\n\r\n\r\n    // Mapping to store records\r\n    mapping (uint256=> Record) public _records;\r\n    uint256[] public recordsArr;\r\n\r\n    event recordCreated(uint256 ID, string testName, string date, string hospitalName, uint256 price);\r\n    event recordSigned(uint256 ID, string testName, string date, string hospitalName, uint256 price);\r\n\r\n    // Create new record\r\n    function newRecord (uint256 _ID, string memory _tName, string memory _date, string memory hName, uint256 price) public{\r\n        Record storage _newrecord = _records[_ID];\r\n\r\n        // Only allows new records to be created\r\n        require(!_records[_ID].isValue, \"\");\r\n            _newrecord.pAddr = msg.sender;\r\n            _newrecord.ID = _ID;\r\n            _newrecord.testName = _tName;\r\n            _newrecord.date = _date;\r\n            _newrecord.hospitalName = hName;\r\n            _newrecord.price = price;\r\n            _newrecord.isValue = true;\r\n            _newrecord.signatureCount = 0;\r\n\r\n        recordsArr.push(_ID);\r\n        emit  recordCreated(_newrecord.ID, _tName, _date, hName, price);\r\n    }\r\n\r\n    // Function to sign a record\r\n    function signRecord(uint256 _ID)\r\n        public\r\n        payable\r\n        signOnly\r\n    {\r\n        Record storage records = _records[_ID];\r\n\r\n        // Checks the aunthenticity of the address signing it\r\n        require(address(0) != records.pAddr, \"\");\r\n        require(msg.sender != records.pAddr, \"\");\r\n\r\n        // Doesn't allow the same person to sign twice\r\n        require(records.signatures[msg.sender] != 1, \"\");\r\n\r\n        records.signatures[msg.sender] = 1;\r\n        records.signatureCount++;\r\n\r\n        // Checks if the record has been signed by both the authorities to process insurance claim\r\n        if(records.signatureCount == 2)\r\n            emit  recordSigned(records.ID, records.testName, records.date, records.hospitalName, records.price);\r\n\r\n    }\r\n}",
  "sourcePath": "/Volumes/My Book/projects/pingleware-contracts/contracts/healthcare/Healthcare.sol",
  "compiler": {
    "name": "solc",
    "version": "0.8.18+commit.87f61d96.Emscripten.clang"
  },
  "schemaVersion": "3.4.12",
  "updatedAt": "2023-10-24T03:01:10.586Z",
  "networkType": "ethereum",
  "devdoc": {
    "kind": "dev",
    "methods": {
      "renounceOwnership()": {
        "details": "Leaves the contract without owner. It will not be possible to call `onlyOwner` functions anymore. Can only be called by the current owner. NOTE: Renouncing ownership will leave the contract without an owner, thereby removing any functionality that is only available to the owner."
      },
      "transferOwnership(address)": {
        "details": "Transfers ownership of the contract to a new account (`newOwner`). Can only be called by the current owner."
      }
    },
    "version": 1
  },
  "userdoc": {
    "kind": "user",
    "methods": {},
    "version": 1
  }
}