{
  "contractName": "Historical",
  "abi": [
    {
      "inputs": [],
      "stateMutability": "nonpayable",
      "type": "constructor"
    },
    {
      "inputs": [
        {
          "internalType": "address",
          "name": "",
          "type": "address"
        },
        {
          "internalType": "uint256",
          "name": "",
          "type": "uint256"
        }
      ],
      "name": "quotes",
      "outputs": [
        {
          "internalType": "uint256",
          "name": "timestamp",
          "type": "uint256"
        },
        {
          "internalType": "string",
          "name": "symbol",
          "type": "string"
        },
        {
          "internalType": "uint256",
          "name": "volume",
          "type": "uint256"
        },
        {
          "internalType": "uint256",
          "name": "bid",
          "type": "uint256"
        },
        {
          "internalType": "uint256",
          "name": "ask",
          "type": "uint256"
        }
      ],
      "stateMutability": "view",
      "type": "function"
    },
    {
      "inputs": [
        {
          "internalType": "address",
          "name": "token",
          "type": "address"
        },
        {
          "internalType": "string",
          "name": "symbol",
          "type": "string"
        },
        {
          "internalType": "uint256",
          "name": "volume",
          "type": "uint256"
        },
        {
          "internalType": "uint256",
          "name": "bid",
          "type": "uint256"
        },
        {
          "internalType": "uint256",
          "name": "ask",
          "type": "uint256"
        }
      ],
      "name": "addQuote",
      "outputs": [],
      "stateMutability": "nonpayable",
      "type": "function"
    },
    {
      "inputs": [
        {
          "internalType": "address",
          "name": "token",
          "type": "address"
        }
      ],
      "name": "getHistorical",
      "outputs": [
        {
          "components": [
            {
              "internalType": "uint256",
              "name": "timestamp",
              "type": "uint256"
            },
            {
              "internalType": "string",
              "name": "symbol",
              "type": "string"
            },
            {
              "internalType": "uint256",
              "name": "volume",
              "type": "uint256"
            },
            {
              "internalType": "uint256",
              "name": "bid",
              "type": "uint256"
            },
            {
              "internalType": "uint256",
              "name": "ask",
              "type": "uint256"
            }
          ],
          "internalType": "struct Historical.Quote[]",
          "name": "",
          "type": "tuple[]"
        }
      ],
      "stateMutability": "view",
      "type": "function"
    },
    {
      "inputs": [
        {
          "internalType": "address",
          "name": "token",
          "type": "address"
        },
        {
          "internalType": "uint256",
          "name": "beginning",
          "type": "uint256"
        },
        {
          "internalType": "uint256",
          "name": "ending",
          "type": "uint256"
        }
      ],
      "name": "getHistoricalByRange",
      "outputs": [
        {
          "components": [
            {
              "internalType": "uint256",
              "name": "timestamp",
              "type": "uint256"
            },
            {
              "internalType": "string",
              "name": "symbol",
              "type": "string"
            },
            {
              "internalType": "uint256",
              "name": "volume",
              "type": "uint256"
            },
            {
              "internalType": "uint256",
              "name": "bid",
              "type": "uint256"
            },
            {
              "internalType": "uint256",
              "name": "ask",
              "type": "uint256"
            }
          ],
          "internalType": "struct Historical.Quote[]",
          "name": "",
          "type": "tuple[]"
        }
      ],
      "stateMutability": "view",
      "type": "function"
    }
  ],
  "bytecode": "0x608060405234801561001057600080fd5b50610ada806100206000396000f3fe608060405234801561001057600080fd5b506004361061004f5760e060020a60003504636a090f628114610054578063a35468ab1461007d578063a418cac614610092578063d1862668146100b6575b600080fd5b61006761006236600461068a565b6100c9565b60405161007491906106f2565b60405180910390f35b61009061008b36600461079e565b6101f6565b005b6100a56100a036600461087a565b610287565b6040516100749594939291906108a4565b6100676100c43660046108da565b610362565b600160a060020a038116600090815260208181526040808320805482518185028101850190935280835260609492939192909184015b828210156101eb57838290600052602060002090600502016040518060a00160405290816000820154815260200160018201805461013c9061090d565b80601f01602080910402602001604051908101604052809291908181526020018280546101689061090d565b80156101b55780601f1061018a576101008083540402835291602001916101b5565b820191906000526020600020905b81548152906001019060200180831161019857829003601f168201915b505050505081526020016002820154815260200160038201548152602001600482015481525050815260200190600101906100ff565b505050509050919050565b600160a060020a038516600090815260208181526040808320815160a081018352428152808401898152928101889052606081018790526080810186905281546001818101845592865293909420845160059094020192835590519082019061025f908261099a565b5060408201518160020155606082015181600301556080820151816004015550505050505050565b600060205281600052604060002081815481106102a357600080fd5b9060005260206000209060050201600091509150508060000154908060010180546102cd9061090d565b80601f01602080910402602001604051908101604052809291908181526020018280546102f99061090d565b80156103465780601f1061031b57610100808354040283529160200191610346565b820191906000526020600020905b81548152906001019060200180831161032957829003601f168201915b5050505050908060020154908060030154908060040154905085565b6060806000805b600160a060020a03871660009081526020819052604090205481101561066357600160a060020a03871660009081526020819052604090208054879190839081106103b6576103b6610a5f565b906000526020600020906005020160000154101580156104125750600160a060020a03871660009081526020819052604090208054869190839081106103fe576103fe610a5f565b906000526020600020906005020160000154105b1561065157600160a060020a038716600090815260208190526040812080548390811061044157610441610a5f565b60009182526020808320600590920290910154600160a060020a038b16835290829052604082208054919350908490811061047e5761047e610a5f565b9060005260206000209060050201600101805461049a9061090d565b80601f01602080910402602001604051908101604052809291908181526020018280546104c69061090d565b80156105135780601f106104e857610100808354040283529160200191610513565b820191906000526020600020905b8154815290600101906020018083116104f657829003601f168201915b5050505050905060008060008b600160a060020a0316600160a060020a03168152602001908152602001600020848154811061055157610551610a5f565b906000526020600020906005020160020154905060008060008c600160a060020a0316600160a060020a03168152602001908152602001600020858154811061059c5761059c610a5f565b906000526020600020906005020160030154905060008060008d600160a060020a0316600160a060020a0316815260200190815260200160002086815481106105e7576105e7610a5f565b90600052602060002090600502016004015490506040518060a001604052808681526020018581526020018481526020018381526020018281525088888061062e90610a79565b99508151811061064057610640610a5f565b602002602001018190525050505050505b8061065b81610a79565b915050610369565b509095945050505050565b8035600160a060020a038116811461068557600080fd5b919050565b60006020828403121561069c57600080fd5b6106a58261066e565b9392505050565b6000815180845260005b818110156106d2576020818501810151868301820152016106b6565b506000602082860101526020601f19601f83011685010191505092915050565b60208082528251828201819052600091906040908185019080840286018301878501865b8381101561077657603f19898403018552815160a08151855288820151818a870152610744828701826106ac565b838a0151878b015260608085015190880152608093840151939096019290925250509386019390860190600101610716565b509098975050505050505050565b60e060020a634e487b710260009081526041600452602490fd5b600080600080600060a086880312156107b657600080fd5b6107bf8661066e565b945060208601356001604060020a03808211156107db57600080fd5b818801915088601f8301126107ef57600080fd5b81358181111561080157610801610784565b604051601f8201601f19908116603f0116810190838211818310171561082957610829610784565b816040528281528b602084870101111561084257600080fd5b826020860160208301376000928101602001929092525096999698505050506040850135946060810135946080909101359350915050565b6000806040838503121561088d57600080fd5b6108968361066e565b946020939093013593505050565b85815260a0602082015260006108bd60a08301876106ac565b604083019590955250606081019290925260809091015292915050565b6000806000606084860312156108ef57600080fd5b6108f88461066e565b95602085013595506040909401359392505050565b60028104600182168061092157607f821691505b6020821081036109455760e060020a634e487b710260009081526022600452602490fd5b50919050565b601f821115610995576000818152602081206020601f860104810160208610156109725750805b6020601f860104820191505b818110156109915782815560010161097e565b5050505b505050565b81516001604060020a038111156109b3576109b3610784565b6109c7816109c1845461090d565b8461094b565b602080601f831160018114610a0057600084156109e45750858301515b60028086026008870290910a6000190419821617865550610991565b600085815260208120601f198616915b82811015610a2f57888601518255948401946001909101908401610a10565b5085821015610a4f57878501516008601f88160260020a60001904191681555b5050505050600202600101905550565b60e060020a634e487b710260009081526032600452602490fd5b600060018201610a9d5760e060020a634e487b710260009081526011600452602490fd5b506001019056fea2646970667358221220ebb24651bf9b695415c23ffe851fd1b4c67e7fb48077401697b50a34004e0b7a64736f6c63430008120033",
  "immutableReferences": {},
  "source": "// SPDX-License-Identifier: BSL-1.1\npragma solidity >=0.4.22 <0.9.0;\n\n/**\n * Maintains record of historical pricing for quoting\n */\n\ncontract Historical {\n    struct Quote {\n        uint256 timestamp;\n        string symbol;\n        uint256 volume;\n        uint256 bid;\n        uint256 ask;\n    }\n\n    mapping (address => Quote[]) public quotes;\n\n    constructor() {\n\n    }\n\n    function addQuote(address token,string memory symbol,uint256 volume,uint256 bid,uint256 ask) external {\n        quotes[token].push(Quote(block.timestamp,symbol,volume,bid,ask));\n    }\n\n    function getHistorical(address token) external view returns (Quote[] memory) {\n        return quotes[token];\n    }\n\n    function getHistoricalByRange(address token,uint256 beginning,uint256 ending) external view returns (Quote[] memory) {\n        Quote[] memory _quotes;\n        uint256 index=0;\n        for (uint256 i=0; i < quotes[token].length; i++) {\n            if (quotes[token][i].timestamp >= beginning && quotes[token][i].timestamp < ending) {\n                uint256 timestamp = quotes[token][i].timestamp;\n                string memory symbol = quotes[token][i].symbol;\n                uint256 volume = quotes[token][i].volume;\n                uint256 bid = quotes[token][i].bid;\n                uint256 ask = quotes[token][i].ask;\n                _quotes[index++] = Quote(timestamp,symbol,volume,bid,ask);\n            }\n        }\n        return _quotes;\n    }\n\n}",
  "sourcePath": "/Volumes/My Book/projects/pingleware-contracts/contracts/finance/elmx/Historical.sol",
  "compiler": {
    "name": "solc",
    "version": "0.8.18+commit.87f61d96.Emscripten.clang"
  },
  "schemaVersion": "3.4.12",
  "updatedAt": "2023-10-27T16:27:29.974Z",
  "devdoc": {
    "kind": "dev",
    "methods": {},
    "version": 1
  },
  "userdoc": {
    "kind": "user",
    "methods": {},
    "notice": "Maintains record of historical pricing for quoting",
    "version": 1
  }
}