{
  "contractName": "Historical",
  "abi": [
    {
      "inputs": [],
      "stateMutability": "nonpayable",
      "type": "constructor"
    },
    {
      "inputs": [
        {
          "internalType": "address",
          "name": "",
          "type": "address"
        },
        {
          "internalType": "uint256",
          "name": "",
          "type": "uint256"
        }
      ],
      "name": "quotes",
      "outputs": [
        {
          "internalType": "uint256",
          "name": "timestamp",
          "type": "uint256"
        },
        {
          "internalType": "string",
          "name": "symbol",
          "type": "string"
        },
        {
          "internalType": "uint256",
          "name": "volume",
          "type": "uint256"
        },
        {
          "internalType": "uint256",
          "name": "bid",
          "type": "uint256"
        },
        {
          "internalType": "uint256",
          "name": "ask",
          "type": "uint256"
        }
      ],
      "stateMutability": "view",
      "type": "function",
      "constant": true
    },
    {
      "inputs": [
        {
          "internalType": "address",
          "name": "token",
          "type": "address"
        },
        {
          "internalType": "string",
          "name": "symbol",
          "type": "string"
        },
        {
          "internalType": "uint256",
          "name": "volume",
          "type": "uint256"
        },
        {
          "internalType": "uint256",
          "name": "bid",
          "type": "uint256"
        },
        {
          "internalType": "uint256",
          "name": "ask",
          "type": "uint256"
        }
      ],
      "name": "addQuote",
      "outputs": [],
      "stateMutability": "nonpayable",
      "type": "function"
    },
    {
      "inputs": [
        {
          "internalType": "address",
          "name": "token",
          "type": "address"
        }
      ],
      "name": "getHistorical",
      "outputs": [
        {
          "components": [
            {
              "internalType": "uint256",
              "name": "timestamp",
              "type": "uint256"
            },
            {
              "internalType": "string",
              "name": "symbol",
              "type": "string"
            },
            {
              "internalType": "uint256",
              "name": "volume",
              "type": "uint256"
            },
            {
              "internalType": "uint256",
              "name": "bid",
              "type": "uint256"
            },
            {
              "internalType": "uint256",
              "name": "ask",
              "type": "uint256"
            }
          ],
          "internalType": "struct Historical.Quote[]",
          "name": "",
          "type": "tuple[]"
        }
      ],
      "stateMutability": "view",
      "type": "function",
      "constant": true
    }
  ],
  "bytecode": "0x608060405234801561001057600080fd5b50610738806100206000396000f3fe608060405234801561001057600080fd5b50600436106100445760e060020a60003504636a090f628114610049578063a35468ab14610072578063a418cac614610087575b600080fd5b61005c610057366004610360565b6100ab565b60405161006991906103c8565b60405180910390f35b610085610080366004610474565b6101d8565b005b61009a610095366004610550565b610269565b60405161006995949392919061057a565b600160a060020a038116600090815260208181526040808320805482518185028101850190935280835260609492939192909184015b828210156101cd57838290600052602060002090600502016040518060a00160405290816000820154815260200160018201805461011e906105b0565b80601f016020809104026020016040519081016040528092919081815260200182805461014a906105b0565b80156101975780601f1061016c57610100808354040283529160200191610197565b820191906000526020600020905b81548152906001019060200180831161017a57829003601f168201915b505050505081526020016002820154815260200160038201548152602001600482015481525050815260200190600101906100e1565b505050509050919050565b600160a060020a038516600090815260208181526040808320815160a0810183524281528084018981529281018890526060810187905260808101869052815460018181018455928652939094208451600590940201928355905190820190610241908261063d565b5060408201518160020155606082015181600301556080820151816004015550505050505050565b6000602052816000526040600020818154811061028557600080fd5b9060005260206000209060050201600091509150508060000154908060010180546102af906105b0565b80601f01602080910402602001604051908101604052809291908181526020018280546102db906105b0565b80156103285780601f106102fd57610100808354040283529160200191610328565b820191906000526020600020905b81548152906001019060200180831161030b57829003601f168201915b5050505050908060020154908060030154908060040154905085565b8035600160a060020a038116811461035b57600080fd5b919050565b60006020828403121561037257600080fd5b61037b82610344565b9392505050565b6000815180845260005b818110156103a85760208185018101518683018201520161038c565b506000602082860101526020601f19601f83011685010191505092915050565b60208082528251828201819052600091906040908185019080840286018301878501865b8381101561044c57603f19898403018552815160a08151855288820151818a87015261041a82870182610382565b838a0151878b0152606080850151908801526080938401519390960192909252505093860193908601906001016103ec565b509098975050505050505050565b60e060020a634e487b710260009081526041600452602490fd5b600080600080600060a0868803121561048c57600080fd5b61049586610344565b945060208601356001604060020a03808211156104b157600080fd5b818801915088601f8301126104c557600080fd5b8135818111156104d7576104d761045a565b604051601f8201601f19908116603f011681019083821181831017156104ff576104ff61045a565b816040528281528b602084870101111561051857600080fd5b826020860160208301376000928101602001929092525096999698505050506040850135946060810135946080909101359350915050565b6000806040838503121561056357600080fd5b61056c83610344565b946020939093013593505050565b85815260a06020820152600061059360a0830187610382565b604083019590955250606081019290925260809091015292915050565b6002810460018216806105c457607f821691505b6020821081036105e85760e060020a634e487b710260009081526022600452602490fd5b50919050565b601f821115610638576000818152602081206020601f860104810160208610156106155750805b6020601f860104820191505b8181101561063457828155600101610621565b5050505b505050565b81516001604060020a038111156106565761065661045a565b61066a8161066484546105b0565b846105ee565b602080601f8311600181146106a357600084156106875750858301515b60028086026008870290910a6000190419821617865550610634565b600085815260208120601f198616915b828110156106d2578886015182559484019460019091019084016106b3565b50858210156106f257878501516008601f88160260020a60001904191681555b505050505060020260010190555056fea26469706673582212201b8581bc0e8937ca155003b89f8b22381b0533ceec3b6371c4d4b5ef0bb767ed64736f6c63430008120033",
  "immutableReferences": {},
  "source": "// SPDX-License-Identifier: BSL-1.1\npragma solidity >=0.4.22 <0.9.0;\n\n/**\n * Maintains record of historical pricing for quoting\n */\n\ncontract Historical {\n    struct Quote {\n        uint256 timestamp;\n        string symbol;\n        uint256 volume;\n        uint256 bid;\n        uint256 ask;\n    }\n\n    mapping (address => Quote[]) public quotes;\n\n    constructor() {\n\n    }\n\n    function addQuote(address token,string memory symbol,uint256 volume,uint256 bid,uint256 ask) external {\n        quotes[token].push(Quote(block.timestamp,symbol,volume,bid,ask));\n    }\n\n    function getHistorical(address token) external view returns (Quote[] memory) {\n        return quotes[token];\n    }\n\n    /**\n      * FIXME: Error: invalid BigNumber string (argument=\"value\", value=\"NaN\", code=INVALID_ARGUMENT, version=bignumber/5.6.2)\n      *\n    function getHistoricalByRange(address token,uint256 beginning,uint256 ending) external view returns (Quote[] memory) {\n        Quote[] memory _quotes;\n        uint256 index=0;\n        for (uint256 i=0; i < quotes[token].length; i++) {\n            if (quotes[token][i].timestamp >= beginning && quotes[token][i].timestamp < ending) {\n                uint256 timestamp = quotes[token][i].timestamp;\n                string memory symbol = quotes[token][i].symbol;\n                uint256 volume = quotes[token][i].volume;\n                uint256 bid = quotes[token][i].bid;\n                uint256 ask = quotes[token][i].ask;\n                _quotes[index++] = Quote(timestamp,symbol,volume,bid,ask);\n            }\n        }\n        return _quotes;\n    }\n    */\n\n}",
  "sourcePath": "/Volumes/My Book/projects/pingleware-contracts/contracts/finance/elmx/Historical.sol",
  "compiler": {
    "name": "solc",
    "version": "0.8.18+commit.87f61d96.Emscripten.clang"
  },
  "schemaVersion": "3.4.12",
  "updatedAt": "2023-10-28T05:48:13.551Z",
  "networkType": "ethereum",
  "devdoc": {
    "kind": "dev",
    "methods": {},
    "version": 1
  },
  "userdoc": {
    "kind": "user",
    "methods": {},
    "notice": "Maintains record of historical pricing for quoting",
    "version": 1
  }
}