{
  "contractName": "HouseOfRepresentatives",
  "abi": [
    {
      "inputs": [],
      "stateMutability": "nonpayable",
      "type": "constructor"
    },
    {
      "anonymous": false,
      "inputs": [
        {
          "indexed": false,
          "internalType": "uint256",
          "name": "billId",
          "type": "uint256"
        },
        {
          "indexed": false,
          "internalType": "address",
          "name": "sponsor",
          "type": "address"
        },
        {
          "indexed": false,
          "internalType": "string",
          "name": "title",
          "type": "string"
        }
      ],
      "name": "BillIntroduced",
      "type": "event"
    },
    {
      "anonymous": false,
      "inputs": [
        {
          "indexed": false,
          "internalType": "uint256",
          "name": "billId",
          "type": "uint256"
        },
        {
          "indexed": false,
          "internalType": "enum HouseOfRepresentatives.BillStatus",
          "name": "status",
          "type": "uint8"
        }
      ],
      "name": "BillStatusChange",
      "type": "event"
    },
    {
      "anonymous": false,
      "inputs": [
        {
          "indexed": false,
          "internalType": "string",
          "name": "certificate",
          "type": "string"
        }
      ],
      "name": "HouseCertificateSet",
      "type": "event"
    },
    {
      "inputs": [
        {
          "internalType": "string",
          "name": "",
          "type": "string"
        }
      ],
      "name": "houseCertificate",
      "outputs": [
        {
          "internalType": "string",
          "name": "",
          "type": "string"
        }
      ],
      "stateMutability": "view",
      "type": "function"
    },
    {
      "inputs": [
        {
          "internalType": "uint256",
          "name": "",
          "type": "uint256"
        }
      ],
      "name": "members",
      "outputs": [
        {
          "internalType": "address",
          "name": "",
          "type": "address"
        }
      ],
      "stateMutability": "view",
      "type": "function"
    },
    {
      "inputs": [
        {
          "internalType": "string",
          "name": "",
          "type": "string"
        }
      ],
      "name": "presidentElect",
      "outputs": [
        {
          "internalType": "string",
          "name": "",
          "type": "string"
        }
      ],
      "stateMutability": "view",
      "type": "function"
    },
    {
      "inputs": [],
      "name": "speaker",
      "outputs": [
        {
          "internalType": "address",
          "name": "",
          "type": "address"
        }
      ],
      "stateMutability": "view",
      "type": "function"
    },
    {
      "inputs": [
        {
          "internalType": "address",
          "name": "account",
          "type": "address"
        }
      ],
      "name": "isMember",
      "outputs": [
        {
          "internalType": "bool",
          "name": "",
          "type": "bool"
        }
      ],
      "stateMutability": "view",
      "type": "function"
    },
    {
      "inputs": [
        {
          "internalType": "address",
          "name": "newMember",
          "type": "address"
        }
      ],
      "name": "addMember",
      "outputs": [],
      "stateMutability": "nonpayable",
      "type": "function"
    },
    {
      "inputs": [
        {
          "internalType": "address",
          "name": "newRepresentative",
          "type": "address"
        }
      ],
      "name": "addRepresentative",
      "outputs": [],
      "stateMutability": "nonpayable",
      "type": "function"
    },
    {
      "inputs": [
        {
          "internalType": "string",
          "name": "title",
          "type": "string"
        }
      ],
      "name": "introduceBill",
      "outputs": [],
      "stateMutability": "nonpayable",
      "type": "function"
    },
    {
      "inputs": [
        {
          "internalType": "uint256",
          "name": "billId",
          "type": "uint256"
        },
        {
          "internalType": "enum HouseOfRepresentatives.BillStatus",
          "name": "status",
          "type": "uint8"
        }
      ],
      "name": "passBill",
      "outputs": [],
      "stateMutability": "nonpayable",
      "type": "function"
    },
    {
      "inputs": [
        {
          "internalType": "string",
          "name": "electionYear",
          "type": "string"
        },
        {
          "internalType": "string",
          "name": "name",
          "type": "string"
        }
      ],
      "name": "setPresidentElect",
      "outputs": [],
      "stateMutability": "nonpayable",
      "type": "function"
    },
    {
      "inputs": [
        {
          "internalType": "string",
          "name": "electionYear",
          "type": "string"
        }
      ],
      "name": "getPresidentElect",
      "outputs": [
        {
          "internalType": "string",
          "name": "",
          "type": "string"
        }
      ],
      "stateMutability": "view",
      "type": "function"
    },
    {
      "inputs": [
        {
          "internalType": "string",
          "name": "electionYear",
          "type": "string"
        },
        {
          "internalType": "string",
          "name": "certificate",
          "type": "string"
        }
      ],
      "name": "setHouseCertificate",
      "outputs": [],
      "stateMutability": "nonpayable",
      "type": "function"
    },
    {
      "inputs": [
        {
          "internalType": "string",
          "name": "electionYear",
          "type": "string"
        }
      ],
      "name": "getHouseCertificate",
      "outputs": [
        {
          "internalType": "string",
          "name": "",
          "type": "string"
        }
      ],
      "stateMutability": "view",
      "type": "function"
    }
  ],
  "bytecode": "0x608060405234801561001057600080fd5b5060008054600160a060020a03199081163390811783556001805480820182559084527fb10e2d527612073b26eecdfd717e6a320cf44b4afac2b0732d9fcbe2b7fa0cf6018054909216179055600355610cc68061006f6000396000f3fe608060405234801561001057600080fd5b50600436106100b25760e060020a60003504630c1d11a781146100b757806346c28a08146100cc5780635daf08ca146100df57806372e2ed031461010f578063840931c61461012f5780638ae9fd1914610142578063a230c52414610155578063b347dd8114610178578063ba3addc91461018b578063ca6d56dc14610142578063df215db21461019e578063e7b96ce5146101b1578063f2d8afb0146101c4575b600080fd5b6100ca6100c5366004610883565b6101d7565b005b6100ca6100da3660046108e6565b610274565b6100f26100ed366004610922565b6103d7565b604051600160a060020a0390911681526020015b60405180910390f35b61012261011d3660046108e6565b610401565b604051610106919061098b565b6000546100f290600160a060020a031681565b6100ca6101503660046109a5565b6104a6565b6101686101633660046109a5565b610524565b6040519015158152602001610106565b6101226101863660046108e6565b61058d565b6100ca6101993660046109ce565b61063d565b6101226101ac3660046108e6565b61074a565b6100ca6101bf366004610883565b61075c565b6101226101d23660046108e6565b6107b9565b600054600160a060020a0316331461020d5760405160e560020a62461bcd02815260040161020490610a02565b60405180910390fd5b8060048360405161021e9190610a5b565b908152602001604051809103902090816102389190610b03565b507f8a8fdae6edf0f67263b53723a3a049eefdcf24f42e39a4ab231bee57a798f70e81604051610268919061098b565b60405180910390a15050565b61027d33610524565b6102e35760405160e560020a62461bcd02815260206004820152602b60248201527f4f6e6c7920486f757365206d656d626572732063616e20706572666f726d2074604482015260a960020a6a3434b99030b1ba34b7b717026064820152608401610204565b600380549060006102f383610bc8565b909155505060408051608081018252600354815233602082015290810182905260608101600090526003546000908152600260208181526040928390208451815590840151600182018054600160a060020a031916600160a060020a03909216919091179055918301519082019061036b9082610b03565b50606082015160038201805460ff1916600183600281111561038f5761038f610bf3565b02179055509050507f37857be678fc43a22c7cce89173b9ca3e4d048fd6c0fca4854aeec4a3a0e2f6960035433836040516103cc93929190610c0d565b60405180910390a150565b600181815481106103e757600080fd5b600091825260209091200154600160a060020a0316905081565b80516020818301810180516004825292820191909301209152805461042590610a77565b80601f016020809104026020016040519081016040528092919081815260200182805461045190610a77565b801561049e5780601f106104735761010080835404028352916020019161049e565b820191906000526020600020905b81548152906001019060200180831161048157829003601f168201915b505050505081565b600054600160a060020a031633146104d35760405160e560020a62461bcd02815260040161020490610a02565b6001805480820182556000919091527fb10e2d527612073b26eecdfd717e6a320cf44b4afac2b0732d9fcbe2b7fa0cf6018054600160a060020a031916600160a060020a0392909216919091179055565b6000805b6001548110156105845782600160a060020a03166001828154811061054f5761054f610c40565b600091825260209091200154600160a060020a0316036105725750600192915050565b8061057c81610bc8565b915050610528565b50600092915050565b606060058260405161059f9190610a5b565b908152602001604051809103902080546105b890610a77565b80601f01602080910402602001604051908101604052809291908181526020018280546105e490610a77565b80156106315780601f1061060657610100808354040283529160200191610631565b820191906000526020600020905b81548152906001019060200180831161061457829003601f168201915b50505050509050919050565b600054600160a060020a0316331461066a5760405160e560020a62461bcd02815260040161020490610a02565b600082815260026020819052604082206003015460ff169081111561069157610691610bf3565b146106e15760405160e560020a62461bcd02815260206004820152601c60248201527f546869732062696c6c2063616e6e6f74206265206368616e6765642e000000006044820152606401610204565b60008281526002602081905260409091206003018054839260ff1990911690600190849081111561071457610714610bf3565b02179055507fcb2f5d9b75374e2f47d0fb8fb90447b80c7e9a633b7272375579232228b1e6a48282604051610268929190610c5a565b606060048260405161059f9190610a5b565b600054600160a060020a031633146107895760405160e560020a62461bcd02815260040161020490610a02565b8060058360405161079a9190610a5b565b908152602001604051809103902090816107b49190610b03565b505050565b80516020818301810180516005825292820191909301209152805461042590610a77565b60e060020a634e487b710260009081526041600452602490fd5b600082601f83011261080857600080fd5b81356001604060020a0380821115610822576108226107dd565b604051601f8301601f19908116603f0116810190828211818310171561084a5761084a6107dd565b8160405283815286602085880101111561086357600080fd5b836020870160208301376000602085830101528094505050505092915050565b6000806040838503121561089657600080fd5b82356001604060020a03808211156108ad57600080fd5b6108b9868387016107f7565b935060208501359150808211156108cf57600080fd5b506108dc858286016107f7565b9150509250929050565b6000602082840312156108f857600080fd5b81356001604060020a0381111561090e57600080fd5b61091a848285016107f7565b949350505050565b60006020828403121561093457600080fd5b5035919050565b60005b8381101561095657818101518382015260200161093e565b50506000910152565b6000815180845261097781602086016020860161093b565b601f01601f19169290920160200192915050565b60208152600061099e602083018461095f565b9392505050565b6000602082840312156109b757600080fd5b8135600160a060020a038116811461099e57600080fd5b600080604083850312156109e157600080fd5b823591506020830135600381106109f757600080fd5b809150509250929050565b60208082526036908201527f4f6e6c792074686520537065616b6572206f662074686520486f7573652063616040820152605160020a7537103832b93337b936903a3434b99030b1ba34b7b71702606082015260800190565b60008251610a6d81846020870161093b565b9190910192915050565b600281046001821680610a8b57607f821691505b602082108103610aaf5760e060020a634e487b710260009081526022600452602490fd5b50919050565b601f8211156107b4576000818152602081206020601f86010481016020861015610adc5750805b6020601f860104820191505b81811015610afb57828155600101610ae8565b505050505050565b81516001604060020a03811115610b1c57610b1c6107dd565b610b3081610b2a8454610a77565b84610ab5565b602080601f831160018114610b695760008415610b4d5750858301515b60028086026008870290910a6000190419821617865550610afb565b600085815260208120601f198616915b82811015610b9857888601518255948401946001909101908401610b79565b5085821015610bb857878501516008601f88160260020a60001904191681555b5050505050600202600101905550565b600060018201610bec5760e060020a634e487b710260009081526011600452602490fd5b5060010190565b60e060020a634e487b710260009081526021600452602490fd5b838152600160a060020a0383166020820152606060408201819052600090610c379083018461095f565b95945050505050565b60e060020a634e487b710260009081526032600452602490fd5b8281526040810160038310610c835760e060020a634e487b710260009081526021600452602490fd5b826020830152939250505056fea26469706673582212201e8ae26f3d1b317dd6a63dbf89eabb095873a712f920c24e7367d596a47e90ab64736f6c63430008120033",
  "immutableReferences": {},
  "source": "// SPDX-License-Identifier: BSL-1.1\npragma solidity >=0.4.22 <0.9.0;\n\n\ncontract HouseOfRepresentatives {\n    address public speaker;\n    address[] public members;\n\n    enum BillStatus { Introduced, Passed, Failed }\n\n    struct Bill {\n        uint256 billId;\n        address sponsor;\n        string title;\n        BillStatus status;\n    }\n\n    mapping(uint256 => Bill) private bills;\n    uint256 private billCounter;\n    mapping(string => string) public houseCertificate;\n    mapping(string => string) public presidentElect;\n\n    event BillIntroduced(uint256 billId, address sponsor, string title);\n    event BillStatusChange(uint256 billId, BillStatus status);\n    event HouseCertificateSet(string certificate);\n\n    modifier onlySpeaker() {\n        require(msg.sender == speaker, \"Only the Speaker of the House can perform this action.\");\n        _;\n    }\n\n    modifier onlyMember() {\n        require(isMember(msg.sender), \"Only House members can perform this action.\");\n        _;\n    }\n\n    modifier onlyRepresentative() {\n        require(isMember(msg.sender), \"Only Representatives can perform this action.\");\n        _;\n    }\n\n    constructor() {\n        speaker = msg.sender;\n        members.push(msg.sender);\n        billCounter = 0;\n    }\n\n    function isMember(address account) public view returns (bool) {\n        for (uint256 i = 0; i < members.length; i++) {\n            if (members[i] == account) {\n                return true;\n            }\n        }\n        return false;\n    }\n\n    function addMember(address newMember) public onlySpeaker {\n        members.push(newMember);\n    }\n\n    function addRepresentative(address newRepresentative) public onlySpeaker {\n        members.push(newRepresentative);\n    }\n\n    function introduceBill(string memory title) public virtual onlyMember {\n        billCounter++;\n        bills[billCounter] = Bill(billCounter, msg.sender, title, BillStatus.Introduced);\n        emit BillIntroduced(billCounter, msg.sender, title);\n    }\n\n    function passBill(uint256 billId, BillStatus status) public onlySpeaker {\n        require(bills[billId].status == BillStatus.Introduced, \"This bill cannot be changed.\");\n        bills[billId].status = status;\n        emit BillStatusChange(billId, status);\n    }\n\n    function setPresidentElect(string memory electionYear,string memory name) public onlySpeaker {\n        presidentElect[electionYear] = name;\n    }\n\n    function getPresidentElect(string memory electionYear) public view returns (string memory) {\n        return presidentElect[electionYear];\n    }\n\n\n    // Only the owner (presumably a trusted authority) can set the House certificate\n    function setHouseCertificate(string memory electionYear,string memory certificate) public onlySpeaker {\n        houseCertificate[electionYear] = certificate;\n        emit HouseCertificateSet(certificate);\n    }\n\n    function getHouseCertificate(string memory electionYear) public view returns (string memory) {\n        return houseCertificate[electionYear];\n    }\n}\n",
  "sourcePath": "/Volumes/My Book/projects/pingleware-contracts/contracts/government/federal/HouseOfRepresentatives.sol",
  "compiler": {
    "name": "solc",
    "version": "0.8.18+commit.87f61d96.Emscripten.clang"
  },
  "schemaVersion": "3.4.12",
  "updatedAt": "2023-10-24T17:43:07.174Z",
  "devdoc": {
    "kind": "dev",
    "methods": {},
    "version": 1
  },
  "userdoc": {
    "kind": "user",
    "methods": {},
    "version": 1
  }
}