{
  "contractName": "HouseOfRepresentatives",
  "abi": [
    {
      "inputs": [],
      "stateMutability": "nonpayable",
      "type": "constructor"
    },
    {
      "anonymous": false,
      "inputs": [
        {
          "indexed": false,
          "internalType": "uint256",
          "name": "billId",
          "type": "uint256"
        },
        {
          "indexed": false,
          "internalType": "address",
          "name": "sponsor",
          "type": "address"
        },
        {
          "indexed": false,
          "internalType": "string",
          "name": "title",
          "type": "string"
        }
      ],
      "name": "BillIntroduced",
      "type": "event"
    },
    {
      "anonymous": false,
      "inputs": [
        {
          "indexed": false,
          "internalType": "uint256",
          "name": "billId",
          "type": "uint256"
        },
        {
          "indexed": false,
          "internalType": "enum HouseOfRepresentatives.BillStatus",
          "name": "status",
          "type": "uint8"
        }
      ],
      "name": "BillStatusChange",
      "type": "event"
    },
    {
      "anonymous": false,
      "inputs": [
        {
          "indexed": false,
          "internalType": "string",
          "name": "certificate",
          "type": "string"
        }
      ],
      "name": "HouseCertificateSet",
      "type": "event"
    },
    {
      "inputs": [
        {
          "internalType": "string",
          "name": "",
          "type": "string"
        }
      ],
      "name": "houseCertificate",
      "outputs": [
        {
          "internalType": "string",
          "name": "",
          "type": "string"
        }
      ],
      "stateMutability": "view",
      "type": "function"
    },
    {
      "inputs": [
        {
          "internalType": "uint256",
          "name": "",
          "type": "uint256"
        }
      ],
      "name": "members",
      "outputs": [
        {
          "internalType": "address",
          "name": "",
          "type": "address"
        }
      ],
      "stateMutability": "view",
      "type": "function"
    },
    {
      "inputs": [
        {
          "internalType": "string",
          "name": "",
          "type": "string"
        }
      ],
      "name": "presidentElect",
      "outputs": [
        {
          "internalType": "string",
          "name": "",
          "type": "string"
        }
      ],
      "stateMutability": "view",
      "type": "function"
    },
    {
      "inputs": [],
      "name": "speaker",
      "outputs": [
        {
          "internalType": "address",
          "name": "",
          "type": "address"
        }
      ],
      "stateMutability": "view",
      "type": "function"
    },
    {
      "inputs": [
        {
          "internalType": "address",
          "name": "account",
          "type": "address"
        }
      ],
      "name": "isMember",
      "outputs": [
        {
          "internalType": "bool",
          "name": "",
          "type": "bool"
        }
      ],
      "stateMutability": "view",
      "type": "function"
    },
    {
      "inputs": [
        {
          "internalType": "address",
          "name": "newMember",
          "type": "address"
        }
      ],
      "name": "addMember",
      "outputs": [],
      "stateMutability": "nonpayable",
      "type": "function"
    },
    {
      "inputs": [
        {
          "internalType": "address",
          "name": "newRepresentative",
          "type": "address"
        }
      ],
      "name": "addRepresentative",
      "outputs": [],
      "stateMutability": "nonpayable",
      "type": "function"
    },
    {
      "inputs": [
        {
          "internalType": "string",
          "name": "title",
          "type": "string"
        }
      ],
      "name": "introduceBill",
      "outputs": [],
      "stateMutability": "nonpayable",
      "type": "function"
    },
    {
      "inputs": [
        {
          "internalType": "uint256",
          "name": "billId",
          "type": "uint256"
        },
        {
          "internalType": "enum HouseOfRepresentatives.BillStatus",
          "name": "status",
          "type": "uint8"
        }
      ],
      "name": "passBill",
      "outputs": [],
      "stateMutability": "nonpayable",
      "type": "function"
    },
    {
      "inputs": [
        {
          "internalType": "string",
          "name": "electionYear",
          "type": "string"
        },
        {
          "internalType": "string",
          "name": "name",
          "type": "string"
        }
      ],
      "name": "setPresidentElect",
      "outputs": [],
      "stateMutability": "nonpayable",
      "type": "function"
    },
    {
      "inputs": [
        {
          "internalType": "string",
          "name": "electionYear",
          "type": "string"
        }
      ],
      "name": "getPresidentElect",
      "outputs": [
        {
          "internalType": "string",
          "name": "",
          "type": "string"
        }
      ],
      "stateMutability": "view",
      "type": "function"
    },
    {
      "inputs": [
        {
          "internalType": "string",
          "name": "electionYear",
          "type": "string"
        },
        {
          "internalType": "string",
          "name": "certificate",
          "type": "string"
        }
      ],
      "name": "setHouseCertificate",
      "outputs": [],
      "stateMutability": "nonpayable",
      "type": "function"
    },
    {
      "inputs": [
        {
          "internalType": "string",
          "name": "electionYear",
          "type": "string"
        }
      ],
      "name": "getHouseCertificate",
      "outputs": [
        {
          "internalType": "string",
          "name": "",
          "type": "string"
        }
      ],
      "stateMutability": "view",
      "type": "function"
    }
  ],
  "bytecode": "0x608080604052346100d95760008054600160a060020a031990811633178255600154680100000000000000008110156100ac57600181018060015581101561007f57600183527fb10e2d527612073b26eecdfd717e6a320cf44b4afac2b0732d9fcbe2b7fa0cf601805490911633179055600355610d7b90816100df8239f35b6024837f4e487b710000000000000000000000000000000000000000000000000000000081526032600452fd5b6024837f4e487b710000000000000000000000000000000000000000000000000000000081526041600452fd5b600080fdfe6040608081526004908136101561001557600080fd5b600060e060020a813504630c1d11a781146107d857806346c28a08146105195780635daf08ca146104d257806372e2ed03146102a1578063840931c6146104aa5780638ae9fd19146102ff578063a230c5241461046c578063b347dd8114610430578063ba3addc91461032f578063ca6d56dc146102ff578063df215db2146102a1578063e7b96ce5146101285763f2d8afb0146100b257600080fd5b34610125576020366003190112610125578235906001604060020a03821161012557506100ff60206100ed6101219561010e943691016109af565b81855193828580945193849201610a85565b81016005815203019020610ae7565b9051918291602083526020830190610b8c565b0390f35b80fd5b50903461029d5761013836610a0a565b909161014f600160a060020a038554163314610c2e565b5182818094516101658160209788809601610a85565b81016005815203019020918151916001604060020a0383116102875790829161018e8554610aa8565b601f8111610237575b5081601f84116001146101d0575085926101c5575b5050816002029160080260020a60001904191617905580f35b0151905084806101ac565b8587528087209350601f1985169087905b82821061021f5750509160029391856001969410610204575b5050500201905580f35b01516008601f841602840a60001904191690558580806101fa565b806001869782949787015181550196019401906101e1565b909192508486528286208380601f87010482019281871061027d575b94601f87969594939295010401905b81811061026f5750610197565b878155859450600101610262565b9192508291610253565b60e060020a634e487b7102855260418652602485fd5b5080fd5b5034610125576020366003190112610125578235906001604060020a03821161012557506102f16020610121946102de61010e94369083016109af565b9082865194838680955193849201610a85565b820190815203019020610ae7565b50823461029d57602036600319011261029d5735600160a060020a038116810361029d5761032c90610c9f565b80f35b50903461029d578060031936011261029d57823560243593600385101561042c57610365600160a060020a038554163314610c2e565b818452600260205260ff60038486200154166003811015610416576103cd57508293817fcb2f5d9b75374e2f47d0fb8fb90447b80c7e9a633b7272375579232228b1e6a4945260026020526103bf81600385882001610cf3565b82519182526020820152a180f35b825160e560020a62461bcd028152602091810191909152601c60248201527f546869732062696c6c2063616e6e6f74206265206368616e6765642e000000006044820152606490fd5b60e060020a634e487b7102855260218252602485fd5b8380fd5b5034610125576020366003190112610125578235906001604060020a03821161012557506100ff60206100ed6101219561010e943691016109af565b5091346104a65760203660031901126104a6573591600160a060020a0383168303610125575061049d602092610bda565b90519015158152f35b8280fd5b50903461029d578160031936011261029d5790549051600160a060020a039091168152602090f35b5091346104a65760203660031901126104a657359160015483101561012557506104fd602092610a50565b90549151600890910260020a909104600160a060020a03168152f35b50903461029d57602090816003193601126104a6576001604060020a0384358181116107d45761054c90369087016109af565b9061055633610bda565b1561077757610566600354610bb1565b80600355835191608083018381108282111761076157855281835233868401908152838601858152606085018981529389526002808952878a2095518655915160018087018054600160a060020a031916600160a060020a03939093169290921790915590518051868401949093929190841161074b576105e78554610aa8565b601f8111610707575b508991601f85116001146106a357508a92919084610698575b505082810292600802900a6000190419161790555b51906003821015610682579161065d61067c9260037f37857be678fc43a22c7cce89173b9ca3e4d048fd6c0fca4854aeec4a3a0e2f6997969501610cf3565b6060600354938051958695865233908601528401526060830190610b8c565b0390a180f35b60e060020a634e487b7102865260218752602486fd5b015191503880610609565b858c528a8c20909492909183601f1981168e8e5b898383106106ef57505050106106d4575b5050500201905561061e565b01516008601f841602840a60001904191690553880806106c8565b8686015188559096019594850194879350018e6106b7565b858c528a8c208b80601f880104820192818810610741575b601f0104019083905b8281106107365750506105f0565b8d8155018390610728565b919250829161071f565b60e060020a634e487b71028b5260418c5260248bfd5b60e060020a634e487b7102885260418952602488fd5b825160e560020a62461bcd028152808701859052602b60248201527f4f6e6c7920486f757365206d656d626572732063616e20706572666f726d2074604482015260a960020a6a3434b99030b1ba34b7b717026064820152608490fd5b8480fd5b50903461029d576107e836610a0a565b919093610800600160a060020a038554163314610c2e565b815185818097516108178160209a8b809601610a85565b810184815203019020835190916001604060020a03821161095c575061083d8254610aa8565b601f811161091b575b5085601f82116001146108a35791818697949261067c94600080516020610d268339815191529891610898575b50816002029160080260020a6000190419161790555b51928284938452830190610b8c565b905086015138610873565b82865286862090601f198316875b81811061090457508361067c9593600193600080516020610d268339815191529a9b9896600294106108e9575b505002019055610889565b8901516008601f841602840a600019041916905538806108de565b91928960018192868b0151815501940192016108b1565b8286528686208780601f850104820192818510610952575b601f010401905b8181106109475750610846565b86815560010161093a565b9192508291610933565b60e060020a634e487b7102865260419052602485fd5b601f909101601f19168101906001604060020a0382119082101761099557604052565b60e060020a634e487b710260009081526041600452602490fd5b81601f82011215610a05578035906001604060020a03821161099557604051926109e3601f8401601f191660200185610972565b82845260208383010111610a0557816000926020809301838601378301015290565b600080fd5b906040600319830112610a05576001604060020a03600435818111610a055783610a36916004016109af565b92602435918211610a0557610a4d916004016109af565b90565b600154811015610a6b57600160005260206000200190600090565b60e060020a634e487b710260009081526032600452602490fd5b60005b838110610a985750506000910152565b8181015183820152602001610a88565b9060016002830492168015610add575b6020831014610ac357565b60e060020a634e487b710260009081526022600452602490fd5b91607f1691610ab8565b9060405191826000825492610afb84610aa8565b908184526001948581169081600014610b6a5750600114610b27575b5050610b2592500383610972565b565b9093915060005260209081600020936000915b818310610b52575050610b2593508201013880610b17565b85548884018501529485019487945091830191610b3a565b915050610b2594506020925060ff191682840152151581028201013880610b17565b90602091610ba581518092818552858086019101610a85565b601f01601f1916010190565b6000198114610bc05760010190565b60e060020a634e487b710260009081526011600452602490fd5b600180549160005b838110610bf25750505050600090565b610bfb81610a50565b9054600160a060020a03848116600890930260020a9091041614610c2757610c2290610bb1565b610be2565b5050905090565b15610c3557565b60405160e560020a62461bcd02815260206004820152603660248201527f4f6e6c792074686520537065616b6572206f662074686520486f7573652063616044820152605160020a7537103832b93337b936903a3434b99030b1ba34b7b717026064820152608490fd5b600054600160a060020a0390610cb89082163314610c2e565b600154604060020a81101561099557806001610cd79201600155610a50565b909260088454920260020a808402938492160216911916179055565b906003811015610d0b5760ff80198354169116179055565b60e060020a634e487b710260009081526021600452602490fdfe8a8fdae6edf0f67263b53723a3a049eefdcf24f42e39a4ab231bee57a798f70ea2646970667358221220a1f6fb33f432c5e19d6ee83fef0f1c0c6abb46125f2c08a1b045f48ee97f755164736f6c63430008120033",
  "immutableReferences": {},
  "source": "// SPDX-License-Identifier: BSL-1.1\npragma solidity >=0.4.22 <0.9.0;\n\n\ncontract HouseOfRepresentatives {\n    address public speaker;\n    address[] public members;\n\n    enum BillStatus { Introduced, Passed, Failed }\n\n    struct Bill {\n        uint256 billId;\n        address sponsor;\n        string title;\n        BillStatus status;\n    }\n\n    mapping(uint256 => Bill) private bills;\n    uint256 private billCounter;\n    mapping(string => string) public houseCertificate;\n    mapping(string => string) public presidentElect;\n\n    event BillIntroduced(uint256 billId, address sponsor, string title);\n    event BillStatusChange(uint256 billId, BillStatus status);\n    event HouseCertificateSet(string certificate);\n\n    modifier onlySpeaker() {\n        require(msg.sender == speaker, \"Only the Speaker of the House can perform this action.\");\n        _;\n    }\n\n    modifier onlyMember() {\n        require(isMember(msg.sender), \"Only House members can perform this action.\");\n        _;\n    }\n\n    modifier onlyRepresentative() {\n        require(isMember(msg.sender), \"Only Representatives can perform this action.\");\n        _;\n    }\n\n    constructor() {\n        speaker = msg.sender;\n        members.push(msg.sender);\n        billCounter = 0;\n    }\n\n    function isMember(address account) public view returns (bool) {\n        for (uint256 i = 0; i < members.length; i++) {\n            if (members[i] == account) {\n                return true;\n            }\n        }\n        return false;\n    }\n\n    function addMember(address newMember) public onlySpeaker {\n        members.push(newMember);\n    }\n\n    function addRepresentative(address newRepresentative) public onlySpeaker {\n        members.push(newRepresentative);\n    }\n\n    function introduceBill(string memory title) public virtual onlyMember {\n        billCounter++;\n        bills[billCounter] = Bill(billCounter, msg.sender, title, BillStatus.Introduced);\n        emit BillIntroduced(billCounter, msg.sender, title);\n    }\n\n    function passBill(uint256 billId, BillStatus status) public onlySpeaker {\n        require(bills[billId].status == BillStatus.Introduced, \"This bill cannot be changed.\");\n        bills[billId].status = status;\n        emit BillStatusChange(billId, status);\n    }\n\n    function setPresidentElect(string memory electionYear,string memory name) public onlySpeaker {\n        presidentElect[electionYear] = name;\n    }\n\n    function getPresidentElect(string memory electionYear) public view returns (string memory) {\n        return presidentElect[electionYear];\n    }\n\n\n    // Only the owner (presumably a trusted authority) can set the House certificate\n    function setHouseCertificate(string memory electionYear,string memory certificate) public onlySpeaker {\n        houseCertificate[electionYear] = certificate;\n        emit HouseCertificateSet(certificate);\n    }\n\n    function getHouseCertificate(string memory electionYear) public view returns (string memory) {\n        return houseCertificate[electionYear];\n    }\n}\n",
  "sourcePath": "/Volumes/HOME/pingleware-contracts/contracts/government/federal/HouseOfRepresentatives.sol",
  "compiler": {
    "name": "solc",
    "version": "0.8.18+commit.87f61d96.Emscripten.clang"
  },
  "schemaVersion": "3.4.12",
  "updatedAt": "2024-05-23T18:56:26.175Z",
  "devdoc": {
    "kind": "dev",
    "methods": {},
    "version": 1
  },
  "userdoc": {
    "kind": "user",
    "methods": {},
    "version": 1
  }
}