{
  "contractName": "ICO",
  "abi": [
    {
      "inputs": [
        {
          "internalType": "string",
          "name": "_campaignUrl",
          "type": "string"
        },
        {
          "internalType": "address",
          "name": "_addressOfTokenUsedAsReward",
          "type": "address"
        }
      ],
      "stateMutability": "nonpayable",
      "type": "constructor"
    },
    {
      "anonymous": false,
      "inputs": [
        {
          "indexed": false,
          "internalType": "address",
          "name": "_beneficiaryAddress",
          "type": "address"
        }
      ],
      "name": "LogBeneficiaryPaid",
      "type": "event"
    },
    {
      "anonymous": false,
      "inputs": [
        {
          "indexed": false,
          "internalType": "address",
          "name": "_addr",
          "type": "address"
        },
        {
          "indexed": false,
          "internalType": "uint256",
          "name": "_amount",
          "type": "uint256"
        }
      ],
      "name": "LogContributorsPayout",
      "type": "event"
    },
    {
      "anonymous": false,
      "inputs": [
        {
          "indexed": false,
          "internalType": "address",
          "name": "_creator",
          "type": "address"
        },
        {
          "indexed": false,
          "internalType": "string",
          "name": "_url",
          "type": "string"
        },
        {
          "indexed": false,
          "internalType": "uint256",
          "name": "_ICOdeadline",
          "type": "uint256"
        }
      ],
      "name": "LogFunderInitialized",
      "type": "event"
    },
    {
      "anonymous": false,
      "inputs": [
        {
          "indexed": false,
          "internalType": "address",
          "name": "_addr",
          "type": "address"
        },
        {
          "indexed": false,
          "internalType": "uint256",
          "name": "_amount",
          "type": "uint256"
        },
        {
          "indexed": false,
          "internalType": "uint256",
          "name": "_currentTotal",
          "type": "uint256"
        }
      ],
      "name": "LogFundingReceived",
      "type": "event"
    },
    {
      "anonymous": false,
      "inputs": [
        {
          "indexed": false,
          "internalType": "uint256",
          "name": "_totalRaised",
          "type": "uint256"
        }
      ],
      "name": "LogFundingSuccessful",
      "type": "event"
    },
    {
      "inputs": [],
      "name": "ICOdeadline",
      "outputs": [
        {
          "internalType": "uint256",
          "name": "",
          "type": "uint256"
        }
      ],
      "stateMutability": "view",
      "type": "function"
    },
    {
      "inputs": [],
      "name": "campaignUrl",
      "outputs": [
        {
          "internalType": "string",
          "name": "",
          "type": "string"
        }
      ],
      "stateMutability": "view",
      "type": "function"
    },
    {
      "inputs": [],
      "name": "completedAt",
      "outputs": [
        {
          "internalType": "uint256",
          "name": "",
          "type": "uint256"
        }
      ],
      "stateMutability": "view",
      "type": "function"
    },
    {
      "inputs": [],
      "name": "creator",
      "outputs": [
        {
          "internalType": "address",
          "name": "",
          "type": "address"
        }
      ],
      "stateMutability": "view",
      "type": "function"
    },
    {
      "inputs": [],
      "name": "rate",
      "outputs": [
        {
          "internalType": "uint256",
          "name": "",
          "type": "uint256"
        }
      ],
      "stateMutability": "view",
      "type": "function"
    },
    {
      "inputs": [],
      "name": "startTime",
      "outputs": [
        {
          "internalType": "uint256",
          "name": "",
          "type": "uint256"
        }
      ],
      "stateMutability": "view",
      "type": "function"
    },
    {
      "inputs": [],
      "name": "state",
      "outputs": [
        {
          "internalType": "enum ICO.State",
          "name": "",
          "type": "uint8"
        }
      ],
      "stateMutability": "view",
      "type": "function"
    },
    {
      "inputs": [],
      "name": "tokenReward",
      "outputs": [
        {
          "internalType": "contract IERC20",
          "name": "",
          "type": "address"
        }
      ],
      "stateMutability": "view",
      "type": "function"
    },
    {
      "inputs": [],
      "name": "totalContributors",
      "outputs": [
        {
          "internalType": "uint256",
          "name": "",
          "type": "uint256"
        }
      ],
      "stateMutability": "view",
      "type": "function"
    },
    {
      "inputs": [],
      "name": "totalDistributed",
      "outputs": [
        {
          "internalType": "uint256",
          "name": "",
          "type": "uint256"
        }
      ],
      "stateMutability": "view",
      "type": "function"
    },
    {
      "inputs": [],
      "name": "totalRaised",
      "outputs": [
        {
          "internalType": "uint256",
          "name": "",
          "type": "uint256"
        }
      ],
      "stateMutability": "view",
      "type": "function"
    },
    {
      "inputs": [],
      "name": "version",
      "outputs": [
        {
          "internalType": "string",
          "name": "",
          "type": "string"
        }
      ],
      "stateMutability": "view",
      "type": "function"
    },
    {
      "stateMutability": "payable",
      "type": "receive"
    },
    {
      "inputs": [],
      "name": "contribute",
      "outputs": [],
      "stateMutability": "payable",
      "type": "function"
    },
    {
      "inputs": [],
      "name": "checkIfFundingCompleteOrExpired",
      "outputs": [],
      "stateMutability": "nonpayable",
      "type": "function"
    },
    {
      "inputs": [],
      "name": "finished",
      "outputs": [],
      "stateMutability": "nonpayable",
      "type": "function"
    }
  ],
  "bytecode": "0x6000805460ff1916905542600190815560c060405260809081527f310000000000000000000000000000000000000000000000000000000000000060a052600b906200004c9082620002fa565b503480156200005a57600080fd5b506040516200121a3803806200121a8339810160408190526200007d91620003e9565b600160a060020a038116620000f3576040517f08c379a000000000000000000000000000000000000000000000000000000000815260206004820152600f60248201527f6e6f207a65726f2061646472657373000000000000000000000000000000000060448201526064015b60405180910390fd5b60098054600160a060020a03191633179055600a620001138382620002fa565b5060088054600160a060020a031916600160a060020a038316179055610c8e600255600154620001559062530e80640100000000620001ab8102620009f41704565b60068190556009546040517fe45c210c1a671ddde7e84b97e8def2caf0970a0f9d007393efb89f7abb1f4f45926200019b92600160a060020a031691600a9190620004d1565b60405180910390a150506200057c565b6000828201838110156200021c576040517f08c379a000000000000000000000000000000000000000000000000000000000815260206004820152601b60248201527f536166654d6174683a206164646974696f6e206f766572666c6f7700000000006044820152606401620000ea565b9392505050565b7f4e487b7100000000000000000000000000000000000000000000000000000000600052604160045260246000fd5b6002810460018216806200026757607f821691505b602082108103620002a1577f4e487b7100000000000000000000000000000000000000000000000000000000600052602260045260246000fd5b50919050565b601f821115620002f5576000818152602081206020601f86010481016020861015620002d05750805b6020601f860104820191505b81811015620002f157828155600101620002dc565b5050505b505050565b81516001604060020a0381111562000316576200031662000223565b6200032e8162000327845462000252565b84620002a7565b602080601f8311600181146200036a57600084156200034d5750858301515b60028086026008870290910a6000190419821617865550620002f1565b600085815260208120601f198616915b828110156200039b578886015182559484019460019091019084016200037a565b5085821015620003bc57878501516008601f88160260020a60001904191681555b5050505050600202600101905550565b8051600160a060020a0381168114620003e457600080fd5b919050565b60008060408385031215620003fd57600080fd5b82516001604060020a03808211156200041557600080fd5b818501915085601f8301126200042a57600080fd5b8151818111156200043f576200043f62000223565b604051601f8201601f19908116603f011681019083821181831017156200046a576200046a62000223565b816040528281526020935088848487010111156200048757600080fd5b600091505b82821015620004ab57848201840151818301850152908301906200048c565b6000848483010152809650505050620004c6818601620003cc565b925050509250929050565b600160a060020a03841681526000602060608184015260008554620004f68162000252565b80606087015260806001808416600081146200051b5760018114620005355762000565565b60ff19851689840152831515870289018301955062000565565b8a6000528660002060005b858110156200055d5781548b820186015290830190880162000540565b8a0184019650505b505050505060409390930193909352509392505050565b610c8e806200058c6000396000f3fe6080604052600436106100bf5760e060020a600035046302d05d3f81146100d35780632c4e722e14610109578063387712421461012d57806354fd4d50146101435780636e66f6e91461016557806378e979251461018557806386f325861461019b578063936c9bc9146101b0578063bef4876b146101c6578063c19d93fb146101db578063c5c4744c14610202578063d7bb99ba14610218578063efca2eed14610220578063f251fc8c14610236578063fa4f55111461024c57600080fd5b366100ce576100cc610261565b005b600080fd5b3480156100df57600080fd5b506009546100f390600160a060020a031681565b6040516101009190610ad8565b60405180910390f35b34801561011557600080fd5b5061011f60025481565b604051908152602001610100565b34801561013957600080fd5b5061011f60075481565b34801561014f57600080fd5b50610158610501565b6040516101009190610aec565b34801561017157600080fd5b506008546100f390600160a060020a031681565b34801561019157600080fd5b5061011f60015481565b3480156101a757600080fd5b506100cc61058f565b3480156101bc57600080fd5b5061011f60065481565b3480156101d257600080fd5b506100cc610822565b3480156101e757600080fd5b506000546101f59060ff1681565b6040516101009190610b54565b34801561020e57600080fd5b5061011f60035481565b6100cc610261565b34801561022c57600080fd5b5061011f60045481565b34801561024257600080fd5b5061011f60055481565b34801561025857600080fd5b506101586109e7565b600860005460ff16600881111561027a5761027a610b3a565b0361028457600080fd5b6000610292600354346109f4565b6003556005546102a39060016109f4565b6005556002546102b4903490610a58565b90506000805460ff1660088111156102ce576102ce610b3a565b036102f2576102de81600e610a58565b90506102eb81600a610a58565b9050610405565b600160005460ff16600881111561030b5761030b610b3a565b0361031b576102de81600d610a58565b600260005460ff16600881111561033457610334610b3a565b036103515761034481607d610a58565b90506102eb816064610a58565b600360005460ff16600881111561036a5761036a610b3a565b0361037a576102de81600c610a58565b600460005460ff16600881111561039357610393610b3a565b036103a357610344816073610a58565b600560005460ff1660088111156103bc576103bc610b3a565b036103cc576102de81600b610a58565b600660005460ff1660088111156103e5576103e5610b3a565b03610405576103f5816069610a58565b9050610402816064610a58565b90505b610411600454826109f4565b600490815560085460405160e060020a63a9059cbb028152600160a060020a039091169163a9059cbb91610449913391869101610b80565b6020604051808303816000875af1158015610468573d6000803e3d6000fd5b505050506040513d601f19601f8201168201806040525081019061048c9190610b99565b506003546040805133815234602082015280820192909252517f304e48bb03eae5e9bf3575d270648664895983e116a51773a65e9f3341b3b40e9181900360600190a1600080516020610c3983398151915233826040516104ee929190610b80565b60405180910390a16104fe61058f565b50565b600b805461050e90610bbb565b80601f016020809104026020016040519081016040528092919081815260200182805461053a90610bbb565b80156105875780601f1061055c57610100808354040283529160200191610587565b820191906000526020600020905b81548152906001019060200180831161056a57829003601f168201915b505050505081565b6000805460ff1660088111156105a7576105a7610b3a565b1480156105c157506105be600154621275006109f4565b42115b156105dc57600080546001919060ff191682805b0217905550565b600160005460ff1660088111156105f5576105f5610b3a565b14801561060f575061060c600154621baf806109f4565b42115b1561062857600080546002919060ff19166001836105d5565b600260005460ff16600881111561064157610641610b3a565b14801561065b57506106586001546224ea006109f4565b42115b1561067457600080546003919060ff19166001836105d5565b600360005460ff16600881111561068d5761068d610b3a565b1480156106a757506106a4600154622e24806109f4565b42115b156106c057600080546004919060ff19166001836105d5565b600460005460ff1660088111156106d9576106d9610b3a565b1480156106f357506106f060015462375f006109f4565b42115b1561070c57600080546005919060ff19166001836105d5565b600560005460ff16600881111561072557610725610b3a565b14801561073f575061073c600154624099806109f4565b42115b1561075857600080546006919060ff19166001836105d5565b600660005460ff16600881111561077157610771610b3a565b14801561078b57506107886001546249d4006109f4565b42115b156107a457600080546007919060ff19166001836105d5565b600654421180156107cc5750600860005460ff1660088111156107c9576107c9610b3a565b14155b15610820576000805460ff19166008179055426007556003546040519081527fee94ee98208684c00eeba940c34a6060b93671b249abd182b4771b74bf94e2dd9060200160405180910390a1610820610822565b565b600860005460ff16600881111561083b5761083b610b3a565b1461084557600080fd5b60085460405160e060020a6370a08231028152600091600160a060020a0316906370a0823190610879903090600401610ad8565b602060405180830381865afa158015610896573d6000803e3d6000fd5b505050506040513d601f19601f820116820180604052508101906108ba9190610bf9565b600954604051919250600160a060020a031690303180156108fc02916000818181858888f193505050506108ed57600080fd5b60085460095460405160e060020a63a9059cbb028152600160a060020a039283169263a9059cbb92610926929116908590600401610b80565b6020604051808303816000875af1158015610945573d6000803e3d6000fd5b505050506040513d601f19601f820116820180604052508101906109699190610b99565b506009546040517f101a889b1c7c3bf4e0c37353cfe1554e47e39c747e25a6d330d0553dd93bd1eb916109a791600160a060020a0390911690610ad8565b60405180910390a1600954604051600080516020610c39833981519152916109dc91600160a060020a03909116908490610b80565b60405180910390a150565b600a805461050e90610bbb565b600082820183811015610a515760405160e560020a62461bcd02815260206004820152601b60248201527f536166654d6174683a206164646974696f6e206f766572666c6f77000000000060448201526064015b60405180910390fd5b9392505050565b600082820282158382048514151715610a7057600080fd5b82610a7b8583610c12565b14610a515760405160e560020a62461bcd02815260206004820152602160248201527f536166654d6174683a206d756c7469706c69636174696f6e206f766572666c6f604482015260f860020a6077026064820152608401610a48565b600160a060020a0391909116815260200190565b600060208083528351808285015260005b81811015610b1957858101830151858201604001528201610afd565b506000604082860101526040601f19601f8301168501019250505092915050565b60e060020a634e487b710260009081526021600452602490fd5b6020810160098310610b7a5760e060020a634e487b710260009081526021600452602490fd5b91905290565b600160a060020a03929092168252602082015260400190565b600060208284031215610bab57600080fd5b81518015158114610a5157600080fd5b600281046001821680610bcf57607f821691505b602082108103610bf35760e060020a634e487b710260009081526022600452602490fd5b50919050565b600060208284031215610c0b57600080fd5b5051919050565b600082610c335760e060020a634e487b710260009081526012600452602490fd5b50049056feaeb3ebd09ef847781ae7d846d2c9afbbb08cfbcad76e92d3206303aa30d24226a2646970667358221220093dc23739800f489133aadc2b79cdfffb7cd0504e25713fab35013208835a0964736f6c63430008120033",
  "immutableReferences": {},
  "source": "// SPDX-License-Identifier: CC-BY-4.0\r\npragma solidity >=0.4.22 <0.9.0;\r\n/**\r\n* @title ICO CONTRACT\r\n* @dev ERC-20 Token Standard Compliant\r\n* @author Fares A. Akel C. f.antonio.akel@gmail.com\r\n*/\r\nimport \"../../libs/SafeMath.sol\";\r\nimport \"../../interfaces/IERC20.sol\";\r\n\r\ncontract ICO {\r\n    using SafeMath for uint256;\r\n    //This ico have 5 states\r\n    enum State {\r\n        preico,\r\n        week1,\r\n        week2,\r\n        week3,\r\n        week4,\r\n        week5,\r\n        week6,\r\n        week7,\r\n        Successful\r\n    }\r\n\r\n    \r\n    //public variables\r\n    State public state = State.preico; //Set initial stage\r\n    uint256 public startTime = block.timestamp; //block-time when it was deployed\r\n    uint256 public rate;\r\n    uint256 public totalRaised; //eth in wei\r\n    uint256 public totalDistributed; //tokens\r\n    uint256 public totalContributors;\r\n    uint256 public ICOdeadline;\r\n    uint256 public completedAt;\r\n    IERC20 public tokenReward;\r\n    address public creator;\r\n    string public campaignUrl;\r\n    string public version = '1';\r\n\r\n    //events for log\r\n    event LogFundingReceived(address _addr, uint _amount, uint _currentTotal);\r\n    event LogBeneficiaryPaid(address _beneficiaryAddress);\r\n    event LogFundingSuccessful(uint _totalRaised);\r\n    event LogFunderInitialized(\r\n        address _creator,\r\n        string _url,\r\n        uint256 _ICOdeadline);\r\n    event LogContributorsPayout(address _addr, uint _amount);\r\n\r\n    modifier notFinished() {\r\n        require(state != State.Successful);\r\n        _;\r\n    }\r\n    /**\r\n    * @notice ICO constructor\r\n    * @param _campaignUrl is the ICO _url\r\n    * @param _addressOfTokenUsedAsReward is the token totalDistributed\r\n    */\r\n    constructor (string memory _campaignUrl,address _addressOfTokenUsedAsReward)\r\n    {\r\n        require(_addressOfTokenUsedAsReward!=address(0), \"no zero address\");\r\n\r\n        creator = msg.sender;\r\n        campaignUrl = _campaignUrl;\r\n        tokenReward = IERC20(_addressOfTokenUsedAsReward);\r\n        rate = 3214;\r\n        ICOdeadline = SafeMath.safeAdd(startTime,63 days); //9 weeks\r\n\r\n        emit LogFunderInitialized(\r\n            creator,\r\n            campaignUrl,\r\n            ICOdeadline);\r\n    }\r\n\r\n    /**\r\n    * @notice contribution handler\r\n    */\r\n    function contribute() public notFinished payable {\r\n\r\n        uint256 tokenBought = 0;\r\n\r\n        totalRaised = SafeMath.safeAdd(totalRaised,msg.value);\r\n        totalContributors = SafeMath.safeAdd(totalContributors,1);\r\n\r\n        tokenBought = SafeMath.safeMul(msg.value,rate);\r\n\r\n        //Rate of exchange depends on stage\r\n        if (state == State.preico){\r\n\r\n            tokenBought = SafeMath.safeMul(tokenBought,14);\r\n            tokenBought = SafeMath.safeMul(tokenBought,10); //14/10 = 1.4 = 140%\r\n        \r\n        } else if (state == State.week1){\r\n\r\n            tokenBought = SafeMath.safeMul(tokenBought,13);\r\n            tokenBought = SafeMath.safeMul(tokenBought,10); //13/10 = 1.3 = 130%\r\n\r\n        } else if (state == State.week2){\r\n\r\n            tokenBought = SafeMath.safeMul(tokenBought,125);\r\n            tokenBought = SafeMath.safeMul(tokenBought,100); //125/100 = 1.25 = 125%\r\n\r\n        } else if (state == State.week3){\r\n\r\n            tokenBought = SafeMath.safeMul(tokenBought,12);\r\n            tokenBought = SafeMath.safeMul(tokenBought,10); //12/10 = 1.2 = 120%\r\n\r\n        } else if (state == State.week4){\r\n\r\n            tokenBought = SafeMath.safeMul(tokenBought,115);\r\n            tokenBought = SafeMath.safeMul(tokenBought,100); //115/100 = 1.15 = 115%\r\n\r\n        } else if (state == State.week5){\r\n\r\n            tokenBought = SafeMath.safeMul(tokenBought,11);\r\n            tokenBought = SafeMath.safeMul(tokenBought,10); //11/10 = 1.10 = 110%\r\n\r\n        } else if (state == State.week6){\r\n\r\n            tokenBought = SafeMath.safeMul(tokenBought,105);\r\n            tokenBought = SafeMath.safeMul(tokenBought,100); //105/100 = 1.05 = 105%\r\n\r\n        }\r\n\r\n        totalDistributed = SafeMath.safeAdd(totalDistributed,tokenBought);\r\n        \r\n        tokenReward.transfer(msg.sender, tokenBought);\r\n\r\n        emit LogFundingReceived(msg.sender, msg.value, totalRaised);\r\n        emit LogContributorsPayout(msg.sender, tokenBought);\r\n        \r\n        checkIfFundingCompleteOrExpired();\r\n    }\r\n\r\n    /**\r\n    * @notice check status\r\n    */\r\n    function checkIfFundingCompleteOrExpired() public {\r\n\r\n        if(state == State.preico && block.timestamp > SafeMath.safeAdd(startTime,14 days)){\r\n\r\n            state = State.week1;\r\n\r\n        } else if(state == State.week1 && block.timestamp > SafeMath.safeAdd(startTime,21 days)){\r\n\r\n            state = State.week2;\r\n            \r\n        } else if(state == State.week2 && block.timestamp > SafeMath.safeAdd(startTime,28 days)){\r\n\r\n            state = State.week3;\r\n            \r\n        } else if(state == State.week3 && block.timestamp > SafeMath.safeAdd(startTime,35 days)){\r\n\r\n            state = State.week4;\r\n            \r\n        } else if(state == State.week4 && block.timestamp > SafeMath.safeAdd(startTime,42 days)){\r\n\r\n            state = State.week5;\r\n            \r\n        } else if(state == State.week5 && block.timestamp > SafeMath.safeAdd(startTime,49 days)){\r\n\r\n            state = State.week6;\r\n            \r\n        } else if(state == State.week6 && block.timestamp > SafeMath.safeAdd(startTime,56 days)){\r\n\r\n            state = State.week7;\r\n            \r\n        } else if(block.timestamp > ICOdeadline && state!=State.Successful ) { //if we reach ico deadline and its not Successful yet\r\n\r\n            state = State.Successful; //ico becomes Successful\r\n            completedAt = block.timestamp; //ICO is complete\r\n\r\n            emit LogFundingSuccessful(totalRaised); //we log the finish\r\n            finished(); //and execute closure\r\n        }\r\n    }\r\n\r\n    /**\r\n    * @notice closure handler\r\n    */\r\n    function finished() public { //When finished eth are transfered to creator\r\n\r\n        require(state == State.Successful);\r\n        uint256 remanent = tokenReward.balanceOf(address(this));\r\n\r\n        require(payable(creator).send(address(this).balance));\r\n        tokenReward.transfer(creator,remanent);\r\n\r\n        emit LogBeneficiaryPaid(creator);\r\n        emit LogContributorsPayout(creator, remanent);\r\n\r\n    }\r\n\r\n    /*\r\n    * @dev Direct payments handle\r\n    */\r\n\r\n    receive() external payable {\r\n        contribute();\r\n    }\r\n}",
  "sourcePath": "/Volumes/My Book/projects/pingleware-contracts/contracts/finance/equity/ICO.sol",
  "compiler": {
    "name": "solc",
    "version": "0.8.18+commit.87f61d96.Emscripten.clang"
  },
  "schemaVersion": "3.4.12",
  "updatedAt": "2023-10-22T00:34:42.267Z",
  "devdoc": {
    "kind": "dev",
    "methods": {
      "constructor": {
        "params": {
          "_addressOfTokenUsedAsReward": "is the token totalDistributed",
          "_campaignUrl": "is the ICO _url"
        }
      }
    },
    "version": 1
  },
  "userdoc": {
    "kind": "user",
    "methods": {
      "checkIfFundingCompleteOrExpired()": {
        "notice": "check status"
      },
      "constructor": {
        "notice": "ICO constructor"
      },
      "contribute()": {
        "notice": "contribution handler"
      },
      "finished()": {
        "notice": "closure handler"
      }
    },
    "version": 1
  }
}