{
  "contractName": "ICO",
  "abi": [
    {
      "inputs": [
        {
          "internalType": "string",
          "name": "_campaignUrl",
          "type": "string"
        },
        {
          "internalType": "address",
          "name": "_addressOfTokenUsedAsReward",
          "type": "address"
        }
      ],
      "stateMutability": "nonpayable",
      "type": "constructor"
    },
    {
      "anonymous": false,
      "inputs": [
        {
          "indexed": false,
          "internalType": "address",
          "name": "_beneficiaryAddress",
          "type": "address"
        }
      ],
      "name": "LogBeneficiaryPaid",
      "type": "event"
    },
    {
      "anonymous": false,
      "inputs": [
        {
          "indexed": false,
          "internalType": "address",
          "name": "_addr",
          "type": "address"
        },
        {
          "indexed": false,
          "internalType": "uint256",
          "name": "_amount",
          "type": "uint256"
        }
      ],
      "name": "LogContributorsPayout",
      "type": "event"
    },
    {
      "anonymous": false,
      "inputs": [
        {
          "indexed": false,
          "internalType": "address",
          "name": "_creator",
          "type": "address"
        },
        {
          "indexed": false,
          "internalType": "string",
          "name": "_url",
          "type": "string"
        },
        {
          "indexed": false,
          "internalType": "uint256",
          "name": "_ICOdeadline",
          "type": "uint256"
        }
      ],
      "name": "LogFunderInitialized",
      "type": "event"
    },
    {
      "anonymous": false,
      "inputs": [
        {
          "indexed": false,
          "internalType": "address",
          "name": "_addr",
          "type": "address"
        },
        {
          "indexed": false,
          "internalType": "uint256",
          "name": "_amount",
          "type": "uint256"
        },
        {
          "indexed": false,
          "internalType": "uint256",
          "name": "_currentTotal",
          "type": "uint256"
        }
      ],
      "name": "LogFundingReceived",
      "type": "event"
    },
    {
      "anonymous": false,
      "inputs": [
        {
          "indexed": false,
          "internalType": "uint256",
          "name": "_totalRaised",
          "type": "uint256"
        }
      ],
      "name": "LogFundingSuccessful",
      "type": "event"
    },
    {
      "inputs": [],
      "name": "ICOdeadline",
      "outputs": [
        {
          "internalType": "uint256",
          "name": "",
          "type": "uint256"
        }
      ],
      "stateMutability": "view",
      "type": "function"
    },
    {
      "inputs": [],
      "name": "campaignUrl",
      "outputs": [
        {
          "internalType": "string",
          "name": "",
          "type": "string"
        }
      ],
      "stateMutability": "view",
      "type": "function"
    },
    {
      "inputs": [],
      "name": "completedAt",
      "outputs": [
        {
          "internalType": "uint256",
          "name": "",
          "type": "uint256"
        }
      ],
      "stateMutability": "view",
      "type": "function"
    },
    {
      "inputs": [],
      "name": "creator",
      "outputs": [
        {
          "internalType": "address",
          "name": "",
          "type": "address"
        }
      ],
      "stateMutability": "view",
      "type": "function"
    },
    {
      "inputs": [],
      "name": "rate",
      "outputs": [
        {
          "internalType": "uint256",
          "name": "",
          "type": "uint256"
        }
      ],
      "stateMutability": "view",
      "type": "function"
    },
    {
      "inputs": [],
      "name": "startTime",
      "outputs": [
        {
          "internalType": "uint256",
          "name": "",
          "type": "uint256"
        }
      ],
      "stateMutability": "view",
      "type": "function"
    },
    {
      "inputs": [],
      "name": "state",
      "outputs": [
        {
          "internalType": "enum ICO.State",
          "name": "",
          "type": "uint8"
        }
      ],
      "stateMutability": "view",
      "type": "function"
    },
    {
      "inputs": [],
      "name": "tokenReward",
      "outputs": [
        {
          "internalType": "contract IERC20",
          "name": "",
          "type": "address"
        }
      ],
      "stateMutability": "view",
      "type": "function"
    },
    {
      "inputs": [],
      "name": "totalContributors",
      "outputs": [
        {
          "internalType": "uint256",
          "name": "",
          "type": "uint256"
        }
      ],
      "stateMutability": "view",
      "type": "function"
    },
    {
      "inputs": [],
      "name": "totalDistributed",
      "outputs": [
        {
          "internalType": "uint256",
          "name": "",
          "type": "uint256"
        }
      ],
      "stateMutability": "view",
      "type": "function"
    },
    {
      "inputs": [],
      "name": "totalRaised",
      "outputs": [
        {
          "internalType": "uint256",
          "name": "",
          "type": "uint256"
        }
      ],
      "stateMutability": "view",
      "type": "function"
    },
    {
      "inputs": [],
      "name": "version",
      "outputs": [
        {
          "internalType": "string",
          "name": "",
          "type": "string"
        }
      ],
      "stateMutability": "view",
      "type": "function"
    },
    {
      "stateMutability": "payable",
      "type": "receive"
    },
    {
      "inputs": [],
      "name": "contribute",
      "outputs": [],
      "stateMutability": "payable",
      "type": "function"
    },
    {
      "inputs": [],
      "name": "checkIfFundingCompleteOrExpired",
      "outputs": [],
      "stateMutability": "nonpayable",
      "type": "function"
    },
    {
      "inputs": [],
      "name": "finished",
      "outputs": [],
      "stateMutability": "nonpayable",
      "type": "function"
    }
  ],
  "bytecode": "0x608060405234620000d05762001640803803806200001d8162000104565b9283398101604082820312620000d0578151916001604060020a0392838111620000d05781019282601f85011215620000d0578351908111620000d55760209362000071601f8301601f1916860162000104565b93828552858383010111620000d05760005b828110620000bc57620000ac85620000a588876000828986010152016200012a565b906200040e565b60405161108f9081620005b18239f35b818101860151858201870152850162000083565b600080fd5b7f4e487b7100000000000000000000000000000000000000000000000000000000600052604160045260246000fd5b6040519190601f01601f191682016001604060020a03811183821017620000d557604052565b5190600160a060020a0382168203620000d057565b90600160028304921680156200018b575b60208310146200015c57565b7f4e487b7100000000000000000000000000000000000000000000000000000000600052602260045260246000fd5b91607f169162000150565b818110620001a2575050565b6000815560010162000196565b90601f8211620001bd575050565b620001ee91600a600052602060002090602080601f85010483019310620001f0575b601f6020910104019062000196565b565b9091508190620001df565b156200020357565b60646040517f08c379a000000000000000000000000000000000000000000000000000000000815260206004820152600f60248201527f6e6f207a65726f206164647265737300000000000000000000000000000000006044820152fd5b8051906001604060020a038211620000d55781906200028d8262000287600a546200013f565b620001af565b60209081601f8411600114620002cc5750600092620002c0575b5050816002029160080260020a60001904191617600a55565b015190503880620002a7565b600a6000529250601f1984167fc65a7bb8d6351c1cf70c95a316cc6a92839c986682d98bc35f958f4883f9d2a8936000905b8282106200033f575050916002939185600196941062000323575b5050500201600a55565b01516008601f841602840a600019041916905538808062000319565b80600186978294978701518155019601940190620002fe565b929190600160a060020a0316835260206060818501526000600a54916200037f836200013f565b928360608801526001908181169081600014620003ed5750600114620003ab575b505060409150930152565b929150600a60005280600020926000935b838510620003d8575050505060806040918501013880620003a0565b805488860160800152938201938101620003bc565b905060809350604094915060ff1916838801521515028501013880620003a0565b62000490620004b29260ff19600054166000554260015562000432600b546200013f565b601f81116200051c575b507f3100000000000000000000000000000000000000000000000000000000000002600b55600160a060020a03169162000478831515620001fb565b60098054600160a060020a0319163317905562000261565b60088054600160a060020a031916600160a060020a0392909216919091179055565b620004be610c8e600255565b620004d4620004cf60015462000541565b600655565b6009547fe45c210c1a671ddde7e84b97e8def2caf0970a0f9d007393efb89f7abb1f4f4590600160a060020a031660065490620005176040519283928362000358565b0390a1565b6200053a90600b6000526020601f8160002092010481019062000196565b386200043c565b62530e808101908110620005525790565b60646040517f08c379a000000000000000000000000000000000000000000000000000000000815260206004820152601b60248201527f536166654d6174683a206164646974696f6e206f766572666c6f7700000000006044820152fdfe60806040526004361015610023575b361561001957600080fd5b610021610791565b005b60e060020a600035046302d05d3f81146101165780632c4e722e14610111578063387712421461010c57806354fd4d50146101075780636e66f6e91461010257806378e97925146100fd57806386f32586146100f8578063936c9bc9146100f3578063bef4876b146100ee578063c19d93fb146100e9578063c5c4744c146100e4578063d7bb99ba146100df578063efca2eed146100da578063f251fc8c146100d55763fa4f55110361000e576106c7565b6106a9565b61068b565b610454565b610436565b6103f3565b6103b6565b610398565b61037f565b610361565b610338565b61021e565b61017a565b61015c565b61012e565b600160a060020a03909116815260200190565b3461015757600036600319011261015757600954604051600160a060020a039091168152602090f35b600080fd5b34610157576000366003190112610157576020600254604051908152f35b34610157576000366003190112610157576020600754604051908152f35b601f909101601f19168101906001604060020a038211908210176101bb57604052565b60e060020a634e487b710260009081526041600452602490fd5b6020808252825181830181905290939260005b82811061020a57505060409293506000838284010152601f8019910116010190565b8181018601518482016040015285016101e8565b3461015757600080600319360112610329576040519080600b54906002820491600180821692831561031f575b60209283861085146103085785885260208801949081156102e8575060011461028f575b61028b8761027f81890382610198565b604051918291826101d5565b0390f35b600b60005294509192917f0175b7a638427703f0dbe7bb9bbf987a2551717b34e79f33b5b1008d1fa01db95b8386106102d7575050509101905061027f8261028b388061026f565b8054858701529482019481016102bb565b60ff1916855250505091151590910201905061027f8261028b388061026f565b60e060020a634e487b710282526022600452602482fd5b93607f169361024b565b80fd5b600160a060020a031690565b3461015757600036600319011261015757600854604051600160a060020a039091168152602090f35b34610157576000366003190112610157576020600154604051908152f35b34610157576000366003190112610157576100216109a0565b34610157576000366003190112610157576020600654604051908152f35b3461015757600036600319011261015757610021610be1565b600911156103d957565b60e060020a634e487b710260009081526021600452602490fd5b34610157576000806003193601126103295760ff81541660405190600981101561041f57602092508152f35b60e060020a634e487b710283526021600452602483fd5b34610157576000366003190112610157576020600354604051908152f35b6000806003193601126103295760ff8154166009811015610674576008146103295761048b6104866003543490610e49565b600355565b61049e610499600554610d83565b600555565b6104aa60025434610ff7565b815460ff166104b8816103cf565b806105b757506104ca6104cf91610fd5565b610f2b565b6104e36104de82600454610e49565b600455565b6104f66104f160085461032c565b61032c565b60405160e060020a63a9059cbb0281529190602090839081868161051e87336004840161095a565b03925af19081156105b25760008051602061103a8339815191529261057692610584575b5060008051602061101a833981519152610566600354604051918291343384610981565b0390a1604051918291338361095a565b0390a16105816109a0565b80f35b6105a49060203d81116105ab575b61059c8183610198565b810190610942565b5038610542565b503d610592565b610975565b6105c0816103cf565b600181036105da57506104ca6105d591610fb3565b6104cf565b6105e3816103cf565b600281036105fd57506105f86105d591610f91565b610ee7565b610606816103cf565b6003810361061b57506104ca6105d591610f6f565b610624816103cf565b6004810361063957506105f86105d591610f4d565b610642816103cf565b6005810361065757506104ca6105d591610f09565b806106636006926103cf565b036105d5576105f86105d591610e56565b60e060020a634e487b710282526021600452602482fd5b34610157576000366003190112610157576020600454604051908152f35b34610157576000366003190112610157576020600554604051908152f35b3461015757600080600319360112610329576040519080600a549060028204916001808216928315610780575b60209283861085146103085785885260208801949081156102e857506001146107275761028b8761027f81890382610198565b600a60005294509192917fc65a7bb8d6351c1cf70c95a316cc6a92839c986682d98bc35f958f4883f9d2a85b83861061076f575050509101905061027f8261028b388061026f565b805485870152948201948101610753565b93607f16936106f4565b1561015757565b600060ff815416600981101561067457600814610329576107b86104866003543490610e49565b6107c6610499600554610d83565b6107d260025434610ff7565b815460ff166107e0816103cf565b8061088a57506104ca6107f291610fd5565b6108016104de82600454610e49565b60206108116104f160085461032c565b60405160e060020a63a9059cbb0281529384919082908161083687336004840161095a565b03925af19081156105b25760008051602061103a8339815191529261087d92610584575060008051602061101a833981519152610566600354604051918291343384610981565b0390a16108886109a0565b565b610893816103cf565b600181036108ad57506104ca6108a891610fb3565b6107f2565b6108b6816103cf565b600281036108cb57506105f86108a891610f91565b6108d4816103cf565b600381036108e957506104ca6108a891610f6f565b6108f2816103cf565b6004810361090757506105f86108a891610f4d565b610910816103cf565b6005810361092557506104ca6108a891610f09565b806109316006926103cf565b036108a8576105f86108a891610e56565b90816020910312610157575180151581036101575790565b600160a060020a039091168152602081019190915260400190565b6040513d6000823e3d90fd5b6040919493926060820195600160a060020a0316825260208201520152565b60005460ff166109af816103cf565b801580610bbf575b156109cf5750610888600160ff196000541617600055565b6109d8816103cf565b600180821480610bad575b156109fc575050610888600260ff196000541617600055565b610a05826103cf565b6002821480610b9b575b15610a28575050610888600360ff196000541617600055565b610a31826103cf565b6003821480610b89575b15610a54575050610888600460ff196000541617600055565b610a5d826103cf565b6004821480610b77575b15610a80575050610888600560ff196000541617600055565b610a89826103cf565b6005821480610b65575b15610aac575050610888600660ff196000541617600055565b610ab5826103cf565b600682149081610b52575b5015610ad95750610888600760ff196000541617600055565b60065442119081610b3d575b501561088857610afd600860ff196000541617600055565b610b0642600755565b6003546040519081527fee94ee98208684c00eeba940c34a6060b93671b249abd182b4771b74bf94e2dd90602090a1610888610be1565b60089150610b4a816103cf565b141538610ae5565b610b5d915054610e39565b421138610ac0565b50610b708154610e29565b4211610a93565b50610b828154610e19565b4211610a67565b50610b948154610e09565b4211610a3b565b50610ba68154610df9565b4211610a0f565b50610bb88154610de9565b42116109e3565b50610bcb600154610dd9565b42116109b7565b90816020910312610157575190565b6000610c026008610bf3835460ff1690565b610bfc816103cf565b1461078a565b610c106104f160085461032c565b60405160e060020a6370a082310281529190602090819084908180610c38306004830161011b565b03915afa9182156105b257610cb8938193610d52575b508281610c7b8180808796610c6a6104f16104f160095461032c565b303190828215610d49575bf161078a565b610c896104f160085461032c565b90610c9560095461032c565b60405160e060020a63a9059cbb028152978894859392849291906004840161095a565b03925af19283156105b25760008051602061103a83398151915293610d2b575b5050610ce560095461032c565b7f101a889b1c7c3bf4e0c37353cfe1554e47e39c747e25a6d330d0553dd93bd1eb60405180610d14848261011b565b0390a1610d266040519283928361095a565b0390a1565b81610d4192903d106105ab5761059c8183610198565b503880610cd8565b506108fc610c75565b82919350610d7590823d8411610d7c575b610d6d8183610198565b810190610bd2565b9290610c4e565b503d610d63565b60018101908110610d915790565b60405160e560020a62461bcd02815260206004820152601b60248201527f536166654d6174683a206164646974696f6e206f766572666c6f7700000000006044820152606490fd5b621275008101908110610d915790565b621baf808101908110610d915790565b6224ea008101908110610d915790565b622e24808101908110610d915790565b62375f008101908110610d915790565b624099808101908110610d915790565b6249d4008101908110610d915790565b908101908110610d915790565b6069810290806069830403610157578015610ecd57606990820403610e785790565b60405160e560020a62461bcd02815260206004820152602160248201527f536166654d6174683a206d756c7469706c69636174696f6e206f766572666c6f604482015260f860020a6077026064820152608490fd5b60e060020a634e487b710260009081526012600452602490fd5b6064810290806064830403610157578015610ecd57606490820403610e785790565b600b81029080600b830403610157578015610ecd57600b90820403610e785790565b600a81029080600a830403610157578015610ecd57600a90820403610e785790565b6073810290806073830403610157578015610ecd57607390820403610e785790565b600c81029080600c830403610157578015610ecd57600c90820403610e785790565b607d81029080607d830403610157578015610ecd57607d90820403610e785790565b600d81029080600d830403610157578015610ecd57600d90820403610e785790565b600e81029080600e830403610157578015610ecd57600e90820403610e785790565b9080820291808284041415821517610157578015610ecd57820403610e78579056fe304e48bb03eae5e9bf3575d270648664895983e116a51773a65e9f3341b3b40eaeb3ebd09ef847781ae7d846d2c9afbbb08cfbcad76e92d3206303aa30d24226a26469706673582212209f317032b0859d459e77946450adbb4886e796f2ac0a3de0049202eb28ffb3dd64736f6c63430008120033",
  "immutableReferences": {},
  "source": "// SPDX-License-Identifier: CC-BY-4.0\r\npragma solidity >=0.4.22 <0.9.0;\r\n/**\r\n* @title ICO CONTRACT\r\n* @dev ERC-20 Token Standard Compliant\r\n* @author Fares A. Akel C. f.antonio.akel@gmail.com\r\n*/\r\nimport \"../../libs/SafeMath.sol\";\r\nimport \"../../interfaces/IERC20.sol\";\r\n\r\ncontract ICO {\r\n    using SafeMath for uint256;\r\n    //This ico have 5 states\r\n    enum State {\r\n        preico,\r\n        week1,\r\n        week2,\r\n        week3,\r\n        week4,\r\n        week5,\r\n        week6,\r\n        week7,\r\n        Successful\r\n    }\r\n\r\n    \r\n    //public variables\r\n    State public state = State.preico; //Set initial stage\r\n    uint256 public startTime = block.timestamp; //block-time when it was deployed\r\n    uint256 public rate;\r\n    uint256 public totalRaised; //eth in wei\r\n    uint256 public totalDistributed; //tokens\r\n    uint256 public totalContributors;\r\n    uint256 public ICOdeadline;\r\n    uint256 public completedAt;\r\n    IERC20 public tokenReward;\r\n    address public creator;\r\n    string public campaignUrl;\r\n    string public version = '1';\r\n\r\n    //events for log\r\n    event LogFundingReceived(address _addr, uint _amount, uint _currentTotal);\r\n    event LogBeneficiaryPaid(address _beneficiaryAddress);\r\n    event LogFundingSuccessful(uint _totalRaised);\r\n    event LogFunderInitialized(\r\n        address _creator,\r\n        string _url,\r\n        uint256 _ICOdeadline);\r\n    event LogContributorsPayout(address _addr, uint _amount);\r\n\r\n    modifier notFinished() {\r\n        require(state != State.Successful);\r\n        _;\r\n    }\r\n    /**\r\n    * @notice ICO constructor\r\n    * @param _campaignUrl is the ICO _url\r\n    * @param _addressOfTokenUsedAsReward is the token totalDistributed\r\n    */\r\n    constructor (string memory _campaignUrl,address _addressOfTokenUsedAsReward)\r\n    {\r\n        require(_addressOfTokenUsedAsReward!=address(0), \"no zero address\");\r\n\r\n        creator = msg.sender;\r\n        campaignUrl = _campaignUrl;\r\n        tokenReward = IERC20(_addressOfTokenUsedAsReward);\r\n        rate = 3214;\r\n        ICOdeadline = SafeMath.safeAdd(startTime,63 days); //9 weeks\r\n\r\n        emit LogFunderInitialized(\r\n            creator,\r\n            campaignUrl,\r\n            ICOdeadline);\r\n    }\r\n\r\n    /**\r\n    * @notice contribution handler\r\n    */\r\n    function contribute() public notFinished payable {\r\n\r\n        uint256 tokenBought = 0;\r\n\r\n        totalRaised = SafeMath.safeAdd(totalRaised,msg.value);\r\n        totalContributors = SafeMath.safeAdd(totalContributors,1);\r\n\r\n        tokenBought = SafeMath.safeMul(msg.value,rate);\r\n\r\n        //Rate of exchange depends on stage\r\n        if (state == State.preico){\r\n\r\n            tokenBought = SafeMath.safeMul(tokenBought,14);\r\n            tokenBought = SafeMath.safeMul(tokenBought,10); //14/10 = 1.4 = 140%\r\n        \r\n        } else if (state == State.week1){\r\n\r\n            tokenBought = SafeMath.safeMul(tokenBought,13);\r\n            tokenBought = SafeMath.safeMul(tokenBought,10); //13/10 = 1.3 = 130%\r\n\r\n        } else if (state == State.week2){\r\n\r\n            tokenBought = SafeMath.safeMul(tokenBought,125);\r\n            tokenBought = SafeMath.safeMul(tokenBought,100); //125/100 = 1.25 = 125%\r\n\r\n        } else if (state == State.week3){\r\n\r\n            tokenBought = SafeMath.safeMul(tokenBought,12);\r\n            tokenBought = SafeMath.safeMul(tokenBought,10); //12/10 = 1.2 = 120%\r\n\r\n        } else if (state == State.week4){\r\n\r\n            tokenBought = SafeMath.safeMul(tokenBought,115);\r\n            tokenBought = SafeMath.safeMul(tokenBought,100); //115/100 = 1.15 = 115%\r\n\r\n        } else if (state == State.week5){\r\n\r\n            tokenBought = SafeMath.safeMul(tokenBought,11);\r\n            tokenBought = SafeMath.safeMul(tokenBought,10); //11/10 = 1.10 = 110%\r\n\r\n        } else if (state == State.week6){\r\n\r\n            tokenBought = SafeMath.safeMul(tokenBought,105);\r\n            tokenBought = SafeMath.safeMul(tokenBought,100); //105/100 = 1.05 = 105%\r\n\r\n        }\r\n\r\n        totalDistributed = SafeMath.safeAdd(totalDistributed,tokenBought);\r\n        \r\n        tokenReward.transfer(msg.sender, tokenBought);\r\n\r\n        emit LogFundingReceived(msg.sender, msg.value, totalRaised);\r\n        emit LogContributorsPayout(msg.sender, tokenBought);\r\n        \r\n        checkIfFundingCompleteOrExpired();\r\n    }\r\n\r\n    /**\r\n    * @notice check status\r\n    */\r\n    function checkIfFundingCompleteOrExpired() public {\r\n\r\n        if(state == State.preico && block.timestamp > SafeMath.safeAdd(startTime,14 days)){\r\n\r\n            state = State.week1;\r\n\r\n        } else if(state == State.week1 && block.timestamp > SafeMath.safeAdd(startTime,21 days)){\r\n\r\n            state = State.week2;\r\n            \r\n        } else if(state == State.week2 && block.timestamp > SafeMath.safeAdd(startTime,28 days)){\r\n\r\n            state = State.week3;\r\n            \r\n        } else if(state == State.week3 && block.timestamp > SafeMath.safeAdd(startTime,35 days)){\r\n\r\n            state = State.week4;\r\n            \r\n        } else if(state == State.week4 && block.timestamp > SafeMath.safeAdd(startTime,42 days)){\r\n\r\n            state = State.week5;\r\n            \r\n        } else if(state == State.week5 && block.timestamp > SafeMath.safeAdd(startTime,49 days)){\r\n\r\n            state = State.week6;\r\n            \r\n        } else if(state == State.week6 && block.timestamp > SafeMath.safeAdd(startTime,56 days)){\r\n\r\n            state = State.week7;\r\n            \r\n        } else if(block.timestamp > ICOdeadline && state!=State.Successful ) { //if we reach ico deadline and its not Successful yet\r\n\r\n            state = State.Successful; //ico becomes Successful\r\n            completedAt = block.timestamp; //ICO is complete\r\n\r\n            emit LogFundingSuccessful(totalRaised); //we log the finish\r\n            finished(); //and execute closure\r\n        }\r\n    }\r\n\r\n    /**\r\n    * @notice closure handler\r\n    */\r\n    function finished() public { //When finished eth are transfered to creator\r\n\r\n        require(state == State.Successful);\r\n        uint256 remanent = tokenReward.balanceOf(address(this));\r\n\r\n        require(payable(creator).send(address(this).balance));\r\n        tokenReward.transfer(creator,remanent);\r\n\r\n        emit LogBeneficiaryPaid(creator);\r\n        emit LogContributorsPayout(creator, remanent);\r\n\r\n    }\r\n\r\n    /*\r\n    * @dev Direct payments handle\r\n    */\r\n\r\n    receive() external payable {\r\n        contribute();\r\n    }\r\n}",
  "sourcePath": "/Volumes/HOME/pingleware-contracts/contracts/finance/equity/ICO.sol",
  "compiler": {
    "name": "solc",
    "version": "0.8.18+commit.87f61d96.Emscripten.clang"
  },
  "schemaVersion": "3.4.12",
  "updatedAt": "2024-05-23T18:56:25.939Z",
  "devdoc": {
    "kind": "dev",
    "methods": {
      "constructor": {
        "params": {
          "_addressOfTokenUsedAsReward": "is the token totalDistributed",
          "_campaignUrl": "is the ICO _url"
        }
      }
    },
    "version": 1
  },
  "userdoc": {
    "kind": "user",
    "methods": {
      "checkIfFundingCompleteOrExpired()": {
        "notice": "check status"
      },
      "constructor": {
        "notice": "ICO constructor"
      },
      "contribute()": {
        "notice": "contribution handler"
      },
      "finished()": {
        "notice": "closure handler"
      }
    },
    "version": 1
  }
}