{
  "contractName": "IdentityRegistry",
  "abi": [
    {
      "inputs": [],
      "stateMutability": "nonpayable",
      "type": "constructor"
    },
    {
      "anonymous": false,
      "inputs": [
        {
          "indexed": true,
          "internalType": "address",
          "name": "AuthorizedBy",
          "type": "address"
        },
        {
          "indexed": true,
          "internalType": "address",
          "name": "AddressAdded",
          "type": "address"
        }
      ],
      "name": "AddressAddedToWhitelist",
      "type": "event"
    },
    {
      "anonymous": false,
      "inputs": [
        {
          "indexed": true,
          "internalType": "address",
          "name": "AuthorizedBy",
          "type": "address"
        },
        {
          "indexed": true,
          "internalType": "address",
          "name": "AddressRemoved",
          "type": "address"
        }
      ],
      "name": "AddressRemovedFromWhitelist",
      "type": "event"
    },
    {
      "anonymous": false,
      "inputs": [
        {
          "indexed": false,
          "internalType": "address",
          "name": "sender",
          "type": "address"
        },
        {
          "indexed": false,
          "internalType": "uint256",
          "name": "amount",
          "type": "uint256"
        }
      ],
      "name": "FallbackEvent",
      "type": "event"
    },
    {
      "anonymous": false,
      "inputs": [
        {
          "indexed": true,
          "internalType": "address",
          "name": "addressAdded",
          "type": "address"
        },
        {
          "indexed": false,
          "internalType": "string",
          "name": "identityHash",
          "type": "string"
        },
        {
          "indexed": true,
          "internalType": "address",
          "name": "authorizedBy",
          "type": "address"
        }
      ],
      "name": "IdentityAdded",
      "type": "event"
    },
    {
      "anonymous": false,
      "inputs": [
        {
          "indexed": true,
          "internalType": "address",
          "name": "updatedAddress",
          "type": "address"
        },
        {
          "indexed": false,
          "internalType": "string",
          "name": "previousHash",
          "type": "string"
        },
        {
          "indexed": false,
          "internalType": "string",
          "name": "newHash",
          "type": "string"
        },
        {
          "indexed": true,
          "internalType": "address",
          "name": "authorizedBy",
          "type": "address"
        }
      ],
      "name": "IdentityUpdated",
      "type": "event"
    },
    {
      "anonymous": false,
      "inputs": [
        {
          "indexed": true,
          "internalType": "address",
          "name": "previousOwner",
          "type": "address"
        },
        {
          "indexed": true,
          "internalType": "address",
          "name": "newOwner",
          "type": "address"
        }
      ],
      "name": "OwnershipTransferred",
      "type": "event"
    },
    {
      "anonymous": false,
      "inputs": [
        {
          "indexed": false,
          "internalType": "address",
          "name": "sender",
          "type": "address"
        },
        {
          "indexed": false,
          "internalType": "uint256",
          "name": "amount",
          "type": "uint256"
        }
      ],
      "name": "ReceiveEvent",
      "type": "event"
    },
    {
      "stateMutability": "payable",
      "type": "fallback"
    },
    {
      "inputs": [],
      "name": "VERSION",
      "outputs": [
        {
          "internalType": "string",
          "name": "",
          "type": "string"
        }
      ],
      "stateMutability": "view",
      "type": "function"
    },
    {
      "inputs": [],
      "name": "WAIT",
      "outputs": [
        {
          "internalType": "uint256",
          "name": "",
          "type": "uint256"
        }
      ],
      "stateMutability": "view",
      "type": "function"
    },
    {
      "inputs": [
        {
          "internalType": "address",
          "name": "_address",
          "type": "address"
        }
      ],
      "name": "addAddressToWhitelist",
      "outputs": [],
      "stateMutability": "nonpayable",
      "type": "function"
    },
    {
      "inputs": [],
      "name": "getOwner",
      "outputs": [
        {
          "internalType": "address",
          "name": "",
          "type": "address"
        }
      ],
      "stateMutability": "payable",
      "type": "function"
    },
    {
      "inputs": [
        {
          "internalType": "address",
          "name": "",
          "type": "address"
        }
      ],
      "name": "identityMap",
      "outputs": [
        {
          "internalType": "string",
          "name": "",
          "type": "string"
        }
      ],
      "stateMutability": "view",
      "type": "function"
    },
    {
      "inputs": [
        {
          "internalType": "address",
          "name": "_address",
          "type": "address"
        }
      ],
      "name": "isWhitelisted",
      "outputs": [
        {
          "internalType": "bool",
          "name": "",
          "type": "bool"
        }
      ],
      "stateMutability": "view",
      "type": "function"
    },
    {
      "inputs": [
        {
          "internalType": "address",
          "name": "_address",
          "type": "address"
        }
      ],
      "name": "removeAddressFromWhitelist",
      "outputs": [],
      "stateMutability": "nonpayable",
      "type": "function"
    },
    {
      "inputs": [],
      "name": "renounceOwnership",
      "outputs": [],
      "stateMutability": "payable",
      "type": "function"
    },
    {
      "inputs": [
        {
          "internalType": "address",
          "name": "newOwner",
          "type": "address"
        }
      ],
      "name": "transferOwnership",
      "outputs": [],
      "stateMutability": "payable",
      "type": "function"
    },
    {
      "inputs": [
        {
          "internalType": "address",
          "name": "",
          "type": "address"
        }
      ],
      "name": "whitelist",
      "outputs": [
        {
          "internalType": "bool",
          "name": "",
          "type": "bool"
        }
      ],
      "stateMutability": "view",
      "type": "function"
    },
    {
      "stateMutability": "payable",
      "type": "receive"
    },
    {
      "inputs": [
        {
          "internalType": "address",
          "name": "_address",
          "type": "address"
        },
        {
          "internalType": "string",
          "name": "hash",
          "type": "string"
        }
      ],
      "name": "addIdentity",
      "outputs": [],
      "stateMutability": "nonpayable",
      "type": "function"
    },
    {
      "inputs": [
        {
          "internalType": "address",
          "name": "updatedAddress",
          "type": "address"
        },
        {
          "internalType": "string",
          "name": "newHash",
          "type": "string"
        }
      ],
      "name": "updateIdentity",
      "outputs": [],
      "stateMutability": "nonpayable",
      "type": "function"
    }
  ],
  "bytecode": "0x608080604052346100535760008054600160a060020a03191633908117825542600155907f8be0079c531659141344cd1fd0a4f28419497f9722a3daafe3b4186f6b6457e08180a3610d7790816100598239f35b600080fdfe6040608081526004803610156100c4575b361561009557333203610051577f26875833861a2b006512a11f1b86edf95df96131040f3caeed72989ee985808382518061004c343383610c7a565b0390a1005b6020606492519160e560020a62461bcd02835282015260196024820152603860020a787068697368696e672061747461636b2064657465637465643f026044820152fd5b7fcc85d09d309785db93d6df19917f2e6cc07fe27cd01c08c8279145deb5cf452682518061004c343383610c7a565b600060e060020a81350463286dd3f58114610a115780633af32abf146105ed5780635f3192431461073c578063715018a6146106f75780637b9417c81461068e578063893d20e81461062b5780639b19251a146105ed578063a82567d514610395578063b8fb3a5114610379578063dfccf23f14610290578063f2fde38b146101d35763ffa1ad74146101575750610010565b82346101cf57816003193601126101cf57805191828201906001604060020a038211848310176101b957506101b593508152600a825260b060020a69312e362e342d6265746102602083015251918291602083526020830190610ba6565b0390f35b60e060020a634e487b7102815260418552602490fd5b5080fd5b509190602036600319011261028c576101ea610a8a565b835491600160a060020a0380841692610204338514610c95565b169384156102325750508290600080516020610ce28339815191528580a3600160a060020a03191617815580f35b5160e560020a62461bcd028152602091810191909152602660248201527f4f776e61626c653a206e6577206f776e657220697320746865207a65726f2061604482015260d060020a65646472657373026064820152608490fd5b8280fd5b50913461028c576020918260031936011261037557600160a060020a036102b5610a8a565b16845282528083208151938491818154906102cf82610b67565b9283865260019288848216918260001461034c57505060011461030e575b85886101b5896102ff848a0385610aa5565b51928284938452830190610ba6565b87945081939291528383205b82841061033457505050820101816102ff6101b5386102ed565b8054848a01860152889550879490930192810161031a565b60ff1916888201529415158502870190940194508593506102ff92506101b591503890506102ed565b8380fd5b5082346101cf57816003193601126101cf5760209051601e8152f35b5090346101cf576103a536610ae2565b8354909291600160a060020a03916103c09083163314610be6565b16908184526020948186528085208151928784888454946103e086610b67565b9081845260019687811690816000146105cd5750600114610591575b505061040a92500385610aa5565b83511561058d578487528088528287208651909290916001604060020a03831161057757506104398354610b67565b601f8111610533575b508890601f83116001146104bb575091818899926104aa94600080516020610d0283398151915298999a916104b0575b50816002029160080260020a6000190419161790555b61049b8351948486958652850190610ba6565b90838203908401523396610ba6565b0390a380f35b905089015138610472565b838952898920909291601f1983168a5b81811061051e575092600080516020610d0283398151915298999a9b9492600292826104aa989610610503575b505002019055610488565b8c01516008601f841602840a600019041916905538806104f8565b8a830151845592850192918c01918c016104cb565b8389528989208a80601f86010482019281861061056d575b601f0104019082905b828110610562575050610442565b8a8155018290610554565b919250829161054b565b60e060020a634e487b7102895260419052602488fd5b8680fd5b8b52838b208b925086905b8284106105b6575050509161040a928201018a92386103fc565b80548a85018701528994509285019287910161059c565b91505061040a94925060ff191682840152151581028201018a92386103fc565b5082346101cf5760203660031901126101cf5760209160ff908290600160a060020a03610618610a8a565b1681526003855220541690519015158152f35b5080839160031936011261068b5760015492601e8401809411610675575061065f602093421161065a81610c35565b610c35565b42600155549051600160a060020a039091168152f35b60e060020a634e487b7102825260119052602490fd5b80fd5b5082346101cf5760203660031901126101cf576106a9610a8a565b8254600160a060020a0391906106c29083163314610be6565b169081835260036020528220805460ff81166103755760ff1916600117905533600080516020610d228339815191528380a380f35b508060031936011261068b57805481600160a060020a03821661071b338214610c95565b600080516020610ce28339815191528280a3600160a060020a031916815580f35b5091903461028c5761074d36610ae2565b8454600160a060020a0394919392859161076a9083163314610be6565b169283865260209483865282872093835188958181549761078a89610b67565b928383526001998c8b821691826000146109f25750506001146109b4575b506107b592500382610aa5565b5161095f57858852808752838820835190916001604060020a03821161094957506107e08254610b67565b601f8111610905575b5087601f821160011461089c5790806108259493928b91610891575b50816002029160080260020a6000190419161790555b8754163314610be6565b838652600385528186209182549260ff841661088d577f86cc2097bcb5dabdee3522860f3d6b0ab9c6d24adde6941695fb4f25baf8a881946104aa9460ff1916179055519182918533600080516020610d228339815191528a80a38683523396830190610ba6565b8780fd5b905085015138610805565b828a52888a209392918791601f1982168c5b8c8282106108ee57505095829160029361082598106108d3575b50500201905561081b565b8801516008601f841602840a600019041916905538806108c8565b89840151895597909401968a9492810192016108ae565b828a52888a208980601f85010482019281851061093f575b601f0104019087905b8281106109345750506107e9565b8b8155018790610926565b919250829161091d565b60e060020a634e487b71028a5260419052602489fd5b835160e560020a62461bcd0281529081018790526024808201527f54686973206964656e7469747920776173207265676973746572656420616c72604482015260e060020a6365616479026064820152608490fd5b9150508a528189808c20898d915b8583106109d95750506107b59350820101386107a8565b8091929450548385880101520191018a908985936109c2565b60ff1916858201526107b5951515810285010192503891506107a89050565b5082346101cf5760203660031901126101cf57610a2c610a8a565b8254600160a060020a039190610a459083163314610be6565b169081835260036020528220805460ff8116156103755760ff19169055337f5a76ef3d09a09d8a99c3d9ddddfb7770d906de670d79b5119a8c2cba903814bb8380a380f35b60043590600160a060020a0382168203610aa057565b600080fd5b601f909101601f19168101906001604060020a03821190821017610ac857604052565b60e060020a634e487b710260009081526041600452602490fd5b906040600319830112610aa057600435600160a060020a0381168103610aa057916001604060020a03602435818111610aa05782602382011215610aa0578060040135918211610ac85760405192610b44601f8401601f191660200185610aa5565b82845260248383010111610aa05781600092602460209301838601378301015290565b9060016002830492168015610b9c575b6020831014610b8257565b60e060020a634e487b710260009081526022600452602490fd5b91607f1691610b77565b919082519283825260005b848110610bd2575050826000602080949584010152601f8019910116010190565b602081830181015184830182015201610bb1565b15610bed57565b60405160e560020a62461bcd02815260206004820152601b60248201527f756e617574686f72697a65642c206e6f7420746865206f776e657200000000006044820152606490fd5b15610c3c57565b60405160e560020a62461bcd0281526020600482015260106024820152608160020a6f3930ba32903634b6b4ba1032b93937b9026044820152606490fd5b600160a060020a039091168152602081019190915260400190565b15610c9c57565b60405160e560020a62461bcd0281526020600482015260176024820152604960020a7630b1b1b2b9b9903232b734b2b2103337b91037bbb732b9026044820152606490fdfe8be0079c531659141344cd1fd0a4f28419497f9722a3daafe3b4186f6b6457e040df790fd345471c77ba608aeb1a950504ec123523383018d37bd5ceb497e80594d300f0803cc0af9991569051574a3dafd674f3b8d03f81c5ac017d5293afa6a2646970667358221220a37d81b994e921d8f0a4a1cceb1c282c00334b753a097fc61ce6fbb22ce8b54264736f6c63430008120033",
  "immutableReferences": {},
  "source": "// SPDX-License-Identifier: CC-BY-4.0\r\npragma solidity >=0.4.22 <0.9.0;\r\n\r\nimport \"./Whitelistable.sol\";\r\n\r\ncontract IdentityRegistry is Whitelistable {\r\n    mapping(address => string) public identityMap; // maps an address to an idenity hash\r\n\r\n    event IdentityAdded(address indexed addressAdded, string identityHash, address indexed authorizedBy);\r\n    event IdentityUpdated(address indexed updatedAddress, string previousHash, string newHash, address indexed authorizedBy);\r\n\r\n    constructor() Whitelistable(){ // empty constructor used to call the whitelistable constructor\r\n    }\r\n\r\n    function addIdentity(address _address, string memory hash) okOwner() public {\r\n        bytes memory value = bytes(identityMap[_address]);\r\n        require(value.length == 0, \"This identity was registered already\");\r\n        identityMap[_address] = hash;\r\n        addAddressToWhitelist(_address);\r\n        emit IdentityAdded(_address, hash, msg.sender);\r\n    }\r\n\r\n    function updateIdentity(address updatedAddress, string memory newHash) okOwner() public {\r\n        bytes memory previousHash = bytes(identityMap[updatedAddress]);\r\n        require(previousHash.length != 0);\r\n        identityMap[updatedAddress] = newHash;\r\n        emit IdentityUpdated(updatedAddress, string(previousHash), newHash, msg.sender);\r\n    }\r\n}",
  "sourcePath": "/Volumes/HOME/pingleware-contracts/contracts/common/IdentityRegistry.sol",
  "compiler": {
    "name": "solc",
    "version": "0.8.18+commit.87f61d96.Emscripten.clang"
  },
  "schemaVersion": "3.4.12",
  "updatedAt": "2024-05-23T18:56:24.962Z",
  "devdoc": {
    "kind": "dev",
    "methods": {
      "renounceOwnership()": {
        "details": "Leaves the contract without owner. It will not be possible to call `onlyOwner` functions anymore. Can only be called by the current owner. NOTE: Renouncing ownership will leave the contract without an owner, thereby removing any functionality that is only available to the owner."
      },
      "transferOwnership(address)": {
        "details": "Transfers ownership of the contract to a new account (`newOwner`). Can only be called by the current owner."
      }
    },
    "version": 1
  },
  "userdoc": {
    "kind": "user",
    "methods": {},
    "version": 1
  }
}