{
  "contractName": "IdentityRegistry",
  "abi": [
    {
      "inputs": [],
      "stateMutability": "nonpayable",
      "type": "constructor"
    },
    {
      "anonymous": false,
      "inputs": [
        {
          "indexed": true,
          "internalType": "address",
          "name": "AuthorizedBy",
          "type": "address"
        },
        {
          "indexed": true,
          "internalType": "address",
          "name": "AddressAdded",
          "type": "address"
        }
      ],
      "name": "AddressAddedToWhitelist",
      "type": "event"
    },
    {
      "anonymous": false,
      "inputs": [
        {
          "indexed": true,
          "internalType": "address",
          "name": "AuthorizedBy",
          "type": "address"
        },
        {
          "indexed": true,
          "internalType": "address",
          "name": "AddressRemoved",
          "type": "address"
        }
      ],
      "name": "AddressRemovedFromWhitelist",
      "type": "event"
    },
    {
      "anonymous": false,
      "inputs": [
        {
          "indexed": false,
          "internalType": "address",
          "name": "sender",
          "type": "address"
        },
        {
          "indexed": false,
          "internalType": "uint256",
          "name": "amount",
          "type": "uint256"
        }
      ],
      "name": "FallbackEvent",
      "type": "event"
    },
    {
      "anonymous": false,
      "inputs": [
        {
          "indexed": true,
          "internalType": "address",
          "name": "addressAdded",
          "type": "address"
        },
        {
          "indexed": false,
          "internalType": "string",
          "name": "identityHash",
          "type": "string"
        },
        {
          "indexed": true,
          "internalType": "address",
          "name": "authorizedBy",
          "type": "address"
        }
      ],
      "name": "IdentityAdded",
      "type": "event"
    },
    {
      "anonymous": false,
      "inputs": [
        {
          "indexed": true,
          "internalType": "address",
          "name": "updatedAddress",
          "type": "address"
        },
        {
          "indexed": false,
          "internalType": "string",
          "name": "previousHash",
          "type": "string"
        },
        {
          "indexed": false,
          "internalType": "string",
          "name": "newHash",
          "type": "string"
        },
        {
          "indexed": true,
          "internalType": "address",
          "name": "authorizedBy",
          "type": "address"
        }
      ],
      "name": "IdentityUpdated",
      "type": "event"
    },
    {
      "anonymous": false,
      "inputs": [
        {
          "indexed": true,
          "internalType": "address",
          "name": "previousOwner",
          "type": "address"
        },
        {
          "indexed": true,
          "internalType": "address",
          "name": "newOwner",
          "type": "address"
        }
      ],
      "name": "OwnershipTransferred",
      "type": "event"
    },
    {
      "anonymous": false,
      "inputs": [
        {
          "indexed": false,
          "internalType": "address",
          "name": "sender",
          "type": "address"
        },
        {
          "indexed": false,
          "internalType": "uint256",
          "name": "amount",
          "type": "uint256"
        }
      ],
      "name": "ReceiveEvent",
      "type": "event"
    },
    {
      "stateMutability": "payable",
      "type": "fallback"
    },
    {
      "inputs": [],
      "name": "VERSION",
      "outputs": [
        {
          "internalType": "string",
          "name": "",
          "type": "string"
        }
      ],
      "stateMutability": "view",
      "type": "function"
    },
    {
      "inputs": [],
      "name": "WAIT",
      "outputs": [
        {
          "internalType": "uint256",
          "name": "",
          "type": "uint256"
        }
      ],
      "stateMutability": "view",
      "type": "function"
    },
    {
      "inputs": [
        {
          "internalType": "address",
          "name": "_address",
          "type": "address"
        }
      ],
      "name": "addAddressToWhitelist",
      "outputs": [],
      "stateMutability": "nonpayable",
      "type": "function"
    },
    {
      "inputs": [],
      "name": "getOwner",
      "outputs": [
        {
          "internalType": "address",
          "name": "",
          "type": "address"
        }
      ],
      "stateMutability": "payable",
      "type": "function"
    },
    {
      "inputs": [
        {
          "internalType": "address",
          "name": "",
          "type": "address"
        }
      ],
      "name": "identityMap",
      "outputs": [
        {
          "internalType": "string",
          "name": "",
          "type": "string"
        }
      ],
      "stateMutability": "view",
      "type": "function"
    },
    {
      "inputs": [
        {
          "internalType": "address",
          "name": "_address",
          "type": "address"
        }
      ],
      "name": "isWhitelisted",
      "outputs": [
        {
          "internalType": "bool",
          "name": "",
          "type": "bool"
        }
      ],
      "stateMutability": "view",
      "type": "function"
    },
    {
      "inputs": [
        {
          "internalType": "address",
          "name": "_address",
          "type": "address"
        }
      ],
      "name": "removeAddressFromWhitelist",
      "outputs": [],
      "stateMutability": "nonpayable",
      "type": "function"
    },
    {
      "inputs": [],
      "name": "renounceOwnership",
      "outputs": [],
      "stateMutability": "payable",
      "type": "function"
    },
    {
      "inputs": [
        {
          "internalType": "address",
          "name": "newOwner",
          "type": "address"
        }
      ],
      "name": "transferOwnership",
      "outputs": [],
      "stateMutability": "payable",
      "type": "function"
    },
    {
      "inputs": [
        {
          "internalType": "address",
          "name": "",
          "type": "address"
        }
      ],
      "name": "whitelist",
      "outputs": [
        {
          "internalType": "bool",
          "name": "",
          "type": "bool"
        }
      ],
      "stateMutability": "view",
      "type": "function"
    },
    {
      "stateMutability": "payable",
      "type": "receive"
    },
    {
      "inputs": [
        {
          "internalType": "address",
          "name": "_address",
          "type": "address"
        },
        {
          "internalType": "string",
          "name": "hash",
          "type": "string"
        }
      ],
      "name": "addIdentity",
      "outputs": [],
      "stateMutability": "nonpayable",
      "type": "function"
    },
    {
      "inputs": [
        {
          "internalType": "address",
          "name": "updatedAddress",
          "type": "address"
        },
        {
          "internalType": "string",
          "name": "newHash",
          "type": "string"
        }
      ],
      "name": "updateIdentity",
      "outputs": [],
      "stateMutability": "nonpayable",
      "type": "function"
    }
  ],
  "bytecode": "0x6080604052600060015534801561001557600080fd5b5060008054600160a060020a031916339081178255426001556040519091907f8be0079c531659141344cd1fd0a4f28419497f9722a3daafe3b4186f6b6457e0908290a3610db3806100686000396000f3fe60806040526004361061009e5760e060020a6000350463286dd3f581146101655780633af32abf146101875780635f319243146101bc578063715018a6146101dc5780637b9417c8146101e4578063893d20e8146102045780639b19251a14610224578063a82567d514610254578063b8fb3a5114610274578063dfccf23f14610297578063f2fde38b146102c4578063ffa1ad74146102d7576100de565b366100de577fcc85d09d309785db93d6df19917f2e6cc07fe27cd01c08c8279145deb5cf452633346040516100d492919061098f565b60405180910390a1005b3233146101345760405160e560020a62461bcd0281526020600482015260196024820152603860020a787068697368696e672061747461636b2064657465637465643f0260448201526064015b60405180910390fd5b7f26875833861a2b006512a11f1b86edf95df96131040f3caeed72989ee985808333346040516100d492919061098f565b34801561017157600080fd5b506101856101803660046109c4565b610310565b005b34801561019357600080fd5b506101a76101a23660046109c4565b610399565b60405190151581526020015b60405180910390f35b3480156101c857600080fd5b506101856101d7366004610a00565b6103b7565b610185610566565b3480156101f057600080fd5b506101856101ff3660046109c4565b6105cb565b61020c610658565b604051600160a060020a0390911681526020016101b3565b34801561023057600080fd5b506101a761023f3660046109c4565b60036020526000908152604090205460ff1681565b34801561026057600080fd5b5061018561026f366004610a00565b6106ce565b34801561028057600080fd5b50610289601e81565b6040519081526020016101b3565b3480156102a357600080fd5b506102b76102b23660046109c4565b610814565b6040516101b39190610b07565b6101856102d23660046109c4565b6108ae565b3480156102e357600080fd5b506102b76040518060400160405280600a815260200160b060020a69312e362e342d626574610281525081565b600054600160a060020a0316331461033d5760405160e560020a62461bcd02815260040161012b90610b1a565b61034681610399565b61034f57600080fd5b600160a060020a038116600081815260036020526040808220805460ff191690555133917f5a76ef3d09a09d8a99c3d9ddddfb7770d906de670d79b5119a8c2cba903814bb91a350565b600160a060020a031660009081526003602052604090205460ff1690565b600054600160a060020a031633146103e45760405160e560020a62461bcd02815260040161012b90610b1a565b600160a060020a0382166000908152600460205260408120805461040790610b51565b80601f016020809104026020016040519081016040528092919081815260200182805461043390610b51565b80156104805780601f1061045557610100808354040283529160200191610480565b820191906000526020600020905b81548152906001019060200180831161046357829003601f168201915b5050505050905080516000146104ea5760405160e560020a62461bcd028152602060048201526024808201527f54686973206964656e7469747920776173207265676973746572656420616c72604482015260e060020a636561647902606482015260840161012b565b600160a060020a038316600090815260046020526040902061050c8382610bde565b50610516836105cb565b33600160a060020a031683600160a060020a03167f86cc2097bcb5dabdee3522860f3d6b0ab9c6d24adde6941695fb4f25baf8a881846040516105599190610b07565b60405180910390a3505050565b600054600160a060020a031633146105935760405160e560020a62461bcd02815260040161012b90610ca3565b60008054604051600160a060020a0390911690600080516020610d5e833981519152908390a360008054600160a060020a0319169055565b600054600160a060020a031633146105f85760405160e560020a62461bcd02815260040161012b90610b1a565b61060181610399565b1561060b57600080fd5b600160a060020a038116600081815260036020526040808220805460ff191660011790555133917f94d300f0803cc0af9991569051574a3dafd674f3b8d03f81c5ac017d5293afa691a350565b6000601e6001546106699190610cd7565b421161068a5760405160e560020a62461bcd02815260040161012b90610d02565b601e6001546106999190610cd7565b42116106ba5760405160e560020a62461bcd02815260040161012b90610d02565b5042600155600054600160a060020a031690565b600054600160a060020a031633146106fb5760405160e560020a62461bcd02815260040161012b90610b1a565b600160a060020a0382166000908152600460205260408120805461071e90610b51565b80601f016020809104026020016040519081016040528092919081815260200182805461074a90610b51565b80156107975780601f1061076c57610100808354040283529160200191610797565b820191906000526020600020905b81548152906001019060200180831161077a57829003601f168201915b5050505050905080516000036107ac57600080fd5b600160a060020a03831660009081526004602052604090206107ce8382610bde565b5033600160a060020a031683600160a060020a03167f40df790fd345471c77ba608aeb1a950504ec123523383018d37bd5ceb497e8058385604051610559929190610d2f565b6004602052600090815260409020805461082d90610b51565b80601f016020809104026020016040519081016040528092919081815260200182805461085990610b51565b80156108a65780601f1061087b576101008083540402835291602001916108a6565b820191906000526020600020905b81548152906001019060200180831161088957829003601f168201915b505050505081565b600054600160a060020a031633146108db5760405160e560020a62461bcd02815260040161012b90610ca3565b600160a060020a0381166109465760405160e560020a62461bcd02815260206004820152602660248201527f4f776e61626c653a206e6577206f776e657220697320746865207a65726f2061604482015260d060020a6564647265737302606482015260840161012b565b60008054604051600160a060020a0380851693921691600080516020610d5e83398151915291a360008054600160a060020a031916600160a060020a0392909216919091179055565b600160a060020a03929092168252602082015260400190565b8035600160a060020a03811681146109bf57600080fd5b919050565b6000602082840312156109d657600080fd5b6109df826109a8565b9392505050565b60e060020a634e487b710260009081526041600452602490fd5b60008060408385031215610a1357600080fd5b610a1c836109a8565b915060208301356001604060020a0380821115610a3857600080fd5b818501915085601f830112610a4c57600080fd5b813581811115610a5e57610a5e6109e6565b604051601f8201601f19908116603f01168101908382118183101715610a8657610a866109e6565b81604052828152886020848701011115610a9f57600080fd5b8260208601602083013760006020848301015280955050505050509250929050565b6000815180845260005b81811015610ae757602081850181015186830182015201610acb565b506000602082860101526020601f19601f83011685010191505092915050565b6020815260006109df6020830184610ac1565b6020808252601b908201527f756e617574686f72697a65642c206e6f7420746865206f776e65720000000000604082015260600190565b600281046001821680610b6557607f821691505b602082108103610b895760e060020a634e487b710260009081526022600452602490fd5b50919050565b601f821115610bd9576000818152602081206020601f86010481016020861015610bb65750805b6020601f860104820191505b81811015610bd557828155600101610bc2565b5050505b505050565b81516001604060020a03811115610bf757610bf76109e6565b610c0b81610c058454610b51565b84610b8f565b602080601f831160018114610c445760008415610c285750858301515b60028086026008870290910a6000190419821617865550610bd5565b600085815260208120601f198616915b82811015610c7357888601518255948401946001909101908401610c54565b5085821015610c9357878501516008601f88160260020a60001904191681555b5050505050600202600101905550565b6020808252601790820152604960020a7630b1b1b2b9b9903232b734b2b2103337b91037bbb732b902604082015260600190565b80820180821115610cfc5760e060020a634e487b710260009081526011600452602490fd5b92915050565b6020808252601090820152608160020a6f3930ba32903634b6b4ba1032b93937b902604082015260600190565b604081526000610d426040830185610ac1565b8281036020840152610d548185610ac1565b9594505050505056fe8be0079c531659141344cd1fd0a4f28419497f9722a3daafe3b4186f6b6457e0a26469706673582212200e7e248ccc8553ffd9d8f930b62c330543ff197bb2fa9d204801ca8d343bb48c64736f6c63430008120033",
  "immutableReferences": {},
  "source": "// SPDX-License-Identifier: CC-BY-4.0\r\npragma solidity >=0.4.22 <0.9.0;\r\n\r\nimport \"./Whitelistable.sol\";\r\n\r\ncontract IdentityRegistry is Whitelistable {\r\n    mapping(address => string) public identityMap; // maps an address to an idenity hash\r\n\r\n    event IdentityAdded(address indexed addressAdded, string identityHash, address indexed authorizedBy);\r\n    event IdentityUpdated(address indexed updatedAddress, string previousHash, string newHash, address indexed authorizedBy);\r\n\r\n    constructor() Whitelistable(){ // empty constructor used to call the whitelistable constructor\r\n    }\r\n\r\n    function addIdentity(address _address, string memory hash) okOwner() public {\r\n        bytes memory value = bytes(identityMap[_address]);\r\n        require(value.length == 0, \"This identity was registered already\");\r\n        identityMap[_address] = hash;\r\n        addAddressToWhitelist(_address);\r\n        emit IdentityAdded(_address, hash, msg.sender);\r\n    }\r\n\r\n    function updateIdentity(address updatedAddress, string memory newHash) okOwner() public {\r\n        bytes memory previousHash = bytes(identityMap[updatedAddress]);\r\n        require(previousHash.length != 0);\r\n        identityMap[updatedAddress] = newHash;\r\n        emit IdentityUpdated(updatedAddress, string(previousHash), newHash, msg.sender);\r\n    }\r\n}",
  "sourcePath": "/Volumes/My Book/projects/pingleware-contracts/contracts/common/IdentityRegistry.sol",
  "compiler": {
    "name": "solc",
    "version": "0.8.18+commit.87f61d96.Emscripten.clang"
  },
  "schemaVersion": "3.4.12",
  "updatedAt": "2023-10-22T14:23:00.787Z",
  "devdoc": {
    "kind": "dev",
    "methods": {
      "renounceOwnership()": {
        "details": "Leaves the contract without owner. It will not be possible to call `onlyOwner` functions anymore. Can only be called by the current owner. NOTE: Renouncing ownership will leave the contract without an owner, thereby removing any functionality that is only available to the owner."
      },
      "transferOwnership(address)": {
        "details": "Transfers ownership of the contract to a new account (`newOwner`). Can only be called by the current owner."
      }
    },
    "version": 1
  },
  "userdoc": {
    "kind": "user",
    "methods": {},
    "version": 1
  }
}