{
  "contractName": "Immigration",
  "abi": [
    {
      "anonymous": false,
      "inputs": [
        {
          "indexed": false,
          "internalType": "address",
          "name": "applicant",
          "type": "address"
        },
        {
          "indexed": false,
          "internalType": "bool",
          "name": "approved",
          "type": "bool"
        }
      ],
      "name": "ApplicationProcessed",
      "type": "event"
    },
    {
      "anonymous": false,
      "inputs": [
        {
          "indexed": false,
          "internalType": "address",
          "name": "applicant",
          "type": "address"
        }
      ],
      "name": "ApplicationSubmitted",
      "type": "event"
    },
    {
      "anonymous": false,
      "inputs": [
        {
          "indexed": false,
          "internalType": "address",
          "name": "_sender",
          "type": "address"
        }
      ],
      "name": "Sender",
      "type": "event"
    },
    {
      "inputs": [],
      "name": "getOwner",
      "outputs": [
        {
          "internalType": "address",
          "name": "",
          "type": "address"
        }
      ],
      "stateMutability": "view",
      "type": "function"
    },
    {
      "inputs": [
        {
          "internalType": "address",
          "name": "",
          "type": "address"
        }
      ],
      "name": "visaApplications",
      "outputs": [
        {
          "internalType": "uint256",
          "name": "applicationDate",
          "type": "uint256"
        },
        {
          "internalType": "uint256",
          "name": "processingTime",
          "type": "uint256"
        },
        {
          "internalType": "bool",
          "name": "approved",
          "type": "bool"
        }
      ],
      "stateMutability": "view",
      "type": "function"
    },
    {
      "inputs": [],
      "name": "submitApplication",
      "outputs": [],
      "stateMutability": "nonpayable",
      "type": "function"
    },
    {
      "inputs": [
        {
          "internalType": "address",
          "name": "applicant",
          "type": "address"
        },
        {
          "internalType": "bool",
          "name": "approvalStatus",
          "type": "bool"
        }
      ],
      "name": "processApplication",
      "outputs": [],
      "stateMutability": "nonpayable",
      "type": "function"
    },
    {
      "inputs": [
        {
          "internalType": "address",
          "name": "applicant",
          "type": "address"
        }
      ],
      "name": "getApplicationStatus",
      "outputs": [
        {
          "internalType": "bool",
          "name": "",
          "type": "bool"
        },
        {
          "internalType": "uint256",
          "name": "",
          "type": "uint256"
        }
      ],
      "stateMutability": "view",
      "type": "function"
    }
  ],
  "bytecode": "0x608080604052346100285760008054600160a060020a03191633179055610349908161002e8239f35b600080fdfe60806040818152600436101561001457600080fd5b60009160e060020a83350490632519eba182146102b057508063893d20e814610289578063ad087d8d1461014c578063c28ef721146100f85763cc9e31871461005c57600080fd5b346100f457816003193601126100f457338252600160205280822080546100ad577f15ddd566864bad5527401ae58a8e790dc92d95607594b2e43d5aaf1f27ac13619160209142905551338152a180f35b815160e560020a62461bcd02815260206004820152601d60248201527f4170706c69636174696f6e20616c7265616479207375626d69747465640000006044820152606490fd5b5080fd5b50346100f45760203660031901126100f4576060918190600160a060020a0361011f6102f8565b1681526001602052209081549160ff60026001830154920154169082519384526020840152151590820152f35b5090346102865781600319360112610286576101666102f8565b9160243592831515809403610282578254600160a060020a039190821633036102475716808352600160205281832093845480156102055742034281116101ee578560029160017ff8b246cfb8037423007cbc631838bbbf609e9a7cd98592ae0e10058592c6f239979801550160ff1981541660ff831617905582519182526020820152a180f35b60e060020a634e487b710285526011600452602485fd5b835160e560020a62461bcd0281526020600482015260156024820152605a60020a74105c1c1b1a58d85d1a5bdb881b9bdd08199bdd5b99026044820152606490fd5b825160e560020a62461bcd02815260206004820152600e6024820152609260020a6d139bdd08185d5d1a1bdc9a5e9959026044820152606490fd5b8280fd5b80fd5b50346100f457816003193601126100f45790549051600160a060020a039091168152602090f35b90508234610286576020366003190112610286578290600160a060020a036102d66102f8565b168152600160205220600160ff60028301541691015490151582526020820152f35b60043590600160a060020a038216820361030e57565b600080fdfea26469706673582212202fa5bbe9501c8ef5734809498df3f7276034502d7aa40d754f0b96b77a310cf464736f6c63430008120033",
  "immutableReferences": {},
  "source": "// SPDX-License-Identifier: BSL-1.1\npragma solidity >=0.4.22 <0.9.0;\n\nimport \"../../abstract/AAccessControl.sol\";\n\ncontract Immigration is AAccessControl {\n    mapping(address => VisaApplication) public visaApplications;\n\n    struct VisaApplication {\n        uint256 applicationDate;\n        uint256 processingTime;\n        bool approved;\n    }\n\n    event ApplicationSubmitted(address applicant);\n    event ApplicationProcessed(address applicant, bool approved);\n\n\n    function submitApplication() public {\n        VisaApplication storage application = visaApplications[msg.sender];\n        require(application.applicationDate == 0, \"Application already submitted\");\n        application.applicationDate = block.timestamp;\n        emit ApplicationSubmitted(msg.sender);\n    }\n\n    function processApplication(address applicant, bool approvalStatus) public isOwner {\n        VisaApplication storage application = visaApplications[applicant];\n        require(application.applicationDate != 0, \"Application not found\");\n        application.processingTime = block.timestamp - application.applicationDate;\n        application.approved = approvalStatus;\n        emit ApplicationProcessed(applicant, approvalStatus);\n    }\n\n    function getApplicationStatus(address applicant) public view returns (bool, uint256) {\n        VisaApplication storage application = visaApplications[applicant];\n        return (application.approved, application.processingTime);\n    }\n}",
  "sourcePath": "/Volumes/HOME/pingleware-contracts/contracts/government/federal/Immigration.sol",
  "compiler": {
    "name": "solc",
    "version": "0.8.18+commit.87f61d96.Emscripten.clang"
  },
  "schemaVersion": "3.4.12",
  "updatedAt": "2024-05-23T18:56:26.198Z",
  "devdoc": {
    "kind": "dev",
    "methods": {},
    "version": 1
  },
  "userdoc": {
    "kind": "user",
    "methods": {},
    "version": 1
  }
}