{
  "contractName": "Immigration",
  "abi": [
    {
      "anonymous": false,
      "inputs": [
        {
          "indexed": false,
          "internalType": "address",
          "name": "_sender",
          "type": "address"
        }
      ],
      "name": "Sender",
      "type": "event"
    },
    {
      "inputs": [],
      "name": "getOwner",
      "outputs": [
        {
          "internalType": "address",
          "name": "",
          "type": "address"
        }
      ],
      "stateMutability": "view",
      "type": "function",
      "constant": true
    }
  ],
  "bytecode": "0x6080604052348015600f57600080fd5b5060008054600160a060020a031916331790556085806100306000396000f3fe6080604052348015600f57600080fd5b5060043610602b5760e060020a6000350463893d20e881146030575b600080fd5b60005460408051600160a060020a039092168252519081900360200190f3fea264697066735822122074f13742effbb788c3e80f2108a6eb28bd471d92ac7ae4e1d56b62c042530b4264736f6c63430008120033",
  "immutableReferences": {},
  "source": "// SPDX-License-Identifier: BSL-1.1\npragma solidity >=0.4.22 <0.9.0;\n\nimport \"../../abstract/AAccessControl.sol\";\n\ncontract Immigration is AAccessControl {\n\n}",
  "sourcePath": "/Volumes/My Book/projects/pingleware-contracts/contracts/government/federal/Immigration.sol",
  "compiler": {
    "name": "solc",
    "version": "0.8.18+commit.87f61d96.Emscripten.clang"
  },
  "schemaVersion": "3.4.12",
  "updatedAt": "2023-10-23T18:13:24.003Z",
  "networkType": "ethereum",
  "devdoc": {
    "kind": "dev",
    "methods": {},
    "version": 1
  },
  "userdoc": {
    "kind": "user",
    "methods": {},
    "version": 1
  }
}