{
  "contractName": "InstantBingo",
  "abi": [
    {
      "inputs": [
        {
          "internalType": "string",
          "name": "manufacturer",
          "type": "string"
        }
      ],
      "stateMutability": "nonpayable",
      "type": "constructor"
    },
    {
      "anonymous": false,
      "inputs": [
        {
          "indexed": false,
          "internalType": "uint256",
          "name": "balance",
          "type": "uint256"
        }
      ],
      "name": "ContractBalanceWithdrawn",
      "type": "event"
    },
    {
      "anonymous": false,
      "inputs": [
        {
          "indexed": false,
          "internalType": "uint256",
          "name": "game",
          "type": "uint256"
        },
        {
          "indexed": false,
          "internalType": "uint256",
          "name": "card",
          "type": "uint256"
        },
        {
          "indexed": false,
          "internalType": "uint256",
          "name": "formNumber",
          "type": "uint256"
        },
        {
          "indexed": false,
          "internalType": "uint256",
          "name": "serialNo",
          "type": "uint256"
        }
      ],
      "name": "GameCardNumbersAdded",
      "type": "event"
    },
    {
      "anonymous": false,
      "inputs": [
        {
          "indexed": false,
          "internalType": "uint256",
          "name": "game",
          "type": "uint256"
        }
      ],
      "name": "GameCreated",
      "type": "event"
    },
    {
      "anonymous": false,
      "inputs": [
        {
          "indexed": false,
          "internalType": "uint256",
          "name": "game",
          "type": "uint256"
        },
        {
          "indexed": false,
          "internalType": "uint256",
          "name": "winningNumber",
          "type": "uint256"
        }
      ],
      "name": "GameEnded",
      "type": "event"
    },
    {
      "anonymous": false,
      "inputs": [
        {
          "indexed": false,
          "internalType": "uint256",
          "name": "game",
          "type": "uint256"
        },
        {
          "indexed": false,
          "internalType": "address",
          "name": "winner",
          "type": "address"
        },
        {
          "indexed": false,
          "internalType": "uint256",
          "name": "amount",
          "type": "uint256"
        }
      ],
      "name": "GamePrizeClaimed",
      "type": "event"
    },
    {
      "anonymous": false,
      "inputs": [
        {
          "indexed": false,
          "internalType": "uint256",
          "name": "game",
          "type": "uint256"
        },
        {
          "indexed": false,
          "internalType": "uint256",
          "name": "ticketNo",
          "type": "uint256"
        },
        {
          "indexed": false,
          "internalType": "uint256",
          "name": "gameSerialNo",
          "type": "uint256"
        }
      ],
      "name": "GameTicketPurchase",
      "type": "event"
    },
    {
      "anonymous": false,
      "inputs": [
        {
          "indexed": false,
          "internalType": "address",
          "name": "sender",
          "type": "address"
        },
        {
          "indexed": false,
          "internalType": "uint256",
          "name": "amount",
          "type": "uint256"
        }
      ],
      "name": "MoniesReceived",
      "type": "event"
    },
    {
      "inputs": [],
      "name": "MAX_CARD_NUMBER",
      "outputs": [
        {
          "internalType": "uint256",
          "name": "",
          "type": "uint256"
        }
      ],
      "stateMutability": "view",
      "type": "function"
    },
    {
      "inputs": [],
      "name": "MAX_TICKETS",
      "outputs": [
        {
          "internalType": "uint256",
          "name": "",
          "type": "uint256"
        }
      ],
      "stateMutability": "view",
      "type": "function"
    },
    {
      "inputs": [],
      "name": "MIN_CARD_NUMBER",
      "outputs": [
        {
          "internalType": "uint256",
          "name": "",
          "type": "uint256"
        }
      ],
      "stateMutability": "view",
      "type": "function"
    },
    {
      "inputs": [],
      "name": "MIN_NUMBERS_PER_CARD",
      "outputs": [
        {
          "internalType": "uint256",
          "name": "",
          "type": "uint256"
        }
      ],
      "stateMutability": "view",
      "type": "function"
    },
    {
      "inputs": [],
      "name": "YEARS",
      "outputs": [
        {
          "internalType": "uint256",
          "name": "",
          "type": "uint256"
        }
      ],
      "stateMutability": "view",
      "type": "function"
    },
    {
      "inputs": [],
      "name": "maxPayout",
      "outputs": [
        {
          "internalType": "uint256",
          "name": "",
          "type": "uint256"
        }
      ],
      "stateMutability": "view",
      "type": "function"
    },
    {
      "inputs": [],
      "name": "minAge",
      "outputs": [
        {
          "internalType": "uint256",
          "name": "",
          "type": "uint256"
        }
      ],
      "stateMutability": "view",
      "type": "function"
    },
    {
      "inputs": [],
      "name": "owner",
      "outputs": [
        {
          "internalType": "address",
          "name": "",
          "type": "address"
        }
      ],
      "stateMutability": "view",
      "type": "function"
    },
    {
      "inputs": [],
      "name": "sponsor",
      "outputs": [
        {
          "internalType": "string",
          "name": "",
          "type": "string"
        }
      ],
      "stateMutability": "view",
      "type": "function"
    },
    {
      "inputs": [],
      "name": "totalPlayers",
      "outputs": [
        {
          "internalType": "uint256",
          "name": "",
          "type": "uint256"
        }
      ],
      "stateMutability": "view",
      "type": "function"
    },
    {
      "inputs": [],
      "name": "winningNumber",
      "outputs": [
        {
          "internalType": "uint256",
          "name": "",
          "type": "uint256"
        }
      ],
      "stateMutability": "view",
      "type": "function"
    },
    {
      "stateMutability": "payable",
      "type": "receive"
    },
    {
      "inputs": [
        {
          "internalType": "uint256",
          "name": "startTime",
          "type": "uint256"
        },
        {
          "internalType": "uint256",
          "name": "endTime",
          "type": "uint256"
        },
        {
          "internalType": "uint256",
          "name": "serialNo",
          "type": "uint256"
        },
        {
          "internalType": "uint256",
          "name": "ticketCount",
          "type": "uint256"
        },
        {
          "internalType": "uint256",
          "name": "carryOver",
          "type": "uint256"
        },
        {
          "internalType": "uint256",
          "name": "usdWei",
          "type": "uint256"
        }
      ],
      "name": "newGame",
      "outputs": [
        {
          "internalType": "uint256",
          "name": "",
          "type": "uint256"
        }
      ],
      "stateMutability": "nonpayable",
      "type": "function"
    },
    {
      "inputs": [
        {
          "internalType": "uint256",
          "name": "game",
          "type": "uint256"
        },
        {
          "internalType": "uint256",
          "name": "formNumber",
          "type": "uint256"
        },
        {
          "internalType": "string",
          "name": "ticket",
          "type": "string"
        },
        {
          "internalType": "string",
          "name": "signature",
          "type": "string"
        }
      ],
      "name": "addGameCard",
      "outputs": [
        {
          "internalType": "uint256",
          "name": "card",
          "type": "uint256"
        }
      ],
      "stateMutability": "nonpayable",
      "type": "function"
    },
    {
      "inputs": [
        {
          "internalType": "uint256",
          "name": "game",
          "type": "uint256"
        },
        {
          "internalType": "uint256",
          "name": "card",
          "type": "uint256"
        }
      ],
      "name": "getGameCardNumbers",
      "outputs": [
        {
          "components": [
            {
              "internalType": "uint256",
              "name": "game",
              "type": "uint256"
            },
            {
              "internalType": "uint256",
              "name": "serialNo",
              "type": "uint256"
            },
            {
              "internalType": "uint256",
              "name": "formNumber",
              "type": "uint256"
            },
            {
              "internalType": "string",
              "name": "ticket",
              "type": "string"
            },
            {
              "internalType": "string",
              "name": "signature",
              "type": "string"
            }
          ],
          "internalType": "struct InstantBingo.Card",
          "name": "",
          "type": "tuple"
        }
      ],
      "stateMutability": "view",
      "type": "function"
    },
    {
      "inputs": [
        {
          "internalType": "uint16",
          "name": "year",
          "type": "uint16"
        }
      ],
      "name": "yearToEpoch",
      "outputs": [
        {
          "internalType": "uint256",
          "name": "",
          "type": "uint256"
        }
      ],
      "stateMutability": "view",
      "type": "function"
    },
    {
      "inputs": [
        {
          "internalType": "address",
          "name": "wallet",
          "type": "address"
        }
      ],
      "name": "addPlayer",
      "outputs": [],
      "stateMutability": "nonpayable",
      "type": "function"
    },
    {
      "inputs": [
        {
          "internalType": "uint256",
          "name": "game",
          "type": "uint256"
        },
        {
          "internalType": "uint256",
          "name": "_ticketNumber",
          "type": "uint256"
        }
      ],
      "name": "buyTicket",
      "outputs": [],
      "stateMutability": "payable",
      "type": "function"
    },
    {
      "inputs": [],
      "name": "getPlayerTickets",
      "outputs": [
        {
          "components": [
            {
              "internalType": "uint256",
              "name": "game",
              "type": "uint256"
            },
            {
              "internalType": "uint256",
              "name": "gameSerialNo",
              "type": "uint256"
            },
            {
              "internalType": "uint256",
              "name": "formNumber",
              "type": "uint256"
            },
            {
              "internalType": "address",
              "name": "playerAddress",
              "type": "address"
            },
            {
              "internalType": "uint256",
              "name": "ticketNumber",
              "type": "uint256"
            }
          ],
          "internalType": "struct InstantBingo.Player[]",
          "name": "",
          "type": "tuple[]"
        }
      ],
      "stateMutability": "view",
      "type": "function"
    },
    {
      "inputs": [
        {
          "internalType": "uint256",
          "name": "game",
          "type": "uint256"
        }
      ],
      "name": "closeGame",
      "outputs": [],
      "stateMutability": "nonpayable",
      "type": "function"
    },
    {
      "inputs": [
        {
          "internalType": "uint256",
          "name": "game",
          "type": "uint256"
        }
      ],
      "name": "claimPrize",
      "outputs": [],
      "stateMutability": "nonpayable",
      "type": "function"
    },
    {
      "inputs": [
        {
          "internalType": "uint256",
          "name": "game",
          "type": "uint256"
        }
      ],
      "name": "withdrawRemainingFunds",
      "outputs": [],
      "stateMutability": "nonpayable",
      "type": "function"
    },
    {
      "inputs": [
        {
          "internalType": "uint256",
          "name": "game",
          "type": "uint256"
        }
      ],
      "name": "getGameState",
      "outputs": [
        {
          "internalType": "enum InstantBingo.GameState",
          "name": "",
          "type": "uint8"
        }
      ],
      "stateMutability": "view",
      "type": "function"
    },
    {
      "inputs": [
        {
          "internalType": "uint256",
          "name": "game",
          "type": "uint256"
        }
      ],
      "name": "getGameEndTime",
      "outputs": [
        {
          "internalType": "uint256",
          "name": "",
          "type": "uint256"
        }
      ],
      "stateMutability": "view",
      "type": "function"
    },
    {
      "inputs": [],
      "name": "getGames",
      "outputs": [
        {
          "components": [
            {
              "internalType": "uint256",
              "name": "serialNo",
              "type": "uint256"
            },
            {
              "internalType": "uint256",
              "name": "gameStartTime",
              "type": "uint256"
            },
            {
              "internalType": "uint256",
              "name": "gameEndTime",
              "type": "uint256"
            },
            {
              "internalType": "enum InstantBingo.GameState",
              "name": "state",
              "type": "uint8"
            },
            {
              "internalType": "uint256",
              "name": "totalPlayers",
              "type": "uint256"
            },
            {
              "internalType": "uint256",
              "name": "maxPlayers",
              "type": "uint256"
            },
            {
              "internalType": "uint256",
              "name": "totalCards",
              "type": "uint256"
            },
            {
              "internalType": "uint256",
              "name": "totalNumbers",
              "type": "uint256"
            },
            {
              "internalType": "uint256",
              "name": "numbersPerCard",
              "type": "uint256"
            },
            {
              "internalType": "uint256",
              "name": "balance",
              "type": "uint256"
            }
          ],
          "internalType": "struct InstantBingo.Game[]",
          "name": "",
          "type": "tuple[]"
        }
      ],
      "stateMutability": "view",
      "type": "function"
    },
    {
      "inputs": [],
      "name": "getContractBalance",
      "outputs": [
        {
          "internalType": "uint256",
          "name": "",
          "type": "uint256"
        }
      ],
      "stateMutability": "view",
      "type": "function"
    },
    {
      "inputs": [
        {
          "internalType": "uint256",
          "name": "amountInWei",
          "type": "uint256"
        }
      ],
      "name": "setMaxPayout",
      "outputs": [],
      "stateMutability": "nonpayable",
      "type": "function"
    }
  ],
  "bytecode": "0x6080604052346200027157620019eb803803806200001d8162000276565b92833981019060208082840312620002715781516001604060020a039283821162000271570192601f90808286011215620002715784518481116200022d57601f1995620000718285018816860162000276565b928284528583830101116200027157849060005b8381106200025c57505060009183010152600161e88081556002936012855533600160a060020a03196000541617600055600060045582519586116200022d57600a54828682049116801562000222575b82821014620001f357848111620001a9575b50809380871160011462000137575050508394506000936200012b575b505082810292600802900a60001904191617600a555b60405161174e90816200029d8239f35b01519150388062000105565b9290939196958095968116600a60005285600020956000905b8a8383106200018e575050501062000172575b505050500201600a556200011b565b0151908316600802840a60001904191690553880808062000163565b85870151895590970196948501948893509081019062000150565b600a60005281600020828681818b0104830193828b10620001e9575b0104019083905b828110620001dc575050620000e8565b60008155018390620001cc565b93508293620001c5565b7f4e487b7100000000000000000000000000000000000000000000000000000000600052602260045260246000fd5b90607f1690620000d6565b7f4e487b7100000000000000000000000000000000000000000000000000000000600052604160045260246000fd5b81810183015185820184015286920162000085565b600080fd5b6040519190601f01601f191682016001604060020a038111838210176200022d5760405256fe608080604052600436101561004c575b50361561001b57600080fd5b7f935e3ec42afb4059f494bcd8b73c7ef7abc0dd48d7bd9464bbc0d850096d112a60408051338152346020820152a1005b60e060020a6000350490630bd79431821461137f5750806313e9655214610fe757806315c9c01114610f90578063298ec20814610d7e5780632d6ef31014610bfc5780634664611e14610bde57806355519d8714610bc057806356b4997f14610ba75780636edff59014610b8b5780636f9fb98a14610b6e57806373aedcec14610b5257806377c9366214610a7157806382007dd6146108d857806385c9d673146107ad5780638da5cb5b1461078457806399f526dd1461069a578063b1275f9a146105f0578063bd798a3f146104c1578063c04c594714610344578063d709815414610257578063e0176de814610239578063e5a62c481461021a578063ee7bdc4f146101ef578063f60cdcf6146101d1578063fca846dc146101b45763ffde0c741461017a573861000f565b346101af5760203660031901126101af57602060ff600361019c600435611610565b500154166101ad6040518092611583565bf35b600080fd5b346101af5760003660031901126101af576020604051610fa08152f35b346101af5760003660031901126101af576020600354604051908152f35b346101af5760203660031901126101af576020600261020f600435611610565b500154604051908152f35b346101af5760003660031901126101af5760206040516301e133808152f35b346101af5760003660031901126101af576020600154604051908152f35b346101af5760203660031901126101af5760043560ff600361027883611610565b50015416600481101561032a57600261029191146116c9565b6001543031811015610322575b600060045560036102ae83611610565b5001805460ff191660031790558060008115610319575b600080809381933390f11561030d577fcfa66a04fba946530a770b8c54edc8dc6c1ad73f6928ae77ea7517d027e76e62916060916040519182523360208301526040820152a1005b6040513d6000823e3d90fd5b506108fc6102c5565b50303161029e565b60e060020a634e487b710260009081526021600452602490fd5b346101af5760003660031901126101af576007805490610363826116b2565b61037060405191826113d0565b82815260209182820193848260005284600020906000905b83821061043557604080518881528751818a018190528a928201908a60005b8281106103b45784840385f35b909192826101406001928851805182528381015184830152604081015160408301526103e860608083015190840190611583565b6080808201519083015260a0808201519083015260c0808201519083015260e0808201519083015261010080820151908301526101208091015190820152019601910194929190946103a7565b604051610441816113b4565b835481526001840154888201526002840154604082015260ff600385015416600481101561032a57600192828a926060600a95015260048701546080820152600587015460a0820152600687015460c08201528887015460e082015260088701546101008201526009870154610120820152815201930191019091610388565b346101af5760203660031901126101af57600054600160a060020a03166004356104ec338314611590565b60ff60036104f983611610565b50015416600481101561032a57600291610518600361051d93146116c9565b611610565b50015462093a8081018091116105d657421061058057600080808030318095828215610577575bf11561030d5760207f8030349df01c447169490954f7d7e84fced918106c79dc48fa0560bba769086f91604051908152a1005b506108fc610544565b60405160e560020a62461bcd02815260206004820152602260248201527f5769746864726177616c2074696d6520686173206e6f74207061737365642079604482015260f260020a61195d026064820152608490fd5b60e060020a634e487b710260009081526011600452602490fd5b346101af5760203660031901126101af57600435600160a060020a03818116918290036101af5761062690600054163314611590565b80600052600560205260ff60406000205416610657576000908152600560205260409020805460ff19166001179055005b60405160e560020a62461bcd0281526020600482015260156024820152605860020a74706c6179657220616c726561647920657869737473026044820152606490fd5b346101af576106e76106ab36611449565b90606060806040516106bc81611399565b6000815260006020820152600060408201528280820152015260005260086020526040600020611649565b506040516106f481611399565b815481526107806001830154926020830193845261076d6002820154916040850192835261073760046107296003840161149e565b92606088019384520161149e565b9260808601938452604051968796602088525160208801525160408701525160608601525160a0608086015260c0850190611543565b9051838203601f190160a0850152611543565b0390f35b346101af5760003660031901126101af57600054604051600160a060020a039091168152602090f35b346101af5760003660031901126101af5733600052600560208181526107da60ff60406000205416611665565b336000526006815260406000209182546107f3816116b2565b9161080160405193846113d0565b8183528383018095600052846000206000915b84831061088757604080518881528751818a018190528a928201908a60005b8281106108405784840385f35b855180518552808301518584015260408082015190860152606080820151600160a060020a031690860152608090810151908501529481019460a090930192600101610833565b838760019260405161089881611399565b855481528486015483820152600286015460408201528460a060020a03600387015416606082015260048601546080820152815201920192019190610814565b346101af5760c03660031901126101af5760643561092460a435610908600160a060020a03600054163314611590565b61091e61091582856115f0565b916084356115f0565b90611603565b9060405191610932836113b4565b60043583526020830160243581526040840160443581526060850193600085526080860181815260a087019082825260c0880192835260e0880193604b8552610100890195601887526101208a01978852600754604060020a811015610a57578060016109a29201600755611610565b9a909a610a3d57518a555160018a015551600289015560038801965196600488101561032a5760099760ff80198354169116179055516004880155516005870155516006860155516007850155516008840155519101556007546000198101908082116105d6577fbd19c47e9925eb6f7be8bb1c13a841e0240aaeaf17f217e90022e9c8eb66877f60208093604051908152a1604051908152f35b60e060020a634e487b710260009081526004819052602490fd5b60e060020a634e487b710260009081526041600452602490fd5b346101af5760003660031901126101af57604051600090600a54610a948161145f565b808352600191808316908115610b2b5750600114610ad1575b61078083610abd818703826113d0565b604051918291602083526020830190611543565b600a600090815260209450917fc65a7bb8d6351c1cf70c95a316cc6a92839c986682d98bc35f958f4883f9d2a85b828410610b1857505050810190910190610abd81610aad565b8054858501870152928501928101610aff565b6107809550610abd93506020915091849260ff191682840152151581028201019350610aad565b346101af5760003660031901126101af57602060405160188152f35b346101af5760003660031901126101af5760203031604051908152f35b346101af5760003660031901126101af57602060405160018152f35b346101af5760203660031901126101af57600435600155005b346101af5760003660031901126101af576020600254604051908152f35b346101af5760003660031901126101af576020600454604051908152f35b346101af5760203660031901126101af57600435600160a060020a03610c2781600054163314611590565b60ff6003610c3484611610565b50015416600481101561032a57600103610d36576040805142602080830191825282529181016001604060020a03811182821017610a57576040525190206005610c7d84611610565b500154908115610d1c57066004556003610c9683611610565b5001805460ff191660021790556001549030318210610ce4575b7f4c4660db760944215f41e957066d756ad5fd0eed1b4640632322eb06f77b034d60408460045482519182526020820152a1005b600054163031828103928184116105d657600093849384938493849114610d13575bf11561030d578180610cb0565b506108fc610d06565b60e060020a634e487b710260009081526012600452602490fd5b60405160e560020a62461bcd02815260206004820152601a60248201527f5468652067616d65206973206e6f7420636c6f736564207965740000000000006044820152606490fd5b610d8736611449565b9060ff6003610d9583611610565b50015416600481101561032a57610f3457336000526005602052610dc060ff60406000205416611665565b3360005260066020526040600020610dd782611610565b5054908260005260086020526002610df3856040600020611649565b5001549060405191610e0483611399565b8483526020830193845260408301908152606083019033825260808401928784528054604060020a811015610a5757610e4291600182018155611649565b959095610a3d579351855592516001850155915160028401559051600383018054600160a060020a031916600160a060020a039290921691909117905551600491820155610e8f82611610565b500190815492600184018094116105d6577f200c56b5ea932e7efe2f882ae8b04cb25aec0c691ace0e0754b75655fec67da793606093556004610ed183611610565b5001546005610edf84611610565b50015414610f07575b610ef182611610565b50549060405192835260208301526040820152a1005b6003610f1283611610565b5001805460ff19166001179055610f2882611610565b50600242910155610ee8565b60405160e560020a62461bcd02815260206004820152602860248201527f5468652067616d65206973206e6f74206f70656e20666f72207469636b657420604482015260c060020a677075726368617365026064820152608490fd5b346101af5760203660031901126101af5760043561ffff908181168091036101af576012018181116105d657166301e13380908181029181830414901517156105d657610fdf60209142611603565b604051908152f35b346101af5760803660031901126101af576044356001604060020a0381116101af576110179036906004016113f3565b6064356001604060020a0381116101af576110369036906004016113f3565b9061104d600160a060020a03600054163314611590565b611058600435611610565b50549160043560005260086020526040600020916040519261107984611399565b6004358452602084018581526040850191602435835260608601938452608086019485528054604060020a811015610a57576110ba91600182018155611649565b959095610a3d57518555516001850155516002840155518051906001604060020a038211610a575781906110f1600386015461145f565b601f811161132c575b50602090601f83116001146112bc576000926112b1575b5050816002029160080260020a6000190419161760038301555b518051906001604060020a038211610a575761114a600484015461145f565b601f811161126a575b50602090601f83116001146111f95760049291600091836111ee575b5050816002029160080260020a600019041916179101555b600435600052600860205260406000205460001981019081116105d6577f3332aef7491c9cb15398882926a30726163412884d07a4b51ac2d8072aff43086080602093604051906004358252848683015260243560408301526060820152a1604051908152f35b01519050858061116f565b90601f198316916004850160005260206000209260005b818110611252575092600292859260049660019610611237575b5050500201910155611187565b01516008601f841602840a600019041916905586808061122a565b92936020600181928786015181550195019301611210565b6004840160005260206000206020601f8501048101602085106112aa575b6020601f8401048201811061129e575050611153565b60008155600101611288565b5080611288565b015190508580611111565b600386016000908152602081209350601f198516905b818110611314575091600293918560019694106112f9575b5050500201600383015561112b565b01516008601f841602840a60001904191690558680806112ea565b929360206001819287860151815501950193016112d2565b9091506003850160005260206000206020601f850104810160208510611378575b90849392915b6020601f840104820181106113695750506110fa565b60008155859450600101611353565b508061134d565b346101af5760003660031901126101af5780604b60209252f35b60a081019081106001604060020a03821117610a5757604052565b61014081019081106001604060020a03821117610a5757604052565b601f909101601f19168101906001604060020a03821190821017610a5757604052565b81601f820112156101af578035906001604060020a038211610a575760405192611427601f8401601f1916602001856113d0565b828452602083830101116101af57816000926020809301838601378301015290565b60409060031901126101af576004359060243590565b9060016002830492168015611494575b602083101461147a57565b60e060020a634e487b710260009081526022600452602490fd5b91607f169161146f565b90604051918260008254926114b28461145f565b90818452600194858116908160001461152157506001146114de575b50506114dc925003836113d0565b565b9093915060005260209081600020936000915b8183106115095750506114dc935082010138806114ce565b855488840185015294850194879450918301916114f1565b9150506114dc94506020925060ff1916828401521515810282010138806114ce565b919082519283825260005b84811061156f575050826000602080949584010152601f8019910116010190565b60208183018101518483018201520161154e565b90600482101561032a5752565b1561159757565b60405160e560020a62461bcd02815260206004820152602560248201527f4f6e6c7920746865206f776e65722063616e2063616c6c20746869732066756e604482015260d960020a6431ba34b7b7026064820152608490fd5b818102929181159184041417156105d657565b919082018092116105d657565b60075481101561162f576007600052600a602060002091020190600090565b60e060020a634e487b710260009081526032600452602490fd5b805482101561162f576000526005602060002091020190600090565b1561166c57565b60405160e560020a62461bcd0281526020600482015260186024820152604260020a771c1b185e595c881a5cc81b9bdd08185d5d1a1c9bda5e9959026044820152606490fd5b6001604060020a038111610a575760208091020190565b156116d057565b60405160e560020a62461bcd02815260206004820152601d60248201527f5468652067616d6520686173206e6f742066696e6973686564207965740000006044820152606490fdfea26469706673582212209287860f328c2b3a70c417609d2677eddbe1f3c0d5ac5fd4874383cfce31ff2464736f6c63430008120033",
  "immutableReferences": {},
  "source": "// SPDX-License-Identifier: CC-BY-4.0\npragma solidity >=0.4.22 <0.9.0;\n\n/**\n * This Instant Bingo Game is based on the rules for a Florida Instant Bingo operation at http://www.leg.state.fl.us/Statutes/index.cfm?App_mode=Display_Statute&URL=0800-0899/0849/Sections/0849.0931.html\n *\n * However, judicial intervention must be sought for operation as an online instant bingo game in the STate of Florida\n *\n */\n\ncontract InstantBingo {\n    uint256 public constant YEARS = 365 days;\n    uint256 public constant MIN_NUMBERS_PER_CARD = 24;\n    uint256 public constant MIN_CARD_NUMBER = 1;\n    uint256 public constant MAX_CARD_NUMBER = 75;\n    uint256 public constant MAX_TICKETS = 4000;\n\n    address public owner;\n    uint256 public maxPayout = 59520; // equivalent to $250 in wei, instant game does not have a max payout\n    uint256 public minAge = 18;\n    \n    uint256 public totalPlayers;\n    uint256 public winningNumber;\n\n    enum GameState { Open, Closed, Finished, Archived }\n\n    struct Player {\n        uint256 game;\n        uint256 gameSerialNo;\n        uint256 formNumber;\n        address playerAddress;\n        uint256 ticketNumber;\n    }\n    /**\n     * Bingo games can have various prize structures, and the specific structure often depends on the type of bingo game being played, the rules set by the organizer, and the region in which the game is conducted. Here are some common prize structures for bingo games:\n     * 1. Single-Line Bingo: In this simple format, the first player to complete a horizontal, vertical, or diagonal line on their bingo card wins a prize.\n     * 2. Pattern Bingo: Players must complete a specific pattern on their bingo card, which can be various shapes or designs. \n     *      The first player to complete the specified pattern is the winner.\n     * 3. Coverall or Blackout Bingo: Players must cover all the numbers on their bingo card to win. \n     *      This is often the most challenging type of bingo game, and it typically offers a higher prize.\n     * 4. Four Corners Bingo: Players must mark the four corner numbers on their card to win.\n     * 5. Two-Line Bingo: Players need to complete two lines on their card to win, which can be two horizontal lines, two vertical lines, or one of each.\n     *\n     * 6. Jackpot Bingo: This is a progressive jackpot prize, where a specific pattern or number of calls are set, and if nobody wins within those calls, the jackpot prize increases for the next game.\n     * 7. Consolation Prizes: In addition to the main prizes, some bingo games offer consolation prizes for players who achieve certain patterns or milestones, even if they don't win the main prize.\n     * 8. Multiple Winners: In many bingo games, if multiple players complete the winning pattern on the same call, the prize is divided among the winners.\n     * 9. Tiered Prizes: Prizes can vary based on the speed of achieving the winning pattern. The first player to complete the pattern might get a larger prize, while subsequent winners receive smaller prizes.\n     * 10. Special Themed Games: Bingo games can have themed prizes based on holidays, seasons, or special occasions. For example, Halloween bingo might offer prizes related to the holiday.\n     * 11. Community Jackpots: In some bingo games, if no one wins the jackpot, a community jackpot is awarded to all participants in the game.\n     * 12. Guaranteed Prizes: Organizers may offer guaranteed prizes, ensuring that a minimum amount is awarded, even if there are only a few participants.\n     * Remember that the specific prize structures and rules can vary significantly from one bingo game to another. Players should always review the rules and prize structure for the specific game they are participating in to understand what is at stake and how to win.\n     */\n\n    enum GameType {\n        SingleLine,\n        Pattern,\n        CoverallBlackout,\n        FourCorners,\n        TwoLine\n    }\n\n    enum PrizeStructure {\n        Jackpot,\n        Consolation,\n        Multiple,\n        Tiered,\n        CommunityJackpot,\n        Guaranteed\n    }\n\n    struct Flare {\n        string name;\n        string manufacturer;\n        uint256 formNumber;\n        uint256 ticketCount;\n        PrizeStructure prizeStructure;\n        uint256 costPerPlay;\n        uint256 gameSerialNo;\n    }\n\n    struct Rack {\n        uint256 game;\n        uint256[] number;\n    }\n\n    struct Game {\n        uint256 serialNo;\n        uint256 gameStartTime;\n        uint256 gameEndTime;\n        GameState state;\n        uint256 totalPlayers;\n        uint256 maxPlayers;\n        uint256 totalCards;\n        uint256 totalNumbers;\n        uint256 numbersPerCard;\n        uint256 balance;\n    }\n\n    struct Card {\n        uint256 game;\n        uint256 serialNo;\n        uint256 formNumber;\n        string ticket;\n        string signature;\n    }\n\n\n    mapping(address => bool) private _players;\n    mapping(address => Player[]) private players;\n\n    Game[] private games;\n\n    mapping(uint256 => Card[]) private gameCards;\n\n    mapping(uint256 => uint256[]) private winningTickets; // winningTickets[game] = [ticketNumber,...]\n\n    string public sponsor;\n\n    event GameCreated(uint256 game);\n    event GameCardNumbersAdded(uint256 game,uint256 card,uint256 formNumber,uint256 serialNo);\n    event GameTicketPurchase(uint256 game,uint256 ticketNo,uint256 gameSerialNo);\n    event GameEnded(uint256 game,uint256 winningNumber);\n    event GamePrizeClaimed(uint256 game,address winner,uint256 amount);\n    event ContractBalanceWithdrawn(uint256 balance);\n    event MoniesReceived(address sender,uint256 amount);\n\n    modifier onlyOwner() {\n        require(msg.sender == owner, \"Only the owner can call this function\");\n        _;\n    }\n\n    constructor(string memory manufacturer) {\n        owner = msg.sender;\n        winningNumber = 0;\n        sponsor = manufacturer;\n    }\n\n    receive() external payable {\n        emit MoniesReceived(msg.sender,msg.value);\n    }\n\n    function newGame(uint256 startTime,uint256 endTime,uint256 serialNo,uint256 ticketCount,uint256 carryOver,uint256 usdWei) external onlyOwner returns (uint256) {\n        games.push(\n            Game(startTime,\n                endTime,\n                serialNo,\n                GameState.Open,\n                ticketCount,\n                ticketCount, \n                ticketCount,\n                MAX_CARD_NUMBER,\n                MIN_NUMBERS_PER_CARD,\n                (ticketCount * usdWei) + (carryOver * usdWei)));\n        emit GameCreated(games.length - 1);\n        return games.length;\n    }\n\n    /**\n     * The Bingo Instant Ticket/Card is created offchain to comply with FS 849.0931 and sent as the following object\n     *\n     * {\n     *    name: 'GAME ONE',\n     *    manufacturer: 'AMERIONE CORPORATION',\n     *    formNumber: '1699538915902',\n     *    ticketCount: 4000,\n     *    prizeStructure: 'Community Jackpot',\n     *    price: 1,\n     *    serialNo: '16995389158695327',\n     *    ticket: 'H4sIAAAAAAAAEzVUSbLlMAi7UBYGD9hn+dX3v0Zr4C1ScRwGIQR/ce5X74u9v1iJ9/ri1BdjfpG4Hziv9z28Np/AFUwPzWGyp0zr4AXrul/c42gH0VY56kLUxP3D++Ku+KY7/s3OMsO2s+zHVAtxLt6Mz3OF49/+P8+XA+9grIFv5D/D/mMJ00P4uxsafl1cV31J10i74y5zyPSEaw+YBb/hNofPcYwul6tjBqKnrXzKdkKBkOPiSccEh2KAMe41AyAvac84JJN2RK88Q3kuEOY28iLaH8m8P65iTFfCtCTo8bs+ZblGtkJnmgW7fZ+JYEvf/nINd5icTBddiJJll3MsAuAp9T7jCo8ayGbPbg7LBDUgPFnBNsGEwx5nhnIqyaR0yPaxnBiqyGI41CAD0+css7O7A+rIbT/+D7M/ESNJzbIfWT7sTkrNGdQImz0lCttZFMJU2ySksZMmXOfoCglJEqWkj2FJrt1YTgNDs6mEStrX1UMVk8rrcMoWzpSTVKe0krHccFZDYt8RYp0Z/tceVKxerB6C3cJfckki5TeHgkP3rI3EkN2ecJqqiOmpjwaMbBwEtcCfpPq1FXXKsqnlvI1tGJcilWci04uCVHGy0bGNawgtl100w8PSzZ8GhvqfJJvE/iQ12Lvw//3Lzp3SJf9WkuT4TAvQFBn6rYZSdg/i7BDbKqZ8NLSv19jwStq9tvZqhqOl1OuFC3KZHxVNcn45QCdJH70r4Hp6PUiUvW6B5P3YGh7z540rLU6bCBiFJBFuA+CsgFm5l1vKeolhXNfN8+yM6TMxadcPly2T3ZNY7in/a3teKSJj+57f1DFSaqpxp4nmlqHcqzf4or7Xv/+AE63jXAYAAA==',\n     *    signature: 'e5zuASVCJ7opk/86IKsW3CsKsgl6pZFj3k6ndKKb0RzVV1GKpQo6C6JBTe0UWb4tRwVpEaoH6z+dbRfT8Uzg3S6QOa4v0/AhYoeCTIJONQIis+nwdJ3IX0gd8PBiyyQ5Y3bfKFM7rhEUfb1DX1tCsGNr50nGTnh5+NoLWR4ml9+z+cRTz0k5aDlanyvjutmYsD61q68AURbstx9rBnYwtmVxDfkNS2qzgvmL0DrB9JIZtVpo2hUf4x5l3xVaVXlYpLt8Gr+v+8uc89VCRIvjErl9W40Hp4srUItovMyAQSGO4E3zQl5SLUOSXSOpABNGtgPUOzjPIdIrY9lSBssjhw=='\n     *  }\n     *\n     * The ticket data is an encrypted compressed data stream of the bingo card grid with the associated rack for three chances of winning by single line, four corners or two lines\n     * The ticket data can be decrypted off chain using the private key\n     * The signature is used to verify the ticket data off-chain using the public key\n     * {\n     *  name: 'GAME ONE',\n     *  manufacturer: 'AMERIONE CORPORATION',\n     *  formNumber: '1699792690174',\n     *  ticketCount: 5,\n     *  prizeStructure: 'Community Jackpot',\n     *  price: 1,\n     *  serialNo: '16997926892024541',\n     *  ticket: 'H4sIAAAAAAAAE02U2ZEgMQhDE/KHwXcsU5t/GstDdM18dLltcwgh/GP7tvOardVseqyz2T7N+mjmcd7jf772Yll8FkdhujEPkzXS9OxYwvrcZncr2o5o8yjqjKge5y/WG2eHFfe4G5VlmGzHkR+pZsS5sRKf/2OKf+t+7OY9ViNWj33k313+fSamF+HvKmhxdeP4nOa4mss9ztx7mm5T7RZmxj7cRrh5nLsLJf9H5t8WTuzIJUFExH7jc4UMCpMAA/wVAcGdYw9QuISwBZEuol7ZjKWWRIEOtGfhR+Ev7m6euUdFPhqhh0yB5cDLwoeKhKezBOGtdj8UOxHbjYj+8eRCPdOMBGmybnbNKTiZL77oTrDutlRUCARKbSqTveKQzoBw7LxDV8jslJZY4eO4OPWptHBXqdPVl1pEeFL3CE8sOn2BgQAgY6gaOEU4L6Bb8AjsIAG4yX2IzJ2yeiMEXUeLQAnzTE1a0syCgBusTKrqai26B2r6U1rPsck0WcaU3kM62Yv1BGeohUar15Uohys2svBv5K60jhwy1hZtdrJxSMVhGRnlHL7st1MH6sWGWevl14tCK+XbVTtmdXVrhlLS2WnTfI0/bfCS76r7UZIfZQdn++awwQdPwaqSCRkwrhB7XOW0ess3otcIXNXR9x8FfvXDewmVMUhJfD2Z4ioH3MRfJH2jpnGoVZSA6qAtJ/fWU9YVMh+DpxYjYsrEb36PwkgRw9wsJrjiHQ1FvFvAPb9cSLJ/9QFGwKArojCvzC/fKQ5zDIZ6hUbQJHoBeE2SEGzZIXv8mPXcm+xd6ECVD/6soZwygSqmxockwysVZ9fr4bnKePSk5hl0sLfq4bj//gNb88ULVAYAAA==',\n     *  signature: 'EELcvDn9ZE22kUPcq90uKR/xGOLLElU2WuR2pBr+jPczSc7535wO+Q9iwoznW0crNiqYpM04AlsD3skM+pb4eaoWjD91ONgDz4kweEGTn1np6C8amQsSXW3BU8n8QYuPFcLQdnbUB2hOfmW606ks1INxz1Wiii6iexNOdBLcUkf44gGgK3Zb3plFDzWSMHfy/pT/Kubjze3QRPsp9hKr5RVwW3GCySEaTfsuisqD/Ri+L/ShZegt7Boc6aQFefB7J2ambrlEA/CFZ47y4WDMAG6l4s2n1KHNGxayqN1jiH1A9Q4JSmjo1Ajp15fF40avbhdBKAzIBkXsJfUBB3Yfeg=='\n     * }\n     */\n    function addGameCard(uint256 game,uint256 formNumber,string memory ticket,string memory signature) external onlyOwner returns(uint256 card) {\n        //require(gameCards[game].length < games[game].totalCards,\"maximum card allocation has been reached\");\n        uint256 serialNo = games[game].serialNo;\n        gameCards[game].push(Card(game,serialNo,formNumber,ticket,signature));\n        card = gameCards[game].length - 1;\n        emit GameCardNumbersAdded(game,card,formNumber,serialNo);\n        return card;\n    }\n\n    function getGameCardNumbers(uint256 game,uint256 card) external view returns (Card memory) {\n        return gameCards[game][card];\n    }\n\n    function yearToEpoch(uint16 year) public view returns (uint256) {        \n        // Calculate the number of seconds in a year (365 days)\n        uint256 secondsInAYear = 365 days;\n\n        // Calculate the epoch timestamp for the given year\n        uint256 epochTimestamp = block.timestamp + (year + 18) * secondsInAYear;\n\n        return epochTimestamp;\n    }\n\n    function addPlayer(address wallet) external onlyOwner {\n        require(_players[wallet] == false,\"player already exists\");\n        _players[wallet] = true;\n    }\n\n    function buyTicket(uint256 game,uint256 _ticketNumber) external payable {\n        require(games[game].state == GameState.Open, \"The game is not open for ticket purchase\");\n        //require(msg.value == games[game].flare.costPerPlay, \"Incorrect ticket price sent\");\n        //require(games[game].totalPlayers <= games[game].maxPlayers, \"Maximum players reached\");\n        require(_ticketNumber >= 0, \"Invalid ticket number\");\n        require(_players[msg.sender],\"player is not authroized\");\n\n        players[msg.sender].push(Player(game,games[game].serialNo,gameCards[game][_ticketNumber].formNumber,msg.sender, _ticketNumber));\n\n        games[game].totalPlayers += 1;\n\n        if (games[game].totalPlayers == games[game].maxPlayers) {\n            games[game].state = GameState.Closed;\n            games[game].gameEndTime = block.timestamp;\n        }\n        emit GameTicketPurchase(game,_ticketNumber,games[game].serialNo);\n    }\n\n    function getPlayerTickets() external view returns (Player[] memory) {\n        require(_players[msg.sender],\"player is not authroized\");\n        return players[msg.sender];\n    }\n\n    function closeGame(uint256 game) external onlyOwner {\n        require(games[game].state == GameState.Closed, \"The game is not closed yet\");\n        //require(block.timestamp >= games[game].gameEndTime, \"The game has not ended yet\");\n\n        // Generate a random winning number using a provably fair method.\n        winningNumber = uint256(keccak256(abi.encodePacked(block.timestamp))) % games[game].maxPlayers;\n\n        games[game].state = GameState.Finished;\n\n        // Check if the maximum payout limit is reached\n        if (address(this).balance > maxPayout) {\n            payable(owner).transfer(address(this).balance - maxPayout);\n        }\n\n        emit GameEnded(game, winningNumber);\n    }\n\n    function claimPrize(uint256 game) external {\n        require(games[game].state == GameState.Finished, \"The game has not finished yet\");\n        //require(msg.sender == _players[winningNumber], \"You are not the winner\");\n        uint256 prizeAmount = maxPayout < address(this).balance ? maxPayout : address(this).balance;\n        winningNumber = 0;\n        games[game].state = GameState.Archived;\n        payable(msg.sender).transfer(prizeAmount);\n        emit GamePrizeClaimed(game,msg.sender,prizeAmount);\n    }\n\n    function withdrawRemainingFunds(uint256 game) external onlyOwner {\n        require(games[game].state == GameState.Archived, \"The game has not finished yet\");\n        require(block.timestamp >= games[game].gameEndTime + 7 days, \"Withdrawal time has not passed yet\");\n        uint256 contractBalance = address(this).balance;\n        payable(owner).transfer(contractBalance);\n        emit ContractBalanceWithdrawn(contractBalance);\n    }\n\n    function getGameState(uint256 game) external view returns (GameState) {\n        return games[game].state;\n    }\n\n    function getGameEndTime(uint256 game) external view returns (uint256) {\n        return games[game].gameEndTime;\n    }\n\n    //function getPlayers() external view returns (address[] memory) {\n    //    return _players;\n    //}\n\n    function getGames() external view returns (Game[] memory) {\n        return games;\n    }\n\n    function getContractBalance() external view returns (uint256) {\n        return address(this).balance;\n    }\n\n    function setMaxPayout(uint256 amountInWei) external {\n        maxPayout = amountInWei;\n    }\n}\n",
  "sourcePath": "/Volumes/HOME/pingleware-contracts/contracts/games/InstantBingo.sol",
  "compiler": {
    "name": "solc",
    "version": "0.8.18+commit.87f61d96.Emscripten.clang"
  },
  "schemaVersion": "3.4.12",
  "updatedAt": "2024-05-23T18:56:25.974Z",
  "devdoc": {
    "kind": "dev",
    "methods": {},
    "version": 1
  },
  "userdoc": {
    "kind": "user",
    "methods": {
      "addGameCard(uint256,uint256,string,string)": {
        "notice": "The Bingo Instant Ticket/Card is created offchain to comply with FS 849.0931 and sent as the following object {    name: 'GAME ONE',    manufacturer: 'AMERIONE CORPORATION',    formNumber: '1699538915902',    ticketCount: 4000,    prizeStructure: 'Community Jackpot',    price: 1,    serialNo: '16995389158695327',    ticket: 'H4sIAAAAAAAAEzVUSbLlMAi7UBYGD9hn+dX3v0Zr4C1ScRwGIQR/ce5X74u9v1iJ9/ri1BdjfpG4Hziv9z28Np/AFUwPzWGyp0zr4AXrul/c42gH0VY56kLUxP3D++Ku+KY7/s3OMsO2s+zHVAtxLt6Mz3OF49/+P8+XA+9grIFv5D/D/mMJ00P4uxsafl1cV31J10i74y5zyPSEaw+YBb/hNofPcYwul6tjBqKnrXzKdkKBkOPiSccEh2KAMe41AyAvac84JJN2RK88Q3kuEOY28iLaH8m8P65iTFfCtCTo8bs+ZblGtkJnmgW7fZ+JYEvf/nINd5icTBddiJJll3MsAuAp9T7jCo8ayGbPbg7LBDUgPFnBNsGEwx5nhnIqyaR0yPaxnBiqyGI41CAD0+css7O7A+rIbT/+D7M/ESNJzbIfWT7sTkrNGdQImz0lCttZFMJU2ySksZMmXOfoCglJEqWkj2FJrt1YTgNDs6mEStrX1UMVk8rrcMoWzpSTVKe0krHccFZDYt8RYp0Z/tceVKxerB6C3cJfckki5TeHgkP3rI3EkN2ecJqqiOmpjwaMbBwEtcCfpPq1FXXKsqnlvI1tGJcilWci04uCVHGy0bGNawgtl100w8PSzZ8GhvqfJJvE/iQ12Lvw//3Lzp3SJf9WkuT4TAvQFBn6rYZSdg/i7BDbKqZ8NLSv19jwStq9tvZqhqOl1OuFC3KZHxVNcn45QCdJH70r4Hp6PUiUvW6B5P3YGh7z540rLU6bCBiFJBFuA+CsgFm5l1vKeolhXNfN8+yM6TMxadcPly2T3ZNY7in/a3teKSJj+57f1DFSaqpxp4nmlqHcqzf4or7Xv/+AE63jXAYAAA==',    signature: 'e5zuASVCJ7opk/86IKsW3CsKsgl6pZFj3k6ndKKb0RzVV1GKpQo6C6JBTe0UWb4tRwVpEaoH6z+dbRfT8Uzg3S6QOa4v0/AhYoeCTIJONQIis+nwdJ3IX0gd8PBiyyQ5Y3bfKFM7rhEUfb1DX1tCsGNr50nGTnh5+NoLWR4ml9+z+cRTz0k5aDlanyvjutmYsD61q68AURbstx9rBnYwtmVxDfkNS2qzgvmL0DrB9JIZtVpo2hUf4x5l3xVaVXlYpLt8Gr+v+8uc89VCRIvjErl9W40Hp4srUItovMyAQSGO4E3zQl5SLUOSXSOpABNGtgPUOzjPIdIrY9lSBssjhw=='  } The ticket data is an encrypted compressed data stream of the bingo card grid with the associated rack for three chances of winning by single line, four corners or two lines The ticket data can be decrypted off chain using the private key The signature is used to verify the ticket data off-chain using the public key {  name: 'GAME ONE',  manufacturer: 'AMERIONE CORPORATION',  formNumber: '1699792690174',  ticketCount: 5,  prizeStructure: 'Community Jackpot',  price: 1,  serialNo: '16997926892024541',  ticket: 'H4sIAAAAAAAAE02U2ZEgMQhDE/KHwXcsU5t/GstDdM18dLltcwgh/GP7tvOardVseqyz2T7N+mjmcd7jf772Yll8FkdhujEPkzXS9OxYwvrcZncr2o5o8yjqjKge5y/WG2eHFfe4G5VlmGzHkR+pZsS5sRKf/2OKf+t+7OY9ViNWj33k313+fSamF+HvKmhxdeP4nOa4mss9ztx7mm5T7RZmxj7cRrh5nLsLJf9H5t8WTuzIJUFExH7jc4UMCpMAA/wVAcGdYw9QuISwBZEuol7ZjKWWRIEOtGfhR+Ev7m6euUdFPhqhh0yB5cDLwoeKhKezBOGtdj8UOxHbjYj+8eRCPdOMBGmybnbNKTiZL77oTrDutlRUCARKbSqTveKQzoBw7LxDV8jslJZY4eO4OPWptHBXqdPVl1pEeFL3CE8sOn2BgQAgY6gaOEU4L6Bb8AjsIAG4yX2IzJ2yeiMEXUeLQAnzTE1a0syCgBusTKrqai26B2r6U1rPsck0WcaU3kM62Yv1BGeohUar15Uohys2svBv5K60jhwy1hZtdrJxSMVhGRnlHL7st1MH6sWGWevl14tCK+XbVTtmdXVrhlLS2WnTfI0/bfCS76r7UZIfZQdn++awwQdPwaqSCRkwrhB7XOW0ess3otcIXNXR9x8FfvXDewmVMUhJfD2Z4ioH3MRfJH2jpnGoVZSA6qAtJ/fWU9YVMh+DpxYjYsrEb36PwkgRw9wsJrjiHQ1FvFvAPb9cSLJ/9QFGwKArojCvzC/fKQ5zDIZ6hUbQJHoBeE2SEGzZIXv8mPXcm+xd6ECVD/6soZwygSqmxockwysVZ9fr4bnKePSk5hl0sLfq4bj//gNb88ULVAYAAA==',  signature: 'EELcvDn9ZE22kUPcq90uKR/xGOLLElU2WuR2pBr+jPczSc7535wO+Q9iwoznW0crNiqYpM04AlsD3skM+pb4eaoWjD91ONgDz4kweEGTn1np6C8amQsSXW3BU8n8QYuPFcLQdnbUB2hOfmW606ks1INxz1Wiii6iexNOdBLcUkf44gGgK3Zb3plFDzWSMHfy/pT/Kubjze3QRPsp9hKr5RVwW3GCySEaTfsuisqD/Ri+L/ShZegt7Boc6aQFefB7J2ambrlEA/CFZ47y4WDMAG6l4s2n1KHNGxayqN1jiH1A9Q4JSmjo1Ajp15fF40avbhdBKAzIBkXsJfUBB3Yfeg==' }"
      }
    },
    "notice": "This Instant Bingo Game is based on the rules for a Florida Instant Bingo operation at http://www.leg.state.fl.us/Statutes/index.cfm?App_mode=Display_Statute&URL=0800-0899/0849/Sections/0849.0931.html However, judicial intervention must be sought for operation as an online instant bingo game in the STate of Florida",
    "version": 1
  }
}