{
  "contractName": "InvestorManager",
  "abi": [
    {
      "inputs": [],
      "stateMutability": "nonpayable",
      "type": "constructor"
    },
    {
      "anonymous": false,
      "inputs": [
        {
          "indexed": false,
          "internalType": "address",
          "name": "wallet",
          "type": "address"
        },
        {
          "indexed": false,
          "internalType": "uint256",
          "name": "investor_type",
          "type": "uint256"
        },
        {
          "indexed": false,
          "internalType": "string",
          "name": "jurisdiction",
          "type": "string"
        }
      ],
      "name": "InvestorAdded",
      "type": "event"
    },
    {
      "anonymous": false,
      "inputs": [
        {
          "indexed": false,
          "internalType": "address",
          "name": "wallet",
          "type": "address"
        }
      ],
      "name": "TransferAgentAdded",
      "type": "event"
    },
    {
      "inputs": [
        {
          "internalType": "string",
          "name": "",
          "type": "string"
        },
        {
          "internalType": "uint256",
          "name": "",
          "type": "uint256"
        }
      ],
      "name": "investors",
      "outputs": [
        {
          "internalType": "address",
          "name": "",
          "type": "address"
        }
      ],
      "stateMutability": "view",
      "type": "function",
      "constant": true
    },
    {
      "inputs": [],
      "name": "owner",
      "outputs": [
        {
          "internalType": "address",
          "name": "",
          "type": "address"
        }
      ],
      "stateMutability": "view",
      "type": "function",
      "constant": true
    },
    {
      "inputs": [
        {
          "internalType": "address",
          "name": "",
          "type": "address"
        }
      ],
      "name": "whitelisted",
      "outputs": [
        {
          "internalType": "address",
          "name": "wallet",
          "type": "address"
        },
        {
          "internalType": "bool",
          "name": "active",
          "type": "bool"
        },
        {
          "internalType": "string",
          "name": "jurisdiction",
          "type": "string"
        },
        {
          "internalType": "uint256",
          "name": "level",
          "type": "uint256"
        }
      ],
      "stateMutability": "view",
      "type": "function",
      "constant": true
    },
    {
      "inputs": [
        {
          "internalType": "address",
          "name": "wallet",
          "type": "address"
        }
      ],
      "name": "isWhitelisted",
      "outputs": [
        {
          "internalType": "bool",
          "name": "",
          "type": "bool"
        }
      ],
      "stateMutability": "view",
      "type": "function",
      "constant": true
    },
    {
      "inputs": [
        {
          "internalType": "string",
          "name": "symbol",
          "type": "string"
        },
        {
          "internalType": "address",
          "name": "wallet",
          "type": "address"
        }
      ],
      "name": "findInvestor",
      "outputs": [
        {
          "internalType": "bool",
          "name": "",
          "type": "bool"
        }
      ],
      "stateMutability": "view",
      "type": "function",
      "constant": true
    },
    {
      "inputs": [
        {
          "internalType": "string",
          "name": "symbol",
          "type": "string"
        }
      ],
      "name": "getInvestorsBySymbol",
      "outputs": [
        {
          "internalType": "address[]",
          "name": "",
          "type": "address[]"
        }
      ],
      "stateMutability": "view",
      "type": "function",
      "constant": true
    },
    {
      "inputs": [
        {
          "internalType": "string",
          "name": "symbol",
          "type": "string"
        },
        {
          "internalType": "address",
          "name": "wallet",
          "type": "address"
        }
      ],
      "name": "isInvestor",
      "outputs": [
        {
          "internalType": "bool",
          "name": "",
          "type": "bool"
        }
      ],
      "stateMutability": "view",
      "type": "function",
      "constant": true
    },
    {
      "inputs": [
        {
          "internalType": "string",
          "name": "symbol",
          "type": "string"
        },
        {
          "internalType": "address",
          "name": "wallet",
          "type": "address"
        }
      ],
      "name": "removeInvestorBySymbol",
      "outputs": [],
      "stateMutability": "nonpayable",
      "type": "function"
    },
    {
      "inputs": [
        {
          "internalType": "uint256",
          "name": "investor_type",
          "type": "uint256"
        },
        {
          "internalType": "address",
          "name": "wallet",
          "type": "address"
        }
      ],
      "name": "removeInvestor",
      "outputs": [],
      "stateMutability": "nonpayable",
      "type": "function"
    },
    {
      "inputs": [
        {
          "internalType": "address",
          "name": "wallet",
          "type": "address"
        }
      ],
      "name": "removeInvestor",
      "outputs": [],
      "stateMutability": "nonpayable",
      "type": "function"
    },
    {
      "inputs": [
        {
          "internalType": "string",
          "name": "symbol",
          "type": "string"
        },
        {
          "internalType": "address",
          "name": "wallet",
          "type": "address"
        }
      ],
      "name": "addInvestor",
      "outputs": [],
      "stateMutability": "nonpayable",
      "type": "function"
    },
    {
      "inputs": [
        {
          "internalType": "address",
          "name": "investor",
          "type": "address"
        },
        {
          "internalType": "uint256",
          "name": "investor_type",
          "type": "uint256"
        },
        {
          "internalType": "string",
          "name": "jurisdiction",
          "type": "string"
        }
      ],
      "name": "addInvestor",
      "outputs": [],
      "stateMutability": "nonpayable",
      "type": "function"
    },
    {
      "inputs": [
        {
          "internalType": "address",
          "name": "wallet",
          "type": "address"
        }
      ],
      "name": "addInvestor",
      "outputs": [],
      "stateMutability": "nonpayable",
      "type": "function"
    },
    {
      "inputs": [
        {
          "internalType": "address",
          "name": "wallet",
          "type": "address"
        }
      ],
      "name": "getInvestor",
      "outputs": [
        {
          "internalType": "address",
          "name": "",
          "type": "address"
        },
        {
          "internalType": "bool",
          "name": "",
          "type": "bool"
        },
        {
          "internalType": "string",
          "name": "",
          "type": "string"
        },
        {
          "internalType": "uint256",
          "name": "",
          "type": "uint256"
        }
      ],
      "stateMutability": "view",
      "type": "function",
      "constant": true
    },
    {
      "inputs": [],
      "name": "getInvestors",
      "outputs": [
        {
          "internalType": "address[]",
          "name": "",
          "type": "address[]"
        },
        {
          "internalType": "address[]",
          "name": "",
          "type": "address[]"
        },
        {
          "internalType": "address[]",
          "name": "",
          "type": "address[]"
        },
        {
          "internalType": "address[]",
          "name": "",
          "type": "address[]"
        },
        {
          "internalType": "address[]",
          "name": "",
          "type": "address[]"
        },
        {
          "internalType": "address[]",
          "name": "",
          "type": "address[]"
        },
        {
          "internalType": "address[]",
          "name": "",
          "type": "address[]"
        }
      ],
      "stateMutability": "view",
      "type": "function",
      "constant": true
    },
    {
      "inputs": [],
      "name": "getIssuers",
      "outputs": [
        {
          "internalType": "address[]",
          "name": "",
          "type": "address[]"
        },
        {
          "internalType": "address[]",
          "name": "",
          "type": "address[]"
        },
        {
          "internalType": "address[]",
          "name": "",
          "type": "address[]"
        },
        {
          "internalType": "address[]",
          "name": "",
          "type": "address[]"
        },
        {
          "internalType": "address[]",
          "name": "",
          "type": "address[]"
        },
        {
          "internalType": "address[]",
          "name": "",
          "type": "address[]"
        }
      ],
      "stateMutability": "view",
      "type": "function",
      "constant": true
    },
    {
      "inputs": [
        {
          "internalType": "address",
          "name": "wallet",
          "type": "address"
        }
      ],
      "name": "getInvestorStatus",
      "outputs": [
        {
          "internalType": "bool",
          "name": "",
          "type": "bool"
        }
      ],
      "stateMutability": "view",
      "type": "function",
      "constant": true
    },
    {
      "inputs": [
        {
          "internalType": "address",
          "name": "wallet",
          "type": "address"
        }
      ],
      "name": "getInvestorJurisdiction",
      "outputs": [
        {
          "internalType": "string",
          "name": "",
          "type": "string"
        }
      ],
      "stateMutability": "view",
      "type": "function",
      "constant": true
    },
    {
      "inputs": [
        {
          "internalType": "address",
          "name": "wallet",
          "type": "address"
        }
      ],
      "name": "getInvestorLevel",
      "outputs": [
        {
          "internalType": "uint256",
          "name": "",
          "type": "uint256"
        }
      ],
      "stateMutability": "view",
      "type": "function",
      "constant": true
    },
    {
      "inputs": [
        {
          "internalType": "address",
          "name": "wallet",
          "type": "address"
        }
      ],
      "name": "isAccredited",
      "outputs": [
        {
          "internalType": "bool",
          "name": "",
          "type": "bool"
        }
      ],
      "stateMutability": "view",
      "type": "function",
      "constant": true
    },
    {
      "inputs": [
        {
          "internalType": "address",
          "name": "wallet",
          "type": "address"
        }
      ],
      "name": "isNonAccredited",
      "outputs": [
        {
          "internalType": "bool",
          "name": "",
          "type": "bool"
        }
      ],
      "stateMutability": "view",
      "type": "function",
      "constant": true
    },
    {
      "inputs": [
        {
          "internalType": "address",
          "name": "wallet",
          "type": "address"
        }
      ],
      "name": "isAffiliate",
      "outputs": [
        {
          "internalType": "bool",
          "name": "",
          "type": "bool"
        }
      ],
      "stateMutability": "view",
      "type": "function",
      "constant": true
    },
    {
      "inputs": [
        {
          "internalType": "address",
          "name": "wallet",
          "type": "address"
        }
      ],
      "name": "isBrokerDealer",
      "outputs": [
        {
          "internalType": "bool",
          "name": "",
          "type": "bool"
        }
      ],
      "stateMutability": "view",
      "type": "function",
      "constant": true
    },
    {
      "inputs": [
        {
          "internalType": "address",
          "name": "wallet",
          "type": "address"
        }
      ],
      "name": "isTransferAgent",
      "outputs": [
        {
          "internalType": "bool",
          "name": "",
          "type": "bool"
        }
      ],
      "stateMutability": "view",
      "type": "function",
      "constant": true
    },
    {
      "inputs": [
        {
          "internalType": "address",
          "name": "wallet",
          "type": "address"
        }
      ],
      "name": "isInstitution",
      "outputs": [
        {
          "internalType": "bool",
          "name": "",
          "type": "bool"
        }
      ],
      "stateMutability": "view",
      "type": "function",
      "constant": true
    },
    {
      "inputs": [
        {
          "internalType": "address",
          "name": "wallet",
          "type": "address"
        }
      ],
      "name": "isBank",
      "outputs": [
        {
          "internalType": "bool",
          "name": "",
          "type": "bool"
        }
      ],
      "stateMutability": "view",
      "type": "function",
      "constant": true
    },
    {
      "inputs": [
        {
          "internalType": "address",
          "name": "wallet",
          "type": "address"
        }
      ],
      "name": "isInvestmentCompany",
      "outputs": [
        {
          "internalType": "bool",
          "name": "",
          "type": "bool"
        }
      ],
      "stateMutability": "view",
      "type": "function",
      "constant": true
    },
    {
      "inputs": [
        {
          "internalType": "address",
          "name": "wallet",
          "type": "address"
        }
      ],
      "name": "isNonProfitEntity",
      "outputs": [
        {
          "internalType": "bool",
          "name": "",
          "type": "bool"
        }
      ],
      "stateMutability": "view",
      "type": "function",
      "constant": true
    },
    {
      "inputs": [
        {
          "internalType": "address",
          "name": "wallet",
          "type": "address"
        }
      ],
      "name": "isChurch",
      "outputs": [
        {
          "internalType": "bool",
          "name": "",
          "type": "bool"
        }
      ],
      "stateMutability": "view",
      "type": "function",
      "constant": true
    },
    {
      "inputs": [
        {
          "internalType": "address",
          "name": "wallet",
          "type": "address"
        }
      ],
      "name": "isLender",
      "outputs": [
        {
          "internalType": "bool",
          "name": "",
          "type": "bool"
        }
      ],
      "stateMutability": "view",
      "type": "function",
      "constant": true
    },
    {
      "inputs": [
        {
          "internalType": "address",
          "name": "wallet",
          "type": "address"
        }
      ],
      "name": "isVotingTrust",
      "outputs": [
        {
          "internalType": "bool",
          "name": "",
          "type": "bool"
        }
      ],
      "stateMutability": "view",
      "type": "function",
      "constant": true
    },
    {
      "inputs": [
        {
          "internalType": "address",
          "name": "wallet",
          "type": "address"
        }
      ],
      "name": "isBorrower",
      "outputs": [
        {
          "internalType": "bool",
          "name": "",
          "type": "bool"
        }
      ],
      "stateMutability": "view",
      "type": "function",
      "constant": true
    },
    {
      "inputs": [
        {
          "internalType": "address",
          "name": "wallet",
          "type": "address"
        }
      ],
      "name": "isIssuer",
      "outputs": [
        {
          "internalType": "bool",
          "name": "",
          "type": "bool"
        }
      ],
      "stateMutability": "view",
      "type": "function",
      "constant": true
    },
    {
      "inputs": [
        {
          "internalType": "address",
          "name": "wallet",
          "type": "address"
        }
      ],
      "name": "isMunicipalAdvisor",
      "outputs": [
        {
          "internalType": "bool",
          "name": "",
          "type": "bool"
        }
      ],
      "stateMutability": "view",
      "type": "function",
      "constant": true
    }
  ],
  "bytecode": "0x6080604052600060025534801561001557600080fd5b506026805461010060a860020a03191633610100021790556141278061003c6000396000f3fe608060405234801561001057600080fd5b50600436106101985760e060020a60003504621a1c92811461019d5780630331df07146101b257806306295bce146101f3578063251db3b31461021f5780632d598d7b146102325780632ec3da8a1461025e57806334e8e57b1461028a5780633af32abf146102aa57806342714978146102bd5780634f504212146102d05780634f9d9e60146102f05780634fa8518614610310578063512a22291461033c57806362afeaa81461036857806364bf7cdc1461037b5780636a93316c146102aa578063709b89611461038e578063872acf5b146103ba5780638740f84e146103e6578063877b9a67146103f95780638da5cb5b146104255780638f35a75e1461043d578063905832841461046057806392b840981461048c578063a594da95146104c6578063a62db0e0146104e0578063b2f5a54c146104f3578063d8b096251461050e578063d936547e1461053a578063e641bde11461054d578063eaf6e48314610560578063ec676a491461058c578063f28dd611146105b8578063fb99b86d146105e4575b600080fd5b6101b06101ab366004613a14565b610610565b005b6101de6101c0366004613a67565b600160a060020a03166000908152600a602052604090205460ff1690565b60405190151581526020015b60405180910390f35b6101de610201366004613a67565b600160a060020a031660009081526014602052604090205460ff1690565b6101b061022d366004613a89565b610753565b6101de610240366004613a67565b600160a060020a031660009081526005602052604090205460ff1690565b6101de61026c366004613a67565b600160a060020a031660009081526006602052604090205460ff1690565b61029d610298366004613b5b565b611c52565b6040516101ea9190613b9f565b6101de6102b8366004613a67565b611c99565b6101b06102cb366004613a67565b611cbe565b6102e36102de366004613bb3565b611d23565b6040516101ea9190613c38565b6103036102fe366004613a67565b611da1565b6040516101ea9190613c91565b6101de61031e366004613a67565b600160a060020a031660009081526007602052604090205460ff1690565b6101de61034a366004613a67565b600160a060020a03166000908152600d602052604090205460ff1690565b6101de610376366004613a14565b611e50565b6101b0610389366004613ca4565b611e65565b6101de61039c366004613a67565b600160a060020a031660009081526010602052604090205460ff1690565b6101de6103c8366004613a67565b600160a060020a031660009081526011602052604090205460ff1690565b6101b06103f4366004613a14565b612e43565b6101de610407366004613a67565b600160a060020a031660009081526012602052604090205460ff1690565b60265461029d906101009004600160a060020a031681565b61045061044b366004613a67565b61319e565b6040516101ea9493929190613cfa565b6101de61046e366004613a67565b600160a060020a031660009081526008602052604090205460ff1690565b6104b861049a366004613a67565b600160a060020a031660009081526003602052604090206002015490565b6040519081526020016101ea565b6104ce613279565b6040516101ea96959493929190613d37565b6101de6104ee366004613a14565b6134ca565b6104fb613511565b6040516101ea9796959493929190613db9565b6101de61051c366004613a67565b600160a060020a03166000908152600e602052604090205460ff1690565b610450610548366004613a67565b6137c5565b6101b061055b366004613a67565b613886565b6101de61056e366004613a67565b600160a060020a031660009081526013602052604090205460ff1690565b6101de61059a366004613a67565b600160a060020a03166000908152600c602052604090205460ff1690565b6101de6105c6366004613a67565b600160a060020a03166000908152600f602052604090205460ff1690565b6101de6105f2366004613a67565b600160a060020a031660009081526009602052604090205460ff1690565b60265460ff161561063f5760405160e560020a62461bcd02815260040161063690613e50565b60405180910390fd5b6026805460ff1916600117905561065581611c99565b6106745760405160e560020a62461bcd02815260040161063690613e84565b61067f8383836134ca565b1561069f5760405160e560020a62461bcd02815260040161063690613eb0565b60018084846040516106b2929190613ee4565b9081526040805160209281900383018120600160a060020a03861660009081529352908220805460ff191693151593909317909255906106f59085908590613ee4565b90815260405160209181900382019020805460018101825560009182529181209091018054600160a060020a031916600160a060020a038416179055600280549161073f83613f0e565b90915550506026805460ff19169055505050565b60265460ff16156107795760405160e560020a62461bcd02815260040161063690613e50565b6026805460ff1916600117905560008281036108d85760005b6017548110156108d257816108c05782600160a060020a0316601782815481106107be576107be613f27565b600091825260209091200154600160a060020a0316036108c0576017548110156108c057601781815481106107f5576107f5613f27565b60009182526020909120018054600160a060020a03191690556017805461081e90600190613f41565b8154811061082e5761082e613f27565b60009182526020909120015460178054600160a060020a03909216918390811061085a5761085a613f27565b9060005260206000200160006101000a815481600160a060020a030219169083600160a060020a03160217905550601780548061089957610899613f54565b60008281526020902081016000199081018054600160a060020a0319169055019055600191505b806108ca81613f0e565b915050610792565b50611c43565b82600103610a235760005b6016548110156108d25781610a115782600160a060020a03166016828154811061090f5761090f613f27565b600091825260209091200154600160a060020a031603610a1157601654811015610a11576016818154811061094657610946613f27565b60009182526020909120018054600160a060020a03191690556016805461096f90600190613f41565b8154811061097f5761097f613f27565b60009182526020909120015460168054600160a060020a0390921691839081106109ab576109ab613f27565b9060005260206000200160006101000a815481600160a060020a030219169083600160a060020a0316021790555060168054806109ea576109ea613f54565b60008281526020902081016000199081018054600160a060020a0319169055019055600191505b80610a1b81613f0e565b9150506108e3565b82600203610b6e5760005b6018548110156108d25781610b5c5782600160a060020a031660188281548110610a5a57610a5a613f27565b600091825260209091200154600160a060020a031603610b5c57601854811015610b5c5760188181548110610a9157610a91613f27565b60009182526020909120018054600160a060020a031916905560188054610aba90600190613f41565b81548110610aca57610aca613f27565b60009182526020909120015460188054600160a060020a039092169183908110610af657610af6613f27565b9060005260206000200160006101000a815481600160a060020a030219169083600160a060020a031602179055506018805480610b3557610b35613f54565b60008281526020902081016000199081018054600160a060020a0319169055019055600191505b80610b6681613f0e565b915050610a2e565b82600303610cb95760005b6019548110156108d25781610ca75782600160a060020a031660198281548110610ba557610ba5613f27565b600091825260209091200154600160a060020a031603610ca757601954811015610ca75760198181548110610bdc57610bdc613f27565b60009182526020909120018054600160a060020a031916905560198054610c0590600190613f41565b81548110610c1557610c15613f27565b60009182526020909120015460198054600160a060020a039092169183908110610c4157610c41613f27565b9060005260206000200160006101000a815481600160a060020a030219169083600160a060020a031602179055506019805480610c8057610c80613f54565b60008281526020902081016000199081018054600160a060020a0319169055019055600191505b80610cb181613f0e565b915050610b79565b82600403610e045760005b601a548110156108d25781610df25782600160a060020a0316601a8281548110610cf057610cf0613f27565b600091825260209091200154600160a060020a031603610df257601a54811015610df257601a8181548110610d2757610d27613f27565b60009182526020909120018054600160a060020a0319169055601a8054610d5090600190613f41565b81548110610d6057610d60613f27565b600091825260209091200154601a8054600160a060020a039092169183908110610d8c57610d8c613f27565b9060005260206000200160006101000a815481600160a060020a030219169083600160a060020a03160217905550601a805480610dcb57610dcb613f54565b60008281526020902081016000199081018054600160a060020a0319169055019055600191505b80610dfc81613f0e565b915050610cc4565b82600503610f4f5760005b601b548110156108d25781610f3d5782600160a060020a0316601b8281548110610e3b57610e3b613f27565b600091825260209091200154600160a060020a031603610f3d57601b54811015610f3d57601b8181548110610e7257610e72613f27565b60009182526020909120018054600160a060020a0319169055601b8054610e9b90600190613f41565b81548110610eab57610eab613f27565b600091825260209091200154601b8054600160a060020a039092169183908110610ed757610ed7613f27565b9060005260206000200160006101000a815481600160a060020a030219169083600160a060020a03160217905550601b805480610f1657610f16613f54565b60008281526020902081016000199081018054600160a060020a0319169055019055600191505b80610f4781613f0e565b915050610e0f565b8260060361109a5760005b601d548110156108d257816110885782600160a060020a0316601d8281548110610f8657610f86613f27565b600091825260209091200154600160a060020a03160361108857601d5481101561108857601d8181548110610fbd57610fbd613f27565b60009182526020909120018054600160a060020a0319169055601d8054610fe690600190613f41565b81548110610ff657610ff6613f27565b600091825260209091200154601d8054600160a060020a03909216918390811061102257611022613f27565b9060005260206000200160006101000a815481600160a060020a030219169083600160a060020a03160217905550601d80548061106157611061613f54565b60008281526020902081016000199081018054600160a060020a0319169055019055600191505b8061109281613f0e565b915050610f5a565b826007036111e55760005b601c548110156108d257816111d35782600160a060020a0316601c82815481106110d1576110d1613f27565b600091825260209091200154600160a060020a0316036111d357601c548110156111d357601c818154811061110857611108613f27565b60009182526020909120018054600160a060020a0319169055601c805461113190600190613f41565b8154811061114157611141613f27565b600091825260209091200154601c8054600160a060020a03909216918390811061116d5761116d613f27565b9060005260206000200160006101000a815481600160a060020a030219169083600160a060020a03160217905550601c8054806111ac576111ac613f54565b60008281526020902081016000199081018054600160a060020a0319169055019055600191505b806111dd81613f0e565b9150506110a5565b826008036113305760005b601e548110156108d2578161131e5782600160a060020a0316601e828154811061121c5761121c613f27565b600091825260209091200154600160a060020a03160361131e57601e5481101561131e57601e818154811061125357611253613f27565b60009182526020909120018054600160a060020a0319169055601e805461127c90600190613f41565b8154811061128c5761128c613f27565b600091825260209091200154601e8054600160a060020a0390921691839081106112b8576112b8613f27565b9060005260206000200160006101000a815481600160a060020a030219169083600160a060020a03160217905550601e8054806112f7576112f7613f54565b60008281526020902081016000199081018054600160a060020a0319169055019055600191505b8061132881613f0e565b9150506111f0565b8260090361147b5760005b601f548110156108d257816114695782600160a060020a0316601f828154811061136757611367613f27565b600091825260209091200154600160a060020a03160361146957601f5481101561146957601f818154811061139e5761139e613f27565b60009182526020909120018054600160a060020a0319169055601f80546113c790600190613f41565b815481106113d7576113d7613f27565b600091825260209091200154601f8054600160a060020a03909216918390811061140357611403613f27565b9060005260206000200160006101000a815481600160a060020a030219169083600160a060020a03160217905550601f80548061144257611442613f54565b60008281526020902081016000199081018054600160a060020a0319169055019055600191505b8061147381613f0e565b91505061133b565b82600a036115ca5760005b6020548110156108d257816115b85782600160a060020a0316602082815481106114b2576114b2613f27565b600091825260209091200154600160a060020a0316036115b8576020548110156115b857602081815481106114e9576114e9613f27565b6000918252602091829020018054600160a060020a0319169055805461151190600190613f41565b8154811061152157611521613f27565b9060005260206000200160009054906101000a9004600160a060020a03166020828154811061155257611552613f27565b9060005260206000200160006101000a815481600160a060020a030219169083600160a060020a03160217905550602080548061159157611591613f54565b60008281526020902081016000199081018054600160a060020a0319169055019055600191505b806115c281613f0e565b915050611486565b82600b036117155760005b6021548110156108d257816117035782600160a060020a03166021828154811061160157611601613f27565b600091825260209091200154600160a060020a03160361170357602154811015611703576021818154811061163857611638613f27565b60009182526020909120018054600160a060020a03191690556021805461166190600190613f41565b8154811061167157611671613f27565b60009182526020909120015460218054600160a060020a03909216918390811061169d5761169d613f27565b9060005260206000200160006101000a815481600160a060020a030219169083600160a060020a0316021790555060218054806116dc576116dc613f54565b60008281526020902081016000199081018054600160a060020a0319169055019055600191505b8061170d81613f0e565b9150506115d5565b82600c036118605760005b6022548110156108d2578161184e5782600160a060020a03166022828154811061174c5761174c613f27565b600091825260209091200154600160a060020a03160361184e5760225481101561184e576022818154811061178357611783613f27565b60009182526020909120018054600160a060020a0319169055602280546117ac90600190613f41565b815481106117bc576117bc613f27565b60009182526020909120015460228054600160a060020a0390921691839081106117e8576117e8613f27565b9060005260206000200160006101000a815481600160a060020a030219169083600160a060020a03160217905550602280548061182757611827613f54565b60008281526020902081016000199081018054600160a060020a0319169055019055600191505b8061185881613f0e565b915050611720565b82600d036119ab5760005b6023548110156108d257816119995782600160a060020a03166023828154811061189757611897613f27565b600091825260209091200154600160a060020a0316036119995760235481101561199957602381815481106118ce576118ce613f27565b60009182526020909120018054600160a060020a0319169055602380546118f790600190613f41565b8154811061190757611907613f27565b60009182526020909120015460238054600160a060020a03909216918390811061193357611933613f27565b9060005260206000200160006101000a815481600160a060020a030219169083600160a060020a03160217905550602380548061197257611972613f54565b60008281526020902081016000199081018054600160a060020a0319169055019055600191505b806119a381613f0e565b91505061186b565b82600e03611af65760005b6025548110156108d25781611ae45782600160a060020a0316602582815481106119e2576119e2613f27565b600091825260209091200154600160a060020a031603611ae457602554811015611ae45760258181548110611a1957611a19613f27565b60009182526020909120018054600160a060020a031916905560258054611a4290600190613f41565b81548110611a5257611a52613f27565b60009182526020909120015460258054600160a060020a039092169183908110611a7e57611a7e613f27565b9060005260206000200160006101000a815481600160a060020a030219169083600160a060020a031602179055506025805480611abd57611abd613f54565b60008281526020902081016000199081018054600160a060020a0319169055019055600191505b80611aee81613f0e565b9150506119b6565b82606303611c435760005b602454811015611c415781611c2f5782600160a060020a031660248281548110611b2d57611b2d613f27565b600091825260209091200154600160a060020a031603611c2f57602454811015611c2f5760248181548110611b6457611b64613f27565b60009182526020909120018054600160a060020a031916905560248054611b8d90600190613f41565b81548110611b9d57611b9d613f27565b60009182526020909120015460248054600160a060020a039092169183908110611bc957611bc9613f27565b9060005260206000200160006101000a815481600160a060020a030219169083600160a060020a031602179055506024805480611c0857611c08613f54565b60008281526020902081016000199081018054600160a060020a0319169055019055600191505b80611c3981613f0e565b915050611b01565b505b50506026805460ff1916905550565b81516020818401810180516000825292820191850191909120919052805482908110611c7d57600080fd5b600091825260209091200154600160a060020a03169150829050565b600160a060020a031660009081526003602052604090205460a060020a900460ff1690565b60265460ff1615611ce45760405160e560020a62461bcd02815260040161063690613e50565b6026805460ff199081166001178255600160a060020a039092166000908152600360205260409020805460a060020a60ff021916905580549091169055565b606060008383604051611d37929190613ee4565b9081526040805191829003602090810183208054808302850183019093528284529190830182828015611d9357602002820191906000526020600020905b8154600160a060020a03168152600190910190602001808311611d75575b505050505090505b92915050565b600160a060020a0381166000908152600360205260409020600101805460609190611dcb90613f6e565b80601f0160208091040260200160405190810160405280929190818152602001828054611df790613f6e565b8015611e445780601f10611e1957610100808354040283529160200191611e44565b820191906000526020600020905b815481529060010190602001808311611e2757829003601f168201915b50505050509050919050565b6000611e5d8484846134ca565b949350505050565b60265460ff1615611e8b5760405160e560020a62461bcd02815260040161063690613e50565b6026805460ff19166001179055600160a060020a03831660009081526003602052604090205460a060020a900460ff1615611edb5760405160e560020a62461bcd02815260040161063690613eb0565b600082600103611fc557611f496016805480602002602001604051908101604052809291908181526020018280548015611f3e57602002820191906000526020600020905b8154600160a060020a03168152600190910190602001808311611f20575b50505050508561394b565b611f9957601680546001810182556000919091527fd833147d7dc355ba459fc788f669e58cfaf9dc25ddcd0702e87d69c7b5124289018054600160a060020a031916600160a060020a0386161790555b50600160a060020a0383166000908152600560205260409020805460ff19166001908117909155612d6d565b826002036120ab5761202f6018805480602002602001604051908101604052809291908181526020018280548015611f3e57602002820191906000526020600020908154600160a060020a03168152600190910190602001808311611f205750505050508561394b565b61207f57601880546001810182556000919091527fb13d2d76d1f4b7be834882e410b3e3a8afaf69f83600ae24db354391d2378d2e018054600160a060020a031916600160a060020a0386161790555b50600160a060020a0383166000908152600760205260409020805460ff19166001908117909155612d6d565b82600303612191576121156019805480602002602001604051908101604052809291908181526020018280548015611f3e57602002820191906000526020600020908154600160a060020a03168152600190910190602001808311611f205750505050508561394b565b61216557601980546001810182556000919091527f944998273e477b495144fb8794c914197f3ccb46be2900f4698fd0ef743c9695018054600160a060020a031916600160a060020a0386161790555b50600160a060020a0383166000908152600860205260409020805460ff19166001908117909155612d6d565b826004036122b0576121fb601a805480602002602001604051908101604052809291908181526020018280548015611f3e57602002820191906000526020600020908154600160a060020a03168152600190910190602001808311611f205750505050508561394b565b61224b57601a80546001810182556000919091527f057c384a7d1c54f3a1b2e5e67b2617b8224fdfd1ea7234eea573a6ff665ff63e018054600160a060020a031916600160a060020a0386161790555b50600160a060020a03831660009081526009602052604090819020805460ff1916600190811790915590517f1e9fcacb7052d8badc53a7061f6dc79beafe00b872cc7d0a57c541023eb9eabc906122a3908690613b9f565b60405180910390a1612d6d565b826005036123965761231a601b805480602002602001604051908101604052809291908181526020018280548015611f3e57602002820191906000526020600020908154600160a060020a03168152600190910190602001808311611f205750505050508561394b565b61236a57601b80546001810182556000919091527f3ad8aa4f87544323a9d1e5dd902f40c356527a7955687113db5f9a85ad579dc1018054600160a060020a031916600160a060020a0386161790555b50600160a060020a0383166000908152600a60205260409020805460ff19166001908117909155612d6d565b8260060361247c57612400601d805480602002602001604051908101604052809291908181526020018280548015611f3e57602002820191906000526020600020908154600160a060020a03168152600190910190602001808311611f205750505050508561394b565b61245057601d80546001810182556000919091527f6d4407e7be21f808e6509aa9fa9143369579dd7d760fe20a2c09680fc146134f018054600160a060020a031916600160a060020a0386161790555b50600160a060020a0383166000908152600c60205260409020805460ff19166001908117909155612d6d565b82600703612562576124e6601c805480602002602001604051908101604052809291908181526020018280548015611f3e57602002820191906000526020600020908154600160a060020a03168152600190910190602001808311611f205750505050508561394b565b61253657601c80546001810182556000919091527f0e4562a10381dec21b205ed72637e6b1b523bdd0e4d4d50af5cd23dd4500a211018054600160a060020a031916600160a060020a0386161790555b50600160a060020a0383166000908152600b60205260409020805460ff19166001908117909155612d6d565b82600803612648576125cc601e805480602002602001604051908101604052809291908181526020018280548015611f3e57602002820191906000526020600020908154600160a060020a03168152600190910190602001808311611f205750505050508561394b565b61261c57601e80546001810182556000919091527f50bb669a95c7b50b7e8a6f09454034b2b14cf2b85c730dca9a539ca82cb6e350018054600160a060020a031916600160a060020a0386161790555b50600160a060020a0383166000908152600d60205260409020805460ff19166001908117909155612d6d565b8260090361272e576126b2601f805480602002602001604051908101604052809291908181526020018280548015611f3e57602002820191906000526020600020908154600160a060020a03168152600190910190602001808311611f205750505050508561394b565b61270257601f80546001810182556000919091527fa03837a25210ee280c2113ff4b77ca23440b19d4866cca721c801278fd08d807018054600160a060020a031916600160a060020a0386161790555b50600160a060020a0383166000908152600e60205260409020805460ff19166001908117909155612d6d565b82600a03612814576127986020805480602002602001604051908101604052809291908181526020018280548015611f3e57602002820191906000526020600020908154600160a060020a03168152600190910190602001808311611f205750505050508561394b565b6127e857602080546001810182556000919091527fc97bfaf2f8ee708c303a06d134f5ecd8389ae0432af62dc132a24118292866bb018054600160a060020a031916600160a060020a0386161790555b50600160a060020a0383166000908152600f60205260409020805460ff19166001908117909155612d6d565b82600b036128fa5761287e6021805480602002602001604051908101604052809291908181526020018280548015611f3e57602002820191906000526020600020908154600160a060020a03168152600190910190602001808311611f205750505050508561394b565b6128ce57602180546001810182556000919091527f3a6357012c1a3ae0a17d304c9920310382d968ebcc4b1771f41c6b304205b570018054600160a060020a031916600160a060020a0386161790555b50600160a060020a0383166000908152601060205260409020805460ff19166001908117909155612d6d565b82600c036129e1576129646022805480602002602001604051908101604052809291908181526020018280548015611f3e57602002820191906000526020600020908154600160a060020a03168152600190910190602001808311611f205750505050508561394b565b156129b557602280546001810182556000919091527f61035b26e3e9eee00e0d72fd1ee8ddca6894550dca6916ea2ac6baa90d11e510018054600160a060020a031916600160a060020a0386161790555b50600160a060020a0383166000908152601160205260409020805460ff19166001908117909155612d6d565b82600d03612ac757612a4b6023805480602002602001604051908101604052809291908181526020018280548015611f3e57602002820191906000526020600020908154600160a060020a03168152600190910190602001808311611f205750505050508561394b565b612a9b57602380546001810182556000919091527fd57b2b5166478fd4318d2acc6cc2c704584312bdd8781b32d5d06abda57f4230018054600160a060020a031916600160a060020a0386161790555b50600160a060020a0383166000908152601260205260409020805460ff19166001908117909155612d6d565b82600e03612bad57612b316025805480602002602001604051908101604052809291908181526020018280548015611f3e57602002820191906000526020600020908154600160a060020a03168152600190910190602001808311611f205750505050508561394b565b612b8157602580546001810182556000919091527f401968ff42a154441da5f6c4c935ac46b8671f0e062baaa62a7545ba53bb6e4c018054600160a060020a031916600160a060020a0386161790555b50600160a060020a0383166000908152601460205260409020805460ff19166001908117909155612d6d565b82606303612c9357612c176024805480602002602001604051908101604052809291908181526020018280548015611f3e57602002820191906000526020600020908154600160a060020a03168152600190910190602001808311611f205750505050508561394b565b612c6757602480546001810182556000919091527f7cd332d19b93bcabe3cce7ca0c18a052f57e5fd03b4758a09f30f5ddc4b22ec4018054600160a060020a031916600160a060020a0386161790555b50600160a060020a0383166000908152601360205260409020805460ff19166001908117909155612d6d565b612cf56017805480602002602001604051908101604052809291908181526020018280548015611f3e57602002820191906000526020600020908154600160a060020a03168152600190910190602001808311611f205750505050508561394b565b612d4557601780546001810182556000919091527fc624b66cc0138b8fabc209247f72d758e1cf3343756d543badbf24212bed8c15018054600160a060020a031916600160a060020a0386161790555b50600160a060020a0383166000908152600660205260409020805460ff191660019081179091555b8015612e335760408051608081018252600160a060020a0380871680835260016020808501828152858701898152606087018b90526000948552600390925295909220845181549651151560a060020a02600160a860020a0319909716941693909317949094178255519192909190820190612de99082613ffb565b50606082015181600201559050507fac7ff9e4a38bec2164d6a1f8ce6002a6abd727321a2bea11825d566713243ce9848484604051612e2a939291906140c0565b60405180910390a15b50506026805460ff191690555050565b60265460ff1615612e695760405160e560020a62461bcd02815260040161063690613e50565b6026805460ff19166001179055612e7f81611c99565b612e9e5760405160e560020a62461bcd02815260040161063690613e84565b612ea98383836134ca565b1515600114612efb5760405160e560020a62461bcd0281526020600482015260186024820152604060020a77696e766573746f7220646f6573206e6f7420657869737473026044820152606401610636565b600060018484604051612f0f929190613ee4565b9081526040805160209281900383019020600160a060020a038516600090815292528120805460ff191692151592909217909155805b60025481101561314d578161313b5782600160a060020a031660008686604051612f70929190613ee4565b90815260200160405180910390208281548110612f8f57612f8f613f27565b600091825260209091200154600160a060020a03160361313b5760008585604051612fbb929190613ee4565b9081526040519081900360200190205481101561313b5760008585604051612fe4929190613ee4565b9081526020016040518091039020818154811061300357613003613f27565b600091825260208220018054600160a060020a031916905560405161302b9087908790613ee4565b908152602001604051809103902060016000878760405161304d929190613ee4565b908152604051908190036020019020546130679190613f41565b8154811061307757613077613f27565b6000918252602082200154604051600160a060020a03909116919061309f9088908890613ee4565b908152602001604051809103902082815481106130be576130be613f27565b600091825260208220018054600160a060020a031916600160a060020a0393909316929092179091556040516130f79087908790613ee4565b908152602001604051809103902080548061311457613114613f54565b60008281526020902081016000199081018054600160a060020a0319169055019055600191505b8061314581613f0e565b915050612f45565b5080612e335760405160e560020a62461bcd02815260206004820152601f60248201527f696e766573746f72206e6f742061737369676e656420746f2073796d626f6c006044820152606401610636565b600160a060020a03818116600090815260036020526040812080546002820154600190920180549394859460609486949283169360a060020a90930460ff16929182906131ea90613f6e565b80601f016020809104026020016040519081016040528092919081815260200182805461321690613f6e565b80156132635780601f1061323857610100808354040283529160200191613263565b820191906000526020600020905b81548152906001019060200180831161324657829003601f168201915b5050505050915093509350935093509193509193565b606080606080606080601a601d601c601f60206021858054806020026020016040519081016040528092919081815260200182805480156132e357602002820191906000526020600020905b8154600160a060020a031681526001909101906020018083116132c5575b505050505095508480548060200260200160405190810160405280929190818152602001828054801561333f57602002820191906000526020600020905b8154600160a060020a03168152600190910190602001808311613321575b505050505094508380548060200260200160405190810160405280929190818152602001828054801561339b57602002820191906000526020600020905b8154600160a060020a0316815260019091019060200180831161337d575b50505050509350828054806020026020016040519081016040528092919081815260200182805480156133f757602002820191906000526020600020905b8154600160a060020a031681526001909101906020018083116133d9575b505050505092508180548060200260200160405190810160405280929190818152602001828054801561345357602002820191906000526020600020905b8154600160a060020a03168152600190910190602001808311613435575b50505050509150808054806020026020016040519081016040528092919081815260200182805480156134af57602002820191906000526020600020905b8154600160a060020a03168152600190910190602001808311613491575b50505050509050955095509550955095509550909192939495565b6000600184846040516134de929190613ee4565b90815260408051918290036020908101909220600160a060020a0385166000908152925290205460ff1690509392505050565b60608060608060608060606017601660186019601b601e60228680548060200260200160405190810160405280929190818152602001828054801561357f57602002820191906000526020600020905b8154600160a060020a03168152600190910190602001808311613561575b50505050509650858054806020026020016040519081016040528092919081815260200182805480156135db57602002820191906000526020600020905b8154600160a060020a031681526001909101906020018083116135bd575b505050505095508480548060200260200160405190810160405280929190818152602001828054801561363757602002820191906000526020600020905b8154600160a060020a03168152600190910190602001808311613619575b505050505094508380548060200260200160405190810160405280929190818152602001828054801561369357602002820191906000526020600020905b8154600160a060020a03168152600190910190602001808311613675575b50505050509350828054806020026020016040519081016040528092919081815260200182805480156136ef57602002820191906000526020600020905b8154600160a060020a031681526001909101906020018083116136d1575b505050505092508180548060200260200160405190810160405280929190818152602001828054801561374b57602002820191906000526020600020905b8154600160a060020a0316815260019091019060200180831161372d575b50505050509150808054806020026020016040519081016040528092919081815260200182805480156137a757602002820191906000526020600020905b8154600160a060020a03168152600190910190602001808311613789575b50505050509050965096509650965096509650965090919293949596565b60036020526000908152604090208054600182018054600160a060020a0383169360a060020a90930460ff169291906137fd90613f6e565b80601f016020809104026020016040519081016040528092919081815260200182805461382990613f6e565b80156138765780601f1061384b57610100808354040283529160200191613876565b820191906000526020600020905b81548152906001019060200180831161385957829003601f168201915b5050505050908060020154905084565b60265460ff16156138ac5760405160e560020a62461bcd02815260040161063690613e50565b6026805460ff191660011790556138c281611c99565b1561390b5760405160e560020a62461bcd0281526020600482015260136024820152606a60020a72185b1c9958591e481dda1a5d195b1a5cdd1959026044820152606401610636565b600160a060020a031660008181526003602052604081208054600160a860020a03191690921760a060020a1782556002909101556026805460ff19169055565b6000805b83518110156139a65782600160a060020a031684828151811061397457613974613f27565b6020026020010151600160a060020a031603613994576001915050611d9b565b8061399e81613f0e565b91505061394f565b5060009392505050565b60008083601f8401126139c257600080fd5b5081356001604060020a038111156139d957600080fd5b6020830191508360208285010111156139f157600080fd5b9250929050565b8035600160a060020a0381168114613a0f57600080fd5b919050565b600080600060408486031215613a2957600080fd5b83356001604060020a03811115613a3f57600080fd5b613a4b868287016139b0565b9094509250613a5e9050602085016139f8565b90509250925092565b600060208284031215613a7957600080fd5b613a82826139f8565b9392505050565b60008060408385031215613a9c57600080fd5b82359150613aac602084016139f8565b90509250929050565b60e060020a634e487b710260009081526041600452602490fd5b600082601f830112613ae057600080fd5b81356001604060020a0380821115613afa57613afa613ab5565b604051601f8301601f19908116603f01168101908282118183101715613b2257613b22613ab5565b81604052838152866020858801011115613b3b57600080fd5b836020870160208301376000602085830101528094505050505092915050565b60008060408385031215613b6e57600080fd5b82356001604060020a03811115613b8457600080fd5b613b9085828601613acf565b95602094909401359450505050565b600160a060020a0391909116815260200190565b60008060208385031215613bc657600080fd5b82356001604060020a03811115613bdc57600080fd5b613be8858286016139b0565b90969095509350505050565b600081518084526020808501945080840160005b83811015613c2d578151600160a060020a031687529582019590820190600101613c08565b509495945050505050565b602081526000613a826020830184613bf4565b6000815180845260005b81811015613c7157602081850181015186830182015201613c55565b506000602082860101526020601f19601f83011685010191505092915050565b602081526000613a826020830184613c4b565b600080600060608486031215613cb957600080fd5b613cc2846139f8565b92506020840135915060408401356001604060020a03811115613ce457600080fd5b613cf086828701613acf565b9150509250925092565b600160a060020a03851681528315156020820152608060408201819052600090613d2690830185613c4b565b905082606083015295945050505050565b60c081526000613d4a60c0830189613bf4565b8281036020840152613d5c8189613bf4565b90508281036040840152613d708188613bf4565b90508281036060840152613d848187613bf4565b90508281036080840152613d988186613bf4565b905082810360a0840152613dac8185613bf4565b9998505050505050505050565b60e081526000613dcc60e083018a613bf4565b8281036020840152613dde818a613bf4565b90508281036040840152613df28189613bf4565b90508281036060840152613e068188613bf4565b90508281036080840152613e1a8187613bf4565b905082810360a0840152613e2e8186613bf4565b905082810360c0840152613e428185613bf4565b9a9950505050505050505050565b6020808252601790820152604a60020a761499595b9d1c985b9d0818d85b1b0819195d1958dd195902604082015260600190565b6020808252600f90820152608a60020a6e1b9bdd081dda1a5d195b1a5cdd195902604082015260600190565b6020808252601790820152604860020a76696e766573746f7220616c72656164792065786973747302604082015260600190565b8183823760009101908152919050565b60e060020a634e487b710260009081526011600452602490fd5b600060018201613f2057613f20613ef4565b5060010190565b60e060020a634e487b710260009081526032600452602490fd5b81810381811115611d9b57611d9b613ef4565b60e060020a634e487b710260009081526031600452602490fd5b600281046001821680613f8257607f821691505b602082108103613fa65760e060020a634e487b710260009081526022600452602490fd5b50919050565b601f821115613ff6576000818152602081206020601f86010481016020861015613fd35750805b6020601f860104820191505b81811015613ff257828155600101613fdf565b5050505b505050565b81516001604060020a0381111561401457614014613ab5565b614028816140228454613f6e565b84613fac565b602080601f83116001811461406157600084156140455750858301515b60028086026008870290910a6000190419821617865550613ff2565b600085815260208120601f198616915b8281101561409057888601518255948401946001909101908401614071565b50858210156140b057878501516008601f88160260020a60001904191681555b5050505050600202600101905550565b600160a060020a03841681528260208201526060604082015260006140e86060830184613c4b565b9594505050505056fea2646970667358221220b0b17531872eec856a891e62a5e2e6019e9c313d5a5ef59a02ff3793add4732f64736f6c63430008120033",
  "immutableReferences": {},
  "source": "// SPDX-License-Identifier: BSL-1.1\npragma solidity >=0.4.22 <0.9.0;\n\nimport \"../../interfaces/IInvestorManager.sol\";\nimport \"../../libs/InvestorManagerLibrary.sol\";\n\ncontract InvestorManager is IInvestorManager {\n    using InvestorManagerLibrary for *;\n\n    mapping(string => address[]) public investors;\n    mapping(string => mapping(address => bool)) private investorExists;\n    uint256 private investorCount = 0;\n\n    mapping(address => InvestorManagerLibrary.INVESTOR) public whitelisted;\n\n    mapping(address => bool) private accreditedInvestors;\n    mapping(address => bool) private accredited_investors;\n    mapping(address => bool) private nonaccredited_investors;\n    mapping(address => bool) private affiliate_investors;\n    mapping(address => bool) private broker_dealers;\n    mapping(address => bool) private transfer_agents;\n    mapping(address => bool) private institutions;\n    mapping(address => bool) private municipalities;\n    mapping(address => bool) private banks;\n    mapping(address => bool) private investment_companies;\n    mapping(address => bool) private nonprofitentities;\n    mapping(address => bool) private churches;\n    mapping(address => bool) private lenders;\n    mapping(address => bool) private trusts;\n    mapping(address => bool) private issuers;\n    mapping(address => bool) private borrowers;\n    mapping(address => bool) private municipalAdvisors;\n\n    address[] private _accreditedInvestors;\n    address[] private _accredited_investors;\n    address[] private _nonaccredited_investors;\n    address[] private _affiliate_investors;\n    address[] private _broker_dealers;\n    address[] private _transfer_agents;\n    address[] private _institutions;\n    address[] private _municipalities;\n    address[] private _banks;\n    address[] private _investment_companies;\n    address[] private _nonprofitentities;\n    address[] private _churches;\n    address[] private _lenders;\n    address[] private _trusts;\n    address[] private _issuers;\n    address[] private _borrowers;\n    address[] private _municipalAdvisors;\n\n    // Variable to track reentrant calls\n    bool private reentrantGuard;\n\n    address public owner;\n\n    constructor() {\n        owner = msg.sender;\n    }\n\n    modifier nonReentrant() {\n        require(!reentrantGuard, \"Reentrant call detected\");\n        reentrantGuard = true;\n        _;\n        reentrantGuard = false;\n    }\n\n    // Add functions for investor management here\n    function isWhitelisted(address wallet) public view  returns (bool) {\n        return whitelisted[wallet].active;\n    }\n\n    function findInvestor(string calldata symbol,address wallet) public view returns (bool) {\n        return investorExists[symbol][wallet];\n    }\n    function findInvestor(address[] memory _investors,address wallet) internal pure returns (bool) {\n        for(uint256 i=0; i<_investors.length; i++) {\n            if (_investors[i] == wallet) {\n                return true;\n            }\n        }\n        return false;\n    }\n\n    function addInvestor(address wallet) external nonReentrant {\n        require(!isWhitelisted(wallet),\"already whitelisted\");\n        whitelisted[wallet].wallet = wallet;\n        whitelisted[wallet].active = true;\n        whitelisted[wallet].level = 0; // default to non-accredited\n    }\n\n    function addInvestor(string calldata symbol,address wallet) external nonReentrant {\n        require(isWhitelisted(wallet),\"not whitelisted\");\n        require(findInvestor(symbol, wallet) == false,\"investor already exists\");\n        investorExists[symbol][wallet] = true;\n        investors[symbol].push(wallet);\n        investorCount++;\n        //emit InvestorAdded(wallet, investor_type, jurisdiction);\n    }\n\n    function getInvestorsBySymbol(string calldata symbol) external view returns (address[] memory) {\n        return investors[symbol];\n    }\n\n    function isInvestor(string calldata symbol,address wallet) external view  returns(bool) {\n        return findInvestor(symbol, wallet);\n    }\n\n    function removeInvestor(address wallet) external nonReentrant {\n        //require(isWhitelisted(wallet),\"not whitelisted\");\n        whitelisted[wallet].active = false;\n    }\n\n    function removeInvestorBySymbol(string calldata symbol,address wallet) external nonReentrant {\n        require(isWhitelisted(wallet),\"not whitelisted\");\n        require(findInvestor(symbol, wallet) == true,\"investor does not exists\");\n        investorExists[symbol][wallet] = false;\n        bool found = false;\n        for(uint256 i=0; i<investorCount; i++) { \n            if (!found) {\n                if (investors[symbol][i] == wallet) {\n                    if (i < investors[symbol].length) {\n                        delete investors[symbol][i];\n                        investors[symbol][i] = investors[symbol][investors[symbol].length - 1];\n                        investors[symbol].pop();\n                        found = true;\n                    }\n                }\n            }\n        }\n        require(found,\"investor not assigned to symbol\");\n    }\n\n    function removeInvestor(uint256 investor_type,address wallet) external nonReentrant {\n        bool found = false;\n\n        if (investor_type == 0) {\n            for (uint256 i=0; i<_nonaccredited_investors.length; i++) {\n                if (!found) {\n                    if (_nonaccredited_investors[i] == wallet) {\n                        if (i < _nonaccredited_investors.length) {\n                            delete _nonaccredited_investors[i];\n                            _nonaccredited_investors[i] = _nonaccredited_investors[_nonaccredited_investors.length - 1];\n                            _nonaccredited_investors.pop();\n                            found = true;\n                        }\n                    }\n                }\n            }\n        } else if (investor_type == 1) {\n            for (uint256 i=0; i<_accredited_investors.length; i++) {\n                if (!found) {\n                    if (_accredited_investors[i] == wallet) {\n                        if (i < _accredited_investors.length) {\n                            delete _accredited_investors[i];\n                            _accredited_investors[i] = _accredited_investors[_accredited_investors.length - 1];\n                            _accredited_investors.pop();\n                            found = true;\n                        }\n                    }\n                }\n            }\n        } else if (investor_type == 2) {\n            for (uint256 i=0; i<_affiliate_investors.length; i++) {\n                if (!found) {\n                    if (_affiliate_investors[i] == wallet) {\n                        if (i < _affiliate_investors.length) {\n                            delete _affiliate_investors[i];\n                            _affiliate_investors[i] = _affiliate_investors[_affiliate_investors.length - 1];\n                            _affiliate_investors.pop();\n                            found = true;\n                        }\n                    }\n                }\n            }\n        } else if (investor_type == 3) {\n            for (uint256 i=0; i<_broker_dealers.length; i++) {\n                if (!found) {\n                    if (_broker_dealers[i] == wallet) {\n                        if (i < _broker_dealers.length) {\n                            delete _broker_dealers[i];\n                            _broker_dealers[i] = _broker_dealers[_broker_dealers.length - 1];\n                            _broker_dealers.pop();\n                            found = true;\n                        }\n                    }\n                }\n            }\n        } else if (investor_type == 4) {\n            for (uint256 i=0; i<_transfer_agents.length; i++) {\n                if (!found) {\n                    if (_transfer_agents[i] == wallet) {\n                        if (i < _transfer_agents.length) {\n                            delete _transfer_agents[i];\n                            _transfer_agents[i] = _transfer_agents[_transfer_agents.length - 1];\n                            _transfer_agents.pop();\n                            found = true;\n                        }\n                    }\n                }\n            }\n        } else if (investor_type == 5) {\n            for (uint256 i=0; i<_institutions.length; i++) {\n                if (!found) {\n                    if (_institutions[i] == wallet) {\n                        if (i < _institutions.length) {\n                            delete _institutions[i];\n                            _institutions[i] = _institutions[_institutions.length - 1];\n                            _institutions.pop();\n                            found = true;\n                        }\n                    }\n                }\n            }\n        } else if (investor_type == 6) {\n            for (uint256 i=0; i<_banks.length; i++) {\n                if (!found) {\n                    if (_banks[i] == wallet) {\n                        if (i < _banks.length) {\n                            delete _banks[i];\n                            _banks[i] = _banks[_banks.length - 1];\n                            _banks.pop();\n                            found = true;\n                        }\n                    }\n                }\n            }\n        } else if (investor_type == 7) {\n            for (uint256 i=0; i<_municipalities.length; i++) {\n                if (!found) {\n                    if (_municipalities[i] == wallet) {\n                        if (i < _municipalities.length) {\n                            delete _municipalities[i];\n                            _municipalities[i] = _municipalities[_municipalities.length - 1];\n                            _municipalities.pop();\n                            found = true;\n                        }\n                    }\n                }\n            }\n        } else if (investor_type == 8) {\n            for (uint256 i=0; i<_investment_companies.length; i++) {\n                if (!found) {\n                    if (_investment_companies[i] == wallet) {\n                        if (i < _investment_companies.length) {\n                            delete _investment_companies[i];\n                            _investment_companies[i] = _investment_companies[_investment_companies.length - 1];\n                            _investment_companies.pop();\n                            found = true;\n                        }\n                    }\n                }\n            }\n        } else if (investor_type == 9) {\n            for (uint256 i=0; i<_nonprofitentities.length; i++) {\n                if (!found) {\n                    if (_nonprofitentities[i] == wallet) {\n                        if (i < _nonprofitentities.length) {\n                            delete _nonprofitentities[i];\n                            _nonprofitentities[i] = _nonprofitentities[_nonprofitentities.length - 1];\n                            _nonprofitentities.pop();\n                            found = true;\n                        }\n                    }\n                }\n            }\n        } else if (investor_type == 10) {\n            for (uint256 i=0; i<_churches.length; i++) {\n                if (!found) {\n                    if (_churches[i] == wallet) {\n                        if (i < _churches.length) {\n                            delete _churches[i];\n                            _churches[i] = _churches[_churches.length - 1];\n                            _churches.pop();\n                            found = true;\n                        }\n                    }\n                }\n            }\n        } else if (investor_type == 11) {\n            for (uint256 i=0; i<_lenders.length; i++) {\n                if (!found) {\n                    if (_lenders[i] == wallet) {\n                        if (i < _lenders.length) {\n                            delete _lenders[i];\n                            _lenders[i] = _lenders[_lenders.length - 1];\n                            _lenders.pop();\n                            found = true;\n                        }\n                    }\n                }\n            }\n        } else if (investor_type == 12) {\n            for (uint256 i=0; i<_trusts.length; i++) {\n                if (!found) {\n                    if (_trusts[i] == wallet) {\n                        if (i < _trusts.length) {\n                            delete _trusts[i];\n                            _trusts[i] = _trusts[_trusts.length - 1];\n                            _trusts.pop();\n                            found = true;\n                        }\n                    }\n                }\n            }\n        } else if (investor_type == 13) {\n            for (uint256 i=0; i<_issuers.length; i++) {\n                if (!found) {\n                    if (_issuers[i] == wallet) {\n                        if (i < _issuers.length) {\n                            delete _issuers[i];\n                            _issuers[i] = _issuers[_issuers.length - 1];\n                            _issuers.pop();\n                            found = true;\n                        }\n                    }\n                }\n            }\n        } else if (investor_type == 14) {\n            for (uint256 i=0; i<_municipalAdvisors.length; i++) {\n                if (!found) {\n                    if (_municipalAdvisors[i] == wallet) {\n                        if (i < _municipalAdvisors.length) {\n                            delete _municipalAdvisors[i];\n                            _municipalAdvisors[i] = _municipalAdvisors[_municipalAdvisors.length - 1];\n                            _municipalAdvisors.pop();\n                            found = true;\n                        }\n                    }\n                }\n            }\n        } else if (investor_type == 99) {\n            for (uint256 i=0; i<_borrowers.length; i++) {\n                if (!found) {\n                    if (_borrowers[i] == wallet) {\n                        if (i < _borrowers.length) {\n                            delete _borrowers[i];\n                            _borrowers[i] = _borrowers[_borrowers.length - 1];\n                            _borrowers.pop();\n                            found = true;\n                        }\n                    }\n                }\n            }\n        }\n    }\n\n    /**\n     * NON_ACCREDITED = 0,\n     * ACCREDITED = 1, \n     * AFFILIATE = 2, \n     * BROKER_DEALERS =  3, \n     * TRANSFER_AGENTS = 4, \n     * INSTITUTIONS = 5, \n     * BANKS = 6, \n     * MUNICIPALITIES = 7\n     * INVESTMENT COMPANY = 8\n     * NONPROFIT = 9\n     * CHURCH = 10\n     * LENDERS = 11\n     * TRUSTS = 12\n     * ISSUER = 13\n     * MUNICIPALITY ADVISOR = 14\n     */\n    function addInvestor(address investor, uint investor_type,string memory jurisdiction) external nonReentrant {\n        require(whitelisted[investor].active == false,\"investor already exists\");\n        bool investorAdded = false;\n\n        if (investor_type == 1) {\n            if (!findInvestor(_accredited_investors, investor)) {\n                _accredited_investors.push(investor);\n            }\n            accredited_investors[investor] = true;\n            investorAdded = true;\n        } else if (investor_type == 2) {\n            if (!findInvestor(_affiliate_investors, investor)) {\n                _affiliate_investors.push(investor);\n            }\n            affiliate_investors[investor] = true;\n            investorAdded = true;\n        } else if (investor_type == 3) {\n            if (!findInvestor(_broker_dealers, investor)) {\n                _broker_dealers.push(investor);\n            }\n            broker_dealers[investor] = true;\n            investorAdded = true;\n        } else if (investor_type == 4) {\n            if (!findInvestor(_transfer_agents, investor)) {\n                _transfer_agents.push(investor);\n            }\n            transfer_agents[investor] = true;\n            investorAdded = true;\n            emit TransferAgentAdded(investor);\n        } else if (investor_type == 5) {\n            if (!findInvestor(_institutions, investor)) {\n                _institutions.push(investor);\n            }\n            institutions[investor] = true;\n            investorAdded = true;\n        } else if (investor_type == 6) {\n            if (!findInvestor(_banks, investor)) {\n                _banks.push(investor);\n            }\n            banks[investor] = true;\n            investorAdded = true;\n        } else if (investor_type == 7) {\n            if (!findInvestor(_municipalities, investor)) {\n                _municipalities.push(investor);\n            }\n            municipalities[investor] = true;\n            investorAdded = true;\n        } else if (investor_type == 8) {\n            if (!findInvestor(_investment_companies, investor)) {\n                _investment_companies.push(investor);\n            }\n            investment_companies[investor] = true;\n            investorAdded = true;\n        } else if (investor_type == 9) {\n            if (!findInvestor(_nonprofitentities, investor)) {\n                _nonprofitentities.push(investor);\n            }\n            nonprofitentities[investor] = true;\n            investorAdded = true;\n        } else if (investor_type == 10) {\n            if (!findInvestor(_churches, investor)) {\n                _churches.push(investor);\n            }\n            churches[investor] = true;\n            investorAdded = true;\n        } else if (investor_type == 11) {\n            if (!findInvestor(_lenders, investor)) {\n                _lenders.push(investor);\n            }\n            lenders[investor] = true;\n            investorAdded = true;\n        } else if (investor_type == 12) {\n            if (findInvestor(_trusts, investor)) {\n                _trusts.push(investor);\n            }\n            trusts[investor] = true;\n            investorAdded = true;\n        } else if (investor_type == 13) {\n            if (!findInvestor(_issuers, investor)) {\n                _issuers.push(investor);\n            }\n            issuers[investor] = true;\n            investorAdded = true;\n        } else if (investor_type == 14) {\n            if (!findInvestor(_municipalAdvisors, investor)) {\n                _municipalAdvisors.push(investor);\n            }\n            municipalAdvisors[investor] = true;\n            investorAdded = true;\n        } else if (investor_type == 99) {\n            if (!findInvestor(_borrowers, investor)) {\n                _borrowers.push(investor);\n            }\n            borrowers[investor] = true;\n            investorAdded = true;\n        } else {\n            if (!findInvestor(_nonaccredited_investors, investor)){\n                _nonaccredited_investors.push(investor);\n            }\n            nonaccredited_investors[investor] = true;\n            investorAdded = true;\n        }\n\n        if (investorAdded) {\n            whitelisted[investor] = InvestorManagerLibrary.INVESTOR(investor,true,jurisdiction,investor_type);\n            emit InvestorAdded(investor, investor_type, jurisdiction);\n        }\n    }\n\n    function getInvestor(address wallet) external view  returns (address,bool,string memory,uint) {\n        return (whitelisted[wallet].wallet,whitelisted[wallet].active,whitelisted[wallet].jurisdiction,whitelisted[wallet].level);\n    }\n\n    function getInvestors()  external view  returns (address[] memory,address[] memory,address[] memory,address[] memory,address[] memory,address[] memory,address[] memory) {\n        return (_nonaccredited_investors,_accredited_investors,_affiliate_investors,_broker_dealers,_institutions,_investment_companies,_trusts); \n    }\n    function getIssuers()  external view  returns (address[] memory,address[] memory,address[] memory,address[] memory,address[] memory,address[] memory) {\n        return (_transfer_agents,_banks,_municipalities,_nonprofitentities,_churches,_lenders);\n    }\n    function getInvestorStatus(address wallet)  external view  returns (bool) {\n        return whitelisted[wallet].active;        \n    }\n    function getInvestorJurisdiction(address wallet)  external view  returns (string memory) {\n        return whitelisted[wallet].jurisdiction;\n    }\n    function getInvestorLevel(address wallet)  external view  returns (uint) {\n        return whitelisted[wallet].level;\n    }\n    function isAccredited(address wallet)  external view  returns (bool) {\n        return accredited_investors[wallet];\n    }\n    function isNonAccredited(address wallet)  external view  returns (bool) {\n        return nonaccredited_investors[wallet];\n    }\n    function isAffiliate(address wallet)  external view  returns (bool) {\n        return affiliate_investors[wallet];\n    }\n    function isBrokerDealer(address wallet)  external view  returns (bool) {\n        return broker_dealers[wallet];\n    }\n    function isTransferAgent(address wallet)  external view  returns (bool) {\n        return transfer_agents[wallet];\n    }\n    function isInstitution(address wallet)  external view  returns (bool) {\n        return institutions[wallet];\n    }\n    function isBank(address wallet)  external view  returns (bool) {\n        return banks[wallet];\n    }\n    function isInvestmentCompany(address wallet)  external view  returns (bool) {\n        return investment_companies[wallet];\n    }\n    function isNonProfitEntity(address wallet)  external view  returns (bool) {\n        return nonprofitentities[wallet];\n    }\n    function isChurch(address wallet)  external view  returns (bool) {\n        return churches[wallet];\n    }\n    function isLender(address wallet)  external view  returns (bool) {\n        return lenders[wallet];\n    }\n    function isVotingTrust(address wallet)  external view  returns (bool) {\n        return trusts[wallet];\n    }\n    function isBorrower(address wallet) external view  returns (bool) {\n        return borrowers[wallet];\n    }\n    function isIssuer(address wallet)  external view  returns (bool) {\n        return issuers[wallet];\n    }\n    function isMunicipalAdvisor(address wallet) external view returns (bool) {\n        return municipalAdvisors[wallet];\n    }\n}\n",
  "sourcePath": "/Volumes/My Book/projects/pingleware-contracts/contracts/finance/elmx/InvestorManager.sol",
  "compiler": {
    "name": "solc",
    "version": "0.8.18+commit.87f61d96.Emscripten.clang"
  },
  "schemaVersion": "3.4.12",
  "updatedAt": "2023-10-25T19:36:52.502Z",
  "networkType": "ethereum",
  "devdoc": {
    "kind": "dev",
    "methods": {},
    "version": 1
  },
  "userdoc": {
    "kind": "user",
    "methods": {
      "addInvestor(address,uint256,string)": {
        "notice": "NON_ACCREDITED = 0, ACCREDITED = 1,  AFFILIATE = 2,  BROKER_DEALERS =  3,  TRANSFER_AGENTS = 4,  INSTITUTIONS = 5,  BANKS = 6,  MUNICIPALITIES = 7 INVESTMENT COMPANY = 8 NONPROFIT = 9 CHURCH = 10 LENDERS = 11 TRUSTS = 12 ISSUER = 13 MUNICIPALITY ADVISOR = 14"
      }
    },
    "version": 1
  }
}