{
  "contractName": "InvestorManager",
  "abi": [
    {
      "inputs": [],
      "stateMutability": "nonpayable",
      "type": "constructor"
    },
    {
      "anonymous": false,
      "inputs": [
        {
          "indexed": false,
          "internalType": "address",
          "name": "wallet",
          "type": "address"
        },
        {
          "indexed": false,
          "internalType": "uint256",
          "name": "investor_type",
          "type": "uint256"
        },
        {
          "indexed": false,
          "internalType": "string",
          "name": "jurisdiction",
          "type": "string"
        }
      ],
      "name": "InvestorAdded",
      "type": "event"
    },
    {
      "anonymous": false,
      "inputs": [
        {
          "indexed": false,
          "internalType": "address",
          "name": "wallet",
          "type": "address"
        }
      ],
      "name": "TransferAgentAdded",
      "type": "event"
    },
    {
      "inputs": [
        {
          "internalType": "string",
          "name": "",
          "type": "string"
        },
        {
          "internalType": "uint256",
          "name": "",
          "type": "uint256"
        }
      ],
      "name": "investors",
      "outputs": [
        {
          "internalType": "address",
          "name": "",
          "type": "address"
        }
      ],
      "stateMutability": "view",
      "type": "function",
      "constant": true
    },
    {
      "inputs": [],
      "name": "owner",
      "outputs": [
        {
          "internalType": "address",
          "name": "",
          "type": "address"
        }
      ],
      "stateMutability": "view",
      "type": "function",
      "constant": true
    },
    {
      "inputs": [
        {
          "internalType": "address",
          "name": "",
          "type": "address"
        }
      ],
      "name": "whitelisted",
      "outputs": [
        {
          "internalType": "address",
          "name": "wallet",
          "type": "address"
        },
        {
          "internalType": "bool",
          "name": "active",
          "type": "bool"
        },
        {
          "internalType": "string",
          "name": "jurisdiction",
          "type": "string"
        },
        {
          "internalType": "uint256",
          "name": "level",
          "type": "uint256"
        }
      ],
      "stateMutability": "view",
      "type": "function",
      "constant": true
    },
    {
      "inputs": [
        {
          "internalType": "address",
          "name": "wallet",
          "type": "address"
        }
      ],
      "name": "isWhitelisted",
      "outputs": [
        {
          "internalType": "bool",
          "name": "",
          "type": "bool"
        }
      ],
      "stateMutability": "view",
      "type": "function",
      "constant": true
    },
    {
      "inputs": [
        {
          "internalType": "string",
          "name": "symbol",
          "type": "string"
        },
        {
          "internalType": "address",
          "name": "wallet",
          "type": "address"
        }
      ],
      "name": "findInvestor",
      "outputs": [
        {
          "internalType": "bool",
          "name": "",
          "type": "bool"
        }
      ],
      "stateMutability": "view",
      "type": "function",
      "constant": true
    },
    {
      "inputs": [
        {
          "internalType": "string",
          "name": "symbol",
          "type": "string"
        }
      ],
      "name": "getInvestorsBySymbol",
      "outputs": [
        {
          "internalType": "address[]",
          "name": "",
          "type": "address[]"
        }
      ],
      "stateMutability": "view",
      "type": "function",
      "constant": true
    },
    {
      "inputs": [
        {
          "internalType": "string",
          "name": "symbol",
          "type": "string"
        },
        {
          "internalType": "address",
          "name": "wallet",
          "type": "address"
        }
      ],
      "name": "isInvestor",
      "outputs": [
        {
          "internalType": "bool",
          "name": "",
          "type": "bool"
        }
      ],
      "stateMutability": "view",
      "type": "function",
      "constant": true
    },
    {
      "inputs": [
        {
          "internalType": "string",
          "name": "symbol",
          "type": "string"
        },
        {
          "internalType": "address",
          "name": "wallet",
          "type": "address"
        }
      ],
      "name": "removeInvestorBySymbol",
      "outputs": [],
      "stateMutability": "nonpayable",
      "type": "function"
    },
    {
      "inputs": [
        {
          "internalType": "uint256",
          "name": "investor_type",
          "type": "uint256"
        },
        {
          "internalType": "address",
          "name": "wallet",
          "type": "address"
        }
      ],
      "name": "removeInvestor",
      "outputs": [],
      "stateMutability": "nonpayable",
      "type": "function"
    },
    {
      "inputs": [
        {
          "internalType": "address",
          "name": "wallet",
          "type": "address"
        }
      ],
      "name": "removeInvestor",
      "outputs": [],
      "stateMutability": "nonpayable",
      "type": "function"
    },
    {
      "inputs": [
        {
          "internalType": "string",
          "name": "symbol",
          "type": "string"
        },
        {
          "internalType": "address",
          "name": "wallet",
          "type": "address"
        }
      ],
      "name": "addInvestor",
      "outputs": [],
      "stateMutability": "nonpayable",
      "type": "function"
    },
    {
      "inputs": [
        {
          "internalType": "address",
          "name": "investor",
          "type": "address"
        },
        {
          "internalType": "uint256",
          "name": "investor_type",
          "type": "uint256"
        },
        {
          "internalType": "string",
          "name": "jurisdiction",
          "type": "string"
        }
      ],
      "name": "addInvestor",
      "outputs": [],
      "stateMutability": "nonpayable",
      "type": "function"
    },
    {
      "inputs": [
        {
          "internalType": "address",
          "name": "wallet",
          "type": "address"
        }
      ],
      "name": "addInvestor",
      "outputs": [],
      "stateMutability": "nonpayable",
      "type": "function"
    },
    {
      "inputs": [
        {
          "internalType": "address",
          "name": "wallet",
          "type": "address"
        }
      ],
      "name": "getInvestor",
      "outputs": [
        {
          "internalType": "address",
          "name": "",
          "type": "address"
        },
        {
          "internalType": "bool",
          "name": "",
          "type": "bool"
        },
        {
          "internalType": "string",
          "name": "",
          "type": "string"
        },
        {
          "internalType": "uint256",
          "name": "",
          "type": "uint256"
        }
      ],
      "stateMutability": "view",
      "type": "function",
      "constant": true
    },
    {
      "inputs": [],
      "name": "getInvestors",
      "outputs": [
        {
          "internalType": "address[]",
          "name": "",
          "type": "address[]"
        },
        {
          "internalType": "address[]",
          "name": "",
          "type": "address[]"
        },
        {
          "internalType": "address[]",
          "name": "",
          "type": "address[]"
        },
        {
          "internalType": "address[]",
          "name": "",
          "type": "address[]"
        },
        {
          "internalType": "address[]",
          "name": "",
          "type": "address[]"
        },
        {
          "internalType": "address[]",
          "name": "",
          "type": "address[]"
        },
        {
          "internalType": "address[]",
          "name": "",
          "type": "address[]"
        }
      ],
      "stateMutability": "view",
      "type": "function",
      "constant": true
    },
    {
      "inputs": [],
      "name": "getIssuers",
      "outputs": [
        {
          "internalType": "address[]",
          "name": "",
          "type": "address[]"
        },
        {
          "internalType": "address[]",
          "name": "",
          "type": "address[]"
        },
        {
          "internalType": "address[]",
          "name": "",
          "type": "address[]"
        },
        {
          "internalType": "address[]",
          "name": "",
          "type": "address[]"
        },
        {
          "internalType": "address[]",
          "name": "",
          "type": "address[]"
        },
        {
          "internalType": "address[]",
          "name": "",
          "type": "address[]"
        },
        {
          "internalType": "address[]",
          "name": "",
          "type": "address[]"
        },
        {
          "internalType": "address[]",
          "name": "",
          "type": "address[]"
        }
      ],
      "stateMutability": "view",
      "type": "function",
      "constant": true
    },
    {
      "inputs": [
        {
          "internalType": "address",
          "name": "wallet",
          "type": "address"
        }
      ],
      "name": "getInvestorStatus",
      "outputs": [
        {
          "internalType": "bool",
          "name": "",
          "type": "bool"
        }
      ],
      "stateMutability": "view",
      "type": "function",
      "constant": true
    },
    {
      "inputs": [
        {
          "internalType": "address",
          "name": "wallet",
          "type": "address"
        }
      ],
      "name": "getInvestorJurisdiction",
      "outputs": [
        {
          "internalType": "string",
          "name": "",
          "type": "string"
        }
      ],
      "stateMutability": "view",
      "type": "function",
      "constant": true
    },
    {
      "inputs": [
        {
          "internalType": "address",
          "name": "wallet",
          "type": "address"
        }
      ],
      "name": "getInvestorLevel",
      "outputs": [
        {
          "internalType": "uint256",
          "name": "",
          "type": "uint256"
        }
      ],
      "stateMutability": "view",
      "type": "function",
      "constant": true
    },
    {
      "inputs": [
        {
          "internalType": "address",
          "name": "wallet",
          "type": "address"
        }
      ],
      "name": "isAccredited",
      "outputs": [
        {
          "internalType": "bool",
          "name": "",
          "type": "bool"
        }
      ],
      "stateMutability": "view",
      "type": "function",
      "constant": true
    },
    {
      "inputs": [
        {
          "internalType": "address",
          "name": "wallet",
          "type": "address"
        }
      ],
      "name": "isNonAccredited",
      "outputs": [
        {
          "internalType": "bool",
          "name": "",
          "type": "bool"
        }
      ],
      "stateMutability": "view",
      "type": "function",
      "constant": true
    },
    {
      "inputs": [
        {
          "internalType": "address",
          "name": "wallet",
          "type": "address"
        }
      ],
      "name": "isAffiliate",
      "outputs": [
        {
          "internalType": "bool",
          "name": "",
          "type": "bool"
        }
      ],
      "stateMutability": "view",
      "type": "function",
      "constant": true
    },
    {
      "inputs": [
        {
          "internalType": "address",
          "name": "wallet",
          "type": "address"
        }
      ],
      "name": "isBrokerDealer",
      "outputs": [
        {
          "internalType": "bool",
          "name": "",
          "type": "bool"
        }
      ],
      "stateMutability": "view",
      "type": "function",
      "constant": true
    },
    {
      "inputs": [
        {
          "internalType": "address",
          "name": "wallet",
          "type": "address"
        }
      ],
      "name": "isTransferAgent",
      "outputs": [
        {
          "internalType": "bool",
          "name": "",
          "type": "bool"
        }
      ],
      "stateMutability": "view",
      "type": "function",
      "constant": true
    },
    {
      "inputs": [
        {
          "internalType": "address",
          "name": "wallet",
          "type": "address"
        }
      ],
      "name": "isInstitution",
      "outputs": [
        {
          "internalType": "bool",
          "name": "",
          "type": "bool"
        }
      ],
      "stateMutability": "view",
      "type": "function",
      "constant": true
    },
    {
      "inputs": [
        {
          "internalType": "address",
          "name": "wallet",
          "type": "address"
        }
      ],
      "name": "isBank",
      "outputs": [
        {
          "internalType": "bool",
          "name": "",
          "type": "bool"
        }
      ],
      "stateMutability": "view",
      "type": "function",
      "constant": true
    },
    {
      "inputs": [
        {
          "internalType": "address",
          "name": "wallet",
          "type": "address"
        }
      ],
      "name": "isInvestmentCompany",
      "outputs": [
        {
          "internalType": "bool",
          "name": "",
          "type": "bool"
        }
      ],
      "stateMutability": "view",
      "type": "function",
      "constant": true
    },
    {
      "inputs": [
        {
          "internalType": "address",
          "name": "wallet",
          "type": "address"
        }
      ],
      "name": "isNonProfitEntity",
      "outputs": [
        {
          "internalType": "bool",
          "name": "",
          "type": "bool"
        }
      ],
      "stateMutability": "view",
      "type": "function",
      "constant": true
    },
    {
      "inputs": [
        {
          "internalType": "address",
          "name": "wallet",
          "type": "address"
        }
      ],
      "name": "isChurch",
      "outputs": [
        {
          "internalType": "bool",
          "name": "",
          "type": "bool"
        }
      ],
      "stateMutability": "view",
      "type": "function",
      "constant": true
    },
    {
      "inputs": [
        {
          "internalType": "address",
          "name": "wallet",
          "type": "address"
        }
      ],
      "name": "isLender",
      "outputs": [
        {
          "internalType": "bool",
          "name": "",
          "type": "bool"
        }
      ],
      "stateMutability": "view",
      "type": "function",
      "constant": true
    },
    {
      "inputs": [
        {
          "internalType": "address",
          "name": "wallet",
          "type": "address"
        }
      ],
      "name": "isVotingTrust",
      "outputs": [
        {
          "internalType": "bool",
          "name": "",
          "type": "bool"
        }
      ],
      "stateMutability": "view",
      "type": "function",
      "constant": true
    },
    {
      "inputs": [
        {
          "internalType": "address",
          "name": "wallet",
          "type": "address"
        }
      ],
      "name": "isBorrower",
      "outputs": [
        {
          "internalType": "bool",
          "name": "",
          "type": "bool"
        }
      ],
      "stateMutability": "view",
      "type": "function",
      "constant": true
    },
    {
      "inputs": [
        {
          "internalType": "address",
          "name": "wallet",
          "type": "address"
        }
      ],
      "name": "isIssuer",
      "outputs": [
        {
          "internalType": "bool",
          "name": "",
          "type": "bool"
        }
      ],
      "stateMutability": "view",
      "type": "function",
      "constant": true
    },
    {
      "inputs": [
        {
          "internalType": "address",
          "name": "wallet",
          "type": "address"
        }
      ],
      "name": "isMunicipalAdvisor",
      "outputs": [
        {
          "internalType": "bool",
          "name": "",
          "type": "bool"
        }
      ],
      "stateMutability": "view",
      "type": "function",
      "constant": true
    },
    {
      "inputs": [
        {
          "internalType": "address",
          "name": "wallet",
          "type": "address"
        }
      ],
      "name": "isCFPortal",
      "outputs": [
        {
          "internalType": "bool",
          "name": "",
          "type": "bool"
        }
      ],
      "stateMutability": "view",
      "type": "function",
      "constant": true
    }
  ],
  "bytecode": "0x6080604052600060025534801561001557600080fd5b506028805461010060a860020a03191633610100021790556144838061003c6000396000f3fe608060405234801561001057600080fd5b50600436106101a35760e060020a60003504621a1c9281146101a85780630331df07146101bd57806306295bce146101fe578063251db3b31461022a5780632d598d7b1461023d5780632ec3da8a1461026957806334e8e57b146102955780633af32abf146102b557806342714978146102c85780634f504212146102db5780634f9d9e60146102fb5780634fa851861461031b578063512a22291461034757806362afeaa81461037357806364bf7cdc146103865780636a93316c146102b55780636b0df6e814610399578063709b8961146103c5578063872acf5b146103f15780638740f84e1461041d578063877b9a67146104305780638da5cb5b1461045c5780638f35a75e14610474578063905832841461049757806392b84098146104c3578063a594da95146104fd578063a62db0e014610519578063b2f5a54c1461052c578063d8b0962514610547578063d936547e14610573578063e641bde114610586578063eaf6e48314610599578063ec676a49146105c5578063f28dd611146105f1578063fb99b86d1461061d575b600080fd5b6101bb6101b6366004613d43565b610649565b005b6101e96101cb366004613d96565b600160a060020a03166000908152600a602052604090205460ff1690565b60405190151581526020015b60405180910390f35b6101e961020c366004613d96565b600160a060020a031660009081526014602052604090205460ff1690565b6101bb610238366004613db8565b61078c565b6101e961024b366004613d96565b600160a060020a031660009081526005602052604090205460ff1690565b6101e9610277366004613d96565b600160a060020a031660009081526006602052604090205460ff1690565b6102a86102a3366004613e8a565b611dd6565b6040516101f59190613ece565b6101e96102c3366004613d96565b611e1d565b6101bb6102d6366004613d96565b611e42565b6102ee6102e9366004613ee2565b611ea7565b6040516101f59190613f67565b61030e610309366004613d96565b611f25565b6040516101f59190613fc0565b6101e9610329366004613d96565b600160a060020a031660009081526007602052604090205460ff1690565b6101e9610355366004613d96565b600160a060020a03166000908152600d602052604090205460ff1690565b6101e9610381366004613d43565b611fd4565b6101bb610394366004613fd3565b611fe9565b6101e96103a7366004613d96565b600160a060020a031660009081526015602052604090205460ff1690565b6101e96103d3366004613d96565b600160a060020a031660009081526010602052604090205460ff1690565b6101e96103ff366004613d96565b600160a060020a031660009081526011602052604090205460ff1690565b6101bb61042b366004613d43565b6130ad565b6101e961043e366004613d96565b600160a060020a031660009081526012602052604090205460ff1690565b6028546102a8906101009004600160a060020a031681565b610487610482366004613d96565b613408565b6040516101f59493929190614029565b6101e96104a5366004613d96565b600160a060020a031660009081526008602052604090205460ff1690565b6104ef6104d1366004613d96565b600160a060020a031660009081526003602052604090206002015490565b6040519081526020016101f5565b6105056134e3565b6040516101f5989796959493929190614066565b6101e9610527366004613d43565b6137f9565b610534613840565b6040516101f59796959493929190614115565b6101e9610555366004613d96565b600160a060020a03166000908152600e602052604090205460ff1690565b610487610581366004613d96565b613af4565b6101bb610594366004613d96565b613bb5565b6101e96105a7366004613d96565b600160a060020a031660009081526013602052604090205460ff1690565b6101e96105d3366004613d96565b600160a060020a03166000908152600c602052604090205460ff1690565b6101e96105ff366004613d96565b600160a060020a03166000908152600f602052604090205460ff1690565b6101e961062b366004613d96565b600160a060020a031660009081526009602052604090205460ff1690565b60285460ff16156106785760405160e560020a62461bcd02815260040161066f906141ac565b60405180910390fd5b6028805460ff1916600117905561068e81611e1d565b6106ad5760405160e560020a62461bcd02815260040161066f906141e0565b6106b88383836137f9565b156106d85760405160e560020a62461bcd02815260040161066f9061420c565b60018084846040516106eb929190614240565b9081526040805160209281900383018120600160a060020a03861660009081529352908220805460ff1916931515939093179092559061072e9085908590614240565b90815260405160209181900382019020805460018101825560009182529181209091018054600160a060020a031916600160a060020a03841617905560028054916107788361426a565b90915550506028805460ff19169055505050565b60285460ff16156107b25760405160e560020a62461bcd02815260040161066f906141ac565b6028805460ff1916600117905560008281036109115760005b60185481101561090b57816108f95782600160a060020a0316601882815481106107f7576107f7614283565b600091825260209091200154600160a060020a0316036108f9576018548110156108f9576018818154811061082e5761082e614283565b60009182526020909120018054600160a060020a0319169055601880546108579060019061429d565b8154811061086757610867614283565b60009182526020909120015460188054600160a060020a03909216918390811061089357610893614283565b9060005260206000200160006101000a815481600160a060020a030219169083600160a060020a0316021790555060188054806108d2576108d26142b0565b60008281526020902081016000199081018054600160a060020a0319169055019055600191505b806109038161426a565b9150506107cb565b50611dc7565b82600103610a5c5760005b60175481101561090b5781610a4a5782600160a060020a03166017828154811061094857610948614283565b600091825260209091200154600160a060020a031603610a4a57601754811015610a4a576017818154811061097f5761097f614283565b60009182526020909120018054600160a060020a0319169055601780546109a89060019061429d565b815481106109b8576109b8614283565b60009182526020909120015460178054600160a060020a0390921691839081106109e4576109e4614283565b9060005260206000200160006101000a815481600160a060020a030219169083600160a060020a031602179055506017805480610a2357610a236142b0565b60008281526020902081016000199081018054600160a060020a0319169055019055600191505b80610a548161426a565b91505061091c565b82600203610ba75760005b60195481101561090b5781610b955782600160a060020a031660198281548110610a9357610a93614283565b600091825260209091200154600160a060020a031603610b9557601954811015610b955760198181548110610aca57610aca614283565b60009182526020909120018054600160a060020a031916905560198054610af39060019061429d565b81548110610b0357610b03614283565b60009182526020909120015460198054600160a060020a039092169183908110610b2f57610b2f614283565b9060005260206000200160006101000a815481600160a060020a030219169083600160a060020a031602179055506019805480610b6e57610b6e6142b0565b60008281526020902081016000199081018054600160a060020a0319169055019055600191505b80610b9f8161426a565b915050610a67565b82600303610cf25760005b601a5481101561090b5781610ce05782600160a060020a0316601a8281548110610bde57610bde614283565b600091825260209091200154600160a060020a031603610ce057601a54811015610ce057601a8181548110610c1557610c15614283565b60009182526020909120018054600160a060020a0319169055601a8054610c3e9060019061429d565b81548110610c4e57610c4e614283565b600091825260209091200154601a8054600160a060020a039092169183908110610c7a57610c7a614283565b9060005260206000200160006101000a815481600160a060020a030219169083600160a060020a03160217905550601a805480610cb957610cb96142b0565b60008281526020902081016000199081018054600160a060020a0319169055019055600191505b80610cea8161426a565b915050610bb2565b82600403610e3d5760005b601b5481101561090b5781610e2b5782600160a060020a0316601b8281548110610d2957610d29614283565b600091825260209091200154600160a060020a031603610e2b57601b54811015610e2b57601b8181548110610d6057610d60614283565b60009182526020909120018054600160a060020a0319169055601b8054610d899060019061429d565b81548110610d9957610d99614283565b600091825260209091200154601b8054600160a060020a039092169183908110610dc557610dc5614283565b9060005260206000200160006101000a815481600160a060020a030219169083600160a060020a03160217905550601b805480610e0457610e046142b0565b60008281526020902081016000199081018054600160a060020a0319169055019055600191505b80610e358161426a565b915050610cfd565b82600503610f885760005b601c5481101561090b5781610f765782600160a060020a0316601c8281548110610e7457610e74614283565b600091825260209091200154600160a060020a031603610f7657601c54811015610f7657601c8181548110610eab57610eab614283565b60009182526020909120018054600160a060020a0319169055601c8054610ed49060019061429d565b81548110610ee457610ee4614283565b600091825260209091200154601c8054600160a060020a039092169183908110610f1057610f10614283565b9060005260206000200160006101000a815481600160a060020a030219169083600160a060020a03160217905550601c805480610f4f57610f4f6142b0565b60008281526020902081016000199081018054600160a060020a0319169055019055600191505b80610f808161426a565b915050610e48565b826006036110d35760005b601e5481101561090b57816110c15782600160a060020a0316601e8281548110610fbf57610fbf614283565b600091825260209091200154600160a060020a0316036110c157601e548110156110c157601e8181548110610ff657610ff6614283565b60009182526020909120018054600160a060020a0319169055601e805461101f9060019061429d565b8154811061102f5761102f614283565b600091825260209091200154601e8054600160a060020a03909216918390811061105b5761105b614283565b9060005260206000200160006101000a815481600160a060020a030219169083600160a060020a03160217905550601e80548061109a5761109a6142b0565b60008281526020902081016000199081018054600160a060020a0319169055019055600191505b806110cb8161426a565b915050610f93565b8260070361121e5760005b601d5481101561090b578161120c5782600160a060020a0316601d828154811061110a5761110a614283565b600091825260209091200154600160a060020a03160361120c57601d5481101561120c57601d818154811061114157611141614283565b60009182526020909120018054600160a060020a0319169055601d805461116a9060019061429d565b8154811061117a5761117a614283565b600091825260209091200154601d8054600160a060020a0390921691839081106111a6576111a6614283565b9060005260206000200160006101000a815481600160a060020a030219169083600160a060020a03160217905550601d8054806111e5576111e56142b0565b60008281526020902081016000199081018054600160a060020a0319169055019055600191505b806112168161426a565b9150506110de565b826008036113695760005b601f5481101561090b57816113575782600160a060020a0316601f828154811061125557611255614283565b600091825260209091200154600160a060020a03160361135757601f5481101561135757601f818154811061128c5761128c614283565b60009182526020909120018054600160a060020a0319169055601f80546112b59060019061429d565b815481106112c5576112c5614283565b600091825260209091200154601f8054600160a060020a0390921691839081106112f1576112f1614283565b9060005260206000200160006101000a815481600160a060020a030219169083600160a060020a03160217905550601f805480611330576113306142b0565b60008281526020902081016000199081018054600160a060020a0319169055019055600191505b806113618161426a565b915050611229565b826009036114b85760005b60205481101561090b57816114a65782600160a060020a0316602082815481106113a0576113a0614283565b600091825260209091200154600160a060020a0316036114a6576020548110156114a657602081815481106113d7576113d7614283565b6000918252602091829020018054600160a060020a031916905580546113ff9060019061429d565b8154811061140f5761140f614283565b9060005260206000200160009054906101000a9004600160a060020a03166020828154811061144057611440614283565b9060005260206000200160006101000a815481600160a060020a030219169083600160a060020a03160217905550602080548061147f5761147f6142b0565b60008281526020902081016000199081018054600160a060020a0319169055019055600191505b806114b08161426a565b915050611374565b82600a036116035760005b60215481101561090b57816115f15782600160a060020a0316602182815481106114ef576114ef614283565b600091825260209091200154600160a060020a0316036115f1576021548110156115f1576021818154811061152657611526614283565b60009182526020909120018054600160a060020a03191690556021805461154f9060019061429d565b8154811061155f5761155f614283565b60009182526020909120015460218054600160a060020a03909216918390811061158b5761158b614283565b9060005260206000200160006101000a815481600160a060020a030219169083600160a060020a0316021790555060218054806115ca576115ca6142b0565b60008281526020902081016000199081018054600160a060020a0319169055019055600191505b806115fb8161426a565b9150506114c3565b82600b0361174e5760005b60225481101561090b578161173c5782600160a060020a03166022828154811061163a5761163a614283565b600091825260209091200154600160a060020a03160361173c5760225481101561173c576022818154811061167157611671614283565b60009182526020909120018054600160a060020a03191690556022805461169a9060019061429d565b815481106116aa576116aa614283565b60009182526020909120015460228054600160a060020a0390921691839081106116d6576116d6614283565b9060005260206000200160006101000a815481600160a060020a030219169083600160a060020a031602179055506022805480611715576117156142b0565b60008281526020902081016000199081018054600160a060020a0319169055019055600191505b806117468161426a565b91505061160e565b82600c036118995760005b60235481101561090b57816118875782600160a060020a03166023828154811061178557611785614283565b600091825260209091200154600160a060020a0316036118875760235481101561188757602381815481106117bc576117bc614283565b60009182526020909120018054600160a060020a0319169055602380546117e59060019061429d565b815481106117f5576117f5614283565b60009182526020909120015460238054600160a060020a03909216918390811061182157611821614283565b9060005260206000200160006101000a815481600160a060020a030219169083600160a060020a031602179055506023805480611860576118606142b0565b60008281526020902081016000199081018054600160a060020a0319169055019055600191505b806118918161426a565b915050611759565b82600d036119e45760005b60245481101561090b57816119d25782600160a060020a0316602482815481106118d0576118d0614283565b600091825260209091200154600160a060020a0316036119d2576024548110156119d2576024818154811061190757611907614283565b60009182526020909120018054600160a060020a0319169055602480546119309060019061429d565b8154811061194057611940614283565b60009182526020909120015460248054600160a060020a03909216918390811061196c5761196c614283565b9060005260206000200160006101000a815481600160a060020a030219169083600160a060020a0316021790555060248054806119ab576119ab6142b0565b60008281526020902081016000199081018054600160a060020a0319169055019055600191505b806119dc8161426a565b9150506118a4565b82600e03611b2f5760005b60265481101561090b5781611b1d5782600160a060020a031660268281548110611a1b57611a1b614283565b600091825260209091200154600160a060020a031603611b1d57602654811015611b1d5760268181548110611a5257611a52614283565b60009182526020909120018054600160a060020a031916905560268054611a7b9060019061429d565b81548110611a8b57611a8b614283565b60009182526020909120015460268054600160a060020a039092169183908110611ab757611ab7614283565b9060005260206000200160006101000a815481600160a060020a030219169083600160a060020a031602179055506026805480611af657611af66142b0565b60008281526020902081016000199081018054600160a060020a0319169055019055600191505b80611b278161426a565b9150506119ef565b82600f03611c7a5760005b60275481101561090b5781611c685782600160a060020a031660278281548110611b6657611b66614283565b600091825260209091200154600160a060020a031603611c6857602754811015611c685760278181548110611b9d57611b9d614283565b60009182526020909120018054600160a060020a031916905560278054611bc69060019061429d565b81548110611bd657611bd6614283565b60009182526020909120015460278054600160a060020a039092169183908110611c0257611c02614283565b9060005260206000200160006101000a815481600160a060020a030219169083600160a060020a031602179055506027805480611c4157611c416142b0565b60008281526020902081016000199081018054600160a060020a0319169055019055600191505b80611c728161426a565b915050611b3a565b82606303611dc75760005b602554811015611dc55781611db35782600160a060020a031660258281548110611cb157611cb1614283565b600091825260209091200154600160a060020a031603611db357602554811015611db35760258181548110611ce857611ce8614283565b60009182526020909120018054600160a060020a031916905560258054611d119060019061429d565b81548110611d2157611d21614283565b60009182526020909120015460258054600160a060020a039092169183908110611d4d57611d4d614283565b9060005260206000200160006101000a815481600160a060020a030219169083600160a060020a031602179055506025805480611d8c57611d8c6142b0565b60008281526020902081016000199081018054600160a060020a0319169055019055600191505b80611dbd8161426a565b915050611c85565b505b50506028805460ff1916905550565b81516020818401810180516000825292820191850191909120919052805482908110611e0157600080fd5b600091825260209091200154600160a060020a03169150829050565b600160a060020a031660009081526003602052604090205460a060020a900460ff1690565b60285460ff1615611e685760405160e560020a62461bcd02815260040161066f906141ac565b6028805460ff199081166001178255600160a060020a039092166000908152600360205260409020805460a060020a60ff021916905580549091169055565b606060008383604051611ebb929190614240565b9081526040805191829003602090810183208054808302850183019093528284529190830182828015611f1757602002820191906000526020600020905b8154600160a060020a03168152600190910190602001808311611ef9575b505050505090505b92915050565b600160a060020a0381166000908152600360205260409020600101805460609190611f4f906142ca565b80601f0160208091040260200160405190810160405280929190818152602001828054611f7b906142ca565b8015611fc85780601f10611f9d57610100808354040283529160200191611fc8565b820191906000526020600020905b815481529060010190602001808311611fab57829003601f168201915b50505050509050919050565b6000611fe18484846137f9565b949350505050565b60285460ff161561200f5760405160e560020a62461bcd02815260040161066f906141ac565b6028805460ff19166001179055600160a060020a03831660009081526003602052604090205460a060020a900460ff161561205f5760405160e560020a62461bcd02815260040161066f9061420c565b600082600103612149576120cd60178054806020026020016040519081016040528092919081815260200182805480156120c257602002820191906000526020600020905b8154600160a060020a031681526001909101906020018083116120a4575b505050505085613c7a565b61211d57601780546001810182556000919091527fc624b66cc0138b8fabc209247f72d758e1cf3343756d543badbf24212bed8c15018054600160a060020a031916600160a060020a0386161790555b50600160a060020a0383166000908152600560205260409020805460ff19166001908117909155612fd7565b8260020361222f576121b360198054806020026020016040519081016040528092919081815260200182805480156120c257602002820191906000526020600020908154600160a060020a031681526001909101906020018083116120a457505050505085613c7a565b61220357601980546001810182556000919091527f944998273e477b495144fb8794c914197f3ccb46be2900f4698fd0ef743c9695018054600160a060020a031916600160a060020a0386161790555b50600160a060020a0383166000908152600760205260409020805460ff19166001908117909155612fd7565b8260030361231557612299601a8054806020026020016040519081016040528092919081815260200182805480156120c257602002820191906000526020600020908154600160a060020a031681526001909101906020018083116120a457505050505085613c7a565b6122e957601a80546001810182556000919091527f057c384a7d1c54f3a1b2e5e67b2617b8224fdfd1ea7234eea573a6ff665ff63e018054600160a060020a031916600160a060020a0386161790555b50600160a060020a0383166000908152600860205260409020805460ff19166001908117909155612fd7565b826004036124345761237f601b8054806020026020016040519081016040528092919081815260200182805480156120c257602002820191906000526020600020908154600160a060020a031681526001909101906020018083116120a457505050505085613c7a565b6123cf57601b80546001810182556000919091527f3ad8aa4f87544323a9d1e5dd902f40c356527a7955687113db5f9a85ad579dc1018054600160a060020a031916600160a060020a0386161790555b50600160a060020a03831660009081526009602052604090819020805460ff1916600190811790915590517f1e9fcacb7052d8badc53a7061f6dc79beafe00b872cc7d0a57c541023eb9eabc90612427908690613ece565b60405180910390a1612fd7565b8260050361251a5761249e601c8054806020026020016040519081016040528092919081815260200182805480156120c257602002820191906000526020600020908154600160a060020a031681526001909101906020018083116120a457505050505085613c7a565b6124ee57601c80546001810182556000919091527f0e4562a10381dec21b205ed72637e6b1b523bdd0e4d4d50af5cd23dd4500a211018054600160a060020a031916600160a060020a0386161790555b50600160a060020a0383166000908152600a60205260409020805460ff19166001908117909155612fd7565b8260060361260057612584601e8054806020026020016040519081016040528092919081815260200182805480156120c257602002820191906000526020600020908154600160a060020a031681526001909101906020018083116120a457505050505085613c7a565b6125d457601e80546001810182556000919091527f50bb669a95c7b50b7e8a6f09454034b2b14cf2b85c730dca9a539ca82cb6e350018054600160a060020a031916600160a060020a0386161790555b50600160a060020a0383166000908152600c60205260409020805460ff19166001908117909155612fd7565b826007036126e65761266a601d8054806020026020016040519081016040528092919081815260200182805480156120c257602002820191906000526020600020908154600160a060020a031681526001909101906020018083116120a457505050505085613c7a565b6126ba57601d80546001810182556000919091527f6d4407e7be21f808e6509aa9fa9143369579dd7d760fe20a2c09680fc146134f018054600160a060020a031916600160a060020a0386161790555b50600160a060020a0383166000908152600b60205260409020805460ff19166001908117909155612fd7565b826008036127cc57612750601f8054806020026020016040519081016040528092919081815260200182805480156120c257602002820191906000526020600020908154600160a060020a031681526001909101906020018083116120a457505050505085613c7a565b6127a057601f80546001810182556000919091527fa03837a25210ee280c2113ff4b77ca23440b19d4866cca721c801278fd08d807018054600160a060020a031916600160a060020a0386161790555b50600160a060020a0383166000908152600d60205260409020805460ff19166001908117909155612fd7565b826009036128b25761283660208054806020026020016040519081016040528092919081815260200182805480156120c257602002820191906000526020600020908154600160a060020a031681526001909101906020018083116120a457505050505085613c7a565b61288657602080546001810182556000919091527fc97bfaf2f8ee708c303a06d134f5ecd8389ae0432af62dc132a24118292866bb018054600160a060020a031916600160a060020a0386161790555b50600160a060020a0383166000908152600e60205260409020805460ff19166001908117909155612fd7565b82600a036129985761291c60218054806020026020016040519081016040528092919081815260200182805480156120c257602002820191906000526020600020908154600160a060020a031681526001909101906020018083116120a457505050505085613c7a565b61296c57602180546001810182556000919091527f3a6357012c1a3ae0a17d304c9920310382d968ebcc4b1771f41c6b304205b570018054600160a060020a031916600160a060020a0386161790555b50600160a060020a0383166000908152600f60205260409020805460ff19166001908117909155612fd7565b82600b03612a7e57612a0260228054806020026020016040519081016040528092919081815260200182805480156120c257602002820191906000526020600020908154600160a060020a031681526001909101906020018083116120a457505050505085613c7a565b612a5257602280546001810182556000919091527f61035b26e3e9eee00e0d72fd1ee8ddca6894550dca6916ea2ac6baa90d11e510018054600160a060020a031916600160a060020a0386161790555b50600160a060020a0383166000908152601060205260409020805460ff19166001908117909155612fd7565b82600c03612b6557612ae860238054806020026020016040519081016040528092919081815260200182805480156120c257602002820191906000526020600020908154600160a060020a031681526001909101906020018083116120a457505050505085613c7a565b15612b3957602380546001810182556000919091527fd57b2b5166478fd4318d2acc6cc2c704584312bdd8781b32d5d06abda57f4230018054600160a060020a031916600160a060020a0386161790555b50600160a060020a0383166000908152601160205260409020805460ff19166001908117909155612fd7565b82600d03612c4b57612bcf60248054806020026020016040519081016040528092919081815260200182805480156120c257602002820191906000526020600020908154600160a060020a031681526001909101906020018083116120a457505050505085613c7a565b612c1f57602480546001810182556000919091527f7cd332d19b93bcabe3cce7ca0c18a052f57e5fd03b4758a09f30f5ddc4b22ec4018054600160a060020a031916600160a060020a0386161790555b50600160a060020a0383166000908152601260205260409020805460ff19166001908117909155612fd7565b82600e03612d3157612cb560268054806020026020016040519081016040528092919081815260200182805480156120c257602002820191906000526020600020908154600160a060020a031681526001909101906020018083116120a457505050505085613c7a565b612d0557602680546001810182556000919091527f744a2cf8fd7008e3d53b67916e73460df9fa5214e3ef23dd4259ca09493a3594018054600160a060020a031916600160a060020a0386161790555b50600160a060020a0383166000908152601460205260409020805460ff19166001908117909155612fd7565b82606303612e1757612d9b60258054806020026020016040519081016040528092919081815260200182805480156120c257602002820191906000526020600020908154600160a060020a031681526001909101906020018083116120a457505050505085613c7a565b612deb57602580546001810182556000919091527f401968ff42a154441da5f6c4c935ac46b8671f0e062baaa62a7545ba53bb6e4c018054600160a060020a031916600160a060020a0386161790555b50600160a060020a0383166000908152601360205260409020805460ff19166001908117909155612fd7565b82600f03612efd57612e8160278054806020026020016040519081016040528092919081815260200182805480156120c257602002820191906000526020600020908154600160a060020a031681526001909101906020018083116120a457505050505085613c7a565b612ed157602780546001810182556000919091527f98a476f1687bc3d60a2da2adbcba2c46958e61fa2fb4042cd7bc5816a710195b018054600160a060020a031916600160a060020a0386161790555b50600160a060020a0383166000908152601560205260409020805460ff19166001908117909155612fd7565b612f5f60188054806020026020016040519081016040528092919081815260200182805480156120c257602002820191906000526020600020908154600160a060020a031681526001909101906020018083116120a457505050505085613c7a565b612faf57601880546001810182556000919091527fb13d2d76d1f4b7be834882e410b3e3a8afaf69f83600ae24db354391d2378d2e018054600160a060020a031916600160a060020a0386161790555b50600160a060020a0383166000908152600660205260409020805460ff191660019081179091555b801561309d5760408051608081018252600160a060020a0380871680835260016020808501828152858701898152606087018b90526000948552600390925295909220845181549651151560a060020a02600160a860020a03199097169416939093179490941782555191929091908201906130539082614357565b50606082015181600201559050507fac7ff9e4a38bec2164d6a1f8ce6002a6abd727321a2bea11825d566713243ce98484846040516130949392919061441c565b60405180910390a15b50506028805460ff191690555050565b60285460ff16156130d35760405160e560020a62461bcd02815260040161066f906141ac565b6028805460ff191660011790556130e981611e1d565b6131085760405160e560020a62461bcd02815260040161066f906141e0565b6131138383836137f9565b15156001146131655760405160e560020a62461bcd0281526020600482015260186024820152604060020a77696e766573746f7220646f6573206e6f742065786973747302604482015260640161066f565b600060018484604051613179929190614240565b9081526040805160209281900383019020600160a060020a038516600090815292528120805460ff191692151592909217909155805b6002548110156133b757816133a55782600160a060020a0316600086866040516131da929190614240565b908152602001604051809103902082815481106131f9576131f9614283565b600091825260209091200154600160a060020a0316036133a55760008585604051613225929190614240565b908152604051908190036020019020548110156133a5576000858560405161324e929190614240565b9081526020016040518091039020818154811061326d5761326d614283565b600091825260208220018054600160a060020a03191690556040516132959087908790614240565b90815260200160405180910390206001600087876040516132b7929190614240565b908152604051908190036020019020546132d1919061429d565b815481106132e1576132e1614283565b6000918252602082200154604051600160a060020a0390911691906133099088908890614240565b9081526020016040518091039020828154811061332857613328614283565b600091825260208220018054600160a060020a031916600160a060020a0393909316929092179091556040516133619087908790614240565b908152602001604051809103902080548061337e5761337e6142b0565b60008281526020902081016000199081018054600160a060020a0319169055019055600191505b806133af8161426a565b9150506131af565b508061309d5760405160e560020a62461bcd02815260206004820152601f60248201527f696e766573746f72206e6f742061737369676e656420746f2073796d626f6c00604482015260640161066f565b600160a060020a03818116600090815260036020526040812080546002820154600190920180549394859460609486949283169360a060020a90930460ff1692918290613454906142ca565b80601f0160208091040260200160405190810160405280929190818152602001828054613480906142ca565b80156134cd5780601f106134a2576101008083540402835291602001916134cd565b820191906000526020600020905b8154815290600101906020018083116134b057829003601f168201915b5050505050915093509350935093509193509193565b606080606080606080606080601b601e601d602060216022602660278780548060200260200160405190810160405280929190818152602001828054801561355457602002820191906000526020600020905b8154600160a060020a03168152600190910190602001808311613536575b50505050509750868054806020026020016040519081016040528092919081815260200182805480156135b057602002820191906000526020600020905b8154600160a060020a03168152600190910190602001808311613592575b505050505096508580548060200260200160405190810160405280929190818152602001828054801561360c57602002820191906000526020600020905b8154600160a060020a031681526001909101906020018083116135ee575b505050505095508480548060200260200160405190810160405280929190818152602001828054801561366857602002820191906000526020600020905b8154600160a060020a0316815260019091019060200180831161364a575b50505050509450838054806020026020016040519081016040528092919081815260200182805480156136c457602002820191906000526020600020905b8154600160a060020a031681526001909101906020018083116136a6575b505050505093508280548060200260200160405190810160405280929190818152602001828054801561372057602002820191906000526020600020905b8154600160a060020a03168152600190910190602001808311613702575b505050505092508180548060200260200160405190810160405280929190818152602001828054801561377c57602002820191906000526020600020905b8154600160a060020a0316815260019091019060200180831161375e575b50505050509150808054806020026020016040519081016040528092919081815260200182805480156137d857602002820191906000526020600020905b8154600160a060020a031681526001909101906020018083116137ba575b50505050509050975097509750975097509750975097509091929394959697565b60006001848460405161380d929190614240565b90815260408051918290036020908101909220600160a060020a0385166000908152925290205460ff1690509392505050565b6060806060806060806060601860176019601a601c601f6023868054806020026020016040519081016040528092919081815260200182805480156138ae57602002820191906000526020600020905b8154600160a060020a03168152600190910190602001808311613890575b505050505096508580548060200260200160405190810160405280929190818152602001828054801561390a57602002820191906000526020600020905b8154600160a060020a031681526001909101906020018083116138ec575b505050505095508480548060200260200160405190810160405280929190818152602001828054801561396657602002820191906000526020600020905b8154600160a060020a03168152600190910190602001808311613948575b50505050509450838054806020026020016040519081016040528092919081815260200182805480156139c257602002820191906000526020600020905b8154600160a060020a031681526001909101906020018083116139a4575b5050505050935082805480602002602001604051908101604052809291908181526020018280548015613a1e57602002820191906000526020600020905b8154600160a060020a03168152600190910190602001808311613a00575b5050505050925081805480602002602001604051908101604052809291908181526020018280548015613a7a57602002820191906000526020600020905b8154600160a060020a03168152600190910190602001808311613a5c575b5050505050915080805480602002602001604051908101604052809291908181526020018280548015613ad657602002820191906000526020600020905b8154600160a060020a03168152600190910190602001808311613ab8575b50505050509050965096509650965096509650965090919293949596565b60036020526000908152604090208054600182018054600160a060020a0383169360a060020a90930460ff16929190613b2c906142ca565b80601f0160208091040260200160405190810160405280929190818152602001828054613b58906142ca565b8015613ba55780601f10613b7a57610100808354040283529160200191613ba5565b820191906000526020600020905b815481529060010190602001808311613b8857829003601f168201915b5050505050908060020154905084565b60285460ff1615613bdb5760405160e560020a62461bcd02815260040161066f906141ac565b6028805460ff19166001179055613bf181611e1d565b15613c3a5760405160e560020a62461bcd0281526020600482015260136024820152606a60020a72185b1c9958591e481dda1a5d195b1a5cdd195902604482015260640161066f565b600160a060020a031660008181526003602052604081208054600160a860020a03191690921760a060020a1782556002909101556028805460ff19169055565b6000805b8351811015613cd55782600160a060020a0316848281518110613ca357613ca3614283565b6020026020010151600160a060020a031603613cc3576001915050611f1f565b80613ccd8161426a565b915050613c7e565b5060009392505050565b60008083601f840112613cf157600080fd5b5081356001604060020a03811115613d0857600080fd5b602083019150836020828501011115613d2057600080fd5b9250929050565b8035600160a060020a0381168114613d3e57600080fd5b919050565b600080600060408486031215613d5857600080fd5b83356001604060020a03811115613d6e57600080fd5b613d7a86828701613cdf565b9094509250613d8d905060208501613d27565b90509250925092565b600060208284031215613da857600080fd5b613db182613d27565b9392505050565b60008060408385031215613dcb57600080fd5b82359150613ddb60208401613d27565b90509250929050565b60e060020a634e487b710260009081526041600452602490fd5b600082601f830112613e0f57600080fd5b81356001604060020a0380821115613e2957613e29613de4565b604051601f8301601f19908116603f01168101908282118183101715613e5157613e51613de4565b81604052838152866020858801011115613e6a57600080fd5b836020870160208301376000602085830101528094505050505092915050565b60008060408385031215613e9d57600080fd5b82356001604060020a03811115613eb357600080fd5b613ebf85828601613dfe565b95602094909401359450505050565b600160a060020a0391909116815260200190565b60008060208385031215613ef557600080fd5b82356001604060020a03811115613f0b57600080fd5b613f1785828601613cdf565b90969095509350505050565b600081518084526020808501945080840160005b83811015613f5c578151600160a060020a031687529582019590820190600101613f37565b509495945050505050565b602081526000613db16020830184613f23565b6000815180845260005b81811015613fa057602081850181015186830182015201613f84565b506000602082860101526020601f19601f83011685010191505092915050565b602081526000613db16020830184613f7a565b600080600060608486031215613fe857600080fd5b613ff184613d27565b92506020840135915060408401356001604060020a0381111561401357600080fd5b61401f86828701613dfe565b9150509250925092565b600160a060020a0385168152831515602082015260806040820181905260009061405590830185613f7a565b905082606083015295945050505050565b600061010080835261407a8184018c613f23565b9050828103602084015261408e818b613f23565b905082810360408401526140a2818a613f23565b905082810360608401526140b68189613f23565b905082810360808401526140ca8188613f23565b905082810360a08401526140de8187613f23565b905082810360c08401526140f28186613f23565b905082810360e08401526141068185613f23565b9b9a5050505050505050505050565b60e08152600061412860e083018a613f23565b828103602084015261413a818a613f23565b9050828103604084015261414e8189613f23565b905082810360608401526141628188613f23565b905082810360808401526141768187613f23565b905082810360a084015261418a8186613f23565b905082810360c084015261419e8185613f23565b9a9950505050505050505050565b6020808252601790820152604a60020a761499595b9d1c985b9d0818d85b1b0819195d1958dd195902604082015260600190565b6020808252600f90820152608a60020a6e1b9bdd081dda1a5d195b1a5cdd195902604082015260600190565b6020808252601790820152604860020a76696e766573746f7220616c72656164792065786973747302604082015260600190565b8183823760009101908152919050565b60e060020a634e487b710260009081526011600452602490fd5b60006001820161427c5761427c614250565b5060010190565b60e060020a634e487b710260009081526032600452602490fd5b81810381811115611f1f57611f1f614250565b60e060020a634e487b710260009081526031600452602490fd5b6002810460018216806142de57607f821691505b6020821081036143025760e060020a634e487b710260009081526022600452602490fd5b50919050565b601f821115614352576000818152602081206020601f8601048101602086101561432f5750805b6020601f860104820191505b8181101561434e5782815560010161433b565b5050505b505050565b81516001604060020a0381111561437057614370613de4565b6143848161437e84546142ca565b84614308565b602080601f8311600181146143bd57600084156143a15750858301515b60028086026008870290910a600019041982161786555061434e565b600085815260208120601f198616915b828110156143ec578886015182559484019460019091019084016143cd565b508582101561440c57878501516008601f88160260020a60001904191681555b5050505050600202600101905550565b600160a060020a03841681528260208201526060604082015260006144446060830184613f7a565b9594505050505056fea26469706673582212208f176ea7a5599b02a8f490806f440c4606f2412d3e0ace0f126f0af2f21e8dd864736f6c63430008120033",
  "immutableReferences": {},
  "source": "// SPDX-License-Identifier: BSL-1.1\npragma solidity >=0.4.22 <0.9.0;\n\nimport \"../../interfaces/IInvestorManager.sol\";\nimport \"../../libs/InvestorManagerLibrary.sol\";\n\ncontract InvestorManager is IInvestorManager {\n    using InvestorManagerLibrary for *;\n\n    mapping(string => address[]) public investors;\n    mapping(string => mapping(address => bool)) private investorExists;\n    uint256 private investorCount = 0;\n\n    mapping(address => InvestorManagerLibrary.INVESTOR) public whitelisted;\n\n    mapping(address => bool) private accreditedInvestors;\n    mapping(address => bool) private accredited_investors;\n    mapping(address => bool) private nonaccredited_investors;\n    mapping(address => bool) private affiliate_investors;\n    mapping(address => bool) private broker_dealers;\n    mapping(address => bool) private transfer_agents;\n    mapping(address => bool) private institutions;\n    mapping(address => bool) private municipalities;\n    mapping(address => bool) private banks;\n    mapping(address => bool) private investment_companies;\n    mapping(address => bool) private nonprofitentities;\n    mapping(address => bool) private churches;\n    mapping(address => bool) private lenders;\n    mapping(address => bool) private trusts;\n    mapping(address => bool) private issuers;\n    mapping(address => bool) private borrowers;\n    mapping(address => bool) private municipalAdvisors;\n    mapping(address => bool) private cfportals;\n\n    address[] private _accreditedInvestors;\n    address[] private _accredited_investors;\n    address[] private _nonaccredited_investors;\n    address[] private _affiliate_investors;\n    address[] private _broker_dealers;\n    address[] private _transfer_agents;\n    address[] private _institutions;\n    address[] private _municipalities;\n    address[] private _banks;\n    address[] private _investment_companies;\n    address[] private _nonprofitentities;\n    address[] private _churches;\n    address[] private _lenders;\n    address[] private _trusts;\n    address[] private _issuers;\n    address[] private _borrowers;\n    address[] private _municipalAdvisors;\n    address[] private _cfportals;\n\n    // Variable to track reentrant calls\n    bool private reentrantGuard;\n\n    address public owner;\n\n    constructor() {\n        owner = msg.sender;\n    }\n\n    modifier nonReentrant() {\n        require(!reentrantGuard, \"Reentrant call detected\");\n        reentrantGuard = true;\n        _;\n        reentrantGuard = false;\n    }\n\n    // Add functions for investor management here\n    function isWhitelisted(address wallet) public view  returns (bool) {\n        return whitelisted[wallet].active;\n    }\n\n    function findInvestor(string calldata symbol,address wallet) public view returns (bool) {\n        return investorExists[symbol][wallet];\n    }\n    function findInvestor(address[] memory _investors,address wallet) internal pure returns (bool) {\n        for(uint256 i=0; i<_investors.length; i++) {\n            if (_investors[i] == wallet) {\n                return true;\n            }\n        }\n        return false;\n    }\n\n    function addInvestor(address wallet) external nonReentrant {\n        require(!isWhitelisted(wallet),\"already whitelisted\");\n        whitelisted[wallet].wallet = wallet;\n        whitelisted[wallet].active = true;\n        whitelisted[wallet].level = 0; // default to non-accredited\n    }\n\n    function addInvestor(string calldata symbol,address wallet) external nonReentrant {\n        require(isWhitelisted(wallet),\"not whitelisted\");\n        require(findInvestor(symbol, wallet) == false,\"investor already exists\");\n        investorExists[symbol][wallet] = true;\n        investors[symbol].push(wallet);\n        investorCount++;\n        //emit InvestorAdded(wallet, investor_type, jurisdiction);\n    }\n\n    function getInvestorsBySymbol(string calldata symbol) external view returns (address[] memory) {\n        return investors[symbol];\n    }\n\n    function isInvestor(string calldata symbol,address wallet) external view  returns(bool) {\n        return findInvestor(symbol, wallet);\n    }\n\n    function removeInvestor(address wallet) external nonReentrant {\n        //require(isWhitelisted(wallet),\"not whitelisted\");\n        whitelisted[wallet].active = false;\n    }\n\n    function removeInvestorBySymbol(string calldata symbol,address wallet) external nonReentrant {\n        require(isWhitelisted(wallet),\"not whitelisted\");\n        require(findInvestor(symbol, wallet) == true,\"investor does not exists\");\n        investorExists[symbol][wallet] = false;\n        bool found = false;\n        for(uint256 i=0; i<investorCount; i++) { \n            if (!found) {\n                if (investors[symbol][i] == wallet) {\n                    if (i < investors[symbol].length) {\n                        delete investors[symbol][i];\n                        investors[symbol][i] = investors[symbol][investors[symbol].length - 1];\n                        investors[symbol].pop();\n                        found = true;\n                    }\n                }\n            }\n        }\n        require(found,\"investor not assigned to symbol\");\n    }\n\n    function removeInvestor(uint256 investor_type,address wallet) external nonReentrant {\n        bool found = false;\n\n        if (investor_type == 0) {\n            for (uint256 i=0; i<_nonaccredited_investors.length; i++) {\n                if (!found) {\n                    if (_nonaccredited_investors[i] == wallet) {\n                        if (i < _nonaccredited_investors.length) {\n                            delete _nonaccredited_investors[i];\n                            _nonaccredited_investors[i] = _nonaccredited_investors[_nonaccredited_investors.length - 1];\n                            _nonaccredited_investors.pop();\n                            found = true;\n                        }\n                    }\n                }\n            }\n        } else if (investor_type == 1) {\n            for (uint256 i=0; i<_accredited_investors.length; i++) {\n                if (!found) {\n                    if (_accredited_investors[i] == wallet) {\n                        if (i < _accredited_investors.length) {\n                            delete _accredited_investors[i];\n                            _accredited_investors[i] = _accredited_investors[_accredited_investors.length - 1];\n                            _accredited_investors.pop();\n                            found = true;\n                        }\n                    }\n                }\n            }\n        } else if (investor_type == 2) {\n            for (uint256 i=0; i<_affiliate_investors.length; i++) {\n                if (!found) {\n                    if (_affiliate_investors[i] == wallet) {\n                        if (i < _affiliate_investors.length) {\n                            delete _affiliate_investors[i];\n                            _affiliate_investors[i] = _affiliate_investors[_affiliate_investors.length - 1];\n                            _affiliate_investors.pop();\n                            found = true;\n                        }\n                    }\n                }\n            }\n        } else if (investor_type == 3) {\n            for (uint256 i=0; i<_broker_dealers.length; i++) {\n                if (!found) {\n                    if (_broker_dealers[i] == wallet) {\n                        if (i < _broker_dealers.length) {\n                            delete _broker_dealers[i];\n                            _broker_dealers[i] = _broker_dealers[_broker_dealers.length - 1];\n                            _broker_dealers.pop();\n                            found = true;\n                        }\n                    }\n                }\n            }\n        } else if (investor_type == 4) {\n            for (uint256 i=0; i<_transfer_agents.length; i++) {\n                if (!found) {\n                    if (_transfer_agents[i] == wallet) {\n                        if (i < _transfer_agents.length) {\n                            delete _transfer_agents[i];\n                            _transfer_agents[i] = _transfer_agents[_transfer_agents.length - 1];\n                            _transfer_agents.pop();\n                            found = true;\n                        }\n                    }\n                }\n            }\n        } else if (investor_type == 5) {\n            for (uint256 i=0; i<_institutions.length; i++) {\n                if (!found) {\n                    if (_institutions[i] == wallet) {\n                        if (i < _institutions.length) {\n                            delete _institutions[i];\n                            _institutions[i] = _institutions[_institutions.length - 1];\n                            _institutions.pop();\n                            found = true;\n                        }\n                    }\n                }\n            }\n        } else if (investor_type == 6) {\n            for (uint256 i=0; i<_banks.length; i++) {\n                if (!found) {\n                    if (_banks[i] == wallet) {\n                        if (i < _banks.length) {\n                            delete _banks[i];\n                            _banks[i] = _banks[_banks.length - 1];\n                            _banks.pop();\n                            found = true;\n                        }\n                    }\n                }\n            }\n        } else if (investor_type == 7) {\n            for (uint256 i=0; i<_municipalities.length; i++) {\n                if (!found) {\n                    if (_municipalities[i] == wallet) {\n                        if (i < _municipalities.length) {\n                            delete _municipalities[i];\n                            _municipalities[i] = _municipalities[_municipalities.length - 1];\n                            _municipalities.pop();\n                            found = true;\n                        }\n                    }\n                }\n            }\n        } else if (investor_type == 8) {\n            for (uint256 i=0; i<_investment_companies.length; i++) {\n                if (!found) {\n                    if (_investment_companies[i] == wallet) {\n                        if (i < _investment_companies.length) {\n                            delete _investment_companies[i];\n                            _investment_companies[i] = _investment_companies[_investment_companies.length - 1];\n                            _investment_companies.pop();\n                            found = true;\n                        }\n                    }\n                }\n            }\n        } else if (investor_type == 9) {\n            for (uint256 i=0; i<_nonprofitentities.length; i++) {\n                if (!found) {\n                    if (_nonprofitentities[i] == wallet) {\n                        if (i < _nonprofitentities.length) {\n                            delete _nonprofitentities[i];\n                            _nonprofitentities[i] = _nonprofitentities[_nonprofitentities.length - 1];\n                            _nonprofitentities.pop();\n                            found = true;\n                        }\n                    }\n                }\n            }\n        } else if (investor_type == 10) {\n            for (uint256 i=0; i<_churches.length; i++) {\n                if (!found) {\n                    if (_churches[i] == wallet) {\n                        if (i < _churches.length) {\n                            delete _churches[i];\n                            _churches[i] = _churches[_churches.length - 1];\n                            _churches.pop();\n                            found = true;\n                        }\n                    }\n                }\n            }\n        } else if (investor_type == 11) {\n            for (uint256 i=0; i<_lenders.length; i++) {\n                if (!found) {\n                    if (_lenders[i] == wallet) {\n                        if (i < _lenders.length) {\n                            delete _lenders[i];\n                            _lenders[i] = _lenders[_lenders.length - 1];\n                            _lenders.pop();\n                            found = true;\n                        }\n                    }\n                }\n            }\n        } else if (investor_type == 12) {\n            for (uint256 i=0; i<_trusts.length; i++) {\n                if (!found) {\n                    if (_trusts[i] == wallet) {\n                        if (i < _trusts.length) {\n                            delete _trusts[i];\n                            _trusts[i] = _trusts[_trusts.length - 1];\n                            _trusts.pop();\n                            found = true;\n                        }\n                    }\n                }\n            }\n        } else if (investor_type == 13) {\n            for (uint256 i=0; i<_issuers.length; i++) {\n                if (!found) {\n                    if (_issuers[i] == wallet) {\n                        if (i < _issuers.length) {\n                            delete _issuers[i];\n                            _issuers[i] = _issuers[_issuers.length - 1];\n                            _issuers.pop();\n                            found = true;\n                        }\n                    }\n                }\n            }\n        } else if (investor_type == 14) {\n            for (uint256 i=0; i<_municipalAdvisors.length; i++) {\n                if (!found) {\n                    if (_municipalAdvisors[i] == wallet) {\n                        if (i < _municipalAdvisors.length) {\n                            delete _municipalAdvisors[i];\n                            _municipalAdvisors[i] = _municipalAdvisors[_municipalAdvisors.length - 1];\n                            _municipalAdvisors.pop();\n                            found = true;\n                        }\n                    }\n                }\n            }\n        } else if (investor_type == 15) {\n            for (uint256 i=0; i<_cfportals.length; i++) {\n                if (!found) {\n                    if (_cfportals[i] == wallet) {\n                        if (i < _cfportals.length) {\n                            delete _cfportals[i];\n                            _cfportals[i] = _cfportals[_cfportals.length - 1];\n                            _cfportals.pop();\n                            found = true;\n                        }\n                    }\n                }\n            }\n        } else if (investor_type == 99) {\n            for (uint256 i=0; i<_borrowers.length; i++) {\n                if (!found) {\n                    if (_borrowers[i] == wallet) {\n                        if (i < _borrowers.length) {\n                            delete _borrowers[i];\n                            _borrowers[i] = _borrowers[_borrowers.length - 1];\n                            _borrowers.pop();\n                            found = true;\n                        }\n                    }\n                }\n            }\n        }\n    }\n\n    /**\n     * NON_ACCREDITED = 0,\n     * ACCREDITED = 1, \n     * AFFILIATE = 2, \n     * BROKER_DEALERS =  3, \n     * TRANSFER_AGENTS = 4, \n     * INSTITUTIONS = 5, \n     * BANKS = 6, \n     * MUNICIPALITIES = 7\n     * INVESTMENT COMPANY = 8\n     * NONPROFIT = 9\n     * CHURCH = 10\n     * LENDERS = 11\n     * TRUSTS = 12\n     * ISSUER = 13\n     * MUNICIPALITY ADVISOR = 14\n     * CFPORTALS = 15\n     */\n    function addInvestor(address investor, uint investor_type,string memory jurisdiction) external nonReentrant {\n        require(whitelisted[investor].active == false,\"investor already exists\");\n        bool investorAdded = false;\n\n        if (investor_type == 1) {\n            if (!findInvestor(_accredited_investors, investor)) {\n                _accredited_investors.push(investor);\n            }\n            accredited_investors[investor] = true;\n            investorAdded = true;\n        } else if (investor_type == 2) {\n            if (!findInvestor(_affiliate_investors, investor)) {\n                _affiliate_investors.push(investor);\n            }\n            affiliate_investors[investor] = true;\n            investorAdded = true;\n        } else if (investor_type == 3) {\n            if (!findInvestor(_broker_dealers, investor)) {\n                _broker_dealers.push(investor);\n            }\n            broker_dealers[investor] = true;\n            investorAdded = true;\n        } else if (investor_type == 4) {\n            if (!findInvestor(_transfer_agents, investor)) {\n                _transfer_agents.push(investor);\n            }\n            transfer_agents[investor] = true;\n            investorAdded = true;\n            emit TransferAgentAdded(investor);\n        } else if (investor_type == 5) {\n            if (!findInvestor(_institutions, investor)) {\n                _institutions.push(investor);\n            }\n            institutions[investor] = true;\n            investorAdded = true;\n        } else if (investor_type == 6) {\n            if (!findInvestor(_banks, investor)) {\n                _banks.push(investor);\n            }\n            banks[investor] = true;\n            investorAdded = true;\n        } else if (investor_type == 7) {\n            if (!findInvestor(_municipalities, investor)) {\n                _municipalities.push(investor);\n            }\n            municipalities[investor] = true;\n            investorAdded = true;\n        } else if (investor_type == 8) {\n            if (!findInvestor(_investment_companies, investor)) {\n                _investment_companies.push(investor);\n            }\n            investment_companies[investor] = true;\n            investorAdded = true;\n        } else if (investor_type == 9) {\n            if (!findInvestor(_nonprofitentities, investor)) {\n                _nonprofitentities.push(investor);\n            }\n            nonprofitentities[investor] = true;\n            investorAdded = true;\n        } else if (investor_type == 10) {\n            if (!findInvestor(_churches, investor)) {\n                _churches.push(investor);\n            }\n            churches[investor] = true;\n            investorAdded = true;\n        } else if (investor_type == 11) {\n            if (!findInvestor(_lenders, investor)) {\n                _lenders.push(investor);\n            }\n            lenders[investor] = true;\n            investorAdded = true;\n        } else if (investor_type == 12) {\n            if (findInvestor(_trusts, investor)) {\n                _trusts.push(investor);\n            }\n            trusts[investor] = true;\n            investorAdded = true;\n        } else if (investor_type == 13) {\n            if (!findInvestor(_issuers, investor)) {\n                _issuers.push(investor);\n            }\n            issuers[investor] = true;\n            investorAdded = true;\n        } else if (investor_type == 14) {\n            if (!findInvestor(_municipalAdvisors, investor)) {\n                _municipalAdvisors.push(investor);\n            }\n            municipalAdvisors[investor] = true;\n            investorAdded = true;\n        } else if (investor_type == 99) {\n            if (!findInvestor(_borrowers, investor)) {\n                _borrowers.push(investor);\n            }\n            borrowers[investor] = true;\n            investorAdded = true;\n        } else if (investor_type == 15) {\n            if (!findInvestor(_cfportals, investor)) {\n                _cfportals.push(investor);\n            }\n            cfportals[investor] = true;\n            investorAdded = true;\n        } else {\n            if (!findInvestor(_nonaccredited_investors, investor)){\n                _nonaccredited_investors.push(investor);\n            }\n            nonaccredited_investors[investor] = true;\n            investorAdded = true;\n        }\n\n        if (investorAdded) {\n            whitelisted[investor] = InvestorManagerLibrary.INVESTOR(investor,true,jurisdiction,investor_type);\n            emit InvestorAdded(investor, investor_type, jurisdiction);\n        }\n    }\n\n    function getInvestor(address wallet) external view  returns (address,bool,string memory,uint) {\n        return (whitelisted[wallet].wallet,whitelisted[wallet].active,whitelisted[wallet].jurisdiction,whitelisted[wallet].level);\n    }\n\n    function getInvestors()  external view  returns (address[] memory,address[] memory,address[] memory,address[] memory,address[] memory,address[] memory,address[] memory) {\n        return (_nonaccredited_investors,_accredited_investors,_affiliate_investors,_broker_dealers,_institutions,_investment_companies,_trusts); \n    }\n    function getIssuers()  external view  returns (address[] memory,address[] memory,address[] memory,address[] memory,address[] memory,address[] memory,address[] memory,address[] memory) {\n        return (_transfer_agents,_banks,_municipalities,_nonprofitentities,_churches,_lenders,_municipalAdvisors,_cfportals);\n    }\n    function getInvestorStatus(address wallet)  external view  returns (bool) {\n        return whitelisted[wallet].active;        \n    }\n    function getInvestorJurisdiction(address wallet)  external view  returns (string memory) {\n        return whitelisted[wallet].jurisdiction;\n    }\n    function getInvestorLevel(address wallet)  external view  returns (uint) {\n        return whitelisted[wallet].level;\n    }\n    function isAccredited(address wallet)  external view  returns (bool) {\n        return accredited_investors[wallet];\n    }\n    function isNonAccredited(address wallet)  external view  returns (bool) {\n        return nonaccredited_investors[wallet];\n    }\n    function isAffiliate(address wallet)  external view  returns (bool) {\n        return affiliate_investors[wallet];\n    }\n    function isBrokerDealer(address wallet)  external view  returns (bool) {\n        return broker_dealers[wallet];\n    }\n    function isTransferAgent(address wallet)  external view  returns (bool) {\n        return transfer_agents[wallet];\n    }\n    function isInstitution(address wallet)  external view  returns (bool) {\n        return institutions[wallet];\n    }\n    function isBank(address wallet)  external view  returns (bool) {\n        return banks[wallet];\n    }\n    function isInvestmentCompany(address wallet)  external view  returns (bool) {\n        return investment_companies[wallet];\n    }\n    function isNonProfitEntity(address wallet)  external view  returns (bool) {\n        return nonprofitentities[wallet];\n    }\n    function isChurch(address wallet)  external view  returns (bool) {\n        return churches[wallet];\n    }\n    function isLender(address wallet)  external view  returns (bool) {\n        return lenders[wallet];\n    }\n    function isVotingTrust(address wallet)  external view  returns (bool) {\n        return trusts[wallet];\n    }\n    function isBorrower(address wallet) external view  returns (bool) {\n        return borrowers[wallet];\n    }\n    function isIssuer(address wallet)  external view  returns (bool) {\n        return issuers[wallet];\n    }\n    function isMunicipalAdvisor(address wallet) external view returns (bool) {\n        return municipalAdvisors[wallet];\n    }\n    function isCFPortal(address wallet)  external view returns (bool) {\n        return cfportals[wallet];\n    }\n}\n",
  "sourcePath": "/Volumes/My Book/projects/pingleware-contracts/contracts/finance/elmx/InvestorManager.sol",
  "compiler": {
    "name": "solc",
    "version": "0.8.18+commit.87f61d96.Emscripten.clang"
  },
  "schemaVersion": "3.4.12",
  "updatedAt": "2023-10-26T11:37:09.109Z",
  "networkType": "ethereum",
  "devdoc": {
    "kind": "dev",
    "methods": {},
    "version": 1
  },
  "userdoc": {
    "kind": "user",
    "methods": {
      "addInvestor(address,uint256,string)": {
        "notice": "NON_ACCREDITED = 0, ACCREDITED = 1,  AFFILIATE = 2,  BROKER_DEALERS =  3,  TRANSFER_AGENTS = 4,  INSTITUTIONS = 5,  BANKS = 6,  MUNICIPALITIES = 7 INVESTMENT COMPANY = 8 NONPROFIT = 9 CHURCH = 10 LENDERS = 11 TRUSTS = 12 ISSUER = 13 MUNICIPALITY ADVISOR = 14 CFPORTALS = 15"
      }
    },
    "version": 1
  }
}