{
  "contractName": "Inventory",
  "abi": [
    {
      "inputs": [],
      "stateMutability": "nonpayable",
      "type": "constructor"
    },
    {
      "anonymous": false,
      "inputs": [
        {
          "indexed": false,
          "internalType": "address",
          "name": "sender",
          "type": "address"
        },
        {
          "indexed": false,
          "internalType": "uint256",
          "name": "amount",
          "type": "uint256"
        }
      ],
      "name": "FallbackEvent",
      "type": "event"
    },
    {
      "anonymous": false,
      "inputs": [
        {
          "indexed": true,
          "internalType": "address",
          "name": "previousOwner",
          "type": "address"
        },
        {
          "indexed": true,
          "internalType": "address",
          "name": "newOwner",
          "type": "address"
        }
      ],
      "name": "OwnershipTransferred",
      "type": "event"
    },
    {
      "anonymous": false,
      "inputs": [
        {
          "indexed": false,
          "internalType": "uint256",
          "name": "productId",
          "type": "uint256"
        },
        {
          "indexed": false,
          "internalType": "string",
          "name": "name",
          "type": "string"
        },
        {
          "indexed": false,
          "internalType": "uint256",
          "name": "price",
          "type": "uint256"
        },
        {
          "indexed": false,
          "internalType": "uint256",
          "name": "quantity",
          "type": "uint256"
        }
      ],
      "name": "ProductAdded",
      "type": "event"
    },
    {
      "anonymous": false,
      "inputs": [
        {
          "indexed": false,
          "internalType": "uint256",
          "name": "productId",
          "type": "uint256"
        },
        {
          "indexed": false,
          "internalType": "string",
          "name": "name",
          "type": "string"
        },
        {
          "indexed": false,
          "internalType": "uint256",
          "name": "price",
          "type": "uint256"
        },
        {
          "indexed": false,
          "internalType": "uint256",
          "name": "quantity",
          "type": "uint256"
        },
        {
          "indexed": false,
          "internalType": "bool",
          "name": "available",
          "type": "bool"
        }
      ],
      "name": "ProductUpdated",
      "type": "event"
    },
    {
      "anonymous": false,
      "inputs": [
        {
          "indexed": false,
          "internalType": "address",
          "name": "sender",
          "type": "address"
        },
        {
          "indexed": false,
          "internalType": "uint256",
          "name": "amount",
          "type": "uint256"
        }
      ],
      "name": "ReceiveEvent",
      "type": "event"
    },
    {
      "stateMutability": "payable",
      "type": "fallback",
      "payable": true
    },
    {
      "inputs": [],
      "name": "VERSION",
      "outputs": [
        {
          "internalType": "string",
          "name": "",
          "type": "string"
        }
      ],
      "stateMutability": "view",
      "type": "function",
      "constant": true
    },
    {
      "inputs": [],
      "name": "WAIT",
      "outputs": [
        {
          "internalType": "uint256",
          "name": "",
          "type": "uint256"
        }
      ],
      "stateMutability": "view",
      "type": "function",
      "constant": true
    },
    {
      "inputs": [],
      "name": "getOwner",
      "outputs": [
        {
          "internalType": "address",
          "name": "",
          "type": "address"
        }
      ],
      "stateMutability": "payable",
      "type": "function",
      "payable": true
    },
    {
      "inputs": [],
      "name": "owner",
      "outputs": [
        {
          "internalType": "address",
          "name": "",
          "type": "address"
        }
      ],
      "stateMutability": "view",
      "type": "function",
      "constant": true
    },
    {
      "inputs": [],
      "name": "productCount",
      "outputs": [
        {
          "internalType": "uint256",
          "name": "",
          "type": "uint256"
        }
      ],
      "stateMutability": "view",
      "type": "function",
      "constant": true
    },
    {
      "inputs": [
        {
          "internalType": "uint256",
          "name": "",
          "type": "uint256"
        }
      ],
      "name": "products",
      "outputs": [
        {
          "internalType": "string",
          "name": "name",
          "type": "string"
        },
        {
          "internalType": "uint256",
          "name": "price",
          "type": "uint256"
        },
        {
          "internalType": "uint256",
          "name": "quantity",
          "type": "uint256"
        },
        {
          "internalType": "bool",
          "name": "available",
          "type": "bool"
        }
      ],
      "stateMutability": "view",
      "type": "function",
      "constant": true
    },
    {
      "inputs": [],
      "name": "renounceOwnership",
      "outputs": [],
      "stateMutability": "payable",
      "type": "function",
      "payable": true
    },
    {
      "inputs": [
        {
          "internalType": "address",
          "name": "newOwner",
          "type": "address"
        }
      ],
      "name": "transferOwnership",
      "outputs": [],
      "stateMutability": "payable",
      "type": "function",
      "payable": true
    },
    {
      "stateMutability": "payable",
      "type": "receive",
      "payable": true
    },
    {
      "inputs": [
        {
          "internalType": "string",
          "name": "_name",
          "type": "string"
        },
        {
          "internalType": "uint256",
          "name": "_price",
          "type": "uint256"
        },
        {
          "internalType": "uint256",
          "name": "_quantity",
          "type": "uint256"
        }
      ],
      "name": "addProduct",
      "outputs": [],
      "stateMutability": "nonpayable",
      "type": "function"
    },
    {
      "inputs": [
        {
          "internalType": "uint256",
          "name": "_productId",
          "type": "uint256"
        },
        {
          "internalType": "string",
          "name": "_name",
          "type": "string"
        },
        {
          "internalType": "uint256",
          "name": "_price",
          "type": "uint256"
        },
        {
          "internalType": "uint256",
          "name": "_quantity",
          "type": "uint256"
        },
        {
          "internalType": "bool",
          "name": "_available",
          "type": "bool"
        }
      ],
      "name": "updateProduct",
      "outputs": [],
      "stateMutability": "nonpayable",
      "type": "function"
    },
    {
      "inputs": [
        {
          "internalType": "uint256",
          "name": "_productId",
          "type": "uint256"
        }
      ],
      "name": "getProduct",
      "outputs": [
        {
          "internalType": "string",
          "name": "",
          "type": "string"
        },
        {
          "internalType": "uint256",
          "name": "",
          "type": "uint256"
        },
        {
          "internalType": "uint256",
          "name": "",
          "type": "uint256"
        },
        {
          "internalType": "bool",
          "name": "",
          "type": "bool"
        }
      ],
      "stateMutability": "view",
      "type": "function",
      "constant": true
    }
  ],
  "bytecode": "0x6080604052600060015534801561001557600080fd5b5060008054600160a060020a031916339081178255426001556040519091907f8be0079c531659141344cd1fd0a4f28419497f9722a3daafe3b4186f6b6457e0908290a360038054600160a060020a031916331790556000600455610ed48061007f6000396000f3fe6080604052600436106100935760e060020a6000350463125b0b34811461015a5780631d9990ed1461017c578063715018a61461019c5780637acc0b20146101a4578063893d20e8146101dd5780638da5cb5b146101fd578063b8fb3a511461021d578063b9db15b414610240578063e0f6ef8714610260578063f2fde38b14610276578063ffa1ad7414610289576100d3565b366100d3577fcc85d09d309785db93d6df19917f2e6cc07fe27cd01c08c8279145deb5cf452633346040516100c9929190610963565b60405180910390a1005b3233146101295760405160e560020a62461bcd0281526020600482015260196024820152603860020a787068697368696e672061747461636b2064657465637465643f0260448201526064015b60405180910390fd5b7f26875833861a2b006512a11f1b86edf95df96131040f3caeed72989ee985808333346040516100c9929190610963565b34801561016657600080fd5b5061017a610175366004610a22565b6102cf565b005b34801561018857600080fd5b5061017a610197366004610a6f565b6104e8565b61017a6105c6565b3480156101b057600080fd5b506101c46101bf366004610ae2565b61062b565b6040516101d49493929190610b41565b60405180910390f35b6101e56106e0565b604051600160a060020a0390911681526020016101d4565b34801561020957600080fd5b506003546101e590600160a060020a031681565b34801561022957600080fd5b50610232601e81565b6040519081526020016101d4565b34801561024c57600080fd5b506101c461025b366004610ae2565b610756565b34801561026c57600080fd5b5061023260045481565b61017a610284366004610b72565b610882565b34801561029557600080fd5b506102c26040518060400160405280600a815260200160b060020a69312e362e342d626574610281525081565b6040516101d49190610ba2565b600054600160a060020a031633146102fc5760405160e560020a62461bcd02815260040161012090610bb5565b60008351116103505760405160e560020a62461bcd02815260206004820152601e60248201527f50726f64756374206e616d65206d757374206e6f7420626520656d70747900006044820152606401610120565b600082116103b65760405160e560020a62461bcd02815260206004820152602760248201527f50726f64756374207072696365206d7573742062652067726561746572207468604482015260c860020a66616e207a65726f026064820152608401610120565b6000811161041f5760405160e560020a62461bcd02815260206004820152602a60248201527f50726f64756374207175616e74697479206d7573742062652067726561746572604482015260b060020a69207468616e207a65726f026064820152608401610120565b6004805490600061042f83610c06565b9091555050604080516080810182528481526020808201859052818301849052600160608301526004546000908152600590915291909120815181906104759082610cac565b506020820151600182015560408083015160028301556060909201516003909101805460ff191691151591909117905560045490517f0107e99fb43ba873db8a5ce7c34a12cd44cd3041167cff32040ddb6aca455ae6916104db91869086908690610d71565b60405180910390a1505050565b600054600160a060020a031633146105155760405160e560020a62461bcd02815260040161012090610bb5565b60008511801561052757506004548511155b6105465760405160e560020a62461bcd02815260040161012090610d9d565b60008581526005602052604090208061055f8682610cac565b50600181018490556002810183905560038101805460ff19168315151790556040517fe93d2192040c86b6a434772c45f732d97c9badcc8e050fb6b63819e2c18b4ed8906105b69088908890889088908890610dcc565b60405180910390a1505050505050565b600054600160a060020a031633146105f35760405160e560020a62461bcd02815260040161012090610e04565b60008054604051600160a060020a0390911690600080516020610e7f833981519152908390a360008054600160a060020a0319169055565b60056020526000908152604090208054819061064690610c1f565b80601f016020809104026020016040519081016040528092919081815260200182805461067290610c1f565b80156106bf5780601f10610694576101008083540402835291602001916106bf565b820191906000526020600020905b8154815290600101906020018083116106a257829003601f168201915b50505050600183015460028401546003909401549293909290915060ff1684565b6000601e6001546106f19190610e38565b42116107125760405160e560020a62461bcd02815260040161012090610e51565b601e6001546107219190610e38565b42116107425760405160e560020a62461bcd02815260040161012090610e51565b5042600155600054600160a060020a031690565b60606000806000808511801561076e57506004548511155b61078d5760405160e560020a62461bcd02815260040161012090610d9d565b6000858152600560205260408082208151608081019092528054829082906107b490610c1f565b80601f01602080910402602001604051908101604052809291908181526020018280546107e090610c1f565b801561082d5780601f106108025761010080835404028352916020019161082d565b820191906000526020600020905b81548152906001019060200180831161081057829003601f168201915b50505091835250506001820154602080830191909152600283015460408084019190915260039093015460ff161515606092830152835190840151928401519390910151909991985091965090945092505050565b600054600160a060020a031633146108af5760405160e560020a62461bcd02815260040161012090610e04565b600160a060020a03811661091a5760405160e560020a62461bcd02815260206004820152602660248201527f4f776e61626c653a206e6577206f776e657220697320746865207a65726f2061604482015260d060020a65646472657373026064820152608401610120565b60008054604051600160a060020a0380851693921691600080516020610e7f83398151915291a360008054600160a060020a031916600160a060020a0392909216919091179055565b600160a060020a03929092168252602082015260400190565b60e060020a634e487b710260009081526041600452602490fd5b600082601f8301126109a757600080fd5b81356001604060020a03808211156109c1576109c161097c565b604051601f8301601f19908116603f011681019082821181831017156109e9576109e961097c565b81604052838152866020858801011115610a0257600080fd5b836020870160208301376000602085830101528094505050505092915050565b600080600060608486031215610a3757600080fd5b83356001604060020a03811115610a4d57600080fd5b610a5986828701610996565b9660208601359650604090950135949350505050565b600080600080600060a08688031215610a8757600080fd5b8535945060208601356001604060020a03811115610aa457600080fd5b610ab088828901610996565b945050604086013592506060860135915060808601358015158114610ad457600080fd5b809150509295509295909350565b600060208284031215610af457600080fd5b5035919050565b6000815180845260005b81811015610b2157602081850181015186830182015201610b05565b506000602082860101526020601f19601f83011685010191505092915050565b608081526000610b546080830187610afb565b60208301959095525060408101929092521515606090910152919050565b600060208284031215610b8457600080fd5b8135600160a060020a0381168114610b9b57600080fd5b9392505050565b602081526000610b9b6020830184610afb565b6020808252601b908201527f756e617574686f72697a65642c206e6f7420746865206f776e65720000000000604082015260600190565b60e060020a634e487b710260009081526011600452602490fd5b600060018201610c1857610c18610bec565b5060010190565b600281046001821680610c3357607f821691505b602082108103610c575760e060020a634e487b710260009081526022600452602490fd5b50919050565b601f821115610ca7576000818152602081206020601f86010481016020861015610c845750805b6020601f860104820191505b81811015610ca357828155600101610c90565b5050505b505050565b81516001604060020a03811115610cc557610cc561097c565b610cd981610cd38454610c1f565b84610c5d565b602080601f831160018114610d125760008415610cf65750858301515b60028086026008870290910a6000190419821617865550610ca3565b600085815260208120601f198616915b82811015610d4157888601518255948401946001909101908401610d22565b5085821015610d6157878501516008601f88160260020a60001904191681555b5050505050600202600101905550565b848152608060208201526000610d8a6080830186610afb565b6040830194909452506060015292915050565b6020808252601290820152607260020a71125b9d985b1a59081c1c9bd91d58dd08125102604082015260600190565b85815260a060208201526000610de560a0830187610afb565b6040830195909552506060810192909252151560809091015292915050565b6020808252601790820152604960020a7630b1b1b2b9b9903232b734b2b2103337b91037bbb732b902604082015260600190565b80820180821115610e4b57610e4b610bec565b92915050565b6020808252601090820152608160020a6f3930ba32903634b6b4ba1032b93937b90260408201526060019056fe8be0079c531659141344cd1fd0a4f28419497f9722a3daafe3b4186f6b6457e0a264697066735822122037990e503d2bd9a6985665bc70bdc13d1938489e15f45b327d1cb3e0286e582f64736f6c63430008120033",
  "immutableReferences": {},
  "source": "// SPDX-License-Identifier: CC-BY-4.0\r\npragma solidity >=0.4.22 <0.9.0;\r\n\r\nimport \"../common/Version.sol\";\r\nimport \"../common/Owned.sol\";\r\n\r\ncontract Inventory is Version,Owned {\r\n    address public owner; // The owner of the contract\r\n    uint256 public productCount; // Total number of products in the inventory\r\n\r\n    struct Product {\r\n        string name;\r\n        uint256 price;\r\n        uint256 quantity;\r\n        bool available;\r\n    }\r\n\r\n    mapping(uint256 => Product) public products;\r\n\r\n    event ProductAdded(uint256 productId, string name, uint256 price, uint256 quantity);\r\n    event ProductUpdated(uint256 productId, string name, uint256 price, uint256 quantity, bool available);\r\n\r\n    constructor() {\r\n        owner = msg.sender;\r\n        productCount = 0;\r\n    }\r\n\r\n\r\n    function addProduct(string memory _name, uint256 _price, uint256 _quantity) public okOwner {\r\n        require(bytes(_name).length > 0, \"Product name must not be empty\");\r\n        require(_price > 0, \"Product price must be greater than zero\");\r\n        require(_quantity > 0, \"Product quantity must be greater than zero\");\r\n\r\n        productCount++;\r\n        products[productCount] = Product({\r\n            name: _name,\r\n            price: _price,\r\n            quantity: _quantity,\r\n            available: true\r\n        });\r\n\r\n        emit ProductAdded(productCount, _name, _price, _quantity);\r\n    }\r\n\r\n    function updateProduct(uint256 _productId, string memory _name, uint256 _price, uint256 _quantity, bool _available) public okOwner {\r\n        require(_productId > 0 && _productId <= productCount, \"Invalid product ID\");\r\n\r\n        Product storage product = products[_productId];\r\n        product.name = _name;\r\n        product.price = _price;\r\n        product.quantity = _quantity;\r\n        product.available = _available;\r\n\r\n        emit ProductUpdated(_productId, _name, _price, _quantity, _available);\r\n    }\r\n\r\n    function getProduct(uint256 _productId) public view returns (string memory, uint256, uint256, bool) {\r\n        require(_productId > 0 && _productId <= productCount, \"Invalid product ID\");\r\n        Product memory product = products[_productId];\r\n        return (product.name, product.price, product.quantity, product.available);\r\n    }\r\n}\r\n",
  "sourcePath": "/Volumes/My Book/projects/pingleware-contracts/contracts/retail/Inventory.sol",
  "compiler": {
    "name": "solc",
    "version": "0.8.18+commit.87f61d96.Emscripten.clang"
  },
  "schemaVersion": "3.4.12",
  "updatedAt": "2023-10-24T03:01:37.841Z",
  "networkType": "ethereum",
  "devdoc": {
    "kind": "dev",
    "methods": {
      "renounceOwnership()": {
        "details": "Leaves the contract without owner. It will not be possible to call `onlyOwner` functions anymore. Can only be called by the current owner. NOTE: Renouncing ownership will leave the contract without an owner, thereby removing any functionality that is only available to the owner."
      },
      "transferOwnership(address)": {
        "details": "Transfers ownership of the contract to a new account (`newOwner`). Can only be called by the current owner."
      }
    },
    "version": 1
  },
  "userdoc": {
    "kind": "user",
    "methods": {},
    "version": 1
  }
}