{
  "contractName": "IRS",
  "abi": [
    {
      "anonymous": false,
      "inputs": [
        {
          "indexed": false,
          "internalType": "address",
          "name": "_sender",
          "type": "address"
        }
      ],
      "name": "Sender",
      "type": "event"
    },
    {
      "anonymous": false,
      "inputs": [
        {
          "indexed": false,
          "internalType": "address",
          "name": "from",
          "type": "address"
        },
        {
          "indexed": false,
          "internalType": "uint256",
          "name": "amount",
          "type": "uint256"
        }
      ],
      "name": "TaxCollected",
      "type": "event"
    },
    {
      "inputs": [],
      "name": "getOwner",
      "outputs": [
        {
          "internalType": "address",
          "name": "",
          "type": "address"
        }
      ],
      "stateMutability": "view",
      "type": "function",
      "constant": true
    },
    {
      "inputs": [],
      "name": "taxCollector",
      "outputs": [
        {
          "internalType": "address",
          "name": "",
          "type": "address"
        }
      ],
      "stateMutability": "view",
      "type": "function",
      "constant": true
    },
    {
      "inputs": [
        {
          "internalType": "address",
          "name": "",
          "type": "address"
        }
      ],
      "name": "taxpayerBalances",
      "outputs": [
        {
          "internalType": "uint256",
          "name": "",
          "type": "uint256"
        }
      ],
      "stateMutability": "view",
      "type": "function",
      "constant": true
    },
    {
      "inputs": [],
      "name": "totalTaxCollected",
      "outputs": [
        {
          "internalType": "uint256",
          "name": "",
          "type": "uint256"
        }
      ],
      "stateMutability": "view",
      "type": "function",
      "constant": true
    },
    {
      "stateMutability": "payable",
      "type": "receive",
      "payable": true
    },
    {
      "inputs": [],
      "name": "collectTax",
      "outputs": [],
      "stateMutability": "payable",
      "type": "function",
      "payable": true
    },
    {
      "inputs": [],
      "name": "getTaxBalance",
      "outputs": [
        {
          "internalType": "uint256",
          "name": "",
          "type": "uint256"
        }
      ],
      "stateMutability": "view",
      "type": "function",
      "constant": true
    },
    {
      "inputs": [],
      "name": "withdrawTaxRefund",
      "outputs": [],
      "stateMutability": "nonpayable",
      "type": "function"
    }
  ],
  "bytecode": "0x608060405234801561001057600080fd5b5060008054600160a060020a03191633179055610305806100326000396000f3fe6080604052600436106100675760e060020a600035046317dcbca08114610073578063205638d21461008a5780633d8705ab146100bb57806367a2dd6d146100c3578063893d20e8146100f0578063bea1dcf814610122578063d8454a821461014257600080fd5b3661006e57005b600080fd5b34801561007f57600080fd5b50610088610158565b005b34801561009657600080fd5b50336000908152600360205260409020545b6040519081526020015b60405180910390f35b6100886101f9565b3480156100cf57600080fd5b506100a86100de366004610274565b60036020526000908152604090205481565b3480156100fc57600080fd5b50600054600160a060020a03165b604051600160a060020a0390911681526020016100b2565b34801561012e57600080fd5b5060015461010a90600160a060020a031681565b34801561014e57600080fd5b506100a860025481565b336000908152600360205260409020546101b45760405160e560020a62461bcd0281526020600482015260136024820152606860020a726e6f20726566756e6420617661696c61626c6502604482015260640160405180910390fd5b33600081815260036020526040808220805490839055905190929183156108fc02918491818181858888f193505050501580156101f5573d6000803e3d6000fd5b5050565b3360009081526003602052604081208054349283929161021a9084906102a4565b92505081905550806002600082825461023391906102a4565b909155505060408051338152602081018390527f7f1b726f82f7a14636a7a5932448f1bce683188520ba3150fd8423989353ebf2910160405180910390a150565b60006020828403121561028657600080fd5b8135600160a060020a038116811461029d57600080fd5b9392505050565b808201808211156102c95760e060020a634e487b710260009081526011600452602490fd5b9291505056fea264697066735822122086672b737bd2ecca615a1e8596e76592d771f1132145424b64d197a38df76e2f64736f6c63430008120033",
  "immutableReferences": {},
  "source": "// SPDX-License-Identifier: BSL-1.1\npragma solidity >=0.4.22 <0.9.0;\n\nimport \"../../abstract/AAccessControl.sol\";\n\ncontract IRS is AAccessControl {\naddress public taxCollector;\n    uint256 public totalTaxCollected;\n\n    mapping(address => uint256) public taxpayerBalances;\n\n    event TaxCollected(address from, uint256 amount);\n\n    receive() external payable {\n\n    }\n\n    modifier onlyTaxCollector() {\n        require(msg.sender == taxCollector, \"Only the tax collector can perform this action.\");\n        _;\n    }\n\n    function collectTax() public payable {\n        uint256 amount = msg.value;\n        taxpayerBalances[msg.sender] += amount;\n        totalTaxCollected += amount;\n        emit TaxCollected(msg.sender, amount);\n    }\n\n    function getTaxBalance() public view returns (uint256) {\n        return taxpayerBalances[msg.sender];\n    }\n\n    function withdrawTaxRefund() public {\n        require(taxpayerBalances[msg.sender] > 0, \"no refund available\");\n        uint256 refundAmount = taxpayerBalances[msg.sender];\n        taxpayerBalances[msg.sender] = 0;\n        payable(msg.sender).transfer(refundAmount);\n    }\n}",
  "sourcePath": "/Volumes/My Book/projects/pingleware-contracts/contracts/government/federal/IRS.sol",
  "compiler": {
    "name": "solc",
    "version": "0.8.18+commit.87f61d96.Emscripten.clang"
  },
  "schemaVersion": "3.4.12",
  "updatedAt": "2023-10-24T12:19:51.661Z",
  "networkType": "ethereum",
  "devdoc": {
    "kind": "dev",
    "methods": {},
    "version": 1
  },
  "userdoc": {
    "kind": "user",
    "methods": {},
    "version": 1
  }
}