{
  "contractName": "Jail",
  "abi": [
    {
      "inputs": [
        {
          "internalType": "address",
          "name": "countyGovvernmentAddress",
          "type": "address"
        }
      ],
      "stateMutability": "nonpayable",
      "type": "constructor"
    },
    {
      "anonymous": false,
      "inputs": [
        {
          "indexed": false,
          "internalType": "string",
          "name": "caseIndex",
          "type": "string"
        },
        {
          "indexed": false,
          "internalType": "address",
          "name": "judge",
          "type": "address"
        }
      ],
      "name": "CaseAssignedJudge",
      "type": "event"
    },
    {
      "anonymous": false,
      "inputs": [
        {
          "indexed": false,
          "internalType": "address",
          "name": "",
          "type": "address"
        },
        {
          "indexed": false,
          "internalType": "uint256",
          "name": "",
          "type": "uint256"
        },
        {
          "indexed": false,
          "internalType": "string",
          "name": "",
          "type": "string"
        }
      ],
      "name": "CommissaryPurchase",
      "type": "event"
    },
    {
      "anonymous": false,
      "inputs": [
        {
          "indexed": true,
          "internalType": "address",
          "name": "from",
          "type": "address"
        },
        {
          "indexed": false,
          "internalType": "address",
          "name": "inmate",
          "type": "address"
        },
        {
          "indexed": false,
          "internalType": "uint256",
          "name": "value",
          "type": "uint256"
        }
      ],
      "name": "Deposit",
      "type": "event"
    },
    {
      "anonymous": false,
      "inputs": [
        {
          "indexed": false,
          "internalType": "address",
          "name": "",
          "type": "address"
        },
        {
          "indexed": false,
          "internalType": "address",
          "name": "",
          "type": "address"
        },
        {
          "indexed": false,
          "internalType": "string",
          "name": "",
          "type": "string"
        },
        {
          "indexed": false,
          "internalType": "string",
          "name": "",
          "type": "string"
        },
        {
          "indexed": false,
          "internalType": "uint256",
          "name": "",
          "type": "uint256"
        },
        {
          "indexed": false,
          "internalType": "string",
          "name": "",
          "type": "string"
        }
      ],
      "name": "InmateAdded",
      "type": "event"
    },
    {
      "anonymous": false,
      "inputs": [
        {
          "indexed": false,
          "internalType": "address",
          "name": "",
          "type": "address"
        },
        {
          "indexed": false,
          "internalType": "address",
          "name": "",
          "type": "address"
        },
        {
          "indexed": false,
          "internalType": "uint256",
          "name": "",
          "type": "uint256"
        }
      ],
      "name": "InmateFundsTransfer",
      "type": "event"
    },
    {
      "anonymous": false,
      "inputs": [
        {
          "indexed": false,
          "internalType": "address",
          "name": "",
          "type": "address"
        },
        {
          "indexed": false,
          "internalType": "address",
          "name": "",
          "type": "address"
        },
        {
          "indexed": false,
          "internalType": "uint256",
          "name": "",
          "type": "uint256"
        },
        {
          "indexed": false,
          "internalType": "string",
          "name": "",
          "type": "string"
        }
      ],
      "name": "InmateMessageDeleted",
      "type": "event"
    },
    {
      "anonymous": false,
      "inputs": [
        {
          "indexed": false,
          "internalType": "address",
          "name": "",
          "type": "address"
        },
        {
          "indexed": false,
          "internalType": "address",
          "name": "",
          "type": "address"
        },
        {
          "indexed": false,
          "internalType": "string",
          "name": "",
          "type": "string"
        }
      ],
      "name": "InmatePropertyAdded",
      "type": "event"
    },
    {
      "anonymous": false,
      "inputs": [
        {
          "indexed": false,
          "internalType": "address",
          "name": "",
          "type": "address"
        },
        {
          "indexed": false,
          "internalType": "address",
          "name": "",
          "type": "address"
        },
        {
          "indexed": false,
          "internalType": "string",
          "name": "",
          "type": "string"
        },
        {
          "indexed": false,
          "internalType": "string",
          "name": "",
          "type": "string"
        }
      ],
      "name": "InmateReleased",
      "type": "event"
    },
    {
      "anonymous": false,
      "inputs": [
        {
          "indexed": false,
          "internalType": "string",
          "name": "caseIndex",
          "type": "string"
        },
        {
          "indexed": false,
          "internalType": "address",
          "name": "representative",
          "type": "address"
        }
      ],
      "name": "LegalRepresentativeAssigned",
      "type": "event"
    },
    {
      "anonymous": false,
      "inputs": [
        {
          "indexed": false,
          "internalType": "string",
          "name": "caseIndex",
          "type": "string"
        },
        {
          "indexed": false,
          "internalType": "address",
          "name": "plaintiff",
          "type": "address"
        },
        {
          "indexed": false,
          "internalType": "address",
          "name": "defendant",
          "type": "address"
        },
        {
          "indexed": false,
          "internalType": "string",
          "name": "description",
          "type": "string"
        }
      ],
      "name": "NewCaseCreated",
      "type": "event"
    },
    {
      "anonymous": false,
      "inputs": [
        {
          "indexed": false,
          "internalType": "address",
          "name": "officerAddress",
          "type": "address"
        },
        {
          "indexed": false,
          "internalType": "string",
          "name": "name",
          "type": "string"
        },
        {
          "indexed": false,
          "internalType": "enum Police.OfficerRole",
          "name": "role",
          "type": "uint8"
        }
      ],
      "name": "OfficerAdded",
      "type": "event"
    },
    {
      "anonymous": false,
      "inputs": [
        {
          "indexed": false,
          "internalType": "address",
          "name": "officerAddress",
          "type": "address"
        }
      ],
      "name": "OfficerRemoved",
      "type": "event"
    },
    {
      "anonymous": false,
      "inputs": [
        {
          "indexed": false,
          "internalType": "address",
          "name": "officerAddress",
          "type": "address"
        },
        {
          "indexed": false,
          "internalType": "enum Police.OfficerRole",
          "name": "newRole",
          "type": "uint8"
        }
      ],
      "name": "OfficerUpdated",
      "type": "event"
    },
    {
      "anonymous": false,
      "inputs": [
        {
          "indexed": false,
          "internalType": "address",
          "name": "_sender",
          "type": "address"
        }
      ],
      "name": "Sender",
      "type": "event"
    },
    {
      "anonymous": false,
      "inputs": [
        {
          "indexed": false,
          "internalType": "address",
          "name": "",
          "type": "address"
        },
        {
          "indexed": false,
          "internalType": "uint256",
          "name": "",
          "type": "uint256"
        }
      ],
      "name": "Withdrawal",
      "type": "event"
    },
    {
      "inputs": [
        {
          "internalType": "address",
          "name": "officerAddress",
          "type": "address"
        },
        {
          "internalType": "string",
          "name": "name",
          "type": "string"
        },
        {
          "internalType": "enum Police.OfficerRole",
          "name": "role",
          "type": "uint8"
        }
      ],
      "name": "addOfficer",
      "outputs": [],
      "stateMutability": "nonpayable",
      "type": "function"
    },
    {
      "inputs": [
        {
          "internalType": "string",
          "name": "_caseIndex",
          "type": "string"
        },
        {
          "internalType": "address",
          "name": "_judge",
          "type": "address"
        }
      ],
      "name": "assignJudge",
      "outputs": [],
      "stateMutability": "nonpayable",
      "type": "function"
    },
    {
      "inputs": [
        {
          "internalType": "string",
          "name": "_caseIndex",
          "type": "string"
        },
        {
          "internalType": "address",
          "name": "_representative",
          "type": "address"
        }
      ],
      "name": "assignLegalRepresentative",
      "outputs": [],
      "stateMutability": "nonpayable",
      "type": "function"
    },
    {
      "inputs": [
        {
          "internalType": "string",
          "name": "",
          "type": "string"
        }
      ],
      "name": "assignedJudge",
      "outputs": [
        {
          "internalType": "address",
          "name": "",
          "type": "address"
        }
      ],
      "stateMutability": "view",
      "type": "function"
    },
    {
      "inputs": [],
      "name": "balance",
      "outputs": [
        {
          "internalType": "uint256",
          "name": "",
          "type": "uint256"
        }
      ],
      "stateMutability": "view",
      "type": "function"
    },
    {
      "inputs": [],
      "name": "caseCounter",
      "outputs": [
        {
          "internalType": "uint256",
          "name": "",
          "type": "uint256"
        }
      ],
      "stateMutability": "view",
      "type": "function"
    },
    {
      "inputs": [
        {
          "internalType": "string",
          "name": "",
          "type": "string"
        }
      ],
      "name": "cases",
      "outputs": [
        {
          "internalType": "string",
          "name": "index",
          "type": "string"
        },
        {
          "internalType": "address",
          "name": "plaintiff",
          "type": "address"
        },
        {
          "internalType": "address",
          "name": "defendant",
          "type": "address"
        },
        {
          "internalType": "string",
          "name": "description",
          "type": "string"
        },
        {
          "internalType": "uint256",
          "name": "filingDate",
          "type": "uint256"
        },
        {
          "internalType": "enum Case.CaseStatus",
          "name": "status",
          "type": "uint8"
        },
        {
          "internalType": "string",
          "name": "decision",
          "type": "string"
        }
      ],
      "stateMutability": "view",
      "type": "function"
    },
    {
      "inputs": [
        {
          "internalType": "string",
          "name": "_caseIndex",
          "type": "string"
        }
      ],
      "name": "checkAssignedAttorney",
      "outputs": [
        {
          "internalType": "bool",
          "name": "",
          "type": "bool"
        }
      ],
      "stateMutability": "view",
      "type": "function"
    },
    {
      "inputs": [
        {
          "internalType": "string",
          "name": "_caseIndex",
          "type": "string"
        },
        {
          "internalType": "string",
          "name": "decision",
          "type": "string"
        }
      ],
      "name": "closeCase",
      "outputs": [],
      "stateMutability": "nonpayable",
      "type": "function"
    },
    {
      "inputs": [],
      "name": "commissary_revenue",
      "outputs": [
        {
          "internalType": "uint256",
          "name": "",
          "type": "uint256"
        }
      ],
      "stateMutability": "view",
      "type": "function"
    },
    {
      "inputs": [
        {
          "internalType": "address",
          "name": "_plaintiff",
          "type": "address"
        },
        {
          "internalType": "address",
          "name": "_defendant",
          "type": "address"
        },
        {
          "internalType": "string",
          "name": "_description",
          "type": "string"
        }
      ],
      "name": "createCase",
      "outputs": [
        {
          "internalType": "string",
          "name": "",
          "type": "string"
        }
      ],
      "stateMutability": "nonpayable",
      "type": "function"
    },
    {
      "inputs": [],
      "name": "facilityName",
      "outputs": [
        {
          "internalType": "string",
          "name": "",
          "type": "string"
        }
      ],
      "stateMutability": "view",
      "type": "function"
    },
    {
      "inputs": [
        {
          "internalType": "address",
          "name": "defendant",
          "type": "address"
        }
      ],
      "name": "getCaseIndexByDefendant",
      "outputs": [
        {
          "internalType": "string",
          "name": "",
          "type": "string"
        }
      ],
      "stateMutability": "view",
      "type": "function"
    },
    {
      "inputs": [
        {
          "internalType": "string",
          "name": "_caseIndex",
          "type": "string"
        }
      ],
      "name": "getCaseStatus",
      "outputs": [
        {
          "internalType": "enum Case.CaseStatus",
          "name": "",
          "type": "uint8"
        }
      ],
      "stateMutability": "view",
      "type": "function"
    },
    {
      "inputs": [],
      "name": "getOwner",
      "outputs": [
        {
          "internalType": "address",
          "name": "",
          "type": "address"
        }
      ],
      "stateMutability": "view",
      "type": "function"
    },
    {
      "inputs": [
        {
          "internalType": "address",
          "name": "",
          "type": "address"
        }
      ],
      "name": "inmates",
      "outputs": [
        {
          "internalType": "string",
          "name": "first_name",
          "type": "string"
        },
        {
          "internalType": "string",
          "name": "last_name",
          "type": "string"
        },
        {
          "internalType": "uint256",
          "name": "dob",
          "type": "uint256"
        },
        {
          "internalType": "bool",
          "name": "custody",
          "type": "bool"
        },
        {
          "internalType": "string",
          "name": "caseIndex",
          "type": "string"
        }
      ],
      "stateMutability": "view",
      "type": "function"
    },
    {
      "inputs": [
        {
          "internalType": "string",
          "name": "_caseIndex",
          "type": "string"
        }
      ],
      "name": "isCaseResolved",
      "outputs": [
        {
          "internalType": "bool",
          "name": "",
          "type": "bool"
        }
      ],
      "stateMutability": "view",
      "type": "function"
    },
    {
      "inputs": [
        {
          "internalType": "address",
          "name": "jurisdiction",
          "type": "address"
        },
        {
          "internalType": "address",
          "name": "offender",
          "type": "address"
        },
        {
          "internalType": "string",
          "name": "violation",
          "type": "string"
        }
      ],
      "name": "issueViolation",
      "outputs": [
        {
          "internalType": "string",
          "name": "",
          "type": "string"
        }
      ],
      "stateMutability": "nonpayable",
      "type": "function"
    },
    {
      "inputs": [
        {
          "internalType": "string",
          "name": "",
          "type": "string"
        },
        {
          "internalType": "uint256",
          "name": "",
          "type": "uint256"
        }
      ],
      "name": "legalRepresentatives",
      "outputs": [
        {
          "internalType": "address",
          "name": "",
          "type": "address"
        }
      ],
      "stateMutability": "view",
      "type": "function"
    },
    {
      "inputs": [
        {
          "internalType": "address",
          "name": "",
          "type": "address"
        }
      ],
      "name": "officers",
      "outputs": [
        {
          "internalType": "string",
          "name": "name",
          "type": "string"
        },
        {
          "internalType": "enum Police.OfficerRole",
          "name": "role",
          "type": "uint8"
        },
        {
          "internalType": "bool",
          "name": "active",
          "type": "bool"
        }
      ],
      "stateMutability": "view",
      "type": "function"
    },
    {
      "inputs": [
        {
          "internalType": "address",
          "name": "officerAddress",
          "type": "address"
        }
      ],
      "name": "removeOfficer",
      "outputs": [],
      "stateMutability": "nonpayable",
      "type": "function"
    },
    {
      "inputs": [
        {
          "internalType": "address",
          "name": "officerAddress",
          "type": "address"
        },
        {
          "internalType": "enum Police.OfficerRole",
          "name": "newRole",
          "type": "uint8"
        }
      ],
      "name": "updateOfficerRole",
      "outputs": [],
      "stateMutability": "nonpayable",
      "type": "function"
    },
    {
      "stateMutability": "payable",
      "type": "receive"
    },
    {
      "inputs": [
        {
          "internalType": "address",
          "name": "inmate",
          "type": "address"
        },
        {
          "internalType": "string",
          "name": "first_name",
          "type": "string"
        },
        {
          "internalType": "string",
          "name": "last_name",
          "type": "string"
        },
        {
          "internalType": "uint256",
          "name": "dob",
          "type": "uint256"
        }
      ],
      "name": "addInmate",
      "outputs": [],
      "stateMutability": "nonpayable",
      "type": "function"
    },
    {
      "inputs": [
        {
          "internalType": "string",
          "name": "name",
          "type": "string"
        }
      ],
      "name": "setFacilityName",
      "outputs": [],
      "stateMutability": "nonpayable",
      "type": "function"
    },
    {
      "inputs": [
        {
          "internalType": "address",
          "name": "inmate",
          "type": "address"
        },
        {
          "internalType": "string",
          "name": "description",
          "type": "string"
        }
      ],
      "name": "addInmateProperty",
      "outputs": [],
      "stateMutability": "nonpayable",
      "type": "function"
    },
    {
      "inputs": [
        {
          "internalType": "address",
          "name": "inmate",
          "type": "address"
        },
        {
          "internalType": "string",
          "name": "reason",
          "type": "string"
        }
      ],
      "name": "releaseInmate",
      "outputs": [],
      "stateMutability": "nonpayable",
      "type": "function"
    },
    {
      "inputs": [
        {
          "internalType": "string",
          "name": "_caseIndex",
          "type": "string"
        }
      ],
      "name": "getCaseInfo",
      "outputs": [
        {
          "components": [
            {
              "internalType": "string",
              "name": "index",
              "type": "string"
            },
            {
              "internalType": "address",
              "name": "plaintiff",
              "type": "address"
            },
            {
              "internalType": "address",
              "name": "defendant",
              "type": "address"
            },
            {
              "internalType": "string",
              "name": "description",
              "type": "string"
            },
            {
              "internalType": "uint256",
              "name": "filingDate",
              "type": "uint256"
            },
            {
              "internalType": "enum Case.CaseStatus",
              "name": "status",
              "type": "uint8"
            },
            {
              "internalType": "string",
              "name": "decision",
              "type": "string"
            }
          ],
          "internalType": "struct Case.CaseRecord",
          "name": "",
          "type": "tuple"
        }
      ],
      "stateMutability": "view",
      "type": "function"
    },
    {
      "inputs": [
        {
          "internalType": "address",
          "name": "inmate",
          "type": "address"
        }
      ],
      "name": "getCaseInfo",
      "outputs": [
        {
          "components": [
            {
              "internalType": "string",
              "name": "index",
              "type": "string"
            },
            {
              "internalType": "address",
              "name": "plaintiff",
              "type": "address"
            },
            {
              "internalType": "address",
              "name": "defendant",
              "type": "address"
            },
            {
              "internalType": "string",
              "name": "description",
              "type": "string"
            },
            {
              "internalType": "uint256",
              "name": "filingDate",
              "type": "uint256"
            },
            {
              "internalType": "enum Case.CaseStatus",
              "name": "status",
              "type": "uint8"
            },
            {
              "internalType": "string",
              "name": "decision",
              "type": "string"
            }
          ],
          "internalType": "struct Case.CaseRecord",
          "name": "",
          "type": "tuple"
        }
      ],
      "stateMutability": "view",
      "type": "function"
    },
    {
      "inputs": [
        {
          "internalType": "address",
          "name": "inmate",
          "type": "address"
        }
      ],
      "name": "getInmateProperty",
      "outputs": [
        {
          "internalType": "string[]",
          "name": "",
          "type": "string[]"
        }
      ],
      "stateMutability": "view",
      "type": "function"
    },
    {
      "inputs": [
        {
          "internalType": "address",
          "name": "_representative",
          "type": "address"
        }
      ],
      "name": "inmateAssignLegalRepresentative",
      "outputs": [],
      "stateMutability": "nonpayable",
      "type": "function"
    },
    {
      "inputs": [
        {
          "internalType": "address",
          "name": "inmate",
          "type": "address"
        },
        {
          "internalType": "string",
          "name": "_message",
          "type": "string"
        }
      ],
      "name": "sendInmateMessage",
      "outputs": [],
      "stateMutability": "nonpayable",
      "type": "function"
    },
    {
      "inputs": [],
      "name": "getInmateMessages",
      "outputs": [
        {
          "components": [
            {
              "internalType": "address",
              "name": "other",
              "type": "address"
            },
            {
              "internalType": "uint256",
              "name": "timestamp",
              "type": "uint256"
            },
            {
              "internalType": "bool",
              "name": "attorney",
              "type": "bool"
            },
            {
              "internalType": "string",
              "name": "text",
              "type": "string"
            }
          ],
          "internalType": "struct Jail.Message[]",
          "name": "",
          "type": "tuple[]"
        }
      ],
      "stateMutability": "view",
      "type": "function"
    },
    {
      "inputs": [
        {
          "internalType": "address",
          "name": "inmate",
          "type": "address"
        }
      ],
      "name": "getNonAttorneyInmateMessages",
      "outputs": [
        {
          "components": [
            {
              "internalType": "address",
              "name": "other",
              "type": "address"
            },
            {
              "internalType": "uint256",
              "name": "timestamp",
              "type": "uint256"
            },
            {
              "internalType": "bool",
              "name": "attorney",
              "type": "bool"
            },
            {
              "internalType": "string",
              "name": "text",
              "type": "string"
            }
          ],
          "internalType": "struct Jail.Message[]",
          "name": "",
          "type": "tuple[]"
        }
      ],
      "stateMutability": "view",
      "type": "function"
    },
    {
      "inputs": [
        {
          "internalType": "address",
          "name": "inmate",
          "type": "address"
        },
        {
          "internalType": "uint256",
          "name": "msgno",
          "type": "uint256"
        },
        {
          "internalType": "string",
          "name": "reason",
          "type": "string"
        }
      ],
      "name": "deleteNonAttorneyInmateMessage",
      "outputs": [],
      "stateMutability": "nonpayable",
      "type": "function"
    },
    {
      "inputs": [
        {
          "internalType": "address",
          "name": "inmate",
          "type": "address"
        }
      ],
      "name": "deposit",
      "outputs": [],
      "stateMutability": "payable",
      "type": "function"
    },
    {
      "inputs": [],
      "name": "getBalance",
      "outputs": [
        {
          "internalType": "uint256",
          "name": "",
          "type": "uint256"
        }
      ],
      "stateMutability": "view",
      "type": "function"
    },
    {
      "inputs": [
        {
          "internalType": "uint256",
          "name": "amount",
          "type": "uint256"
        }
      ],
      "name": "withdraw",
      "outputs": [],
      "stateMutability": "nonpayable",
      "type": "function"
    },
    {
      "inputs": [
        {
          "internalType": "uint256",
          "name": "amount",
          "type": "uint256"
        },
        {
          "internalType": "string",
          "name": "item",
          "type": "string"
        }
      ],
      "name": "buy",
      "outputs": [],
      "stateMutability": "nonpayable",
      "type": "function"
    },
    {
      "inputs": [
        {
          "internalType": "address",
          "name": "inmate",
          "type": "address"
        },
        {
          "internalType": "uint256",
          "name": "amount",
          "type": "uint256"
        }
      ],
      "name": "transferToAnotherInmate",
      "outputs": [],
      "stateMutability": "nonpayable",
      "type": "function"
    }
  ],
  "bytecode": "0x60806040523480156200001157600080fd5b50604051620041143803806200411483398101604081905262000034916200006c565b6000805433600160a060020a03199182161790915560018055600e8054909116600160a060020a03929092169190911790556200009e565b6000602082840312156200007f57600080fd5b8151600160a060020a03811681146200009757600080fd5b9392505050565b61406680620000ae6000396000f3fe6080604052600436106101c75760e060020a600035046306f0dcd181146101d357806307c27282146101f5578063084866dd1461022b5780630aa206301461025a5780630ea4cb351461027a57806312065fe0146102a7578063208de9ca146102ca5780632e1a7d4d146102ea57806338e23ad51461030a57806339d5b8ea1461033757806343ab8dd31461035757806345b1a7351461036d5780634864003f1461038d57806350f10cbf146103bd57806358c4b67e146103d25780635aa0c87d146103f2578063613a47d314610412578063699e8064146104285780636bfaa51514610448578063719a0f8c1461046857806388ef1fac14610488578063893d20e8146104a85780638d4f291f146104cf578063946df39214610510578063956048741461054157806396031062146105615780639bbff49e14610581578063a4f4e835146105a1578063a4f7e7bd146105c1578063a7776839146105e1578063b69ef8a814610603578063b7dc3b1814610619578063cf89bb5214610639578063d390cc2014610659578063d75aa15714610679578063df96582914610699578063e17a703d146106cc578063e7ea98f6146106ec578063f340fa011461071957600080fd5b366101ce57005b600080fd5b3480156101df57600080fd5b506101f36101ee366004612f1b565b61072c565b005b34801561020157600080fd5b50610215610210366004612feb565b6108c6565b604051610222919061309d565b60405180910390f35b34801561023757600080fd5b5061024b610246366004613140565b610b15565b6040516102229392919061316b565b34801561026657600080fd5b50610215610275366004613140565b610bc5565b34801561028657600080fd5b5061029a610295366004612feb565b610c81565b604051610222919061319d565b3480156102b357600080fd5b506102bc610caf565b604051908152602001610222565b3480156102d657600080fd5b506101f36102e53660046131f3565b610cf8565b3480156102f657600080fd5b506101f3610305366004613234565b610d37565b34801561031657600080fd5b5061032a610325366004613140565b610e50565b604051610222919061324d565b34801561034357600080fd5b506101f3610352366004613140565b610f7b565b34801561036357600080fd5b506102bc60015481565b34801561037957600080fd5b506101f361038836600461326f565b611059565b34801561039957600080fd5b506103ad6103a8366004612feb565b6111e4565b6040519015158152602001610222565b3480156103c957600080fd5b5061032a611281565b3480156103de57600080fd5b506101f36103ed3660046132cc565b61130f565b3480156103fe57600080fd5b506101f361040d36600461331e565b6113f0565b34801561041e57600080fd5b506102bc60085481565b34801561043457600080fd5b5061032a610443366004613368565b6115c9565b34801561045457600080fd5b506101f36104633660046133c5565b61161b565b34801561047457600080fd5b506101f3610483366004613140565b61171e565b34801561049457600080fd5b506101f36104a3366004613428565b6117f0565b3480156104b457600080fd5b50600054600160a060020a03165b6040516102229190613481565b3480156104db57600080fd5b506104c26104ea366004612feb565b8051602081830181018051600382529282019190930120915254600160a060020a031681565b34801561051c57600080fd5b5061053061052b366004613140565b61197f565b604051610222959493929190613495565b34801561054d57600080fd5b506103ad61055c366004612feb565b611b4d565b34801561056d57600080fd5b506104c261057c3660046134e8565b611b8e565b34801561058d57600080fd5b506101f361059c36600461352c565b611bd5565b3480156105ad57600080fd5b506101f36105bc3660046132cc565b611d6d565b3480156105cd57600080fd5b506101f36105dc3660046135b4565b611e46565b3480156105ed57600080fd5b506105f6611f9f565b60405161022291906135f7565b34801561060f57600080fd5b506102bc60075481565b34801561062557600080fd5b506101f361063436600461368a565b6120fe565b34801561064557600080fd5b506101f36106543660046136ba565b61220b565b34801561066557600080fd5b506105f6610674366004613140565b6122fd565b34801561068557600080fd5b5061032a610694366004613368565b6124f7565b3480156106a557600080fd5b506106b96106b4366004612feb565b612813565b60405161022297969594939291906136ed565b3480156106d857600080fd5b506101f36106e736600461375e565b612a0a565b3480156106f857600080fd5b5061070c610707366004613140565b612b6f565b60405161022291906137a2565b6101f3610727366004613140565b612c5e565b3360009081526009602052604090206003015460ff1661076a5760405160e560020a62461bcd02815260040161076190613803565b60405180910390fd5b600160a060020a03821660009081526009602052604090206003015460ff166107f55760405160e560020a62461bcd02815260206004820152603160248201527f726563656976696e6720696e6d61746520616c72656164792072656c656173656044820152607860020a70642c206e6f7420696e20637573746f6479026064820152608401610761565b336000908152600c60205260409020548111156108275760405160e560020a62461bcd02815260040161076190613853565b336000908152600c60205260408120805483929061084690849061389f565b9091555050600160a060020a0382166000908152600c6020526040812080548392906108739084906138b2565b909155505060408051338152600160a060020a03841660208201529081018290527f55520a601eab4c321662894a9fa2ee7f5d0c21bcdc097a0a5c13a64019e9229a906060015b60405180910390a15050565b6108ce612e7a565b6002826040516108de91906138c5565b90815260200160405180910390206040518060e0016040529081600082018054610907906138e1565b80601f0160208091040260200160405190810160405280929190818152602001828054610933906138e1565b80156109805780601f1061095557610100808354040283529160200191610980565b820191906000526020600020905b81548152906001019060200180831161096357829003601f168201915b50505091835250506001820154600160a060020a03908116602083015260028301541660408201526003820180546060909201916109bd906138e1565b80601f01602080910402602001604051908101604052809291908181526020018280546109e9906138e1565b8015610a365780601f10610a0b57610100808354040283529160200191610a36565b820191906000526020600020905b815481529060010190602001808311610a1957829003601f168201915b505050918352505060048201546020820152600582015460409091019060ff166002811115610a6757610a6761306f565b6002811115610a7857610a7861306f565b8152602001600682018054610a8c906138e1565b80601f0160208091040260200160405190810160405280929190818152602001828054610ab8906138e1565b8015610b055780601f10610ada57610100808354040283529160200191610b05565b820191906000526020600020905b815481529060010190602001808311610ae857829003601f168201915b5050505050815250509050919050565b600660205260009081526040902080548190610b30906138e1565b80601f0160208091040260200160405190810160405280929190818152602001828054610b5c906138e1565b8015610ba95780601f10610b7e57610100808354040283529160200191610ba9565b820191906000526020600020905b815481529060010190602001808311610b8c57829003601f168201915b5050506001909301549192505060ff8082169161010090041683565b610bcd612e7a565b600160a060020a03821660009081526009602052604090206004018054610c7b9190610bf8906138e1565b80601f0160208091040260200160405190810160405280929190818152602001828054610c24906138e1565b8015610c715780601f10610c4657610100808354040283529160200191610c71565b820191906000526020600020905b815481529060010190602001808311610c5457829003601f168201915b50505050506108c6565b92915050565b6000600282604051610c9391906138c5565b9081526040519081900360200190206005015460ff1692915050565b3360009081526009602052604081206003015460ff16610ce45760405160e560020a62461bcd02815260040161076190613803565b50336000908152600c602052604090205490565b600054600160a060020a03163314610d255760405160e560020a62461bcd0281526004016107619061391f565b600d610d328284836139a7565b505050565b3360009081526009602052604090206003015460ff16610d6c5760405160e560020a62461bcd02815260040161076190613803565b3031811115610d905760405160e560020a62461bcd02815260040161076190613853565b336000908152600c6020526040902054811115610dc25760405160e560020a62461bcd02815260040161076190613853565b336000908152600c602052604081208054839290610de190849061389f565b9091555050604051339082156108fc029083906000818181858888f19350505050158015610e13573d6000803e3d6000fd5b507f7fcf532c15f0a6db0bd6d0e038bea71d30d808c7d98cb3bf7268a95bf5081b653382604051610e45929190613a64565b60405180910390a150565b606060005b600554811015610f655782600160a060020a031660058281548110610e7c57610e7c613a7d565b6000918252602090912060026007909202010154600160a060020a031603610f535760058181548110610eb157610eb1613a7d565b90600052602060002090600702016000018054610ecd906138e1565b80601f0160208091040260200160405190810160405280929190818152602001828054610ef9906138e1565b8015610f465780601f10610f1b57610100808354040283529160200191610f46565b820191906000526020600020905b815481529060010190602001808311610f2957829003601f168201915b5050505050915050919050565b80610f5d81613a97565b915050610e55565b5050604080516020810190915260008152919050565b3360009081526009602052604090206003015460ff16610fb05760405160e560020a62461bcd02815260040161076190613803565b33600090815260096020526040902060040180546110569190610fd2906138e1565b80601f0160208091040260200160405190810160405280929190818152602001828054610ffe906138e1565b801561104b5780601f106110205761010080835404028352916020019161104b565b820191906000526020600020905b81548152906001019060200180831161102e57829003601f168201915b505050505082612a0a565b50565b600054600160a060020a031633146110865760405160e560020a62461bcd0281526004016107619061391f565b600160a060020a038316600090815260066020819052604082206001015460ff16908111156110b7576110b761306f565b146111045760405160e560020a62461bcd0281526020600482015260176024820152604960020a7627b33334b1b2b91030b63932b0b23c9032bc34b9ba3997026044820152606401610761565b60405180606001604052808381526020018260068111156111275761112761306f565b81526001602091820152600160a060020a0385166000908152600690915260409020815181906111579082613ab0565b50602082015160018083018054909160ff199091169083600681111561117f5761117f61306f565b0217905550604091820151600190910180549115156101000261ff0019909216919091179055517faafac290503fd4ba16f8415687696056e9310669746aeacfcbfbc616d5a01fee906111d790859085908590613b6b565b60405180910390a1505050565b600080805b6004846040516111f991906138c5565b9081526040519081900360200190205481101561127a5733600160a060020a031660048560405161122a91906138c5565b9081526020016040518091039020828154811061124957611249613a7d565b600091825260209091200154600160a060020a03160361126857600191505b8061127281613a97565b9150506111e9565b5092915050565b600d805461128e906138e1565b80601f01602080910402602001604051908101604052809291908181526020018280546112ba906138e1565b80156113075780601f106112dc57610100808354040283529160200191611307565b820191906000526020600020905b8154815290600101906020018083116112ea57829003601f168201915b505050505081565b33600090815260066020526040902060010154610100900460ff166113495760405160e560020a62461bcd02815260040161076190613b9e565b600160a060020a03831660009081526009602052604090206003015460ff166113875760405160e560020a62461bcd02815260040161076190613bce565b600160a060020a0383166000908152600a60209081526040822080546001810182559083529120016113ba8284836139a7565b507f1d2de1db8e53481e271daa4b3ec5e65e8a548c2e05c1046cce8b17bf4ff3acc9338484846040516111d79493929190613c41565b60028383604051611402929190613c78565b9081526040519081900360200190206001015433600160a060020a03909116146114835760405160e560020a62461bcd02815260206004820152602660248201527f4f6e6c792074686520706c61696e746966662063616e2061737369676e206120604482015260d160020a65353ab233b297026064820152608401610761565b600060028484604051611497929190613c78565b9081526040519081900360200190206005015460ff1660028111156114be576114be61306f565b1461150c5760405160e560020a62461bcd0281526020600482015260186024820152604160020a772a34329031b0b9b29034b9903737ba103832b73234b73397026044820152606401610761565b806003848460405161151f929190613c78565b908152602001604051809103902060006101000a815481600160a060020a030219169083600160a060020a03160217905550600160028484604051611565929190613c78565b908152604051908190036020019020600501805460ff191660018360028111156115915761159161306f565b02179055507f04f0c25d4ee138ed9348d42279193a35ed1fa6ab5c21f93634b88b696510a2f48383836040516111d793929190613c88565b33600090815260066020526040902060010154606090610100900460ff166116065760405160e560020a62461bcd02815260040161076190613b9e565b6116118484846124f7565b90505b9392505050565b60038260405161162b91906138c5565b9081526040519081900360200190205433600160a060020a03909116146116ae5760405160e560020a62461bcd02815260206004820152602b60248201527f4f6e6c79207468652061737369676e6564206a756467652063616e20636c6f73604482015260a960020a6a32903a34329031b0b9b297026064820152608401610761565b600280836040516116bf91906138c5565b908152604051908190036020019020600501805460ff191660018360028111156116eb576116eb61306f565b02179055508060028360405161170191906138c5565b90815260200160405180910390206006019081610d329190613ab0565b600054600160a060020a0316331461174b5760405160e560020a62461bcd0281526004016107619061391f565b600160a060020a038116600090815260066020819052604082206001015460ff169081111561177c5761177c61306f565b0361179c5760405160e560020a62461bcd02815260040161076190613cb5565b600160a060020a03811660009081526006602052604090819020600101805461ff0019169055517fc71ac73682f965d639a2f97202d5b162f5ea75f1ef0e933bad7f1db870a4c25490610e45908390613481565b33600090815260066020526040902060010154610100900460ff1661182a5760405160e560020a62461bcd02815260040161076190613b9e565b600160a060020a0384166000908152600b6020526040902080548490811061185457611854613a7d565b600091825260209091206002600490920201015460ff16156118d05760405160e560020a62461bcd02815260206004820152602960248201527f63616e6e6f742064656c657465206174746f726e65792070726976696c656765604482015260b860020a68206d65737361676573026064820152608401610761565b600160a060020a0384166000908152600b602052604090208054849081106118fa576118fa613a7d565b6000918252602082206004909102018054600160a060020a03191681556001810182905560028101805460ff19169055906119386003830182612eb6565b50507ffca76c0224d7c3f3de0baeaa27504ca977f9a996062948bab4cd534f1c98d9c83385858585604051611971959493929190613ce9565b60405180910390a150505050565b60096020526000908152604090208054819061199a906138e1565b80601f01602080910402602001604051908101604052809291908181526020018280546119c6906138e1565b8015611a135780601f106119e857610100808354040283529160200191611a13565b820191906000526020600020905b8154815290600101906020018083116119f657829003601f168201915b505050505090806001018054611a28906138e1565b80601f0160208091040260200160405190810160405280929190818152602001828054611a54906138e1565b8015611aa15780601f10611a7657610100808354040283529160200191611aa1565b820191906000526020600020905b815481529060010190602001808311611a8457829003601f168201915b50505050600283015460038401546004850180549495929460ff909216935090611aca906138e1565b80601f0160208091040260200160405190810160405280929190818152602001828054611af6906138e1565b8015611b435780601f10611b1857610100808354040283529160200191611b43565b820191906000526020600020905b815481529060010190602001808311611b2657829003601f168201915b5050505050905085565b600060028083604051611b6091906138c5565b9081526040519081900360200190206005015460ff166002811115611b8757611b8761306f565b1492915050565b81516020818401810180516004825292820191850191909120919052805482908110611bb957600080fd5b600091825260209091200154600160a060020a03169150829050565b33600090815260066020526040902060010154610100900460ff16611c0f5760405160e560020a62461bcd02815260040161076190613b9e565b6000611c1a87610e50565b6040805160c06020601f8a01819004028201810190925260a081018881529293509182918990899081908501838280828437600092019190915250505090825250604080516020601f8801819004810282018101909252868152918101919087908790819084018382808284376000920182905250938552505050602080830186905260016040808501919091526060909301859052600160a060020a038b168252600990522081518190611ccf9082613ab0565b5060208201516001820190611ce49082613ab0565b5060408201516002820155606082015160038201805460ff191691151591909117905560808201516004820190611d1b9082613ab0565b509050507fdc986569c8537cbe9074a8a077beb9bed044d29bf4ab769ee3b65173b2812efc3388888888888888604051611d5c989796959493929190613d28565b60405180910390a150505050505050565b33600090815260066020526040902060010154610100900460ff16611da75760405160e560020a62461bcd02815260040161076190613b9e565b600160a060020a03831660009081526009602052604090206003015460ff16611de55760405160e560020a62461bcd02815260040161076190613bce565b600160a060020a0383166000908152600960205260409081902060038101805460ff1916905590517ff8561c567d16810f555d95ad4c8277c48385639b44bdce6c70bcc7f043f453ed916111d7913391879160049091019087908790613d91565b600160a060020a03821660009081526009602052604081206004018054611ef49190611e71906138e1565b80601f0160208091040260200160405190810160405280929190818152602001828054611e9d906138e1565b8015611eea5780601f10611ebf57610100808354040283529160200191611eea565b820191906000526020600020905b815481529060010190602001808311611ecd57829003601f168201915b50505050506111e4565b15611efd575060015b600160a060020a038381166000908152600b60209081526040808320815160808101835233815242818501908152871515938201938452606082018981528354600180820186559488529590962082516004909602018054600160a060020a031916959097169490941786559251908501555160028401805460ff191691151591909117905590519091906003820190611f979082613ab0565b505050505050565b3360009081526009602052604090206003015460609060ff16611fd75760405160e560020a62461bcd02815260040161076190613803565b336000908152600b6020908152604080832080548251818502810185019093528083529193909284015b828210156120f557600084815260209081902060408051608081018252600486029092018054600160a060020a03168352600181015493830193909352600283015460ff16151590820152600382018054919291606084019190612064906138e1565b80601f0160208091040260200160405190810160405280929190818152602001828054612090906138e1565b80156120dd5780601f106120b2576101008083540402835291602001916120dd565b820191906000526020600020905b8154815290600101906020018083116120c057829003601f168201915b50505050508152505081526020019060010190612001565b50505050905090565b3360009081526009602052604090206003015460ff166121335760405160e560020a62461bcd02815260040161076190613803565b3360009081526009602052604090206003015460ff166121685760405160e560020a62461bcd02815260040161076190613bce565b336000908152600c602052604090205482111561219a5760405160e560020a62461bcd02815260040161076190613853565b336000908152600c6020526040812080548492906121b990849061389f565b9250508190555081600860008282546121d291906138b2565b90915550506040517fef14a90cbea7376329041d7d32dde966117fad0614d70cd059559baab1da2f15906108ba90339085908590613e42565b600054600160a060020a031633146122385760405160e560020a62461bcd0281526004016107619061391f565b600160a060020a038216600090815260066020819052604082206001015460ff16908111156122695761226961306f565b036122895760405160e560020a62461bcd02815260040161076190613cb5565b600160a060020a0382166000908152600660208190526040909120600190810180548493919260ff199091169184908111156122c7576122c761306f565b02179055507fe11fafdb046755da5c54f680f937767059dde16815741b2bebbdcdc0382da83a82826040516108ba929190613e6a565b33600090815260066020526040902060010154606090610100900460ff1661233a5760405160e560020a62461bcd02815260040161076190613b9e565b60606000805b600160a060020a0385166000908152600b60205260409020548110156124ec57600160a060020a0385166000908152600b6020526040902080548290811061238a5761238a613a7d565b6000918252602082206002600490920201015460ff16151590036124da57600160a060020a0385166000908152600b602052604090208054829081106123d2576123d2613a7d565b60009182526020918290206040805160808101825260049093029091018054600160a060020a03168352600181015493830193909352600283015460ff1615159082015260038201805491929160608401919061242e906138e1565b80601f016020809104026020016040519081016040528092919081815260200182805461245a906138e1565b80156124a75780601f1061247c576101008083540402835291602001916124a7565b820191906000526020600020905b81548152906001019060200180831161248a57829003601f168201915b5050505050815250508383806124bc90613a97565b9450815181106124ce576124ce613a7d565b60200260200101819052505b806124e481613a97565b915050612340565b50909150505b919050565b606082600160a060020a031684600160a060020a0316036125745760405160e560020a62461bcd02815260206004820152602b60248201527f506c61696e7469666620616e6420646566656e64616e742063616e6e6f742062604482015260a960020a6a32903a34329039b0b6b297026064820152608401610761565b600180546000918261258583613a97565b9190505550600061259542612d6c565b6125a0600154612d6c565b6040516020016125b1929190613e87565b60405160208183030381529060405290506040518060e0016040528082815260200187600160a060020a0316815260200186600160a060020a0316815260200185815260200142815260200183600281111561260f5761260f61306f565b81526020016040518060200160405280600081525081525060028260405161263791906138c5565b908152604051908190036020019020815181906126549082613ab0565b506020820151600182018054600160a060020a03928316600160a060020a0319918216179091556040840151600284018054919093169116179055606082015160038201906126a39082613ab0565b506080820151600482015560a082015160058201805460ff191660018360028111156126d1576126d161306f565b021790555060c082015160068201906126ea9082613ab0565b50905050600560028260405161270091906138c5565b908152604051602091819003820190208254600181018455600093845291909220600790910201806127328382613eb6565b506001828101549082018054600160a060020a03928316600160a060020a031991821617909155600280850154908401805491909316911617905560038082019061277f90840182613eb6565b5060048281015490820155600580830154908201805460ff9092169160ff191660018360028111156127b3576127b361306f565b02179055506006818101906127ca90840182613eb6565b5050507f4c57de14bab31f374bb1da2f58131adeaa55e473dfe313a2b201a8a5415f0bd6818787876040516128029493929190613f87565b60405180910390a195945050505050565b8051602081830181018051600282529282019190930120915280548190612839906138e1565b80601f0160208091040260200160405190810160405280929190818152602001828054612865906138e1565b80156128b25780601f10612887576101008083540402835291602001916128b2565b820191906000526020600020905b81548152906001019060200180831161289557829003601f168201915b505050600184015460028501546003860180549596600160a060020a03938416969290931694509192506128e5906138e1565b80601f0160208091040260200160405190810160405280929190818152602001828054612911906138e1565b801561295e5780601f106129335761010080835404028352916020019161295e565b820191906000526020600020905b81548152906001019060200180831161294157829003601f168201915b50505050600483015460058401546006850180549495929460ff909216935090612987906138e1565b80601f01602080910402602001604051908101604052809291908181526020018280546129b3906138e1565b8015612a005780601f106129d557610100808354040283529160200191612a00565b820191906000526020600020905b8154815290600101906020018083116129e357829003601f168201915b5050505050905087565b600282604051612a1a91906138c5565b9081526040519081900360200190206001015433600160a060020a039091161480612a715750600282604051612a5091906138c5565b9081526040519081900360200190206002015433600160a060020a03909116145b612af45760405160e560020a62461bcd02815260206004820152604260248201527f4f6e6c792074686520706c61696e74696666206f7220646566656e64616e742060448201527f63616e2061737369676e2061206c6567616c20726570726573656e7461746976606482015260f160020a61329702608482015260a401610761565b600482604051612b0491906138c5565b90815260405160209181900382018120805460018101825560009182529290209091018054600160a060020a031916600160a060020a0384161790557f224b236d0a25f71407f98f4be8f238b4923010de28942c14866f91f772ef0cb9906108ba9084908490613fc3565b600160a060020a0381166000908152600a60209081526040808320805482518185028101850190935280835260609492939192909184015b82821015612c53578382906000526020600020018054612bc6906138e1565b80601f0160208091040260200160405190810160405280929190818152602001828054612bf2906138e1565b8015612c3f5780601f10612c1457610100808354040283529160200191612c3f565b820191906000526020600020905b815481529060010190602001808311612c2257829003601f168201915b505050505081526020019060010190612ba7565b505050509050919050565b600160a060020a03811660009081526009602052604090206003015460ff16612c9c5760405160e560020a62461bcd02815260040161076190613bce565b60003411612d005760405160e560020a62461bcd02815260206004820152602560248201527f596f75206d7573742073656e6420736f6d65206d6f6e69657320746f20646570604482015260d960020a6437b9b4ba17026064820152608401610761565b600160a060020a0381166000908152600c602052604081208054349290612d289084906138b2565b909155505060405133907f5548c837ab068cf56a2c2479df0882a4922fd203edb7517321831d95078c5f6290612d619084903490613a64565b60405180910390a250565b606081600003612d96575050604080518082019091526001815260fc60020a600302602082015290565b8160005b8115612dc05780612daa81613a97565b9150612db99050600a83614008565b9150612d9a565b6000816001604060020a03811115612dda57612dda612f45565b6040519080825280601f01601f191660200182016040528015612e04576020820181803683370190505b5090505b8415612e7257612e1960018361389f565b9150612e26600a8661401c565b612e319060306138b2565b60f860020a02818381518110612e4957612e49613a7d565b6020010190600160f860020a031916908160001a905350612e6b600a86614008565b9450612e08565b949350505050565b6040805160e081018252606080825260006020830181905292820183905280820152608081018290529060a08201908152602001606081525090565b508054612ec2906138e1565b6000825580601f10612ed2575050565b601f01602090049060005260206000209081019061105691905b80821115612f005760008155600101612eec565b5090565b8035600160a060020a03811681146124f257600080fd5b60008060408385031215612f2e57600080fd5b612f3783612f04565b946020939093013593505050565b60e060020a634e487b710260009081526041600452602490fd5b600082601f830112612f7057600080fd5b81356001604060020a0380821115612f8a57612f8a612f45565b604051601f8301601f19908116603f01168101908282118183101715612fb257612fb2612f45565b81604052838152866020858801011115612fcb57600080fd5b836020870160208301376000602085830101528094505050505092915050565b600060208284031215612ffd57600080fd5b81356001604060020a0381111561301357600080fd5b612e7284828501612f5f565b60005b8381101561303a578181015183820152602001613022565b50506000910152565b6000815180845261305b81602086016020860161301f565b601f01601f19169290920160200192915050565b60e060020a634e487b710260009081526021600452602490fd5b600381106130995761309961306f565b9052565b602081526000825160e060208401526130ba610100840182613043565b90506020840151600160a060020a03808216604086015280604087015116606086015250506060840151601f19808584030160808601526130fb8383613043565b9250608086015160a086015260a0860151915061311b60c0860183613089565b60c08601519150808584030160e0860152506131378282613043565b95945050505050565b60006020828403121561315257600080fd5b61161482612f04565b600781106130995761309961306f565b60608152600061317e6060830186613043565b905061318d602083018561315b565b8215156040830152949350505050565b60208101610c7b8284613089565b60008083601f8401126131bd57600080fd5b5081356001604060020a038111156131d457600080fd5b6020830191508360208285010111156131ec57600080fd5b9250929050565b6000806020838503121561320657600080fd5b82356001604060020a0381111561321c57600080fd5b613228858286016131ab565b90969095509350505050565b60006020828403121561324657600080fd5b5035919050565b6020815260006116146020830184613043565b8035600781106124f257600080fd5b60008060006060848603121561328457600080fd5b61328d84612f04565b925060208401356001604060020a038111156132a857600080fd5b6132b486828701612f5f565b9250506132c360408501613260565b90509250925092565b6000806000604084860312156132e157600080fd5b6132ea84612f04565b925060208401356001604060020a0381111561330557600080fd5b613311868287016131ab565b9497909650939450505050565b60008060006040848603121561333357600080fd5b83356001604060020a0381111561334957600080fd5b613355868287016131ab565b90945092506132c3905060208501612f04565b60008060006060848603121561337d57600080fd5b61338684612f04565b925061339460208501612f04565b915060408401356001604060020a038111156133af57600080fd5b6133bb86828701612f5f565b9150509250925092565b600080604083850312156133d857600080fd5b82356001604060020a03808211156133ef57600080fd5b6133fb86838701612f5f565b9350602085013591508082111561341157600080fd5b5061341e85828601612f5f565b9150509250929050565b6000806000806060858703121561343e57600080fd5b61344785612f04565b93506020850135925060408501356001604060020a0381111561346957600080fd5b613475878288016131ab565b95989497509550505050565b600160a060020a0391909116815260200190565b60a0815260006134a860a0830188613043565b82810360208401526134ba8188613043565b9050856040840152841515606084015282810360808401526134dc8185613043565b98975050505050505050565b600080604083850312156134fb57600080fd5b82356001604060020a0381111561351157600080fd5b61351d85828601612f5f565b95602094909401359450505050565b6000806000806000806080878903121561354557600080fd5b61354e87612f04565b955060208701356001604060020a038082111561356a57600080fd5b6135768a838b016131ab565b9097509550604089013591508082111561358f57600080fd5b5061359c89828a016131ab565b979a9699509497949695606090950135949350505050565b600080604083850312156135c757600080fd5b6135d083612f04565b915060208301356001604060020a038111156135eb57600080fd5b61341e85828601612f5f565b60208082528251828201819052600091906040908185019080840286018301878501865b8381101561367c57888303603f1901855281518051600160a060020a0316845287810151888501528681015115158785015260609081015160809185018290529061366881860183613043565b96890196945050509086019060010161361b565b509098975050505050505050565b6000806040838503121561369d57600080fd5b8235915060208301356001604060020a038111156135eb57600080fd5b600080604083850312156136cd57600080fd5b6136d683612f04565b91506136e460208401613260565b90509250929050565b60e08152600061370060e083018a613043565b600160a060020a0389811660208501528816604084015282810360608401526137298188613043565b905085608084015261373e60a0840186613089565b82810360c08401526137508185613043565b9a9950505050505050505050565b6000806040838503121561377157600080fd5b82356001604060020a0381111561378757600080fd5b61379385828601612f5f565b9250506136e460208401612f04565b600060208083018184528085518083526040860191506040848202870101925083870160005b828110156137f657603f198886030184526137e4858351613043565b945092850192908501906001016137c8565b5092979650505050505050565b6020808252602d908201527f696e6d617465206973206e6f7420696e20637573746f6479206f7220686173206040820152609a60020a6c1899595b881c995b19585cd95902606082015260800190565b6020808252601590820152605960020a7424b739bab33334b1b4b2b73a103130b630b731b29702604082015260600190565b60e060020a634e487b710260009081526011600452602490fd5b81810381811115610c7b57610c7b613885565b80820180821115610c7b57610c7b613885565b600082516138d781846020870161301f565b9190910192915050565b6002810460018216806138f557607f821691505b6020821081036139195760e060020a634e487b710260009081526022600452602490fd5b50919050565b6020808252600e90820152609260020a6d139bdd08185d5d1a1bdc9a5e995902604082015260600190565b601f821115610d32576000818152602081206020601f860104810160208610156139715750805b6020601f860104820191505b81811015611f975782815560010161397d565b6002808302600893909302900a6000190419161790565b6001604060020a038311156139be576139be612f45565b6139d2836139cc83546138e1565b8361394a565b6000601f841160018114613a0057600085156139ee5750838201355b6139f88682613990565b845550613a5d565b600083815260209020601f19861690835b82811015613a315786850135825560209485019460019092019101613a11565b5086821015613a5157858401356008601f89160260020a60001904191681555b50506001600286020183555b5050505050565b600160a060020a03929092168252602082015260400190565b60e060020a634e487b710260009081526032600452602490fd5b600060018201613aa957613aa9613885565b5060010190565b81516001604060020a03811115613ac957613ac9612f45565b613add81613ad784546138e1565b8461394a565b602080601f831160018114613b0c5760008415613afa5750858301515b613b048582613990565b865550611f97565b600085815260208120601f198616915b82811015613b3b57888601518255948401946001909101908401613b1c565b5085821015613b5b57878501516008601f88160260020a60001904191681555b5050505050600202600101905550565b600160a060020a0384168152606060208201819052600090613b8f90830185613043565b9050612e72604083018461315b565b6020808252601390820152606960020a723737ba1030903b30b634b21037b33334b1b2b902604082015260600190565b60208082526027908201527f696e6d61746520616c72656164792072656c65617365642c206e6f7420696e20604082015260c860020a66637573746f647902606082015260800190565b81835281816020850137506000828201602090810191909152601f909101601f19169091010190565b600160a060020a03858116825284166020820152606060408201819052600090613c6e9083018486613c18565b9695505050505050565b8183823760009101908152919050565b604081526000613c9c604083018587613c18565b9050600160a060020a0383166020830152949350505050565b6020808252601790820152604960020a7627b33334b1b2b9103237b2b9903737ba1032bc34b9ba1702604082015260600190565b600160a060020a0386811682528516602082015260408101849052608060608201819052600090613d1d9083018486613c18565b979650505050505050565b600160a060020a0389811682528816602082015260c060408201819052600090613d55908301888a613c18565b8281036060840152613d68818789613c18565b905084608084015282810360a0840152613d828185613043565b9b9a5050505050505050505050565b600160a060020a03868116825285166020808301919091526080604083015284546000918291613dc0816138e1565b80608087015260a0600180841660008114613de25760018114613dfb57613e29565b60ff198516898401528315158602890183019650613e29565b8b6000528560002060005b85811015613e215781548b8201860152908301908701613e06565b8a0184019750505b50505050505082810360608401526134dc818587613c18565b600160a060020a03841681528260208201526060604082015260006131376060830184613043565b600160a060020a038316815260408101611614602083018461315b565b60008351613e9981846020880161301f565b835190830190613ead81836020880161301f565b01949350505050565b818103613ec1575050565b613ecb82546138e1565b6001604060020a03811115613ee257613ee2612f45565b613ef081613ad784546138e1565b6000601f821160018114613f1e5760008315613f0c5750848201545b613f168482613990565b855550613a5d565b600085815260209020601f19841690600086815260209020845b83811015613f585782860154825560019586019590910190602001613f38565b5085831015613b5b57818501546008601f88160260020a60001904191681555050505050600202600101905550565b608081526000613f9a6080830187613043565b600160a060020a038681166020850152851660408401528281036060840152613d1d8185613043565b604081526000613fd66040830185613043565b9050600160a060020a03831660208301529392505050565b60e060020a634e487b710260009081526012600452602490fd5b60008261401757614017613fee565b500490565b60008261402b5761402b613fee565b50069056fea2646970667358221220bb355dbf8e232aa2b89527022747b4794ead43f0db678f239146df7a3eefc01064736f6c63430008120033",
  "immutableReferences": {},
  "source": "// SPDX-License-Identifier: BSL-1.1\npragma solidity >=0.4.22 <0.9.0;\n\nimport \"./CountyGovernment.sol\";\nimport \"../Police.sol\";\nimport \"../Case.sol\";\n\ninterface ICountyGovernment {\n    enum ProposalStatus { Proposed, Approved, Rejected }\n\n    function getCountyAddress() external view returns (address);\n    function isCommissioner(address account) external view returns (bool);\n    function addCommissioner(address newCommissioner) external;\n    function submitProposal(string memory description) external;\n    function decideProposal(uint256 proposalId, ProposalStatus status) external;\n}\n\ncontract Jail is Police {\n\n    struct Inmate {\n        string first_name;\n        string last_name;\n        uint256 dob;\n        bool custody;\n        string caseIndex;\n    }\n\n    struct Message {\n        address other;\n        uint256 timestamp;\n        bool attorney;\n        string text;\n    }\n\n    uint256 public balance;\n    uint256 public commissary_revenue;\n\n    mapping (address => Inmate) public inmates;\n    mapping (address => string[]) private inmate_property;\n    mapping (address => Message[]) private inmate_messages;\n    mapping (address => uint256) private inmate_balances;\n\n    event InmateAdded(address,address,string,string,uint256,string);\n    event InmateReleased(address,address,string,string);\n    event InmatePropertyAdded(address,address,string);\n    event Deposit(address indexed from,address inmate, uint256 value);\n    event Withdrawal(address,uint256);\n    event CommissaryPurchase(address,uint256,string);\n    event InmateFundsTransfer(address,address,uint256);\n    event InmateMessageDeleted(address,address,uint,string);\n\n    string public facilityName;\n\n    ICountyGovernment countyGovernmentContract;\n\n    constructor(address countyGovvernmentAddress) {\n        countyGovernmentContract = ICountyGovernment(countyGovvernmentAddress);\n    }\n\n    modifier isInmate() {\n        require(inmates[msg.sender].custody,\"inmate is not in custody or has been released\");\n        _;\n    }\n\n    // This function can receive Ether\n    receive() external payable {\n        // Do something with the received Ether\n    }\n\n    function addInmate(address inmate, string calldata first_name,string calldata last_name,uint256 dob) external isOfficer {\n        string memory caseIndex = getCaseIndexByDefendant(inmate);\n        inmates[inmate] = Inmate(first_name,last_name,dob,true,caseIndex);\n        emit InmateAdded(msg.sender,inmate, first_name, last_name, dob, caseIndex);\n    }\n\n    function setFacilityName(string calldata name) external isOwner {\n        facilityName = name;\n    }\n\n    function addInmateProperty(address inmate,string calldata description) external isOfficer {\n        require(inmates[inmate].custody,\"inmate already released, not in custody\");\n        inmate_property[inmate].push(description);\n        emit InmatePropertyAdded(msg.sender, inmate, description);\n    }\n\n    function releaseInmate(address inmate,string calldata reason) external isOfficer {\n        require(inmates[inmate].custody,\"inmate already released, not in custody\");\n        inmates[inmate].custody = false;\n        emit InmateReleased(msg.sender,inmate,inmates[inmate].caseIndex,reason);\n    }\n\n    function getCaseInfo(address inmate) external view returns (CaseRecord memory){\n      return getCaseInfo(inmates[inmate].caseIndex); \n    }\n\n    function getInmateProperty(address inmate) external view returns (string[] memory) {\n        return inmate_property[inmate];\n    }\n\n    function inmateAssignLegalRepresentative(address _representative) external isInmate {\n        assignLegalRepresentative(inmates[msg.sender].caseIndex,_representative);\n    }\n\n    function sendInmateMessage(address inmate,string memory _message) external {\n        bool attorney = false;\n        if (checkAssignedAttorney(inmates[inmate].caseIndex)) {\n            attorney = true;\n        }\n        inmate_messages[inmate].push(Message(msg.sender,block.timestamp,attorney,_message));\n    }\n\n    function getInmateMessages() external view isInmate returns (Message[] memory) {\n        return inmate_messages[msg.sender];\n    }\n\n    function getNonAttorneyInmateMessages(address inmate) external view isOfficer returns (Message[] memory) {\n        Message[] memory _messages;\n        uint count = 0;\n\n        for (uint i=0; i < inmate_messages[inmate].length; i++) {\n            if (inmate_messages[inmate][i].attorney == false) {\n                _messages[count++] = inmate_messages[inmate][i];\n            }\n        }\n        return _messages;\n    }\n\n    function deleteNonAttorneyInmateMessage(address inmate,uint msgno,string calldata reason) external isOfficer {\n        require(inmate_messages[inmate][msgno].attorney == false,\"cannot delete attorney privilege messages\");\n        delete inmate_messages[inmate][msgno];\n        emit InmateMessageDeleted(msg.sender,inmate,msgno,reason);\n    }\n\n    function deposit(address inmate) external payable {\n        require(inmates[inmate].custody,\"inmate already released, not in custody\");\n        require(msg.value > 0, \"You must send some monies to deposit.\");\n        inmate_balances[inmate] += msg.value;\n        emit Deposit(msg.sender,inmate,msg.value);\n    }\n\n    function getBalance() external view isInmate returns (uint256) {\n        return inmate_balances[msg.sender];\n    }\n\n    function withdraw(uint256 amount) external isInmate {\n        require(amount <= address(this).balance, \"Insufficient balance.\");\n        require(amount <= inmate_balances[msg.sender], \"Insufficient balance.\");\n        inmate_balances[msg.sender] -= amount;\n        payable(msg.sender).transfer(amount); // pay out funds to inmate wallet\n        emit Withdrawal(msg.sender,amount);\n    }    \n\n    function buy(uint256 amount, string memory item) external isInmate {\n        require(inmates[msg.sender].custody,\"inmate already released, not in custody\"); // can onyl buy from commissary while in custody\n        require(amount <= inmate_balances[msg.sender], \"Insufficient balance.\");\n        inmate_balances[msg.sender] -= amount;\n        commissary_revenue += amount;\n        emit CommissaryPurchase(msg.sender,amount,item);\n    }\n\n    function transferToAnotherInmate(address inmate,uint256 amount) external isInmate {\n        require(inmates[inmate].custody,\"receiving inmate already released, not in custody\");\n        require(amount <= inmate_balances[msg.sender], \"Insufficient balance.\");\n        inmate_balances[msg.sender] -= amount;\n        inmate_balances[inmate] += amount;\n        emit InmateFundsTransfer(msg.sender,inmate,amount);\n    }\n\n}",
  "sourcePath": "/Volumes/My Book/projects/pingleware-contracts/contracts/government/county/Jail.sol",
  "compiler": {
    "name": "solc",
    "version": "0.8.18+commit.87f61d96.Emscripten.clang"
  },
  "schemaVersion": "3.4.12",
  "updatedAt": "2023-10-22T00:31:38.781Z",
  "devdoc": {
    "kind": "dev",
    "methods": {},
    "version": 1
  },
  "userdoc": {
    "kind": "user",
    "methods": {},
    "version": 1
  }
}