{
  "contractName": "Lesson",
  "abi": [
    {
      "anonymous": false,
      "inputs": [
        {
          "indexed": false,
          "internalType": "address",
          "name": "sender",
          "type": "address"
        },
        {
          "indexed": false,
          "internalType": "uint256",
          "name": "amount",
          "type": "uint256"
        }
      ],
      "name": "FallbackEvent",
      "type": "event"
    },
    {
      "anonymous": false,
      "inputs": [
        {
          "indexed": true,
          "internalType": "address",
          "name": "previousOwner",
          "type": "address"
        },
        {
          "indexed": true,
          "internalType": "address",
          "name": "newOwner",
          "type": "address"
        }
      ],
      "name": "OwnershipTransferred",
      "type": "event"
    },
    {
      "anonymous": false,
      "inputs": [
        {
          "indexed": false,
          "internalType": "address",
          "name": "sender",
          "type": "address"
        },
        {
          "indexed": false,
          "internalType": "uint256",
          "name": "amount",
          "type": "uint256"
        }
      ],
      "name": "ReceiveEvent",
      "type": "event"
    },
    {
      "stateMutability": "payable",
      "type": "fallback"
    },
    {
      "inputs": [],
      "name": "VERSION",
      "outputs": [
        {
          "internalType": "string",
          "name": "",
          "type": "string"
        }
      ],
      "stateMutability": "view",
      "type": "function"
    },
    {
      "inputs": [],
      "name": "WAIT",
      "outputs": [
        {
          "internalType": "uint256",
          "name": "",
          "type": "uint256"
        }
      ],
      "stateMutability": "view",
      "type": "function"
    },
    {
      "inputs": [
        {
          "internalType": "address",
          "name": "user",
          "type": "address"
        }
      ],
      "name": "addLessonPlanner",
      "outputs": [],
      "stateMutability": "nonpayable",
      "type": "function"
    },
    {
      "inputs": [
        {
          "internalType": "address",
          "name": "user",
          "type": "address"
        }
      ],
      "name": "addStudent",
      "outputs": [],
      "stateMutability": "nonpayable",
      "type": "function"
    },
    {
      "inputs": [
        {
          "internalType": "address",
          "name": "user",
          "type": "address"
        }
      ],
      "name": "addStudentAssistance",
      "outputs": [],
      "stateMutability": "nonpayable",
      "type": "function"
    },
    {
      "inputs": [
        {
          "internalType": "address",
          "name": "user",
          "type": "address"
        }
      ],
      "name": "addTeacher",
      "outputs": [],
      "stateMutability": "nonpayable",
      "type": "function"
    },
    {
      "inputs": [
        {
          "internalType": "address",
          "name": "user",
          "type": "address"
        },
        {
          "internalType": "enum EducationRoles.Role",
          "name": "_role",
          "type": "uint8"
        }
      ],
      "name": "addUser",
      "outputs": [],
      "stateMutability": "nonpayable",
      "type": "function"
    },
    {
      "inputs": [],
      "name": "getOwner",
      "outputs": [
        {
          "internalType": "address",
          "name": "",
          "type": "address"
        }
      ],
      "stateMutability": "payable",
      "type": "function"
    },
    {
      "inputs": [],
      "name": "renounceOwnership",
      "outputs": [],
      "stateMutability": "payable",
      "type": "function"
    },
    {
      "inputs": [
        {
          "internalType": "address",
          "name": "newOwner",
          "type": "address"
        }
      ],
      "name": "transferOwnership",
      "outputs": [],
      "stateMutability": "payable",
      "type": "function"
    },
    {
      "stateMutability": "payable",
      "type": "receive"
    },
    {
      "inputs": [
        {
          "internalType": "string",
          "name": "name",
          "type": "string"
        },
        {
          "internalType": "string",
          "name": "description",
          "type": "string"
        },
        {
          "internalType": "string",
          "name": "course",
          "type": "string"
        },
        {
          "internalType": "string",
          "name": "subject",
          "type": "string"
        },
        {
          "internalType": "uint256",
          "name": "duration",
          "type": "uint256"
        }
      ],
      "name": "createLesson",
      "outputs": [
        {
          "internalType": "uint256",
          "name": "",
          "type": "uint256"
        }
      ],
      "stateMutability": "nonpayable",
      "type": "function"
    },
    {
      "inputs": [
        {
          "internalType": "uint256",
          "name": "index",
          "type": "uint256"
        }
      ],
      "name": "getLesson",
      "outputs": [
        {
          "components": [
            {
              "internalType": "string",
              "name": "name",
              "type": "string"
            },
            {
              "internalType": "string",
              "name": "description",
              "type": "string"
            },
            {
              "internalType": "string",
              "name": "course",
              "type": "string"
            },
            {
              "internalType": "string",
              "name": "subject",
              "type": "string"
            },
            {
              "internalType": "uint256",
              "name": "created",
              "type": "uint256"
            },
            {
              "internalType": "address",
              "name": "created_by",
              "type": "address"
            },
            {
              "internalType": "uint256",
              "name": "duration",
              "type": "uint256"
            },
            {
              "internalType": "string[]",
              "name": "objectives",
              "type": "string[]"
            },
            {
              "internalType": "string[]",
              "name": "tasks",
              "type": "string[]"
            },
            {
              "internalType": "string[]",
              "name": "action_plan",
              "type": "string[]"
            },
            {
              "internalType": "string[]",
              "name": "materials",
              "type": "string[]"
            },
            {
              "internalType": "string[]",
              "name": "equipment",
              "type": "string[]"
            },
            {
              "internalType": "string[]",
              "name": "references",
              "type": "string[]"
            },
            {
              "internalType": "string[]",
              "name": "homework",
              "type": "string[]"
            },
            {
              "internalType": "string[]",
              "name": "feedback",
              "type": "string[]"
            }
          ],
          "internalType": "struct Lesson.LessonMetadata",
          "name": "",
          "type": "tuple"
        }
      ],
      "stateMutability": "view",
      "type": "function"
    },
    {
      "inputs": [],
      "name": "getLessons",
      "outputs": [
        {
          "components": [
            {
              "internalType": "string",
              "name": "name",
              "type": "string"
            },
            {
              "internalType": "string",
              "name": "description",
              "type": "string"
            },
            {
              "internalType": "string",
              "name": "course",
              "type": "string"
            },
            {
              "internalType": "string",
              "name": "subject",
              "type": "string"
            },
            {
              "internalType": "uint256",
              "name": "created",
              "type": "uint256"
            },
            {
              "internalType": "address",
              "name": "created_by",
              "type": "address"
            },
            {
              "internalType": "uint256",
              "name": "duration",
              "type": "uint256"
            },
            {
              "internalType": "string[]",
              "name": "objectives",
              "type": "string[]"
            },
            {
              "internalType": "string[]",
              "name": "tasks",
              "type": "string[]"
            },
            {
              "internalType": "string[]",
              "name": "action_plan",
              "type": "string[]"
            },
            {
              "internalType": "string[]",
              "name": "materials",
              "type": "string[]"
            },
            {
              "internalType": "string[]",
              "name": "equipment",
              "type": "string[]"
            },
            {
              "internalType": "string[]",
              "name": "references",
              "type": "string[]"
            },
            {
              "internalType": "string[]",
              "name": "homework",
              "type": "string[]"
            },
            {
              "internalType": "string[]",
              "name": "feedback",
              "type": "string[]"
            }
          ],
          "internalType": "struct Lesson.LessonMetadata[]",
          "name": "",
          "type": "tuple[]"
        }
      ],
      "stateMutability": "view",
      "type": "function"
    },
    {
      "inputs": [
        {
          "internalType": "uint256",
          "name": "index",
          "type": "uint256"
        },
        {
          "internalType": "string",
          "name": "objective",
          "type": "string"
        }
      ],
      "name": "addObjective",
      "outputs": [
        {
          "internalType": "uint256",
          "name": "",
          "type": "uint256"
        }
      ],
      "stateMutability": "nonpayable",
      "type": "function"
    },
    {
      "inputs": [
        {
          "internalType": "uint256",
          "name": "index",
          "type": "uint256"
        },
        {
          "internalType": "string",
          "name": "task",
          "type": "string"
        }
      ],
      "name": "addTask",
      "outputs": [
        {
          "internalType": "uint256",
          "name": "",
          "type": "uint256"
        }
      ],
      "stateMutability": "nonpayable",
      "type": "function"
    },
    {
      "inputs": [
        {
          "internalType": "uint256",
          "name": "index",
          "type": "uint256"
        },
        {
          "internalType": "string",
          "name": "plan",
          "type": "string"
        }
      ],
      "name": "addActionPlan",
      "outputs": [
        {
          "internalType": "uint256",
          "name": "",
          "type": "uint256"
        }
      ],
      "stateMutability": "nonpayable",
      "type": "function"
    },
    {
      "inputs": [
        {
          "internalType": "uint256",
          "name": "index",
          "type": "uint256"
        },
        {
          "internalType": "string",
          "name": "material",
          "type": "string"
        }
      ],
      "name": "addMaterial",
      "outputs": [
        {
          "internalType": "uint256",
          "name": "",
          "type": "uint256"
        }
      ],
      "stateMutability": "nonpayable",
      "type": "function"
    },
    {
      "inputs": [
        {
          "internalType": "uint256",
          "name": "index",
          "type": "uint256"
        },
        {
          "internalType": "string",
          "name": "equipment",
          "type": "string"
        }
      ],
      "name": "addEquipment",
      "outputs": [
        {
          "internalType": "uint256",
          "name": "",
          "type": "uint256"
        }
      ],
      "stateMutability": "nonpayable",
      "type": "function"
    },
    {
      "inputs": [
        {
          "internalType": "uint256",
          "name": "index",
          "type": "uint256"
        },
        {
          "internalType": "string",
          "name": "_reference",
          "type": "string"
        }
      ],
      "name": "addReference",
      "outputs": [
        {
          "internalType": "uint256",
          "name": "",
          "type": "uint256"
        }
      ],
      "stateMutability": "nonpayable",
      "type": "function"
    },
    {
      "inputs": [
        {
          "internalType": "uint256",
          "name": "index",
          "type": "uint256"
        },
        {
          "internalType": "string",
          "name": "homework",
          "type": "string"
        }
      ],
      "name": "addHomework",
      "outputs": [
        {
          "internalType": "uint256",
          "name": "",
          "type": "uint256"
        }
      ],
      "stateMutability": "nonpayable",
      "type": "function"
    },
    {
      "inputs": [
        {
          "internalType": "uint256",
          "name": "index",
          "type": "uint256"
        },
        {
          "internalType": "string",
          "name": "feedback",
          "type": "string"
        }
      ],
      "name": "addFeedback",
      "outputs": [
        {
          "internalType": "uint256",
          "name": "",
          "type": "uint256"
        }
      ],
      "stateMutability": "nonpayable",
      "type": "function"
    }
  ],
  "bytecode": "0x6080604052600060015534801561001557600080fd5b5060008054600160a060020a031916339081178255426001556040519091907f8be0079c531659141344cd1fd0a4f28419497f9722a3daafe3b4186f6b6457e0908290a3613253806100686000396000f3fe6080604052600436106101015760e060020a60003504632e3c892181146101c85780633867d89d146101ea5780633bc6e3091461021d578063437072b01461023d57806358fcbbfd1461025d578063715018a61461027d578063893d20e814610285578063902d6c53146102a55780639c3eead9146102c5578063ac30a4c4146102e5578063b8fb3a5114610305578063b9d162021461031a578063bd06ea191461033a578063c5ad1f311461035a578063cbfe253f1461037a578063db5a9885146103a7578063dd23f8ed146103c7578063dd79d1a0146103e7578063e28aa48a14610407578063f2fde38b14610429578063ffa1ad741461043c57610141565b36610141577fcc85d09d309785db93d6df19917f2e6cc07fe27cd01c08c8279145deb5cf45263334604051610137929190612a08565b60405180910390a1005b3233146101975760405160e560020a62461bcd0281526020600482015260196024820152603860020a787068697368696e672061747461636b2064657465637465643f0260448201526064015b60405180910390fd5b7f26875833861a2b006512a11f1b86edf95df96131040f3caeed72989ee98580833334604051610137929190612a08565b3480156101d457600080fd5b506101e86101e3366004612a3d565b610482565b005b3480156101f657600080fd5b5061020a610205366004612b05565b610565565b6040519081526020015b60405180910390f35b34801561022957600080fd5b506101e8610238366004612a3d565b6106ac565b34801561024957600080fd5b506101e8610258366004612a3d565b61071c565b34801561026957600080fd5b5061020a610278366004612b05565b61078b565b6101e86108cf565b61028d610934565b604051600160a060020a039091168152602001610214565b3480156102b157600080fd5b5061020a6102c0366004612b05565b6109aa565b3480156102d157600080fd5b506101e86102e0366004612b4b565b610aee565b3480156102f157600080fd5b5061020a610300366004612b86565b610b89565b34801561031157600080fd5b5061020a601e81565b34801561032657600080fd5b5061020a610335366004612b05565b610de7565b34801561034657600080fd5b506101e8610355366004612a3d565b610f2b565b34801561036657600080fd5b5061020a610375366004612b05565b610f97565b34801561038657600080fd5b5061039a610395366004612c3a565b6110db565b6040516102149190612e67565b3480156103b357600080fd5b5061020a6103c2366004612b05565b611ae3565b3480156103d357600080fd5b5061020a6103e2366004612b05565b611c27565b3480156103f357600080fd5b5061020a610402366004612b05565b611d6b565b34801561041357600080fd5b5061041c611eaf565b6040516102149190612e7a565b6101e8610437366004612a3d565b612862565b34801561044857600080fd5b506104756040518060400160405280600a815260200160b060020a69312e362e342d626574610281525081565b6040516102149190612edb565b60043360009081526003602052604090205460ff1660058111156104a8576104a8612eee565b146104c85760405160e560020a62461bcd02815260040161018e90612f08565b600160a060020a03811660009081526003602052604081205460ff1660058111156104f5576104f5612eee565b146105385760405160e560020a62461bcd02815260206004820152600d6024820152609a60020a6c1b9bdd0818481cdd1d59195b9d02604482015260640161018e565b600160a060020a038116600090815260036020526040902080546001919060ff191682805b021790555050565b600060033360009081526003602052604090205460ff16600581111561058d5761058d612eee565b146105ad5760405160e560020a62461bcd02815260040161018e90612f4c565b33600160a060020a0316600484815481106105ca576105ca612f83565b600091825260209091206005600f909202010154600160a060020a0316146106075760405160e560020a62461bcd02815260040161018e90612f9d565b816004848154811061061b5761061b612f83565b90600052602060002090600f0201600b016004858154811061063f5761063f612f83565b90600052602060002090600f0201600b01805490508154811061066457610664612f83565b90600052602060002001908161067a919061307b565b506004838154811061068e5761068e612f83565b90600052602060002090600f0201600b018054905090505b92915050565b60053360009081526003602052604090205460ff1660058111156106d2576106d2612eee565b146106f25760405160e560020a62461bcd02815260040161018e90613140565b600160a060020a038116600090815260036020526040902080546004919060ff191660018361055d565b60043360009081526003602052604090205460ff16600581111561074257610742612eee565b146107625760405160e560020a62461bcd02815260040161018e90612f08565b600160a060020a0381166000908152600360208190526040909120805460ff191660018361055d565b600060033360009081526003602052604090205460ff1660058111156107b3576107b3612eee565b146107d35760405160e560020a62461bcd02815260040161018e90612f4c565b33600160a060020a0316600484815481106107f0576107f0612f83565b600091825260209091206005600f909202010154600160a060020a03161461082d5760405160e560020a62461bcd02815260040161018e90612f9d565b816004848154811061084157610841612f83565b90600052602060002090600f02016008016004858154811061086557610865612f83565b90600052602060002090600f0201600801805490508154811061088a5761088a612f83565b9060005260206000200190816108a0919061307b565b50600483815481106108b4576108b4612f83565b600091825260209091206008600f9092020101549392505050565b600054600160a060020a031633146108fc5760405160e560020a62461bcd02815260040161018e90613177565b60008054604051600160a060020a03909116906000805160206131fe833981519152908390a360008054600160a060020a0319169055565b6000601e60015461094591906131ab565b42116109665760405160e560020a62461bcd02815260040161018e906131d0565b601e60015461097591906131ab565b42116109965760405160e560020a62461bcd02815260040161018e906131d0565b5042600155600054600160a060020a031690565b600060033360009081526003602052604090205460ff1660058111156109d2576109d2612eee565b146109f25760405160e560020a62461bcd02815260040161018e90612f4c565b33600160a060020a031660048481548110610a0f57610a0f612f83565b600091825260209091206005600f909202010154600160a060020a031614610a4c5760405160e560020a62461bcd02815260040161018e90612f9d565b8160048481548110610a6057610a60612f83565b90600052602060002090600f0201600e0160048581548110610a8457610a84612f83565b90600052602060002090600f0201600e018054905081548110610aa957610aa9612f83565b906000526020600020019081610abf919061307b565b5060048381548110610ad357610ad3612f83565b60009182526020909120600e600f9092020101549392505050565b600054600160a060020a03163314610b4b5760405160e560020a62461bcd02815260206004820152601b60248201527f756e617574686f72697a65642c206e6f7420746865206f776e65720000000000604482015260640161018e565b600160a060020a0382166000908152600360205260409020805482919060ff19166001836005811115610b8057610b80612eee565b02179055505050565b600060033360009081526003602052604090205460ff166005811115610bb157610bb1612eee565b14610bd15760405160e560020a62461bcd02815260040161018e90612f4c565b6060604051806101e0016040528088815260200187815260200186815260200185815260200142815260200133600160a060020a03168152602001848152602001828152602001828152602001828152602001828152602001828152602001828152602001828152602001828152506004808054905081548110610c5757610c57612f83565b600091825260209091208251600f90920201908190610c76908261307b565b5060208201516001820190610c8b908261307b565b5060408201516002820190610ca0908261307b565b5060608201516003820190610cb5908261307b565b506080820151600482015560a0820151600582018054600160a060020a031916600160a060020a0390921691909117905560c0820151600682015560e08201518051610d0b916007840191602090910190612943565b506101008201518051610d28916008840191602090910190612943565b506101208201518051610d45916009840191602090910190612943565b506101408201518051610d6291600a840191602090910190612943565b506101608201518051610d7f91600b840191602090910190612943565b506101808201518051610d9c91600c840191602090910190612943565b506101a08201518051610db991600d840191602090910190612943565b506101c08201518051610dd691600e840191602090910190612943565b505060045498975050505050505050565b600060033360009081526003602052604090205460ff166005811115610e0f57610e0f612eee565b14610e2f5760405160e560020a62461bcd02815260040161018e90612f4c565b33600160a060020a031660048481548110610e4c57610e4c612f83565b600091825260209091206005600f909202010154600160a060020a031614610e895760405160e560020a62461bcd02815260040161018e90612f9d565b8160048481548110610e9d57610e9d612f83565b90600052602060002090600f020160070160048581548110610ec157610ec1612f83565b90600052602060002090600f02016007018054905081548110610ee657610ee6612f83565b906000526020600020019081610efc919061307b565b5060048381548110610f1057610f10612f83565b600091825260209091206007600f9092020101549392505050565b60053360009081526003602052604090205460ff166005811115610f5157610f51612eee565b14610f715760405160e560020a62461bcd02815260040161018e90613140565b600160a060020a0381166000908152600360205260408120805460ff191660018361055d565b600060033360009081526003602052604090205460ff166005811115610fbf57610fbf612eee565b14610fdf5760405160e560020a62461bcd02815260040161018e90612f4c565b33600160a060020a031660048481548110610ffc57610ffc612f83565b600091825260209091206005600f909202010154600160a060020a0316146110395760405160e560020a62461bcd02815260040161018e90612f9d565b816004848154811061104d5761104d612f83565b90600052602060002090600f0201600d016004858154811061107157611071612f83565b90600052602060002090600f0201600d01805490508154811061109657611096612f83565b9060005260206000200190816110ac919061307b565b50600483815481106110c0576110c0612f83565b60009182526020909120600d600f9092020101549392505050565b61115d604051806101e0016040528060608152602001606081526020016060815260200160608152602001600081526020016000600160a060020a031681526020016000815260200160608152602001606081526020016060815260200160608152602001606081526020016060815260200160608152602001606081525090565b6004828154811061117057611170612f83565b90600052602060002090600f0201604051806101e001604052908160008201805461119a90612fee565b80601f01602080910402602001604051908101604052809291908181526020018280546111c690612fee565b80156112135780601f106111e857610100808354040283529160200191611213565b820191906000526020600020905b8154815290600101906020018083116111f657829003601f168201915b5050505050815260200160018201805461122c90612fee565b80601f016020809104026020016040519081016040528092919081815260200182805461125890612fee565b80156112a55780601f1061127a576101008083540402835291602001916112a5565b820191906000526020600020905b81548152906001019060200180831161128857829003601f168201915b505050505081526020016002820180546112be90612fee565b80601f01602080910402602001604051908101604052809291908181526020018280546112ea90612fee565b80156113375780601f1061130c57610100808354040283529160200191611337565b820191906000526020600020905b81548152906001019060200180831161131a57829003601f168201915b5050505050815260200160038201805461135090612fee565b80601f016020809104026020016040519081016040528092919081815260200182805461137c90612fee565b80156113c95780601f1061139e576101008083540402835291602001916113c9565b820191906000526020600020905b8154815290600101906020018083116113ac57829003601f168201915b50505050508152602001600482015481526020016005820160009054906101000a9004600160a060020a0316600160a060020a0316600160a060020a031681526020016006820154815260200160078201805480602002602001604051908101604052809291908181526020016000905b828210156114e657838290600052602060002001805461145990612fee565b80601f016020809104026020016040519081016040528092919081815260200182805461148590612fee565b80156114d25780601f106114a7576101008083540402835291602001916114d2565b820191906000526020600020905b8154815290600101906020018083116114b557829003601f168201915b50505050508152602001906001019061143a565b50505050815260200160088201805480602002602001604051908101604052809291908181526020016000905b828210156115bf57838290600052602060002001805461153290612fee565b80601f016020809104026020016040519081016040528092919081815260200182805461155e90612fee565b80156115ab5780601f10611580576101008083540402835291602001916115ab565b820191906000526020600020905b81548152906001019060200180831161158e57829003601f168201915b505050505081526020019060010190611513565b50505050815260200160098201805480602002602001604051908101604052809291908181526020016000905b8282101561169857838290600052602060002001805461160b90612fee565b80601f016020809104026020016040519081016040528092919081815260200182805461163790612fee565b80156116845780601f1061165957610100808354040283529160200191611684565b820191906000526020600020905b81548152906001019060200180831161166757829003601f168201915b5050505050815260200190600101906115ec565b505050508152602001600a8201805480602002602001604051908101604052809291908181526020016000905b828210156117715783829060005260206000200180546116e490612fee565b80601f016020809104026020016040519081016040528092919081815260200182805461171090612fee565b801561175d5780601f106117325761010080835404028352916020019161175d565b820191906000526020600020905b81548152906001019060200180831161174057829003601f168201915b5050505050815260200190600101906116c5565b505050508152602001600b8201805480602002602001604051908101604052809291908181526020016000905b8282101561184a5783829060005260206000200180546117bd90612fee565b80601f01602080910402602001604051908101604052809291908181526020018280546117e990612fee565b80156118365780601f1061180b57610100808354040283529160200191611836565b820191906000526020600020905b81548152906001019060200180831161181957829003601f168201915b50505050508152602001906001019061179e565b505050508152602001600c8201805480602002602001604051908101604052809291908181526020016000905b8282101561192357838290600052602060002001805461189690612fee565b80601f01602080910402602001604051908101604052809291908181526020018280546118c290612fee565b801561190f5780601f106118e45761010080835404028352916020019161190f565b820191906000526020600020905b8154815290600101906020018083116118f257829003601f168201915b505050505081526020019060010190611877565b505050508152602001600d8201805480602002602001604051908101604052809291908181526020016000905b828210156119fc57838290600052602060002001805461196f90612fee565b80601f016020809104026020016040519081016040528092919081815260200182805461199b90612fee565b80156119e85780601f106119bd576101008083540402835291602001916119e8565b820191906000526020600020905b8154815290600101906020018083116119cb57829003601f168201915b505050505081526020019060010190611950565b505050508152602001600e8201805480602002602001604051908101604052809291908181526020016000905b82821015611ad5578382906000526020600020018054611a4890612fee565b80601f0160208091040260200160405190810160405280929190818152602001828054611a7490612fee565b8015611ac15780601f10611a9657610100808354040283529160200191611ac1565b820191906000526020600020905b815481529060010190602001808311611aa457829003601f168201915b505050505081526020019060010190611a29565b505050915250909392505050565b600060033360009081526003602052604090205460ff166005811115611b0b57611b0b612eee565b14611b2b5760405160e560020a62461bcd02815260040161018e90612f4c565b33600160a060020a031660048481548110611b4857611b48612f83565b600091825260209091206005600f909202010154600160a060020a031614611b855760405160e560020a62461bcd02815260040161018e90612f9d565b8160048481548110611b9957611b99612f83565b90600052602060002090600f0201600c0160048581548110611bbd57611bbd612f83565b90600052602060002090600f0201600c018054905081548110611be257611be2612f83565b906000526020600020019081611bf8919061307b565b5060048381548110611c0c57611c0c612f83565b60009182526020909120600c600f9092020101549392505050565b600060033360009081526003602052604090205460ff166005811115611c4f57611c4f612eee565b14611c6f5760405160e560020a62461bcd02815260040161018e90612f4c565b33600160a060020a031660048481548110611c8c57611c8c612f83565b600091825260209091206005600f909202010154600160a060020a031614611cc95760405160e560020a62461bcd02815260040161018e90612f9d565b8160048481548110611cdd57611cdd612f83565b90600052602060002090600f020160090160048581548110611d0157611d01612f83565b90600052602060002090600f02016009018054905081548110611d2657611d26612f83565b906000526020600020019081611d3c919061307b565b5060048381548110611d5057611d50612f83565b600091825260209091206009600f9092020101549392505050565b600060033360009081526003602052604090205460ff166005811115611d9357611d93612eee565b14611db35760405160e560020a62461bcd02815260040161018e90612f4c565b33600160a060020a031660048481548110611dd057611dd0612f83565b600091825260209091206005600f909202010154600160a060020a031614611e0d5760405160e560020a62461bcd02815260040161018e90612f9d565b8160048481548110611e2157611e21612f83565b90600052602060002090600f0201600a0160048581548110611e4557611e45612f83565b90600052602060002090600f0201600a018054905081548110611e6a57611e6a612f83565b906000526020600020019081611e80919061307b565b5060048381548110611e9457611e94612f83565b60009182526020909120600a600f9092020101549392505050565b60606004805480602002602001604051908101604052809291908181526020016000905b8282101561285957838290600052602060002090600f0201604051806101e0016040529081600082018054611f0790612fee565b80601f0160208091040260200160405190810160405280929190818152602001828054611f3390612fee565b8015611f805780601f10611f5557610100808354040283529160200191611f80565b820191906000526020600020905b815481529060010190602001808311611f6357829003601f168201915b50505050508152602001600182018054611f9990612fee565b80601f0160208091040260200160405190810160405280929190818152602001828054611fc590612fee565b80156120125780601f10611fe757610100808354040283529160200191612012565b820191906000526020600020905b815481529060010190602001808311611ff557829003601f168201915b5050505050815260200160028201805461202b90612fee565b80601f016020809104026020016040519081016040528092919081815260200182805461205790612fee565b80156120a45780601f10612079576101008083540402835291602001916120a4565b820191906000526020600020905b81548152906001019060200180831161208757829003601f168201915b505050505081526020016003820180546120bd90612fee565b80601f01602080910402602001604051908101604052809291908181526020018280546120e990612fee565b80156121365780601f1061210b57610100808354040283529160200191612136565b820191906000526020600020905b81548152906001019060200180831161211957829003601f168201915b50505050508152602001600482015481526020016005820160009054906101000a9004600160a060020a0316600160a060020a0316600160a060020a031681526020016006820154815260200160078201805480602002602001604051908101604052809291908181526020016000905b828210156122535783829060005260206000200180546121c690612fee565b80601f01602080910402602001604051908101604052809291908181526020018280546121f290612fee565b801561223f5780601f106122145761010080835404028352916020019161223f565b820191906000526020600020905b81548152906001019060200180831161222257829003601f168201915b5050505050815260200190600101906121a7565b50505050815260200160088201805480602002602001604051908101604052809291908181526020016000905b8282101561232c57838290600052602060002001805461229f90612fee565b80601f01602080910402602001604051908101604052809291908181526020018280546122cb90612fee565b80156123185780601f106122ed57610100808354040283529160200191612318565b820191906000526020600020905b8154815290600101906020018083116122fb57829003601f168201915b505050505081526020019060010190612280565b50505050815260200160098201805480602002602001604051908101604052809291908181526020016000905b8282101561240557838290600052602060002001805461237890612fee565b80601f01602080910402602001604051908101604052809291908181526020018280546123a490612fee565b80156123f15780601f106123c6576101008083540402835291602001916123f1565b820191906000526020600020905b8154815290600101906020018083116123d457829003601f168201915b505050505081526020019060010190612359565b505050508152602001600a8201805480602002602001604051908101604052809291908181526020016000905b828210156124de57838290600052602060002001805461245190612fee565b80601f016020809104026020016040519081016040528092919081815260200182805461247d90612fee565b80156124ca5780601f1061249f576101008083540402835291602001916124ca565b820191906000526020600020905b8154815290600101906020018083116124ad57829003601f168201915b505050505081526020019060010190612432565b505050508152602001600b8201805480602002602001604051908101604052809291908181526020016000905b828210156125b757838290600052602060002001805461252a90612fee565b80601f016020809104026020016040519081016040528092919081815260200182805461255690612fee565b80156125a35780601f10612578576101008083540402835291602001916125a3565b820191906000526020600020905b81548152906001019060200180831161258657829003601f168201915b50505050508152602001906001019061250b565b505050508152602001600c8201805480602002602001604051908101604052809291908181526020016000905b8282101561269057838290600052602060002001805461260390612fee565b80601f016020809104026020016040519081016040528092919081815260200182805461262f90612fee565b801561267c5780601f106126515761010080835404028352916020019161267c565b820191906000526020600020905b81548152906001019060200180831161265f57829003601f168201915b5050505050815260200190600101906125e4565b505050508152602001600d8201805480602002602001604051908101604052809291908181526020016000905b828210156127695783829060005260206000200180546126dc90612fee565b80601f016020809104026020016040519081016040528092919081815260200182805461270890612fee565b80156127555780601f1061272a57610100808354040283529160200191612755565b820191906000526020600020905b81548152906001019060200180831161273857829003601f168201915b5050505050815260200190600101906126bd565b505050508152602001600e8201805480602002602001604051908101604052809291908181526020016000905b828210156128425783829060005260206000200180546127b590612fee565b80601f01602080910402602001604051908101604052809291908181526020018280546127e190612fee565b801561282e5780601f106128035761010080835404028352916020019161282e565b820191906000526020600020905b81548152906001019060200180831161281157829003601f168201915b505050505081526020019060010190612796565b505050508152505081526020019060010190611ed3565b50505050905090565b600054600160a060020a0316331461288f5760405160e560020a62461bcd02815260040161018e90613177565b600160a060020a0381166128fa5760405160e560020a62461bcd02815260206004820152602660248201527f4f776e61626c653a206e6577206f776e657220697320746865207a65726f2061604482015260d060020a6564647265737302606482015260840161018e565b60008054604051600160a060020a03808516939216916000805160206131fe83398151915291a360008054600160a060020a031916600160a060020a0392909216919091179055565b828054828255906000526020600020908101928215612989579160200282015b828111156129895782518290612979908261307b565b5091602001919060010190612963565b50612995929150612999565b5090565b808211156129955760006129ad82826129b6565b50600101612999565b5080546129c290612fee565b6000825580601f106129d2575050565b601f0160209004906000526020600020908101906129f091906129f3565b50565b5b8082111561299557600081556001016129f4565b600160a060020a03929092168252602082015260400190565b8035600160a060020a0381168114612a3857600080fd5b919050565b600060208284031215612a4f57600080fd5b612a5882612a21565b9392505050565b60e060020a634e487b710260009081526041600452602490fd5b600082601f830112612a8a57600080fd5b81356001604060020a0380821115612aa457612aa4612a5f565b604051601f8301601f19908116603f01168101908282118183101715612acc57612acc612a5f565b81604052838152866020858801011115612ae557600080fd5b836020870160208301376000602085830101528094505050505092915050565b60008060408385031215612b1857600080fd5b8235915060208301356001604060020a03811115612b3557600080fd5b612b4185828601612a79565b9150509250929050565b60008060408385031215612b5e57600080fd5b612b6783612a21565b9150602083013560068110612b7b57600080fd5b809150509250929050565b600080600080600060a08688031215612b9e57600080fd5b85356001604060020a0380821115612bb557600080fd5b612bc189838a01612a79565b96506020880135915080821115612bd757600080fd5b612be389838a01612a79565b95506040880135915080821115612bf957600080fd5b612c0589838a01612a79565b94506060880135915080821115612c1b57600080fd5b50612c2888828901612a79565b95989497509295608001359392505050565b600060208284031215612c4c57600080fd5b5035919050565b6000815180845260005b81811015612c7957602081850181015186830182015201612c5d565b506000602082860101526020601f19601f83011685010191505092915050565b600081518084526020808501808196508284028101915082860160005b85811015612ce0578284038952612cce848351612c53565b98850198935090840190600101612cb6565b5091979650505050505050565b60006101e08251818552612d0382860182612c53565b91505060208301518482036020860152612d1d8282612c53565b91505060408301518482036040860152612d378282612c53565b91505060608301518482036060860152612d518282612c53565b9150506080830151608085015260a0830151612d7860a0860182600160a060020a03169052565b5060c083015160c085015260e083015184820360e0860152612d9a8282612c99565b9150506101008084015185830382870152612db58382612c99565b925050506101208084015185830382870152612dd18382612c99565b925050506101408084015185830382870152612ded8382612c99565b925050506101608084015185830382870152612e098382612c99565b925050506101808084015185830382870152612e258382612c99565b925050506101a08084015185830382870152612e418382612c99565b925050506101c08084015185830382870152612e5d8382612c99565b9695505050505050565b602081526000612a586020830184612ced565b600060208083018184528085518083526040860191506040848202870101925083870160005b82811015612ece57603f19888603018452612ebc858351612ced565b94509285019290850190600101612ea0565b5092979650505050505050565b602081526000612a586020830184612c53565b60e060020a634e487b710260009081526021600452602490fd5b60208082526021908201527f6e6f7420617574686f72697a656420746561636865722f696e7374727563746f604082015260f960020a603902606082015260800190565b6020808252601e908201527f6e6f7420617574686f72697a656420746f20706c616e206c6573736f6e730000604082015260600190565b60e060020a634e487b710260009081526032600452602490fd5b6020808252602e908201527f6e6f7420746865206c6573736f6e20706c616e6e65722077686f2063726561746040820152609160020a6d32b2103a3434b9903632b9b9b7b702606082015260800190565b60028104600182168061300257607f821691505b6020821081036130265760e060020a634e487b710260009081526022600452602490fd5b50919050565b601f821115613076576000818152602081206020601f860104810160208610156130535750805b6020601f860104820191505b818110156130725782815560010161305f565b5050505b505050565b81516001604060020a0381111561309457613094612a5f565b6130a8816130a28454612fee565b8461302c565b602080601f8311600181146130e157600084156130c55750858301515b60028086026008870290910a6000190419821617865550613072565b600085815260208120601f198616915b82811015613110578886015182559484019460019091019084016130f1565b508582101561313057878501516008601f88160260020a60001904191681555b5050505050600202600101905550565b6020808252601c908201527f6e6f7420617574686f72697a65642061646d696e6973747261746f7200000000604082015260600190565b6020808252601790820152604960020a7630b1b1b2b9b9903232b734b2b2103337b91037bbb732b902604082015260600190565b808201808211156106a65760e060020a634e487b710260009081526011600452602490fd5b6020808252601090820152608160020a6f3930ba32903634b6b4ba1032b93937b90260408201526060019056fe8be0079c531659141344cd1fd0a4f28419497f9722a3daafe3b4186f6b6457e0a2646970667358221220694c0eb93a523dbe22e0ce57c4a5ddeaa1c4f6b5ed239c807b2f4e763b5dd22b64736f6c63430008120033",
  "immutableReferences": {},
  "source": "// SPDX-License-Identifier: CC-BY-4.0\r\npragma solidity >=0.4.22 <0.9.0;\r\n\r\nimport \"./EducationRoles.sol\";\r\n\r\ncontract Lesson is EducationRoles {\r\n\r\n    struct LessonMetadata {\r\n        string name;\r\n        string description;\r\n        string course;\r\n        string subject;\r\n        uint256 created;\r\n        address created_by;\r\n        uint256 duration;\r\n        string[] objectives;\r\n        string[] tasks;\r\n        string[] action_plan;\r\n        string[] materials;\r\n        string[] equipment;\r\n        string[] references;\r\n        string[] homework;\r\n        string[] feedback;\r\n    }\r\n\r\n    LessonMetadata[] private lessons;\r\n\r\n    function createLesson(string memory name, string memory description, string memory course, string memory subject, uint256 duration)\r\n        public\r\n        isLessonPlanner\r\n        returns (uint256)\r\n    {\r\n        string[] memory empty;\r\n\r\n        lessons[lessons.length] = LessonMetadata({\r\n            name: name,\r\n            description: description,\r\n            course: course,\r\n            subject: subject,\r\n            created: block.timestamp,\r\n            created_by: msg.sender,\r\n            duration: duration,\r\n            objectives: empty,\r\n            tasks: empty,\r\n            action_plan: empty,\r\n            materials: empty,\r\n            equipment: empty,\r\n            references: empty,\r\n            homework: empty,\r\n            feedback: empty\r\n        });\r\n        return lessons.length;\r\n    }\r\n\r\n    function getLesson(uint index)\r\n        public\r\n        view\r\n        returns (LessonMetadata memory)\r\n    {\r\n        return lessons[index];\r\n    }\r\n\r\n    function getLessons()\r\n        public\r\n        view\r\n        returns (LessonMetadata[] memory)\r\n    {\r\n        return lessons;\r\n    }\r\n\r\n    function addObjective(uint index, string memory objective)\r\n        public\r\n        isLessonPlanner\r\n        returns (uint256)\r\n    {\r\n        require(lessons[index].created_by == msg.sender,\"not the lesson planner who created this lesson\");\r\n        lessons[index].objectives[lessons[index].objectives.length] = objective;\r\n        return lessons[index].objectives.length;\r\n    }\r\n\r\n    function addTask(uint index, string memory task)\r\n        public\r\n        isLessonPlanner\r\n        returns (uint256)\r\n    {\r\n        require(lessons[index].created_by == msg.sender,\"not the lesson planner who created this lesson\");\r\n        lessons[index].tasks[lessons[index].tasks.length] = task;\r\n        return lessons[index].tasks.length;\r\n    }\r\n\r\n    function addActionPlan(uint index, string memory plan)\r\n        public\r\n        isLessonPlanner\r\n        returns (uint256)\r\n    {\r\n        require(lessons[index].created_by == msg.sender,\"not the lesson planner who created this lesson\");\r\n        lessons[index].action_plan[lessons[index].action_plan.length] = plan;\r\n        return lessons[index].action_plan.length;\r\n    }\r\n\r\n    function addMaterial(uint index, string memory material)\r\n        public\r\n        isLessonPlanner\r\n        returns (uint256)\r\n    {\r\n        require(lessons[index].created_by == msg.sender,\"not the lesson planner who created this lesson\");\r\n        lessons[index].materials[lessons[index].materials.length] = material;\r\n        return lessons[index].materials.length;\r\n    }\r\n\r\n    function addEquipment(uint index, string memory equipment)\r\n        public\r\n        isLessonPlanner\r\n        returns (uint256)\r\n    {\r\n        require(lessons[index].created_by == msg.sender,\"not the lesson planner who created this lesson\");\r\n        lessons[index].equipment[lessons[index].equipment.length] = equipment;\r\n        return lessons[index].equipment.length;\r\n    }\r\n\r\n    function addReference(uint index, string memory _reference)\r\n        public\r\n        isLessonPlanner\r\n        returns (uint256)\r\n    {\r\n        require(lessons[index].created_by == msg.sender,\"not the lesson planner who created this lesson\");\r\n        lessons[index].references[lessons[index].references.length] = _reference;\r\n        return lessons[index].references.length;\r\n    }\r\n\r\n    function addHomework(uint index, string memory homework)\r\n        public\r\n        isLessonPlanner\r\n        returns (uint256)\r\n    {\r\n        require(lessons[index].created_by == msg.sender,\"not the lesson planner who created this lesson\");\r\n        lessons[index].homework[lessons[index].homework.length] = homework;\r\n        return lessons[index].homework.length;\r\n    }\r\n\r\n    function addFeedback(uint index, string memory feedback)\r\n        public\r\n        isLessonPlanner\r\n        returns (uint256)\r\n    {\r\n        require(lessons[index].created_by == msg.sender,\"not the lesson planner who created this lesson\");\r\n        lessons[index].feedback[lessons[index].feedback.length] = feedback;\r\n        return lessons[index].feedback.length;\r\n    }\r\n\r\n}",
  "sourcePath": "/Volumes/My Book/projects/pingleware-contracts/contracts/education/Lesson.sol",
  "compiler": {
    "name": "solc",
    "version": "0.8.18+commit.87f61d96.Emscripten.clang"
  },
  "schemaVersion": "3.4.12",
  "updatedAt": "2023-10-22T00:35:29.545Z",
  "devdoc": {
    "kind": "dev",
    "methods": {
      "renounceOwnership()": {
        "details": "Leaves the contract without owner. It will not be possible to call `onlyOwner` functions anymore. Can only be called by the current owner. NOTE: Renouncing ownership will leave the contract without an owner, thereby removing any functionality that is only available to the owner."
      },
      "transferOwnership(address)": {
        "details": "Transfers ownership of the contract to a new account (`newOwner`). Can only be called by the current owner."
      }
    },
    "version": 1
  },
  "userdoc": {
    "kind": "user",
    "methods": {},
    "version": 1
  }
}