{
  "contractName": "Lesson",
  "abi": [
    {
      "anonymous": false,
      "inputs": [
        {
          "indexed": false,
          "internalType": "address",
          "name": "sender",
          "type": "address"
        },
        {
          "indexed": false,
          "internalType": "uint256",
          "name": "amount",
          "type": "uint256"
        }
      ],
      "name": "FallbackEvent",
      "type": "event"
    },
    {
      "anonymous": false,
      "inputs": [
        {
          "indexed": true,
          "internalType": "address",
          "name": "previousOwner",
          "type": "address"
        },
        {
          "indexed": true,
          "internalType": "address",
          "name": "newOwner",
          "type": "address"
        }
      ],
      "name": "OwnershipTransferred",
      "type": "event"
    },
    {
      "anonymous": false,
      "inputs": [
        {
          "indexed": false,
          "internalType": "address",
          "name": "sender",
          "type": "address"
        },
        {
          "indexed": false,
          "internalType": "uint256",
          "name": "amount",
          "type": "uint256"
        }
      ],
      "name": "ReceiveEvent",
      "type": "event"
    },
    {
      "stateMutability": "payable",
      "type": "fallback"
    },
    {
      "inputs": [],
      "name": "VERSION",
      "outputs": [
        {
          "internalType": "string",
          "name": "",
          "type": "string"
        }
      ],
      "stateMutability": "view",
      "type": "function"
    },
    {
      "inputs": [],
      "name": "WAIT",
      "outputs": [
        {
          "internalType": "uint256",
          "name": "",
          "type": "uint256"
        }
      ],
      "stateMutability": "view",
      "type": "function"
    },
    {
      "inputs": [
        {
          "internalType": "address",
          "name": "user",
          "type": "address"
        }
      ],
      "name": "addLessonPlanner",
      "outputs": [],
      "stateMutability": "nonpayable",
      "type": "function"
    },
    {
      "inputs": [
        {
          "internalType": "address",
          "name": "user",
          "type": "address"
        }
      ],
      "name": "addStudent",
      "outputs": [],
      "stateMutability": "nonpayable",
      "type": "function"
    },
    {
      "inputs": [
        {
          "internalType": "address",
          "name": "user",
          "type": "address"
        }
      ],
      "name": "addStudentAssistance",
      "outputs": [],
      "stateMutability": "nonpayable",
      "type": "function"
    },
    {
      "inputs": [
        {
          "internalType": "address",
          "name": "user",
          "type": "address"
        }
      ],
      "name": "addTeacher",
      "outputs": [],
      "stateMutability": "nonpayable",
      "type": "function"
    },
    {
      "inputs": [
        {
          "internalType": "address",
          "name": "user",
          "type": "address"
        },
        {
          "internalType": "enum EducationRoles.Role",
          "name": "_role",
          "type": "uint8"
        }
      ],
      "name": "addUser",
      "outputs": [],
      "stateMutability": "nonpayable",
      "type": "function"
    },
    {
      "inputs": [],
      "name": "getOwner",
      "outputs": [
        {
          "internalType": "address",
          "name": "",
          "type": "address"
        }
      ],
      "stateMutability": "payable",
      "type": "function"
    },
    {
      "inputs": [],
      "name": "renounceOwnership",
      "outputs": [],
      "stateMutability": "payable",
      "type": "function"
    },
    {
      "inputs": [
        {
          "internalType": "address",
          "name": "newOwner",
          "type": "address"
        }
      ],
      "name": "transferOwnership",
      "outputs": [],
      "stateMutability": "payable",
      "type": "function"
    },
    {
      "stateMutability": "payable",
      "type": "receive"
    },
    {
      "inputs": [
        {
          "internalType": "string",
          "name": "name",
          "type": "string"
        },
        {
          "internalType": "string",
          "name": "description",
          "type": "string"
        },
        {
          "internalType": "string",
          "name": "course",
          "type": "string"
        },
        {
          "internalType": "string",
          "name": "subject",
          "type": "string"
        },
        {
          "internalType": "uint256",
          "name": "duration",
          "type": "uint256"
        }
      ],
      "name": "createLesson",
      "outputs": [
        {
          "internalType": "uint256",
          "name": "",
          "type": "uint256"
        }
      ],
      "stateMutability": "nonpayable",
      "type": "function"
    },
    {
      "inputs": [
        {
          "internalType": "uint256",
          "name": "index",
          "type": "uint256"
        }
      ],
      "name": "getLesson",
      "outputs": [
        {
          "components": [
            {
              "internalType": "string",
              "name": "name",
              "type": "string"
            },
            {
              "internalType": "string",
              "name": "description",
              "type": "string"
            },
            {
              "internalType": "string",
              "name": "course",
              "type": "string"
            },
            {
              "internalType": "string",
              "name": "subject",
              "type": "string"
            },
            {
              "internalType": "uint256",
              "name": "created",
              "type": "uint256"
            },
            {
              "internalType": "address",
              "name": "created_by",
              "type": "address"
            },
            {
              "internalType": "uint256",
              "name": "duration",
              "type": "uint256"
            },
            {
              "internalType": "string[]",
              "name": "objectives",
              "type": "string[]"
            },
            {
              "internalType": "string[]",
              "name": "tasks",
              "type": "string[]"
            },
            {
              "internalType": "string[]",
              "name": "action_plan",
              "type": "string[]"
            },
            {
              "internalType": "string[]",
              "name": "materials",
              "type": "string[]"
            },
            {
              "internalType": "string[]",
              "name": "equipment",
              "type": "string[]"
            },
            {
              "internalType": "string[]",
              "name": "references",
              "type": "string[]"
            },
            {
              "internalType": "string[]",
              "name": "homework",
              "type": "string[]"
            },
            {
              "internalType": "string[]",
              "name": "feedback",
              "type": "string[]"
            }
          ],
          "internalType": "struct Lesson.LessonMetadata",
          "name": "",
          "type": "tuple"
        }
      ],
      "stateMutability": "view",
      "type": "function"
    },
    {
      "inputs": [],
      "name": "getLessons",
      "outputs": [
        {
          "components": [
            {
              "internalType": "string",
              "name": "name",
              "type": "string"
            },
            {
              "internalType": "string",
              "name": "description",
              "type": "string"
            },
            {
              "internalType": "string",
              "name": "course",
              "type": "string"
            },
            {
              "internalType": "string",
              "name": "subject",
              "type": "string"
            },
            {
              "internalType": "uint256",
              "name": "created",
              "type": "uint256"
            },
            {
              "internalType": "address",
              "name": "created_by",
              "type": "address"
            },
            {
              "internalType": "uint256",
              "name": "duration",
              "type": "uint256"
            },
            {
              "internalType": "string[]",
              "name": "objectives",
              "type": "string[]"
            },
            {
              "internalType": "string[]",
              "name": "tasks",
              "type": "string[]"
            },
            {
              "internalType": "string[]",
              "name": "action_plan",
              "type": "string[]"
            },
            {
              "internalType": "string[]",
              "name": "materials",
              "type": "string[]"
            },
            {
              "internalType": "string[]",
              "name": "equipment",
              "type": "string[]"
            },
            {
              "internalType": "string[]",
              "name": "references",
              "type": "string[]"
            },
            {
              "internalType": "string[]",
              "name": "homework",
              "type": "string[]"
            },
            {
              "internalType": "string[]",
              "name": "feedback",
              "type": "string[]"
            }
          ],
          "internalType": "struct Lesson.LessonMetadata[]",
          "name": "",
          "type": "tuple[]"
        }
      ],
      "stateMutability": "view",
      "type": "function"
    },
    {
      "inputs": [
        {
          "internalType": "uint256",
          "name": "index",
          "type": "uint256"
        },
        {
          "internalType": "string",
          "name": "objective",
          "type": "string"
        }
      ],
      "name": "addObjective",
      "outputs": [
        {
          "internalType": "uint256",
          "name": "",
          "type": "uint256"
        }
      ],
      "stateMutability": "nonpayable",
      "type": "function"
    },
    {
      "inputs": [
        {
          "internalType": "uint256",
          "name": "index",
          "type": "uint256"
        },
        {
          "internalType": "string",
          "name": "task",
          "type": "string"
        }
      ],
      "name": "addTask",
      "outputs": [
        {
          "internalType": "uint256",
          "name": "",
          "type": "uint256"
        }
      ],
      "stateMutability": "nonpayable",
      "type": "function"
    },
    {
      "inputs": [
        {
          "internalType": "uint256",
          "name": "index",
          "type": "uint256"
        },
        {
          "internalType": "string",
          "name": "plan",
          "type": "string"
        }
      ],
      "name": "addActionPlan",
      "outputs": [
        {
          "internalType": "uint256",
          "name": "",
          "type": "uint256"
        }
      ],
      "stateMutability": "nonpayable",
      "type": "function"
    },
    {
      "inputs": [
        {
          "internalType": "uint256",
          "name": "index",
          "type": "uint256"
        },
        {
          "internalType": "string",
          "name": "material",
          "type": "string"
        }
      ],
      "name": "addMaterial",
      "outputs": [
        {
          "internalType": "uint256",
          "name": "",
          "type": "uint256"
        }
      ],
      "stateMutability": "nonpayable",
      "type": "function"
    },
    {
      "inputs": [
        {
          "internalType": "uint256",
          "name": "index",
          "type": "uint256"
        },
        {
          "internalType": "string",
          "name": "equipment",
          "type": "string"
        }
      ],
      "name": "addEquipment",
      "outputs": [
        {
          "internalType": "uint256",
          "name": "",
          "type": "uint256"
        }
      ],
      "stateMutability": "nonpayable",
      "type": "function"
    },
    {
      "inputs": [
        {
          "internalType": "uint256",
          "name": "index",
          "type": "uint256"
        },
        {
          "internalType": "string",
          "name": "_reference",
          "type": "string"
        }
      ],
      "name": "addReference",
      "outputs": [
        {
          "internalType": "uint256",
          "name": "",
          "type": "uint256"
        }
      ],
      "stateMutability": "nonpayable",
      "type": "function"
    },
    {
      "inputs": [
        {
          "internalType": "uint256",
          "name": "index",
          "type": "uint256"
        },
        {
          "internalType": "string",
          "name": "homework",
          "type": "string"
        }
      ],
      "name": "addHomework",
      "outputs": [
        {
          "internalType": "uint256",
          "name": "",
          "type": "uint256"
        }
      ],
      "stateMutability": "nonpayable",
      "type": "function"
    },
    {
      "inputs": [
        {
          "internalType": "uint256",
          "name": "index",
          "type": "uint256"
        },
        {
          "internalType": "string",
          "name": "feedback",
          "type": "string"
        }
      ],
      "name": "addFeedback",
      "outputs": [
        {
          "internalType": "uint256",
          "name": "",
          "type": "uint256"
        }
      ],
      "stateMutability": "nonpayable",
      "type": "function"
    }
  ],
  "bytecode": "0x608080604052346100535760008054600160a060020a03191633908117825542600155907f8be0079c531659141344cd1fd0a4f28419497f9722a3daafe3b4186f6b6457e08180a3611ba690816100598239f35b600080fdfe608060405260043610156100c7575b361561009757333203610050577f26875833861a2b006512a11f1b86edf95df96131040f3caeed72989ee98580836040518061004b3433836115ac565b0390a1005b60405160e560020a62461bcd0281526020600482015260196024820152603860020a787068697368696e672061747461636b2064657465637465643f026044820152606490fd5b7fcc85d09d309785db93d6df19917f2e6cc07fe27cd01c08c8279145deb5cf45266040518061004b3433836115ac565b60e060020a60003504632e3c892181146111ff5780633867d89d146111bd5780633bc6e30914611159578063437072b0146110f257806358fcbbfd146110b0578063715018a614611069578063893d20e814611005578063902d6c5314610fc35780639c3eead914610f20578063ac30a4c4146106a2578063b8fb3a5114610686578063b9d1620214610644578063bd06ea19146105e3578063c5ad1f31146105a1578063cbfe253f146104f8578063db5a9885146104b6578063dd23f8ed14610474578063dd79d1a0146103d6578063e28aa48a146102ee578063f2fde38b146102395763ffa1ad740361000e57346102345760003660031901126102345760408051908101906001604060020a0382118183101761021a5761021691604052600a815260b060020a69312e362e342d6265746102602082015260405191829160208352602083019061139a565b0390f35b60e060020a634e487b710260009081526041600452602490fd5b600080fd5b60203660031901126102345761024d6112bd565b600054600160a060020a03808216926102673385146115c7565b16918215610294578290600080516020611b51833981519152600080a3600160a060020a03191617600055005b60405160e560020a62461bcd02815260206004820152602660248201527f4f776e61626c653a206e6577206f776e657220697320746865207a65726f2061604482015260d060020a65646472657373026064820152608490fd5b346102345760003660031901126102345760045461030b81611948565b9061031960405192836112ef565b80825260046000908152602091828401917f8a35acfbc15ff81a39ae7d344fd709f28e8600b4aa8c65c6b64bfe7fe36bd19b835b8383106103b357505050506040519180830193818452518094526040830193604082820285010192916000955b8287106103875785850386f35b9091929382806103a3600193603f198a82030186528851611433565b960192019601959291909261037a565b600f866001926103c5859a999a6119b4565b81520192019201919095949561034d565b34610234576103e436611368565b33600052600360205260ff6040600020541690600682101561045a5760209261044a61044f926104186003600a96146116be565b6104396104248461170d565b5060050154600160a060020a03163314611ab8565b846104438461170d565b5001611b21565b61170d565b500154604051908152f35b60e060020a634e487b710260009081526021600452602490fd5b346102345761048236611368565b33600052600360205260ff6040600020541690600682101561045a5760209261044a61044f926104186003600996146116be565b34610234576104c436611368565b33600052600360205260ff6040600020541690600682101561045a5760209261044a61044f926104186003600c96146116be565b3461023457602036600319011261023457604051610515816112d3565b6101c0606091828152826020820152826040820152828082015260006080820152600060a0820152600060c08201528260e08201528261010082015282610120820152826101408201528261016082015282610180820152826101a0820152015261021661058d61058760043561170d565b506119b4565b604051918291602083526020830190611433565b34610234576105af36611368565b33600052600360205260ff6040600020541690600682101561045a5760209261044a61044f926104186003600d96146116be565b34610234576020366003190112610234576105fc6112bd565b33600052600360205260ff60406000205416600681101561045a5760056106239114611613565b600160a060020a03166000908152600360205260409020805460ff19169055005b346102345761065236611368565b33600052600360205260ff6040600020541690600682101561045a5760209261044a61044f926104186003600796146116be565b34610234576000366003190112610234576020604051601e8152f35b346102345760a0366003190112610234576001604060020a03600435818111610234576106d3903690600401611312565b90602435818111610234576106ec903690600401611312565b9060443581811161023457610705903690600401611312565b906064359081116102345761071e903690600401611312565b9133600052600360205260ff60406000205416600681101561045a57600361074691146116be565b60405193610753856112d3565b845260208401526040830152606090818301524260808301523360a083015260843560c08301528060e08301528061010083015280610120830152806101408301528061016083015280610180830152806101a0830152806101c0830152600454604060020a81101561021a578060016107d0920160045561170d565b919091610f0657610814906107e684518461179c565b6107f760208501516001850161179c565b61080860408501516002850161179c565b8301516003830161179c565b6080820151600482015560a0820151600582018054600160a060020a031916600160a060020a039290921691909117905560c0820151600682015560e0820151805190604060020a821161021a576007830154826007850155808310610e8e575b506020016007830160005260206000206000915b838310610e71578585610100820151805190604060020a821161021a576008830154826008850155808310610df9575b506020016008830160005260206000206000915b838310610ddc578585610120820151805190604060020a821161021a576009830154826009850155808310610d64575b506020016009830160005260206000206000915b838310610d47578585610140820151805190604060020a821161021a57600a83015482600a850155808310610ccf575b50602001600a830160005260206000206000915b838310610cb2578585610160820151805190604060020a821161021a57600b83015482600b850155808310610c3a575b50602001600b830160005260206000206000915b838310610c1d578585600c810161018083015190815191604060020a831161021a578154838355808410610ba9575b506020019060005260206000206000915b838310610b8c578585600d81016101a083015190815191604060020a831161021a578154838355808410610b18575b506020019060005260206000206000915b838310610afb576101c08601518051600e870191604060020a821161021a578254828455808310610a87575b506020019160005260206000206000925b828410610a6a576020600454604051908152f35b6001602082610a7b8394518661179c565b01920193019290610a56565b8360005282602060002091820191015b818110610aa45750610a45565b80610ab160019254611746565b80610abe575b5001610a97565b601f908181118414610ad7575050600081555b86610ab7565b610af260206000938585528185209301048201858301611785565b81835555610ad1565b6001602082610b0c8394518661179c565b01920192019190610a19565b8260005283602060002091820191015b818110610b355750610a08565b80610b4260019254611746565b80610b4f575b5001610b28565b601f908181118414610b68575050600081555b88610b48565b610b8360206000938585528185209301048201858301611785565b81835555610b62565b6001602082610b9d8394518661179c565b019201920191906109d9565b8260005283602060002091820191015b818110610bc657506109c8565b80610bd360019254611746565b80610be0575b5001610bb9565b601f908181118414610bf9575050600081555b88610bd9565b610c1460206000938585528185209301048201858301611785565b81835555610bf3565b6001602082610c2e8394518661179c565b01920192019190610999565b600b84016000526020600020908382015b8183018110610c5b575050610985565b80610c6860019254611746565b80610c75575b5001610c4b565b601f908181118414610c8e575050600081555b88610c6e565b610ca960206000938585528185209301048201858301611785565b81835555610c88565b6001602082610cc38394518661179c565b01920192019190610955565b600a84016000526020600020908382015b8183018110610cf0575050610941565b80610cfd60019254611746565b80610d0a575b5001610ce0565b601f908181118414610d23575050600081555b88610d03565b610d3e60206000938585528185209301048201858301611785565b81835555610d1d565b6001602082610d588394518661179c565b01920192019190610911565b600984016000526020600020908382015b8183018110610d855750506108fd565b80610d9260019254611746565b80610d9f575b5001610d75565b601f908181118414610db8575050600081555b88610d98565b610dd360206000938585528185209301048201858301611785565b81835555610db2565b6001602082610ded8394518661179c565b019201920191906108cd565b600884016000526020600020908382015b8183018110610e1a5750506108b9565b80610e2760019254611746565b80610e34575b5001610e0a565b601f908181118414610e4d575050600081555b88610e2d565b610e6860206000938585528185209301048201858301611785565b81835555610e47565b6001602082610e828394518661179c565b01920192019190610889565b600784016000526020600020908382015b8183018110610eaf575050610875565b80610ebc60019254611746565b80610ec9575b5001610e9f565b601f908181118414610ee2575050600081555b88610ec2565b610efd60206000938585528185209301048201858301611785565b81835555610edc565b60e060020a634e487b710260009081526004819052602490fd5b3461023457604036600319011261023457610f396112bd565b60243590600682101561023457600054600160a060020a03919082163303610f7b5716600052600360205260406000209060ff80198354169116179055600080f35b60405160e560020a62461bcd02815260206004820152601b60248201527f756e617574686f72697a65642c206e6f7420746865206f776e657200000000006044820152606490fd5b3461023457610fd136611368565b33600052600360205260ff6040600020541690600682101561045a5760209261044a61044f926104186003600e96146116be565b600036600319011261023457600154601e810180911161104f5761103390421161102e81611567565b611567565b42600155600054604051600160a060020a039091168152602090f35b60e060020a634e487b710260009081526011600452602490fd5b6000366003190112610234576000805490600160a060020a03821661108f3382146115c7565b600080516020611b518339815191528280a3600160a060020a031916600055005b34610234576110be36611368565b33600052600360205260ff6040600020541690600682101561045a5760209261044a61044f926104186003600896146116be565b346102345760203660031901126102345761110b6112bd565b33600052600360205260ff60406000205416600681101561045a5760046111329114611662565b600160a060020a03166000908152600360208190526040909120805460ff19169091179055005b34610234576020366003190112610234576111726112bd565b33600052600360205260ff60406000205416600681101561045a5760056111999114611613565b600160a060020a03166000908152600360205260409020805460ff19166004179055005b34610234576111cb36611368565b33600052600360205260ff6040600020541690600682101561045a5760209261044a61044f926104186003600b96146116be565b34610234576020366003190112610234576112186112bd565b33600052600360205260ff60406000205416600681101561045a57600461123f9114611662565b600160a060020a031660008181526003602052604090205460ff16600681101561045a57611282576000908152600360205260409020805460ff19166001179055005b60405160e560020a62461bcd02815260206004820152600d6024820152609a60020a6c1b9bdd0818481cdd1d59195b9d026044820152606490fd5b60043590600160a060020a038216820361023457565b6101e081019081106001604060020a0382111761021a57604052565b601f909101601f19168101906001604060020a0382119082101761021a57604052565b81601f82011215610234578035906001604060020a03821161021a5760405192611346601f8401601f1916602001856112ef565b8284526020838301011161023457816000926020809301838601378301015290565b9060406003198301126102345760043591602435906001604060020a0382116102345761139791600401611312565b90565b919082519283825260005b8481106113c6575050826000602080949584010152601f8019910116010190565b6020818301810151848301820152016113a5565b80518083526020808202840181019392810192600090828101905b8483106114055750505050505090565b9091929394958480611423600193601f198682030187528a5161139a565b98019301930191949392906113f5565b906113979161155361153f61152b6115176115036114ef6114db6114a261149061147d61146a8b518d6101e090818152019061139a565b60208c01518d602081840391015261139a565b60408b01518c604081840391015261139a565b60608a01518b820360608d015261139a565b608089015160808b0152600160a060020a0360a08a01511660a08b015260c089015160c08b015260e08901518a820360e08c01526113da565b61010080890151908a8303908b01526113da565b6101208088015190898303908a01526113da565b6101408087015190888303908901526113da565b6101608086015190878303908801526113da565b6101808085015190868303908701526113da565b6101a08084015190858303908601526113da565b916101c080920151918184039101526113da565b1561156e57565b60405160e560020a62461bcd0281526020600482015260106024820152608160020a6f3930ba32903634b6b4ba1032b93937b9026044820152606490fd5b600160a060020a039091168152602081019190915260400190565b156115ce57565b60405160e560020a62461bcd0281526020600482015260176024820152604960020a7630b1b1b2b9b9903232b734b2b2103337b91037bbb732b9026044820152606490fd5b1561161a57565b60405160e560020a62461bcd02815260206004820152601c60248201527f6e6f7420617574686f72697a65642061646d696e6973747261746f72000000006044820152606490fd5b1561166957565b60405160e560020a62461bcd02815260206004820152602160248201527f6e6f7420617574686f72697a656420746561636865722f696e7374727563746f604482015260f960020a6039026064820152608490fd5b156116c557565b60405160e560020a62461bcd02815260206004820152601e60248201527f6e6f7420617574686f72697a656420746f20706c616e206c6573736f6e7300006044820152606490fd5b60045481101561172c576004600052600f602060002091020190600090565b60e060020a634e487b710260009081526032600452602490fd5b906001600283049216801561177b575b602083101461176157565b60e060020a634e487b710260009081526022600452602490fd5b91607f1691611756565b818110611790575050565b60008155600101611785565b815190916001604060020a03821161021a5781906117ba8454611746565b601f8111611865575b5060209081601f84116001146117ff57506000926117f4575b5050816002029160080260020a600019041916179055565b0151905038806117dc565b60008681528181209450601f198616915b82821061184d5750509160029391856001969410611832575b50505002019055565b01516008601f841602840a6000190419169055388080611829565b80600186978294978701518155019601940190611810565b611893908560005260206000206020601f86010481019160208610611899575b601f60209101040190611785565b386117c3565b9091508190611885565b90604051918260008254926118b784611746565b90818452600194858116908160001461192657506001146118e3575b50506118e1925003836112ef565b565b9093915060005260209081600020936000915b81831061190e5750506118e1935082010138806118d3565b855488840185015294850194879450918301916118f6565b9150506118e194506020925060ff1916828401521515810282010138806118d3565b6001604060020a03811161021a5760208091020190565b90815461196b81611948565b9261197960405194856112ef565b818452600090815260208082208186015b848410611998575050505050565b60018381926119a6856118a3565b81520192019301929061198a565b906040516119c1816112d3565b6101c0611ab3600e83956119d4816118a3565b85526119e2600182016118a3565b60208601526119f3600282016118a3565b6040860152611a04600382016118a3565b6060860152600481015460808601526005810154600160a060020a031660a0860152600681015460c0860152611a3c6007820161195f565b60e0860152611a4d6008820161195f565b610100860152611a5f6009820161195f565b610120860152611a71600a820161195f565b610140860152611a83600b820161195f565b610160860152611a95600c820161195f565b610180860152611aa7600d820161195f565b6101a08601520161195f565b910152565b15611abf57565b60405160e560020a62461bcd02815260206004820152602e60248201527f6e6f7420746865206c6573736f6e20706c616e6e65722077686f2063726561746044820152609160020a6d32b2103a3434b9903632b9b9b7b7026064820152608490fd5b908154604060020a81101561021a576001810180845581101561172c576118e19260005260206000200161179c56fe8be0079c531659141344cd1fd0a4f28419497f9722a3daafe3b4186f6b6457e0a264697066735822122026f623350d8418b38aeb839ef814028d8c8eb7d16b8f59d8becabe229cfa168864736f6c63430008120033",
  "immutableReferences": {},
  "source": "// SPDX-License-Identifier: CC-BY-4.0\r\npragma solidity >=0.4.22 <0.9.0;\r\n\r\nimport \"./EducationRoles.sol\";\r\n\r\ncontract Lesson is EducationRoles {\r\n\r\n    struct LessonMetadata {\r\n        string name;\r\n        string description;\r\n        string course;\r\n        string subject;\r\n        uint256 created;\r\n        address created_by;\r\n        uint256 duration;\r\n        string[] objectives;\r\n        string[] tasks;\r\n        string[] action_plan;\r\n        string[] materials;\r\n        string[] equipment;\r\n        string[] references;\r\n        string[] homework;\r\n        string[] feedback;\r\n    }\r\n\r\n    LessonMetadata[] private lessons;\r\n\r\n    function createLesson(string memory name, string memory description, string memory course, string memory subject, uint256 duration)\r\n        public\r\n        isLessonPlanner\r\n        returns (uint256)\r\n    {\r\n        string[] memory empty;\r\n\r\n        lessons.push(LessonMetadata({\r\n            name: name,\r\n            description: description,\r\n            course: course,\r\n            subject: subject,\r\n            created: block.timestamp,\r\n            created_by: msg.sender,\r\n            duration: duration,\r\n            objectives: empty,\r\n            tasks: empty,\r\n            action_plan: empty,\r\n            materials: empty,\r\n            equipment: empty,\r\n            references: empty,\r\n            homework: empty,\r\n            feedback: empty\r\n        }));\r\n        return lessons.length;\r\n    }\r\n\r\n    function getLesson(uint index)\r\n        public\r\n        view\r\n        returns (LessonMetadata memory)\r\n    {\r\n        return lessons[index];\r\n    }\r\n\r\n    function getLessons()\r\n        public\r\n        view\r\n        returns (LessonMetadata[] memory)\r\n    {\r\n        return lessons;\r\n    }\r\n\r\n    function addObjective(uint index, string memory objective)\r\n        public\r\n        isLessonPlanner\r\n        returns (uint256)\r\n    {\r\n        require(lessons[index].created_by == msg.sender,\"not the lesson planner who created this lesson\");\r\n        lessons[index].objectives.push(objective);\r\n        return lessons[index].objectives.length;\r\n    }\r\n\r\n    function addTask(uint index, string memory task)\r\n        public\r\n        isLessonPlanner\r\n        returns (uint256)\r\n    {\r\n        require(lessons[index].created_by == msg.sender,\"not the lesson planner who created this lesson\");\r\n        lessons[index].tasks.push(task);\r\n        return lessons[index].tasks.length;\r\n    }\r\n\r\n    function addActionPlan(uint index, string memory plan)\r\n        public\r\n        isLessonPlanner\r\n        returns (uint256)\r\n    {\r\n        require(lessons[index].created_by == msg.sender,\"not the lesson planner who created this lesson\");\r\n        lessons[index].action_plan.push(plan);\r\n        return lessons[index].action_plan.length;\r\n    }\r\n\r\n    function addMaterial(uint index, string memory material)\r\n        public\r\n        isLessonPlanner\r\n        returns (uint256)\r\n    {\r\n        require(lessons[index].created_by == msg.sender,\"not the lesson planner who created this lesson\");\r\n        lessons[index].materials.push(material);\r\n        return lessons[index].materials.length;\r\n    }\r\n\r\n    function addEquipment(uint index, string memory equipment)\r\n        public\r\n        isLessonPlanner\r\n        returns (uint256)\r\n    {\r\n        require(lessons[index].created_by == msg.sender,\"not the lesson planner who created this lesson\");\r\n        lessons[index].equipment.push(equipment);\r\n        return lessons[index].equipment.length;\r\n    }\r\n\r\n    function addReference(uint index, string memory _reference)\r\n        public\r\n        isLessonPlanner\r\n        returns (uint256)\r\n    {\r\n        require(lessons[index].created_by == msg.sender,\"not the lesson planner who created this lesson\");\r\n        lessons[index].references.push(_reference);\r\n        return lessons[index].references.length;\r\n    }\r\n\r\n    function addHomework(uint index, string memory homework)\r\n        public\r\n        isLessonPlanner\r\n        returns (uint256)\r\n    {\r\n        require(lessons[index].created_by == msg.sender,\"not the lesson planner who created this lesson\");\r\n        lessons[index].homework.push(homework);\r\n        return lessons[index].homework.length;\r\n    }\r\n\r\n    function addFeedback(uint index, string memory feedback)\r\n        public\r\n        isLessonPlanner\r\n        returns (uint256)\r\n    {\r\n        require(lessons[index].created_by == msg.sender,\"not the lesson planner who created this lesson\");\r\n        lessons[index].feedback.push(feedback);\r\n        return lessons[index].feedback.length;\r\n    }\r\n\r\n}",
  "sourcePath": "/Volumes/HOME/pingleware-contracts/contracts/education/Lesson.sol",
  "compiler": {
    "name": "solc",
    "version": "0.8.18+commit.87f61d96.Emscripten.clang"
  },
  "schemaVersion": "3.4.12",
  "updatedAt": "2024-05-23T18:56:25.029Z",
  "devdoc": {
    "kind": "dev",
    "methods": {
      "renounceOwnership()": {
        "details": "Leaves the contract without owner. It will not be possible to call `onlyOwner` functions anymore. Can only be called by the current owner. NOTE: Renouncing ownership will leave the contract without an owner, thereby removing any functionality that is only available to the owner."
      },
      "transferOwnership(address)": {
        "details": "Transfers ownership of the contract to a new account (`newOwner`). Can only be called by the current owner."
      }
    },
    "version": 1
  },
  "userdoc": {
    "kind": "user",
    "methods": {},
    "version": 1
  }
}