{
  "contractName": "LikesDislikes",
  "abi": [
    {
      "anonymous": false,
      "inputs": [
        {
          "indexed": false,
          "internalType": "address",
          "name": "sender",
          "type": "address"
        },
        {
          "indexed": false,
          "internalType": "address",
          "name": "poster",
          "type": "address"
        },
        {
          "indexed": false,
          "internalType": "uint256",
          "name": "post",
          "type": "uint256"
        }
      ],
      "name": "DislikeAdded",
      "type": "event"
    },
    {
      "anonymous": false,
      "inputs": [
        {
          "indexed": false,
          "internalType": "address",
          "name": "sender",
          "type": "address"
        },
        {
          "indexed": false,
          "internalType": "address",
          "name": "poster",
          "type": "address"
        },
        {
          "indexed": false,
          "internalType": "uint256",
          "name": "post",
          "type": "uint256"
        }
      ],
      "name": "LikeAdded",
      "type": "event"
    },
    {
      "inputs": [
        {
          "internalType": "address",
          "name": "user",
          "type": "address"
        },
        {
          "internalType": "address",
          "name": "poster",
          "type": "address"
        }
      ],
      "name": "getLikes",
      "outputs": [
        {
          "internalType": "uint256",
          "name": "",
          "type": "uint256"
        }
      ],
      "stateMutability": "view",
      "type": "function"
    },
    {
      "inputs": [
        {
          "internalType": "address",
          "name": "user",
          "type": "address"
        },
        {
          "internalType": "address",
          "name": "poster",
          "type": "address"
        }
      ],
      "name": "getDislikes",
      "outputs": [
        {
          "internalType": "uint256",
          "name": "",
          "type": "uint256"
        }
      ],
      "stateMutability": "view",
      "type": "function"
    }
  ],
  "bytecode": "0x6080806040523461001c5761038c90816100228239308160080152f35b600080fdfe604060808152307f00000000000000000000000000000000000000000000000000000000000000001490600436101561003757600080fd5b60009160e060020a833504630df2d68b811461018f5780638d3882451461014d5780639e4483f4146100fc5763dd5ef92c1461007257600080fd5b6100f857806003193601126100f8577f25a7b6c3e9800068e4c6002bda3c6f63294bcce8994e19f67d25efc79ae8565290600435906100f26100b261021f565b916100be331515610250565b600160a060020a0383166100d3811515610293565b6100dc336102db565b9087526020528381872055519283923384610314565b0390a180f35b5080fd5b5050806003193601126100f8578060209261011561023a565b61011d61021f565b600160a060020a039182168352600080516020610337833981519152865283832091168252845220549051908152f35b5050806003193601126100f8578060209261016661023a565b61017761017161021f565b916102db565b600160a060020a039091168252845220549051908152f35b506100f857806003193601126100f8577f47bb0e162e584c10f4892baba773d77bf6c53efa9520c8aea415065cc1c310d490600435906100f26101d061021f565b916101dc331515610250565b600160a060020a0383166101f1811515610293565b3387526000805160206103378339815191526020528187209087526020528381872055519283923384610314565b60243590600160a060020a038216820361023557565b600080fd5b60043590600160a060020a038216820361023557565b1561025757565b60405160e560020a62461bcd02815260206004820152600e6024820152609160020a6d34b73b30b634b21039b2b73232b9026044820152606490fd5b1561029a57565b60405160e560020a62461bcd0281526020600482015260136024820152606960020a7234b73b30b634b2103837b9ba1030baba3437b9026044820152606490fd5b600160a060020a031660009081527fb85a50261d2c4d8138a78591bb60476b8d83c65f9db4b0a472b9f8d8395c088b6020526040902090565b600160a060020a0391821681529116602082015260408101919091526060019056feb85a50261d2c4d8138a78591bb60476b8d83c65f9db4b0a472b9f8d8395c088aa2646970667358221220103994ee0caa640cfe4ffd37f47ac60f2bcbe4eeeba794eba5a753705dbeb84664736f6c63430008120033",
  "immutableReferences": {
    "library_deploy_address": [
      {
        "length": 32,
        "start": 8
      }
    ]
  },
  "source": "// SPDX-License-Identifier: CC-BY-4.0\r\npragma solidity >=0.4.22 <0.9.0;\r\n\r\nlibrary LikesDislikes {\r\n\r\n    event LikeAdded(address sender,address poster,uint256 post);\r\n    event DislikeAdded(address sender,address poster,uint256 post);\r\n\r\n    struct LikesDislikesStorage {\r\n        mapping (address => mapping(address => uint256)) likes;\r\n        mapping (address => mapping(address => uint256)) dislikes;\r\n    }\r\n\r\n    function likesDislikesStorage() internal pure returns (LikesDislikesStorage storage ds)\r\n    {\r\n        bytes32 position = keccak256(\"likesdislikes.storage\");\r\n        assembly { ds.slot := position }\r\n    }\r\n\r\n    /**\r\n    * a post may contain many likes, one -> many\r\n    * one like per user per post\r\n    */\r\n    function setLike(uint256 post, address poster)\r\n        external\r\n    {\r\n        require(msg.sender != address(0x0),\"invalid sender\");\r\n        require(poster != address(0x0),\"invalid post author\");\r\n        likesDislikesStorage().likes[msg.sender][poster] = post;\r\n        emit LikeAdded(msg.sender,poster,post);\r\n    }\r\n\r\n    function setDislike(uint256 post, address poster)\r\n        external\r\n    {\r\n        require(msg.sender != address(0x0),\"invalid sender\");\r\n        require(poster != address(0x0),\"invalid post author\");\r\n        likesDislikesStorage().dislikes[msg.sender][poster] = post;\r\n        emit DislikeAdded(msg.sender,poster,post);\r\n    }\r\n\r\n    function getLikes(address user, address poster)\r\n        external\r\n        view\r\n        returns (uint256)\r\n    {\r\n        return likesDislikesStorage().likes[user][poster];\r\n    }\r\n\r\n    function getDislikes(address user, address poster)\r\n        external\r\n        view\r\n        returns (uint256)\r\n    {\r\n        return likesDislikesStorage().dislikes[user][poster];\r\n    }\r\n\r\n}",
  "sourcePath": "/Volumes/HOME/pingleware-contracts/contracts/social/LikesDislikes.sol",
  "compiler": {
    "name": "solc",
    "version": "0.8.18+commit.87f61d96.Emscripten.clang"
  },
  "schemaVersion": "3.4.12",
  "updatedAt": "2024-05-23T18:56:27.279Z",
  "devdoc": {
    "kind": "dev",
    "methods": {},
    "version": 1
  },
  "userdoc": {
    "kind": "user",
    "methods": {
      "setLike(uint256,address)": {
        "notice": "a post may contain many likes, one -> many one like per user per post"
      }
    },
    "version": 1
  }
}