{
  "contractName": "LikesDislikes",
  "abi": [
    {
      "anonymous": false,
      "inputs": [
        {
          "indexed": false,
          "internalType": "address",
          "name": "sender",
          "type": "address"
        },
        {
          "indexed": false,
          "internalType": "address",
          "name": "poster",
          "type": "address"
        },
        {
          "indexed": false,
          "internalType": "uint256",
          "name": "post",
          "type": "uint256"
        }
      ],
      "name": "DislikeAdded",
      "type": "event"
    },
    {
      "anonymous": false,
      "inputs": [
        {
          "indexed": false,
          "internalType": "address",
          "name": "sender",
          "type": "address"
        },
        {
          "indexed": false,
          "internalType": "address",
          "name": "poster",
          "type": "address"
        },
        {
          "indexed": false,
          "internalType": "uint256",
          "name": "post",
          "type": "uint256"
        }
      ],
      "name": "LikeAdded",
      "type": "event"
    },
    {
      "inputs": [
        {
          "internalType": "address",
          "name": "user",
          "type": "address"
        },
        {
          "internalType": "address",
          "name": "poster",
          "type": "address"
        }
      ],
      "name": "getLikes",
      "outputs": [
        {
          "internalType": "uint256",
          "name": "",
          "type": "uint256"
        }
      ],
      "stateMutability": "view",
      "type": "function"
    },
    {
      "inputs": [
        {
          "internalType": "address",
          "name": "user",
          "type": "address"
        },
        {
          "internalType": "address",
          "name": "poster",
          "type": "address"
        }
      ],
      "name": "getDislikes",
      "outputs": [
        {
          "internalType": "uint256",
          "name": "",
          "type": "uint256"
        }
      ],
      "stateMutability": "view",
      "type": "function"
    }
  ],
  "bytecode": "0x6103fc610053600b82828239805160001a607314610046577f4e487b7100000000000000000000000000000000000000000000000000000000600052600060045260246000fd5b30600052607381538281f3fe73000000000000000000000000000000000000000030146080604052600436106100595760e060020a60003504630df2d68b811461005e5780638d388245146100805780639e4483f4146100a5578063dd5ef92c146100b8575b600080fd5b81801561006a57600080fd5b5061007e6100793660046102f1565b6100d8565b005b61009361008e36600461031d565b610195565b60405190815260200160405180910390f35b6100936100b336600461031d565b6101cf565b8180156100c457600080fd5b5061007e6100d33660046102f1565b610202565b336101015760405160e560020a62461bcd0281526004016100f890610347565b60405180910390fd5b600160a060020a03811661012a5760405160e560020a62461bcd0281526004016100f890610372565b816101336102b1565b33600081815260209283526040808220600160a060020a038716835290935282902092909255517f47bb0e162e584c10f4892baba773d77bf6c53efa9520c8aea415065cc1c310d49161018991849086906103a2565b60405180910390a15050565b600061019f6102b1565b600160a060020a039384166000908152600191909101602090815260408083209490951682529290925250205490565b60006101d96102b1565b600160a060020a0393841660009081526020918252604080822094909516815292905250205490565b336102225760405160e560020a62461bcd0281526004016100f890610347565b600160a060020a03811661024b5760405160e560020a62461bcd0281526004016100f890610372565b816102546102b1565b33600081815260019290920160209081526040808420600160a060020a03871685529091529182902092909255517f25a7b6c3e9800068e4c6002bda3c6f63294bcce8994e19f67d25efc79ae856529161018991849086906103a2565b7fb85a50261d2c4d8138a78591bb60476b8d83c65f9db4b0a472b9f8d8395c088a90565b8035600160a060020a03811681146102ec57600080fd5b919050565b6000806040838503121561030457600080fd5b82359150610314602084016102d5565b90509250929050565b6000806040838503121561033057600080fd5b610339836102d5565b9150610314602084016102d5565b6020808252600e90820152609160020a6d34b73b30b634b21039b2b73232b902604082015260600190565b6020808252601390820152606960020a7234b73b30b634b2103837b9ba1030baba3437b902604082015260600190565b600160a060020a03938416815291909216602082015260408101919091526060019056fea26469706673582212204c5f40f787bb9a64488896ea0b314dcb944b19d450ee79351fdb532caa5bd08c64736f6c63430008120033",
  "immutableReferences": {},
  "source": "// SPDX-License-Identifier: CC-BY-4.0\r\npragma solidity >=0.4.22 <0.9.0;\r\n\r\nlibrary LikesDislikes {\r\n\r\n    event LikeAdded(address sender,address poster,uint256 post);\r\n    event DislikeAdded(address sender,address poster,uint256 post);\r\n\r\n    struct LikesDislikesStorage {\r\n        mapping (address => mapping(address => uint256)) likes;\r\n        mapping (address => mapping(address => uint256)) dislikes;\r\n    }\r\n\r\n    function likesDislikesStorage() internal pure returns (LikesDislikesStorage storage ds)\r\n    {\r\n        bytes32 position = keccak256(\"likesdislikes.storage\");\r\n        assembly { ds.slot := position }\r\n    }\r\n\r\n    /**\r\n    * a post may contain many likes, one -> many\r\n    * one like per user per post\r\n    */\r\n    function setLike(uint256 post, address poster)\r\n        external\r\n    {\r\n        require(msg.sender != address(0x0),\"invalid sender\");\r\n        require(poster != address(0x0),\"invalid post author\");\r\n        likesDislikesStorage().likes[msg.sender][poster] = post;\r\n        emit LikeAdded(msg.sender,poster,post);\r\n    }\r\n\r\n    function setDislike(uint256 post, address poster)\r\n        external\r\n    {\r\n        require(msg.sender != address(0x0),\"invalid sender\");\r\n        require(poster != address(0x0),\"invalid post author\");\r\n        likesDislikesStorage().dislikes[msg.sender][poster] = post;\r\n        emit DislikeAdded(msg.sender,poster,post);\r\n    }\r\n\r\n    function getLikes(address user, address poster)\r\n        external\r\n        view\r\n        returns (uint256)\r\n    {\r\n        return likesDislikesStorage().likes[user][poster];\r\n    }\r\n\r\n    function getDislikes(address user, address poster)\r\n        external\r\n        view\r\n        returns (uint256)\r\n    {\r\n        return likesDislikesStorage().dislikes[user][poster];\r\n    }\r\n\r\n}",
  "sourcePath": "/Volumes/My Book/projects/pingleware-contracts/contracts/social/LikesDislikes.sol",
  "compiler": {
    "name": "solc",
    "version": "0.8.18+commit.87f61d96.Emscripten.clang"
  },
  "schemaVersion": "3.4.12",
  "updatedAt": "2023-10-22T04:05:08.410Z",
  "devdoc": {
    "kind": "dev",
    "methods": {},
    "version": 1
  },
  "userdoc": {
    "kind": "user",
    "methods": {
      "setLike(uint256,address)": {
        "notice": "a post may contain many likes, one -> many one like per user per post"
      }
    },
    "version": 1
  }
}