{
  "contractName": "ManufacturerRole",
  "abi": [
    {
      "inputs": [],
      "stateMutability": "nonpayable",
      "type": "constructor"
    },
    {
      "anonymous": false,
      "inputs": [
        {
          "indexed": true,
          "internalType": "address",
          "name": "account",
          "type": "address"
        }
      ],
      "name": "ManufacturerAdded",
      "type": "event"
    },
    {
      "anonymous": false,
      "inputs": [
        {
          "indexed": true,
          "internalType": "address",
          "name": "account",
          "type": "address"
        }
      ],
      "name": "ManufacturerRemoved",
      "type": "event"
    },
    {
      "inputs": [
        {
          "internalType": "address",
          "name": "account",
          "type": "address"
        }
      ],
      "name": "isManufacturer",
      "outputs": [
        {
          "internalType": "bool",
          "name": "",
          "type": "bool"
        }
      ],
      "stateMutability": "view",
      "type": "function",
      "constant": true
    },
    {
      "inputs": [
        {
          "internalType": "address",
          "name": "account",
          "type": "address"
        }
      ],
      "name": "addManufacturer",
      "outputs": [],
      "stateMutability": "nonpayable",
      "type": "function"
    },
    {
      "inputs": [],
      "name": "renounceManufacturer",
      "outputs": [],
      "stateMutability": "nonpayable",
      "type": "function"
    }
  ],
  "bytecode": "0x608060405234801561001057600080fd5b5061002333640100000000610028810204565b6101a2565b61004060008264010000000061013161007782021704565b604051600160a060020a038216907f561138658ca49a8540dc70dcfe64c9026c1c5b9344642242dd6562970f9c127890600090a250565b600160a060020a0381166100c0576040517f08c379a00000000000000000000000000000000000000000000000000000000081526004016100b790610191565b60405180910390fd5b6100d3828264010000000061012f810204565b1561010a576040517f08c379a00000000000000000000000000000000000000000000000000000000081526004016100b790610191565b600160a060020a0316600090815260209190915260409020805460ff19166001179055565b6000600160a060020a038216610171576040517f08c379a00000000000000000000000000000000000000000000000000000000081526004016100b790610191565b50600160a060020a03166000908152602091909152604090205460ff1690565b602080825260009082015260400190565b610363806101b16000396000f3fe608060405234801561001057600080fd5b50600436106100445760e060020a600035046317d4a49181146100495780635f8a5afa14610070578063de07f34e14610085575b600080fd5b61005c6100573660046102ec565b61008d565b604051901515815260200160405180910390f35b61008361007e3660046102ec565b61009f565b005b610083610126565b600061009981836101a9565b92915050565b6100a83361008d565b61011a5760405160e560020a62461bcd02815260206004820152603260248201527f596f75206e65656420746f20686176652074686520636f6e73756d657220726f6044820152607060020a716c6520746f20706572666f726d20746869730260648201526084015b60405180910390fd5b610123816101f4565b50565b61012f33610236565b565b600160a060020a03811661015a5760405160e560020a62461bcd0281526004016101119061031c565b61016482826101a9565b156101845760405160e560020a62461bcd0281526004016101119061031c565b600160a060020a0316600090815260209190915260409020805460ff19166001179055565b6000600160a060020a0382166101d45760405160e560020a62461bcd0281526004016101119061031c565b50600160a060020a03166000908152602091909152604090205460ff1690565b6101ff600082610131565b604051600160a060020a038216907f561138658ca49a8540dc70dcfe64c9026c1c5b9344642242dd6562970f9c127890600090a250565b610241600082610278565b604051600160a060020a038216907f2fed5abf6a80d6dfe30b4895481b2fc5d7dce5f8f7b931832f4a2947d5040c7f90600090a250565b600160a060020a0381166102a15760405160e560020a62461bcd0281526004016101119061031c565b6102ab82826101a9565b6102ca5760405160e560020a62461bcd0281526004016101119061031c565b600160a060020a0316600090815260209190915260409020805460ff19169055565b6000602082840312156102fe57600080fd5b8135600160a060020a038116811461031557600080fd5b9392505050565b60208082526000908201526040019056fea26469706673582212208c11d435926248e2f7dbc0939ea9b13a98419c3d37fc448cb6f698b9c970010f64736f6c63430008120033",
  "immutableReferences": {},
  "source": "// SPDX-License-Identifier: CC-BY-4.0\r\npragma solidity >=0.4.22 <0.9.0;\r\n\r\n\r\n// Import the library 'Roles'\r\nimport \"./Roles.sol\";\r\n\r\n// Define a contract 'ManufacturerRole' to manage this role - add, remove, check\r\ncontract ManufacturerRole {\r\n  using Roles for Roles.Role;\r\n\r\n  // Define 2 events, one for Adding, and other for Removing\r\n  event ManufacturerAdded(address indexed account);\r\n  event ManufacturerRemoved(address indexed account);\r\n\r\n  // Define a struct 'manufacturers' by inheriting from 'Roles' library, struct Role\r\n  Roles.Role private manufacturers;\r\n\r\n  // In the constructor make the address that deploys this contract the 1st consumer\r\n  constructor() {\r\n      _addManufacturer(msg.sender);\r\n  }\r\n\r\n  // Define a modifier that checks to see if msg.sender has the appropriate role\r\n  modifier onlyManufacturer() {\r\n    require(isManufacturer(msg.sender), \"You need to have the consumer role to perform this\");\r\n    _;\r\n  }\r\n\r\n  // Define a function 'isManufacturer' to check this role\r\n  function isManufacturer(address account) public view returns (bool) {\r\n    return manufacturers.has(account);\r\n  }\r\n\r\n  // Define a function 'addManufacturer' that adds this role\r\n  function addManufacturer(address account) public onlyManufacturer {\r\n    _addManufacturer(account);\r\n  }\r\n\r\n  // Define a function 'renounceManufacturer' to renounce this role\r\n  function renounceManufacturer() public {\r\n    _removeManufacturer(msg.sender);\r\n  }\r\n\r\n  // Define an internal function '_addManufacturer' to add this role, called by 'addManufacturer'\r\n  function _addManufacturer(address account) internal {\r\n    manufacturers.add(account);\r\n    emit ManufacturerAdded(account);\r\n  }\r\n\r\n  // Define an internal function '_removeManufacturer' to remove this role, called by 'removeManufacturer'\r\n  function _removeManufacturer(address account) internal {\r\n    manufacturers.remove(account);\r\n    emit ManufacturerRemoved(account);\r\n  }\r\n}",
  "sourcePath": "/Volumes/My Book/projects/pingleware-contracts/contracts/scm/ManufacturerRole.sol",
  "compiler": {
    "name": "solc",
    "version": "0.8.18+commit.87f61d96.Emscripten.clang"
  },
  "schemaVersion": "3.4.12",
  "updatedAt": "2023-10-24T12:20:42.872Z",
  "networkType": "ethereum",
  "devdoc": {
    "kind": "dev",
    "methods": {},
    "version": 1
  },
  "userdoc": {
    "kind": "user",
    "methods": {},
    "version": 1
  }
}