{
  "contractName": "ManufacturerRole",
  "abi": [
    {
      "inputs": [],
      "stateMutability": "nonpayable",
      "type": "constructor"
    },
    {
      "anonymous": false,
      "inputs": [
        {
          "indexed": true,
          "internalType": "address",
          "name": "account",
          "type": "address"
        }
      ],
      "name": "ManufacturerAdded",
      "type": "event"
    },
    {
      "anonymous": false,
      "inputs": [
        {
          "indexed": true,
          "internalType": "address",
          "name": "account",
          "type": "address"
        }
      ],
      "name": "ManufacturerRemoved",
      "type": "event"
    },
    {
      "inputs": [
        {
          "internalType": "address",
          "name": "account",
          "type": "address"
        }
      ],
      "name": "isManufacturer",
      "outputs": [
        {
          "internalType": "bool",
          "name": "",
          "type": "bool"
        }
      ],
      "stateMutability": "view",
      "type": "function"
    },
    {
      "inputs": [
        {
          "internalType": "address",
          "name": "account",
          "type": "address"
        }
      ],
      "name": "addManufacturer",
      "outputs": [],
      "stateMutability": "nonpayable",
      "type": "function"
    },
    {
      "inputs": [],
      "name": "renounceManufacturer",
      "outputs": [],
      "stateMutability": "nonpayable",
      "type": "function"
    }
  ],
  "bytecode": "0x6080604052346100825761001d33151561001881610087565b610087565b60003381528060205261003760ff60408320541615610087565b3381528060205260408120600160ff19825416179055604051907f561138658ca49a8540dc70dcfe64c9026c1c5b9344642242dd6562970f9c1278339180a261027890816100c78239f35b600080fd5b1561008e57565b60446040517f08c379a00000000000000000000000000000000000000000000000000000000081526020600482015260006024820152fdfe604060808152600436101561001357600080fd5b60009060e060020a8235046317d4a49181146101b35780635f8a5afa146100ac5763de07f34e1461004357600080fd5b346100a857816003193601126100a85761005e3315156101f1565b61006f61006a3361021a565b6101f1565b33825281602052812060ff198154169055337f2fed5abf6a80d6dfe30b4895481b2fc5d7dce5f8f7b931832f4a2947d5040c7f8280a280f35b5080fd5b50346100a85760203660031901126100a857600435600160a060020a03811691908281036101af576100df3315156101f1565b3384528360205260ff82852054161561014a5761010961010f916101048515156101f1565b61021a565b156101f1565b818352826020528220600160ff198254161790557f561138658ca49a8540dc70dcfe64c9026c1c5b9344642242dd6562970f9c12788280a280f35b815160e560020a62461bcd02815260206004820152603260248201527f596f75206e65656420746f20686176652074686520636f6e73756d657220726f6044820152607060020a716c6520746f20706572666f726d2074686973026064820152608490fd5b8380fd5b50346100a85760203660031901126100a85760043591600160a060020a03831683036101ee57506101e560209261021a565b90519015158152f35b80fd5b156101f857565b60405160e560020a62461bcd0281526020600482015260006024820152604490fd5b600160a060020a031661022e8115156101f1565b600052600060205260ff604060002054169056fea264697066735822122056020620176efcefb90ebfdf2330790c1919b261bea0b74df33d16df2aac6ff664736f6c63430008120033",
  "immutableReferences": {},
  "source": "// SPDX-License-Identifier: CC-BY-4.0\r\npragma solidity >=0.4.22 <0.9.0;\r\n\r\n\r\n// Import the library 'Roles'\r\nimport \"./Roles.sol\";\r\n\r\n// Define a contract 'ManufacturerRole' to manage this role - add, remove, check\r\ncontract ManufacturerRole {\r\n  using Roles for Roles.Role;\r\n\r\n  // Define 2 events, one for Adding, and other for Removing\r\n  event ManufacturerAdded(address indexed account);\r\n  event ManufacturerRemoved(address indexed account);\r\n\r\n  // Define a struct 'manufacturers' by inheriting from 'Roles' library, struct Role\r\n  Roles.Role private manufacturers;\r\n\r\n  // In the constructor make the address that deploys this contract the 1st consumer\r\n  constructor() {\r\n      _addManufacturer(msg.sender);\r\n  }\r\n\r\n  // Define a modifier that checks to see if msg.sender has the appropriate role\r\n  modifier onlyManufacturer() {\r\n    require(isManufacturer(msg.sender), \"You need to have the consumer role to perform this\");\r\n    _;\r\n  }\r\n\r\n  // Define a function 'isManufacturer' to check this role\r\n  function isManufacturer(address account) public view returns (bool) {\r\n    return manufacturers.has(account);\r\n  }\r\n\r\n  // Define a function 'addManufacturer' that adds this role\r\n  function addManufacturer(address account) public onlyManufacturer {\r\n    _addManufacturer(account);\r\n  }\r\n\r\n  // Define a function 'renounceManufacturer' to renounce this role\r\n  function renounceManufacturer() public {\r\n    _removeManufacturer(msg.sender);\r\n  }\r\n\r\n  // Define an internal function '_addManufacturer' to add this role, called by 'addManufacturer'\r\n  function _addManufacturer(address account) internal {\r\n    manufacturers.add(account);\r\n    emit ManufacturerAdded(account);\r\n  }\r\n\r\n  // Define an internal function '_removeManufacturer' to remove this role, called by 'removeManufacturer'\r\n  function _removeManufacturer(address account) internal {\r\n    manufacturers.remove(account);\r\n    emit ManufacturerRemoved(account);\r\n  }\r\n}",
  "sourcePath": "/Volumes/HOME/pingleware-contracts/contracts/scm/ManufacturerRole.sol",
  "compiler": {
    "name": "solc",
    "version": "0.8.18+commit.87f61d96.Emscripten.clang"
  },
  "schemaVersion": "3.4.12",
  "updatedAt": "2024-05-23T18:56:27.172Z",
  "devdoc": {
    "kind": "dev",
    "methods": {},
    "version": 1
  },
  "userdoc": {
    "kind": "user",
    "methods": {},
    "version": 1
  }
}