{
  "contractName": "Membership",
  "abi": [
    {
      "inputs": [
        {
          "internalType": "string",
          "name": "_name",
          "type": "string"
        },
        {
          "internalType": "string",
          "name": "_symbol",
          "type": "string"
        },
        {
          "internalType": "uint256",
          "name": "_fee",
          "type": "uint256"
        }
      ],
      "stateMutability": "nonpayable",
      "type": "constructor"
    },
    {
      "anonymous": false,
      "inputs": [
        {
          "indexed": false,
          "internalType": "address",
          "name": "member",
          "type": "address"
        },
        {
          "indexed": false,
          "internalType": "uint256",
          "name": "value",
          "type": "uint256"
        }
      ],
      "name": "ApprovedMembership",
      "type": "event"
    },
    {
      "anonymous": false,
      "inputs": [
        {
          "indexed": false,
          "internalType": "address",
          "name": "sender",
          "type": "address"
        },
        {
          "indexed": false,
          "internalType": "uint256",
          "name": "amount",
          "type": "uint256"
        }
      ],
      "name": "FallbackEvent",
      "type": "event"
    },
    {
      "anonymous": false,
      "inputs": [
        {
          "indexed": false,
          "internalType": "address",
          "name": "sender",
          "type": "address"
        }
      ],
      "name": "Forfeited",
      "type": "event"
    },
    {
      "anonymous": false,
      "inputs": [
        {
          "indexed": true,
          "internalType": "address",
          "name": "previousOwner",
          "type": "address"
        },
        {
          "indexed": true,
          "internalType": "address",
          "name": "newOwner",
          "type": "address"
        }
      ],
      "name": "OwnershipTransferred",
      "type": "event"
    },
    {
      "anonymous": false,
      "inputs": [
        {
          "indexed": false,
          "internalType": "address",
          "name": "sender",
          "type": "address"
        },
        {
          "indexed": false,
          "internalType": "uint256",
          "name": "amount",
          "type": "uint256"
        }
      ],
      "name": "ReceiveEvent",
      "type": "event"
    },
    {
      "anonymous": false,
      "inputs": [
        {
          "indexed": false,
          "internalType": "address",
          "name": "sender",
          "type": "address"
        }
      ],
      "name": "Request",
      "type": "event"
    },
    {
      "anonymous": false,
      "inputs": [
        {
          "indexed": false,
          "internalType": "address",
          "name": "sender",
          "type": "address"
        }
      ],
      "name": "Revoked",
      "type": "event"
    },
    {
      "stateMutability": "payable",
      "type": "fallback"
    },
    {
      "inputs": [],
      "name": "VERSION",
      "outputs": [
        {
          "internalType": "string",
          "name": "",
          "type": "string"
        }
      ],
      "stateMutability": "view",
      "type": "function"
    },
    {
      "inputs": [],
      "name": "WAIT",
      "outputs": [
        {
          "internalType": "uint256",
          "name": "",
          "type": "uint256"
        }
      ],
      "stateMutability": "view",
      "type": "function"
    },
    {
      "inputs": [],
      "name": "fee",
      "outputs": [
        {
          "internalType": "uint256",
          "name": "",
          "type": "uint256"
        }
      ],
      "stateMutability": "view",
      "type": "function"
    },
    {
      "inputs": [],
      "name": "getOwner",
      "outputs": [
        {
          "internalType": "address",
          "name": "",
          "type": "address"
        }
      ],
      "stateMutability": "payable",
      "type": "function"
    },
    {
      "inputs": [],
      "name": "name",
      "outputs": [
        {
          "internalType": "string",
          "name": "",
          "type": "string"
        }
      ],
      "stateMutability": "view",
      "type": "function"
    },
    {
      "inputs": [],
      "name": "renounceOwnership",
      "outputs": [],
      "stateMutability": "payable",
      "type": "function"
    },
    {
      "inputs": [],
      "name": "symbol",
      "outputs": [
        {
          "internalType": "string",
          "name": "",
          "type": "string"
        }
      ],
      "stateMutability": "view",
      "type": "function"
    },
    {
      "inputs": [
        {
          "internalType": "address",
          "name": "newOwner",
          "type": "address"
        }
      ],
      "name": "transferOwnership",
      "outputs": [],
      "stateMutability": "payable",
      "type": "function"
    },
    {
      "stateMutability": "payable",
      "type": "receive"
    },
    {
      "inputs": [
        {
          "internalType": "address",
          "name": "_from",
          "type": "address"
        }
      ],
      "name": "revokeFrom",
      "outputs": [],
      "stateMutability": "nonpayable",
      "type": "function"
    },
    {
      "inputs": [
        {
          "internalType": "address",
          "name": "_to",
          "type": "address"
        }
      ],
      "name": "isCurrentMember",
      "outputs": [
        {
          "internalType": "bool",
          "name": "",
          "type": "bool"
        }
      ],
      "stateMutability": "view",
      "type": "function"
    },
    {
      "inputs": [],
      "name": "requestMembership",
      "outputs": [],
      "stateMutability": "payable",
      "type": "function"
    },
    {
      "inputs": [],
      "name": "forfeitMembership",
      "outputs": [],
      "stateMutability": "payable",
      "type": "function"
    },
    {
      "inputs": [
        {
          "internalType": "address",
          "name": "_user",
          "type": "address"
        }
      ],
      "name": "approveRequest",
      "outputs": [],
      "stateMutability": "nonpayable",
      "type": "function"
    },
    {
      "inputs": [
        {
          "internalType": "address",
          "name": "_user",
          "type": "address"
        }
      ],
      "name": "discardRequest",
      "outputs": [],
      "stateMutability": "nonpayable",
      "type": "function"
    },
    {
      "inputs": [],
      "name": "getAllMembers",
      "outputs": [
        {
          "internalType": "address[]",
          "name": "",
          "type": "address[]"
        }
      ],
      "stateMutability": "view",
      "type": "function"
    },
    {
      "inputs": [],
      "name": "getCurrentMemberCount",
      "outputs": [
        {
          "internalType": "uint256",
          "name": "",
          "type": "uint256"
        }
      ],
      "stateMutability": "view",
      "type": "function"
    }
  ],
  "bytecode": "0x608060405234620003ae5762001172803803806200001d81620003b3565b9283398101606082820312620003ae578151916001604060020a0392838111620003ae57826200004f91830162000408565b9260209283830151828111620003ae576040916200006f91850162000408565b9201519360009333600160a060020a031986541617855560019342855533867f8be0079c531659141344cd1fd0a4f28419497f9722a3daafe3b4186f6b6457e08180a38251958487116200027e576003549660029487868a0499168015620003a3575b858a101462000376578190601f998a811162000323575b5085908a8311600114620002b7578492620002ab575b505060088202860a600019041916908502176003555b81519485116200027e576004968754878682049116801562000273575b85821014620002475781811162000201575b5083818711600114620001915750508495509362000185575b505082810292600802900a6000190419161790555b600555604051610cf790816200047b8239f35b0151915038806200015d565b88835280832095969594919391928691601f19831691905b8a838310620001e65750505010620001ca575b505050500201905562000172565b0151908316600802840a600019041916905538808080620001bc565b858701518955909701969485019488935090810190620001a9565b888352848320858381818b0104830193828b106200023d575b0104019088905b8281106200023157505062000144565b84815501889062000221565b935082936200021a565b60248360228b7f4e487b7100000000000000000000000000000000000000000000000000000000835252fd5b90607f169062000132565b807f4e487b7100000000000000000000000000000000000000000000000000000000602492526041600452fd5b015190503880620000ff565b600385528685208a94508893929091601f198416875b8a828210620003095750508411620002ee575b505050020160035562000115565b01516008838d1602840a6000190419169055388080620002e0565b8484015186558e988d9850909501949384019301620002cd565b90915060038452858420868b81818701048301938287106200036c575b9186959493918d93010401915b8281106200035d575050620000e9565b8681558594508b91016200034d565b9350829362000340565b6024837f4e487b710000000000000000000000000000000000000000000000000000000081526022600452fd5b98607f1698620000d2565b600080fd5b6040519190601f01601f191682016001604060020a03811183821017620003d957604052565b7f4e487b7100000000000000000000000000000000000000000000000000000000600052604160045260246000fd5b919080601f84011215620003ae5782516001604060020a038111620003d9576020906200043e601f8201601f19168301620003b3565b92818452828287010111620003ae5760005b8181106200046657508260009394955001015290565b85810183015184820184015282016200045056fe6080604090808252600490813610156100c8575b50361561009957333203610055577f26875833861a2b006512a11f1b86edf95df96131040f3caeed72989ee9858083825180610050343383610c1a565b0390a1005b6020606492519160e560020a62461bcd02835282015260196024820152603860020a787068697368696e672061747461636b2064657465637465643f026044820152fd5b7fcc85d09d309785db93d6df19917f2e6cc07fe27cd01c08c8279145deb5cf4526825180610050343383610c1a565b60009060e060020a8235049063061dff9a82146109725750806306fdde031461089a5780636112e48f14610861578063715018a61461081c5780637b10b2931461062f5780637c0f6b3514610567578063893d20e81461053e57806395d89b411461045a578063a324a9cf146103a5578063ae6b114314610367578063b8fb3a511461034b578063c89ed7aa146102fc578063cb695ef4146102dd578063ddca3f43146102be578063f2fde38b146101f85763ffa1ad74036100135782346101f457816003193601126101f457805191828201906001604060020a038211848310176101de57506101da93508152600a825260b060020a69312e362e342d626574610260208301525191829182610b3d565b0390f35b60e060020a634e487b7102815260418552602490fd5b5080fd5b50919060203660031901126102ba57600160a060020a038135818116939192908490036102b657845492831691610230833314610c35565b841561025c5750508290600080516020610c828339815191528580a3600160a060020a03191617815580f35b5160e560020a62461bcd028152602091810191909152602660248201527f4f776e61626c653a206e6577206f776e657220697320746865207a65726f2061604482015260d060020a65646472657373026064820152608490fd5b8480fd5b8280fd5b5082346101f457816003193601126101f4576020906005549051908152f35b5082346101f457816003193601126101f4576020906008549051908152f35b509190346102ba5760203660031901126102ba5735600160a060020a03811691908290036102ba5781602091600080516020610ca283398151915293855260078352848181205551908152a180f35b5082346101f457816003193601126101f45760209051601e8152f35b509190346102ba5760203660031901126102ba5735600160a060020a038116908190036102ba57818360019260209552600785522054149051908152f35b509190826003193601126102ba5733835260076020526001828420540361041557506020600080516020610ca2833981519152913384526007825283818120557fc4c0d862b8fbecdc09138bf871948c94873f051ad636f7aa385814c8818fc73c828251338152a151338152a180f35b6020606492519160e560020a62461bcd028352820152601a60248201527f6e6f206d656d6265727368697020746f6b656e206578697374730000000000006044820152fd5b5091346102ba57826003193601126102ba57805191838154916002830491600191828516948515610534575b602095868610811461051e578589529081156104fb57506001146104c0575b6101da87876104b6828c0383610b00565b5191829182610b3d565b9080949750528583205b8284106104e857505050826101da946104b6928201019438806104a5565b80548685018801529286019281016104ca565b60ff191688870152505050501515810283010192506104b6826101da38806104a5565b60e060020a634e487b7102845260228352602484fd5b93607f1693610486565b5082816003193601126101f457602090610556610bcb565b9051600160a060020a039091168152f35b83823461062c578060031936011261062c578151600880548083529083526020939284830192909183907ff3f7a9fe364faab93b216da50a3214154f22a0a2b415b23a84c8169e8b636ee390845b81811061060f57505050816105cb910382610b00565b83519485948186019282875251809352850193925b8281106105ef57505050500390f35b8351600160a060020a0316855286955093810193928101926001016105e0565b8254600160a060020a0316845292880192600192830192016105b5565b80fd5b509190826003193601126102ba5733156107dd57600160a060020a03610653610bcb565b16331461079b57338352602090600682528284205461075757338452600782528284205461071d5766038d7ea4c680009081333111156106dd575083808080933382f1156106d2577f9a26a1f9def08abe958f09f08b27ca5d3dcc90dc0bd84ac65a66e096560f3071913384526006825260018185205551338152a180f35b5051903d90823e3d90fd5b835160e560020a62461bcd02815290810183905260146024820152606060020a73696e73756666696369656e742062616c616e6365026044820152606490fd5b915160e560020a62461bcd0281529182015260106024820152608160020a6f30b63932b0b23c90309036b2b6b132b9026044820152606490fd5b915160e560020a62461bcd02815291820152601d60248201527f526571756573742068617320616c7265616479206265656e206d6164650000006044820152606490fd5b6020606492519160e560020a62461bcd02835282015260176024820152604960020a7620b2323932b9b99031b0b73737ba1031329037bbb732b9026044820152fd5b6020606492519160e560020a62461bcd02835282015260146024820152606260020a731059191c995cdcc81a5cc81b9bdd081d985b1a59026044820152fd5b508060031936011261062c57805481600160a060020a038216610840338214610c35565b600080516020610c828339815191528280a3600160a060020a031916815580f35b50918291346108965760203660031901126108965735600160a060020a03811690819003610896578252600660205281205580f35b5050fd5b5091346102ba57826003193601126102ba578051918360035460028104916001918281168015610968575b6020958686108214610952575084885290811561093157506001146108f6575b6101da86866104b6828b0383610b00565b929550600383528583205b82841061091e57505050826101da946104b69282010194386108e5565b8054868501880152928601928101610901565b60ff1916878601525050501515810283010192506104b6826101da386108e5565b60e060020a634e487b7102845260229052602483fd5b93607f16936108c5565b849150346102ba57602080600319360112610afc578435600160a060020a038181169391849003610af8578554168303610ab35750818452600681528284205415610a5f57818452600681528383812055600781524383852055600854604060020a811015610a49576001810180600855811015610a335760088552818520018054600160a060020a03191683179055825191825281018390527f5e43ff38c341fc34a651332680bf96141697793b61094a25dc57222cdbeea1679190a180f35b60e060020a634e487b7102855260328652602485fd5b60e060020a634e487b7102855260418652602485fd5b825160e560020a62461bcd02815280860191909152602160248201527f4e6f2070656e64696e67207265717565737420666f72206d656d626572736869604482015260fc60020a6007026064820152608490fd5b60e560020a62461bcd02815280860191909152601c60248201527f6f776e6572206163636573732064656e69656420666f722075736572000000006044820152606490fd5b8580fd5b8380fd5b601f909101601f19168101906001604060020a03821190821017610b2357604052565b60e060020a634e487b710260009081526041600452602490fd5b6020808252825181830181905290939260005b828110610b7257505060409293506000838284010152601f8019910116010190565b818101860151848201604001528501610b50565b15610b8d57565b60405160e560020a62461bcd0281526020600482015260106024820152608160020a6f3930ba32903634b6b4ba1032b93937b9026044820152606490fd5b600154601e8101809111610c0057610bed904211610be881610b86565b610b86565b42600155600054600160a060020a031690565b60e060020a634e487b710260009081526011600452602490fd5b600160a060020a039091168152602081019190915260400190565b15610c3c57565b60405160e560020a62461bcd0281526020600482015260176024820152604960020a7630b1b1b2b9b9903232b734b2b2103337b91037bbb732b9026044820152606490fdfe8be0079c531659141344cd1fd0a4f28419497f9722a3daafe3b4186f6b6457e0b6fa8b8bd5eab60f292eca876e3ef90722275b785309d84b1de113ce0b8c4e74a26469706673582212204a9e4c83a0529b61c1549e3d07fa621985d0abca1b0f0c68ba0a68aa416cfee464736f6c63430008120033",
  "immutableReferences": {},
  "source": "// SPDX-License-Identifier: CC-BY-4.0\r\npragma solidity >=0.4.22 <0.9.0;\r\n\r\nimport \"../common/Version.sol\";\r\nimport \"../common/Owned.sol\";\r\n\r\ncontract Membership is Version, Owned {\r\n    string public name;\r\n    string public symbol;\r\n    uint256 public fee;\r\n\r\n    mapping (address => uint) private membership_requests;\r\n    mapping (address => uint) private membership_tokens;\r\n\r\n    address[] private members;\r\n\r\n    event Forfeited(address sender);\r\n    event Revoked(address sender);\r\n    event Request(address sender);\r\n    event ApprovedMembership(address member,uint value);\r\n\r\n    constructor(string memory _name, string memory _symbol, uint256 _fee)\r\n    {\r\n        name = _name;\r\n        symbol = _symbol;\r\n        fee = _fee;\r\n    }\r\n\r\n    modifier isValidAddress() {\r\n        require (msg.sender != address(0), \"Address is not valid\");\r\n        require (msg.sender != getOwner(), \"Address cannot be owner\");\r\n        _;\r\n    }\r\n\r\n    modifier noPendingRequest() {\r\n        require (membership_requests[msg.sender] == 0, \"Request has already been made\");\r\n        _;\r\n    }\r\n\r\n    modifier isPendingRequest(address user) {\r\n        require (membership_requests[user] != 0, \"No pending request for membership\");\r\n        _;\r\n    }\r\n\r\n    modifier notMember() {\r\n        require (membership_tokens[msg.sender] == 0, \"already a member\");\r\n        _;\r\n    }\r\n\r\n    modifier hasToken() {\r\n        require (membership_tokens[msg.sender] == 1, \"no membership token exists\");\r\n        _;\r\n    }\r\n\r\n    function revokeFrom(address _from)\r\n        public\r\n    {\r\n        delete membership_tokens[_from];\r\n        emit Revoked(_from);\r\n    }\r\n    function isCurrentMember(address _to)\r\n        public\r\n        view\r\n        returns (bool)\r\n    {\r\n        return (membership_tokens[_to] == 1);\r\n    }\r\n\r\n    function requestMembership()\r\n        public\r\n        payable\r\n        isValidAddress()\r\n        noPendingRequest()\r\n        notMember()\r\n    {\r\n        require(msg.sender.balance > 0.001 ether,\"insufficient balance\");\r\n        payable(msg.sender).transfer(0.001 ether);\r\n        membership_requests[msg.sender] = 1;\r\n        emit Request(msg.sender);\r\n    }\r\n\r\n    function forfeitMembership()\r\n        public\r\n        payable\r\n        hasToken()\r\n    {\r\n        delete membership_tokens[msg.sender];\r\n        emit Forfeited(msg.sender);\r\n        emit Revoked(msg.sender);\r\n    }\r\n\r\n    function approveRequest(address _user)\r\n        public\r\n        isOwner(_user)\r\n        isPendingRequest(_user)\r\n    {\r\n        delete membership_requests[_user];\r\n        membership_tokens[_user] = block.number;\r\n        members.push(_user);\r\n        emit ApprovedMembership(_user, 0);\r\n    }\r\n\r\n    function discardRequest(address _user)\r\n        public\r\n    {\r\n        delete membership_requests[_user];\r\n    }\r\n\r\n    function getAllMembers()\r\n        public\r\n        view\r\n        returns (address[] memory)\r\n    {\r\n        return members;\r\n    }\r\n\r\n    function getCurrentMemberCount()\r\n        public\r\n        view\r\n        returns (uint)\r\n    {\r\n        return members.length;\r\n    }\r\n}",
  "sourcePath": "/Volumes/HOME/pingleware-contracts/contracts/membership/Membership.sol",
  "compiler": {
    "name": "solc",
    "version": "0.8.18+commit.87f61d96.Emscripten.clang"
  },
  "schemaVersion": "3.4.12",
  "updatedAt": "2024-05-23T18:56:26.966Z",
  "devdoc": {
    "kind": "dev",
    "methods": {
      "renounceOwnership()": {
        "details": "Leaves the contract without owner. It will not be possible to call `onlyOwner` functions anymore. Can only be called by the current owner. NOTE: Renouncing ownership will leave the contract without an owner, thereby removing any functionality that is only available to the owner."
      },
      "transferOwnership(address)": {
        "details": "Transfers ownership of the contract to a new account (`newOwner`). Can only be called by the current owner."
      }
    },
    "version": 1
  },
  "userdoc": {
    "kind": "user",
    "methods": {},
    "version": 1
  }
}