{
  "contractName": "Membership",
  "abi": [
    {
      "inputs": [
        {
          "internalType": "string",
          "name": "_name",
          "type": "string"
        },
        {
          "internalType": "string",
          "name": "_symbol",
          "type": "string"
        },
        {
          "internalType": "uint256",
          "name": "_fee",
          "type": "uint256"
        }
      ],
      "stateMutability": "nonpayable",
      "type": "constructor"
    },
    {
      "anonymous": false,
      "inputs": [
        {
          "indexed": false,
          "internalType": "address",
          "name": "member",
          "type": "address"
        },
        {
          "indexed": false,
          "internalType": "uint256",
          "name": "value",
          "type": "uint256"
        }
      ],
      "name": "ApprovedMembership",
      "type": "event"
    },
    {
      "anonymous": false,
      "inputs": [
        {
          "indexed": false,
          "internalType": "address",
          "name": "sender",
          "type": "address"
        },
        {
          "indexed": false,
          "internalType": "uint256",
          "name": "amount",
          "type": "uint256"
        }
      ],
      "name": "FallbackEvent",
      "type": "event"
    },
    {
      "anonymous": false,
      "inputs": [
        {
          "indexed": false,
          "internalType": "address",
          "name": "sender",
          "type": "address"
        }
      ],
      "name": "Forfeited",
      "type": "event"
    },
    {
      "anonymous": false,
      "inputs": [
        {
          "indexed": true,
          "internalType": "address",
          "name": "previousOwner",
          "type": "address"
        },
        {
          "indexed": true,
          "internalType": "address",
          "name": "newOwner",
          "type": "address"
        }
      ],
      "name": "OwnershipTransferred",
      "type": "event"
    },
    {
      "anonymous": false,
      "inputs": [
        {
          "indexed": false,
          "internalType": "address",
          "name": "sender",
          "type": "address"
        },
        {
          "indexed": false,
          "internalType": "uint256",
          "name": "amount",
          "type": "uint256"
        }
      ],
      "name": "ReceiveEvent",
      "type": "event"
    },
    {
      "anonymous": false,
      "inputs": [
        {
          "indexed": false,
          "internalType": "address",
          "name": "sender",
          "type": "address"
        }
      ],
      "name": "Request",
      "type": "event"
    },
    {
      "anonymous": false,
      "inputs": [
        {
          "indexed": false,
          "internalType": "address",
          "name": "sender",
          "type": "address"
        }
      ],
      "name": "Revoked",
      "type": "event"
    },
    {
      "stateMutability": "payable",
      "type": "fallback"
    },
    {
      "inputs": [],
      "name": "VERSION",
      "outputs": [
        {
          "internalType": "string",
          "name": "",
          "type": "string"
        }
      ],
      "stateMutability": "view",
      "type": "function"
    },
    {
      "inputs": [],
      "name": "WAIT",
      "outputs": [
        {
          "internalType": "uint256",
          "name": "",
          "type": "uint256"
        }
      ],
      "stateMutability": "view",
      "type": "function"
    },
    {
      "inputs": [],
      "name": "fee",
      "outputs": [
        {
          "internalType": "uint256",
          "name": "",
          "type": "uint256"
        }
      ],
      "stateMutability": "view",
      "type": "function"
    },
    {
      "inputs": [],
      "name": "getOwner",
      "outputs": [
        {
          "internalType": "address",
          "name": "",
          "type": "address"
        }
      ],
      "stateMutability": "payable",
      "type": "function"
    },
    {
      "inputs": [],
      "name": "name",
      "outputs": [
        {
          "internalType": "string",
          "name": "",
          "type": "string"
        }
      ],
      "stateMutability": "view",
      "type": "function"
    },
    {
      "inputs": [],
      "name": "renounceOwnership",
      "outputs": [],
      "stateMutability": "payable",
      "type": "function"
    },
    {
      "inputs": [],
      "name": "symbol",
      "outputs": [
        {
          "internalType": "string",
          "name": "",
          "type": "string"
        }
      ],
      "stateMutability": "view",
      "type": "function"
    },
    {
      "inputs": [
        {
          "internalType": "address",
          "name": "newOwner",
          "type": "address"
        }
      ],
      "name": "transferOwnership",
      "outputs": [],
      "stateMutability": "payable",
      "type": "function"
    },
    {
      "stateMutability": "payable",
      "type": "receive"
    },
    {
      "inputs": [
        {
          "internalType": "address",
          "name": "_from",
          "type": "address"
        }
      ],
      "name": "revokeFrom",
      "outputs": [],
      "stateMutability": "nonpayable",
      "type": "function"
    },
    {
      "inputs": [
        {
          "internalType": "address",
          "name": "_to",
          "type": "address"
        }
      ],
      "name": "isCurrentMember",
      "outputs": [
        {
          "internalType": "bool",
          "name": "",
          "type": "bool"
        }
      ],
      "stateMutability": "view",
      "type": "function"
    },
    {
      "inputs": [],
      "name": "requestMembership",
      "outputs": [],
      "stateMutability": "payable",
      "type": "function"
    },
    {
      "inputs": [],
      "name": "forfeitMembership",
      "outputs": [],
      "stateMutability": "payable",
      "type": "function"
    },
    {
      "inputs": [
        {
          "internalType": "address",
          "name": "_user",
          "type": "address"
        }
      ],
      "name": "approveRequest",
      "outputs": [],
      "stateMutability": "nonpayable",
      "type": "function"
    },
    {
      "inputs": [
        {
          "internalType": "address",
          "name": "_user",
          "type": "address"
        }
      ],
      "name": "discardRequest",
      "outputs": [],
      "stateMutability": "nonpayable",
      "type": "function"
    },
    {
      "inputs": [],
      "name": "getAllMembers",
      "outputs": [
        {
          "internalType": "address[]",
          "name": "",
          "type": "address[]"
        }
      ],
      "stateMutability": "view",
      "type": "function"
    },
    {
      "inputs": [],
      "name": "getCurrentMemberCount",
      "outputs": [
        {
          "internalType": "uint256",
          "name": "",
          "type": "uint256"
        }
      ],
      "stateMutability": "view",
      "type": "function"
    }
  ],
  "bytecode": "0x608060405260006001553480156200001657600080fd5b50604051620010a6380380620010a6833981016040819052620000399162000184565b60008054600160a060020a031916339081178255426001556040519091907f8be0079c531659141344cd1fd0a4f28419497f9722a3daafe3b4186f6b6457e0908290a360036200008a84826200029f565b5060046200009983826200029f565b5060055550620003719050565b7f4e487b7100000000000000000000000000000000000000000000000000000000600052604160045260246000fd5b600082601f830112620000e757600080fd5b81516001604060020a0380821115620001045762000104620000a6565b604051601f8301601f19908116603f011681019082821181831017156200012f576200012f620000a6565b816040528381526020925086838588010111156200014c57600080fd5b600091505b8382101562000170578582018301518183018401529082019062000151565b600093810190920192909252949350505050565b6000806000606084860312156200019a57600080fd5b83516001604060020a0380821115620001b257600080fd5b620001c087838801620000d5565b94506020860151915080821115620001d757600080fd5b50620001e686828701620000d5565b925050604084015190509250925092565b6002810460018216806200020c57607f821691505b60208210810362000246577f4e487b7100000000000000000000000000000000000000000000000000000000600052602260045260246000fd5b50919050565b601f8211156200029a576000818152602081206020601f86010481016020861015620002755750805b6020601f860104820191505b81811015620002965782815560010162000281565b5050505b505050565b81516001604060020a03811115620002bb57620002bb620000a6565b620002d381620002cc8454620001f7565b846200024c565b602080601f8311600181146200030f5760008415620002f25750858301515b60028086026008870290910a600019041982161786555062000296565b600085815260208120601f198616915b8281101562000340578886015182559484019460019091019084016200031f565b50858210156200036157878501516008601f88160260020a60001904191681555b5050505050600202600101905550565b610d2580620003816000396000f3fe6080604052600436106100ca5760e060020a6000350463061dff9a811461019157806306fdde03146101b35780636112e48f146101de578063715018a6146102135780637b10b2931461021b5780637c0f6b3514610223578063893d20e81461024557806395d89b411461025a578063a324a9cf1461026f578063ae6b114314610277578063b8fb3a51146102c0578063c89ed7aa146102e3578063cb695ef414610303578063ddca3f4314610318578063f2fde38b1461032e578063ffa1ad74146103415761010a565b3661010a577fcc85d09d309785db93d6df19917f2e6cc07fe27cd01c08c8279145deb5cf45263334604051610100929190610aed565b60405180910390a1005b3233146101605760405160e560020a62461bcd0281526020600482015260196024820152603860020a787068697368696e672061747461636b2064657465637465643f0260448201526064015b60405180910390fd5b7f26875833861a2b006512a11f1b86edf95df96131040f3caeed72989ee98580833334604051610100929190610aed565b34801561019d57600080fd5b506101b16101ac366004610b06565b61037a565b005b3480156101bf57600080fd5b506101c86104fb565b6040516101d59190610b36565b60405180910390f35b3480156101ea57600080fd5b506101b16101f9366004610b06565b600160a060020a0316600090815260066020526040812055565b6101b1610589565b6101b16105ee565b34801561022f57600080fd5b5061023861081c565b6040516101d59190610b84565b61024d61087e565b6040516101d59190610bd1565b34801561026657600080fd5b506101c86108f4565b6101b1610901565b34801561028357600080fd5b506102b0610292366004610b06565b600160a060020a031660009081526007602052604090205460011490565b60405190151581526020016101d5565b3480156102cc57600080fd5b506102d5601e81565b6040519081526020016101d5565b3480156102ef57600080fd5b506101b16102fe366004610b06565b6109c8565b34801561030f57600080fd5b506008546102d5565b34801561032457600080fd5b506102d560055481565b6101b161033c366004610b06565b610a0c565b34801561034d57600080fd5b506101c86040518060400160405280600a815260200160b060020a69312e362e342d626574610281525081565b6000548190600160a060020a038083169116146103dc5760405160e560020a62461bcd02815260206004820152601c60248201527f6f776e6572206163636573732064656e69656420666f722075736572000000006044820152606401610157565b600160a060020a0382166000908152600660205260408120548391036104545760405160e560020a62461bcd02815260206004820152602160248201527f4e6f2070656e64696e67207265717565737420666f72206d656d626572736869604482015260fc60020a6007026064820152608401610157565b600160a060020a03831660008181526006602090815260408083208390556007909152808220439055600880546001810182559083527ff3f7a9fe364faab93b216da50a3214154f22a0a2b415b23a84c8169e8b636ee3018054600160a060020a03191690931790925590517f5e43ff38c341fc34a651332680bf96141697793b61094a25dc57222cdbeea167916104ee91869190610aed565b60405180910390a1505050565b6003805461050890610be5565b80601f016020809104026020016040519081016040528092919081815260200182805461053490610be5565b80156105815780601f1061055657610100808354040283529160200191610581565b820191906000526020600020905b81548152906001019060200180831161056457829003601f168201915b505050505081565b600054600160a060020a031633146105b65760405160e560020a62461bcd02815260040161015790610c23565b60008054604051600160a060020a0390911690600080516020610cb0833981519152908390a360008054600160a060020a0319169055565b336106385760405160e560020a62461bcd0281526020600482015260146024820152606260020a731059191c995cdcc81a5cc81b9bdd081d985b1a59026044820152606401610157565b61064061087e565b600160a060020a031633036106975760405160e560020a62461bcd0281526020600482015260176024820152604960020a7620b2323932b9b99031b0b73737ba1031329037bbb732b9026044820152606401610157565b33600090815260066020526040902054156106f75760405160e560020a62461bcd02815260206004820152601d60248201527f526571756573742068617320616c7265616479206265656e206d6164650000006044820152606401610157565b336000908152600760205260409020541561074d5760405160e560020a62461bcd0281526020600482015260106024820152608160020a6f30b63932b0b23c90309036b2b6b132b9026044820152606401610157565b66038d7ea4c680003331116107a15760405160e560020a62461bcd0281526020600482015260146024820152606060020a73696e73756666696369656e742062616c616e6365026044820152606401610157565b604051339060009066038d7ea4c680009082818181858883f193505050501580156107d0573d6000803e3d6000fd5b50336000818152600660205260409081902060019055517f9a26a1f9def08abe958f09f08b27ca5d3dcc90dc0bd84ac65a66e096560f30719161081291610bd1565b60405180910390a1565b6060600880548060200260200160405190810160405280929190818152602001828054801561087457602002820191906000526020600020905b8154600160a060020a03168152600190910190602001808311610856575b5050505050905090565b6000601e60015461088f9190610c57565b42116108b05760405160e560020a62461bcd02815260040161015790610c82565b601e6001546108bf9190610c57565b42116108e05760405160e560020a62461bcd02815260040161015790610c82565b5042600155600054600160a060020a031690565b6004805461050890610be5565b336000908152600760205260409020546001146109635760405160e560020a62461bcd02815260206004820152601a60248201527f6e6f206d656d6265727368697020746f6b656e206578697374730000000000006044820152606401610157565b3360008181526007602052604080822091909155517fc4c0d862b8fbecdc09138bf871948c94873f051ad636f7aa385814c8818fc73c916109a391610bd1565b60405180910390a1600080516020610cd0833981519152336040516108129190610bd1565b600160a060020a0381166000908152600760205260408082209190915551600080516020610cd083398151915290610a01908390610bd1565b60405180910390a150565b600054600160a060020a03163314610a395760405160e560020a62461bcd02815260040161015790610c23565b600160a060020a038116610aa45760405160e560020a62461bcd02815260206004820152602660248201527f4f776e61626c653a206e6577206f776e657220697320746865207a65726f2061604482015260d060020a65646472657373026064820152608401610157565b60008054604051600160a060020a0380851693921691600080516020610cb083398151915291a360008054600160a060020a031916600160a060020a0392909216919091179055565b600160a060020a03929092168252602082015260400190565b600060208284031215610b1857600080fd5b8135600160a060020a0381168114610b2f57600080fd5b9392505050565b600060208083528351808285015260005b81811015610b6357858101830151858201604001528201610b47565b506000604082860101526040601f19601f8301168501019250505092915050565b6020808252825182820181905260009190848201906040850190845b81811015610bc5578351600160a060020a031683529284019291840191600101610ba0565b50909695505050505050565b600160a060020a0391909116815260200190565b600281046001821680610bf957607f821691505b602082108103610c1d5760e060020a634e487b710260009081526022600452602490fd5b50919050565b6020808252601790820152604960020a7630b1b1b2b9b9903232b734b2b2103337b91037bbb732b902604082015260600190565b80820180821115610c7c5760e060020a634e487b710260009081526011600452602490fd5b92915050565b6020808252601090820152608160020a6f3930ba32903634b6b4ba1032b93937b90260408201526060019056fe8be0079c531659141344cd1fd0a4f28419497f9722a3daafe3b4186f6b6457e0b6fa8b8bd5eab60f292eca876e3ef90722275b785309d84b1de113ce0b8c4e74a2646970667358221220a7c21714c7638f6625e4bb3e34b56a1e8179ace364af2acd594fbdab16aa6d2064736f6c63430008120033",
  "immutableReferences": {},
  "source": "// SPDX-License-Identifier: CC-BY-4.0\r\npragma solidity >=0.4.22 <0.9.0;\r\n\r\nimport \"../common/Version.sol\";\r\nimport \"../common/Owned.sol\";\r\n\r\ncontract Membership is Version, Owned {\r\n    string public name;\r\n    string public symbol;\r\n    uint256 public fee;\r\n\r\n    mapping (address => uint) private membership_requests;\r\n    mapping (address => uint) private membership_tokens;\r\n\r\n    address[] private members;\r\n\r\n    event Forfeited(address sender);\r\n    event Revoked(address sender);\r\n    event Request(address sender);\r\n    event ApprovedMembership(address member,uint value);\r\n\r\n    constructor(string memory _name, string memory _symbol, uint256 _fee)\r\n    {\r\n        name = _name;\r\n        symbol = _symbol;\r\n        fee = _fee;\r\n    }\r\n\r\n    modifier isValidAddress() {\r\n        require (msg.sender != address(0), \"Address is not valid\");\r\n        require (msg.sender != getOwner(), \"Address cannot be owner\");\r\n        _;\r\n    }\r\n\r\n    modifier noPendingRequest() {\r\n        require (membership_requests[msg.sender] == 0, \"Request has already been made\");\r\n        _;\r\n    }\r\n\r\n    modifier isPendingRequest(address user) {\r\n        require (membership_requests[user] != 0, \"No pending request for membership\");\r\n        _;\r\n    }\r\n\r\n    modifier notMember() {\r\n        require (membership_tokens[msg.sender] == 0, \"already a member\");\r\n        _;\r\n    }\r\n\r\n    modifier hasToken() {\r\n        require (membership_tokens[msg.sender] == 1, \"no membership token exists\");\r\n        _;\r\n    }\r\n\r\n    function revokeFrom(address _from)\r\n        public\r\n    {\r\n        delete membership_tokens[_from];\r\n        emit Revoked(_from);\r\n    }\r\n    function isCurrentMember(address _to)\r\n        public\r\n        view\r\n        returns (bool)\r\n    {\r\n        return (membership_tokens[_to] == 1);\r\n    }\r\n\r\n    function requestMembership()\r\n        public\r\n        payable\r\n        isValidAddress()\r\n        noPendingRequest()\r\n        notMember()\r\n    {\r\n        require(msg.sender.balance > 0.001 ether,\"insufficient balance\");\r\n        payable(msg.sender).transfer(0.001 ether);\r\n        membership_requests[msg.sender] = 1;\r\n        emit Request(msg.sender);\r\n    }\r\n\r\n    function forfeitMembership()\r\n        public\r\n        payable\r\n        hasToken()\r\n    {\r\n        delete membership_tokens[msg.sender];\r\n        emit Forfeited(msg.sender);\r\n        emit Revoked(msg.sender);\r\n    }\r\n\r\n    function approveRequest(address _user)\r\n        public\r\n        isOwner(_user)\r\n        isPendingRequest(_user)\r\n    {\r\n        delete membership_requests[_user];\r\n        membership_tokens[_user] = block.number;\r\n        members.push(_user);\r\n        emit ApprovedMembership(_user, 0);\r\n    }\r\n\r\n    function discardRequest(address _user)\r\n        public\r\n    {\r\n        delete membership_requests[_user];\r\n    }\r\n\r\n    function getAllMembers()\r\n        public\r\n        view\r\n        returns (address[] memory)\r\n    {\r\n        return members;\r\n    }\r\n\r\n    function getCurrentMemberCount()\r\n        public\r\n        view\r\n        returns (uint)\r\n    {\r\n        return members.length;\r\n    }\r\n}",
  "sourcePath": "/Volumes/My Book/projects/pingleware-contracts/contracts/membership/Membership.sol",
  "compiler": {
    "name": "solc",
    "version": "0.8.18+commit.87f61d96.Emscripten.clang"
  },
  "schemaVersion": "3.4.12",
  "updatedAt": "2023-10-22T04:02:28.758Z",
  "devdoc": {
    "kind": "dev",
    "methods": {
      "renounceOwnership()": {
        "details": "Leaves the contract without owner. It will not be possible to call `onlyOwner` functions anymore. Can only be called by the current owner. NOTE: Renouncing ownership will leave the contract without an owner, thereby removing any functionality that is only available to the owner."
      },
      "transferOwnership(address)": {
        "details": "Transfers ownership of the contract to a new account (`newOwner`). Can only be called by the current owner."
      }
    },
    "version": 1
  },
  "userdoc": {
    "kind": "user",
    "methods": {},
    "version": 1
  }
}