{
  "contractName": "MunicipalGovernment",
  "abi": [
    {
      "inputs": [],
      "stateMutability": "nonpayable",
      "type": "constructor"
    },
    {
      "anonymous": false,
      "inputs": [
        {
          "indexed": false,
          "internalType": "uint256",
          "name": "proposalId",
          "type": "uint256"
        },
        {
          "indexed": false,
          "internalType": "string",
          "name": "description",
          "type": "string"
        }
      ],
      "name": "ProposalCreated",
      "type": "event"
    },
    {
      "anonymous": false,
      "inputs": [
        {
          "indexed": false,
          "internalType": "uint256",
          "name": "proposalId",
          "type": "uint256"
        },
        {
          "indexed": false,
          "internalType": "address",
          "name": "voter",
          "type": "address"
        },
        {
          "indexed": false,
          "internalType": "bool",
          "name": "inSupport",
          "type": "bool"
        }
      ],
      "name": "ProposalVoted",
      "type": "event"
    },
    {
      "inputs": [
        {
          "internalType": "uint256",
          "name": "",
          "type": "uint256"
        }
      ],
      "name": "councilMembers",
      "outputs": [
        {
          "internalType": "address",
          "name": "",
          "type": "address"
        }
      ],
      "stateMutability": "view",
      "type": "function",
      "constant": true
    },
    {
      "inputs": [],
      "name": "mayor",
      "outputs": [
        {
          "internalType": "address",
          "name": "",
          "type": "address"
        }
      ],
      "stateMutability": "view",
      "type": "function",
      "constant": true
    },
    {
      "inputs": [],
      "name": "proposalCounter",
      "outputs": [
        {
          "internalType": "uint256",
          "name": "",
          "type": "uint256"
        }
      ],
      "stateMutability": "view",
      "type": "function",
      "constant": true
    },
    {
      "inputs": [
        {
          "internalType": "uint256",
          "name": "",
          "type": "uint256"
        }
      ],
      "name": "proposals",
      "outputs": [
        {
          "internalType": "string",
          "name": "description",
          "type": "string"
        },
        {
          "internalType": "uint256",
          "name": "votes",
          "type": "uint256"
        },
        {
          "internalType": "bool",
          "name": "passed",
          "type": "bool"
        }
      ],
      "stateMutability": "view",
      "type": "function",
      "constant": true
    },
    {
      "inputs": [],
      "name": "getCityCouncilAddress",
      "outputs": [
        {
          "internalType": "address",
          "name": "",
          "type": "address"
        }
      ],
      "stateMutability": "view",
      "type": "function",
      "constant": true
    },
    {
      "inputs": [
        {
          "internalType": "address",
          "name": "account",
          "type": "address"
        }
      ],
      "name": "isCouncilMember",
      "outputs": [
        {
          "internalType": "bool",
          "name": "",
          "type": "bool"
        }
      ],
      "stateMutability": "view",
      "type": "function",
      "constant": true
    },
    {
      "inputs": [
        {
          "internalType": "address",
          "name": "newMember",
          "type": "address"
        }
      ],
      "name": "addCouncilMember",
      "outputs": [],
      "stateMutability": "nonpayable",
      "type": "function"
    },
    {
      "inputs": [
        {
          "internalType": "string",
          "name": "description",
          "type": "string"
        }
      ],
      "name": "createProposal",
      "outputs": [],
      "stateMutability": "nonpayable",
      "type": "function"
    },
    {
      "inputs": [
        {
          "internalType": "uint256",
          "name": "proposalId",
          "type": "uint256"
        },
        {
          "internalType": "bool",
          "name": "inSupport",
          "type": "bool"
        }
      ],
      "name": "voteOnProposal",
      "outputs": [],
      "stateMutability": "nonpayable",
      "type": "function"
    }
  ],
  "bytecode": "0x608060405234801561001057600080fd5b5060008054600160a060020a03199081163390811783556001805480820182559084527fb10e2d527612073b26eecdfd717e6a320cf44b4afac2b0732d9fcbe2b7fa0cf60180549092161790556003556109ba8061006f6000396000f3fe608060405234801561001057600080fd5b50600436106100865760e060020a6000350463013cf08b811461008b5780630c0512e9146100b65780631614665c146100cd578063289f5375146100e257806349c2a1a6146100f5578063751a6a3414610108578063cf7ff13314610133578063eb1e39c214610146578063ebd7dc521461014c575b600080fd5b61009e61009936600461059e565b61016f565b6040516100ad939291906105fd565b60405180910390f35b6100bf60035481565b6040519081526020016100ad565b6100e06100db366004610627565b61021d565b005b6100e06100f036600461065c565b610373565b6100e06101033660046106a6565b610434565b61011b61011636600461059e565b61050b565b604051600160a060020a0390911681526020016100ad565b60005461011b90600160a060020a031681565b3061011b565b61015f61015a36600461065c565b610535565b60405190151581526020016100ad565b60026020526000908152604090208054819061018a90610756565b80601f01602080910402602001604051908101604052809291908181526020018280546101b690610756565b80156102035780601f106101d857610100808354040283529160200191610203565b820191906000526020600020905b8154815290600101906020018083116101e657829003601f168201915b50505050600183015460029093015491929160ff16905083565b61022633610535565b61024e5760405160e560020a62461bcd02815260040161024590610794565b60405180910390fd5b60018054600084815260026020526040902090910154106102c85760405160e560020a62461bcd02815260206004820152602860248201527f546869732070726f706f73616c2068617320616c7265616479206265656e2076604482015260c160020a6737ba32b21037b717026064820152608401610245565b60008281526002602052604081206001018054916102e5836107e4565b90915550506001546102f99060029061080f565b600083815260026020526040902060010154111561032f57600082815260026020819052604090912001805460ff191660011790555b604080518381523360208201528215158183015290517f0def80f9a3b4c7a4251442658ccf516bf33ea4acaf31638fc6da8ebdb0f64c729181900360600190a15050565b600054600160a060020a031633146103e35760405160e560020a62461bcd02815260206004820152602760248201527f4f6e6c7920746865206d61796f722063616e20706572666f726d207468697320604482015260c960020a6630b1ba34b7b717026064820152608401610245565b6001805480820182556000919091527fb10e2d527612073b26eecdfd717e6a320cf44b4afac2b0732d9fcbe2b7fa0cf6018054600160a060020a031916600160a060020a0392909216919091179055565b61043d33610535565b61045c5760405160e560020a62461bcd02815260040161024590610794565b6003805490600061046c836107e4565b9091555050604080516060810182528281526000602080830182905282840182905260035482526002905291909120815181906104a99082610884565b50602082015160018201556040918201516002909101805460ff191691151591909117905560035490517f9c770c289ab5bf7e57cb1d23c8ceae993aea46eb64847072fd3d78ca60d3e43291610500918490610949565b60405180910390a150565b6001818154811061051b57600080fd5b600091825260209091200154600160a060020a0316905081565b6000805b6001548110156105955782600160a060020a0316600182815481106105605761056061096a565b600091825260209091200154600160a060020a0316036105835750600192915050565b8061058d816107e4565b915050610539565b50600092915050565b6000602082840312156105b057600080fd5b5035919050565b6000815180845260005b818110156105dd576020818501810151868301820152016105c1565b506000602082860101526020601f19601f83011685010191505092915050565b60608152600061061060608301866105b7565b602083019490945250901515604090910152919050565b6000806040838503121561063a57600080fd5b823591506020830135801515811461065157600080fd5b809150509250929050565b60006020828403121561066e57600080fd5b8135600160a060020a038116811461068557600080fd5b9392505050565b60e060020a634e487b710260009081526041600452602490fd5b6000602082840312156106b857600080fd5b81356001604060020a03808211156106cf57600080fd5b818401915084601f8301126106e357600080fd5b8135818111156106f5576106f561068c565b604051601f8201601f19908116603f0116810190838211818310171561071d5761071d61068c565b8160405282815287602084870101111561073657600080fd5b826020860160208301376000928101602001929092525095945050505050565b60028104600182168061076a57607f821691505b60208210810361078e5760e060020a634e487b710260009081526022600452602490fd5b50919050565b6020808252602d908201527f4f6e6c7920636f756e63696c206d656d626572732063616e20706572666f726d6040820152609960020a6c103a3434b99030b1ba34b7b71702606082015260800190565b6000600182016108085760e060020a634e487b710260009081526011600452602490fd5b5060010190565b6000826108305760e060020a634e487b710260009081526012600452602490fd5b500490565b601f82111561087f576000818152602081206020601f8601048101602086101561085c5750805b6020601f860104820191505b8181101561087b57828155600101610868565b5050505b505050565b81516001604060020a0381111561089d5761089d61068c565b6108b1816108ab8454610756565b84610835565b602080601f8311600181146108ea57600084156108ce5750858301515b60028086026008870290910a600019041982161786555061087b565b600085815260208120601f198616915b82811015610919578886015182559484019460019091019084016108fa565b508582101561093957878501516008601f88160260020a60001904191681555b5050505050600202600101905550565b82815260406020820152600061096260408301846105b7565b949350505050565b60e060020a634e487b710260009081526032600452602490fdfea264697066735822122090187ed89c14a99b8b5ffe65dc2ee1b41caa8d1a95938ea8d1ad8b8dde59900f64736f6c63430008120033",
  "immutableReferences": {},
  "source": "// SPDX-License-Identifier: BSL-1.1\npragma solidity >=0.4.22 <0.9.0;\n\ncontract MunicipalGovernment {\n    address public mayor;\n    address[] public councilMembers;\n    \n    struct Proposal {\n        string description;\n        uint256 votes;\n        bool passed;\n    }\n    \n    mapping(uint256 => Proposal) public proposals;\n    uint256 public proposalCounter;\n    \n    event ProposalCreated(uint256 proposalId, string description);\n    event ProposalVoted(uint256 proposalId, address voter, bool inSupport);\n    \n    constructor() {\n        mayor = msg.sender;\n        councilMembers.push(msg.sender);\n        proposalCounter = 0;\n    }\n    \n    modifier onlyMayor() {\n        require(msg.sender == mayor, \"Only the mayor can perform this action.\");\n        _;\n    }\n    \n    modifier onlyCouncilMember() {\n        require(isCouncilMember(msg.sender), \"Only council members can perform this action.\");\n        _;\n    }\n\n    function getCityCouncilAddress() external view returns (address) {\n        return address(this);\n    }\n    \n    function isCouncilMember(address account) public view returns (bool) {\n        for (uint256 i = 0; i < councilMembers.length; i++) {\n            if (councilMembers[i] == account) {\n                return true;\n            }\n        }\n        return false;\n    }\n    \n    function addCouncilMember(address newMember) public onlyMayor {\n        councilMembers.push(newMember);\n    }\n    \n    function createProposal(string memory description) public onlyCouncilMember {\n        proposalCounter++;\n        proposals[proposalCounter] = Proposal(description, 0, false);\n        emit ProposalCreated(proposalCounter, description);\n    }\n    \n    function voteOnProposal(uint256 proposalId, bool inSupport) public onlyCouncilMember {\n        require(proposals[proposalId].votes < councilMembers.length, \"This proposal has already been voted on.\");\n        proposals[proposalId].votes++;\n        \n        if (proposals[proposalId].votes > councilMembers.length / 2) {\n            proposals[proposalId].passed = true;\n        }\n        \n        emit ProposalVoted(proposalId, msg.sender, inSupport);\n    }\n}\n",
  "sourcePath": "/Volumes/My Book/projects/pingleware-contracts/contracts/government/municipal/MunicipalGovernment.sol",
  "compiler": {
    "name": "solc",
    "version": "0.8.18+commit.87f61d96.Emscripten.clang"
  },
  "schemaVersion": "3.4.12",
  "updatedAt": "2023-10-24T17:55:36.616Z",
  "networkType": "ethereum",
  "devdoc": {
    "kind": "dev",
    "methods": {},
    "version": 1
  },
  "userdoc": {
    "kind": "user",
    "methods": {},
    "version": 1
  }
}