{
  "contractName": "MunicipalBond",
  "abi": [
    {
      "inputs": [
        {
          "internalType": "string",
          "name": "_bondName",
          "type": "string"
        },
        {
          "internalType": "address",
          "name": "_issuer",
          "type": "address"
        },
        {
          "internalType": "address",
          "name": "_issuerWallet",
          "type": "address"
        },
        {
          "internalType": "uint256",
          "name": "_totalPrincipal",
          "type": "uint256"
        },
        {
          "internalType": "uint256",
          "name": "_interestRate",
          "type": "uint256"
        },
        {
          "internalType": "uint256",
          "name": "_maturityDate",
          "type": "uint256"
        },
        {
          "internalType": "bool",
          "name": "_restricted",
          "type": "bool"
        },
        {
          "internalType": "uint256",
          "name": "_maxBondUnits",
          "type": "uint256"
        }
      ],
      "stateMutability": "nonpayable",
      "type": "constructor"
    },
    {
      "anonymous": false,
      "inputs": [],
      "name": "BondMatured",
      "type": "event"
    },
    {
      "anonymous": false,
      "inputs": [
        {
          "indexed": true,
          "internalType": "address",
          "name": "seller",
          "type": "address"
        },
        {
          "indexed": false,
          "internalType": "uint256",
          "name": "bondUnits",
          "type": "uint256"
        },
        {
          "indexed": false,
          "internalType": "uint256",
          "name": "price",
          "type": "uint256"
        }
      ],
      "name": "BondQuoteAdded",
      "type": "event"
    },
    {
      "anonymous": false,
      "inputs": [
        {
          "indexed": true,
          "internalType": "address",
          "name": "seller",
          "type": "address"
        }
      ],
      "name": "BondQuoteRemoved",
      "type": "event"
    },
    {
      "anonymous": false,
      "inputs": [
        {
          "indexed": true,
          "internalType": "address",
          "name": "seller",
          "type": "address"
        },
        {
          "indexed": false,
          "internalType": "uint256",
          "name": "bondUnits",
          "type": "uint256"
        },
        {
          "indexed": false,
          "internalType": "uint256",
          "name": "price",
          "type": "uint256"
        }
      ],
      "name": "BondTradeAdded",
      "type": "event"
    },
    {
      "anonymous": false,
      "inputs": [
        {
          "indexed": true,
          "internalType": "address",
          "name": "buyer",
          "type": "address"
        },
        {
          "indexed": true,
          "internalType": "address",
          "name": "seller",
          "type": "address"
        },
        {
          "indexed": false,
          "internalType": "uint256",
          "name": "bondUnits",
          "type": "uint256"
        },
        {
          "indexed": false,
          "internalType": "uint256",
          "name": "price",
          "type": "uint256"
        }
      ],
      "name": "BondTradeExecuted",
      "type": "event"
    },
    {
      "anonymous": false,
      "inputs": [
        {
          "indexed": false,
          "internalType": "address",
          "name": "sender",
          "type": "address"
        },
        {
          "indexed": false,
          "internalType": "address",
          "name": "recipient",
          "type": "address"
        }
      ],
      "name": "Destroyed",
      "type": "event"
    },
    {
      "anonymous": false,
      "inputs": [
        {
          "indexed": false,
          "internalType": "address",
          "name": "sender",
          "type": "address"
        },
        {
          "indexed": false,
          "internalType": "uint256",
          "name": "amount",
          "type": "uint256"
        }
      ],
      "name": "FallbackEvent",
      "type": "event"
    },
    {
      "anonymous": false,
      "inputs": [
        {
          "indexed": true,
          "internalType": "address",
          "name": "previousOwner",
          "type": "address"
        },
        {
          "indexed": true,
          "internalType": "address",
          "name": "newOwner",
          "type": "address"
        }
      ],
      "name": "OwnershipTransferred",
      "type": "event"
    },
    {
      "anonymous": false,
      "inputs": [
        {
          "indexed": false,
          "internalType": "address",
          "name": "sender",
          "type": "address"
        },
        {
          "indexed": false,
          "internalType": "uint256",
          "name": "amount",
          "type": "uint256"
        }
      ],
      "name": "ReceiveEvent",
      "type": "event"
    },
    {
      "anonymous": false,
      "inputs": [
        {
          "indexed": false,
          "internalType": "address",
          "name": "sender",
          "type": "address"
        },
        {
          "indexed": false,
          "internalType": "bytes",
          "name": "reason",
          "type": "bytes"
        }
      ],
      "name": "Started",
      "type": "event"
    },
    {
      "anonymous": false,
      "inputs": [
        {
          "indexed": false,
          "internalType": "address",
          "name": "sender",
          "type": "address"
        },
        {
          "indexed": false,
          "internalType": "bytes",
          "name": "reason",
          "type": "bytes"
        }
      ],
      "name": "Stopped",
      "type": "event"
    },
    {
      "anonymous": false,
      "inputs": [
        {
          "indexed": false,
          "internalType": "address",
          "name": "sender",
          "type": "address"
        },
        {
          "indexed": false,
          "internalType": "string",
          "name": "reason",
          "type": "string"
        }
      ],
      "name": "Termination",
      "type": "event"
    },
    {
      "anonymous": false,
      "inputs": [
        {
          "indexed": true,
          "internalType": "address",
          "name": "from",
          "type": "address"
        },
        {
          "indexed": true,
          "internalType": "address",
          "name": "to",
          "type": "address"
        },
        {
          "indexed": false,
          "internalType": "uint256",
          "name": "value",
          "type": "uint256"
        }
      ],
      "name": "Transfer",
      "type": "event"
    },
    {
      "stateMutability": "payable",
      "type": "fallback"
    },
    {
      "inputs": [],
      "name": "VERSION",
      "outputs": [
        {
          "internalType": "string",
          "name": "",
          "type": "string"
        }
      ],
      "stateMutability": "view",
      "type": "function"
    },
    {
      "inputs": [],
      "name": "WAIT",
      "outputs": [
        {
          "internalType": "uint256",
          "name": "",
          "type": "uint256"
        }
      ],
      "stateMutability": "view",
      "type": "function"
    },
    {
      "inputs": [],
      "name": "bondName",
      "outputs": [
        {
          "internalType": "string",
          "name": "",
          "type": "string"
        }
      ],
      "stateMutability": "view",
      "type": "function"
    },
    {
      "inputs": [
        {
          "internalType": "uint256",
          "name": "",
          "type": "uint256"
        }
      ],
      "name": "bondQuotes",
      "outputs": [
        {
          "internalType": "address",
          "name": "seller",
          "type": "address"
        },
        {
          "internalType": "uint256",
          "name": "bondUnits",
          "type": "uint256"
        },
        {
          "internalType": "uint256",
          "name": "price",
          "type": "uint256"
        },
        {
          "internalType": "bool",
          "name": "active",
          "type": "bool"
        }
      ],
      "stateMutability": "view",
      "type": "function"
    },
    {
      "inputs": [],
      "name": "catAddress",
      "outputs": [
        {
          "internalType": "contract IConsolidatedAuditTrail",
          "name": "",
          "type": "address"
        }
      ],
      "stateMutability": "view",
      "type": "function"
    },
    {
      "inputs": [],
      "name": "depositBalance",
      "outputs": [
        {
          "internalType": "uint256",
          "name": "",
          "type": "uint256"
        }
      ],
      "stateMutability": "view",
      "type": "function"
    },
    {
      "inputs": [],
      "name": "destroy",
      "outputs": [],
      "stateMutability": "nonpayable",
      "type": "function"
    },
    {
      "inputs": [
        {
          "internalType": "address",
          "name": "_recipient",
          "type": "address"
        }
      ],
      "name": "destroyAndSend",
      "outputs": [],
      "stateMutability": "nonpayable",
      "type": "function"
    },
    {
      "inputs": [],
      "name": "getOwner",
      "outputs": [
        {
          "internalType": "address",
          "name": "",
          "type": "address"
        }
      ],
      "stateMutability": "payable",
      "type": "function"
    },
    {
      "inputs": [],
      "name": "interestRate",
      "outputs": [
        {
          "internalType": "uint256",
          "name": "",
          "type": "uint256"
        }
      ],
      "stateMutability": "view",
      "type": "function"
    },
    {
      "inputs": [
        {
          "internalType": "address",
          "name": "",
          "type": "address"
        }
      ],
      "name": "investorQuotes",
      "outputs": [
        {
          "internalType": "uint256",
          "name": "",
          "type": "uint256"
        }
      ],
      "stateMutability": "view",
      "type": "function"
    },
    {
      "inputs": [
        {
          "internalType": "address",
          "name": "",
          "type": "address"
        }
      ],
      "name": "investors",
      "outputs": [
        {
          "internalType": "uint256",
          "name": "principal",
          "type": "uint256"
        },
        {
          "internalType": "uint256",
          "name": "interestEarned",
          "type": "uint256"
        },
        {
          "internalType": "bool",
          "name": "redeemed",
          "type": "bool"
        }
      ],
      "stateMutability": "view",
      "type": "function"
    },
    {
      "inputs": [],
      "name": "isMatured",
      "outputs": [
        {
          "internalType": "bool",
          "name": "",
          "type": "bool"
        }
      ],
      "stateMutability": "view",
      "type": "function"
    },
    {
      "inputs": [],
      "name": "issuer",
      "outputs": [
        {
          "internalType": "address",
          "name": "",
          "type": "address"
        }
      ],
      "stateMutability": "view",
      "type": "function"
    },
    {
      "inputs": [],
      "name": "issuerWallet",
      "outputs": [
        {
          "internalType": "address",
          "name": "",
          "type": "address"
        }
      ],
      "stateMutability": "view",
      "type": "function"
    },
    {
      "inputs": [],
      "name": "maturityDate",
      "outputs": [
        {
          "internalType": "uint256",
          "name": "",
          "type": "uint256"
        }
      ],
      "stateMutability": "view",
      "type": "function"
    },
    {
      "inputs": [],
      "name": "maxBondUnits",
      "outputs": [
        {
          "internalType": "uint256",
          "name": "",
          "type": "uint256"
        }
      ],
      "stateMutability": "view",
      "type": "function"
    },
    {
      "inputs": [],
      "name": "poolAddress",
      "outputs": [
        {
          "internalType": "contract IExemptLiquidityMarketExchange",
          "name": "",
          "type": "address"
        }
      ],
      "stateMutability": "view",
      "type": "function"
    },
    {
      "inputs": [],
      "name": "renounceOwnership",
      "outputs": [],
      "stateMutability": "payable",
      "type": "function"
    },
    {
      "inputs": [],
      "name": "restricted",
      "outputs": [
        {
          "internalType": "bool",
          "name": "",
          "type": "bool"
        }
      ],
      "stateMutability": "view",
      "type": "function"
    },
    {
      "inputs": [],
      "name": "totalPrincipal",
      "outputs": [
        {
          "internalType": "uint256",
          "name": "",
          "type": "uint256"
        }
      ],
      "stateMutability": "view",
      "type": "function"
    },
    {
      "inputs": [
        {
          "internalType": "address",
          "name": "newOwner",
          "type": "address"
        }
      ],
      "name": "transferOwnership",
      "outputs": [],
      "stateMutability": "payable",
      "type": "function"
    },
    {
      "stateMutability": "payable",
      "type": "receive"
    },
    {
      "inputs": [
        {
          "internalType": "address",
          "name": "_poolContract",
          "type": "address"
        }
      ],
      "name": "setOfferingPoolContract",
      "outputs": [],
      "stateMutability": "nonpayable",
      "type": "function"
    },
    {
      "inputs": [
        {
          "internalType": "address",
          "name": "_catContract",
          "type": "address"
        }
      ],
      "name": "setConsolidateAuditTrailContract",
      "outputs": [],
      "stateMutability": "nonpayable",
      "type": "function"
    },
    {
      "inputs": [],
      "name": "buy",
      "outputs": [],
      "stateMutability": "payable",
      "type": "function"
    },
    {
      "inputs": [
        {
          "internalType": "uint256",
          "name": "bondUnits",
          "type": "uint256"
        },
        {
          "internalType": "uint256",
          "name": "price",
          "type": "uint256"
        }
      ],
      "name": "addBondTrade",
      "outputs": [],
      "stateMutability": "nonpayable",
      "type": "function"
    },
    {
      "inputs": [],
      "name": "removeBondQuote",
      "outputs": [],
      "stateMutability": "nonpayable",
      "type": "function"
    },
    {
      "inputs": [],
      "name": "getTotalBondUnits",
      "outputs": [
        {
          "internalType": "uint256",
          "name": "",
          "type": "uint256"
        }
      ],
      "stateMutability": "view",
      "type": "function"
    },
    {
      "inputs": [
        {
          "internalType": "uint256",
          "name": "bondUnits",
          "type": "uint256"
        }
      ],
      "name": "quoteBondUnits",
      "outputs": [],
      "stateMutability": "nonpayable",
      "type": "function"
    },
    {
      "inputs": [
        {
          "internalType": "address",
          "name": "seller",
          "type": "address"
        }
      ],
      "name": "getBondQuote",
      "outputs": [
        {
          "internalType": "uint256",
          "name": "bondUnits",
          "type": "uint256"
        },
        {
          "internalType": "uint256",
          "name": "price",
          "type": "uint256"
        },
        {
          "internalType": "bool",
          "name": "active",
          "type": "bool"
        }
      ],
      "stateMutability": "view",
      "type": "function"
    }
  ],
  "bytecode": "0x608060405260006001556003805460ff191690553480156200002057600080fd5b5060405162001b2838038062001b2883398101604081905262000043916200015c565b60008054600160a060020a031916339081178255426001556040519091907f8be0079c531659141344cd1fd0a4f28419497f9722a3daafe3b4186f6b6457e0908290a3600462000094898262000338565b5060058054600160a060020a03988916600160a060020a0319918216179091556006805497909816961695909517909555600792909255600855600955600a805460ff199081169091556000600b55600c80549315159390911692909217909155600d55506200040a565b7f4e487b7100000000000000000000000000000000000000000000000000000000600052604160045260246000fd5b8051600160a060020a03811681146200014657600080fd5b919050565b805180151581146200014657600080fd5b600080600080600080600080610100898b0312156200017a57600080fd5b88516001604060020a03808211156200019257600080fd5b818b0191508b601f830112620001a757600080fd5b815181811115620001bc57620001bc620000ff565b604051601f8201601f19908116603f01168101908382118183101715620001e757620001e7620000ff565b81604052828152602093508e848487010111156200020457600080fd5b600091505b8282101562000228578482018401518183018501529083019062000209565b6000848483010152809c5050505062000243818c016200012e565b985050506200025560408a016200012e565b9550606089015194506080890151935060a089015192506200027a60c08a016200014b565b915060e089015190509295985092959890939650565b600281046001821680620002a557607f821691505b602082108103620002df577f4e487b7100000000000000000000000000000000000000000000000000000000600052602260045260246000fd5b50919050565b601f82111562000333576000818152602081206020601f860104810160208610156200030e5750805b6020601f860104820191505b818110156200032f578281556001016200031a565b5050505b505050565b81516001604060020a03811115620003545762000354620000ff565b6200036c8162000365845462000290565b84620002e5565b602080601f831160018114620003a857600084156200038b5750858301515b60028086026008870290910a60001904198216178655506200032f565b600085815260208120601f198616915b82811015620003d957888601518255948401946001909101908401620003b8565b5085821015620003fa57878501516008601f88160260020a60001904191681555b5050505050600202600101905550565b61170e806200041a6000396000f3fe6080604052600436106101645760e060020a600035046307e45ffe811461022b5780631755ff211461026b5780631a0559f2146102985780631d143848146102ba5780631da8ca22146102da57806333713e96146103265780633d5bc6401461033b578063492d50931461035b5780634b1533b21461039857806355dce5e9146103ae57806361bc1a49146103eb5780636f7bc9be146104015780637072c6b11461045d578063715018a6146104875780637c3a00fd1461048f5780637f2b6a0d146104a557806383197ef0146104bf578063887b6abc146104d4578063893d20e8146104f65780638d5c707d146104fe578063a223565e1461051e578063a6f2ae3a1461053e578063b8fb3a5114610546578063c0cf0c631461055b578063cc7c19ce14610570578063cca16a9f14610590578063d59624b4146105a6578063f2fde38b146105bc578063f5074f41146105cf578063ffa1ad74146105ef576101a4565b366101a4577fcc85d09d309785db93d6df19917f2e6cc07fe27cd01c08c8279145deb5cf4526333460405161019a92919061134a565b60405180910390a1005b3233146101fa5760405160e560020a62461bcd0281526020600482015260196024820152603860020a787068697368696e672061747461636b2064657465637465643f0260448201526064015b60405180910390fd5b7f26875833861a2b006512a11f1b86edf95df96131040f3caeed72989ee9858083333460405161019a92919061134a565b34801561023757600080fd5b50610258610246366004611363565b60106020526000908152604090205481565b6040519081526020015b60405180910390f35b34801561027757600080fd5b5060115461028b90600160a060020a031681565b6040516102629190611393565b3480156102a457600080fd5b506102b86102b33660046113a7565b610628565b005b3480156102c657600080fd5b5060055461028b90600160a060020a031681565b3480156102e657600080fd5b506102fa6102f53660046113c9565b610833565b60408051600160a060020a03909516855260208501939093529183015215156060820152608001610262565b34801561033257600080fd5b506102b861087a565b34801561034757600080fd5b5060125461028b90600160a060020a031681565b34801561036757600080fd5b506102b8610376366004611363565b60128054600160a060020a031916600160a060020a0392909216919091179055565b3480156103a457600080fd5b5061025860075481565b3480156103ba57600080fd5b506102b86103c9366004611363565b60118054600160a060020a031916600160a060020a0392909216919091179055565b3480156103f757600080fd5b50610258600b5481565b34801561040d57600080fd5b5061044061041c366004611363565b600f6020526000908152604090208054600182015460029092015490919060ff1683565b604080519384526020840192909252151590820152606001610262565b34801561046957600080fd5b50600c546104779060ff1681565b6040519015158152602001610262565b6102b86109b2565b34801561049b57600080fd5b5061025860085481565b3480156104b157600080fd5b50600a546104779060ff1681565b3480156104cb57600080fd5b506102b8610a17565b3480156104e057600080fd5b506104e9610a74565b60405161026291906113e2565b61028b610b02565b34801561050a57600080fd5b5060065461028b90600160a060020a031681565b34801561052a57600080fd5b506102b86105393660046113c9565b610b78565b6102b8610bf4565b34801561055257600080fd5b50610258601e81565b34801561056757600080fd5b50610258610d15565b34801561057c57600080fd5b5061044061058b366004611363565b610d9e565b34801561059c57600080fd5b50610258600d5481565b3480156105b257600080fd5b5061025860095481565b6102b86105ca366004611363565b610e92565b3480156105db57600080fd5b506102b86105ea366004611363565b610f73565b3480156105fb57600080fd5b506104e96040518060400160405280600a815260200160b060020a69312e362e342d626574610281525081565b600c5460ff1615806106505750600c5460ff1615156001148015610650575061065033610fca565b61066f5760405160e560020a62461bcd0281526004016101f190611430565b600a5460ff16156106955760405160e560020a62461bcd0281526004016101f19061147c565b600082116106b85760405160e560020a62461bcd0281526004016101f1906114b3565b600081116106fe5760405160e560020a62461bcd02815260206004820152600d6024820152609860020a6c496e76616c69642070726963650260448201526064016101f1565b60408051608081018252338082526020808301868152838501868152600160608601818152600e8054928301815560005295517fbb7b4a454dc3493923482f07822329ed19e8244eff582cc204f8554c3620c3fd60049092029182018054600160a060020a031916600160a060020a0390921691909117905591517fbb7b4a454dc3493923482f07822329ed19e8244eff582cc204f8554c3620c3fe830155517fbb7b4a454dc3493923482f07822329ed19e8244eff582cc204f8554c3620c3ff82015592517fbb7b4a454dc3493923482f07822329ed19e8244eff582cc204f8554c3620c400909301805460ff1916931515939093179092558251858152918201849052917f511ab2bd405b50b3ebc0f0f061159fd391c1aa6ab582ddb632f6ddeb94c53549910160405180910390a25050565b600e818154811061084357600080fd5b60009182526020909120600490910201805460018201546002830154600390930154600160a060020a039092169350919060ff1684565b600c5460ff1615806108a25750600c5460ff16151560011480156108a257506108a233610fca565b6108c15760405160e560020a62461bcd0281526004016101f190611430565b600a5460ff16156108e75760405160e560020a62461bcd0281526004016101f19061147c565b336000908152601060205260409020546109435760405160e560020a62461bcd0281526020600482015260176024820152604860020a764e6f20626f6e642071756f746520617661696c61626c650260448201526064016101f1565b3360008181526010602052604080822080549083905590519092917f015754ede06947eed80e5c3e7253a49d1c17ce35ad97fa6011c92148d7bf4ccc91a2604051339082156108fc029083906000818181858888f193505050501580156109ae573d6000803e3d6000fd5b5050565b600054600160a060020a031633146109df5760405160e560020a62461bcd0281526004016101f1906114e2565b60008054604051600160a060020a0390911690600080516020611699833981519152908390a360008054600160a060020a0319169055565b600054600160a060020a03163314610a445760405160e560020a62461bcd0281526004016101f190611516565b60008051602061167983398151915233610a5c610b02565b604051610a6a92919061154d565b60405180910390a1565b60048054610a8190611567565b80601f0160208091040260200160405190810160405280929190818152602001828054610aad90611567565b8015610afa5780601f10610acf57610100808354040283529160200191610afa565b820191906000526020600020905b815481529060010190602001808311610add57829003601f168201915b505050505081565b6000601e600154610b1391906115b9565b4211610b345760405160e560020a62461bcd0281526004016101f1906115cc565b601e600154610b4391906115b9565b4211610b645760405160e560020a62461bcd0281526004016101f1906115cc565b5042600155600054600160a060020a031690565b600c5460ff161580610ba05750600c5460ff1615156001148015610ba05750610ba033610fca565b610bbf5760405160e560020a62461bcd0281526004016101f190611430565b60008111610be25760405160e560020a62461bcd0281526004016101f1906114b3565b33600090815260106020526040902055565b600c5460ff161580610c1c5750600c5460ff1615156001148015610c1c5750610c1c33610fca565b610c3b5760405160e560020a62461bcd0281526004016101f190611430565b600a5460ff1615610c615760405160e560020a62461bcd0281526004016101f19061147c565b60003411610cb15760405160e560020a62461bcd0281526020600482015260176024820152604a60020a76125b9d985b1a59081c1d5c98da185cd948185b5bdd5b9d0260448201526064016101f1565b336000908152600f602052604081208054349290610cd09084906115b9565b909155505060405134815233906000906000805160206116b98339815191529060200160405180910390a3600d54610d06610d15565b10610d1357610d13611045565b565b600080805b600e54811015610d9857600e8181548110610d3757610d376115f9565b600091825260209091206003600490920201015460ff1615610d8657600e8181548110610d6657610d666115f9565b90600052602060002090600402016001015482610d8391906115b9565b91505b80610d9081611613565b915050610d1a565b50919050565b60008080805b600e54811015610e7e5784600160a060020a0316600e8281548110610dcb57610dcb6115f9565b6000918252602090912060049091020154600160a060020a031603610e6c57600e8181548110610dfd57610dfd6115f9565b906000526020600020906004020160010154600e8281548110610e2257610e226115f9565b906000526020600020906004020160020154600e8381548110610e4757610e476115f9565b6000918252602090912060036004909202010154919550935060ff169150610e8b9050565b80610e7681611613565b915050610da4565b5060008060009250925092505b9193909250565b600054600160a060020a03163314610ebf5760405160e560020a62461bcd0281526004016101f1906114e2565b600160a060020a038116610f2a5760405160e560020a62461bcd02815260206004820152602660248201527f4f776e61626c653a206e6577206f776e657220697320746865207a65726f2061604482015260d060020a656464726573730260648201526084016101f1565b60008054604051600160a060020a038085169392169160008051602061169983398151915291a360008054600160a060020a031916600160a060020a0392909216919091179055565b600054600160a060020a03163314610fa05760405160e560020a62461bcd0281526004016101f190611516565b6000805160206116798339815191523382604051610fbf92919061154d565b60405180910390a150565b60115460405160e060020a633af32abf028152600091600160a060020a031690633af32abf90610ffe908590600401611393565b602060405180830381865afa15801561101b573d6000803e3d6000fd5b505050506040513d601f19601f8201168201806040525081019061103f919061162c565b92915050565b60005b600e5481101561134757600d54600e8281548110611068576110686115f9565b90600052602060002090600402016001015411611335576000600e8281548110611094576110946115f9565b906000526020600020906004020160020154600e83815481106110b9576110b96115f9565b9060005260206000209060040201600101546110d5919061164e565b90506000600e83815481106110ec576110ec6115f9565b60009182526020822060049190910201600301805460ff191692151592909217909155600e805484908110611123576111236115f9565b9060005260206000209060040201600101819055506000600e838154811061114d5761114d6115f9565b906000526020600020906004020160020181905550600e8281548110611175576111756115f9565b60009182526020822060049091020154604051600160a060020a039091169183156108fc02918491818181858888f193505050501580156111ba573d6000803e3d6000fd5b50600e82815481106111ce576111ce6115f9565b6000918252602090912060049091020154600e8054600160a060020a039092169130916000805160206116b98339815191529186908110611211576112116115f9565b90600052602060002090600402016001015460405161123291815260200190565b60405180910390a3600e828154811061124d5761124d6115f9565b6000918252602090912060049091020154600e8054600160a060020a039092169133917f789f186cc0a1ce666d90fcfde7792038363d449592d55305c6d2cf30c94c574791869081106112a2576112a26115f9565b906000526020600020906004020160010154600e86815481106112c7576112c76115f9565b9060005260206000209060040201600201546040516112f0929190918252602082015260400190565b60405180910390a3600e828154811061130b5761130b6115f9565b906000526020600020906004020160010154600d600082825461132e9190611665565b9091555050505b8061133f81611613565b915050611048565b50565b600160a060020a03929092168252602082015260400190565b60006020828403121561137557600080fd5b8135600160a060020a038116811461138c57600080fd5b9392505050565b600160a060020a0391909116815260200190565b600080604083850312156113ba57600080fd5b50508035926020909101359150565b6000602082840312156113db57600080fd5b5035919050565b600060208083528351808285015260005b8181101561140f578581018301518582016040015282016113f3565b506000604082860101526040601f19601f8301168501019250505092915050565b60208082526029908201527f416363657373207265737472696374656420746f207265676973746572656420604082015260b860020a68696e766573746f727302606082015260800190565b6020808252601c908201527f54686520626f6e642068617320616c7265616479206d61747572656400000000604082015260600190565b6020808252601290820152607060020a71496e76616c696420626f6e6420756e69747302604082015260600190565b6020808252601790820152604960020a7630b1b1b2b9b9903232b734b2b2103337b91037bbb732b902604082015260600190565b6020808252601b908201527f756e617574686f72697a65642c206e6f7420746865206f776e65720000000000604082015260600190565b600160a060020a0392831681529116602082015260400190565b60028104600182168061157b57607f821691505b602082108103610d985760e060020a634e487b710260009081526022600452602490fd5b60e060020a634e487b710260009081526011600452602490fd5b8082018082111561103f5761103f61159f565b6020808252601090820152608160020a6f3930ba32903634b6b4ba1032b93937b902604082015260600190565b60e060020a634e487b710260009081526032600452602490fd5b6000600182016116255761162561159f565b5060010190565b60006020828403121561163e57600080fd5b8151801515811461138c57600080fd5b808202811582820484141761103f5761103f61159f565b8181038181111561103f5761103f61159f56fe91ca00fdf29069527d658f8dfc6d1c0bf9861780bb45ff36436f938d3595a8d68be0079c531659141344cd1fd0a4f28419497f9722a3daafe3b4186f6b6457e0ddf252ad1be2c89b69c2b068fc378daa952ba7f163c4a11628f55a4df523b3efa26469706673582212203d0c78e4f44b2e1e22bebe02666e17590f70af9b8973d36c2348f9792e3fa7c964736f6c63430008120033",
  "immutableReferences": {},
  "source": "// SPDX-License-Identifier: CC-BY-4.0\npragma solidity >=0.4.22 <0.9.0;\n\nimport \"../../common/Version.sol\";\nimport \"../../common/Frozen.sol\";\nimport \"../../interfaces/IExemptLiquidityMarketExchange.sol\";\n\ncontract MunicipalBond is Version, Frozen {\n    struct Investor {\n        uint256 principal;\n        uint256 interestEarned;\n        bool redeemed;\n    }\n\n    struct BondTrade {\n        address seller;\n        uint256 bondUnits;\n        uint256 price;\n    }\n\n    struct BondQuote {\n        address seller;\n        uint256 bondUnits;\n        uint256 price;\n        bool active;\n    }\n\n    string public bondName;\n    address public issuer;\n    address public issuerWallet;\n    uint256 public totalPrincipal;\n    uint256 public interestRate;\n    uint256 public maturityDate;\n    bool public isMatured;\n    uint256 public depositBalance;\n    bool public restricted;\n    uint256 public maxBondUnits;\n    BondQuote[] public bondQuotes;\n\n    mapping(address => Investor) public investors;\n    mapping(address => uint256) public investorQuotes;\n\n    IExemptLiquidityMarketExchange public poolAddress;\n    IConsolidatedAuditTrail public catAddress;\n\n    event Transfer(address indexed from, address indexed to, uint256 value);\n    event BondMatured();\n    event BondTradeAdded(address indexed seller, uint256 bondUnits, uint256 price);\n    event BondTradeExecuted(address indexed buyer, address indexed seller, uint256 bondUnits, uint256 price);\n    event BondQuoteAdded(address indexed seller, uint256 bondUnits, uint256 price);\n    event BondQuoteRemoved(address indexed seller);\n\n    modifier onlyIssuer() {\n        require(msg.sender == issuer, \"Only the issuer can perform this action\");\n        _;\n    }\n\n    modifier notMatured() {\n        require(!isMatured, \"The bond has already matured\");\n        _;\n    }\n\n    /**\n     * This modifier restricts access to the buy function to accredited investors and broker dealers \n     * when the restricted flag is set to true.\n     */ \n    modifier onlyAccreditedAndBrokerDealers() {\n        require(\n            restricted == true &&\n            (isAccreditedInvestor(msg.sender) || isBrokerDealer(msg.sender)),\n            \"Access restricted to accredited investors and broker dealers\"\n        );\n        _;\n    }\n    /**\n     *  This modifier restricts access to the buy function to registered investors when the restricted flag is set \n     *  to false, or when the flag is set to true and the investor is also a registered investor.\n     */\n    modifier onlyRegisteredInvestors() {\n        require(\n            restricted == false || \n            (restricted == true && isRegisteredInvestor(msg.sender)),\n            \"Access restricted to registered investors\"\n        );\n        _;\n    }\n\n    constructor(\n        string memory _bondName,\n        address _issuer,\n        address _issuerWallet,\n        uint256 _totalPrincipal,\n        uint256 _interestRate,\n        uint256 _maturityDate,\n        bool _restricted,\n        uint256 _maxBondUnits\n    ) {\n        bondName = _bondName;\n        issuer = _issuer;\n        issuerWallet = _issuerWallet;\n        totalPrincipal = _totalPrincipal;\n        interestRate = _interestRate;\n        maturityDate = _maturityDate;\n        isMatured = false;\n        depositBalance = 0;\n        restricted = _restricted;\n        maxBondUnits = _maxBondUnits;\n    }\n\n    function setOfferingPoolContract(address _poolContract) external {\n        poolAddress = IExemptLiquidityMarketExchange(_poolContract);\n    }\n\n    function setConsolidateAuditTrailContract(address _catContract) external {\n        catAddress = IConsolidatedAuditTrail(_catContract);\n    }\n\n    function isAccreditedInvestor(address investor) internal view returns (bool) {\n        // Implement your own logic to determine if the investor is accredited\n        // This could involve checking their income, net worth, or other requirements\n        // Return true if the investor is accredited, otherwise return false\n        return poolAddress.isAccredited(investor);\n    }\n\n    function isBrokerDealer(address investor) internal view returns (bool) {\n        // Implement your own logic to determine if the investor is a broker dealer\n        // Return true if the investor is a broker dealer, otherwise return false\n        return poolAddress.isBrokerDealer(investor);\n    }\n\n    function isRegisteredInvestor(address investor) internal view returns (bool) {\n        // Implement your own logic to determine if the investor is a registered investor\n        // This could involve checking a registration status or qualification requirements\n        // Return true if the investor is a registered investor, otherwise return false\n        return poolAddress.isWhitelisted(investor);\n    }\n\n    function buy() external payable onlyRegisteredInvestors notMatured {\n        require(msg.value > 0, \"Invalid purchase amount\");\n\n        investors[msg.sender].principal += msg.value;\n\n        emit Transfer(address(0), msg.sender, msg.value);\n\n        // Check if the bond is fully funded\n        if (getTotalBondUnits() >= maxBondUnits) {\n            executeBondTrades();\n        }\n    }\n\n    function executeBondTrades() internal {\n        for (uint256 i = 0; i < bondQuotes.length; i++) {\n            if (bondQuotes[i].bondUnits <= maxBondUnits) {\n                uint256 totalAmount = bondQuotes[i].bondUnits * bondQuotes[i].price;\n                bondQuotes[i].active = false;\n                bondQuotes[i].bondUnits = 0;\n                bondQuotes[i].price = 0;\n                payable(bondQuotes[i].seller).transfer(totalAmount);\n\n                emit Transfer(address(this), bondQuotes[i].seller, bondQuotes[i].bondUnits);\n                emit BondTradeExecuted(msg.sender, bondQuotes[i].seller, bondQuotes[i].bondUnits, bondQuotes[i].price);\n\n                maxBondUnits -= bondQuotes[i].bondUnits;\n            }\n        }\n    }\n\n    function addBondTrade(uint256 bondUnits, uint256 price) external onlyRegisteredInvestors notMatured {\n        require(bondUnits > 0, \"Invalid bond units\");\n        require(price > 0, \"Invalid price\");\n\n        bondQuotes.push(BondQuote(msg.sender, bondUnits, price, true));\n\n        emit BondQuoteAdded(msg.sender, bondUnits, price);\n    }\n\n    function removeBondQuote() external onlyRegisteredInvestors notMatured {\n        require(investorQuotes[msg.sender] > 0, \"No bond quote available\");\n\n        uint256 bondUnits = investorQuotes[msg.sender];\n        investorQuotes[msg.sender] = 0;\n\n        emit BondQuoteRemoved(msg.sender);\n\n        // Refund the bond units to the investor\n        payable(msg.sender).transfer(bondUnits);\n    }\n\n    // Rest of the contract functions...\n\n    function getTotalBondUnits() public view returns (uint256) {\n        uint256 totalUnits = 0;\n        for (uint256 i = 0; i < bondQuotes.length; i++) {\n            if (bondQuotes[i].active) {\n                totalUnits += bondQuotes[i].bondUnits;\n            }\n        }\n        return totalUnits;\n    }\n\n    function quoteBondUnits(uint256 bondUnits) external onlyRegisteredInvestors {\n        require(bondUnits > 0, \"Invalid bond units\");\n\n        investorQuotes[msg.sender] = bondUnits;\n    }\n\n    function getBondQuote(address seller) public view returns (uint256 bondUnits, uint256 price, bool active) {\n        for (uint256 i = 0; i < bondQuotes.length; i++) {\n            if (bondQuotes[i].seller == seller) {\n                return (\n                    bondQuotes[i].bondUnits,\n                    bondQuotes[i].price,\n                    bondQuotes[i].active\n                );\n            }\n        }\n        return (0, 0, false);\n    }\n}\n",
  "sourcePath": "/Volumes/My Book/projects/pingleware-contracts/contracts/government/municipal/MunicipalBond.sol",
  "compiler": {
    "name": "solc",
    "version": "0.8.18+commit.87f61d96.Emscripten.clang"
  },
  "schemaVersion": "3.4.12",
  "updatedAt": "2023-10-22T14:23:01.150Z",
  "devdoc": {
    "kind": "dev",
    "methods": {
      "renounceOwnership()": {
        "details": "Leaves the contract without owner. It will not be possible to call `onlyOwner` functions anymore. Can only be called by the current owner. NOTE: Renouncing ownership will leave the contract without an owner, thereby removing any functionality that is only available to the owner."
      },
      "transferOwnership(address)": {
        "details": "Transfers ownership of the contract to a new account (`newOwner`). Can only be called by the current owner."
      }
    },
    "version": 1
  },
  "userdoc": {
    "kind": "user",
    "methods": {},
    "version": 1
  }
}