{
  "contractName": "MunicipalBond",
  "abi": [
    {
      "inputs": [
        {
          "internalType": "string",
          "name": "_bondName",
          "type": "string"
        },
        {
          "internalType": "address",
          "name": "_issuer",
          "type": "address"
        },
        {
          "internalType": "uint256",
          "name": "_totalPrincipal",
          "type": "uint256"
        },
        {
          "internalType": "uint256",
          "name": "_interestRate",
          "type": "uint256"
        },
        {
          "internalType": "uint256",
          "name": "_maturityDate",
          "type": "uint256"
        },
        {
          "internalType": "bool",
          "name": "_restricted",
          "type": "bool"
        },
        {
          "internalType": "uint256",
          "name": "_maxBondUnits",
          "type": "uint256"
        },
        {
          "internalType": "address",
          "name": "exchangeAddress",
          "type": "address"
        },
        {
          "internalType": "address",
          "name": "catAddress",
          "type": "address"
        }
      ],
      "stateMutability": "nonpayable",
      "type": "constructor"
    },
    {
      "anonymous": false,
      "inputs": [],
      "name": "BondMatured",
      "type": "event"
    },
    {
      "anonymous": false,
      "inputs": [
        {
          "indexed": true,
          "internalType": "address",
          "name": "seller",
          "type": "address"
        },
        {
          "indexed": false,
          "internalType": "uint256",
          "name": "bondUnits",
          "type": "uint256"
        },
        {
          "indexed": false,
          "internalType": "uint256",
          "name": "price",
          "type": "uint256"
        }
      ],
      "name": "BondQuoteAdded",
      "type": "event"
    },
    {
      "anonymous": false,
      "inputs": [
        {
          "indexed": true,
          "internalType": "address",
          "name": "seller",
          "type": "address"
        }
      ],
      "name": "BondQuoteRemoved",
      "type": "event"
    },
    {
      "anonymous": false,
      "inputs": [
        {
          "indexed": true,
          "internalType": "address",
          "name": "seller",
          "type": "address"
        },
        {
          "indexed": false,
          "internalType": "uint256",
          "name": "bondUnits",
          "type": "uint256"
        },
        {
          "indexed": false,
          "internalType": "uint256",
          "name": "price",
          "type": "uint256"
        }
      ],
      "name": "BondTradeAdded",
      "type": "event"
    },
    {
      "anonymous": false,
      "inputs": [
        {
          "indexed": true,
          "internalType": "address",
          "name": "buyer",
          "type": "address"
        },
        {
          "indexed": true,
          "internalType": "address",
          "name": "seller",
          "type": "address"
        },
        {
          "indexed": false,
          "internalType": "uint256",
          "name": "bondUnits",
          "type": "uint256"
        },
        {
          "indexed": false,
          "internalType": "uint256",
          "name": "price",
          "type": "uint256"
        }
      ],
      "name": "BondTradeExecuted",
      "type": "event"
    },
    {
      "anonymous": false,
      "inputs": [
        {
          "indexed": false,
          "internalType": "address",
          "name": "sender",
          "type": "address"
        },
        {
          "indexed": false,
          "internalType": "address",
          "name": "recipient",
          "type": "address"
        }
      ],
      "name": "Destroyed",
      "type": "event"
    },
    {
      "anonymous": false,
      "inputs": [
        {
          "indexed": false,
          "internalType": "address",
          "name": "sender",
          "type": "address"
        },
        {
          "indexed": false,
          "internalType": "uint256",
          "name": "amount",
          "type": "uint256"
        }
      ],
      "name": "FallbackEvent",
      "type": "event"
    },
    {
      "anonymous": false,
      "inputs": [
        {
          "indexed": false,
          "internalType": "uint256",
          "name": "newPercentage",
          "type": "uint256"
        }
      ],
      "name": "FeePercentageUpdated",
      "type": "event"
    },
    {
      "anonymous": false,
      "inputs": [
        {
          "indexed": true,
          "internalType": "address",
          "name": "newRecipient",
          "type": "address"
        }
      ],
      "name": "FeeRecipientUpdated",
      "type": "event"
    },
    {
      "anonymous": false,
      "inputs": [
        {
          "indexed": true,
          "internalType": "address",
          "name": "previousOwner",
          "type": "address"
        },
        {
          "indexed": true,
          "internalType": "address",
          "name": "newOwner",
          "type": "address"
        }
      ],
      "name": "OwnershipTransferred",
      "type": "event"
    },
    {
      "anonymous": false,
      "inputs": [
        {
          "indexed": false,
          "internalType": "address",
          "name": "sender",
          "type": "address"
        },
        {
          "indexed": false,
          "internalType": "uint256",
          "name": "amount",
          "type": "uint256"
        }
      ],
      "name": "ReceiveEvent",
      "type": "event"
    },
    {
      "anonymous": false,
      "inputs": [
        {
          "indexed": false,
          "internalType": "address",
          "name": "sender",
          "type": "address"
        },
        {
          "indexed": false,
          "internalType": "bytes",
          "name": "reason",
          "type": "bytes"
        }
      ],
      "name": "Started",
      "type": "event"
    },
    {
      "anonymous": false,
      "inputs": [
        {
          "indexed": false,
          "internalType": "address",
          "name": "sender",
          "type": "address"
        },
        {
          "indexed": false,
          "internalType": "bytes",
          "name": "reason",
          "type": "bytes"
        }
      ],
      "name": "Stopped",
      "type": "event"
    },
    {
      "anonymous": false,
      "inputs": [
        {
          "indexed": false,
          "internalType": "address",
          "name": "sender",
          "type": "address"
        },
        {
          "indexed": false,
          "internalType": "string",
          "name": "reason",
          "type": "string"
        }
      ],
      "name": "Termination",
      "type": "event"
    },
    {
      "anonymous": false,
      "inputs": [
        {
          "indexed": true,
          "internalType": "address",
          "name": "from",
          "type": "address"
        },
        {
          "indexed": true,
          "internalType": "address",
          "name": "to",
          "type": "address"
        },
        {
          "indexed": false,
          "internalType": "uint256",
          "name": "value",
          "type": "uint256"
        }
      ],
      "name": "Transfer",
      "type": "event"
    },
    {
      "stateMutability": "payable",
      "type": "fallback"
    },
    {
      "inputs": [],
      "name": "FeePercentage",
      "outputs": [
        {
          "internalType": "uint256",
          "name": "",
          "type": "uint256"
        }
      ],
      "stateMutability": "view",
      "type": "function"
    },
    {
      "inputs": [],
      "name": "VERSION",
      "outputs": [
        {
          "internalType": "string",
          "name": "",
          "type": "string"
        }
      ],
      "stateMutability": "view",
      "type": "function"
    },
    {
      "inputs": [],
      "name": "WAIT",
      "outputs": [
        {
          "internalType": "uint256",
          "name": "",
          "type": "uint256"
        }
      ],
      "stateMutability": "view",
      "type": "function"
    },
    {
      "inputs": [],
      "name": "bondName",
      "outputs": [
        {
          "internalType": "string",
          "name": "",
          "type": "string"
        }
      ],
      "stateMutability": "view",
      "type": "function"
    },
    {
      "inputs": [
        {
          "internalType": "uint256",
          "name": "",
          "type": "uint256"
        }
      ],
      "name": "bondQuotes",
      "outputs": [
        {
          "internalType": "address",
          "name": "seller",
          "type": "address"
        },
        {
          "internalType": "uint256",
          "name": "bondUnits",
          "type": "uint256"
        },
        {
          "internalType": "uint256",
          "name": "price",
          "type": "uint256"
        },
        {
          "internalType": "bool",
          "name": "active",
          "type": "bool"
        }
      ],
      "stateMutability": "view",
      "type": "function"
    },
    {
      "inputs": [],
      "name": "catContract",
      "outputs": [
        {
          "internalType": "contract IConsolidatedAuditTrail",
          "name": "",
          "type": "address"
        }
      ],
      "stateMutability": "view",
      "type": "function"
    },
    {
      "inputs": [],
      "name": "depositBalance",
      "outputs": [
        {
          "internalType": "uint256",
          "name": "",
          "type": "uint256"
        }
      ],
      "stateMutability": "view",
      "type": "function"
    },
    {
      "inputs": [],
      "name": "destroy",
      "outputs": [],
      "stateMutability": "nonpayable",
      "type": "function"
    },
    {
      "inputs": [
        {
          "internalType": "address",
          "name": "_recipient",
          "type": "address"
        }
      ],
      "name": "destroyAndSend",
      "outputs": [],
      "stateMutability": "nonpayable",
      "type": "function"
    },
    {
      "inputs": [],
      "name": "exchangeContract",
      "outputs": [
        {
          "internalType": "contract IExchange",
          "name": "",
          "type": "address"
        }
      ],
      "stateMutability": "view",
      "type": "function"
    },
    {
      "inputs": [],
      "name": "feeRecipient",
      "outputs": [
        {
          "internalType": "address",
          "name": "",
          "type": "address"
        }
      ],
      "stateMutability": "view",
      "type": "function"
    },
    {
      "inputs": [],
      "name": "getOwner",
      "outputs": [
        {
          "internalType": "address",
          "name": "",
          "type": "address"
        }
      ],
      "stateMutability": "payable",
      "type": "function"
    },
    {
      "inputs": [],
      "name": "interestRate",
      "outputs": [
        {
          "internalType": "uint256",
          "name": "",
          "type": "uint256"
        }
      ],
      "stateMutability": "view",
      "type": "function"
    },
    {
      "inputs": [
        {
          "internalType": "address",
          "name": "",
          "type": "address"
        }
      ],
      "name": "investorQuotes",
      "outputs": [
        {
          "internalType": "uint256",
          "name": "",
          "type": "uint256"
        }
      ],
      "stateMutability": "view",
      "type": "function"
    },
    {
      "inputs": [
        {
          "internalType": "address",
          "name": "",
          "type": "address"
        }
      ],
      "name": "investors",
      "outputs": [
        {
          "internalType": "uint256",
          "name": "principal",
          "type": "uint256"
        },
        {
          "internalType": "uint256",
          "name": "interestEarned",
          "type": "uint256"
        },
        {
          "internalType": "bool",
          "name": "redeemed",
          "type": "bool"
        }
      ],
      "stateMutability": "view",
      "type": "function"
    },
    {
      "inputs": [],
      "name": "isMatured",
      "outputs": [
        {
          "internalType": "bool",
          "name": "",
          "type": "bool"
        }
      ],
      "stateMutability": "view",
      "type": "function"
    },
    {
      "inputs": [],
      "name": "issuer",
      "outputs": [
        {
          "internalType": "address",
          "name": "",
          "type": "address"
        }
      ],
      "stateMutability": "view",
      "type": "function"
    },
    {
      "inputs": [],
      "name": "maturityDate",
      "outputs": [
        {
          "internalType": "uint256",
          "name": "",
          "type": "uint256"
        }
      ],
      "stateMutability": "view",
      "type": "function"
    },
    {
      "inputs": [],
      "name": "maxBondUnits",
      "outputs": [
        {
          "internalType": "uint256",
          "name": "",
          "type": "uint256"
        }
      ],
      "stateMutability": "view",
      "type": "function"
    },
    {
      "inputs": [],
      "name": "owner",
      "outputs": [
        {
          "internalType": "address",
          "name": "",
          "type": "address"
        }
      ],
      "stateMutability": "view",
      "type": "function"
    },
    {
      "inputs": [],
      "name": "renounceOwnership",
      "outputs": [],
      "stateMutability": "payable",
      "type": "function"
    },
    {
      "inputs": [],
      "name": "restricted",
      "outputs": [
        {
          "internalType": "bool",
          "name": "",
          "type": "bool"
        }
      ],
      "stateMutability": "view",
      "type": "function"
    },
    {
      "inputs": [],
      "name": "totalPrincipal",
      "outputs": [
        {
          "internalType": "uint256",
          "name": "",
          "type": "uint256"
        }
      ],
      "stateMutability": "view",
      "type": "function"
    },
    {
      "inputs": [
        {
          "internalType": "address",
          "name": "newOwner",
          "type": "address"
        }
      ],
      "name": "transferOwnership",
      "outputs": [],
      "stateMutability": "payable",
      "type": "function"
    },
    {
      "stateMutability": "payable",
      "type": "receive"
    },
    {
      "inputs": [
        {
          "internalType": "address",
          "name": "wallet",
          "type": "address"
        }
      ],
      "name": "setFeeRecipient",
      "outputs": [],
      "stateMutability": "nonpayable",
      "type": "function"
    },
    {
      "inputs": [
        {
          "internalType": "uint256",
          "name": "fee",
          "type": "uint256"
        }
      ],
      "name": "setFee",
      "outputs": [],
      "stateMutability": "nonpayable",
      "type": "function"
    },
    {
      "inputs": [
        {
          "internalType": "address",
          "name": "exchangeAddress",
          "type": "address"
        }
      ],
      "name": "setOfferingPoolContract",
      "outputs": [],
      "stateMutability": "nonpayable",
      "type": "function"
    },
    {
      "inputs": [
        {
          "internalType": "address",
          "name": "catAddress",
          "type": "address"
        }
      ],
      "name": "setConsolidateAuditTrailContract",
      "outputs": [],
      "stateMutability": "nonpayable",
      "type": "function"
    },
    {
      "inputs": [],
      "name": "buy",
      "outputs": [],
      "stateMutability": "payable",
      "type": "function"
    },
    {
      "inputs": [
        {
          "internalType": "uint256",
          "name": "bondUnits",
          "type": "uint256"
        },
        {
          "internalType": "uint256",
          "name": "price",
          "type": "uint256"
        }
      ],
      "name": "addBondTrade",
      "outputs": [],
      "stateMutability": "nonpayable",
      "type": "function"
    },
    {
      "inputs": [],
      "name": "removeBondQuote",
      "outputs": [],
      "stateMutability": "nonpayable",
      "type": "function"
    },
    {
      "inputs": [],
      "name": "getTotalBondUnits",
      "outputs": [
        {
          "internalType": "uint256",
          "name": "",
          "type": "uint256"
        }
      ],
      "stateMutability": "view",
      "type": "function"
    },
    {
      "inputs": [
        {
          "internalType": "uint256",
          "name": "bondUnits",
          "type": "uint256"
        }
      ],
      "name": "quoteBondUnits",
      "outputs": [],
      "stateMutability": "nonpayable",
      "type": "function"
    },
    {
      "inputs": [
        {
          "internalType": "address",
          "name": "seller",
          "type": "address"
        }
      ],
      "name": "getBondQuote",
      "outputs": [
        {
          "internalType": "uint256",
          "name": "bondUnits",
          "type": "uint256"
        },
        {
          "internalType": "uint256",
          "name": "price",
          "type": "uint256"
        },
        {
          "internalType": "bool",
          "name": "active",
          "type": "bool"
        }
      ],
      "stateMutability": "view",
      "type": "function"
    }
  ],
  "bytecode": "0x6080604052346200033d57620019ed803803806200001d8162000357565b928339810190610120818303126200033d5780516001604060020a03908181116200033d57820191601f908482850112156200033d578351918383116200030e57602092601f1995620000768588858501160162000357565b978289528583830101116200033d57849060005b8381106200034257505060009188010152620000a88383016200037d565b92604083015195606084015191608085015160a0860151938415158095036200033d5760c087015195620000ee610100620000e660e08b016200037d565b99016200037d565b99600160a060020a03199c8d3390600054161760005560014281553360007f8be0079c531659141344cd1fd0a4f28419497f9722a3daafe3b4186f6b6457e08180a360ff199687600354166003558160135582519384116200030e57600494855483600282049116801562000303575b83821014620002d5578181116200028c575b50819981861160011462000210575050505060ff96829160009262000204575b5050816002029160080260020a6000190419161790555b600160a060020a03998a8099168c600554161760055560065560075560085580600954166009556000600a55600b5416911617600b55600c55168360105416176010551690601154161760115560405161165a9081620003938239f35b01519050388062000190565b859a92949193969798999a168760005284600020946000905b828210620002745750509185939160ff9b9a99989796600296941062000258575b5050505002019055620001a7565b0151908316600802840a6000190419169055388080806200024a565b80898698829497870151815501970194019062000229565b8660005282600020838381818a0104830193828a10620002cb575b0104019084905b828110620002be57505062000170565b60008155018490620002ae565b93508293620002a7565b6022877f4e487b71000000000000000000000000000000000000000000000000000000006000525260246000fd5b90607f16906200015e565b7f4e487b7100000000000000000000000000000000000000000000000000000000600052604160045260246000fd5b600080fd5b8181018301518a82018401528692016200008a565b6040519190601f01601f191682016001604060020a038111838210176200030e57604052565b5190600160a060020a03821682036200033d5756fe6080604090808252600490813610156100c8575b50361561009957333203610055577f26875833861a2b006512a11f1b86edf95df96131040f3caeed72989ee98580838251806100503433836112a6565b0390a1005b6020606492519160e560020a62461bcd02835282015260196024820152603860020a787068697368696e672061747461636b2064657465637465643f026044820152fd5b7fcc85d09d309785db93d6df19917f2e6cc07fe27cd01c08c8279145deb5cf45268251806100503433836112a6565b60009060e060020a823504906307e45ffe821461108c575080631a0559f214610ea55780631d14384814610e7c5780631d96498b14610e535780631da8ca2214610def57806333713e9614610cb85780633f0a079714610c8f5780634690484014610c66578063492d509314610c295780634b1533b214610c0a57806355dce5e914610bcd57806361bc1a4914610bae57806369fe0e2d14610af65780636f7bc9be14610aa55780637072c6b114610a81578063715018a614610a3c5780637c3a00fd14610a1d5780637f2b6a0d146109f957806383197ef0146109ab578063887b6abc146108c7578063893d20e81461089e5780638da5cb5b14610871578063a223565e14610802578063a6f2ae3a14610530578063b8fb3a5114610514578063c0cf0c63146104f0578063cc7c19ce146104ac578063cca16a9f1461048d578063d59624b41461046e578063e28797d21461044f578063e74b981b146103e1578063f2fde38b1461031f578063f5074f41146102be5763ffa1ad74036100135782346102ba57816003193601126102ba57805191828201906001604060020a038211848310176102a457506102a093508152600a825260b060020a69312e362e342d626574610260208301525191829182611153565b0390f35b60e060020a634e487b7102815260418552602490fd5b5080fd5b5091903461031b57602036600319011261031b57600160a060020a0390358181168103610317576000805160206115c58339815191529261030661031193865416331461119c565b5191829133836111eb565b0390a180f35b8380fd5b8280fd5b509190602036600319011261031b57600160a060020a038135818116939192908490036103dd578454928316916103578333146112c1565b841561038357505082906000805160206115e58339815191528580a3600160a060020a03191617815580f35b5160e560020a62461bcd028152602091810191909152602660248201527f4f776e61626c653a206e6577206f776e657220697320746865207a65726f2061604482015260d060020a65646472657373026064820152608490fd5b8480fd5b5090346102ba5760203660031901126102ba5735600160a060020a038181169182900361031b5761041690835416331461130d565b60128054600160a060020a031916821790557f7a7b5a0a132f9e0581eb8527f66eae9ee89c2a3e79d4ac7e41a1f1f4d48a7fc28280a280f35b5082346102ba57816003193601126102ba576020906013549051908152f35b5082346102ba57816003193601126102ba576020906008549051908152f35b5082346102ba57816003193601126102ba57602090600c549051908152f35b5091903461031b57602036600319011261031b573591600160a060020a03831683036104ed57506104df6102a092611547565b9093919251938493846110fd565b80fd5b5082346102ba57816003193601126102ba5760209061050d6114eb565b9051908152f35b5082346102ba57816003193601126102ba5760209051601e8152f35b50918260031936011261031b5760ff600b5416158015806107db575b506105569061135c565b600854421161058960ff199160ff836009541691168091176009556000805160206116058339815191528680a1156113c0565b3415610798573384526020600e81528285206105a6348254611205565b90558251903482527fddf252ad1be2c89b69c2b068fc378daa952ba7f163c4a11628f55a4df523b3ef918683833393a36105de6114eb565b92600c93845411156105ee578680f35b869495965b600d5481101561078657610606816110c4565b5060018091015486541015610625575b5061062090611495565b6105f3565b8061062f836110c4565b50015461063b836110c4565b50906002809201549081810291818304149015171561077057600361065f856110c4565b50018581541690558883610672866110c4565b5001558882610680866110c4565b50015588808080610690886110c4565b5054600160a060020a0395908616828215610767575bf11561075d57806106b6856110c4565b505416836106c3866110c4565b5001548b5190815288883092a36106d9846110c4565b50541690826106e7856110c4565b500154906106f4856110c4565b5001548a51918252868201527f789f186cc0a1ce666d90fcfde7792038363d449592d55305c6d2cf30c94c57478a3392a361072e826110c4565b5001548554908103908111610747578555610620610616565b60e060020a634e487b7102875260118952602487fd5b89513d8a823e3d90fd5b506108fc6106a6565b60e060020a634e487b7102895260118b52602489fd5b50505050509150503880808080808680f35b815160e560020a62461bcd02815260208185015260176024820152604a60020a76125b9d985b1a59081c1d5c98da185cd948185b5bdd5b9d026044820152606490fd5b6001915014806107ee575b61055661054c565b506105566107fb3361140f565b90506107e6565b5091903461031b57602036600319011261031b57359060ff600b54161580158061084a575b506108319061135c565b61083c8215156114a4565b338352600f60205282205580f35b60019150148061085d575b610831610827565b5061083161086a3361140f565b9050610855565b5082346102ba57816003193601126102ba576003549051610100909104600160a060020a03168152602090f35b5082816003193601126102ba576020906108b6611271565b9051600160a060020a039091168152f35b50913461031b578260031936011261031b578051918381549160028304916001918285169485156109a1575b602095868610811461098b57858952908115610968575060011461092d575b6102a08787610923828c0383611116565b5191829182611153565b9080949750528583205b82841061095557505050826102a09461092392820101943880610912565b8054868501880152928601928101610937565b60ff19168887015250505050151581028301019250610923826102a03880610912565b60e060020a634e487b7102845260228352602484fd5b93607f16936108f3565b5082346102ba57816003193601126102ba576103116000805160206115c5833981519152916109e5600160a060020a03855416331461119c565b6109ed611271565b905191829133836111eb565b5082346102ba57816003193601126102ba5760209060ff6009541690519015158152f35b5082346102ba57816003193601126102ba576020906007549051908152f35b50806003193601126104ed57805481600160a060020a038216610a603382146112c1565b6000805160206115e58339815191528280a3600160a060020a031916815580f35b5082346102ba57816003193601126102ba5760209060ff600b541690519015158152f35b5091903461031b57602036600319011261031b5735600160a060020a0381169081900361031b579181928152600e60205220906102a082549160ff60026001860154950154169051938493846110fd565b50913461031b57602036600319011261031b57813591610b21600160a060020a03855416331461130d565b60648311610b5b5750816020917f74516f05eb4bd2461d57aa1e935ee553f86a3e02bfed7759f2f772915de3d9be9360135551908152a180f35b6020608492519160e560020a62461bcd028352820152602260248201527f4665652070657263656e74616765206d75737420626520313030206f72206c65604482015260f060020a617373026064820152fd5b5082346102ba57816003193601126102ba57602090600a549051908152f35b5090346102ba5760203660031901126102ba5735600160a060020a038116908190036102ba5760108054600160a060020a03191691909117905580f35b5082346102ba57816003193601126102ba576020906006549051908152f35b5090346102ba5760203660031901126102ba5735600160a060020a038116908190036102ba5760118054600160a060020a03191691909117905580f35b5082346102ba57816003193601126102ba576012549051600160a060020a039091168152602090f35b5082346102ba57816003193601126102ba576010549051600160a060020a039091168152602090f35b5091903461031b578260031936011261031b5760ff600b541615801580610dc8575b50610ce49061135c565b610d14600854421160ff80196009541691168091176009556000805160206116058339815191528580a1156113c0565b338352600f6020528183205415610d865750338252600f602052818080808481208181549155337f015754ede06947eed80e5c3e7253a49d1c17ce35ad97fa6011c92148d7bf4ccc8380a2818115610d7d575b3390f115610d73575080f35b51903d90823e3d90fd5b506108fc610d67565b6020606492519160e560020a62461bcd02835282015260176024820152604860020a764e6f20626f6e642071756f746520617661696c61626c65026044820152fd5b600191501480610ddb575b610ce4610cda565b50610ce4610de83361140f565b9050610dd3565b5091903461031b57602036600319011261031b573591600d548310156104ed5750610e1b6080926110c4565b5090600160a060020a038254169160018101549160ff6003600284015493015416928151948552602085015283015215156060820152f35b5082346102ba57816003193601126102ba576011549051600160a060020a039091168152602090f35b5082346102ba57816003193601126102ba576005549051600160a060020a039091168152602090f35b5082346102ba57806003193601126102ba5782359060243560ff600b541615801580611065575b50610ed69061135c565b6008544211610f0960ff199160ff836009541691168091176009556000805160206116058339815191528780a1156113c0565b610f148415156114a4565b811561102c57825190608082016001604060020a038111838210176110165784523382526020820191858352848101848152606082019360018552600d54604060020a81101561100057806001610f6e9201600d556110c4565b939093610feb57518354600160a060020a031916600160a060020a039190911617835551600183015551600282015591516003909201805492151560ff16929091169190911790558151928352602083015291925033917f511ab2bd405b50b3ebc0f0f061159fd391c1aa6ab582ddb632f6ddeb94c5354991a280f35b60e060020a634e487b71028a52898b5260248afd5b60e060020a634e487b71028a5260418b5260248afd5b60e060020a634e487b7102875260418852602487fd5b825160e560020a62461bcd028152602081880152600d6024820152609860020a6c496e76616c6964207072696365026044820152606490fd5b600191501480611078575b610ed6610ecc565b50610ed66110853361140f565b9050611070565b90508383346103175760203660031901126103175735600160a060020a0381169081900361031757926020938152600f845220548152f35b600d548110156110e357600d6000526004602060002091020190600090565b60e060020a634e487b710260009081526032600452602490fd5b9081526020810191909152901515604082015260600190565b601f909101601f19168101906001604060020a0382119082101761113957604052565b60e060020a634e487b710260009081526041600452602490fd5b6020808252825181830181905290939260005b82811061118857505060409293506000838284010152601f8019910116010190565b818101860151848201604001528501611166565b156111a357565b60405160e560020a62461bcd02815260206004820152601b60248201527f756e617574686f72697a65642c206e6f7420746865206f776e657200000000006044820152606490fd5b600160a060020a0391821681529116602082015260400190565b9190820180921161121257565b60e060020a634e487b710260009081526011600452602490fd5b1561123357565b60405160e560020a62461bcd0281526020600482015260106024820152608160020a6f3930ba32903634b6b4ba1032b93937b9026044820152606490fd5b600154601e81018091116112125761129390421161128e8161122c565b61122c565b42600155600054600160a060020a031690565b600160a060020a039091168152602081019190915260400190565b156112c857565b60405160e560020a62461bcd0281526020600482015260176024820152604960020a7630b1b1b2b9b9903232b734b2b2103337b91037bbb732b9026044820152606490fd5b1561131457565b60405160e560020a62461bcd02815260206004820152601c60248201527f6f776e6572206163636573732064656e69656420666f722075736572000000006044820152606490fd5b1561136357565b60405160e560020a62461bcd02815260206004820152602960248201527f416363657373207265737472696374656420746f207265676973746572656420604482015260b860020a68696e766573746f7273026064820152608490fd5b156113c757565b60405160e560020a62461bcd02815260206004820152601c60248201527f54686520626f6e642068617320616c7265616479206d617475726564000000006044820152606490fd5b60105460405160e060020a633af32abf028152600160a060020a0392831660048201529160209183916024918391165afa90811561148957600091611452575090565b6020813d8211611481575b8161146a60209383611116565b810103126102ba57519081151582036104ed575090565b3d915061145d565b6040513d6000823e3d90fd5b60001981146112125760010190565b156114ab57565b60405160e560020a62461bcd0281526020600482015260126024820152607060020a71496e76616c696420626f6e6420756e697473026044820152606490fd5b600080600d54905b8181106114ff57505090565b60ff600361150c836110c4565b50015416611523575b61151e90611495565b6114f3565b9161153f61151e916001611536866110c4565b50015490611205565b929050611515565b600d54919060005b8381106115625750600092508291829150565b61156b816110c4565b5054600160a060020a0383811691161461158d5761158890611495565b61154f565b925050600161159b836110c4565b5001549060ff60036115ba60026115b1876110c4565b500154956110c4565b500154169192919056fe91ca00fdf29069527d658f8dfc6d1c0bf9861780bb45ff36436f938d3595a8d68be0079c531659141344cd1fd0a4f28419497f9722a3daafe3b4186f6b6457e03f8e46bc23c7815f0b03f7ec17eba7162ce102a7ff38c5c7a42eec74f4f9b94fa2646970667358221220835979a0bd1686891dcbe13ae85ed3be4fa8f12f59811ce8ee055a27e04a6cae64736f6c63430008120033",
  "immutableReferences": {},
  "source": "// SPDX-License-Identifier: CC-BY-4.0\npragma solidity >=0.4.22 <0.9.0;\n\nimport \"../../common/Version.sol\";\nimport \"../../common/Frozen.sol\";\nimport \"../../interfaces/IExchange.sol\";\nimport \"../../interfaces/IConsolidatedAuditTrail.sol\";\n\ncontract MunicipalBond is Version, Frozen {\n    struct Investor {\n        uint256 principal;\n        uint256 interestEarned;\n        bool redeemed;\n    }\n\n    struct BondTrade {\n        address seller;\n        uint256 bondUnits;\n        uint256 price;\n    }\n\n    struct BondQuote {\n        address seller;\n        uint256 bondUnits;\n        uint256 price;\n        bool active;\n    }\n\n    address public owner;\n\n    string public bondName;\n    address public issuer;\n    uint256 public totalPrincipal;\n    uint256 public interestRate;\n    uint256 public maturityDate;\n    bool public isMatured;\n    uint256 public depositBalance;\n    bool public restricted;\n    uint256 public maxBondUnits;\n    BondQuote[] public bondQuotes;\n\n    mapping(address => Investor) public investors;\n    mapping(address => uint256) public investorQuotes;\n\n    IExchange public exchangeContract;\n    IConsolidatedAuditTrail public catContract;\n\n    address public feeRecipient;\n    uint256 public FeePercentage = 1; // Fee percentage\n\n    event FeeRecipientUpdated(address indexed newRecipient);\n    event FeePercentageUpdated(uint256 newPercentage);\n    event Transfer(address indexed from, address indexed to, uint256 value);\n    event BondMatured();\n    event BondTradeAdded(address indexed seller, uint256 bondUnits, uint256 price);\n    event BondTradeExecuted(address indexed buyer, address indexed seller, uint256 bondUnits, uint256 price);\n    event BondQuoteAdded(address indexed seller, uint256 bondUnits, uint256 price);\n    event BondQuoteRemoved(address indexed seller);\n\n    modifier onlyIssuer() {\n        require(msg.sender == issuer, \"Only the issuer can perform this action\");\n        _;\n    }\n\n    modifier notMatured() {\n        isMatured = block.timestamp > maturityDate;\n        emit BondMatured();\n        require(!isMatured, \"The bond has already matured\");\n        _;\n    }\n\n    /**\n     * This modifier restricts access to the buy function to accredited investors and broker dealers \n     * when the restricted flag is set to true.\n     */ \n    modifier onlyAccreditedAndBrokerDealers() {\n        require(\n            restricted == true &&\n            (isAccreditedInvestor(msg.sender) || isBrokerDealer(msg.sender)),\n            \"Access restricted to accredited investors and broker dealers\"\n        );\n        _;\n    }\n    /**\n     *  This modifier restricts access to the buy function to registered investors when the restricted flag is set \n     *  to false, or when the flag is set to true and the investor is also a registered investor.\n     */\n    modifier onlyRegisteredInvestors() {\n        require(\n            restricted == false || \n            (restricted == true && isRegisteredInvestor(msg.sender)),\n            \"Access restricted to registered investors\"\n        );\n        _;\n    }\n\n    constructor(\n        string memory _bondName,\n        address _issuer,\n        uint256 _totalPrincipal,\n        uint256 _interestRate,\n        uint256 _maturityDate,\n        bool _restricted,\n        uint256 _maxBondUnits,\n        address exchangeAddress,\n        address catAddress\n    ) {\n        bondName = _bondName;\n        issuer = _issuer;\n        totalPrincipal = _totalPrincipal;\n        interestRate = _interestRate;\n        maturityDate = _maturityDate;\n        isMatured = false;\n        depositBalance = 0;\n        restricted = _restricted;\n        maxBondUnits = _maxBondUnits;\n\n        exchangeContract = IExchange(exchangeAddress);\n        catContract = IConsolidatedAuditTrail(catAddress);\n    }\n\n    function setFeeRecipient(address wallet) external isOwner(msg.sender) {\n        feeRecipient = address(wallet);\n        emit FeeRecipientUpdated(wallet);       \n    }\n\n    function setFee(uint256 fee) external isOwner(msg.sender) {\n        require(fee <= 100, \"Fee percentage must be 100 or less\");\n        FeePercentage = fee; // 1=1% deposit fee\n        emit FeePercentageUpdated(fee);\n    }\n\n    function setOfferingPoolContract(address exchangeAddress) external {\n        exchangeContract = IExchange(exchangeAddress);\n    }\n\n    function setConsolidateAuditTrailContract(address catAddress) external {\n        catContract = IConsolidatedAuditTrail(catAddress);\n    }\n\n    function isAccreditedInvestor(address investor) internal view returns (bool) {\n        // Implement your own logic to determine if the investor is accredited\n        // This could involve checking their income, net worth, or other requirements\n        // Return true if the investor is accredited, otherwise return false\n        return exchangeContract.isAccredited(investor);\n    }\n\n    function isBrokerDealer(address investor) internal view returns (bool) {\n        // Implement your own logic to determine if the investor is a broker dealer\n        // Return true if the investor is a broker dealer, otherwise return false\n        return exchangeContract.isBrokerDealer(investor);\n    }\n\n    function isRegisteredInvestor(address investor) internal view returns (bool) {\n        // Implement your own logic to determine if the investor is a registered investor\n        // This could involve checking a registration status or qualification requirements\n        // Return true if the investor is a registered investor, otherwise return false\n        return exchangeContract.isWhitelisted(investor);\n    }\n\n    function buy() external payable onlyRegisteredInvestors notMatured {\n        require(msg.value > 0, \"Invalid purchase amount\");\n\n        investors[msg.sender].principal += msg.value;\n\n        emit Transfer(address(0), msg.sender, msg.value);\n\n        // Check if the bond is fully funded\n        if (getTotalBondUnits() >= maxBondUnits) {\n            executeBondTrades();\n        }\n    }\n\n    function executeBondTrades() internal {\n        for (uint256 i = 0; i < bondQuotes.length; i++) {\n            if (bondQuotes[i].bondUnits <= maxBondUnits) {\n                uint256 totalAmount = bondQuotes[i].bondUnits * bondQuotes[i].price;\n                bondQuotes[i].active = false;\n                bondQuotes[i].bondUnits = 0;\n                bondQuotes[i].price = 0;\n                payable(bondQuotes[i].seller).transfer(totalAmount);\n\n                emit Transfer(address(this), bondQuotes[i].seller, bondQuotes[i].bondUnits);\n                emit BondTradeExecuted(msg.sender, bondQuotes[i].seller, bondQuotes[i].bondUnits, bondQuotes[i].price);\n\n                maxBondUnits -= bondQuotes[i].bondUnits;\n            }\n        }\n    }\n\n    function addBondTrade(uint256 bondUnits, uint256 price) external onlyRegisteredInvestors notMatured {\n        require(bondUnits > 0, \"Invalid bond units\");\n        require(price > 0, \"Invalid price\");\n\n        bondQuotes.push(BondQuote(msg.sender, bondUnits, price, true));\n\n        emit BondQuoteAdded(msg.sender, bondUnits, price);\n    }\n\n    function removeBondQuote() external onlyRegisteredInvestors notMatured {\n        require(investorQuotes[msg.sender] > 0, \"No bond quote available\");\n\n        uint256 bondUnits = investorQuotes[msg.sender];\n        investorQuotes[msg.sender] = 0;\n\n        emit BondQuoteRemoved(msg.sender);\n\n        // Refund the bond units to the investor\n        payable(msg.sender).transfer(bondUnits);\n    }\n\n    // Rest of the contract functions...\n\n    function getTotalBondUnits() public view returns (uint256) {\n        uint256 totalUnits = 0;\n        for (uint256 i = 0; i < bondQuotes.length; i++) {\n            if (bondQuotes[i].active) {\n                totalUnits += bondQuotes[i].bondUnits;\n            }\n        }\n        return totalUnits;\n    }\n\n    function quoteBondUnits(uint256 bondUnits) external onlyRegisteredInvestors {\n        require(bondUnits > 0, \"Invalid bond units\");\n\n        investorQuotes[msg.sender] = bondUnits;\n    }\n\n    function getBondQuote(address seller) public view returns (uint256 bondUnits, uint256 price, bool active) {\n        for (uint256 i = 0; i < bondQuotes.length; i++) {\n            if (bondQuotes[i].seller == seller) {\n                return (\n                    bondQuotes[i].bondUnits,\n                    bondQuotes[i].price,\n                    bondQuotes[i].active\n                );\n            }\n        }\n        return (0, 0, false);\n    }\n}\n",
  "sourcePath": "/Volumes/HOME/pingleware-contracts/contracts/government/municipal/MunicipalBond.sol",
  "compiler": {
    "name": "solc",
    "version": "0.8.18+commit.87f61d96.Emscripten.clang"
  },
  "schemaVersion": "3.4.12",
  "updatedAt": "2024-05-23T18:56:26.230Z",
  "devdoc": {
    "kind": "dev",
    "methods": {
      "renounceOwnership()": {
        "details": "Leaves the contract without owner. It will not be possible to call `onlyOwner` functions anymore. Can only be called by the current owner. NOTE: Renouncing ownership will leave the contract without an owner, thereby removing any functionality that is only available to the owner."
      },
      "transferOwnership(address)": {
        "details": "Transfers ownership of the contract to a new account (`newOwner`). Can only be called by the current owner."
      }
    },
    "version": 1
  },
  "userdoc": {
    "kind": "user",
    "methods": {},
    "version": 1
  }
}