{
  "contractName": "MunicipalBond",
  "abi": [
    {
      "inputs": [
        {
          "internalType": "string",
          "name": "_bondName",
          "type": "string"
        },
        {
          "internalType": "address",
          "name": "_issuer",
          "type": "address"
        },
        {
          "internalType": "uint256",
          "name": "_totalPrincipal",
          "type": "uint256"
        },
        {
          "internalType": "uint256",
          "name": "_interestRate",
          "type": "uint256"
        },
        {
          "internalType": "uint256",
          "name": "_maturityDate",
          "type": "uint256"
        },
        {
          "internalType": "bool",
          "name": "_restricted",
          "type": "bool"
        },
        {
          "internalType": "uint256",
          "name": "_maxBondUnits",
          "type": "uint256"
        },
        {
          "internalType": "address",
          "name": "exchangeAddress",
          "type": "address"
        },
        {
          "internalType": "address",
          "name": "catAddress",
          "type": "address"
        }
      ],
      "stateMutability": "nonpayable",
      "type": "constructor"
    },
    {
      "anonymous": false,
      "inputs": [],
      "name": "BondMatured",
      "type": "event"
    },
    {
      "anonymous": false,
      "inputs": [
        {
          "indexed": true,
          "internalType": "address",
          "name": "seller",
          "type": "address"
        },
        {
          "indexed": false,
          "internalType": "uint256",
          "name": "bondUnits",
          "type": "uint256"
        },
        {
          "indexed": false,
          "internalType": "uint256",
          "name": "price",
          "type": "uint256"
        }
      ],
      "name": "BondQuoteAdded",
      "type": "event"
    },
    {
      "anonymous": false,
      "inputs": [
        {
          "indexed": true,
          "internalType": "address",
          "name": "seller",
          "type": "address"
        }
      ],
      "name": "BondQuoteRemoved",
      "type": "event"
    },
    {
      "anonymous": false,
      "inputs": [
        {
          "indexed": true,
          "internalType": "address",
          "name": "seller",
          "type": "address"
        },
        {
          "indexed": false,
          "internalType": "uint256",
          "name": "bondUnits",
          "type": "uint256"
        },
        {
          "indexed": false,
          "internalType": "uint256",
          "name": "price",
          "type": "uint256"
        }
      ],
      "name": "BondTradeAdded",
      "type": "event"
    },
    {
      "anonymous": false,
      "inputs": [
        {
          "indexed": true,
          "internalType": "address",
          "name": "buyer",
          "type": "address"
        },
        {
          "indexed": true,
          "internalType": "address",
          "name": "seller",
          "type": "address"
        },
        {
          "indexed": false,
          "internalType": "uint256",
          "name": "bondUnits",
          "type": "uint256"
        },
        {
          "indexed": false,
          "internalType": "uint256",
          "name": "price",
          "type": "uint256"
        }
      ],
      "name": "BondTradeExecuted",
      "type": "event"
    },
    {
      "anonymous": false,
      "inputs": [
        {
          "indexed": false,
          "internalType": "address",
          "name": "sender",
          "type": "address"
        },
        {
          "indexed": false,
          "internalType": "address",
          "name": "recipient",
          "type": "address"
        }
      ],
      "name": "Destroyed",
      "type": "event"
    },
    {
      "anonymous": false,
      "inputs": [
        {
          "indexed": false,
          "internalType": "address",
          "name": "sender",
          "type": "address"
        },
        {
          "indexed": false,
          "internalType": "uint256",
          "name": "amount",
          "type": "uint256"
        }
      ],
      "name": "FallbackEvent",
      "type": "event"
    },
    {
      "anonymous": false,
      "inputs": [
        {
          "indexed": false,
          "internalType": "uint256",
          "name": "newPercentage",
          "type": "uint256"
        }
      ],
      "name": "FeePercentageUpdated",
      "type": "event"
    },
    {
      "anonymous": false,
      "inputs": [
        {
          "indexed": true,
          "internalType": "address",
          "name": "newRecipient",
          "type": "address"
        }
      ],
      "name": "FeeRecipientUpdated",
      "type": "event"
    },
    {
      "anonymous": false,
      "inputs": [
        {
          "indexed": true,
          "internalType": "address",
          "name": "previousOwner",
          "type": "address"
        },
        {
          "indexed": true,
          "internalType": "address",
          "name": "newOwner",
          "type": "address"
        }
      ],
      "name": "OwnershipTransferred",
      "type": "event"
    },
    {
      "anonymous": false,
      "inputs": [
        {
          "indexed": false,
          "internalType": "address",
          "name": "sender",
          "type": "address"
        },
        {
          "indexed": false,
          "internalType": "uint256",
          "name": "amount",
          "type": "uint256"
        }
      ],
      "name": "ReceiveEvent",
      "type": "event"
    },
    {
      "anonymous": false,
      "inputs": [
        {
          "indexed": false,
          "internalType": "address",
          "name": "sender",
          "type": "address"
        },
        {
          "indexed": false,
          "internalType": "bytes",
          "name": "reason",
          "type": "bytes"
        }
      ],
      "name": "Started",
      "type": "event"
    },
    {
      "anonymous": false,
      "inputs": [
        {
          "indexed": false,
          "internalType": "address",
          "name": "sender",
          "type": "address"
        },
        {
          "indexed": false,
          "internalType": "bytes",
          "name": "reason",
          "type": "bytes"
        }
      ],
      "name": "Stopped",
      "type": "event"
    },
    {
      "anonymous": false,
      "inputs": [
        {
          "indexed": false,
          "internalType": "address",
          "name": "sender",
          "type": "address"
        },
        {
          "indexed": false,
          "internalType": "string",
          "name": "reason",
          "type": "string"
        }
      ],
      "name": "Termination",
      "type": "event"
    },
    {
      "anonymous": false,
      "inputs": [
        {
          "indexed": true,
          "internalType": "address",
          "name": "from",
          "type": "address"
        },
        {
          "indexed": true,
          "internalType": "address",
          "name": "to",
          "type": "address"
        },
        {
          "indexed": false,
          "internalType": "uint256",
          "name": "value",
          "type": "uint256"
        }
      ],
      "name": "Transfer",
      "type": "event"
    },
    {
      "stateMutability": "payable",
      "type": "fallback"
    },
    {
      "inputs": [],
      "name": "FeePercentage",
      "outputs": [
        {
          "internalType": "uint256",
          "name": "",
          "type": "uint256"
        }
      ],
      "stateMutability": "view",
      "type": "function"
    },
    {
      "inputs": [],
      "name": "VERSION",
      "outputs": [
        {
          "internalType": "string",
          "name": "",
          "type": "string"
        }
      ],
      "stateMutability": "view",
      "type": "function"
    },
    {
      "inputs": [],
      "name": "WAIT",
      "outputs": [
        {
          "internalType": "uint256",
          "name": "",
          "type": "uint256"
        }
      ],
      "stateMutability": "view",
      "type": "function"
    },
    {
      "inputs": [],
      "name": "bondName",
      "outputs": [
        {
          "internalType": "string",
          "name": "",
          "type": "string"
        }
      ],
      "stateMutability": "view",
      "type": "function"
    },
    {
      "inputs": [
        {
          "internalType": "uint256",
          "name": "",
          "type": "uint256"
        }
      ],
      "name": "bondQuotes",
      "outputs": [
        {
          "internalType": "address",
          "name": "seller",
          "type": "address"
        },
        {
          "internalType": "uint256",
          "name": "bondUnits",
          "type": "uint256"
        },
        {
          "internalType": "uint256",
          "name": "price",
          "type": "uint256"
        },
        {
          "internalType": "bool",
          "name": "active",
          "type": "bool"
        }
      ],
      "stateMutability": "view",
      "type": "function"
    },
    {
      "inputs": [],
      "name": "catContract",
      "outputs": [
        {
          "internalType": "contract IConsolidatedAuditTrail",
          "name": "",
          "type": "address"
        }
      ],
      "stateMutability": "view",
      "type": "function"
    },
    {
      "inputs": [],
      "name": "depositBalance",
      "outputs": [
        {
          "internalType": "uint256",
          "name": "",
          "type": "uint256"
        }
      ],
      "stateMutability": "view",
      "type": "function"
    },
    {
      "inputs": [],
      "name": "destroy",
      "outputs": [],
      "stateMutability": "nonpayable",
      "type": "function"
    },
    {
      "inputs": [
        {
          "internalType": "address",
          "name": "_recipient",
          "type": "address"
        }
      ],
      "name": "destroyAndSend",
      "outputs": [],
      "stateMutability": "nonpayable",
      "type": "function"
    },
    {
      "inputs": [],
      "name": "exchangeContract",
      "outputs": [
        {
          "internalType": "contract IExemptLiquidityMarketExchange",
          "name": "",
          "type": "address"
        }
      ],
      "stateMutability": "view",
      "type": "function"
    },
    {
      "inputs": [],
      "name": "feeRecipient",
      "outputs": [
        {
          "internalType": "address",
          "name": "",
          "type": "address"
        }
      ],
      "stateMutability": "view",
      "type": "function"
    },
    {
      "inputs": [],
      "name": "getOwner",
      "outputs": [
        {
          "internalType": "address",
          "name": "",
          "type": "address"
        }
      ],
      "stateMutability": "payable",
      "type": "function"
    },
    {
      "inputs": [],
      "name": "interestRate",
      "outputs": [
        {
          "internalType": "uint256",
          "name": "",
          "type": "uint256"
        }
      ],
      "stateMutability": "view",
      "type": "function"
    },
    {
      "inputs": [
        {
          "internalType": "address",
          "name": "",
          "type": "address"
        }
      ],
      "name": "investorQuotes",
      "outputs": [
        {
          "internalType": "uint256",
          "name": "",
          "type": "uint256"
        }
      ],
      "stateMutability": "view",
      "type": "function"
    },
    {
      "inputs": [
        {
          "internalType": "address",
          "name": "",
          "type": "address"
        }
      ],
      "name": "investors",
      "outputs": [
        {
          "internalType": "uint256",
          "name": "principal",
          "type": "uint256"
        },
        {
          "internalType": "uint256",
          "name": "interestEarned",
          "type": "uint256"
        },
        {
          "internalType": "bool",
          "name": "redeemed",
          "type": "bool"
        }
      ],
      "stateMutability": "view",
      "type": "function"
    },
    {
      "inputs": [],
      "name": "isMatured",
      "outputs": [
        {
          "internalType": "bool",
          "name": "",
          "type": "bool"
        }
      ],
      "stateMutability": "view",
      "type": "function"
    },
    {
      "inputs": [],
      "name": "issuer",
      "outputs": [
        {
          "internalType": "address",
          "name": "",
          "type": "address"
        }
      ],
      "stateMutability": "view",
      "type": "function"
    },
    {
      "inputs": [],
      "name": "maturityDate",
      "outputs": [
        {
          "internalType": "uint256",
          "name": "",
          "type": "uint256"
        }
      ],
      "stateMutability": "view",
      "type": "function"
    },
    {
      "inputs": [],
      "name": "maxBondUnits",
      "outputs": [
        {
          "internalType": "uint256",
          "name": "",
          "type": "uint256"
        }
      ],
      "stateMutability": "view",
      "type": "function"
    },
    {
      "inputs": [],
      "name": "owner",
      "outputs": [
        {
          "internalType": "address",
          "name": "",
          "type": "address"
        }
      ],
      "stateMutability": "view",
      "type": "function"
    },
    {
      "inputs": [],
      "name": "renounceOwnership",
      "outputs": [],
      "stateMutability": "payable",
      "type": "function"
    },
    {
      "inputs": [],
      "name": "restricted",
      "outputs": [
        {
          "internalType": "bool",
          "name": "",
          "type": "bool"
        }
      ],
      "stateMutability": "view",
      "type": "function"
    },
    {
      "inputs": [],
      "name": "totalPrincipal",
      "outputs": [
        {
          "internalType": "uint256",
          "name": "",
          "type": "uint256"
        }
      ],
      "stateMutability": "view",
      "type": "function"
    },
    {
      "inputs": [
        {
          "internalType": "address",
          "name": "newOwner",
          "type": "address"
        }
      ],
      "name": "transferOwnership",
      "outputs": [],
      "stateMutability": "payable",
      "type": "function"
    },
    {
      "stateMutability": "payable",
      "type": "receive"
    },
    {
      "inputs": [
        {
          "internalType": "address",
          "name": "wallet",
          "type": "address"
        }
      ],
      "name": "setFeeRecipient",
      "outputs": [],
      "stateMutability": "nonpayable",
      "type": "function"
    },
    {
      "inputs": [
        {
          "internalType": "uint256",
          "name": "fee",
          "type": "uint256"
        }
      ],
      "name": "setFee",
      "outputs": [],
      "stateMutability": "nonpayable",
      "type": "function"
    },
    {
      "inputs": [
        {
          "internalType": "address",
          "name": "exchangeAddress",
          "type": "address"
        }
      ],
      "name": "setOfferingPoolContract",
      "outputs": [],
      "stateMutability": "nonpayable",
      "type": "function"
    },
    {
      "inputs": [
        {
          "internalType": "address",
          "name": "catAddress",
          "type": "address"
        }
      ],
      "name": "setConsolidateAuditTrailContract",
      "outputs": [],
      "stateMutability": "nonpayable",
      "type": "function"
    },
    {
      "inputs": [],
      "name": "buy",
      "outputs": [],
      "stateMutability": "payable",
      "type": "function"
    },
    {
      "inputs": [
        {
          "internalType": "uint256",
          "name": "bondUnits",
          "type": "uint256"
        },
        {
          "internalType": "uint256",
          "name": "price",
          "type": "uint256"
        }
      ],
      "name": "addBondTrade",
      "outputs": [],
      "stateMutability": "nonpayable",
      "type": "function"
    },
    {
      "inputs": [],
      "name": "removeBondQuote",
      "outputs": [],
      "stateMutability": "nonpayable",
      "type": "function"
    },
    {
      "inputs": [],
      "name": "getTotalBondUnits",
      "outputs": [
        {
          "internalType": "uint256",
          "name": "",
          "type": "uint256"
        }
      ],
      "stateMutability": "view",
      "type": "function"
    },
    {
      "inputs": [
        {
          "internalType": "uint256",
          "name": "bondUnits",
          "type": "uint256"
        }
      ],
      "name": "quoteBondUnits",
      "outputs": [],
      "stateMutability": "nonpayable",
      "type": "function"
    },
    {
      "inputs": [
        {
          "internalType": "address",
          "name": "seller",
          "type": "address"
        }
      ],
      "name": "getBondQuote",
      "outputs": [
        {
          "internalType": "uint256",
          "name": "bondUnits",
          "type": "uint256"
        },
        {
          "internalType": "uint256",
          "name": "price",
          "type": "uint256"
        },
        {
          "internalType": "bool",
          "name": "active",
          "type": "bool"
        }
      ],
      "stateMutability": "view",
      "type": "function"
    }
  ],
  "bytecode": "0x6080604052600060019081556003805460ff191690556013553480156200002557600080fd5b5060405162001e1e38038062001e1e833981016040819052620000489162000173565b60008054600160a060020a031916339081178255426001556040519091907f8be0079c531659141344cd1fd0a4f28419497f9722a3daafe3b4186f6b6457e0908290a36004620000998a8262000362565b5060058054600160a060020a03998a16600160a060020a0319918216179091556006979097556007959095556008939093556009805460ff199081169091556000600a55600b80549315159390911692909217909155600c5560108054918516918416919091179055601180549190931691161790555062000434565b7f4e487b7100000000000000000000000000000000000000000000000000000000600052604160045260246000fd5b8051600160a060020a03811681146200015d57600080fd5b919050565b805180151581146200015d57600080fd5b60008060008060008060008060006101208a8c0312156200019357600080fd5b89516001604060020a0380821115620001ab57600080fd5b818c0191508c601f830112620001c057600080fd5b815181811115620001d557620001d562000116565b604051601f8201601f19908116603f0116810190838211818310171562000200576200020062000116565b81604052828152602093508f848487010111156200021d57600080fd5b600091505b8282101562000241578482018401518183018501529083019062000222565b6000848483010152809d505050506200025c818d0162000145565b9950505060408a0151965060608a0151955060808a015194506200028360a08b0162000162565b935060c08a015192506200029a60e08b0162000145565b9150620002ab6101008b0162000145565b90509295985092959850929598565b600281046001821680620002cf57607f821691505b60208210810362000309577f4e487b7100000000000000000000000000000000000000000000000000000000600052602260045260246000fd5b50919050565b601f8211156200035d576000818152602081206020601f86010481016020861015620003385750805b6020601f860104820191505b81811015620003595782815560010162000344565b5050505b505050565b81516001604060020a038111156200037e576200037e62000116565b62000396816200038f8454620002ba565b846200030f565b602080601f831160018114620003d25760008415620003b55750858301515b60028086026008870290910a600019041982161786555062000359565b600085815260208120601f198616915b828110156200040357888601518255948401946001909101908401620003e2565b50858210156200042457878501516008601f88160260020a60001904191681555b5050505050600202600101905550565b6119da80620004446000396000f3fe6080604052600436106101905760e060020a600035046307e45ffe81146102575780631a0559f2146102975780631d143848146102b95780631d96498b146102e65780631da8ca221461030657806333713e96146103525780633f0a0797146103675780634690484014610387578063492d5093146103a75780634b1533b2146103e457806355dce5e9146103fa57806361bc1a491461043757806369fe0e2d1461044d5780636f7bc9be1461046d5780637072c6b1146104c9578063715018a6146104f35780637c3a00fd146104fb5780637f2b6a0d1461051157806383197ef01461052b578063887b6abc14610540578063893d20e8146105625780638da5cb5b1461056a578063a223565e1461058f578063a6f2ae3a146105af578063b8fb3a51146105b7578063c0cf0c63146105cc578063cc7c19ce146105e1578063cca16a9f14610601578063d59624b414610617578063e28797d21461062d578063e74b981b14610643578063f2fde38b14610663578063f5074f4114610676578063ffa1ad7414610696576101d0565b366101d0577fcc85d09d309785db93d6df19917f2e6cc07fe27cd01c08c8279145deb5cf452633346040516101c69291906115bf565b60405180910390a1005b3233146102265760405160e560020a62461bcd0281526020600482015260196024820152603860020a787068697368696e672061747461636b2064657465637465643f0260448201526064015b60405180910390fd5b7f26875833861a2b006512a11f1b86edf95df96131040f3caeed72989ee985808333346040516101c69291906115bf565b34801561026357600080fd5b506102846102723660046115d8565b600f6020526000908152604090205481565b6040519081526020015b60405180910390f35b3480156102a357600080fd5b506102b76102b2366004611608565b6106cf565b005b3480156102c557600080fd5b506005546102d990600160a060020a031681565b60405161028e919061162a565b3480156102f257600080fd5b506011546102d990600160a060020a031681565b34801561031257600080fd5b5061032661032136600461163e565b610907565b60408051600160a060020a0390951685526020850193909352918301521515606082015260800161028e565b34801561035e57600080fd5b506102b761094e565b34801561037357600080fd5b506010546102d990600160a060020a031681565b34801561039357600080fd5b506012546102d990600160a060020a031681565b3480156103b357600080fd5b506102b76103c23660046115d8565b60118054600160a060020a031916600160a060020a0392909216919091179055565b3480156103f057600080fd5b5061028460065481565b34801561040657600080fd5b506102b76104153660046115d8565b60108054600160a060020a031916600160a060020a0392909216919091179055565b34801561044357600080fd5b50610284600a5481565b34801561045957600080fd5b506102b761046836600461163e565b610ab3565b34801561047957600080fd5b506104ac6104883660046115d8565b600e6020526000908152604090208054600182015460029092015490919060ff1683565b60408051938452602084019290925215159082015260600161028e565b3480156104d557600080fd5b50600b546104e39060ff1681565b604051901515815260200161028e565b6102b7610b80565b34801561050757600080fd5b5061028460075481565b34801561051d57600080fd5b506009546104e39060ff1681565b34801561053757600080fd5b506102b7610be5565b34801561054c57600080fd5b50610555610c42565b60405161028e9190611657565b6102d9610cd0565b34801561057657600080fd5b506003546102d9906101009004600160a060020a031681565b34801561059b57600080fd5b506102b76105aa36600461163e565b610d46565b6102b7610dc2565b3480156105c357600080fd5b50610284601e81565b3480156105d857600080fd5b50610284610f10565b3480156105ed57600080fd5b506104ac6105fc3660046115d8565b610f99565b34801561060d57600080fd5b50610284600c5481565b34801561062357600080fd5b5061028460085481565b34801561063957600080fd5b5061028460135481565b34801561064f57600080fd5b506102b761065e3660046115d8565b61108d565b6102b76106713660046115d8565b611107565b34801561068257600080fd5b506102b76106913660046115d8565b6111e8565b3480156106a257600080fd5b506105556040518060400160405280600a815260200160b060020a69312e362e342d626574610281525081565b600b5460ff1615806106f75750600b5460ff16151560011480156106f757506106f73361123f565b6107165760405160e560020a62461bcd02815260040161021d906116a5565b6008546009805460ff1916429290921191909117905560405160008051602061198583398151915290600090a160095460ff16156107695760405160e560020a62461bcd02815260040161021d906116f1565b6000821161078c5760405160e560020a62461bcd02815260040161021d90611728565b600081116107d25760405160e560020a62461bcd02815260206004820152600d6024820152609860020a6c496e76616c696420707269636502604482015260640161021d565b60408051608081018252338082526020808301868152838501868152600160608601818152600d8054928301815560005295517fd7b6990105719101dabeb77144f2a3385c8033acd3af97e9423a695e81ad1eb560049092029182018054600160a060020a031916600160a060020a0390921691909117905591517fd7b6990105719101dabeb77144f2a3385c8033acd3af97e9423a695e81ad1eb6830155517fd7b6990105719101dabeb77144f2a3385c8033acd3af97e9423a695e81ad1eb782015592517fd7b6990105719101dabeb77144f2a3385c8033acd3af97e9423a695e81ad1eb8909301805460ff1916931515939093179092558251858152918201849052917f511ab2bd405b50b3ebc0f0f061159fd391c1aa6ab582ddb632f6ddeb94c53549910160405180910390a25050565b600d818154811061091757600080fd5b60009182526020909120600490910201805460018201546002830154600390930154600160a060020a039092169350919060ff1684565b600b5460ff1615806109765750600b5460ff161515600114801561097657506109763361123f565b6109955760405160e560020a62461bcd02815260040161021d906116a5565b6008546009805460ff1916429290921191909117905560405160008051602061198583398151915290600090a160095460ff16156109e85760405160e560020a62461bcd02815260040161021d906116f1565b336000908152600f6020526040902054610a445760405160e560020a62461bcd0281526020600482015260176024820152604860020a764e6f20626f6e642071756f746520617661696c61626c6502604482015260640161021d565b336000818152600f602052604080822080549083905590519092917f015754ede06947eed80e5c3e7253a49d1c17ce35ad97fa6011c92148d7bf4ccc91a2604051339082156108fc029083906000818181858888f19350505050158015610aaf573d6000803e3d6000fd5b5050565b6000543390600160a060020a03168114610ae25760405160e560020a62461bcd02815260040161021d90611757565b6064821115610b445760405160e560020a62461bcd02815260206004820152602260248201527f4665652070657263656e74616765206d75737420626520313030206f72206c65604482015260f060020a61737302606482015260840161021d565b60138290556040518281527f74516f05eb4bd2461d57aa1e935ee553f86a3e02bfed7759f2f772915de3d9be9060200160405180910390a15050565b600054600160a060020a03163314610bad5760405160e560020a62461bcd02815260040161021d9061178e565b60008054604051600160a060020a0390911690600080516020611945833981519152908390a360008054600160a060020a0319169055565b600054600160a060020a03163314610c125760405160e560020a62461bcd02815260040161021d906117c2565b60008051602061192583398151915233610c2a610cd0565b604051610c389291906117f9565b60405180910390a1565b60048054610c4f90611813565b80601f0160208091040260200160405190810160405280929190818152602001828054610c7b90611813565b8015610cc85780601f10610c9d57610100808354040283529160200191610cc8565b820191906000526020600020905b815481529060010190602001808311610cab57829003601f168201915b505050505081565b6000601e600154610ce19190611865565b4211610d025760405160e560020a62461bcd02815260040161021d90611878565b601e600154610d119190611865565b4211610d325760405160e560020a62461bcd02815260040161021d90611878565b5042600155600054600160a060020a031690565b600b5460ff161580610d6e5750600b5460ff1615156001148015610d6e5750610d6e3361123f565b610d8d5760405160e560020a62461bcd02815260040161021d906116a5565b60008111610db05760405160e560020a62461bcd02815260040161021d90611728565b336000908152600f6020526040902055565b600b5460ff161580610dea5750600b5460ff1615156001148015610dea5750610dea3361123f565b610e095760405160e560020a62461bcd02815260040161021d906116a5565b6008546009805460ff1916429290921191909117905560405160008051602061198583398151915290600090a160095460ff1615610e5c5760405160e560020a62461bcd02815260040161021d906116f1565b60003411610eac5760405160e560020a62461bcd0281526020600482015260176024820152604a60020a76125b9d985b1a59081c1d5c98da185cd948185b5bdd5b9d02604482015260640161021d565b336000908152600e602052604081208054349290610ecb908490611865565b909155505060405134815233906000906000805160206119658339815191529060200160405180910390a3600c54610f01610f10565b10610f0e57610f0e6112ba565b565b600080805b600d54811015610f9357600d8181548110610f3257610f326118a5565b600091825260209091206003600490920201015460ff1615610f8157600d8181548110610f6157610f616118a5565b90600052602060002090600402016001015482610f7e9190611865565b91505b80610f8b816118bf565b915050610f15565b50919050565b60008080805b600d548110156110795784600160a060020a0316600d8281548110610fc657610fc66118a5565b6000918252602090912060049091020154600160a060020a03160361106757600d8181548110610ff857610ff86118a5565b906000526020600020906004020160010154600d828154811061101d5761101d6118a5565b906000526020600020906004020160020154600d8381548110611042576110426118a5565b6000918252602090912060036004909202010154919550935060ff1691506110869050565b80611071816118bf565b915050610f9f565b5060008060009250925092505b9193909250565b6000543390600160a060020a031681146110bc5760405160e560020a62461bcd02815260040161021d90611757565b60128054600160a060020a031916600160a060020a0384169081179091556040517f7a7b5a0a132f9e0581eb8527f66eae9ee89c2a3e79d4ac7e41a1f1f4d48a7fc290600090a25050565b600054600160a060020a031633146111345760405160e560020a62461bcd02815260040161021d9061178e565b600160a060020a03811661119f5760405160e560020a62461bcd02815260206004820152602660248201527f4f776e61626c653a206e6577206f776e657220697320746865207a65726f2061604482015260d060020a6564647265737302606482015260840161021d565b60008054604051600160a060020a038085169392169160008051602061194583398151915291a360008054600160a060020a031916600160a060020a0392909216919091179055565b600054600160a060020a031633146112155760405160e560020a62461bcd02815260040161021d906117c2565b60008051602061192583398151915233826040516112349291906117f9565b60405180910390a150565b60105460405160e060020a633af32abf028152600091600160a060020a031690633af32abf9061127390859060040161162a565b602060405180830381865afa158015611290573d6000803e3d6000fd5b505050506040513d601f19601f820116820180604052508101906112b491906118d8565b92915050565b60005b600d548110156115bc57600c54600d82815481106112dd576112dd6118a5565b906000526020600020906004020160010154116115aa576000600d8281548110611309576113096118a5565b906000526020600020906004020160020154600d838154811061132e5761132e6118a5565b90600052602060002090600402016001015461134a91906118fa565b90506000600d8381548110611361576113616118a5565b60009182526020822060049190910201600301805460ff191692151592909217909155600d805484908110611398576113986118a5565b9060005260206000209060040201600101819055506000600d83815481106113c2576113c26118a5565b906000526020600020906004020160020181905550600d82815481106113ea576113ea6118a5565b60009182526020822060049091020154604051600160a060020a039091169183156108fc02918491818181858888f1935050505015801561142f573d6000803e3d6000fd5b50600d8281548110611443576114436118a5565b6000918252602090912060049091020154600d8054600160a060020a039092169130916000805160206119658339815191529186908110611486576114866118a5565b9060005260206000209060040201600101546040516114a791815260200190565b60405180910390a3600d82815481106114c2576114c26118a5565b6000918252602090912060049091020154600d8054600160a060020a039092169133917f789f186cc0a1ce666d90fcfde7792038363d449592d55305c6d2cf30c94c57479186908110611517576115176118a5565b906000526020600020906004020160010154600d868154811061153c5761153c6118a5565b906000526020600020906004020160020154604051611565929190918252602082015260400190565b60405180910390a3600d8281548110611580576115806118a5565b906000526020600020906004020160010154600c60008282546115a39190611911565b9091555050505b806115b4816118bf565b9150506112bd565b50565b600160a060020a03929092168252602082015260400190565b6000602082840312156115ea57600080fd5b8135600160a060020a038116811461160157600080fd5b9392505050565b6000806040838503121561161b57600080fd5b50508035926020909101359150565b600160a060020a0391909116815260200190565b60006020828403121561165057600080fd5b5035919050565b600060208083528351808285015260005b8181101561168457858101830151858201604001528201611668565b506000604082860101526040601f19601f8301168501019250505092915050565b60208082526029908201527f416363657373207265737472696374656420746f207265676973746572656420604082015260b860020a68696e766573746f727302606082015260800190565b6020808252601c908201527f54686520626f6e642068617320616c7265616479206d61747572656400000000604082015260600190565b6020808252601290820152607060020a71496e76616c696420626f6e6420756e69747302604082015260600190565b6020808252601c908201527f6f776e6572206163636573732064656e69656420666f72207573657200000000604082015260600190565b6020808252601790820152604960020a7630b1b1b2b9b9903232b734b2b2103337b91037bbb732b902604082015260600190565b6020808252601b908201527f756e617574686f72697a65642c206e6f7420746865206f776e65720000000000604082015260600190565b600160a060020a0392831681529116602082015260400190565b60028104600182168061182757607f821691505b602082108103610f935760e060020a634e487b710260009081526022600452602490fd5b60e060020a634e487b710260009081526011600452602490fd5b808201808211156112b4576112b461184b565b6020808252601090820152608160020a6f3930ba32903634b6b4ba1032b93937b902604082015260600190565b60e060020a634e487b710260009081526032600452602490fd5b6000600182016118d1576118d161184b565b5060010190565b6000602082840312156118ea57600080fd5b8151801515811461160157600080fd5b80820281158282048414176112b4576112b461184b565b818103818111156112b4576112b461184b56fe91ca00fdf29069527d658f8dfc6d1c0bf9861780bb45ff36436f938d3595a8d68be0079c531659141344cd1fd0a4f28419497f9722a3daafe3b4186f6b6457e0ddf252ad1be2c89b69c2b068fc378daa952ba7f163c4a11628f55a4df523b3ef3f8e46bc23c7815f0b03f7ec17eba7162ce102a7ff38c5c7a42eec74f4f9b94fa264697066735822122013f6dc2c6a4b2b9e9603d815061c202161ad2fc42df2c79b69c9dacaf5baaa0764736f6c63430008120033",
  "immutableReferences": {},
  "source": "// SPDX-License-Identifier: CC-BY-4.0\npragma solidity >=0.4.22 <0.9.0;\n\nimport \"../../common/Version.sol\";\nimport \"../../common/Frozen.sol\";\nimport \"../../interfaces/IExemptLiquidityMarketExchange.sol\";\n\ncontract MunicipalBond is Version, Frozen {\n    struct Investor {\n        uint256 principal;\n        uint256 interestEarned;\n        bool redeemed;\n    }\n\n    struct BondTrade {\n        address seller;\n        uint256 bondUnits;\n        uint256 price;\n    }\n\n    struct BondQuote {\n        address seller;\n        uint256 bondUnits;\n        uint256 price;\n        bool active;\n    }\n\n    address public owner;\n\n    string public bondName;\n    address public issuer;\n    uint256 public totalPrincipal;\n    uint256 public interestRate;\n    uint256 public maturityDate;\n    bool public isMatured;\n    uint256 public depositBalance;\n    bool public restricted;\n    uint256 public maxBondUnits;\n    BondQuote[] public bondQuotes;\n\n    mapping(address => Investor) public investors;\n    mapping(address => uint256) public investorQuotes;\n\n    IExemptLiquidityMarketExchange public exchangeContract;\n    IConsolidatedAuditTrail public catContract;\n\n    address public feeRecipient;\n    uint256 public FeePercentage = 1; // Fee percentage\n\n    event FeeRecipientUpdated(address indexed newRecipient);\n    event FeePercentageUpdated(uint256 newPercentage);\n    event Transfer(address indexed from, address indexed to, uint256 value);\n    event BondMatured();\n    event BondTradeAdded(address indexed seller, uint256 bondUnits, uint256 price);\n    event BondTradeExecuted(address indexed buyer, address indexed seller, uint256 bondUnits, uint256 price);\n    event BondQuoteAdded(address indexed seller, uint256 bondUnits, uint256 price);\n    event BondQuoteRemoved(address indexed seller);\n\n    modifier onlyIssuer() {\n        require(msg.sender == issuer, \"Only the issuer can perform this action\");\n        _;\n    }\n\n    modifier notMatured() {\n        isMatured = block.timestamp > maturityDate;\n        emit BondMatured();\n        require(!isMatured, \"The bond has already matured\");\n        _;\n    }\n\n    /**\n     * This modifier restricts access to the buy function to accredited investors and broker dealers \n     * when the restricted flag is set to true.\n     */ \n    modifier onlyAccreditedAndBrokerDealers() {\n        require(\n            restricted == true &&\n            (isAccreditedInvestor(msg.sender) || isBrokerDealer(msg.sender)),\n            \"Access restricted to accredited investors and broker dealers\"\n        );\n        _;\n    }\n    /**\n     *  This modifier restricts access to the buy function to registered investors when the restricted flag is set \n     *  to false, or when the flag is set to true and the investor is also a registered investor.\n     */\n    modifier onlyRegisteredInvestors() {\n        require(\n            restricted == false || \n            (restricted == true && isRegisteredInvestor(msg.sender)),\n            \"Access restricted to registered investors\"\n        );\n        _;\n    }\n\n    constructor(\n        string memory _bondName,\n        address _issuer,\n        uint256 _totalPrincipal,\n        uint256 _interestRate,\n        uint256 _maturityDate,\n        bool _restricted,\n        uint256 _maxBondUnits,\n        address exchangeAddress,\n        address catAddress\n    ) {\n        bondName = _bondName;\n        issuer = _issuer;\n        totalPrincipal = _totalPrincipal;\n        interestRate = _interestRate;\n        maturityDate = _maturityDate;\n        isMatured = false;\n        depositBalance = 0;\n        restricted = _restricted;\n        maxBondUnits = _maxBondUnits;\n\n        exchangeContract = IExemptLiquidityMarketExchange(exchangeAddress);\n        catContract = IConsolidatedAuditTrail(catAddress);\n    }\n\n    function setFeeRecipient(address wallet) external isOwner(msg.sender) {\n        feeRecipient = address(wallet);\n        emit FeeRecipientUpdated(wallet);       \n    }\n\n    function setFee(uint256 fee) external isOwner(msg.sender) {\n        require(fee <= 100, \"Fee percentage must be 100 or less\");\n        FeePercentage = fee; // 1=1% deposit fee\n        emit FeePercentageUpdated(fee);\n    }\n\n    function setOfferingPoolContract(address exchangeAddress) external {\n        exchangeContract = IExemptLiquidityMarketExchange(exchangeAddress);\n    }\n\n    function setConsolidateAuditTrailContract(address catAddress) external {\n        catContract = IConsolidatedAuditTrail(catAddress);\n    }\n\n    function isAccreditedInvestor(address investor) internal view returns (bool) {\n        // Implement your own logic to determine if the investor is accredited\n        // This could involve checking their income, net worth, or other requirements\n        // Return true if the investor is accredited, otherwise return false\n        return exchangeContract.isAccredited(investor);\n    }\n\n    function isBrokerDealer(address investor) internal view returns (bool) {\n        // Implement your own logic to determine if the investor is a broker dealer\n        // Return true if the investor is a broker dealer, otherwise return false\n        return exchangeContract.isBrokerDealer(investor);\n    }\n\n    function isRegisteredInvestor(address investor) internal view returns (bool) {\n        // Implement your own logic to determine if the investor is a registered investor\n        // This could involve checking a registration status or qualification requirements\n        // Return true if the investor is a registered investor, otherwise return false\n        return exchangeContract.isWhitelisted(investor);\n    }\n\n    function buy() external payable onlyRegisteredInvestors notMatured {\n        require(msg.value > 0, \"Invalid purchase amount\");\n\n        investors[msg.sender].principal += msg.value;\n\n        emit Transfer(address(0), msg.sender, msg.value);\n\n        // Check if the bond is fully funded\n        if (getTotalBondUnits() >= maxBondUnits) {\n            executeBondTrades();\n        }\n    }\n\n    function executeBondTrades() internal {\n        for (uint256 i = 0; i < bondQuotes.length; i++) {\n            if (bondQuotes[i].bondUnits <= maxBondUnits) {\n                uint256 totalAmount = bondQuotes[i].bondUnits * bondQuotes[i].price;\n                bondQuotes[i].active = false;\n                bondQuotes[i].bondUnits = 0;\n                bondQuotes[i].price = 0;\n                payable(bondQuotes[i].seller).transfer(totalAmount);\n\n                emit Transfer(address(this), bondQuotes[i].seller, bondQuotes[i].bondUnits);\n                emit BondTradeExecuted(msg.sender, bondQuotes[i].seller, bondQuotes[i].bondUnits, bondQuotes[i].price);\n\n                maxBondUnits -= bondQuotes[i].bondUnits;\n            }\n        }\n    }\n\n    function addBondTrade(uint256 bondUnits, uint256 price) external onlyRegisteredInvestors notMatured {\n        require(bondUnits > 0, \"Invalid bond units\");\n        require(price > 0, \"Invalid price\");\n\n        bondQuotes.push(BondQuote(msg.sender, bondUnits, price, true));\n\n        emit BondQuoteAdded(msg.sender, bondUnits, price);\n    }\n\n    function removeBondQuote() external onlyRegisteredInvestors notMatured {\n        require(investorQuotes[msg.sender] > 0, \"No bond quote available\");\n\n        uint256 bondUnits = investorQuotes[msg.sender];\n        investorQuotes[msg.sender] = 0;\n\n        emit BondQuoteRemoved(msg.sender);\n\n        // Refund the bond units to the investor\n        payable(msg.sender).transfer(bondUnits);\n    }\n\n    // Rest of the contract functions...\n\n    function getTotalBondUnits() public view returns (uint256) {\n        uint256 totalUnits = 0;\n        for (uint256 i = 0; i < bondQuotes.length; i++) {\n            if (bondQuotes[i].active) {\n                totalUnits += bondQuotes[i].bondUnits;\n            }\n        }\n        return totalUnits;\n    }\n\n    function quoteBondUnits(uint256 bondUnits) external onlyRegisteredInvestors {\n        require(bondUnits > 0, \"Invalid bond units\");\n\n        investorQuotes[msg.sender] = bondUnits;\n    }\n\n    function getBondQuote(address seller) public view returns (uint256 bondUnits, uint256 price, bool active) {\n        for (uint256 i = 0; i < bondQuotes.length; i++) {\n            if (bondQuotes[i].seller == seller) {\n                return (\n                    bondQuotes[i].bondUnits,\n                    bondQuotes[i].price,\n                    bondQuotes[i].active\n                );\n            }\n        }\n        return (0, 0, false);\n    }\n}\n",
  "sourcePath": "/Volumes/My Book/projects/pingleware-contracts/contracts/government/municipal/MunicipalBond.sol",
  "compiler": {
    "name": "solc",
    "version": "0.8.18+commit.87f61d96.Emscripten.clang"
  },
  "schemaVersion": "3.4.12",
  "updatedAt": "2023-10-24T05:58:48.945Z",
  "devdoc": {
    "kind": "dev",
    "methods": {
      "renounceOwnership()": {
        "details": "Leaves the contract without owner. It will not be possible to call `onlyOwner` functions anymore. Can only be called by the current owner. NOTE: Renouncing ownership will leave the contract without an owner, thereby removing any functionality that is only available to the owner."
      },
      "transferOwnership(address)": {
        "details": "Transfers ownership of the contract to a new account (`newOwner`). Can only be called by the current owner."
      }
    },
    "version": 1
  },
  "userdoc": {
    "kind": "user",
    "methods": {},
    "version": 1
  }
}