{
  "contractName": "MunicipalGovernment",
  "abi": [
    {
      "inputs": [],
      "stateMutability": "nonpayable",
      "type": "constructor"
    },
    {
      "anonymous": false,
      "inputs": [
        {
          "indexed": false,
          "internalType": "uint256",
          "name": "proposalId",
          "type": "uint256"
        },
        {
          "indexed": false,
          "internalType": "string",
          "name": "description",
          "type": "string"
        }
      ],
      "name": "ProposalCreated",
      "type": "event"
    },
    {
      "anonymous": false,
      "inputs": [
        {
          "indexed": false,
          "internalType": "uint256",
          "name": "proposalId",
          "type": "uint256"
        },
        {
          "indexed": false,
          "internalType": "address",
          "name": "voter",
          "type": "address"
        },
        {
          "indexed": false,
          "internalType": "bool",
          "name": "inSupport",
          "type": "bool"
        }
      ],
      "name": "ProposalVoted",
      "type": "event"
    },
    {
      "inputs": [
        {
          "internalType": "uint256",
          "name": "",
          "type": "uint256"
        }
      ],
      "name": "councilMembers",
      "outputs": [
        {
          "internalType": "address",
          "name": "",
          "type": "address"
        }
      ],
      "stateMutability": "view",
      "type": "function"
    },
    {
      "inputs": [],
      "name": "mayor",
      "outputs": [
        {
          "internalType": "address",
          "name": "",
          "type": "address"
        }
      ],
      "stateMutability": "view",
      "type": "function"
    },
    {
      "inputs": [],
      "name": "proposalCounter",
      "outputs": [
        {
          "internalType": "uint256",
          "name": "",
          "type": "uint256"
        }
      ],
      "stateMutability": "view",
      "type": "function"
    },
    {
      "inputs": [
        {
          "internalType": "uint256",
          "name": "",
          "type": "uint256"
        }
      ],
      "name": "proposals",
      "outputs": [
        {
          "internalType": "string",
          "name": "description",
          "type": "string"
        },
        {
          "internalType": "uint256",
          "name": "votes",
          "type": "uint256"
        },
        {
          "internalType": "bool",
          "name": "passed",
          "type": "bool"
        }
      ],
      "stateMutability": "view",
      "type": "function"
    },
    {
      "inputs": [],
      "name": "getCityCouncilAddress",
      "outputs": [
        {
          "internalType": "address",
          "name": "",
          "type": "address"
        }
      ],
      "stateMutability": "view",
      "type": "function"
    },
    {
      "inputs": [
        {
          "internalType": "address",
          "name": "account",
          "type": "address"
        }
      ],
      "name": "isCouncilMember",
      "outputs": [
        {
          "internalType": "bool",
          "name": "",
          "type": "bool"
        }
      ],
      "stateMutability": "view",
      "type": "function"
    },
    {
      "inputs": [
        {
          "internalType": "address",
          "name": "newMember",
          "type": "address"
        }
      ],
      "name": "addCouncilMember",
      "outputs": [],
      "stateMutability": "nonpayable",
      "type": "function"
    },
    {
      "inputs": [
        {
          "internalType": "string",
          "name": "description",
          "type": "string"
        }
      ],
      "name": "createProposal",
      "outputs": [],
      "stateMutability": "nonpayable",
      "type": "function"
    },
    {
      "inputs": [
        {
          "internalType": "uint256",
          "name": "proposalId",
          "type": "uint256"
        },
        {
          "internalType": "bool",
          "name": "inSupport",
          "type": "bool"
        }
      ],
      "name": "voteOnProposal",
      "outputs": [],
      "stateMutability": "nonpayable",
      "type": "function"
    }
  ],
  "bytecode": "0x608080604052346100d95760008054600160a060020a031990811633178255600154680100000000000000008110156100ac57600181018060015581101561007f57600183527fb10e2d527612073b26eecdfd717e6a320cf44b4afac2b0732d9fcbe2b7fa0cf6018054909116331790556003556108f890816100df8239f35b6024837f4e487b710000000000000000000000000000000000000000000000000000000081526032600452fd5b6024837f4e487b710000000000000000000000000000000000000000000000000000000081526041600452fd5b600080fdfe6080604081815260048036101561001557600080fd5b60009260e060020a8435049063013cf08b82146105f0575080630c0512e9146105d15780631614665c146104aa578063289f5375146103c657806349c2a1a614610155578063751a6a341461010f578063cf7ff133146100e7578063eb1e39c2146100c85763ebd7dc521461008957600080fd5b346100c45760203660031901126100c4573591600160a060020a03831683036100c157506100b86020926107e6565b90519015158152f35b80fd5b8280fd5b5050346100e357816003193601126100e35760209051308152f35b5080fd5b5050346100e357816003193601126100e35790549051600160a060020a039091168152602090f35b50346100c45760203660031901126100c45735916001548310156100c15750610139602092610788565b90549151600890910260020a909104600160a060020a03168152f35b509190346100e357602090816003193601126100c4576001604060020a0384358181116103c257366023820112156103c25780860135908282116103ac57835192601f1992601f926101ad828501861689018761070b565b81865236602483830101116103a85781899260248a930183890137860101526101dd6101d8336107e6565b61083a565b6101e86003546107bd565b9283600355855191606083018381108282111761039257875285835287830191898352878401958a87528a52600294858a52888b2094519b8c5193841161037c575061023485546106cc565b81811161033e575b5089918184116001146102c257505090806102b19796959493928b9c6000805160206108a38339815191529c926102b7575b505060088202850a6000190419169084021782555b516001820155019051151560ff80198354169116179055600354928080519586958652850152830190610748565b0390a180f35b01519050388061026e565b831691858c528a8c20928c5b8181106103275750928796959491926102b19a9998936000805160206108a38339815191529e9f846001971061030c575b5050505002018255610283565b0151908316600802840a6000190419169055388080806102ff565b8e8301518555600190940193918c01918c016102ce565b858c528a8c208b838181880104830193828810610373575b010401905b818110610368575061023c565b8c815560010161035b565b93508293610356565b60e060020a634e487b71028c526041905260248bfd5b60e060020a634e487b71028a5260418b5260248afd5b8880fd5b60e060020a634e487b7102865260418752602486fd5b8480fd5b5090346100c45760203660031901126100c457600160a060020a038235818116939192908490036103c25782855416330361044f575060015490604060020a821015610439575080600161041d9201600155610788565b909260088454920260020a809302928391021691191617905580f35b60e060020a634e487b7102855260419052602484fd5b5160e560020a62461bcd028152602091810191909152602760248201527f4f6e6c7920746865206d61796f722063616e20706572666f726d207468697320604482015260c960020a6630b1ba34b7b717026064820152608490fd5b50346100c457816003193601126100c457803591602435918215158093036103c2576104d86101d8336107e6565b83855260026020526001908183872001548254111561057457509183916060937f0def80f9a3b4c7a4251442658ccf516bf33ea4acaf31638fc6da8ebdb0f64c729587526002602052808288200161053081546107bd565b9055838752600260205281872081810154600283540410610560575b50508051928352336020840152820152a180f35b6002019060ff19825416179055388061054c565b825160e560020a62461bcd028152602091810191909152602860248201527f546869732070726f706f73616c2068617320616c7265616479206265656e2076604482015260c160020a6737ba32b21037b717026064820152608490fd5b5050346100e357816003193601126100e3576020906003549051908152f35b929050346106c857602091826003193601126103c2573584526002825280842080548561061c826106cc565b9081875260019283811690816000146106ab5750600114610677575b5050600260ff9161064e8761066999038861070b565b83015492015416908251958695606087526060870190610748565b938501521515908301520390f35b9096508281528481205b8782106106985750850184019550600260ff610638565b8054878301870152908501908201610681565b60ff191688880152505015158402850184019550600260ff610638565b8380fd5b9060016002830492168015610701575b60208310146106e757565b60e060020a634e487b710260009081526022600452602490fd5b91607f16916106dc565b601f909101601f19168101906001604060020a0382119082101761072e57604052565b60e060020a634e487b710260009081526041600452602490fd5b919082519283825260005b848110610774575050826000602080949584010152601f8019910116010190565b602081830181015184830182015201610753565b6001548110156107a357600160005260206000200190600090565b60e060020a634e487b710260009081526032600452602490fd5b60001981146107cc5760010190565b60e060020a634e487b710260009081526011600452602490fd5b600180549160005b8381106107fe5750505050600090565b61080781610788565b9054600160a060020a03848116600890930260020a90910416146108335761082e906107bd565b6107ee565b5050905090565b1561084157565b60405160e560020a62461bcd02815260206004820152602d60248201527f4f6e6c7920636f756e63696c206d656d626572732063616e20706572666f726d6044820152609960020a6c103a3434b99030b1ba34b7b717026064820152608490fdfe9c770c289ab5bf7e57cb1d23c8ceae993aea46eb64847072fd3d78ca60d3e432a2646970667358221220b0c00300a18b8dff8846a0296cd54f00e17f6b623ced4ee3f6aed710a442e46264736f6c63430008120033",
  "immutableReferences": {},
  "source": "// SPDX-License-Identifier: BSL-1.1\npragma solidity >=0.4.22 <0.9.0;\n\ncontract MunicipalGovernment {\n    address public mayor;\n    address[] public councilMembers;\n    \n    struct Proposal {\n        string description;\n        uint256 votes;\n        bool passed;\n    }\n    \n    mapping(uint256 => Proposal) public proposals;\n    uint256 public proposalCounter;\n    \n    event ProposalCreated(uint256 proposalId, string description);\n    event ProposalVoted(uint256 proposalId, address voter, bool inSupport);\n    \n    constructor() {\n        mayor = msg.sender;\n        councilMembers.push(msg.sender);\n        proposalCounter = 0;\n    }\n    \n    modifier onlyMayor() {\n        require(msg.sender == mayor, \"Only the mayor can perform this action.\");\n        _;\n    }\n    \n    modifier onlyCouncilMember() {\n        require(isCouncilMember(msg.sender), \"Only council members can perform this action.\");\n        _;\n    }\n\n    function getCityCouncilAddress() external view returns (address) {\n        return address(this);\n    }\n    \n    function isCouncilMember(address account) public view returns (bool) {\n        for (uint256 i = 0; i < councilMembers.length; i++) {\n            if (councilMembers[i] == account) {\n                return true;\n            }\n        }\n        return false;\n    }\n    \n    function addCouncilMember(address newMember) public onlyMayor {\n        councilMembers.push(newMember);\n    }\n    \n    function createProposal(string memory description) public onlyCouncilMember {\n        proposalCounter++;\n        proposals[proposalCounter] = Proposal(description, 0, false);\n        emit ProposalCreated(proposalCounter, description);\n    }\n    \n    function voteOnProposal(uint256 proposalId, bool inSupport) public onlyCouncilMember {\n        require(proposals[proposalId].votes < councilMembers.length, \"This proposal has already been voted on.\");\n        proposals[proposalId].votes++;\n        \n        if (proposals[proposalId].votes > councilMembers.length / 2) {\n            proposals[proposalId].passed = true;\n        }\n        \n        emit ProposalVoted(proposalId, msg.sender, inSupport);\n    }\n}\n",
  "sourcePath": "/Volumes/HOME/pingleware-contracts/contracts/government/municipal/MunicipalGovernment.sol",
  "compiler": {
    "name": "solc",
    "version": "0.8.18+commit.87f61d96.Emscripten.clang"
  },
  "schemaVersion": "3.4.12",
  "updatedAt": "2024-05-23T18:56:26.273Z",
  "devdoc": {
    "kind": "dev",
    "methods": {},
    "version": 1
  },
  "userdoc": {
    "kind": "user",
    "methods": {},
    "version": 1
  }
}