{
  "contractName": "MunicipalBusStops",
  "abi": [
    {
      "anonymous": false,
      "inputs": [
        {
          "indexed": false,
          "internalType": "address",
          "name": "",
          "type": "address"
        },
        {
          "indexed": false,
          "internalType": "uint256",
          "name": "",
          "type": "uint256"
        },
        {
          "indexed": false,
          "internalType": "uint256",
          "name": "",
          "type": "uint256"
        },
        {
          "indexed": false,
          "internalType": "string",
          "name": "",
          "type": "string"
        },
        {
          "indexed": false,
          "internalType": "string",
          "name": "",
          "type": "string"
        },
        {
          "indexed": false,
          "internalType": "string",
          "name": "",
          "type": "string"
        },
        {
          "indexed": false,
          "internalType": "string",
          "name": "",
          "type": "string"
        },
        {
          "indexed": false,
          "internalType": "string",
          "name": "",
          "type": "string"
        },
        {
          "indexed": false,
          "internalType": "string",
          "name": "",
          "type": "string"
        },
        {
          "indexed": false,
          "internalType": "string",
          "name": "",
          "type": "string"
        },
        {
          "indexed": false,
          "internalType": "bool",
          "name": "",
          "type": "bool"
        },
        {
          "indexed": false,
          "internalType": "string",
          "name": "",
          "type": "string"
        }
      ],
      "name": "BusStopAdded",
      "type": "event"
    },
    {
      "anonymous": false,
      "inputs": [
        {
          "indexed": false,
          "internalType": "address",
          "name": "",
          "type": "address"
        },
        {
          "indexed": false,
          "internalType": "uint256",
          "name": "",
          "type": "uint256"
        },
        {
          "indexed": false,
          "internalType": "uint256",
          "name": "",
          "type": "uint256"
        },
        {
          "indexed": false,
          "internalType": "string",
          "name": "",
          "type": "string"
        },
        {
          "indexed": false,
          "internalType": "string",
          "name": "",
          "type": "string"
        },
        {
          "indexed": false,
          "internalType": "string",
          "name": "",
          "type": "string"
        },
        {
          "indexed": false,
          "internalType": "string",
          "name": "",
          "type": "string"
        },
        {
          "indexed": false,
          "internalType": "string",
          "name": "",
          "type": "string"
        },
        {
          "indexed": false,
          "internalType": "string",
          "name": "",
          "type": "string"
        },
        {
          "indexed": false,
          "internalType": "string",
          "name": "",
          "type": "string"
        },
        {
          "indexed": false,
          "internalType": "bool",
          "name": "",
          "type": "bool"
        },
        {
          "indexed": false,
          "internalType": "string",
          "name": "",
          "type": "string"
        }
      ],
      "name": "BusStopUpdated",
      "type": "event"
    },
    {
      "anonymous": false,
      "inputs": [
        {
          "indexed": false,
          "internalType": "address",
          "name": "sender",
          "type": "address"
        },
        {
          "indexed": false,
          "internalType": "address",
          "name": "recipient",
          "type": "address"
        }
      ],
      "name": "Destroyed",
      "type": "event"
    },
    {
      "anonymous": false,
      "inputs": [
        {
          "indexed": false,
          "internalType": "address",
          "name": "sender",
          "type": "address"
        },
        {
          "indexed": false,
          "internalType": "uint256",
          "name": "amount",
          "type": "uint256"
        }
      ],
      "name": "FallbackEvent",
      "type": "event"
    },
    {
      "anonymous": false,
      "inputs": [
        {
          "indexed": true,
          "internalType": "address",
          "name": "previousOwner",
          "type": "address"
        },
        {
          "indexed": true,
          "internalType": "address",
          "name": "newOwner",
          "type": "address"
        }
      ],
      "name": "OwnershipTransferred",
      "type": "event"
    },
    {
      "anonymous": false,
      "inputs": [
        {
          "indexed": false,
          "internalType": "address",
          "name": "sender",
          "type": "address"
        },
        {
          "indexed": false,
          "internalType": "uint256",
          "name": "amount",
          "type": "uint256"
        }
      ],
      "name": "ReceiveEvent",
      "type": "event"
    },
    {
      "anonymous": false,
      "inputs": [
        {
          "indexed": false,
          "internalType": "address",
          "name": "sender",
          "type": "address"
        },
        {
          "indexed": false,
          "internalType": "bytes",
          "name": "reason",
          "type": "bytes"
        }
      ],
      "name": "Started",
      "type": "event"
    },
    {
      "anonymous": false,
      "inputs": [
        {
          "indexed": false,
          "internalType": "address",
          "name": "sender",
          "type": "address"
        },
        {
          "indexed": false,
          "internalType": "bytes",
          "name": "reason",
          "type": "bytes"
        }
      ],
      "name": "Stopped",
      "type": "event"
    },
    {
      "anonymous": false,
      "inputs": [
        {
          "indexed": false,
          "internalType": "address",
          "name": "sender",
          "type": "address"
        },
        {
          "indexed": false,
          "internalType": "string",
          "name": "reason",
          "type": "string"
        }
      ],
      "name": "Termination",
      "type": "event"
    },
    {
      "stateMutability": "payable",
      "type": "fallback",
      "payable": true
    },
    {
      "inputs": [],
      "name": "VERSION",
      "outputs": [
        {
          "internalType": "string",
          "name": "",
          "type": "string"
        }
      ],
      "stateMutability": "view",
      "type": "function",
      "constant": true
    },
    {
      "inputs": [],
      "name": "WAIT",
      "outputs": [
        {
          "internalType": "uint256",
          "name": "",
          "type": "uint256"
        }
      ],
      "stateMutability": "view",
      "type": "function",
      "constant": true
    },
    {
      "inputs": [
        {
          "internalType": "uint256",
          "name": "_id",
          "type": "uint256"
        },
        {
          "internalType": "uint256",
          "name": "epoch",
          "type": "uint256"
        },
        {
          "internalType": "string",
          "name": "_name",
          "type": "string"
        },
        {
          "internalType": "string",
          "name": "_latitude",
          "type": "string"
        },
        {
          "internalType": "string",
          "name": "_longitude",
          "type": "string"
        },
        {
          "internalType": "bool",
          "name": "_status",
          "type": "bool"
        }
      ],
      "name": "add",
      "outputs": [],
      "stateMutability": "nonpayable",
      "type": "function"
    },
    {
      "inputs": [
        {
          "internalType": "uint256",
          "name": "",
          "type": "uint256"
        }
      ],
      "name": "busStops",
      "outputs": [
        {
          "internalType": "uint256",
          "name": "id",
          "type": "uint256"
        },
        {
          "internalType": "uint256",
          "name": "last_updated",
          "type": "uint256"
        },
        {
          "internalType": "string",
          "name": "stop_name",
          "type": "string"
        },
        {
          "internalType": "string",
          "name": "latitude",
          "type": "string"
        },
        {
          "internalType": "string",
          "name": "longitude",
          "type": "string"
        },
        {
          "internalType": "string",
          "name": "street",
          "type": "string"
        },
        {
          "internalType": "string",
          "name": "crossroad",
          "type": "string"
        },
        {
          "internalType": "string",
          "name": "position",
          "type": "string"
        },
        {
          "internalType": "string",
          "name": "direction",
          "type": "string"
        },
        {
          "internalType": "bool",
          "name": "status",
          "type": "bool"
        },
        {
          "internalType": "string",
          "name": "location",
          "type": "string"
        }
      ],
      "stateMutability": "view",
      "type": "function",
      "constant": true
    },
    {
      "inputs": [],
      "name": "destroy",
      "outputs": [],
      "stateMutability": "nonpayable",
      "type": "function"
    },
    {
      "inputs": [
        {
          "internalType": "address",
          "name": "_recipient",
          "type": "address"
        }
      ],
      "name": "destroyAndSend",
      "outputs": [],
      "stateMutability": "nonpayable",
      "type": "function"
    },
    {
      "inputs": [],
      "name": "getActiveBusStops",
      "outputs": [
        {
          "components": [
            {
              "internalType": "uint256",
              "name": "id",
              "type": "uint256"
            },
            {
              "internalType": "uint256",
              "name": "last_updated",
              "type": "uint256"
            },
            {
              "internalType": "string",
              "name": "stop_name",
              "type": "string"
            },
            {
              "internalType": "string",
              "name": "latitude",
              "type": "string"
            },
            {
              "internalType": "string",
              "name": "longitude",
              "type": "string"
            },
            {
              "internalType": "string",
              "name": "street",
              "type": "string"
            },
            {
              "internalType": "string",
              "name": "crossroad",
              "type": "string"
            },
            {
              "internalType": "string",
              "name": "position",
              "type": "string"
            },
            {
              "internalType": "string",
              "name": "direction",
              "type": "string"
            },
            {
              "internalType": "bool",
              "name": "status",
              "type": "bool"
            },
            {
              "internalType": "string",
              "name": "location",
              "type": "string"
            }
          ],
          "internalType": "struct BusStops.BusStop[]",
          "name": "",
          "type": "tuple[]"
        }
      ],
      "stateMutability": "view",
      "type": "function",
      "constant": true
    },
    {
      "inputs": [
        {
          "internalType": "uint256",
          "name": "index",
          "type": "uint256"
        }
      ],
      "name": "getBusStop",
      "outputs": [
        {
          "components": [
            {
              "internalType": "uint256",
              "name": "id",
              "type": "uint256"
            },
            {
              "internalType": "uint256",
              "name": "last_updated",
              "type": "uint256"
            },
            {
              "internalType": "string",
              "name": "stop_name",
              "type": "string"
            },
            {
              "internalType": "string",
              "name": "latitude",
              "type": "string"
            },
            {
              "internalType": "string",
              "name": "longitude",
              "type": "string"
            },
            {
              "internalType": "string",
              "name": "street",
              "type": "string"
            },
            {
              "internalType": "string",
              "name": "crossroad",
              "type": "string"
            },
            {
              "internalType": "string",
              "name": "position",
              "type": "string"
            },
            {
              "internalType": "string",
              "name": "direction",
              "type": "string"
            },
            {
              "internalType": "bool",
              "name": "status",
              "type": "bool"
            },
            {
              "internalType": "string",
              "name": "location",
              "type": "string"
            }
          ],
          "internalType": "struct BusStops.BusStop",
          "name": "",
          "type": "tuple"
        }
      ],
      "stateMutability": "view",
      "type": "function",
      "constant": true
    },
    {
      "inputs": [],
      "name": "getBusStops",
      "outputs": [
        {
          "components": [
            {
              "internalType": "uint256",
              "name": "id",
              "type": "uint256"
            },
            {
              "internalType": "uint256",
              "name": "last_updated",
              "type": "uint256"
            },
            {
              "internalType": "string",
              "name": "stop_name",
              "type": "string"
            },
            {
              "internalType": "string",
              "name": "latitude",
              "type": "string"
            },
            {
              "internalType": "string",
              "name": "longitude",
              "type": "string"
            },
            {
              "internalType": "string",
              "name": "street",
              "type": "string"
            },
            {
              "internalType": "string",
              "name": "crossroad",
              "type": "string"
            },
            {
              "internalType": "string",
              "name": "position",
              "type": "string"
            },
            {
              "internalType": "string",
              "name": "direction",
              "type": "string"
            },
            {
              "internalType": "bool",
              "name": "status",
              "type": "bool"
            },
            {
              "internalType": "string",
              "name": "location",
              "type": "string"
            }
          ],
          "internalType": "struct BusStops.BusStop[]",
          "name": "",
          "type": "tuple[]"
        }
      ],
      "stateMutability": "view",
      "type": "function",
      "constant": true
    },
    {
      "inputs": [],
      "name": "getOwner",
      "outputs": [
        {
          "internalType": "address",
          "name": "",
          "type": "address"
        }
      ],
      "stateMutability": "payable",
      "type": "function",
      "payable": true
    },
    {
      "inputs": [],
      "name": "renounceOwnership",
      "outputs": [],
      "stateMutability": "payable",
      "type": "function",
      "payable": true
    },
    {
      "inputs": [
        {
          "internalType": "address",
          "name": "newOwner",
          "type": "address"
        }
      ],
      "name": "transferOwnership",
      "outputs": [],
      "stateMutability": "payable",
      "type": "function",
      "payable": true
    },
    {
      "stateMutability": "payable",
      "type": "receive",
      "payable": true
    }
  ],
  "bytecode": "0x608060405260006001556003805460ff1916905534801561001f57600080fd5b5060008054600160a060020a031916339081178255426001556040519091907f8be0079c531659141344cd1fd0a4f28419497f9722a3daafe3b4186f6b6457e0908290a36124b8806100726000396000f3fe60806040526004361061009e5760e060020a60003504631e33678881146101655780635b4d257c14610190578063656eb06a146101a5578063715018a6146101c757806383197ef0146101cf578063893d20e8146101e4578063b8fb3a5114610204578063e4cf066214610227578063f2fde38b1461025e578063f5074f4114610271578063fb10814414610291578063ffa1ad74146102be576100de565b366100de577fcc85d09d309785db93d6df19917f2e6cc07fe27cd01c08c8279145deb5cf452633346040516100d4929190611ccb565b60405180910390a1005b3233146101345760405160e560020a62461bcd0281526020600482015260196024820152603860020a787068697368696e672061747461636b2064657465637465643f0260448201526064015b60405180910390fd5b7f26875833861a2b006512a11f1b86edf95df96131040f3caeed72989ee985808333346040516100d4929190611ccb565b34801561017157600080fd5b5061017a610304565b6040516101879190611e2d565b60405180910390f35b34801561019c57600080fd5b5061017a61081b565b3480156101b157600080fd5b506101c56101c0366004611ed6565b610d6f565b005b6101c561105e565b3480156101db57600080fd5b506101c56110c3565b6101ec611120565b604051600160a060020a039091168152602001610187565b34801561021057600080fd5b50610219601e81565b604051908152602001610187565b34801561023357600080fd5b50610247610242366004611f9a565b611196565b6040516101879b9a99989796959493929190611fb3565b6101c561026c36600461207c565b611649565b34801561027d57600080fd5b506101c561028c36600461207c565b61172a565b34801561029d57600080fd5b506102b16102ac366004611f9a565b611781565b60405161018791906120ac565b3480156102ca57600080fd5b506102f76040518060400160405280600a815260200160b060020a69312e362e342d626574610281525081565b60405161018791906120bf565b60606004805480602002602001604051908101604052809291908181526020016000905b8282101561081257838290600052602060002090600b0201604051806101600160405290816000820154815260200160018201548152602001600282018054610370906120d2565b80601f016020809104026020016040519081016040528092919081815260200182805461039c906120d2565b80156103e95780601f106103be576101008083540402835291602001916103e9565b820191906000526020600020905b8154815290600101906020018083116103cc57829003601f168201915b50505050508152602001600382018054610402906120d2565b80601f016020809104026020016040519081016040528092919081815260200182805461042e906120d2565b801561047b5780601f106104505761010080835404028352916020019161047b565b820191906000526020600020905b81548152906001019060200180831161045e57829003601f168201915b50505050508152602001600482018054610494906120d2565b80601f01602080910402602001604051908101604052809291908181526020018280546104c0906120d2565b801561050d5780601f106104e25761010080835404028352916020019161050d565b820191906000526020600020905b8154815290600101906020018083116104f057829003601f168201915b50505050508152602001600582018054610526906120d2565b80601f0160208091040260200160405190810160405280929190818152602001828054610552906120d2565b801561059f5780601f106105745761010080835404028352916020019161059f565b820191906000526020600020905b81548152906001019060200180831161058257829003601f168201915b505050505081526020016006820180546105b8906120d2565b80601f01602080910402602001604051908101604052809291908181526020018280546105e4906120d2565b80156106315780601f1061060657610100808354040283529160200191610631565b820191906000526020600020905b81548152906001019060200180831161061457829003601f168201915b5050505050815260200160078201805461064a906120d2565b80601f0160208091040260200160405190810160405280929190818152602001828054610676906120d2565b80156106c35780601f10610698576101008083540402835291602001916106c3565b820191906000526020600020905b8154815290600101906020018083116106a657829003601f168201915b505050505081526020016008820180546106dc906120d2565b80601f0160208091040260200160405190810160405280929190818152602001828054610708906120d2565b80156107555780601f1061072a57610100808354040283529160200191610755565b820191906000526020600020905b81548152906001019060200180831161073857829003601f168201915b5050509183525050600982015460ff1615156020820152600a82018054604090920191610781906120d2565b80601f01602080910402602001604051908101604052809291908181526020018280546107ad906120d2565b80156107fa5780601f106107cf576101008083540402835291602001916107fa565b820191906000526020600020905b8154815290600101906020018083116107dd57829003601f168201915b50505050508152505081526020019060010190610328565b50505050905090565b60608060005b600454811015610d69576004818154811061083e5761083e61210a565b600091825260209091206009600b90920201015460ff1615610d57576004818154811061086d5761086d61210a565b90600052602060002090600b02016040518061016001604052908160008201548152602001600182015481526020016002820180546108ab906120d2565b80601f01602080910402602001604051908101604052809291908181526020018280546108d7906120d2565b80156109245780601f106108f957610100808354040283529160200191610924565b820191906000526020600020905b81548152906001019060200180831161090757829003601f168201915b5050505050815260200160038201805461093d906120d2565b80601f0160208091040260200160405190810160405280929190818152602001828054610969906120d2565b80156109b65780601f1061098b576101008083540402835291602001916109b6565b820191906000526020600020905b81548152906001019060200180831161099957829003601f168201915b505050505081526020016004820180546109cf906120d2565b80601f01602080910402602001604051908101604052809291908181526020018280546109fb906120d2565b8015610a485780601f10610a1d57610100808354040283529160200191610a48565b820191906000526020600020905b815481529060010190602001808311610a2b57829003601f168201915b50505050508152602001600582018054610a61906120d2565b80601f0160208091040260200160405190810160405280929190818152602001828054610a8d906120d2565b8015610ada5780601f10610aaf57610100808354040283529160200191610ada565b820191906000526020600020905b815481529060010190602001808311610abd57829003601f168201915b50505050508152602001600682018054610af3906120d2565b80601f0160208091040260200160405190810160405280929190818152602001828054610b1f906120d2565b8015610b6c5780601f10610b4157610100808354040283529160200191610b6c565b820191906000526020600020905b815481529060010190602001808311610b4f57829003601f168201915b50505050508152602001600782018054610b85906120d2565b80601f0160208091040260200160405190810160405280929190818152602001828054610bb1906120d2565b8015610bfe5780601f10610bd357610100808354040283529160200191610bfe565b820191906000526020600020905b815481529060010190602001808311610be157829003601f168201915b50505050508152602001600882018054610c17906120d2565b80601f0160208091040260200160405190810160405280929190818152602001828054610c43906120d2565b8015610c905780601f10610c6557610100808354040283529160200191610c90565b820191906000526020600020905b815481529060010190602001808311610c7357829003601f168201915b5050509183525050600982015460ff1615156020820152600a82018054604090920191610cbc906120d2565b80601f0160208091040260200160405190810160405280929190818152602001828054610ce8906120d2565b8015610d355780601f10610d0a57610100808354040283529160200191610d35565b820191906000526020600020905b815481529060010190602001808311610d1857829003601f168201915b5050509190925250508351849150610d4b61210a565b60200260200101819052505b80610d618161213e565b915050610821565b50919050565b600054600160a060020a03163314610d9c5760405160e560020a62461bcd02815260040161012b90612157565b60006040518061016001604052808b81526020018a815260200189898080601f016020809104026020016040519081016040528093929190818152602001838380828437600092019190915250505090825250604080516020601f8a0181900481028201810190925288815291810191908990899081908401838280828437600092019190915250505090825250604080516020601f88018190048102820181019092528681529181019190879087908190840183828082843760009201829052509385525050604080516020818101835284825280860191909152815180820183528481528286015281518082018352848152606086015281518082018352848152608086015287151560a08601528151808201835284815260c0909501949094526004805460018101825593528451600b9093027f8a35acfbc15ff81a39ae7d344fd709f28e8600b4aa8c65c6b64bfe7fe36bd19b8101938455938501517f8a35acfbc15ff81a39ae7d344fd709f28e8600b4aa8c65c6b64bfe7fe36bd19c850155840151939450849391927f8a35acfbc15ff81a39ae7d344fd709f28e8600b4aa8c65c6b64bfe7fe36bd19d0191610f589150826121f7565b5060608201516003820190610f6d90826121f7565b5060808201516004820190610f8290826121f7565b5060a08201516005820190610f9790826121f7565b5060c08201516006820190610fac90826121f7565b5060e08201516007820190610fc190826121f7565b506101008201516008820190610fd790826121f7565b5061012082015160098201805460ff1916911515919091179055610140820151600a82019061100690826121f7565b5050507f71cbb45018c6d90f3e21c6e9ed59134c7f55ec3cab2cdc3bb95255d7d9c80313338b8b8b8b8b8b8b8b8b60405161104a9a999897969594939291906122e5565b60405180910390a150505050505050505050565b600054600160a060020a0316331461108b5760405160e560020a62461bcd02815260040161012b906123ae565b60008054604051600160a060020a0390911690600080516020612463833981519152908390a360008054600160a060020a0319169055565b600054600160a060020a031633146110f05760405160e560020a62461bcd02815260040161012b90612157565b60008051602061244383398151915233611108611120565b6040516111169291906123e2565b60405180910390a1565b6000601e60015461113191906123fc565b42116111525760405160e560020a62461bcd02815260040161012b90612415565b601e60015461116191906123fc565b42116111825760405160e560020a62461bcd02815260040161012b90612415565b5042600155600054600160a060020a031690565b600481815481106111a657600080fd5b90600052602060002090600b02016000915090508060000154908060010154908060020180546111d5906120d2565b80601f0160208091040260200160405190810160405280929190818152602001828054611201906120d2565b801561124e5780601f106112235761010080835404028352916020019161124e565b820191906000526020600020905b81548152906001019060200180831161123157829003601f168201915b505050505090806003018054611263906120d2565b80601f016020809104026020016040519081016040528092919081815260200182805461128f906120d2565b80156112dc5780601f106112b1576101008083540402835291602001916112dc565b820191906000526020600020905b8154815290600101906020018083116112bf57829003601f168201915b5050505050908060040180546112f1906120d2565b80601f016020809104026020016040519081016040528092919081815260200182805461131d906120d2565b801561136a5780601f1061133f5761010080835404028352916020019161136a565b820191906000526020600020905b81548152906001019060200180831161134d57829003601f168201915b50505050509080600501805461137f906120d2565b80601f01602080910402602001604051908101604052809291908181526020018280546113ab906120d2565b80156113f85780601f106113cd576101008083540402835291602001916113f8565b820191906000526020600020905b8154815290600101906020018083116113db57829003601f168201915b50505050509080600601805461140d906120d2565b80601f0160208091040260200160405190810160405280929190818152602001828054611439906120d2565b80156114865780601f1061145b57610100808354040283529160200191611486565b820191906000526020600020905b81548152906001019060200180831161146957829003601f168201915b50505050509080600701805461149b906120d2565b80601f01602080910402602001604051908101604052809291908181526020018280546114c7906120d2565b80156115145780601f106114e957610100808354040283529160200191611514565b820191906000526020600020905b8154815290600101906020018083116114f757829003601f168201915b505050505090806008018054611529906120d2565b80601f0160208091040260200160405190810160405280929190818152602001828054611555906120d2565b80156115a25780601f10611577576101008083540402835291602001916115a2565b820191906000526020600020905b81548152906001019060200180831161158557829003601f168201915b5050506009840154600a85018054949560ff9092169491935091506115c6906120d2565b80601f01602080910402602001604051908101604052809291908181526020018280546115f2906120d2565b801561163f5780601f106116145761010080835404028352916020019161163f565b820191906000526020600020905b81548152906001019060200180831161162257829003601f168201915b505050505090508b565b600054600160a060020a031633146116765760405160e560020a62461bcd02815260040161012b906123ae565b600160a060020a0381166116e15760405160e560020a62461bcd02815260206004820152602660248201527f4f776e61626c653a206e6577206f776e657220697320746865207a65726f2061604482015260d060020a6564647265737302606482015260840161012b565b60008054604051600160a060020a038085169392169160008051602061246383398151915291a360008054600160a060020a031916600160a060020a0392909216919091179055565b600054600160a060020a031633146117575760405160e560020a62461bcd02815260040161012b90612157565b60008051602061244383398151915233826040516117769291906123e2565b60405180910390a150565b6117e0604051806101600160405280600081526020016000815260200160608152602001606081526020016060815260200160608152602001606081526020016060815260200160608152602001600015158152602001606081525090565b600482815481106117f3576117f361210a565b90600052602060002090600b0201604051806101600160405290816000820154815260200160018201548152602001600282018054611831906120d2565b80601f016020809104026020016040519081016040528092919081815260200182805461185d906120d2565b80156118aa5780601f1061187f576101008083540402835291602001916118aa565b820191906000526020600020905b81548152906001019060200180831161188d57829003601f168201915b505050505081526020016003820180546118c3906120d2565b80601f01602080910402602001604051908101604052809291908181526020018280546118ef906120d2565b801561193c5780601f106119115761010080835404028352916020019161193c565b820191906000526020600020905b81548152906001019060200180831161191f57829003601f168201915b50505050508152602001600482018054611955906120d2565b80601f0160208091040260200160405190810160405280929190818152602001828054611981906120d2565b80156119ce5780601f106119a3576101008083540402835291602001916119ce565b820191906000526020600020905b8154815290600101906020018083116119b157829003601f168201915b505050505081526020016005820180546119e7906120d2565b80601f0160208091040260200160405190810160405280929190818152602001828054611a13906120d2565b8015611a605780601f10611a3557610100808354040283529160200191611a60565b820191906000526020600020905b815481529060010190602001808311611a4357829003601f168201915b50505050508152602001600682018054611a79906120d2565b80601f0160208091040260200160405190810160405280929190818152602001828054611aa5906120d2565b8015611af25780601f10611ac757610100808354040283529160200191611af2565b820191906000526020600020905b815481529060010190602001808311611ad557829003601f168201915b50505050508152602001600782018054611b0b906120d2565b80601f0160208091040260200160405190810160405280929190818152602001828054611b37906120d2565b8015611b845780601f10611b5957610100808354040283529160200191611b84565b820191906000526020600020905b815481529060010190602001808311611b6757829003601f168201915b50505050508152602001600882018054611b9d906120d2565b80601f0160208091040260200160405190810160405280929190818152602001828054611bc9906120d2565b8015611c165780601f10611beb57610100808354040283529160200191611c16565b820191906000526020600020905b815481529060010190602001808311611bf957829003601f168201915b5050509183525050600982015460ff1615156020820152600a82018054604090920191611c42906120d2565b80601f0160208091040260200160405190810160405280929190818152602001828054611c6e906120d2565b8015611cbb5780601f10611c9057610100808354040283529160200191611cbb565b820191906000526020600020905b815481529060010190602001808311611c9e57829003601f168201915b5050505050815250509050919050565b600160a060020a03929092168252602082015260400190565b6000815180845260005b81811015611d0a57602081850181015186830182015201611cee565b506000602082860101526020601f19601f83011685010191505092915050565b600061016082518452602083015160208501526040830151816040860152611d5482860182611ce4565b91505060608301518482036060860152611d6e8282611ce4565b91505060808301518482036080860152611d888282611ce4565b91505060a083015184820360a0860152611da28282611ce4565b91505060c083015184820360c0860152611dbc8282611ce4565b91505060e083015184820360e0860152611dd68282611ce4565b9150506101008084015185830382870152611df18382611ce4565b9250505061012080840151611e098287018215159052565b50506101408084015185830382870152611e238382611ce4565b9695505050505050565b600060208083018184528085518083526040860191506040848202870101925083870160005b82811015611e8157603f19888603018452611e6f858351611d2a565b94509285019290850190600101611e53565b5092979650505050505050565b60008083601f840112611ea057600080fd5b5081356001604060020a03811115611eb757600080fd5b602083019150836020828501011115611ecf57600080fd5b9250929050565b600080600080600080600080600060c08a8c031215611ef457600080fd5b8935985060208a0135975060408a01356001604060020a0380821115611f1957600080fd5b611f258d838e01611e8e565b909950975060608c0135915080821115611f3e57600080fd5b611f4a8d838e01611e8e565b909750955060808c0135915080821115611f6357600080fd5b50611f708c828d01611e8e565b90945092505060a08a01358015158114611f8957600080fd5b809150509295985092959850929598565b600060208284031215611fac57600080fd5b5035919050565b60006101608d83528c6020840152806040840152611fd38184018d611ce4565b90508281036060840152611fe7818c611ce4565b90508281036080840152611ffb818b611ce4565b905082810360a084015261200f818a611ce4565b905082810360c08401526120238189611ce4565b905082810360e08401526120378188611ce4565b905082810361010084015261204c8187611ce4565b851515610120850152905082810361014084015261206a8185611ce4565b9e9d5050505050505050505050505050565b60006020828403121561208e57600080fd5b8135600160a060020a03811681146120a557600080fd5b9392505050565b6020815260006120a56020830184611d2a565b6020815260006120a56020830184611ce4565b6002810460018216806120e657607f821691505b602082108103610d695760e060020a634e487b710260009081526022600452602490fd5b60e060020a634e487b710260009081526032600452602490fd5b60e060020a634e487b710260009081526011600452602490fd5b60006001820161215057612150612124565b5060010190565b6020808252601b908201527f756e617574686f72697a65642c206e6f7420746865206f776e65720000000000604082015260600190565b60e060020a634e487b710260009081526041600452602490fd5b601f8211156121f2576000818152602081206020601f860104810160208610156121cf5750805b6020601f860104820191505b818110156121ee578281556001016121db565b5050505b505050565b81516001604060020a038111156122105761221061218e565b6122248161221e84546120d2565b846121a8565b602080601f83116001811461225d57600084156122415750858301515b60028086026008870290910a60001904198216178655506121ee565b600085815260208120601f198616915b8281101561228c5788860151825594840194600190910190840161226d565b50858210156122ac57878501516008601f88160260020a60001904191681555b5050505050600202600101905550565b81835281816020850137506000828201602090810191909152601f909101601f19169091010190565b600160a060020a038b16815260006101808b60208401528a60408401528060608401526123158184018a8c6122bc565b9050828103608084015261232a81888a6122bc565b905082810360a084015261233f8186886122bc565b83810360c085018190526000808352602080830160e088015283018190526040808301610100880152830181905260608083016101208801528301819052951515610140860152608090810161016090950194909452928301939093525060a0019a9950505050505050505050565b6020808252601790820152604960020a7630b1b1b2b9b9903232b734b2b2103337b91037bbb732b902604082015260600190565b600160a060020a0392831681529116602082015260400190565b8082018082111561240f5761240f612124565b92915050565b6020808252601090820152608160020a6f3930ba32903634b6b4ba1032b93937b90260408201526060019056fe91ca00fdf29069527d658f8dfc6d1c0bf9861780bb45ff36436f938d3595a8d68be0079c531659141344cd1fd0a4f28419497f9722a3daafe3b4186f6b6457e0a264697066735822122049602816277971e84405ca5c187cf1dd8126f21c1b9bc2f8d05d8e1b927024ca64736f6c63430008120033",
  "immutableReferences": {},
  "source": "// SPDX-License-Identifier: CC-BY-4.0\npragma solidity >=0.4.22 <0.9.0;\n\nimport \"../BusStops.sol\";\n\ncontract MunicipalBusStops is BusStops {\n    \n}",
  "sourcePath": "/Volumes/My Book/projects/pingleware-contracts/contracts/government/municipal/MunicipalBusStops.sol",
  "compiler": {
    "name": "solc",
    "version": "0.8.18+commit.87f61d96.Emscripten.clang"
  },
  "schemaVersion": "3.4.12",
  "updatedAt": "2023-10-23T17:00:00.795Z",
  "networkType": "ethereum",
  "devdoc": {
    "kind": "dev",
    "methods": {
      "renounceOwnership()": {
        "details": "Leaves the contract without owner. It will not be possible to call `onlyOwner` functions anymore. Can only be called by the current owner. NOTE: Renouncing ownership will leave the contract without an owner, thereby removing any functionality that is only available to the owner."
      },
      "transferOwnership(address)": {
        "details": "Transfers ownership of the contract to a new account (`newOwner`). Can only be called by the current owner."
      }
    },
    "version": 1
  },
  "userdoc": {
    "kind": "user",
    "methods": {},
    "version": 1
  }
}