{
  "contractName": "NewsFeed",
  "abi": [
    {
      "inputs": [],
      "stateMutability": "nonpayable",
      "type": "constructor"
    },
    {
      "anonymous": false,
      "inputs": [
        {
          "indexed": false,
          "internalType": "address",
          "name": "sender",
          "type": "address"
        },
        {
          "indexed": false,
          "internalType": "address",
          "name": "recipient",
          "type": "address"
        }
      ],
      "name": "Destroyed",
      "type": "event"
    },
    {
      "anonymous": false,
      "inputs": [
        {
          "indexed": false,
          "internalType": "address",
          "name": "sender",
          "type": "address"
        },
        {
          "indexed": false,
          "internalType": "uint256",
          "name": "amount",
          "type": "uint256"
        }
      ],
      "name": "FallbackEvent",
      "type": "event"
    },
    {
      "anonymous": false,
      "inputs": [
        {
          "indexed": true,
          "internalType": "address",
          "name": "previousOwner",
          "type": "address"
        },
        {
          "indexed": true,
          "internalType": "address",
          "name": "newOwner",
          "type": "address"
        }
      ],
      "name": "OwnershipTransferred",
      "type": "event"
    },
    {
      "anonymous": false,
      "inputs": [
        {
          "indexed": false,
          "internalType": "address",
          "name": "sender",
          "type": "address"
        },
        {
          "indexed": false,
          "internalType": "uint256",
          "name": "amount",
          "type": "uint256"
        }
      ],
      "name": "ReceiveEvent",
      "type": "event"
    },
    {
      "anonymous": false,
      "inputs": [
        {
          "indexed": false,
          "internalType": "address",
          "name": "sender",
          "type": "address"
        },
        {
          "indexed": false,
          "internalType": "bytes",
          "name": "reason",
          "type": "bytes"
        }
      ],
      "name": "Started",
      "type": "event"
    },
    {
      "anonymous": false,
      "inputs": [
        {
          "indexed": false,
          "internalType": "address",
          "name": "sender",
          "type": "address"
        },
        {
          "indexed": false,
          "internalType": "bytes",
          "name": "reason",
          "type": "bytes"
        }
      ],
      "name": "Stopped",
      "type": "event"
    },
    {
      "anonymous": false,
      "inputs": [
        {
          "indexed": false,
          "internalType": "address",
          "name": "sender",
          "type": "address"
        },
        {
          "indexed": false,
          "internalType": "string",
          "name": "reason",
          "type": "string"
        }
      ],
      "name": "Termination",
      "type": "event"
    },
    {
      "stateMutability": "payable",
      "type": "fallback",
      "payable": true
    },
    {
      "inputs": [],
      "name": "VERSION",
      "outputs": [
        {
          "internalType": "string",
          "name": "",
          "type": "string"
        }
      ],
      "stateMutability": "view",
      "type": "function",
      "constant": true
    },
    {
      "inputs": [],
      "name": "WAIT",
      "outputs": [
        {
          "internalType": "uint256",
          "name": "",
          "type": "uint256"
        }
      ],
      "stateMutability": "view",
      "type": "function",
      "constant": true
    },
    {
      "inputs": [
        {
          "internalType": "uint256",
          "name": "",
          "type": "uint256"
        }
      ],
      "name": "categories",
      "outputs": [
        {
          "internalType": "enum NewsFeed.Category",
          "name": "category",
          "type": "uint8"
        },
        {
          "internalType": "string",
          "name": "name",
          "type": "string"
        }
      ],
      "stateMutability": "view",
      "type": "function",
      "constant": true
    },
    {
      "inputs": [],
      "name": "destroy",
      "outputs": [],
      "stateMutability": "nonpayable",
      "type": "function"
    },
    {
      "inputs": [
        {
          "internalType": "address",
          "name": "_recipient",
          "type": "address"
        }
      ],
      "name": "destroyAndSend",
      "outputs": [],
      "stateMutability": "nonpayable",
      "type": "function"
    },
    {
      "inputs": [],
      "name": "getOwner",
      "outputs": [
        {
          "internalType": "address",
          "name": "",
          "type": "address"
        }
      ],
      "stateMutability": "payable",
      "type": "function",
      "payable": true
    },
    {
      "inputs": [],
      "name": "name",
      "outputs": [
        {
          "internalType": "string",
          "name": "",
          "type": "string"
        }
      ],
      "stateMutability": "view",
      "type": "function",
      "constant": true
    },
    {
      "inputs": [],
      "name": "renounceOwnership",
      "outputs": [],
      "stateMutability": "payable",
      "type": "function",
      "payable": true
    },
    {
      "inputs": [],
      "name": "symbol",
      "outputs": [
        {
          "internalType": "string",
          "name": "",
          "type": "string"
        }
      ],
      "stateMutability": "view",
      "type": "function",
      "constant": true
    },
    {
      "inputs": [],
      "name": "totalSupply",
      "outputs": [
        {
          "internalType": "uint256",
          "name": "",
          "type": "uint256"
        }
      ],
      "stateMutability": "view",
      "type": "function",
      "constant": true
    },
    {
      "inputs": [
        {
          "internalType": "address",
          "name": "newOwner",
          "type": "address"
        }
      ],
      "name": "transferOwnership",
      "outputs": [],
      "stateMutability": "payable",
      "type": "function",
      "payable": true
    },
    {
      "stateMutability": "payable",
      "type": "receive",
      "payable": true
    },
    {
      "inputs": [
        {
          "internalType": "address",
          "name": "publisher",
          "type": "address"
        }
      ],
      "name": "addPublisher",
      "outputs": [],
      "stateMutability": "nonpayable",
      "type": "function"
    },
    {
      "inputs": [
        {
          "internalType": "address",
          "name": "publisher",
          "type": "address"
        }
      ],
      "name": "disablePublisher",
      "outputs": [],
      "stateMutability": "nonpayable",
      "type": "function"
    },
    {
      "inputs": [
        {
          "internalType": "address",
          "name": "_reporter",
          "type": "address"
        },
        {
          "internalType": "enum NewsFeed.Category",
          "name": "_category",
          "type": "uint8"
        },
        {
          "internalType": "string",
          "name": "_title",
          "type": "string"
        },
        {
          "internalType": "uint256",
          "name": "_epoch",
          "type": "uint256"
        },
        {
          "internalType": "string",
          "name": "_topic1",
          "type": "string"
        },
        {
          "internalType": "string",
          "name": "_topic2",
          "type": "string"
        },
        {
          "internalType": "string",
          "name": "_topic3",
          "type": "string"
        }
      ],
      "name": "addStory",
      "outputs": [],
      "stateMutability": "payable",
      "type": "function",
      "payable": true
    },
    {
      "inputs": [
        {
          "internalType": "address",
          "name": "_reporter",
          "type": "address"
        },
        {
          "internalType": "uint256",
          "name": "_epoch",
          "type": "uint256"
        }
      ],
      "name": "getStories",
      "outputs": [
        {
          "components": [
            {
              "internalType": "address",
              "name": "publisher",
              "type": "address"
            },
            {
              "internalType": "enum NewsFeed.Category",
              "name": "category",
              "type": "uint8"
            },
            {
              "internalType": "string",
              "name": "title",
              "type": "string"
            },
            {
              "internalType": "uint256",
              "name": "epoch",
              "type": "uint256"
            },
            {
              "internalType": "string",
              "name": "topic_sentence_1",
              "type": "string"
            },
            {
              "internalType": "string",
              "name": "topic_sentence_2",
              "type": "string"
            },
            {
              "internalType": "string",
              "name": "topic_sentence_3",
              "type": "string"
            }
          ],
          "internalType": "struct NewsFeed.StoryNews[]",
          "name": "",
          "type": "tuple[]"
        }
      ],
      "stateMutability": "payable",
      "type": "function",
      "payable": true
    },
    {
      "inputs": [],
      "name": "getStoryTimes",
      "outputs": [
        {
          "internalType": "uint256[]",
          "name": "",
          "type": "uint256[]"
        }
      ],
      "stateMutability": "view",
      "type": "function",
      "constant": true
    },
    {
      "inputs": [],
      "name": "cashOut",
      "outputs": [],
      "stateMutability": "nonpayable",
      "type": "function"
    }
  ],
  "bytecode": "0x6080604052600060018190556003805460ff191690556004553480156200002557600080fd5b5060008054600160a060020a031916339081178255426001556040519091907f8be0079c531659141344cd1fd0a4f28419497f9722a3daafe3b4186f6b6457e0908290a33360009081526009602090815260408083208054600160ff199182168117909255825180840184528581528351808501909452600d84527f427265616b696e67204e65777300000000000000000000000000000000000000848601529384019290925260088054808301825594528251600290940260008051602062002525833981519152018054939490939092849291169083600f81111562000111576200011162000bb6565b0217905550602082015160018201906200012c908262000cbc565b505060408051808201825260018082528251808401909352601783527f436f6c6c65676573202620556e697665727369746965730000000000000000006020808501919091528201929092526008805480840182556000919091528151600290910260008051602062002525833981519152018054929450929091839160ff199091169083600f811115620001c557620001c562000bb6565b021790555060208201516001820190620001e0908262000cbc565b505060408051808201825260028082528251808401909352600e83527f43757272656e74204576656e7473000000000000000000000000000000000000602080850191909152820192909252600880546001808201835560009290925282519302600080516020620025258339815191520180549294509291839160ff199091169083600f81111562000277576200027762000bb6565b02179055506020820151600182019062000292908262000cbc565b5050604080518082018252600381528151808301909252600d82527f456e7669726f6e6d656e74616c0000000000000000000000000000000000000060208084019190915281019190915260088054600180820183556000929092528251600290910260008051602062002525833981519152018054939450929091839160ff19169083600f8111156200032a576200032a62000bb6565b02179055506020820151600182019062000345908262000cbc565b5050604080518082018252600481528151808301909252600a82527f476f7665726e6d656e740000000000000000000000000000000000000000000060208084019190915281019190915260088054600180820183556000929092528251600290910260008051602062002525833981519152018054939450929091839160ff19169083600f811115620003dd57620003dd62000bb6565b021790555060208201516001820190620003f8908262000cbc565b5050604080518082018252600581528151808301909252600982527f4d6167617a696e6573000000000000000000000000000000000000000000000060208084019190915281019190915260088054600180820183556000929092528251600290910260008051602062002525833981519152018054939450929091839160ff19169083600f81111562000490576200049062000bb6565b021790555060208201516001820190620004ab908262000cbc565b5050604080518082018252600681528151808301909252600582527f4d6564696100000000000000000000000000000000000000000000000000000060208084019190915281019190915260088054600180820183556000929092528251600290910260008051602062002525833981519152018054939450929091839160ff19169083600f81111562000543576200054362000bb6565b0217905550602082015160018201906200055e908262000cbc565b5050604080518082018252600781528151808301909252600a82527f4e6577737061706572730000000000000000000000000000000000000000000060208084019190915281019190915260088054600180820183556000929092528251600290910260008051602062002525833981519152018054939450929091839160ff19169083600f811115620005f657620005f662000bb6565b02179055506020820151600182019062000611908262000cbc565b5050604080518082018252600880825282518084019093528083527f506f6c69746963730000000000000000000000000000000000000000000000006020808501919091528201929092528154600180820184556000939093528151600290910260008051602062002525833981519152018054929450929091839160ff199091169083600f811115620006a957620006a962000bb6565b021790555060208201516001820190620006c4908262000cbc565b5050604080518082018252600981528151808301909252600d82527f526567696f6e616c204e6577730000000000000000000000000000000000000060208084019190915281019190915260088054600180820183556000929092528251600290910260008051602062002525833981519152018054939450929091839160ff19169083600f8111156200075c576200075c62000bb6565b02179055506020820151600182019062000777908262000cbc565b5050604080518082018252600a81528151808301909252601782527f52656c6967696f6e20262053706972697475616c69747900000000000000000060208084019190915281019190915260088054600180820183556000929092528251600290910260008051602062002525833981519152018054939450929091839160ff19169083600f8111156200080f576200080f62000bb6565b0217905550602082015160018201906200082a908262000cbc565b5050604080518082018252600b81528151808301909252600682527f53706f727473000000000000000000000000000000000000000000000000000060208084019190915281019190915260088054600180820183556000929092528251600290910260008051602062002525833981519152018054939450929091839160ff19169083600f811115620008c257620008c262000bb6565b021790555060208201516001820190620008dd908262000cbc565b5050604080518082018252600c81528151808301909252600a82527f546563686e6f6c6f67790000000000000000000000000000000000000000000060208084019190915281019190915260088054600180820183556000929092528251600290910260008051602062002525833981519152018054939450929091839160ff19169083600f81111562000975576200097562000bb6565b02179055506020820151600182019062000990908262000cbc565b5050604080518082018252600d81528151808301909252600f8083527f54726166666963202620526f616473000000000000000000000000000000000060208085019190915282019290925260088054600180820183556000929092528251600290910260008051602062002525833981519152018054939550939092849260ff1990911691849081111562000a2a5762000a2a62000bb6565b02179055506020820151600182019062000a45908262000cbc565b5050604080518082018252600e81528151808301909252600782527f576561746865720000000000000000000000000000000000000000000000000060208084019190915281019190915260088054600180820183556000929092528251600290910260008051602062002525833981519152018054939450929091839160ff19169083600f81111562000add5762000add62000bb6565b02179055506020820151600182019062000af8908262000cbc565b5050604080518082018252600f8082528251808401909352600983527f57656220426c6f6773000000000000000000000000000000000000000000000060208085019190915282019290925260088054600180820183556000929092528251600290910260008051602062002525833981519152018054939550939092849260ff1990911691849081111562000b925762000b9262000bb6565b02179055506020820151600182019062000bad908262000cbc565b50505062000d8f565b7f4e487b7100000000000000000000000000000000000000000000000000000000600052602160045260246000fd5b7f4e487b7100000000000000000000000000000000000000000000000000000000600052604160045260246000fd5b60028104600182168062000c2957607f821691505b60208210810362000c63577f4e487b7100000000000000000000000000000000000000000000000000000000600052602260045260246000fd5b50919050565b601f82111562000cb7576000818152602081206020601f8601048101602086101562000c925750805b6020601f860104820191505b8181101562000cb35782815560010162000c9e565b5050505b505050565b815167ffffffffffffffff81111562000cd95762000cd962000be5565b62000cf18162000cea845462000c14565b8462000c69565b602080601f83116001811462000d2d576000841562000d105750858301515b60028086026008870290910a600019041982161786555062000cb3565b600085815260208120601f198616915b8281101562000d5e5788860151825594840194600190910190840162000d3d565b508582101562000d7f57878501516008601f88160260020a60001904191681555b5050505050600202600101905550565b6117868062000d9f6000396000f3fe6080604052600436106100d55760e060020a600035046306fdde03811461019c5780630f2d74f1146101ef57806318160ddd14610204578063603c43941461022857806370f13b9714610248578063715018a61461026a578063763f323d14610272578063793cd71e1461029257806383197ef0146102a7578063893d20e8146102bc57806395d89b41146102dc578063b8fb3a5114610315578063c6cdbe5e1461032a578063f2fde38b14610358578063f5074f411461036b578063f647d03a1461038b578063ffa1ad74146103ab57610115565b36610115577fcc85d09d309785db93d6df19917f2e6cc07fe27cd01c08c8279145deb5cf4526333460405161010b92919061107b565b60405180910390a1005b32331461016b5760405160e560020a62461bcd0281526020600482015260196024820152603860020a787068697368696e672061747461636b2064657465637465643f0260448201526064015b60405180910390fd5b7f26875833861a2b006512a11f1b86edf95df96131040f3caeed72989ee9858083333460405161010b92919061107b565b3480156101a857600080fd5b506101d96040518060400160405280600e8152602001609060020a6d5072657373506167652e4e4557530281525081565b6040516101e691906110da565b60405180910390f35b6102026101fd3660046111c5565b6103e4565b005b34801561021057600080fd5b5061021a60045481565b6040519081526020016101e6565b34801561023457600080fd5b5061020261024336600461129c565b6106b5565b34801561025457600080fd5b5061025d610764565b6040516101e691906112b7565b6102026107bc565b34801561027e57600080fd5b5061020261028d36600461129c565b610821565b34801561029e57600080fd5b506102026108d6565b3480156102b357600080fd5b50610202610984565b6102c46109e1565b604051600160a060020a0390911681526020016101e6565b3480156102e857600080fd5b506101d96040518060400160405280600a815260200160b060020a6950524553532e4e4557530281525081565b34801561032157600080fd5b5061021a601e81565b34801561033657600080fd5b5061034a6103453660046112fb565b610a57565b6040516101e6929190611354565b61020261036636600461129c565b610b13565b34801561037757600080fd5b5061020261038636600461129c565b610bf4565b61039e61039936600461137c565b610c4b565b6040516101e691906113a6565b3480156103b757600080fd5b506101d96040518060400160405280600a815260200160b060020a69312e362e342d626574610281525081565b3360009081526009602052604090205460ff1661043a5760405160e560020a62461bcd02815260206004820152600e6024820152609260020a6d1b9bdd08185d5d1a1bdc9a5e9959026044820152606401610162565b600084815260066020526040902054600160a060020a0316156104bd5760405160e560020a62461bcd02815260206004820152602f60248201527f6e65772073746f7269657320616c7265616479207075626c697368656420696e6044820152608a60020a6e081d1a185d081d1a5b59481cdb1bdd026064820152608401610162565b34652d79883d2000146104e55760405160e560020a62461bcd02815260040161016290611493565b60405130903480156108fc02916000818181858888f19350505050158015610511573d6000803e3d6000fd5b5060006040518060e0016040528033600160a060020a0316815260200188600f81111561054057610540611314565b815260208082018990526040808301899052606083018890526080830187905260a0909201859052600160a060020a038b81166000908152600583528381208a8252835292832080546001810182559084529282902084516006909402018054600160a060020a0319811694909216938417815591840151939450849391928391600160a860020a0319161760a060020a83600f8111156105e3576105e3611314565b0217905550604082015160018201906105fc9082611553565b50606082015160028201556080820151600382019061061b9082611553565b5060a082015160048201906106309082611553565b5060c082015160058201906106459082611553565b50505060008581526006602052604081208054600160a060020a03191633179055600780546001810182559082527fa66cc928b5edb82af9bd49922954155ab7b0942694bea4ce44661d9a8736c6880186905560048054916106a683611632565b91905055505050505050505050565b600054600160a060020a031633146106e25760405160e560020a62461bcd0281526004016101629061164b565b600160a060020a03811660009081526009602052604090205460ff166107435760405160e560020a62461bcd0281526020600482015260106024820152608260020a6f185b1c9958591e48191a5cd8589b1959026044820152606401610162565b600160a060020a03166000908152600960205260409020805460ff19169055565b606060078054806020026020016040519081016040528092919081815260200182805480156107b257602002820191906000526020600020905b81548152602001906001019080831161079e575b5050505050905090565b600054600160a060020a031633146107e95760405160e560020a62461bcd02815260040161016290611682565b60008054604051600160a060020a0390911690600080516020611731833981519152908390a360008054600160a060020a0319169055565b600054600160a060020a0316331461084e5760405160e560020a62461bcd0281526004016101629061164b565b600160a060020a03811660009081526009602052604090205460ff16156108b25760405160e560020a62461bcd0281526020600482015260126024820152607260020a71185b1c9958591e481c9959da5cdd195c9959026044820152606401610162565b600160a060020a03166000908152600960205260409020805460ff19166001179055565b600054600160a060020a031633146109035760405160e560020a62461bcd0281526004016101629061164b565b30316109545760405160e560020a62461bcd02815260206004820152601e60248201527f6e6f7420656e6f7567682062616c616e636520746f2063617368206f757400006044820152606401610162565b6040513390303180156108fc02916000818181858888f19350505050158015610981573d6000803e3d6000fd5b50565b600054600160a060020a031633146109b15760405160e560020a62461bcd0281526004016101629061164b565b600080516020611711833981519152336109c96109e1565b6040516109d79291906116b6565b60405180910390a1565b6000601e6001546109f291906116d0565b4211610a135760405160e560020a62461bcd028152600401610162906116e3565b601e600154610a2291906116d0565b4211610a435760405160e560020a62461bcd028152600401610162906116e3565b5042600155600054600160a060020a031690565b60088181548110610a6757600080fd5b60009182526020909120600290910201805460018201805460ff909216935090610a90906114c6565b80601f0160208091040260200160405190810160405280929190818152602001828054610abc906114c6565b8015610b095780601f10610ade57610100808354040283529160200191610b09565b820191906000526020600020905b815481529060010190602001808311610aec57829003601f168201915b5050505050905082565b600054600160a060020a03163314610b405760405160e560020a62461bcd02815260040161016290611682565b600160a060020a038116610bab5760405160e560020a62461bcd02815260206004820152602660248201527f4f776e61626c653a206e6577206f776e657220697320746865207a65726f2061604482015260d060020a65646472657373026064820152608401610162565b60008054604051600160a060020a038085169392169160008051602061173183398151915291a360008054600160a060020a031916600160a060020a0392909216919091179055565b600054600160a060020a03163314610c215760405160e560020a62461bcd0281526004016101629061164b565b6000805160206117118339815191523382604051610c409291906116b6565b60405180910390a150565b600081815260066020526040902054606090600160a060020a0316610ccc5760405160e560020a62461bcd02815260206004820152602b60248201527f6e6f206e65772073746f72696573207075626c697368656420666f7220746861604482015260aa60020a6a1d081d1a5b59481cdb1bdd026064820152608401610162565b34655af3107a400014610cf45760405160e560020a62461bcd02815260040161016290611493565b60405130903480156108fc02916000818181858888f19350505050158015610d20573d6000803e3d6000fd5b50600082815260066020526040808220549051600160a060020a039091169190652d79883d20009082818181858883f19350505050158015610d66573d6000803e3d6000fd5b50600160a060020a0383166000908152600560209081526040808320858452825280832080548251818502810185019093528083529193909284015b8282101561106e5760008481526020908190206040805160e08101909152600685029091018054600160a060020a0381168352919290919083019060a060020a900460ff16600f811115610df857610df8611314565b600f811115610e0957610e09611314565b8152602001600182018054610e1d906114c6565b80601f0160208091040260200160405190810160405280929190818152602001828054610e49906114c6565b8015610e965780601f10610e6b57610100808354040283529160200191610e96565b820191906000526020600020905b815481529060010190602001808311610e7957829003601f168201915b5050505050815260200160028201548152602001600382018054610eb9906114c6565b80601f0160208091040260200160405190810160405280929190818152602001828054610ee5906114c6565b8015610f325780601f10610f0757610100808354040283529160200191610f32565b820191906000526020600020905b815481529060010190602001808311610f1557829003601f168201915b50505050508152602001600482018054610f4b906114c6565b80601f0160208091040260200160405190810160405280929190818152602001828054610f77906114c6565b8015610fc45780601f10610f9957610100808354040283529160200191610fc4565b820191906000526020600020905b815481529060010190602001808311610fa757829003601f168201915b50505050508152602001600582018054610fdd906114c6565b80601f0160208091040260200160405190810160405280929190818152602001828054611009906114c6565b80156110565780601f1061102b57610100808354040283529160200191611056565b820191906000526020600020905b81548152906001019060200180831161103957829003601f168201915b50505050508152505081526020019060010190610da2565b5050505090505b92915050565b600160a060020a03929092168252602082015260400190565b6000815180845260005b818110156110ba5760208185018101518683018201520161109e565b506000602082860101526020601f19601f83011685010191505092915050565b6020815260006110ed6020830184611094565b9392505050565b8035600160a060020a038116811461110b57600080fd5b919050565b80356010811061110b57600080fd5b60e060020a634e487b710260009081526041600452602490fd5b600082601f83011261114a57600080fd5b81356001604060020a03808211156111645761116461111f565b604051601f8301601f19908116603f0116810190828211818310171561118c5761118c61111f565b816040528381528660208588010111156111a557600080fd5b836020870160208301376000602085830101528094505050505092915050565b600080600080600080600060e0888a0312156111e057600080fd5b6111e9886110f4565b96506111f760208901611110565b955060408801356001604060020a038082111561121357600080fd5b61121f8b838c01611139565b965060608a0135955060808a013591508082111561123c57600080fd5b6112488b838c01611139565b945060a08a013591508082111561125e57600080fd5b61126a8b838c01611139565b935060c08a013591508082111561128057600080fd5b5061128d8a828b01611139565b91505092959891949750929550565b6000602082840312156112ae57600080fd5b6110ed826110f4565b6020808252825182820181905260009190848201906040850190845b818110156112ef578351835292840192918401916001016112d3565b50909695505050505050565b60006020828403121561130d57600080fd5b5035919050565b60e060020a634e487b710260009081526021600452602490fd5b601081106113505760e060020a634e487b710260009081526021600452602490fd5b9052565b61135e818461132e565b6040602082015260006113746040830184611094565b949350505050565b6000806040838503121561138f57600080fd5b611398836110f4565b946020939093013593505050565b60208082528251828201819052600091906040908185019080840286018301878501865b8381101561148557888303603f1901855281518051600160a060020a031684528781015160e0906113fd8a87018261132e565b5087820151818987015261141382870182611094565b9150506060808301518187015250608080830151868303828801526114388382611094565b9250505060a080830151868303828801526114538382611094565b9250505060c080830151925085820381870152506114718183611094565b9689019694505050908601906001016113ca565b509098975050505050505050565b6020808252601690820152605260020a751b9bdd08195b9bdd59da08199bdc881c185e5b595b9d02604082015260600190565b6002810460018216806114da57607f821691505b6020821081036114fe5760e060020a634e487b710260009081526022600452602490fd5b50919050565b601f82111561154e576000818152602081206020601f8601048101602086101561152b5750805b6020601f860104820191505b8181101561154a57828155600101611537565b5050505b505050565b81516001604060020a0381111561156c5761156c61111f565b6115808161157a84546114c6565b84611504565b602080601f8311600181146115b9576000841561159d5750858301515b60028086026008870290910a600019041982161786555061154a565b600085815260208120601f198616915b828110156115e8578886015182559484019460019091019084016115c9565b508582101561160857878501516008601f88160260020a60001904191681555b5050505050600202600101905550565b60e060020a634e487b710260009081526011600452602490fd5b60006001820161164457611644611618565b5060010190565b6020808252601b908201527f756e617574686f72697a65642c206e6f7420746865206f776e65720000000000604082015260600190565b6020808252601790820152604960020a7630b1b1b2b9b9903232b734b2b2103337b91037bbb732b902604082015260600190565b600160a060020a0392831681529116602082015260400190565b8082018082111561107557611075611618565b6020808252601090820152608160020a6f3930ba32903634b6b4ba1032b93937b90260408201526060019056fe91ca00fdf29069527d658f8dfc6d1c0bf9861780bb45ff36436f938d3595a8d68be0079c531659141344cd1fd0a4f28419497f9722a3daafe3b4186f6b6457e0a2646970667358221220727656a0c9647077cb11cd2927996179f762dd55212507577b7cb67905ca19b064736f6c63430008120033f3f7a9fe364faab93b216da50a3214154f22a0a2b415b23a84c8169e8b636ee3",
  "immutableReferences": {},
  "source": "// SPDX-License-Identifier: CC-BY-4.0\r\npragma solidity >=0.4.22 <0.9.0;\r\n\r\nimport \"../common/Version.sol\";\r\nimport \"../common/Frozen.sol\";\r\n\r\ncontract NewsFeed is Version, Frozen {\r\n    string public constant name = string(\"PressPage.NEWS\");\r\n    string public constant symbol = string(\"PRESS.NEWS\");\r\n    uint256 public totalSupply = 0;\r\n\r\n    enum Category {\r\n        Breaking_News,\r\n        Colleges_and_Universities,\r\n        Current_Events,\r\n        Environmental,\r\n        Government,\r\n        Magazines,\r\n        Media,\r\n        Newspapers,\r\n        Politics,\r\n        Regional_News,\r\n        Religion_and_Spirituality,\r\n        Sports,\r\n        Technology,\r\n        Traffic_Roads,\r\n        Weather,\r\n        Weblogs\r\n    }\r\n\r\n    struct CategoryList {\r\n        Category category;\r\n        string   name;\r\n    }\r\n\r\n    struct StoryNews {\r\n        address  publisher;\r\n        Category category;\r\n        string   title;\r\n        uint256  epoch;\r\n        string   topic_sentence_1;\r\n        string   topic_sentence_2;\r\n        string   topic_sentence_3;\r\n    }\r\n\r\n    mapping(address => mapping (uint256 => StoryNews[])) private newslist;\r\n    mapping (uint256 => address) private storytimes;\r\n    uint256[] private _storytimes;\r\n\r\n    CategoryList[] public categories;\r\n\r\n    mapping(address => bool) private whitelisted;\r\n\r\n    constructor() {\r\n        whitelisted[msg.sender] = true;\r\n\r\n        categories.push(CategoryList({\r\n            category: Category.Breaking_News,\r\n            name: \"Breaking News\"\r\n        }));\r\n        categories.push(CategoryList({\r\n            category: Category.Colleges_and_Universities,\r\n            name: \"Colleges & Universities\"\r\n        }));\r\n        categories.push(CategoryList({\r\n            category: Category.Current_Events,\r\n            name: \"Current Events\"\r\n        }));\r\n        categories.push(CategoryList({\r\n            category: Category.Environmental,\r\n            name: \"Environmental\"\r\n        }));\r\n        categories.push(CategoryList({\r\n            category: Category.Government,\r\n            name: \"Government\"\r\n        }));\r\n        categories.push(CategoryList({\r\n            category: Category.Magazines,\r\n            name: \"Magazines\"\r\n        }));\r\n        categories.push(CategoryList({\r\n            category: Category.Media,\r\n            name: \"Media\"\r\n        }));\r\n        categories.push(CategoryList({\r\n            category: Category.Newspapers,\r\n            name: \"Newspapers\"\r\n        }));\r\n        categories.push(CategoryList({\r\n            category: Category.Politics,\r\n            name: \"Politics\"\r\n        }));\r\n        categories.push(CategoryList({\r\n            category: Category.Regional_News,\r\n            name: \"Regional News\"\r\n        }));\r\n        categories.push(CategoryList({\r\n            category: Category.Religion_and_Spirituality,\r\n            name: \"Religion & Spirituality\"\r\n        }));\r\n        categories.push(CategoryList({\r\n            category: Category.Sports,\r\n            name: \"Sports\"\r\n        }));\r\n        categories.push(CategoryList({\r\n            category: Category.Technology,\r\n            name: \"Technology\"\r\n        }));\r\n        categories.push(CategoryList({\r\n            category: Category.Traffic_Roads,\r\n            name: \"Traffic & Roads\"\r\n        }));\r\n        categories.push(CategoryList({\r\n            category: Category.Weather,\r\n            name: \"Weather\"\r\n        }));\r\n        categories.push(CategoryList({\r\n            category: Category.Weblogs,\r\n            name: \"Web Blogs\"\r\n        }));\r\n    }\r\n\r\n    modifier isWhitelisted() {\r\n        require(whitelisted[msg.sender],\"not authorized\");\r\n        _;\r\n    }\r\n\r\n    function addPublisher(address publisher)\r\n        public\r\n        okOwner\r\n    {\r\n        require(whitelisted[publisher] == false,\"already registered\");\r\n        whitelisted[publisher] = true;\r\n    }\r\n\r\n    function disablePublisher(address publisher)\r\n        public\r\n        okOwner\r\n    {\r\n        require(whitelisted[publisher],\"already disabled\");\r\n        whitelisted[publisher] = false;\r\n    }\r\n\r\n    function addStory(address _reporter,\r\n                      Category _category,\r\n                      string memory _title,\r\n                      uint256 _epoch,\r\n                      string memory _topic1,\r\n                      string memory _topic2,\r\n                      string memory _topic3)\r\n        public\r\n        payable\r\n        isWhitelisted\r\n    {\r\n        require(storytimes[_epoch] == address(0),\"new stories already published in that time slot\");\r\n        require(msg.value == 0.00005 ether,\"not enough for payment\");\r\n        payable(address(this)).transfer(msg.value);\r\n\r\n        StoryNews memory news = StoryNews(msg.sender,_category,_title,_epoch,_topic1,_topic2,_topic3);\r\n        newslist[_reporter][_epoch].push(news);\r\n        storytimes[_epoch] = msg.sender;\r\n        _storytimes.push(_epoch);\r\n        totalSupply++;\r\n    }\r\n\r\n    function getStories(address _reporter,uint256 _epoch)\r\n        public\r\n        payable\r\n        returns (StoryNews[] memory)\r\n    {\r\n        require(storytimes[_epoch] != address(0),\"no new stories published for that time slot\");\r\n        require(msg.value == 0.0001 ether,\"not enough for payment\");\r\n        payable(address(this)).transfer(msg.value);\r\n        payable(storytimes[_epoch]).transfer(0.00005 ether); // transfer half of the polling fee to the publisher\r\n        return newslist[_reporter][_epoch];\r\n    }\r\n\r\n    function getStoryTimes()\r\n        public\r\n        view\r\n        returns (uint256[] memory)\r\n    {\r\n        return _storytimes;\r\n    }\r\n\r\n    function cashOut()\r\n        public\r\n        okOwner\r\n    {\r\n        require(address(this).balance > 0, \"not enough balance to cash out\");\r\n        payable(msg.sender).transfer(address(this).balance);\r\n    }\r\n}",
  "sourcePath": "/Volumes/My Book/projects/pingleware-contracts/contracts/news/NewsFeed.sol",
  "compiler": {
    "name": "solc",
    "version": "0.8.18+commit.87f61d96.Emscripten.clang"
  },
  "schemaVersion": "3.4.12",
  "updatedAt": "2023-10-23T18:12:10.606Z",
  "networkType": "ethereum",
  "devdoc": {
    "kind": "dev",
    "methods": {
      "renounceOwnership()": {
        "details": "Leaves the contract without owner. It will not be possible to call `onlyOwner` functions anymore. Can only be called by the current owner. NOTE: Renouncing ownership will leave the contract without an owner, thereby removing any functionality that is only available to the owner."
      },
      "transferOwnership(address)": {
        "details": "Transfers ownership of the contract to a new account (`newOwner`). Can only be called by the current owner."
      }
    },
    "version": 1
  },
  "userdoc": {
    "kind": "user",
    "methods": {},
    "version": 1
  }
}