{
  "contractName": "NewsFeed",
  "abi": [
    {
      "inputs": [],
      "stateMutability": "nonpayable",
      "type": "constructor"
    },
    {
      "anonymous": false,
      "inputs": [
        {
          "indexed": false,
          "internalType": "address",
          "name": "sender",
          "type": "address"
        },
        {
          "indexed": false,
          "internalType": "address",
          "name": "recipient",
          "type": "address"
        }
      ],
      "name": "Destroyed",
      "type": "event"
    },
    {
      "anonymous": false,
      "inputs": [
        {
          "indexed": false,
          "internalType": "address",
          "name": "sender",
          "type": "address"
        },
        {
          "indexed": false,
          "internalType": "uint256",
          "name": "amount",
          "type": "uint256"
        }
      ],
      "name": "FallbackEvent",
      "type": "event"
    },
    {
      "anonymous": false,
      "inputs": [
        {
          "indexed": true,
          "internalType": "address",
          "name": "previousOwner",
          "type": "address"
        },
        {
          "indexed": true,
          "internalType": "address",
          "name": "newOwner",
          "type": "address"
        }
      ],
      "name": "OwnershipTransferred",
      "type": "event"
    },
    {
      "anonymous": false,
      "inputs": [
        {
          "indexed": false,
          "internalType": "address",
          "name": "sender",
          "type": "address"
        },
        {
          "indexed": false,
          "internalType": "uint256",
          "name": "amount",
          "type": "uint256"
        }
      ],
      "name": "ReceiveEvent",
      "type": "event"
    },
    {
      "anonymous": false,
      "inputs": [
        {
          "indexed": false,
          "internalType": "address",
          "name": "sender",
          "type": "address"
        },
        {
          "indexed": false,
          "internalType": "bytes",
          "name": "reason",
          "type": "bytes"
        }
      ],
      "name": "Started",
      "type": "event"
    },
    {
      "anonymous": false,
      "inputs": [
        {
          "indexed": false,
          "internalType": "address",
          "name": "sender",
          "type": "address"
        },
        {
          "indexed": false,
          "internalType": "bytes",
          "name": "reason",
          "type": "bytes"
        }
      ],
      "name": "Stopped",
      "type": "event"
    },
    {
      "anonymous": false,
      "inputs": [
        {
          "indexed": false,
          "internalType": "address",
          "name": "sender",
          "type": "address"
        },
        {
          "indexed": false,
          "internalType": "string",
          "name": "reason",
          "type": "string"
        }
      ],
      "name": "Termination",
      "type": "event"
    },
    {
      "stateMutability": "payable",
      "type": "fallback"
    },
    {
      "inputs": [],
      "name": "VERSION",
      "outputs": [
        {
          "internalType": "string",
          "name": "",
          "type": "string"
        }
      ],
      "stateMutability": "view",
      "type": "function"
    },
    {
      "inputs": [],
      "name": "WAIT",
      "outputs": [
        {
          "internalType": "uint256",
          "name": "",
          "type": "uint256"
        }
      ],
      "stateMutability": "view",
      "type": "function"
    },
    {
      "inputs": [
        {
          "internalType": "uint256",
          "name": "",
          "type": "uint256"
        }
      ],
      "name": "categories",
      "outputs": [
        {
          "internalType": "enum NewsFeed.Category",
          "name": "category",
          "type": "uint8"
        },
        {
          "internalType": "string",
          "name": "name",
          "type": "string"
        }
      ],
      "stateMutability": "view",
      "type": "function"
    },
    {
      "inputs": [],
      "name": "destroy",
      "outputs": [],
      "stateMutability": "nonpayable",
      "type": "function"
    },
    {
      "inputs": [
        {
          "internalType": "address",
          "name": "_recipient",
          "type": "address"
        }
      ],
      "name": "destroyAndSend",
      "outputs": [],
      "stateMutability": "nonpayable",
      "type": "function"
    },
    {
      "inputs": [],
      "name": "getOwner",
      "outputs": [
        {
          "internalType": "address",
          "name": "",
          "type": "address"
        }
      ],
      "stateMutability": "payable",
      "type": "function"
    },
    {
      "inputs": [],
      "name": "name",
      "outputs": [
        {
          "internalType": "string",
          "name": "",
          "type": "string"
        }
      ],
      "stateMutability": "view",
      "type": "function"
    },
    {
      "inputs": [],
      "name": "renounceOwnership",
      "outputs": [],
      "stateMutability": "payable",
      "type": "function"
    },
    {
      "inputs": [],
      "name": "symbol",
      "outputs": [
        {
          "internalType": "string",
          "name": "",
          "type": "string"
        }
      ],
      "stateMutability": "view",
      "type": "function"
    },
    {
      "inputs": [],
      "name": "totalSupply",
      "outputs": [
        {
          "internalType": "uint256",
          "name": "",
          "type": "uint256"
        }
      ],
      "stateMutability": "view",
      "type": "function"
    },
    {
      "inputs": [
        {
          "internalType": "address",
          "name": "newOwner",
          "type": "address"
        }
      ],
      "name": "transferOwnership",
      "outputs": [],
      "stateMutability": "payable",
      "type": "function"
    },
    {
      "stateMutability": "payable",
      "type": "receive"
    },
    {
      "inputs": [
        {
          "internalType": "address",
          "name": "publisher",
          "type": "address"
        }
      ],
      "name": "addPublisher",
      "outputs": [],
      "stateMutability": "nonpayable",
      "type": "function"
    },
    {
      "inputs": [
        {
          "internalType": "address",
          "name": "publisher",
          "type": "address"
        }
      ],
      "name": "disablePublisher",
      "outputs": [],
      "stateMutability": "nonpayable",
      "type": "function"
    },
    {
      "inputs": [
        {
          "internalType": "address",
          "name": "_reporter",
          "type": "address"
        },
        {
          "internalType": "enum NewsFeed.Category",
          "name": "_category",
          "type": "uint8"
        },
        {
          "internalType": "string",
          "name": "_title",
          "type": "string"
        },
        {
          "internalType": "uint256",
          "name": "_epoch",
          "type": "uint256"
        },
        {
          "internalType": "string",
          "name": "_topic1",
          "type": "string"
        },
        {
          "internalType": "string",
          "name": "_topic2",
          "type": "string"
        },
        {
          "internalType": "string",
          "name": "_topic3",
          "type": "string"
        }
      ],
      "name": "addStory",
      "outputs": [],
      "stateMutability": "payable",
      "type": "function"
    },
    {
      "inputs": [
        {
          "internalType": "address",
          "name": "_reporter",
          "type": "address"
        },
        {
          "internalType": "uint256",
          "name": "_epoch",
          "type": "uint256"
        }
      ],
      "name": "getStories",
      "outputs": [
        {
          "components": [
            {
              "internalType": "address",
              "name": "publisher",
              "type": "address"
            },
            {
              "internalType": "enum NewsFeed.Category",
              "name": "category",
              "type": "uint8"
            },
            {
              "internalType": "string",
              "name": "title",
              "type": "string"
            },
            {
              "internalType": "uint256",
              "name": "epoch",
              "type": "uint256"
            },
            {
              "internalType": "string",
              "name": "topic_sentence_1",
              "type": "string"
            },
            {
              "internalType": "string",
              "name": "topic_sentence_2",
              "type": "string"
            },
            {
              "internalType": "string",
              "name": "topic_sentence_3",
              "type": "string"
            }
          ],
          "internalType": "struct NewsFeed.StoryNews[]",
          "name": "",
          "type": "tuple[]"
        }
      ],
      "stateMutability": "payable",
      "type": "function"
    },
    {
      "inputs": [],
      "name": "getStoryTimes",
      "outputs": [
        {
          "internalType": "uint256[]",
          "name": "",
          "type": "uint256[]"
        }
      ],
      "stateMutability": "view",
      "type": "function"
    },
    {
      "inputs": [],
      "name": "cashOut",
      "outputs": [],
      "stateMutability": "nonpayable",
      "type": "function"
    }
  ],
  "bytecode": "0x608060405234620007da5760008054600160a060020a0319163390811782554260019081559190817f8be0079c531659141344cd1fd0a4f28419497f9722a3daafe3b4186f6b6457e08180a360ff19806003541660035560049082825533835260209360098552604084208183825416179055620000c062000080620007df565b8581526200008d620007df565b600d81527f427265616b696e67204e6577730000000000000000000000000000000000000088820152878201526200082e565b620000ca620007df565b93818552620000d8620007df565b91601783527f436f6c6c65676573202620556e697665727369746965730000000000000000008784015286860192835260089586549468010000000000000000861015620007ae578286018089558610156200078257878452888420600280970201915190601082101562000756579060ff83928594541691161781550192518051926001604060020a0384116200072a57845483878204911680156200071f575b8a821014620006f357601f8111620006aa575b508892601f85116001146200062e57509383620003ec97946200021c94620006129b9a9894620002b5989262000622575b5050878202840a6000190419169083021790555b620001dc620007df565b908152620001e9620007df565b600e81527f43757272656e74204576656e747300000000000000000000000000000000000088820152878201526200082e565b6200026b6200022a620007df565b6003815262000238620007df565b600d81527f456e7669726f6e6d656e74616c0000000000000000000000000000000000000088820152878201526200082e565b62000275620007df565b90815262000282620007df565b600a81527f476f7665726e6d656e740000000000000000000000000000000000000000000086820152858201526200082e565b62000304620002c3620007df565b60058152620002d1620007df565b600981527f4d6167617a696e6573000000000000000000000000000000000000000000000086820152858201526200082e565b6200035362000312620007df565b6006815262000320620007df565b600581527f4d6564696100000000000000000000000000000000000000000000000000000086820152858201526200082e565b620003a262000361620007df565b600781526200036f620007df565b600a81527f4e6577737061706572730000000000000000000000000000000000000000000086820152858201526200082e565b620003ac620007df565b90808252620003ba620007df565b9081527f506f6c697469637300000000000000000000000000000000000000000000000084820152838201526200082e565b6200043b620003fa620007df565b6009815262000408620007df565b600d81527f526567696f6e616c204e6577730000000000000000000000000000000000000084820152838201526200082e565b6200048a62000449620007df565b600a815262000457620007df565b601781527f52656c6967696f6e20262053706972697475616c69747900000000000000000084820152838201526200082e565b620004d962000498620007df565b600b8152620004a6620007df565b600681527f53706f727473000000000000000000000000000000000000000000000000000084820152838201526200082e565b62000528620004e7620007df565b600c8152620004f5620007df565b600a81527f546563686e6f6c6f67790000000000000000000000000000000000000000000084820152838201526200082e565b6200057762000536620007df565b600d815262000544620007df565b600f81527f54726166666963202620526f616473000000000000000000000000000000000084820152838201526200082e565b620005c662000585620007df565b600e815262000593620007df565b600781527f576561746865720000000000000000000000000000000000000000000000000084820152838201526200082e565b620005d0620007df565b90600f8252620005df620007df565b90600982527f57656220426c6f67730000000000000000000000000000000000000000000000818301528201526200082e565b60405161168a908162000a6b8239f35b015190503880620001be565b93929091601f1984168684528a8420935b81811062000694575096848194620002b59894620003ec9b98946200021c98620006129f9e9c1062000679575b50505002019055620001d2565b0151601f83168b02840a60001904191690553880806200066c565b82840151855593860193928b01928b016200063f565b8582528982208a80601f880104820192818810620006e8575b601f0104019084905b828110620006dc5750506200018d565b838155018490620006cc565b9192508291620006c3565b60248260228a7f4e487b7100000000000000000000000000000000000000000000000000000000835252fd5b90607f16906200017a565b806041887f4e487b71000000000000000000000000000000000000000000000000000000006024945252fd5b60248560218a7f4e487b7100000000000000000000000000000000000000000000000000000000835252fd5b6024846032897f4e487b7100000000000000000000000000000000000000000000000000000000835252fd5b6024846041897f4e487b7100000000000000000000000000000000000000000000000000000000835252fd5b600080fd5b60405190604082018281106001604060020a03821117620007ff57604052565b7f4e487b7100000000000000000000000000000000000000000000000000000000600052604160045260246000fd5b60085468010000000000000000811015620007ff576001908181018060085581101562000a3b576000906008825260208083206002809302018551601081101562000a0e578291869160ff80198354169116178155019501518051936001604060020a038511620009e15786548685820491168015620009d6575b84821014620009a957601f811162000960575b5082601f8611600114620008f7575084955093620008eb575b505082810292600802900a600019041916179055565b015191503880620008d5565b8782528082209495949392918591601f19831691905b8983831062000945575050501062000929575b50505002019055565b01516008601f841602840a600019041916905538808062000920565b8587015188559096019594850194879350908101906200090d565b8782528382208480601f8901048201928189106200099e575b601f0104019087905b82811062000992575050620008bc565b83815501879062000982565b919250829162000979565b6024827f4e487b710000000000000000000000000000000000000000000000000000000081526022600452fd5b90607f1690620008a9565b807f4e487b7100000000000000000000000000000000000000000000000000000000602492526041600452fd5b6024857f4e487b710000000000000000000000000000000000000000000000000000000081526021600452fd5b7f4e487b7100000000000000000000000000000000000000000000000000000000600052603260045260246000fdfe60808060405260043610156100c9575b50361561009957333203610052577f26875833861a2b006512a11f1b86edf95df96131040f3caeed72989ee98580836040518061004d343383611556565b0390a1005b60405160e560020a62461bcd0281526020600482015260196024820152603860020a787068697368696e672061747461636b2064657465637465643f026044820152606490fd5b7fcc85d09d309785db93d6df19917f2e6cc07fe27cd01c08c8279145deb5cf45266040518061004d343383611556565b60e060020a60003504906306fdde038214611247575080630f2d74f1146109e057806318160ddd146109c2578063603c43941461092157806370f13b9714610888578063715018a614610841578063763f323d1461079c578063793cd71e1461070457806383197ef0146106c3578063893d20e81461069b57806395d89b411461064d578063b8fb3a5114610631578063c6cdbe5e146105cf578063f2fde38b1461051a578063f5074f41146104b9578063f647d03a146101eb5763ffa1ad7414610194573861000f565b346101e65760003660031901126101e6576101e26040516101b4816112b2565b600a815260b060020a69312e362e342d626574610260208201526040519182916020835260208301906112f0565b0390f35b600080fd5b60403660031901126101e6576101ff611330565b602435806000526006602091818352600160a060020a039384604060002054161561045a57610235655af3107a400034146115bd565b60003415610451575b60008080809334903090f11561044557816000528284526000808080652d79883d20008960408320541682f115610445578416600090815260058085526040808320938352928552919020805490926001604060020a03821161042b5760405194926102ae8385028501876112cd565b82865260009485528385208487019591865b85841061039c575050505050506040519281840190828552518091526040840191604081830286010193926000965b8388106102fc5786860387f35b9091929394838061038b600193603f198b8203018752895186815116825261032a8482015185840190611480565b610378610365610348604084015160e08060408801528601906112f0565b6060808501519086015260808085015190868303908701526112f0565b60a08084015190858303908601526112f0565b9160c080920151918184039101526112f0565b9701930197019690939291936102ef565b84876001928c6103ce60ff60409e9c9e51926103b784611297565b8954908116845260a060020a900416848301611608565b6103d98588016113db565b6040820152600287015460608201526103f4600388016113db565b6080820152610405600488016113db565b60a08201526104158688016113db565b60c08201528152019301930192919795976102c0565b60e060020a634e487b710260009081526041600452602490fd5b6040513d6000823e3d90fd5b506108fc61023e565b60405160e560020a62461bcd02815260048101859052602b60248201527f6e6f206e65772073746f72696573207075626c697368656420666f7220746861604482015260aa60020a6a1d081d1a5b59481cdb1bdd026064820152608490fd5b346101e65760203660031901126101e65760008051602061161583398151915261004d6104e4611330565b6104fa600160a060020a0360005416331461148d565b60408051338152600160a060020a03909216602083015290918291820190565b60203660031901126101e65761052e611330565b600054600160a060020a0380821692610548338514611571565b16918215610575578290600080516020611635833981519152600080a3600160a060020a03191617600055005b60405160e560020a62461bcd02815260206004820152602660248201527f4f776e61626c653a206e6577206f776e657220697320746865207a65726f2061604482015260d060020a65646472657373026064820152608490fd5b346101e65760203660031901126101e6576004356008548110156101e657610620906008600052600260206000209102016101e2610614600160ff84541693016113db565b60405193848094611480565b6040602084015260408301906112f0565b346101e65760003660031901126101e6576020604051601e8152f35b346101e65760003660031901126101e6576101e260405161066d816112b2565b600a815260b060020a6950524553532e4e4557530260208201526040519182916020835260208301906112f0565b60003660031901126101e65760206106b1611521565b604051600160a060020a039091168152f35b346101e65760003660031901126101e6576106ea600160a060020a0360005416331461148d565b60008051602061161583398151915261004d6104fa611521565b346101e65760003660031901126101e65761072b600160a060020a0360005416331461148d565b303115610754576000808080303181811561074b575b3390f11561044557005b506108fc610741565b60405160e560020a62461bcd02815260206004820152601e60248201527f6e6f7420656e6f7567682062616c616e636520746f2063617368206f757400006044820152606490fd5b346101e65760203660031901126101e6576107b5611330565b600054600160a060020a0391906107cf908316331461148d565b1680600052600960205260ff60406000205416610801576000908152600960205260409020805460ff19166001179055005b60405160e560020a62461bcd0281526020600482015260126024820152607260020a71185b1c9958591e481c9959da5cdd195c9959026044820152606490fd5b60003660031901126101e6576000805490600160a060020a038216610867338214611571565b6000805160206116358339815191528280a3600160a060020a031916600055005b346101e65760003660031901126101e65760405180600754808352602080930180916007600052846000209060005b8682821061090d5786866108cd828803836112cd565b604051928392818401908285525180915260408401929160005b8281106108f657505050500390f35b8351855286955093810193928101926001016108e7565b8354855290930192600192830192016108b7565b346101e65760203660031901126101e65761093a611330565b600054600160a060020a039190610954908316331461148d565b1680600052600960205260ff6040600020541615610984576000908152600960205260409020805460ff19169055005b60405160e560020a62461bcd0281526020600482015260106024820152608260020a6f185b1c9958591e48191a5cd8589b1959026044820152606490fd5b346101e65760003660031901126101e6576020600454604051908152f35b60e03660031901126101e6576109f4611330565b601060243510156101e6576044356001604060020a0381116101e657610a1e903690600401611346565b906084356001604060020a0381116101e657610a3e903690600401611346565b60a4356001604060020a0381116101e657610a5d903690600401611346565b60c4356001604060020a0381116101e657610a7c903690600401611346565b9133600052600960205260ff604060002054161561120b57606435600090815260066020526040902054600160a060020a03166111a857610ac4652d79883d200034146115bd565b6000341561119f575b60008080809334903090f1156104455760405194610aea86611297565b338652610afc60243560208801611608565b60408601526064356060860152608085015260a084015260c0830152600160a060020a0316600052600560205260406000206064356000526020526040600020805490604060020a82101561042b5760018201808255821015610dfb576000526020600020600160a060020a0383511660068302820154906020850151601081101561118557600160a860020a03199092161760a060020a9190910260a060020a60ff0216176006830282015560408301518051906001604060020a03821161042b578190610bd36001600687028601015461139c565b601f811161112d575b50602090601f83116001146110af576000926110a4575b5050816002029160080260020a60001904191617600160068402830101555b60608301516006830282016002015560808301518051906001604060020a03821161042b578190610c4b6003600687028601015461139c565b601f811161104c575b50602090601f8311600114610fce57600092610fc3575b5050816002029160080260020a60001904191617600360068402830101555b60a083015180519093906001604060020a03811161042b57610cb46004600686028501015461139c565b601f8111610f77575b506020601f8211600114610ef757819060c0949596600092610eec575b5050816002029160080260020a60001904191617600460068602850101555b01518051906001604060020a03821161042b57610d1e6005600686028501015461139c565b601f8111610e9b575b50602090601f8311600114610e2057918060069260059594600092610e15575b5050816002029160080260020a6000190419161793020101555b60643560009081526006602052604090208054600160a060020a03191633179055600754604060020a81101561042b576001810180600755811015610dfb5760076000526064357fa66cc928b5edb82af9bd49922954155ab7b0942694bea4ce44661d9a8736c688909101556004546000198114610de157600101600455005b60e060020a634e487b710260009081526011600452602490fd5b60e060020a634e487b710260009081526032600452602490fd5b015190508680610d47565b90601f1983169160056006870286010160005260206000209260005b818110610e83575093600693600193600293836005999810610e68575b50505002019302010155610d61565b01516008601f841602840a6000190419169055878080610e59565b92936020600181928786015181550195019301610e3c565b60056006860285010160005260206000206020601f85010481019160208510610ee2575b601f602091010401905b818110610ed65750610d27565b60008155600101610ec9565b9091508190610ebf565b015190508680610cda565b60046006860285010160005260206000209560005b601f1984168110610f5f57509160c094959660029260019483601f19811610610f44575b505050020160046006860285010155610cf9565b01516008601f841602840a6000190419169055878080610f30565b82820151885560019097019660209283019201610f0c565b60046006860285010160005260206000206020601f840104810160208410610fbc575b6020601f84010482018110610fb0575050610cbd565b60008155600101610f9a565b5080610f9a565b015190508580610c6b565b915060036006860285010160005260206000209160005b601f19851681106110345750918391600293600195601f19811610611019575b505050020160036006840283010155610c8a565b01516008601f841602840a6000190419169055868080611005565b91926020600181928685015181550194019201610fe5565b90915060036006860285010160005260206000206020601f85010481016020851061109d575b90849392915b6020601f8401048201811061108e575050610c54565b60008155859450600101611078565b5080611072565b015190508580610bf3565b915060016006860285010160005260206000209160005b601f19851681106111155750918391600293600195601f198116106110fa575b505050020160016006840283010155610c12565b01516008601f841602840a60001904191690558680806110e6565b919260206001819286850151815501940192016110c6565b90915060016006860285010160005260206000206020601f85010481016020851061117e575b90849392915b6020601f8401048201811061116f575050610bdc565b60008155859450600101611159565b5080611153565b60e060020a634e487b710260009081526021600452602490fd5b506108fc610acd565b60405160e560020a62461bcd02815260206004820152602f60248201527f6e65772073746f7269657320616c7265616479207075626c697368656420696e6044820152608a60020a6e081d1a185d081d1a5b59481cdb1bdd026064820152608490fd5b60405160e560020a62461bcd02815260206004820152600e6024820152609260020a6d1b9bdd08185d5d1a1bdc9a5e9959026044820152606490fd5b346101e65760003660031901126101e657806112656101e2926112b2565b600e8152609060020a6d5072657373506167652e4e4557530260208201526040519182916020835260208301906112f0565b60e081019081106001604060020a0382111761042b57604052565b604081019081106001604060020a0382111761042b57604052565b601f909101601f19168101906001604060020a0382119082101761042b57604052565b919082519283825260005b84811061131c575050826000602080949584010152601f8019910116010190565b6020818301810151848301820152016112fb565b60043590600160a060020a03821682036101e657565b81601f820112156101e6578035906001604060020a03821161042b576040519261137a601f8401601f1916602001856112cd565b828452602083830101116101e657816000926020809301838601378301015290565b90600160028304921680156113d1575b60208310146113b757565b60e060020a634e487b710260009081526022600452602490fd5b91607f16916113ac565b90604051918260008254926113ef8461139c565b90818452600194858116908160001461145e575060011461141b575b5050611419925003836112cd565b565b9093915060005260209081600020936000915b8183106114465750506114199350820101388061140b565b8554888401850152948501948794509183019161142e565b91505061141994506020925060ff19168284015215158102820101388061140b565b9060108210156111855752565b1561149457565b60405160e560020a62461bcd02815260206004820152601b60248201527f756e617574686f72697a65642c206e6f7420746865206f776e657200000000006044820152606490fd5b156114e357565b60405160e560020a62461bcd0281526020600482015260106024820152608160020a6f3930ba32903634b6b4ba1032b93937b9026044820152606490fd5b600154601e8101809111610de15761154390421161153e816114dc565b6114dc565b42600155600054600160a060020a031690565b600160a060020a039091168152602081019190915260400190565b1561157857565b60405160e560020a62461bcd0281526020600482015260176024820152604960020a7630b1b1b2b9b9903232b734b2b2103337b91037bbb732b9026044820152606490fd5b156115c457565b60405160e560020a62461bcd0281526020600482015260166024820152605260020a751b9bdd08195b9bdd59da08199bdc881c185e5b595b9d026044820152606490fd5b6010821015611185575256fe91ca00fdf29069527d658f8dfc6d1c0bf9861780bb45ff36436f938d3595a8d68be0079c531659141344cd1fd0a4f28419497f9722a3daafe3b4186f6b6457e0a2646970667358221220f249d971f3e7fa3725d6d78f1d588b533c4191d7e3b6ca536a058aee1c394c5364736f6c63430008120033",
  "immutableReferences": {},
  "source": "// SPDX-License-Identifier: CC-BY-4.0\r\npragma solidity >=0.4.22 <0.9.0;\r\n\r\nimport \"../common/Version.sol\";\r\nimport \"../common/Frozen.sol\";\r\n\r\ncontract NewsFeed is Version, Frozen {\r\n    string public constant name = string(\"PressPage.NEWS\");\r\n    string public constant symbol = string(\"PRESS.NEWS\");\r\n    uint256 public totalSupply = 0;\r\n\r\n    enum Category {\r\n        Breaking_News,\r\n        Colleges_and_Universities,\r\n        Current_Events,\r\n        Environmental,\r\n        Government,\r\n        Magazines,\r\n        Media,\r\n        Newspapers,\r\n        Politics,\r\n        Regional_News,\r\n        Religion_and_Spirituality,\r\n        Sports,\r\n        Technology,\r\n        Traffic_Roads,\r\n        Weather,\r\n        Weblogs\r\n    }\r\n\r\n    struct CategoryList {\r\n        Category category;\r\n        string   name;\r\n    }\r\n\r\n    struct StoryNews {\r\n        address  publisher;\r\n        Category category;\r\n        string   title;\r\n        uint256  epoch;\r\n        string   topic_sentence_1;\r\n        string   topic_sentence_2;\r\n        string   topic_sentence_3;\r\n    }\r\n\r\n    mapping(address => mapping (uint256 => StoryNews[])) private newslist;\r\n    mapping (uint256 => address) private storytimes;\r\n    uint256[] private _storytimes;\r\n\r\n    CategoryList[] public categories;\r\n\r\n    mapping(address => bool) private whitelisted;\r\n\r\n    constructor() {\r\n        whitelisted[msg.sender] = true;\r\n\r\n        categories.push(CategoryList({\r\n            category: Category.Breaking_News,\r\n            name: \"Breaking News\"\r\n        }));\r\n        categories.push(CategoryList({\r\n            category: Category.Colleges_and_Universities,\r\n            name: \"Colleges & Universities\"\r\n        }));\r\n        categories.push(CategoryList({\r\n            category: Category.Current_Events,\r\n            name: \"Current Events\"\r\n        }));\r\n        categories.push(CategoryList({\r\n            category: Category.Environmental,\r\n            name: \"Environmental\"\r\n        }));\r\n        categories.push(CategoryList({\r\n            category: Category.Government,\r\n            name: \"Government\"\r\n        }));\r\n        categories.push(CategoryList({\r\n            category: Category.Magazines,\r\n            name: \"Magazines\"\r\n        }));\r\n        categories.push(CategoryList({\r\n            category: Category.Media,\r\n            name: \"Media\"\r\n        }));\r\n        categories.push(CategoryList({\r\n            category: Category.Newspapers,\r\n            name: \"Newspapers\"\r\n        }));\r\n        categories.push(CategoryList({\r\n            category: Category.Politics,\r\n            name: \"Politics\"\r\n        }));\r\n        categories.push(CategoryList({\r\n            category: Category.Regional_News,\r\n            name: \"Regional News\"\r\n        }));\r\n        categories.push(CategoryList({\r\n            category: Category.Religion_and_Spirituality,\r\n            name: \"Religion & Spirituality\"\r\n        }));\r\n        categories.push(CategoryList({\r\n            category: Category.Sports,\r\n            name: \"Sports\"\r\n        }));\r\n        categories.push(CategoryList({\r\n            category: Category.Technology,\r\n            name: \"Technology\"\r\n        }));\r\n        categories.push(CategoryList({\r\n            category: Category.Traffic_Roads,\r\n            name: \"Traffic & Roads\"\r\n        }));\r\n        categories.push(CategoryList({\r\n            category: Category.Weather,\r\n            name: \"Weather\"\r\n        }));\r\n        categories.push(CategoryList({\r\n            category: Category.Weblogs,\r\n            name: \"Web Blogs\"\r\n        }));\r\n    }\r\n\r\n    modifier isWhitelisted() {\r\n        require(whitelisted[msg.sender],\"not authorized\");\r\n        _;\r\n    }\r\n\r\n    function addPublisher(address publisher)\r\n        public\r\n        okOwner\r\n    {\r\n        require(whitelisted[publisher] == false,\"already registered\");\r\n        whitelisted[publisher] = true;\r\n    }\r\n\r\n    function disablePublisher(address publisher)\r\n        public\r\n        okOwner\r\n    {\r\n        require(whitelisted[publisher],\"already disabled\");\r\n        whitelisted[publisher] = false;\r\n    }\r\n\r\n    function addStory(address _reporter,\r\n                      Category _category,\r\n                      string memory _title,\r\n                      uint256 _epoch,\r\n                      string memory _topic1,\r\n                      string memory _topic2,\r\n                      string memory _topic3)\r\n        public\r\n        payable\r\n        isWhitelisted\r\n    {\r\n        require(storytimes[_epoch] == address(0),\"new stories already published in that time slot\");\r\n        require(msg.value == 0.00005 ether,\"not enough for payment\");\r\n        payable(address(this)).transfer(msg.value);\r\n\r\n        StoryNews memory news = StoryNews(msg.sender,_category,_title,_epoch,_topic1,_topic2,_topic3);\r\n        newslist[_reporter][_epoch].push(news);\r\n        storytimes[_epoch] = msg.sender;\r\n        _storytimes.push(_epoch);\r\n        totalSupply++;\r\n    }\r\n\r\n    function getStories(address _reporter,uint256 _epoch)\r\n        public\r\n        payable\r\n        returns (StoryNews[] memory)\r\n    {\r\n        require(storytimes[_epoch] != address(0),\"no new stories published for that time slot\");\r\n        require(msg.value == 0.0001 ether,\"not enough for payment\");\r\n        payable(address(this)).transfer(msg.value);\r\n        payable(storytimes[_epoch]).transfer(0.00005 ether); // transfer half of the polling fee to the publisher\r\n        return newslist[_reporter][_epoch];\r\n    }\r\n\r\n    function getStoryTimes()\r\n        public\r\n        view\r\n        returns (uint256[] memory)\r\n    {\r\n        return _storytimes;\r\n    }\r\n\r\n    function cashOut()\r\n        public\r\n        okOwner\r\n    {\r\n        require(address(this).balance > 0, \"not enough balance to cash out\");\r\n        payable(msg.sender).transfer(address(this).balance);\r\n    }\r\n}",
  "sourcePath": "/Volumes/HOME/pingleware-contracts/contracts/news/NewsFeed.sol",
  "compiler": {
    "name": "solc",
    "version": "0.8.18+commit.87f61d96.Emscripten.clang"
  },
  "schemaVersion": "3.4.12",
  "updatedAt": "2024-05-23T18:56:26.977Z",
  "devdoc": {
    "kind": "dev",
    "methods": {
      "renounceOwnership()": {
        "details": "Leaves the contract without owner. It will not be possible to call `onlyOwner` functions anymore. Can only be called by the current owner. NOTE: Renouncing ownership will leave the contract without an owner, thereby removing any functionality that is only available to the owner."
      },
      "transferOwnership(address)": {
        "details": "Transfers ownership of the contract to a new account (`newOwner`). Can only be called by the current owner."
      }
    },
    "version": 1
  },
  "userdoc": {
    "kind": "user",
    "methods": {},
    "version": 1
  }
}