{
  "contractName": "NFT",
  "abi": [
    {
      "inputs": [
        {
          "internalType": "string",
          "name": "name",
          "type": "string"
        },
        {
          "internalType": "string",
          "name": "symbol",
          "type": "string"
        }
      ],
      "stateMutability": "nonpayable",
      "type": "constructor"
    },
    {
      "anonymous": false,
      "inputs": [
        {
          "indexed": true,
          "internalType": "address",
          "name": "owner",
          "type": "address"
        },
        {
          "indexed": true,
          "internalType": "address",
          "name": "approved",
          "type": "address"
        },
        {
          "indexed": true,
          "internalType": "uint256",
          "name": "tokenId",
          "type": "uint256"
        }
      ],
      "name": "Approval",
      "type": "event"
    },
    {
      "anonymous": false,
      "inputs": [
        {
          "indexed": true,
          "internalType": "address",
          "name": "owner",
          "type": "address"
        },
        {
          "indexed": true,
          "internalType": "address",
          "name": "operator",
          "type": "address"
        },
        {
          "indexed": false,
          "internalType": "bool",
          "name": "approved",
          "type": "bool"
        }
      ],
      "name": "ApprovalForAll",
      "type": "event"
    },
    {
      "anonymous": false,
      "inputs": [
        {
          "indexed": true,
          "internalType": "address",
          "name": "from",
          "type": "address"
        },
        {
          "indexed": true,
          "internalType": "address",
          "name": "to",
          "type": "address"
        },
        {
          "indexed": true,
          "internalType": "uint256",
          "name": "tokenId",
          "type": "uint256"
        }
      ],
      "name": "Transfer",
      "type": "event"
    },
    {
      "inputs": [
        {
          "internalType": "address",
          "name": "to",
          "type": "address"
        },
        {
          "internalType": "uint256",
          "name": "tokenId",
          "type": "uint256"
        }
      ],
      "name": "approve",
      "outputs": [],
      "stateMutability": "nonpayable",
      "type": "function"
    },
    {
      "inputs": [
        {
          "internalType": "address",
          "name": "owner",
          "type": "address"
        }
      ],
      "name": "balanceOf",
      "outputs": [
        {
          "internalType": "uint256",
          "name": "balance",
          "type": "uint256"
        }
      ],
      "stateMutability": "view",
      "type": "function"
    },
    {
      "inputs": [
        {
          "internalType": "uint256",
          "name": "tokenId",
          "type": "uint256"
        }
      ],
      "name": "getApproved",
      "outputs": [
        {
          "internalType": "address",
          "name": "operator",
          "type": "address"
        }
      ],
      "stateMutability": "view",
      "type": "function"
    },
    {
      "inputs": [
        {
          "internalType": "address",
          "name": "owner",
          "type": "address"
        },
        {
          "internalType": "address",
          "name": "operator",
          "type": "address"
        }
      ],
      "name": "isApprovedForAll",
      "outputs": [
        {
          "internalType": "bool",
          "name": "",
          "type": "bool"
        }
      ],
      "stateMutability": "view",
      "type": "function"
    },
    {
      "inputs": [
        {
          "internalType": "uint256",
          "name": "tokenId",
          "type": "uint256"
        }
      ],
      "name": "ownerOf",
      "outputs": [
        {
          "internalType": "address",
          "name": "owner",
          "type": "address"
        }
      ],
      "stateMutability": "view",
      "type": "function"
    },
    {
      "inputs": [
        {
          "internalType": "address",
          "name": "from",
          "type": "address"
        },
        {
          "internalType": "address",
          "name": "to",
          "type": "address"
        },
        {
          "internalType": "uint256",
          "name": "tokenId",
          "type": "uint256"
        }
      ],
      "name": "safeTransferFrom",
      "outputs": [],
      "stateMutability": "nonpayable",
      "type": "function"
    },
    {
      "inputs": [
        {
          "internalType": "address",
          "name": "from",
          "type": "address"
        },
        {
          "internalType": "address",
          "name": "to",
          "type": "address"
        },
        {
          "internalType": "uint256",
          "name": "tokenId",
          "type": "uint256"
        },
        {
          "internalType": "bytes",
          "name": "data",
          "type": "bytes"
        }
      ],
      "name": "safeTransferFrom",
      "outputs": [],
      "stateMutability": "nonpayable",
      "type": "function"
    },
    {
      "inputs": [
        {
          "internalType": "address",
          "name": "operator",
          "type": "address"
        },
        {
          "internalType": "bool",
          "name": "_approved",
          "type": "bool"
        }
      ],
      "name": "setApprovalForAll",
      "outputs": [],
      "stateMutability": "nonpayable",
      "type": "function"
    },
    {
      "inputs": [
        {
          "internalType": "bytes4",
          "name": "interfaceId",
          "type": "bytes4"
        }
      ],
      "name": "supportsInterface",
      "outputs": [
        {
          "internalType": "bool",
          "name": "",
          "type": "bool"
        }
      ],
      "stateMutability": "view",
      "type": "function"
    },
    {
      "inputs": [
        {
          "internalType": "address",
          "name": "from",
          "type": "address"
        },
        {
          "internalType": "address",
          "name": "to",
          "type": "address"
        },
        {
          "internalType": "uint256",
          "name": "tokenId",
          "type": "uint256"
        }
      ],
      "name": "transferFrom",
      "outputs": [],
      "stateMutability": "nonpayable",
      "type": "function"
    },
    {
      "inputs": [
        {
          "internalType": "address",
          "name": "to",
          "type": "address"
        },
        {
          "internalType": "uint256",
          "name": "tokenId",
          "type": "uint256"
        },
        {
          "internalType": "string",
          "name": "tokenURI",
          "type": "string"
        }
      ],
      "name": "mint",
      "outputs": [],
      "stateMutability": "nonpayable",
      "type": "function"
    }
  ],
  "bytecode": "0x608060405234610361576107e08038038061001981610366565b9283398101906040818303126103615780516001604060020a0390818111610361578361004791840161038b565b916020938482015183811161036157610060920161038b565b91805190828211610332576000938454946002938487049360018098168015610328575b898610146102fb578190601f958681116102ae575b50899086831160011461024857849261023d575b505060088202860a6000190419169085021781555b81519485116102105785548685820491168015610206575b888210146101d957838111610198575b50869280861160011461013157508495965093610126575b505082810292600802900a6000190419161790555b6040516103e990816103f78239f35b015191503880610102565b91601f9594959391931985169787855280852094905b89821061018157505084879810610166575b5050505002019055610117565b0151908316600802840a600019041916905538808080610159565b808985978294968601518155019601930190610147565b868252878220888581818a0104830193828a106101d0575b0104019087905b8281106101c55750506100ea565b8381550187906101b7565b935082936101b0565b6024827f4e487b710000000000000000000000000000000000000000000000000000000081526022600452fd5b90607f16906100da565b807f4e487b7100000000000000000000000000000000000000000000000000000000602492526041600452fd5b0151905038806100ad565b8480528a85208a94508893929091601f198416878e5b828210610294575050841161027a575b505050020181556100c2565b0151600883891602840a600019041916905538808061026e565b8484015186558e988d98509095019493840193018e61025e565b9091508380528984208a8781818701048301938287106102f2575b9186959493918d93010401915b8281106102e4575050610099565b8681558594508b91016102d6565b935082936102c9565b6024837f4e487b710000000000000000000000000000000000000000000000000000000081526022600452fd5b94607f1694610084565b7f4e487b7100000000000000000000000000000000000000000000000000000000600052604160045260246000fd5b600080fd5b6040519190601f01601f191682016001604060020a0381118382101761033257604052565b919080601f840112156103615782516001604060020a038111610332576020906103bd601f8201601f19168301610366565b928184528282870101116103615760005b8181106103e357508260009394955001015290565b85810183015184820184015282016103ce56fe608060408181526004918236101561001657600080fd5b60009260e060020a843504916301ffc9a783146102a857508163081812fc1461028c578163095ea7b31461026f57816323b872dd1461026a57816342842e0e1461026a5781636352211e1461023757816370a0823114610201578163a22cb465146101d9578163b88d4fde14610179578163d3fc9864146100d1575063e985e9c5146100a157600080fd5b346100cd57806003193601126100cd57906020916100bd6102d3565b506100c66102ee565b5051908152f35b5080fd5b91905034610175576060366003190112610175576100ed6102d3565b50604435916001604060020a03808411610171573660238501121561017157838201359281841161015b5751601f8401601f19908116603f011681019182119110176101455750369101602401116101425780f35b80fd5b60e060020a634e487b7102845260419052602483fd5b60e060020a634e487b7102865260418352602486fd5b8480fd5b8280fd5b8390346100cd5760803660031901126100cd576101946102d3565b5061019d6102ee565b50606435906001604060020a03908183116101d557366023840112156101d55782013590811161017557369101602401116101425780f35b8380fd5b5050346100cd57366003190112610142576101f26102d3565b50602435801515036101425780f35b905034610175576020366003190112610175576020928291600160a060020a036102296102d3565b168252845220549051908152f35b905034610175576020366003190112610175573582526005602090815291819020549051600160a060020a039091168152f35b610304565b5050346100cd57366003190112610142576102886102d3565b5080f35b5050346100cd5760203660031901126100cd5751908152602090f35b8491346101755760203660031901126101755735600160e060020a03198116036100cd576020918152f35b60043590600160a060020a03821682036102e957565b600080fd5b60243590600160a060020a03821682036102e957565b346102e95760603660031901126102e957600160a060020a03600435818116908190036102e957602435908282168092036102e957604435906000938285526005602052604085205416036103725782526005602052604082208054600160a060020a031916909117905580f35b60405160e560020a62461bcd0281526020600482015260136024820152606960020a723737ba103a3432903a37b5b2b71037bbb732b9026044820152606490fdfea2646970667358221220011842438cf0cf9eb6b2ca0e390a53b7e1b6003eb7799095c39ae2044721a27a64736f6c63430008120033",
  "immutableReferences": {},
  "source": "// SPDX-License-Identifier: BSL-1.1\npragma solidity >=0.4.22 <0.9.0;\n\n/**\n * In this contract:\n *\n * 1. We import the OpenZeppelin ERC721 contract and inherit from it to create our custom NFT contract.\n * 2. The constructor is used to set the name and symbol for your NFT collection.\n * 3. The mint function allows the contract owner to create and assign new NFTs to specific addresses. It takes the recipient's address, the NFT's ID, and the URI for the token metadata. \n *    You can extend this contract to include more minting options if needed.\n *\n * To deploy this contract, you need to provide the appropriate arguments (name and symbol) when creating the contract, \n * and you'll be able to mint NFTs with it. Please note that this contract alone won't enable users to register their NFTs for resale; \n * you'd need the NFTCollection contract (as shown in the previous answer) to achieve that functionality. \n * Users can list the NFTs minted from the NFTContract on the NFTCollection for resale.\n */\n\nimport \"../abstract/AERC721.sol\";\n\ncontract NFT is AERC721 {\n    constructor(string memory name, string memory symbol) AERC721(name, symbol) {\n        // The contract is initialized with a name and symbol for your NFTs.\n    }\n\n    // Mint a new NFT and assign it to the given owner\n    function mint(address to, uint256 tokenId, string memory tokenURI) external {\n        _mint(to, tokenId);\n        _setTokenURI(tokenId, tokenURI);\n    }\n\n    // INTERNAL FUNCTIONS\n    function _mint(address to, uint256 tokenId) internal {\n\n    }\n    function _setTokenURI(uint256 tokenId, string memory tokenURI) internal {\n\n    }\n}\n",
  "sourcePath": "/Volumes/HOME/pingleware-contracts/contracts/nft/NFT.sol",
  "compiler": {
    "name": "solc",
    "version": "0.8.18+commit.87f61d96.Emscripten.clang"
  },
  "schemaVersion": "3.4.12",
  "updatedAt": "2024-05-23T18:56:26.998Z",
  "devdoc": {
    "kind": "dev",
    "methods": {},
    "version": 1
  },
  "userdoc": {
    "kind": "user",
    "methods": {},
    "version": 1
  }
}