{
  "contractName": "NFT",
  "abi": [
    {
      "inputs": [
        {
          "internalType": "string",
          "name": "name",
          "type": "string"
        },
        {
          "internalType": "string",
          "name": "symbol",
          "type": "string"
        }
      ],
      "stateMutability": "nonpayable",
      "type": "constructor"
    },
    {
      "anonymous": false,
      "inputs": [
        {
          "indexed": true,
          "internalType": "address",
          "name": "owner",
          "type": "address"
        },
        {
          "indexed": true,
          "internalType": "address",
          "name": "approved",
          "type": "address"
        },
        {
          "indexed": true,
          "internalType": "uint256",
          "name": "tokenId",
          "type": "uint256"
        }
      ],
      "name": "Approval",
      "type": "event"
    },
    {
      "anonymous": false,
      "inputs": [
        {
          "indexed": true,
          "internalType": "address",
          "name": "owner",
          "type": "address"
        },
        {
          "indexed": true,
          "internalType": "address",
          "name": "operator",
          "type": "address"
        },
        {
          "indexed": false,
          "internalType": "bool",
          "name": "approved",
          "type": "bool"
        }
      ],
      "name": "ApprovalForAll",
      "type": "event"
    },
    {
      "anonymous": false,
      "inputs": [
        {
          "indexed": true,
          "internalType": "address",
          "name": "from",
          "type": "address"
        },
        {
          "indexed": true,
          "internalType": "address",
          "name": "to",
          "type": "address"
        },
        {
          "indexed": true,
          "internalType": "uint256",
          "name": "tokenId",
          "type": "uint256"
        }
      ],
      "name": "Transfer",
      "type": "event"
    },
    {
      "inputs": [
        {
          "internalType": "address",
          "name": "to",
          "type": "address"
        },
        {
          "internalType": "uint256",
          "name": "tokenId",
          "type": "uint256"
        }
      ],
      "name": "approve",
      "outputs": [],
      "stateMutability": "nonpayable",
      "type": "function"
    },
    {
      "inputs": [
        {
          "internalType": "address",
          "name": "owner",
          "type": "address"
        }
      ],
      "name": "balanceOf",
      "outputs": [
        {
          "internalType": "uint256",
          "name": "balance",
          "type": "uint256"
        }
      ],
      "stateMutability": "view",
      "type": "function",
      "constant": true
    },
    {
      "inputs": [
        {
          "internalType": "uint256",
          "name": "tokenId",
          "type": "uint256"
        }
      ],
      "name": "getApproved",
      "outputs": [
        {
          "internalType": "address",
          "name": "operator",
          "type": "address"
        }
      ],
      "stateMutability": "view",
      "type": "function",
      "constant": true
    },
    {
      "inputs": [
        {
          "internalType": "address",
          "name": "owner",
          "type": "address"
        },
        {
          "internalType": "address",
          "name": "operator",
          "type": "address"
        }
      ],
      "name": "isApprovedForAll",
      "outputs": [
        {
          "internalType": "bool",
          "name": "",
          "type": "bool"
        }
      ],
      "stateMutability": "view",
      "type": "function",
      "constant": true
    },
    {
      "inputs": [
        {
          "internalType": "uint256",
          "name": "tokenId",
          "type": "uint256"
        }
      ],
      "name": "ownerOf",
      "outputs": [
        {
          "internalType": "address",
          "name": "owner",
          "type": "address"
        }
      ],
      "stateMutability": "view",
      "type": "function",
      "constant": true
    },
    {
      "inputs": [
        {
          "internalType": "address",
          "name": "from",
          "type": "address"
        },
        {
          "internalType": "address",
          "name": "to",
          "type": "address"
        },
        {
          "internalType": "uint256",
          "name": "tokenId",
          "type": "uint256"
        }
      ],
      "name": "safeTransferFrom",
      "outputs": [],
      "stateMutability": "nonpayable",
      "type": "function"
    },
    {
      "inputs": [
        {
          "internalType": "address",
          "name": "from",
          "type": "address"
        },
        {
          "internalType": "address",
          "name": "to",
          "type": "address"
        },
        {
          "internalType": "uint256",
          "name": "tokenId",
          "type": "uint256"
        },
        {
          "internalType": "bytes",
          "name": "data",
          "type": "bytes"
        }
      ],
      "name": "safeTransferFrom",
      "outputs": [],
      "stateMutability": "nonpayable",
      "type": "function"
    },
    {
      "inputs": [
        {
          "internalType": "address",
          "name": "operator",
          "type": "address"
        },
        {
          "internalType": "bool",
          "name": "_approved",
          "type": "bool"
        }
      ],
      "name": "setApprovalForAll",
      "outputs": [],
      "stateMutability": "nonpayable",
      "type": "function"
    },
    {
      "inputs": [
        {
          "internalType": "bytes4",
          "name": "interfaceId",
          "type": "bytes4"
        }
      ],
      "name": "supportsInterface",
      "outputs": [
        {
          "internalType": "bool",
          "name": "",
          "type": "bool"
        }
      ],
      "stateMutability": "view",
      "type": "function",
      "constant": true
    },
    {
      "inputs": [
        {
          "internalType": "address",
          "name": "from",
          "type": "address"
        },
        {
          "internalType": "address",
          "name": "to",
          "type": "address"
        },
        {
          "internalType": "uint256",
          "name": "tokenId",
          "type": "uint256"
        }
      ],
      "name": "transferFrom",
      "outputs": [],
      "stateMutability": "nonpayable",
      "type": "function"
    },
    {
      "inputs": [
        {
          "internalType": "address",
          "name": "to",
          "type": "address"
        },
        {
          "internalType": "uint256",
          "name": "tokenId",
          "type": "uint256"
        },
        {
          "internalType": "string",
          "name": "tokenURI",
          "type": "string"
        }
      ],
      "name": "mint",
      "outputs": [],
      "stateMutability": "nonpayable",
      "type": "function"
    }
  ],
  "bytecode": "0x608060405234801561001057600080fd5b5060405161086638038061086683398101604081905261002f91610128565b8181600061003d838261022d565b50600161004a828261022d565b50505050506102f2565b7f4e487b7100000000000000000000000000000000000000000000000000000000600052604160045260246000fd5b600082601f83011261009457600080fd5b81516001604060020a03808211156100ae576100ae610054565b604051601f8301601f19908116603f011681019082821181831017156100d6576100d6610054565b816040528381526020925086838588010111156100f257600080fd5b600091505b8382101561011457858201830151818301840152908201906100f7565b600093810190920192909252949350505050565b6000806040838503121561013b57600080fd5b82516001604060020a038082111561015257600080fd5b61015e86838701610083565b9350602085015191508082111561017457600080fd5b5061018185828601610083565b9150509250929050565b60028104600182168061019f57607f821691505b6020821081036101d8577f4e487b7100000000000000000000000000000000000000000000000000000000600052602260045260246000fd5b50919050565b601f821115610228576000818152602081206020601f860104810160208610156102055750805b6020601f860104820191505b8181101561022457828155600101610211565b5050505b505050565b81516001604060020a0381111561024657610246610054565b61025a81610254845461018b565b846101de565b602080601f83116001811461029357600084156102775750858301515b60028086026008870290910a6000190419821617865550610224565b600085815260208120601f198616915b828110156102c2578886015182559484019460019091019084016102a3565b50858210156102e257878501516008601f88160260020a60001904191681555b5050505050600202600101905550565b610565806103016000396000f3fe608060405234801561001057600080fd5b506004361061009c5760e060020a600035046301ffc9a781146100a1578063081812fc146100ca578063095ea7b3146100f057806323b872dd1461010457806342842e0e146101045780636352211e1461011757806370a0823114610140578063a22cb46514610177578063b88d4fde14610185578063d3fc98641461019a578063e985e9c5146101ad575b600080fd5b6100b56100af36600461025b565b50600090565b60405190151581526020015b60405180910390f35b6100d86100af36600461028c565b604051600160a060020a0390911681526020016100c1565b6101026100fe3660046102c1565b5050565b005b6101026101123660046102eb565b6101c3565b6100d861012536600461028c565b600090815260056020526040902054600160a060020a031690565b61016961014e366004610327565b600160a060020a031660009081526004602052604090205490565b6040519081526020016100c1565b6101026100fe366004610342565b61010261019336600461037e565b5050505050565b6101026101a8366004610432565b505050565b6100b56101bb3660046104fc565b600092915050565b600081815260056020526040902054600160a060020a0384811691161461022c5760405160e560020a62461bcd0281526020600482015260136024820152606960020a723737ba103a3432903a37b5b2b71037bbb732b902604482015260640160405180910390fd5b60009081526005602052604090208054600160a060020a031916600160a060020a039290921691909117905550565b60006020828403121561026d57600080fd5b8135600160e060020a03198116811461028557600080fd5b9392505050565b60006020828403121561029e57600080fd5b5035919050565b8035600160a060020a03811681146102bc57600080fd5b919050565b600080604083850312156102d457600080fd5b6102dd836102a5565b946020939093013593505050565b60008060006060848603121561030057600080fd5b610309846102a5565b9250610317602085016102a5565b9150604084013590509250925092565b60006020828403121561033957600080fd5b610285826102a5565b6000806040838503121561035557600080fd5b61035e836102a5565b91506020830135801515811461037357600080fd5b809150509250929050565b60008060008060006080868803121561039657600080fd5b61039f866102a5565b94506103ad602087016102a5565b93506040860135925060608601356001604060020a03808211156103d057600080fd5b818801915088601f8301126103e457600080fd5b8135818111156103f357600080fd5b89602082850101111561040557600080fd5b9699959850939650602001949392505050565b60e060020a634e487b710260009081526041600452602490fd5b60008060006060848603121561044757600080fd5b610450846102a5565b92506020840135915060408401356001604060020a038082111561047357600080fd5b818601915086601f83011261048757600080fd5b81358181111561049957610499610418565b604051601f8201601f19908116603f011681019083821181831017156104c1576104c1610418565b816040528281528960208487010111156104da57600080fd5b8260208601602083013760006020848301015280955050505050509250925092565b6000806040838503121561050f57600080fd5b610518836102a5565b9150610526602084016102a5565b9050925092905056fea264697066735822122090495d4ac020d90d178174a5ab61f94ed88c1bd9c2171499eff7b63dd210004a64736f6c63430008120033",
  "immutableReferences": {},
  "source": "// SPDX-License-Identifier: BSL-1.1\npragma solidity >=0.4.22 <0.9.0;\n\n/**\n * In this contract:\n *\n * 1. We import the OpenZeppelin ERC721 contract and inherit from it to create our custom NFT contract.\n * 2. The constructor is used to set the name and symbol for your NFT collection.\n * 3. The mint function allows the contract owner to create and assign new NFTs to specific addresses. It takes the recipient's address, the NFT's ID, and the URI for the token metadata. \n *    You can extend this contract to include more minting options if needed.\n *\n * To deploy this contract, you need to provide the appropriate arguments (name and symbol) when creating the contract, \n * and you'll be able to mint NFTs with it. Please note that this contract alone won't enable users to register their NFTs for resale; \n * you'd need the NFTCollection contract (as shown in the previous answer) to achieve that functionality. \n * Users can list the NFTs minted from the NFTContract on the NFTCollection for resale.\n */\n\nimport \"../abstract/AERC721.sol\";\n\ncontract NFT is AERC721 {\n    constructor(string memory name, string memory symbol) AERC721(name, symbol) {\n        // The contract is initialized with a name and symbol for your NFTs.\n    }\n\n    // Mint a new NFT and assign it to the given owner\n    function mint(address to, uint256 tokenId, string memory tokenURI) external {\n        _mint(to, tokenId);\n        _setTokenURI(tokenId, tokenURI);\n    }\n\n    // INTERNAL FUNCTIONS\n    function _mint(address to, uint256 tokenId) internal {\n\n    }\n    function _setTokenURI(uint256 tokenId, string memory tokenURI) internal {\n\n    }\n}\n",
  "sourcePath": "/Volumes/My Book/projects/pingleware-contracts/contracts/nft/NFT.sol",
  "compiler": {
    "name": "solc",
    "version": "0.8.18+commit.87f61d96.Emscripten.clang"
  },
  "schemaVersion": "3.4.12",
  "updatedAt": "2023-10-24T19:33:13.195Z",
  "networkType": "ethereum",
  "devdoc": {
    "kind": "dev",
    "methods": {},
    "version": 1
  },
  "userdoc": {
    "kind": "user",
    "methods": {},
    "version": 1
  }
}