{
  "contractName": "NFTCollection",
  "abi": [
    {
      "inputs": [
        {
          "internalType": "address",
          "name": "_nftContractAddress",
          "type": "address"
        }
      ],
      "stateMutability": "nonpayable",
      "type": "constructor"
    },
    {
      "anonymous": false,
      "inputs": [
        {
          "indexed": false,
          "internalType": "uint256",
          "name": "tokenId",
          "type": "uint256"
        },
        {
          "indexed": false,
          "internalType": "uint256",
          "name": "price",
          "type": "uint256"
        }
      ],
      "name": "NFTListed",
      "type": "event"
    },
    {
      "anonymous": false,
      "inputs": [
        {
          "indexed": false,
          "internalType": "uint256",
          "name": "tokenId",
          "type": "uint256"
        }
      ],
      "name": "NFTUnlisted",
      "type": "event"
    },
    {
      "inputs": [],
      "name": "nftContract",
      "outputs": [
        {
          "internalType": "contract IERC721",
          "name": "",
          "type": "address"
        }
      ],
      "stateMutability": "view",
      "type": "function",
      "constant": true
    },
    {
      "inputs": [
        {
          "internalType": "uint256",
          "name": "",
          "type": "uint256"
        }
      ],
      "name": "nfts",
      "outputs": [
        {
          "internalType": "uint256",
          "name": "tokenId",
          "type": "uint256"
        },
        {
          "internalType": "address",
          "name": "owner",
          "type": "address"
        },
        {
          "internalType": "uint256",
          "name": "price",
          "type": "uint256"
        },
        {
          "internalType": "bool",
          "name": "forSale",
          "type": "bool"
        }
      ],
      "stateMutability": "view",
      "type": "function",
      "constant": true
    },
    {
      "inputs": [
        {
          "internalType": "uint256",
          "name": "tokenId",
          "type": "uint256"
        },
        {
          "internalType": "uint256",
          "name": "price",
          "type": "uint256"
        }
      ],
      "name": "listNFTForSale",
      "outputs": [],
      "stateMutability": "nonpayable",
      "type": "function"
    },
    {
      "inputs": [
        {
          "internalType": "uint256",
          "name": "tokenId",
          "type": "uint256"
        }
      ],
      "name": "unlistNFT",
      "outputs": [],
      "stateMutability": "nonpayable",
      "type": "function"
    },
    {
      "inputs": [
        {
          "internalType": "uint256",
          "name": "tokenId",
          "type": "uint256"
        }
      ],
      "name": "purchaseNFT",
      "outputs": [],
      "stateMutability": "payable",
      "type": "function",
      "payable": true
    }
  ],
  "bytecode": "0x608060405234801561001057600080fd5b506040516106ab3803806106ab83398101604081905261002f91610054565b60008054600160a060020a031916600160a060020a0392909216919091179055610084565b60006020828403121561006657600080fd5b8151600160a060020a038116811461007d57600080fd5b9392505050565b610618806100936000396000f3fe60806040526004361061004d5760e060020a6000350463150bde038114610052578063265aa62114610067578063961f0944146100e6578063b2733b3914610106578063d56d229d14610126575b600080fd5b610065610060366004610543565b61015e565b005b34801561007357600080fd5b506100b7610082366004610543565b60016020819052600091825260409091208054918101546002820154600390920154600160a060020a03909116919060ff1684565b60408051948552600160a060020a03909316602085015291830152151560608201526080015b60405180910390f35b3480156100f257600080fd5b50610065610101366004610543565b6102fa565b34801561011257600080fd5b5061006561012136600461055c565b6103aa565b34801561013257600080fd5b5060005461014690600160a060020a031681565b604051600160a060020a0390911681526020016100dd565b6000818152600160205260409020600381015460ff166101c25760405160e560020a62461bcd0281526020600482015260146024820152606160020a7327232a1034b9903737ba103337b91039b0b632970260448201526064015b60405180910390fd5b80600201543410156102175760405160e560020a62461bcd0281526020600482015260186024820152604160020a7724b739bab33334b1b4b2b73a10333ab732399039b2b73a170260448201526064016101b9565b60005460405160e160020a632142170702815230600482015233602482015260448101849052600160a060020a03909116906342842e0e90606401600060405180830381600087803b15801561026c57600080fd5b505af1158015610280573d6000803e3d6000fd5b5050506001820154604051600160a060020a0390911691503480156108fc02916000818181858888f193505050501580156102bf573d6000803e3d6000fd5b5050600090815260016020819052604082208281559081018054600160a060020a03191690556002810191909155600301805460ff19169055565b60008181526001602081905260409091200154600160a060020a031633146103375760405160e560020a62461bcd0281526004016101b99061057e565b60008181526001602081905260408083208381559182018054600160a060020a03191690556002820192909255600301805460ff19169055517fcd14eb7ebf273ed59a9fd1cf8651f3f40d9a04355b3511376f0d17b37ba224ff9061039f9083815260200190565b60405180910390a150565b60005460405160e160020a6331a9108f028152600481018490523391600160a060020a031690636352211e90602401602060405180830381865afa1580156103f6573d6000803e3d6000fd5b505050506040513d601f19601f8201168201806040525081019061041a91906105b2565b600160a060020a0316146104435760405160e560020a62461bcd0281526004016101b99061057e565b600081116104965760405160e560020a62461bcd02815260206004820152601c60248201527f5072696365206d7573742062652067726561746572207468616e20300000000060448201526064016101b9565b6040805160808101825283815233602080830191825282840185815260016060850181815260008981528285528790209551865593519085018054600160a060020a031916600160a060020a0390921691909117905551600284015590516003909201805460ff19169215159290921790915581518481529081018390527fa6cd73580a273eec6c1026108f6b63479fbaef5356dde4ff43e4b38dd187485f910160405180910390a15050565b60006020828403121561055557600080fd5b5035919050565b6000806040838503121561056f57600080fd5b50508035926020909101359150565b6020808252601790820152604960020a762cb7ba903237b713ba1037bbb7103a3434b99027232a1702604082015260600190565b6000602082840312156105c457600080fd5b8151600160a060020a03811681146105db57600080fd5b939250505056fea2646970667358221220d9cde9de8179ff2850ec5a682f6eff462c36bec32724b805798645b11f699ee364736f6c63430008120033",
  "immutableReferences": {},
  "source": "// SPDX-License-Identifier: BSL-1.1\npragma solidity >=0.4.22 <0.9.0;\n\n/**\n * Please note the following:\n *\n * 1. This contract assumes that you are using OpenZeppelin ERC721 library for handling NFTs. You should install this library using npm or yarn and import it as shown in the code.\n * 2. Users need to approve the contract to spend their NFTs on their behalf before listing them for sale. This contract does not handle the approval process but assumes that NFTs \n *    have already been approved.\n * 3. The contract handles basic listing and unlisting of NFTs and allows users to purchase NFTs listed for sale. More advanced features like royalties, auctions, \n *    or a marketplace interface would require additional development.\n * 4. Ensure proper testing, security audits, and legal considerations before deploying any smart contract to a live blockchain network.\n * 5. Be aware that the Ethereum blockchain and Solidity language are continually evolving, and it's essential to use the latest best practices when creating smart contracts.\n */\n\nimport \"../interfaces/IERC721.sol\";\n//import \"@openzeppelin/contracts/access/Ownable.sol\";\n\ncontract NFTCollection {\n    // Address of the NFT contract\n    IERC721 public nftContract;\n\n    // NFT Struct\n    struct NFT {\n        uint256 tokenId;\n        address owner;\n        uint256 price;\n        bool forSale;\n    }\n\n    // Mapping from NFT ID to NFT details\n    mapping(uint256 => NFT) public nfts;\n\n    // Event for when an NFT is listed for sale\n    event NFTListed(uint256 tokenId, uint256 price);\n    \n    // Event for when an NFT is unlisted (taken off the market)\n    event NFTUnlisted(uint256 tokenId);\n\n    constructor(address _nftContractAddress) {\n        nftContract = IERC721(_nftContractAddress);\n    }\n\n    // List an NFT for sale\n    function listNFTForSale(uint256 tokenId, uint256 price) public {\n        require(nftContract.ownerOf(tokenId) == msg.sender, \"You don't own this NFT.\");\n        require(price > 0, \"Price must be greater than 0\");\n\n        nfts[tokenId] = NFT(tokenId, msg.sender, price, true);\n        emit NFTListed(tokenId, price);\n    }\n\n    // Unlist an NFT from sale\n    function unlistNFT(uint256 tokenId) public {\n        require(nfts[tokenId].owner == msg.sender, \"You don't own this NFT.\");\n        delete nfts[tokenId];\n        emit NFTUnlisted(tokenId);\n    }\n\n    // Purchase an NFT\n    function purchaseNFT(uint256 tokenId) public payable {\n        NFT storage nft = nfts[tokenId];\n        require(nft.forSale, \"NFT is not for sale.\");\n        require(msg.value >= nft.price, \"Insufficient funds sent.\");\n\n        // Transfer NFT to the buyer\n        nftContract.safeTransferFrom(address(this), msg.sender, tokenId);\n\n        // Transfer payment to the seller\n        payable(nft.owner).transfer(msg.value);\n\n        // Remove the NFT from the list\n        delete nfts[tokenId];\n    }\n}\n",
  "sourcePath": "/Volumes/My Book/projects/pingleware-contracts/contracts/nft/NFTCollection.sol",
  "compiler": {
    "name": "solc",
    "version": "0.8.18+commit.87f61d96.Emscripten.clang"
  },
  "schemaVersion": "3.4.12",
  "updatedAt": "2023-10-24T03:01:32.447Z",
  "networkType": "ethereum",
  "devdoc": {
    "kind": "dev",
    "methods": {},
    "version": 1
  },
  "userdoc": {
    "kind": "user",
    "methods": {},
    "version": 1
  }
}