{
  "contractName": "Offering",
  "abi": [
    {
      "inputs": [
        {
          "internalType": "address",
          "name": "_contract",
          "type": "address"
        },
        {
          "internalType": "string",
          "name": "name",
          "type": "string"
        },
        {
          "internalType": "string",
          "name": "symbol",
          "type": "string"
        },
        {
          "internalType": "uint256",
          "name": "maxShares",
          "type": "uint256"
        },
        {
          "internalType": "enum Offering.OfferingType",
          "name": "offeringType",
          "type": "uint8"
        }
      ],
      "name": "setOffering",
      "outputs": [],
      "stateMutability": "nonpayable",
      "type": "function"
    },
    {
      "inputs": [
        {
          "internalType": "address",
          "name": "_contract",
          "type": "address"
        },
        {
          "internalType": "uint256",
          "name": "amount",
          "type": "uint256"
        }
      ],
      "name": "setMinimumOffering",
      "outputs": [],
      "stateMutability": "nonpayable",
      "type": "function"
    },
    {
      "inputs": [
        {
          "internalType": "address",
          "name": "_contract",
          "type": "address"
        },
        {
          "internalType": "uint256",
          "name": "amount",
          "type": "uint256"
        }
      ],
      "name": "setMaximumOffering",
      "outputs": [],
      "stateMutability": "nonpayable",
      "type": "function"
    },
    {
      "inputs": [
        {
          "internalType": "address",
          "name": "_contract",
          "type": "address"
        },
        {
          "internalType": "uint256",
          "name": "amount",
          "type": "uint256"
        }
      ],
      "name": "setOfferingStartTime",
      "outputs": [],
      "stateMutability": "nonpayable",
      "type": "function"
    },
    {
      "inputs": [
        {
          "internalType": "address",
          "name": "_contract",
          "type": "address"
        },
        {
          "internalType": "uint256",
          "name": "amount",
          "type": "uint256"
        }
      ],
      "name": "setOfferingEndTime",
      "outputs": [],
      "stateMutability": "nonpayable",
      "type": "function"
    },
    {
      "inputs": [
        {
          "internalType": "address",
          "name": "_contract",
          "type": "address"
        },
        {
          "internalType": "uint256",
          "name": "amount",
          "type": "uint256"
        }
      ],
      "name": "setMaximumAccreditedInvestors",
      "outputs": [],
      "stateMutability": "nonpayable",
      "type": "function"
    },
    {
      "inputs": [
        {
          "internalType": "address",
          "name": "_contract",
          "type": "address"
        },
        {
          "internalType": "uint256",
          "name": "amount",
          "type": "uint256"
        }
      ],
      "name": "setMaximumSopisticatedInvestors",
      "outputs": [],
      "stateMutability": "nonpayable",
      "type": "function"
    },
    {
      "inputs": [
        {
          "internalType": "address",
          "name": "_contract",
          "type": "address"
        },
        {
          "internalType": "uint256",
          "name": "amount",
          "type": "uint256"
        }
      ],
      "name": "setMaximumNonAccreditedInvestors",
      "outputs": [],
      "stateMutability": "nonpayable",
      "type": "function"
    },
    {
      "inputs": [
        {
          "internalType": "address",
          "name": "_contract",
          "type": "address"
        }
      ],
      "name": "getLastTimeRequest",
      "outputs": [
        {
          "internalType": "uint256",
          "name": "",
          "type": "uint256"
        }
      ],
      "stateMutability": "view",
      "type": "function"
    },
    {
      "inputs": [
        {
          "internalType": "address",
          "name": "_contract",
          "type": "address"
        }
      ],
      "name": "getOffering",
      "outputs": [
        {
          "components": [
            {
              "internalType": "string",
              "name": "name",
              "type": "string"
            },
            {
              "internalType": "string",
              "name": "symbol",
              "type": "string"
            },
            {
              "internalType": "uint256",
              "name": "maxShares",
              "type": "uint256"
            },
            {
              "internalType": "enum Offering.OfferingType",
              "name": "offeringType",
              "type": "uint8"
            },
            {
              "internalType": "uint256",
              "name": "minOffering",
              "type": "uint256"
            },
            {
              "internalType": "uint256",
              "name": "maxOffering",
              "type": "uint256"
            },
            {
              "internalType": "uint256",
              "name": "started",
              "type": "uint256"
            },
            {
              "internalType": "uint256",
              "name": "expiry",
              "type": "uint256"
            },
            {
              "internalType": "uint256",
              "name": "maxAccredited",
              "type": "uint256"
            },
            {
              "internalType": "uint256",
              "name": "maxSophisticated",
              "type": "uint256"
            },
            {
              "internalType": "uint256",
              "name": "maxNonAccredited",
              "type": "uint256"
            },
            {
              "internalType": "uint256",
              "name": "lastTimeRequest",
              "type": "uint256"
            }
          ],
          "internalType": "struct Offering.OfferingInfo",
          "name": "",
          "type": "tuple"
        }
      ],
      "stateMutability": "view",
      "type": "function"
    }
  ],
  "bytecode": "0x608060405234801561001057600080fd5b50610eba806100206000396000f3fe608060405234801561001057600080fd5b50600436106100915760e060020a60003504630f9c6d178114610096578063490ced4f146100ab5780636c583f9e146100be578063958237a4146100e75780639dcda202146100fa578063bf9e86af1461010d578063da4de3ab1461012e578063edff764614610141578063fe6a241214610154578063fee8007314610167575b600080fd5b6100a96100a43660046109f4565b61017a565b005b6100a96100b9366004610ac4565b610205565b6100d16100cc366004610b5a565b61039e565b6040516100de9190610c02565b60405180910390f35b6100a96100f53660046109f4565b6105b3565b6100a96101083660046109f4565b610635565b61012061011b366004610b5a565b6106b7565b6040519081526020016100de565b6100a961013c3660046109f4565b61073a565b6100a961014f3660046109f4565b6107bc565b6100a96101623660046109f4565b61083e565b6100a96101753660046109f4565b6108c0565b81600160a060020a0381166101ad5760405160e560020a62461bcd0281526004016101a490610ccb565b60405180910390fd5b600160a060020a0383166101d65760405160e560020a62461bcd0281526004016101a490610d02565b816101df610942565b600160a060020a0390941660009081526020949094526040909320600601929092555050565b84600160a060020a03811661022f5760405160e560020a62461bcd0281526004016101a490610ccb565b600160a060020a0386166102585760405160e560020a62461bcd0281526004016101a490610d02565b600060405180610180016040528087815260200186815260200185815260200184600c81111561028a5761028a610bc2565b81526020016000815260200160008152602001600081526020016000815260200160008152602001600081526020016000815260200160008152509050806102d0610942565b600160a060020a038916600090815260209190915260409020815181906102f79082610dbf565b506020820151600182019061030c9082610dbf565b5060408201516002820155606082015160038201805460ff1916600183600c81111561033a5761033a610bc2565b02179055506080820151600482015560a0820151600582015560c0820151600682015560e0820151600782015561010082015160088201556101208201516009820155610140820151600a82015561016090910151600b9091015550505050505050565b6103a6610966565b600160a060020a0382166103cf5760405160e560020a62461bcd0281526004016101a490610d02565b6103d7610942565b600160a060020a03831660009081526020919091526040908190208151610180810190925280548290829061040b90610d38565b80601f016020809104026020016040519081016040528092919081815260200182805461043790610d38565b80156104845780601f1061045957610100808354040283529160200191610484565b820191906000526020600020905b81548152906001019060200180831161046757829003601f168201915b5050505050815260200160018201805461049d90610d38565b80601f01602080910402602001604051908101604052809291908181526020018280546104c990610d38565b80156105165780601f106104eb57610100808354040283529160200191610516565b820191906000526020600020905b8154815290600101906020018083116104f957829003601f168201915b505050918352505060028201546020820152600382015460409091019060ff16600c81111561054757610547610bc2565b600c81111561055857610558610bc2565b815260048201546020820152600582015460408201526006820154606082015260078201546080820152600882015460a0820152600982015460c0820152600a82015460e0820152600b909101546101009091015292915050565b81600160a060020a0381166105dd5760405160e560020a62461bcd0281526004016101a490610ccb565b600160a060020a0383166106065760405160e560020a62461bcd0281526004016101a490610d02565b8161060f610942565b600160a060020a0390941660009081526020949094526040909320600401929092555050565b81600160a060020a03811661065f5760405160e560020a62461bcd0281526004016101a490610ccb565b600160a060020a0383166106885760405160e560020a62461bcd0281526004016101a490610d02565b81610691610942565b600160a060020a0390941660009081526020949094526040909320600701929092555050565b600081600160a060020a0381166106e35760405160e560020a62461bcd0281526004016101a490610ccb565b600160a060020a03831661070c5760405160e560020a62461bcd0281526004016101a490610d02565b610714610942565b600160a060020a038416600090815260209190915260409020600b015491505b50919050565b81600160a060020a0381166107645760405160e560020a62461bcd0281526004016101a490610ccb565b600160a060020a03831661078d5760405160e560020a62461bcd0281526004016101a490610d02565b81610796610942565b600160a060020a0390941660009081526020949094526040909320600801929092555050565b81600160a060020a0381166107e65760405160e560020a62461bcd0281526004016101a490610ccb565b600160a060020a03831661080f5760405160e560020a62461bcd0281526004016101a490610d02565b81610818610942565b600160a060020a0390941660009081526020949094526040909320600a01929092555050565b81600160a060020a0381166108685760405160e560020a62461bcd0281526004016101a490610ccb565b600160a060020a0383166108915760405160e560020a62461bcd0281526004016101a490610d02565b8161089a610942565b600160a060020a0390941660009081526020949094526040909320600501929092555050565b81600160a060020a0381166108ea5760405160e560020a62461bcd0281526004016101a490610ccb565b600160a060020a0383166109135760405160e560020a62461bcd0281526004016101a490610d02565b8161091c610942565b600160a060020a0390941660009081526020949094526040909320600901929092555050565b7f427e6705bccb6c7cf56a3eaaebdad56f4f7f0c2441192e062721ccbc09867b8090565b6040518061018001604052806060815260200160608152602001600081526020016000600c81111561099a5761099a610bc2565b815260200160008152602001600081526020016000815260200160008152602001600081526020016000815260200160008152602001600081525090565b8035600160a060020a03811681146109ef57600080fd5b919050565b60008060408385031215610a0757600080fd5b610a10836109d8565b946020939093013593505050565b60e060020a634e487b710260009081526041600452602490fd5b600082601f830112610a4957600080fd5b81356001604060020a0380821115610a6357610a63610a1e565b604051601f8301601f19908116603f01168101908282118183101715610a8b57610a8b610a1e565b81604052838152866020858801011115610aa457600080fd5b836020870160208301376000602085830101528094505050505092915050565b600080600080600060a08688031215610adc57600080fd5b610ae5866109d8565b945060208601356001604060020a0380821115610b0157600080fd5b610b0d89838a01610a38565b95506040880135915080821115610b2357600080fd5b50610b3088828901610a38565b935050606086013591506080860135600d8110610b4c57600080fd5b809150509295509295909350565b600060208284031215610b6c57600080fd5b610b75826109d8565b9392505050565b6000815180845260005b81811015610ba257602081850181015186830182015201610b86565b506000602082860101526020601f19601f83011685010191505092915050565b60e060020a634e487b710260009081526021600452602490fd5b600d8110610bfe5760e060020a634e487b710260009081526021600452602490fd5b9052565b6020815260008251610180806020850152610c216101a0850183610b7c565b91506020850151601f19858403016040860152610c3e8382610b7c565b925050604085015160608501526060850151610c5d6080860182610bdc565b50608085015160a085015260a085015160c085015260c085015160e085015260e0850151610100818187015280870151915050610120818187015280870151915050610140818187015280870151915050610160818187015280870151838701525050508091505092915050565b6020808252601a908201527f7a65726f2061646472657373206e6f74207065726d6974746564000000000000604082015260600190565b6020808252601990820152603a60020a781a5b9d985b1a59081bd999995c9a5b99c818dbdb9d1c9858dd02604082015260600190565b600281046001821680610d4c57607f821691505b6020821081036107345760e060020a634e487b710260009081526022600452602490fd5b601f821115610dba576000818152602081206020601f86010481016020861015610d975750805b6020601f860104820191505b81811015610db657828155600101610da3565b5050505b505050565b81516001604060020a03811115610dd857610dd8610a1e565b610dec81610de68454610d38565b84610d70565b602080601f831160018114610e255760008415610e095750858301515b60028086026008870290910a6000190419821617865550610db6565b600085815260208120601f198616915b82811015610e5457888601518255948401946001909101908401610e35565b5085821015610e7457878501516008601f88160260020a60001904191681555b505050505060020260010190555056fea2646970667358221220aeda89d7a1aba15faff328f1da9ec406f6e834a4127de79353e83019bc8fa04864736f6c63430008120033",
  "immutableReferences": {},
  "source": "// SPDX-License-Identifier: CC-BY-4.0\r\npragma solidity >=0.4.22 <0.9.0;\r\n\r\ncontract Offering {\r\n\r\n    enum OfferingType {\r\n        SECTION3A11,\r\n        RULE147,\r\n        RULE147A,\r\n        SECTION4A2,\r\n        RULE504,\r\n        RULE505,\r\n        RULE506B,\r\n        RULE506C,\r\n        RULE701,\r\n        REGAT1,\r\n        REGAT2,\r\n        REGS,\r\n        S1\r\n    }\r\n\r\n    struct OfferingInfo {\r\n        string          name;\r\n        string          symbol;\r\n        uint256         maxShares;\r\n        OfferingType    offeringType;\r\n        uint256         minOffering;\r\n        uint256         maxOffering;\r\n        uint256         started;\r\n        uint256         expiry;\r\n        uint256         maxAccredited;\r\n        uint256         maxSophisticated;\r\n        uint256         maxNonAccredited;\r\n        uint256         lastTimeRequest;\r\n    }\r\n\r\n    struct OfferingStorage {\r\n        mapping (address => OfferingInfo) offerings;\r\n    }\r\n\r\n    modifier isValidAddress(address addr) {\r\n        require (addr != address(0), \"zero address not permitted\");\r\n        _;\r\n    }\r\n\r\n    function offeringStorage()\r\n        internal\r\n        pure\r\n        returns (OfferingStorage storage ds)\r\n    {\r\n        bytes32 position = keccak256(\"offering.storage\");\r\n        assembly { ds.slot := position }\r\n    }\r\n\r\n    function setOffering(address _contract,\r\n                         string memory name, \r\n                         string memory symbol, \r\n                         uint256 maxShares, \r\n                         OfferingType offeringType\r\n                        )\r\n        external\r\n        isValidAddress(_contract)\r\n    {\r\n        require(_contract != address(0x0),\"invalid offering contract\");\r\n        OfferingInfo memory offering = OfferingInfo(name,symbol,maxShares,offeringType,0,0,0,0,0,0,0,0);\r\n        offeringStorage().offerings[_contract] = offering;\r\n    }\r\n\r\n    function setMinimumOffering(address _contract, uint256 amount)\r\n        external\r\n        isValidAddress(_contract)\r\n    {\r\n        require(_contract != address(0x0),\"invalid offering contract\");\r\n        offeringStorage().offerings[_contract].minOffering = amount;\r\n    }\r\n    function setMaximumOffering(address _contract, uint256 amount)\r\n        external\r\n        isValidAddress(_contract)\r\n    {\r\n        require(_contract != address(0x0),\"invalid offering contract\");\r\n        offeringStorage().offerings[_contract].maxOffering = amount;\r\n    }\r\n    function setOfferingStartTime(address _contract, uint256 amount)\r\n        external\r\n        isValidAddress(_contract)\r\n    {\r\n        require(_contract != address(0x0),\"invalid offering contract\");\r\n        offeringStorage().offerings[_contract].started = amount;\r\n    }\r\n    function setOfferingEndTime(address _contract, uint256 amount)\r\n        external\r\n        isValidAddress(_contract)\r\n    {\r\n        require(_contract != address(0x0),\"invalid offering contract\");\r\n        offeringStorage().offerings[_contract].expiry = amount;\r\n    }\r\n    function setMaximumAccreditedInvestors(address _contract, uint256 amount)\r\n        external\r\n        isValidAddress(_contract)\r\n    {\r\n        require(_contract != address(0x0),\"invalid offering contract\");\r\n        offeringStorage().offerings[_contract].maxAccredited = amount;\r\n    }\r\n    function setMaximumSopisticatedInvestors(address _contract, uint256 amount)\r\n        external\r\n        isValidAddress(_contract)\r\n    {\r\n        require(_contract != address(0x0),\"invalid offering contract\");\r\n        offeringStorage().offerings[_contract].maxSophisticated = amount;\r\n    }\r\n    function setMaximumNonAccreditedInvestors(address _contract, uint256 amount)\r\n        external\r\n        isValidAddress(_contract)\r\n    {\r\n        require(_contract != address(0x0),\"invalid offering contract\");\r\n        offeringStorage().offerings[_contract].maxNonAccredited = amount;\r\n    }\r\n    function getLastTimeRequest(address _contract)\r\n        external\r\n        view\r\n        isValidAddress(_contract)\r\n        returns (uint256)\r\n    {\r\n        require(_contract != address(0x0),\"invalid offering contract\");\r\n        return offeringStorage().offerings[_contract].lastTimeRequest;\r\n    }\r\n\r\n\r\n    function getOffering(address _contract)\r\n        external\r\n        view\r\n        returns (OfferingInfo memory)\r\n    {\r\n        require(_contract != address(0x0),\"invalid offering contract\");\r\n        return offeringStorage().offerings[_contract];\r\n    }\r\n\r\n}",
  "sourcePath": "/Volumes/My Book/projects/pingleware-contracts/contracts/finance/Offering.sol",
  "compiler": {
    "name": "solc",
    "version": "0.8.18+commit.87f61d96.Emscripten.clang"
  },
  "schemaVersion": "3.4.12",
  "updatedAt": "2023-10-22T00:34:41.270Z",
  "devdoc": {
    "kind": "dev",
    "methods": {},
    "version": 1
  },
  "userdoc": {
    "kind": "user",
    "methods": {},
    "version": 1
  }
}