{
  "contractName": "Offering",
  "abi": [
    {
      "inputs": [
        {
          "internalType": "address",
          "name": "_contract",
          "type": "address"
        },
        {
          "internalType": "string",
          "name": "name",
          "type": "string"
        },
        {
          "internalType": "string",
          "name": "symbol",
          "type": "string"
        },
        {
          "internalType": "uint256",
          "name": "maxShares",
          "type": "uint256"
        },
        {
          "internalType": "enum Offering.OfferingType",
          "name": "offeringType",
          "type": "uint8"
        }
      ],
      "name": "setOffering",
      "outputs": [],
      "stateMutability": "nonpayable",
      "type": "function"
    },
    {
      "inputs": [
        {
          "internalType": "address",
          "name": "_contract",
          "type": "address"
        },
        {
          "internalType": "uint256",
          "name": "amount",
          "type": "uint256"
        }
      ],
      "name": "setMinimumOffering",
      "outputs": [],
      "stateMutability": "nonpayable",
      "type": "function"
    },
    {
      "inputs": [
        {
          "internalType": "address",
          "name": "_contract",
          "type": "address"
        },
        {
          "internalType": "uint256",
          "name": "amount",
          "type": "uint256"
        }
      ],
      "name": "setMaximumOffering",
      "outputs": [],
      "stateMutability": "nonpayable",
      "type": "function"
    },
    {
      "inputs": [
        {
          "internalType": "address",
          "name": "_contract",
          "type": "address"
        },
        {
          "internalType": "uint256",
          "name": "amount",
          "type": "uint256"
        }
      ],
      "name": "setOfferingStartTime",
      "outputs": [],
      "stateMutability": "nonpayable",
      "type": "function"
    },
    {
      "inputs": [
        {
          "internalType": "address",
          "name": "_contract",
          "type": "address"
        },
        {
          "internalType": "uint256",
          "name": "amount",
          "type": "uint256"
        }
      ],
      "name": "setOfferingEndTime",
      "outputs": [],
      "stateMutability": "nonpayable",
      "type": "function"
    },
    {
      "inputs": [
        {
          "internalType": "address",
          "name": "_contract",
          "type": "address"
        },
        {
          "internalType": "uint256",
          "name": "amount",
          "type": "uint256"
        }
      ],
      "name": "setMaximumAccreditedInvestors",
      "outputs": [],
      "stateMutability": "nonpayable",
      "type": "function"
    },
    {
      "inputs": [
        {
          "internalType": "address",
          "name": "_contract",
          "type": "address"
        },
        {
          "internalType": "uint256",
          "name": "amount",
          "type": "uint256"
        }
      ],
      "name": "setMaximumSopisticatedInvestors",
      "outputs": [],
      "stateMutability": "nonpayable",
      "type": "function"
    },
    {
      "inputs": [
        {
          "internalType": "address",
          "name": "_contract",
          "type": "address"
        },
        {
          "internalType": "uint256",
          "name": "amount",
          "type": "uint256"
        }
      ],
      "name": "setMaximumNonAccreditedInvestors",
      "outputs": [],
      "stateMutability": "nonpayable",
      "type": "function"
    },
    {
      "inputs": [
        {
          "internalType": "address",
          "name": "_contract",
          "type": "address"
        }
      ],
      "name": "getLastTimeRequest",
      "outputs": [
        {
          "internalType": "uint256",
          "name": "",
          "type": "uint256"
        }
      ],
      "stateMutability": "view",
      "type": "function"
    },
    {
      "inputs": [
        {
          "internalType": "address",
          "name": "_contract",
          "type": "address"
        }
      ],
      "name": "getOffering",
      "outputs": [
        {
          "components": [
            {
              "internalType": "string",
              "name": "name",
              "type": "string"
            },
            {
              "internalType": "string",
              "name": "symbol",
              "type": "string"
            },
            {
              "internalType": "uint256",
              "name": "maxShares",
              "type": "uint256"
            },
            {
              "internalType": "enum Offering.OfferingType",
              "name": "offeringType",
              "type": "uint8"
            },
            {
              "internalType": "uint256",
              "name": "minOffering",
              "type": "uint256"
            },
            {
              "internalType": "uint256",
              "name": "maxOffering",
              "type": "uint256"
            },
            {
              "internalType": "uint256",
              "name": "started",
              "type": "uint256"
            },
            {
              "internalType": "uint256",
              "name": "expiry",
              "type": "uint256"
            },
            {
              "internalType": "uint256",
              "name": "maxAccredited",
              "type": "uint256"
            },
            {
              "internalType": "uint256",
              "name": "maxSophisticated",
              "type": "uint256"
            },
            {
              "internalType": "uint256",
              "name": "maxNonAccredited",
              "type": "uint256"
            },
            {
              "internalType": "uint256",
              "name": "lastTimeRequest",
              "type": "uint256"
            }
          ],
          "internalType": "struct Offering.OfferingInfo",
          "name": "",
          "type": "tuple"
        }
      ],
      "stateMutability": "view",
      "type": "function"
    }
  ],
  "bytecode": "0x6080806040523461001657610c0f908161001c8239f35b600080fdfe6080604052600436101561001257600080fd5b60e060020a60003504630f9c6d1781146108ea578063490ced4f146104ff5780636c583f9e146102fa578063958237a4146102a35780639dcda2021461024c578063bf9e86af146101f3578063da4de3ab1461019c578063edff764614610145578063fe6a2412146100ee5763fee800731461008d57600080fd5b346100e95760403660031901126100e957600160a060020a036100ae610941565b166100c38115156100be81610a2c565b610a7b565b600052600080516020610bba833981519152602052602435600960406000200155600080f35b600080fd5b346100e95760403660031901126100e957600160a060020a0361010f610941565b1661011f8115156100be81610a2c565b600052600080516020610bba833981519152602052602435600560406000200155600080f35b346100e95760403660031901126100e957600160a060020a03610166610941565b166101768115156100be81610a2c565b600052600080516020610bba833981519152602052602435600a60406000200155600080f35b346100e95760403660031901126100e957600160a060020a036101bd610941565b166101cd8115156100be81610a2c565b600052600080516020610bba833981519152602052602435600860406000200155600080f35b346100e95760203660031901126100e957600160a060020a03610214610941565b166102248115156100be81610a2c565b600052600080516020610bba8339815191526020526020600b60406000200154604051908152f35b346100e95760403660031901126100e957600160a060020a0361026d610941565b1661027d8115156100be81610a2c565b600052600080516020610bba833981519152602052602435600760406000200155600080f35b346100e95760403660031901126100e957600160a060020a036102c4610941565b166102d48115156100be81610a2c565b600052600080516020610bba833981519152602052602435600460406000200155600080f35b346100e95760203660031901126100e957610313610941565b600061016060405161032481610957565b60608152606060208201528260408201528260608201528260808201528260a08201528260c08201528260e08201528261010082015282610120820152826101408201520152600160a060020a031661037e811515610a7b565b600052600080516020610bba8339815191526020526040600020600b604051916103a783610957565b6103b081610b14565b83526103be60018201610b14565b6020840152600281015460408401526103e160ff60038301541660608501610ac9565b60048101546080840152600581015460a0840152600681015460c0840152600781015460e084015260088101546101008401526009810154610120840152600a8101546101408401520154610160820152604051906020825261046b610455825161018060208601526101a08501906109ec565b6020830151848203601f190160408601526109ec565b604082015160608401526060820151600d8110156104e5578392610160916080850152608081015160a085015260a081015160c085015260c081015160e085015260e08101516101008501526101008101516101208501526101208101516101408501526101408101518285015201516101808301520390f35b60e060020a634e487b710260009081526021600452602490fd5b346100e95760a03660031901126100e957610518610941565b6024356001604060020a0381116100e957610537903690600401610996565b906044356001604060020a0381116100e957610557903690600401610996565b9060843591600d8310156100e95761057d600160a060020a03831615156100be81610a2c565b6040519361058a85610957565b8452602084015260643560408401526105a7606084019283610ac9565b60006080840152600060a0840152600060c0840152600060e08401526000610100840152600061012084015260006101408401526000610160840152600160a060020a0316600052600080516020610bba83398151915260205260406000209180518051906001604060020a03821161080a5781906106268654610ad5565b601f811161089a575b50602090601f831160011461082f57600092610824575b5050816002029160080260020a6000190419161783555b60208101518051906001604060020a03821161080a5781906106826001870154610ad5565b601f81116107b7575b50602090601f83116001146107475760009261073c575b5050816002029160080260020a6000190419161760018401555b6040810151600284015560038301915190600d8210156104e557600b926101609260ff801983541691161790556080810151600485015560a0810151600585015560c0810151600685015560e0810151600785015561010081015160088501556101208101516009850155610140810151600a8501550151910155600080f35b0151905085806106a2565b600187016000908152602081209350601f198516905b81811061079f57509160029391856001969410610784575b505050020160018401556106bc565b01516008601f841602840a6000190419169055868080610775565b9293602060018192878601518155019501930161075d565b9091506001860160005260206000206020601f850104810160208510610803575b90849392915b6020601f840104820181106107f457505061068b565b600081558594506001016107de565b50806107d8565b60e060020a634e487b710260009081526041600452602490fd5b015190508580610646565b60008781526020812093505b601f19851681106108825750918391600293600195601f19811610610867575b5050500201835561065d565b01516008601f841602840a600019041916905586808061085b565b9192602060018192868501518155019401920161083b565b9091508560005260206000206020601f8501048101602085106108e3575b90849392915b6020601f840104820181106108d457505061062f565b600081558594506001016108be565b50806108b8565b346100e95760403660031901126100e957600160a060020a0361090b610941565b1661091b8115156100be81610a2c565b600052600080516020610bba833981519152602052602435600660406000200155600080f35b60043590600160a060020a03821682036100e957565b61018081019081106001604060020a0382111761080a57604052565b601f909101601f19168101906001604060020a0382119082101761080a57604052565b81601f820112156100e9578035906001604060020a03821161080a57604051926109ca601f8401601f191660200185610973565b828452602083830101116100e957816000926020809301838601378301015290565b919082519283825260005b848110610a18575050826000602080949584010152601f8019910116010190565b6020818301810151848301820152016109f7565b15610a3357565b60405160e560020a62461bcd02815260206004820152601a60248201527f7a65726f2061646472657373206e6f74207065726d69747465640000000000006044820152606490fd5b15610a8257565b60405160e560020a62461bcd0281526020600482015260196024820152603a60020a781a5b9d985b1a59081bd999995c9a5b99c818dbdb9d1c9858dd026044820152606490fd5b600d8210156104e55752565b9060016002830492168015610b0a575b6020831014610af057565b60e060020a634e487b710260009081526022600452602490fd5b91607f1691610ae5565b9060405191826000825492610b2884610ad5565b908184526001948581169081600014610b975750600114610b54575b5050610b5292500383610973565b565b9093915060005260209081600020936000915b818310610b7f575050610b5293508201013880610b44565b85548884018501529485019487945091830191610b67565b915050610b5294506020925060ff191682840152151581028201013880610b4456fe427e6705bccb6c7cf56a3eaaebdad56f4f7f0c2441192e062721ccbc09867b80a26469706673582212207270563b53e3916991adc552fc02976ddce45806e70cab1b03ea49f894cf5c7664736f6c63430008120033",
  "immutableReferences": {},
  "source": "// SPDX-License-Identifier: CC-BY-4.0\r\npragma solidity >=0.4.22 <0.9.0;\r\n\r\ncontract Offering {\r\n\r\n    enum OfferingType {\r\n        SECTION3A11,\r\n        RULE147,\r\n        RULE147A,\r\n        SECTION4A2,\r\n        RULE504,\r\n        RULE505,\r\n        RULE506B,\r\n        RULE506C,\r\n        RULE701,\r\n        REGAT1,\r\n        REGAT2,\r\n        REGS,\r\n        S1\r\n    }\r\n\r\n    struct OfferingInfo {\r\n        string          name;\r\n        string          symbol;\r\n        uint256         maxShares;\r\n        OfferingType    offeringType;\r\n        uint256         minOffering;\r\n        uint256         maxOffering;\r\n        uint256         started;\r\n        uint256         expiry;\r\n        uint256         maxAccredited;\r\n        uint256         maxSophisticated;\r\n        uint256         maxNonAccredited;\r\n        uint256         lastTimeRequest;\r\n    }\r\n\r\n    struct OfferingStorage {\r\n        mapping (address => OfferingInfo) offerings;\r\n    }\r\n\r\n    modifier isValidAddress(address addr) {\r\n        require (addr != address(0), \"zero address not permitted\");\r\n        _;\r\n    }\r\n\r\n    function offeringStorage()\r\n        internal\r\n        pure\r\n        returns (OfferingStorage storage ds)\r\n    {\r\n        bytes32 position = keccak256(\"offering.storage\");\r\n        assembly { ds.slot := position }\r\n    }\r\n\r\n    function setOffering(address _contract,\r\n                         string memory name, \r\n                         string memory symbol, \r\n                         uint256 maxShares, \r\n                         OfferingType offeringType\r\n                        )\r\n        external\r\n        isValidAddress(_contract)\r\n    {\r\n        require(_contract != address(0x0),\"invalid offering contract\");\r\n        OfferingInfo memory offering = OfferingInfo(name,symbol,maxShares,offeringType,0,0,0,0,0,0,0,0);\r\n        offeringStorage().offerings[_contract] = offering;\r\n    }\r\n\r\n    function setMinimumOffering(address _contract, uint256 amount)\r\n        external\r\n        isValidAddress(_contract)\r\n    {\r\n        require(_contract != address(0x0),\"invalid offering contract\");\r\n        offeringStorage().offerings[_contract].minOffering = amount;\r\n    }\r\n    function setMaximumOffering(address _contract, uint256 amount)\r\n        external\r\n        isValidAddress(_contract)\r\n    {\r\n        require(_contract != address(0x0),\"invalid offering contract\");\r\n        offeringStorage().offerings[_contract].maxOffering = amount;\r\n    }\r\n    function setOfferingStartTime(address _contract, uint256 amount)\r\n        external\r\n        isValidAddress(_contract)\r\n    {\r\n        require(_contract != address(0x0),\"invalid offering contract\");\r\n        offeringStorage().offerings[_contract].started = amount;\r\n    }\r\n    function setOfferingEndTime(address _contract, uint256 amount)\r\n        external\r\n        isValidAddress(_contract)\r\n    {\r\n        require(_contract != address(0x0),\"invalid offering contract\");\r\n        offeringStorage().offerings[_contract].expiry = amount;\r\n    }\r\n    function setMaximumAccreditedInvestors(address _contract, uint256 amount)\r\n        external\r\n        isValidAddress(_contract)\r\n    {\r\n        require(_contract != address(0x0),\"invalid offering contract\");\r\n        offeringStorage().offerings[_contract].maxAccredited = amount;\r\n    }\r\n    function setMaximumSopisticatedInvestors(address _contract, uint256 amount)\r\n        external\r\n        isValidAddress(_contract)\r\n    {\r\n        require(_contract != address(0x0),\"invalid offering contract\");\r\n        offeringStorage().offerings[_contract].maxSophisticated = amount;\r\n    }\r\n    function setMaximumNonAccreditedInvestors(address _contract, uint256 amount)\r\n        external\r\n        isValidAddress(_contract)\r\n    {\r\n        require(_contract != address(0x0),\"invalid offering contract\");\r\n        offeringStorage().offerings[_contract].maxNonAccredited = amount;\r\n    }\r\n    function getLastTimeRequest(address _contract)\r\n        external\r\n        view\r\n        isValidAddress(_contract)\r\n        returns (uint256)\r\n    {\r\n        require(_contract != address(0x0),\"invalid offering contract\");\r\n        return offeringStorage().offerings[_contract].lastTimeRequest;\r\n    }\r\n\r\n\r\n    function getOffering(address _contract)\r\n        external\r\n        view\r\n        returns (OfferingInfo memory)\r\n    {\r\n        require(_contract != address(0x0),\"invalid offering contract\");\r\n        return offeringStorage().offerings[_contract];\r\n    }\r\n\r\n}",
  "sourcePath": "/Volumes/HOME/pingleware-contracts/contracts/finance/Offering.sol",
  "compiler": {
    "name": "solc",
    "version": "0.8.18+commit.87f61d96.Emscripten.clang"
  },
  "schemaVersion": "3.4.12",
  "updatedAt": "2024-05-23T18:56:25.176Z",
  "devdoc": {
    "kind": "dev",
    "methods": {},
    "version": 1
  },
  "userdoc": {
    "kind": "user",
    "methods": {},
    "version": 1
  }
}