{
  "contractName": "OrderBook",
  "abi": [
    {
      "inputs": [
        {
          "internalType": "address",
          "name": "memberPoolAddress",
          "type": "address"
        },
        {
          "internalType": "address",
          "name": "catContractAddress",
          "type": "address"
        },
        {
          "internalType": "address",
          "name": "exchangeFeeAddress",
          "type": "address"
        }
      ],
      "stateMutability": "nonpayable",
      "type": "constructor"
    },
    {
      "anonymous": false,
      "inputs": [
        {
          "indexed": true,
          "internalType": "string",
          "name": "currencyPair",
          "type": "string"
        },
        {
          "indexed": true,
          "internalType": "address",
          "name": "trader",
          "type": "address"
        },
        {
          "indexed": false,
          "internalType": "uint256",
          "name": "amount",
          "type": "uint256"
        },
        {
          "indexed": false,
          "internalType": "uint256",
          "name": "price",
          "type": "uint256"
        }
      ],
      "name": "BuyOrderPlaced",
      "type": "event"
    },
    {
      "anonymous": false,
      "inputs": [
        {
          "indexed": false,
          "internalType": "uint256",
          "name": "newPercentage",
          "type": "uint256"
        }
      ],
      "name": "FeePercentageUpdated",
      "type": "event"
    },
    {
      "anonymous": false,
      "inputs": [
        {
          "indexed": true,
          "internalType": "address",
          "name": "newRecipient",
          "type": "address"
        }
      ],
      "name": "FeeRecipientUpdated",
      "type": "event"
    },
    {
      "anonymous": false,
      "inputs": [
        {
          "indexed": false,
          "internalType": "address",
          "name": "sender",
          "type": "address"
        },
        {
          "indexed": false,
          "internalType": "string",
          "name": "symbol",
          "type": "string"
        },
        {
          "indexed": false,
          "internalType": "uint256",
          "name": "orderId",
          "type": "uint256"
        }
      ],
      "name": "ManipulativeBehaviorDetected",
      "type": "event"
    },
    {
      "anonymous": false,
      "inputs": [
        {
          "indexed": false,
          "internalType": "address",
          "name": "sender",
          "type": "address"
        },
        {
          "indexed": false,
          "internalType": "string",
          "name": "symbol",
          "type": "string"
        },
        {
          "indexed": false,
          "internalType": "uint256",
          "name": "orderId",
          "type": "uint256"
        }
      ],
      "name": "MarketAbuseDetetcted",
      "type": "event"
    },
    {
      "anonymous": false,
      "inputs": [
        {
          "indexed": true,
          "internalType": "string",
          "name": "currencyPair",
          "type": "string"
        },
        {
          "indexed": true,
          "internalType": "address",
          "name": "trader",
          "type": "address"
        },
        {
          "indexed": false,
          "internalType": "uint256",
          "name": "amount",
          "type": "uint256"
        },
        {
          "indexed": false,
          "internalType": "uint256",
          "name": "price",
          "type": "uint256"
        }
      ],
      "name": "SellOrderPlaced",
      "type": "event"
    },
    {
      "anonymous": false,
      "inputs": [
        {
          "indexed": true,
          "internalType": "string",
          "name": "currencyPair",
          "type": "string"
        },
        {
          "indexed": true,
          "internalType": "address",
          "name": "buyer",
          "type": "address"
        },
        {
          "indexed": true,
          "internalType": "address",
          "name": "seller",
          "type": "address"
        },
        {
          "indexed": false,
          "internalType": "uint256",
          "name": "amount",
          "type": "uint256"
        },
        {
          "indexed": false,
          "internalType": "uint256",
          "name": "price",
          "type": "uint256"
        }
      ],
      "name": "TradeExecuted",
      "type": "event"
    },
    {
      "anonymous": false,
      "inputs": [
        {
          "indexed": false,
          "internalType": "address",
          "name": "sender",
          "type": "address"
        },
        {
          "indexed": false,
          "internalType": "uint256",
          "name": "amount",
          "type": "uint256"
        }
      ],
      "name": "ValueTransferred",
      "type": "event"
    },
    {
      "inputs": [],
      "name": "FeePercentage",
      "outputs": [
        {
          "internalType": "uint256",
          "name": "",
          "type": "uint256"
        }
      ],
      "stateMutability": "view",
      "type": "function"
    },
    {
      "inputs": [
        {
          "internalType": "string",
          "name": "",
          "type": "string"
        },
        {
          "internalType": "uint256",
          "name": "",
          "type": "uint256"
        }
      ],
      "name": "buyOrders",
      "outputs": [
        {
          "internalType": "uint256",
          "name": "orderId",
          "type": "uint256"
        },
        {
          "internalType": "address",
          "name": "wallet",
          "type": "address"
        },
        {
          "internalType": "uint256",
          "name": "quantity",
          "type": "uint256"
        },
        {
          "internalType": "uint256",
          "name": "price",
          "type": "uint256"
        },
        {
          "internalType": "uint256",
          "name": "paid",
          "type": "uint256"
        }
      ],
      "stateMutability": "view",
      "type": "function"
    },
    {
      "inputs": [],
      "name": "catContract",
      "outputs": [
        {
          "internalType": "contract IConsolidatedAuditTrail",
          "name": "",
          "type": "address"
        }
      ],
      "stateMutability": "view",
      "type": "function"
    },
    {
      "inputs": [],
      "name": "exchangeFeeContract",
      "outputs": [
        {
          "internalType": "contract IExchangeFee",
          "name": "",
          "type": "address"
        }
      ],
      "stateMutability": "view",
      "type": "function"
    },
    {
      "inputs": [],
      "name": "feeRecipient",
      "outputs": [
        {
          "internalType": "address",
          "name": "",
          "type": "address"
        }
      ],
      "stateMutability": "view",
      "type": "function"
    },
    {
      "inputs": [
        {
          "internalType": "string",
          "name": "",
          "type": "string"
        }
      ],
      "name": "highestBid",
      "outputs": [
        {
          "internalType": "uint256",
          "name": "",
          "type": "uint256"
        }
      ],
      "stateMutability": "view",
      "type": "function"
    },
    {
      "inputs": [
        {
          "internalType": "string",
          "name": "",
          "type": "string"
        }
      ],
      "name": "lowestAsk",
      "outputs": [
        {
          "internalType": "uint256",
          "name": "",
          "type": "uint256"
        }
      ],
      "stateMutability": "view",
      "type": "function"
    },
    {
      "inputs": [
        {
          "internalType": "string",
          "name": "",
          "type": "string"
        }
      ],
      "name": "nextOrderId",
      "outputs": [
        {
          "internalType": "uint256",
          "name": "",
          "type": "uint256"
        }
      ],
      "stateMutability": "view",
      "type": "function"
    },
    {
      "inputs": [],
      "name": "poolContract",
      "outputs": [
        {
          "internalType": "contract IMemberPool",
          "name": "",
          "type": "address"
        }
      ],
      "stateMutability": "view",
      "type": "function"
    },
    {
      "inputs": [
        {
          "internalType": "string",
          "name": "",
          "type": "string"
        },
        {
          "internalType": "uint256",
          "name": "",
          "type": "uint256"
        }
      ],
      "name": "sellOrders",
      "outputs": [
        {
          "internalType": "uint256",
          "name": "orderId",
          "type": "uint256"
        },
        {
          "internalType": "address",
          "name": "wallet",
          "type": "address"
        },
        {
          "internalType": "uint256",
          "name": "quantity",
          "type": "uint256"
        },
        {
          "internalType": "uint256",
          "name": "price",
          "type": "uint256"
        },
        {
          "internalType": "uint256",
          "name": "paid",
          "type": "uint256"
        }
      ],
      "stateMutability": "view",
      "type": "function"
    },
    {
      "inputs": [
        {
          "internalType": "uint256",
          "name": "value",
          "type": "uint256"
        }
      ],
      "name": "setThreshold",
      "outputs": [],
      "stateMutability": "nonpayable",
      "type": "function"
    },
    {
      "inputs": [
        {
          "internalType": "uint256",
          "name": "value",
          "type": "uint256"
        }
      ],
      "name": "setPriceThreshold",
      "outputs": [],
      "stateMutability": "nonpayable",
      "type": "function"
    },
    {
      "inputs": [
        {
          "internalType": "address",
          "name": "wallet",
          "type": "address"
        }
      ],
      "name": "setFeeRecipient",
      "outputs": [],
      "stateMutability": "nonpayable",
      "type": "function"
    },
    {
      "inputs": [
        {
          "internalType": "uint256",
          "name": "fee",
          "type": "uint256"
        }
      ],
      "name": "setFee",
      "outputs": [],
      "stateMutability": "nonpayable",
      "type": "function"
    },
    {
      "inputs": [
        {
          "internalType": "string",
          "name": "symbol",
          "type": "string"
        },
        {
          "internalType": "address",
          "name": "offeringContractAddress",
          "type": "address"
        }
      ],
      "name": "setOfferingContractAddress",
      "outputs": [],
      "stateMutability": "nonpayable",
      "type": "function"
    },
    {
      "inputs": [
        {
          "internalType": "string",
          "name": "symbol",
          "type": "string"
        }
      ],
      "name": "getOrders",
      "outputs": [
        {
          "components": [
            {
              "internalType": "uint256",
              "name": "orderId",
              "type": "uint256"
            },
            {
              "internalType": "address",
              "name": "wallet",
              "type": "address"
            },
            {
              "internalType": "uint256",
              "name": "quantity",
              "type": "uint256"
            },
            {
              "internalType": "uint256",
              "name": "price",
              "type": "uint256"
            },
            {
              "internalType": "uint256",
              "name": "paid",
              "type": "uint256"
            }
          ],
          "internalType": "struct IOrderBook.Order[]",
          "name": "",
          "type": "tuple[]"
        },
        {
          "components": [
            {
              "internalType": "uint256",
              "name": "orderId",
              "type": "uint256"
            },
            {
              "internalType": "address",
              "name": "wallet",
              "type": "address"
            },
            {
              "internalType": "uint256",
              "name": "quantity",
              "type": "uint256"
            },
            {
              "internalType": "uint256",
              "name": "price",
              "type": "uint256"
            },
            {
              "internalType": "uint256",
              "name": "paid",
              "type": "uint256"
            }
          ],
          "internalType": "struct IOrderBook.Order[]",
          "name": "",
          "type": "tuple[]"
        }
      ],
      "stateMutability": "view",
      "type": "function"
    },
    {
      "inputs": [
        {
          "internalType": "string",
          "name": "symbol",
          "type": "string"
        }
      ],
      "name": "quote",
      "outputs": [
        {
          "internalType": "uint256",
          "name": "",
          "type": "uint256"
        },
        {
          "internalType": "uint256",
          "name": "",
          "type": "uint256"
        }
      ],
      "stateMutability": "view",
      "type": "function"
    },
    {
      "inputs": [
        {
          "internalType": "address",
          "name": "wallet",
          "type": "address"
        },
        {
          "internalType": "string",
          "name": "symbol",
          "type": "string"
        },
        {
          "internalType": "uint256",
          "name": "quantity",
          "type": "uint256"
        },
        {
          "internalType": "uint256",
          "name": "price",
          "type": "uint256"
        },
        {
          "internalType": "uint256",
          "name": "amount",
          "type": "uint256"
        }
      ],
      "name": "buy",
      "outputs": [],
      "stateMutability": "nonpayable",
      "type": "function"
    },
    {
      "inputs": [
        {
          "internalType": "address",
          "name": "wallet",
          "type": "address"
        },
        {
          "internalType": "string",
          "name": "symbol",
          "type": "string"
        },
        {
          "internalType": "uint256",
          "name": "orderId",
          "type": "uint256"
        }
      ],
      "name": "cancelBuy",
      "outputs": [],
      "stateMutability": "nonpayable",
      "type": "function"
    },
    {
      "inputs": [
        {
          "internalType": "address",
          "name": "wallet",
          "type": "address"
        },
        {
          "internalType": "string",
          "name": "symbol",
          "type": "string"
        },
        {
          "internalType": "uint256",
          "name": "quantity",
          "type": "uint256"
        },
        {
          "internalType": "uint256",
          "name": "price",
          "type": "uint256"
        }
      ],
      "name": "sell",
      "outputs": [],
      "stateMutability": "nonpayable",
      "type": "function"
    },
    {
      "inputs": [
        {
          "internalType": "address",
          "name": "wallet",
          "type": "address"
        },
        {
          "internalType": "string",
          "name": "symbol",
          "type": "string"
        },
        {
          "internalType": "uint256",
          "name": "orderId",
          "type": "uint256"
        }
      ],
      "name": "cancelSell",
      "outputs": [],
      "stateMutability": "nonpayable",
      "type": "function"
    },
    {
      "inputs": [
        {
          "internalType": "string",
          "name": "symbol",
          "type": "string"
        }
      ],
      "name": "detectMarketAbuse",
      "outputs": [
        {
          "internalType": "bool",
          "name": "",
          "type": "bool"
        }
      ],
      "stateMutability": "view",
      "type": "function"
    },
    {
      "inputs": [
        {
          "internalType": "string",
          "name": "symbol",
          "type": "string"
        },
        {
          "internalType": "uint256",
          "name": "orderId",
          "type": "uint256"
        }
      ],
      "name": "detectManipulativeBehaviorDetected",
      "outputs": [
        {
          "internalType": "bool",
          "name": "",
          "type": "bool"
        }
      ],
      "stateMutability": "view",
      "type": "function"
    }
  ],
  "bytecode": "0x60806040526001600a55600a600b556005600c553480156200002057600080fd5b5060405162004001380380620040018339810160408190526200004391620000a3565b60018054600160a060020a03948516600160a060020a031991821617909155600080549385169382169390931790925560028054919093169116179055620000ed565b8051600160a060020a03811681146200009e57600080fd5b919050565b600080600060608486031215620000b957600080fd5b620000c48462000086565b9250620000d46020850162000086565b9150620000e46040850162000086565b90509250925092565b613f0480620000fd6000396000f3fe608060405234801561001057600080fd5b50600436106101205760e060020a600035046301a4f40e8114610125578063088f0dc21461014d5780631d96498b1461016e578063213437441461018e57806328bc4627146101a35780633ab81105146101dc57806346904840146101ef5780634fb52c7014610202578063551714f71461021557806359b4cc7c1461025857806361f156501461028357806369fe0e2d146102965780637705d153146102a957806377d66687146102bc57806388d52ef7146102e7578063944374ec146102fa578063960bfe041461030d578063a8465d4d14610320578063ccfb259f14610333578063db8f6a7e14610346578063e28797d214610359578063e74b981b14610362578063f42e769914610375575b600080fd5b6101386101333660046132e1565b610396565b60405190151581526020015b60405180910390f35b61016061015b36600461335e565b61053d565b60405161014492919061339f565b60005461018190600160a060020a031681565b60405161014491906133ad565b6101a161019c3660046133dd565b61058e565b005b6101ce6101b13660046132e1565b805160208183018101805160068252928201919093012091525481565b604051908152602001610144565b6101a16101ea366004613449565b610ffc565b60095461018190600160a060020a031681565b6101a16102103660046134a2565b600c55565b6102286102233660046134bb565b611430565b60408051958652600160a060020a039094166020860152928401919091526060830152608082015260a001610144565b6101ce6102663660046132e1565b805160208183018101805160088252928201919093012091525481565b6101a16102913660046134ff565b611497565b6101a16102a43660046134a2565b611dfc565b6101a16102b7366004613563565b611e99565b6101ce6102ca3660046132e1565b805160208183018101805160078252928201919093012091525481565b60015461018190600160a060020a031681565b6102286103083660046134bb565b611ee0565b6101a161031b3660046134a2565b600b55565b6101a161032e366004613449565b611f0b565b60025461018190600160a060020a031681565b6101386103543660046134bb565b61227e565b6101ce600a5481565b6101a16103703660046135b6565b612532565b61038861038336600461335e565b61257c565b60405161014492919061363f565b60008060005b6004846040516103ac9190613691565b90815260405190819003602001902054811015610423576004846040516103d39190613691565b908152602001604051809103902081815481106103f2576103f26136ad565b9060005260206000209060050201600301548261040f91906136e1565b91508061041b816136f4565b91505061039c565b5060006004846040516104369190613691565b90815260405190819003602001902054610450908361370d565b90506000805b6005866040516104669190613691565b908152604051908190036020019020548110156104dd5760058660405161048d9190613691565b908152602001604051809103902081815481106104ac576104ac6136ad565b906000526020600020906005020160030154826104c991906136e1565b9150806104d5816136f4565b915050610456565b5060006005866040516104f09190613691565b9081526040519081900360200190205461050a908361370d565b905060006105188483613733565b9050600b548110610530575060019695505050505050565b5060009695505050505050565b60008060078484604051610552929190613746565b90815260200160405180910390205460088585604051610573929190613746565b908152602001604051809103902054915091505b9250929050565b6000600160a060020a0316600386866040516105ab929190613746565b90815260405190819003602001902054600160a060020a0316036105ed5760405160e560020a62461bcd0281526004016105e490613756565b60405180910390fd5b60015460405160e060020a633af32abf028152600160a060020a0390911690633af32abf906106209089906004016133ad565b602060405180830381865afa15801561063d573d6000803e3d6000fd5b505050506040513d601f19601f820116820180604052508101906106619190613786565b6106805760405160e560020a62461bcd0281526004016105e4906137a8565b60038585604051610692929190613746565b90815260408051602092819003830181205460e060020a63a1305aa50282529151600160a060020a039092169263a1305aa5926004808401938290030181865afa1580156106e4573d6000803e3d6000fd5b505050506040513d601f19601f820116820180604052508101906107089190613786565b6107275760405160e560020a62461bcd0281526004016105e4906137ef565b6000831180156107375750600082115b6107565760405160e560020a62461bcd0281526004016105e490613826565b610760838361273c565b81116107c25760405160e560020a62461bcd02815260206004820152602560248201527f696e73756666696369656e742066756e647320746f20706c6163652062757920604482015260d960020a6437b93232b90260648201526084016105e4565b600385856040516107d4929190613746565b90815260408051602092819003830181205460e160020a6362720d910282529151600160a060020a039092169263c4e41b22926004808401938290030181865afa158015610826573d6000803e3d6000fd5b505050506040513d601f19601f8201168201806040525081019061084a919061385d565b6003868660405161085c929190613746565b90815260408051602092819003830181205460e360020a631bc569d30282529151600160a060020a039092169263de2b4e98926004808401938290030181865afa1580156108ae573d6000803e3d6000fd5b505050506040513d601f19601f820116820180604052508101906108d2919061385d565b146109455760405160e560020a62461bcd02815260206004820152603760248201527f74726164696e672064697361626c656420756e74696c2066756e64696e6720726044820152604a60020a761bdd5b99081a185cc81899595b8818dbdb5c1b195d19590260648201526084016105e4565b60006040518060a0016040528060068888604051610964929190613746565b908152602001604051809103902054815260200188600160a060020a0316815260200185815260200184815260200183815250905080600487876040516109ac929190613746565b9081526020016040518091039020600688886040516109cc929190613746565b908152602001604051809103902054815481106109eb576109eb6136ad565b600091825260209182902083516005929092020190815582820151600182018054600160a060020a031916600160a060020a039092169190911790556040808401516002830155606084015160038301556080909301516004909101558151601f8801829004820281018201909252868252610aa3919088908890819084018382808284376000920191909152505060405160069250610a8f91508a908a90613746565b90815260200160405180910390205461227e565b15610ba757600080516020613eaf83398151915287878760068a8a604051610acc929190613746565b90815260405190819003602001812054610ae89493929161389f565b60405180910390a160038686604051610b02929190613746565b908152604080519182900360200182205460e160020a6331b08877028352600060048401526024830191909152601e60448301527f4d616e6970756c6174697665204265686176696f7220446574656374656400006064830152600160a060020a03169063636110ee906084015b600060405180830381600087803b158015610b8a57600080fd5b505af1158015610b9e573d6000803e3d6000fd5b50505050610ff3565b610be686868080601f01602080910402602001604051908101604052809392919081815260200183838082843760009201919091525061039692505050565b15610cc4577fc9f16d690430c1232c143ea17b4e61f83151f3c81b954950a1c643c5499cc75787878760068a8a604051610c21929190613746565b90815260405190819003602001812054610c3d9493929161389f565b60405180910390a160038686604051610c57929190613746565b908152604080519182900360200182205460e160020a6331b0887702835260006004840152602483019190915260156044830152605a60020a7413585c9ad95d0810589d5cd94811195d1958dd1959026064830152600160a060020a03169063636110ee90608401610b70565b60068686604051610cd6929190613746565b9081526040519081900360200190208054906000610cf3836136f4565b9190505550610d0286866127c3565b610d0c8686612ab7565b86600160a060020a03168686604051610d26929190613746565b60405180910390207f28fcad331ce72427e449d96d1b7d27159236e010d2f95d0bcedba96b8dbe38f58686604051610d5f92919061339f565b60405180910390a36000805460405160e060020a63e9395679028152600481018790528991600160a060020a03169063e939567990602401600060405180830381865afa158015610db4573d6000803e3d6000fd5b505050506040513d6000823e601f3d908101601f19168201604052610ddc91908101906138d5565b60005460405160e060020a63e939567902815260048101889052600160a060020a039091169063e939567990602401600060405180830381865afa158015610e28573d6000803e3d6000fd5b505050506040513d6000823e601f3d908101601f19168201604052610e5091908101906138d5565b600054604051600160a060020a039091169063e939567990600690610e78908e908e90613746565b9081526040519081900360200181205460e060020a63ffffffff8416028252610ea79160040190815260200190565b600060405180830381865afa158015610ec4573d6000803e3d6000fd5b505050506040513d6000823e601f3d908101601f19168201604052610eec91908101906138d5565b604051602001610eff9493929190613942565b60408051601f198184030181528282526000805460e060020a634ba1e1930285529251919450600160a060020a0390921692631e54b0d8928b928b928692634ba1e193926004808401938290030181865afa158015610f62573d6000803e3d6000fd5b505050506040513d6000823e601f3d908101601f19168201604052610f8a91908101906138d5565b856040518563ffffffff1660e060020a028152600401610fad9493929190613a28565b6020604051808303816000875af1158015610fcc573d6000803e3d6000fd5b505050506040513d601f19601f82011682018060405250810190610ff0919061385d565b50505b50505050505050565b6000600160a060020a031660038484604051611019929190613746565b90815260405190819003602001902054600160a060020a0316036110525760405160e560020a62461bcd0281526004016105e490613756565b60015460405160e060020a633af32abf028152600160a060020a0390911690633af32abf906110859087906004016133ad565b602060405180830381865afa1580156110a2573d6000803e3d6000fd5b505050506040513d601f19601f820116820180604052508101906110c69190613786565b6110e55760405160e560020a62461bcd0281526004016105e4906137a8565b3031806111355760405160e560020a62461bcd0281526020600482015260186024820152604160020a7721b7b73a3930b1ba103430b9903737903130b630b731b2970260448201526064016105e4565b600060048585604051611149929190613746565b90815260200160405180910390208381548110611168576111686136ad565b600091825260209091206005909102016001810154909150600160a060020a038781169116146111dd5760405160e560020a62461bcd02815260206004820152601c60248201527f4e6f7420746865206f776e6572206f662074686973206f726465722e0000000060448201526064016105e4565b600081600401549050600486866040516111f8929190613746565b90815260200160405180910390208481548110611217576112176136ad565b600091825260208220600590910201818155600181018054600160a060020a03191690556002810182905560038101829055600401556040517fbc5da491cf47d3de78662279b6d0c7c01cb7b3a68c6e563c745ede9fea6d6fde9061127f9089908490613a94565b60405180910390a16000805460405160e060020a63e9395679028152600481018790528991600160a060020a03169063e939567990602401600060405180830381865afa1580156112d4573d6000803e3d6000fd5b505050506040513d6000823e601f3d908101601f191682016040526112fc91908101906138d5565b60005460405160e060020a63e939567902815260048101869052600160a060020a039091169063e939567990602401600060405180830381865afa158015611348573d6000803e3d6000fd5b505050506040513d6000823e601f3d908101601f1916820160405261137091908101906138d5565b60405160200161138293929190613aad565b60408051601f198184030181528282526000805460e060020a634ba1e1930285529251919450600160a060020a0390921692631e54b0d8928b928b928692634ba1e193926004808401938290030181865afa1580156113e5573d6000803e3d6000fd5b505050506040513d6000823e601f3d908101601f1916820160405261140d91908101906138d5565b856040518563ffffffff1660e060020a028152600401610fad9493929190613b39565b8151602081840181018051600482529282019185019190912091905280548290811061145b57600080fd5b600091825260209091206005909102018054600182015460028301546003840154600490940154929550600160a060020a039091169350919085565b6000600160a060020a0316600385856040516114b4929190613746565b90815260405190819003602001902054600160a060020a0316036114ed5760405160e560020a62461bcd0281526004016105e490613756565b60015460405160e060020a633af32abf028152600160a060020a0390911690633af32abf906115209088906004016133ad565b602060405180830381865afa15801561153d573d6000803e3d6000fd5b505050506040513d601f19601f820116820180604052508101906115619190613786565b6115805760405160e560020a62461bcd0281526004016105e4906137a8565b60038484604051611592929190613746565b90815260408051602092819003830181205460e060020a63a1305aa50282529151600160a060020a039092169263a1305aa5926004808401938290030181865afa1580156115e4573d6000803e3d6000fd5b505050506040513d601f19601f820116820180604052508101906116089190613786565b6116275760405160e560020a62461bcd0281526004016105e4906137ef565b6000821161166e5760405160e560020a62461bcd02815260206004820152600e6024820152609260020a6d125b9d985b1a5908185b5bdd5b9d0260448201526064016105e4565b600081116116b45760405160e560020a62461bcd02815260206004820152600d6024820152609860020a6c496e76616c69642070726963650260448201526064016105e4565b6000821180156116c45750600081115b6116e35760405160e560020a62461bcd0281526004016105e490613826565b600384846040516116f5929190613746565b90815260408051602092819003830181205460e160020a6362720d910282529151600160a060020a039092169263c4e41b22926004808401938290030181865afa158015611747573d6000803e3d6000fd5b505050506040513d601f19601f8201168201806040525081019061176b919061385d565b6003858560405161177d929190613746565b90815260408051602092819003830181205460e360020a631bc569d30282529151600160a060020a039092169263de2b4e98926004808401938290030181865afa1580156117cf573d6000803e3d6000fd5b505050506040513d601f19601f820116820180604052508101906117f3919061385d565b146118695760405160e560020a62461bcd02815260206004820152603a60248201527f74726164696e672064697361626c656420756e74696c20696e697469616c206f60448201527f66666572696e6720686173206265656e20636f6d706c6574656400000000000060648201526084016105e4565b816003858560405161187c929190613746565b9081526040519081900360200181205460e160020a6344d796e7028252600160a060020a0316906389af2dce906118b79089906004016133ad565b602060405180830381865afa1580156118d4573d6000803e3d6000fd5b505050506040513d601f19601f820116820180604052508101906118f8919061385d565b101561195c5760405160e560020a62461bcd02815260206004820152602760248201527f696e73756666696369656e742062616c616e636520696e2073656c6c65727320604482015260ca60020a661858d8dbdd5b9d0260648201526084016105e4565b60006040518060a001604052806006878760405161197b929190613746565b908152602001604051809103902054815260200187600160a060020a031681526020018481526020018381526020016000815250905080600586866040516119c4929190613746565b9081526020016040518091039020600687876040516119e4929190613746565b90815260200160405180910390205481548110611a0357611a036136ad565b60009182526020808320845160059390930201918255830151600182018054600160a060020a031916600160a060020a039283161790556040808501516002840155606085015160038401556080909401516004928301558254935160e060020a63e939567902815291820187905291928992169063e939567990602401600060405180830381865afa158015611a9e573d6000803e3d6000fd5b505050506040513d6000823e601f3d908101601f19168201604052611ac691908101906138d5565b60005460405160e060020a63e939567902815260048101879052600160a060020a039091169063e939567990602401600060405180830381865afa158015611b12573d6000803e3d6000fd5b505050506040513d6000823e601f3d908101601f19168201604052611b3a91908101906138d5565b600054604051600160a060020a039091169063e939567990600690611b62908d908d90613746565b9081526040519081900360200181205460e060020a63ffffffff8416028252611b919160040190815260200190565b600060405180830381865afa158015611bae573d6000803e3d6000fd5b505050506040513d6000823e601f3d908101601f19168201604052611bd691908101906138d5565b604051602001611be99493929190613ba1565b60408051601f198184030181528282526000805460e060020a634ba1e1930285529251919450600160a060020a0390921692631e54b0d8928a928a928692634ba1e193926004808401938290030181865afa158015611c4c573d6000803e3d6000fd5b505050506040513d6000823e601f3d908101601f19168201604052611c7491908101906138d5565b856040518563ffffffff1660e060020a028152600401611c979493929190613c5c565b6020604051808303816000875af1158015611cb6573d6000803e3d6000fd5b505050506040513d601f19601f82011682018060405250810190611cda919061385d565b50611d2786868080601f0160208091040260200160405190810160405280939291908181526020018383808284376000920191909152505060405160069250610a8f91508a908a90613746565b15611d5057600080516020613eaf83398151915287878760068a8a604051610acc929190613746565b60068686604051611d62929190613746565b9081526040519081900360200190208054906000611d7f836136f4565b9190505550611d8e86866127c3565b611d988686612ab7565b86600160a060020a03168686604051611db2929190613746565b60405180910390207f648ca708c2c66ac3475aee7ac07562246ad0ec231ec96941b3a78da300f65af68686604051611deb92919061339f565b60405180910390a350505050505050565b6064811115611e5e5760405160e560020a62461bcd02815260206004820152602260248201527f4665652070657263656e74616765206d75737420626520313030206f72206c65604482015260f060020a6173730260648201526084016105e4565b600a8190556040518181527f74516f05eb4bd2461d57aa1e935ee553f86a3e02bfed7759f2f772915de3d9be9060200160405180910390a150565b8060038484604051611eac929190613746565b9081526040519081900360200190208054600160a060020a0392909216600160a060020a0319909216919091179055505050565b8151602081840181018051600582529282019185019190912091905280548290811061145b57600080fd5b6000600160a060020a031660038484604051611f28929190613746565b90815260405190819003602001902054600160a060020a031603611f615760405160e560020a62461bcd0281526004016105e490613756565b60015460405160e060020a633af32abf028152600160a060020a0390911690633af32abf90611f949087906004016133ad565b602060405180830381865afa158015611fb1573d6000803e3d6000fd5b505050506040513d601f19601f82011682018060405250810190611fd59190613786565b611ff45760405160e560020a62461bcd0281526004016105e4906137a8565b600060058484604051612008929190613746565b90815260200160405180910390208281548110612027576120276136ad565b600091825260209091206005909102016001810154909150600160a060020a0386811691161461209c5760405160e560020a62461bcd02815260206004820152601c60248201527f6e6f7420746865206f776e6572206f662074686973206f726465722e0000000060448201526064016105e4565b600584846040516120ae929190613746565b908152602001604051809103902082815481106120cd576120cd6136ad565b60009182526020822060059190910201818155600181018054600160a060020a031916905560028101829055600381018290556004908101829055815460405160e060020a63e93956790281529182018590528791600160a060020a039091169063e939567990602401600060405180830381865afa158015612154573d6000803e3d6000fd5b505050506040513d6000823e601f3d908101601f1916820160405261217c91908101906138d5565b60405160200161218d929190613cbe565b60408051601f198184030181528282526000805460e060020a634ba1e1930285529251919450600160a060020a0390921692631e54b0d892899289928692634ba1e193926004808401938290030181865afa1580156121f0573d6000803e3d6000fd5b505050506040513d6000823e601f3d908101601f1916820160405261221891908101906138d5565b856040518563ffffffff1660e060020a02815260040161223b9493929190613d1f565b6020604051808303816000875af115801561225a573d6000803e3d6000fd5b505050506040513d601f19601f82011682018060405250810190610ff3919061385d565b6000806007846040516122919190613691565b9081526020016040518091039020546004856040516122b09190613691565b908152602001604051809103902084815481106122cf576122cf6136ad565b90600052602060002090600502016003015411612355576004846040516122f69190613691565b90815260200160405180910390208381548110612315576123156136ad565b9060005260206000209060050201600301546007856040516123379190613691565b9081526020016040518091039020546123509190613733565b6123bf565b6007846040516123659190613691565b9081526020016040518091039020546004856040516123849190613691565b908152602001604051809103902084815481106123a3576123a36136ad565b9060005260206000209060050201600301546123bf9190613733565b905060006008856040516123d39190613691565b9081526020016040518091039020546005866040516123f29190613691565b90815260200160405180910390208581548110612411576124116136ad565b90600052602060002090600502016003015410612497576008856040516124389190613691565b9081526020016040518091039020546005866040516124579190613691565b90815260200160405180910390208581548110612476576124766136ad565b9060005260206000209060050201600301546124929190613733565b612501565b6005856040516124a79190613691565b908152602001604051809103902084815481106124c6576124c66136ad565b9060005260206000209060050201600301546008866040516124e89190613691565b9081526020016040518091039020546125019190613733565b9050600c54821015806125155750600c5481115b156125255760019250505061252c565b6000925050505b92915050565b60098054600160a060020a031916600160a060020a0383169081179091556040517f7a7b5a0a132f9e0581eb8527f66eae9ee89c2a3e79d4ac7e41a1f1f4d48a7fc290600090a250565b6060806000600160a060020a03166003858560405161259c929190613746565b90815260405190819003602001902054600160a060020a0316036125d55760405160e560020a62461bcd0281526004016105e490613756565b600484846040516125e7929190613746565b908152602001604051809103902060058585604051612607929190613746565b908152602001604051809103902081805480602002602001604051908101604052809291908181526020016000905b8282101561269d5760008481526020908190206040805160a0810182526005860290920180548352600180820154600160a060020a031684860152600282015492840192909252600381015460608401526004015460808301529083529092019101612636565b50505050915080805480602002602001604051908101604052809291908181526020016000905b8282101561272b5760008481526020908190206040805160a0810182526005860290920180548352600180820154600160a060020a0316848601526002820154928401929092526003810154606084015260040154608083015290835290920191016126c4565b505050509050915091509250929050565b60008282028215838204851415171561275457600080fd5b8261275f858361370d565b146127bc5760405160e560020a62461bcd02815260206004820152602160248201527f536166654d6174683a206d756c7469706c69636174696f6e206f766572666c6f604482015260f860020a60770260648201526084016105e4565b9392505050565b600080600484846040516127d8929190613746565b90815260200160405180910390206000815481106127f8576127f86136ad565b9060005260206000209060050201600301546007858560405161281c929190613746565b90815260405190819003602001902055600191505b60048484604051612843929190613746565b9081526040519081900360200190205482101561293c576007848460405161286c929190613746565b9081526020016040518091039020546004858560405161288d929190613746565b908152602001604051809103902083815481106128ac576128ac6136ad565b906000526020600020906005020160030154111561292a57600484846040516128d6929190613746565b908152602001604051809103902082815481106128f5576128f56136ad565b90600052602060002090600502016003015460078585604051612919929190613746565b908152604051908190036020019020555b81612934816136f4565b925050612831565b6005848460405161294e929190613746565b908152602001604051809103902060008154811061296e5761296e6136ad565b90600052602060002090600502016003015460088585604051612992929190613746565b908152604051908190036020019020555060015b600584846040516129b8929190613746565b90815260405190819003602001902054811015612ab157600884846040516129e1929190613746565b90815260200160405180910390205460058585604051612a02929190613746565b90815260200160405180910390208281548110612a2157612a216136ad565b9060005260206000209060050201600301541015612a9f5760058484604051612a4b929190613746565b90815260200160405180910390208181548110612a6a57612a6a6136ad565b90600052602060002090600502016003015460088585604051612a8e929190613746565b908152604051908190036020019020555b80612aa9816136f4565b9150506129a6565b50505050565b60048282604051612ac9929190613746565b908152604051908190036020019020541580612b04575060058282604051612af2929190613746565b90815260405190819003602001902054155b15612b0d575050565b6000805b60048484604051612b23929190613746565b9081526040519081900360200190205482108015612b61575060058484604051612b4e929190613746565b9081526040519081900360200190205481105b15612ab157600060048585604051612b7a929190613746565b90815260200160405180910390208381548110612b9957612b996136ad565b600091825260208083206040805160a0810182526005948502909201805483526001810154600160a060020a0316938301939093526002830154828201526003830154606083015260049092015460808201529051909350612bfe9088908890613746565b90815260200160405180910390208381548110612c1d57612c1d6136ad565b60009182526020918290206040805160a0810182526005909302909101805483526001810154600160a060020a031693830193909352600283015490820152600382015460608083018290526004909301546080830152918401519092501061320c576000816040015183604001511115612c9c578160400151612ca2565b82604001515b90506000826060015190508260200151600160a060020a03168460200151600160a060020a03168989604051612cd9929190613746565b60405180910390207f424d865df397536b12696fce4ae34f828fe8ac24675ef10042bae24c2578f0db8585604051612d1292919061339f565b60405180910390a460038888604051612d2c929190613746565b908152604051908190036020908101822054858201519187015160e060020a6323b872dd028452600160a060020a039283166004850152821660248401526044830185905216906323b872dd906064016020604051808303816000875af1158015612d9b573d6000803e3d6000fd5b505050506040513d601f19601f82011682018060405250810190612dbf9190613786565b508260400151846040015111612ea457836040015160058989604051612de6929190613746565b90815260200160405180910390208681548110612e0557612e056136ad565b90600052602060002090600502016002016000828254612e259190613733565b9091555050604051600490612e3d908a908a90613746565b90815260200160405180910390208681548110612e5c57612e5c6136ad565b600091825260208220600590910201818155600181018054600160a060020a031916905560028101829055600381018290556004015585612e9c816136f4565b965050612f75565b826040015160048989604051612ebb929190613746565b90815260200160405180910390208781548110612eda57612eda6136ad565b90600052602060002090600502016002016000828254612efa9190613733565b9091555050604051600590612f12908a908a90613746565b90815260200160405180910390208581548110612f3157612f316136ad565b600091825260208220600590910201818155600181018054600160a060020a031916905560028101829055600381018290556004015584612f71816136f4565b9550505b60006064600a5483612f879190613d88565b612f91919061370d565b9050600081131561300757600254602086015160405160e160020a637d1509f7028152600160a060020a039092169163fa2a13ee91612fd4918590600401613a94565b600060405180830381600087803b158015612fee57600080fd5b505af1158015613002573d6000803e3d6000fd5b505050505b602084810151908601516000805460405160e060020a63e93956790281526004810188905291939291600160a060020a039091169063e939567990602401600060405180830381865afa158015613062573d6000803e3d6000fd5b505050506040513d6000823e601f3d908101601f1916820160405261308a91908101906138d5565b60005460405160e060020a63e939567902815260048101889052600160a060020a039091169063e939567990602401600060405180830381865afa1580156130d6573d6000803e3d6000fd5b505050506040513d6000823e601f3d908101601f191682016040526130fe91908101906138d5565b6040516020016131119493929190613d9f565b60408051601f198184030181528282526000805460e060020a634ba1e1930285529251919450600160a060020a0390921692631e54b0d8928e928e928692634ba1e193926004808401938290030181865afa158015613174573d6000803e3d6000fd5b505050506040513d6000823e601f3d908101601f1916820160405261319c91908101906138d5565b856040518563ffffffff1660e060020a0281526004016131bf9493929190613e4a565b6020604051808303816000875af11580156131de573d6000803e3d6000fd5b505050506040513d601f19601f82011682018060405250810190613202919061385d565b5050505050613213565b5050612ab1565b5050612b11565b60e060020a634e487b710260009081526041600452602490fd5b604051601f8201601f191681016001604060020a038111828210171561325c5761325c61321a565b604052919050565b60006001604060020a0382111561327d5761327d61321a565b50601f01601f191660200190565b600082601f83011261329c57600080fd5b81356132af6132aa82613264565b613234565b8181528460208386010111156132c457600080fd5b816020850160208301376000918101602001919091529392505050565b6000602082840312156132f357600080fd5b81356001604060020a0381111561330957600080fd5b6133158482850161328b565b949350505050565b60008083601f84011261332f57600080fd5b5081356001604060020a0381111561334657600080fd5b60208301915083602082850101111561058757600080fd5b6000806020838503121561337157600080fd5b82356001604060020a0381111561338757600080fd5b6133938582860161331d565b90969095509350505050565b918252602082015260400190565b600160a060020a0391909116815260200190565b8035600160a060020a03811681146133d857600080fd5b919050565b60008060008060008060a087890312156133f657600080fd5b6133ff876133c1565b955060208701356001604060020a0381111561341a57600080fd5b61342689828a0161331d565b979a90995096976040810135976060820135975060809091013595509350505050565b6000806000806060858703121561345f57600080fd5b613468856133c1565b935060208501356001604060020a0381111561348357600080fd5b61348f8782880161331d565b9598909750949560400135949350505050565b6000602082840312156134b457600080fd5b5035919050565b600080604083850312156134ce57600080fd5b82356001604060020a038111156134e457600080fd5b6134f08582860161328b565b95602094909401359450505050565b60008060008060006080868803121561351757600080fd5b613520866133c1565b945060208601356001604060020a0381111561353b57600080fd5b6135478882890161331d565b9699909850959660408101359660609091013595509350505050565b60008060006040848603121561357857600080fd5b83356001604060020a0381111561358e57600080fd5b61359a8682870161331d565b90945092506135ad9050602085016133c1565b90509250925092565b6000602082840312156135c857600080fd5b6127bc826133c1565b600081518084526020808501945080840160005b838110156136345781518051885283810151600160a060020a03168489015260408082015190890152606080820151908901526080908101519088015260a090960195908201906001016135e5565b509495945050505050565b60408152600061365260408301856135d1565b828103602084015261366481856135d1565b95945050505050565b60005b83811015613688578181015183820152602001613670565b50506000910152565b600082516136a381846020870161366d565b9190910192915050565b60e060020a634e487b710260009081526032600452602490fd5b60e060020a634e487b710260009081526011600452602490fd5b8082018082111561252c5761252c6136c7565b600060018201613706576137066136c7565b5060010190565b60008261372e5760e060020a634e487b710260009081526012600452602490fd5b500490565b8181038181111561252c5761252c6136c7565b8183823760009101908152919050565b6020808252601390820152606a60020a721bd999995c9a5b99c81a5cc81b9bdd081cd95d02604082015260600190565b60006020828403121561379857600080fd5b815180151581146127bc57600080fd5b60208082526024908201527f6e6f7420617574686f72697a656420617320612077686974656c697374656420604082015260e160020a633ab9b2b902606082015260800190565b6020808252601a908201527f74726164696e6720686173206265656e2073757370656e646564000000000000604082015260600190565b6020808252601b908201527f496e76616c696420616d6f756e7420616e642f6f722070726963650000000000604082015260600190565b60006020828403121561386f57600080fd5b5051919050565b81835281816020850137506000828201602090810191909152601f909101601f19169091010190565b600160a060020a03851681526060602082018190526000906138c49083018587613876565b905082604083015295945050505050565b6000602082840312156138e757600080fd5b81516001604060020a038111156138fd57600080fd5b8201601f8101841361390e57600080fd5b805161391c6132aa82613264565b81815285602083850101111561393157600080fd5b61366482602083016020860161366d565b60cd60020a660212aaca2a91d1028152600160a060020a038516606060020a02600782015260b560020a690161020a6a7aaa72a1d102601b820152835160009061399381602585016020890161366d565b60bd60020a6801610282924a1a29d10260259184019182015284516139bf81602e84016020890161366d565b60ad60020a6a0161027a92222a924a21d102602e929091019182015283516139ee81603984016020880161366d565b016039019695505050505050565b60008151808452613a1481602086016020860161366d565b601f01601f19169290920160200192915050565b608081526000613a3c608083018688613876565b8281036020840152613a4e81866139fc565b90508281038060408501526009825260b960020a68213abc9027b93232b902602083015260408101606085015250613a8960408201856139fc565b979650505050505050565b600160a060020a03929092168252602082015260400190565b60cd60020a660212aaca2a91d1028152600160a060020a038416606060020a02600782015260ad60020a6a0161027a92222a924a21d102601b8201528251600090613aff81602685016020880161366d565b60b560020a69016102922a32aa7221d1026026918401918201528351613b2c81603084016020880161366d565b0160300195945050505050565b608081526000613b4d608083018688613876565b8281036020840152613b5f81866139fc565b905082810380604085015260108252608160020a6f21b0b731b2b610213abc9027b93232b902602083015260408101606085015250613a8960408201856139fc565b60c560020a67029a2a62622a91d1028152600160a060020a038516606060020a02600882015260b560020a690161020a6a7aaa72a1d102601c8201528351600090613bf381602685016020890161366d565b60bd60020a6801610282924a1a29d1026026918401918201528451613c1f81602f84016020890161366d565b60ad60020a6a0161027a92222a924a21d102602f92909101918201528351613c4e81603a84016020880161366d565b01603a019695505050505050565b608081526000613c70608083018688613876565b8281036020840152613c8281866139fc565b9050828103806040850152600a825260b160020a6929b2b6361027b93232b902602083015260408101606085015250613a8960408201856139fc565b60c560020a67029a2a62622a91d1028152600160a060020a038316606060020a02600882015260ad60020a6a0161027a92222a924a21d102601c8201528151600090613d1181602785016020870161366d565b919091016027019392505050565b608081526000613d33608083018688613876565b8281036020840152613d4581866139fc565b905082810380604085015260118252607960020a7021b0b731b2b61029b2b6361027b93232b902602083015260408101606085015250613a8960408201856139fc565b808202811582820484141761252c5761252c6136c7565b60c560020a67029a2a62622a91d1028152606060020a600160a060020a038681168202600884015260bd60020a6801610212aaca2a91d102601c840152851602602582015260b560020a690161020a6a7aaa72a1d10260398201528251600090613e1081604385016020880161366d565b60bd60020a6801610282924a1a29d1026043918401918201528351613e3c81604c84016020880161366d565b01604c019695505050505050565b608081526000613e5e608083018688613876565b8281036020840152613e7081866139fc565b9050828103806040850152600c825260a060020a6b4d61746368204f726465727302602083015260408101606085015250613a8960408201856139fc56fe3dafcb307ea8e4d20c5c2de129cb820a255e2d97844b4823bcf224bef7d9a5e1a2646970667358221220da407da9b000f6c9834297f6915fc13b344fdf1b03a60504fe1bcafb3bff890f64736f6c63430008120033",
  "immutableReferences": {},
  "source": "// SPDX-License-Identifier: BSL-1.1\npragma solidity >=0.4.22 <0.9.0;\n\n/**\n * PERFORM ORDER MATCHING OFF CHAIN and upon completion of the order, update the poolContract with a digital record of shares\n * transferred between buyer and seller.\n *\n * When an investor wishes to BUY a security, they first select the security and quantity which calculates the price + fee,\n * then money transmitter (STRIPE) is prompted to take payment and payment funds transferred to issuer via STRIPE,\n * on successful webhook payment, the smart contract instance is invoke passing the number of shares the investor just bought\n */\n\nimport \"../../libs/SafeMath.sol\";\nimport \"../../interfaces/IOffering.sol\";\nimport \"../../interfaces/IConsolidatedAuditTrail.sol\";\nimport \"../../interfaces/IMemberPool.sol\";\nimport \"../../interfaces/IExchangeFee.sol\";\nimport \"../../interfaces/IOrderBook.sol\";\n\ncontract OrderBook is IOrderBook {\n    IConsolidatedAuditTrail public catContract;\n    IMemberPool public poolContract;\n    IExchangeFee public exchangeFeeContract;\n\n    mapping(string => IOffering) offering;\n\n    mapping(string => Order[]) public buyOrders;\n    mapping(string => Order[]) public sellOrders;\n\n    mapping(string => uint256) public nextOrderId;\n\n    mapping(string => uint256) public highestBid;\n    mapping(string => uint256) public lowestAsk;\n\n\n    address public feeRecipient;\n    uint256 public FeePercentage = 1; // Fee percentage\n\n    uint256 threshold = 10; // Adjust this threshold based on your requirements\n    uint256 priceThreshold = 5; // Adjust this threshold based on your requirements\n\n    event FeeRecipientUpdated(address indexed newRecipient);\n    event FeePercentageUpdated(uint256 newPercentage);\n\n\n    // Event emitted when a new buy order is placed\n    event BuyOrderPlaced(string indexed currencyPair,address indexed trader,uint256 amount,uint256 price);\n\n    // Event emitted when a new sell order is placed\n    event SellOrderPlaced(string indexed currencyPair,address indexed trader,uint256 amount,uint256 price);\n\n    // Event emitted when a trade is executed\n    event TradeExecuted(string indexed currencyPair,address indexed buyer,address indexed seller,uint256 amount,uint256 price);\n\n    event ValueTransferred(address sender, uint256 amount);\n\n    event ManipulativeBehaviorDetected(address sender,string symbol,uint256 orderId);\n    event MarketAbuseDetetcted(address sender,string symbol,uint256 orderId);\n\n    constructor(address memberPoolAddress,address catContractAddress,address exchangeFeeAddress) {\n        poolContract = IMemberPool(memberPoolAddress);\n        catContract = IConsolidatedAuditTrail(catContractAddress);\n        exchangeFeeContract = IExchangeFee(exchangeFeeAddress);\n    }\n\n\n    function setThreshold(uint256 value) external  {\n        threshold = value;\n    }\n\n    function setPriceThreshold(uint256 value) external  {\n        priceThreshold = value;\n    }\n\n    function setFeeRecipient(address wallet) external  {\n        feeRecipient = address(wallet);\n        emit FeeRecipientUpdated(wallet);       \n    }\n\n    function setFee(uint256 fee) external  {\n        require(fee <= 100, \"Fee percentage must be 100 or less\");\n        FeePercentage = fee; // 1=1% deposit fee\n        emit FeePercentageUpdated(fee);\n    }\n\n    function setOfferingContractAddress(string calldata symbol,address offeringContractAddress) external  {\n        offering[symbol] = IOffering(offeringContractAddress);\n    }\n\n    function getOrders(string calldata symbol) external view returns(Order[] memory,Order[] memory) {\n        require(address(offering[symbol]) != address(0x0),\"offering is not set\");\n        return(buyOrders[symbol],sellOrders[symbol]);\n    }\n\n    // INTERNAL FUNCTIONS\n\n    // Function to update the highest bid and lowest ask prices\n    function updateQuoting(string calldata symbol) internal {    \n        uint256 i = 0;\n        uint256 j = 0;\n\n        highestBid[symbol] = buyOrders[symbol][0].price;\n        for (i=1; i<buyOrders[symbol].length; i++) {\n            if (buyOrders[symbol][i].price > highestBid[symbol]) {\n                highestBid[symbol] = buyOrders[symbol][i].price;\n            }\n        }\n\n        lowestAsk[symbol] = sellOrders[symbol][0].price;\n        for(j=1;j<sellOrders[symbol].length;j++) {\n            if (sellOrders[symbol][j].price < lowestAsk[symbol]) {\n                lowestAsk[symbol] = sellOrders[symbol][j].price;\n            }\n        }\n    }\n    // Function to match buy and sell orders\n    function matchOrders(string calldata symbol) internal {\n        if (buyOrders[symbol].length == 0 || sellOrders[symbol].length == 0) {\n            return;\n        }\n\n        uint256 i = 0;\n        uint256 j = 0;\n\n        while (i < buyOrders[symbol].length && j < sellOrders[symbol].length) {\n            Order memory buyOrder = buyOrders[symbol][i];\n            Order memory sellOrder = sellOrders[symbol][j];\n\n            if (buyOrder.price >= sellOrder.price) {\n                uint256 tradeAmount = (buyOrder.quantity <= sellOrder.quantity)\n                    ? buyOrder.quantity\n                    : sellOrder.quantity;\n                uint256 tradePrice = sellOrder.price;\n\n                emit TradeExecuted(symbol,buyOrder.wallet,sellOrder.wallet,tradeAmount,tradePrice);\n\n                // transfer the tokens on the contract\n                offering[symbol].transferFrom(sellOrder.wallet,buyOrder.wallet,tradeAmount);\n\n\n                // Update order amounts and remove filled orders\n                if (buyOrder.quantity <= sellOrder.quantity) {\n                    sellOrders[symbol][j].quantity -= buyOrder.quantity;\n                    delete buyOrders[symbol][i];\n                    i++;\n                } else {\n                    buyOrders[symbol][i].quantity -= sellOrder.quantity;\n                    delete sellOrders[symbol][j];\n                    j++;\n                }\n                // Calculate the total fee amount\n                int256 Fee = int256((tradePrice * FeePercentage) / 100);\n                // Transfer the fee amount to the fee recipient\n                if (Fee > 0) {\n                    exchangeFeeContract.addFee(buyOrder.wallet, Fee);\n                }\n\n                // save CAT\n                string memory eventData = string(abi.encodePacked(\"SELLER: \", sellOrder.wallet, \", BUYER: \", buyOrder.wallet, \", AMOUNT: \", catContract.uintToString(tradeAmount),\", PRICE: \", catContract.uintToString(tradePrice)));\n                catContract.addAuditEntry(symbol,catContract.timestampToString(),\"Match Orders\",eventData);\n            } else {\n                break;\n            }\n        }\n    }\n    // Function to get quote\n    function quote(string calldata symbol)\n        external\n        view\n        returns (uint256, uint256)\n    {\n        return (highestBid[symbol],lowestAsk[symbol]);\n    }\n    // Function to place a buy order\n    function buy(\n        address wallet,\n        string calldata symbol,\n        uint256 quantity,\n        uint256 price,\n        uint256 amount\n    ) external  {\n        require(address(offering[symbol]) != address(0x0),\"offering is not set\");\n        require(poolContract.isWhitelisted(wallet),\"not authorized as a whitelisted user\");\n        require(offering[symbol].getTradingStatus(),\"trading has been suspended\");\n        require(quantity > 0 && price > 0, \"Invalid amount and/or price\");\n        require(amount > SafeMath.safeMul(quantity, price),\"insufficient funds to place buy order\");\n        require(offering[symbol].getOutstandingShares() == offering[symbol].getTotalSupply(),\"trading disabled until funding round has been completed\");\n\n        // Storing the buy order details\n        Order memory order = Order(nextOrderId[symbol], wallet, quantity, price, amount);\n        buyOrders[symbol][nextOrderId[symbol]] = order;\n\n\n        if (detectManipulativeBehaviorDetected(symbol, nextOrderId[symbol])) {\n            emit ManipulativeBehaviorDetected(wallet,symbol,nextOrderId[symbol]);\n            offering[symbol].changeTradingStatus(false,\"Manipulative Behavior Detected\");\n        } else {\n            if (detectMarketAbuse(symbol)) {\n                emit MarketAbuseDetetcted(wallet, symbol, nextOrderId[symbol]);\n                offering[symbol].changeTradingStatus(false,\"Market Abuse Detected\");\n            } else {\n                nextOrderId[symbol]++;\n\n                updateQuoting(symbol);\n                matchOrders(symbol);\n                emit BuyOrderPlaced(symbol, wallet, quantity, price);\n\n                string memory eventData = string(abi.encodePacked(\"BUYER: \", wallet, \", AMOUNT: \", catContract.uintToString(quantity),\", PRICE: \", catContract.uintToString(price), \", ORDERID: \", catContract.uintToString(nextOrderId[symbol])));\n                catContract.addAuditEntry(symbol,catContract.timestampToString(),\"Buy Order\",eventData);\n            }\n        }\n    }\n    // Function to cancel and transfer contract balance to the caller, and remove the buy order\n    function cancelBuy(address wallet, string calldata symbol,uint256 orderId) external  {\n        require(address(offering[symbol]) != address(0x0),\"offering is not set\");\n        require(poolContract.isWhitelisted(wallet),\"not authorized as a whitelisted user\");\n        uint256 contractBalance = address(this).balance;\n        require(contractBalance > 0, \"Contract has no balance.\");\n\n        Order storage order = buyOrders[symbol][orderId];\n        require(order.wallet == wallet, \"Not the owner of this order.\");\n\n        uint256 refund = order.paid;\n\n        delete buyOrders[symbol][orderId];\n\n        //payable(msg.sender).transfer(refund);\n        emit ValueTransferred(wallet, refund);\n\n        string memory eventData = string(abi.encodePacked(\"BUYER: \", wallet, \", ORDERID: \", catContract.uintToString(orderId),\", REFUND: \", catContract.uintToString(refund)));\n        catContract.addAuditEntry(symbol,catContract.timestampToString(),\"Cancel Buy Order\",eventData);\n    }\n    // Function to place a sell order\n    function sell(\n        address wallet,\n        string calldata symbol,\n        uint256 quantity,\n        uint256 price\n    ) external  {\n        require(address(offering[symbol]) != address(0x0),\"offering is not set\");\n        require(poolContract.isWhitelisted(wallet),\"not authorized as a whitelisted user\");\n        require(offering[symbol].getTradingStatus(),\"trading has been suspended\");\n        require(quantity > 0, \"Invalid amount\");\n        require(price > 0, \"Invalid price\");\n        require(quantity > 0 && price > 0, \"Invalid amount and/or price\");\n        require(offering[symbol].getOutstandingShares() == offering[symbol].getTotalSupply(),\"trading disabled until initial offering has been completed\");\n        require(offering[symbol].getBalanceFrom(wallet) >= quantity,\"insufficient balance in sellers account\");\n\n        Order memory order = Order(nextOrderId[symbol], wallet, quantity, price, 0);\n        sellOrders[symbol][nextOrderId[symbol]] = order;\n\n        string memory eventData = string(abi.encodePacked(\"SELLER: \", wallet, \", AMOUNT: \", catContract.uintToString(quantity),\", PRICE: \", catContract.uintToString(price), \", ORDERID: \", catContract.uintToString(nextOrderId[symbol])));\n        catContract.addAuditEntry(symbol,catContract.timestampToString(),\"Sell Order\",eventData);\n\n\n        if (detectManipulativeBehaviorDetected(symbol, nextOrderId[symbol])) {\n            emit ManipulativeBehaviorDetected(wallet,symbol,nextOrderId[symbol]);\n            offering[symbol].changeTradingStatus(false,\"Manipulative Behavior Detected\");\n        } else {\n            nextOrderId[symbol]++;\n            updateQuoting(symbol);\n            matchOrders(symbol);\n            emit SellOrderPlaced(symbol, wallet, quantity, price);\n        }\n    }\n    // Cancel pending sell order\n    function cancelSell(address wallet,string calldata symbol,uint256 orderId) external  {\n        require(address(offering[symbol]) != address(0x0),\"offering is not set\");\n        require(poolContract.isWhitelisted(wallet),\"not authorized as a whitelisted user\");\n        Order storage order = sellOrders[symbol][orderId];\n        require(order.wallet == wallet, \"not the owner of this order.\");\n        delete sellOrders[symbol][orderId];\n\n        string memory eventData = string(abi.encodePacked(\"SELLER: \", wallet, \", ORDERID: \", catContract.uintToString(orderId)));\n        catContract.addAuditEntry(symbol,catContract.timestampToString(),\"Cancel Sell Order\",eventData);\n    }\n\n    function detectMarketAbuse(string memory symbol) public view  returns (bool) {\n        // Calculate average bid and ask prices\n        uint256 sumBids;\n        for (uint256 i = 0; i < buyOrders[symbol].length; i++) {\n            sumBids += buyOrders[symbol][i].price;\n        }\n        uint256 averageBid = sumBids / buyOrders[symbol].length;\n\n        uint256 sumAsks;\n        for (uint256 i = 0; i < sellOrders[symbol].length; i++) {\n            sumAsks += sellOrders[symbol][i].price;\n        }\n        uint256 averageAsk = sumAsks / sellOrders[symbol].length;\n\n        // Calculate bid-ask spread\n        uint256 spread = averageAsk - averageBid;\n\n        // Check for potential market abuse\n        if (spread >= threshold) {\n            return true;\n        }\n        return false;\n    }\n\n    function detectManipulativeBehaviorDetected(string memory symbol,uint256 orderId) public view  returns (bool) {\n        // Check if the order price deviates significantly from the current market price\n        //uint256 priceDeviation = order.price > orderBook.currentPrice ? order.price - orderBook.currentPrice : orderBook.currentPrice - order.price;\n        uint256 bidPriceDeviation = buyOrders[symbol][orderId].price > highestBid[symbol] ? buyOrders[symbol][orderId].price - highestBid[symbol] : highestBid[symbol] - buyOrders[symbol][orderId].price;\n        uint256 askPriceDeviation = sellOrders[symbol][orderId].price < lowestAsk[symbol] ? lowestAsk[symbol] - sellOrders[symbol][orderId].price : sellOrders[symbol][orderId].price - lowestAsk[symbol];\n\n        // Check for potential manipulative behavior\n        if (bidPriceDeviation >= priceThreshold || askPriceDeviation > priceThreshold) {\n            return true;\n        }\n        return false;\n    }\n}",
  "sourcePath": "/Volumes/My Book/projects/pingleware-contracts/contracts/finance/elmx/OrderBook.sol",
  "compiler": {
    "name": "solc",
    "version": "0.8.18+commit.87f61d96.Emscripten.clang"
  },
  "schemaVersion": "3.4.12",
  "updatedAt": "2023-10-22T00:13:31.527Z",
  "devdoc": {
    "kind": "dev",
    "methods": {},
    "version": 1
  },
  "userdoc": {
    "kind": "user",
    "methods": {},
    "version": 1
  }
}