{
  "contractName": "Owned",
  "abi": [
    {
      "inputs": [],
      "stateMutability": "nonpayable",
      "type": "constructor"
    },
    {
      "anonymous": false,
      "inputs": [
        {
          "indexed": false,
          "internalType": "address",
          "name": "sender",
          "type": "address"
        },
        {
          "indexed": false,
          "internalType": "uint256",
          "name": "amount",
          "type": "uint256"
        }
      ],
      "name": "FallbackEvent",
      "type": "event"
    },
    {
      "anonymous": false,
      "inputs": [
        {
          "indexed": true,
          "internalType": "address",
          "name": "previousOwner",
          "type": "address"
        },
        {
          "indexed": true,
          "internalType": "address",
          "name": "newOwner",
          "type": "address"
        }
      ],
      "name": "OwnershipTransferred",
      "type": "event"
    },
    {
      "anonymous": false,
      "inputs": [
        {
          "indexed": false,
          "internalType": "address",
          "name": "sender",
          "type": "address"
        },
        {
          "indexed": false,
          "internalType": "uint256",
          "name": "amount",
          "type": "uint256"
        }
      ],
      "name": "ReceiveEvent",
      "type": "event"
    },
    {
      "stateMutability": "payable",
      "type": "fallback"
    },
    {
      "inputs": [],
      "name": "WAIT",
      "outputs": [
        {
          "internalType": "uint256",
          "name": "",
          "type": "uint256"
        }
      ],
      "stateMutability": "view",
      "type": "function"
    },
    {
      "stateMutability": "payable",
      "type": "receive"
    },
    {
      "inputs": [],
      "name": "getOwner",
      "outputs": [
        {
          "internalType": "address",
          "name": "",
          "type": "address"
        }
      ],
      "stateMutability": "payable",
      "type": "function"
    },
    {
      "inputs": [],
      "name": "renounceOwnership",
      "outputs": [],
      "stateMutability": "payable",
      "type": "function"
    },
    {
      "inputs": [
        {
          "internalType": "address",
          "name": "newOwner",
          "type": "address"
        }
      ],
      "name": "transferOwnership",
      "outputs": [],
      "stateMutability": "payable",
      "type": "function"
    }
  ],
  "bytecode": "0x6080604052600060015534801561001557600080fd5b5060008054600160a060020a031916339081178255426001556040519091907f8be0079c531659141344cd1fd0a4f28419497f9722a3daafe3b4186f6b6457e0908290a3610459806100686000396000f3fe6080604052600436106100465760e060020a6000350463715018a6811461010d578063893d20e814610117578063b8fb3a511461013c578063f2fde38b1461015f57610086565b36610086577fcc85d09d309785db93d6df19917f2e6cc07fe27cd01c08c8279145deb5cf4526333460405161007c92919061032e565b60405180910390a1005b3233146100dc5760405160e560020a62461bcd0281526020600482015260196024820152603860020a787068697368696e672061747461636b2064657465637465643f0260448201526064015b60405180910390fd5b7f26875833861a2b006512a11f1b86edf95df96131040f3caeed72989ee9858083333460405161007c92919061032e565b610115610172565b005b61011f6101d7565b604051600160a060020a0390911681526020015b60405180910390f35b34801561014857600080fd5b50610151601e81565b604051908152602001610133565b61011561016d366004610347565b61024d565b600054600160a060020a0316331461019f5760405160e560020a62461bcd0281526004016100d390610377565b60008054604051600160a060020a0390911690600080516020610404833981519152908390a360008054600160a060020a0319169055565b6000601e6001546101e891906103ab565b42116102095760405160e560020a62461bcd0281526004016100d3906103d6565b601e60015461021891906103ab565b42116102395760405160e560020a62461bcd0281526004016100d3906103d6565b5042600155600054600160a060020a031690565b600054600160a060020a0316331461027a5760405160e560020a62461bcd0281526004016100d390610377565b600160a060020a0381166102e55760405160e560020a62461bcd02815260206004820152602660248201527f4f776e61626c653a206e6577206f776e657220697320746865207a65726f2061604482015260d060020a656464726573730260648201526084016100d3565b60008054604051600160a060020a038085169392169160008051602061040483398151915291a360008054600160a060020a031916600160a060020a0392909216919091179055565b600160a060020a03929092168252602082015260400190565b60006020828403121561035957600080fd5b8135600160a060020a038116811461037057600080fd5b9392505050565b6020808252601790820152604960020a7630b1b1b2b9b9903232b734b2b2103337b91037bbb732b902604082015260600190565b808201808211156103d05760e060020a634e487b710260009081526011600452602490fd5b92915050565b6020808252601090820152608160020a6f3930ba32903634b6b4ba1032b93937b90260408201526060019056fe8be0079c531659141344cd1fd0a4f28419497f9722a3daafe3b4186f6b6457e0a2646970667358221220dcff5c71705205acca186c6375418dfbd9670054985b7b85ea6a02d2303cb8e264736f6c63430008120033",
  "immutableReferences": {},
  "source": "// SPDX-License-Identifier: CC-BY-4.0\r\npragma solidity >=0.4.22 <0.9.0;\r\n\r\nimport \"../libs/ecverify.sol\";\r\nimport \"./ReentrancyGuard.sol\";\r\n\r\ncontract Owned {\r\n    uint256 constant public WAIT = 30 seconds;\r\n\r\n    address private owner;\r\n\r\n    uint256 private previous_block_timestamp = 0;\r\n\r\n    mapping(uint256 => bool) private usedNonces;\r\n\r\n    event FallbackEvent(address sender, uint256 amount);\r\n    event ReceiveEvent(address sender, uint256 amount);\r\n    event OwnershipTransferred(address indexed previousOwner, address indexed newOwner);\r\n\r\n    constructor() {\r\n        owner = msg.sender;\r\n        previous_block_timestamp = block.timestamp;\r\n        emit OwnershipTransferred(address(0), msg.sender);\r\n    }\r\n\r\n    modifier rateLimitCheck() {\r\n        require (block.timestamp > previous_block_timestamp + WAIT, \"rate limit error\");\r\n        _;\r\n    }\r\n\r\n    /**\r\n     * Solving the onlyOwner sppofing:\r\n     * using web3.eth.sign() to generate a signed hash of the owner address and passing the hash and signature to this method\r\n     *\r\n     */\r\n    modifier onlyOwner() {\r\n        require (msg.sender == owner, \"access denied for owner\"); // WARNING: this can be spoofed!\r\n        _;\r\n    }\r\n\r\n    modifier isOwner(address addr) {\r\n        require (addr == owner, \"owner access denied for user\"); // WARNING: this can be spoofed!\r\n        _;\r\n    }\r\n\r\n    modifier okOwner() {\r\n        require(msg.sender == owner,\"unauthorized, not the owner\");\r\n        _;\r\n    }\r\n\r\n    function getOwner()\r\n        public\r\n        payable\r\n        rateLimitCheck\r\n        returns (address)\r\n    {\r\n        require (block.timestamp > previous_block_timestamp + WAIT, \"rate limit error\");\r\n        previous_block_timestamp = block.timestamp;\r\n        return owner;\r\n    }\r\n\r\n    // @notice Will receive any eth sent to the contract\r\n    // https://ethereum.stackexchange.com/questions/42995/how-to-send-ether-to-a-contract-in-truffle-test\r\n    // https://www.codegrepper.com/code-examples/whatever/Expected+a+state+variable+declaration.+If+you+intended+this+as+a+fallback+function+or+a+function+to+handle+plain+ether+transactions%2C+use+the+%22fallback%22+keyword+or+the+%22receive%22+keyword+instead.\r\n    fallback()\r\n        external\r\n        payable\r\n    {\r\n        require(tx.origin == msg.sender, \"phishing attack detected?\");\r\n        emit FallbackEvent(msg.sender,msg.value);\r\n    }\r\n\r\n    receive()\r\n        external\r\n        payable\r\n    {\r\n        emit ReceiveEvent(msg.sender,msg.value);\r\n    }\r\n\r\n    /**\r\n     * @dev Leaves the contract without owner. It will not be possible to call\r\n     * `onlyOwner` functions anymore. Can only be called by the current owner.\r\n     *\r\n     * NOTE: Renouncing ownership will leave the contract without an owner,\r\n     * thereby removing any functionality that is only available to the owner.\r\n     */\r\n    function renounceOwnership() public payable virtual onlyOwner {\r\n        emit OwnershipTransferred(owner, address(0));\r\n        owner = address(0);\r\n    }\r\n\r\n    /**\r\n     * @dev Transfers ownership of the contract to a new account (`newOwner`).\r\n     * Can only be called by the current owner.\r\n     */\r\n    function transferOwnership(address newOwner) public payable virtual onlyOwner {\r\n        require(newOwner != address(0), \"Ownable: new owner is the zero address\");\r\n        emit OwnershipTransferred(owner, newOwner);\r\n        owner = newOwner;\r\n    }\r\n}",
  "sourcePath": "/Volumes/My Book/projects/pingleware-contracts/contracts/common/Owned.sol",
  "compiler": {
    "name": "solc",
    "version": "0.8.18+commit.87f61d96.Emscripten.clang"
  },
  "schemaVersion": "3.4.12",
  "updatedAt": "2023-10-22T04:05:44.118Z",
  "devdoc": {
    "kind": "dev",
    "methods": {
      "renounceOwnership()": {
        "details": "Leaves the contract without owner. It will not be possible to call `onlyOwner` functions anymore. Can only be called by the current owner. NOTE: Renouncing ownership will leave the contract without an owner, thereby removing any functionality that is only available to the owner."
      },
      "transferOwnership(address)": {
        "details": "Transfers ownership of the contract to a new account (`newOwner`). Can only be called by the current owner."
      }
    },
    "version": 1
  },
  "userdoc": {
    "kind": "user",
    "methods": {},
    "version": 1
  }
}