{
  "contractName": "Owned",
  "abi": [
    {
      "inputs": [],
      "stateMutability": "nonpayable",
      "type": "constructor"
    },
    {
      "anonymous": false,
      "inputs": [
        {
          "indexed": false,
          "internalType": "address",
          "name": "sender",
          "type": "address"
        },
        {
          "indexed": false,
          "internalType": "uint256",
          "name": "amount",
          "type": "uint256"
        }
      ],
      "name": "FallbackEvent",
      "type": "event"
    },
    {
      "anonymous": false,
      "inputs": [
        {
          "indexed": true,
          "internalType": "address",
          "name": "previousOwner",
          "type": "address"
        },
        {
          "indexed": true,
          "internalType": "address",
          "name": "newOwner",
          "type": "address"
        }
      ],
      "name": "OwnershipTransferred",
      "type": "event"
    },
    {
      "anonymous": false,
      "inputs": [
        {
          "indexed": false,
          "internalType": "address",
          "name": "sender",
          "type": "address"
        },
        {
          "indexed": false,
          "internalType": "uint256",
          "name": "amount",
          "type": "uint256"
        }
      ],
      "name": "ReceiveEvent",
      "type": "event"
    },
    {
      "stateMutability": "payable",
      "type": "fallback"
    },
    {
      "inputs": [],
      "name": "WAIT",
      "outputs": [
        {
          "internalType": "uint256",
          "name": "",
          "type": "uint256"
        }
      ],
      "stateMutability": "view",
      "type": "function"
    },
    {
      "stateMutability": "payable",
      "type": "receive"
    },
    {
      "inputs": [],
      "name": "getOwner",
      "outputs": [
        {
          "internalType": "address",
          "name": "",
          "type": "address"
        }
      ],
      "stateMutability": "payable",
      "type": "function"
    },
    {
      "inputs": [],
      "name": "renounceOwnership",
      "outputs": [],
      "stateMutability": "payable",
      "type": "function"
    },
    {
      "inputs": [
        {
          "internalType": "address",
          "name": "newOwner",
          "type": "address"
        }
      ],
      "name": "transferOwnership",
      "outputs": [],
      "stateMutability": "payable",
      "type": "function"
    }
  ],
  "bytecode": "0x608080604052346100535760008054600160a060020a03191633908117825542600155907f8be0079c531659141344cd1fd0a4f28419497f9722a3daafe3b4186f6b6457e08180a361038490816100598239f35b600080fdfe60406080815260043610156100c4575b361561009557333203610050577f26875833861a2b006512a11f1b86edf95df96131040f3caeed72989ee985808390518061004b3433836102c7565b0390a1005b5160e560020a62461bcd0281526020600482015260196024820152603860020a787068697368696e672061747461636b2064657465637465643f026044820152606490fd5b7fcc85d09d309785db93d6df19917f2e6cc07fe27cd01c08c8279145deb5cf452690518061004b3433836102c7565b600060e060020a81350463715018a6811461023a578063893d20e8146101db578063b8fb3a51146101bf5763f2fde38b146100ff575061000f565b9060203660031901126101bb57600160a060020a0360043581811692908390036101b7578354918216906101348233146102e2565b831561015f5750829060008051602061032f8339815191528580a3600160a060020a03191617815580f35b5160e560020a62461bcd02815260206004820152602660248201527f4f776e61626c653a206e6577206f776e657220697320746865207a65726f2061604482015260d060020a65646472657373026064820152608490fd5b8380fd5b5080fd5b5090346101bb57816003193601126101bb5760209051601e8152f35b5090816003193601126101bb57600154601e8101809111610223579161020d602093421161020881610282565b610282565b42600155549051600160a060020a039091168152f35b60e060020a634e487b710283526011600452602483fd5b508060031936011261027f57805481600160a060020a03821661025e3382146102e2565b60008051602061032f8339815191528280a3600160a060020a031916815580f35b80fd5b1561028957565b60405160e560020a62461bcd0281526020600482015260106024820152608160020a6f3930ba32903634b6b4ba1032b93937b9026044820152606490fd5b600160a060020a039091168152602081019190915260400190565b156102e957565b60405160e560020a62461bcd0281526020600482015260176024820152604960020a7630b1b1b2b9b9903232b734b2b2103337b91037bbb732b9026044820152606490fdfe8be0079c531659141344cd1fd0a4f28419497f9722a3daafe3b4186f6b6457e0a264697066735822122077373679045edba7b1a7be937e8c5fda3d543d0e72623dca4bff593d370d109f64736f6c63430008120033",
  "immutableReferences": {},
  "source": "// SPDX-License-Identifier: CC-BY-4.0\r\npragma solidity >=0.4.22 <0.9.0;\r\n\r\nimport \"../libs/ecverify.sol\";\r\nimport \"./ReentrancyGuard.sol\";\r\n\r\ncontract Owned {\r\n    uint256 constant public WAIT = 30 seconds;\r\n\r\n    address private owner;\r\n\r\n    uint256 private previous_block_timestamp = 0;\r\n\r\n    mapping(uint256 => bool) private usedNonces;\r\n\r\n    event FallbackEvent(address sender, uint256 amount);\r\n    event ReceiveEvent(address sender, uint256 amount);\r\n    event OwnershipTransferred(address indexed previousOwner, address indexed newOwner);\r\n\r\n    constructor() {\r\n        owner = msg.sender;\r\n        previous_block_timestamp = block.timestamp;\r\n        emit OwnershipTransferred(address(0), msg.sender);\r\n    }\r\n\r\n    modifier rateLimitCheck() {\r\n        require (block.timestamp > previous_block_timestamp + WAIT, \"rate limit error\");\r\n        _;\r\n    }\r\n\r\n    /**\r\n     * Solving the onlyOwner sppofing:\r\n     * using web3.eth.sign() to generate a signed hash of the owner address and passing the hash and signature to this method\r\n     *\r\n     */\r\n    modifier onlyOwner() {\r\n        require (msg.sender == owner, \"access denied for owner\"); // WARNING: this can be spoofed!\r\n        _;\r\n    }\r\n\r\n    modifier isOwner(address addr) {\r\n        require (addr == owner, \"owner access denied for user\"); // WARNING: this can be spoofed!\r\n        _;\r\n    }\r\n\r\n    modifier okOwner() {\r\n        require(msg.sender == owner,\"unauthorized, not the owner\");\r\n        _;\r\n    }\r\n\r\n    function getOwner()\r\n        public\r\n        payable\r\n        rateLimitCheck\r\n        returns (address)\r\n    {\r\n        require (block.timestamp > previous_block_timestamp + WAIT, \"rate limit error\");\r\n        previous_block_timestamp = block.timestamp;\r\n        return owner;\r\n    }\r\n\r\n    // @notice Will receive any eth sent to the contract\r\n    // https://ethereum.stackexchange.com/questions/42995/how-to-send-ether-to-a-contract-in-truffle-test\r\n    // https://www.codegrepper.com/code-examples/whatever/Expected+a+state+variable+declaration.+If+you+intended+this+as+a+fallback+function+or+a+function+to+handle+plain+ether+transactions%2C+use+the+%22fallback%22+keyword+or+the+%22receive%22+keyword+instead.\r\n    fallback()\r\n        external\r\n        payable\r\n    {\r\n        require(tx.origin == msg.sender, \"phishing attack detected?\");\r\n        emit FallbackEvent(msg.sender,msg.value);\r\n    }\r\n\r\n    receive()\r\n        external\r\n        payable\r\n    {\r\n        emit ReceiveEvent(msg.sender,msg.value);\r\n    }\r\n\r\n    /**\r\n     * @dev Leaves the contract without owner. It will not be possible to call\r\n     * `onlyOwner` functions anymore. Can only be called by the current owner.\r\n     *\r\n     * NOTE: Renouncing ownership will leave the contract without an owner,\r\n     * thereby removing any functionality that is only available to the owner.\r\n     */\r\n    function renounceOwnership() public payable virtual onlyOwner {\r\n        emit OwnershipTransferred(owner, address(0));\r\n        owner = address(0);\r\n    }\r\n\r\n    /**\r\n     * @dev Transfers ownership of the contract to a new account (`newOwner`).\r\n     * Can only be called by the current owner.\r\n     */\r\n    function transferOwnership(address newOwner) public payable virtual onlyOwner {\r\n        require(newOwner != address(0), \"Ownable: new owner is the zero address\");\r\n        emit OwnershipTransferred(owner, newOwner);\r\n        owner = newOwner;\r\n    }\r\n}",
  "sourcePath": "/Volumes/HOME/pingleware-contracts/contracts/common/Owned.sol",
  "compiler": {
    "name": "solc",
    "version": "0.8.18+commit.87f61d96.Emscripten.clang"
  },
  "schemaVersion": "3.4.12",
  "updatedAt": "2024-05-23T18:56:24.969Z",
  "devdoc": {
    "kind": "dev",
    "methods": {
      "renounceOwnership()": {
        "details": "Leaves the contract without owner. It will not be possible to call `onlyOwner` functions anymore. Can only be called by the current owner. NOTE: Renouncing ownership will leave the contract without an owner, thereby removing any functionality that is only available to the owner."
      },
      "transferOwnership(address)": {
        "details": "Transfers ownership of the contract to a new account (`newOwner`). Can only be called by the current owner."
      }
    },
    "version": 1
  },
  "userdoc": {
    "kind": "user",
    "methods": {},
    "version": 1
  }
}