{
  "contractName": "PawnShop",
  "abi": [
    {
      "inputs": [],
      "stateMutability": "nonpayable",
      "type": "constructor"
    },
    {
      "anonymous": false,
      "inputs": [
        {
          "indexed": false,
          "internalType": "uint256",
          "name": "itemId",
          "type": "uint256"
        }
      ],
      "name": "ItemDefaulted",
      "type": "event"
    },
    {
      "anonymous": false,
      "inputs": [
        {
          "indexed": false,
          "internalType": "uint256",
          "name": "itemId",
          "type": "uint256"
        },
        {
          "indexed": false,
          "internalType": "string",
          "name": "name",
          "type": "string"
        },
        {
          "indexed": false,
          "internalType": "uint256",
          "name": "value",
          "type": "uint256"
        },
        {
          "indexed": false,
          "internalType": "uint256",
          "name": "pawnedAmount",
          "type": "uint256"
        },
        {
          "indexed": false,
          "internalType": "uint256",
          "name": "redemptionDate",
          "type": "uint256"
        },
        {
          "indexed": false,
          "internalType": "address",
          "name": "pawnedBy",
          "type": "address"
        }
      ],
      "name": "ItemPawned",
      "type": "event"
    },
    {
      "anonymous": false,
      "inputs": [
        {
          "indexed": false,
          "internalType": "uint256",
          "name": "itemId",
          "type": "uint256"
        },
        {
          "indexed": false,
          "internalType": "address",
          "name": "redeemedBy",
          "type": "address"
        }
      ],
      "name": "ItemRedeemed",
      "type": "event"
    },
    {
      "inputs": [],
      "name": "itemCount",
      "outputs": [
        {
          "internalType": "uint256",
          "name": "",
          "type": "uint256"
        }
      ],
      "stateMutability": "view",
      "type": "function"
    },
    {
      "inputs": [],
      "name": "owner",
      "outputs": [
        {
          "internalType": "address",
          "name": "",
          "type": "address"
        }
      ],
      "stateMutability": "view",
      "type": "function"
    },
    {
      "inputs": [
        {
          "internalType": "uint256",
          "name": "",
          "type": "uint256"
        }
      ],
      "name": "pawnedItems",
      "outputs": [
        {
          "internalType": "string",
          "name": "name",
          "type": "string"
        },
        {
          "internalType": "uint256",
          "name": "value",
          "type": "uint256"
        },
        {
          "internalType": "uint256",
          "name": "pawnedAmount",
          "type": "uint256"
        },
        {
          "internalType": "uint256",
          "name": "redemptionDate",
          "type": "uint256"
        },
        {
          "internalType": "address",
          "name": "pawnedBy",
          "type": "address"
        },
        {
          "internalType": "bool",
          "name": "redeemed",
          "type": "bool"
        }
      ],
      "stateMutability": "view",
      "type": "function"
    },
    {
      "inputs": [
        {
          "internalType": "string",
          "name": "_name",
          "type": "string"
        },
        {
          "internalType": "uint256",
          "name": "_value",
          "type": "uint256"
        },
        {
          "internalType": "uint256",
          "name": "_pawnedAmount",
          "type": "uint256"
        },
        {
          "internalType": "uint256",
          "name": "_redemptionDate",
          "type": "uint256"
        }
      ],
      "name": "pawnItem",
      "outputs": [],
      "stateMutability": "payable",
      "type": "function"
    },
    {
      "inputs": [
        {
          "internalType": "uint256",
          "name": "_itemId",
          "type": "uint256"
        }
      ],
      "name": "redeemItem",
      "outputs": [],
      "stateMutability": "payable",
      "type": "function"
    },
    {
      "inputs": [
        {
          "internalType": "uint256",
          "name": "_itemId",
          "type": "uint256"
        }
      ],
      "name": "defaultItem",
      "outputs": [],
      "stateMutability": "nonpayable",
      "type": "function"
    },
    {
      "inputs": [
        {
          "internalType": "uint256",
          "name": "_itemId",
          "type": "uint256"
        }
      ],
      "name": "getItem",
      "outputs": [
        {
          "internalType": "string",
          "name": "",
          "type": "string"
        },
        {
          "internalType": "uint256",
          "name": "",
          "type": "uint256"
        },
        {
          "internalType": "uint256",
          "name": "",
          "type": "uint256"
        },
        {
          "internalType": "uint256",
          "name": "",
          "type": "uint256"
        },
        {
          "internalType": "address",
          "name": "",
          "type": "address"
        },
        {
          "internalType": "bool",
          "name": "",
          "type": "bool"
        }
      ],
      "stateMutability": "view",
      "type": "function"
    }
  ],
  "bytecode": "0x6080806040523461002b5760008054600160a060020a03191633178155600155610c5e90816100318239f35b600080fdfe6080604052600436101561001257600080fd5b60e060020a60003504631c26dc2381146107e35780633129e773146107325780634cdda860146106c75780636bfb0d01146106a95780638da5cb5b14610680578063dbac4808146101ee5763f98013161461006c57600080fd5b346101e95760203660031901126101e95760005460043590600160a060020a0316330361018f5780151580610183575b6100a590610b77565b8060005260026020526040600020906004820190815491600360a060020a946100d360ff8787041615610bbb565b015442111561011b5760a060020a60ff021990921690921790556040519081527f8ee27e84734380a9ca6d6e2c073c92ebdd783421eac9e09186e6ac09047979b790602090a1005b60405160e560020a62461bcd02815260206004820152603460248201527f4974656d2063616e2062652064656661756c746564206f6e6c792061667465726044820152606060020a732074686520726564656d7074696f6e2064617465026064820152608490fd5b5060015481111561009c565b60405160e560020a62461bcd02815260206004820152602660248201527f4f6e6c7920746865206f776e65722063616e20706572666f726d207468697320604482015260d160020a6530b1ba34b7b7026064820152608490fd5b600080fd5b60803660031901126101e9576004356001604060020a0381116101e957366023820112156101e95760048101356001604060020a0381116104b15760405191610241601f8301601f191660200184610aaf565b81835236602483830101116101e95781600092602460209301838601378301015280511561063857602435156105e157604435156105865742606435111561052d5760443534106104e55760015460001981146104cb576001019081600155604051916102ad83610a94565b818352602435602084015260443560408401526064356060840152336080840152600060a0840152600052600260205260406000209180519283516001604060020a0381116104b1576103008254610a55565b601f811161046d575b506020601f82116001146103ef57908060049392600080516020610c09833981519152976000926103e4575b5050816002029160080260020a6000190419161781555b6020830151600182015560408301516002820155606083015160038201550190600160a060020a0360808201511682549160a060020a60ff029060a08060020a9101511515021691600160a860020a031916171790556001546103c1604051928392835260c0602084015260c08301906109d7565b6024356040830152604435606083015260643560808301523360a08301520390a1005b015190508780610335565b8260005260206000209560005b601f1984168110610455575082600080516020610c098339815191529760019360029360049796601f1981161061043a575b5050500201815561034c565b01516008601f841602840a600019041916905588808061042e565b828201518855600190970196602092830192016103fc565b8260005260206000206020601f8401048101602084106104aa575b6020601f8401048201811061049e575050610309565b60008155600101610488565b5080610488565b60e060020a634e487b710260009081526041600452602490fd5b60e060020a634e487b710260009081526011600452602490fd5b60405160e560020a62461bcd02815260206004820152601a60248201527f496e73756666696369656e74207061776e656420616d6f756e740000000000006044820152606490fd5b60405160e560020a62461bcd02815260206004820152602560248201527f526564656d7074696f6e2064617465206d75737420626520696e207468652066604482015260d860020a647574757265026064820152608490fd5b60405160e560020a62461bcd02815260206004820152602760248201527f5061776e656420616d6f756e74206d7573742062652067726561746572207468604482015260c860020a66616e207a65726f026064820152608490fd5b60405160e560020a62461bcd028152602060048201526024808201527f4974656d2076616c7565206d7573742062652067726561746572207468616e20604482015260e060020a637a65726f026064820152608490fd5b60405160e560020a62461bcd02815260206004820152601b60248201527f4974656d206e616d65206d757374206e6f7420626520656d70747900000000006044820152606490fd5b346101e95760003660031901126101e957600054604051600160a060020a039091168152602090f35b346101e95760003660031901126101e9576020600154604051908152f35b346101e95760203660031901126101e957600435600052600260205260406000206106f181610ad2565b60018201546002830154600384015460049094015460405194859461072e9460a060020a840460ff1694600160a060020a03909416939187610a17565b0390f35b346101e95760203660031901126101e957600435801515806107d7575b61075890610b77565b6000526002602052604060002060405161077181610a94565b61072e60a061077f84610ad2565b928381526001850154948560208301526002810154806040840152600460038301549283606086015201549260ff60018660020a038516948560808401528660020a9004161515948591015260405196879687610a17565b5060015481111561074f565b6020806003193601126101e95760043590811515806109cb575b61080690610b77565b60008281526002825260409020600481018054919060a060020a61082f81850460ff1615610bbb565b6003830154421061096957600160a060020a039284841633036109125760020154938434106108ca5760a060020a60ff021916179055600080548594939192839283928392168282156108c1575bf1156108b5577fb1eb15dc4b5de6600193c9844a13fce51a803945e8af89faed0f58974b03e6c69160409182519182523390820152a1005b6040513d6000823e3d90fd5b506108fc61087d565b60405160e560020a62461bcd02815260048101879052601e60248201527f496e73756666696369656e7420726564656d7074696f6e20616d6f756e7400006044820152606490fd5b60405160e560020a62461bcd02815260048101879052602360248201527f4f6e6c7920746865207061776e65642063616e2072656465656d207468652069604482015260e860020a6274656d026064820152608490fd5b60405160e560020a62461bcd02815260048101869052602e60248201527f4974656d2063616e2062652072656465656d65642061667465722074686520726044820152609060020a6d6564656d7074696f6e2064617465026064820152608490fd5b506001548211156107fd565b919082519283825260005b848110610a03575050826000602080949584010152601f8019910116010190565b6020818301810151848301820152016109e2565b9491969592610a3160a0959260c0885260c08801906109d7565b9760208701526040860152606085015260018360020a031660808401521515910152565b9060016002830492168015610a8a575b6020831014610a7057565b60e060020a634e487b710260009081526022600452602490fd5b91607f1691610a65565b60c081019081106001604060020a038211176104b157604052565b601f909101601f19168101906001604060020a038211908210176104b157604052565b9060405191826000825492610ae684610a55565b908184526001948581169081600014610b555750600114610b12575b5050610b1092500383610aaf565b565b9093915060005260209081600020936000915b818310610b3d575050610b1093508201013880610b02565b85548884018501529485019487945091830191610b25565b915050610b1094506020925060ff191682840152151581028201013880610b02565b15610b7e57565b60405160e560020a62461bcd02815260206004820152600f6024820152608a60020a6e125b9d985b1a59081a5d195b481251026044820152606490fd5b15610bc257565b60405160e560020a62461bcd0281526020600482015260186024820152604260020a77125d195b481a5cc8185b1c9958591e481c995919595b5959026044820152606490fdfe9ebc06999885a8899ada13d34593577f04189bbe3abbfcd05f8734ddb2a68e7ea2646970667358221220fe38b6382bb3fb4e09f2ead08d86acfff2a43285ddd68217fb1b195962ace25964736f6c63430008120033",
  "immutableReferences": {},
  "source": "// SPDX-License-Identifier: CC-BY-4.0\npragma solidity >=0.4.22 <0.9.0;\n\ncontract PawnShop {\n    address public owner; // The owner of the pawn shop\n    uint256 public itemCount; // Total number of pawned items\n\n    struct PawnedItem {\n        string name;\n        uint256 value;\n        uint256 pawnedAmount;\n        uint256 redemptionDate;\n        address pawnedBy;\n        bool redeemed;\n    }\n\n    mapping(uint256 => PawnedItem) public pawnedItems;\n\n    event ItemPawned(uint256 itemId, string name, uint256 value, uint256 pawnedAmount, uint256 redemptionDate, address pawnedBy);\n    event ItemRedeemed(uint256 itemId, address redeemedBy);\n    event ItemDefaulted(uint256 itemId);\n\n    constructor() {\n        owner = msg.sender;\n        itemCount = 0;\n    }\n\n    modifier onlyOwner() {\n        require(msg.sender == owner, \"Only the owner can perform this action\");\n        _;\n    }\n\n    function pawnItem(string memory _name, uint256 _value, uint256 _pawnedAmount, uint256 _redemptionDate) public payable {\n        require(bytes(_name).length > 0, \"Item name must not be empty\");\n        require(_value > 0, \"Item value must be greater than zero\");\n        require(_pawnedAmount > 0, \"Pawned amount must be greater than zero\");\n        require(_redemptionDate > block.timestamp, \"Redemption date must be in the future\");\n        require(msg.value >= _pawnedAmount, \"Insufficient pawned amount\");\n\n        itemCount++;\n        pawnedItems[itemCount] = PawnedItem({\n            name: _name,\n            value: _value,\n            pawnedAmount: _pawnedAmount,\n            redemptionDate: _redemptionDate,\n            pawnedBy: msg.sender,\n            redeemed: false\n        });\n\n        emit ItemPawned(itemCount, _name, _value, _pawnedAmount, _redemptionDate, msg.sender);\n    }\n\n    function redeemItem(uint256 _itemId) public payable {\n        require(_itemId > 0 && _itemId <= itemCount, \"Invalid item ID\");\n\n        PawnedItem storage item = pawnedItems[_itemId];\n        require(!item.redeemed, \"Item is already redeemed\");\n        require(item.redemptionDate <= block.timestamp, \"Item can be redeemed after the redemption date\");\n        require(msg.sender == item.pawnedBy, \"Only the pawned can redeem the item\");\n        require(msg.value >= item.pawnedAmount, \"Insufficient redemption amount\");\n\n        item.redeemed = true;\n\n        // Transfer the pawned amount to the owner\n        payable(owner).transfer(item.pawnedAmount);\n\n        emit ItemRedeemed(_itemId, msg.sender);\n    }\n\n    function defaultItem(uint256 _itemId) public onlyOwner {\n        require(_itemId > 0 && _itemId <= itemCount, \"Invalid item ID\");\n\n        PawnedItem storage item = pawnedItems[_itemId];\n        require(!item.redeemed, \"Item is already redeemed\");\n        require(item.redemptionDate < block.timestamp, \"Item can be defaulted only after the redemption date\");\n\n        item.redeemed = true;\n\n        emit ItemDefaulted(_itemId);\n    }\n\n    function getItem(uint256 _itemId) public view returns (string memory, uint256, uint256, uint256, address, bool) {\n        require(_itemId > 0 && _itemId <= itemCount, \"Invalid item ID\");\n        PawnedItem memory item = pawnedItems[_itemId];\n        return (item.name, item.value, item.pawnedAmount, item.redemptionDate, item.pawnedBy, item.redeemed);\n    }\n}\n",
  "sourcePath": "/Volumes/HOME/pingleware-contracts/contracts/retail/Pawn.sol",
  "compiler": {
    "name": "solc",
    "version": "0.8.18+commit.87f61d96.Emscripten.clang"
  },
  "schemaVersion": "3.4.12",
  "updatedAt": "2024-05-23T18:56:27.092Z",
  "devdoc": {
    "kind": "dev",
    "methods": {},
    "version": 1
  },
  "userdoc": {
    "kind": "user",
    "methods": {},
    "version": 1
  }
}