{
  "contractName": "PawnShop",
  "abi": [
    {
      "inputs": [],
      "stateMutability": "nonpayable",
      "type": "constructor"
    },
    {
      "anonymous": false,
      "inputs": [
        {
          "indexed": false,
          "internalType": "uint256",
          "name": "itemId",
          "type": "uint256"
        }
      ],
      "name": "ItemDefaulted",
      "type": "event"
    },
    {
      "anonymous": false,
      "inputs": [
        {
          "indexed": false,
          "internalType": "uint256",
          "name": "itemId",
          "type": "uint256"
        },
        {
          "indexed": false,
          "internalType": "string",
          "name": "name",
          "type": "string"
        },
        {
          "indexed": false,
          "internalType": "uint256",
          "name": "value",
          "type": "uint256"
        },
        {
          "indexed": false,
          "internalType": "uint256",
          "name": "pawnedAmount",
          "type": "uint256"
        },
        {
          "indexed": false,
          "internalType": "uint256",
          "name": "redemptionDate",
          "type": "uint256"
        },
        {
          "indexed": false,
          "internalType": "address",
          "name": "pawnedBy",
          "type": "address"
        }
      ],
      "name": "ItemPawned",
      "type": "event"
    },
    {
      "anonymous": false,
      "inputs": [
        {
          "indexed": false,
          "internalType": "uint256",
          "name": "itemId",
          "type": "uint256"
        },
        {
          "indexed": false,
          "internalType": "address",
          "name": "redeemedBy",
          "type": "address"
        }
      ],
      "name": "ItemRedeemed",
      "type": "event"
    },
    {
      "inputs": [],
      "name": "itemCount",
      "outputs": [
        {
          "internalType": "uint256",
          "name": "",
          "type": "uint256"
        }
      ],
      "stateMutability": "view",
      "type": "function",
      "constant": true
    },
    {
      "inputs": [],
      "name": "owner",
      "outputs": [
        {
          "internalType": "address",
          "name": "",
          "type": "address"
        }
      ],
      "stateMutability": "view",
      "type": "function",
      "constant": true
    },
    {
      "inputs": [
        {
          "internalType": "uint256",
          "name": "",
          "type": "uint256"
        }
      ],
      "name": "pawnedItems",
      "outputs": [
        {
          "internalType": "string",
          "name": "name",
          "type": "string"
        },
        {
          "internalType": "uint256",
          "name": "value",
          "type": "uint256"
        },
        {
          "internalType": "uint256",
          "name": "pawnedAmount",
          "type": "uint256"
        },
        {
          "internalType": "uint256",
          "name": "redemptionDate",
          "type": "uint256"
        },
        {
          "internalType": "address",
          "name": "pawnedBy",
          "type": "address"
        },
        {
          "internalType": "bool",
          "name": "redeemed",
          "type": "bool"
        }
      ],
      "stateMutability": "view",
      "type": "function",
      "constant": true
    },
    {
      "inputs": [
        {
          "internalType": "string",
          "name": "_name",
          "type": "string"
        },
        {
          "internalType": "uint256",
          "name": "_value",
          "type": "uint256"
        },
        {
          "internalType": "uint256",
          "name": "_pawnedAmount",
          "type": "uint256"
        },
        {
          "internalType": "uint256",
          "name": "_redemptionDate",
          "type": "uint256"
        }
      ],
      "name": "pawnItem",
      "outputs": [],
      "stateMutability": "payable",
      "type": "function",
      "payable": true
    },
    {
      "inputs": [
        {
          "internalType": "uint256",
          "name": "_itemId",
          "type": "uint256"
        }
      ],
      "name": "redeemItem",
      "outputs": [],
      "stateMutability": "payable",
      "type": "function",
      "payable": true
    },
    {
      "inputs": [
        {
          "internalType": "uint256",
          "name": "_itemId",
          "type": "uint256"
        }
      ],
      "name": "defaultItem",
      "outputs": [],
      "stateMutability": "nonpayable",
      "type": "function"
    },
    {
      "inputs": [
        {
          "internalType": "uint256",
          "name": "_itemId",
          "type": "uint256"
        }
      ],
      "name": "getItem",
      "outputs": [
        {
          "internalType": "string",
          "name": "",
          "type": "string"
        },
        {
          "internalType": "uint256",
          "name": "",
          "type": "uint256"
        },
        {
          "internalType": "uint256",
          "name": "",
          "type": "uint256"
        },
        {
          "internalType": "uint256",
          "name": "",
          "type": "uint256"
        },
        {
          "internalType": "address",
          "name": "",
          "type": "address"
        },
        {
          "internalType": "bool",
          "name": "",
          "type": "bool"
        }
      ],
      "stateMutability": "view",
      "type": "function",
      "constant": true
    }
  ],
  "bytecode": "0x608060405234801561001057600080fd5b5060008054600160a060020a03191633178155600155610e2f806100356000396000f3fe6080604052600436106100635760e060020a60003504631c26dc2381146100685780633129e7731461007d5780634cdda860146100b85780636bfb0d01146100d85780638da5cb5b146100fc578063dbac480814610134578063f980131614610147575b600080fd5b61007b610076366004610a50565b610167565b005b34801561008957600080fd5b5061009d610098366004610a50565b6103a7565b6040516100af96959493929190610aaf565b60405180910390f35b3480156100c457600080fd5b5061009d6100d3366004610a50565b61050d565b3480156100e457600080fd5b506100ee60015481565b6040519081526020016100af565b34801561010857600080fd5b5060005461011c90600160a060020a031681565b604051600160a060020a0390911681526020016100af565b61007b610142366004610b10565b6105d9565b34801561015357600080fd5b5061007b610162366004610a50565b6108b3565b60008111801561017957506001548111155b6101a15760405160e560020a62461bcd02815260040161019890610bd4565b60405180910390fd5b6000818152600260205260409020600481015460a060020a900460ff16156101de5760405160e560020a62461bcd02815260040161019890610c00565b428160030154111561024f5760405160e560020a62461bcd02815260206004820152602e60248201527f4974656d2063616e2062652072656465656d65642061667465722074686520726044820152609060020a6d6564656d7074696f6e2064617465026064820152608401610198565b6004810154600160a060020a031633146102bd5760405160e560020a62461bcd02815260206004820152602360248201527f4f6e6c7920746865207061776e65642063616e2072656465656d207468652069604482015260e860020a6274656d026064820152608401610198565b80600201543410156103145760405160e560020a62461bcd02815260206004820152601e60248201527f496e73756666696369656e7420726564656d7074696f6e20616d6f756e7400006044820152606401610198565b60048101805460a060020a60ff02191660a060020a179055600080546002830154604051600160a060020a039092169281156108fc029290818181858888f19350505050158015610369573d6000803e3d6000fd5b50604080518381523360208201527fb1eb15dc4b5de6600193c9844a13fce51a803945e8af89faed0f58974b03e6c691015b60405180910390a15050565b6060600080600080600080871180156103c257506001548711155b6103e15760405160e560020a62461bcd02815260040161019890610bd4565b600087815260026020526040808220815160c0810190925280548290829061040890610c35565b80601f016020809104026020016040519081016040528092919081815260200182805461043490610c35565b80156104815780601f1061045657610100808354040283529160200191610481565b820191906000526020600020905b81548152906001019060200180831161046457829003601f168201915b5050509183525050600182015460208083019190915260028301546040808401919091526003840154606080850191909152600490940154600160a060020a03811660808086019190915260a060020a90910460ff16151560a0948501528551928601519186015194860151908601519590930151919d909c50929a5090985091965090945092505050565b60026020526000908152604090208054819061052890610c35565b80601f016020809104026020016040519081016040528092919081815260200182805461055490610c35565b80156105a15780601f10610576576101008083540402835291602001916105a1565b820191906000526020600020905b81548152906001019060200180831161058457829003601f168201915b5050505060018301546002840154600385015460049095015493949193909250600160a060020a0381169060a060020a900460ff1686565b600084511161062d5760405160e560020a62461bcd02815260206004820152601b60248201527f4974656d206e616d65206d757374206e6f7420626520656d70747900000000006044820152606401610198565b6000831161068f5760405160e560020a62461bcd028152602060048201526024808201527f4974656d2076616c7565206d7573742062652067726561746572207468616e20604482015260e060020a637a65726f026064820152608401610198565b600082116106f55760405160e560020a62461bcd02815260206004820152602760248201527f5061776e656420616d6f756e74206d7573742062652067726561746572207468604482015260c860020a66616e207a65726f026064820152608401610198565b4281116107585760405160e560020a62461bcd02815260206004820152602560248201527f526564656d7074696f6e2064617465206d75737420626520696e207468652066604482015260d860020a647574757265026064820152608401610198565b813410156107ab5760405160e560020a62461bcd02815260206004820152601a60248201527f496e73756666696369656e74207061776e656420616d6f756e740000000000006044820152606401610198565b600180549060006107bb83610c73565b90915550506040805160c081018252858152602080820186905281830185905260608201849052336080830152600060a0830181905260015481526002909152919091208151819061080d9082610ced565b50602082015160018083019190915560408084015160028401556060840151600384015560808401516004909301805460a090950151151560a060020a02600160a860020a0319909516600160a060020a0390941693909317939093179091555490517f9ebc06999885a8899ada13d34593577f04189bbe3abbfcd05f8734ddb2a68e7e916108a59187908790879087903390610db2565b60405180910390a150505050565b600054600160a060020a031633146109225760405160e560020a62461bcd02815260206004820152602660248201527f4f6e6c7920746865206f776e65722063616e20706572666f726d207468697320604482015260d160020a6530b1ba34b7b7026064820152608401610198565b60008111801561093457506001548111155b6109535760405160e560020a62461bcd02815260040161019890610bd4565b6000818152600260205260409020600481015460a060020a900460ff16156109905760405160e560020a62461bcd02815260040161019890610c00565b42816003015410610a065760405160e560020a62461bcd02815260206004820152603460248201527f4974656d2063616e2062652064656661756c746564206f6e6c792061667465726044820152606060020a732074686520726564656d7074696f6e2064617465026064820152608401610198565b60048101805460a060020a60ff02191660a060020a1790556040517f8ee27e84734380a9ca6d6e2c073c92ebdd783421eac9e09186e6ac09047979b79061039b9084815260200190565b600060208284031215610a6257600080fd5b5035919050565b6000815180845260005b81811015610a8f57602081850181015186830182015201610a73565b506000602082860101526020601f19601f83011685010191505092915050565b60c081526000610ac260c0830189610a69565b60208301979097525060408101949094526060840192909252600160a060020a03166080830152151560a090910152919050565b60e060020a634e487b710260009081526041600452602490fd5b60008060008060808587031215610b2657600080fd5b84356001604060020a0380821115610b3d57600080fd5b818701915087601f830112610b5157600080fd5b813581811115610b6357610b63610af6565b604051601f8201601f19908116603f01168101908382118183101715610b8b57610b8b610af6565b816040528281528a6020848701011115610ba457600080fd5b82602086016020830137600060209382018401529a91890135995050604088013597606001359650945050505050565b6020808252600f90820152608a60020a6e125b9d985b1a59081a5d195b48125102604082015260600190565b6020808252601890820152604260020a77125d195b481a5cc8185b1c9958591e481c995919595b595902604082015260600190565b600281046001821680610c4957607f821691505b602082108103610c6d5760e060020a634e487b710260009081526022600452602490fd5b50919050565b600060018201610c975760e060020a634e487b710260009081526011600452602490fd5b5060010190565b601f821115610ce8576000818152602081206020601f86010481016020861015610cc55750805b6020601f860104820191505b81811015610ce457828155600101610cd1565b5050505b505050565b81516001604060020a03811115610d0657610d06610af6565b610d1a81610d148454610c35565b84610c9e565b602080601f831160018114610d535760008415610d375750858301515b60028086026008870290910a6000190419821617865550610ce4565b600085815260208120601f198616915b82811015610d8257888601518255948401946001909101908401610d63565b5085821015610da257878501516008601f88160260020a60001904191681555b5050505050600202600101905550565b86815260c060208201526000610dcb60c0830188610a69565b60408301969096525060608101939093526080830191909152600160a060020a031660a0909101529291505056fea2646970667358221220013d490b6fec7a7859d33285433cac7b671529ec6b71c68f12e6e4353b4a642964736f6c63430008120033",
  "immutableReferences": {},
  "source": "// SPDX-License-Identifier: CC-BY-4.0\npragma solidity >=0.4.22 <0.9.0;\n\ncontract PawnShop {\n    address public owner; // The owner of the pawn shop\n    uint256 public itemCount; // Total number of pawned items\n\n    struct PawnedItem {\n        string name;\n        uint256 value;\n        uint256 pawnedAmount;\n        uint256 redemptionDate;\n        address pawnedBy;\n        bool redeemed;\n    }\n\n    mapping(uint256 => PawnedItem) public pawnedItems;\n\n    event ItemPawned(uint256 itemId, string name, uint256 value, uint256 pawnedAmount, uint256 redemptionDate, address pawnedBy);\n    event ItemRedeemed(uint256 itemId, address redeemedBy);\n    event ItemDefaulted(uint256 itemId);\n\n    constructor() {\n        owner = msg.sender;\n        itemCount = 0;\n    }\n\n    modifier onlyOwner() {\n        require(msg.sender == owner, \"Only the owner can perform this action\");\n        _;\n    }\n\n    function pawnItem(string memory _name, uint256 _value, uint256 _pawnedAmount, uint256 _redemptionDate) public payable {\n        require(bytes(_name).length > 0, \"Item name must not be empty\");\n        require(_value > 0, \"Item value must be greater than zero\");\n        require(_pawnedAmount > 0, \"Pawned amount must be greater than zero\");\n        require(_redemptionDate > block.timestamp, \"Redemption date must be in the future\");\n        require(msg.value >= _pawnedAmount, \"Insufficient pawned amount\");\n\n        itemCount++;\n        pawnedItems[itemCount] = PawnedItem({\n            name: _name,\n            value: _value,\n            pawnedAmount: _pawnedAmount,\n            redemptionDate: _redemptionDate,\n            pawnedBy: msg.sender,\n            redeemed: false\n        });\n\n        emit ItemPawned(itemCount, _name, _value, _pawnedAmount, _redemptionDate, msg.sender);\n    }\n\n    function redeemItem(uint256 _itemId) public payable {\n        require(_itemId > 0 && _itemId <= itemCount, \"Invalid item ID\");\n\n        PawnedItem storage item = pawnedItems[_itemId];\n        require(!item.redeemed, \"Item is already redeemed\");\n        require(item.redemptionDate <= block.timestamp, \"Item can be redeemed after the redemption date\");\n        require(msg.sender == item.pawnedBy, \"Only the pawned can redeem the item\");\n        require(msg.value >= item.pawnedAmount, \"Insufficient redemption amount\");\n\n        item.redeemed = true;\n\n        // Transfer the pawned amount to the owner\n        payable(owner).transfer(item.pawnedAmount);\n\n        emit ItemRedeemed(_itemId, msg.sender);\n    }\n\n    function defaultItem(uint256 _itemId) public onlyOwner {\n        require(_itemId > 0 && _itemId <= itemCount, \"Invalid item ID\");\n\n        PawnedItem storage item = pawnedItems[_itemId];\n        require(!item.redeemed, \"Item is already redeemed\");\n        require(item.redemptionDate < block.timestamp, \"Item can be defaulted only after the redemption date\");\n\n        item.redeemed = true;\n\n        emit ItemDefaulted(_itemId);\n    }\n\n    function getItem(uint256 _itemId) public view returns (string memory, uint256, uint256, uint256, address, bool) {\n        require(_itemId > 0 && _itemId <= itemCount, \"Invalid item ID\");\n        PawnedItem memory item = pawnedItems[_itemId];\n        return (item.name, item.value, item.pawnedAmount, item.redemptionDate, item.pawnedBy, item.redeemed);\n    }\n}\n",
  "sourcePath": "/Volumes/My Book/projects/pingleware-contracts/contracts/retail/Pawn.sol",
  "compiler": {
    "name": "solc",
    "version": "0.8.18+commit.87f61d96.Emscripten.clang"
  },
  "schemaVersion": "3.4.12",
  "updatedAt": "2023-10-23T18:12:18.759Z",
  "networkType": "ethereum",
  "devdoc": {
    "kind": "dev",
    "methods": {},
    "version": 1
  },
  "userdoc": {
    "kind": "user",
    "methods": {},
    "version": 1
  }
}