{
  "contractName": "Payment",
  "abi": [
    {
      "anonymous": false,
      "inputs": [
        {
          "indexed": false,
          "internalType": "string",
          "name": "message",
          "type": "string"
        },
        {
          "indexed": false,
          "internalType": "uint256",
          "name": "amount",
          "type": "uint256"
        }
      ],
      "name": "PaymentInfo",
      "type": "event"
    },
    {
      "anonymous": false,
      "inputs": [
        {
          "indexed": false,
          "internalType": "string",
          "name": "message",
          "type": "string"
        }
      ],
      "name": "PaymentMessage",
      "type": "event"
    },
    {
      "inputs": [
        {
          "internalType": "address",
          "name": "_from",
          "type": "address"
        },
        {
          "internalType": "address",
          "name": "_to",
          "type": "address"
        },
        {
          "internalType": "uint256",
          "name": "_amount",
          "type": "uint256"
        }
      ],
      "name": "makePayment",
      "outputs": [
        {
          "internalType": "bool",
          "name": "",
          "type": "bool"
        },
        {
          "internalType": "uint256",
          "name": "",
          "type": "uint256"
        }
      ],
      "stateMutability": "nonpayable",
      "type": "function"
    }
  ],
  "bytecode": "0x608060405234801561001057600080fd5b506102f2806100206000396000f3fe608060405234801561001057600080fd5b506004361061002e5760e060020a600035046387e660d38114610033575b600080fd5b61004661004136600461021a565b610061565b60408051921515835260208301919091520160405180910390f35b6000807f5813616fa050686de3ec35855bc691f51a9f5a2f7429d4d4940994adc5b1eb7c836040516100bd91906040808252600a9082015260b160020a6930b6b7bab73a1034b99d026060820152602081019190915260800190565b60405180910390a1821580156100ea5750600160a060020a03851660009081526020819052604090205483115b156101475760008051602061029d833981519152604051610134906020808252601290820152607060020a71696e73756666696369656e742066756e647302604082015260600190565b60405180910390a15060009050806101f6565b600160a060020a0385166000908152602081905260408120805485929061016f908490610270565b9091555050600160a060020a0384166000908152602081905260408120805485929061019c908490610289565b909155505060405160008051602061029d833981519152906101e7906020808252601290820152607260020a7114dd58d8d95cdcd99d5b081c185e5b595b9d02604082015260600190565b60405180910390a15060019050815b935093915050565b8035600160a060020a038116811461021557600080fd5b919050565b60008060006060848603121561022f57600080fd5b610238846101fe565b9250610246602085016101fe565b9150604084013590509250925092565b60e060020a634e487b710260009081526011600452602490fd5b8181038181111561028357610283610256565b92915050565b808201808211156102835761028361025656feb6871ef893adcf210ef23c8a5897b726ecccd2ec16b829b33217e50da5832fb9a2646970667358221220778a7b3df0ba6233d5d144103ac38fe3018dc7b8c6a8e9e6ee78d860f58e944964736f6c63430008120033",
  "immutableReferences": {},
  "source": "// SPDX-License-Identifier: CC-BY-4.0\r\npragma solidity >=0.4.22 <0.9.0;\r\n\r\n\r\ncontract Payment {\r\n    mapping(address => uint) accbalance;\r\n\r\n    event PaymentMessage(string message);\r\n    event PaymentInfo(string message, uint amount);\r\n\r\n    function makePayment(address _from, address _to, uint _amount )\r\n        public\r\n        returns(bool, uint)\r\n    {\r\n        emit PaymentInfo('amount is:',_amount);\r\n\r\n        if(_amount<=0 && accbalance[_from]<_amount) {\r\n            emit PaymentMessage('insufficient funds');\r\n            return (false, 0);\r\n        }\r\n\r\n        accbalance[_from] -= _amount;\r\n        accbalance[_to] += _amount;\r\n        emit PaymentMessage('Successful payment');\r\n        return (true, _amount);\r\n    }\r\n}",
  "sourcePath": "/Volumes/My Book/projects/pingleware-contracts/contracts/transportation/Payment.sol",
  "compiler": {
    "name": "solc",
    "version": "0.8.18+commit.87f61d96.Emscripten.clang"
  },
  "schemaVersion": "3.4.12",
  "updatedAt": "2023-10-24T03:01:51.368Z",
  "networkType": "ethereum",
  "devdoc": {
    "kind": "dev",
    "methods": {},
    "version": 1
  },
  "userdoc": {
    "kind": "user",
    "methods": {},
    "version": 1
  }
}