{
  "contractName": "PaymentWallet",
  "abi": [
    {
      "inputs": [],
      "stateMutability": "nonpayable",
      "type": "constructor"
    },
    {
      "anonymous": false,
      "inputs": [
        {
          "indexed": false,
          "internalType": "address",
          "name": "",
          "type": "address"
        },
        {
          "indexed": false,
          "internalType": "address",
          "name": "",
          "type": "address"
        },
        {
          "indexed": false,
          "internalType": "uint256",
          "name": "",
          "type": "uint256"
        },
        {
          "indexed": false,
          "internalType": "string",
          "name": "",
          "type": "string"
        }
      ],
      "name": "AdminTransfer",
      "type": "event"
    },
    {
      "anonymous": false,
      "inputs": [
        {
          "indexed": false,
          "internalType": "address",
          "name": "",
          "type": "address"
        },
        {
          "indexed": false,
          "internalType": "address",
          "name": "",
          "type": "address"
        },
        {
          "indexed": false,
          "internalType": "uint256",
          "name": "",
          "type": "uint256"
        }
      ],
      "name": "DepositMade",
      "type": "event"
    },
    {
      "anonymous": false,
      "inputs": [
        {
          "indexed": false,
          "internalType": "address",
          "name": "",
          "type": "address"
        },
        {
          "indexed": false,
          "internalType": "address",
          "name": "",
          "type": "address"
        },
        {
          "indexed": false,
          "internalType": "uint256",
          "name": "",
          "type": "uint256"
        },
        {
          "indexed": false,
          "internalType": "string",
          "name": "",
          "type": "string"
        }
      ],
      "name": "FincenSARS",
      "type": "event"
    },
    {
      "anonymous": false,
      "inputs": [
        {
          "indexed": false,
          "internalType": "address",
          "name": "",
          "type": "address"
        },
        {
          "indexed": false,
          "internalType": "uint256",
          "name": "",
          "type": "uint256"
        }
      ],
      "name": "Transferred",
      "type": "event"
    },
    {
      "anonymous": false,
      "inputs": [
        {
          "indexed": false,
          "internalType": "uint256",
          "name": "",
          "type": "uint256"
        }
      ],
      "name": "Withdrawal",
      "type": "event"
    },
    {
      "inputs": [],
      "name": "contractOwner",
      "outputs": [
        {
          "internalType": "address",
          "name": "",
          "type": "address"
        }
      ],
      "stateMutability": "view",
      "type": "function",
      "constant": true
    },
    {
      "inputs": [],
      "name": "decimals",
      "outputs": [
        {
          "internalType": "uint256",
          "name": "",
          "type": "uint256"
        }
      ],
      "stateMutability": "view",
      "type": "function",
      "constant": true
    },
    {
      "inputs": [],
      "name": "name",
      "outputs": [
        {
          "internalType": "string",
          "name": "",
          "type": "string"
        }
      ],
      "stateMutability": "view",
      "type": "function",
      "constant": true
    },
    {
      "inputs": [],
      "name": "symbol",
      "outputs": [
        {
          "internalType": "string",
          "name": "",
          "type": "string"
        }
      ],
      "stateMutability": "view",
      "type": "function",
      "constant": true
    },
    {
      "inputs": [],
      "name": "totalSupply",
      "outputs": [
        {
          "internalType": "uint256",
          "name": "",
          "type": "uint256"
        }
      ],
      "stateMutability": "view",
      "type": "function",
      "constant": true
    },
    {
      "inputs": [
        {
          "internalType": "address",
          "name": "wallet",
          "type": "address"
        },
        {
          "internalType": "uint256",
          "name": "balance",
          "type": "uint256"
        },
        {
          "internalType": "uint256",
          "name": "expirationDate",
          "type": "uint256"
        },
        {
          "internalType": "uint256",
          "name": "cvcCode",
          "type": "uint256"
        }
      ],
      "name": "addWallet",
      "outputs": [],
      "stateMutability": "nonpayable",
      "type": "function"
    },
    {
      "inputs": [
        {
          "internalType": "address",
          "name": "wallet",
          "type": "address"
        },
        {
          "internalType": "uint256",
          "name": "_expirationDate",
          "type": "uint256"
        }
      ],
      "name": "setExpiration",
      "outputs": [],
      "stateMutability": "nonpayable",
      "type": "function"
    },
    {
      "inputs": [
        {
          "internalType": "address",
          "name": "wallet",
          "type": "address"
        },
        {
          "internalType": "uint256",
          "name": "_cvvCode",
          "type": "uint256"
        }
      ],
      "name": "setCVVCode",
      "outputs": [],
      "stateMutability": "nonpayable",
      "type": "function"
    },
    {
      "inputs": [
        {
          "internalType": "address",
          "name": "wallet",
          "type": "address"
        },
        {
          "internalType": "uint256",
          "name": "amount",
          "type": "uint256"
        }
      ],
      "name": "deposit",
      "outputs": [],
      "stateMutability": "nonpayable",
      "type": "function"
    },
    {
      "inputs": [
        {
          "internalType": "uint256",
          "name": "amount",
          "type": "uint256"
        }
      ],
      "name": "withdraw",
      "outputs": [],
      "stateMutability": "payable",
      "type": "function",
      "payable": true
    },
    {
      "inputs": [
        {
          "internalType": "address",
          "name": "to",
          "type": "address"
        },
        {
          "internalType": "uint256",
          "name": "amount",
          "type": "uint256"
        },
        {
          "internalType": "uint256",
          "name": "cvv",
          "type": "uint256"
        }
      ],
      "name": "transfer",
      "outputs": [],
      "stateMutability": "nonpayable",
      "type": "function"
    },
    {
      "inputs": [
        {
          "internalType": "address",
          "name": "from",
          "type": "address"
        },
        {
          "internalType": "address",
          "name": "to",
          "type": "address"
        },
        {
          "internalType": "uint256",
          "name": "amount",
          "type": "uint256"
        },
        {
          "internalType": "string",
          "name": "reason",
          "type": "string"
        }
      ],
      "name": "transferFrom",
      "outputs": [],
      "stateMutability": "nonpayable",
      "type": "function"
    },
    {
      "inputs": [
        {
          "internalType": "address",
          "name": "wallet",
          "type": "address"
        },
        {
          "internalType": "uint256",
          "name": "_cvvCode",
          "type": "uint256"
        }
      ],
      "name": "updatedCVV",
      "outputs": [],
      "stateMutability": "nonpayable",
      "type": "function"
    },
    {
      "inputs": [],
      "name": "getCVV",
      "outputs": [
        {
          "internalType": "uint256",
          "name": "",
          "type": "uint256"
        }
      ],
      "stateMutability": "view",
      "type": "function",
      "constant": true
    },
    {
      "inputs": [
        {
          "internalType": "address",
          "name": "wallet",
          "type": "address"
        },
        {
          "internalType": "uint256",
          "name": "_expirationDate",
          "type": "uint256"
        }
      ],
      "name": "updateExpirationDate",
      "outputs": [],
      "stateMutability": "nonpayable",
      "type": "function"
    },
    {
      "inputs": [
        {
          "internalType": "address",
          "name": "wallet",
          "type": "address"
        }
      ],
      "name": "getOwner",
      "outputs": [
        {
          "internalType": "address",
          "name": "",
          "type": "address"
        }
      ],
      "stateMutability": "view",
      "type": "function",
      "constant": true
    },
    {
      "inputs": [
        {
          "internalType": "address",
          "name": "wallet",
          "type": "address"
        }
      ],
      "name": "getBalance",
      "outputs": [
        {
          "internalType": "uint256",
          "name": "",
          "type": "uint256"
        }
      ],
      "stateMutability": "view",
      "type": "function",
      "constant": true
    },
    {
      "inputs": [
        {
          "internalType": "address",
          "name": "wallet",
          "type": "address"
        }
      ],
      "name": "isExpired",
      "outputs": [
        {
          "internalType": "bool",
          "name": "",
          "type": "bool"
        }
      ],
      "stateMutability": "view",
      "type": "function",
      "constant": true
    },
    {
      "inputs": [
        {
          "internalType": "address",
          "name": "wallet",
          "type": "address"
        },
        {
          "internalType": "uint256",
          "name": "_cvv",
          "type": "uint256"
        }
      ],
      "name": "verifyCVV",
      "outputs": [
        {
          "internalType": "bool",
          "name": "",
          "type": "bool"
        }
      ],
      "stateMutability": "view",
      "type": "function",
      "constant": true
    },
    {
      "inputs": [
        {
          "internalType": "address",
          "name": "wallet",
          "type": "address"
        }
      ],
      "name": "getExpirationDate",
      "outputs": [
        {
          "internalType": "uint256",
          "name": "",
          "type": "uint256"
        }
      ],
      "stateMutability": "view",
      "type": "function",
      "constant": true
    },
    {
      "inputs": [],
      "name": "getBlockTimestamp",
      "outputs": [
        {
          "internalType": "uint256",
          "name": "",
          "type": "uint256"
        }
      ],
      "stateMutability": "view",
      "type": "function",
      "constant": true
    }
  ],
  "bytecode": "0x608060405234801561001057600080fd5b5060008054600160a060020a03191633179055611075806100326000396000f3fe6080604052600436106100fd5760e060020a600035046306fdde038114610102578063095bcdb6146101545780630f33dcfa1461017657806318160ddd146101a65780631af716ba146101c95780632522f8da146101e95780632e1a7d4d1461022257806330b7c9b214610235578063313ce5671461025557806347e7ef241461026a5780634b12c9981461028a57806367555a50146102aa578063796b89b9146102ca57806381382ac41461028a57806395d89b41146102dd578063afc96f791461030f578063b44f5832146102aa578063ba2eb54114610324578063ce606ee01461035f578063f8b2cb4f14610397578063fa544161146103d1575b600080fd5b34801561010e57600080fd5b5061013e6040518060400160405280600d8152602001609a60020a6c14185e5b595b9d15d85b1b195d0281525081565b60405161014b9190610cdc565b60405180910390f35b34801561016057600080fd5b5061017461016f366004610d46565b61040a565b005b34801561018257600080fd5b50610196610191366004610d79565b610693565b604051901515815260200161014b565b3480156101b257600080fd5b506101bb600181565b60405190815260200161014b565b3480156101d557600080fd5b506101746101e4366004610da3565b6106b8565b3480156101f557600080fd5b506101bb610204366004610e3d565b600160a060020a031660009081526001602052604090206002015490565b610174610230366004610e5f565b610883565b34801561024157600080fd5b50610174610250366004610e78565b610a29565b34801561026157600080fd5b506101bb600281565b34801561027657600080fd5b50610174610285366004610d79565b610abf565b34801561029657600080fd5b506101746102a5366004610d79565b610bf0565b3480156102b657600080fd5b506101746102c5366004610d79565b610c3c565b3480156102d657600080fd5b50426101bb565b3480156102e957600080fd5b5061013e60405180604001604052806003815260200160ea60020a621554d10281525081565b34801561031b57600080fd5b506101bb610c88565b34801561033057600080fd5b5061019661033f366004610e3d565b600160a060020a0316600090815260016020526040902060020154421190565b34801561036b57600080fd5b5060005461037f90600160a060020a031681565b604051600160a060020a03909116815260200161014b565b3480156103a357600080fd5b506101bb6103b2366004610e3d565b600160a060020a03166000908152600160208190526040909120015490565b3480156103dd57600080fd5b5061037f6103ec366004610e3d565b600160a060020a039081166000908152600160205260409020541690565b33600081815260016020526040902060030154829081146104685760405160e560020a62461bcd02815260206004820152600d6024820152609a60020a6c10d595881b9bdd081d985b1a590260448201526064015b60405180910390fd5b33600081815260016020526040902060020154421061049c5760405160e560020a62461bcd02815260040161045f90610eb1565b600160a060020a038616600090815260016020526040902060020154869042106104db5760405160e560020a62461bcd02815260040161045f90610eb1565b33600081815260016020526040902054600160a060020a0316146105145760405160e560020a62461bcd02815260040161045f90610ee0565b33600090815260016020819052604090912001548611156105745760405160e560020a62461bcd0281526020600482015260146024820152606060020a73696e73756666696369656e742062616c616e636502604482015260640161045f565b6127108611156105ef5760408051338152600160a060020a0389166020820152908101879052608060608201819052601f908201527f7472616e7366657220616d6f756e742065786365656473202431302c3030300060a08201526000805160206110208339815191529060c00160405180910390a161068a565b3360009081526001602081905260408220018054889290610611908490610f43565b9091555050600160a060020a03871660009081526001602081905260408220018054889290610641908490610f56565b909155505060408051600160a060020a0389168152602081018890527fe6d858f14d755446648a6e0c8ab8b5a0f58ccc7920d4c910b0454e4dcd869af091015b60405180910390a15b50505050505050565b600160a060020a03821660009081526001602052604090206003015481145b92915050565b600160a060020a038516600090815260016020526040902060020154859042106106f75760405160e560020a62461bcd02815260040161045f90610eb1565b600160a060020a038516600090815260016020526040902060020154859042106107365760405160e560020a62461bcd02815260040161045f90610eb1565b600054600160a060020a031633146107635760405160e560020a62461bcd02815260040161045f90610f69565b6040805160008152602081018083528151902091610785918791879101610fbb565b60405160208183030381529060405280519060200120036107eb5760405160e560020a62461bcd02815260206004820152601b60248201527f63616e6e6f74206861766520616e20656d70747920726561736f6e0000000000604482015260640161045f565b600160a060020a03871660009081526001602081905260408220018054879290610816908490610f43565b9091555050600160a060020a03861660009081526001602081905260408220018054879290610846908490610f56565b90915550506040517f22b8cdaa403be9e59aeeb2b120f6387ce17d5ce83a74d6f26c1a044834e1a8ee906106819089908990899089908990610fcb565b3360008181526001602052604090206002015442106108b75760405160e560020a62461bcd02815260040161045f90610eb1565b33600081815260016020526040902054600160a060020a0316146108f05760405160e560020a62461bcd02815260040161045f90610ee0565b33600090815260016020819052604090912001548211156109505760405160e560020a62461bcd0281526020600482015260146024820152606060020a73496e73756666696369656e742062616c616e636502604482015260640161045f565b6127108211156109cb57604080513380825260208201529081018390526080606082018190526021908201527f7769746864726177616c20616d6f756e742065786365656473202431302c303060a082015260fc60020a60030260c08201526000805160206110208339815191529060e00160405180910390a15b33600090815260016020819052604082200180548492906109ed908490610f43565b90915550506040518281527f4e70a604b23a8edee2b1d0a656e9b9c00b73ad8bb1afc2c59381ee9f69197de79060200160405180910390a15050565b600054600160a060020a03163314610a565760405160e560020a62461bcd02815260040161045f90610f69565b60408051608081018252600160a060020a03958616808252602080830196875282840195865260608301948552600091825260019081905292902090518154600160a060020a031916961695909517855592519284019290925551600283015551600390910155565b600160a060020a03821660009081526001602052604090206002015482904210610afe5760405160e560020a62461bcd02815260040161045f90610eb1565b612710821115610b7a5760408051338152600160a060020a0385166020820152908101839052608060608201819052601e908201527f6465706f73697420616d6f756e742065786365656473202431302c303030000060a08201526000805160206110208339815191529060c0015b60405180910390a1505050565b600160a060020a03831660009081526001602081905260408220018054849290610ba5908490610f56565b909155505060408051338152600160a060020a03851660208201529081018390527f1de3ece35391f6bba650736f2d5d3f12e2cfc54538a340cc5d762d34ca449de790606001610b6d565b600054600160a060020a03163314610c1d5760405160e560020a62461bcd02815260040161045f90610f69565b600160a060020a03909116600090815260016020526040902060030155565b600054600160a060020a03163314610c695760405160e560020a62461bcd02815260040161045f90610f69565b600160a060020a03909116600090815260016020526040902060020155565b336000818152600160205260408120549091600160a060020a0390911614610cc55760405160e560020a62461bcd02815260040161045f90610ee0565b503360009081526001602052604090206003015490565b600060208083528351808285015260005b81811015610d0957858101830151858201604001528201610ced565b506000604082860101526040601f19601f8301168501019250505092915050565b8035600160a060020a0381168114610d4157600080fd5b919050565b600080600060608486031215610d5b57600080fd5b610d6484610d2a565b95602085013595506040909401359392505050565b60008060408385031215610d8c57600080fd5b610d9583610d2a565b946020939093013593505050565b600080600080600060808688031215610dbb57600080fd5b610dc486610d2a565b9450610dd260208701610d2a565b93506040860135925060608601356001604060020a0380821115610df557600080fd5b818801915088601f830112610e0957600080fd5b813581811115610e1857600080fd5b896020828501011115610e2a57600080fd5b9699959850939650602001949392505050565b600060208284031215610e4f57600080fd5b610e5882610d2a565b9392505050565b600060208284031215610e7157600080fd5b5035919050565b60008060008060808587031215610e8e57600080fd5b610e9785610d2a565b966020860135965060408601359560600135945092505050565b6020808252601290820152607260020a711dd85b1b195d081a185cc8195e1c1a5c995902604082015260600190565b60208082526026908201527f4f6e6c7920746865206f776e65722063616e20706572666f726d207468697320604082015260d160020a6530b1ba34b7b702606082015260800190565b60e060020a634e487b710260009081526011600452602490fd5b818103818111156106b2576106b2610f29565b808201808211156106b2576106b2610f29565b6020808252602f908201527f4f6e6c792074686520636f6e7472616374206f776e65722063616e20706572666040820152608960020a6e37b936903a3434b99030b1ba34b7b702606082015260800190565b8183823760009101908152919050565b600160a060020a038681168252851660208201526040810184905260806060820181905281018290526000828460a0840137600060a0848401015260a0601f19601f8501168301019050969550505050505056fe645911bfdf45690469467b237a56d56ba09d1c4546b3db896e657d4ac2ae980aa26469706673582212202ad83d96ab2e7179cedb3e49917e07237d7cb5498c19a98494495beb64b24d4164736f6c63430008120033",
  "immutableReferences": {},
  "source": "// SPDX-License-Identifier: MIT\npragma solidity >=0.4.22 <0.9.0;\n\nimport \"../../interfaces/IPaymentWallet.sol\";\n\ncontract PaymentWallet is IPaymentWallet{\n    string public constant name = \"PaymentWallet\";\n    string public constant symbol = \"USD\";\n    uint256 public constant decimals = 2;\n    uint256 public constant totalSupply = 1;\n\n    address public contractOwner;\n\n    mapping(address => Wallet) private wallets;\n\n\n    constructor() {\n        contractOwner = msg.sender;\n    }\n\n    modifier onlyContractOwner() {\n        require(msg.sender == contractOwner, \"Only the contract owner can perform this action\");\n        _;\n    }\n\n    modifier onlyOwner() {\n        require(msg.sender == wallets[msg.sender].owner, \"Only the owner can perform this action\");\n        _;\n    }\n\n    modifier notExpired(address wallet) {\n        require(wallets[wallet].expirationDate > block.timestamp,\"wallet has expired\");\n        _;\n    }\n\n    modifier validCVV(address wallet,uint256 _cvv) {\n        require(_cvv == wallets[wallet].cvvCode,\"CVV not valid\");\n        _;\n    }\n\n    function addWallet(address wallet,uint256 balance,uint256 expirationDate,uint256 cvcCode) external onlyContractOwner {\n        wallets[wallet] = Wallet(wallet,balance,expirationDate,cvcCode);\n    }\n\n    function setExpiration(address wallet,uint256 _expirationDate) external onlyContractOwner {\n        wallets[wallet].expirationDate = _expirationDate;\n    }\n\n    function setCVVCode(address wallet,uint256 _cvvCode) external onlyContractOwner {\n        wallets[wallet].cvvCode = _cvvCode;\n    }\n\n    function deposit(address wallet,uint256 amount) notExpired(wallet) external {\n        if (amount > 10000) {\n            emit FincenSARS(msg.sender,wallet,amount,\"deposit amount exceeds $10,000\");\n        } else {\n            wallets[wallet].balance += amount;\n            emit DepositMade(msg.sender,wallet,amount);\n        }\n    }\n\n    function withdraw(uint256 amount) external payable notExpired(msg.sender) onlyOwner {\n        require(wallets[msg.sender].balance >= amount, \"Insufficient balance\");\n        if (amount > 10000) {\n            emit FincenSARS(msg.sender,msg.sender,amount,\"withdrawal amount exceeds $10,000\");\n        }\n        wallets[msg.sender].balance -= amount;\n        //payable(msg.sender).transfer(amount);\n        emit Withdrawal(amount);\n    }\n\n    function transfer(address to,uint256 amount,uint256 cvv) external validCVV(msg.sender,cvv) notExpired(msg.sender) notExpired(to) onlyOwner {\n        require(amount <= wallets[msg.sender].balance,\"insufficient balance\");\n        if (amount > 10000) {\n            emit FincenSARS(msg.sender,to,amount,\"transfer amount exceeds $10,000\");\n        } else {\n            wallets[msg.sender].balance -= amount;\n            wallets[to].balance += amount;\n            emit Transferred(to,amount);\n        }\n    }\n\n    function transferFrom(address from,address to, uint256 amount,string calldata reason) external notExpired(from) notExpired(to) onlyContractOwner {\n        require(keccak256(abi.encodePacked(reason)) != keccak256(abi.encodePacked(\"\")),\"cannot have an empty reason\");\n        wallets[from].balance -= amount;\n        wallets[to].balance += amount;\n        emit AdminTransfer(from, to, amount,reason);\n    }\n\n    function updatedCVV(address wallet,uint256 _cvvCode) external onlyContractOwner {\n        wallets[wallet].cvvCode = _cvvCode;\n    }\n\n    function getCVV() external view onlyOwner returns (uint256) {\n        return  wallets[msg.sender].cvvCode;\n    }\n\n    function updateExpirationDate(address wallet,uint256 _expirationDate) external onlyContractOwner {\n        wallets[wallet].expirationDate = _expirationDate;\n    }\n\n    function getOwner(address wallet) external view returns (address) {\n        return wallets[wallet].owner;\n    }\n\n    function getBalance(address wallet) external view returns (uint256) {\n        return wallets[wallet].balance;\n    }\n\n    function isExpired(address wallet) external view returns (bool) {\n        return block.timestamp > wallets[wallet].expirationDate;\n    }\n\n    function verifyCVV(address wallet,uint256 _cvv) external view returns (bool) {\n        return _cvv == wallets[wallet].cvvCode;\n    }\n\n    function getExpirationDate(address wallet) external view returns (uint256) {\n        return wallets[wallet].expirationDate;\n    }\n\n    function getBlockTimestamp() external view returns (uint256) {\n        return block.timestamp;\n    }\n\n\n    function getDaysInMonth(uint256 month, uint256 year) internal pure returns (uint256) {\n        if (month == 2) {\n            if (isLeapYear(year)) {\n                return 29;\n            } else {\n                return 28;\n            }\n        } else if (month == 4 || month == 6 || month == 9 || month == 11) {\n            return 30;\n        } else {\n            return 31;\n        }\n    }\n\n    function isLeapYear(uint256 year) internal pure returns (bool) {\n        return (year % 4 == 0 && (year % 100 != 0 || year % 400 == 0));\n    }    \n}\n",
  "sourcePath": "/Volumes/My Book/projects/pingleware-contracts/contracts/finance/elmx/PaymentWallet.sol",
  "compiler": {
    "name": "solc",
    "version": "0.8.18+commit.87f61d96.Emscripten.clang"
  },
  "schemaVersion": "3.4.12",
  "updatedAt": "2023-10-26T22:25:01.172Z",
  "networkType": "ethereum",
  "devdoc": {
    "kind": "dev",
    "methods": {},
    "version": 1
  },
  "userdoc": {
    "kind": "user",
    "methods": {},
    "version": 1
  }
}