{
  "contractName": "Payment",
  "abi": [
    {
      "anonymous": false,
      "inputs": [
        {
          "indexed": false,
          "internalType": "string",
          "name": "message",
          "type": "string"
        },
        {
          "indexed": false,
          "internalType": "uint256",
          "name": "amount",
          "type": "uint256"
        }
      ],
      "name": "PaymentInfo",
      "type": "event"
    },
    {
      "anonymous": false,
      "inputs": [
        {
          "indexed": false,
          "internalType": "string",
          "name": "message",
          "type": "string"
        }
      ],
      "name": "PaymentMessage",
      "type": "event"
    },
    {
      "inputs": [
        {
          "internalType": "address",
          "name": "_from",
          "type": "address"
        },
        {
          "internalType": "address",
          "name": "_to",
          "type": "address"
        },
        {
          "internalType": "uint256",
          "name": "_amount",
          "type": "uint256"
        }
      ],
      "name": "makePayment",
      "outputs": [
        {
          "internalType": "bool",
          "name": "",
          "type": "bool"
        },
        {
          "internalType": "uint256",
          "name": "",
          "type": "uint256"
        }
      ],
      "stateMutability": "nonpayable",
      "type": "function"
    }
  ],
  "bytecode": "0x6080806040523461001657610247908161001c8239f35b600080fdfe6080604052600436101561001257600080fd5b60006387e660d360e060020a8235041461002b57600080fd5b3461007b57606036600319011261007b5760043590600160a060020a0390818316830361007b57602435918216820361007b57604061006d604435848661007e565b825191151582526020820152f35b80fd5b929192604090815192828452600a8385015260b160020a6930b6b7bab73a1034b99d0260608501527f5813616fa050686de3ec35855bc691f51a9f5a2f7429d4d4940994adc5b1eb7c60806020958887820152a18515806101d3575b61018b57600160a060020a039081600093168352828552838320805490888203918211610174575516815280835281812080549186830180931161015d57506060926000805160206101f28339815191529492607260020a7114dd58d8d95cdcd99d5b081c185e5b595b9d0292556012815193808552840152820152a160019190565b60e060020a634e487b710281526011600452602490fd5b60e060020a634e487b710285526011600452602485fd5b50506000805160206101f283398151915292935090607060020a71696e73756666696369656e742066756e6473028260126060945193808552840152820152a1600090600090565b50600160a060020a03821660009081528085528390205486116100da56feb6871ef893adcf210ef23c8a5897b726ecccd2ec16b829b33217e50da5832fb9a264697066735822122016f5f32e13005b09e2ac089edd4cba5987d60873ffc1d51e1c937e06828c681364736f6c63430008120033",
  "immutableReferences": {},
  "source": "// SPDX-License-Identifier: CC-BY-4.0\r\npragma solidity >=0.4.22 <0.9.0;\r\n\r\n\r\ncontract Payment {\r\n    mapping(address => uint) accbalance;\r\n\r\n    event PaymentMessage(string message);\r\n    event PaymentInfo(string message, uint amount);\r\n\r\n    function makePayment(address _from, address _to, uint _amount )\r\n        public\r\n        returns(bool, uint)\r\n    {\r\n        emit PaymentInfo('amount is:',_amount);\r\n\r\n        if(_amount<=0 && accbalance[_from]<_amount) {\r\n            emit PaymentMessage('insufficient funds');\r\n            return (false, 0);\r\n        }\r\n\r\n        accbalance[_from] -= _amount;\r\n        accbalance[_to] += _amount;\r\n        emit PaymentMessage('Successful payment');\r\n        return (true, _amount);\r\n    }\r\n}",
  "sourcePath": "/Volumes/HOME/pingleware-contracts/contracts/transportation/Payment.sol",
  "compiler": {
    "name": "solc",
    "version": "0.8.18+commit.87f61d96.Emscripten.clang"
  },
  "schemaVersion": "3.4.12",
  "updatedAt": "2024-05-23T18:56:27.382Z",
  "devdoc": {
    "kind": "dev",
    "methods": {},
    "version": 1
  },
  "userdoc": {
    "kind": "user",
    "methods": {},
    "version": 1
  }
}