{
  "contractName": "PaymentWallet",
  "abi": [
    {
      "inputs": [
        {
          "internalType": "address",
          "name": "wallet",
          "type": "address"
        }
      ],
      "stateMutability": "nonpayable",
      "type": "constructor"
    },
    {
      "anonymous": false,
      "inputs": [
        {
          "indexed": false,
          "internalType": "address",
          "name": "",
          "type": "address"
        },
        {
          "indexed": false,
          "internalType": "address",
          "name": "",
          "type": "address"
        },
        {
          "indexed": false,
          "internalType": "uint256",
          "name": "",
          "type": "uint256"
        },
        {
          "indexed": false,
          "internalType": "string",
          "name": "",
          "type": "string"
        }
      ],
      "name": "AdminTransfer",
      "type": "event"
    },
    {
      "anonymous": false,
      "inputs": [
        {
          "indexed": false,
          "internalType": "address",
          "name": "",
          "type": "address"
        },
        {
          "indexed": false,
          "internalType": "address",
          "name": "",
          "type": "address"
        },
        {
          "indexed": false,
          "internalType": "uint256",
          "name": "",
          "type": "uint256"
        }
      ],
      "name": "DepositMade",
      "type": "event"
    },
    {
      "anonymous": false,
      "inputs": [
        {
          "indexed": false,
          "internalType": "address",
          "name": "",
          "type": "address"
        },
        {
          "indexed": false,
          "internalType": "address",
          "name": "",
          "type": "address"
        },
        {
          "indexed": false,
          "internalType": "uint256",
          "name": "",
          "type": "uint256"
        },
        {
          "indexed": false,
          "internalType": "string",
          "name": "",
          "type": "string"
        }
      ],
      "name": "FincenSARS",
      "type": "event"
    },
    {
      "anonymous": false,
      "inputs": [
        {
          "indexed": false,
          "internalType": "address",
          "name": "",
          "type": "address"
        },
        {
          "indexed": false,
          "internalType": "uint256",
          "name": "",
          "type": "uint256"
        }
      ],
      "name": "Transferred",
      "type": "event"
    },
    {
      "anonymous": false,
      "inputs": [
        {
          "indexed": false,
          "internalType": "uint256",
          "name": "",
          "type": "uint256"
        }
      ],
      "name": "Withdrawal",
      "type": "event"
    },
    {
      "inputs": [],
      "name": "contractOwner",
      "outputs": [
        {
          "internalType": "address",
          "name": "",
          "type": "address"
        }
      ],
      "stateMutability": "view",
      "type": "function"
    },
    {
      "inputs": [],
      "name": "decimals",
      "outputs": [
        {
          "internalType": "uint256",
          "name": "",
          "type": "uint256"
        }
      ],
      "stateMutability": "view",
      "type": "function"
    },
    {
      "inputs": [],
      "name": "name",
      "outputs": [
        {
          "internalType": "string",
          "name": "",
          "type": "string"
        }
      ],
      "stateMutability": "view",
      "type": "function"
    },
    {
      "inputs": [],
      "name": "symbol",
      "outputs": [
        {
          "internalType": "string",
          "name": "",
          "type": "string"
        }
      ],
      "stateMutability": "view",
      "type": "function"
    },
    {
      "inputs": [],
      "name": "totalSupply",
      "outputs": [
        {
          "internalType": "uint256",
          "name": "",
          "type": "uint256"
        }
      ],
      "stateMutability": "view",
      "type": "function"
    },
    {
      "inputs": [
        {
          "internalType": "uint256",
          "name": "_expirationDate",
          "type": "uint256"
        }
      ],
      "name": "setExpiration",
      "outputs": [],
      "stateMutability": "nonpayable",
      "type": "function"
    },
    {
      "inputs": [
        {
          "internalType": "uint256",
          "name": "_cvvCode",
          "type": "uint256"
        }
      ],
      "name": "setCVVCode",
      "outputs": [],
      "stateMutability": "nonpayable",
      "type": "function"
    },
    {
      "inputs": [
        {
          "internalType": "uint256",
          "name": "amount",
          "type": "uint256"
        }
      ],
      "name": "deposit",
      "outputs": [],
      "stateMutability": "nonpayable",
      "type": "function"
    },
    {
      "inputs": [
        {
          "internalType": "uint256",
          "name": "amount",
          "type": "uint256"
        }
      ],
      "name": "withdraw",
      "outputs": [],
      "stateMutability": "nonpayable",
      "type": "function"
    },
    {
      "inputs": [
        {
          "internalType": "address",
          "name": "to",
          "type": "address"
        },
        {
          "internalType": "uint256",
          "name": "amount",
          "type": "uint256"
        },
        {
          "internalType": "uint256",
          "name": "cvv",
          "type": "uint256"
        }
      ],
      "name": "transfer",
      "outputs": [],
      "stateMutability": "nonpayable",
      "type": "function"
    },
    {
      "inputs": [
        {
          "internalType": "address",
          "name": "to",
          "type": "address"
        },
        {
          "internalType": "uint256",
          "name": "amount",
          "type": "uint256"
        },
        {
          "internalType": "string",
          "name": "reason",
          "type": "string"
        }
      ],
      "name": "transferFrom",
      "outputs": [],
      "stateMutability": "nonpayable",
      "type": "function"
    },
    {
      "inputs": [
        {
          "internalType": "uint256",
          "name": "_cvvCode",
          "type": "uint256"
        }
      ],
      "name": "updatedCVV",
      "outputs": [],
      "stateMutability": "nonpayable",
      "type": "function"
    },
    {
      "inputs": [],
      "name": "getCVV",
      "outputs": [
        {
          "internalType": "uint256",
          "name": "",
          "type": "uint256"
        }
      ],
      "stateMutability": "view",
      "type": "function"
    },
    {
      "inputs": [
        {
          "internalType": "uint256",
          "name": "_expirationDate",
          "type": "uint256"
        }
      ],
      "name": "updateExpirationDate",
      "outputs": [],
      "stateMutability": "nonpayable",
      "type": "function"
    },
    {
      "inputs": [],
      "name": "getOwner",
      "outputs": [
        {
          "internalType": "address",
          "name": "",
          "type": "address"
        }
      ],
      "stateMutability": "view",
      "type": "function"
    },
    {
      "inputs": [],
      "name": "getBalance",
      "outputs": [
        {
          "internalType": "uint256",
          "name": "",
          "type": "uint256"
        }
      ],
      "stateMutability": "view",
      "type": "function"
    },
    {
      "inputs": [],
      "name": "isExpired",
      "outputs": [
        {
          "internalType": "bool",
          "name": "",
          "type": "bool"
        }
      ],
      "stateMutability": "view",
      "type": "function"
    },
    {
      "inputs": [
        {
          "internalType": "uint256",
          "name": "_cvv",
          "type": "uint256"
        }
      ],
      "name": "verifyCVV",
      "outputs": [
        {
          "internalType": "bool",
          "name": "",
          "type": "bool"
        }
      ],
      "stateMutability": "view",
      "type": "function"
    },
    {
      "inputs": [
        {
          "internalType": "uint256",
          "name": "mmyy",
          "type": "uint256"
        }
      ],
      "name": "convertMMYYToTimestamp",
      "outputs": [
        {
          "internalType": "uint256",
          "name": "",
          "type": "uint256"
        }
      ],
      "stateMutability": "view",
      "type": "function"
    }
  ],
  "bytecode": "0x608060405234801561001057600080fd5b50604051610f03380380610f0383398101604081905261002f91610065565b6000805433600160a060020a031991821617825560018054909116600160a060020a039390931692909217909155600255610095565b60006020828403121561007757600080fd5b8151600160a060020a038116811461008e57600080fd5b9392505050565b610e5f806100a46000396000f3fe608060405234801561001057600080fd5b50600436106100f45760e060020a600035046306fdde0381146100f9578063095bcdb61461013e57806312065fe01461015357806318160ddd146101655780632e1a7d4d1461016d5780632f13b60c14610180578063313ce5671461019657806332cf110b1461019e578063515a20ba146101b157806369700415146101c457806389228dec146101d9578063893d20e8146101ec57806395d89b4114610211578063afc96f7914610236578063b31268a61461023e578063b6b55f2514610251578063ce606ee014610264578063d6fcb04b14610277578063da04df2f1461028a575b600080fd5b6101286040518060400160405280600d8152602001609a60020a6c14185e5b595b9d15d85b1b195d0281525081565b6040516101359190610b3f565b60405180910390f35b61015161014c366004610ba9565b61029d565b005b6002545b604051908152602001610135565b610157600181565b61015161017b366004610bdc565b6104c4565b60035442115b6040519015158152602001610135565b610157600281565b6101576101ac366004610bdc565b610669565b6101516101bf366004610bdc565b61078b565b6101866101d2366004610bdc565b6004541490565b6101516101e7366004610bdc565b61079a565b600154600160a060020a03165b604051600160a060020a039091168152602001610135565b61012860405180604001604052806003815260200160ea60020a621554d10281525081565b6101576107c7565b61015161024c366004610bdc565b600455565b61015161025f366004610bdc565b6107fe565b6000546101f990600160a060020a031681565b610151610285366004610bf5565b6108c8565b610151610298366004610bdc565b610a73565b8060045481146102ea5760405160e560020a62461bcd02815260206004820152600d6024820152609a60020a6c10d595881b9bdd081d985b1a590260448201526064015b60405180910390fd5b426003541161030e5760405160e560020a62461bcd0281526004016102e190610c7b565b600154600160a060020a0316331461033b5760405160e560020a62461bcd0281526004016102e190610caa565b60025483111561038a5760405160e560020a62461bcd0281526020600482015260146024820152606060020a73696e73756666696369656e742062616c616e63650260448201526064016102e1565b6127108311156104055760408051338152600160a060020a0386166020820152908101849052608060608201819052601f908201527f7472616e7366657220616d6f756e742065786365656473202431302c3030300060a0820152600080516020610e0a8339815191529060c00160405180910390a16104be565b82600260008282546104179190610d0d565b909155505060405160e060020a63b6b55f2502815260048101849052600160a060020a0385169063b6b55f2590602401600060405180830381600087803b15801561046157600080fd5b505af1158015610475573d6000803e3d6000fd5b505060408051600160a060020a0388168152602081018790527fe6d858f14d755446648a6e0c8ab8b5a0f58ccc7920d4c910b0454e4dcd869af093500190505b60405180910390a15b50505050565b42600354116104e85760405160e560020a62461bcd0281526004016102e190610c7b565b600154600160a060020a031633146105155760405160e560020a62461bcd0281526004016102e190610caa565b8060025410156105645760405160e560020a62461bcd0281526020600482015260146024820152606060020a73496e73756666696369656e742062616c616e63650260448201526064016102e1565b6127108111156105e05760408051338152600060208201529081018290526080606082018190526021908201527f7769746864726177616c20616d6f756e742065786365656473202431302c303060a082015260fc60020a60030260c0820152600080516020610e0a8339815191529060e00160405180910390a15b80600260008282546105f29190610d0d565b9091555050600154604051600160a060020a039091169082156108fc029083906000818181858888f19350505050158015610631573d6000803e3d6000fd5b506040518181527f4e70a604b23a8edee2b1d0a656e9b9c00b73ad8bb1afc2c59381ee9f69197de7906020015b60405180910390a150565b600080610677606484610d3a565b90506000610686606485610d4e565b610692906107d0610d62565b9050600182101580156106a65750600c8211155b6106e85760405160e560020a62461bcd02815260206004820152600d6024820152609b60020a6c092dcecc2d8d2c840dadedce8d0260448201526064016102e1565b426106f66201518082610d4e565b6107009082610d0d565b90506107106301e1338082610d4e565b61071a9082610d0d565b90506107286107b283610d0d565b610736906301e13380610d75565b6107409082610d62565b905060015b83811015610782576107578184610aa0565b6107649062015180610d75565b61076e9083610d62565b91508061077a81610d8c565b915050610745565b50949350505050565b61079481610669565b60035550565b600154600160a060020a0316331461024c5760405160e560020a62461bcd0281526004016102e190610caa565b600154600090600160a060020a031633146107f75760405160e560020a62461bcd0281526004016102e190610caa565b5060045490565b6127108111156108745760015460408051338152600160a060020a0390921660208301528101829052608060608201819052601e908201527f6465706f73697420616d6f756e742065786365656473202431302c303030000060a0820152600080516020610e0a8339815191529060c00161065e565b80600260008282546108869190610d62565b9091555050604080513381523060208201529081018290527f1de3ece35391f6bba650736f2d5d3f12e2cfc54538a340cc5d762d34ca449de79060600161065e565b600054600160a060020a031633146109405760405160e560020a62461bcd02815260206004820152602f60248201527f4f6e6c792074686520636f6e7472616374206f776e65722063616e20706572666044820152608960020a6e37b936903a3434b99030b1ba34b7b70260648201526084016102e1565b6040805160008152602081018083528151902091610962918591859101610da5565b60405160208183030381529060405280519060200120036109c85760405160e560020a62461bcd02815260206004820152601b60248201527f63616e6e6f74206861766520616e20656d70747920726561736f6e000000000060448201526064016102e1565b82600260008282546109da9190610d0d565b909155505060405160e060020a63b6b55f2502815260048101849052600160a060020a0385169063b6b55f2590602401600060405180830381600087803b158015610a2457600080fd5b505af1158015610a38573d6000803e3d6000fd5b505050507f22b8cdaa403be9e59aeeb2b120f6387ce17d5ce83a74d6f26c1a044834e1a8ee30858585856040516104b5959493929190610db5565b600154600160a060020a0316331461078b5760405160e560020a62461bcd0281526004016102e190610caa565b600082600203610ac857610ab382610b04565b15610ac05750601d610afe565b50601c610afe565b8260041480610ad75750826006145b80610ae25750826009145b80610aed575082600b145b15610afa5750601e610afe565b50601f5b92915050565b6000610b11600483610d4e565b158015610afe5750610b24606483610d4e565b151580610afe5750610b3861019083610d4e565b1592915050565b600060208083528351808285015260005b81811015610b6c57858101830151858201604001528201610b50565b506000604082860101526040601f19601f8301168501019250505092915050565b8035600160a060020a0381168114610ba457600080fd5b919050565b600080600060608486031215610bbe57600080fd5b610bc784610b8d565b95602085013595506040909401359392505050565b600060208284031215610bee57600080fd5b5035919050565b60008060008060608587031215610c0b57600080fd5b610c1485610b8d565b93506020850135925060408501356001604060020a0380821115610c3757600080fd5b818701915087601f830112610c4b57600080fd5b813581811115610c5a57600080fd5b886020828501011115610c6c57600080fd5b95989497505060200194505050565b6020808252601290820152607260020a711dd85b1b195d081a185cc8195e1c1a5c995902604082015260600190565b60208082526026908201527f4f6e6c7920746865206f776e65722063616e20706572666f726d207468697320604082015260d160020a6530b1ba34b7b702606082015260800190565b60e060020a634e487b710260009081526011600452602490fd5b81810381811115610afe57610afe610cf3565b60e060020a634e487b710260009081526012600452602490fd5b600082610d4957610d49610d20565b500490565b600082610d5d57610d5d610d20565b500690565b80820180821115610afe57610afe610cf3565b8082028115828204841417610afe57610afe610cf3565b600060018201610d9e57610d9e610cf3565b5060010190565b8183823760009101908152919050565b600160a060020a038681168252851660208201526040810184905260806060820181905281018290526000828460a0840137600060a0848401015260a0601f19601f8501168301019050969550505050505056fe645911bfdf45690469467b237a56d56ba09d1c4546b3db896e657d4ac2ae980aa2646970667358221220479d3a50db124e04749f1d49fc90651660b3f90bb769354b5b0b59e6c6b1766664736f6c63430008120033",
  "immutableReferences": {},
  "source": "// SPDX-License-Identifier: MIT\npragma solidity >=0.4.22 <0.9.0;\n\ncontract PaymentWallet {\n    string public constant name = \"PaymentWallet\";\n    string public constant symbol = \"USD\";\n    uint256 public constant decimals = 2;\n    uint256 public constant totalSupply = 1;\n\n    address public contractOwner;\n    address private owner;\n    uint256 private balance;\n    uint256 private expirationDate;\n    uint256 private cvvCode;\n\n    event DepositMade(address,address,uint256);\n    event Withdrawal(uint256);\n    event Transferred(address,uint256);\n    event FincenSARS(address,address,uint256,string);\n    event AdminTransfer(address,address,uint256,string);\n\n    constructor(address wallet) {\n        contractOwner = msg.sender;\n        owner = wallet;\n        balance = 0;\n    }\n\n    modifier onlyContractOwner() {\n        require(msg.sender == contractOwner, \"Only the contract owner can perform this action\");\n        _;\n    }\n\n    modifier onlyOwner() {\n        require(msg.sender == owner, \"Only the owner can perform this action\");\n        _;\n    }\n\n    modifier notExpired() {\n        require(expirationDate > block.timestamp,\"wallet has expired\");\n        _;\n    }\n\n    modifier validCVV(uint256 _cvv) {\n        require(_cvv == cvvCode,\"CVV not valid\");\n        _;\n    }\n\n    function setExpiration(uint256 _expirationDate) external {\n        expirationDate = convertMMYYToTimestamp(_expirationDate);\n    }\n\n    function setCVVCode(uint256 _cvvCode) external {\n        cvvCode = _cvvCode;\n    }\n\n    function deposit(uint256 amount) external {\n        if (amount > 10000) {\n            emit FincenSARS(msg.sender,owner,amount,\"deposit amount exceeds $10,000\");\n        } else {\n            balance += amount;\n            emit DepositMade(msg.sender,address(this), amount);\n        }\n    }\n\n    function withdraw(uint256 amount) external notExpired onlyOwner {\n        require(balance >= amount, \"Insufficient balance\");\n        if (amount > 10000) {\n            emit FincenSARS(msg.sender,address(0x0),amount,\"withdrawal amount exceeds $10,000\");\n        }\n        balance -= amount;\n        payable(owner).transfer(amount);\n        emit Withdrawal(amount);\n    }\n\n    function transfer(address to,uint256 amount,uint256 cvv) external validCVV(cvv) notExpired onlyOwner {\n        require(amount <= balance,\"insufficient balance\");\n        if (amount > 10000) {\n            emit FincenSARS(msg.sender,to,amount,\"transfer amount exceeds $10,000\");\n        } else {\n            balance -= amount;\n            PaymentWallet(to).deposit(amount);\n            emit Transferred(to, amount);\n        }\n    }\n\n    function transferFrom(address to, uint256 amount,string calldata reason) external onlyContractOwner {\n        require(keccak256(abi.encodePacked(reason)) != keccak256(abi.encodePacked(\"\")),\"cannot have an empty reason\");\n        balance -= amount;\n        PaymentWallet(to).deposit(amount);\n        emit AdminTransfer(address(this), to, amount,reason);\n    }\n\n    function updatedCVV(uint256 _cvvCode) external onlyOwner {\n        cvvCode = _cvvCode;\n    }\n\n    function getCVV() external view onlyOwner returns (uint256) {\n        return cvvCode;\n    }\n\n    function updateExpirationDate(uint256 _expirationDate) external onlyOwner {\n        expirationDate = convertMMYYToTimestamp(_expirationDate);\n    }\n\n    function getOwner() external view returns (address) {\n        return owner;\n    }\n\n    function getBalance() external view returns (uint256) {\n        return balance;\n    }\n\n    function isExpired() external view returns (bool) {\n        return block.timestamp > expirationDate;\n    }\n\n    function verifyCVV(uint256 _cvv) external view returns (bool) {\n        return _cvv == cvvCode;\n    }\n\n    function convertMMYYToTimestamp(uint256 mmyy) public view returns (uint256) {\n        // Extract the month and year components from MMYY\n        uint256 month = mmyy / 100;\n        uint256 year = (mmyy % 100) + 2000; // Assuming year format is YY, so we add 2000 to it\n\n        // Check if the provided month is valid (1 to 12)\n        require(month >= 1 && month <= 12, \"Invalid month\");\n\n        // Calculate the Unix timestamp for the first day of the given month\n        uint256 timestamp = block.timestamp; // Current timestamp\n        timestamp -= (timestamp % 1 days);   // Set time to midnight\n        timestamp -= (timestamp % 365 days);  // Go to the beginning of the current year\n        timestamp += (year - 1970) * 365 days; // Go to the beginning of the target year\n        for (uint256 i = 1; i < month; i++) {\n            timestamp += getDaysInMonth(i, year) * 1 days; // Add days for each month\n        }\n\n        return timestamp;\n    }\n\n    function getDaysInMonth(uint256 month, uint256 year) internal pure returns (uint256) {\n        if (month == 2) {\n            if (isLeapYear(year)) {\n                return 29;\n            } else {\n                return 28;\n            }\n        } else if (month == 4 || month == 6 || month == 9 || month == 11) {\n            return 30;\n        } else {\n            return 31;\n        }\n    }\n\n    function isLeapYear(uint256 year) internal pure returns (bool) {\n        return (year % 4 == 0 && (year % 100 != 0 || year % 400 == 0));\n    }    \n}\n",
  "sourcePath": "/Volumes/My Book/projects/pingleware-contracts/contracts/finance/elmx/PaymentWallet.sol",
  "compiler": {
    "name": "solc",
    "version": "0.8.18+commit.87f61d96.Emscripten.clang"
  },
  "schemaVersion": "3.4.12",
  "updatedAt": "2023-10-22T00:13:31.587Z",
  "devdoc": {
    "kind": "dev",
    "methods": {},
    "version": 1
  },
  "userdoc": {
    "kind": "user",
    "methods": {},
    "version": 1
  }
}