{
  "contractName": "PeerToPeerLending",
  "abi": [
    {
      "inputs": [],
      "stateMutability": "nonpayable",
      "type": "constructor"
    },
    {
      "anonymous": false,
      "inputs": [
        {
          "indexed": false,
          "internalType": "address",
          "name": "sender",
          "type": "address"
        },
        {
          "indexed": false,
          "internalType": "address",
          "name": "recipient",
          "type": "address"
        }
      ],
      "name": "Destroyed",
      "type": "event"
    },
    {
      "anonymous": false,
      "inputs": [
        {
          "indexed": false,
          "internalType": "address",
          "name": "sender",
          "type": "address"
        },
        {
          "indexed": false,
          "internalType": "uint256",
          "name": "amount",
          "type": "uint256"
        }
      ],
      "name": "FallbackEvent",
      "type": "event"
    },
    {
      "anonymous": false,
      "inputs": [
        {
          "indexed": true,
          "internalType": "address",
          "name": "_address",
          "type": "address"
        },
        {
          "indexed": true,
          "internalType": "bool",
          "name": "active",
          "type": "bool"
        },
        {
          "indexed": true,
          "internalType": "uint256",
          "name": "timestamp",
          "type": "uint256"
        }
      ],
      "name": "LogCreditActiveChanged",
      "type": "event"
    },
    {
      "anonymous": false,
      "inputs": [
        {
          "indexed": true,
          "internalType": "address",
          "name": "_address",
          "type": "address"
        },
        {
          "indexed": true,
          "internalType": "address",
          "name": "_borrower",
          "type": "address"
        },
        {
          "indexed": true,
          "internalType": "uint256",
          "name": "timestamp",
          "type": "uint256"
        }
      ],
      "name": "LogCreditCreated",
      "type": "event"
    },
    {
      "anonymous": false,
      "inputs": [
        {
          "indexed": true,
          "internalType": "address",
          "name": "_address",
          "type": "address"
        },
        {
          "indexed": true,
          "internalType": "enum Credit.State",
          "name": "state",
          "type": "uint8"
        },
        {
          "indexed": true,
          "internalType": "uint256",
          "name": "timestamp",
          "type": "uint256"
        }
      ],
      "name": "LogCreditStateChanged",
      "type": "event"
    },
    {
      "anonymous": false,
      "inputs": [
        {
          "indexed": true,
          "internalType": "address",
          "name": "_address",
          "type": "address"
        },
        {
          "indexed": false,
          "internalType": "bool",
          "name": "fraudStatus",
          "type": "bool"
        },
        {
          "indexed": false,
          "internalType": "uint256",
          "name": "timestamp",
          "type": "uint256"
        }
      ],
      "name": "LogUserSetFraud",
      "type": "event"
    },
    {
      "anonymous": false,
      "inputs": [
        {
          "indexed": true,
          "internalType": "address",
          "name": "previousOwner",
          "type": "address"
        },
        {
          "indexed": true,
          "internalType": "address",
          "name": "newOwner",
          "type": "address"
        }
      ],
      "name": "OwnershipTransferred",
      "type": "event"
    },
    {
      "anonymous": false,
      "inputs": [
        {
          "indexed": false,
          "internalType": "address",
          "name": "sender",
          "type": "address"
        },
        {
          "indexed": false,
          "internalType": "uint256",
          "name": "amount",
          "type": "uint256"
        }
      ],
      "name": "ReceiveEvent",
      "type": "event"
    },
    {
      "anonymous": false,
      "inputs": [
        {
          "indexed": false,
          "internalType": "address",
          "name": "sender",
          "type": "address"
        },
        {
          "indexed": false,
          "internalType": "bytes",
          "name": "reason",
          "type": "bytes"
        }
      ],
      "name": "Started",
      "type": "event"
    },
    {
      "anonymous": false,
      "inputs": [
        {
          "indexed": false,
          "internalType": "address",
          "name": "sender",
          "type": "address"
        },
        {
          "indexed": false,
          "internalType": "bytes",
          "name": "reason",
          "type": "bytes"
        }
      ],
      "name": "Stopped",
      "type": "event"
    },
    {
      "anonymous": false,
      "inputs": [
        {
          "indexed": false,
          "internalType": "address",
          "name": "sender",
          "type": "address"
        },
        {
          "indexed": false,
          "internalType": "string",
          "name": "reason",
          "type": "string"
        }
      ],
      "name": "Termination",
      "type": "event"
    },
    {
      "stateMutability": "payable",
      "type": "fallback"
    },
    {
      "inputs": [],
      "name": "WAIT",
      "outputs": [
        {
          "internalType": "uint256",
          "name": "",
          "type": "uint256"
        }
      ],
      "stateMutability": "view",
      "type": "function"
    },
    {
      "inputs": [
        {
          "internalType": "uint256",
          "name": "",
          "type": "uint256"
        }
      ],
      "name": "credits",
      "outputs": [
        {
          "internalType": "contract Credit",
          "name": "",
          "type": "address"
        }
      ],
      "stateMutability": "view",
      "type": "function"
    },
    {
      "inputs": [],
      "name": "destroy",
      "outputs": [],
      "stateMutability": "nonpayable",
      "type": "function"
    },
    {
      "inputs": [
        {
          "internalType": "address",
          "name": "_recipient",
          "type": "address"
        }
      ],
      "name": "destroyAndSend",
      "outputs": [],
      "stateMutability": "nonpayable",
      "type": "function"
    },
    {
      "inputs": [],
      "name": "getOwner",
      "outputs": [
        {
          "internalType": "address",
          "name": "",
          "type": "address"
        }
      ],
      "stateMutability": "payable",
      "type": "function"
    },
    {
      "inputs": [],
      "name": "renounceOwnership",
      "outputs": [],
      "stateMutability": "payable",
      "type": "function"
    },
    {
      "inputs": [
        {
          "internalType": "address",
          "name": "newOwner",
          "type": "address"
        }
      ],
      "name": "transferOwnership",
      "outputs": [],
      "stateMutability": "payable",
      "type": "function"
    },
    {
      "inputs": [
        {
          "internalType": "address",
          "name": "",
          "type": "address"
        }
      ],
      "name": "users",
      "outputs": [
        {
          "internalType": "bool",
          "name": "credited",
          "type": "bool"
        },
        {
          "internalType": "contract Credit",
          "name": "activeCredit",
          "type": "address"
        },
        {
          "internalType": "bool",
          "name": "fraudStatus",
          "type": "bool"
        }
      ],
      "stateMutability": "view",
      "type": "function"
    },
    {
      "stateMutability": "payable",
      "type": "receive"
    },
    {
      "inputs": [
        {
          "internalType": "uint256",
          "name": "requestedAmount",
          "type": "uint256"
        },
        {
          "internalType": "uint256",
          "name": "repaymentsCount",
          "type": "uint256"
        },
        {
          "internalType": "uint256",
          "name": "interest",
          "type": "uint256"
        },
        {
          "internalType": "bytes32",
          "name": "creditDescription",
          "type": "bytes32"
        }
      ],
      "name": "applyForCredit",
      "outputs": [
        {
          "internalType": "contract Credit",
          "name": "_credit",
          "type": "address"
        }
      ],
      "stateMutability": "nonpayable",
      "type": "function"
    },
    {
      "inputs": [],
      "name": "getCredits",
      "outputs": [
        {
          "internalType": "contract Credit[]",
          "name": "",
          "type": "address[]"
        }
      ],
      "stateMutability": "view",
      "type": "function"
    },
    {
      "inputs": [],
      "name": "getUserCredits",
      "outputs": [
        {
          "internalType": "contract Credit[]",
          "name": "",
          "type": "address[]"
        }
      ],
      "stateMutability": "view",
      "type": "function"
    },
    {
      "inputs": [
        {
          "internalType": "address",
          "name": "_borrower",
          "type": "address"
        }
      ],
      "name": "setFraudStatus",
      "outputs": [
        {
          "internalType": "bool",
          "name": "",
          "type": "bool"
        }
      ],
      "stateMutability": "nonpayable",
      "type": "function"
    },
    {
      "inputs": [
        {
          "internalType": "contract Credit",
          "name": "_credit",
          "type": "address"
        }
      ],
      "name": "changeCreditState",
      "outputs": [],
      "stateMutability": "nonpayable",
      "type": "function"
    },
    {
      "inputs": [
        {
          "internalType": "contract Credit",
          "name": "_credit",
          "type": "address"
        },
        {
          "internalType": "enum Credit.State",
          "name": "state",
          "type": "uint8"
        }
      ],
      "name": "changeCreditState",
      "outputs": [],
      "stateMutability": "nonpayable",
      "type": "function"
    }
  ],
  "bytecode": "0x6080806040523461005d5760008054600160a060020a03191633908117825542600155907f8be0079c531659141344cd1fd0a4f28419497f9722a3daafe3b4186f6b6457e08180a360ff196003541660035561262790816100638239f35b600080fdfe608060409080825260049081361015620000cf575b5036156200009e573332036200005a577f26875833861a2b006512a11f1b86edf95df96131040f3caeed72989ee98580838251806200005534338362000b25565b0390a1005b6020606492519160e560020a62461bcd02835282015260196024820152603860020a787068697368696e672061747461636b2064657465637465643f026044820152fd5b7fcc85d09d309785db93d6df19917f2e6cc07fe27cd01c08c8279145deb5cf45268251806200005534338362000b25565b60009060e060020a8235049063036a1c22821462000974575080632092cb3314620008ff57806359658c48146200081e578063715018a614620007d5578063823a71af146200074b57806383197ef014620006f4578063893d20e814620006c8578063a87430ba1462000668578063b8fb3a51146200064a578063bb9e424714620005b1578063ebb5d8ed146200039e578063f2fde38b14620002da578063f5074f4114620002795763fa838e540362000014579190346200025b57816003193601126200025b57620001a162000a05565b9060243591600683101562000275578454600160a060020a039190620001cb908316331462000a21565b845160e060020a63268f1153028152928301849052169260208260248188885af19081156200026c575062000225575b5042917f9ae5127f6d87e374b5901ce23a9467e504811c54c03dda8741ad44a35a3614668480a480f35b6020813d821162000263575b81620002406020938362000b8d565b810103126200025f576006905110156200025b5738620001fb565b8280fd5b8380fd5b3d915062000231565b513d86823e3d90fd5b8480fd5b509190346200025b5760203660031901126200025b57600160a060020a03903581811681036200025f57600080516020620025b283398151915292620002c8620002d493865416331462000a21565b51918291338362000a71565b0390a180f35b50919060203660031901126200025b57600160a060020a0381358181169391929084900362000275578454928316916200031683331462000b40565b8415620003445750508290600080516020620025d28339815191528580a3600160a060020a03191617815580f35b5160e560020a62461bcd028152602091810191909152602660248201527f4f776e61626c653a206e6577206f776e657220697320746865207a65726f2061604482015260d060020a65646472657373026064820152608490fd5b509034620005ad576080366003190112620005ad57338252602092818452808320549160ff83166200025f5760a860020a830460ff166200025f5761010092600160a060020a039084900481166200059757338552818652828520805460ff1916600117905582516119c6808201906001604060020a038211838310176200058157608091839162000bcc8339853581526024358a82015260443587820152606435606082015203019086f09081156200057757338652828752838620805461010060a860020a0319169190921694850261010060a860020a0316179055600554604060020a9081811015620005615760018101806005558110156200054b57600586528686200191600160a060020a0319928584825416179055338652808752600184872001908154928310156200053557600183018083558310156200051f57509084918652868620019182541617905551914290827fa0c75b76492543c8eafdc7e35272287bd6f229dcf0f6c22429343044718c5108339280a48152f35b60e060020a634e487b7102875260329052602486fd5b60e060020a634e487b7102875260419052602486fd5b60e060020a634e487b7102865260328352602486fd5b60e060020a634e487b7102865260418352602486fd5b83513d87823e3d90fd5b60e060020a634e487b7102885260418552602488fd5b60e060020a634e487b7102855260018252602485fd5b5080fd5b509190346200025b5760203660031901126200025b578035600160a060020a03811691908290036200025f5790828460ff93836020975280875282822093807fbafb199a9909a7be73ceeaf6193dc9ea119ef469120d998d5f550140c0b13b548560a860020a978860a860020a8b0219825416178091558989835192041615158152428c820152a2825286522054041690519015158152f35b508234620005ad5781600319360112620005ad5760209051601e8152f35b5091346200025b5760203660031901126200025b57600160a060020a039180358381169081900362000275578460ff92849260609752602052205482519382821615158552610100820416602085015260a860020a900416151590820152f35b508281600319360112620005ad57602090620006e362000ad1565b9051600160a060020a039091168152f35b508234620005ad5781600319360112620005ad57620002d4600080516020620025b28339815191529162000734600160a060020a03855416331462000a21565b6200073e62000ad1565b9051918291338362000a71565b838234620007d25780600319360112620007d25781516005805480835290835260208083019492936000805160206200259283398151915292915b828210620007b157620007ad8686620007a2828b038362000b8d565b5191829182620009bf565b0390f35b8354600160a060020a03168752958601956001938401939091019062000786565b80fd5b5080600319360112620007d257805481600160a060020a038216620007fc33821462000b40565b600080516020620025d28339815191528280a3600160a060020a031916815580f35b509190346200025b5760203660031901126200025b576200083e62000a05565b8354600160a060020a03919062000859908316331462000a21565b835160e060020a6329c68dc102815291169160209082908187865af1928315620008f657508392620008b3575b5042911515907f25270acf0eab637903a9cd906e32d2ac17ce44db6c743ba5812f2924e84ff8d68480a480f35b9091506020813d8211620008ed575b81620008d16020938362000b8d565b810103126200025b575180151581036200025b57903862000886565b3d9150620008c2565b513d85823e3d90fd5b5091346200025b57826003193601126200025b57338352602091825260019283828220019382518094808754928381520196845280842093905b8282106200095557620007ad8787620007a2828c038362000b8d565b8454600160a060020a0316885296870196938301939083019062000939565b905082346200025b5760203660031901126200025b57356005548110156200025b5760059092526000805160206200259283398151915290910154600160a060020a03168152602090f35b6020908160408183019282815285518094520193019160005b828110620009e7575050505090565b8351600160a060020a031685529381019392810192600101620009d8565b60043590600160a060020a038216820362000a1c57565b600080fd5b1562000a2957565b60405160e560020a62461bcd02815260206004820152601b60248201527f756e617574686f72697a65642c206e6f7420746865206f776e657200000000006044820152606490fd5b600160a060020a0391821681529116602082015260400190565b1562000a9357565b60405160e560020a62461bcd0281526020600482015260106024820152608160020a6f3930ba32903634b6b4ba1032b93937b9026044820152606490fd5b600154601e810180911162000b0b5762000af890421162000af28162000a8b565b62000a8b565b42600155600054600160a060020a031690565b60e060020a634e487b710260009081526011600452602490fd5b600160a060020a039091168152602081019190915260400190565b1562000b4857565b60405160e560020a62461bcd0281526020600482015260176024820152604960020a7630b1b1b2b9b9903232b734b2b2103337b91037bbb732b9026044820152606490fd5b601f909101601f19168101906001604060020a0382119082101762000bb157604052565b60e060020a634e487b710260009081526041600452602490fdfe346200006457620019c6803803601f19601f8201166080016080811067ffffffffffffffff8211176200006957608092829160405283391262000064576200005460805160a05160c0519060e05192620000d6565b6040516116d29081620002f48239f35b600080fd5b7f4e487b7100000000000000000000000000000000000000000000000000000000600052604160045260246000fd5b9060018201809211620000a757565b7f4e487b7100000000000000000000000000000000000000000000000000000000600052601160045260246000fd5b620001d992939162000191620001a0926200018c60009733600160a060020a03198a54161789554260015533897f8be0079c531659141344cd1fd0a4f28419497f9722a3daafe3b4186f6b6457e08180a360ff19600354166003556200013c6000601155565b620001476000601255565b6200015b620001564262000098565b601455565b620001666000601555565b6003805461010060a860020a031916610100320261010060a860020a0316179055600755565b600455565b6200019b81600855565b600955565b620001ba620001b5600454600754906200021e565b600555565b620001d4620001cf600554600854906200028a565b600a55565b600d55565b620001e342600b55565b6003544291907ff9f75c99c0e3522cd19ffc66fd6c94989a3f0821d37d5c5bb176aab904c6335d906101009004600160a060020a03169180a3565b9081019081106200022c5790565b60646040517f08c379a000000000000000000000000000000000000000000000000000000000815260206004820152601b60248201527f536166654d6174683a206164646974696f6e206f766572666c6f7700000000006044820152fd5b811562000295570490565b60646040517f08c379a000000000000000000000000000000000000000000000000000000000815260206004820152601a60248201527f536166654d6174683a206469766973696f6e206279207a65726f0000000000006044820152fdfe60806040526004361015610026575b361561001e5761001c610b72565b005b61001c610bf5565b60e060020a600035046312065fe08114610159578063268f11531461015457806328fd10d71461014f57806329c68dc11461014a5780633ccfd60b14610145578063402d88831461014057806343c14b221461013b578063590e1ae314610136578063715018a61461013157806383197ef01461012c578063893d20e814610127578063b8fb3a5114610122578063d85da7b61461011d578063e8b5e51f14610118578063efd475ab14610113578063f06817cf1461010e578063f2fde38b14610109578063f5074f41146101045763ffa1ad740361000e576109c9565b61098e565b6108e1565b61084f565b61079b565b610738565b6106e6565b6106ca565b6106a2565b61063b565b6105f5565b610565565b6104d8565b610456565b610356565b6102a2565b61026e565b6101be565b346101765760003660031901126101765760203031604051908152f35b600080fd5b6006111561018557565b60e060020a634e487b710260009081526021600452602490fd5b9060068210156101855752565b6020810192916101bc919061019f565b565b34610176576020366003190112610176576004356006811015610176576101fa906101f5600160a060020a03600054163314610a6f565b610c9e565b60ff600e541660068110156101855761022e90604051918291428160008051602061161d833981519152600080a3826101ac565b0390f35b602090600319011261017657600435600160a060020a03811681036101765790565b600160a060020a0316600090815260106020526040902090565b3461017657600160a060020a0361028436610232565b16600052600f602052602060ff604060002054166040519015158152f35b3461017657600080600319360112610353576102c9600160a060020a038254163314610a6f565b60035460ff81161561031057506102de611290565b60ff600354169061022e604051928392429060008051602061163d8339815191528315159180a3151582526020820190565b60ff19166001176003556040517f33c68eeb60b17ccd4973bd4579ebb2e6156ecfd1defb9e8be822e959cca0253e908061034b363383611257565b0390a16102de565b80fd5b34610176576000806003193601126103535761039060035461037a60ff8216611010565b33610100909104600160a060020a031614610e33565b30316004541161040e5760ff600e541660068110156103f7576005146103bb576103b861105f565b80f35b60405160e560020a62461bcd02815260206004820152600e6024820152609260020a6d199c985d590819195d1958dd1959026044820152606490fd5b60e060020a634e487b710282526021600452602482fd5b60405160e560020a62461bcd02815260206004820181905260248201527f72657175657374656420616d6f756e7420657863656564732062616c616e63656044820152606490fd5b600080600319360112610353576003546104809033610100909104600160a060020a031614610e33565b60ff600e541660068110156103f75760010361049e576103b8610e8a565b60405160e560020a62461bcd02815260206004820152600c602482015260a060020a6b63616e6e6f74207265706179026044820152606490fd5b34610176576000366003190112610176576104f760ff60035416611010565b60145442106105205761051860ff600e54166105128161017b565b156112ca565b61001c611311565b60405160e560020a62461bcd0281526020600482015260176024820152604a60020a761c995d9bd8d85d1a5bdb881d1a5b5948195e1c1a5c9959026044820152606490fd5b34610176576000806003193601126103535761058560ff60035416611010565b338152600f6020526105a2600160ff6040842054161515146110ee565b60ff600e541660068110156103f7576004036105c0576103b86113b0565b60405160e560020a62461bcd028152602060048201526007602482015260ca60020a661c995d9bdad959026044820152606490fd5b60008060031936011261035357805481600160a060020a03821661061a338214610c25565b60008051602061167d8339815191528280a3600160a060020a031916815580f35b346101765760008060031936011261035357610662600160a060020a038254163314610a6f565b60008051602061165d83398151915261069c61067c610b1d565b60408051338152600160a060020a03909216602083015290918291820190565b0390a180f35b60003660031901126101765760206106b8610b1d565b604051600160a060020a039091168152f35b34610176576000366003190112610176576020604051601e8152f35b346101765760003660031901126101765761070560ff60035416611010565b33600052600f602052610724600160ff604060002054161515146110ee565b602061072e61146e565b6040519015158152f35b6000806003193601126103535760ff600e541660068110156103f757610760576103b8610cc6565b60405160e560020a62461bcd02815260206004820152600d6024820152609a60020a6c18d85b9b9bdd081a5b9d995cdd026044820152606490fd5b3461017657600080600319360112610353576107bb60ff60035416611010565b338152600f6020526107d8600160ff6040842054161515146110ee565b60ff600e541660068110156103f75760020361080a576108026107fa33610254565b54151561112f565b6103b8611193565b60405160e560020a62461bcd0281526020600482015260176024820152604860020a76696e746572657374206973206e6f742070617961626c65026044820152606490fd5b3461017657600036600319011261017657610160600354600d5460ff600454926108d060085493600a54906009546007546005549187600e5416943031996040519b8c966020610100988c8a600160a060020a039104168152015260408d015260608c015260808b015260a08a015260c089015260e088015286019061019f565b161515610120830152610140820152f35b6108ea36610232565b600080549091600160a060020a038083169291610908338514610c25565b1691821561093457829060008051602061167d8339815191528580a3600160a060020a03191617815580f35b60405160e560020a62461bcd02815260206004820152602660248201527f4f776e61626c653a206e6577206f776e657220697320746865207a65726f2061604482015260d060020a65646472657373026064820152608490fd5b346101765760008051602061165d8339815191526109c46109ae36610232565b61067c600160a060020a03600054163314610a6f565b0390a1005b346101765760008060031936011261035357604080518082016001604060020a03811182821017610a58578252600a815260209060b060020a69312e362e342d62657461028282015282519382859384528251928382860152825b848110610a4257505050828201840152601f01601f19168101030190f35b8181018301518882018801528795508201610a24565b60e060020a634e487b710284526041600452602484fd5b15610a7657565b60405160e560020a62461bcd02815260206004820152601b60248201527f756e617574686f72697a65642c206e6f7420746865206f776e657200000000006044820152606490fd5b60e060020a634e487b710260009081526011600452602490fd5b15610adf57565b60405160e560020a62461bcd0281526020600482015260106024820152608160020a6f3930ba32903634b6b4ba1032b93937b9026044820152606490fd5b600154601e8101809111610b5257610b3f904211610b3a81610ad8565b610ad8565b42600155600054600160a060020a031690565b610abe565b600160a060020a039091168152602081019190915260400190565b333203610bae577f26875833861a2b006512a11f1b86edf95df96131040f3caeed72989ee985808360405180610ba9343383610b57565b0390a1565b60405160e560020a62461bcd0281526020600482015260196024820152603860020a787068697368696e672061747461636b2064657465637465643f026044820152606490fd5b7fcc85d09d309785db93d6df19917f2e6cc07fe27cd01c08c8279145deb5cf452660405180610ba9343383610b57565b15610c2c57565b60405160e560020a62461bcd0281526020600482015260176024820152604960020a7630b1b1b2b9b9903232b734b2b2103337b91037bbb732b9026044820152606490fd5b15610c7857565b60e060020a634e487b710260009081526001600452602490fd5b6040513d6000823e3d90fd5b60068110156101855760ff8019600e5416911617600e55565b6000198114610b525760010190565b60045460003031821115610d64575b336000908152600f60205260409020610d3a9250610cfa90805460ff19166001179055565b610d0d610d08601154610cb7565b601155565b610d2a81610d25610d1d33610254565b543490611569565b6115be565b610d3333610254565b55346115be565b4290337f1b0969ce7f5b05c5e0969329a05cdbd7e2e2f6cee33ba26fd6e6bbcff82312cd600080a4565b50610d85610d738230316115be565b91610d7f8330316115be565b14610c71565b610d9134821115610c71565b80158015610dda575b50610d3a90610db1600160ff19600e541617600e55565b600e5460ff16610dc08161017b565b429060008051602061161d833981519152600080a3610cd5565b8190600090610e2a575b600080809381933390f115610e2557610d3a904281337f566803f6e271b911c84f87631bcd310d6a6510bf8882577a96fc76975703e431600080a490610d9a565b610c92565b506108fc610de4565b15610e3a57565b60405160e560020a62461bcd02815260206004820152600e6024820152609160020a6d3737ba1030903137b93937bbb2b9026044820152606490fd5b1561017657565b8015610b52576000190190565b610ec5610ec0600954610e9e811515610e76565b610eac600a54341015610e76565b610ebb60065460055411610c71565b610e7d565b600955565b610ece42600c55565b6000600a54803411610f92575b50610f2181610eed610f2693346115be565b4290337f350a09487d622378c6efbda255f996387696319f803a2e53eee64f7aa70be85a600080a4610d2534600654611569565b600655565b60065460055414610f3357565b42337f25630de45a38a90cbca3a2eb35a8197e51b56d6d912581711e5e3773fe77cabc600080a3610f6c600260ff19600e541617600e55565b600e5460ff16610f7b8161017b565b429060008051602061161d833981519152600080a3565b9050610fac610fa182346115be565b91610d7f83346115be565b610fb834821115610c71565b8060008115611007575b600080809381933390f115610e2557610f21610f26914281337f5c9874487a2258c6bd6dc39a2cfcf7ea944b50b79d9a7152668779687b2ebd8d600080a49150610edb565b506108fc610fc2565b1561101757565b60405160e560020a62461bcd02815260206004820152601c60248201527f636f6e74726163742061637469766974792069732066726f7a656e21000000006044820152606490fd5b611071600160ff19600e541617600e55565b60ff600e5416600681101561018557600090429060008051602061161d8339815191528380a3423031337f20734f14d107b526674905e470e35d0a474f9fb996a7bdb034c839c8894524e68480a4808080600160a060020a0361010060035404163031908282156110e5575bf115610e2557565b506108fc6110dd565b156110f557565b60405160e560020a62461bcd02815260206004820152600c602482015260a160020a6b3737ba1030903632b73232b9026044820152606490fd5b1561113657565b60405160e560020a62461bcd02815260206004820152602960248201527f696e76657374656420616d6f756e74206d757374206265206772656174657220604482015260b860020a687468616e207a65726f026064820152608490fd5b60055460115490811561123d57046111ae8130311015610c71565b8060008115611234575b600080809381933390f115610e25574290337f052f6685df2f773f854b17db1d82e2352e222010daaf8175761f02ef8782c403600080a43031156111f857565b611200611290565b4261120f60ff60035416151590565b60008051602061163d833981519152600080a3610f6c600360ff19600e541617600e55565b506108fc6111b8565b60e060020a634e487b710260009081526012600452602490fd5b600160a060020a0390911681526040602082018190528101829052606091806000848401376000828201840152601f01601f1916010190565b60ff19600354166003557fc161c5a84c30bc51746f28a7736664d7dae3f0fad3d92e4bb813d68bad76ec2160405180610ba9363383611257565b156112d157565b60405160e560020a62461bcd0281526020600482015260126024820152607260020a711b9bdd08185b881a5b9d99595cdd1b595b9d026044820152606490fd5b6000338152600f602052611330600160ff6040842054161515146110ee565b338152601360205260ff6040822054166103535761134f601254610cb7565b80601255338252601360205242337fd7173ce7e4ce6f6d075259ac1a467ab8290db175a2cee8587a663c006b97e1298480a36011541461138c5750565b600460ff19600e541617600e55600460008051602061161d833981519152429280a3565b6113c630316113be33610254565b541115610c71565b60008080806113d433610254565b54818115611465575b3390f115610e25576113ee33610254565b544290337f71e252e33f19f0223f47f27d00910548d26488b9b55cb5b410b75e273152f8d6600080a430311561142057565b611428611290565b4260ff60035416151560008051602061163d833981519152600080a3611456600360ff19600e541617600e55565b60ff600e5416610f7b8161017b565b506108fc6113dd565b33600052601660205260ff604060002054166114e457611497611492601554610cb7565b601555565b33600081815260166020524291907f1db613004119dde2a638b639fba9960c0e6064ee7c2d06f300e41c78920ed6dc9080a3601154601554146114d957600190565b6114e1611529565b90565b60405160e560020a62461bcd0281526020600482015260176024820152604960020a763137b93937bbb2b91034b9903090333930bab239ba32b9026044820152606490fd5b60035442906001906101009004600160a060020a03167fc1bb1d1e99d1e8d2705ba85717226a3fd9a86e4de2284b00dfe6f33538d5249f600080a4600190565b9081019081106115765790565b60405160e560020a62461bcd02815260206004820152601b60248201527f536166654d6174683a206164646974696f6e206f766572666c6f7700000000006044820152606490fd5b8082116115d45781810391190181036101765790565b60405160e560020a62461bcd02815260206004820152601e60248201527f536166654d6174683a207375627472616374696f6e206f766572666c6f7700006044820152606490fdfeaaae373901e745122c2e0925ad006227969c6cd190b7d5ea2fb7fdbd1d955b35160914ea27c60aa29a5f3a69d74e6069869de36e38939de1e0a66b921d8623d291ca00fdf29069527d658f8dfc6d1c0bf9861780bb45ff36436f938d3595a8d68be0079c531659141344cd1fd0a4f28419497f9722a3daafe3b4186f6b6457e0a2646970667358221220bb24ea675035fc468a33ca27191bf589f00d9c88e3db0b3e825423160911650164736f6c63430008120033036b6384b5eca791c62761152d0c79bb0604c104a5fb6f4eb0703f3154bb3db091ca00fdf29069527d658f8dfc6d1c0bf9861780bb45ff36436f938d3595a8d68be0079c531659141344cd1fd0a4f28419497f9722a3daafe3b4186f6b6457e0a264697066735822122055091e753e2b29aad287c34845048d97c1ca07d59a02c993720c83262f13036864736f6c63430008120033",
  "immutableReferences": {},
  "source": "// SPDX-License-Identifier: CC-BY-4.0\r\npragma solidity >=0.4.22 <0.9.0;\r\nimport \"../../libs/SafeMath.sol\";\r\nimport \"../../common/Frozen.sol\";\r\nimport \"../credit/Credit.sol\";\r\n\r\ncontract PeerToPeerLending is Frozen {\r\n    /** @dev Usings */\r\n    // Using SafeMath for our calculations with uints.\r\n    using SafeMath for uint;\r\n\r\n    /** @dev State variables */\r\n\r\n    // User structure\r\n    struct User {\r\n        // Is the user currently credited.\r\n        bool credited;\r\n\r\n        // The adress of the active credit.\r\n        Credit activeCredit;\r\n\r\n        // Is the user marked as fraudlent.\r\n        bool fraudStatus;\r\n\r\n        // All user credits.\r\n        Credit[] allCredits;\r\n    }\r\n\r\n    // We store all users in a mapping.\r\n    mapping(address => User) public users;\r\n\r\n    // Array of all credits adresses.\r\n    Credit[] public credits;\r\n\r\n    /** @dev Events */\r\n    event LogCreditCreated(address indexed _address, address indexed _borrower, uint indexed timestamp);\r\n    event LogCreditStateChanged(address indexed _address, Credit.State indexed state, uint indexed timestamp);\r\n    event LogCreditActiveChanged(address indexed _address, bool indexed active, uint indexed timestamp);\r\n    event LogUserSetFraud(address indexed _address, bool fraudStatus, uint timestamp);\r\n\r\n    /** @dev Constructor */\r\n    constructor() {\r\n\r\n    }\r\n\r\n    /**\r\n      * @dev Credit application function.\r\n      *\r\n      * The function publishesh another contract which is the credit contract.\r\n      * The owner of the new contract is the present contract.\r\n      *\r\n      * @param requestedAmount Requested funding amount in wei.\r\n      * @param repaymentsCount Requested repayments count.\r\n      * @param creditDescription The description of the funding.\r\n      * returns credit Return credit address.\r\n      */\r\n\r\n    function applyForCredit(uint requestedAmount, uint repaymentsCount, uint interest, bytes32 creditDescription) public returns(Credit _credit) {\r\n        // The user should not have been credited;\r\n        require(users[msg.sender].credited == false);\r\n\r\n        // THe user should not be marked as fraudlent.\r\n        require(users[msg.sender].fraudStatus == false);\r\n\r\n        // Assert there is no active credit for the user.\r\n        assert(address(users[msg.sender].activeCredit) == address(0));\r\n\r\n        // Mark the user as credited. Prevent from reentrancy.\r\n        users[msg.sender].credited = true;\r\n\r\n        // Create a new credit contract with the given parameters.\r\n        Credit credit = new Credit(requestedAmount, repaymentsCount, interest, creditDescription);\r\n\r\n        // Set the user's active credit contract.\r\n        users[msg.sender].activeCredit = credit;\r\n\r\n        // Add the credit contract to our list with contracts.\r\n        credits.push(credit);\r\n\r\n        // Add the credit to the user's profile.\r\n        users[msg.sender].allCredits.push(credit);\r\n\r\n        // Log the credit creation event.\r\n        emit LogCreditCreated(address(credit), msg.sender, block.timestamp);\r\n\r\n        // Return the address of the newly created credit contract.\r\n        return credit;\r\n    }\r\n\r\n    /** @dev Get the list with all credits.\r\n      * returns credits Returns list of credit addresses.\r\n      */\r\n    function getCredits() public view returns (Credit[] memory) {\r\n        return credits;\r\n    }\r\n\r\n    /** @dev Get all users credits.\r\n      * returns users[msg.sender].allCredits Return user credits.\r\n      */\r\n    function getUserCredits() public view returns (Credit[] memory) {\r\n        return users[msg.sender].allCredits;\r\n    }\r\n\r\n    /** @dev Sets user fraudlent status true.\r\n     * @param _borrower The user's address.\r\n     * returns users[_borrower].fraudStatus Boolean of the new fraud status.\r\n     */\r\n    function setFraudStatus(address _borrower) external returns (bool) {\r\n        // Update user fraud status.\r\n        users[_borrower].fraudStatus = true;\r\n\r\n        // Log fraud status.\r\n        emit LogUserSetFraud(_borrower, users[_borrower].fraudStatus, block.timestamp);\r\n\r\n        return users[_borrower].fraudStatus;\r\n    }\r\n\r\n    /** @dev Function to switch active state of a credit.\r\n      * @param _credit The credit's address.\r\n      * @param state New state.\r\n      */\r\n    function changeCreditState (Credit _credit, Credit.State state) public okOwner {\r\n        // Call credit contract changeStage.\r\n        Credit credit = Credit(_credit);\r\n        credit.changeState(state);\r\n\r\n        // Log state change.\r\n        emit LogCreditStateChanged(address(credit), state, block.timestamp);\r\n    }\r\n\r\n    /** @dev Function to toggle active state of credit contract.\r\n      * @param _credit The credit's address.\r\n      */\r\n    function changeCreditState (Credit _credit) public okOwner {\r\n        // Call credit contract toggleActive method.\r\n        Credit credit = Credit(_credit);\r\n        bool active = credit.toggleActive();\r\n\r\n        // Log state change.\r\n        emit LogCreditActiveChanged(address(credit), active, block.timestamp);\r\n    }\r\n}\r\n",
  "sourcePath": "/Volumes/HOME/pingleware-contracts/contracts/finance/banking/PeerToPeerLending.sol",
  "compiler": {
    "name": "solc",
    "version": "0.8.18+commit.87f61d96.Emscripten.clang"
  },
  "schemaVersion": "3.4.12",
  "updatedAt": "2024-05-23T18:56:25.332Z",
  "devdoc": {
    "events": {
      "LogCreditCreated(address,address,uint256)": {
        "details": "Events "
      }
    },
    "kind": "dev",
    "methods": {
      "applyForCredit(uint256,uint256,uint256,bytes32)": {
        "details": "Credit application function. The function publishesh another contract which is the credit contract. The owner of the new contract is the present contract.",
        "params": {
          "creditDescription": "The description of the funding. returns credit Return credit address.",
          "repaymentsCount": "Requested repayments count.",
          "requestedAmount": "Requested funding amount in wei."
        }
      },
      "changeCreditState(address)": {
        "details": "Function to toggle active state of credit contract.",
        "params": {
          "_credit": "The credit's address."
        }
      },
      "changeCreditState(address,uint8)": {
        "details": "Function to switch active state of a credit.",
        "params": {
          "_credit": "The credit's address.",
          "state": "New state."
        }
      },
      "constructor": {
        "details": "Constructor "
      },
      "getCredits()": {
        "details": "Get the list with all credits. returns credits Returns list of credit addresses."
      },
      "getUserCredits()": {
        "details": "Get all users credits. returns users[msg.sender].allCredits Return user credits."
      },
      "renounceOwnership()": {
        "details": "Leaves the contract without owner. It will not be possible to call `onlyOwner` functions anymore. Can only be called by the current owner. NOTE: Renouncing ownership will leave the contract without an owner, thereby removing any functionality that is only available to the owner."
      },
      "setFraudStatus(address)": {
        "details": "Sets user fraudlent status true.",
        "params": {
          "_borrower": "The user's address. returns users[_borrower].fraudStatus Boolean of the new fraud status."
        }
      },
      "transferOwnership(address)": {
        "details": "Transfers ownership of the contract to a new account (`newOwner`). Can only be called by the current owner."
      }
    },
    "version": 1
  },
  "userdoc": {
    "kind": "user",
    "methods": {},
    "version": 1
  }
}