{
  "contractName": "PeerToPeerLending",
  "abi": [
    {
      "inputs": [],
      "stateMutability": "nonpayable",
      "type": "constructor"
    },
    {
      "anonymous": false,
      "inputs": [
        {
          "indexed": false,
          "internalType": "address",
          "name": "sender",
          "type": "address"
        },
        {
          "indexed": false,
          "internalType": "address",
          "name": "recipient",
          "type": "address"
        }
      ],
      "name": "Destroyed",
      "type": "event"
    },
    {
      "anonymous": false,
      "inputs": [
        {
          "indexed": false,
          "internalType": "address",
          "name": "sender",
          "type": "address"
        },
        {
          "indexed": false,
          "internalType": "uint256",
          "name": "amount",
          "type": "uint256"
        }
      ],
      "name": "FallbackEvent",
      "type": "event"
    },
    {
      "anonymous": false,
      "inputs": [
        {
          "indexed": true,
          "internalType": "address",
          "name": "_address",
          "type": "address"
        },
        {
          "indexed": true,
          "internalType": "bool",
          "name": "active",
          "type": "bool"
        },
        {
          "indexed": true,
          "internalType": "uint256",
          "name": "timestamp",
          "type": "uint256"
        }
      ],
      "name": "LogCreditActiveChanged",
      "type": "event"
    },
    {
      "anonymous": false,
      "inputs": [
        {
          "indexed": true,
          "internalType": "address",
          "name": "_address",
          "type": "address"
        },
        {
          "indexed": true,
          "internalType": "address",
          "name": "_borrower",
          "type": "address"
        },
        {
          "indexed": true,
          "internalType": "uint256",
          "name": "timestamp",
          "type": "uint256"
        }
      ],
      "name": "LogCreditCreated",
      "type": "event"
    },
    {
      "anonymous": false,
      "inputs": [
        {
          "indexed": true,
          "internalType": "address",
          "name": "_address",
          "type": "address"
        },
        {
          "indexed": true,
          "internalType": "enum Credit.State",
          "name": "state",
          "type": "uint8"
        },
        {
          "indexed": true,
          "internalType": "uint256",
          "name": "timestamp",
          "type": "uint256"
        }
      ],
      "name": "LogCreditStateChanged",
      "type": "event"
    },
    {
      "anonymous": false,
      "inputs": [
        {
          "indexed": true,
          "internalType": "address",
          "name": "_address",
          "type": "address"
        },
        {
          "indexed": false,
          "internalType": "bool",
          "name": "fraudStatus",
          "type": "bool"
        },
        {
          "indexed": false,
          "internalType": "uint256",
          "name": "timestamp",
          "type": "uint256"
        }
      ],
      "name": "LogUserSetFraud",
      "type": "event"
    },
    {
      "anonymous": false,
      "inputs": [
        {
          "indexed": true,
          "internalType": "address",
          "name": "previousOwner",
          "type": "address"
        },
        {
          "indexed": true,
          "internalType": "address",
          "name": "newOwner",
          "type": "address"
        }
      ],
      "name": "OwnershipTransferred",
      "type": "event"
    },
    {
      "anonymous": false,
      "inputs": [
        {
          "indexed": false,
          "internalType": "address",
          "name": "sender",
          "type": "address"
        },
        {
          "indexed": false,
          "internalType": "uint256",
          "name": "amount",
          "type": "uint256"
        }
      ],
      "name": "ReceiveEvent",
      "type": "event"
    },
    {
      "anonymous": false,
      "inputs": [
        {
          "indexed": false,
          "internalType": "address",
          "name": "sender",
          "type": "address"
        },
        {
          "indexed": false,
          "internalType": "bytes",
          "name": "reason",
          "type": "bytes"
        }
      ],
      "name": "Started",
      "type": "event"
    },
    {
      "anonymous": false,
      "inputs": [
        {
          "indexed": false,
          "internalType": "address",
          "name": "sender",
          "type": "address"
        },
        {
          "indexed": false,
          "internalType": "bytes",
          "name": "reason",
          "type": "bytes"
        }
      ],
      "name": "Stopped",
      "type": "event"
    },
    {
      "anonymous": false,
      "inputs": [
        {
          "indexed": false,
          "internalType": "address",
          "name": "sender",
          "type": "address"
        },
        {
          "indexed": false,
          "internalType": "string",
          "name": "reason",
          "type": "string"
        }
      ],
      "name": "Termination",
      "type": "event"
    },
    {
      "stateMutability": "payable",
      "type": "fallback",
      "payable": true
    },
    {
      "inputs": [],
      "name": "WAIT",
      "outputs": [
        {
          "internalType": "uint256",
          "name": "",
          "type": "uint256"
        }
      ],
      "stateMutability": "view",
      "type": "function",
      "constant": true
    },
    {
      "inputs": [
        {
          "internalType": "uint256",
          "name": "",
          "type": "uint256"
        }
      ],
      "name": "credits",
      "outputs": [
        {
          "internalType": "contract Credit",
          "name": "",
          "type": "address"
        }
      ],
      "stateMutability": "view",
      "type": "function",
      "constant": true
    },
    {
      "inputs": [],
      "name": "destroy",
      "outputs": [],
      "stateMutability": "nonpayable",
      "type": "function"
    },
    {
      "inputs": [
        {
          "internalType": "address",
          "name": "_recipient",
          "type": "address"
        }
      ],
      "name": "destroyAndSend",
      "outputs": [],
      "stateMutability": "nonpayable",
      "type": "function"
    },
    {
      "inputs": [],
      "name": "getOwner",
      "outputs": [
        {
          "internalType": "address",
          "name": "",
          "type": "address"
        }
      ],
      "stateMutability": "payable",
      "type": "function",
      "payable": true
    },
    {
      "inputs": [],
      "name": "renounceOwnership",
      "outputs": [],
      "stateMutability": "payable",
      "type": "function",
      "payable": true
    },
    {
      "inputs": [
        {
          "internalType": "address",
          "name": "newOwner",
          "type": "address"
        }
      ],
      "name": "transferOwnership",
      "outputs": [],
      "stateMutability": "payable",
      "type": "function",
      "payable": true
    },
    {
      "inputs": [
        {
          "internalType": "address",
          "name": "",
          "type": "address"
        }
      ],
      "name": "users",
      "outputs": [
        {
          "internalType": "bool",
          "name": "credited",
          "type": "bool"
        },
        {
          "internalType": "contract Credit",
          "name": "activeCredit",
          "type": "address"
        },
        {
          "internalType": "bool",
          "name": "fraudStatus",
          "type": "bool"
        }
      ],
      "stateMutability": "view",
      "type": "function",
      "constant": true
    },
    {
      "stateMutability": "payable",
      "type": "receive",
      "payable": true
    },
    {
      "inputs": [
        {
          "internalType": "uint256",
          "name": "requestedAmount",
          "type": "uint256"
        },
        {
          "internalType": "uint256",
          "name": "repaymentsCount",
          "type": "uint256"
        },
        {
          "internalType": "uint256",
          "name": "interest",
          "type": "uint256"
        },
        {
          "internalType": "bytes32",
          "name": "creditDescription",
          "type": "bytes32"
        }
      ],
      "name": "applyForCredit",
      "outputs": [
        {
          "internalType": "contract Credit",
          "name": "_credit",
          "type": "address"
        }
      ],
      "stateMutability": "nonpayable",
      "type": "function"
    },
    {
      "inputs": [],
      "name": "getCredits",
      "outputs": [
        {
          "internalType": "contract Credit[]",
          "name": "",
          "type": "address[]"
        }
      ],
      "stateMutability": "view",
      "type": "function",
      "constant": true
    },
    {
      "inputs": [],
      "name": "getUserCredits",
      "outputs": [
        {
          "internalType": "contract Credit[]",
          "name": "",
          "type": "address[]"
        }
      ],
      "stateMutability": "view",
      "type": "function",
      "constant": true
    },
    {
      "inputs": [
        {
          "internalType": "address",
          "name": "_borrower",
          "type": "address"
        }
      ],
      "name": "setFraudStatus",
      "outputs": [
        {
          "internalType": "bool",
          "name": "",
          "type": "bool"
        }
      ],
      "stateMutability": "nonpayable",
      "type": "function"
    },
    {
      "inputs": [
        {
          "internalType": "contract Credit",
          "name": "_credit",
          "type": "address"
        }
      ],
      "name": "changeCreditState",
      "outputs": [],
      "stateMutability": "nonpayable",
      "type": "function"
    },
    {
      "inputs": [
        {
          "internalType": "contract Credit",
          "name": "_credit",
          "type": "address"
        },
        {
          "internalType": "enum Credit.State",
          "name": "state",
          "type": "uint8"
        }
      ],
      "name": "changeCreditState",
      "outputs": [],
      "stateMutability": "nonpayable",
      "type": "function"
    }
  ],
  "bytecode": "0x608060405260006001556003805460ff1916905534801561001f57600080fd5b5060008054600160a060020a031916339081178255426001556040519091907f8be0079c531659141344cd1fd0a4f28419497f9722a3daafe3b4186f6b6457e0908290a3612bd8806100726000396000f3fe608060405260043610620000c45760e060020a6000350463036a1c228114620001915780632092cb3314620001d357806359658c4814620001fa578063715018a61462000221578063823a71af146200022b57806383197ef01462000243578063893d20e8146200025b578063a87430ba1462000265578063b8fb3a5114620002dc578063bb9e42471462000302578063ebb5d8ed1462000338578063f2fde38b146200035d578063f5074f411462000374578063fa838e5414620003995762000107565b3662000107577fcc85d09d309785db93d6df19917f2e6cc07fe27cd01c08c8279145deb5cf45263334604051620000fd92919062000b73565b60405180910390a1005b3233146200015e5760405160e560020a62461bcd0281526020600482015260196024820152603860020a787068697368696e672061747461636b2064657465637465643f0260448201526064015b60405180910390fd5b7f26875833861a2b006512a11f1b86edf95df96131040f3caeed72989ee98580833334604051620000fd92919062000b73565b3480156200019e57600080fd5b50620001b6620001b036600462000b8c565b620003be565b604051600160a060020a0390911681526020015b60405180910390f35b348015620001e057600080fd5b50620001eb620003e9565b604051620001ca919062000ba6565b3480156200020757600080fd5b506200021f6200021936600462000c0e565b62000459565b005b6200021f6200053b565b3480156200023857600080fd5b50620001eb620005a4565b3480156200025057600080fd5b506200021f62000606565b620001b66200066b565b3480156200027257600080fd5b50620002b46200028436600462000c0e565b60046020526000908152604090205460ff80821691600160a060020a036101008204169160a860020a9091041683565b604080519315158452600160a060020a039092166020840152151590820152606001620001ca565b348015620002e957600080fd5b50620002f3601e81565b604051908152602001620001ca565b3480156200030f57600080fd5b50620003276200032136600462000c0e565b620006eb565b6040519015158152602001620001ca565b3480156200034557600080fd5b50620001b66200035736600462000c35565b6200078d565b6200021f6200036e36600462000c0e565b62000928565b3480156200038157600080fd5b506200021f6200039336600462000c0e565b62000a0f565b348015620003a657600080fd5b506200021f620003b836600462000c76565b62000a6c565b60058181548110620003cf57600080fd5b600091825260209091200154600160a060020a0316905081565b336000908152600460209081526040918290206001018054835181840281018401909452808452606093928301828280156200044f57602002820191906000526020600020905b8154600160a060020a0316815260019091019060200180831162000430575b5050505050905090565b600054600160a060020a03163314620004895760405160e560020a62461bcd028152600401620001559062000cb4565b6000819050600081600160a060020a03166329c68dc16040518163ffffffff1660e060020a0281526004016020604051808303816000875af1158015620004d4573d6000803e3d6000fd5b505050506040513d601f19601f82011682018060405250810190620004fa919062000ceb565b90504281151583600160a060020a03167f25270acf0eab637903a9cd906e32d2ac17ce44db6c743ba5812f2924e84ff8d660405160405180910390a4505050565b600054600160a060020a031633146200056b5760405160e560020a62461bcd028152600401620001559062000d0f565b60008054604051600160a060020a039091169060008051602062002b83833981519152908390a360008054600160a060020a0319169055565b606060058054806020026020016040519081016040528092919081815260200182805480156200044f57602002820191906000526020600020908154600160a060020a0316815260019091019060200180831162000430575050505050905090565b600054600160a060020a03163314620006365760405160e560020a62461bcd028152600401620001559062000cb4565b60008051602062002b6383398151915233620006516200066b565b6040516200066192919062000d43565b60405180910390a1565b6000601e6001546200067e919062000d5d565b4211620006a25760405160e560020a62461bcd028152600401620001559062000d89565b601e600154620006b3919062000d5d565b4211620006d75760405160e560020a62461bcd028152600401620001559062000d89565b5042600155600054600160a060020a031690565b600160a060020a038116600081815260046020526040808220805460a860020a60ff02191660a860020a9081179182905591519293927fbafb199a9909a7be73ceeaf6193dc9ea119ef469120d998d5f550140c0b13b54926200075f920460ff169042909115158252602082015260400190565b60405180910390a250600160a060020a031660009081526004602052604090205460a860020a900460ff1690565b3360009081526004602052604081205460ff1615620007ab57600080fd5b3360009081526004602052604090205460a860020a900460ff1615620007d057600080fd5b336000908152600460205260409020546101009004600160a060020a031615620007fe57620007fe62000db6565b33600090815260046020526040808220805460ff191660011790555186908690869086906200082d9062000b65565b938452602084019290925260408301526060820152608001604051809103906000f08015801562000862573d6000803e3d6000fd5b50336000818152600460209081526040808320805461010060a860020a031916610100600160a060020a0388169081029190911782556005805460018181019092557f036b6384b5eca791c62761152d0c79bb0604c104a5fb6f4eb0703f3154bb3db0018054600160a060020a0319908116841790915592810180549182018155865293852090930180549091168317905551939450429390917fa0c75b76492543c8eafdc7e35272287bd6f229dcf0f6c22429343044718c510891a495945050505050565b600054600160a060020a03163314620009585760405160e560020a62461bcd028152600401620001559062000d0f565b600160a060020a038116620009c55760405160e560020a62461bcd02815260206004820152602660248201527f4f776e61626c653a206e6577206f776e657220697320746865207a65726f2061604482015260d060020a6564647265737302606482015260840162000155565b60008054604051600160a060020a038085169392169160008051602062002b8383398151915291a360008054600160a060020a031916600160a060020a0392909216919091179055565b600054600160a060020a0316331462000a3f5760405160e560020a62461bcd028152600401620001559062000cb4565b60008051602062002b63833981519152338260405162000a6192919062000d43565b60405180910390a150565b600054600160a060020a0316331462000a9c5760405160e560020a62461bcd028152600401620001559062000cb4565b60405160e060020a63268f11530281528290600160a060020a0382169063268f11539062000acf90859060040162000dea565b6020604051808303816000875af115801562000aef573d6000803e3d6000fd5b505050506040513d601f19601f8201168201806040525081019062000b15919062000e17565b504282600581111562000b2c5762000b2c62000dd0565b604051600160a060020a038416907f9ae5127f6d87e374b5901ce23a9467e504811c54c03dda8741ad44a35a36146690600090a4505050565b611d2b8062000e3883390190565b600160a060020a03929092168252602082015260400190565b60006020828403121562000b9f57600080fd5b5035919050565b6020808252825182820181905260009190848201906040850190845b8181101562000be9578351600160a060020a03168352928401929184019160010162000bc2565b50909695505050505050565b600160a060020a038116811462000c0b57600080fd5b50565b60006020828403121562000c2157600080fd5b813562000c2e8162000bf5565b9392505050565b6000806000806080858703121562000c4c57600080fd5b5050823594602084013594506040840135936060013592509050565b6006811062000c0b57600080fd5b6000806040838503121562000c8a57600080fd5b823562000c978162000bf5565b9150602083013562000ca98162000c68565b809150509250929050565b6020808252601b908201527f756e617574686f72697a65642c206e6f7420746865206f776e65720000000000604082015260600190565b60006020828403121562000cfe57600080fd5b8151801515811462000c2e57600080fd5b6020808252601790820152604960020a7630b1b1b2b9b9903232b734b2b2103337b91037bbb732b902604082015260600190565b600160a060020a0392831681529116602082015260400190565b8082018082111562000d835760e060020a634e487b710260009081526011600452602490fd5b92915050565b6020808252601090820152608160020a6f3930ba32903634b6b4ba1032b93937b902604082015260600190565b60e060020a634e487b710260009081526001600452602490fd5b60e060020a634e487b710260009081526021600452602490fd5b602081016006831062000e115760e060020a634e487b710260009081526021600452602490fd5b91905290565b60006020828403121562000e2a57600080fd5b815162000c2e8162000c6856fe6080604052600060018181556003805460ff1916905560118290556012919091556200002d90429062000262565b60145560006015553480156200004257600080fd5b5060405162001d2b38038062001d2b83398101604081905262000065916200029d565b60008054600160a060020a031916339081178255426001556040519091907f8be0079c531659141344cd1fd0a4f28419497f9722a3daafe3b4186f6b6457e0908290a36003805461010060a860020a03191632610100021790556007829055600484905560088390556009839055620000ed8483640100000000620001638102620014021704565b60058190556008546200010f919064010000000062001463620001e182021704565b600a55600d81905542600b819055600354604051610100909104600160a060020a0316907ff9f75c99c0e3522cd19ffc66fd6c94989a3f0821d37d5c5bb176aab904c6335d90600090a350505050620002d4565b600082820183811015620001d8576040517f08c379a000000000000000000000000000000000000000000000000000000000815260206004820152601b60248201527f536166654d6174683a206164646974696f6e206f766572666c6f77000000000060448201526064015b60405180910390fd5b90505b92915050565b60008082116200024e576040517f08c379a000000000000000000000000000000000000000000000000000000000815260206004820152601a60248201527f536166654d6174683a206469766973696f6e206279207a65726f0000000000006044820152606401620001cf565b6000826200025b57600080fd5b5050900490565b80820180821115620001db577f4e487b7100000000000000000000000000000000000000000000000000000000600052601160045260246000fd5b60008060008060808587031215620002b457600080fd5b505082516020840151604085015160609095015191969095509092509050565b611a4780620002e46000396000f3fe6080604052600436106100eb5760e060020a600035046312065fe081146101b2578063268f1153146101d557806328fd10d71461020257806329c68dc1146102425780633ccfd60b14610257578063402d88831461026e57806343c14b2214610276578063590e1ae31461028b578063715018a6146102a057806383197ef0146102a8578063893d20e8146102bd578063b8fb3a51146102dd578063d85da7b6146102f2578063e8b5e51f14610307578063efd475ab1461030f578063f06817cf14610324578063f2fde38b14610350578063f5074f4114610363578063ffa1ad74146103835761012b565b3661012b577fcc85d09d309785db93d6df19917f2e6cc07fe27cd01c08c8279145deb5cf45263334604051610121929190611610565b60405180910390a1005b3233146101815760405160e560020a62461bcd0281526020600482015260196024820152603860020a787068697368696e672061747461636b2064657465637465643f0260448201526064015b60405180910390fd5b7f26875833861a2b006512a11f1b86edf95df96131040f3caeed72989ee98580833334604051610121929190611610565b3480156101be57600080fd5b5030315b6040519081526020015b60405180910390f35b3480156101e157600080fd5b506101f56101f0366004611629565b6103c9565b6040516101cc919061168a565b34801561020e57600080fd5b5061023261021d366004611698565b600f6020526000908152604090205460ff1681565b60405190151581526020016101cc565b34801561024e57600080fd5b50610232610456565b34801561026357600080fd5b5061026c6104db565b005b61026c610682565b34801561028257600080fd5b5061026c6108ca565b34801561029757600080fd5b5061026c610a54565b61026c610c18565b3480156102b457600080fd5b5061026c610c7d565b6102c5610cda565b604051600160a060020a0390911681526020016101cc565b3480156102e957600080fd5b506101c2601e81565b3480156102fe57600080fd5b50610232610d50565b61026c610e71565b34801561031b57600080fd5b5061026c61103f565b34801561033057600080fd5b50610339611244565b6040516101cc9b9a999897969594939291906116c1565b61026c61035e366004611698565b6112ca565b34801561036f57600080fd5b5061026c61037e366004611698565b6113ab565b34801561038f57600080fd5b506103bc6040518060400160405280600a815260200160b060020a69312e362e342d626574610281525081565b6040516101cc9190611729565b60008054600160a060020a031633146103f75760405160e560020a62461bcd02815260040161017890611777565b600e805483919060ff191660018360058111156104165761041661164a565b0217905550600e54429060ff1660058111156104345761043461164a565b60405160008051602061199283398151915290600090a35050600e5460ff1690565b60008054600160a060020a031633146104845760405160e560020a62461bcd02815260040161017890611777565b60035460ff161561049c576104976114ca565b6104a4565b6104a4611509565b426104b160035460ff1690565b604051901515906000805160206119b283398151915290600090a35060035460ff1690565b905090565b60035460ff166105005760405160e560020a62461bcd028152600401610178906117ae565b6003546101009004600160a060020a031633146105325760405160e560020a62461bcd028152600401610178906117e5565b600454303110156105885760405160e560020a62461bcd02815260206004820181905260248201527f72657175657374656420616d6f756e7420657863656564732062616c616e63656044820152606401610178565b6005600e5460ff1660058111156105a1576105a161164a565b036105e55760405160e560020a62461bcd02815260206004820152600e6024820152609260020a6d199c985d590819195d1958dd1959026044820152606401610178565b600e805460ff19166001908117909155429060405160008051602061199283398151915290600090a3604051429030319033907f20734f14d107b526674905e470e35d0a474f9fb996a7bdb034c839c8894524e690600090a4600354604051600160a060020a036101009092049190911690303180156108fc02916000818181858888f1935050505015801561067f573d6000803e3d6000fd5b50565b6003546101009004600160a060020a031633146106b45760405160e560020a62461bcd028152600401610178906117e5565b6001600e5460ff1660058111156106cd576106cd61164a565b1461070f5760405160e560020a62461bcd02815260206004820152600c602482015260a060020a6b63616e6e6f74207265706179026044820152606401610178565b60006009541161071e57600080fd5b600a5434101561072d57600080fd5b6005546006541061074057610740611810565b6009805490600061075083611844565b909155505042600c55600a546000903411156107fc5761077234600a5461154b565b905061077e348261154b565b600a541461078e5761078e611810565b3481111561079e5761079e611810565b604051339082156108fc029083906000818181858888f193505050501580156107cb573d6000803e3d6000fd5b506040514290829033907f5c9874487a2258c6bd6dc39a2cfcf7ea944b50b79d9a7152668779687b2ebd8d90600090a45b42610807348361154b565b60405133907f350a09487d622378c6efbda255f996387696319f803a2e53eee64f7aa70be85a90600090a461084761084160065434611402565b8261154b565b6006819055600554900361067f57604051429033907f25630de45a38a90cbca3a2eb35a8197e51b56d6d912581711e5e3773fe77cabc90600090a3600e80546002919060ff19166001835b0217905550600e54429060ff1660058111156108b0576108b061164a565b60405160008051602061199283398151915290600090a350565b60035460ff166108ef5760405160e560020a62461bcd028152600401610178906117ae565b6014544210156109415760405160e560020a62461bcd0281526020600482015260176024820152604a60020a761c995d9bd8d85d1a5bdb881d1a5b5948195e1c1a5c9959026044820152606401610178565b6000600e5460ff16600581111561095a5761095a61164a565b146109a25760405160e560020a62461bcd0281526020600482015260126024820152607260020a711b9bdd08185b881a5b9d99595cdd1b595b9d026044820152606401610178565b336000908152600f602052604090205460ff1615156001146109d95760405160e560020a62461bcd0281526004016101789061185b565b3360009081526013602052604090205460ff16156109f657600080fd5b60128054906000610a0683611884565b909155505033600081815260136020526040514292917fd7173ce7e4ce6f6d075259ac1a467ab8290db175a2cee8587a663c006b97e12991a360125460115403610a5257610a526115b2565b565b60035460ff16610a795760405160e560020a62461bcd028152600401610178906117ae565b336000908152600f602052604090205460ff161515600114610ab05760405160e560020a62461bcd0281526004016101789061185b565b6004600e5460ff166005811115610ac957610ac961164a565b14610b065760405160e560020a62461bcd028152602060048201526007602482015260ca60020a661c995d9bdad959026044820152606401610178565b3360009081526010602052604090205430311015610b2657610b26611810565b3360008181526010602052604080822054905181156108fc0292818181858888f19350505050158015610b5d573d6000803e3d6000fd5b5033600081815260106020526040808220549051429391927f71e252e33f19f0223f47f27d00910548d26488b9b55cb5b410b75e273152f8d691a43031600003610a5257610ba96114ca565b42610bb660035460ff1690565b604051901515906000805160206119b283398151915290600090a3600e80546003919060ff19166001835b0217905550600e54429060ff166005811115610bff57610bff61164a565b60405160008051602061199283398151915290600090a3565b600054600160a060020a03163314610c455760405160e560020a62461bcd0281526004016101789061189d565b60008054604051600160a060020a03909116906000805160206119f2833981519152908390a360008054600160a060020a0319169055565b600054600160a060020a03163314610caa5760405160e560020a62461bcd02815260040161017890611777565b6000805160206119d283398151915233610cc2610cda565b604051610cd09291906118d1565b60405180910390a1565b6000601e600154610ceb91906118eb565b4211610d0c5760405160e560020a62461bcd028152600401610178906118fe565b601e600154610d1b91906118eb565b4211610d3c5760405160e560020a62461bcd028152600401610178906118fe565b5042600155600054600160a060020a031690565b60035460009060ff16610d785760405160e560020a62461bcd028152600401610178906117ae565b336000908152600f602052604090205460ff161515600114610daf5760405160e560020a62461bcd0281526004016101789061185b565b3360009081526016602052604090205460ff1615610e0f5760405160e560020a62461bcd0281526020600482015260176024820152604960020a763137b93937bbb2b91034b9903090333930bab239ba32b9026044820152606401610178565b60158054906000610e1f83611884565b909155505033600081815260166020526040514292917f1db613004119dde2a638b639fba9960c0e6064ee7c2d06f300e41c78920ed6dc91a360155460115403610e6b576104d66115c6565b50600190565b6000600e5460ff166005811115610e8a57610e8a61164a565b14610ecd5760405160e560020a62461bcd02815260206004820152600d6024820152609a60020a6c18d85b9b9bdd081a5b9d995cdd026044820152606401610178565b600454600090303110610fab57610ef030600160a060020a03163160045461154b565b9050610efd30318261154b565b60045414610f0d57610f0d611810565b34811115610f1d57610f1d611810565b8015610f8157604051339082156108fc029083906000818181858888f19350505050158015610f50573d6000803e3d6000fd5b506040514290829033907f566803f6e271b911c84f87631bcd310d6a6510bf8882577a96fc76975703e43190600090a45b600e805460ff19166001908117909155429060405160008051602061199283398151915290600090a35b336000908152600f60205260408120805460ff191660011790556011805491610fd383611884565b909155505033600090815260106020526040902054610ff6906108419034611402565b3360009081526010602052604090205542611011348361154b565b60405133907f1b0969ce7f5b05c5e0969329a05cdbd7e2e2f6cee33ba26fd6e6bbcff82312cd90600090a450565b60035460ff166110645760405160e560020a62461bcd028152600401610178906117ae565b336000908152600f602052604090205460ff16151560011461109b5760405160e560020a62461bcd0281526004016101789061185b565b6002600e5460ff1660058111156110b4576110b461164a565b146111015760405160e560020a62461bcd0281526020600482015260176024820152604860020a76696e746572657374206973206e6f742070617961626c65026044820152606401610178565b336000908152601060205260409020546111755760405160e560020a62461bcd02815260206004820152602960248201527f696e76657374656420616d6f756e74206d757374206265206772656174657220604482015260b860020a687468616e207a65726f026064820152608401610178565b6000601154600554611187919061192b565b9050303181111561119a5761119a611810565b604051339082156108fc029083906000818181858888f193505050501580156111c7573d6000803e3d6000fd5b506040514290829033907f052f6685df2f773f854b17db1d82e2352e222010daaf8175761f02ef8782c40390600090a4303160000361067f576112086114ca565b4261121560035460ff1690565b604051901515906000805160206119b283398151915290600090a3600e80546003919060ff1916600183610892565b6000806000806000806000806000806000600360019054906101000a9004600160a060020a0316600d54600454600854600a54600954600754600554600e60009054906101000a900460ff1661129c60035460ff1690565b30600160a060020a0316319a509a509a509a509a509a509a509a509a509a509a50909192939495969798999a565b600054600160a060020a031633146112f75760405160e560020a62461bcd0281526004016101789061189d565b600160a060020a0381166113625760405160e560020a62461bcd02815260206004820152602660248201527f4f776e61626c653a206e6577206f776e657220697320746865207a65726f2061604482015260d060020a65646472657373026064820152608401610178565b60008054604051600160a060020a03808516939216916000805160206119f283398151915291a360008054600160a060020a031916600160a060020a0392909216919091179055565b600054600160a060020a031633146113d85760405160e560020a62461bcd02815260040161017890611777565b6000805160206119d283398151915233826040516113f79291906118d1565b60405180910390a150565b60008282018381101561145a5760405160e560020a62461bcd02815260206004820152601b60248201527f536166654d6174683a206164646974696f6e206f766572666c6f7700000000006044820152606401610178565b90505b92915050565b60008082116114b75760405160e560020a62461bcd02815260206004820152601a60248201527f536166654d6174683a206469766973696f6e206279207a65726f0000000000006044820152606401610178565b6000826114c357600080fd5b5050900490565b6003805460ff191690556040517fc161c5a84c30bc51746f28a7736664d7dae3f0fad3d92e4bb813d68bad76ec2190610cd09033906000903690611951565b6003805460ff191660011790556040517f33c68eeb60b17ccd4973bd4579ebb2e6156ecfd1defb9e8be822e959cca0253e90610cd09033906000903690611951565b6000828211156115a05760405160e560020a62461bcd02815260206004820152601e60248201527f536166654d6174683a207375627472616374696f6e206f766572666c6f7700006044820152606401610178565b81830382198401811461145a57600080fd5b600e80546004919060ff1916600183610be1565b60035460405160009160019142918391610100909104600160a060020a0316907fc1bb1d1e99d1e8d2705ba85717226a3fd9a86e4de2284b00dfe6f33538d5249f908690a4919050565b600160a060020a03929092168252602082015260400190565b60006020828403121561163b57600080fd5b81356006811061145a57600080fd5b60e060020a634e487b710260009081526021600452602490fd5b600681106116865760e060020a634e487b710260009081526021600452602490fd5b9052565b6020810161145d8284611664565b6000602082840312156116aa57600080fd5b8135600160a060020a038116811461145a57600080fd5b600061016082019050600160a060020a038d1682528b60208301528a60408301528960608301528860808301528760a08301528660c08301528560e083015261170e610100830186611664565b92151561012082015261014001529998505050505050505050565b600060208083528351808285015260005b818110156117565785810183015185820160400152820161173a565b506000604082860101526040601f19601f8301168501019250505092915050565b6020808252601b908201527f756e617574686f72697a65642c206e6f7420746865206f776e65720000000000604082015260600190565b6020808252601c908201527f636f6e74726163742061637469766974792069732066726f7a656e2100000000604082015260600190565b6020808252600e90820152609160020a6d3737ba1030903137b93937bbb2b902604082015260600190565b60e060020a634e487b710260009081526001600452602490fd5b60e060020a634e487b710260009081526011600452602490fd5b6000816118535761185361182a565b506000190190565b6020808252600c9082015260a160020a6b3737ba1030903632b73232b902604082015260600190565b6000600182016118965761189661182a565b5060010190565b6020808252601790820152604960020a7630b1b1b2b9b9903232b734b2b2103337b91037bbb732b902604082015260600190565b600160a060020a0392831681529116602082015260400190565b8082018082111561145d5761145d61182a565b6020808252601090820152608160020a6f3930ba32903634b6b4ba1032b93937b902604082015260600190565b60008261194c5760e060020a634e487b710260009081526012600452602490fd5b500490565b600160a060020a03841681526040602082018190528101829052818360608301376000818301606090810191909152601f909201601f191601019291505056feaaae373901e745122c2e0925ad006227969c6cd190b7d5ea2fb7fdbd1d955b35160914ea27c60aa29a5f3a69d74e6069869de36e38939de1e0a66b921d8623d291ca00fdf29069527d658f8dfc6d1c0bf9861780bb45ff36436f938d3595a8d68be0079c531659141344cd1fd0a4f28419497f9722a3daafe3b4186f6b6457e0a26469706673582212201d0ca78a9efa9743cb80c0fb32bfa25b5c2208bb6eeaeb123e89ce9dbfdb020464736f6c6343000812003391ca00fdf29069527d658f8dfc6d1c0bf9861780bb45ff36436f938d3595a8d68be0079c531659141344cd1fd0a4f28419497f9722a3daafe3b4186f6b6457e0a26469706673582212202ad6b65ca7a41bd48aa2aa5a26cee9eb96c5246b195cc58bc9101590be600c6b64736f6c63430008120033",
  "immutableReferences": {},
  "source": "// SPDX-License-Identifier: CC-BY-4.0\r\npragma solidity >=0.4.22 <0.9.0;\r\nimport \"../../libs/SafeMath.sol\";\r\nimport \"../../common/Frozen.sol\";\r\nimport \"../credit/Credit.sol\";\r\n\r\ncontract PeerToPeerLending is Frozen {\r\n    /** @dev Usings */\r\n    // Using SafeMath for our calculations with uints.\r\n    using SafeMath for uint;\r\n\r\n    /** @dev State variables */\r\n\r\n    // User structure\r\n    struct User {\r\n        // Is the user currently credited.\r\n        bool credited;\r\n\r\n        // The adress of the active credit.\r\n        Credit activeCredit;\r\n\r\n        // Is the user marked as fraudlent.\r\n        bool fraudStatus;\r\n\r\n        // All user credits.\r\n        Credit[] allCredits;\r\n    }\r\n\r\n    // We store all users in a mapping.\r\n    mapping(address => User) public users;\r\n\r\n    // Array of all credits adresses.\r\n    Credit[] public credits;\r\n\r\n    /** @dev Events */\r\n    event LogCreditCreated(address indexed _address, address indexed _borrower, uint indexed timestamp);\r\n    event LogCreditStateChanged(address indexed _address, Credit.State indexed state, uint indexed timestamp);\r\n    event LogCreditActiveChanged(address indexed _address, bool indexed active, uint indexed timestamp);\r\n    event LogUserSetFraud(address indexed _address, bool fraudStatus, uint timestamp);\r\n\r\n    /** @dev Constructor */\r\n    constructor() {\r\n\r\n    }\r\n\r\n    /**\r\n      * @dev Credit application function.\r\n      *\r\n      * The function publishesh another contract which is the credit contract.\r\n      * The owner of the new contract is the present contract.\r\n      *\r\n      * @param requestedAmount Requested funding amount in wei.\r\n      * @param repaymentsCount Requested repayments count.\r\n      * @param creditDescription The description of the funding.\r\n      * returns credit Return credit address.\r\n      */\r\n\r\n    function applyForCredit(uint requestedAmount, uint repaymentsCount, uint interest, bytes32 creditDescription) public returns(Credit _credit) {\r\n        // The user should not have been credited;\r\n        require(users[msg.sender].credited == false);\r\n\r\n        // THe user should not be marked as fraudlent.\r\n        require(users[msg.sender].fraudStatus == false);\r\n\r\n        // Assert there is no active credit for the user.\r\n        assert(address(users[msg.sender].activeCredit) == address(0));\r\n\r\n        // Mark the user as credited. Prevent from reentrancy.\r\n        users[msg.sender].credited = true;\r\n\r\n        // Create a new credit contract with the given parameters.\r\n        Credit credit = new Credit(requestedAmount, repaymentsCount, interest, creditDescription);\r\n\r\n        // Set the user's active credit contract.\r\n        users[msg.sender].activeCredit = credit;\r\n\r\n        // Add the credit contract to our list with contracts.\r\n        credits.push(credit);\r\n\r\n        // Add the credit to the user's profile.\r\n        users[msg.sender].allCredits.push(credit);\r\n\r\n        // Log the credit creation event.\r\n        emit LogCreditCreated(address(credit), msg.sender, block.timestamp);\r\n\r\n        // Return the address of the newly created credit contract.\r\n        return credit;\r\n    }\r\n\r\n    /** @dev Get the list with all credits.\r\n      * returns credits Returns list of credit addresses.\r\n      */\r\n    function getCredits() public view returns (Credit[] memory) {\r\n        return credits;\r\n    }\r\n\r\n    /** @dev Get all users credits.\r\n      * returns users[msg.sender].allCredits Return user credits.\r\n      */\r\n    function getUserCredits() public view returns (Credit[] memory) {\r\n        return users[msg.sender].allCredits;\r\n    }\r\n\r\n    /** @dev Sets user fraudlent status true.\r\n     * @param _borrower The user's address.\r\n     * returns users[_borrower].fraudStatus Boolean of the new fraud status.\r\n     */\r\n    function setFraudStatus(address _borrower) external returns (bool) {\r\n        // Update user fraud status.\r\n        users[_borrower].fraudStatus = true;\r\n\r\n        // Log fraud status.\r\n        emit LogUserSetFraud(_borrower, users[_borrower].fraudStatus, block.timestamp);\r\n\r\n        return users[_borrower].fraudStatus;\r\n    }\r\n\r\n    /** @dev Function to switch active state of a credit.\r\n      * @param _credit The credit's address.\r\n      * @param state New state.\r\n      */\r\n    function changeCreditState (Credit _credit, Credit.State state) public okOwner {\r\n        // Call credit contract changeStage.\r\n        Credit credit = Credit(_credit);\r\n        credit.changeState(state);\r\n\r\n        // Log state change.\r\n        emit LogCreditStateChanged(address(credit), state, block.timestamp);\r\n    }\r\n\r\n    /** @dev Function to toggle active state of credit contract.\r\n      * @param _credit The credit's address.\r\n      */\r\n    function changeCreditState (Credit _credit) public okOwner {\r\n        // Call credit contract toggleActive method.\r\n        Credit credit = Credit(_credit);\r\n        bool active = credit.toggleActive();\r\n\r\n        // Log state change.\r\n        emit LogCreditActiveChanged(address(credit), active, block.timestamp);\r\n    }\r\n}\r\n",
  "sourcePath": "/Volumes/My Book/projects/pingleware-contracts/contracts/finance/banking/PeerToPeerLending.sol",
  "compiler": {
    "name": "solc",
    "version": "0.8.18+commit.87f61d96.Emscripten.clang"
  },
  "schemaVersion": "3.4.12",
  "updatedAt": "2023-10-24T15:23:59.599Z",
  "networkType": "ethereum",
  "devdoc": {
    "events": {
      "LogCreditCreated(address,address,uint256)": {
        "details": "Events "
      }
    },
    "kind": "dev",
    "methods": {
      "applyForCredit(uint256,uint256,uint256,bytes32)": {
        "details": "Credit application function. The function publishesh another contract which is the credit contract. The owner of the new contract is the present contract.",
        "params": {
          "creditDescription": "The description of the funding. returns credit Return credit address.",
          "repaymentsCount": "Requested repayments count.",
          "requestedAmount": "Requested funding amount in wei."
        }
      },
      "changeCreditState(address)": {
        "details": "Function to toggle active state of credit contract.",
        "params": {
          "_credit": "The credit's address."
        }
      },
      "changeCreditState(address,uint8)": {
        "details": "Function to switch active state of a credit.",
        "params": {
          "_credit": "The credit's address.",
          "state": "New state."
        }
      },
      "constructor": {
        "details": "Constructor "
      },
      "getCredits()": {
        "details": "Get the list with all credits. returns credits Returns list of credit addresses."
      },
      "getUserCredits()": {
        "details": "Get all users credits. returns users[msg.sender].allCredits Return user credits."
      },
      "renounceOwnership()": {
        "details": "Leaves the contract without owner. It will not be possible to call `onlyOwner` functions anymore. Can only be called by the current owner. NOTE: Renouncing ownership will leave the contract without an owner, thereby removing any functionality that is only available to the owner."
      },
      "setFraudStatus(address)": {
        "details": "Sets user fraudlent status true.",
        "params": {
          "_borrower": "The user's address. returns users[_borrower].fraudStatus Boolean of the new fraud status."
        }
      },
      "transferOwnership(address)": {
        "details": "Transfers ownership of the contract to a new account (`newOwner`). Can only be called by the current owner."
      }
    },
    "version": 1
  },
  "userdoc": {
    "kind": "user",
    "methods": {},
    "version": 1
  }
}