{
  "contractName": "PersonalInfo",
  "abi": [
    {
      "inputs": [],
      "stateMutability": "nonpayable",
      "type": "constructor"
    },
    {
      "anonymous": false,
      "inputs": [
        {
          "indexed": false,
          "internalType": "address",
          "name": "sender",
          "type": "address"
        },
        {
          "indexed": false,
          "internalType": "address",
          "name": "recipient",
          "type": "address"
        }
      ],
      "name": "Destroyed",
      "type": "event"
    },
    {
      "anonymous": false,
      "inputs": [
        {
          "indexed": false,
          "internalType": "address",
          "name": "sender",
          "type": "address"
        },
        {
          "indexed": false,
          "internalType": "uint256",
          "name": "amount",
          "type": "uint256"
        }
      ],
      "name": "FallbackEvent",
      "type": "event"
    },
    {
      "anonymous": false,
      "inputs": [
        {
          "indexed": true,
          "internalType": "address",
          "name": "previousOwner",
          "type": "address"
        },
        {
          "indexed": true,
          "internalType": "address",
          "name": "newOwner",
          "type": "address"
        }
      ],
      "name": "OwnershipTransferred",
      "type": "event"
    },
    {
      "anonymous": false,
      "inputs": [
        {
          "indexed": false,
          "internalType": "address",
          "name": "sender",
          "type": "address"
        },
        {
          "indexed": false,
          "internalType": "uint256",
          "name": "amount",
          "type": "uint256"
        }
      ],
      "name": "ReceiveEvent",
      "type": "event"
    },
    {
      "anonymous": false,
      "inputs": [
        {
          "indexed": false,
          "internalType": "address",
          "name": "sender",
          "type": "address"
        },
        {
          "indexed": false,
          "internalType": "bytes",
          "name": "reason",
          "type": "bytes"
        }
      ],
      "name": "Started",
      "type": "event"
    },
    {
      "anonymous": false,
      "inputs": [
        {
          "indexed": false,
          "internalType": "address",
          "name": "sender",
          "type": "address"
        },
        {
          "indexed": false,
          "internalType": "bytes",
          "name": "reason",
          "type": "bytes"
        }
      ],
      "name": "Stopped",
      "type": "event"
    },
    {
      "anonymous": false,
      "inputs": [
        {
          "indexed": false,
          "internalType": "address",
          "name": "sender",
          "type": "address"
        },
        {
          "indexed": false,
          "internalType": "string",
          "name": "reason",
          "type": "string"
        }
      ],
      "name": "Termination",
      "type": "event"
    },
    {
      "stateMutability": "payable",
      "type": "fallback",
      "payable": true
    },
    {
      "inputs": [],
      "name": "DEFAULT_ADMIN_ROLE",
      "outputs": [
        {
          "internalType": "string",
          "name": "",
          "type": "string"
        }
      ],
      "stateMutability": "view",
      "type": "function",
      "constant": true
    },
    {
      "inputs": [],
      "name": "PATIENT_ROLE",
      "outputs": [
        {
          "internalType": "string",
          "name": "",
          "type": "string"
        }
      ],
      "stateMutability": "view",
      "type": "function",
      "constant": true
    },
    {
      "inputs": [],
      "name": "VERSION",
      "outputs": [
        {
          "internalType": "string",
          "name": "",
          "type": "string"
        }
      ],
      "stateMutability": "view",
      "type": "function",
      "constant": true
    },
    {
      "inputs": [],
      "name": "WAIT",
      "outputs": [
        {
          "internalType": "uint256",
          "name": "",
          "type": "uint256"
        }
      ],
      "stateMutability": "view",
      "type": "function",
      "constant": true
    },
    {
      "inputs": [],
      "name": "destroy",
      "outputs": [],
      "stateMutability": "nonpayable",
      "type": "function"
    },
    {
      "inputs": [
        {
          "internalType": "address",
          "name": "_recipient",
          "type": "address"
        }
      ],
      "name": "destroyAndSend",
      "outputs": [],
      "stateMutability": "nonpayable",
      "type": "function"
    },
    {
      "inputs": [],
      "name": "getOwner",
      "outputs": [
        {
          "internalType": "address",
          "name": "",
          "type": "address"
        }
      ],
      "stateMutability": "payable",
      "type": "function",
      "payable": true
    },
    {
      "inputs": [],
      "name": "recordCount",
      "outputs": [
        {
          "internalType": "uint256",
          "name": "",
          "type": "uint256"
        }
      ],
      "stateMutability": "view",
      "type": "function",
      "constant": true
    },
    {
      "inputs": [
        {
          "internalType": "uint256",
          "name": "",
          "type": "uint256"
        }
      ],
      "name": "records",
      "outputs": [
        {
          "internalType": "uint256",
          "name": "id",
          "type": "uint256"
        },
        {
          "internalType": "uint256",
          "name": "SpO2",
          "type": "uint256"
        },
        {
          "internalType": "uint256",
          "name": "HR",
          "type": "uint256"
        },
        {
          "internalType": "uint256",
          "name": "Systolic",
          "type": "uint256"
        },
        {
          "internalType": "uint256",
          "name": "Diastolic",
          "type": "uint256"
        },
        {
          "internalType": "address",
          "name": "owner",
          "type": "address"
        },
        {
          "internalType": "uint256",
          "name": "timestamp",
          "type": "uint256"
        }
      ],
      "stateMutability": "view",
      "type": "function",
      "constant": true
    },
    {
      "inputs": [],
      "name": "renounceOwnership",
      "outputs": [],
      "stateMutability": "payable",
      "type": "function",
      "payable": true
    },
    {
      "inputs": [
        {
          "internalType": "address",
          "name": "newOwner",
          "type": "address"
        }
      ],
      "name": "transferOwnership",
      "outputs": [],
      "stateMutability": "payable",
      "type": "function",
      "payable": true
    },
    {
      "stateMutability": "payable",
      "type": "receive",
      "payable": true
    },
    {
      "inputs": [
        {
          "internalType": "address",
          "name": "account",
          "type": "address"
        }
      ],
      "name": "isAdmin",
      "outputs": [
        {
          "internalType": "bool",
          "name": "",
          "type": "bool"
        }
      ],
      "stateMutability": "nonpayable",
      "type": "function"
    },
    {
      "inputs": [
        {
          "internalType": "address",
          "name": "account",
          "type": "address"
        }
      ],
      "name": "isPatient",
      "outputs": [
        {
          "internalType": "bool",
          "name": "",
          "type": "bool"
        }
      ],
      "stateMutability": "nonpayable",
      "type": "function"
    },
    {
      "inputs": [
        {
          "internalType": "address",
          "name": "account",
          "type": "address"
        }
      ],
      "name": "addPatient",
      "outputs": [],
      "stateMutability": "nonpayable",
      "type": "function"
    },
    {
      "inputs": [
        {
          "internalType": "address",
          "name": "account",
          "type": "address"
        }
      ],
      "name": "addAdmin",
      "outputs": [],
      "stateMutability": "nonpayable",
      "type": "function"
    },
    {
      "inputs": [
        {
          "internalType": "address",
          "name": "account",
          "type": "address"
        }
      ],
      "name": "removePatient",
      "outputs": [],
      "stateMutability": "nonpayable",
      "type": "function"
    },
    {
      "inputs": [],
      "name": "renounceAdmin",
      "outputs": [],
      "stateMutability": "nonpayable",
      "type": "function"
    },
    {
      "inputs": [
        {
          "internalType": "uint256",
          "name": "_timestamp",
          "type": "uint256"
        },
        {
          "internalType": "uint256",
          "name": "_spO2",
          "type": "uint256"
        },
        {
          "internalType": "uint256",
          "name": "_hr",
          "type": "uint256"
        },
        {
          "internalType": "uint256",
          "name": "_systolic",
          "type": "uint256"
        },
        {
          "internalType": "uint256",
          "name": "_diastolic",
          "type": "uint256"
        }
      ],
      "name": "createRecord",
      "outputs": [],
      "stateMutability": "nonpayable",
      "type": "function"
    },
    {
      "inputs": [
        {
          "internalType": "uint256",
          "name": "_id",
          "type": "uint256"
        }
      ],
      "name": "getRecord",
      "outputs": [
        {
          "internalType": "uint256",
          "name": "",
          "type": "uint256"
        },
        {
          "internalType": "uint256",
          "name": "",
          "type": "uint256"
        },
        {
          "internalType": "uint256",
          "name": "",
          "type": "uint256"
        },
        {
          "internalType": "uint256",
          "name": "",
          "type": "uint256"
        },
        {
          "internalType": "uint256",
          "name": "",
          "type": "uint256"
        },
        {
          "internalType": "address",
          "name": "",
          "type": "address"
        },
        {
          "internalType": "uint256",
          "name": "",
          "type": "uint256"
        }
      ],
      "stateMutability": "view",
      "type": "function",
      "constant": true
    }
  ],
  "bytecode": "0x6080604052600060018190556003805460ff1916905560045534801561002457600080fd5b5060008054600160a060020a031916339081178255426001556040519091907f8be0079c531659141344cd1fd0a4f28419497f9722a3daafe3b4186f6b6457e0908290a373__User__________________________________63455c928c6040518163ffffffff167c010000000000000000000000000000000000000000000000000000000002815260040160006040518083038186803b1580156100c857600080fd5b505af41580156100dc573d6000803e3d6000fd5b50505050610f0e806100ef6000396000f3fe6080604052600436106100eb5760e060020a600035046303e9e60981146101b25780630e7272b31461028c57806324d7806c146102ae57806334461067146102de5780636d263ceb146103405780637048027514610360578063715018a6146103805780637d0d62571461038857806383197ef0146103a8578063893d20e8146103bd5780638bad0c0a146103dd5780638f9c79ed146103f2578063900407bc14610412578063a217fddf14610436578063ac5cb97d14610481578063b8fb3a51146104b8578063f2fde38b146104cd578063f5074f41146104e0578063ffa1ad74146105005761012b565b3661012b577fcc85d09d309785db93d6df19917f2e6cc07fe27cd01c08c8279145deb5cf45263334604051610121929190610c0b565b60405180910390a1005b3233146101815760405160e560020a62461bcd0281526020600482015260196024820152603860020a787068697368696e672061747461636b2064657465637465643f0260448201526064015b60405180910390fd5b7f26875833861a2b006512a11f1b86edf95df96131040f3caeed72989ee98580833334604051610121929190610c0b565b3480156101be57600080fd5b506102496101cd366004610c24565b600090815260056020818152604092839020835160e08101855281548082526001830154938201849052600283015495820186905260038301546060830181905260048401546080840181905295840154600160a060020a031660a0840181905260069094015460c09093018390529096939594909390929190565b6040805197885260208801969096529486019390935260608501919091526080840152600160a060020a031660a083015260c082015260e0015b60405180910390f35b34801561029857600080fd5b506102ac6102a7366004610c3d565b610539565b005b3480156102ba57600080fd5b506102ce6102c9366004610c78565b61063c565b6040519015158152602001610283565b3480156102ea57600080fd5b506102496102f9366004610c24565b60056020819052600091825260409091208054600182015460028301546003840154600485015495850154600690950154939592949193909291600160a060020a03169087565b34801561034c57600080fd5b506102ac61035b366004610c78565b6106e7565b34801561036c57600080fd5b506102ac61037b366004610c78565b61079d565b6102ac610827565b34801561039457600080fd5b506102ac6103a3366004610c78565b61088c565b3480156103b457600080fd5b506102ac61090f565b6103c561096c565b604051600160a060020a039091168152602001610283565b3480156103e957600080fd5b506102ac6109e2565b3480156103fe57600080fd5b506102ce61040d366004610c78565b610a76565b34801561041e57600080fd5b5061042860045481565b604051908152602001610283565b34801561044257600080fd5b506104746040518060400160405280600f8152602001608860020a6e41444d494e5f524f4c4539383736350281525081565b6040516102839190610cee565b34801561048d57600080fd5b50610474604051806040016040528060118152602001600080516020610e9983398151915281525081565b3480156104c457600080fd5b50610428601e81565b6102ac6104db366004610c78565b610ad3565b3480156104ec57600080fd5b506102ac6104fb366004610c78565b610bb4565b34801561050c57600080fd5b506104746040518060400160405280600a815260200160b060020a69312e362e342d626574610281525081565b61054233610a76565b61058d5760405160e560020a62461bcd0281526020600482015260166024820152605160020a752932b9ba3934b1ba32b2103a37903830ba34b2b73a17026044820152606401610178565b6004805490600061059d83610d1b565b90915550506040805160e08101825260048054808352602080840198895283850197885260608401968752608084019586523360a0850190815260c085019a8b526000928352600591829052949091209251835596516001830155945160028201559251600384015590519282019290925590519181018054600160a060020a031916600160a060020a03909316929092179091559051600690910155565b604080518082018252600f8152608860020a6e41444d494e5f524f4c453938373635026020820152905160e060020a636c9cd09702815260009173__User__________________________________91636c9cd097916106a0918690600401610d34565b602060405180830381865af41580156106bd573d6000803e3d6000fd5b505050506040513d601f19601f820116820180604052508101906106e19190610d5f565b92915050565b6106f03361063c565b61070f5760405160e560020a62461bcd02815260040161017890610d81565b60408051808201825260118152600080516020610e998339815191526020820152905160e060020a63c19ae2ed02815273__User__________________________________9163c19ae2ed9161076a91908590600401610d34565b60006040518083038186803b15801561078257600080fd5b505af4158015610796573d6000803e3d6000fd5b5050505050565b6107a63361063c565b6107c55760405160e560020a62461bcd02815260040161017890610d81565b604080518082018252600f8152608860020a6e41444d494e5f524f4c453938373635026020820152905160e060020a63c19ae2ed02815273__User__________________________________9163c19ae2ed9161076a91908590600401610d34565b600054600160a060020a031633146108545760405160e560020a62461bcd02815260040161017890610db3565b60008054604051600160a060020a0390911690600080516020610eb9833981519152908390a360008054600160a060020a0319169055565b6108953361063c565b6108b45760405160e560020a62461bcd02815260040161017890610d81565b60408051808201825260118152600080516020610e998339815191526020820152905160e560020a630398f90d02815273__User__________________________________9163731f21a09161076a91908590600401610d34565b600054600160a060020a0316331461093c5760405160e560020a62461bcd02815260040161017890610de7565b600080516020610e798339815191523361095461096c565b604051610962929190610e1e565b60405180910390a1565b6000601e60015461097d9190610e38565b421161099e5760405160e560020a62461bcd02815260040161017890610e4b565b601e6001546109ad9190610e38565b42116109ce5760405160e560020a62461bcd02815260040161017890610e4b565b5042600155600054600160a060020a031690565b604080518082018252600f8152608860020a6e41444d494e5f524f4c453938373635026020820152905160e060020a63a1e6ab9f02815273__User__________________________________9163a1e6ab9f91610a4491903390600401610d34565b60006040518083038186803b158015610a5c57600080fd5b505af4158015610a70573d6000803e3d6000fd5b50505050565b60408051808201825260118152600080516020610e998339815191526020820152905160e060020a636c9cd09702815260009173__User__________________________________91636c9cd097916106a0918690600401610d34565b600054600160a060020a03163314610b005760405160e560020a62461bcd02815260040161017890610db3565b600160a060020a038116610b6b5760405160e560020a62461bcd02815260206004820152602660248201527f4f776e61626c653a206e6577206f776e657220697320746865207a65726f2061604482015260d060020a65646472657373026064820152608401610178565b60008054604051600160a060020a0380851693921691600080516020610eb983398151915291a360008054600160a060020a031916600160a060020a0392909216919091179055565b600054600160a060020a03163314610be15760405160e560020a62461bcd02815260040161017890610de7565b600080516020610e798339815191523382604051610c00929190610e1e565b60405180910390a150565b600160a060020a03929092168252602082015260400190565b600060208284031215610c3657600080fd5b5035919050565b600080600080600060a08688031215610c5557600080fd5b505083359560208501359550604085013594606081013594506080013592509050565b600060208284031215610c8a57600080fd5b8135600160a060020a0381168114610ca157600080fd5b9392505050565b6000815180845260005b81811015610cce57602081850181015186830182015201610cb2565b506000602082860101526020601f19601f83011685010191505092915050565b602081526000610ca16020830184610ca8565b60e060020a634e487b710260009081526011600452602490fd5b600060018201610d2d57610d2d610d01565b5060010190565b604081526000610d476040830185610ca8565b9050600160a060020a03831660208301529392505050565b600060208284031215610d7157600080fd5b81518015158114610ca157600080fd5b6020808252601590820152605960020a742932b9ba3934b1ba32b2103a379030b236b4b7399702604082015260600190565b6020808252601790820152604960020a7630b1b1b2b9b9903232b734b2b2103337b91037bbb732b902604082015260600190565b6020808252601b908201527f756e617574686f72697a65642c206e6f7420746865206f776e65720000000000604082015260600190565b600160a060020a0392831681529116602082015260400190565b808201808211156106e1576106e1610d01565b6020808252601090820152608160020a6f3930ba32903634b6b4ba1032b93937b90260408201526060019056fe91ca00fdf29069527d658f8dfc6d1c0bf9861780bb45ff36436f938d3595a8d650415449454e545f524f4c4539383736350000000000000000000000000000008be0079c531659141344cd1fd0a4f28419497f9722a3daafe3b4186f6b6457e0a2646970667358221220fabc932f19336baa277b6d167b1d899677b521d6e9251c886d0a17e4fdd64c8a64736f6c63430008120033",
  "immutableReferences": {},
  "source": "\r\n// SPDX-License-Identifier: CC-BY-4.0\r\npragma solidity >=0.4.22 <0.9.0;\r\n\r\n// See https://github.com/luigidarco96/HealthcareEnabledBlockchain\r\n\r\n\r\n\r\nimport \"../common/Version.sol\";\r\nimport \"../common/Frozen.sol\";\r\nimport \"../libs/User.sol\";\r\nimport \"../libs/StringUtils.sol\";\r\n\r\ncontract PersonalInfo is Version, Frozen {\r\n\r\n    string public constant DEFAULT_ADMIN_ROLE = string(\"ADMIN_ROLE98765\");\r\n    string public constant PATIENT_ROLE = string(\"PATIENT_ROLE98765\");\r\n\r\n    // Record count\r\n    uint public recordCount = 0;\r\n\r\n    struct Record {\r\n        uint id;\r\n        uint SpO2; // blood oxygenation\r\n        uint HR; // heart rate\r\n        uint Systolic; // blood pressure - systolic\r\n        uint Diastolic; // blood pressure = diastolic\r\n        address owner; // owner's address, patient\r\n        uint256 timestamp;\r\n    }\r\n\r\n    // List of records\r\n    mapping(uint => Record) public records;\r\n\r\n    constructor()\r\n    {\r\n        User.addUser();\r\n        //User.updateUserMeta(\"\", \"\", \"\", \"\", \"\", DEFAULT_ADMIN_ROLE);\r\n        //User.updateUserMeta(\"\", \"\", \"\", \"\", \"\", PATIENT_ROLE);\r\n    }\r\n\r\n    // Return `true` if the account belongs to the admin role.\r\n    function isAdmin(address account)\r\n        public\r\n        virtual\r\n        returns (bool)\r\n    {\r\n        return User.hasRole(DEFAULT_ADMIN_ROLE, account);\r\n    }\r\n\r\n    // Return `true` if the account belongs to the patient role.\r\n    function isPatient(address account)\r\n        public\r\n        virtual\r\n        returns (bool)\r\n    {\r\n        return User.hasRole(PATIENT_ROLE, account);\r\n    }\r\n\r\n    // Restricted to members of the admin role.\r\n    modifier onlyAdmin() {\r\n        require(isAdmin(msg.sender), \"Restricted to admins.\");\r\n        _;\r\n    }\r\n\r\n    // Restricted to members of the patient role.\r\n    modifier onlyPatient() {\r\n        require(isPatient(msg.sender), \"Restricted to patient.\");\r\n        _;\r\n    }\r\n\r\n    // Add an account to the user role. Restricted to admins.\r\n    function addPatient(address account)\r\n        public\r\n        virtual\r\n        onlyAdmin\r\n    {\r\n        User.grantRole(PATIENT_ROLE, account);\r\n    }\r\n\r\n    // Add an account to the admin role. Restricted to admins.\r\n    function addAdmin(address account)\r\n        public\r\n        virtual\r\n        onlyAdmin\r\n    {\r\n        User.grantRole(DEFAULT_ADMIN_ROLE, account);\r\n    }\r\n\r\n    // Remove an account from the patient role. Restricted to admins.\r\n    function removePatient(address account)\r\n        public\r\n        virtual\r\n        onlyAdmin\r\n    {\r\n        User.revokeRole(PATIENT_ROLE, account);\r\n    }\r\n\r\n    // Remove oneself from the admin role.\r\n    function renounceAdmin()\r\n        public\r\n        virtual\r\n    {\r\n        User.renounceRole(DEFAULT_ADMIN_ROLE, msg.sender);\r\n    }\r\n\r\n    // Insert a record in the list\r\n    function createRecord(uint256 _timestamp, uint _spO2, uint _hr, uint _systolic, uint _diastolic)\r\n        public\r\n        virtual\r\n        onlyPatient\r\n    {\r\n        recordCount++;\r\n        records[recordCount] = Record(recordCount, _spO2, _hr, _systolic, _diastolic, msg.sender, _timestamp);\r\n    }\r\n\r\n    // Read a record from the list\r\n    function getRecord(uint _id)\r\n        public\r\n        view\r\n        returns (uint, uint, uint, uint, uint, address, uint256)\r\n    {\r\n        Record memory currentRecord = records[_id];\r\n        return (currentRecord.id,\r\n                currentRecord.SpO2,\r\n                currentRecord.HR,\r\n                currentRecord.Systolic,\r\n                currentRecord.Diastolic,\r\n                currentRecord.owner,\r\n                currentRecord.timestamp);\r\n    }\r\n}",
  "sourcePath": "/Volumes/My Book/projects/pingleware-contracts/contracts/healthcare/PersonalInfo.sol",
  "compiler": {
    "name": "solc",
    "version": "0.8.18+commit.87f61d96.Emscripten.clang"
  },
  "schemaVersion": "3.4.12",
  "updatedAt": "2023-10-24T18:58:33.150Z",
  "networkType": "ethereum",
  "devdoc": {
    "kind": "dev",
    "methods": {
      "renounceOwnership()": {
        "details": "Leaves the contract without owner. It will not be possible to call `onlyOwner` functions anymore. Can only be called by the current owner. NOTE: Renouncing ownership will leave the contract without an owner, thereby removing any functionality that is only available to the owner."
      },
      "transferOwnership(address)": {
        "details": "Transfers ownership of the contract to a new account (`newOwner`). Can only be called by the current owner."
      }
    },
    "version": 1
  },
  "userdoc": {
    "kind": "user",
    "methods": {},
    "version": 1
  }
}