{
  "contractName": "PersonalInfo",
  "abi": [
    {
      "inputs": [],
      "stateMutability": "nonpayable",
      "type": "constructor"
    },
    {
      "anonymous": false,
      "inputs": [
        {
          "indexed": false,
          "internalType": "address",
          "name": "sender",
          "type": "address"
        },
        {
          "indexed": false,
          "internalType": "address",
          "name": "recipient",
          "type": "address"
        }
      ],
      "name": "Destroyed",
      "type": "event"
    },
    {
      "anonymous": false,
      "inputs": [
        {
          "indexed": false,
          "internalType": "address",
          "name": "sender",
          "type": "address"
        },
        {
          "indexed": false,
          "internalType": "uint256",
          "name": "amount",
          "type": "uint256"
        }
      ],
      "name": "FallbackEvent",
      "type": "event"
    },
    {
      "anonymous": false,
      "inputs": [
        {
          "indexed": true,
          "internalType": "address",
          "name": "previousOwner",
          "type": "address"
        },
        {
          "indexed": true,
          "internalType": "address",
          "name": "newOwner",
          "type": "address"
        }
      ],
      "name": "OwnershipTransferred",
      "type": "event"
    },
    {
      "anonymous": false,
      "inputs": [
        {
          "indexed": false,
          "internalType": "address",
          "name": "sender",
          "type": "address"
        },
        {
          "indexed": false,
          "internalType": "uint256",
          "name": "amount",
          "type": "uint256"
        }
      ],
      "name": "ReceiveEvent",
      "type": "event"
    },
    {
      "anonymous": false,
      "inputs": [
        {
          "indexed": false,
          "internalType": "address",
          "name": "sender",
          "type": "address"
        },
        {
          "indexed": false,
          "internalType": "bytes",
          "name": "reason",
          "type": "bytes"
        }
      ],
      "name": "Started",
      "type": "event"
    },
    {
      "anonymous": false,
      "inputs": [
        {
          "indexed": false,
          "internalType": "address",
          "name": "sender",
          "type": "address"
        },
        {
          "indexed": false,
          "internalType": "bytes",
          "name": "reason",
          "type": "bytes"
        }
      ],
      "name": "Stopped",
      "type": "event"
    },
    {
      "anonymous": false,
      "inputs": [
        {
          "indexed": false,
          "internalType": "address",
          "name": "sender",
          "type": "address"
        },
        {
          "indexed": false,
          "internalType": "string",
          "name": "reason",
          "type": "string"
        }
      ],
      "name": "Termination",
      "type": "event"
    },
    {
      "stateMutability": "payable",
      "type": "fallback"
    },
    {
      "inputs": [],
      "name": "DEFAULT_ADMIN_ROLE",
      "outputs": [
        {
          "internalType": "string",
          "name": "",
          "type": "string"
        }
      ],
      "stateMutability": "view",
      "type": "function"
    },
    {
      "inputs": [],
      "name": "PATIENT_ROLE",
      "outputs": [
        {
          "internalType": "string",
          "name": "",
          "type": "string"
        }
      ],
      "stateMutability": "view",
      "type": "function"
    },
    {
      "inputs": [],
      "name": "VERSION",
      "outputs": [
        {
          "internalType": "string",
          "name": "",
          "type": "string"
        }
      ],
      "stateMutability": "view",
      "type": "function"
    },
    {
      "inputs": [],
      "name": "WAIT",
      "outputs": [
        {
          "internalType": "uint256",
          "name": "",
          "type": "uint256"
        }
      ],
      "stateMutability": "view",
      "type": "function"
    },
    {
      "inputs": [],
      "name": "destroy",
      "outputs": [],
      "stateMutability": "nonpayable",
      "type": "function"
    },
    {
      "inputs": [
        {
          "internalType": "address",
          "name": "_recipient",
          "type": "address"
        }
      ],
      "name": "destroyAndSend",
      "outputs": [],
      "stateMutability": "nonpayable",
      "type": "function"
    },
    {
      "inputs": [],
      "name": "getOwner",
      "outputs": [
        {
          "internalType": "address",
          "name": "",
          "type": "address"
        }
      ],
      "stateMutability": "payable",
      "type": "function"
    },
    {
      "inputs": [],
      "name": "recordCount",
      "outputs": [
        {
          "internalType": "uint256",
          "name": "",
          "type": "uint256"
        }
      ],
      "stateMutability": "view",
      "type": "function"
    },
    {
      "inputs": [
        {
          "internalType": "uint256",
          "name": "",
          "type": "uint256"
        }
      ],
      "name": "records",
      "outputs": [
        {
          "internalType": "uint256",
          "name": "id",
          "type": "uint256"
        },
        {
          "internalType": "uint256",
          "name": "SpO2",
          "type": "uint256"
        },
        {
          "internalType": "uint256",
          "name": "HR",
          "type": "uint256"
        },
        {
          "internalType": "uint256",
          "name": "Systolic",
          "type": "uint256"
        },
        {
          "internalType": "uint256",
          "name": "Diastolic",
          "type": "uint256"
        },
        {
          "internalType": "address",
          "name": "owner",
          "type": "address"
        },
        {
          "internalType": "uint256",
          "name": "timestamp",
          "type": "uint256"
        }
      ],
      "stateMutability": "view",
      "type": "function"
    },
    {
      "inputs": [],
      "name": "renounceOwnership",
      "outputs": [],
      "stateMutability": "payable",
      "type": "function"
    },
    {
      "inputs": [
        {
          "internalType": "address",
          "name": "newOwner",
          "type": "address"
        }
      ],
      "name": "transferOwnership",
      "outputs": [],
      "stateMutability": "payable",
      "type": "function"
    },
    {
      "stateMutability": "payable",
      "type": "receive"
    },
    {
      "inputs": [
        {
          "internalType": "address",
          "name": "account",
          "type": "address"
        }
      ],
      "name": "isAdmin",
      "outputs": [
        {
          "internalType": "bool",
          "name": "",
          "type": "bool"
        }
      ],
      "stateMutability": "nonpayable",
      "type": "function"
    },
    {
      "inputs": [
        {
          "internalType": "address",
          "name": "account",
          "type": "address"
        }
      ],
      "name": "isPatient",
      "outputs": [
        {
          "internalType": "bool",
          "name": "",
          "type": "bool"
        }
      ],
      "stateMutability": "nonpayable",
      "type": "function"
    },
    {
      "inputs": [
        {
          "internalType": "address",
          "name": "account",
          "type": "address"
        }
      ],
      "name": "addPatient",
      "outputs": [],
      "stateMutability": "nonpayable",
      "type": "function"
    },
    {
      "inputs": [
        {
          "internalType": "address",
          "name": "account",
          "type": "address"
        }
      ],
      "name": "addAdmin",
      "outputs": [],
      "stateMutability": "nonpayable",
      "type": "function"
    },
    {
      "inputs": [
        {
          "internalType": "address",
          "name": "account",
          "type": "address"
        }
      ],
      "name": "removePatient",
      "outputs": [],
      "stateMutability": "nonpayable",
      "type": "function"
    },
    {
      "inputs": [],
      "name": "renounceAdmin",
      "outputs": [],
      "stateMutability": "nonpayable",
      "type": "function"
    },
    {
      "inputs": [
        {
          "internalType": "uint256",
          "name": "_timestamp",
          "type": "uint256"
        },
        {
          "internalType": "uint256",
          "name": "_spO2",
          "type": "uint256"
        },
        {
          "internalType": "uint256",
          "name": "_hr",
          "type": "uint256"
        },
        {
          "internalType": "uint256",
          "name": "_systolic",
          "type": "uint256"
        },
        {
          "internalType": "uint256",
          "name": "_diastolic",
          "type": "uint256"
        }
      ],
      "name": "createRecord",
      "outputs": [],
      "stateMutability": "nonpayable",
      "type": "function"
    },
    {
      "inputs": [
        {
          "internalType": "uint256",
          "name": "_id",
          "type": "uint256"
        }
      ],
      "name": "getRecord",
      "outputs": [
        {
          "internalType": "uint256",
          "name": "",
          "type": "uint256"
        },
        {
          "internalType": "uint256",
          "name": "",
          "type": "uint256"
        },
        {
          "internalType": "uint256",
          "name": "",
          "type": "uint256"
        },
        {
          "internalType": "uint256",
          "name": "",
          "type": "uint256"
        },
        {
          "internalType": "uint256",
          "name": "",
          "type": "uint256"
        },
        {
          "internalType": "address",
          "name": "",
          "type": "address"
        },
        {
          "internalType": "uint256",
          "name": "",
          "type": "uint256"
        }
      ],
      "stateMutability": "view",
      "type": "function"
    }
  ],
  "bytecode": "0x6080806040523461010e5760008054600160a060020a03191633908117825542600155817f8be0079c531659141344cd1fd0a4f28419497f9722a3daafe3b4186f6b6457e08180a360ff19600354166003558060045573__User__________________________________803b1561010a578260048184937f455c928c0000000000000000000000000000000000000000000000000000000082525af480156100fd576100b6575b604051610e6790816101148239f35b67ffffffffffffffff82116100d0575060405238806100a7565b807f4e487b7100000000000000000000000000000000000000000000000000000000602492526041600452fd5b50604051903d90823e3d90fd5b5080fd5b600080fdfe6080604090808252600490813610156100c8575b50361561009957333203610055577f26875833861a2b006512a11f1b86edf95df96131040f3caeed72989ee9858083825180610050343383610be4565b0390a1005b6020606492519160e560020a62461bcd02835282015260196024820152603860020a787068697368696e672061747461636b2064657465637465643f026044820152fd5b7fcc85d09d309785db93d6df19917f2e6cc07fe27cd01c08c8279145deb5cf4526825180610050343383610be4565b60009060e060020a823504906303e9e6098214610964575080630e7272b31461084557806324d7806c1461081357806334461067146107995780636d263ceb146106e55780637048027514610645578063715018a6146106005780637d0d62571461055957806383197ef01461050b578063893d20e8146104e25780638bad0c0a146104325780638f9c79ed146103f4578063900407bc146103d5578063a217fddf14610383578063ac5cb97d14610338578063b8fb3a511461031c578063f2fde38b1461025a578063f5074f41146101f95763ffa1ad74036100135782346101f557816003193601126101f55780516101f1916101c582610a69565b600a825260b060020a69312e362e342d6265746102602083015251918291602083526020830190610aa7565b0390f35b5080fd5b5091903461025657602036600319011261025657600160a060020a039035818116810361025257600080516020610dd28339815191529261024161024c938654163314610ae7565b519182913383610b36565b0390a180f35b8380fd5b8280fd5b509190602036600319011261025657600160a060020a0381358181169391929084900361031857845492831691610292833314610bff565b84156102be5750508290600080516020610e128339815191528580a3600160a060020a03191617815580f35b5160e560020a62461bcd028152602091810191909152602660248201527f4f776e61626c653a206e6577206f776e657220697320746865207a65726f2061604482015260d060020a65646472657373026064820152608490fd5b8480fd5b5082346101f557816003193601126101f55760209051601e8152f35b5082346101f557816003193601126101f55780516101f19161035982610a69565b60118252600080516020610df2833981519152602083015251918291602083526020830190610aa7565b5082346101f557816003193601126101f55780516101f1916103a482610a69565b600f8252608860020a6e41444d494e5f524f4c45393837363502602083015251918291602083526020830190610aa7565b5091903461025657826003193601126102565760209250549051908152f35b50919034610256576020366003190112610256573591600160a060020a038316830361042f5750610426602092610d40565b90519015158152f35b80fd5b50809183346104de57826003193601126104de57805173__User__________________________________9261046782610a69565b600f8252608860020a6e41444d494e5f524f4c453938373635026020830152833b1561031857825160e060020a63a1e6ab9f0281529385928592839182916104b29133918401610c68565b03915af49081156104d557506104c55750f35b6104ce90610a56565b61042f5780f35b513d84823e3d90fd5b5050fd5b5082816003193601126101f5576020906104fa610b95565b9051600160a060020a039091168152f35b5082346101f557816003193601126101f55761024c600080516020610dd283398151915291610545600160a060020a038554163314610ae7565b61054d610b95565b90519182913383610b36565b50809183346104de5760203660031901126104de57813591600160a060020a03831683036105fb5761059261058d33610c90565b610d87565b81519273__User__________________________________6105b385610a69565b60118552600080516020610df28339815191526020860152803b156105f757835160e560020a630398f90d0281529486938693849283926104b29291908401610c68565b8580fd5b505050fd5b508060031936011261042f57805481600160a060020a038216610624338214610bff565b600080516020610e128339815191528280a3600160a060020a031916815580f35b50809183346104de5760203660031901126104de57813591600160a060020a03831683036105fb5761067961058d33610c90565b81519273__User__________________________________61069a85610a69565b600f8552608860020a6e41444d494e5f524f4c453938373635026020860152803b156105f757835160e060020a63c19ae2ed0281529486938693849283926104b29291908401610c68565b50913461025657602036600319011261025657828235600160a060020a03811681036101f55761071761058d33610c90565b73__User__________________________________835161073781610a69565b60118152600080516020610df28339815191526020820152813b1561025257845160e060020a63c19ae2ed028152958693849283926107799291908401610c68565b03915af49081156104d5575061078d575080f35b61079690610a56565b80f35b5082903461042f57602036600319011261042f5782358152600560208181529183902080546001820154600283015460038401549784015494840154600690940154965192835294820152604081019390935260608301949094526080820152600160a060020a0390921660a083015260c082015260e090f35b50919034610256576020366003190112610256573591600160a060020a038316830361042f5750610426602092610c90565b5091346102565760a03660031901126102565761086133610d40565b15610920578154600019811461090a576001018083558151926006929061088785610a21565b8285526020850160243581528286016044358152606087019060643582526080880192608435845260a089019533875260c08a0197863589528b5260056020528a209851895551600189015551600288015551600387015551908501556005840190600160a060020a03905116600160a060020a03198254161790555191015580f35b60e060020a634e487b7102845260118352602484fd5b5160e560020a62461bcd02815260209181019190915260166024820152605160020a752932b9ba3934b1ba32b2103a37903830ba34b2b73a17026044820152606490fd5b9190503461042f57602036600319011261042f576101f1918460c092853581526005602052209061099481610a21565b8154948582526001830154968760208401526002840154908181850152600385015492836060860152850154938460808201526006600160a060020a03600588015416968760a084015201549687910152519788978893909796959260c0959260e086019986526020860152604085015260608401526080830152600160a060020a031660a08201520152565b60e081019081106001604060020a03821117610a3c57604052565b60e060020a634e487b710260009081526041600452602490fd5b6001604060020a038111610a3c57604052565b604081019081106001604060020a03821117610a3c57604052565b601f909101601f19168101906001604060020a03821190821017610a3c57604052565b919082519283825260005b848110610ad3575050826000602080949584010152601f8019910116010190565b602081830181015184830182015201610ab2565b15610aee57565b60405160e560020a62461bcd02815260206004820152601b60248201527f756e617574686f72697a65642c206e6f7420746865206f776e657200000000006044820152606490fd5b600160a060020a0391821681529116602082015260400190565b15610b5757565b60405160e560020a62461bcd0281526020600482015260106024820152608160020a6f3930ba32903634b6b4ba1032b93937b9026044820152606490fd5b600154601e8101809111610bca57610bb7904211610bb281610b50565b610b50565b42600155600054600160a060020a031690565b60e060020a634e487b710260009081526011600452602490fd5b600160a060020a039091168152602081019190915260400190565b15610c0657565b60405160e560020a62461bcd0281526020600482015260176024820152604960020a7630b1b1b2b9b9903232b734b2b2103337b91037bbb732b9026044820152606490fd5b90816020910312610c6357518015158103610c635790565b600080fd5b90610c80602091949394604084526040840190610aa7565b600160a060020a03909416910152565b6020610cde91604051610ca281610a69565b600f8152608860020a6e41444d494e5f524f4c453938373635028382015260405160e060020a636c9cd097028152938492839260048401610c68565b038173__User__________________________________5af4908115610d3457600091610d09575090565b610d2a915060203d8111610d2d575b610d228183610a84565b810190610c4b565b90565b503d610d18565b6040513d6000823e3d90fd5b6020610cde91604051610d5281610a69565b60118152600080516020610df28339815191528382015260405160e060020a636c9cd097028152938492839260048401610c68565b15610d8e57565b60405160e560020a62461bcd0281526020600482015260156024820152605960020a742932b9ba3934b1ba32b2103a379030b236b4b73997026044820152606490fdfe91ca00fdf29069527d658f8dfc6d1c0bf9861780bb45ff36436f938d3595a8d650415449454e545f524f4c4539383736350000000000000000000000000000008be0079c531659141344cd1fd0a4f28419497f9722a3daafe3b4186f6b6457e0a26469706673582212201d032da94f962f97f0c08ea1c80df204e3390f1d0c3c8c125891fe8d09aee2d664736f6c63430008120033",
  "deployedBytecode": "0x6080604090808252600490813610156100c8575b50361561009957333203610055577f26875833861a2b006512a11f1b86edf95df96131040f3caeed72989ee9858083825180610050343383610be4565b0390a1005b6020606492519160e560020a62461bcd02835282015260196024820152603860020a787068697368696e672061747461636b2064657465637465643f026044820152fd5b7fcc85d09d309785db93d6df19917f2e6cc07fe27cd01c08c8279145deb5cf4526825180610050343383610be4565b60009060e060020a823504906303e9e6098214610964575080630e7272b31461084557806324d7806c1461081357806334461067146107995780636d263ceb146106e55780637048027514610645578063715018a6146106005780637d0d62571461055957806383197ef01461050b578063893d20e8146104e25780638bad0c0a146104325780638f9c79ed146103f4578063900407bc146103d5578063a217fddf14610383578063ac5cb97d14610338578063b8fb3a511461031c578063f2fde38b1461025a578063f5074f41146101f95763ffa1ad74036100135782346101f557816003193601126101f55780516101f1916101c582610a69565b600a825260b060020a69312e362e342d6265746102602083015251918291602083526020830190610aa7565b0390f35b5080fd5b5091903461025657602036600319011261025657600160a060020a039035818116810361025257600080516020610dd28339815191529261024161024c938654163314610ae7565b519182913383610b36565b0390a180f35b8380fd5b8280fd5b509190602036600319011261025657600160a060020a0381358181169391929084900361031857845492831691610292833314610bff565b84156102be5750508290600080516020610e128339815191528580a3600160a060020a03191617815580f35b5160e560020a62461bcd028152602091810191909152602660248201527f4f776e61626c653a206e6577206f776e657220697320746865207a65726f2061604482015260d060020a65646472657373026064820152608490fd5b8480fd5b5082346101f557816003193601126101f55760209051601e8152f35b5082346101f557816003193601126101f55780516101f19161035982610a69565b60118252600080516020610df2833981519152602083015251918291602083526020830190610aa7565b5082346101f557816003193601126101f55780516101f1916103a482610a69565b600f8252608860020a6e41444d494e5f524f4c45393837363502602083015251918291602083526020830190610aa7565b5091903461025657826003193601126102565760209250549051908152f35b50919034610256576020366003190112610256573591600160a060020a038316830361042f5750610426602092610d40565b90519015158152f35b80fd5b50809183346104de57826003193601126104de57805173__User__________________________________9261046782610a69565b600f8252608860020a6e41444d494e5f524f4c453938373635026020830152833b1561031857825160e060020a63a1e6ab9f0281529385928592839182916104b29133918401610c68565b03915af49081156104d557506104c55750f35b6104ce90610a56565b61042f5780f35b513d84823e3d90fd5b5050fd5b5082816003193601126101f5576020906104fa610b95565b9051600160a060020a039091168152f35b5082346101f557816003193601126101f55761024c600080516020610dd283398151915291610545600160a060020a038554163314610ae7565b61054d610b95565b90519182913383610b36565b50809183346104de5760203660031901126104de57813591600160a060020a03831683036105fb5761059261058d33610c90565b610d87565b81519273__User__________________________________6105b385610a69565b60118552600080516020610df28339815191526020860152803b156105f757835160e560020a630398f90d0281529486938693849283926104b29291908401610c68565b8580fd5b505050fd5b508060031936011261042f57805481600160a060020a038216610624338214610bff565b600080516020610e128339815191528280a3600160a060020a031916815580f35b50809183346104de5760203660031901126104de57813591600160a060020a03831683036105fb5761067961058d33610c90565b81519273__User__________________________________61069a85610a69565b600f8552608860020a6e41444d494e5f524f4c453938373635026020860152803b156105f757835160e060020a63c19ae2ed0281529486938693849283926104b29291908401610c68565b50913461025657602036600319011261025657828235600160a060020a03811681036101f55761071761058d33610c90565b73__User__________________________________835161073781610a69565b60118152600080516020610df28339815191526020820152813b1561025257845160e060020a63c19ae2ed028152958693849283926107799291908401610c68565b03915af49081156104d5575061078d575080f35b61079690610a56565b80f35b5082903461042f57602036600319011261042f5782358152600560208181529183902080546001820154600283015460038401549784015494840154600690940154965192835294820152604081019390935260608301949094526080820152600160a060020a0390921660a083015260c082015260e090f35b50919034610256576020366003190112610256573591600160a060020a038316830361042f5750610426602092610c90565b5091346102565760a03660031901126102565761086133610d40565b15610920578154600019811461090a576001018083558151926006929061088785610a21565b8285526020850160243581528286016044358152606087019060643582526080880192608435845260a089019533875260c08a0197863589528b5260056020528a209851895551600189015551600288015551600387015551908501556005840190600160a060020a03905116600160a060020a03198254161790555191015580f35b60e060020a634e487b7102845260118352602484fd5b5160e560020a62461bcd02815260209181019190915260166024820152605160020a752932b9ba3934b1ba32b2103a37903830ba34b2b73a17026044820152606490fd5b9190503461042f57602036600319011261042f576101f1918460c092853581526005602052209061099481610a21565b8154948582526001830154968760208401526002840154908181850152600385015492836060860152850154938460808201526006600160a060020a03600588015416968760a084015201549687910152519788978893909796959260c0959260e086019986526020860152604085015260608401526080830152600160a060020a031660a08201520152565b60e081019081106001604060020a03821117610a3c57604052565b60e060020a634e487b710260009081526041600452602490fd5b6001604060020a038111610a3c57604052565b604081019081106001604060020a03821117610a3c57604052565b601f909101601f19168101906001604060020a03821190821017610a3c57604052565b919082519283825260005b848110610ad3575050826000602080949584010152601f8019910116010190565b602081830181015184830182015201610ab2565b15610aee57565b60405160e560020a62461bcd02815260206004820152601b60248201527f756e617574686f72697a65642c206e6f7420746865206f776e657200000000006044820152606490fd5b600160a060020a0391821681529116602082015260400190565b15610b5757565b60405160e560020a62461bcd0281526020600482015260106024820152608160020a6f3930ba32903634b6b4ba1032b93937b9026044820152606490fd5b600154601e8101809111610bca57610bb7904211610bb281610b50565b610b50565b42600155600054600160a060020a031690565b60e060020a634e487b710260009081526011600452602490fd5b600160a060020a039091168152602081019190915260400190565b15610c0657565b60405160e560020a62461bcd0281526020600482015260176024820152604960020a7630b1b1b2b9b9903232b734b2b2103337b91037bbb732b9026044820152606490fd5b90816020910312610c6357518015158103610c635790565b600080fd5b90610c80602091949394604084526040840190610aa7565b600160a060020a03909416910152565b6020610cde91604051610ca281610a69565b600f8152608860020a6e41444d494e5f524f4c453938373635028382015260405160e060020a636c9cd097028152938492839260048401610c68565b038173__User__________________________________5af4908115610d3457600091610d09575090565b610d2a915060203d8111610d2d575b610d228183610a84565b810190610c4b565b90565b503d610d18565b6040513d6000823e3d90fd5b6020610cde91604051610d5281610a69565b60118152600080516020610df28339815191528382015260405160e060020a636c9cd097028152938492839260048401610c68565b15610d8e57565b60405160e560020a62461bcd0281526020600482015260156024820152605960020a742932b9ba3934b1ba32b2103a379030b236b4b73997026044820152606490fdfe91ca00fdf29069527d658f8dfc6d1c0bf9861780bb45ff36436f938d3595a8d650415449454e545f524f4c4539383736350000000000000000000000000000008be0079c531659141344cd1fd0a4f28419497f9722a3daafe3b4186f6b6457e0a26469706673582212201d032da94f962f97f0c08ea1c80df204e3390f1d0c3c8c125891fe8d09aee2d664736f6c63430008120033",
  "immutableReferences": {},
  "source": "\r\n// SPDX-License-Identifier: CC-BY-4.0\r\npragma solidity >=0.4.22 <0.9.0;\r\n\r\n// See https://github.com/luigidarco96/HealthcareEnabledBlockchain\r\n\r\n\r\n\r\nimport \"../common/Version.sol\";\r\nimport \"../common/Frozen.sol\";\r\nimport \"../libs/User.sol\";\r\nimport \"../libs/StringUtils.sol\";\r\n\r\ncontract PersonalInfo is Version, Frozen {\r\n\r\n    string public constant DEFAULT_ADMIN_ROLE = string(\"ADMIN_ROLE98765\");\r\n    string public constant PATIENT_ROLE = string(\"PATIENT_ROLE98765\");\r\n\r\n    // Record count\r\n    uint public recordCount = 0;\r\n\r\n    struct Record {\r\n        uint id;\r\n        uint SpO2; // blood oxygenation\r\n        uint HR; // heart rate\r\n        uint Systolic; // blood pressure - systolic\r\n        uint Diastolic; // blood pressure = diastolic\r\n        address owner; // owner's address, patient\r\n        uint256 timestamp;\r\n    }\r\n\r\n    // List of records\r\n    mapping(uint => Record) public records;\r\n\r\n    constructor()\r\n    {\r\n        User.addUser();\r\n        //User.updateUserMeta(\"\", \"\", \"\", \"\", \"\", DEFAULT_ADMIN_ROLE);\r\n        //User.updateUserMeta(\"\", \"\", \"\", \"\", \"\", PATIENT_ROLE);\r\n    }\r\n\r\n    // Return `true` if the account belongs to the admin role.\r\n    function isAdmin(address account)\r\n        public\r\n        virtual\r\n        returns (bool)\r\n    {\r\n        return User.hasRole(DEFAULT_ADMIN_ROLE, account);\r\n    }\r\n\r\n    // Return `true` if the account belongs to the patient role.\r\n    function isPatient(address account)\r\n        public\r\n        virtual\r\n        returns (bool)\r\n    {\r\n        return User.hasRole(PATIENT_ROLE, account);\r\n    }\r\n\r\n    // Restricted to members of the admin role.\r\n    modifier onlyAdmin() {\r\n        require(isAdmin(msg.sender), \"Restricted to admins.\");\r\n        _;\r\n    }\r\n\r\n    // Restricted to members of the patient role.\r\n    modifier onlyPatient() {\r\n        require(isPatient(msg.sender), \"Restricted to patient.\");\r\n        _;\r\n    }\r\n\r\n    // Add an account to the user role. Restricted to admins.\r\n    function addPatient(address account)\r\n        public\r\n        virtual\r\n        onlyAdmin\r\n    {\r\n        User.grantRole(PATIENT_ROLE, account);\r\n    }\r\n\r\n    // Add an account to the admin role. Restricted to admins.\r\n    function addAdmin(address account)\r\n        public\r\n        virtual\r\n        onlyAdmin\r\n    {\r\n        User.grantRole(DEFAULT_ADMIN_ROLE, account);\r\n    }\r\n\r\n    // Remove an account from the patient role. Restricted to admins.\r\n    function removePatient(address account)\r\n        public\r\n        virtual\r\n        onlyAdmin\r\n    {\r\n        User.revokeRole(PATIENT_ROLE, account);\r\n    }\r\n\r\n    // Remove oneself from the admin role.\r\n    function renounceAdmin()\r\n        public\r\n        virtual\r\n    {\r\n        User.renounceRole(DEFAULT_ADMIN_ROLE, msg.sender);\r\n    }\r\n\r\n    // Insert a record in the list\r\n    function createRecord(uint256 _timestamp, uint _spO2, uint _hr, uint _systolic, uint _diastolic)\r\n        public\r\n        virtual\r\n        onlyPatient\r\n    {\r\n        recordCount++;\r\n        records[recordCount] = Record(recordCount, _spO2, _hr, _systolic, _diastolic, msg.sender, _timestamp);\r\n    }\r\n\r\n    // Read a record from the list\r\n    function getRecord(uint _id)\r\n        public\r\n        view\r\n        returns (uint, uint, uint, uint, uint, address, uint256)\r\n    {\r\n        Record memory currentRecord = records[_id];\r\n        return (currentRecord.id,\r\n                currentRecord.SpO2,\r\n                currentRecord.HR,\r\n                currentRecord.Systolic,\r\n                currentRecord.Diastolic,\r\n                currentRecord.owner,\r\n                currentRecord.timestamp);\r\n    }\r\n}",
  "sourcePath": "/Volumes/HOME/pingleware-contracts/contracts/healthcare/PersonalInfo.sol",
  "compiler": {
    "name": "solc",
    "version": "0.8.18+commit.87f61d96.Emscripten.clang"
  },
  "schemaVersion": "3.4.12",
  "updatedAt": "2024-05-23T18:56:26.359Z",
  "devdoc": {
    "kind": "dev",
    "methods": {
      "renounceOwnership()": {
        "details": "Leaves the contract without owner. It will not be possible to call `onlyOwner` functions anymore. Can only be called by the current owner. NOTE: Renouncing ownership will leave the contract without an owner, thereby removing any functionality that is only available to the owner."
      },
      "transferOwnership(address)": {
        "details": "Transfers ownership of the contract to a new account (`newOwner`). Can only be called by the current owner."
      }
    },
    "version": 1
  },
  "userdoc": {
    "kind": "user",
    "methods": {},
    "version": 1
  }
}