{
  "contractName": "POTUS",
  "abi": [
    {
      "inputs": [
        {
          "internalType": "address",
          "name": "_vicePresident",
          "type": "address"
        }
      ],
      "stateMutability": "nonpayable",
      "type": "constructor"
    },
    {
      "anonymous": false,
      "inputs": [
        {
          "indexed": false,
          "internalType": "string",
          "name": "order",
          "type": "string"
        }
      ],
      "name": "ExecutiveOrderIssued",
      "type": "event"
    },
    {
      "inputs": [],
      "name": "executiveOrder",
      "outputs": [
        {
          "internalType": "string",
          "name": "",
          "type": "string"
        }
      ],
      "stateMutability": "view",
      "type": "function"
    },
    {
      "inputs": [],
      "name": "president",
      "outputs": [
        {
          "internalType": "address",
          "name": "",
          "type": "address"
        }
      ],
      "stateMutability": "view",
      "type": "function"
    },
    {
      "inputs": [],
      "name": "vicePresident",
      "outputs": [
        {
          "internalType": "address",
          "name": "",
          "type": "address"
        }
      ],
      "stateMutability": "view",
      "type": "function"
    },
    {
      "inputs": [
        {
          "internalType": "string",
          "name": "order",
          "type": "string"
        }
      ],
      "name": "issueExecutiveOrder",
      "outputs": [],
      "stateMutability": "nonpayable",
      "type": "function"
    }
  ],
  "bytecode": "0x608060405234801561001057600080fd5b5060405161054f38038061054f83398101604081905261002f91610062565b6000805433600160a060020a03199182161790915560018054909116600160a060020a0392909216919091179055610092565b60006020828403121561007457600080fd5b8151600160a060020a038116811461008b57600080fd5b9392505050565b6104ae806100a16000396000f3fe608060405234801561001057600080fd5b506004361061004f5760e060020a6000350463324a13768114610054578063838aea0d146100845780638494f9e514610099578063cb29f3f7146100ae575b600080fd5b60005461006790600160a060020a031681565b604051600160a060020a0390911681526020015b60405180910390f35b610097610092366004610228565b6100c1565b005b6100a1610180565b60405161007b91906102d8565b60015461006790600160a060020a031681565b600054600160a060020a031633146101395760405160e560020a62461bcd02815260206004820152602b60248201527f4f6e6c792074686520507265736964656e742063616e20706572666f726d2074604482015260a960020a6a3434b99030b1ba34b7b71702606482015260840160405180910390fd5b600261014582826103b3565b507f992ea66d3a62a8c6634439f75fa2443f9018f21d438a6f9ea395a50225c7e5b48160405161017591906102d8565b60405180910390a150565b6002805461018d90610326565b80601f01602080910402602001604051908101604052809291908181526020018280546101b990610326565b80156102065780601f106101db57610100808354040283529160200191610206565b820191906000526020600020905b8154815290600101906020018083116101e957829003601f168201915b505050505081565b60e060020a634e487b710260009081526041600452602490fd5b60006020828403121561023a57600080fd5b81356001604060020a038082111561025157600080fd5b818401915084601f83011261026557600080fd5b8135818111156102775761027761020e565b604051601f8201601f19908116603f0116810190838211818310171561029f5761029f61020e565b816040528281528760208487010111156102b857600080fd5b826020860160208301376000928101602001929092525095945050505050565b600060208083528351808285015260005b81811015610305578581018301518582016040015282016102e9565b506000604082860101526040601f19601f8301168501019250505092915050565b60028104600182168061033a57607f821691505b60208210810361035e5760e060020a634e487b710260009081526022600452602490fd5b50919050565b601f8211156103ae576000818152602081206020601f8601048101602086101561038b5750805b6020601f860104820191505b818110156103aa57828155600101610397565b5050505b505050565b81516001604060020a038111156103cc576103cc61020e565b6103e0816103da8454610326565b84610364565b602080601f83116001811461041957600084156103fd5750858301515b60028086026008870290910a60001904198216178655506103aa565b600085815260208120601f198616915b8281101561044857888601518255948401946001909101908401610429565b508582101561046857878501516008601f88160260020a60001904191681555b505050505060020260010190555056fea264697066735822122006650d2562e10c7ef28e37667a5a3cde4676105a422c90ed163e15db7b5619bc64736f6c63430008120033",
  "immutableReferences": {},
  "source": "// SPDX-License-Identifier: BSL-1.1\npragma solidity >=0.4.22 <0.9.0;\n\ncontract POTUS {\n    address public president;\n    address public vicePresident;\n    string public executiveOrder;\n\n    event ExecutiveOrderIssued(string order);\n\n    modifier onlyPresident() {\n        require(msg.sender == president, \"Only the President can perform this action.\");\n        _;\n    }\n\n    constructor(address _vicePresident) {\n        president = msg.sender;\n        vicePresident = _vicePresident;\n    }\n\n    function issueExecutiveOrder(string memory order) public onlyPresident {\n        executiveOrder = order;\n        emit ExecutiveOrderIssued(order);\n    }\n}\n",
  "sourcePath": "/Volumes/My Book/projects/pingleware-contracts/contracts/government/federal/POTUS.sol",
  "compiler": {
    "name": "solc",
    "version": "0.8.18+commit.87f61d96.Emscripten.clang"
  },
  "schemaVersion": "3.4.12",
  "updatedAt": "2023-10-22T00:31:38.872Z",
  "devdoc": {
    "kind": "dev",
    "methods": {},
    "version": 1
  },
  "userdoc": {
    "kind": "user",
    "methods": {},
    "version": 1
  }
}