{
  "contractName": "POTUS",
  "abi": [
    {
      "inputs": [
        {
          "internalType": "address",
          "name": "_vicePresident",
          "type": "address"
        }
      ],
      "stateMutability": "nonpayable",
      "type": "constructor"
    },
    {
      "anonymous": false,
      "inputs": [
        {
          "indexed": false,
          "internalType": "string",
          "name": "order",
          "type": "string"
        }
      ],
      "name": "ExecutiveOrderIssued",
      "type": "event"
    },
    {
      "inputs": [],
      "name": "executiveOrder",
      "outputs": [
        {
          "internalType": "string",
          "name": "",
          "type": "string"
        }
      ],
      "stateMutability": "view",
      "type": "function"
    },
    {
      "inputs": [],
      "name": "president",
      "outputs": [
        {
          "internalType": "address",
          "name": "",
          "type": "address"
        }
      ],
      "stateMutability": "view",
      "type": "function"
    },
    {
      "inputs": [],
      "name": "vicePresident",
      "outputs": [
        {
          "internalType": "address",
          "name": "",
          "type": "address"
        }
      ],
      "stateMutability": "view",
      "type": "function"
    },
    {
      "inputs": [
        {
          "internalType": "string",
          "name": "order",
          "type": "string"
        }
      ],
      "name": "issueExecutiveOrder",
      "outputs": [],
      "stateMutability": "nonpayable",
      "type": "function"
    }
  ],
  "bytecode": "0x60803461007b576105a080380390601f19601f83011683019183831067ffffffffffffffff8411176100805780849260209460405283398101031261007b5751600160a060020a0381169081900361007b57600160a060020a03193381600054161760005560015416176001556040516104f090816100b08239f35b600080fd5b7f4e487b7100000000000000000000000000000000000000000000000000000000600052604160045260246000fdfe608060408181526004918236101561001657600080fd5b60009260e060020a8435049163324a137683146103b157508163838aea0d1461015a575080638494f9e51461007f5763cb29f3f71461005457600080fd5b3461007b578160031936011261007b576001549051600160a060020a039091168152602090f35b5080fd5b503461007b578160031936011261007b57805190826002546100a081610412565b8085529060019081811690811561013357506001146100da575b5050506100cc826100d69403836103d5565b5191829182610451565b0390f35b60028352602095507f405787fa12a823e0f2b7631cc41b3ba8828b3321ca811111fa75cd3aa3bb5ace5b82841061012057505050826100d6946100cc92820101946100ba565b8054868501880152928601928101610104565b6100d697506100cc9450602092508693915060ff19168284015215158102820101946100ba565b8391503461007b576020806003193601126103ad578135906001604060020a03908183116103a957366023840112156103a957828401359082821161039357865194601f1992601f956101b384868985011601896103d5565b818852366024838301011161038f578189926024869301838b0137880101528654600160a060020a0316330361033157855193841161031b57506002936101fa8554610412565b8181116102dd575b50819281851160011461026057505050918185969261024f959460008051602061049b8339815191529791610255575b5060088202830a6000190419169082021790555191829182610451565b0390a180f35b905084015188610232565b8493919293168588528388209388905b8282106102c557505093859360019361024f9897938360008051602061049b8339815191529b9c98106102aa575b505050020190556100cc565b880151908316600802840a600019041916905589808061029e565b80600185978294968c01518155019601930190610270565b85885282882083838181890104830193828910610312575b010401905b8181106103075750610202565b8881556001016102fa565b935082936102f5565b60e060020a634e487b7102875260419052602486fd5b875160e560020a62461bcd02815290810191909152602b60248201527f4f6e6c792074686520507265736964656e742063616e20706572666f726d2074604482015260a960020a6a3434b99030b1ba34b7b717026064820152608490fd5b8880fd5b60e060020a634e487b7102865260418552602486fd5b8480fd5b8280fd5b84903461007b578160031936011261007b579054600160a060020a03168152602090f35b601f909101601f19168101906001604060020a038211908210176103f857604052565b60e060020a634e487b710260009081526041600452602490fd5b9060016002830492168015610447575b602083101461042d57565b60e060020a634e487b710260009081526022600452602490fd5b91607f1691610422565b6020808252825181830181905290939260005b82811061048657505060409293506000838284010152601f8019910116010190565b81810186015184820160400152850161046456fe992ea66d3a62a8c6634439f75fa2443f9018f21d438a6f9ea395a50225c7e5b4a26469706673582212203f646d1c26f8c51fd56a50c3f2e29137ea81b95597bcefeafb5ee58f1d01159764736f6c63430008120033",
  "immutableReferences": {},
  "source": "// SPDX-License-Identifier: BSL-1.1\npragma solidity >=0.4.22 <0.9.0;\n\ncontract POTUS {\n    address public president;\n    address public vicePresident;\n    string public executiveOrder;\n\n    event ExecutiveOrderIssued(string order);\n\n    modifier onlyPresident() {\n        require(msg.sender == president, \"Only the President can perform this action.\");\n        _;\n    }\n\n    constructor(address _vicePresident) {\n        president = msg.sender;\n        vicePresident = _vicePresident;\n    }\n\n    function issueExecutiveOrder(string memory order) public onlyPresident {\n        executiveOrder = order;\n        emit ExecutiveOrderIssued(order);\n    }\n}\n",
  "sourcePath": "/Volumes/HOME/pingleware-contracts/contracts/government/federal/POTUS.sol",
  "compiler": {
    "name": "solc",
    "version": "0.8.18+commit.87f61d96.Emscripten.clang"
  },
  "schemaVersion": "3.4.12",
  "updatedAt": "2024-05-23T18:56:26.204Z",
  "devdoc": {
    "kind": "dev",
    "methods": {},
    "version": 1
  },
  "userdoc": {
    "kind": "user",
    "methods": {},
    "version": 1
  }
}