{
  "contractName": "ProfessionalLiability",
  "abi": [
    {
      "anonymous": false,
      "inputs": [
        {
          "indexed": false,
          "internalType": "address",
          "name": "sender",
          "type": "address"
        },
        {
          "indexed": false,
          "internalType": "uint256",
          "name": "amount",
          "type": "uint256"
        }
      ],
      "name": "FallbackEvent",
      "type": "event"
    },
    {
      "anonymous": false,
      "inputs": [
        {
          "indexed": true,
          "internalType": "address",
          "name": "previousOwner",
          "type": "address"
        },
        {
          "indexed": true,
          "internalType": "address",
          "name": "newOwner",
          "type": "address"
        }
      ],
      "name": "OwnershipTransferred",
      "type": "event"
    },
    {
      "anonymous": false,
      "inputs": [
        {
          "indexed": false,
          "internalType": "address",
          "name": "sender",
          "type": "address"
        },
        {
          "indexed": false,
          "internalType": "uint256",
          "name": "amount",
          "type": "uint256"
        }
      ],
      "name": "ReceiveEvent",
      "type": "event"
    },
    {
      "stateMutability": "payable",
      "type": "fallback"
    },
    {
      "inputs": [],
      "name": "VERSION",
      "outputs": [
        {
          "internalType": "string",
          "name": "",
          "type": "string"
        }
      ],
      "stateMutability": "view",
      "type": "function"
    },
    {
      "inputs": [],
      "name": "WAIT",
      "outputs": [
        {
          "internalType": "uint256",
          "name": "",
          "type": "uint256"
        }
      ],
      "stateMutability": "view",
      "type": "function"
    },
    {
      "inputs": [],
      "name": "getOwner",
      "outputs": [
        {
          "internalType": "address",
          "name": "",
          "type": "address"
        }
      ],
      "stateMutability": "payable",
      "type": "function"
    },
    {
      "inputs": [],
      "name": "policy_name",
      "outputs": [
        {
          "internalType": "string",
          "name": "",
          "type": "string"
        }
      ],
      "stateMutability": "view",
      "type": "function"
    },
    {
      "inputs": [],
      "name": "renounceOwnership",
      "outputs": [],
      "stateMutability": "payable",
      "type": "function"
    },
    {
      "inputs": [
        {
          "internalType": "address",
          "name": "newOwner",
          "type": "address"
        }
      ],
      "name": "transferOwnership",
      "outputs": [],
      "stateMutability": "payable",
      "type": "function"
    },
    {
      "stateMutability": "payable",
      "type": "receive"
    }
  ],
  "bytecode": "0x6080604052600060015534801561001557600080fd5b5060008054600160a060020a031916339081178255426001556040519091907f8be0079c531659141344cd1fd0a4f28419497f9722a3daafe3b4186f6b6457e0908290a36105e8806100686000396000f3fe60806040526004361061005c5760e060020a600035046332e0e3f38114610123578063715018a61461014e578063893d20e814610158578063b8fb3a5114610178578063f2fde38b1461019b578063ffa1ad74146101ae5761009c565b3661009c577fcc85d09d309785db93d6df19917f2e6cc07fe27cd01c08c8279145deb5cf45263334604051610092929190610431565b60405180910390a1005b3233146100f25760405160e560020a62461bcd0281526020600482015260196024820152603860020a787068697368696e672061747461636b2064657465637465643f0260448201526064015b60405180910390fd5b7f26875833861a2b006512a11f1b86edf95df96131040f3caeed72989ee98580833334604051610092929190610431565b34801561012f57600080fd5b506101386101e7565b604051610145919061044a565b60405180910390f35b610156610275565b005b6101606102da565b604051600160a060020a039091168152602001610145565b34801561018457600080fd5b5061018d601e81565b604051908152602001610145565b6101566101a9366004610498565b610350565b3480156101ba57600080fd5b506101386040518060400160405280600a815260200160b060020a69312e362e342d626574610281525081565b600380546101f4906104c8565b80601f0160208091040260200160405190810160405280929190818152602001828054610220906104c8565b801561026d5780601f106102425761010080835404028352916020019161026d565b820191906000526020600020905b81548152906001019060200180831161025057829003601f168201915b505050505081565b600054600160a060020a031633146102a25760405160e560020a62461bcd0281526004016100e990610506565b60008054604051600160a060020a0390911690600080516020610593833981519152908390a360008054600160a060020a0319169055565b6000601e6001546102eb919061053a565b421161030c5760405160e560020a62461bcd0281526004016100e990610565565b601e60015461031b919061053a565b421161033c5760405160e560020a62461bcd0281526004016100e990610565565b5042600155600054600160a060020a031690565b600054600160a060020a0316331461037d5760405160e560020a62461bcd0281526004016100e990610506565b600160a060020a0381166103e85760405160e560020a62461bcd02815260206004820152602660248201527f4f776e61626c653a206e6577206f776e657220697320746865207a65726f2061604482015260d060020a656464726573730260648201526084016100e9565b60008054604051600160a060020a038085169392169160008051602061059383398151915291a360008054600160a060020a031916600160a060020a0392909216919091179055565b600160a060020a03929092168252602082015260400190565b600060208083528351808285015260005b818110156104775785810183015185820160400152820161045b565b506000604082860101526040601f19601f8301168501019250505092915050565b6000602082840312156104aa57600080fd5b8135600160a060020a03811681146104c157600080fd5b9392505050565b6002810460018216806104dc57607f821691505b6020821081036105005760e060020a634e487b710260009081526022600452602490fd5b50919050565b6020808252601790820152604960020a7630b1b1b2b9b9903232b734b2b2103337b91037bbb732b902604082015260600190565b8082018082111561055f5760e060020a634e487b710260009081526011600452602490fd5b92915050565b6020808252601090820152608160020a6f3930ba32903634b6b4ba1032b93937b90260408201526060019056fe8be0079c531659141344cd1fd0a4f28419497f9722a3daafe3b4186f6b6457e0a264697066735822122084fad832b275becb959473586394d2e62e9e7488327832c55a727aeae324855564736f6c63430008120033",
  "immutableReferences": {},
  "source": "// SPDX-License-Identifier: CC-BY-4.0\r\npragma solidity >=0.4.22 <0.9.0;\r\n\r\nimport \"../common/Version.sol\";\r\nimport \"../common/Owned.sol\";\r\n\r\ncontract ProfessionalLiability is Version, Owned {\r\n    string public policy_name;\r\n}",
  "sourcePath": "/Volumes/My Book/projects/pingleware-contracts/contracts/insurance/ProfessionalLiability.sol",
  "compiler": {
    "name": "solc",
    "version": "0.8.18+commit.87f61d96.Emscripten.clang"
  },
  "schemaVersion": "3.4.12",
  "updatedAt": "2023-10-22T00:36:37.923Z",
  "devdoc": {
    "kind": "dev",
    "methods": {
      "renounceOwnership()": {
        "details": "Leaves the contract without owner. It will not be possible to call `onlyOwner` functions anymore. Can only be called by the current owner. NOTE: Renouncing ownership will leave the contract without an owner, thereby removing any functionality that is only available to the owner."
      },
      "transferOwnership(address)": {
        "details": "Transfers ownership of the contract to a new account (`newOwner`). Can only be called by the current owner."
      }
    },
    "version": 1
  },
  "userdoc": {
    "kind": "user",
    "methods": {},
    "version": 1
  }
}