{
  "contractName": "RealEstate",
  "abi": [
    {
      "inputs": [],
      "stateMutability": "nonpayable",
      "type": "constructor"
    },
    {
      "anonymous": false,
      "inputs": [
        {
          "indexed": false,
          "internalType": "address",
          "name": "sender",
          "type": "address"
        },
        {
          "indexed": false,
          "internalType": "uint256",
          "name": "amount",
          "type": "uint256"
        }
      ],
      "name": "FallbackEvent",
      "type": "event"
    },
    {
      "anonymous": false,
      "inputs": [
        {
          "indexed": true,
          "internalType": "address",
          "name": "previousOwner",
          "type": "address"
        },
        {
          "indexed": true,
          "internalType": "address",
          "name": "newOwner",
          "type": "address"
        }
      ],
      "name": "OwnershipTransferred",
      "type": "event"
    },
    {
      "anonymous": false,
      "inputs": [
        {
          "indexed": false,
          "internalType": "address",
          "name": "sender",
          "type": "address"
        },
        {
          "indexed": false,
          "internalType": "uint256",
          "name": "amount",
          "type": "uint256"
        }
      ],
      "name": "ReceiveEvent",
      "type": "event"
    },
    {
      "stateMutability": "payable",
      "type": "fallback",
      "payable": true
    },
    {
      "inputs": [],
      "name": "VERSION",
      "outputs": [
        {
          "internalType": "string",
          "name": "",
          "type": "string"
        }
      ],
      "stateMutability": "view",
      "type": "function",
      "constant": true
    },
    {
      "inputs": [],
      "name": "WAIT",
      "outputs": [
        {
          "internalType": "uint256",
          "name": "",
          "type": "uint256"
        }
      ],
      "stateMutability": "view",
      "type": "function",
      "constant": true
    },
    {
      "inputs": [],
      "name": "active",
      "outputs": [
        {
          "internalType": "bool",
          "name": "",
          "type": "bool"
        }
      ],
      "stateMutability": "view",
      "type": "function",
      "constant": true
    },
    {
      "inputs": [],
      "name": "getOwner",
      "outputs": [
        {
          "internalType": "address",
          "name": "",
          "type": "address"
        }
      ],
      "stateMutability": "payable",
      "type": "function",
      "payable": true
    },
    {
      "inputs": [
        {
          "internalType": "address",
          "name": "",
          "type": "address"
        },
        {
          "internalType": "uint256",
          "name": "",
          "type": "uint256"
        }
      ],
      "name": "house",
      "outputs": [
        {
          "internalType": "uint256",
          "name": "propertyId",
          "type": "uint256"
        },
        {
          "internalType": "uint256",
          "name": "cost",
          "type": "uint256"
        },
        {
          "internalType": "string",
          "name": "location",
          "type": "string"
        },
        {
          "internalType": "enum RealEstate.STATUS",
          "name": "status",
          "type": "uint8"
        },
        {
          "internalType": "enum RealEstate.PROPERTY_TYPE",
          "name": "property_type",
          "type": "uint8"
        },
        {
          "internalType": "address",
          "name": "ownerAddr",
          "type": "address"
        }
      ],
      "stateMutability": "view",
      "type": "function",
      "constant": true
    },
    {
      "inputs": [
        {
          "internalType": "uint256",
          "name": "",
          "type": "uint256"
        }
      ],
      "name": "liens",
      "outputs": [
        {
          "internalType": "uint256",
          "name": "position",
          "type": "uint256"
        },
        {
          "internalType": "address",
          "name": "lienholder",
          "type": "address"
        },
        {
          "internalType": "uint256",
          "name": "origination_date",
          "type": "uint256"
        },
        {
          "internalType": "uint256",
          "name": "terms",
          "type": "uint256"
        },
        {
          "internalType": "uint256",
          "name": "amount",
          "type": "uint256"
        }
      ],
      "stateMutability": "view",
      "type": "function",
      "constant": true
    },
    {
      "inputs": [],
      "name": "owner",
      "outputs": [
        {
          "internalType": "address",
          "name": "",
          "type": "address"
        }
      ],
      "stateMutability": "view",
      "type": "function",
      "constant": true
    },
    {
      "inputs": [
        {
          "internalType": "uint256",
          "name": "",
          "type": "uint256"
        }
      ],
      "name": "property",
      "outputs": [
        {
          "internalType": "uint256",
          "name": "propertyId",
          "type": "uint256"
        },
        {
          "internalType": "uint256",
          "name": "cost",
          "type": "uint256"
        },
        {
          "internalType": "string",
          "name": "location",
          "type": "string"
        },
        {
          "internalType": "enum RealEstate.STATUS",
          "name": "status",
          "type": "uint8"
        },
        {
          "internalType": "enum RealEstate.PROPERTY_TYPE",
          "name": "property_type",
          "type": "uint8"
        },
        {
          "internalType": "address",
          "name": "ownerAddr",
          "type": "address"
        }
      ],
      "stateMutability": "view",
      "type": "function",
      "constant": true
    },
    {
      "inputs": [],
      "name": "propertyCount",
      "outputs": [
        {
          "internalType": "uint256",
          "name": "",
          "type": "uint256"
        }
      ],
      "stateMutability": "view",
      "type": "function",
      "constant": true
    },
    {
      "inputs": [],
      "name": "renounceOwnership",
      "outputs": [],
      "stateMutability": "payable",
      "type": "function",
      "payable": true
    },
    {
      "inputs": [
        {
          "internalType": "address",
          "name": "newOwner",
          "type": "address"
        }
      ],
      "name": "transferOwnership",
      "outputs": [],
      "stateMutability": "payable",
      "type": "function",
      "payable": true
    },
    {
      "stateMutability": "payable",
      "type": "receive",
      "payable": true
    },
    {
      "inputs": [
        {
          "internalType": "uint256",
          "name": "_cost",
          "type": "uint256"
        },
        {
          "internalType": "string",
          "name": "_location",
          "type": "string"
        },
        {
          "internalType": "enum RealEstate.STATUS",
          "name": "_status",
          "type": "uint8"
        },
        {
          "internalType": "enum RealEstate.PROPERTY_TYPE",
          "name": "_type",
          "type": "uint8"
        },
        {
          "internalType": "address",
          "name": "_ownerAddr",
          "type": "address"
        }
      ],
      "name": "addNewProperty",
      "outputs": [],
      "stateMutability": "payable",
      "type": "function",
      "payable": true
    },
    {
      "inputs": [
        {
          "internalType": "uint256",
          "name": "id",
          "type": "uint256"
        },
        {
          "internalType": "address",
          "name": "_buyer",
          "type": "address"
        }
      ],
      "name": "changeOwnership",
      "outputs": [
        {
          "internalType": "address",
          "name": "",
          "type": "address"
        },
        {
          "internalType": "enum RealEstate.STATUS",
          "name": "status",
          "type": "uint8"
        },
        {
          "internalType": "bool",
          "name": "_statusChange",
          "type": "bool"
        }
      ],
      "stateMutability": "payable",
      "type": "function",
      "payable": true
    },
    {
      "inputs": [
        {
          "internalType": "address",
          "name": "propertyOwner",
          "type": "address"
        }
      ],
      "name": "creatingArrayForPropertiesNotSold",
      "outputs": [
        {
          "internalType": "uint256[]",
          "name": "",
          "type": "uint256[]"
        }
      ],
      "stateMutability": "nonpayable",
      "type": "function"
    },
    {
      "inputs": [],
      "name": "getLengthOfMyArray",
      "outputs": [
        {
          "internalType": "uint256",
          "name": "",
          "type": "uint256"
        }
      ],
      "stateMutability": "view",
      "type": "function",
      "constant": true
    },
    {
      "inputs": [
        {
          "internalType": "uint256",
          "name": "propertyCounter",
          "type": "uint256"
        }
      ],
      "name": "getLengthArray",
      "outputs": [
        {
          "internalType": "uint256",
          "name": "",
          "type": "uint256"
        }
      ],
      "stateMutability": "pure",
      "type": "function",
      "constant": true
    },
    {
      "inputs": [
        {
          "internalType": "uint256",
          "name": "id",
          "type": "uint256"
        },
        {
          "internalType": "address",
          "name": "",
          "type": "address"
        }
      ],
      "name": "getPropertyDetails",
      "outputs": [
        {
          "internalType": "uint256",
          "name": "_id",
          "type": "uint256"
        },
        {
          "internalType": "uint256",
          "name": "cost",
          "type": "uint256"
        },
        {
          "internalType": "string",
          "name": "location",
          "type": "string"
        },
        {
          "internalType": "enum RealEstate.STATUS",
          "name": "status",
          "type": "uint8"
        },
        {
          "internalType": "address",
          "name": "o",
          "type": "address"
        }
      ],
      "stateMutability": "view",
      "type": "function",
      "constant": true
    },
    {
      "inputs": [
        {
          "internalType": "uint256",
          "name": "id",
          "type": "uint256"
        },
        {
          "internalType": "uint256",
          "name": "_newValue",
          "type": "uint256"
        }
      ],
      "name": "changeValue",
      "outputs": [
        {
          "internalType": "bool",
          "name": "",
          "type": "bool"
        }
      ],
      "stateMutability": "payable",
      "type": "function",
      "payable": true
    }
  ],
  "bytecode": "0x6080604052600060015534801561001557600080fd5b5060008054600160a060020a031916339081178255426001556040519091907f8be0079c531659141344cd1fd0a4f28419497f9722a3daafe3b4186f6b6457e0908290a36003805460ff191660011790556113df806100756000396000f3fe6080604052600436106100e05760e060020a600035046302fb0c5e81146101a757806330e1ad32146101d65780633789dc7c1461020857806342148224146102355780635163b9051461024a578063524fa37f146102695780636491db311461029a578063715018a6146102ba5780638709b2e7146102c2578063893d20e8146102d557806389b3887e146102f55780638da5cb5b14610317578063b8fb3a5114610337578063c361a3351461034c578063c63f605214610362578063d2540259146103e6578063f2fde38b14610404578063ffa1ad741461041757610120565b36610120577fcc85d09d309785db93d6df19917f2e6cc07fe27cd01c08c8279145deb5cf45263334604051610116929190610dc9565b60405180910390a1005b3233146101765760405160e560020a62461bcd0281526020600482015260196024820152603860020a787068697368696e672061747461636b2064657465637465643f0260448201526064015b60405180910390fd5b7f26875833861a2b006512a11f1b86edf95df96131040f3caeed72989ee98580833334604051610116929190610dc9565b3480156101b357600080fd5b506003546101c19060ff1681565b60405190151581526020015b60405180910390f35b3480156101e257600080fd5b506101f66101f1366004610de2565b61045d565b6040516101cd96959493929190610e6f565b34801561021457600080fd5b50610228610223366004610eeb565b61052d565b6040516101cd9190610f0d565b610248610243366004610f89565b610675565b005b34801561025657600080fd5b506006545b6040519081526020016101cd565b34801561027557600080fd5b50610289610284366004611075565b61090c565b6040516101cd9594939291906110a1565b3480156102a657600080fd5b506101f66102b53660046110ea565b6109eb565b610248610a37565b6101c16102d0366004611114565b610a9c565b6102dd610ae8565b604051600160a060020a0390911681526020016101cd565b610308610303366004611075565b610b5e565b6040516101cd93929190611136565b34801561032357600080fd5b506005546102dd90600160a060020a031681565b34801561034357600080fd5b5061025b601e81565b34801561035857600080fd5b5061025b60045481565b34801561036e57600080fd5b506103b661037d366004610de2565b600960205260009081526040902080546001820154600283015460038401546004909401549293600160a060020a039092169290919085565b60408051958652600160a060020a039094166020860152928401919091526060830152608082015260a0016101cd565b3480156103f257600080fd5b5061025b610401366004610de2565b90565b610248610412366004610eeb565b610cae565b34801561042357600080fd5b506104506040518060400160405280600a815260200160b060020a69312e362e342d626574610281525081565b6040516101cd9190611163565b6007602052600090815260409020805460018201546002830180549293919261048590611176565b80601f01602080910402602001604051908101604052809291908181526020018280546104b190611176565b80156104fe5780601f106104d3576101008083540402835291602001916104fe565b820191906000526020600020905b8154815290600101906020018083116104e157829003601f168201915b5050506003909301549192505060ff80821691610100810490911690600160a060020a03620100009091041686565b606061053b60066000610d8f565b60005b600160a060020a03831660009081526008602052604090205481101561061c576003600160a060020a038416600090815260086020526040902080548390811061058a5761058a6111b4565b60009182526020909120600360049092020181015460ff16908111156105b2576105b2610e41565b1461060a57600160a060020a0383166000908152600860205260409020805460069190839081106105e5576105e56111b4565b6000918252602080832060049092029091015483546001810185559383529120909101555b80610614816111e8565b91505061053e565b50600680548060200260200160405190810160405280929190818152602001828054801561066957602002820191906000526020600020905b815481526020019060010190808311610655575b50505050509050919050565b600054600160a060020a031633146106a25760405160e560020a62461bcd02815260040161016d90611201565b6001600460008282546106b59190611235565b925050819055506040518060c0016040528060045481526020018681526020018581526020018460038111156106ed576106ed610e41565b815260200183600881111561070457610704610e41565b8152600160a060020a0383166020918201526004546000908152600782526040908190208351815591830151600183015582015160028201906107479082611297565b5060608201518160030160006101000a81548160ff0219169083600381111561077257610772610e41565b0217905550608082015160038201805461ff00191661010083600881111561079c5761079c610e41565b021790555060a08201518160030160026101000a815481600160a060020a030219169083600160a060020a0316021790555090505060006040518060c00160405280600454815260200187815260200186815260200185600381111561080457610804610e41565b815260200184600881111561081b5761081b610e41565b8152600160a060020a038416602091820181905260009081526008825260408082208054600181810183559184529284902085516004909402019283559284015192820192909255908201519192508291600282019061087b9082611297565b5060608201518160030160006101000a81548160ff021916908360038111156108a6576108a6610e41565b0217905550608082015160038201805461ff0019166101008360088111156108d0576108d0610e41565b021790555060a08201518160030160026101000a815481600160a060020a030219169083600160a060020a031602179055505050505050505050565b600082815260076020526040812060018101546003820154600290920180548493606093859384938a9360ff81169162010000909104600160a060020a031690839061095790611176565b80601f016020809104026020016040519081016040528092919081815260200182805461098390611176565b80156109d05780601f106109a5576101008083540402835291602001916109d0565b820191906000526020600020905b8154815290600101906020018083116109b357829003601f168201915b50505050509250945094509450945094509295509295909350565b60086020528160005260406000208181548110610a0757600080fd5b90600052602060002090600402016000915091505080600001549080600101549080600201805461048590611176565b600054600160a060020a03163314610a645760405160e560020a62461bcd02815260040161016d90611201565b60008054604051600160a060020a039091169060008051602061138a833981519152908390a360008054600160a060020a0319169055565b60008054600160a060020a03163314610aca5760405160e560020a62461bcd02815260040161016d90611201565b50600082815260076020526040902060019081018290555b92915050565b6000601e600154610af99190611235565b4211610b1a5760405160e560020a62461bcd02815260040161016d9061135c565b601e600154610b299190611235565b4211610b4a5760405160e560020a62461bcd02815260040161016d9061135c565b5042600155600054600160a060020a031690565b6000805481908190600160a060020a03163314610b905760405160e560020a62461bcd02815260040161016d90611201565b6002600086815260076020526040902060039081015460ff1690811115610bb957610bb9610e41565b14610be35760405160e560020a62461bcd028152602060048201526000602482015260440161016d565b600085815260076020526040902060030154600160a060020a03808616620100009092041603610c325760405160e560020a62461bcd028152602060048201526000602482015260440161016d565b600085815260076020526040902060030154600160a060020a03858116620100009092041614610ca0575060008481526007602052604090206003908101805461ff0160b060020a03191660ff1962010000600160a060020a03881602161790911790558291506001610ca7565b5082915060005b9250925092565b600054600160a060020a03163314610cdb5760405160e560020a62461bcd02815260040161016d90611201565b600160a060020a038116610d465760405160e560020a62461bcd02815260206004820152602660248201527f4f776e61626c653a206e6577206f776e657220697320746865207a65726f2061604482015260d060020a6564647265737302606482015260840161016d565b60008054604051600160a060020a038085169392169160008051602061138a83398151915291a360008054600160a060020a031916600160a060020a0392909216919091179055565b5080546000825590600052602060002090810190610dad9190610db0565b50565b5b80821115610dc55760008155600101610db1565b5090565b600160a060020a03929092168252602082015260400190565b600060208284031215610df457600080fd5b5035919050565b6000815180845260005b81811015610e2157602081850181015186830182015201610e05565b506000602082860101526020601f19601f83011685010191505092915050565b60e060020a634e487b710260009081526021600452602490fd5b60048110610e6b57610e6b610e41565b9052565b86815285602082015260c060408201526000610e8e60c0830187610dfb565b9050610e9d6060830186610e5b565b60098410610ead57610ead610e41565b6080820193909352600160a060020a039190911660a090910152949350505050565b8035600160a060020a0381168114610ee657600080fd5b919050565b600060208284031215610efd57600080fd5b610f0682610ecf565b9392505050565b6020808252825182820181905260009190848201906040850190845b81811015610f4557835183529284019291840191600101610f29565b50909695505050505050565b60e060020a634e487b710260009081526041600452602490fd5b803560048110610ee657600080fd5b803560098110610ee657600080fd5b600080600080600060a08688031215610fa157600080fd5b8535945060208601356001604060020a0380821115610fbf57600080fd5b818801915088601f830112610fd357600080fd5b813581811115610fe557610fe5610f51565b604051601f8201601f19908116603f0116810190838211818310171561100d5761100d610f51565b816040528281528b602084870101111561102657600080fd5b82602086016020830137600060208483010152809850505050505061104d60408701610f6b565b925061105b60608701610f7a565b915061106960808701610ecf565b90509295509295909350565b6000806040838503121561108857600080fd5b8235915061109860208401610ecf565b90509250929050565b85815284602082015260a0604082015260006110c060a0830186610dfb565b90506110cf6060830185610e5b565b600160a060020a039290921660809190910152949350505050565b600080604083850312156110fd57600080fd5b61110683610ecf565b946020939093013593505050565b6000806040838503121561112757600080fd5b50508035926020909101359150565b600160a060020a0384168152606081016111536020830185610e5b565b8215156040830152949350505050565b602081526000610f066020830184610dfb565b60028104600182168061118a57607f821691505b6020821081036111ae5760e060020a634e487b710260009081526022600452602490fd5b50919050565b60e060020a634e487b710260009081526032600452602490fd5b60e060020a634e487b710260009081526011600452602490fd5b6000600182016111fa576111fa6111ce565b5060010190565b6020808252601790820152604960020a7630b1b1b2b9b9903232b734b2b2103337b91037bbb732b902604082015260600190565b80820180821115610ae257610ae26111ce565b601f821115611292576000818152602081206020601f8601048101602086101561126f5750805b6020601f860104820191505b8181101561128e5782815560010161127b565b5050505b505050565b81516001604060020a038111156112b0576112b0610f51565b6112c4816112be8454611176565b84611248565b602080601f8311600181146112fd57600084156112e15750858301515b60028086026008870290910a600019041982161786555061128e565b600085815260208120601f198616915b8281101561132c5788860151825594840194600190910190840161130d565b508582101561134c57878501516008601f88160260020a60001904191681555b5050505050600202600101905550565b6020808252601090820152608160020a6f3930ba32903634b6b4ba1032b93937b90260408201526060019056fe8be0079c531659141344cd1fd0a4f28419497f9722a3daafe3b4186f6b6457e0a264697066735822122043264e3a01ef6cb18729dd40105250ffa31636b563d9a0af6e1c6051a03248d164736f6c63430008120033",
  "immutableReferences": {},
  "source": "// SPDX-License-Identifier: CC-BY-4.0\r\npragma solidity >=0.4.22 <0.9.0;\r\n\r\nimport \"../common/Version.sol\";\r\nimport \"../common/Owned.sol\";\r\n\r\n// current status: 2 different states.\r\ncontract RealEstate is Version, Owned {\r\n    bool public active;\r\n    enum STATUS {\r\n        OFFMARKET,\r\n        LISTED,\r\n        PENDING,\r\n        SOLD\r\n    }\r\n\r\n    enum PROPERTY_TYPE {\r\n        SINGLEFAMILY,\r\n        DUPLEX,\r\n        TRIPLEX,\r\n        QUADPLEX,\r\n        MULTIFAMILY,\r\n        CONDO,\r\n        COOP,\r\n        MOBILEHOME,\r\n        LAND\r\n    }\r\n\r\n    constructor ()\r\n    {\r\n        active = true;\r\n    }\r\n\r\n    //counter to count property & increment Id.\r\n    uint256 public propertyCount;\r\n    address public owner;\r\n    uint[] private myArray;\r\n\r\n    // A lien should be a separate contract?\r\n    struct Lien {\r\n        uint position;\r\n        address lienholder;\r\n        uint256 origination_date;\r\n        uint256 terms;\r\n        uint256 amount;\r\n    }\r\n\r\n    struct NewProperty {\r\n        uint propertyId;\r\n        uint cost;\r\n        string location;\r\n        STATUS status;\r\n        PROPERTY_TYPE property_type;\r\n        address ownerAddr;\r\n    }\r\n\r\n    struct Sale {\r\n        address property;\r\n        uint256 sale_date;\r\n        address seller;\r\n        address buyer;\r\n        uint256 amount;\r\n    }\r\n\r\n    struct Taxes {\r\n        address taxcollector;\r\n        address property;\r\n        uint256 amount;\r\n    }\r\n\r\n    struct TaxRecord {\r\n        Taxes tax;\r\n        address payer;\r\n        uint256 duedate;\r\n        uint256 date_paid;\r\n        uint256 amount;\r\n    }\r\n\r\n    struct TaxDeliquency {\r\n        Taxes tax;\r\n        uint256 date;\r\n        uint256 amount;\r\n        bool    certificate_issued;\r\n        bool    taxdeed_issued;\r\n    }\r\n\r\n    mapping(uint => NewProperty) public property;\r\n    mapping(address => NewProperty[]) public house;\r\n    mapping(uint => Lien) public liens;\r\n\r\n    //Add new property..\r\n    function addNewProperty(uint _cost, string memory _location, STATUS _status, PROPERTY_TYPE _type, address _ownerAddr)\r\n        public\r\n        payable\r\n        onlyOwner\r\n    {\r\n        propertyCount += 1;\r\n        property[propertyCount] = NewProperty(propertyCount, _cost, _location, _status, _type, _ownerAddr);\r\n\r\n        NewProperty memory houses = NewProperty(\r\n            {\r\n                propertyId: propertyCount,\r\n                cost: _cost,\r\n                location: _location,\r\n                status: _status,\r\n                property_type: _type,\r\n                ownerAddr: _ownerAddr\r\n            });\r\n        house[_ownerAddr].push(houses);\r\n    }\r\n\r\n    //Request Change of Ownership..\r\n\tfunction changeOwnership(uint id, address _buyer)\r\n        public\r\n        payable\r\n        onlyOwner\r\n        returns (address, STATUS status, bool _statusChange)\r\n    {\r\n\t    // _buyer = 0x814D874D527eE258c315fE86B084Df58887cE5dF; //have to change the address to simulate the ether address on that day;\r\n\t    // _buyer == address(0);\r\n\t\trequire(property[id].status == STATUS.PENDING, \"\");\r\n\t    require(property[id].ownerAddr != _buyer, \"\");\r\n\r\n\t    if (property[id].ownerAddr != _buyer) {\r\n\t        property[id].ownerAddr = _buyer;\r\n\t        property[id].status = STATUS.SOLD;\r\n\t        _statusChange = true;\r\n    \t    return (_buyer, status, _statusChange);\r\n\t    } else {\r\n\t        _statusChange = false;\r\n    \t    return (_buyer, status, _statusChange);\r\n\t    }\r\n\t}\r\n\r\n    // Get all property details of an address..\r\n    function creatingArrayForPropertiesNotSold(address propertyOwner)\r\n        public\r\n        returns (uint[] memory)\r\n    {\r\n        delete myArray;\r\n        for (uint i = 0; i < (house[propertyOwner].length); i++) {\r\n            if (house[propertyOwner][i].status != STATUS.SOLD) {\r\n                myArray.push(house[propertyOwner][i].propertyId);\r\n            }\r\n\t    }  return (myArray);\r\n    }\r\n\r\n    //get the Length of myArray which stores the ID of properties with status not sold for each address..\r\n    function getLengthOfMyArray()\r\n        public\r\n        view\r\n        returns (uint)\r\n    {\r\n        return myArray.length;\r\n    }\r\n\r\n    //get the length of the array..\r\n    function getLengthArray(uint propertyCounter)\r\n        public\r\n        pure\r\n        returns(uint)\r\n    {\r\n        return propertyCounter;\r\n    }\r\n\r\n\r\n    //Get the property details..\r\n\tfunction getPropertyDetails(uint id, address)\r\n        public\r\n        view\r\n        returns (uint _id, uint cost, string memory location, STATUS status, address o)\r\n    {\r\n\t\treturn (id, property[id].cost, property[id].location, property[id].status, property[id].ownerAddr);\r\n\t}\r\n\r\n    //Changing the Value of the property..\r\n    function changeValue(uint id, uint _newValue)\r\n        public\r\n        payable\r\n        onlyOwner\r\n        returns (bool)\r\n    {\r\n        property[id].cost = _newValue;\r\n        return true;\r\n    }\r\n}",
  "sourcePath": "/Volumes/My Book/projects/pingleware-contracts/contracts/realestate/RealEstate.sol",
  "compiler": {
    "name": "solc",
    "version": "0.8.18+commit.87f61d96.Emscripten.clang"
  },
  "schemaVersion": "3.4.12",
  "updatedAt": "2023-10-23T15:41:28.278Z",
  "networkType": "ethereum",
  "devdoc": {
    "kind": "dev",
    "methods": {
      "renounceOwnership()": {
        "details": "Leaves the contract without owner. It will not be possible to call `onlyOwner` functions anymore. Can only be called by the current owner. NOTE: Renouncing ownership will leave the contract without an owner, thereby removing any functionality that is only available to the owner."
      },
      "transferOwnership(address)": {
        "details": "Transfers ownership of the contract to a new account (`newOwner`). Can only be called by the current owner."
      }
    },
    "version": 1
  },
  "userdoc": {
    "kind": "user",
    "methods": {},
    "version": 1
  }
}