{
  "contractName": "RealEstate",
  "abi": [
    {
      "inputs": [],
      "stateMutability": "nonpayable",
      "type": "constructor"
    },
    {
      "anonymous": false,
      "inputs": [
        {
          "indexed": false,
          "internalType": "address",
          "name": "sender",
          "type": "address"
        },
        {
          "indexed": false,
          "internalType": "uint256",
          "name": "amount",
          "type": "uint256"
        }
      ],
      "name": "FallbackEvent",
      "type": "event"
    },
    {
      "anonymous": false,
      "inputs": [
        {
          "indexed": true,
          "internalType": "address",
          "name": "previousOwner",
          "type": "address"
        },
        {
          "indexed": true,
          "internalType": "address",
          "name": "newOwner",
          "type": "address"
        }
      ],
      "name": "OwnershipTransferred",
      "type": "event"
    },
    {
      "anonymous": false,
      "inputs": [
        {
          "indexed": false,
          "internalType": "address",
          "name": "sender",
          "type": "address"
        },
        {
          "indexed": false,
          "internalType": "uint256",
          "name": "amount",
          "type": "uint256"
        }
      ],
      "name": "ReceiveEvent",
      "type": "event"
    },
    {
      "stateMutability": "payable",
      "type": "fallback"
    },
    {
      "inputs": [],
      "name": "VERSION",
      "outputs": [
        {
          "internalType": "string",
          "name": "",
          "type": "string"
        }
      ],
      "stateMutability": "view",
      "type": "function"
    },
    {
      "inputs": [],
      "name": "WAIT",
      "outputs": [
        {
          "internalType": "uint256",
          "name": "",
          "type": "uint256"
        }
      ],
      "stateMutability": "view",
      "type": "function"
    },
    {
      "inputs": [],
      "name": "active",
      "outputs": [
        {
          "internalType": "bool",
          "name": "",
          "type": "bool"
        }
      ],
      "stateMutability": "view",
      "type": "function"
    },
    {
      "inputs": [],
      "name": "getOwner",
      "outputs": [
        {
          "internalType": "address",
          "name": "",
          "type": "address"
        }
      ],
      "stateMutability": "payable",
      "type": "function"
    },
    {
      "inputs": [
        {
          "internalType": "address",
          "name": "",
          "type": "address"
        },
        {
          "internalType": "uint256",
          "name": "",
          "type": "uint256"
        }
      ],
      "name": "house",
      "outputs": [
        {
          "internalType": "uint256",
          "name": "propertyId",
          "type": "uint256"
        },
        {
          "internalType": "uint256",
          "name": "cost",
          "type": "uint256"
        },
        {
          "internalType": "string",
          "name": "location",
          "type": "string"
        },
        {
          "internalType": "enum RealEstate.STATUS",
          "name": "status",
          "type": "uint8"
        },
        {
          "internalType": "enum RealEstate.PROPERTY_TYPE",
          "name": "property_type",
          "type": "uint8"
        },
        {
          "internalType": "address",
          "name": "ownerAddr",
          "type": "address"
        }
      ],
      "stateMutability": "view",
      "type": "function"
    },
    {
      "inputs": [
        {
          "internalType": "uint256",
          "name": "",
          "type": "uint256"
        }
      ],
      "name": "liens",
      "outputs": [
        {
          "internalType": "uint256",
          "name": "position",
          "type": "uint256"
        },
        {
          "internalType": "address",
          "name": "lienholder",
          "type": "address"
        },
        {
          "internalType": "uint256",
          "name": "origination_date",
          "type": "uint256"
        },
        {
          "internalType": "uint256",
          "name": "terms",
          "type": "uint256"
        },
        {
          "internalType": "uint256",
          "name": "amount",
          "type": "uint256"
        }
      ],
      "stateMutability": "view",
      "type": "function"
    },
    {
      "inputs": [],
      "name": "owner",
      "outputs": [
        {
          "internalType": "address",
          "name": "",
          "type": "address"
        }
      ],
      "stateMutability": "view",
      "type": "function"
    },
    {
      "inputs": [
        {
          "internalType": "uint256",
          "name": "",
          "type": "uint256"
        }
      ],
      "name": "property",
      "outputs": [
        {
          "internalType": "uint256",
          "name": "propertyId",
          "type": "uint256"
        },
        {
          "internalType": "uint256",
          "name": "cost",
          "type": "uint256"
        },
        {
          "internalType": "string",
          "name": "location",
          "type": "string"
        },
        {
          "internalType": "enum RealEstate.STATUS",
          "name": "status",
          "type": "uint8"
        },
        {
          "internalType": "enum RealEstate.PROPERTY_TYPE",
          "name": "property_type",
          "type": "uint8"
        },
        {
          "internalType": "address",
          "name": "ownerAddr",
          "type": "address"
        }
      ],
      "stateMutability": "view",
      "type": "function"
    },
    {
      "inputs": [],
      "name": "propertyCount",
      "outputs": [
        {
          "internalType": "uint256",
          "name": "",
          "type": "uint256"
        }
      ],
      "stateMutability": "view",
      "type": "function"
    },
    {
      "inputs": [],
      "name": "renounceOwnership",
      "outputs": [],
      "stateMutability": "payable",
      "type": "function"
    },
    {
      "inputs": [
        {
          "internalType": "address",
          "name": "newOwner",
          "type": "address"
        }
      ],
      "name": "transferOwnership",
      "outputs": [],
      "stateMutability": "payable",
      "type": "function"
    },
    {
      "stateMutability": "payable",
      "type": "receive"
    },
    {
      "inputs": [
        {
          "internalType": "uint256",
          "name": "_cost",
          "type": "uint256"
        },
        {
          "internalType": "string",
          "name": "_location",
          "type": "string"
        },
        {
          "internalType": "enum RealEstate.STATUS",
          "name": "_status",
          "type": "uint8"
        },
        {
          "internalType": "enum RealEstate.PROPERTY_TYPE",
          "name": "_type",
          "type": "uint8"
        },
        {
          "internalType": "address",
          "name": "_ownerAddr",
          "type": "address"
        }
      ],
      "name": "addNewProperty",
      "outputs": [],
      "stateMutability": "payable",
      "type": "function"
    },
    {
      "inputs": [
        {
          "internalType": "uint256",
          "name": "id",
          "type": "uint256"
        },
        {
          "internalType": "address",
          "name": "_buyer",
          "type": "address"
        }
      ],
      "name": "changeOwnership",
      "outputs": [
        {
          "internalType": "address",
          "name": "",
          "type": "address"
        },
        {
          "internalType": "enum RealEstate.STATUS",
          "name": "status",
          "type": "uint8"
        },
        {
          "internalType": "bool",
          "name": "_statusChange",
          "type": "bool"
        }
      ],
      "stateMutability": "payable",
      "type": "function"
    },
    {
      "inputs": [
        {
          "internalType": "address",
          "name": "propertyOwner",
          "type": "address"
        }
      ],
      "name": "creatingArrayForPropertiesNotSold",
      "outputs": [
        {
          "internalType": "uint256[]",
          "name": "",
          "type": "uint256[]"
        }
      ],
      "stateMutability": "nonpayable",
      "type": "function"
    },
    {
      "inputs": [],
      "name": "getLengthOfMyArray",
      "outputs": [
        {
          "internalType": "uint256",
          "name": "",
          "type": "uint256"
        }
      ],
      "stateMutability": "view",
      "type": "function"
    },
    {
      "inputs": [
        {
          "internalType": "uint256",
          "name": "propertyCounter",
          "type": "uint256"
        }
      ],
      "name": "getLengthArray",
      "outputs": [
        {
          "internalType": "uint256",
          "name": "",
          "type": "uint256"
        }
      ],
      "stateMutability": "pure",
      "type": "function"
    },
    {
      "inputs": [
        {
          "internalType": "uint256",
          "name": "id",
          "type": "uint256"
        },
        {
          "internalType": "address",
          "name": "",
          "type": "address"
        }
      ],
      "name": "getPropertyDetails",
      "outputs": [
        {
          "internalType": "uint256",
          "name": "_id",
          "type": "uint256"
        },
        {
          "internalType": "uint256",
          "name": "cost",
          "type": "uint256"
        },
        {
          "internalType": "string",
          "name": "location",
          "type": "string"
        },
        {
          "internalType": "enum RealEstate.STATUS",
          "name": "status",
          "type": "uint8"
        },
        {
          "internalType": "address",
          "name": "o",
          "type": "address"
        }
      ],
      "stateMutability": "view",
      "type": "function"
    },
    {
      "inputs": [
        {
          "internalType": "uint256",
          "name": "id",
          "type": "uint256"
        },
        {
          "internalType": "uint256",
          "name": "_newValue",
          "type": "uint256"
        }
      ],
      "name": "changeValue",
      "outputs": [
        {
          "internalType": "bool",
          "name": "",
          "type": "bool"
        }
      ],
      "stateMutability": "payable",
      "type": "function"
    }
  ],
  "bytecode": "0x608080604052346100605760008054600160a060020a03191633908117825542600155907f8be0079c531659141344cd1fd0a4f28419497f9722a3daafe3b4186f6b6457e08180a3600160ff19600354161760035561104990816100668239f35b600080fdfe6080604090808252600490813610156100c8575b50361561009957333203610055577f26875833861a2b006512a11f1b86edf95df96131040f3caeed72989ee9858083825180610050343383610cce565b0390a1005b6020606492519160e560020a62461bcd02835282015260196024820152603860020a787068697368696e672061747461636b2064657465637465643f026044820152fd5b7fcc85d09d309785db93d6df19917f2e6cc07fe27cd01c08c8279145deb5cf4526825180610050343383610cce565b60009060e060020a823504906302fb0c5e8214610a105750806330e1ad32146109ac5780633789dc7c1461080057806342148224146106195780635163b905146105fa578063524fa37f146105735780636491db31146104ec578063715018a6146104a75780638709b2e714610468578063893d20e81461040557806389b3887e146103af5780638da5cb5b14610386578063b8fb3a511461036a578063c361a3351461034b578063c63f6052146102f1578063d2540259146102d3578063f2fde38b146102165763ffa1ad7403610013578234610212578160031936011261021257805191828201906001604060020a038211848310176101fc57506101f893508152600a825260b060020a69312e362e342d6265746102602083015251918291602083526020830190610b6d565b0390f35b60e060020a634e487b7102815260418552602490fd5b5080fd5b50919060203660031901126102cf5761022d610c22565b835491600160a060020a0380841692610247338514610ce9565b169384156102755750508290600080516020610ff48339815191528580a3600160a060020a03191617815580f35b5160e560020a62461bcd028152602091810191909152602660248201527f4f776e61626c653a206e6577206f776e657220697320746865207a65726f2061604482015260d060020a65646472657373026064820152608490fd5b8280fd5b5091346102cf5760203660031901126102cf57602092505190358152f35b5091346102cf5760203660031901126102cf578060a0938335815260096020522080549260018560020a03600183015416926002830154916003840154930154938151958652602086015284015260608301526080820152f35b509190346102cf57826003193601126102cf5760209250549051908152f35b50823461021257816003193601126102125760209051601e8152f35b5082346102125781600319360112610212576005549051600160a060020a039091168152602090f35b508280600319360112610212576103fd6103ea6060946103cd610c3d565b906103e4600160a060020a03809754163314610ce9565b35610f38565b9291948451951685526020850190610bad565b151590820152f35b508083916003193601126104655760015492601e840180941161044f5750610439602093421161043481610c89565b610c89565b42600155549051600160a060020a039091168152f35b60e060020a634e487b7102825260119052602490fd5b80fd5b509190816003193601126102cf579160209261048f600160a060020a038354163314610ce9565b35815260078352600182602435922001555160018152f35b508060031936011261046557805481600160a060020a0382166104cb338214610ce9565b600080516020610ff48339815191528280a3600160a060020a031916815580f35b838234610465578160031936011261046557610506610c22565b600160a060020a0390811682526008602052828220805491926024359283101561046557506101f89161053891610c53565b5092835490600185015491600361055160028801610ac8565b9601549151958695620100008404169360ff8061010086041694169287610bd4565b50903461021257826003193601126102125782903591610591610c3d565b508281526007602052206105d160018201549360a06105b7600260038601549501610ac8565b9180519687968752602087015285015260a0840190610b6d565b906105e26060840160ff8316610bad565b620100009004600160a060020a031660808301520390f35b5082346102125781600319360112610212576020906006549051908152f35b509060a0366003190112610212576024928135919084356001604060020a038082116107fc57366023830112156107fc57818401359081116107e75782519060209261066e84601f19601f8501160184610aa5565b818352368983830101116107df578188928a8693018386013783010152604435848110156107e3576064359060098210156107df57608435600160a060020a0381811694918590036107db576106c8908a54163314610ce9565b888754600181018091116107c657926008969594926107318b8a610753958861075c998f558251936106f985610a70565b8185528c85015285838501526107128760608601610d35565b61071f8960808601610d41565b8a60a0850152815260078b5220610d95565b89549a89519b6107408d610a70565b8c52878c0152888b015260608a01610d35565b60808801610d41565b60a086018190528652528320805490604060020a8210156107b0579061078791600182018155610c53565b91909161079c57509061079991610d95565b80f35b60e060020a634e487b710284528390528383fd5b505060e060020a634e487b710283526041905250fd5b60e060020a634e487b71028252601189528b82fd5b8980fd5b8780fd5b8680fd5b60e060020a634e487b71028652604184528686fd5b8580fd5b509034610212576020806003193601126102cf5761081c610c22565b93600690815485835580610994575b5094600160a060020a0316845b81865260088085528787208054831015610915578261085691610c53565b5060ff60038092015416878110156108ff5703610896575b50600019811461088057600101610838565b60e060020a634e487b7102865260118552602486fd5b82875284526108a781888820610c53565b50548354604060020a8110156108e957600181018086558110156108d35784885285882001553861086e565b60e060020a634e487b7102885260328752602488fd5b60e060020a634e487b7102885260418752602488fd5b60e060020a634e487b7102895260218852602489fd5b8589868a8251808584549182815201908194845286842090845b8181106109805750505081610945910382610aa5565b83519485948186019282875251809352850193925b82811061096957505050500390f35b83518552869550938101939281019260010161095a565b82548452928801926001928301920161092f565b8286528386206109a691810190610d4d565b3861082b565b509190346102cf5760203660031901126102cf579181923581526007602052206101f881549260018301549060036109e660028601610ac8565b9401549051948594600160a060020a03620100008404169360ff6101008504811694169287610bd4565b90503461021257816003193601126102125760209060ff6003541615158152f35b9060016002830492168015610a66575b6020831014610a4c57565b60e060020a634e487b710260009081526022600452602490fd5b91607f1691610a41565b60c081019081106001604060020a03821117610a8b57604052565b60e060020a634e487b710260009081526041600452602490fd5b601f909101601f19168101906001604060020a03821190821017610a8b57604052565b9060405191826000825492610adc84610a31565b908184526001948581169081600014610b4b5750600114610b08575b5050610b0692500383610aa5565b565b9093915060005260209081600020936000915b818310610b33575050610b0693508201013880610af8565b85548884018501529485019487945091830191610b1b565b915050610b0694506020925060ff191682840152151581028201013880610af8565b919082519283825260005b848110610b99575050826000602080949584010152601f8019910116010190565b602081830181015184830182015201610b78565b906004821015610bba5752565b60e060020a634e487b710260009081526021600452602490fd5b9493969592610c0492610bf9928752602087015260c0604087015260c0860190610b6d565b956060850190610bad565b6009821015610bba5760a091608084015260018260020a0316910152565b60043590600160a060020a0382168203610c3857565b600080fd5b60243590600160a060020a0382168203610c3857565b8054821015610c6f576000526004602060002091020190600090565b60e060020a634e487b710260009081526032600452602490fd5b15610c9057565b60405160e560020a62461bcd0281526020600482015260106024820152608160020a6f3930ba32903634b6b4ba1032b93937b9026044820152606490fd5b600160a060020a039091168152602081019190915260400190565b15610cf057565b60405160e560020a62461bcd0281526020600482015260176024820152604960020a7630b1b1b2b9b9903232b734b2b2103337b91037bbb732b9026044820152606490fd5b6004821015610bba5752565b6009821015610bba5752565b818110610d58575050565b60008155600101610d4d565b80546201000060b060020a031916600160a060020a0390921662010000026201000060b060020a0316919091179055565b815181556020808301516001808401919091556040840151805190939260028401926001604060020a038311610a8b57610dcf8454610a31565b601f8111610ed6575b5081601f8411600114610e655750508190600395600092610e5a575b5050816002029160080260020a6000190419161790555b016060820151916004831015610bba578154926080820151936009851015610bba5760ff61ff00610100610b0697021692169061ffff19161717825560a060018160020a039101511690610d64565b015190503880610df4565b9190939495601f1984168660005283600020936000905b828210610ebf5750509160029391856003999897969410610ea4575b50505002019055610e0b565b01516008601f841602840a6000190419169055388080610e98565b808886978294978701518155019601940190610e7c565b610eff9085600052836000208480601f880104820192818810610f05575b601f01040190610d4d565b38610dd8565b9192508291610ef4565b15610f1657565b60405160e560020a62461bcd0281526020600482015260006024820152604490fd5b91906000926000818152600760205260ff6003604083200154166004811015610fdc576002610f679114610f0f565b818152600760205260408120600301546201000092600160a060020a0385811692909190610f9c908690048316841415610f0f565b83526007602052604083206003018054909490041614610fd35750610fc18282610d64565b805460ff191660031790559190600190565b92935050918190565b60e060020a634e487b710282526021600452602482fdfe8be0079c531659141344cd1fd0a4f28419497f9722a3daafe3b4186f6b6457e0a264697066735822122051742f04951bcff64efad94289b301056e81dea046ac6d7d7c2c938e0b7dafb264736f6c63430008120033",
  "immutableReferences": {},
  "source": "// SPDX-License-Identifier: CC-BY-4.0\r\npragma solidity >=0.4.22 <0.9.0;\r\n\r\nimport \"../common/Version.sol\";\r\nimport \"../common/Owned.sol\";\r\n\r\n// current status: 2 different states.\r\ncontract RealEstate is Version, Owned {\r\n    bool public active;\r\n    enum STATUS {\r\n        OFFMARKET,\r\n        LISTED,\r\n        PENDING,\r\n        SOLD\r\n    }\r\n\r\n    enum PROPERTY_TYPE {\r\n        SINGLEFAMILY,\r\n        DUPLEX,\r\n        TRIPLEX,\r\n        QUADPLEX,\r\n        MULTIFAMILY,\r\n        CONDO,\r\n        COOP,\r\n        MOBILEHOME,\r\n        LAND\r\n    }\r\n\r\n    constructor ()\r\n    {\r\n        active = true;\r\n    }\r\n\r\n    //counter to count property & increment Id.\r\n    uint256 public propertyCount;\r\n    address public owner;\r\n    uint[] private myArray;\r\n\r\n    // A lien should be a separate contract?\r\n    struct Lien {\r\n        uint position;\r\n        address lienholder;\r\n        uint256 origination_date;\r\n        uint256 terms;\r\n        uint256 amount;\r\n    }\r\n\r\n    struct NewProperty {\r\n        uint propertyId;\r\n        uint cost;\r\n        string location;\r\n        STATUS status;\r\n        PROPERTY_TYPE property_type;\r\n        address ownerAddr;\r\n    }\r\n\r\n    struct Sale {\r\n        address property;\r\n        uint256 sale_date;\r\n        address seller;\r\n        address buyer;\r\n        uint256 amount;\r\n    }\r\n\r\n    struct Taxes {\r\n        address taxcollector;\r\n        address property;\r\n        uint256 amount;\r\n    }\r\n\r\n    struct TaxRecord {\r\n        Taxes tax;\r\n        address payer;\r\n        uint256 duedate;\r\n        uint256 date_paid;\r\n        uint256 amount;\r\n    }\r\n\r\n    struct TaxDeliquency {\r\n        Taxes tax;\r\n        uint256 date;\r\n        uint256 amount;\r\n        bool    certificate_issued;\r\n        bool    taxdeed_issued;\r\n    }\r\n\r\n    mapping(uint => NewProperty) public property;\r\n    mapping(address => NewProperty[]) public house;\r\n    mapping(uint => Lien) public liens;\r\n\r\n    //Add new property..\r\n    function addNewProperty(uint _cost, string memory _location, STATUS _status, PROPERTY_TYPE _type, address _ownerAddr)\r\n        public\r\n        payable\r\n        onlyOwner\r\n    {\r\n        propertyCount += 1;\r\n        property[propertyCount] = NewProperty(propertyCount, _cost, _location, _status, _type, _ownerAddr);\r\n\r\n        NewProperty memory houses = NewProperty(\r\n            {\r\n                propertyId: propertyCount,\r\n                cost: _cost,\r\n                location: _location,\r\n                status: _status,\r\n                property_type: _type,\r\n                ownerAddr: _ownerAddr\r\n            });\r\n        house[_ownerAddr].push(houses);\r\n    }\r\n\r\n    //Request Change of Ownership..\r\n\tfunction changeOwnership(uint id, address _buyer)\r\n        public\r\n        payable\r\n        onlyOwner\r\n        returns (address, STATUS status, bool _statusChange)\r\n    {\r\n\t    // _buyer = 0x814D874D527eE258c315fE86B084Df58887cE5dF; //have to change the address to simulate the ether address on that day;\r\n\t    // _buyer == address(0);\r\n\t\trequire(property[id].status == STATUS.PENDING, \"\");\r\n\t    require(property[id].ownerAddr != _buyer, \"\");\r\n\r\n\t    if (property[id].ownerAddr != _buyer) {\r\n\t        property[id].ownerAddr = _buyer;\r\n\t        property[id].status = STATUS.SOLD;\r\n\t        _statusChange = true;\r\n    \t    return (_buyer, status, _statusChange);\r\n\t    } else {\r\n\t        _statusChange = false;\r\n    \t    return (_buyer, status, _statusChange);\r\n\t    }\r\n\t}\r\n\r\n    // Get all property details of an address..\r\n    function creatingArrayForPropertiesNotSold(address propertyOwner)\r\n        public\r\n        returns (uint[] memory)\r\n    {\r\n        delete myArray;\r\n        for (uint i = 0; i < (house[propertyOwner].length); i++) {\r\n            if (house[propertyOwner][i].status != STATUS.SOLD) {\r\n                myArray.push(house[propertyOwner][i].propertyId);\r\n            }\r\n\t    }  return (myArray);\r\n    }\r\n\r\n    //get the Length of myArray which stores the ID of properties with status not sold for each address..\r\n    function getLengthOfMyArray()\r\n        public\r\n        view\r\n        returns (uint)\r\n    {\r\n        return myArray.length;\r\n    }\r\n\r\n    //get the length of the array..\r\n    function getLengthArray(uint propertyCounter)\r\n        public\r\n        pure\r\n        returns(uint)\r\n    {\r\n        return propertyCounter;\r\n    }\r\n\r\n\r\n    //Get the property details..\r\n\tfunction getPropertyDetails(uint id, address)\r\n        public\r\n        view\r\n        returns (uint _id, uint cost, string memory location, STATUS status, address o)\r\n    {\r\n\t\treturn (id, property[id].cost, property[id].location, property[id].status, property[id].ownerAddr);\r\n\t}\r\n\r\n    //Changing the Value of the property..\r\n    function changeValue(uint id, uint _newValue)\r\n        public\r\n        payable\r\n        onlyOwner\r\n        returns (bool)\r\n    {\r\n        property[id].cost = _newValue;\r\n        return true;\r\n    }\r\n}",
  "sourcePath": "/Volumes/HOME/pingleware-contracts/contracts/realestate/RealEstate.sol",
  "compiler": {
    "name": "solc",
    "version": "0.8.18+commit.87f61d96.Emscripten.clang"
  },
  "schemaVersion": "3.4.12",
  "updatedAt": "2024-05-23T18:56:27.025Z",
  "devdoc": {
    "kind": "dev",
    "methods": {
      "renounceOwnership()": {
        "details": "Leaves the contract without owner. It will not be possible to call `onlyOwner` functions anymore. Can only be called by the current owner. NOTE: Renouncing ownership will leave the contract without an owner, thereby removing any functionality that is only available to the owner."
      },
      "transferOwnership(address)": {
        "details": "Transfers ownership of the contract to a new account (`newOwner`). Can only be called by the current owner."
      }
    },
    "version": 1
  },
  "userdoc": {
    "kind": "user",
    "methods": {},
    "version": 1
  }
}