{
  "contractName": "Records",
  "abi": [
    {
      "inputs": [],
      "stateMutability": "nonpayable",
      "type": "constructor"
    },
    {
      "anonymous": false,
      "inputs": [
        {
          "indexed": false,
          "internalType": "address",
          "name": "sender",
          "type": "address"
        },
        {
          "indexed": false,
          "internalType": "uint256",
          "name": "amount",
          "type": "uint256"
        }
      ],
      "name": "FallbackEvent",
      "type": "event"
    },
    {
      "anonymous": false,
      "inputs": [
        {
          "indexed": true,
          "internalType": "address",
          "name": "previousOwner",
          "type": "address"
        },
        {
          "indexed": true,
          "internalType": "address",
          "name": "newOwner",
          "type": "address"
        }
      ],
      "name": "OwnershipTransferred",
      "type": "event"
    },
    {
      "anonymous": false,
      "inputs": [
        {
          "indexed": false,
          "internalType": "string",
          "name": "fips",
          "type": "string"
        },
        {
          "indexed": false,
          "internalType": "address",
          "name": "current_owner",
          "type": "address"
        },
        {
          "indexed": false,
          "internalType": "uint256",
          "name": "book",
          "type": "uint256"
        },
        {
          "indexed": false,
          "internalType": "uint256",
          "name": "page",
          "type": "uint256"
        },
        {
          "indexed": false,
          "internalType": "string",
          "name": "folio",
          "type": "string"
        },
        {
          "indexed": false,
          "internalType": "string",
          "name": "legal_description",
          "type": "string"
        },
        {
          "indexed": false,
          "internalType": "uint256",
          "name": "purchased",
          "type": "uint256"
        }
      ],
      "name": "PropertyAdded",
      "type": "event"
    },
    {
      "anonymous": false,
      "inputs": [
        {
          "indexed": false,
          "internalType": "string",
          "name": "fips",
          "type": "string"
        },
        {
          "indexed": false,
          "internalType": "address",
          "name": "current_owner",
          "type": "address"
        },
        {
          "indexed": false,
          "internalType": "address",
          "name": "new_owner",
          "type": "address"
        },
        {
          "indexed": false,
          "internalType": "string",
          "name": "folio",
          "type": "string"
        },
        {
          "indexed": false,
          "internalType": "uint256",
          "name": "timestamp",
          "type": "uint256"
        }
      ],
      "name": "PropertyTransferred",
      "type": "event"
    },
    {
      "anonymous": false,
      "inputs": [
        {
          "indexed": false,
          "internalType": "address",
          "name": "sender",
          "type": "address"
        },
        {
          "indexed": false,
          "internalType": "uint256",
          "name": "amount",
          "type": "uint256"
        }
      ],
      "name": "ReceiveEvent",
      "type": "event"
    },
    {
      "stateMutability": "payable",
      "type": "fallback",
      "payable": true
    },
    {
      "inputs": [],
      "name": "VERSION",
      "outputs": [
        {
          "internalType": "string",
          "name": "",
          "type": "string"
        }
      ],
      "stateMutability": "view",
      "type": "function",
      "constant": true
    },
    {
      "inputs": [],
      "name": "WAIT",
      "outputs": [
        {
          "internalType": "uint256",
          "name": "",
          "type": "uint256"
        }
      ],
      "stateMutability": "view",
      "type": "function",
      "constant": true
    },
    {
      "inputs": [],
      "name": "getOwner",
      "outputs": [
        {
          "internalType": "address",
          "name": "",
          "type": "address"
        }
      ],
      "stateMutability": "payable",
      "type": "function",
      "payable": true
    },
    {
      "inputs": [
        {
          "internalType": "address",
          "name": "",
          "type": "address"
        },
        {
          "internalType": "string",
          "name": "",
          "type": "string"
        },
        {
          "internalType": "string",
          "name": "",
          "type": "string"
        }
      ],
      "name": "property_records",
      "outputs": [
        {
          "internalType": "uint256",
          "name": "book",
          "type": "uint256"
        },
        {
          "internalType": "uint256",
          "name": "page",
          "type": "uint256"
        },
        {
          "internalType": "string",
          "name": "folio",
          "type": "string"
        },
        {
          "internalType": "string",
          "name": "legal_description",
          "type": "string"
        },
        {
          "internalType": "address",
          "name": "owner",
          "type": "address"
        },
        {
          "internalType": "uint256",
          "name": "purchased_timestamp",
          "type": "uint256"
        },
        {
          "internalType": "string",
          "name": "fips",
          "type": "string"
        }
      ],
      "stateMutability": "view",
      "type": "function",
      "constant": true
    },
    {
      "inputs": [],
      "name": "renounceOwnership",
      "outputs": [],
      "stateMutability": "payable",
      "type": "function",
      "payable": true
    },
    {
      "inputs": [
        {
          "internalType": "address",
          "name": "newOwner",
          "type": "address"
        }
      ],
      "name": "transferOwnership",
      "outputs": [],
      "stateMutability": "payable",
      "type": "function",
      "payable": true
    },
    {
      "stateMutability": "payable",
      "type": "receive",
      "payable": true
    },
    {
      "inputs": [
        {
          "internalType": "string",
          "name": "fips",
          "type": "string"
        },
        {
          "internalType": "uint256",
          "name": "book",
          "type": "uint256"
        },
        {
          "internalType": "uint256",
          "name": "page",
          "type": "uint256"
        },
        {
          "internalType": "string",
          "name": "folio",
          "type": "string"
        },
        {
          "internalType": "string",
          "name": "legal_description",
          "type": "string"
        },
        {
          "internalType": "address",
          "name": "current_owner",
          "type": "address"
        },
        {
          "internalType": "uint256",
          "name": "purchased",
          "type": "uint256"
        }
      ],
      "name": "addProperty",
      "outputs": [],
      "stateMutability": "nonpayable",
      "type": "function"
    },
    {
      "inputs": [
        {
          "internalType": "string",
          "name": "fips",
          "type": "string"
        },
        {
          "internalType": "uint256",
          "name": "book",
          "type": "uint256"
        },
        {
          "internalType": "uint256",
          "name": "page",
          "type": "uint256"
        },
        {
          "internalType": "string",
          "name": "folio",
          "type": "string"
        },
        {
          "internalType": "address",
          "name": "new_owner",
          "type": "address"
        }
      ],
      "name": "transfer",
      "outputs": [],
      "stateMutability": "nonpayable",
      "type": "function"
    },
    {
      "inputs": [
        {
          "internalType": "address",
          "name": "new_owner",
          "type": "address"
        },
        {
          "internalType": "string",
          "name": "fips",
          "type": "string"
        },
        {
          "internalType": "string",
          "name": "folio",
          "type": "string"
        }
      ],
      "name": "updateOwner",
      "outputs": [],
      "stateMutability": "nonpayable",
      "type": "function"
    }
  ],
  "bytecode": "0x6080604052600060015534801561001557600080fd5b5060008054600160a060020a031916339081178255426001556040519091907f8be0079c531659141344cd1fd0a4f28419497f9722a3daafe3b4186f6b6457e0908290a3611460806100686000396000f3fe60806040526004361061007d5760e060020a6000350463152ff9fc8114610144578063291a21e814610180578063715018a6146101a2578063893d20e8146101aa578063aca241fe146101ca578063b8fb3a51146101ea578063e44a592c1461020d578063f2fde38b1461022d578063ffa1ad7414610240576100bd565b366100bd577fcc85d09d309785db93d6df19917f2e6cc07fe27cd01c08c8279145deb5cf452633346040516100b3929190610da8565b60405180910390a1005b3233146101135760405160e560020a62461bcd0281526020600482015260196024820152603860020a787068697368696e672061747461636b2064657465637465643f0260448201526064015b60405180910390fd5b7f26875833861a2b006512a11f1b86edf95df96131040f3caeed72989ee985808333346040516100b3929190610da8565b34801561015057600080fd5b5061016461015f366004610e83565b610286565b6040516101779796959493929190610f46565b60405180910390f35b34801561018c57600080fd5b506101a061019b366004610faf565b610498565b005b6101a061062a565b6101b261068f565b604051600160a060020a039091168152602001610177565b3480156101d657600080fd5b506101a06101e5366004611064565b610705565b3480156101f657600080fd5b506101ff601e81565b604051908152602001610177565b34801561021957600080fd5b506101a0610228366004610e83565b610bc1565b6101a061023b3660046110eb565b610cc7565b34801561024c57600080fd5b506102796040518060400160405280600a815260200160b060020a69312e362e342d626574610281525081565b604051610177919061110d565b60036020908152600093845260409093208251808401850180519281529085019385019390932092528051808201840180519381529084019190930120915280546001820154600283018054929391926102df90611120565b80601f016020809104026020016040519081016040528092919081815260200182805461030b90611120565b80156103585780601f1061032d57610100808354040283529160200191610358565b820191906000526020600020905b81548152906001019060200180831161033b57829003601f168201915b50505050509080600301805461036d90611120565b80601f016020809104026020016040519081016040528092919081815260200182805461039990611120565b80156103e65780601f106103bb576101008083540402835291602001916103e6565b820191906000526020600020905b8154815290600101906020018083116103c957829003601f168201915b50505050600483015460058401546006850180549495600160a060020a03909316949193509061041590611120565b80601f016020809104026020016040519081016040528092919081815260200182805461044190611120565b801561048e5780601f106104635761010080835404028352916020019161048e565b820191906000526020600020905b81548152906001019060200180831161047157829003601f168201915b5050505050905087565b600054600160a060020a031633146104c55760405160e560020a62461bcd02815260040161010a9061115e565b6040518060e0016040528087815260200186815260200185815260200184815260200183600160a060020a03168152602001828152602001888152506003600033600160a060020a0316600160a060020a03168152602001908152602001600020886040516105349190611195565b9081526020016040518091039020856040516105509190611195565b908152604080516020928190038301902083518155918301516001830155820151600282019061058090826111ff565b506060820151600382019061059590826111ff565b506080820151600482018054600160a060020a031916600160a060020a0390921691909117905560a0820151600582015560c082015160068201906105da90826111ff565b509050507f49337520b1cfa3bd0767541649878cb809155121af4977b12cc6af2992802dbd8783888888888760405161061997969594939291906112c4565b60405180910390a150505050505050565b600054600160a060020a031633146106575760405160e560020a62461bcd02815260040161010a9061132f565b60008054604051600160a060020a039091169060008051602061140b833981519152908390a360008054600160a060020a0319169055565b6000601e6001546106a09190611363565b42116106c15760405160e560020a62461bcd02815260040161010a9061138e565b601e6001546106d09190611363565b42116106f15760405160e560020a62461bcd02815260040161010a9061138e565b5042600155600054600160a060020a031690565b33600081815260036020526040908190209051879285929091610729908590611195565b9081526020016040518091039020826040516107459190611195565b90815260405190819003602001902060040154600160a060020a0316146107ac5760405160e560020a62461bcd0281526020600482015260156024820152605960020a743737ba103a34329031bab93932b73a1037bbb732b902604482015260640161010a565b3360009081526003602052604080822090516107c9908a90611195565b9081526020016040518091039020856040516107e59190611195565b90815260200160405180910390206040518060e0016040529081600082015481526020016001820154815260200160028201805461082290611120565b80601f016020809104026020016040519081016040528092919081815260200182805461084e90611120565b801561089b5780601f106108705761010080835404028352916020019161089b565b820191906000526020600020905b81548152906001019060200180831161087e57829003601f168201915b505050505081526020016003820180546108b490611120565b80601f01602080910402602001604051908101604052809291908181526020018280546108e090611120565b801561092d5780601f106109025761010080835404028352916020019161092d565b820191906000526020600020905b81548152906001019060200180831161091057829003601f168201915b50505091835250506004820154600160a060020a031660208201526005820154604082015260068201805460609092019161096790611120565b80601f016020809104026020016040519081016040528092919081815260200182805461099390611120565b80156109e05780601f106109b5576101008083540402835291602001916109e0565b820191906000526020600020905b8154815290600101906020018083116109c357829003601f168201915b50505050508152505090506040518060e001604052808881526020018781526020018681526020018260600151815260200185600160a060020a031681526020014281526020018260c001518152506003600086600160a060020a0316600160a060020a0316815260200190815260200160002089604051610a629190611195565b908152602001604051809103902086604051610a7e9190611195565b9081526040805160209281900383019020835181559183015160018301558201516002820190610aae90826111ff565b5060608201516003820190610ac390826111ff565b506080820151600482018054600160a060020a031916600160a060020a0390921691909117905560a0820151600582015560c08201516006820190610b0890826111ff565b505033600090815260036020526040908190209051869250610b2b908b90611195565b908152602001604051809103902086604051610b479190611195565b9081526040519081900360200181206004018054600160a060020a0393909316600160a060020a0319909316929092179091557f04ee66ff49881a80de27b2ce42900bafdbc74a68a87d0d1496fd2c751d222a8290610baf908a90339088908a9042906113bb565b60405180910390a15050505050505050565b600054600160a060020a03163314610bee5760405160e560020a62461bcd02815260040161010a9061115e565b33600081815260036020526040908190209051610c0c908590611195565b908152602001604051809103902082604051610c289190611195565b90815260405190819003602001902060040154600160a060020a031603610cc257600160a060020a038316600090815260036020526040908190209051849190610c73908590611195565b908152602001604051809103902082604051610c8f9190611195565b9081526040519081900360200190206004018054600160a060020a0392909216600160a060020a03199092169190911790555b505050565b600054600160a060020a03163314610cf45760405160e560020a62461bcd02815260040161010a9061132f565b600160a060020a038116610d5f5760405160e560020a62461bcd02815260206004820152602660248201527f4f776e61626c653a206e6577206f776e657220697320746865207a65726f2061604482015260d060020a6564647265737302606482015260840161010a565b60008054604051600160a060020a038085169392169160008051602061140b83398151915291a360008054600160a060020a031916600160a060020a0392909216919091179055565b600160a060020a03929092168252602082015260400190565b8035600160a060020a0381168114610dd857600080fd5b919050565b60e060020a634e487b710260009081526041600452602490fd5b600082601f830112610e0857600080fd5b81356001604060020a0380821115610e2257610e22610ddd565b604051601f8301601f19908116603f01168101908282118183101715610e4a57610e4a610ddd565b81604052838152866020858801011115610e6357600080fd5b836020870160208301376000602085830101528094505050505092915050565b600080600060608486031215610e9857600080fd5b610ea184610dc1565b925060208401356001604060020a0380821115610ebd57600080fd5b610ec987838801610df7565b93506040860135915080821115610edf57600080fd5b50610eec86828701610df7565b9150509250925092565b60005b83811015610f11578181015183820152602001610ef9565b50506000910152565b60008151808452610f32816020860160208601610ef6565b601f01601f19169290920160200192915050565b87815286602082015260e060408201526000610f6560e0830188610f1a565b8281036060840152610f778188610f1a565b600160a060020a038716608085015260a0840186905283810360c08501529050610fa18185610f1a565b9a9950505050505050505050565b600080600080600080600060e0888a031215610fca57600080fd5b87356001604060020a0380821115610fe157600080fd5b610fed8b838c01610df7565b985060208a0135975060408a0135965060608a013591508082111561101157600080fd5b61101d8b838c01610df7565b955060808a013591508082111561103357600080fd5b506110408a828b01610df7565b93505061104f60a08901610dc1565b915060c0880135905092959891949750929550565b600080600080600060a0868803121561107c57600080fd5b85356001604060020a038082111561109357600080fd5b61109f89838a01610df7565b9650602088013595506040880135945060608801359150808211156110c357600080fd5b506110d088828901610df7565b9250506110df60808701610dc1565b90509295509295909350565b6000602082840312156110fd57600080fd5b61110682610dc1565b9392505050565b6020815260006111066020830184610f1a565b60028104600182168061113457607f821691505b6020821081036111585760e060020a634e487b710260009081526022600452602490fd5b50919050565b6020808252601b908201527f756e617574686f72697a65642c206e6f7420746865206f776e65720000000000604082015260600190565b600082516111a7818460208701610ef6565b9190910192915050565b601f821115610cc2576000818152602081206020601f860104810160208610156111d85750805b6020601f860104820191505b818110156111f7578281556001016111e4565b505050505050565b81516001604060020a0381111561121857611218610ddd565b61122c816112268454611120565b846111b1565b602080601f83116001811461126557600084156112495750858301515b60028086026008870290910a60001904198216178655506111f7565b600085815260208120601f198616915b8281101561129457888601518255948401946001909101908401611275565b50858210156112b457878501516008601f88160260020a60001904191681555b5050505050600202600101905550565b60e0815260006112d760e083018a610f1a565b600160a060020a0389166020840152604083018890526060830187905282810360808401526113068187610f1a565b905082810360a084015261131a8186610f1a565b9150508260c083015298975050505050505050565b6020808252601790820152604960020a7630b1b1b2b9b9903232b734b2b2103337b91037bbb732b902604082015260600190565b808201808211156113885760e060020a634e487b710260009081526011600452602490fd5b92915050565b6020808252601090820152608160020a6f3930ba32903634b6b4ba1032b93937b902604082015260600190565b60a0815260006113ce60a0830188610f1a565b600160a060020a0387811660208501528616604084015282810360608401526113f78186610f1a565b915050826080830152969550505050505056fe8be0079c531659141344cd1fd0a4f28419497f9722a3daafe3b4186f6b6457e0a2646970667358221220225e28a4ce5c2f57a2a6ed14775c954be1069b994abbbd2f8a3e84a0db1b17d164736f6c63430008120033",
  "immutableReferences": {},
  "source": "// SPDX-License-Identifier: CC-BY-4.0\npragma solidity >=0.4.22 <0.9.0;\n\nimport \"../common/Version.sol\";\nimport \"../common/Owned.sol\";\n\n/**\n * Records can eliminate title theft\n */\n\ncontract Records is Version, Owned {\n    struct PropertyIdentifier {\n        uint book;\n        uint page;\n        string folio;\n        string legal_description;\n        address owner;\n        uint256 purchased_timestamp;\n        string fips; // https://www2.census.gov/programs-surveys/decennial/2010/partners/pdf/FIPS_StateCounty_Code.pdf\n    }\n\n    mapping (address => mapping(string => mapping(string => PropertyIdentifier))) public property_records;\n\n    event PropertyAdded(string fips,address current_owner,uint book,uint page,string folio,string legal_description,uint256 purchased);\n    event PropertyTransferred(string fips,address current_owner,address new_owner, string folio, uint256 timestamp);\n\n    constructor() {\n\n    }\n\n    modifier isCurrentOwner(string memory fips,string memory folio) {\n        require(property_records[msg.sender][fips][folio].owner == msg.sender,\"not the current owner\");\n        _;\n    }\n\n    /**\n     * only the contract owner can add a new property. If property owner wallet is unknown, use the contract address as the default property owner\n     * the updateOwner function can be used to change from contract default property owner to the real property owner\n     */\n    function addProperty(string memory fips,uint book,uint page,string memory folio,string memory legal_description,address current_owner,uint256 purchased) okOwner public {\n        property_records[msg.sender][fips][folio] = PropertyIdentifier(book,page,folio,legal_description,current_owner,purchased,fips);\n        emit PropertyAdded(fips,current_owner,book,page,folio,legal_description,purchased);\n    }\n\n    function transfer(string memory fips,uint book,uint page, string memory folio, address new_owner) isCurrentOwner(fips,folio) public {\n        PropertyIdentifier memory property = property_records[msg.sender][fips][folio];       \n        property_records[new_owner][fips][folio] = PropertyIdentifier(book,page,folio,property.legal_description,new_owner,block.timestamp,property.fips);\n        property_records[msg.sender][fips][folio].owner = new_owner;\n        emit PropertyTransferred(fips, msg.sender, new_owner, folio, block.timestamp);\n    }\n\n    function updateOwner(address new_owner, string memory fips, string memory folio) okOwner external {\n        if (property_records[msg.sender][fips][folio].owner == msg.sender) {\n            property_records[new_owner][fips][folio].owner = new_owner;\n        }\n    }\n}",
  "sourcePath": "/Volumes/My Book/projects/pingleware-contracts/contracts/realestate/Records.sol",
  "compiler": {
    "name": "solc",
    "version": "0.8.18+commit.87f61d96.Emscripten.clang"
  },
  "schemaVersion": "3.4.12",
  "updatedAt": "2023-10-24T19:35:40.572Z",
  "networkType": "ethereum",
  "devdoc": {
    "kind": "dev",
    "methods": {
      "renounceOwnership()": {
        "details": "Leaves the contract without owner. It will not be possible to call `onlyOwner` functions anymore. Can only be called by the current owner. NOTE: Renouncing ownership will leave the contract without an owner, thereby removing any functionality that is only available to the owner."
      },
      "transferOwnership(address)": {
        "details": "Transfers ownership of the contract to a new account (`newOwner`). Can only be called by the current owner."
      }
    },
    "version": 1
  },
  "userdoc": {
    "kind": "user",
    "methods": {
      "addProperty(string,uint256,uint256,string,string,address,uint256)": {
        "notice": "only the contract owner can add a new property. If property owner wallet is unknown, use the contract address as the default property owner the updateOwner function can be used to change from contract default property owner to the real property owner"
      }
    },
    "notice": "Records can eliminate title theft",
    "version": 1
  }
}