{
  "contractName": "Records",
  "abi": [
    {
      "inputs": [],
      "stateMutability": "nonpayable",
      "type": "constructor"
    },
    {
      "anonymous": false,
      "inputs": [
        {
          "indexed": false,
          "internalType": "address",
          "name": "sender",
          "type": "address"
        },
        {
          "indexed": false,
          "internalType": "uint256",
          "name": "amount",
          "type": "uint256"
        }
      ],
      "name": "FallbackEvent",
      "type": "event"
    },
    {
      "anonymous": false,
      "inputs": [
        {
          "indexed": true,
          "internalType": "address",
          "name": "previousOwner",
          "type": "address"
        },
        {
          "indexed": true,
          "internalType": "address",
          "name": "newOwner",
          "type": "address"
        }
      ],
      "name": "OwnershipTransferred",
      "type": "event"
    },
    {
      "anonymous": false,
      "inputs": [
        {
          "indexed": false,
          "internalType": "string",
          "name": "fips",
          "type": "string"
        },
        {
          "indexed": false,
          "internalType": "address",
          "name": "current_owner",
          "type": "address"
        },
        {
          "indexed": false,
          "internalType": "uint256",
          "name": "book",
          "type": "uint256"
        },
        {
          "indexed": false,
          "internalType": "uint256",
          "name": "page",
          "type": "uint256"
        },
        {
          "indexed": false,
          "internalType": "string",
          "name": "folio",
          "type": "string"
        },
        {
          "indexed": false,
          "internalType": "string",
          "name": "legal_description",
          "type": "string"
        },
        {
          "indexed": false,
          "internalType": "uint256",
          "name": "purchased",
          "type": "uint256"
        }
      ],
      "name": "PropertyAdded",
      "type": "event"
    },
    {
      "anonymous": false,
      "inputs": [
        {
          "indexed": false,
          "internalType": "string",
          "name": "fips",
          "type": "string"
        },
        {
          "indexed": false,
          "internalType": "address",
          "name": "current_owner",
          "type": "address"
        },
        {
          "indexed": false,
          "internalType": "address",
          "name": "new_owner",
          "type": "address"
        },
        {
          "indexed": false,
          "internalType": "string",
          "name": "folio",
          "type": "string"
        },
        {
          "indexed": false,
          "internalType": "uint256",
          "name": "timestamp",
          "type": "uint256"
        }
      ],
      "name": "PropertyTransferred",
      "type": "event"
    },
    {
      "anonymous": false,
      "inputs": [
        {
          "indexed": false,
          "internalType": "address",
          "name": "sender",
          "type": "address"
        },
        {
          "indexed": false,
          "internalType": "uint256",
          "name": "amount",
          "type": "uint256"
        }
      ],
      "name": "ReceiveEvent",
      "type": "event"
    },
    {
      "stateMutability": "payable",
      "type": "fallback"
    },
    {
      "inputs": [],
      "name": "VERSION",
      "outputs": [
        {
          "internalType": "string",
          "name": "",
          "type": "string"
        }
      ],
      "stateMutability": "view",
      "type": "function"
    },
    {
      "inputs": [],
      "name": "WAIT",
      "outputs": [
        {
          "internalType": "uint256",
          "name": "",
          "type": "uint256"
        }
      ],
      "stateMutability": "view",
      "type": "function"
    },
    {
      "inputs": [],
      "name": "getOwner",
      "outputs": [
        {
          "internalType": "address",
          "name": "",
          "type": "address"
        }
      ],
      "stateMutability": "payable",
      "type": "function"
    },
    {
      "inputs": [
        {
          "internalType": "address",
          "name": "",
          "type": "address"
        },
        {
          "internalType": "string",
          "name": "",
          "type": "string"
        },
        {
          "internalType": "string",
          "name": "",
          "type": "string"
        }
      ],
      "name": "property_records",
      "outputs": [
        {
          "internalType": "uint256",
          "name": "book",
          "type": "uint256"
        },
        {
          "internalType": "uint256",
          "name": "page",
          "type": "uint256"
        },
        {
          "components": [
            {
              "internalType": "uint256",
              "name": "state",
              "type": "uint256"
            },
            {
              "internalType": "uint256",
              "name": "municipality",
              "type": "uint256"
            },
            {
              "internalType": "uint256",
              "name": "township",
              "type": "uint256"
            },
            {
              "internalType": "uint256",
              "name": "range",
              "type": "uint256"
            },
            {
              "internalType": "uint256",
              "name": "section",
              "type": "uint256"
            },
            {
              "internalType": "uint256",
              "name": "subsection",
              "type": "uint256"
            },
            {
              "internalType": "uint256",
              "name": "parcelid",
              "type": "uint256"
            }
          ],
          "internalType": "struct Records.Folio",
          "name": "folio",
          "type": "tuple"
        },
        {
          "internalType": "string",
          "name": "legal_description",
          "type": "string"
        },
        {
          "internalType": "address",
          "name": "owner",
          "type": "address"
        },
        {
          "internalType": "uint256",
          "name": "purchased_timestamp",
          "type": "uint256"
        },
        {
          "internalType": "string",
          "name": "fips",
          "type": "string"
        }
      ],
      "stateMutability": "view",
      "type": "function"
    },
    {
      "inputs": [],
      "name": "renounceOwnership",
      "outputs": [],
      "stateMutability": "payable",
      "type": "function"
    },
    {
      "inputs": [
        {
          "internalType": "address",
          "name": "newOwner",
          "type": "address"
        }
      ],
      "name": "transferOwnership",
      "outputs": [],
      "stateMutability": "payable",
      "type": "function"
    },
    {
      "stateMutability": "payable",
      "type": "receive"
    },
    {
      "inputs": [
        {
          "internalType": "string",
          "name": "fips",
          "type": "string"
        },
        {
          "internalType": "uint256",
          "name": "book",
          "type": "uint256"
        },
        {
          "internalType": "uint256",
          "name": "page",
          "type": "uint256"
        },
        {
          "internalType": "string",
          "name": "folio",
          "type": "string"
        },
        {
          "internalType": "string",
          "name": "legal_description",
          "type": "string"
        },
        {
          "internalType": "address",
          "name": "current_owner",
          "type": "address"
        },
        {
          "internalType": "uint256",
          "name": "purchased",
          "type": "uint256"
        }
      ],
      "name": "addProperty",
      "outputs": [],
      "stateMutability": "nonpayable",
      "type": "function"
    },
    {
      "inputs": [
        {
          "internalType": "string",
          "name": "fips",
          "type": "string"
        },
        {
          "internalType": "uint256",
          "name": "book",
          "type": "uint256"
        },
        {
          "internalType": "uint256",
          "name": "page",
          "type": "uint256"
        },
        {
          "internalType": "string",
          "name": "folio",
          "type": "string"
        },
        {
          "internalType": "address",
          "name": "new_owner",
          "type": "address"
        }
      ],
      "name": "transfer",
      "outputs": [],
      "stateMutability": "nonpayable",
      "type": "function"
    },
    {
      "inputs": [
        {
          "internalType": "address",
          "name": "new_owner",
          "type": "address"
        },
        {
          "internalType": "string",
          "name": "fips",
          "type": "string"
        },
        {
          "internalType": "string",
          "name": "folio",
          "type": "string"
        }
      ],
      "name": "updateOwner",
      "outputs": [],
      "stateMutability": "nonpayable",
      "type": "function"
    },
    {
      "inputs": [
        {
          "components": [
            {
              "internalType": "uint256",
              "name": "state",
              "type": "uint256"
            },
            {
              "internalType": "uint256",
              "name": "municipality",
              "type": "uint256"
            },
            {
              "internalType": "uint256",
              "name": "township",
              "type": "uint256"
            },
            {
              "internalType": "uint256",
              "name": "range",
              "type": "uint256"
            },
            {
              "internalType": "uint256",
              "name": "section",
              "type": "uint256"
            },
            {
              "internalType": "uint256",
              "name": "subsection",
              "type": "uint256"
            },
            {
              "internalType": "uint256",
              "name": "parcelid",
              "type": "uint256"
            }
          ],
          "internalType": "struct Records.Folio",
          "name": "folio",
          "type": "tuple"
        }
      ],
      "name": "folioToString",
      "outputs": [
        {
          "internalType": "string",
          "name": "",
          "type": "string"
        }
      ],
      "stateMutability": "pure",
      "type": "function"
    },
    {
      "inputs": [
        {
          "internalType": "string",
          "name": "str",
          "type": "string"
        }
      ],
      "name": "stringToFolio",
      "outputs": [
        {
          "components": [
            {
              "internalType": "uint256",
              "name": "state",
              "type": "uint256"
            },
            {
              "internalType": "uint256",
              "name": "municipality",
              "type": "uint256"
            },
            {
              "internalType": "uint256",
              "name": "township",
              "type": "uint256"
            },
            {
              "internalType": "uint256",
              "name": "range",
              "type": "uint256"
            },
            {
              "internalType": "uint256",
              "name": "section",
              "type": "uint256"
            },
            {
              "internalType": "uint256",
              "name": "subsection",
              "type": "uint256"
            },
            {
              "internalType": "uint256",
              "name": "parcelid",
              "type": "uint256"
            }
          ],
          "internalType": "struct Records.Folio",
          "name": "",
          "type": "tuple"
        }
      ],
      "stateMutability": "pure",
      "type": "function"
    }
  ],
  "bytecode": "0x608080604052346100535760008054600160a060020a03191633908117825542600155907f8be0079c531659141344cd1fd0a4f28419497f9722a3daafe3b4186f6b6457e08180a3611c1f90816100598239f35b600080fdfe608060405260043610156100c7575b361561009757333203610050577f26875833861a2b006512a11f1b86edf95df96131040f3caeed72989ee98580836040518061004b3433836114bb565b0390a1005b60405160e560020a62461bcd0281526020600482015260196024820152603860020a787068697368696e672061747461636b2064657465637465643f026044820152606490fd5b7fcc85d09d309785db93d6df19917f2e6cc07fe27cd01c08c8279145deb5cf45266040518061004b3433836114bb565b60e060020a6000350463152ff9fc81146110a4578063291a21e814610c0d578063715018a614610bc6578063893312db14610b7d578063893d20e814610b19578063aca241fe146104e9578063b8fb3a51146104cd578063bcced35c14610348578063e44a592c14610257578063f2fde38b1461019f5763ffa1ad740361000e573461019a57600036600319011261019a57610196604051610168816111b3565b600a815260b060020a69312e362e342d62657461026020820152604051918291602083526020830190611444565b0390f35b600080fd5b602036600319011261019a57600435600160a060020a038181169182900361019a576000549081166101d28133146114d6565b82156101fd578290600080516020611baa833981519152600080a3600160a060020a03191617600055005b60405160e560020a62461bcd02815260206004820152602660248201527f4f776e61626c653a206e6577206f776e657220697320746865207a65726f2061604482015260d060020a65646472657373026064820152608490fd5b3461019a5761026536611253565b600054919291600160a060020a03906102819082163314611522565b33600052602090600382526040600020926040518381885196828a01976102a981848b6112ac565b820190815203019020916040519281600a845195878601966102cc81838a6112ac565b81019384528781339503019020015416146102e357005b8361032b9561031092600a98169889600052600383526040600020906040519485938492519283916112ac565b820190815203019020906040519485938492519283916112ac565b820190815203019020018054600160a060020a0319169091179055005b3461019a5760e036600319011261019a5760405161036581611198565b600435908181526104b9602c60209283810190602435825260408101604435815260608201966064358852608083019260843584526103ea6103e36103e36103dc6103d56103ce6103c760c060a089019860a4358a52019860c4358a52611953565b9a51611953565b9751611953565b9c51611953565b9651611953565b9251611953565b9360405199866104038c985180928d808c0191016112ac565b87019460f560020a6101610295868c8201526104298c83519384916022850191016112ac565b01856022820152610443825180938d6024850191016112ac565b0184602482015261045d825180938c6026850191016112ac565b01836026820152610477825180938b6028850191016112ac565b01826028820152610491825180938a602a850191016112ac565b0190602a8201526104aa825180938887850191016112ac565b0103600c8101855201836111ce565b610196604051928284938452830190611444565b3461019a57600036600319011261019a576020604051601e8152f35b3461019a5760a036600319011261019a576004356001604060020a03811161019a5761051990369060040161120c565b6064356001604060020a03811161019a5761053890369060040161120c565b60843590600160a060020a038216820361019a5733600052600360205260406000206020604051809286516105708184868b016112ac565b82019081520301902060405190825161058d8184602087016112ac565b82019081528190036020019020600a015433600160a060020a039190911603610ad65733600052600360205260406000206020604051809286516105d48184868b016112ac565b8201908152030190206020604051809284516105f381848689016112ac565b82019081520301902060405161060881611198565b8154815260018201546020820152610622600283016112cf565b604082015260c0610665600c61063a6009860161135e565b60608501908152600a860154600160a060020a03166080860152600b86015460a0860152940161135e565b91019081526106738361159e565b91519051906040519261068584611198565b6024358452604435602085015260408401526060830152600160a060020a03841660808301524260a083015260c0820152600160a060020a038316600052600360205260406000206020604051809287516106e38184868c016112ac565b8201908152030190206020604051809285516107028184868a016112ac565b82019081520301902090805182556020810151600183015560c06040820151805160028501556020810151600385015560408101516004850155606081015160058501556080810151600685015560a081015160078501550151600883015560608101518051906001604060020a0382116109f657610784600985015461131f565b601f8111610a8f575b50602090601f8311600114610a1b5760c093929160009183610a10575b5050816002029160080260020a6000190419161760098401555b6080810151600a84018054600160a060020a031916600160a060020a039290921691909117905560a0810151600b84015501518051906001604060020a0382116109f657610815600c84015461131f565b601f81116109af575b50602090601f83116001146109235792600c836108ea9794600080516020611bca83398151915299979461090d97600092610918575b5050816002029160080260020a600019041916179101555b336000526003602052600a60406000206020604051809288516108928184868d016112ac565b8201908152030190206020604051809285516108b18184868a016112ac565b820190815203019020018054600160a060020a031916600160a060020a03841617905560405160a0808252909586959091860190611444565b336020860152600160a060020a0390921660408501528382036060850152611444565b4260808301520390a1005b015190508a80610854565b90600c840160005260206000209160005b601f198516811061099757506001600285600080516020611bca8339815191529a989561090d9895600c956108ea9c99601f1981161061097c575b505050020191015561086c565b01516008601f841602840a60001904191690558b808061096f565b91926020600181928685015181550194019201610934565b600c840160005260206000206020601f8501048101602085106109ef575b6020601f840104820181106109e357505061081e565b600081556001016109cd565b50806109cd565b60e060020a634e487b710260009081526041600452602490fd5b0151905088806107aa565b90601f198316916009860160005260206000209260005b818110610a77575092600292859260c0979660019610610a5c575b505050020160098401556107c4565b01516008601f841602840a6000190419169055898080610a4d565b92936020600181928786015181550195019301610a32565b6009850160005260206000206020601f850104810160208510610acf575b6020601f84010482018110610ac357505061078d565b60008155600101610aad565b5080610aad565b60405160e560020a62461bcd0281526020600482015260156024820152605960020a743737ba103a34329031bab93932b73a1037bbb732b9026044820152606490fd5b600036600319011261019a57600154601e8101809111610b6357610b47904211610b4281611476565b611476565b42600155600054604051600160a060020a039091168152602090f35b60e060020a634e487b710260009081526011600452602490fd5b3461019a57602036600319011261019a576004356001604060020a03811161019a57610bb7610bb260e092369060040161120c565b61159e565b610bc46040518092611403565bf35b600036600319011261019a576000805490600160a060020a038216610bec3382146114d6565b600080516020611baa8339815191528280a3600160a060020a031916600055005b3461019a5760e036600319011261019a576004356001604060020a03811161019a57610c3d90369060040161120c565b6064356001604060020a03811161019a57610c5c90369060040161120c565b906084356001604060020a03811161019a57610c7c90369060040161120c565b60a435600160a060020a038116810361019a57610ca5600160a060020a03600054163314611522565b610cae8461159e565b93604051610cbb81611198565b602435815260208101956044358752604082015260608101848152600160a060020a038416608083015260c43560a08301528560c083015233600052600360205260406000206020604051809282610d198b848151938492016112ac565b820190815203019020602060405180928651610d388184868b016112ac565b8201908152030190208251815596516001880155604080830151805160028a0155602081015160038a0155908101516004890155606081015160058901556080810151600689015560a0810151600789015560c001516008880155518051906001604060020a0382116109f657610db2600989015461131f565b601f811161105d575b50602090601f8311600114610fe75760c093929160009183610fdc575b5050816002029160080260020a6000190419161760098801555b6080810151600a88018054600160a060020a031916600160a060020a039290921691909117905560a0810151600b880155015180519095906001604060020a0381116109f657610e45600c83015461131f565b601f8111610f95575b506020601f8211600114610f065792610ee092600c83610eee9794610eb39a9997600080516020611b8a8339815191529c600092610efb575b5050816002029160080260020a600019041916179101555b60405196879660e0885260e0880190611444565b600160a060020a039092166020870152602435604087015260443560608701528582036080870152611444565b9083820360a0850152611444565b60c43560c08301520390a1005b015190508c80610e87565b600c830160005260206000209760005b601f1984168110610f7d575092600c6001600285600080516020611b8a8339815191529c610eb39c9b9996610ee099610eee9c99601f19811610610f62575b5050500201910155610e9f565b01516008601f841602840a60001904191690558d8080610f55565b828201518a5560019099019860209283019201610f16565b600c830160005260206000206020601f840104810160208410610fd5575b6020601f84010482018110610fc9575050610e4e565b60008155600101610fb3565b5080610fb3565b015190508980610dd8565b906009890160005260206000209160005b601f198516811061104557509260019260029260c0969583601f1981161061102a575b50505002016009880155610df2565b01516008601f841602840a60001904191690558a808061101b565b91926020600181928685015181550194019201610ff8565b6009890160005260206000206020601f85010481016020851061109d575b6020601f84010482018110611091575050610dbb565b6000815560010161107b565b508061107b565b3461019a576110ee61110a6101966110bb36611253565b600160a060029694960a0380951660005260209586809360038252604060002082604051948386809551938492016112ac565b82019081520301902082604051948386809551938492016112ac565b8201908152030190209182549260018101549061117d61112c600283016112cf565b9361116b61113c6009850161135e565b91600a8501541695611155600c600b870154960161135e565b956040519a8b9a8b528a01526040890190611403565b6101a080610120890152870190611444565b92610140860152610160850152838203610180850152611444565b60e081019081106001604060020a038211176109f657604052565b604081019081106001604060020a038211176109f657604052565b601f909101601f19168101906001604060020a038211908210176109f657604052565b6001604060020a0381116109f657601f01601f191660200190565b81601f8201121561019a57803590611223826111f1565b9261123160405194856111ce565b8284526020838301011161019a57816000926020809301838601378301015290565b606060031982011261019a57600435600160a060020a038116810361019a57916001604060020a0360243581811161019a57836112929160040161120c565b9260443591821161019a576112a99160040161120c565b90565b60005b8381106112bf5750506000910152565b81810151838201526020016112af565b906040516112dc81611198565b60c0600682948054845260018101546020850152600281015460408501526003810154606085015260048101546080850152600581015460a08501520154910152565b9060016002830492168015611354575b602083101461133a57565b60e060020a634e487b710260009081526022600452602490fd5b91607f169161132f565b90604051918260008254926113728461131f565b9081845260019485811690816000146113e1575060011461139e575b505061139c925003836111ce565b565b9093915060005260209081600020936000915b8183106113c957505061139c9350820101388061138e565b855488840185015294850194879450918301916113b1565b91505061139c94506020925060ff19168284015215158102820101388061138e565b60c08091805184526020810151602085015260408101516040850152606081015160608501526080810151608085015260a081015160a08501520151910152565b9060209161145d815180928185528580860191016112ac565b601f01601f1916010190565b91908201809211610b6357565b1561147d57565b60405160e560020a62461bcd0281526020600482015260106024820152608160020a6f3930ba32903634b6b4ba1032b93937b9026044820152606490fd5b600160a060020a039091168152602081019190915260400190565b156114dd57565b60405160e560020a62461bcd0281526020600482015260176024820152604960020a7630b1b1b2b9b9903232b734b2b2103337b91037bbb732b9026044820152606490fd5b1561152957565b60405160e560020a62461bcd02815260206004820152601b60248201527f756e617574686f72697a65642c206e6f7420746865206f776e657200000000006044820152606490fd5b8051821015611584576020809202010190565b60e060020a634e487b710260009081526032600452602490fd5b604080516115ab81611198565b600090818152602092828483015282818301528260c060609382858201528260808201528260a082015201528051916115e3836111b3565b6002835260f560020a610161028584015283926001968794855b6118e0575b509061162c9161161186611a34565b9561161e865197886111ce565b808752601f19938491611a34565b0188885b8281106118d1575050509086918988905b6117e9575b505050505060078351036117a8578251156117915761166785840151611ace565b95835111156117915761167c82840151611ace565b9183516002101561177a5761169382850151611ace565b90845160031015611763576116ab6080860151611ace565b9385516004101561174c576116c360a0870151611ace565b95805160051015611735576116db60c0820151611ace565b9781516006101561171e575060e06116f4910151611ace565b978251996117018b611198565b8a52890152870152850152608084015260a083015260c082015290565b60e060020a634e487b710281526032600452602490fd5b60e060020a634e487b710288526032600452602488fd5b60e060020a634e487b710287526032600452602487fd5b60e060020a634e487b710286526032600452602486fd5b60e060020a634e487b710285526032600452602485fd5b60e060020a634e487b710284526032600452602484fd5b815160e560020a62461bcd0281526004810186905260146024820152606060020a73496e76616c696420696e70757420737472696e67026044820152606490fd5b81518410156118cc576117fd848484611a4b565b60001981146118c4575b808a868d8f9461183961181c8e9b8d93611935565b611831611828826111f1565b9c519c8d6111ce565b808c526111f1565b019036908a0137815b8382106118805750505061185b61187791865190611469565b9261186581611926565b96611870828d611571565b528a611571565b50939093611641565b92935090916118ba91906118b4600160f860020a03196118a0848a611942565b51166118ab83611926565b951a918a611942565b53611926565b8b908e9392611842565b508151611807565b611646565b8682828b010152018990611630565b8151811015611921576118f4908383611a4b565b8860001982036119045750611602565b909561191261191b91611926565b96845190611469565b906115fd565b611602565b6000198114610b635760010190565b91908203918211610b6357565b908151811015611584570160200190565b8015611a135780816000925b6119ff57508061196e836111f1565b9261197c60405194856111ce565b808452601f1961198b826111f1565b01366020860137915b61199d57505090565b6000198201918211610b635781600a80830492818402918483041484151715610b63576119cd60ff928392611935565b1660300190808211610b63571660f860020a02600160f860020a03191660001a906119f89085611942565b5380611994565b91611a0b600a91611926565b92048061195f565b50604051611a20816111b3565b6001815260fc60020a600302602082015290565b6001604060020a0381116109f65760208091020190565b60019283835103611ab457835b611a67575b5050505060001990565b8151811015611aaf57600160f860020a031980611a848385611942565b5116908451156115845760208501511614611aa857611aa290611926565b83611a58565b9250505090565b611a5d565b60e060020a634e487b710260009081526004859052602490fd5b906000805b8351811015611b845760ff600160f860020a031960f860020a6030838284611afb888c611942565b51160416101580611b69575b611b1d575b505050611b1890611926565b611ad3565b600a9492939492838102938185041490151715610b63578390602f1992611b44878a611942565b511604160190828211610b6357611b1892611b60921690611469565b91903880611b0c565b506039838284611b79888c611942565b511604161115611b07565b50915056fe49337520b1cfa3bd0767541649878cb809155121af4977b12cc6af2992802dbd8be0079c531659141344cd1fd0a4f28419497f9722a3daafe3b4186f6b6457e004ee66ff49881a80de27b2ce42900bafdbc74a68a87d0d1496fd2c751d222a82a2646970667358221220b4b1c12bdfdf1572a018c789fc75d912a26163b2a950439a345b045376955ce364736f6c63430008120033",
  "immutableReferences": {},
  "source": "// SPDX-License-Identifier: CC-BY-4.0\npragma solidity >=0.4.22 <0.9.0;\n\nimport \"../common/Version.sol\";\nimport \"../common/Owned.sol\";\n\n/**\n * Records can eliminate title theft\n */\n\ncontract Records is Version, Owned {\n    struct Folio {\n        uint state;\n        uint municipality;\n        uint township;\n        uint range;\n        uint section;\n        uint subsection;\n        uint parcelid;\n    }\n\n    struct PropertyIdentifier {\n        uint book;\n        uint page;\n        Folio folio;\n        string legal_description;\n        address owner;\n        uint256 purchased_timestamp;\n        string fips; // https://www2.census.gov/programs-surveys/decennial/2010/partners/pdf/FIPS_StateCounty_Code.pdf\n    }\n\n    mapping (address => mapping(string => mapping(string => PropertyIdentifier))) public property_records;\n\n    event PropertyAdded(string fips,address current_owner,uint book,uint page,string folio,string legal_description,uint256 purchased);\n    event PropertyTransferred(string fips,address current_owner,address new_owner, string folio, uint256 timestamp);\n\n    constructor() {\n\n    }\n\n    modifier isCurrentOwner(string memory fips,string memory folio) {\n        require(property_records[msg.sender][fips][folio].owner == msg.sender,\"not the current owner\");\n        _;\n    }\n\n    /**\n     * only the contract owner can add a new property. If property owner wallet is unknown, use the contract address as the default property owner\n     * the updateOwner function can be used to change from contract default property owner to the real property owner\n     */\n    function addProperty(string memory fips,uint book,uint page,string memory folio,string memory legal_description,address current_owner,uint256 purchased) okOwner public {\n        property_records[msg.sender][fips][folio] = PropertyIdentifier(book,page,stringToFolio(folio),legal_description,current_owner,purchased,fips);\n        emit PropertyAdded(fips,current_owner,book,page,folio,legal_description,purchased);\n    }\n\n    function transfer(string memory fips,uint book,uint page, string memory folio, address new_owner) isCurrentOwner(fips,folio) public {\n        PropertyIdentifier memory property = property_records[msg.sender][fips][folio];       \n        property_records[new_owner][fips][folio] = PropertyIdentifier(book,page,stringToFolio(folio),property.legal_description,new_owner,block.timestamp,property.fips);\n        property_records[msg.sender][fips][folio].owner = new_owner;\n        emit PropertyTransferred(fips, msg.sender, new_owner, folio, block.timestamp);\n    }\n\n    function updateOwner(address new_owner, string memory fips, string memory folio) okOwner external {\n        if (property_records[msg.sender][fips][folio].owner == msg.sender) {\n            property_records[new_owner][fips][folio].owner = new_owner;\n        }\n    }\n\n    // Function to convert Folio to string\n    function folioToString(Folio memory folio) public pure returns (string memory) {\n        return concatenate(\n            uintToString(folio.state),\n            uintToString(folio.municipality),\n            uintToString(folio.township),\n            uintToString(folio.range),\n            uintToString(folio.section),\n            uintToString(folio.subsection),\n            uintToString(folio.parcelid)\n        );\n    }\n\n    // Function to convert string back to Folio\n    function stringToFolio(string memory str) public pure returns (Folio memory) {\n        string[] memory parts = split(str, \", \");\n        require(parts.length == 7, \"Invalid input string\");\n\n        return Folio({\n            state: stringToUint(parts[0]),\n            municipality: stringToUint(parts[1]),\n            township: stringToUint(parts[2]),\n            range: stringToUint(parts[3]),\n            section: stringToUint(parts[4]),\n            subsection: stringToUint(parts[5]),\n            parcelid: stringToUint(parts[6])\n        });\n    }\n\n    // INTERNAL FUNCTIONS\n    // Function to convert uint to string\n    function uintToString(uint v) internal pure returns (string memory) {\n        if (v == 0) {\n            return \"0\";\n        }\n        uint j = v;\n        uint length;\n        while (j != 0) {\n            length++;\n            j /= 10;\n        }\n        bytes memory bstr = new bytes(length);\n        uint k = length;\n        while (v != 0) {\n            k = k-1;\n            uint8 temp = (48 + uint8(v - v / 10 * 10));\n            bytes1 b1 = bytes1(temp);\n            bstr[k] = b1;\n            v /= 10;\n        }\n        return string(bstr);\n    }\n\n    // Function to concatenate strings\n    function concatenate(string memory a, string memory b, string memory c, string memory d, string memory e, string memory f, string memory g) internal pure returns (string memory) {\n        return string(abi.encodePacked(a, \", \", b, \", \", c, \", \", d, \", \", e, \", \", f, \", \", g));\n    }\n\n    // Function to split a string by a delimiter\n    function split(string memory _base, string memory _value) internal pure returns (string[] memory splitArr) {\n        bytes memory _baseBytes = bytes(_base);\n        uint _offset = 0;\n        uint _splitsCount = 1;\n        while (_offset < _baseBytes.length) {\n            int _limit = indexOf(_base, _value, _offset);\n            if (_limit == -1) break;\n            else {\n                _splitsCount++;\n                _offset = uint(_limit) + bytes(_value).length;\n            }\n        }\n        \n        splitArr = new string[](_splitsCount);\n        _offset = 0;\n        _splitsCount = 0;\n        while (_offset < _baseBytes.length) {\n            int _limit = indexOf(_base, _value, _offset);\n            if (_limit == -1) {\n                _limit = int(_baseBytes.length);\n            }\n            string memory _tmp = new string(uint(_limit) - _offset);\n            bytes memory _tmpBytes = bytes(_tmp);\n            uint j = 0;\n            for (uint i = _offset; i < uint(_limit); i++) {\n                _tmpBytes[j++] = _baseBytes[i];\n            }\n            _offset = uint(_limit) + bytes(_value).length;\n            splitArr[_splitsCount++] = string(_tmpBytes);\n        }\n        return splitArr;\n    }\n\n    // Function to find the index of the first occurrence of a substring\n    function indexOf(string memory _base, string memory _value, uint _offset) internal pure returns (int) {\n        bytes memory _baseBytes = bytes(_base);\n        bytes memory _valueBytes = bytes(_value);\n        assert(_valueBytes.length == 1);\n        for (uint i = _offset; i < _baseBytes.length; i++) {\n            if (_baseBytes[i] == _valueBytes[0]) {\n                return int(i);\n            }\n        }\n        return -1;\n    }\n\n    // Function to convert string to uint\n    function stringToUint(string memory s) internal pure returns (uint) {\n        bytes memory b = bytes(s);\n        uint result = 0;\n        for (uint i = 0; i < b.length; i++) {\n            if (uint8(b[i]) >= 48 && uint8(b[i]) <= 57) {\n                result = result * 10 + (uint8(b[i]) - 48);\n            }\n        }\n        return result;\n    }\n}",
  "sourcePath": "/Volumes/HOME/pingleware-contracts/contracts/realestate/Records.sol",
  "compiler": {
    "name": "solc",
    "version": "0.8.18+commit.87f61d96.Emscripten.clang"
  },
  "schemaVersion": "3.4.12",
  "updatedAt": "2024-05-23T18:56:27.037Z",
  "devdoc": {
    "kind": "dev",
    "methods": {
      "renounceOwnership()": {
        "details": "Leaves the contract without owner. It will not be possible to call `onlyOwner` functions anymore. Can only be called by the current owner. NOTE: Renouncing ownership will leave the contract without an owner, thereby removing any functionality that is only available to the owner."
      },
      "transferOwnership(address)": {
        "details": "Transfers ownership of the contract to a new account (`newOwner`). Can only be called by the current owner."
      }
    },
    "version": 1
  },
  "userdoc": {
    "kind": "user",
    "methods": {
      "addProperty(string,uint256,uint256,string,string,address,uint256)": {
        "notice": "only the contract owner can add a new property. If property owner wallet is unknown, use the contract address as the default property owner the updateOwner function can be used to change from contract default property owner to the real property owner"
      }
    },
    "notice": "Records can eliminate title theft",
    "version": 1
  }
}