{
  "contractName": "Reg147Equity",
  "abi": [
    {
      "inputs": [
        {
          "internalType": "address",
          "name": "tokenIssuer",
          "type": "address"
        },
        {
          "internalType": "string",
          "name": "jurisdiction",
          "type": "string"
        },
        {
          "internalType": "string",
          "name": "tokenName",
          "type": "string"
        },
        {
          "internalType": "string",
          "name": "tokenSymbol",
          "type": "string"
        },
        {
          "internalType": "uint256",
          "name": "tokenSupply",
          "type": "uint256"
        },
        {
          "internalType": "uint256",
          "name": "tokenPrice",
          "type": "uint256"
        },
        {
          "internalType": "address",
          "name": "exchangeAddress",
          "type": "address"
        }
      ],
      "stateMutability": "nonpayable",
      "type": "constructor"
    },
    {
      "anonymous": false,
      "inputs": [
        {
          "indexed": false,
          "internalType": "address",
          "name": "",
          "type": "address"
        }
      ],
      "name": "ShareholderAdded",
      "type": "event"
    },
    {
      "anonymous": false,
      "inputs": [
        {
          "indexed": false,
          "internalType": "address",
          "name": "",
          "type": "address"
        },
        {
          "indexed": false,
          "internalType": "uint256",
          "name": "",
          "type": "uint256"
        }
      ],
      "name": "ShareholderInvestmentAdded",
      "type": "event"
    },
    {
      "anonymous": false,
      "inputs": [
        {
          "indexed": false,
          "internalType": "address",
          "name": "",
          "type": "address"
        },
        {
          "indexed": false,
          "internalType": "uint256",
          "name": "",
          "type": "uint256"
        }
      ],
      "name": "ShareholderSharesAllocated",
      "type": "event"
    },
    {
      "anonymous": false,
      "inputs": [
        {
          "indexed": false,
          "internalType": "bool",
          "name": "",
          "type": "bool"
        },
        {
          "indexed": false,
          "internalType": "string",
          "name": "",
          "type": "string"
        }
      ],
      "name": "TradingStatusChange",
      "type": "event"
    },
    {
      "anonymous": false,
      "inputs": [
        {
          "indexed": false,
          "internalType": "bool",
          "name": "",
          "type": "bool"
        },
        {
          "indexed": false,
          "internalType": "string",
          "name": "",
          "type": "string"
        }
      ],
      "name": "TradingStatusChanged",
      "type": "event"
    },
    {
      "anonymous": false,
      "inputs": [
        {
          "indexed": false,
          "internalType": "address",
          "name": "",
          "type": "address"
        },
        {
          "indexed": false,
          "internalType": "address",
          "name": "",
          "type": "address"
        },
        {
          "indexed": false,
          "internalType": "uint256",
          "name": "",
          "type": "uint256"
        }
      ],
      "name": "Transfer",
      "type": "event"
    },
    {
      "anonymous": false,
      "inputs": [
        {
          "indexed": false,
          "internalType": "bool",
          "name": "",
          "type": "bool"
        },
        {
          "indexed": false,
          "internalType": "string",
          "name": "",
          "type": "string"
        }
      ],
      "name": "TransferStatusChange",
      "type": "event"
    },
    {
      "anonymous": false,
      "inputs": [
        {
          "indexed": false,
          "internalType": "bool",
          "name": "",
          "type": "bool"
        },
        {
          "indexed": false,
          "internalType": "string",
          "name": "",
          "type": "string"
        }
      ],
      "name": "TransferStatusChanged",
      "type": "event"
    },
    {
      "inputs": [],
      "name": "FeePercentage",
      "outputs": [
        {
          "internalType": "uint256",
          "name": "",
          "type": "uint256"
        }
      ],
      "stateMutability": "view",
      "type": "function"
    },
    {
      "inputs": [],
      "name": "MAX_OFFERING_SHARES",
      "outputs": [
        {
          "internalType": "uint256",
          "name": "",
          "type": "uint256"
        }
      ],
      "stateMutability": "view",
      "type": "function"
    },
    {
      "inputs": [],
      "name": "OUTSTANDING_SHARES",
      "outputs": [
        {
          "internalType": "uint256",
          "name": "",
          "type": "uint256"
        }
      ],
      "stateMutability": "view",
      "type": "function"
    },
    {
      "inputs": [],
      "name": "SIXMONTHS",
      "outputs": [
        {
          "internalType": "uint256",
          "name": "",
          "type": "uint256"
        }
      ],
      "stateMutability": "view",
      "type": "function"
    },
    {
      "inputs": [],
      "name": "TRADING_ACTIVE",
      "outputs": [
        {
          "internalType": "bool",
          "name": "",
          "type": "bool"
        }
      ],
      "stateMutability": "view",
      "type": "function"
    },
    {
      "inputs": [],
      "name": "TRANSFERS_ACTIVE",
      "outputs": [
        {
          "internalType": "bool",
          "name": "",
          "type": "bool"
        }
      ],
      "stateMutability": "view",
      "type": "function"
    },
    {
      "inputs": [],
      "name": "YEAR",
      "outputs": [
        {
          "internalType": "uint256",
          "name": "",
          "type": "uint256"
        }
      ],
      "stateMutability": "view",
      "type": "function"
    },
    {
      "inputs": [],
      "name": "ask",
      "outputs": [
        {
          "internalType": "uint256",
          "name": "",
          "type": "uint256"
        }
      ],
      "stateMutability": "view",
      "type": "function"
    },
    {
      "inputs": [],
      "name": "bid",
      "outputs": [
        {
          "internalType": "uint256",
          "name": "",
          "type": "uint256"
        }
      ],
      "stateMutability": "view",
      "type": "function"
    },
    {
      "inputs": [
        {
          "internalType": "bool",
          "name": "status",
          "type": "bool"
        },
        {
          "internalType": "string",
          "name": "reason",
          "type": "string"
        }
      ],
      "name": "changeTradingStatus",
      "outputs": [],
      "stateMutability": "nonpayable",
      "type": "function"
    },
    {
      "inputs": [
        {
          "internalType": "bool",
          "name": "status",
          "type": "bool"
        },
        {
          "internalType": "string",
          "name": "reason",
          "type": "string"
        }
      ],
      "name": "changeTransferStatus",
      "outputs": [],
      "stateMutability": "nonpayable",
      "type": "function"
    },
    {
      "inputs": [],
      "name": "exchangeContract",
      "outputs": [
        {
          "internalType": "contract IExemptLiquidityMarketExchange",
          "name": "",
          "type": "address"
        }
      ],
      "stateMutability": "view",
      "type": "function"
    },
    {
      "inputs": [],
      "name": "feeRecipient",
      "outputs": [
        {
          "internalType": "address",
          "name": "",
          "type": "address"
        }
      ],
      "stateMutability": "view",
      "type": "function"
    },
    {
      "inputs": [],
      "name": "getMarketValue",
      "outputs": [
        {
          "internalType": "uint256",
          "name": "",
          "type": "uint256"
        }
      ],
      "stateMutability": "view",
      "type": "function"
    },
    {
      "inputs": [
        {
          "internalType": "uint256",
          "name": "totalExchangeMarketValue",
          "type": "uint256"
        }
      ],
      "name": "getMarketWeight",
      "outputs": [
        {
          "internalType": "uint256",
          "name": "",
          "type": "uint256"
        }
      ],
      "stateMutability": "view",
      "type": "function"
    },
    {
      "inputs": [],
      "name": "getName",
      "outputs": [
        {
          "internalType": "string",
          "name": "",
          "type": "string"
        }
      ],
      "stateMutability": "view",
      "type": "function"
    },
    {
      "inputs": [],
      "name": "getOfferingType",
      "outputs": [
        {
          "internalType": "string",
          "name": "",
          "type": "string"
        }
      ],
      "stateMutability": "view",
      "type": "function"
    },
    {
      "inputs": [],
      "name": "getOutstandingShares",
      "outputs": [
        {
          "internalType": "uint256",
          "name": "",
          "type": "uint256"
        }
      ],
      "stateMutability": "view",
      "type": "function"
    },
    {
      "inputs": [],
      "name": "getSymbol",
      "outputs": [
        {
          "internalType": "string",
          "name": "",
          "type": "string"
        }
      ],
      "stateMutability": "view",
      "type": "function"
    },
    {
      "inputs": [],
      "name": "getTotalSupply",
      "outputs": [
        {
          "internalType": "uint256",
          "name": "",
          "type": "uint256"
        }
      ],
      "stateMutability": "view",
      "type": "function"
    },
    {
      "inputs": [],
      "name": "getTradingStatus",
      "outputs": [
        {
          "internalType": "bool",
          "name": "",
          "type": "bool"
        }
      ],
      "stateMutability": "view",
      "type": "function"
    },
    {
      "inputs": [],
      "name": "homeJurisdiction",
      "outputs": [
        {
          "internalType": "string",
          "name": "",
          "type": "string"
        }
      ],
      "stateMutability": "view",
      "type": "function"
    },
    {
      "inputs": [],
      "name": "issuer",
      "outputs": [
        {
          "internalType": "address",
          "name": "",
          "type": "address"
        }
      ],
      "stateMutability": "view",
      "type": "function"
    },
    {
      "inputs": [],
      "name": "name",
      "outputs": [
        {
          "internalType": "string",
          "name": "",
          "type": "string"
        }
      ],
      "stateMutability": "view",
      "type": "function"
    },
    {
      "inputs": [],
      "name": "offeringType",
      "outputs": [
        {
          "internalType": "string",
          "name": "",
          "type": "string"
        }
      ],
      "stateMutability": "view",
      "type": "function"
    },
    {
      "inputs": [],
      "name": "owner",
      "outputs": [
        {
          "internalType": "address",
          "name": "",
          "type": "address"
        }
      ],
      "stateMutability": "view",
      "type": "function"
    },
    {
      "inputs": [],
      "name": "price",
      "outputs": [
        {
          "internalType": "uint256",
          "name": "",
          "type": "uint256"
        }
      ],
      "stateMutability": "view",
      "type": "function"
    },
    {
      "inputs": [],
      "name": "restricted",
      "outputs": [
        {
          "internalType": "bool",
          "name": "",
          "type": "bool"
        }
      ],
      "stateMutability": "view",
      "type": "function"
    },
    {
      "inputs": [],
      "name": "symbol",
      "outputs": [
        {
          "internalType": "string",
          "name": "",
          "type": "string"
        }
      ],
      "stateMutability": "view",
      "type": "function"
    },
    {
      "inputs": [],
      "name": "totalSupply",
      "outputs": [
        {
          "internalType": "uint256",
          "name": "",
          "type": "uint256"
        }
      ],
      "stateMutability": "view",
      "type": "function"
    },
    {
      "inputs": [
        {
          "internalType": "address",
          "name": "",
          "type": "address"
        }
      ],
      "name": "transfer_log",
      "outputs": [
        {
          "internalType": "uint256",
          "name": "",
          "type": "uint256"
        }
      ],
      "stateMutability": "view",
      "type": "function"
    },
    {
      "inputs": [],
      "name": "getIssuer",
      "outputs": [
        {
          "internalType": "address",
          "name": "",
          "type": "address"
        }
      ],
      "stateMutability": "view",
      "type": "function"
    },
    {
      "inputs": [
        {
          "internalType": "address",
          "name": "wallet",
          "type": "address"
        }
      ],
      "name": "getBalanceFrom",
      "outputs": [
        {
          "internalType": "uint256",
          "name": "",
          "type": "uint256"
        }
      ],
      "stateMutability": "view",
      "type": "function"
    },
    {
      "inputs": [
        {
          "internalType": "address",
          "name": "wallet",
          "type": "address"
        }
      ],
      "name": "addInvestor",
      "outputs": [],
      "stateMutability": "nonpayable",
      "type": "function"
    },
    {
      "inputs": [
        {
          "internalType": "address",
          "name": "wallet",
          "type": "address"
        }
      ],
      "name": "setFeeRecipient",
      "outputs": [],
      "stateMutability": "nonpayable",
      "type": "function"
    },
    {
      "inputs": [
        {
          "internalType": "address",
          "name": "from",
          "type": "address"
        },
        {
          "internalType": "address",
          "name": "to",
          "type": "address"
        },
        {
          "internalType": "uint256",
          "name": "tokens",
          "type": "uint256"
        }
      ],
      "name": "transferOnChainPurchase",
      "outputs": [],
      "stateMutability": "nonpayable",
      "type": "function"
    },
    {
      "inputs": [
        {
          "internalType": "address",
          "name": "from",
          "type": "address"
        },
        {
          "internalType": "address",
          "name": "to",
          "type": "address"
        },
        {
          "internalType": "uint256",
          "name": "tokens",
          "type": "uint256"
        }
      ],
      "name": "transfer",
      "outputs": [
        {
          "internalType": "bool",
          "name": "success",
          "type": "bool"
        }
      ],
      "stateMutability": "nonpayable",
      "type": "function"
    },
    {
      "inputs": [
        {
          "internalType": "address",
          "name": "from",
          "type": "address"
        },
        {
          "internalType": "address",
          "name": "to",
          "type": "address"
        },
        {
          "internalType": "uint256",
          "name": "tokens",
          "type": "uint256"
        }
      ],
      "name": "transferFrom",
      "outputs": [
        {
          "internalType": "bool",
          "name": "success",
          "type": "bool"
        }
      ],
      "stateMutability": "nonpayable",
      "type": "function"
    },
    {
      "inputs": [
        {
          "internalType": "address",
          "name": "wallet",
          "type": "address"
        },
        {
          "internalType": "uint256",
          "name": "tokens",
          "type": "uint256"
        },
        {
          "internalType": "uint256",
          "name": "Fee",
          "type": "uint256"
        }
      ],
      "name": "buy",
      "outputs": [],
      "stateMutability": "nonpayable",
      "type": "function"
    },
    {
      "inputs": [
        {
          "internalType": "address",
          "name": "wallet",
          "type": "address"
        },
        {
          "internalType": "uint256",
          "name": "certificateNo",
          "type": "uint256"
        },
        {
          "internalType": "uint256",
          "name": "tokens",
          "type": "uint256"
        }
      ],
      "name": "sell",
      "outputs": [],
      "stateMutability": "nonpayable",
      "type": "function"
    },
    {
      "inputs": [
        {
          "internalType": "address",
          "name": "from",
          "type": "address"
        },
        {
          "internalType": "address",
          "name": "to",
          "type": "address"
        },
        {
          "internalType": "uint256",
          "name": "tokens",
          "type": "uint256"
        }
      ],
      "name": "validate",
      "outputs": [
        {
          "internalType": "bool",
          "name": "",
          "type": "bool"
        }
      ],
      "stateMutability": "view",
      "type": "function"
    }
  ],
  "bytecode": "0x6000805461ffff19168155600181905560025560c0604052600660809081527f455155495459000000000000000000000000000000000000000000000000000060a0526007906200005190826200034b565b506008805460ff191690556001600e553480156200006e57600080fd5b5060405162002d9a38038062002d9a8339810160408190526200009191620004f1565b600a805433600160a060020a031991821617909155600b8054909116600160a060020a038916179055600c620000c887826200034b565b506003620000d786826200034b565b506004620000e685826200034b565b5060058390556006828155604080518082019091529081527f457175697479000000000000000000000000000000000000000000000000000060208201526007906200013390826200034b565b506008805461010060a860020a031916610100600160a060020a038481168202929092179283905560028690556005546040517fdc03720e000000000000000000000000000000000000000000000000000000008152919093049091169163dc03720e91620001ae9130918c918b918b9190600401620005e9565b600060405180830381600087803b158015620001c957600080fd5b505af1158015620001de573d6000803e3d6000fd5b50506008546040517f7705d153000000000000000000000000000000000000000000000000000000008152610100909104600160a060020a03169250637705d153915062000233906004903090820162000673565b600060405180830381600087803b1580156200024e57600080fd5b505af115801562000263573d6000803e3d6000fd5b505050505050505050505062000717565b7f4e487b7100000000000000000000000000000000000000000000000000000000600052604160045260246000fd5b600281046001821680620002b857607f821691505b602082108103620002f2577f4e487b7100000000000000000000000000000000000000000000000000000000600052602260045260246000fd5b50919050565b601f82111562000346576000818152602081206020601f86010481016020861015620003215750805b6020601f860104820191505b8181101562000342578281556001016200032d565b5050505b505050565b81516001604060020a0381111562000367576200036762000274565b6200037f81620003788454620002a3565b84620002f8565b602080601f831160018114620003bb57600084156200039e5750858301515b60028086026008870290910a600019041982161786555062000342565b600085815260208120601f198616915b82811015620003ec57888601518255948401946001909101908401620003cb565b50858210156200040d57878501516008601f88160260020a60001904191681555b5050505050600202600101905550565b8051600160a060020a03811681146200043557600080fd5b919050565b60005b83811015620004575781810151838201526020016200043d565b50506000910152565b600082601f8301126200047257600080fd5b81516001604060020a03808211156200048f576200048f62000274565b604051601f8301601f19908116603f01168101908282118183101715620004ba57620004ba62000274565b81604052838152866020858801011115620004d457600080fd5b620004e78460208301602089016200043a565b9695505050505050565b600080600080600080600060e0888a0312156200050d57600080fd5b62000518886200041d565b965060208801516001604060020a03808211156200053557600080fd5b620005438b838c0162000460565b975060408a01519150808211156200055a57600080fd5b620005688b838c0162000460565b965060608a01519150808211156200057f57600080fd5b506200058e8a828b0162000460565b9450506080880151925060a08801519150620005ad60c089016200041d565b905092959891949750929550565b60008151808452620005d58160208601602086016200043a565b601f01601f19169290920160200192915050565b600160a060020a0386811682528516602082015260c0604082018190526000906200061790830186620005bb565b82810360608401526200062b8186620005bb565b6080840194909452505080820360a090910152600681527f52656731343700000000000000000000000000000000000000000000000000006020820152604001949350505050565b6040815260008084546200068781620002a3565b8060408601526060600180841660008114620006ac5760018114620006c757620006fa565b60ff19851688840152602084151502880183019550620006fa565b8960005260208060002060005b86811015620006f15781548b8201870152908401908201620006d4565b8a018501975050505b50505050600160a060020a03851660208501525090509392505050565b61267380620007276000396000f3fe608060405234801561001057600080fd5b50600436106101e65760e060020a600035046306fdde0381146101eb578063150704011461020957806317d7de7c1461021157806318160ddd146102195780631998aeef146102305780631d1438481461023957806323b872dd146102595780633dfc25141461027c5780633f0a07971461028457806340f0eb351461029c57806346904840146102a45780634a896384146102b757806352556421146102c057806361e76364146102d157806362befb1e146102da578063636110ee146102e25780636a272462146102f75780637072c6b11461030a578063752f76971461031757806383914540146103215780638862d26a1461032c57806389af2dce146103345780638da5cb5b1461034757806395d89b411461035a57806397a67fe1146103625780639ac9756014610374578063a035b1fe14610387578063a1305aa514610390578063a59ac6dd1461039b578063a5cebde1146103ae578063a5dea8a9146103ce578063aa3ad4e4146103e1578063beabacc8146103f4578063bf39863114610407578063c4e41b2214610410578063cbc2bc4314610418578063cc0c82d114610425578063de2b4e9814610438578063e28797d214610440578063e641bde114610449578063e74b981b1461045c575b600080fd5b6101f361046f565b6040516102009190611ec4565b60405180910390f35b6101f36104fd565b6101f361058f565b61022260055481565b604051908152602001610200565b610222600f5481565b600b5461024c90600160a060020a031681565b6040516102009190611ed7565b61026c610267366004611f07565b61059e565b6040519015158152602001610200565b6101f3610aa7565b60085461024c906101009004600160a060020a031681565b6101f3610ab4565b600d5461024c90600160a060020a031681565b61022260105481565b600b54600160a060020a031661024c565b61022260025481565b610222610ac3565b6102f56102f0366004611f54565b610ad8565b005b6102f5610305366004611fd8565b610b27565b60085461026c9060ff1681565b61022262ed4e0081565b6102226301e1338081565b6101f361131b565b61022261034236600461200b565b611328565b600a5461024c90600160a060020a031681565b6101f36113a7565b60005461026c90610100900460ff1681565b6102f5610382366004611f54565b6113b4565b61022260065481565b60005460ff1661026c565b6102f56103a9366004611fd8565b6113fb565b6102226103bc36600461200b565b60096020526000908152604090205481565b6102226103dc366004612026565b61178d565b61026c6103ef366004611f07565b6117b0565b61026c610402366004611f07565b61196f565b61022260015481565b600554610222565b60005461026c9060ff1681565b6102f5610433366004611f07565b6119b2565b600154610222565b610222600e5481565b6102f561045736600461200b565b611b3a565b6102f561046a36600461200b565b611c4e565b6003805461047c9061203f565b80601f01602080910402602001604051908101604052809291908181526020018280546104a89061203f565b80156104f55780601f106104ca576101008083540402835291602001916104f5565b820191906000526020600020905b8154815290600101906020018083116104d857829003601f168201915b505050505081565b60606004805461050c9061203f565b80601f01602080910402602001604051908101604052809291908181526020018280546105389061203f565b80156105855780601f1061055a57610100808354040283529160200191610585565b820191906000526020600020905b81548152906001019060200180831161056857829003601f168201915b5050505050905090565b60606003805461050c9061203f565b600a54600090600160a060020a031633146105d75760405160e560020a62461bcd0281526004016105ce9061207d565b60405180910390fd5b600b54600160a060020a038581169116146107d957600160a060020a0384166000908152600960205260409020546106139062ed4e00906120b6565b4210156106355760405160e560020a62461bcd0281526004016105ce906120c9565b60085460405160e560020a63027cecf3028152610100909104600160a060020a031690634f9d9e609061066c908690600401611ed7565b600060405180830381865afa158015610689573d6000803e3d6000fd5b505050506040513d6000823e601f3d908101601f191682016040526106b1919081019061210a565b6040516020016106c191906121b6565b60408051808303601f1901815290829052805160209091012060085460e560020a63027cecf30283529091610100909104600160a060020a031690634f9d9e6090610710908890600401611ed7565b600060405180830381865afa15801561072d573d6000803e3d6000fd5b505050506040513d6000823e601f3d908101601f19168201604052610755919081019061210a565b60405160200161076591906121b6565b60405160208183030381529060405280519060200120146107d95760405160e560020a62461bcd02815260206004820152602260248201527f63616e6e6f7420626520736f6c64206163726f7373206a75727369646369746f604482015260f060020a616e730260648201526084016105ce565b60085460405160e260020a6314755659028152610100909104600160a060020a0316906351d55964906108169087908790309088906004016121d2565b600060405180830381600087803b15801561083057600080fd5b505af1158015610844573d6000803e3d6000fd5b505050600160a060020a0380851660009081526009602052604090819020429055600854905160e060020a63fb99b86d028152610100909104909116915063fb99b86d90610896908790600401611ed7565b602060405180830381865afa1580156108b3573d6000803e3d6000fd5b505050506040513d601f19601f820116820180604052508101906108d791906121fc565b156108ec576108e860015483611c9d565b6001555b60008051602061261e83398151915284848460405161090d93929190612219565b60405180910390a160085460405160e060020a63e939567902815260048101849052600091869186916101009004600160a060020a03169063e939567990602401600060405180830381865afa15801561096b573d6000803e3d6000fd5b505050506040513d6000823e601f3d908101601f19168201604052610993919081019061210a565b6040516020016109a59392919061223d565b60408051808303601f1901815282825260085460e060020a634ba1e1930284529151909350610100909104600160a060020a031691631e54b0d8916004918491634ba1e1939184810191600091819003860181865afa158015610a0c573d6000803e3d6000fd5b505050506040513d6000823e601f3d908101601f19168201604052610a34919081019061210a565b846040518463ffffffff1660e060020a028152600401610a5693929190612339565b6020604051808303816000875af1158015610a75573d6000803e3d6000fd5b505050506040513d601f19601f82011682018060405250810190610a9991906123a8565b5060019150505b9392505050565b600c805461047c9061203f565b60606007805461050c9061203f565b6000610ad3600654600154611cf5565b905090565b6000805460ff19168415151790556040517fd5d3710e87ad129534715c02a9b1de4c50bdc2faeaa8a34a0470039175e31f2590610b1a908590859085906123c1565b60405180910390a1505050565b600a54600160a060020a03163314610b545760405160e560020a62461bcd0281526004016105ce9061207d565b60085460405160e260020a631aa4cc5b028152610100909104600160a060020a031690636a93316c90610b8b908690600401611ed7565b602060405180830381865afa158015610ba8573d6000803e3d6000fd5b505050506040513d601f19601f82011682018060405250810190610bcc91906121fc565b610c035760405160e560020a62461bcd028152602060048201526002602482015260f060020a614e570260448201526064016105ce565b60008111610c265760405160e560020a62461bcd0281526004016105ce906123f9565b60008211610c775760405160e560020a62461bcd0281526020600482015260186024820152604060020a776e6f742076616c6964206365727469666963617465206e6f0260448201526064016105ce565b60085460405160e560020a63027cecf3028152610cfb916101009004600160a060020a031690634f9d9e6090610cb1908790600401611ed7565b600060405180830381865afa158015610cce573d6000803e3d6000fd5b505050506040513d6000823e601f3d908101601f19168201604052610cf6919081019061210a565b611d75565b610d335760405160e560020a62461bcd028152602060048201526003602482015260e960020a6227a7a50260448201526064016105ce565b60085460405160e660020a61e48102815282916101009004600160a060020a0316906239204090610d6a9087903090600401612419565b602060405180830381865afa158015610d87573d6000803e3d6000fd5b505050506040513d601f19601f82011682018060405250810190610dab91906123a8565b1215610dcc5760405160e560020a62461bcd0281526004016105ce906123f9565b60085460405160e260020a631aa4cc5b028152610100909104600160a060020a031690636a93316c90610e03908690600401611ed7565b602060405180830381865afa158015610e20573d6000803e3d6000fd5b505050506040513d601f19601f82011682018060405250810190610e4491906121fc565b610e7c5760405160e560020a62461bcd028152602060048201526003602482015260eb60020a6209ca4b0260448201526064016105ce565b6000805460ff1615610f1d5760085460405160e160020a63044786e1028152610100909104600160a060020a03169063088f0dc290610ebf906004908101612433565b6040805180830381865afa158015610edb573d6000803e3d6000fd5b505050506040513d601f19601f82011682018060405250810190610eff9190612446565b6010819055600f9190915515610f185750601054610f1d565b506006545b600b54600160a060020a03858116911614610f7b57600160a060020a038416600090815260096020526040902054610f599062ed4e00906120b6565b421015610f7b5760405160e560020a62461bcd0281526004016105ce906120c9565b600e546008546000916064916101009004600160a060020a031663a6a86130610fa48688611cf5565b6040518263ffffffff1660e060020a028152600401610fc591815260200190565b602060405180830381865afa158015610fe2573d6000803e3d6000fd5b505050506040513d601f19601f8201168201806040525081019061100691906123a8565b611010919061246a565b61101a9190612481565b905080156110bd57600860019054906101000a9004600160a060020a0316600160a060020a03166342a8d33f426004604051602001611059919061251a565b60408051601f198184030181529082905260e060020a63ffffffff851602825261108a929186908190600401612558565b600060405180830381600087803b1580156110a457600080fd5b505af11580156110b8573d6000803e3d6000fd5b505050505b600854600b5460405160e260020a6314755659028152610100909204600160a060020a03908116926351d5596492611100928a92911690309089906004016121d2565b600060405180830381600087803b15801561111a57600080fd5b505af115801561112e573d6000803e3d6000fd5b5050505061113e60055484611c9d565b60055560015461114e9084611da6565b600155600b5460405160008051602061261e8339815191529161117e918891600160a060020a0316908790612219565b60405180910390a1600b5460085460405160e060020a63e9395679028152600481018690526000928892600160a060020a03918216926101009091049091169063e939567990602401600060405180830381865afa1580156111e4573d6000803e3d6000fd5b505050506040513d6000823e601f3d908101601f1916820160405261120c919081019061210a565b60405160200161121e9392919061223d565b60408051808303601f1901815282825260085460e060020a634ba1e1930284529151909350610100909104600160a060020a031691631e54b0d8916004918491634ba1e1939184810191600091819003860181865afa158015611285573d6000803e3d6000fd5b505050506040513d6000823e601f3d908101601f191682016040526112ad919081019061210a565b846040518463ffffffff1660e060020a0281526004016112cf93929190612339565b6020604051808303816000875af11580156112ee573d6000803e3d6000fd5b505050506040513d601f19601f8201168201806040525081019061131291906123a8565b50505050505050565b6007805461047c9061203f565b60085460405160e660020a61e4810281526000916101009004600160a060020a03169062392040906113609085903090600401612419565b602060405180830381865afa15801561137d573d6000803e3d6000fd5b505050506040513d601f19601f820116820180604052508101906113a191906123a8565b92915050565b6004805461047c9061203f565b6000805461ff001916610100851515021790556040517faa4f09342ef9787b0bc3a7df0faa5f114a19a74a2f1e61dcfb504c484508f4ca90610b1a908590859085906123c1565b600a54600160a060020a031633146114285760405160e560020a62461bcd0281526004016105ce9061207d565b6005548211156114725760405160e560020a62461bcd02815260206004820152600f6024820152608860020a6e746f6f206d616e7920746f6b656e730260448201526064016105ce565b801561151357600860019054906101000a9004600160a060020a0316600160a060020a03166342a8d33f4260046040516020016114af919061251a565b60408051601f198184030181529082905260e060020a63ffffffff85160282526114e0929186908190600401612558565b600060405180830381600087803b1580156114fa57600080fd5b505af115801561150e573d6000803e3d6000fd5b505050505b61151f60055483611da6565b60055560085460405160e060020a631840cb21028152610100909104600160a060020a031690631840cb219061155d90869030908790600401612219565b600060405180830381600087803b15801561157757600080fd5b505af115801561158b573d6000803e3d6000fd5b5050505061159b60015483611c9d565b60018190556002541480156115b05750600554155b156115c3576000805460ff191660011790555b600b5460405160008051602061261e833981519152916115f291600160a060020a039091169086908690612219565b60405180910390a1600b5460085460405160e060020a63e939567902815260048101859052600092600160a060020a039081169287926101009091049091169063e939567990602401600060405180830381865afa158015611658573d6000803e3d6000fd5b505050506040513d6000823e601f3d908101601f19168201604052611680919081019061210a565b6040516020016116929392919061223d565b60408051808303601f1901815282825260085460e060020a634ba1e1930284529151909350610100909104600160a060020a031691631e54b0d8916004918491634ba1e1939184810191600091819003860181865afa1580156116f9573d6000803e3d6000fd5b505050506040513d6000823e601f3d908101601f19168201604052611721919081019061210a565b846040518463ffffffff1660e060020a02815260040161174393929190612339565b6020604051808303816000875af1158015611762573d6000803e3d6000fd5b505050506040513d601f19601f8201168201806040525081019061178691906123a8565b5050505050565b60006113a16117a96117a3600654600154611cf5565b84611e0d565b6064611cf5565b600a54600090600160a060020a031633146117e05760405160e560020a62461bcd0281526004016105ce9061207d565b60008054610100900460ff161515810361180257806117fe816125c9565b9150505b60085460405160e560020a63027cecf302815261183c916101009004600160a060020a031690634f9d9e6090610cb1908990600401611ed7565b61184e578061184a816125c9565b9150505b60085460405160e560020a63027cecf3028152611888916101009004600160a060020a031690634f9d9e6090610cb1908890600401611ed7565b61189a5780611896816125c9565b9150505b60085460405160e260020a631aa4cc5b028152610100909104600160a060020a031690636a93316c906118d1908790600401611ed7565b602060405180830381865afa1580156118ee573d6000803e3d6000fd5b505050506040513d601f19601f8201168201806040525081019061191291906121fc565b6119245780611920816125c9565b9150505b8260000361193a5780611936816125c9565b9150505b600554831115611952578061194e816125c9565b9150505b80600003611964576001915050610aa0565b506000949350505050565b600a54600090600160a060020a0316331461199f5760405160e560020a62461bcd0281526004016105ce9061207d565b6119aa84848461059e565b949350505050565b600a54600160a060020a031633146119df5760405160e560020a62461bcd0281526004016105ce9061207d565b60006064600e54600860019054906101000a9004600160a060020a0316600160a060020a031663a6a86130611a1660065487611cf5565b6040518263ffffffff1660e060020a028152600401611a3791815260200190565b602060405180830381865afa158015611a54573d6000803e3d6000fd5b505050506040513d601f19601f82011682018060405250810190611a7891906123a8565b611a82919061246a565b611a8c9190612481565b90508015611b2f57600860019054906101000a9004600160a060020a0316600160a060020a03166342a8d33f426004604051602001611acb919061251a565b60408051601f198184030181529082905260e060020a63ffffffff8516028252611afc929186908190600401612558565b600060405180830381600087803b158015611b1657600080fd5b505af1158015611b2a573d6000803e3d6000fd5b505050505b61178684848461196f565b600a54600160a060020a03163314611b675760405160e560020a62461bcd0281526004016105ce9061207d565b60085460405160e560020a63027cecf3028152611ba1916101009004600160a060020a031690634f9d9e6090610cb1908590600401611ed7565b611be95760405160e560020a62461bcd0281526020600482015260136024820152606960020a7237baba1037b310353ab934b9b234b1ba34b7b70260448201526064016105ce565b60085460405160e160020a620d0e49028152610100909104600160a060020a031690621a1c9290611c2090600490859082016125e6565b600060405180830381600087803b158015611c3a57600080fd5b505af1158015611786573d6000803e3d6000fd5b600a54600160a060020a03163314611c7b5760405160e560020a62461bcd0281526004016105ce9061207d565b600d8054600160a060020a031916600160a060020a0392909216919091179055565b600082820183811015610aa05760405160e560020a62461bcd02815260206004820152601b60248201527f536166654d6174683a206164646974696f6e206f766572666c6f77000000000060448201526064016105ce565b600082820282158382048514151715611d0d57600080fd5b82611d188583612481565b14610aa05760405160e560020a62461bcd02815260206004820152602160248201527f536166654d6174683a206d756c7469706c69636174696f6e206f766572666c6f604482015260f860020a60770260648201526084016105ce565b805160208201206040516000918291611d9090600c90612611565b6040518091039020036113a15750600192915050565b600082821115611dfb5760405160e560020a62461bcd02815260206004820152601e60248201527f536166654d6174683a207375627472616374696f6e206f766572666c6f77000060448201526064016105ce565b818303821984018114610aa057600080fd5b6000808211611e615760405160e560020a62461bcd02815260206004820152601a60248201527f536166654d6174683a206469766973696f6e206279207a65726f00000000000060448201526064016105ce565b600082611e6d57600080fd5b5050900490565b60005b83811015611e8f578181015183820152602001611e77565b50506000910152565b60008151808452611eb0816020860160208601611e74565b601f01601f19169290920160200192915050565b602081526000610aa06020830184611e98565b600160a060020a0391909116815260200190565b8035600160a060020a0381168114611f0257600080fd5b919050565b600080600060608486031215611f1c57600080fd5b611f2584611eeb565b9250611f3360208501611eeb565b9150604084013590509250925092565b8015158114611f5157600080fd5b50565b600080600060408486031215611f6957600080fd5b8335611f7481611f43565b925060208401356001604060020a0380821115611f9057600080fd5b818601915086601f830112611fa457600080fd5b813581811115611fb357600080fd5b876020828501011115611fc557600080fd5b6020830194508093505050509250925092565b600080600060608486031215611fed57600080fd5b611ff684611eeb565b95602085013595506040909401359392505050565b60006020828403121561201d57600080fd5b610aa082611eeb565b60006020828403121561203857600080fd5b5035919050565b60028104600182168061205357607f821691505b6020821081036120775760e060020a634e487b710260009081526022600452602490fd5b50919050565b602080825260029082015260f060020a614e4f02604082015260600190565b60e060020a634e487b710260009081526011600452602490fd5b808201808211156113a1576113a161209c565b6020808252600a9082015260b060020a693233372e31343728652902604082015260600190565b60e060020a634e487b710260009081526041600452602490fd5b60006020828403121561211c57600080fd5b81516001604060020a038082111561213357600080fd5b818401915084601f83011261214757600080fd5b815181811115612159576121596120f0565b604051601f8201601f19908116603f01168101908382118183101715612181576121816120f0565b8160405282815287602084870101111561219a57600080fd5b6121ab836020830160208801611e74565b979650505050505050565b600082516121c8818460208701611e74565b9190910192915050565b600160a060020a039485168152928416602084015292166040820152606081019190915260800190565b60006020828403121561220e57600080fd5b8151610aa081611f43565b600160a060020a039384168152919092166020820152604081019190915260600190565b60d560020a650232927a69d1028152606060020a600160a060020a038581168202600684015260d560020a65016102a279d102601a84015284160260208083019190915260b560020a690161020a6a7aaa72a1d102603483015282516000916122ae908290603e8601908701611e74565b91909101603e01949350505050565b600081546122ca8161203f565b8085526020600183811680156122e757600181146123005761232e565b60ff19851688840152831515830288018301955061232e565b866000528260002060005b858110156123265781548a820186015290830190840161230b565b890184019650505b505050505092915050565b60808152600061234c60808301866122bd565b828103602084015261235e8186611e98565b9050828103806040850152600e8252609160020a6d2a3930b739b332b9102a37b5b2b70260208301526040810160608501525061239e6040820185611e98565b9695505050505050565b6000602082840312156123ba57600080fd5b5051919050565b831515815260406020820152816040820152818360608301376000818301606090810191909152601f909201601f1916010192915050565b602080825260039082015260e960020a622729a302604082015260600190565b600160a060020a0392831681529116602082015260400190565b602081526000610aa060208301846122bd565b6000806040838503121561245957600080fd5b505080516020909101519092909150565b80820281158282048414176113a1576113a161209c565b6000826124a25760e060020a634e487b710260009081526012600452602490fd5b500490565b600081546124b48161203f565b600182811680156124cc57600181146124e157612510565b60ff1984168752821515830287019450612510565b8560005260208060002060005b858110156125075781548a8201529084019082016124ee565b50505082870194505b5050505092915050565b609d60020a6c02921a2ac102332b2903337b91028152600061253f600d8301846124a7565b60d160020a65103a37b5b2b70281526006019392505050565b84815260c06020820152600460c082015260e360020a63086c2e6d0260e082015260006101008060408401526008818401525060c060020a675243455820466565026101208301526101408060608401526125b581840187611e98565b6080840195909552505060a0015292915050565b600060ff60020a82016125de576125de61209c565b506000190190565b6040815260006125f960408301856122bd565b9050600160a060020a03831660208301529392505050565b6000610aa082846124a756feddf252ad1be2c89b69c2b068fc378daa952ba7f163c4a11628f55a4df523b3efa26469706673582212207c4dd0bb3716eaa2290d324336183a6e3eed7c5891010359331130c06c05192064736f6c63430008120033",
  "immutableReferences": {},
  "source": "// SPDX-License-Identifier: BSL-1.1\npragma solidity >=0.4.22 <0.9.0;\n\nimport \"../../interfaces/IExemptLiquidityMarketExchange.sol\";\nimport \"../../interfaces/IPaymentWallet.sol\";\nimport \"../../abstract/AEquityToken.sol\";\n\ncontract Reg147Equity is AEquityToken {\n    /**\n     * About Rule 147 Secutrity Restrictions\n     * See https://www.sec.gov/info/smallbus/secg/intrastate-offering-exemptions-compliance-guide-041917\n     *\n     * Securities purchased in an offering pursuant to Rule 147 or Rule 147A can only be resold to persons residing in-state for a period of six months from the date of the sale by the issuer to the purchaser. \n     * Issuers must disclose these limitations on resale to offerees and purchasers and include appropriate legends on the certificate or document evidencing the security. \n     * Although securities purchased in an offering pursuant to Rule 147 or Rule 147A are not considered restricted securities, \n     * persons reselling the securities will nonetheless need to register the transaction with the Commission or have an exemption from registration under federal law\n     */\n\n    bool public restricted = false; \n\n    IExemptLiquidityMarketExchange public exchangeContract;\n\n    mapping(address => uint256) public transfer_log;\n\n    address public owner;\n    address public issuer;\n\n    event Transfer(address,address,uint256);\n\n    string public homeJurisdiction;\n    address public feeRecipient;\n    uint256 public FeePercentage = 1;\n\n    uint256 public bid;\n    uint256 public ask;\n\n    constructor(address tokenIssuer,string memory jurisdiction,string memory tokenName,string memory tokenSymbol,uint256 tokenSupply,uint256 tokenPrice,address exchangeAddress) {\n        owner = msg.sender;\n        issuer = tokenIssuer;\n\n        homeJurisdiction = jurisdiction;\n        name = tokenName;\n        symbol = tokenSymbol;\n        totalSupply = tokenSupply;\n        price = tokenPrice;\n        offeringType = \"Equity\";\n\n\n        exchangeContract = IExemptLiquidityMarketExchange(exchangeAddress);\n\n        MAX_OFFERING_SHARES = tokenSupply;\n\n        exchangeContract.assignToken(address(this), tokenIssuer, tokenName, tokenSymbol, totalSupply, \"Reg147\");\n        exchangeContract.setOfferingContractAddress(symbol,address(this));\n    }\n\n    modifier isOwner() {\n        require(msg.sender == owner,\"NO\");\n        _;\n    }\n\n    function getIssuer() external view returns (address) {\n        return issuer;\n    }\n\n    function getBalanceFrom(address wallet) external view returns (uint256) {\n        return uint256(exchangeContract.getShares(wallet,address(this)));\n    }\n\n\n    function addInvestor(address wallet) external isOwner {\n        require(findJurisdiction(exchangeContract.getInvestorJurisdiction(wallet)),\"out of jurisdiction\");\n        exchangeContract.addInvestor(symbol, wallet);\n    }\n\n    function setFeeRecipient(address wallet) external isOwner {\n        feeRecipient = wallet;\n    }\n\n\n    function transferOnChainPurchase(address from, address to, uint tokens) external isOwner {\n        // Calculate the total fee amount\n        uint256 Fee = (exchangeContract.usdToWei(SafeMath.safeMul(price,tokens)) * FeePercentage) / 100;\n\n        if (Fee > 0) {\n            exchangeContract.addEntry(block.timestamp,\"Cash\",\"RCEX Fee\",string(abi.encodePacked(\"RCEX Fee for \",symbol,\" token\")),int256(Fee),int256(Fee));\n        }\n\n        transfer(from,to,tokens);\n    }\n\n    /**\n     * @dev transfer : Transfer token to another etherum address\n     */ \n    function transfer(address from,address to, uint tokens) public isOwner returns (bool success) {\n        return transferFrom(from, to, tokens);\n    }\n\n    /**\n     * @dev transferFrom : Transfer token after approval \n     */ \n    function transferFrom(address from, address to, uint tokens) public isOwner returns (bool success) {\n        //require(validate(from, to, tokens),\"not valid\");\n\n        if (from != issuer) {\n            require (block.timestamp >= (transfer_log[from] + SIXMONTHS),\"237.147(e)\");\n            require (keccak256(abi.encodePacked(exchangeContract.getInvestorJurisdiction(from))) ==  keccak256(abi.encodePacked(exchangeContract.getInvestorJurisdiction(to))),\"cannot be sold across jursidcitons\");\n        }\n        exchangeContract.transferShares(from, to, address(this), int256(tokens));\n        transfer_log[to] = block.timestamp;\n\n        if (exchangeContract.isTransferAgent(from)) {\n            OUTSTANDING_SHARES = SafeMath.safeAdd(OUTSTANDING_SHARES, tokens);\n        }\n        emit Transfer(from, to, tokens);\n\n        // save CAT\n        string memory eventData = string(abi.encodePacked(\"FROM: \", from, \", TO: \", to, \", AMOUNT: \", exchangeContract.uintToString(tokens)));\n        exchangeContract.addAuditEntry(symbol,exchangeContract.timestampToString(),\"Transfer Token\",eventData);\n\n        return true;\n    }\n\n    /**\n     * Funding round:\n     * 1. Investor specifies number of shares to buy\n     * 2. Jurisdiction is vallidated and match with the Issuer\n     * 3. \n     */\n    function buy(address wallet,uint256 tokens,uint256 Fee) external isOwner {\n        require(tokens <= totalSupply,\"too many tokens\");\n        // payments transferred off-chain\n        if (Fee > 0) {\n            exchangeContract.addEntry(block.timestamp,\"Cash\",\"RCEX Fee\",string(abi.encodePacked(\"RCEX Fee for \",symbol,\" token\")),int256(Fee),int256(Fee));\n        }\n        // adjust the total supply for tokens sold to investor\n        totalSupply = SafeMath.safeSub(totalSupply, tokens);\n        // transfer tokens to investor\n        exchangeContract.addShares(wallet, address(this), int256(tokens));\n        // increaed the outstanding shares\n        OUTSTANDING_SHARES = SafeMath.safeAdd(OUTSTANDING_SHARES, tokens);\n        // check if funding round is complete?\n        if (OUTSTANDING_SHARES == MAX_OFFERING_SHARES && totalSupply == 0) {\n            TRADING_ACTIVE = true; // funding round is complete, secondary trading round is active! Use OrderBook for trading.\n        }\n        // post transfer event on the private blockchain\n        emit Transfer(issuer, wallet, tokens);\n\n        // save CAT\n        string memory eventData = string(abi.encodePacked(\"FROM: \", issuer, \", TO: \", wallet, \", AMOUNT: \", exchangeContract.uintToString(tokens)));\n        exchangeContract.addAuditEntry(symbol,exchangeContract.timestampToString(),\"Transfer Token\",eventData);\n    }\n\n    /**\n     * Sell is when an investor wishes to liquidate their holdings\n     */\n    function sell(address wallet,uint256 certificateNo,uint256 tokens) external isOwner {\n        require(exchangeContract.getInvestorStatus(wallet),\"NW\");\n        require(tokens > 0, \"NSF\");\n        require(certificateNo > 0,\"not valid certificate no\");\n        require(findJurisdiction(exchangeContract.getInvestorJurisdiction(wallet)),\"OOJ\");\n        require(exchangeContract.getShares(wallet,address(this)) >= int256(tokens),\"NSF\");\n        require(exchangeContract.getInvestorStatus(wallet),\"NRX\");\n\n        uint256 _price = 0;\n\n        if (TRADING_ACTIVE) {\n            // if trading is active, get current price from order book?\n            (bid, ask) = exchangeContract.quote(symbol);\n            if (ask > 0) {\n                _price = ask;\n            } else {\n                _price = price;\n            }\n        }  \n\n        if (wallet != issuer) {\n            require (block.timestamp >= (transfer_log[wallet] + SIXMONTHS),\"237.147(e)\");\n        }\n\n        // Calculate the total fee amount\n        uint256 Fee = (exchangeContract.usdToWei(SafeMath.safeMul(_price,tokens)) * FeePercentage) / 100;\n        \n\n        if (Fee > 0) {\n            exchangeContract.addEntry(block.timestamp,\"Cash\",\"RCEX Fee\",string(abi.encodePacked(\"RCEX Fee for \",symbol,\" token\")),int256(Fee),int256(Fee));\n        }\n        // transfer tokens to issuer and update totalSupply\n        exchangeContract.transferShares(wallet,issuer,address(this),int256(tokens));\n        totalSupply = SafeMath.safeAdd(totalSupply, tokens);\n        // increaed the outstanding shares\n        OUTSTANDING_SHARES = SafeMath.safeSub(OUTSTANDING_SHARES, tokens);\n        // post transfer event on the private blockchain\n        emit Transfer(wallet, issuer, tokens);\n\n        // save CAT\n        string memory eventData = string(abi.encodePacked(\"FROM: \", wallet, \", TO: \", issuer, \", AMOUNT: \", exchangeContract.uintToString(tokens)));\n        exchangeContract.addAuditEntry(symbol,exchangeContract.timestampToString(),\"Transfer Token\",eventData);\n    }\n\n\n\n    /**\n     * INTERNAL FUNCTIONS\n     */\n    function validate(address from,address to,uint tokens) external view override isOwner returns (bool) {\n        int valid = 0;\n        if (TRANSFERS_ACTIVE == false) {\n            valid--;\n        }\n        if (!findJurisdiction(exchangeContract.getInvestorJurisdiction(from))) {\n            valid--;\n        }\n        if (!findJurisdiction(exchangeContract.getInvestorJurisdiction(to))) {\n            valid--;\n        }\n        if (!exchangeContract.getInvestorStatus(to)) {\n            valid--;\n        }\n        if (tokens == 0) {\n            valid--;\n        }\n        if (tokens > totalSupply) {\n            valid--;\n        }\n        if (valid == 0) {\n            return true;\n        }\n        return false;\n    }\n\n    function findJurisdiction(string memory jurisdiction) internal view returns(bool) {\n        bool found = false;\n        if (keccak256(bytes(homeJurisdiction)) == keccak256(bytes(jurisdiction))) {\n            found = true;\n        }            \n        return found;\n    }\n}",
  "sourcePath": "/Volumes/My Book/projects/pingleware-contracts/contracts/finance/elmx/Reg147Equity.sol",
  "compiler": {
    "name": "solc",
    "version": "0.8.18+commit.87f61d96.Emscripten.clang"
  },
  "schemaVersion": "3.4.12",
  "updatedAt": "2023-10-23T01:38:21.782Z",
  "devdoc": {
    "kind": "dev",
    "methods": {
      "transfer(address,address,uint256)": {
        "details": "transfer : Transfer token to another etherum address"
      },
      "transferFrom(address,address,uint256)": {
        "details": "transferFrom : Transfer token after approval "
      }
    },
    "version": 1
  },
  "userdoc": {
    "kind": "user",
    "methods": {
      "buy(address,uint256,uint256)": {
        "notice": "Funding round: 1. Investor specifies number of shares to buy 2. Jurisdiction is vallidated and match with the Issuer 3. "
      },
      "getMarketValue()": {
        "notice": "Needed to calculate the Exchange Market Index Total Exchange Market Value = sum of each offering market value [getMarketValue()] Exchange Market Index = sum of the product of the offering price and offering merket weigth"
      },
      "restricted()": {
        "notice": "About Rule 147 Secutrity Restrictions See https://www.sec.gov/info/smallbus/secg/intrastate-offering-exemptions-compliance-guide-041917 Securities purchased in an offering pursuant to Rule 147 or Rule 147A can only be resold to persons residing in-state for a period of six months from the date of the sale by the issuer to the purchaser.  Issuers must disclose these limitations on resale to offerees and purchasers and include appropriate legends on the certificate or document evidencing the security.  Although securities purchased in an offering pursuant to Rule 147 or Rule 147A are not considered restricted securities,  persons reselling the securities will nonetheless need to register the transaction with the Commission or have an exemption from registration under federal law"
      },
      "sell(address,uint256,uint256)": {
        "notice": "Sell is when an investor wishes to liquidate their holdings"
      },
      "validate(address,address,uint256)": {
        "notice": "INTERNAL FUNCTIONS"
      }
    },
    "version": 1
  }
}