{
  "contractName": "Reg147ADebt",
  "abi": [
    {
      "inputs": [],
      "stateMutability": "nonpayable",
      "type": "constructor"
    },
    {
      "anonymous": false,
      "inputs": [
        {
          "indexed": false,
          "internalType": "address",
          "name": "",
          "type": "address"
        },
        {
          "indexed": false,
          "internalType": "uint256",
          "name": "",
          "type": "uint256"
        }
      ],
      "name": "BondRedeemed",
      "type": "event"
    },
    {
      "anonymous": false,
      "inputs": [
        {
          "indexed": false,
          "internalType": "address",
          "name": "",
          "type": "address"
        },
        {
          "indexed": false,
          "internalType": "uint256",
          "name": "",
          "type": "uint256"
        }
      ],
      "name": "CouponPaymentMade",
      "type": "event"
    },
    {
      "anonymous": false,
      "inputs": [
        {
          "indexed": false,
          "internalType": "address",
          "name": "_sender",
          "type": "address"
        }
      ],
      "name": "Sender",
      "type": "event"
    },
    {
      "anonymous": false,
      "inputs": [
        {
          "indexed": false,
          "internalType": "bool",
          "name": "",
          "type": "bool"
        },
        {
          "indexed": false,
          "internalType": "string",
          "name": "",
          "type": "string"
        }
      ],
      "name": "TradingStatusChange",
      "type": "event"
    },
    {
      "anonymous": false,
      "inputs": [
        {
          "indexed": false,
          "internalType": "bool",
          "name": "",
          "type": "bool"
        },
        {
          "indexed": false,
          "internalType": "string",
          "name": "",
          "type": "string"
        }
      ],
      "name": "TradingStatusChanged",
      "type": "event"
    },
    {
      "anonymous": false,
      "inputs": [
        {
          "indexed": true,
          "internalType": "address",
          "name": "from",
          "type": "address"
        },
        {
          "indexed": true,
          "internalType": "address",
          "name": "to",
          "type": "address"
        },
        {
          "indexed": false,
          "internalType": "uint256",
          "name": "value",
          "type": "uint256"
        }
      ],
      "name": "Transfer",
      "type": "event"
    },
    {
      "anonymous": false,
      "inputs": [
        {
          "indexed": false,
          "internalType": "bool",
          "name": "",
          "type": "bool"
        },
        {
          "indexed": false,
          "internalType": "string",
          "name": "",
          "type": "string"
        }
      ],
      "name": "TransferStatusChange",
      "type": "event"
    },
    {
      "anonymous": false,
      "inputs": [
        {
          "indexed": false,
          "internalType": "bool",
          "name": "",
          "type": "bool"
        },
        {
          "indexed": false,
          "internalType": "string",
          "name": "",
          "type": "string"
        }
      ],
      "name": "TransferStatusChanged",
      "type": "event"
    },
    {
      "inputs": [],
      "name": "MAX_OFFERING_SHARES",
      "outputs": [
        {
          "internalType": "uint256",
          "name": "",
          "type": "uint256"
        }
      ],
      "stateMutability": "view",
      "type": "function"
    },
    {
      "inputs": [],
      "name": "OUTSTANDING_SHARES",
      "outputs": [
        {
          "internalType": "uint256",
          "name": "",
          "type": "uint256"
        }
      ],
      "stateMutability": "view",
      "type": "function"
    },
    {
      "inputs": [],
      "name": "SIXMONTHS",
      "outputs": [
        {
          "internalType": "uint256",
          "name": "",
          "type": "uint256"
        }
      ],
      "stateMutability": "view",
      "type": "function"
    },
    {
      "inputs": [],
      "name": "TRADING_ACTIVE",
      "outputs": [
        {
          "internalType": "bool",
          "name": "",
          "type": "bool"
        }
      ],
      "stateMutability": "view",
      "type": "function"
    },
    {
      "inputs": [],
      "name": "TRANSFERS_ACTIVE",
      "outputs": [
        {
          "internalType": "bool",
          "name": "",
          "type": "bool"
        }
      ],
      "stateMutability": "view",
      "type": "function"
    },
    {
      "inputs": [],
      "name": "YEAR",
      "outputs": [
        {
          "internalType": "uint256",
          "name": "",
          "type": "uint256"
        }
      ],
      "stateMutability": "view",
      "type": "function"
    },
    {
      "inputs": [],
      "name": "bondCouponRate",
      "outputs": [
        {
          "internalType": "uint256",
          "name": "",
          "type": "uint256"
        }
      ],
      "stateMutability": "view",
      "type": "function"
    },
    {
      "inputs": [
        {
          "internalType": "uint256",
          "name": "",
          "type": "uint256"
        }
      ],
      "name": "bondHolders",
      "outputs": [
        {
          "internalType": "address",
          "name": "holderAddress",
          "type": "address"
        },
        {
          "internalType": "uint256",
          "name": "investedAmount",
          "type": "uint256"
        }
      ],
      "stateMutability": "view",
      "type": "function"
    },
    {
      "inputs": [],
      "name": "bondMaturityDate",
      "outputs": [
        {
          "internalType": "uint256",
          "name": "",
          "type": "uint256"
        }
      ],
      "stateMutability": "view",
      "type": "function"
    },
    {
      "inputs": [],
      "name": "bondPrincipal",
      "outputs": [
        {
          "internalType": "uint256",
          "name": "",
          "type": "uint256"
        }
      ],
      "stateMutability": "view",
      "type": "function"
    },
    {
      "inputs": [],
      "name": "bondRating",
      "outputs": [
        {
          "internalType": "uint256",
          "name": "",
          "type": "uint256"
        }
      ],
      "stateMutability": "view",
      "type": "function"
    },
    {
      "inputs": [
        {
          "internalType": "bool",
          "name": "status",
          "type": "bool"
        },
        {
          "internalType": "string",
          "name": "reason",
          "type": "string"
        }
      ],
      "name": "changeTradingStatus",
      "outputs": [],
      "stateMutability": "nonpayable",
      "type": "function"
    },
    {
      "inputs": [
        {
          "internalType": "bool",
          "name": "status",
          "type": "bool"
        },
        {
          "internalType": "string",
          "name": "reason",
          "type": "string"
        }
      ],
      "name": "changeTransferStatus",
      "outputs": [],
      "stateMutability": "nonpayable",
      "type": "function"
    },
    {
      "inputs": [],
      "name": "getMarketValue",
      "outputs": [
        {
          "internalType": "uint256",
          "name": "",
          "type": "uint256"
        }
      ],
      "stateMutability": "nonpayable",
      "type": "function"
    },
    {
      "inputs": [
        {
          "internalType": "uint256",
          "name": "totalExchangeMarketValue",
          "type": "uint256"
        }
      ],
      "name": "getMarketWeight",
      "outputs": [
        {
          "internalType": "uint256",
          "name": "",
          "type": "uint256"
        }
      ],
      "stateMutability": "nonpayable",
      "type": "function"
    },
    {
      "inputs": [],
      "name": "getOwner",
      "outputs": [
        {
          "internalType": "address",
          "name": "",
          "type": "address"
        }
      ],
      "stateMutability": "view",
      "type": "function"
    },
    {
      "inputs": [],
      "name": "issuer",
      "outputs": [
        {
          "internalType": "address",
          "name": "",
          "type": "address"
        }
      ],
      "stateMutability": "view",
      "type": "function"
    },
    {
      "inputs": [],
      "name": "name",
      "outputs": [
        {
          "internalType": "string",
          "name": "",
          "type": "string"
        }
      ],
      "stateMutability": "view",
      "type": "function"
    },
    {
      "inputs": [],
      "name": "offeringType",
      "outputs": [
        {
          "internalType": "string",
          "name": "",
          "type": "string"
        }
      ],
      "stateMutability": "view",
      "type": "function"
    },
    {
      "inputs": [
        {
          "internalType": "address",
          "name": "paymentWalletAddress",
          "type": "address"
        }
      ],
      "name": "setPaymentWalletContract",
      "outputs": [],
      "stateMutability": "nonpayable",
      "type": "function"
    },
    {
      "inputs": [
        {
          "internalType": "address",
          "name": "from",
          "type": "address"
        },
        {
          "internalType": "address",
          "name": "to",
          "type": "address"
        },
        {
          "internalType": "uint256",
          "name": "tokens",
          "type": "uint256"
        }
      ],
      "name": "validate",
      "outputs": [
        {
          "internalType": "bool",
          "name": "",
          "type": "bool"
        }
      ],
      "stateMutability": "view",
      "type": "function"
    },
    {
      "inputs": [
        {
          "internalType": "address",
          "name": "from",
          "type": "address"
        },
        {
          "internalType": "address",
          "name": "to",
          "type": "address"
        },
        {
          "internalType": "uint256",
          "name": "tokens",
          "type": "uint256"
        }
      ],
      "name": "transfer",
      "outputs": [
        {
          "internalType": "bool",
          "name": "",
          "type": "bool"
        }
      ],
      "stateMutability": "nonpayable",
      "type": "function"
    },
    {
      "inputs": [
        {
          "internalType": "address",
          "name": "from",
          "type": "address"
        },
        {
          "internalType": "address",
          "name": "to",
          "type": "address"
        },
        {
          "internalType": "uint256",
          "name": "tokens",
          "type": "uint256"
        }
      ],
      "name": "transferFrom",
      "outputs": [
        {
          "internalType": "bool",
          "name": "",
          "type": "bool"
        }
      ],
      "stateMutability": "nonpayable",
      "type": "function"
    },
    {
      "inputs": [
        {
          "internalType": "address",
          "name": "wallet",
          "type": "address"
        }
      ],
      "name": "getBalanceFrom",
      "outputs": [
        {
          "internalType": "uint256",
          "name": "",
          "type": "uint256"
        }
      ],
      "stateMutability": "view",
      "type": "function"
    },
    {
      "inputs": [],
      "name": "getTradingStatus",
      "outputs": [
        {
          "internalType": "bool",
          "name": "",
          "type": "bool"
        }
      ],
      "stateMutability": "view",
      "type": "function"
    },
    {
      "inputs": [
        {
          "internalType": "address",
          "name": "wallet",
          "type": "address"
        },
        {
          "internalType": "uint256",
          "name": "tokens",
          "type": "uint256"
        },
        {
          "internalType": "uint256",
          "name": "Fee",
          "type": "uint256"
        }
      ],
      "name": "buy",
      "outputs": [],
      "stateMutability": "nonpayable",
      "type": "function"
    },
    {
      "inputs": [],
      "name": "getIssuer",
      "outputs": [
        {
          "internalType": "address",
          "name": "",
          "type": "address"
        }
      ],
      "stateMutability": "view",
      "type": "function"
    },
    {
      "inputs": [],
      "name": "getOutstandingShares",
      "outputs": [
        {
          "internalType": "uint256",
          "name": "",
          "type": "uint256"
        }
      ],
      "stateMutability": "view",
      "type": "function"
    },
    {
      "inputs": [],
      "name": "getTotalSupply",
      "outputs": [
        {
          "internalType": "uint256",
          "name": "",
          "type": "uint256"
        }
      ],
      "stateMutability": "view",
      "type": "function"
    },
    {
      "inputs": [],
      "name": "getOfferingType",
      "outputs": [
        {
          "internalType": "string",
          "name": "",
          "type": "string"
        }
      ],
      "stateMutability": "view",
      "type": "function"
    }
  ],
  "bytecode": "0x6000805461ffff19168155600181905560025560c0604052600460809081527f444542540000000000000000000000000000000000000000000000000000000060a052600a906200005190826200014f565b503480156200005f57600080fd5b50600b8054600160a060020a0319163317905562000222565b7f4e487b7100000000000000000000000000000000000000000000000000000000600052604160045260246000fd5b600281046001821680620000bc57607f821691505b602082108103620000f6577f4e487b7100000000000000000000000000000000000000000000000000000000600052602260045260246000fd5b50919050565b601f8211156200014a576000818152602081206020601f86010481016020861015620001255750805b6020601f860104820191505b81811015620001465782815560010162000131565b5050505b505050565b815167ffffffffffffffff8111156200016c576200016c62000078565b62000184816200017d8454620000a7565b84620000fc565b602080601f831160018114620001c05760008415620001a35750858301515b60028086026008870290910a600019041982161786555062000146565b600085815260208120601f198616915b82811015620001f157888601518255948401946001909101908401620001d0565b50858210156200021257878501516008601f88160260020a60001904191681555b5050505050600202600101905550565b610fa880620002326000396000f3fe608060405234801561001057600080fd5b506004361061016d5760e060020a600035046306fdde0381146101725780630b468fe1146101905780631d143848146101a7578063219f7e8d146101c757806323b872dd146101d057806340f0eb35146101f357806352556421146101fb57806361e763641461020c57806362befb1e14610215578063636110ee1461021d578063723b4e8114610232578063752f76971461023b578063821828a31461024557806383914540146102755780638862d26a14610280578063893d20e81461028857806389af2dce14610299578063973ccf0e146102ac57806397a67fe1146102de5780639ac97560146102eb578063a1305aa5146102fe578063a59ac6dd1461030e578063a5dea8a914610321578063aa3ad4e414610334578063beabacc814610347578063bf3986311461035a578063c4e41b2214610363578063cbc2bc431461036a578063de2b4e981461037c578063eaf4f27714610384575b600080fd5b61017a61038d565b6040516101879190610b4f565b60405180910390f35b61019960085481565b604051908152602001610187565b6004546101ba90600160a060020a031681565b6040516101879190610b9d565b61019960065481565b6101e36101de366004610bcd565b61041b565b6040519015158152602001610187565b61017a6104ed565b600454600160a060020a03166101ba565b61019960025481565b61019961057f565b61023061022b366004610c09565b610681565b005b61019960055481565b61019962ed4e0081565b610230610253366004610c92565b600c8054600160a060020a031916600160a060020a0392909216919091179055565b6101996301e1338081565b61017a6106d5565b600b54600160a060020a03166101ba565b6101996102a7366004610c92565b6106e2565b6102bf6102ba366004610cad565b61078a565b60408051600160a060020a039093168352602083019190915201610187565b6000546101e39060ff1681565b6102306102f9366004610c09565b6107c2565b600054610100900460ff166101e3565b61023061031c366004610cc6565b505050565b61019961032f366004610cad565b610804565b6101e3610342366004610bcd565b610821565b6101e3610355366004610bcd565b6108ab565b61019960015481565b6000610199565b6000546101e390610100900460ff1681565b600154610199565b61019960075481565b6003805461039a90610cf9565b80601f01602080910402602001604051908101604052809291908181526020018280546103c690610cf9565b80156104135780601f106103e857610100808354040283529160200191610413565b820191906000526020600020905b8154815290600101906020018083116103f657829003601f168201915b505050505081565b600c54600090600160a060020a03166104525760405160e560020a62461bcd02815260040161044990610d37565b60405180910390fd5b600c5460405160e160020a630d7b8b5d028152600160a060020a038681166004830152858116602483015260448201859052608060648301526003608483015260e860020a624e2f410260a483015290911690631af716ba9060c4015b600060405180830381600087803b1580156104c957600080fd5b505af11580156104dd573d6000803e3d6000fd5b50505050600190505b9392505050565b6060600a80546104fc90610cf9565b80601f016020809104026020016040519081016040528092919081815260200182805461052890610cf9565b80156105755780601f1061054a57610100808354040283529160200191610575565b820191906000526020600020905b81548152906001019060200180831161055857829003601f168201915b5050505050905090565b6000600654662386f26fc100006105969190610d95565b60068190556005546000916064916105ae9190610d95565b6105b89190610dac565b90506000806105c56109e0565b905060015b818111610644576000670de0b6b3a76400006006546005546105ec9190610d95565b6105f69190610dac565b905060008261060d87670de0b6b3a7640000610dd2565b6106179190610ecc565b90506106238183610dac565b61062d9086610dd2565b94505050808061063c90610ed8565b9150506105ca565b508061065884670de0b6b3a7640000610dd2565b6106629190610ecc565b60055461066f9190610dac565b6106799083610dd2565b949350505050565b6000805461ff001916610100851515021790556040517fd5d3710e87ad129534715c02a9b1de4c50bdc2faeaa8a34a0470039175e31f25906106c890859085908590610ef1565b60405180910390a1505050565b600a805461039a90610cf9565b600c54600090600160a060020a03166107105760405160e560020a62461bcd02815260040161044990610d37565b600c5460405160e060020a63f8b2cb4f028152600160a060020a039091169063f8b2cb4f90610743908590600401610b9d565b602060405180830381865afa158015610760573d6000803e3d6000fd5b505050506040513d601f19601f820116820180604052508101906107849190610f29565b92915050565b6009818154811061079a57600080fd5b600091825260209091206002909102018054600190910154600160a060020a03909116915082565b6000805460ff19168415151790556040517faa4f09342ef9787b0bc3a7df0faa5f114a19a74a2f1e61dcfb504c484508f4ca906106c890859085908590610ef1565b600061078461081a61081461057f565b84610a68565b6064610acf565b60008054819060ff1615158103610840578061083c81610f42565b9150505b600160a060020a03851661085c578061085881610f42565b9150505b600160a060020a038416610878578061087481610f42565b9150505b8260000361088e578061088a81610f42565b9150505b806000036108a05760019150506104e6565b506000949350505050565b6000600160a060020a03841633146109015760405160e560020a62461bcd0281526020600482015260136024820152606960020a723737ba10333937b69036b9b39739b2b73232b9026044820152606401610449565b600c54600160a060020a031661092c5760405160e560020a62461bcd02815260040161044990610d37565b600c546040805160e060020a63afc96f790281529051600160a060020a039092169163095bcdb69186918691859163afc96f79916004808201926020929091908290030181865afa158015610985573d6000803e3d6000fd5b505050506040513d601f19601f820116820180604052508101906109a99190610f29565b60405160e060020a63ffffffff8616028152600160a060020a039093166004840152602483019190915260448201526064016104af565b6000426007541015610a465760405160e560020a62461bcd02815260206004820152602360248201527f4d617475726974792064617465206d75737420626520696e2074686520667574604482015260e860020a62757265026064820152608401610449565b600042600754610a569190610f5f565b905060006104e66301e1338083610dac565b6000808211610abc5760405160e560020a62461bcd02815260206004820152601a60248201527f536166654d6174683a206469766973696f6e206279207a65726f0000000000006044820152606401610449565b600082610ac857600080fd5b5050900490565b600082820282158382048514151715610ae757600080fd5b82610af28583610dac565b146104e65760405160e560020a62461bcd02815260206004820152602160248201527f536166654d6174683a206d756c7469706c69636174696f6e206f766572666c6f604482015260f860020a6077026064820152608401610449565b600060208083528351808285015260005b81811015610b7c57858101830151858201604001528201610b60565b506000604082860101526040601f19601f8301168501019250505092915050565b600160a060020a0391909116815260200190565b8035600160a060020a0381168114610bc857600080fd5b919050565b600080600060608486031215610be257600080fd5b610beb84610bb1565b9250610bf960208501610bb1565b9150604084013590509250925092565b600080600060408486031215610c1e57600080fd5b83358015158114610c2e57600080fd5b925060208401356001604060020a0380821115610c4a57600080fd5b818601915086601f830112610c5e57600080fd5b813581811115610c6d57600080fd5b876020828501011115610c7f57600080fd5b6020830194508093505050509250925092565b600060208284031215610ca457600080fd5b6104e682610bb1565b600060208284031215610cbf57600080fd5b5035919050565b600080600060608486031215610cdb57600080fd5b610ce484610bb1565b95602085013595506040909401359392505050565b600281046001821680610d0d57607f821691505b602082108103610d315760e060020a634e487b710260009081526022600452602490fd5b50919050565b60208082526021908201527f5061796d656e7457616c6c657420636f6e7472616374206973206e6f74207365604082015260fa60020a601d02606082015260800190565b60e060020a634e487b710260009081526011600452602490fd5b808202811582820484141761078457610784610d7b565b600082610dcd5760e060020a634e487b710260009081526012600452602490fd5b500490565b8082018082111561078457610784610d7b565b600181815b80851115610e22578160001904821115610e0657610e06610d7b565b80851615610e1357918102915b60029094049390800290610dea565b509250929050565b600082610e3957506001610784565b81610e4657506000610784565b8160018114610e5c5760028114610e6657610e83565b6001915050610784565b60ff841115610e7757610e77610d7b565b8360020a915050610784565b5060208310610133831016604e8410600b8410161715610ea6575081810a610784565b610eb08383610de5565b8060001904821115610ec457610ec4610d7b565b029392505050565b60006104e68383610e2a565b600060018201610eea57610eea610d7b565b5060010190565b831515815260406020820152816040820152818360608301376000818301606090810191909152601f909201601f1916010192915050565b600060208284031215610f3b57600080fd5b5051919050565b600060ff60020a8201610f5757610f57610d7b565b506000190190565b8181038181111561078457610784610d7b56fea264697066735822122027371b53eb2cb73200a5fa7cc7ed5a8ea05efa7eb0ea53a353cbce510b69b49464736f6c63430008120033",
  "immutableReferences": {},
  "source": "// SPDX-License-Identifier: BSL-1.1\npragma solidity >=0.4.22 <0.9.0;\n\n/**\n * Rule 147 is considered a safe harbor under Section 3(a)(11), providing objective standards that a company can rely on to meet the requirements of that exemption. \n * Rule 147, as amended, has the following requirements:\n *\n *     the company must be organized in the state where it offers and sells securities\n *     the company must have its principal place of business in-state and satisfy at least one doing business requirement that demonstrates the in-state nature of the companys business\n *     offers and sales of securities can only be made to in-state residents or persons who the company reasonably believes are in-state residents and\n *     the company obtains a written representation from each purchaser providing the residency of that purchaser\n *\n * Securities purchased in an offering under Rule 147 limit resales to persons residing within the state of the offering for a period of six months from the date of the sale by the issuer to the purchaser. \n * In addition, a company must comply with state securities laws and regulations in the states in which securities are offered or sold.\n */\n\n/**\n *  230.147 Intrastate offers and sales.\n *\n * (a) This section shall not raise any presumption that the exemption provided by section 3(a)(11) of the Act (15 U.S.C. 77c(a)(11)) is not available for transactions by an issuer which do not satisfy all \n *     of the provisions of this section. \n * \n * (b) Manner of offers and sales.  An issuer, or any person acting on behalf of the issuer, shall be deemed to conduct an offering in compliance with section 3(a)(11) of the Act (15 U.S.C. 77c(a)(11)), where offers and sales are made only to persons resident within the same state or territory in which the issuer is resident and doing business, within the meaning of section 3(a)(11) of the Act, so long as the issuer complies with the provisions of paragraphs (c), (d), and (f) through (h) of this section. \n * \n * (c) Nature of the issuer.  The issuer of the securities shall at the time of any offers and sales be a person resident and doing business within the state or territory in which all of the offers and sales are made. \n * \n * (1) The issuer shall be deemed to be a resident of the state or territory in which: \n * \n * (i) It is incorporated or organized, and it has its principal place of business, if a corporation, limited partnership, trust or other form of business organization that is organized under state or territorial law. The issuer shall be deemed to have its principal place of business in a state or territory in which the officers, partners or managers of the issuer primarily direct, control and coordinate the activities of the issuer; \n * \n * (ii) It has its principal place of business, as defined in paragraph (c)(1)(i) of this section, if a general partnership or other form of business organization that is not organized under any state or territorial law; \n * \n * (iii) Such person's principal residence is located, if an individual. \n * \n * Instruction to paragraph (c)\n * (1):  An issuer that has previously conducted an intrastate offering pursuant to this section ( 230.147) or Rule 147A ( 230.147A) may not conduct another intrastate offering pursuant to this section ( 230.147) in a different state or territory, until the expiration of the time period specified in paragraph (e) of this section ( 230.147(e)) or paragraph (e) of Rule 147A ( 230.147A(e)), calculated on the basis of the date of the last sale in such offering. \n * \n * (2) The issuer shall be deemed to be doing business within a state or territory if the issuer satisfies at least one of the following requirements: \n * \n * (i) The issuer derived at least 80% of its consolidated gross revenues from the operation of a business or of real property located in or from the rendering of services within such state or territory; \n * \n * Instruction to paragraph (c)\n *  \n * (2)(i):  Revenues must be calculated based on the issuer's most recent fiscal year, if the first offer of securities pursuant to this section is made during the first six months of the issuer's current fiscal year, and based on the first six months of the issuer's current fiscal year or during the twelve-month fiscal period ending with such six-month period, if the first offer of securities pursuant to this section is made during the last six months of the issuer's current fiscal year. \n * \n * (ii) The issuer had at the end of its most recent semi-annual fiscal period prior to an initial offer of securities in any offering or subsequent offering pursuant to this section, at least 80% of its assets and those of its subsidiaries on a consolidated basis located within such state or territory; \n * \n * (iii) The issuer intends to use and uses at least 80% of the net proceeds to the issuer from sales made pursuant to this section ( 230.147) in connection with the operation of a business or of real property, the purchase of real property located in, or the rendering of services within such state or territory; or \n * \n * (iv) A majority of the issuer's employees are based in such state or territory. \n * \n * (d) Residence of offerees and purchasers.  Offers and sales of securities pursuant to this section ( 230.147) shall be made only to residents of the state or territory in which the issuer is resident, as determined pursuant to paragraph (c) of this section, or who the issuer reasonably believes, at the time of the offer and sale, are residents of the state or territory in which the issuer is resident. For purposes of determining the residence of offerees and purchasers: \n * \n * (1) A corporation, partnership, limited liability company, trust or other form of business organization shall be deemed to be a resident of a state or territory if, at the time of the offer and sale to it, it has its principal place of business, as defined in paragraph (c)(1)(i) of this section, within such state or territory. \n * \n * Instruction to paragraph (d)\n * (1):  A trust that is not deemed by the law of the state or territory of its creation to be a separate legal entity is deemed to be a resident of each state or territory in which its trustee is, or trustees are, resident. \n * \n * (2) Individuals shall be deemed to be residents of a state or territory if such individuals have, at the time of the offer and sale to them, their principal residence in the state or territory. \n * \n * (3) A corporation, partnership, trust or other form of business organization, which is organized for the specific purpose of acquiring securities offered pursuant to this section ( 230.147), shall not be a resident of a state or territory unless all of the beneficial owners of such organization are residents of such state or territory. \n * \n * Instruction to paragraph (d):  Obtaining a written representation from purchasers of in-state residency status will not, without more, be sufficient to establish a reasonable belief that such purchasers are in-state residents. \n * \n * (e) Limitation on resales.  For a period of six months from the date of the sale by the issuer of a security pursuant to this section ( 230.147), any resale of such security shall be made only to persons resident within the state or territory in which the issuer was resident, as determined pursuant to paragraph (c) of this section, at the time of the sale of the security by the issuer. \n * \n * Instruction to paragraph (e):  In the case of convertible securities, resales of either the convertible security, or if it is converted, the underlying security, could be made during the period described in paragraph (e) only to persons resident within such state or territory. For purposes of this paragraph (e), a conversion in reliance on section 3(a)(9) of the Act (15 U.S.C. 77c(a)(9)) does not begin a new period. \n * \n * (f) Precautions against interstate sales. \n * \n * (1) The issuer shall, in connection with any securities sold by it pursuant to this section: \n * \n * (i) Place a prominent legend on the certificate or other document evidencing the security stating that: Offers and sales of these securities were made under an exemption from registration and have not been registered under the Securities Act of 1933. For a period of six months from the date of the sale by the issuer of these securities, any resale of these securities (or the underlying securities in the case of convertible securities) shall be made only to persons resident within the state or territory of [identify the name of the state or territory in which the issuer was resident at the time of the sale of the securities by the issuer].; \n * \n * (ii) Issue stop transfer instructions to the issuer's transfer agent, if any, with respect to the securities, or, if the issuer transfers its own securities, make a notation in the appropriate records of the issuer; and \n * \n * (iii) Obtain a written representation from each purchaser as to his or her residence. \n * \n * (2) The issuer shall, in connection with the issuance of new certificates for any of the securities that are sold pursuant to this section ( 230.147) that are presented for transfer during the time period specified in paragraph (e), take the steps required by paragraphs (f)(1)(i) and (ii) of this section. \n * \n * (3) The issuer shall, at the time of any offer or sale by it of a security pursuant to this section ( 230.147), prominently disclose to each offeree in the manner in which any such offer is communicated and to each purchaser of such security in writing a reasonable period of time before the date of sale, the following: Sales will be made only to residents of [identify the name of the state or territory in which the issuer was resident at the time of the sale of the securities by the issuer]. Offers and sales of these securities are made under an exemption from registration and have not been registered under the Securities Act of 1933. For a period of six months from the date of the sale by the issuer of the securities, any resale of the securities (or the underlying securities in the case of convertible securities) shall be made only to persons resident within the state or territory of [identify the name of the state or territory in which the issuer was resident at the time of the sale of the securities by the issuer]. \n * \n * (g) Integration with other offerings.  To determine whether offers and sales should be integrated, refer to  230.152.\n */\n\nimport \"./AccessControl.sol\";\nimport \"../../interfaces/IPaymentWallet.sol\";\nimport \"../../abstract/ADebtToken.sol\";\n\ncontract Reg147ADebt is ADebtToken, AccessControl {\n     constructor() {\n\n    }\n\n    IPaymentWallet paymentWalletContract;\n\n    function setPaymentWalletContract(address paymentWalletAddress) external {\n        paymentWalletContract = IPaymentWallet(paymentWalletAddress);\n    }\n\n\n    function validate(address from,address to,uint tokens) external view returns (bool) {\n        int valid = 0;\n        if (TRANSFERS_ACTIVE == false) {\n            valid--;\n        }\n        if (from == address(0x0)) {\n            valid--;\n        }\n        if (to == address(0x0)) {\n            valid--;\n        }\n        if (tokens == 0) {\n            valid--;\n        }\n        if (valid == 0) {\n            return true;\n        }\n        return false;\n    }\n    function transfer(address from,address to, uint tokens)  external returns (bool) {\n        require(from == msg.sender,\"not from msg.sender\");\n        require(address(paymentWalletContract) != address(0x0),\"PaymentWallet contract is not set\");\n        paymentWalletContract.transfer(to, tokens, paymentWalletContract.getCVV());\n        return true;\n    }\n    function transferFrom(address from, address to, uint tokens)  external returns (bool) {\n        require(address(paymentWalletContract) != address(0x0),\"PaymentWallet contract is not set\");\n        paymentWalletContract.transferFrom(from, to, tokens, \"N/A\");\n        return true;\n    }\n    function getBalanceFrom(address wallet) external view returns (uint256) {\n        require(address(paymentWalletContract) != address(0x0),\"PaymentWallet contract is not set\");\n        return paymentWalletContract.getBalance(wallet);\n    }\n    function getTradingStatus() external view returns (bool) {\n        return TRADING_ACTIVE;\n    }\n\n    function buy(address wallet,uint256 tokens,uint256 Fee) external {\n\n    }\n\n    function getIssuer() external view returns (address) {\n        return issuer;\n    }\n    function getOutstandingShares() external view returns (uint256) {\n        return OUTSTANDING_SHARES;\n    }\n    function getTotalSupply() external view returns (uint256) {\n\n    }\n    function getOfferingType() external view returns (string memory) {\n        return offeringType;\n    }\n}",
  "sourcePath": "/Volumes/My Book/projects/pingleware-contracts/contracts/finance/elmx/Reg147ADebt.sol",
  "compiler": {
    "name": "solc",
    "version": "0.8.18+commit.87f61d96.Emscripten.clang"
  },
  "schemaVersion": "3.4.12",
  "updatedAt": "2023-10-26T20:32:53.039Z",
  "devdoc": {
    "kind": "dev",
    "methods": {},
    "version": 1
  },
  "userdoc": {
    "kind": "user",
    "methods": {},
    "version": 1
  }
}