{
  "contractName": "Reg147AEquity",
  "abi": [
    {
      "inputs": [
        {
          "internalType": "address",
          "name": "tokenIssuer",
          "type": "address"
        },
        {
          "internalType": "string",
          "name": "jurisdiction",
          "type": "string"
        },
        {
          "internalType": "string",
          "name": "tokenName",
          "type": "string"
        },
        {
          "internalType": "string",
          "name": "tokenSymbol",
          "type": "string"
        },
        {
          "internalType": "uint256",
          "name": "tokenSupply",
          "type": "uint256"
        },
        {
          "internalType": "uint256",
          "name": "tokenPrice",
          "type": "uint256"
        }
      ],
      "stateMutability": "nonpayable",
      "type": "constructor"
    },
    {
      "anonymous": false,
      "inputs": [
        {
          "indexed": false,
          "internalType": "address",
          "name": "",
          "type": "address"
        },
        {
          "indexed": false,
          "internalType": "address",
          "name": "",
          "type": "address"
        },
        {
          "indexed": false,
          "internalType": "uint256",
          "name": "",
          "type": "uint256"
        }
      ],
      "name": "Approval",
      "type": "event"
    },
    {
      "anonymous": false,
      "inputs": [
        {
          "indexed": true,
          "internalType": "address",
          "name": "investor",
          "type": "address"
        },
        {
          "indexed": false,
          "internalType": "uint256",
          "name": "tokens",
          "type": "uint256"
        },
        {
          "indexed": false,
          "internalType": "string",
          "name": "reason",
          "type": "string"
        }
      ],
      "name": "Disapproval",
      "type": "event"
    },
    {
      "anonymous": false,
      "inputs": [
        {
          "indexed": false,
          "internalType": "address",
          "name": "investor",
          "type": "address"
        },
        {
          "indexed": false,
          "internalType": "uint256",
          "name": "tokens",
          "type": "uint256"
        },
        {
          "indexed": false,
          "internalType": "bool",
          "name": "buy",
          "type": "bool"
        }
      ],
      "name": "Request",
      "type": "event"
    },
    {
      "anonymous": false,
      "inputs": [
        {
          "indexed": false,
          "internalType": "address",
          "name": "",
          "type": "address"
        }
      ],
      "name": "ShareholderAdded",
      "type": "event"
    },
    {
      "anonymous": false,
      "inputs": [
        {
          "indexed": false,
          "internalType": "address",
          "name": "",
          "type": "address"
        },
        {
          "indexed": false,
          "internalType": "uint256",
          "name": "",
          "type": "uint256"
        }
      ],
      "name": "ShareholderInvestmentAdded",
      "type": "event"
    },
    {
      "anonymous": false,
      "inputs": [
        {
          "indexed": false,
          "internalType": "address",
          "name": "",
          "type": "address"
        },
        {
          "indexed": false,
          "internalType": "uint256",
          "name": "",
          "type": "uint256"
        }
      ],
      "name": "ShareholderSharesAllocated",
      "type": "event"
    },
    {
      "anonymous": false,
      "inputs": [
        {
          "indexed": false,
          "internalType": "bool",
          "name": "",
          "type": "bool"
        },
        {
          "indexed": false,
          "internalType": "string",
          "name": "",
          "type": "string"
        }
      ],
      "name": "TradingStatusChange",
      "type": "event"
    },
    {
      "anonymous": false,
      "inputs": [
        {
          "indexed": false,
          "internalType": "bool",
          "name": "",
          "type": "bool"
        },
        {
          "indexed": false,
          "internalType": "string",
          "name": "",
          "type": "string"
        }
      ],
      "name": "TradingStatusChanged",
      "type": "event"
    },
    {
      "anonymous": false,
      "inputs": [
        {
          "indexed": false,
          "internalType": "bool",
          "name": "",
          "type": "bool"
        },
        {
          "indexed": false,
          "internalType": "string",
          "name": "",
          "type": "string"
        }
      ],
      "name": "TransferStatusChange",
      "type": "event"
    },
    {
      "anonymous": false,
      "inputs": [
        {
          "indexed": false,
          "internalType": "bool",
          "name": "",
          "type": "bool"
        },
        {
          "indexed": false,
          "internalType": "string",
          "name": "",
          "type": "string"
        }
      ],
      "name": "TransferStatusChanged",
      "type": "event"
    },
    {
      "anonymous": false,
      "inputs": [
        {
          "indexed": false,
          "internalType": "address",
          "name": "",
          "type": "address"
        },
        {
          "indexed": false,
          "internalType": "uint256",
          "name": "",
          "type": "uint256"
        }
      ],
      "name": "ValueTransferred",
      "type": "event"
    },
    {
      "inputs": [],
      "name": "MAX_OFFERING_SHARES",
      "outputs": [
        {
          "internalType": "uint256",
          "name": "",
          "type": "uint256"
        }
      ],
      "stateMutability": "view",
      "type": "function"
    },
    {
      "inputs": [],
      "name": "OUTSTANDING_SHARES",
      "outputs": [
        {
          "internalType": "uint256",
          "name": "",
          "type": "uint256"
        }
      ],
      "stateMutability": "view",
      "type": "function"
    },
    {
      "inputs": [],
      "name": "SIXMONTHS",
      "outputs": [
        {
          "internalType": "uint256",
          "name": "",
          "type": "uint256"
        }
      ],
      "stateMutability": "view",
      "type": "function"
    },
    {
      "inputs": [],
      "name": "TRADING_ACTIVE",
      "outputs": [
        {
          "internalType": "bool",
          "name": "",
          "type": "bool"
        }
      ],
      "stateMutability": "view",
      "type": "function"
    },
    {
      "inputs": [],
      "name": "TRANSFERS_ACTIVE",
      "outputs": [
        {
          "internalType": "bool",
          "name": "",
          "type": "bool"
        }
      ],
      "stateMutability": "view",
      "type": "function"
    },
    {
      "inputs": [],
      "name": "YEAR",
      "outputs": [
        {
          "internalType": "uint256",
          "name": "",
          "type": "uint256"
        }
      ],
      "stateMutability": "view",
      "type": "function"
    },
    {
      "inputs": [],
      "name": "ask",
      "outputs": [
        {
          "internalType": "uint256",
          "name": "",
          "type": "uint256"
        }
      ],
      "stateMutability": "view",
      "type": "function"
    },
    {
      "inputs": [],
      "name": "bid",
      "outputs": [
        {
          "internalType": "uint256",
          "name": "",
          "type": "uint256"
        }
      ],
      "stateMutability": "view",
      "type": "function"
    },
    {
      "inputs": [
        {
          "internalType": "bool",
          "name": "status",
          "type": "bool"
        },
        {
          "internalType": "string",
          "name": "reason",
          "type": "string"
        }
      ],
      "name": "changeTradingStatus",
      "outputs": [],
      "stateMutability": "nonpayable",
      "type": "function"
    },
    {
      "inputs": [
        {
          "internalType": "bool",
          "name": "status",
          "type": "bool"
        },
        {
          "internalType": "string",
          "name": "reason",
          "type": "string"
        }
      ],
      "name": "changeTransferStatus",
      "outputs": [],
      "stateMutability": "nonpayable",
      "type": "function"
    },
    {
      "inputs": [],
      "name": "getMarketValue",
      "outputs": [
        {
          "internalType": "uint256",
          "name": "",
          "type": "uint256"
        }
      ],
      "stateMutability": "view",
      "type": "function"
    },
    {
      "inputs": [
        {
          "internalType": "uint256",
          "name": "totalExchangeMarketValue",
          "type": "uint256"
        }
      ],
      "name": "getMarketWeight",
      "outputs": [
        {
          "internalType": "uint256",
          "name": "",
          "type": "uint256"
        }
      ],
      "stateMutability": "view",
      "type": "function"
    },
    {
      "inputs": [],
      "name": "getName",
      "outputs": [
        {
          "internalType": "string",
          "name": "",
          "type": "string"
        }
      ],
      "stateMutability": "view",
      "type": "function"
    },
    {
      "inputs": [],
      "name": "getOfferingType",
      "outputs": [
        {
          "internalType": "string",
          "name": "",
          "type": "string"
        }
      ],
      "stateMutability": "view",
      "type": "function"
    },
    {
      "inputs": [],
      "name": "getOutstandingShares",
      "outputs": [
        {
          "internalType": "uint256",
          "name": "",
          "type": "uint256"
        }
      ],
      "stateMutability": "view",
      "type": "function"
    },
    {
      "inputs": [],
      "name": "getSymbol",
      "outputs": [
        {
          "internalType": "string",
          "name": "",
          "type": "string"
        }
      ],
      "stateMutability": "view",
      "type": "function"
    },
    {
      "inputs": [],
      "name": "getTotalSupply",
      "outputs": [
        {
          "internalType": "uint256",
          "name": "",
          "type": "uint256"
        }
      ],
      "stateMutability": "view",
      "type": "function"
    },
    {
      "inputs": [],
      "name": "getTradingStatus",
      "outputs": [
        {
          "internalType": "bool",
          "name": "",
          "type": "bool"
        }
      ],
      "stateMutability": "view",
      "type": "function"
    },
    {
      "inputs": [],
      "name": "homeJurisdiction",
      "outputs": [
        {
          "internalType": "string",
          "name": "",
          "type": "string"
        }
      ],
      "stateMutability": "view",
      "type": "function"
    },
    {
      "inputs": [],
      "name": "issuer",
      "outputs": [
        {
          "internalType": "address",
          "name": "",
          "type": "address"
        }
      ],
      "stateMutability": "view",
      "type": "function"
    },
    {
      "inputs": [],
      "name": "name",
      "outputs": [
        {
          "internalType": "string",
          "name": "",
          "type": "string"
        }
      ],
      "stateMutability": "view",
      "type": "function"
    },
    {
      "inputs": [],
      "name": "offeringType",
      "outputs": [
        {
          "internalType": "string",
          "name": "",
          "type": "string"
        }
      ],
      "stateMutability": "view",
      "type": "function"
    },
    {
      "inputs": [],
      "name": "price",
      "outputs": [
        {
          "internalType": "uint256",
          "name": "",
          "type": "uint256"
        }
      ],
      "stateMutability": "view",
      "type": "function"
    },
    {
      "inputs": [],
      "name": "symbol",
      "outputs": [
        {
          "internalType": "string",
          "name": "",
          "type": "string"
        }
      ],
      "stateMutability": "view",
      "type": "function"
    },
    {
      "inputs": [],
      "name": "totalSupply",
      "outputs": [
        {
          "internalType": "uint256",
          "name": "",
          "type": "uint256"
        }
      ],
      "stateMutability": "view",
      "type": "function"
    },
    {
      "inputs": [
        {
          "internalType": "address",
          "name": "paymentWalletAddress",
          "type": "address"
        }
      ],
      "name": "setPaymentWalletContract",
      "outputs": [],
      "stateMutability": "nonpayable",
      "type": "function"
    },
    {
      "inputs": [
        {
          "internalType": "address",
          "name": "from",
          "type": "address"
        },
        {
          "internalType": "address",
          "name": "to",
          "type": "address"
        },
        {
          "internalType": "uint256",
          "name": "tokens",
          "type": "uint256"
        }
      ],
      "name": "validate",
      "outputs": [
        {
          "internalType": "bool",
          "name": "",
          "type": "bool"
        }
      ],
      "stateMutability": "view",
      "type": "function"
    },
    {
      "inputs": [
        {
          "internalType": "address",
          "name": "from",
          "type": "address"
        },
        {
          "internalType": "address",
          "name": "to",
          "type": "address"
        },
        {
          "internalType": "uint256",
          "name": "tokens",
          "type": "uint256"
        }
      ],
      "name": "transfer",
      "outputs": [
        {
          "internalType": "bool",
          "name": "",
          "type": "bool"
        }
      ],
      "stateMutability": "nonpayable",
      "type": "function"
    },
    {
      "inputs": [
        {
          "internalType": "address",
          "name": "from",
          "type": "address"
        },
        {
          "internalType": "address",
          "name": "to",
          "type": "address"
        },
        {
          "internalType": "uint256",
          "name": "tokens",
          "type": "uint256"
        }
      ],
      "name": "transferFrom",
      "outputs": [
        {
          "internalType": "bool",
          "name": "",
          "type": "bool"
        }
      ],
      "stateMutability": "nonpayable",
      "type": "function"
    },
    {
      "inputs": [
        {
          "internalType": "address",
          "name": "wallet",
          "type": "address"
        }
      ],
      "name": "getBalanceFrom",
      "outputs": [
        {
          "internalType": "uint256",
          "name": "",
          "type": "uint256"
        }
      ],
      "stateMutability": "view",
      "type": "function"
    },
    {
      "inputs": [],
      "name": "getIssuer",
      "outputs": [
        {
          "internalType": "address",
          "name": "",
          "type": "address"
        }
      ],
      "stateMutability": "view",
      "type": "function"
    },
    {
      "inputs": [
        {
          "internalType": "address",
          "name": "wallet",
          "type": "address"
        },
        {
          "internalType": "uint256",
          "name": "tokens",
          "type": "uint256"
        },
        {
          "internalType": "uint256",
          "name": "fee",
          "type": "uint256"
        }
      ],
      "name": "buy",
      "outputs": [],
      "stateMutability": "nonpayable",
      "type": "function"
    }
  ],
  "bytecode": "0x6000805461ffff19168155600181905560025560c0604052600660809081527f455155495459000000000000000000000000000000000000000000000000000060a052600790620000519082620001c6565b5060006009556000600a556000600b553480156200006e57600080fd5b506040516200121638038062001216833981016040819052620000919162000347565b600c8054600160a060020a031916600160a060020a0388161790556008620000ba8682620001c6565b506003620000c98582620001c6565b506004620000d88482620001c6565b506005829055600655600255506200040b92505050565b7f4e487b7100000000000000000000000000000000000000000000000000000000600052604160045260246000fd5b6002810460018216806200013357607f821691505b6020821081036200016d577f4e487b7100000000000000000000000000000000000000000000000000000000600052602260045260246000fd5b50919050565b601f821115620001c1576000818152602081206020601f860104810160208610156200019c5750805b6020601f860104820191505b81811015620001bd57828155600101620001a8565b5050505b505050565b81516001604060020a03811115620001e257620001e2620000ef565b620001fa81620001f384546200011e565b8462000173565b602080601f831160018114620002365760008415620002195750858301515b60028086026008870290910a6000190419821617865550620001bd565b600085815260208120601f198616915b82811015620002675788860151825594840194600190910190840162000246565b50858210156200028857878501516008601f88160260020a60001904191681555b5050505050600202600101905550565b600082601f830112620002aa57600080fd5b81516001604060020a0380821115620002c757620002c7620000ef565b604051601f8301601f19908116603f01168101908282118183101715620002f257620002f2620000ef565b816040528381526020925086838588010111156200030f57600080fd5b600091505b8382101562000333578582018301518183018401529082019062000314565b600093810190920192909252949350505050565b60008060008060008060c087890312156200036157600080fd5b8651600160a060020a03811681146200037957600080fd5b60208801519096506001604060020a03808211156200039757600080fd5b620003a58a838b0162000298565b96506040890151915080821115620003bc57600080fd5b620003ca8a838b0162000298565b95506060890151915080821115620003e157600080fd5b50620003f089828a0162000298565b9350506080870151915060a087015190509295509295509295565b610dfb806200041b6000396000f3fe608060405234801561001057600080fd5b50600436106101835760e060020a600035046306fdde03811461018857806315070401146101a657806317d7de7c146101ae57806318160ddd146101b65780631998aeef146101cd5780631d143848146101d657806323b872dd146101f65780633dfc25141461021957806340f0eb35146102215780634a89638414610229578063525564211461023257806361e763641461024357806362befb1e1461024c578063636110ee14610254578063752f769714610269578063821828a31461027357806383914540146102a35780638862d26a146102ae57806389af2dce146102b657806395d89b41146102c957806397a67fe1146102d15780639ac97560146102e3578063a035b1fe146102f6578063a1305aa5146102ff578063a59ac6dd1461030a578063a5dea8a91461031d578063aa3ad4e414610330578063beabacc814610343578063bf39863114610356578063c4e41b221461035f578063cbc2bc4314610367578063de2b4e9814610374575b600080fd5b61019061037c565b60405161019d9190610ad2565b60405180910390f35b61019061040a565b61019061049c565b6101bf60055481565b60405190815260200161019d565b6101bf60095481565b600c546101e990600160a060020a031681565b60405161019d9190610b20565b610209610204366004610b50565b6104ab565b604051901515815260200161019d565b61019061057d565b61019061058a565b6101bf600a5481565b600c54600160a060020a03166101e9565b6101bf60025481565b6101bf610599565b610267610262366004610b8c565b6105ae565b005b6101bf62ed4e0081565b610267610281366004610c15565b600d8054600160a060020a031916600160a060020a0392909216919091179055565b6101bf6301e1338081565b6101906105fd565b6101bf6102c4366004610c15565b61060a565b6101906106b2565b60005461020990610100900460ff1681565b6102676102f1366004610b8c565b6106bf565b6101bf60065481565b60005460ff16610209565b610267610318366004610c30565b610706565b6101bf61032b366004610c63565b610818565b61020961033e366004610b50565b61083b565b610209610351366004610b50565b6108cc565b6101bf60015481565b6005546101bf565b6000546102099060ff1681565b6001546101bf565b6003805461038990610c7c565b80601f01602080910402602001604051908101604052809291908181526020018280546103b590610c7c565b80156104025780601f106103d757610100808354040283529160200191610402565b820191906000526020600020905b8154815290600101906020018083116103e557829003601f168201915b505050505081565b60606004805461041990610c7c565b80601f016020809104026020016040519081016040528092919081815260200182805461044590610c7c565b80156104925780601f1061046757610100808354040283529160200191610492565b820191906000526020600020905b81548152906001019060200180831161047557829003601f168201915b5050505050905090565b60606003805461041990610c7c565b600d54600090600160a060020a03166104e25760405160e560020a62461bcd0281526004016104d990610cba565b60405180910390fd5b600d5460405160e160020a630d7b8b5d028152600160a060020a038681166004830152858116602483015260448201859052608060648301526003608483015260e860020a624e2f410260a483015290911690631af716ba9060c4015b600060405180830381600087803b15801561055957600080fd5b505af115801561056d573d6000803e3d6000fd5b50505050600190505b9392505050565b6008805461038990610c7c565b60606007805461041990610c7c565b60006105a96006546001546109eb565b905090565b6000805460ff19168415151790556040517fd5d3710e87ad129534715c02a9b1de4c50bdc2faeaa8a34a0470039175e31f25906105f090859085908590610cfe565b60405180910390a1505050565b6007805461038990610c7c565b600d54600090600160a060020a03166106385760405160e560020a62461bcd0281526004016104d990610cba565b600d5460405160e060020a63f8b2cb4f028152600160a060020a039091169063f8b2cb4f9061066b908590600401610b20565b602060405180830381865afa158015610688573d6000803e3d6000fd5b505050506040513d601f19601f820116820180604052508101906106ac9190610d36565b92915050565b6004805461038990610c7c565b6000805461ff001916610100851515021790556040517faa4f09342ef9787b0bc3a7df0faa5f114a19a74a2f1e61dcfb504c484508f4ca906105f090859085908590610cfe565b600d54600160a060020a03166107315760405160e560020a62461bcd0281526004016104d990610cba565b600061073f836006546109eb565b600d546040805160e060020a63afc96f790281529051929350600160a060020a039091169163095bcdb69187918591859163afc96f79916004808201926020929091908290030181865afa15801561079b573d6000803e3d6000fd5b505050506040513d601f19601f820116820180604052508101906107bf9190610d36565b6040518463ffffffff1660e060020a0281526004016107e093929190610d4f565b600060405180830381600087803b1580156107fa57600080fd5b505af115801561080e573d6000803e3d6000fd5b5050505050505050565b60006106ac61083461082e6006546001546109eb565b84610a6b565b60646109eb565b600080548190610100900460ff161515810361085f578061085b81610d70565b9150505b600160a060020a03851661087b578061087781610d70565b9150505b600160a060020a038416610897578061089381610d70565b9150505b6005548311156108af57806108ab81610d70565b9150505b806000036108c1576001915050610576565b506000949350505050565b6000600160a060020a03841633146109225760405160e560020a62461bcd0281526020600482015260136024820152606960020a723737ba10333937b69036b9b39739b2b73232b90260448201526064016104d9565b600d54600160a060020a031661094d5760405160e560020a62461bcd0281526004016104d990610cba565b600d546040805160e060020a63afc96f790281529051600160a060020a039092169163095bcdb69186918691859163afc96f79916004808201926020929091908290030181865afa1580156109a6573d6000803e3d6000fd5b505050506040513d601f19601f820116820180604052508101906109ca9190610d36565b6040518463ffffffff1660e060020a02815260040161053f93929190610d4f565b600082820282158382048514151715610a0357600080fd5b82610a0e8583610d9f565b146105765760405160e560020a62461bcd02815260206004820152602160248201527f536166654d6174683a206d756c7469706c69636174696f6e206f766572666c6f604482015260f860020a60770260648201526084016104d9565b6000808211610abf5760405160e560020a62461bcd02815260206004820152601a60248201527f536166654d6174683a206469766973696f6e206279207a65726f00000000000060448201526064016104d9565b600082610acb57600080fd5b5050900490565b600060208083528351808285015260005b81811015610aff57858101830151858201604001528201610ae3565b506000604082860101526040601f19601f8301168501019250505092915050565b600160a060020a0391909116815260200190565b8035600160a060020a0381168114610b4b57600080fd5b919050565b600080600060608486031215610b6557600080fd5b610b6e84610b34565b9250610b7c60208501610b34565b9150604084013590509250925092565b600080600060408486031215610ba157600080fd5b83358015158114610bb157600080fd5b925060208401356001604060020a0380821115610bcd57600080fd5b818601915086601f830112610be157600080fd5b813581811115610bf057600080fd5b876020828501011115610c0257600080fd5b6020830194508093505050509250925092565b600060208284031215610c2757600080fd5b61057682610b34565b600080600060608486031215610c4557600080fd5b610c4e84610b34565b95602085013595506040909401359392505050565b600060208284031215610c7557600080fd5b5035919050565b600281046001821680610c9057607f821691505b602082108103610cb45760e060020a634e487b710260009081526022600452602490fd5b50919050565b60208082526021908201527f5061796d656e7457616c6c657420636f6e7472616374206973206e6f74207365604082015260fa60020a601d02606082015260800190565b831515815260406020820152816040820152818360608301376000818301606090810191909152601f909201601f1916010192915050565b600060208284031215610d4857600080fd5b5051919050565b600160a060020a039390931683526020830191909152604082015260600190565b600060ff60020a8201610d975760e060020a634e487b710260009081526011600452602490fd5b506000190190565b600082610dc05760e060020a634e487b710260009081526012600452602490fd5b50049056fea2646970667358221220ac98415cdfd680fd299a604caccade3ab3225a4169e1c6c871beaaf8a026d2e264736f6c63430008120033",
  "immutableReferences": {},
  "source": "// SPDX-License-Identifier: BSL-1.1\npragma solidity >=0.4.22 <0.9.0;\n\nimport \"../../interfaces/IPaymentWallet.sol\";\nimport \"../../abstract/AEquityToken.sol\";\n\ncontract Reg147AEquity is AEquityToken {\n    string public homeJurisdiction;\n    uint256 public bid = 0;\n    uint256 public ask = 0;\n\n    uint256 lastCertificateAssigned = 0;\n\n    address public issuer;\n\n    event ValueTransferred(address, uint256);\n    event Approval(address,address,uint256);\n    event Disapproval(address indexed investor, uint tokens, string reason);\n    event Request(address investor,uint tokens,bool buy);\n\n    constructor(address tokenIssuer,string memory jurisdiction,string memory tokenName,string memory tokenSymbol,uint256 tokenSupply,uint256 tokenPrice) {\n        issuer = tokenIssuer;\n\n        homeJurisdiction = jurisdiction;\n        name = tokenName;\n        symbol = tokenSymbol;\n        totalSupply = tokenSupply;\n        price = tokenPrice;\n\n        MAX_OFFERING_SHARES = tokenSupply; // a maximum offering is set, to permit immediate resales after the funding round has been complete.\n    }\n    \n    IPaymentWallet paymentWalletContract;\n\n    function setPaymentWalletContract(address paymentWalletAddress) external {\n        paymentWalletContract = IPaymentWallet(paymentWalletAddress);\n    }\n\n    function validate(address from,address to,uint tokens) public view returns (bool) {\n        int valid = 0;\n        if (TRANSFERS_ACTIVE == false) {\n            valid--;\n        }\n        if (from == address(0x0)) {\n            valid--;\n        }\n        if (to == address(0x0)) {\n            valid--;\n        }\n        if (tokens > totalSupply) {\n            valid--;\n        }\n        if (valid == 0) {\n            return true;\n        }\n        return false;\n    }\n\n    function transfer(address from,address to, uint tokens)  external returns (bool) {\n        require(from == msg.sender,\"not from msg.sender\");\n        require(address(paymentWalletContract) != address(0x0),\"PaymentWallet contract is not set\");\n        paymentWalletContract.transfer(to,tokens,paymentWalletContract.getCVV());\n        return true;\n    }\n    function transferFrom(address from, address to, uint tokens)  external returns (bool) {\n        require(address(paymentWalletContract) != address(0x0),\"PaymentWallet contract is not set\");\n        paymentWalletContract.transferFrom(from, to, tokens, \"N/A\");\n        return true;\n    }\n    function getBalanceFrom(address wallet) external view returns (uint256) {\n        require(address(paymentWalletContract) != address(0x0),\"PaymentWallet contract is not set\");\n        return paymentWalletContract.getBalance(wallet);\n    }\n    function getIssuer() external view returns (address) {\n        return issuer;\n    }\n\n     function buy(address wallet,uint256 tokens,uint256 fee) external {\n        require(address(paymentWalletContract) != address(0x0),\"PaymentWallet contract is not set\");\n        uint256 amount = SafeMath.safeMul(tokens,price);\n        paymentWalletContract.transfer(wallet, amount, paymentWalletContract.getCVV());\n        fee;\n     }\n}",
  "sourcePath": "/Volumes/My Book/projects/pingleware-contracts/contracts/finance/elmx/Reg147AEquity.sol",
  "compiler": {
    "name": "solc",
    "version": "0.8.18+commit.87f61d96.Emscripten.clang"
  },
  "schemaVersion": "3.4.12",
  "updatedAt": "2023-10-26T20:32:53.059Z",
  "devdoc": {
    "kind": "dev",
    "methods": {},
    "version": 1
  },
  "userdoc": {
    "kind": "user",
    "methods": {
      "getMarketValue()": {
        "notice": "Needed to calculate the Exchange Market Index Total Exchange Market Value = sum of each offering market value [getMarketValue()] Exchange Market Index = sum of the product of the offering price and offering merket weigth"
      }
    },
    "version": 1
  }
}