{
  "contractName": "Reg147Debt",
  "abi": [
    {
      "anonymous": false,
      "inputs": [
        {
          "indexed": false,
          "internalType": "address",
          "name": "",
          "type": "address"
        },
        {
          "indexed": false,
          "internalType": "uint256",
          "name": "",
          "type": "uint256"
        }
      ],
      "name": "BondRedeemed",
      "type": "event"
    },
    {
      "anonymous": false,
      "inputs": [
        {
          "indexed": false,
          "internalType": "address",
          "name": "",
          "type": "address"
        },
        {
          "indexed": false,
          "internalType": "uint256",
          "name": "",
          "type": "uint256"
        }
      ],
      "name": "CouponPaymentMade",
      "type": "event"
    },
    {
      "anonymous": false,
      "inputs": [
        {
          "indexed": false,
          "internalType": "address",
          "name": "_sender",
          "type": "address"
        }
      ],
      "name": "Sender",
      "type": "event"
    },
    {
      "anonymous": false,
      "inputs": [
        {
          "indexed": false,
          "internalType": "bool",
          "name": "",
          "type": "bool"
        },
        {
          "indexed": false,
          "internalType": "string",
          "name": "",
          "type": "string"
        }
      ],
      "name": "TradingStatusChange",
      "type": "event"
    },
    {
      "anonymous": false,
      "inputs": [
        {
          "indexed": false,
          "internalType": "bool",
          "name": "",
          "type": "bool"
        },
        {
          "indexed": false,
          "internalType": "string",
          "name": "",
          "type": "string"
        }
      ],
      "name": "TradingStatusChanged",
      "type": "event"
    },
    {
      "anonymous": false,
      "inputs": [
        {
          "indexed": true,
          "internalType": "address",
          "name": "from",
          "type": "address"
        },
        {
          "indexed": true,
          "internalType": "address",
          "name": "to",
          "type": "address"
        },
        {
          "indexed": false,
          "internalType": "uint256",
          "name": "value",
          "type": "uint256"
        }
      ],
      "name": "Transfer",
      "type": "event"
    },
    {
      "anonymous": false,
      "inputs": [
        {
          "indexed": false,
          "internalType": "bool",
          "name": "",
          "type": "bool"
        },
        {
          "indexed": false,
          "internalType": "string",
          "name": "",
          "type": "string"
        }
      ],
      "name": "TransferStatusChange",
      "type": "event"
    },
    {
      "anonymous": false,
      "inputs": [
        {
          "indexed": false,
          "internalType": "bool",
          "name": "",
          "type": "bool"
        },
        {
          "indexed": false,
          "internalType": "string",
          "name": "",
          "type": "string"
        }
      ],
      "name": "TransferStatusChanged",
      "type": "event"
    },
    {
      "inputs": [],
      "name": "MAX_OFFERING_SHARES",
      "outputs": [
        {
          "internalType": "uint256",
          "name": "",
          "type": "uint256"
        }
      ],
      "stateMutability": "view",
      "type": "function"
    },
    {
      "inputs": [],
      "name": "OUTSTANDING_SHARES",
      "outputs": [
        {
          "internalType": "uint256",
          "name": "",
          "type": "uint256"
        }
      ],
      "stateMutability": "view",
      "type": "function"
    },
    {
      "inputs": [],
      "name": "SIXMONTHS",
      "outputs": [
        {
          "internalType": "uint256",
          "name": "",
          "type": "uint256"
        }
      ],
      "stateMutability": "view",
      "type": "function"
    },
    {
      "inputs": [],
      "name": "TRADING_ACTIVE",
      "outputs": [
        {
          "internalType": "bool",
          "name": "",
          "type": "bool"
        }
      ],
      "stateMutability": "view",
      "type": "function"
    },
    {
      "inputs": [],
      "name": "TRANSFERS_ACTIVE",
      "outputs": [
        {
          "internalType": "bool",
          "name": "",
          "type": "bool"
        }
      ],
      "stateMutability": "view",
      "type": "function"
    },
    {
      "inputs": [],
      "name": "YEAR",
      "outputs": [
        {
          "internalType": "uint256",
          "name": "",
          "type": "uint256"
        }
      ],
      "stateMutability": "view",
      "type": "function"
    },
    {
      "inputs": [],
      "name": "bondCouponRate",
      "outputs": [
        {
          "internalType": "uint256",
          "name": "",
          "type": "uint256"
        }
      ],
      "stateMutability": "view",
      "type": "function"
    },
    {
      "inputs": [
        {
          "internalType": "uint256",
          "name": "",
          "type": "uint256"
        }
      ],
      "name": "bondHolders",
      "outputs": [
        {
          "internalType": "address",
          "name": "holderAddress",
          "type": "address"
        },
        {
          "internalType": "uint256",
          "name": "investedAmount",
          "type": "uint256"
        }
      ],
      "stateMutability": "view",
      "type": "function"
    },
    {
      "inputs": [],
      "name": "bondMaturityDate",
      "outputs": [
        {
          "internalType": "uint256",
          "name": "",
          "type": "uint256"
        }
      ],
      "stateMutability": "view",
      "type": "function"
    },
    {
      "inputs": [],
      "name": "bondPrincipal",
      "outputs": [
        {
          "internalType": "uint256",
          "name": "",
          "type": "uint256"
        }
      ],
      "stateMutability": "view",
      "type": "function"
    },
    {
      "inputs": [],
      "name": "bondRating",
      "outputs": [
        {
          "internalType": "uint256",
          "name": "",
          "type": "uint256"
        }
      ],
      "stateMutability": "view",
      "type": "function"
    },
    {
      "inputs": [
        {
          "internalType": "bool",
          "name": "status",
          "type": "bool"
        },
        {
          "internalType": "string",
          "name": "reason",
          "type": "string"
        }
      ],
      "name": "changeTradingStatus",
      "outputs": [],
      "stateMutability": "nonpayable",
      "type": "function"
    },
    {
      "inputs": [
        {
          "internalType": "bool",
          "name": "status",
          "type": "bool"
        },
        {
          "internalType": "string",
          "name": "reason",
          "type": "string"
        }
      ],
      "name": "changeTransferStatus",
      "outputs": [],
      "stateMutability": "nonpayable",
      "type": "function"
    },
    {
      "inputs": [],
      "name": "getMarketValue",
      "outputs": [
        {
          "internalType": "uint256",
          "name": "",
          "type": "uint256"
        }
      ],
      "stateMutability": "nonpayable",
      "type": "function"
    },
    {
      "inputs": [
        {
          "internalType": "uint256",
          "name": "totalExchangeMarketValue",
          "type": "uint256"
        }
      ],
      "name": "getMarketWeight",
      "outputs": [
        {
          "internalType": "uint256",
          "name": "",
          "type": "uint256"
        }
      ],
      "stateMutability": "nonpayable",
      "type": "function"
    },
    {
      "inputs": [],
      "name": "getOwner",
      "outputs": [
        {
          "internalType": "address",
          "name": "",
          "type": "address"
        }
      ],
      "stateMutability": "view",
      "type": "function"
    },
    {
      "inputs": [],
      "name": "issuer",
      "outputs": [
        {
          "internalType": "address",
          "name": "",
          "type": "address"
        }
      ],
      "stateMutability": "view",
      "type": "function"
    },
    {
      "inputs": [],
      "name": "name",
      "outputs": [
        {
          "internalType": "string",
          "name": "",
          "type": "string"
        }
      ],
      "stateMutability": "view",
      "type": "function"
    },
    {
      "inputs": [],
      "name": "offeringType",
      "outputs": [
        {
          "internalType": "string",
          "name": "",
          "type": "string"
        }
      ],
      "stateMutability": "view",
      "type": "function"
    },
    {
      "inputs": [
        {
          "internalType": "address",
          "name": "paymentWalletAddress",
          "type": "address"
        }
      ],
      "name": "setPaymentWalletContract",
      "outputs": [],
      "stateMutability": "nonpayable",
      "type": "function"
    },
    {
      "inputs": [
        {
          "internalType": "address",
          "name": "from",
          "type": "address"
        },
        {
          "internalType": "address",
          "name": "to",
          "type": "address"
        },
        {
          "internalType": "uint256",
          "name": "tokens",
          "type": "uint256"
        }
      ],
      "name": "validate",
      "outputs": [
        {
          "internalType": "bool",
          "name": "",
          "type": "bool"
        }
      ],
      "stateMutability": "view",
      "type": "function"
    },
    {
      "inputs": [
        {
          "internalType": "address",
          "name": "from",
          "type": "address"
        },
        {
          "internalType": "address",
          "name": "to",
          "type": "address"
        },
        {
          "internalType": "uint256",
          "name": "tokens",
          "type": "uint256"
        }
      ],
      "name": "transfer",
      "outputs": [
        {
          "internalType": "bool",
          "name": "",
          "type": "bool"
        }
      ],
      "stateMutability": "nonpayable",
      "type": "function"
    },
    {
      "inputs": [
        {
          "internalType": "address",
          "name": "from",
          "type": "address"
        },
        {
          "internalType": "address",
          "name": "to",
          "type": "address"
        },
        {
          "internalType": "uint256",
          "name": "tokens",
          "type": "uint256"
        }
      ],
      "name": "transferFrom",
      "outputs": [
        {
          "internalType": "bool",
          "name": "",
          "type": "bool"
        }
      ],
      "stateMutability": "nonpayable",
      "type": "function"
    },
    {
      "inputs": [
        {
          "internalType": "address",
          "name": "wallet",
          "type": "address"
        }
      ],
      "name": "getBalanceFrom",
      "outputs": [
        {
          "internalType": "uint256",
          "name": "",
          "type": "uint256"
        }
      ],
      "stateMutability": "view",
      "type": "function"
    },
    {
      "inputs": [],
      "name": "getTradingStatus",
      "outputs": [
        {
          "internalType": "bool",
          "name": "",
          "type": "bool"
        }
      ],
      "stateMutability": "view",
      "type": "function"
    },
    {
      "inputs": [
        {
          "internalType": "address",
          "name": "wallet",
          "type": "address"
        },
        {
          "internalType": "uint256",
          "name": "tokens",
          "type": "uint256"
        },
        {
          "internalType": "uint256",
          "name": "Fee",
          "type": "uint256"
        }
      ],
      "name": "buy",
      "outputs": [],
      "stateMutability": "nonpayable",
      "type": "function"
    },
    {
      "inputs": [],
      "name": "getIssuer",
      "outputs": [
        {
          "internalType": "address",
          "name": "",
          "type": "address"
        }
      ],
      "stateMutability": "view",
      "type": "function"
    },
    {
      "inputs": [],
      "name": "getOutstandingShares",
      "outputs": [
        {
          "internalType": "uint256",
          "name": "",
          "type": "uint256"
        }
      ],
      "stateMutability": "view",
      "type": "function"
    },
    {
      "inputs": [],
      "name": "getTotalSupply",
      "outputs": [
        {
          "internalType": "uint256",
          "name": "",
          "type": "uint256"
        }
      ],
      "stateMutability": "view",
      "type": "function"
    },
    {
      "inputs": [],
      "name": "getOfferingType",
      "outputs": [
        {
          "internalType": "string",
          "name": "",
          "type": "string"
        }
      ],
      "stateMutability": "view",
      "type": "function"
    }
  ],
  "bytecode": "0x6000805461ffff19168155600181905560025560c0604052600460809081527f444542540000000000000000000000000000000000000000000000000000000060a052600a906200005190826200014f565b503480156200005f57600080fd5b50600b8054600160a060020a0319163317905562000222565b7f4e487b7100000000000000000000000000000000000000000000000000000000600052604160045260246000fd5b600281046001821680620000bc57607f821691505b602082108103620000f6577f4e487b7100000000000000000000000000000000000000000000000000000000600052602260045260246000fd5b50919050565b601f8211156200014a576000818152602081206020601f86010481016020861015620001255750805b6020601f860104820191505b81811015620001465782815560010162000131565b5050505b505050565b815167ffffffffffffffff8111156200016c576200016c62000078565b62000184816200017d8454620000a7565b84620000fc565b602080601f831160018114620001c05760008415620001a35750858301515b60028086026008870290910a600019041982161786555062000146565b600085815260208120601f198616915b82811015620001f157888601518255948401946001909101908401620001d0565b50858210156200021257878501516008601f88160260020a60001904191681555b5050505050600202600101905550565b610f5f80620002326000396000f3fe608060405234801561001057600080fd5b506004361061016d5760e060020a600035046306fdde0381146101725780630b468fe1146101905780631d143848146101a7578063219f7e8d146101c757806323b872dd146101d057806340f0eb35146101f357806352556421146101fb57806361e763641461020c57806362befb1e14610215578063636110ee1461021d578063723b4e8114610232578063752f76971461023b578063821828a31461024557806383914540146102755780638862d26a14610280578063893d20e81461028857806389af2dce14610299578063973ccf0e146102ac57806397a67fe1146102de5780639ac97560146102eb578063a1305aa5146102fe578063a59ac6dd1461030e578063a5dea8a914610321578063aa3ad4e414610334578063beabacc814610347578063bf3986311461035a578063c4e41b2214610363578063cbc2bc431461036a578063de2b4e981461037c578063eaf4f27714610384575b600080fd5b61017a61038d565b6040516101879190610b06565b60405180910390f35b61019960085481565b604051908152602001610187565b6004546101ba90600160a060020a031681565b6040516101879190610b54565b61019960065481565b6101e36101de366004610b84565b61041b565b6040519015158152602001610187565b61017a6104e9565b600454600160a060020a03166101ba565b61019960025481565b61019961057b565b61023061022b366004610bc0565b61067d565b005b61019960055481565b61019962ed4e0081565b610230610253366004610c49565b600c8054600160a060020a031916600160a060020a0392909216919091179055565b6101996301e1338081565b61017a6106d1565b600b54600160a060020a03166101ba565b6101996102a7366004610c49565b6106de565b6102bf6102ba366004610c64565b610786565b60408051600160a060020a039093168352602083019190915201610187565b6000546101e39060ff1681565b6102306102f9366004610bc0565b6107be565b600054610100900460ff166101e3565b61023061031c366004610c7d565b505050565b61019961032f366004610c64565b610800565b6101e3610342366004610b84565b61081d565b6101e3610355366004610b84565b6108a7565b61019960015481565b6000610199565b6000546101e390610100900460ff1681565b600154610199565b61019960075481565b6003805461039a90610cb0565b80601f01602080910402602001604051908101604052809291908181526020018280546103c690610cb0565b80156104135780601f106103e857610100808354040283529160200191610413565b820191906000526020600020905b8154815290600101906020018083116103f657829003601f168201915b505050505081565b600c54600090600160a060020a03166104525760405160e560020a62461bcd02815260040161044990610cee565b60405180910390fd5b60405160e160020a630d7b8b5d028152600160a060020a0385811660048301819052908516602483015260448201849052608060648301526003608483015260e860020a624e2f410260a483015290631af716ba9060c4015b600060405180830381600087803b1580156104c557600080fd5b505af11580156104d9573d6000803e3d6000fd5b50505050600190505b9392505050565b6060600a80546104f890610cb0565b80601f016020809104026020016040519081016040528092919081815260200182805461052490610cb0565b80156105715780601f1061054657610100808354040283529160200191610571565b820191906000526020600020905b81548152906001019060200180831161055457829003601f168201915b5050505050905090565b6000600654662386f26fc100006105929190610d4c565b60068190556005546000916064916105aa9190610d4c565b6105b49190610d63565b90506000806105c1610997565b905060015b818111610640576000670de0b6b3a76400006006546005546105e89190610d4c565b6105f29190610d63565b905060008261060987670de0b6b3a7640000610d89565b6106139190610e83565b905061061f8183610d63565b6106299086610d89565b94505050808061063890610e8f565b9150506105c6565b508061065484670de0b6b3a7640000610d89565b61065e9190610e83565b60055461066b9190610d63565b6106759083610d89565b949350505050565b6000805461ff001916610100851515021790556040517fd5d3710e87ad129534715c02a9b1de4c50bdc2faeaa8a34a0470039175e31f25906106c490859085908590610ea8565b60405180910390a1505050565b600a805461039a90610cb0565b600c54600090600160a060020a031661070c5760405160e560020a62461bcd02815260040161044990610cee565b600c5460405160e060020a63f8b2cb4f028152600160a060020a039091169063f8b2cb4f9061073f908590600401610b54565b602060405180830381865afa15801561075c573d6000803e3d6000fd5b505050506040513d601f19601f820116820180604052508101906107809190610ee0565b92915050565b6009818154811061079657600080fd5b600091825260209091206002909102018054600190910154600160a060020a03909116915082565b6000805460ff19168415151790556040517faa4f09342ef9787b0bc3a7df0faa5f114a19a74a2f1e61dcfb504c484508f4ca906106c490859085908590610ea8565b600061078061081661081061057b565b84610a1f565b6064610a86565b60008054819060ff161515810361083c578061083881610ef9565b9150505b600160a060020a038516610858578061085481610ef9565b9150505b600160a060020a038416610874578061087081610ef9565b9150505b8260000361088a578061088681610ef9565b9150505b8060000361089c5760019150506104e2565b506000949350505050565b600c54600090600160a060020a03166108d55760405160e560020a62461bcd02815260040161044990610cee565b600c60009054906101000a9004600160a060020a0316600160a060020a031663095bcdb6848487600160a060020a031663afc96f796040518163ffffffff1660e060020a028152600401602060405180830381865afa15801561093c573d6000803e3d6000fd5b505050506040513d601f19601f820116820180604052508101906109609190610ee0565b60405160e060020a63ffffffff8616028152600160a060020a039093166004840152602483019190915260448201526064016104ab565b60004260075410156109fd5760405160e560020a62461bcd02815260206004820152602360248201527f4d617475726974792064617465206d75737420626520696e2074686520667574604482015260e860020a62757265026064820152608401610449565b600042600754610a0d9190610f16565b905060006104e26301e1338083610d63565b6000808211610a735760405160e560020a62461bcd02815260206004820152601a60248201527f536166654d6174683a206469766973696f6e206279207a65726f0000000000006044820152606401610449565b600082610a7f57600080fd5b5050900490565b600082820282158382048514151715610a9e57600080fd5b82610aa98583610d63565b146104e25760405160e560020a62461bcd02815260206004820152602160248201527f536166654d6174683a206d756c7469706c69636174696f6e206f766572666c6f604482015260f860020a6077026064820152608401610449565b600060208083528351808285015260005b81811015610b3357858101830151858201604001528201610b17565b506000604082860101526040601f19601f8301168501019250505092915050565b600160a060020a0391909116815260200190565b8035600160a060020a0381168114610b7f57600080fd5b919050565b600080600060608486031215610b9957600080fd5b610ba284610b68565b9250610bb060208501610b68565b9150604084013590509250925092565b600080600060408486031215610bd557600080fd5b83358015158114610be557600080fd5b925060208401356001604060020a0380821115610c0157600080fd5b818601915086601f830112610c1557600080fd5b813581811115610c2457600080fd5b876020828501011115610c3657600080fd5b6020830194508093505050509250925092565b600060208284031215610c5b57600080fd5b6104e282610b68565b600060208284031215610c7657600080fd5b5035919050565b600080600060608486031215610c9257600080fd5b610c9b84610b68565b95602085013595506040909401359392505050565b600281046001821680610cc457607f821691505b602082108103610ce85760e060020a634e487b710260009081526022600452602490fd5b50919050565b60208082526021908201527f5061796d656e7457616c6c657420636f6e7472616374206973206e6f74207365604082015260fa60020a601d02606082015260800190565b60e060020a634e487b710260009081526011600452602490fd5b808202811582820484141761078057610780610d32565b600082610d845760e060020a634e487b710260009081526012600452602490fd5b500490565b8082018082111561078057610780610d32565b600181815b80851115610dd9578160001904821115610dbd57610dbd610d32565b80851615610dca57918102915b60029094049390800290610da1565b509250929050565b600082610df057506001610780565b81610dfd57506000610780565b8160018114610e135760028114610e1d57610e3a565b6001915050610780565b60ff841115610e2e57610e2e610d32565b8360020a915050610780565b5060208310610133831016604e8410600b8410161715610e5d575081810a610780565b610e678383610d9c565b8060001904821115610e7b57610e7b610d32565b029392505050565b60006104e28383610de1565b600060018201610ea157610ea1610d32565b5060010190565b831515815260406020820152816040820152818360608301376000818301606090810191909152601f909201601f1916010192915050565b600060208284031215610ef257600080fd5b5051919050565b600060ff60020a8201610f0e57610f0e610d32565b506000190190565b8181038181111561078057610780610d3256fea2646970667358221220276d71efd886c42880dd7b549c18cfeec5176eab1e13dc38ea5950331f7b58fb64736f6c63430008120033",
  "immutableReferences": {},
  "source": "// SPDX-License-Identifier: BSL-1.1\npragma solidity >=0.4.22 <0.9.0;\n\nimport \"./AccessControl.sol\";\nimport \"../../interfaces/IPaymentWallet.sol\";\nimport \"../../abstract/ADebtToken.sol\";\n\ncontract Reg147Debt is ADebtToken,AccessControl {\n    IPaymentWallet paymentWalletContract;\n\n    function setPaymentWalletContract(address paymentWalletAddress) external {\n        paymentWalletContract = IPaymentWallet(paymentWalletAddress);\n    }\n\n    function validate(address from,address to,uint tokens) external view returns (bool) {\n        int valid = 0;\n        if (TRANSFERS_ACTIVE == false) {\n            valid--;\n        }\n        if (from == address(0x0)) {\n            valid--;\n        }\n        if (to == address(0x0)) {\n            valid--;\n        }\n        if (tokens == 0) {\n            valid--;\n        }\n        if (valid == 0) {\n            return true;\n        }\n        return false;\n    }\n    function transfer(address from,address to, uint tokens)  external returns (bool) {\n        require(address(paymentWalletContract) != address(0x0),\"PaymentWallet contract is not set\");\n        paymentWalletContract.transfer(to, tokens, IPaymentWallet(from).getCVV());\n        return true;\n    }\n    function transferFrom(address from, address to, uint tokens)  external returns (bool) {\n        require(address(paymentWalletContract) != address(0x0),\"PaymentWallet contract is not set\");\n        IPaymentWallet(from).transferFrom(from, to, tokens, \"N/A\");\n        return true;\n    }\n    function getBalanceFrom(address wallet) external view returns (uint256) {\n        require(address(paymentWalletContract) != address(0x0),\"PaymentWallet contract is not set\");\n        return paymentWalletContract.getBalance(wallet);\n    }\n    function getTradingStatus() external view returns (bool) {\n        return TRADING_ACTIVE;\n    }\n\n    function buy(address wallet,uint256 tokens,uint256 Fee) external {\n\n    }\n\n    function getIssuer() external view returns (address) {\n        return issuer;\n    }\n    function getOutstandingShares() external view returns (uint256) {\n        return OUTSTANDING_SHARES;\n    }\n    function getTotalSupply() external view returns (uint256) {\n\n    }\n    function getOfferingType() external view returns (string memory) {\n        return offeringType;\n    }\n}",
  "sourcePath": "/Volumes/My Book/projects/pingleware-contracts/contracts/finance/elmx/Reg147Debt.sol",
  "compiler": {
    "name": "solc",
    "version": "0.8.18+commit.87f61d96.Emscripten.clang"
  },
  "schemaVersion": "3.4.12",
  "updatedAt": "2023-10-26T20:32:53.096Z",
  "devdoc": {
    "kind": "dev",
    "methods": {},
    "version": 1
  },
  "userdoc": {
    "kind": "user",
    "methods": {},
    "version": 1
  }
}