{
  "contractName": "Reg147Equity",
  "abi": [
    {
      "inputs": [
        {
          "internalType": "address",
          "name": "tokenIssuer",
          "type": "address"
        },
        {
          "internalType": "string",
          "name": "jurisdiction",
          "type": "string"
        },
        {
          "internalType": "string",
          "name": "tokenName",
          "type": "string"
        },
        {
          "internalType": "string",
          "name": "tokenSymbol",
          "type": "string"
        },
        {
          "internalType": "uint256",
          "name": "tokenSupply",
          "type": "uint256"
        },
        {
          "internalType": "uint256",
          "name": "tokenPrice",
          "type": "uint256"
        },
        {
          "internalType": "address",
          "name": "exchangeAddress",
          "type": "address"
        }
      ],
      "stateMutability": "nonpayable",
      "type": "constructor"
    },
    {
      "anonymous": false,
      "inputs": [
        {
          "indexed": false,
          "internalType": "address",
          "name": "",
          "type": "address"
        }
      ],
      "name": "ShareholderAdded",
      "type": "event"
    },
    {
      "anonymous": false,
      "inputs": [
        {
          "indexed": false,
          "internalType": "address",
          "name": "",
          "type": "address"
        },
        {
          "indexed": false,
          "internalType": "uint256",
          "name": "",
          "type": "uint256"
        }
      ],
      "name": "ShareholderInvestmentAdded",
      "type": "event"
    },
    {
      "anonymous": false,
      "inputs": [
        {
          "indexed": false,
          "internalType": "address",
          "name": "",
          "type": "address"
        },
        {
          "indexed": false,
          "internalType": "uint256",
          "name": "",
          "type": "uint256"
        }
      ],
      "name": "ShareholderSharesAllocated",
      "type": "event"
    },
    {
      "anonymous": false,
      "inputs": [
        {
          "indexed": false,
          "internalType": "bool",
          "name": "",
          "type": "bool"
        },
        {
          "indexed": false,
          "internalType": "string",
          "name": "",
          "type": "string"
        }
      ],
      "name": "TradingStatusChange",
      "type": "event"
    },
    {
      "anonymous": false,
      "inputs": [
        {
          "indexed": false,
          "internalType": "bool",
          "name": "",
          "type": "bool"
        },
        {
          "indexed": false,
          "internalType": "string",
          "name": "",
          "type": "string"
        }
      ],
      "name": "TradingStatusChanged",
      "type": "event"
    },
    {
      "anonymous": false,
      "inputs": [
        {
          "indexed": false,
          "internalType": "address",
          "name": "",
          "type": "address"
        },
        {
          "indexed": false,
          "internalType": "address",
          "name": "",
          "type": "address"
        },
        {
          "indexed": false,
          "internalType": "uint256",
          "name": "",
          "type": "uint256"
        }
      ],
      "name": "Transfer",
      "type": "event"
    },
    {
      "anonymous": false,
      "inputs": [
        {
          "indexed": false,
          "internalType": "bool",
          "name": "",
          "type": "bool"
        },
        {
          "indexed": false,
          "internalType": "string",
          "name": "",
          "type": "string"
        }
      ],
      "name": "TransferStatusChange",
      "type": "event"
    },
    {
      "anonymous": false,
      "inputs": [
        {
          "indexed": false,
          "internalType": "bool",
          "name": "",
          "type": "bool"
        },
        {
          "indexed": false,
          "internalType": "string",
          "name": "",
          "type": "string"
        }
      ],
      "name": "TransferStatusChanged",
      "type": "event"
    },
    {
      "inputs": [],
      "name": "FeePercentage",
      "outputs": [
        {
          "internalType": "uint256",
          "name": "",
          "type": "uint256"
        }
      ],
      "stateMutability": "view",
      "type": "function"
    },
    {
      "inputs": [],
      "name": "MAX_OFFERING_SHARES",
      "outputs": [
        {
          "internalType": "uint256",
          "name": "",
          "type": "uint256"
        }
      ],
      "stateMutability": "view",
      "type": "function"
    },
    {
      "inputs": [],
      "name": "OUTSTANDING_SHARES",
      "outputs": [
        {
          "internalType": "uint256",
          "name": "",
          "type": "uint256"
        }
      ],
      "stateMutability": "view",
      "type": "function"
    },
    {
      "inputs": [],
      "name": "SIXMONTHS",
      "outputs": [
        {
          "internalType": "uint256",
          "name": "",
          "type": "uint256"
        }
      ],
      "stateMutability": "view",
      "type": "function"
    },
    {
      "inputs": [],
      "name": "TRADING_ACTIVE",
      "outputs": [
        {
          "internalType": "bool",
          "name": "",
          "type": "bool"
        }
      ],
      "stateMutability": "view",
      "type": "function"
    },
    {
      "inputs": [],
      "name": "TRANSFERS_ACTIVE",
      "outputs": [
        {
          "internalType": "bool",
          "name": "",
          "type": "bool"
        }
      ],
      "stateMutability": "view",
      "type": "function"
    },
    {
      "inputs": [],
      "name": "YEAR",
      "outputs": [
        {
          "internalType": "uint256",
          "name": "",
          "type": "uint256"
        }
      ],
      "stateMutability": "view",
      "type": "function"
    },
    {
      "inputs": [],
      "name": "ask",
      "outputs": [
        {
          "internalType": "uint256",
          "name": "",
          "type": "uint256"
        }
      ],
      "stateMutability": "view",
      "type": "function"
    },
    {
      "inputs": [],
      "name": "bid",
      "outputs": [
        {
          "internalType": "uint256",
          "name": "",
          "type": "uint256"
        }
      ],
      "stateMutability": "view",
      "type": "function"
    },
    {
      "inputs": [
        {
          "internalType": "bool",
          "name": "status",
          "type": "bool"
        },
        {
          "internalType": "string",
          "name": "reason",
          "type": "string"
        }
      ],
      "name": "changeTradingStatus",
      "outputs": [],
      "stateMutability": "nonpayable",
      "type": "function"
    },
    {
      "inputs": [
        {
          "internalType": "bool",
          "name": "status",
          "type": "bool"
        },
        {
          "internalType": "string",
          "name": "reason",
          "type": "string"
        }
      ],
      "name": "changeTransferStatus",
      "outputs": [],
      "stateMutability": "nonpayable",
      "type": "function"
    },
    {
      "inputs": [],
      "name": "exchangeContract",
      "outputs": [
        {
          "internalType": "contract IExemptLiquidityMarketExchange",
          "name": "",
          "type": "address"
        }
      ],
      "stateMutability": "view",
      "type": "function"
    },
    {
      "inputs": [],
      "name": "feeRecipient",
      "outputs": [
        {
          "internalType": "address",
          "name": "",
          "type": "address"
        }
      ],
      "stateMutability": "view",
      "type": "function"
    },
    {
      "inputs": [],
      "name": "getMarketValue",
      "outputs": [
        {
          "internalType": "uint256",
          "name": "",
          "type": "uint256"
        }
      ],
      "stateMutability": "view",
      "type": "function"
    },
    {
      "inputs": [
        {
          "internalType": "uint256",
          "name": "totalExchangeMarketValue",
          "type": "uint256"
        }
      ],
      "name": "getMarketWeight",
      "outputs": [
        {
          "internalType": "uint256",
          "name": "",
          "type": "uint256"
        }
      ],
      "stateMutability": "view",
      "type": "function"
    },
    {
      "inputs": [],
      "name": "getName",
      "outputs": [
        {
          "internalType": "string",
          "name": "",
          "type": "string"
        }
      ],
      "stateMutability": "view",
      "type": "function"
    },
    {
      "inputs": [],
      "name": "getOfferingType",
      "outputs": [
        {
          "internalType": "string",
          "name": "",
          "type": "string"
        }
      ],
      "stateMutability": "view",
      "type": "function"
    },
    {
      "inputs": [],
      "name": "getOutstandingShares",
      "outputs": [
        {
          "internalType": "uint256",
          "name": "",
          "type": "uint256"
        }
      ],
      "stateMutability": "view",
      "type": "function"
    },
    {
      "inputs": [],
      "name": "getSymbol",
      "outputs": [
        {
          "internalType": "string",
          "name": "",
          "type": "string"
        }
      ],
      "stateMutability": "view",
      "type": "function"
    },
    {
      "inputs": [],
      "name": "getTotalSupply",
      "outputs": [
        {
          "internalType": "uint256",
          "name": "",
          "type": "uint256"
        }
      ],
      "stateMutability": "view",
      "type": "function"
    },
    {
      "inputs": [],
      "name": "getTradingStatus",
      "outputs": [
        {
          "internalType": "bool",
          "name": "",
          "type": "bool"
        }
      ],
      "stateMutability": "view",
      "type": "function"
    },
    {
      "inputs": [],
      "name": "homeJurisdiction",
      "outputs": [
        {
          "internalType": "string",
          "name": "",
          "type": "string"
        }
      ],
      "stateMutability": "view",
      "type": "function"
    },
    {
      "inputs": [],
      "name": "issuer",
      "outputs": [
        {
          "internalType": "address",
          "name": "",
          "type": "address"
        }
      ],
      "stateMutability": "view",
      "type": "function"
    },
    {
      "inputs": [],
      "name": "name",
      "outputs": [
        {
          "internalType": "string",
          "name": "",
          "type": "string"
        }
      ],
      "stateMutability": "view",
      "type": "function"
    },
    {
      "inputs": [],
      "name": "offeringType",
      "outputs": [
        {
          "internalType": "string",
          "name": "",
          "type": "string"
        }
      ],
      "stateMutability": "view",
      "type": "function"
    },
    {
      "inputs": [],
      "name": "owner",
      "outputs": [
        {
          "internalType": "address",
          "name": "",
          "type": "address"
        }
      ],
      "stateMutability": "view",
      "type": "function"
    },
    {
      "inputs": [],
      "name": "price",
      "outputs": [
        {
          "internalType": "uint256",
          "name": "",
          "type": "uint256"
        }
      ],
      "stateMutability": "view",
      "type": "function"
    },
    {
      "inputs": [],
      "name": "restricted",
      "outputs": [
        {
          "internalType": "bool",
          "name": "",
          "type": "bool"
        }
      ],
      "stateMutability": "view",
      "type": "function"
    },
    {
      "inputs": [],
      "name": "symbol",
      "outputs": [
        {
          "internalType": "string",
          "name": "",
          "type": "string"
        }
      ],
      "stateMutability": "view",
      "type": "function"
    },
    {
      "inputs": [],
      "name": "totalSupply",
      "outputs": [
        {
          "internalType": "uint256",
          "name": "",
          "type": "uint256"
        }
      ],
      "stateMutability": "view",
      "type": "function"
    },
    {
      "inputs": [
        {
          "internalType": "address",
          "name": "",
          "type": "address"
        }
      ],
      "name": "transfer_log",
      "outputs": [
        {
          "internalType": "uint256",
          "name": "",
          "type": "uint256"
        }
      ],
      "stateMutability": "view",
      "type": "function"
    },
    {
      "inputs": [],
      "name": "getIssuer",
      "outputs": [
        {
          "internalType": "address",
          "name": "",
          "type": "address"
        }
      ],
      "stateMutability": "view",
      "type": "function"
    },
    {
      "inputs": [
        {
          "internalType": "address",
          "name": "wallet",
          "type": "address"
        }
      ],
      "name": "getBalanceFrom",
      "outputs": [
        {
          "internalType": "uint256",
          "name": "",
          "type": "uint256"
        }
      ],
      "stateMutability": "view",
      "type": "function"
    },
    {
      "inputs": [
        {
          "internalType": "address",
          "name": "paymentWalletAddress",
          "type": "address"
        }
      ],
      "name": "setPaymentWalletContract",
      "outputs": [],
      "stateMutability": "nonpayable",
      "type": "function"
    },
    {
      "inputs": [
        {
          "internalType": "address",
          "name": "wallet",
          "type": "address"
        }
      ],
      "name": "addInvestor",
      "outputs": [],
      "stateMutability": "nonpayable",
      "type": "function"
    },
    {
      "inputs": [
        {
          "internalType": "address",
          "name": "wallet",
          "type": "address"
        }
      ],
      "name": "setFeeRecipient",
      "outputs": [],
      "stateMutability": "nonpayable",
      "type": "function"
    },
    {
      "inputs": [
        {
          "internalType": "address",
          "name": "from",
          "type": "address"
        },
        {
          "internalType": "address",
          "name": "to",
          "type": "address"
        },
        {
          "internalType": "uint256",
          "name": "tokens",
          "type": "uint256"
        }
      ],
      "name": "transferOnChainPurchase",
      "outputs": [],
      "stateMutability": "nonpayable",
      "type": "function"
    },
    {
      "inputs": [
        {
          "internalType": "address",
          "name": "from",
          "type": "address"
        },
        {
          "internalType": "address",
          "name": "to",
          "type": "address"
        },
        {
          "internalType": "uint256",
          "name": "tokens",
          "type": "uint256"
        }
      ],
      "name": "transfer",
      "outputs": [
        {
          "internalType": "bool",
          "name": "success",
          "type": "bool"
        }
      ],
      "stateMutability": "nonpayable",
      "type": "function"
    },
    {
      "inputs": [
        {
          "internalType": "address",
          "name": "from",
          "type": "address"
        },
        {
          "internalType": "address",
          "name": "to",
          "type": "address"
        },
        {
          "internalType": "uint256",
          "name": "tokens",
          "type": "uint256"
        }
      ],
      "name": "transferFrom",
      "outputs": [
        {
          "internalType": "bool",
          "name": "success",
          "type": "bool"
        }
      ],
      "stateMutability": "nonpayable",
      "type": "function"
    },
    {
      "inputs": [
        {
          "internalType": "address",
          "name": "wallet",
          "type": "address"
        },
        {
          "internalType": "uint256",
          "name": "tokens",
          "type": "uint256"
        },
        {
          "internalType": "uint256",
          "name": "Fee",
          "type": "uint256"
        }
      ],
      "name": "buy",
      "outputs": [],
      "stateMutability": "nonpayable",
      "type": "function"
    },
    {
      "inputs": [
        {
          "internalType": "address",
          "name": "wallet",
          "type": "address"
        },
        {
          "internalType": "uint256",
          "name": "certificateNo",
          "type": "uint256"
        },
        {
          "internalType": "uint256",
          "name": "tokens",
          "type": "uint256"
        }
      ],
      "name": "sell",
      "outputs": [],
      "stateMutability": "nonpayable",
      "type": "function"
    },
    {
      "inputs": [
        {
          "internalType": "address",
          "name": "from",
          "type": "address"
        },
        {
          "internalType": "address",
          "name": "to",
          "type": "address"
        },
        {
          "internalType": "uint256",
          "name": "tokens",
          "type": "uint256"
        }
      ],
      "name": "validate",
      "outputs": [
        {
          "internalType": "bool",
          "name": "",
          "type": "bool"
        }
      ],
      "stateMutability": "view",
      "type": "function"
    }
  ],
  "bytecode": "0x6000805461ffff19168155600181905560025560c0604052600660809081527f455155495459000000000000000000000000000000000000000000000000000060a05260079062000051908262000240565b506008805460ff191690556001600e553480156200006e57600080fd5b5060405162002b6638038062002b668339810160408190526200009191620003de565b600a805433600160a060020a031991821617909155600b8054909116600160a060020a038916179055600c620000c8878262000240565b506003620000d7868262000240565b506004620000e6858262000240565b5060058390556006828155604080518082019091529081527f4571756974790000000000000000000000000000000000000000000000000000602082015260079062000133908262000240565b5060088054600160a060020a039092166101000261010060a860020a03199092169190911790555060025550620004a892505050565b7f4e487b7100000000000000000000000000000000000000000000000000000000600052604160045260246000fd5b600281046001821680620001ad57607f821691505b602082108103620001e7577f4e487b7100000000000000000000000000000000000000000000000000000000600052602260045260246000fd5b50919050565b601f8211156200023b576000818152602081206020601f86010481016020861015620002165750805b6020601f860104820191505b81811015620002375782815560010162000222565b5050505b505050565b81516001604060020a038111156200025c576200025c62000169565b62000274816200026d845462000198565b84620001ed565b602080601f831160018114620002b05760008415620002935750858301515b60028086026008870290910a600019041982161786555062000237565b600085815260208120601f198616915b82811015620002e157888601518255948401946001909101908401620002c0565b50858210156200030257878501516008601f88160260020a60001904191681555b5050505050600202600101905550565b8051600160a060020a03811681146200032a57600080fd5b919050565b600082601f8301126200034157600080fd5b81516001604060020a03808211156200035e576200035e62000169565b604051601f8301601f19908116603f0116810190828211818310171562000389576200038962000169565b81604052838152602092508683858801011115620003a657600080fd5b600091505b83821015620003ca5785820183015181830184015290820190620003ab565b600093810190920192909252949350505050565b600080600080600080600060e0888a031215620003fa57600080fd5b620004058862000312565b965060208801516001604060020a03808211156200042257600080fd5b620004308b838c016200032f565b975060408a01519150808211156200044757600080fd5b620004558b838c016200032f565b965060608a01519150808211156200046c57600080fd5b506200047b8a828b016200032f565b9450506080880151925060a088015191506200049a60c0890162000312565b905092959891949750929550565b6126ae80620004b86000396000f3fe608060405234801561001057600080fd5b50600436106101f15760e060020a600035046306fdde0381146101f6578063150704011461021457806317d7de7c1461021c57806318160ddd146102245780631998aeef1461023b5780631d1438481461024457806323b872dd146102645780633dfc2514146102875780633f0a07971461028f57806340f0eb35146102a757806346904840146102af5780634a896384146102c257806352556421146102cb57806361e76364146102dc57806362befb1e146102e5578063636110ee146102ed5780636a272462146103025780637072c6b114610315578063752f769714610322578063821828a31461032c578063839145401461035c5780638862d26a1461036757806389af2dce1461036f5780638da5cb5b1461038257806395d89b411461039557806397a67fe11461039d5780639ac97560146103af578063a035b1fe146103c2578063a1305aa5146103cb578063a59ac6dd146103d6578063a5cebde1146103e9578063a5dea8a914610409578063aa3ad4e41461041c578063beabacc81461042f578063bf39863114610442578063c4e41b221461044b578063cbc2bc4314610453578063cc0c82d114610460578063de2b4e9814610473578063e28797d21461047b578063e641bde114610484578063e74b981b14610497575b600080fd5b6101fe6104aa565b60405161020b9190611eff565b60405180910390f35b6101fe610538565b6101fe6105ca565b61022d60055481565b60405190815260200161020b565b61022d600f5481565b600b5461025790600160a060020a031681565b60405161020b9190611f12565b610277610272366004611f42565b6105d9565b604051901515815260200161020b565b6101fe610ae2565b600854610257906101009004600160a060020a031681565b6101fe610aef565b600d5461025790600160a060020a031681565b61022d60105481565b600b54600160a060020a0316610257565b61022d60025481565b61022d610afe565b6103006102fb366004611f8f565b610b13565b005b610300610310366004612013565b610b62565b6008546102779060ff1681565b61022d62ed4e0081565b61030061033a366004612046565b60118054600160a060020a031916600160a060020a0392909216919091179055565b61022d6301e1338081565b6101fe611356565b61022d61037d366004612046565b611363565b600a5461025790600160a060020a031681565b6101fe6113e2565b60005461027790610100900460ff1681565b6103006103bd366004611f8f565b6113ef565b61022d60065481565b60005460ff16610277565b6103006103e4366004612013565b611436565b61022d6103f7366004612046565b60096020526000908152604090205481565b61022d610417366004612061565b6117c8565b61027761042a366004611f42565b6117eb565b61027761043d366004611f42565b6119aa565b61022d60015481565b60055461022d565b6000546102779060ff1681565b61030061046e366004611f42565b6119ed565b60015461022d565b61022d600e5481565b610300610492366004612046565b611b75565b6103006104a5366004612046565b611c89565b600380546104b79061207a565b80601f01602080910402602001604051908101604052809291908181526020018280546104e39061207a565b80156105305780601f1061050557610100808354040283529160200191610530565b820191906000526020600020905b81548152906001019060200180831161051357829003601f168201915b505050505081565b6060600480546105479061207a565b80601f01602080910402602001604051908101604052809291908181526020018280546105739061207a565b80156105c05780601f10610595576101008083540402835291602001916105c0565b820191906000526020600020905b8154815290600101906020018083116105a357829003601f168201915b5050505050905090565b6060600380546105479061207a565b600a54600090600160a060020a031633146106125760405160e560020a62461bcd028152600401610609906120b8565b60405180910390fd5b600b54600160a060020a0385811691161461081457600160a060020a03841660009081526009602052604090205461064e9062ed4e00906120f1565b4210156106705760405160e560020a62461bcd02815260040161060990612104565b60085460405160e560020a63027cecf3028152610100909104600160a060020a031690634f9d9e60906106a7908690600401611f12565b600060405180830381865afa1580156106c4573d6000803e3d6000fd5b505050506040513d6000823e601f3d908101601f191682016040526106ec9190810190612145565b6040516020016106fc91906121f1565b60408051808303601f1901815290829052805160209091012060085460e560020a63027cecf30283529091610100909104600160a060020a031690634f9d9e609061074b908890600401611f12565b600060405180830381865afa158015610768573d6000803e3d6000fd5b505050506040513d6000823e601f3d908101601f191682016040526107909190810190612145565b6040516020016107a091906121f1565b60405160208183030381529060405280519060200120146108145760405160e560020a62461bcd02815260206004820152602260248201527f63616e6e6f7420626520736f6c64206163726f7373206a75727369646369746f604482015260f060020a616e73026064820152608401610609565b60085460405160e260020a6314755659028152610100909104600160a060020a0316906351d559649061085190879087903090889060040161220d565b600060405180830381600087803b15801561086b57600080fd5b505af115801561087f573d6000803e3d6000fd5b505050600160a060020a0380851660009081526009602052604090819020429055600854905160e060020a63fb99b86d028152610100909104909116915063fb99b86d906108d1908790600401611f12565b602060405180830381865afa1580156108ee573d6000803e3d6000fd5b505050506040513d601f19601f820116820180604052508101906109129190612237565b156109275761092360015483611cd8565b6001555b60008051602061265983398151915284848460405161094893929190612254565b60405180910390a160085460405160e060020a63e939567902815260048101849052600091869186916101009004600160a060020a03169063e939567990602401600060405180830381865afa1580156109a6573d6000803e3d6000fd5b505050506040513d6000823e601f3d908101601f191682016040526109ce9190810190612145565b6040516020016109e093929190612278565b60408051808303601f1901815282825260085460e060020a634ba1e1930284529151909350610100909104600160a060020a031691631e54b0d8916004918491634ba1e1939184810191600091819003860181865afa158015610a47573d6000803e3d6000fd5b505050506040513d6000823e601f3d908101601f19168201604052610a6f9190810190612145565b846040518463ffffffff1660e060020a028152600401610a9193929190612374565b6020604051808303816000875af1158015610ab0573d6000803e3d6000fd5b505050506040513d601f19601f82011682018060405250810190610ad491906123e3565b5060019150505b9392505050565b600c80546104b79061207a565b6060600780546105479061207a565b6000610b0e600654600154611d30565b905090565b6000805460ff19168415151790556040517fd5d3710e87ad129534715c02a9b1de4c50bdc2faeaa8a34a0470039175e31f2590610b55908590859085906123fc565b60405180910390a1505050565b600a54600160a060020a03163314610b8f5760405160e560020a62461bcd028152600401610609906120b8565b60085460405160e260020a631aa4cc5b028152610100909104600160a060020a031690636a93316c90610bc6908690600401611f12565b602060405180830381865afa158015610be3573d6000803e3d6000fd5b505050506040513d601f19601f82011682018060405250810190610c079190612237565b610c3e5760405160e560020a62461bcd028152602060048201526002602482015260f060020a614e57026044820152606401610609565b60008111610c615760405160e560020a62461bcd02815260040161060990612434565b60008211610cb25760405160e560020a62461bcd0281526020600482015260186024820152604060020a776e6f742076616c6964206365727469666963617465206e6f026044820152606401610609565b60085460405160e560020a63027cecf3028152610d36916101009004600160a060020a031690634f9d9e6090610cec908790600401611f12565b600060405180830381865afa158015610d09573d6000803e3d6000fd5b505050506040513d6000823e601f3d908101601f19168201604052610d319190810190612145565b611db0565b610d6e5760405160e560020a62461bcd028152602060048201526003602482015260e960020a6227a7a5026044820152606401610609565b60085460405160e660020a61e48102815282916101009004600160a060020a0316906239204090610da59087903090600401612454565b602060405180830381865afa158015610dc2573d6000803e3d6000fd5b505050506040513d601f19601f82011682018060405250810190610de691906123e3565b1215610e075760405160e560020a62461bcd02815260040161060990612434565b60085460405160e260020a631aa4cc5b028152610100909104600160a060020a031690636a93316c90610e3e908690600401611f12565b602060405180830381865afa158015610e5b573d6000803e3d6000fd5b505050506040513d601f19601f82011682018060405250810190610e7f9190612237565b610eb75760405160e560020a62461bcd028152602060048201526003602482015260eb60020a6209ca4b026044820152606401610609565b6000805460ff1615610f585760085460405160e160020a63044786e1028152610100909104600160a060020a03169063088f0dc290610efa90600490810161246e565b6040805180830381865afa158015610f16573d6000803e3d6000fd5b505050506040513d601f19601f82011682018060405250810190610f3a9190612481565b6010819055600f9190915515610f535750601054610f58565b506006545b600b54600160a060020a03858116911614610fb657600160a060020a038416600090815260096020526040902054610f949062ed4e00906120f1565b421015610fb65760405160e560020a62461bcd02815260040161060990612104565b600e546008546000916064916101009004600160a060020a031663a6a86130610fdf8688611d30565b6040518263ffffffff1660e060020a02815260040161100091815260200190565b602060405180830381865afa15801561101d573d6000803e3d6000fd5b505050506040513d601f19601f8201168201806040525081019061104191906123e3565b61104b91906124a5565b61105591906124bc565b905080156110f857600860019054906101000a9004600160a060020a0316600160a060020a03166342a8d33f4260046040516020016110949190612555565b60408051601f198184030181529082905260e060020a63ffffffff85160282526110c5929186908190600401612593565b600060405180830381600087803b1580156110df57600080fd5b505af11580156110f3573d6000803e3d6000fd5b505050505b600854600b5460405160e260020a6314755659028152610100909204600160a060020a03908116926351d559649261113b928a929116903090899060040161220d565b600060405180830381600087803b15801561115557600080fd5b505af1158015611169573d6000803e3d6000fd5b5050505061117960055484611cd8565b6005556001546111899084611de1565b600155600b54604051600080516020612659833981519152916111b9918891600160a060020a0316908790612254565b60405180910390a1600b5460085460405160e060020a63e9395679028152600481018690526000928892600160a060020a03918216926101009091049091169063e939567990602401600060405180830381865afa15801561121f573d6000803e3d6000fd5b505050506040513d6000823e601f3d908101601f191682016040526112479190810190612145565b60405160200161125993929190612278565b60408051808303601f1901815282825260085460e060020a634ba1e1930284529151909350610100909104600160a060020a031691631e54b0d8916004918491634ba1e1939184810191600091819003860181865afa1580156112c0573d6000803e3d6000fd5b505050506040513d6000823e601f3d908101601f191682016040526112e89190810190612145565b846040518463ffffffff1660e060020a02815260040161130a93929190612374565b6020604051808303816000875af1158015611329573d6000803e3d6000fd5b505050506040513d601f19601f8201168201806040525081019061134d91906123e3565b50505050505050565b600780546104b79061207a565b60085460405160e660020a61e4810281526000916101009004600160a060020a031690623920409061139b9085903090600401612454565b602060405180830381865afa1580156113b8573d6000803e3d6000fd5b505050506040513d601f19601f820116820180604052508101906113dc91906123e3565b92915050565b600480546104b79061207a565b6000805461ff001916610100851515021790556040517faa4f09342ef9787b0bc3a7df0faa5f114a19a74a2f1e61dcfb504c484508f4ca90610b55908590859085906123fc565b600a54600160a060020a031633146114635760405160e560020a62461bcd028152600401610609906120b8565b6005548211156114ad5760405160e560020a62461bcd02815260206004820152600f6024820152608860020a6e746f6f206d616e7920746f6b656e73026044820152606401610609565b801561154e57600860019054906101000a9004600160a060020a0316600160a060020a03166342a8d33f4260046040516020016114ea9190612555565b60408051601f198184030181529082905260e060020a63ffffffff851602825261151b929186908190600401612593565b600060405180830381600087803b15801561153557600080fd5b505af1158015611549573d6000803e3d6000fd5b505050505b61155a60055483611de1565b60055560085460405160e060020a631840cb21028152610100909104600160a060020a031690631840cb219061159890869030908790600401612254565b600060405180830381600087803b1580156115b257600080fd5b505af11580156115c6573d6000803e3d6000fd5b505050506115d660015483611cd8565b60018190556002541480156115eb5750600554155b156115fe576000805460ff191660011790555b600b546040516000805160206126598339815191529161162d91600160a060020a039091169086908690612254565b60405180910390a1600b5460085460405160e060020a63e939567902815260048101859052600092600160a060020a039081169287926101009091049091169063e939567990602401600060405180830381865afa158015611693573d6000803e3d6000fd5b505050506040513d6000823e601f3d908101601f191682016040526116bb9190810190612145565b6040516020016116cd93929190612278565b60408051808303601f1901815282825260085460e060020a634ba1e1930284529151909350610100909104600160a060020a031691631e54b0d8916004918491634ba1e1939184810191600091819003860181865afa158015611734573d6000803e3d6000fd5b505050506040513d6000823e601f3d908101601f1916820160405261175c9190810190612145565b846040518463ffffffff1660e060020a02815260040161177e93929190612374565b6020604051808303816000875af115801561179d573d6000803e3d6000fd5b505050506040513d601f19601f820116820180604052508101906117c191906123e3565b5050505050565b60006113dc6117e46117de600654600154611d30565b84611e48565b6064611d30565b600a54600090600160a060020a0316331461181b5760405160e560020a62461bcd028152600401610609906120b8565b60008054610100900460ff161515810361183d578061183981612604565b9150505b60085460405160e560020a63027cecf3028152611877916101009004600160a060020a031690634f9d9e6090610cec908990600401611f12565b611889578061188581612604565b9150505b60085460405160e560020a63027cecf30281526118c3916101009004600160a060020a031690634f9d9e6090610cec908890600401611f12565b6118d557806118d181612604565b9150505b60085460405160e260020a631aa4cc5b028152610100909104600160a060020a031690636a93316c9061190c908790600401611f12565b602060405180830381865afa158015611929573d6000803e3d6000fd5b505050506040513d601f19601f8201168201806040525081019061194d9190612237565b61195f578061195b81612604565b9150505b82600003611975578061197181612604565b9150505b60055483111561198d578061198981612604565b9150505b8060000361199f576001915050610adb565b506000949350505050565b600a54600090600160a060020a031633146119da5760405160e560020a62461bcd028152600401610609906120b8565b6119e58484846105d9565b949350505050565b600a54600160a060020a03163314611a1a5760405160e560020a62461bcd028152600401610609906120b8565b60006064600e54600860019054906101000a9004600160a060020a0316600160a060020a031663a6a86130611a5160065487611d30565b6040518263ffffffff1660e060020a028152600401611a7291815260200190565b602060405180830381865afa158015611a8f573d6000803e3d6000fd5b505050506040513d601f19601f82011682018060405250810190611ab391906123e3565b611abd91906124a5565b611ac791906124bc565b90508015611b6a57600860019054906101000a9004600160a060020a0316600160a060020a03166342a8d33f426004604051602001611b069190612555565b60408051601f198184030181529082905260e060020a63ffffffff8516028252611b37929186908190600401612593565b600060405180830381600087803b158015611b5157600080fd5b505af1158015611b65573d6000803e3d6000fd5b505050505b6117c18484846119aa565b600a54600160a060020a03163314611ba25760405160e560020a62461bcd028152600401610609906120b8565b60085460405160e560020a63027cecf3028152611bdc916101009004600160a060020a031690634f9d9e6090610cec908590600401611f12565b611c245760405160e560020a62461bcd0281526020600482015260136024820152606960020a7237baba1037b310353ab934b9b234b1ba34b7b7026044820152606401610609565b60085460405160e160020a620d0e49028152610100909104600160a060020a031690621a1c9290611c5b9060049085908201612621565b600060405180830381600087803b158015611c7557600080fd5b505af11580156117c1573d6000803e3d6000fd5b600a54600160a060020a03163314611cb65760405160e560020a62461bcd028152600401610609906120b8565b600d8054600160a060020a031916600160a060020a0392909216919091179055565b600082820183811015610adb5760405160e560020a62461bcd02815260206004820152601b60248201527f536166654d6174683a206164646974696f6e206f766572666c6f7700000000006044820152606401610609565b600082820282158382048514151715611d4857600080fd5b82611d5385836124bc565b14610adb5760405160e560020a62461bcd02815260206004820152602160248201527f536166654d6174683a206d756c7469706c69636174696f6e206f766572666c6f604482015260f860020a6077026064820152608401610609565b805160208201206040516000918291611dcb90600c9061264c565b6040518091039020036113dc5750600192915050565b600082821115611e365760405160e560020a62461bcd02815260206004820152601e60248201527f536166654d6174683a207375627472616374696f6e206f766572666c6f7700006044820152606401610609565b818303821984018114610adb57600080fd5b6000808211611e9c5760405160e560020a62461bcd02815260206004820152601a60248201527f536166654d6174683a206469766973696f6e206279207a65726f0000000000006044820152606401610609565b600082611ea857600080fd5b5050900490565b60005b83811015611eca578181015183820152602001611eb2565b50506000910152565b60008151808452611eeb816020860160208601611eaf565b601f01601f19169290920160200192915050565b602081526000610adb6020830184611ed3565b600160a060020a0391909116815260200190565b8035600160a060020a0381168114611f3d57600080fd5b919050565b600080600060608486031215611f5757600080fd5b611f6084611f26565b9250611f6e60208501611f26565b9150604084013590509250925092565b8015158114611f8c57600080fd5b50565b600080600060408486031215611fa457600080fd5b8335611faf81611f7e565b925060208401356001604060020a0380821115611fcb57600080fd5b818601915086601f830112611fdf57600080fd5b813581811115611fee57600080fd5b87602082850101111561200057600080fd5b6020830194508093505050509250925092565b60008060006060848603121561202857600080fd5b61203184611f26565b95602085013595506040909401359392505050565b60006020828403121561205857600080fd5b610adb82611f26565b60006020828403121561207357600080fd5b5035919050565b60028104600182168061208e57607f821691505b6020821081036120b25760e060020a634e487b710260009081526022600452602490fd5b50919050565b602080825260029082015260f060020a614e4f02604082015260600190565b60e060020a634e487b710260009081526011600452602490fd5b808201808211156113dc576113dc6120d7565b6020808252600a9082015260b060020a693233372e31343728652902604082015260600190565b60e060020a634e487b710260009081526041600452602490fd5b60006020828403121561215757600080fd5b81516001604060020a038082111561216e57600080fd5b818401915084601f83011261218257600080fd5b8151818111156121945761219461212b565b604051601f8201601f19908116603f011681019083821181831017156121bc576121bc61212b565b816040528281528760208487010111156121d557600080fd5b6121e6836020830160208801611eaf565b979650505050505050565b60008251612203818460208701611eaf565b9190910192915050565b600160a060020a039485168152928416602084015292166040820152606081019190915260800190565b60006020828403121561224957600080fd5b8151610adb81611f7e565b600160a060020a039384168152919092166020820152604081019190915260600190565b60d560020a650232927a69d1028152606060020a600160a060020a038581168202600684015260d560020a65016102a279d102601a84015284160260208083019190915260b560020a690161020a6a7aaa72a1d102603483015282516000916122e9908290603e8601908701611eaf565b91909101603e01949350505050565b600081546123058161207a565b808552602060018381168015612322576001811461233b57612369565b60ff198516888401528315158302880183019550612369565b866000528260002060005b858110156123615781548a8201860152908301908401612346565b890184019650505b505050505092915050565b60808152600061238760808301866122f8565b82810360208401526123998186611ed3565b9050828103806040850152600e8252609160020a6d2a3930b739b332b9102a37b5b2b7026020830152604081016060850152506123d96040820185611ed3565b9695505050505050565b6000602082840312156123f557600080fd5b5051919050565b831515815260406020820152816040820152818360608301376000818301606090810191909152601f909201601f1916010192915050565b602080825260039082015260e960020a622729a302604082015260600190565b600160a060020a0392831681529116602082015260400190565b602081526000610adb60208301846122f8565b6000806040838503121561249457600080fd5b505080516020909101519092909150565b80820281158282048414176113dc576113dc6120d7565b6000826124dd5760e060020a634e487b710260009081526012600452602490fd5b500490565b600081546124ef8161207a565b60018281168015612507576001811461251c5761254b565b60ff198416875282151583028701945061254b565b8560005260208060002060005b858110156125425781548a820152908401908201612529565b50505082870194505b5050505092915050565b609d60020a6c02921a2ac102332b2903337b91028152600061257a600d8301846124e2565b60d160020a65103a37b5b2b70281526006019392505050565b84815260c06020820152600460c082015260e360020a63086c2e6d0260e082015260006101008060408401526008818401525060c060020a675243455820466565026101208301526101408060608401526125f081840187611ed3565b6080840195909552505060a0015292915050565b600060ff60020a8201612619576126196120d7565b506000190190565b60408152600061263460408301856122f8565b9050600160a060020a03831660208301529392505050565b6000610adb82846124e256feddf252ad1be2c89b69c2b068fc378daa952ba7f163c4a11628f55a4df523b3efa2646970667358221220752c3edc29cb1390e8de7ce45893c7e340fb70a321ad9811dd8deb6d88559d1c64736f6c63430008120033",
  "immutableReferences": {},
  "source": "// SPDX-License-Identifier: BSL-1.1\npragma solidity >=0.4.22 <0.9.0;\n\nimport \"../../interfaces/IExemptLiquidityMarketExchange.sol\";\nimport \"../../interfaces/IPaymentWallet.sol\";\nimport \"../../abstract/AEquityToken.sol\";\n\ncontract Reg147Equity is AEquityToken {\n    /**\n     * About Rule 147 Secutrity Restrictions\n     * See https://www.sec.gov/info/smallbus/secg/intrastate-offering-exemptions-compliance-guide-041917\n     *\n     * Securities purchased in an offering pursuant to Rule 147 or Rule 147A can only be resold to persons residing in-state for a period of six months from the date of the sale by the issuer to the purchaser. \n     * Issuers must disclose these limitations on resale to offerees and purchasers and include appropriate legends on the certificate or document evidencing the security. \n     * Although securities purchased in an offering pursuant to Rule 147 or Rule 147A are not considered restricted securities, \n     * persons reselling the securities will nonetheless need to register the transaction with the Commission or have an exemption from registration under federal law\n     */\n\n    bool public restricted = false; \n\n    IExemptLiquidityMarketExchange public exchangeContract;\n\n    mapping(address => uint256) public transfer_log;\n\n    address public owner;\n    address public issuer;\n\n    event Transfer(address,address,uint256);\n\n    string public homeJurisdiction;\n    address public feeRecipient;\n    uint256 public FeePercentage = 1;\n\n    uint256 public bid;\n    uint256 public ask;\n\n    constructor(address tokenIssuer,string memory jurisdiction,string memory tokenName,string memory tokenSymbol,uint256 tokenSupply,uint256 tokenPrice,address exchangeAddress) {\n        owner = msg.sender;\n        issuer = tokenIssuer;\n\n        homeJurisdiction = jurisdiction;\n        name = tokenName;\n        symbol = tokenSymbol;\n        totalSupply = tokenSupply;\n        price = tokenPrice;\n        offeringType = \"Equity\";\n\n\n        exchangeContract = IExemptLiquidityMarketExchange(exchangeAddress);\n\n        MAX_OFFERING_SHARES = tokenSupply;\n\n        //exchangeContract.assignTokenManager(tokenManagerAddress);\n        //exchangeContract.assignToken(address(this), tokenIssuer, tokenName, tokenSymbol, totalSupply, \"Reg147\");\n        //exchangeContract.setOfferingContractAddress(symbol,address(this));\n    }\n\n    modifier isOwner() {\n        require(msg.sender == owner,\"NO\");\n        _;\n    }\n\n    function getIssuer() external view returns (address) {\n        return issuer;\n    }\n\n    function getBalanceFrom(address wallet) external view returns (uint256) {\n        return uint256(exchangeContract.getShares(wallet,address(this)));\n    }\n\n    IPaymentWallet paymentWalletContract;\n\n    function setPaymentWalletContract(address paymentWalletAddress) external {\n        paymentWalletContract = IPaymentWallet(paymentWalletAddress);\n    }\n\n\n    function addInvestor(address wallet) external isOwner {\n        require(findJurisdiction(exchangeContract.getInvestorJurisdiction(wallet)),\"out of jurisdiction\");\n        exchangeContract.addInvestor(symbol, wallet);\n    }\n\n    function setFeeRecipient(address wallet) external isOwner {\n        feeRecipient = wallet;\n    }\n\n\n    function transferOnChainPurchase(address from, address to, uint tokens) external isOwner {\n        // Calculate the total fee amount\n        uint256 Fee = (exchangeContract.usdToWei(SafeMath.safeMul(price,tokens)) * FeePercentage) / 100;\n\n        if (Fee > 0) {\n            exchangeContract.addEntry(block.timestamp,\"Cash\",\"RCEX Fee\",string(abi.encodePacked(\"RCEX Fee for \",symbol,\" token\")),int256(Fee),int256(Fee));\n        }\n\n        transfer(from,to,tokens);\n    }\n\n    /**\n     * @dev transfer : Transfer token to another etherum address\n     */ \n    function transfer(address from,address to, uint tokens) public isOwner returns (bool success) {\n        return transferFrom(from, to, tokens);\n    }\n\n    /**\n     * @dev transferFrom : Transfer token after approval \n     */ \n    function transferFrom(address from, address to, uint tokens) public isOwner returns (bool success) {\n        //require(validate(from, to, tokens),\"not valid\");\n\n        if (from != issuer) {\n            require (block.timestamp >= (transfer_log[from] + SIXMONTHS),\"237.147(e)\");\n            require (keccak256(abi.encodePacked(exchangeContract.getInvestorJurisdiction(from))) ==  keccak256(abi.encodePacked(exchangeContract.getInvestorJurisdiction(to))),\"cannot be sold across jursidcitons\");\n        }\n        exchangeContract.transferShares(from, to, address(this), int256(tokens));\n        transfer_log[to] = block.timestamp;\n\n        if (exchangeContract.isTransferAgent(from)) {\n            OUTSTANDING_SHARES = SafeMath.safeAdd(OUTSTANDING_SHARES, tokens);\n        }\n        emit Transfer(from, to, tokens);\n\n        // save CAT\n        string memory eventData = string(abi.encodePacked(\"FROM: \", from, \", TO: \", to, \", AMOUNT: \", exchangeContract.uintToString(tokens)));\n        exchangeContract.addAuditEntry(symbol,exchangeContract.timestampToString(),\"Transfer Token\",eventData);\n\n        return true;\n    }\n\n    /**\n     * Funding round:\n     * 1. Investor specifies number of shares to buy\n     * 2. Jurisdiction is vallidated and match with the Issuer\n     * 3. \n     */\n    function buy(address wallet,uint256 tokens,uint256 Fee) external isOwner {\n        require(tokens <= totalSupply,\"too many tokens\");\n        // payments transferred off-chain\n        if (Fee > 0) {\n            exchangeContract.addEntry(block.timestamp,\"Cash\",\"RCEX Fee\",string(abi.encodePacked(\"RCEX Fee for \",symbol,\" token\")),int256(Fee),int256(Fee));\n        }\n        // adjust the total supply for tokens sold to investor\n        totalSupply = SafeMath.safeSub(totalSupply, tokens);\n        // transfer tokens to investor\n        exchangeContract.addShares(wallet, address(this), int256(tokens));\n        // increaed the outstanding shares\n        OUTSTANDING_SHARES = SafeMath.safeAdd(OUTSTANDING_SHARES, tokens);\n        // check if funding round is complete?\n        if (OUTSTANDING_SHARES == MAX_OFFERING_SHARES && totalSupply == 0) {\n            TRADING_ACTIVE = true; // funding round is complete, secondary trading round is active! Use OrderBook for trading.\n        }\n        // post transfer event on the private blockchain\n        emit Transfer(issuer, wallet, tokens);\n\n        // save CAT\n        string memory eventData = string(abi.encodePacked(\"FROM: \", issuer, \", TO: \", wallet, \", AMOUNT: \", exchangeContract.uintToString(tokens)));\n        exchangeContract.addAuditEntry(symbol,exchangeContract.timestampToString(),\"Transfer Token\",eventData);\n    }\n\n    /**\n     * Sell is when an investor wishes to liquidate their holdings\n     */\n    function sell(address wallet,uint256 certificateNo,uint256 tokens) external isOwner {\n        require(exchangeContract.getInvestorStatus(wallet),\"NW\");\n        require(tokens > 0, \"NSF\");\n        require(certificateNo > 0,\"not valid certificate no\");\n        require(findJurisdiction(exchangeContract.getInvestorJurisdiction(wallet)),\"OOJ\");\n        require(exchangeContract.getShares(wallet,address(this)) >= int256(tokens),\"NSF\");\n        require(exchangeContract.getInvestorStatus(wallet),\"NRX\");\n\n        uint256 _price = 0;\n\n        if (TRADING_ACTIVE) {\n            // if trading is active, get current price from order book?\n            (bid, ask) = exchangeContract.quote(symbol);\n            if (ask > 0) {\n                _price = ask;\n            } else {\n                _price = price;\n            }\n        }  \n\n        if (wallet != issuer) {\n            require (block.timestamp >= (transfer_log[wallet] + SIXMONTHS),\"237.147(e)\");\n        }\n\n        // Calculate the total fee amount\n        uint256 Fee = (exchangeContract.usdToWei(SafeMath.safeMul(_price,tokens)) * FeePercentage) / 100;\n        \n\n        if (Fee > 0) {\n            exchangeContract.addEntry(block.timestamp,\"Cash\",\"RCEX Fee\",string(abi.encodePacked(\"RCEX Fee for \",symbol,\" token\")),int256(Fee),int256(Fee));\n        }\n        // transfer tokens to issuer and update totalSupply\n        exchangeContract.transferShares(wallet,issuer,address(this),int256(tokens));\n        totalSupply = SafeMath.safeAdd(totalSupply, tokens);\n        // increaed the outstanding shares\n        OUTSTANDING_SHARES = SafeMath.safeSub(OUTSTANDING_SHARES, tokens);\n        // post transfer event on the private blockchain\n        emit Transfer(wallet, issuer, tokens);\n\n        // save CAT\n        string memory eventData = string(abi.encodePacked(\"FROM: \", wallet, \", TO: \", issuer, \", AMOUNT: \", exchangeContract.uintToString(tokens)));\n        exchangeContract.addAuditEntry(symbol,exchangeContract.timestampToString(),\"Transfer Token\",eventData);\n    }\n\n\n\n    /**\n     * INTERNAL FUNCTIONS\n     */\n    function validate(address from,address to,uint tokens) external view override isOwner returns (bool) {\n        int valid = 0;\n        if (TRANSFERS_ACTIVE == false) {\n            valid--;\n        }\n        if (!findJurisdiction(exchangeContract.getInvestorJurisdiction(from))) {\n            valid--;\n        }\n        if (!findJurisdiction(exchangeContract.getInvestorJurisdiction(to))) {\n            valid--;\n        }\n        if (!exchangeContract.getInvestorStatus(to)) {\n            valid--;\n        }\n        if (tokens == 0) {\n            valid--;\n        }\n        if (tokens > totalSupply) {\n            valid--;\n        }\n        if (valid == 0) {\n            return true;\n        }\n        return false;\n    }\n\n    function findJurisdiction(string memory jurisdiction) internal view returns(bool) {\n        bool found = false;\n        if (keccak256(bytes(homeJurisdiction)) == keccak256(bytes(jurisdiction))) {\n            found = true;\n        }            \n        return found;\n    }\n}",
  "sourcePath": "/Volumes/My Book/projects/pingleware-contracts/contracts/finance/elmx/Reg147Equity.sol",
  "compiler": {
    "name": "solc",
    "version": "0.8.18+commit.87f61d96.Emscripten.clang"
  },
  "schemaVersion": "3.4.12",
  "updatedAt": "2023-10-26T20:32:53.168Z",
  "devdoc": {
    "kind": "dev",
    "methods": {
      "transfer(address,address,uint256)": {
        "details": "transfer : Transfer token to another etherum address"
      },
      "transferFrom(address,address,uint256)": {
        "details": "transferFrom : Transfer token after approval "
      }
    },
    "version": 1
  },
  "userdoc": {
    "kind": "user",
    "methods": {
      "buy(address,uint256,uint256)": {
        "notice": "Funding round: 1. Investor specifies number of shares to buy 2. Jurisdiction is vallidated and match with the Issuer 3. "
      },
      "getMarketValue()": {
        "notice": "Needed to calculate the Exchange Market Index Total Exchange Market Value = sum of each offering market value [getMarketValue()] Exchange Market Index = sum of the product of the offering price and offering merket weigth"
      },
      "restricted()": {
        "notice": "About Rule 147 Secutrity Restrictions See https://www.sec.gov/info/smallbus/secg/intrastate-offering-exemptions-compliance-guide-041917 Securities purchased in an offering pursuant to Rule 147 or Rule 147A can only be resold to persons residing in-state for a period of six months from the date of the sale by the issuer to the purchaser.  Issuers must disclose these limitations on resale to offerees and purchasers and include appropriate legends on the certificate or document evidencing the security.  Although securities purchased in an offering pursuant to Rule 147 or Rule 147A are not considered restricted securities,  persons reselling the securities will nonetheless need to register the transaction with the Commission or have an exemption from registration under federal law"
      },
      "sell(address,uint256,uint256)": {
        "notice": "Sell is when an investor wishes to liquidate their holdings"
      },
      "validate(address,address,uint256)": {
        "notice": "INTERNAL FUNCTIONS"
      }
    },
    "version": 1
  }
}