{
  "contractName": "Reg3A11Debt",
  "abi": [
    {
      "inputs": [],
      "stateMutability": "nonpayable",
      "type": "constructor"
    },
    {
      "anonymous": false,
      "inputs": [
        {
          "indexed": false,
          "internalType": "address",
          "name": "",
          "type": "address"
        },
        {
          "indexed": false,
          "internalType": "uint256",
          "name": "",
          "type": "uint256"
        }
      ],
      "name": "BondRedeemed",
      "type": "event"
    },
    {
      "anonymous": false,
      "inputs": [
        {
          "indexed": false,
          "internalType": "address",
          "name": "",
          "type": "address"
        },
        {
          "indexed": false,
          "internalType": "uint256",
          "name": "",
          "type": "uint256"
        }
      ],
      "name": "CouponPaymentMade",
      "type": "event"
    },
    {
      "anonymous": false,
      "inputs": [
        {
          "indexed": false,
          "internalType": "bool",
          "name": "",
          "type": "bool"
        },
        {
          "indexed": false,
          "internalType": "string",
          "name": "",
          "type": "string"
        }
      ],
      "name": "TradingStatusChange",
      "type": "event"
    },
    {
      "anonymous": false,
      "inputs": [
        {
          "indexed": false,
          "internalType": "bool",
          "name": "",
          "type": "bool"
        },
        {
          "indexed": false,
          "internalType": "string",
          "name": "",
          "type": "string"
        }
      ],
      "name": "TradingStatusChanged",
      "type": "event"
    },
    {
      "anonymous": false,
      "inputs": [
        {
          "indexed": true,
          "internalType": "address",
          "name": "from",
          "type": "address"
        },
        {
          "indexed": true,
          "internalType": "address",
          "name": "to",
          "type": "address"
        },
        {
          "indexed": false,
          "internalType": "uint256",
          "name": "value",
          "type": "uint256"
        }
      ],
      "name": "Transfer",
      "type": "event"
    },
    {
      "anonymous": false,
      "inputs": [
        {
          "indexed": false,
          "internalType": "bool",
          "name": "",
          "type": "bool"
        },
        {
          "indexed": false,
          "internalType": "string",
          "name": "",
          "type": "string"
        }
      ],
      "name": "TransferStatusChange",
      "type": "event"
    },
    {
      "anonymous": false,
      "inputs": [
        {
          "indexed": false,
          "internalType": "bool",
          "name": "",
          "type": "bool"
        },
        {
          "indexed": false,
          "internalType": "string",
          "name": "",
          "type": "string"
        }
      ],
      "name": "TransferStatusChanged",
      "type": "event"
    },
    {
      "inputs": [],
      "name": "MAX_OFFERING_SHARES",
      "outputs": [
        {
          "internalType": "uint256",
          "name": "",
          "type": "uint256"
        }
      ],
      "stateMutability": "view",
      "type": "function"
    },
    {
      "inputs": [],
      "name": "OUTSTANDING_SHARES",
      "outputs": [
        {
          "internalType": "uint256",
          "name": "",
          "type": "uint256"
        }
      ],
      "stateMutability": "view",
      "type": "function"
    },
    {
      "inputs": [],
      "name": "SIXMONTHS",
      "outputs": [
        {
          "internalType": "uint256",
          "name": "",
          "type": "uint256"
        }
      ],
      "stateMutability": "view",
      "type": "function"
    },
    {
      "inputs": [],
      "name": "TRADING_ACTIVE",
      "outputs": [
        {
          "internalType": "bool",
          "name": "",
          "type": "bool"
        }
      ],
      "stateMutability": "view",
      "type": "function"
    },
    {
      "inputs": [],
      "name": "TRANSFERS_ACTIVE",
      "outputs": [
        {
          "internalType": "bool",
          "name": "",
          "type": "bool"
        }
      ],
      "stateMutability": "view",
      "type": "function"
    },
    {
      "inputs": [],
      "name": "YEAR",
      "outputs": [
        {
          "internalType": "uint256",
          "name": "",
          "type": "uint256"
        }
      ],
      "stateMutability": "view",
      "type": "function"
    },
    {
      "inputs": [],
      "name": "bondCouponRate",
      "outputs": [
        {
          "internalType": "uint256",
          "name": "",
          "type": "uint256"
        }
      ],
      "stateMutability": "view",
      "type": "function"
    },
    {
      "inputs": [
        {
          "internalType": "uint256",
          "name": "",
          "type": "uint256"
        }
      ],
      "name": "bondHolders",
      "outputs": [
        {
          "internalType": "address",
          "name": "holderAddress",
          "type": "address"
        },
        {
          "internalType": "uint256",
          "name": "investedAmount",
          "type": "uint256"
        }
      ],
      "stateMutability": "view",
      "type": "function"
    },
    {
      "inputs": [],
      "name": "bondMaturityDate",
      "outputs": [
        {
          "internalType": "uint256",
          "name": "",
          "type": "uint256"
        }
      ],
      "stateMutability": "view",
      "type": "function"
    },
    {
      "inputs": [],
      "name": "bondPrincipal",
      "outputs": [
        {
          "internalType": "uint256",
          "name": "",
          "type": "uint256"
        }
      ],
      "stateMutability": "view",
      "type": "function"
    },
    {
      "inputs": [],
      "name": "bondRating",
      "outputs": [
        {
          "internalType": "uint256",
          "name": "",
          "type": "uint256"
        }
      ],
      "stateMutability": "view",
      "type": "function"
    },
    {
      "inputs": [
        {
          "internalType": "bool",
          "name": "status",
          "type": "bool"
        },
        {
          "internalType": "string",
          "name": "reason",
          "type": "string"
        }
      ],
      "name": "changeTransferStatus",
      "outputs": [],
      "stateMutability": "nonpayable",
      "type": "function"
    },
    {
      "inputs": [],
      "name": "getMarketValue",
      "outputs": [
        {
          "internalType": "uint256",
          "name": "",
          "type": "uint256"
        }
      ],
      "stateMutability": "nonpayable",
      "type": "function"
    },
    {
      "inputs": [
        {
          "internalType": "uint256",
          "name": "totalExchangeMarketValue",
          "type": "uint256"
        }
      ],
      "name": "getMarketWeight",
      "outputs": [
        {
          "internalType": "uint256",
          "name": "",
          "type": "uint256"
        }
      ],
      "stateMutability": "nonpayable",
      "type": "function"
    },
    {
      "inputs": [],
      "name": "issuer",
      "outputs": [
        {
          "internalType": "address",
          "name": "",
          "type": "address"
        }
      ],
      "stateMutability": "view",
      "type": "function"
    },
    {
      "inputs": [],
      "name": "name",
      "outputs": [
        {
          "internalType": "string",
          "name": "",
          "type": "string"
        }
      ],
      "stateMutability": "view",
      "type": "function"
    },
    {
      "inputs": [],
      "name": "offeringType",
      "outputs": [
        {
          "internalType": "string",
          "name": "",
          "type": "string"
        }
      ],
      "stateMutability": "view",
      "type": "function"
    },
    {
      "inputs": [
        {
          "internalType": "address",
          "name": "paymentWalletAddress",
          "type": "address"
        }
      ],
      "name": "setPaymentWalletContract",
      "outputs": [],
      "stateMutability": "nonpayable",
      "type": "function"
    },
    {
      "inputs": [
        {
          "internalType": "address",
          "name": "from",
          "type": "address"
        },
        {
          "internalType": "address",
          "name": "to",
          "type": "address"
        },
        {
          "internalType": "uint256",
          "name": "tokens",
          "type": "uint256"
        }
      ],
      "name": "validate",
      "outputs": [
        {
          "internalType": "bool",
          "name": "",
          "type": "bool"
        }
      ],
      "stateMutability": "view",
      "type": "function"
    },
    {
      "inputs": [
        {
          "internalType": "address",
          "name": "from",
          "type": "address"
        },
        {
          "internalType": "address",
          "name": "to",
          "type": "address"
        },
        {
          "internalType": "uint256",
          "name": "tokens",
          "type": "uint256"
        }
      ],
      "name": "transfer",
      "outputs": [
        {
          "internalType": "bool",
          "name": "",
          "type": "bool"
        }
      ],
      "stateMutability": "nonpayable",
      "type": "function"
    },
    {
      "inputs": [
        {
          "internalType": "address",
          "name": "from",
          "type": "address"
        },
        {
          "internalType": "address",
          "name": "to",
          "type": "address"
        },
        {
          "internalType": "uint256",
          "name": "tokens",
          "type": "uint256"
        }
      ],
      "name": "transferFrom",
      "outputs": [
        {
          "internalType": "bool",
          "name": "",
          "type": "bool"
        }
      ],
      "stateMutability": "nonpayable",
      "type": "function"
    },
    {
      "inputs": [
        {
          "internalType": "address",
          "name": "wallet",
          "type": "address"
        }
      ],
      "name": "getBalanceFrom",
      "outputs": [
        {
          "internalType": "uint256",
          "name": "",
          "type": "uint256"
        }
      ],
      "stateMutability": "view",
      "type": "function"
    },
    {
      "inputs": [],
      "name": "getTradingStatus",
      "outputs": [
        {
          "internalType": "bool",
          "name": "",
          "type": "bool"
        }
      ],
      "stateMutability": "view",
      "type": "function"
    },
    {
      "inputs": [
        {
          "internalType": "bool",
          "name": "",
          "type": "bool"
        }
      ],
      "name": "changeTradingStatus",
      "outputs": [],
      "stateMutability": "nonpayable",
      "type": "function"
    },
    {
      "inputs": [
        {
          "internalType": "bool",
          "name": "status",
          "type": "bool"
        },
        {
          "internalType": "string",
          "name": "reason",
          "type": "string"
        }
      ],
      "name": "changeTradingStatus",
      "outputs": [],
      "stateMutability": "nonpayable",
      "type": "function"
    },
    {
      "inputs": [
        {
          "internalType": "address",
          "name": "wallet",
          "type": "address"
        },
        {
          "internalType": "uint256",
          "name": "tokens",
          "type": "uint256"
        },
        {
          "internalType": "uint256",
          "name": "Fee",
          "type": "uint256"
        }
      ],
      "name": "buy",
      "outputs": [],
      "stateMutability": "nonpayable",
      "type": "function"
    },
    {
      "inputs": [],
      "name": "getIssuer",
      "outputs": [
        {
          "internalType": "address",
          "name": "",
          "type": "address"
        }
      ],
      "stateMutability": "view",
      "type": "function"
    },
    {
      "inputs": [],
      "name": "getOutstandingShares",
      "outputs": [
        {
          "internalType": "uint256",
          "name": "",
          "type": "uint256"
        }
      ],
      "stateMutability": "view",
      "type": "function"
    },
    {
      "inputs": [],
      "name": "getTotalSupply",
      "outputs": [
        {
          "internalType": "uint256",
          "name": "",
          "type": "uint256"
        }
      ],
      "stateMutability": "view",
      "type": "function"
    },
    {
      "inputs": [],
      "name": "getOfferingType",
      "outputs": [
        {
          "internalType": "string",
          "name": "",
          "type": "string"
        }
      ],
      "stateMutability": "view",
      "type": "function"
    }
  ],
  "bytecode": "0x6000805461ffff19168155600181905560025560c0604052600460809081527f444542540000000000000000000000000000000000000000000000000000000060a052600a906200005190826200013d565b503480156200005f57600080fd5b5062000210565b7f4e487b7100000000000000000000000000000000000000000000000000000000600052604160045260246000fd5b600281046001821680620000aa57607f821691505b602082108103620000e4577f4e487b7100000000000000000000000000000000000000000000000000000000600052602260045260246000fd5b50919050565b601f82111562000138576000818152602081206020601f86010481016020861015620001135750805b6020601f860104820191505b8181101562000134578281556001016200011f565b5050505b505050565b815167ffffffffffffffff8111156200015a576200015a62000066565b62000172816200016b845462000095565b84620000ea565b602080601f831160018114620001ae5760008415620001915750858301515b60028086026008870290910a600019041982161786555062000134565b600085815260208120601f198616915b82811015620001df57888601518255948401946001909101908401620001be565b50858210156200020057878501516008601f88160260020a60001904191681555b5050505050600202600101905550565b610f3180620002206000396000f3fe608060405234801561001057600080fd5b506004361061016d5760e060020a600035046306fdde0381146101725780630b468fe1146101905780631d143848146101a7578063219f7e8d146101c757806323b872dd146101d057806340f0eb35146101f357806352556421146101fa578063526b13fd1461020b57806361e763641461021e57806362befb1e14610227578063636110ee1461022f578063723b4e8114610242578063752f76971461024b578063821828a31461025557806383914540146102855780638862d26a1461029057806389af2dce14610298578063973ccf0e146102ab57806397a67fe1146102dd5780639ac97560146102ea578063a1305aa5146102fd578063a59ac6dd1461030d578063a5dea8a914610320578063aa3ad4e414610333578063beabacc814610346578063bf39863114610359578063c4e41b2214610362578063cbc2bc4314610369578063de2b4e9814610362578063eaf4f2771461037b575b600080fd5b61017a610384565b6040516101879190610ab4565b60405180910390f35b61019960085481565b604051908152602001610187565b6004546101ba90600160a060020a031681565b6040516101879190610b02565b61019960065481565b6101e36101de366004610b32565b610412565b6040519015158152602001610187565b606061017a565b600454600160a060020a03166101ba565b61021c610219366004610b7e565b50565b005b61019960025481565b6101996104e4565b61021c61023d366004610b99565b6105e6565b61019960055481565b61019962ed4e0081565b61021c610263366004610c1b565b600b8054600160a060020a031916600160a060020a0392909216919091179055565b6101996301e1338081565b61017a61063a565b6101996102a6366004610c1b565b610647565b6102be6102b9366004610c36565b6106ef565b60408051600160a060020a039093168352602083019190915201610187565b6000546101e39060ff1681565b61021c6102f8366004610b99565b610727565b600054610100900460ff166101e3565b61021c61031b366004610c4f565b505050565b61019961032e366004610c36565b610769565b6101e3610341366004610b32565b610786565b6101e3610354366004610b32565b610810565b61019960015481565b6000610199565b6000546101e390610100900460ff1681565b61019960075481565b6003805461039190610c82565b80601f01602080910402602001604051908101604052809291908181526020018280546103bd90610c82565b801561040a5780601f106103df5761010080835404028352916020019161040a565b820191906000526020600020905b8154815290600101906020018083116103ed57829003601f168201915b505050505081565b600b54600090600160a060020a03166104495760405160e560020a62461bcd02815260040161044090610cc0565b60405180910390fd5b600b5460405160e160020a630d7b8b5d028152600160a060020a038681166004830152858116602483015260448201859052608060648301526003608483015260e860020a624e2f410260a483015290911690631af716ba9060c4015b600060405180830381600087803b1580156104c057600080fd5b505af11580156104d4573d6000803e3d6000fd5b50505050600190505b9392505050565b6000600654662386f26fc100006104fb9190610d1e565b60068190556005546000916064916105139190610d1e565b61051d9190610d35565b905060008061052a610945565b905060015b8181116105a9576000670de0b6b3a76400006006546005546105519190610d1e565b61055b9190610d35565b905060008261057287670de0b6b3a7640000610d5b565b61057c9190610e55565b90506105888183610d35565b6105929086610d5b565b9450505080806105a190610e61565b91505061052f565b50806105bd84670de0b6b3a7640000610d5b565b6105c79190610e55565b6005546105d49190610d35565b6105de9083610d5b565b949350505050565b6000805461ff001916610100851515021790556040517fd5d3710e87ad129534715c02a9b1de4c50bdc2faeaa8a34a0470039175e31f259061062d90859085908590610e7a565b60405180910390a1505050565b600a805461039190610c82565b600b54600090600160a060020a03166106755760405160e560020a62461bcd02815260040161044090610cc0565b600b5460405160e060020a63f8b2cb4f028152600160a060020a039091169063f8b2cb4f906106a8908590600401610b02565b602060405180830381865afa1580156106c5573d6000803e3d6000fd5b505050506040513d601f19601f820116820180604052508101906106e99190610eb2565b92915050565b600981815481106106ff57600080fd5b600091825260209091206002909102018054600190910154600160a060020a03909116915082565b6000805460ff19168415151790556040517faa4f09342ef9787b0bc3a7df0faa5f114a19a74a2f1e61dcfb504c484508f4ca9061062d90859085908590610e7a565b60006106e961077f6107796104e4565b846109cd565b6064610a34565b60008054819060ff16151581036107a557806107a181610ecb565b9150505b600160a060020a0385166107c157806107bd81610ecb565b9150505b600160a060020a0384166107dd57806107d981610ecb565b9150505b826000036107f357806107ef81610ecb565b9150505b806000036108055760019150506104dd565b506000949350505050565b6000600160a060020a03841633146108665760405160e560020a62461bcd0281526020600482015260136024820152606960020a723737ba10333937b69036b9b39739b2b73232b9026044820152606401610440565b600b54600160a060020a03166108915760405160e560020a62461bcd02815260040161044090610cc0565b600b546040805160e060020a63afc96f790281529051600160a060020a039092169163095bcdb69186918691859163afc96f79916004808201926020929091908290030181865afa1580156108ea573d6000803e3d6000fd5b505050506040513d601f19601f8201168201806040525081019061090e9190610eb2565b60405160e060020a63ffffffff8616028152600160a060020a039093166004840152602483019190915260448201526064016104a6565b60004260075410156109ab5760405160e560020a62461bcd02815260206004820152602360248201527f4d617475726974792064617465206d75737420626520696e2074686520667574604482015260e860020a62757265026064820152608401610440565b6000426007546109bb9190610ee8565b905060006104dd6301e1338083610d35565b6000808211610a215760405160e560020a62461bcd02815260206004820152601a60248201527f536166654d6174683a206469766973696f6e206279207a65726f0000000000006044820152606401610440565b600082610a2d57600080fd5b5050900490565b600082820282158382048514151715610a4c57600080fd5b82610a578583610d35565b146104dd5760405160e560020a62461bcd02815260206004820152602160248201527f536166654d6174683a206d756c7469706c69636174696f6e206f766572666c6f604482015260f860020a6077026064820152608401610440565b600060208083528351808285015260005b81811015610ae157858101830151858201604001528201610ac5565b506000604082860101526040601f19601f8301168501019250505092915050565b600160a060020a0391909116815260200190565b8035600160a060020a0381168114610b2d57600080fd5b919050565b600080600060608486031215610b4757600080fd5b610b5084610b16565b9250610b5e60208501610b16565b9150604084013590509250925092565b80358015158114610b2d57600080fd5b600060208284031215610b9057600080fd5b6104dd82610b6e565b600080600060408486031215610bae57600080fd5b610bb784610b6e565b925060208401356001604060020a0380821115610bd357600080fd5b818601915086601f830112610be757600080fd5b813581811115610bf657600080fd5b876020828501011115610c0857600080fd5b6020830194508093505050509250925092565b600060208284031215610c2d57600080fd5b6104dd82610b16565b600060208284031215610c4857600080fd5b5035919050565b600080600060608486031215610c6457600080fd5b610c6d84610b16565b95602085013595506040909401359392505050565b600281046001821680610c9657607f821691505b602082108103610cba5760e060020a634e487b710260009081526022600452602490fd5b50919050565b60208082526021908201527f5061796d656e7457616c6c657420636f6e7472616374206973206e6f74207365604082015260fa60020a601d02606082015260800190565b60e060020a634e487b710260009081526011600452602490fd5b80820281158282048414176106e9576106e9610d04565b600082610d565760e060020a634e487b710260009081526012600452602490fd5b500490565b808201808211156106e9576106e9610d04565b600181815b80851115610dab578160001904821115610d8f57610d8f610d04565b80851615610d9c57918102915b60029094049390800290610d73565b509250929050565b600082610dc2575060016106e9565b81610dcf575060006106e9565b8160018114610de55760028114610def57610e0c565b60019150506106e9565b60ff841115610e0057610e00610d04565b8360020a9150506106e9565b5060208310610133831016604e8410600b8410161715610e2f575081810a6106e9565b610e398383610d6e565b8060001904821115610e4d57610e4d610d04565b029392505050565b60006104dd8383610db3565b600060018201610e7357610e73610d04565b5060010190565b831515815260406020820152816040820152818360608301376000818301606090810191909152601f909201601f1916010192915050565b600060208284031215610ec457600080fd5b5051919050565b600060ff60020a8201610ee057610ee0610d04565b506000190190565b818103818111156106e9576106e9610d0456fea26469706673582212201dcdb39362c4b44d0a50389b3fe4b74af2cdb860b94e5e97f990de7eb78eb01464736f6c63430008120033",
  "immutableReferences": {},
  "source": "// SPDX-License-Identifier: BSL-1.1\npragma solidity >=0.4.22 <0.9.0;\n\nimport \"../../interfaces/IPaymentWallet.sol\";\nimport \"../../abstract/ADebtToken.sol\";\n\ncontract Reg3A11Debt is ADebtToken {\n    IPaymentWallet paymentWalletContract; \n\n    function setPaymentWalletContract(address paymentWalletAddress) external {\n        paymentWalletContract = IPaymentWallet(paymentWalletAddress);\n    }\n \n    constructor() {\n\n    }\n\n    function validate(address from,address to,uint tokens) external view returns (bool) {\n        int valid = 0;\n        if (TRANSFERS_ACTIVE == false) {\n            valid--;\n        }\n        if (from == address(0x0)) {\n            valid--;\n        }\n        if (to == address(0x0)) {\n            valid--;\n        }\n        if (tokens == 0) {\n            valid--;\n        }\n        if (valid == 0) {\n            return true;\n        }\n        return false;\n    } \n    function transfer(address from,address to, uint tokens)  external returns (bool) {\n        require(from == msg.sender,\"not from msg.sender\");\n        require(address(paymentWalletContract) != address(0x0),\"PaymentWallet contract is not set\");\n        paymentWalletContract.transfer(to, tokens, paymentWalletContract.getCVV());\n        return true;\n    }\n    function transferFrom(address from, address to, uint tokens)  external returns (bool) {\n        require(address(paymentWalletContract) != address(0x0),\"PaymentWallet contract is not set\");\n        paymentWalletContract.transferFrom(from, to, tokens, \"N/A\");\n        return true;\n    }\n    function getBalanceFrom(address wallet) external view returns (uint256) {\n        require(address(paymentWalletContract) != address(0x0),\"PaymentWallet contract is not set\");\n        return paymentWalletContract.getBalance(wallet);\n    }\n    function getTradingStatus() external view returns (bool) {\n        return TRADING_ACTIVE;\n    }\n    function changeTradingStatus(bool) external {\n\n    }\n\n    function buy(address wallet,uint256 tokens,uint256 Fee) external {\n\n    }\n\n    function getIssuer() external view returns (address) {\n        return issuer;\n    }\n    function getOutstandingShares() external view returns (uint256) {\n\n    }\n    function getTotalSupply() external view returns (uint256) {\n\n    }\n    function getOfferingType() external view returns (string memory) {\n\n    }\n}",
  "sourcePath": "/Volumes/My Book/projects/pingleware-contracts/contracts/finance/elmx/Reg3A11Debt.sol",
  "compiler": {
    "name": "solc",
    "version": "0.8.18+commit.87f61d96.Emscripten.clang"
  },
  "schemaVersion": "3.4.12",
  "updatedAt": "2023-10-26T20:32:53.264Z",
  "devdoc": {
    "kind": "dev",
    "methods": {},
    "version": 1
  },
  "userdoc": {
    "kind": "user",
    "methods": {},
    "version": 1
  }
}