{
  "contractName": "Reg3A11Debt",
  "abi": [
    {
      "inputs": [],
      "stateMutability": "nonpayable",
      "type": "constructor"
    },
    {
      "anonymous": false,
      "inputs": [
        {
          "indexed": false,
          "internalType": "address",
          "name": "",
          "type": "address"
        },
        {
          "indexed": false,
          "internalType": "uint256",
          "name": "",
          "type": "uint256"
        }
      ],
      "name": "BondRedeemed",
      "type": "event"
    },
    {
      "anonymous": false,
      "inputs": [
        {
          "indexed": false,
          "internalType": "address",
          "name": "",
          "type": "address"
        },
        {
          "indexed": false,
          "internalType": "uint256",
          "name": "",
          "type": "uint256"
        }
      ],
      "name": "CouponPaymentMade",
      "type": "event"
    },
    {
      "anonymous": false,
      "inputs": [
        {
          "indexed": false,
          "internalType": "bool",
          "name": "",
          "type": "bool"
        },
        {
          "indexed": false,
          "internalType": "string",
          "name": "",
          "type": "string"
        }
      ],
      "name": "TradingStatusChange",
      "type": "event"
    },
    {
      "anonymous": false,
      "inputs": [
        {
          "indexed": false,
          "internalType": "bool",
          "name": "",
          "type": "bool"
        },
        {
          "indexed": false,
          "internalType": "string",
          "name": "",
          "type": "string"
        }
      ],
      "name": "TradingStatusChanged",
      "type": "event"
    },
    {
      "anonymous": false,
      "inputs": [
        {
          "indexed": true,
          "internalType": "address",
          "name": "from",
          "type": "address"
        },
        {
          "indexed": true,
          "internalType": "address",
          "name": "to",
          "type": "address"
        },
        {
          "indexed": false,
          "internalType": "uint256",
          "name": "value",
          "type": "uint256"
        }
      ],
      "name": "Transfer",
      "type": "event"
    },
    {
      "anonymous": false,
      "inputs": [
        {
          "indexed": false,
          "internalType": "bool",
          "name": "",
          "type": "bool"
        },
        {
          "indexed": false,
          "internalType": "string",
          "name": "",
          "type": "string"
        }
      ],
      "name": "TransferStatusChange",
      "type": "event"
    },
    {
      "anonymous": false,
      "inputs": [
        {
          "indexed": false,
          "internalType": "bool",
          "name": "",
          "type": "bool"
        },
        {
          "indexed": false,
          "internalType": "string",
          "name": "",
          "type": "string"
        }
      ],
      "name": "TransferStatusChanged",
      "type": "event"
    },
    {
      "inputs": [],
      "name": "MAX_OFFERING_SHARES",
      "outputs": [
        {
          "internalType": "uint256",
          "name": "",
          "type": "uint256"
        }
      ],
      "stateMutability": "view",
      "type": "function",
      "constant": true
    },
    {
      "inputs": [],
      "name": "OUTSTANDING_SHARES",
      "outputs": [
        {
          "internalType": "uint256",
          "name": "",
          "type": "uint256"
        }
      ],
      "stateMutability": "view",
      "type": "function",
      "constant": true
    },
    {
      "inputs": [],
      "name": "SIXMONTHS",
      "outputs": [
        {
          "internalType": "uint256",
          "name": "",
          "type": "uint256"
        }
      ],
      "stateMutability": "view",
      "type": "function",
      "constant": true
    },
    {
      "inputs": [],
      "name": "TRADING_ACTIVE",
      "outputs": [
        {
          "internalType": "bool",
          "name": "",
          "type": "bool"
        }
      ],
      "stateMutability": "view",
      "type": "function",
      "constant": true
    },
    {
      "inputs": [],
      "name": "TRANSFERS_ACTIVE",
      "outputs": [
        {
          "internalType": "bool",
          "name": "",
          "type": "bool"
        }
      ],
      "stateMutability": "view",
      "type": "function",
      "constant": true
    },
    {
      "inputs": [],
      "name": "YEAR",
      "outputs": [
        {
          "internalType": "uint256",
          "name": "",
          "type": "uint256"
        }
      ],
      "stateMutability": "view",
      "type": "function",
      "constant": true
    },
    {
      "inputs": [],
      "name": "bondCouponRate",
      "outputs": [
        {
          "internalType": "uint256",
          "name": "",
          "type": "uint256"
        }
      ],
      "stateMutability": "view",
      "type": "function",
      "constant": true
    },
    {
      "inputs": [
        {
          "internalType": "uint256",
          "name": "",
          "type": "uint256"
        }
      ],
      "name": "bondHolders",
      "outputs": [
        {
          "internalType": "address",
          "name": "holderAddress",
          "type": "address"
        },
        {
          "internalType": "uint256",
          "name": "investedAmount",
          "type": "uint256"
        }
      ],
      "stateMutability": "view",
      "type": "function",
      "constant": true
    },
    {
      "inputs": [],
      "name": "bondMaturityDate",
      "outputs": [
        {
          "internalType": "uint256",
          "name": "",
          "type": "uint256"
        }
      ],
      "stateMutability": "view",
      "type": "function",
      "constant": true
    },
    {
      "inputs": [],
      "name": "bondPrincipal",
      "outputs": [
        {
          "internalType": "uint256",
          "name": "",
          "type": "uint256"
        }
      ],
      "stateMutability": "view",
      "type": "function",
      "constant": true
    },
    {
      "inputs": [],
      "name": "bondRating",
      "outputs": [
        {
          "internalType": "uint256",
          "name": "",
          "type": "uint256"
        }
      ],
      "stateMutability": "view",
      "type": "function",
      "constant": true
    },
    {
      "inputs": [
        {
          "internalType": "bool",
          "name": "status",
          "type": "bool"
        },
        {
          "internalType": "string",
          "name": "reason",
          "type": "string"
        }
      ],
      "name": "changeTransferStatus",
      "outputs": [],
      "stateMutability": "nonpayable",
      "type": "function"
    },
    {
      "inputs": [],
      "name": "getMarketValue",
      "outputs": [
        {
          "internalType": "uint256",
          "name": "",
          "type": "uint256"
        }
      ],
      "stateMutability": "nonpayable",
      "type": "function"
    },
    {
      "inputs": [
        {
          "internalType": "uint256",
          "name": "totalExchangeMarketValue",
          "type": "uint256"
        }
      ],
      "name": "getMarketWeight",
      "outputs": [
        {
          "internalType": "uint256",
          "name": "",
          "type": "uint256"
        }
      ],
      "stateMutability": "nonpayable",
      "type": "function"
    },
    {
      "inputs": [],
      "name": "issuer",
      "outputs": [
        {
          "internalType": "address",
          "name": "",
          "type": "address"
        }
      ],
      "stateMutability": "view",
      "type": "function",
      "constant": true
    },
    {
      "inputs": [],
      "name": "name",
      "outputs": [
        {
          "internalType": "string",
          "name": "",
          "type": "string"
        }
      ],
      "stateMutability": "view",
      "type": "function",
      "constant": true
    },
    {
      "inputs": [],
      "name": "offeringType",
      "outputs": [
        {
          "internalType": "string",
          "name": "",
          "type": "string"
        }
      ],
      "stateMutability": "view",
      "type": "function",
      "constant": true
    },
    {
      "inputs": [
        {
          "internalType": "address",
          "name": "from",
          "type": "address"
        },
        {
          "internalType": "address",
          "name": "to",
          "type": "address"
        },
        {
          "internalType": "uint256",
          "name": "tokens",
          "type": "uint256"
        }
      ],
      "name": "validate",
      "outputs": [
        {
          "internalType": "bool",
          "name": "",
          "type": "bool"
        }
      ],
      "stateMutability": "view",
      "type": "function",
      "constant": true
    },
    {
      "inputs": [
        {
          "internalType": "address",
          "name": "from",
          "type": "address"
        },
        {
          "internalType": "address",
          "name": "to",
          "type": "address"
        },
        {
          "internalType": "uint256",
          "name": "tokens",
          "type": "uint256"
        }
      ],
      "name": "transfer",
      "outputs": [
        {
          "internalType": "bool",
          "name": "",
          "type": "bool"
        }
      ],
      "stateMutability": "nonpayable",
      "type": "function"
    },
    {
      "inputs": [
        {
          "internalType": "address",
          "name": "from",
          "type": "address"
        },
        {
          "internalType": "address",
          "name": "to",
          "type": "address"
        },
        {
          "internalType": "uint256",
          "name": "tokens",
          "type": "uint256"
        }
      ],
      "name": "transferFrom",
      "outputs": [
        {
          "internalType": "bool",
          "name": "",
          "type": "bool"
        }
      ],
      "stateMutability": "nonpayable",
      "type": "function"
    },
    {
      "inputs": [
        {
          "internalType": "address",
          "name": "wallet",
          "type": "address"
        }
      ],
      "name": "getBalanceFrom",
      "outputs": [
        {
          "internalType": "uint256",
          "name": "",
          "type": "uint256"
        }
      ],
      "stateMutability": "view",
      "type": "function",
      "constant": true
    },
    {
      "inputs": [],
      "name": "getTradingStatus",
      "outputs": [
        {
          "internalType": "bool",
          "name": "",
          "type": "bool"
        }
      ],
      "stateMutability": "view",
      "type": "function",
      "constant": true
    },
    {
      "inputs": [
        {
          "internalType": "bool",
          "name": "",
          "type": "bool"
        }
      ],
      "name": "changeTradingStatus",
      "outputs": [],
      "stateMutability": "nonpayable",
      "type": "function"
    },
    {
      "inputs": [
        {
          "internalType": "bool",
          "name": "status",
          "type": "bool"
        },
        {
          "internalType": "string",
          "name": "reason",
          "type": "string"
        }
      ],
      "name": "changeTradingStatus",
      "outputs": [],
      "stateMutability": "nonpayable",
      "type": "function"
    },
    {
      "inputs": [
        {
          "internalType": "address",
          "name": "wallet",
          "type": "address"
        },
        {
          "internalType": "uint256",
          "name": "tokens",
          "type": "uint256"
        },
        {
          "internalType": "uint256",
          "name": "Fee",
          "type": "uint256"
        }
      ],
      "name": "buy",
      "outputs": [],
      "stateMutability": "nonpayable",
      "type": "function"
    },
    {
      "inputs": [],
      "name": "getIssuer",
      "outputs": [
        {
          "internalType": "address",
          "name": "",
          "type": "address"
        }
      ],
      "stateMutability": "view",
      "type": "function",
      "constant": true
    },
    {
      "inputs": [],
      "name": "getOutstandingShares",
      "outputs": [
        {
          "internalType": "uint256",
          "name": "",
          "type": "uint256"
        }
      ],
      "stateMutability": "view",
      "type": "function",
      "constant": true
    },
    {
      "inputs": [],
      "name": "getTotalSupply",
      "outputs": [
        {
          "internalType": "uint256",
          "name": "",
          "type": "uint256"
        }
      ],
      "stateMutability": "view",
      "type": "function",
      "constant": true
    },
    {
      "inputs": [],
      "name": "getOfferingType",
      "outputs": [
        {
          "internalType": "string",
          "name": "",
          "type": "string"
        }
      ],
      "stateMutability": "view",
      "type": "function",
      "constant": true
    }
  ],
  "bytecode": "0x6000805461ffff19168155600181905560025560c0604052600460809081527f444542540000000000000000000000000000000000000000000000000000000060a052600a906200005190826200013d565b503480156200005f57600080fd5b5062000210565b7f4e487b7100000000000000000000000000000000000000000000000000000000600052604160045260246000fd5b600281046001821680620000aa57607f821691505b602082108103620000e4577f4e487b7100000000000000000000000000000000000000000000000000000000600052602260045260246000fd5b50919050565b601f82111562000138576000818152602081206020601f86010481016020861015620001135750805b6020601f860104820191505b8181101562000134578281556001016200011f565b5050505b505050565b815167ffffffffffffffff8111156200015a576200015a62000066565b62000172816200016b845462000095565b84620000ea565b602080601f831160018114620001ae5760008415620001915750858301515b60028086026008870290910a600019041982161786555062000134565b600085815260208120601f198616915b82811015620001df57888601518255948401946001909101908401620001be565b50858210156200020057878501516008601f88160260020a60001904191681555b5050505050600202600101905550565b610dae80620002206000396000f3fe608060405234801561001057600080fd5b50600436106101625760e060020a600035046306fdde0381146101675780630b468fe1146101855780631d1438481461019c578063219f7e8d146101c757806323b872dd146101d057806340f0eb35146101f357806352556421146101fa578063526b13fd1461020b57806361e763641461021e57806362befb1e14610227578063636110ee1461022f578063723b4e8114610242578063752f76971461024b57806383914540146102555780638862d26a1461026057806389af2dce14610268578063973ccf0e1461027b57806397a67fe1146102ad5780639ac97560146102ba578063a1305aa5146102cd578063a59ac6dd146102dd578063a5dea8a9146102f0578063aa3ad4e414610303578063beabacc814610316578063bf39863114610329578063c4e41b2214610332578063cbc2bc4314610339578063de2b4e9814610332578063eaf4f2771461034b575b600080fd5b61016f610354565b60405161017c9190610989565b60405180910390f35b61018e60085481565b60405190815260200161017c565b6004546101af90600160a060020a031681565b604051600160a060020a03909116815260200161017c565b61018e60065481565b6101e36101de3660046109f3565b6103e2565b604051901515815260200161017c565b606061016f565b600454600160a060020a03166101af565b61021c610219366004610a3f565b50565b005b61018e60025481565b61018e610475565b61021c61023d366004610a5a565b610577565b61018e60055481565b61018e62ed4e0081565b61018e6301e1338081565b61016f6105cb565b61018e610276366004610adc565b6105d8565b61028e610289366004610af7565b610645565b60408051600160a060020a03909316835260208301919091520161017c565b6000546101e39060ff1681565b61021c6102c8366004610a5a565b61067d565b600054610100900460ff166101e3565b61021c6102eb366004610b10565b505050565b61018e6102fe366004610af7565b6106bf565b6101e36103113660046109f3565b6106dc565b6101e36103243660046109f3565b610766565b61018e60015481565b600061018e565b6000546101e390610100900460ff1681565b61018e60075481565b6003805461036190610b43565b80601f016020809104026020016040519081016040528092919081815260200182805461038d90610b43565b80156103da5780601f106103af576101008083540402835291602001916103da565b820191906000526020600020905b8154815290600101906020018083116103bd57829003601f168201915b505050505081565b60405160e060020a63d6fcb04b028152600160a060020a03838116600483015260248201839052606060448301526003606483015260e860020a624e2f410260848301526000919085169063d6fcb04b9060a4015b600060405180830381600087803b15801561045157600080fd5b505af1158015610465573d6000803e3d6000fd5b50505050600190505b9392505050565b6000600654662386f26fc1000061048c9190610b9b565b60068190556005546000916064916104a49190610b9b565b6104ae9190610bb2565b90506000806104bb610815565b905060015b81811161053a576000670de0b6b3a76400006006546005546104e29190610b9b565b6104ec9190610bb2565b905060008261050387670de0b6b3a7640000610bd8565b61050d9190610cd2565b90506105198183610bb2565b6105239086610bd8565b94505050808061053290610cde565b9150506104c0565b508061054e84670de0b6b3a7640000610bd8565b6105589190610cd2565b6005546105659190610bb2565b61056f9083610bd8565b949350505050565b6000805461ff001916610100851515021790556040517fd5d3710e87ad129534715c02a9b1de4c50bdc2faeaa8a34a0470039175e31f25906105be90859085908590610cf7565b60405180910390a1505050565b600a805461036190610b43565b600081600160a060020a03166312065fe06040518163ffffffff1660e060020a028152600401602060405180830381865afa15801561061b573d6000803e3d6000fd5b505050506040513d601f19601f8201168201806040525081019061063f9190610d2f565b92915050565b6009818154811061065557600080fd5b600091825260209091206002909102018054600190910154600160a060020a03909116915082565b6000805460ff19168415151790556040517faa4f09342ef9787b0bc3a7df0faa5f114a19a74a2f1e61dcfb504c484508f4ca906105be90859085908590610cf7565b600061063f6106d56106cf610475565b846108a2565b6064610909565b60008054819060ff16151581036106fb57806106f781610d48565b9150505b600160a060020a038516610717578061071381610d48565b9150505b600160a060020a038416610733578061072f81610d48565b9150505b82600003610749578061074581610d48565b9150505b8060000361075b57600191505061046e565b506000949350505050565b600083600160a060020a031663095bcdb6848487600160a060020a031663afc96f796040518163ffffffff1660e060020a028152600401602060405180830381865afa1580156107ba573d6000803e3d6000fd5b505050506040513d601f19601f820116820180604052508101906107de9190610d2f565b60405160e060020a63ffffffff8616028152600160a060020a03909316600484015260248301919091526044820152606401610437565b60004260075410156108805760405160e560020a62461bcd02815260206004820152602360248201527f4d617475726974792064617465206d75737420626520696e2074686520667574604482015260e860020a627572650260648201526084015b60405180910390fd5b6000426007546108909190610d65565b9050600061046e6301e1338083610bb2565b60008082116108f65760405160e560020a62461bcd02815260206004820152601a60248201527f536166654d6174683a206469766973696f6e206279207a65726f0000000000006044820152606401610877565b60008261090257600080fd5b5050900490565b60008282028215838204851415171561092157600080fd5b8261092c8583610bb2565b1461046e5760405160e560020a62461bcd02815260206004820152602160248201527f536166654d6174683a206d756c7469706c69636174696f6e206f766572666c6f604482015260f860020a6077026064820152608401610877565b600060208083528351808285015260005b818110156109b65785810183015185820160400152820161099a565b506000604082860101526040601f19601f8301168501019250505092915050565b8035600160a060020a03811681146109ee57600080fd5b919050565b600080600060608486031215610a0857600080fd5b610a11846109d7565b9250610a1f602085016109d7565b9150604084013590509250925092565b803580151581146109ee57600080fd5b600060208284031215610a5157600080fd5b61046e82610a2f565b600080600060408486031215610a6f57600080fd5b610a7884610a2f565b925060208401356001604060020a0380821115610a9457600080fd5b818601915086601f830112610aa857600080fd5b813581811115610ab757600080fd5b876020828501011115610ac957600080fd5b6020830194508093505050509250925092565b600060208284031215610aee57600080fd5b61046e826109d7565b600060208284031215610b0957600080fd5b5035919050565b600080600060608486031215610b2557600080fd5b610b2e846109d7565b95602085013595506040909401359392505050565b600281046001821680610b5757607f821691505b602082108103610b7b5760e060020a634e487b710260009081526022600452602490fd5b50919050565b60e060020a634e487b710260009081526011600452602490fd5b808202811582820484141761063f5761063f610b81565b600082610bd35760e060020a634e487b710260009081526012600452602490fd5b500490565b8082018082111561063f5761063f610b81565b600181815b80851115610c28578160001904821115610c0c57610c0c610b81565b80851615610c1957918102915b60029094049390800290610bf0565b509250929050565b600082610c3f5750600161063f565b81610c4c5750600061063f565b8160018114610c625760028114610c6c57610c89565b600191505061063f565b60ff841115610c7d57610c7d610b81565b8360020a91505061063f565b5060208310610133831016604e8410600b8410161715610cac575081810a61063f565b610cb68383610beb565b8060001904821115610cca57610cca610b81565b029392505050565b600061046e8383610c30565b600060018201610cf057610cf0610b81565b5060010190565b831515815260406020820152816040820152818360608301376000818301606090810191909152601f909201601f1916010192915050565b600060208284031215610d4157600080fd5b5051919050565b600060ff60020a8201610d5d57610d5d610b81565b506000190190565b8181038181111561063f5761063f610b8156fea264697066735822122033192ca3198c85072a8f6ce54ac81c7bf94de4479b84d6d9fd92fb0bc92e5d5664736f6c63430008120033",
  "immutableReferences": {},
  "source": "// SPDX-License-Identifier: BSL-1.1\npragma solidity >=0.4.22 <0.9.0;\n\nimport \"../../interfaces/IPaymentWallet.sol\";\nimport \"../../abstract/ADebtToken.sol\";\n\ncontract Reg3A11Debt is ADebtToken {\n \n    constructor() {\n\n    }\n\n    function validate(address from,address to,uint tokens) external view returns (bool) {\n        int valid = 0;\n        if (TRANSFERS_ACTIVE == false) {\n            valid--;\n        }\n        if (from == address(0x0)) {\n            valid--;\n        }\n        if (to == address(0x0)) {\n            valid--;\n        }\n        if (tokens == 0) {\n            valid--;\n        }\n        if (valid == 0) {\n            return true;\n        }\n        return false;\n    }\n    function transfer(address from,address to, uint tokens)  external returns (bool) {\n        IPaymentWallet(from).transfer(to, tokens, IPaymentWallet(from).getCVV());\n        return true;\n    }\n    function transferFrom(address from, address to, uint tokens)  external returns (bool) {\n        IPaymentWallet(from).transferFrom(to, tokens, \"N/A\");\n        return true;\n    }\n    function getBalanceFrom(address wallet) external view returns (uint256) {\n        return IPaymentWallet(wallet).getBalance();\n    }\n    function getTradingStatus() external view returns (bool) {\n        return TRADING_ACTIVE;\n    }\n    function changeTradingStatus(bool) external {\n\n    }\n\n    function buy(address wallet,uint256 tokens,uint256 Fee) external {\n\n    }\n\n    function getIssuer() external view returns (address) {\n        return issuer;\n    }\n    function getOutstandingShares() external view returns (uint256) {\n\n    }\n    function getTotalSupply() external view returns (uint256) {\n\n    }\n    function getOfferingType() external view returns (string memory) {\n\n    }\n}",
  "sourcePath": "/Volumes/My Book/projects/pingleware-contracts/contracts/finance/elmx/Reg3A11Debt.sol",
  "compiler": {
    "name": "solc",
    "version": "0.8.18+commit.87f61d96.Emscripten.clang"
  },
  "schemaVersion": "3.4.12",
  "updatedAt": "2023-10-24T12:19:19.959Z",
  "networkType": "ethereum",
  "devdoc": {
    "kind": "dev",
    "methods": {},
    "version": 1
  },
  "userdoc": {
    "kind": "user",
    "methods": {},
    "version": 1
  }
}