{
  "contractName": "RegAT1Debt",
  "abi": [
    {
      "anonymous": false,
      "inputs": [
        {
          "indexed": false,
          "internalType": "address",
          "name": "",
          "type": "address"
        },
        {
          "indexed": false,
          "internalType": "uint256",
          "name": "",
          "type": "uint256"
        }
      ],
      "name": "BondRedeemed",
      "type": "event"
    },
    {
      "anonymous": false,
      "inputs": [
        {
          "indexed": false,
          "internalType": "address",
          "name": "",
          "type": "address"
        },
        {
          "indexed": false,
          "internalType": "uint256",
          "name": "",
          "type": "uint256"
        }
      ],
      "name": "CouponPaymentMade",
      "type": "event"
    },
    {
      "anonymous": false,
      "inputs": [
        {
          "indexed": false,
          "internalType": "bool",
          "name": "",
          "type": "bool"
        },
        {
          "indexed": false,
          "internalType": "string",
          "name": "",
          "type": "string"
        }
      ],
      "name": "TradingStatusChange",
      "type": "event"
    },
    {
      "anonymous": false,
      "inputs": [
        {
          "indexed": false,
          "internalType": "bool",
          "name": "",
          "type": "bool"
        },
        {
          "indexed": false,
          "internalType": "string",
          "name": "",
          "type": "string"
        }
      ],
      "name": "TradingStatusChanged",
      "type": "event"
    },
    {
      "anonymous": false,
      "inputs": [
        {
          "indexed": true,
          "internalType": "address",
          "name": "from",
          "type": "address"
        },
        {
          "indexed": true,
          "internalType": "address",
          "name": "to",
          "type": "address"
        },
        {
          "indexed": false,
          "internalType": "uint256",
          "name": "value",
          "type": "uint256"
        }
      ],
      "name": "Transfer",
      "type": "event"
    },
    {
      "anonymous": false,
      "inputs": [
        {
          "indexed": false,
          "internalType": "bool",
          "name": "",
          "type": "bool"
        },
        {
          "indexed": false,
          "internalType": "string",
          "name": "",
          "type": "string"
        }
      ],
      "name": "TransferStatusChange",
      "type": "event"
    },
    {
      "anonymous": false,
      "inputs": [
        {
          "indexed": false,
          "internalType": "bool",
          "name": "",
          "type": "bool"
        },
        {
          "indexed": false,
          "internalType": "string",
          "name": "",
          "type": "string"
        }
      ],
      "name": "TransferStatusChanged",
      "type": "event"
    },
    {
      "inputs": [],
      "name": "MAX_OFFERING_SHARES",
      "outputs": [
        {
          "internalType": "uint256",
          "name": "",
          "type": "uint256"
        }
      ],
      "stateMutability": "view",
      "type": "function"
    },
    {
      "inputs": [],
      "name": "OUTSTANDING_SHARES",
      "outputs": [
        {
          "internalType": "uint256",
          "name": "",
          "type": "uint256"
        }
      ],
      "stateMutability": "view",
      "type": "function"
    },
    {
      "inputs": [],
      "name": "SIXMONTHS",
      "outputs": [
        {
          "internalType": "uint256",
          "name": "",
          "type": "uint256"
        }
      ],
      "stateMutability": "view",
      "type": "function"
    },
    {
      "inputs": [],
      "name": "TRADING_ACTIVE",
      "outputs": [
        {
          "internalType": "bool",
          "name": "",
          "type": "bool"
        }
      ],
      "stateMutability": "view",
      "type": "function"
    },
    {
      "inputs": [],
      "name": "TRANSFERS_ACTIVE",
      "outputs": [
        {
          "internalType": "bool",
          "name": "",
          "type": "bool"
        }
      ],
      "stateMutability": "view",
      "type": "function"
    },
    {
      "inputs": [],
      "name": "YEAR",
      "outputs": [
        {
          "internalType": "uint256",
          "name": "",
          "type": "uint256"
        }
      ],
      "stateMutability": "view",
      "type": "function"
    },
    {
      "inputs": [],
      "name": "bondCouponRate",
      "outputs": [
        {
          "internalType": "uint256",
          "name": "",
          "type": "uint256"
        }
      ],
      "stateMutability": "view",
      "type": "function"
    },
    {
      "inputs": [
        {
          "internalType": "uint256",
          "name": "",
          "type": "uint256"
        }
      ],
      "name": "bondHolders",
      "outputs": [
        {
          "internalType": "address",
          "name": "holderAddress",
          "type": "address"
        },
        {
          "internalType": "uint256",
          "name": "investedAmount",
          "type": "uint256"
        }
      ],
      "stateMutability": "view",
      "type": "function"
    },
    {
      "inputs": [],
      "name": "bondMaturityDate",
      "outputs": [
        {
          "internalType": "uint256",
          "name": "",
          "type": "uint256"
        }
      ],
      "stateMutability": "view",
      "type": "function"
    },
    {
      "inputs": [],
      "name": "bondPrincipal",
      "outputs": [
        {
          "internalType": "uint256",
          "name": "",
          "type": "uint256"
        }
      ],
      "stateMutability": "view",
      "type": "function"
    },
    {
      "inputs": [],
      "name": "bondRating",
      "outputs": [
        {
          "internalType": "uint256",
          "name": "",
          "type": "uint256"
        }
      ],
      "stateMutability": "view",
      "type": "function"
    },
    {
      "inputs": [
        {
          "internalType": "bool",
          "name": "status",
          "type": "bool"
        },
        {
          "internalType": "string",
          "name": "reason",
          "type": "string"
        }
      ],
      "name": "changeTradingStatus",
      "outputs": [],
      "stateMutability": "nonpayable",
      "type": "function"
    },
    {
      "inputs": [
        {
          "internalType": "bool",
          "name": "status",
          "type": "bool"
        },
        {
          "internalType": "string",
          "name": "reason",
          "type": "string"
        }
      ],
      "name": "changeTransferStatus",
      "outputs": [],
      "stateMutability": "nonpayable",
      "type": "function"
    },
    {
      "inputs": [],
      "name": "getMarketValue",
      "outputs": [
        {
          "internalType": "uint256",
          "name": "",
          "type": "uint256"
        }
      ],
      "stateMutability": "nonpayable",
      "type": "function"
    },
    {
      "inputs": [
        {
          "internalType": "uint256",
          "name": "totalExchangeMarketValue",
          "type": "uint256"
        }
      ],
      "name": "getMarketWeight",
      "outputs": [
        {
          "internalType": "uint256",
          "name": "",
          "type": "uint256"
        }
      ],
      "stateMutability": "nonpayable",
      "type": "function"
    },
    {
      "inputs": [],
      "name": "issuer",
      "outputs": [
        {
          "internalType": "address",
          "name": "",
          "type": "address"
        }
      ],
      "stateMutability": "view",
      "type": "function"
    },
    {
      "inputs": [],
      "name": "name",
      "outputs": [
        {
          "internalType": "string",
          "name": "",
          "type": "string"
        }
      ],
      "stateMutability": "view",
      "type": "function"
    },
    {
      "inputs": [],
      "name": "offeringType",
      "outputs": [
        {
          "internalType": "string",
          "name": "",
          "type": "string"
        }
      ],
      "stateMutability": "view",
      "type": "function"
    },
    {
      "inputs": [
        {
          "internalType": "address",
          "name": "paymentWalletAddress",
          "type": "address"
        }
      ],
      "name": "setPaymentWalletContract",
      "outputs": [],
      "stateMutability": "nonpayable",
      "type": "function"
    },
    {
      "inputs": [
        {
          "internalType": "address",
          "name": "from",
          "type": "address"
        },
        {
          "internalType": "address",
          "name": "to",
          "type": "address"
        },
        {
          "internalType": "uint256",
          "name": "tokens",
          "type": "uint256"
        }
      ],
      "name": "validate",
      "outputs": [
        {
          "internalType": "bool",
          "name": "",
          "type": "bool"
        }
      ],
      "stateMutability": "view",
      "type": "function"
    },
    {
      "inputs": [
        {
          "internalType": "address",
          "name": "from",
          "type": "address"
        },
        {
          "internalType": "address",
          "name": "to",
          "type": "address"
        },
        {
          "internalType": "uint256",
          "name": "tokens",
          "type": "uint256"
        }
      ],
      "name": "transfer",
      "outputs": [
        {
          "internalType": "bool",
          "name": "",
          "type": "bool"
        }
      ],
      "stateMutability": "nonpayable",
      "type": "function"
    },
    {
      "inputs": [
        {
          "internalType": "address",
          "name": "from",
          "type": "address"
        },
        {
          "internalType": "address",
          "name": "to",
          "type": "address"
        },
        {
          "internalType": "uint256",
          "name": "tokens",
          "type": "uint256"
        }
      ],
      "name": "transferFrom",
      "outputs": [
        {
          "internalType": "bool",
          "name": "",
          "type": "bool"
        }
      ],
      "stateMutability": "nonpayable",
      "type": "function"
    },
    {
      "inputs": [
        {
          "internalType": "address",
          "name": "wallet",
          "type": "address"
        }
      ],
      "name": "getBalanceFrom",
      "outputs": [
        {
          "internalType": "uint256",
          "name": "",
          "type": "uint256"
        }
      ],
      "stateMutability": "view",
      "type": "function"
    },
    {
      "inputs": [],
      "name": "getTradingStatus",
      "outputs": [
        {
          "internalType": "bool",
          "name": "",
          "type": "bool"
        }
      ],
      "stateMutability": "view",
      "type": "function"
    },
    {
      "inputs": [
        {
          "internalType": "address",
          "name": "wallet",
          "type": "address"
        },
        {
          "internalType": "uint256",
          "name": "tokens",
          "type": "uint256"
        },
        {
          "internalType": "uint256",
          "name": "Fee",
          "type": "uint256"
        }
      ],
      "name": "buy",
      "outputs": [],
      "stateMutability": "nonpayable",
      "type": "function"
    },
    {
      "inputs": [],
      "name": "getIssuer",
      "outputs": [
        {
          "internalType": "address",
          "name": "",
          "type": "address"
        }
      ],
      "stateMutability": "view",
      "type": "function"
    },
    {
      "inputs": [],
      "name": "getOutstandingShares",
      "outputs": [
        {
          "internalType": "uint256",
          "name": "",
          "type": "uint256"
        }
      ],
      "stateMutability": "view",
      "type": "function"
    },
    {
      "inputs": [],
      "name": "getTotalSupply",
      "outputs": [
        {
          "internalType": "uint256",
          "name": "",
          "type": "uint256"
        }
      ],
      "stateMutability": "view",
      "type": "function"
    },
    {
      "inputs": [],
      "name": "getOfferingType",
      "outputs": [
        {
          "internalType": "string",
          "name": "",
          "type": "string"
        }
      ],
      "stateMutability": "view",
      "type": "function"
    }
  ],
  "bytecode": "0x6000805461ffff19168155600181905560025560c0604052600460809081527f444542540000000000000000000000000000000000000000000000000000000060a052600a906200005190826200013d565b503480156200005f57600080fd5b5062000210565b7f4e487b7100000000000000000000000000000000000000000000000000000000600052604160045260246000fd5b600281046001821680620000aa57607f821691505b602082108103620000e4577f4e487b7100000000000000000000000000000000000000000000000000000000600052602260045260246000fd5b50919050565b601f82111562000138576000818152602081206020601f86010481016020861015620001135750805b6020601f860104820191505b8181101562000134578281556001016200011f565b5050505b505050565b815167ffffffffffffffff8111156200015a576200015a62000066565b62000172816200016b845462000095565b84620000ea565b602080601f831160018114620001ae5760008415620001915750858301515b60028086026008870290910a600019041982161786555062000134565b600085815260208120601f198616915b82811015620001df57888601518255948401946001909101908401620001be565b50858210156200020057878501516008601f88160260020a60001904191681555b5050505050600202600101905550565b610f8c80620002206000396000f3fe608060405234801561001057600080fd5b50600436106101625760e060020a600035046306fdde0381146101675780630b468fe1146101855780631d1438481461019c578063219f7e8d146101bc57806323b872dd146101c557806340f0eb35146101e857806352556421146101f057806361e763641461020157806362befb1e1461020a578063636110ee14610212578063723b4e8114610227578063752f769714610230578063821828a31461023a578063839145401461026a5780638862d26a1461027557806389af2dce1461027d578063973ccf0e1461029057806397a67fe1146102c25780639ac97560146102cf578063a1305aa5146102e2578063a59ac6dd146102f2578063a5dea8a914610305578063aa3ad4e414610318578063beabacc81461032b578063bf3986311461033e578063c4e41b2214610347578063cbc2bc431461034e578063de2b4e9814610360578063eaf4f27714610368575b600080fd5b61016f610371565b60405161017c9190610b33565b60405180910390f35b61018e60085481565b60405190815260200161017c565b6004546101af90600160a060020a031681565b60405161017c9190610b81565b61018e60065481565b6101d86101d3366004610bb1565b6103ff565b604051901515815260200161017c565b61016f6104d1565b600454600160a060020a03166101af565b61018e60025481565b61018e610563565b610225610220366004610bed565b610665565b005b61018e60055481565b61018e62ed4e0081565b610225610248366004610c76565b600b8054600160a060020a031916600160a060020a0392909216919091179055565b61018e6301e1338081565b61016f6106b9565b61018e61028b366004610c76565b6106c6565b6102a361029e366004610c91565b61076e565b60408051600160a060020a03909316835260208301919091520161017c565b6000546101d89060ff1681565b6102256102dd366004610bed565b6107a6565b600054610100900460ff166101d8565b610225610300366004610caa565b505050565b61018e610313366004610c91565b6107e8565b6101d8610326366004610bb1565b610805565b6101d8610339366004610bb1565b61088f565b61018e60015481565b600061018e565b6000546101d890610100900460ff1681565b60015461018e565b61018e60075481565b6003805461037e90610cdd565b80601f01602080910402602001604051908101604052809291908181526020018280546103aa90610cdd565b80156103f75780601f106103cc576101008083540402835291602001916103f7565b820191906000526020600020905b8154815290600101906020018083116103da57829003601f168201915b505050505081565b600b54600090600160a060020a03166104365760405160e560020a62461bcd02815260040161042d90610d1b565b60405180910390fd5b600b5460405160e160020a630d7b8b5d028152600160a060020a038681166004830152858116602483015260448201859052608060648301526003608483015260e860020a624e2f410260a483015290911690631af716ba9060c4015b600060405180830381600087803b1580156104ad57600080fd5b505af11580156104c1573d6000803e3d6000fd5b50505050600190505b9392505050565b6060600a80546104e090610cdd565b80601f016020809104026020016040519081016040528092919081815260200182805461050c90610cdd565b80156105595780601f1061052e57610100808354040283529160200191610559565b820191906000526020600020905b81548152906001019060200180831161053c57829003601f168201915b5050505050905090565b6000600654662386f26fc1000061057a9190610d79565b60068190556005546000916064916105929190610d79565b61059c9190610d90565b90506000806105a96109c4565b905060015b818111610628576000670de0b6b3a76400006006546005546105d09190610d79565b6105da9190610d90565b90506000826105f187670de0b6b3a7640000610db6565b6105fb9190610eb0565b90506106078183610d90565b6106119086610db6565b94505050808061062090610ebc565b9150506105ae565b508061063c84670de0b6b3a7640000610db6565b6106469190610eb0565b6005546106539190610d90565b61065d9083610db6565b949350505050565b6000805461ff001916610100851515021790556040517fd5d3710e87ad129534715c02a9b1de4c50bdc2faeaa8a34a0470039175e31f25906106ac90859085908590610ed5565b60405180910390a1505050565b600a805461037e90610cdd565b600b54600090600160a060020a03166106f45760405160e560020a62461bcd02815260040161042d90610d1b565b600b5460405160e060020a63f8b2cb4f028152600160a060020a039091169063f8b2cb4f90610727908590600401610b81565b602060405180830381865afa158015610744573d6000803e3d6000fd5b505050506040513d601f19601f820116820180604052508101906107689190610f0d565b92915050565b6009818154811061077e57600080fd5b600091825260209091206002909102018054600190910154600160a060020a03909116915082565b6000805460ff19168415151790556040517faa4f09342ef9787b0bc3a7df0faa5f114a19a74a2f1e61dcfb504c484508f4ca906106ac90859085908590610ed5565b60006107686107fe6107f8610563565b84610a4c565b6064610ab3565b60008054819060ff1615158103610824578061082081610f26565b9150505b600160a060020a038516610840578061083c81610f26565b9150505b600160a060020a03841661085c578061085881610f26565b9150505b82600003610872578061086e81610f26565b9150505b806000036108845760019150506104ca565b506000949350505050565b6000600160a060020a03841633146108e55760405160e560020a62461bcd0281526020600482015260136024820152606960020a723737ba10333937b69036b9b39739b2b73232b902604482015260640161042d565b600b54600160a060020a03166109105760405160e560020a62461bcd02815260040161042d90610d1b565b600b546040805160e060020a63afc96f790281529051600160a060020a039092169163095bcdb69186918691859163afc96f79916004808201926020929091908290030181865afa158015610969573d6000803e3d6000fd5b505050506040513d601f19601f8201168201806040525081019061098d9190610f0d565b60405160e060020a63ffffffff8616028152600160a060020a03909316600484015260248301919091526044820152606401610493565b6000426007541015610a2a5760405160e560020a62461bcd02815260206004820152602360248201527f4d617475726974792064617465206d75737420626520696e2074686520667574604482015260e860020a6275726502606482015260840161042d565b600042600754610a3a9190610f43565b905060006104ca6301e1338083610d90565b6000808211610aa05760405160e560020a62461bcd02815260206004820152601a60248201527f536166654d6174683a206469766973696f6e206279207a65726f000000000000604482015260640161042d565b600082610aac57600080fd5b5050900490565b600082820282158382048514151715610acb57600080fd5b82610ad68583610d90565b146104ca5760405160e560020a62461bcd02815260206004820152602160248201527f536166654d6174683a206d756c7469706c69636174696f6e206f766572666c6f604482015260f860020a607702606482015260840161042d565b600060208083528351808285015260005b81811015610b6057858101830151858201604001528201610b44565b506000604082860101526040601f19601f8301168501019250505092915050565b600160a060020a0391909116815260200190565b8035600160a060020a0381168114610bac57600080fd5b919050565b600080600060608486031215610bc657600080fd5b610bcf84610b95565b9250610bdd60208501610b95565b9150604084013590509250925092565b600080600060408486031215610c0257600080fd5b83358015158114610c1257600080fd5b925060208401356001604060020a0380821115610c2e57600080fd5b818601915086601f830112610c4257600080fd5b813581811115610c5157600080fd5b876020828501011115610c6357600080fd5b6020830194508093505050509250925092565b600060208284031215610c8857600080fd5b6104ca82610b95565b600060208284031215610ca357600080fd5b5035919050565b600080600060608486031215610cbf57600080fd5b610cc884610b95565b95602085013595506040909401359392505050565b600281046001821680610cf157607f821691505b602082108103610d155760e060020a634e487b710260009081526022600452602490fd5b50919050565b60208082526021908201527f5061796d656e7457616c6c657420636f6e7472616374206973206e6f74207365604082015260fa60020a601d02606082015260800190565b60e060020a634e487b710260009081526011600452602490fd5b808202811582820484141761076857610768610d5f565b600082610db15760e060020a634e487b710260009081526012600452602490fd5b500490565b8082018082111561076857610768610d5f565b600181815b80851115610e06578160001904821115610dea57610dea610d5f565b80851615610df757918102915b60029094049390800290610dce565b509250929050565b600082610e1d57506001610768565b81610e2a57506000610768565b8160018114610e405760028114610e4a57610e67565b6001915050610768565b60ff841115610e5b57610e5b610d5f565b8360020a915050610768565b5060208310610133831016604e8410600b8410161715610e8a575081810a610768565b610e948383610dc9565b8060001904821115610ea857610ea8610d5f565b029392505050565b60006104ca8383610e0e565b600060018201610ece57610ece610d5f565b5060010190565b831515815260406020820152816040820152818360608301376000818301606090810191909152601f909201601f1916010192915050565b600060208284031215610f1f57600080fd5b5051919050565b600060ff60020a8201610f3b57610f3b610d5f565b506000190190565b8181038181111561076857610768610d5f56fea26469706673582212205b88e8d57dd21fe2e35be567c758e628be854362c66f8cfba0d3148c9811701f64736f6c63430008120033",
  "immutableReferences": {},
  "source": "// SPDX-License-Identifier: BSL-1.1\npragma solidity >=0.4.22 <0.9.0;\n\nimport \"../../interfaces/IPaymentWallet.sol\";\nimport \"../../abstract/ADebtToken.sol\";\n\ncontract RegAT1Debt is ADebtToken {\n    IPaymentWallet paymentWalletContract;\n\n    function setPaymentWalletContract(address paymentWalletAddress) external {\n        paymentWalletContract = IPaymentWallet(paymentWalletAddress);\n    }\n\n    function validate(address from,address to,uint tokens) external view returns (bool) {\n        int valid = 0;\n        if (TRANSFERS_ACTIVE == false) {\n            valid--;\n        }\n        if (from == address(0x0)) {\n            valid--;\n        }\n        if (to == address(0x0)) {\n            valid--;\n        }\n        if (tokens == 0) {\n            valid--;\n        }\n        if (valid == 0) {\n            return true;\n        }\n        return false;\n    }\n    function transfer(address from,address to, uint tokens)  external returns (bool) {\n        require(from == msg.sender,\"not from msg.sender\");\n        require(address(paymentWalletContract) != address(0x0),\"PaymentWallet contract is not set\");\n        paymentWalletContract.transfer(to, tokens, paymentWalletContract.getCVV());\n        return true;\n    }\n    function transferFrom(address from, address to, uint tokens)  external returns (bool) {\n        require(address(paymentWalletContract) != address(0x0),\"PaymentWallet contract is not set\");\n        paymentWalletContract.transferFrom(from, to, tokens, \"N/A\");\n        return true;\n    }\n    function getBalanceFrom(address wallet) external view returns (uint256) {\n        require(address(paymentWalletContract) != address(0x0),\"PaymentWallet contract is not set\");\n        return paymentWalletContract.getBalance(wallet);\n    }\n    function getTradingStatus() external view returns (bool) {\n        return TRADING_ACTIVE;\n    }\n\n    function buy(address wallet,uint256 tokens,uint256 Fee) external {\n\n    }\n\n    function getIssuer() external view returns (address) {\n        return issuer;\n    }\n    function getOutstandingShares() external view returns (uint256) {\n        return OUTSTANDING_SHARES;\n    }\n    function getTotalSupply() external view returns (uint256) {\n\n    }\n    function getOfferingType() external view returns (string memory) {\n        return offeringType;\n    }    \n}",
  "sourcePath": "/Volumes/My Book/projects/pingleware-contracts/contracts/finance/elmx/RegAT1Debt.sol",
  "compiler": {
    "name": "solc",
    "version": "0.8.18+commit.87f61d96.Emscripten.clang"
  },
  "schemaVersion": "3.4.12",
  "updatedAt": "2023-10-26T20:32:53.370Z",
  "devdoc": {
    "kind": "dev",
    "methods": {},
    "version": 1
  },
  "userdoc": {
    "kind": "user",
    "methods": {},
    "version": 1
  }
}