{
  "contractName": "RegAT1Equity",
  "abi": [
    {
      "inputs": [
        {
          "internalType": "address",
          "name": "tokenIssuer",
          "type": "address"
        },
        {
          "internalType": "string",
          "name": "jurisdiction",
          "type": "string"
        },
        {
          "internalType": "string",
          "name": "tokenName",
          "type": "string"
        },
        {
          "internalType": "string",
          "name": "tokenSymbol",
          "type": "string"
        },
        {
          "internalType": "uint256",
          "name": "tokenSupply",
          "type": "uint256"
        },
        {
          "internalType": "uint256",
          "name": "tokenPrice",
          "type": "uint256"
        }
      ],
      "stateMutability": "nonpayable",
      "type": "constructor"
    },
    {
      "anonymous": false,
      "inputs": [
        {
          "indexed": false,
          "internalType": "address",
          "name": "",
          "type": "address"
        },
        {
          "indexed": false,
          "internalType": "address",
          "name": "",
          "type": "address"
        },
        {
          "indexed": false,
          "internalType": "uint256",
          "name": "",
          "type": "uint256"
        }
      ],
      "name": "Approval",
      "type": "event"
    },
    {
      "anonymous": false,
      "inputs": [
        {
          "indexed": true,
          "internalType": "address",
          "name": "investor",
          "type": "address"
        },
        {
          "indexed": false,
          "internalType": "uint256",
          "name": "tokens",
          "type": "uint256"
        },
        {
          "indexed": false,
          "internalType": "string",
          "name": "reason",
          "type": "string"
        }
      ],
      "name": "Disapproval",
      "type": "event"
    },
    {
      "anonymous": false,
      "inputs": [
        {
          "indexed": false,
          "internalType": "address",
          "name": "investor",
          "type": "address"
        },
        {
          "indexed": false,
          "internalType": "uint256",
          "name": "tokens",
          "type": "uint256"
        },
        {
          "indexed": false,
          "internalType": "bool",
          "name": "buy",
          "type": "bool"
        }
      ],
      "name": "Request",
      "type": "event"
    },
    {
      "anonymous": false,
      "inputs": [
        {
          "indexed": false,
          "internalType": "address",
          "name": "",
          "type": "address"
        }
      ],
      "name": "ShareholderAdded",
      "type": "event"
    },
    {
      "anonymous": false,
      "inputs": [
        {
          "indexed": false,
          "internalType": "address",
          "name": "",
          "type": "address"
        },
        {
          "indexed": false,
          "internalType": "uint256",
          "name": "",
          "type": "uint256"
        }
      ],
      "name": "ShareholderInvestmentAdded",
      "type": "event"
    },
    {
      "anonymous": false,
      "inputs": [
        {
          "indexed": false,
          "internalType": "address",
          "name": "",
          "type": "address"
        },
        {
          "indexed": false,
          "internalType": "uint256",
          "name": "",
          "type": "uint256"
        }
      ],
      "name": "ShareholderSharesAllocated",
      "type": "event"
    },
    {
      "anonymous": false,
      "inputs": [
        {
          "indexed": false,
          "internalType": "bool",
          "name": "",
          "type": "bool"
        },
        {
          "indexed": false,
          "internalType": "string",
          "name": "",
          "type": "string"
        }
      ],
      "name": "TradingStatusChange",
      "type": "event"
    },
    {
      "anonymous": false,
      "inputs": [
        {
          "indexed": false,
          "internalType": "bool",
          "name": "",
          "type": "bool"
        },
        {
          "indexed": false,
          "internalType": "string",
          "name": "",
          "type": "string"
        }
      ],
      "name": "TradingStatusChanged",
      "type": "event"
    },
    {
      "anonymous": false,
      "inputs": [
        {
          "indexed": false,
          "internalType": "bool",
          "name": "",
          "type": "bool"
        },
        {
          "indexed": false,
          "internalType": "string",
          "name": "",
          "type": "string"
        }
      ],
      "name": "TransferStatusChange",
      "type": "event"
    },
    {
      "anonymous": false,
      "inputs": [
        {
          "indexed": false,
          "internalType": "bool",
          "name": "",
          "type": "bool"
        },
        {
          "indexed": false,
          "internalType": "string",
          "name": "",
          "type": "string"
        }
      ],
      "name": "TransferStatusChanged",
      "type": "event"
    },
    {
      "anonymous": false,
      "inputs": [
        {
          "indexed": false,
          "internalType": "address",
          "name": "",
          "type": "address"
        },
        {
          "indexed": false,
          "internalType": "uint256",
          "name": "",
          "type": "uint256"
        }
      ],
      "name": "ValueTransferred",
      "type": "event"
    },
    {
      "inputs": [],
      "name": "MAX_OFFERING_SHARES",
      "outputs": [
        {
          "internalType": "uint256",
          "name": "",
          "type": "uint256"
        }
      ],
      "stateMutability": "view",
      "type": "function",
      "constant": true
    },
    {
      "inputs": [],
      "name": "OUTSTANDING_SHARES",
      "outputs": [
        {
          "internalType": "uint256",
          "name": "",
          "type": "uint256"
        }
      ],
      "stateMutability": "view",
      "type": "function",
      "constant": true
    },
    {
      "inputs": [],
      "name": "SIXMONTHS",
      "outputs": [
        {
          "internalType": "uint256",
          "name": "",
          "type": "uint256"
        }
      ],
      "stateMutability": "view",
      "type": "function",
      "constant": true
    },
    {
      "inputs": [],
      "name": "TRADING_ACTIVE",
      "outputs": [
        {
          "internalType": "bool",
          "name": "",
          "type": "bool"
        }
      ],
      "stateMutability": "view",
      "type": "function",
      "constant": true
    },
    {
      "inputs": [],
      "name": "TRANSFERS_ACTIVE",
      "outputs": [
        {
          "internalType": "bool",
          "name": "",
          "type": "bool"
        }
      ],
      "stateMutability": "view",
      "type": "function",
      "constant": true
    },
    {
      "inputs": [],
      "name": "YEAR",
      "outputs": [
        {
          "internalType": "uint256",
          "name": "",
          "type": "uint256"
        }
      ],
      "stateMutability": "view",
      "type": "function",
      "constant": true
    },
    {
      "inputs": [],
      "name": "ask",
      "outputs": [
        {
          "internalType": "uint256",
          "name": "",
          "type": "uint256"
        }
      ],
      "stateMutability": "view",
      "type": "function",
      "constant": true
    },
    {
      "inputs": [],
      "name": "bid",
      "outputs": [
        {
          "internalType": "uint256",
          "name": "",
          "type": "uint256"
        }
      ],
      "stateMutability": "view",
      "type": "function",
      "constant": true
    },
    {
      "inputs": [
        {
          "internalType": "bool",
          "name": "status",
          "type": "bool"
        },
        {
          "internalType": "string",
          "name": "reason",
          "type": "string"
        }
      ],
      "name": "changeTradingStatus",
      "outputs": [],
      "stateMutability": "nonpayable",
      "type": "function"
    },
    {
      "inputs": [
        {
          "internalType": "bool",
          "name": "status",
          "type": "bool"
        },
        {
          "internalType": "string",
          "name": "reason",
          "type": "string"
        }
      ],
      "name": "changeTransferStatus",
      "outputs": [],
      "stateMutability": "nonpayable",
      "type": "function"
    },
    {
      "inputs": [],
      "name": "getMarketValue",
      "outputs": [
        {
          "internalType": "uint256",
          "name": "",
          "type": "uint256"
        }
      ],
      "stateMutability": "view",
      "type": "function",
      "constant": true
    },
    {
      "inputs": [
        {
          "internalType": "uint256",
          "name": "totalExchangeMarketValue",
          "type": "uint256"
        }
      ],
      "name": "getMarketWeight",
      "outputs": [
        {
          "internalType": "uint256",
          "name": "",
          "type": "uint256"
        }
      ],
      "stateMutability": "view",
      "type": "function",
      "constant": true
    },
    {
      "inputs": [],
      "name": "getName",
      "outputs": [
        {
          "internalType": "string",
          "name": "",
          "type": "string"
        }
      ],
      "stateMutability": "view",
      "type": "function",
      "constant": true
    },
    {
      "inputs": [],
      "name": "getOfferingType",
      "outputs": [
        {
          "internalType": "string",
          "name": "",
          "type": "string"
        }
      ],
      "stateMutability": "view",
      "type": "function",
      "constant": true
    },
    {
      "inputs": [],
      "name": "getOutstandingShares",
      "outputs": [
        {
          "internalType": "uint256",
          "name": "",
          "type": "uint256"
        }
      ],
      "stateMutability": "view",
      "type": "function",
      "constant": true
    },
    {
      "inputs": [],
      "name": "getSymbol",
      "outputs": [
        {
          "internalType": "string",
          "name": "",
          "type": "string"
        }
      ],
      "stateMutability": "view",
      "type": "function",
      "constant": true
    },
    {
      "inputs": [],
      "name": "getTotalSupply",
      "outputs": [
        {
          "internalType": "uint256",
          "name": "",
          "type": "uint256"
        }
      ],
      "stateMutability": "view",
      "type": "function",
      "constant": true
    },
    {
      "inputs": [],
      "name": "getTradingStatus",
      "outputs": [
        {
          "internalType": "bool",
          "name": "",
          "type": "bool"
        }
      ],
      "stateMutability": "view",
      "type": "function",
      "constant": true
    },
    {
      "inputs": [],
      "name": "homeJurisdiction",
      "outputs": [
        {
          "internalType": "string",
          "name": "",
          "type": "string"
        }
      ],
      "stateMutability": "view",
      "type": "function",
      "constant": true
    },
    {
      "inputs": [],
      "name": "issuer",
      "outputs": [
        {
          "internalType": "address",
          "name": "",
          "type": "address"
        }
      ],
      "stateMutability": "view",
      "type": "function",
      "constant": true
    },
    {
      "inputs": [],
      "name": "name",
      "outputs": [
        {
          "internalType": "string",
          "name": "",
          "type": "string"
        }
      ],
      "stateMutability": "view",
      "type": "function",
      "constant": true
    },
    {
      "inputs": [],
      "name": "offeringType",
      "outputs": [
        {
          "internalType": "string",
          "name": "",
          "type": "string"
        }
      ],
      "stateMutability": "view",
      "type": "function",
      "constant": true
    },
    {
      "inputs": [],
      "name": "price",
      "outputs": [
        {
          "internalType": "uint256",
          "name": "",
          "type": "uint256"
        }
      ],
      "stateMutability": "view",
      "type": "function",
      "constant": true
    },
    {
      "inputs": [],
      "name": "symbol",
      "outputs": [
        {
          "internalType": "string",
          "name": "",
          "type": "string"
        }
      ],
      "stateMutability": "view",
      "type": "function",
      "constant": true
    },
    {
      "inputs": [],
      "name": "totalSupply",
      "outputs": [
        {
          "internalType": "uint256",
          "name": "",
          "type": "uint256"
        }
      ],
      "stateMutability": "view",
      "type": "function",
      "constant": true
    },
    {
      "inputs": [
        {
          "internalType": "address",
          "name": "from",
          "type": "address"
        },
        {
          "internalType": "address",
          "name": "to",
          "type": "address"
        },
        {
          "internalType": "uint256",
          "name": "tokens",
          "type": "uint256"
        }
      ],
      "name": "validate",
      "outputs": [
        {
          "internalType": "bool",
          "name": "",
          "type": "bool"
        }
      ],
      "stateMutability": "view",
      "type": "function",
      "constant": true
    },
    {
      "inputs": [
        {
          "internalType": "address",
          "name": "from",
          "type": "address"
        },
        {
          "internalType": "address",
          "name": "to",
          "type": "address"
        },
        {
          "internalType": "uint256",
          "name": "tokens",
          "type": "uint256"
        }
      ],
      "name": "transfer",
      "outputs": [
        {
          "internalType": "bool",
          "name": "",
          "type": "bool"
        }
      ],
      "stateMutability": "nonpayable",
      "type": "function"
    },
    {
      "inputs": [
        {
          "internalType": "address",
          "name": "from",
          "type": "address"
        },
        {
          "internalType": "address",
          "name": "to",
          "type": "address"
        },
        {
          "internalType": "uint256",
          "name": "tokens",
          "type": "uint256"
        }
      ],
      "name": "transferFrom",
      "outputs": [
        {
          "internalType": "bool",
          "name": "",
          "type": "bool"
        }
      ],
      "stateMutability": "nonpayable",
      "type": "function"
    },
    {
      "inputs": [
        {
          "internalType": "address",
          "name": "wallet",
          "type": "address"
        }
      ],
      "name": "getBalanceFrom",
      "outputs": [
        {
          "internalType": "uint256",
          "name": "",
          "type": "uint256"
        }
      ],
      "stateMutability": "view",
      "type": "function",
      "constant": true
    },
    {
      "inputs": [],
      "name": "getIssuer",
      "outputs": [
        {
          "internalType": "address",
          "name": "",
          "type": "address"
        }
      ],
      "stateMutability": "view",
      "type": "function",
      "constant": true
    },
    {
      "inputs": [
        {
          "internalType": "address",
          "name": "wallet",
          "type": "address"
        },
        {
          "internalType": "uint256",
          "name": "tokens",
          "type": "uint256"
        },
        {
          "internalType": "uint256",
          "name": "fee",
          "type": "uint256"
        }
      ],
      "name": "buy",
      "outputs": [],
      "stateMutability": "nonpayable",
      "type": "function"
    }
  ],
  "bytecode": "0x6000805461ffff19168155600181905560025560c0604052600660809081527f455155495459000000000000000000000000000000000000000000000000000060a052600790620000519082620001c6565b5060006009556000600a556000600b553480156200006e57600080fd5b506040516200108538038062001085833981016040819052620000919162000347565b600c8054600160a060020a031916600160a060020a0388161790556008620000ba8682620001c6565b506003620000c98582620001c6565b506004620000d88482620001c6565b506005829055600655600255506200040b92505050565b7f4e487b7100000000000000000000000000000000000000000000000000000000600052604160045260246000fd5b6002810460018216806200013357607f821691505b6020821081036200016d577f4e487b7100000000000000000000000000000000000000000000000000000000600052602260045260246000fd5b50919050565b601f821115620001c1576000818152602081206020601f860104810160208610156200019c5750805b6020601f860104820191505b81811015620001bd57828155600101620001a8565b5050505b505050565b81516001604060020a03811115620001e257620001e2620000ef565b620001fa81620001f384546200011e565b8462000173565b602080601f831160018114620002365760008415620002195750858301515b60028086026008870290910a6000190419821617865550620001bd565b600085815260208120601f198616915b82811015620002675788860151825594840194600190910190840162000246565b50858210156200028857878501516008601f88160260020a60001904191681555b5050505050600202600101905550565b600082601f830112620002aa57600080fd5b81516001604060020a0380821115620002c757620002c7620000ef565b604051601f8301601f19908116603f01168101908282118183101715620002f257620002f2620000ef565b816040528381526020925086838588010111156200030f57600080fd5b600091505b8382101562000333578582018301518183018401529082019062000314565b600093810190920192909252949350505050565b60008060008060008060c087890312156200036157600080fd5b8651600160a060020a03811681146200037957600080fd5b60208801519096506001604060020a03808211156200039757600080fd5b620003a58a838b0162000298565b96506040890151915080821115620003bc57600080fd5b620003ca8a838b0162000298565b95506060890151915080821115620003e157600080fd5b50620003f089828a0162000298565b9350506080870151915060a087015190509295509295509295565b610c6a806200041b6000396000f3fe608060405234801561001057600080fd5b50600436106101785760e060020a600035046306fdde03811461017d578063150704011461019b57806317d7de7c146101a357806318160ddd146101ab5780631998aeef146101c25780631d143848146101cb57806323b872dd146101f65780633dfc25141461021957806340f0eb35146102215780634a89638414610229578063525564211461023257806361e763641461024357806362befb1e1461024c578063636110ee14610254578063752f76971461026957806383914540146102735780638862d26a1461027e57806389af2dce1461028657806395d89b411461029957806397a67fe1146102a15780639ac97560146102b3578063a035b1fe146102c6578063a1305aa5146102cf578063a59ac6dd146102da578063a5dea8a9146102ed578063aa3ad4e414610300578063beabacc814610313578063bf39863114610326578063c4e41b221461032f578063cbc2bc4314610337578063de2b4e9814610344575b600080fd5b61018561034c565b6040516101929190610999565b60405180910390f35b6101856103da565b61018561046c565b6101b460055481565b604051908152602001610192565b6101b460095481565b600c546101de90600160a060020a031681565b604051600160a060020a039091168152602001610192565b610209610204366004610a03565b61047b565b6040519015158152602001610192565b610185610510565b61018561051d565b6101b4600a5481565b600c54600160a060020a03166101de565b6101b460025481565b6101b461052c565b610267610262366004610a3f565b610541565b005b6101b462ed4e0081565b6101b46301e1338081565b610185610590565b6101b4610294366004610ac8565b61059d565b610185610608565b60005461020990610100900460ff1681565b6102676102c1366004610a3f565b610615565b6101b460065481565b60005460ff16610209565b6102676102e8366004610ae3565b61065c565b6101b46102fb366004610b16565b610756565b61020961030e366004610a03565b61077f565b610209610321366004610a03565b610810565b6101b460015481565b6005546101b4565b6000546102099060ff1681565b6001546101b4565b6003805461035990610b2f565b80601f016020809104026020016040519081016040528092919081815260200182805461038590610b2f565b80156103d25780601f106103a7576101008083540402835291602001916103d2565b820191906000526020600020905b8154815290600101906020018083116103b557829003601f168201915b505050505081565b6060600480546103e990610b2f565b80601f016020809104026020016040519081016040528092919081815260200182805461041590610b2f565b80156104625780601f1061043757610100808354040283529160200191610462565b820191906000526020600020905b81548152906001019060200180831161044557829003601f168201915b5050505050905090565b6060600380546103e990610b2f565b60405160e060020a63d6fcb04b028152600160a060020a03838116600483015260248201839052606060448301526003606483015260e860020a624e2f41026084830152600091859182169063d6fcb04b9060a4015b600060405180830381600087803b1580156104eb57600080fd5b505af11580156104ff573d6000803e3d6000fd5b5050505060019150505b9392505050565b6008805461035990610b2f565b6060600780546103e990610b2f565b600061053c6006546001546108ad565b905090565b6000805460ff19168415151790556040517fd5d3710e87ad129534715c02a9b1de4c50bdc2faeaa8a34a0470039175e31f259061058390859085908590610b6d565b60405180910390a1505050565b6007805461035990610b2f565b60008082905080600160a060020a03166312065fe06040518163ffffffff1660e060020a028152600401602060405180830381865afa1580156105e4573d6000803e3d6000fd5b505050506040513d601f19601f820116820180604052508101906105099190610ba5565b6004805461035990610b2f565b6000805461ff001916610100851515021790556040517faa4f09342ef9787b0bc3a7df0faa5f114a19a74a2f1e61dcfb504c484508f4ca9061058390859085908590610b6d565b6000839050600061066f846006546108ad565b905081600160a060020a031663095bcdb6600c60009054906101000a9004600160a060020a03168385600160a060020a031663afc96f796040518163ffffffff1660e060020a028152600401602060405180830381865afa1580156106d8573d6000803e3d6000fd5b505050506040513d601f19601f820116820180604052508101906106fc9190610ba5565b6040518463ffffffff1660e060020a02815260040161071d93929190610bbe565b600060405180830381600087803b15801561073757600080fd5b505af115801561074b573d6000803e3d6000fd5b505050505050505050565b600061077961077261076c6006546001546108ad565b84610932565b60646108ad565b92915050565b600080548190610100900460ff16151581036107a3578061079f81610bdf565b9150505b600160a060020a0385166107bf57806107bb81610bdf565b9150505b600160a060020a0384166107db57806107d781610bdf565b9150505b6005548311156107f357806107ef81610bdf565b9150505b80600003610805576001915050610509565b506000949350505050565b60008084905080600160a060020a031663095bcdb6858584600160a060020a031663afc96f796040518163ffffffff1660e060020a028152600401602060405180830381865afa158015610868573d6000803e3d6000fd5b505050506040513d601f19601f8201168201806040525081019061088c9190610ba5565b6040518463ffffffff1660e060020a0281526004016104d193929190610bbe565b6000828202821583820485141517156108c557600080fd5b826108d08583610c0e565b146105095760405160e560020a62461bcd02815260206004820152602160248201527f536166654d6174683a206d756c7469706c69636174696f6e206f766572666c6f604482015260f860020a60770260648201526084015b60405180910390fd5b60008082116109865760405160e560020a62461bcd02815260206004820152601a60248201527f536166654d6174683a206469766973696f6e206279207a65726f0000000000006044820152606401610929565b60008261099257600080fd5b5050900490565b600060208083528351808285015260005b818110156109c6578581018301518582016040015282016109aa565b506000604082860101526040601f19601f8301168501019250505092915050565b8035600160a060020a03811681146109fe57600080fd5b919050565b600080600060608486031215610a1857600080fd5b610a21846109e7565b9250610a2f602085016109e7565b9150604084013590509250925092565b600080600060408486031215610a5457600080fd5b83358015158114610a6457600080fd5b925060208401356001604060020a0380821115610a8057600080fd5b818601915086601f830112610a9457600080fd5b813581811115610aa357600080fd5b876020828501011115610ab557600080fd5b6020830194508093505050509250925092565b600060208284031215610ada57600080fd5b610509826109e7565b600080600060608486031215610af857600080fd5b610b01846109e7565b95602085013595506040909401359392505050565b600060208284031215610b2857600080fd5b5035919050565b600281046001821680610b4357607f821691505b602082108103610b675760e060020a634e487b710260009081526022600452602490fd5b50919050565b831515815260406020820152816040820152818360608301376000818301606090810191909152601f909201601f1916010192915050565b600060208284031215610bb757600080fd5b5051919050565b600160a060020a039390931683526020830191909152604082015260600190565b600060ff60020a8201610c065760e060020a634e487b710260009081526011600452602490fd5b506000190190565b600082610c2f5760e060020a634e487b710260009081526012600452602490fd5b50049056fea264697066735822122040a780d055350be7696240b7c09d51f8087a58254e159fc42f036db86d15a82a64736f6c63430008120033",
  "immutableReferences": {},
  "source": "// SPDX-License-Identifier: BSL-1.1\npragma solidity >=0.4.22 <0.9.0;\n\nimport \"../../interfaces/IPaymentWallet.sol\";\nimport \"../../abstract/AEquityToken.sol\";\n\ncontract RegAT1Equity is AEquityToken {\n    string public homeJurisdiction;\n    uint256 public bid = 0;\n    uint256 public ask = 0;\n\n    uint256 lastCertificateAssigned = 0;\n\n    address public issuer;\n\n    event ValueTransferred(address, uint256);\n    event Approval(address,address,uint256);\n    event Disapproval(address indexed investor, uint tokens, string reason);\n    event Request(address investor,uint tokens,bool buy);\n\n    constructor(address tokenIssuer,string memory jurisdiction,string memory tokenName,string memory tokenSymbol,uint256 tokenSupply,uint256 tokenPrice) {\n        issuer = tokenIssuer;\n\n        homeJurisdiction = jurisdiction;\n        name = tokenName;\n        symbol = tokenSymbol;\n        totalSupply = tokenSupply;\n        price = tokenPrice;\n\n        MAX_OFFERING_SHARES = tokenSupply; // a maximum offering is set, to permit immediate resales after the funding round has been complete.\n    }\n\n    function validate(address from,address to,uint tokens) public view returns (bool) {\n        int valid = 0;\n        if (TRANSFERS_ACTIVE == false) {\n            valid--;\n        }\n        if (from == address(0x0)) {\n            valid--;\n        }\n        if (to == address(0x0)) {\n            valid--;\n        }\n        if (tokens > totalSupply) {\n            valid--;\n        }\n        if (valid == 0) {\n            return true;\n        }\n        return false;\n    }\n\n    function transfer(address from,address to, uint tokens)  external returns (bool) {\n        IPaymentWallet paymentWallet = IPaymentWallet(from);\n        paymentWallet.transfer(to,tokens,paymentWallet.getCVV());\n        return true;\n    }\n    function transferFrom(address from, address to, uint tokens)  external returns (bool) {\n        IPaymentWallet paymentWallet = IPaymentWallet(from);\n        paymentWallet.transferFrom(to, tokens, \"N/A\");\n        return true;\n    }\n    function getBalanceFrom(address wallet) external view returns (uint256) {\n        IPaymentWallet paymentWallet = IPaymentWallet(wallet);\n        return paymentWallet.getBalance();\n    }\n    function getIssuer() external view returns (address) {\n        return issuer;\n    }\n\n     function buy(address wallet,uint256 tokens,uint256 fee) external {\n        IPaymentWallet paymentWallet = IPaymentWallet(wallet);\n        uint256 amount = SafeMath.safeMul(tokens,price);\n        paymentWallet.transfer(issuer, amount, paymentWallet.getCVV());\n        fee;\n     }    \n}\n",
  "sourcePath": "/Volumes/My Book/projects/pingleware-contracts/contracts/finance/elmx/RegAT1Equity.sol",
  "compiler": {
    "name": "solc",
    "version": "0.8.18+commit.87f61d96.Emscripten.clang"
  },
  "schemaVersion": "3.4.12",
  "updatedAt": "2023-10-24T05:59:44.369Z",
  "networkType": "ethereum",
  "devdoc": {
    "kind": "dev",
    "methods": {},
    "version": 1
  },
  "userdoc": {
    "kind": "user",
    "methods": {
      "getMarketValue()": {
        "notice": "Needed to calculate the Exchange Market Index Total Exchange Market Value = sum of each offering market value [getMarketValue()] Exchange Market Index = sum of the product of the offering price and offering merket weigth"
      }
    },
    "version": 1
  }
}