{
  "contractName": "RegAT1Debt",
  "abi": [
    {
      "anonymous": false,
      "inputs": [
        {
          "indexed": false,
          "internalType": "address",
          "name": "",
          "type": "address"
        },
        {
          "indexed": false,
          "internalType": "uint256",
          "name": "",
          "type": "uint256"
        }
      ],
      "name": "BondRedeemed",
      "type": "event"
    },
    {
      "anonymous": false,
      "inputs": [
        {
          "indexed": false,
          "internalType": "address",
          "name": "",
          "type": "address"
        },
        {
          "indexed": false,
          "internalType": "uint256",
          "name": "",
          "type": "uint256"
        }
      ],
      "name": "CouponPaymentMade",
      "type": "event"
    },
    {
      "anonymous": false,
      "inputs": [
        {
          "indexed": false,
          "internalType": "bool",
          "name": "",
          "type": "bool"
        },
        {
          "indexed": false,
          "internalType": "string",
          "name": "",
          "type": "string"
        }
      ],
      "name": "TradingStatusChange",
      "type": "event"
    },
    {
      "anonymous": false,
      "inputs": [
        {
          "indexed": false,
          "internalType": "bool",
          "name": "",
          "type": "bool"
        },
        {
          "indexed": false,
          "internalType": "string",
          "name": "",
          "type": "string"
        }
      ],
      "name": "TradingStatusChanged",
      "type": "event"
    },
    {
      "anonymous": false,
      "inputs": [
        {
          "indexed": true,
          "internalType": "address",
          "name": "from",
          "type": "address"
        },
        {
          "indexed": true,
          "internalType": "address",
          "name": "to",
          "type": "address"
        },
        {
          "indexed": false,
          "internalType": "uint256",
          "name": "value",
          "type": "uint256"
        }
      ],
      "name": "Transfer",
      "type": "event"
    },
    {
      "anonymous": false,
      "inputs": [
        {
          "indexed": false,
          "internalType": "bool",
          "name": "",
          "type": "bool"
        },
        {
          "indexed": false,
          "internalType": "string",
          "name": "",
          "type": "string"
        }
      ],
      "name": "TransferStatusChange",
      "type": "event"
    },
    {
      "anonymous": false,
      "inputs": [
        {
          "indexed": false,
          "internalType": "bool",
          "name": "",
          "type": "bool"
        },
        {
          "indexed": false,
          "internalType": "string",
          "name": "",
          "type": "string"
        }
      ],
      "name": "TransferStatusChanged",
      "type": "event"
    },
    {
      "inputs": [],
      "name": "MAX_OFFERING_SHARES",
      "outputs": [
        {
          "internalType": "uint256",
          "name": "",
          "type": "uint256"
        }
      ],
      "stateMutability": "view",
      "type": "function",
      "constant": true
    },
    {
      "inputs": [],
      "name": "OUTSTANDING_SHARES",
      "outputs": [
        {
          "internalType": "uint256",
          "name": "",
          "type": "uint256"
        }
      ],
      "stateMutability": "view",
      "type": "function",
      "constant": true
    },
    {
      "inputs": [],
      "name": "SIXMONTHS",
      "outputs": [
        {
          "internalType": "uint256",
          "name": "",
          "type": "uint256"
        }
      ],
      "stateMutability": "view",
      "type": "function",
      "constant": true
    },
    {
      "inputs": [],
      "name": "TRADING_ACTIVE",
      "outputs": [
        {
          "internalType": "bool",
          "name": "",
          "type": "bool"
        }
      ],
      "stateMutability": "view",
      "type": "function",
      "constant": true
    },
    {
      "inputs": [],
      "name": "TRANSFERS_ACTIVE",
      "outputs": [
        {
          "internalType": "bool",
          "name": "",
          "type": "bool"
        }
      ],
      "stateMutability": "view",
      "type": "function",
      "constant": true
    },
    {
      "inputs": [],
      "name": "YEAR",
      "outputs": [
        {
          "internalType": "uint256",
          "name": "",
          "type": "uint256"
        }
      ],
      "stateMutability": "view",
      "type": "function",
      "constant": true
    },
    {
      "inputs": [],
      "name": "bondCouponRate",
      "outputs": [
        {
          "internalType": "uint256",
          "name": "",
          "type": "uint256"
        }
      ],
      "stateMutability": "view",
      "type": "function",
      "constant": true
    },
    {
      "inputs": [
        {
          "internalType": "uint256",
          "name": "",
          "type": "uint256"
        }
      ],
      "name": "bondHolders",
      "outputs": [
        {
          "internalType": "address",
          "name": "holderAddress",
          "type": "address"
        },
        {
          "internalType": "uint256",
          "name": "investedAmount",
          "type": "uint256"
        }
      ],
      "stateMutability": "view",
      "type": "function",
      "constant": true
    },
    {
      "inputs": [],
      "name": "bondMaturityDate",
      "outputs": [
        {
          "internalType": "uint256",
          "name": "",
          "type": "uint256"
        }
      ],
      "stateMutability": "view",
      "type": "function",
      "constant": true
    },
    {
      "inputs": [],
      "name": "bondPrincipal",
      "outputs": [
        {
          "internalType": "uint256",
          "name": "",
          "type": "uint256"
        }
      ],
      "stateMutability": "view",
      "type": "function",
      "constant": true
    },
    {
      "inputs": [],
      "name": "bondRating",
      "outputs": [
        {
          "internalType": "uint256",
          "name": "",
          "type": "uint256"
        }
      ],
      "stateMutability": "view",
      "type": "function",
      "constant": true
    },
    {
      "inputs": [
        {
          "internalType": "bool",
          "name": "status",
          "type": "bool"
        },
        {
          "internalType": "string",
          "name": "reason",
          "type": "string"
        }
      ],
      "name": "changeTradingStatus",
      "outputs": [],
      "stateMutability": "nonpayable",
      "type": "function"
    },
    {
      "inputs": [
        {
          "internalType": "bool",
          "name": "status",
          "type": "bool"
        },
        {
          "internalType": "string",
          "name": "reason",
          "type": "string"
        }
      ],
      "name": "changeTransferStatus",
      "outputs": [],
      "stateMutability": "nonpayable",
      "type": "function"
    },
    {
      "inputs": [],
      "name": "getMarketValue",
      "outputs": [
        {
          "internalType": "uint256",
          "name": "",
          "type": "uint256"
        }
      ],
      "stateMutability": "nonpayable",
      "type": "function"
    },
    {
      "inputs": [
        {
          "internalType": "uint256",
          "name": "totalExchangeMarketValue",
          "type": "uint256"
        }
      ],
      "name": "getMarketWeight",
      "outputs": [
        {
          "internalType": "uint256",
          "name": "",
          "type": "uint256"
        }
      ],
      "stateMutability": "nonpayable",
      "type": "function"
    },
    {
      "inputs": [],
      "name": "issuer",
      "outputs": [
        {
          "internalType": "address",
          "name": "",
          "type": "address"
        }
      ],
      "stateMutability": "view",
      "type": "function",
      "constant": true
    },
    {
      "inputs": [],
      "name": "name",
      "outputs": [
        {
          "internalType": "string",
          "name": "",
          "type": "string"
        }
      ],
      "stateMutability": "view",
      "type": "function",
      "constant": true
    },
    {
      "inputs": [],
      "name": "offeringType",
      "outputs": [
        {
          "internalType": "string",
          "name": "",
          "type": "string"
        }
      ],
      "stateMutability": "view",
      "type": "function",
      "constant": true
    },
    {
      "inputs": [
        {
          "internalType": "address",
          "name": "from",
          "type": "address"
        },
        {
          "internalType": "address",
          "name": "to",
          "type": "address"
        },
        {
          "internalType": "uint256",
          "name": "tokens",
          "type": "uint256"
        }
      ],
      "name": "validate",
      "outputs": [
        {
          "internalType": "bool",
          "name": "",
          "type": "bool"
        }
      ],
      "stateMutability": "view",
      "type": "function",
      "constant": true
    },
    {
      "inputs": [
        {
          "internalType": "address",
          "name": "from",
          "type": "address"
        },
        {
          "internalType": "address",
          "name": "to",
          "type": "address"
        },
        {
          "internalType": "uint256",
          "name": "tokens",
          "type": "uint256"
        }
      ],
      "name": "transfer",
      "outputs": [
        {
          "internalType": "bool",
          "name": "",
          "type": "bool"
        }
      ],
      "stateMutability": "nonpayable",
      "type": "function"
    },
    {
      "inputs": [
        {
          "internalType": "address",
          "name": "from",
          "type": "address"
        },
        {
          "internalType": "address",
          "name": "to",
          "type": "address"
        },
        {
          "internalType": "uint256",
          "name": "tokens",
          "type": "uint256"
        }
      ],
      "name": "transferFrom",
      "outputs": [
        {
          "internalType": "bool",
          "name": "",
          "type": "bool"
        }
      ],
      "stateMutability": "nonpayable",
      "type": "function"
    },
    {
      "inputs": [
        {
          "internalType": "address",
          "name": "wallet",
          "type": "address"
        }
      ],
      "name": "getBalanceFrom",
      "outputs": [
        {
          "internalType": "uint256",
          "name": "",
          "type": "uint256"
        }
      ],
      "stateMutability": "view",
      "type": "function",
      "constant": true
    },
    {
      "inputs": [],
      "name": "getTradingStatus",
      "outputs": [
        {
          "internalType": "bool",
          "name": "",
          "type": "bool"
        }
      ],
      "stateMutability": "view",
      "type": "function",
      "constant": true
    },
    {
      "inputs": [
        {
          "internalType": "address",
          "name": "wallet",
          "type": "address"
        },
        {
          "internalType": "uint256",
          "name": "tokens",
          "type": "uint256"
        },
        {
          "internalType": "uint256",
          "name": "Fee",
          "type": "uint256"
        }
      ],
      "name": "buy",
      "outputs": [],
      "stateMutability": "nonpayable",
      "type": "function"
    },
    {
      "inputs": [],
      "name": "getIssuer",
      "outputs": [
        {
          "internalType": "address",
          "name": "",
          "type": "address"
        }
      ],
      "stateMutability": "view",
      "type": "function",
      "constant": true
    },
    {
      "inputs": [],
      "name": "getOutstandingShares",
      "outputs": [
        {
          "internalType": "uint256",
          "name": "",
          "type": "uint256"
        }
      ],
      "stateMutability": "view",
      "type": "function",
      "constant": true
    },
    {
      "inputs": [],
      "name": "getTotalSupply",
      "outputs": [
        {
          "internalType": "uint256",
          "name": "",
          "type": "uint256"
        }
      ],
      "stateMutability": "view",
      "type": "function",
      "constant": true
    },
    {
      "inputs": [],
      "name": "getOfferingType",
      "outputs": [
        {
          "internalType": "string",
          "name": "",
          "type": "string"
        }
      ],
      "stateMutability": "view",
      "type": "function",
      "constant": true
    }
  ],
  "bytecode": "0x6000805461ffff19168155600181905560025560c0604052600460809081527f444542540000000000000000000000000000000000000000000000000000000060a052600a906200005190826200013d565b503480156200005f57600080fd5b5062000210565b7f4e487b7100000000000000000000000000000000000000000000000000000000600052604160045260246000fd5b600281046001821680620000aa57607f821691505b602082108103620000e4577f4e487b7100000000000000000000000000000000000000000000000000000000600052602260045260246000fd5b50919050565b601f82111562000138576000818152602081206020601f86010481016020861015620001135750805b6020601f860104820191505b8181101562000134578281556001016200011f565b5050505b505050565b815167ffffffffffffffff8111156200015a576200015a62000066565b62000172816200016b845462000095565b84620000ea565b602080601f831160018114620001ae5760008415620001915750858301515b60028086026008870290910a600019041982161786555062000134565b600085815260208120601f198616915b82811015620001df57888601518255948401946001909101908401620001be565b50858210156200020057878501516008601f88160260020a60001904191681555b5050505050600202600101905550565b610e0980620002206000396000f3fe608060405234801561001057600080fd5b50600436106101575760e060020a600035046306fdde03811461015c5780630b468fe11461017a5780631d14384814610191578063219f7e8d146101bc57806323b872dd146101c557806340f0eb35146101e857806352556421146101f057806361e763641461020157806362befb1e1461020a578063636110ee14610212578063723b4e8114610227578063752f769714610230578063839145401461023a5780638862d26a1461024557806389af2dce1461024d578063973ccf0e1461026057806397a67fe1146102925780639ac975601461029f578063a1305aa5146102b2578063a59ac6dd146102c2578063a5dea8a9146102d5578063aa3ad4e4146102e8578063beabacc8146102fb578063bf3986311461030e578063c4e41b2214610317578063cbc2bc431461031e578063de2b4e9814610330578063eaf4f27714610338575b600080fd5b610164610341565b6040516101719190610a08565b60405180910390f35b61018360085481565b604051908152602001610171565b6004546101a490600160a060020a031681565b604051600160a060020a039091168152602001610171565b61018360065481565b6101d86101d3366004610a72565b6103cf565b6040519015158152602001610171565b610164610462565b600454600160a060020a03166101a4565b61018360025481565b6101836104f4565b610225610220366004610aae565b6105f6565b005b61018360055481565b61018362ed4e0081565b6101836301e1338081565b61016461064a565b61018361025b366004610b37565b610657565b61027361026e366004610b52565b6106c4565b60408051600160a060020a039093168352602083019190915201610171565b6000546101d89060ff1681565b6102256102ad366004610aae565b6106fc565b600054610100900460ff166101d8565b6102256102d0366004610b6b565b505050565b6101836102e3366004610b52565b61073e565b6101d86102f6366004610a72565b61075b565b6101d8610309366004610a72565b6107e5565b61018360015481565b6000610183565b6000546101d890610100900460ff1681565b600154610183565b61018360075481565b6003805461034e90610b9e565b80601f016020809104026020016040519081016040528092919081815260200182805461037a90610b9e565b80156103c75780601f1061039c576101008083540402835291602001916103c7565b820191906000526020600020905b8154815290600101906020018083116103aa57829003601f168201915b505050505081565b60405160e060020a63d6fcb04b028152600160a060020a03838116600483015260248201839052606060448301526003606483015260e860020a624e2f410260848301526000919085169063d6fcb04b9060a4015b600060405180830381600087803b15801561043e57600080fd5b505af1158015610452573d6000803e3d6000fd5b50505050600190505b9392505050565b6060600a805461047190610b9e565b80601f016020809104026020016040519081016040528092919081815260200182805461049d90610b9e565b80156104ea5780601f106104bf576101008083540402835291602001916104ea565b820191906000526020600020905b8154815290600101906020018083116104cd57829003601f168201915b5050505050905090565b6000600654662386f26fc1000061050b9190610bf6565b60068190556005546000916064916105239190610bf6565b61052d9190610c0d565b905060008061053a610894565b905060015b8181116105b9576000670de0b6b3a76400006006546005546105619190610bf6565b61056b9190610c0d565b905060008261058287670de0b6b3a7640000610c33565b61058c9190610d2d565b90506105988183610c0d565b6105a29086610c33565b9450505080806105b190610d39565b91505061053f565b50806105cd84670de0b6b3a7640000610c33565b6105d79190610d2d565b6005546105e49190610c0d565b6105ee9083610c33565b949350505050565b6000805461ff001916610100851515021790556040517fd5d3710e87ad129534715c02a9b1de4c50bdc2faeaa8a34a0470039175e31f259061063d90859085908590610d52565b60405180910390a1505050565b600a805461034e90610b9e565b600081600160a060020a03166312065fe06040518163ffffffff1660e060020a028152600401602060405180830381865afa15801561069a573d6000803e3d6000fd5b505050506040513d601f19601f820116820180604052508101906106be9190610d8a565b92915050565b600981815481106106d457600080fd5b600091825260209091206002909102018054600190910154600160a060020a03909116915082565b6000805460ff19168415151790556040517faa4f09342ef9787b0bc3a7df0faa5f114a19a74a2f1e61dcfb504c484508f4ca9061063d90859085908590610d52565b60006106be61075461074e6104f4565b84610921565b6064610988565b60008054819060ff161515810361077a578061077681610da3565b9150505b600160a060020a038516610796578061079281610da3565b9150505b600160a060020a0384166107b257806107ae81610da3565b9150505b826000036107c857806107c481610da3565b9150505b806000036107da57600191505061045b565b506000949350505050565b600083600160a060020a031663095bcdb6848487600160a060020a031663afc96f796040518163ffffffff1660e060020a028152600401602060405180830381865afa158015610839573d6000803e3d6000fd5b505050506040513d601f19601f8201168201806040525081019061085d9190610d8a565b60405160e060020a63ffffffff8616028152600160a060020a03909316600484015260248301919091526044820152606401610424565b60004260075410156108ff5760405160e560020a62461bcd02815260206004820152602360248201527f4d617475726974792064617465206d75737420626520696e2074686520667574604482015260e860020a627572650260648201526084015b60405180910390fd5b60004260075461090f9190610dc0565b9050600061045b6301e1338083610c0d565b60008082116109755760405160e560020a62461bcd02815260206004820152601a60248201527f536166654d6174683a206469766973696f6e206279207a65726f00000000000060448201526064016108f6565b60008261098157600080fd5b5050900490565b6000828202821583820485141517156109a057600080fd5b826109ab8583610c0d565b1461045b5760405160e560020a62461bcd02815260206004820152602160248201527f536166654d6174683a206d756c7469706c69636174696f6e206f766572666c6f604482015260f860020a60770260648201526084016108f6565b600060208083528351808285015260005b81811015610a3557858101830151858201604001528201610a19565b506000604082860101526040601f19601f8301168501019250505092915050565b8035600160a060020a0381168114610a6d57600080fd5b919050565b600080600060608486031215610a8757600080fd5b610a9084610a56565b9250610a9e60208501610a56565b9150604084013590509250925092565b600080600060408486031215610ac357600080fd5b83358015158114610ad357600080fd5b925060208401356001604060020a0380821115610aef57600080fd5b818601915086601f830112610b0357600080fd5b813581811115610b1257600080fd5b876020828501011115610b2457600080fd5b6020830194508093505050509250925092565b600060208284031215610b4957600080fd5b61045b82610a56565b600060208284031215610b6457600080fd5b5035919050565b600080600060608486031215610b8057600080fd5b610b8984610a56565b95602085013595506040909401359392505050565b600281046001821680610bb257607f821691505b602082108103610bd65760e060020a634e487b710260009081526022600452602490fd5b50919050565b60e060020a634e487b710260009081526011600452602490fd5b80820281158282048414176106be576106be610bdc565b600082610c2e5760e060020a634e487b710260009081526012600452602490fd5b500490565b808201808211156106be576106be610bdc565b600181815b80851115610c83578160001904821115610c6757610c67610bdc565b80851615610c7457918102915b60029094049390800290610c4b565b509250929050565b600082610c9a575060016106be565b81610ca7575060006106be565b8160018114610cbd5760028114610cc757610ce4565b60019150506106be565b60ff841115610cd857610cd8610bdc565b8360020a9150506106be565b5060208310610133831016604e8410600b8410161715610d07575081810a6106be565b610d118383610c46565b8060001904821115610d2557610d25610bdc565b029392505050565b600061045b8383610c8b565b600060018201610d4b57610d4b610bdc565b5060010190565b831515815260406020820152816040820152818360608301376000818301606090810191909152601f909201601f1916010192915050565b600060208284031215610d9c57600080fd5b5051919050565b600060ff60020a8201610db857610db8610bdc565b506000190190565b818103818111156106be576106be610bdc56fea2646970667358221220c37de2277c2acf59bb40a9be39ae844ed91f0531fb8e8bb2d9f62d001e486bcc64736f6c63430008120033",
  "immutableReferences": {},
  "source": "// SPDX-License-Identifier: BSL-1.1\npragma solidity >=0.4.22 <0.9.0;\n\nimport \"../../interfaces/IPaymentWallet.sol\";\nimport \"../../abstract/ADebtToken.sol\";\n\ncontract RegAT1Debt is ADebtToken {\n    function validate(address from,address to,uint tokens) external view returns (bool) {\n        int valid = 0;\n        if (TRANSFERS_ACTIVE == false) {\n            valid--;\n        }\n        if (from == address(0x0)) {\n            valid--;\n        }\n        if (to == address(0x0)) {\n            valid--;\n        }\n        if (tokens == 0) {\n            valid--;\n        }\n        if (valid == 0) {\n            return true;\n        }\n        return false;\n    }\n    function transfer(address from,address to, uint tokens)  external returns (bool) {\n        IPaymentWallet(from).transfer(to, tokens, IPaymentWallet(from).getCVV());\n        return true;\n    }\n    function transferFrom(address from, address to, uint tokens)  external returns (bool) {\n        IPaymentWallet(from).transferFrom(to, tokens, \"N/A\");\n        return true;\n    }\n    function getBalanceFrom(address wallet) external view returns (uint256) {\n        return IPaymentWallet(wallet).getBalance();\n    }\n    function getTradingStatus() external view returns (bool) {\n        return TRADING_ACTIVE;\n    }\n\n    function buy(address wallet,uint256 tokens,uint256 Fee) external {\n\n    }\n\n    function getIssuer() external view returns (address) {\n        return issuer;\n    }\n    function getOutstandingShares() external view returns (uint256) {\n        return OUTSTANDING_SHARES;\n    }\n    function getTotalSupply() external view returns (uint256) {\n\n    }\n    function getOfferingType() external view returns (string memory) {\n        return offeringType;\n    }    \n}",
  "sourcePath": "/Volumes/My Book/projects/pingleware-contracts/contracts/finance/elmx/RegAT1Debt.sol",
  "compiler": {
    "name": "solc",
    "version": "0.8.18+commit.87f61d96.Emscripten.clang"
  },
  "schemaVersion": "3.4.12",
  "updatedAt": "2023-10-23T16:59:38.000Z",
  "networkType": "ethereum",
  "devdoc": {
    "kind": "dev",
    "methods": {},
    "version": 1
  },
  "userdoc": {
    "kind": "user",
    "methods": {},
    "version": 1
  }
}