{
  "contractName": "RegD506CDebt",
  "abi": [
    {
      "inputs": [
        {
          "internalType": "string",
          "name": "_bondName",
          "type": "string"
        },
        {
          "internalType": "uint256",
          "name": "_totalSupply",
          "type": "uint256"
        },
        {
          "internalType": "uint256",
          "name": "_bondPrice",
          "type": "uint256"
        },
        {
          "internalType": "uint256",
          "name": "_maturityDate",
          "type": "uint256"
        }
      ],
      "stateMutability": "nonpayable",
      "type": "constructor"
    },
    {
      "anonymous": false,
      "inputs": [
        {
          "indexed": true,
          "internalType": "address",
          "name": "purchaser",
          "type": "address"
        },
        {
          "indexed": false,
          "internalType": "uint256",
          "name": "amount",
          "type": "uint256"
        }
      ],
      "name": "BondPurchased",
      "type": "event"
    },
    {
      "anonymous": false,
      "inputs": [
        {
          "indexed": true,
          "internalType": "address",
          "name": "holder",
          "type": "address"
        },
        {
          "indexed": false,
          "internalType": "uint256",
          "name": "amount",
          "type": "uint256"
        }
      ],
      "name": "BondRedeemed",
      "type": "event"
    },
    {
      "inputs": [
        {
          "internalType": "address",
          "name": "",
          "type": "address"
        }
      ],
      "name": "accreditedInvestors",
      "outputs": [
        {
          "internalType": "bool",
          "name": "",
          "type": "bool"
        }
      ],
      "stateMutability": "view",
      "type": "function"
    },
    {
      "inputs": [
        {
          "internalType": "address",
          "name": "",
          "type": "address"
        }
      ],
      "name": "bondBalances",
      "outputs": [
        {
          "internalType": "uint256",
          "name": "",
          "type": "uint256"
        }
      ],
      "stateMutability": "view",
      "type": "function"
    },
    {
      "inputs": [],
      "name": "bondName",
      "outputs": [
        {
          "internalType": "string",
          "name": "",
          "type": "string"
        }
      ],
      "stateMutability": "view",
      "type": "function"
    },
    {
      "inputs": [],
      "name": "bondPrice",
      "outputs": [
        {
          "internalType": "uint256",
          "name": "",
          "type": "uint256"
        }
      ],
      "stateMutability": "view",
      "type": "function"
    },
    {
      "inputs": [],
      "name": "issuer",
      "outputs": [
        {
          "internalType": "address",
          "name": "",
          "type": "address"
        }
      ],
      "stateMutability": "view",
      "type": "function"
    },
    {
      "inputs": [],
      "name": "maturityDate",
      "outputs": [
        {
          "internalType": "uint256",
          "name": "",
          "type": "uint256"
        }
      ],
      "stateMutability": "view",
      "type": "function"
    },
    {
      "inputs": [],
      "name": "totalSupply",
      "outputs": [
        {
          "internalType": "uint256",
          "name": "",
          "type": "uint256"
        }
      ],
      "stateMutability": "view",
      "type": "function"
    },
    {
      "inputs": [
        {
          "internalType": "uint256",
          "name": "amount",
          "type": "uint256"
        }
      ],
      "name": "purchaseBonds",
      "outputs": [],
      "stateMutability": "payable",
      "type": "function"
    },
    {
      "inputs": [
        {
          "internalType": "uint256",
          "name": "amount",
          "type": "uint256"
        }
      ],
      "name": "redeemBonds",
      "outputs": [],
      "stateMutability": "nonpayable",
      "type": "function"
    },
    {
      "inputs": [
        {
          "internalType": "address",
          "name": "investor",
          "type": "address"
        }
      ],
      "name": "verifyAccreditedInvestor",
      "outputs": [],
      "stateMutability": "nonpayable",
      "type": "function"
    }
  ],
  "bytecode": "0x60806040523480156200001157600080fd5b5060405162000a9838038062000a98833981016040819052620000349162000097565b60008054600160a060020a0319163317905560016200005485826200022e565b506002929092556003556004555062000300565b7f4e487b7100000000000000000000000000000000000000000000000000000000600052604160045260246000fd5b60008060008060808587031215620000ae57600080fd5b84516001604060020a0380821115620000c657600080fd5b818701915087601f830112620000db57600080fd5b815181811115620000f057620000f062000068565b604051601f8201601f19908116603f011681019083821181831017156200011b576200011b62000068565b81604052828152602093508a848487010111156200013857600080fd5b600091505b828210156200015c57848201840151818301850152908301906200013d565b60009281018401929092525090870151604088015160609098015191999098509095509350505050565b6002810460018216806200019b57607f821691505b602082108103620001d5577f4e487b7100000000000000000000000000000000000000000000000000000000600052602260045260246000fd5b50919050565b601f82111562000229576000818152602081206020601f86010481016020861015620002045750805b6020601f860104820191505b81811015620002255782815560010162000210565b5050505b505050565b81516001604060020a038111156200024a576200024a62000068565b62000262816200025b845462000186565b84620001db565b602080601f8311600181146200029e5760008415620002815750858301515b60028086026008870290910a600019041982161786555062000225565b600085815260208120601f198616915b82811015620002cf57888601518255948401946001909101908401620002ae565b5085821015620002f057878501516008601f88160260020a60001904191681555b5050505050600202600101905550565b61078880620003106000396000f3fe6080604052600436106100845760e060020a6000350463011150b5811461008957806318160ddd1461009e5780631d143848146100c75780637a7c795f146100ff578063887b6abc1461012c5780638b03a9d71461014e578063a0eb24b51461016e578063d59624b4146101ae578063d7ccfb0b146101c4578063e189ce14146101da575b600080fd5b61009c610097366004610620565b6101fa565b005b3480156100aa57600080fd5b506100b460025481565b6040519081526020015b60405180910390f35b3480156100d357600080fd5b506000546100e790600160a060020a031681565b604051600160a060020a0390911681526020016100be565b34801561010b57600080fd5b506100b461011a366004610639565b60056020526000908152604090205481565b34801561013857600080fd5b5061014161037f565b6040516100be9190610669565b34801561015a57600080fd5b5061009c610169366004610639565b61040d565b34801561017a57600080fd5b5061019e610189366004610639565b60066020526000908152604090205460ff1681565b60405190151581526020016100be565b3480156101ba57600080fd5b506100b460045481565b3480156101d057600080fd5b506100b460035481565b3480156101e657600080fd5b5061009c6101f5366004610620565b6104a1565b60035461020790826106d1565b341461025b5760405160e560020a62461bcd0281526020600482015260186024820152604260020a77125b98dbdc9c9958dd081c185e5b595b9d08185b5bdd5b9d0260448201526064015b60405180910390fd5b60008111801561026d57506002548111155b6102b55760405160e560020a62461bcd0281526020600482015260136024820152606a60020a72125b9d985b1a5908189bdb9908185b5bdd5b9d026044820152606401610252565b60045442106103095760405160e560020a62461bcd02815260206004820152601a60248201527f426f6e64206d61747572697479206461746520726561636865640000000000006044820152606401610252565b33600090815260056020526040812080548392906103289084906106ee565b9250508190555080600260008282546103419190610701565b909155505060405181815233907f248070ea6f85b5889368a27f2ba7c8c06967ab3b9f89560a0f1997ee47f89b7f906020015b60405180910390a250565b6001805461038c90610714565b80601f01602080910402602001604051908101604052809291908181526020018280546103b890610714565b80156104055780601f106103da57610100808354040283529160200191610405565b820191906000526020600020905b8154815290600101906020018083116103e857829003601f168201915b505050505081565b600054600160a060020a0316331461047d5760405160e560020a62461bcd02815260206004820152602760248201527f4f6e6c7920746865206973737565722063616e20706572666f726d2074686973604482015260c960020a661030b1ba34b7b7026064820152608401610252565b600160a060020a03166000908152600660205260409020805460ff19166001179055565b3360009081526006602052604090205460ff166105145760405160e560020a62461bcd02815260206004820152602560248201527f4f6e6c79206163637265646974656420696e766573746f72732061726520616c604482015260da60020a641b1bddd959026064820152608401610252565b336000908152600560205260409020548111156105755760405160e560020a62461bcd0281526020600482015260196024820152603860020a78496e73756666696369656e7420626f6e642062616c616e6365026044820152606401610252565b3360009081526005602052604081208054839290610594908490610701565b9250508190555080600260008282546105ad91906106ee565b909155505060035433906108fc906105c590846106d1565b6040518115909202916000818181858888f193505050501580156105ed573d6000803e3d6000fd5b5060405181815233907fbbb59c50b3cd05fe4982a9bc1fbab45bd421ac707f4fba6b080522e3a9cc03b390602001610374565b60006020828403121561063257600080fd5b5035919050565b60006020828403121561064b57600080fd5b8135600160a060020a038116811461066257600080fd5b9392505050565b600060208083528351808285015260005b818110156106965785810183015185820160400152820161067a565b506000604082860101526040601f19601f8301168501019250505092915050565b60e060020a634e487b710260009081526011600452602490fd5b80820281158282048414176106e8576106e86106b7565b92915050565b808201808211156106e8576106e86106b7565b818103818111156106e8576106e86106b7565b60028104600182168061072857607f821691505b60208210810361074c5760e060020a634e487b710260009081526022600452602490fd5b5091905056fea26469706673582212200dc0cfa6d9d19ce604793df4bb152a04170370bd3b42166ea1831dd369f4745f64736f6c63430008120033",
  "immutableReferences": {},
  "source": "// SPDX-License-Identifier: BSL-1.1\npragma solidity >=0.4.22 <0.9.0;\n\ncontract RegD506CDebt {\n    address public issuer;  // The issuer of the bond\n    string public bondName;  // Name of the bond\n    uint256 public totalSupply;  // Total supply of bonds\n    uint256 public bondPrice;  // Price per bond\n    uint256 public maturityDate;  // Bond maturity date\n    mapping(address => uint256) public bondBalances;  // Bond balances for each investor\n    mapping(address => bool) public accreditedInvestors;  // Accredited investor status\n\n    event BondPurchased(address indexed purchaser, uint256 amount);\n    event BondRedeemed(address indexed holder, uint256 amount);\n\n    constructor(\n        string memory _bondName,\n        uint256 _totalSupply,\n        uint256 _bondPrice,\n        uint256 _maturityDate\n    ) {\n        issuer = msg.sender;\n        bondName = _bondName;\n        totalSupply = _totalSupply;\n        bondPrice = _bondPrice;\n        maturityDate = _maturityDate;\n    }\n\n    modifier onlyIssuer() {\n        require(msg.sender == issuer, \"Only the issuer can perform this action\");\n        _;\n    }\n\n    modifier onlyAccreditedInvestor() {\n        require(accreditedInvestors[msg.sender], \"Only accredited investors are allowed\");\n        _;\n    }\n\n    function purchaseBonds(uint256 amount) external payable {\n        require(msg.value == amount * bondPrice, \"Incorrect payment amount\");\n        require(amount > 0 && amount <= totalSupply, \"Invalid bond amount\");\n        require(block.timestamp < maturityDate, \"Bond maturity date reached\");\n\n        bondBalances[msg.sender] += amount;\n        totalSupply -= amount;\n        emit BondPurchased(msg.sender, amount);\n    }\n\n    function redeemBonds(uint256 amount) external onlyAccreditedInvestor {\n        require(bondBalances[msg.sender] >= amount, \"Insufficient bond balance\");\n\n        bondBalances[msg.sender] -= amount;\n        totalSupply += amount;\n        payable(msg.sender).transfer(amount * bondPrice);\n        emit BondRedeemed(msg.sender, amount);\n    }\n\n    function verifyAccreditedInvestor(address investor) external onlyIssuer {\n        accreditedInvestors[investor] = true;\n    }\n\n    // Additional functions for managing the bond contract, compliance checks, and reporting.\n\n}",
  "sourcePath": "/Volumes/My Book/projects/pingleware-contracts/contracts/finance/elmx/RegD506CDebt.sol",
  "compiler": {
    "name": "solc",
    "version": "0.8.18+commit.87f61d96.Emscripten.clang"
  },
  "schemaVersion": "3.4.12",
  "updatedAt": "2023-10-26T20:32:53.453Z",
  "devdoc": {
    "kind": "dev",
    "methods": {},
    "version": 1
  },
  "userdoc": {
    "kind": "user",
    "methods": {},
    "version": 1
  }
}