{
  "contractName": "RegD506CEquity",
  "abi": [
    {
      "inputs": [
        {
          "internalType": "string",
          "name": "_offeringName",
          "type": "string"
        },
        {
          "internalType": "string",
          "name": "_offeringDescription",
          "type": "string"
        },
        {
          "internalType": "uint256",
          "name": "_totalSupply",
          "type": "uint256"
        },
        {
          "internalType": "uint256",
          "name": "_minimumInvestmentAmount",
          "type": "uint256"
        },
        {
          "internalType": "uint256",
          "name": "_maximumInvestmentAmount",
          "type": "uint256"
        }
      ],
      "stateMutability": "nonpayable",
      "type": "constructor"
    },
    {
      "anonymous": false,
      "inputs": [
        {
          "indexed": true,
          "internalType": "address",
          "name": "badActor",
          "type": "address"
        }
      ],
      "name": "BadActorIdentified",
      "type": "event"
    },
    {
      "anonymous": false,
      "inputs": [
        {
          "indexed": true,
          "internalType": "address",
          "name": "investor",
          "type": "address"
        }
      ],
      "name": "InvestorVerified",
      "type": "event"
    },
    {
      "anonymous": false,
      "inputs": [
        {
          "indexed": true,
          "internalType": "address",
          "name": "investor",
          "type": "address"
        },
        {
          "indexed": false,
          "internalType": "uint256",
          "name": "amount",
          "type": "uint256"
        }
      ],
      "name": "TokensPurchased",
      "type": "event"
    },
    {
      "anonymous": false,
      "inputs": [
        {
          "indexed": true,
          "internalType": "address",
          "name": "from",
          "type": "address"
        },
        {
          "indexed": true,
          "internalType": "address",
          "name": "to",
          "type": "address"
        },
        {
          "indexed": false,
          "internalType": "uint256",
          "name": "amount",
          "type": "uint256"
        }
      ],
      "name": "TokensTransferred",
      "type": "event"
    },
    {
      "inputs": [],
      "name": "accreditedInvestorCount",
      "outputs": [
        {
          "internalType": "uint256",
          "name": "",
          "type": "uint256"
        }
      ],
      "stateMutability": "view",
      "type": "function",
      "constant": true
    },
    {
      "inputs": [
        {
          "internalType": "address",
          "name": "",
          "type": "address"
        }
      ],
      "name": "accreditedInvestors",
      "outputs": [
        {
          "internalType": "bool",
          "name": "",
          "type": "bool"
        }
      ],
      "stateMutability": "view",
      "type": "function",
      "constant": true
    },
    {
      "inputs": [
        {
          "internalType": "address",
          "name": "",
          "type": "address"
        }
      ],
      "name": "badActors",
      "outputs": [
        {
          "internalType": "bool",
          "name": "",
          "type": "bool"
        }
      ],
      "stateMutability": "view",
      "type": "function",
      "constant": true
    },
    {
      "inputs": [],
      "name": "issuer",
      "outputs": [
        {
          "internalType": "address",
          "name": "",
          "type": "address"
        }
      ],
      "stateMutability": "view",
      "type": "function",
      "constant": true
    },
    {
      "inputs": [
        {
          "internalType": "address",
          "name": "",
          "type": "address"
        }
      ],
      "name": "jurisdictions",
      "outputs": [
        {
          "internalType": "string",
          "name": "",
          "type": "string"
        }
      ],
      "stateMutability": "view",
      "type": "function",
      "constant": true
    },
    {
      "inputs": [],
      "name": "maximumInvestmentAmount",
      "outputs": [
        {
          "internalType": "uint256",
          "name": "",
          "type": "uint256"
        }
      ],
      "stateMutability": "view",
      "type": "function",
      "constant": true
    },
    {
      "inputs": [],
      "name": "minimumInvestmentAmount",
      "outputs": [
        {
          "internalType": "uint256",
          "name": "",
          "type": "uint256"
        }
      ],
      "stateMutability": "view",
      "type": "function",
      "constant": true
    },
    {
      "inputs": [],
      "name": "offeringClosed",
      "outputs": [
        {
          "internalType": "bool",
          "name": "",
          "type": "bool"
        }
      ],
      "stateMutability": "view",
      "type": "function",
      "constant": true
    },
    {
      "inputs": [],
      "name": "offeringDescription",
      "outputs": [
        {
          "internalType": "string",
          "name": "",
          "type": "string"
        }
      ],
      "stateMutability": "view",
      "type": "function",
      "constant": true
    },
    {
      "inputs": [],
      "name": "offeringName",
      "outputs": [
        {
          "internalType": "string",
          "name": "",
          "type": "string"
        }
      ],
      "stateMutability": "view",
      "type": "function",
      "constant": true
    },
    {
      "inputs": [],
      "name": "owner",
      "outputs": [
        {
          "internalType": "address",
          "name": "",
          "type": "address"
        }
      ],
      "stateMutability": "view",
      "type": "function",
      "constant": true
    },
    {
      "inputs": [
        {
          "internalType": "string",
          "name": "",
          "type": "string"
        }
      ],
      "name": "registeredStates",
      "outputs": [
        {
          "internalType": "bool",
          "name": "",
          "type": "bool"
        }
      ],
      "stateMutability": "view",
      "type": "function",
      "constant": true
    },
    {
      "inputs": [
        {
          "internalType": "address",
          "name": "",
          "type": "address"
        }
      ],
      "name": "tokenBalances",
      "outputs": [
        {
          "internalType": "uint256",
          "name": "",
          "type": "uint256"
        }
      ],
      "stateMutability": "view",
      "type": "function",
      "constant": true
    },
    {
      "inputs": [],
      "name": "totalSupply",
      "outputs": [
        {
          "internalType": "uint256",
          "name": "",
          "type": "uint256"
        }
      ],
      "stateMutability": "view",
      "type": "function",
      "constant": true
    },
    {
      "inputs": [
        {
          "internalType": "address",
          "name": "_investor",
          "type": "address"
        }
      ],
      "name": "verifyInvestor",
      "outputs": [],
      "stateMutability": "nonpayable",
      "type": "function"
    },
    {
      "inputs": [
        {
          "internalType": "address",
          "name": "_badActor",
          "type": "address"
        }
      ],
      "name": "identifyBadActor",
      "outputs": [],
      "stateMutability": "nonpayable",
      "type": "function"
    },
    {
      "inputs": [],
      "name": "closeOffering",
      "outputs": [],
      "stateMutability": "nonpayable",
      "type": "function"
    },
    {
      "inputs": [
        {
          "internalType": "uint256",
          "name": "_amount",
          "type": "uint256"
        }
      ],
      "name": "purchaseTokens",
      "outputs": [],
      "stateMutability": "payable",
      "type": "function",
      "payable": true
    },
    {
      "inputs": [
        {
          "internalType": "address",
          "name": "_to",
          "type": "address"
        },
        {
          "internalType": "uint256",
          "name": "_amount",
          "type": "uint256"
        }
      ],
      "name": "transferTokens",
      "outputs": [],
      "stateMutability": "nonpayable",
      "type": "function"
    },
    {
      "inputs": [
        {
          "internalType": "address",
          "name": "_investor",
          "type": "address"
        }
      ],
      "name": "checkRule506CCompliance",
      "outputs": [
        {
          "internalType": "bool",
          "name": "",
          "type": "bool"
        }
      ],
      "stateMutability": "view",
      "type": "function",
      "constant": true
    },
    {
      "inputs": [
        {
          "internalType": "string",
          "name": "state",
          "type": "string"
        }
      ],
      "name": "registerState",
      "outputs": [],
      "stateMutability": "nonpayable",
      "type": "function"
    },
    {
      "inputs": [
        {
          "internalType": "string",
          "name": "state",
          "type": "string"
        }
      ],
      "name": "unregisterState",
      "outputs": [],
      "stateMutability": "nonpayable",
      "type": "function"
    },
    {
      "inputs": [
        {
          "internalType": "address",
          "name": "investor",
          "type": "address"
        }
      ],
      "name": "isInvestorEligible",
      "outputs": [
        {
          "internalType": "bool",
          "name": "",
          "type": "bool"
        }
      ],
      "stateMutability": "view",
      "type": "function",
      "constant": true
    },
    {
      "inputs": [
        {
          "internalType": "address",
          "name": "wallet",
          "type": "address"
        },
        {
          "internalType": "string",
          "name": "state",
          "type": "string"
        }
      ],
      "name": "updatedInvestorJurisdiction",
      "outputs": [],
      "stateMutability": "nonpayable",
      "type": "function"
    }
  ],
  "bytecode": "0x60806040523480156200001157600080fd5b50604051620013fb380380620013fb833981016040819052620000349162000160565b60018054600160a060020a0319163317905560026200005486826200028d565b5060036200006385826200028d565b5060049290925560065560075550506008805460ff191690556200035f565b7f4e487b7100000000000000000000000000000000000000000000000000000000600052604160045260246000fd5b600082601f830112620000c357600080fd5b81516001604060020a0380821115620000e057620000e062000082565b604051601f8301601f19908116603f011681019082821181831017156200010b576200010b62000082565b816040528381526020925086838588010111156200012857600080fd5b600091505b838210156200014c57858201830151818301840152908201906200012d565b600093810190920192909252949350505050565b600080600080600060a086880312156200017957600080fd5b85516001604060020a03808211156200019157600080fd5b6200019f89838a01620000b1565b96506020880151915080821115620001b657600080fd5b50620001c588828901620000b1565b60408801516060890151608090990151979a919950979695509350505050565b600281046001821680620001fa57607f821691505b60208210810362000234577f4e487b7100000000000000000000000000000000000000000000000000000000600052602260045260246000fd5b50919050565b601f82111562000288576000818152602081206020601f86010481016020861015620002635750805b6020601f860104820191505b8181101562000284578281556001016200026f565b5050505b505050565b81516001604060020a03811115620002a957620002a962000082565b620002c181620002ba8454620001e5565b846200023a565b602080601f831160018114620002fd5760008415620002e05750858301515b60028086026008870290910a600019041982161786555062000284565b600085815260208120601f198616915b828110156200032e578886015182559484019460019091019084016200030d565b50858210156200034f57878501516008601f88160260020a60001904191681555b5050505050600202600101905550565b61108c806200036f6000396000f3fe60806040526004361061011e5760e060020a60003504630b8707cd811461012357806318160ddd1461015957806318a566151461017d5780631d143848146101935780632c53fad9146101cb5780632f8b6915146101e1578063523fba7f14610203578063559d3d4b1461023057806355bc48721461025a57806358c626f71461027a5780636618231f146102aa578063695ce44c146102c05780637073a111146102e05780637b97008d146103005780637e01d35b146103135780638da5cb5b14610333578063a0eb24b514610353578063ab7294f014610383578063ba22fdad14610398578063bec3fa17146103d3578063d60d8255146103f3578063d84dbdc314610413578063e74bffc014610433578063fb0dc24414610448575b600080fd5b34801561012f57600080fd5b5061014361013e366004610b63565b61045d565b6040516101509190610ba9565b60405180910390f35b34801561016557600080fd5b5061016f60045481565b604051908152602001610150565b34801561018957600080fd5b5061016f60075481565b34801561019f57600080fd5b506001546101b390600160a060020a031681565b604051600160a060020a039091168152602001610150565b3480156101d757600080fd5b5061016f60055481565b3480156101ed57600080fd5b506102016101fc366004610c82565b6104f7565b005b34801561020f57600080fd5b5061016f61021e366004610b63565b600c6020526000908152604090205481565b34801561023c57600080fd5b5060085461024a9060ff1681565b6040519015158152602001610150565b34801561026657600080fd5b50610201610275366004610ccf565b610554565b34801561028657600080fd5b5061024a610295366004610b63565b600a6020526000908152604090205460ff1681565b3480156102b657600080fd5b5061016f60065481565b3480156102cc57600080fd5b506102016102db366004610ccf565b6105b6565b3480156102ec57600080fd5b5061024a6102fb366004610b63565b6105f5565b61020161030e366004610d0b565b610635565b34801561031f57600080fd5b5061024a61032e366004610b63565b61086f565b34801561033f57600080fd5b506000546101b390600160a060020a031681565b34801561035f57600080fd5b5061024a61036e366004610b63565b60096020526000908152604090205460ff1681565b34801561038f57600080fd5b506102016108c5565b3480156103a457600080fd5b5061024a6103b3366004610ccf565b8051602081830181018051600d8252928201919093012091525460ff1681565b3480156103df57600080fd5b506102016103ee366004610d24565b610927565b3480156103ff57600080fd5b5061020161040e366004610b63565b610a1a565b34801561041f57600080fd5b5061020161042e366004610b63565b610a93565b34801561043f57600080fd5b50610143610b2d565b34801561045457600080fd5b50610143610b3a565b600b602052600090815260409020805461047690610d4e565b80601f01602080910402602001604051908101604052809291908181526020018280546104a290610d4e565b80156104ef5780601f106104c4576101008083540402835291602001916104ef565b820191906000526020600020905b8154815290600101906020018083116104d257829003601f168201915b505050505081565b600154600160a060020a0316331461052d5760405160e560020a62461bcd02815260040161052490610d8c565b60405180910390fd5b600160a060020a0382166000908152600b6020526040902061054f8282610e24565b505050565b600054600160a060020a031633146105815760405160e560020a62461bcd02815260040161052490610ee9565b6001600d826040516105939190610f32565b908152604051908190036020019020805491151560ff1990921691909117905550565b600054600160a060020a031633146105e35760405160e560020a62461bcd02815260040161052490610ee9565b6000600d826040516105939190610f32565b600160a060020a0381166000908152600b60205260408082209051600d9161061c91610f4e565b9081526040519081900360200190205460ff1692915050565b60085460ff161561065b5760405160e560020a62461bcd02815260040161052490610fc4565b3360009081526009602052604090205460ff166106d25760405160e560020a62461bcd02815260206004820152602960248201527f4f6e6c79206163637265646974656420696e766573746f72732063616e207061604482015260b860020a68727469636970617465026064820152608401610524565b336000908152600a602052604090205460ff16156107435760405160e560020a62461bcd02815260206004820152602260248201527f496e766573746f72206964656e74696669656420617320612062616420616374604482015260f160020a6137b9026064820152608401610524565b8034101561078e5760405160e560020a62461bcd0281526020600482015260126024820152607060020a71496e73756666696369656e742066756e6473026044820152606401610524565b6006548110156107e25760405160e560020a62461bcd0281526020600482015260196024820152603860020a78496e766573746d656e7420616d6f756e7420746f6f206c6f77026044820152606401610524565b6007548111156108375760405160e560020a62461bcd02815260206004820152601a60248201527f496e766573746d656e7420616d6f756e7420746f6f20686967680000000000006044820152606401610524565b60405181815233907f8f28852646c20cc973d3a8218f7eefed58c25c909f78f0265af4818c3d4dc2719060200160405180910390a250565b600160a060020a03811660009081526009602052604081205460ff1680156108b05750600160a060020a0382166000908152600a602052604090205460ff16155b156108bd57506001919050565b506000919050565b600154600160a060020a031633146108f25760405160e560020a62461bcd02815260040161052490610d8c565b60085460ff16156109185760405160e560020a62461bcd02815260040161052490610fc4565b6008805460ff19166001179055565b336000908152600c602052604090205481908111156109845760405160e560020a62461bcd0281526020600482015260136024820152606860020a72496e73756666696369656e7420746f6b656e73026044820152606401610524565b336000908152600c6020526040812080548492906109a3908490611011565b9091555050600160a060020a0383166000908152600c6020526040812080548492906109d090849061102a565b9091555050604051828152600160a060020a0384169033907f1b89874203ff7f0bba87c969ada3f32fda22ed38a6706d35199d21280c7811b19060200160405180910390a3505050565b600154600160a060020a03163314610a475760405160e560020a62461bcd02815260040161052490610d8c565b600160a060020a0381166000818152600a6020526040808220805460ff19166001179055517f255182dbb9c6b2db1d282ff7423a11c75d0ec777156e0798aaa533d10f76f0c79190a250565b600154600160a060020a03163314610ac05760405160e560020a62461bcd02815260040161052490610d8c565b600160a060020a0381166000908152600960205260408120805460ff191660011790556005805491610af18361103d565b9091555050604051600160a060020a038216907f293e993e01bc214772c3f076d0b72798191877356179e95807eba63d2f8d2df290600090a250565b6002805461047690610d4e565b6003805461047690610d4e565b8035600160a060020a0381168114610b5e57600080fd5b919050565b600060208284031215610b7557600080fd5b610b7e82610b47565b9392505050565b60005b83811015610ba0578181015183820152602001610b88565b50506000910152565b6020815260008251806020840152610bc8816040850160208701610b85565b601f01601f19169190910160400192915050565b60e060020a634e487b710260009081526041600452602490fd5b600082601f830112610c0757600080fd5b81356001604060020a0380821115610c2157610c21610bdc565b604051601f8301601f19908116603f01168101908282118183101715610c4957610c49610bdc565b81604052838152866020858801011115610c6257600080fd5b836020870160208301376000602085830101528094505050505092915050565b60008060408385031215610c9557600080fd5b610c9e83610b47565b915060208301356001604060020a03811115610cb957600080fd5b610cc585828601610bf6565b9150509250929050565b600060208284031215610ce157600080fd5b81356001604060020a03811115610cf757600080fd5b610d0384828501610bf6565b949350505050565b600060208284031215610d1d57600080fd5b5035919050565b60008060408385031215610d3757600080fd5b610d4083610b47565b946020939093013593505050565b600281046001821680610d6257607f821691505b602082108103610d865760e060020a634e487b710260009081526022600452602490fd5b50919050565b60208082526027908201527f4f6e6c7920746865206973737565722063616e20706572666f726d2074686973604082015260c960020a661030b1ba34b7b702606082015260800190565b601f82111561054f576000818152602081206020601f86010481016020861015610dfd5750805b6020601f860104820191505b81811015610e1c57828155600101610e09565b505050505050565b81516001604060020a03811115610e3d57610e3d610bdc565b610e5181610e4b8454610d4e565b84610dd6565b602080601f831160018114610e8a5760008415610e6e5750858301515b60028086026008870290910a6000190419821617865550610e1c565b600085815260208120601f198616915b82811015610eb957888601518255948401946001909101908401610e9a565b5085821015610ed957878501516008601f88160260020a60001904191681555b5050505050600202600101905550565b60208082526026908201527f4f6e6c7920746865206f776e65722063616e20706572666f726d207468697320604082015260d160020a6530b1ba34b7b702606082015260800190565b60008251610f44818460208701610b85565b9190910192915050565b6000808354610f5c81610d4e565b60018281168015610f745760018114610f8957610fb8565b60ff1984168752821515830287019450610fb8565b8760005260208060002060005b85811015610faf5781548a820152908401908201610f96565b50505082870194505b50929695505050505050565b6020808252601690820152605260020a75151a19481bd999995c9a5b99c81a5cc818db1bdcd95902604082015260600190565b60e060020a634e487b710260009081526011600452602490fd5b8181038181111561102457611024610ff7565b92915050565b8082018082111561102457611024610ff7565b60006001820161104f5761104f610ff7565b506001019056fea2646970667358221220edcf5b77037f56654ba1412c7977c89d164c91bc5636ae5a98f82f0b4157b2ca64736f6c63430008120033",
  "immutableReferences": {},
  "source": "// SPDX-License-Identifier: BSL-1.1\npragma solidity >=0.4.22 <0.9.0;\n\ncontract RegD506CEquity  {\n    address public owner;\n    address public issuer; // The issuer of the security tokens\n    string public offeringName;\n    string public offeringDescription;\n    uint256 public totalSupply;\n    uint256 public accreditedInvestorCount;\n    uint256 public minimumInvestmentAmount;\n    uint256 public maximumInvestmentAmount;\n    bool public offeringClosed;\n\n    mapping(address => bool) public accreditedInvestors;\n    mapping(address => bool) public badActors;\n    mapping(address => string) public jurisdictions;\n\n    event InvestorVerified(address indexed investor);\n    event BadActorIdentified(address indexed badActor);\n    event TokensPurchased(address indexed investor, uint256 amount);\n\n    constructor(\n        string memory _offeringName,\n        string memory _offeringDescription,\n        uint256 _totalSupply,\n        uint256 _minimumInvestmentAmount,\n        uint256 _maximumInvestmentAmount\n    ) {\n        issuer = msg.sender;\n        offeringName = _offeringName;\n        offeringDescription = _offeringDescription;\n        totalSupply = _totalSupply;\n        minimumInvestmentAmount = _minimumInvestmentAmount;\n        maximumInvestmentAmount = _maximumInvestmentAmount;\n        offeringClosed = false;\n    }\n\n    modifier onlyOwner() {\n        require(msg.sender == owner, \"Only the owner can perform this action\");\n        _;\n    }\n\n    modifier onlyIssuer() {\n        require(msg.sender == issuer, \"Only the issuer can perform this action\");\n        _;\n    }\n\n    modifier offeringOpen() {\n        require(!offeringClosed, \"The offering is closed\");\n        _;\n    }\n\n    modifier accreditedInvestor() {\n        require(accreditedInvestors[msg.sender], \"Only accredited investors can participate\");\n        _;\n    }\n\n    modifier notBadActor() {\n        require(!badActors[msg.sender], \"Investor identified as a bad actor\");\n        _;\n    }\n\n    function verifyInvestor(address _investor) public onlyIssuer {\n        accreditedInvestors[_investor] = true;\n        accreditedInvestorCount++;\n        emit InvestorVerified(_investor);\n    }\n\n    function identifyBadActor(address _badActor) public onlyIssuer {\n        badActors[_badActor] = true;\n        emit BadActorIdentified(_badActor);\n    }\n\n    function closeOffering() public onlyIssuer offeringOpen {\n        offeringClosed = true;\n    }\n\n    function purchaseTokens(uint256 _amount) public payable offeringOpen accreditedInvestor notBadActor {\n        require(msg.value >= _amount, \"Insufficient funds\");\n        require(_amount >= minimumInvestmentAmount, \"Investment amount too low\");\n        require(_amount <= maximumInvestmentAmount, \"Investment amount too high\");\n        // Implement token transfer logic here\n        emit TokensPurchased(msg.sender, _amount);\n    }\n\n    mapping(address => uint256) public tokenBalances;\n\n    event TokensTransferred(address indexed from, address indexed to, uint256 amount);\n\n    modifier transferableTokens(uint256 _amount) {\n        require(tokenBalances[msg.sender] >= _amount, \"Insufficient tokens\");\n        _;\n    }\n\n    function transferTokens(address _to, uint256 _amount) public transferableTokens(_amount) {\n        tokenBalances[msg.sender] -= _amount;\n        tokenBalances[_to] += _amount;\n        emit TokensTransferred(msg.sender, _to, _amount);\n    }\n\n    // Implement a compliance check function for Rule 506(c).\n    // This function should check whether the investor is accredited and not a bad actor.\n    function checkRule506CCompliance(address _investor) public view returns (bool) {\n        if (accreditedInvestors[_investor] && !badActors[_investor]) {\n            return true;\n        }\n        return false;\n    }\n\n    // Implement functions to issue and manage tokens.\n    // You can use popular token standards like ERC20 or ERC721, depending on your requirements.\n\n    // Implement state registration check.\n    mapping(string => bool) public registeredStates;  // Mapping of registered states\n\n    function registerState(string memory state) public onlyOwner {\n        registeredStates[state] = true;\n    }\n\n    function unregisterState(string memory state) public onlyOwner {\n        registeredStates[state] = false;\n    }\n\n    function isInvestorEligible(address investor) public view returns (bool) {\n        return registeredStates[jurisdictions[investor]];\n    }\n\n    // Implement additional functions for the STO.\n\n    // Implement regulatory compliance checks for Rule 506(c).\n    function updatedInvestorJurisdiction(address wallet,string memory state) public onlyIssuer {\n        jurisdictions[wallet] = state;\n    } \n    // Implement additional functions for the STO, such as transferring tokens, compliance checks, and more.\n\n}",
  "sourcePath": "/Volumes/My Book/projects/pingleware-contracts/contracts/finance/elmx/RegD506CEquity.sol",
  "compiler": {
    "name": "solc",
    "version": "0.8.18+commit.87f61d96.Emscripten.clang"
  },
  "schemaVersion": "3.4.12",
  "updatedAt": "2023-10-24T03:00:48.985Z",
  "networkType": "ethereum",
  "devdoc": {
    "kind": "dev",
    "methods": {},
    "version": 1
  },
  "userdoc": {
    "kind": "user",
    "methods": {},
    "version": 1
  }
}