{
  "contractName": "RentalCar",
  "abi": [
    {
      "inputs": [],
      "stateMutability": "nonpayable",
      "type": "constructor"
    },
    {
      "anonymous": false,
      "inputs": [
        {
          "indexed": false,
          "internalType": "address",
          "name": "consumer",
          "type": "address"
        },
        {
          "indexed": false,
          "internalType": "uint256",
          "name": "timestamp",
          "type": "uint256"
        }
      ],
      "name": "ConsumerAdded",
      "type": "event"
    },
    {
      "anonymous": false,
      "inputs": [
        {
          "indexed": false,
          "internalType": "address",
          "name": "consumer",
          "type": "address"
        },
        {
          "components": [
            {
              "internalType": "string",
              "name": "vin",
              "type": "string"
            },
            {
              "internalType": "string",
              "name": "tag",
              "type": "string"
            },
            {
              "internalType": "string",
              "name": "state",
              "type": "string"
            },
            {
              "internalType": "string",
              "name": "make",
              "type": "string"
            },
            {
              "internalType": "string",
              "name": "model",
              "type": "string"
            },
            {
              "internalType": "uint256",
              "name": "year",
              "type": "uint256"
            }
          ],
          "indexed": false,
          "internalType": "struct RentalCar.Vehicle",
          "name": "vehicle",
          "type": "tuple"
        },
        {
          "indexed": false,
          "internalType": "uint256",
          "name": "timestamp",
          "type": "uint256"
        }
      ],
      "name": "RentalAdded",
      "type": "event"
    },
    {
      "anonymous": false,
      "inputs": [
        {
          "indexed": false,
          "internalType": "address",
          "name": "consumer",
          "type": "address"
        },
        {
          "components": [
            {
              "internalType": "string",
              "name": "vin",
              "type": "string"
            },
            {
              "internalType": "string",
              "name": "tag",
              "type": "string"
            },
            {
              "internalType": "string",
              "name": "state",
              "type": "string"
            },
            {
              "internalType": "string",
              "name": "make",
              "type": "string"
            },
            {
              "internalType": "string",
              "name": "model",
              "type": "string"
            },
            {
              "internalType": "uint256",
              "name": "year",
              "type": "uint256"
            }
          ],
          "indexed": false,
          "internalType": "struct RentalCar.Vehicle",
          "name": "vehicle",
          "type": "tuple"
        },
        {
          "indexed": false,
          "internalType": "uint256",
          "name": "extendedDate",
          "type": "uint256"
        },
        {
          "indexed": false,
          "internalType": "uint256",
          "name": "timestamp",
          "type": "uint256"
        }
      ],
      "name": "RentalExtended",
      "type": "event"
    },
    {
      "anonymous": false,
      "inputs": [
        {
          "indexed": false,
          "internalType": "address",
          "name": "consumer",
          "type": "address"
        },
        {
          "components": [
            {
              "internalType": "string",
              "name": "vin",
              "type": "string"
            },
            {
              "internalType": "string",
              "name": "tag",
              "type": "string"
            },
            {
              "internalType": "string",
              "name": "state",
              "type": "string"
            },
            {
              "internalType": "string",
              "name": "make",
              "type": "string"
            },
            {
              "internalType": "string",
              "name": "model",
              "type": "string"
            },
            {
              "internalType": "uint256",
              "name": "year",
              "type": "uint256"
            }
          ],
          "indexed": false,
          "internalType": "struct RentalCar.Vehicle",
          "name": "vehicle",
          "type": "tuple"
        },
        {
          "indexed": false,
          "internalType": "uint256",
          "name": "timestamp",
          "type": "uint256"
        }
      ],
      "name": "RentalReturned",
      "type": "event"
    },
    {
      "anonymous": false,
      "inputs": [
        {
          "indexed": false,
          "internalType": "uint256",
          "name": "timestamp",
          "type": "uint256"
        },
        {
          "components": [
            {
              "internalType": "string",
              "name": "vin",
              "type": "string"
            },
            {
              "internalType": "string",
              "name": "tag",
              "type": "string"
            },
            {
              "internalType": "string",
              "name": "state",
              "type": "string"
            },
            {
              "internalType": "string",
              "name": "make",
              "type": "string"
            },
            {
              "internalType": "string",
              "name": "model",
              "type": "string"
            },
            {
              "internalType": "uint256",
              "name": "year",
              "type": "uint256"
            }
          ],
          "indexed": false,
          "internalType": "struct RentalCar.Vehicle",
          "name": "vehicle",
          "type": "tuple"
        }
      ],
      "name": "VehicleAdded",
      "type": "event"
    },
    {
      "inputs": [],
      "name": "getVehicles",
      "outputs": [
        {
          "internalType": "uint256[]",
          "name": "",
          "type": "uint256[]"
        }
      ],
      "stateMutability": "view",
      "type": "function"
    },
    {
      "inputs": [
        {
          "internalType": "uint256",
          "name": "timestamp",
          "type": "uint256"
        },
        {
          "internalType": "string",
          "name": "vin",
          "type": "string"
        },
        {
          "internalType": "string",
          "name": "tag",
          "type": "string"
        },
        {
          "internalType": "string",
          "name": "state",
          "type": "string"
        },
        {
          "internalType": "string",
          "name": "make",
          "type": "string"
        },
        {
          "internalType": "string",
          "name": "model",
          "type": "string"
        },
        {
          "internalType": "uint256",
          "name": "year",
          "type": "uint256"
        }
      ],
      "name": "addVehicle",
      "outputs": [
        {
          "internalType": "uint256",
          "name": "",
          "type": "uint256"
        }
      ],
      "stateMutability": "payable",
      "type": "function"
    },
    {
      "inputs": [
        {
          "internalType": "address",
          "name": "consumer",
          "type": "address"
        },
        {
          "internalType": "uint256",
          "name": "timestamp",
          "type": "uint256"
        }
      ],
      "name": "addConsumer",
      "outputs": [
        {
          "internalType": "uint256",
          "name": "",
          "type": "uint256"
        }
      ],
      "stateMutability": "payable",
      "type": "function"
    },
    {
      "inputs": [
        {
          "internalType": "uint256",
          "name": "vehicleTimestamp",
          "type": "uint256"
        },
        {
          "internalType": "address",
          "name": "consumer",
          "type": "address"
        },
        {
          "internalType": "uint256",
          "name": "timestamp",
          "type": "uint256"
        },
        {
          "internalType": "uint256",
          "name": "expiry",
          "type": "uint256"
        }
      ],
      "name": "newRental",
      "outputs": [
        {
          "internalType": "uint256",
          "name": "",
          "type": "uint256"
        }
      ],
      "stateMutability": "payable",
      "type": "function"
    },
    {
      "inputs": [
        {
          "internalType": "uint256",
          "name": "vehicleTimestamp",
          "type": "uint256"
        },
        {
          "internalType": "address",
          "name": "consumer",
          "type": "address"
        },
        {
          "internalType": "uint256",
          "name": "validation",
          "type": "uint256"
        }
      ],
      "name": "addValidation",
      "outputs": [],
      "stateMutability": "payable",
      "type": "function"
    },
    {
      "inputs": [
        {
          "internalType": "uint256",
          "name": "rentalTimestamp",
          "type": "uint256"
        },
        {
          "internalType": "uint256",
          "name": "expiry",
          "type": "uint256"
        }
      ],
      "name": "extendRental",
      "outputs": [
        {
          "internalType": "uint256",
          "name": "",
          "type": "uint256"
        }
      ],
      "stateMutability": "payable",
      "type": "function"
    },
    {
      "inputs": [
        {
          "internalType": "uint256",
          "name": "rentalTimestamp",
          "type": "uint256"
        },
        {
          "internalType": "uint256",
          "name": "timestamp",
          "type": "uint256"
        },
        {
          "internalType": "uint256",
          "name": "validation",
          "type": "uint256"
        }
      ],
      "name": "returnRental",
      "outputs": [
        {
          "internalType": "uint256",
          "name": "",
          "type": "uint256"
        }
      ],
      "stateMutability": "payable",
      "type": "function"
    }
  ],
  "bytecode": "0x608080604052346100285760008054600160a060020a031916331790556115e1908161002e8239f35b600080fdfe6080604052600436101561001257600080fd5b60e060020a600035046317da32a781146110825780632d4b20fd14610a5e5780632fc8ad4414610404578063317a5ac81461028257806386beff43146101fe578063951fec27146100dc5763e6b7e2071461006c57600080fd5b346100d75760003660031901126100d757610093600160a060020a036000541633146111ad565b60405180602080820190808352606051809252604083019160809160005b8281106100c057505050500390f35b8351855286955093810193928101926001016100b1565b600080fd5b60403660031901126100d75760206004357f81670f0291c86d92aa01507111dd6ea7cf572d30864c4c0045a622bf324004b460243591336000526002845261012d8160066040600020015414611453565b3360005260028452610148600760406000200154421061149a565b336000526002845260406000209083600783015560405191829133835260808784015260c0608084015260056101df6101856101408601856112ff565b6101cb6101b86101a5607f1993848a82030160a08b0152600189016112ff565b838982030160c08a0152600288016112ff565b828882030160e0890152600387016112ff565b9086820301610100870152600485016112ff565b92015461012084015285604084015260608301520390a1604051908152f35b60403660031901126100d757600435600160a060020a03818116918290036100d7577f2dc5af27f00486a48c2455869e7d6bb7d1564629e6bf6e5f5667c994bb2f92516040602093610258602435946000541633146111ad565b806000526001855281600020600160ff1982541617905581519081528385820152a1604051908152f35b60603660031901126100d757602435336000526002906020918083526102b360043560066040600020015414611453565b336000528083526102cd600760406000200154421061149a565b33600052808352604435600860406000200154036103bd57817fdcd22aa7e09f00c2dc88da646128e33344a16e93ce153d5edc3087c5b78127f691336000528085526000600860408220928160405194610326866110fe565b61032f81611394565b865260068101548a8701526007810154604087015201546060850152338352808852610375604084209161036283611523565b61036e60018401611523565b8201611523565b61038160038201611523565b61038d60048201611523565b8260058201558260068201558260078201550155516103b26040519283923384611428565b0390a1604051908152f35b60405160e560020a62461bcd0281526004810184905260196024820152603a60020a781d985b1a59185d1a5bdb881a5cc81b9bdd0818dbdc9c9958dd026044820152606490fd5b60e03660031901126100d75760246001604060020a0381358181116100d757610431903690600401611157565b6044358281116100d757610449903690600401611157565b926064358381116100d757610462903690600401611157565b906084358481116100d75761047b903690600401611157565b9360a4358181116100d757610494903690600401611157565b906104ab600160a060020a036000541633146111ad565b604051946104b886611119565b855260209687860190815260408601948552606086019687526080860192835260a086019360c4358552600435978860005260038a52604060002096885193845186811161090357808d61050c8c546111f5565b978c601f998a8111610a32575b5050818984116001146109ca57506000926109bf575b5050816002029160080260020a6000190419161789555b5180518681116109035790818d949392600195868d019361056785546111f5565b8a8111610993575b50818a8411600114610927575060009261091c575b5050816002029160080260020a6000190419161790555b5180518681116109035790818d9695949392600297888d01936105be85546111f5565b8981116108d7575b508189841160011461086b5750600092610860575b505060088202880a6000190419169087021790555b51805186811161084757808d60038c019361060b85546111f5565b88811161081b575b50818884116001146107af57506000926107a4575b505060088202870a6000190419169086021790555b60048801955191825195861161078d575061065886546111f5565b838111610757575b508a928086116001146106d1575050928060008051602061158c8339815191529896936103b29896936005966000936106c6575b505082810292600802900a6000190419161790555b51910155604051918291858352604087840152604083019061128b565b015191508c80610694565b909492601f19841692876000528c600020938d6000905b82821061074057505092859260059895926103b29c9a9760008051602061158c8339815191529e9c999610610725575b50505050020190556106a9565b0151908316600802840a60001904191690558c808080610718565b808a869882949787015181550197019401906106e8565b61077e90876000528c6000208d8681818b0104830193828b10610784575b01040190611234565b8b610660565b93508293610775565b60e060020a634e487b710260009081526041600452fd5b015190508e80610628565b9086945091899392601f1984168760005283600020936000905b8282106107ff57505084116107e5575b5050500201905561063d565b01516008838a1602840a60001904191690558f80806107d9565b8484015186558a988e98509095019493840193908101906107c9565b610841908660005283600020848b81818901048301938289106107845701040190611234565b38610613565b60e060020a634e487b7102600090815260416004528490fd5b015190508f806105db565b90879450918a9392601f1984168760005283600020936000905b8282106108bb57505084116108a1575b505050020190556105f0565b01516008838b1602840a6000190419169055388080610895565b8484015186558b988f9850909501949384019390810190610885565b6108fd908660005283600020848c81818901048301938289106107845701040190611234565b386105c6565b60e060020a634e487b7102600090815260416004528590fd5b015190508f80610584565b909350879291601f1983168660005282600020926000905b82821061097a57505094836002959610610960575b5050500201905561059b565b01516008838c1602840a6000190419169055388080610954565b8388015185558b9690940193928301929081019061093f565b6109b9908660005283600020848d81818901048301938289106107845701040190611234565b3861056f565b015190508e8061052f565b60008e81528181209450601f198616915b828210610a1a5750509160029391856001969410610a00575b50505002018955610546565b01516008838b1602840a60001904191690558f80806109f4565b806001869782949787015181550196019401906109db565b610a579160005283600020848c81818901048301938289106107845701040190611234565b8c38610519565b60803660031901126100d757610a726110e8565b600054600160a060020a039190610a8c90831633146111ad565b6004356000526003602052610aa46040600020611394565b60405192610ab1846110fe565b818452604435602085015260643560408501526000606085015282166000526002602052604060002083519384518051906001604060020a038211610dcc578190610afc85546111f5565b601f811161104f575b50602090601f8311600114610fe657600092610fdb575b5050816002029160080260020a6000190419161782555b6020850151805160018401916001604060020a038211610dcc578190610b5984546111f5565b601f8111610fa8575b50602090601f8311600114610f3f57600092610f34575b5050816002029160080260020a6000190419161790555b604085015180516001604060020a038111610dcc57806002850192610bb584546111f5565b601f8111610f01575b50602090601f8311600114610e9857600092610e8d575b5050816002029160080260020a6000190419161790555b606085015180516001604060020a038111610dcc57806003850192610c1184546111f5565b601f8111610e5a575b50602090601f8311600114610df157600092610de6575b5050816002029160080260020a6000190419161790555b608085015180519095906001604060020a038111610dcc576004840190610c6f82546111f5565b601f8111610d8e575b506020601f8211600114610d0d5792600894928260a09360609660008051602061156c8339815191529c600092610d02575b50508160020291880260020a6000190419161790555b0151600585015560208101516006850155604081015160078501550151910155610cf36040519283926044359184611428565b0390a160206040516044358152f35b015190508c80610caa565b601f198216988360005260206000209960005b818110610d76575060028460008051602061156c8339815191529c6060989560089a989560a09860019610610d5c575b50505002019055610cc0565b0151601f83168b02840a60001904191690558d8080610d50565b838301518c556001909b019a60209384019301610d20565b610dbc908360005260206000206020601f85010481019160208510610dc2575b601f60209101040190611234565b88610c78565b9091508190610dae565b60e060020a634e487b710260009081526041600452602490fd5b015190508880610c31565b6000858152602081209350601f198516905b818110610e4257509160029391856001969410610e27575b50505002019055610c48565b01516008601f841602840a6000190419169055898080610e1b565b92936020600181928786015181550195019301610e03565b610e87908560005260206000206020601f86010481019160208610610dc257601f60209101040190611234565b89610c1a565b015190508880610bd5565b6000858152602081209350601f198516905b818110610ee957509160029391856001969410610ece575b50505002019055610bec565b01516008601f841602840a6000190419169055898080610ec2565b92936020600181928786015181550195019301610eaa565b610f2e908560005260206000206020601f86010481019160208610610dc257601f60209101040190611234565b89610bbe565b015190508880610b79565b6000858152602081209350601f198516905b818110610f9057509160029391856001969410610f75575b50505002019055610b90565b01516008601f841602840a6000190419169055898080610f69565b92936020600181928786015181550195019301610f51565b610fd5908560005260206000206020601f86010481019160208610610dc257601f60209101040190611234565b89610b62565b015190508780610b1c565b6000868152602081209350601f198516905b8181106110375750916002939185600196941061101c575b50505002018255610b33565b01516008601f841602840a6000190419169055888080611010565b92936020600181928786015181550195019301610ff8565b61107c908660005260206000206020601f86010481019160208610610dc257601f60209101040190611234565b88610b05565b60603660031901126100d7576110966110e8565b600054600160a060020a0391906110b090831633146111ad565b3360005260026020526110ce60043560066040600020015414611453565b166000526002602052604435600860406000200155600080f35b60243590600160a060020a03821682036100d757565b608081019081106001604060020a03821117610dcc57604052565b60c081019081106001604060020a03821117610dcc57604052565b601f909101601f19168101906001604060020a03821190821017610dcc57604052565b81601f820112156100d7578035906001604060020a038211610dcc576040519261118b601f8401601f191660200185611134565b828452602083830101116100d757816000926020809301838601378301015290565b156111b457565b60405160e560020a62461bcd0281526020600482015260136024820152606860020a72756e617574686f72697a656420616363657373026044820152606490fd5b906001600283049216801561122a575b602083101461121057565b60e060020a634e487b710260009081526022600452602490fd5b91607f1691611205565b81811061123f575050565b60008155600101611234565b919082519283825260005b848110611277575050826000602080949584010152601f8019910116010190565b602081830181015184830182015201611256565b9060a0806112f66112e46112d26112c06112ae885160c0895260c089019061124b565b602089015188820360208a015261124b565b6040880151878203604089015261124b565b6060870151868203606088015261124b565b6080860151858203608087015261124b565b93015191015290565b9060009291805491611310836111f5565b9182825260019384811690816000146113725750600114611332575b50505050565b90919394506000526020928360002092846000945b83861061135e57505050500101903880808061132c565b805485870183015294019385908201611347565b9294505050602093945060ff191683830152151582020101903880808061132c565b9060409160a060058451926113a884611119565b839580516113c1816113ba81866112ff565b0382611134565b855280516113d6816113ba81600187016112ff565b602086015280516113ee816113ba81600287016112ff565b818601528051611405816113ba81600387016112ff565b60608601525161141c816113ba81600486016112ff565b60808501520154910152565b93929161144e90604092600160a060020a0316865260606020870152606086019061128b565b930152565b1561145a57565b60405160e560020a62461bcd0281526020600482015260126024820152607260020a711b9bdd0818481d985b1a59081c995b9d185b026044820152606490fd5b156114a157565b60405160e560020a62461bcd02815260206004820152604860248201527f72656e74616c2068617320657870697265642120796f7520636f756c6420626560448201527f206372696d696e616c6c79206c6961626c6520666f72206772616e6420746865606482015260c060020a676674206175746f3f02608482015260a490fd5b61152d81546111f5565b9081611537575050565b81601f60009311600114611549575055565b9080839182526115676020601f818520950104840160018501611234565b555556fe1b75ace8caaf12abd45c3c0da0c6eee5080c029edb7235481611e58c260fb3f61b9aac248c208dd251eda7bef7a21c837eb84242c1eedb63ad337a0cbe660513a2646970667358221220f2fd75916378eaf16fa929442f24584bbe344d884ff3eb4a562e006f136ceb7a64736f6c63430008120033",
  "immutableReferences": {},
  "source": "// SPDX-License-Identifier: CC-BY-4.0\r\npragma solidity >=0.4.22 <0.9.0;\r\npragma experimental ABIEncoderV2;\r\n\r\n/**\r\n * The Hertz-Dollar rental car false arrests fiasco make implementing rental car contracts in the blockchain\r\n * safer for both company and consumer. Read more athttps://6abc.com/hertz-rental-car-lawsuits-arrests-wrongful-cars/12143532/.\r\n */\r\n\r\n\r\ncontract RentalCar {\r\n    address private owner;\r\n    struct Vehicle {\r\n        string vin;\r\n        string tag;\r\n        string state;\r\n        string make;\r\n        string model;\r\n        uint256 year;\r\n    }\r\n\r\n    struct Rental {\r\n        Vehicle vehicle;\r\n        uint256 start;\r\n        uint256 expiry;\r\n        uint256 validation;\r\n    }\r\n\r\n    mapping(address => bool) private _consumers;\r\n    mapping(address => Rental) private _rentals;\r\n    mapping(uint256 => Vehicle) private _vehicles;\r\n\r\n    event VehicleAdded(uint timestamp, Vehicle vehicle);\r\n    event ConsumerAdded(address consumer,uint256 timestamp);\r\n    event RentalAdded(address consumer, Vehicle vehicle, uint256 timestamp);\r\n    event RentalExtended(address consumer, Vehicle vehicle, uint256 extendedDate, uint256 timestamp);\r\n    event RentalReturned(address consumer, Vehicle vehicle, uint256 timestamp);\r\n\r\n    constructor() {\r\n        owner = msg.sender;\r\n    }\r\n\r\n    modifier isOwner() {\r\n        require(msg.sender == owner,\"unauthorized access\");\r\n        _;\r\n    }\r\n\r\n    modifier vehicleXist(string memory vin) {\r\n        _;\r\n    }\r\n\r\n    modifier isConsumer() {\r\n        _;\r\n    }\r\n\r\n    modifier notExpired() {\r\n        require(_rentals[msg.sender].expiry > block.timestamp,\"rental has expired! you could be criminally liable for grand theft auto?\");\r\n        _;\r\n    }\r\n\r\n    modifier isValidRental(uint256 ts) {\r\n        require(_rentals[msg.sender].start == ts,\"not a valid rental\");\r\n        _;\r\n    }\r\n\r\n    modifier hasValidation(uint256 validation) {\r\n        require(_rentals[msg.sender].validation == validation,\"validation is not correct\");\r\n        _;\r\n    }\r\n\r\n    function getVehicles() public view isOwner returns(uint256[] memory) {\r\n        uint256[] memory list;\r\n        // TODO: get list of timestamps from _vehicles mappings?\r\n        return list;\r\n    }\r\n\r\n    function addVehicle(uint256 timestamp,\r\n                        string memory vin,\r\n                        string memory tag,\r\n                        string memory state,\r\n                        string memory make,\r\n                        string memory model,\r\n                        uint256 year)\r\n        public\r\n        payable\r\n        isOwner\r\n        returns(uint256)\r\n    {\r\n        Vehicle memory vehicle = Vehicle(vin,tag,state,make,model,year);\r\n        _vehicles[timestamp] = vehicle;\r\n        emit VehicleAdded(timestamp,vehicle);\r\n        return timestamp;\r\n    }\r\n\r\n    function addConsumer(address consumer,uint256 timestamp)\r\n        public\r\n        payable\r\n        isOwner\r\n        returns (uint256)\r\n    {\r\n        _consumers[consumer] = true;\r\n        emit ConsumerAdded(consumer,timestamp);\r\n        return timestamp;\r\n    }\r\n\r\n    function newRental(uint256 vehicleTimestamp,address consumer,uint256 timestamp,uint256 expiry)\r\n        public\r\n        payable\r\n        isOwner\r\n        returns (uint256)\r\n    {\r\n        Vehicle memory vehicle = _vehicles[vehicleTimestamp];\r\n        _rentals[consumer] = Rental(vehicle,timestamp,expiry,0);\r\n        emit RentalAdded(consumer,vehicle,timestamp);\r\n        return timestamp;\r\n    }\r\n\r\n    function addValidation(uint256 vehicleTimestamp,address consumer,uint validation)\r\n        public\r\n        payable\r\n        isOwner\r\n        isValidRental(vehicleTimestamp)\r\n    {\r\n        _rentals[consumer].validation = validation;\r\n    }\r\n\r\n    function extendRental(uint256 rentalTimestamp,uint256 expiry)\r\n        public\r\n        payable\r\n        isConsumer\r\n        isValidRental(rentalTimestamp)\r\n        notExpired\r\n        returns (uint256)\r\n    {\r\n        _rentals[msg.sender].expiry = expiry;\r\n        emit RentalExtended(msg.sender,_rentals[msg.sender].vehicle,expiry,rentalTimestamp);\r\n        return expiry;\r\n    }\r\n\r\n    /**\r\n     * The consumer reports when they returned the vehicle but requires the rental company to provide\r\n     * a validation timestamp to the consumer inorder for the return to be accepted. This prevents\r\n     * a consumer from reporting a vehicle is returned witout a company verifying the vehicle has been returned.\r\n     */\r\n    function returnRental(uint256 rentalTimestamp,uint256 timestamp,uint256 validation)\r\n        public\r\n        payable\r\n        isConsumer\r\n        isValidRental(rentalTimestamp)\r\n        notExpired\r\n        hasValidation(validation)\r\n        returns (uint256)\r\n    {\r\n        Rental memory rental = _rentals[msg.sender]; // make local copy\r\n        delete _rentals[msg.sender]; // delete from gloobal ammping\r\n        emit RentalReturned(msg.sender,rental.vehicle,timestamp); //notify of rental returned\r\n        return timestamp;\r\n    }\r\n}",
  "sourcePath": "/Volumes/HOME/pingleware-contracts/contracts/transportation/RentalCar.sol",
  "compiler": {
    "name": "solc",
    "version": "0.8.18+commit.87f61d96.Emscripten.clang"
  },
  "schemaVersion": "3.4.12",
  "updatedAt": "2024-05-23T18:56:27.388Z",
  "devdoc": {
    "kind": "dev",
    "methods": {},
    "version": 1
  },
  "userdoc": {
    "kind": "user",
    "methods": {
      "returnRental(uint256,uint256,uint256)": {
        "notice": "The consumer reports when they returned the vehicle but requires the rental company to provide a validation timestamp to the consumer inorder for the return to be accepted. This prevents a consumer from reporting a vehicle is returned witout a company verifying the vehicle has been returned."
      }
    },
    "notice": "The Hertz-Dollar rental car false arrests fiasco make implementing rental car contracts in the blockchain safer for both company and consumer. Read more athttps://6abc.com/hertz-rental-car-lawsuits-arrests-wrongful-cars/12143532/.",
    "version": 1
  }
}