{
  "contractName": "RentalCar",
  "abi": [
    {
      "inputs": [],
      "stateMutability": "nonpayable",
      "type": "constructor"
    },
    {
      "anonymous": false,
      "inputs": [
        {
          "indexed": false,
          "internalType": "address",
          "name": "consumer",
          "type": "address"
        },
        {
          "indexed": false,
          "internalType": "uint256",
          "name": "timestamp",
          "type": "uint256"
        }
      ],
      "name": "ConsumerAdded",
      "type": "event"
    },
    {
      "anonymous": false,
      "inputs": [
        {
          "indexed": false,
          "internalType": "address",
          "name": "consumer",
          "type": "address"
        },
        {
          "components": [
            {
              "internalType": "string",
              "name": "vin",
              "type": "string"
            },
            {
              "internalType": "string",
              "name": "tag",
              "type": "string"
            },
            {
              "internalType": "string",
              "name": "state",
              "type": "string"
            },
            {
              "internalType": "string",
              "name": "make",
              "type": "string"
            },
            {
              "internalType": "string",
              "name": "model",
              "type": "string"
            },
            {
              "internalType": "uint256",
              "name": "year",
              "type": "uint256"
            }
          ],
          "indexed": false,
          "internalType": "struct RentalCar.Vehicle",
          "name": "vehicle",
          "type": "tuple"
        },
        {
          "indexed": false,
          "internalType": "uint256",
          "name": "timestamp",
          "type": "uint256"
        }
      ],
      "name": "RentalAdded",
      "type": "event"
    },
    {
      "anonymous": false,
      "inputs": [
        {
          "indexed": false,
          "internalType": "address",
          "name": "consumer",
          "type": "address"
        },
        {
          "components": [
            {
              "internalType": "string",
              "name": "vin",
              "type": "string"
            },
            {
              "internalType": "string",
              "name": "tag",
              "type": "string"
            },
            {
              "internalType": "string",
              "name": "state",
              "type": "string"
            },
            {
              "internalType": "string",
              "name": "make",
              "type": "string"
            },
            {
              "internalType": "string",
              "name": "model",
              "type": "string"
            },
            {
              "internalType": "uint256",
              "name": "year",
              "type": "uint256"
            }
          ],
          "indexed": false,
          "internalType": "struct RentalCar.Vehicle",
          "name": "vehicle",
          "type": "tuple"
        },
        {
          "indexed": false,
          "internalType": "uint256",
          "name": "extendedDate",
          "type": "uint256"
        },
        {
          "indexed": false,
          "internalType": "uint256",
          "name": "timestamp",
          "type": "uint256"
        }
      ],
      "name": "RentalExtended",
      "type": "event"
    },
    {
      "anonymous": false,
      "inputs": [
        {
          "indexed": false,
          "internalType": "address",
          "name": "consumer",
          "type": "address"
        },
        {
          "components": [
            {
              "internalType": "string",
              "name": "vin",
              "type": "string"
            },
            {
              "internalType": "string",
              "name": "tag",
              "type": "string"
            },
            {
              "internalType": "string",
              "name": "state",
              "type": "string"
            },
            {
              "internalType": "string",
              "name": "make",
              "type": "string"
            },
            {
              "internalType": "string",
              "name": "model",
              "type": "string"
            },
            {
              "internalType": "uint256",
              "name": "year",
              "type": "uint256"
            }
          ],
          "indexed": false,
          "internalType": "struct RentalCar.Vehicle",
          "name": "vehicle",
          "type": "tuple"
        },
        {
          "indexed": false,
          "internalType": "uint256",
          "name": "timestamp",
          "type": "uint256"
        }
      ],
      "name": "RentalReturned",
      "type": "event"
    },
    {
      "anonymous": false,
      "inputs": [
        {
          "indexed": false,
          "internalType": "uint256",
          "name": "timestamp",
          "type": "uint256"
        },
        {
          "components": [
            {
              "internalType": "string",
              "name": "vin",
              "type": "string"
            },
            {
              "internalType": "string",
              "name": "tag",
              "type": "string"
            },
            {
              "internalType": "string",
              "name": "state",
              "type": "string"
            },
            {
              "internalType": "string",
              "name": "make",
              "type": "string"
            },
            {
              "internalType": "string",
              "name": "model",
              "type": "string"
            },
            {
              "internalType": "uint256",
              "name": "year",
              "type": "uint256"
            }
          ],
          "indexed": false,
          "internalType": "struct RentalCar.Vehicle",
          "name": "vehicle",
          "type": "tuple"
        }
      ],
      "name": "VehicleAdded",
      "type": "event"
    },
    {
      "inputs": [],
      "name": "getVehicles",
      "outputs": [
        {
          "internalType": "uint256[]",
          "name": "",
          "type": "uint256[]"
        }
      ],
      "stateMutability": "view",
      "type": "function",
      "constant": true
    },
    {
      "inputs": [
        {
          "internalType": "uint256",
          "name": "timestamp",
          "type": "uint256"
        },
        {
          "internalType": "string",
          "name": "vin",
          "type": "string"
        },
        {
          "internalType": "string",
          "name": "tag",
          "type": "string"
        },
        {
          "internalType": "string",
          "name": "state",
          "type": "string"
        },
        {
          "internalType": "string",
          "name": "make",
          "type": "string"
        },
        {
          "internalType": "string",
          "name": "model",
          "type": "string"
        },
        {
          "internalType": "uint256",
          "name": "year",
          "type": "uint256"
        }
      ],
      "name": "addVehicle",
      "outputs": [
        {
          "internalType": "uint256",
          "name": "",
          "type": "uint256"
        }
      ],
      "stateMutability": "payable",
      "type": "function",
      "payable": true
    },
    {
      "inputs": [
        {
          "internalType": "address",
          "name": "consumer",
          "type": "address"
        },
        {
          "internalType": "uint256",
          "name": "timestamp",
          "type": "uint256"
        }
      ],
      "name": "addConsumer",
      "outputs": [
        {
          "internalType": "uint256",
          "name": "",
          "type": "uint256"
        }
      ],
      "stateMutability": "payable",
      "type": "function",
      "payable": true
    },
    {
      "inputs": [
        {
          "internalType": "uint256",
          "name": "vehicleTimestamp",
          "type": "uint256"
        },
        {
          "internalType": "address",
          "name": "consumer",
          "type": "address"
        },
        {
          "internalType": "uint256",
          "name": "timestamp",
          "type": "uint256"
        },
        {
          "internalType": "uint256",
          "name": "expiry",
          "type": "uint256"
        }
      ],
      "name": "newRental",
      "outputs": [
        {
          "internalType": "uint256",
          "name": "",
          "type": "uint256"
        }
      ],
      "stateMutability": "payable",
      "type": "function",
      "payable": true
    },
    {
      "inputs": [
        {
          "internalType": "uint256",
          "name": "vehicleTimestamp",
          "type": "uint256"
        },
        {
          "internalType": "address",
          "name": "consumer",
          "type": "address"
        },
        {
          "internalType": "uint256",
          "name": "validation",
          "type": "uint256"
        }
      ],
      "name": "addValidation",
      "outputs": [],
      "stateMutability": "payable",
      "type": "function",
      "payable": true
    },
    {
      "inputs": [
        {
          "internalType": "uint256",
          "name": "rentalTimestamp",
          "type": "uint256"
        },
        {
          "internalType": "uint256",
          "name": "expiry",
          "type": "uint256"
        }
      ],
      "name": "extendRental",
      "outputs": [
        {
          "internalType": "uint256",
          "name": "",
          "type": "uint256"
        }
      ],
      "stateMutability": "payable",
      "type": "function",
      "payable": true
    },
    {
      "inputs": [
        {
          "internalType": "uint256",
          "name": "rentalTimestamp",
          "type": "uint256"
        },
        {
          "internalType": "uint256",
          "name": "timestamp",
          "type": "uint256"
        },
        {
          "internalType": "uint256",
          "name": "validation",
          "type": "uint256"
        }
      ],
      "name": "returnRental",
      "outputs": [
        {
          "internalType": "uint256",
          "name": "",
          "type": "uint256"
        }
      ],
      "stateMutability": "payable",
      "type": "function",
      "payable": true
    }
  ],
  "bytecode": "0x608060405234801561001057600080fd5b5060008054600160a060020a03191633179055611531806100326000396000f3fe6080604052600436106100635760e060020a600035046317da32a781146100685780632d4b20fd1461007d5780632fc8ad44146100a3578063317a5ac8146100b657806386beff43146100c9578063951fec27146100dc578063e6b7e207146100ef575b600080fd5b61007b610076366004610dc5565b610111565b005b61009061008b366004610dfa565b61019e565b6040519081526020015b60405180910390f35b6100906100b1366004610edb565b6105df565b6100906100c4366004610fbf565b610704565b6100906100d7366004610feb565b610bc7565b6100906100ea366004611015565b610c58565b3480156100fb57600080fd5b50610104610d1d565b60405161009a9190611037565b600054600160a060020a031633146101475760405160e560020a62461bcd02815260040161013e9061107b565b60405180910390fd5b336000908152600260205260409020600601548390811461017d5760405160e560020a62461bcd02815260040161013e906110ab565b50600160a060020a0390911660009081526002602052604090206008015550565b60008054600160a060020a031633146101cc5760405160e560020a62461bcd02815260040161013e9061107b565b600085815260036020526040808220815160c081019092528054829082906101f3906110da565b80601f016020809104026020016040519081016040528092919081815260200182805461021f906110da565b801561026c5780601f106102415761010080835404028352916020019161026c565b820191906000526020600020905b81548152906001019060200180831161024f57829003601f168201915b50505050508152602001600182018054610285906110da565b80601f01602080910402602001604051908101604052809291908181526020018280546102b1906110da565b80156102fe5780601f106102d3576101008083540402835291602001916102fe565b820191906000526020600020905b8154815290600101906020018083116102e157829003601f168201915b50505050508152602001600282018054610317906110da565b80601f0160208091040260200160405190810160405280929190818152602001828054610343906110da565b80156103905780601f1061036557610100808354040283529160200191610390565b820191906000526020600020905b81548152906001019060200180831161037357829003601f168201915b505050505081526020016003820180546103a9906110da565b80601f01602080910402602001604051908101604052809291908181526020018280546103d5906110da565b80156104225780601f106103f757610100808354040283529160200191610422565b820191906000526020600020905b81548152906001019060200180831161040557829003601f168201915b5050505050815260200160048201805461043b906110da565b80601f0160208091040260200160405190810160405280929190818152602001828054610467906110da565b80156104b45780601f10610489576101008083540402835291602001916104b4565b820191906000526020600020905b81548152906001019060200180831161049757829003601f168201915b50505091835250506005919091015460209182015260408051608081018252838152808301889052808201879052600060608201819052600160a060020a038a16815260029093529120815180519394509192909190829081906105189082611167565b506020820151600182019061052d9082611167565b50604082015160028201906105429082611167565b50606082015160038201906105579082611167565b506080820151600482019061056c9082611167565b5060a0820151816005015550506020820151816006015560408201518160070155606082015181600801559050507f1b75ace8caaf12abd45c3c0da0c6eee5080c029edb7235481611e58c260fb3f68582866040516105cd93929190611305565b60405180910390a15091949350505050565b60008054600160a060020a0316331461060d5760405160e560020a62461bcd02815260040161013e9061107b565b6040805160c0810182528881526020808201899052818301889052606082018790526080820186905260a0820185905260008b81526003909152919091208151829190819061065c9082611167565b50602082015160018201906106719082611167565b50604082015160028201906106869082611167565b506060820151600382019061069b9082611167565b50608082015160048201906106b09082611167565b5060a082015181600501559050507f1b9aac248c208dd251eda7bef7a21c837eb84242c1eedb63ad337a0cbe66051389826040516106ef929190611339565b60405180910390a15096979650505050505050565b336000908152600260205260408120600601548490811461073a5760405160e560020a62461bcd02815260040161013e906110ab565b33600090815260026020526040902060070154421061076e5760405160e560020a62461bcd02815260040161013e9061135a565b33600090815260026020526040902060080154839081146107d35760405160e560020a62461bcd0281526020600482015260196024820152603a60020a781d985b1a59185d1a5bdb881a5cc81b9bdd0818dbdc9c9958dd02604482015260640161013e565b3360009081526002602052604080822081516101408101909252805482906080820190839082908290610805906110da565b80601f0160208091040260200160405190810160405280929190818152602001828054610831906110da565b801561087e5780601f106108535761010080835404028352916020019161087e565b820191906000526020600020905b81548152906001019060200180831161086157829003601f168201915b50505050508152602001600182018054610897906110da565b80601f01602080910402602001604051908101604052809291908181526020018280546108c3906110da565b80156109105780601f106108e557610100808354040283529160200191610910565b820191906000526020600020905b8154815290600101906020018083116108f357829003601f168201915b50505050508152602001600282018054610929906110da565b80601f0160208091040260200160405190810160405280929190818152602001828054610955906110da565b80156109a25780601f10610977576101008083540402835291602001916109a2565b820191906000526020600020905b81548152906001019060200180831161098557829003601f168201915b505050505081526020016003820180546109bb906110da565b80601f01602080910402602001604051908101604052809291908181526020018280546109e7906110da565b8015610a345780601f10610a0957610100808354040283529160200191610a34565b820191906000526020600020905b815481529060010190602001808311610a1757829003601f168201915b50505050508152602001600482018054610a4d906110da565b80601f0160208091040260200160405190810160405280929190818152602001828054610a79906110da565b8015610ac65780601f10610a9b57610100808354040283529160200191610ac6565b820191906000526020600020905b815481529060010190602001808311610aa957829003601f168201915b505050918352505060059190910154602091820152908252600683015482820152600783015460408084019190915260089093015460609092019190915233600090815260029091529081209192508181610b218282610d53565b610b2f600183016000610d53565b610b3d600283016000610d53565b610b4b600383016000610d53565b610b59600483016000610d53565b6005820160009055505060068201600090556007820160009055600882016000905550507fdcd22aa7e09f00c2dc88da646128e33344a16e93ce153d5edc3087c5b78127f633826000015188604051610bb493929190611305565b60405180910390a1509395945050505050565b60008054600160a060020a03163314610bf55760405160e560020a62461bcd02815260040161013e9061107b565b600160a060020a038316600081815260016020818152604092839020805460ff1916909217909155815192835282018490527f2dc5af27f00486a48c2455869e7d6bb7d1564629e6bf6e5f5667c994bb2f9251910160405180910390a150919050565b3360009081526002602052604081206006015483908114610c8e5760405160e560020a62461bcd02815260040161013e906110ab565b336000908152600260205260409020600701544210610cc25760405160e560020a62461bcd02815260040161013e9061135a565b33600081815260026020526040908190206007810186905590517f81670f0291c86d92aa01507111dd6ea7cf572d30864c4c0045a622bf324004b492610d0d92909187908990611447565b60405180910390a1509092915050565b600054606090600160a060020a03163314610d4d5760405160e560020a62461bcd02815260040161013e9061107b565b50606090565b508054610d5f906110da565b6000825580601f10610d6f575050565b601f016020900490600052602060002090810190610d8d9190610d90565b50565b5b80821115610da55760008155600101610d91565b5090565b8035600160a060020a0381168114610dc057600080fd5b919050565b600080600060608486031215610dda57600080fd5b83359250610dea60208501610da9565b9150604084013590509250925092565b60008060008060808587031215610e1057600080fd5b84359350610e2060208601610da9565b93969395505050506040820135916060013590565b60e060020a634e487b710260009081526041600452602490fd5b600082601f830112610e6057600080fd5b81356001604060020a0380821115610e7a57610e7a610e35565b604051601f8301601f19908116603f01168101908282118183101715610ea257610ea2610e35565b81604052838152866020858801011115610ebb57600080fd5b836020870160208301376000602085830101528094505050505092915050565b600080600080600080600060e0888a031215610ef657600080fd5b8735965060208801356001604060020a0380821115610f1457600080fd5b610f208b838c01610e4f565b975060408a0135915080821115610f3657600080fd5b610f428b838c01610e4f565b965060608a0135915080821115610f5857600080fd5b610f648b838c01610e4f565b955060808a0135915080821115610f7a57600080fd5b610f868b838c01610e4f565b945060a08a0135915080821115610f9c57600080fd5b50610fa98a828b01610e4f565b92505060c0880135905092959891949750929550565b600080600060608486031215610fd457600080fd5b505081359360208301359350604090920135919050565b60008060408385031215610ffe57600080fd5b61100783610da9565b946020939093013593505050565b6000806040838503121561102857600080fd5b50508035926020909101359150565b6020808252825182820181905260009190848201906040850190845b8181101561106f57835183529284019291840191600101611053565b50909695505050505050565b6020808252601390820152606860020a72756e617574686f72697a65642061636365737302604082015260600190565b6020808252601290820152607260020a711b9bdd0818481d985b1a59081c995b9d185b02604082015260600190565b6002810460018216806110ee57607f821691505b6020821081036111125760e060020a634e487b710260009081526022600452602490fd5b50919050565b601f821115611162576000818152602081206020601f8601048101602086101561113f5750805b6020601f860104820191505b8181101561115e5782815560010161114b565b5050505b505050565b81516001604060020a0381111561118057611180610e35565b6111948161118e84546110da565b84611118565b602080601f8311600181146111cd57600084156111b15750858301515b60028086026008870290910a600019041982161786555061115e565b600085815260208120601f198616915b828110156111fc578886015182559484019460019091019084016111dd565b508582101561121c57878501516008601f88160260020a60001904191681555b5050505050600202600101905550565b6000815180845260005b8181101561125257602081850181015186830182015201611236565b506000602082860101526020601f19601f83011685010191505092915050565b6000815160c0845261128760c085018261122c565b9050602083015184820360208601526112a0828261122c565b915050604083015184820360408601526112ba828261122c565b915050606083015184820360608601526112d4828261122c565b915050608083015184820360808601526112ee828261122c565b91505060a083015160a08501528091505092915050565b600160a060020a038416815260606020820181905260009061132990830185611272565b9050826040830152949350505050565b8281526040602082015260006113526040830184611272565b949350505050565b60208082526048908201527f72656e74616c2068617320657870697265642120796f7520636f756c6420626560408201527f206372696d696e616c6c79206c6961626c6520666f72206772616e6420746865606082015260c060020a676674206175746f3f02608082015260a00190565b600081546113d8816110da565b8085526020600183811680156113f5576001811461140e5761143c565b60ff19851688840152831515830288018301955061143c565b866000528260002060005b858110156114345781548a8201860152908301908401611419565b890184019650505b505050505092915050565b600160a060020a038516815260806020820181905260c09082015260006114726101408301866113cb565b607f19808483030160a085015261148c82600189016113cb565b9150808483030160c08501526114a582600289016113cb565b9150808483030160e08501526114be82600389016113cb565b91508084830301610100850152506114d981600488016113cb565b600596909601546101208401525050604081019290925260609091015291905056fea2646970667358221220b9697be3fe67c99fe7e7dc0488e58ce289c73c3846095fd312c54a9fc8b74b2264736f6c63430008120033",
  "immutableReferences": {},
  "source": "// SPDX-License-Identifier: CC-BY-4.0\r\npragma solidity >=0.4.22 <0.9.0;\r\npragma experimental ABIEncoderV2;\r\n\r\n/**\r\n * The Hertz-Dollar rental car false arrests fiasco make implementing rental car contracts in the blockchain\r\n * safer for both company and consumer. Read more athttps://6abc.com/hertz-rental-car-lawsuits-arrests-wrongful-cars/12143532/.\r\n */\r\n\r\n\r\ncontract RentalCar {\r\n    address private owner;\r\n    struct Vehicle {\r\n        string vin;\r\n        string tag;\r\n        string state;\r\n        string make;\r\n        string model;\r\n        uint256 year;\r\n    }\r\n\r\n    struct Rental {\r\n        Vehicle vehicle;\r\n        uint256 start;\r\n        uint256 expiry;\r\n        uint256 validation;\r\n    }\r\n\r\n    mapping(address => bool) private _consumers;\r\n    mapping(address => Rental) private _rentals;\r\n    mapping(uint256 => Vehicle) private _vehicles;\r\n\r\n    event VehicleAdded(uint timestamp, Vehicle vehicle);\r\n    event ConsumerAdded(address consumer,uint256 timestamp);\r\n    event RentalAdded(address consumer, Vehicle vehicle, uint256 timestamp);\r\n    event RentalExtended(address consumer, Vehicle vehicle, uint256 extendedDate, uint256 timestamp);\r\n    event RentalReturned(address consumer, Vehicle vehicle, uint256 timestamp);\r\n\r\n    constructor() {\r\n        owner = msg.sender;\r\n    }\r\n\r\n    modifier isOwner() {\r\n        require(msg.sender == owner,\"unauthorized access\");\r\n        _;\r\n    }\r\n\r\n    modifier vehicleXist(string memory vin) {\r\n        _;\r\n    }\r\n\r\n    modifier isConsumer() {\r\n        _;\r\n    }\r\n\r\n    modifier notExpired() {\r\n        require(_rentals[msg.sender].expiry > block.timestamp,\"rental has expired! you could be criminally liable for grand theft auto?\");\r\n        _;\r\n    }\r\n\r\n    modifier isValidRental(uint256 ts) {\r\n        require(_rentals[msg.sender].start == ts,\"not a valid rental\");\r\n        _;\r\n    }\r\n\r\n    modifier hasValidation(uint256 validation) {\r\n        require(_rentals[msg.sender].validation == validation,\"validation is not correct\");\r\n        _;\r\n    }\r\n\r\n    function getVehicles() public view isOwner returns(uint256[] memory) {\r\n        uint256[] memory list;\r\n        // TODO: get list of timestamps from _vehicles mappings?\r\n        return list;\r\n    }\r\n\r\n    function addVehicle(uint256 timestamp,\r\n                        string memory vin,\r\n                        string memory tag,\r\n                        string memory state,\r\n                        string memory make,\r\n                        string memory model,\r\n                        uint256 year)\r\n        public\r\n        payable\r\n        isOwner\r\n        returns(uint256)\r\n    {\r\n        Vehicle memory vehicle = Vehicle(vin,tag,state,make,model,year);\r\n        _vehicles[timestamp] = vehicle;\r\n        emit VehicleAdded(timestamp,vehicle);\r\n        return timestamp;\r\n    }\r\n\r\n    function addConsumer(address consumer,uint256 timestamp)\r\n        public\r\n        payable\r\n        isOwner\r\n        returns (uint256)\r\n    {\r\n        _consumers[consumer] = true;\r\n        emit ConsumerAdded(consumer,timestamp);\r\n        return timestamp;\r\n    }\r\n\r\n    function newRental(uint256 vehicleTimestamp,address consumer,uint256 timestamp,uint256 expiry)\r\n        public\r\n        payable\r\n        isOwner\r\n        returns (uint256)\r\n    {\r\n        Vehicle memory vehicle = _vehicles[vehicleTimestamp];\r\n        _rentals[consumer] = Rental(vehicle,timestamp,expiry,0);\r\n        emit RentalAdded(consumer,vehicle,timestamp);\r\n        return timestamp;\r\n    }\r\n\r\n    function addValidation(uint256 vehicleTimestamp,address consumer,uint validation)\r\n        public\r\n        payable\r\n        isOwner\r\n        isValidRental(vehicleTimestamp)\r\n    {\r\n        _rentals[consumer].validation = validation;\r\n    }\r\n\r\n    function extendRental(uint256 rentalTimestamp,uint256 expiry)\r\n        public\r\n        payable\r\n        isConsumer\r\n        isValidRental(rentalTimestamp)\r\n        notExpired\r\n        returns (uint256)\r\n    {\r\n        _rentals[msg.sender].expiry = expiry;\r\n        emit RentalExtended(msg.sender,_rentals[msg.sender].vehicle,expiry,rentalTimestamp);\r\n        return expiry;\r\n    }\r\n\r\n    /**\r\n     * The consumer reports when they returned the vehicle but requires the rental company to provide\r\n     * a validation timestamp to the consumer inorder for the return to be accepted. This prevents\r\n     * a consumer from reporting a vehicle is returned witout a company verifying the vehicle has been returned.\r\n     */\r\n    function returnRental(uint256 rentalTimestamp,uint256 timestamp,uint256 validation)\r\n        public\r\n        payable\r\n        isConsumer\r\n        isValidRental(rentalTimestamp)\r\n        notExpired\r\n        hasValidation(validation)\r\n        returns (uint256)\r\n    {\r\n        Rental memory rental = _rentals[msg.sender]; // make local copy\r\n        delete _rentals[msg.sender]; // delete from gloobal ammping\r\n        emit RentalReturned(msg.sender,rental.vehicle,timestamp); //notify of rental returned\r\n        return timestamp;\r\n    }\r\n}",
  "sourcePath": "/Volumes/My Book/projects/pingleware-contracts/contracts/transportation/RentalCar.sol",
  "compiler": {
    "name": "solc",
    "version": "0.8.18+commit.87f61d96.Emscripten.clang"
  },
  "schemaVersion": "3.4.12",
  "updatedAt": "2023-10-23T18:12:29.833Z",
  "networkType": "ethereum",
  "devdoc": {
    "kind": "dev",
    "methods": {},
    "version": 1
  },
  "userdoc": {
    "kind": "user",
    "methods": {
      "returnRental(uint256,uint256,uint256)": {
        "notice": "The consumer reports when they returned the vehicle but requires the rental company to provide a validation timestamp to the consumer inorder for the return to be accepted. This prevents a consumer from reporting a vehicle is returned witout a company verifying the vehicle has been returned."
      }
    },
    "notice": "The Hertz-Dollar rental car false arrests fiasco make implementing rental car contracts in the blockchain safer for both company and consumer. Read more athttps://6abc.com/hertz-rental-car-lawsuits-arrests-wrongful-cars/12143532/.",
    "version": 1
  }
}