{
  "contractName": "ResellerRole",
  "abi": [
    {
      "inputs": [],
      "stateMutability": "nonpayable",
      "type": "constructor"
    },
    {
      "anonymous": false,
      "inputs": [
        {
          "indexed": true,
          "internalType": "address",
          "name": "account",
          "type": "address"
        }
      ],
      "name": "ResellerAdded",
      "type": "event"
    },
    {
      "anonymous": false,
      "inputs": [
        {
          "indexed": true,
          "internalType": "address",
          "name": "account",
          "type": "address"
        }
      ],
      "name": "ResellerRemoved",
      "type": "event"
    },
    {
      "inputs": [
        {
          "internalType": "address",
          "name": "account",
          "type": "address"
        }
      ],
      "name": "isReseller",
      "outputs": [
        {
          "internalType": "bool",
          "name": "",
          "type": "bool"
        }
      ],
      "stateMutability": "view",
      "type": "function"
    },
    {
      "inputs": [
        {
          "internalType": "address",
          "name": "account",
          "type": "address"
        }
      ],
      "name": "addReseller",
      "outputs": [],
      "stateMutability": "nonpayable",
      "type": "function"
    },
    {
      "inputs": [],
      "name": "renounceReseller",
      "outputs": [],
      "stateMutability": "nonpayable",
      "type": "function"
    }
  ],
  "bytecode": "0x6080604052346100825761001d33151561001881610087565b610087565b60003381528060205261003760ff60408320541615610087565b3381528060205260408120600160ff19825416179055604051907ffb8f232b7a1d3d51060d32be9d6cf6808aa8f7dd043c8c20c4cfaf929ca9d484339180a261027890816100c78239f35b600080fd5b1561008e57565b60446040517f08c379a00000000000000000000000000000000000000000000000000000000081526020600482015260006024820152fdfe604060808152600436101561001357600080fd5b60009060e060020a823504634af076d881146100ea578063a10d9c9e146100ac5763eafe40241461004357600080fd5b346100a857816003193601126100a85761005e3315156101f1565b61006f61006a3361021a565b6101f1565b33825281602052812060ff198154169055337f74317ab44bd96a4b18c5f1eee4104ecd55c3eb0a69795f59fb4b3ebe550a86008280a280f35b5080fd5b50346100a85760203660031901126100a85760043591600160a060020a03831683036100e757506100de60209261021a565b90519015158152f35b80fd5b50346100a85760203660031901126100a857600435600160a060020a03811691908281036101ed5761011d3315156101f1565b3384528360205260ff8285205416156101885761014761014d916101428515156101f1565b61021a565b156101f1565b818352826020528220600160ff198254161790557ffb8f232b7a1d3d51060d32be9d6cf6808aa8f7dd043c8c20c4cfaf929ca9d4848280a280f35b815160e560020a62461bcd02815260206004820152603260248201527f596f75206e65656420746f20686176652074686520636f6e73756d657220726f6044820152607060020a716c6520746f20706572666f726d2074686973026064820152608490fd5b8380fd5b156101f857565b60405160e560020a62461bcd0281526020600482015260006024820152604490fd5b600160a060020a031661022e8115156101f1565b600052600060205260ff604060002054169056fea2646970667358221220ad442cdca31ccd33d322876f51d6d795033b034e21e223c9f475dc7ffa86875964736f6c63430008120033",
  "immutableReferences": {},
  "source": "// SPDX-License-Identifier: CC-BY-4.0\r\npragma solidity >=0.4.22 <0.9.0;\r\n\r\n\r\n// Import the library 'Roles'\r\nimport \"./Roles.sol\";\r\n\r\n// Define a contract 'ResellerRole' to manage this role - add, remove, check\r\ncontract ResellerRole {\r\n  using Roles for Roles.Role;\r\n\r\n  // Define 2 events, one for Adding, and other for Removing\r\n  event ResellerAdded(address indexed account);\r\n  event ResellerRemoved(address indexed account);\r\n\r\n  // Define a struct 'resellers' by inheriting from 'Roles' library, struct Role\r\n  Roles.Role private resellers;\r\n\r\n  // In the constructor make the address that deploys this contract the 1st consumer\r\n  constructor() {\r\n      _addReseller(msg.sender);\r\n  }\r\n\r\n  // Define a modifier that checks to see if msg.sender has the appropriate role\r\n  modifier onlyReseller() {\r\n    require(isReseller(msg.sender), \"You need to have the consumer role to perform this\");\r\n    _;\r\n  }\r\n\r\n  // Define a function 'isReseller' to check this role\r\n  function isReseller(address account) public view returns (bool) {\r\n    return resellers.has(account);\r\n  }\r\n\r\n  // Define a function 'addReseller' that adds this role\r\n  function addReseller(address account) public onlyReseller {\r\n    _addReseller(account);\r\n  }\r\n\r\n  // Define a function 'renounceReseller' to renounce this role\r\n  function renounceReseller() public {\r\n    _removeReseller(msg.sender);\r\n  }\r\n\r\n  // Define an internal function '_addReseller' to add this role, called by 'addReseller'\r\n  function _addReseller(address account) internal {\r\n    resellers.add(account);\r\n    emit ResellerAdded(account);\r\n  }\r\n\r\n  // Define an internal function '_removeReseller' to remove this role, called by 'removeReseller'\r\n  function _removeReseller(address account) internal {\r\n    resellers.remove(account);\r\n    emit ResellerRemoved(account);\r\n  }\r\n}",
  "sourcePath": "/Volumes/HOME/pingleware-contracts/contracts/scm/ResellerRole.sol",
  "compiler": {
    "name": "solc",
    "version": "0.8.18+commit.87f61d96.Emscripten.clang"
  },
  "schemaVersion": "3.4.12",
  "updatedAt": "2024-05-23T18:56:27.177Z",
  "devdoc": {
    "kind": "dev",
    "methods": {},
    "version": 1
  },
  "userdoc": {
    "kind": "user",
    "methods": {},
    "version": 1
  }
}