{
  "contractName": "RetailInstallmentSales",
  "abi": [
    {
      "inputs": [
        {
          "internalType": "address",
          "name": "_buyer",
          "type": "address"
        },
        {
          "internalType": "uint256",
          "name": "_totalAmount",
          "type": "uint256"
        },
        {
          "internalType": "uint256",
          "name": "_annualFee",
          "type": "uint256"
        },
        {
          "internalType": "uint256",
          "name": "_interestRate",
          "type": "uint256"
        }
      ],
      "stateMutability": "nonpayable",
      "type": "constructor"
    },
    {
      "inputs": [],
      "name": "annualFee",
      "outputs": [
        {
          "internalType": "uint256",
          "name": "",
          "type": "uint256"
        }
      ],
      "stateMutability": "view",
      "type": "function"
    },
    {
      "inputs": [],
      "name": "buyer",
      "outputs": [
        {
          "internalType": "address",
          "name": "",
          "type": "address"
        }
      ],
      "stateMutability": "view",
      "type": "function"
    },
    {
      "inputs": [],
      "name": "interestRate",
      "outputs": [
        {
          "internalType": "uint256",
          "name": "",
          "type": "uint256"
        }
      ],
      "stateMutability": "view",
      "type": "function"
    },
    {
      "inputs": [],
      "name": "seller",
      "outputs": [
        {
          "internalType": "address",
          "name": "",
          "type": "address"
        }
      ],
      "stateMutability": "view",
      "type": "function"
    },
    {
      "inputs": [],
      "name": "state",
      "outputs": [
        {
          "internalType": "enum RetailInstallmentSales.State",
          "name": "",
          "type": "uint8"
        }
      ],
      "stateMutability": "view",
      "type": "function"
    },
    {
      "inputs": [],
      "name": "totalAmount",
      "outputs": [
        {
          "internalType": "uint256",
          "name": "",
          "type": "uint256"
        }
      ],
      "stateMutability": "view",
      "type": "function"
    },
    {
      "inputs": [],
      "name": "activateContract",
      "outputs": [],
      "stateMutability": "nonpayable",
      "type": "function"
    },
    {
      "inputs": [],
      "name": "completeContract",
      "outputs": [],
      "stateMutability": "nonpayable",
      "type": "function"
    },
    {
      "inputs": [],
      "name": "makePayment",
      "outputs": [],
      "stateMutability": "payable",
      "type": "function"
    }
  ],
  "bytecode": "0x608060405234801561001057600080fd5b5060405161066b38038061066b83398101604081905261002f91610079565b6000805433600160a060020a03199182161790915560018054909116600160a060020a0395909516949094179093556002919091556003556004556005805460ff191690556100c4565b6000806000806080858703121561008f57600080fd5b8451600160a060020a03811681146100a657600080fd5b60208601516040870151606090970151919890975090945092505050565b610598806100d36000396000f3fe6080604052600436106100795760e060020a600035046308551a53811461007e5780631a39d8ef146100bb5780631dfda2e7146100df5780637150d8ae146100f55780637c3a00fd146101155780638fda356d1461012b578063b4fedc1114610142578063c19d93fb14610157578063d8d797001461017e575b600080fd5b34801561008a57600080fd5b5060005461009e90600160a060020a031681565b604051600160a060020a0390911681526020015b60405180910390f35b3480156100c757600080fd5b506100d160025481565b6040519081526020016100b2565b3480156100eb57600080fd5b506100d160035481565b34801561010157600080fd5b5060015461009e90600160a060020a031681565b34801561012157600080fd5b506100d160045481565b34801561013757600080fd5b50610140610186565b005b34801561014e57600080fd5b5061014061020d565b34801561016357600080fd5b506005546101719060ff1681565b6040516100b29190610434565b610140610288565b600054600160a060020a031633146101bc5760405160e560020a62461bcd0281526004016101b390610460565b60405180910390fd5b60008060055460ff1660028111156101d6576101d661041a565b146101f65760405160e560020a62461bcd0281526004016101b3906104aa565b600580546001919060ff191682805b021790555050565b600054600160a060020a0316331461023a5760405160e560020a62461bcd0281526004016101b390610460565b60018060055460ff1660028111156102545761025461041a565b146102745760405160e560020a62461bcd0281526004016101b3906104aa565b600580546002919060ff1916600183610205565b600154600160a060020a031633146102f75760405160e560020a62461bcd02815260206004820152602660248201527f4f6e6c79207468652062757965722063616e20706572666f726d207468697320604482015260d160020a6530b1ba34b7b70260648201526084016101b3565b60018060055460ff1660028111156103115761031161041a565b146103315760405160e560020a62461bcd0281526004016101b3906104aa565b6000606460045460025461034591906104f9565b61034f9190610516565b9050600081600354600254610364919061053c565b61036e919061053c565b9050803410156103bd5760405160e560020a62461bcd0281526020600482015260146024820152606260020a73125b9cdd59999a58da595b9d081c185e5b595b9d0260448201526064016101b3565b8034111561040857600154600160a060020a03166108fc6103de833461054f565b6040518115909202916000818181858888f19350505050158015610406573d6000803e3d6000fd5b505b50506005805460ff1916600217905550565b60e060020a634e487b710260009081526021600452602490fd5b602081016003831061045a5760e060020a634e487b710260009081526021600452602490fd5b91905290565b60208082526027908201527f4f6e6c79207468652073656c6c65722063616e20706572666f726d2074686973604082015260c960020a661030b1ba34b7b702606082015260800190565b6020808252818101527f496e76616c696420737461746520666f722074686973206f7065726174696f6e604082015260600190565b60e060020a634e487b710260009081526011600452602490fd5b8082028115828204841417610510576105106104df565b92915050565b6000826105375760e060020a634e487b710260009081526012600452602490fd5b500490565b80820180821115610510576105106104df565b81810381811115610510576105106104df56fea26469706673582212202bb07d1719497032b98604ce5e048dd7b80cae1b2bf3bd5d769f985a56c71dc964736f6c63430008120033",
  "immutableReferences": {},
  "source": "// SPDX-License-Identifier: CC-BY-4.0\npragma solidity >=0.4.22 <0.9.0;\n\ncontract RetailInstallmentSales {\n    address public seller; // The address of the seller\n    address public buyer;  // The address of the buyer\n    uint256 public totalAmount;  // Total amount to be paid by the buyer\n    uint256 public annualFee;    // Annual fee in USD\n    uint256 public interestRate; // Annual interest rate (up to 18%)\n\n    enum State { Pending, Active, Completed }\n    State public state;\n\n    constructor(address _buyer, uint256 _totalAmount, uint256 _annualFee, uint256 _interestRate) {\n        seller = msg.sender;\n        buyer = _buyer;\n        totalAmount = _totalAmount;\n        annualFee = _annualFee;\n        interestRate = _interestRate;\n        state = State.Pending;\n    }\n\n    modifier onlySeller() {\n        require(msg.sender == seller, \"Only the seller can perform this action\");\n        _;\n    }\n\n    modifier onlyBuyer() {\n        require(msg.sender == buyer, \"Only the buyer can perform this action\");\n        _;\n    }\n\n    modifier inState(State _state) {\n        require(state == _state, \"Invalid state for this operation\");\n        _;\n    }\n\n    function activateContract() external onlySeller inState(State.Pending) {\n        state = State.Active;\n    }\n\n    function completeContract() external onlySeller inState(State.Active) {\n        state = State.Completed;\n    }\n\n    function makePayment() external payable onlyBuyer inState(State.Active) {\n        // Calculate interest\n        uint256 interest = (totalAmount * interestRate) / 100;\n        // Calculate the total payment\n        uint256 totalPayment = totalAmount + annualFee + interest;\n        require(msg.value >= totalPayment, \"Insufficient payment\");\n        if (msg.value > totalPayment) {\n            // Refund the excess payment to the buyer\n            payable(buyer).transfer(msg.value - totalPayment);\n        }\n        // Complete the contract\n        state = State.Completed;\n    }\n}\n",
  "sourcePath": "/Volumes/My Book/projects/pingleware-contracts/contracts/retail/RetailInstallmentSales.sol",
  "compiler": {
    "name": "solc",
    "version": "0.8.18+commit.87f61d96.Emscripten.clang"
  },
  "schemaVersion": "3.4.12",
  "updatedAt": "2023-10-22T04:04:38.056Z",
  "devdoc": {
    "kind": "dev",
    "methods": {},
    "version": 1
  },
  "userdoc": {
    "kind": "user",
    "methods": {},
    "version": 1
  }
}