{
  "contractName": "RideshareTrade",
  "abi": [
    {
      "inputs": [],
      "stateMutability": "nonpayable",
      "type": "constructor"
    },
    {
      "anonymous": false,
      "inputs": [
        {
          "indexed": false,
          "internalType": "bytes32",
          "name": "trans",
          "type": "bytes32"
        },
        {
          "indexed": false,
          "internalType": "address payable",
          "name": "buyer",
          "type": "address"
        }
      ],
      "name": "Bought",
      "type": "event"
    },
    {
      "anonymous": false,
      "inputs": [
        {
          "indexed": false,
          "internalType": "bytes32",
          "name": "trans",
          "type": "bytes32"
        },
        {
          "indexed": false,
          "internalType": "address payable",
          "name": "buyer",
          "type": "address"
        }
      ],
      "name": "Cancelled",
      "type": "event"
    },
    {
      "anonymous": false,
      "inputs": [
        {
          "indexed": false,
          "internalType": "bytes32",
          "name": "trans",
          "type": "bytes32"
        },
        {
          "indexed": false,
          "internalType": "address payable",
          "name": "buyer",
          "type": "address"
        }
      ],
      "name": "Confirmed",
      "type": "event"
    },
    {
      "anonymous": false,
      "inputs": [
        {
          "indexed": false,
          "internalType": "address",
          "name": "sender",
          "type": "address"
        },
        {
          "indexed": false,
          "internalType": "address",
          "name": "recipient",
          "type": "address"
        }
      ],
      "name": "Destroyed",
      "type": "event"
    },
    {
      "anonymous": false,
      "inputs": [
        {
          "indexed": false,
          "internalType": "address",
          "name": "sender",
          "type": "address"
        },
        {
          "indexed": false,
          "internalType": "uint256",
          "name": "amount",
          "type": "uint256"
        }
      ],
      "name": "FallbackEvent",
      "type": "event"
    },
    {
      "anonymous": false,
      "inputs": [
        {
          "indexed": true,
          "internalType": "address",
          "name": "previousOwner",
          "type": "address"
        },
        {
          "indexed": true,
          "internalType": "address",
          "name": "newOwner",
          "type": "address"
        }
      ],
      "name": "OwnershipTransferred",
      "type": "event"
    },
    {
      "anonymous": false,
      "inputs": [
        {
          "indexed": false,
          "internalType": "address",
          "name": "sender",
          "type": "address"
        },
        {
          "indexed": false,
          "internalType": "uint256",
          "name": "amount",
          "type": "uint256"
        }
      ],
      "name": "ReceiveEvent",
      "type": "event"
    },
    {
      "anonymous": false,
      "inputs": [
        {
          "indexed": false,
          "internalType": "address",
          "name": "sender",
          "type": "address"
        },
        {
          "indexed": false,
          "internalType": "bytes",
          "name": "reason",
          "type": "bytes"
        }
      ],
      "name": "Started",
      "type": "event"
    },
    {
      "anonymous": false,
      "inputs": [
        {
          "indexed": false,
          "internalType": "address",
          "name": "sender",
          "type": "address"
        },
        {
          "indexed": false,
          "internalType": "bytes",
          "name": "reason",
          "type": "bytes"
        }
      ],
      "name": "Stopped",
      "type": "event"
    },
    {
      "anonymous": false,
      "inputs": [
        {
          "indexed": false,
          "internalType": "address",
          "name": "sender",
          "type": "address"
        },
        {
          "indexed": false,
          "internalType": "string",
          "name": "reason",
          "type": "string"
        }
      ],
      "name": "Termination",
      "type": "event"
    },
    {
      "anonymous": false,
      "inputs": [
        {
          "indexed": false,
          "internalType": "bytes32",
          "name": "trans",
          "type": "bytes32"
        },
        {
          "indexed": false,
          "internalType": "uint256",
          "name": "index",
          "type": "uint256"
        }
      ],
      "name": "TripAdded",
      "type": "event"
    },
    {
      "stateMutability": "payable",
      "type": "fallback"
    },
    {
      "inputs": [],
      "name": "VERSION",
      "outputs": [
        {
          "internalType": "string",
          "name": "",
          "type": "string"
        }
      ],
      "stateMutability": "view",
      "type": "function"
    },
    {
      "inputs": [],
      "name": "WAIT",
      "outputs": [
        {
          "internalType": "uint256",
          "name": "",
          "type": "uint256"
        }
      ],
      "stateMutability": "view",
      "type": "function"
    },
    {
      "inputs": [],
      "name": "c",
      "outputs": [
        {
          "internalType": "uint256",
          "name": "",
          "type": "uint256"
        }
      ],
      "stateMutability": "view",
      "type": "function"
    },
    {
      "inputs": [
        {
          "internalType": "uint256",
          "name": "",
          "type": "uint256"
        }
      ],
      "name": "d1",
      "outputs": [
        {
          "internalType": "address",
          "name": "",
          "type": "address"
        }
      ],
      "stateMutability": "view",
      "type": "function"
    },
    {
      "inputs": [],
      "name": "destroy",
      "outputs": [],
      "stateMutability": "nonpayable",
      "type": "function"
    },
    {
      "inputs": [
        {
          "internalType": "address",
          "name": "_recipient",
          "type": "address"
        }
      ],
      "name": "destroyAndSend",
      "outputs": [],
      "stateMutability": "nonpayable",
      "type": "function"
    },
    {
      "inputs": [
        {
          "internalType": "address",
          "name": "",
          "type": "address"
        }
      ],
      "name": "drivers",
      "outputs": [
        {
          "internalType": "address payable",
          "name": "driver",
          "type": "address"
        },
        {
          "internalType": "bytes",
          "name": "id",
          "type": "bytes"
        },
        {
          "internalType": "string",
          "name": "name",
          "type": "string"
        },
        {
          "internalType": "string",
          "name": "contact",
          "type": "string"
        },
        {
          "internalType": "uint256",
          "name": "status",
          "type": "uint256"
        }
      ],
      "stateMutability": "view",
      "type": "function"
    },
    {
      "inputs": [],
      "name": "getOwner",
      "outputs": [
        {
          "internalType": "address",
          "name": "",
          "type": "address"
        }
      ],
      "stateMutability": "payable",
      "type": "function"
    },
    {
      "inputs": [
        {
          "internalType": "bytes32",
          "name": "",
          "type": "bytes32"
        }
      ],
      "name": "offers",
      "outputs": [
        {
          "internalType": "address payable",
          "name": "buyer",
          "type": "address"
        },
        {
          "internalType": "uint256",
          "name": "starting",
          "type": "uint256"
        },
        {
          "internalType": "uint256",
          "name": "duration",
          "type": "uint256"
        },
        {
          "internalType": "bool",
          "name": "confirmed",
          "type": "bool"
        }
      ],
      "stateMutability": "view",
      "type": "function"
    },
    {
      "inputs": [],
      "name": "renounceOwnership",
      "outputs": [],
      "stateMutability": "payable",
      "type": "function"
    },
    {
      "inputs": [],
      "name": "s",
      "outputs": [
        {
          "internalType": "uint256",
          "name": "",
          "type": "uint256"
        }
      ],
      "stateMutability": "view",
      "type": "function"
    },
    {
      "inputs": [],
      "name": "t",
      "outputs": [
        {
          "internalType": "uint256",
          "name": "",
          "type": "uint256"
        }
      ],
      "stateMutability": "view",
      "type": "function"
    },
    {
      "inputs": [
        {
          "internalType": "address",
          "name": "newOwner",
          "type": "address"
        }
      ],
      "name": "transferOwnership",
      "outputs": [],
      "stateMutability": "payable",
      "type": "function"
    },
    {
      "inputs": [
        {
          "internalType": "uint256",
          "name": "",
          "type": "uint256"
        }
      ],
      "name": "trips",
      "outputs": [
        {
          "internalType": "address payable",
          "name": "driver",
          "type": "address"
        },
        {
          "internalType": "bytes32",
          "name": "tripno",
          "type": "bytes32"
        },
        {
          "internalType": "uint256",
          "name": "tripdate",
          "type": "uint256"
        },
        {
          "internalType": "string",
          "name": "pickup",
          "type": "string"
        },
        {
          "internalType": "string",
          "name": "dropoff",
          "type": "string"
        },
        {
          "internalType": "uint256",
          "name": "miles",
          "type": "uint256"
        },
        {
          "internalType": "uint256",
          "name": "booking_time",
          "type": "uint256"
        },
        {
          "internalType": "uint256",
          "name": "begin_time",
          "type": "uint256"
        },
        {
          "internalType": "uint256",
          "name": "finish_time",
          "type": "uint256"
        }
      ],
      "stateMutability": "view",
      "type": "function"
    },
    {
      "stateMutability": "payable",
      "type": "receive"
    },
    {
      "inputs": [
        {
          "internalType": "address",
          "name": "addr",
          "type": "address"
        }
      ],
      "name": "fundaddr",
      "outputs": [],
      "stateMutability": "nonpayable",
      "type": "function"
    },
    {
      "inputs": [
        {
          "internalType": "address",
          "name": "receiver",
          "type": "address"
        },
        {
          "internalType": "uint256",
          "name": "amount",
          "type": "uint256"
        },
        {
          "internalType": "address",
          "name": "sender",
          "type": "address"
        }
      ],
      "name": "sendCoin",
      "outputs": [
        {
          "internalType": "bool",
          "name": "sufficient",
          "type": "bool"
        }
      ],
      "stateMutability": "nonpayable",
      "type": "function"
    },
    {
      "inputs": [
        {
          "internalType": "address",
          "name": "addr",
          "type": "address"
        }
      ],
      "name": "getBalance",
      "outputs": [
        {
          "internalType": "uint256",
          "name": "",
          "type": "uint256"
        }
      ],
      "stateMutability": "view",
      "type": "function"
    },
    {
      "inputs": [
        {
          "internalType": "bytes",
          "name": "id",
          "type": "bytes"
        },
        {
          "internalType": "string",
          "name": "name",
          "type": "string"
        },
        {
          "internalType": "string",
          "name": "contact",
          "type": "string"
        }
      ],
      "name": "addDriver",
      "outputs": [
        {
          "internalType": "uint256",
          "name": "",
          "type": "uint256"
        }
      ],
      "stateMutability": "nonpayable",
      "type": "function"
    },
    {
      "inputs": [
        {
          "internalType": "bytes32",
          "name": "no",
          "type": "bytes32"
        },
        {
          "internalType": "uint256",
          "name": "tripdate",
          "type": "uint256"
        },
        {
          "internalType": "string",
          "name": "pickup",
          "type": "string"
        },
        {
          "internalType": "string",
          "name": "dropoff",
          "type": "string"
        },
        {
          "internalType": "uint256",
          "name": "miles",
          "type": "uint256"
        },
        {
          "internalType": "uint256",
          "name": "book",
          "type": "uint256"
        },
        {
          "internalType": "uint256",
          "name": "begintime",
          "type": "uint256"
        },
        {
          "internalType": "uint256",
          "name": "endtime",
          "type": "uint256"
        }
      ],
      "name": "addTrip",
      "outputs": [
        {
          "internalType": "uint256",
          "name": "",
          "type": "uint256"
        }
      ],
      "stateMutability": "nonpayable",
      "type": "function"
    },
    {
      "inputs": [],
      "name": "getDriver",
      "outputs": [
        {
          "internalType": "address",
          "name": "",
          "type": "address"
        },
        {
          "internalType": "bytes",
          "name": "",
          "type": "bytes"
        },
        {
          "internalType": "string",
          "name": "",
          "type": "string"
        },
        {
          "internalType": "string",
          "name": "",
          "type": "string"
        }
      ],
      "stateMutability": "view",
      "type": "function"
    },
    {
      "inputs": [],
      "name": "getDriverStatus",
      "outputs": [
        {
          "internalType": "uint256",
          "name": "",
          "type": "uint256"
        }
      ],
      "stateMutability": "view",
      "type": "function"
    },
    {
      "inputs": [
        {
          "internalType": "address",
          "name": "driver",
          "type": "address"
        }
      ],
      "name": "getDriverStatusByAdmin",
      "outputs": [
        {
          "internalType": "uint256",
          "name": "",
          "type": "uint256"
        }
      ],
      "stateMutability": "view",
      "type": "function"
    },
    {
      "inputs": [
        {
          "internalType": "address",
          "name": "driver",
          "type": "address"
        },
        {
          "internalType": "uint256",
          "name": "_status",
          "type": "uint256"
        }
      ],
      "name": "changeDriverStatus",
      "outputs": [],
      "stateMutability": "nonpayable",
      "type": "function"
    },
    {
      "inputs": [
        {
          "internalType": "uint256",
          "name": "i",
          "type": "uint256"
        }
      ],
      "name": "getTrip",
      "outputs": [
        {
          "internalType": "address",
          "name": "",
          "type": "address"
        },
        {
          "internalType": "bytes32",
          "name": "",
          "type": "bytes32"
        },
        {
          "internalType": "uint256",
          "name": "",
          "type": "uint256"
        }
      ],
      "stateMutability": "view",
      "type": "function"
    },
    {
      "inputs": [
        {
          "internalType": "uint256",
          "name": "i",
          "type": "uint256"
        }
      ],
      "name": "getTripPickupLocation",
      "outputs": [
        {
          "internalType": "string",
          "name": "",
          "type": "string"
        }
      ],
      "stateMutability": "view",
      "type": "function"
    },
    {
      "inputs": [
        {
          "internalType": "uint256",
          "name": "i",
          "type": "uint256"
        }
      ],
      "name": "getTripDropoffLocation",
      "outputs": [
        {
          "internalType": "string",
          "name": "",
          "type": "string"
        }
      ],
      "stateMutability": "view",
      "type": "function"
    },
    {
      "inputs": [
        {
          "internalType": "uint256",
          "name": "i",
          "type": "uint256"
        }
      ],
      "name": "getTripMiles",
      "outputs": [
        {
          "internalType": "uint256",
          "name": "",
          "type": "uint256"
        }
      ],
      "stateMutability": "view",
      "type": "function"
    },
    {
      "inputs": [
        {
          "internalType": "uint256",
          "name": "i",
          "type": "uint256"
        }
      ],
      "name": "getTripTravelInfo",
      "outputs": [
        {
          "internalType": "string",
          "name": "",
          "type": "string"
        },
        {
          "internalType": "string",
          "name": "",
          "type": "string"
        },
        {
          "internalType": "uint256",
          "name": "",
          "type": "uint256"
        }
      ],
      "stateMutability": "view",
      "type": "function"
    },
    {
      "inputs": [
        {
          "internalType": "uint256",
          "name": "i",
          "type": "uint256"
        }
      ],
      "name": "getTripTravelTimes",
      "outputs": [
        {
          "internalType": "uint256",
          "name": "",
          "type": "uint256"
        },
        {
          "internalType": "uint256",
          "name": "",
          "type": "uint256"
        },
        {
          "internalType": "uint256",
          "name": "",
          "type": "uint256"
        }
      ],
      "stateMutability": "view",
      "type": "function"
    },
    {
      "inputs": [
        {
          "internalType": "address payable",
          "name": "_network",
          "type": "address"
        }
      ],
      "name": "addNetwork",
      "outputs": [],
      "stateMutability": "payable",
      "type": "function"
    },
    {
      "inputs": [
        {
          "internalType": "uint256",
          "name": "tripid",
          "type": "uint256"
        },
        {
          "internalType": "address payable",
          "name": "driver",
          "type": "address"
        }
      ],
      "name": "assignTrip",
      "outputs": [],
      "stateMutability": "nonpayable",
      "type": "function"
    },
    {
      "inputs": [
        {
          "internalType": "bytes32",
          "name": "_trans",
          "type": "bytes32"
        },
        {
          "internalType": "uint256",
          "name": "_starting",
          "type": "uint256"
        },
        {
          "internalType": "uint256",
          "name": "_duration",
          "type": "uint256"
        },
        {
          "internalType": "uint256",
          "name": "_timestamp",
          "type": "uint256"
        }
      ],
      "name": "buy",
      "outputs": [],
      "stateMutability": "payable",
      "type": "function"
    },
    {
      "inputs": [
        {
          "internalType": "bytes32",
          "name": "_trans",
          "type": "bytes32"
        },
        {
          "internalType": "uint256",
          "name": "_timestamp",
          "type": "uint256"
        }
      ],
      "name": "cancel",
      "outputs": [],
      "stateMutability": "payable",
      "type": "function"
    },
    {
      "inputs": [
        {
          "internalType": "bytes32",
          "name": "_trans",
          "type": "bytes32"
        },
        {
          "internalType": "uint256",
          "name": "_timestamp",
          "type": "uint256"
        }
      ],
      "name": "confirm",
      "outputs": [],
      "stateMutability": "payable",
      "type": "function"
    },
    {
      "inputs": [
        {
          "internalType": "bytes32",
          "name": "_trans",
          "type": "bytes32"
        }
      ],
      "name": "pay",
      "outputs": [],
      "stateMutability": "payable",
      "type": "function"
    }
  ],
  "bytecode": "0x60808060405234610078576000805433600160a060020a0319918216811783554260015590917f8be0079c531659141344cd1fd0a4f28419497f9722a3daafe3b4186f6b6457e08180a360ff196003541660035560016004556001600655339060085416176008556064600b55611c8f908161007e8239f35b600080fdfe608060405260043610156100c7575b361561009757333203610050577f26875833861a2b006512a11f1b86edf95df96131040f3caeed72989ee98580836040518061004b343383611819565b0390a1005b60405160e560020a62461bcd0281526020600482015260196024820152603860020a787068697368696e672061747461636b2064657465637465643f026044820152606490fd5b7fcc85d09d309785db93d6df19917f2e6cc07fe27cd01c08c8279145deb5cf45266040518061004b343383611819565b60e060020a60003504622a4a08811461151157806301011705146114d6578063069455a01461135c57806309378b5f146111b4578063117f9aef146111875780632c45df991461108d578063446db8a714610fde578063474d3ff014610f825780634aa6018614610ec2578063715018a614610e7b5780637f88e89814610e2e57806383197ef014610ded5780638609cad114610d4a57806386b714e214610d2c578063893d20e814610d0457806392d0d15314610ce6578063a5a50df014610c97578063b81e3a5014610c50578063b8fb3a5114610c34578063bf2b8cfc14610b76578063c3da42b814610b58578063d070b84414610b04578063d2aad9fa14610a69578063d3452bf5146106a9578063d567e4a414610676578063dae4cedc1461064b578063dca39c9f146105fc578063e7708d03146105b7578063f2cb3d7614610538578063f2fde38b14610483578063f5074f4114610422578063f6824a7c14610344578063f8b2cb4f1461030a578063fb5ade31146102d25763ffa1ad740361000e57346102cd5760003660031901126102cd5760408051908101906001604060020a038211818310176102b3576102af91604052600a815260b060020a69312e362e342d62657461026020820152604051918291602083526020830190611535565b0390f35b60e060020a634e487b710260009081526041600452602490fd5b600080fd5b346102cd5760203660031901126102cd57600160a060020a036102f3611612565b1660005260076020526107d0604060002055600080f35b346102cd5760203660031901126102cd57600160a060020a0361032b611612565b1660005260076020526020604060002054604051908152f35b346102cd5760203660031901126102cd576004356010548110156102cd5761036b90611731565b50600160a060020a0381541660018201549160028101546040519161039e836103978160038501611667565b038461158b565b604051926103ba846103b38160048601611667565b038561158b565b6104086005830154946103fa60068501549360086007870154960154966040519a8b9a8b5260208b015260408a01526101208060608b0152890190611535565b908782036080890152611535565b9360a086015260c085015260e08401526101008301520390f35b346102cd5760203660031901126102cd57600080516020611c1a83398151915261004b61044d611612565b610463600160a060020a03600054163314611750565b60408051338152600160a060020a03909216602083015290918291820190565b60203660031901126102cd57610497611612565b600054600160a060020a03808216926104b1338514611834565b169182156104de578290600080516020611c3a833981519152600080a3600160a060020a03191617600055005b60405160e560020a62461bcd02815260206004820152602660248201527f4f776e61626c653a206e6577206f776e657220697320746865207a65726f2061604482015260d060020a65646472657373026064820152608490fd5b61054136611575565b90600160a060020a0361055981600a54163314611bb7565b81600052600c60205260406000209260018401541161057457005b8260037fd4964a7cd99f5c1fa8f2420fb5e1d3bd26eadf16e2658cf2e29a67dfda38601e9401600160ff1982541617905554169061004b60405192839283611be0565b346102cd5760203660031901126102cd57600435600d548110156102cd576105e06020916116fc565b9054604051600890920260020a9004600160a060020a03168152f35b346102cd5760203660031901126102cd576102af600461063761061f8235611731565b506106306040518094819301611667565b038261158b565b604051918291602083526020830190611535565b346102cd5760203660031901126102cd576020600561066b600435611731565b500154604051908152f35b60203660031901126102cd57600160a060020a03610692611612565b16600160a060020a0319600a541617600a55600080f35b346102cd5760603660031901126102cd576001604060020a036004358181116102cd57366023820112156102cd576106eb9036906024816004013591016115ae565b906024358181116102cd576107049036906004016115f4565b6044358281116102cd5761071c9036906004016115f4565b91610728331515611908565b6040519260a08401848110838211176102b35760405233845260208401948552604084019283526060840190815260808401926000845233600052600e602052604060002094600160a060020a03905116600160a060020a031986541617855560019586860190518051908582116102b35781906107b0826107aa8654611628565b86611957565b602090601f83116001146109fe576000926109f3575b5050816002029160080260020a6000190419161790555b51805160028601918482116102b35781906107fc826107aa8654611628565b602090601f83116001146109885760009261097d575b5050816002029160080260020a6000190419161790555b5180519182116102b35761084d826108446003870154611628565b60038701611957565b602090601f8311600114610906576004939291600091836108fb575b5050816002029160080260020a6000190419161760038401555b51910155600d54604060020a8110156102b3576108a4918101600d556116fc565b8154600160a060020a0360089290920260020a91820280199091163390920216179055600d5460001981019081116108e157602090604051908152f35b60e060020a634e487b710260009081526011600452602490fd5b015190508680610869565b929185916003860160005260206000209460005b601f19841681106109645750948291600496600294601f19811610610949575b50505002016003840155610883565b01516008601f841602840a600019041916905587808061093a565b818301518755939095019487936020928301920161091a565b015190508880610812565b9250908891601f198216908560005260206000209160005b8181106109db5750948360029596106109c0575b50505002019055610829565b01516008601f841602840a60001904191690558980806109b4565b8287015184558c9590930192602092830192016109a0565b0151905089806107c6565b9250908991601f198216908560005260206000209160005b818110610a51575094836002959610610a36575b505050020190556107dd565b01516008601f841602840a60001904191690558a8080610a2a565b8287015184558d959093019260209283019201610a16565b346102cd5760203660031901126102cd57610aec6003600435610afa6004610ad8610a9384611731565b5093610ac86005610aad610aa684611731565b5093611731565b50015495610ac16040518099819301611667565b038761158b565b6106306040518094819301611667565b604051948594606086526060860190611535565b908482036020860152611535565b9060408301520390f35b346102cd5760203660031901126102cd5760606004356006610b2582611731565b500154906008610b426007610b3984611731565b50015492611731565b5001549060405192835260208301526040820152f35b346102cd5760003660031901126102cd576020600554604051908152f35b346102cd5760403660031901126102cd57600160a060020a0360243581811691600435918390036102cd57610bb081600054163314611750565b610bb982611731565b505416610bdd57610bc990611731565b508054600160a060020a0319169091179055005b60405160e560020a62461bcd028152602060048201526024808201527f7472697020697320616c72656164792061737369676e656420746f2061206472604482015260e160020a6334bb32b9026064820152608490fd5b346102cd5760003660031901126102cd576020604051601e8152f35b346102cd5760603660031901126102cd57610c69611612565b60443590600160a060020a03821682036102cd57602091610c8d9160243590611880565b6040519015158152f35b346102cd5760203660031901126102cd57610cb0611612565b600054600160a060020a039190610cca9083163314611750565b16600052600e6020526020600460406000200154604051908152f35b346102cd5760003660031901126102cd576020600654604051908152f35b60003660031901126102cd576020610d1a6117e4565b604051600160a060020a039091168152f35b346102cd5760003660031901126102cd576020600454604051908152f35b60203660031901126102cd57600435600052600c6020526040600020600160a060020a03908181541633149081610dd9575b50610d8357005b341590600082610dd0575b60008080809334903390f115610dba5760008080938193600854168291610dc6575b3491f115610dba57005b6040513d6000823e3d90fd5b6108fc9150610db0565b506108fc610d8e565b6003015460ff161515600114905082610d7c565b346102cd5760003660031901126102cd57610e14600160a060020a03600054163314611750565b600080516020611c1a83398151915261004b6104636117e4565b346102cd5760403660031901126102cd57610e47611612565b600054600160a060020a039190610e619083163314611750565b16600052600e602052602435600460406000200155600080f35b60003660031901126102cd576000805490600160a060020a038216610ea1338214611834565b600080516020611c3a8339815191528280a3600160a060020a031916600055005b346102cd5760203660031901126102cd57600160a060020a0380610ee4611612565b16600052600e60205260406000209081541660405191610f0b836103978160018501611667565b610f7860405191610f23836103978160028501611667565b610f6a600460405192610f3d846103b38160038501611667565b015493610f5c604051978897885260a0602089015260a0880190611535565b908682036040880152611535565b908482036060860152611535565b9060808301520390f35b346102cd5760203660031901126102cd57600435600052600c60205260806040600020600160a060020a038154169060018101549060ff6003600283015492015416916040519384526020840152604083015215156060820152f35b346102cd5760003660031901126102cd57610ffa331515611908565b33600052600e60205261107160406000206102af600361107f6040519361102f856110288160018501611667565b038661158b565b61105760405191611047836103978160028501611667565b6103976040518096819301611667565b604051958695338752608060208801526080870190611535565b908582036040870152611535565b908382036060850152611535565b60803660031901126102cd576004356024356110ac6064358211611bb7565b60405191608083016001604060020a038111848210176102b3576040526000835260208301926000845260408101926000845260608201916000835283600052600c602052600160a060020a039485604060002054161561110957005b7fc4166f8025209892d34bf30c06e392e4ca0198eba8483b42ceabd1bbfdc6b4019661004b966003943385528252604435835286600052600c6020526040600020935116600160a060020a0319845416178355516001830155516002820155019051151560ff80198354169116179055604051918291339083611be0565b346102cd5760003660031901126102cd5733600052600e6020526020600460406000200154604051908152f35b346102cd57610100806003193601126102cd576004356001604060020a036044358181116102cd576111ea9036906004016115f4565b926064358281116102cd576112039036906004016115f4565b83600052602094600c8652600160a060020a0360406000205416330361131a57604051936101208501908111858210176102b35760405260008452848685015260243560408501526060840152608083015260843560a083015260a43560c083015260c43560e083015260e43590820152601054604060020a8110156102b3578060016112939201601055611731565b919091611300576112a7816112b9936119ab565b82600052600f845260406000206119ab565b6010546000198101919082116108e15760407ffa2d8c56fcdd7ed5e539ee49781925a0742f8ffcb2d0928a262c0b21a35301e69181519081528385820152a1604051908152f35b60e060020a634e487b710260009081526004819052602490fd5b60405160e560020a62461bcd0281526004810187905260146024820152606360020a73084eaf2cae440c8decae640dcdee840dac2e8c6d026044820152606490fd5b61136536611575565b6000828152600c602052604090208054600160a060020a0392838216331461138957005b60018301541161139557005b600160a060020a0319169055600f6020526040600020548116156114785760008080806002600b540481811561146f575b3390f115610dba5781600052600f6020526000808080846040822054166002600b540490828215611466575bf115610dba5760008080806002600b540481811561145d575b3390f115610dba57600080808093600854166002600b540490828215611454575bf115610dba5761004b600080516020611bfa833981519152915b604051918291339083611be0565b506108fc61142c565b506108fc61140b565b506108fc6113f2565b506108fc6113c6565b6000808080600b548181156114cd575b3390f115610dba5760008080809360085416600b54908282156114c4575bf115610dba5761004b600080516020611bfa83398151915291611446565b506108fc6114a6565b506108fc611488565b346102cd5760203660031901126102cd5760606004356114f581611731565b5054600160a060020a0316906002610b426001610b3984611731565b346102cd5760203660031901126102cd576102af600361063761061f600435611731565b919082519283825260005b848110611561575050826000602080949584010152601f8019910116010190565b602081830181015184830182015201611540565b60409060031901126102cd576004359060243590565b601f909101601f19168101906001604060020a038211908210176102b357604052565b9192916001604060020a0382116102b357604051916115d7601f8201601f19166020018461158b565b8294818452818301116102cd578281602093846000960137010152565b9080601f830112156102cd5781602061160f933591016115ae565b90565b60043590600160a060020a03821682036102cd57565b906001600283049216801561165d575b602083101461164357565b60e060020a634e487b710260009081526022600452602490fd5b91607f1691611638565b906000929180549161167883611628565b9182825260019384811690816000146116da575060011461169a575b50505050565b90919394506000526020928360002092846000945b8386106116c6575050505001019038808080611694565b8054858701830152940193859082016116af565b9294505050602093945060ff1916838301521515820201019038808080611694565b600d5481101561171757600d60005260206000200190600090565b60e060020a634e487b710260009081526032600452602490fd5b6010548110156117175760106000526009602060002091020190600090565b1561175757565b60405160e560020a62461bcd02815260206004820152601b60248201527f756e617574686f72697a65642c206e6f7420746865206f776e657200000000006044820152606490fd5b156117a657565b60405160e560020a62461bcd0281526020600482015260106024820152608160020a6f3930ba32903634b6b4ba1032b93937b9026044820152606490fd5b600154601e81018091116108e1576118069042116118018161179f565b61179f565b42600155600054600160a060020a031690565b600160a060020a039091168152602081019190915260400190565b1561183b57565b60405160e560020a62461bcd0281526020600482015260176024820152604960020a7630b1b1b2b9b9903232b734b2b2103337b91037bbb732b9026044820152606490fd5b919091600160a060020a0390816000931683526007602052604083208054908582106118ff578582039182116118e857551681526007602052604081209081549283018093116118d1575055600190565b60e060020a634e487b710281526011600452602490fd5b60e060020a634e487b710285526011600452602485fd5b50505050905090565b1561190f57565b60405160e560020a62461bcd02815260206004820152601a60248201527f7a65726f2061646472657373206e6f74207065726d69747465640000000000006044820152606490fd5b90601f811161196557505050565b60009182526020822090602080601f860104830194106119a1575b601f602091010401915b82811061199657505050565b81815560010161198a565b9092508290611980565b81518154600160a060020a031916600160a060020a039190911617815560208083015160018084019190915560408401516002808501919091556060850151805194959492936001604060020a039390916003880191908582116102b3578190611a19826107aa8654611628565b8490601f8311600114611b4e57600092611b43575b505060088202850a6000190419169084021790555b600486019360808601519081519485116102b357611a6b85611a658854611628565b88611957565b82601f8611600114611ad1575050926101009492819260089795600093611ac6575b5050828102928702900a6000190419161790555b60a0810151600585015560c0810151600685015560e081015160078501550151910155565b015191503880611a8d565b91601f959391951984168760005283600020936000905b828210611b2c57505091610100979593918560089a98969410611b12575b50505002019055611aa1565b0151601f83168902840a6000190419169055388080611b06565b808986978294978701518155019601940190611ae8565b015190503880611a2e565b889350869291601f1983169186600052876000209260005b89828210611b9e5750508411611b83575b50505002019055611a43565b01516008601f841602840a6000190419169055388080611b77565b8484015186558d988c9850909501949384019301611b66565b15611bbe57565b60405160e560020a62461bcd0281526020600482015260006024820152604490fd5b908152600160a060020a0390911660208201526040019056fe37f7fee84bd656bac1447df96e3014d8a7e8352e960e827b202efad2f908ecd391ca00fdf29069527d658f8dfc6d1c0bf9861780bb45ff36436f938d3595a8d68be0079c531659141344cd1fd0a4f28419497f9722a3daafe3b4186f6b6457e0a2646970667358221220d43f47810b58b7848055868eaf5de137e2a048c63286024fc031963760fe069e64736f6c63430008120033",
  "immutableReferences": {},
  "source": "// SPDX-License-Identifier: CC-BY-4.0\r\npragma solidity >=0.4.22 <0.9.0;\r\n\r\nimport \"../common/Version.sol\";\r\nimport \"../common/Frozen.sol\";\r\n\r\n\r\ncontract RideshareTrade is Version, Frozen {\r\n    uint256 public s = 1;\r\n    uint256 public c;\r\n    uint256 public t=1;\r\n    mapping (address => uint) balances;\r\n\r\n    address payable agent;  // agent owns smart contract\r\n    address payable tnc;    // transportation network company\r\n    address payable network; // distribution network\r\n\r\n    uint penality; // penality for cancelling\r\n\r\n    struct offer {\r\n        address payable buyer;\r\n        uint starting;\r\n        uint duration;\r\n        bool confirmed;\r\n    }\r\n\r\n    // hash of energy offer (processed by energy agent) mapped to offer\r\n    mapping (bytes32 => offer) public offers;\r\n\r\n    struct DriverData {\r\n        address payable driver;\r\n        bytes   id;\r\n        string  name;\r\n        string  contact;\r\n        uint    status; // 0=unverified,1=verified,2=approved,3=active,4=inactive,5=suspended\r\n    }\r\n\r\n    struct TripData {\r\n        address payable driver;\r\n        bytes32 tripno;\r\n        uint256 tripdate;\r\n        string  pickup;\r\n        string  dropoff;\r\n        uint256 miles;\r\n        uint256 booking_time;\r\n        uint256 begin_time;\r\n        uint256 finish_time;\r\n    }\r\n\r\n    address[] public d1;\r\n    mapping(address => DriverData) public drivers;\r\n\r\n    mapping (bytes32 => TripData) t1;\r\n    TripData[] public trips;\r\n\r\n    event Bought(bytes32 trans, address payable buyer);\r\n    event Confirmed(bytes32 trans, address payable buyer);\r\n    event Cancelled(bytes32 trans, address payable buyer);\r\n    event TripAdded(bytes32 trans, uint index);\r\n\r\n   constructor() {\r\n        agent = payable(msg.sender);\r\n        penality = 100;\r\n    }\r\n\r\n    modifier valid(uint _starting, uint _timestamp) {\r\n        require(_starting > _timestamp, \"\");\r\n        _;\r\n    }\r\n\r\n    modifier identity() {\r\n        require(msg.sender == network, \"\");\r\n        _;\r\n    }\r\n\r\n    function fundaddr(address addr) public{\r\n        balances[addr] = 2000;\r\n    }\r\n\r\n    function sendCoin(address receiver, uint amount, address sender)\r\n        public\r\n        returns(bool sufficient)\r\n    {\r\n        if (balances[sender] < amount) {\r\n            return false;\r\n        }\r\n\r\n        balances[sender] -= amount;\r\n        balances[receiver] += amount;\r\n\r\n        return true;\r\n    }\r\n\r\n    function getBalance(address addr)\r\n        public\r\n        view\r\n        returns(uint)\r\n    {\r\n        return balances[addr];\r\n    }\r\n\r\n    function addDriver(bytes memory id,string memory name,string memory contact)\r\n        public\r\n        returns (uint256)\r\n    {\r\n        require(msg.sender != address(0),\"zero address not permitted\");\r\n        DriverData memory _driver = DriverData(payable(msg.sender),id,name,contact,0);\r\n        drivers[msg.sender] = _driver;\r\n        d1.push(msg.sender);\r\n        return (d1.length - 1);\r\n    }\r\n\r\n    /**\r\n     * no = trasn used in the buy function\r\n     * The rider/customer buys a trip via the buy routine, and after the transaction is confirmed and paid,\r\n     * then a new trip is added. The offchain process will poll the unassigned trips and assign a matching driver\r\n     */\r\n    function addTrip(bytes32 no,\r\n                     uint256 tripdate,\r\n                     string memory pickup,\r\n                     string memory dropoff,\r\n                     uint miles,\r\n                     uint book,\r\n                     uint256 begintime,\r\n                     uint256 endtime)\r\n        public\r\n        returns (uint)\r\n    {\r\n        // TODO: better authentication so the msg.sender cannot be spoofed?\r\n        require(offers[no].buyer == msg.sender,\"Buyer does not match\");\r\n        // initially set driver as zero address for matching to assign the driver?\r\n        TripData memory _trip = TripData(payable(address(0)),no,tripdate,pickup,dropoff,miles,book,begintime,endtime);\r\n        trips.push(_trip);\r\n        t1[no] = _trip;\r\n        emit TripAdded(no,trips.length - 1);\r\n        return (trips.length - 1);\r\n    }\r\n\r\n    function getDriver()\r\n        public\r\n        view\r\n        returns (address,bytes memory,string memory,string memory)\r\n    {\r\n        require(msg.sender != address(0),\"zero address not permitted\");\r\n        return (msg.sender,drivers[msg.sender].id,drivers[msg.sender].name,drivers[msg.sender].contact);\r\n    }\r\n\r\n    function getDriverStatus()\r\n        public\r\n        view\r\n        returns (uint)\r\n    {\r\n        return drivers[msg.sender].status;\r\n    }\r\n\r\n    function getDriverStatusByAdmin(address driver)\r\n        public\r\n        view\r\n        okOwner\r\n        returns (uint)\r\n    {\r\n        return drivers[driver].status;\r\n    }\r\n\r\n    function changeDriverStatus(address driver,uint _status)\r\n        public\r\n        okOwner\r\n    {\r\n        drivers[driver].status = _status;\r\n    }\r\n\r\n    function getTrip(uint i)\r\n        public\r\n        view\r\n        returns (address,bytes32,uint256)\r\n    {\r\n        return (trips[i].driver,\r\n                trips[i].tripno,\r\n                trips[i].tripdate);\r\n    }\r\n\r\n    function getTripPickupLocation(uint i)\r\n        public\r\n        view\r\n        returns (string memory)\r\n    {\r\n        return trips[i].pickup;\r\n    }\r\n\r\n    function getTripDropoffLocation(uint i)\r\n        public\r\n        view\r\n        returns (string memory)\r\n    {\r\n        return trips[i].dropoff;\r\n    }\r\n\r\n    function getTripMiles(uint i)\r\n        public\r\n        view\r\n        returns (uint256)\r\n    {\r\n        return trips[i].miles;\r\n    }\r\n\r\n    function getTripTravelInfo(uint i)\r\n        public\r\n        view\r\n        returns (string memory,string memory, uint256)\r\n    {\r\n        return (trips[i].pickup,trips[i].dropoff,trips[i].miles);\r\n    }\r\n\r\n    function getTripTravelTimes(uint i)\r\n        public\r\n        view\r\n        returns (uint256,uint256,uint256)\r\n    {\r\n        return (trips[i].booking_time,trips[i].begin_time,trips[i].finish_time);\r\n    }\r\n\r\n    function addNetwork(address payable _network)\r\n        public\r\n        payable\r\n    {\r\n        network = _network;\r\n    }\r\n\r\n    function assignTrip(uint tripid,address payable driver)\r\n        public\r\n        okOwner\r\n    {\r\n        require(trips[tripid].driver == address(0),\"trip is already assigned to a driver\");\r\n        trips[tripid].driver = payable(driver);\r\n    }\r\n\r\n    function buy(bytes32 _trans, uint _starting, uint _duration, uint _timestamp)\r\n        public\r\n        valid(_starting,_timestamp)\r\n        payable\r\n    {\r\n        offer memory anOffer;\r\n\r\n        // offer must be available (ie hasn't been bought yet)\r\n        if (offers[_trans].buyer == address(0x0)) {\r\n            anOffer.buyer = payable(msg.sender);\r\n            anOffer.starting = _starting;\r\n            anOffer.duration = _duration;\r\n\r\n            offers[_trans] = anOffer;\r\n            emit Bought(_trans, payable(msg.sender));\r\n        }\r\n    }\r\n\r\n    function cancel(bytes32 _trans, uint _timestamp)\r\n        public\r\n        payable\r\n    {\r\n        if (offers[_trans].buyer == msg.sender) {\r\n            // buyer can cancel is starting time for rideshare transfer hasn't yet started\r\n            // must pay penality\r\n            if (offers[_trans].starting > _timestamp) {\r\n                offers[_trans].buyer = payable(address(0x0));\r\n                // person must pay penality\r\n                if (t1[_trans].driver != address(0)) {\r\n                    // if trip has beend assigned to a driver, driver gets half the penalty\r\n                    payable(msg.sender).transfer(penality / 2);\r\n                    t1[_trans].driver.transfer(penality / 2);\r\n                    payable(msg.sender).transfer(penality / 2);\r\n                    agent.transfer(penality / 2);\r\n                } else {\r\n                    // if the trip is not assigned to a driver, the agent gets all of the penalty\r\n                    payable(msg.sender).transfer(penality);\r\n                    agent.transfer(penality);\r\n                }\r\n                emit Cancelled(_trans,payable(msg.sender));\r\n            }\r\n        }\r\n    }\r\n\r\n    // network confrims rideshare transfer is possible, if not offer is invalid\r\n    function confirm(bytes32 _trans, uint _timestamp)\r\n        public\r\n        identity\r\n        payable\r\n    {\r\n        if (offers[_trans].starting > _timestamp) {\r\n            offers[_trans].confirmed = true;\r\n            emit Confirmed(_trans, offers[_trans].buyer);\r\n        }\r\n    }\r\n\r\n    // buyer pays once offer has been confirmed\r\n    function pay(bytes32 _trans)\r\n        public\r\n        payable\r\n    {\r\n        if (offers[_trans].buyer == msg.sender && offers[_trans].confirmed == true) {\r\n            // payment\r\n            payable(msg.sender).transfer(msg.value);\r\n            agent.transfer(msg.value);\r\n        }\r\n    }\r\n}",
  "sourcePath": "/Volumes/HOME/pingleware-contracts/contracts/transportation/RideshareTrade.sol",
  "compiler": {
    "name": "solc",
    "version": "0.8.18+commit.87f61d96.Emscripten.clang"
  },
  "schemaVersion": "3.4.12",
  "updatedAt": "2024-05-23T18:56:27.403Z",
  "devdoc": {
    "kind": "dev",
    "methods": {
      "renounceOwnership()": {
        "details": "Leaves the contract without owner. It will not be possible to call `onlyOwner` functions anymore. Can only be called by the current owner. NOTE: Renouncing ownership will leave the contract without an owner, thereby removing any functionality that is only available to the owner."
      },
      "transferOwnership(address)": {
        "details": "Transfers ownership of the contract to a new account (`newOwner`). Can only be called by the current owner."
      }
    },
    "version": 1
  },
  "userdoc": {
    "kind": "user",
    "methods": {
      "addTrip(bytes32,uint256,string,string,uint256,uint256,uint256,uint256)": {
        "notice": "no = trasn used in the buy function The rider/customer buys a trip via the buy routine, and after the transaction is confirmed and paid, then a new trip is added. The offchain process will poll the unassigned trips and assign a matching driver"
      }
    },
    "version": 1
  }
}