{
  "contractName": "RideshareTrade",
  "abi": [
    {
      "inputs": [],
      "stateMutability": "nonpayable",
      "type": "constructor"
    },
    {
      "anonymous": false,
      "inputs": [
        {
          "indexed": false,
          "internalType": "bytes32",
          "name": "trans",
          "type": "bytes32"
        },
        {
          "indexed": false,
          "internalType": "address payable",
          "name": "buyer",
          "type": "address"
        }
      ],
      "name": "Bought",
      "type": "event"
    },
    {
      "anonymous": false,
      "inputs": [
        {
          "indexed": false,
          "internalType": "bytes32",
          "name": "trans",
          "type": "bytes32"
        },
        {
          "indexed": false,
          "internalType": "address payable",
          "name": "buyer",
          "type": "address"
        }
      ],
      "name": "Cancelled",
      "type": "event"
    },
    {
      "anonymous": false,
      "inputs": [
        {
          "indexed": false,
          "internalType": "bytes32",
          "name": "trans",
          "type": "bytes32"
        },
        {
          "indexed": false,
          "internalType": "address payable",
          "name": "buyer",
          "type": "address"
        }
      ],
      "name": "Confirmed",
      "type": "event"
    },
    {
      "anonymous": false,
      "inputs": [
        {
          "indexed": false,
          "internalType": "address",
          "name": "sender",
          "type": "address"
        },
        {
          "indexed": false,
          "internalType": "address",
          "name": "recipient",
          "type": "address"
        }
      ],
      "name": "Destroyed",
      "type": "event"
    },
    {
      "anonymous": false,
      "inputs": [
        {
          "indexed": false,
          "internalType": "address",
          "name": "sender",
          "type": "address"
        },
        {
          "indexed": false,
          "internalType": "uint256",
          "name": "amount",
          "type": "uint256"
        }
      ],
      "name": "FallbackEvent",
      "type": "event"
    },
    {
      "anonymous": false,
      "inputs": [
        {
          "indexed": true,
          "internalType": "address",
          "name": "previousOwner",
          "type": "address"
        },
        {
          "indexed": true,
          "internalType": "address",
          "name": "newOwner",
          "type": "address"
        }
      ],
      "name": "OwnershipTransferred",
      "type": "event"
    },
    {
      "anonymous": false,
      "inputs": [
        {
          "indexed": false,
          "internalType": "address",
          "name": "sender",
          "type": "address"
        },
        {
          "indexed": false,
          "internalType": "uint256",
          "name": "amount",
          "type": "uint256"
        }
      ],
      "name": "ReceiveEvent",
      "type": "event"
    },
    {
      "anonymous": false,
      "inputs": [
        {
          "indexed": false,
          "internalType": "address",
          "name": "sender",
          "type": "address"
        },
        {
          "indexed": false,
          "internalType": "bytes",
          "name": "reason",
          "type": "bytes"
        }
      ],
      "name": "Started",
      "type": "event"
    },
    {
      "anonymous": false,
      "inputs": [
        {
          "indexed": false,
          "internalType": "address",
          "name": "sender",
          "type": "address"
        },
        {
          "indexed": false,
          "internalType": "bytes",
          "name": "reason",
          "type": "bytes"
        }
      ],
      "name": "Stopped",
      "type": "event"
    },
    {
      "anonymous": false,
      "inputs": [
        {
          "indexed": false,
          "internalType": "address",
          "name": "sender",
          "type": "address"
        },
        {
          "indexed": false,
          "internalType": "string",
          "name": "reason",
          "type": "string"
        }
      ],
      "name": "Termination",
      "type": "event"
    },
    {
      "anonymous": false,
      "inputs": [
        {
          "indexed": false,
          "internalType": "bytes32",
          "name": "trans",
          "type": "bytes32"
        },
        {
          "indexed": false,
          "internalType": "uint256",
          "name": "index",
          "type": "uint256"
        }
      ],
      "name": "TripAdded",
      "type": "event"
    },
    {
      "stateMutability": "payable",
      "type": "fallback"
    },
    {
      "inputs": [],
      "name": "VERSION",
      "outputs": [
        {
          "internalType": "string",
          "name": "",
          "type": "string"
        }
      ],
      "stateMutability": "view",
      "type": "function"
    },
    {
      "inputs": [],
      "name": "WAIT",
      "outputs": [
        {
          "internalType": "uint256",
          "name": "",
          "type": "uint256"
        }
      ],
      "stateMutability": "view",
      "type": "function"
    },
    {
      "inputs": [],
      "name": "c",
      "outputs": [
        {
          "internalType": "uint256",
          "name": "",
          "type": "uint256"
        }
      ],
      "stateMutability": "view",
      "type": "function"
    },
    {
      "inputs": [
        {
          "internalType": "uint256",
          "name": "",
          "type": "uint256"
        }
      ],
      "name": "d1",
      "outputs": [
        {
          "internalType": "address",
          "name": "",
          "type": "address"
        }
      ],
      "stateMutability": "view",
      "type": "function"
    },
    {
      "inputs": [],
      "name": "destroy",
      "outputs": [],
      "stateMutability": "nonpayable",
      "type": "function"
    },
    {
      "inputs": [
        {
          "internalType": "address",
          "name": "_recipient",
          "type": "address"
        }
      ],
      "name": "destroyAndSend",
      "outputs": [],
      "stateMutability": "nonpayable",
      "type": "function"
    },
    {
      "inputs": [
        {
          "internalType": "address",
          "name": "",
          "type": "address"
        }
      ],
      "name": "drivers",
      "outputs": [
        {
          "internalType": "address payable",
          "name": "driver",
          "type": "address"
        },
        {
          "internalType": "bytes",
          "name": "id",
          "type": "bytes"
        },
        {
          "internalType": "string",
          "name": "name",
          "type": "string"
        },
        {
          "internalType": "string",
          "name": "contact",
          "type": "string"
        },
        {
          "internalType": "uint256",
          "name": "status",
          "type": "uint256"
        }
      ],
      "stateMutability": "view",
      "type": "function"
    },
    {
      "inputs": [],
      "name": "getOwner",
      "outputs": [
        {
          "internalType": "address",
          "name": "",
          "type": "address"
        }
      ],
      "stateMutability": "payable",
      "type": "function"
    },
    {
      "inputs": [
        {
          "internalType": "bytes32",
          "name": "",
          "type": "bytes32"
        }
      ],
      "name": "offers",
      "outputs": [
        {
          "internalType": "address payable",
          "name": "buyer",
          "type": "address"
        },
        {
          "internalType": "uint256",
          "name": "starting",
          "type": "uint256"
        },
        {
          "internalType": "uint256",
          "name": "duration",
          "type": "uint256"
        },
        {
          "internalType": "bool",
          "name": "confirmed",
          "type": "bool"
        }
      ],
      "stateMutability": "view",
      "type": "function"
    },
    {
      "inputs": [],
      "name": "renounceOwnership",
      "outputs": [],
      "stateMutability": "payable",
      "type": "function"
    },
    {
      "inputs": [],
      "name": "s",
      "outputs": [
        {
          "internalType": "uint256",
          "name": "",
          "type": "uint256"
        }
      ],
      "stateMutability": "view",
      "type": "function"
    },
    {
      "inputs": [],
      "name": "t",
      "outputs": [
        {
          "internalType": "uint256",
          "name": "",
          "type": "uint256"
        }
      ],
      "stateMutability": "view",
      "type": "function"
    },
    {
      "inputs": [
        {
          "internalType": "address",
          "name": "newOwner",
          "type": "address"
        }
      ],
      "name": "transferOwnership",
      "outputs": [],
      "stateMutability": "payable",
      "type": "function"
    },
    {
      "inputs": [
        {
          "internalType": "uint256",
          "name": "",
          "type": "uint256"
        }
      ],
      "name": "trips",
      "outputs": [
        {
          "internalType": "address payable",
          "name": "driver",
          "type": "address"
        },
        {
          "internalType": "bytes32",
          "name": "tripno",
          "type": "bytes32"
        },
        {
          "internalType": "uint256",
          "name": "tripdate",
          "type": "uint256"
        },
        {
          "internalType": "string",
          "name": "pickup",
          "type": "string"
        },
        {
          "internalType": "string",
          "name": "dropoff",
          "type": "string"
        },
        {
          "internalType": "uint256",
          "name": "miles",
          "type": "uint256"
        },
        {
          "internalType": "uint256",
          "name": "booking_time",
          "type": "uint256"
        },
        {
          "internalType": "uint256",
          "name": "begin_time",
          "type": "uint256"
        },
        {
          "internalType": "uint256",
          "name": "finish_time",
          "type": "uint256"
        }
      ],
      "stateMutability": "view",
      "type": "function"
    },
    {
      "stateMutability": "payable",
      "type": "receive"
    },
    {
      "inputs": [
        {
          "internalType": "address",
          "name": "addr",
          "type": "address"
        }
      ],
      "name": "fundaddr",
      "outputs": [],
      "stateMutability": "nonpayable",
      "type": "function"
    },
    {
      "inputs": [
        {
          "internalType": "address",
          "name": "receiver",
          "type": "address"
        },
        {
          "internalType": "uint256",
          "name": "amount",
          "type": "uint256"
        },
        {
          "internalType": "address",
          "name": "sender",
          "type": "address"
        }
      ],
      "name": "sendCoin",
      "outputs": [
        {
          "internalType": "bool",
          "name": "sufficient",
          "type": "bool"
        }
      ],
      "stateMutability": "nonpayable",
      "type": "function"
    },
    {
      "inputs": [
        {
          "internalType": "address",
          "name": "addr",
          "type": "address"
        }
      ],
      "name": "getBalance",
      "outputs": [
        {
          "internalType": "uint256",
          "name": "",
          "type": "uint256"
        }
      ],
      "stateMutability": "view",
      "type": "function"
    },
    {
      "inputs": [
        {
          "internalType": "bytes",
          "name": "id",
          "type": "bytes"
        },
        {
          "internalType": "string",
          "name": "name",
          "type": "string"
        },
        {
          "internalType": "string",
          "name": "contact",
          "type": "string"
        }
      ],
      "name": "addDriver",
      "outputs": [
        {
          "internalType": "uint256",
          "name": "",
          "type": "uint256"
        }
      ],
      "stateMutability": "nonpayable",
      "type": "function"
    },
    {
      "inputs": [
        {
          "internalType": "bytes32",
          "name": "no",
          "type": "bytes32"
        },
        {
          "internalType": "uint256",
          "name": "tripdate",
          "type": "uint256"
        },
        {
          "internalType": "string",
          "name": "pickup",
          "type": "string"
        },
        {
          "internalType": "string",
          "name": "dropoff",
          "type": "string"
        },
        {
          "internalType": "uint256",
          "name": "miles",
          "type": "uint256"
        },
        {
          "internalType": "uint256",
          "name": "book",
          "type": "uint256"
        },
        {
          "internalType": "uint256",
          "name": "begintime",
          "type": "uint256"
        },
        {
          "internalType": "uint256",
          "name": "endtime",
          "type": "uint256"
        }
      ],
      "name": "addTrip",
      "outputs": [
        {
          "internalType": "uint256",
          "name": "",
          "type": "uint256"
        }
      ],
      "stateMutability": "nonpayable",
      "type": "function"
    },
    {
      "inputs": [],
      "name": "getDriver",
      "outputs": [
        {
          "internalType": "address",
          "name": "",
          "type": "address"
        },
        {
          "internalType": "bytes",
          "name": "",
          "type": "bytes"
        },
        {
          "internalType": "string",
          "name": "",
          "type": "string"
        },
        {
          "internalType": "string",
          "name": "",
          "type": "string"
        }
      ],
      "stateMutability": "view",
      "type": "function"
    },
    {
      "inputs": [],
      "name": "getDriverStatus",
      "outputs": [
        {
          "internalType": "uint256",
          "name": "",
          "type": "uint256"
        }
      ],
      "stateMutability": "view",
      "type": "function"
    },
    {
      "inputs": [
        {
          "internalType": "address",
          "name": "driver",
          "type": "address"
        }
      ],
      "name": "getDriverStatusByAdmin",
      "outputs": [
        {
          "internalType": "uint256",
          "name": "",
          "type": "uint256"
        }
      ],
      "stateMutability": "view",
      "type": "function"
    },
    {
      "inputs": [
        {
          "internalType": "address",
          "name": "driver",
          "type": "address"
        },
        {
          "internalType": "uint256",
          "name": "_status",
          "type": "uint256"
        }
      ],
      "name": "changeDriverStatus",
      "outputs": [],
      "stateMutability": "nonpayable",
      "type": "function"
    },
    {
      "inputs": [
        {
          "internalType": "uint256",
          "name": "i",
          "type": "uint256"
        }
      ],
      "name": "getTrip",
      "outputs": [
        {
          "internalType": "address",
          "name": "",
          "type": "address"
        },
        {
          "internalType": "bytes32",
          "name": "",
          "type": "bytes32"
        },
        {
          "internalType": "uint256",
          "name": "",
          "type": "uint256"
        }
      ],
      "stateMutability": "view",
      "type": "function"
    },
    {
      "inputs": [
        {
          "internalType": "uint256",
          "name": "i",
          "type": "uint256"
        }
      ],
      "name": "getTripPickupLocation",
      "outputs": [
        {
          "internalType": "string",
          "name": "",
          "type": "string"
        }
      ],
      "stateMutability": "view",
      "type": "function"
    },
    {
      "inputs": [
        {
          "internalType": "uint256",
          "name": "i",
          "type": "uint256"
        }
      ],
      "name": "getTripDropoffLocation",
      "outputs": [
        {
          "internalType": "string",
          "name": "",
          "type": "string"
        }
      ],
      "stateMutability": "view",
      "type": "function"
    },
    {
      "inputs": [
        {
          "internalType": "uint256",
          "name": "i",
          "type": "uint256"
        }
      ],
      "name": "getTripMiles",
      "outputs": [
        {
          "internalType": "uint256",
          "name": "",
          "type": "uint256"
        }
      ],
      "stateMutability": "view",
      "type": "function"
    },
    {
      "inputs": [
        {
          "internalType": "uint256",
          "name": "i",
          "type": "uint256"
        }
      ],
      "name": "getTripTravelInfo",
      "outputs": [
        {
          "internalType": "string",
          "name": "",
          "type": "string"
        },
        {
          "internalType": "string",
          "name": "",
          "type": "string"
        },
        {
          "internalType": "uint256",
          "name": "",
          "type": "uint256"
        }
      ],
      "stateMutability": "view",
      "type": "function"
    },
    {
      "inputs": [
        {
          "internalType": "uint256",
          "name": "i",
          "type": "uint256"
        }
      ],
      "name": "getTripTravelTimes",
      "outputs": [
        {
          "internalType": "uint256",
          "name": "",
          "type": "uint256"
        },
        {
          "internalType": "uint256",
          "name": "",
          "type": "uint256"
        },
        {
          "internalType": "uint256",
          "name": "",
          "type": "uint256"
        }
      ],
      "stateMutability": "view",
      "type": "function"
    },
    {
      "inputs": [
        {
          "internalType": "address payable",
          "name": "_network",
          "type": "address"
        }
      ],
      "name": "addNetwork",
      "outputs": [],
      "stateMutability": "payable",
      "type": "function"
    },
    {
      "inputs": [
        {
          "internalType": "uint256",
          "name": "tripid",
          "type": "uint256"
        },
        {
          "internalType": "address payable",
          "name": "driver",
          "type": "address"
        }
      ],
      "name": "assignTrip",
      "outputs": [],
      "stateMutability": "nonpayable",
      "type": "function"
    },
    {
      "inputs": [
        {
          "internalType": "bytes32",
          "name": "_trans",
          "type": "bytes32"
        },
        {
          "internalType": "uint256",
          "name": "_starting",
          "type": "uint256"
        },
        {
          "internalType": "uint256",
          "name": "_duration",
          "type": "uint256"
        },
        {
          "internalType": "uint256",
          "name": "_timestamp",
          "type": "uint256"
        }
      ],
      "name": "buy",
      "outputs": [],
      "stateMutability": "payable",
      "type": "function"
    },
    {
      "inputs": [
        {
          "internalType": "bytes32",
          "name": "_trans",
          "type": "bytes32"
        },
        {
          "internalType": "uint256",
          "name": "_timestamp",
          "type": "uint256"
        }
      ],
      "name": "cancel",
      "outputs": [],
      "stateMutability": "payable",
      "type": "function"
    },
    {
      "inputs": [
        {
          "internalType": "bytes32",
          "name": "_trans",
          "type": "bytes32"
        },
        {
          "internalType": "uint256",
          "name": "_timestamp",
          "type": "uint256"
        }
      ],
      "name": "confirm",
      "outputs": [],
      "stateMutability": "payable",
      "type": "function"
    },
    {
      "inputs": [
        {
          "internalType": "bytes32",
          "name": "_trans",
          "type": "bytes32"
        }
      ],
      "name": "pay",
      "outputs": [],
      "stateMutability": "payable",
      "type": "function"
    }
  ],
  "bytecode": "0x6080604052600060019081556003805460ff19169055600481905560065534801561002957600080fd5b5060008054600160a060020a031916339081178255426001556040519091907f8be0079c531659141344cd1fd0a4f28419497f9722a3daafe3b4186f6b6457e0908290a360088054600160a060020a031916331790556064600b55612628806100936000396000f3fe60806040526004361061019a5760e060020a60003504622a4a0881146102615780630101170514610297578063069455a0146102dc57806309378b5f146102f1578063117f9aef1461031f5780632c45df9914610344578063446db8a714610357578063474d3ff01461037c5780634aa60186146103f7578063715018a6146104285780637f88e8981461043057806383197ef0146104505780638609cad11461046557806386b714e214610478578063893d20e81461048e57806392d0d153146104ae578063a5a50df0146104c4578063b81e3a50146104e4578063b8fb3a5114610514578063bf2b8cfc14610529578063c3da42b814610549578063d070b8441461055f578063d2aad9fa1461059a578063d3452bf5146105c9578063d567e4a4146105e9578063dae4cedc14610619578063dca39c9f14610639578063e7708d0314610659578063f2cb3d7614610679578063f2fde38b1461068c578063f5074f411461069f578063f6824a7c146106bf578063f8b2cb4f146106f4578063fb5ade311461072a578063ffa1ad7414610763576101da565b366101da577fcc85d09d309785db93d6df19917f2e6cc07fe27cd01c08c8279145deb5cf452633346040516101d0929190611def565b60405180910390a1005b3233146102305760405160e560020a62461bcd0281526020600482015260196024820152603860020a787068697368696e672061747461636b2064657465637465643f0260448201526064015b60405180910390fd5b7f26875833861a2b006512a11f1b86edf95df96131040f3caeed72989ee985808333346040516101d0929190611def565b34801561026d57600080fd5b5061028161027c366004611e08565b61079c565b60405161028e9190611e67565b60405180910390f35b3480156102a357600080fd5b506102b76102b2366004611e08565b610852565b60408051600160a060020a03909416845260208401929092529082015260600161028e565b6102ef6102ea366004611e7a565b6108df565b005b3480156102fd57600080fd5b5061031161030c366004611f4b565b610b29565b60405190815260200161028e565b34801561032b57600080fd5b50336000908152600e6020526040902060040154610311565b6102ef610352366004611fe5565b610de9565b34801561036357600080fd5b5061036c610efd565b60405161028e9493929190612017565b34801561038857600080fd5b506103cb610397366004611e08565b600c602052600090815260409020805460018201546002830154600390930154600160a060020a0390921692909160ff1684565b60408051600160a060020a0390951685526020850193909352918301521515606082015260800161028e565b34801561040357600080fd5b50610417610412366004612081565b6110f6565b60405161028e95949392919061209e565b6102ef6112c7565b34801561043c57600080fd5b506102ef61044b3660046120fb565b61132c565b34801561045c57600080fd5b506102ef611378565b6102ef610473366004611e08565b6113d5565b34801561048457600080fd5b5061031160045481565b61049661147f565b604051600160a060020a03909116815260200161028e565b3480156104ba57600080fd5b5061031160065481565b3480156104d057600080fd5b506103116104df366004612081565b6114f5565b3480156104f057600080fd5b506105046104ff366004612127565b611542565b604051901515815260200161028e565b34801561052057600080fd5b50610311601e81565b34801561053557600080fd5b506102ef610544366004612169565b6115d0565b34801561055557600080fd5b5061031160055481565b34801561056b57600080fd5b5061057f61057a366004611e08565b6116da565b6040805193845260208401929092529082015260600161028e565b3480156105a657600080fd5b506105ba6105b5366004611e08565b61175b565b60405161028e93929190612199565b3480156105d557600080fd5b506103116105e43660046121cf565b6118f2565b6102ef6105f7366004612081565b600a8054600160a060020a031916600160a060020a0392909216919091179055565b34801561062557600080fd5b50610311610634366004611e08565b611a0d565b34801561064557600080fd5b50610281610654366004611e08565b611a3b565b34801561066557600080fd5b50610496610674366004611e08565b611a6c565b6102ef610687366004611e7a565b611a96565b6102ef61069a366004612081565b611b3f565b3480156106ab57600080fd5b506102ef6106ba366004612081565b611c20565b3480156106cb57600080fd5b506106df6106da366004611e08565b611c77565b60405161028e9998979695949392919061226d565b34801561070057600080fd5b5061031161070f366004612081565b600160a060020a031660009081526007602052604090205490565b34801561073657600080fd5b506102ef610745366004612081565b600160a060020a031660009081526007602052604090206107d09055565b34801561076f57600080fd5b506102816040518060400160405280600a815260200160b060020a69312e362e342d626574610281525081565b6060601082815481106107b1576107b16122da565b906000526020600020906009020160030180546107cd906122f4565b80601f01602080910402602001604051908101604052809291908181526020018280546107f9906122f4565b80156108465780601f1061081b57610100808354040283529160200191610846565b820191906000526020600020905b81548152906001019060200180831161082957829003601f168201915b50505050509050919050565b60008060006010848154811061086a5761086a6122da565b600091825260209091206009909102015460108054600160a060020a03909216918690811061089b5761089b6122da565b906000526020600020906009020160010154601086815481106108c0576108c06122da565b9060005260206000209060090201600201549250925092509193909250565b6000828152600c602052604090205433600160a060020a0390911603610b25576000828152600c6020526040902060010154811015610b25576000828152600c602090815260408083208054600160a060020a0319169055600f909152902054600160a060020a031615610a7e5733600160a060020a03166108fc6002600b54610969919061234c565b6040518115909202916000818181858888f19350505050158015610991573d6000803e3d6000fd5b506000828152600f6020526040902054600b54600160a060020a03909116906108fc906109c09060029061234c565b6040518115909202916000818181858888f193505050501580156109e8573d6000803e3d6000fd5b5033600160a060020a03166108fc6002600b54610a05919061234c565b6040518115909202916000818181858888f19350505050158015610a2d573d6000803e3d6000fd5b50600854600b54600160a060020a03909116906108fc90610a509060029061234c565b6040518115909202916000818181858888f19350505050158015610a78573d6000803e3d6000fd5b50610aeb565b600b54604051339180156108fc02916000818181858888f19350505050158015610aac573d6000803e3d6000fd5b50600854600b54604051600160a060020a039092169181156108fc0291906000818181858888f19350505050158015610ae9573d6000803e3d6000fd5b505b7f37f7fee84bd656bac1447df96e3014d8a7e8352e960e827b202efad2f908ecd38233604051610b1c929190612372565b60405180910390a15b5050565b6000888152600c6020526040812054600160a060020a03163314610b8c5760405160e560020a62461bcd0281526020600482015260146024820152606360020a73084eaf2cae440c8decae640dcdee840dac2e8c6d026044820152606401610227565b60408051610120810182526000808252602082018c81529282018b8152606083018b8152608084018b905260a084018a905260c0840189905260e08401889052610100840187905260108054600181018255935283517f1b6847dc741a1b0cd08d278845f9d819d87b734759afb55fe2de5cb82a9ae67260099094029384018054600160a060020a031916600160a060020a0390921691909117815594517f1b6847dc741a1b0cd08d278845f9d819d87b734759afb55fe2de5cb82a9ae67384015590517f1b6847dc741a1b0cd08d278845f9d819d87b734759afb55fe2de5cb82a9ae674830155519192839290917f1b6847dc741a1b0cd08d278845f9d819d87b734759afb55fe2de5cb82a9ae6750190610ca890826123d8565b5060808201516004820190610cbd90826123d8565b5060a0820151600582015560c0820151600682015560e082015160078201556101009091015160089091015560008a8152600f602090815260409182902083518154600160a060020a031916600160a060020a0390911617815590830151600182015590820151600282015560608201518291906003820190610d4090826123d8565b5060808201516004820190610d5590826123d8565b5060a0820151600582015560c0820151600682015560e08201516007820155610100909101516008909101556010547ffa2d8c56fcdd7ed5e539ee49781925a0742f8ffcb2d0928a262c0b21a35301e6908b90610db49060019061249d565b6040805192835260208301919091520160405180910390a1601054610ddb9060019061249d565b9a9950505050505050505050565b8281808211610e175760405160e560020a62461bcd0281526020600482015260006024820152604401610227565b6040805160808101825260008082526020820181905291810182905260608101919091526000878152600c6020526040902054600160a060020a0316610ef457338082526020808301888152604080850189815260008c8152600c9094529281902085518154600160a060020a031916600160a060020a03909116178155915160018301559151600282015560608401516003909101805460ff1916911515919091179055517fc4166f8025209892d34bf30c06e392e4ca0198eba8483b42ceabd1bbfdc6b40191610eeb918a9190612372565b60405180910390a15b50505050505050565b60006060808033610f235760405160e560020a62461bcd028152600401610227906124b6565b336000818152600e60205260409020600181018054909160028101916003909101908390610f50906122f4565b80601f0160208091040260200160405190810160405280929190818152602001828054610f7c906122f4565b8015610fc95780601f10610f9e57610100808354040283529160200191610fc9565b820191906000526020600020905b815481529060010190602001808311610fac57829003601f168201915b50505050509250818054610fdc906122f4565b80601f0160208091040260200160405190810160405280929190818152602001828054611008906122f4565b80156110555780601f1061102a57610100808354040283529160200191611055565b820191906000526020600020905b81548152906001019060200180831161103857829003601f168201915b50505050509150808054611068906122f4565b80601f0160208091040260200160405190810160405280929190818152602001828054611094906122f4565b80156110e15780601f106110b6576101008083540402835291602001916110e1565b820191906000526020600020905b8154815290600101906020018083116110c457829003601f168201915b50505050509050935093509350935090919293565b600e6020526000908152604090208054600182018054600160a060020a039092169291611122906122f4565b80601f016020809104026020016040519081016040528092919081815260200182805461114e906122f4565b801561119b5780601f106111705761010080835404028352916020019161119b565b820191906000526020600020905b81548152906001019060200180831161117e57829003601f168201915b5050505050908060020180546111b0906122f4565b80601f01602080910402602001604051908101604052809291908181526020018280546111dc906122f4565b80156112295780601f106111fe57610100808354040283529160200191611229565b820191906000526020600020905b81548152906001019060200180831161120c57829003601f168201915b50505050509080600301805461123e906122f4565b80601f016020809104026020016040519081016040528092919081815260200182805461126a906122f4565b80156112b75780601f1061128c576101008083540402835291602001916112b7565b820191906000526020600020905b81548152906001019060200180831161129a57829003601f168201915b5050505050908060040154905085565b600054600160a060020a031633146112f45760405160e560020a62461bcd028152600401610227906124ed565b60008054604051600160a060020a03909116906000805160206125d3833981519152908390a360008054600160a060020a0319169055565b600054600160a060020a031633146113595760405160e560020a62461bcd02815260040161022790612521565b600160a060020a039091166000908152600e6020526040902060040155565b600054600160a060020a031633146113a55760405160e560020a62461bcd02815260040161022790612521565b6000805160206125b3833981519152336113bd61147f565b6040516113cb929190612558565b60405180910390a1565b6000818152600c6020526040902054600160a060020a03163314801561141157506000818152600c602052604090206003015460ff1615156001145b1561147c5760405133903480156108fc02916000818181858888f19350505050158015611442573d6000803e3d6000fd5b50600854604051600160a060020a03909116903480156108fc02916000818181858888f19350505050158015610b25573d6000803e3d6000fd5b50565b6000601e6001546114909190612572565b42116114b15760405160e560020a62461bcd02815260040161022790612585565b601e6001546114c09190612572565b42116114e15760405160e560020a62461bcd02815260040161022790612585565b5042600155600054600160a060020a031690565b60008054600160a060020a031633146115235760405160e560020a62461bcd02815260040161022790612521565b50600160a060020a03166000908152600e602052604090206004015490565b600160a060020a03811660009081526007602052604081205483111561156a575060006115c9565b600160a060020a0382166000908152600760205260408120805485929061159290849061249d565b9091555050600160a060020a038416600090815260076020526040812080548592906115bf908490612572565b9091555060019150505b9392505050565b600054600160a060020a031633146115fd5760405160e560020a62461bcd02815260040161022790612521565b6000600160a060020a03166010838154811061161b5761161b6122da565b6000918252602090912060099091020154600160a060020a0316146116945760405160e560020a62461bcd028152602060048201526024808201527f7472697020697320616c72656164792061737369676e656420746f2061206472604482015260e160020a6334bb32b9026064820152608401610227565b80601083815481106116a8576116a86122da565b600091825260209091206009909102018054600160a060020a031916600160a060020a03929092169190911790555050565b6000806000601084815481106116f2576116f26122da565b90600052602060002090600902016006015460108581548110611717576117176122da565b9060005260206000209060090201600701546010868154811061173c5761173c6122da565b9060005260206000209060090201600801549250925092509193909250565b606080600060108481548110611773576117736122da565b906000526020600020906009020160030160108581548110611797576117976122da565b9060005260206000209060090201600401601086815481106117bb576117bb6122da565b9060005260206000209060090201600501548280546117d9906122f4565b80601f0160208091040260200160405190810160405280929190818152602001828054611805906122f4565b80156118525780601f1061182757610100808354040283529160200191611852565b820191906000526020600020905b81548152906001019060200180831161183557829003601f168201915b50505050509250818054611865906122f4565b80601f0160208091040260200160405190810160405280929190818152602001828054611891906122f4565b80156118de5780601f106118b3576101008083540402835291602001916118de565b820191906000526020600020905b8154815290600101906020018083116118c157829003601f168201915b505050505091509250925092509193909250565b6000336119145760405160e560020a62461bcd028152600401610227906124b6565b6040805160a08101825233808252602080830188815283850188905260608401879052600060808501819052928352600e90915292902081518154600160a060020a031916600160a060020a03909116178155915190918291600182019061197c90826123d8565b506040820151600282019061199190826123d8565b50606082015160038201906119a690826123d8565b5060809190910151600490910155600d80546001818101835560008390527fd7b6990105719101dabeb77144f2a3385c8033acd3af97e9423a695e81ad1eb59091018054600160a060020a031916331790559054611a04919061249d565b95945050505050565b600060108281548110611a2257611a226122da565b9060005260206000209060090201600501549050919050565b606060108281548110611a5057611a506122da565b906000526020600020906009020160040180546107cd906122f4565b600d8181548110611a7c57600080fd5b600091825260209091200154600160a060020a0316905081565b600a54600160a060020a03163314611acd5760405160e560020a62461bcd0281526020600482015260006024820152604401610227565b6000828152600c6020526040902060010154811015610b25576000828152600c60205260409081902060038101805460ff191660011790555490517fd4964a7cd99f5c1fa8f2420fb5e1d3bd26eadf16e2658cf2e29a67dfda38601e91610b1c918591600160a060020a031690612372565b600054600160a060020a03163314611b6c5760405160e560020a62461bcd028152600401610227906124ed565b600160a060020a038116611bd75760405160e560020a62461bcd02815260206004820152602660248201527f4f776e61626c653a206e6577206f776e657220697320746865207a65726f2061604482015260d060020a65646472657373026064820152608401610227565b60008054604051600160a060020a03808516939216916000805160206125d383398151915291a360008054600160a060020a031916600160a060020a0392909216919091179055565b600054600160a060020a03163314611c4d5760405160e560020a62461bcd02815260040161022790612521565b6000805160206125b38339815191523382604051611c6c929190612558565b60405180910390a150565b60108181548110611c8757600080fd5b60009182526020909120600990910201805460018201546002830154600384018054600160a060020a03909416955091939092909190611cc6906122f4565b80601f0160208091040260200160405190810160405280929190818152602001828054611cf2906122f4565b8015611d3f5780601f10611d1457610100808354040283529160200191611d3f565b820191906000526020600020905b815481529060010190602001808311611d2257829003601f168201915b505050505090806004018054611d54906122f4565b80601f0160208091040260200160405190810160405280929190818152602001828054611d80906122f4565b8015611dcd5780601f10611da257610100808354040283529160200191611dcd565b820191906000526020600020905b815481529060010190602001808311611db057829003601f168201915b5050505050908060050154908060060154908060070154908060080154905089565b600160a060020a03929092168252602082015260400190565b600060208284031215611e1a57600080fd5b5035919050565b6000815180845260005b81811015611e4757602081850181015186830182015201611e2b565b506000602082860101526020601f19601f83011685010191505092915050565b6020815260006115c96020830184611e21565b60008060408385031215611e8d57600080fd5b50508035926020909101359150565b60e060020a634e487b710260009081526041600452602490fd5b60006001604060020a0380841115611ed057611ed0611e9c565b604051601f8501601f19908116603f01168101908282118183101715611ef857611ef8611e9c565b81604052809350858152868686011115611f1157600080fd5b858560208301376000602087830101525050509392505050565b600082601f830112611f3c57600080fd5b6115c983833560208501611eb6565b600080600080600080600080610100898b031215611f6857600080fd5b883597506020890135965060408901356001604060020a0380821115611f8d57600080fd5b611f998c838d01611f2b565b975060608b0135915080821115611faf57600080fd5b50611fbc8b828c01611f2b565b989b979a50959860808101359760a0820135975060c0820135965060e090910135945092505050565b60008060008060808587031215611ffb57600080fd5b5050823594602084013594506040840135936060013592509050565b600160a060020a038516815260806020820181905260009061203b90830186611e21565b828103604084015261204d8186611e21565b905082810360608401526120618185611e21565b979650505050505050565b600160a060020a038116811461147c57600080fd5b60006020828403121561209357600080fd5b81356115c98161206c565b600160a060020a038616815260a0602082018190526000906120c290830187611e21565b82810360408401526120d48187611e21565b905082810360608401526120e88186611e21565b9150508260808301529695505050505050565b6000806040838503121561210e57600080fd5b82356121198161206c565b946020939093013593505050565b60008060006060848603121561213c57600080fd5b83356121478161206c565b925060208401359150604084013561215e8161206c565b809150509250925092565b6000806040838503121561217c57600080fd5b82359150602083013561218e8161206c565b809150509250929050565b6060815260006121ac6060830186611e21565b82810360208401526121be8186611e21565b915050826040830152949350505050565b6000806000606084860312156121e457600080fd5b83356001604060020a03808211156121fb57600080fd5b818601915086601f83011261220f57600080fd5b61221e87833560208501611eb6565b9450602086013591508082111561223457600080fd5b61224087838801611f2b565b9350604086013591508082111561225657600080fd5b5061226386828701611f2b565b9150509250925092565b6000610120600160a060020a038c1683528a602084015289604084015280606084015261229c8184018a611e21565b905082810360808401526122b08189611e21565b9150508560a08301528460c08301528360e0830152826101008301529a9950505050505050505050565b60e060020a634e487b710260009081526032600452602490fd5b60028104600182168061230857607f821691505b60208210810361232c5760e060020a634e487b710260009081526022600452602490fd5b50919050565b60e060020a634e487b710260009081526011600452602490fd5b60008261236d5760e060020a634e487b710260009081526012600452602490fd5b500490565b918252600160a060020a0316602082015260400190565b601f8211156123d3576000818152602081206020601f860104810160208610156123b05750805b6020601f860104820191505b818110156123cf578281556001016123bc565b5050505b505050565b81516001604060020a038111156123f1576123f1611e9c565b612405816123ff84546122f4565b84612389565b602080601f83116001811461243e57600084156124225750858301515b60088502600290810a60001904198216908602178655506123cf565b600085815260208120601f198616915b8281101561246d5788860151825594840194600190910190840161244e565b508582101561248d57878501516008601f88160260020a60001904191681555b5050505050600202600101905550565b818103818111156124b0576124b0612332565b92915050565b6020808252601a908201527f7a65726f2061646472657373206e6f74207065726d6974746564000000000000604082015260600190565b6020808252601790820152604960020a7630b1b1b2b9b9903232b734b2b2103337b91037bbb732b902604082015260600190565b6020808252601b908201527f756e617574686f72697a65642c206e6f7420746865206f776e65720000000000604082015260600190565b600160a060020a0392831681529116602082015260400190565b808201808211156124b0576124b0612332565b6020808252601090820152608160020a6f3930ba32903634b6b4ba1032b93937b90260408201526060019056fe91ca00fdf29069527d658f8dfc6d1c0bf9861780bb45ff36436f938d3595a8d68be0079c531659141344cd1fd0a4f28419497f9722a3daafe3b4186f6b6457e0a26469706673582212205e0b9261ef507c69ea4c9b4d5b1e830471dcdff4ff41b516e2851199b6a55e2464736f6c63430008120033",
  "immutableReferences": {},
  "source": "// SPDX-License-Identifier: CC-BY-4.0\r\npragma solidity >=0.4.22 <0.9.0;\r\n\r\nimport \"../common/Version.sol\";\r\nimport \"../common/Frozen.sol\";\r\n\r\n\r\ncontract RideshareTrade is Version, Frozen {\r\n    uint256 public s = 1;\r\n    uint256 public c;\r\n    uint256 public t=1;\r\n    mapping (address => uint) balances;\r\n\r\n    address payable agent;  // agent owns smart contract\r\n    address payable tnc;    // transportation network company\r\n    address payable network; // distribution network\r\n\r\n    uint penality; // penality for cancelling\r\n\r\n    struct offer {\r\n        address payable buyer;\r\n        uint starting;\r\n        uint duration;\r\n        bool confirmed;\r\n    }\r\n\r\n    // hash of energy offer (processed by energy agent) mapped to offer\r\n    mapping (bytes32 => offer) public offers;\r\n\r\n    struct DriverData {\r\n        address payable driver;\r\n        bytes   id;\r\n        string  name;\r\n        string  contact;\r\n        uint    status; // 0=unverified,1=verified,2=approved,3=active,4=inactive,5=suspended\r\n    }\r\n\r\n    struct TripData {\r\n        address payable driver;\r\n        bytes32 tripno;\r\n        uint256 tripdate;\r\n        string  pickup;\r\n        string  dropoff;\r\n        uint256 miles;\r\n        uint256 booking_time;\r\n        uint256 begin_time;\r\n        uint256 finish_time;\r\n    }\r\n\r\n    address[] public d1;\r\n    mapping(address => DriverData) public drivers;\r\n\r\n    mapping (bytes32 => TripData) t1;\r\n    TripData[] public trips;\r\n\r\n    event Bought(bytes32 trans, address payable buyer);\r\n    event Confirmed(bytes32 trans, address payable buyer);\r\n    event Cancelled(bytes32 trans, address payable buyer);\r\n    event TripAdded(bytes32 trans, uint index);\r\n\r\n   constructor() {\r\n        agent = payable(msg.sender);\r\n        penality = 100;\r\n    }\r\n\r\n    modifier valid(uint _starting, uint _timestamp) {\r\n        require(_starting > _timestamp, \"\");\r\n        _;\r\n    }\r\n\r\n    modifier identity() {\r\n        require(msg.sender == network, \"\");\r\n        _;\r\n    }\r\n\r\n    function fundaddr(address addr) public{\r\n        balances[addr] = 2000;\r\n    }\r\n\r\n    function sendCoin(address receiver, uint amount, address sender)\r\n        public\r\n        returns(bool sufficient)\r\n    {\r\n        if (balances[sender] < amount) {\r\n            return false;\r\n        }\r\n\r\n        balances[sender] -= amount;\r\n        balances[receiver] += amount;\r\n\r\n        return true;\r\n    }\r\n\r\n    function getBalance(address addr)\r\n        public\r\n        view\r\n        returns(uint)\r\n    {\r\n        return balances[addr];\r\n    }\r\n\r\n    function addDriver(bytes memory id,string memory name,string memory contact)\r\n        public\r\n        returns (uint256)\r\n    {\r\n        require(msg.sender != address(0),\"zero address not permitted\");\r\n        DriverData memory _driver = DriverData(payable(msg.sender),id,name,contact,0);\r\n        drivers[msg.sender] = _driver;\r\n        d1.push(msg.sender);\r\n        return (d1.length - 1);\r\n    }\r\n\r\n    /**\r\n     * no = trasn used in the buy function\r\n     * The rider/customer buys a trip via the buy routine, and after the transaction is confirmed and paid,\r\n     * then a new trip is added. The offchain process will poll the unassigned trips and assign a matching driver\r\n     */\r\n    function addTrip(bytes32 no,\r\n                     uint256 tripdate,\r\n                     string memory pickup,\r\n                     string memory dropoff,\r\n                     uint miles,\r\n                     uint book,\r\n                     uint256 begintime,\r\n                     uint256 endtime)\r\n        public\r\n        returns (uint)\r\n    {\r\n        // TODO: better authentication so the msg.sender cannot be spoofed?\r\n        require(offers[no].buyer == msg.sender,\"Buyer does not match\");\r\n        // initially set driver as zero address for matching to assign the driver?\r\n        TripData memory _trip = TripData(payable(address(0)),no,tripdate,pickup,dropoff,miles,book,begintime,endtime);\r\n        trips.push(_trip);\r\n        t1[no] = _trip;\r\n        emit TripAdded(no,trips.length - 1);\r\n        return (trips.length - 1);\r\n    }\r\n\r\n    function getDriver()\r\n        public\r\n        view\r\n        returns (address,bytes memory,string memory,string memory)\r\n    {\r\n        require(msg.sender != address(0),\"zero address not permitted\");\r\n        return (msg.sender,drivers[msg.sender].id,drivers[msg.sender].name,drivers[msg.sender].contact);\r\n    }\r\n\r\n    function getDriverStatus()\r\n        public\r\n        view\r\n        returns (uint)\r\n    {\r\n        return drivers[msg.sender].status;\r\n    }\r\n\r\n    function getDriverStatusByAdmin(address driver)\r\n        public\r\n        view\r\n        okOwner\r\n        returns (uint)\r\n    {\r\n        return drivers[driver].status;\r\n    }\r\n\r\n    function changeDriverStatus(address driver,uint _status)\r\n        public\r\n        okOwner\r\n    {\r\n        drivers[driver].status = _status;\r\n    }\r\n\r\n    function getTrip(uint i)\r\n        public\r\n        view\r\n        returns (address,bytes32,uint256)\r\n    {\r\n        return (trips[i].driver,\r\n                trips[i].tripno,\r\n                trips[i].tripdate);\r\n    }\r\n\r\n    function getTripPickupLocation(uint i)\r\n        public\r\n        view\r\n        returns (string memory)\r\n    {\r\n        return trips[i].pickup;\r\n    }\r\n\r\n    function getTripDropoffLocation(uint i)\r\n        public\r\n        view\r\n        returns (string memory)\r\n    {\r\n        return trips[i].dropoff;\r\n    }\r\n\r\n    function getTripMiles(uint i)\r\n        public\r\n        view\r\n        returns (uint256)\r\n    {\r\n        return trips[i].miles;\r\n    }\r\n\r\n    function getTripTravelInfo(uint i)\r\n        public\r\n        view\r\n        returns (string memory,string memory, uint256)\r\n    {\r\n        return (trips[i].pickup,trips[i].dropoff,trips[i].miles);\r\n    }\r\n\r\n    function getTripTravelTimes(uint i)\r\n        public\r\n        view\r\n        returns (uint256,uint256,uint256)\r\n    {\r\n        return (trips[i].booking_time,trips[i].begin_time,trips[i].finish_time);\r\n    }\r\n\r\n    function addNetwork(address payable _network)\r\n        public\r\n        payable\r\n    {\r\n        network = _network;\r\n    }\r\n\r\n    function assignTrip(uint tripid,address payable driver)\r\n        public\r\n        okOwner\r\n    {\r\n        require(trips[tripid].driver == address(0),\"trip is already assigned to a driver\");\r\n        trips[tripid].driver = payable(driver);\r\n    }\r\n\r\n    function buy(bytes32 _trans, uint _starting, uint _duration, uint _timestamp)\r\n        public\r\n        valid(_starting,_timestamp)\r\n        payable\r\n    {\r\n        offer memory anOffer;\r\n\r\n        // offer must be available (ie hasn't been bought yet)\r\n        if (offers[_trans].buyer == address(0x0)) {\r\n            anOffer.buyer = payable(msg.sender);\r\n            anOffer.starting = _starting;\r\n            anOffer.duration = _duration;\r\n\r\n            offers[_trans] = anOffer;\r\n            emit Bought(_trans, payable(msg.sender));\r\n        }\r\n    }\r\n\r\n    function cancel(bytes32 _trans, uint _timestamp)\r\n        public\r\n        payable\r\n    {\r\n        if (offers[_trans].buyer == msg.sender) {\r\n            // buyer can cancel is starting time for rideshare transfer hasn't yet started\r\n            // must pay penality\r\n            if (offers[_trans].starting > _timestamp) {\r\n                offers[_trans].buyer = payable(address(0x0));\r\n                // person must pay penality\r\n                if (t1[_trans].driver != address(0)) {\r\n                    // if trip has beend assigned to a driver, driver gets half the penalty\r\n                    payable(msg.sender).transfer(penality / 2);\r\n                    t1[_trans].driver.transfer(penality / 2);\r\n                    payable(msg.sender).transfer(penality / 2);\r\n                    agent.transfer(penality / 2);\r\n                } else {\r\n                    // if the trip is not assigned to a driver, the agent gets all of the penalty\r\n                    payable(msg.sender).transfer(penality);\r\n                    agent.transfer(penality);\r\n                }\r\n                emit Cancelled(_trans,payable(msg.sender));\r\n            }\r\n        }\r\n    }\r\n\r\n    // network confrims rideshare transfer is possible, if not offer is invalid\r\n    function confirm(bytes32 _trans, uint _timestamp)\r\n        public\r\n        identity\r\n        payable\r\n    {\r\n        if (offers[_trans].starting > _timestamp) {\r\n            offers[_trans].confirmed = true;\r\n            emit Confirmed(_trans, offers[_trans].buyer);\r\n        }\r\n    }\r\n\r\n    // buyer pays once offer has been confirmed\r\n    function pay(bytes32 _trans)\r\n        public\r\n        payable\r\n    {\r\n        if (offers[_trans].buyer == msg.sender && offers[_trans].confirmed == true) {\r\n            // payment\r\n            payable(msg.sender).transfer(msg.value);\r\n            agent.transfer(msg.value);\r\n        }\r\n    }\r\n}",
  "sourcePath": "/Volumes/My Book/projects/pingleware-contracts/contracts/transportation/RideshareTrade.sol",
  "compiler": {
    "name": "solc",
    "version": "0.8.18+commit.87f61d96.Emscripten.clang"
  },
  "schemaVersion": "3.4.12",
  "updatedAt": "2023-10-22T04:05:44.195Z",
  "devdoc": {
    "kind": "dev",
    "methods": {
      "renounceOwnership()": {
        "details": "Leaves the contract without owner. It will not be possible to call `onlyOwner` functions anymore. Can only be called by the current owner. NOTE: Renouncing ownership will leave the contract without an owner, thereby removing any functionality that is only available to the owner."
      },
      "transferOwnership(address)": {
        "details": "Transfers ownership of the contract to a new account (`newOwner`). Can only be called by the current owner."
      }
    },
    "version": 1
  },
  "userdoc": {
    "kind": "user",
    "methods": {
      "addTrip(bytes32,uint256,string,string,uint256,uint256,uint256,uint256)": {
        "notice": "no = trasn used in the buy function The rider/customer buys a trip via the buy routine, and after the transaction is confirmed and paid, then a new trip is added. The offchain process will poll the unassigned trips and assign a matching driver"
      }
    },
    "version": 1
  }
}