{
  "contractName": "RINS",
  "abi": [
    {
      "inputs": [],
      "stateMutability": "nonpayable",
      "type": "constructor"
    },
    {
      "anonymous": false,
      "inputs": [
        {
          "indexed": true,
          "internalType": "address",
          "name": "tokenOwner",
          "type": "address"
        },
        {
          "indexed": true,
          "internalType": "address",
          "name": "spender",
          "type": "address"
        },
        {
          "indexed": false,
          "internalType": "uint256",
          "name": "tokens",
          "type": "uint256"
        }
      ],
      "name": "Approval",
      "type": "event"
    },
    {
      "anonymous": false,
      "inputs": [
        {
          "indexed": false,
          "internalType": "address",
          "name": "sender",
          "type": "address"
        },
        {
          "indexed": false,
          "internalType": "address",
          "name": "recipient",
          "type": "address"
        }
      ],
      "name": "Destroyed",
      "type": "event"
    },
    {
      "anonymous": false,
      "inputs": [
        {
          "indexed": false,
          "internalType": "address",
          "name": "sender",
          "type": "address"
        },
        {
          "indexed": false,
          "internalType": "uint256",
          "name": "amount",
          "type": "uint256"
        }
      ],
      "name": "FallbackEvent",
      "type": "event"
    },
    {
      "anonymous": false,
      "inputs": [
        {
          "indexed": true,
          "internalType": "address",
          "name": "previousOwner",
          "type": "address"
        },
        {
          "indexed": true,
          "internalType": "address",
          "name": "newOwner",
          "type": "address"
        }
      ],
      "name": "OwnershipTransferred",
      "type": "event"
    },
    {
      "anonymous": false,
      "inputs": [
        {
          "indexed": false,
          "internalType": "address",
          "name": "sender",
          "type": "address"
        },
        {
          "indexed": false,
          "internalType": "uint256",
          "name": "amount",
          "type": "uint256"
        }
      ],
      "name": "ReceiveEvent",
      "type": "event"
    },
    {
      "anonymous": false,
      "inputs": [
        {
          "indexed": false,
          "internalType": "address",
          "name": "sender",
          "type": "address"
        },
        {
          "indexed": false,
          "internalType": "bytes",
          "name": "reason",
          "type": "bytes"
        }
      ],
      "name": "Started",
      "type": "event"
    },
    {
      "anonymous": false,
      "inputs": [
        {
          "indexed": false,
          "internalType": "address",
          "name": "sender",
          "type": "address"
        },
        {
          "indexed": false,
          "internalType": "bytes",
          "name": "reason",
          "type": "bytes"
        }
      ],
      "name": "Stopped",
      "type": "event"
    },
    {
      "anonymous": false,
      "inputs": [
        {
          "indexed": false,
          "internalType": "address",
          "name": "sender",
          "type": "address"
        },
        {
          "indexed": false,
          "internalType": "string",
          "name": "reason",
          "type": "string"
        }
      ],
      "name": "Termination",
      "type": "event"
    },
    {
      "anonymous": false,
      "inputs": [
        {
          "indexed": true,
          "internalType": "address",
          "name": "from",
          "type": "address"
        },
        {
          "indexed": true,
          "internalType": "address",
          "name": "to",
          "type": "address"
        },
        {
          "indexed": false,
          "internalType": "uint256",
          "name": "tokens",
          "type": "uint256"
        }
      ],
      "name": "Transfer",
      "type": "event"
    },
    {
      "stateMutability": "payable",
      "type": "fallback"
    },
    {
      "inputs": [],
      "name": "DESCRIPTION",
      "outputs": [
        {
          "internalType": "string",
          "name": "",
          "type": "string"
        }
      ],
      "stateMutability": "view",
      "type": "function"
    },
    {
      "inputs": [],
      "name": "VERSION",
      "outputs": [
        {
          "internalType": "string",
          "name": "",
          "type": "string"
        }
      ],
      "stateMutability": "view",
      "type": "function"
    },
    {
      "inputs": [],
      "name": "WAIT",
      "outputs": [
        {
          "internalType": "uint256",
          "name": "",
          "type": "uint256"
        }
      ],
      "stateMutability": "view",
      "type": "function"
    },
    {
      "inputs": [],
      "name": "_totalSupply",
      "outputs": [
        {
          "internalType": "uint256",
          "name": "",
          "type": "uint256"
        }
      ],
      "stateMutability": "view",
      "type": "function"
    },
    {
      "inputs": [],
      "name": "decimals",
      "outputs": [
        {
          "internalType": "uint8",
          "name": "",
          "type": "uint8"
        }
      ],
      "stateMutability": "view",
      "type": "function"
    },
    {
      "inputs": [],
      "name": "destroy",
      "outputs": [],
      "stateMutability": "nonpayable",
      "type": "function"
    },
    {
      "inputs": [
        {
          "internalType": "address",
          "name": "_recipient",
          "type": "address"
        }
      ],
      "name": "destroyAndSend",
      "outputs": [],
      "stateMutability": "nonpayable",
      "type": "function"
    },
    {
      "inputs": [],
      "name": "getOwner",
      "outputs": [
        {
          "internalType": "address",
          "name": "",
          "type": "address"
        }
      ],
      "stateMutability": "payable",
      "type": "function"
    },
    {
      "inputs": [],
      "name": "name",
      "outputs": [
        {
          "internalType": "string",
          "name": "",
          "type": "string"
        }
      ],
      "stateMutability": "view",
      "type": "function"
    },
    {
      "inputs": [],
      "name": "owner",
      "outputs": [
        {
          "internalType": "address",
          "name": "",
          "type": "address"
        }
      ],
      "stateMutability": "view",
      "type": "function"
    },
    {
      "inputs": [],
      "name": "renounceOwnership",
      "outputs": [],
      "stateMutability": "payable",
      "type": "function"
    },
    {
      "inputs": [],
      "name": "symbol",
      "outputs": [
        {
          "internalType": "string",
          "name": "",
          "type": "string"
        }
      ],
      "stateMutability": "view",
      "type": "function"
    },
    {
      "inputs": [
        {
          "internalType": "address",
          "name": "newOwner",
          "type": "address"
        }
      ],
      "name": "transferOwnership",
      "outputs": [],
      "stateMutability": "payable",
      "type": "function"
    },
    {
      "stateMutability": "payable",
      "type": "receive"
    },
    {
      "inputs": [
        {
          "internalType": "address",
          "name": "_producer",
          "type": "address"
        }
      ],
      "name": "addProducer",
      "outputs": [],
      "stateMutability": "nonpayable",
      "type": "function"
    },
    {
      "inputs": [
        {
          "internalType": "address",
          "name": "_participator",
          "type": "address"
        }
      ],
      "name": "addParticipator",
      "outputs": [],
      "stateMutability": "nonpayable",
      "type": "function"
    },
    {
      "inputs": [
        {
          "internalType": "address",
          "name": "_officer",
          "type": "address"
        }
      ],
      "name": "addComplianceOfficer",
      "outputs": [],
      "stateMutability": "nonpayable",
      "type": "function"
    },
    {
      "inputs": [
        {
          "internalType": "address",
          "name": "tokenOwner",
          "type": "address"
        },
        {
          "internalType": "address",
          "name": "spender",
          "type": "address"
        }
      ],
      "name": "allowance",
      "outputs": [
        {
          "internalType": "uint256",
          "name": "remaining",
          "type": "uint256"
        }
      ],
      "stateMutability": "view",
      "type": "function"
    },
    {
      "inputs": [
        {
          "internalType": "address",
          "name": "spender",
          "type": "address"
        },
        {
          "internalType": "uint256",
          "name": "tokens",
          "type": "uint256"
        }
      ],
      "name": "approve",
      "outputs": [
        {
          "internalType": "bool",
          "name": "success",
          "type": "bool"
        }
      ],
      "stateMutability": "nonpayable",
      "type": "function"
    },
    {
      "inputs": [
        {
          "internalType": "address",
          "name": "to",
          "type": "address"
        },
        {
          "internalType": "uint256",
          "name": "tokens",
          "type": "uint256"
        }
      ],
      "name": "transfer",
      "outputs": [
        {
          "internalType": "bool",
          "name": "success",
          "type": "bool"
        }
      ],
      "stateMutability": "nonpayable",
      "type": "function"
    },
    {
      "inputs": [
        {
          "internalType": "address",
          "name": "from",
          "type": "address"
        },
        {
          "internalType": "address",
          "name": "to",
          "type": "address"
        },
        {
          "internalType": "uint256",
          "name": "tokens",
          "type": "uint256"
        }
      ],
      "name": "transferFrom",
      "outputs": [
        {
          "internalType": "bool",
          "name": "success",
          "type": "bool"
        }
      ],
      "stateMutability": "nonpayable",
      "type": "function"
    },
    {
      "inputs": [],
      "name": "totalSupply",
      "outputs": [
        {
          "internalType": "uint256",
          "name": "",
          "type": "uint256"
        }
      ],
      "stateMutability": "view",
      "type": "function"
    },
    {
      "inputs": [
        {
          "internalType": "address",
          "name": "tokenOwner",
          "type": "address"
        }
      ],
      "name": "balanceOf",
      "outputs": [
        {
          "internalType": "uint256",
          "name": "balance",
          "type": "uint256"
        }
      ],
      "stateMutability": "view",
      "type": "function"
    },
    {
      "inputs": [
        {
          "internalType": "uint256",
          "name": "_amount",
          "type": "uint256"
        }
      ],
      "name": "mint",
      "outputs": [
        {
          "internalType": "bool",
          "name": "",
          "type": "bool"
        }
      ],
      "stateMutability": "payable",
      "type": "function"
    },
    {
      "inputs": [
        {
          "internalType": "uint256",
          "name": "_amount",
          "type": "uint256"
        }
      ],
      "name": "burn",
      "outputs": [
        {
          "internalType": "bool",
          "name": "",
          "type": "bool"
        }
      ],
      "stateMutability": "nonpayable",
      "type": "function"
    }
  ],
  "bytecode": "0x608060405260006001556003805460ff1916905534801561001f57600080fd5b5060008054600160a060020a031916339081178255426001556040519091907f8be0079c531659141344cd1fd0a4f28419497f9722a3daafe3b4186f6b6457e0908290a360006007556115c8806100776000396000f3fe6080604052600436106101225760e060020a600035046306fdde0381146101e9578063095ea7b31461021457806318160ddd1461024457806323b872dd14610263578063313ce567146102835780633eaaf86b146102af57806342966c68146102c557806354ab6b96146102e557806370a0823114610307578063715018a61461033d57806383197ef014610345578063893d20e81461035a5780638da5cb5b1461037a57806395d89b411461039f578063a0712d68146103b4578063a9059cbb146103c7578063b8fb3a51146103e7578063ccf2258b146103fc578063dd62ed3e1461041c578063ddf8016614610462578063f1ae885614610482578063f2fde38b146104a5578063f5074f41146104b8578063ffa1ad74146104d857610162565b36610162577fcc85d09d309785db93d6df19917f2e6cc07fe27cd01c08c8279145deb5cf452633346040516101589291906111f6565b60405180910390a1005b3233146101b85760405160e560020a62461bcd0281526020600482015260196024820152603860020a787068697368696e672061747461636b2064657465637465643f0260448201526064015b60405180910390fd5b7f26875833861a2b006512a11f1b86edf95df96131040f3caeed72989ee985808333346040516101589291906111f6565b3480156101f557600080fd5b506101fe610511565b60405161020b919061120f565b60405180910390f35b34801561022057600080fd5b5061023461022f366004611274565b61059f565b604051901515815260200161020b565b34801561025057600080fd5b506007545b60405190815260200161020b565b34801561026f57600080fd5b5061023461027e36600461129e565b610637565b34801561028f57600080fd5b5060065461029d9060ff1681565b60405160ff909116815260200161020b565b3480156102bb57600080fd5b5061025560075481565b3480156102d157600080fd5b506102346102e03660046112da565b610910565b3480156102f157600080fd5b506103056103003660046112f3565b610a39565b005b34801561031357600080fd5b506102556103223660046112f3565b600160a060020a031660009081526009602052604090205490565b610305610ade565b34801561035157600080fd5b50610305610b43565b610362610ba0565b604051600160a060020a03909116815260200161020b565b34801561038657600080fd5b50600354610362906101009004600160a060020a031681565b3480156103ab57600080fd5b506101fe610c16565b6102346103c23660046112da565b610c23565b3480156103d357600080fd5b506102346103e2366004611274565b610d25565b3480156103f357600080fd5b50610255601e81565b34801561040857600080fd5b506103056104173660046112f3565b610e9f565b34801561042857600080fd5b5061025561043736600461130e565b600160a060020a039182166000908152600a6020908152604080832093909416825291909152205490565b34801561046e57600080fd5b5061030561047d3660046112f3565b610f44565b34801561048e57600080fd5b506101fe6040518060200160405280600081525081565b6103056104b33660046112f3565b610ff8565b3480156104c457600080fd5b506103056104d33660046112f3565b6110d9565b3480156104e457600080fd5b506101fe6040518060400160405280600a815260200160b060020a69312e362e342d626574610281525081565b6004805461051e90611341565b80601f016020809104026020016040519081016040528092919081815260200182805461054a90611341565b80156105975780601f1061056c57610100808354040283529160200191610597565b820191906000526020600020905b81548152906001019060200180831161057a57829003601f168201915b505050505081565b336000908152600e602052604081205460ff166105d15760405160e560020a62461bcd0281526004016101af9061137f565b336000818152600a60209081526040808320600160a060020a03881680855290835292819020869055518581529192917f8c5be1e5ebec7d5bd14f71427d1e84f3dd0314c0f7b2291e5b200ac8c7c3b92591015b60405180910390a35060015b92915050565b336000908152600e602052604081205460ff166106695760405160e560020a62461bcd0281526004016101af9061137f565b600160a060020a0383166106925760405160e560020a62461bcd0281526004016101af906113ae565b600160a060020a0384166106bb5760405160e560020a62461bcd0281526004016101af906113ae565b600160a060020a0383166000908152600c602052604090205460ff166106f65760405160e560020a62461bcd0281526004016101af906113d7565b6000821161073c5760405160e560020a62461bcd02815260206004820152600d6024820152609860020a6c496e76616c69642076616c75650260448201526064016101af565b600160a060020a0384166000908152600960205260409020548211156107a15760405160e560020a62461bcd0281526020600482015260146024820152606060020a73496e73756666696369656e742062616c616e63650260448201526064016101af565b600160a060020a0384166000908152600a602090815260408083203384529091529020548211156108135760405160e560020a62461bcd0281526020600482015260166024820152605060020a75496e73756666696369656e7420616c6c6f77616e63650260448201526064016101af565b600160a060020a038084166000908152600b6020908152604080832042905592871682526009905220546108479083611130565b600160a060020a038516600090815260096020908152604080832093909355600a81528282203383529052205461087e9083611130565b600160a060020a038086166000908152600a602090815260408083203384528252808320949094559186168152600990915220546108bc908361119e565b600160a060020a038085166000818152600960205260409081902093909355915190861690600080516020611573833981519152906108fe9086815260200190565b60405180910390a35060019392505050565b336000908152600f602052604081205460ff166109705760405160e560020a62461bcd0281526020600482015260186024820152604160020a773737ba10309031b7b6b83634b0b731b29037b33334b1b2b90260448201526064016101af565b336000908152600960205260409020548211156109cc5760405160e560020a62461bcd0281526020600482015260146024820152606060020a73496e73756666696369656e742042616c616e63650260448201526064016101af565b6109d860075483611130565b600755336000908152600960205260409020546109f59083611130565b3360008181526009602052604080822093909355915160008051602061157383398151915290610a289086815260200190565b60405180910390a35060015b919050565b600054600160a060020a03163314610a665760405160e560020a62461bcd0281526004016101af90611427565b600160a060020a0381166000908152600c602052604090205460ff1615610aa25760405160e560020a62461bcd0281526004016101af9061145e565b600160a060020a03166000908152600c602090815260408083208054600160ff199182168117909255600e909352922080549091169091179055565b600054600160a060020a03163314610b0b5760405160e560020a62461bcd0281526004016101af90611492565b60008054604051600160a060020a0390911690600080516020611553833981519152908390a360008054600160a060020a0319169055565b600054600160a060020a03163314610b705760405160e560020a62461bcd0281526004016101af90611427565b60008051602061153383398151915233610b88610ba0565b604051610b969291906114c6565b60405180910390a1565b6000601e600154610bb191906114e0565b4211610bd25760405160e560020a62461bcd0281526004016101af90611505565b601e600154610be191906114e0565b4211610c025760405160e560020a62461bcd0281526004016101af90611505565b5042600155600054600160a060020a031690565b6005805461051e90611341565b336000908152600d602052604081205460ff16610c795760405160e560020a62461bcd02815260206004820152600e6024820152609160020a6d3737ba103090383937b23ab1b2b90260448201526064016101af565b336000818152600860209081526040808320815160608101835242815234818501908152818401898152835460018181018655948852868820935160039091029093019283559051928201929092559051600290910155928252600990522054610ce3908361119e565b33600090815260096020526040902055600754610d00908361119e565b6007556040518281523090339060008051602061157383398151915290602001610a28565b336000908152600e602052604081205460ff16610d575760405160e560020a62461bcd0281526004016101af9061137f565b600160a060020a038316610d805760405160e560020a62461bcd0281526004016101af906113ae565b600160a060020a0383166000908152600c602052604090205460ff16610dbb5760405160e560020a62461bcd0281526004016101af906113d7565b60008211610e015760405160e560020a62461bcd02815260206004820152600d6024820152609860020a6c496e76616c69642056616c75650260448201526064016101af565b600160a060020a0383166000908152600b602090815260408083204290553383526009909152902054610e349083611130565b3360009081526009602052604080822092909255600160a060020a03851681522054610e60908361119e565b600160a060020a038416600081815260096020526040908190209290925590513390600080516020611573833981519152906106259086815260200190565b600054600160a060020a03163314610ecc5760405160e560020a62461bcd0281526004016101af90611427565b600160a060020a0381166000908152600c602052604090205460ff1615610f085760405160e560020a62461bcd0281526004016101af9061145e565b600160a060020a03166000908152600c602090815260408083208054600160ff199182168117909255600f909352922080549091169091179055565b600054600160a060020a03163314610f715760405160e560020a62461bcd0281526004016101af90611427565b600160a060020a0381166000908152600c602052604090205460ff1615610fad5760405160e560020a62461bcd0281526004016101af9061145e565b600160a060020a03166000908152600c602090815260408083208054600160ff199182168117909255600d84528285208054821683179055600f909352922080549091169091179055565b600054600160a060020a031633146110255760405160e560020a62461bcd0281526004016101af90611492565b600160a060020a0381166110905760405160e560020a62461bcd02815260206004820152602660248201527f4f776e61626c653a206e6577206f776e657220697320746865207a65726f2061604482015260d060020a656464726573730260648201526084016101af565b60008054604051600160a060020a038085169392169160008051602061155383398151915291a360008054600160a060020a031916600160a060020a0392909216919091179055565b600054600160a060020a031633146111065760405160e560020a62461bcd0281526004016101af90611427565b60008051602061153383398151915233826040516111259291906114c6565b60405180910390a150565b6000828211156111855760405160e560020a62461bcd02815260206004820152601e60248201527f536166654d6174683a207375627472616374696f6e206f766572666c6f77000060448201526064016101af565b81830382198401811461119757600080fd5b9392505050565b6000828201838110156111975760405160e560020a62461bcd02815260206004820152601b60248201527f536166654d6174683a206164646974696f6e206f766572666c6f77000000000060448201526064016101af565b600160a060020a03929092168252602082015260400190565b600060208083528351808285015260005b8181101561123c57858101830151858201604001528201611220565b506000604082860101526040601f19601f8301168501019250505092915050565b8035600160a060020a0381168114610a3457600080fd5b6000806040838503121561128757600080fd5b6112908361125d565b946020939093013593505050565b6000806000606084860312156112b357600080fd5b6112bc8461125d565b92506112ca6020850161125d565b9150604084013590509250925092565b6000602082840312156112ec57600080fd5b5035919050565b60006020828403121561130557600080fd5b6111978261125d565b6000806040838503121561132157600080fd5b61132a8361125d565b91506113386020840161125d565b90509250929050565b60028104600182168061135557607f821691505b6020821081036113795760e060020a634e487b710260009081526022600452602490fd5b50919050565b6020808252601290820152607160020a713737ba1030903830b93a34b1b4b830ba37b902604082015260600190565b6020808252600c9082015260a060020a6b4e756c6c206164647265737302604082015260600190565b6020808252602d908201527f726563697069656e74206973206e6f7420617574686f72697a656420746f20726040820152609860020a6c65636569766520746f6b656e7302606082015260800190565b6020808252601b908201527f756e617574686f72697a65642c206e6f7420746865206f776e65720000000000604082015260600190565b6020808252601790820152604860020a76696e766573746f7220616c72656164792065786973747302604082015260600190565b6020808252601790820152604960020a7630b1b1b2b9b9903232b734b2b2103337b91037bbb732b902604082015260600190565b600160a060020a0392831681529116602082015260400190565b808201808211156106315760e060020a634e487b710260009081526011600452602490fd5b6020808252601090820152608160020a6f3930ba32903634b6b4ba1032b93937b90260408201526060019056fe91ca00fdf29069527d658f8dfc6d1c0bf9861780bb45ff36436f938d3595a8d68be0079c531659141344cd1fd0a4f28419497f9722a3daafe3b4186f6b6457e0ddf252ad1be2c89b69c2b068fc378daa952ba7f163c4a11628f55a4df523b3efa2646970667358221220a8712a076297540af940a67fd855d51e8f46726282f81b51e50ba6f4d7d9c8f564736f6c63430008120033",
  "immutableReferences": {},
  "source": "// SPDX-License-Identifier: CC-BY-4.0\r\npragma solidity >=0.4.22 <0.9.0;\r\n\r\nimport \"../common/Version.sol\";\r\nimport \"../common/Frozen.sol\";\r\nimport \"../common/IERC20TOKEN.sol\";\r\nimport \"../libs/SafeMath.sol\";\r\n\r\ncontract RINS is Version, Frozen, IERC20TOKEN {\r\n    string public constant DESCRIPTION = string(\"\");\r\n\r\n    string public name;\r\n    string public symbol;\r\n    uint8  public decimals;\r\n\r\n    uint256 public _totalSupply;\r\n\r\n\r\n    struct RINType {\r\n        uint256 vintage;\r\n        uint    dcode;\r\n        uint256 amount;\r\n    }\r\n\r\n    // mapped to address of producer and year\r\n    mapping(address => RINType[]) rins;\r\n    mapping(address => uint256) balances;\r\n    mapping(address => mapping(address => uint)) allowed;\r\n    mapping(address => uint256) transfer_log;\r\n    mapping(address => bool) whitelisted;\r\n    mapping(address => bool) producer;\r\n    mapping(address => bool) participator;\r\n    mapping(address => bool) compliance;\r\n\r\n    constructor() {\r\n        _totalSupply = 0;\r\n    }\r\n\r\n    modifier isProducer() {\r\n        require(producer[msg.sender],\"not a producer\");\r\n        _;\r\n    }\r\n\r\n    modifier isAuthorized() {\r\n        require(participator[msg.sender],\"not a participator\");\r\n        _;\r\n    }\r\n\r\n    modifier isComplianceOfficer() {\r\n        require(compliance[msg.sender],\"not a compliance officer\");\r\n        _;\r\n    }\r\n\r\n    function addProducer(address _producer)\r\n        public\r\n        okOwner\r\n    {\r\n        require(whitelisted[_producer] == false,\"investor already exists\");\r\n        whitelisted[_producer] = true;\r\n        producer[_producer] = true;\r\n        compliance[_producer] = true;\r\n    }\r\n\r\n    function addParticipator(address _participator)\r\n        public\r\n        okOwner\r\n    {\r\n        require(whitelisted[_participator] == false,\"investor already exists\");\r\n        whitelisted[_participator] = true;\r\n        participator[_participator] = true;\r\n    }\r\n\r\n    function addComplianceOfficer(address _officer)\r\n        public\r\n        okOwner\r\n    {\r\n        require(whitelisted[_officer] == false,\"investor already exists\");\r\n        whitelisted[_officer] = true;\r\n        compliance[_officer] = true;\r\n    }\r\n\r\n    /**\r\n     * @dev allowance : Check approved balance\r\n     */\r\n    function allowance(address tokenOwner, address spender)\r\n        public\r\n        virtual\r\n        override\r\n        view\r\n        returns (uint remaining)\r\n    {\r\n        return allowed[tokenOwner][spender];\r\n    }\r\n\r\n    /**\r\n     * @dev approve : Approve token for spender\r\n     */\r\n    function approve(address spender, uint tokens)\r\n        public\r\n        virtual\r\n        override\r\n        isAuthorized\r\n        returns (bool success)\r\n    {\r\n        require(tokens >= 0, \"Invalid value\");\r\n        allowed[msg.sender][spender] = tokens;\r\n        emit Approval(msg.sender, spender, tokens);\r\n        return true;\r\n    }\r\n\r\n    /**\r\n     * @dev transfer : Transfer token to another etherum address\r\n     */\r\n    function transfer(address to, uint tokens)\r\n        public\r\n        virtual\r\n        override\r\n        isAuthorized\r\n        returns (bool success)\r\n    {\r\n        require(to != address(0), \"Null address\");\r\n        require(whitelisted[to],\"recipient is not authorized to receive tokens\");\r\n        require(tokens > 0, \"Invalid Value\");\r\n        transfer_log[to] = block.timestamp;\r\n        balances[msg.sender] = SafeMath.safeSub(balances[msg.sender], tokens);\r\n        balances[to] = SafeMath.safeAdd(balances[to], tokens);\r\n        emit Transfer(msg.sender, to, tokens);\r\n        return true;\r\n    }\r\n\r\n    /**\r\n     * @dev transferFrom : Transfer token after approval\r\n     */\r\n    function transferFrom(address from, address to, uint tokens)\r\n        public\r\n        virtual\r\n        override\r\n        isAuthorized\r\n        returns (bool success)\r\n    {\r\n        require(to != address(0), \"Null address\");\r\n        require(from != address(0), \"Null address\");\r\n        require(whitelisted[to],\"recipient is not authorized to receive tokens\");\r\n        require(tokens > 0, \"Invalid value\");\r\n        require(tokens <= balances[from], \"Insufficient balance\");\r\n        require(tokens <= allowed[from][msg.sender], \"Insufficient allowance\");\r\n        transfer_log[to] = block.timestamp;\r\n        balances[from] = SafeMath.safeSub(balances[from], tokens);\r\n        allowed[from][msg.sender] = SafeMath.safeSub(allowed[from][msg.sender], tokens);\r\n        balances[to] = SafeMath.safeAdd(balances[to], tokens);\r\n        emit Transfer(from, to, tokens);\r\n        return true;\r\n    }\r\n\r\n    /**\r\n     * @dev totalSupply : Display total supply of token\r\n     */\r\n    function totalSupply()\r\n        public\r\n        virtual\r\n        override\r\n        view\r\n        returns (uint)\r\n    {\r\n        return _totalSupply;\r\n    }\r\n\r\n    /**\r\n     * @dev balanceOf : Displya token balance of given address\r\n     */\r\n    function balanceOf(address tokenOwner)\r\n        public\r\n        virtual\r\n        override\r\n        view\r\n        returns (uint balance)\r\n    {\r\n        return balances[tokenOwner];\r\n    }\r\n\r\n\r\n    function mint(uint256 _amount)\r\n        public\r\n        payable\r\n        isProducer\r\n        returns (bool)\r\n    {\r\n        require(_amount >= 0, \"Invalid amount\");\r\n        rins[msg.sender].push(RINType(block.timestamp, msg.value ,_amount));\r\n        balances[msg.sender] = SafeMath.safeAdd(balances[msg.sender],_amount);\r\n        _totalSupply = SafeMath.safeAdd(_totalSupply, _amount);\r\n        emit Transfer(msg.sender, address(this), _amount);\r\n        return true;\r\n    }\r\n\r\n    function burn(uint256 _amount)\r\n        public\r\n        isComplianceOfficer\r\n        returns (bool)\r\n    {\r\n        require(_amount >= 0, \"Invalid amount\");\r\n        require(_amount <= balances[msg.sender], \"Insufficient Balance\");\r\n        _totalSupply = SafeMath.safeSub(_totalSupply, _amount);\r\n        balances[msg.sender] = SafeMath.safeSub(balances[msg.sender], _amount);\r\n        emit Transfer(msg.sender, address(0), _amount);\r\n        return true;\r\n    }\r\n\r\n}\r\n",
  "sourcePath": "/Volumes/My Book/projects/pingleware-contracts/contracts/energy/RINS.sol",
  "compiler": {
    "name": "solc",
    "version": "0.8.18+commit.87f61d96.Emscripten.clang"
  },
  "schemaVersion": "3.4.12",
  "updatedAt": "2023-10-22T00:35:43.045Z",
  "devdoc": {
    "kind": "dev",
    "methods": {
      "allowance(address,address)": {
        "details": "allowance : Check approved balance"
      },
      "approve(address,uint256)": {
        "details": "approve : Approve token for spender"
      },
      "balanceOf(address)": {
        "details": "balanceOf : Displya token balance of given address"
      },
      "renounceOwnership()": {
        "details": "Leaves the contract without owner. It will not be possible to call `onlyOwner` functions anymore. Can only be called by the current owner. NOTE: Renouncing ownership will leave the contract without an owner, thereby removing any functionality that is only available to the owner."
      },
      "totalSupply()": {
        "details": "totalSupply : Display total supply of token"
      },
      "transfer(address,uint256)": {
        "details": "transfer : Transfer token to another etherum address"
      },
      "transferFrom(address,address,uint256)": {
        "details": "transferFrom : Transfer token after approval"
      },
      "transferOwnership(address)": {
        "details": "Transfers ownership of the contract to a new account (`newOwner`). Can only be called by the current owner."
      }
    },
    "version": 1
  },
  "userdoc": {
    "kind": "user",
    "methods": {},
    "version": 1
  }
}