{
  "contractName": "SafeMath",
  "abi": [
    {
      "inputs": [
        {
          "internalType": "int256",
          "name": "base",
          "type": "int256"
        },
        {
          "internalType": "int256",
          "name": "exponent",
          "type": "int256"
        }
      ],
      "name": "safePow",
      "outputs": [
        {
          "internalType": "int256",
          "name": "",
          "type": "int256"
        }
      ],
      "stateMutability": "pure",
      "type": "function"
    },
    {
      "inputs": [
        {
          "internalType": "uint256",
          "name": "base",
          "type": "uint256"
        },
        {
          "internalType": "uint256",
          "name": "exponent",
          "type": "uint256"
        }
      ],
      "name": "safePow",
      "outputs": [
        {
          "internalType": "uint256",
          "name": "",
          "type": "uint256"
        }
      ],
      "stateMutability": "pure",
      "type": "function"
    }
  ],
  "bytecode": "0x6101b7610053600b82828239805160001a607314610046577f4e487b7100000000000000000000000000000000000000000000000000000000600052600060045260246000fd5b30600052607381538281f3fe73000000000000000000000000000000000000000030146080604052600436106100435760e060020a6000350463352e58288114610048578063fed7298d1461006d575b600080fd5b61005b610056366004610114565b610080565b60405190815260200160405180910390f35b61005b61007b366004610114565b6100cf565b600082600003610092575060006100c9565b816000036100a2575060016100c9565b600160005b838112156100c55790840290806100bd81610150565b9150506100a7565b5090505b92915050565b6000826000036100e1575060006100c9565b816000036100f1575060016100c9565b600160005b838110156100c557908402908061010c8161016f565b9150506100f6565b6000806040838503121561012757600080fd5b50508035926020909101359150565b60e060020a634e487b710260009081526011600452602490fd5b6000600160ff60020a01820161016857610168610136565b5060010190565b6000600182016101685761016861013656fea26469706673582212209a4f74228dc1b41251eb2d7c03835ab665a8330316643d272f1a80ca1596cc0164736f6c63430008120033",
  "immutableReferences": {},
  "source": "// SPDX-License-Identifier: BSL-1.1\r\npragma solidity >=0.4.22 <0.9.0;\r\n\r\nlibrary SafeMath {\r\n\r\n    // SafeMath for int256\r\n    function safeAdd(int256 a, int256 b) internal pure returns (int256) {\r\n        int256 c;\r\n        assembly {\r\n            c := add(a, b)\r\n            if iszero(eq(c, add(a, b))) {\r\n                revert(0, 0)\r\n            }\r\n        }\r\n        require(c >= a, \"SafeMath: addition overflow\");\r\n        return c;\r\n    }\r\n    \r\n    function safeSub(int256 a, int256 b) internal pure returns (int256) {\r\n        require(b <= a, \"SafeMath: subtraction overflow\");\r\n        int256 c;\r\n        assembly {\r\n            c := sub(a, b)\r\n            if iszero(eq(c, add(a, not(b)))) {\r\n                revert(0, 0)\r\n            }\r\n        }        \r\n        return c;\r\n    }\r\n    \r\n    function safeMul(int256 a, int256 b) internal pure returns (int256) {\r\n        if (a == 0) {\r\n            return 0;\r\n        }\r\n        int256 c;\r\n        assembly {\r\n            c := mul(a, b)\r\n            if or(iszero(b), iszero(eq(div(c, b), a))) {\r\n                revert(0, 0)\r\n            }\r\n        }\r\n        require(c / a == b, \"SafeMath: multiplication overflow\");\r\n        return c;\r\n    }\r\n    \r\n    function safeDiv(int256 a, int256 b) internal pure returns (int256) {\r\n        require(b > 0, \"SafeMath: division by zero\");\r\n        int256 c;\r\n        assembly {\r\n            if iszero(b) {\r\n                revert(0, 0)\r\n            }\r\n            c := div(a, b)\r\n        }\r\n        return c;\r\n    }\r\n\r\n    function safePow(int256 base, int256 exponent) external pure returns (int256) {\r\n        if (base == 0) {\r\n            return 0;\r\n        }\r\n        if (exponent == 0) {\r\n            return 1;\r\n        }\r\n\r\n        int256 result = 1;\r\n        for (int256 i = 0; i < exponent; i++) {\r\n            assembly {\r\n                result := mul(result,base)\r\n            }\r\n        }\r\n\r\n        return result;\r\n    }\r\n\r\n    // SafeMath for uint256 (unsigned integers)\r\n    function safeAdd(uint256 a, uint256 b) internal pure returns (uint256) {\r\n        uint256 c;\r\n        assembly {\r\n            c := add(a, b)\r\n            if iszero(eq(c, add(a, b))) {\r\n                revert(0, 0)\r\n            }\r\n        }\r\n        require(c >= a, \"SafeMath: addition overflow\");\r\n        return c;\r\n    }\r\n    \r\n    function safeSub(uint256 a, uint256 b) internal pure returns (uint256) {\r\n        require(b <= a, \"SafeMath: subtraction overflow\");\r\n        uint256 c;\r\n        assembly {\r\n            c := sub(a, b)\r\n            if iszero(eq(c, add(a, not(b)))) {\r\n                revert(0, 0)\r\n            }\r\n        }\r\n        return c;\r\n    }\r\n    \r\n    function safeMul(uint256 a, uint256 b) internal pure returns (uint256) {\r\n        uint256 c;\r\n        assembly {\r\n            c := mul(a, b)\r\n            if or(iszero(b), iszero(eq(div(c, b), a))) {\r\n                revert(0, 0)\r\n            }\r\n        }\r\n        require(c / a == b, \"SafeMath: multiplication overflow\");\r\n        return c;\r\n    }\r\n    \r\n    function safeDiv(uint256 a, uint256 b) internal pure returns (uint256) {\r\n        require(b > 0, \"SafeMath: division by zero\");\r\n        uint256 c;\r\n        assembly {\r\n            if iszero(b) {\r\n                revert(0, 0)\r\n            }\r\n            c := div(a, b)\r\n        }\r\n        return c;\r\n    }  \r\n\r\n    function safePow(uint256 base, uint256 exponent) external pure returns (uint256) {\r\n        if (base == 0) {\r\n            return 0;\r\n        }\r\n        if (exponent == 0) {\r\n            return 1;\r\n        }\r\n\r\n        uint256 result = 1;\r\n        for (uint256 i = 0; i < exponent; i++) {\r\n            assembly {\r\n                result := mul(result,base)\r\n            }\r\n        }\r\n\r\n        return result;\r\n    }\r\n}\r\n",
  "sourcePath": "/Volumes/My Book/projects/pingleware-contracts/contracts/libs/SafeMath.sol",
  "compiler": {
    "name": "solc",
    "version": "0.8.18+commit.87f61d96.Emscripten.clang"
  },
  "schemaVersion": "3.4.12",
  "updatedAt": "2023-10-22T04:00:51.614Z",
  "devdoc": {
    "kind": "dev",
    "methods": {},
    "version": 1
  },
  "userdoc": {
    "kind": "user",
    "methods": {},
    "version": 1
  }
}