{
  "contractName": "SafeMath",
  "abi": [
    {
      "inputs": [
        {
          "internalType": "int256",
          "name": "base",
          "type": "int256"
        },
        {
          "internalType": "int256",
          "name": "exponent",
          "type": "int256"
        }
      ],
      "name": "safePow",
      "outputs": [
        {
          "internalType": "int256",
          "name": "",
          "type": "int256"
        }
      ],
      "stateMutability": "pure",
      "type": "function"
    },
    {
      "inputs": [
        {
          "internalType": "uint256",
          "name": "base",
          "type": "uint256"
        },
        {
          "internalType": "uint256",
          "name": "exponent",
          "type": "uint256"
        }
      ],
      "name": "safePow",
      "outputs": [
        {
          "internalType": "uint256",
          "name": "",
          "type": "uint256"
        }
      ],
      "stateMutability": "pure",
      "type": "function"
    }
  ],
  "bytecode": "0x6080806040523461001a5761015a9081610020823930815050f35b600080fdfe6080604052600436101561001257600080fd5b60e060020a6000350463352e5828811461005e5763fed7298d1461003557600080fd5b60403660031901126100595760206100516024356004356100e2565b604051908152f35b600080fd5b604036600319011261005957602061005160043560243581156100db5780156100d4579060018092600080935b82851261009a57505050505090565b94850294929391929091600160ff60020a0381146100bd5784019392919061008b565b60e060020a634e487b710283526011600452602483fd5b5050600190565b5050600090565b9081156100db5780156100d4579060018092600080935b82851061010857505050505090565b809192939495029460001981146100bd578401939291906100f956fea264697066735822122088dbc96ffb8a37146ec8b1ab956af3d306cc61658c7ae546cf144b9e4c555aad64736f6c63430008120033",
  "immutableReferences": {},
  "source": "// SPDX-License-Identifier: BSL-1.1\r\npragma solidity >=0.4.22 <0.9.0;\r\n\r\nlibrary SafeMath {\r\n\r\n    // SafeMath for int256\r\n    function safeAdd(int256 a, int256 b) internal pure returns (int256) {\r\n        int256 c;\r\n        assembly {\r\n            c := add(a, b)\r\n            if iszero(eq(c, add(a, b))) {\r\n                revert(0, 0)\r\n            }\r\n        }\r\n        require(c >= a, \"SafeMath: addition overflow\");\r\n        return c;\r\n    }\r\n    \r\n    function safeSub(int256 a, int256 b) internal pure returns (int256) {\r\n        require(b <= a, \"SafeMath: subtraction overflow\");\r\n        int256 c;\r\n        assembly {\r\n            c := sub(a, b)\r\n            if iszero(eq(c, add(a, not(b)))) {\r\n                revert(0, 0)\r\n            }\r\n        }        \r\n        return c;\r\n    }\r\n    \r\n    function safeMul(int256 a, int256 b) internal pure returns (int256) {\r\n        if (a == 0) {\r\n            return 0;\r\n        }\r\n        int256 c;\r\n        assembly {\r\n            c := mul(a, b)\r\n            if or(iszero(b), iszero(eq(div(c, b), a))) {\r\n                revert(0, 0)\r\n            }\r\n        }\r\n        require(c / a == b, \"SafeMath: multiplication overflow\");\r\n        return c;\r\n    }\r\n    \r\n    function safeDiv(int256 a, int256 b) internal pure returns (int256) {\r\n        require(b > 0, \"SafeMath: division by zero\");\r\n        int256 c;\r\n        assembly {\r\n            if iszero(b) {\r\n                revert(0, 0)\r\n            }\r\n            c := div(a, b)\r\n        }\r\n        return c;\r\n    }\r\n\r\n    function safePow(int256 base, int256 exponent) external pure returns (int256) {\r\n        if (base == 0) {\r\n            return 0;\r\n        }\r\n        if (exponent == 0) {\r\n            return 1;\r\n        }\r\n\r\n        int256 result = 1;\r\n        for (int256 i = 0; i < exponent; i++) {\r\n            assembly {\r\n                result := mul(result,base)\r\n            }\r\n        }\r\n\r\n        return result;\r\n    }\r\n\r\n    // SafeMath for uint256 (unsigned integers)\r\n    function safeAdd(uint256 a, uint256 b) internal pure returns (uint256) {\r\n        uint256 c;\r\n        assembly {\r\n            c := add(a, b)\r\n            if iszero(eq(c, add(a, b))) {\r\n                revert(0, 0)\r\n            }\r\n        }\r\n        require(c >= a, \"SafeMath: addition overflow\");\r\n        return c;\r\n    }\r\n    \r\n    function safeSub(uint256 a, uint256 b) internal pure returns (uint256) {\r\n        require(b <= a, \"SafeMath: subtraction overflow\");\r\n        uint256 c;\r\n        assembly {\r\n            c := sub(a, b)\r\n            if iszero(eq(c, add(a, not(b)))) {\r\n                revert(0, 0)\r\n            }\r\n        }\r\n        return c;\r\n    }\r\n    \r\n    function safeMul(uint256 a, uint256 b) internal pure returns (uint256) {\r\n        uint256 c;\r\n        assembly {\r\n            c := mul(a, b)\r\n            if or(iszero(b), iszero(eq(div(c, b), a))) {\r\n                revert(0, 0)\r\n            }\r\n        }\r\n        require(c / a == b, \"SafeMath: multiplication overflow\");\r\n        return c;\r\n    }\r\n    \r\n    function safeDiv(uint256 a, uint256 b) internal pure returns (uint256) {\r\n        require(b > 0, \"SafeMath: division by zero\");\r\n        uint256 c;\r\n        assembly {\r\n            if iszero(b) {\r\n                revert(0, 0)\r\n            }\r\n            c := div(a, b)\r\n        }\r\n        return c;\r\n    }  \r\n\r\n    function safePow(uint256 base, uint256 exponent) external pure returns (uint256) {\r\n        if (base == 0) {\r\n            return 0;\r\n        }\r\n        if (exponent == 0) {\r\n            return 1;\r\n        }\r\n\r\n        uint256 result = 1;\r\n        for (uint256 i = 0; i < exponent; i++) {\r\n            assembly {\r\n                result := mul(result,base)\r\n            }\r\n        }\r\n\r\n        return result;\r\n    }\r\n}\r\n",
  "sourcePath": "/Volumes/HOME/pingleware-contracts/contracts/libs/SafeMath.sol",
  "compiler": {
    "name": "solc",
    "version": "0.8.18+commit.87f61d96.Emscripten.clang"
  },
  "schemaVersion": "3.4.12",
  "updatedAt": "2024-05-23T18:56:26.879Z",
  "devdoc": {
    "kind": "dev",
    "methods": {},
    "version": 1
  },
  "userdoc": {
    "kind": "user",
    "methods": {},
    "version": 1
  }
}