{
  "contractName": "SampleGuardian",
  "abi": [
    {
      "inputs": [],
      "name": "isPractitioner",
      "outputs": [
        {
          "internalType": "bool",
          "name": "",
          "type": "bool"
        }
      ],
      "stateMutability": "view",
      "type": "function"
    },
    {
      "inputs": [],
      "name": "notPractitioner",
      "outputs": [
        {
          "internalType": "bool",
          "name": "",
          "type": "bool"
        }
      ],
      "stateMutability": "view",
      "type": "function"
    },
    {
      "inputs": [],
      "name": "getPractitioners",
      "outputs": [
        {
          "internalType": "address[]",
          "name": "",
          "type": "address[]"
        }
      ],
      "stateMutability": "view",
      "type": "function"
    },
    {
      "inputs": [],
      "name": "getDrugItemList",
      "outputs": [
        {
          "components": [
            {
              "internalType": "string",
              "name": "control_number",
              "type": "string"
            },
            {
              "internalType": "string",
              "name": "manufacturer",
              "type": "string"
            },
            {
              "internalType": "string",
              "name": "name",
              "type": "string"
            },
            {
              "internalType": "string",
              "name": "strength",
              "type": "string"
            }
          ],
          "internalType": "struct SampleGuardian.DrugItem[]",
          "name": "",
          "type": "tuple[]"
        }
      ],
      "stateMutability": "view",
      "type": "function"
    }
  ],
  "bytecode": "0x6080806040523461001c57611a8290816100228239308160080152f35b600080fdfe604060808152307f0000000000000000000000000000000000000000000000000000000000000000146004908136101561003857600080fd5b60009160e060020a833504916306d68aae8314610e8657826307e17bec14610e8657826355b2670d14610d2657826379fa64b114610bb0578263b23cf5e2146107f6578263be1b67af146106ed578263ccb9d0bc1461017057505063d8f7e282146100a257600080fd5b8060031936011261016d578151600080516020611a0d83398151915280548083529083526020939284830192909183907fb7b0aea1fdb05c123c7bf710e50c71ec6e0015907c1c68e427ad9f5ca078b63490845b818110610150575050508161010c910382610f5f565b83519485948186019282875251809352850193925b82811061013057505050500390f35b8351600160a060020a031685528695509381019392810192600101610121565b8254600160a060020a0316845292880192600192830192016100f6565b80fd5b8484916106e95760a03660031901126106e9576001604060020a039280358481116106e5576101a29036908301610f82565b9360249485358281116106e1576101bc9036908501610f82565b916044358181116106dd576101d49036908601610f82565b946064358281116106d9576101ec9036908701610f82565b906084358381116106d5576102049036908801610f82565b9381519061021182610f0f565b81526020918282019687528082019889526060820193845260808201958652338a52600080516020611a2d8339815191528352892090519283518581116106c05761026681610260855461105e565b8561109d565b8084601f968d88841160011461065b5792610650575b5050816002029160080260020a6000190419161782555b60019687830190518b8151918883116105cb579082916102bd836102b7875461105e565b8761109d565b87918984116001146105eb57926105e0575b5050816002029160080260020a6000190419161790555b60029889830190518b8151918883116105cb5790829161030a836102b7875461105e565b879189841160011461055b5792610550575b5050600882028c0a600019041916908b021790555b518051600383019186821161053b57908291610353826102608d97965461105e565b85908d8884116001146104c8579190836104bd575b5050600882028c0a600019041916908b021790555b0193519081519384116104a857908392916103a28461039c885461105e565b8861109d565b809280851160011461043c5750508892610431575b505060088202860a6000190419169085021790555b600080516020611a0d83398151915290815492604060020a84101561041c5750820190556103f99061101d565b9091600883549202900a9081600160a060020a0302809233021691191617905580f35b60e060020a634e487b71028652604190528585fd5b0151905088806103b7565b909187955092899493601f198516888d52848d20948d905b82821061048c5750508511610471575b50505050020190556103cc565b0151908316600802840a600019041916905589808080610464565b8385015187558b998e9950909601959384019390810190610454565b60e060020a634e487b71028952604187528989fd5b015190508e80610368565b8d928c9492601f1984168784528a8420935b8b82821061051157505084116104f7575b5050500201905561037d565b01516008838b1602840a60001904191690558f80806104eb565b93838594979a9b9c5081999396929850015181550195019301928d979695928f94928e96936104da565b60e060020a634e487b71028c5260418a528c8cfd5b015190508e8061031c565b908c9450918e9392601f1984168784528a8420935b8b8282106105a7575050841161058d575b50505002019055610331565b01516008838b1602840a60001904191690558f8080610581565b92948484939598508699929799015181550195019301918f9492918e969492610570565b60e060020a634e487b7102825260418c528e82fd5b015190508e806102cf565b9093508b9291601f198316868352898320925b8a82821061063a57505094836002959610610620575b505050020190556102e6565b01516008838b1602840a60001904191690558f8080610614565b8388015185558f969094019392830192016105fe565b015190508d8061027c565b8681528781209350601f198516905b888282106106aa5750509160029391856001969410610690575b50505002018255610293565b01516008838a1602840a60001904191690558e8080610684565b600185968293968601518155019501930161066a565b60e060020a634e487b71028b52604189528b8bfd5b8880fd5b8780fd5b8680fd5b8580fd5b8380fd5b5080fd5b8484916106e95760803660031901126106e9576001604060020a039083358281116106e55761071f9036908601610f82565b916024358181116107f2576107379036908701610f82565b916044358281116106e15761074f9036908801610f82565b916064359081116106e1576107679036908801610f82565b9281519461077486610f44565b8552602085015283015260608201526000805160206119ed833981519152805490604060020a8210156107dc57600182018082558210156107c6579383946107c39452602085209102016110f1565b80f35b60e060020a634e487b7102845260328552602484fd5b60e060020a634e487b7102845260418552602484fd5b8480fd5b8484916106e95760031960a036820112610bac578335600160a060020a03811691908290036106e5576001604060020a0391602435908382116106e15760a08383360301126106e1576044358481116106dd576108569036908901610f82565b6084358581116106d95761086d9036908a01610f82565b9580519361087a85610f44565b81519061088682610f0f565b808b0135888111610b9c5760a0908201978836030112610ba85782516108ab81610f0f565b8b880135898111610ba4576108c5908d36918b0101610f82565b81526024880135898111610ba4576108e2908d36918b0101610f82565b976020988983015260448101358a8111610ba057610905908e3691840101610f82565b8583015260648101358a8111610ba057610924908e3691840101610f82565b606083015260848101358a8111610ba057610943913691018e01610f82565b608082015282526024810135888111610b9c57610965908c36918401016114b7565b87830152604481013583830152606481013560608301526084810135888111610b9c576109e89392918c61099c9236920101610f82565b608082015285528585019283528085019360643585526060860198895289527f8ac0797a248e83fbd0c3e11ef78ec5a1859f66dd75481151e578d63de1a30c5a8652882093518461154d565b518051600c840191868211610b8657610a0582610260855461105e565b8590601f8311600114610b1b57600e95949392918a9183610b10575b5050816002029160080260020a6000190419161790555b51600d8201550192518051928311610afa57908291610a5b836102b7875461105e565b81601f8411600114610a9357508592610a88575b5050816002029160080260020a60001904191617905580f35b015190508480610a6f565b8587528087209350601f1985169087905b828210610ae25750509160029391856001969410610ac7575b5050500201905580f35b01516008601f841602840a6000190419169055858080610abd565b80600186978294978701518155019601940190610aa4565b60e060020a634e487b7102855260418652602485fd5b015190508b80610a21565b838a52868a209190601f1984168b5b89828210610b70575050926002928592600e9998979660019610610b55575b50505002019055610a38565b01516008601f841602840a60001904191690558c8080610b49565b6001859682939686015181550195019301610b2a565b60e060020a634e487b7102895260418a52602489fd5b8a80fd5b8c80fd5b8b80fd5b8980fd5b8280fd5b509050816003193601126106e9576000805160206119ed833981519152805490916001604060020a038211610d10579290845190602094610bf5868084020184610f5f565b8183528583018095855286852085915b848310610cae5750505050508451938085019181865251809252858501868284028701019493965b838810610c3a5786860387f35b90919293948380610c9d600193603f198b82030187528951610c8a610c7a610c6a83516080808752860190610fdd565b8684015185820388870152610fdd565b888301518482038a860152610fdd565b9160608092015191818403910152610fdd565b970193019701969093929193610c2d565b83896001928c9b98999b51610cc281610f44565b610ccb86611412565b8152610cd8858701611412565b838201528d610ce960028801611412565b90820152610cf960038701611412565b606082015281520192019201919097959497610c05565b60e060020a634e487b7102845260419052602483fd5b8484916106e9576003199060a036830112610bac578335916001604060020a03908184116107f25760809084360301126106e557602435600160a060020a03811691908290036107f2576084359081116107f257610d879036908701610f82565b818552600080516020611a2d833981519152602052610e1283862094610df688865197610db389610f0f565b610dbc81611412565b8952610dca60018201611412565b60208a0152610ddb60028201611412565b888a0152610deb60038201611412565b60608a015201611412565b6080870152845195610e0787610f0f565b8652369088016114b7565b6020850152606435838501526044356060850152608084015283527f8ac0797a248e83fbd0c3e11ef78ec5a1859f66dd75481151e578d63de1a30c596020528220805490604060020a8210156107dc57600182018082558210156107c657836107c394955052600c6020852091020161154d565b60008060031936011261016d578081600080516020611a0d83398151915254925b838110610ebb576020836040519015158152f35b610ec48161101d565b9054600890910260020a9004600160a060020a0316610f06575b6000198114610eef57600101610ea7565b60e060020a634e487b710282526011600452602482fd5b60019250610ede565b60a081019081106001604060020a03821117610f2a57604052565b60e060020a634e487b710260009081526041600452602490fd5b608081019081106001604060020a03821117610f2a57604052565b601f909101601f19168101906001604060020a03821190821017610f2a57604052565b81601f82011215610fd8578035906001604060020a038211610f2a5760405192610fb6601f8401601f191660200185610f5f565b82845260208383010111610fd857816000926020809301838601378301015290565b600080fd5b919082519283825260005b848110611009575050826000602080949584010152601f8019910116010190565b602081830181015184830182015201610fe8565b600080516020611a0d83398151915280548210156110445760005260206000200190600090565b60e060020a634e487b710260009081526032600452602490fd5b9060016002830492168015611093575b602083101461107957565b60e060020a634e487b710260009081526022600452602490fd5b91607f169161106e565b90601f81116110ab57505050565b60009182526020822090602080601f860104830194106110e7575b601f602091010401915b8281106110dc57505050565b8181556001016110d0565b90925082906110c6565b815180516001604060020a03929190838111610f2a5761111581610260855461105e565b806020601f938483116001146113ab576000926113a0575b5050816002029160080260020a6000190419161782555b60018083016020860151805190868211610f2a57819061116e82611168865461105e565b8661109d565b6020908683116001146113375760009261132c575b5050816002029160080260020a6000190419161790555b6002928381016040870151805190878211610f2a576111bd82610260855461105e565b6020908683116001146112b857918060039492606096946000926112ad575b505060088202890a6000190419169088021790555b01950151908151948511610f2a5761120d8561039c885461105e565b6020928086116001146112495750509083929160009361123e575b505082810292600802900a600019041916179055565b015191503880611228565b909492601f198416928760005284826000209460005b8982821061129457505010611279575b5050505002019055565b0151908316600802840a60001904191690553880808061126f565b848601518855909601956020948501948893500161125f565b0151905038806111dc565b9185928892601f1983169186600052816000209260005b8181106113115750916003979593918560609a989694106112f7575b505050020190556111f1565b01516008838c1602840a60001904191690553880806112eb565b8383015185558a978d975090940193602093840193016112cf565b015190503880611183565b9250908491601f1982169085600052806000209160005b81811061138857509483600295961061136e575b5050500201905561119a565b0151600883891602840a6000190419169055388080611362565b8287015184558895909301926020928301920161134e565b01519050388061112d565b60008681528281209350601f198516905b8181106113fa575091600293918560019694106113e0575b50505002018255611144565b0151600883871602840a60001904191690553880806113d4565b929360206001819287860151815501950193016113bc565b90604051918260008254926114268461105e565b9081845260019485811690816000146114955750600114611452575b505061145092500383610f5f565b565b9093915060005260209081600020936000915b81831061147d57505061145093508201013880611442565b85548884018501529485019487945091830191611465565b91505061145094506020925060ff191682840152151581028201013880611442565b9190608083820312610fd857604051906114d082610f44565b909283916001604060020a0391908135838111610fd857816114f3918401610f82565b84526020820135838111610fd8578161150d918401610f82565b60208501526040820135838111610fd8578161152a918401610f82565b60408501526060820135928311610fd8576060926115489201610f82565b910152565b8151805180516001604060020a039390848111610f2a5761157881611572845461105e565b8461109d565b806020601f948583116001146119855760009261197a575b5050816002029160080260020a6000190419161781555b6001908181016020850151805190878211610f2a5781906115cc82611168865461105e565b60209087831160011461191157600092611906575b5050816002029160080260020a6000190419161790555b6002938482016040820151805190888211610f2a57819061161d82611168865461105e565b60209088831160011461189e57600092611893575b505060088202880a6000190419169087021790555b600382016060820151805190888211610f2a57819061166a82611168865461105e565b60209088831160011461182b57600092611820575b505060088202880a6000190419169087021790555b6080015180516004830191878211610f2a576116b482610260855461105e565b6020908683116001146117ac579180600b9492608096946000926117a1575b505060088202890a6000190419169088021790555b6116f96020890151600583016110f1565b604088015160098201556060880151600a82015501950151908151948511610f2a576117298561039c885461105e565b6020928086116001146117595750509083929160009361123e57505082810292600802900a600019041916179055565b909492601f198416928760005284826000209460005b8982821061178857505010611279575050505002019055565b848601518855909601956020948501948893500161176f565b0151905038806116d3565b9185928892601f1983169186600052816000209260005b818110611805575091600b979593918560809a989694106117eb575b505050020190556116e8565b01516008838c1602840a60001904191690553880806117df565b8383015185558a978d975090940193602093840193016117c3565b01519050388061167f565b879350899291601f1983169186600052816000209260005b8181106118785750841161185e575b50505002019055611694565b01516008838b1602840a6000190419169055388080611852565b8383015185558b978e97509094019360209384019301611843565b015190503880611632565b879350899291601f1983169186600052816000209260005b8181106118eb575084116118d1575b50505002019055611647565b01516008838b1602840a60001904191690553880806118c5565b8383015185558b978e975090940193602093840193016118b6565b0151905038806115e1565b9250908591601f1982169085600052806000209160005b818110611962575094836002959610611948575b505050020190556115f8565b01516008838a1602840a600019041916905538808061193c565b82870151845589959093019260209283019201611928565b015190503880611590565b60008581528281209350601f198516905b8181106119d4575091600293918560019694106119ba575b505050020181556115a7565b0151600883881602840a60001904191690553880806119ae565b9293602060018192878601518155019501930161199656fe8ac0797a248e83fbd0c3e11ef78ec5a1859f66dd75481151e578d63de1a30c5c8ac0797a248e83fbd0c3e11ef78ec5a1859f66dd75481151e578d63de1a30c5b8ac0797a248e83fbd0c3e11ef78ec5a1859f66dd75481151e578d63de1a30c58a2646970667358221220985f3339d201fd5f3cbf68f617cedcd883c4e54881fe501d5a5d477d76827ee164736f6c63430008120033",
  "immutableReferences": {
    "library_deploy_address": [
      {
        "length": 32,
        "start": 8
      }
    ]
  },
  "source": "// SPDX-License-Identifier: CC-BY-4.0\r\npragma solidity >=0.4.22 <0.9.0;\r\n\r\n/**\r\n * Sec. 203.36 Fulfillment houses, shipping and mailing services, comarketing agreements, and third-party recordkeeping.\r\n *\r\n * (a) Responsibility for creating and maintaining forms, reports, and records. Any manufacturer or authorized distributor of record that uses a fulfillment house,\r\n * shipping or mailing service, or other third party, or engages in a comarketing agreement with another manufacturer or distributor to distribute drug samples or\r\n * to meet any of the requirements of PDMA, PDA, or this part, remains responsible for creating and maintaining all requests, receipts, forms, reports,\r\n * and records required under PDMA, PDA, and this part.\r\n *\r\n * (b) Responsibility for producing requested forms, reports, or records. A manufacturer or authorized distributor of record that contracts with a third party\r\n * to maintain some or all of its records shall produce requested forms, reports, records, or other required documents within 2 business days of a request\r\n * by an authorized representative of FDA or another Federal, State, or local regulatory or law enforcement official.\r\n */\r\n\r\nlibrary SampleGuardian {\r\n    bytes32 constant private ZERO_BYTES = bytes32(0);\r\n    address constant private ZERO_ADDRESS = address(0);\r\n\r\n    struct LicensedPractitioner {\r\n        string  dea_number;\r\n        string  state_license;\r\n        string  name;\r\n        string  mailing_address;\r\n        string  title;\r\n    }\r\n\r\n    struct DrugItem {\r\n        string  control_number;\r\n        string  manufacturer;\r\n        string  name;\r\n        string  strength;\r\n    }\r\n\r\n    struct DrugItemRequest {\r\n        LicensedPractitioner practitioner;\r\n        DrugItem drug;\r\n        uint quantity;\r\n        uint256 epoch; // date of the request\r\n        bytes   signature;\r\n    }\r\n\r\n    struct Receipt {\r\n        DrugItemRequest request; // a request block\r\n        string deliveryAddress; // if not at the practitioner address\r\n        uint256 deliveryDate;\r\n        bytes  signaturePractitioner;\r\n    }\r\n\r\n    struct SampleGuardianStorage {\r\n        mapping (address => LicensedPractitioner) practitioners;\r\n        mapping (address => DrugItemRequest[]) drug_samples;\r\n        mapping (address => Receipt) receipts;\r\n        address[] _practitioners;\r\n        DrugItem[] _drugs;\r\n    }\r\n\r\n\r\n    function sampleGuardianStorage() internal pure returns (SampleGuardianStorage storage ds)\r\n    {\r\n        bytes32 position = keccak256(\"sampleguardian.storage\");\r\n        assembly { ds.slot := position }\r\n    }\r\n\r\n\r\n    function isPractitioner()\r\n        public\r\n        view\r\n        returns (bool)\r\n    {\r\n        bool found = false;\r\n        for(uint i = 0; i < sampleGuardianStorage()._practitioners.length; i++) {\r\n            if (sampleGuardianStorage()._practitioners[i] != ZERO_ADDRESS) {\r\n                found = true;\r\n            }\r\n        }\r\n        return found;\r\n    }\r\n\r\n    function notPractitioner()\r\n        public\r\n        view\r\n        returns (bool)\r\n    {\r\n        bool found = false;\r\n        for(uint i = 0; i < sampleGuardianStorage()._practitioners.length; i++) {\r\n            if (sampleGuardianStorage()._practitioners[i] != ZERO_ADDRESS) {\r\n                found = true;\r\n            }\r\n        }\r\n        return found;\r\n    }\r\n\r\n    function addPractitioner(string memory dea_number, string memory state_license,string memory name,string memory mailing_address,string memory title)\r\n        public\r\n    {\r\n        LicensedPractitioner memory practitioner = LicensedPractitioner(dea_number,state_license,name,mailing_address,title);\r\n        sampleGuardianStorage().practitioners[msg.sender] = practitioner;\r\n        sampleGuardianStorage()._practitioners.push(msg.sender);\r\n    }\r\n\r\n    function newDrug(string memory control_number,string memory manufacturer,string memory name,string memory strength)\r\n        public\r\n    {\r\n        DrugItem memory item = DrugItem(control_number,manufacturer,name,strength);\r\n        sampleGuardianStorage()._drugs.push(item);\r\n    }\r\n\r\n    function newSampleRequest(DrugItem calldata drug, address practitioner, uint256 dateOfRequest, uint quantity, bytes memory signature)\r\n        public\r\n    {\r\n        LicensedPractitioner memory _practitioner = sampleGuardianStorage().practitioners[practitioner];\r\n        DrugItemRequest memory sample = DrugItemRequest(_practitioner, drug, quantity, dateOfRequest,signature);\r\n        sampleGuardianStorage().drug_samples[practitioner].push(sample);\r\n    }\r\n\r\n    function newReceipt(address practitioner, DrugItemRequest calldata sample, string memory deliveryAddress, uint256 deliveryDate, bytes memory signature)\r\n        public\r\n    {\r\n        Receipt memory receipt = Receipt(sample,deliveryAddress,deliveryDate,signature);\r\n        sampleGuardianStorage().receipts[practitioner] = receipt;\r\n    }\r\n\r\n    function getPractitioners()\r\n        public\r\n        view\r\n        returns (address[] memory)\r\n    {\r\n        return sampleGuardianStorage()._practitioners;\r\n    }\r\n\r\n    function getDrugItemList()\r\n        public\r\n        view\r\n        returns (DrugItem[] memory)\r\n    {\r\n        return sampleGuardianStorage()._drugs;\r\n    }\r\n}",
  "sourcePath": "/Volumes/HOME/pingleware-contracts/contracts/healthcare/pharma/SampleGuardian.sol",
  "compiler": {
    "name": "solc",
    "version": "0.8.18+commit.87f61d96.Emscripten.clang"
  },
  "schemaVersion": "3.4.12",
  "updatedAt": "2024-05-23T18:56:26.370Z",
  "devdoc": {
    "kind": "dev",
    "methods": {},
    "version": 1
  },
  "userdoc": {
    "kind": "user",
    "methods": {},
    "notice": "Sec. 203.36 Fulfillment houses, shipping and mailing services, comarketing agreements, and third-party recordkeeping. (a) Responsibility for creating and maintaining forms, reports, and records. Any manufacturer or authorized distributor of record that uses a fulfillment house, shipping or mailing service, or other third party, or engages in a comarketing agreement with another manufacturer or distributor to distribute drug samples or to meet any of the requirements of PDMA, PDA, or this part, remains responsible for creating and maintaining all requests, receipts, forms, reports, and records required under PDMA, PDA, and this part. (b) Responsibility for producing requested forms, reports, or records. A manufacturer or authorized distributor of record that contracts with a third party to maintain some or all of its records shall produce requested forms, reports, records, or other required documents within 2 business days of a request by an authorized representative of FDA or another Federal, State, or local regulatory or law enforcement official.",
    "version": 1
  }
}