{
  "contractName": "SavingsAccount",
  "abi": [
    {
      "inputs": [],
      "stateMutability": "nonpayable",
      "type": "constructor"
    },
    {
      "anonymous": false,
      "inputs": [
        {
          "indexed": false,
          "internalType": "address",
          "name": "sender",
          "type": "address"
        },
        {
          "indexed": false,
          "internalType": "uint256",
          "name": "amount",
          "type": "uint256"
        }
      ],
      "name": "FallbackEvent",
      "type": "event"
    },
    {
      "anonymous": false,
      "inputs": [
        {
          "indexed": true,
          "internalType": "address",
          "name": "previousOwner",
          "type": "address"
        },
        {
          "indexed": true,
          "internalType": "address",
          "name": "newOwner",
          "type": "address"
        }
      ],
      "name": "OwnershipTransferred",
      "type": "event"
    },
    {
      "anonymous": false,
      "inputs": [
        {
          "indexed": false,
          "internalType": "address",
          "name": "sender",
          "type": "address"
        },
        {
          "indexed": false,
          "internalType": "uint256",
          "name": "amount",
          "type": "uint256"
        }
      ],
      "name": "ReceiveEvent",
      "type": "event"
    },
    {
      "stateMutability": "payable",
      "type": "fallback",
      "payable": true
    },
    {
      "inputs": [],
      "name": "WAIT",
      "outputs": [
        {
          "internalType": "uint256",
          "name": "",
          "type": "uint256"
        }
      ],
      "stateMutability": "view",
      "type": "function",
      "constant": true
    },
    {
      "inputs": [
        {
          "internalType": "address",
          "name": "",
          "type": "address"
        }
      ],
      "name": "depositors",
      "outputs": [
        {
          "internalType": "uint256",
          "name": "",
          "type": "uint256"
        }
      ],
      "stateMutability": "view",
      "type": "function",
      "constant": true
    },
    {
      "inputs": [],
      "name": "getOwner",
      "outputs": [
        {
          "internalType": "address",
          "name": "",
          "type": "address"
        }
      ],
      "stateMutability": "payable",
      "type": "function",
      "payable": true
    },
    {
      "inputs": [],
      "name": "renounceOwnership",
      "outputs": [],
      "stateMutability": "payable",
      "type": "function",
      "payable": true
    },
    {
      "inputs": [
        {
          "internalType": "address",
          "name": "",
          "type": "address"
        },
        {
          "internalType": "uint256",
          "name": "",
          "type": "uint256"
        }
      ],
      "name": "transactions",
      "outputs": [
        {
          "internalType": "uint256",
          "name": "timestamp",
          "type": "uint256"
        },
        {
          "internalType": "string",
          "name": "description",
          "type": "string"
        },
        {
          "internalType": "uint256",
          "name": "debit",
          "type": "uint256"
        },
        {
          "internalType": "uint256",
          "name": "credit",
          "type": "uint256"
        }
      ],
      "stateMutability": "view",
      "type": "function",
      "constant": true
    },
    {
      "inputs": [
        {
          "internalType": "address",
          "name": "newOwner",
          "type": "address"
        }
      ],
      "name": "transferOwnership",
      "outputs": [],
      "stateMutability": "payable",
      "type": "function",
      "payable": true
    },
    {
      "stateMutability": "payable",
      "type": "receive",
      "payable": true
    },
    {
      "inputs": [],
      "name": "setCurrentRate",
      "outputs": [],
      "stateMutability": "payable",
      "type": "function",
      "payable": true
    },
    {
      "inputs": [],
      "name": "currentRate",
      "outputs": [
        {
          "internalType": "uint256",
          "name": "",
          "type": "uint256"
        }
      ],
      "stateMutability": "view",
      "type": "function",
      "constant": true
    },
    {
      "inputs": [],
      "name": "setInterestPaymentPeriod",
      "outputs": [],
      "stateMutability": "payable",
      "type": "function",
      "payable": true
    },
    {
      "inputs": [],
      "name": "interestPaymentPeriod",
      "outputs": [
        {
          "internalType": "uint256",
          "name": "",
          "type": "uint256"
        }
      ],
      "stateMutability": "view",
      "type": "function",
      "constant": true
    },
    {
      "inputs": [
        {
          "internalType": "address",
          "name": "depositor",
          "type": "address"
        }
      ],
      "name": "addDepositor",
      "outputs": [],
      "stateMutability": "payable",
      "type": "function",
      "payable": true
    },
    {
      "inputs": [
        {
          "internalType": "address",
          "name": "depositor",
          "type": "address"
        },
        {
          "internalType": "string",
          "name": "description",
          "type": "string"
        }
      ],
      "name": "processBankFee",
      "outputs": [],
      "stateMutability": "payable",
      "type": "function",
      "payable": true
    },
    {
      "inputs": [
        {
          "internalType": "address",
          "name": "depositor",
          "type": "address"
        }
      ],
      "name": "payInterest",
      "outputs": [],
      "stateMutability": "payable",
      "type": "function",
      "payable": true
    },
    {
      "inputs": [],
      "name": "makeDeposit",
      "outputs": [],
      "stateMutability": "payable",
      "type": "function",
      "payable": true
    },
    {
      "inputs": [],
      "name": "makeWithdrawal",
      "outputs": [],
      "stateMutability": "payable",
      "type": "function",
      "payable": true
    },
    {
      "inputs": [],
      "name": "getTransactions",
      "outputs": [
        {
          "components": [
            {
              "internalType": "uint256",
              "name": "timestamp",
              "type": "uint256"
            },
            {
              "internalType": "string",
              "name": "description",
              "type": "string"
            },
            {
              "internalType": "uint256",
              "name": "debit",
              "type": "uint256"
            },
            {
              "internalType": "uint256",
              "name": "credit",
              "type": "uint256"
            }
          ],
          "internalType": "struct SavingsAccount.Transaction[]",
          "name": "",
          "type": "tuple[]"
        }
      ],
      "stateMutability": "view",
      "type": "function",
      "constant": true
    }
  ],
  "bytecode": "0x60806040526000600155600560035560048055600060055560006006556000600755600060085560006009556000600a556000600b5534801561004157600080fd5b5060008054600160a060020a031916339081178255426001556040519091907f8be0079c531659141344cd1fd0a4f28419497f9722a3daafe3b4186f6b6457e0908290a36000600f5530316010556120d68061009e6000396000f3fe6080604052600436106100ca5760e060020a6000350463017e66b18114610191578063145381281461019b5780633951b4c9146101d457806340732c89146101dc578063715018a6146101e457806378ab86f5146101ec5780637a111a121461020b57806383920e901461021e5780638478bc2914610240578063893d20e814610248578063b8fb3a5114610268578063d007c6441461027d578063eed75f6d14610290578063f2fde38b146102bd578063f9f8bdb7146102d0578063fc8acba2146102e55761010a565b3661010a577fcc85d09d309785db93d6df19917f2e6cc07fe27cd01c08c8279145deb5cf45263334604051610100929190611a2f565b60405180910390a1005b3233146101605760405160e560020a62461bcd0281526020600482015260196024820152603860020a787068697368696e672061747461636b2064657465637465643f0260448201526064015b60405180910390fd5b7f26875833861a2b006512a11f1b86edf95df96131040f3caeed72989ee98580833334604051610100929190611a2f565b6101996102f8565b005b3480156101a757600080fd5b506101bb6101b6366004611a64565b6103aa565b6040516101cb9493929190611ad4565b60405180910390f35b61019961047f565b61019961069f565b6101996107e6565b3480156101f857600080fd5b506004545b6040519081526020016101cb565b610199610219366004611b00565b61084b565b34801561022a57600080fd5b506102336109a2565b6040516101cb9190611b82565b610199610aea565b610250610b83565b604051600160a060020a0390911681526020016101cb565b34801561027457600080fd5b506101fd601e81565b61019961028b366004611c0a565b610bf9565b34801561029c57600080fd5b506101fd6102ab366004611c0a565b60116020526000908152604090205481565b6101996102cb366004611c0a565b6112a1565b3480156102dc57600080fd5b506003546101fd565b6101996102f3366004611c0a565b611382565b600054600160a060020a031633146103255760405160e560020a62461bcd02815260040161015790611c2c565b346001141580610336575034600214155b80610342575034600414155b6103a45760405160e560020a62461bcd02815260206004820152602760248201527f696e746572657374207061796d656e7420706572696f64206973206f7574206f604482015260c860020a66662072616e6765026064820152608401610157565b34600355565b601360205281600052604060002081815481106103c657600080fd5b9060005260206000209060040201600091509150508060000154908060010180546103f090611c63565b80601f016020809104026020016040519081016040528092919081815260200182805461041c90611c63565b80156104695780601f1061043e57610100808354040283529160200191610469565b820191906000526020600020905b81548152906001019060200180831161044c57829003601f168201915b5050505050908060020154908060030154905084565b600034116104a25760405160e560020a62461bcd02815260040161015790611ca1565b3360009081526011602052604081205490036104d35760405160e560020a62461bcd02815260040161015790611ce5565b33600090815260126020526040902054346001608060020a0390911610156105365760405160e560020a62461bcd0281526020600482015260106024820152608060020a6f4e6f7420656e6f756768206d6f6e6579026044820152606401610157565b34601054116105a05760405160e560020a62461bcd02815260206004820152602a60248201527f4e6f7420656e6f75676820636f6e74726163742062616c616e636520666f7220604482015260b260020a691dda5d1a191c985dd85b026064820152608401610157565b336000908152601260205260409020546105c3906001608060020a03163461154d565b50336000908152601360208181526040808420815160808101835242815282518084018452948552606a60020a7210d554d513d351548815d2551211149055d05302858501528084019485523492810192909252606082018590528054600181810183559186529290942081516004909302019182559151919290919082019061064d9082611d81565b5060408281015160028301556060909201516003909101555133903480156108fc02916000818181858888f1935050505015801561068f573d6000803e3d6000fd5b5061069c6010543461154d565b50565b600034116106c25760405160e560020a62461bcd02815260040161015790611ca1565b3360009081526011602052604081205490036106f35760405160e560020a62461bcd02815260040161015790611ce5565b33600090815260126020526040902054610716906001608060020a0316346115bd565b5033600090815260136020908152604080832081516080810183524281528251808401845260108152608260020a6f10d554d513d351548811115413d4d25502818601528185019081529281018590523460608201528154600181810184559286529390942084516004909402019283559051908201906107979082611d81565b5060408281015160028301556060909201516003909101555130903480156108fc02916000818181858888f193505050501580156107d9573d6000803e3d6000fd5b5061069c601054346115bd565b600054600160a060020a031633146108135760405160e560020a62461bcd02815260040161015790611e46565b60008054604051600160a060020a0390911690600080516020612081833981519152908390a360008054600160a060020a0319169055565b600054600160a060020a031633146108785760405160e560020a62461bcd02815260040161015790611c2c565b6000341161089b5760405160e560020a62461bcd02815260040161015790611ca1565b600160a060020a0383166000908152601260205260409020546108c7906001608060020a03163461154d565b506013600084600160a060020a0316600160a060020a03168152602001908152602001600020604051806080016040528042815260200184848080601f01602080910402602001604051908101604052809392919081815260200183838082843760009201829052509385525050346020808501919091526040909301829052508354600181810186559482529082902083516004909202019081559082015191929091908201906109799082611d81565b506040820151816002015560608201518160030155505061099c601054346115bd565b50505050565b33600090815260116020526040812054606091036109d55760405160e560020a62461bcd02815260040161015790611ce5565b33600090815260136020908152604080832080548251818502810185019093528083529193909284015b82821015610ae1578382906000526020600020906004020160405180608001604052908160008201548152602001600182018054610a3c90611c63565b80601f0160208091040260200160405190810160405280929190818152602001828054610a6890611c63565b8015610ab55780601f10610a8a57610100808354040283529160200191610ab5565b820191906000526020600020905b815481529060010190602001808311610a9857829003601f168201915b5050505050815260200160028201548152602001600382015481525050815260200190600101906109ff565b50505050905090565b600054600160a060020a03163314610b175760405160e560020a62461bcd02815260040161015790611c2c565b60003411610b7d5760405160e560020a62461bcd02815260206004820152602760248201527f496e7465726573742072617465206d7573742062652067726561746572207468604482015260c860020a66616e207a65726f026064820152608401610157565b34600455565b6000601e600154610b949190611e94565b4211610bb55760405160e560020a62461bcd02815260040161015790611ea7565b601e600154610bc49190611e94565b4211610be55760405160e560020a62461bcd02815260040161015790611ea7565b5042600155600054600160a060020a031690565b600054600160a060020a03163314610c265760405160e560020a62461bcd02815260040161015790611c2c565b600160a060020a0381166000908152601360205260408120549042610c4a81611615565b600e55600d55600c819055610c67906003601f6017603b8061163b565b610c7a600c54600180600080600061163b565b610c849190611ed4565b600555600c54610c9c906006601e6017603b8061163b565b610cb0600c5460046001600080600061163b565b610cba9190611ed4565b600655600c54610cd2906009601e6017603b8061163b565b610ce6600c5460076001600080600061163b565b610cf09190611ed4565b600755600c8054610d0791601f6017603b8061163b565b610d1b600c54600a6001600080600061163b565b610d259190611ed4565b600855600c54610d3d906006601e6017603b8061163b565b610d50600c54600180600080600061163b565b610d5a9190611ed4565b600955600c8054610d7191601f6017603b8061163b565b610d85600c5460076001600080600061163b565b610d8f9190611ed4565b600a55600c54610db390610da590600190611ed4565b600c601f6017603b8061163b565b600b558215610ec257825b83811115610ec057604051608260020a6f12539511549154d5081410565351539502602082015260300160408051601f198184030181529181528151602092830120600160a060020a038816600090815260139093529120805483908110610e2857610e28611ee7565b9060005260206000209060040201600101604051602001610e499190611f01565b60405160208183030381529060405280519060200120148015610e6a575082155b15610eae57600160a060020a0385166000908152601360205260409020805482908110610e9957610e99611ee7565b90600052602060002090600402016000015492505b80610eb881611f77565b915050610dbe565b505b81600003610f0857600160a060020a03841660009081526013602052604081208054909190610ef357610ef3611ee7565b90600052602060002090600402016000015491505b600160a060020a038416600090815260126020526040812054600354600454610f4f926001608060020a031691610f4a91610f439190611697565b6064611697565b6116fe565b9050600454600103611051578282118015610f6b5750600b5482115b1561104c57600160a060020a038516600090815260126020526040902054610f9c906001608060020a0316826115bd565b50600160a060020a038516600090815260136020908152604080832081516080810183524281528251808401845260108152608260020a6f12539511549154d508141056535153950281860152818501908152928101859052606081018690528154600181810184559286529390942084516004909402019283559051908201906110279082611d81565b506040820151816002015560608201518160030155505061104a600f54826115bd565b505b61129a565b6004546002036110dc57828211801561106b5750600b5482115b1561109c57600160a060020a038516600090815260126020526040902054610f9c906001608060020a0316826115bd565b8282118015610f6b575060095482111561104c57600160a060020a038516600090815260126020526040902054610f9c906001608060020a0316826115bd565b60045460040361129a5782821180156110f65750600b5482115b1561112757600160a060020a038516600090815260126020526040902054610f9c906001608060020a0316826115bd565b8282118015611137575060075482115b1561116857600160a060020a038516600090815260126020526040902054610f9c906001608060020a0316826115bd565b8282118015611178575060065482115b156111a957600160a060020a038516600090815260126020526040902054610f9c906001608060020a0316826115bd565b82821180156111b9575060055482115b1561129a57600160a060020a0385166000908152601260205260409020546111ea906001608060020a0316826115bd565b50600160a060020a038516600090815260136020908152604080832081516080810183524281528251808401845260108152608260020a6f12539511549154d508141056535153950281860152818501908152928101859052606081018690528154600181810184559286529390942084516004909402019283559051908201906112759082611d81565b5060408201518160020155606082015181600301555050611298600f54826115bd565b505b5050505050565b600054600160a060020a031633146112ce5760405160e560020a62461bcd02815260040161015790611e46565b600160a060020a0381166113395760405160e560020a62461bcd02815260206004820152602660248201527f4f776e61626c653a206e6577206f776e657220697320746865207a65726f2061604482015260d060020a65646472657373026064820152608401610157565b60008054604051600160a060020a038085169392169160008051602061208183398151915291a360008054600160a060020a031916600160a060020a0392909216919091179055565b600054600160a060020a031633146113af5760405160e560020a62461bcd02815260040161015790611c2c565b600160a060020a0381166114085760405160e560020a62461bcd02815260206004820181905260248201527f4465706f7369746f722063616e6e6f74206265206e756c6c20616464726573736044820152606401610157565b600160a060020a038116600090815260116020526040902054156114705760405160e560020a62461bcd0281526020600482015260196024820152603860020a784465706f7369746f7220616c72656164792065786973747321026044820152606401610157565b600160a060020a03811660009081526011602090815260408083206001905560129091529020546114aa906001608060020a0316346115bd565b50600160a060020a0381166000908152601360209081526040808320815160808101835242815282518084018452600f8152608a60020a6e13d41153925391c811115413d4d25502818601528185019081529281018590523460608201528154600181810184559286529390942084516004909402019283559051908201906115339082611d81565b506040820151816002015560608201518160030155505050565b6000828211156115a25760405160e560020a62461bcd02815260206004820152601e60248201527f536166654d6174683a207375627472616374696f6e206f766572666c6f7700006044820152606401610157565b8183038219840181146115b457600080fd5b90505b92915050565b6000828201838110156115b45760405160e560020a62461bcd02815260206004820152601b60248201527f536166654d6174683a206164646974696f6e206f766572666c6f7700000000006044820152606401610157565b6000808061162e6116296201518086611fa8565b61177e565b9196909550909350915050565b600081611649603c85611fbc565b611655610e1087611fbc565b620151806116648b8b8b6118f2565b61166e9190611fbc565b6116789190611e94565b6116829190611e94565b61168c9190611e94565b979650505050505050565b60008082116116eb5760405160e560020a62461bcd02815260206004820152601a60248201527f536166654d6174683a206469766973696f6e206279207a65726f0000000000006044820152606401610157565b6000826116f757600080fd5b5050900490565b60008282028215838204851415171561171657600080fd5b826117218583611fa8565b146115b45760405160e560020a62461bcd02815260206004820152602160248201527f536166654d6174683a206d756c7469706c69636174696f6e206f766572666c6f604482015260f860020a6077026064820152608401610157565b60008080838162253d8c6117958362010bd9611fd3565b61179f9190611fd3565b9050600062023ab16117b2836004611ffb565b6117bc919061202b565b905060046117cd8262023ab1611ffb565b6117d8906003611fd3565b6117e2919061202b565b6117ec9083612059565b9150600062164b096117ff846001611fd3565b61180b90610fa0611ffb565b611815919061202b565b90506004611825826105b5611ffb565b61182f919061202b565b6118399084612059565b61184490601f611fd3565b9250600061098f611856856050611ffb565b611860919061202b565b9050600060506118728361098f611ffb565b61187c919061202b565b6118869086612059565b9050611893600b8361202b565b94506118a085600c611ffb565b6118ab836002611fd3565b6118b59190612059565b915084836118c4603187612059565b6118cf906064611ffb565b6118d99190611fd3565b6118e39190611fd3565b9a919950975095505050505050565b60006107b284101561190357600080fd5b838383600062253d8c60046064600c61191d600e88612059565b611927919061202b565b61193388611324611fd3565b61193d9190611fd3565b611947919061202b565b611952906003611ffb565b61195c919061202b565b600c8061196a600e88612059565b611974919061202b565b61197f90600c611ffb565b61198a600288612059565b6119949190612059565b6119a09061016f611ffb565b6119aa919061202b565b6004600c6119b9600e89612059565b6119c3919061202b565b6119cf896112c0611fd3565b6119d99190611fd3565b6119e5906105b5611ffb565b6119ef919061202b565b6119fb617d4b87612059565b611a059190611fd3565b611a0f9190611fd3565b611a199190612059565b611a239190612059565b98975050505050505050565b600160a060020a03929092168252602082015260400190565b8035600160a060020a0381168114611a5f57600080fd5b919050565b60008060408385031215611a7757600080fd5b611a8083611a48565b946020939093013593505050565b6000815180845260005b81811015611ab457602081850181015186830182015201611a98565b506000602082860101526020601f19601f83011685010191505092915050565b848152608060208201526000611aed6080830186611a8e565b6040830194909452506060015292915050565b600080600060408486031215611b1557600080fd5b611b1e84611a48565b925060208401356001604060020a0380821115611b3a57600080fd5b818601915086601f830112611b4e57600080fd5b813581811115611b5d57600080fd5b876020828501011115611b6f57600080fd5b6020830194508093505050509250925092565b60208082528251828201819052600091906040908185019080840286018301878501865b83811015611bfc57603f19898403018552815160808151855288820151818a870152611bd482870182611a8e565b838a0151878b0152606093840151939096019290925250509386019390860190600101611ba6565b509098975050505050505050565b600060208284031215611c1c57600080fd5b611c2582611a48565b9392505050565b6020808252601b908201527f756e617574686f72697a65642c206e6f7420746865206f776e65720000000000604082015260600190565b600281046001821680611c7757607f821691505b602082108103611c9b5760e060020a634e487b710260009081526022600452602490fd5b50919050565b60208082526021908201527f416d6f756e742063616e6e6f74206265206e65676174697665206f72207a6572604082015260f860020a606f02606082015260800190565b6020808252601a908201527f4465706f7369746f7220646f6573206e6f742065786973747321000000000000604082015260600190565b60e060020a634e487b710260009081526041600452602490fd5b601f821115611d7c576000818152602081206020601f86010481016020861015611d5d5750805b6020601f860104820191505b8181101561129857828155600101611d69565b505050565b81516001604060020a03811115611d9a57611d9a611d1c565b611dae81611da88454611c63565b84611d36565b602080601f831160018114611de75760008415611dcb5750858301515b60028086026008870290910a6000190419821617865550611298565b600085815260208120601f198616915b82811015611e1657888601518255948401946001909101908401611df7565b5085821015611e3657878501516008601f88160260020a60001904191681555b5050505050600202600101905550565b6020808252601790820152604960020a7630b1b1b2b9b9903232b734b2b2103337b91037bbb732b902604082015260600190565b60e060020a634e487b710260009081526011600452602490fd5b808201808211156115b7576115b7611e7a565b6020808252601090820152608160020a6f3930ba32903634b6b4ba1032b93937b902604082015260600190565b818103818111156115b7576115b7611e7a565b60e060020a634e487b710260009081526032600452602490fd5b6000808354611f0f81611c63565b60018281168015611f275760018114611f3c57611f6b565b60ff1984168752821515830287019450611f6b565b8760005260208060002060005b85811015611f625781548a820152908401908201611f49565b50505082870194505b50929695505050505050565b600081611f8657611f86611e7a565b506000190190565b60e060020a634e487b710260009081526012600452602490fd5b600082611fb757611fb7611f8e565b500490565b80820281158282048414176115b7576115b7611e7a565b8082018281126000831280158216821582161715611ff357611ff3611e7a565b505092915050565b8082026000821260ff60020a8414161561201757612017611e7a565b81810583148215176115b7576115b7611e7a565b60008261203a5761203a611f8e565b60ff60020a82146000198414161561205457612054611e7a565b500590565b818103600083128015838313168383128216171561207957612079611e7a565b509291505056fe8be0079c531659141344cd1fd0a4f28419497f9722a3daafe3b4186f6b6457e0a2646970667358221220d1b9a5e9a113abd91cf883795aac2e1de191bbf09a6c61dfb26b7ec67c89382a64736f6c63430008120033",
  "immutableReferences": {},
  "source": "// SPDX-License-Identifier: CC-BY-4.0\r\npragma solidity >=0.4.22 <0.9.0;\r\nimport \"../../libs/SafeMath.sol\";\r\nimport \"../../libs/DateTime.sol\";\r\nimport \"../../common/Owned.sol\";\r\n\r\ncontract SavingsAccount is Owned {\r\n\r\n    uint private INTEREST_RATE = 5; // percentages are represented as whole numbers\r\n    uint private INTEREST_PAYMENT_PERIODS = 4; // 1=annually, 2=bi-annually, 4=quarterly\r\n\r\n    uint256 private FIRST_QUARTER = 0; // Jan 1 00:00:00 - Mar 31 23:59:59\r\n    uint256 private SECOND_QUARTER = 0; // Apr 1 00:00:00 - Jun 30 23:59:59\r\n    uint256 private THIRD_QUARTER = 0; // Jul 1 00:00:00 - Sep 30 23:59:59\r\n    uint256 private FORTH_QUARTER = 0; // Oct 1 00:00:00 - Dec 31 23:59:59\r\n\r\n    uint256 private FIRST_HALF = 0; // Jan 1 00:00:00 - Jun 30 23:59:59\r\n    uint256 private SECOND_HALF = 0; // Jul 1 00:00:00 - Dec 31 23:59:59\r\n\r\n    uint256 private PREVIOUS_YEAR = 0;\r\n\r\n    uint256 private year;\r\n    uint256 private month;\r\n    uint256 private day;\r\n\r\n    uint256 private total_interest_paid_pending;\r\n    uint256 private contract_balance;\r\n\r\n    struct Deposit {\r\n        uint128 balance;\r\n    }\r\n\r\n    /**\r\n     * Since solidity does not handle decimals, all numbers are normalized * 100\r\n     */\r\n    struct Transaction {\r\n        uint256 timestamp;\r\n        string  description;\r\n        uint256 debit;\r\n        uint256 credit;\r\n    }\r\n\r\n    mapping(address => uint256) public depositors;\r\n    mapping(address => Deposit) private balances;\r\n    mapping(address => Transaction[]) public transactions;\r\n\r\n    constructor() {\r\n        total_interest_paid_pending = 0;\r\n        contract_balance = address(this).balance;\r\n    }\r\n\r\n    /**\r\n     * ADMINISTRATOR OPERATIONS\r\n     */\r\n    function setCurrentRate() public payable okOwner {\r\n        require(msg.value != 1 || msg.value != 2 || msg.value != 4, \"interest payment period is out of range\");\r\n        INTEREST_RATE = msg.value;\r\n    }\r\n\r\n    function currentRate() public view returns(uint256) {\r\n        return INTEREST_RATE;\r\n    }\r\n\r\n    function setInterestPaymentPeriod() public payable okOwner {\r\n        require(msg.value > 0, \"Interest rate must be greater than zero\");\r\n        INTEREST_PAYMENT_PERIODS = msg.value;\r\n    }\r\n\r\n    function interestPaymentPeriod() public view returns(uint256) {\r\n        return INTEREST_PAYMENT_PERIODS;\r\n    }\r\n\r\n    function addDepositor(address depositor) public payable okOwner {\r\n        require(depositor != address(0), \"Depositor cannot be null address\");\r\n        require(depositors[depositor] == 0, \"Depositor already exists!\");\r\n        depositors[depositor] = 1;\r\n        SafeMath.safeAdd(balances[depositor].balance, msg.value);\r\n        transactions[depositor].push(Transaction(block.timestamp, \"OPENING DEPOSIT\", 0, msg.value));\r\n    }\r\n\r\n    function processBankFee(address depositor, string calldata description) public payable okOwner {\r\n        require(msg.value > 0, \"Amount cannot be negative or zero\");\r\n        SafeMath.safeSub(balances[depositor].balance, msg.value);\r\n        transactions[depositor].push(Transaction(block.timestamp, description, msg.value, 0));\r\n        SafeMath.safeAdd(contract_balance, msg.value);\r\n    }\r\n\r\n    function payInterest(address depositor) public payable okOwner {\r\n        uint count = transactions[depositor].length;\r\n        uint256 lastPayment = 0;\r\n\r\n        uint today = block.timestamp;\r\n\r\n        (year, month, day) = DateTime.timestampToDate(today);\r\n        FIRST_QUARTER = DateTime.timestampFromDateTime(year,1,1,0,0,0) - DateTime.timestampFromDateTime(year,3,31,23,59,59);\r\n        SECOND_QUARTER = DateTime.timestampFromDateTime(year,4,1,0,0,0) - DateTime.timestampFromDateTime(year,6,30,23,59,59);\r\n        THIRD_QUARTER = DateTime.timestampFromDateTime(year,7,1,0,0,0) - DateTime.timestampFromDateTime(year,9,30,23,59,59);\r\n        FORTH_QUARTER = DateTime.timestampFromDateTime(year,10,1,0,0,0) - DateTime.timestampFromDateTime(year,12,31,23,59,59);\r\n\r\n        FIRST_HALF = DateTime.timestampFromDateTime(year,1,1,0,0,0) - DateTime.timestampFromDateTime(year,6,30,23,59,59);\r\n        SECOND_HALF = DateTime.timestampFromDateTime(year,7,1,0,0,0) - DateTime.timestampFromDateTime(year,12,31,23,59,59);\r\n\r\n        PREVIOUS_YEAR = DateTime.timestampFromDateTime(year-1,12,31,23,59,59);\r\n\r\n        if (count > 0) {\r\n            for (uint i=count; i>count; i--) {\r\n                if (keccak256(abi.encodePacked(transactions[depositor][i].description)) == keccak256(abi.encodePacked(\"INTEREST PAYMENT\")) && lastPayment == 0) {\r\n                    lastPayment = transactions[depositor][i].timestamp;\r\n                }\r\n            }\r\n        }\r\n\r\n        if (lastPayment == 0) {\r\n            // If no interest payment transaction, then grab opening date\r\n            lastPayment = transactions[depositor][0].timestamp;\r\n        }\r\n\r\n        uint256 interest = SafeMath.safeMul(balances[depositor].balance,SafeMath.safeDiv(SafeMath.safeDiv(INTEREST_RATE,INTEREST_PAYMENT_PERIODS),100));\r\n        if (INTEREST_PAYMENT_PERIODS == 1) {\r\n            if (today > lastPayment && today > PREVIOUS_YEAR) {\r\n                SafeMath.safeAdd(balances[depositor].balance, interest);\r\n                transactions[depositor].push(Transaction(block.timestamp, \"INTEREST PAYMENT\", 0, interest));\r\n                SafeMath.safeAdd(total_interest_paid_pending, interest);\r\n            }\r\n        } else if (INTEREST_PAYMENT_PERIODS == 2) {\r\n            if (today > lastPayment && today > PREVIOUS_YEAR) {\r\n                SafeMath.safeAdd(balances[depositor].balance, interest);\r\n                transactions[depositor].push(Transaction(block.timestamp, \"INTEREST PAYMENT\", 0, interest));\r\n                SafeMath.safeAdd(total_interest_paid_pending, interest);\r\n            } else if (today > lastPayment && today > FIRST_HALF) {\r\n                SafeMath.safeAdd(balances[depositor].balance, interest);\r\n                transactions[depositor].push(Transaction(block.timestamp, \"INTEREST PAYMENT\", 0, interest));\r\n                SafeMath.safeAdd(total_interest_paid_pending, interest);\r\n            }\r\n        } else if (INTEREST_PAYMENT_PERIODS == 4) {\r\n            if (today > lastPayment && today > PREVIOUS_YEAR) {\r\n                SafeMath.safeAdd(balances[depositor].balance, interest);\r\n                transactions[depositor].push(Transaction(block.timestamp, \"INTEREST PAYMENT\", 0, interest));\r\n                SafeMath.safeAdd(total_interest_paid_pending, interest);\r\n            } else if (today > lastPayment && today > THIRD_QUARTER) {\r\n                SafeMath.safeAdd(balances[depositor].balance, interest);\r\n                transactions[depositor].push(Transaction(block.timestamp, \"INTEREST PAYMENT\", 0, interest));\r\n                SafeMath.safeAdd(total_interest_paid_pending, interest);\r\n            } else if (today > lastPayment && today > SECOND_QUARTER) {\r\n                SafeMath.safeAdd(balances[depositor].balance, interest);\r\n                transactions[depositor].push(Transaction(block.timestamp, \"INTEREST PAYMENT\", 0, interest));\r\n                SafeMath.safeAdd(total_interest_paid_pending, interest);\r\n            } else if (today > lastPayment && today > FIRST_QUARTER) {\r\n                SafeMath.safeAdd(balances[depositor].balance, interest);\r\n                transactions[depositor].push(Transaction(block.timestamp, \"INTEREST PAYMENT\", 0, interest));\r\n                SafeMath.safeAdd(total_interest_paid_pending, interest);\r\n            }\r\n        }\r\n    }\r\n\r\n    /**\r\n     * CUSTOMER/DEPOSITOR OPEATIONS\r\n     */\r\n    function makeDeposit() public payable {\r\n        require(msg.value > 0, \"Amount cannot be negative or zero\");\r\n        require(depositors[msg.sender] != 0, \"Depositor does not exists!\");\r\n        SafeMath.safeAdd(balances[msg.sender].balance, msg.value);\r\n        transactions[msg.sender].push(Transaction(block.timestamp, \"CUSTOMER DEPOSIT\", 0, msg.value));\r\n        payable(address(this)).transfer(msg.value);\r\n        SafeMath.safeAdd(contract_balance, msg.value);\r\n    }\r\n\r\n    function makeWithdrawal() public payable {\r\n        require(msg.value > 0, \"Amount cannot be negative or zero\");\r\n        require(depositors[msg.sender] != 0, \"Depositor does not exists!\");\r\n        require(balances[msg.sender].balance >= msg.value, \"Not enough money\");\r\n        require(contract_balance > msg.value, \"Not enough contract balance for withdrawal\");\r\n        SafeMath.safeSub(balances[msg.sender].balance, msg.value);\r\n        transactions[msg.sender].push(Transaction(block.timestamp, \"CUSTOMER WITHDRAWAL\", msg.value, 0));\r\n        payable(msg.sender).transfer(msg.value);\r\n        SafeMath.safeSub(contract_balance, msg.value);\r\n    }\r\n\r\n    function getTransactions() public view returns(Transaction[] memory) {\r\n        require(depositors[msg.sender] != 0, \"Depositor does not exists!\");\r\n        return transactions[msg.sender];\r\n    }\r\n}",
  "sourcePath": "/Volumes/My Book/projects/pingleware-contracts/contracts/finance/banking/SavingsAccount..sol",
  "compiler": {
    "name": "solc",
    "version": "0.8.18+commit.87f61d96.Emscripten.clang"
  },
  "schemaVersion": "3.4.12",
  "updatedAt": "2023-10-24T15:26:25.925Z",
  "networkType": "ethereum",
  "devdoc": {
    "kind": "dev",
    "methods": {
      "renounceOwnership()": {
        "details": "Leaves the contract without owner. It will not be possible to call `onlyOwner` functions anymore. Can only be called by the current owner. NOTE: Renouncing ownership will leave the contract without an owner, thereby removing any functionality that is only available to the owner."
      },
      "transferOwnership(address)": {
        "details": "Transfers ownership of the contract to a new account (`newOwner`). Can only be called by the current owner."
      }
    },
    "version": 1
  },
  "userdoc": {
    "kind": "user",
    "methods": {
      "makeDeposit()": {
        "notice": "CUSTOMER/DEPOSITOR OPEATIONS"
      },
      "setCurrentRate()": {
        "notice": "ADMINISTRATOR OPERATIONS"
      }
    },
    "version": 1
  }
}