{
  "contractName": "SavingsAccount",
  "abi": [
    {
      "inputs": [],
      "stateMutability": "nonpayable",
      "type": "constructor"
    },
    {
      "anonymous": false,
      "inputs": [
        {
          "indexed": false,
          "internalType": "address",
          "name": "sender",
          "type": "address"
        },
        {
          "indexed": false,
          "internalType": "uint256",
          "name": "amount",
          "type": "uint256"
        }
      ],
      "name": "FallbackEvent",
      "type": "event"
    },
    {
      "anonymous": false,
      "inputs": [
        {
          "indexed": true,
          "internalType": "address",
          "name": "previousOwner",
          "type": "address"
        },
        {
          "indexed": true,
          "internalType": "address",
          "name": "newOwner",
          "type": "address"
        }
      ],
      "name": "OwnershipTransferred",
      "type": "event"
    },
    {
      "anonymous": false,
      "inputs": [
        {
          "indexed": false,
          "internalType": "address",
          "name": "sender",
          "type": "address"
        },
        {
          "indexed": false,
          "internalType": "uint256",
          "name": "amount",
          "type": "uint256"
        }
      ],
      "name": "ReceiveEvent",
      "type": "event"
    },
    {
      "stateMutability": "payable",
      "type": "fallback"
    },
    {
      "inputs": [],
      "name": "WAIT",
      "outputs": [
        {
          "internalType": "uint256",
          "name": "",
          "type": "uint256"
        }
      ],
      "stateMutability": "view",
      "type": "function"
    },
    {
      "inputs": [
        {
          "internalType": "address",
          "name": "",
          "type": "address"
        }
      ],
      "name": "depositors",
      "outputs": [
        {
          "internalType": "uint256",
          "name": "",
          "type": "uint256"
        }
      ],
      "stateMutability": "view",
      "type": "function"
    },
    {
      "inputs": [],
      "name": "getOwner",
      "outputs": [
        {
          "internalType": "address",
          "name": "",
          "type": "address"
        }
      ],
      "stateMutability": "payable",
      "type": "function"
    },
    {
      "inputs": [],
      "name": "renounceOwnership",
      "outputs": [],
      "stateMutability": "payable",
      "type": "function"
    },
    {
      "inputs": [
        {
          "internalType": "address",
          "name": "",
          "type": "address"
        },
        {
          "internalType": "uint256",
          "name": "",
          "type": "uint256"
        }
      ],
      "name": "transactions",
      "outputs": [
        {
          "internalType": "uint256",
          "name": "timestamp",
          "type": "uint256"
        },
        {
          "internalType": "string",
          "name": "description",
          "type": "string"
        },
        {
          "internalType": "uint256",
          "name": "debit",
          "type": "uint256"
        },
        {
          "internalType": "uint256",
          "name": "credit",
          "type": "uint256"
        }
      ],
      "stateMutability": "view",
      "type": "function"
    },
    {
      "inputs": [
        {
          "internalType": "address",
          "name": "newOwner",
          "type": "address"
        }
      ],
      "name": "transferOwnership",
      "outputs": [],
      "stateMutability": "payable",
      "type": "function"
    },
    {
      "stateMutability": "payable",
      "type": "receive"
    },
    {
      "inputs": [],
      "name": "setCurrentRate",
      "outputs": [],
      "stateMutability": "payable",
      "type": "function"
    },
    {
      "inputs": [],
      "name": "currentRate",
      "outputs": [
        {
          "internalType": "uint256",
          "name": "",
          "type": "uint256"
        }
      ],
      "stateMutability": "view",
      "type": "function"
    },
    {
      "inputs": [],
      "name": "setInterestPaymentPeriod",
      "outputs": [],
      "stateMutability": "payable",
      "type": "function"
    },
    {
      "inputs": [],
      "name": "interestPaymentPeriod",
      "outputs": [
        {
          "internalType": "uint256",
          "name": "",
          "type": "uint256"
        }
      ],
      "stateMutability": "view",
      "type": "function"
    },
    {
      "inputs": [
        {
          "internalType": "address",
          "name": "depositor",
          "type": "address"
        }
      ],
      "name": "addDepositor",
      "outputs": [],
      "stateMutability": "payable",
      "type": "function"
    },
    {
      "inputs": [
        {
          "internalType": "address",
          "name": "depositor",
          "type": "address"
        },
        {
          "internalType": "string",
          "name": "description",
          "type": "string"
        }
      ],
      "name": "processBankFee",
      "outputs": [],
      "stateMutability": "payable",
      "type": "function"
    },
    {
      "inputs": [
        {
          "internalType": "address",
          "name": "depositor",
          "type": "address"
        }
      ],
      "name": "payInterest",
      "outputs": [],
      "stateMutability": "payable",
      "type": "function"
    },
    {
      "inputs": [],
      "name": "makeDeposit",
      "outputs": [],
      "stateMutability": "payable",
      "type": "function"
    },
    {
      "inputs": [],
      "name": "makeWithdrawal",
      "outputs": [],
      "stateMutability": "payable",
      "type": "function"
    },
    {
      "inputs": [],
      "name": "getTransactions",
      "outputs": [
        {
          "components": [
            {
              "internalType": "uint256",
              "name": "timestamp",
              "type": "uint256"
            },
            {
              "internalType": "string",
              "name": "description",
              "type": "string"
            },
            {
              "internalType": "uint256",
              "name": "debit",
              "type": "uint256"
            },
            {
              "internalType": "uint256",
              "name": "credit",
              "type": "uint256"
            }
          ],
          "internalType": "struct SavingsAccount.Transaction[]",
          "name": "",
          "type": "tuple[]"
        }
      ],
      "stateMutability": "view",
      "type": "function"
    }
  ],
  "bytecode": "0x608080604052346100805760008054600160a060020a03191633908117825542600155817f8be0079c531659141344cd1fd0a4f28419497f9722a3daafe3b4186f6b6457e08180a3600560035560048055806005558060065580600755806008558060095580600a5580600b55600f553031601055611fa990816100868239f35b600080fdfe60806040526004361015610026575b361561001e5761001c6110c6565b005b61001c611149565b60e060020a6000350463017e66b1811461012957806314538128146101245780633951b4c91461011f57806340732c891461011a578063715018a61461011557806378ab86f5146101105780637a111a121461010b57806383920e90146101065780638478bc2914610101578063893d20e8146100fc578063b8fb3a51146100f7578063d007c644146100f2578063eed75f6d146100ed578063f2fde38b146100e8578063f9f8bdb7146100e35763fc8acba20361000e57610f2d565b610f0f565b610e57565b610e1d565b6109d6565b6109ba565b61096b565b6108e1565b61081a565b6106b6565b610698565b610652565b6105b3565b6104c3565b610438565b6000806003193601126101e05761014b600160a060020a0382541633146111c5565b600134148015906101d5575b80156101ca575b1561016f5761016c34600355565b80f35b60405160e560020a62461bcd02815260206004820152602760248201527f696e746572657374207061796d656e7420706572696f64206973206f7574206f604482015260c860020a66662072616e6765026064820152608490fd5b50600434141561015e565b506002341415610157565b80fd5b60043590600160a060020a03821682036101f957565b600080fd5b600160a060020a0316600090815260116020526040902090565b600160a060020a0316600090815260126020526040902090565b600160a060020a0316600090815260136020526040902090565b60e060020a634e487b710260009081526032600452602490fd5b80541561027b57600052602060002090600090565b61024c565b805482101561027b576000526004602060002091020190600090565b90600160028304921680156102d1575b60208310146102b757565b60e060020a634e487b710260009081526022600452602490fd5b91607f16916102ac565b60e060020a634e487b710260009081526041600452602490fd5b608081019081106001604060020a0382111761031057604052565b6102db565b604081019081106001604060020a0382111761031057604052565b601f909101601f19168101906001604060020a0382119082101761031057604052565b90604051918260008254926103678461029c565b9081845260019485811690816000146103d65750600114610393575b505061039192500383610330565b565b9093915060005260209081600020936000915b8183106103be57505061039193508201013880610383565b855488840185015294850194879450918301916103a6565b91505061039194506020925060ff191682840152151581028201013880610383565b919082519283825260005b848110610424575050826000602080949584010152601f8019910116010190565b602081830181015184830182015201610403565b346101f95760403660031901126101f9576104516101e3565b600160a060020a031660009081526013602052604090208054602435908110156101f95761047e91610280565b50805461048d60018301610353565b91600360028201549101546104b460405194859485526080602086015260808501906103f8565b91604084015260608301520390f35b6000806003193601126101e0578034156104dd8115611435565b6104f16104e9336101fe565b5415156115b2565b6105243461051d61051161050433610218565b546001608060020a031690565b6001608060020a031690565b101561163c565b6105313460105411611681565b6105493461054461051161050433610218565b611e12565b5061058061055633610232565b61055e611262565b9042825261056a6116e6565b60208301523460408301528460608301526112f1565b81906105aa575b8180809234903390f1156105a5576105a134601054611e12565b5080f35b611630565b506108fc610587565b6000806003193601126101e0578034156105cd8115611435565b6105d96104e9336101fe565b6105f1346105ec61051161050433610218565b611dbd565b506106286105fe33610232565b610606611262565b90428252610612611601565b60208301528460408301523460608301526112f1565b8190610649575b8180809234903090f1156105a5576105a134601054611dbd565b506108fc61062f565b6000806003193601126101e057805481600160a060020a038216610677338214611179565b600080516020611f548339815191528280a3600160a060020a031916815580f35b346101f95760003660031901126101f9576020600454604051908152f35b60403660031901126101f9576106ca6101e3565b6024356001604060020a038082116101f957366023830112156101f95781600401359081116101f95736602482840101116101f95761078591600160a060020a0360009461071c8287541633146111c5565b610727341515611435565b16808552601260205260408520546107499034906001608060020a0316611e12565b508452601360205261076f6040852091610761611262565b934285526024369201611491565b60208301523460408301528360608301526112f1565b6105a134601054611dbd565b602080820190808352835180925260409283810182858186028401019601946000925b8584106107c5575050505050505090565b909192939495968580600192603f198582030187528a5190815181526107f783830151608080868501528301906103f8565b9187810151888301526060809101519101529901940194019295949391906107b4565b346101f9576000806003193601126101e057338152602090601182526040916108478383205415156115b2565b338252601381528282208054909290916001604060020a0383116103105784519391610877848302830186610330565b8385529182528082208185015b84841061089c578651806108988882610791565b0390f35b60048360019289516108ad816102f5565b855481526108bc858701610353565b8382015260028601548b82015260038601546060820152815201920193019290610884565b6000806003193601126101e057610903600160a060020a0382541633146111c5565b3415610910573460045580f35b60405160e560020a62461bcd02815260206004820152602760248201527f496e7465726573742072617465206d7573742062652067726561746572207468604482015260c860020a66616e207a65726f026064820152608490fd5b60003660031901126101f957600154601e81018091116109b55761099990421161099481611066565b611066565b42600155600054604051600160a060020a039091168152602090f35b61101f565b346101f95760003660031901126101f9576020604051601e8152f35b6020806003193601126101f9576109eb6101e3565b90600091610a04600160a060020a0384541633146111c5565b610a0d81610232565b54908391610a34610a2a610a2f610a2342611cb4565b600e559092565b600d55565b600c55565b610b03610afe610af9600c610a64610a5f8254610a59610a5382611730565b916117e2565b906114e6565b600555565b610a83610a7e8254610a59610a7882611875565b916118ce565b600655565b610aa2610a9d8254610a59610a9782611940565b91611994565b600755565b610ac1610abc8254610a59610ab682611a00565b91611a54565b600855565b610ada610ad58254610a59610a7882611730565b600955565b610af3610aee8254610a59610ab682611940565b600a55565b546114d7565b611a54565b600b55565b80610d50575b508115610d35575b610b1d61050482610218565b91610b4b60035493610b3c610b356004548097611f01565b6064900490565b906001608060020a0316611e70565b9260018103610bd15750421180610bc6575b610b68575b50505080f35b610bbd92610b8c82610b86856105ec610511610504610bb598610218565b50610232565b610b94611262565b91428352610ba0611583565b908301528560408301528360608301526112f1565b600f54611dbd565b50388080610b62565b50600b544211610b5d565b60028103610c2c575042118080610c21575b15610c0757506105a192610b8c82610b86856105ec610511610504610bb598610218565b80610c1657610b685750505080f35b506009544211610b5d565b50600b544211610be3565b600414610c3b575b5050505080f35b42118080610d2a575b15610c735750610c6892610b8c82610b86856105ec610511610504610bb598610218565b505b38808080610c34565b8080610d1f575b15610ca45750610c9e92610b8c82610b86856105ec610511610504610bb598610218565b50610c6a565b8080610d14575b15610ccf5750610c9e92610b8c82610b86856105ec610511610504610bb598610218565b80610d09575b610ce2575b505050610c6a565b610d0092610b8c82610b86856105ec610511610504610bb598610218565b50388080610cda565b506005544211610cd5565b506006544211610cab565b506007544211610c7a565b50600b544211610c44565b9050610d48610d4382610232565b610266565b505490610b11565b805b818111610d5f5750610b09565b610d7181610d6c85610232565b610280565b50610d8b600160409283519283918a830193849101611500565b0391610d9f601f1993848101835282610330565b5190209151610ddc8882019282610dd085601090608260020a6f12539511549154d508141056535153950281520190565b03908101835282610330565b5190201480610e15575b610df9575b610df4906114f3565b610d52565b9250610df4610e0b84610d6c85610232565b5054939050610deb565b508315610de6565b346101f95760203660031901126101f957600160a060020a03610e3e6101e3565b1660005260116020526020604060002054604051908152f35b60203660031901126101f957610e6b6101e3565b600080549091600160a060020a038083169291610e89338514611179565b16918215610eb5578290600080516020611f548339815191528580a3600160a060020a03191617815580f35b60405160e560020a62461bcd02815260206004820152602660248201527f4f776e61626c653a206e6577206f776e657220697320746865207a65726f2061604482015260d060020a65646472657373026064820152608490fd5b346101f95760003660031901126101f9576020600354604051908152f35b60203660031901126101f957610f416101e3565b600054600160a060020a0390610f5a90821633146111c5565b811615610fd757610fac81610f7b610f7461001c946101fe565b5415611214565b610f8d610f87826101fe565b60019055565b610b86610f9c61050483610218565b34906001608060020a0316611dbd565b610fb4611262565b90428252610fc061126f565b6020830152600060408301523460608301526112f1565b60405160e560020a62461bcd02815260206004820181905260248201527f4465706f7369746f722063616e6e6f74206265206e756c6c20616464726573736044820152606490fd5b60e060020a634e487b710260009081526011600452602490fd5b90603b82018092116109b557565b906201437082018092116109b557565b90610dd482018092116109b557565b1561106d57565b60405160e560020a62461bcd0281526020600482015260106024820152608160020a6f3930ba32903634b6b4ba1032b93937b9026044820152606490fd5b600160a060020a039091168152602081019190915260400190565b333203611102577f26875833861a2b006512a11f1b86edf95df96131040f3caeed72989ee9858083604051806110fd3433836110ab565b0390a1565b60405160e560020a62461bcd0281526020600482015260196024820152603860020a787068697368696e672061747461636b2064657465637465643f026044820152606490fd5b7fcc85d09d309785db93d6df19917f2e6cc07fe27cd01c08c8279145deb5cf4526604051806110fd3433836110ab565b1561118057565b60405160e560020a62461bcd0281526020600482015260176024820152604960020a7630b1b1b2b9b9903232b734b2b2103337b91037bbb732b9026044820152606490fd5b156111cc57565b60405160e560020a62461bcd02815260206004820152601b60248201527f756e617574686f72697a65642c206e6f7420746865206f776e657200000000006044820152606490fd5b1561121b57565b60405160e560020a62461bcd0281526020600482015260196024820152603860020a784465706f7369746f7220616c72656164792065786973747321026044820152606490fd5b60405190610391826102f5565b6040519061127c82610315565b600f8252608a60020a6e13d41153925391c811115413d4d255026020830152565b90601f81116112ab57505050565b60009182526020822090602080601f860104830194106112e7575b601f602091010401915b8281106112dc57505050565b8181556001016112d0565b90925082906112c6565b908154604060020a81101561031057611311906001938482018155610280565b92909261141b5781518355602080830151805183860193909291906001604060020a0384116103105761134e84611348875461029c565b8761129d565b82601f85116001146113a157505091806060949260039694600092611396575b5050816002029160080260020a6000190419161790555b604081015160028501550151910155565b01519050388061136e565b91601f949391941984166113ba87600052602060002090565b936000905b8282106114045750509260029285926060989660039a9896106113e9575b50505002019055611385565b01516008601f841602840a60001904191690553880806113dd565b8088869782949787015181550196019401906113bf565b60e060020a634e487b710260009081526004819052602490fd5b1561143c57565b60405160e560020a62461bcd02815260206004820152602160248201527f416d6f756e742063616e6e6f74206265206e65676174697665206f72207a6572604482015260f860020a606f026064820152608490fd5b9192916001604060020a03821161031057604051916114ba601f8201601f191660200184610330565b8294818452818301116101f9578281602093846000960137010152565b6000198101919082116109b557565b919082039182116109b557565b80156109b5576000190190565b60009291815461150f8161029c565b92600191808316908115611568575060011461152c575b50505050565b90919293945060005260209081600020906000915b8583106115575750505050019038808080611526565b805485840152918301918101611541565b60ff1916845250505081151590910201915038808080611526565b6040519061159082610315565b60108252608260020a6f12539511549154d50814105653515395026020830152565b156115b957565b60405160e560020a62461bcd02815260206004820152601a60248201527f4465706f7369746f7220646f6573206e6f7420657869737473210000000000006044820152606490fd5b6040519061160e82610315565b60108252608260020a6f10d554d513d351548811115413d4d255026020830152565b6040513d6000823e3d90fd5b1561164357565b60405160e560020a62461bcd0281526020600482015260106024820152608060020a6f4e6f7420656e6f756768206d6f6e6579026044820152606490fd5b1561168857565b60405160e560020a62461bcd02815260206004820152602a60248201527f4e6f7420656e6f75676820636f6e74726163742062616c616e636520666f7220604482015260b260020a691dda5d1a191c985dd85b026064820152608490fd5b604051906116f382610315565b60138252606a60020a7210d554d513d351548815d2551211149055d053026020830152565b9062015180918281029281840414901517156109b557565b6107b281106101f95761174281611b00565b906000199182810190600084831291129080158216911516176109b557600461176d61177392611c16565b05611bb0565b9061015091600083820193841291129080158216911516176109b55761179890611b1e565b600083820193841291129080158216911516176109b5576117d56117da916117cf6117c860646117df9605611c28565b6004900590565b90611ae7565b611ac1565b611718565b90565b6107b281106101f9576117f481611b00565b600081128015166109b557600461180d61181392611c16565b05611bc4565b90601e8201916000601e841291129080158216911516176109b55761186b6118666117da6117d56117df95600461185f60646118596118546118709a611b1e565b611bd8565b05611c28565b0590611ae7565b611047565b611057565b611039565b6107b281106101f957611897600461176d61189261185485611b00565b611c16565b603d8101906000603d831291129080158216911516176109b5576117d56117da91600461185f60646118596118546117df98611b1e565b6107b281106101f9576118e081611b00565b600081128015166109b55760046118f96118ff92611c16565b05611be6565b90607a8201916000607a841291129080158216911516176109b55761186b6118666117da6117d56117df95600461185f60646118596118546118709a611b1e565b6107b281106101f95761195d600461176d61189261185485611b00565b609881019060006098831291129080158216911516176109b5576117d56117da91600461185f60646118596118546117df98611b1e565b6107b281106101f9576119a681611b00565b600081128015166109b55760046118f96119bf92611c16565b9060d6820191600060d6841291129080158216911516176109b55761186b6118666117da6117d56117df95600461185f60646118596118546118709a611b1e565b6107b281106101f957611a1d600461176d61189261185485611b00565b60f4810190600060f4831291129080158216911516176109b5576117d56117da91600461185f60646118596118546117df98611b1e565b6107b281106101f957611a6681611b00565b600081128015166109b557600461180d611a7f92611c16565b9061013191600083820193841291129080158216911516176109b55761186b6118666117da6117d56117df95600461185f60646118596118546118709a611b1e565b9062253d8b1982019182136001166109b557565b9060301982019182136001166109b557565b818103929160001380158285131691841216176109b557565b906112c091600083820193841291129080158216911516176109b557565b9061132491600083820193841291129080158216911516176109b557565b90600382019160006003841291129080158216911516176109b557565b90600182019160006001841291129080158216911516176109b557565b90601f8201916000601f841291129080158216911516176109b557565b90600282019160006002841291129080158216911516176109b557565b9081617d491901918212156001166109b557565b9081617d2b1901918212156001166109b557565b90600082128015166109b557565b9081617d2c1901918212156001166109b557565b919091600083820193841291129080158216911516176109b557565b906105b591808302928305036109b557565b90816003029160038305036109b557565b90816004029160048305036109b557565b9062023ab191808302928305036109b557565b90610fa091808302928305036109b557565b90816050029160508305036109b557565b9061098f91808302928305036109b557565b9081600c0291600c8305036109b557565b90816064029160648305036109b557565b62015180900462010bd990818101918212600082129080158216911516176109b557622649650190600062253d8c831291129080158216911516176109b557611d20611d0b611d0283611c39565b62023ab1900590565b916117cf6117c8611d1b85611c4a565b611b3c565b90611db7611d59611d54611d47611d3e611d3987611b59565b611c5d565b62164b09900590565b946117cf6117c887611c16565b611b76565b611db2611d87611d73611d6b84611c6f565b61098f900590565b926117cf611d8085611c80565b6050900590565b94611db2611dad611da7611d9e600b870596611b93565b6117cf87611c92565b96611ad5565b611ca3565b611bfa565b91909192565b908101908110611dca5790565b60405160e560020a62461bcd02815260206004820152601b60248201527f536166654d6174683a206164646974696f6e206f766572666c6f7700000000006044820152606490fd5b808211611e285781810391190181036101f95790565b60405160e560020a62461bcd02815260206004820152601e60248201527f536166654d6174683a207375627472616374696f6e206f766572666c6f7700006044820152606490fd5b90808202918082840414158215176101f9578015611ee757820403611e925790565b60405160e560020a62461bcd02815260206004820152602160248201527f536166654d6174683a206d756c7469706c69636174696f6e206f766572666c6f604482015260f860020a6077026064820152608490fd5b60e060020a634e487b710260009081526012600452602490fd5b8115611f0b570490565b60405160e560020a62461bcd02815260206004820152601a60248201527f536166654d6174683a206469766973696f6e206279207a65726f0000000000006044820152606490fdfe8be0079c531659141344cd1fd0a4f28419497f9722a3daafe3b4186f6b6457e0a26469706673582212205ce2e1eb229c843bf8182b3f37f18cadd07731cfb7ac2c931dac8fc5955dcaa764736f6c63430008120033",
  "immutableReferences": {},
  "source": "// SPDX-License-Identifier: CC-BY-4.0\r\npragma solidity >=0.4.22 <0.9.0;\r\nimport \"../../libs/SafeMath.sol\";\r\nimport \"../../libs/DateTime.sol\";\r\nimport \"../../common/Owned.sol\";\r\n\r\ncontract SavingsAccount is Owned {\r\n\r\n    uint private INTEREST_RATE = 5; // percentages are represented as whole numbers\r\n    uint private INTEREST_PAYMENT_PERIODS = 4; // 1=annually, 2=bi-annually, 4=quarterly\r\n\r\n    uint256 private FIRST_QUARTER = 0; // Jan 1 00:00:00 - Mar 31 23:59:59\r\n    uint256 private SECOND_QUARTER = 0; // Apr 1 00:00:00 - Jun 30 23:59:59\r\n    uint256 private THIRD_QUARTER = 0; // Jul 1 00:00:00 - Sep 30 23:59:59\r\n    uint256 private FORTH_QUARTER = 0; // Oct 1 00:00:00 - Dec 31 23:59:59\r\n\r\n    uint256 private FIRST_HALF = 0; // Jan 1 00:00:00 - Jun 30 23:59:59\r\n    uint256 private SECOND_HALF = 0; // Jul 1 00:00:00 - Dec 31 23:59:59\r\n\r\n    uint256 private PREVIOUS_YEAR = 0;\r\n\r\n    uint256 private year;\r\n    uint256 private month;\r\n    uint256 private day;\r\n\r\n    uint256 private total_interest_paid_pending;\r\n    uint256 private contract_balance;\r\n\r\n    struct Deposit {\r\n        uint128 balance;\r\n    }\r\n\r\n    /**\r\n     * Since solidity does not handle decimals, all numbers are normalized * 100\r\n     */\r\n    struct Transaction {\r\n        uint256 timestamp;\r\n        string  description;\r\n        uint256 debit;\r\n        uint256 credit;\r\n    }\r\n\r\n    mapping(address => uint256) public depositors;\r\n    mapping(address => Deposit) private balances;\r\n    mapping(address => Transaction[]) public transactions;\r\n\r\n    constructor() {\r\n        total_interest_paid_pending = 0;\r\n        contract_balance = address(this).balance;\r\n    }\r\n\r\n    /**\r\n     * ADMINISTRATOR OPERATIONS\r\n     */\r\n    function setCurrentRate() public payable okOwner {\r\n        require(msg.value != 1 || msg.value != 2 || msg.value != 4, \"interest payment period is out of range\");\r\n        INTEREST_RATE = msg.value;\r\n    }\r\n\r\n    function currentRate() public view returns(uint256) {\r\n        return INTEREST_RATE;\r\n    }\r\n\r\n    function setInterestPaymentPeriod() public payable okOwner {\r\n        require(msg.value > 0, \"Interest rate must be greater than zero\");\r\n        INTEREST_PAYMENT_PERIODS = msg.value;\r\n    }\r\n\r\n    function interestPaymentPeriod() public view returns(uint256) {\r\n        return INTEREST_PAYMENT_PERIODS;\r\n    }\r\n\r\n    function addDepositor(address depositor) public payable okOwner {\r\n        require(depositor != address(0), \"Depositor cannot be null address\");\r\n        require(depositors[depositor] == 0, \"Depositor already exists!\");\r\n        depositors[depositor] = 1;\r\n        SafeMath.safeAdd(balances[depositor].balance, msg.value);\r\n        transactions[depositor].push(Transaction(block.timestamp, \"OPENING DEPOSIT\", 0, msg.value));\r\n    }\r\n\r\n    function processBankFee(address depositor, string calldata description) public payable okOwner {\r\n        require(msg.value > 0, \"Amount cannot be negative or zero\");\r\n        SafeMath.safeSub(balances[depositor].balance, msg.value);\r\n        transactions[depositor].push(Transaction(block.timestamp, description, msg.value, 0));\r\n        SafeMath.safeAdd(contract_balance, msg.value);\r\n    }\r\n\r\n    function payInterest(address depositor) public payable okOwner {\r\n        uint count = transactions[depositor].length;\r\n        uint256 lastPayment = 0;\r\n\r\n        uint today = block.timestamp;\r\n\r\n        (year, month, day) = DateTime.timestampToDate(today);\r\n        FIRST_QUARTER = DateTime.timestampFromDateTime(year,1,1,0,0,0) - DateTime.timestampFromDateTime(year,3,31,23,59,59);\r\n        SECOND_QUARTER = DateTime.timestampFromDateTime(year,4,1,0,0,0) - DateTime.timestampFromDateTime(year,6,30,23,59,59);\r\n        THIRD_QUARTER = DateTime.timestampFromDateTime(year,7,1,0,0,0) - DateTime.timestampFromDateTime(year,9,30,23,59,59);\r\n        FORTH_QUARTER = DateTime.timestampFromDateTime(year,10,1,0,0,0) - DateTime.timestampFromDateTime(year,12,31,23,59,59);\r\n\r\n        FIRST_HALF = DateTime.timestampFromDateTime(year,1,1,0,0,0) - DateTime.timestampFromDateTime(year,6,30,23,59,59);\r\n        SECOND_HALF = DateTime.timestampFromDateTime(year,7,1,0,0,0) - DateTime.timestampFromDateTime(year,12,31,23,59,59);\r\n\r\n        PREVIOUS_YEAR = DateTime.timestampFromDateTime(year-1,12,31,23,59,59);\r\n\r\n        if (count > 0) {\r\n            for (uint i=count; i>count; i--) {\r\n                if (keccak256(abi.encodePacked(transactions[depositor][i].description)) == keccak256(abi.encodePacked(\"INTEREST PAYMENT\")) && lastPayment == 0) {\r\n                    lastPayment = transactions[depositor][i].timestamp;\r\n                }\r\n            }\r\n        }\r\n\r\n        if (lastPayment == 0) {\r\n            // If no interest payment transaction, then grab opening date\r\n            lastPayment = transactions[depositor][0].timestamp;\r\n        }\r\n\r\n        uint256 interest = SafeMath.safeMul(balances[depositor].balance,SafeMath.safeDiv(SafeMath.safeDiv(INTEREST_RATE,INTEREST_PAYMENT_PERIODS),100));\r\n        if (INTEREST_PAYMENT_PERIODS == 1) {\r\n            if (today > lastPayment && today > PREVIOUS_YEAR) {\r\n                SafeMath.safeAdd(balances[depositor].balance, interest);\r\n                transactions[depositor].push(Transaction(block.timestamp, \"INTEREST PAYMENT\", 0, interest));\r\n                SafeMath.safeAdd(total_interest_paid_pending, interest);\r\n            }\r\n        } else if (INTEREST_PAYMENT_PERIODS == 2) {\r\n            if (today > lastPayment && today > PREVIOUS_YEAR) {\r\n                SafeMath.safeAdd(balances[depositor].balance, interest);\r\n                transactions[depositor].push(Transaction(block.timestamp, \"INTEREST PAYMENT\", 0, interest));\r\n                SafeMath.safeAdd(total_interest_paid_pending, interest);\r\n            } else if (today > lastPayment && today > FIRST_HALF) {\r\n                SafeMath.safeAdd(balances[depositor].balance, interest);\r\n                transactions[depositor].push(Transaction(block.timestamp, \"INTEREST PAYMENT\", 0, interest));\r\n                SafeMath.safeAdd(total_interest_paid_pending, interest);\r\n            }\r\n        } else if (INTEREST_PAYMENT_PERIODS == 4) {\r\n            if (today > lastPayment && today > PREVIOUS_YEAR) {\r\n                SafeMath.safeAdd(balances[depositor].balance, interest);\r\n                transactions[depositor].push(Transaction(block.timestamp, \"INTEREST PAYMENT\", 0, interest));\r\n                SafeMath.safeAdd(total_interest_paid_pending, interest);\r\n            } else if (today > lastPayment && today > THIRD_QUARTER) {\r\n                SafeMath.safeAdd(balances[depositor].balance, interest);\r\n                transactions[depositor].push(Transaction(block.timestamp, \"INTEREST PAYMENT\", 0, interest));\r\n                SafeMath.safeAdd(total_interest_paid_pending, interest);\r\n            } else if (today > lastPayment && today > SECOND_QUARTER) {\r\n                SafeMath.safeAdd(balances[depositor].balance, interest);\r\n                transactions[depositor].push(Transaction(block.timestamp, \"INTEREST PAYMENT\", 0, interest));\r\n                SafeMath.safeAdd(total_interest_paid_pending, interest);\r\n            } else if (today > lastPayment && today > FIRST_QUARTER) {\r\n                SafeMath.safeAdd(balances[depositor].balance, interest);\r\n                transactions[depositor].push(Transaction(block.timestamp, \"INTEREST PAYMENT\", 0, interest));\r\n                SafeMath.safeAdd(total_interest_paid_pending, interest);\r\n            }\r\n        }\r\n    }\r\n\r\n    /**\r\n     * CUSTOMER/DEPOSITOR OPEATIONS\r\n     */\r\n    function makeDeposit() public payable {\r\n        require(msg.value > 0, \"Amount cannot be negative or zero\");\r\n        require(depositors[msg.sender] != 0, \"Depositor does not exists!\");\r\n        SafeMath.safeAdd(balances[msg.sender].balance, msg.value);\r\n        transactions[msg.sender].push(Transaction(block.timestamp, \"CUSTOMER DEPOSIT\", 0, msg.value));\r\n        payable(address(this)).transfer(msg.value);\r\n        SafeMath.safeAdd(contract_balance, msg.value);\r\n    }\r\n\r\n    function makeWithdrawal() public payable {\r\n        require(msg.value > 0, \"Amount cannot be negative or zero\");\r\n        require(depositors[msg.sender] != 0, \"Depositor does not exists!\");\r\n        require(balances[msg.sender].balance >= msg.value, \"Not enough money\");\r\n        require(contract_balance > msg.value, \"Not enough contract balance for withdrawal\");\r\n        SafeMath.safeSub(balances[msg.sender].balance, msg.value);\r\n        transactions[msg.sender].push(Transaction(block.timestamp, \"CUSTOMER WITHDRAWAL\", msg.value, 0));\r\n        payable(msg.sender).transfer(msg.value);\r\n        SafeMath.safeSub(contract_balance, msg.value);\r\n    }\r\n\r\n    function getTransactions() public view returns(Transaction[] memory) {\r\n        require(depositors[msg.sender] != 0, \"Depositor does not exists!\");\r\n        return transactions[msg.sender];\r\n    }\r\n}",
  "sourcePath": "/Volumes/HOME/pingleware-contracts/contracts/finance/banking/SavingsAccount..sol",
  "compiler": {
    "name": "solc",
    "version": "0.8.18+commit.87f61d96.Emscripten.clang"
  },
  "schemaVersion": "3.4.12",
  "updatedAt": "2024-05-23T18:56:25.346Z",
  "devdoc": {
    "kind": "dev",
    "methods": {
      "renounceOwnership()": {
        "details": "Leaves the contract without owner. It will not be possible to call `onlyOwner` functions anymore. Can only be called by the current owner. NOTE: Renouncing ownership will leave the contract without an owner, thereby removing any functionality that is only available to the owner."
      },
      "transferOwnership(address)": {
        "details": "Transfers ownership of the contract to a new account (`newOwner`). Can only be called by the current owner."
      }
    },
    "version": 1
  },
  "userdoc": {
    "kind": "user",
    "methods": {
      "makeDeposit()": {
        "notice": "CUSTOMER/DEPOSITOR OPEATIONS"
      },
      "setCurrentRate()": {
        "notice": "ADMINISTRATOR OPERATIONS"
      }
    },
    "version": 1
  }
}