{
  "contractName": "SCOTUS",
  "abi": [
    {
      "inputs": [
        {
          "internalType": "address",
          "name": "_chiefJustice",
          "type": "address"
        },
        {
          "internalType": "address[]",
          "name": "_associateJustices",
          "type": "address[]"
        }
      ],
      "stateMutability": "nonpayable",
      "type": "constructor"
    },
    {
      "anonymous": false,
      "inputs": [
        {
          "indexed": false,
          "internalType": "string",
          "name": "caseIndex",
          "type": "string"
        },
        {
          "indexed": false,
          "internalType": "address",
          "name": "judge",
          "type": "address"
        }
      ],
      "name": "CaseAssignedJudge",
      "type": "event"
    },
    {
      "anonymous": false,
      "inputs": [
        {
          "indexed": false,
          "internalType": "string",
          "name": "caseId",
          "type": "string"
        },
        {
          "indexed": false,
          "internalType": "string",
          "name": "decision",
          "type": "string"
        }
      ],
      "name": "CaseDecided",
      "type": "event"
    },
    {
      "anonymous": false,
      "inputs": [
        {
          "indexed": false,
          "internalType": "string",
          "name": "caseId",
          "type": "string"
        },
        {
          "indexed": false,
          "internalType": "address",
          "name": "petitioner",
          "type": "address"
        },
        {
          "indexed": false,
          "internalType": "address",
          "name": "respondent",
          "type": "address"
        },
        {
          "indexed": false,
          "internalType": "string",
          "name": "caseTitle",
          "type": "string"
        }
      ],
      "name": "CaseFiled",
      "type": "event"
    },
    {
      "anonymous": false,
      "inputs": [
        {
          "indexed": false,
          "internalType": "string",
          "name": "caseIndex",
          "type": "string"
        },
        {
          "indexed": false,
          "internalType": "address",
          "name": "representative",
          "type": "address"
        }
      ],
      "name": "LegalRepresentativeAssigned",
      "type": "event"
    },
    {
      "anonymous": false,
      "inputs": [
        {
          "indexed": false,
          "internalType": "string",
          "name": "caseIndex",
          "type": "string"
        },
        {
          "indexed": false,
          "internalType": "address",
          "name": "plaintiff",
          "type": "address"
        },
        {
          "indexed": false,
          "internalType": "address",
          "name": "defendant",
          "type": "address"
        },
        {
          "indexed": false,
          "internalType": "string",
          "name": "description",
          "type": "string"
        }
      ],
      "name": "NewCaseCreated",
      "type": "event"
    },
    {
      "inputs": [
        {
          "internalType": "string",
          "name": "_caseIndex",
          "type": "string"
        },
        {
          "internalType": "address",
          "name": "_judge",
          "type": "address"
        }
      ],
      "name": "assignJudge",
      "outputs": [],
      "stateMutability": "nonpayable",
      "type": "function"
    },
    {
      "inputs": [
        {
          "internalType": "string",
          "name": "_caseIndex",
          "type": "string"
        },
        {
          "internalType": "address",
          "name": "_representative",
          "type": "address"
        }
      ],
      "name": "assignLegalRepresentative",
      "outputs": [],
      "stateMutability": "nonpayable",
      "type": "function"
    },
    {
      "inputs": [
        {
          "internalType": "string",
          "name": "",
          "type": "string"
        }
      ],
      "name": "assignedJudge",
      "outputs": [
        {
          "internalType": "address",
          "name": "",
          "type": "address"
        }
      ],
      "stateMutability": "view",
      "type": "function"
    },
    {
      "inputs": [
        {
          "internalType": "uint256",
          "name": "",
          "type": "uint256"
        }
      ],
      "name": "associateJustices",
      "outputs": [
        {
          "internalType": "address",
          "name": "",
          "type": "address"
        }
      ],
      "stateMutability": "view",
      "type": "function"
    },
    {
      "inputs": [],
      "name": "caseCounter",
      "outputs": [
        {
          "internalType": "uint256",
          "name": "",
          "type": "uint256"
        }
      ],
      "stateMutability": "view",
      "type": "function"
    },
    {
      "inputs": [
        {
          "internalType": "string",
          "name": "",
          "type": "string"
        }
      ],
      "name": "cases",
      "outputs": [
        {
          "internalType": "string",
          "name": "index",
          "type": "string"
        },
        {
          "internalType": "address",
          "name": "plaintiff",
          "type": "address"
        },
        {
          "internalType": "address",
          "name": "defendant",
          "type": "address"
        },
        {
          "internalType": "string",
          "name": "description",
          "type": "string"
        },
        {
          "internalType": "uint256",
          "name": "filingDate",
          "type": "uint256"
        },
        {
          "internalType": "enum Case.CaseStatus",
          "name": "status",
          "type": "uint8"
        },
        {
          "internalType": "string",
          "name": "decision",
          "type": "string"
        }
      ],
      "stateMutability": "view",
      "type": "function"
    },
    {
      "inputs": [
        {
          "internalType": "string",
          "name": "_caseIndex",
          "type": "string"
        }
      ],
      "name": "checkAssignedAttorney",
      "outputs": [
        {
          "internalType": "bool",
          "name": "",
          "type": "bool"
        }
      ],
      "stateMutability": "view",
      "type": "function"
    },
    {
      "inputs": [],
      "name": "chiefJustice",
      "outputs": [
        {
          "internalType": "address",
          "name": "",
          "type": "address"
        }
      ],
      "stateMutability": "view",
      "type": "function"
    },
    {
      "inputs": [
        {
          "internalType": "string",
          "name": "_caseIndex",
          "type": "string"
        },
        {
          "internalType": "string",
          "name": "decision",
          "type": "string"
        }
      ],
      "name": "closeCase",
      "outputs": [],
      "stateMutability": "nonpayable",
      "type": "function"
    },
    {
      "inputs": [
        {
          "internalType": "address",
          "name": "_plaintiff",
          "type": "address"
        },
        {
          "internalType": "address",
          "name": "_defendant",
          "type": "address"
        },
        {
          "internalType": "string",
          "name": "_description",
          "type": "string"
        }
      ],
      "name": "createCase",
      "outputs": [
        {
          "internalType": "string",
          "name": "",
          "type": "string"
        }
      ],
      "stateMutability": "nonpayable",
      "type": "function"
    },
    {
      "inputs": [
        {
          "internalType": "address",
          "name": "defendant",
          "type": "address"
        }
      ],
      "name": "getCaseIndexByDefendant",
      "outputs": [
        {
          "internalType": "string",
          "name": "",
          "type": "string"
        }
      ],
      "stateMutability": "view",
      "type": "function"
    },
    {
      "inputs": [
        {
          "internalType": "string",
          "name": "_caseIndex",
          "type": "string"
        }
      ],
      "name": "getCaseInfo",
      "outputs": [
        {
          "components": [
            {
              "internalType": "string",
              "name": "index",
              "type": "string"
            },
            {
              "internalType": "address",
              "name": "plaintiff",
              "type": "address"
            },
            {
              "internalType": "address",
              "name": "defendant",
              "type": "address"
            },
            {
              "internalType": "string",
              "name": "description",
              "type": "string"
            },
            {
              "internalType": "uint256",
              "name": "filingDate",
              "type": "uint256"
            },
            {
              "internalType": "enum Case.CaseStatus",
              "name": "status",
              "type": "uint8"
            },
            {
              "internalType": "string",
              "name": "decision",
              "type": "string"
            }
          ],
          "internalType": "struct Case.CaseRecord",
          "name": "",
          "type": "tuple"
        }
      ],
      "stateMutability": "view",
      "type": "function"
    },
    {
      "inputs": [
        {
          "internalType": "string",
          "name": "_caseIndex",
          "type": "string"
        }
      ],
      "name": "getCaseStatus",
      "outputs": [
        {
          "internalType": "enum Case.CaseStatus",
          "name": "",
          "type": "uint8"
        }
      ],
      "stateMutability": "view",
      "type": "function"
    },
    {
      "inputs": [
        {
          "internalType": "string",
          "name": "_caseIndex",
          "type": "string"
        }
      ],
      "name": "isCaseResolved",
      "outputs": [
        {
          "internalType": "bool",
          "name": "",
          "type": "bool"
        }
      ],
      "stateMutability": "view",
      "type": "function"
    },
    {
      "inputs": [
        {
          "internalType": "string",
          "name": "",
          "type": "string"
        },
        {
          "internalType": "uint256",
          "name": "",
          "type": "uint256"
        }
      ],
      "name": "legalRepresentatives",
      "outputs": [
        {
          "internalType": "address",
          "name": "",
          "type": "address"
        }
      ],
      "stateMutability": "view",
      "type": "function"
    },
    {
      "inputs": [
        {
          "internalType": "address",
          "name": "account",
          "type": "address"
        }
      ],
      "name": "isJustice",
      "outputs": [
        {
          "internalType": "bool",
          "name": "",
          "type": "bool"
        }
      ],
      "stateMutability": "view",
      "type": "function"
    },
    {
      "inputs": [
        {
          "internalType": "address",
          "name": "respondent",
          "type": "address"
        },
        {
          "internalType": "string",
          "name": "caseTitle",
          "type": "string"
        }
      ],
      "name": "fileCase",
      "outputs": [],
      "stateMutability": "nonpayable",
      "type": "function"
    },
    {
      "inputs": [
        {
          "internalType": "string",
          "name": "caseId",
          "type": "string"
        },
        {
          "internalType": "string",
          "name": "decision",
          "type": "string"
        }
      ],
      "name": "decideCase",
      "outputs": [],
      "stateMutability": "nonpayable",
      "type": "function"
    }
  ],
  "bytecode": "0x6080604052346200019b5762001c8f803803806200001d81620001a0565b9283398101906040818303126200019b576200003981620001c6565b602092838301516001604060020a03938482116200019b57019080601f830112156200019b57815190848211620001525785820292866200007c818601620001a0565b80948152018781958301019283116200019b5787809201905b8382106200018157505060058054600160a060020a031916600160a060020a03968716179055505051928311620001525768010000000000000000831162000152576006548360065580841062000126575b509060066000528360002060005b848110620001115760008055604051611ab39081620001dc8239f35b835183168282015592850192600101620000f5565b6000600681528486822092830192015b82811062000146575050620000e7565b81815560010162000136565b7f4e487b7100000000000000000000000000000000000000000000000000000000600052604160045260246000fd5b8280916200018f84620001c6565b81520191019062000095565b600080fd5b6040519190601f01601f191682016001604060020a038111838210176200015257604052565b5190600160a060020a03821682036200019b5756fe60406080815260048036101561001457600080fd5b60009060e060020a8235046307c272828114610b885780630ea4cb3514610b1e57806338e23ad514610af757806343ab8dd314610ada5780634864003f14610a165780635aa0c87d1461081f5780636bfaa515146108045780638d4f291f1461079b578063956048741461075e57806396031062146106f1578063a1bf7369146106a9578063b9340d941461067a578063d75aa15714610613578063da21ad8b146105ea578063df965829146104f4578063e17a703d14610323578063f10dc2e8146101e25763ff501927146100e957600080fd5b346101de57826003193601126101de57610101610e67565b906024356001604060020a0381116101da576101209036908301610dac565b9061012a33611a2a565b1561017557509261016f846101627fac3f31ed3362a8ee6aaec307cb65e27a8cf716f6e7d3adf24e5650112ae4a057959685336111de565b92519384933390856111a1565b0390a180f35b845160e560020a62461bcd028152602091810191909152603060248201527f4f6e6c79204173736f6369617465204a757374696365732063616e20706572666044820152608160020a6f37b936903a3434b99030b1ba34b7b717026064820152608490fd5b8380fd5b5080fd5b50346101de576101f136610e93565b60055491929091600160a060020a031633036102bf57610210836118ab565b61026757509261016f846102467f5eb3938a6b80aba6c1810b442c5c1f4f34baeb26003cb913d474202c74abc1099596856116fd565b6102598351948486958652850190610e1b565b908382036020850152610e1b565b845160e560020a62461bcd028152602091810191909152602360248201527f5468697320636173652068617320616c7265616479206265656e206465636964604482015260e960020a6232b217026064820152608490fd5b845160e560020a62461bcd028152602091810191909152602f60248201527f4f6e6c7920746865204368696566204a7573746963652063616e20706572666f6044820152608960020a6e3936903a3434b99030b1ba34b7b717026064820152608490fd5b5091346101de57806003193601126101de5782356001604060020a0381116104f0576103529036908501610dac565b9061035b610e7d565b815183519160209283860190610372818584610df8565b830160018152600184868260a060020a0396879403019020015416331480156104c7575b1561044d57836103b0918651809381928a51928391610df8565b81016003815203019020805490604060020a821015610437577f224b236d0a25f71407f98f4be8f238b4923010de28942c14866f91f772ef0cb9979850816103fe9160018694018155610f0e565b939092169260088354910260020a809202809285021691191617905561042d8351948486958652850190610e1b565b918301520390a180f35b60e060020a634e487b7102885260418952602488fd5b845160e560020a62461bcd028152808901859052604260248201527f4f6e6c792074686520706c61696e74696666206f7220646566656e64616e742060448201527f63616e2061737369676e2061206c6567616c20726570726573656e7461746976606482015260f160020a61329702608482015260a490fd5b50826002865186818a516104dc818389610df8565b810160018152030190200154163314610396565b8280fd5b509190346105e75760203660031901126105e7578235906001604060020a0382116105e757506105b09261054560206105336105e39436908501610dac565b81865193828580945193849201610df8565b81016001815203019020926105d661055c85610f65565b946105c6600160a060020a0380600184015416906002840154169561058360038501610f65565b908401549661059c600660ff6005880154169601610f65565b9680519b8c9b60e08d5260e08d0190610e1b565b9360208c01528a015288820360608a0152610e1b565b93608087015260a0860190610e40565b83820360c0850152610e1b565b0390f35b80fd5b8284346101de57816003193601126101de576005549051600160a060020a039091168152602090f35b509190346105e75760603660031901126105e75761062f610e67565b92610638610e7d565b91604435906001604060020a0382116105e75750916106616105e3959261066794369101610dac565b916111de565b9051918291602083526020830190610e1b565b8284346101de5760203660031901126101de576020906106a061069b610e67565b611a2a565b90519015158152f35b508290346104f05760203660031901126104f05735916006548310156105e757506106d5602092610ed9565b90549151600890910260020a909104600160a060020a03168152f35b508290346104f057816003193601126104f0578035906001604060020a0382116101da5761072191369101610dac565b9161073d60206024359481855193828580945193849201610df8565b810160038152030190209081548410156105e757506020926106d591610f0e565b509190346105e75760203660031901126105e7578235906001604060020a0382116105e757506107966020936106a092369101610dac565b6118ab565b509190346105e75760203660031901126105e7578235906001604060020a0382116105e757506020926107d091369101610dac565b826107e383519283815193849201610df8565b600290820190815281900383019020549051600160a060020a039091168152f35b82346105e75761081c61081636610e93565b906116fd565b80f35b50346101de57826003193601126101de576001604060020a03908035908282116101da57366023830112156101da57818101359283116101da57602482019160248436920101116101da57610872610e7d565b9185518092858383378582016001815260018060a060020a0393849260209788910301902001541633036109be5760ff600589518886823786818a8101600181520301902001541660038110156109a85761096457509286928580936060967f04f0c25d4ee138ed9348d42279193a35ed1fa6ab5c21f93634b88b696510a2f4999a51838382378481858101600281520301902094169384600160a060020a031982541617905560058651838382378481858101600181520301902001600160ff198254161790558551978689978852870152868601378383018501889052830152601f01601f19168101030190a180f35b875160e560020a62461bcd02815290810184905260186024820152604160020a772a34329031b0b9b29034b9903737ba103832b73234b73397026044820152606490fd5b60e060020a634e487b7102885260218252602488fd5b875160e560020a62461bcd028152908101849052602660248201527f4f6e6c792074686520706c61696e746966662063616e2061737369676e206120604482015260d160020a65353ab233b297026064820152608490fd5b5091346101de57602092836003193601126104f05780356001604060020a0381116101da57849391610a4a91369101610dac565b8381019190815b84518251610a60818388610df8565b81019087816003938481520301902054821015610acf5781610a9c9188885180928751610a8e81848d610df8565b820190815203019020610f0e565b9054600890910260020a9004600160a060020a03163314610ac6575b610ac19061100a565b610a51565b60019250610ab8565b868487519015158152f35b8284346101de57816003193601126101de57602091549051908152f35b8284346101de5760203660031901126101de576105e390610667610b19610e67565b6118e4565b509190346105e75760203660031901126105e7578235906001604060020a0382116105e7575060ff6005610b706020610b5e8197610b8696369101610dac565b81875193828580945193849201610df8565b8101600181520301902001541691518092610e40565bf35b5090346105e757602092836003193601126101de5782356001604060020a0381116104f05790610c0485610bc260c0959436908801610dac565b8351610bcd81610d1e565b60609681888093528785820152878782015282808201528760808201528760a0820152015281845193828580945193849201610df8565b8101600181520301902093815194610c1b86610d1e565b610c2481610f65565b86526001810154600160a060020a039081168888019081526002830154821685890190815290969190610c5960038501610f65565b93838a01948552858101549760808b0198895260ff6005830154169060a08c01976003831015610d085750508652600601610c9390610f65565b9560c08a019687528281519b8c9b818d5251908c0160e090526101008c01610cba91610e1b565b995116908a015251169087015251601f199485878203016080880152610cdf91610e1b565b925160a08601525160c08501610cf491610e40565b51918382030160e08401526105e391610e1b565b60e060020a634e487b7102825260219052602490fd5b60e081019081106001604060020a03821117610d3957604052565b60e060020a634e487b710260009081526041600452602490fd5b602081019081106001604060020a03821117610d3957604052565b601f909101601f19168101906001604060020a03821190821017610d3957604052565b6001604060020a038111610d3957601f01601f191660200190565b81601f82011215610df357803590610dc382610d91565b92610dd16040519485610d6e565b82845260208383010111610df357816000926020809301838601378301015290565b600080fd5b60005b838110610e0b5750506000910152565b8181015183820152602001610dfb565b90602091610e3481518092818552858086019101610df8565b601f01601f1916010190565b906003821015610e4d5752565b60e060020a634e487b710260009081526021600452602490fd5b60043590600160a060020a0382168203610df357565b60243590600160a060020a0382168203610df357565b906040600319830112610df3576001604060020a03600435818111610df35783610ebf91600401610dac565b92602435918211610df357610ed691600401610dac565b90565b600654811015610ef457600660005260206000200190600090565b60e060020a634e487b710260009081526032600452602490fd5b8054821015610ef45760005260206000200190600090565b9060016002830492168015610f5b575b6020831014610f4157565b60e060020a634e487b710260009081526022600452602490fd5b91607f1691610f36565b9060405191826000825492610f7984610f26565b908184526001948581169081600014610fe85750600114610fa5575b5050610fa392500383610d6e565b565b9093915060005260209081600020936000915b818310610fd0575050610fa393508201013880610f95565b85548884018501529485019487945091830191610fb8565b915050610fa394506020925060ff191682840152151581028201013880610f95565b60001981146110195760010190565b60e060020a634e487b710260009081526011600452602490fd5b90601f811161104157505050565b60009182526020822090602080601f8601048301941061107d575b601f602091010401915b82811061107257505050565b818155600101611066565b909250829061105c565b906003811015610e4d5760ff80198354169116179055565b600454811015610ef45760046000526007602060002091020190600090565b9080821461119d576110d08154610f26565b906001604060020a038211610d395781906110f5826110ef8654610f26565b86611033565b600090601f831160011461112e57600092611123575b5050816002029160080260020a600019041916179055565b01549050388061110b565b81526020808220858352818320935090601f1985169083905b8282106111845750509160029391856001969410611169575b50505002019055565b01546008601f841602840a6000190419169055388080611160565b8495819295850154815560018091019601940190611147565b5050565b90916111b9610ed69593608084526080840190610e1b565b600160a060020a03918216602084015293166040820152808303606090910152610e1b565b600160a060020a0380831693929190811680851461169e5761120160005461100a565b9485600055611256602061121d6112174261194c565b9861194c565b9760405198816112368b93518092868087019101610df8565b820161124a82518093868085019101610df8565b01038089520187610d6e565b6040519061126382610d53565b600082526040519261127484610d1e565b87845260208401526040830152846060830152426080830152600060a083015260c082015260405160208187516112ae8183858c01610df8565b60019082019081520301902081518051906001604060020a038211610d395781906112dd826110ef8654610f26565b602090601f83116001146116355760009261162a575b5050816002029160080260020a6000190419161781555b6020820151600182018054600160a060020a03928316600160a060020a03199182161790915560408401516002840180549190931691161790556060820151805160038301916001604060020a038211610d3957819061136e826110ef8654610f26565b602090601f83116001146115c1576000926115b6575b5050816002029160080260020a6000190419161790555b6080820151600482015560a08201516003811015610e4d57816113c5600692600560c09501611087565b019101518051906001604060020a038211610d395781906113ea826110ef8654610f26565b602090601f831160011461154d57600092611542575b5050816002029160080260020a6000190419161790555b604051602081865161142c8183858b01610df8565b8101600181520301902092600454604060020a811015610d3957806001611456920160045561109f565b9190916115285784827f4c57de14bab31f374bb1da2f58131adeaa55e473dfe313a2b201a8a5415f0bd69661149a94036114a0575b505060405193849387856111a1565b0390a190565b600680836114b161152195856110be565b6001818101549085018054600160a060020a03928316600160a060020a03199182161790915560028084015490870180549190931691161790556114fb60038083019086016110be565b6004810154600485015561151960ff60058301541660058601611087565b0191016110be565b388061148b565b60e060020a634e487b710260009081526004819052602490fd5b015190503880611400565b6000858152602081209350601f198516905b81811061159e57509160029391856001969410611583575b50505002019055611417565b01516008601f841602840a6000190419169055388080611577565b9293602060018192878601518155019501930161155f565b015190503880611384565b6000858152602081209350601f198516905b818110611612575091600293918560019694106115f7575b5050500201905561139b565b01516008601f841602840a60001904191690553880806115eb565b929360206001819287860151815501950193016115d3565b0151905038806112f3565b6000858152602081209350601f198516905b8181106116865750916002939185600196941061166b575b5050500201815561130a565b01516008601f841602840a600019041916905538808061165f565b92936020600181928786015181550195019301611647565b60405160e560020a62461bcd02815260206004820152602b60248201527f506c61696e7469666620616e6420646566656e64616e742063616e6e6f742062604482015260a960020a6a32903a34329039b0b6b297026064820152608490fd5b6040519181519260209384840190611716818484610df8565b6002908301818152839003860190922054600160a060020a0316330361184c5761177b856006926040519660058151611750818b86610df8565b890198848160019b8c815203019020018660ff19825416179055604051938492839251928391610df8565b810187815203019020835191019490926001604060020a038411610d39576117ad846117a78854610f26565b88611033565b81601f85116001146117e657508394506000936117db575b505082810292600802900a600019041916179055565b0151915038806117c5565b919084601f9594951981168860005284600020946000905b8983831061183257505050106118175750505002019055565b01516008601f841602840a6000190419169055388080611160565b8587015188559096019594850194879350908101906117fe565b60405160e560020a62461bcd02815260048101869052602b60248201527f4f6e6c79207468652061737369676e6564206a756467652063616e20636c6f73604482015260a960020a6a32903a34329031b0b9b297026064820152608490fd5b60056118c8602060ff938160405193828580945193849201610df8565b810160018152030190200154166003811015610e4d5760021490565b6004549060005b8281106119085750505060405161190181610d53565b6000815290565b60026119138261109f565b50600160a0830a0391829101541690831614611937576119329061100a565b6118eb565b610ed69250611946915061109f565b50610f65565b80156119f957600081805b6119e5575061196581610d91565b906119736040519283610d6e565b808252601f1961198282610d91565b013660208401375b809280156119de576000198201918211611019578193600a9260309084840682018092116110195785511115610ef45760ff1660f860020a02600160f860020a03191660001a908401601f0153049161198a565b5050905090565b906119f1600a9161100a565b910480611957565b50604080519081016001604060020a03811182821017610d39576040526001815260fc60020a600302602082015290565b6006549060005b828110611a4057505050600090565b611a4981610ed9565b9054600160a060020a03848116600890930260020a9091041614611a7557611a709061100a565b611a31565b50505060019056fea2646970667358221220206e118709c703ec0cbd057db2952fa46037f9f21d2875422b21b26b0b2e294b64736f6c63430008120033",
  "immutableReferences": {},
  "source": "// SPDX-License-Identifier: BSL-1.1\npragma solidity >=0.4.22 <0.9.0;\n\nimport \"../Case.sol\";\n\ncontract SCOTUS is Case {\n    address public chiefJustice;\n    address[] public associateJustices;\n\n\n    event CaseFiled(string caseId, address petitioner, address respondent, string caseTitle);\n    event CaseDecided(string caseId, string decision);\n\n    modifier onlyChiefJustice() {\n        require(msg.sender == chiefJustice, \"Only the Chief Justice can perform this action.\");\n        _;\n    }\n\n    modifier onlyJustice() {\n        require(isJustice(msg.sender), \"Only Associate Justices can perform this action.\");\n        _;\n    }\n\n    constructor(address _chiefJustice, address[] memory _associateJustices) {\n        chiefJustice = _chiefJustice;\n        associateJustices = _associateJustices;\n        caseCounter = 0;\n    }\n\n    function isJustice(address account) public view returns (bool) {\n        for (uint256 i = 0; i < associateJustices.length; i++) {\n            if (associateJustices[i] == account) {\n                return true;\n            }\n        }\n        return false;\n    }\n\n    function fileCase(address respondent, string memory caseTitle) public onlyJustice {\n        string memory caseIndex = createCase(msg.sender, respondent, caseTitle);\n        emit CaseFiled(caseIndex, msg.sender, respondent, caseTitle);\n    }\n\n    function decideCase(string memory caseId, string memory decision) public onlyChiefJustice {\n        require(!isCaseResolved(caseId), \"This case has already been decided.\");\n        closeCase(caseId, decision);\n        emit CaseDecided(caseId, decision);\n    }\n}\n",
  "sourcePath": "/Volumes/HOME/pingleware-contracts/contracts/government/federal/SCOTUS.sol",
  "compiler": {
    "name": "solc",
    "version": "0.8.18+commit.87f61d96.Emscripten.clang"
  },
  "schemaVersion": "3.4.12",
  "updatedAt": "2024-05-23T18:56:26.209Z",
  "devdoc": {
    "kind": "dev",
    "methods": {},
    "version": 1
  },
  "userdoc": {
    "kind": "user",
    "methods": {},
    "version": 1
  }
}