{
  "contractName": "SecurityMeta",
  "abi": [
    {
      "anonymous": false,
      "inputs": [
        {
          "indexed": false,
          "internalType": "address",
          "name": "token",
          "type": "address"
        },
        {
          "indexed": false,
          "internalType": "uint256",
          "name": "index",
          "type": "uint256"
        },
        {
          "indexed": false,
          "internalType": "string",
          "name": "certificateNumber",
          "type": "string"
        }
      ],
      "name": "CERTIFICATENUMBERAssigned",
      "type": "event"
    },
    {
      "anonymous": false,
      "inputs": [
        {
          "indexed": false,
          "internalType": "address",
          "name": "token",
          "type": "address"
        },
        {
          "indexed": false,
          "internalType": "uint256",
          "name": "index",
          "type": "uint256"
        },
        {
          "indexed": false,
          "internalType": "string",
          "name": "oldCertificateNumber",
          "type": "string"
        },
        {
          "indexed": false,
          "internalType": "string",
          "name": "newCertificateNumber",
          "type": "string"
        }
      ],
      "name": "CERTIFICATENUMBERReplaced",
      "type": "event"
    },
    {
      "anonymous": false,
      "inputs": [
        {
          "indexed": false,
          "internalType": "address",
          "name": "token",
          "type": "address"
        },
        {
          "indexed": false,
          "internalType": "string",
          "name": "cusip",
          "type": "string"
        }
      ],
      "name": "CUSIPAssigned",
      "type": "event"
    },
    {
      "anonymous": false,
      "inputs": [
        {
          "indexed": false,
          "internalType": "address",
          "name": "token",
          "type": "address"
        },
        {
          "indexed": false,
          "internalType": "string",
          "name": "oldCUSIP",
          "type": "string"
        },
        {
          "indexed": false,
          "internalType": "string",
          "name": "newCUSIP",
          "type": "string"
        }
      ],
      "name": "CUSIPReplaced",
      "type": "event"
    },
    {
      "anonymous": false,
      "inputs": [
        {
          "indexed": false,
          "internalType": "address",
          "name": "token",
          "type": "address"
        },
        {
          "indexed": false,
          "internalType": "string",
          "name": "fileNumber",
          "type": "string"
        }
      ],
      "name": "FILENUMBERAssigned",
      "type": "event"
    },
    {
      "anonymous": false,
      "inputs": [
        {
          "indexed": false,
          "internalType": "address",
          "name": "token",
          "type": "address"
        },
        {
          "indexed": false,
          "internalType": "string",
          "name": "oldFileNumber",
          "type": "string"
        },
        {
          "indexed": false,
          "internalType": "string",
          "name": "newFileNumber",
          "type": "string"
        }
      ],
      "name": "FILENUMBERReplaced",
      "type": "event"
    },
    {
      "anonymous": false,
      "inputs": [
        {
          "indexed": false,
          "internalType": "address",
          "name": "token",
          "type": "address"
        },
        {
          "indexed": false,
          "internalType": "string",
          "name": "isin",
          "type": "string"
        }
      ],
      "name": "ISINAssigned",
      "type": "event"
    },
    {
      "anonymous": false,
      "inputs": [
        {
          "indexed": false,
          "internalType": "address",
          "name": "token",
          "type": "address"
        },
        {
          "indexed": false,
          "internalType": "string",
          "name": "oldISIN",
          "type": "string"
        },
        {
          "indexed": false,
          "internalType": "string",
          "name": "newISIN",
          "type": "string"
        }
      ],
      "name": "ISINReplaced",
      "type": "event"
    },
    {
      "anonymous": false,
      "inputs": [
        {
          "indexed": false,
          "internalType": "address",
          "name": "_sender",
          "type": "address"
        }
      ],
      "name": "Sender",
      "type": "event"
    },
    {
      "inputs": [
        {
          "internalType": "address",
          "name": "",
          "type": "address"
        },
        {
          "internalType": "uint256",
          "name": "",
          "type": "uint256"
        }
      ],
      "name": "CERTIFICATE_NUMBER",
      "outputs": [
        {
          "internalType": "string",
          "name": "",
          "type": "string"
        }
      ],
      "stateMutability": "view",
      "type": "function",
      "constant": true
    },
    {
      "inputs": [
        {
          "internalType": "address",
          "name": "",
          "type": "address"
        }
      ],
      "name": "CUSIP",
      "outputs": [
        {
          "internalType": "string",
          "name": "",
          "type": "string"
        }
      ],
      "stateMutability": "view",
      "type": "function",
      "constant": true
    },
    {
      "inputs": [
        {
          "internalType": "address",
          "name": "",
          "type": "address"
        }
      ],
      "name": "FILENUMBER",
      "outputs": [
        {
          "internalType": "string",
          "name": "",
          "type": "string"
        }
      ],
      "stateMutability": "view",
      "type": "function",
      "constant": true
    },
    {
      "inputs": [
        {
          "internalType": "address",
          "name": "",
          "type": "address"
        }
      ],
      "name": "ISIN",
      "outputs": [
        {
          "internalType": "string",
          "name": "",
          "type": "string"
        }
      ],
      "stateMutability": "view",
      "type": "function",
      "constant": true
    },
    {
      "inputs": [],
      "name": "getOwner",
      "outputs": [
        {
          "internalType": "address",
          "name": "",
          "type": "address"
        }
      ],
      "stateMutability": "view",
      "type": "function",
      "constant": true
    },
    {
      "inputs": [
        {
          "internalType": "address",
          "name": "tokenAddress",
          "type": "address"
        },
        {
          "internalType": "string",
          "name": "cusipNumber",
          "type": "string"
        }
      ],
      "name": "assignCUSIPtoToken",
      "outputs": [],
      "stateMutability": "nonpayable",
      "type": "function"
    },
    {
      "inputs": [
        {
          "internalType": "address",
          "name": "tokenAddress",
          "type": "address"
        }
      ],
      "name": "getCUSIP",
      "outputs": [
        {
          "internalType": "string",
          "name": "",
          "type": "string"
        }
      ],
      "stateMutability": "view",
      "type": "function",
      "constant": true
    },
    {
      "inputs": [
        {
          "internalType": "address",
          "name": "tokenAddress",
          "type": "address"
        },
        {
          "internalType": "string",
          "name": "isinNumber",
          "type": "string"
        }
      ],
      "name": "assignISINtoToken",
      "outputs": [],
      "stateMutability": "nonpayable",
      "type": "function"
    },
    {
      "inputs": [
        {
          "internalType": "address",
          "name": "tokenAddress",
          "type": "address"
        }
      ],
      "name": "getISIN",
      "outputs": [
        {
          "internalType": "string",
          "name": "",
          "type": "string"
        }
      ],
      "stateMutability": "view",
      "type": "function",
      "constant": true
    },
    {
      "inputs": [
        {
          "internalType": "address",
          "name": "tokenAddress",
          "type": "address"
        },
        {
          "internalType": "string",
          "name": "secFileNumber",
          "type": "string"
        }
      ],
      "name": "assignFileNumber",
      "outputs": [],
      "stateMutability": "nonpayable",
      "type": "function"
    },
    {
      "inputs": [
        {
          "internalType": "address",
          "name": "tokenAddress",
          "type": "address"
        }
      ],
      "name": "getFileNumber",
      "outputs": [
        {
          "internalType": "string",
          "name": "",
          "type": "string"
        }
      ],
      "stateMutability": "view",
      "type": "function",
      "constant": true
    },
    {
      "inputs": [
        {
          "internalType": "address",
          "name": "tokenAddress",
          "type": "address"
        },
        {
          "internalType": "uint256",
          "name": "index",
          "type": "uint256"
        },
        {
          "internalType": "string",
          "name": "certificateNumber",
          "type": "string"
        }
      ],
      "name": "assignCertificateNumber",
      "outputs": [],
      "stateMutability": "nonpayable",
      "type": "function"
    },
    {
      "inputs": [
        {
          "internalType": "address",
          "name": "tokenAddress",
          "type": "address"
        },
        {
          "internalType": "uint256",
          "name": "index",
          "type": "uint256"
        }
      ],
      "name": "getCertificateNumber",
      "outputs": [
        {
          "internalType": "string",
          "name": "",
          "type": "string"
        }
      ],
      "stateMutability": "view",
      "type": "function",
      "constant": true
    }
  ],
  "bytecode": "0x608060405234801561001057600080fd5b5060008054600160a060020a0319163317905561120e806100326000396000f3fe608060405234801561001057600080fd5b50600436106100b25760e060020a60003504630c2a0e6d81146100b757806312dfe7ad146100e057806312e01840146100f357806320b140c4146101065780634b9f4b041461011957806350a91ac11461012e57806359d37d8a146101415780637ab71c2d14610154578063893d20e814610167578063971a840f14610182578063a9e6091f14610195578063e3de976a146101a8578063eb73238b146101bb575b600080fd5b6100ca6100c5366004610d3a565b6101ce565b6040516100d79190610da2565b60405180910390f35b6100ca6100ee366004610d3a565b610268565b6100ca610101366004610d3a565b610281565b6100ca610114366004610d3a565b61032d565b61012c610127366004610dfd565b610354565b005b6100ca61013c366004610e4f565b610580565b61012c61014f366004610e79565b6105a4565b6100ca610162366004610d3a565b610806565b600054604051600160a060020a0390911681526020016100d7565b61012c610190366004610dfd565b61082d565b6100ca6101a3366004610e4f565b610a3d565b6100ca6101b6366004610d3a565b610af5565b61012c6101c9366004610dfd565b610b0e565b600260205260009081526040902080546101e790610ed2565b80601f016020809104026020016040519081016040528092919081815260200182805461021390610ed2565b80156102605780601f1061023557610100808354040283529160200191610260565b820191906000526020600020905b81548152906001019060200180831161024357829003601f168201915b505050505081565b600160205260009081526040902080546101e790610ed2565b600160a060020a03811660009081526001602052604090208054606091906102a890610ed2565b80601f01602080910402602001604051908101604052809291908181526020018280546102d490610ed2565b80156103215780601f106102f657610100808354040283529160200191610321565b820191906000526020600020905b81548152906001019060200180831161030457829003601f168201915b50505050509050919050565b600160a060020a03811660009081526002602052604090208054606091906102a890610ed2565b604080516000808252602080830180855283519020600160a060020a0388168352600190915290839020909261038a9201610f10565b604051602081830303815290604052805190602001200361040957600160a060020a03831660009081526001602052604090206103c8828483610fee565b507f3cf19d4df42e68eb48947588ef27843bc711d777e65083e855991cbe89e4f0d28383836040516103fc939291906110de565b60405180910390a1505050565b818160405160200161041c92919061110c565b60408051601f198184030181528282528051602091820120600160a060020a038716600090815260018352929092209192610458929101610f10565b604051602081830303815290604052805190602001200361057b57600160a060020a0383166000908152600160205260408120805461049690610ed2565b80601f01602080910402602001604051908101604052809291908181526020018280546104c290610ed2565b801561050f5780601f106104e45761010080835404028352916020019161050f565b820191906000526020600020905b8154815290600101906020018083116104f257829003601f168201915b50505050600160a060020a038616600090815260016020526040902091925061053b9050838583610fee565b507f48060b3a98c4cbd18634f8083887079dcf00db3553f4a2cd3a66ec52ccf05cc684828585604051610571949392919061111c565b60405180910390a1505b505050565b6004602090815260009283526040808420909152908252902080546101e790610ed2565b604080516000808252602080830180855283519020600160a060020a0389168352600482528483208884529091529083902090926105e29201610f10565b604051602081830303815290604052805190602001200361066e57600160a060020a0384166000908152600460209081526040808320868452909152902061062b828483610fee565b507fe733b324f502ee034a3a7c6ef2b9f915abd7db16fb23378bf8eb3f8a84dac72084848484604051610661949392919061115e565b60405180910390a1610800565b818160405160200161068192919061110c565b60408051601f198184030181528282528051602091820120600160a060020a03881660009081526004835283812088825283529290922091926106c5929101610f10565b604051602081830303815290604052805190602001200361080057600160a060020a03841660009081526004602090815260408083208684529091528120805461070e90610ed2565b80601f016020809104026020016040519081016040528092919081815260200182805461073a90610ed2565b80156107875780601f1061075c57610100808354040283529160200191610787565b820191906000526020600020905b81548152906001019060200180831161076a57829003601f168201915b50505050600160a060020a038716600090815260046020908152604080832089845290915290209192506107be9050838583610fee565b507fbdeec038824b6afdf47ee83d400afa3947ff3318fb552c977f12e77437b3f76385858386866040516107f6959493929190611191565b60405180910390a1505b50505050565b600160a060020a03811660009081526003602052604090208054606091906102a890610ed2565b604080516000808252602080830180855283519020600160a060020a038816835260029091529083902090926108639201610f10565b60405160208183030381529060405280519060200120036108d557600160a060020a03831660009081526002602052604090206108a1828483610fee565b507f94a1e8ed370da2f4bea95bf1153976c921962bba766c3fd9b070fac918775c498383836040516103fc939291906110de565b81816040516020016108e892919061110c565b60408051601f198184030181528282528051602091820120600160a060020a038716600090815260028352929092209192610924929101610f10565b604051602081830303815290604052805190602001200361057b57600160a060020a0383166000908152600260205260408120805461096290610ed2565b80601f016020809104026020016040519081016040528092919081815260200182805461098e90610ed2565b80156109db5780601f106109b0576101008083540402835291602001916109db565b820191906000526020600020905b8154815290600101906020018083116109be57829003601f168201915b50505050600160a060020a0386166000908152600260205260409020919250610a079050838583610fee565b507f80cabfa21525faa982aa09f3cef1b786d58654559f381bfb019ff0a3c4da06f684828585604051610571949392919061111c565b600160a060020a03821660009081526004602090815260408083208484529091529020805460609190610a6f90610ed2565b80601f0160208091040260200160405190810160405280929190818152602001828054610a9b90610ed2565b8015610ae85780601f10610abd57610100808354040283529160200191610ae8565b820191906000526020600020905b815481529060010190602001808311610acb57829003601f168201915b5050505050905092915050565b600360205260009081526040902080546101e790610ed2565b604080516000808252602080830180855283519020600160a060020a03881683526003909152908390209092610b449201610f10565b6040516020818303038152906040528051906020012003610bb657600160a060020a0383166000908152600360205260409020610b82828483610fee565b507fc205f3c9b5c20edb525cc07c3033f7a73e6f485146eb5f3138f86edd9564228b8383836040516103fc939291906110de565b8181604051602001610bc992919061110c565b60408051601f198184030181528282528051602091820120600160a060020a038716600090815260038352929092209192610c05929101610f10565b604051602081830303815290604052805190602001200361057b57600160a060020a03831660009081526003602052604081208054610c4390610ed2565b80601f0160208091040260200160405190810160405280929190818152602001828054610c6f90610ed2565b8015610cbc5780601f10610c9157610100808354040283529160200191610cbc565b820191906000526020600020905b815481529060010190602001808311610c9f57829003601f168201915b50505050600160a060020a0386166000908152600360205260409020919250610ce89050838583610fee565b507fe3fb5c0c738ec4c0c432ff4886da645076b9c18a4511fd306c3985998f5fdab484828585604051610571949392919061111c565b8035600160a060020a0381168114610d3557600080fd5b919050565b600060208284031215610d4c57600080fd5b610d5582610d1e565b9392505050565b6000815180845260005b81811015610d8257602081850181015186830182015201610d66565b506000602082860101526020601f19601f83011685010191505092915050565b602081526000610d556020830184610d5c565b60008083601f840112610dc757600080fd5b5081356001604060020a03811115610dde57600080fd5b602083019150836020828501011115610df657600080fd5b9250929050565b600080600060408486031215610e1257600080fd5b610e1b84610d1e565b925060208401356001604060020a03811115610e3657600080fd5b610e4286828701610db5565b9497909650939450505050565b60008060408385031215610e6257600080fd5b610e6b83610d1e565b946020939093013593505050565b60008060008060608587031215610e8f57600080fd5b610e9885610d1e565b93506020850135925060408501356001604060020a03811115610eba57600080fd5b610ec687828801610db5565b95989497509550505050565b600281046001821680610ee657607f821691505b602082108103610f0a5760e060020a634e487b710260009081526022600452602490fd5b50919050565b6000808354610f1e81610ed2565b60018281168015610f365760018114610f4b57610f7a565b60ff1984168752821515830287019450610f7a565b8760005260208060002060005b85811015610f715781548a820152908401908201610f58565b50505082870194505b50929695505050505050565b60e060020a634e487b710260009081526041600452602490fd5b601f82111561057b576000818152602081206020601f86010481016020861015610fc75750805b6020601f860104820191505b81811015610fe657828155600101610fd3565b505050505050565b6001604060020a0383111561100557611005610f86565b611019836110138354610ed2565b83610fa0565b6000601f84116001811461105157600085156110355750838201355b60028087026008880290910a60001904198216178455506110ae565b600083815260209020601f19861690835b828110156110825786850135825560209485019460019092019101611062565b50868210156110a257858401356008601f89160260020a60001904191681555b50506001600286020183555b5050505050565b81835281816020850137506000828201602090810191909152601f909101601f19169091010190565b600160a060020a038416815260406020820181905260009061110390830184866110b5565b95945050505050565b8183823760009101908152919050565b600160a060020a038516815260606020820181905260009061114090830186610d5c565b82810360408401526111538185876110b5565b979650505050505050565b600160a060020a03851681528360208201526060604082015260006111876060830184866110b5565b9695505050505050565b600160a060020a03861681528460208201526080604082015260006111b96080830186610d5c565b82810360608401526111cc8185876110b5565b9897505050505050505056fea26469706673582212200a7cddb30b238a881c1143a4acd0c6c52d6731753896f09c648ed5f847f0149464736f6c63430008120033",
  "immutableReferences": {},
  "source": "// SPDX-License-Identifier: BSL-1.1\npragma solidity >=0.4.22 <0.9.0;\n\n/**\n * DUE TO SIZE LIMITATIONS ON CONTRACT BYTECODE, SecurityMeta WAS CREATED TO MAINTAIN AN ACTIVE\n * RECORD OF SEUCIRTY TOKENS CUSIP, ISIN, CERTIFICATE ASSIGNED NUMBERS AS WELL AS OTHER SECUIRTY METADATA\n */\n\nimport \"./AccessControl.sol\";\n\ncontract SecurityMeta is AccessControl {\n    mapping (address => string) public CUSIP;\n    mapping (address => string) public ISIN;\n    mapping (address => string) public FILENUMBER;\n    mapping (address => mapping(uint256 => string)) public CERTIFICATE_NUMBER;\n\n\n    event CUSIPAssigned(address token,string cusip);\n    event CUSIPReplaced(address token,string oldCUSIP,string newCUSIP);\n    event ISINAssigned(address token,string isin);\n    event ISINReplaced(address token,string oldISIN,string newISIN);\n    event FILENUMBERAssigned(address token,string fileNumber);\n    event FILENUMBERReplaced(address token,string oldFileNumber,string newFileNumber);\n    event CERTIFICATENUMBERAssigned(address token,uint256 index,string certificateNumber);\n    event CERTIFICATENUMBERReplaced(address token,uint256 index,string oldCertificateNumber,string newCertificateNumber);\n\n\n    function assignCUSIPtoToken(address tokenAddress,string calldata cusipNumber) external  {\n        if (keccak256(abi.encodePacked(CUSIP[tokenAddress])) == keccak256(abi.encodePacked(\"\"))) {\n            CUSIP[tokenAddress] = cusipNumber;\n            emit CUSIPAssigned(tokenAddress, cusipNumber);\n        } else if (keccak256(abi.encodePacked(CUSIP[tokenAddress])) == keccak256(abi.encodePacked(cusipNumber))) {\n            string memory oldCUSIP = CUSIP[tokenAddress];\n            CUSIP[tokenAddress] = cusipNumber;\n            emit CUSIPReplaced(tokenAddress, oldCUSIP, cusipNumber);\n        }\n    }\n\n    function getCUSIP(address tokenAddress) external view  returns (string memory) {\n        return CUSIP[tokenAddress];\n    }\n\n    function assignISINtoToken(address tokenAddress,string calldata isinNumber) external  {\n        if (keccak256(abi.encodePacked(ISIN[tokenAddress])) == keccak256(abi.encodePacked(\"\"))) {\n            ISIN[tokenAddress] = isinNumber;\n            emit ISINAssigned(tokenAddress, isinNumber);\n        } else if (keccak256(abi.encodePacked(ISIN[tokenAddress])) == keccak256(abi.encodePacked(isinNumber))) {\n            string memory oldISIN = ISIN[tokenAddress];\n            ISIN[tokenAddress] = isinNumber;\n            emit ISINReplaced(tokenAddress, oldISIN, isinNumber);\n        }\n    }\n\n    function getISIN(address tokenAddress) external view  returns (string memory) {\n        return ISIN[tokenAddress];\n    }\n\n    function assignFileNumber(address tokenAddress,string calldata secFileNumber) external  {\n        if (keccak256(abi.encodePacked(FILENUMBER[tokenAddress])) == keccak256(abi.encodePacked(\"\"))) {\n            FILENUMBER[tokenAddress] = secFileNumber;\n            emit FILENUMBERAssigned(tokenAddress, secFileNumber);\n        } else if (keccak256(abi.encodePacked(FILENUMBER[tokenAddress])) == keccak256(abi.encodePacked(secFileNumber))) {\n            string memory oldFileNumber = FILENUMBER[tokenAddress];\n            FILENUMBER[tokenAddress] = secFileNumber;\n            emit FILENUMBERReplaced(tokenAddress, oldFileNumber, secFileNumber);\n        }\n    }\n\n    function getFileNumber(address tokenAddress) external view  returns (string memory) {\n        return FILENUMBER[tokenAddress];\n    }\n\n    function assignCertificateNumber(address tokenAddress,uint256 index,string calldata certificateNumber) external  {\n        if (keccak256(abi.encodePacked(CERTIFICATE_NUMBER[tokenAddress][index])) == keccak256(abi.encodePacked(\"\"))) {\n            CERTIFICATE_NUMBER[tokenAddress][index] = certificateNumber;\n            emit CERTIFICATENUMBERAssigned(tokenAddress, index, certificateNumber);\n        } else if (keccak256(abi.encodePacked(CERTIFICATE_NUMBER[tokenAddress][index])) == keccak256(abi.encodePacked(certificateNumber))) {\n            string memory oldCertificateNumber = CERTIFICATE_NUMBER[tokenAddress][index];\n            CERTIFICATE_NUMBER[tokenAddress][index] = certificateNumber;\n            emit CERTIFICATENUMBERReplaced(tokenAddress, index, oldCertificateNumber, certificateNumber);\n        }\n    }\n\n    function getCertificateNumber(address tokenAddress,uint256 index) external view  returns (string memory) {\n        return CERTIFICATE_NUMBER[tokenAddress][index];\n    }\n}",
  "sourcePath": "/Volumes/My Book/projects/pingleware-contracts/contracts/finance/elmx/SecurityMeta.sol",
  "compiler": {
    "name": "solc",
    "version": "0.8.18+commit.87f61d96.Emscripten.clang"
  },
  "schemaVersion": "3.4.12",
  "updatedAt": "2023-10-27T01:43:42.132Z",
  "networkType": "ethereum",
  "devdoc": {
    "kind": "dev",
    "methods": {},
    "version": 1
  },
  "userdoc": {
    "kind": "user",
    "methods": {},
    "version": 1
  }
}