{
  "contractName": "Shareholder",
  "abi": [
    {
      "anonymous": false,
      "inputs": [
        {
          "indexed": false,
          "internalType": "address",
          "name": "addr",
          "type": "address"
        },
        {
          "indexed": false,
          "internalType": "string",
          "name": "hash",
          "type": "string"
        },
        {
          "indexed": false,
          "internalType": "address",
          "name": "sender",
          "type": "address"
        }
      ],
      "name": "VerifiedAddressAdded",
      "type": "event"
    },
    {
      "anonymous": false,
      "inputs": [
        {
          "indexed": false,
          "internalType": "address",
          "name": "addr",
          "type": "address"
        },
        {
          "indexed": false,
          "internalType": "address",
          "name": "sender",
          "type": "address"
        }
      ],
      "name": "VerifiedAddressRemoved",
      "type": "event"
    },
    {
      "anonymous": false,
      "inputs": [
        {
          "indexed": false,
          "internalType": "address",
          "name": "addr1",
          "type": "address"
        },
        {
          "indexed": false,
          "internalType": "address",
          "name": "addr2",
          "type": "address"
        },
        {
          "indexed": false,
          "internalType": "address",
          "name": "addr3",
          "type": "address"
        }
      ],
      "name": "VerifiedAddressSuperseded",
      "type": "event"
    },
    {
      "anonymous": false,
      "inputs": [
        {
          "indexed": false,
          "internalType": "address",
          "name": "addr",
          "type": "address"
        },
        {
          "indexed": false,
          "internalType": "string",
          "name": "oldhash",
          "type": "string"
        },
        {
          "indexed": false,
          "internalType": "string",
          "name": "hash",
          "type": "string"
        },
        {
          "indexed": false,
          "internalType": "address",
          "name": "sender",
          "type": "address"
        }
      ],
      "name": "VerifiedAddressUpdated",
      "type": "event"
    },
    {
      "inputs": [
        {
          "internalType": "address",
          "name": "addr",
          "type": "address"
        }
      ],
      "name": "isSuperseded",
      "outputs": [
        {
          "internalType": "bool",
          "name": "",
          "type": "bool"
        }
      ],
      "stateMutability": "view",
      "type": "function"
    },
    {
      "inputs": [
        {
          "internalType": "address",
          "name": "addr",
          "type": "address"
        }
      ],
      "name": "isHolder",
      "outputs": [
        {
          "internalType": "bool",
          "name": "",
          "type": "bool"
        }
      ],
      "stateMutability": "view",
      "type": "function"
    },
    {
      "inputs": [
        {
          "internalType": "address",
          "name": "addr",
          "type": "address"
        },
        {
          "internalType": "bytes32",
          "name": "hash",
          "type": "bytes32"
        }
      ],
      "name": "hasHash",
      "outputs": [
        {
          "internalType": "bool",
          "name": "",
          "type": "bool"
        }
      ],
      "stateMutability": "view",
      "type": "function"
    },
    {
      "inputs": [],
      "name": "holderCount",
      "outputs": [
        {
          "internalType": "uint256",
          "name": "",
          "type": "uint256"
        }
      ],
      "stateMutability": "view",
      "type": "function"
    },
    {
      "inputs": [
        {
          "internalType": "uint256",
          "name": "index",
          "type": "uint256"
        }
      ],
      "name": "holderAt",
      "outputs": [
        {
          "internalType": "address",
          "name": "",
          "type": "address"
        }
      ],
      "stateMutability": "view",
      "type": "function"
    }
  ],
  "bytecode": "0x6080806040523461001c5761161690816100228239308160080152f35b600080fdfe604060808152307f000000000000000000000000000000000000000000000000000000000000000014906004908136101561003957600080fd5b60009260e060020a84350490630e54d1fc82146110c6578163197bc3361461102f5781631aab9a9f1461100857816320dc478514610d695781632a5de4d914610d415781632da7293e14610cfe5781634487b39214610c2657816355c904d31461098657816379f647201461061f578163aa4a637b146102eb578163ac8a2af01461023e57508063d4d7b19a146101fb5763f3221c7f146100d957600080fd5b806003193601126101f7576101086100ef6110ee565b610103600160a060020a03821615156112df565b6112a6565b928151936020948581818101938590805461012281611323565b916001918083169081156101d7575060011461019b575b50505061014f925003601f19810183528261111f565b51902091805190858201926024358452868352818301958387106001604060020a03881117610185575050849052519020148152f35b60e060020a634e487b7102825260419052602490fd5b885284882091925087915b8383106101c1575050509161014f9282010188923880610139565b80548784018701528694509185019181016101a6565b9250505061014f94925060ff191686528015150282010188923880610139565b8280fd5b8382602036600319011261023a576020906102306102176110ee565b61022b600160a060020a03821615156112df565b6111fb565b5415159051908152f35b5080fd5b849391506101f75760203660031901126101f75761025a6110ee565b9161026f600160a060020a03841615156112df565b6102788361147b565b156102a5575050610288816111fb565b5415610292575080f35b6102a18161022b600193611401565b5580f35b5160e560020a62461bcd02815260209181019190915260186024820152604260020a771a5b9d995cdd1bdc881a5cc81b9bdd081d995c9a599a5959026044820152606490fd5b8492915061023a576102fc3661115c565b939091600160a060020a038316916103158315156112df565b61031e8461147b565b156105c45785511561057f57610333846112a6565b82519186958254928461034585611323565b988982526020998a8301936001978c898216918260001461056057505060011461051a575b5050610394929161037c91038761111f565b6103a189885180938282019586918b51928391611433565b810103808452018261111f565b5190208986516103c08a82816103948183019687815193849201611433565b519020036103cc578780f35b6103d5906112a6565b8851909290916001604060020a03831161050457506103fe826103f88554611323565b85611379565b8690601f83116001146104895750928798928261045c9361046997966000805160206115a18339815191529b9161047e575b50816002029160080260020a6000190419161790555b6080845197889788528701526080860190611456565b9184830390850152611456565b3360608301520390a180828080808080808780f35b90508501518c610430565b838952878920909291601f1983168a5b8181106104ef5750836000805160206115a18339815191529b9c969361045c96936104699a9996600294106104d4575b505002019055610446565b8801516008601f841602840a60001904191690558d806104c9565b8c830151845592850192918a01918a01610499565b60e060020a634e487b7102895260419052602488fd5b91509291508a528589808c2093878d955b8287106105465750939492935050908201018161037c61036a565b80548b880185015292909501948993508c9289910161052b565b60ff1916875292151583028501909201925083915061037c905061036a565b6020606492519160e560020a62461bcd028352820152601f60248201527f28757064617465566572696669656429202d2068617368206973207a65726f006044820152fd5b6020608492519160e560020a62461bcd028352820152602a60248201527f28757064617465566572696669656429202d206e6f7420612076657269666965604482015260b160020a69321034b73b32b9ba37b9026064820152fd5b90506101f757806003193601126101f7576106386110ee565b91610641611109565b93600160a060020a038481169290919083151561065d816112df565b8388169361067685151592610671846112df565b6112df565b600080516020611581833981519152548491825b82811061093957505050156108cd576106a2906112df565b6106ab876111fb565b5461084b576106b98761147b565b156107e15760006106c9876112a6565b6106d38154611323565b601f81116107c2575b50556106e78661126d565b8054600160a060020a03191684179055610700866111fb565b546000198101919082116107ac5750927fb64971100522354f3d25283cb14e2eefcb0dd26a757482ccfe42479d0a68685792606092610770896107466107a899986113c0565b908054600160a060020a03600890930260020a838102801990921693909416909302909216179055565b610779886111fb565b546107838a6111fb565b5561078d886111fb565b55845191825260208201523384820152a151928392836111e1565b0390f35b60e060020a634e487b7102835260119052602482fd5b6107db908286526020601f818820920104810190611362565b386106dc565b60a490602086519160e560020a62461bcd028352820152604460248201526000805160206115c183398151915260448201527f20696e766573746f72206973206e6f74206120766572696669656420696e7665606482015260e160020a6339ba37b9026084820152fd5b845160e560020a62461bcd028152602091810191909152605960248201526000805160206115c183398151915260448201527f20696e766573746f7220697320616c72656164792061207368617265686f6c646064820152603a60020a78195c8b081c995c5d5a5c995cc818481b995dc81dd85b1b195d02608482015260a490fd5b855160e560020a62461bcd028152602081840152603b60248201527f2863616e63656c616e645265697373756529202d206f726967696e616c20696e60448201527f766573746f72206973206e6f742061207368617265686f6c64657200000000006064820152608490fd5b88826008610946846113c0565b9054910260020a9004161461097d575b60001981146109675760010161068a565b60e060020a634e487b7102875260118652602487fd5b60019350610956565b8492915061023a576109973661115c565b91600160a060020a0382811692906109b4841515610671816112df565b6109bd8261126d565b5416610bc7576109d56109cf826112a6565b54611323565b610b6c576109e2906112a6565b83516001604060020a038111610ae757610a0681610a008454611323565b84611379565b806020601f8211600114610b08578791610afd575b50816002029160080260020a6000190419161790555b7f84d6a4597c1933575f1026ccae683d8d7059c2fe21797bd5217915ddf82f90a0805490604060020a821015610ae75760018201808255821015610ad157857f550c196a77afc2d9b241c5742cef5ee82f2db8345acf38fed8ba8e2070b6451f96975052602086200182600160a060020a0319825416179055610ac581519384938452606060208501526060840190611456565b9033908301520390a180f35b60e060020a634e487b7102865260328752602486fd5b60e060020a634e487b7102865260418752602486fd5b905085015188610a1b565b8388528088209150601f198316885b818110610b54575091839160019460029410610b39575b505002019055610a31565b8801516008601f841602840a60001904191690558980610b2e565b9192602060018192868c015181550194019201610b17565b815160e560020a62461bcd028152602081880152602960248201527f28616464566572696669656429202d20696e766573746f7220616c7265616479604482015260ba60020a68081d995c9a599a5959026064820152608490fd5b815160e560020a62461bcd028152602081880152602d60248201527f28616464566572696669656429202d20696e766573746f7220697320616c72656044820152609a60020a6c18591e4818d85b98d95b1b1959026064820152608490fd5b82859161023a57602036600319011261023a57610c416110ee565b90610c56600160a060020a03831615156112df565b610c626109cf836112a6565b610c6a578280f35b81610cb99184610c9a7f8071c01a493142de896a206c19ca180d32e91d6486fcf11ea299f569f5d922b5956112a6565b610ca48154611323565b80610cc2575b505050519182913390836111e1565b0390a181808280f35b82601f8211600114610cda575050555b848680610caa565b9091808252610cf76020601f818520950104840160018501611362565b5555610cd2565b8483602036600319011261023a57602090610d176110ee565b600160a060020a0390610d3690610d3181841615156112df565b61126d565b541615159051908152f35b82859161023a57366003190112610d6657610d5a6110ee565b6102a160243591611234565b80fd5b849391506101f75760603660031901126101f757610d856110ee565b91610d8e611109565b60443593600585101561100457600160a060020a0382811695909290610db58715156112df565b610dbe826111fb565b5415610dc8578780f35b80610f7057507f84d6a4597c1933575f1026ccae683d8d7059c2fe21797bd5217915ddf82f90a3805490610dfb84611234565b54821015610f0457604060020a821015610eee5760018201808255821015610ed857885260208820018054600160a060020a03191687179055600190610e40906111fb565b555b1684527f84d6a4597c1933575f1026ccae683d8d7059c2fe21797bd5217915ddf82f909c6020528320805491604060020a831015610ec25760018301808355831015610eac5750835260208320018054600160a060020a0319169091179055818080808080808780f35b60e060020a634e487b7102855260329052602484fd5b60e060020a634e487b7102855260419052602484fd5b60e060020a634e487b7102895260328752602489fd5b60e060020a634e487b7102895260418752602489fd5b855160e560020a62461bcd028152602081890152603a60248201527f77696c6c2065786365656420746865206d6178696d756d206e756d626572206f60448201527f66206e6f6e2d6163637265646974656420696e766573746f72730000000000006064820152608490fd5b60018103610f8e5750610f888161022b600193611401565b55610e42565b600214610f9c575b50610e42565b7f84d6a4597c1933575f1026ccae683d8d7059c2fe21797bd5217915ddf82f90a4805490604060020a821015610eee5760018201808255821015610ed857885260208820018054600160a060020a03191687179055600190610ffd906111fb565b5586610f96565b8580fd5b84838160031936011261023a57602090600080516020611581833981519152549051908152f35b5050916020600319360112610d6657508035906000805160206115818339815191525482101561108157602083611065846113c0565b90549151600890910260020a909104600160a060020a03168152f35b825160e560020a62461bcd02815260209181019190915260166024820152605060020a75686f6c6465724174206f7574206f6620626f756e6473026044820152606490fd5b82859161023a57366003190112610d66576110eb6110e26110ee565b6024359061149c565b80f35b60043590600160a060020a038216820361110457565b600080fd5b60243590600160a060020a038216820361110457565b601f909101601f19168101906001604060020a0382119082101761114257604052565b60e060020a634e487b710260009081526041600452602490fd5b90604060031983011261110457600435600160a060020a038116810361110457916001604060020a03602435818111611104578260238201121561110457806004013591821161114257604051926111be601f8401601f19166020018561111f565b828452602483830101116111045781600092602460209301838601378301015290565b600160a060020a0391821681529116602082015260400190565b600160a060020a031660009081527f84d6a4597c1933575f1026ccae683d8d7059c2fe21797bd5217915ddf82f909e6020526040902090565b600160a060020a031660009081527f84d6a4597c1933575f1026ccae683d8d7059c2fe21797bd5217915ddf82f90a66020526040902090565b600160a060020a031660009081527f84d6a4597c1933575f1026ccae683d8d7059c2fe21797bd5217915ddf82f909d6020526040902090565b600160a060020a031660009081527f84d6a4597c1933575f1026ccae683d8d7059c2fe21797bd5217915ddf82f909f6020526040902090565b156112e657565b60405160e560020a62461bcd02815260206004820152600f6024820152608860020a6e696e76616c69642061646472657373026044820152606490fd5b9060016002830492168015611358575b602083101461133e57565b60e060020a634e487b710260009081526022600452602490fd5b91607f1691611333565b81811061136d575050565b60008155600101611362565b9190601f811161138857505050565b6113b492600052602060002090602080601f850104830193106113b6575b601f60209101040190611362565b565b90915081906113a6565b60008051602061158183398151915280548210156113e75760005260206000200190600090565b60e060020a634e487b710260009081526032600452602490fd5b60008051602061158183398151915280549190604060020a83101561114257826107469160016113b4950190556113c0565b60005b8381106114465750506000910152565b8181015183820152602001611436565b9060209161146f81518092818552858086019101611433565b601f01601f1916010190565b611497906109cf90610103600160a060020a03821615156112df565b151590565b600160a060020a03916114b282841615156112df565b81318082810311611562570361157c576114cb816111fb565b54600019919082810190811161156257600080516020611581833981519152908154848101908111611562576107469186600861150a61151c946113c0565b9054910260020a9004169283916113c0565b61152f611528846111fb565b54916111fb565b55549182019182116115625760009261154a61155f936113c0565b909160088354920260020a02191690556111fb565b55565b60e060020a634e487b710260009081526011600452602490fd5b505056fe84d6a4597c1933575f1026ccae683d8d7059c2fe21797bd5217915ddf82f90a1956cac7563aec785f30b680b47233cb635844cd3f2a1a24c87f96b9b7d4e75442863616e63656c616e645265697373756529202d207265706c6163656d656e74a2646970667358221220748203f76c796fd9185fc10226e778bd33bc9e35eb65648c1306d4857d3b89b564736f6c63430008120033",
  "immutableReferences": {
    "library_deploy_address": [
      {
        "length": 32,
        "start": 8
      }
    ]
  },
  "source": "// SPDX-License-Identifier: CC-BY-4.0\r\npragma solidity >=0.4.22 <0.9.0;\r\n\r\n\r\nlibrary Shareholder {\r\n    bytes32 constant private ZERO_BYTES = bytes32(0);\r\n    address constant private ZERO_ADDRESS = address(0);\r\n\r\n    enum InvestorType {\r\n        accredited,\r\n        affiliate,\r\n        nonaccredited,\r\n        sophisticated,\r\n        employee\r\n    }\r\n\r\n    struct ShareholderStorage {\r\n        mapping(address => address[]) _shareholders; // all sharenolders by contract offering address\r\n        mapping(address => address) cancellations;\r\n        mapping(address => uint256) holderIndices;\r\n        mapping(address => string)  verified;\r\n        address[] _verified;\r\n        address[] shareholders;\r\n        address[] shareholders_accredited;\r\n        address[] shareholders_nonacredited;\r\n        address[] shareholders_affiliate;\r\n        address[] shareholders_sophisticated;\r\n        mapping(address => uint256) maxNonaccredited; // mapped to offering contract address; -1=unlimited\r\n    }\r\n\r\n    function shareholderStorage()\r\n        internal\r\n        pure\r\n        returns (ShareholderStorage storage ds)\r\n    {\r\n        bytes32 position = keccak256(\"shareholder.storage\");\r\n        assembly { ds.slot := position}\r\n    }\r\n\r\n\r\n    event VerifiedAddressSuperseded(address addr1,address addr2,address addr3);\r\n    event VerifiedAddressUpdated(address addr, string oldhash, string hash, address sender);\r\n    event VerifiedAddressRemoved(address addr, address sender);\r\n    event VerifiedAddressAdded(address addr, string hash, address sender);\r\n\r\n    function isActiveShareholder(address addr)\r\n        internal\r\n        view\r\n        returns (bool)\r\n    {\r\n        require(addr != ZERO_ADDRESS,\"invalid address\");\r\n        return (shareholderStorage().holderIndices[addr] != 0);\r\n    }\r\n\r\n    function isNotShareholder(address addr)\r\n        internal\r\n        view\r\n        returns (bool)\r\n    {\r\n        require(addr != ZERO_ADDRESS,\"invalid address\");\r\n        return (shareholderStorage().holderIndices[addr] == 0);\r\n    }\r\n\r\n    function isVerifiedAddress(address addr)\r\n        internal\r\n        view\r\n        returns (bool)\r\n    {\r\n        require(addr != ZERO_ADDRESS,\"invalid address\");\r\n        return (bytes(shareholderStorage().verified[addr]).length > 0);\r\n    }\r\n\r\n    function isNotCancelled(address addr)\r\n        internal\r\n        view\r\n        returns (bool)\r\n    {\r\n        require(addr != ZERO_ADDRESS,\"invalid address\");\r\n        return (shareholderStorage().cancellations[addr] == ZERO_ADDRESS);\r\n    }\r\n\r\n    function isCancelled(address addr)\r\n        internal\r\n        view\r\n        returns (bool)\r\n    {\r\n        require(addr != ZERO_ADDRESS,\"invalid address\");\r\n        if (shareholderStorage().cancellations[addr] == ZERO_ADDRESS) {\r\n            return true;\r\n        }\r\n        return false;\r\n    }\r\n\r\n    /**\r\n     * For use with public offering without restrictions or exemptions\r\n     */\r\n    function isShareholder(address addr)\r\n        internal\r\n        view\r\n        returns (bool)\r\n    {\r\n        require(addr != ZERO_ADDRESS,\"invalid address\");\r\n        bool found = false;\r\n        uint256 length = shareholderStorage().shareholders.length;\r\n        for (uint256 i = 0; i < length; i++) {\r\n            if (shareholderStorage().shareholders[i] == addr) {\r\n                found = true;\r\n            }\r\n        }\r\n        return found;\r\n    }\r\n\r\n    function isAccredited(address addr)\r\n        internal\r\n        view\r\n        returns (bool)\r\n    {\r\n        require(addr != ZERO_ADDRESS,\"invalid address\");\r\n        bool found = false;\r\n        uint256 length = shareholderStorage().shareholders_accredited.length;\r\n        for (uint256 i = 0; i < length; i++) {\r\n            if (shareholderStorage().shareholders_accredited[i] == addr) {\r\n                found = true;\r\n            }\r\n        }\r\n        return found;\r\n    }\r\n\r\n    function isNonAccredited(address addr)\r\n        internal\r\n        view\r\n        returns (bool)\r\n    {\r\n        require(addr != ZERO_ADDRESS,\"invalid address\");\r\n        bool found = false;\r\n        uint256 length = shareholderStorage().shareholders_nonacredited.length;\r\n        for (uint256 i = 0; i < length; i++) {\r\n            if (shareholderStorage().shareholders_nonacredited[i] != addr) {\r\n                found = true;\r\n            }\r\n        }\r\n        return found;\r\n    }\r\n\r\n    function isAffiliate(address addr)\r\n        internal\r\n        view\r\n        returns (bool)\r\n    {\r\n        require(addr != ZERO_ADDRESS,\"invalid address\");\r\n        bool found = false;\r\n        uint256 length = shareholderStorage().shareholders_affiliate.length;\r\n        for (uint256 i = 0; i < length; i++) {\r\n            if (shareholderStorage().shareholders_affiliate[i] != addr) {\r\n                found = true;\r\n            }\r\n        }\r\n        return found;\r\n    }\r\n\r\n    function isSophisticated(address addr)\r\n        internal\r\n        view\r\n        returns (bool)\r\n    {\r\n        require(addr != ZERO_ADDRESS,\"invalid address\");\r\n        bool found = false;\r\n        uint256 length = shareholderStorage().shareholders_sophisticated.length;\r\n        for (uint256 i = 0; i < length; i++) {\r\n            if (shareholderStorage().shareholders_sophisticated[i] != addr) {\r\n                found = true;\r\n            }\r\n        }\r\n        return found;\r\n    }\r\n\r\n    function setMaxUnaccreditInvestors(address offering, uint256 value)\r\n        external\r\n    {\r\n        require(value >= 0,\"cannot be negative\");\r\n        shareholderStorage().maxNonaccredited[offering] = value;\r\n    }\r\n\r\n    /**\r\n     *  Add a verified address, along with an associated verification hash to the contract.\r\n     *  Upon successful addition of a verified address, the contract must emit\r\n     *  `VerifiedAddressAdded(addr, hash, msg.sender)`.\r\n     *  It MUST throw if the supplied address or hash are zero, or if the address has already been supplied.\r\n     *  @param addr The address of the person represented by the supplied hash.\r\n     *  @param hash A cryptographic hash of the address holder's verified information.\r\n     */\r\n    function addVerified(address addr, string memory hash)\r\n        external\r\n    {\r\n        require(addr != ZERO_ADDRESS,\"invalid address\");\r\n        require(isNotCancelled(addr), \"(addVerified) - investor is already cancelled\");\r\n        require(bytes(shareholderStorage().verified[addr]).length ==  0, \"(addVerified) - investor already verified\");\r\n        shareholderStorage().verified[addr] = hash;\r\n        shareholderStorage()._verified.push(addr);\r\n        emit VerifiedAddressAdded(addr, hash, msg.sender);\r\n    }\r\n\r\n    /**\r\n     *  Remove a verified address, and the associated verification hash. If the address is\r\n     *  unkblock.timestampn to the contract then this does nothing. If the address is successfully removed, this\r\n     *  function must emit `VerifiedAddressRemoved(addr, msg.sender)`.\r\n     *  It MUST throw if an attempt is made to remove a verifiedAddress that owns Tokens.\r\n     *  @param addr The verified address to be removed.\r\n     */\r\n    function removeVerified(address addr)\r\n        external\r\n    {\r\n        require(addr != ZERO_ADDRESS,\"invalid address\");\r\n        if (bytes(shareholderStorage().verified[addr]).length != 0) {\r\n            delete shareholderStorage().verified[addr];\r\n            emit VerifiedAddressRemoved(addr, msg.sender);\r\n        }\r\n    }\r\n\r\n    /**\r\n     *  Update the hash for a verified address known to the contract.\r\n     *  Upon successful update of a verified address the contract must emit\r\n     *  `VerifiedAddressUpdated(addr, oldHash, hash, msg.sender)`.\r\n     *  If the hash is the same as the value already stored then\r\n     *  no `VerifiedAddressUpdated` event is to be emitted.\r\n     *  It MUST throw if the hash is zero, or if the address is unverified.\r\n     *  @param addr The verified address of the person represented by the supplied hash.\r\n     *  @param hash A new cryptographic hash of the address holder's updated verified information.\r\n     */\r\n    function updateVerified(address addr, string memory hash)\r\n        external\r\n    {\r\n        require(addr != ZERO_ADDRESS,\"invalid address\");\r\n        require(isVerifiedAddress(addr), \"(updateVerified) - not a verified investor\");\r\n        require(bytes(hash).length != 0, \"(updateVerified) - hash is zero\");\r\n        string memory oldHash = shareholderStorage().verified[addr];\r\n        if (keccak256(abi.encodePacked((oldHash))) != keccak256(abi.encodePacked((hash)))) {\r\n            shareholderStorage().verified[addr] = hash;\r\n            emit VerifiedAddressUpdated(addr, oldHash, hash, msg.sender);\r\n        }\r\n    }\r\n\r\n    /**\r\n     *  Checks to see if the supplied address was superseded.\r\n     *  @param addr The address to check.\r\n     *  @return true if the supplied address was superseded by another address.\r\n     */\r\n    function isSuperseded(address addr)\r\n        external\r\n        view\r\n        returns (bool)\r\n    {\r\n        require(addr != ZERO_ADDRESS,\"invalid address\");\r\n        return shareholderStorage().cancellations[addr] != ZERO_ADDRESS;\r\n    }\r\n\r\n    /**\r\n     *  Checks to see if the supplied address is a share holder.\r\n     *  @param addr The address to check.\r\n     *  @return true if the supplied address owns a token.\r\n     */\r\n    function isHolder(address addr)\r\n        external\r\n        view\r\n        returns (bool)\r\n    {\r\n        require(addr != ZERO_ADDRESS,\"invalid address\");\r\n        return shareholderStorage().holderIndices[addr] != 0;\r\n    }\r\n\r\n    /**\r\n     *  Checks that the supplied hash is associated with the given address.\r\n     *  @param addr The address to test.\r\n     *  @param hash The hash to test.\r\n     *  @return true if the hash matches the one supplied with the address in `addVerified`, or `updateVerified`.\r\n     */\r\n    function hasHash(address addr, bytes32 hash)\r\n        external\r\n        view\r\n        returns (bool)\r\n    {\r\n        require(addr != ZERO_ADDRESS,\"invalid address\");\r\n        return  keccak256(abi.encodePacked((shareholderStorage().verified[addr]))) == keccak256(abi.encodePacked((hash)));\r\n    }\r\n\r\n    /**\r\n     *  The number of addresses that own tokens.\r\n     *  @return the number of unique addresses that own tokens.\r\n     */\r\n    function holderCount()\r\n        external\r\n        view\r\n        returns (uint)\r\n    {\r\n        return shareholderStorage().shareholders.length;\r\n    }\r\n\r\n    /**\r\n     *  By counting the number of token holders using `holderCount`\r\n     *  you can retrieve the complete list of token holders, one at a time.\r\n     *  It MUST throw if `index >= holderCount()`.\r\n     *  @param index The zero-based index of the holder.\r\n     *  @return the address of the token holder with the given index.\r\n     */\r\n    function holderAt(uint256 index)\r\n        external\r\n        view\r\n        returns (address)\r\n    {\r\n        require(index < shareholderStorage().shareholders.length, \"holderAt out of bounds\");\r\n        return shareholderStorage().shareholders[index];\r\n    }\r\n    /**\r\n     * Shareholder level:\r\n     *    1 = non-accredited shareholder\r\n     *    2 = accredited shareholder\r\n     *    3 = affiliate shareholder\r\n     * \r\n     */\r\n    function addShareholder(address offering, address addr, InvestorType level)\r\n        external\r\n    {\r\n        require(addr != ZERO_ADDRESS,\"invalid address\");\r\n        if (shareholderStorage().holderIndices[addr] == 0) {\r\n            if (level == InvestorType.accredited) {\r\n                require(shareholderStorage().shareholders_nonacredited.length < shareholderStorage().maxNonaccredited[offering], \"will exceed the maximum number of non-accredited investors\");\r\n                shareholderStorage().shareholders_nonacredited.push(addr);\r\n                shareholderStorage().holderIndices[addr] = 1;\r\n            } else if (level == InvestorType.affiliate) {\r\n              shareholderStorage().shareholders.push(addr);\r\n              shareholderStorage().holderIndices[addr] = 1;\r\n            } else if (level == InvestorType.nonaccredited) {\r\n              shareholderStorage().shareholders_affiliate.push(addr);\r\n              shareholderStorage().holderIndices[addr] = 1;\r\n            }\r\n            shareholderStorage()._shareholders[offering].push(addr);\r\n        }\r\n    }\r\n\r\n    /**\r\n     *  If the address is not in the `shareholders` array then push it\r\n     *  and update the `holderIndices` mapping.\r\n     *  @param addr The address to add as a shareholder if it's not already.\r\n     */\r\n    function updateShareholders(address addr)\r\n        external\r\n    {\r\n        require(addr != ZERO_ADDRESS,\"invalid address\");\r\n        require(isVerifiedAddress(addr), \"investor is not verified\");\r\n        if (shareholderStorage().holderIndices[addr] == 0) {\r\n          shareholderStorage().shareholders.push(addr);\r\n          shareholderStorage().holderIndices[addr] = 1;\r\n        }\r\n    }\r\n\r\n    /**\r\n     *  If the address is in the `shareholders` array and the forthcoming\r\n     *  transfer or transferFrom will reduce their balance to 0, then\r\n     *  we need to remove them from the shareholders array.\r\n     *  @param addr The address to prune if their balance will be reduced to 0.\r\n     @  @dev see https://ethereum.stackexchange.com/a/39311\r\n     */\r\n    function pruneShareholders(address addr, uint256 value)\r\n        external\r\n    {\r\n        require(addr != ZERO_ADDRESS,\"invalid address\");\r\n        uint256 balance = addr.balance - value;\r\n        if (balance > 0) {\r\n            return;\r\n        }\r\n        uint256 holderIndex = shareholderStorage().holderIndices[addr] - 1;\r\n        uint256 lastIndex = shareholderStorage().shareholders.length - 1;\r\n        address lastHolder = shareholderStorage().shareholders[lastIndex];\r\n        // overwrite the addr's slot with the last shareholder\r\n        shareholderStorage().shareholders[holderIndex] = lastHolder;\r\n        // also copy over the index (thanks @mohoff for spotting this)\r\n        // ref https://github.com/davesag/ERC884-reference-implementation/issues/20\r\n        shareholderStorage().holderIndices[lastHolder] = shareholderStorage().holderIndices[addr];\r\n        // trim the shareholders array (which drops the last entry)\r\n        delete shareholderStorage().shareholders[shareholderStorage().shareholders.length - 1];\r\n        // and zero out the index for addr\r\n        shareholderStorage().holderIndices[addr] = 0;\r\n    }\r\n\r\n    /**\r\n     *  Cancel the original address and reissue the Tokens to the replacement address.\r\n     *  Access to this function MUST be strictly controlled.\r\n     *  The `original` address MUST be removed from the set of verified addresses.\r\n     *  Throw if the `original` address supplied is not a \r\n     *  Throw if the replacement address is not a verified address.\r\n     *  This function MUST emit the `VerifiedAddressSuperseded` event.\r\n     *  @param original The address to be superseded. This address MUST NOT be reused.\r\n     *  @param replacement The address  that supersedes the original. This address MUST be verified.\r\n     */\r\n    function cancelAndReissue(address original, address replacement)\r\n       external\r\n       returns (address, address)\r\n    {\r\n        require(original != ZERO_ADDRESS,\"invalid address\");\r\n        require(replacement != ZERO_ADDRESS,\"invalid address\");\r\n        require(isShareholder(original), \"(cancelandReissue) - original investor is not a shareholder\");\r\n        require(isNotShareholder(replacement), \"(cancelandReissue) - replacement investor is already a shareholder, requires a new wallet\");\r\n        require(isVerifiedAddress(replacement), \"(cancelandReissue) - replacement investor is not a verified investor\");\r\n        // replace the original address in the shareholders array\r\n        // and update all the associated mappings\r\n        shareholderStorage().verified[original] = \"\";\r\n        shareholderStorage().cancellations[original] = replacement;\r\n        uint256 holderIndex = shareholderStorage().holderIndices[original] - 1;\r\n        shareholderStorage().shareholders[holderIndex] = replacement;\r\n        shareholderStorage().holderIndices[replacement] = shareholderStorage().holderIndices[original];\r\n        shareholderStorage().holderIndices[original] = 0;\r\n        emit VerifiedAddressSuperseded(original, replacement, msg.sender);\r\n        //transferBalances(original, replacement);\r\n        return (original, replacement);\r\n    }\r\n}",
  "sourcePath": "/Volumes/HOME/pingleware-contracts/contracts/finance/Shareholder.sol",
  "compiler": {
    "name": "solc",
    "version": "0.8.18+commit.87f61d96.Emscripten.clang"
  },
  "schemaVersion": "3.4.12",
  "updatedAt": "2024-05-23T18:56:25.191Z",
  "devdoc": {
    "kind": "dev",
    "methods": {
      "addVerified(address,string)": {
        "params": {
          "addr": "The address of the person represented by the supplied hash.",
          "hash": "A cryptographic hash of the address holder's verified information."
        }
      },
      "cancelAndReissue(address,address)": {
        "params": {
          "original": "The address to be superseded. This address MUST NOT be reused.",
          "replacement": "The address  that supersedes the original. This address MUST be verified."
        }
      },
      "hasHash(address,bytes32)": {
        "params": {
          "addr": "The address to test.",
          "hash": "The hash to test."
        },
        "returns": {
          "_0": "true if the hash matches the one supplied with the address in `addVerified`, or `updateVerified`."
        }
      },
      "holderAt(uint256)": {
        "params": {
          "index": "The zero-based index of the holder."
        },
        "returns": {
          "_0": "the address of the token holder with the given index."
        }
      },
      "holderCount()": {
        "returns": {
          "_0": "the number of unique addresses that own tokens."
        }
      },
      "isHolder(address)": {
        "params": {
          "addr": "The address to check."
        },
        "returns": {
          "_0": "true if the supplied address owns a token."
        }
      },
      "isSuperseded(address)": {
        "params": {
          "addr": "The address to check."
        },
        "returns": {
          "_0": "true if the supplied address was superseded by another address."
        }
      },
      "pruneShareholders(address,uint256)": {
        "params": {
          "addr": "The address to prune if their balance will be reduced to 0. @dev see https://ethereum.stackexchange.com/a/39311"
        }
      },
      "removeVerified(address)": {
        "params": {
          "addr": "The verified address to be removed."
        }
      },
      "updateShareholders(address)": {
        "params": {
          "addr": "The address to add as a shareholder if it's not already."
        }
      },
      "updateVerified(address,string)": {
        "params": {
          "addr": "The verified address of the person represented by the supplied hash.",
          "hash": "A new cryptographic hash of the address holder's updated verified information."
        }
      }
    },
    "version": 1
  },
  "userdoc": {
    "kind": "user",
    "methods": {
      "addShareholder(address,address,Shareholder.InvestorType)": {
        "notice": "Shareholder level:    1 = non-accredited shareholder    2 = accredited shareholder    3 = affiliate shareholder "
      },
      "addVerified(address,string)": {
        "notice": "Add a verified address, along with an associated verification hash to the contract.  Upon successful addition of a verified address, the contract must emit  `VerifiedAddressAdded(addr, hash, msg.sender)`.  It MUST throw if the supplied address or hash are zero, or if the address has already been supplied."
      },
      "cancelAndReissue(address,address)": {
        "notice": "Cancel the original address and reissue the Tokens to the replacement address.  Access to this function MUST be strictly controlled.  The `original` address MUST be removed from the set of verified addresses.  Throw if the `original` address supplied is not a   Throw if the replacement address is not a verified address.  This function MUST emit the `VerifiedAddressSuperseded` event."
      },
      "hasHash(address,bytes32)": {
        "notice": "Checks that the supplied hash is associated with the given address."
      },
      "holderAt(uint256)": {
        "notice": "By counting the number of token holders using `holderCount`  you can retrieve the complete list of token holders, one at a time.  It MUST throw if `index >= holderCount()`."
      },
      "holderCount()": {
        "notice": "The number of addresses that own tokens."
      },
      "isHolder(address)": {
        "notice": "Checks to see if the supplied address is a share holder."
      },
      "isSuperseded(address)": {
        "notice": "Checks to see if the supplied address was superseded."
      },
      "pruneShareholders(address,uint256)": {
        "notice": "If the address is in the `shareholders` array and the forthcoming  transfer or transferFrom will reduce their balance to 0, then  we need to remove them from the shareholders array."
      },
      "removeVerified(address)": {
        "notice": "Remove a verified address, and the associated verification hash. If the address is  unkblock.timestampn to the contract then this does nothing. If the address is successfully removed, this  function must emit `VerifiedAddressRemoved(addr, msg.sender)`.  It MUST throw if an attempt is made to remove a verifiedAddress that owns Tokens."
      },
      "updateShareholders(address)": {
        "notice": "If the address is not in the `shareholders` array then push it  and update the `holderIndices` mapping."
      },
      "updateVerified(address,string)": {
        "notice": "Update the hash for a verified address known to the contract.  Upon successful update of a verified address the contract must emit  `VerifiedAddressUpdated(addr, oldHash, hash, msg.sender)`.  If the hash is the same as the value already stored then  no `VerifiedAddressUpdated` event is to be emitted.  It MUST throw if the hash is zero, or if the address is unverified."
      }
    },
    "version": 1
  }
}