{
  "contractName": "Shares",
  "abi": [
    {
      "inputs": [
        {
          "internalType": "address",
          "name": "transferagent_contract",
          "type": "address"
        }
      ],
      "stateMutability": "nonpayable",
      "type": "constructor"
    },
    {
      "inputs": [
        {
          "internalType": "address",
          "name": "offering",
          "type": "address"
        }
      ],
      "name": "getClass",
      "outputs": [
        {
          "internalType": "enum Shares.AssetClass",
          "name": "",
          "type": "uint8"
        }
      ],
      "stateMutability": "view",
      "type": "function"
    },
    {
      "inputs": [
        {
          "internalType": "address",
          "name": "offering",
          "type": "address"
        },
        {
          "internalType": "enum Shares.AssetClass",
          "name": "_class",
          "type": "uint8"
        }
      ],
      "name": "setClass",
      "outputs": [],
      "stateMutability": "nonpayable",
      "type": "function"
    },
    {
      "inputs": [
        {
          "internalType": "address",
          "name": "offering",
          "type": "address"
        }
      ],
      "name": "getShares",
      "outputs": [
        {
          "internalType": "uint256",
          "name": "",
          "type": "uint256"
        }
      ],
      "stateMutability": "view",
      "type": "function"
    },
    {
      "inputs": [
        {
          "internalType": "address",
          "name": "offering",
          "type": "address"
        }
      ],
      "name": "getMaxPPU",
      "outputs": [
        {
          "internalType": "uint256",
          "name": "",
          "type": "uint256"
        }
      ],
      "stateMutability": "view",
      "type": "function"
    },
    {
      "inputs": [
        {
          "internalType": "address",
          "name": "offering",
          "type": "address"
        }
      ],
      "name": "getMaxAggregate",
      "outputs": [
        {
          "internalType": "uint256",
          "name": "",
          "type": "uint256"
        }
      ],
      "stateMutability": "view",
      "type": "function"
    },
    {
      "inputs": [
        {
          "internalType": "address",
          "name": "offering",
          "type": "address"
        }
      ],
      "name": "getFee",
      "outputs": [
        {
          "internalType": "uint256",
          "name": "",
          "type": "uint256"
        }
      ],
      "stateMutability": "view",
      "type": "function"
    },
    {
      "inputs": [
        {
          "internalType": "address",
          "name": "offering",
          "type": "address"
        }
      ],
      "name": "getTotalSupply",
      "outputs": [
        {
          "internalType": "uint256",
          "name": "",
          "type": "uint256"
        }
      ],
      "stateMutability": "view",
      "type": "function"
    },
    {
      "inputs": [
        {
          "internalType": "address",
          "name": "offering",
          "type": "address"
        },
        {
          "internalType": "uint256",
          "name": "amount",
          "type": "uint256"
        }
      ],
      "name": "addTotalSupply",
      "outputs": [],
      "stateMutability": "nonpayable",
      "type": "function"
    },
    {
      "inputs": [
        {
          "internalType": "address",
          "name": "offering",
          "type": "address"
        },
        {
          "internalType": "uint256",
          "name": "amount",
          "type": "uint256"
        }
      ],
      "name": "isPriceBelowParValue",
      "outputs": [
        {
          "internalType": "bool",
          "name": "",
          "type": "bool"
        }
      ],
      "stateMutability": "view",
      "type": "function"
    },
    {
      "inputs": [
        {
          "internalType": "address",
          "name": "offering",
          "type": "address"
        }
      ],
      "name": "getTotalAuthorized",
      "outputs": [
        {
          "internalType": "uint256",
          "name": "",
          "type": "uint256"
        }
      ],
      "stateMutability": "view",
      "type": "function"
    },
    {
      "inputs": [
        {
          "internalType": "address",
          "name": "offering",
          "type": "address"
        }
      ],
      "name": "getOutstanding",
      "outputs": [
        {
          "internalType": "uint256",
          "name": "",
          "type": "uint256"
        }
      ],
      "stateMutability": "view",
      "type": "function"
    },
    {
      "inputs": [
        {
          "internalType": "address",
          "name": "offering",
          "type": "address"
        },
        {
          "internalType": "uint256",
          "name": "amount",
          "type": "uint256"
        }
      ],
      "name": "addOutstanding",
      "outputs": [],
      "stateMutability": "nonpayable",
      "type": "function"
    },
    {
      "inputs": [
        {
          "internalType": "address",
          "name": "offering",
          "type": "address"
        },
        {
          "internalType": "uint256",
          "name": "amount",
          "type": "uint256"
        }
      ],
      "name": "subOutstanding",
      "outputs": [],
      "stateMutability": "nonpayable",
      "type": "function"
    },
    {
      "inputs": [
        {
          "internalType": "address",
          "name": "offering",
          "type": "address"
        }
      ],
      "name": "isRestrictedSecurity",
      "outputs": [
        {
          "internalType": "bool",
          "name": "",
          "type": "bool"
        }
      ],
      "stateMutability": "view",
      "type": "function"
    },
    {
      "inputs": [
        {
          "internalType": "address",
          "name": "offering",
          "type": "address"
        },
        {
          "internalType": "string",
          "name": "cusip",
          "type": "string"
        }
      ],
      "name": "assignCUSIP",
      "outputs": [],
      "stateMutability": "nonpayable",
      "type": "function"
    },
    {
      "inputs": [
        {
          "internalType": "address",
          "name": "offering",
          "type": "address"
        },
        {
          "internalType": "string",
          "name": "isin",
          "type": "string"
        }
      ],
      "name": "assignISIN",
      "outputs": [],
      "stateMutability": "nonpayable",
      "type": "function"
    },
    {
      "inputs": [
        {
          "internalType": "address",
          "name": "offering",
          "type": "address"
        },
        {
          "internalType": "address",
          "name": "investor",
          "type": "address"
        },
        {
          "internalType": "bytes32",
          "name": "image",
          "type": "bytes32"
        }
      ],
      "name": "saveCertificate",
      "outputs": [],
      "stateMutability": "nonpayable",
      "type": "function"
    },
    {
      "inputs": [
        {
          "internalType": "address",
          "name": "offering",
          "type": "address"
        },
        {
          "internalType": "uint256",
          "name": "value",
          "type": "uint256"
        }
      ],
      "name": "setParValue",
      "outputs": [],
      "stateMutability": "nonpayable",
      "type": "function"
    },
    {
      "inputs": [
        {
          "internalType": "address",
          "name": "offering",
          "type": "address"
        }
      ],
      "name": "getParValue",
      "outputs": [
        {
          "internalType": "uint256",
          "name": "",
          "type": "uint256"
        }
      ],
      "stateMutability": "view",
      "type": "function"
    },
    {
      "inputs": [
        {
          "internalType": "address",
          "name": "offering",
          "type": "address"
        },
        {
          "internalType": "bool",
          "name": "value",
          "type": "bool"
        }
      ],
      "name": "setRestricted",
      "outputs": [],
      "stateMutability": "nonpayable",
      "type": "function"
    }
  ],
  "bytecode": "0x60803461007457610e2780380390601f19601f83011683019183831067ffffffffffffffff841117610079578084926020946040528339810103126100745751600160a060020a038116908190036100745760008054600160a060020a031916919091179055604051610d7e90816100a98239f35b600080fd5b7f4e487b7100000000000000000000000000000000000000000000000000000000600052604160045260246000fdfe6040608081526004908136101561001557600080fd5b60009160e060020a833504906305dc682c8214610ab05781630b08058c14610a175781630cd1bbe3146109ae578163144a313c146109645781631549be43146109395781631d99c7521461073357816338fc7c2d146106cb57816352e4100b146106a057816368da10ae146106755781636965b5a3146105bd5781636e20b1b0146105745781638d80847714610525578163913f962c146104ca5781639d3ec4c7146102d0578163a932dfd9146102a5578163b60bbd31146101ce578163b88c9148146101a3578163bc5c8eb11461017757508063d40201701461014d5763f04da65b1461010257600080fd5b34610149576020366003190112610149576020916005908290600160a060020a0361012b610b6b565b168152600080516020610d2983398151915285522001549051908152f35b5080fd5b5034610149576020366003190112610149576020916007908290600160a060020a0361012b610b6b565b90503461019f57602036600319011261019f576020928290600160a060020a0361012b610b6b565b8280fd5b50503461014957602036600319011261014957602091600b908290600160a060020a0361012b610b6b565b9190503461019f578060031936011261019f576101e9610b6b565b916101f5331515610c6f565b8354825160e660020a62157d55028152600160a060020a03948516928101839052906020908290602490829088165afa90811561029b579361024491600895879161026d575b50163314610cd9565b8352600080516020610d298339815191526020528220016102686024358254610c48565b905580f35b61028e915060203d8111610294575b6102868183610b86565b810190610cba565b3861023b565b503d61027c565b83513d87823e3d90fd5b50503461014957602036600319011261014957602091600a908290600160a060020a0361012b610b6b565b90503461019f576102e036610bc3565b90926102ed331515610c6f565b8454815160e660020a62157d55028152600160a060020a03958616858201819052602096909290919087908290602490829086165afa9081156104c0579061033f929189916104a95750163314610cd9565b8552600080516020610d2983398151915284528420815160029182019490926001604060020a0384116104935785546001958482049187168015610489575b848310146104735750601f811161042f575b5081601f85116001146103ca575083945086936103bf575b505082810292600802900a60001904191617905580f35b0151915038806103a8565b919084601f959495198116888a52848a20948a905b8983831061041557505050106103fa575b5050500201905580f35b01516008601f841602840a60001904191690553880806103f0565b8587015188559096019594850194879350908101906103df565b8688528288208380601f880104820192818810610469575b601f0104019086905b82811061045e575050610390565b898155018690610450565b9192508291610447565b60e060020a634e487b7102895260229052602488fd5b91607f169161037e565b60e060020a634e487b7102875260418552602487fd5b61028e9150883d8a11610294576102868183610b86565b84513d8a823e3d90fd5b5050346101495780600319360112610149576104e4610b6b565b9060243591600983101561052157600160a060020a03168352600080516020610d2983398151915260205282209060ff8019835416911617905580f35b8380fd5b5050346101495760203660031901126101495760209160ff906006908390600160a060020a03610553610b6b565b168152600080516020610d2983398151915286522001541690519015158152f35b90503461019f578160031936011261019f576020928290600160a060020a0361059b610b6b565b168152600080516020610d298339815191528552200154905190602435118152f35b90503461019f578160031936011261019f576105d7610b6b565b9160243591821515809303610671576105f1331515610c6f565b8454825160e660020a62157d55028152600160a060020a03958616928101839052906020908290602490829089165afa90811561066757946106409160069596889161026d5750163314610cd9565b8452600080516020610d298339815191526020528320019060ff8019835416911617905580f35b83513d88823e3d90fd5b8480fd5b50503461014957602036600319011261014957602091600c908290600160a060020a0361012b610b6b565b505034610149576020366003190112610149576020916009908290600160a060020a0361012b610b6b565b9190503461019f578060031936011261019f57600890600160a060020a036106f1610b6b565b168452600080516020610d29833981519152602052832001805491602435830392831161071d57505580f35b60e060020a634e487b7102845260119052602483fd5b8383346101495761074336610bc3565b939091610751331515610c6f565b8354815160e660020a62157d55028152600160a060020a03948516848201819052602095909290919086908290602490829086165afa90811561092f57916107a791600395949389916109125750163314610cd9565b8552600080516020610d2983398151915284528420855191019290916001604060020a0383116108fc5783546001916002820491831680156108f2575b848310146108dc5750601f8111610898575b5081601f8411600114610834575050839482939492610829575b5050816002029160080260020a60001904191617905580f35b015190508480610810565b909291601f198316968587528287209287905b8982106108815750508360029596979810610866575050500201905580f35b01516008601f841602840a60001904191690558580806103f0565b808785968294968601518155019501930190610847565b8486528286208380601f8701048201928187106108d2575b601f0104019082905b8281106108c75750506107f6565b8781550182906108b9565b91925082916108b0565b60e060020a634e487b7102875260229052602486fd5b91607f16916107e4565b60e060020a634e487b7102855260419052602484fd5b6109299150883d8a11610294576102868183610b86565b8a61023b565b84513d89823e3d90fd5b505034610149576020366003190112610149576020916008908290600160a060020a0361012b610b6b565b505034610149578060031936011261014957600c90600160a060020a03610989610b6b565b168352600080516020610d298339815191526020528220016102686024358254610c48565b83833461014957602036600319011261014957600160a060020a036109d1610b6b565b168252600080516020610d2983398151915260205260ff81832054169051916009821015610a0157602083838152f35b60e060020a634e487b7102815260218452602490fd5b90503461019f578160031936011261019f57610a31610b6b565b610a3c331515610c6f565b8354835160e660020a62157d55028152600160a060020a039283168482018190529290916020908390602490829085165afa8015610aa657610a8792879161026d5750163314610cd9565b8352600080516020610d29833981519152602052602435918320015580f35b85513d88823e3d90fd5b90503461019f57606036600319011261019f57610acb610b6b565b602435600160a060020a03818116939291849003610b6757610aee331515610c6f565b8554855160e660020a62157d550281529282169383018490526020908390602490829085165afa8015610aa657610b2e92879161026d5750163314610cd9565b83527f54970566f6be618430aa9102c0fa36928c087f0d98124c631513f83069647e116020528183209083526020526044359082205580f35b8580fd5b60043590600160a060020a0382168203610b8157565b600080fd5b601f909101601f19168101906001604060020a03821190821017610ba957604052565b60e060020a634e487b710260009081526041600452602490fd5b906040600319830112610b8157600435600160a060020a0381168103610b8157916001604060020a03602435818111610b815782602382011215610b81578060040135918211610ba95760405192610c25601f8401601f191660200185610b86565b82845260248383010111610b815781600092602460209301838601378301015290565b91908201809211610c5557565b60e060020a634e487b710260009081526011600452602490fd5b15610c7657565b60405160e560020a62461bcd0281526020600482015260166024820152605260020a751a5b9d985b1a59081d1c985b9cd9995c881859d95b9d026044820152606490fd5b90816020910312610b815751600160a060020a0381168103610b815790565b15610ce057565b60405160e560020a62461bcd02815260206004820152601a60248201527f6e6f7420612076616c6964207472616e73666572206167656e740000000000006044820152606490fdfe54970566f6be618430aa9102c0fa36928c087f0d98124c631513f83069647e10a2646970667358221220d848bf97d99c57645ff282769fd62394d59c5dbd4fc6ffdddb27f68546670ff464736f6c63430008120033",
  "immutableReferences": {},
  "source": "// SPDX-License-Identifier: CC-BY-4.0\r\npragma solidity >=0.4.22 <0.9.0;\r\n\r\nimport \"../interfaces/ISecurities.sol\";\r\nimport \"../interfaces/ITransferAgent.sol\";\r\n\r\ncontract Shares {\r\n    enum AssetClass {\r\n        Equity,\r\n        Bonds,\r\n        Commodity,\r\n        RealEstate,\r\n        PreferredStocks,\r\n        MultiAssets,\r\n        Alternatives,\r\n        Volatile,\r\n        Currency\r\n    }\r\n\r\n    enum PrivateAssetClass {\r\n        Equity,\r\n        Debt,\r\n  \t    OptionWarrantRightAcquireAnotherSecurity,\r\n  \t    AcquireSecurityUponExerciseOfOptionWarrantAcquireSecurity,\r\n      \tPooledInvestmentFundInterests,\r\n        TenantinCommon,\r\n        MineralProperty,\r\n        Other\r\n    }\r\n\r\n    struct Security {\r\n        AssetClass  class;\r\n        string      FILENUMBER;     // the File Number assigned by the SEC for this offering\r\n        string      CUSIP;\r\n        string      ISIN;\r\n        uint256     parValue;\r\n        uint256     shares;\r\n        bool        restricted;\r\n        uint256     authorized;\r\n        uint256     outstanding;\r\n        uint256     max_ppu;\r\n        uint256     max_aggregate;\r\n        uint256     fee;\r\n        uint256     totalSupply;\r\n    }\r\n\r\n    struct ShareStorage {\r\n        mapping (address => Security) securities;\r\n        mapping (address => mapping(address => bytes32)) certificate;\r\n    }\r\n\r\n    ITransferAgent TransferAgent;\r\n\r\n    constructor(address transferagent_contract) {\r\n        TransferAgent = ITransferAgent(transferagent_contract);\r\n    }\r\n\r\n    function shareStorage()\r\n        internal\r\n        pure\r\n        returns (ShareStorage storage ds)\r\n    {\r\n        bytes32 position = keccak256(\"share.storage\");\r\n        assembly { ds.slot := position }\r\n    }\r\n\r\n    function getClass(address offering)\r\n        external\r\n        view\r\n        returns (AssetClass)\r\n    {\r\n        return shareStorage().securities[offering].class;\r\n    }\r\n\r\n    function setClass(address offering,AssetClass _class)\r\n        external\r\n    {\r\n        shareStorage().securities[offering].class = _class;\r\n    }\r\n\r\n    function getShares(address offering)\r\n        external\r\n        view\r\n        returns (uint256)\r\n    {\r\n        return shareStorage().securities[offering].shares;\r\n    }\r\n\r\n    function getMaxPPU(address offering)\r\n        external\r\n        view\r\n        returns (uint256)\r\n    {\r\n        return shareStorage().securities[offering].max_ppu;\r\n    }\r\n\r\n    function getMaxAggregate(address offering)\r\n        external\r\n        view\r\n        returns (uint256)\r\n    {\r\n        return shareStorage().securities[offering].max_aggregate;\r\n    }\r\n\r\n    function getFee(address offering)\r\n        external\r\n        view\r\n        returns (uint256)\r\n    {\r\n        return shareStorage().securities[offering].fee;\r\n    }\r\n\r\n    function getTotalSupply(address offering)\r\n        external\r\n        view\r\n        returns (uint256)\r\n    {\r\n        return shareStorage().securities[offering].totalSupply;\r\n    }\r\n\r\n    function addTotalSupply(address offering, uint256 amount)\r\n        external\r\n    {\r\n        shareStorage().securities[offering].totalSupply += amount;\r\n    }\r\n\r\n\r\n    function isPriceBelowParValue(address offering, uint amount)\r\n        external\r\n        view\r\n        returns (bool)\r\n    {\r\n      return (amount > shareStorage().securities[offering].parValue);\r\n    }\r\n\r\n    function getTotalAuthorized(address offering)\r\n        external\r\n        view\r\n        returns (uint256)\r\n    {\r\n        return (shareStorage().securities[offering].authorized);\r\n    }\r\n\r\n    function getOutstanding(address offering)\r\n        external\r\n        view\r\n        returns (uint256)\r\n    {\r\n        return (shareStorage().securities[offering].outstanding);\r\n    }\r\n\r\n    function addOutstanding(address offering, uint256 amount)\r\n        external\r\n    {\r\n        require(msg.sender != address(0),\"invalid transfer agent\");\r\n        require(msg.sender  == TransferAgent.getTransferAgent(offering),\"not a valid transfer agent\");\r\n        shareStorage().securities[offering].outstanding += amount;\r\n    }\r\n\r\n    function subOutstanding(address offering, uint256 amount)\r\n        external\r\n    {\r\n        shareStorage().securities[offering].outstanding-= amount;\r\n    }\r\n\r\n    function isRestrictedSecurity(address offering)\r\n        external\r\n        view\r\n        returns (bool)\r\n    {\r\n      return (shareStorage().securities[offering].restricted);\r\n    }\r\n\r\n    function assignCUSIP(address offering, string memory cusip)\r\n        external\r\n    {\r\n        require(msg.sender != address(0),\"invalid transfer agent\");\r\n        require(msg.sender  == TransferAgent.getTransferAgent(offering),\"not a valid transfer agent\");\r\n        shareStorage().securities[offering].CUSIP = cusip;\r\n    }\r\n\r\n    function assignISIN(address offering,  string memory isin)\r\n        external\r\n    {\r\n        require(msg.sender != address(0),\"invalid transfer agent\");\r\n        require(msg.sender  == TransferAgent.getTransferAgent(offering),\"not a valid transfer agent\");\r\n        shareStorage().securities[offering].ISIN = isin;\r\n    }\r\n\r\n    function saveCertificate(address offering,address investor, bytes32 image)\r\n        external\r\n    {\r\n        require(msg.sender != address(0),\"invalid transfer agent\");\r\n        require(msg.sender  == TransferAgent.getTransferAgent(offering),\"not a valid transfer agent\");\r\n        shareStorage().certificate[offering][investor] = image;\r\n    }\r\n\r\n    function setParValue(address offering, uint256 value)\r\n        external\r\n    {\r\n        require(msg.sender != address(0),\"invalid transfer agent\");\r\n        require(msg.sender == TransferAgent.getTransferAgent(offering),\"not a valid transfer agent\");\r\n        shareStorage().securities[offering].parValue = value;\r\n    }\r\n\r\n    function getParValue(address offering)\r\n        external\r\n        view\r\n       returns (uint256)\r\n    {\r\n        return shareStorage().securities[offering].parValue;\r\n    }\r\n\r\n    function setRestricted(address offering, bool value)\r\n        external\r\n    {\r\n        require(msg.sender != address(0),\"invalid transfer agent\");\r\n        require(msg.sender == TransferAgent.getTransferAgent(offering),\"not a valid transfer agent\");\r\n        shareStorage().securities[offering].restricted = value;\r\n    }\r\n}",
  "sourcePath": "/Volumes/HOME/pingleware-contracts/contracts/finance/Shares.sol",
  "compiler": {
    "name": "solc",
    "version": "0.8.18+commit.87f61d96.Emscripten.clang"
  },
  "schemaVersion": "3.4.12",
  "updatedAt": "2024-05-23T18:56:25.233Z",
  "devdoc": {
    "kind": "dev",
    "methods": {},
    "version": 1
  },
  "userdoc": {
    "kind": "user",
    "methods": {},
    "version": 1
  }
}