{
  "contractName": "Shareholder",
  "abi": [
    {
      "anonymous": false,
      "inputs": [
        {
          "indexed": false,
          "internalType": "address",
          "name": "addr",
          "type": "address"
        },
        {
          "indexed": false,
          "internalType": "string",
          "name": "hash",
          "type": "string"
        },
        {
          "indexed": false,
          "internalType": "address",
          "name": "sender",
          "type": "address"
        }
      ],
      "name": "VerifiedAddressAdded",
      "type": "event"
    },
    {
      "anonymous": false,
      "inputs": [
        {
          "indexed": false,
          "internalType": "address",
          "name": "addr",
          "type": "address"
        },
        {
          "indexed": false,
          "internalType": "address",
          "name": "sender",
          "type": "address"
        }
      ],
      "name": "VerifiedAddressRemoved",
      "type": "event"
    },
    {
      "anonymous": false,
      "inputs": [
        {
          "indexed": false,
          "internalType": "address",
          "name": "addr1",
          "type": "address"
        },
        {
          "indexed": false,
          "internalType": "address",
          "name": "addr2",
          "type": "address"
        },
        {
          "indexed": false,
          "internalType": "address",
          "name": "addr3",
          "type": "address"
        }
      ],
      "name": "VerifiedAddressSuperseded",
      "type": "event"
    },
    {
      "anonymous": false,
      "inputs": [
        {
          "indexed": false,
          "internalType": "address",
          "name": "addr",
          "type": "address"
        },
        {
          "indexed": false,
          "internalType": "string",
          "name": "oldhash",
          "type": "string"
        },
        {
          "indexed": false,
          "internalType": "string",
          "name": "hash",
          "type": "string"
        },
        {
          "indexed": false,
          "internalType": "address",
          "name": "sender",
          "type": "address"
        }
      ],
      "name": "VerifiedAddressUpdated",
      "type": "event"
    },
    {
      "inputs": [
        {
          "internalType": "address",
          "name": "addr",
          "type": "address"
        }
      ],
      "name": "isSuperseded",
      "outputs": [
        {
          "internalType": "bool",
          "name": "",
          "type": "bool"
        }
      ],
      "stateMutability": "view",
      "type": "function"
    },
    {
      "inputs": [
        {
          "internalType": "address",
          "name": "addr",
          "type": "address"
        }
      ],
      "name": "isHolder",
      "outputs": [
        {
          "internalType": "bool",
          "name": "",
          "type": "bool"
        }
      ],
      "stateMutability": "view",
      "type": "function"
    },
    {
      "inputs": [
        {
          "internalType": "address",
          "name": "addr",
          "type": "address"
        },
        {
          "internalType": "bytes32",
          "name": "hash",
          "type": "bytes32"
        }
      ],
      "name": "hasHash",
      "outputs": [
        {
          "internalType": "bool",
          "name": "",
          "type": "bool"
        }
      ],
      "stateMutability": "view",
      "type": "function"
    },
    {
      "inputs": [],
      "name": "holderCount",
      "outputs": [
        {
          "internalType": "uint256",
          "name": "",
          "type": "uint256"
        }
      ],
      "stateMutability": "view",
      "type": "function"
    },
    {
      "inputs": [
        {
          "internalType": "uint256",
          "name": "index",
          "type": "uint256"
        }
      ],
      "name": "holderAt",
      "outputs": [
        {
          "internalType": "address",
          "name": "",
          "type": "address"
        }
      ],
      "stateMutability": "view",
      "type": "function"
    }
  ],
  "bytecode": "0x611a90610053600b82828239805160001a607314610046577f4e487b7100000000000000000000000000000000000000000000000000000000600052600060045260246000fd5b30600052607381538281f3fe73000000000000000000000000000000000000000030146080604052600436106100bc5760e060020a60003504630e54d1fc81146100c1578063197bc336146100e35780631aab9a9f1461011357806320dc4785146101295780632a5de4d9146101495780632da7293e146101695780634487b3921461018c57806355c904d3146101ac57806379f64720146101cc578063aa4a637b146101fa578063ac8a2af01461021a578063d4d7b19a1461023a578063f3221c7f1461024d575b600080fd5b8180156100cd57600080fd5b506100e16100dc366004611509565b610260565b005b6100f66100f1366004611533565b61044c565b604051600160a060020a0390911681526020015b60405180910390f35b61011b6104de565b60405190815260200161010a565b81801561013557600080fd5b506100e161014436600461154c565b6104f1565b81801561015557600080fd5b506100e1610164366004611509565b610784565b61017c610177366004611597565b6107b2565b604051901515815260200161010a565b81801561019857600080fd5b506100e16101a7366004611597565b610811565b8180156101b857600080fd5b506100e16101c73660046115d3565b6108da565b8180156101d857600080fd5b506101ec6101e7366004611694565b610ab2565b60405161010a9291906116c7565b81801561020657600080fd5b506100e16102153660046115d3565b610e4c565b81801561022657600080fd5b506100e1610235366004611597565b6110ae565b61017c610248366004611597565b6111b8565b61017c61025b366004611509565b61120f565b600160a060020a0382166102925760405160e560020a62461bcd028152600401610289906116e1565b60405180910390fd5b60006102a882600160a060020a03851631611727565b905080156102b557505050565b600060016102c16112ba565b600160a060020a038616600090815260029190910160205260409020546102e89190611727565b9050600060016102f66112ba565b600501546103049190611727565b905060006103106112ba565b60050182815481106103245761032461173a565b600091825260209091200154600160a060020a03169050806103446112ba565b60050184815481106103585761035861173a565b9060005260206000200160006101000a815481600160a060020a030219169083600160a060020a0316021790555061038e6112ba565b600160a060020a038716600090815260029190910160205260409020546103b36112ba565b600160a060020a038316600090815260029190910160205260409020556103d86112ba565b60050160016103e56112ba565b600501546103f39190611727565b815481106104035761040361173a565b600091825260208220018054600160a060020a03191690556104236112ba565b600160a060020a0390971660009081526002979097016020526040909620959095555050505050565b60006104566112ba565b6005015482106104a75760405160e560020a62461bcd0281526020600482015260166024820152605060020a75686f6c6465724174206f7574206f6620626f756e6473026044820152606401610289565b6104af6112ba565b60050182815481106104c3576104c361173a565b600091825260209091200154600160a060020a031692915050565b60006104e86112ba565b60050154919050565b600160a060020a03821661051a5760405160e560020a62461bcd028152600401610289906116e1565b6105226112ba565b600160a060020a03831660009081526002919091016020526040812054900361077f57600081600481111561055957610559611754565b03610667576105666112ba565b600160a060020a0384166000908152600a91909101602052604090205461058b6112ba565b60070154106106055760405160e560020a62461bcd02815260206004820152603a60248201527f77696c6c2065786365656420746865206d6178696d756d206e756d626572206f60448201527f66206e6f6e2d6163637265646974656420696e766573746f72730000000000006064820152608401610289565b61060d6112ba565b60070180546001808201835560009283526020909220018054600160a060020a031916600160a060020a0385161790556106456112ba565b600160a060020a03841660009081526002919091016020526040902055610737565b600181600481111561067b5761067b611754565b036106c0576106886112ba565b60050180546001808201835560009283526020909220018054600160a060020a031916600160a060020a0385161790556106456112ba565b60028160048111156106d4576106d4611754565b03610737576106e16112ba565b60080180546001808201835560009283526020909220018054600160a060020a031916600160a060020a0385161790556107196112ba565b600160a060020a038416600090815260029190910160205260409020555b61073f6112ba565b600160a060020a03848116600090815260209283526040812080546001810182559082529290209091018054600160a060020a0319169184169190911790555b505050565b8061078d6112ba565b600160a060020a039093166000908152600a9390930160205260409092209190915550565b6000600160a060020a0382166107dd5760405160e560020a62461bcd028152600401610289906116e1565b60006107e76112ba565b600160a060020a039384166000908152600191909101602052604090205490921690911415919050565b600160a060020a03811661083a5760405160e560020a62461bcd028152600401610289906116e1565b6108426112ba565b600160a060020a03821660009081526003919091016020526040902080546108699061176e565b1590506108d7576108786112ba565b600160a060020a03821660009081526003919091016020526040812061089d9161149f565b7f8071c01a493142de896a206c19ca180d32e91d6486fcf11ea299f569f5d922b581336040516108ce9291906116c7565b60405180910390a15b50565b600160a060020a0382166109035760405160e560020a62461bcd028152600401610289906116e1565b61090c826112de565b6109745760405160e560020a62461bcd02815260206004820152602d60248201527f28616464566572696669656429202d20696e766573746f7220697320616c72656044820152609a60020a6c18591e4818d85b98d95b1b1959026064820152608401610289565b61097c6112ba565b600160a060020a03831660009081526003919091016020526040902080546109a39061176e565b159050610a0a5760405160e560020a62461bcd02815260206004820152602960248201527f28616464566572696669656429202d20696e766573746f7220616c7265616479604482015260ba60020a68081d995c9a599a5959026064820152608401610289565b80610a136112ba565b600160a060020a03841660009081526003919091016020526040902090610a3a90826117fa565b50610a436112ba565b600401805460018101825560009182526020909120018054600160a060020a031916600160a060020a0384161790556040517f550c196a77afc2d9b241c5742cef5ee82f2db8345acf38fed8ba8e2070b6451f90610aa69084908490339061190f565b60405180910390a15050565b600080600160a060020a038416610ade5760405160e560020a62461bcd028152600401610289906116e1565b600160a060020a038316610b075760405160e560020a62461bcd028152600401610289906116e1565b610b108461133c565b610b855760405160e560020a62461bcd02815260206004820152603b60248201527f2863616e63656c616e645265697373756529202d206f726967696e616c20696e60448201527f766573746f72206973206e6f742061207368617265686f6c64657200000000006064820152608401610289565b610b8e836113e3565b610c165760405160e560020a62461bcd0281526020600482015260596024820152600080516020611a3b83398151915260448201527f20696e766573746f7220697320616c72656164792061207368617265686f6c646064820152603a60020a78195c8b081c995c5d5a5c995cc818481b995dc81dd85b1b195d02608482015260a401610289565b610c1f83611439565b610c935760405160e560020a62461bcd02815260206004820152604460248201819052600080516020611a3b833981519152908201527f20696e766573746f72206973206e6f74206120766572696669656420696e7665606482015260e160020a6339ba37b902608482015260a401610289565b60405180602001604052806000815250610cab6112ba565b600160a060020a03861660009081526003919091016020526040902090610cd290826117fa565b5082610cdc6112ba565b600160a060020a0386811660009081526001928301602052604081208054600160a060020a03191694909216939093179055610d166112ba565b600160a060020a03871660009081526002919091016020526040902054610d3d9190611727565b905083610d486112ba565b6005018281548110610d5c57610d5c61173a565b9060005260206000200160006101000a815481600160a060020a030219169083600160a060020a03160217905550610d926112ba565b600160a060020a03861660009081526002919091016020526040902054610db76112ba565b600160a060020a03861660009081526002919091016020526040812091909155610ddf6112ba565b600160a060020a0387811660008181526002939093016020908152604093849020949094558251908152908716928101929092523382820152517fb64971100522354f3d25283cb14e2eefcb0dd26a757482ccfe42479d0a6868579181900360600190a150929391925050565b600160a060020a038216610e755760405160e560020a62461bcd028152600401610289906116e1565b610e7e82611439565b610ee35760405160e560020a62461bcd02815260206004820152602a60248201527f28757064617465566572696669656429202d206e6f7420612076657269666965604482015260b160020a69321034b73b32b9ba37b9026064820152608401610289565b8051600003610f375760405160e560020a62461bcd02815260206004820152601f60248201527f28757064617465566572696669656429202d2068617368206973207a65726f006044820152606401610289565b6000610f416112ba565b600160a060020a0384166000908152600391909101602052604090208054610f689061176e565b80601f0160208091040260200160405190810160405280929190818152602001828054610f949061176e565b8015610fe15780601f10610fb657610100808354040283529160200191610fe1565b820191906000526020600020905b815481529060010190602001808311610fc457829003601f168201915b5050505050905081604051602001610ff99190611945565b60405160208183030381529060405280519060200120816040516020016110209190611945565b604051602081830303815290604052805190602001201461077f57816110446112ba565b600160a060020a0385166000908152600391909101602052604090209061106b90826117fa565b507f956cac7563aec785f30b680b47233cb635844cd3f2a1a24c87f96b9b7d4e7544838284336040516110a19493929190611961565b60405180910390a1505050565b600160a060020a0381166110d75760405160e560020a62461bcd028152600401610289906116e1565b6110e081611439565b61112d5760405160e560020a62461bcd0281526020600482015260186024820152604260020a771a5b9d995cdd1bdc881a5cc81b9bdd081d995c9a599a5959026044820152606401610289565b6111356112ba565b600160a060020a0382166000908152600291909101602052604081205490036108d7576111606112ba565b60050180546001808201835560009283526020909220018054600160a060020a031916600160a060020a0384161790556111986112ba565b600160a060020a0383166000908152600291909101602052604090205550565b6000600160a060020a0382166111e35760405160e560020a62461bcd028152600401610289906116e1565b6111eb6112ba565b600160a060020a039092166000908152600292909201602052506040902054151590565b6000600160a060020a03831661123a5760405160e560020a62461bcd028152600401610289906116e1565b604080516020810184905201604051602081830303815290604052805190602001206112646112ba565b600301600085600160a060020a0316600160a060020a0316815260200190815260200160002060405160200161129a91906119ab565b604051602081830303815290604052805190602001201490505b92915050565b7f84d6a4597c1933575f1026ccae683d8d7059c2fe21797bd5217915ddf82f909c90565b6000600160a060020a0382166113095760405160e560020a62461bcd028152600401610289906116e1565b60006113136112ba565b600160a060020a0393841660009081526001919091016020526040902054909216909114919050565b6000600160a060020a0382166113675760405160e560020a62461bcd028152600401610289906116e1565b6000806113726112ba565b60050154905060005b818110156113da5784600160a060020a03166113956112ba565b60050182815481106113a9576113a961173a565b600091825260209091200154600160a060020a0316036113c857600192505b806113d281611a21565b91505061137b565b50909392505050565b6000600160a060020a03821661140e5760405160e560020a62461bcd028152600401610289906116e1565b6114166112ba565b600160a060020a0390921660009081526002929092016020525060409020541590565b6000600160a060020a0382166114645760405160e560020a62461bcd028152600401610289906116e1565b600061146e6112ba565b600160a060020a03841660009081526003919091016020526040902080546114959061176e565b9050119050919050565b5080546114ab9061176e565b6000825580601f106114bb575050565b601f0160209004906000526020600020908101906108d791905b808211156114e957600081556001016114d5565b5090565b8035600160a060020a038116811461150457600080fd5b919050565b6000806040838503121561151c57600080fd5b611525836114ed565b946020939093013593505050565b60006020828403121561154557600080fd5b5035919050565b60008060006060848603121561156157600080fd5b61156a846114ed565b9250611578602085016114ed565b915060408401356005811061158c57600080fd5b809150509250925092565b6000602082840312156115a957600080fd5b6115b2826114ed565b9392505050565b60e060020a634e487b710260009081526041600452602490fd5b600080604083850312156115e657600080fd5b6115ef836114ed565b915060208301356001604060020a038082111561160b57600080fd5b818501915085601f83011261161f57600080fd5b813581811115611631576116316115b9565b604051601f8201601f19908116603f01168101908382118183101715611659576116596115b9565b8160405282815288602084870101111561167257600080fd5b8260208601602083013760006020848301015280955050505050509250929050565b600080604083850312156116a757600080fd5b6116b0836114ed565b91506116be602084016114ed565b90509250929050565b600160a060020a0392831681529116602082015260400190565b6020808252600f90820152608860020a6e696e76616c6964206164647265737302604082015260600190565b60e060020a634e487b710260009081526011600452602490fd5b818103818111156112b4576112b461170d565b60e060020a634e487b710260009081526032600452602490fd5b60e060020a634e487b710260009081526021600452602490fd5b60028104600182168061178257607f821691505b6020821081036117a65760e060020a634e487b710260009081526022600452602490fd5b50919050565b601f82111561077f576000818152602081206020601f860104810160208610156117d35750805b6020601f860104820191505b818110156117f2578281556001016117df565b505050505050565b81516001604060020a03811115611813576118136115b9565b61182781611821845461176e565b846117ac565b602080601f83116001811461186057600084156118445750858301515b60028086026008870290910a60001904198216178655506117f2565b600085815260208120601f198616915b8281101561188f57888601518255948401946001909101908401611870565b50858210156118af57878501516008601f88160260020a60001904191681555b5050505050600202600101905550565b60005b838110156118da5781810151838201526020016118c2565b50506000910152565b600081518084526118fb8160208601602086016118bf565b601f01601f19169290920160200192915050565b6000600160a060020a0380861683526060602084015261193260608401866118e3565b9150808416604084015250949350505050565b600082516119578184602087016118bf565b9190910192915050565b6000600160a060020a0380871683526080602084015261198460808401876118e3565b838103604085015261199681876118e3565b92505080841660608401525095945050505050565b60008083546119b98161176e565b600182811680156119d157600181146119e657611a15565b60ff1984168752821515830287019450611a15565b8760005260208060002060005b85811015611a0c5781548a8201529084019082016119f3565b50505082870194505b50929695505050505050565b600060018201611a3357611a3361170d565b506001019056fe2863616e63656c616e645265697373756529202d207265706c6163656d656e74a2646970667358221220c8a9bfa706ebe566eea3129ee012a86b746ff8149438062fe28028a81620762f64736f6c63430008120033",
  "immutableReferences": {},
  "source": "// SPDX-License-Identifier: CC-BY-4.0\r\npragma solidity >=0.4.22 <0.9.0;\r\n\r\n\r\nlibrary Shareholder {\r\n    bytes32 constant private ZERO_BYTES = bytes32(0);\r\n    address constant private ZERO_ADDRESS = address(0);\r\n\r\n    enum InvestorType {\r\n        accredited,\r\n        affiliate,\r\n        nonaccredited,\r\n        sophisticated,\r\n        employee\r\n    }\r\n\r\n    struct ShareholderStorage {\r\n        mapping(address => address[]) _shareholders; // all sharenolders by contract offering address\r\n        mapping(address => address) cancellations;\r\n        mapping(address => uint256) holderIndices;\r\n        mapping(address => string)  verified;\r\n        address[] _verified;\r\n        address[] shareholders;\r\n        address[] shareholders_accredited;\r\n        address[] shareholders_nonacredited;\r\n        address[] shareholders_affiliate;\r\n        address[] shareholders_sophisticated;\r\n        mapping(address => uint256) maxNonaccredited; // mapped to offering contract address; -1=unlimited\r\n    }\r\n\r\n    function shareholderStorage()\r\n        internal\r\n        pure\r\n        returns (ShareholderStorage storage ds)\r\n    {\r\n        bytes32 position = keccak256(\"shareholder.storage\");\r\n        assembly { ds.slot := position}\r\n    }\r\n\r\n\r\n    event VerifiedAddressSuperseded(address addr1,address addr2,address addr3);\r\n    event VerifiedAddressUpdated(address addr, string oldhash, string hash, address sender);\r\n    event VerifiedAddressRemoved(address addr, address sender);\r\n    event VerifiedAddressAdded(address addr, string hash, address sender);\r\n\r\n    function isActiveShareholder(address addr)\r\n        internal\r\n        view\r\n        returns (bool)\r\n    {\r\n        require(addr != ZERO_ADDRESS,\"invalid address\");\r\n        return (shareholderStorage().holderIndices[addr] != 0);\r\n    }\r\n\r\n    function isNotShareholder(address addr)\r\n        internal\r\n        view\r\n        returns (bool)\r\n    {\r\n        require(addr != ZERO_ADDRESS,\"invalid address\");\r\n        return (shareholderStorage().holderIndices[addr] == 0);\r\n    }\r\n\r\n    function isVerifiedAddress(address addr)\r\n        internal\r\n        view\r\n        returns (bool)\r\n    {\r\n        require(addr != ZERO_ADDRESS,\"invalid address\");\r\n        return (bytes(shareholderStorage().verified[addr]).length > 0);\r\n    }\r\n\r\n    function isNotCancelled(address addr)\r\n        internal\r\n        view\r\n        returns (bool)\r\n    {\r\n        require(addr != ZERO_ADDRESS,\"invalid address\");\r\n        return (shareholderStorage().cancellations[addr] == ZERO_ADDRESS);\r\n    }\r\n\r\n    function isCancelled(address addr)\r\n        internal\r\n        view\r\n        returns (bool)\r\n    {\r\n        require(addr != ZERO_ADDRESS,\"invalid address\");\r\n        if (shareholderStorage().cancellations[addr] == ZERO_ADDRESS) {\r\n            return true;\r\n        }\r\n        return false;\r\n    }\r\n\r\n    /**\r\n     * For use with public offering without restrictions or exemptions\r\n     */\r\n    function isShareholder(address addr)\r\n        internal\r\n        view\r\n        returns (bool)\r\n    {\r\n        require(addr != ZERO_ADDRESS,\"invalid address\");\r\n        bool found = false;\r\n        uint256 length = shareholderStorage().shareholders.length;\r\n        for (uint256 i = 0; i < length; i++) {\r\n            if (shareholderStorage().shareholders[i] == addr) {\r\n                found = true;\r\n            }\r\n        }\r\n        return found;\r\n    }\r\n\r\n    function isAccredited(address addr)\r\n        internal\r\n        view\r\n        returns (bool)\r\n    {\r\n        require(addr != ZERO_ADDRESS,\"invalid address\");\r\n        bool found = false;\r\n        uint256 length = shareholderStorage().shareholders_accredited.length;\r\n        for (uint256 i = 0; i < length; i++) {\r\n            if (shareholderStorage().shareholders_accredited[i] == addr) {\r\n                found = true;\r\n            }\r\n        }\r\n        return found;\r\n    }\r\n\r\n    function isNonAccredited(address addr)\r\n        internal\r\n        view\r\n        returns (bool)\r\n    {\r\n        require(addr != ZERO_ADDRESS,\"invalid address\");\r\n        bool found = false;\r\n        uint256 length = shareholderStorage().shareholders_nonacredited.length;\r\n        for (uint256 i = 0; i < length; i++) {\r\n            if (shareholderStorage().shareholders_nonacredited[i] != addr) {\r\n                found = true;\r\n            }\r\n        }\r\n        return found;\r\n    }\r\n\r\n    function isAffiliate(address addr)\r\n        internal\r\n        view\r\n        returns (bool)\r\n    {\r\n        require(addr != ZERO_ADDRESS,\"invalid address\");\r\n        bool found = false;\r\n        uint256 length = shareholderStorage().shareholders_affiliate.length;\r\n        for (uint256 i = 0; i < length; i++) {\r\n            if (shareholderStorage().shareholders_affiliate[i] != addr) {\r\n                found = true;\r\n            }\r\n        }\r\n        return found;\r\n    }\r\n\r\n    function isSophisticated(address addr)\r\n        internal\r\n        view\r\n        returns (bool)\r\n    {\r\n        require(addr != ZERO_ADDRESS,\"invalid address\");\r\n        bool found = false;\r\n        uint256 length = shareholderStorage().shareholders_sophisticated.length;\r\n        for (uint256 i = 0; i < length; i++) {\r\n            if (shareholderStorage().shareholders_sophisticated[i] != addr) {\r\n                found = true;\r\n            }\r\n        }\r\n        return found;\r\n    }\r\n\r\n    function setMaxUnaccreditInvestors(address offering, uint256 value)\r\n        external\r\n    {\r\n        require(value >= 0,\"cannot be negative\");\r\n        shareholderStorage().maxNonaccredited[offering] = value;\r\n    }\r\n\r\n    /**\r\n     *  Add a verified address, along with an associated verification hash to the contract.\r\n     *  Upon successful addition of a verified address, the contract must emit\r\n     *  `VerifiedAddressAdded(addr, hash, msg.sender)`.\r\n     *  It MUST throw if the supplied address or hash are zero, or if the address has already been supplied.\r\n     *  @param addr The address of the person represented by the supplied hash.\r\n     *  @param hash A cryptographic hash of the address holder's verified information.\r\n     */\r\n    function addVerified(address addr, string memory hash)\r\n        external\r\n    {\r\n        require(addr != ZERO_ADDRESS,\"invalid address\");\r\n        require(isNotCancelled(addr), \"(addVerified) - investor is already cancelled\");\r\n        require(bytes(shareholderStorage().verified[addr]).length ==  0, \"(addVerified) - investor already verified\");\r\n        shareholderStorage().verified[addr] = hash;\r\n        shareholderStorage()._verified.push(addr);\r\n        emit VerifiedAddressAdded(addr, hash, msg.sender);\r\n    }\r\n\r\n    /**\r\n     *  Remove a verified address, and the associated verification hash. If the address is\r\n     *  unkblock.timestampn to the contract then this does nothing. If the address is successfully removed, this\r\n     *  function must emit `VerifiedAddressRemoved(addr, msg.sender)`.\r\n     *  It MUST throw if an attempt is made to remove a verifiedAddress that owns Tokens.\r\n     *  @param addr The verified address to be removed.\r\n     */\r\n    function removeVerified(address addr)\r\n        external\r\n    {\r\n        require(addr != ZERO_ADDRESS,\"invalid address\");\r\n        if (bytes(shareholderStorage().verified[addr]).length != 0) {\r\n            delete shareholderStorage().verified[addr];\r\n            emit VerifiedAddressRemoved(addr, msg.sender);\r\n        }\r\n    }\r\n\r\n    /**\r\n     *  Update the hash for a verified address known to the contract.\r\n     *  Upon successful update of a verified address the contract must emit\r\n     *  `VerifiedAddressUpdated(addr, oldHash, hash, msg.sender)`.\r\n     *  If the hash is the same as the value already stored then\r\n     *  no `VerifiedAddressUpdated` event is to be emitted.\r\n     *  It MUST throw if the hash is zero, or if the address is unverified.\r\n     *  @param addr The verified address of the person represented by the supplied hash.\r\n     *  @param hash A new cryptographic hash of the address holder's updated verified information.\r\n     */\r\n    function updateVerified(address addr, string memory hash)\r\n        external\r\n    {\r\n        require(addr != ZERO_ADDRESS,\"invalid address\");\r\n        require(isVerifiedAddress(addr), \"(updateVerified) - not a verified investor\");\r\n        require(bytes(hash).length != 0, \"(updateVerified) - hash is zero\");\r\n        string memory oldHash = shareholderStorage().verified[addr];\r\n        if (keccak256(abi.encodePacked((oldHash))) != keccak256(abi.encodePacked((hash)))) {\r\n            shareholderStorage().verified[addr] = hash;\r\n            emit VerifiedAddressUpdated(addr, oldHash, hash, msg.sender);\r\n        }\r\n    }\r\n\r\n    /**\r\n     *  Checks to see if the supplied address was superseded.\r\n     *  @param addr The address to check.\r\n     *  @return true if the supplied address was superseded by another address.\r\n     */\r\n    function isSuperseded(address addr)\r\n        external\r\n        view\r\n        returns (bool)\r\n    {\r\n        require(addr != ZERO_ADDRESS,\"invalid address\");\r\n        return shareholderStorage().cancellations[addr] != ZERO_ADDRESS;\r\n    }\r\n\r\n    /**\r\n     *  Checks to see if the supplied address is a share holder.\r\n     *  @param addr The address to check.\r\n     *  @return true if the supplied address owns a token.\r\n     */\r\n    function isHolder(address addr)\r\n        external\r\n        view\r\n        returns (bool)\r\n    {\r\n        require(addr != ZERO_ADDRESS,\"invalid address\");\r\n        return shareholderStorage().holderIndices[addr] != 0;\r\n    }\r\n\r\n    /**\r\n     *  Checks that the supplied hash is associated with the given address.\r\n     *  @param addr The address to test.\r\n     *  @param hash The hash to test.\r\n     *  @return true if the hash matches the one supplied with the address in `addVerified`, or `updateVerified`.\r\n     */\r\n    function hasHash(address addr, bytes32 hash)\r\n        external\r\n        view\r\n        returns (bool)\r\n    {\r\n        require(addr != ZERO_ADDRESS,\"invalid address\");\r\n        return  keccak256(abi.encodePacked((shareholderStorage().verified[addr]))) == keccak256(abi.encodePacked((hash)));\r\n    }\r\n\r\n    /**\r\n     *  The number of addresses that own tokens.\r\n     *  @return the number of unique addresses that own tokens.\r\n     */\r\n    function holderCount()\r\n        external\r\n        view\r\n        returns (uint)\r\n    {\r\n        return shareholderStorage().shareholders.length;\r\n    }\r\n\r\n    /**\r\n     *  By counting the number of token holders using `holderCount`\r\n     *  you can retrieve the complete list of token holders, one at a time.\r\n     *  It MUST throw if `index >= holderCount()`.\r\n     *  @param index The zero-based index of the holder.\r\n     *  @return the address of the token holder with the given index.\r\n     */\r\n    function holderAt(uint256 index)\r\n        external\r\n        view\r\n        returns (address)\r\n    {\r\n        require(index < shareholderStorage().shareholders.length, \"holderAt out of bounds\");\r\n        return shareholderStorage().shareholders[index];\r\n    }\r\n    /**\r\n     * Shareholder level:\r\n     *    1 = non-accredited shareholder\r\n     *    2 = accredited shareholder\r\n     *    3 = affiliate shareholder\r\n     * \r\n     */\r\n    function addShareholder(address offering, address addr, InvestorType level)\r\n        external\r\n    {\r\n        require(addr != ZERO_ADDRESS,\"invalid address\");\r\n        if (shareholderStorage().holderIndices[addr] == 0) {\r\n            if (level == InvestorType.accredited) {\r\n                require(shareholderStorage().shareholders_nonacredited.length < shareholderStorage().maxNonaccredited[offering], \"will exceed the maximum number of non-accredited investors\");\r\n                shareholderStorage().shareholders_nonacredited.push(addr);\r\n                shareholderStorage().holderIndices[addr] = 1;\r\n            } else if (level == InvestorType.affiliate) {\r\n              shareholderStorage().shareholders.push(addr);\r\n              shareholderStorage().holderIndices[addr] = 1;\r\n            } else if (level == InvestorType.nonaccredited) {\r\n              shareholderStorage().shareholders_affiliate.push(addr);\r\n              shareholderStorage().holderIndices[addr] = 1;\r\n            }\r\n            shareholderStorage()._shareholders[offering].push(addr);\r\n        }\r\n    }\r\n\r\n    /**\r\n     *  If the address is not in the `shareholders` array then push it\r\n     *  and update the `holderIndices` mapping.\r\n     *  @param addr The address to add as a shareholder if it's not already.\r\n     */\r\n    function updateShareholders(address addr)\r\n        external\r\n    {\r\n        require(addr != ZERO_ADDRESS,\"invalid address\");\r\n        require(isVerifiedAddress(addr), \"investor is not verified\");\r\n        if (shareholderStorage().holderIndices[addr] == 0) {\r\n          shareholderStorage().shareholders.push(addr);\r\n          shareholderStorage().holderIndices[addr] = 1;\r\n        }\r\n    }\r\n\r\n    /**\r\n     *  If the address is in the `shareholders` array and the forthcoming\r\n     *  transfer or transferFrom will reduce their balance to 0, then\r\n     *  we need to remove them from the shareholders array.\r\n     *  @param addr The address to prune if their balance will be reduced to 0.\r\n     @  @dev see https://ethereum.stackexchange.com/a/39311\r\n     */\r\n    function pruneShareholders(address addr, uint256 value)\r\n        external\r\n    {\r\n        require(addr != ZERO_ADDRESS,\"invalid address\");\r\n        uint256 balance = addr.balance - value;\r\n        if (balance > 0) {\r\n            return;\r\n        }\r\n        uint256 holderIndex = shareholderStorage().holderIndices[addr] - 1;\r\n        uint256 lastIndex = shareholderStorage().shareholders.length - 1;\r\n        address lastHolder = shareholderStorage().shareholders[lastIndex];\r\n        // overwrite the addr's slot with the last shareholder\r\n        shareholderStorage().shareholders[holderIndex] = lastHolder;\r\n        // also copy over the index (thanks @mohoff for spotting this)\r\n        // ref https://github.com/davesag/ERC884-reference-implementation/issues/20\r\n        shareholderStorage().holderIndices[lastHolder] = shareholderStorage().holderIndices[addr];\r\n        // trim the shareholders array (which drops the last entry)\r\n        delete shareholderStorage().shareholders[shareholderStorage().shareholders.length - 1];\r\n        // and zero out the index for addr\r\n        shareholderStorage().holderIndices[addr] = 0;\r\n    }\r\n\r\n    /**\r\n     *  Cancel the original address and reissue the Tokens to the replacement address.\r\n     *  Access to this function MUST be strictly controlled.\r\n     *  The `original` address MUST be removed from the set of verified addresses.\r\n     *  Throw if the `original` address supplied is not a \r\n     *  Throw if the replacement address is not a verified address.\r\n     *  This function MUST emit the `VerifiedAddressSuperseded` event.\r\n     *  @param original The address to be superseded. This address MUST NOT be reused.\r\n     *  @param replacement The address  that supersedes the original. This address MUST be verified.\r\n     */\r\n    function cancelAndReissue(address original, address replacement)\r\n       external\r\n       returns (address, address)\r\n    {\r\n        require(original != ZERO_ADDRESS,\"invalid address\");\r\n        require(replacement != ZERO_ADDRESS,\"invalid address\");\r\n        require(isShareholder(original), \"(cancelandReissue) - original investor is not a shareholder\");\r\n        require(isNotShareholder(replacement), \"(cancelandReissue) - replacement investor is already a shareholder, requires a new wallet\");\r\n        require(isVerifiedAddress(replacement), \"(cancelandReissue) - replacement investor is not a verified investor\");\r\n        // replace the original address in the shareholders array\r\n        // and update all the associated mappings\r\n        shareholderStorage().verified[original] = \"\";\r\n        shareholderStorage().cancellations[original] = replacement;\r\n        uint256 holderIndex = shareholderStorage().holderIndices[original] - 1;\r\n        shareholderStorage().shareholders[holderIndex] = replacement;\r\n        shareholderStorage().holderIndices[replacement] = shareholderStorage().holderIndices[original];\r\n        shareholderStorage().holderIndices[original] = 0;\r\n        emit VerifiedAddressSuperseded(original, replacement, msg.sender);\r\n        //transferBalances(original, replacement);\r\n        return (original, replacement);\r\n    }\r\n}",
  "sourcePath": "/Volumes/My Book/projects/pingleware-contracts/contracts/finance/Shareholder.sol",
  "compiler": {
    "name": "solc",
    "version": "0.8.18+commit.87f61d96.Emscripten.clang"
  },
  "schemaVersion": "3.4.12",
  "updatedAt": "2023-10-23T15:40:52.615Z",
  "networkType": "ethereum",
  "devdoc": {
    "kind": "dev",
    "methods": {
      "addVerified(address,string)": {
        "params": {
          "addr": "The address of the person represented by the supplied hash.",
          "hash": "A cryptographic hash of the address holder's verified information."
        }
      },
      "cancelAndReissue(address,address)": {
        "params": {
          "original": "The address to be superseded. This address MUST NOT be reused.",
          "replacement": "The address  that supersedes the original. This address MUST be verified."
        }
      },
      "hasHash(address,bytes32)": {
        "params": {
          "addr": "The address to test.",
          "hash": "The hash to test."
        },
        "returns": {
          "_0": "true if the hash matches the one supplied with the address in `addVerified`, or `updateVerified`."
        }
      },
      "holderAt(uint256)": {
        "params": {
          "index": "The zero-based index of the holder."
        },
        "returns": {
          "_0": "the address of the token holder with the given index."
        }
      },
      "holderCount()": {
        "returns": {
          "_0": "the number of unique addresses that own tokens."
        }
      },
      "isHolder(address)": {
        "params": {
          "addr": "The address to check."
        },
        "returns": {
          "_0": "true if the supplied address owns a token."
        }
      },
      "isSuperseded(address)": {
        "params": {
          "addr": "The address to check."
        },
        "returns": {
          "_0": "true if the supplied address was superseded by another address."
        }
      },
      "pruneShareholders(address,uint256)": {
        "params": {
          "addr": "The address to prune if their balance will be reduced to 0. @dev see https://ethereum.stackexchange.com/a/39311"
        }
      },
      "removeVerified(address)": {
        "params": {
          "addr": "The verified address to be removed."
        }
      },
      "updateShareholders(address)": {
        "params": {
          "addr": "The address to add as a shareholder if it's not already."
        }
      },
      "updateVerified(address,string)": {
        "params": {
          "addr": "The verified address of the person represented by the supplied hash.",
          "hash": "A new cryptographic hash of the address holder's updated verified information."
        }
      }
    },
    "version": 1
  },
  "userdoc": {
    "kind": "user",
    "methods": {
      "addShareholder(address,address,Shareholder.InvestorType)": {
        "notice": "Shareholder level:    1 = non-accredited shareholder    2 = accredited shareholder    3 = affiliate shareholder "
      },
      "addVerified(address,string)": {
        "notice": "Add a verified address, along with an associated verification hash to the contract.  Upon successful addition of a verified address, the contract must emit  `VerifiedAddressAdded(addr, hash, msg.sender)`.  It MUST throw if the supplied address or hash are zero, or if the address has already been supplied."
      },
      "cancelAndReissue(address,address)": {
        "notice": "Cancel the original address and reissue the Tokens to the replacement address.  Access to this function MUST be strictly controlled.  The `original` address MUST be removed from the set of verified addresses.  Throw if the `original` address supplied is not a   Throw if the replacement address is not a verified address.  This function MUST emit the `VerifiedAddressSuperseded` event."
      },
      "hasHash(address,bytes32)": {
        "notice": "Checks that the supplied hash is associated with the given address."
      },
      "holderAt(uint256)": {
        "notice": "By counting the number of token holders using `holderCount`  you can retrieve the complete list of token holders, one at a time.  It MUST throw if `index >= holderCount()`."
      },
      "holderCount()": {
        "notice": "The number of addresses that own tokens."
      },
      "isHolder(address)": {
        "notice": "Checks to see if the supplied address is a share holder."
      },
      "isSuperseded(address)": {
        "notice": "Checks to see if the supplied address was superseded."
      },
      "pruneShareholders(address,uint256)": {
        "notice": "If the address is in the `shareholders` array and the forthcoming  transfer or transferFrom will reduce their balance to 0, then  we need to remove them from the shareholders array."
      },
      "removeVerified(address)": {
        "notice": "Remove a verified address, and the associated verification hash. If the address is  unkblock.timestampn to the contract then this does nothing. If the address is successfully removed, this  function must emit `VerifiedAddressRemoved(addr, msg.sender)`.  It MUST throw if an attempt is made to remove a verifiedAddress that owns Tokens."
      },
      "updateShareholders(address)": {
        "notice": "If the address is not in the `shareholders` array then push it  and update the `holderIndices` mapping."
      },
      "updateVerified(address,string)": {
        "notice": "Update the hash for a verified address known to the contract.  Upon successful update of a verified address the contract must emit  `VerifiedAddressUpdated(addr, oldHash, hash, msg.sender)`.  If the hash is the same as the value already stored then  no `VerifiedAddressUpdated` event is to be emitted.  It MUST throw if the hash is zero, or if the address is unverified."
      }
    },
    "version": 1
  }
}