{
  "contractName": "Shares",
  "abi": [
    {
      "inputs": [
        {
          "internalType": "address",
          "name": "transferagent_contract",
          "type": "address"
        }
      ],
      "stateMutability": "nonpayable",
      "type": "constructor"
    },
    {
      "inputs": [
        {
          "internalType": "address",
          "name": "offering",
          "type": "address"
        }
      ],
      "name": "getClass",
      "outputs": [
        {
          "internalType": "enum Shares.AssetClass",
          "name": "",
          "type": "uint8"
        }
      ],
      "stateMutability": "view",
      "type": "function"
    },
    {
      "inputs": [
        {
          "internalType": "address",
          "name": "offering",
          "type": "address"
        },
        {
          "internalType": "enum Shares.AssetClass",
          "name": "_class",
          "type": "uint8"
        }
      ],
      "name": "setClass",
      "outputs": [],
      "stateMutability": "nonpayable",
      "type": "function"
    },
    {
      "inputs": [
        {
          "internalType": "address",
          "name": "offering",
          "type": "address"
        }
      ],
      "name": "getShares",
      "outputs": [
        {
          "internalType": "uint256",
          "name": "",
          "type": "uint256"
        }
      ],
      "stateMutability": "view",
      "type": "function"
    },
    {
      "inputs": [
        {
          "internalType": "address",
          "name": "offering",
          "type": "address"
        }
      ],
      "name": "getMaxPPU",
      "outputs": [
        {
          "internalType": "uint256",
          "name": "",
          "type": "uint256"
        }
      ],
      "stateMutability": "view",
      "type": "function"
    },
    {
      "inputs": [
        {
          "internalType": "address",
          "name": "offering",
          "type": "address"
        }
      ],
      "name": "getMaxAggregate",
      "outputs": [
        {
          "internalType": "uint256",
          "name": "",
          "type": "uint256"
        }
      ],
      "stateMutability": "view",
      "type": "function"
    },
    {
      "inputs": [
        {
          "internalType": "address",
          "name": "offering",
          "type": "address"
        }
      ],
      "name": "getFee",
      "outputs": [
        {
          "internalType": "uint256",
          "name": "",
          "type": "uint256"
        }
      ],
      "stateMutability": "view",
      "type": "function"
    },
    {
      "inputs": [
        {
          "internalType": "address",
          "name": "offering",
          "type": "address"
        }
      ],
      "name": "getTotalSupply",
      "outputs": [
        {
          "internalType": "uint256",
          "name": "",
          "type": "uint256"
        }
      ],
      "stateMutability": "view",
      "type": "function"
    },
    {
      "inputs": [
        {
          "internalType": "address",
          "name": "offering",
          "type": "address"
        },
        {
          "internalType": "uint256",
          "name": "amount",
          "type": "uint256"
        }
      ],
      "name": "addTotalSupply",
      "outputs": [],
      "stateMutability": "nonpayable",
      "type": "function"
    },
    {
      "inputs": [
        {
          "internalType": "address",
          "name": "offering",
          "type": "address"
        },
        {
          "internalType": "uint256",
          "name": "amount",
          "type": "uint256"
        }
      ],
      "name": "isPriceBelowParValue",
      "outputs": [
        {
          "internalType": "bool",
          "name": "",
          "type": "bool"
        }
      ],
      "stateMutability": "view",
      "type": "function"
    },
    {
      "inputs": [
        {
          "internalType": "address",
          "name": "offering",
          "type": "address"
        }
      ],
      "name": "getTotalAuthorized",
      "outputs": [
        {
          "internalType": "uint256",
          "name": "",
          "type": "uint256"
        }
      ],
      "stateMutability": "view",
      "type": "function"
    },
    {
      "inputs": [
        {
          "internalType": "address",
          "name": "offering",
          "type": "address"
        }
      ],
      "name": "getOutstanding",
      "outputs": [
        {
          "internalType": "uint256",
          "name": "",
          "type": "uint256"
        }
      ],
      "stateMutability": "view",
      "type": "function"
    },
    {
      "inputs": [
        {
          "internalType": "address",
          "name": "offering",
          "type": "address"
        },
        {
          "internalType": "uint256",
          "name": "amount",
          "type": "uint256"
        }
      ],
      "name": "addOutstanding",
      "outputs": [],
      "stateMutability": "nonpayable",
      "type": "function"
    },
    {
      "inputs": [
        {
          "internalType": "address",
          "name": "offering",
          "type": "address"
        },
        {
          "internalType": "uint256",
          "name": "amount",
          "type": "uint256"
        }
      ],
      "name": "subOutstanding",
      "outputs": [],
      "stateMutability": "nonpayable",
      "type": "function"
    },
    {
      "inputs": [
        {
          "internalType": "address",
          "name": "offering",
          "type": "address"
        }
      ],
      "name": "isRestrictedSecurity",
      "outputs": [
        {
          "internalType": "bool",
          "name": "",
          "type": "bool"
        }
      ],
      "stateMutability": "view",
      "type": "function"
    },
    {
      "inputs": [
        {
          "internalType": "address",
          "name": "offering",
          "type": "address"
        },
        {
          "internalType": "string",
          "name": "cusip",
          "type": "string"
        }
      ],
      "name": "assignCUSIP",
      "outputs": [],
      "stateMutability": "nonpayable",
      "type": "function"
    },
    {
      "inputs": [
        {
          "internalType": "address",
          "name": "offering",
          "type": "address"
        },
        {
          "internalType": "string",
          "name": "isin",
          "type": "string"
        }
      ],
      "name": "assignISIN",
      "outputs": [],
      "stateMutability": "nonpayable",
      "type": "function"
    },
    {
      "inputs": [
        {
          "internalType": "address",
          "name": "offering",
          "type": "address"
        },
        {
          "internalType": "address",
          "name": "investor",
          "type": "address"
        },
        {
          "internalType": "bytes32",
          "name": "image",
          "type": "bytes32"
        }
      ],
      "name": "saveCertificate",
      "outputs": [],
      "stateMutability": "nonpayable",
      "type": "function"
    },
    {
      "inputs": [
        {
          "internalType": "address",
          "name": "offering",
          "type": "address"
        },
        {
          "internalType": "uint256",
          "name": "value",
          "type": "uint256"
        }
      ],
      "name": "setParValue",
      "outputs": [],
      "stateMutability": "nonpayable",
      "type": "function"
    },
    {
      "inputs": [
        {
          "internalType": "address",
          "name": "offering",
          "type": "address"
        }
      ],
      "name": "getParValue",
      "outputs": [
        {
          "internalType": "uint256",
          "name": "",
          "type": "uint256"
        }
      ],
      "stateMutability": "view",
      "type": "function"
    },
    {
      "inputs": [
        {
          "internalType": "address",
          "name": "offering",
          "type": "address"
        },
        {
          "internalType": "bool",
          "name": "value",
          "type": "bool"
        }
      ],
      "name": "setRestricted",
      "outputs": [],
      "stateMutability": "nonpayable",
      "type": "function"
    }
  ],
  "bytecode": "0x608060405234801561001057600080fd5b5060405161109e38038061109e83398101604081905261002f91610054565b60008054600160a060020a031916600160a060020a0392909216919091179055610084565b60006020828403121561006657600080fd5b8151600160a060020a038116811461007d57600080fd5b9392505050565b61100b806100936000396000f3fe608060405234801561001057600080fd5b50600436106100ff5760e060020a600035046305dc682c81146101045780630b08058c146101195780630cd1bbe31461012c578063144a313c146101555780631549be43146101685780631d99c7521461018957806338fc7c2d1461019c57806352e4100b146101af57806368da10ae146101c25780636965b5a3146101d55780636e20b1b0146101e85780638d8084771461020b578063913f962c1461021e5780639d3ec4c714610231578063a932dfd914610244578063b60bbd3114610257578063b88c91481461026a578063bc5c8eb11461027d578063d402017014610290578063f04da65b146102a3575b600080fd5b610117610112366004610b85565b6102b6565b005b610117610127366004610bc6565b6103c3565b61013f61013a366004610bf2565b6104b7565b60405161014c9190610c30565b60405180910390f35b610117610163366004610bc6565b6104e3565b61017b610176366004610bf2565b610521565b60405190815260200161014c565b610117610197366004610c76565b61054d565b6101176101aa366004610bc6565b610648565b61017b6101bd366004610bf2565b61067d565b61017b6101d0366004610bf2565b6106a9565b6101176101e3366004610d39565b6106d5565b6101fb6101f6366004610bc6565b6107d6565b604051901515815260200161014c565b6101fb610219366004610bf2565b610808565b61011761022c366004610d77565b610837565b61011761023f366004610c76565b61087c565b61017b610252366004610bf2565b610972565b610117610265366004610bc6565b61099e565b61017b610278366004610bf2565b610a99565b61017b61028b366004610bf2565b610ac5565b61017b61029e366004610bf2565b610af1565b61017b6102b1366004610bf2565b610b1d565b336102df5760405160e560020a62461bcd0281526004016102d690610da9565b60405180910390fd5b60005460405160e660020a62157d55028152600160a060020a039091169063055f554090610311908690600401610ddc565b602060405180830381865afa15801561032e573d6000803e3d6000fd5b505050506040513d601f19601f820116820180604052508101906103529190610df0565b600160a060020a031633600160a060020a0316146103855760405160e560020a62461bcd0281526004016102d690610e0d565b8061038e610b49565b600160a060020a0394851660009081526001919091016020908152604080832095909616825293909352929091209190915550565b336103e35760405160e560020a62461bcd0281526004016102d690610da9565b60005460405160e660020a62157d55028152600160a060020a039091169063055f554090610415908590600401610ddc565b602060405180830381865afa158015610432573d6000803e3d6000fd5b505050506040513d601f19601f820116820180604052508101906104569190610df0565b600160a060020a031633600160a060020a0316146104895760405160e560020a62461bcd0281526004016102d690610e0d565b80610492610b49565b600160a060020a03909316600090815260209390935260409092206004019190915550565b60006104c1610b49565b600160a060020a03909216600090815260209290925250604090205460ff1690565b806104ec610b49565b600160a060020a038416600090815260209190915260408120600c018054909190610518908490610e5e565b90915550505050565b600061052b610b49565b600160a060020a03909216600090815260209290925250604090206008015490565b3361056d5760405160e560020a62461bcd0281526004016102d690610da9565b60005460405160e660020a62157d55028152600160a060020a039091169063055f55409061059f908590600401610ddc565b602060405180830381865afa1580156105bc573d6000803e3d6000fd5b505050506040513d601f19601f820116820180604052508101906105e09190610df0565b600160a060020a031633600160a060020a0316146106135760405160e560020a62461bcd0281526004016102d690610e0d565b8061061c610b49565b600160a060020a038416600090815260209190915260409020600301906106439082610efd565b505050565b80610651610b49565b600160a060020a0384166000908152602091909152604081206008018054909190610518908490610fc2565b6000610687610b49565b600160a060020a03909216600090815260209290925250604090206009015490565b60006106b3610b49565b600160a060020a0390921660009081526020929092525060409020600c015490565b336106f55760405160e560020a62461bcd0281526004016102d690610da9565b60005460405160e660020a62157d55028152600160a060020a039091169063055f554090610727908590600401610ddc565b602060405180830381865afa158015610744573d6000803e3d6000fd5b505050506040513d601f19601f820116820180604052508101906107689190610df0565b600160a060020a031633600160a060020a03161461079b5760405160e560020a62461bcd0281526004016102d690610e0d565b806107a4610b49565b600160a060020a039390931660009081526020939093526040909220600601805460ff19169215159290921790915550565b60006107e0610b49565b600160a060020a03841660009081526020919091526040902060040154821190505b92915050565b6000610812610b49565b600160a060020a03909216600090815260209290925250604090206006015460ff1690565b80610840610b49565b600160a060020a038416600090815260209190915260409020805460ff1916600183600881111561087357610873610c16565b02179055505050565b3361089c5760405160e560020a62461bcd0281526004016102d690610da9565b60005460405160e660020a62157d55028152600160a060020a039091169063055f5540906108ce908590600401610ddc565b602060405180830381865afa1580156108eb573d6000803e3d6000fd5b505050506040513d601f19601f8201168201806040525081019061090f9190610df0565b600160a060020a031633600160a060020a0316146109425760405160e560020a62461bcd0281526004016102d690610e0d565b8061094b610b49565b600160a060020a038416600090815260209190915260409020600201906106439082610efd565b600061097c610b49565b600160a060020a0390921660009081526020929092525060409020600a015490565b336109be5760405160e560020a62461bcd0281526004016102d690610da9565b60005460405160e660020a62157d55028152600160a060020a039091169063055f5540906109f0908590600401610ddc565b602060405180830381865afa158015610a0d573d6000803e3d6000fd5b505050506040513d601f19601f82011682018060405250810190610a319190610df0565b600160a060020a031633600160a060020a031614610a645760405160e560020a62461bcd0281526004016102d690610e0d565b80610a6d610b49565b600160a060020a0384166000908152602091909152604081206008018054909190610518908490610e5e565b6000610aa3610b49565b600160a060020a0390921660009081526020929092525060409020600b015490565b6000610acf610b49565b600160a060020a03909216600090815260209290925250604090206004015490565b6000610afb610b49565b600160a060020a03909216600090815260209290925250604090206007015490565b6000610b27610b49565b600160a060020a03909216600090815260209290925250604090206005015490565b7f54970566f6be618430aa9102c0fa36928c087f0d98124c631513f83069647e1090565b600160a060020a0381168114610b8257600080fd5b50565b600080600060608486031215610b9a57600080fd5b8335610ba581610b6d565b92506020840135610bb581610b6d565b929592945050506040919091013590565b60008060408385031215610bd957600080fd5b8235610be481610b6d565b946020939093013593505050565b600060208284031215610c0457600080fd5b8135610c0f81610b6d565b9392505050565b60e060020a634e487b710260009081526021600452602490fd5b6020810160098310610c565760e060020a634e487b710260009081526021600452602490fd5b91905290565b60e060020a634e487b710260009081526041600452602490fd5b60008060408385031215610c8957600080fd5b8235610c9481610b6d565b915060208301356001604060020a0380821115610cb057600080fd5b818501915085601f830112610cc457600080fd5b813581811115610cd657610cd6610c5c565b604051601f8201601f19908116603f01168101908382118183101715610cfe57610cfe610c5c565b81604052828152886020848701011115610d1757600080fd5b8260208601602083013760006020848301015280955050505050509250929050565b60008060408385031215610d4c57600080fd5b8235610d5781610b6d565b915060208301358015158114610d6c57600080fd5b809150509250929050565b60008060408385031215610d8a57600080fd5b8235610d9581610b6d565b9150602083013560098110610d6c57600080fd5b6020808252601690820152605260020a751a5b9d985b1a59081d1c985b9cd9995c881859d95b9d02604082015260600190565b600160a060020a0391909116815260200190565b600060208284031215610e0257600080fd5b8151610c0f81610b6d565b6020808252601a908201527f6e6f7420612076616c6964207472616e73666572206167656e74000000000000604082015260600190565b60e060020a634e487b710260009081526011600452602490fd5b8082018082111561080257610802610e44565b600281046001821680610e8557607f821691505b602082108103610ea95760e060020a634e487b710260009081526022600452602490fd5b50919050565b601f821115610643576000818152602081206020601f86010481016020861015610ed65750805b6020601f860104820191505b81811015610ef557828155600101610ee2565b505050505050565b81516001604060020a03811115610f1657610f16610c5c565b610f2a81610f248454610e71565b84610eaf565b602080601f831160018114610f635760008415610f475750858301515b60028086026008870290910a6000190419821617865550610ef5565b600085815260208120601f198616915b82811015610f9257888601518255948401946001909101908401610f73565b5085821015610fb257878501516008601f88160260020a60001904191681555b5050505050600202600101905550565b8181038181111561080257610802610e4456fea26469706673582212204e45f4bd67d1027f01e6860559814ad06a4d81c3d3a14407f3750fff555108df64736f6c63430008120033",
  "immutableReferences": {},
  "source": "// SPDX-License-Identifier: CC-BY-4.0\r\npragma solidity >=0.4.22 <0.9.0;\r\n\r\nimport \"../interfaces/ISecurities.sol\";\r\nimport \"../interfaces/ITransferAgent.sol\";\r\n\r\ncontract Shares {\r\n    enum AssetClass {\r\n        Equity,\r\n        Bonds,\r\n        Commodity,\r\n        RealEstate,\r\n        PreferredStocks,\r\n        MultiAssets,\r\n        Alternatives,\r\n        Volatile,\r\n        Currency\r\n    }\r\n\r\n    enum PrivateAssetClass {\r\n        Equity,\r\n        Debt,\r\n  \t    OptionWarrantRightAcquireAnotherSecurity,\r\n  \t    AcquireSecurityUponExerciseOfOptionWarrantAcquireSecurity,\r\n      \tPooledInvestmentFundInterests,\r\n        TenantinCommon,\r\n        MineralProperty,\r\n        Other\r\n    }\r\n\r\n    struct Security {\r\n        AssetClass  class;\r\n        string      FILENUMBER;     // the File Number assigned by the SEC for this offering\r\n        string      CUSIP;\r\n        string      ISIN;\r\n        uint256     parValue;\r\n        uint256     shares;\r\n        bool        restricted;\r\n        uint256     authorized;\r\n        uint256     outstanding;\r\n        uint256     max_ppu;\r\n        uint256     max_aggregate;\r\n        uint256     fee;\r\n        uint256     totalSupply;\r\n    }\r\n\r\n    struct ShareStorage {\r\n        mapping (address => Security) securities;\r\n        mapping (address => mapping(address => bytes32)) certificate;\r\n    }\r\n\r\n    ITransferAgent TransferAgent;\r\n\r\n    constructor(address transferagent_contract) {\r\n        TransferAgent = ITransferAgent(transferagent_contract);\r\n    }\r\n\r\n    function shareStorage()\r\n        internal\r\n        pure\r\n        returns (ShareStorage storage ds)\r\n    {\r\n        bytes32 position = keccak256(\"share.storage\");\r\n        assembly { ds.slot := position }\r\n    }\r\n\r\n    function getClass(address offering)\r\n        external\r\n        view\r\n        returns (AssetClass)\r\n    {\r\n        return shareStorage().securities[offering].class;\r\n    }\r\n\r\n    function setClass(address offering,AssetClass _class)\r\n        external\r\n    {\r\n        shareStorage().securities[offering].class = _class;\r\n    }\r\n\r\n    function getShares(address offering)\r\n        external\r\n        view\r\n        returns (uint256)\r\n    {\r\n        return shareStorage().securities[offering].shares;\r\n    }\r\n\r\n    function getMaxPPU(address offering)\r\n        external\r\n        view\r\n        returns (uint256)\r\n    {\r\n        return shareStorage().securities[offering].max_ppu;\r\n    }\r\n\r\n    function getMaxAggregate(address offering)\r\n        external\r\n        view\r\n        returns (uint256)\r\n    {\r\n        return shareStorage().securities[offering].max_aggregate;\r\n    }\r\n\r\n    function getFee(address offering)\r\n        external\r\n        view\r\n        returns (uint256)\r\n    {\r\n        return shareStorage().securities[offering].fee;\r\n    }\r\n\r\n    function getTotalSupply(address offering)\r\n        external\r\n        view\r\n        returns (uint256)\r\n    {\r\n        return shareStorage().securities[offering].totalSupply;\r\n    }\r\n\r\n    function addTotalSupply(address offering, uint256 amount)\r\n        external\r\n    {\r\n        shareStorage().securities[offering].totalSupply += amount;\r\n    }\r\n\r\n\r\n    function isPriceBelowParValue(address offering, uint amount)\r\n        external\r\n        view\r\n        returns (bool)\r\n    {\r\n      return (amount > shareStorage().securities[offering].parValue);\r\n    }\r\n\r\n    function getTotalAuthorized(address offering)\r\n        external\r\n        view\r\n        returns (uint256)\r\n    {\r\n        return (shareStorage().securities[offering].authorized);\r\n    }\r\n\r\n    function getOutstanding(address offering)\r\n        external\r\n        view\r\n        returns (uint256)\r\n    {\r\n        return (shareStorage().securities[offering].outstanding);\r\n    }\r\n\r\n    function addOutstanding(address offering, uint256 amount)\r\n        external\r\n    {\r\n        require(msg.sender != address(0),\"invalid transfer agent\");\r\n        require(msg.sender  == TransferAgent.getTransferAgent(offering),\"not a valid transfer agent\");\r\n        shareStorage().securities[offering].outstanding += amount;\r\n    }\r\n\r\n    function subOutstanding(address offering, uint256 amount)\r\n        external\r\n    {\r\n        shareStorage().securities[offering].outstanding-= amount;\r\n    }\r\n\r\n    function isRestrictedSecurity(address offering)\r\n        external\r\n        view\r\n        returns (bool)\r\n    {\r\n      return (shareStorage().securities[offering].restricted);\r\n    }\r\n\r\n    function assignCUSIP(address offering, string memory cusip)\r\n        external\r\n    {\r\n        require(msg.sender != address(0),\"invalid transfer agent\");\r\n        require(msg.sender  == TransferAgent.getTransferAgent(offering),\"not a valid transfer agent\");\r\n        shareStorage().securities[offering].CUSIP = cusip;\r\n    }\r\n\r\n    function assignISIN(address offering,  string memory isin)\r\n        external\r\n    {\r\n        require(msg.sender != address(0),\"invalid transfer agent\");\r\n        require(msg.sender  == TransferAgent.getTransferAgent(offering),\"not a valid transfer agent\");\r\n        shareStorage().securities[offering].ISIN = isin;\r\n    }\r\n\r\n    function saveCertificate(address offering,address investor, bytes32 image)\r\n        external\r\n    {\r\n        require(msg.sender != address(0),\"invalid transfer agent\");\r\n        require(msg.sender  == TransferAgent.getTransferAgent(offering),\"not a valid transfer agent\");\r\n        shareStorage().certificate[offering][investor] = image;\r\n    }\r\n\r\n    function setParValue(address offering, uint256 value)\r\n        external\r\n    {\r\n        require(msg.sender != address(0),\"invalid transfer agent\");\r\n        require(msg.sender == TransferAgent.getTransferAgent(offering),\"not a valid transfer agent\");\r\n        shareStorage().securities[offering].parValue = value;\r\n    }\r\n\r\n    function getParValue(address offering)\r\n        external\r\n        view\r\n       returns (uint256)\r\n    {\r\n        return shareStorage().securities[offering].parValue;\r\n    }\r\n\r\n    function setRestricted(address offering, bool value)\r\n        external\r\n    {\r\n        require(msg.sender != address(0),\"invalid transfer agent\");\r\n        require(msg.sender == TransferAgent.getTransferAgent(offering),\"not a valid transfer agent\");\r\n        shareStorage().securities[offering].restricted = value;\r\n    }\r\n}",
  "sourcePath": "/Volumes/My Book/projects/pingleware-contracts/contracts/finance/Shares.sol",
  "compiler": {
    "name": "solc",
    "version": "0.8.18+commit.87f61d96.Emscripten.clang"
  },
  "schemaVersion": "3.4.12",
  "updatedAt": "2023-10-22T14:23:00.838Z",
  "devdoc": {
    "kind": "dev",
    "methods": {},
    "version": 1
  },
  "userdoc": {
    "kind": "user",
    "methods": {},
    "version": 1
  }
}