{
  "contractName": "SimpleBond",
  "abi": [
    {
      "inputs": [
        {
          "internalType": "string",
          "name": "_name",
          "type": "string"
        },
        {
          "internalType": "uint256",
          "name": "_par",
          "type": "uint256"
        },
        {
          "internalType": "uint256",
          "name": "_parDecimals",
          "type": "uint256"
        },
        {
          "internalType": "uint256",
          "name": "_coupon",
          "type": "uint256"
        },
        {
          "internalType": "uint256",
          "name": "_term",
          "type": "uint256"
        },
        {
          "internalType": "uint256",
          "name": "_cap",
          "type": "uint256"
        },
        {
          "internalType": "uint256",
          "name": "_timesToRedeem",
          "type": "uint256"
        },
        {
          "internalType": "address",
          "name": "_tokenToRedeem",
          "type": "address"
        },
        {
          "internalType": "uint256",
          "name": "_loopLimit",
          "type": "uint256"
        }
      ],
      "stateMutability": "nonpayable",
      "type": "constructor"
    },
    {
      "anonymous": false,
      "inputs": [
        {
          "indexed": true,
          "internalType": "address",
          "name": "caller",
          "type": "address"
        },
        {
          "indexed": false,
          "internalType": "uint256",
          "name": "amountClaimed",
          "type": "uint256"
        }
      ],
      "name": "ClaimedPar",
      "type": "event"
    },
    {
      "anonymous": false,
      "inputs": [
        {
          "indexed": false,
          "internalType": "address",
          "name": "sender",
          "type": "address"
        },
        {
          "indexed": false,
          "internalType": "address",
          "name": "recipient",
          "type": "address"
        }
      ],
      "name": "Destroyed",
      "type": "event"
    },
    {
      "anonymous": false,
      "inputs": [
        {
          "indexed": false,
          "internalType": "address",
          "name": "sender",
          "type": "address"
        },
        {
          "indexed": false,
          "internalType": "uint256",
          "name": "amount",
          "type": "uint256"
        }
      ],
      "name": "FallbackEvent",
      "type": "event"
    },
    {
      "anonymous": false,
      "inputs": [
        {
          "indexed": false,
          "internalType": "address",
          "name": "buyer",
          "type": "address"
        },
        {
          "indexed": false,
          "internalType": "uint256",
          "name": "bondsAmount",
          "type": "uint256"
        }
      ],
      "name": "MintedBond",
      "type": "event"
    },
    {
      "anonymous": false,
      "inputs": [
        {
          "indexed": true,
          "internalType": "address",
          "name": "previousOwner",
          "type": "address"
        },
        {
          "indexed": true,
          "internalType": "address",
          "name": "newOwner",
          "type": "address"
        }
      ],
      "name": "OwnershipTransferred",
      "type": "event"
    },
    {
      "anonymous": false,
      "inputs": [
        {
          "indexed": false,
          "internalType": "address",
          "name": "sender",
          "type": "address"
        },
        {
          "indexed": false,
          "internalType": "uint256",
          "name": "amount",
          "type": "uint256"
        }
      ],
      "name": "ReceiveEvent",
      "type": "event"
    },
    {
      "anonymous": false,
      "inputs": [
        {
          "indexed": true,
          "internalType": "address",
          "name": "caller",
          "type": "address"
        },
        {
          "indexed": false,
          "internalType": "uint256[]",
          "name": "bonds",
          "type": "uint256[]"
        }
      ],
      "name": "RedeemedCoupons",
      "type": "event"
    },
    {
      "anonymous": false,
      "inputs": [
        {
          "indexed": false,
          "internalType": "address",
          "name": "sender",
          "type": "address"
        },
        {
          "indexed": false,
          "internalType": "bytes",
          "name": "reason",
          "type": "bytes"
        }
      ],
      "name": "Started",
      "type": "event"
    },
    {
      "anonymous": false,
      "inputs": [
        {
          "indexed": false,
          "internalType": "address",
          "name": "sender",
          "type": "address"
        },
        {
          "indexed": false,
          "internalType": "bytes",
          "name": "reason",
          "type": "bytes"
        }
      ],
      "name": "Stopped",
      "type": "event"
    },
    {
      "anonymous": false,
      "inputs": [
        {
          "indexed": false,
          "internalType": "address",
          "name": "sender",
          "type": "address"
        },
        {
          "indexed": false,
          "internalType": "string",
          "name": "reason",
          "type": "string"
        }
      ],
      "name": "Termination",
      "type": "event"
    },
    {
      "anonymous": false,
      "inputs": [
        {
          "indexed": true,
          "internalType": "address",
          "name": "from",
          "type": "address"
        },
        {
          "indexed": true,
          "internalType": "address",
          "name": "to",
          "type": "address"
        },
        {
          "indexed": false,
          "internalType": "uint256[]",
          "name": "bonds",
          "type": "uint256[]"
        }
      ],
      "name": "Transferred",
      "type": "event"
    },
    {
      "stateMutability": "payable",
      "type": "fallback",
      "payable": true
    },
    {
      "inputs": [],
      "name": "VERSION",
      "outputs": [
        {
          "internalType": "string",
          "name": "",
          "type": "string"
        }
      ],
      "stateMutability": "view",
      "type": "function",
      "constant": true
    },
    {
      "inputs": [],
      "name": "WAIT",
      "outputs": [
        {
          "internalType": "uint256",
          "name": "",
          "type": "uint256"
        }
      ],
      "stateMutability": "view",
      "type": "function",
      "constant": true
    },
    {
      "inputs": [],
      "name": "destroy",
      "outputs": [],
      "stateMutability": "nonpayable",
      "type": "function"
    },
    {
      "inputs": [
        {
          "internalType": "address",
          "name": "_recipient",
          "type": "address"
        }
      ],
      "name": "destroyAndSend",
      "outputs": [],
      "stateMutability": "nonpayable",
      "type": "function"
    },
    {
      "inputs": [],
      "name": "getOwner",
      "outputs": [
        {
          "internalType": "address",
          "name": "",
          "type": "address"
        }
      ],
      "stateMutability": "payable",
      "type": "function",
      "payable": true
    },
    {
      "inputs": [],
      "name": "renounceOwnership",
      "outputs": [],
      "stateMutability": "payable",
      "type": "function",
      "payable": true
    },
    {
      "inputs": [
        {
          "internalType": "address",
          "name": "newOwner",
          "type": "address"
        }
      ],
      "name": "transferOwnership",
      "outputs": [],
      "stateMutability": "payable",
      "type": "function",
      "payable": true
    },
    {
      "stateMutability": "payable",
      "type": "receive",
      "payable": true
    },
    {
      "inputs": [
        {
          "internalType": "uint256",
          "name": "_loopLimit",
          "type": "uint256"
        }
      ],
      "name": "changeLoopLimit",
      "outputs": [],
      "stateMutability": "nonpayable",
      "type": "function"
    },
    {
      "inputs": [
        {
          "internalType": "address",
          "name": "buyer",
          "type": "address"
        },
        {
          "internalType": "uint256",
          "name": "_bondsAmount",
          "type": "uint256"
        }
      ],
      "name": "mintBond",
      "outputs": [],
      "stateMutability": "nonpayable",
      "type": "function"
    },
    {
      "inputs": [
        {
          "internalType": "uint256[]",
          "name": "_bonds",
          "type": "uint256[]"
        }
      ],
      "name": "redeemCoupons",
      "outputs": [],
      "stateMutability": "nonpayable",
      "type": "function"
    },
    {
      "inputs": [
        {
          "internalType": "address",
          "name": "receiver",
          "type": "address"
        },
        {
          "internalType": "uint256[]",
          "name": "_bonds",
          "type": "uint256[]"
        }
      ],
      "name": "transfer",
      "outputs": [],
      "stateMutability": "nonpayable",
      "type": "function"
    },
    {
      "inputs": [],
      "name": "donate",
      "outputs": [],
      "stateMutability": "payable",
      "type": "function",
      "payable": true
    },
    {
      "inputs": [
        {
          "internalType": "uint256",
          "name": "amount",
          "type": "uint256"
        },
        {
          "internalType": "address",
          "name": "receiver",
          "type": "address"
        }
      ],
      "name": "getMoney",
      "outputs": [],
      "stateMutability": "nonpayable",
      "type": "function"
    },
    {
      "inputs": [
        {
          "internalType": "uint256",
          "name": "bond",
          "type": "uint256"
        }
      ],
      "name": "getLastTimeRedeemed",
      "outputs": [
        {
          "internalType": "uint256",
          "name": "",
          "type": "uint256"
        }
      ],
      "stateMutability": "view",
      "type": "function",
      "constant": true
    },
    {
      "inputs": [
        {
          "internalType": "uint256",
          "name": "bond",
          "type": "uint256"
        }
      ],
      "name": "getBondOwner",
      "outputs": [
        {
          "internalType": "address",
          "name": "",
          "type": "address"
        }
      ],
      "stateMutability": "view",
      "type": "function",
      "constant": true
    },
    {
      "inputs": [
        {
          "internalType": "uint256",
          "name": "bond",
          "type": "uint256"
        }
      ],
      "name": "getRemainingCoupons",
      "outputs": [
        {
          "internalType": "int256",
          "name": "",
          "type": "int256"
        }
      ],
      "stateMutability": "view",
      "type": "function",
      "constant": true
    },
    {
      "inputs": [
        {
          "internalType": "uint256",
          "name": "bond",
          "type": "uint256"
        }
      ],
      "name": "getCouponsRedeemed",
      "outputs": [
        {
          "internalType": "uint256",
          "name": "",
          "type": "uint256"
        }
      ],
      "stateMutability": "view",
      "type": "function",
      "constant": true
    },
    {
      "inputs": [],
      "name": "getTokenAddress",
      "outputs": [
        {
          "internalType": "address",
          "name": "",
          "type": "address"
        }
      ],
      "stateMutability": "view",
      "type": "function",
      "constant": true
    },
    {
      "inputs": [],
      "name": "getTimesToRedeem",
      "outputs": [
        {
          "internalType": "uint256",
          "name": "",
          "type": "uint256"
        }
      ],
      "stateMutability": "view",
      "type": "function",
      "constant": true
    },
    {
      "inputs": [],
      "name": "getTerm",
      "outputs": [
        {
          "internalType": "uint256",
          "name": "",
          "type": "uint256"
        }
      ],
      "stateMutability": "view",
      "type": "function",
      "constant": true
    },
    {
      "inputs": [
        {
          "internalType": "uint256",
          "name": "bond",
          "type": "uint256"
        }
      ],
      "name": "getMaturity",
      "outputs": [
        {
          "internalType": "uint256",
          "name": "",
          "type": "uint256"
        }
      ],
      "stateMutability": "view",
      "type": "function",
      "constant": true
    },
    {
      "inputs": [],
      "name": "getSimpleInterest",
      "outputs": [
        {
          "internalType": "uint256",
          "name": "",
          "type": "uint256"
        }
      ],
      "stateMutability": "view",
      "type": "function",
      "constant": true
    },
    {
      "inputs": [],
      "name": "getCouponRate",
      "outputs": [
        {
          "internalType": "uint256",
          "name": "",
          "type": "uint256"
        }
      ],
      "stateMutability": "view",
      "type": "function",
      "constant": true
    },
    {
      "inputs": [],
      "name": "getParValue",
      "outputs": [
        {
          "internalType": "uint256",
          "name": "",
          "type": "uint256"
        }
      ],
      "stateMutability": "view",
      "type": "function",
      "constant": true
    },
    {
      "inputs": [],
      "name": "getCap",
      "outputs": [
        {
          "internalType": "uint256",
          "name": "",
          "type": "uint256"
        }
      ],
      "stateMutability": "view",
      "type": "function",
      "constant": true
    },
    {
      "inputs": [
        {
          "internalType": "address",
          "name": "who",
          "type": "address"
        }
      ],
      "name": "getBalance",
      "outputs": [
        {
          "internalType": "uint256",
          "name": "",
          "type": "uint256"
        }
      ],
      "stateMutability": "view",
      "type": "function",
      "constant": true
    },
    {
      "inputs": [],
      "name": "getParDecimals",
      "outputs": [
        {
          "internalType": "uint256",
          "name": "",
          "type": "uint256"
        }
      ],
      "stateMutability": "view",
      "type": "function",
      "constant": true
    },
    {
      "inputs": [],
      "name": "getTokenToRedeem",
      "outputs": [
        {
          "internalType": "address",
          "name": "",
          "type": "address"
        }
      ],
      "stateMutability": "view",
      "type": "function",
      "constant": true
    },
    {
      "inputs": [],
      "name": "getName",
      "outputs": [
        {
          "internalType": "string",
          "name": "",
          "type": "string"
        }
      ],
      "stateMutability": "view",
      "type": "function",
      "constant": true
    },
    {
      "inputs": [],
      "name": "getTotalDebt",
      "outputs": [
        {
          "internalType": "uint256",
          "name": "",
          "type": "uint256"
        }
      ],
      "stateMutability": "view",
      "type": "function",
      "constant": true
    },
    {
      "inputs": [],
      "name": "getTotalBonds",
      "outputs": [
        {
          "internalType": "uint256",
          "name": "",
          "type": "uint256"
        }
      ],
      "stateMutability": "view",
      "type": "function",
      "constant": true
    },
    {
      "inputs": [],
      "name": "getNonce",
      "outputs": [
        {
          "internalType": "uint256",
          "name": "",
          "type": "uint256"
        }
      ],
      "stateMutability": "view",
      "type": "function",
      "constant": true
    },
    {
      "inputs": [],
      "name": "getCouponThreshold",
      "outputs": [
        {
          "internalType": "uint256",
          "name": "",
          "type": "uint256"
        }
      ],
      "stateMutability": "view",
      "type": "function",
      "constant": true
    }
  ],
  "bytecode": "0x6080604052600060018190556003805460ff19169055600f8190556010553480156200002a57600080fd5b5060405162002386380380620023868339810160408190526200004d91620004e0565b60008054600160a060020a031916339081178255426001556040519091907f8be0079c531659141344cd1fd0a4f28419497f9722a3daafe3b4186f6b6457e0908290a3600089511162000101576040517f08c379a000000000000000000000000000000000000000000000000000000000815260206004820152601d60248201527f6e616d6520666f7220626f6e642063616e6e6f7420626520656d70747900000060448201526064015b60405180910390fd5b600086116200016d576040517f08c379a000000000000000000000000000000000000000000000000000000000815260206004820181905260248201527f636f75706f6e206d7573742062652067726561746572207468616e207a65726f6044820152606401620000f8565b60008811620001d9576040517f08c379a000000000000000000000000000000000000000000000000000000000815260206004820152601d60248201527f706172206d7573742062652067726561746572207468616e207a65726f0000006044820152606401620000f8565b6000851162000245576040517f08c379a000000000000000000000000000000000000000000000000000000000815260206004820152601e60248201527f7465726d206d7573742062652067726561746572207468616e207a65726f00006044820152606401620000f8565b60008111620002d6576040517f08c379a0000000000000000000000000000000000000000000000000000000008152602060048201526024808201527f6c6f6f70206c696d6974206d7573742062652067726561746572207468616e2060448201527f7a65726f000000000000000000000000000000000000000000000000000000006064820152608401620000f8565b600183101562000369576040517f08c379a000000000000000000000000000000000000000000000000000000000815260206004820152602960248201527f726564656d7074696f6e2074696d6520206d757374206265206772656174657260448201527f207468616e206f6e6500000000000000000000000000000000000000000000006064820152608401620000f8565b6004620003778a82620006b4565b50600a8890556009849055600e8190556007879055600d839055600b869055600c859055620003b58584640100000000620014df6200041382021704565b601055600160a060020a038216620003e85760058054600160a060020a031916600160a060020a03841617905562000404565b60118054600160a060020a031916600160a060020a0384161790555b50505050505050505062000786565b600080821162000480576040517f08c379a000000000000000000000000000000000000000000000000000000000815260206004820152601a60248201527f536166654d6174683a206469766973696f6e206279207a65726f0000000000006044820152606401620000f8565b6000826200048d57600080fd5b5050900490565b7f4e487b7100000000000000000000000000000000000000000000000000000000600052604160045260246000fd5b8051600160a060020a0381168114620004db57600080fd5b919050565b60008060008060008060008060006101208a8c0312156200050057600080fd5b89516001604060020a03808211156200051857600080fd5b818c0191508c601f8301126200052d57600080fd5b81518181111562000542576200054262000494565b604051601f8201601f19908116603f011681019083821181831017156200056d576200056d62000494565b81604052828152602093508f848487010111156200058a57600080fd5b600091505b82821015620005ae57848201840151818301850152908301906200058f565b6000848483010152809d50505050808c01519950505060408a0151965060608a0151955060808a0151945060a08a0151935060c08a01519250620005f560e08b01620004c3565b91506101008a015190509295985092959850929598565b6002810460018216806200062157607f821691505b6020821081036200065b577f4e487b7100000000000000000000000000000000000000000000000000000000600052602260045260246000fd5b50919050565b601f821115620006af576000818152602081206020601f860104810160208610156200068a5750805b6020601f860104820191505b81811015620006ab5782815560010162000696565b5050505b505050565b81516001604060020a03811115620006d057620006d062000494565b620006e881620006e184546200060c565b8462000661565b602080601f831160018114620007245760008415620007075750858301515b60028086026008870290910a6000190419821617865550620006ab565b600085815260208120601f198616915b82811015620007555788860151825594840194600190910190840162000734565b50858210156200077657878501516008601f88160260020a60001904191681555b5050505050600202600101905550565b611bf080620007966000396000f3fe6080604052600436106101855760e060020a60003504630f0044bf811461024c57806310fe9ae81461027f578063112f84e1146102b1578063124b65b4146102c657806317d7de7c146102db5780632b4e4e96146102fd57806334ce998a1461031f5780633af0ca191461033457806343b0748514610352578063554d578d1461037257806366e3d5ac1461038757806370843ae9146103a7578063715018a6146103bc5780637a36c307146103c45780637aafdeee146103e45780637f1e7d41146103f957806383197ef014610426578063893d20e81461043b57806395be1f1a14610443578063994635c914610470578063b8fb3a5114610490578063bb305ef2146104a5578063cb57b0a5146104c5578063d087d288146104da578063d561bf53146104ef578063d87f0afc14610504578063e0e09e0f14610524578063e575943614610539578063ed88c68e1461054e578063f2fde38b14610556578063f5074f4114610569578063f8b2cb4f14610589578063ffa1ad74146105a9576101c5565b366101c5577fcc85d09d309785db93d6df19917f2e6cc07fe27cd01c08c8279145deb5cf452633346040516101bb929190611691565b60405180910390a1005b32331461021b5760405160e560020a62461bcd0281526020600482015260196024820152603860020a787068697368696e672061747461636b2064657465637465643f0260448201526064015b60405180910390fd5b7f26875833861a2b006512a11f1b86edf95df96131040f3caeed72989ee985808333346040516101bb929190611691565b34801561025857600080fd5b5061026c6102673660046116aa565b6105e2565b6040519081526020015b60405180910390f35b34801561028b57600080fd5b50601154600160a060020a03165b604051600160a060020a039091168152602001610276565b3480156102bd57600080fd5b5061026c610633565b3480156102d257600080fd5b50600c5461026c565b3480156102e757600080fd5b506102f0610669565b60405161027691906116c3565b34801561030957600080fd5b5061031d610318366004611777565b6106fb565b005b34801561032b57600080fd5b5060065461026c565b34801561034057600080fd5b50600554600160a060020a0316610299565b34801561035e57600080fd5b5061026c61036d3660046116aa565b61091d565b34801561037e57600080fd5b5060095461026c565b34801561039357600080fd5b5061031d6103a23660046117c9565b610960565b3480156103b357600080fd5b5060105461026c565b61031d610c9f565b3480156103d057600080fd5b5061031d6103df3660046117f3565b610d04565b3480156103f057600080fd5b5060085461026c565b34801561040557600080fd5b5061026c6104143660046116aa565b60009081526013602052604090205490565b34801561043257600080fd5b5061031d6110d3565b610299611130565b34801561044f57600080fd5b5061026c61045e3660046116aa565b60009081526014602052604090205490565b34801561047c57600080fd5b5061031d61048b366004611834565b6111a6565b34801561049c57600080fd5b5061026c601e81565b3480156104b157600080fd5b506102996104c03660046116aa565b61127f565b3480156104d157600080fd5b50600b5461026c565b3480156104e657600080fd5b50600f5461026c565b3480156104fb57600080fd5b50600a5461026c565b34801561051057600080fd5b5061031d61051f3660046116aa565b61129a565b34801561053057600080fd5b5060075461026c565b34801561054557600080fd5b50600d5461026c565b61031d61132e565b61031d610564366004611860565b61138c565b34801561057557600080fd5b5061031d610584366004611860565b61146d565b34801561059557600080fd5b5061026c6105a4366004611860565b6114c4565b3480156105b557600080fd5b506102f06040518060400160405280600a815260200160b060020a69312e362e342d626574610281525081565b600081815260136020526040812054600c5482916105ff9161154b565b9050600061062b8261062660146000888152602001908152602001600020546010546115b9565b611639565b949350505050565b60008061063f600b5490565b9050600061064c600a5490565b905061066261065b82846115b9565b60646114df565b9250505090565b6060600480546106789061187b565b80601f01602080910402602001604051908101604052809291908181526020018280546106a49061187b565b80156106f15780601f106106c6576101008083540402835291602001916106f1565b820191906000526020600020905b8154815290600101906020018083116106d457829003601f168201915b5050505050905090565b8061071b5760405160e560020a62461bcd028152600401610212906118b9565b600160a060020a0383166107445760405160e560020a62461bcd028152600401610212906118b9565b61074d336114c4565b81111561076f5760405160e560020a62461bcd028152600401610212906118b9565b60005b818110156108ca573360126000858585818110610791576107916118ca565b6020908102929092013583525081019190915260400160002054600160a060020a03161415806107ed5750600d54601460008585858181106107d5576107d56118ca565b90506020020135815260200190815260200160002054145b6108b8578360126000858585818110610808576108086118ca565b90506020020135815260200190815260200160002060006101000a815481600160a060020a030219169083600160a060020a031602179055506108716015600033600160a060020a0316600160a060020a0316815260200190815260200160002054600161154b565b3360009081526015602052604080822092909255600160a060020a0386168152205461089e906001611639565b600160a060020a0385166000908152601560205260409020555b806108c2816118fe565b915050610772565b5082600160a060020a031633600160a060020a03167f227687bda9848548d0e213bd3dcc76bc21295e33dff6849e2c2bd7c75cb77bf78484604051610910929190611917565b60405180910390a3505050565b6000806109298361127f565b9050600160a060020a038116610943575060001992915050565b600083815260146020526040902054600d5461062b908290611950565b600054600160a060020a0316331461098d5760405160e560020a62461bcd02815260040161021290611963565b600160a060020a0382166109de5760405160e560020a62461bcd0281526020600482015260126024820152607160020a713ab730baba3437b934bd32b210313abcb2b9026044820152606401610212565b6001811015610a325760405160e560020a62461bcd02815260206004820152601a60248201527f626f6e6420616d6f756e742063616e6e6f74206265207a65726f0000000000006044820152606401610212565b600e54811115610a965760405160e560020a62461bcd028152602060048201526024808201527f626f6e6420616d6f756e742063616e6e6f7420657863656564206c6f6f70206c604482015260e260020a631a5b5a5d026064820152608401610212565b60095415610afe57600954610aad60085483611639565b1115610afe5760405160e560020a62461bcd02815260206004820152601c60248201527f6d696e74696e672077696c6c20657863656564206361706163697479000000006044820152606401610212565b610b0a60085482611639565b600855600f54610b1a9082611639565b600f5560005b81811015610c1757610b3442600c54611639565b60136000610b44600f548561154b565b8152602001908152602001600020819055508260126000610b67600f548561154b565b815260200190815260200160002060006101000a815481600160a060020a030219169083600160a060020a03160217905550600060146000610bab600f548561154b565b815260200190815260200160002081905550610bec6015600085600160a060020a0316600160a060020a031681526020019081526020016000205483611639565b600160a060020a03841660009081526015602052604090205580610c0f816118fe565b915050610b20565b50610c5e610c32610c2c600654600a54611639565b836115b9565b610626610c58610c50600a54610c4b600b5460646114df565b6115b9565b600d546115b9565b846115b9565b6006556040517ff684d4510acd3fe860087ff339d3668df1f4b82d05e5b4cab07130929bfa835d90610c939084908490611691565b60405180910390a15050565b600054600160a060020a03163314610ccc5760405160e560020a62461bcd0281526004016102129061199a565b60008054604051600160a060020a0390911690600080516020611b9b833981519152908390a360008054600160a060020a0319169055565b80610d245760405160e560020a62461bcd028152600401610212906118b9565b600e54811115610d495760405160e560020a62461bcd028152600401610212906118b9565b610d52336114c4565b811115610d745760405160e560020a62461bcd028152600401610212906118b9565b6000806000805b84811015611088573360126000888885818110610d9a57610d9a6118ca565b6020908102929092013583525081019190915260400160002054600160a060020a0316141580610df65750600d5460146000888885818110610dde57610dde6118ca565b90506020020135815260200190815260200160002054145b61107657610e3160136000888885818110610e1357610e136118ca565b90506020020135815260200190815260200160002054600c5461154b565b9350610e73610e6b85601460008a8a87818110610e5057610e506118ca565b90506020020135815260200190815260200160002054611639565b6010546115b9565b925060136000878784818110610e8b57610e8b6118ca565b90506020020135815260200190815260200160002054610ead84601054611639565b101580610ec45750610ec183601054611639565b42105b61107657610edd610ed5428561154b565b6010546114df565b9150811561107657610f1a60146000888885818110610efe57610efe6118ca565b9050602002013581526020019081526020016000205483611639565b60146000888885818110610f3057610f306118ca565b90506020020135815260200190815260200160002081905550610f84610f7e83610c4b610f61600a54600b546115b9565b610f6e6007546002611639565b610f7990600a611ab5565b6114df565b336111a6565b600d5460146000888885818110610f9d57610f9d6118ca565b905060200201358152602001908152602001600020540361107657600060126000888885818110610fd057610fd06118ca565b90506020020135815260200190815260200160002060006101000a815481600160a060020a030219169083600160a060020a03160217905550600060136000888885818110611021576110216118ca565b602090810292909201358352508181019290925260409081016000908120939093553383526015909152812080549161105983611ac1565b9190505550611076610f7e600a54600754600a610f799190611ab5565b80611080816118fe565b915050610d7b565b5033600160a060020a03167f6842ed68604cbaecf495f440b5684cffd179b26f069e5205907f642a1bc91e4d86866040516110c4929190611917565b60405180910390a25050505050565b600054600160a060020a031633146111005760405160e560020a62461bcd02815260040161021290611963565b600080516020611b7b83398151915233611118611130565b604051611126929190611ad8565b60405180910390a1565b6000601e6001546111419190611af2565b42116111625760405160e560020a62461bcd02815260040161021290611b05565b601e6001546111719190611af2565b42116111925760405160e560020a62461bcd02815260040161021290611b05565b5042600155600054600160a060020a031690565b601154600160a060020a03166111f257604051600160a060020a0382169083156108fc029084906000818181858888f193505050501580156111ec573d6000803e3d6000fd5b5061126c565b60115460405160e060020a63a9059cbb028152600160a060020a039091169063a9059cbb906112279033908690600401611691565b6020604051808303816000875af1158015611246573d6000803e3d6000fd5b505050506040513d601f19601f8201168201806040525081019061126a9190611b32565b505b6112786006548361154b565b6006555050565b600090815260126020526040902054600160a060020a031690565b600054600160a060020a031633146112c75760405160e560020a62461bcd02815260040161021290611963565b600081116113295760405160e560020a62461bcd028152602060048201526024808201527f6c6f6f70206c696d6974206d7573742062652067726561746572207468616e20604482015260e060020a637a65726f026064820152608401610212565b600e55565b601154600160a060020a03161561138a5760405160e560020a62461bcd02815260206004820152601a60248201527f756e646566696e656420636f6e747261637420616464726573730000000000006044820152606401610212565b565b600054600160a060020a031633146113b95760405160e560020a62461bcd0281526004016102129061199a565b600160a060020a0381166114245760405160e560020a62461bcd02815260206004820152602660248201527f4f776e61626c653a206e6577206f776e657220697320746865207a65726f2061604482015260d060020a65646472657373026064820152608401610212565b60008054604051600160a060020a0380851693921691600080516020611b9b83398151915291a360008054600160a060020a031916600160a060020a0392909216919091179055565b600054600160a060020a0316331461149a5760405160e560020a62461bcd02815260040161021290611963565b600080516020611b7b83398151915233826040516114b9929190611ad8565b60405180910390a150565b600160a060020a031660009081526015602052604090205490565b60008082116115335760405160e560020a62461bcd02815260206004820152601a60248201527f536166654d6174683a206469766973696f6e206279207a65726f0000000000006044820152606401610212565b60008261153f57600080fd5b50508082045b92915050565b6000828211156115a05760405160e560020a62461bcd02815260206004820152601e60248201527f536166654d6174683a207375627472616374696f6e206f766572666c6f7700006044820152606401610212565b8183038219840181146115b257600080fd5b9392505050565b6000828202821583820485141517156115d157600080fd5b826115dc8583611b54565b146115b25760405160e560020a62461bcd02815260206004820152602160248201527f536166654d6174683a206d756c7469706c69636174696f6e206f766572666c6f604482015260f860020a6077026064820152608401610212565b6000828201838110156115b25760405160e560020a62461bcd02815260206004820152601b60248201527f536166654d6174683a206164646974696f6e206f766572666c6f7700000000006044820152606401610212565b600160a060020a03929092168252602082015260400190565b6000602082840312156116bc57600080fd5b5035919050565b600060208083528351808285015260005b818110156116f0578581018301518582016040015282016116d4565b506000604082860101526040601f19601f8301168501019250505092915050565b8035600160a060020a038116811461172857600080fd5b919050565b60008083601f84011261173f57600080fd5b5081356001604060020a0381111561175657600080fd5b602083019150836020808302850101111561177057600080fd5b9250929050565b60008060006040848603121561178c57600080fd5b61179584611711565b925060208401356001604060020a038111156117b057600080fd5b6117bc8682870161172d565b9497909650939450505050565b600080604083850312156117dc57600080fd5b6117e583611711565b946020939093013593505050565b6000806020838503121561180657600080fd5b82356001604060020a0381111561181c57600080fd5b6118288582860161172d565b90969095509350505050565b6000806040838503121561184757600080fd5b8235915061185760208401611711565b90509250929050565b60006020828403121561187257600080fd5b6115b282611711565b60028104600182168061188f57607f821691505b6020821081036118b35760e060020a634e487b710260009081526022600452602490fd5b50919050565b602080825260009082015260400190565b60e060020a634e487b710260009081526032600452602490fd5b60e060020a634e487b710260009081526011600452602490fd5b600060018201611910576119106118e4565b5060010190565b602080825281018290526000600160fb60020a0383111561193757600080fd5b6020830280856040850137919091016040019392505050565b81810381811115611545576115456118e4565b6020808252601b908201527f756e617574686f72697a65642c206e6f7420746865206f776e65720000000000604082015260600190565b6020808252601790820152604960020a7630b1b1b2b9b9903232b734b2b2103337b91037bbb732b902604082015260600190565b600181815b80851115611a0b5781600019048211156119ef576119ef6118e4565b808516156119fc57918102915b600290940493908002906119d3565b509250929050565b600082611a2257506001611545565b81611a2f57506000611545565b8160018114611a455760028114611a4f57611a6c565b6001915050611545565b60ff841115611a6057611a606118e4565b8360020a915050611545565b5060208310610133831016604e8410600b8410161715611a8f575081810a611545565b611a9983836119ce565b8060001904821115611aad57611aad6118e4565b029392505050565b60006115b28383611a13565b600081611ad057611ad06118e4565b506000190190565b600160a060020a0392831681529116602082015260400190565b80820180821115611545576115456118e4565b6020808252601090820152608160020a6f3930ba32903634b6b4ba1032b93937b902604082015260600190565b600060208284031215611b4457600080fd5b815180151581146115b257600080fd5b600082611b755760e060020a634e487b710260009081526012600452602490fd5b50049056fe91ca00fdf29069527d658f8dfc6d1c0bf9861780bb45ff36436f938d3595a8d68be0079c531659141344cd1fd0a4f28419497f9722a3daafe3b4186f6b6457e0a264697066735822122067d79bcf73ed1740bc53b74908b01106fd3d2a6d15dcbdd21ad0a8b3b4fd8e6764736f6c63430008120033",
  "immutableReferences": {},
  "source": "// SPDX-License-Identifier: CC-BY-4.0\r\npragma solidity >=0.4.22 <0.9.0;\r\n\r\n/**\r\n * Refactored from https://github.com/stefanionescu/Smart-Bond\r\n */\r\n\r\nimport \"../../common/Version.sol\";\r\nimport \"../../common/Frozen.sol\";\r\nimport \"../../libs/SafeMath.sol\";\r\nimport \"../../common/Token.sol\";\r\nimport \"../../interfaces/ISimpleBond.sol\";\r\nimport \"../../interfaces/IToken.sol\";\r\n\r\ncontract SimpleBond is ISimpleBond, Version, Frozen {\r\n\r\n   using SafeMath for uint256;\r\n   string name;\r\n   address tokenToRedeem;\r\n   uint256 totalDebt;\r\n   uint256 parDecimals;\r\n   uint256 bondsNumber;\r\n   uint256 cap;\r\n   uint256 parValue;\r\n   uint256 couponRate;\r\n   uint256 term;\r\n   uint256 timesToRedeem;\r\n   uint256 loopLimit;\r\n   uint256 nonce = 0;\r\n   uint256 couponThreshold = 0;\r\n\r\n   IToken token;\r\n\r\n   mapping(uint256 => address) bonds;\r\n   mapping(uint256 => uint256) maturities;\r\n   mapping(uint256 => uint256) couponsRedeemed;\r\n   mapping(address => uint256) bondsAmount;\r\n\r\n   constructor(string memory _name, \r\n               uint256 _par, \r\n               uint256 _parDecimals, \r\n               uint256 _coupon,\r\n               uint256 _term, \r\n               uint256 _cap, \r\n               uint256 _timesToRedeem, \r\n               address _tokenToRedeem,\r\n               uint256 _loopLimit) {\r\n        require(bytes(_name).length > 0,\"name for bond cannot be empty\");\r\n        require(_coupon > 0,\"coupon must be greater than zero\");\r\n        require(_par > 0,\"par must be greater than zero\");\r\n        require(_term > 0,\"term must be greater than zero\");\r\n        require(_loopLimit > 0,\"loop limit must be greater than zero\");\r\n        require(_timesToRedeem >= 1,\"redemption time  must be greater than one\");\r\n\r\n        name = _name;\r\n        parValue = _par;\r\n        cap = _cap;\r\n        loopLimit = _loopLimit;\r\n        parDecimals = _parDecimals;\r\n        timesToRedeem = _timesToRedeem;\r\n        couponRate = _coupon;\r\n        term = _term;\r\n        couponThreshold = SafeMath.safeDiv(term,timesToRedeem);\r\n\r\n        if (_tokenToRedeem == address(0)) {\r\n            tokenToRedeem = _tokenToRedeem;\r\n        } else {\r\n            // Bond token name and symbol are the same\r\n            token = IToken(_tokenToRedeem);\r\n        }\r\n    }\r\n\r\n    /**\r\n    * @notice Change the number of elements you can loop through in this contract\r\n    * @param _loopLimit The new loop limit\r\n    */\r\n\r\n    function changeLoopLimit(uint256 _loopLimit) public override okOwner {\r\n        require(_loopLimit > 0,\"loop limit must be greater than zero\");\r\n        loopLimit = _loopLimit;\r\n    }\r\n\r\n    /**\r\n    * @notice Mint bonds to a new buyer\r\n    * @param buyer The buyer of the bonds\r\n    * @param _bondsAmount How many bonds to mint\r\n    */\r\n    function mintBond(address buyer, uint256 _bondsAmount) public override okOwner {\r\n        require(buyer != address(0),\"unauthorized buyer\");\r\n        require(_bondsAmount >= 1,\"bond amount cannot be zero\");\r\n        require(_bondsAmount <= loopLimit,\"bond amount cannot exceed loop limit\");\r\n\r\n        if (cap > 0) {\r\n            require(SafeMath.safeAdd(bondsNumber,_bondsAmount) <= cap,\"minting will exceed capacity\");\r\n        }\r\n\r\n        bondsNumber = SafeMath.safeAdd(bondsNumber,_bondsAmount);\r\n\r\n        nonce = SafeMath.safeAdd(nonce,_bondsAmount);\r\n\r\n        for (uint256 i = 0; i < _bondsAmount; i++) {\r\n            maturities[SafeMath.safeSub(nonce,i)] = SafeMath.safeAdd(block.timestamp,term);\r\n            bonds[SafeMath.safeSub(nonce,i)] = buyer;\r\n            couponsRedeemed[SafeMath.safeSub(nonce,i)] = 0;\r\n            bondsAmount[buyer] = SafeMath.safeAdd(bondsAmount[buyer],_bondsAmount);\r\n        }\r\n\r\n        totalDebt = SafeMath.safeAdd(SafeMath.safeMul(SafeMath.safeAdd(totalDebt,parValue),_bondsAmount),(SafeMath.safeMul(SafeMath.safeMul(SafeMath.safeMul(parValue,(SafeMath.safeDiv(couponRate,100))),timesToRedeem),_bondsAmount)));\r\n\r\n        emit MintedBond(buyer, _bondsAmount);\r\n    }\r\n\r\n    /**\r\n    * @notice Redeem coupons on your bonds\r\n    * @param _bonds An array of bond ids corresponding to the bonds you want to redeem apon\r\n    */\r\n    function redeemCoupons(uint256[] calldata _bonds) public override {\r\n        require(_bonds.length > 0,\"\");\r\n        require(_bonds.length <= loopLimit,\"\");\r\n        require(_bonds.length <= getBalance(msg.sender),\"\");\r\n\r\n        uint256 issueDate = 0;\r\n        uint256 lastThresholdRedeemed = 0;\r\n        uint256 toRedeem = 0;\r\n\r\n        for (uint256 i = 0; i < _bonds.length; i++) {\r\n            if (bonds[_bonds[i]] != msg.sender\r\n                || couponsRedeemed[_bonds[i]] == timesToRedeem) continue;\r\n\r\n            issueDate = SafeMath.safeSub(maturities[_bonds[i]],term);\r\n            lastThresholdRedeemed = SafeMath.safeMul(SafeMath.safeAdd(issueDate,couponsRedeemed[_bonds[i]]),couponThreshold);\r\n\r\n            if (SafeMath.safeAdd(lastThresholdRedeemed,couponThreshold) >= maturities[_bonds[i]] ||\r\n                block.timestamp < SafeMath.safeAdd(lastThresholdRedeemed,couponThreshold)) continue;\r\n\r\n            toRedeem = SafeMath.safeDiv(SafeMath.safeSub(block.timestamp,lastThresholdRedeemed),couponThreshold);\r\n\r\n            if (toRedeem == 0) continue;\r\n\r\n            couponsRedeemed[_bonds[i]] = SafeMath.safeAdd(couponsRedeemed[_bonds[i]],toRedeem);\r\n\r\n            getMoney(SafeMath.safeMul(toRedeem,(SafeMath.safeDiv(SafeMath.safeMul(parValue,couponRate),(10 ** (SafeMath.safeAdd(parDecimals,2)))))), msg.sender);\r\n\r\n            if (couponsRedeemed[_bonds[i]] == timesToRedeem) {\r\n                bonds[_bonds[i]] = address(0);\r\n                maturities[_bonds[i]] = 0;\r\n                bondsAmount[msg.sender]--;\r\n\r\n                getMoney(SafeMath.safeDiv(parValue,(10 ** parDecimals)), msg.sender);\r\n            }\r\n        }\r\n\r\n        emit RedeemedCoupons(msg.sender, _bonds);\r\n    }\r\n\r\n    /**\r\n    * @notice Transfer bonds to another address\r\n    * @param receiver The receiver of the bonds\r\n    * @param _bonds The ids of the bonds that you want to transfer\r\n    */\r\n\r\n    function transfer(address receiver, uint256[] calldata _bonds) public override {\r\n\r\n        require(_bonds.length > 0,\"\");\r\n        require(receiver != address(0),\"\");\r\n        require(_bonds.length <= getBalance(msg.sender),\"\");\r\n\r\n        for (uint256 i = 0; i < _bonds.length; i++) {\r\n            if (bonds[_bonds[i]] != msg.sender\r\n                || couponsRedeemed[_bonds[i]] == timesToRedeem) continue;\r\n\r\n            bonds[_bonds[i]] = receiver;\r\n            bondsAmount[msg.sender] = SafeMath.safeSub(bondsAmount[msg.sender],1);\r\n            bondsAmount[receiver] = SafeMath.safeAdd(bondsAmount[receiver],1);\r\n\r\n        }\r\n\r\n        emit Transferred(msg.sender, receiver, _bonds);\r\n    }\r\n\r\n    /**\r\n    * @notice Donate money to this contract\r\n    */\r\n\r\n    function donate() public override payable {\r\n        require(address(token) == address(0),\"undefined contract address\");\r\n    }\r\n\r\n    //PRIVATE\r\n\r\n    /**\r\n    * @notice Transfer coupon money to an address\r\n    * @param amount The amount of money to be transferred\r\n    * @param receiver The address which will receive the money\r\n    */\r\n\r\n    function getMoney(uint256 amount, address receiver) public override {\r\n        if (address(token) == address(0)) {\r\n            payable(receiver).transfer(amount);\r\n        } else {\r\n            token.transfer(msg.sender, amount);\r\n        }\r\n\r\n        totalDebt = SafeMath.safeSub(totalDebt,amount);\r\n   }\r\n\r\n    //GETTERS\r\n\r\n    /**\r\n    * @dev Get the last time coupons for a particular bond were redeemed\r\n    * @param bond The bond id to analyze\r\n    */\r\n\r\n    function getLastTimeRedeemed(uint256 bond) public override view returns (uint256) {\r\n        uint256 issueDate = SafeMath.safeSub(maturities[bond],term);\r\n        uint256 lastThresholdRedeemed = SafeMath.safeAdd(issueDate,SafeMath.safeMul(couponsRedeemed[bond],couponThreshold));\r\n        return lastThresholdRedeemed;\r\n    }\r\n\r\n    /**\r\n    * @dev Get the owner of a specific bond\r\n    * @param bond The bond id to analyze\r\n    */\r\n\r\n    function getBondOwner(uint256 bond) public override view returns (address) {\r\n        return bonds[bond];\r\n    }\r\n\r\n    /**\r\n    * @dev Get how many coupons remain to be redeemed for a specific bond\r\n    * @param bond The bond id to analyze\r\n    */\r\n\r\n    function getRemainingCoupons(uint256 bond) public override view returns (int256) {\r\n        address owner = getBondOwner(bond);\r\n        if (owner == address(0)) return -1;\r\n        uint256 redeemed = getCouponsRedeemed(bond);\r\n        return int256(timesToRedeem - redeemed);\r\n    }\r\n\r\n   /**\r\n   * @dev Get how many coupons were redeemed for a specific bond\r\n   * @param bond The bond id to analyze\r\n   */\r\n\r\n   function getCouponsRedeemed(uint256 bond) public override view returns (uint256) {\r\n     return couponsRedeemed[bond];\r\n   }\r\n\r\n   /**\r\n   * @dev Get the address of the token that is redeemed for coupons\r\n   */\r\n\r\n    function getTokenAddress() public override view returns (address) {\r\n        return (address(token));\r\n    }\r\n\r\n    /**\r\n    * @dev Get how many times coupons can be redeemed for bonds\r\n    */\r\n\r\n    function getTimesToRedeem() public override view returns (uint256) {\r\n        return timesToRedeem;\r\n    }\r\n\r\n    /**\r\n    * @dev Get how much time it takes for a bond to mature\r\n    */\r\n\r\n    function getTerm() public override view returns (uint256) {\r\n        return term;\r\n    }\r\n\r\n    /**\r\n    * @dev Get the maturity date for a specific bond\r\n    * @param bond The bond id to analyze\r\n    */\r\n\r\n    function getMaturity(uint256 bond) public override view returns (uint256) {\r\n        return maturities[bond];\r\n    }\r\n\r\n    /**\r\n    * @dev Get how much money is redeemed on a coupon\r\n    */\r\n\r\n    function getSimpleInterest() public override view returns (uint256) {\r\n        uint256 rate = getCouponRate();\r\n        uint256 par = getParValue();\r\n        return SafeMath.safeDiv(SafeMath.safeMul(par,rate),100);\r\n    }\r\n\r\n    /**\r\n    * @dev Get the yield of a bond\r\n    */\r\n\r\n    function getCouponRate() public override view returns (uint256) {\r\n        return couponRate;\r\n    }\r\n\r\n    /**\r\n    * @dev Get the par value for these bonds\r\n    */\r\n\r\n    function getParValue() public override view returns (uint256) {\r\n        return parValue;\r\n    }\r\n\r\n    /**\r\n    * @dev Get the cap amount for these bonds\r\n    */\r\n\r\n    function getCap() public override view returns (uint256) {\r\n        return cap;\r\n    }\r\n\r\n    /**\r\n    * @dev Get amount of bonds that an address has\r\n    * @param who The address to analyze\r\n    */\r\n\r\n    function getBalance(address who) public override view returns (uint256) {\r\n        return bondsAmount[who];\r\n    }\r\n\r\n    /**\r\n    * @dev If the par value is a real number, it might have decimals. Get the amount of decimals the par value has\r\n    */\r\n\r\n    function getParDecimals() public override view returns (uint256) {\r\n        return parDecimals;\r\n    }\r\n\r\n    /**\r\n    * @dev Get the address of the token redeemed for coupons\r\n    */\r\n\r\n    function getTokenToRedeem() public override view returns (address) {\r\n        return tokenToRedeem;\r\n    }\r\n\r\n    /**\r\n    * @dev Get the name of this smart bond contract\r\n    */\r\n\r\n    function getName() public override view returns (string memory) {\r\n        return name;\r\n    }\r\n\r\n    /**\r\n    * @dev Get the current unpaid debt\r\n    */\r\n\r\n    function getTotalDebt() public override view returns (uint256) {\r\n        return totalDebt;\r\n    }\r\n\r\n    /**\r\n    * @dev Get the total amount of bonds issued\r\n    */\r\n\r\n    function getTotalBonds() public override view returns (uint256) {\r\n        return bondsNumber;\r\n    }\r\n\r\n    /**\r\n    * @dev Get the latest nonce\r\n    */\r\n\r\n    function getNonce() public override view returns (uint256) {\r\n        return nonce;\r\n    }\r\n\r\n    /**\r\n    * @dev Get the amount of time that needs to pass between the dates when you can redeem coupons\r\n    */\r\n\r\n    function getCouponThreshold() public override view returns (uint256) {\r\n        return couponThreshold;\r\n    }\r\n}",
  "sourcePath": "/Volumes/My Book/projects/pingleware-contracts/contracts/finance/debt/SimpleBond.sol",
  "compiler": {
    "name": "solc",
    "version": "0.8.18+commit.87f61d96.Emscripten.clang"
  },
  "schemaVersion": "3.4.12",
  "updatedAt": "2023-10-24T16:42:57.020Z",
  "networkType": "ethereum",
  "devdoc": {
    "kind": "dev",
    "methods": {
      "changeLoopLimit(uint256)": {
        "params": {
          "_loopLimit": "The new loop limit"
        }
      },
      "getBalance(address)": {
        "details": "Get amount of bonds that an address has",
        "params": {
          "who": "The address to analyze"
        }
      },
      "getBondOwner(uint256)": {
        "details": "Get the owner of a specific bond",
        "params": {
          "bond": "The bond id to analyze"
        }
      },
      "getCap()": {
        "details": "Get the cap amount for these bonds"
      },
      "getCouponRate()": {
        "details": "Get the yield of a bond"
      },
      "getCouponThreshold()": {
        "details": "Get the amount of time that needs to pass between the dates when you can redeem coupons"
      },
      "getCouponsRedeemed(uint256)": {
        "details": "Get how many coupons were redeemed for a specific bond",
        "params": {
          "bond": "The bond id to analyze"
        }
      },
      "getLastTimeRedeemed(uint256)": {
        "details": "Get the last time coupons for a particular bond were redeemed",
        "params": {
          "bond": "The bond id to analyze"
        }
      },
      "getMaturity(uint256)": {
        "details": "Get the maturity date for a specific bond",
        "params": {
          "bond": "The bond id to analyze"
        }
      },
      "getMoney(uint256,address)": {
        "params": {
          "amount": "The amount of money to be transferred",
          "receiver": "The address which will receive the money"
        }
      },
      "getName()": {
        "details": "Get the name of this smart bond contract"
      },
      "getNonce()": {
        "details": "Get the latest nonce"
      },
      "getParDecimals()": {
        "details": "If the par value is a real number, it might have decimals. Get the amount of decimals the par value has"
      },
      "getParValue()": {
        "details": "Get the par value for these bonds"
      },
      "getRemainingCoupons(uint256)": {
        "details": "Get how many coupons remain to be redeemed for a specific bond",
        "params": {
          "bond": "The bond id to analyze"
        }
      },
      "getSimpleInterest()": {
        "details": "Get how much money is redeemed on a coupon"
      },
      "getTerm()": {
        "details": "Get how much time it takes for a bond to mature"
      },
      "getTimesToRedeem()": {
        "details": "Get how many times coupons can be redeemed for bonds"
      },
      "getTokenAddress()": {
        "details": "Get the address of the token that is redeemed for coupons"
      },
      "getTokenToRedeem()": {
        "details": "Get the address of the token redeemed for coupons"
      },
      "getTotalBonds()": {
        "details": "Get the total amount of bonds issued"
      },
      "getTotalDebt()": {
        "details": "Get the current unpaid debt"
      },
      "mintBond(address,uint256)": {
        "params": {
          "_bondsAmount": "How many bonds to mint",
          "buyer": "The buyer of the bonds"
        }
      },
      "redeemCoupons(uint256[])": {
        "params": {
          "_bonds": "An array of bond ids corresponding to the bonds you want to redeem apon"
        }
      },
      "renounceOwnership()": {
        "details": "Leaves the contract without owner. It will not be possible to call `onlyOwner` functions anymore. Can only be called by the current owner. NOTE: Renouncing ownership will leave the contract without an owner, thereby removing any functionality that is only available to the owner."
      },
      "transfer(address,uint256[])": {
        "params": {
          "_bonds": "The ids of the bonds that you want to transfer",
          "receiver": "The receiver of the bonds"
        }
      },
      "transferOwnership(address)": {
        "details": "Transfers ownership of the contract to a new account (`newOwner`). Can only be called by the current owner."
      }
    },
    "version": 1
  },
  "userdoc": {
    "kind": "user",
    "methods": {
      "changeLoopLimit(uint256)": {
        "notice": "Change the number of elements you can loop through in this contract"
      },
      "donate()": {
        "notice": "Donate money to this contract"
      },
      "getMoney(uint256,address)": {
        "notice": "Transfer coupon money to an address"
      },
      "mintBond(address,uint256)": {
        "notice": "Mint bonds to a new buyer"
      },
      "redeemCoupons(uint256[])": {
        "notice": "Redeem coupons on your bonds"
      },
      "transfer(address,uint256[])": {
        "notice": "Transfer bonds to another address"
      }
    },
    "version": 1
  }
}