{
  "contractName": "SimpleBond",
  "abi": [
    {
      "inputs": [
        {
          "internalType": "string",
          "name": "_name",
          "type": "string"
        },
        {
          "internalType": "uint256",
          "name": "_par",
          "type": "uint256"
        },
        {
          "internalType": "uint256",
          "name": "_parDecimals",
          "type": "uint256"
        },
        {
          "internalType": "uint256",
          "name": "_coupon",
          "type": "uint256"
        },
        {
          "internalType": "uint256",
          "name": "_term",
          "type": "uint256"
        },
        {
          "internalType": "uint256",
          "name": "_cap",
          "type": "uint256"
        },
        {
          "internalType": "uint256",
          "name": "_timesToRedeem",
          "type": "uint256"
        },
        {
          "internalType": "address",
          "name": "_tokenToRedeem",
          "type": "address"
        },
        {
          "internalType": "uint256",
          "name": "_loopLimit",
          "type": "uint256"
        }
      ],
      "stateMutability": "nonpayable",
      "type": "constructor"
    },
    {
      "anonymous": false,
      "inputs": [
        {
          "indexed": true,
          "internalType": "address",
          "name": "caller",
          "type": "address"
        },
        {
          "indexed": false,
          "internalType": "uint256",
          "name": "amountClaimed",
          "type": "uint256"
        }
      ],
      "name": "ClaimedPar",
      "type": "event"
    },
    {
      "anonymous": false,
      "inputs": [
        {
          "indexed": false,
          "internalType": "address",
          "name": "sender",
          "type": "address"
        },
        {
          "indexed": false,
          "internalType": "address",
          "name": "recipient",
          "type": "address"
        }
      ],
      "name": "Destroyed",
      "type": "event"
    },
    {
      "anonymous": false,
      "inputs": [
        {
          "indexed": false,
          "internalType": "address",
          "name": "sender",
          "type": "address"
        },
        {
          "indexed": false,
          "internalType": "uint256",
          "name": "amount",
          "type": "uint256"
        }
      ],
      "name": "FallbackEvent",
      "type": "event"
    },
    {
      "anonymous": false,
      "inputs": [
        {
          "indexed": false,
          "internalType": "address",
          "name": "buyer",
          "type": "address"
        },
        {
          "indexed": false,
          "internalType": "uint256",
          "name": "bondsAmount",
          "type": "uint256"
        }
      ],
      "name": "MintedBond",
      "type": "event"
    },
    {
      "anonymous": false,
      "inputs": [
        {
          "indexed": true,
          "internalType": "address",
          "name": "previousOwner",
          "type": "address"
        },
        {
          "indexed": true,
          "internalType": "address",
          "name": "newOwner",
          "type": "address"
        }
      ],
      "name": "OwnershipTransferred",
      "type": "event"
    },
    {
      "anonymous": false,
      "inputs": [
        {
          "indexed": false,
          "internalType": "address",
          "name": "sender",
          "type": "address"
        },
        {
          "indexed": false,
          "internalType": "uint256",
          "name": "amount",
          "type": "uint256"
        }
      ],
      "name": "ReceiveEvent",
      "type": "event"
    },
    {
      "anonymous": false,
      "inputs": [
        {
          "indexed": true,
          "internalType": "address",
          "name": "caller",
          "type": "address"
        },
        {
          "indexed": false,
          "internalType": "uint256[]",
          "name": "bonds",
          "type": "uint256[]"
        }
      ],
      "name": "RedeemedCoupons",
      "type": "event"
    },
    {
      "anonymous": false,
      "inputs": [
        {
          "indexed": false,
          "internalType": "address",
          "name": "sender",
          "type": "address"
        },
        {
          "indexed": false,
          "internalType": "bytes",
          "name": "reason",
          "type": "bytes"
        }
      ],
      "name": "Started",
      "type": "event"
    },
    {
      "anonymous": false,
      "inputs": [
        {
          "indexed": false,
          "internalType": "address",
          "name": "sender",
          "type": "address"
        },
        {
          "indexed": false,
          "internalType": "bytes",
          "name": "reason",
          "type": "bytes"
        }
      ],
      "name": "Stopped",
      "type": "event"
    },
    {
      "anonymous": false,
      "inputs": [
        {
          "indexed": false,
          "internalType": "address",
          "name": "sender",
          "type": "address"
        },
        {
          "indexed": false,
          "internalType": "string",
          "name": "reason",
          "type": "string"
        }
      ],
      "name": "Termination",
      "type": "event"
    },
    {
      "anonymous": false,
      "inputs": [
        {
          "indexed": true,
          "internalType": "address",
          "name": "from",
          "type": "address"
        },
        {
          "indexed": true,
          "internalType": "address",
          "name": "to",
          "type": "address"
        },
        {
          "indexed": false,
          "internalType": "uint256[]",
          "name": "bonds",
          "type": "uint256[]"
        }
      ],
      "name": "Transferred",
      "type": "event"
    },
    {
      "stateMutability": "payable",
      "type": "fallback"
    },
    {
      "inputs": [],
      "name": "VERSION",
      "outputs": [
        {
          "internalType": "string",
          "name": "",
          "type": "string"
        }
      ],
      "stateMutability": "view",
      "type": "function"
    },
    {
      "inputs": [],
      "name": "WAIT",
      "outputs": [
        {
          "internalType": "uint256",
          "name": "",
          "type": "uint256"
        }
      ],
      "stateMutability": "view",
      "type": "function"
    },
    {
      "inputs": [],
      "name": "destroy",
      "outputs": [],
      "stateMutability": "nonpayable",
      "type": "function"
    },
    {
      "inputs": [
        {
          "internalType": "address",
          "name": "_recipient",
          "type": "address"
        }
      ],
      "name": "destroyAndSend",
      "outputs": [],
      "stateMutability": "nonpayable",
      "type": "function"
    },
    {
      "inputs": [],
      "name": "getOwner",
      "outputs": [
        {
          "internalType": "address",
          "name": "",
          "type": "address"
        }
      ],
      "stateMutability": "payable",
      "type": "function"
    },
    {
      "inputs": [],
      "name": "renounceOwnership",
      "outputs": [],
      "stateMutability": "payable",
      "type": "function"
    },
    {
      "inputs": [
        {
          "internalType": "address",
          "name": "newOwner",
          "type": "address"
        }
      ],
      "name": "transferOwnership",
      "outputs": [],
      "stateMutability": "payable",
      "type": "function"
    },
    {
      "stateMutability": "payable",
      "type": "receive"
    },
    {
      "inputs": [
        {
          "internalType": "uint256",
          "name": "_loopLimit",
          "type": "uint256"
        }
      ],
      "name": "changeLoopLimit",
      "outputs": [],
      "stateMutability": "nonpayable",
      "type": "function"
    },
    {
      "inputs": [
        {
          "internalType": "address",
          "name": "buyer",
          "type": "address"
        },
        {
          "internalType": "uint256",
          "name": "_bondsAmount",
          "type": "uint256"
        }
      ],
      "name": "mintBond",
      "outputs": [],
      "stateMutability": "nonpayable",
      "type": "function"
    },
    {
      "inputs": [
        {
          "internalType": "uint256[]",
          "name": "_bonds",
          "type": "uint256[]"
        }
      ],
      "name": "redeemCoupons",
      "outputs": [],
      "stateMutability": "nonpayable",
      "type": "function"
    },
    {
      "inputs": [
        {
          "internalType": "address",
          "name": "receiver",
          "type": "address"
        },
        {
          "internalType": "uint256[]",
          "name": "_bonds",
          "type": "uint256[]"
        }
      ],
      "name": "transfer",
      "outputs": [],
      "stateMutability": "nonpayable",
      "type": "function"
    },
    {
      "inputs": [],
      "name": "donate",
      "outputs": [],
      "stateMutability": "payable",
      "type": "function"
    },
    {
      "inputs": [
        {
          "internalType": "uint256",
          "name": "amount",
          "type": "uint256"
        },
        {
          "internalType": "address",
          "name": "receiver",
          "type": "address"
        }
      ],
      "name": "getMoney",
      "outputs": [],
      "stateMutability": "nonpayable",
      "type": "function"
    },
    {
      "inputs": [
        {
          "internalType": "uint256",
          "name": "bond",
          "type": "uint256"
        }
      ],
      "name": "getLastTimeRedeemed",
      "outputs": [
        {
          "internalType": "uint256",
          "name": "",
          "type": "uint256"
        }
      ],
      "stateMutability": "view",
      "type": "function"
    },
    {
      "inputs": [
        {
          "internalType": "uint256",
          "name": "bond",
          "type": "uint256"
        }
      ],
      "name": "getBondOwner",
      "outputs": [
        {
          "internalType": "address",
          "name": "",
          "type": "address"
        }
      ],
      "stateMutability": "view",
      "type": "function"
    },
    {
      "inputs": [
        {
          "internalType": "uint256",
          "name": "bond",
          "type": "uint256"
        }
      ],
      "name": "getRemainingCoupons",
      "outputs": [
        {
          "internalType": "int256",
          "name": "",
          "type": "int256"
        }
      ],
      "stateMutability": "view",
      "type": "function"
    },
    {
      "inputs": [
        {
          "internalType": "uint256",
          "name": "bond",
          "type": "uint256"
        }
      ],
      "name": "getCouponsRedeemed",
      "outputs": [
        {
          "internalType": "uint256",
          "name": "",
          "type": "uint256"
        }
      ],
      "stateMutability": "view",
      "type": "function"
    },
    {
      "inputs": [],
      "name": "getTokenAddress",
      "outputs": [
        {
          "internalType": "address",
          "name": "",
          "type": "address"
        }
      ],
      "stateMutability": "view",
      "type": "function"
    },
    {
      "inputs": [],
      "name": "getTimesToRedeem",
      "outputs": [
        {
          "internalType": "uint256",
          "name": "",
          "type": "uint256"
        }
      ],
      "stateMutability": "view",
      "type": "function"
    },
    {
      "inputs": [],
      "name": "getTerm",
      "outputs": [
        {
          "internalType": "uint256",
          "name": "",
          "type": "uint256"
        }
      ],
      "stateMutability": "view",
      "type": "function"
    },
    {
      "inputs": [
        {
          "internalType": "uint256",
          "name": "bond",
          "type": "uint256"
        }
      ],
      "name": "getMaturity",
      "outputs": [
        {
          "internalType": "uint256",
          "name": "",
          "type": "uint256"
        }
      ],
      "stateMutability": "view",
      "type": "function"
    },
    {
      "inputs": [],
      "name": "getSimpleInterest",
      "outputs": [
        {
          "internalType": "uint256",
          "name": "",
          "type": "uint256"
        }
      ],
      "stateMutability": "view",
      "type": "function"
    },
    {
      "inputs": [],
      "name": "getCouponRate",
      "outputs": [
        {
          "internalType": "uint256",
          "name": "",
          "type": "uint256"
        }
      ],
      "stateMutability": "view",
      "type": "function"
    },
    {
      "inputs": [],
      "name": "getParValue",
      "outputs": [
        {
          "internalType": "uint256",
          "name": "",
          "type": "uint256"
        }
      ],
      "stateMutability": "view",
      "type": "function"
    },
    {
      "inputs": [],
      "name": "getCap",
      "outputs": [
        {
          "internalType": "uint256",
          "name": "",
          "type": "uint256"
        }
      ],
      "stateMutability": "view",
      "type": "function"
    },
    {
      "inputs": [
        {
          "internalType": "address",
          "name": "who",
          "type": "address"
        }
      ],
      "name": "getBalance",
      "outputs": [
        {
          "internalType": "uint256",
          "name": "",
          "type": "uint256"
        }
      ],
      "stateMutability": "view",
      "type": "function"
    },
    {
      "inputs": [],
      "name": "getParDecimals",
      "outputs": [
        {
          "internalType": "uint256",
          "name": "",
          "type": "uint256"
        }
      ],
      "stateMutability": "view",
      "type": "function"
    },
    {
      "inputs": [],
      "name": "getTokenToRedeem",
      "outputs": [
        {
          "internalType": "address",
          "name": "",
          "type": "address"
        }
      ],
      "stateMutability": "view",
      "type": "function"
    },
    {
      "inputs": [],
      "name": "getName",
      "outputs": [
        {
          "internalType": "string",
          "name": "",
          "type": "string"
        }
      ],
      "stateMutability": "view",
      "type": "function"
    },
    {
      "inputs": [],
      "name": "getTotalDebt",
      "outputs": [
        {
          "internalType": "uint256",
          "name": "",
          "type": "uint256"
        }
      ],
      "stateMutability": "view",
      "type": "function"
    },
    {
      "inputs": [],
      "name": "getTotalBonds",
      "outputs": [
        {
          "internalType": "uint256",
          "name": "",
          "type": "uint256"
        }
      ],
      "stateMutability": "view",
      "type": "function"
    },
    {
      "inputs": [],
      "name": "getNonce",
      "outputs": [
        {
          "internalType": "uint256",
          "name": "",
          "type": "uint256"
        }
      ],
      "stateMutability": "view",
      "type": "function"
    },
    {
      "inputs": [],
      "name": "getCouponThreshold",
      "outputs": [
        {
          "internalType": "uint256",
          "name": "",
          "type": "uint256"
        }
      ],
      "stateMutability": "view",
      "type": "function"
    }
  ],
  "bytecode": "0x608060405234620000f75762001f54803803806200001d816200012b565b928339810161012082820312620000f7578151916001604060020a0392838111620000f757810182601f82011215620000f7578051938411620000fc5760209062000071601f8601601f191683016200012b565b93858552828683010111620000f75760005b858110620000e3575050600081620000d395850101528101516040820151606083015160808401519060a08501519260c086015194610100620000c960e0890162000151565b97015197620005bc565b6040516117b39081620007a18239f35b818101830151858201840152820162000083565b600080fd5b7f4e487b7100000000000000000000000000000000000000000000000000000000600052604160045260246000fd5b6040519190601f01601f191682016001604060020a03811183821017620000fc57604052565b5190600160a060020a0382168203620000f757565b156200016e57565b60646040517f08c379a000000000000000000000000000000000000000000000000000000000815260206004820152601d60248201527f6e616d6520666f7220626f6e642063616e6e6f7420626520656d7074790000006044820152fd5b15620001d457565b60646040517f08c379a000000000000000000000000000000000000000000000000000000000815260206004820152602060248201527f636f75706f6e206d7573742062652067726561746572207468616e207a65726f6044820152fd5b156200023a57565b60646040517f08c379a000000000000000000000000000000000000000000000000000000000815260206004820152601d60248201527f706172206d7573742062652067726561746572207468616e207a65726f0000006044820152fd5b15620002a057565b60646040517f08c379a000000000000000000000000000000000000000000000000000000000815260206004820152601e60248201527f7465726d206d7573742062652067726561746572207468616e207a65726f00006044820152fd5b156200030657565b60846040517f08c379a0000000000000000000000000000000000000000000000000000000008152602060048201526024808201527f6c6f6f70206c696d6974206d7573742062652067726561746572207468616e2060448201527f7a65726f000000000000000000000000000000000000000000000000000000006064820152fd5b156200039157565b60846040517f08c379a000000000000000000000000000000000000000000000000000000000815260206004820152602960248201527f726564656d7074696f6e2074696d6520206d757374206265206772656174657260448201527f207468616e206f6e6500000000000000000000000000000000000000000000006064820152fd5b906001600283049216801562000461575b60208310146200043257565b7f4e487b7100000000000000000000000000000000000000000000000000000000600052602260045260246000fd5b91607f169162000426565b601f811162000479575050565b600090600482526020822090602080601f86010483019410620004ba575b601f602091010401915b828110620004ae57505050565b818155600101620004a1565b909250829062000497565b8051906001604060020a038211620000fc578190620004f182620004eb60045462000415565b6200046c565b60209081601f841160011462000530575060009262000524575b5050816002029160080260020a60001904191617600455565b0151905038806200050b565b60046000529250601f1984167f8a35acfbc15ff81a39ae7d344fd709f28e8600b4aa8c65c6b64bfe7fe36bd19b936000905b828210620005a3575050916002939185600196941062000587575b5050500201600455565b01516008601f841602840a60001904191690553880806200057d565b8060018697829497870151815501960194019062000562565b916200066b6200067f9899620006666200067a986200066162000670966200065c8b9d996200063a8c9d62000625620006759e620005f9620006ee565b620006046000600f55565b6200060f6000601055565b6200061d8551151562000166565b1515620001cc565b6200063285151562000232565b151562000298565b62000647871515620002fe565b6200065660018c101562000389565b620004c5565b600a55565b600955565b600e55565b600755565b600d55565b600b55565b600c55565b6200069962000694600c54600d549062000737565b601055565b600160a060020a03811680620006cb575060058054600160a060020a031916600160a060020a03909216919091179055565b60118054600160a060020a031916600160a060020a039290921691909117905550565b60008054600160a060020a03191633908117825542600155907f8be0079c531659141344cd1fd0a4f28419497f9722a3daafe3b4186f6b6457e08180a360ff1960035416600355565b811562000742570490565b60646040517f08c379a000000000000000000000000000000000000000000000000000000000815260206004820152601a60248201527f536166654d6174683a206469766973696f6e206279207a65726f0000000000006044820152fdfe60806040526004361015610026575b361561001e5761001c611140565b005b61001c6111c3565b60e060020a60003504630f0044bf811461023957806310fe9ae814610234578063112f84e11461022f578063124b65b41461022a57806317d7de7c146102255780632b4e4e961461022057806334ce998a1461021b5780633af0ca191461021657806343b0748514610211578063554d578d1461020c57806366e3d5ac1461020757806370843ae914610202578063715018a6146101fd5780637a36c307146101f85780637aafdeee146101f35780637f1e7d41146101ee57806383197ef0146101e9578063893d20e8146101e457806395be1f1a146101df578063994635c9146101da578063b8fb3a51146101d5578063bb305ef2146101d0578063cb57b0a5146101cb578063d087d288146101c6578063d561bf53146101c1578063d87f0afc146101bc578063e0e09e0f146101b7578063e5759436146101b2578063ed88c68e146101ad578063f2fde38b146101a8578063f5074f41146101a3578063f8b2cb4f1461019e5763ffa1ad740361000e57610fe5565b610f69565b610f23565b610e6b565b610e05565b610de7565b610dc9565b610d3d565b610d1f565b610d01565b610ce3565b610cae565b610c92565b610c62565b610c36565b610c0e565b610bad565b610b81565b610b63565b6108ff565b6108b9565b61089b565b6106cf565b6106b1565b610693565b61066a565b61064c565b6104a8565b610355565b6102ee565b6102c2565b610299565b3461029457602036600319011261029457602061028c600435806000526013835261026c604060002054600c5490611644565b90600052601483526102866040600020546010549061165a565b906115e2565b604051908152f35b600080fd5b3461029457600036600319011261029457601154604051600160a060020a039091168152602090f35b3461029457600036600319011261029457602060646102e5600b54600a5461165a565b04604051908152f35b34610294576000366003190112610294576020600c54604051908152f35b6020808252825181830181905290939260005b82811061034157505060409293506000838284010152601f8019910116010190565b81810186015184820160400152850161031f565b34610294576000806003193601126104605760405190806004549060028204916001808216928315610456575b602092838610851461043f57858852602088019490811561041f57506001146103c6575b6103c2876103b681890382610fbd565b6040519182918261030c565b0390f35b600460005294509192917f8a35acfbc15ff81a39ae7d344fd709f28e8600b4aa8c65c6b64bfe7fe36bd19b5b83861061040e57505050910190506103b6826103c238806103a6565b8054858701529482019481016103f2565b60ff191685525050509115159091020190506103b6826103c238806103a6565b60e060020a634e487b710282526022600452602482fd5b93607f1693610382565b80fd5b60043590600160a060020a038216820361029457565b9181601f84011215610294578235916001604060020a0383116102945760208085019481850201011161029457565b34610294576040366003190112610294576104c1610463565b6024356001604060020a038111610294576104e0903690600401610479565b6104eb8115156113ab565b600160a060020a038316926105018415156113ab565b61051661050d33611391565b548311156113ab565b60005b82811061055a5750506105557f227687bda9848548d0e213bd3dcc76bc21295e33dff6849e2c2bd7c75cb77bf791604051918291339583611419565b0390a3005b610618903361059d61059161058461057385898b6113d4565b356000526012602052604060002090565b54600160a060020a031690565b600160a060020a031690565b14801590610622575b61061d576105db836105bc61057384888a6113d4565b8054600160a060020a031916600160a060020a03909216919091179055565b6105ed6105e733611391565b546115ef565b6105f633611391565b5561060961060384611391565b5461157e565b61061284611391565b55611382565b610519565b611382565b506106426106318286886113d4565b356000526014602052604060002090565b54600d54146105a6565b34610294576000366003190112610294576020600654604051908152f35b3461029457600036600319011261029457600554604051600160a060020a039091168152602090f35b3461029457602036600319011261029457602061028c600435611540565b34610294576000366003190112610294576020600954604051908152f35b34610294576040366003190112610294576106e8610463565b602435600160a060020a039161071160009361070881865416331461103d565b8216151561123f565b61071e6001831015611286565b61072c600e548311156112d5565b6009548061087e575b5061074a610745836008546115e2565b600855565b600f61075f61075a8483546115e2565b600f55565b835b8381106107ec57847ff684d4510acd3fe860087ff339d3668df1f4b82d05e5b4cab07130929bfa835d85856107d76107d2600654610286856107b06107c96107b5836107b0600a5480986115e2565b61165a565b946107c3600b546064900490565b9061165a565b600d549061165a565b600655565b6107e660405192839283611125565b0390a180f35b610879906107fc600c54426115e2565b61081a61080a838654611644565b6000526013602052604060002090565b5561083d846105bc61082d848754611644565b6000526012602052604060002090565b8561085c61084c838654611644565b6000526014602052604060002090565b556108708561086a86611391565b546115e2565b61061285611391565b610761565b6108959061088e846008546115e2565b1115611333565b38610735565b34610294576000366003190112610294576020601054604051908152f35b60008060031936011261046057805481600160a060020a0382166108de3382146111f3565b60008051602061175e8339815191528280a3600160a060020a031916815580f35b34610294576020366003190112610294576004356001604060020a0381116102945761092f903690600401610479565b9061093b8215156113ab565b610949600e548311156113ab565b61095561050d33611391565b600091825b81811061099b57506109957f6842ed68604cbaecf495f440b5684cffd179b26f069e5205907f642a1bc91e4d91604051918291339583611419565b0390a280f35b610acd90336109b461059161058461057385888a6113d4565b14801590610b4a575b61061d57610a056109f06109e66109d58487896113d4565b356000526013602052604060002090565b54600c5490611644565b6109fe6106318487896113d4565b54906115e2565b610a12601054809261165a565b90610a1d81836115e2565b610a2b6109d585888a6113d4565b5411801590610b38575b610ac657610a46610a4b9242611644565b6116eb565b8015610b3257610a638161086a61063185888a6113d4565b610a716106318487896113d4565b55600a90610aae610a868354600b549061165a565b610aa96007936107c33393610aa3610a9e88546115d4565b6113fe565b906116eb565b611466565b610abc6106318487896113d4565b54600d5414610ad2575b5050611382565b61095a565b610aa9610b2b92610afa610aea610573878a8c6113d4565b8054600160a060020a0319169055565b88610b096109d5878a8c6113d4565b55610b1333611391565b610b1d815461140c565b905554610aa33393546113fe565b3880610ac6565b50611382565b50610b4381836115e2565b4210610a35565b50610b596106318285876113d4565b54600d54146109bd565b34610294576000366003190112610294576020600854604051908152f35b346102945760203660031901126102945760043560005260136020526020604060002054604051908152f35b346102945760008060031936011261046057610bd4600160a060020a03825416331461103d565b60008051602061173e8339815191526107e6610bee6110eb565b60408051338152600160a060020a03909216602083015290918291820190565b6000366003190112610294576020610c246110eb565b604051600160a060020a039091168152f35b346102945760203660031901126102945760043560005260146020526020604060002054604051908152f35b3461029457604036600319011261029457602435600160a060020a03811681036102945761001c90600435611466565b34610294576000366003190112610294576020604051601e8152f35b346102945760203660031901126102945760043560005260126020526020600160a060020a0360406000205416604051908152f35b34610294576000366003190112610294576020600b54604051908152f35b34610294576000366003190112610294576020600f54604051908152f35b34610294576000366003190112610294576020600a54604051908152f35b3461029457602036600319011261029457600435610d67600160a060020a0360005416331461103d565b8015610d7257600e55005b60405160e560020a62461bcd028152602060048201526024808201527f6c6f6f70206c696d6974206d7573742062652067726561746572207468616e20604482015260e060020a637a65726f026064820152608490fd5b34610294576000366003190112610294576020600754604051908152f35b34610294576000366003190112610294576020600d54604051908152f35b600036600319011261029457601154600160a060020a0316610e2357005b60405160e560020a62461bcd02815260206004820152601a60248201527f756e646566696e656420636f6e747261637420616464726573730000000000006044820152606490fd5b602036600319011261029457610e7f610463565b600080549091600160a060020a038083169291610e9d3385146111f3565b16918215610ec957829060008051602061175e8339815191528580a3600160a060020a03191617815580f35b60405160e560020a62461bcd02815260206004820152602660248201527f4f776e61626c653a206e6577206f776e657220697320746865207a65726f2061604482015260d060020a65646472657373026064820152608490fd5b346102945760203660031901126102945760008051602061173e833981519152610f64610f4e610463565b610bee600160a060020a0360005416331461103d565b0390a1005b3461029457602036600319011261029457600160a060020a03610f8a610463565b1660005260156020526020604060002054604051908152f35b60e060020a634e487b710260009081526041600452602490fd5b601f909101601f19168101906001604060020a03821190821017610fe057604052565b610fa3565b346102945760003660031901126102945760408051908101906001604060020a03821181831017610fe0576103c291604052600a815260b060020a69312e362e342d626574610260208201526040519182918261030c565b1561104457565b60405160e560020a62461bcd02815260206004820152601b60248201527f756e617574686f72697a65642c206e6f7420746865206f776e657200000000006044820152606490fd5b60e060020a634e487b710260009081526011600452602490fd5b156110ad57565b60405160e560020a62461bcd0281526020600482015260106024820152608160020a6f3930ba32903634b6b4ba1032b93937b9026044820152606490fd5b600154601e81018091116111205761110d904211611108816110a6565b6110a6565b42600155600054600160a060020a031690565b61108c565b600160a060020a039091168152602081019190915260400190565b33320361117c577f26875833861a2b006512a11f1b86edf95df96131040f3caeed72989ee985808360405180611177343383611125565b0390a1565b60405160e560020a62461bcd0281526020600482015260196024820152603860020a787068697368696e672061747461636b2064657465637465643f026044820152606490fd5b7fcc85d09d309785db93d6df19917f2e6cc07fe27cd01c08c8279145deb5cf452660405180611177343383611125565b156111fa57565b60405160e560020a62461bcd0281526020600482015260176024820152604960020a7630b1b1b2b9b9903232b734b2b2103337b91037bbb732b9026044820152606490fd5b1561124657565b60405160e560020a62461bcd0281526020600482015260126024820152607160020a713ab730baba3437b934bd32b210313abcb2b9026044820152606490fd5b1561128d57565b60405160e560020a62461bcd02815260206004820152601a60248201527f626f6e6420616d6f756e742063616e6e6f74206265207a65726f0000000000006044820152606490fd5b156112dc57565b60405160e560020a62461bcd028152602060048201526024808201527f626f6e6420616d6f756e742063616e6e6f7420657863656564206c6f6f70206c604482015260e260020a631a5b5a5d026064820152608490fd5b1561133a57565b60405160e560020a62461bcd02815260206004820152601c60248201527f6d696e74696e672077696c6c20657863656564206361706163697479000000006044820152606490fd5b60001981146111205760010190565b600160a060020a0316600090815260156020526040902090565b156113b257565b60405160e560020a62461bcd0281526020600482015260006024820152604490fd5b91908110156113e4576020020190565b60e060020a634e487b710260009081526032600452602490fd5b604d811161112057600a0a90565b8015611120576000190190565b60208082528101839052600160fb60020a03831161029457602060409302809284830137010190565b90816020910312610294575180151581036102945790565b6040513d6000823e3d90fd5b60115490919061147e90600160a060020a0316610591565b600160a060020a03908082166114c957506000808481948294839183156114bf575b1690f1156114ba576107d26114b8915b600654611644565b565b61145a565b6108fc92506114a0565b60405160e060020a63a9059cbb028152939250602091508390816000816114f4873360048401611125565b03925af19081156114ba576114b8926107d292611512575b506114b0565b6115329060203d8111611539575b61152a8183610fbd565b810190611442565b503861150c565b503d611520565b600090815260126020526040902054600160a060020a031615611578576014602052604060002054600d549081039081116111205790565b60001990565b6001810190811061158c5790565b60405160e560020a62461bcd02815260206004820152601b60248201527f536166654d6174683a206164646974696f6e206f766572666c6f7700000000006044820152606490fd5b6002810190811061158c5790565b90810190811061158c5790565b806001116115fc57600080fd5b60405160e560020a62461bcd02815260206004820152601e60248201527f536166654d6174683a207375627472616374696f6e206f766572666c6f7700006044820152606490fd5b8082116115fc5781810391190181036102945790565b90808202918082840414158215176102945780156116d15782040361167c5790565b60405160e560020a62461bcd02815260206004820152602160248201527f536166654d6174683a206d756c7469706c69636174696f6e206f766572666c6f604482015260f860020a6077026064820152608490fd5b60e060020a634e487b710260009081526012600452602490fd5b81156116f5570490565b60405160e560020a62461bcd02815260206004820152601a60248201527f536166654d6174683a206469766973696f6e206279207a65726f0000000000006044820152606490fdfe91ca00fdf29069527d658f8dfc6d1c0bf9861780bb45ff36436f938d3595a8d68be0079c531659141344cd1fd0a4f28419497f9722a3daafe3b4186f6b6457e0a26469706673582212202f89135ced7c49239d8a12bfe9b79cf1ae78787815308b1b5d33648ffee5909c64736f6c63430008120033",
  "immutableReferences": {},
  "source": "// SPDX-License-Identifier: CC-BY-4.0\r\npragma solidity >=0.4.22 <0.9.0;\r\n\r\n/**\r\n * Refactored from https://github.com/stefanionescu/Smart-Bond\r\n */\r\n\r\nimport \"../../common/Version.sol\";\r\nimport \"../../common/Frozen.sol\";\r\nimport \"../../libs/SafeMath.sol\";\r\nimport \"../../common/Token.sol\";\r\nimport \"../../interfaces/ISimpleBond.sol\";\r\nimport \"../../interfaces/IToken.sol\";\r\n\r\ncontract SimpleBond is ISimpleBond, Version, Frozen {\r\n\r\n   using SafeMath for uint256;\r\n   string name;\r\n   address tokenToRedeem;\r\n   uint256 totalDebt;\r\n   uint256 parDecimals;\r\n   uint256 bondsNumber;\r\n   uint256 cap;\r\n   uint256 parValue;\r\n   uint256 couponRate;\r\n   uint256 term;\r\n   uint256 timesToRedeem;\r\n   uint256 loopLimit;\r\n   uint256 nonce = 0;\r\n   uint256 couponThreshold = 0;\r\n\r\n   IToken token;\r\n\r\n   mapping(uint256 => address) bonds;\r\n   mapping(uint256 => uint256) maturities;\r\n   mapping(uint256 => uint256) couponsRedeemed;\r\n   mapping(address => uint256) bondsAmount;\r\n\r\n   constructor(string memory _name, \r\n               uint256 _par, \r\n               uint256 _parDecimals, \r\n               uint256 _coupon,\r\n               uint256 _term, \r\n               uint256 _cap, \r\n               uint256 _timesToRedeem, \r\n               address _tokenToRedeem,\r\n               uint256 _loopLimit) {\r\n        require(bytes(_name).length > 0,\"name for bond cannot be empty\");\r\n        require(_coupon > 0,\"coupon must be greater than zero\");\r\n        require(_par > 0,\"par must be greater than zero\");\r\n        require(_term > 0,\"term must be greater than zero\");\r\n        require(_loopLimit > 0,\"loop limit must be greater than zero\");\r\n        require(_timesToRedeem >= 1,\"redemption time  must be greater than one\");\r\n\r\n        name = _name;\r\n        parValue = _par;\r\n        cap = _cap;\r\n        loopLimit = _loopLimit;\r\n        parDecimals = _parDecimals;\r\n        timesToRedeem = _timesToRedeem;\r\n        couponRate = _coupon;\r\n        term = _term;\r\n        couponThreshold = SafeMath.safeDiv(term,timesToRedeem);\r\n\r\n        if (_tokenToRedeem == address(0)) {\r\n            tokenToRedeem = _tokenToRedeem;\r\n        } else {\r\n            // Bond token name and symbol are the same\r\n            token = IToken(_tokenToRedeem);\r\n        }\r\n    }\r\n\r\n    /**\r\n    * @notice Change the number of elements you can loop through in this contract\r\n    * @param _loopLimit The new loop limit\r\n    */\r\n\r\n    function changeLoopLimit(uint256 _loopLimit) public override okOwner {\r\n        require(_loopLimit > 0,\"loop limit must be greater than zero\");\r\n        loopLimit = _loopLimit;\r\n    }\r\n\r\n    /**\r\n    * @notice Mint bonds to a new buyer\r\n    * @param buyer The buyer of the bonds\r\n    * @param _bondsAmount How many bonds to mint\r\n    */\r\n    function mintBond(address buyer, uint256 _bondsAmount) public override okOwner {\r\n        require(buyer != address(0),\"unauthorized buyer\");\r\n        require(_bondsAmount >= 1,\"bond amount cannot be zero\");\r\n        require(_bondsAmount <= loopLimit,\"bond amount cannot exceed loop limit\");\r\n\r\n        if (cap > 0) {\r\n            require(SafeMath.safeAdd(bondsNumber,_bondsAmount) <= cap,\"minting will exceed capacity\");\r\n        }\r\n\r\n        bondsNumber = SafeMath.safeAdd(bondsNumber,_bondsAmount);\r\n\r\n        nonce = SafeMath.safeAdd(nonce,_bondsAmount);\r\n\r\n        for (uint256 i = 0; i < _bondsAmount; i++) {\r\n            maturities[SafeMath.safeSub(nonce,i)] = SafeMath.safeAdd(block.timestamp,term);\r\n            bonds[SafeMath.safeSub(nonce,i)] = buyer;\r\n            couponsRedeemed[SafeMath.safeSub(nonce,i)] = 0;\r\n            bondsAmount[buyer] = SafeMath.safeAdd(bondsAmount[buyer],_bondsAmount);\r\n        }\r\n\r\n        totalDebt = SafeMath.safeAdd(SafeMath.safeMul(SafeMath.safeAdd(totalDebt,parValue),_bondsAmount),(SafeMath.safeMul(SafeMath.safeMul(SafeMath.safeMul(parValue,(SafeMath.safeDiv(couponRate,100))),timesToRedeem),_bondsAmount)));\r\n\r\n        emit MintedBond(buyer, _bondsAmount);\r\n    }\r\n\r\n    /**\r\n    * @notice Redeem coupons on your bonds\r\n    * @param _bonds An array of bond ids corresponding to the bonds you want to redeem apon\r\n    */\r\n    function redeemCoupons(uint256[] calldata _bonds) public override {\r\n        require(_bonds.length > 0,\"\");\r\n        require(_bonds.length <= loopLimit,\"\");\r\n        require(_bonds.length <= getBalance(msg.sender),\"\");\r\n\r\n        uint256 issueDate = 0;\r\n        uint256 lastThresholdRedeemed = 0;\r\n        uint256 toRedeem = 0;\r\n\r\n        for (uint256 i = 0; i < _bonds.length; i++) {\r\n            if (bonds[_bonds[i]] != msg.sender\r\n                || couponsRedeemed[_bonds[i]] == timesToRedeem) continue;\r\n\r\n            issueDate = SafeMath.safeSub(maturities[_bonds[i]],term);\r\n            lastThresholdRedeemed = SafeMath.safeMul(SafeMath.safeAdd(issueDate,couponsRedeemed[_bonds[i]]),couponThreshold);\r\n\r\n            if (SafeMath.safeAdd(lastThresholdRedeemed,couponThreshold) >= maturities[_bonds[i]] ||\r\n                block.timestamp < SafeMath.safeAdd(lastThresholdRedeemed,couponThreshold)) continue;\r\n\r\n            toRedeem = SafeMath.safeDiv(SafeMath.safeSub(block.timestamp,lastThresholdRedeemed),couponThreshold);\r\n\r\n            if (toRedeem == 0) continue;\r\n\r\n            couponsRedeemed[_bonds[i]] = SafeMath.safeAdd(couponsRedeemed[_bonds[i]],toRedeem);\r\n\r\n            getMoney(SafeMath.safeMul(toRedeem,(SafeMath.safeDiv(SafeMath.safeMul(parValue,couponRate),(10 ** (SafeMath.safeAdd(parDecimals,2)))))), msg.sender);\r\n\r\n            if (couponsRedeemed[_bonds[i]] == timesToRedeem) {\r\n                bonds[_bonds[i]] = address(0);\r\n                maturities[_bonds[i]] = 0;\r\n                bondsAmount[msg.sender]--;\r\n\r\n                getMoney(SafeMath.safeDiv(parValue,(10 ** parDecimals)), msg.sender);\r\n            }\r\n        }\r\n\r\n        emit RedeemedCoupons(msg.sender, _bonds);\r\n    }\r\n\r\n    /**\r\n    * @notice Transfer bonds to another address\r\n    * @param receiver The receiver of the bonds\r\n    * @param _bonds The ids of the bonds that you want to transfer\r\n    */\r\n\r\n    function transfer(address receiver, uint256[] calldata _bonds) public override {\r\n\r\n        require(_bonds.length > 0,\"\");\r\n        require(receiver != address(0),\"\");\r\n        require(_bonds.length <= getBalance(msg.sender),\"\");\r\n\r\n        for (uint256 i = 0; i < _bonds.length; i++) {\r\n            if (bonds[_bonds[i]] != msg.sender\r\n                || couponsRedeemed[_bonds[i]] == timesToRedeem) continue;\r\n\r\n            bonds[_bonds[i]] = receiver;\r\n            bondsAmount[msg.sender] = SafeMath.safeSub(bondsAmount[msg.sender],1);\r\n            bondsAmount[receiver] = SafeMath.safeAdd(bondsAmount[receiver],1);\r\n\r\n        }\r\n\r\n        emit Transferred(msg.sender, receiver, _bonds);\r\n    }\r\n\r\n    /**\r\n    * @notice Donate money to this contract\r\n    */\r\n\r\n    function donate() public override payable {\r\n        require(address(token) == address(0),\"undefined contract address\");\r\n    }\r\n\r\n    //PRIVATE\r\n\r\n    /**\r\n    * @notice Transfer coupon money to an address\r\n    * @param amount The amount of money to be transferred\r\n    * @param receiver The address which will receive the money\r\n    */\r\n\r\n    function getMoney(uint256 amount, address receiver) public override {\r\n        if (address(token) == address(0)) {\r\n            payable(receiver).transfer(amount);\r\n        } else {\r\n            token.transfer(msg.sender, amount);\r\n        }\r\n\r\n        totalDebt = SafeMath.safeSub(totalDebt,amount);\r\n   }\r\n\r\n    //GETTERS\r\n\r\n    /**\r\n    * @dev Get the last time coupons for a particular bond were redeemed\r\n    * @param bond The bond id to analyze\r\n    */\r\n\r\n    function getLastTimeRedeemed(uint256 bond) public override view returns (uint256) {\r\n        uint256 issueDate = SafeMath.safeSub(maturities[bond],term);\r\n        uint256 lastThresholdRedeemed = SafeMath.safeAdd(issueDate,SafeMath.safeMul(couponsRedeemed[bond],couponThreshold));\r\n        return lastThresholdRedeemed;\r\n    }\r\n\r\n    /**\r\n    * @dev Get the owner of a specific bond\r\n    * @param bond The bond id to analyze\r\n    */\r\n\r\n    function getBondOwner(uint256 bond) public override view returns (address) {\r\n        return bonds[bond];\r\n    }\r\n\r\n    /**\r\n    * @dev Get how many coupons remain to be redeemed for a specific bond\r\n    * @param bond The bond id to analyze\r\n    */\r\n\r\n    function getRemainingCoupons(uint256 bond) public override view returns (int256) {\r\n        address owner = getBondOwner(bond);\r\n        if (owner == address(0)) return -1;\r\n        uint256 redeemed = getCouponsRedeemed(bond);\r\n        return int256(timesToRedeem - redeemed);\r\n    }\r\n\r\n   /**\r\n   * @dev Get how many coupons were redeemed for a specific bond\r\n   * @param bond The bond id to analyze\r\n   */\r\n\r\n   function getCouponsRedeemed(uint256 bond) public override view returns (uint256) {\r\n     return couponsRedeemed[bond];\r\n   }\r\n\r\n   /**\r\n   * @dev Get the address of the token that is redeemed for coupons\r\n   */\r\n\r\n    function getTokenAddress() public override view returns (address) {\r\n        return (address(token));\r\n    }\r\n\r\n    /**\r\n    * @dev Get how many times coupons can be redeemed for bonds\r\n    */\r\n\r\n    function getTimesToRedeem() public override view returns (uint256) {\r\n        return timesToRedeem;\r\n    }\r\n\r\n    /**\r\n    * @dev Get how much time it takes for a bond to mature\r\n    */\r\n\r\n    function getTerm() public override view returns (uint256) {\r\n        return term;\r\n    }\r\n\r\n    /**\r\n    * @dev Get the maturity date for a specific bond\r\n    * @param bond The bond id to analyze\r\n    */\r\n\r\n    function getMaturity(uint256 bond) public override view returns (uint256) {\r\n        return maturities[bond];\r\n    }\r\n\r\n    /**\r\n    * @dev Get how much money is redeemed on a coupon\r\n    */\r\n\r\n    function getSimpleInterest() public override view returns (uint256) {\r\n        uint256 rate = getCouponRate();\r\n        uint256 par = getParValue();\r\n        return SafeMath.safeDiv(SafeMath.safeMul(par,rate),100);\r\n    }\r\n\r\n    /**\r\n    * @dev Get the yield of a bond\r\n    */\r\n\r\n    function getCouponRate() public override view returns (uint256) {\r\n        return couponRate;\r\n    }\r\n\r\n    /**\r\n    * @dev Get the par value for these bonds\r\n    */\r\n\r\n    function getParValue() public override view returns (uint256) {\r\n        return parValue;\r\n    }\r\n\r\n    /**\r\n    * @dev Get the cap amount for these bonds\r\n    */\r\n\r\n    function getCap() public override view returns (uint256) {\r\n        return cap;\r\n    }\r\n\r\n    /**\r\n    * @dev Get amount of bonds that an address has\r\n    * @param who The address to analyze\r\n    */\r\n\r\n    function getBalance(address who) public override view returns (uint256) {\r\n        return bondsAmount[who];\r\n    }\r\n\r\n    /**\r\n    * @dev If the par value is a real number, it might have decimals. Get the amount of decimals the par value has\r\n    */\r\n\r\n    function getParDecimals() public override view returns (uint256) {\r\n        return parDecimals;\r\n    }\r\n\r\n    /**\r\n    * @dev Get the address of the token redeemed for coupons\r\n    */\r\n\r\n    function getTokenToRedeem() public override view returns (address) {\r\n        return tokenToRedeem;\r\n    }\r\n\r\n    /**\r\n    * @dev Get the name of this smart bond contract\r\n    */\r\n\r\n    function getName() public override view returns (string memory) {\r\n        return name;\r\n    }\r\n\r\n    /**\r\n    * @dev Get the current unpaid debt\r\n    */\r\n\r\n    function getTotalDebt() public override view returns (uint256) {\r\n        return totalDebt;\r\n    }\r\n\r\n    /**\r\n    * @dev Get the total amount of bonds issued\r\n    */\r\n\r\n    function getTotalBonds() public override view returns (uint256) {\r\n        return bondsNumber;\r\n    }\r\n\r\n    /**\r\n    * @dev Get the latest nonce\r\n    */\r\n\r\n    function getNonce() public override view returns (uint256) {\r\n        return nonce;\r\n    }\r\n\r\n    /**\r\n    * @dev Get the amount of time that needs to pass between the dates when you can redeem coupons\r\n    */\r\n\r\n    function getCouponThreshold() public override view returns (uint256) {\r\n        return couponThreshold;\r\n    }\r\n}",
  "sourcePath": "/Volumes/HOME/pingleware-contracts/contracts/finance/debt/SimpleBond.sol",
  "compiler": {
    "name": "solc",
    "version": "0.8.18+commit.87f61d96.Emscripten.clang"
  },
  "schemaVersion": "3.4.12",
  "updatedAt": "2024-05-23T18:56:25.755Z",
  "devdoc": {
    "kind": "dev",
    "methods": {
      "changeLoopLimit(uint256)": {
        "params": {
          "_loopLimit": "The new loop limit"
        }
      },
      "getBalance(address)": {
        "details": "Get amount of bonds that an address has",
        "params": {
          "who": "The address to analyze"
        }
      },
      "getBondOwner(uint256)": {
        "details": "Get the owner of a specific bond",
        "params": {
          "bond": "The bond id to analyze"
        }
      },
      "getCap()": {
        "details": "Get the cap amount for these bonds"
      },
      "getCouponRate()": {
        "details": "Get the yield of a bond"
      },
      "getCouponThreshold()": {
        "details": "Get the amount of time that needs to pass between the dates when you can redeem coupons"
      },
      "getCouponsRedeemed(uint256)": {
        "details": "Get how many coupons were redeemed for a specific bond",
        "params": {
          "bond": "The bond id to analyze"
        }
      },
      "getLastTimeRedeemed(uint256)": {
        "details": "Get the last time coupons for a particular bond were redeemed",
        "params": {
          "bond": "The bond id to analyze"
        }
      },
      "getMaturity(uint256)": {
        "details": "Get the maturity date for a specific bond",
        "params": {
          "bond": "The bond id to analyze"
        }
      },
      "getMoney(uint256,address)": {
        "params": {
          "amount": "The amount of money to be transferred",
          "receiver": "The address which will receive the money"
        }
      },
      "getName()": {
        "details": "Get the name of this smart bond contract"
      },
      "getNonce()": {
        "details": "Get the latest nonce"
      },
      "getParDecimals()": {
        "details": "If the par value is a real number, it might have decimals. Get the amount of decimals the par value has"
      },
      "getParValue()": {
        "details": "Get the par value for these bonds"
      },
      "getRemainingCoupons(uint256)": {
        "details": "Get how many coupons remain to be redeemed for a specific bond",
        "params": {
          "bond": "The bond id to analyze"
        }
      },
      "getSimpleInterest()": {
        "details": "Get how much money is redeemed on a coupon"
      },
      "getTerm()": {
        "details": "Get how much time it takes for a bond to mature"
      },
      "getTimesToRedeem()": {
        "details": "Get how many times coupons can be redeemed for bonds"
      },
      "getTokenAddress()": {
        "details": "Get the address of the token that is redeemed for coupons"
      },
      "getTokenToRedeem()": {
        "details": "Get the address of the token redeemed for coupons"
      },
      "getTotalBonds()": {
        "details": "Get the total amount of bonds issued"
      },
      "getTotalDebt()": {
        "details": "Get the current unpaid debt"
      },
      "mintBond(address,uint256)": {
        "params": {
          "_bondsAmount": "How many bonds to mint",
          "buyer": "The buyer of the bonds"
        }
      },
      "redeemCoupons(uint256[])": {
        "params": {
          "_bonds": "An array of bond ids corresponding to the bonds you want to redeem apon"
        }
      },
      "renounceOwnership()": {
        "details": "Leaves the contract without owner. It will not be possible to call `onlyOwner` functions anymore. Can only be called by the current owner. NOTE: Renouncing ownership will leave the contract without an owner, thereby removing any functionality that is only available to the owner."
      },
      "transfer(address,uint256[])": {
        "params": {
          "_bonds": "The ids of the bonds that you want to transfer",
          "receiver": "The receiver of the bonds"
        }
      },
      "transferOwnership(address)": {
        "details": "Transfers ownership of the contract to a new account (`newOwner`). Can only be called by the current owner."
      }
    },
    "version": 1
  },
  "userdoc": {
    "kind": "user",
    "methods": {
      "changeLoopLimit(uint256)": {
        "notice": "Change the number of elements you can loop through in this contract"
      },
      "donate()": {
        "notice": "Donate money to this contract"
      },
      "getMoney(uint256,address)": {
        "notice": "Transfer coupon money to an address"
      },
      "mintBond(address,uint256)": {
        "notice": "Mint bonds to a new buyer"
      },
      "redeemCoupons(uint256[])": {
        "notice": "Redeem coupons on your bonds"
      },
      "transfer(address,uint256[])": {
        "notice": "Transfer bonds to another address"
      }
    },
    "version": 1
  }
}