{
  "contractName": "SocialNetwork",
  "abi": [
    {
      "inputs": [],
      "stateMutability": "payable",
      "type": "constructor"
    },
    {
      "anonymous": false,
      "inputs": [
        {
          "indexed": false,
          "internalType": "address",
          "name": "sender",
          "type": "address"
        }
      ],
      "name": "AdvertiserAdded",
      "type": "event"
    },
    {
      "anonymous": false,
      "inputs": [
        {
          "indexed": false,
          "internalType": "address",
          "name": "sender",
          "type": "address"
        },
        {
          "indexed": false,
          "internalType": "address",
          "name": "spender",
          "type": "address"
        },
        {
          "indexed": false,
          "internalType": "uint256",
          "name": "amount",
          "type": "uint256"
        }
      ],
      "name": "Approval",
      "type": "event"
    },
    {
      "anonymous": false,
      "inputs": [
        {
          "indexed": false,
          "internalType": "address",
          "name": "sender",
          "type": "address"
        },
        {
          "indexed": false,
          "internalType": "address",
          "name": "user",
          "type": "address"
        },
        {
          "indexed": false,
          "internalType": "string",
          "name": "comment",
          "type": "string"
        }
      ],
      "name": "CommentAdded",
      "type": "event"
    },
    {
      "anonymous": false,
      "inputs": [
        {
          "indexed": false,
          "internalType": "address",
          "name": "sender",
          "type": "address"
        },
        {
          "indexed": false,
          "internalType": "address",
          "name": "follower",
          "type": "address"
        }
      ],
      "name": "FollowerAdded",
      "type": "event"
    },
    {
      "anonymous": false,
      "inputs": [
        {
          "indexed": false,
          "internalType": "address",
          "name": "sender",
          "type": "address"
        },
        {
          "indexed": false,
          "internalType": "address",
          "name": "user",
          "type": "address"
        }
      ],
      "name": "FriendRequestAdded",
      "type": "event"
    },
    {
      "anonymous": false,
      "inputs": [
        {
          "indexed": true,
          "internalType": "address",
          "name": "_to",
          "type": "address"
        },
        {
          "indexed": true,
          "internalType": "uint256",
          "name": "_tokenId",
          "type": "uint256"
        },
        {
          "indexed": false,
          "internalType": "bytes32",
          "name": "_ipfsHash",
          "type": "bytes32"
        }
      ],
      "name": "Mint",
      "type": "event"
    },
    {
      "anonymous": false,
      "inputs": [
        {
          "indexed": false,
          "internalType": "address",
          "name": "sender",
          "type": "address"
        },
        {
          "indexed": false,
          "internalType": "address",
          "name": "recipient",
          "type": "address"
        },
        {
          "indexed": false,
          "internalType": "uint256",
          "name": "amount",
          "type": "uint256"
        }
      ],
      "name": "Transfer",
      "type": "event"
    },
    {
      "inputs": [],
      "name": "VERSION",
      "outputs": [
        {
          "internalType": "string",
          "name": "",
          "type": "string"
        }
      ],
      "stateMutability": "view",
      "type": "function"
    },
    {
      "inputs": [],
      "name": "_owner",
      "outputs": [
        {
          "internalType": "address",
          "name": "",
          "type": "address"
        }
      ],
      "stateMutability": "view",
      "type": "function"
    },
    {
      "inputs": [],
      "name": "_totalSupply",
      "outputs": [
        {
          "internalType": "uint256",
          "name": "",
          "type": "uint256"
        }
      ],
      "stateMutability": "view",
      "type": "function"
    },
    {
      "inputs": [],
      "name": "name",
      "outputs": [
        {
          "internalType": "string",
          "name": "",
          "type": "string"
        }
      ],
      "stateMutability": "view",
      "type": "function"
    },
    {
      "inputs": [],
      "name": "symbol",
      "outputs": [
        {
          "internalType": "string",
          "name": "",
          "type": "string"
        }
      ],
      "stateMutability": "view",
      "type": "function"
    },
    {
      "inputs": [],
      "name": "getContractBalance",
      "outputs": [
        {
          "internalType": "uint256",
          "name": "",
          "type": "uint256"
        }
      ],
      "stateMutability": "view",
      "type": "function"
    },
    {
      "inputs": [],
      "name": "getOwner",
      "outputs": [
        {
          "internalType": "address",
          "name": "",
          "type": "address"
        }
      ],
      "stateMutability": "view",
      "type": "function"
    },
    {
      "inputs": [],
      "name": "getUserRole",
      "outputs": [
        {
          "internalType": "string",
          "name": "",
          "type": "string"
        }
      ],
      "stateMutability": "view",
      "type": "function"
    },
    {
      "inputs": [],
      "name": "totalSupply",
      "outputs": [
        {
          "internalType": "uint256",
          "name": "",
          "type": "uint256"
        }
      ],
      "stateMutability": "view",
      "type": "function"
    },
    {
      "inputs": [
        {
          "internalType": "address",
          "name": "account",
          "type": "address"
        }
      ],
      "name": "balanceOf",
      "outputs": [
        {
          "internalType": "uint256",
          "name": "",
          "type": "uint256"
        }
      ],
      "stateMutability": "view",
      "type": "function"
    },
    {
      "inputs": [
        {
          "internalType": "address",
          "name": "owner",
          "type": "address"
        },
        {
          "internalType": "address",
          "name": "spender",
          "type": "address"
        }
      ],
      "name": "allowance",
      "outputs": [
        {
          "internalType": "uint256",
          "name": "",
          "type": "uint256"
        }
      ],
      "stateMutability": "view",
      "type": "function"
    },
    {
      "inputs": [
        {
          "internalType": "address",
          "name": "recipient",
          "type": "address"
        },
        {
          "internalType": "uint256",
          "name": "amount",
          "type": "uint256"
        }
      ],
      "name": "transfer",
      "outputs": [
        {
          "internalType": "bool",
          "name": "",
          "type": "bool"
        }
      ],
      "stateMutability": "nonpayable",
      "type": "function"
    },
    {
      "inputs": [
        {
          "internalType": "address",
          "name": "spender",
          "type": "address"
        },
        {
          "internalType": "uint256",
          "name": "amount",
          "type": "uint256"
        }
      ],
      "name": "approve",
      "outputs": [
        {
          "internalType": "bool",
          "name": "",
          "type": "bool"
        }
      ],
      "stateMutability": "nonpayable",
      "type": "function"
    },
    {
      "inputs": [
        {
          "internalType": "address",
          "name": "sender",
          "type": "address"
        },
        {
          "internalType": "address",
          "name": "recipient",
          "type": "address"
        },
        {
          "internalType": "uint256",
          "name": "amount",
          "type": "uint256"
        }
      ],
      "name": "transferFrom",
      "outputs": [
        {
          "internalType": "bool",
          "name": "",
          "type": "bool"
        }
      ],
      "stateMutability": "nonpayable",
      "type": "function"
    }
  ],
  "bytecode": "0x6080604052610bea806100136000396000f3fe608060405234801561001057600080fd5b5060043610610107576000357c010000000000000000000000000000000000000000000000000000000090048063893d20e8116100a9578063b2bdfa7b11610083578063b2bdfa7b146101ec578063bf04a10d146101ff578063dd62ed3e14610207578063ffa1ad741461021a57600080fd5b8063893d20e8146101ac57806395d89b41146101d1578063a9059cbb146101d957600080fd5b806323b872dd116100e557806323b872dd1461015f5780633eaaf86b146101725780636f9fb98a1461017b57806370a082311461018357600080fd5b806306fdde031461010c578063095ea7b31461012a57806318160ddd1461014d575b600080fd5b610114610256565b60405161012191906109bb565b60405180910390f35b61013d610138366004610a2c565b6102e4565b6040519015158152602001610121565b6002545b604051908152602001610121565b61013d61016d366004610a56565b6103b5565b61015160025481565b6101516105a9565b610151610191366004610a92565b600160a060020a031660009081526003602052604090205490565b600554600160a060020a03165b604051600160a060020a039091168152602001610121565b61011461060f565b61013d6101e7366004610a2c565b61061c565b6005546101b990600160a060020a031681565b610114610771565b610151610215366004610aad565b610986565b6101146040518060400160405280600581526020017f312e302e3500000000000000000000000000000000000000000000000000000081525081565b6000805461026390610ae0565b80601f016020809104026020016040519081016040528092919081815260200182805461028f90610ae0565b80156102dc5780601f106102b1576101008083540402835291602001916102dc565b820191906000526020600020905b8154815290600101906020018083116102bf57829003601f168201915b505050505081565b6000600160a060020a0383166103445760405160e560020a62461bcd02815260206004820152601660248201527f6d697373696e672073656e64657220616464726573730000000000000000000060448201526064015b60405180910390fd5b336000818152600460209081526040808320600160a060020a0388168085529083529281902086905580519384529083019190915281018390527f8c5be1e5ebec7d5bd14f71427d1e84f3dd0314c0f7b2291e5b200ac8c7c3b9259060600160405180910390a15060015b92915050565b6000600160a060020a0384166104105760405160e560020a62461bcd02815260206004820152601660248201527f6d697373696e672073656e646572206164647265737300000000000000000000604482015260640161033b565b600160a060020a0383166104695760405160e560020a62461bcd02815260206004820152601960248201527f6d697373696e6720726563697069656e74206164647265737300000000000000604482015260640161033b565b600160a060020a03841660009081526006602052604090205482118015906104b45750600160a060020a03841660009081526004602090815260408083203384529091529020548211155b80156104c05750600082115b80156104ec5750600160a060020a0383166000908152600660205260409020546104ea8382610b63565b115b1561059e57600160a060020a03841660009081526006602052604081208054849290610519908490610b7b565b9091555050600160a060020a03831660009081526006602052604081208054849290610546908490610b63565b909155505060408051600160a060020a038087168252851660208201529081018390527fddf252ad1be2c89b69c2b068fc378daa952ba7f163c4a11628f55a4df523b3ef9060600160405180910390a15060016105a2565b5060005b9392505050565b600554600090600160a060020a031633146106095760405160e560020a62461bcd02815260206004820152601760248201527f6163636573732064656e69656420666f72206f776e6572000000000000000000604482015260640161033b565b50303190565b6001805461026390610ae0565b6000600160a060020a0383166106775760405160e560020a62461bcd02815260206004820152601960248201527f6d697373696e6720726563697069656e74206164647265737300000000000000604482015260640161033b565b3360009081526006602052604090205482118015906106965750600082115b80156106c25750600160a060020a0383166000908152600660205260409020546106c08382610b63565b115b156107695733600090815260066020526040812080548492906106e6908490610b7b565b9091555050600160a060020a03831660009081526006602052604081208054849290610713908490610b63565b909155505060408051338152600160a060020a03851660208201529081018390527fddf252ad1be2c89b69c2b068fc378daa952ba7f163c4a11628f55a4df523b3ef9060600160405180910390a15060016103af565b5060006103af565b600554606090600160a060020a03163314156107bf575060408051808201909152600581527f6f776e6572000000000000000000000000000000000000000000000000000000602082015290565b6040517f4209fff100000000000000000000000000000000000000000000000000000000815233600482015273__User__________________________________90634209fff190602401602060405180830381865af4158015610827573d6000803e3d6000fd5b505050506040513d601f19601f8201168201806040525081019061084b9190610b92565b15610888575060408051808201909152600481527f7573657200000000000000000000000000000000000000000000000000000000602082015290565b73__Advertiser____________________________63d2e940376040518163ffffffff167c0100000000000000000000000000000000000000000000000000000000028152600401602060405180830381865af41580156108ed573d6000803e3d6000fd5b505050506040513d601f19601f820116820180604052508101906109119190610b92565b1561094e575060408051808201909152600a81527f6164766572746973657200000000000000000000000000000000000000000000602082015290565b5060408051808201909152600781527f756e6b6e6f776e00000000000000000000000000000000000000000000000000602082015290565b600160a060020a0380831660009081526004602090815260408083209385168352929052908120546002546105a29190610b7b565b600060208083528351808285015260005b818110156109e8578581018301518582016040015282016109cc565b818111156109fa576000604083870101525b50601f01601f1916929092016040019392505050565b8035600160a060020a0381168114610a2757600080fd5b919050565b60008060408385031215610a3f57600080fd5b610a4883610a10565b946020939093013593505050565b600080600060608486031215610a6b57600080fd5b610a7484610a10565b9250610a8260208501610a10565b9150604084013590509250925092565b600060208284031215610aa457600080fd5b6105a282610a10565b60008060408385031215610ac057600080fd5b610ac983610a10565b9150610ad760208401610a10565b90509250929050565b600281046001821680610af457607f821691505b60208210811415610b2e577f4e487b7100000000000000000000000000000000000000000000000000000000600052602260045260246000fd5b50919050565b7f4e487b7100000000000000000000000000000000000000000000000000000000600052601160045260246000fd5b60008219821115610b7657610b76610b34565b500190565b600082821015610b8d57610b8d610b34565b500390565b600060208284031215610ba457600080fd5b815180151581146105a257600080fdfea2646970667358221220ef38c4c621e20464f07669cfe0fd70da35d5c81e6f20dd541ed678bfdd42de3c64736f6c634300080a0033",
  "immutableReferences": {},
  "source": "// SPDX-License-Identifier: CC-BY-4.0\npragma solidity >=0.4.22 <0.9.0;\n\nimport \"../Version.sol\";\nimport \"./User.sol\";\nimport \"./Advertiser.sol\";\n\ncontract SocialNetwork is Version {\n\n    string public name;\n    string public symbol;\n    uint256 public _totalSupply;\n\n    mapping(address => uint256) private _balances;\n    mapping(address => mapping (address => uint256)) allowed;\n\n    bytes32 constant private ZERO_BYTES = bytes32(0);\n    address constant private ZERO_ADDRESS = address(0);\n\n    address public _owner;\n    bool private initialized;\n\n  \n\n    mapping (address => uint256) private balances;\n\n    //uint256 public totalSupply = 0;\n    mapping(uint256 => address) internal tokens;\n    event Mint(address indexed _to, uint256 indexed _tokenId, bytes32 _ipfsHash);\n\n    event Transfer(address sender,address recipient,uint256 amount);\n    event Approval(address sender,address spender,uint256 amount);\n    event FollowerAdded(address sender, address follower);\n    event FriendRequestAdded(address sender, address user);\n    event CommentAdded(address sender,address user,string comment);\n    event AdvertiserAdded(address sender);\n\n\n    constructor()\n        payable\n    {\n    }\n\n    modifier onlyOwner() {\n        require(msg.sender == _owner, \"access denied for owner\");\n        _;\n    }\n\n    modifier addressValid() {\n        require(msg.sender != address(0), \"missing address\");\n        _;\n    }\n\n\n\n    function getContractBalance()\n        public\n        view\n        onlyOwner\n        returns (uint256)\n    {\n        return address(this).balance;\n    }\n\n    function getOwner()\n        public\n        view\n        returns (address)\n    {\n        return _owner;\n    }\n\n    function getUserRole()\n        public\n        view\n        returns (string memory)\n    {\n        if (msg.sender == _owner) {\n            return string(\"owner\");\n        } else if (User.isUser(msg.sender)) {\n            return string(\"user\");\n        } else if (Advertiser.isAdvertiser()) {\n            return string(\"advertiser\");\n        }\n        return string(\"unknown\");\n    }\n\n    function totalSupply()\n        public\n        view\n        returns (uint256)\n    {\n        return _totalSupply;\n    }\n\n    function balanceOf(address account)\n        public\n        view\n        returns (uint256)\n    {\n        return _balances[account];\n    }\n    function allowance(address owner, address spender)\n        public\n        view\n        returns (uint256)\n    {\n        return  (_totalSupply - allowed[owner][spender]);\n    }\n\n    function transfer(address recipient, uint256 amount)\n        public\n        returns (bool)\n    {\n        require(recipient != ZERO_ADDRESS, \"missing recipient address\");\n        if (balances[msg.sender] >= amount && amount > 0 && balances[recipient] + amount > balances[recipient]) {\n        balances[msg.sender] -= amount;\n        balances[recipient] += amount;\n        emit Transfer(msg.sender, recipient, amount); // trigger event\n        return true;\n        } else {\n        return false;\n        }\n    }\n    function approve(address spender, uint256 amount)\n        public\n        returns (bool)\n    {\n        require(spender != ZERO_ADDRESS, \"missing sender address\");\n        allowed[msg.sender][spender] = amount;\n        emit Approval(msg.sender, spender, amount);\n        return true;\n    }\n    function transferFrom(address sender, address recipient, uint256 amount)\n        public\n        returns (bool)\n    {\n        require(sender != ZERO_ADDRESS, \"missing sender address\");\n        require(recipient != ZERO_ADDRESS, \"missing recipient address\");\n\n        if (balances[sender] >= amount && allowed[sender][msg.sender] >= amount && amount > 0 &&\n        balances[recipient] + amount > balances[recipient]) {\n            balances[sender] -= amount;\n            balances[recipient] += amount;\n            emit Transfer(sender, recipient, amount);\n            return true;\n        } else {\n            return false;\n        }\n    }\n}\n",
  "sourcePath": "G:\\projects\\pingleware-contracts\\contracts\\social\\SocialNetwork.sol",
  "compiler": {
    "name": "solc",
    "version": "0.8.10+commit.fc410830.Emscripten.clang"
  },
  "schemaVersion": "3.4.3",
  "updatedAt": "2021-12-25T15:51:04.463Z",
  "devdoc": {
    "kind": "dev",
    "methods": {},
    "version": 1
  },
  "userdoc": {
    "kind": "user",
    "methods": {},
    "version": 1
  }
}