{
  "contractName": "SocialNetwork",
  "abi": [
    {
      "inputs": [],
      "stateMutability": "payable",
      "type": "constructor"
    },
    {
      "anonymous": false,
      "inputs": [
        {
          "indexed": false,
          "internalType": "address",
          "name": "sender",
          "type": "address"
        }
      ],
      "name": "AdvertiserAdded",
      "type": "event"
    },
    {
      "anonymous": false,
      "inputs": [
        {
          "indexed": false,
          "internalType": "address",
          "name": "sender",
          "type": "address"
        },
        {
          "indexed": false,
          "internalType": "address",
          "name": "spender",
          "type": "address"
        },
        {
          "indexed": false,
          "internalType": "uint256",
          "name": "amount",
          "type": "uint256"
        }
      ],
      "name": "Approval",
      "type": "event"
    },
    {
      "anonymous": false,
      "inputs": [
        {
          "indexed": false,
          "internalType": "address",
          "name": "sender",
          "type": "address"
        },
        {
          "indexed": false,
          "internalType": "address",
          "name": "user",
          "type": "address"
        },
        {
          "indexed": false,
          "internalType": "string",
          "name": "comment",
          "type": "string"
        }
      ],
      "name": "CommentAdded",
      "type": "event"
    },
    {
      "anonymous": false,
      "inputs": [
        {
          "indexed": false,
          "internalType": "address",
          "name": "sender",
          "type": "address"
        },
        {
          "indexed": false,
          "internalType": "address",
          "name": "follower",
          "type": "address"
        }
      ],
      "name": "FollowerAdded",
      "type": "event"
    },
    {
      "anonymous": false,
      "inputs": [
        {
          "indexed": false,
          "internalType": "address",
          "name": "sender",
          "type": "address"
        },
        {
          "indexed": false,
          "internalType": "address",
          "name": "user",
          "type": "address"
        }
      ],
      "name": "FriendRequestAdded",
      "type": "event"
    },
    {
      "anonymous": false,
      "inputs": [
        {
          "indexed": true,
          "internalType": "address",
          "name": "_to",
          "type": "address"
        },
        {
          "indexed": true,
          "internalType": "uint256",
          "name": "_tokenId",
          "type": "uint256"
        },
        {
          "indexed": false,
          "internalType": "bytes32",
          "name": "_ipfsHash",
          "type": "bytes32"
        }
      ],
      "name": "Mint",
      "type": "event"
    },
    {
      "anonymous": false,
      "inputs": [
        {
          "indexed": false,
          "internalType": "address",
          "name": "sender",
          "type": "address"
        },
        {
          "indexed": false,
          "internalType": "string",
          "name": "message",
          "type": "string"
        }
      ],
      "name": "PostAdded",
      "type": "event"
    },
    {
      "anonymous": false,
      "inputs": [
        {
          "indexed": false,
          "internalType": "address",
          "name": "sender",
          "type": "address"
        },
        {
          "indexed": false,
          "internalType": "address",
          "name": "recipient",
          "type": "address"
        },
        {
          "indexed": false,
          "internalType": "uint256",
          "name": "amount",
          "type": "uint256"
        }
      ],
      "name": "Transfer",
      "type": "event"
    },
    {
      "anonymous": false,
      "inputs": [
        {
          "indexed": false,
          "internalType": "address",
          "name": "sender",
          "type": "address"
        }
      ],
      "name": "UserAdded",
      "type": "event"
    },
    {
      "inputs": [],
      "name": "VERSION",
      "outputs": [
        {
          "internalType": "string",
          "name": "",
          "type": "string"
        }
      ],
      "stateMutability": "view",
      "type": "function"
    },
    {
      "inputs": [],
      "name": "_owner",
      "outputs": [
        {
          "internalType": "address",
          "name": "",
          "type": "address"
        }
      ],
      "stateMutability": "view",
      "type": "function"
    },
    {
      "inputs": [],
      "name": "_totalSupply",
      "outputs": [
        {
          "internalType": "uint256",
          "name": "",
          "type": "uint256"
        }
      ],
      "stateMutability": "view",
      "type": "function"
    },
    {
      "inputs": [],
      "name": "name",
      "outputs": [
        {
          "internalType": "string",
          "name": "",
          "type": "string"
        }
      ],
      "stateMutability": "view",
      "type": "function"
    },
    {
      "inputs": [],
      "name": "symbol",
      "outputs": [
        {
          "internalType": "string",
          "name": "",
          "type": "string"
        }
      ],
      "stateMutability": "view",
      "type": "function"
    },
    {
      "inputs": [],
      "name": "getContractBalance",
      "outputs": [
        {
          "internalType": "uint256",
          "name": "",
          "type": "uint256"
        }
      ],
      "stateMutability": "view",
      "type": "function"
    },
    {
      "inputs": [],
      "name": "getOwner",
      "outputs": [
        {
          "internalType": "address",
          "name": "",
          "type": "address"
        }
      ],
      "stateMutability": "view",
      "type": "function"
    },
    {
      "inputs": [],
      "name": "getUserRole",
      "outputs": [
        {
          "internalType": "string",
          "name": "",
          "type": "string"
        }
      ],
      "stateMutability": "view",
      "type": "function"
    },
    {
      "inputs": [],
      "name": "totalSupply",
      "outputs": [
        {
          "internalType": "uint256",
          "name": "",
          "type": "uint256"
        }
      ],
      "stateMutability": "view",
      "type": "function"
    },
    {
      "inputs": [
        {
          "internalType": "address",
          "name": "account",
          "type": "address"
        }
      ],
      "name": "balanceOf",
      "outputs": [
        {
          "internalType": "uint256",
          "name": "",
          "type": "uint256"
        }
      ],
      "stateMutability": "view",
      "type": "function"
    },
    {
      "inputs": [
        {
          "internalType": "address",
          "name": "owner",
          "type": "address"
        },
        {
          "internalType": "address",
          "name": "spender",
          "type": "address"
        }
      ],
      "name": "allowance",
      "outputs": [
        {
          "internalType": "uint256",
          "name": "",
          "type": "uint256"
        }
      ],
      "stateMutability": "view",
      "type": "function"
    },
    {
      "inputs": [
        {
          "internalType": "address",
          "name": "recipient",
          "type": "address"
        },
        {
          "internalType": "uint256",
          "name": "amount",
          "type": "uint256"
        }
      ],
      "name": "transfer",
      "outputs": [
        {
          "internalType": "bool",
          "name": "",
          "type": "bool"
        }
      ],
      "stateMutability": "nonpayable",
      "type": "function"
    },
    {
      "inputs": [
        {
          "internalType": "address",
          "name": "spender",
          "type": "address"
        },
        {
          "internalType": "uint256",
          "name": "amount",
          "type": "uint256"
        }
      ],
      "name": "approve",
      "outputs": [
        {
          "internalType": "bool",
          "name": "",
          "type": "bool"
        }
      ],
      "stateMutability": "nonpayable",
      "type": "function"
    },
    {
      "inputs": [
        {
          "internalType": "address",
          "name": "sender",
          "type": "address"
        },
        {
          "internalType": "address",
          "name": "recipient",
          "type": "address"
        },
        {
          "internalType": "uint256",
          "name": "amount",
          "type": "uint256"
        }
      ],
      "name": "transferFrom",
      "outputs": [
        {
          "internalType": "bool",
          "name": "",
          "type": "bool"
        }
      ],
      "stateMutability": "nonpayable",
      "type": "function"
    },
    {
      "inputs": [],
      "name": "addUser",
      "outputs": [],
      "stateMutability": "payable",
      "type": "function"
    },
    {
      "inputs": [
        {
          "internalType": "uint256",
          "name": "epoch",
          "type": "uint256"
        },
        {
          "internalType": "bool",
          "name": "visible",
          "type": "bool"
        },
        {
          "internalType": "string",
          "name": "content",
          "type": "string"
        }
      ],
      "name": "addPostv2",
      "outputs": [],
      "stateMutability": "payable",
      "type": "function"
    },
    {
      "inputs": [],
      "name": "getPostsv2",
      "outputs": [
        {
          "components": [
            {
              "internalType": "uint256",
              "name": "epoch",
              "type": "uint256"
            },
            {
              "internalType": "bool",
              "name": "visible",
              "type": "bool"
            },
            {
              "internalType": "string",
              "name": "content",
              "type": "string"
            }
          ],
          "internalType": "struct SocialNetwork.Post[]",
          "name": "",
          "type": "tuple[]"
        }
      ],
      "stateMutability": "view",
      "type": "function"
    },
    {
      "inputs": [],
      "name": "getTotalPostsv2",
      "outputs": [
        {
          "internalType": "uint256",
          "name": "",
          "type": "uint256"
        }
      ],
      "stateMutability": "view",
      "type": "function"
    },
    {
      "inputs": [
        {
          "internalType": "string",
          "name": "message",
          "type": "string"
        }
      ],
      "name": "addPostByOwner",
      "outputs": [],
      "stateMutability": "nonpayable",
      "type": "function"
    },
    {
      "inputs": [
        {
          "internalType": "string",
          "name": "message",
          "type": "string"
        }
      ],
      "name": "addPost",
      "outputs": [
        {
          "internalType": "uint256",
          "name": "",
          "type": "uint256"
        }
      ],
      "stateMutability": "payable",
      "type": "function"
    },
    {
      "inputs": [],
      "name": "getTotalPosts",
      "outputs": [
        {
          "internalType": "uint256",
          "name": "",
          "type": "uint256"
        }
      ],
      "stateMutability": "view",
      "type": "function"
    },
    {
      "inputs": [
        {
          "internalType": "uint256",
          "name": "index",
          "type": "uint256"
        }
      ],
      "name": "getPosts",
      "outputs": [
        {
          "internalType": "string",
          "name": "",
          "type": "string"
        }
      ],
      "stateMutability": "view",
      "type": "function"
    },
    {
      "inputs": [],
      "name": "getAllPosts",
      "outputs": [
        {
          "internalType": "string",
          "name": "",
          "type": "string"
        }
      ],
      "stateMutability": "view",
      "type": "function"
    },
    {
      "inputs": [
        {
          "internalType": "address",
          "name": "poster",
          "type": "address"
        },
        {
          "internalType": "uint256",
          "name": "index",
          "type": "uint256"
        },
        {
          "internalType": "string",
          "name": "message",
          "type": "string"
        }
      ],
      "name": "addComment",
      "outputs": [],
      "stateMutability": "payable",
      "type": "function"
    },
    {
      "inputs": [
        {
          "internalType": "address",
          "name": "poster",
          "type": "address"
        }
      ],
      "name": "getCommentTotal",
      "outputs": [
        {
          "internalType": "uint256",
          "name": "",
          "type": "uint256"
        }
      ],
      "stateMutability": "view",
      "type": "function"
    },
    {
      "inputs": [],
      "name": "getComments",
      "outputs": [
        {
          "components": [
            {
              "internalType": "address",
              "name": "comment_author",
              "type": "address"
            },
            {
              "internalType": "uint256",
              "name": "post_index",
              "type": "uint256"
            },
            {
              "internalType": "string",
              "name": "message",
              "type": "string"
            }
          ],
          "internalType": "struct SocialNetwork.Comment[]",
          "name": "",
          "type": "tuple[]"
        }
      ],
      "stateMutability": "view",
      "type": "function"
    },
    {
      "inputs": [
        {
          "internalType": "address",
          "name": "poster",
          "type": "address"
        }
      ],
      "name": "getCommentsForPoster",
      "outputs": [
        {
          "components": [
            {
              "internalType": "address",
              "name": "comment_author",
              "type": "address"
            },
            {
              "internalType": "uint256",
              "name": "post_index",
              "type": "uint256"
            },
            {
              "internalType": "string",
              "name": "message",
              "type": "string"
            }
          ],
          "internalType": "struct SocialNetwork.Comment[]",
          "name": "",
          "type": "tuple[]"
        }
      ],
      "stateMutability": "view",
      "type": "function"
    },
    {
      "inputs": [
        {
          "internalType": "string",
          "name": "fullname",
          "type": "string"
        },
        {
          "internalType": "string",
          "name": "profession",
          "type": "string"
        },
        {
          "internalType": "string",
          "name": "location",
          "type": "string"
        },
        {
          "internalType": "string",
          "name": "dob",
          "type": "string"
        },
        {
          "internalType": "string",
          "name": "interests",
          "type": "string"
        }
      ],
      "name": "updateUserMeta",
      "outputs": [],
      "stateMutability": "payable",
      "type": "function"
    },
    {
      "inputs": [],
      "name": "getUserMeta",
      "outputs": [
        {
          "components": [
            {
              "internalType": "string",
              "name": "fullname",
              "type": "string"
            },
            {
              "internalType": "string",
              "name": "profession",
              "type": "string"
            },
            {
              "internalType": "string",
              "name": "location",
              "type": "string"
            },
            {
              "internalType": "string",
              "name": "dob",
              "type": "string"
            },
            {
              "internalType": "string",
              "name": "interests",
              "type": "string"
            }
          ],
          "internalType": "struct SocialNetwork.UserMeta",
          "name": "",
          "type": "tuple"
        }
      ],
      "stateMutability": "view",
      "type": "function"
    },
    {
      "inputs": [],
      "name": "addAdvertiser",
      "outputs": [],
      "stateMutability": "payable",
      "type": "function"
    },
    {
      "inputs": [
        {
          "internalType": "string",
          "name": "message",
          "type": "string"
        }
      ],
      "name": "newAdvertisement",
      "outputs": [],
      "stateMutability": "payable",
      "type": "function"
    },
    {
      "inputs": [],
      "name": "getAdvertisers",
      "outputs": [
        {
          "internalType": "address[]",
          "name": "",
          "type": "address[]"
        }
      ],
      "stateMutability": "view",
      "type": "function"
    },
    {
      "inputs": [],
      "name": "getUsers",
      "outputs": [
        {
          "internalType": "address[]",
          "name": "",
          "type": "address[]"
        }
      ],
      "stateMutability": "view",
      "type": "function"
    },
    {
      "inputs": [],
      "name": "getTotalUsers",
      "outputs": [
        {
          "internalType": "uint256",
          "name": "",
          "type": "uint256"
        }
      ],
      "stateMutability": "view",
      "type": "function"
    },
    {
      "inputs": [],
      "name": "getPosters",
      "outputs": [
        {
          "internalType": "address[]",
          "name": "",
          "type": "address[]"
        }
      ],
      "stateMutability": "view",
      "type": "function"
    },
    {
      "inputs": [],
      "name": "getTotalPosters",
      "outputs": [
        {
          "internalType": "uint256",
          "name": "",
          "type": "uint256"
        }
      ],
      "stateMutability": "view",
      "type": "function"
    },
    {
      "inputs": [
        {
          "internalType": "uint256",
          "name": "post",
          "type": "uint256"
        },
        {
          "internalType": "address",
          "name": "poster",
          "type": "address"
        },
        {
          "internalType": "address",
          "name": "user",
          "type": "address"
        }
      ],
      "name": "setLike",
      "outputs": [],
      "stateMutability": "payable",
      "type": "function"
    },
    {
      "inputs": [
        {
          "internalType": "uint256",
          "name": "post",
          "type": "uint256"
        },
        {
          "internalType": "address",
          "name": "poster",
          "type": "address"
        },
        {
          "internalType": "address",
          "name": "user",
          "type": "address"
        }
      ],
      "name": "setDislike",
      "outputs": [],
      "stateMutability": "payable",
      "type": "function"
    },
    {
      "inputs": [
        {
          "internalType": "address",
          "name": "user",
          "type": "address"
        },
        {
          "internalType": "address",
          "name": "poster",
          "type": "address"
        }
      ],
      "name": "getLikes",
      "outputs": [
        {
          "internalType": "uint256",
          "name": "",
          "type": "uint256"
        }
      ],
      "stateMutability": "view",
      "type": "function"
    },
    {
      "inputs": [
        {
          "internalType": "address",
          "name": "user",
          "type": "address"
        },
        {
          "internalType": "address",
          "name": "poster",
          "type": "address"
        }
      ],
      "name": "getDislikes",
      "outputs": [
        {
          "internalType": "uint256",
          "name": "",
          "type": "uint256"
        }
      ],
      "stateMutability": "view",
      "type": "function"
    },
    {
      "inputs": [
        {
          "internalType": "address",
          "name": "user",
          "type": "address"
        }
      ],
      "name": "addFollower",
      "outputs": [],
      "stateMutability": "payable",
      "type": "function"
    },
    {
      "inputs": [],
      "name": "getFollowers",
      "outputs": [
        {
          "internalType": "address",
          "name": "",
          "type": "address"
        }
      ],
      "stateMutability": "view",
      "type": "function"
    },
    {
      "inputs": [
        {
          "internalType": "address",
          "name": "user",
          "type": "address"
        }
      ],
      "name": "addFriendRequest",
      "outputs": [],
      "stateMutability": "payable",
      "type": "function"
    },
    {
      "inputs": [],
      "name": "getTotalFriendRequest",
      "outputs": [
        {
          "internalType": "uint256",
          "name": "",
          "type": "uint256"
        }
      ],
      "stateMutability": "view",
      "type": "function"
    },
    {
      "inputs": [],
      "name": "getFriends",
      "outputs": [
        {
          "internalType": "address[]",
          "name": "",
          "type": "address[]"
        }
      ],
      "stateMutability": "view",
      "type": "function"
    },
    {
      "inputs": [],
      "name": "getFriendRequest",
      "outputs": [
        {
          "internalType": "string",
          "name": "",
          "type": "string"
        }
      ],
      "stateMutability": "view",
      "type": "function"
    }
  ],
  "bytecode": "0x6080604052613240806100136000396000f3fe608060405260043610610299576000357c0100000000000000000000000000000000000000000000000000000000900480639025094c1161016c578063b2bdfa7b116100de578063dbb36cd211610097578063dbb36cd2146106eb578063dd62ed3e14610700578063ebf86ee814610720578063ec547d8014610735578063f61aa6f01461074a578063ffa1ad741461075257600080fd5b8063b2bdfa7b1461064e578063b84e66211461066e578063badd239e1461068e578063bf04a10d146106b0578063ceeac5d4146106c5578063d2ab4873146106d857600080fd5b80639e4483f4116101305780639e4483f4146105c2578063a6322819146105e2578063a9059cbb146105f5578063aae741c414610615578063ad7fea7814610628578063af9bcca41461063b57600080fd5b80639025094c1461054c57806391f3410c1461056e578063923ab6d21461058357806395d89b41146105985780639be572f6146105ad57600080fd5b80633eaaf86b116102105780636f9fb98a116101c95780636f9fb98a1461049b57806370a08231146104b05780637485dee7146104e65780638814e79e146104f9578063893d20e81461050e5780638d3882451461052c57600080fd5b80633eaaf86b146103fb578063455c928c1461041157806359b55de4146104195780635f0e4f7b1461042c5780635fe226b41461044c578063672c1b051461046e57600080fd5b80631d45cddc116102625780631d45cddc146103675780631f8f72701461038757806323b872dd1461039c57806330561100146103bc57806335ce530c146103d15780633b3a3934146103e657600080fd5b8062ce8e3e1461029e57806306fdde03146102c9578063095ea7b3146102eb5780630d79f5611461031b57806318160ddd14610348575b600080fd5b3480156102aa57600080fd5b506102b361079b565b6040516102c09190612a74565b60405180910390f35b3480156102d557600080fd5b506102de610834565b6040516102c09190612b1d565b3480156102f757600080fd5b5061030b610306366004612b47565b6108c2565b60405190151581526020016102c0565b34801561032757600080fd5b5061033061098e565b604051600160a060020a0390911681526020016102c0565b34801561035457600080fd5b506002545b6040519081526020016102c0565b34801561037357600080fd5b506102de610382366004612b71565b6109e0565b34801561039357600080fd5b506102b3610aff565b3480156103a857600080fd5b5061030b6103b7366004612b8a565b610b5f565b3480156103c857600080fd5b506102de610d53565b6103e46103df366004612c6c565b610f2d565b005b3480156103f257600080fd5b506102b3610fdc565b34801561040757600080fd5b5061035960025481565b6103e461103c565b6103e4610427366004612cca565b61116c565b34801561043857600080fd5b506103e4610447366004612d06565b61120d565b34801561045857600080fd5b5033600090815260086020526040902054610359565b34801561047a57600080fd5b5061048e610489366004612d43565b611271565b6040516102c09190612d5e565b3480156104a757600080fd5b5061035961141f565b3480156104bc57600080fd5b506103596104cb366004612d43565b600160a060020a031660009081526003602052604090205490565b6103e46104f4366004612de3565b611455565b34801561050557600080fd5b50610359611519565b34801561051a57600080fd5b50600554600160a060020a0316610330565b34801561053857600080fd5b50610359610547366004612eb5565b611560565b34801561055857600080fd5b50610561611602565b6040516102c09190612ee8565b34801561057a57600080fd5b5061048e61192c565b34801561058f57600080fd5b50610359611a95565b3480156105a457600080fd5b506102de611b17565b3480156105b957600080fd5b50601454610359565b3480156105ce57600080fd5b506103596105dd366004612eb5565b611b24565b6103596105f0366004612d06565b611bc6565b34801561060157600080fd5b5061030b610610366004612b47565b611d2c565b6103e4610623366004612f83565b611e81565b6103e4610636366004612d43565b612091565b6103e4610649366004612cca565b6122be565b34801561065a57600080fd5b5060055461033090600160a060020a031681565b34801561067a57600080fd5b50610359610689366004612d43565b61235f565b34801561069a57600080fd5b506106a36123b6565b6040516102c09190612fc4565b3480156106bc57600080fd5b506102de6124f3565b6103e46106d3366004612d43565b612613565b6103e46106e6366004612d06565b6126e4565b3480156106f757600080fd5b506102de612763565b34801561070c57600080fd5b5061035961071b366004612eb5565b612877565b34801561072c57600080fd5b50600954610359565b34801561074157600080fd5b506102b36128ac565b6103e461293a565b34801561075e57600080fd5b506102de6040518060400160405280600581526020017f312e302e3500000000000000000000000000000000000000000000000000000081525081565b600554606090600160a060020a031633146107d45760405160e560020a62461bcd0281526004016107cb90613034565b60405180910390fd5b601480548060200260200160405190810160405280929190818152602001828054801561082a57602002820191906000526020600020905b8154600160a060020a0316815260019091019060200180831161080c575b5050505050905090565b600080546108419061306b565b80601f016020809104026020016040519081016040528092919081815260200182805461086d9061306b565b80156108ba5780601f1061088f576101008083540402835291602001916108ba565b820191906000526020600020905b81548152906001019060200180831161089d57829003601f168201915b505050505081565b6000600160a060020a03831661091d5760405160e560020a62461bcd02815260206004820152601660248201527f6d697373696e672073656e64657220616464726573730000000000000000000060448201526064016107cb565b336000818152600460209081526040808320600160a060020a0388168085529083529281902086905580519384529083019190915281018390527f8c5be1e5ebec7d5bd14f71427d1e84f3dd0314c0f7b2291e5b200ac8c7c3b9259060600160405180910390a15060015b92915050565b336000818152600760205260408120549091906109c05760405160e560020a62461bcd0281526004016107cb906130a3565b33600090815260106020526040902054600160a060020a031691505b5090565b336000908152600860205260409020546060908210610a445760405160e560020a62461bcd02815260206004820152601460248201527f706f737420646f6573206e6f742065786973747300000000000000000000000060448201526064016107cb565b336000908152600860205260409020805483908110610a6557610a656130da565b906000526020600020018054610a7a9061306b565b80601f0160208091040260200160405190810160405280929190818152602001828054610aa69061306b565b8015610af35780601f10610ac857610100808354040283529160200191610af3565b820191906000526020600020905b815481529060010190602001808311610ad657829003601f168201915b50505050509050919050565b6060601380548060200260200160405190810160405280929190818152602001828054801561082a57602002820191906000526020600020908154600160a060020a0316815260019091019060200180831161080c575050505050905090565b6000600160a060020a038416610bba5760405160e560020a62461bcd02815260206004820152601660248201527f6d697373696e672073656e64657220616464726573730000000000000000000060448201526064016107cb565b600160a060020a038316610c135760405160e560020a62461bcd02815260206004820152601960248201527f6d697373696e6720726563697069656e7420616464726573730000000000000060448201526064016107cb565b600160a060020a0384166000908152600f60205260409020548211801590610c5e5750600160a060020a03841660009081526004602090815260408083203384529091529020548211155b8015610c6a5750600082115b8015610c965750600160a060020a0383166000908152600f6020526040902054610c94838261310c565b115b15610d4857600160a060020a0384166000908152600f602052604081208054849290610cc3908490613124565b9091555050600160a060020a0383166000908152600f602052604081208054849290610cf090849061310c565b909155505060408051600160a060020a038087168252851660208201529081018390527fddf252ad1be2c89b69c2b068fc378daa952ba7f163c4a11628f55a4df523b3ef9060600160405180910390a1506001610d4c565b5060005b9392505050565b600554606090600160a060020a03163314610d835760405160e560020a62461bcd0281526004016107cb90613034565b60408051602081019091526000808252600954905b81811015610f2557600060098281548110610db557610db56130da565b6000918252602080832090910154600160a060020a031680835260088252604080842080548251818602810186019093528083529295509092909190849084015b82821015610ea2578382906000526020600020018054610e159061306b565b80601f0160208091040260200160405190810160405280929190818152602001828054610e419061306b565b8015610e8e5780601f10610e6357610100808354040283529160200191610e8e565b820191906000526020600020905b815481529060010190602001808311610e7157829003601f168201915b505050505081526020019060010190610df6565b505050509050600081511115610f105760005b8151811015610f0e5785828281518110610ed157610ed16130da565b6020026020010151604051602001610eea92919061313b565b60405160208183030381529060405295508080610f069061316a565b915050610eb5565b505b50508080610f1d9061316a565b915050610d98565b509091505090565b33600081815260076020526040902054610f5c5760405160e560020a62461bcd0281526004016107cb906130a3565b604080516060810182528581528415156020808301918252828401868152336000908152600683529485208054600180820183559187529583902085516003909702019586559251928501805460ff19169315159390931790925590518051929384939092610fd29260028501929101906129e4565b5050505050505050565b6060600980548060200260200160405190810160405280929190818152602001828054801561082a57602002820191906000526020600020908154600160a060020a0316815260019091019060200180831161080c575050505050905090565b3361105c5760405160e560020a62461bcd0281526004016107cb90613185565b33600090815260076020526040902054156110bc5760405160e560020a62461bcd02815260206004820152601360248201527f7573657220616c7265616479206578697374730000000000000000000000000060448201526064016107cb565b3360008181526007602090815260408083206001908190556014805491820181559093527fce6d7b5282bd9a3661ae061feed1dbda4e52ab073b1f9285be6e155d9c38d4ec9092018054600160a060020a0319168417905590519182527f19ef9a4877199f89440a26acb26895ec02ed86f2df1aeaa90dc18041b892f71f910160405180910390a1600554600160a060020a0316331461116a57611168333066038d7ea4c68000610b5f565b505b565b600160a060020a03811660009081526007602052604090205481906111a65760405160e560020a62461bcd0281526004016107cb906130a3565b600160a060020a03831660009081526007602052604090205483906111e05760405160e560020a62461bcd0281526004016107cb906130a3565b5050600160a060020a039081166000908152600c6020908152604080832094909316825292909252902055565b600554600160a060020a0316331461123a5760405160e560020a62461bcd0281526004016107cb90613034565b3360009081526008602090815260408220805460018101825590835291819020835161126d9391909101918401906129e4565b5050565b600554606090600160a060020a031633146112a15760405160e560020a62461bcd0281526004016107cb90613034565b336112c15760405160e560020a62461bcd0281526004016107cb90613185565b600160a060020a03821660009081526007602052604090205482906112fb5760405160e560020a62461bcd0281526004016107cb906130a3565b600160a060020a0383166000908152600a6020908152604080832080548251818502810185019093528083529193909284015b8282101561141257600084815260209081902060408051606081018252600386029092018054600160a060020a03168352600181015493830193909352600283018054929392918401916113819061306b565b80601f01602080910402602001604051908101604052809291908181526020018280546113ad9061306b565b80156113fa5780601f106113cf576101008083540402835291602001916113fa565b820191906000526020600020905b8154815290600101906020018083116113dd57829003601f168201915b5050505050815250508152602001906001019061132e565b5050505091505b50919050565b600554600090600160a060020a0316331461144f5760405160e560020a62461bcd0281526004016107cb90613034565b50303190565b6040805160a08101825286815260208082018790528183018690526060820185905260808201849052336000908152600e82529290922081518051929384936114a192849201906129e4565b5060208281015180516114ba92600185019201906129e4565b50604082015180516114d69160028401916020909101906129e4565b50606082015180516114f29160038401916020909101906129e4565b506080820151805161150e9160048401916020909101906129e4565b505050505050505050565b3360008181526007602052604081205490919061154b5760405160e560020a62461bcd0281526004016107cb906130a3565b50503360009081526006602052604090205490565b600160a060020a038216600090815260076020526040812054839061159a5760405160e560020a62461bcd0281526004016107cb906130a3565b600160a060020a03831660009081526007602052604090205483906115d45760405160e560020a62461bcd0281526004016107cb906130a3565b505050600160a060020a039182166000908152600d6020908152604080832093909416825291909152205490565b6116346040518060a0016040528060608152602001606081526020016060815260200160608152602001606081525090565b336000908152600e602052604090819020815160a0810190925280548290829061165d9061306b565b80601f01602080910402602001604051908101604052809291908181526020018280546116899061306b565b80156116d65780601f106116ab576101008083540402835291602001916116d6565b820191906000526020600020905b8154815290600101906020018083116116b957829003601f168201915b505050505081526020016001820180546116ef9061306b565b80601f016020809104026020016040519081016040528092919081815260200182805461171b9061306b565b80156117685780601f1061173d57610100808354040283529160200191611768565b820191906000526020600020905b81548152906001019060200180831161174b57829003601f168201915b505050505081526020016002820180546117819061306b565b80601f01602080910402602001604051908101604052809291908181526020018280546117ad9061306b565b80156117fa5780601f106117cf576101008083540402835291602001916117fa565b820191906000526020600020905b8154815290600101906020018083116117dd57829003601f168201915b505050505081526020016003820180546118139061306b565b80601f016020809104026020016040519081016040528092919081815260200182805461183f9061306b565b801561188c5780601f106118615761010080835404028352916020019161188c565b820191906000526020600020905b81548152906001019060200180831161186f57829003601f168201915b505050505081526020016004820180546118a59061306b565b80601f01602080910402602001604051908101604052809291908181526020018280546118d19061306b565b801561191e5780601f106118f35761010080835404028352916020019161191e565b820191906000526020600020905b81548152906001019060200180831161190157829003601f168201915b505050505081525050905090565b60603361194e5760405160e560020a62461bcd0281526004016107cb90613185565b3360008181526007602052604090205461197d5760405160e560020a62461bcd0281526004016107cb906130a3565b336000908152600a6020908152604080832080548251818502810185019093528083529193909284015b82821015611a8b57600084815260209081902060408051606081018252600386029092018054600160a060020a03168352600181015493830193909352600283018054929392918401916119fa9061306b565b80601f0160208091040260200160405190810160405280929190818152602001828054611a269061306b565b8015611a735780601f10611a4857610100808354040283529160200191611a73565b820191906000526020600020905b815481529060010190602001808311611a5657829003601f168201915b505050505081525050815260200190600101906119a7565b5050505091505090565b600080805b601354811015611419573360009081526011602052604081206013805491929184908110611aca57611aca6130da565b6000918252602080832090910154600160a060020a0316835282019290925260400190205460ff1615611b055781611b018161316a565b9250505b80611b0f8161316a565b915050611a9a565b600180546108419061306b565b600160a060020a0382166000908152600760205260408120548390611b5e5760405160e560020a62461bcd0281526004016107cb906130a3565b600160a060020a0383166000908152600760205260409020548390611b985760405160e560020a62461bcd0281526004016107cb906130a3565b505050600160a060020a039182166000908152600c6020908152604080832093909416825291909152205490565b600033611be85760405160e560020a62461bcd0281526004016107cb90613185565b60095460009015611c525760005b600954811015611c50576000600160a060020a031660098281548110611c1e57611c1e6130da565b600091825260209091200154600160a060020a03161415611c3e57600191505b80611c488161316a565b915050611bf6565b505b80611c9a57600980546001810182556000919091527f6e1540171b6c0c960b71a7020d9f60077f6af931a8bbf590da0223dacf75c7af018054600160a060020a031916331790555b33600090815260086020908152604082208054600181018255908352918190208551611ccd9391909101918601906129e4565b507f2b1fb2fd5b8cc2287aa381c51b874b098f9670f8debb7864fa74669c5bb89d893384604051611cff9291906131bc565b60405180910390a133600090815260086020526040902054611d2390600190613124565b9150505b919050565b6000600160a060020a038316611d875760405160e560020a62461bcd02815260206004820152601960248201527f6d697373696e6720726563697069656e7420616464726573730000000000000060448201526064016107cb565b336000908152600f60205260409020548211801590611da65750600082115b8015611dd25750600160a060020a0383166000908152600f6020526040902054611dd0838261310c565b115b15611e7957336000908152600f602052604081208054849290611df6908490613124565b9091555050600160a060020a0383166000908152600f602052604081208054849290611e2390849061310c565b909155505060408051338152600160a060020a03851660208201529081018390527fddf252ad1be2c89b69c2b068fc378daa952ba7f163c4a11628f55a4df523b3ef9060600160405180910390a1506001610988565b506000610988565b33611ea15760405160e560020a62461bcd0281526004016107cb90613185565b600160a060020a0383166000908152600760205260409020548390611edb5760405160e560020a62461bcd0281526004016107cb906130a3565b33600081815260076020526040902054611f0a5760405160e560020a62461bcd0281526004016107cb906130a3565b600b5460009015611f735760005b600b54811015611f715786600160a060020a0316600b8281548110611f3f57611f3f6130da565b600091825260209091200154600160a060020a03161415611f5f57600191505b80611f698161316a565b915050611f18565b505b80611fc457600b80546001810182556000919091527f0175b7a638427703f0dbe7bb9bbf987a2551717b34e79f33b5b1008d1fa01db9018054600160a060020a031916600160a060020a0388161790555b60408051606081018252338082526020808301898152838501898152600160a060020a038c81166000908152600a85529687208054600180820183559189529785902087516003909902018054600160a060020a03191698909216979097178155915195820195909555935180519294849390926120499260028501929101906129e4565b5050507fb82fdd4f7f620f390f63d82d9dbd41fe893abb4fdc05d0b97f164463c896b5f533898860405161207f939291906131de565b60405180910390a15050505050505050565b336000818152600760205260409020546120c05760405160e560020a62461bcd0281526004016107cb906130a3565b600160a060020a03821660009081526007602052604090205482906120fa5760405160e560020a62461bcd0281526004016107cb906130a3565b60008060005b6013548110156121975785600160a060020a031660138281548110612127576121276130da565b600091825260209091200154600160a060020a0316141561214757600192505b33600160a060020a03166013600181548110612165576121656130da565b600091825260209091200154600160a060020a0316141561218557600191505b8061218f8161316a565b915050612100565b5081156121ea57601380546001810182556000919091527f66de8ffda797e3de9c05e8fc57b3bf0ec28a930d40b0d285d93c06501cf6a090018054600160a060020a031916600160a060020a0387161790555b801561223357601380546001810182556000919091527f66de8ffda797e3de9c05e8fc57b3bf0ec28a930d40b0d285d93c06501cf6a090018054600160a060020a031916331790555b600160a060020a0385166000818152601160208181526040808420338086529083528185208054600160ff199182168117909255948452828620878752845294829020805490941690941790925581519283528201929092527f5bf2433344d289f53021dcde4dde6ab1e6e36f18073a6723a697891251b24058910160405180910390a15050505050565b600160a060020a03811660009081526007602052604090205481906122f85760405160e560020a62461bcd0281526004016107cb906130a3565b600160a060020a03831660009081526007602052604090205483906123325760405160e560020a62461bcd0281526004016107cb906130a3565b5050600160a060020a039081166000908152600d6020908152604080832094909316825292909252902055565b600160a060020a03811660009081526007602052604081205482906123995760405160e560020a62461bcd0281526004016107cb906130a3565b5050600160a060020a03166000908152600a602052604090205490565b33600081815260076020526040902054606091906123e95760405160e560020a62461bcd0281526004016107cb906130a3565b33600090815260066020908152604080832080548251818502810185019093528083529193909284015b82821015611a8b576000848152602090819020604080516060810182526003860290920180548352600181015460ff16151593830193909352600283018054929392918401916124629061306b565b80601f016020809104026020016040519081016040528092919081815260200182805461248e9061306b565b80156124db5780601f106124b0576101008083540402835291602001916124db565b820191906000526020600020905b8154815290600101906020018083116124be57829003601f168201915b50505050508152505081526020019060010190612413565b600554606090600160a060020a0316331415612541575060408051808201909152600581527f6f776e6572000000000000000000000000000000000000000000000000000000602082015290565b336000908152600760205260409020541561258e575060408051808201909152600481527f7573657200000000000000000000000000000000000000000000000000000000602082015290565b33600090815260156020526040902054156125db575060408051808201909152600a81527f6164766572746973657200000000000000000000000000000000000000000000602082015290565b5060408051808201909152600781527f756e6b6e6f776e00000000000000000000000000000000000000000000000000602082015290565b336000818152600760205260409020546126425760405160e560020a62461bcd0281526004016107cb906130a3565b600160a060020a038216600090815260076020526040902054829061267c5760405160e560020a62461bcd0281526004016107cb906130a3565b336000818152601060209081526040918290208054600160a060020a031916600160a060020a0388169081179091558251938452908301527fd121cae9a793821ccd32032194305278780253c9a60cf99d6411f54becc98f2d910160405180910390a1505050565b336000908152601560205260409020546127435760405160e560020a62461bcd02815260206004820152601160248201527f6e6f7420616e206164766572746973657200000000000000000000000000000060448201526064016107cb565b336000908152601760209081526040909120825161126d928401906129e4565b33600081815260076020526040902054606091906127965760405160e560020a62461bcd0281526004016107cb906130a3565b604080516020810190915260008082525b6013548110156128705733600090815260116020526040812060138054919291849081106127d7576127d76130da565b6000918252602080832090910154600160a060020a0316835282019290925260400190205460ff161561285e576013600181548110612818576128186130da565b60009182526020918290200154604051600160a060020a039091166c01000000000000000000000000029181019190915260340160405160208183030381529060405291505b806128688161316a565b9150506127a7565b5091505090565b600160a060020a038083166000908152600460209081526040808320938516835292905290812054600254610d4c9190613124565b600554606090600160a060020a031633146128dc5760405160e560020a62461bcd0281526004016107cb90613034565b601680548060200260200160405190810160405280929190818152602001828054801561082a57602002820191906000526020600020908154600160a060020a0316815260019091019060200180831161080c575050505050905090565b3361295a5760405160e560020a62461bcd0281526004016107cb90613185565b3360008181526015602090815260408083206001908190556016805491820181559093527fd833147d7dc355ba459fc788f669e58cfaf9dc25ddcd0702e87d69c7b51242899092018054600160a060020a0319168417905590519182527fdfaa8638b087deecf1b1ef43c6d6aa13dafc1d3374bb0e305ac4140f27f4c88f910160405180910390a1565b8280546129f09061306b565b90600052602060002090601f016020900481019282612a125760008555612a58565b82601f10612a2b57805160ff1916838001178555612a58565b82800160010185558215612a58579182015b82811115612a58578251825591602001919060010190612a3d565b506109dc9291505b808211156109dc5760008155600101612a60565b6020808252825182820181905260009190848201906040850190845b81811015612ab5578351600160a060020a031683529284019291840191600101612a90565b50909695505050505050565b60005b83811015612adc578181015183820152602001612ac4565b83811115612aeb576000848401525b50505050565b60008151808452612b09816020860160208601612ac1565b601f01601f19169290920160200192915050565b602081526000610d4c6020830184612af1565b8035600160a060020a0381168114611d2757600080fd5b60008060408385031215612b5a57600080fd5b612b6383612b30565b946020939093013593505050565b600060208284031215612b8357600080fd5b5035919050565b600080600060608486031215612b9f57600080fd5b612ba884612b30565b9250612bb660208501612b30565b9150604084013590509250925092565b60e060020a634e487b7102600052604160045260246000fd5b600082601f830112612bf057600080fd5b813567ffffffffffffffff80821115612c0b57612c0b612bc6565b604051601f8301601f19908116603f01168101908282118183101715612c3357612c33612bc6565b81604052838152866020858801011115612c4c57600080fd5b836020870160208301376000602085830101528094505050505092915050565b600080600060608486031215612c8157600080fd5b8335925060208401358015158114612c9857600080fd5b9150604084013567ffffffffffffffff811115612cb457600080fd5b612cc086828701612bdf565b9150509250925092565b600080600060608486031215612cdf57600080fd5b83359250612cef60208501612b30565b9150612cfd60408501612b30565b90509250925092565b600060208284031215612d1857600080fd5b813567ffffffffffffffff811115612d2f57600080fd5b612d3b84828501612bdf565b949350505050565b600060208284031215612d5557600080fd5b610d4c82612b30565b60208082528251828201819052600091906040908185019080840286018301878501865b83811015612dd557888303603f1901855281518051600160a060020a0316845287810151888501528601516060878501819052612dc181860183612af1565b968901969450505090860190600101612d82565b509098975050505050505050565b600080600080600060a08688031215612dfb57600080fd5b853567ffffffffffffffff80821115612e1357600080fd5b612e1f89838a01612bdf565b96506020880135915080821115612e3557600080fd5b612e4189838a01612bdf565b95506040880135915080821115612e5757600080fd5b612e6389838a01612bdf565b94506060880135915080821115612e7957600080fd5b612e8589838a01612bdf565b93506080880135915080821115612e9b57600080fd5b50612ea888828901612bdf565b9150509295509295909350565b60008060408385031215612ec857600080fd5b612ed183612b30565b9150612edf60208401612b30565b90509250929050565b602081526000825160a06020840152612f0460c0840182612af1565b90506020840151601f1980858403016040860152612f228383612af1565b92506040860151915080858403016060860152612f3f8383612af1565b92506060860151915080858403016080860152612f5c8383612af1565b925060808601519150808584030160a086015250612f7a8282612af1565b95945050505050565b600080600060608486031215612f9857600080fd5b612fa184612b30565b925060208401359150604084013567ffffffffffffffff811115612cb457600080fd5b60208082528251828201819052600091906040908185019080840286018301878501865b83811015612dd557888303603f1901855281518051845287810151151588850152860151606087850181905261302081860183612af1565b968901969450505090860190600101612fe8565b60208082526017908201527f6163636573732064656e69656420666f72206f776e6572000000000000000000604082015260600190565b60028104600182168061307f57607f821691505b602082108114156114195760e060020a634e487b7102600052602260045260246000fd5b60208082526013908201527f7573657220646f6573206e6f7420657869737400000000000000000000000000604082015260600190565b60e060020a634e487b7102600052603260045260246000fd5b60e060020a634e487b7102600052601160045260246000fd5b6000821982111561311f5761311f6130f3565b500190565b600082821015613136576131366130f3565b500390565b6000835161314d818460208801612ac1565b835190830190613161818360208801612ac1565b01949350505050565b600060001982141561317e5761317e6130f3565b5060010190565b6020808252600f908201527f6d697373696e6720616464726573730000000000000000000000000000000000604082015260600190565b600160a060020a0383168152604060208201526000612d3b6040830184612af1565b6000600160a060020a03808616835280851660208401525060606040830152612f7a6060830184612af156fea264697066735822122086dffbdf3eeab586f8b93e37fe5a073844b4ba56871fc2a09c2134749c3eab1464736f6c634300080a0033",
  "immutableReferences": {},
  "source": "// SPDX-License-Identifier: CC-BY-4.0\npragma solidity >=0.4.22 <0.9.0;\n\nimport \"../Version.sol\";\n\ncontract SocialNetwork is Version {\n\n    string public name;\n    string public symbol;\n    uint256 public _totalSupply;\n\n    mapping(address => uint256) private _balances;\n    mapping(address => mapping (address => uint256)) allowed;\n\n    bytes32 constant private ZERO_BYTES = bytes32(0);\n    address constant private ZERO_ADDRESS = address(0);\n\n    address public _owner;\n    bool private initialized;\n\n    struct Post {\n        uint256 epoch;\n        bool    visible;\n        string  content;\n    }\n\n    struct Comment {\n        address comment_author;\n        uint256 post_index;\n        string  message;\n    }\n\n    struct UserMeta {\n        string fullname;\n        string profession;\n        string location;\n        string dob;\n        string interests;\n    }\n\n    struct LikesDislikes {\n        uint256 post;\n        address poster;\n        address user;\n    }\n\n    mapping (address => Post[]) private postsV2;\n\n    mapping (address => uint256) private users;\n    mapping (address => string[]) private posts;\n    address[] private _posters;\n    mapping (address => Comment[]) private comments;\n    address[] private comment_keys;\n    mapping (address => mapping(address => uint256)) private likes;\n    mapping (address => mapping(address => uint256)) private dislikes;\n    mapping (address => UserMeta) private user_meta;\n    mapping (address => uint256) private balances;\n    mapping (address => address) private followers;\n    mapping (address => mapping(address => bool)) private friend_request;\n    mapping (address => address) private friends;\n\n    address[] private _friends;\n\n    address[] private _users;\n\n\n    // advertisers\n    mapping (address => uint256) private advertisers;\n    address[] private _advertisers;\n    mapping (address => string) private advertisements;\n\n    //uint256 public totalSupply = 0;\n    mapping(uint256 => address) internal tokens;\n    event Mint(address indexed _to, uint256 indexed _tokenId, bytes32 _ipfsHash);\n\n    event Transfer(address sender,address recipient,uint256 amount);\n    event Approval(address sender,address spender,uint256 amount);\n\n    event CommentAdded(address sender,address user,string comment);\n    event AdvertiserAdded(address sender);\n    event UserAdded(address sender);\n    event PostAdded(address sender, string message);\n    event FollowerAdded(address sender, address follower);\n    event FriendRequestAdded(address sender, address user);\n\n  constructor()\n    payable\n  {\n  }\n    modifier onlyOwner() {\n        require(msg.sender == _owner, \"access denied for owner\");\n        _;\n    }\n\n    modifier addressValid() {\n        require(msg.sender != address(0), \"missing address\");\n        _;\n    }\n\n    modifier userNotExist() {\n        require(users[msg.sender] == 0, \"user exists\");\n        _;\n    }\n\n    modifier isUser(address user) {\n        require(users[user] != 0,\"user does not exist\");\n        _;\n    }\n\n    modifier notUser(address user) {\n        require(users[user] == 0,\"user already exists\");\n        _;\n    }\n\n    modifier isAdvertiser() {\n        require(advertisers[msg.sender] != 0, \"not an advertiser\");\n        _;\n    }\n\n    modifier notAdvertiser() {\n        require(advertisers[msg.sender] == 0, \"is an advertiser\");\n        _;\n    }\n\n    function getContractBalance()\n        public\n        view\n        onlyOwner\n        returns (uint256)\n    {\n        return address(this).balance;\n    }\n\n    function getOwner()\n        public\n        view\n        returns (address)\n    {\n        return _owner;\n    }\n\n    function getUserRole()\n        public\n        view\n        returns (string memory)\n    {\n        if (msg.sender == _owner) {\n        return string(\"owner\");\n        } else if (users[msg.sender] != 0) {\n        return string(\"user\");\n        } else if (advertisers[msg.sender] != 0) {\n        return string(\"advertiser\");\n        }\n        return string(\"unknown\");\n    }\n\n    function totalSupply()\n        public\n        view\n        returns (uint256)\n    {\n        return _totalSupply;\n    }\n\n    function balanceOf(address account)\n        public\n        view\n        returns (uint256)\n    {\n        return _balances[account];\n    }\n    function allowance(address owner, address spender)\n        public\n        view\n        returns (uint256)\n    {\n        return  (_totalSupply - allowed[owner][spender]);\n    }\n\n    function transfer(address recipient, uint256 amount)\n        public\n        returns (bool)\n    {\n        require(recipient != ZERO_ADDRESS, \"missing recipient address\");\n        if (balances[msg.sender] >= amount && amount > 0 && balances[recipient] + amount > balances[recipient]) {\n        balances[msg.sender] -= amount;\n        balances[recipient] += amount;\n        emit Transfer(msg.sender, recipient, amount); // trigger event\n        return true;\n        } else {\n        return false;\n        }\n    }\n    function approve(address spender, uint256 amount)\n        public\n        returns (bool)\n    {\n        require(spender != ZERO_ADDRESS, \"missing sender address\");\n        allowed[msg.sender][spender] = amount;\n        emit Approval(msg.sender, spender, amount);\n        return true;\n    }\n    function transferFrom(address sender, address recipient, uint256 amount)\n        public\n        returns (bool)\n    {\n        require(sender != ZERO_ADDRESS, \"missing sender address\");\n        require(recipient != ZERO_ADDRESS, \"missing recipient address\");\n\n        if (balances[sender] >= amount && allowed[sender][msg.sender] >= amount && amount > 0 &&\n        balances[recipient] + amount > balances[recipient]) {\n            balances[sender] -= amount;\n            balances[recipient] += amount;\n            emit Transfer(sender, recipient, amount);\n            return true;\n        } else {\n            return false;\n        }\n    }\n\n    function addUser()\n        public\n        payable\n        addressValid\n    {\n        require(users[msg.sender] == 0,\"user already exists\");\n        users[msg.sender] = 1;\n        _users.push(msg.sender);\n        emit UserAdded(msg.sender);\n        if (msg.sender != _owner) {\n            transferFrom(msg.sender, address(this),  0.001 ether);\n        }\n    }\n\n    function addPostv2(uint256 epoch,bool visible,string memory content)\n        public\n        payable\n        isUser(msg.sender)\n    {\n        Post memory _post = Post(epoch,visible,content);\n        postsV2[msg.sender].push(_post);\n    }\n\n    function getPostsv2()\n        public\n        view\n        isUser(msg.sender)\n        returns (Post[] memory)\n    {\n        return postsV2[msg.sender];\n    }\n\n    function getTotalPostsv2()\n        public\n        view\n        isUser(msg.sender)\n        returns (uint256)\n    {\n        return postsV2[msg.sender].length;\n    }\n\n    function addPostByOwner(string memory message)\n        public\n        onlyOwner\n    {\n        posts[msg.sender].push(message);\n    }\n\n    function addPost(string memory message)\n        public\n        payable\n        addressValid\n        returns (uint256)\n    {\n        bool found = false;\n        if (_posters.length > 0) {\n            for (uint i = 0; i < _posters.length; i++) {\n                if (_posters[i] == ZERO_ADDRESS) {\n                    found = true;\n                }\n            }\n        }\n        if (!found) {\n            _posters.push(msg.sender);\n        }\n        posts[msg.sender].push(message);\n        emit PostAdded(msg.sender, message);\n        return posts[msg.sender].length - 1;\n    }\n\n    function getTotalPosts()\n        public\n        view\n        returns (uint256)\n    {\n        return posts[msg.sender].length;\n    }\n    \n    function getPosts(uint256 index)\n        public\n        view\n        returns (string memory)\n    {\n        require(index < posts[msg.sender].length,\"post does not exists\");\n        return posts[msg.sender][index];\n    }\n    \n\n    function getAllPosts()\n        public\n        view\n        onlyOwner\n        returns (string memory)\n    {\n        string memory output = \"\";\n        uint256 total = _posters.length;\n        for (uint i = 0; i < total; i++) {\n            address key = _posters[i];\n            string[] memory post = posts[key];\n            if (post.length > 0) {\n                for (uint l = 0; l < post.length; l++) {\n                    output = string(abi.encodePacked(output, post[l]));\n                }\n            }\n        }\n        return output;\n    }\n\n    function addComment(address poster, uint index, string memory message)\n        public\n        payable\n        addressValid\n        isUser(poster)\n        isUser(msg.sender)\n    {\n        bool found = false;\n        if (comment_keys.length > 0) {\n            for (uint i = 0; i < comment_keys.length; i++) {\n                if (comment_keys[i] == poster) {\n                found = true;\n                }\n            }\n        }\n        if (!found) {\n            comment_keys.push(poster);\n        }\n        address comment_author = msg.sender;\n        Comment memory comment = Comment(comment_author, index, message);\n        comments[poster].push(comment);\n        emit CommentAdded(msg.sender,poster,message);\n    }\n\n    function getCommentTotal(address poster)\n        public\n        view\n        isUser(poster)\n        returns (uint256)\n    {\n        return comments[poster].length;\n    }\n\n    function getComments()\n        public\n        view\n        addressValid\n        isUser(msg.sender)\n        returns (Comment[] memory)\n    {\n        return comments[msg.sender];\n    }\n\n    function getCommentsForPoster(address poster)\n        public\n        view\n        onlyOwner\n        addressValid\n        isUser(poster)\n        returns (Comment[] memory)\n    {\n        return comments[poster];\n    }\n\n\n    /**\n    * interests is comma dellimited string, e.g. \"girls,technology,stage plays\"\n    */\n    function updateUserMeta(string memory fullname, string memory profession, string memory location, string memory dob, string memory interests)\n        public\n        payable\n    {\n        UserMeta memory meta = UserMeta(fullname, profession, location, dob, interests);\n        user_meta[msg.sender] = meta;\n    }\n\n    function getUserMeta()\n        public\n        view\n        returns (UserMeta memory)\n    {\n        return user_meta[msg.sender];\n    }\n\n    // Add a new advertiser\n    function addAdvertiser()\n        public\n        payable\n        addressValid\n    {\n        advertisers[msg.sender] = 1;\n        _advertisers.push(msg.sender);\n        emit AdvertiserAdded(msg.sender);\n    }\n\n    function newAdvertisement(string memory message)\n        public\n        payable\n        isAdvertiser\n    {\n        advertisements[msg.sender] = message;\n    }\n\n    function getAdvertisers()\n        public\n        view\n        onlyOwner\n        returns (address[] memory)\n    {\n        return _advertisers;\n    }\n\n    function getUsers()\n        public\n        view\n        onlyOwner\n        returns (address[] memory)\n    {\n        return _users;\n    }\n\n    function getTotalUsers()\n        public\n        view\n        returns (uint256)\n    {\n        return _users.length;\n    }\n\n    function getPosters()\n        public\n        view\n        returns (address[] memory)\n    {\n        return _posters;\n    }\n\n    function getTotalPosters()\n        public\n        view\n        returns (uint256)\n    {\n        return _posters.length;\n    }\n\n\n    /**\n    * a post may contain many likes, one -> many\n    * one like per user per post\n    */\n    function setLike(uint256 post, address poster, address user)\n        public\n        payable\n        isUser(user)\n        isUser(poster)\n    {\n        likes[user][poster] = post;\n    }\n\n    function setDislike(uint256 post, address poster, address user)\n        public\n        payable\n        isUser(user)\n        isUser(poster)\n    {\n        dislikes[user][poster] = post;\n    }\n\n    function getLikes(address user, address poster)\n        public\n        view\n        isUser(user)\n        isUser(poster)\n        returns (uint256)\n    {\n        return likes[user][poster];\n    }\n\n    function getDislikes(address user, address poster)\n        public\n        view\n        isUser(user)\n        isUser(poster)\n        returns (uint256)\n    {\n        return dislikes[user][poster];\n    }\n\n    /**\n     * Followers\n     */\n    function addFollower(address user)\n        public\n        payable\n        isUser(msg.sender)\n        isUser(user)\n    {\n        followers[msg.sender] = user;\n        emit FollowerAdded(msg.sender, user);\n    }\n\n    function getFollowers()\n        public\n        view\n        isUser(msg.sender)\n        returns (address)\n    {\n        return followers[msg.sender];\n    }\n\n    // Friend Request\n    function addFriendRequest(address user)\n        public\n        payable\n        isUser(msg.sender)\n        isUser(user)\n    {\n        bool found1 = false;\n        bool found2 = false;\n        for (uint i = 0; i < _friends.length; i++) {\n            if (_friends[i] == user) {\n                found1 = true;\n            }\n            if (_friends[1] == msg.sender) {\n                found2 = true;\n            }\n        }\n        if (found1) {\n            _friends.push(user);\n        }\n        if (found2) {\n            _friends.push(msg.sender);\n        }\n        friend_request[user][msg.sender] = true;\n        friend_request[msg.sender][user] = true;\n        emit FriendRequestAdded(msg.sender,user);\n    }\n\n    function getTotalFriendRequest()\n        public\n        view\n        returns (uint256)\n    {\n        uint total = 0;\n        for (uint i = 0; i < _friends.length; i++) {\n            if (friend_request[msg.sender][_friends[i]]) {\n                total++;\n            }\n        }\n        return total;\n    }\n\n    function getFriends()\n        public\n        view\n        returns (address[] memory)\n    {\n        return _friends;\n    }\n\n    function getFriendRequest()\n        public\n        view\n        isUser(msg.sender)\n        returns (string memory)\n    {\n        string memory output = \"\";\n        for (uint i = 0; i < _friends.length; i++) {\n            if (friend_request[msg.sender][_friends[i]]) {\n                output = string(abi.encodePacked(_friends[1]));\n            }\n        }\n        return output;\n    }\n}\n",
  "sourcePath": "G:\\projects\\pingleware-contracts\\contracts\\social\\SocialNetwork.sol",
  "compiler": {
    "name": "solc",
    "version": "0.8.10+commit.fc410830.Emscripten.clang"
  },
  "schemaVersion": "3.4.3",
  "updatedAt": "2021-12-24T16:15:20.620Z",
  "devdoc": {
    "kind": "dev",
    "methods": {},
    "version": 1
  },
  "userdoc": {
    "kind": "user",
    "methods": {
      "addFollower(address)": {
        "notice": "Followers"
      },
      "setLike(uint256,address,address)": {
        "notice": "a post may contain many likes, one -> many one like per user per post"
      },
      "updateUserMeta(string,string,string,string,string)": {
        "notice": "interests is comma dellimited string, e.g. \"girls,technology,stage plays\""
      }
    },
    "version": 1
  }
}