{
  "contractName": "SocialNetwork",
  "abi": [
    {
      "inputs": [],
      "stateMutability": "payable",
      "type": "constructor"
    },
    {
      "anonymous": false,
      "inputs": [
        {
          "indexed": false,
          "internalType": "address",
          "name": "sender",
          "type": "address"
        }
      ],
      "name": "AdvertiserAdded",
      "type": "event"
    },
    {
      "anonymous": false,
      "inputs": [
        {
          "indexed": false,
          "internalType": "address",
          "name": "sender",
          "type": "address"
        },
        {
          "indexed": false,
          "internalType": "address",
          "name": "spender",
          "type": "address"
        },
        {
          "indexed": false,
          "internalType": "uint256",
          "name": "amount",
          "type": "uint256"
        }
      ],
      "name": "Approval",
      "type": "event"
    },
    {
      "anonymous": false,
      "inputs": [
        {
          "indexed": false,
          "internalType": "address",
          "name": "sender",
          "type": "address"
        },
        {
          "indexed": false,
          "internalType": "address",
          "name": "user",
          "type": "address"
        },
        {
          "indexed": false,
          "internalType": "string",
          "name": "comment",
          "type": "string"
        }
      ],
      "name": "CommentAdded",
      "type": "event"
    },
    {
      "anonymous": false,
      "inputs": [
        {
          "indexed": false,
          "internalType": "address",
          "name": "sender",
          "type": "address"
        },
        {
          "indexed": false,
          "internalType": "address",
          "name": "follower",
          "type": "address"
        }
      ],
      "name": "FollowerAdded",
      "type": "event"
    },
    {
      "anonymous": false,
      "inputs": [
        {
          "indexed": false,
          "internalType": "address",
          "name": "sender",
          "type": "address"
        },
        {
          "indexed": false,
          "internalType": "address",
          "name": "user",
          "type": "address"
        }
      ],
      "name": "FriendRequestAdded",
      "type": "event"
    },
    {
      "anonymous": false,
      "inputs": [
        {
          "indexed": true,
          "internalType": "address",
          "name": "_to",
          "type": "address"
        },
        {
          "indexed": true,
          "internalType": "uint256",
          "name": "_tokenId",
          "type": "uint256"
        },
        {
          "indexed": false,
          "internalType": "bytes32",
          "name": "_ipfsHash",
          "type": "bytes32"
        }
      ],
      "name": "Mint",
      "type": "event"
    },
    {
      "anonymous": false,
      "inputs": [
        {
          "indexed": false,
          "internalType": "address",
          "name": "sender",
          "type": "address"
        },
        {
          "indexed": false,
          "internalType": "string",
          "name": "message",
          "type": "string"
        }
      ],
      "name": "PostAdded",
      "type": "event"
    },
    {
      "anonymous": false,
      "inputs": [
        {
          "indexed": false,
          "internalType": "address",
          "name": "sender",
          "type": "address"
        },
        {
          "indexed": false,
          "internalType": "address",
          "name": "recipient",
          "type": "address"
        },
        {
          "indexed": false,
          "internalType": "uint256",
          "name": "amount",
          "type": "uint256"
        }
      ],
      "name": "Transfer",
      "type": "event"
    },
    {
      "anonymous": false,
      "inputs": [
        {
          "indexed": false,
          "internalType": "address",
          "name": "sender",
          "type": "address"
        }
      ],
      "name": "UserAdded",
      "type": "event"
    },
    {
      "inputs": [],
      "name": "VERSION",
      "outputs": [
        {
          "internalType": "string",
          "name": "",
          "type": "string"
        }
      ],
      "stateMutability": "view",
      "type": "function"
    },
    {
      "inputs": [],
      "name": "_owner",
      "outputs": [
        {
          "internalType": "address",
          "name": "",
          "type": "address"
        }
      ],
      "stateMutability": "view",
      "type": "function"
    },
    {
      "inputs": [],
      "name": "_totalSupply",
      "outputs": [
        {
          "internalType": "uint256",
          "name": "",
          "type": "uint256"
        }
      ],
      "stateMutability": "view",
      "type": "function"
    },
    {
      "inputs": [],
      "name": "name",
      "outputs": [
        {
          "internalType": "string",
          "name": "",
          "type": "string"
        }
      ],
      "stateMutability": "view",
      "type": "function"
    },
    {
      "inputs": [],
      "name": "symbol",
      "outputs": [
        {
          "internalType": "string",
          "name": "",
          "type": "string"
        }
      ],
      "stateMutability": "view",
      "type": "function"
    },
    {
      "inputs": [],
      "name": "getContractBalance",
      "outputs": [
        {
          "internalType": "uint256",
          "name": "",
          "type": "uint256"
        }
      ],
      "stateMutability": "view",
      "type": "function"
    },
    {
      "inputs": [],
      "name": "getOwner",
      "outputs": [
        {
          "internalType": "address",
          "name": "",
          "type": "address"
        }
      ],
      "stateMutability": "view",
      "type": "function"
    },
    {
      "inputs": [],
      "name": "getUserRole",
      "outputs": [
        {
          "internalType": "string",
          "name": "",
          "type": "string"
        }
      ],
      "stateMutability": "view",
      "type": "function"
    },
    {
      "inputs": [],
      "name": "totalSupply",
      "outputs": [
        {
          "internalType": "uint256",
          "name": "",
          "type": "uint256"
        }
      ],
      "stateMutability": "view",
      "type": "function"
    },
    {
      "inputs": [
        {
          "internalType": "address",
          "name": "account",
          "type": "address"
        }
      ],
      "name": "balanceOf",
      "outputs": [
        {
          "internalType": "uint256",
          "name": "",
          "type": "uint256"
        }
      ],
      "stateMutability": "view",
      "type": "function"
    },
    {
      "inputs": [
        {
          "internalType": "address",
          "name": "owner",
          "type": "address"
        },
        {
          "internalType": "address",
          "name": "spender",
          "type": "address"
        }
      ],
      "name": "allowance",
      "outputs": [
        {
          "internalType": "uint256",
          "name": "",
          "type": "uint256"
        }
      ],
      "stateMutability": "view",
      "type": "function"
    },
    {
      "inputs": [
        {
          "internalType": "address",
          "name": "recipient",
          "type": "address"
        },
        {
          "internalType": "uint256",
          "name": "amount",
          "type": "uint256"
        }
      ],
      "name": "transfer",
      "outputs": [
        {
          "internalType": "bool",
          "name": "",
          "type": "bool"
        }
      ],
      "stateMutability": "nonpayable",
      "type": "function"
    },
    {
      "inputs": [
        {
          "internalType": "address",
          "name": "spender",
          "type": "address"
        },
        {
          "internalType": "uint256",
          "name": "amount",
          "type": "uint256"
        }
      ],
      "name": "approve",
      "outputs": [
        {
          "internalType": "bool",
          "name": "",
          "type": "bool"
        }
      ],
      "stateMutability": "nonpayable",
      "type": "function"
    },
    {
      "inputs": [
        {
          "internalType": "address",
          "name": "sender",
          "type": "address"
        },
        {
          "internalType": "address",
          "name": "recipient",
          "type": "address"
        },
        {
          "internalType": "uint256",
          "name": "amount",
          "type": "uint256"
        }
      ],
      "name": "transferFrom",
      "outputs": [
        {
          "internalType": "bool",
          "name": "",
          "type": "bool"
        }
      ],
      "stateMutability": "nonpayable",
      "type": "function"
    },
    {
      "inputs": [],
      "name": "addUser",
      "outputs": [],
      "stateMutability": "payable",
      "type": "function"
    },
    {
      "inputs": [
        {
          "internalType": "uint256",
          "name": "epoch",
          "type": "uint256"
        },
        {
          "internalType": "bool",
          "name": "visible",
          "type": "bool"
        },
        {
          "internalType": "string",
          "name": "content",
          "type": "string"
        }
      ],
      "name": "addPostv2",
      "outputs": [],
      "stateMutability": "payable",
      "type": "function"
    },
    {
      "inputs": [],
      "name": "getPostsv2",
      "outputs": [
        {
          "components": [
            {
              "internalType": "uint256",
              "name": "epoch",
              "type": "uint256"
            },
            {
              "internalType": "bool",
              "name": "visible",
              "type": "bool"
            },
            {
              "internalType": "string",
              "name": "content",
              "type": "string"
            }
          ],
          "internalType": "struct SocialNetwork.Post[]",
          "name": "",
          "type": "tuple[]"
        }
      ],
      "stateMutability": "view",
      "type": "function"
    },
    {
      "inputs": [],
      "name": "getTotalPostsv2",
      "outputs": [
        {
          "internalType": "uint256",
          "name": "",
          "type": "uint256"
        }
      ],
      "stateMutability": "view",
      "type": "function"
    },
    {
      "inputs": [
        {
          "internalType": "string",
          "name": "message",
          "type": "string"
        }
      ],
      "name": "addPostByOwner",
      "outputs": [],
      "stateMutability": "nonpayable",
      "type": "function"
    },
    {
      "inputs": [
        {
          "internalType": "string",
          "name": "message",
          "type": "string"
        }
      ],
      "name": "addPost",
      "outputs": [
        {
          "internalType": "uint256",
          "name": "",
          "type": "uint256"
        }
      ],
      "stateMutability": "payable",
      "type": "function"
    },
    {
      "inputs": [],
      "name": "getTotalPosts",
      "outputs": [
        {
          "internalType": "uint256",
          "name": "",
          "type": "uint256"
        }
      ],
      "stateMutability": "view",
      "type": "function"
    },
    {
      "inputs": [
        {
          "internalType": "uint256",
          "name": "index",
          "type": "uint256"
        }
      ],
      "name": "getPosts",
      "outputs": [
        {
          "internalType": "string",
          "name": "",
          "type": "string"
        }
      ],
      "stateMutability": "view",
      "type": "function"
    },
    {
      "inputs": [],
      "name": "getAllPosts",
      "outputs": [
        {
          "internalType": "string",
          "name": "",
          "type": "string"
        }
      ],
      "stateMutability": "view",
      "type": "function"
    },
    {
      "inputs": [
        {
          "internalType": "address",
          "name": "poster",
          "type": "address"
        },
        {
          "internalType": "uint256",
          "name": "index",
          "type": "uint256"
        },
        {
          "internalType": "string",
          "name": "message",
          "type": "string"
        }
      ],
      "name": "addComment",
      "outputs": [],
      "stateMutability": "payable",
      "type": "function"
    },
    {
      "inputs": [
        {
          "internalType": "address",
          "name": "poster",
          "type": "address"
        }
      ],
      "name": "getCommentTotal",
      "outputs": [
        {
          "internalType": "uint256",
          "name": "",
          "type": "uint256"
        }
      ],
      "stateMutability": "view",
      "type": "function"
    },
    {
      "inputs": [
        {
          "internalType": "address",
          "name": "poster",
          "type": "address"
        },
        {
          "internalType": "uint256",
          "name": "index",
          "type": "uint256"
        }
      ],
      "name": "getComment",
      "outputs": [
        {
          "internalType": "string",
          "name": "",
          "type": "string"
        }
      ],
      "stateMutability": "view",
      "type": "function"
    },
    {
      "inputs": [
        {
          "internalType": "address",
          "name": "poster",
          "type": "address"
        }
      ],
      "name": "getCommentsForPoster",
      "outputs": [
        {
          "internalType": "string",
          "name": "",
          "type": "string"
        }
      ],
      "stateMutability": "view",
      "type": "function"
    },
    {
      "inputs": [],
      "name": "getAllComments",
      "outputs": [
        {
          "internalType": "string",
          "name": "",
          "type": "string"
        }
      ],
      "stateMutability": "view",
      "type": "function"
    },
    {
      "inputs": [
        {
          "internalType": "string",
          "name": "profession",
          "type": "string"
        },
        {
          "internalType": "string",
          "name": "location",
          "type": "string"
        },
        {
          "internalType": "string",
          "name": "dob",
          "type": "string"
        },
        {
          "internalType": "string",
          "name": "interests",
          "type": "string"
        }
      ],
      "name": "updateUserMeta",
      "outputs": [],
      "stateMutability": "payable",
      "type": "function"
    },
    {
      "inputs": [],
      "name": "addAdvertiser",
      "outputs": [],
      "stateMutability": "payable",
      "type": "function"
    },
    {
      "inputs": [
        {
          "internalType": "string",
          "name": "message",
          "type": "string"
        }
      ],
      "name": "newAdvertisement",
      "outputs": [],
      "stateMutability": "payable",
      "type": "function"
    },
    {
      "inputs": [],
      "name": "getAdvertisers",
      "outputs": [
        {
          "internalType": "address[]",
          "name": "",
          "type": "address[]"
        }
      ],
      "stateMutability": "view",
      "type": "function"
    },
    {
      "inputs": [],
      "name": "getUsers",
      "outputs": [
        {
          "internalType": "address[]",
          "name": "",
          "type": "address[]"
        }
      ],
      "stateMutability": "view",
      "type": "function"
    },
    {
      "inputs": [],
      "name": "getTotalUsers",
      "outputs": [
        {
          "internalType": "uint256",
          "name": "",
          "type": "uint256"
        }
      ],
      "stateMutability": "view",
      "type": "function"
    },
    {
      "inputs": [],
      "name": "getPosters",
      "outputs": [
        {
          "internalType": "address[]",
          "name": "",
          "type": "address[]"
        }
      ],
      "stateMutability": "view",
      "type": "function"
    },
    {
      "inputs": [],
      "name": "getTotalPosters",
      "outputs": [
        {
          "internalType": "uint256",
          "name": "",
          "type": "uint256"
        }
      ],
      "stateMutability": "view",
      "type": "function"
    },
    {
      "inputs": [
        {
          "internalType": "uint256",
          "name": "post",
          "type": "uint256"
        },
        {
          "internalType": "address",
          "name": "poster",
          "type": "address"
        },
        {
          "internalType": "address",
          "name": "user",
          "type": "address"
        }
      ],
      "name": "setLike",
      "outputs": [],
      "stateMutability": "payable",
      "type": "function"
    },
    {
      "inputs": [
        {
          "internalType": "uint256",
          "name": "post",
          "type": "uint256"
        },
        {
          "internalType": "address",
          "name": "poster",
          "type": "address"
        },
        {
          "internalType": "address",
          "name": "user",
          "type": "address"
        }
      ],
      "name": "setDislike",
      "outputs": [],
      "stateMutability": "payable",
      "type": "function"
    },
    {
      "inputs": [
        {
          "internalType": "address",
          "name": "user",
          "type": "address"
        },
        {
          "internalType": "address",
          "name": "poster",
          "type": "address"
        }
      ],
      "name": "getLikes",
      "outputs": [
        {
          "internalType": "uint256",
          "name": "",
          "type": "uint256"
        }
      ],
      "stateMutability": "view",
      "type": "function"
    },
    {
      "inputs": [
        {
          "internalType": "address",
          "name": "user",
          "type": "address"
        },
        {
          "internalType": "address",
          "name": "poster",
          "type": "address"
        }
      ],
      "name": "getDislikes",
      "outputs": [
        {
          "internalType": "uint256",
          "name": "",
          "type": "uint256"
        }
      ],
      "stateMutability": "view",
      "type": "function"
    },
    {
      "inputs": [
        {
          "internalType": "address",
          "name": "user",
          "type": "address"
        }
      ],
      "name": "addFollower",
      "outputs": [],
      "stateMutability": "payable",
      "type": "function"
    },
    {
      "inputs": [],
      "name": "getFollowers",
      "outputs": [
        {
          "internalType": "address",
          "name": "",
          "type": "address"
        }
      ],
      "stateMutability": "view",
      "type": "function"
    },
    {
      "inputs": [
        {
          "internalType": "address",
          "name": "user",
          "type": "address"
        }
      ],
      "name": "addFriendRequest",
      "outputs": [],
      "stateMutability": "payable",
      "type": "function"
    },
    {
      "inputs": [],
      "name": "getTotalFriendRequest",
      "outputs": [
        {
          "internalType": "uint256",
          "name": "",
          "type": "uint256"
        }
      ],
      "stateMutability": "view",
      "type": "function"
    },
    {
      "inputs": [],
      "name": "getFriends",
      "outputs": [
        {
          "internalType": "address[]",
          "name": "",
          "type": "address[]"
        }
      ],
      "stateMutability": "view",
      "type": "function"
    },
    {
      "inputs": [],
      "name": "getFriendRequest",
      "outputs": [
        {
          "internalType": "string",
          "name": "",
          "type": "string"
        }
      ],
      "stateMutability": "view",
      "type": "function"
    }
  ],
  "bytecode": "0x6080604052615bc2806100136000396000f3fe60806040526004361061027c5760003560e01c8063923ab6d21161014f578063b84e6621116100c1578063dd62ed3e1161007a578063dd62ed3e14610945578063ebf86ee814610982578063ec547d80146109ad578063f2db450e146109d8578063f61aa6f014610a15578063ffa1ad7414610a1f5761027c565b8063b84e66211461084f578063badd239e1461088c578063bf04a10d146108b7578063ceeac5d4146108e2578063d2ab4873146108fe578063dbb36cd21461091a5761027c565b8063a632281911610113578063a632281914610763578063a9059cbb14610793578063aae741c4146107d0578063ad7fea78146107ec578063af9bcca414610808578063b2bdfa7b146108245761027c565b8063923ab6d21461068957806395d89b41146106b457806395fa7373146106df5780639be572f6146106fb5780639e4483f4146107265761027c565b80633b3a3934116101f3578063672c1b05116101ac578063672c1b05146105515780636f9fb98a1461058e57806370a08231146105b95780638814e79e146105f6578063893d20e8146106215780638d3882451461064c5761027c565b80633b3a3934146104815780633eaaf86b146104ac578063455c928c146104d757806359b55de4146104e15780635f0e4f7b146104fd5780635fe226b4146105265761027c565b806318160ddd1161024557806318160ddd1461036a5780631d45cddc146103955780631f8f7270146103d257806323b872dd146103fd578063305611001461043a57806335ce530c146104655761027c565b8062ce8e3e1461028157806306fdde03146102ac578063095ea7b3146102d75780630d79f56114610314578063104409041461033f575b600080fd5b34801561028d57600080fd5b50610296610a4a565b6040516102a3919061498b565b60405180910390f35b3480156102b857600080fd5b506102c1610b68565b6040516102ce9190614a46565b60405180910390f35b3480156102e357600080fd5b506102fe60048036038101906102f99190614ade565b610bf6565b60405161030b9190614b39565b60405180910390f35b34801561032057600080fd5b50610329610d2d565b6040516103369190614b63565b60405180910390f35b34801561034b57600080fd5b50610354610e19565b6040516103619190614a46565b60405180910390f35b34801561037657600080fd5b5061037f611162565b60405161038c9190614b8d565b60405180910390f35b3480156103a157600080fd5b506103bc60048036038101906103b79190614ba8565b61116c565b6040516103c99190614a46565b60405180910390f35b3480156103de57600080fd5b506103e76112dd565b6040516103f4919061498b565b60405180910390f35b34801561040957600080fd5b50610424600480360381019061041f9190614bd5565b61136b565b6040516104319190614b39565b60405180910390f35b34801561044657600080fd5b5061044f6116b8565b60405161045c9190614a46565b60405180910390f35b61047f600480360381019061047a9190614d89565b611950565b005b34801561048d57600080fd5b50610496611aae565b6040516104a3919061498b565b60405180910390f35b3480156104b857600080fd5b506104c1611b3c565b6040516104ce9190614b8d565b60405180910390f35b6104df611b42565b005b6104fb60048036038101906104f69190614df8565b611d7e565b005b34801561050957600080fd5b50610524600480360381019061051f9190614e4b565b611f0e565b005b34801561053257600080fd5b5061053b61201a565b6040516105489190614b8d565b60405180910390f35b34801561055d57600080fd5b5061057860048036038101906105739190614e94565b612064565b6040516105859190614a46565b60405180910390f35b34801561059a57600080fd5b506105a3612356565b6040516105b09190614b8d565b60405180910390f35b3480156105c557600080fd5b506105e060048036038101906105db9190614e94565b6123ee565b6040516105ed9190614b8d565b60405180910390f35b34801561060257600080fd5b5061060b612437565b6040516106189190614b8d565b60405180910390f35b34801561062d57600080fd5b50610636612506565b6040516106439190614b63565b60405180910390f35b34801561065857600080fd5b50610673600480360381019061066e9190614ec1565b612530565b6040516106809190614b8d565b60405180910390f35b34801561069557600080fd5b5061069e6126c1565b6040516106ab9190614b8d565b60405180910390f35b3480156106c057600080fd5b506106c96127cf565b6040516106d69190614a46565b60405180910390f35b6106f960048036038101906106f49190614f01565b61285d565b005b34801561070757600080fd5b50610710612940565b60405161071d9190614b8d565b60405180910390f35b34801561073257600080fd5b5061074d60048036038101906107489190614ec1565b61294d565b60405161075a9190614b8d565b60405180910390f35b61077d60048036038101906107789190614e4b565b612ade565b60405161078a9190614b8d565b60405180910390f35b34801561079f57600080fd5b506107ba60048036038101906107b59190614ade565b612d6d565b6040516107c79190614b39565b60405180910390f35b6107ea60048036038101906107e59190614fd8565b612fc1565b005b61080660048036038101906108019190614e94565b6133a5565b005b610822600480360381019061081d9190614df8565b613801565b005b34801561083057600080fd5b50610839613991565b6040516108469190614b63565b60405180910390f35b34801561085b57600080fd5b5061087660048036038101906108719190614e94565b6139b7565b6040516108839190614b8d565b60405180910390f35b34801561089857600080fd5b506108a1613a03565b6040516108ae91906151c1565b60405180910390f35b3480156108c357600080fd5b506108cc613bdb565b6040516108d99190614a46565b60405180910390f35b6108fc60048036038101906108f79190614e94565b613db4565b005b61091860048036038101906109139190614e4b565b613f78565b005b34801561092657600080fd5b5061092f614052565b60405161093c9190614a46565b60405180910390f35b34801561095157600080fd5b5061096c60048036038101906109679190614ec1565b614247565b6040516109799190614b8d565b60405180910390f35b34801561098e57600080fd5b506109976142db565b6040516109a49190614b8d565b60405180910390f35b3480156109b957600080fd5b506109c26142e8565b6040516109cf919061498b565b60405180910390f35b3480156109e457600080fd5b506109ff60048036038101906109fa9190614ade565b614406565b604051610a0c9190614a46565b60405180910390f35b610a1d61466e565b005b348015610a2b57600080fd5b50610a346147bf565b604051610a419190614a46565b60405180910390f35b6060600560009054906101000a900473ffffffffffffffffffffffffffffffffffffffff1673ffffffffffffffffffffffffffffffffffffffff163373ffffffffffffffffffffffffffffffffffffffff1614610adc576040517f08c379a0000000000000000000000000000000000000000000000000000000008152600401610ad39061522f565b60405180910390fd5b6014805480602002602001604051908101604052809291908181526020018280548015610b5e57602002820191906000526020600020905b8160009054906101000a900473ffffffffffffffffffffffffffffffffffffffff1673ffffffffffffffffffffffffffffffffffffffff1681526020019060010190808311610b14575b5050505050905090565b60008054610b759061527e565b80601f0160208091040260200160405190810160405280929190818152602001828054610ba19061527e565b8015610bee5780601f10610bc357610100808354040283529160200191610bee565b820191906000526020600020905b815481529060010190602001808311610bd157829003601f168201915b505050505081565b60008073ffffffffffffffffffffffffffffffffffffffff168373ffffffffffffffffffffffffffffffffffffffff161415610c67576040517f08c379a0000000000000000000000000000000000000000000000000000000008152600401610c5e906152fc565b60405180910390fd5b81600460003373ffffffffffffffffffffffffffffffffffffffff1673ffffffffffffffffffffffffffffffffffffffff16815260200190815260200160002060008573ffffffffffffffffffffffffffffffffffffffff1673ffffffffffffffffffffffffffffffffffffffff168152602001908152602001600020819055507f8c5be1e5ebec7d5bd14f71427d1e84f3dd0314c0f7b2291e5b200ac8c7c3b925338484604051610d1b9392919061531c565b60405180910390a16001905092915050565b6000336000600760008373ffffffffffffffffffffffffffffffffffffffff1673ffffffffffffffffffffffffffffffffffffffff168152602001908152602001600020541415610db3576040517f08c379a0000000000000000000000000000000000000000000000000000000008152600401610daa9061539f565b60405180910390fd5b601060003373ffffffffffffffffffffffffffffffffffffffff1673ffffffffffffffffffffffffffffffffffffffff16815260200190815260200160002060009054906101000a900473ffffffffffffffffffffffffffffffffffffffff1691505090565b6060600560009054906101000a900473ffffffffffffffffffffffffffffffffffffffff1673ffffffffffffffffffffffffffffffffffffffff163373ffffffffffffffffffffffffffffffffffffffff1614610eab576040517f08c379a0000000000000000000000000000000000000000000000000000000008152600401610ea29061522f565b60405180910390fd5b60006040518060200160405280600081525090506000600b805490509050600081111561115a5760005b81811015611158576000600b8281548110610ef357610ef26153bf565b5b9060005260206000200160009054906101000a900473ffffffffffffffffffffffffffffffffffffffff1690506000600a60008373ffffffffffffffffffffffffffffffffffffffff1673ffffffffffffffffffffffffffffffffffffffff1681526020019081526020016000208054905090506000811115611143578482604051602001610f8392919061550a565b604051602081830303815290604052945060005b8181101561111f5785600a60008573ffffffffffffffffffffffffffffffffffffffff1673ffffffffffffffffffffffffffffffffffffffff1681526020019081526020016000208281548110610ff157610ff06153bf565b5b906000526020600020906003020160010154600a60008673ffffffffffffffffffffffffffffffffffffffff1673ffffffffffffffffffffffffffffffffffffffff1681526020019081526020016000208381548110611054576110536153bf565b5b906000526020600020906003020160000160009054906101000a900473ffffffffffffffffffffffffffffffffffffffff16600a60008773ffffffffffffffffffffffffffffffffffffffff1673ffffffffffffffffffffffffffffffffffffffff16815260200190815260200160002084815481106110d7576110d66153bf565b5b90600052602060002090600302016002016040516020016110fb9493929190615695565b6040516020818303038152906040529550808061111790615720565b915050610f97565b508460405160200161113191906157b5565b60405160208183030381529060405294505b5050808061115090615720565b915050610ed5565b505b819250505090565b6000600254905090565b6060600860003373ffffffffffffffffffffffffffffffffffffffff1673ffffffffffffffffffffffffffffffffffffffff1681526020019081526020016000208054905082106111f2576040517f08c379a00000000000000000000000000000000000000000000000000000000081526004016111e990615823565b60405180910390fd5b600860003373ffffffffffffffffffffffffffffffffffffffff1673ffffffffffffffffffffffffffffffffffffffff1681526020019081526020016000208281548110611243576112426153bf565b5b9060005260206000200180546112589061527e565b80601f01602080910402602001604051908101604052809291908181526020018280546112849061527e565b80156112d15780601f106112a6576101008083540402835291602001916112d1565b820191906000526020600020905b8154815290600101906020018083116112b457829003601f168201915b50505050509050919050565b6060601380548060200260200160405190810160405280929190818152602001828054801561136157602002820191906000526020600020905b8160009054906101000a900473ffffffffffffffffffffffffffffffffffffffff1673ffffffffffffffffffffffffffffffffffffffff1681526020019060010190808311611317575b5050505050905090565b60008073ffffffffffffffffffffffffffffffffffffffff168473ffffffffffffffffffffffffffffffffffffffff1614156113dc576040517f08c379a00000000000000000000000000000000000000000000000000000000081526004016113d3906152fc565b60405180910390fd5b600073ffffffffffffffffffffffffffffffffffffffff168373ffffffffffffffffffffffffffffffffffffffff16141561144c576040517f08c379a00000000000000000000000000000000000000000000000000000000081526004016114439061588f565b60405180910390fd5b81600f60008673ffffffffffffffffffffffffffffffffffffffff1673ffffffffffffffffffffffffffffffffffffffff1681526020019081526020016000205410158015611517575081600460008673ffffffffffffffffffffffffffffffffffffffff1673ffffffffffffffffffffffffffffffffffffffff16815260200190815260200160002060003373ffffffffffffffffffffffffffffffffffffffff1673ffffffffffffffffffffffffffffffffffffffff1681526020019081526020016000205410155b80156115235750600082115b80156115b75750600f60008473ffffffffffffffffffffffffffffffffffffffff1673ffffffffffffffffffffffffffffffffffffffff1681526020019081526020016000205482600f60008673ffffffffffffffffffffffffffffffffffffffff1673ffffffffffffffffffffffffffffffffffffffff168152602001908152602001600020546115b591906158af565b115b156116ac5781600f60008673ffffffffffffffffffffffffffffffffffffffff1673ffffffffffffffffffffffffffffffffffffffff168152602001908152602001600020600082825461160b9190615905565b9250508190555081600f60008573ffffffffffffffffffffffffffffffffffffffff1673ffffffffffffffffffffffffffffffffffffffff168152602001908152602001600020600082825461166191906158af565b925050819055507fddf252ad1be2c89b69c2b068fc378daa952ba7f163c4a11628f55a4df523b3ef84848460405161169b9392919061531c565b60405180910390a1600190506116b1565b600090505b9392505050565b6060600560009054906101000a900473ffffffffffffffffffffffffffffffffffffffff1673ffffffffffffffffffffffffffffffffffffffff163373ffffffffffffffffffffffffffffffffffffffff161461174a576040517f08c379a00000000000000000000000000000000000000000000000000000000081526004016117419061522f565b60405180910390fd5b60006040518060200160405280600081525090506000600980549050905060005b8181101561194757600060098281548110611789576117886153bf565b5b9060005260206000200160009054906101000a900473ffffffffffffffffffffffffffffffffffffffff1690506000600860008373ffffffffffffffffffffffffffffffffffffffff1673ffffffffffffffffffffffffffffffffffffffff168152602001908152602001600020805480602002602001604051908101604052809291908181526020016000905b828210156118c35783829060005260206000200180546118369061527e565b80601f01602080910402602001604051908101604052809291908181526020018280546118629061527e565b80156118af5780601f10611884576101008083540402835291602001916118af565b820191906000526020600020905b81548152906001019060200180831161189257829003601f168201915b505050505081526020019060010190611817565b5050505090506000815111156119325760005b815181101561193057858282815181106118f3576118f26153bf565b5b602002602001015160405160200161190c929190615939565b6040516020818303038152906040529550808061192890615720565b9150506118d6565b505b5050808061193f90615720565b91505061176b565b50819250505090565b336000600760008373ffffffffffffffffffffffffffffffffffffffff1673ffffffffffffffffffffffffffffffffffffffff1681526020019081526020016000205414156119d4576040517f08c379a00000000000000000000000000000000000000000000000000000000081526004016119cb9061539f565b60405180910390fd5b600060405180606001604052808681526020018515158152602001848152509050600660003373ffffffffffffffffffffffffffffffffffffffff1673ffffffffffffffffffffffffffffffffffffffff1681526020019081526020016000208190806001815401808255809150506001900390600052602060002090600302016000909190919091506000820151816000015560208201518160010160006101000a81548160ff0219169083151502179055506040820151816002019080519060200190611aa49291906147f8565b5050505050505050565b60606009805480602002602001604051908101604052809291908181526020018280548015611b3257602002820191906000526020600020905b8160009054906101000a900473ffffffffffffffffffffffffffffffffffffffff1673ffffffffffffffffffffffffffffffffffffffff1681526020019060010190808311611ae8575b5050505050905090565b60025481565b600073ffffffffffffffffffffffffffffffffffffffff163373ffffffffffffffffffffffffffffffffffffffff161415611bb2576040517f08c379a0000000000000000000000000000000000000000000000000000000008152600401611ba9906159a9565b60405180910390fd5b6000600760003373ffffffffffffffffffffffffffffffffffffffff1673ffffffffffffffffffffffffffffffffffffffff1681526020019081526020016000205414611c34576040517f08c379a0000000000000000000000000000000000000000000000000000000008152600401611c2b90615a15565b60405180910390fd5b6001600760003373ffffffffffffffffffffffffffffffffffffffff1673ffffffffffffffffffffffffffffffffffffffff168152602001908152602001600020819055506014339080600181540180825580915050600190039060005260206000200160009091909190916101000a81548173ffffffffffffffffffffffffffffffffffffffff021916908373ffffffffffffffffffffffffffffffffffffffff1602179055507f19ef9a4877199f89440a26acb26895ec02ed86f2df1aeaa90dc18041b892f71f33604051611d0b9190614b63565b60405180910390a1600560009054906101000a900473ffffffffffffffffffffffffffffffffffffffff1673ffffffffffffffffffffffffffffffffffffffff163373ffffffffffffffffffffffffffffffffffffffff1614611d7c57611d7a333066038d7ea4c6800061136b565b505b565b806000600760008373ffffffffffffffffffffffffffffffffffffffff1673ffffffffffffffffffffffffffffffffffffffff168152602001908152602001600020541415611e02576040517f08c379a0000000000000000000000000000000000000000000000000000000008152600401611df99061539f565b60405180910390fd5b826000600760008373ffffffffffffffffffffffffffffffffffffffff1673ffffffffffffffffffffffffffffffffffffffff168152602001908152602001600020541415611e86576040517f08c379a0000000000000000000000000000000000000000000000000000000008152600401611e7d9061539f565b60405180910390fd5b84600c60008573ffffffffffffffffffffffffffffffffffffffff1673ffffffffffffffffffffffffffffffffffffffff16815260200190815260200160002060008673ffffffffffffffffffffffffffffffffffffffff1673ffffffffffffffffffffffffffffffffffffffff168152602001908152602001600020819055505050505050565b600560009054906101000a900473ffffffffffffffffffffffffffffffffffffffff1673ffffffffffffffffffffffffffffffffffffffff163373ffffffffffffffffffffffffffffffffffffffff1614611f9e576040517f08c379a0000000000000000000000000000000000000000000000000000000008152600401611f959061522f565b60405180910390fd5b600860003373ffffffffffffffffffffffffffffffffffffffff1673ffffffffffffffffffffffffffffffffffffffff168152602001908152602001600020819080600181540180825580915050600190039060005260206000200160009091909190915090805190602001906120169291906147f8565b5050565b6000600860003373ffffffffffffffffffffffffffffffffffffffff1673ffffffffffffffffffffffffffffffffffffffff16815260200190815260200160002080549050905090565b6060600073ffffffffffffffffffffffffffffffffffffffff163373ffffffffffffffffffffffffffffffffffffffff1614156120d6576040517f08c379a00000000000000000000000000000000000000000000000000000000081526004016120cd906159a9565b60405180910390fd5b336000600760008373ffffffffffffffffffffffffffffffffffffffff1673ffffffffffffffffffffffffffffffffffffffff16815260200190815260200160002054141561215a576040517f08c379a00000000000000000000000000000000000000000000000000000000081526004016121519061539f565b60405180910390fd5b60006040518060200160405280600081525090506000600a60008673ffffffffffffffffffffffffffffffffffffffff1673ffffffffffffffffffffffffffffffffffffffff168152602001908152602001600020805490509050600081111561234b5760005b818110156123495782600a60008873ffffffffffffffffffffffffffffffffffffffff1673ffffffffffffffffffffffffffffffffffffffff168152602001908152602001600020828154811061221b5761221a6153bf565b5b906000526020600020906003020160010154600a60008973ffffffffffffffffffffffffffffffffffffffff1673ffffffffffffffffffffffffffffffffffffffff168152602001908152602001600020838154811061227e5761227d6153bf565b5b906000526020600020906003020160000160009054906101000a900473ffffffffffffffffffffffffffffffffffffffff16600a60008a73ffffffffffffffffffffffffffffffffffffffff1673ffffffffffffffffffffffffffffffffffffffff1681526020019081526020016000208481548110612301576123006153bf565b5b90600052602060002090600302016002016040516020016123259493929190615695565b6040516020818303038152906040529250808061234190615720565b9150506121c1565b505b819350505050919050565b6000600560009054906101000a900473ffffffffffffffffffffffffffffffffffffffff1673ffffffffffffffffffffffffffffffffffffffff163373ffffffffffffffffffffffffffffffffffffffff16146123e8576040517f08c379a00000000000000000000000000000000000000000000000000000000081526004016123df9061522f565b60405180910390fd5b47905090565b6000600360008373ffffffffffffffffffffffffffffffffffffffff1673ffffffffffffffffffffffffffffffffffffffff168152602001908152602001600020549050919050565b6000336000600760008373ffffffffffffffffffffffffffffffffffffffff1673ffffffffffffffffffffffffffffffffffffffff1681526020019081526020016000205414156124bd576040517f08c379a00000000000000000000000000000000000000000000000000000000081526004016124b49061539f565b60405180910390fd5b600660003373ffffffffffffffffffffffffffffffffffffffff1673ffffffffffffffffffffffffffffffffffffffff1681526020019081526020016000208054905091505090565b6000600560009054906101000a900473ffffffffffffffffffffffffffffffffffffffff16905090565b6000826000600760008373ffffffffffffffffffffffffffffffffffffffff1673ffffffffffffffffffffffffffffffffffffffff1681526020019081526020016000205414156125b6576040517f08c379a00000000000000000000000000000000000000000000000000000000081526004016125ad9061539f565b60405180910390fd5b826000600760008373ffffffffffffffffffffffffffffffffffffffff1673ffffffffffffffffffffffffffffffffffffffff16815260200190815260200160002054141561263a576040517f08c379a00000000000000000000000000000000000000000000000000000000081526004016126319061539f565b60405180910390fd5b600d60008673ffffffffffffffffffffffffffffffffffffffff1673ffffffffffffffffffffffffffffffffffffffff16815260200190815260200160002060008573ffffffffffffffffffffffffffffffffffffffff1673ffffffffffffffffffffffffffffffffffffffff168152602001908152602001600020549250505092915050565b6000806000905060005b6013805490508110156127c757601160003373ffffffffffffffffffffffffffffffffffffffff1673ffffffffffffffffffffffffffffffffffffffff16815260200190815260200160002060006013838154811061272d5761272c6153bf565b5b9060005260206000200160009054906101000a900473ffffffffffffffffffffffffffffffffffffffff1673ffffffffffffffffffffffffffffffffffffffff1673ffffffffffffffffffffffffffffffffffffffff16815260200190815260200160002060009054906101000a900460ff16156127b45781806127b090615720565b9250505b80806127bf90615720565b9150506126cb565b508091505090565b600180546127dc9061527e565b80601f01602080910402602001604051908101604052809291908181526020018280546128089061527e565b80156128555780601f1061282a57610100808354040283529160200191612855565b820191906000526020600020905b81548152906001019060200180831161283857829003601f168201915b505050505081565b6000604051806080016040528086815260200185815260200184815260200183815250905080600e60003373ffffffffffffffffffffffffffffffffffffffff1673ffffffffffffffffffffffffffffffffffffffff16815260200190815260200160002060008201518160000190805190602001906128de9291906147f8565b5060208201518160010190805190602001906128fb9291906147f8565b5060408201518160020190805190602001906129189291906147f8565b5060608201518160030190805190602001906129359291906147f8565b509050505050505050565b6000601480549050905090565b6000826000600760008373ffffffffffffffffffffffffffffffffffffffff1673ffffffffffffffffffffffffffffffffffffffff1681526020019081526020016000205414156129d3576040517f08c379a00000000000000000000000000000000000000000000000000000000081526004016129ca9061539f565b60405180910390fd5b826000600760008373ffffffffffffffffffffffffffffffffffffffff1673ffffffffffffffffffffffffffffffffffffffff168152602001908152602001600020541415612a57576040517f08c379a0000000000000000000000000000000000000000000000000000000008152600401612a4e9061539f565b60405180910390fd5b600c60008673ffffffffffffffffffffffffffffffffffffffff1673ffffffffffffffffffffffffffffffffffffffff16815260200190815260200160002060008573ffffffffffffffffffffffffffffffffffffffff1673ffffffffffffffffffffffffffffffffffffffff168152602001908152602001600020549250505092915050565b60008073ffffffffffffffffffffffffffffffffffffffff163373ffffffffffffffffffffffffffffffffffffffff161415612b4f576040517f08c379a0000000000000000000000000000000000000000000000000000000008152600401612b46906159a9565b60405180910390fd5b6000806009805490501115612bfb5760005b600980549050811015612bf957600073ffffffffffffffffffffffffffffffffffffffff1660098281548110612b9a57612b996153bf565b5b9060005260206000200160009054906101000a900473ffffffffffffffffffffffffffffffffffffffff1673ffffffffffffffffffffffffffffffffffffffff161415612be657600191505b8080612bf190615720565b915050612b61565b505b80612c64576009339080600181540180825580915050600190039060005260206000200160009091909190916101000a81548173ffffffffffffffffffffffffffffffffffffffff021916908373ffffffffffffffffffffffffffffffffffffffff1602179055505b600860003373ffffffffffffffffffffffffffffffffffffffff1673ffffffffffffffffffffffffffffffffffffffff16815260200190815260200160002083908060018154018082558091505060019003906000526020600020016000909190919091509080519060200190612cdc9291906147f8565b507f2b1fb2fd5b8cc2287aa381c51b874b098f9670f8debb7864fa74669c5bb89d893384604051612d0e929190615a35565b60405180910390a16001600860003373ffffffffffffffffffffffffffffffffffffffff1673ffffffffffffffffffffffffffffffffffffffff16815260200190815260200160002080549050612d659190615905565b915050919050565b60008073ffffffffffffffffffffffffffffffffffffffff168373ffffffffffffffffffffffffffffffffffffffff161415612dde576040517f08c379a0000000000000000000000000000000000000000000000000000000008152600401612dd59061588f565b60405180910390fd5b81600f60003373ffffffffffffffffffffffffffffffffffffffff1673ffffffffffffffffffffffffffffffffffffffff1681526020019081526020016000205410158015612e2d5750600082115b8015612ec15750600f60008473ffffffffffffffffffffffffffffffffffffffff1673ffffffffffffffffffffffffffffffffffffffff1681526020019081526020016000205482600f60008673ffffffffffffffffffffffffffffffffffffffff1673ffffffffffffffffffffffffffffffffffffffff16815260200190815260200160002054612ebf91906158af565b115b15612fb65781600f60003373ffffffffffffffffffffffffffffffffffffffff1673ffffffffffffffffffffffffffffffffffffffff1681526020019081526020016000206000828254612f159190615905565b9250508190555081600f60008573ffffffffffffffffffffffffffffffffffffffff1673ffffffffffffffffffffffffffffffffffffffff1681526020019081526020016000206000828254612f6b91906158af565b925050819055507fddf252ad1be2c89b69c2b068fc378daa952ba7f163c4a11628f55a4df523b3ef338484604051612fa59392919061531c565b60405180910390a160019050612fbb565b600090505b92915050565b600073ffffffffffffffffffffffffffffffffffffffff163373ffffffffffffffffffffffffffffffffffffffff161415613031576040517f08c379a0000000000000000000000000000000000000000000000000000000008152600401613028906159a9565b60405180910390fd5b826000600760008373ffffffffffffffffffffffffffffffffffffffff1673ffffffffffffffffffffffffffffffffffffffff1681526020019081526020016000205414156130b5576040517f08c379a00000000000000000000000000000000000000000000000000000000081526004016130ac9061539f565b60405180910390fd5b336000600760008373ffffffffffffffffffffffffffffffffffffffff1673ffffffffffffffffffffffffffffffffffffffff168152602001908152602001600020541415613139576040517f08c379a00000000000000000000000000000000000000000000000000000000081526004016131309061539f565b60405180910390fd5b600080600b8054905011156131e45760005b600b805490508110156131e2578673ffffffffffffffffffffffffffffffffffffffff16600b8281548110613183576131826153bf565b5b9060005260206000200160009054906101000a900473ffffffffffffffffffffffffffffffffffffffff1673ffffffffffffffffffffffffffffffffffffffff1614156131cf57600191505b80806131da90615720565b91505061314b565b505b8061324d57600b869080600181540180825580915050600190039060005260206000200160009091909190916101000a81548173ffffffffffffffffffffffffffffffffffffffff021916908373ffffffffffffffffffffffffffffffffffffffff1602179055505b6000339050600060405180606001604052808373ffffffffffffffffffffffffffffffffffffffff168152602001888152602001878152509050600a60008973ffffffffffffffffffffffffffffffffffffffff1673ffffffffffffffffffffffffffffffffffffffff16815260200190815260200160002081908060018154018082558091505060019003906000526020600020906003020160009091909190915060008201518160000160006101000a81548173ffffffffffffffffffffffffffffffffffffffff021916908373ffffffffffffffffffffffffffffffffffffffff16021790555060208201518160010155604082015181600201908051906020019061335d9291906147f8565b5050507fb82fdd4f7f620f390f63d82d9dbd41fe893abb4fdc05d0b97f164463c896b5f533898860405161339393929190615a65565b60405180910390a15050505050505050565b336000600760008373ffffffffffffffffffffffffffffffffffffffff1673ffffffffffffffffffffffffffffffffffffffff168152602001908152602001600020541415613429576040517f08c379a00000000000000000000000000000000000000000000000000000000081526004016134209061539f565b60405180910390fd5b816000600760008373ffffffffffffffffffffffffffffffffffffffff1673ffffffffffffffffffffffffffffffffffffffff1681526020019081526020016000205414156134ad576040517f08c379a00000000000000000000000000000000000000000000000000000000081526004016134a49061539f565b60405180910390fd5b60008060005b6013805490508110156135c2578573ffffffffffffffffffffffffffffffffffffffff16601382815481106134eb576134ea6153bf565b5b9060005260206000200160009054906101000a900473ffffffffffffffffffffffffffffffffffffffff1673ffffffffffffffffffffffffffffffffffffffff16141561353757600192505b3373ffffffffffffffffffffffffffffffffffffffff166013600181548110613563576135626153bf565b5b9060005260206000200160009054906101000a900473ffffffffffffffffffffffffffffffffffffffff1673ffffffffffffffffffffffffffffffffffffffff1614156135af57600191505b80806135ba90615720565b9150506134b3565b50811561362d576013859080600181540180825580915050600190039060005260206000200160009091909190916101000a81548173ffffffffffffffffffffffffffffffffffffffff021916908373ffffffffffffffffffffffffffffffffffffffff1602179055505b8015613697576013339080600181540180825580915050600190039060005260206000200160009091909190916101000a81548173ffffffffffffffffffffffffffffffffffffffff021916908373ffffffffffffffffffffffffffffffffffffffff1602179055505b6001601160008773ffffffffffffffffffffffffffffffffffffffff1673ffffffffffffffffffffffffffffffffffffffff16815260200190815260200160002060003373ffffffffffffffffffffffffffffffffffffffff1673ffffffffffffffffffffffffffffffffffffffff16815260200190815260200160002060006101000a81548160ff0219169083151502179055506001601160003373ffffffffffffffffffffffffffffffffffffffff1673ffffffffffffffffffffffffffffffffffffffff16815260200190815260200160002060008773ffffffffffffffffffffffffffffffffffffffff1673ffffffffffffffffffffffffffffffffffffffff16815260200190815260200160002060006101000a81548160ff0219169083151502179055507f5bf2433344d289f53021dcde4dde6ab1e6e36f18073a6723a697891251b2405833866040516137f2929190615aa3565b60405180910390a15050505050565b806000600760008373ffffffffffffffffffffffffffffffffffffffff1673ffffffffffffffffffffffffffffffffffffffff168152602001908152602001600020541415613885576040517f08c379a000000000000000000000000000000000000000000000000000000000815260040161387c9061539f565b60405180910390fd5b826000600760008373ffffffffffffffffffffffffffffffffffffffff1673ffffffffffffffffffffffffffffffffffffffff168152602001908152602001600020541415613909576040517f08c379a00000000000000000000000000000000000000000000000000000000081526004016139009061539f565b60405180910390fd5b84600d60008573ffffffffffffffffffffffffffffffffffffffff1673ffffffffffffffffffffffffffffffffffffffff16815260200190815260200160002060008673ffffffffffffffffffffffffffffffffffffffff1673ffffffffffffffffffffffffffffffffffffffff168152602001908152602001600020819055505050505050565b600560009054906101000a900473ffffffffffffffffffffffffffffffffffffffff1681565b6000600a60008373ffffffffffffffffffffffffffffffffffffffff1673ffffffffffffffffffffffffffffffffffffffff168152602001908152602001600020805490509050919050565b6060336000600760008373ffffffffffffffffffffffffffffffffffffffff1673ffffffffffffffffffffffffffffffffffffffff168152602001908152602001600020541415613a89576040517f08c379a0000000000000000000000000000000000000000000000000000000008152600401613a809061539f565b60405180910390fd5b600660003373ffffffffffffffffffffffffffffffffffffffff1673ffffffffffffffffffffffffffffffffffffffff168152602001908152602001600020805480602002602001604051908101604052809291908181526020016000905b82821015613bd15783829060005260206000209060030201604051806060016040529081600082015481526020016001820160009054906101000a900460ff16151515158152602001600282018054613b409061527e565b80601f0160208091040260200160405190810160405280929190818152602001828054613b6c9061527e565b8015613bb95780601f10613b8e57610100808354040283529160200191613bb9565b820191906000526020600020905b815481529060010190602001808311613b9c57829003601f168201915b50505050508152505081526020019060010190613ae8565b5050505091505090565b6060600560009054906101000a900473ffffffffffffffffffffffffffffffffffffffff1673ffffffffffffffffffffffffffffffffffffffff163373ffffffffffffffffffffffffffffffffffffffff161415613c70576040518060400160405280600581526020017f6f776e65720000000000000000000000000000000000000000000000000000008152509050613db1565b6000600760003373ffffffffffffffffffffffffffffffffffffffff1673ffffffffffffffffffffffffffffffffffffffff1681526020019081526020016000205414613cf4576040518060400160405280600481526020017f75736572000000000000000000000000000000000000000000000000000000008152509050613db1565b6000601560003373ffffffffffffffffffffffffffffffffffffffff1673ffffffffffffffffffffffffffffffffffffffff1681526020019081526020016000205414613d78576040518060400160405280600a81526020017f61647665727469736572000000000000000000000000000000000000000000008152509050613db1565b6040518060400160405280600781526020017f756e6b6e6f776e0000000000000000000000000000000000000000000000000081525090505b90565b336000600760008373ffffffffffffffffffffffffffffffffffffffff1673ffffffffffffffffffffffffffffffffffffffff168152602001908152602001600020541415613e38576040517f08c379a0000000000000000000000000000000000000000000000000000000008152600401613e2f9061539f565b60405180910390fd5b816000600760008373ffffffffffffffffffffffffffffffffffffffff1673ffffffffffffffffffffffffffffffffffffffff168152602001908152602001600020541415613ebc576040517f08c379a0000000000000000000000000000000000000000000000000000000008152600401613eb39061539f565b60405180910390fd5b82601060003373ffffffffffffffffffffffffffffffffffffffff1673ffffffffffffffffffffffffffffffffffffffff16815260200190815260200160002060006101000a81548173ffffffffffffffffffffffffffffffffffffffff021916908373ffffffffffffffffffffffffffffffffffffffff1602179055507fd121cae9a793821ccd32032194305278780253c9a60cf99d6411f54becc98f2d3384604051613f6b929190615aa3565b60405180910390a1505050565b6000601560003373ffffffffffffffffffffffffffffffffffffffff1673ffffffffffffffffffffffffffffffffffffffff168152602001908152602001600020541415613ffb576040517f08c379a0000000000000000000000000000000000000000000000000000000008152600401613ff290615b18565b60405180910390fd5b80601760003373ffffffffffffffffffffffffffffffffffffffff1673ffffffffffffffffffffffffffffffffffffffff168152602001908152602001600020908051906020019061404e9291906147f8565b5050565b6060336000600760008373ffffffffffffffffffffffffffffffffffffffff1673ffffffffffffffffffffffffffffffffffffffff1681526020019081526020016000205414156140d8576040517f08c379a00000000000000000000000000000000000000000000000000000000081526004016140cf9061539f565b60405180910390fd5b600060405180602001604052806000815250905060005b60138054905081101561423e57601160003373ffffffffffffffffffffffffffffffffffffffff1673ffffffffffffffffffffffffffffffffffffffff168152602001908152602001600020600060138381548110614151576141506153bf565b5b9060005260206000200160009054906101000a900473ffffffffffffffffffffffffffffffffffffffff1673ffffffffffffffffffffffffffffffffffffffff1673ffffffffffffffffffffffffffffffffffffffff16815260200190815260200160002060009054906101000a900460ff161561422b5760136001815481106141de576141dd6153bf565b5b9060005260206000200160009054906101000a900473ffffffffffffffffffffffffffffffffffffffff166040516020016142199190615b38565b60405160208183030381529060405291505b808061423690615720565b9150506140ef565b50809250505090565b6000600460008473ffffffffffffffffffffffffffffffffffffffff1673ffffffffffffffffffffffffffffffffffffffff16815260200190815260200160002060008373ffffffffffffffffffffffffffffffffffffffff1673ffffffffffffffffffffffffffffffffffffffff168152602001908152602001600020546002546142d39190615905565b905092915050565b6000600980549050905090565b6060600560009054906101000a900473ffffffffffffffffffffffffffffffffffffffff1673ffffffffffffffffffffffffffffffffffffffff163373ffffffffffffffffffffffffffffffffffffffff161461437a576040517f08c379a00000000000000000000000000000000000000000000000000000000081526004016143719061522f565b60405180910390fd5b60168054806020026020016040519081016040528092919081815260200182805480156143fc57602002820191906000526020600020905b8160009054906101000a900473ffffffffffffffffffffffffffffffffffffffff1673ffffffffffffffffffffffffffffffffffffffff16815260200190600101908083116143b2575b5050505050905090565b6060600073ffffffffffffffffffffffffffffffffffffffff163373ffffffffffffffffffffffffffffffffffffffff161415614478576040517f08c379a000000000000000000000000000000000000000000000000000000000815260040161446f906159a9565b60405180910390fd5b336000600760008373ffffffffffffffffffffffffffffffffffffffff1673ffffffffffffffffffffffffffffffffffffffff1681526020019081526020016000205414156144fc576040517f08c379a00000000000000000000000000000000000000000000000000000000081526004016144f39061539f565b60405180910390fd5b600a60008573ffffffffffffffffffffffffffffffffffffffff1673ffffffffffffffffffffffffffffffffffffffff168152602001908152602001600020838154811061454d5761454c6153bf565b5b906000526020600020906003020160010154600a60008673ffffffffffffffffffffffffffffffffffffffff1673ffffffffffffffffffffffffffffffffffffffff16815260200190815260200160002084815481106145b0576145af6153bf565b5b906000526020600020906003020160000160009054906101000a900473ffffffffffffffffffffffffffffffffffffffff16600a60008773ffffffffffffffffffffffffffffffffffffffff1673ffffffffffffffffffffffffffffffffffffffff1681526020019081526020016000208581548110614633576146326153bf565b5b906000526020600020906003020160020160405160200161465693929190615b53565b60405160208183030381529060405291505092915050565b600073ffffffffffffffffffffffffffffffffffffffff163373ffffffffffffffffffffffffffffffffffffffff1614156146de576040517f08c379a00000000000000000000000000000000000000000000000000000000081526004016146d5906159a9565b60405180910390fd5b6001601560003373ffffffffffffffffffffffffffffffffffffffff1673ffffffffffffffffffffffffffffffffffffffff168152602001908152602001600020819055506016339080600181540180825580915050600190039060005260206000200160009091909190916101000a81548173ffffffffffffffffffffffffffffffffffffffff021916908373ffffffffffffffffffffffffffffffffffffffff1602179055507fdfaa8638b087deecf1b1ef43c6d6aa13dafc1d3374bb0e305ac4140f27f4c88f336040516147b59190614b63565b60405180910390a1565b6040518060400160405280600581526020017f312e302e3500000000000000000000000000000000000000000000000000000081525081565b8280546148049061527e565b90600052602060002090601f016020900481019282614826576000855561486d565b82601f1061483f57805160ff191683800117855561486d565b8280016001018555821561486d579182015b8281111561486c578251825591602001919060010190614851565b5b50905061487a919061487e565b5090565b5b8082111561489757600081600090555060010161487f565b5090565b600081519050919050565b600082825260208201905092915050565b6000819050602082019050919050565b600073ffffffffffffffffffffffffffffffffffffffff82169050919050565b60006148f2826148c7565b9050919050565b614902816148e7565b82525050565b600061491483836148f9565b60208301905092915050565b6000602082019050919050565b60006149388261489b565b61494281856148a6565b935061494d836148b7565b8060005b8381101561497e5781516149658882614908565b975061497083614920565b925050600181019050614951565b5085935050505092915050565b600060208201905081810360008301526149a5818461492d565b905092915050565b600081519050919050565b600082825260208201905092915050565b60005b838110156149e75780820151818401526020810190506149cc565b838111156149f6576000848401525b50505050565b6000601f19601f8301169050919050565b6000614a18826149ad565b614a2281856149b8565b9350614a328185602086016149c9565b614a3b816149fc565b840191505092915050565b60006020820190508181036000830152614a608184614a0d565b905092915050565b6000604051905090565b600080fd5b600080fd5b614a85816148e7565b8114614a9057600080fd5b50565b600081359050614aa281614a7c565b92915050565b6000819050919050565b614abb81614aa8565b8114614ac657600080fd5b50565b600081359050614ad881614ab2565b92915050565b60008060408385031215614af557614af4614a72565b5b6000614b0385828601614a93565b9250506020614b1485828601614ac9565b9150509250929050565b60008115159050919050565b614b3381614b1e565b82525050565b6000602082019050614b4e6000830184614b2a565b92915050565b614b5d816148e7565b82525050565b6000602082019050614b786000830184614b54565b92915050565b614b8781614aa8565b82525050565b6000602082019050614ba26000830184614b7e565b92915050565b600060208284031215614bbe57614bbd614a72565b5b6000614bcc84828501614ac9565b91505092915050565b600080600060608486031215614bee57614bed614a72565b5b6000614bfc86828701614a93565b9350506020614c0d86828701614a93565b9250506040614c1e86828701614ac9565b9150509250925092565b614c3181614b1e565b8114614c3c57600080fd5b50565b600081359050614c4e81614c28565b92915050565b600080fd5b600080fd5b7f4e487b7100000000000000000000000000000000000000000000000000000000600052604160045260246000fd5b614c96826149fc565b810181811067ffffffffffffffff82111715614cb557614cb4614c5e565b5b80604052505050565b6000614cc8614a68565b9050614cd48282614c8d565b919050565b600067ffffffffffffffff821115614cf457614cf3614c5e565b5b614cfd826149fc565b9050602081019050919050565b82818337600083830152505050565b6000614d2c614d2784614cd9565b614cbe565b905082815260208101848484011115614d4857614d47614c59565b5b614d53848285614d0a565b509392505050565b600082601f830112614d7057614d6f614c54565b5b8135614d80848260208601614d19565b91505092915050565b600080600060608486031215614da257614da1614a72565b5b6000614db086828701614ac9565b9350506020614dc186828701614c3f565b925050604084013567ffffffffffffffff811115614de257614de1614a77565b5b614dee86828701614d5b565b9150509250925092565b600080600060608486031215614e1157614e10614a72565b5b6000614e1f86828701614ac9565b9350506020614e3086828701614a93565b9250506040614e4186828701614a93565b9150509250925092565b600060208284031215614e6157614e60614a72565b5b600082013567ffffffffffffffff811115614e7f57614e7e614a77565b5b614e8b84828501614d5b565b91505092915050565b600060208284031215614eaa57614ea9614a72565b5b6000614eb884828501614a93565b91505092915050565b60008060408385031215614ed857614ed7614a72565b5b6000614ee685828601614a93565b9250506020614ef785828601614a93565b9150509250929050565b60008060008060808587031215614f1b57614f1a614a72565b5b600085013567ffffffffffffffff811115614f3957614f38614a77565b5b614f4587828801614d5b565b945050602085013567ffffffffffffffff811115614f6657614f65614a77565b5b614f7287828801614d5b565b935050604085013567ffffffffffffffff811115614f9357614f92614a77565b5b614f9f87828801614d5b565b925050606085013567ffffffffffffffff811115614fc057614fbf614a77565b5b614fcc87828801614d5b565b91505092959194509250565b600080600060608486031215614ff157614ff0614a72565b5b6000614fff86828701614a93565b935050602061501086828701614ac9565b925050604084013567ffffffffffffffff81111561503157615030614a77565b5b61503d86828701614d5b565b9150509250925092565b600081519050919050565b600082825260208201905092915050565b6000819050602082019050919050565b61507c81614aa8565b82525050565b61508b81614b1e565b82525050565b600082825260208201905092915050565b60006150ad826149ad565b6150b78185615091565b93506150c78185602086016149c9565b6150d0816149fc565b840191505092915050565b60006060830160008301516150f36000860182615073565b5060208301516151066020860182615082565b506040830151848203604086015261511e82826150a2565b9150508091505092915050565b600061513783836150db565b905092915050565b6000602082019050919050565b600061515782615047565b6151618185615052565b93508360208202850161517385615063565b8060005b858110156151af5784840389528151615190858261512b565b945061519b8361513f565b925060208a01995050600181019050615177565b50829750879550505050505092915050565b600060208201905081810360008301526151db818461514c565b905092915050565b7f6163636573732064656e69656420666f72206f776e6572000000000000000000600082015250565b60006152196017836149b8565b9150615224826151e3565b602082019050919050565b600060208201905081810360008301526152488161520c565b9050919050565b7f4e487b7100000000000000000000000000000000000000000000000000000000600052602260045260246000fd5b6000600282049050600182168061529657607f821691505b602082108114156152aa576152a961524f565b5b50919050565b7f6d697373696e672073656e646572206164647265737300000000000000000000600082015250565b60006152e66016836149b8565b91506152f1826152b0565b602082019050919050565b60006020820190508181036000830152615315816152d9565b9050919050565b60006060820190506153316000830186614b54565b61533e6020830185614b54565b61534b6040830184614b7e565b949350505050565b7f7573657220646f6573206e6f7420657869737400000000000000000000000000600082015250565b60006153896013836149b8565b915061539482615353565b602082019050919050565b600060208201905081810360008301526153b88161537c565b9050919050565b7f4e487b7100000000000000000000000000000000000000000000000000000000600052603260045260246000fd5b600081905092915050565b6000615404826149ad565b61540e81856153ee565b935061541e8185602086016149c9565b80840191505092915050565b7f7b00000000000000000000000000000000000000000000000000000000000000600082015250565b60006154606001836153ee565b915061546b8261542a565b600182019050919050565b60008160601b9050919050565b600061548e82615476565b9050919050565b60006154a082615483565b9050919050565b6154b86154b3826148e7565b615495565b82525050565b7f3a00000000000000000000000000000000000000000000000000000000000000600082015250565b60006154f46001836153ee565b91506154ff826154be565b600182019050919050565b600061551682856153f9565b915061552182615453565b915061552d82846154a7565b60148201915061553c826154e7565b91508190509392505050565b7f5b00000000000000000000000000000000000000000000000000000000000000600082015250565b600061557e6001836153ee565b915061558982615548565b600182019050919050565b6000819050919050565b6155af6155aa82614aa8565b615594565b82525050565b60008190508160005260206000209050919050565b600081546155d78161527e565b6155e181866153ee565b945060018216600081146155fc576001811461560d57615640565b60ff19831686528186019350615640565b615616856155b5565b60005b8381101561563857815481890152600182019150602081019050615619565b838801955050505b50505092915050565b7f5d00000000000000000000000000000000000000000000000000000000000000600082015250565b600061567f6001836153ee565b915061568a82615649565b600182019050919050565b60006156a182876153f9565b91506156ac82615571565b91506156b8828661559e565b6020820191506156c882856154a7565b6014820191506156d882846155ca565b91506156e382615672565b915081905095945050505050565b7f4e487b7100000000000000000000000000000000000000000000000000000000600052601160045260246000fd5b600061572b82614aa8565b91507fffffffffffffffffffffffffffffffffffffffffffffffffffffffffffffffff82141561575e5761575d6156f1565b5b600182019050919050565b7f7d00000000000000000000000000000000000000000000000000000000000000600082015250565b600061579f6001836153ee565b91506157aa82615769565b600182019050919050565b60006157c182846153f9565b91506157cc82615792565b915081905092915050565b7f706f737420646f6573206e6f7420657869737473000000000000000000000000600082015250565b600061580d6014836149b8565b9150615818826157d7565b602082019050919050565b6000602082019050818103600083015261583c81615800565b9050919050565b7f6d697373696e6720726563697069656e74206164647265737300000000000000600082015250565b60006158796019836149b8565b915061588482615843565b602082019050919050565b600060208201905081810360008301526158a88161586c565b9050919050565b60006158ba82614aa8565b91506158c583614aa8565b9250827fffffffffffffffffffffffffffffffffffffffffffffffffffffffffffffffff038211156158fa576158f96156f1565b5b828201905092915050565b600061591082614aa8565b915061591b83614aa8565b92508282101561592e5761592d6156f1565b5b828203905092915050565b600061594582856153f9565b915061595182846153f9565b91508190509392505050565b7f6d697373696e6720616464726573730000000000000000000000000000000000600082015250565b6000615993600f836149b8565b915061599e8261595d565b602082019050919050565b600060208201905081810360008301526159c281615986565b9050919050565b7f7573657220616c72656164792065786973747300000000000000000000000000600082015250565b60006159ff6013836149b8565b9150615a0a826159c9565b602082019050919050565b60006020820190508181036000830152615a2e816159f2565b9050919050565b6000604082019050615a4a6000830185614b54565b8181036020830152615a5c8184614a0d565b90509392505050565b6000606082019050615a7a6000830186614b54565b615a876020830185614b54565b8181036040830152615a998184614a0d565b9050949350505050565b6000604082019050615ab86000830185614b54565b615ac56020830184614b54565b9392505050565b7f6e6f7420616e2061647665727469736572000000000000000000000000000000600082015250565b6000615b026011836149b8565b9150615b0d82615acc565b602082019050919050565b60006020820190508181036000830152615b3181615af5565b9050919050565b6000615b4482846154a7565b60148201915081905092915050565b6000615b5f828661559e565b602082019150615b6f82856154a7565b601482019150615b7f82846155ca565b915081905094935050505056fea26469706673582212202cf534b270fff80fc77cd084e8b292a173ceede31c68b7c3ca464db8293b38a564736f6c634300080a0033",
  "immutableReferences": {},
  "source": "// SPDX-License-Identifier: CC-BY-4.0\npragma solidity >=0.4.22 <0.9.0;\n\nimport \"../Version.sol\";\n\ncontract SocialNetwork is Version {\n\n    string public name;\n    string public symbol;\n    uint256 public _totalSupply;\n\n    mapping(address => uint256) private _balances;\n    mapping(address => mapping (address => uint256)) allowed;\n\n    bytes32 constant private ZERO_BYTES = bytes32(0);\n    address constant private ZERO_ADDRESS = address(0);\n\n    address public _owner;\n    bool private initialized;\n\n    struct Post {\n        uint256 epoch;\n        bool    visible;\n        string  content;\n    }\n\n    struct Comment {\n        address comment_author;\n        uint256 post_index;\n        string  message;\n    }\n\n    struct UserMeta {\n        string profession;\n        string location;\n        string dob;\n        string interests;\n    }\n\n    struct LikesDislikes {\n        uint256 post;\n        address poster;\n        address user;\n    }\n\n    mapping (address => Post[]) private postsV2;\n\n    mapping (address => uint256) private users;\n    mapping (address => string[]) private posts;\n    address[] private _posters;\n    mapping (address => Comment[]) private comments;\n    address[] private comment_keys;\n    mapping (address => mapping(address => uint256)) private likes;\n    mapping (address => mapping(address => uint256)) private dislikes;\n    mapping (address => UserMeta) private user_meta;\n    mapping (address => uint256) private balances;\n    mapping (address => address) private followers;\n    mapping (address => mapping(address => bool)) private friend_request;\n    mapping (address => address) private friends;\n\n    address[] private _friends;\n\n    address[] private _users;\n\n\n    // advertisers\n    mapping (address => uint256) private advertisers;\n    address[] private _advertisers;\n    mapping (address => string) private advertisements;\n\n    //uint256 public totalSupply = 0;\n    mapping(uint256 => address) internal tokens;\n    event Mint(address indexed _to, uint256 indexed _tokenId, bytes32 _ipfsHash);\n\n    event Transfer(address sender,address recipient,uint256 amount);\n    event Approval(address sender,address spender,uint256 amount);\n\n    event CommentAdded(address sender,address user,string comment);\n    event AdvertiserAdded(address sender);\n    event UserAdded(address sender);\n    event PostAdded(address sender, string message);\n    event FollowerAdded(address sender, address follower);\n    event FriendRequestAdded(address sender, address user);\n\n  constructor()\n    payable\n  {\n  }\n    modifier onlyOwner() {\n        require(msg.sender == _owner, \"access denied for owner\");\n        _;\n    }\n\n    modifier addressValid() {\n        require(msg.sender != address(0), \"missing address\");\n        _;\n    }\n\n    modifier userNotExist() {\n        require(users[msg.sender] == 0, \"user exists\");\n        _;\n    }\n\n    modifier isUser(address user) {\n        require(users[user] != 0,\"user does not exist\");\n        _;\n    }\n\n    modifier notUser(address user) {\n        require(users[user] == 0,\"user already exists\");\n        _;\n    }\n\n    modifier isAdvertiser() {\n        require(advertisers[msg.sender] != 0, \"not an advertiser\");\n        _;\n    }\n\n    modifier notAdvertiser() {\n        require(advertisers[msg.sender] == 0, \"is an advertiser\");\n        _;\n    }\n\n    function getContractBalance()\n        public\n        view\n        onlyOwner\n        returns (uint256)\n    {\n        return address(this).balance;\n    }\n\n    function getOwner()\n        public\n        view\n        returns (address)\n    {\n        return _owner;\n    }\n\n    function getUserRole()\n        public\n        view\n        returns (string memory)\n    {\n        if (msg.sender == _owner) {\n        return string(\"owner\");\n        } else if (users[msg.sender] != 0) {\n        return string(\"user\");\n        } else if (advertisers[msg.sender] != 0) {\n        return string(\"advertiser\");\n        }\n        return string(\"unknown\");\n    }\n\n    function totalSupply()\n        public\n        view\n        returns (uint256)\n    {\n        return _totalSupply;\n    }\n\n    function balanceOf(address account)\n        public\n        view\n        returns (uint256)\n    {\n        return _balances[account];\n    }\n    function allowance(address owner, address spender)\n        public\n        view\n        returns (uint256)\n    {\n        return  (_totalSupply - allowed[owner][spender]);\n    }\n\n    function transfer(address recipient, uint256 amount)\n        public\n        returns (bool)\n    {\n        require(recipient != ZERO_ADDRESS, \"missing recipient address\");\n        if (balances[msg.sender] >= amount && amount > 0 && balances[recipient] + amount > balances[recipient]) {\n        balances[msg.sender] -= amount;\n        balances[recipient] += amount;\n        emit Transfer(msg.sender, recipient, amount); // trigger event\n        return true;\n        } else {\n        return false;\n        }\n    }\n    function approve(address spender, uint256 amount)\n        public\n        returns (bool)\n    {\n        require(spender != ZERO_ADDRESS, \"missing sender address\");\n        allowed[msg.sender][spender] = amount;\n        emit Approval(msg.sender, spender, amount);\n        return true;\n    }\n    function transferFrom(address sender, address recipient, uint256 amount)\n        public\n        returns (bool)\n    {\n        require(sender != ZERO_ADDRESS, \"missing sender address\");\n        require(recipient != ZERO_ADDRESS, \"missing recipient address\");\n\n        if (balances[sender] >= amount && allowed[sender][msg.sender] >= amount && amount > 0 &&\n        balances[recipient] + amount > balances[recipient]) {\n            balances[sender] -= amount;\n            balances[recipient] += amount;\n            emit Transfer(sender, recipient, amount);\n            return true;\n        } else {\n            return false;\n        }\n    }\n\n    function addUser()\n        public\n        payable\n        addressValid\n    {\n        require(users[msg.sender] == 0,\"user already exists\");\n        users[msg.sender] = 1;\n        _users.push(msg.sender);\n        emit UserAdded(msg.sender);\n        if (msg.sender != _owner) {\n            transferFrom(msg.sender, address(this),  0.001 ether);\n        }\n    }\n\n    function addPostv2(uint256 epoch,bool visible,string memory content)\n        public\n        payable\n        isUser(msg.sender)\n    {\n        Post memory _post = Post(epoch,visible,content);\n        postsV2[msg.sender].push(_post);\n    }\n\n    function getPostsv2()\n        public\n        view\n        isUser(msg.sender)\n        returns (Post[] memory)\n    {\n        return postsV2[msg.sender];\n    }\n\n    function getTotalPostsv2()\n        public\n        view\n        isUser(msg.sender)\n        returns (uint256)\n    {\n        return postsV2[msg.sender].length;\n    }\n\n    function addPostByOwner(string memory message)\n        public\n        onlyOwner\n    {\n        posts[msg.sender].push(message);\n    }\n\n    function addPost(string memory message)\n        public\n        payable\n        addressValid\n        returns (uint256)\n    {\n        bool found = false;\n        if (_posters.length > 0) {\n            for (uint i = 0; i < _posters.length; i++) {\n                if (_posters[i] == ZERO_ADDRESS) {\n                    found = true;\n                }\n            }\n        }\n        if (!found) {\n            _posters.push(msg.sender);\n        }\n        posts[msg.sender].push(message);\n        emit PostAdded(msg.sender, message);\n        return posts[msg.sender].length - 1;\n    }\n\n    function getTotalPosts()\n        public\n        view\n        returns (uint256)\n    {\n        return posts[msg.sender].length;\n    }\n    \n    function getPosts(uint256 index)\n        public\n        view\n        returns (string memory)\n    {\n        require(index < posts[msg.sender].length,\"post does not exists\");\n        return posts[msg.sender][index];\n    }\n    \n\n    function getAllPosts()\n        public\n        view\n        onlyOwner\n        returns (string memory)\n    {\n        string memory output = \"\";\n        uint256 total = _posters.length;\n        for (uint i = 0; i < total; i++) {\n            address key = _posters[i];\n            string[] memory post = posts[key];\n            if (post.length > 0) {\n                for (uint l = 0; l < post.length; l++) {\n                    output = string(abi.encodePacked(output, post[l]));\n                }\n            }\n        }\n        return output;\n    }\n\n    function addComment(address poster, uint index, string memory message)\n        public\n        payable\n        addressValid\n        isUser(poster)\n        isUser(msg.sender)\n    {\n        bool found = false;\n        if (comment_keys.length > 0) {\n            for (uint i = 0; i < comment_keys.length; i++) {\n                if (comment_keys[i] == poster) {\n                found = true;\n                }\n            }\n        }\n        if (!found) {\n            comment_keys.push(poster);\n        }\n        address comment_author = msg.sender;\n        Comment memory comment = Comment(comment_author, index, message);\n        comments[poster].push(comment);\n        emit CommentAdded(msg.sender,poster,message);\n    }\n\n    function getCommentTotal(address poster)\n        public\n        view\n        returns (uint256)\n    {\n        return comments[poster].length;\n    }\n\n    function getComment(address poster, uint256 index)\n        public\n        view\n        addressValid\n        isUser(msg.sender)\n        returns (string memory)\n    {\n        return string(abi.encodePacked(comments[poster][index].post_index,comments[poster][index].comment_author,comments[poster][index].message));\n    }\n\n    function getCommentsForPoster(address poster)\n        public\n        view\n        addressValid\n        isUser(msg.sender)\n        returns (string memory)\n    {\n        string memory output = \"\";\n        uint count = comments[poster].length;\n        if (count > 0) {\n            for(uint i = 0; i < count; i++) {\n                output = string(abi.encodePacked(output, \"[\", comments[poster][i].post_index,comments[poster][i].comment_author,comments[poster][i].message, \"]\"));\n            }\n        }\n        return output;\n    }\n\n    function getAllComments()\n        public\n        view\n        onlyOwner\n        returns (string memory)\n    {\n        string memory output = \"\";\n        uint total = comment_keys.length;\n        if (total > 0) {\n        for (uint i = 0; i < total; i++) {\n            address poster = comment_keys[i];\n            uint count = comments[poster].length;\n            if (count > 0) {\n            output = string(abi.encodePacked(output, \"{\", poster, \":\"));\n            for (uint j = 0; j < count; j++) {\n                output = string(abi.encodePacked(output, \"[\", comments[poster][j].post_index,comments[poster][j].comment_author,comments[poster][j].message, \"]\"));\n            }\n            output = string(abi.encodePacked(output,\"}\"));\n            }\n        }\n        }\n        return output;\n    }\n\n    /**\n    * interests is comma dellimited string, e.g. \"girls,technology,stage plays\"\n    */\n    function updateUserMeta(string memory profession, string memory location, string memory dob, string memory interests)\n        public\n        payable\n    {\n        UserMeta memory meta = UserMeta(profession, location, dob, interests);\n        user_meta[msg.sender] = meta;\n    }\n\n    // Add a new advertiser\n    function addAdvertiser()\n        public\n        payable\n        addressValid\n    {\n        advertisers[msg.sender] = 1;\n        _advertisers.push(msg.sender);\n        emit AdvertiserAdded(msg.sender);\n    }\n\n    function newAdvertisement(string memory message)\n        public\n        payable\n        isAdvertiser\n    {\n        advertisements[msg.sender] = message;\n    }\n\n    function getAdvertisers()\n        public\n        view\n        onlyOwner\n        returns (address[] memory)\n    {\n        return _advertisers;\n    }\n\n    function getUsers()\n        public\n        view\n        onlyOwner\n        returns (address[] memory)\n    {\n        return _users;\n    }\n\n    function getTotalUsers()\n        public\n        view\n        returns (uint256)\n    {\n        return _users.length;\n    }\n\n    function getPosters()\n        public\n        view\n        returns (address[] memory)\n    {\n        return _posters;\n    }\n\n    function getTotalPosters()\n        public\n        view\n        returns (uint256)\n    {\n        return _posters.length;\n    }\n\n\n    /**\n    * a post may contain many likes, one -> many\n    * one like per user per post\n    */\n    function setLike(uint256 post, address poster, address user)\n        public\n        payable\n        isUser(user)\n        isUser(poster)\n    {\n        likes[user][poster] = post;\n    }\n\n    function setDislike(uint256 post, address poster, address user)\n        public\n        payable\n        isUser(user)\n        isUser(poster)\n    {\n        dislikes[user][poster] = post;\n    }\n\n    function getLikes(address user, address poster)\n        public\n        view\n        isUser(user)\n        isUser(poster)\n        returns (uint256)\n    {\n        return likes[user][poster];\n    }\n\n    function getDislikes(address user, address poster)\n        public\n        view\n        isUser(user)\n        isUser(poster)\n        returns (uint256)\n    {\n        return dislikes[user][poster];\n    }\n\n    /**\n     * Followers\n     */\n    function addFollower(address user)\n        public\n        payable\n        isUser(msg.sender)\n        isUser(user)\n    {\n        followers[msg.sender] = user;\n        emit FollowerAdded(msg.sender, user);\n    }\n\n    function getFollowers()\n        public\n        view\n        isUser(msg.sender)\n        returns (address)\n    {\n        return followers[msg.sender];\n    }\n\n    // Friend Request\n    function addFriendRequest(address user)\n        public\n        payable\n        isUser(msg.sender)\n        isUser(user)\n    {\n        bool found1 = false;\n        bool found2 = false;\n        for (uint i = 0; i < _friends.length; i++) {\n            if (_friends[i] == user) {\n                found1 = true;\n            }\n            if (_friends[1] == msg.sender) {\n                found2 = true;\n            }\n        }\n        if (found1) {\n            _friends.push(user);\n        }\n        if (found2) {\n            _friends.push(msg.sender);\n        }\n        friend_request[user][msg.sender] = true;\n        friend_request[msg.sender][user] = true;\n        emit FriendRequestAdded(msg.sender,user);\n    }\n\n    function getTotalFriendRequest()\n        public\n        view\n        returns (uint256)\n    {\n        uint total = 0;\n        for (uint i = 0; i < _friends.length; i++) {\n            if (friend_request[msg.sender][_friends[i]]) {\n                total++;\n            }\n        }\n        return total;\n    }\n\n    function getFriends()\n        public\n        view\n        returns (address[] memory)\n    {\n        return _friends;\n    }\n\n    function getFriendRequest()\n        public\n        view\n        isUser(msg.sender)\n        returns (string memory)\n    {\n        string memory output = \"\";\n        for (uint i = 0; i < _friends.length; i++) {\n            if (friend_request[msg.sender][_friends[i]]) {\n                output = string(abi.encodePacked(_friends[1]));\n            }\n        }\n        return output;\n    }\n}\n",
  "sourcePath": "G:\\projects\\pingleware-contracts\\contracts\\social\\SocialNetwork.sol",
  "compiler": {
    "name": "solc",
    "version": "0.8.10+commit.fc410830.Emscripten.clang"
  },
  "schemaVersion": "3.4.3",
  "updatedAt": "2021-12-21T14:42:05.899Z",
  "devdoc": {
    "kind": "dev",
    "methods": {},
    "version": 1
  },
  "userdoc": {
    "kind": "user",
    "methods": {
      "addFollower(address)": {
        "notice": "Followers"
      },
      "setLike(uint256,address,address)": {
        "notice": "a post may contain many likes, one -> many one like per user per post"
      },
      "updateUserMeta(string,string,string,string)": {
        "notice": "interests is comma dellimited string, e.g. \"girls,technology,stage plays\""
      }
    },
    "version": 1
  }
}