{
  "contractName": "SocialNetwork",
  "abi": [
    {
      "inputs": [],
      "stateMutability": "payable",
      "type": "constructor"
    },
    {
      "anonymous": false,
      "inputs": [
        {
          "indexed": false,
          "internalType": "address",
          "name": "owner",
          "type": "address"
        },
        {
          "indexed": false,
          "internalType": "uint256",
          "name": "amount",
          "type": "uint256"
        }
      ],
      "name": "CashOut",
      "type": "event"
    },
    {
      "anonymous": false,
      "inputs": [
        {
          "indexed": false,
          "internalType": "address",
          "name": "sender",
          "type": "address"
        }
      ],
      "name": "ContractCallback",
      "type": "event"
    },
    {
      "anonymous": false,
      "inputs": [
        {
          "indexed": false,
          "internalType": "address",
          "name": "sender",
          "type": "address"
        }
      ],
      "name": "ContractFrozen",
      "type": "event"
    },
    {
      "anonymous": false,
      "inputs": [
        {
          "indexed": false,
          "internalType": "address",
          "name": "sender",
          "type": "address"
        }
      ],
      "name": "ContractThawed",
      "type": "event"
    },
    {
      "anonymous": false,
      "inputs": [
        {
          "indexed": false,
          "internalType": "address",
          "name": "sender",
          "type": "address"
        },
        {
          "indexed": false,
          "internalType": "address",
          "name": "recipient",
          "type": "address"
        }
      ],
      "name": "Destroyed",
      "type": "event"
    },
    {
      "anonymous": false,
      "inputs": [
        {
          "indexed": false,
          "internalType": "address",
          "name": "sender",
          "type": "address"
        },
        {
          "indexed": false,
          "internalType": "uint256",
          "name": "amount",
          "type": "uint256"
        }
      ],
      "name": "FallbackEvent",
      "type": "event"
    },
    {
      "anonymous": false,
      "inputs": [
        {
          "indexed": false,
          "internalType": "address",
          "name": "sender",
          "type": "address"
        },
        {
          "indexed": false,
          "internalType": "address",
          "name": "user",
          "type": "address"
        },
        {
          "indexed": false,
          "internalType": "string",
          "name": "message",
          "type": "string"
        }
      ],
      "name": "MessageUser",
      "type": "event"
    },
    {
      "anonymous": false,
      "inputs": [
        {
          "indexed": true,
          "internalType": "address",
          "name": "previousOwner",
          "type": "address"
        },
        {
          "indexed": true,
          "internalType": "address",
          "name": "newOwner",
          "type": "address"
        }
      ],
      "name": "OwnershipTransferred",
      "type": "event"
    },
    {
      "anonymous": false,
      "inputs": [
        {
          "indexed": false,
          "internalType": "address",
          "name": "sender",
          "type": "address"
        },
        {
          "indexed": false,
          "internalType": "uint256",
          "name": "amount",
          "type": "uint256"
        }
      ],
      "name": "ReceiveEvent",
      "type": "event"
    },
    {
      "anonymous": false,
      "inputs": [
        {
          "indexed": false,
          "internalType": "address",
          "name": "sender",
          "type": "address"
        },
        {
          "indexed": false,
          "internalType": "bytes",
          "name": "reason",
          "type": "bytes"
        }
      ],
      "name": "Started",
      "type": "event"
    },
    {
      "anonymous": false,
      "inputs": [
        {
          "indexed": false,
          "internalType": "address",
          "name": "sender",
          "type": "address"
        },
        {
          "indexed": false,
          "internalType": "bytes",
          "name": "reason",
          "type": "bytes"
        }
      ],
      "name": "Stopped",
      "type": "event"
    },
    {
      "anonymous": false,
      "inputs": [
        {
          "indexed": false,
          "internalType": "address",
          "name": "sender",
          "type": "address"
        },
        {
          "indexed": false,
          "internalType": "string",
          "name": "reason",
          "type": "string"
        }
      ],
      "name": "Termination",
      "type": "event"
    },
    {
      "stateMutability": "payable",
      "type": "fallback"
    },
    {
      "inputs": [],
      "name": "SOCIAL_NETWORK_NAME",
      "outputs": [
        {
          "internalType": "string",
          "name": "",
          "type": "string"
        }
      ],
      "stateMutability": "view",
      "type": "function"
    },
    {
      "inputs": [],
      "name": "SOCIAL_NETWORK_TAGLINE",
      "outputs": [
        {
          "internalType": "string",
          "name": "",
          "type": "string"
        }
      ],
      "stateMutability": "view",
      "type": "function"
    },
    {
      "inputs": [],
      "name": "VERSION",
      "outputs": [
        {
          "internalType": "string",
          "name": "",
          "type": "string"
        }
      ],
      "stateMutability": "view",
      "type": "function"
    },
    {
      "inputs": [],
      "name": "WAIT",
      "outputs": [
        {
          "internalType": "uint256",
          "name": "",
          "type": "uint256"
        }
      ],
      "stateMutability": "view",
      "type": "function"
    },
    {
      "inputs": [],
      "name": "active",
      "outputs": [
        {
          "internalType": "bool",
          "name": "",
          "type": "bool"
        }
      ],
      "stateMutability": "view",
      "type": "function"
    },
    {
      "inputs": [],
      "name": "destroy",
      "outputs": [],
      "stateMutability": "nonpayable",
      "type": "function"
    },
    {
      "inputs": [
        {
          "internalType": "address",
          "name": "_recipient",
          "type": "address"
        }
      ],
      "name": "destroyAndSend",
      "outputs": [],
      "stateMutability": "nonpayable",
      "type": "function"
    },
    {
      "inputs": [],
      "name": "getOwner",
      "outputs": [
        {
          "internalType": "address",
          "name": "",
          "type": "address"
        }
      ],
      "stateMutability": "payable",
      "type": "function"
    },
    {
      "inputs": [
        {
          "internalType": "address",
          "name": "",
          "type": "address"
        }
      ],
      "name": "optout",
      "outputs": [
        {
          "internalType": "bool",
          "name": "",
          "type": "bool"
        }
      ],
      "stateMutability": "view",
      "type": "function"
    },
    {
      "inputs": [],
      "name": "payable_address",
      "outputs": [
        {
          "internalType": "address",
          "name": "",
          "type": "address"
        }
      ],
      "stateMutability": "view",
      "type": "function"
    },
    {
      "inputs": [],
      "name": "renounceOwnership",
      "outputs": [],
      "stateMutability": "payable",
      "type": "function"
    },
    {
      "inputs": [
        {
          "internalType": "address",
          "name": "newOwner",
          "type": "address"
        }
      ],
      "name": "transferOwnership",
      "outputs": [],
      "stateMutability": "payable",
      "type": "function"
    },
    {
      "stateMutability": "payable",
      "type": "receive"
    },
    {
      "inputs": [
        {
          "internalType": "uint256",
          "name": "fee",
          "type": "uint256"
        },
        {
          "internalType": "uint256",
          "name": "amount",
          "type": "uint256"
        }
      ],
      "name": "updateFees",
      "outputs": [],
      "stateMutability": "payable",
      "type": "function"
    },
    {
      "inputs": [],
      "name": "freeze",
      "outputs": [],
      "stateMutability": "payable",
      "type": "function"
    },
    {
      "inputs": [],
      "name": "unfreeze",
      "outputs": [],
      "stateMutability": "payable",
      "type": "function"
    },
    {
      "inputs": [],
      "name": "freeze_insecure",
      "outputs": [],
      "stateMutability": "payable",
      "type": "function"
    },
    {
      "inputs": [],
      "name": "unfreeze_insecure",
      "outputs": [],
      "stateMutability": "payable",
      "type": "function"
    },
    {
      "inputs": [],
      "name": "cashoutToOwner",
      "outputs": [],
      "stateMutability": "payable",
      "type": "function"
    },
    {
      "inputs": [
        {
          "internalType": "address",
          "name": "_useraddress",
          "type": "address"
        },
        {
          "internalType": "string",
          "name": "fullname",
          "type": "string"
        },
        {
          "internalType": "string",
          "name": "profession",
          "type": "string"
        },
        {
          "internalType": "string",
          "name": "location",
          "type": "string"
        },
        {
          "internalType": "string",
          "name": "dob",
          "type": "string"
        },
        {
          "internalType": "string",
          "name": "interests",
          "type": "string"
        },
        {
          "internalType": "string",
          "name": "role",
          "type": "string"
        }
      ],
      "name": "addUser",
      "outputs": [],
      "stateMutability": "payable",
      "type": "function"
    },
    {
      "inputs": [
        {
          "internalType": "address",
          "name": "_useraddress",
          "type": "address"
        },
        {
          "internalType": "string",
          "name": "role",
          "type": "string"
        }
      ],
      "name": "deleteUser",
      "outputs": [],
      "stateMutability": "payable",
      "type": "function"
    },
    {
      "inputs": [
        {
          "internalType": "address",
          "name": "_useraddress",
          "type": "address"
        },
        {
          "internalType": "string",
          "name": "role",
          "type": "string"
        }
      ],
      "name": "blockUser",
      "outputs": [],
      "stateMutability": "payable",
      "type": "function"
    },
    {
      "inputs": [
        {
          "internalType": "address",
          "name": "_useraddress",
          "type": "address"
        },
        {
          "internalType": "string",
          "name": "role",
          "type": "string"
        }
      ],
      "name": "unblockUser",
      "outputs": [],
      "stateMutability": "payable",
      "type": "function"
    },
    {
      "inputs": [
        {
          "internalType": "string",
          "name": "fullname",
          "type": "string"
        },
        {
          "internalType": "string",
          "name": "location",
          "type": "string"
        },
        {
          "internalType": "string",
          "name": "dob",
          "type": "string"
        }
      ],
      "name": "registerAdvertiser",
      "outputs": [],
      "stateMutability": "payable",
      "type": "function"
    },
    {
      "inputs": [
        {
          "internalType": "string",
          "name": "fullname",
          "type": "string"
        },
        {
          "internalType": "string",
          "name": "profession",
          "type": "string"
        },
        {
          "internalType": "string",
          "name": "location",
          "type": "string"
        },
        {
          "internalType": "string",
          "name": "dob",
          "type": "string"
        },
        {
          "internalType": "string",
          "name": "interests",
          "type": "string"
        }
      ],
      "name": "register",
      "outputs": [],
      "stateMutability": "payable",
      "type": "function"
    },
    {
      "inputs": [
        {
          "internalType": "uint256",
          "name": "timestamp",
          "type": "uint256"
        },
        {
          "internalType": "bool",
          "name": "visibility",
          "type": "bool"
        },
        {
          "internalType": "string",
          "name": "message",
          "type": "string"
        }
      ],
      "name": "post",
      "outputs": [],
      "stateMutability": "payable",
      "type": "function"
    },
    {
      "inputs": [
        {
          "internalType": "address",
          "name": "poster",
          "type": "address"
        },
        {
          "internalType": "uint256",
          "name": "index",
          "type": "uint256"
        }
      ],
      "name": "adminDeletePost",
      "outputs": [],
      "stateMutability": "payable",
      "type": "function"
    },
    {
      "inputs": [
        {
          "internalType": "uint256",
          "name": "index",
          "type": "uint256"
        }
      ],
      "name": "deletePost",
      "outputs": [],
      "stateMutability": "payable",
      "type": "function"
    },
    {
      "inputs": [
        {
          "internalType": "address",
          "name": "poster",
          "type": "address"
        },
        {
          "internalType": "uint256",
          "name": "index",
          "type": "uint256"
        },
        {
          "internalType": "string",
          "name": "message",
          "type": "string"
        }
      ],
      "name": "addComment",
      "outputs": [],
      "stateMutability": "payable",
      "type": "function"
    },
    {
      "inputs": [
        {
          "internalType": "address",
          "name": "_useraddress",
          "type": "address"
        },
        {
          "internalType": "uint256",
          "name": "index",
          "type": "uint256"
        }
      ],
      "name": "adminDeleteComment",
      "outputs": [],
      "stateMutability": "payable",
      "type": "function"
    },
    {
      "inputs": [
        {
          "internalType": "uint256",
          "name": "index",
          "type": "uint256"
        }
      ],
      "name": "deleteComment",
      "outputs": [],
      "stateMutability": "payable",
      "type": "function"
    },
    {
      "inputs": [],
      "name": "getUsers",
      "outputs": [
        {
          "internalType": "address[]",
          "name": "",
          "type": "address[]"
        }
      ],
      "stateMutability": "view",
      "type": "function"
    },
    {
      "inputs": [],
      "name": "getAdvertisers",
      "outputs": [
        {
          "internalType": "address[]",
          "name": "",
          "type": "address[]"
        }
      ],
      "stateMutability": "view",
      "type": "function"
    },
    {
      "inputs": [
        {
          "internalType": "string",
          "name": "message",
          "type": "string"
        }
      ],
      "name": "newAdvertisement",
      "outputs": [],
      "stateMutability": "payable",
      "type": "function"
    },
    {
      "inputs": [
        {
          "internalType": "address",
          "name": "_advertiseraddress",
          "type": "address"
        },
        {
          "internalType": "uint256",
          "name": "index",
          "type": "uint256"
        }
      ],
      "name": "adminDeleteAdvertisement",
      "outputs": [],
      "stateMutability": "payable",
      "type": "function"
    },
    {
      "inputs": [
        {
          "internalType": "uint256",
          "name": "index",
          "type": "uint256"
        }
      ],
      "name": "deleteAdvertisement",
      "outputs": [],
      "stateMutability": "payable",
      "type": "function"
    },
    {
      "inputs": [],
      "name": "getAdvertisements",
      "outputs": [
        {
          "internalType": "string[]",
          "name": "",
          "type": "string[]"
        }
      ],
      "stateMutability": "view",
      "type": "function"
    },
    {
      "inputs": [],
      "name": "getContractBalance",
      "outputs": [
        {
          "internalType": "uint256",
          "name": "",
          "type": "uint256"
        }
      ],
      "stateMutability": "payable",
      "type": "function"
    },
    {
      "inputs": [],
      "name": "getUserRole",
      "outputs": [
        {
          "internalType": "string",
          "name": "",
          "type": "string"
        }
      ],
      "stateMutability": "view",
      "type": "function"
    },
    {
      "inputs": [
        {
          "internalType": "address",
          "name": "useraddress",
          "type": "address"
        }
      ],
      "name": "getRoleOfUser",
      "outputs": [
        {
          "internalType": "string",
          "name": "",
          "type": "string"
        }
      ],
      "stateMutability": "view",
      "type": "function"
    },
    {
      "inputs": [
        {
          "internalType": "address",
          "name": "user",
          "type": "address"
        }
      ],
      "name": "addFollower",
      "outputs": [],
      "stateMutability": "payable",
      "type": "function"
    },
    {
      "inputs": [],
      "name": "getFollowers",
      "outputs": [
        {
          "internalType": "address[]",
          "name": "",
          "type": "address[]"
        }
      ],
      "stateMutability": "view",
      "type": "function"
    },
    {
      "inputs": [
        {
          "internalType": "address",
          "name": "user",
          "type": "address"
        }
      ],
      "name": "makeFriendRequest",
      "outputs": [],
      "stateMutability": "payable",
      "type": "function"
    },
    {
      "inputs": [
        {
          "internalType": "address",
          "name": "_useraddress",
          "type": "address"
        },
        {
          "internalType": "address",
          "name": "_followeraddress",
          "type": "address"
        }
      ],
      "name": "adminDeleteFollower",
      "outputs": [],
      "stateMutability": "payable",
      "type": "function"
    },
    {
      "inputs": [
        {
          "internalType": "address",
          "name": "_followeraddress",
          "type": "address"
        }
      ],
      "name": "deleteFollower",
      "outputs": [],
      "stateMutability": "payable",
      "type": "function"
    },
    {
      "inputs": [],
      "name": "getFriendRequests",
      "outputs": [
        {
          "internalType": "address[]",
          "name": "",
          "type": "address[]"
        }
      ],
      "stateMutability": "view",
      "type": "function"
    },
    {
      "inputs": [
        {
          "internalType": "address",
          "name": "requestor",
          "type": "address"
        }
      ],
      "name": "approveFriendRequest",
      "outputs": [],
      "stateMutability": "payable",
      "type": "function"
    },
    {
      "inputs": [
        {
          "internalType": "address",
          "name": "requestor",
          "type": "address"
        }
      ],
      "name": "deleteFriendRequest",
      "outputs": [],
      "stateMutability": "payable",
      "type": "function"
    },
    {
      "inputs": [
        {
          "internalType": "string",
          "name": "message",
          "type": "string"
        }
      ],
      "name": "notifyFollowers",
      "outputs": [],
      "stateMutability": "payable",
      "type": "function"
    },
    {
      "inputs": [
        {
          "internalType": "string",
          "name": "message",
          "type": "string"
        }
      ],
      "name": "notifyFriends",
      "outputs": [],
      "stateMutability": "payable",
      "type": "function"
    },
    {
      "inputs": [
        {
          "internalType": "address",
          "name": "account",
          "type": "address"
        }
      ],
      "name": "balanceOf",
      "outputs": [
        {
          "internalType": "uint256",
          "name": "",
          "type": "uint256"
        }
      ],
      "stateMutability": "view",
      "type": "function"
    },
    {
      "inputs": [],
      "name": "myBalance",
      "outputs": [
        {
          "internalType": "uint256",
          "name": "",
          "type": "uint256"
        }
      ],
      "stateMutability": "view",
      "type": "function"
    },
    {
      "inputs": [
        {
          "internalType": "address",
          "name": "user",
          "type": "address"
        },
        {
          "internalType": "bool",
          "name": "status",
          "type": "bool"
        }
      ],
      "name": "userChangeOptsOutStatus",
      "outputs": [],
      "stateMutability": "nonpayable",
      "type": "function"
    },
    {
      "inputs": [
        {
          "internalType": "address",
          "name": "user",
          "type": "address"
        },
        {
          "internalType": "string",
          "name": "message",
          "type": "string"
        }
      ],
      "name": "sendUserMessage",
      "outputs": [],
      "stateMutability": "payable",
      "type": "function"
    },
    {
      "inputs": [],
      "name": "getUserList",
      "outputs": [
        {
          "internalType": "address[]",
          "name": "",
          "type": "address[]"
        }
      ],
      "stateMutability": "payable",
      "type": "function"
    }
  ],
  "bytecode": "0x6080604090808252600090600160a060020a03199133838254161781554260015533817f8be0079c531659141344cd1fd0a4f28419497f9722a3daafe3b4186f6b6457e08180a360ff196003541660035574ff00000000000000000000000000000000000000001960065416600655655af3107a400080600755662386f26fc10000806008556601c6bf5263400060095581600a55600b5580600c5580600d55600e5566038d7ea4c68000600f5573__User__________________________________91823b1562000285577f455c928c0000000000000000000000000000000000000000000000000000000081528181600481865af480156200027b5762000269575b50908351906200011382620002cc565b600882527f4d794b726f6e656500000000000000000000000000000000000000000000000060208301528451916200014b83620002cc565b600583527f4f776e65720000000000000000000000000000000000000000000000000000006020840152813b1562000265578391620001c8608092620002158951968795869485947f9d7300d200000000000000000000000000000000000000000000000000000000865260c0600487015260c4860190620002e8565b607c8d8a87840391600319830160248a0152818552601c830160448a0152816020860152603c830160648a0152840152605c810160848801528a60608401520160a48601520190620002e8565b03915af480156200025b5762000240575b5050339060065416176006555161405090816200032b8239f35b6200024c829162000289565b62000258578062000226565b80fd5b84513d84823e3d90fd5b8380fd5b620002749062000289565b3862000103565b85513d84823e3d90fd5b5080fd5b6001604060020a0381116200029d57604052565b7f4e487b7100000000000000000000000000000000000000000000000000000000600052604160045260246000fd5b604081019081106001604060020a038211176200029d57604052565b919082519283825260005b84811062000315575050826000602080949584010152601f8019910116010190565b602081830181015184830182015201620002f356fe60808060405260043610156100c9575b50361561009957333203610052577f26875833861a2b006512a11f1b86edf95df96131040f3caeed72989ee98580836040518061004d3433836139a6565b0390a1005b60405160e560020a62461bcd0281526020600482015260196024820152603860020a787068697368696e672061747461636b2064657465637465643f026044820152606490fd5b7fcc85d09d309785db93d6df19917f2e6cc07fe27cd01c08c8279145deb5cf45266040518061004d3433836139a6565b60009060e060020a8235049062ce8e3e82146136875750806302fb0c5e1461365e578063094cd5ee1461356a5780630d79f5611461347d578063187fd172146131ec5780633407499a1461313b5780633414b1ae14612f635780633465e91a146129955780633528cf501461294c5780634eba96a81461284f5780634ebe16a21461279557806351be8d3314612716578063578ea4ed1461252a57806358a3e53d146124705780635a09007b1461222857806362a5af3b146122075780636a28f000146121e65780636b14d046146120fc5780636db79437146120495780636e1afe0a14611dea5780636f9fb98a14611dbd57806370a0823114611d98578063715018a614611d535780637d0b102614611c6757806383197ef014611c27578063866a072714611bfe578063893d20e814611bd65780638e7cb6ed14611b9757806391a7b1b714611b1a578063a133853f14611a8a578063a28fadd614611a3e578063aae741c4146117aa578063ab111d8b14611641578063b85220431461156f578063b8fb3a5114611553578063b9d4c876146114d4578063bf04a10d14611454578063c0e1b69714611428578063c496563b1461126f578063c62f210314611246578063c9116b69146111b1578063ceeac5d414610e99578063d2ab487314610d38578063d2c162fe14610cb9578063d3dc563614610c60578063d6688cbd14610b5f578063d70a8df514610a70578063e6e322011461077b578063e854791f1461069a578063ec547d801461061a578063f2fde38b14610566578063f5074f4114610512578063f8cd38b31461037a5763ffa1ad740361000f573461037757806003193601126103775761037360405161034581613763565b600a815260b060020a69312e362e342d62657461026020820152604051918291602083526020830190613877565b0390f35b80fd5b5060203660031901126103775780610390613720565b61039e60ff60035416613b45565b6103a9331515613cd6565b60405160e060020a63bf04a10d028152828160048173__User__________________________________5af49081156104e5576104129160209185916104f0575b506103f3613c8b565b60405160e160020a63235ee54d02815293849283929060048401613c3d565b038173__StringUtils___________________________5af480156104e5576104429184916104b7575b50613dee565b73__FriendsFollowers______________________90813b156104b35760405160e060020a63f8cd38b3028152600160a060020a039091166004820152908290829060249082905af480156104a8576104985750f35b6104a190613736565b6103775780f35b6040513d84823e3d90fd5b5050fd5b6104d8915060203d81116104de575b6104d0818361377e565b810190613bdd565b3861043c565b503d6104c6565b6040513d85823e3d90fd5b61050c91503d8087833e610504818361377e565b810190613dc9565b386103ea565b503461037757602036600319011261037757600080516020613fdb83398151915261056061053e613720565b610553600160a060020a03855416331461389c565b60405191829133836138eb565b0390a180f35b5060203660031901126103775761057b613720565b8154600160a060020a03808216926105943385146139c1565b169182156105c0578290600080516020613ffb8339815191528580a3600160a060020a03191617815580f35b60405160e560020a62461bcd02815260206004820152602660248201527f4f776e61626c653a206e6577206f776e657220697320746865207a65726f2061604482015260d060020a65646472657373026064820152608490fd5b503461037757806003193601126103775760405160e760020a6301d8a8fb028152818160048173__Advertiser____________________________5af49081156104a857826103739392610677575b5050604051918291826136dc565b61069392503d8091833e61068b818361377e565b810190613e54565b3880610669565b5080600319360112610377578054600160a060020a03906106be90821633146139c1565b3031156107335781808080303180956106d5613971565b1682821561072a575bf11561071d577fab933177d8753a66dd869151cf9aa88649e067b7a4e2dad9d5d192d61cf593b09061070e613971565b610560604051928392836139a6565b50604051903d90823e3d90fd5b506108fc6106de565b60405160e560020a62461bcd02815260206004820152601f60248201527f6e6f2062616c616e636520746f207472616e7366657220746f206f776e6572006044820152606490fd5b506060366003190112610377576001604060020a0390600435828111610a6c576107a99036906004016137bc565b91602435818111610a68576107c29036906004016137bc565b90604435908111610a68576107db9036906004016137bc565b6107e960ff60035416613b45565b6107f4331515613cd6565b60405160e060020a639ba099f702815273__Advertiser____________________________926020918281600481885af4908115610a5d578691610a40575b5015610a015760085434036109a157849585803415610998575b8180809234903090f11561098d5773__User__________________________________90813b1561097e5760405160e260020a63115724a30281528781600481865af490811561098257889161096a575b50506108a8613c62565b9060a860020a6a6164766572746973696e6702604051956108c887613763565b600b87528601526108d7613c62565b94833b15610966578895610905916040519889978896879660e060020a63b6644d0902885260048801613d1a565b03915af49081156104e5578391610952575b5050803b1561094f5760405160e560020a6302f38195028152336004820152908290829060249082905af480156104a8576104985750f35b50fd5b61095b90613736565b61094f578138610917565b8880fd5b61097390613736565b61097e57863861089e565b8680fd5b6040513d8a823e3d90fd5b6040513d87823e3d90fd5b506108fc61084d565b60405160e560020a62461bcd02815260048101839052602c60248201527f696e73756666696369656e742061647665727469736572207265676973747261604482015260a060020a6b74696f6e20616d6f756e7421026064820152608490fd5b60405160e560020a62461bcd0281526004810183905260116024820152607860020a706164766572746973657220657869737473026044820152606490fd5b610a579150833d85116104de576104d0818361377e565b38610833565b6040513d88823e3d90fd5b8280fd5b5080fd5b5080610a7b36613812565b610a8960ff60035416613b45565b8254600160a060020a0390610aa190821633146139c1565b821691610aaf831515613b94565b60405160e060020a634209fff1028152600481019390935273__User__________________________________92602081602481875af4801561098d57610afe918691610b41575b5015613bf5565b823b15610b3c5760405160e060020a63a1e6ab9f028152928492849283918291610b2b9160048401613cae565b03915af480156104a8576104985750f35b505050fd5b610b59915060203d81116104de576104d0818361377e565b38610af7565b5034610377578060031936011261037757610b7e60ff60035416613b45565b610b89331515613cd6565b60405160e060020a63bf04a10d028152818160048173__User__________________________________5af49081156104a857610bd2916020918491610c4c57506103f3613c8b565b038173__StringUtils___________________________5af480156104a857610c019183916104b75750613dee565b60405160e160020a636dd9b669028152818160048173__FriendsFollowers______________________5af49081156104a857826103739392610677575050604051918291826136dc565b61050c91503d8086833e610504818361377e565b5034610377578060031936011261037757610373604051610c8081613763565b60158152605860020a744d79204b726f6e65652c204d7920467269656e6421026020820152604051918291602083526020830190613877565b5060403660031901126103775780610ccf613720565b610cdd60ff60035416613b45565b610cf2600160a060020a0383541633146139c1565b73__Comment_______________________________803b156104b35760405160e060020a6336032351028152918391839182908190610b2b9060243590600484016139a6565b5060209081600319360112610377576004356001604060020a038111610a6c57610d669036906004016137bc565b610d7460ff60035416613b45565b60405160e060020a63d2e9403702815273__Advertiser____________________________91908481600481865af4908115610e8e5790610dbc918591610e71575b50613edc565b600b543403610e1a5792829383803415610e11575b8180809234903090f1156104e557823b15610b3c57610b2b92849260405180958194829360e060020a63d2ab487302845260048401526024830190613877565b506108fc610dd1565b60405160e560020a62461bcd02815260048101859052602360248201527f696e73756666696369656e74206e6577206164766572746973656d656e742066604482015260e860020a62656521026064820152608490fd5b610e889150863d88116104de576104d0818361377e565b38610db6565b6040513d86823e3d90fd5b506020908160031936011261037757610eb0613720565b610ebe60ff60035416613b45565b610ec9331515613cd6565b60405160e060020a63bf04a10d02815273__User__________________________________9073__StringUtils___________________________8482600481865af491821561098d578592611195575b50610f4886610f27613c8b565b60405160e160020a63235ee54d028082529590938492839260048401613c3d565b0381855af4908115610a5d5790610f6591879161117e5750613dee565b610f7866038d7ea4c68000333111613f2b565b60405160e460020a6303816855028152600160a060020a0390941660048501819052938581602481875af4908115610a5d5791610fd8939188938891611164575b50610fc2613c8b565b9260405195869485938493845260048401613c3d565b03915af4908115610e8e5790610ff5918591611147575b50613f74565b600c5434036110ff579260248184956040519283809260e160020a637714b17f0282528760048301525af4908115610e8e5784916110e2575b50156110b657828034156110ad575b8180809234903090f1156104a8576004908284525260408220611061348254613905565b90555b73__FriendsFollowers______________________90813b156104b357829060246040518094819360e260020a6333bab17502835260048301525af480156104a8576104985750f35b506108fc61103d565b50818034156110d9575b81808092853491f16110645750604051903d90823e3d90fd5b506108fc6110c0565b6110f99150823d84116104de576104d0818361377e565b3861102e565b60405160e560020a62461bcd02815260048101859052601a60248201527f696e73756666696369656e7420666f6c6c6f77657220666565210000000000006044820152606490fd5b61115e9150863d88116104de576104d0818361377e565b38610fef565b61117891503d808a833e610504818361377e565b38610fb9565b6104d89150883d8a116104de576104d0818361377e565b6111aa9192503d8087833e610504818361377e565b9038610f1a565b503461037757806003193601126103775760405160e060020a63bf04a10d028152818160048173__User__________________________________5af49081156104a85761120b916020918491610c4c57506103f3613c8b565b038173__StringUtils___________________________5af49081156104a85761123a92916104b75750613dee565b60203331604051908152f35b5034610377578060031936011261037757600654604051600160a060020a039091168152602090f35b5061127936613812565b90611285331515613cd6565b600160a060020a03168083526005602052604083205490919060ff166113a557811561135f57600e543403611317578280341561130e575b81808092863491f1156104a8577f01c81add4df1fc5f9fff41d9d1b71caa654d9b6eb4fcb855b98fc9de54a00fd4916105606040519283923384526020840152606060408401526060830190613877565b506108fc6112bd565b60405160e560020a62461bcd02815260206004820152601e60248201527f696e73756666696369656e742075736572206d657373616765206665652100006044820152606490fd5b60405160e560020a62461bcd0281526020600482015260186024820152604060020a77696e76616c696420636f6e73756d65722061646472657373026044820152606490fd5b60405160e560020a62461bcd02815260206004820152604960248201527f636f6e73756d657220686173206f707465642d6f757420746f2072656365697660448201527f656420616e792065787465726e616c206d65737361676573206f7220636f6d6d606482015260b960020a683ab734b1b0ba34b7b702608482015260a490fd5b508060031936011261037757611449600160a060020a03825416331461389c565b611451613ac1565b80f35b503461037757806003193601126103775760405160e060020a63bf04a10d028152818160048173__User__________________________________5af49081156104a8578261037393926114b9575b5050604051918291602083526020830190613877565b6114cd92503d8091833e610504818361377e565b38806114a3565b50604036600319011261037757806114ea613720565b6114f860ff60035416613b45565b61150d600160a060020a0383541633146139c1565b73__SocialFeeds___________________________803b156104b35760405160e160020a634e3784f1028152918391839182908190610b2b9060243590600484016139a6565b50346103775780600319360112610377576020604051601e8152f35b508060031936011261037757611586331515613cd6565b600f5434036115f9578080808066038d7ea4c680003082f1156115ed5760405160e160020a6267471f028152818160048173__User__________________________________5af49081156104a857826103739392610677575050604051918291826136dc565b604051903d90823e3d90fd5b60405160e560020a62461bcd02815260206004820152601b60248201527f696e73756666696369656e742075736572206c697374206665652100000000006044820152606490fd5b503461037757806003193601126103775760405160e060020a63ab111d8b028152818160048173__Advertiser____________________________5af49081156104a85782916116eb575b506040519060209283830184845282518091526040840194806040818402870101940192955b8287106116bf5785850386f35b9091929382806116db600193603f198a82030186528851613877565b96019201960195929190926116b2565b90503d8083833e6116fc818361377e565b810160209081838203126117a65782516001604060020a03938482116117a257019080601f8301121561179e5781519061173582613e3d565b94611743604051968761377e565b828652848080880194028501019382851161179a57858101935b85851061177157505050505050503861168c565b845183811161179657879161178b86848094870101613d87565b81520194019361175d565b8980fd5b8780fd5b8480fd5b8580fd5b8380fd5b506060366003190112610377576117bf613720565b906044356001604060020a038111610a6c576117df9036906004016137bc565b6117ed60ff60035416613b45565b6117f8331515613cd6565b60405160e060020a63bf04a10d0281529273__User__________________________________908385600481855af4948515610e8e578495611a22575b5061183e613c8b565b946040519060e160020a63235ee54d02825281806118636020998a9460048401613c3d565b038173__StringUtils___________________________5af490811561098d5790611894918691611a0b5750613dee565b600a5434036119b4579360248185966040519283809260e160020a637714b17f028252600160a060020a0316968760048301525af490811561098d578591611997575b501561196d5783803415611964575b8180809234903090f1156104e557600490828552526040832061190a348254613905565b90555b73__Comment_______________________________91823b15610b3c57610b2b92849260405180958194829360e260020a632ab9d07102845260048401526024356024840152606060448401526064830190613877565b506108fc6118e6565b508280341561198e575b81808092853491f161190d576040513d84823e3d90fd5b506108fc611977565b6119ae9150823d84116104de576104d0818361377e565b386118d7565b60405160e560020a62461bcd028152600481018690526024808201527f696e73756666696369656e7420636f6d6d656e7420706f7374696e6720616d6f604482015260e060020a63756e7421026064820152608490fd5b6104d89150873d89116104de576104d0818361377e565b611a379195503d8086833e610504818361377e565b9338611835565b5034610377578060031936011261037757610373604051611a5e81613763565b6008815260c060020a674d794b726f6e6565026020820152604051918291602083526020830190613877565b50604036600319011261037757611a9f613720565b600160a060020a0390602435908282168203611b1557611ad28493611ac860ff60035416613b45565b84541633146139c1565b73__FriendsFollowers______________________91823b15610b3c5760405160e260020a632beacc73028152928492849283918291610b2b91600484016138eb565b600080fd5b503461037757602036600319011261037757611b34613720565b60405160e460020a6303816855028152600160a060020a039091166004820152818160248173__User__________________________________5af49081156104a8578261037393926114b9575050604051918291602083526020830190613877565b50346103775760203660031901126103775760209060ff90604090600160a060020a03611bc2613720565b168152600584522054166040519015158152f35b5080600319360112610377576020611bec613971565b604051600160a060020a039091168152f35b508060031936011261037757611c1f600160a060020a03825416331461389c565b611451613a0d565b5034610377578060031936011261037757611c4d600160a060020a03825416331461389c565b600080516020613fdb833981519152610560610553613971565b50602036600319011261037757611c8260ff60035416613b45565b611c8d331515613cd6565b60405160e060020a63bf04a10d028152818160048173__User__________________________________5af49081156104a857611cd6916020918491610c4c57506103f3613c8b565b038173__StringUtils___________________________5af480156104a857611d059183916104b75750613dee565b8073__Comment_______________________________803b1561094f5760405160e060020a63411dd2830281526004803590820152908290829060249082905af480156104a8576104985750f35b508060031936011261037757805481600160a060020a038216611d773382146139c1565b600080516020613ffb8339815191528280a3600160a060020a031916815580f35b5034610377576020366003190112610377576020611db4613720565b31604051908152f35b50806003193601126103775754611dde90600160a060020a031633146139c1565b60203031604051908152f35b50606036600319011261037757611dff613803565b6044356001604060020a038111610a6857611e1e9036906004016137bc565b90611e2d60ff60035416613b45565b611e38331515613cd6565b60405160e060020a63bf04a10d02815291838360048173__User__________________________________5af4928315610e8e57849361202d575b50611e7c613c8b565b926040519060e160020a63235ee54d0282528180611ea1602097889460048401613c3d565b038173__StringUtils___________________________5af4801561098d57611ed09186916120165750613dee565b6009543403611fd05783803415611fc7575b8180809234903090f1156104e55760405160e260020a630d7394c30281526004803590820152911515602483015260606044830152828280611f276064820185613877565b038173__SocialFeeds___________________________5af4918215610e8e578492611f88575b5091606091611f7c600080516020613fbb833981519152946040519485943386528501526060840190613877565b9060408301520390a180f35b9150918082813d8311611fc0575b611fa0818361377e565b81010312611b155790519091600080516020613fbb833981519152611f4e565b503d611f96565b506108fc611ee2565b60405160e560020a62461bcd0281526004810184905260186024820152604060020a77696e73756666696369656e7420706f7374696e6720666565026044820152606490fd5b6104d89150853d87116104de576104d0818361377e565b6120429193503d8086833e610504818361377e565b9138611e73565b5060403660031901126103775760043560243590612072600160a060020a03845416331461389c565b8061207e575060075580f35b6001810361208d575060085580f35b6002810361209c575060095580f35b600381036120ab5750600a5580f35b600481036120ba5750600b5580f35b600581036120c95750600c5580f35b600681036120d85750600d5580f35b600781036120e75750600e5580f35b6008146120f3575b5080f35b600f55386120ef565b5060203660031901126103775780612112613720565b61212060ff60035416613b45565b61212b331515613cd6565b60405160e060020a63bf04a10d028152828160048173__User__________________________________5af49081156104e5576121749160209185916104f057506103f3613c8b565b038173__StringUtils___________________________5af480156104e5576121a39184916104b75750613dee565b73__FriendsFollowers______________________803b156104b35760405160e260020a632beacc73028152918391839182908190610b2b9033600484016138eb565b508060031936011261037757611449600160a060020a0382541633146139c1565b508060031936011261037757611c1f600160a060020a0382541633146139c1565b5060a0366003190112610377576001604060020a03600435818111610a68576122559036906004016137bc565b906024358181116117a65761226e9036906004016137bc565b60443582811161179e576122869036906004016137bc565b6064358381116117a25761229e9036906004016137bc565b926084359081116117a2576122b79036906004016137bc565b916122c660ff60035416613b45565b6122d1331515613cd6565b60405160e060020a63d5f6618702815233600482015273__User__________________________________9190602081602481865af4908115610982578891612452575b50156124195760075434036123bf578695868034156123b6575b8180809234903090f115610a5d57823b1561097e5760405160e260020a63115724a30281528781600481875af49081156109825788916123a2575b5050612374613c8b565b94833b1561179a578795610b2b916040519889978896879660e060020a63b6644d0902885260048801613d1a565b6123ab90613736565b61097e57863861236a565b506108fc61232f565b60405160e560020a62461bcd02815260206004820152602660248201527f696e73756666696369656e74207573657220726567697374726174696f6e2061604482015260d060020a656d6f756e7421026064820152608490fd5b60405160e560020a62461bcd02815260206004820152600b602482015260a860020a6a7573657220657869737473026044820152606490fd5b61246a915060203d81116104de576104d0818361377e565b38612315565b508061247b36613812565b61248960ff60035416613b45565b8254600160a060020a03906124a190821633146139c1565b8216916124af831515613b94565b60405160e060020a634209fff1028152600481019390935273__User__________________________________92602081602481875af4801561098d576124fd918691610b41575015613bf5565b823b15610b3c5760405160e560020a630398f90d028152928492849283918291610b2b9160048401613cae565b5060209081600319360112610377576004356001604060020a038111610a6c576125589036906004016137bc565b61256660ff60035416613b45565b612571331515613cd6565b60405160e060020a63bf04a10d028152828160048173__User__________________________________5af49081156104e5576125b991859185916104f057506103f3613c8b565b038173__StringUtils___________________________5af49081156104e557906125ea9184916120165750613dee565b60405160e060020a633c94381902815273__FriendsFollowers______________________91908481600481865af4908115610e8e5784916126e9575b50655af3107a4000908181029181830414901517156126d257340361267b57928293823b15610b3c57610b2b92849260405180958194829360e060020a63578ea4ed02845260048401526024830190613877565b60405160e560020a62461bcd028152600481018590526024808201527f696e73756666696369656e7420667269656e64206e6f74696669636174696f6e604482015260e060020a6320666565026064820152608490fd5b60e060020a634e487b710284526011600452602484fd5b90508481813d831161270f575b612700818361377e565b81010312611b15575138612627565b503d6126f6565b506040366003190112610377578061272c613720565b61273a60ff60035416613b45565b61274f600160a060020a0383541633146139c1565b73__Advertiser____________________________803b156104b35760405160e160020a637a29527f028152918391839182908190610b2b9060243590600484016139a6565b50806127a036613812565b6127ae60ff60035416613b45565b8254600160a060020a03906127c690821633146139c1565b8216916127d4831515613b94565b60405160e060020a634209fff1028152600481019390935273__User__________________________________92602081602481875af4801561098d57612822918691610b41575015613bf5565b823b15610b3c5760405160e160020a632dd4187f028152928492849283918291610b2b9160048401613cae565b5060203660031901126103775780612865613720565b61287360ff60035416613b45565b61287e331515613cd6565b60405160e060020a63bf04a10d028152828160048173__User__________________________________5af49081156104e5576128c79160209185916104f057506103f3613c8b565b038173__StringUtils___________________________5af480156104e5576128f69184916104b75750613dee565b73__FriendsFollowers______________________90813b156104b35760405160e360020a6309d752d5028152600160a060020a039091166004820152908290829060249082905af480156104a8576104985750f35b503461037757604036600319011261037757612966613720565b61296e613803565b90600160a060020a031682526005602052604082209060ff80198354169115151617905580f35b5060031960e036820112610a6c576129ab613720565b6001604060020a03919060243583811161179e576129cd9036906004016137bc565b6044358481116117a2576129e59036906004016137bc565b60643585811161097e576129fd9036906004016137bc565b9060843586811161179a57612a169036906004016137bc565b9060a43587811161096657612a2f9036906004016137bc565b9660c43590811161096657612a489036906004016137bc565b93612a5760ff60035416613b45565b8854600160a060020a039790612a7090891633146139c1565b612a7d8888161515613b94565b60405160e060020a634209fff1028152878916600482015260208160248173__User__________________________________5af48015612e3857612ac9918c91612f4a575015613bf5565b73__User__________________________________3b156117965760405160e160020a637659c22b02815287891660048201528a90818160248173__User__________________________________5af480156104a857612f36575b5050612b6c6020604051612b3881613763565b6005815260d960020a6427bbb732b9028282015260405160e160020a63235ee54d0281529283918291908b60048401613c3d565b038173__StringUtils___________________________5af4908115612e38578b91612f17575b508015612ebd575b8015612e43575b8015612da3575b15612d6457899873__User__________________________________3b156117965760405160e260020a6312f81a89028152888a16600482015260e06024820152958a9587958695919291612c029060e4880190613877565b85878203016044880152612c1591613877565b84868203016064870152612c2891613877565b83858203016084860152612c3b91613877565b828482030160a4850152612c4e91613877565b908282030160c4830152612c629086613877565b038173__User__________________________________5af490811561098d578591612d50575b50506020612c99916103f3613c62565b038173__StringUtils___________________________5af4908115610e8e578491612d31575b50612ccc575b50505080f35b73__Advertiser____________________________91823b15610b3c5760405160e560020a6302f3819502815291166004820152908290829060249082905af480156104a857612d1d575b80612cc6565b612d2690613736565b610377578038612d17565b612d4a915060203d6020116104de576104d0818361377e565b38612cc0565b612d5990613736565b610b3c578338612c89565b60405160e560020a62461bcd0281526020600482015260116024820152607860020a70756e7265636f676e697a656420726f6c65026044820152606490fd5b50612dec6020604051612db581613763565b6008815260c160020a672b32b934b334b2b9028282015260405160e160020a63235ee54d0281529283918291908b60048401613c3d565b038173__StringUtils___________________________5af4908115612e38578b91612e19575b50612ba9565b612e32915060203d6020116104de576104d0818361377e565b38612e13565b6040513d8d823e3d90fd5b50612e716020612e51613c8b565b60405160e160020a63235ee54d0281529283918291908b60048401613c3d565b038173__StringUtils___________________________5af4908115612e38578b91612e9e575b50612ba2565b612eb7915060203d6020116104de576104d0818361377e565b38612e98565b50612ecb6020612e51613c62565b038173__StringUtils___________________________5af4908115612e38578b91612ef8575b50612b9b565b612f11915060203d6020116104de576104d0818361377e565b38612ef2565b612f30915060203d6020116104de576104d0818361377e565b38612b93565b612f3f90613736565b611796578938612b25565b610b59915060203d6020116104de576104d0818361377e565b5060209081600319360112610377576004356001604060020a038111610a6c57612f919036906004016137bc565b612f9f60ff60035416613b45565b612faa331515613cd6565b60405160e060020a63bf04a10d028152828160048173__User__________________________________5af49081156104e557612ff291859185916104f057506103f3613c8b565b038173__StringUtils___________________________5af49081156104e557906130239184916120165750613dee565b60405160e160020a63095cb00902815273__FriendsFollowers______________________91908481600481865af4908115610e8e57849161310e575b50655af3107a4000908181029181830414901517156126d25734036130b457928293823b15610b3c57610b2b92849260405180958194829360e160020a631a0a58d702845260048401526024830190613877565b60405160e560020a62461bcd02815260048101859052602660248201527f696e73756666696369656e7420666f6c6c6f776572206e6f7469666963617469604482015260d060020a656f6e20666565026064820152608490fd5b90508481813d8311613134575b613125818361377e565b81010312611b15575138613060565b503d61311b565b5060203660031901126103775761315660ff60035416613b45565b613161331515613cd6565b60405160e060020a63d2e94037028152819073__Advertiser____________________________90602081600481855af480156104e5576131a89184916131d45750613edc565b803b1561094f5781604051809260e160020a637a29527f0282528180610b2b60043533600484016139a6565b610e88915060203d81116104de576104d0818361377e565b506020908160031936011261037757613203613720565b61321160ff60035416613b45565b61321c331515613cd6565b60405160e060020a63bf04a10d02815273__User__________________________________9073__StringUtils___________________________8482600481865af491821561098d578592613461575b5061327a86610f27613c8b565b0381855af4908115610a5d579061329791879161117e5750613dee565b6132aa66038d7ea4c68000333111613f2b565b60405160e460020a6303816855028152600160a060020a0390941660048501819052938581602481875af4908115610a5d57916132f39391889388916111645750610fc2613c8b565b03915af4908115610e8e579061330f9185916111475750613f74565b600d543403613419579260248184956040519283809260e160020a637714b17f0282528760048301525af4908115610e8e5784916133fc575b50156133d057828034156133c7575b8180809234903090f1156104a857600490828452526040822061337b348254613905565b90555b73__FriendsFollowers______________________90813b156104b357829060246040518094819360e360020a6315affd4f02835260048301525af480156104a8576104985750f35b506108fc613357565b50818034156133f3575b81808092853491f161337e5750604051903d90823e3d90fd5b506108fc6133da565b6134139150823d84116104de576104d0818361377e565b38613348565b60405160e560020a62461bcd02815260048101859052602481018590527f696e73756666696369656e7420667269656e64207265717565737420666565216044820152606490fd5b6134769192503d8087833e610504818361377e565b903861326d565b503461037757806003193601126103775761349c60ff60035416613b45565b6134a7331515613cd6565b60405160e060020a63bf04a10d028152818160048173__User__________________________________5af49081156104a8576134f0916020918491610c4c57506103f3613c8b565b038173__StringUtils___________________________5af480156104a85761351f9183916104b75750613dee565b60405160e060020a630d79f561028152818160048173__FriendsFollowers______________________5af49081156104a857826103739392610677575050604051918291826136dc565b5060203660031901126103775761358560ff60035416613b45565b613590331515613cd6565b60405160e060020a63bf04a10d028152818160048173__User__________________________________5af49081156104a8576135d9916020918491610c4c57506103f3613c8b565b038173__StringUtils___________________________5af480156104a8576136089183916104b75750613dee565b73__SocialFeeds___________________________81813b156103775760405160e060020a636567d94b028152600480359082015291829060249082905af480156104a857613655575080f35b61145190613736565b5034610377578060031936011261037757602060ff60a060020a60065404166040519015158152f35b905034610a6c5781600319360112610a6c5760e160020a6267471f028152818160048173__User__________________________________5af49081156104a857826103739392610677575050604051918291825b6020908160408183019282815285518094520193019160005b828110613703575050505090565b8351600160a060020a0316855293810193928101926001016136f5565b60043590600160a060020a0382168203611b1557565b6001604060020a03811161374957604052565b60e060020a634e487b710260009081526041600452602490fd5b604081019081106001604060020a0382111761374957604052565b601f909101601f19168101906001604060020a0382119082101761374957604052565b6001604060020a03811161374957601f01601f191660200190565b81601f82011215611b15578035906137d3826137a1565b926137e1604051948561377e565b82845260208383010111611b1557816000926020809301838601378301015290565b602435908115158203611b1557565b906040600319830112611b1557600435600160a060020a0381168103611b155791602435906001604060020a038211611b1557613851916004016137bc565b90565b60005b8381106138675750506000910152565b8181015183820152602001613857565b9060209161389081518092818552858086019101613854565b601f01601f1916010190565b156138a357565b60405160e560020a62461bcd02815260206004820152601b60248201527f756e617574686f72697a65642c206e6f7420746865206f776e657200000000006044820152606490fd5b600160a060020a0391821681529116602082015260400190565b9190820180921161391257565b60e060020a634e487b710260009081526011600452602490fd5b1561393357565b60405160e560020a62461bcd0281526020600482015260106024820152608160020a6f3930ba32903634b6b4ba1032b93937b9026044820152606490fd5b600154601e81018091116139125761399390421161398e8161392c565b61392c565b42600155600054600160a060020a031690565b600160a060020a039091168152602081019190915260400190565b156139c857565b60405160e560020a62461bcd0281526020600482015260176024820152604960020a7630b1b1b2b9b9903232b734b2b2103337b91037bbb732b9026044820152606490fd5b60ff19600354166003557fc161c5a84c30bc51746f28a7736664d7dae3f0fad3d92e4bb813d68bad76ec2160405180613a47363383613a88565b0390a16006805460a060020a60ff02191690556040513381527fb18c5f060015f17d5e25133087735d783bdba3a5cf1e01a7242b1e689ace472890602090a1565b600160a060020a0390911681526040602082018190528101829052606091806000848401376000828201840152601f01601f1916010190565b600160ff1960035416176003557f33c68eeb60b17ccd4973bd4579ebb2e6156ecfd1defb9e8be822e959cca0253e60405180613afe363383613a88565b0390a16006805460a060020a60ff02191660a060020a1790556040513381527f97edc7d28bb4e73f5f1ec8393c846eaf216e294388e08dc5cce26e589d63f59c90602090a1565b15613b4c57565b60405160e560020a62461bcd02815260206004820152601c60248201527f636f6e74726163742061637469766974792069732066726f7a656e21000000006044820152606490fd5b15613b9b57565b60405160e560020a62461bcd0281526020600482015260146024820152606060020a736d697373696e6720757365722061646472657373026044820152606490fd5b90816020910312611b1557518015158103611b155790565b15613bfc57565b60405160e560020a62461bcd0281526020600482015260136024820152606860020a727573657220616c726561647920657869737473026044820152606490fd5b9091613c5461385193604084526040840190613877565b916020818403910152613877565b60405190613c6f82613763565b600a825260b160020a6920b23b32b93a34b9b2b9026020830152565b60405190613c9882613763565b6004825260e160020a632ab9b2b9026020830152565b90613cc6602091949394604084526040840190613877565b600160a060020a03909416910152565b15613cdd57565b60405160e560020a62461bcd02815260206004820152600f6024820152608860020a6e6d697373696e672061646472657373026044820152606490fd5b949193613d5d613d7994613d4f6138519997613d41613d6b9660c08c5260c08c0190613877565b908a820360208c0152613877565b9088820360408a0152613877565b908682036060880152613877565b908482036080860152613877565b9160a0818403910152613877565b81601f82011215611b15578051613d9d816137a1565b92613dab604051948561377e565b81845260208284010111611b15576138519160208085019101613854565b90602082820312611b155781516001604060020a038111611b15576138519201613d87565b15613df557565b60405160e560020a62461bcd02815260206004820152601a60248201527f617574686f72697a6564206f6e6c7920666f72206120757365720000000000006044820152606490fd5b6001604060020a0381116137495760208091020190565b6020908181840312611b15578051906001604060020a038211611b1557019180601f84011215611b15578251613e8981613e3d565b93613e97604051958661377e565b81855283808087019302820101928311611b15578301905b828210613ebd575050505090565b8151600160a060020a0381168103611b15578152908301908301613eaf565b15613ee357565b60405160e560020a62461bcd02815260206004820152601f60248201527f756e617574686f72697a65642c206e6f7420616e2061647665727469736572006044820152606490fd5b15613f3257565b60405160e560020a62461bcd0281526020600482015260146024820152606060020a73696e73756666696369656e742062616c616e6365026044820152606490fd5b15613f7b57565b60405160e560020a62461bcd0281526020600482015260116024820152607a60020a701d5cd95c881a5cc81b9bdd081d985b1a59026044820152606490fdfeda803178f0e32ef3a489f4a8ac28377ec0537c4f57c42be4c349e457b355e0cd91ca00fdf29069527d658f8dfc6d1c0bf9861780bb45ff36436f938d3595a8d68be0079c531659141344cd1fd0a4f28419497f9722a3daafe3b4186f6b6457e0a264697066735822122017dc26c3f8a5bf4ae332c73c06a0da80817b4d52d432b0c22fc5624b3899207464736f6c63430008120033",
  "immutableReferences": {},
  "source": "// SPDX-License-Identifier: CC-BY-4.0\npragma solidity >=0.4.22 <0.9.0;\n\n/**\n * Earning potential:\n *\n * Owner/Contract:\n *  - earns from user and advertiser registration\n *  - earns from user posting\n *  - earns from advertiser posting\n *  - earns from user list\n *\n * User:\n *  - earns from comments, friend requests, follower, message notification as a friend and follower, likes and dislikes on posts and comments\n *\n * Advertiser:\n *  - earns from the sale of the product or service in their advertisement\n */\n\nimport \"../common/Version.sol\";\nimport \"../libs/User.sol\";\nimport \"../common/Frozen.sol\";\nimport \"../libs/StringUtils.sol\";\nimport \"./Advertiser.sol\";\nimport \"./SocialFeed.sol\";\nimport \"./FriendsFollowers.sol\";\nimport \"./Comment.sol\";\nimport \"./LikesDislikes.sol\";\n\ncontract SocialNetwork is Version, Frozen {\n\n    event ContractCallback(address sender);\n\n    string public constant SOCIAL_NETWORK_NAME = \"MyKronee\";\n    string public constant SOCIAL_NETWORK_TAGLINE = \"My Kronee, My Friend!\";\n\n    bytes32 constant private ZERO_BYTES = bytes32(0);\n    address constant private ZERO_ADDRESS = address(0);\n\n    bool private initialized;\n\n    event ContractFrozen(address sender);\n    event ContractThawed(address sender);\n    event CashOut(address owner, uint256 amount);\n\n    event MessageUser(address sender, address user, string message);\n\n    mapping (address => uint256) private balances;\n    // optout mapping is made public to comply with DO-NOT-CALL legislation\n    mapping (address => bool) public optout;\n\n    address public payable_address;\n    bool    public active = false;\n\n    uint256 private registrationUserFee = 0.0001 ether;\n    uint256 private registrationAdvertiserFee = 0.01 ether;\n    uint256 private postingFee = 0.0005 ether;\n    uint256 private commentFee = 0.0001 ether;\n    uint256 private newAdvertisementFee = 0.01 ether;\n    uint256 private addFollowerFee = 0.0001 ether;\n    uint256 private friendRequestFee = 0.0001 ether;\n    uint256 private sendUserMessageFee = 0.0001 ether;\n    uint256 private userListingFee = 0.001 ether;\n\n    constructor()\n        payable\n    {\n        User.addUser();\n        User.addUserMeta(SOCIAL_NETWORK_NAME,\"\",\"\",\"\",\"\",string(\"Owner\"));\n        payable_address = msg.sender;\n    }\n\n    function updateFees(uint fee, uint256 amount)\n        public\n        payable\n        okOwner\n    {\n        if (fee == 0) registrationUserFee = amount;\n        else if (fee == 1) registrationAdvertiserFee = amount;\n        else if (fee == 2) postingFee = amount;\n        else if (fee == 3) commentFee = amount;\n        else if (fee == 4) newAdvertisementFee = amount;\n        else if (fee == 5) addFollowerFee = amount;\n        else if (fee == 6) friendRequestFee = amount;\n        else if (fee == 7) sendUserMessageFee = amount;\n        else if (fee == 8) userListingFee = amount;\n    }\n\n    modifier addressValid() {\n        require(msg.sender != address(0), \"missing address\");\n        _;\n    }\n\n    modifier canPayFee() {\n        require(msg.sender.balance > 0.001 ether,\"insufficient balance\");\n        _;\n    }\n\n    modifier isUser() {\n        require(StringUtils.equal(User.getUserRole(), User.USER_ROLE),\"authorized only for a user\");\n        _;\n    }\n\n    modifier userNotExist() {\n        require(User.notUser(msg.sender), \"user exists\");\n        _;\n    }\n\n    modifier advertiserNoExist() {\n        require(Advertiser.notAdvertiser(), \"advertiser exists\");\n        _;\n    }\n\n\n    function freeze()\n        payable\n        public\n        onlyOwner\n    {\n        stop();\n        active = false;\n        emit ContractFrozen(msg.sender);\n    }\n\n    function unfreeze()\n        payable\n        public\n        onlyOwner\n    {\n        start();\n        active = true;\n        emit ContractThawed(msg.sender);\n    }\n\n    function freeze_insecure()\n        payable\n        public\n        okOwner\n    {\n        stop();\n        active = false;\n        emit ContractFrozen(msg.sender);\n    }\n\n    function unfreeze_insecure()\n        payable\n        public\n        okOwner\n    {\n        start();\n        active = true;\n        emit ContractThawed(msg.sender);\n    }\n\n\n    /**\n     * Registration, advertisement and posting fees are made payable to the contract address.\n     * The owner will have to withdraw and pay taxes on the earnings from these fees.\n     * This method permits an authenticated cash out of the contract balance to the contract owner.\n     *\n     * The comment, friend, followers, likes and dislike fees are paid to the originating user at the time\n     * of the event. The user is responsible for reporting earnings.\n     */\n    function cashoutToOwner()\n        public\n        payable\n        onlyOwner\n    {\n        require(address(this).balance > 0,\"no balance to transfer to owner\");\n        uint256 balance = address(this).balance;\n        payable(getOwner()).transfer(balance);\n        emit CashOut(getOwner(),balance);\n    }\n\n    function addUser(address _useraddress,string memory fullname, string memory profession, string memory location,\n                     string memory dob, string memory interests,\n                     string memory role)\n        public\n        payable\n        isRunning\n        onlyOwner\n    {\n        require(_useraddress != ZERO_ADDRESS, \"missing user address\");\n        require(User.isUser(_useraddress) == false,\"user already exists\");\n        User.addUserByAddress(_useraddress);\n\n        if (StringUtils.equal(role, User.OWNER_ROLE) ||\n            StringUtils.equal(role, User.ADVERTISER_ROLE) ||\n            StringUtils.equal(role, User.USER_ROLE) ||\n            StringUtils.equal(role, User.VERIFIER_ROLE))\n        {\n            User.updateUserMetaByAddress(_useraddress,fullname,profession,location,dob,interests,role);\n            if (StringUtils.equal(role, User.ADVERTISER_ROLE)) {\n                Advertiser.addAdvertiser(_useraddress);\n            }\n        } else {\n            revert(\"unrecognized role\");\n        }\n    }\n\n    function deleteUser(address _useraddress, string memory role)\n        public\n        payable\n        isRunning\n        onlyOwner\n    {\n        require(_useraddress != ZERO_ADDRESS, \"missing user address\");\n        require(User.isUser(_useraddress) == false,\"user already exists\");\n        User.revokeRole(role,_useraddress);\n    }\n\n    function blockUser(address _useraddress,string memory role)\n        public\n        payable\n        isRunning\n        onlyOwner\n    {\n        require(_useraddress != ZERO_ADDRESS, \"missing user address\");\n        require(User.isUser(_useraddress) == false,\"user already exists\");\n        User.renounceRole(role,_useraddress);\n    }\n\n    function unblockUser(address _useraddress,string memory role)\n        public\n        payable\n        isRunning\n        onlyOwner\n    {\n        require(_useraddress != ZERO_ADDRESS, \"missing user address\");\n        require(User.isUser(_useraddress) == false,\"user already exists\");\n        User.restoreRole(role, _useraddress);\n    }\n\n    function registerAdvertiser(string memory fullname, string memory location,string memory dob)\n        public\n        payable\n        isRunning\n        addressValid\n        advertiserNoExist\n    {\n        require(msg.value == registrationAdvertiserFee,\"insufficient advertiser registration amount!\");\n        payable(address(this)).transfer(msg.value);\n        User.addUser();\n        User.updateUserMeta(fullname,string(\"Advertiser\"),location,dob,string(\"advertising\"),User.ADVERTISER_ROLE);\n        Advertiser.addAdvertiser(msg.sender);\n    }\n    \n\n    function register(string memory fullname, string memory profession, string memory location, string memory dob, string memory interests)\n        public\n        payable\n        isRunning\n        addressValid\n        userNotExist\n    {\n        require(msg.value == registrationUserFee,\"insufficient user registration amount!\");\n        payable(address(this)).transfer(msg.value);\n        User.addUser();\n        User.updateUserMeta(fullname,profession,location,dob,interests,User.USER_ROLE);\n    }\n\n    /**\n     * The contract gets a fee for posting\n     */\n    function post(uint256 timestamp, bool visibility, string memory message)\n        public\n        payable\n        isRunning\n        addressValid\n        isUser\n    {\n        require(msg.value == postingFee,\"insufficient posting fee\");\n        payable(address(this)).transfer(msg.value);\n        uint index = SocialFeeds.addPostv2(timestamp, visibility, message);\n        emit SocialFeeds.PostAdded(msg.sender,message,index);\n    }\n\n    function adminDeletePost(address poster, uint index)\n        public\n        payable\n        isRunning\n        onlyOwner\n    {\n        SocialFeeds.removePost(poster, index);\n    }\n\n    function deletePost(uint index)\n        public\n        payable\n        isRunning\n        addressValid\n        isUser\n    {\n        SocialFeeds.removePostByUser(index);\n    }\n\n    /**\n     * The post owner gets a fee for all comments added to the post, pays 0.0001 ether per post\n     */\n    function addComment(address poster, uint index, string memory message)\n        public\n        payable\n        isRunning\n        addressValid\n        isUser\n    {\n        require(msg.value == commentFee,\"insufficient comment posting amount!\");\n        if (User.isBackupWithholding(poster)) {\n            // poster (receiver) is subject to backup withholding, so keep a running balance, transfer to contract address\n            payable(address(this)).transfer(msg.value);\n            balances[poster] += msg.value;\n        } else {\n            payable(poster).transfer(msg.value);\n        }\n        Comment.addComment(poster,index,message);\n    }\n\n    function adminDeleteComment(address _useraddress,uint index)\n        public\n        payable\n        isRunning\n        onlyOwner\n    {\n        Comment.deleteComment(_useraddress,index);\n    }\n\n    function deleteComment(uint index)\n        public\n        payable\n        isRunning\n        addressValid\n        isUser\n    {\n        Comment.deleteCommentByUser(index);\n    }\n\n    function getUsers()\n        public\n        view\n        returns (address[] memory)\n    {\n        return User.getUsers();\n    }\n\n    function getAdvertisers()\n        public\n        view\n        returns (address[] memory)\n    {\n        return Advertiser.getAdvertisers();\n    }\n\n    function newAdvertisement(string memory message)\n        public\n        payable\n        isRunning\n    {\n        require(Advertiser.isAdvertiser(),\"unauthorized, not an advertiser\");\n        require(msg.value == newAdvertisementFee,\"insufficient new advertisement fee!\");\n        payable(address(this)).transfer(msg.value);\n        Advertiser.newAdvertisement(message);\n    }\n\n    function adminDeleteAdvertisement(address _advertiseraddress, uint index)\n        public\n        payable\n        isRunning\n        onlyOwner\n    {\n        Advertiser.deleteAdvertisement(_advertiseraddress,index);\n    }\n\n    function deleteAdvertisement(uint index)\n        public\n        payable\n        isRunning\n        addressValid\n    {\n        require(Advertiser.isAdvertiser(),\"unauthorized, not an advertiser\");\n        Advertiser.deleteAdvertisement(msg.sender, index);\n    }\n\n    function getAdvertisements()\n        public\n        view\n        returns (string[] memory)\n    {\n        return Advertiser.getAdvertisements();\n    }\n\n    function getContractBalance()\n        public\n        payable\n        onlyOwner\n        returns (uint256)\n    {\n        return address(this).balance;\n    }\n\n    function getUserRole()\n        public\n        view\n        returns (string memory)\n    {\n        return User.getUserRole();\n    }\n\n    function getRoleOfUser(address useraddress)\n        public\n        view\n        returns (string memory)\n    {\n        return User.getUserRoleByAddress(useraddress);\n    }\n\n    /**\n     * When you follow a user, you are sending a small compensation to the user as a thank you.\n     * User earns 0.0001 ether per each new follower\n     */\n    function addFollower(address user)\n        public\n        payable\n        isRunning\n        addressValid\n        isUser\n        canPayFee\n    {\n        require(StringUtils.equal(User.getUserRoleByAddress(user), User.USER_ROLE), \"user is not valid\");\n        require(msg.value == addFollowerFee,\"insufficient follower fee!\");\n\n        if (User.isBackupWithholding(user)) {\n            // poster (receiver) is subject to backup withholding, so keep a running balance, transfer to contract address\n            payable(address(this)).transfer(msg.value);\n            balances[user] += msg.value;\n        } else {\n            payable(user).transfer(msg.value); // send a small compensation to the user you are following\n        }\n        FriendsFollowers.addFollower(user);\n    }\n\n    function getFollowers()\n        public\n        view\n        isRunning\n        addressValid\n        isUser\n        returns (address[] memory)\n    {\n        return FriendsFollowers.getFollowers();\n    }\n\n    /**\n     * User earns 0.0001 ether per each new friend request. Only friends can comment on a user's posts\n     */\n    function makeFriendRequest(address user)\n        public\n        payable\n        isRunning\n        addressValid\n        isUser\n        canPayFee\n    {\n        require(StringUtils.equal(User.getUserRoleByAddress(user), User.USER_ROLE), \"user is not valid\");\n        require(msg.value == friendRequestFee,\"insufficient friend request fee!\");\n\n        if (User.isBackupWithholding(user)) {\n            // poster (receiver) is subject to backup withholding, so keep a running balance, transfer to contract address\n            payable(address(this)).transfer(msg.value);\n            balances[user] += msg.value;\n        } else {\n            payable(user).transfer(msg.value); // send a small compensation to the user you are following\n        }\n        FriendsFollowers.addFriendRequest(user);\n    }\n\n    function adminDeleteFollower(address _useraddress,address _followeraddress)\n        public\n        payable\n        isRunning\n        onlyOwner\n    {\n        FriendsFollowers.removeFollower(_useraddress,_followeraddress);\n    }\n\n    function deleteFollower(address _followeraddress)\n        public\n        payable\n        isRunning\n        addressValid\n        isUser\n    {\n        FriendsFollowers.removeFollower(msg.sender,_followeraddress);\n    }\n\n    function getFriendRequests()\n        public\n        view\n        isRunning\n        addressValid\n        isUser\n        returns (address[] memory)\n    {\n        return FriendsFollowers.getFriendRequest();\n    }\n\n    function approveFriendRequest(address requestor)\n        public\n        payable\n        isRunning\n        addressValid\n        isUser\n    {\n        FriendsFollowers.approveFriendRequest(requestor);\n    }\n\n    function deleteFriendRequest(address requestor)\n        public\n        payable\n        isRunning\n        addressValid\n        isUser\n    {\n        FriendsFollowers.deleteFriendRequest(requestor);\n    }\n\n    /**\n     * User sends 0.0001 ether to each follower;\n     */\n    function notifyFollowers(string memory message)\n        public\n        payable\n        isRunning\n        addressValid\n        isUser\n    {\n        uint256 totalFolloweres = FriendsFollowers.getTotalFollowers();\n        require(msg.value == totalFolloweres * 0.0001 ether,\"insufficient follower notification fee\");\n        FriendsFollowers.notifyFollowers(message);\n    }\n\n    function notifyFriends(string memory message)\n        public\n        payable\n        isRunning\n        addressValid\n        isUser\n    {\n        uint256 totalFriends = FriendsFollowers.getTotalFriends();\n        require(msg.value == totalFriends * 0.0001 ether,\"insufficient friend notification fee\");\n        FriendsFollowers.notifyFriends(message);\n    }\n\n    /**\n     * Payments\n     */\n    function balanceOf(address account)\n        public\n        view\n        returns (uint256)\n    {\n        return account.balance;\n    }\n\n    function myBalance()\n        public\n        view\n        isUser\n        returns (uint256)\n    {\n        return msg.sender.balance;\n    }\n\n    /**\n     * User pays small gas fee to change opt-out status\n     */\n    function userChangeOptsOutStatus(address user, bool status)\n        public\n    {\n      optout[user] = status;\n    }\n\n    /**\n     * Permits third party marketers to send messages to consumers via the connected DAPP for a fee paid to a verified consumer.\n     * Consumer has option to opt-out, if they choose to receive communication, they can now get paid for each message received.\n     *\n     * Since no Personal Identifying Information (PII) is linked to the wallet on the public chain, there is no matching demographics and\n     * just plain blind advertising which is most email campaigns.\n     */\n    function sendUserMessage(address user, string memory message)\n      public\n      payable\n      addressValid\n    {\n      require(optout[user] == false,\"consumer has opted-out to received any external messages or communication\");\n      require(user != ZERO_ADDRESS,\"invalid consumer address\");\n      require(msg.value == sendUserMessageFee,\"insufficient user message fee!\");\n      payable(user).transfer(msg.value);\n      emit MessageUser(msg.sender,user,message);\n    }\n\n    /**\n     * A marketer can buy the consumer list of wallet addresses. No PII is attached and no demographics.\n     * Though a marketer can query the blockchain for matching transactions and develop their own demographics?\n     * The next analytic metric?\n     */\n    function getUserList()\n      public\n      payable\n      addressValid\n      returns (address[] memory)\n    {\n      require(msg.value == userListingFee,\"insufficient user list fee!\");\n      payable(address(this)).transfer(0.001 ether);\n      return User.getUsers();\n    }\n}\n",
  "sourcePath": "/Volumes/HOME/pingleware-contracts/contracts/social/SocialNetwork.sol",
  "compiler": {
    "name": "solc",
    "version": "0.8.18+commit.87f61d96.Emscripten.clang"
  },
  "schemaVersion": "3.4.12",
  "updatedAt": "2024-05-23T18:56:27.302Z",
  "devdoc": {
    "kind": "dev",
    "methods": {
      "renounceOwnership()": {
        "details": "Leaves the contract without owner. It will not be possible to call `onlyOwner` functions anymore. Can only be called by the current owner. NOTE: Renouncing ownership will leave the contract without an owner, thereby removing any functionality that is only available to the owner."
      },
      "transferOwnership(address)": {
        "details": "Transfers ownership of the contract to a new account (`newOwner`). Can only be called by the current owner."
      }
    },
    "version": 1
  },
  "userdoc": {
    "kind": "user",
    "methods": {
      "addComment(address,uint256,string)": {
        "notice": "The post owner gets a fee for all comments added to the post, pays 0.0001 ether per post"
      },
      "addFollower(address)": {
        "notice": "When you follow a user, you are sending a small compensation to the user as a thank you. User earns 0.0001 ether per each new follower"
      },
      "balanceOf(address)": {
        "notice": "Payments"
      },
      "cashoutToOwner()": {
        "notice": "Registration, advertisement and posting fees are made payable to the contract address. The owner will have to withdraw and pay taxes on the earnings from these fees. This method permits an authenticated cash out of the contract balance to the contract owner. The comment, friend, followers, likes and dislike fees are paid to the originating user at the time of the event. The user is responsible for reporting earnings."
      },
      "getUserList()": {
        "notice": "A marketer can buy the consumer list of wallet addresses. No PII is attached and no demographics. Though a marketer can query the blockchain for matching transactions and develop their own demographics? The next analytic metric?"
      },
      "makeFriendRequest(address)": {
        "notice": "User earns 0.0001 ether per each new friend request. Only friends can comment on a user's posts"
      },
      "notifyFollowers(string)": {
        "notice": "User sends 0.0001 ether to each follower;"
      },
      "post(uint256,bool,string)": {
        "notice": "The contract gets a fee for posting"
      },
      "sendUserMessage(address,string)": {
        "notice": "Permits third party marketers to send messages to consumers via the connected DAPP for a fee paid to a verified consumer. Consumer has option to opt-out, if they choose to receive communication, they can now get paid for each message received. Since no Personal Identifying Information (PII) is linked to the wallet on the public chain, there is no matching demographics and just plain blind advertising which is most email campaigns."
      },
      "userChangeOptsOutStatus(address,bool)": {
        "notice": "User pays small gas fee to change opt-out status"
      }
    },
    "version": 1
  }
}