{
  "contractName": "SocialFeeds",
  "abi": [
    {
      "anonymous": false,
      "inputs": [
        {
          "indexed": false,
          "internalType": "address",
          "name": "sender",
          "type": "address"
        },
        {
          "indexed": false,
          "internalType": "string",
          "name": "message",
          "type": "string"
        }
      ],
      "name": "PostAdded",
      "type": "event"
    },
    {
      "inputs": [],
      "name": "getPosters",
      "outputs": [
        {
          "internalType": "address[]",
          "name": "",
          "type": "address[]"
        }
      ],
      "stateMutability": "view",
      "type": "function"
    },
    {
      "inputs": [],
      "name": "getTotalPosters",
      "outputs": [
        {
          "internalType": "uint256",
          "name": "",
          "type": "uint256"
        }
      ],
      "stateMutability": "view",
      "type": "function"
    },
    {
      "inputs": [],
      "name": "getPostsv2",
      "outputs": [
        {
          "components": [
            {
              "internalType": "uint256",
              "name": "epoch",
              "type": "uint256"
            },
            {
              "internalType": "bool",
              "name": "visible",
              "type": "bool"
            },
            {
              "internalType": "string",
              "name": "content",
              "type": "string"
            }
          ],
          "internalType": "struct SocialFeeds.Post[]",
          "name": "",
          "type": "tuple[]"
        }
      ],
      "stateMutability": "view",
      "type": "function"
    },
    {
      "inputs": [],
      "name": "getTotalPostsv2",
      "outputs": [
        {
          "internalType": "uint256",
          "name": "",
          "type": "uint256"
        }
      ],
      "stateMutability": "view",
      "type": "function"
    },
    {
      "inputs": [],
      "name": "getTotalPosts",
      "outputs": [
        {
          "internalType": "uint256",
          "name": "",
          "type": "uint256"
        }
      ],
      "stateMutability": "view",
      "type": "function"
    },
    {
      "inputs": [
        {
          "internalType": "uint256",
          "name": "index",
          "type": "uint256"
        }
      ],
      "name": "getPosts",
      "outputs": [
        {
          "internalType": "string",
          "name": "",
          "type": "string"
        }
      ],
      "stateMutability": "view",
      "type": "function"
    },
    {
      "inputs": [],
      "name": "getAllPosts",
      "outputs": [
        {
          "internalType": "string",
          "name": "",
          "type": "string"
        }
      ],
      "stateMutability": "view",
      "type": "function"
    }
  ],
  "bytecode": "0x610d3b610053600b82828239805160001a607314610046577f4e487b7100000000000000000000000000000000000000000000000000000000600052600060045260246000fd5b30600052607381538281f3fe73000000000000000000000000000000000000000030146080604052600436106100c5576000357c0100000000000000000000000000000000000000000000000000000000900480635fe226b41161008d5780635fe226b4146101525780638814e79e14610168578063a632281914610170578063badd239e14610190578063ebf86ee8146101a557600080fd5b80631d45cddc146100ca57806330561100146100f357806335ce530c146100fb5780633b3a39341461011d5780635f0e4f7b14610132575b600080fd5b6100dd6100d8366004610993565b6101ad565b6040516100ea9190610a08565b60405180910390f35b6100dd6102fe565b81801561010757600080fd5b5061011b610116366004610ac1565b6104ef565b005b610125610574565b6040516100ea9190610b1f565b81801561013e57600080fd5b5061011b61014d366004610b79565b6105ec565b61015a61062c565b6040519081526020016100ea565b61015a61064f565b81801561017c57600080fd5b5061015a61018b366004610b79565b61066f565b6101986107a7565b6040516100ea9190610bb6565b61015a6108c3565b60606101b76108d6565b33600090815260019190910160205260409020548210610237576040517f08c379a000000000000000000000000000000000000000000000000000000000815260206004820152601460248201527f706f737420646f6573206e6f7420657869737473000000000000000000000000604482015260640160405180910390fd5b61023f6108d6565b3360009081526001919091016020526040902080548390811061026457610264610c34565b90600052602060002001805461027990610c4d565b80601f01602080910402602001604051908101604052809291908181526020018280546102a590610c4d565b80156102f25780601f106102c7576101008083540402835291602001916102f2565b820191906000526020600020905b8154815290600101906020018083116102d557829003601f168201915b50505050509050919050565b604080516020810190915260008082526060919061031a6108d6565b60020154905060005b818110156104e75760006103356108d6565b600201828154811061034957610349610c34565b600091825260208220015473ffffffffffffffffffffffffffffffffffffffff1691506103746108d6565b73ffffffffffffffffffffffffffffffffffffffff831660009081526001919091016020908152604080832080548251818502810185019093528083529193909284015b828210156104645783829060005260206000200180546103d790610c4d565b80601f016020809104026020016040519081016040528092919081815260200182805461040390610c4d565b80156104505780601f1061042557610100808354040283529160200191610450565b820191906000526020600020905b81548152906001019060200180831161043357829003601f168201915b5050505050815260200190600101906103b8565b5050505090506000815111156104d25760005b81518110156104d0578582828151811061049357610493610c34565b60200260200101516040516020016104ac929190610c8b565b604051602081830303815290604052955080806104c890610cd3565b915050610477565b505b505080806104df90610cd3565b915050610323565b509092915050565b6040805160608101825284815283151560208201529081018290526105126108d6565b3360009081526020918252604080822080546001808201835591845292849020855160039094020192835584840151908301805460ff19169115159190911790558301518051849361056b9260028501929101906108fa565b50505050505050565b606061057e6108d6565b6002018054806020026020016040519081016040528092919081815260200182805480156105e257602002820191906000526020600020905b815473ffffffffffffffffffffffffffffffffffffffff1681526001909101906020018083116105b7575b5050505050905090565b6105f46108d6565b33600090815260019182016020908152604082208054938401815582529081902083516106289391909101918401906108fa565b5050565b60006106366108d6565b3360009081526001919091016020526040902054919050565b60006106596108d6565b3360009081526020919091526040902054919050565b6000808061067b6108d6565b6002015411156106fa5760005b6106906108d6565b600201548110156106f85760006106a56108d6565b60020182815481106106b9576106b9610c34565b60009182526020909120015473ffffffffffffffffffffffffffffffffffffffff1614156106e657600191505b806106f081610cd3565b915050610688565b505b8061073b576107076108d6565b60020180546001810182556000918252602090912001805473ffffffffffffffffffffffffffffffffffffffff1916331790555b6107436108d6565b33600090815260019182016020908152604082208054938401815582529081902085516107779391909101918601906108fa565b5060016107826108d6565b33600090815260019190910160205260409020546107a09190610cee565b9392505050565b60606107b16108d6565b336000908152602091825260408082208054825181860281018601909352808352919390929084015b828210156108ba576000848152602090819020604080516060810182526003860290920180548352600181015460ff161515938301939093526002830180549293929184019161082990610c4d565b80601f016020809104026020016040519081016040528092919081815260200182805461085590610c4d565b80156108a25780601f10610877576101008083540402835291602001916108a2565b820191906000526020600020905b81548152906001019060200180831161088557829003601f168201915b505050505081525050815260200190600101906107da565b50505050905090565b60006108cd6108d6565b60020154919050565b7f39a9c687aae655d3c197896faab84d6d0016cbcc7c19546f2b2a0417302da08690565b82805461090690610c4d565b90600052602060002090601f016020900481019282610928576000855561096e565b82601f1061094157805160ff191683800117855561096e565b8280016001018555821561096e579182015b8281111561096e578251825591602001919060010190610953565b5061097a92915061097e565b5090565b5b8082111561097a576000815560010161097f565b6000602082840312156109a557600080fd5b5035919050565b60005b838110156109c75781810151838201526020016109af565b838111156109d6576000848401525b50505050565b600081518084526109f48160208601602086016109ac565b601f01601f19169290920160200192915050565b6020815260006107a060208301846109dc565b60e060020a634e487b7102600052604160045260246000fd5b600082601f830112610a4557600080fd5b813567ffffffffffffffff80821115610a6057610a60610a1b565b604051601f8301601f19908116603f01168101908282118183101715610a8857610a88610a1b565b81604052838152866020858801011115610aa157600080fd5b836020870160208301376000602085830101528094505050505092915050565b600080600060608486031215610ad657600080fd5b8335925060208401358015158114610aed57600080fd5b9150604084013567ffffffffffffffff811115610b0957600080fd5b610b1586828701610a34565b9150509250925092565b6020808252825182820181905260009190848201906040850190845b81811015610b6d57835173ffffffffffffffffffffffffffffffffffffffff1683529284019291840191600101610b3b565b50909695505050505050565b600060208284031215610b8b57600080fd5b813567ffffffffffffffff811115610ba257600080fd5b610bae84828501610a34565b949350505050565b60208082528251828201819052600091906040908185019080840286018301878501865b83811015610c2657888303603f19018552815180518452878101511515888501528601516060878501819052610c12818601836109dc565b968901969450505090860190600101610bda565b509098975050505050505050565b60e060020a634e487b7102600052603260045260246000fd5b600281046001821680610c6157607f821691505b60208210811415610c855760e060020a634e487b7102600052602260045260246000fd5b50919050565b60008351610c9d8184602088016109ac565b835190830190610cb18183602088016109ac565b01949350505050565b60e060020a634e487b7102600052601160045260246000fd5b6000600019821415610ce757610ce7610cba565b5060010190565b600082821015610d0057610d00610cba565b50039056fea2646970667358221220a75194447c600703c87b393ed9280a78770d04682d185116daf77834a2d7ccb064736f6c634300080a0033",
  "immutableReferences": {},
  "source": "// SPDX-License-Identifier: CC-BY-4.0\r\npragma solidity >=0.4.22 <0.9.0;\r\n\r\nlibrary SocialFeeds {\r\n    bytes32 constant private ZERO_BYTES = bytes32(0);\r\n    address constant private ZERO_ADDRESS = address(0);\r\n    uint256 constant private negative = type(uint256).max;\r\n\r\n    struct Post {\r\n        uint256 epoch;\r\n        bool    visible;\r\n        string  content;\r\n    }\r\n\r\n    struct PostStorage {\r\n        mapping (address => Post[]) postsV2;\r\n        mapping (address => string[]) posts;\r\n        address[] _posters;\r\n    }\r\n\r\n    function postStorage() internal pure returns (PostStorage storage ds)\r\n    {\r\n        bytes32 position = keccak256(\"post.storage\");\r\n        assembly { ds.slot := position }\r\n    }\r\n\r\n    event PostAdded(address sender, string message);\r\n\r\n    function getPosters()\r\n        external\r\n        view\r\n        returns (address[] memory)\r\n    {\r\n        return postStorage()._posters;\r\n    }\r\n\r\n    function getTotalPosters()\r\n        external\r\n        view\r\n        returns (uint256)\r\n    {\r\n        return postStorage()._posters.length;\r\n    }\r\n\r\n\r\n    function addPostv2(uint256 epoch,bool visible,string memory content)\r\n        external\r\n    {\r\n        Post memory _post = Post(epoch,visible,content);\r\n        postStorage().postsV2[msg.sender].push(_post);\r\n    }\r\n\r\n    function getPostsv2()\r\n        external\r\n        view\r\n        returns (Post[] memory)\r\n    {\r\n        return postStorage().postsV2[msg.sender];\r\n    }\r\n\r\n    function getTotalPostsv2()\r\n        external\r\n        view\r\n        returns (uint256)\r\n    {\r\n        return postStorage().postsV2[msg.sender].length;\r\n    }\r\n\r\n    function addPostByOwner(string memory message)\r\n        external\r\n    {\r\n        postStorage().posts[msg.sender].push(message);\r\n    }\r\n\r\n    function addPost(string memory message)\r\n        external\r\n        returns (uint256)\r\n    {\r\n        bool found = false;\r\n        if (postStorage()._posters.length > 0) {\r\n            for (uint i = 0; i < postStorage()._posters.length; i++) {\r\n                if (postStorage()._posters[i] == ZERO_ADDRESS) {\r\n                    found = true;\r\n                }\r\n            }\r\n        }\r\n        if (!found) {\r\n            postStorage()._posters.push(msg.sender);\r\n        }\r\n        postStorage().posts[msg.sender].push(message);\r\n        return postStorage().posts[msg.sender].length - 1;\r\n    }\r\n\r\n    function getTotalPosts()\r\n        external\r\n        view\r\n        returns (uint256)\r\n    {\r\n        return postStorage().posts[msg.sender].length;\r\n    }\r\n    \r\n    function getPosts(uint256 index)\r\n        external\r\n        view\r\n        returns (string memory)\r\n    {\r\n        require(index < postStorage().posts[msg.sender].length,\"post does not exists\");\r\n        return postStorage().posts[msg.sender][index];\r\n    }\r\n    \r\n\r\n    function getAllPosts()\r\n        external\r\n        view\r\n        returns (string memory)\r\n    {\r\n        string memory output = \"\";\r\n        uint256 total = postStorage()._posters.length;\r\n        for (uint i = 0; i < total; i++) {\r\n            address key = postStorage()._posters[i];\r\n            string[] memory post = postStorage().posts[key];\r\n            if (post.length > 0) {\r\n                for (uint l = 0; l < post.length; l++) {\r\n                    output = string(abi.encodePacked(output, post[l]));\r\n                }\r\n            }\r\n        }\r\n        return output;\r\n    }\r\n\r\n}",
  "sourcePath": "G:\\projects\\pingleware-contracts\\contracts\\social\\SocialFeed.sol",
  "compiler": {
    "name": "solc",
    "version": "0.8.10+commit.fc410830.Emscripten.clang"
  },
  "schemaVersion": "3.4.3",
  "updatedAt": "2021-12-25T15:51:04.425Z",
  "devdoc": {
    "kind": "dev",
    "methods": {},
    "version": 1
  },
  "userdoc": {
    "kind": "user",
    "methods": {},
    "version": 1
  }
}