{
  "contractName": "SocialNetwork",
  "abi": [
    {
      "inputs": [],
      "stateMutability": "payable",
      "type": "constructor"
    },
    {
      "anonymous": false,
      "inputs": [
        {
          "indexed": false,
          "internalType": "address",
          "name": "sender",
          "type": "address"
        }
      ],
      "name": "AdvertiserAdded",
      "type": "event"
    },
    {
      "anonymous": false,
      "inputs": [
        {
          "indexed": false,
          "internalType": "address",
          "name": "sender",
          "type": "address"
        },
        {
          "indexed": false,
          "internalType": "address",
          "name": "spender",
          "type": "address"
        },
        {
          "indexed": false,
          "internalType": "uint256",
          "name": "amount",
          "type": "uint256"
        }
      ],
      "name": "Approval",
      "type": "event"
    },
    {
      "anonymous": false,
      "inputs": [
        {
          "indexed": false,
          "internalType": "address",
          "name": "sender",
          "type": "address"
        },
        {
          "indexed": false,
          "internalType": "address",
          "name": "user",
          "type": "address"
        },
        {
          "indexed": false,
          "internalType": "string",
          "name": "comment",
          "type": "string"
        }
      ],
      "name": "CommentAdded",
      "type": "event"
    },
    {
      "anonymous": false,
      "inputs": [
        {
          "indexed": false,
          "internalType": "address",
          "name": "sender",
          "type": "address"
        },
        {
          "indexed": false,
          "internalType": "address",
          "name": "follower",
          "type": "address"
        }
      ],
      "name": "FollowerAdded",
      "type": "event"
    },
    {
      "anonymous": false,
      "inputs": [
        {
          "indexed": false,
          "internalType": "address",
          "name": "sender",
          "type": "address"
        },
        {
          "indexed": false,
          "internalType": "address",
          "name": "user",
          "type": "address"
        }
      ],
      "name": "FriendRequestAdded",
      "type": "event"
    },
    {
      "anonymous": false,
      "inputs": [
        {
          "indexed": true,
          "internalType": "address",
          "name": "_to",
          "type": "address"
        },
        {
          "indexed": true,
          "internalType": "uint256",
          "name": "_tokenId",
          "type": "uint256"
        },
        {
          "indexed": false,
          "internalType": "bytes32",
          "name": "_ipfsHash",
          "type": "bytes32"
        }
      ],
      "name": "Mint",
      "type": "event"
    },
    {
      "anonymous": false,
      "inputs": [
        {
          "indexed": false,
          "internalType": "address",
          "name": "sender",
          "type": "address"
        },
        {
          "indexed": false,
          "internalType": "string",
          "name": "message",
          "type": "string"
        }
      ],
      "name": "PostAdded",
      "type": "event"
    },
    {
      "anonymous": false,
      "inputs": [
        {
          "indexed": false,
          "internalType": "address",
          "name": "sender",
          "type": "address"
        },
        {
          "indexed": false,
          "internalType": "address",
          "name": "recipient",
          "type": "address"
        },
        {
          "indexed": false,
          "internalType": "uint256",
          "name": "amount",
          "type": "uint256"
        }
      ],
      "name": "Transfer",
      "type": "event"
    },
    {
      "anonymous": false,
      "inputs": [
        {
          "indexed": false,
          "internalType": "address",
          "name": "sender",
          "type": "address"
        }
      ],
      "name": "UserAdded",
      "type": "event"
    },
    {
      "inputs": [],
      "name": "VERSION",
      "outputs": [
        {
          "internalType": "string",
          "name": "",
          "type": "string"
        }
      ],
      "stateMutability": "view",
      "type": "function"
    },
    {
      "inputs": [],
      "name": "_owner",
      "outputs": [
        {
          "internalType": "address",
          "name": "",
          "type": "address"
        }
      ],
      "stateMutability": "view",
      "type": "function"
    },
    {
      "inputs": [],
      "name": "_totalSupply",
      "outputs": [
        {
          "internalType": "uint256",
          "name": "",
          "type": "uint256"
        }
      ],
      "stateMutability": "view",
      "type": "function"
    },
    {
      "inputs": [],
      "name": "name",
      "outputs": [
        {
          "internalType": "string",
          "name": "",
          "type": "string"
        }
      ],
      "stateMutability": "view",
      "type": "function"
    },
    {
      "inputs": [],
      "name": "symbol",
      "outputs": [
        {
          "internalType": "string",
          "name": "",
          "type": "string"
        }
      ],
      "stateMutability": "view",
      "type": "function"
    },
    {
      "inputs": [],
      "name": "getContractBalance",
      "outputs": [
        {
          "internalType": "uint256",
          "name": "",
          "type": "uint256"
        }
      ],
      "stateMutability": "view",
      "type": "function"
    },
    {
      "inputs": [],
      "name": "getOwner",
      "outputs": [
        {
          "internalType": "address",
          "name": "",
          "type": "address"
        }
      ],
      "stateMutability": "view",
      "type": "function"
    },
    {
      "inputs": [],
      "name": "getUserRole",
      "outputs": [
        {
          "internalType": "string",
          "name": "",
          "type": "string"
        }
      ],
      "stateMutability": "view",
      "type": "function"
    },
    {
      "inputs": [],
      "name": "totalSupply",
      "outputs": [
        {
          "internalType": "uint256",
          "name": "",
          "type": "uint256"
        }
      ],
      "stateMutability": "view",
      "type": "function"
    },
    {
      "inputs": [
        {
          "internalType": "address",
          "name": "account",
          "type": "address"
        }
      ],
      "name": "balanceOf",
      "outputs": [
        {
          "internalType": "uint256",
          "name": "",
          "type": "uint256"
        }
      ],
      "stateMutability": "view",
      "type": "function"
    },
    {
      "inputs": [
        {
          "internalType": "address",
          "name": "owner",
          "type": "address"
        },
        {
          "internalType": "address",
          "name": "spender",
          "type": "address"
        }
      ],
      "name": "allowance",
      "outputs": [
        {
          "internalType": "uint256",
          "name": "",
          "type": "uint256"
        }
      ],
      "stateMutability": "view",
      "type": "function"
    },
    {
      "inputs": [
        {
          "internalType": "address",
          "name": "recipient",
          "type": "address"
        },
        {
          "internalType": "uint256",
          "name": "amount",
          "type": "uint256"
        }
      ],
      "name": "transfer",
      "outputs": [
        {
          "internalType": "bool",
          "name": "",
          "type": "bool"
        }
      ],
      "stateMutability": "nonpayable",
      "type": "function"
    },
    {
      "inputs": [
        {
          "internalType": "address",
          "name": "spender",
          "type": "address"
        },
        {
          "internalType": "uint256",
          "name": "amount",
          "type": "uint256"
        }
      ],
      "name": "approve",
      "outputs": [
        {
          "internalType": "bool",
          "name": "",
          "type": "bool"
        }
      ],
      "stateMutability": "nonpayable",
      "type": "function"
    },
    {
      "inputs": [
        {
          "internalType": "address",
          "name": "sender",
          "type": "address"
        },
        {
          "internalType": "address",
          "name": "recipient",
          "type": "address"
        },
        {
          "internalType": "uint256",
          "name": "amount",
          "type": "uint256"
        }
      ],
      "name": "transferFrom",
      "outputs": [
        {
          "internalType": "bool",
          "name": "",
          "type": "bool"
        }
      ],
      "stateMutability": "nonpayable",
      "type": "function"
    },
    {
      "inputs": [],
      "name": "addUser",
      "outputs": [],
      "stateMutability": "payable",
      "type": "function"
    },
    {
      "inputs": [
        {
          "internalType": "uint256",
          "name": "epoch",
          "type": "uint256"
        },
        {
          "internalType": "bool",
          "name": "visible",
          "type": "bool"
        },
        {
          "internalType": "string",
          "name": "content",
          "type": "string"
        }
      ],
      "name": "addPostv2",
      "outputs": [],
      "stateMutability": "payable",
      "type": "function"
    },
    {
      "inputs": [],
      "name": "getPostsv2",
      "outputs": [
        {
          "components": [
            {
              "internalType": "uint256",
              "name": "epoch",
              "type": "uint256"
            },
            {
              "internalType": "bool",
              "name": "visible",
              "type": "bool"
            },
            {
              "internalType": "string",
              "name": "content",
              "type": "string"
            }
          ],
          "internalType": "struct SocialNetwork.Post[]",
          "name": "",
          "type": "tuple[]"
        }
      ],
      "stateMutability": "view",
      "type": "function"
    },
    {
      "inputs": [],
      "name": "getTotalPostsv2",
      "outputs": [
        {
          "internalType": "uint256",
          "name": "",
          "type": "uint256"
        }
      ],
      "stateMutability": "view",
      "type": "function"
    },
    {
      "inputs": [
        {
          "internalType": "string",
          "name": "message",
          "type": "string"
        }
      ],
      "name": "addPostByOwner",
      "outputs": [],
      "stateMutability": "nonpayable",
      "type": "function"
    },
    {
      "inputs": [
        {
          "internalType": "string",
          "name": "message",
          "type": "string"
        }
      ],
      "name": "addPost",
      "outputs": [
        {
          "internalType": "uint256",
          "name": "",
          "type": "uint256"
        }
      ],
      "stateMutability": "payable",
      "type": "function"
    },
    {
      "inputs": [],
      "name": "getTotalPosts",
      "outputs": [
        {
          "internalType": "uint256",
          "name": "",
          "type": "uint256"
        }
      ],
      "stateMutability": "view",
      "type": "function"
    },
    {
      "inputs": [
        {
          "internalType": "uint256",
          "name": "index",
          "type": "uint256"
        }
      ],
      "name": "getPosts",
      "outputs": [
        {
          "internalType": "string",
          "name": "",
          "type": "string"
        }
      ],
      "stateMutability": "view",
      "type": "function"
    },
    {
      "inputs": [],
      "name": "getAllPosts",
      "outputs": [
        {
          "internalType": "string",
          "name": "",
          "type": "string"
        }
      ],
      "stateMutability": "view",
      "type": "function"
    },
    {
      "inputs": [
        {
          "internalType": "address",
          "name": "poster",
          "type": "address"
        },
        {
          "internalType": "uint256",
          "name": "index",
          "type": "uint256"
        },
        {
          "internalType": "string",
          "name": "message",
          "type": "string"
        }
      ],
      "name": "addComment",
      "outputs": [],
      "stateMutability": "payable",
      "type": "function"
    },
    {
      "inputs": [
        {
          "internalType": "address",
          "name": "poster",
          "type": "address"
        }
      ],
      "name": "getCommentTotal",
      "outputs": [
        {
          "internalType": "uint256",
          "name": "",
          "type": "uint256"
        }
      ],
      "stateMutability": "view",
      "type": "function"
    },
    {
      "inputs": [],
      "name": "getComments",
      "outputs": [
        {
          "components": [
            {
              "internalType": "address",
              "name": "comment_author",
              "type": "address"
            },
            {
              "internalType": "uint256",
              "name": "post_index",
              "type": "uint256"
            },
            {
              "internalType": "string",
              "name": "message",
              "type": "string"
            }
          ],
          "internalType": "struct SocialNetwork.Comment[]",
          "name": "",
          "type": "tuple[]"
        }
      ],
      "stateMutability": "view",
      "type": "function"
    },
    {
      "inputs": [
        {
          "internalType": "address",
          "name": "poster",
          "type": "address"
        }
      ],
      "name": "getCommentsForPoster",
      "outputs": [
        {
          "components": [
            {
              "internalType": "address",
              "name": "comment_author",
              "type": "address"
            },
            {
              "internalType": "uint256",
              "name": "post_index",
              "type": "uint256"
            },
            {
              "internalType": "string",
              "name": "message",
              "type": "string"
            }
          ],
          "internalType": "struct SocialNetwork.Comment[]",
          "name": "",
          "type": "tuple[]"
        }
      ],
      "stateMutability": "view",
      "type": "function"
    },
    {
      "inputs": [
        {
          "internalType": "string",
          "name": "fullname",
          "type": "string"
        },
        {
          "internalType": "string",
          "name": "profession",
          "type": "string"
        },
        {
          "internalType": "string",
          "name": "location",
          "type": "string"
        },
        {
          "internalType": "string",
          "name": "dob",
          "type": "string"
        },
        {
          "internalType": "string",
          "name": "interests",
          "type": "string"
        }
      ],
      "name": "updateUserMeta",
      "outputs": [],
      "stateMutability": "payable",
      "type": "function"
    },
    {
      "inputs": [],
      "name": "getUserMeta",
      "outputs": [
        {
          "components": [
            {
              "internalType": "string",
              "name": "fullname",
              "type": "string"
            },
            {
              "internalType": "string",
              "name": "profession",
              "type": "string"
            },
            {
              "internalType": "string",
              "name": "location",
              "type": "string"
            },
            {
              "internalType": "string",
              "name": "dob",
              "type": "string"
            },
            {
              "internalType": "string",
              "name": "interests",
              "type": "string"
            }
          ],
          "internalType": "struct SocialNetwork.UserMeta",
          "name": "",
          "type": "tuple"
        }
      ],
      "stateMutability": "view",
      "type": "function"
    },
    {
      "inputs": [],
      "name": "addAdvertiser",
      "outputs": [],
      "stateMutability": "payable",
      "type": "function"
    },
    {
      "inputs": [
        {
          "internalType": "string",
          "name": "message",
          "type": "string"
        }
      ],
      "name": "newAdvertisement",
      "outputs": [],
      "stateMutability": "payable",
      "type": "function"
    },
    {
      "inputs": [],
      "name": "getAdvertisers",
      "outputs": [
        {
          "internalType": "address[]",
          "name": "",
          "type": "address[]"
        }
      ],
      "stateMutability": "view",
      "type": "function"
    },
    {
      "inputs": [],
      "name": "getUsers",
      "outputs": [
        {
          "internalType": "address[]",
          "name": "",
          "type": "address[]"
        }
      ],
      "stateMutability": "view",
      "type": "function"
    },
    {
      "inputs": [],
      "name": "getTotalUsers",
      "outputs": [
        {
          "internalType": "uint256",
          "name": "",
          "type": "uint256"
        }
      ],
      "stateMutability": "view",
      "type": "function"
    },
    {
      "inputs": [],
      "name": "getPosters",
      "outputs": [
        {
          "internalType": "address[]",
          "name": "",
          "type": "address[]"
        }
      ],
      "stateMutability": "view",
      "type": "function"
    },
    {
      "inputs": [],
      "name": "getTotalPosters",
      "outputs": [
        {
          "internalType": "uint256",
          "name": "",
          "type": "uint256"
        }
      ],
      "stateMutability": "view",
      "type": "function"
    },
    {
      "inputs": [
        {
          "internalType": "uint256",
          "name": "post",
          "type": "uint256"
        },
        {
          "internalType": "address",
          "name": "poster",
          "type": "address"
        },
        {
          "internalType": "address",
          "name": "user",
          "type": "address"
        }
      ],
      "name": "setLike",
      "outputs": [],
      "stateMutability": "payable",
      "type": "function"
    },
    {
      "inputs": [
        {
          "internalType": "uint256",
          "name": "post",
          "type": "uint256"
        },
        {
          "internalType": "address",
          "name": "poster",
          "type": "address"
        },
        {
          "internalType": "address",
          "name": "user",
          "type": "address"
        }
      ],
      "name": "setDislike",
      "outputs": [],
      "stateMutability": "payable",
      "type": "function"
    },
    {
      "inputs": [
        {
          "internalType": "address",
          "name": "user",
          "type": "address"
        },
        {
          "internalType": "address",
          "name": "poster",
          "type": "address"
        }
      ],
      "name": "getLikes",
      "outputs": [
        {
          "internalType": "uint256",
          "name": "",
          "type": "uint256"
        }
      ],
      "stateMutability": "view",
      "type": "function"
    },
    {
      "inputs": [
        {
          "internalType": "address",
          "name": "user",
          "type": "address"
        },
        {
          "internalType": "address",
          "name": "poster",
          "type": "address"
        }
      ],
      "name": "getDislikes",
      "outputs": [
        {
          "internalType": "uint256",
          "name": "",
          "type": "uint256"
        }
      ],
      "stateMutability": "view",
      "type": "function"
    },
    {
      "inputs": [
        {
          "internalType": "address",
          "name": "user",
          "type": "address"
        }
      ],
      "name": "addFollower",
      "outputs": [],
      "stateMutability": "payable",
      "type": "function"
    },
    {
      "inputs": [],
      "name": "getFollowers",
      "outputs": [
        {
          "internalType": "address",
          "name": "",
          "type": "address"
        }
      ],
      "stateMutability": "view",
      "type": "function"
    },
    {
      "inputs": [
        {
          "internalType": "address",
          "name": "user",
          "type": "address"
        }
      ],
      "name": "addFriendRequest",
      "outputs": [],
      "stateMutability": "payable",
      "type": "function"
    },
    {
      "inputs": [],
      "name": "getTotalFriendRequest",
      "outputs": [
        {
          "internalType": "uint256",
          "name": "",
          "type": "uint256"
        }
      ],
      "stateMutability": "view",
      "type": "function"
    },
    {
      "inputs": [],
      "name": "getFriends",
      "outputs": [
        {
          "internalType": "address[]",
          "name": "",
          "type": "address[]"
        }
      ],
      "stateMutability": "view",
      "type": "function"
    },
    {
      "inputs": [],
      "name": "getFriendRequest",
      "outputs": [
        {
          "internalType": "string",
          "name": "",
          "type": "string"
        }
      ],
      "stateMutability": "view",
      "type": "function"
    }
  ],
  "bytecode": "0x6080604052615ba0806100136000396000f3fe60806040526004361061027c5760003560e01c80639025094c1161014f578063b2bdfa7b116100c1578063dbb36cd21161007a578063dbb36cd214610945578063dd62ed3e14610970578063ebf86ee8146109ad578063ec547d80146109d8578063f61aa6f014610a03578063ffa1ad7414610a0d5761027c565b8063b2bdfa7b1461084f578063b84e66211461087a578063badd239e146108b7578063bf04a10d146108e2578063ceeac5d41461090d578063d2ab4873146109295761027c565b80639e4483f4116101135780639e4483f414610751578063a63228191461078e578063a9059cbb146107be578063aae741c4146107fb578063ad7fea7814610817578063af9bcca4146108335761027c565b80639025094c1461067a57806391f3410c146106a5578063923ab6d2146106d057806395d89b41146106fb5780639be572f6146107265761027c565b80633eaaf86b116101f35780636f9fb98a116101ac5780636f9fb98a1461056357806370a082311461058e5780637485dee7146105cb5780638814e79e146105e7578063893d20e8146106125780638d3882451461063d5761027c565b80633eaaf86b14610481578063455c928c146104ac57806359b55de4146104b65780635f0e4f7b146104d25780635fe226b4146104fb578063672c1b05146105265761027c565b80631d45cddc116102455780631d45cddc1461036a5780631f8f7270146103a757806323b872dd146103d2578063305611001461040f57806335ce530c1461043a5780633b3a3934146104565761027c565b8062ce8e3e1461028157806306fdde03146102ac578063095ea7b3146102d75780630d79f5611461031457806318160ddd1461033f575b600080fd5b34801561028d57600080fd5b50610296610a38565b6040516102a39190614a77565b60405180910390f35b3480156102b857600080fd5b506102c1610b56565b6040516102ce9190614b32565b60405180910390f35b3480156102e357600080fd5b506102fe60048036038101906102f99190614bca565b610be4565b60405161030b9190614c25565b60405180910390f35b34801561032057600080fd5b50610329610d1b565b6040516103369190614c4f565b60405180910390f35b34801561034b57600080fd5b50610354610e07565b6040516103619190614c79565b60405180910390f35b34801561037657600080fd5b50610391600480360381019061038c9190614c94565b610e11565b60405161039e9190614b32565b60405180910390f35b3480156103b357600080fd5b506103bc610f82565b6040516103c99190614a77565b60405180910390f35b3480156103de57600080fd5b506103f960048036038101906103f49190614cc1565b611010565b6040516104069190614c25565b60405180910390f35b34801561041b57600080fd5b5061042461135d565b6040516104319190614b32565b60405180910390f35b610454600480360381019061044f9190614e75565b6115f5565b005b34801561046257600080fd5b5061046b611753565b6040516104789190614a77565b60405180910390f35b34801561048d57600080fd5b506104966117e1565b6040516104a39190614c79565b60405180910390f35b6104b46117e7565b005b6104d060048036038101906104cb9190614ee4565b611a23565b005b3480156104de57600080fd5b506104f960048036038101906104f49190614f37565b611bb3565b005b34801561050757600080fd5b50610510611cbf565b60405161051d9190614c79565b60405180910390f35b34801561053257600080fd5b5061054d60048036038101906105489190614f80565b611d09565b60405161055a9190615118565b60405180910390f35b34801561056f57600080fd5b5061057861201e565b6040516105859190614c79565b60405180910390f35b34801561059a57600080fd5b506105b560048036038101906105b09190614f80565b6120b6565b6040516105c29190614c79565b60405180910390f35b6105e560048036038101906105e0919061513a565b6120ff565b005b3480156105f357600080fd5b506105fc612206565b6040516106099190614c79565b60405180910390f35b34801561061e57600080fd5b506106276122d5565b6040516106349190614c4f565b60405180910390f35b34801561064957600080fd5b50610664600480360381019061065f9190615241565b6122ff565b6040516106719190614c79565b60405180910390f35b34801561068657600080fd5b5061068f612490565b60405161069c9190615313565b60405180910390f35b3480156106b157600080fd5b506106ba6127c1565b6040516106c79190615118565b60405180910390f35b3480156106dc57600080fd5b506106e5612a44565b6040516106f29190614c79565b60405180910390f35b34801561070757600080fd5b50610710612b52565b60405161071d9190614b32565b60405180910390f35b34801561073257600080fd5b5061073b612be0565b6040516107489190614c79565b60405180910390f35b34801561075d57600080fd5b5061077860048036038101906107739190615241565b612bed565b6040516107859190614c79565b60405180910390f35b6107a860048036038101906107a39190614f37565b612d7e565b6040516107b59190614c79565b60405180910390f35b3480156107ca57600080fd5b506107e560048036038101906107e09190614bca565b61300d565b6040516107f29190614c25565b60405180910390f35b61081560048036038101906108109190615335565b613261565b005b610831600480360381019061082c9190614f80565b613645565b005b61084d60048036038101906108489190614ee4565b613aa1565b005b34801561085b57600080fd5b50610864613c31565b6040516108719190614c4f565b60405180910390f35b34801561088657600080fd5b506108a1600480360381019061089c9190614f80565b613c57565b6040516108ae9190614c79565b60405180910390f35b3480156108c357600080fd5b506108cc613d28565b6040516108d991906154c5565b60405180910390f35b3480156108ee57600080fd5b506108f7613f00565b6040516109049190614b32565b60405180910390f35b61092760048036038101906109229190614f80565b6140d9565b005b610943600480360381019061093e9190614f37565b61429d565b005b34801561095157600080fd5b5061095a614377565b6040516109679190614b32565b60405180910390f35b34801561097c57600080fd5b5061099760048036038101906109929190615241565b61456c565b6040516109a49190614c79565b60405180910390f35b3480156109b957600080fd5b506109c2614600565b6040516109cf9190614c79565b60405180910390f35b3480156109e457600080fd5b506109ed61460d565b6040516109fa9190614a77565b60405180910390f35b610a0b61472b565b005b348015610a1957600080fd5b50610a2261487c565b604051610a2f9190614b32565b60405180910390f35b6060600560009054906101000a900473ffffffffffffffffffffffffffffffffffffffff1673ffffffffffffffffffffffffffffffffffffffff163373ffffffffffffffffffffffffffffffffffffffff1614610aca576040517f08c379a0000000000000000000000000000000000000000000000000000000008152600401610ac190615533565b60405180910390fd5b6014805480602002602001604051908101604052809291908181526020018280548015610b4c57602002820191906000526020600020905b8160009054906101000a900473ffffffffffffffffffffffffffffffffffffffff1673ffffffffffffffffffffffffffffffffffffffff1681526020019060010190808311610b02575b5050505050905090565b60008054610b6390615582565b80601f0160208091040260200160405190810160405280929190818152602001828054610b8f90615582565b8015610bdc5780601f10610bb157610100808354040283529160200191610bdc565b820191906000526020600020905b815481529060010190602001808311610bbf57829003601f168201915b505050505081565b60008073ffffffffffffffffffffffffffffffffffffffff168373ffffffffffffffffffffffffffffffffffffffff161415610c55576040517f08c379a0000000000000000000000000000000000000000000000000000000008152600401610c4c90615600565b60405180910390fd5b81600460003373ffffffffffffffffffffffffffffffffffffffff1673ffffffffffffffffffffffffffffffffffffffff16815260200190815260200160002060008573ffffffffffffffffffffffffffffffffffffffff1673ffffffffffffffffffffffffffffffffffffffff168152602001908152602001600020819055507f8c5be1e5ebec7d5bd14f71427d1e84f3dd0314c0f7b2291e5b200ac8c7c3b925338484604051610d0993929190615620565b60405180910390a16001905092915050565b6000336000600760008373ffffffffffffffffffffffffffffffffffffffff1673ffffffffffffffffffffffffffffffffffffffff168152602001908152602001600020541415610da1576040517f08c379a0000000000000000000000000000000000000000000000000000000008152600401610d98906156a3565b60405180910390fd5b601060003373ffffffffffffffffffffffffffffffffffffffff1673ffffffffffffffffffffffffffffffffffffffff16815260200190815260200160002060009054906101000a900473ffffffffffffffffffffffffffffffffffffffff1691505090565b6000600254905090565b6060600860003373ffffffffffffffffffffffffffffffffffffffff1673ffffffffffffffffffffffffffffffffffffffff168152602001908152602001600020805490508210610e97576040517f08c379a0000000000000000000000000000000000000000000000000000000008152600401610e8e9061570f565b60405180910390fd5b600860003373ffffffffffffffffffffffffffffffffffffffff1673ffffffffffffffffffffffffffffffffffffffff1681526020019081526020016000208281548110610ee857610ee761572f565b5b906000526020600020018054610efd90615582565b80601f0160208091040260200160405190810160405280929190818152602001828054610f2990615582565b8015610f765780601f10610f4b57610100808354040283529160200191610f76565b820191906000526020600020905b815481529060010190602001808311610f5957829003601f168201915b50505050509050919050565b6060601380548060200260200160405190810160405280929190818152602001828054801561100657602002820191906000526020600020905b8160009054906101000a900473ffffffffffffffffffffffffffffffffffffffff1673ffffffffffffffffffffffffffffffffffffffff1681526020019060010190808311610fbc575b5050505050905090565b60008073ffffffffffffffffffffffffffffffffffffffff168473ffffffffffffffffffffffffffffffffffffffff161415611081576040517f08c379a000000000000000000000000000000000000000000000000000000000815260040161107890615600565b60405180910390fd5b600073ffffffffffffffffffffffffffffffffffffffff168373ffffffffffffffffffffffffffffffffffffffff1614156110f1576040517f08c379a00000000000000000000000000000000000000000000000000000000081526004016110e8906157aa565b60405180910390fd5b81600f60008673ffffffffffffffffffffffffffffffffffffffff1673ffffffffffffffffffffffffffffffffffffffff16815260200190815260200160002054101580156111bc575081600460008673ffffffffffffffffffffffffffffffffffffffff1673ffffffffffffffffffffffffffffffffffffffff16815260200190815260200160002060003373ffffffffffffffffffffffffffffffffffffffff1673ffffffffffffffffffffffffffffffffffffffff1681526020019081526020016000205410155b80156111c85750600082115b801561125c5750600f60008473ffffffffffffffffffffffffffffffffffffffff1673ffffffffffffffffffffffffffffffffffffffff1681526020019081526020016000205482600f60008673ffffffffffffffffffffffffffffffffffffffff1673ffffffffffffffffffffffffffffffffffffffff1681526020019081526020016000205461125a91906157f9565b115b156113515781600f60008673ffffffffffffffffffffffffffffffffffffffff1673ffffffffffffffffffffffffffffffffffffffff16815260200190815260200160002060008282546112b0919061584f565b9250508190555081600f60008573ffffffffffffffffffffffffffffffffffffffff1673ffffffffffffffffffffffffffffffffffffffff168152602001908152602001600020600082825461130691906157f9565b925050819055507fddf252ad1be2c89b69c2b068fc378daa952ba7f163c4a11628f55a4df523b3ef84848460405161134093929190615620565b60405180910390a160019050611356565b600090505b9392505050565b6060600560009054906101000a900473ffffffffffffffffffffffffffffffffffffffff1673ffffffffffffffffffffffffffffffffffffffff163373ffffffffffffffffffffffffffffffffffffffff16146113ef576040517f08c379a00000000000000000000000000000000000000000000000000000000081526004016113e690615533565b60405180910390fd5b60006040518060200160405280600081525090506000600980549050905060005b818110156115ec5760006009828154811061142e5761142d61572f565b5b9060005260206000200160009054906101000a900473ffffffffffffffffffffffffffffffffffffffff1690506000600860008373ffffffffffffffffffffffffffffffffffffffff1673ffffffffffffffffffffffffffffffffffffffff168152602001908152602001600020805480602002602001604051908101604052809291908181526020016000905b828210156115685783829060005260206000200180546114db90615582565b80601f016020809104026020016040519081016040528092919081815260200182805461150790615582565b80156115545780601f1061152957610100808354040283529160200191611554565b820191906000526020600020905b81548152906001019060200180831161153757829003601f168201915b5050505050815260200190600101906114bc565b5050505090506000815111156115d75760005b81518110156115d557858282815181106115985761159761572f565b5b60200260200101516040516020016115b19291906158bf565b604051602081830303815290604052955080806115cd906158e3565b91505061157b565b505b505080806115e4906158e3565b915050611410565b50819250505090565b336000600760008373ffffffffffffffffffffffffffffffffffffffff1673ffffffffffffffffffffffffffffffffffffffff168152602001908152602001600020541415611679576040517f08c379a0000000000000000000000000000000000000000000000000000000008152600401611670906156a3565b60405180910390fd5b600060405180606001604052808681526020018515158152602001848152509050600660003373ffffffffffffffffffffffffffffffffffffffff1673ffffffffffffffffffffffffffffffffffffffff1681526020019081526020016000208190806001815401808255809150506001900390600052602060002090600302016000909190919091506000820151816000015560208201518160010160006101000a81548160ff02191690831515021790555060408201518160020190805190602001906117499291906148b5565b5050505050505050565b606060098054806020026020016040519081016040528092919081815260200182805480156117d757602002820191906000526020600020905b8160009054906101000a900473ffffffffffffffffffffffffffffffffffffffff1673ffffffffffffffffffffffffffffffffffffffff168152602001906001019080831161178d575b5050505050905090565b60025481565b600073ffffffffffffffffffffffffffffffffffffffff163373ffffffffffffffffffffffffffffffffffffffff161415611857576040517f08c379a000000000000000000000000000000000000000000000000000000000815260040161184e90615978565b60405180910390fd5b6000600760003373ffffffffffffffffffffffffffffffffffffffff1673ffffffffffffffffffffffffffffffffffffffff16815260200190815260200160002054146118d9576040517f08c379a00000000000000000000000000000000000000000000000000000000081526004016118d0906159e4565b60405180910390fd5b6001600760003373ffffffffffffffffffffffffffffffffffffffff1673ffffffffffffffffffffffffffffffffffffffff168152602001908152602001600020819055506014339080600181540180825580915050600190039060005260206000200160009091909190916101000a81548173ffffffffffffffffffffffffffffffffffffffff021916908373ffffffffffffffffffffffffffffffffffffffff1602179055507f19ef9a4877199f89440a26acb26895ec02ed86f2df1aeaa90dc18041b892f71f336040516119b09190614c4f565b60405180910390a1600560009054906101000a900473ffffffffffffffffffffffffffffffffffffffff1673ffffffffffffffffffffffffffffffffffffffff163373ffffffffffffffffffffffffffffffffffffffff1614611a2157611a1f333066038d7ea4c68000611010565b505b565b806000600760008373ffffffffffffffffffffffffffffffffffffffff1673ffffffffffffffffffffffffffffffffffffffff168152602001908152602001600020541415611aa7576040517f08c379a0000000000000000000000000000000000000000000000000000000008152600401611a9e906156a3565b60405180910390fd5b826000600760008373ffffffffffffffffffffffffffffffffffffffff1673ffffffffffffffffffffffffffffffffffffffff168152602001908152602001600020541415611b2b576040517f08c379a0000000000000000000000000000000000000000000000000000000008152600401611b22906156a3565b60405180910390fd5b84600c60008573ffffffffffffffffffffffffffffffffffffffff1673ffffffffffffffffffffffffffffffffffffffff16815260200190815260200160002060008673ffffffffffffffffffffffffffffffffffffffff1673ffffffffffffffffffffffffffffffffffffffff168152602001908152602001600020819055505050505050565b600560009054906101000a900473ffffffffffffffffffffffffffffffffffffffff1673ffffffffffffffffffffffffffffffffffffffff163373ffffffffffffffffffffffffffffffffffffffff1614611c43576040517f08c379a0000000000000000000000000000000000000000000000000000000008152600401611c3a90615533565b60405180910390fd5b600860003373ffffffffffffffffffffffffffffffffffffffff1673ffffffffffffffffffffffffffffffffffffffff16815260200190815260200160002081908060018154018082558091505060019003906000526020600020016000909190919091509080519060200190611cbb9291906148b5565b5050565b6000600860003373ffffffffffffffffffffffffffffffffffffffff1673ffffffffffffffffffffffffffffffffffffffff16815260200190815260200160002080549050905090565b6060600560009054906101000a900473ffffffffffffffffffffffffffffffffffffffff1673ffffffffffffffffffffffffffffffffffffffff163373ffffffffffffffffffffffffffffffffffffffff1614611d9b576040517f08c379a0000000000000000000000000000000000000000000000000000000008152600401611d9290615533565b60405180910390fd5b600073ffffffffffffffffffffffffffffffffffffffff163373ffffffffffffffffffffffffffffffffffffffff161415611e0b576040517f08c379a0000000000000000000000000000000000000000000000000000000008152600401611e0290615978565b60405180910390fd5b816000600760008373ffffffffffffffffffffffffffffffffffffffff1673ffffffffffffffffffffffffffffffffffffffff168152602001908152602001600020541415611e8f576040517f08c379a0000000000000000000000000000000000000000000000000000000008152600401611e86906156a3565b60405180910390fd5b600a60008473ffffffffffffffffffffffffffffffffffffffff1673ffffffffffffffffffffffffffffffffffffffff168152602001908152602001600020805480602002602001604051908101604052809291908181526020016000905b8282101561201257838290600052602060002090600302016040518060600160405290816000820160009054906101000a900473ffffffffffffffffffffffffffffffffffffffff1673ffffffffffffffffffffffffffffffffffffffff1673ffffffffffffffffffffffffffffffffffffffff16815260200160018201548152602001600282018054611f8190615582565b80601f0160208091040260200160405190810160405280929190818152602001828054611fad90615582565b8015611ffa5780601f10611fcf57610100808354040283529160200191611ffa565b820191906000526020600020905b815481529060010190602001808311611fdd57829003601f168201915b50505050508152505081526020019060010190611eee565b50505050915050919050565b6000600560009054906101000a900473ffffffffffffffffffffffffffffffffffffffff1673ffffffffffffffffffffffffffffffffffffffff163373ffffffffffffffffffffffffffffffffffffffff16146120b0576040517f08c379a00000000000000000000000000000000000000000000000000000000081526004016120a790615533565b60405180910390fd5b47905090565b6000600360008373ffffffffffffffffffffffffffffffffffffffff1673ffffffffffffffffffffffffffffffffffffffff168152602001908152602001600020549050919050565b60006040518060a0016040528087815260200186815260200185815260200184815260200183815250905080600e60003373ffffffffffffffffffffffffffffffffffffffff1673ffffffffffffffffffffffffffffffffffffffff16815260200190815260200160002060008201518160000190805190602001906121869291906148b5565b5060208201518160010190805190602001906121a39291906148b5565b5060408201518160020190805190602001906121c09291906148b5565b5060608201518160030190805190602001906121dd9291906148b5565b5060808201518160040190805190602001906121fa9291906148b5565b50905050505050505050565b6000336000600760008373ffffffffffffffffffffffffffffffffffffffff1673ffffffffffffffffffffffffffffffffffffffff16815260200190815260200160002054141561228c576040517f08c379a0000000000000000000000000000000000000000000000000000000008152600401612283906156a3565b60405180910390fd5b600660003373ffffffffffffffffffffffffffffffffffffffff1673ffffffffffffffffffffffffffffffffffffffff1681526020019081526020016000208054905091505090565b6000600560009054906101000a900473ffffffffffffffffffffffffffffffffffffffff16905090565b6000826000600760008373ffffffffffffffffffffffffffffffffffffffff1673ffffffffffffffffffffffffffffffffffffffff168152602001908152602001600020541415612385576040517f08c379a000000000000000000000000000000000000000000000000000000000815260040161237c906156a3565b60405180910390fd5b826000600760008373ffffffffffffffffffffffffffffffffffffffff1673ffffffffffffffffffffffffffffffffffffffff168152602001908152602001600020541415612409576040517f08c379a0000000000000000000000000000000000000000000000000000000008152600401612400906156a3565b60405180910390fd5b600d60008673ffffffffffffffffffffffffffffffffffffffff1673ffffffffffffffffffffffffffffffffffffffff16815260200190815260200160002060008573ffffffffffffffffffffffffffffffffffffffff1673ffffffffffffffffffffffffffffffffffffffff168152602001908152602001600020549250505092915050565b61249861493b565b600e60003373ffffffffffffffffffffffffffffffffffffffff1673ffffffffffffffffffffffffffffffffffffffff1681526020019081526020016000206040518060a00160405290816000820180546124f290615582565b80601f016020809104026020016040519081016040528092919081815260200182805461251e90615582565b801561256b5780601f106125405761010080835404028352916020019161256b565b820191906000526020600020905b81548152906001019060200180831161254e57829003601f168201915b5050505050815260200160018201805461258490615582565b80601f01602080910402602001604051908101604052809291908181526020018280546125b090615582565b80156125fd5780601f106125d2576101008083540402835291602001916125fd565b820191906000526020600020905b8154815290600101906020018083116125e057829003601f168201915b5050505050815260200160028201805461261690615582565b80601f016020809104026020016040519081016040528092919081815260200182805461264290615582565b801561268f5780601f106126645761010080835404028352916020019161268f565b820191906000526020600020905b81548152906001019060200180831161267257829003601f168201915b505050505081526020016003820180546126a890615582565b80601f01602080910402602001604051908101604052809291908181526020018280546126d490615582565b80156127215780601f106126f657610100808354040283529160200191612721565b820191906000526020600020905b81548152906001019060200180831161270457829003601f168201915b5050505050815260200160048201805461273a90615582565b80601f016020809104026020016040519081016040528092919081815260200182805461276690615582565b80156127b35780601f10612788576101008083540402835291602001916127b3565b820191906000526020600020905b81548152906001019060200180831161279657829003601f168201915b505050505081525050905090565b6060600073ffffffffffffffffffffffffffffffffffffffff163373ffffffffffffffffffffffffffffffffffffffff161415612833576040517f08c379a000000000000000000000000000000000000000000000000000000000815260040161282a90615978565b60405180910390fd5b336000600760008373ffffffffffffffffffffffffffffffffffffffff1673ffffffffffffffffffffffffffffffffffffffff1681526020019081526020016000205414156128b7576040517f08c379a00000000000000000000000000000000000000000000000000000000081526004016128ae906156a3565b60405180910390fd5b600a60003373ffffffffffffffffffffffffffffffffffffffff1673ffffffffffffffffffffffffffffffffffffffff168152602001908152602001600020805480602002602001604051908101604052809291908181526020016000905b82821015612a3a57838290600052602060002090600302016040518060600160405290816000820160009054906101000a900473ffffffffffffffffffffffffffffffffffffffff1673ffffffffffffffffffffffffffffffffffffffff1673ffffffffffffffffffffffffffffffffffffffff168152602001600182015481526020016002820180546129a990615582565b80601f01602080910402602001604051908101604052809291908181526020018280546129d590615582565b8015612a225780601f106129f757610100808354040283529160200191612a22565b820191906000526020600020905b815481529060010190602001808311612a0557829003601f168201915b50505050508152505081526020019060010190612916565b5050505091505090565b6000806000905060005b601380549050811015612b4a57601160003373ffffffffffffffffffffffffffffffffffffffff1673ffffffffffffffffffffffffffffffffffffffff168152602001908152602001600020600060138381548110612ab057612aaf61572f565b5b9060005260206000200160009054906101000a900473ffffffffffffffffffffffffffffffffffffffff1673ffffffffffffffffffffffffffffffffffffffff1673ffffffffffffffffffffffffffffffffffffffff16815260200190815260200160002060009054906101000a900460ff1615612b37578180612b33906158e3565b9250505b8080612b42906158e3565b915050612a4e565b508091505090565b60018054612b5f90615582565b80601f0160208091040260200160405190810160405280929190818152602001828054612b8b90615582565b8015612bd85780601f10612bad57610100808354040283529160200191612bd8565b820191906000526020600020905b815481529060010190602001808311612bbb57829003601f168201915b505050505081565b6000601480549050905090565b6000826000600760008373ffffffffffffffffffffffffffffffffffffffff1673ffffffffffffffffffffffffffffffffffffffff168152602001908152602001600020541415612c73576040517f08c379a0000000000000000000000000000000000000000000000000000000008152600401612c6a906156a3565b60405180910390fd5b826000600760008373ffffffffffffffffffffffffffffffffffffffff1673ffffffffffffffffffffffffffffffffffffffff168152602001908152602001600020541415612cf7576040517f08c379a0000000000000000000000000000000000000000000000000000000008152600401612cee906156a3565b60405180910390fd5b600c60008673ffffffffffffffffffffffffffffffffffffffff1673ffffffffffffffffffffffffffffffffffffffff16815260200190815260200160002060008573ffffffffffffffffffffffffffffffffffffffff1673ffffffffffffffffffffffffffffffffffffffff168152602001908152602001600020549250505092915050565b60008073ffffffffffffffffffffffffffffffffffffffff163373ffffffffffffffffffffffffffffffffffffffff161415612def576040517f08c379a0000000000000000000000000000000000000000000000000000000008152600401612de690615978565b60405180910390fd5b6000806009805490501115612e9b5760005b600980549050811015612e9957600073ffffffffffffffffffffffffffffffffffffffff1660098281548110612e3a57612e3961572f565b5b9060005260206000200160009054906101000a900473ffffffffffffffffffffffffffffffffffffffff1673ffffffffffffffffffffffffffffffffffffffff161415612e8657600191505b8080612e91906158e3565b915050612e01565b505b80612f04576009339080600181540180825580915050600190039060005260206000200160009091909190916101000a81548173ffffffffffffffffffffffffffffffffffffffff021916908373ffffffffffffffffffffffffffffffffffffffff1602179055505b600860003373ffffffffffffffffffffffffffffffffffffffff1673ffffffffffffffffffffffffffffffffffffffff16815260200190815260200160002083908060018154018082558091505060019003906000526020600020016000909190919091509080519060200190612f7c9291906148b5565b507f2b1fb2fd5b8cc2287aa381c51b874b098f9670f8debb7864fa74669c5bb89d893384604051612fae929190615a04565b60405180910390a16001600860003373ffffffffffffffffffffffffffffffffffffffff1673ffffffffffffffffffffffffffffffffffffffff16815260200190815260200160002080549050613005919061584f565b915050919050565b60008073ffffffffffffffffffffffffffffffffffffffff168373ffffffffffffffffffffffffffffffffffffffff16141561307e576040517f08c379a0000000000000000000000000000000000000000000000000000000008152600401613075906157aa565b60405180910390fd5b81600f60003373ffffffffffffffffffffffffffffffffffffffff1673ffffffffffffffffffffffffffffffffffffffff16815260200190815260200160002054101580156130cd5750600082115b80156131615750600f60008473ffffffffffffffffffffffffffffffffffffffff1673ffffffffffffffffffffffffffffffffffffffff1681526020019081526020016000205482600f60008673ffffffffffffffffffffffffffffffffffffffff1673ffffffffffffffffffffffffffffffffffffffff1681526020019081526020016000205461315f91906157f9565b115b156132565781600f60003373ffffffffffffffffffffffffffffffffffffffff1673ffffffffffffffffffffffffffffffffffffffff16815260200190815260200160002060008282546131b5919061584f565b9250508190555081600f60008573ffffffffffffffffffffffffffffffffffffffff1673ffffffffffffffffffffffffffffffffffffffff168152602001908152602001600020600082825461320b91906157f9565b925050819055507fddf252ad1be2c89b69c2b068fc378daa952ba7f163c4a11628f55a4df523b3ef33848460405161324593929190615620565b60405180910390a16001905061325b565b600090505b92915050565b600073ffffffffffffffffffffffffffffffffffffffff163373ffffffffffffffffffffffffffffffffffffffff1614156132d1576040517f08c379a00000000000000000000000000000000000000000000000000000000081526004016132c890615978565b60405180910390fd5b826000600760008373ffffffffffffffffffffffffffffffffffffffff1673ffffffffffffffffffffffffffffffffffffffff168152602001908152602001600020541415613355576040517f08c379a000000000000000000000000000000000000000000000000000000000815260040161334c906156a3565b60405180910390fd5b336000600760008373ffffffffffffffffffffffffffffffffffffffff1673ffffffffffffffffffffffffffffffffffffffff1681526020019081526020016000205414156133d9576040517f08c379a00000000000000000000000000000000000000000000000000000000081526004016133d0906156a3565b60405180910390fd5b600080600b8054905011156134845760005b600b80549050811015613482578673ffffffffffffffffffffffffffffffffffffffff16600b82815481106134235761342261572f565b5b9060005260206000200160009054906101000a900473ffffffffffffffffffffffffffffffffffffffff1673ffffffffffffffffffffffffffffffffffffffff16141561346f57600191505b808061347a906158e3565b9150506133eb565b505b806134ed57600b869080600181540180825580915050600190039060005260206000200160009091909190916101000a81548173ffffffffffffffffffffffffffffffffffffffff021916908373ffffffffffffffffffffffffffffffffffffffff1602179055505b6000339050600060405180606001604052808373ffffffffffffffffffffffffffffffffffffffff168152602001888152602001878152509050600a60008973ffffffffffffffffffffffffffffffffffffffff1673ffffffffffffffffffffffffffffffffffffffff16815260200190815260200160002081908060018154018082558091505060019003906000526020600020906003020160009091909190915060008201518160000160006101000a81548173ffffffffffffffffffffffffffffffffffffffff021916908373ffffffffffffffffffffffffffffffffffffffff1602179055506020820151816001015560408201518160020190805190602001906135fd9291906148b5565b5050507fb82fdd4f7f620f390f63d82d9dbd41fe893abb4fdc05d0b97f164463c896b5f533898860405161363393929190615a34565b60405180910390a15050505050505050565b336000600760008373ffffffffffffffffffffffffffffffffffffffff1673ffffffffffffffffffffffffffffffffffffffff1681526020019081526020016000205414156136c9576040517f08c379a00000000000000000000000000000000000000000000000000000000081526004016136c0906156a3565b60405180910390fd5b816000600760008373ffffffffffffffffffffffffffffffffffffffff1673ffffffffffffffffffffffffffffffffffffffff16815260200190815260200160002054141561374d576040517f08c379a0000000000000000000000000000000000000000000000000000000008152600401613744906156a3565b60405180910390fd5b60008060005b601380549050811015613862578573ffffffffffffffffffffffffffffffffffffffff166013828154811061378b5761378a61572f565b5b9060005260206000200160009054906101000a900473ffffffffffffffffffffffffffffffffffffffff1673ffffffffffffffffffffffffffffffffffffffff1614156137d757600192505b3373ffffffffffffffffffffffffffffffffffffffff1660136001815481106138035761380261572f565b5b9060005260206000200160009054906101000a900473ffffffffffffffffffffffffffffffffffffffff1673ffffffffffffffffffffffffffffffffffffffff16141561384f57600191505b808061385a906158e3565b915050613753565b5081156138cd576013859080600181540180825580915050600190039060005260206000200160009091909190916101000a81548173ffffffffffffffffffffffffffffffffffffffff021916908373ffffffffffffffffffffffffffffffffffffffff1602179055505b8015613937576013339080600181540180825580915050600190039060005260206000200160009091909190916101000a81548173ffffffffffffffffffffffffffffffffffffffff021916908373ffffffffffffffffffffffffffffffffffffffff1602179055505b6001601160008773ffffffffffffffffffffffffffffffffffffffff1673ffffffffffffffffffffffffffffffffffffffff16815260200190815260200160002060003373ffffffffffffffffffffffffffffffffffffffff1673ffffffffffffffffffffffffffffffffffffffff16815260200190815260200160002060006101000a81548160ff0219169083151502179055506001601160003373ffffffffffffffffffffffffffffffffffffffff1673ffffffffffffffffffffffffffffffffffffffff16815260200190815260200160002060008773ffffffffffffffffffffffffffffffffffffffff1673ffffffffffffffffffffffffffffffffffffffff16815260200190815260200160002060006101000a81548160ff0219169083151502179055507f5bf2433344d289f53021dcde4dde6ab1e6e36f18073a6723a697891251b240583386604051613a92929190615a72565b60405180910390a15050505050565b806000600760008373ffffffffffffffffffffffffffffffffffffffff1673ffffffffffffffffffffffffffffffffffffffff168152602001908152602001600020541415613b25576040517f08c379a0000000000000000000000000000000000000000000000000000000008152600401613b1c906156a3565b60405180910390fd5b826000600760008373ffffffffffffffffffffffffffffffffffffffff1673ffffffffffffffffffffffffffffffffffffffff168152602001908152602001600020541415613ba9576040517f08c379a0000000000000000000000000000000000000000000000000000000008152600401613ba0906156a3565b60405180910390fd5b84600d60008573ffffffffffffffffffffffffffffffffffffffff1673ffffffffffffffffffffffffffffffffffffffff16815260200190815260200160002060008673ffffffffffffffffffffffffffffffffffffffff1673ffffffffffffffffffffffffffffffffffffffff168152602001908152602001600020819055505050505050565b600560009054906101000a900473ffffffffffffffffffffffffffffffffffffffff1681565b6000816000600760008373ffffffffffffffffffffffffffffffffffffffff1673ffffffffffffffffffffffffffffffffffffffff168152602001908152602001600020541415613cdd576040517f08c379a0000000000000000000000000000000000000000000000000000000008152600401613cd4906156a3565b60405180910390fd5b600a60008473ffffffffffffffffffffffffffffffffffffffff1673ffffffffffffffffffffffffffffffffffffffff16815260200190815260200160002080549050915050919050565b6060336000600760008373ffffffffffffffffffffffffffffffffffffffff1673ffffffffffffffffffffffffffffffffffffffff168152602001908152602001600020541415613dae576040517f08c379a0000000000000000000000000000000000000000000000000000000008152600401613da5906156a3565b60405180910390fd5b600660003373ffffffffffffffffffffffffffffffffffffffff1673ffffffffffffffffffffffffffffffffffffffff168152602001908152602001600020805480602002602001604051908101604052809291908181526020016000905b82821015613ef65783829060005260206000209060030201604051806060016040529081600082015481526020016001820160009054906101000a900460ff16151515158152602001600282018054613e6590615582565b80601f0160208091040260200160405190810160405280929190818152602001828054613e9190615582565b8015613ede5780601f10613eb357610100808354040283529160200191613ede565b820191906000526020600020905b815481529060010190602001808311613ec157829003601f168201915b50505050508152505081526020019060010190613e0d565b5050505091505090565b6060600560009054906101000a900473ffffffffffffffffffffffffffffffffffffffff1673ffffffffffffffffffffffffffffffffffffffff163373ffffffffffffffffffffffffffffffffffffffff161415613f95576040518060400160405280600581526020017f6f776e657200000000000000000000000000000000000000000000000000000081525090506140d6565b6000600760003373ffffffffffffffffffffffffffffffffffffffff1673ffffffffffffffffffffffffffffffffffffffff1681526020019081526020016000205414614019576040518060400160405280600481526020017f757365720000000000000000000000000000000000000000000000000000000081525090506140d6565b6000601560003373ffffffffffffffffffffffffffffffffffffffff1673ffffffffffffffffffffffffffffffffffffffff168152602001908152602001600020541461409d576040518060400160405280600a81526020017f616476657274697365720000000000000000000000000000000000000000000081525090506140d6565b6040518060400160405280600781526020017f756e6b6e6f776e0000000000000000000000000000000000000000000000000081525090505b90565b336000600760008373ffffffffffffffffffffffffffffffffffffffff1673ffffffffffffffffffffffffffffffffffffffff16815260200190815260200160002054141561415d576040517f08c379a0000000000000000000000000000000000000000000000000000000008152600401614154906156a3565b60405180910390fd5b816000600760008373ffffffffffffffffffffffffffffffffffffffff1673ffffffffffffffffffffffffffffffffffffffff1681526020019081526020016000205414156141e1576040517f08c379a00000000000000000000000000000000000000000000000000000000081526004016141d8906156a3565b60405180910390fd5b82601060003373ffffffffffffffffffffffffffffffffffffffff1673ffffffffffffffffffffffffffffffffffffffff16815260200190815260200160002060006101000a81548173ffffffffffffffffffffffffffffffffffffffff021916908373ffffffffffffffffffffffffffffffffffffffff1602179055507fd121cae9a793821ccd32032194305278780253c9a60cf99d6411f54becc98f2d3384604051614290929190615a72565b60405180910390a1505050565b6000601560003373ffffffffffffffffffffffffffffffffffffffff1673ffffffffffffffffffffffffffffffffffffffff168152602001908152602001600020541415614320576040517f08c379a000000000000000000000000000000000000000000000000000000000815260040161431790615ae7565b60405180910390fd5b80601760003373ffffffffffffffffffffffffffffffffffffffff1673ffffffffffffffffffffffffffffffffffffffff16815260200190815260200160002090805190602001906143739291906148b5565b5050565b6060336000600760008373ffffffffffffffffffffffffffffffffffffffff1673ffffffffffffffffffffffffffffffffffffffff1681526020019081526020016000205414156143fd576040517f08c379a00000000000000000000000000000000000000000000000000000000081526004016143f4906156a3565b60405180910390fd5b600060405180602001604052806000815250905060005b60138054905081101561456357601160003373ffffffffffffffffffffffffffffffffffffffff1673ffffffffffffffffffffffffffffffffffffffff1681526020019081526020016000206000601383815481106144765761447561572f565b5b9060005260206000200160009054906101000a900473ffffffffffffffffffffffffffffffffffffffff1673ffffffffffffffffffffffffffffffffffffffff1673ffffffffffffffffffffffffffffffffffffffff16815260200190815260200160002060009054906101000a900460ff16156145505760136001815481106145035761450261572f565b5b9060005260206000200160009054906101000a900473ffffffffffffffffffffffffffffffffffffffff1660405160200161453e9190615b4f565b60405160208183030381529060405291505b808061455b906158e3565b915050614414565b50809250505090565b6000600460008473ffffffffffffffffffffffffffffffffffffffff1673ffffffffffffffffffffffffffffffffffffffff16815260200190815260200160002060008373ffffffffffffffffffffffffffffffffffffffff1673ffffffffffffffffffffffffffffffffffffffff168152602001908152602001600020546002546145f8919061584f565b905092915050565b6000600980549050905090565b6060600560009054906101000a900473ffffffffffffffffffffffffffffffffffffffff1673ffffffffffffffffffffffffffffffffffffffff163373ffffffffffffffffffffffffffffffffffffffff161461469f576040517f08c379a000000000000000000000000000000000000000000000000000000000815260040161469690615533565b60405180910390fd5b601680548060200260200160405190810160405280929190818152602001828054801561472157602002820191906000526020600020905b8160009054906101000a900473ffffffffffffffffffffffffffffffffffffffff1673ffffffffffffffffffffffffffffffffffffffff16815260200190600101908083116146d7575b5050505050905090565b600073ffffffffffffffffffffffffffffffffffffffff163373ffffffffffffffffffffffffffffffffffffffff16141561479b576040517f08c379a000000000000000000000000000000000000000000000000000000000815260040161479290615978565b60405180910390fd5b6001601560003373ffffffffffffffffffffffffffffffffffffffff1673ffffffffffffffffffffffffffffffffffffffff168152602001908152602001600020819055506016339080600181540180825580915050600190039060005260206000200160009091909190916101000a81548173ffffffffffffffffffffffffffffffffffffffff021916908373ffffffffffffffffffffffffffffffffffffffff1602179055507fdfaa8638b087deecf1b1ef43c6d6aa13dafc1d3374bb0e305ac4140f27f4c88f336040516148729190614c4f565b60405180910390a1565b6040518060400160405280600581526020017f312e302e3500000000000000000000000000000000000000000000000000000081525081565b8280546148c190615582565b90600052602060002090601f0160209004810192826148e3576000855561492a565b82601f106148fc57805160ff191683800117855561492a565b8280016001018555821561492a579182015b8281111561492957825182559160200191906001019061490e565b5b509050614937919061496a565b5090565b6040518060a0016040528060608152602001606081526020016060815260200160608152602001606081525090565b5b8082111561498357600081600090555060010161496b565b5090565b600081519050919050565b600082825260208201905092915050565b6000819050602082019050919050565b600073ffffffffffffffffffffffffffffffffffffffff82169050919050565b60006149de826149b3565b9050919050565b6149ee816149d3565b82525050565b6000614a0083836149e5565b60208301905092915050565b6000602082019050919050565b6000614a2482614987565b614a2e8185614992565b9350614a39836149a3565b8060005b83811015614a6a578151614a5188826149f4565b9750614a5c83614a0c565b925050600181019050614a3d565b5085935050505092915050565b60006020820190508181036000830152614a918184614a19565b905092915050565b600081519050919050565b600082825260208201905092915050565b60005b83811015614ad3578082015181840152602081019050614ab8565b83811115614ae2576000848401525b50505050565b6000601f19601f8301169050919050565b6000614b0482614a99565b614b0e8185614aa4565b9350614b1e818560208601614ab5565b614b2781614ae8565b840191505092915050565b60006020820190508181036000830152614b4c8184614af9565b905092915050565b6000604051905090565b600080fd5b600080fd5b614b71816149d3565b8114614b7c57600080fd5b50565b600081359050614b8e81614b68565b92915050565b6000819050919050565b614ba781614b94565b8114614bb257600080fd5b50565b600081359050614bc481614b9e565b92915050565b60008060408385031215614be157614be0614b5e565b5b6000614bef85828601614b7f565b9250506020614c0085828601614bb5565b9150509250929050565b60008115159050919050565b614c1f81614c0a565b82525050565b6000602082019050614c3a6000830184614c16565b92915050565b614c49816149d3565b82525050565b6000602082019050614c646000830184614c40565b92915050565b614c7381614b94565b82525050565b6000602082019050614c8e6000830184614c6a565b92915050565b600060208284031215614caa57614ca9614b5e565b5b6000614cb884828501614bb5565b91505092915050565b600080600060608486031215614cda57614cd9614b5e565b5b6000614ce886828701614b7f565b9350506020614cf986828701614b7f565b9250506040614d0a86828701614bb5565b9150509250925092565b614d1d81614c0a565b8114614d2857600080fd5b50565b600081359050614d3a81614d14565b92915050565b600080fd5b600080fd5b7f4e487b7100000000000000000000000000000000000000000000000000000000600052604160045260246000fd5b614d8282614ae8565b810181811067ffffffffffffffff82111715614da157614da0614d4a565b5b80604052505050565b6000614db4614b54565b9050614dc08282614d79565b919050565b600067ffffffffffffffff821115614de057614ddf614d4a565b5b614de982614ae8565b9050602081019050919050565b82818337600083830152505050565b6000614e18614e1384614dc5565b614daa565b905082815260208101848484011115614e3457614e33614d45565b5b614e3f848285614df6565b509392505050565b600082601f830112614e5c57614e5b614d40565b5b8135614e6c848260208601614e05565b91505092915050565b600080600060608486031215614e8e57614e8d614b5e565b5b6000614e9c86828701614bb5565b9350506020614ead86828701614d2b565b925050604084013567ffffffffffffffff811115614ece57614ecd614b63565b5b614eda86828701614e47565b9150509250925092565b600080600060608486031215614efd57614efc614b5e565b5b6000614f0b86828701614bb5565b9350506020614f1c86828701614b7f565b9250506040614f2d86828701614b7f565b9150509250925092565b600060208284031215614f4d57614f4c614b5e565b5b600082013567ffffffffffffffff811115614f6b57614f6a614b63565b5b614f7784828501614e47565b91505092915050565b600060208284031215614f9657614f95614b5e565b5b6000614fa484828501614b7f565b91505092915050565b600081519050919050565b600082825260208201905092915050565b6000819050602082019050919050565b614fe281614b94565b82525050565b600082825260208201905092915050565b600061500482614a99565b61500e8185614fe8565b935061501e818560208601614ab5565b61502781614ae8565b840191505092915050565b600060608301600083015161504a60008601826149e5565b50602083015161505d6020860182614fd9565b50604083015184820360408601526150758282614ff9565b9150508091505092915050565b600061508e8383615032565b905092915050565b6000602082019050919050565b60006150ae82614fad565b6150b88185614fb8565b9350836020820285016150ca85614fc9565b8060005b8581101561510657848403895281516150e78582615082565b94506150f283615096565b925060208a019950506001810190506150ce565b50829750879550505050505092915050565b6000602082019050818103600083015261513281846150a3565b905092915050565b600080600080600060a0868803121561515657615155614b5e565b5b600086013567ffffffffffffffff81111561517457615173614b63565b5b61518088828901614e47565b955050602086013567ffffffffffffffff8111156151a1576151a0614b63565b5b6151ad88828901614e47565b945050604086013567ffffffffffffffff8111156151ce576151cd614b63565b5b6151da88828901614e47565b935050606086013567ffffffffffffffff8111156151fb576151fa614b63565b5b61520788828901614e47565b925050608086013567ffffffffffffffff81111561522857615227614b63565b5b61523488828901614e47565b9150509295509295909350565b6000806040838503121561525857615257614b5e565b5b600061526685828601614b7f565b925050602061527785828601614b7f565b9150509250929050565b600060a083016000830151848203600086015261529e8282614ff9565b915050602083015184820360208601526152b88282614ff9565b915050604083015184820360408601526152d28282614ff9565b915050606083015184820360608601526152ec8282614ff9565b915050608083015184820360808601526153068282614ff9565b9150508091505092915050565b6000602082019050818103600083015261532d8184615281565b905092915050565b60008060006060848603121561534e5761534d614b5e565b5b600061535c86828701614b7f565b935050602061536d86828701614bb5565b925050604084013567ffffffffffffffff81111561538e5761538d614b63565b5b61539a86828701614e47565b9150509250925092565b600081519050919050565b600082825260208201905092915050565b6000819050602082019050919050565b6153d981614c0a565b82525050565b60006060830160008301516153f76000860182614fd9565b50602083015161540a60208601826153d0565b50604083015184820360408601526154228282614ff9565b9150508091505092915050565b600061543b83836153df565b905092915050565b6000602082019050919050565b600061545b826153a4565b61546581856153af565b935083602082028501615477856153c0565b8060005b858110156154b35784840389528151615494858261542f565b945061549f83615443565b925060208a0199505060018101905061547b565b50829750879550505050505092915050565b600060208201905081810360008301526154df8184615450565b905092915050565b7f6163636573732064656e69656420666f72206f776e6572000000000000000000600082015250565b600061551d601783614aa4565b9150615528826154e7565b602082019050919050565b6000602082019050818103600083015261554c81615510565b9050919050565b7f4e487b7100000000000000000000000000000000000000000000000000000000600052602260045260246000fd5b6000600282049050600182168061559a57607f821691505b602082108114156155ae576155ad615553565b5b50919050565b7f6d697373696e672073656e646572206164647265737300000000000000000000600082015250565b60006155ea601683614aa4565b91506155f5826155b4565b602082019050919050565b60006020820190508181036000830152615619816155dd565b9050919050565b60006060820190506156356000830186614c40565b6156426020830185614c40565b61564f6040830184614c6a565b949350505050565b7f7573657220646f6573206e6f7420657869737400000000000000000000000000600082015250565b600061568d601383614aa4565b915061569882615657565b602082019050919050565b600060208201905081810360008301526156bc81615680565b9050919050565b7f706f737420646f6573206e6f7420657869737473000000000000000000000000600082015250565b60006156f9601483614aa4565b9150615704826156c3565b602082019050919050565b60006020820190508181036000830152615728816156ec565b9050919050565b7f4e487b7100000000000000000000000000000000000000000000000000000000600052603260045260246000fd5b7f6d697373696e6720726563697069656e74206164647265737300000000000000600082015250565b6000615794601983614aa4565b915061579f8261575e565b602082019050919050565b600060208201905081810360008301526157c381615787565b9050919050565b7f4e487b7100000000000000000000000000000000000000000000000000000000600052601160045260246000fd5b600061580482614b94565b915061580f83614b94565b9250827fffffffffffffffffffffffffffffffffffffffffffffffffffffffffffffffff03821115615844576158436157ca565b5b828201905092915050565b600061585a82614b94565b915061586583614b94565b925082821015615878576158776157ca565b5b828203905092915050565b600081905092915050565b600061589982614a99565b6158a38185615883565b93506158b3818560208601614ab5565b80840191505092915050565b60006158cb828561588e565b91506158d7828461588e565b91508190509392505050565b60006158ee82614b94565b91507fffffffffffffffffffffffffffffffffffffffffffffffffffffffffffffffff821415615921576159206157ca565b5b600182019050919050565b7f6d697373696e6720616464726573730000000000000000000000000000000000600082015250565b6000615962600f83614aa4565b915061596d8261592c565b602082019050919050565b6000602082019050818103600083015261599181615955565b9050919050565b7f7573657220616c72656164792065786973747300000000000000000000000000600082015250565b60006159ce601383614aa4565b91506159d982615998565b602082019050919050565b600060208201905081810360008301526159fd816159c1565b9050919050565b6000604082019050615a196000830185614c40565b8181036020830152615a2b8184614af9565b90509392505050565b6000606082019050615a496000830186614c40565b615a566020830185614c40565b8181036040830152615a688184614af9565b9050949350505050565b6000604082019050615a876000830185614c40565b615a946020830184614c40565b9392505050565b7f6e6f7420616e2061647665727469736572000000000000000000000000000000600082015250565b6000615ad1601183614aa4565b9150615adc82615a9b565b602082019050919050565b60006020820190508181036000830152615b0081615ac4565b9050919050565b60008160601b9050919050565b6000615b1f82615b07565b9050919050565b6000615b3182615b14565b9050919050565b615b49615b44826149d3565b615b26565b82525050565b6000615b5b8284615b38565b6014820191508190509291505056fea2646970667358221220e84ae5954719a704440743721a7d45d811bc284ac880b0e8abb9fe2ed09edaa864736f6c634300080a0033",
  "immutableReferences": {},
  "source": "// SPDX-License-Identifier: CC-BY-4.0\npragma solidity >=0.4.22 <0.9.0;\n\nimport \"../Version.sol\";\n\ncontract SocialNetwork is Version {\n\n    string public name;\n    string public symbol;\n    uint256 public _totalSupply;\n\n    mapping(address => uint256) private _balances;\n    mapping(address => mapping (address => uint256)) allowed;\n\n    bytes32 constant private ZERO_BYTES = bytes32(0);\n    address constant private ZERO_ADDRESS = address(0);\n\n    address public _owner;\n    bool private initialized;\n\n    struct Post {\n        uint256 epoch;\n        bool    visible;\n        string  content;\n    }\n\n    struct Comment {\n        address comment_author;\n        uint256 post_index;\n        string  message;\n    }\n\n    struct UserMeta {\n        string fullname;\n        string profession;\n        string location;\n        string dob;\n        string interests;\n    }\n\n    struct LikesDislikes {\n        uint256 post;\n        address poster;\n        address user;\n    }\n\n    mapping (address => Post[]) private postsV2;\n\n    mapping (address => uint256) private users;\n    mapping (address => string[]) private posts;\n    address[] private _posters;\n    mapping (address => Comment[]) private comments;\n    address[] private comment_keys;\n    mapping (address => mapping(address => uint256)) private likes;\n    mapping (address => mapping(address => uint256)) private dislikes;\n    mapping (address => UserMeta) private user_meta;\n    mapping (address => uint256) private balances;\n    mapping (address => address) private followers;\n    mapping (address => mapping(address => bool)) private friend_request;\n    mapping (address => address) private friends;\n\n    address[] private _friends;\n\n    address[] private _users;\n\n\n    // advertisers\n    mapping (address => uint256) private advertisers;\n    address[] private _advertisers;\n    mapping (address => string) private advertisements;\n\n    //uint256 public totalSupply = 0;\n    mapping(uint256 => address) internal tokens;\n    event Mint(address indexed _to, uint256 indexed _tokenId, bytes32 _ipfsHash);\n\n    event Transfer(address sender,address recipient,uint256 amount);\n    event Approval(address sender,address spender,uint256 amount);\n\n    event CommentAdded(address sender,address user,string comment);\n    event AdvertiserAdded(address sender);\n    event UserAdded(address sender);\n    event PostAdded(address sender, string message);\n    event FollowerAdded(address sender, address follower);\n    event FriendRequestAdded(address sender, address user);\n\n  constructor()\n    payable\n  {\n  }\n    modifier onlyOwner() {\n        require(msg.sender == _owner, \"access denied for owner\");\n        _;\n    }\n\n    modifier addressValid() {\n        require(msg.sender != address(0), \"missing address\");\n        _;\n    }\n\n    modifier userNotExist() {\n        require(users[msg.sender] == 0, \"user exists\");\n        _;\n    }\n\n    modifier isUser(address user) {\n        require(users[user] != 0,\"user does not exist\");\n        _;\n    }\n\n    modifier notUser(address user) {\n        require(users[user] == 0,\"user already exists\");\n        _;\n    }\n\n    modifier isAdvertiser() {\n        require(advertisers[msg.sender] != 0, \"not an advertiser\");\n        _;\n    }\n\n    modifier notAdvertiser() {\n        require(advertisers[msg.sender] == 0, \"is an advertiser\");\n        _;\n    }\n\n    function getContractBalance()\n        public\n        view\n        onlyOwner\n        returns (uint256)\n    {\n        return address(this).balance;\n    }\n\n    function getOwner()\n        public\n        view\n        returns (address)\n    {\n        return _owner;\n    }\n\n    function getUserRole()\n        public\n        view\n        returns (string memory)\n    {\n        if (msg.sender == _owner) {\n        return string(\"owner\");\n        } else if (users[msg.sender] != 0) {\n        return string(\"user\");\n        } else if (advertisers[msg.sender] != 0) {\n        return string(\"advertiser\");\n        }\n        return string(\"unknown\");\n    }\n\n    function totalSupply()\n        public\n        view\n        returns (uint256)\n    {\n        return _totalSupply;\n    }\n\n    function balanceOf(address account)\n        public\n        view\n        returns (uint256)\n    {\n        return _balances[account];\n    }\n    function allowance(address owner, address spender)\n        public\n        view\n        returns (uint256)\n    {\n        return  (_totalSupply - allowed[owner][spender]);\n    }\n\n    function transfer(address recipient, uint256 amount)\n        public\n        returns (bool)\n    {\n        require(recipient != ZERO_ADDRESS, \"missing recipient address\");\n        if (balances[msg.sender] >= amount && amount > 0 && balances[recipient] + amount > balances[recipient]) {\n        balances[msg.sender] -= amount;\n        balances[recipient] += amount;\n        emit Transfer(msg.sender, recipient, amount); // trigger event\n        return true;\n        } else {\n        return false;\n        }\n    }\n    function approve(address spender, uint256 amount)\n        public\n        returns (bool)\n    {\n        require(spender != ZERO_ADDRESS, \"missing sender address\");\n        allowed[msg.sender][spender] = amount;\n        emit Approval(msg.sender, spender, amount);\n        return true;\n    }\n    function transferFrom(address sender, address recipient, uint256 amount)\n        public\n        returns (bool)\n    {\n        require(sender != ZERO_ADDRESS, \"missing sender address\");\n        require(recipient != ZERO_ADDRESS, \"missing recipient address\");\n\n        if (balances[sender] >= amount && allowed[sender][msg.sender] >= amount && amount > 0 &&\n        balances[recipient] + amount > balances[recipient]) {\n            balances[sender] -= amount;\n            balances[recipient] += amount;\n            emit Transfer(sender, recipient, amount);\n            return true;\n        } else {\n            return false;\n        }\n    }\n\n    function addUser()\n        public\n        payable\n        addressValid\n    {\n        require(users[msg.sender] == 0,\"user already exists\");\n        users[msg.sender] = 1;\n        _users.push(msg.sender);\n        emit UserAdded(msg.sender);\n        if (msg.sender != _owner) {\n            transferFrom(msg.sender, address(this),  0.001 ether);\n        }\n    }\n\n    function addPostv2(uint256 epoch,bool visible,string memory content)\n        public\n        payable\n        isUser(msg.sender)\n    {\n        Post memory _post = Post(epoch,visible,content);\n        postsV2[msg.sender].push(_post);\n    }\n\n    function getPostsv2()\n        public\n        view\n        isUser(msg.sender)\n        returns (Post[] memory)\n    {\n        return postsV2[msg.sender];\n    }\n\n    function getTotalPostsv2()\n        public\n        view\n        isUser(msg.sender)\n        returns (uint256)\n    {\n        return postsV2[msg.sender].length;\n    }\n\n    function addPostByOwner(string memory message)\n        public\n        onlyOwner\n    {\n        posts[msg.sender].push(message);\n    }\n\n    function addPost(string memory message)\n        public\n        payable\n        addressValid\n        returns (uint256)\n    {\n        bool found = false;\n        if (_posters.length > 0) {\n            for (uint i = 0; i < _posters.length; i++) {\n                if (_posters[i] == ZERO_ADDRESS) {\n                    found = true;\n                }\n            }\n        }\n        if (!found) {\n            _posters.push(msg.sender);\n        }\n        posts[msg.sender].push(message);\n        emit PostAdded(msg.sender, message);\n        return posts[msg.sender].length - 1;\n    }\n\n    function getTotalPosts()\n        public\n        view\n        returns (uint256)\n    {\n        return posts[msg.sender].length;\n    }\n    \n    function getPosts(uint256 index)\n        public\n        view\n        returns (string memory)\n    {\n        require(index < posts[msg.sender].length,\"post does not exists\");\n        return posts[msg.sender][index];\n    }\n    \n\n    function getAllPosts()\n        public\n        view\n        onlyOwner\n        returns (string memory)\n    {\n        string memory output = \"\";\n        uint256 total = _posters.length;\n        for (uint i = 0; i < total; i++) {\n            address key = _posters[i];\n            string[] memory post = posts[key];\n            if (post.length > 0) {\n                for (uint l = 0; l < post.length; l++) {\n                    output = string(abi.encodePacked(output, post[l]));\n                }\n            }\n        }\n        return output;\n    }\n\n    function addComment(address poster, uint index, string memory message)\n        public\n        payable\n        addressValid\n        isUser(poster)\n        isUser(msg.sender)\n    {\n        bool found = false;\n        if (comment_keys.length > 0) {\n            for (uint i = 0; i < comment_keys.length; i++) {\n                if (comment_keys[i] == poster) {\n                found = true;\n                }\n            }\n        }\n        if (!found) {\n            comment_keys.push(poster);\n        }\n        address comment_author = msg.sender;\n        Comment memory comment = Comment(comment_author, index, message);\n        comments[poster].push(comment);\n        emit CommentAdded(msg.sender,poster,message);\n    }\n\n    function getCommentTotal(address poster)\n        public\n        view\n        isUser(poster)\n        returns (uint256)\n    {\n        return comments[poster].length;\n    }\n\n    function getComments()\n        public\n        view\n        addressValid\n        isUser(msg.sender)\n        returns (Comment[] memory)\n    {\n        return comments[msg.sender];\n    }\n\n    function getCommentsForPoster(address poster)\n        public\n        view\n        onlyOwner\n        addressValid\n        isUser(poster)\n        returns (Comment[] memory)\n    {\n        return comments[poster];\n    }\n\n\n    /**\n    * interests is comma dellimited string, e.g. \"girls,technology,stage plays\"\n    */\n    function updateUserMeta(string memory fullname, string memory profession, string memory location, string memory dob, string memory interests)\n        public\n        payable\n    {\n        UserMeta memory meta = UserMeta(fullname, profession, location, dob, interests);\n        user_meta[msg.sender] = meta;\n    }\n\n    function getUserMeta()\n        public\n        view\n        returns (UserMeta memory)\n    {\n        return user_meta[msg.sender];\n    }\n\n    // Add a new advertiser\n    function addAdvertiser()\n        public\n        payable\n        addressValid\n    {\n        advertisers[msg.sender] = 1;\n        _advertisers.push(msg.sender);\n        emit AdvertiserAdded(msg.sender);\n    }\n\n    function newAdvertisement(string memory message)\n        public\n        payable\n        isAdvertiser\n    {\n        advertisements[msg.sender] = message;\n    }\n\n    function getAdvertisers()\n        public\n        view\n        onlyOwner\n        returns (address[] memory)\n    {\n        return _advertisers;\n    }\n\n    function getUsers()\n        public\n        view\n        onlyOwner\n        returns (address[] memory)\n    {\n        return _users;\n    }\n\n    function getTotalUsers()\n        public\n        view\n        returns (uint256)\n    {\n        return _users.length;\n    }\n\n    function getPosters()\n        public\n        view\n        returns (address[] memory)\n    {\n        return _posters;\n    }\n\n    function getTotalPosters()\n        public\n        view\n        returns (uint256)\n    {\n        return _posters.length;\n    }\n\n\n    /**\n    * a post may contain many likes, one -> many\n    * one like per user per post\n    */\n    function setLike(uint256 post, address poster, address user)\n        public\n        payable\n        isUser(user)\n        isUser(poster)\n    {\n        likes[user][poster] = post;\n    }\n\n    function setDislike(uint256 post, address poster, address user)\n        public\n        payable\n        isUser(user)\n        isUser(poster)\n    {\n        dislikes[user][poster] = post;\n    }\n\n    function getLikes(address user, address poster)\n        public\n        view\n        isUser(user)\n        isUser(poster)\n        returns (uint256)\n    {\n        return likes[user][poster];\n    }\n\n    function getDislikes(address user, address poster)\n        public\n        view\n        isUser(user)\n        isUser(poster)\n        returns (uint256)\n    {\n        return dislikes[user][poster];\n    }\n\n    /**\n     * Followers\n     */\n    function addFollower(address user)\n        public\n        payable\n        isUser(msg.sender)\n        isUser(user)\n    {\n        followers[msg.sender] = user;\n        emit FollowerAdded(msg.sender, user);\n    }\n\n    function getFollowers()\n        public\n        view\n        isUser(msg.sender)\n        returns (address)\n    {\n        return followers[msg.sender];\n    }\n\n    // Friend Request\n    function addFriendRequest(address user)\n        public\n        payable\n        isUser(msg.sender)\n        isUser(user)\n    {\n        bool found1 = false;\n        bool found2 = false;\n        for (uint i = 0; i < _friends.length; i++) {\n            if (_friends[i] == user) {\n                found1 = true;\n            }\n            if (_friends[1] == msg.sender) {\n                found2 = true;\n            }\n        }\n        if (found1) {\n            _friends.push(user);\n        }\n        if (found2) {\n            _friends.push(msg.sender);\n        }\n        friend_request[user][msg.sender] = true;\n        friend_request[msg.sender][user] = true;\n        emit FriendRequestAdded(msg.sender,user);\n    }\n\n    function getTotalFriendRequest()\n        public\n        view\n        returns (uint256)\n    {\n        uint total = 0;\n        for (uint i = 0; i < _friends.length; i++) {\n            if (friend_request[msg.sender][_friends[i]]) {\n                total++;\n            }\n        }\n        return total;\n    }\n\n    function getFriends()\n        public\n        view\n        returns (address[] memory)\n    {\n        return _friends;\n    }\n\n    function getFriendRequest()\n        public\n        view\n        isUser(msg.sender)\n        returns (string memory)\n    {\n        string memory output = \"\";\n        for (uint i = 0; i < _friends.length; i++) {\n            if (friend_request[msg.sender][_friends[i]]) {\n                output = string(abi.encodePacked(_friends[1]));\n            }\n        }\n        return output;\n    }\n}\n",
  "sourcePath": "G:\\projects\\pingleware-contracts\\contracts\\social\\SocialNetwork.sol",
  "compiler": {
    "name": "solc",
    "version": "0.8.10+commit.fc410830.Emscripten.clang"
  },
  "schemaVersion": "3.4.3",
  "updatedAt": "2021-12-22T00:15:20.189Z",
  "devdoc": {
    "kind": "dev",
    "methods": {},
    "version": 1
  },
  "userdoc": {
    "kind": "user",
    "methods": {
      "addFollower(address)": {
        "notice": "Followers"
      },
      "setLike(uint256,address,address)": {
        "notice": "a post may contain many likes, one -> many one like per user per post"
      },
      "updateUserMeta(string,string,string,string,string)": {
        "notice": "interests is comma dellimited string, e.g. \"girls,technology,stage plays\""
      }
    },
    "version": 1
  }
}