{
  "contractName": "SocialNetwork",
  "abi": [
    {
      "inputs": [],
      "stateMutability": "payable",
      "type": "constructor"
    },
    {
      "anonymous": false,
      "inputs": [
        {
          "indexed": false,
          "internalType": "address",
          "name": "owner",
          "type": "address"
        },
        {
          "indexed": false,
          "internalType": "uint256",
          "name": "amount",
          "type": "uint256"
        }
      ],
      "name": "CashOut",
      "type": "event"
    },
    {
      "anonymous": false,
      "inputs": [
        {
          "indexed": false,
          "internalType": "address",
          "name": "sender",
          "type": "address"
        }
      ],
      "name": "ContractCallback",
      "type": "event"
    },
    {
      "anonymous": false,
      "inputs": [
        {
          "indexed": false,
          "internalType": "address",
          "name": "sender",
          "type": "address"
        }
      ],
      "name": "ContractFrozen",
      "type": "event"
    },
    {
      "anonymous": false,
      "inputs": [
        {
          "indexed": false,
          "internalType": "address",
          "name": "sender",
          "type": "address"
        }
      ],
      "name": "ContractThawed",
      "type": "event"
    },
    {
      "anonymous": false,
      "inputs": [
        {
          "indexed": false,
          "internalType": "address",
          "name": "sender",
          "type": "address"
        },
        {
          "indexed": false,
          "internalType": "address",
          "name": "recipient",
          "type": "address"
        }
      ],
      "name": "Destroyed",
      "type": "event"
    },
    {
      "anonymous": false,
      "inputs": [
        {
          "indexed": false,
          "internalType": "address",
          "name": "sender",
          "type": "address"
        },
        {
          "indexed": false,
          "internalType": "uint256",
          "name": "amount",
          "type": "uint256"
        }
      ],
      "name": "FallbackEvent",
      "type": "event"
    },
    {
      "anonymous": false,
      "inputs": [
        {
          "indexed": false,
          "internalType": "address",
          "name": "sender",
          "type": "address"
        },
        {
          "indexed": false,
          "internalType": "address",
          "name": "user",
          "type": "address"
        },
        {
          "indexed": false,
          "internalType": "string",
          "name": "message",
          "type": "string"
        }
      ],
      "name": "MessageUser",
      "type": "event"
    },
    {
      "anonymous": false,
      "inputs": [
        {
          "indexed": true,
          "internalType": "address",
          "name": "previousOwner",
          "type": "address"
        },
        {
          "indexed": true,
          "internalType": "address",
          "name": "newOwner",
          "type": "address"
        }
      ],
      "name": "OwnershipTransferred",
      "type": "event"
    },
    {
      "anonymous": false,
      "inputs": [
        {
          "indexed": false,
          "internalType": "address",
          "name": "sender",
          "type": "address"
        },
        {
          "indexed": false,
          "internalType": "uint256",
          "name": "amount",
          "type": "uint256"
        }
      ],
      "name": "ReceiveEvent",
      "type": "event"
    },
    {
      "anonymous": false,
      "inputs": [
        {
          "indexed": false,
          "internalType": "address",
          "name": "sender",
          "type": "address"
        },
        {
          "indexed": false,
          "internalType": "bytes",
          "name": "reason",
          "type": "bytes"
        }
      ],
      "name": "Started",
      "type": "event"
    },
    {
      "anonymous": false,
      "inputs": [
        {
          "indexed": false,
          "internalType": "address",
          "name": "sender",
          "type": "address"
        },
        {
          "indexed": false,
          "internalType": "bytes",
          "name": "reason",
          "type": "bytes"
        }
      ],
      "name": "Stopped",
      "type": "event"
    },
    {
      "anonymous": false,
      "inputs": [
        {
          "indexed": false,
          "internalType": "address",
          "name": "sender",
          "type": "address"
        },
        {
          "indexed": false,
          "internalType": "string",
          "name": "reason",
          "type": "string"
        }
      ],
      "name": "Termination",
      "type": "event"
    },
    {
      "stateMutability": "payable",
      "type": "fallback"
    },
    {
      "inputs": [],
      "name": "SOCIAL_NETWORK_NAME",
      "outputs": [
        {
          "internalType": "string",
          "name": "",
          "type": "string"
        }
      ],
      "stateMutability": "view",
      "type": "function"
    },
    {
      "inputs": [],
      "name": "SOCIAL_NETWORK_TAGLINE",
      "outputs": [
        {
          "internalType": "string",
          "name": "",
          "type": "string"
        }
      ],
      "stateMutability": "view",
      "type": "function"
    },
    {
      "inputs": [],
      "name": "VERSION",
      "outputs": [
        {
          "internalType": "string",
          "name": "",
          "type": "string"
        }
      ],
      "stateMutability": "view",
      "type": "function"
    },
    {
      "inputs": [],
      "name": "WAIT",
      "outputs": [
        {
          "internalType": "uint256",
          "name": "",
          "type": "uint256"
        }
      ],
      "stateMutability": "view",
      "type": "function"
    },
    {
      "inputs": [],
      "name": "active",
      "outputs": [
        {
          "internalType": "bool",
          "name": "",
          "type": "bool"
        }
      ],
      "stateMutability": "view",
      "type": "function"
    },
    {
      "inputs": [],
      "name": "destroy",
      "outputs": [],
      "stateMutability": "nonpayable",
      "type": "function"
    },
    {
      "inputs": [
        {
          "internalType": "address",
          "name": "_recipient",
          "type": "address"
        }
      ],
      "name": "destroyAndSend",
      "outputs": [],
      "stateMutability": "nonpayable",
      "type": "function"
    },
    {
      "inputs": [],
      "name": "getOwner",
      "outputs": [
        {
          "internalType": "address",
          "name": "",
          "type": "address"
        }
      ],
      "stateMutability": "payable",
      "type": "function"
    },
    {
      "inputs": [
        {
          "internalType": "address",
          "name": "",
          "type": "address"
        }
      ],
      "name": "optout",
      "outputs": [
        {
          "internalType": "bool",
          "name": "",
          "type": "bool"
        }
      ],
      "stateMutability": "view",
      "type": "function"
    },
    {
      "inputs": [],
      "name": "payable_address",
      "outputs": [
        {
          "internalType": "address",
          "name": "",
          "type": "address"
        }
      ],
      "stateMutability": "view",
      "type": "function"
    },
    {
      "inputs": [],
      "name": "renounceOwnership",
      "outputs": [],
      "stateMutability": "payable",
      "type": "function"
    },
    {
      "inputs": [
        {
          "internalType": "address",
          "name": "newOwner",
          "type": "address"
        }
      ],
      "name": "transferOwnership",
      "outputs": [],
      "stateMutability": "payable",
      "type": "function"
    },
    {
      "stateMutability": "payable",
      "type": "receive"
    },
    {
      "inputs": [
        {
          "internalType": "uint256",
          "name": "fee",
          "type": "uint256"
        },
        {
          "internalType": "uint256",
          "name": "amount",
          "type": "uint256"
        }
      ],
      "name": "updateFees",
      "outputs": [],
      "stateMutability": "payable",
      "type": "function"
    },
    {
      "inputs": [],
      "name": "freeze",
      "outputs": [],
      "stateMutability": "payable",
      "type": "function"
    },
    {
      "inputs": [],
      "name": "unfreeze",
      "outputs": [],
      "stateMutability": "payable",
      "type": "function"
    },
    {
      "inputs": [],
      "name": "freeze_insecure",
      "outputs": [],
      "stateMutability": "payable",
      "type": "function"
    },
    {
      "inputs": [],
      "name": "unfreeze_insecure",
      "outputs": [],
      "stateMutability": "payable",
      "type": "function"
    },
    {
      "inputs": [],
      "name": "cashoutToOwner",
      "outputs": [],
      "stateMutability": "payable",
      "type": "function"
    },
    {
      "inputs": [
        {
          "internalType": "address",
          "name": "_useraddress",
          "type": "address"
        },
        {
          "internalType": "string",
          "name": "fullname",
          "type": "string"
        },
        {
          "internalType": "string",
          "name": "profession",
          "type": "string"
        },
        {
          "internalType": "string",
          "name": "location",
          "type": "string"
        },
        {
          "internalType": "string",
          "name": "dob",
          "type": "string"
        },
        {
          "internalType": "string",
          "name": "interests",
          "type": "string"
        },
        {
          "internalType": "string",
          "name": "role",
          "type": "string"
        }
      ],
      "name": "addUser",
      "outputs": [],
      "stateMutability": "payable",
      "type": "function"
    },
    {
      "inputs": [
        {
          "internalType": "address",
          "name": "_useraddress",
          "type": "address"
        },
        {
          "internalType": "string",
          "name": "role",
          "type": "string"
        }
      ],
      "name": "deleteUser",
      "outputs": [],
      "stateMutability": "payable",
      "type": "function"
    },
    {
      "inputs": [
        {
          "internalType": "address",
          "name": "_useraddress",
          "type": "address"
        },
        {
          "internalType": "string",
          "name": "role",
          "type": "string"
        }
      ],
      "name": "blockUser",
      "outputs": [],
      "stateMutability": "payable",
      "type": "function"
    },
    {
      "inputs": [
        {
          "internalType": "address",
          "name": "_useraddress",
          "type": "address"
        },
        {
          "internalType": "string",
          "name": "role",
          "type": "string"
        }
      ],
      "name": "unblockUser",
      "outputs": [],
      "stateMutability": "payable",
      "type": "function"
    },
    {
      "inputs": [
        {
          "internalType": "string",
          "name": "fullname",
          "type": "string"
        },
        {
          "internalType": "string",
          "name": "location",
          "type": "string"
        },
        {
          "internalType": "string",
          "name": "dob",
          "type": "string"
        }
      ],
      "name": "registerAdvertiser",
      "outputs": [],
      "stateMutability": "payable",
      "type": "function"
    },
    {
      "inputs": [
        {
          "internalType": "string",
          "name": "fullname",
          "type": "string"
        },
        {
          "internalType": "string",
          "name": "profession",
          "type": "string"
        },
        {
          "internalType": "string",
          "name": "location",
          "type": "string"
        },
        {
          "internalType": "string",
          "name": "dob",
          "type": "string"
        },
        {
          "internalType": "string",
          "name": "interests",
          "type": "string"
        }
      ],
      "name": "register",
      "outputs": [],
      "stateMutability": "payable",
      "type": "function"
    },
    {
      "inputs": [
        {
          "internalType": "uint256",
          "name": "timestamp",
          "type": "uint256"
        },
        {
          "internalType": "bool",
          "name": "visibility",
          "type": "bool"
        },
        {
          "internalType": "string",
          "name": "message",
          "type": "string"
        }
      ],
      "name": "post",
      "outputs": [],
      "stateMutability": "payable",
      "type": "function"
    },
    {
      "inputs": [
        {
          "internalType": "address",
          "name": "poster",
          "type": "address"
        },
        {
          "internalType": "uint256",
          "name": "index",
          "type": "uint256"
        }
      ],
      "name": "adminDeletePost",
      "outputs": [],
      "stateMutability": "payable",
      "type": "function"
    },
    {
      "inputs": [
        {
          "internalType": "uint256",
          "name": "index",
          "type": "uint256"
        }
      ],
      "name": "deletePost",
      "outputs": [],
      "stateMutability": "payable",
      "type": "function"
    },
    {
      "inputs": [
        {
          "internalType": "address",
          "name": "poster",
          "type": "address"
        },
        {
          "internalType": "uint256",
          "name": "index",
          "type": "uint256"
        },
        {
          "internalType": "string",
          "name": "message",
          "type": "string"
        }
      ],
      "name": "addComment",
      "outputs": [],
      "stateMutability": "payable",
      "type": "function"
    },
    {
      "inputs": [
        {
          "internalType": "address",
          "name": "_useraddress",
          "type": "address"
        },
        {
          "internalType": "uint256",
          "name": "index",
          "type": "uint256"
        }
      ],
      "name": "adminDeleteComment",
      "outputs": [],
      "stateMutability": "payable",
      "type": "function"
    },
    {
      "inputs": [
        {
          "internalType": "uint256",
          "name": "index",
          "type": "uint256"
        }
      ],
      "name": "deleteComment",
      "outputs": [],
      "stateMutability": "payable",
      "type": "function"
    },
    {
      "inputs": [],
      "name": "getUsers",
      "outputs": [
        {
          "internalType": "address[]",
          "name": "",
          "type": "address[]"
        }
      ],
      "stateMutability": "view",
      "type": "function"
    },
    {
      "inputs": [],
      "name": "getAdvertisers",
      "outputs": [
        {
          "internalType": "address[]",
          "name": "",
          "type": "address[]"
        }
      ],
      "stateMutability": "view",
      "type": "function"
    },
    {
      "inputs": [
        {
          "internalType": "string",
          "name": "message",
          "type": "string"
        }
      ],
      "name": "newAdvertisement",
      "outputs": [],
      "stateMutability": "payable",
      "type": "function"
    },
    {
      "inputs": [
        {
          "internalType": "address",
          "name": "_advertiseraddress",
          "type": "address"
        },
        {
          "internalType": "uint256",
          "name": "index",
          "type": "uint256"
        }
      ],
      "name": "adminDeleteAdvertisement",
      "outputs": [],
      "stateMutability": "payable",
      "type": "function"
    },
    {
      "inputs": [
        {
          "internalType": "uint256",
          "name": "index",
          "type": "uint256"
        }
      ],
      "name": "deleteAdvertisement",
      "outputs": [],
      "stateMutability": "payable",
      "type": "function"
    },
    {
      "inputs": [],
      "name": "getAdvertisements",
      "outputs": [
        {
          "internalType": "string[]",
          "name": "",
          "type": "string[]"
        }
      ],
      "stateMutability": "view",
      "type": "function"
    },
    {
      "inputs": [],
      "name": "getContractBalance",
      "outputs": [
        {
          "internalType": "uint256",
          "name": "",
          "type": "uint256"
        }
      ],
      "stateMutability": "payable",
      "type": "function"
    },
    {
      "inputs": [],
      "name": "getUserRole",
      "outputs": [
        {
          "internalType": "string",
          "name": "",
          "type": "string"
        }
      ],
      "stateMutability": "view",
      "type": "function"
    },
    {
      "inputs": [
        {
          "internalType": "address",
          "name": "useraddress",
          "type": "address"
        }
      ],
      "name": "getRoleOfUser",
      "outputs": [
        {
          "internalType": "string",
          "name": "",
          "type": "string"
        }
      ],
      "stateMutability": "view",
      "type": "function"
    },
    {
      "inputs": [
        {
          "internalType": "address",
          "name": "user",
          "type": "address"
        }
      ],
      "name": "addFollower",
      "outputs": [],
      "stateMutability": "payable",
      "type": "function"
    },
    {
      "inputs": [],
      "name": "getFollowers",
      "outputs": [
        {
          "internalType": "address[]",
          "name": "",
          "type": "address[]"
        }
      ],
      "stateMutability": "view",
      "type": "function"
    },
    {
      "inputs": [
        {
          "internalType": "address",
          "name": "user",
          "type": "address"
        }
      ],
      "name": "makeFriendRequest",
      "outputs": [],
      "stateMutability": "payable",
      "type": "function"
    },
    {
      "inputs": [
        {
          "internalType": "address",
          "name": "_useraddress",
          "type": "address"
        },
        {
          "internalType": "address",
          "name": "_followeraddress",
          "type": "address"
        }
      ],
      "name": "adminDeleteFollower",
      "outputs": [],
      "stateMutability": "payable",
      "type": "function"
    },
    {
      "inputs": [
        {
          "internalType": "address",
          "name": "_followeraddress",
          "type": "address"
        }
      ],
      "name": "deleteFollower",
      "outputs": [],
      "stateMutability": "payable",
      "type": "function"
    },
    {
      "inputs": [],
      "name": "getFriendRequests",
      "outputs": [
        {
          "internalType": "address[]",
          "name": "",
          "type": "address[]"
        }
      ],
      "stateMutability": "view",
      "type": "function"
    },
    {
      "inputs": [
        {
          "internalType": "address",
          "name": "requestor",
          "type": "address"
        }
      ],
      "name": "approveFriendRequest",
      "outputs": [],
      "stateMutability": "payable",
      "type": "function"
    },
    {
      "inputs": [
        {
          "internalType": "address",
          "name": "requestor",
          "type": "address"
        }
      ],
      "name": "deleteFriendRequest",
      "outputs": [],
      "stateMutability": "payable",
      "type": "function"
    },
    {
      "inputs": [
        {
          "internalType": "string",
          "name": "message",
          "type": "string"
        }
      ],
      "name": "notifyFollowers",
      "outputs": [],
      "stateMutability": "payable",
      "type": "function"
    },
    {
      "inputs": [
        {
          "internalType": "string",
          "name": "message",
          "type": "string"
        }
      ],
      "name": "notifyFriends",
      "outputs": [],
      "stateMutability": "payable",
      "type": "function"
    },
    {
      "inputs": [
        {
          "internalType": "address",
          "name": "account",
          "type": "address"
        }
      ],
      "name": "balanceOf",
      "outputs": [
        {
          "internalType": "uint256",
          "name": "",
          "type": "uint256"
        }
      ],
      "stateMutability": "view",
      "type": "function"
    },
    {
      "inputs": [],
      "name": "myBalance",
      "outputs": [
        {
          "internalType": "uint256",
          "name": "",
          "type": "uint256"
        }
      ],
      "stateMutability": "view",
      "type": "function"
    },
    {
      "inputs": [
        {
          "internalType": "address",
          "name": "user",
          "type": "address"
        },
        {
          "internalType": "bool",
          "name": "status",
          "type": "bool"
        }
      ],
      "name": "userChangeOptsOutStatus",
      "outputs": [],
      "stateMutability": "nonpayable",
      "type": "function"
    },
    {
      "inputs": [
        {
          "internalType": "address",
          "name": "user",
          "type": "address"
        },
        {
          "internalType": "string",
          "name": "message",
          "type": "string"
        }
      ],
      "name": "sendUserMessage",
      "outputs": [],
      "stateMutability": "payable",
      "type": "function"
    },
    {
      "inputs": [],
      "name": "getUserList",
      "outputs": [
        {
          "internalType": "address[]",
          "name": "",
          "type": "address[]"
        }
      ],
      "stateMutability": "payable",
      "type": "function"
    }
  ],
  "bytecode": "0x608060408190526003805460ff191690556006805460a060020a60ff0219169055655af3107a40006007819055662386f26fc1000060088190556601c6bf52634000600955600a829055600b55600c819055600d819055600e5566038d7ea4c68000600f5560008054600160a060020a03191633908117825542600155917f8be0079c531659141344cd1fd0a4f28419497f9722a3daafe3b4186f6b6457e0908290a373__User__________________________________63455c928c6040518163ffffffff167c010000000000000000000000000000000000000000000000000000000002815260040160006040518083038186803b1580156200010357600080fd5b505af415801562000118573d6000803e3d6000fd5b5050505073__User__________________________________639d7300d26040518060400160405280600881526020017f4d794b726f6e65650000000000000000000000000000000000000000000000008152506040518060400160405280600581526020017f4f776e65720000000000000000000000000000000000000000000000000000008152506040518363ffffffff167c0100000000000000000000000000000000000000000000000000000000028152600401620001dd92919062000270565b60006040518083038186803b158015620001f657600080fd5b505af41580156200020b573d6000803e3d6000fd5b505060068054600160a060020a0319163317905550620002e49050565b6000815180845260005b81811015620002505760208185018101518683018201520162000232565b506000602082860101526020601f19601f83011685010191505092915050565b60c0815260006200028560c083018562000228565b828103806020850152600082526020810160408501526000602083015260408101606085015260006040830152606081016080850152600060608301526080810160a085015250620002db608082018562000228565b95945050505050565b6156e580620002f46000396000f3fe60806040526004361061026b5760e060020a6000350462ce8e3e811461033257806302fb0c5e1461035d578063094cd5ee1461038e5780630d79f561146103a3578063187fd172146103b85780633407499a146103cb5780633414b1ae146103de5780633465e91a146103f15780633528cf50146104045780634eba96a81461044a5780634ebe16a21461045d57806351be8d3314610470578063578ea4ed1461048357806358a3e53d146104965780635a09007b146104a957806362a5af3b146104bc5780636a28f000146104c45780636b14d046146104cc5780636db79437146104df5780636e1afe0a146104f25780636f9fb98a1461050557806370a082311461051b578063715018a6146105435780637d0b10261461054b57806383197ef01461055e578063866a072714610573578063893d20e81461057b5780638e7cb6ed1461059057806391a7b1b7146105c0578063a133853f146105ed578063a28fadd614610600578063aae741c414610637578063ab111d8b1461064a578063b85220431461066c578063b8fb3a5114610674578063b9d4c87614610689578063bf04a10d1461069c578063c0e1b697146106b1578063c496563b146106b9578063c62f2103146106cc578063c9116b69146106ec578063ceeac5d414610701578063d2ab487314610714578063d2c162fe14610727578063d3dc56361461073a578063d6688cbd1461077e578063d70a8df514610793578063e6e32201146107a6578063e854791f146107b9578063ec547d80146107c1578063f2fde38b146107d6578063f5074f41146107e9578063f8cd38b314610809578063ffa1ad741461081c576102ab565b366102ab577fcc85d09d309785db93d6df19917f2e6cc07fe27cd01c08c8279145deb5cf452633346040516102a19291906148d5565b60405180910390a1005b3233146103015760405160e560020a62461bcd0281526020600482015260196024820152603860020a787068697368696e672061747461636b2064657465637465643f0260448201526064015b60405180910390fd5b7f26875833861a2b006512a11f1b86edf95df96131040f3caeed72989ee985808333346040516102a19291906148d5565b34801561033e57600080fd5b50610347610855565b60405161035491906148ee565b60405180910390f35b34801561036957600080fd5b5060065461037e9060a060020a900460ff1681565b6040519015158152602001610354565b6103a161039c36600461493b565b6108cf565b005b3480156103af57600080fd5b50610347610aa6565b6103a16103c636600461497c565b610c62565b6103a16103d936600461493b565b6110d1565b6103a16103ec366004614a67565b6111e1565b6103a16103ff366004614aa3565b6114a3565b34801561041057600080fd5b506103a161041f366004614bb7565b600160a060020a03919091166000908152600560205260409020805460ff1916911515919091179055565b6103a161045836600461497c565b611a73565b6103a161046b366004614bf0565b611c1a565b6103a161047e366004614c3f565b611d6c565b6103a1610491366004614a67565b611dfa565b6103a16104a4366004614bf0565b612085565b6103a16104b7366004614c6b565b6121d7565b6103a161245f565b6103a16124de565b6103a16104da36600461497c565b612559565b6103a16104ed366004614d3c565b612702565b6103a1610500366004614d5e565b6127b1565b61050d612a62565b604051908152602001610354565b34801561052757600080fd5b5061050d61053636600461497c565b600160a060020a03163190565b6103a1612a96565b6103a161055936600461493b565b612afb565b34801561056a57600080fd5b506103a1612ca3565b6103a1612cf6565b610583612d23565b6040516103549190614db6565b34801561059c57600080fd5b5061037e6105ab36600461497c565b60056020526000908152604090205460ff1681565b3480156105cc57600080fd5b506105e06105db36600461497c565b612d99565b6040516103549190614e1a565b6103a16105fb366004614e2d565b612e21565b34801561060c57600080fd5b506105e060405180604001604052806008815260200160c060020a674d794b726f6e65650281525081565b6103a1610645366004614e5b565b612eaf565b34801561065657600080fd5b5061065f613200565b6040516103549190614e9d565b610347613276565b34801561068057600080fd5b5061050d601e81565b6103a1610697366004614c3f565b613367565b3480156106a857600080fd5b506105e06133f5565b6103a161346b565b6103a16106c7366004614bf0565b613498565b3480156106d857600080fd5b5060065461058390600160a060020a031681565b3480156106f857600080fd5b5061050d61367f565b6103a161070f36600461497c565b6137af565b6103a1610722366004614a67565b613c1e565b6103a1610735366004614c3f565b613d9c565b34801561074657600080fd5b506105e0604051806040016040528060158152602001605860020a744d79204b726f6e65652c204d7920467269656e64210281525081565b34801561078a57600080fd5b50610347613e2a565b6103a16107a1366004614bf0565b613fe6565b6103a16107b4366004614efe565b614138565b6103a161442e565b3480156107cd57600080fd5b50610347614532565b6103a16107e436600461497c565b614580565b3480156107f557600080fd5b506103a161080436600461497c565b614661565b6103a161081736600461497c565b6146ad565b34801561082857600080fd5b506105e06040518060400160405280600a815260200160b060020a69312e362e342d626574610281525081565b606073__User__________________________________62ce8e3e6040518163ffffffff1660e060020a028152600401600060405180830381865af41580156108a2573d6000803e3d6000fd5b505050506040513d6000823e601f3d908101601f191682016040526108ca9190810190614f9e565b905090565b60035460ff166108f45760405160e560020a62461bcd0281526004016102f890615034565b336109145760405160e560020a62461bcd0281526004016102f89061506b565b73__StringUtils___________________________6346bdca9a73__User__________________________________63bf04a10d6040518163ffffffff1660e060020a028152600401600060405180830381865af415801561097a573d6000803e3d6000fd5b505050506040513d6000823e601f3d908101601f191682016040526109a291908101906150dc565b604080518082018252600480825260e160020a632ab9b2b9026020830152915160e060020a63ffffffff86160281526109dc939201615110565b602060405180830381865af41580156109f9573d6000803e3d6000fd5b505050506040513d601f19601f82011682018060405250810190610a1d919061513e565b610a3c5760405160e560020a62461bcd0281526004016102f89061515b565b60405160e060020a636567d94b0281526004810182905273__SocialFeeds___________________________90636567d94b906024015b60006040518083038186803b158015610a8b57600080fd5b505af4158015610a9f573d6000803e3d6000fd5b5050505050565b60035460609060ff16610ace5760405160e560020a62461bcd0281526004016102f890615034565b33610aee5760405160e560020a62461bcd0281526004016102f89061506b565b73__StringUtils___________________________6346bdca9a73__User__________________________________63bf04a10d6040518163ffffffff1660e060020a028152600401600060405180830381865af4158015610b54573d6000803e3d6000fd5b505050506040513d6000823e601f3d908101601f19168201604052610b7c91908101906150dc565b604080518082018252600480825260e160020a632ab9b2b9026020830152915160e060020a63ffffffff8616028152610bb6939201615110565b602060405180830381865af4158015610bd3573d6000803e3d6000fd5b505050506040513d601f19601f82011682018060405250810190610bf7919061513e565b610c165760405160e560020a62461bcd0281526004016102f89061515b565b73__FriendsFollowers______________________630d79f5616040518163ffffffff1660e060020a028152600401600060405180830381865af41580156108a2573d6000803e3d6000fd5b60035460ff16610c875760405160e560020a62461bcd0281526004016102f890615034565b33610ca75760405160e560020a62461bcd0281526004016102f89061506b565b73__StringUtils___________________________6346bdca9a73__User__________________________________63bf04a10d6040518163ffffffff1660e060020a028152600401600060405180830381865af4158015610d0d573d6000803e3d6000fd5b505050506040513d6000823e601f3d908101601f19168201604052610d3591908101906150dc565b604080518082018252600480825260e160020a632ab9b2b9026020830152915160e060020a63ffffffff8616028152610d6f939201615110565b602060405180830381865af4158015610d8c573d6000803e3d6000fd5b505050506040513d601f19601f82011682018060405250810190610db0919061513e565b610dcf5760405160e560020a62461bcd0281526004016102f89061515b565b66038d7ea4c68000333111610df95760405160e560020a62461bcd0281526004016102f890615192565b73__StringUtils___________________________6346bdca9a73__User__________________________________6338168550846040518263ffffffff1660e060020a028152600401610e4d9190614db6565b600060405180830381865af4158015610e6a573d6000803e3d6000fd5b505050506040513d6000823e601f3d908101601f19168201604052610e9291908101906150dc565b604080518082018252600480825260e160020a632ab9b2b9026020830152915160e060020a63ffffffff8616028152610ecc939201615110565b602060405180830381865af4158015610ee9573d6000803e3d6000fd5b505050506040513d601f19601f82011682018060405250810190610f0d919061513e565b610f2c5760405160e560020a62461bcd0281526004016102f8906151c3565b600d543414610f805760405160e560020a62461bcd02815260206004820181905260248201527f696e73756666696369656e7420667269656e642072657175657374206665652160448201526064016102f8565b60405160e160020a637714b17f02815273__User__________________________________9063ee2962fe90610fba908490600401614db6565b602060405180830381865af4158015610fd7573d6000803e3d6000fd5b505050506040513d601f19601f82011682018060405250810190610ffb919061513e565b156110605760405130903480156108fc02916000818181858888f1935050505015801561102c573d6000803e3d6000fd5b50600160a060020a0381166000908152600460205260408120805434929061105590849061520b565b909155506110979050565b604051600160a060020a038216903480156108fc02916000818181858888f19350505050158015611095573d6000803e3d6000fd5b505b60405160e360020a6315affd4f02815273__FriendsFollowers______________________9063ad7fea7890610a73908490600401614db6565b60035460ff166110f65760405160e560020a62461bcd0281526004016102f890615034565b336111165760405160e560020a62461bcd0281526004016102f89061506b565b73__Advertiser____________________________63d2e940376040518163ffffffff1660e060020a028152600401602060405180830381865af4158015611162573d6000803e3d6000fd5b505050506040513d601f19601f82011682018060405250810190611186919061513e565b6111a55760405160e560020a62461bcd0281526004016102f89061521e565b60405160e160020a637a29527f02815273__Advertiser____________________________9063f452a4fe90610a7390339085906004016148d5565b60035460ff166112065760405160e560020a62461bcd0281526004016102f890615034565b336112265760405160e560020a62461bcd0281526004016102f89061506b565b73__StringUtils___________________________6346bdca9a73__User__________________________________63bf04a10d6040518163ffffffff1660e060020a028152600401600060405180830381865af415801561128c573d6000803e3d6000fd5b505050506040513d6000823e601f3d908101601f191682016040526112b491908101906150dc565b604080518082018252600480825260e160020a632ab9b2b9026020830152915160e060020a63ffffffff86160281526112ee939201615110565b602060405180830381865af415801561130b573d6000803e3d6000fd5b505050506040513d601f19601f8201168201806040525081019061132f919061513e565b61134e5760405160e560020a62461bcd0281526004016102f89061515b565b600073__FriendsFollowers______________________6312b960126040518163ffffffff1660e060020a028152600401602060405180830381865af415801561139c573d6000803e3d6000fd5b505050506040513d601f19601f820116820180604052508101906113c09190615255565b90506113d281655af3107a400061526e565b34146114355760405160e560020a62461bcd02815260206004820152602660248201527f696e73756666696369656e7420666f6c6c6f776572206e6f7469666963617469604482015260d060020a656f6e206665650260648201526084016102f8565b60405160e160020a631a0a58d702815273__FriendsFollowers______________________90633414b1ae9061146f908590600401614e1a565b60006040518083038186803b15801561148757600080fd5b505af415801561149b573d6000803e3d6000fd5b505050505050565b60035460ff166114c85760405160e560020a62461bcd0281526004016102f890615034565b600054600160a060020a031633146114f55760405160e560020a62461bcd0281526004016102f890615285565b600160a060020a03871661151e5760405160e560020a62461bcd0281526004016102f8906152b9565b60405160e060020a634209fff102815273__User__________________________________90634209fff190611558908a90600401614db6565b602060405180830381865af4158015611575573d6000803e3d6000fd5b505050506040513d601f19601f82011682018060405250810190611599919061513e565b156115b95760405160e560020a62461bcd0281526004016102f8906152ea565b60405160e160020a637659c22b02815273__User__________________________________9063ecb38456906115f3908a90600401614db6565b60006040518083038186803b15801561160b57600080fd5b505af415801561161f573d6000803e3d6000fd5b50506040805180820182526005815260d960020a6427bbb732b9026020820152905160e160020a63235ee54d02815273__StringUtils___________________________93506346bdca9a925061167a918591600401615110565b602060405180830381865af4158015611697573d6000803e3d6000fd5b505050506040513d601f19601f820116820180604052508101906116bb919061513e565b8061175e5750604080518082018252600a815260b160020a6920b23b32b93a34b9b2b9026020820152905160e160020a63235ee54d02815273__StringUtils___________________________916346bdca9a9161171d918591600401615110565b602060405180830381865af415801561173a573d6000803e3d6000fd5b505050506040513d601f19601f8201168201806040525081019061175e919061513e565b806117fa5750604080518082018252600480825260e160020a632ab9b2b9026020830152915160e160020a63235ee54d02815273__StringUtils___________________________926346bdca9a926117b992869201615110565b602060405180830381865af41580156117d6573d6000803e3d6000fd5b505050506040513d601f19601f820116820180604052508101906117fa919061513e565b8061189b57506040805180820182526008815260c160020a672b32b934b334b2b9026020820152905160e160020a63235ee54d02815273__StringUtils___________________________916346bdca9a9161185a918591600401615110565b602060405180830381865af4158015611877573d6000803e3d6000fd5b505050506040513d601f19601f8201168201806040525081019061189b919061513e565b15611a285760405160e260020a6312f81a8902815273__User__________________________________90634be06a24906118e6908a908a908a908a908a908a908a9060040161531a565b60006040518083038186803b1580156118fe57600080fd5b505af4158015611912573d6000803e3d6000fd5b5050604080518082018252600a815260b160020a6920b23b32b93a34b9b2b9026020820152905160e160020a63235ee54d02815273__StringUtils___________________________93506346bdca9a9250611972918591600401615110565b602060405180830381865af415801561198f573d6000803e3d6000fd5b505050506040513d601f19601f820116820180604052508101906119b3919061513e565b15611a235760405160e560020a6302f3819502815273__Advertiser____________________________90635e7032a0906119f2908a90600401614db6565b60006040518083038186803b158015611a0a57600080fd5b505af4158015611a1e573d6000803e3d6000fd5b505050505b611a6a565b60405160e560020a62461bcd0281526020600482015260116024820152607860020a70756e7265636f676e697a656420726f6c650260448201526064016102f8565b50505050505050565b60035460ff16611a985760405160e560020a62461bcd0281526004016102f890615034565b33611ab85760405160e560020a62461bcd0281526004016102f89061506b565b73__StringUtils___________________________6346bdca9a73__User__________________________________63bf04a10d6040518163ffffffff1660e060020a028152600401600060405180830381865af4158015611b1e573d6000803e3d6000fd5b505050506040513d6000823e601f3d908101601f19168201604052611b4691908101906150dc565b604080518082018252600480825260e160020a632ab9b2b9026020830152915160e060020a63ffffffff8616028152611b80939201615110565b602060405180830381865af4158015611b9d573d6000803e3d6000fd5b505050506040513d601f19601f82011682018060405250810190611bc1919061513e565b611be05760405160e560020a62461bcd0281526004016102f89061515b565b60405160e360020a6309d752d502815273__FriendsFollowers______________________90634eba96a890610a73908490600401614db6565b60035460ff16611c3f5760405160e560020a62461bcd0281526004016102f890615034565b600054600160a060020a03163314611c6c5760405160e560020a62461bcd0281526004016102f890615285565b600160a060020a038216611c955760405160e560020a62461bcd0281526004016102f8906152b9565b60405160e060020a634209fff102815273__User__________________________________90634209fff190611ccf908590600401614db6565b602060405180830381865af4158015611cec573d6000803e3d6000fd5b505050506040513d601f19601f82011682018060405250810190611d10919061513e565b15611d305760405160e560020a62461bcd0281526004016102f8906152ea565b60405160e160020a632dd4187f02815273__User__________________________________90635ba830fe9061146f90849086906004016153ae565b60035460ff16611d915760405160e560020a62461bcd0281526004016102f890615034565b600054600160a060020a03163314611dbe5760405160e560020a62461bcd0281526004016102f890615285565b60405160e160020a637a29527f02815273__Advertiser____________________________9063f452a4fe9061146f90859085906004016148d5565b60035460ff16611e1f5760405160e560020a62461bcd0281526004016102f890615034565b33611e3f5760405160e560020a62461bcd0281526004016102f89061506b565b73__StringUtils___________________________6346bdca9a73__User__________________________________63bf04a10d6040518163ffffffff1660e060020a028152600401600060405180830381865af4158015611ea5573d6000803e3d6000fd5b505050506040513d6000823e601f3d908101601f19168201604052611ecd91908101906150dc565b604080518082018252600480825260e160020a632ab9b2b9026020830152915160e060020a63ffffffff8616028152611f07939201615110565b602060405180830381865af4158015611f24573d6000803e3d6000fd5b505050506040513d601f19601f82011682018060405250810190611f48919061513e565b611f675760405160e560020a62461bcd0281526004016102f89061515b565b600073__FriendsFollowers______________________633c9438196040518163ffffffff1660e060020a028152600401602060405180830381865af4158015611fb5573d6000803e3d6000fd5b505050506040513d601f19601f82011682018060405250810190611fd99190615255565b9050611feb81655af3107a400061526e565b341461204b5760405160e560020a62461bcd028152602060048201526024808201527f696e73756666696369656e7420667269656e64206e6f74696669636174696f6e604482015260e060020a63206665650260648201526084016102f8565b60405160e060020a63578ea4ed02815273__FriendsFollowers______________________9063578ea4ed9061146f908590600401614e1a565b60035460ff166120aa5760405160e560020a62461bcd0281526004016102f890615034565b600054600160a060020a031633146120d75760405160e560020a62461bcd0281526004016102f890615285565b600160a060020a0382166121005760405160e560020a62461bcd0281526004016102f8906152b9565b60405160e060020a634209fff102815273__User__________________________________90634209fff19061213a908590600401614db6565b602060405180830381865af4158015612157573d6000803e3d6000fd5b505050506040513d601f19601f8201168201806040525081019061217b919061513e565b1561219b5760405160e560020a62461bcd0281526004016102f8906152ea565b60405160e560020a630398f90d02815273__User__________________________________9063731f21a09061146f90849086906004016153ae565b60035460ff166121fc5760405160e560020a62461bcd0281526004016102f890615034565b3361221c5760405160e560020a62461bcd0281526004016102f89061506b565b60405160e060020a63d5f6618702815273__User__________________________________9063d5f6618790612256903390600401614db6565b602060405180830381865af4158015612273573d6000803e3d6000fd5b505050506040513d601f19601f82011682018060405250810190612297919061513e565b6122d75760405160e560020a62461bcd02815260206004820152600b602482015260a860020a6a75736572206578697374730260448201526064016102f8565b600754341461233d5760405160e560020a62461bcd02815260206004820152602660248201527f696e73756666696369656e74207573657220726567697374726174696f6e2061604482015260d060020a656d6f756e74210260648201526084016102f8565b60405130903480156108fc02916000818181858888f19350505050158015612369573d6000803e3d6000fd5b5073__User__________________________________63455c928c6040518163ffffffff1660e060020a02815260040160006040518083038186803b1580156123b157600080fd5b505af41580156123c5573d6000803e3d6000fd5b5050604080518082018252600480825260e160020a632ab9b2b9026020830152915160e060020a63b6644d0902815273__User__________________________________945063b6644d099350612428928a928a928a928a928a929091016153d9565b60006040518083038186803b15801561244057600080fd5b505af4158015612454573d6000803e3d6000fd5b505050505050505050565b600054600160a060020a0316331461248c5760405160e560020a62461bcd0281526004016102f890615285565b612494614854565b6006805460a060020a60ff02191690556040517fb18c5f060015f17d5e25133087735d783bdba3a5cf1e01a7242b1e689ace4728906124d4903390614db6565b60405180910390a1565b600054600160a060020a0316331461250b5760405160e560020a62461bcd0281526004016102f890615285565b612513614893565b6006805460a060020a60ff02191660a060020a1790556040517f97edc7d28bb4e73f5f1ec8393c846eaf216e294388e08dc5cce26e589d63f59c906124d4903390614db6565b60035460ff1661257e5760405160e560020a62461bcd0281526004016102f890615034565b3361259e5760405160e560020a62461bcd0281526004016102f89061506b565b73__StringUtils___________________________6346bdca9a73__User__________________________________63bf04a10d6040518163ffffffff1660e060020a028152600401600060405180830381865af4158015612604573d6000803e3d6000fd5b505050506040513d6000823e601f3d908101601f1916820160405261262c91908101906150dc565b604080518082018252600480825260e160020a632ab9b2b9026020830152915160e060020a63ffffffff8616028152612666939201615110565b602060405180830381865af4158015612683573d6000803e3d6000fd5b505050506040513d601f19601f820116820180604052508101906126a7919061513e565b6126c65760405160e560020a62461bcd0281526004016102f89061515b565b60405160e260020a632beacc7302815273__FriendsFollowers______________________9063afab31cc90610a73903390859060040161545b565b600054600160a060020a0316331461272f5760405160e560020a62461bcd0281526004016102f890615475565b8160000361273d5760075550565b8160010361274b5760085550565b816002036127595760095550565b8160030361276757600a5550565b8160040361277557600b5550565b8160050361278357600c5550565b8160060361279157600d5550565b8160070361279f57600e5550565b816008036127ad57600f8190555b5050565b60035460ff166127d65760405160e560020a62461bcd0281526004016102f890615034565b336127f65760405160e560020a62461bcd0281526004016102f89061506b565b73__StringUtils___________________________6346bdca9a73__User__________________________________63bf04a10d6040518163ffffffff1660e060020a028152600401600060405180830381865af415801561285c573d6000803e3d6000fd5b505050506040513d6000823e601f3d908101601f1916820160405261288491908101906150dc565b604080518082018252600480825260e160020a632ab9b2b9026020830152915160e060020a63ffffffff86160281526128be939201615110565b602060405180830381865af41580156128db573d6000803e3d6000fd5b505050506040513d601f19601f820116820180604052508101906128ff919061513e565b61291e5760405160e560020a62461bcd0281526004016102f89061515b565b60095434146129705760405160e560020a62461bcd0281526020600482015260186024820152604060020a77696e73756666696369656e7420706f7374696e67206665650260448201526064016102f8565b60405130903480156108fc02916000818181858888f1935050505015801561299c573d6000803e3d6000fd5b5060405160e260020a630d7394c302815260009073__SocialFeeds___________________________906335ce530c906129de908790879087906004016154ac565b602060405180830381865af41580156129fb573d6000803e3d6000fd5b505050506040513d601f19601f82011682018060405250810190612a1f9190615255565b90507fda803178f0e32ef3a489f4a8ac28377ec0537c4f57c42be4c349e457b355e0cd338383604051612a54939291906154cd565b60405180910390a150505050565b60008054600160a060020a03163314612a905760405160e560020a62461bcd0281526004016102f890615285565b50303190565b600054600160a060020a03163314612ac35760405160e560020a62461bcd0281526004016102f890615285565b60008054604051600160a060020a0390911690600080516020615690833981519152908390a360008054600160a060020a0319169055565b60035460ff16612b205760405160e560020a62461bcd0281526004016102f890615034565b33612b405760405160e560020a62461bcd0281526004016102f89061506b565b73__StringUtils___________________________6346bdca9a73__User__________________________________63bf04a10d6040518163ffffffff1660e060020a028152600401600060405180830381865af4158015612ba6573d6000803e3d6000fd5b505050506040513d6000823e601f3d908101601f19168201604052612bce91908101906150dc565b604080518082018252600480825260e160020a632ab9b2b9026020830152915160e060020a63ffffffff8616028152612c08939201615110565b602060405180830381865af4158015612c25573d6000803e3d6000fd5b505050506040513d601f19601f82011682018060405250810190612c49919061513e565b612c685760405160e560020a62461bcd0281526004016102f89061515b565b60405160e060020a63411dd2830281526004810182905273__Comment_______________________________9063411dd28390602401610a73565b600054600160a060020a03163314612cd05760405160e560020a62461bcd0281526004016102f890615475565b60008051602061567083398151915233612ce8612d23565b6040516124d492919061545b565b600054600160a060020a0316331461248c5760405160e560020a62461bcd0281526004016102f890615475565b6000601e600154612d34919061520b565b4211612d555760405160e560020a62461bcd0281526004016102f890615501565b601e600154612d64919061520b565b4211612d855760405160e560020a62461bcd0281526004016102f890615501565b5042600155600054600160a060020a031690565b60405160e460020a630381685502815260609073__User__________________________________90633816855090612dd6908590600401614db6565b600060405180830381865af4158015612df3573d6000803e3d6000fd5b505050506040513d6000823e601f3d908101601f19168201604052612e1b91908101906150dc565b92915050565b60035460ff16612e465760405160e560020a62461bcd0281526004016102f890615034565b600054600160a060020a03163314612e735760405160e560020a62461bcd0281526004016102f890615285565b60405160e260020a632beacc7302815273__FriendsFollowers______________________9063afab31cc9061146f908590859060040161545b565b60035460ff16612ed45760405160e560020a62461bcd0281526004016102f890615034565b33612ef45760405160e560020a62461bcd0281526004016102f89061506b565b73__StringUtils___________________________6346bdca9a73__User__________________________________63bf04a10d6040518163ffffffff1660e060020a028152600401600060405180830381865af4158015612f5a573d6000803e3d6000fd5b505050506040513d6000823e601f3d908101601f19168201604052612f8291908101906150dc565b604080518082018252600480825260e160020a632ab9b2b9026020830152915160e060020a63ffffffff8616028152612fbc939201615110565b602060405180830381865af4158015612fd9573d6000803e3d6000fd5b505050506040513d601f19601f82011682018060405250810190612ffd919061513e565b61301c5760405160e560020a62461bcd0281526004016102f89061515b565b600a54341461307f5760405160e560020a62461bcd028152602060048201526024808201527f696e73756666696369656e7420636f6d6d656e7420706f7374696e6720616d6f604482015260e060020a63756e74210260648201526084016102f8565b60405160e160020a637714b17f02815273__User__________________________________9063ee2962fe906130b9908690600401614db6565b602060405180830381865af41580156130d6573d6000803e3d6000fd5b505050506040513d601f19601f820116820180604052508101906130fa919061513e565b1561315f5760405130903480156108fc02916000818181858888f1935050505015801561312b573d6000803e3d6000fd5b50600160a060020a0383166000908152600460205260408120805434929061315490849061520b565b909155506131969050565b604051600160a060020a038416903480156108fc02916000818181858888f19350505050158015613194573d6000803e3d6000fd5b505b60405160e260020a632ab9d07102815273__Comment_______________________________9063aae741c4906131d49086908690869060040161552e565b60006040518083038186803b1580156131ec57600080fd5b505af4158015611a6a573d6000803e3d6000fd5b606073__Advertiser____________________________63ab111d8b6040518163ffffffff1660e060020a028152600401600060405180830381865af415801561324e573d6000803e3d6000fd5b505050506040513d6000823e601f3d908101601f191682016040526108ca9190810190615556565b6060336132985760405160e560020a62461bcd0281526004016102f89061506b565b600f5434146132ec5760405160e560020a62461bcd02815260206004820152601b60248201527f696e73756666696369656e742075736572206c6973742066656521000000000060448201526064016102f8565b604051309060009066038d7ea4c680009082818181858883f1935050505015801561331b573d6000803e3d6000fd5b5073__User__________________________________62ce8e3e6040518163ffffffff1660e060020a028152600401600060405180830381865af41580156108a2573d6000803e3d6000fd5b60035460ff1661338c5760405160e560020a62461bcd0281526004016102f890615034565b600054600160a060020a031633146133b95760405160e560020a62461bcd0281526004016102f890615285565b60405160e160020a634e3784f102815273__SocialFeeds___________________________90639c6f09e29061146f90859085906004016148d5565b606073__User__________________________________63bf04a10d6040518163ffffffff1660e060020a028152600401600060405180830381865af4158015613443573d6000803e3d6000fd5b505050506040513d6000823e601f3d908101601f191682016040526108ca91908101906150dc565b600054600160a060020a0316331461250b5760405160e560020a62461bcd0281526004016102f890615475565b336134b85760405160e560020a62461bcd0281526004016102f89061506b565b600160a060020a03821660009081526005602052604090205460ff161561355f5760405160e560020a62461bcd02815260206004820152604960248201527f636f6e73756d657220686173206f707465642d6f757420746f2072656365697660448201527f656420616e792065787465726e616c206d65737361676573206f7220636f6d6d606482015260b960020a683ab734b1b0ba34b7b702608482015260a4016102f8565b600160a060020a0382166135b65760405160e560020a62461bcd0281526020600482015260186024820152604060020a77696e76616c696420636f6e73756d657220616464726573730260448201526064016102f8565b600e54341461360a5760405160e560020a62461bcd02815260206004820152601e60248201527f696e73756666696369656e742075736572206d6573736167652066656521000060448201526064016102f8565b604051600160a060020a038316903480156108fc02916000818181858888f1935050505015801561363f573d6000803e3d6000fd5b507f01c81add4df1fc5f9fff41d9d1b71caa654d9b6eb4fcb855b98fc9de54a00fd433838360405161367393929190615603565b60405180910390a15050565b600073__StringUtils___________________________6346bdca9a73__User__________________________________63bf04a10d6040518163ffffffff1660e060020a028152600401600060405180830381865af41580156136e7573d6000803e3d6000fd5b505050506040513d6000823e601f3d908101601f1916820160405261370f91908101906150dc565b604080518082018252600480825260e160020a632ab9b2b9026020830152915160e060020a63ffffffff8616028152613749939201615110565b602060405180830381865af4158015613766573d6000803e3d6000fd5b505050506040513d601f19601f8201168201806040525081019061378a919061513e565b6137a95760405160e560020a62461bcd0281526004016102f89061515b565b50333190565b60035460ff166137d45760405160e560020a62461bcd0281526004016102f890615034565b336137f45760405160e560020a62461bcd0281526004016102f89061506b565b73__StringUtils___________________________6346bdca9a73__User__________________________________63bf04a10d6040518163ffffffff1660e060020a028152600401600060405180830381865af415801561385a573d6000803e3d6000fd5b505050506040513d6000823e601f3d908101601f1916820160405261388291908101906150dc565b604080518082018252600480825260e160020a632ab9b2b9026020830152915160e060020a63ffffffff86160281526138bc939201615110565b602060405180830381865af41580156138d9573d6000803e3d6000fd5b505050506040513d601f19601f820116820180604052508101906138fd919061513e565b61391c5760405160e560020a62461bcd0281526004016102f89061515b565b66038d7ea4c680003331116139465760405160e560020a62461bcd0281526004016102f890615192565b73__StringUtils___________________________6346bdca9a73__User__________________________________6338168550846040518263ffffffff1660e060020a02815260040161399a9190614db6565b600060405180830381865af41580156139b7573d6000803e3d6000fd5b505050506040513d6000823e601f3d908101601f191682016040526139df91908101906150dc565b604080518082018252600480825260e160020a632ab9b2b9026020830152915160e060020a63ffffffff8616028152613a19939201615110565b602060405180830381865af4158015613a36573d6000803e3d6000fd5b505050506040513d601f19601f82011682018060405250810190613a5a919061513e565b613a795760405160e560020a62461bcd0281526004016102f8906151c3565b600c543414613acd5760405160e560020a62461bcd02815260206004820152601a60248201527f696e73756666696369656e7420666f6c6c6f776572206665652100000000000060448201526064016102f8565b60405160e160020a637714b17f02815273__User__________________________________9063ee2962fe90613b07908490600401614db6565b602060405180830381865af4158015613b24573d6000803e3d6000fd5b505050506040513d601f19601f82011682018060405250810190613b48919061513e565b15613bad5760405130903480156108fc02916000818181858888f19350505050158015613b79573d6000803e3d6000fd5b50600160a060020a03811660009081526004602052604081208054349290613ba290849061520b565b90915550613be49050565b604051600160a060020a038216903480156108fc02916000818181858888f19350505050158015613be2573d6000803e3d6000fd5b505b60405160e260020a6333bab17502815273__FriendsFollowers______________________9063ceeac5d490610a73908490600401614db6565b60035460ff16613c435760405160e560020a62461bcd0281526004016102f890615034565b73__Advertiser____________________________63d2e940376040518163ffffffff1660e060020a028152600401602060405180830381865af4158015613c8f573d6000803e3d6000fd5b505050506040513d601f19601f82011682018060405250810190613cb3919061513e565b613cd25760405160e560020a62461bcd0281526004016102f89061521e565b600b543414613d355760405160e560020a62461bcd02815260206004820152602360248201527f696e73756666696369656e74206e6577206164766572746973656d656e742066604482015260e860020a626565210260648201526084016102f8565b60405130903480156108fc02916000818181858888f19350505050158015613d61573d6000803e3d6000fd5b5060405160e060020a63d2ab487302815273__Advertiser____________________________9063d2ab487390610a73908490600401614e1a565b60035460ff16613dc15760405160e560020a62461bcd0281526004016102f890615034565b600054600160a060020a03163314613dee5760405160e560020a62461bcd0281526004016102f890615285565b60405160e060020a633603235102815273__Comment_______________________________9063360323519061146f90859085906004016148d5565b60035460609060ff16613e525760405160e560020a62461bcd0281526004016102f890615034565b33613e725760405160e560020a62461bcd0281526004016102f89061506b565b73__StringUtils___________________________6346bdca9a73__User__________________________________63bf04a10d6040518163ffffffff1660e060020a028152600401600060405180830381865af4158015613ed8573d6000803e3d6000fd5b505050506040513d6000823e601f3d908101601f19168201604052613f0091908101906150dc565b604080518082018252600480825260e160020a632ab9b2b9026020830152915160e060020a63ffffffff8616028152613f3a939201615110565b602060405180830381865af4158015613f57573d6000803e3d6000fd5b505050506040513d601f19601f82011682018060405250810190613f7b919061513e565b613f9a5760405160e560020a62461bcd0281526004016102f89061515b565b73__FriendsFollowers______________________63dbb36cd26040518163ffffffff1660e060020a028152600401600060405180830381865af41580156108a2573d6000803e3d6000fd5b60035460ff1661400b5760405160e560020a62461bcd0281526004016102f890615034565b600054600160a060020a031633146140385760405160e560020a62461bcd0281526004016102f890615285565b600160a060020a0382166140615760405160e560020a62461bcd0281526004016102f8906152b9565b60405160e060020a634209fff102815273__User__________________________________90634209fff19061409b908590600401614db6565b602060405180830381865af41580156140b8573d6000803e3d6000fd5b505050506040513d601f19601f820116820180604052508101906140dc919061513e565b156140fc5760405160e560020a62461bcd0281526004016102f8906152ea565b60405160e060020a63a1e6ab9f02815273__User__________________________________9063a1e6ab9f9061146f90849086906004016153ae565b60035460ff1661415d5760405160e560020a62461bcd0281526004016102f890615034565b3361417d5760405160e560020a62461bcd0281526004016102f89061506b565b73__Advertiser____________________________639ba099f76040518163ffffffff1660e060020a028152600401602060405180830381865af41580156141c9573d6000803e3d6000fd5b505050506040513d601f19601f820116820180604052508101906141ed919061513e565b6142335760405160e560020a62461bcd0281526020600482015260116024820152607860020a7061647665727469736572206578697374730260448201526064016102f8565b600854341461429f5760405160e560020a62461bcd02815260206004820152602c60248201527f696e73756666696369656e742061647665727469736572207265676973747261604482015260a060020a6b74696f6e20616d6f756e74210260648201526084016102f8565b60405130903480156108fc02916000818181858888f193505050501580156142cb573d6000803e3d6000fd5b5073__User__________________________________63455c928c6040518163ffffffff1660e060020a02815260040160006040518083038186803b15801561431357600080fd5b505af4158015614327573d6000803e3d6000fd5b5050604080518082018252600a80825260b160020a6920b23b32b93a34b9b2b902602080840182905284518086018652600b815260a860020a6a6164766572746973696e6702818301528551808701875293845290830191909152925160e060020a63b6644d0902815273__User__________________________________955063b6644d0994506143c4938993928992899291906004016153d9565b60006040518083038186803b1580156143dc57600080fd5b505af41580156143f0573d6000803e3d6000fd5b505060405160e560020a6302f3819502815273__Advertiser____________________________9250635e7032a091506131d4903390600401614db6565b600054600160a060020a0316331461445b5760405160e560020a62461bcd0281526004016102f890615285565b30316144ac5760405160e560020a62461bcd02815260206004820152601f60248201527f6e6f2062616c616e636520746f207472616e7366657220746f206f776e65720060448201526064016102f8565b30316144b6612d23565b600160a060020a03166108fc829081150290604051600060405180830381858888f193505050501580156144ee573d6000803e3d6000fd5b507fab933177d8753a66dd869151cf9aa88649e067b7a4e2dad9d5d192d61cf593b0614518612d23565b826040516145279291906148d5565b60405180910390a150565b606073__Advertiser____________________________63ec547d806040518163ffffffff1660e060020a028152600401600060405180830381865af41580156108a2573d6000803e3d6000fd5b600054600160a060020a031633146145ad5760405160e560020a62461bcd0281526004016102f890615285565b600160a060020a0381166146185760405160e560020a62461bcd02815260206004820152602660248201527f4f776e61626c653a206e6577206f776e657220697320746865207a65726f2061604482015260d060020a656464726573730260648201526084016102f8565b60008054604051600160a060020a038085169392169160008051602061569083398151915291a360008054600160a060020a031916600160a060020a0392909216919091179055565b600054600160a060020a0316331461468e5760405160e560020a62461bcd0281526004016102f890615475565b600080516020615670833981519152338260405161452792919061545b565b60035460ff166146d25760405160e560020a62461bcd0281526004016102f890615034565b336146f25760405160e560020a62461bcd0281526004016102f89061506b565b73__StringUtils___________________________6346bdca9a73__User__________________________________63bf04a10d6040518163ffffffff1660e060020a028152600401600060405180830381865af4158015614758573d6000803e3d6000fd5b505050506040513d6000823e601f3d908101601f1916820160405261478091908101906150dc565b604080518082018252600480825260e160020a632ab9b2b9026020830152915160e060020a63ffffffff86160281526147ba939201615110565b602060405180830381865af41580156147d7573d6000803e3d6000fd5b505050506040513d601f19601f820116820180604052508101906147fb919061513e565b61481a5760405160e560020a62461bcd0281526004016102f89061515b565b60405160e060020a63f8cd38b302815273__FriendsFollowers______________________9063f8cd38b390610a73908490600401614db6565b6003805460ff191690556040517fc161c5a84c30bc51746f28a7736664d7dae3f0fad3d92e4bb813d68bad76ec21906124d4903390600090369061562f565b6003805460ff191660011790556040517f33c68eeb60b17ccd4973bd4579ebb2e6156ecfd1defb9e8be822e959cca0253e906124d4903390600090369061562f565b600160a060020a03929092168252602082015260400190565b6020808252825182820181905260009190848201906040850190845b8181101561492f578351600160a060020a03168352928401929184019160010161490a565b50909695505050505050565b60006020828403121561494d57600080fd5b5035919050565b600160a060020a038116811461496957600080fd5b50565b803561497781614954565b919050565b60006020828403121561498e57600080fd5b813561499981614954565b9392505050565b60e060020a634e487b710260009081526041600452602490fd5b604051601f8201601f191681016001604060020a03811182821017156149e2576149e26149a0565b604052919050565b60006001604060020a03821115614a0357614a036149a0565b50601f01601f191660200190565b600082601f830112614a2257600080fd5b8135614a35614a30826149ea565b6149ba565b818152846020838601011115614a4a57600080fd5b816020850160208301376000918101602001919091529392505050565b600060208284031215614a7957600080fd5b81356001604060020a03811115614a8f57600080fd5b614a9b84828501614a11565b949350505050565b600080600080600080600060e0888a031215614abe57600080fd5b614ac78861496c565b965060208801356001604060020a0380821115614ae357600080fd5b614aef8b838c01614a11565b975060408a0135915080821115614b0557600080fd5b614b118b838c01614a11565b965060608a0135915080821115614b2757600080fd5b614b338b838c01614a11565b955060808a0135915080821115614b4957600080fd5b614b558b838c01614a11565b945060a08a0135915080821115614b6b57600080fd5b614b778b838c01614a11565b935060c08a0135915080821115614b8d57600080fd5b50614b9a8a828b01614a11565b91505092959891949750929550565b801515811461496957600080fd5b60008060408385031215614bca57600080fd5b8235614bd581614954565b91506020830135614be581614ba9565b809150509250929050565b60008060408385031215614c0357600080fd5b8235614c0e81614954565b915060208301356001604060020a03811115614c2957600080fd5b614c3585828601614a11565b9150509250929050565b60008060408385031215614c5257600080fd5b8235614c5d81614954565b946020939093013593505050565b600080600080600060a08688031215614c8357600080fd5b85356001604060020a0380821115614c9a57600080fd5b614ca689838a01614a11565b96506020880135915080821115614cbc57600080fd5b614cc889838a01614a11565b95506040880135915080821115614cde57600080fd5b614cea89838a01614a11565b94506060880135915080821115614d0057600080fd5b614d0c89838a01614a11565b93506080880135915080821115614d2257600080fd5b50614d2f88828901614a11565b9150509295509295909350565b60008060408385031215614d4f57600080fd5b50508035926020909101359150565b600080600060608486031215614d7357600080fd5b833592506020840135614d8581614ba9565b915060408401356001604060020a03811115614da057600080fd5b614dac86828701614a11565b9150509250925092565b600160a060020a0391909116815260200190565b60005b83811015614de5578181015183820152602001614dcd565b50506000910152565b60008151808452614e06816020860160208601614dca565b601f01601f19169290920160200192915050565b6020815260006149996020830184614dee565b60008060408385031215614e4057600080fd5b8235614e4b81614954565b91506020830135614be581614954565b600080600060608486031215614e7057600080fd5b8335614e7b81614954565b92506020840135915060408401356001604060020a03811115614da057600080fd5b600060208083018184528085518083526040860191506040848202870101925083870160005b82811015614ef157603f19888603018452614edf858351614dee565b94509285019290850190600101614ec3565b5092979650505050505050565b600080600060608486031215614f1357600080fd5b83356001604060020a0380821115614f2a57600080fd5b614f3687838801614a11565b94506020860135915080821115614f4c57600080fd5b614f5887838801614a11565b93506040860135915080821115614f6e57600080fd5b50614dac86828701614a11565b60006001604060020a03821115614f9457614f946149a0565b5060209081020190565b60006020808385031215614fb157600080fd5b82516001604060020a03811115614fc757600080fd5b8301601f81018513614fd857600080fd5b8051614fe6614a3082614f7b565b8181529083028201830190838101908783111561500257600080fd5b928401925b8284101561502957835161501a81614954565b82529284019290840190615007565b979650505050505050565b6020808252601c908201527f636f6e74726163742061637469766974792069732066726f7a656e2100000000604082015260600190565b6020808252600f90820152608860020a6e6d697373696e67206164647265737302604082015260600190565b600082601f8301126150a857600080fd5b81516150b6614a30826149ea565b8181528460208386010111156150cb57600080fd5b614a9b826020830160208701614dca565b6000602082840312156150ee57600080fd5b81516001604060020a0381111561510457600080fd5b614a9b84828501615097565b6040815260006151236040830185614dee565b82810360208401526151358185614dee565b95945050505050565b60006020828403121561515057600080fd5b815161499981614ba9565b6020808252601a908201527f617574686f72697a6564206f6e6c7920666f7220612075736572000000000000604082015260600190565b6020808252601490820152606060020a73696e73756666696369656e742062616c616e636502604082015260600190565b6020808252601190820152607a60020a701d5cd95c881a5cc81b9bdd081d985b1a5902604082015260600190565b60e060020a634e487b710260009081526011600452602490fd5b80820180821115612e1b57612e1b6151f1565b6020808252601f908201527f756e617574686f72697a65642c206e6f7420616e206164766572746973657200604082015260600190565b60006020828403121561526757600080fd5b5051919050565b8082028115828204841417612e1b57612e1b6151f1565b6020808252601790820152604960020a7630b1b1b2b9b9903232b734b2b2103337b91037bbb732b902604082015260600190565b6020808252601490820152606060020a736d697373696e672075736572206164647265737302604082015260600190565b6020808252601390820152606860020a727573657220616c72656164792065786973747302604082015260600190565b600160a060020a038816815260e06020820181905260009061533e90830189614dee565b82810360408401526153508189614dee565b905082810360608401526153648188614dee565b905082810360808401526153788187614dee565b905082810360a084015261538c8186614dee565b905082810360c08401526153a08185614dee565b9a9950505050505050505050565b6040815260006153c16040830185614dee565b9050600160a060020a03831660208301529392505050565b60c0815260006153ec60c0830189614dee565b82810360208401526153fe8189614dee565b905082810360408401526154128188614dee565b905082810360608401526154268187614dee565b9050828103608084015261543a8186614dee565b905082810360a084015261544e8185614dee565b9998505050505050505050565b600160a060020a0392831681529116602082015260400190565b6020808252601b908201527f756e617574686f72697a65642c206e6f7420746865206f776e65720000000000604082015260600190565b83815282151560208201526060604082015260006151356060830184614dee565b600160a060020a03841681526060602082018190526000906154f190830185614dee565b9050826040830152949350505050565b6020808252601090820152608160020a6f3930ba32903634b6b4ba1032b93937b902604082015260600190565b600160a060020a03841681528260208201526060604082015260006151356060830184614dee565b6000602080838503121561556957600080fd5b82516001604060020a038082111561558057600080fd5b818501915085601f83011261559457600080fd5b81516155a2614a3082614f7b565b818152908402830184019084810190888311156155be57600080fd5b8585015b838110156155f6578051858111156155da5760008081fd5b6155e88b89838a0101615097565b8452509186019186016155c2565b5098975050505050505050565b600160a060020a0384811682528316602082015260606040820181905260009061513590830184614dee565b600160a060020a03841681526040602082018190528101829052818360608301376000818301606090810191909152601f909201601f191601019291505056fe91ca00fdf29069527d658f8dfc6d1c0bf9861780bb45ff36436f938d3595a8d68be0079c531659141344cd1fd0a4f28419497f9722a3daafe3b4186f6b6457e0a264697066735822122024da403d460a1270b759d3253a32e5cb87d7f4de07ffd7ae2e207b7958f651d064736f6c63430008120033",
  "immutableReferences": {},
  "source": "// SPDX-License-Identifier: CC-BY-4.0\npragma solidity >=0.4.22 <0.9.0;\n\n/**\n * Earning potential:\n *\n * Owner/Contract:\n *  - earns from user and advertiser registration\n *  - earns from user posting\n *  - earns from advertiser posting\n *  - earns from user list\n *\n * User:\n *  - earns from comments, friend requests, follower, message notification as a friend and follower, likes and dislikes on posts and comments\n *\n * Advertiser:\n *  - earns from the sale of the product or service in their advertisement\n */\n\nimport \"../common/Version.sol\";\nimport \"../libs/User.sol\";\nimport \"../common/Frozen.sol\";\nimport \"../libs/StringUtils.sol\";\nimport \"./Advertiser.sol\";\nimport \"./SocialFeed.sol\";\nimport \"./FriendsFollowers.sol\";\nimport \"./Comment.sol\";\nimport \"./LikesDislikes.sol\";\n\ncontract SocialNetwork is Version, Frozen {\n\n    event ContractCallback(address sender);\n\n    string public constant SOCIAL_NETWORK_NAME = \"MyKronee\";\n    string public constant SOCIAL_NETWORK_TAGLINE = \"My Kronee, My Friend!\";\n\n    bytes32 constant private ZERO_BYTES = bytes32(0);\n    address constant private ZERO_ADDRESS = address(0);\n\n    bool private initialized;\n\n    event ContractFrozen(address sender);\n    event ContractThawed(address sender);\n    event CashOut(address owner, uint256 amount);\n\n    event MessageUser(address sender, address user, string message);\n\n    mapping (address => uint256) private balances;\n    // optout mapping is made public to comply with DO-NOT-CALL legislation\n    mapping (address => bool) public optout;\n\n    address public payable_address;\n    bool    public active = false;\n\n    uint256 private registrationUserFee = 0.0001 ether;\n    uint256 private registrationAdvertiserFee = 0.01 ether;\n    uint256 private postingFee = 0.0005 ether;\n    uint256 private commentFee = 0.0001 ether;\n    uint256 private newAdvertisementFee = 0.01 ether;\n    uint256 private addFollowerFee = 0.0001 ether;\n    uint256 private friendRequestFee = 0.0001 ether;\n    uint256 private sendUserMessageFee = 0.0001 ether;\n    uint256 private userListingFee = 0.001 ether;\n\n    constructor()\n        payable\n    {\n        User.addUser();\n        User.addUserMeta(SOCIAL_NETWORK_NAME,\"\",\"\",\"\",\"\",string(\"Owner\"));\n        payable_address = msg.sender;\n    }\n\n    function updateFees(uint fee, uint256 amount)\n        public\n        payable\n        okOwner\n    {\n        if (fee == 0) registrationUserFee = amount;\n        else if (fee == 1) registrationAdvertiserFee = amount;\n        else if (fee == 2) postingFee = amount;\n        else if (fee == 3) commentFee = amount;\n        else if (fee == 4) newAdvertisementFee = amount;\n        else if (fee == 5) addFollowerFee = amount;\n        else if (fee == 6) friendRequestFee = amount;\n        else if (fee == 7) sendUserMessageFee = amount;\n        else if (fee == 8) userListingFee = amount;\n    }\n\n    modifier addressValid() {\n        require(msg.sender != address(0), \"missing address\");\n        _;\n    }\n\n    modifier canPayFee() {\n        require(msg.sender.balance > 0.001 ether,\"insufficient balance\");\n        _;\n    }\n\n    modifier isUser() {\n        require(StringUtils.equal(User.getUserRole(), User.USER_ROLE),\"authorized only for a user\");\n        _;\n    }\n\n    modifier userNotExist() {\n        require(User.notUser(msg.sender), \"user exists\");\n        _;\n    }\n\n    modifier advertiserNoExist() {\n        require(Advertiser.notAdvertiser(), \"advertiser exists\");\n        _;\n    }\n\n\n    function freeze()\n        payable\n        public\n        onlyOwner\n    {\n        stop();\n        active = false;\n        emit ContractFrozen(msg.sender);\n    }\n\n    function unfreeze()\n        payable\n        public\n        onlyOwner\n    {\n        start();\n        active = true;\n        emit ContractThawed(msg.sender);\n    }\n\n    function freeze_insecure()\n        payable\n        public\n        okOwner\n    {\n        stop();\n        active = false;\n        emit ContractFrozen(msg.sender);\n    }\n\n    function unfreeze_insecure()\n        payable\n        public\n        okOwner\n    {\n        start();\n        active = true;\n        emit ContractThawed(msg.sender);\n    }\n\n\n    /**\n     * Registration, advertisement and posting fees are made payable to the contract address.\n     * The owner will have to withdraw and pay taxes on the earnings from these fees.\n     * This method permits an authenticated cash out of the contract balance to the contract owner.\n     *\n     * The comment, friend, followers, likes and dislike fees are paid to the originating user at the time\n     * of the event. The user is responsible for reporting earnings.\n     */\n    function cashoutToOwner()\n        public\n        payable\n        onlyOwner\n    {\n        require(address(this).balance > 0,\"no balance to transfer to owner\");\n        uint256 balance = address(this).balance;\n        payable(getOwner()).transfer(balance);\n        emit CashOut(getOwner(),balance);\n    }\n\n    function addUser(address _useraddress,string memory fullname, string memory profession, string memory location,\n                     string memory dob, string memory interests,\n                     string memory role)\n        public\n        payable\n        isRunning\n        onlyOwner\n    {\n        require(_useraddress != ZERO_ADDRESS, \"missing user address\");\n        require(User.isUser(_useraddress) == false,\"user already exists\");\n        User.addUserByAddress(_useraddress);\n\n        if (StringUtils.equal(role, User.OWNER_ROLE) ||\n            StringUtils.equal(role, User.ADVERTISER_ROLE) ||\n            StringUtils.equal(role, User.USER_ROLE) ||\n            StringUtils.equal(role, User.VERIFIER_ROLE))\n        {\n            User.updateUserMetaByAddress(_useraddress,fullname,profession,location,dob,interests,role);\n            if (StringUtils.equal(role, User.ADVERTISER_ROLE)) {\n                Advertiser.addAdvertiser(_useraddress);\n            }\n        } else {\n            revert(\"unrecognized role\");\n        }\n    }\n\n    function deleteUser(address _useraddress, string memory role)\n        public\n        payable\n        isRunning\n        onlyOwner\n    {\n        require(_useraddress != ZERO_ADDRESS, \"missing user address\");\n        require(User.isUser(_useraddress) == false,\"user already exists\");\n        User.revokeRole(role,_useraddress);\n    }\n\n    function blockUser(address _useraddress,string memory role)\n        public\n        payable\n        isRunning\n        onlyOwner\n    {\n        require(_useraddress != ZERO_ADDRESS, \"missing user address\");\n        require(User.isUser(_useraddress) == false,\"user already exists\");\n        User.renounceRole(role,_useraddress);\n    }\n\n    function unblockUser(address _useraddress,string memory role)\n        public\n        payable\n        isRunning\n        onlyOwner\n    {\n        require(_useraddress != ZERO_ADDRESS, \"missing user address\");\n        require(User.isUser(_useraddress) == false,\"user already exists\");\n        User.restoreRole(role, _useraddress);\n    }\n\n    function registerAdvertiser(string memory fullname, string memory location,string memory dob)\n        public\n        payable\n        isRunning\n        addressValid\n        advertiserNoExist\n    {\n        require(msg.value == registrationAdvertiserFee,\"insufficient advertiser registration amount!\");\n        payable(address(this)).transfer(msg.value);\n        User.addUser();\n        User.updateUserMeta(fullname,string(\"Advertiser\"),location,dob,string(\"advertising\"),User.ADVERTISER_ROLE);\n        Advertiser.addAdvertiser(msg.sender);\n    }\n    \n\n    function register(string memory fullname, string memory profession, string memory location, string memory dob, string memory interests)\n        public\n        payable\n        isRunning\n        addressValid\n        userNotExist\n    {\n        require(msg.value == registrationUserFee,\"insufficient user registration amount!\");\n        payable(address(this)).transfer(msg.value);\n        User.addUser();\n        User.updateUserMeta(fullname,profession,location,dob,interests,User.USER_ROLE);\n    }\n\n    /**\n     * The contract gets a fee for posting\n     */\n    function post(uint256 timestamp, bool visibility, string memory message)\n        public\n        payable\n        isRunning\n        addressValid\n        isUser\n    {\n        require(msg.value == postingFee,\"insufficient posting fee\");\n        payable(address(this)).transfer(msg.value);\n        uint index = SocialFeeds.addPostv2(timestamp, visibility, message);\n        emit SocialFeeds.PostAdded(msg.sender,message,index);\n    }\n\n    function adminDeletePost(address poster, uint index)\n        public\n        payable\n        isRunning\n        onlyOwner\n    {\n        SocialFeeds.removePost(poster, index);\n    }\n\n    function deletePost(uint index)\n        public\n        payable\n        isRunning\n        addressValid\n        isUser\n    {\n        SocialFeeds.removePostByUser(index);\n    }\n\n    /**\n     * The post owner gets a fee for all comments added to the post, pays 0.0001 ether per post\n     */\n    function addComment(address poster, uint index, string memory message)\n        public\n        payable\n        isRunning\n        addressValid\n        isUser\n    {\n        require(msg.value == commentFee,\"insufficient comment posting amount!\");\n        if (User.isBackupWithholding(poster)) {\n            // poster (receiver) is subject to backup withholding, so keep a running balance, transfer to contract address\n            payable(address(this)).transfer(msg.value);\n            balances[poster] += msg.value;\n        } else {\n            payable(poster).transfer(msg.value);\n        }\n        Comment.addComment(poster,index,message);\n    }\n\n    function adminDeleteComment(address _useraddress,uint index)\n        public\n        payable\n        isRunning\n        onlyOwner\n    {\n        Comment.deleteComment(_useraddress,index);\n    }\n\n    function deleteComment(uint index)\n        public\n        payable\n        isRunning\n        addressValid\n        isUser\n    {\n        Comment.deleteCommentByUser(index);\n    }\n\n    function getUsers()\n        public\n        view\n        returns (address[] memory)\n    {\n        return User.getUsers();\n    }\n\n    function getAdvertisers()\n        public\n        view\n        returns (address[] memory)\n    {\n        return Advertiser.getAdvertisers();\n    }\n\n    function newAdvertisement(string memory message)\n        public\n        payable\n        isRunning\n    {\n        require(Advertiser.isAdvertiser(),\"unauthorized, not an advertiser\");\n        require(msg.value == newAdvertisementFee,\"insufficient new advertisement fee!\");\n        payable(address(this)).transfer(msg.value);\n        Advertiser.newAdvertisement(message);\n    }\n\n    function adminDeleteAdvertisement(address _advertiseraddress, uint index)\n        public\n        payable\n        isRunning\n        onlyOwner\n    {\n        Advertiser.deleteAdvertisement(_advertiseraddress,index);\n    }\n\n    function deleteAdvertisement(uint index)\n        public\n        payable\n        isRunning\n        addressValid\n    {\n        require(Advertiser.isAdvertiser(),\"unauthorized, not an advertiser\");\n        Advertiser.deleteAdvertisement(msg.sender, index);\n    }\n\n    function getAdvertisements()\n        public\n        view\n        returns (string[] memory)\n    {\n        return Advertiser.getAdvertisements();\n    }\n\n    function getContractBalance()\n        public\n        payable\n        onlyOwner\n        returns (uint256)\n    {\n        return address(this).balance;\n    }\n\n    function getUserRole()\n        public\n        view\n        returns (string memory)\n    {\n        return User.getUserRole();\n    }\n\n    function getRoleOfUser(address useraddress)\n        public\n        view\n        returns (string memory)\n    {\n        return User.getUserRoleByAddress(useraddress);\n    }\n\n    /**\n     * When you follow a user, you are sending a small compensation to the user as a thank you.\n     * User earns 0.0001 ether per each new follower\n     */\n    function addFollower(address user)\n        public\n        payable\n        isRunning\n        addressValid\n        isUser\n        canPayFee\n    {\n        require(StringUtils.equal(User.getUserRoleByAddress(user), User.USER_ROLE), \"user is not valid\");\n        require(msg.value == addFollowerFee,\"insufficient follower fee!\");\n\n        if (User.isBackupWithholding(user)) {\n            // poster (receiver) is subject to backup withholding, so keep a running balance, transfer to contract address\n            payable(address(this)).transfer(msg.value);\n            balances[user] += msg.value;\n        } else {\n            payable(user).transfer(msg.value); // send a small compensation to the user you are following\n        }\n        FriendsFollowers.addFollower(user);\n    }\n\n    function getFollowers()\n        public\n        view\n        isRunning\n        addressValid\n        isUser\n        returns (address[] memory)\n    {\n        return FriendsFollowers.getFollowers();\n    }\n\n    /**\n     * User earns 0.0001 ether per each new friend request. Only friends can comment on a user's posts\n     */\n    function makeFriendRequest(address user)\n        public\n        payable\n        isRunning\n        addressValid\n        isUser\n        canPayFee\n    {\n        require(StringUtils.equal(User.getUserRoleByAddress(user), User.USER_ROLE), \"user is not valid\");\n        require(msg.value == friendRequestFee,\"insufficient friend request fee!\");\n\n        if (User.isBackupWithholding(user)) {\n            // poster (receiver) is subject to backup withholding, so keep a running balance, transfer to contract address\n            payable(address(this)).transfer(msg.value);\n            balances[user] += msg.value;\n        } else {\n            payable(user).transfer(msg.value); // send a small compensation to the user you are following\n        }\n        FriendsFollowers.addFriendRequest(user);\n    }\n\n    function adminDeleteFollower(address _useraddress,address _followeraddress)\n        public\n        payable\n        isRunning\n        onlyOwner\n    {\n        FriendsFollowers.removeFollower(_useraddress,_followeraddress);\n    }\n\n    function deleteFollower(address _followeraddress)\n        public\n        payable\n        isRunning\n        addressValid\n        isUser\n    {\n        FriendsFollowers.removeFollower(msg.sender,_followeraddress);\n    }\n\n    function getFriendRequests()\n        public\n        view\n        isRunning\n        addressValid\n        isUser\n        returns (address[] memory)\n    {\n        return FriendsFollowers.getFriendRequest();\n    }\n\n    function approveFriendRequest(address requestor)\n        public\n        payable\n        isRunning\n        addressValid\n        isUser\n    {\n        FriendsFollowers.approveFriendRequest(requestor);\n    }\n\n    function deleteFriendRequest(address requestor)\n        public\n        payable\n        isRunning\n        addressValid\n        isUser\n    {\n        FriendsFollowers.deleteFriendRequest(requestor);\n    }\n\n    /**\n     * User sends 0.0001 ether to each follower;\n     */\n    function notifyFollowers(string memory message)\n        public\n        payable\n        isRunning\n        addressValid\n        isUser\n    {\n        uint256 totalFolloweres = FriendsFollowers.getTotalFollowers();\n        require(msg.value == totalFolloweres * 0.0001 ether,\"insufficient follower notification fee\");\n        FriendsFollowers.notifyFollowers(message);\n    }\n\n    function notifyFriends(string memory message)\n        public\n        payable\n        isRunning\n        addressValid\n        isUser\n    {\n        uint256 totalFriends = FriendsFollowers.getTotalFriends();\n        require(msg.value == totalFriends * 0.0001 ether,\"insufficient friend notification fee\");\n        FriendsFollowers.notifyFriends(message);\n    }\n\n    /**\n     * Payments\n     */\n    function balanceOf(address account)\n        public\n        view\n        returns (uint256)\n    {\n        return account.balance;\n    }\n\n    function myBalance()\n        public\n        view\n        isUser\n        returns (uint256)\n    {\n        return msg.sender.balance;\n    }\n\n    /**\n     * User pays small gas fee to change opt-out status\n     */\n    function userChangeOptsOutStatus(address user, bool status)\n        public\n    {\n      optout[user] = status;\n    }\n\n    /**\n     * Permits third party marketers to send messages to consumers via the connected DAPP for a fee paid to a verified consumer.\n     * Consumer has option to opt-out, if they choose to receive communication, they can now get paid for each message received.\n     *\n     * Since no Personal Identifying Information (PII) is linked to the wallet on the public chain, there is no matching demographics and\n     * just plain blind advertising which is most email campaigns.\n     */\n    function sendUserMessage(address user, string memory message)\n      public\n      payable\n      addressValid\n    {\n      require(optout[user] == false,\"consumer has opted-out to received any external messages or communication\");\n      require(user != ZERO_ADDRESS,\"invalid consumer address\");\n      require(msg.value == sendUserMessageFee,\"insufficient user message fee!\");\n      payable(user).transfer(msg.value);\n      emit MessageUser(msg.sender,user,message);\n    }\n\n    /**\n     * A marketer can buy the consumer list of wallet addresses. No PII is attached and no demographics.\n     * Though a marketer can query the blockchain for matching transactions and develop their own demographics?\n     * The next analytic metric?\n     */\n    function getUserList()\n      public\n      payable\n      addressValid\n      returns (address[] memory)\n    {\n      require(msg.value == userListingFee,\"insufficient user list fee!\");\n      payable(address(this)).transfer(0.001 ether);\n      return User.getUsers();\n    }\n}\n",
  "sourcePath": "/Volumes/My Book/projects/pingleware-contracts/contracts/social/SocialNetwork.sol",
  "compiler": {
    "name": "solc",
    "version": "0.8.18+commit.87f61d96.Emscripten.clang"
  },
  "schemaVersion": "3.4.12",
  "updatedAt": "2023-10-22T04:05:08.441Z",
  "devdoc": {
    "kind": "dev",
    "methods": {
      "renounceOwnership()": {
        "details": "Leaves the contract without owner. It will not be possible to call `onlyOwner` functions anymore. Can only be called by the current owner. NOTE: Renouncing ownership will leave the contract without an owner, thereby removing any functionality that is only available to the owner."
      },
      "transferOwnership(address)": {
        "details": "Transfers ownership of the contract to a new account (`newOwner`). Can only be called by the current owner."
      }
    },
    "version": 1
  },
  "userdoc": {
    "kind": "user",
    "methods": {
      "addComment(address,uint256,string)": {
        "notice": "The post owner gets a fee for all comments added to the post, pays 0.0001 ether per post"
      },
      "addFollower(address)": {
        "notice": "When you follow a user, you are sending a small compensation to the user as a thank you. User earns 0.0001 ether per each new follower"
      },
      "balanceOf(address)": {
        "notice": "Payments"
      },
      "cashoutToOwner()": {
        "notice": "Registration, advertisement and posting fees are made payable to the contract address. The owner will have to withdraw and pay taxes on the earnings from these fees. This method permits an authenticated cash out of the contract balance to the contract owner. The comment, friend, followers, likes and dislike fees are paid to the originating user at the time of the event. The user is responsible for reporting earnings."
      },
      "getUserList()": {
        "notice": "A marketer can buy the consumer list of wallet addresses. No PII is attached and no demographics. Though a marketer can query the blockchain for matching transactions and develop their own demographics? The next analytic metric?"
      },
      "makeFriendRequest(address)": {
        "notice": "User earns 0.0001 ether per each new friend request. Only friends can comment on a user's posts"
      },
      "notifyFollowers(string)": {
        "notice": "User sends 0.0001 ether to each follower;"
      },
      "post(uint256,bool,string)": {
        "notice": "The contract gets a fee for posting"
      },
      "sendUserMessage(address,string)": {
        "notice": "Permits third party marketers to send messages to consumers via the connected DAPP for a fee paid to a verified consumer. Consumer has option to opt-out, if they choose to receive communication, they can now get paid for each message received. Since no Personal Identifying Information (PII) is linked to the wallet on the public chain, there is no matching demographics and just plain blind advertising which is most email campaigns."
      },
      "userChangeOptsOutStatus(address,bool)": {
        "notice": "User pays small gas fee to change opt-out status"
      }
    },
    "version": 1
  }
}