{
  "contractName": "SocialFeeds",
  "abi": [
    {
      "anonymous": false,
      "inputs": [
        {
          "indexed": false,
          "internalType": "address",
          "name": "sender",
          "type": "address"
        },
        {
          "indexed": false,
          "internalType": "string",
          "name": "message",
          "type": "string"
        },
        {
          "indexed": false,
          "internalType": "uint256",
          "name": "index",
          "type": "uint256"
        }
      ],
      "name": "PostAdded",
      "type": "event"
    },
    {
      "anonymous": false,
      "inputs": [
        {
          "indexed": false,
          "internalType": "address",
          "name": "post",
          "type": "address"
        },
        {
          "indexed": false,
          "internalType": "string",
          "name": "message",
          "type": "string"
        },
        {
          "indexed": false,
          "internalType": "uint256",
          "name": "index",
          "type": "uint256"
        }
      ],
      "name": "PostDeleted",
      "type": "event"
    },
    {
      "inputs": [],
      "name": "getPosters",
      "outputs": [
        {
          "internalType": "address[]",
          "name": "",
          "type": "address[]"
        }
      ],
      "stateMutability": "view",
      "type": "function"
    },
    {
      "inputs": [],
      "name": "getTotalPosters",
      "outputs": [
        {
          "internalType": "uint256",
          "name": "",
          "type": "uint256"
        }
      ],
      "stateMutability": "view",
      "type": "function"
    },
    {
      "inputs": [],
      "name": "getPostsv2",
      "outputs": [
        {
          "components": [
            {
              "internalType": "uint256",
              "name": "epoch",
              "type": "uint256"
            },
            {
              "internalType": "bool",
              "name": "visible",
              "type": "bool"
            },
            {
              "internalType": "string",
              "name": "content",
              "type": "string"
            }
          ],
          "internalType": "struct SocialFeeds.Post[]",
          "name": "",
          "type": "tuple[]"
        }
      ],
      "stateMutability": "view",
      "type": "function"
    },
    {
      "inputs": [
        {
          "internalType": "address",
          "name": "owner",
          "type": "address"
        }
      ],
      "name": "getPostsv2ByOwner",
      "outputs": [
        {
          "components": [
            {
              "internalType": "uint256",
              "name": "epoch",
              "type": "uint256"
            },
            {
              "internalType": "bool",
              "name": "visible",
              "type": "bool"
            },
            {
              "internalType": "string",
              "name": "content",
              "type": "string"
            }
          ],
          "internalType": "struct SocialFeeds.Post[]",
          "name": "",
          "type": "tuple[]"
        }
      ],
      "stateMutability": "view",
      "type": "function"
    },
    {
      "inputs": [],
      "name": "getTotalPostsv2",
      "outputs": [
        {
          "internalType": "uint256",
          "name": "",
          "type": "uint256"
        }
      ],
      "stateMutability": "view",
      "type": "function"
    },
    {
      "inputs": [
        {
          "internalType": "address",
          "name": "owner",
          "type": "address"
        }
      ],
      "name": "getTotalPostsv2ByOwner",
      "outputs": [
        {
          "internalType": "uint256",
          "name": "",
          "type": "uint256"
        }
      ],
      "stateMutability": "view",
      "type": "function"
    },
    {
      "inputs": [],
      "name": "getTotalPosts",
      "outputs": [
        {
          "internalType": "uint256",
          "name": "",
          "type": "uint256"
        }
      ],
      "stateMutability": "view",
      "type": "function"
    },
    {
      "inputs": [
        {
          "internalType": "uint256",
          "name": "index",
          "type": "uint256"
        }
      ],
      "name": "getPosts",
      "outputs": [
        {
          "internalType": "string",
          "name": "",
          "type": "string"
        }
      ],
      "stateMutability": "view",
      "type": "function"
    },
    {
      "inputs": [],
      "name": "getAllPosts",
      "outputs": [
        {
          "internalType": "string",
          "name": "",
          "type": "string"
        }
      ],
      "stateMutability": "view",
      "type": "function"
    }
  ],
  "bytecode": "0x61137d610053600b82828239805160001a607314610046577f4e487b7100000000000000000000000000000000000000000000000000000000600052600060045260246000fd5b30600052607381538281f3fe73000000000000000000000000000000000000000030146080604052600436106100c75760e060020a60003504631d45cddc81146100cc57806330561100146100f557806335ce530c146100fd5780633b3a39341461012b5780635f0e4f7b146101405780635fe226b41461016257806360d2fb511461016a5780636567d94b1461018a5780638814e79e146101aa5780639c6f09e2146101b25780639d44ee5f146101d2578063a6322819146101e5578063badd239e14610205578063ebf86ee81461020d575b600080fd5b6100df6100da366004610dfe565b610215565b6040516100ec9190610e67565b60405180910390f35b6100df610349565b81801561010957600080fd5b5061011d610118366004610f27565b610520565b6040519081526020016100ec565b6101336105cf565b6040516100ec9190610f84565b81801561014c57600080fd5b5061016061015b366004610fd1565b61063a565b005b61011d6106c6565b61017d610178366004611029565b6106e9565b6040516100ec9190611044565b81801561019657600080fd5b506101606101a5366004610dfe565b610810565b61011d61095f565b8180156101be57600080fd5b506101606101cd3660046110c2565b61097f565b61011d6101e0366004611029565b610af4565b8180156101f157600080fd5b5061011d610200366004610fd1565b610b1d565b61017d610c5d565b61011d610d79565b606061021f610d8c565b336000908152600191909101602052604090205482106102825760405160e560020a62461bcd0281526020600482015260146024820152606060020a73706f737420646f6573206e6f742065786973747302604482015260640160405180910390fd5b61028a610d8c565b336000908152600191909101602052604090208054839081106102af576102af6110ec565b9060005260206000200180546102c490611106565b80601f01602080910402602001604051908101604052809291908181526020018280546102f090611106565b801561033d5780601f106103125761010080835404028352916020019161033d565b820191906000526020600020905b81548152906001019060200180831161032057829003601f168201915b50505050509050919050565b6040805160208101909152600080825260609190610365610d8c565b60020154905060005b81811015610518576000610380610d8c565b6002018281548110610394576103946110ec565b6000918252602082200154600160a060020a031691506103b2610d8c565b600160a060020a03831660009081526001919091016020908152604080832080548251818502810185019093528083529193909284015b8282101561049557838290600052602060002001805461040890611106565b80601f016020809104026020016040519081016040528092919081815260200182805461043490611106565b80156104815780601f1061045657610100808354040283529160200191610481565b820191906000526020600020905b81548152906001019060200180831161046457829003601f168201915b5050505050815260200190600101906103e9565b5050505090506000815111156105035760005b815181101561050157858282815181106104c4576104c46110ec565b60200260200101516040516020016104dd929190611144565b604051602081830303815290604052955080806104f99061118d565b9150506104a8565b505b505080806105109061118d565b91505061036e565b509092915050565b604080516060810182528481528315156020820152908101829052600090610546610d8c565b3360009081526020918252604080822080546001808201835591845292849020855160039094020192835592840151928201805460ff19169315159390931790925590820151829190600282019061059e90826111f5565b50505060016105ab610d8c565b33600090815260209190915260409020546105c691906112ba565b95945050505050565b60606105d9610d8c565b60020180548060200260200160405190810160405280929190818152602001828054801561063057602002820191906000526020600020905b8154600160a060020a03168152600190910190602001808311610612575b5050505050905090565b610642610d8c565b336000908152600191820160209081526040822080549384018155825290200161066c82826111f5565b5060006001610679610d8c565b336000908152600191909101602052604090205461069791906112ba565b90506000805160206113088339815191523383836040516106ba939291906112d3565b60405180910390a15050565b60006106d0610d8c565b3360009081526001919091016020526040902054919050565b60606106f3610d8c565b600160a060020a0383166000908152602091825260408082208054825181860281018601909352808352919390929084015b82821015610805576000848152602090819020604080516060810182526003860290920180548352600181015460ff161515938301939093526002830180549293929184019161077490611106565b80601f01602080910402602001604051908101604052809291908181526020018280546107a090611106565b80156107ed5780601f106107c2576101008083540402835291602001916107ed565b820191906000526020600020905b8154815290600101906020018083116107d057829003601f168201915b50505050508152505081526020019060010190610725565b505050509050919050565b600061081a610d8c565b3360009081526001919091016020526040902054111561095c57600061083e610d8c565b33600090815260019190910160205260409020805483908110610863576108636110ec565b90600052602060002001805461087890611106565b80601f01602080910402602001604051908101604052809291908181526020018280546108a490611106565b80156108f15780601f106108c6576101008083540402835291602001916108f1565b820191906000526020600020905b8154815290600101906020018083116108d457829003601f168201915b50505050509050610900610d8c565b33600090815260019190910160205260409020805483908110610925576109256110ec565b90600052602060002001600061093b9190610db0565b6000805160206113288339815191523382846040516106ba939291906112d3565b50565b6000610969610d8c565b3360009081526020919091526040902054919050565b6000610989610d8c565b600160a060020a038416600090815260019190910160205260409020541115610af05760006109b6610d8c565b600160a060020a0384166000908152600191909101602052604090208054839081106109e4576109e46110ec565b9060005260206000200180546109f990611106565b80601f0160208091040260200160405190810160405280929190818152602001828054610a2590611106565b8015610a725780601f10610a4757610100808354040283529160200191610a72565b820191906000526020600020905b815481529060010190602001808311610a5557829003601f168201915b50505050509050610a81610d8c565b600160a060020a038416600090815260019190910160205260409020805483908110610aaf57610aaf6110ec565b906000526020600020016000610ac59190610db0565b600080516020611328833981519152838284604051610ae6939291906112d3565b60405180910390a1505b5050565b6000610afe610d8c565b600160a060020a03909216600090815260209290925250604090205490565b60008080610b29610d8c565b600201541115610b9a5760005b610b3e610d8c565b60020154811015610b98576000610b53610d8c565b6002018281548110610b6757610b676110ec565b600091825260209091200154600160a060020a031603610b8657600191505b80610b908161118d565b915050610b36565b505b80610bce57610ba7610d8c565b600201805460018101825560009182526020909120018054600160a060020a031916331790555b610bd6610d8c565b3360009081526001918201602090815260408220805493840181558252902001610c0084826111f5565b5060006001610c0d610d8c565b3360009081526001919091016020526040902054610c2b91906112ba565b9050600080516020611308833981519152338583604051610c4e939291906112d3565b60405180910390a19392505050565b6060610c67610d8c565b336000908152602091825260408082208054825181860281018601909352808352919390929084015b82821015610d70576000848152602090819020604080516060810182526003860290920180548352600181015460ff1615159383019390935260028301805492939291840191610cdf90611106565b80601f0160208091040260200160405190810160405280929190818152602001828054610d0b90611106565b8015610d585780601f10610d2d57610100808354040283529160200191610d58565b820191906000526020600020905b815481529060010190602001808311610d3b57829003601f168201915b50505050508152505081526020019060010190610c90565b50505050905090565b6000610d83610d8c565b60020154919050565b7f39a9c687aae655d3c197896faab84d6d0016cbcc7c19546f2b2a0417302da08690565b508054610dbc90611106565b6000825580601f10610dcc575050565b601f01602090049060005260206000209081019061095c91905b80821115610dfa5760008155600101610de6565b5090565b600060208284031215610e1057600080fd5b5035919050565b60005b83811015610e32578181015183820152602001610e1a565b50506000910152565b60008151808452610e53816020860160208601610e17565b601f01601f19169290920160200192915050565b602081526000610e7a6020830184610e3b565b9392505050565b60e060020a634e487b710260009081526041600452602490fd5b600082601f830112610eac57600080fd5b81356001604060020a0380821115610ec657610ec6610e81565b604051601f8301601f19908116603f01168101908282118183101715610eee57610eee610e81565b81604052838152866020858801011115610f0757600080fd5b836020870160208301376000602085830101528094505050505092915050565b600080600060608486031215610f3c57600080fd5b8335925060208401358015158114610f5357600080fd5b915060408401356001604060020a03811115610f6e57600080fd5b610f7a86828701610e9b565b9150509250925092565b6020808252825182820181905260009190848201906040850190845b81811015610fc5578351600160a060020a031683529284019291840191600101610fa0565b50909695505050505050565b600060208284031215610fe357600080fd5b81356001604060020a03811115610ff957600080fd5b61100584828501610e9b565b949350505050565b8035600160a060020a038116811461102457600080fd5b919050565b60006020828403121561103b57600080fd5b610e7a8261100d565b60208082528251828201819052600091906040908185019080840286018301878501865b838110156110b457888303603f190185528151805184528781015115158885015286015160608785018190526110a081860183610e3b565b968901969450505090860190600101611068565b509098975050505050505050565b600080604083850312156110d557600080fd5b6110de8361100d565b946020939093013593505050565b60e060020a634e487b710260009081526032600452602490fd5b60028104600182168061111a57607f821691505b60208210810361113e5760e060020a634e487b710260009081526022600452602490fd5b50919050565b60008351611156818460208801610e17565b83519083019061116a818360208801610e17565b01949350505050565b60e060020a634e487b710260009081526011600452602490fd5b60006001820161119f5761119f611173565b5060010190565b601f8211156111f0576000818152602081206020601f860104810160208610156111cd5750805b6020601f860104820191505b818110156111ec578281556001016111d9565b5050505b505050565b81516001604060020a0381111561120e5761120e610e81565b6112228161121c8454611106565b846111a6565b602080601f83116001811461125b576000841561123f5750858301515b60028086026008870290910a60001904198216178655506111ec565b600085815260208120601f198616915b8281101561128a5788860151825594840194600190910190840161126b565b50858210156112aa57878501516008601f88160260020a60001904191681555b5050505050600202600101905550565b818103818111156112cd576112cd611173565b92915050565b600160a060020a03841681526060602082018190526000906112f790830185610e3b565b905082604083015294935050505056feda803178f0e32ef3a489f4a8ac28377ec0537c4f57c42be4c349e457b355e0cd52f5a9d08669be24caf9d9a03ce03fd5d8c3e44ffe7a4635afc8c90857b1d51aa264697066735822122083fb55113f40b7d69745720dc5781b4b67ba5573db88d35deff73b32c475333564736f6c63430008120033",
  "immutableReferences": {},
  "source": "// SPDX-License-Identifier: CC-BY-4.0\r\npragma solidity >=0.4.22 <0.9.0;\r\n\r\nlibrary SocialFeeds {\r\n    bytes32 constant private ZERO_BYTES = bytes32(0);\r\n    address constant private ZERO_ADDRESS = address(0);\r\n\r\n    event PostAdded(address sender, string message, uint index);\r\n    event PostDeleted(address post, string message, uint index);\r\n\r\n    struct Post {\r\n        uint256 epoch;\r\n        bool    visible;\r\n        string  content;\r\n    }\r\n\r\n    struct PostStorage {\r\n        mapping (address => Post[]) postsV2;\r\n        mapping (address => string[]) posts;\r\n        address[] _authors;\r\n    }\r\n\r\n    function postStorage() internal pure returns (PostStorage storage ds)\r\n    {\r\n        bytes32 position = keccak256(\"post.storage\");\r\n        assembly { ds.slot := position }\r\n    }\r\n\r\n\r\n    function getPosters()\r\n        external\r\n        view\r\n        returns (address[] memory)\r\n    {\r\n        return postStorage()._authors;\r\n    }\r\n\r\n    function getTotalPosters()\r\n        external\r\n        view\r\n        returns (uint256)\r\n    {\r\n        return postStorage()._authors.length;\r\n    }\r\n\r\n\r\n    function addPostv2(uint256 epoch,bool visible,string memory content)\r\n        external\r\n        returns (uint)\r\n    {\r\n        \r\n        Post memory _post = Post(epoch,visible,content);\r\n        postStorage().postsV2[msg.sender].push(_post);\r\n        return postStorage().postsV2[msg.sender].length - 1;\r\n    }\r\n\r\n    function getPostsv2()\r\n        external\r\n        view\r\n        returns (Post[] memory)\r\n    {\r\n        return postStorage().postsV2[msg.sender];\r\n    }\r\n\r\n    function getPostsv2ByOwner(address owner)\r\n        external\r\n        view\r\n        returns (Post[] memory)\r\n    {\r\n        return postStorage().postsV2[owner];\r\n    }\r\n\r\n    function getTotalPostsv2()\r\n        external\r\n        view\r\n        returns (uint256)\r\n    {\r\n        return postStorage().postsV2[msg.sender].length;\r\n    }\r\n\r\n    function getTotalPostsv2ByOwner(address owner)\r\n        external\r\n        view\r\n        returns (uint256)\r\n    {\r\n        return postStorage().postsV2[owner].length;\r\n    }\r\n\r\n    function addPostByOwner(string memory message)\r\n        external\r\n    {\r\n        postStorage().posts[msg.sender].push(message);\r\n        uint index = postStorage().posts[msg.sender].length - 1;\r\n        emit PostAdded(msg.sender,message,index);\r\n    }\r\n\r\n    function addPost(string memory message)\r\n        external\r\n        returns (uint256)\r\n    {\r\n        bool found = false;\r\n        if (postStorage()._authors.length > 0) {\r\n            for (uint i = 0; i < postStorage()._authors.length; i++) {\r\n                if (postStorage()._authors[i] == ZERO_ADDRESS) {\r\n                    found = true;\r\n                }\r\n            }\r\n        }\r\n        if (!found) {\r\n            postStorage()._authors.push(msg.sender);\r\n        }\r\n        postStorage().posts[msg.sender].push(message);\r\n        uint index = postStorage().posts[msg.sender].length - 1;\r\n        emit PostAdded(msg.sender,message,index);\r\n        return index;\r\n    }\r\n\r\n    function removePost(address poster,uint index)\r\n        external\r\n    {\r\n        if (postStorage().posts[poster].length > 0) {\r\n            string memory message = postStorage().posts[poster][index];\r\n            delete postStorage().posts[poster][index];\r\n            emit PostDeleted(poster,message,index);\r\n        }\r\n    }\r\n\r\n    function removePostByUser(uint index)\r\n        external\r\n    {\r\n        if (postStorage().posts[msg.sender].length > 0) {\r\n            string memory message = postStorage().posts[msg.sender][index];\r\n            delete postStorage().posts[msg.sender][index];\r\n            emit PostDeleted(msg.sender,message,index);\r\n        }\r\n    }\r\n\r\n    function getTotalPosts()\r\n        external\r\n        view\r\n        returns (uint256)\r\n    {\r\n        return postStorage().posts[msg.sender].length;\r\n    }\r\n    \r\n    function getPosts(uint256 index)\r\n        external\r\n        view\r\n        returns (string memory)\r\n    {\r\n        require(index < postStorage().posts[msg.sender].length,\"post does not exists\");\r\n        return postStorage().posts[msg.sender][index];\r\n    }\r\n    \r\n\r\n    function getAllPosts()\r\n        external\r\n        view\r\n        returns (string memory)\r\n    {\r\n        string memory output = \"\";\r\n        uint256 total = postStorage()._authors.length;\r\n        for (uint i = 0; i < total; i++) {\r\n            address key = postStorage()._authors[i];\r\n            string[] memory post = postStorage().posts[key];\r\n            if (post.length > 0) {\r\n                for (uint l = 0; l < post.length; l++) {\r\n                    output = string(abi.encodePacked(output, post[l]));\r\n                }\r\n            }\r\n        }\r\n        return output;\r\n    }\r\n\r\n}",
  "sourcePath": "/Volumes/My Book/projects/pingleware-contracts/contracts/social/SocialFeed.sol",
  "compiler": {
    "name": "solc",
    "version": "0.8.18+commit.87f61d96.Emscripten.clang"
  },
  "schemaVersion": "3.4.12",
  "updatedAt": "2023-10-22T04:05:08.418Z",
  "devdoc": {
    "kind": "dev",
    "methods": {},
    "version": 1
  },
  "userdoc": {
    "kind": "user",
    "methods": {},
    "version": 1
  }
}