{
  "contractName": "SocialNetwork",
  "abi": [
    {
      "inputs": [],
      "stateMutability": "payable",
      "type": "constructor"
    },
    {
      "anonymous": false,
      "inputs": [
        {
          "indexed": false,
          "internalType": "address",
          "name": "sender",
          "type": "address"
        }
      ],
      "name": "AdvertiserAdded",
      "type": "event"
    },
    {
      "anonymous": false,
      "inputs": [
        {
          "indexed": false,
          "internalType": "address",
          "name": "sender",
          "type": "address"
        },
        {
          "indexed": false,
          "internalType": "address",
          "name": "spender",
          "type": "address"
        },
        {
          "indexed": false,
          "internalType": "uint256",
          "name": "amount",
          "type": "uint256"
        }
      ],
      "name": "Approval",
      "type": "event"
    },
    {
      "anonymous": false,
      "inputs": [
        {
          "indexed": false,
          "internalType": "address",
          "name": "sender",
          "type": "address"
        },
        {
          "indexed": false,
          "internalType": "address",
          "name": "user",
          "type": "address"
        },
        {
          "indexed": false,
          "internalType": "string",
          "name": "comment",
          "type": "string"
        }
      ],
      "name": "CommentAdded",
      "type": "event"
    },
    {
      "anonymous": false,
      "inputs": [
        {
          "indexed": false,
          "internalType": "address",
          "name": "sender",
          "type": "address"
        },
        {
          "indexed": false,
          "internalType": "address",
          "name": "follower",
          "type": "address"
        }
      ],
      "name": "FollowerAdded",
      "type": "event"
    },
    {
      "anonymous": false,
      "inputs": [
        {
          "indexed": false,
          "internalType": "address",
          "name": "sender",
          "type": "address"
        },
        {
          "indexed": false,
          "internalType": "address",
          "name": "user",
          "type": "address"
        }
      ],
      "name": "FriendRequestAdded",
      "type": "event"
    },
    {
      "anonymous": false,
      "inputs": [
        {
          "indexed": true,
          "internalType": "address",
          "name": "_to",
          "type": "address"
        },
        {
          "indexed": true,
          "internalType": "uint256",
          "name": "_tokenId",
          "type": "uint256"
        },
        {
          "indexed": false,
          "internalType": "bytes32",
          "name": "_ipfsHash",
          "type": "bytes32"
        }
      ],
      "name": "Mint",
      "type": "event"
    },
    {
      "anonymous": false,
      "inputs": [
        {
          "indexed": false,
          "internalType": "address",
          "name": "sender",
          "type": "address"
        },
        {
          "indexed": false,
          "internalType": "string",
          "name": "message",
          "type": "string"
        }
      ],
      "name": "PostAdded",
      "type": "event"
    },
    {
      "anonymous": false,
      "inputs": [
        {
          "indexed": false,
          "internalType": "address",
          "name": "sender",
          "type": "address"
        },
        {
          "indexed": false,
          "internalType": "address",
          "name": "recipient",
          "type": "address"
        },
        {
          "indexed": false,
          "internalType": "uint256",
          "name": "amount",
          "type": "uint256"
        }
      ],
      "name": "Transfer",
      "type": "event"
    },
    {
      "anonymous": false,
      "inputs": [
        {
          "indexed": false,
          "internalType": "address",
          "name": "sender",
          "type": "address"
        }
      ],
      "name": "UserAdded",
      "type": "event"
    },
    {
      "inputs": [],
      "name": "VERSION",
      "outputs": [
        {
          "internalType": "string",
          "name": "",
          "type": "string"
        }
      ],
      "stateMutability": "view",
      "type": "function"
    },
    {
      "inputs": [],
      "name": "_owner",
      "outputs": [
        {
          "internalType": "address",
          "name": "",
          "type": "address"
        }
      ],
      "stateMutability": "view",
      "type": "function"
    },
    {
      "inputs": [],
      "name": "_totalSupply",
      "outputs": [
        {
          "internalType": "uint256",
          "name": "",
          "type": "uint256"
        }
      ],
      "stateMutability": "view",
      "type": "function"
    },
    {
      "inputs": [],
      "name": "name",
      "outputs": [
        {
          "internalType": "string",
          "name": "",
          "type": "string"
        }
      ],
      "stateMutability": "view",
      "type": "function"
    },
    {
      "inputs": [],
      "name": "symbol",
      "outputs": [
        {
          "internalType": "string",
          "name": "",
          "type": "string"
        }
      ],
      "stateMutability": "view",
      "type": "function"
    },
    {
      "inputs": [],
      "name": "getContractBalance",
      "outputs": [
        {
          "internalType": "uint256",
          "name": "",
          "type": "uint256"
        }
      ],
      "stateMutability": "view",
      "type": "function"
    },
    {
      "inputs": [],
      "name": "getOwner",
      "outputs": [
        {
          "internalType": "address",
          "name": "",
          "type": "address"
        }
      ],
      "stateMutability": "view",
      "type": "function"
    },
    {
      "inputs": [],
      "name": "getUserRole",
      "outputs": [
        {
          "internalType": "string",
          "name": "",
          "type": "string"
        }
      ],
      "stateMutability": "view",
      "type": "function"
    },
    {
      "inputs": [],
      "name": "totalSupply",
      "outputs": [
        {
          "internalType": "uint256",
          "name": "",
          "type": "uint256"
        }
      ],
      "stateMutability": "view",
      "type": "function"
    },
    {
      "inputs": [
        {
          "internalType": "address",
          "name": "account",
          "type": "address"
        }
      ],
      "name": "balanceOf",
      "outputs": [
        {
          "internalType": "uint256",
          "name": "",
          "type": "uint256"
        }
      ],
      "stateMutability": "view",
      "type": "function"
    },
    {
      "inputs": [
        {
          "internalType": "address",
          "name": "owner",
          "type": "address"
        },
        {
          "internalType": "address",
          "name": "spender",
          "type": "address"
        }
      ],
      "name": "allowance",
      "outputs": [
        {
          "internalType": "uint256",
          "name": "",
          "type": "uint256"
        }
      ],
      "stateMutability": "view",
      "type": "function"
    },
    {
      "inputs": [
        {
          "internalType": "address",
          "name": "recipient",
          "type": "address"
        },
        {
          "internalType": "uint256",
          "name": "amount",
          "type": "uint256"
        }
      ],
      "name": "transfer",
      "outputs": [
        {
          "internalType": "bool",
          "name": "",
          "type": "bool"
        }
      ],
      "stateMutability": "nonpayable",
      "type": "function"
    },
    {
      "inputs": [
        {
          "internalType": "address",
          "name": "spender",
          "type": "address"
        },
        {
          "internalType": "uint256",
          "name": "amount",
          "type": "uint256"
        }
      ],
      "name": "approve",
      "outputs": [
        {
          "internalType": "bool",
          "name": "",
          "type": "bool"
        }
      ],
      "stateMutability": "nonpayable",
      "type": "function"
    },
    {
      "inputs": [
        {
          "internalType": "address",
          "name": "sender",
          "type": "address"
        },
        {
          "internalType": "address",
          "name": "recipient",
          "type": "address"
        },
        {
          "internalType": "uint256",
          "name": "amount",
          "type": "uint256"
        }
      ],
      "name": "transferFrom",
      "outputs": [
        {
          "internalType": "bool",
          "name": "",
          "type": "bool"
        }
      ],
      "stateMutability": "nonpayable",
      "type": "function"
    },
    {
      "inputs": [],
      "name": "addUser",
      "outputs": [],
      "stateMutability": "payable",
      "type": "function"
    },
    {
      "inputs": [
        {
          "internalType": "string",
          "name": "message",
          "type": "string"
        }
      ],
      "name": "addPostByOwner",
      "outputs": [],
      "stateMutability": "nonpayable",
      "type": "function"
    },
    {
      "inputs": [
        {
          "internalType": "string",
          "name": "message",
          "type": "string"
        }
      ],
      "name": "addPost",
      "outputs": [
        {
          "internalType": "uint256",
          "name": "",
          "type": "uint256"
        }
      ],
      "stateMutability": "payable",
      "type": "function"
    },
    {
      "inputs": [],
      "name": "getTotalPosts",
      "outputs": [
        {
          "internalType": "uint256",
          "name": "",
          "type": "uint256"
        }
      ],
      "stateMutability": "view",
      "type": "function"
    },
    {
      "inputs": [
        {
          "internalType": "uint256",
          "name": "index",
          "type": "uint256"
        }
      ],
      "name": "getPosts",
      "outputs": [
        {
          "internalType": "string",
          "name": "",
          "type": "string"
        }
      ],
      "stateMutability": "view",
      "type": "function"
    },
    {
      "inputs": [],
      "name": "getAllPosts",
      "outputs": [
        {
          "internalType": "string",
          "name": "",
          "type": "string"
        }
      ],
      "stateMutability": "view",
      "type": "function"
    },
    {
      "inputs": [
        {
          "internalType": "address",
          "name": "poster",
          "type": "address"
        },
        {
          "internalType": "uint256",
          "name": "index",
          "type": "uint256"
        },
        {
          "internalType": "string",
          "name": "message",
          "type": "string"
        }
      ],
      "name": "addComment",
      "outputs": [],
      "stateMutability": "payable",
      "type": "function"
    },
    {
      "inputs": [
        {
          "internalType": "address",
          "name": "poster",
          "type": "address"
        }
      ],
      "name": "getCommentTotal",
      "outputs": [
        {
          "internalType": "uint256",
          "name": "",
          "type": "uint256"
        }
      ],
      "stateMutability": "view",
      "type": "function"
    },
    {
      "inputs": [
        {
          "internalType": "address",
          "name": "poster",
          "type": "address"
        },
        {
          "internalType": "uint256",
          "name": "index",
          "type": "uint256"
        }
      ],
      "name": "getComment",
      "outputs": [
        {
          "internalType": "string",
          "name": "",
          "type": "string"
        }
      ],
      "stateMutability": "view",
      "type": "function"
    },
    {
      "inputs": [
        {
          "internalType": "address",
          "name": "poster",
          "type": "address"
        }
      ],
      "name": "getCommentsForPoster",
      "outputs": [
        {
          "internalType": "string",
          "name": "",
          "type": "string"
        }
      ],
      "stateMutability": "view",
      "type": "function"
    },
    {
      "inputs": [],
      "name": "getAllComments",
      "outputs": [
        {
          "internalType": "string",
          "name": "",
          "type": "string"
        }
      ],
      "stateMutability": "view",
      "type": "function"
    },
    {
      "inputs": [
        {
          "internalType": "string",
          "name": "profession",
          "type": "string"
        },
        {
          "internalType": "string",
          "name": "location",
          "type": "string"
        },
        {
          "internalType": "string",
          "name": "dob",
          "type": "string"
        },
        {
          "internalType": "string",
          "name": "interests",
          "type": "string"
        }
      ],
      "name": "updateUserMeta",
      "outputs": [],
      "stateMutability": "payable",
      "type": "function"
    },
    {
      "inputs": [],
      "name": "addAdvertiser",
      "outputs": [],
      "stateMutability": "payable",
      "type": "function"
    },
    {
      "inputs": [
        {
          "internalType": "string",
          "name": "message",
          "type": "string"
        }
      ],
      "name": "newAdvertisement",
      "outputs": [],
      "stateMutability": "payable",
      "type": "function"
    },
    {
      "inputs": [],
      "name": "getAdvertisers",
      "outputs": [
        {
          "internalType": "address[]",
          "name": "",
          "type": "address[]"
        }
      ],
      "stateMutability": "view",
      "type": "function"
    },
    {
      "inputs": [],
      "name": "getUsers",
      "outputs": [
        {
          "internalType": "address[]",
          "name": "",
          "type": "address[]"
        }
      ],
      "stateMutability": "view",
      "type": "function"
    },
    {
      "inputs": [],
      "name": "getTotalUsers",
      "outputs": [
        {
          "internalType": "uint256",
          "name": "",
          "type": "uint256"
        }
      ],
      "stateMutability": "view",
      "type": "function"
    },
    {
      "inputs": [],
      "name": "getPosters",
      "outputs": [
        {
          "internalType": "address[]",
          "name": "",
          "type": "address[]"
        }
      ],
      "stateMutability": "view",
      "type": "function"
    },
    {
      "inputs": [],
      "name": "getTotalPosters",
      "outputs": [
        {
          "internalType": "uint256",
          "name": "",
          "type": "uint256"
        }
      ],
      "stateMutability": "view",
      "type": "function"
    },
    {
      "inputs": [
        {
          "internalType": "uint256",
          "name": "post",
          "type": "uint256"
        },
        {
          "internalType": "address",
          "name": "poster",
          "type": "address"
        },
        {
          "internalType": "address",
          "name": "user",
          "type": "address"
        }
      ],
      "name": "setLike",
      "outputs": [],
      "stateMutability": "payable",
      "type": "function"
    },
    {
      "inputs": [
        {
          "internalType": "uint256",
          "name": "post",
          "type": "uint256"
        },
        {
          "internalType": "address",
          "name": "poster",
          "type": "address"
        },
        {
          "internalType": "address",
          "name": "user",
          "type": "address"
        }
      ],
      "name": "setDislike",
      "outputs": [],
      "stateMutability": "payable",
      "type": "function"
    },
    {
      "inputs": [
        {
          "internalType": "address",
          "name": "user",
          "type": "address"
        },
        {
          "internalType": "address",
          "name": "poster",
          "type": "address"
        }
      ],
      "name": "getLikes",
      "outputs": [
        {
          "internalType": "uint256",
          "name": "",
          "type": "uint256"
        }
      ],
      "stateMutability": "view",
      "type": "function"
    },
    {
      "inputs": [
        {
          "internalType": "address",
          "name": "user",
          "type": "address"
        },
        {
          "internalType": "address",
          "name": "poster",
          "type": "address"
        }
      ],
      "name": "getDislikes",
      "outputs": [
        {
          "internalType": "uint256",
          "name": "",
          "type": "uint256"
        }
      ],
      "stateMutability": "view",
      "type": "function"
    },
    {
      "inputs": [
        {
          "internalType": "address",
          "name": "user",
          "type": "address"
        }
      ],
      "name": "addFollower",
      "outputs": [],
      "stateMutability": "payable",
      "type": "function"
    },
    {
      "inputs": [],
      "name": "getFollowers",
      "outputs": [
        {
          "internalType": "address",
          "name": "",
          "type": "address"
        }
      ],
      "stateMutability": "view",
      "type": "function"
    },
    {
      "inputs": [
        {
          "internalType": "address",
          "name": "user",
          "type": "address"
        }
      ],
      "name": "addFriendRequest",
      "outputs": [],
      "stateMutability": "payable",
      "type": "function"
    },
    {
      "inputs": [],
      "name": "getTotalFriendRequest",
      "outputs": [
        {
          "internalType": "uint256",
          "name": "",
          "type": "uint256"
        }
      ],
      "stateMutability": "view",
      "type": "function"
    },
    {
      "inputs": [],
      "name": "getFriends",
      "outputs": [
        {
          "internalType": "address[]",
          "name": "",
          "type": "address[]"
        }
      ],
      "stateMutability": "view",
      "type": "function"
    },
    {
      "inputs": [],
      "name": "getFriendRequest",
      "outputs": [
        {
          "internalType": "string",
          "name": "",
          "type": "string"
        }
      ],
      "stateMutability": "view",
      "type": "function"
    }
  ],
  "bytecode": "0x60806040526154f3806100136000396000f3fe60806040526004361061025b5760003560e01c8063923ab6d211610144578063b84e6621116100b6578063dd62ed3e1161007a578063dd62ed3e146108b2578063ebf86ee8146108ef578063ec547d801461091a578063f2db450e14610945578063f61aa6f014610982578063ffa1ad741461098c5761025b565b8063b84e6621146107e7578063bf04a10d14610824578063ceeac5d41461084f578063d2ab48731461086b578063dbb36cd2146108875761025b565b8063a632281911610108578063a6322819146106fb578063a9059cbb1461072b578063aae741c414610768578063ad7fea7814610784578063af9bcca4146107a0578063b2bdfa7b146107bc5761025b565b8063923ab6d21461062157806395d89b411461064c57806395fa7373146106775780639be572f6146106935780639e4483f4146106be5761025b565b80633b3a3934116101dd5780635fe226b4116101a15780635fe226b4146104e9578063672c1b05146105145780636f9fb98a1461055157806370a082311461057c578063893d20e8146105b95780638d388245146105e45761025b565b80633b3a3934146104445780633eaaf86b1461046f578063455c928c1461049a57806359b55de4146104a45780635f0e4f7b146104c05761025b565b806318160ddd1161022457806318160ddd146103495780631d45cddc146103745780631f8f7270146103b157806323b872dd146103dc57806330561100146104195761025b565b8062ce8e3e1461026057806306fdde031461028b578063095ea7b3146102b65780630d79f561146102f3578063104409041461031e575b600080fd5b34801561026c57600080fd5b506102756109b7565b60405161028291906144f3565b60405180910390f35b34801561029757600080fd5b506102a0610ad5565b6040516102ad91906145ae565b60405180910390f35b3480156102c257600080fd5b506102dd60048036038101906102d89190614646565b610b63565b6040516102ea91906146a1565b60405180910390f35b3480156102ff57600080fd5b50610308610c9a565b60405161031591906146cb565b60405180910390f35b34801561032a57600080fd5b50610333610d86565b60405161034091906145ae565b60405180910390f35b34801561035557600080fd5b5061035e6110cf565b60405161036b91906146f5565b60405180910390f35b34801561038057600080fd5b5061039b60048036038101906103969190614710565b6110d9565b6040516103a891906145ae565b60405180910390f35b3480156103bd57600080fd5b506103c661124a565b6040516103d391906144f3565b60405180910390f35b3480156103e857600080fd5b5061040360048036038101906103fe919061473d565b6112d8565b60405161041091906146a1565b60405180910390f35b34801561042557600080fd5b5061042e611625565b60405161043b91906145ae565b60405180910390f35b34801561045057600080fd5b506104596118bd565b60405161046691906144f3565b60405180910390f35b34801561047b57600080fd5b5061048461194b565b60405161049191906146f5565b60405180910390f35b6104a2611951565b005b6104be60048036038101906104b99190614790565b611b8d565b005b3480156104cc57600080fd5b506104e760048036038101906104e29190614918565b611d1d565b005b3480156104f557600080fd5b506104fe611e29565b60405161050b91906146f5565b60405180910390f35b34801561052057600080fd5b5061053b60048036038101906105369190614961565b611e73565b60405161054891906145ae565b60405180910390f35b34801561055d57600080fd5b50610566612165565b60405161057391906146f5565b60405180910390f35b34801561058857600080fd5b506105a3600480360381019061059e9190614961565b6121fd565b6040516105b091906146f5565b60405180910390f35b3480156105c557600080fd5b506105ce612246565b6040516105db91906146cb565b60405180910390f35b3480156105f057600080fd5b5061060b6004803603810190610606919061498e565b612270565b60405161061891906146f5565b60405180910390f35b34801561062d57600080fd5b50610636612401565b60405161064391906146f5565b60405180910390f35b34801561065857600080fd5b5061066161250f565b60405161066e91906145ae565b60405180910390f35b610691600480360381019061068c91906149ce565b61259d565b005b34801561069f57600080fd5b506106a8612680565b6040516106b591906146f5565b60405180910390f35b3480156106ca57600080fd5b506106e560048036038101906106e0919061498e565b61268d565b6040516106f291906146f5565b60405180910390f35b61071560048036038101906107109190614918565b61281e565b60405161072291906146f5565b60405180910390f35b34801561073757600080fd5b50610752600480360381019061074d9190614646565b612aad565b60405161075f91906146a1565b60405180910390f35b610782600480360381019061077d9190614aa5565b612d01565b005b61079e60048036038101906107999190614961565b6130e5565b005b6107ba60048036038101906107b59190614790565b613541565b005b3480156107c857600080fd5b506107d16136d1565b6040516107de91906146cb565b60405180910390f35b3480156107f357600080fd5b5061080e60048036038101906108099190614961565b6136f7565b60405161081b91906146f5565b60405180910390f35b34801561083057600080fd5b50610839613743565b60405161084691906145ae565b60405180910390f35b61086960048036038101906108649190614961565b61391c565b005b61088560048036038101906108809190614918565b613ae0565b005b34801561089357600080fd5b5061089c613bba565b6040516108a991906145ae565b60405180910390f35b3480156108be57600080fd5b506108d960048036038101906108d4919061498e565b613daf565b6040516108e691906146f5565b60405180910390f35b3480156108fb57600080fd5b50610904613e43565b60405161091191906146f5565b60405180910390f35b34801561092657600080fd5b5061092f613e50565b60405161093c91906144f3565b60405180910390f35b34801561095157600080fd5b5061096c60048036038101906109679190614646565b613f6e565b60405161097991906145ae565b60405180910390f35b61098a6141d6565b005b34801561099857600080fd5b506109a1614327565b6040516109ae91906145ae565b60405180910390f35b6060600560009054906101000a900473ffffffffffffffffffffffffffffffffffffffff1673ffffffffffffffffffffffffffffffffffffffff163373ffffffffffffffffffffffffffffffffffffffff1614610a49576040517f08c379a0000000000000000000000000000000000000000000000000000000008152600401610a4090614b60565b60405180910390fd5b6013805480602002602001604051908101604052809291908181526020018280548015610acb57602002820191906000526020600020905b8160009054906101000a900473ffffffffffffffffffffffffffffffffffffffff1673ffffffffffffffffffffffffffffffffffffffff1681526020019060010190808311610a81575b5050505050905090565b60008054610ae290614baf565b80601f0160208091040260200160405190810160405280929190818152602001828054610b0e90614baf565b8015610b5b5780601f10610b3057610100808354040283529160200191610b5b565b820191906000526020600020905b815481529060010190602001808311610b3e57829003601f168201915b505050505081565b60008073ffffffffffffffffffffffffffffffffffffffff168373ffffffffffffffffffffffffffffffffffffffff161415610bd4576040517f08c379a0000000000000000000000000000000000000000000000000000000008152600401610bcb90614c2d565b60405180910390fd5b81600460003373ffffffffffffffffffffffffffffffffffffffff1673ffffffffffffffffffffffffffffffffffffffff16815260200190815260200160002060008573ffffffffffffffffffffffffffffffffffffffff1673ffffffffffffffffffffffffffffffffffffffff168152602001908152602001600020819055507f8c5be1e5ebec7d5bd14f71427d1e84f3dd0314c0f7b2291e5b200ac8c7c3b925338484604051610c8893929190614c4d565b60405180910390a16001905092915050565b6000336000600660008373ffffffffffffffffffffffffffffffffffffffff1673ffffffffffffffffffffffffffffffffffffffff168152602001908152602001600020541415610d20576040517f08c379a0000000000000000000000000000000000000000000000000000000008152600401610d1790614cd0565b60405180910390fd5b600f60003373ffffffffffffffffffffffffffffffffffffffff1673ffffffffffffffffffffffffffffffffffffffff16815260200190815260200160002060009054906101000a900473ffffffffffffffffffffffffffffffffffffffff1691505090565b6060600560009054906101000a900473ffffffffffffffffffffffffffffffffffffffff1673ffffffffffffffffffffffffffffffffffffffff163373ffffffffffffffffffffffffffffffffffffffff1614610e18576040517f08c379a0000000000000000000000000000000000000000000000000000000008152600401610e0f90614b60565b60405180910390fd5b60006040518060200160405280600081525090506000600a80549050905060008111156110c75760005b818110156110c5576000600a8281548110610e6057610e5f614cf0565b5b9060005260206000200160009054906101000a900473ffffffffffffffffffffffffffffffffffffffff1690506000600960008373ffffffffffffffffffffffffffffffffffffffff1673ffffffffffffffffffffffffffffffffffffffff16815260200190815260200160002080549050905060008111156110b0578482604051602001610ef0929190614e3b565b604051602081830303815290604052945060005b8181101561108c5785600960008573ffffffffffffffffffffffffffffffffffffffff1673ffffffffffffffffffffffffffffffffffffffff1681526020019081526020016000208281548110610f5e57610f5d614cf0565b5b906000526020600020906003020160010154600960008673ffffffffffffffffffffffffffffffffffffffff1673ffffffffffffffffffffffffffffffffffffffff1681526020019081526020016000208381548110610fc157610fc0614cf0565b5b906000526020600020906003020160000160009054906101000a900473ffffffffffffffffffffffffffffffffffffffff16600960008773ffffffffffffffffffffffffffffffffffffffff1673ffffffffffffffffffffffffffffffffffffffff168152602001908152602001600020848154811061104457611043614cf0565b5b90600052602060002090600302016002016040516020016110689493929190614fc6565b6040516020818303038152906040529550808061108490615051565b915050610f04565b508460405160200161109e91906150e6565b60405160208183030381529060405294505b505080806110bd90615051565b915050610e42565b505b819250505090565b6000600254905090565b6060600760003373ffffffffffffffffffffffffffffffffffffffff1673ffffffffffffffffffffffffffffffffffffffff16815260200190815260200160002080549050821061115f576040517f08c379a000000000000000000000000000000000000000000000000000000000815260040161115690615154565b60405180910390fd5b600760003373ffffffffffffffffffffffffffffffffffffffff1673ffffffffffffffffffffffffffffffffffffffff16815260200190815260200160002082815481106111b0576111af614cf0565b5b9060005260206000200180546111c590614baf565b80601f01602080910402602001604051908101604052809291908181526020018280546111f190614baf565b801561123e5780601f106112135761010080835404028352916020019161123e565b820191906000526020600020905b81548152906001019060200180831161122157829003601f168201915b50505050509050919050565b606060128054806020026020016040519081016040528092919081815260200182805480156112ce57602002820191906000526020600020905b8160009054906101000a900473ffffffffffffffffffffffffffffffffffffffff1673ffffffffffffffffffffffffffffffffffffffff1681526020019060010190808311611284575b5050505050905090565b60008073ffffffffffffffffffffffffffffffffffffffff168473ffffffffffffffffffffffffffffffffffffffff161415611349576040517f08c379a000000000000000000000000000000000000000000000000000000000815260040161134090614c2d565b60405180910390fd5b600073ffffffffffffffffffffffffffffffffffffffff168373ffffffffffffffffffffffffffffffffffffffff1614156113b9576040517f08c379a00000000000000000000000000000000000000000000000000000000081526004016113b0906151c0565b60405180910390fd5b81600e60008673ffffffffffffffffffffffffffffffffffffffff1673ffffffffffffffffffffffffffffffffffffffff1681526020019081526020016000205410158015611484575081600460008673ffffffffffffffffffffffffffffffffffffffff1673ffffffffffffffffffffffffffffffffffffffff16815260200190815260200160002060003373ffffffffffffffffffffffffffffffffffffffff1673ffffffffffffffffffffffffffffffffffffffff1681526020019081526020016000205410155b80156114905750600082115b80156115245750600e60008473ffffffffffffffffffffffffffffffffffffffff1673ffffffffffffffffffffffffffffffffffffffff1681526020019081526020016000205482600e60008673ffffffffffffffffffffffffffffffffffffffff1673ffffffffffffffffffffffffffffffffffffffff1681526020019081526020016000205461152291906151e0565b115b156116195781600e60008673ffffffffffffffffffffffffffffffffffffffff1673ffffffffffffffffffffffffffffffffffffffff16815260200190815260200160002060008282546115789190615236565b9250508190555081600e60008573ffffffffffffffffffffffffffffffffffffffff1673ffffffffffffffffffffffffffffffffffffffff16815260200190815260200160002060008282546115ce91906151e0565b925050819055507fddf252ad1be2c89b69c2b068fc378daa952ba7f163c4a11628f55a4df523b3ef84848460405161160893929190614c4d565b60405180910390a16001905061161e565b600090505b9392505050565b6060600560009054906101000a900473ffffffffffffffffffffffffffffffffffffffff1673ffffffffffffffffffffffffffffffffffffffff163373ffffffffffffffffffffffffffffffffffffffff16146116b7576040517f08c379a00000000000000000000000000000000000000000000000000000000081526004016116ae90614b60565b60405180910390fd5b60006040518060200160405280600081525090506000600880549050905060005b818110156118b4576000600882815481106116f6576116f5614cf0565b5b9060005260206000200160009054906101000a900473ffffffffffffffffffffffffffffffffffffffff1690506000600760008373ffffffffffffffffffffffffffffffffffffffff1673ffffffffffffffffffffffffffffffffffffffff168152602001908152602001600020805480602002602001604051908101604052809291908181526020016000905b828210156118305783829060005260206000200180546117a390614baf565b80601f01602080910402602001604051908101604052809291908181526020018280546117cf90614baf565b801561181c5780601f106117f15761010080835404028352916020019161181c565b820191906000526020600020905b8154815290600101906020018083116117ff57829003601f168201915b505050505081526020019060010190611784565b50505050905060008151111561189f5760005b815181101561189d57858282815181106118605761185f614cf0565b5b602002602001015160405160200161187992919061526a565b6040516020818303038152906040529550808061189590615051565b915050611843565b505b505080806118ac90615051565b9150506116d8565b50819250505090565b6060600880548060200260200160405190810160405280929190818152602001828054801561194157602002820191906000526020600020905b8160009054906101000a900473ffffffffffffffffffffffffffffffffffffffff1673ffffffffffffffffffffffffffffffffffffffff16815260200190600101908083116118f7575b5050505050905090565b60025481565b600073ffffffffffffffffffffffffffffffffffffffff163373ffffffffffffffffffffffffffffffffffffffff1614156119c1576040517f08c379a00000000000000000000000000000000000000000000000000000000081526004016119b8906152da565b60405180910390fd5b6000600660003373ffffffffffffffffffffffffffffffffffffffff1673ffffffffffffffffffffffffffffffffffffffff1681526020019081526020016000205414611a43576040517f08c379a0000000000000000000000000000000000000000000000000000000008152600401611a3a90615346565b60405180910390fd5b6001600660003373ffffffffffffffffffffffffffffffffffffffff1673ffffffffffffffffffffffffffffffffffffffff168152602001908152602001600020819055506013339080600181540180825580915050600190039060005260206000200160009091909190916101000a81548173ffffffffffffffffffffffffffffffffffffffff021916908373ffffffffffffffffffffffffffffffffffffffff1602179055507f19ef9a4877199f89440a26acb26895ec02ed86f2df1aeaa90dc18041b892f71f33604051611b1a91906146cb565b60405180910390a1600560009054906101000a900473ffffffffffffffffffffffffffffffffffffffff1673ffffffffffffffffffffffffffffffffffffffff163373ffffffffffffffffffffffffffffffffffffffff1614611b8b57611b89333066038d7ea4c680006112d8565b505b565b806000600660008373ffffffffffffffffffffffffffffffffffffffff1673ffffffffffffffffffffffffffffffffffffffff168152602001908152602001600020541415611c11576040517f08c379a0000000000000000000000000000000000000000000000000000000008152600401611c0890614cd0565b60405180910390fd5b826000600660008373ffffffffffffffffffffffffffffffffffffffff1673ffffffffffffffffffffffffffffffffffffffff168152602001908152602001600020541415611c95576040517f08c379a0000000000000000000000000000000000000000000000000000000008152600401611c8c90614cd0565b60405180910390fd5b84600b60008573ffffffffffffffffffffffffffffffffffffffff1673ffffffffffffffffffffffffffffffffffffffff16815260200190815260200160002060008673ffffffffffffffffffffffffffffffffffffffff1673ffffffffffffffffffffffffffffffffffffffff168152602001908152602001600020819055505050505050565b600560009054906101000a900473ffffffffffffffffffffffffffffffffffffffff1673ffffffffffffffffffffffffffffffffffffffff163373ffffffffffffffffffffffffffffffffffffffff1614611dad576040517f08c379a0000000000000000000000000000000000000000000000000000000008152600401611da490614b60565b60405180910390fd5b600760003373ffffffffffffffffffffffffffffffffffffffff1673ffffffffffffffffffffffffffffffffffffffff16815260200190815260200160002081908060018154018082558091505060019003906000526020600020016000909190919091509080519060200190611e25929190614360565b5050565b6000600760003373ffffffffffffffffffffffffffffffffffffffff1673ffffffffffffffffffffffffffffffffffffffff16815260200190815260200160002080549050905090565b6060600073ffffffffffffffffffffffffffffffffffffffff163373ffffffffffffffffffffffffffffffffffffffff161415611ee5576040517f08c379a0000000000000000000000000000000000000000000000000000000008152600401611edc906152da565b60405180910390fd5b336000600660008373ffffffffffffffffffffffffffffffffffffffff1673ffffffffffffffffffffffffffffffffffffffff168152602001908152602001600020541415611f69576040517f08c379a0000000000000000000000000000000000000000000000000000000008152600401611f6090614cd0565b60405180910390fd5b60006040518060200160405280600081525090506000600960008673ffffffffffffffffffffffffffffffffffffffff1673ffffffffffffffffffffffffffffffffffffffff168152602001908152602001600020805490509050600081111561215a5760005b818110156121585782600960008873ffffffffffffffffffffffffffffffffffffffff1673ffffffffffffffffffffffffffffffffffffffff168152602001908152602001600020828154811061202a57612029614cf0565b5b906000526020600020906003020160010154600960008973ffffffffffffffffffffffffffffffffffffffff1673ffffffffffffffffffffffffffffffffffffffff168152602001908152602001600020838154811061208d5761208c614cf0565b5b906000526020600020906003020160000160009054906101000a900473ffffffffffffffffffffffffffffffffffffffff16600960008a73ffffffffffffffffffffffffffffffffffffffff1673ffffffffffffffffffffffffffffffffffffffff16815260200190815260200160002084815481106121105761210f614cf0565b5b90600052602060002090600302016002016040516020016121349493929190614fc6565b6040516020818303038152906040529250808061215090615051565b915050611fd0565b505b819350505050919050565b6000600560009054906101000a900473ffffffffffffffffffffffffffffffffffffffff1673ffffffffffffffffffffffffffffffffffffffff163373ffffffffffffffffffffffffffffffffffffffff16146121f7576040517f08c379a00000000000000000000000000000000000000000000000000000000081526004016121ee90614b60565b60405180910390fd5b47905090565b6000600360008373ffffffffffffffffffffffffffffffffffffffff1673ffffffffffffffffffffffffffffffffffffffff168152602001908152602001600020549050919050565b6000600560009054906101000a900473ffffffffffffffffffffffffffffffffffffffff16905090565b6000826000600660008373ffffffffffffffffffffffffffffffffffffffff1673ffffffffffffffffffffffffffffffffffffffff1681526020019081526020016000205414156122f6576040517f08c379a00000000000000000000000000000000000000000000000000000000081526004016122ed90614cd0565b60405180910390fd5b826000600660008373ffffffffffffffffffffffffffffffffffffffff1673ffffffffffffffffffffffffffffffffffffffff16815260200190815260200160002054141561237a576040517f08c379a000000000000000000000000000000000000000000000000000000000815260040161237190614cd0565b60405180910390fd5b600c60008673ffffffffffffffffffffffffffffffffffffffff1673ffffffffffffffffffffffffffffffffffffffff16815260200190815260200160002060008573ffffffffffffffffffffffffffffffffffffffff1673ffffffffffffffffffffffffffffffffffffffff168152602001908152602001600020549250505092915050565b6000806000905060005b60128054905081101561250757601060003373ffffffffffffffffffffffffffffffffffffffff1673ffffffffffffffffffffffffffffffffffffffff16815260200190815260200160002060006012838154811061246d5761246c614cf0565b5b9060005260206000200160009054906101000a900473ffffffffffffffffffffffffffffffffffffffff1673ffffffffffffffffffffffffffffffffffffffff1673ffffffffffffffffffffffffffffffffffffffff16815260200190815260200160002060009054906101000a900460ff16156124f45781806124f090615051565b9250505b80806124ff90615051565b91505061240b565b508091505090565b6001805461251c90614baf565b80601f016020809104026020016040519081016040528092919081815260200182805461254890614baf565b80156125955780601f1061256a57610100808354040283529160200191612595565b820191906000526020600020905b81548152906001019060200180831161257857829003601f168201915b505050505081565b6000604051806080016040528086815260200185815260200184815260200183815250905080600d60003373ffffffffffffffffffffffffffffffffffffffff1673ffffffffffffffffffffffffffffffffffffffff168152602001908152602001600020600082015181600001908051906020019061261e929190614360565b50602082015181600101908051906020019061263b929190614360565b506040820151816002019080519060200190612658929190614360565b506060820151816003019080519060200190612675929190614360565b509050505050505050565b6000601380549050905090565b6000826000600660008373ffffffffffffffffffffffffffffffffffffffff1673ffffffffffffffffffffffffffffffffffffffff168152602001908152602001600020541415612713576040517f08c379a000000000000000000000000000000000000000000000000000000000815260040161270a90614cd0565b60405180910390fd5b826000600660008373ffffffffffffffffffffffffffffffffffffffff1673ffffffffffffffffffffffffffffffffffffffff168152602001908152602001600020541415612797576040517f08c379a000000000000000000000000000000000000000000000000000000000815260040161278e90614cd0565b60405180910390fd5b600b60008673ffffffffffffffffffffffffffffffffffffffff1673ffffffffffffffffffffffffffffffffffffffff16815260200190815260200160002060008573ffffffffffffffffffffffffffffffffffffffff1673ffffffffffffffffffffffffffffffffffffffff168152602001908152602001600020549250505092915050565b60008073ffffffffffffffffffffffffffffffffffffffff163373ffffffffffffffffffffffffffffffffffffffff16141561288f576040517f08c379a0000000000000000000000000000000000000000000000000000000008152600401612886906152da565b60405180910390fd5b600080600880549050111561293b5760005b60088054905081101561293957600073ffffffffffffffffffffffffffffffffffffffff16600882815481106128da576128d9614cf0565b5b9060005260206000200160009054906101000a900473ffffffffffffffffffffffffffffffffffffffff1673ffffffffffffffffffffffffffffffffffffffff16141561292657600191505b808061293190615051565b9150506128a1565b505b806129a4576008339080600181540180825580915050600190039060005260206000200160009091909190916101000a81548173ffffffffffffffffffffffffffffffffffffffff021916908373ffffffffffffffffffffffffffffffffffffffff1602179055505b600760003373ffffffffffffffffffffffffffffffffffffffff1673ffffffffffffffffffffffffffffffffffffffff16815260200190815260200160002083908060018154018082558091505060019003906000526020600020016000909190919091509080519060200190612a1c929190614360565b507f2b1fb2fd5b8cc2287aa381c51b874b098f9670f8debb7864fa74669c5bb89d893384604051612a4e929190615366565b60405180910390a16001600760003373ffffffffffffffffffffffffffffffffffffffff1673ffffffffffffffffffffffffffffffffffffffff16815260200190815260200160002080549050612aa59190615236565b915050919050565b60008073ffffffffffffffffffffffffffffffffffffffff168373ffffffffffffffffffffffffffffffffffffffff161415612b1e576040517f08c379a0000000000000000000000000000000000000000000000000000000008152600401612b15906151c0565b60405180910390fd5b81600e60003373ffffffffffffffffffffffffffffffffffffffff1673ffffffffffffffffffffffffffffffffffffffff1681526020019081526020016000205410158015612b6d5750600082115b8015612c015750600e60008473ffffffffffffffffffffffffffffffffffffffff1673ffffffffffffffffffffffffffffffffffffffff1681526020019081526020016000205482600e60008673ffffffffffffffffffffffffffffffffffffffff1673ffffffffffffffffffffffffffffffffffffffff16815260200190815260200160002054612bff91906151e0565b115b15612cf65781600e60003373ffffffffffffffffffffffffffffffffffffffff1673ffffffffffffffffffffffffffffffffffffffff1681526020019081526020016000206000828254612c559190615236565b9250508190555081600e60008573ffffffffffffffffffffffffffffffffffffffff1673ffffffffffffffffffffffffffffffffffffffff1681526020019081526020016000206000828254612cab91906151e0565b925050819055507fddf252ad1be2c89b69c2b068fc378daa952ba7f163c4a11628f55a4df523b3ef338484604051612ce593929190614c4d565b60405180910390a160019050612cfb565b600090505b92915050565b600073ffffffffffffffffffffffffffffffffffffffff163373ffffffffffffffffffffffffffffffffffffffff161415612d71576040517f08c379a0000000000000000000000000000000000000000000000000000000008152600401612d68906152da565b60405180910390fd5b826000600660008373ffffffffffffffffffffffffffffffffffffffff1673ffffffffffffffffffffffffffffffffffffffff168152602001908152602001600020541415612df5576040517f08c379a0000000000000000000000000000000000000000000000000000000008152600401612dec90614cd0565b60405180910390fd5b336000600660008373ffffffffffffffffffffffffffffffffffffffff1673ffffffffffffffffffffffffffffffffffffffff168152602001908152602001600020541415612e79576040517f08c379a0000000000000000000000000000000000000000000000000000000008152600401612e7090614cd0565b60405180910390fd5b600080600a805490501115612f245760005b600a80549050811015612f22578673ffffffffffffffffffffffffffffffffffffffff16600a8281548110612ec357612ec2614cf0565b5b9060005260206000200160009054906101000a900473ffffffffffffffffffffffffffffffffffffffff1673ffffffffffffffffffffffffffffffffffffffff161415612f0f57600191505b8080612f1a90615051565b915050612e8b565b505b80612f8d57600a869080600181540180825580915050600190039060005260206000200160009091909190916101000a81548173ffffffffffffffffffffffffffffffffffffffff021916908373ffffffffffffffffffffffffffffffffffffffff1602179055505b6000339050600060405180606001604052808373ffffffffffffffffffffffffffffffffffffffff168152602001888152602001878152509050600960008973ffffffffffffffffffffffffffffffffffffffff1673ffffffffffffffffffffffffffffffffffffffff16815260200190815260200160002081908060018154018082558091505060019003906000526020600020906003020160009091909190915060008201518160000160006101000a81548173ffffffffffffffffffffffffffffffffffffffff021916908373ffffffffffffffffffffffffffffffffffffffff16021790555060208201518160010155604082015181600201908051906020019061309d929190614360565b5050507fb82fdd4f7f620f390f63d82d9dbd41fe893abb4fdc05d0b97f164463c896b5f53389886040516130d393929190615396565b60405180910390a15050505050505050565b336000600660008373ffffffffffffffffffffffffffffffffffffffff1673ffffffffffffffffffffffffffffffffffffffff168152602001908152602001600020541415613169576040517f08c379a000000000000000000000000000000000000000000000000000000000815260040161316090614cd0565b60405180910390fd5b816000600660008373ffffffffffffffffffffffffffffffffffffffff1673ffffffffffffffffffffffffffffffffffffffff1681526020019081526020016000205414156131ed576040517f08c379a00000000000000000000000000000000000000000000000000000000081526004016131e490614cd0565b60405180910390fd5b60008060005b601280549050811015613302578573ffffffffffffffffffffffffffffffffffffffff166012828154811061322b5761322a614cf0565b5b9060005260206000200160009054906101000a900473ffffffffffffffffffffffffffffffffffffffff1673ffffffffffffffffffffffffffffffffffffffff16141561327757600192505b3373ffffffffffffffffffffffffffffffffffffffff1660126001815481106132a3576132a2614cf0565b5b9060005260206000200160009054906101000a900473ffffffffffffffffffffffffffffffffffffffff1673ffffffffffffffffffffffffffffffffffffffff1614156132ef57600191505b80806132fa90615051565b9150506131f3565b50811561336d576012859080600181540180825580915050600190039060005260206000200160009091909190916101000a81548173ffffffffffffffffffffffffffffffffffffffff021916908373ffffffffffffffffffffffffffffffffffffffff1602179055505b80156133d7576012339080600181540180825580915050600190039060005260206000200160009091909190916101000a81548173ffffffffffffffffffffffffffffffffffffffff021916908373ffffffffffffffffffffffffffffffffffffffff1602179055505b6001601060008773ffffffffffffffffffffffffffffffffffffffff1673ffffffffffffffffffffffffffffffffffffffff16815260200190815260200160002060003373ffffffffffffffffffffffffffffffffffffffff1673ffffffffffffffffffffffffffffffffffffffff16815260200190815260200160002060006101000a81548160ff0219169083151502179055506001601060003373ffffffffffffffffffffffffffffffffffffffff1673ffffffffffffffffffffffffffffffffffffffff16815260200190815260200160002060008773ffffffffffffffffffffffffffffffffffffffff1673ffffffffffffffffffffffffffffffffffffffff16815260200190815260200160002060006101000a81548160ff0219169083151502179055507f5bf2433344d289f53021dcde4dde6ab1e6e36f18073a6723a697891251b2405833866040516135329291906153d4565b60405180910390a15050505050565b806000600660008373ffffffffffffffffffffffffffffffffffffffff1673ffffffffffffffffffffffffffffffffffffffff1681526020019081526020016000205414156135c5576040517f08c379a00000000000000000000000000000000000000000000000000000000081526004016135bc90614cd0565b60405180910390fd5b826000600660008373ffffffffffffffffffffffffffffffffffffffff1673ffffffffffffffffffffffffffffffffffffffff168152602001908152602001600020541415613649576040517f08c379a000000000000000000000000000000000000000000000000000000000815260040161364090614cd0565b60405180910390fd5b84600c60008573ffffffffffffffffffffffffffffffffffffffff1673ffffffffffffffffffffffffffffffffffffffff16815260200190815260200160002060008673ffffffffffffffffffffffffffffffffffffffff1673ffffffffffffffffffffffffffffffffffffffff168152602001908152602001600020819055505050505050565b600560009054906101000a900473ffffffffffffffffffffffffffffffffffffffff1681565b6000600960008373ffffffffffffffffffffffffffffffffffffffff1673ffffffffffffffffffffffffffffffffffffffff168152602001908152602001600020805490509050919050565b6060600560009054906101000a900473ffffffffffffffffffffffffffffffffffffffff1673ffffffffffffffffffffffffffffffffffffffff163373ffffffffffffffffffffffffffffffffffffffff1614156137d8576040518060400160405280600581526020017f6f776e65720000000000000000000000000000000000000000000000000000008152509050613919565b6000600660003373ffffffffffffffffffffffffffffffffffffffff1673ffffffffffffffffffffffffffffffffffffffff168152602001908152602001600020541461385c576040518060400160405280600481526020017f75736572000000000000000000000000000000000000000000000000000000008152509050613919565b6000601460003373ffffffffffffffffffffffffffffffffffffffff1673ffffffffffffffffffffffffffffffffffffffff16815260200190815260200160002054146138e0576040518060400160405280600a81526020017f61647665727469736572000000000000000000000000000000000000000000008152509050613919565b6040518060400160405280600781526020017f756e6b6e6f776e0000000000000000000000000000000000000000000000000081525090505b90565b336000600660008373ffffffffffffffffffffffffffffffffffffffff1673ffffffffffffffffffffffffffffffffffffffff1681526020019081526020016000205414156139a0576040517f08c379a000000000000000000000000000000000000000000000000000000000815260040161399790614cd0565b60405180910390fd5b816000600660008373ffffffffffffffffffffffffffffffffffffffff1673ffffffffffffffffffffffffffffffffffffffff168152602001908152602001600020541415613a24576040517f08c379a0000000000000000000000000000000000000000000000000000000008152600401613a1b90614cd0565b60405180910390fd5b82600f60003373ffffffffffffffffffffffffffffffffffffffff1673ffffffffffffffffffffffffffffffffffffffff16815260200190815260200160002060006101000a81548173ffffffffffffffffffffffffffffffffffffffff021916908373ffffffffffffffffffffffffffffffffffffffff1602179055507fd121cae9a793821ccd32032194305278780253c9a60cf99d6411f54becc98f2d3384604051613ad39291906153d4565b60405180910390a1505050565b6000601460003373ffffffffffffffffffffffffffffffffffffffff1673ffffffffffffffffffffffffffffffffffffffff168152602001908152602001600020541415613b63576040517f08c379a0000000000000000000000000000000000000000000000000000000008152600401613b5a90615449565b60405180910390fd5b80601660003373ffffffffffffffffffffffffffffffffffffffff1673ffffffffffffffffffffffffffffffffffffffff1681526020019081526020016000209080519060200190613bb6929190614360565b5050565b6060336000600660008373ffffffffffffffffffffffffffffffffffffffff1673ffffffffffffffffffffffffffffffffffffffff168152602001908152602001600020541415613c40576040517f08c379a0000000000000000000000000000000000000000000000000000000008152600401613c3790614cd0565b60405180910390fd5b600060405180602001604052806000815250905060005b601280549050811015613da657601060003373ffffffffffffffffffffffffffffffffffffffff1673ffffffffffffffffffffffffffffffffffffffff168152602001908152602001600020600060128381548110613cb957613cb8614cf0565b5b9060005260206000200160009054906101000a900473ffffffffffffffffffffffffffffffffffffffff1673ffffffffffffffffffffffffffffffffffffffff1673ffffffffffffffffffffffffffffffffffffffff16815260200190815260200160002060009054906101000a900460ff1615613d93576012600181548110613d4657613d45614cf0565b5b9060005260206000200160009054906101000a900473ffffffffffffffffffffffffffffffffffffffff16604051602001613d819190615469565b60405160208183030381529060405291505b8080613d9e90615051565b915050613c57565b50809250505090565b6000600460008473ffffffffffffffffffffffffffffffffffffffff1673ffffffffffffffffffffffffffffffffffffffff16815260200190815260200160002060008373ffffffffffffffffffffffffffffffffffffffff1673ffffffffffffffffffffffffffffffffffffffff16815260200190815260200160002054600254613e3b9190615236565b905092915050565b6000600880549050905090565b6060600560009054906101000a900473ffffffffffffffffffffffffffffffffffffffff1673ffffffffffffffffffffffffffffffffffffffff163373ffffffffffffffffffffffffffffffffffffffff1614613ee2576040517f08c379a0000000000000000000000000000000000000000000000000000000008152600401613ed990614b60565b60405180910390fd5b6015805480602002602001604051908101604052809291908181526020018280548015613f6457602002820191906000526020600020905b8160009054906101000a900473ffffffffffffffffffffffffffffffffffffffff1673ffffffffffffffffffffffffffffffffffffffff1681526020019060010190808311613f1a575b5050505050905090565b6060600073ffffffffffffffffffffffffffffffffffffffff163373ffffffffffffffffffffffffffffffffffffffff161415613fe0576040517f08c379a0000000000000000000000000000000000000000000000000000000008152600401613fd7906152da565b60405180910390fd5b336000600660008373ffffffffffffffffffffffffffffffffffffffff1673ffffffffffffffffffffffffffffffffffffffff168152602001908152602001600020541415614064576040517f08c379a000000000000000000000000000000000000000000000000000000000815260040161405b90614cd0565b60405180910390fd5b600960008573ffffffffffffffffffffffffffffffffffffffff1673ffffffffffffffffffffffffffffffffffffffff16815260200190815260200160002083815481106140b5576140b4614cf0565b5b906000526020600020906003020160010154600960008673ffffffffffffffffffffffffffffffffffffffff1673ffffffffffffffffffffffffffffffffffffffff168152602001908152602001600020848154811061411857614117614cf0565b5b906000526020600020906003020160000160009054906101000a900473ffffffffffffffffffffffffffffffffffffffff16600960008773ffffffffffffffffffffffffffffffffffffffff1673ffffffffffffffffffffffffffffffffffffffff168152602001908152602001600020858154811061419b5761419a614cf0565b5b90600052602060002090600302016002016040516020016141be93929190615484565b60405160208183030381529060405291505092915050565b600073ffffffffffffffffffffffffffffffffffffffff163373ffffffffffffffffffffffffffffffffffffffff161415614246576040517f08c379a000000000000000000000000000000000000000000000000000000000815260040161423d906152da565b60405180910390fd5b6001601460003373ffffffffffffffffffffffffffffffffffffffff1673ffffffffffffffffffffffffffffffffffffffff168152602001908152602001600020819055506015339080600181540180825580915050600190039060005260206000200160009091909190916101000a81548173ffffffffffffffffffffffffffffffffffffffff021916908373ffffffffffffffffffffffffffffffffffffffff1602179055507fdfaa8638b087deecf1b1ef43c6d6aa13dafc1d3374bb0e305ac4140f27f4c88f3360405161431d91906146cb565b60405180910390a1565b6040518060400160405280600581526020017f312e302e3500000000000000000000000000000000000000000000000000000081525081565b82805461436c90614baf565b90600052602060002090601f01602090048101928261438e57600085556143d5565b82601f106143a757805160ff19168380011785556143d5565b828001600101855582156143d5579182015b828111156143d45782518255916020019190600101906143b9565b5b5090506143e291906143e6565b5090565b5b808211156143ff5760008160009055506001016143e7565b5090565b600081519050919050565b600082825260208201905092915050565b6000819050602082019050919050565b600073ffffffffffffffffffffffffffffffffffffffff82169050919050565b600061445a8261442f565b9050919050565b61446a8161444f565b82525050565b600061447c8383614461565b60208301905092915050565b6000602082019050919050565b60006144a082614403565b6144aa818561440e565b93506144b58361441f565b8060005b838110156144e65781516144cd8882614470565b97506144d883614488565b9250506001810190506144b9565b5085935050505092915050565b6000602082019050818103600083015261450d8184614495565b905092915050565b600081519050919050565b600082825260208201905092915050565b60005b8381101561454f578082015181840152602081019050614534565b8381111561455e576000848401525b50505050565b6000601f19601f8301169050919050565b600061458082614515565b61458a8185614520565b935061459a818560208601614531565b6145a381614564565b840191505092915050565b600060208201905081810360008301526145c88184614575565b905092915050565b6000604051905090565b600080fd5b600080fd5b6145ed8161444f565b81146145f857600080fd5b50565b60008135905061460a816145e4565b92915050565b6000819050919050565b61462381614610565b811461462e57600080fd5b50565b6000813590506146408161461a565b92915050565b6000806040838503121561465d5761465c6145da565b5b600061466b858286016145fb565b925050602061467c85828601614631565b9150509250929050565b60008115159050919050565b61469b81614686565b82525050565b60006020820190506146b66000830184614692565b92915050565b6146c58161444f565b82525050565b60006020820190506146e060008301846146bc565b92915050565b6146ef81614610565b82525050565b600060208201905061470a60008301846146e6565b92915050565b600060208284031215614726576147256145da565b5b600061473484828501614631565b91505092915050565b600080600060608486031215614756576147556145da565b5b6000614764868287016145fb565b9350506020614775868287016145fb565b925050604061478686828701614631565b9150509250925092565b6000806000606084860312156147a9576147a86145da565b5b60006147b786828701614631565b93505060206147c8868287016145fb565b92505060406147d9868287016145fb565b9150509250925092565b600080fd5b600080fd5b7f4e487b7100000000000000000000000000000000000000000000000000000000600052604160045260246000fd5b61482582614564565b810181811067ffffffffffffffff82111715614844576148436147ed565b5b80604052505050565b60006148576145d0565b9050614863828261481c565b919050565b600067ffffffffffffffff821115614883576148826147ed565b5b61488c82614564565b9050602081019050919050565b82818337600083830152505050565b60006148bb6148b684614868565b61484d565b9050828152602081018484840111156148d7576148d66147e8565b5b6148e2848285614899565b509392505050565b600082601f8301126148ff576148fe6147e3565b5b813561490f8482602086016148a8565b91505092915050565b60006020828403121561492e5761492d6145da565b5b600082013567ffffffffffffffff81111561494c5761494b6145df565b5b614958848285016148ea565b91505092915050565b600060208284031215614977576149766145da565b5b6000614985848285016145fb565b91505092915050565b600080604083850312156149a5576149a46145da565b5b60006149b3858286016145fb565b92505060206149c4858286016145fb565b9150509250929050565b600080600080608085870312156149e8576149e76145da565b5b600085013567ffffffffffffffff811115614a0657614a056145df565b5b614a12878288016148ea565b945050602085013567ffffffffffffffff811115614a3357614a326145df565b5b614a3f878288016148ea565b935050604085013567ffffffffffffffff811115614a6057614a5f6145df565b5b614a6c878288016148ea565b925050606085013567ffffffffffffffff811115614a8d57614a8c6145df565b5b614a99878288016148ea565b91505092959194509250565b600080600060608486031215614abe57614abd6145da565b5b6000614acc868287016145fb565b9350506020614add86828701614631565b925050604084013567ffffffffffffffff811115614afe57614afd6145df565b5b614b0a868287016148ea565b9150509250925092565b7f6163636573732064656e69656420666f72206f776e6572000000000000000000600082015250565b6000614b4a601783614520565b9150614b5582614b14565b602082019050919050565b60006020820190508181036000830152614b7981614b3d565b9050919050565b7f4e487b7100000000000000000000000000000000000000000000000000000000600052602260045260246000fd5b60006002820490506001821680614bc757607f821691505b60208210811415614bdb57614bda614b80565b5b50919050565b7f6d697373696e672073656e646572206164647265737300000000000000000000600082015250565b6000614c17601683614520565b9150614c2282614be1565b602082019050919050565b60006020820190508181036000830152614c4681614c0a565b9050919050565b6000606082019050614c6260008301866146bc565b614c6f60208301856146bc565b614c7c60408301846146e6565b949350505050565b7f7573657220646f6573206e6f7420657869737400000000000000000000000000600082015250565b6000614cba601383614520565b9150614cc582614c84565b602082019050919050565b60006020820190508181036000830152614ce981614cad565b9050919050565b7f4e487b7100000000000000000000000000000000000000000000000000000000600052603260045260246000fd5b600081905092915050565b6000614d3582614515565b614d3f8185614d1f565b9350614d4f818560208601614531565b80840191505092915050565b7f7b00000000000000000000000000000000000000000000000000000000000000600082015250565b6000614d91600183614d1f565b9150614d9c82614d5b565b600182019050919050565b60008160601b9050919050565b6000614dbf82614da7565b9050919050565b6000614dd182614db4565b9050919050565b614de9614de48261444f565b614dc6565b82525050565b7f3a00000000000000000000000000000000000000000000000000000000000000600082015250565b6000614e25600183614d1f565b9150614e3082614def565b600182019050919050565b6000614e478285614d2a565b9150614e5282614d84565b9150614e5e8284614dd8565b601482019150614e6d82614e18565b91508190509392505050565b7f5b00000000000000000000000000000000000000000000000000000000000000600082015250565b6000614eaf600183614d1f565b9150614eba82614e79565b600182019050919050565b6000819050919050565b614ee0614edb82614610565b614ec5565b82525050565b60008190508160005260206000209050919050565b60008154614f0881614baf565b614f128186614d1f565b94506001821660008114614f2d5760018114614f3e57614f71565b60ff19831686528186019350614f71565b614f4785614ee6565b60005b83811015614f6957815481890152600182019150602081019050614f4a565b838801955050505b50505092915050565b7f5d00000000000000000000000000000000000000000000000000000000000000600082015250565b6000614fb0600183614d1f565b9150614fbb82614f7a565b600182019050919050565b6000614fd28287614d2a565b9150614fdd82614ea2565b9150614fe98286614ecf565b602082019150614ff98285614dd8565b6014820191506150098284614efb565b915061501482614fa3565b915081905095945050505050565b7f4e487b7100000000000000000000000000000000000000000000000000000000600052601160045260246000fd5b600061505c82614610565b91507fffffffffffffffffffffffffffffffffffffffffffffffffffffffffffffffff82141561508f5761508e615022565b5b600182019050919050565b7f7d00000000000000000000000000000000000000000000000000000000000000600082015250565b60006150d0600183614d1f565b91506150db8261509a565b600182019050919050565b60006150f28284614d2a565b91506150fd826150c3565b915081905092915050565b7f706f737420646f6573206e6f7420657869737473000000000000000000000000600082015250565b600061513e601483614520565b915061514982615108565b602082019050919050565b6000602082019050818103600083015261516d81615131565b9050919050565b7f6d697373696e6720726563697069656e74206164647265737300000000000000600082015250565b60006151aa601983614520565b91506151b582615174565b602082019050919050565b600060208201905081810360008301526151d98161519d565b9050919050565b60006151eb82614610565b91506151f683614610565b9250827fffffffffffffffffffffffffffffffffffffffffffffffffffffffffffffffff0382111561522b5761522a615022565b5b828201905092915050565b600061524182614610565b915061524c83614610565b92508282101561525f5761525e615022565b5b828203905092915050565b60006152768285614d2a565b91506152828284614d2a565b91508190509392505050565b7f6d697373696e6720616464726573730000000000000000000000000000000000600082015250565b60006152c4600f83614520565b91506152cf8261528e565b602082019050919050565b600060208201905081810360008301526152f3816152b7565b9050919050565b7f7573657220616c72656164792065786973747300000000000000000000000000600082015250565b6000615330601383614520565b915061533b826152fa565b602082019050919050565b6000602082019050818103600083015261535f81615323565b9050919050565b600060408201905061537b60008301856146bc565b818103602083015261538d8184614575565b90509392505050565b60006060820190506153ab60008301866146bc565b6153b860208301856146bc565b81810360408301526153ca8184614575565b9050949350505050565b60006040820190506153e960008301856146bc565b6153f660208301846146bc565b9392505050565b7f6e6f7420616e2061647665727469736572000000000000000000000000000000600082015250565b6000615433601183614520565b915061543e826153fd565b602082019050919050565b6000602082019050818103600083015261546281615426565b9050919050565b60006154758284614dd8565b60148201915081905092915050565b60006154908286614ecf565b6020820191506154a08285614dd8565b6014820191506154b08284614efb565b915081905094935050505056fea2646970667358221220f074290c96df9de161e4a1ac6224cdb7c62794bac5ab23b699bd4ede2b017c8564736f6c634300080a0033",
  "immutableReferences": {},
  "source": "// SPDX-License-Identifier: CC-BY-4.0\npragma solidity >=0.4.22 <0.9.0;\n\nimport \"../Version.sol\";\n\ncontract SocialNetwork is Version {\n\n    string public name;\n    string public symbol;\n    uint256 public _totalSupply;\n\n    mapping(address => uint256) private _balances;\n    mapping(address => mapping (address => uint256)) allowed;\n\n    bytes32 constant private ZERO_BYTES = bytes32(0);\n    address constant private ZERO_ADDRESS = address(0);\n\n    address public _owner;\n    bool private initialized;\n\n    struct Comment {\n        address comment_author;\n        uint256 post_index;\n        string  message;\n    }\n\n    struct UserMeta {\n        string profession;\n        string location;\n        string dob;\n        string interests;\n    }\n\n    struct LikesDislikes {\n        uint256 post;\n        address poster;\n        address user;\n    }\n\n    mapping (address => uint256) private users;\n    mapping (address => string[]) private posts;\n    address[] private _posters;\n    mapping (address => Comment[]) private comments;\n    address[] private comment_keys;\n    mapping (address => mapping(address => uint256)) private likes;\n    mapping (address => mapping(address => uint256)) private dislikes;\n    mapping (address => UserMeta) private user_meta;\n    mapping (address => uint256) private balances;\n    mapping (address => address) private followers;\n    mapping (address => mapping(address => bool)) private friend_request;\n    mapping (address => address) private friends;\n\n    address[] private _friends;\n\n    address[] private _users;\n\n\n    // advertisers\n    mapping (address => uint256) private advertisers;\n    address[] private _advertisers;\n    mapping (address => string) private advertisements;\n\n    //uint256 public totalSupply = 0;\n    mapping(uint256 => address) internal tokens;\n    event Mint(address indexed _to, uint256 indexed _tokenId, bytes32 _ipfsHash);\n\n    event Transfer(address sender,address recipient,uint256 amount);\n    event Approval(address sender,address spender,uint256 amount);\n\n    event CommentAdded(address sender,address user,string comment);\n    event AdvertiserAdded(address sender);\n    event UserAdded(address sender);\n    event PostAdded(address sender, string message);\n    event FollowerAdded(address sender, address follower);\n    event FriendRequestAdded(address sender, address user);\n\n  constructor()\n    payable\n  {\n  }\n    modifier onlyOwner() {\n        require(msg.sender == _owner, \"access denied for owner\");\n        _;\n    }\n\n    modifier addressValid() {\n        require(msg.sender != address(0), \"missing address\");\n        _;\n    }\n\n    modifier userNotExist() {\n        require(users[msg.sender] == 0, \"user exists\");\n        _;\n    }\n\n    modifier isUser(address user) {\n        require(users[user] != 0,\"user does not exist\");\n        _;\n    }\n\n    modifier notUser(address user) {\n        require(users[user] == 0,\"user already exists\");\n        _;\n    }\n\n    modifier isAdvertiser() {\n        require(advertisers[msg.sender] != 0, \"not an advertiser\");\n        _;\n    }\n\n    modifier notAdvertiser() {\n        require(advertisers[msg.sender] == 0, \"is an advertiser\");\n        _;\n    }\n\n    function getContractBalance()\n        public\n        view\n        onlyOwner\n        returns (uint256)\n    {\n        return address(this).balance;\n    }\n\n    function getOwner()\n        public\n        view\n        returns (address)\n    {\n        return _owner;\n    }\n\n    function getUserRole()\n        public\n        view\n        returns (string memory)\n    {\n        if (msg.sender == _owner) {\n        return string(\"owner\");\n        } else if (users[msg.sender] != 0) {\n        return string(\"user\");\n        } else if (advertisers[msg.sender] != 0) {\n        return string(\"advertiser\");\n        }\n        return string(\"unknown\");\n    }\n\n    function totalSupply()\n        public\n        view\n        returns (uint256)\n    {\n        return _totalSupply;\n    }\n\n    function balanceOf(address account)\n        public\n        view\n        returns (uint256)\n    {\n        return _balances[account];\n    }\n    function allowance(address owner, address spender)\n        public\n        view\n        returns (uint256)\n    {\n        return  (_totalSupply - allowed[owner][spender]);\n    }\n\n    function transfer(address recipient, uint256 amount)\n        public\n        returns (bool)\n    {\n        require(recipient != ZERO_ADDRESS, \"missing recipient address\");\n        if (balances[msg.sender] >= amount && amount > 0 && balances[recipient] + amount > balances[recipient]) {\n        balances[msg.sender] -= amount;\n        balances[recipient] += amount;\n        emit Transfer(msg.sender, recipient, amount); // trigger event\n        return true;\n        } else {\n        return false;\n        }\n    }\n    function approve(address spender, uint256 amount)\n        public\n        returns (bool)\n    {\n        require(spender != ZERO_ADDRESS, \"missing sender address\");\n        allowed[msg.sender][spender] = amount;\n        emit Approval(msg.sender, spender, amount);\n        return true;\n    }\n    function transferFrom(address sender, address recipient, uint256 amount)\n        public\n        returns (bool)\n    {\n        require(sender != ZERO_ADDRESS, \"missing sender address\");\n        require(recipient != ZERO_ADDRESS, \"missing recipient address\");\n\n        if (balances[sender] >= amount && allowed[sender][msg.sender] >= amount && amount > 0 &&\n        balances[recipient] + amount > balances[recipient]) {\n            balances[sender] -= amount;\n            balances[recipient] += amount;\n            emit Transfer(sender, recipient, amount);\n            return true;\n        } else {\n            return false;\n        }\n    }\n\n    function addUser()\n        public\n        payable\n        addressValid\n    {\n        require(users[msg.sender] == 0,\"user already exists\");\n        users[msg.sender] = 1;\n        _users.push(msg.sender);\n        emit UserAdded(msg.sender);\n        if (msg.sender != _owner) {\n            transferFrom(msg.sender, address(this),  0.001 ether);\n        }\n    }\n\n    function addPostByOwner(string memory message)\n        public\n        onlyOwner\n    {\n        posts[msg.sender].push(message);\n    }\n\n    function addPost(string memory message)\n        public\n        payable\n        addressValid\n        returns (uint256)\n    {\n        bool found = false;\n        if (_posters.length > 0) {\n            for (uint i = 0; i < _posters.length; i++) {\n                if (_posters[i] == ZERO_ADDRESS) {\n                    found = true;\n                }\n            }\n        }\n        if (!found) {\n            _posters.push(msg.sender);\n        }\n        posts[msg.sender].push(message);\n        emit PostAdded(msg.sender, message);\n        return posts[msg.sender].length - 1;\n    }\n\n    function getTotalPosts()\n        public\n        view\n        returns (uint256)\n    {\n        return posts[msg.sender].length;\n    }\n    \n    function getPosts(uint256 index)\n        public\n        view\n        returns (string memory)\n    {\n        require(index < posts[msg.sender].length,\"post does not exists\");\n        return posts[msg.sender][index];\n    }\n    \n\n    function getAllPosts()\n        public\n        view\n        onlyOwner\n        returns (string memory)\n    {\n        string memory output = \"\";\n        uint256 total = _posters.length;\n        for (uint i = 0; i < total; i++) {\n            address key = _posters[i];\n            string[] memory post = posts[key];\n            if (post.length > 0) {\n                for (uint l = 0; l < post.length; l++) {\n                    output = string(abi.encodePacked(output, post[l]));\n                }\n            }\n        }\n        return output;\n    }\n\n    function addComment(address poster, uint index, string memory message)\n        public\n        payable\n        addressValid\n        isUser(poster)\n        isUser(msg.sender)\n    {\n        bool found = false;\n        if (comment_keys.length > 0) {\n            for (uint i = 0; i < comment_keys.length; i++) {\n                if (comment_keys[i] == poster) {\n                found = true;\n                }\n            }\n        }\n        if (!found) {\n            comment_keys.push(poster);\n        }\n        address comment_author = msg.sender;\n        Comment memory comment = Comment(comment_author, index, message);\n        comments[poster].push(comment);\n        emit CommentAdded(msg.sender,poster,message);\n    }\n\n    function getCommentTotal(address poster)\n        public\n        view\n        returns (uint256)\n    {\n        return comments[poster].length;\n    }\n\n    function getComment(address poster, uint256 index)\n        public\n        view\n        addressValid\n        isUser(msg.sender)\n        returns (string memory)\n    {\n        return string(abi.encodePacked(comments[poster][index].post_index,comments[poster][index].comment_author,comments[poster][index].message));\n    }\n\n    function getCommentsForPoster(address poster)\n        public\n        view\n        addressValid\n        isUser(msg.sender)\n        returns (string memory)\n    {\n        string memory output = \"\";\n        uint count = comments[poster].length;\n        if (count > 0) {\n            for(uint i = 0; i < count; i++) {\n                output = string(abi.encodePacked(output, \"[\", comments[poster][i].post_index,comments[poster][i].comment_author,comments[poster][i].message, \"]\"));\n            }\n        }\n        return output;\n    }\n\n    function getAllComments()\n        public\n        view\n        onlyOwner\n        returns (string memory)\n    {\n        string memory output = \"\";\n        uint total = comment_keys.length;\n        if (total > 0) {\n        for (uint i = 0; i < total; i++) {\n            address poster = comment_keys[i];\n            uint count = comments[poster].length;\n            if (count > 0) {\n            output = string(abi.encodePacked(output, \"{\", poster, \":\"));\n            for (uint j = 0; j < count; j++) {\n                output = string(abi.encodePacked(output, \"[\", comments[poster][j].post_index,comments[poster][j].comment_author,comments[poster][j].message, \"]\"));\n            }\n            output = string(abi.encodePacked(output,\"}\"));\n            }\n        }\n        }\n        return output;\n    }\n\n    /**\n    * interests is comma dellimited string, e.g. \"girls,technology,stage plays\"\n    */\n    function updateUserMeta(string memory profession, string memory location, string memory dob, string memory interests)\n        public\n        payable\n    {\n        UserMeta memory meta = UserMeta(profession, location, dob, interests);\n        user_meta[msg.sender] = meta;\n    }\n\n    // Add a new advertiser\n    function addAdvertiser()\n        public\n        payable\n        addressValid\n    {\n        advertisers[msg.sender] = 1;\n        _advertisers.push(msg.sender);\n        emit AdvertiserAdded(msg.sender);\n    }\n\n    function newAdvertisement(string memory message)\n        public\n        payable\n        isAdvertiser\n    {\n        advertisements[msg.sender] = message;\n    }\n\n    function getAdvertisers()\n        public\n        view\n        onlyOwner\n        returns (address[] memory)\n    {\n        return _advertisers;\n    }\n\n    function getUsers()\n        public\n        view\n        onlyOwner\n        returns (address[] memory)\n    {\n        return _users;\n    }\n\n    function getTotalUsers()\n        public\n        view\n        returns (uint256)\n    {\n        return _users.length;\n    }\n\n    function getPosters()\n        public\n        view\n        returns (address[] memory)\n    {\n        return _posters;\n    }\n\n    function getTotalPosters()\n        public\n        view\n        returns (uint256)\n    {\n        return _posters.length;\n    }\n\n\n    /**\n    * a post may contain many likes, one -> many\n    * one like per user per post\n    */\n    function setLike(uint256 post, address poster, address user)\n        public\n        payable\n        isUser(user)\n        isUser(poster)\n    {\n        likes[user][poster] = post;\n    }\n\n    function setDislike(uint256 post, address poster, address user)\n        public\n        payable\n        isUser(user)\n        isUser(poster)\n    {\n        dislikes[user][poster] = post;\n    }\n\n    function getLikes(address user, address poster)\n        public\n        view\n        isUser(user)\n        isUser(poster)\n        returns (uint256)\n    {\n        return likes[user][poster];\n    }\n\n    function getDislikes(address user, address poster)\n        public\n        view\n        isUser(user)\n        isUser(poster)\n        returns (uint256)\n    {\n        return dislikes[user][poster];\n    }\n\n    /**\n     * Followers\n     */\n    function addFollower(address user)\n        public\n        payable\n        isUser(msg.sender)\n        isUser(user)\n    {\n        followers[msg.sender] = user;\n        emit FollowerAdded(msg.sender, user);\n    }\n\n    function getFollowers()\n        public\n        view\n        isUser(msg.sender)\n        returns (address)\n    {\n        return followers[msg.sender];\n    }\n\n    // Friend Request\n    function addFriendRequest(address user)\n        public\n        payable\n        isUser(msg.sender)\n        isUser(user)\n    {\n        bool found1 = false;\n        bool found2 = false;\n        for (uint i = 0; i < _friends.length; i++) {\n            if (_friends[i] == user) {\n                found1 = true;\n            }\n            if (_friends[1] == msg.sender) {\n                found2 = true;\n            }\n        }\n        if (found1) {\n            _friends.push(user);\n        }\n        if (found2) {\n            _friends.push(msg.sender);\n        }\n        friend_request[user][msg.sender] = true;\n        friend_request[msg.sender][user] = true;\n        emit FriendRequestAdded(msg.sender,user);\n    }\n\n    function getTotalFriendRequest()\n        public\n        view\n        returns (uint256)\n    {\n        uint total = 0;\n        for (uint i = 0; i < _friends.length; i++) {\n            if (friend_request[msg.sender][_friends[i]]) {\n                total++;\n            }\n        }\n        return total;\n    }\n\n    function getFriends()\n        public\n        view\n        returns (address[] memory)\n    {\n        return _friends;\n    }\n\n    function getFriendRequest()\n        public\n        view\n        isUser(msg.sender)\n        returns (string memory)\n    {\n        string memory output = \"\";\n        for (uint i = 0; i < _friends.length; i++) {\n            if (friend_request[msg.sender][_friends[i]]) {\n                output = string(abi.encodePacked(_friends[1]));\n            }\n        }\n        return output;\n    }\n}\n",
  "sourcePath": "G:\\projects\\pingleware-contracts\\contracts\\social\\SocialNetwork.sol",
  "compiler": {
    "name": "solc",
    "version": "0.8.10+commit.fc410830.Emscripten.clang"
  },
  "schemaVersion": "3.4.3",
  "updatedAt": "2021-12-21T07:37:08.280Z",
  "devdoc": {
    "kind": "dev",
    "methods": {},
    "version": 1
  },
  "userdoc": {
    "kind": "user",
    "methods": {
      "addFollower(address)": {
        "notice": "Followers"
      },
      "setLike(uint256,address,address)": {
        "notice": "a post may contain many likes, one -> many one like per user per post"
      },
      "updateUserMeta(string,string,string,string)": {
        "notice": "interests is comma dellimited string, e.g. \"girls,technology,stage plays\""
      }
    },
    "version": 1
  }
}