{
  "contractName": "SocialNetwork",
  "abi": [
    {
      "inputs": [],
      "stateMutability": "nonpayable",
      "type": "constructor"
    },
    {
      "anonymous": false,
      "inputs": [
        {
          "indexed": false,
          "internalType": "address",
          "name": "sender",
          "type": "address"
        },
        {
          "indexed": false,
          "internalType": "address",
          "name": "spender",
          "type": "address"
        },
        {
          "indexed": false,
          "internalType": "uint256",
          "name": "amount",
          "type": "uint256"
        }
      ],
      "name": "Approval",
      "type": "event"
    },
    {
      "anonymous": false,
      "inputs": [
        {
          "indexed": true,
          "internalType": "address",
          "name": "_to",
          "type": "address"
        },
        {
          "indexed": true,
          "internalType": "uint256",
          "name": "_tokenId",
          "type": "uint256"
        },
        {
          "indexed": false,
          "internalType": "bytes32",
          "name": "_ipfsHash",
          "type": "bytes32"
        }
      ],
      "name": "Mint",
      "type": "event"
    },
    {
      "anonymous": false,
      "inputs": [
        {
          "indexed": false,
          "internalType": "address",
          "name": "sender",
          "type": "address"
        },
        {
          "indexed": false,
          "internalType": "address",
          "name": "recipient",
          "type": "address"
        },
        {
          "indexed": false,
          "internalType": "uint256",
          "name": "amount",
          "type": "uint256"
        }
      ],
      "name": "Transfer",
      "type": "event"
    },
    {
      "inputs": [],
      "name": "_owner",
      "outputs": [
        {
          "internalType": "address",
          "name": "",
          "type": "address"
        }
      ],
      "stateMutability": "view",
      "type": "function"
    },
    {
      "inputs": [],
      "name": "_totalSupply",
      "outputs": [
        {
          "internalType": "uint256",
          "name": "",
          "type": "uint256"
        }
      ],
      "stateMutability": "view",
      "type": "function"
    },
    {
      "inputs": [],
      "name": "name",
      "outputs": [
        {
          "internalType": "string",
          "name": "",
          "type": "string"
        }
      ],
      "stateMutability": "view",
      "type": "function"
    },
    {
      "inputs": [],
      "name": "symbol",
      "outputs": [
        {
          "internalType": "string",
          "name": "",
          "type": "string"
        }
      ],
      "stateMutability": "view",
      "type": "function"
    },
    {
      "inputs": [],
      "name": "getOwner",
      "outputs": [
        {
          "internalType": "address",
          "name": "",
          "type": "address"
        }
      ],
      "stateMutability": "view",
      "type": "function"
    },
    {
      "inputs": [],
      "name": "getUserRole",
      "outputs": [
        {
          "internalType": "string",
          "name": "",
          "type": "string"
        }
      ],
      "stateMutability": "view",
      "type": "function"
    },
    {
      "inputs": [],
      "name": "totalSupply",
      "outputs": [
        {
          "internalType": "uint256",
          "name": "",
          "type": "uint256"
        }
      ],
      "stateMutability": "view",
      "type": "function"
    },
    {
      "inputs": [
        {
          "internalType": "address",
          "name": "account",
          "type": "address"
        }
      ],
      "name": "balanceOf",
      "outputs": [
        {
          "internalType": "uint256",
          "name": "",
          "type": "uint256"
        }
      ],
      "stateMutability": "view",
      "type": "function"
    },
    {
      "inputs": [
        {
          "internalType": "address",
          "name": "owner",
          "type": "address"
        },
        {
          "internalType": "address",
          "name": "spender",
          "type": "address"
        }
      ],
      "name": "allowance",
      "outputs": [
        {
          "internalType": "uint256",
          "name": "",
          "type": "uint256"
        }
      ],
      "stateMutability": "view",
      "type": "function"
    },
    {
      "inputs": [
        {
          "internalType": "address",
          "name": "recipient",
          "type": "address"
        },
        {
          "internalType": "uint256",
          "name": "amount",
          "type": "uint256"
        }
      ],
      "name": "transfer",
      "outputs": [
        {
          "internalType": "bool",
          "name": "",
          "type": "bool"
        }
      ],
      "stateMutability": "nonpayable",
      "type": "function"
    },
    {
      "inputs": [
        {
          "internalType": "address",
          "name": "spender",
          "type": "address"
        },
        {
          "internalType": "uint256",
          "name": "amount",
          "type": "uint256"
        }
      ],
      "name": "approve",
      "outputs": [
        {
          "internalType": "bool",
          "name": "",
          "type": "bool"
        }
      ],
      "stateMutability": "nonpayable",
      "type": "function"
    },
    {
      "inputs": [
        {
          "internalType": "address",
          "name": "sender",
          "type": "address"
        },
        {
          "internalType": "address",
          "name": "recipient",
          "type": "address"
        },
        {
          "internalType": "uint256",
          "name": "amount",
          "type": "uint256"
        }
      ],
      "name": "transferFrom",
      "outputs": [
        {
          "internalType": "bool",
          "name": "",
          "type": "bool"
        }
      ],
      "stateMutability": "nonpayable",
      "type": "function"
    },
    {
      "inputs": [],
      "name": "addUser",
      "outputs": [],
      "stateMutability": "payable",
      "type": "function"
    },
    {
      "inputs": [
        {
          "internalType": "string",
          "name": "message",
          "type": "string"
        }
      ],
      "name": "addPost",
      "outputs": [
        {
          "internalType": "uint256",
          "name": "",
          "type": "uint256"
        }
      ],
      "stateMutability": "payable",
      "type": "function"
    },
    {
      "inputs": [
        {
          "internalType": "address",
          "name": "poster",
          "type": "address"
        },
        {
          "internalType": "uint256",
          "name": "index",
          "type": "uint256"
        },
        {
          "internalType": "string",
          "name": "message",
          "type": "string"
        }
      ],
      "name": "addComment",
      "outputs": [],
      "stateMutability": "payable",
      "type": "function"
    },
    {
      "inputs": [
        {
          "internalType": "string",
          "name": "profession",
          "type": "string"
        },
        {
          "internalType": "string",
          "name": "location",
          "type": "string"
        },
        {
          "internalType": "string",
          "name": "dob",
          "type": "string"
        },
        {
          "internalType": "string",
          "name": "interests",
          "type": "string"
        }
      ],
      "name": "updateUserMeta",
      "outputs": [],
      "stateMutability": "payable",
      "type": "function"
    },
    {
      "inputs": [],
      "name": "addAdvertiser",
      "outputs": [],
      "stateMutability": "payable",
      "type": "function"
    },
    {
      "inputs": [
        {
          "internalType": "string",
          "name": "message",
          "type": "string"
        }
      ],
      "name": "newAdvertisement",
      "outputs": [],
      "stateMutability": "payable",
      "type": "function"
    },
    {
      "inputs": [],
      "name": "getAdvertisers",
      "outputs": [
        {
          "internalType": "address[]",
          "name": "",
          "type": "address[]"
        }
      ],
      "stateMutability": "view",
      "type": "function"
    },
    {
      "inputs": [],
      "name": "getUsers",
      "outputs": [
        {
          "internalType": "address[]",
          "name": "",
          "type": "address[]"
        }
      ],
      "stateMutability": "view",
      "type": "function"
    },
    {
      "inputs": [
        {
          "internalType": "uint256",
          "name": "post",
          "type": "uint256"
        },
        {
          "internalType": "address",
          "name": "poster",
          "type": "address"
        },
        {
          "internalType": "address",
          "name": "user",
          "type": "address"
        }
      ],
      "name": "setLike",
      "outputs": [],
      "stateMutability": "payable",
      "type": "function"
    },
    {
      "inputs": [
        {
          "internalType": "uint256",
          "name": "post",
          "type": "uint256"
        },
        {
          "internalType": "address",
          "name": "poster",
          "type": "address"
        },
        {
          "internalType": "address",
          "name": "user",
          "type": "address"
        }
      ],
      "name": "setDislike",
      "outputs": [],
      "stateMutability": "payable",
      "type": "function"
    },
    {
      "inputs": [
        {
          "internalType": "address",
          "name": "user",
          "type": "address"
        }
      ],
      "name": "getLikes",
      "outputs": [
        {
          "components": [
            {
              "internalType": "uint256",
              "name": "post",
              "type": "uint256"
            },
            {
              "internalType": "address",
              "name": "poster",
              "type": "address"
            },
            {
              "internalType": "address",
              "name": "user",
              "type": "address"
            }
          ],
          "internalType": "struct SocialNetwork.LikesDislikes[]",
          "name": "",
          "type": "tuple[]"
        }
      ],
      "stateMutability": "view",
      "type": "function"
    },
    {
      "inputs": [
        {
          "internalType": "address",
          "name": "user",
          "type": "address"
        }
      ],
      "name": "getDislikes",
      "outputs": [
        {
          "components": [
            {
              "internalType": "uint256",
              "name": "post",
              "type": "uint256"
            },
            {
              "internalType": "address",
              "name": "poster",
              "type": "address"
            },
            {
              "internalType": "address",
              "name": "user",
              "type": "address"
            }
          ],
          "internalType": "struct SocialNetwork.LikesDislikes[]",
          "name": "",
          "type": "tuple[]"
        }
      ],
      "stateMutability": "view",
      "type": "function"
    }
  ],
  "bytecode": "0x60806040523480156200001157600080fd5b506040518060400160405280600e81526020017f4d794b726f6e656520546f6b656e000000000000000000000000000000000000815250600090805190602001906200005f929190620000fd565b506040518060400160405280600381526020017f4d594b000000000000000000000000000000000000000000000000000000000081525060019080519060200190620000ad929190620000fd565b5033600560006101000a81548173ffffffffffffffffffffffffffffffffffffffff021916908373ffffffffffffffffffffffffffffffffffffffff160217905550600060028190555062000212565b8280546200010b90620001dc565b90600052602060002090601f0160209004810192826200012f57600085556200017b565b82601f106200014a57805160ff19168380011785556200017b565b828001600101855582156200017b579182015b828111156200017a5782518255916020019190600101906200015d565b5b5090506200018a91906200018e565b5090565b5b80821115620001a95760008160009055506001016200018f565b5090565b7f4e487b7100000000000000000000000000000000000000000000000000000000600052602260045260246000fd5b60006002820490506001821680620001f557607f821691505b602082108114156200020c576200020b620001ad565b5b50919050565b6131c580620002226000396000f3fe60806040526004361061014a5760003560e01c806395fa7373116100b6578063bf04a10d1161006f578063bf04a10d14610457578063cc18513f14610482578063d2ab4873146104bf578063dd62ed3e146104db578063ec547d8014610518578063f61aa6f0146105435761014a565b806395fa73731461036b578063a632281914610387578063a9059cbb146103b7578063aae741c4146103f4578063af9bcca414610410578063b2bdfa7b1461042c5761014a565b80633eaaf86b116101085780633eaaf86b14610287578063455c928c146102b257806359b55de4146102bc57806370a08231146102d8578063893d20e81461031557806395d89b41146103405761014a565b8062ce8e3e1461014f57806302066d191461017a57806306fdde03146101b7578063095ea7b3146101e257806318160ddd1461021f57806323b872dd1461024a575b600080fd5b34801561015b57600080fd5b5061016461054d565b60405161017191906125c8565b60405180910390f35b34801561018657600080fd5b506101a1600480360381019061019c919061262a565b61066b565b6040516101ae9190612761565b60405180910390f35b3480156101c357600080fd5b506101cc610844565b6040516101d9919061281c565b60405180910390f35b3480156101ee57600080fd5b506102096004803603810190610204919061286a565b6108d2565b60405161021691906128c5565b60405180910390f35b34801561022b57600080fd5b50610234610a09565b60405161024191906128ef565b60405180910390f35b34801561025657600080fd5b50610271600480360381019061026c919061290a565b610a13565b60405161027e91906128c5565b60405180910390f35b34801561029357600080fd5b5061029c610d60565b6040516102a991906128ef565b60405180910390f35b6102ba610d66565b005b6102d660048036038101906102d1919061295d565b610f70565b005b3480156102e457600080fd5b506102ff60048036038101906102fa919061262a565b6111ce565b60405161030c91906128ef565b60405180910390f35b34801561032157600080fd5b5061032a611217565b60405161033791906129bf565b60405180910390f35b34801561034c57600080fd5b50610355611241565b604051610362919061281c565b60405180910390f35b61038560048036038101906103809190612b0f565b6112cf565b005b6103a1600480360381019061039c9190612be6565b6113b2565b6040516103ae91906128ef565b60405180910390f35b3480156103c357600080fd5b506103de60048036038101906103d9919061286a565b6114f2565b6040516103eb91906128c5565b60405180910390f35b61040e60048036038101906104099190612c2f565b611746565b005b61042a6004803603810190610425919061295d565b6119d4565b005b34801561043857600080fd5b50610441611c32565b60405161044e91906129bf565b60405180910390f35b34801561046357600080fd5b5061046c611c58565b604051610479919061281c565b60405180910390f35b34801561048e57600080fd5b506104a960048036038101906104a4919061262a565b611eb6565b6040516104b69190612761565b60405180910390f35b6104d960048036038101906104d49190612be6565b61208f565b005b3480156104e757600080fd5b5061050260048036038101906104fd9190612c9e565b612169565b60405161050f91906128ef565b60405180910390f35b34801561052457600080fd5b5061052d6121fd565b60405161053a91906125c8565b60405180910390f35b61054b61231b565b005b6060600560009054906101000a900473ffffffffffffffffffffffffffffffffffffffff1673ffffffffffffffffffffffffffffffffffffffff163373ffffffffffffffffffffffffffffffffffffffff16146105df576040517f08c379a00000000000000000000000000000000000000000000000000000000081526004016105d690612d2a565b60405180910390fd5b600d80548060200260200160405190810160405280929190818152602001828054801561066157602002820191906000526020600020905b8160009054906101000a900473ffffffffffffffffffffffffffffffffffffffff1673ffffffffffffffffffffffffffffffffffffffff1681526020019060010190808311610617575b5050505050905090565b6060816000600660008373ffffffffffffffffffffffffffffffffffffffff1673ffffffffffffffffffffffffffffffffffffffff1681526020019081526020016000205414156106f1576040517f08c379a00000000000000000000000000000000000000000000000000000000081526004016106e890612d96565b60405180910390fd5b600a60008473ffffffffffffffffffffffffffffffffffffffff1673ffffffffffffffffffffffffffffffffffffffff168152602001908152602001600020805480602002602001604051908101604052809291908181526020016000905b828210156108385783829060005260206000209060030201604051806060016040529081600082015481526020016001820160009054906101000a900473ffffffffffffffffffffffffffffffffffffffff1673ffffffffffffffffffffffffffffffffffffffff1673ffffffffffffffffffffffffffffffffffffffff1681526020016002820160009054906101000a900473ffffffffffffffffffffffffffffffffffffffff1673ffffffffffffffffffffffffffffffffffffffff1673ffffffffffffffffffffffffffffffffffffffff168152505081526020019060010190610750565b50505050915050919050565b6000805461085190612de5565b80601f016020809104026020016040519081016040528092919081815260200182805461087d90612de5565b80156108ca5780601f1061089f576101008083540402835291602001916108ca565b820191906000526020600020905b8154815290600101906020018083116108ad57829003601f168201915b505050505081565b60008073ffffffffffffffffffffffffffffffffffffffff168373ffffffffffffffffffffffffffffffffffffffff161415610943576040517f08c379a000000000000000000000000000000000000000000000000000000000815260040161093a90612e63565b60405180910390fd5b81600460003373ffffffffffffffffffffffffffffffffffffffff1673ffffffffffffffffffffffffffffffffffffffff16815260200190815260200160002060008573ffffffffffffffffffffffffffffffffffffffff1673ffffffffffffffffffffffffffffffffffffffff168152602001908152602001600020819055507f8c5be1e5ebec7d5bd14f71427d1e84f3dd0314c0f7b2291e5b200ac8c7c3b9253384846040516109f793929190612e83565b60405180910390a16001905092915050565b6000600254905090565b60008073ffffffffffffffffffffffffffffffffffffffff168473ffffffffffffffffffffffffffffffffffffffff161415610a84576040517f08c379a0000000000000000000000000000000000000000000000000000000008152600401610a7b90612e63565b60405180910390fd5b600073ffffffffffffffffffffffffffffffffffffffff168373ffffffffffffffffffffffffffffffffffffffff161415610af4576040517f08c379a0000000000000000000000000000000000000000000000000000000008152600401610aeb90612f06565b60405180910390fd5b81600c60008673ffffffffffffffffffffffffffffffffffffffff1673ffffffffffffffffffffffffffffffffffffffff1681526020019081526020016000205410158015610bbf575081600460008673ffffffffffffffffffffffffffffffffffffffff1673ffffffffffffffffffffffffffffffffffffffff16815260200190815260200160002060003373ffffffffffffffffffffffffffffffffffffffff1673ffffffffffffffffffffffffffffffffffffffff1681526020019081526020016000205410155b8015610bcb5750600082115b8015610c5f5750600c60008473ffffffffffffffffffffffffffffffffffffffff1673ffffffffffffffffffffffffffffffffffffffff1681526020019081526020016000205482600c60008673ffffffffffffffffffffffffffffffffffffffff1673ffffffffffffffffffffffffffffffffffffffff16815260200190815260200160002054610c5d9190612f55565b115b15610d545781600c60008673ffffffffffffffffffffffffffffffffffffffff1673ffffffffffffffffffffffffffffffffffffffff1681526020019081526020016000206000828254610cb39190612fab565b9250508190555081600c60008573ffffffffffffffffffffffffffffffffffffffff1673ffffffffffffffffffffffffffffffffffffffff1681526020019081526020016000206000828254610d099190612f55565b925050819055507fddf252ad1be2c89b69c2b068fc378daa952ba7f163c4a11628f55a4df523b3ef848484604051610d4393929190612e83565b60405180910390a160019050610d59565b600090505b9392505050565b60025481565b600073ffffffffffffffffffffffffffffffffffffffff163373ffffffffffffffffffffffffffffffffffffffff161415610dd6576040517f08c379a0000000000000000000000000000000000000000000000000000000008152600401610dcd9061302b565b60405180910390fd5b6000600660003373ffffffffffffffffffffffffffffffffffffffff1673ffffffffffffffffffffffffffffffffffffffff1681526020019081526020016000205414610e58576040517f08c379a0000000000000000000000000000000000000000000000000000000008152600401610e4f90613097565b60405180910390fd5b66038d7ea4c68000610e6a3330612169565b1015610eab576040517f08c379a0000000000000000000000000000000000000000000000000000000008152600401610ea290613103565b60405180910390fd5b610ebd333066038d7ea4c68000610a13565b610ec657600080fd5b6001600660003373ffffffffffffffffffffffffffffffffffffffff1673ffffffffffffffffffffffffffffffffffffffff16815260200190815260200160002081905550600d339080600181540180825580915050600190039060005260206000200160009091909190916101000a81548173ffffffffffffffffffffffffffffffffffffffff021916908373ffffffffffffffffffffffffffffffffffffffff160217905550565b806000600660008373ffffffffffffffffffffffffffffffffffffffff1673ffffffffffffffffffffffffffffffffffffffff168152602001908152602001600020541415610ff4576040517f08c379a0000000000000000000000000000000000000000000000000000000008152600401610feb90612d96565b60405180910390fd5b826000600660008373ffffffffffffffffffffffffffffffffffffffff1673ffffffffffffffffffffffffffffffffffffffff168152602001908152602001600020541415611078576040517f08c379a000000000000000000000000000000000000000000000000000000000815260040161106f90612d96565b60405180910390fd5b600060405180606001604052808781526020018673ffffffffffffffffffffffffffffffffffffffff1681526020018573ffffffffffffffffffffffffffffffffffffffff168152509050600960008573ffffffffffffffffffffffffffffffffffffffff1673ffffffffffffffffffffffffffffffffffffffff1681526020019081526020016000208190806001815401808255809150506001900390600052602060002090600302016000909190919091506000820151816000015560208201518160010160006101000a81548173ffffffffffffffffffffffffffffffffffffffff021916908373ffffffffffffffffffffffffffffffffffffffff16021790555060408201518160020160006101000a81548173ffffffffffffffffffffffffffffffffffffffff021916908373ffffffffffffffffffffffffffffffffffffffff1602179055505050505050505050565b6000600360008373ffffffffffffffffffffffffffffffffffffffff1673ffffffffffffffffffffffffffffffffffffffff168152602001908152602001600020549050919050565b6000600560009054906101000a900473ffffffffffffffffffffffffffffffffffffffff16905090565b6001805461124e90612de5565b80601f016020809104026020016040519081016040528092919081815260200182805461127a90612de5565b80156112c75780601f1061129c576101008083540402835291602001916112c7565b820191906000526020600020905b8154815290600101906020018083116112aa57829003601f168201915b505050505081565b6000604051806080016040528086815260200185815260200184815260200183815250905080600b60003373ffffffffffffffffffffffffffffffffffffffff1673ffffffffffffffffffffffffffffffffffffffff1681526020019081526020016000206000820151816000019080519060200190611350929190612435565b50602082015181600101908051906020019061136d929190612435565b50604082015181600201908051906020019061138a929190612435565b5060608201518160030190805190602001906113a7929190612435565b509050505050505050565b60008073ffffffffffffffffffffffffffffffffffffffff163373ffffffffffffffffffffffffffffffffffffffff161415611423576040517f08c379a000000000000000000000000000000000000000000000000000000000815260040161141a9061302b565b60405180910390fd5b600760003373ffffffffffffffffffffffffffffffffffffffff1673ffffffffffffffffffffffffffffffffffffffff1681526020019081526020016000208290806001815401808255809150506001900390600052602060002001600090919091909150908051906020019061149b929190612435565b506001600760003373ffffffffffffffffffffffffffffffffffffffff1673ffffffffffffffffffffffffffffffffffffffff168152602001908152602001600020805490506114eb9190612fab565b9050919050565b60008073ffffffffffffffffffffffffffffffffffffffff168373ffffffffffffffffffffffffffffffffffffffff161415611563576040517f08c379a000000000000000000000000000000000000000000000000000000000815260040161155a90612f06565b60405180910390fd5b81600c60003373ffffffffffffffffffffffffffffffffffffffff1673ffffffffffffffffffffffffffffffffffffffff16815260200190815260200160002054101580156115b25750600082115b80156116465750600c60008473ffffffffffffffffffffffffffffffffffffffff1673ffffffffffffffffffffffffffffffffffffffff1681526020019081526020016000205482600c60008673ffffffffffffffffffffffffffffffffffffffff1673ffffffffffffffffffffffffffffffffffffffff168152602001908152602001600020546116449190612f55565b115b1561173b5781600c60003373ffffffffffffffffffffffffffffffffffffffff1673ffffffffffffffffffffffffffffffffffffffff168152602001908152602001600020600082825461169a9190612fab565b9250508190555081600c60008573ffffffffffffffffffffffffffffffffffffffff1673ffffffffffffffffffffffffffffffffffffffff16815260200190815260200160002060008282546116f09190612f55565b925050819055507fddf252ad1be2c89b69c2b068fc378daa952ba7f163c4a11628f55a4df523b3ef33848460405161172a93929190612e83565b60405180910390a160019050611740565b600090505b92915050565b600073ffffffffffffffffffffffffffffffffffffffff163373ffffffffffffffffffffffffffffffffffffffff1614156117b6576040517f08c379a00000000000000000000000000000000000000000000000000000000081526004016117ad9061302b565b60405180910390fd5b826000600660008373ffffffffffffffffffffffffffffffffffffffff1673ffffffffffffffffffffffffffffffffffffffff16815260200190815260200160002054141561183a576040517f08c379a000000000000000000000000000000000000000000000000000000000815260040161183190612d96565b60405180910390fd5b336000600660008373ffffffffffffffffffffffffffffffffffffffff1673ffffffffffffffffffffffffffffffffffffffff1681526020019081526020016000205414156118be576040517f08c379a00000000000000000000000000000000000000000000000000000000081526004016118b590612d96565b60405180910390fd5b600060405180606001604052803373ffffffffffffffffffffffffffffffffffffffff168152602001868152602001858152509050600860008773ffffffffffffffffffffffffffffffffffffffff1673ffffffffffffffffffffffffffffffffffffffff16815260200190815260200160002081908060018154018082558091505060019003906000526020600020906003020160009091909190915060008201518160000160006101000a81548173ffffffffffffffffffffffffffffffffffffffff021916908373ffffffffffffffffffffffffffffffffffffffff1602179055506020820151816001015560408201518160020190805190602001906119c9929190612435565b505050505050505050565b806000600660008373ffffffffffffffffffffffffffffffffffffffff1673ffffffffffffffffffffffffffffffffffffffff168152602001908152602001600020541415611a58576040517f08c379a0000000000000000000000000000000000000000000000000000000008152600401611a4f90612d96565b60405180910390fd5b826000600660008373ffffffffffffffffffffffffffffffffffffffff1673ffffffffffffffffffffffffffffffffffffffff168152602001908152602001600020541415611adc576040517f08c379a0000000000000000000000000000000000000000000000000000000008152600401611ad390612d96565b60405180910390fd5b600060405180606001604052808781526020018673ffffffffffffffffffffffffffffffffffffffff1681526020018573ffffffffffffffffffffffffffffffffffffffff168152509050600a60008573ffffffffffffffffffffffffffffffffffffffff1673ffffffffffffffffffffffffffffffffffffffff1681526020019081526020016000208190806001815401808255809150506001900390600052602060002090600302016000909190919091506000820151816000015560208201518160010160006101000a81548173ffffffffffffffffffffffffffffffffffffffff021916908373ffffffffffffffffffffffffffffffffffffffff16021790555060408201518160020160006101000a81548173ffffffffffffffffffffffffffffffffffffffff021916908373ffffffffffffffffffffffffffffffffffffffff1602179055505050505050505050565b600560009054906101000a900473ffffffffffffffffffffffffffffffffffffffff1681565b6060336000600660008373ffffffffffffffffffffffffffffffffffffffff1673ffffffffffffffffffffffffffffffffffffffff168152602001908152602001600020541415611cde576040517f08c379a0000000000000000000000000000000000000000000000000000000008152600401611cd590612d96565b60405180910390fd5b600560009054906101000a900473ffffffffffffffffffffffffffffffffffffffff1673ffffffffffffffffffffffffffffffffffffffff163373ffffffffffffffffffffffffffffffffffffffff161415611d71576040518060400160405280600581526020017f6f776e65720000000000000000000000000000000000000000000000000000008152509150611eb2565b6000600660003373ffffffffffffffffffffffffffffffffffffffff1673ffffffffffffffffffffffffffffffffffffffff1681526020019081526020016000205414611df5576040518060400160405280600481526020017f75736572000000000000000000000000000000000000000000000000000000008152509150611eb2565b6000600e60003373ffffffffffffffffffffffffffffffffffffffff1673ffffffffffffffffffffffffffffffffffffffff1681526020019081526020016000205414611e79576040518060400160405280600981526020017f61647665726973657200000000000000000000000000000000000000000000008152509150611eb2565b6040518060400160405280600781526020017f756e6b6e6f776e0000000000000000000000000000000000000000000000000081525091505b5090565b6060816000600660008373ffffffffffffffffffffffffffffffffffffffff1673ffffffffffffffffffffffffffffffffffffffff168152602001908152602001600020541415611f3c576040517f08c379a0000000000000000000000000000000000000000000000000000000008152600401611f3390612d96565b60405180910390fd5b600960008473ffffffffffffffffffffffffffffffffffffffff1673ffffffffffffffffffffffffffffffffffffffff168152602001908152602001600020805480602002602001604051908101604052809291908181526020016000905b828210156120835783829060005260206000209060030201604051806060016040529081600082015481526020016001820160009054906101000a900473ffffffffffffffffffffffffffffffffffffffff1673ffffffffffffffffffffffffffffffffffffffff1673ffffffffffffffffffffffffffffffffffffffff1681526020016002820160009054906101000a900473ffffffffffffffffffffffffffffffffffffffff1673ffffffffffffffffffffffffffffffffffffffff1673ffffffffffffffffffffffffffffffffffffffff168152505081526020019060010190611f9b565b50505050915050919050565b6000600e60003373ffffffffffffffffffffffffffffffffffffffff1673ffffffffffffffffffffffffffffffffffffffff168152602001908152602001600020541415612112576040517f08c379a00000000000000000000000000000000000000000000000000000000081526004016121099061316f565b60405180910390fd5b80601060003373ffffffffffffffffffffffffffffffffffffffff1673ffffffffffffffffffffffffffffffffffffffff1681526020019081526020016000209080519060200190612165929190612435565b5050565b6000600460008473ffffffffffffffffffffffffffffffffffffffff1673ffffffffffffffffffffffffffffffffffffffff16815260200190815260200160002060008373ffffffffffffffffffffffffffffffffffffffff1673ffffffffffffffffffffffffffffffffffffffff168152602001908152602001600020546002546121f59190612fab565b905092915050565b6060600560009054906101000a900473ffffffffffffffffffffffffffffffffffffffff1673ffffffffffffffffffffffffffffffffffffffff163373ffffffffffffffffffffffffffffffffffffffff161461228f576040517f08c379a000000000000000000000000000000000000000000000000000000000815260040161228690612d2a565b60405180910390fd5b600f80548060200260200160405190810160405280929190818152602001828054801561231157602002820191906000526020600020905b8160009054906101000a900473ffffffffffffffffffffffffffffffffffffffff1673ffffffffffffffffffffffffffffffffffffffff16815260200190600101908083116122c7575b5050505050905090565b600073ffffffffffffffffffffffffffffffffffffffff163373ffffffffffffffffffffffffffffffffffffffff16141561238b576040517f08c379a00000000000000000000000000000000000000000000000000000000081526004016123829061302b565b60405180910390fd5b6001600e60003373ffffffffffffffffffffffffffffffffffffffff1673ffffffffffffffffffffffffffffffffffffffff16815260200190815260200160002081905550600f339080600181540180825580915050600190039060005260206000200160009091909190916101000a81548173ffffffffffffffffffffffffffffffffffffffff021916908373ffffffffffffffffffffffffffffffffffffffff160217905550565b82805461244190612de5565b90600052602060002090601f01602090048101928261246357600085556124aa565b82601f1061247c57805160ff19168380011785556124aa565b828001600101855582156124aa579182015b828111156124a957825182559160200191906001019061248e565b5b5090506124b791906124bb565b5090565b5b808211156124d45760008160009055506001016124bc565b5090565b600081519050919050565b600082825260208201905092915050565b6000819050602082019050919050565b600073ffffffffffffffffffffffffffffffffffffffff82169050919050565b600061252f82612504565b9050919050565b61253f81612524565b82525050565b60006125518383612536565b60208301905092915050565b6000602082019050919050565b6000612575826124d8565b61257f81856124e3565b935061258a836124f4565b8060005b838110156125bb5781516125a28882612545565b97506125ad8361255d565b92505060018101905061258e565b5085935050505092915050565b600060208201905081810360008301526125e2818461256a565b905092915050565b6000604051905090565b600080fd5b600080fd5b61260781612524565b811461261257600080fd5b50565b600081359050612624816125fe565b92915050565b6000602082840312156126405761263f6125f4565b5b600061264e84828501612615565b91505092915050565b600081519050919050565b600082825260208201905092915050565b6000819050602082019050919050565b6000819050919050565b61269681612683565b82525050565b6060820160008201516126b2600085018261268d565b5060208201516126c56020850182612536565b5060408201516126d86040850182612536565b50505050565b60006126ea838361269c565b60608301905092915050565b6000602082019050919050565b600061270e82612657565b6127188185612662565b935061272383612673565b8060005b8381101561275457815161273b88826126de565b9750612746836126f6565b925050600181019050612727565b5085935050505092915050565b6000602082019050818103600083015261277b8184612703565b905092915050565b600081519050919050565b600082825260208201905092915050565b60005b838110156127bd5780820151818401526020810190506127a2565b838111156127cc576000848401525b50505050565b6000601f19601f8301169050919050565b60006127ee82612783565b6127f8818561278e565b935061280881856020860161279f565b612811816127d2565b840191505092915050565b6000602082019050818103600083015261283681846127e3565b905092915050565b61284781612683565b811461285257600080fd5b50565b6000813590506128648161283e565b92915050565b60008060408385031215612881576128806125f4565b5b600061288f85828601612615565b92505060206128a085828601612855565b9150509250929050565b60008115159050919050565b6128bf816128aa565b82525050565b60006020820190506128da60008301846128b6565b92915050565b6128e981612683565b82525050565b600060208201905061290460008301846128e0565b92915050565b600080600060608486031215612923576129226125f4565b5b600061293186828701612615565b935050602061294286828701612615565b925050604061295386828701612855565b9150509250925092565b600080600060608486031215612976576129756125f4565b5b600061298486828701612855565b935050602061299586828701612615565b92505060406129a686828701612615565b9150509250925092565b6129b981612524565b82525050565b60006020820190506129d460008301846129b0565b92915050565b600080fd5b600080fd5b7f4e487b7100000000000000000000000000000000000000000000000000000000600052604160045260246000fd5b612a1c826127d2565b810181811067ffffffffffffffff82111715612a3b57612a3a6129e4565b5b80604052505050565b6000612a4e6125ea565b9050612a5a8282612a13565b919050565b600067ffffffffffffffff821115612a7a57612a796129e4565b5b612a83826127d2565b9050602081019050919050565b82818337600083830152505050565b6000612ab2612aad84612a5f565b612a44565b905082815260208101848484011115612ace57612acd6129df565b5b612ad9848285612a90565b509392505050565b600082601f830112612af657612af56129da565b5b8135612b06848260208601612a9f565b91505092915050565b60008060008060808587031215612b2957612b286125f4565b5b600085013567ffffffffffffffff811115612b4757612b466125f9565b5b612b5387828801612ae1565b945050602085013567ffffffffffffffff811115612b7457612b736125f9565b5b612b8087828801612ae1565b935050604085013567ffffffffffffffff811115612ba157612ba06125f9565b5b612bad87828801612ae1565b925050606085013567ffffffffffffffff811115612bce57612bcd6125f9565b5b612bda87828801612ae1565b91505092959194509250565b600060208284031215612bfc57612bfb6125f4565b5b600082013567ffffffffffffffff811115612c1a57612c196125f9565b5b612c2684828501612ae1565b91505092915050565b600080600060608486031215612c4857612c476125f4565b5b6000612c5686828701612615565b9350506020612c6786828701612855565b925050604084013567ffffffffffffffff811115612c8857612c876125f9565b5b612c9486828701612ae1565b9150509250925092565b60008060408385031215612cb557612cb46125f4565b5b6000612cc385828601612615565b9250506020612cd485828601612615565b9150509250929050565b7f6163636573732064656e69656420666f72206f776e6572000000000000000000600082015250565b6000612d1460178361278e565b9150612d1f82612cde565b602082019050919050565b60006020820190508181036000830152612d4381612d07565b9050919050565b7f7573657220646f6573206e6f7420657869737400000000000000000000000000600082015250565b6000612d8060138361278e565b9150612d8b82612d4a565b602082019050919050565b60006020820190508181036000830152612daf81612d73565b9050919050565b7f4e487b7100000000000000000000000000000000000000000000000000000000600052602260045260246000fd5b60006002820490506001821680612dfd57607f821691505b60208210811415612e1157612e10612db6565b5b50919050565b7f6d697373696e672073656e646572206164647265737300000000000000000000600082015250565b6000612e4d60168361278e565b9150612e5882612e17565b602082019050919050565b60006020820190508181036000830152612e7c81612e40565b9050919050565b6000606082019050612e9860008301866129b0565b612ea560208301856129b0565b612eb260408301846128e0565b949350505050565b7f6d697373696e6720726563697069656e74206164647265737300000000000000600082015250565b6000612ef060198361278e565b9150612efb82612eba565b602082019050919050565b60006020820190508181036000830152612f1f81612ee3565b9050919050565b7f4e487b7100000000000000000000000000000000000000000000000000000000600052601160045260246000fd5b6000612f6082612683565b9150612f6b83612683565b9250827fffffffffffffffffffffffffffffffffffffffffffffffffffffffffffffffff03821115612fa057612f9f612f26565b5b828201905092915050565b6000612fb682612683565b9150612fc183612683565b925082821015612fd457612fd3612f26565b5b828203905092915050565b7f6d697373696e6720616464726573730000000000000000000000000000000000600082015250565b6000613015600f8361278e565b915061302082612fdf565b602082019050919050565b6000602082019050818103600083015261304481613008565b9050919050565b7f7573657220657869737473000000000000000000000000000000000000000000600082015250565b6000613081600b8361278e565b915061308c8261304b565b602082019050919050565b600060208201905081810360008301526130b081613074565b9050919050565b7f726567697374726174696f6e20636f737420302e303031206574686572000000600082015250565b60006130ed601d8361278e565b91506130f8826130b7565b602082019050919050565b6000602082019050818103600083015261311c816130e0565b9050919050565b7f6e6f7420616e2061647665727469736572000000000000000000000000000000600082015250565b600061315960118361278e565b915061316482613123565b602082019050919050565b600060208201905081810360008301526131888161314c565b905091905056fea2646970667358221220be12d6b6fa4a8445ea3e5105931987184fe50a43b12699681b53dc8f4e4e57e464736f6c634300080a0033",
  "immutableReferences": {},
  "source": "// SPDX-License-Identifier: CC-BY-4.0\npragma solidity >=0.4.22 <0.9.0;\n\ncontract SocialNetwork {\n  string public name;\n  string public symbol;\n  uint256 public _totalSupply;\n\n  mapping(address => uint256) private _balances;\n  mapping(address => mapping (address => uint256)) allowed;\n\n  bytes32 constant private ZERO_BYTES = bytes32(0);\n  address constant private ZERO_ADDRESS = address(0);\n\n\n  address public _owner;\n  bool private initialized;\n\n  struct Comment {\n    address commentor;\n    uint256 post_index;\n    string  message;\n  }\n\n  struct UserMeta {\n    string profession;\n    string location;\n    string dob;\n    string interests;\n  }\n\n  struct LikesDislikes {\n    uint256 post;\n    address poster;\n    address user;\n  }\n\n  mapping (address => uint256) private users;\n  mapping (address => string[]) private posts;\n  mapping (address => Comment[]) private comments;\n  mapping (address => LikesDislikes[]) private likes;\n  mapping (address => LikesDislikes[]) private dislikes;\n  mapping (address => UserMeta) private user_meta;\n  mapping (address => uint256) private balances;\n\n  address[] private _users;\n\n\n  // advertisers\n  mapping (address => uint256) private advertisers;\n  address[] private _advertisers;\n  mapping (address => string) private advertisements;\n\n  //uint256 public totalSupply = 0;\n  mapping(uint256 => address) internal tokens;\n  event Mint(address indexed _to, uint256 indexed _tokenId, bytes32 _ipfsHash);\n\n  event Transfer(address sender,address recipient,uint256 amount);\n  event Approval(address sender,address spender,uint256 amount);\n\n  constructor()\n  {\n    name = \"MyKronee Token\";\n    symbol = \"MYK\";\n    _owner = msg.sender;\n    _totalSupply = 0;\n  }\n\n  modifier onlyOwner() {\n    require(msg.sender == _owner, \"access denied for owner\");\n    _;\n  }\n\n  modifier addressValid() {\n    require(msg.sender != address(0), \"missing address\");\n    _;\n  }\n\n  modifier userNotExist() {\n    require(users[msg.sender] == 0, \"user exists\");\n    _;\n  }\n\n  modifier isUser(address user) {\n    require(users[user] != 0,\"user does not exist\");\n    _;\n  }\n\n  modifier notUser(address user) {\n    require(users[user] == 0,\"user already exists\");\n    _;\n  }\n\n  modifier isAdvertiser() {\n    require(advertisers[msg.sender] != 0, \"not an advertiser\");\n    _;\n  }\n\n  modifier notAdvertiser() {\n    require(advertisers[msg.sender] == 0, \"is an advertiser\");\n    _;\n  }\n\n  function getOwner()\n    public\n    view\n    returns (address)\n  {\n    return _owner;\n  }\n\n  function getUserRole()\n    public\n    view\n    isUser(msg.sender)\n    returns (string memory)\n  {\n    if (msg.sender == _owner) {\n      return string(\"owner\");\n    } else if (users[msg.sender] != 0) {\n      return string(\"user\");\n    } else if (advertisers[msg.sender] != 0) {\n      return string(\"adveriser\");\n    }\n    return string(\"unknown\");\n  }\n\n  function totalSupply()\n    public\n    view\n    returns (uint256)\n  {\n    return _totalSupply;\n  }\n\n  function balanceOf(address account)\n    public\n    view\n    returns (uint256)\n  {\n    return _balances[account];\n  }\n  function allowance(address owner, address spender)\n    public\n    view\n    returns (uint256)\n  {\n    return  (_totalSupply - allowed[owner][spender]);\n  }\n\n  function transfer(address recipient, uint256 amount)\n    public\n    returns (bool)\n  {\n    require(recipient != ZERO_ADDRESS, \"missing recipient address\");\n    if (balances[msg.sender] >= amount && amount > 0 && balances[recipient] + amount > balances[recipient]) {\n      balances[msg.sender] -= amount;\n      balances[recipient] += amount;\n      emit Transfer(msg.sender, recipient, amount); // trigger event\n      return true;\n    } else {\n      return false;\n    }\n  }\n  function approve(address spender, uint256 amount)\n    public\n    returns (bool)\n  {\n    require(spender != ZERO_ADDRESS, \"missing sender address\");\n    allowed[msg.sender][spender] = amount;\n    emit Approval(msg.sender, spender, amount);\n    return true;\n  }\n  function transferFrom(address sender, address recipient, uint256 amount)\n    public\n    returns (bool)\n  {\n    require(sender != ZERO_ADDRESS, \"missing sender address\");\n    require(recipient != ZERO_ADDRESS, \"missing recipient address\");\n\n    if (balances[sender] >= amount && allowed[sender][msg.sender] >= amount && amount > 0 &&\n       balances[recipient] + amount > balances[recipient]) {\n      balances[sender] -= amount;\n      balances[recipient] += amount;\n      emit Transfer(sender, recipient, amount);\n      return true;\n    } else {\n      return false;\n    }\n  }\n\n\n  function addUser()\n    public\n    payable\n    addressValid\n    userNotExist\n  {\n    require(allowance(msg.sender, address(this)) >= 0.001 ether, \"registration cost 0.001 ether\");\n    require(transferFrom(msg.sender, address(this),  0.001 ether));\n    users[msg.sender] = 1;\n    _users.push(msg.sender);\n  }\n\n  function addPost(string memory message)\n    public\n    payable\n    addressValid\n    returns (uint256)\n  {\n    posts[msg.sender].push(message);\n    return posts[msg.sender].length - 1;\n  }\n\n  function addComment(address poster, uint index, string memory message)\n    public\n    payable\n    addressValid\n    isUser(poster)\n    isUser(msg.sender)\n  {\n    Comment memory comment = Comment(msg.sender, index, message);\n    comments[poster].push(comment);\n  }\n\n  /**\n   * interests is comma dellimited string\n   */\n  function updateUserMeta(string memory profession, string memory location, string memory dob, string memory interests)\n    public\n    payable\n  {\n    UserMeta memory meta = UserMeta(profession, location, dob, interests);\n    user_meta[msg.sender] = meta;\n  }\n\n  // Add a new advertiser\n  function addAdvertiser()\n    public\n    payable\n    addressValid\n  {\n    advertisers[msg.sender] = 1;\n    _advertisers.push(msg.sender);\n  }\n\n  function newAdvertisement(string memory message)\n    public\n    payable\n    isAdvertiser\n  {\n    advertisements[msg.sender] = message;\n  }\n\n  function getAdvertisers()\n    public\n    view\n    onlyOwner\n    returns (address[] memory)\n  {\n    return _advertisers;\n  }\n\n  function getUsers()\n    public\n    view\n    onlyOwner\n    returns (address[] memory)\n  {\n    return _users;\n  }\n\n  /**\n   * a post may contain many likes, one -> many\n   * one like per user per post\n   */\n  function setLike(uint256 post, address poster, address user)\n    public\n    payable\n    isUser(user)\n    isUser(poster)\n  {\n    LikesDislikes memory like = LikesDislikes(post, poster, user);\n    likes[user].push(like);\n  }\n\n  function setDislike(uint256 post, address poster, address user)\n    public\n    payable\n    isUser(user)\n    isUser(poster)\n  {\n    LikesDislikes memory like = LikesDislikes(post, poster, user);\n    dislikes[user].push(like);\n  }\n\n  function getLikes(address user)\n    public\n    view\n    isUser(user)\n    returns (LikesDislikes[] memory)\n  {\n    return likes[user];\n  }\n\n  function getDislikes(address user)\n    public\n    view\n    isUser(user)\n    returns (LikesDislikes[] memory)\n  {\n    return dislikes[user];\n  }\n}\n",
  "sourcePath": "G:\\projects\\pingleware-contracts\\contracts\\social\\SocialNetwork.sol",
  "compiler": {
    "name": "solc",
    "version": "0.8.10+commit.fc410830.Emscripten.clang"
  },
  "schemaVersion": "3.4.3",
  "updatedAt": "2021-12-19T19:02:32.767Z",
  "devdoc": {
    "kind": "dev",
    "methods": {},
    "version": 1
  },
  "userdoc": {
    "kind": "user",
    "methods": {
      "setLike(uint256,address,address)": {
        "notice": "a post may contain many likes, one -> many one like per user per post"
      },
      "updateUserMeta(string,string,string,string)": {
        "notice": "interests is comma dellimited string"
      }
    },
    "version": 1
  }
}