{
  "contractName": "SoftwareLicenseMetadata",
  "abi": [
    {
      "inputs": [
        {
          "internalType": "address",
          "name": "",
          "type": "address"
        },
        {
          "internalType": "uint256",
          "name": "",
          "type": "uint256"
        }
      ],
      "name": "softwareLicenses",
      "outputs": [
        {
          "internalType": "address",
          "name": "creator",
          "type": "address"
        },
        {
          "internalType": "string",
          "name": "name",
          "type": "string"
        },
        {
          "internalType": "string",
          "name": "upc",
          "type": "string"
        },
        {
          "internalType": "string",
          "name": "description",
          "type": "string"
        },
        {
          "internalType": "uint256",
          "name": "quantity",
          "type": "uint256"
        },
        {
          "internalType": "uint256",
          "name": "price",
          "type": "uint256"
        },
        {
          "internalType": "bytes32",
          "name": "image",
          "type": "bytes32"
        }
      ],
      "stateMutability": "view",
      "type": "function"
    },
    {
      "inputs": [
        {
          "internalType": "address",
          "name": "nftcontract",
          "type": "address"
        },
        {
          "internalType": "address",
          "name": "creator",
          "type": "address"
        },
        {
          "internalType": "string",
          "name": "name",
          "type": "string"
        },
        {
          "internalType": "string",
          "name": "upc",
          "type": "string"
        },
        {
          "internalType": "string",
          "name": "description",
          "type": "string"
        },
        {
          "internalType": "uint256",
          "name": "quantity",
          "type": "uint256"
        },
        {
          "internalType": "uint256",
          "name": "price",
          "type": "uint256"
        },
        {
          "internalType": "bytes32",
          "name": "image",
          "type": "bytes32"
        }
      ],
      "name": "addNewSoftwareLicense",
      "outputs": [],
      "stateMutability": "payable",
      "type": "function"
    }
  ],
  "bytecode": "0x608080604052346100165761081d908161001c8239f35b600080fdfe604060808152600436101561001357600080fd5b60e060020a600035046370f45d83811461052a57638b988a051461003657600080fd5b6101003660031901126105255761004b6105fe565b600160a060020a039160243583811690819003610525576044356001604060020a03811161052557610081903690600401610791565b906064356001604060020a038111610525576100a1903690600401610791565b936084356001604060020a038111610525576100c1903690600401610791565b84519560e08701936001604060020a03851188861017610355578894875287526020870194855285870152606086015260a435608086015260c43560a086015260e43560c0860152166000526000602052816000208054604060020a8110156103555761013391600182018155610614565b94909461050b5783518554600160a060020a0319169116178455518051906001604060020a03821161035557819061016e600187015461064a565b601f81116104b8575b50602090601f83116001146104485760009261043d575b5050816002029160080260020a6000190419161760018401555b8101518051906001604060020a0382116103555781906101cb600286015461064a565b601f81116103ea575b50602090601f831160011461037a5760009261036f575b5050816002029160080260020a6000190419161760028301555b60608101518051906001604060020a03821161035557610228600385015461064a565b601f8111610309575b50602090601f83116001146102915791806006949260c094600092610286575b5050816002029160080260020a6000190419161760038501555b6080810151600485015560a081015160058501550151910155005b015190503880610251565b906003850160005260206000209160005b601f19851681106102f15750836006959360019360029360c097601f198116106102d6575b5050500201600385015561026b565b01516008601f841602840a60001904191690553880806102c7565b919260206001819286850151815501940192016102a2565b6003850160005260206000206020601f8501048101916020851061034b575b601f602091010401905b81811061033f5750610231565b60008155600101610332565b9091508190610328565b60e060020a634e487b710260009081526041600452602490fd5b0151905038806101eb565b600286016000908152602081209350601f198516905b8181106103d2575091600293918560019694106103b7575b50505002016002830155610205565b01516008601f841602840a60001904191690553880806103a8565b92936020600181928786015181550195019301610390565b9091506002850160005260206000206020601f850104810160208510610436575b90849392915b6020601f840104820181106104275750506101d4565b60008155859450600101610411565b508061040b565b01519050388061018e565b600187016000908152602081209350601f198516905b8181106104a057509160029391856001969410610485575b505050020160018401556101a8565b01516008601f841602840a6000190419169055388080610476565b9293602060018192878601518155019501930161045e565b9091506001860160005260206000206020601f850104810160208510610504575b90849392915b6020601f840104820181106104f5575050610177565b600081558594506001016104df565b50806104d9565b60e060020a634e487b710260009081526004819052602490fd5b600080fd5b50346105255780600319360112610525576105436105fe565b90602435600160a060020a038093166000526000602052816000209081548110156105255761057191610614565b509182541690610583600184016106ac565b92610590600282016106ac565b906105ea6105a0600383016106ac565b6105dc60048401549560066005860154950154956105cf82519a8b9a8b5260e060208c015260e08b0190610751565b91898303908a0152610751565b908682036060880152610751565b92608085015260a084015260c08301520390f35b60043590600160a060020a038216820361052557565b8054821015610630576000526007602060002091020190600090565b60e060020a634e487b710260009081526032600452602490fd5b906001600283049216801561067f575b602083101461066557565b60e060020a634e487b710260009081526022600452602490fd5b91607f169161065a565b601f909101601f19168101906001604060020a0382119082101761035557604052565b90604051918260008254926106c08461064a565b90818452600194858116908160001461072f57506001146106ec575b50506106ea92500383610689565b565b9093915060005260209081600020936000915b8183106107175750506106ea935082010138806106dc565b855488840185015294850194879450918301916106ff565b9150506106ea94506020925060ff1916828401521515810282010138806106dc565b919082519283825260005b84811061077d575050826000602080949584010152601f8019910116010190565b60208183018101518483018201520161075c565b81601f82011215610525578035906001604060020a03821161035557604051926107c5601f8401601f191660200185610689565b828452602083830101116105255781600092602080930183860137830101529056fea2646970667358221220ec04338310000f18e33e40aa3f83a81fbfdd626ab009784bd022caff8e31cc0264736f6c63430008120033",
  "immutableReferences": {},
  "source": "// SPDX-License-Identifier: CC-BY-4.0\r\npragma solidity >=0.4.22 <0.9.0;\r\n\r\ncontract SoftwareLicenseMetadata {\r\n    struct SoftwareLicenseData {\r\n        address creator;\r\n        string  name;\r\n        string  upc;            // get a UPC code from https://www.gs1us.org/\r\n        string  description;\r\n        uint256 quantity;\r\n        uint256 price;\r\n        bytes32 image;\r\n    }\r\n\r\n    mapping (address => SoftwareLicenseData[]) public softwareLicenses;\r\n\r\n\r\n    function addNewSoftwareLicense(address nftcontract,\r\n                                   address creator,\r\n                                   string memory name,\r\n                                   string memory upc,\r\n                                   string memory description,\r\n                                   uint256 quantity,\r\n                                   uint256 price,\r\n                                   bytes32 image)\r\n        public\r\n        payable\r\n    {\r\n        SoftwareLicenseData memory license = SoftwareLicenseData(creator,name,upc,description,quantity,price,image);\r\n        softwareLicenses[nftcontract].push(license);\r\n    }\r\n}",
  "sourcePath": "/Volumes/HOME/pingleware-contracts/contracts/technology/SoftwareLicenseMetadata.sol",
  "compiler": {
    "name": "solc",
    "version": "0.8.18+commit.87f61d96.Emscripten.clang"
  },
  "schemaVersion": "3.4.12",
  "updatedAt": "2024-05-23T18:56:27.368Z",
  "devdoc": {
    "kind": "dev",
    "methods": {},
    "version": 1
  },
  "userdoc": {
    "kind": "user",
    "methods": {},
    "version": 1
  }
}