{
  "contractName": "SoftwareLicense",
  "abi": [
    {
      "inputs": [],
      "stateMutability": "nonpayable",
      "type": "constructor"
    },
    {
      "anonymous": false,
      "inputs": [
        {
          "indexed": true,
          "internalType": "address",
          "name": "owner",
          "type": "address"
        },
        {
          "indexed": true,
          "internalType": "address",
          "name": "approved",
          "type": "address"
        },
        {
          "indexed": true,
          "internalType": "uint256",
          "name": "tokenId",
          "type": "uint256"
        }
      ],
      "name": "Approval",
      "type": "event"
    },
    {
      "anonymous": false,
      "inputs": [
        {
          "indexed": true,
          "internalType": "address",
          "name": "owner",
          "type": "address"
        },
        {
          "indexed": true,
          "internalType": "address",
          "name": "operator",
          "type": "address"
        },
        {
          "indexed": false,
          "internalType": "bool",
          "name": "approved",
          "type": "bool"
        }
      ],
      "name": "ApprovalForAll",
      "type": "event"
    },
    {
      "anonymous": false,
      "inputs": [
        {
          "indexed": false,
          "internalType": "address",
          "name": "sender",
          "type": "address"
        },
        {
          "indexed": false,
          "internalType": "address",
          "name": "recipient",
          "type": "address"
        }
      ],
      "name": "Destroyed",
      "type": "event"
    },
    {
      "anonymous": false,
      "inputs": [
        {
          "indexed": false,
          "internalType": "address",
          "name": "sender",
          "type": "address"
        },
        {
          "indexed": false,
          "internalType": "uint256",
          "name": "amount",
          "type": "uint256"
        }
      ],
      "name": "FallbackEvent",
      "type": "event"
    },
    {
      "anonymous": false,
      "inputs": [
        {
          "indexed": true,
          "internalType": "address",
          "name": "previousOwner",
          "type": "address"
        },
        {
          "indexed": true,
          "internalType": "address",
          "name": "newOwner",
          "type": "address"
        }
      ],
      "name": "OwnershipTransferred",
      "type": "event"
    },
    {
      "anonymous": false,
      "inputs": [
        {
          "indexed": false,
          "internalType": "address",
          "name": "sender",
          "type": "address"
        },
        {
          "indexed": false,
          "internalType": "uint256",
          "name": "amount",
          "type": "uint256"
        }
      ],
      "name": "ReceiveEvent",
      "type": "event"
    },
    {
      "anonymous": false,
      "inputs": [
        {
          "indexed": false,
          "internalType": "address",
          "name": "sender",
          "type": "address"
        },
        {
          "indexed": false,
          "internalType": "bytes",
          "name": "reason",
          "type": "bytes"
        }
      ],
      "name": "Started",
      "type": "event"
    },
    {
      "anonymous": false,
      "inputs": [
        {
          "indexed": false,
          "internalType": "address",
          "name": "sender",
          "type": "address"
        },
        {
          "indexed": false,
          "internalType": "bytes",
          "name": "reason",
          "type": "bytes"
        }
      ],
      "name": "Stopped",
      "type": "event"
    },
    {
      "anonymous": false,
      "inputs": [
        {
          "indexed": false,
          "internalType": "address",
          "name": "sender",
          "type": "address"
        },
        {
          "indexed": false,
          "internalType": "string",
          "name": "reason",
          "type": "string"
        }
      ],
      "name": "Termination",
      "type": "event"
    },
    {
      "anonymous": false,
      "inputs": [
        {
          "indexed": true,
          "internalType": "address",
          "name": "from",
          "type": "address"
        },
        {
          "indexed": true,
          "internalType": "address",
          "name": "to",
          "type": "address"
        },
        {
          "indexed": true,
          "internalType": "uint256",
          "name": "tokenId",
          "type": "uint256"
        }
      ],
      "name": "Transfer",
      "type": "event"
    },
    {
      "stateMutability": "payable",
      "type": "fallback",
      "payable": true
    },
    {
      "inputs": [],
      "name": "VERSION",
      "outputs": [
        {
          "internalType": "string",
          "name": "",
          "type": "string"
        }
      ],
      "stateMutability": "view",
      "type": "function",
      "constant": true
    },
    {
      "inputs": [],
      "name": "WAIT",
      "outputs": [
        {
          "internalType": "uint256",
          "name": "",
          "type": "uint256"
        }
      ],
      "stateMutability": "view",
      "type": "function",
      "constant": true
    },
    {
      "inputs": [
        {
          "internalType": "address",
          "name": "to",
          "type": "address"
        },
        {
          "internalType": "uint256",
          "name": "tokenId",
          "type": "uint256"
        }
      ],
      "name": "approve",
      "outputs": [],
      "stateMutability": "nonpayable",
      "type": "function"
    },
    {
      "inputs": [
        {
          "internalType": "address",
          "name": "owner",
          "type": "address"
        }
      ],
      "name": "balanceOf",
      "outputs": [
        {
          "internalType": "uint256",
          "name": "",
          "type": "uint256"
        }
      ],
      "stateMutability": "view",
      "type": "function",
      "constant": true
    },
    {
      "inputs": [],
      "name": "destroy",
      "outputs": [],
      "stateMutability": "nonpayable",
      "type": "function"
    },
    {
      "inputs": [
        {
          "internalType": "address",
          "name": "_recipient",
          "type": "address"
        }
      ],
      "name": "destroyAndSend",
      "outputs": [],
      "stateMutability": "nonpayable",
      "type": "function"
    },
    {
      "inputs": [
        {
          "internalType": "uint256",
          "name": "tokenId",
          "type": "uint256"
        }
      ],
      "name": "getApproved",
      "outputs": [
        {
          "internalType": "address",
          "name": "",
          "type": "address"
        }
      ],
      "stateMutability": "view",
      "type": "function",
      "constant": true
    },
    {
      "inputs": [],
      "name": "getOwner",
      "outputs": [
        {
          "internalType": "address",
          "name": "",
          "type": "address"
        }
      ],
      "stateMutability": "payable",
      "type": "function",
      "payable": true
    },
    {
      "inputs": [
        {
          "internalType": "address",
          "name": "owner",
          "type": "address"
        },
        {
          "internalType": "address",
          "name": "operator",
          "type": "address"
        }
      ],
      "name": "isApprovedForAll",
      "outputs": [
        {
          "internalType": "bool",
          "name": "",
          "type": "bool"
        }
      ],
      "stateMutability": "view",
      "type": "function",
      "constant": true
    },
    {
      "inputs": [],
      "name": "maxBatch",
      "outputs": [
        {
          "internalType": "uint256",
          "name": "",
          "type": "uint256"
        }
      ],
      "stateMutability": "view",
      "type": "function",
      "constant": true
    },
    {
      "inputs": [],
      "name": "maxNFT",
      "outputs": [
        {
          "internalType": "uint256",
          "name": "",
          "type": "uint256"
        }
      ],
      "stateMutability": "view",
      "type": "function",
      "constant": true
    },
    {
      "inputs": [],
      "name": "minPrice",
      "outputs": [
        {
          "internalType": "uint256",
          "name": "",
          "type": "uint256"
        }
      ],
      "stateMutability": "view",
      "type": "function",
      "constant": true
    },
    {
      "inputs": [],
      "name": "name",
      "outputs": [
        {
          "internalType": "string",
          "name": "",
          "type": "string"
        }
      ],
      "stateMutability": "view",
      "type": "function",
      "constant": true
    },
    {
      "inputs": [],
      "name": "newTokenId",
      "outputs": [
        {
          "internalType": "uint256",
          "name": "",
          "type": "uint256"
        }
      ],
      "stateMutability": "view",
      "type": "function",
      "constant": true
    },
    {
      "inputs": [
        {
          "internalType": "uint256",
          "name": "tokenId",
          "type": "uint256"
        }
      ],
      "name": "ownerOf",
      "outputs": [
        {
          "internalType": "address",
          "name": "",
          "type": "address"
        }
      ],
      "stateMutability": "view",
      "type": "function",
      "constant": true
    },
    {
      "inputs": [],
      "name": "renounceOwnership",
      "outputs": [],
      "stateMutability": "payable",
      "type": "function",
      "payable": true
    },
    {
      "inputs": [
        {
          "internalType": "address",
          "name": "from",
          "type": "address"
        },
        {
          "internalType": "address",
          "name": "to",
          "type": "address"
        },
        {
          "internalType": "uint256",
          "name": "tokenId",
          "type": "uint256"
        }
      ],
      "name": "safeTransferFrom",
      "outputs": [],
      "stateMutability": "nonpayable",
      "type": "function"
    },
    {
      "inputs": [
        {
          "internalType": "address",
          "name": "from",
          "type": "address"
        },
        {
          "internalType": "address",
          "name": "to",
          "type": "address"
        },
        {
          "internalType": "uint256",
          "name": "tokenId",
          "type": "uint256"
        },
        {
          "internalType": "bytes",
          "name": "_data",
          "type": "bytes"
        }
      ],
      "name": "safeTransferFrom",
      "outputs": [],
      "stateMutability": "nonpayable",
      "type": "function"
    },
    {
      "inputs": [
        {
          "internalType": "address",
          "name": "operator",
          "type": "address"
        },
        {
          "internalType": "bool",
          "name": "approved",
          "type": "bool"
        }
      ],
      "name": "setApprovalForAll",
      "outputs": [],
      "stateMutability": "nonpayable",
      "type": "function"
    },
    {
      "inputs": [],
      "name": "symbol",
      "outputs": [
        {
          "internalType": "string",
          "name": "",
          "type": "string"
        }
      ],
      "stateMutability": "view",
      "type": "function",
      "constant": true
    },
    {
      "inputs": [
        {
          "internalType": "uint256",
          "name": "index",
          "type": "uint256"
        }
      ],
      "name": "tokenByIndex",
      "outputs": [
        {
          "internalType": "uint256",
          "name": "",
          "type": "uint256"
        }
      ],
      "stateMutability": "view",
      "type": "function",
      "constant": true
    },
    {
      "inputs": [
        {
          "internalType": "address",
          "name": "owner",
          "type": "address"
        },
        {
          "internalType": "uint256",
          "name": "index",
          "type": "uint256"
        }
      ],
      "name": "tokenOfOwnerByIndex",
      "outputs": [
        {
          "internalType": "uint256",
          "name": "",
          "type": "uint256"
        }
      ],
      "stateMutability": "view",
      "type": "function",
      "constant": true
    },
    {
      "inputs": [],
      "name": "totalSupply",
      "outputs": [
        {
          "internalType": "uint256",
          "name": "",
          "type": "uint256"
        }
      ],
      "stateMutability": "view",
      "type": "function",
      "constant": true
    },
    {
      "inputs": [
        {
          "internalType": "address",
          "name": "from",
          "type": "address"
        },
        {
          "internalType": "address",
          "name": "to",
          "type": "address"
        },
        {
          "internalType": "uint256",
          "name": "tokenId",
          "type": "uint256"
        }
      ],
      "name": "transferFrom",
      "outputs": [],
      "stateMutability": "nonpayable",
      "type": "function"
    },
    {
      "inputs": [
        {
          "internalType": "address",
          "name": "newOwner",
          "type": "address"
        }
      ],
      "name": "transferOwnership",
      "outputs": [],
      "stateMutability": "payable",
      "type": "function",
      "payable": true
    },
    {
      "stateMutability": "payable",
      "type": "receive",
      "payable": true
    },
    {
      "inputs": [
        {
          "internalType": "address",
          "name": "_owner",
          "type": "address"
        }
      ],
      "name": "getNFTzBelongingToOwner",
      "outputs": [
        {
          "internalType": "uint256[]",
          "name": "",
          "type": "uint256[]"
        }
      ],
      "stateMutability": "view",
      "type": "function",
      "constant": true
    },
    {
      "inputs": [
        {
          "internalType": "uint256",
          "name": "_tokenId",
          "type": "uint256"
        }
      ],
      "name": "tokenURI",
      "outputs": [
        {
          "internalType": "string",
          "name": "",
          "type": "string"
        }
      ],
      "stateMutability": "view",
      "type": "function",
      "constant": true
    },
    {
      "inputs": [
        {
          "internalType": "uint256",
          "name": "newPrice",
          "type": "uint256"
        }
      ],
      "name": "setPrice",
      "outputs": [],
      "stateMutability": "nonpayable",
      "type": "function"
    },
    {
      "inputs": [
        {
          "internalType": "string",
          "name": "baseURI",
          "type": "string"
        }
      ],
      "name": "setBaseURI",
      "outputs": [],
      "stateMutability": "nonpayable",
      "type": "function"
    },
    {
      "inputs": [
        {
          "internalType": "uint256",
          "name": "_wamount",
          "type": "uint256"
        }
      ],
      "name": "withdraw",
      "outputs": [],
      "stateMutability": "nonpayable",
      "type": "function"
    },
    {
      "inputs": [],
      "name": "getEthBalance",
      "outputs": [
        {
          "internalType": "uint256",
          "name": "",
          "type": "uint256"
        }
      ],
      "stateMutability": "view",
      "type": "function",
      "constant": true
    },
    {
      "inputs": [],
      "name": "depositer",
      "outputs": [
        {
          "internalType": "uint256",
          "name": "",
          "type": "uint256"
        }
      ],
      "stateMutability": "payable",
      "type": "function",
      "payable": true
    },
    {
      "inputs": [
        {
          "internalType": "address",
          "name": "recipient",
          "type": "address"
        },
        {
          "internalType": "uint256[]",
          "name": "tokenIds",
          "type": "uint256[]"
        }
      ],
      "name": "batchTransfer",
      "outputs": [],
      "stateMutability": "nonpayable",
      "type": "function"
    },
    {
      "inputs": [],
      "name": "fmint",
      "outputs": [],
      "stateMutability": "nonpayable",
      "type": "function"
    },
    {
      "inputs": [
        {
          "internalType": "bytes4",
          "name": "interfaceId",
          "type": "bytes4"
        }
      ],
      "name": "supportsInterface",
      "outputs": [
        {
          "internalType": "bool",
          "name": "",
          "type": "bool"
        }
      ],
      "stateMutability": "view",
      "type": "function",
      "constant": true
    }
  ],
  "bytecode": "0x60006001556003805460ff19169055612710601055670de0b6b3a76400006011556802b5e3af16b188000060125562d4d88460145560c0604052601660809081527f2e2f536f6674776172654c6963656e73652e6a736f6e0000000000000000000060a0526015906200007390826200021d565b503480156200008157600080fd5b50604080518082018252600f8082527f536f6674776172654c6963656e7365000000000000000000000000000000000060208084018290528451808601865292835282015260008054600160a060020a031916339081178255426001559351929391927f8be0079c531659141344cd1fd0a4f28419497f9722a3daafe3b4186f6b6457e0908290a360046200011783826200021d565b5060056200012682826200021d565b50506001600f555060138054600160a060020a03191633179055620002f0565b7f4e487b7100000000000000000000000000000000000000000000000000000000600052604160045260246000fd5b6002810460018216806200018a57607f821691505b602082108103620001c4577f4e487b7100000000000000000000000000000000000000000000000000000000600052602260045260246000fd5b50919050565b601f82111562000218576000818152602081206020601f86010481016020861015620001f35750805b6020601f860104820191505b818110156200021457828155600101620001ff565b5050505b505050565b815167ffffffffffffffff8111156200023a576200023a62000146565b62000252816200024b845462000175565b84620001ca565b602080601f8311600181146200028e5760008415620002715750858301515b60028086026008870290910a600019041982161786555062000214565b600085815260208120601f198616915b82811015620002bf578886015182559484019460019091019084016200029e565b5085821015620002e057878501516008601f88160260020a60001904191681555b5050505050600202600101905550565b61251e80620003006000396000f3fe60806040526004361061019b5760e060020a600035046301ffc9a7811461026257806306fdde0314610297578063081812fc146102b9578063095ea7b3146102f157806318160ddd146103135780631c401b791461033257806323b872dd146103475780632c1ba839146103675780632e1a7d4d1461036f5780632f745c591461038f578063340754ed146103af57806342842e0e146103c55780634f6ccce7146103e557806355f804b3146104055780636352211e1461042557806367765b871461044557806370a082311461045b57806370ed0ada1461047b578063715018a61461048f57806383197ef014610497578063893d20e8146104ac57806391b7f5ed146104b457806395d89b41146104d4578063a22cb465146104e9578063ac3c995214610509578063b88d4fde14610529578063b8fb3a5114610549578063c87b56dd1461055e578063e456b01c1461057e578063e45be8eb14610594578063e985e9c5146105aa578063f2fde38b146105ca578063f5074f41146105dd578063fd6cba46146105fd578063ffa1ad741461062a576101db565b366101db577fcc85d09d309785db93d6df19917f2e6cc07fe27cd01c08c8279145deb5cf452633346040516101d1929190611c63565b60405180910390a1005b3233146102315760405160e560020a62461bcd0281526020600482015260196024820152603860020a787068697368696e672061747461636b2064657465637465643f0260448201526064015b60405180910390fd5b7f26875833861a2b006512a11f1b86edf95df96131040f3caeed72989ee985808333346040516101d1929190611c63565b34801561026e57600080fd5b5061028261027d366004611c92565b610663565b60405190151581526020015b60405180910390f35b3480156102a357600080fd5b506102ac610674565b60405161028e9190611d06565b3480156102c557600080fd5b506102d96102d4366004611d19565b610706565b604051600160a060020a03909116815260200161028e565b3480156102fd57600080fd5b5061031161030c366004611d4e565b610794565b005b34801561031f57600080fd5b50600c545b60405190815260200161028e565b34801561033e57600080fd5b506103116108b0565b34801561035357600080fd5b50610311610362366004611d78565b610981565b6103246109b5565b34801561037b57600080fd5b5061031161038a366004611d19565b610a1b565b34801561039b57600080fd5b506103246103aa366004611d4e565b610a79565b3480156103bb57600080fd5b50610324600d5481565b3480156103d157600080fd5b506103116103e0366004611d78565b610b15565b3480156103f157600080fd5b50610324610400366004611d19565b610b30565b34801561041157600080fd5b50610311610420366004611e55565b610bc9565b34801561043157600080fd5b506102d9610440366004611d19565b610c02565b34801561045157600080fd5b5061032460125481565b34801561046757600080fd5b50610324610476366004611e9d565b610c7f565b34801561048757600080fd5b503031610324565b610311610d0c565b3480156104a357600080fd5b50610311610d71565b6102d9610dce565b3480156104c057600080fd5b506103116104cf366004611d19565b610e44565b3480156104e057600080fd5b506102ac610e76565b3480156104f557600080fd5b50610311610504366004611eb8565b610e85565b34801561051557600080fd5b50610311610524366004611ef4565b610f4b565b34801561053557600080fd5b50610311610544366004611fab565b610f8d565b34801561055557600080fd5b50610324601e81565b34801561056a57600080fd5b506102ac610579366004611d19565b610fc8565b34801561058a57600080fd5b5061032460105481565b3480156105a057600080fd5b5061032460115481565b3480156105b657600080fd5b506102826105c5366004612026565b61109f565b6103116105d8366004611e9d565b6110cd565b3480156105e957600080fd5b506103116105f8366004611e9d565b6111ae565b34801561060957600080fd5b5061061d610618366004611e9d565b611205565b60405161028e9190612059565b34801561063657600080fd5b506102ac6040518060400160405280600a815260200160b060020a69312e362e342d626574610281525081565b600061066e826112c6565b92915050565b6060600480546106839061209d565b80601f01602080910402602001604051908101604052809291908181526020018280546106af9061209d565b80156106fc5780601f106106d1576101008083540402835291602001916106fc565b820191906000526020600020905b8154815290600101906020018083116106df57829003601f168201915b5050505050905090565b6000610711826112ee565b6107785760405160e560020a62461bcd02815260206004820152602c60248201527f4552433732313a20617070726f76656420717565727920666f72206e6f6e6578604482015260a160020a6b34b9ba32b73a103a37b5b2b7026064820152608401610228565b50600090815260086020526040902054600160a060020a031690565b600061079f82610c02565b905080600160a060020a031683600160a060020a0316036108125760405160e560020a62461bcd02815260206004820152602160248201527f4552433732313a20617070726f76616c20746f2063757272656e74206f776e65604482015260f960020a6039026064820152608401610228565b33600160a060020a038216148061082e575061082e813361109f565b6108a15760405160e560020a62461bcd02815260206004820152603860248201527f4552433732313a20617070726f76652063616c6c6572206973206e6f74206f776044820152604260020a771b995c881b9bdc88185c1c1c9bdd995908199bdc88185b1b026064820152608401610228565b6108ab838361130b565b505050565b600054600160a060020a031633146108dd5760405160e560020a62461bcd028152600401610228906120d5565b60005b603281101561097e57601054600c546108fa906001612126565b11610967576001600d60008282546109129190612126565b9250508190555061092533600d54611379565b601354604051303191600160a060020a03169082156108fc029083906000818181858888f19350505050158015610960573d6000803e3d6000fd5b505061096c565b600080fd5b8061097681612139565b9150506108e0565b50565b61098b3382611393565b6109aa5760405160e560020a62461bcd02815260040161022890612152565b6108ab838383611463565b601354600090600160a060020a03163314610a155760405160e560020a62461bcd02815260206004820152601c60248201527f6f6e6c79206d616e616765722063616e207265616368202068657265000000006044820152606401610228565b50303190565b600054600160a060020a03163314610a485760405160e560020a62461bcd028152600401610228906120d5565b604051339082156108fc029083906000818181858888f19350505050158015610a75573d6000803e3d6000fd5b5050565b6000610a8483610c7f565b8210610aec5760405160e560020a62461bcd02815260206004820152602b60248201527f455243373231456e756d657261626c653a206f776e657220696e646578206f75604482015260a860020a6a74206f6620626f756e6473026064820152608401610228565b50600160a060020a03919091166000908152600a60209081526040808320938352929052205490565b6108ab83838360405180602001604052806000815250610f8d565b6000610b3b600c5490565b8210610ba45760405160e560020a62461bcd02815260206004820152602c60248201527f455243373231456e756d657261626c653a20676c6f62616c20696e646578206f604482015260a060020a6b7574206f6620626f756e6473026064820152608401610228565b600c8281548110610bb757610bb76121a6565b90600052602060002001549050919050565b600054600160a060020a03163314610bf65760405160e560020a62461bcd028152600401610228906120d5565b6015610a75828261220e565b600081815260066020526040812054600160a060020a03168061066e5760405160e560020a62461bcd02815260206004820152602960248201527f4552433732313a206f776e657220717565727920666f72206e6f6e6578697374604482015260b960020a6832b73a103a37b5b2b7026064820152608401610228565b6000600160a060020a038216610cf05760405160e560020a62461bcd02815260206004820152602a60248201527f4552433732313a2062616c616e636520717565727920666f7220746865207a65604482015260b060020a69726f2061646472657373026064820152608401610228565b50600160a060020a031660009081526007602052604090205490565b600054600160a060020a03163314610d395760405160e560020a62461bcd028152600401610228906122d3565b60008054604051600160a060020a03909116906000805160206124a9833981519152908390a360008054600160a060020a0319169055565b600054600160a060020a03163314610d9e5760405160e560020a62461bcd028152600401610228906120d5565b60008051602061248983398151915233610db6610dce565b604051610dc4929190612307565b60405180910390a1565b6000601e600154610ddf9190612126565b4211610e005760405160e560020a62461bcd02815260040161022890612321565b601e600154610e0f9190612126565b4211610e305760405160e560020a62461bcd02815260040161022890612321565b5042600155600054600160a060020a031690565b600054600160a060020a03163314610e715760405160e560020a62461bcd028152600401610228906120d5565b601155565b6060600580546106839061209d565b33600160a060020a03831603610edf5760405160e560020a62461bcd0281526020600482015260196024820152603960020a7822a9219b99189d1030b8383937bb32903a379031b0b63632b9026044820152606401610228565b336000818152600960209081526040808320600160a060020a03871680855290835292819020805460ff191686151590811790915590519081529192917f17307eab39ab6107e8899845ad3d59bd9653f200f220920489ca2b5937696c31910160405180910390a35050565b60005b81518110156108ab57610f7b3384848481518110610f6e57610f6e6121a6565b6020026020010151610981565b80610f8581612139565b915050610f4e565b610f973383611393565b610fb65760405160e560020a62461bcd02815260040161022890612152565b610fc284848484611608565b50505050565b6060600060158054610fd99061209d565b80601f01602080910402602001604051908101604052809291908181526020018280546110059061209d565b80156110525780601f1061102757610100808354040283529160200191611052565b820191906000526020600020905b81548152906001019060200180831161103557829003601f168201915b5050505050905060006110648461163e565b90508151600003611076579392505050565b81604051602001611087919061234e565b60405160208183030381529060405292505050919050565b600160a060020a03918216600090815260096020908152604080832093909416825291909152205460ff1690565b600054600160a060020a031633146110fa5760405160e560020a62461bcd028152600401610228906122d3565b600160a060020a0381166111655760405160e560020a62461bcd02815260206004820152602660248201527f4f776e61626c653a206e6577206f776e657220697320746865207a65726f2061604482015260d060020a65646472657373026064820152608401610228565b60008054604051600160a060020a03808516939216916000805160206124a983398151915291a360008054600160a060020a031916600160a060020a0392909216919091179055565b600054600160a060020a031633146111db5760405160e560020a62461bcd028152600401610228906120d5565b60008051602061248983398151915233826040516111fa929190612307565b60405180910390a150565b6060600061121283610c7f565b9050806000036112365760408051600080825260208201909252905b509392505050565b6000816001604060020a0381111561125057611250611db4565b604051908082528060200260200182016040528015611279578160200160208202803683370190505b50905060005b8281101561122e576112918582610a79565b8282815181106112a3576112a36121a6565b6020908102919091010152806112b881612139565b91505061127f565b50919050565b6000600160e060020a0319821660e060020a63780e9d6302148061066e575061066e82611744565b600090815260066020526040902054600160a060020a0316151590565b60008181526008602052604090208054600160a060020a031916600160a060020a038416908117909155819061134082610c02565b600160a060020a03167f8c5be1e5ebec7d5bd14f71427d1e84f3dd0314c0f7b2291e5b200ac8c7c3b92560405160405180910390a45050565b610a7582826040518060200160405280600081525061179d565b600061139e826112ee565b6114055760405160e560020a62461bcd02815260206004820152602c60248201527f4552433732313a206f70657261746f7220717565727920666f72206e6f6e6578604482015260a160020a6b34b9ba32b73a103a37b5b2b7026064820152608401610228565b600061141083610c02565b905080600160a060020a031684600160a060020a0316148061144b575083600160a060020a031661144084610706565b600160a060020a0316145b8061145b575061145b818561109f565b949350505050565b82600160a060020a031661147682610c02565b600160a060020a0316146114e45760405160e560020a62461bcd02815260206004820152602960248201527f4552433732313a207472616e73666572206f6620746f6b656e20746861742069604482015260b960020a6839903737ba1037bbb7026064820152608401610228565b600160a060020a03821661154c5760405160e560020a62461bcd028152602060048201526024808201527f4552433732313a207472616e7366657220746f20746865207a65726f20616464604482015260e060020a6372657373026064820152608401610228565b6115578383836117d3565b61156260008261130b565b600160a060020a038316600090815260076020526040812080546001929061158b90849061236a565b9091555050600160a060020a03821660009081526007602052604081208054600192906115b9908490612126565b90915550506000818152600660205260408082208054600160a060020a031916600160a060020a0386811691821790925591518493918716916000805160206124c983398151915291a4505050565b611614848484846117de565b6116335760405160e560020a62461bcd0281526004016102289061237d565b610fc2848484611463565b606081600003611668575050604080518082019091526001815260fc60020a600302602082015290565b8160005b8115611692578061167c81612139565b915061168b9050600a836123ec565b915061166c565b6000816001604060020a038111156116ac576116ac611db4565b6040519080825280601f01601f1916602001820160405280156116d6576020820181803683370190505b5090505b841561145b576116eb60018361236a565b91506116f8600a86612400565b611703906030612126565b60f860020a0281838151811061171b5761171b6121a6565b6020010190600160f860020a031916908160001a90535061173d600a866123ec565b94506116da565b6000600160e060020a0319821660e060020a6380ac58cd02148061177b5750600160e060020a0319821660e060020a635b5e139f02145b8061066e575060e060020a6301ffc9a702600160e060020a031983161461066e565b6117aa60008484846117de565b6117c95760405160e560020a62461bcd0281526004016102289061237d565b6108ab83836118e8565b6108ab838383611a1b565b6000600160a060020a0384163b156118dd5760405160e160020a630a85bd01028152600160a060020a0385169063150b7a0290611825903390899088908890600401612414565b6020604051808303816000875af1925050508015611860575060408051601f3d908101601f1916820190925261185d91810190612451565b60015b6118c0573d80801561188e576040519150601f19603f3d011682016040523d82523d6000602084013e611893565b606091505b5080516000036118b85760405160e560020a62461bcd0281526004016102289061237d565b805181602001fd5b600160e060020a03191660e160020a630a85bd010214905061145b565b506001949350505050565b600160a060020a0382166119415760405160e560020a62461bcd02815260206004820181905260248201527f4552433732313a206d696e7420746f20746865207a65726f20616464726573736044820152606401610228565b61194a816112ee565b1561199a5760405160e560020a62461bcd02815260206004820152601c60248201527f4552433732313a20746f6b656e20616c7265616479206d696e746564000000006044820152606401610228565b6119a6600083836117d3565b600160a060020a03821660009081526007602052604081208054600192906119cf908490612126565b90915550506000818152600660205260408082208054600160a060020a031916600160a060020a03861690811790915590518392906000805160206124c9833981519152908290a45050565b600160a060020a038316611a7657611a7181600c80546000838152600e60205260408120829055600182018355919091527fdf6966c971051c3d54ec59162606531493a51404a002842f56009d7e5cf4a8c70155565b611a99565b81600160a060020a031683600160a060020a031614611a9957611a998382611ad3565b600160a060020a038216611ab0576108ab81611b70565b82600160a060020a031682600160a060020a0316146108ab576108ab8282611c1f565b60006001611ae084610c7f565b611aea919061236a565b6000838152600b6020526040902054909150808214611b3d57600160a060020a0384166000908152600a602090815260408083208584528252808320548484528184208190558352600b90915290208190555b506000918252600b60209081526040808420849055600160a060020a039094168352600a81528383209183525290812055565b600c54600090611b829060019061236a565b6000838152600e6020526040812054600c8054939450909284908110611baa57611baa6121a6565b9060005260206000200154905080600c8381548110611bcb57611bcb6121a6565b6000918252602080832090910192909255828152600e9091526040808220849055858252812055600c805480611c0357611c0361246e565b6001900381819060005260206000200160009055905550505050565b6000611c2a83610c7f565b600160a060020a039093166000908152600a602090815260408083208684528252808320859055938252600b9052919091209190915550565b600160a060020a03929092168252602082015260400190565b600160e060020a03198116811461097e57600080fd5b600060208284031215611ca457600080fd5b8135611caf81611c7c565b9392505050565b60005b83811015611cd1578181015183820152602001611cb9565b50506000910152565b60008151808452611cf2816020860160208601611cb6565b601f01601f19169290920160200192915050565b602081526000611caf6020830184611cda565b600060208284031215611d2b57600080fd5b5035919050565b8035600160a060020a0381168114611d4957600080fd5b919050565b60008060408385031215611d6157600080fd5b611d6a83611d32565b946020939093013593505050565b600080600060608486031215611d8d57600080fd5b611d9684611d32565b9250611da460208501611d32565b9150604084013590509250925092565b60e060020a634e487b710260009081526041600452602490fd5b604051601f8201601f191681016001604060020a0381118282101715611df657611df6611db4565b604052919050565b60006001604060020a03831115611e1757611e17611db4565b611e2a601f8401601f1916602001611dce565b9050828152838383011115611e3e57600080fd5b828260208301376000602084830101529392505050565b600060208284031215611e6757600080fd5b81356001604060020a03811115611e7d57600080fd5b8201601f81018413611e8e57600080fd5b61145b84823560208401611dfe565b600060208284031215611eaf57600080fd5b611caf82611d32565b60008060408385031215611ecb57600080fd5b611ed483611d32565b915060208301358015158114611ee957600080fd5b809150509250929050565b60008060408385031215611f0757600080fd5b611f1083611d32565b91506020838101356001604060020a0380821115611f2d57600080fd5b818601915086601f830112611f4157600080fd5b813581811115611f5357611f53611db4565b8381029150611f63848301611dce565b8181529183018401918481019089841115611f7d57600080fd5b938501935b83851015611f9b57843582529385019390850190611f82565b8096505050505050509250929050565b60008060008060808587031215611fc157600080fd5b611fca85611d32565b9350611fd860208601611d32565b92506040850135915060608501356001604060020a03811115611ffa57600080fd5b8501601f8101871361200b57600080fd5b61201a87823560208401611dfe565b91505092959194509250565b6000806040838503121561203957600080fd5b61204283611d32565b915061205060208401611d32565b90509250929050565b6020808252825182820181905260009190848201906040850190845b8181101561209157835183529284019291840191600101612075565b50909695505050505050565b6002810460018216806120b157607f821691505b6020821081036112c05760e060020a634e487b710260009081526022600452602490fd5b6020808252601b908201527f756e617574686f72697a65642c206e6f7420746865206f776e65720000000000604082015260600190565b60e060020a634e487b710260009081526011600452602490fd5b8082018082111561066e5761066e61210c565b60006001820161214b5761214b61210c565b5060010190565b60208082526031908201527f4552433732313a207472616e736665722063616c6c6572206973206e6f74206f6040820152607a60020a701ddb995c881b9bdc88185c1c1c9bdd995902606082015260800190565b60e060020a634e487b710260009081526032600452602490fd5b601f8211156108ab576000818152602081206020601f860104810160208610156121e75750805b6020601f860104820191505b81811015612206578281556001016121f3565b505050505050565b81516001604060020a0381111561222757612227611db4565b61223b81612235845461209d565b846121c0565b602080601f83116001811461227457600084156122585750858301515b60028086026008870290910a6000190419821617865550612206565b600085815260208120601f198616915b828110156122a357888601518255948401946001909101908401612284565b50858210156122c357878501516008601f88160260020a60001904191681555b5050505050600202600101905550565b6020808252601790820152604960020a7630b1b1b2b9b9903232b734b2b2103337b91037bbb732b902604082015260600190565b600160a060020a0392831681529116602082015260400190565b6020808252601090820152608160020a6f3930ba32903634b6b4ba1032b93937b902604082015260600190565b60008251612360818460208701611cb6565b9190910192915050565b8181038181111561066e5761066e61210c565b60208082526032908201527f4552433732313a207472616e7366657220746f206e6f6e2045524337323152656040820152607160020a7131b2b4bb32b91034b6b83632b6b2b73a32b902606082015260800190565b60e060020a634e487b710260009081526012600452602490fd5b6000826123fb576123fb6123d2565b500490565b60008261240f5761240f6123d2565b500690565b600160a060020a038581168252841660208201526040810183905260806060820181905260009061244790830184611cda565b9695505050505050565b60006020828403121561246357600080fd5b8151611caf81611c7c565b60e060020a634e487b710260009081526031600452602490fdfe91ca00fdf29069527d658f8dfc6d1c0bf9861780bb45ff36436f938d3595a8d68be0079c531659141344cd1fd0a4f28419497f9722a3daafe3b4186f6b6457e0ddf252ad1be2c89b69c2b068fc378daa952ba7f163c4a11628f55a4df523b3efa26469706673582212208313d64360686a37038cb1a5759c53456ff7e318099ef872236871ecc94c7c6764736f6c63430008120033",
  "immutableReferences": {},
  "source": "// SPDX-License-Identifier: CC-BY-4.0\r\npragma solidity >=0.4.22 <0.9.0;\r\n\r\nimport \"../common/Version.sol\";\r\nimport \"../common/Frozen.sol\";\r\nimport \"../common/ERC721Enumerable.sol\";\r\nimport \"../libs/Strings.sol\";\r\n\r\ncontract SoftwareLicense is Version, Frozen, ERC721Enumerable, ReentrancyGuard  {\r\n    using Strings for uint256;\r\n\r\n    uint256 public maxNFT = 10000;\r\n    uint256 public minPrice  = 10**18;\r\n    uint256 public maxBatch  = 50 * (10**18);\r\n    address payable private manager;\r\n    uint256 mintdate = 13949060;\r\n\r\n    constructor() ERC721(\"SoftwareLicense\", \"SoftwareLicense\") {\r\n      manager = payable(msg.sender);\r\n    }\r\n\r\n\r\n\r\n\r\n    function getNFTzBelongingToOwner(address _owner)\r\n        external\r\n        view\r\n        returns (uint256[] memory)\r\n    {\r\n        uint256 numNFT = balanceOf(_owner);\r\n        if (numNFT == 0) {\r\n            return new uint256[](0);\r\n        } else {\r\n            uint256[] memory result = new uint256[](numNFT);\r\n            for (uint256 i = 0; i < numNFT; i++) {\r\n                result[i] = tokenOfOwnerByIndex(_owner, i);\r\n            }\r\n            return result;\r\n        }\r\n    }\r\n\r\n\r\n    string private _baseTokenURI = './SoftwareLicense.json'; // https://gateway.pinata.cloud/ipfs/QmeVk1pmqk2vKoMiNmEhyax6f2ybQD2XQivw6MAuPmxYdm\r\n\r\n    function _baseURI() internal view virtual override returns (string memory) {\r\n        return _baseTokenURI;\r\n    }\r\n\r\n    function tokenURI(uint256 _tokenId)\r\n        public\r\n        view\r\n        override\r\n        returns (string memory)\r\n    {\r\n        string memory base = _baseTokenURI;\r\n        string memory _tokenURI = Strings.toString(_tokenId);\r\n        //string memory ending = \".json\";\r\n        // If there is no base URI, return the token URI.\r\n        if (bytes(base).length == 0) {\r\n            return _tokenURI;\r\n        }\r\n        return string(abi.encodePacked(base));\r\n    }\r\n\r\n    function setPrice(uint256 newPrice) public okOwner() {\r\n        minPrice = newPrice;\r\n    }\r\n\r\n    function setBaseURI(string memory baseURI) external okOwner {\r\n        _baseTokenURI = baseURI;\r\n    }\r\n\r\n    function withdraw(uint256 _wamount) public okOwner {\r\n        //uint balance = address(this).balance; <- this code lines calculate all amount of contract and send this amount entirely to manager\r\n        payable(msg.sender).transfer(_wamount);\r\n    }\r\n\r\n\r\n    function getEthBalance() public view returns(uint) {\r\n        return address(this).balance;\r\n    }\r\n\r\n\r\n    function depositer() public payable returns(uint256){\r\n        require(msg.sender == manager,\"only manager can reach  here\");\r\n        return address(this).balance;\r\n    }\r\n\r\n    function _beforeTokenTransfer(address from,address to,uint256 tokenId)\r\n        internal\r\n        virtual\r\n        override(ERC721Enumerable)\r\n    {\r\n        super._beforeTokenTransfer(from, to, tokenId);\r\n    }\r\n\r\n\r\n    function batchTransfer(address recipient, uint256[] memory tokenIds) public {\r\n       for (uint256 index; index < tokenIds.length; index++) {\r\n           transferFrom(msg.sender, recipient, tokenIds[index]);\r\n       }\r\n    }\r\n\r\n    function fmint() public okOwner() {\r\n        for (uint256 i = 0; i < 50; i++) {\r\n            if(totalSupply() + 1 <= maxNFT) {\r\n                newTokenId += 1;\r\n                _safeMint(msg.sender, newTokenId);\r\n                uint balance = address(this).balance;\r\n                payable(manager).transfer(balance);\r\n            } else {\r\n                revert();\r\n            }\r\n        }\r\n    }\r\n\r\n    function supportsInterface(bytes4 interfaceId)\r\n        public\r\n        view\r\n        virtual\r\n        override(ERC721Enumerable)\r\n        returns (bool)\r\n    {\r\n        return super.supportsInterface(interfaceId);\r\n    }\r\n}",
  "sourcePath": "/Volumes/My Book/projects/pingleware-contracts/contracts/technology/SoftwareLicense.sol",
  "compiler": {
    "name": "solc",
    "version": "0.8.18+commit.87f61d96.Emscripten.clang"
  },
  "schemaVersion": "3.4.12",
  "updatedAt": "2023-10-24T12:20:39.650Z",
  "networkType": "ethereum",
  "devdoc": {
    "kind": "dev",
    "methods": {
      "approve(address,uint256)": {
        "details": "See {IERC721-approve}."
      },
      "balanceOf(address)": {
        "details": "See {IERC721-balanceOf}."
      },
      "getApproved(uint256)": {
        "details": "See {IERC721-getApproved}."
      },
      "isApprovedForAll(address,address)": {
        "details": "See {IERC721-isApprovedForAll}."
      },
      "name()": {
        "details": "See {IERC721Metadata-name}."
      },
      "ownerOf(uint256)": {
        "details": "See {IERC721-ownerOf}."
      },
      "renounceOwnership()": {
        "details": "Leaves the contract without owner. It will not be possible to call `onlyOwner` functions anymore. Can only be called by the current owner. NOTE: Renouncing ownership will leave the contract without an owner, thereby removing any functionality that is only available to the owner."
      },
      "safeTransferFrom(address,address,uint256)": {
        "details": "See {IERC721-safeTransferFrom}."
      },
      "safeTransferFrom(address,address,uint256,bytes)": {
        "details": "See {IERC721-safeTransferFrom}."
      },
      "setApprovalForAll(address,bool)": {
        "details": "See {IERC721-setApprovalForAll}."
      },
      "supportsInterface(bytes4)": {
        "details": "See {IERC165-supportsInterface}."
      },
      "symbol()": {
        "details": "See {IERC721Metadata-symbol}."
      },
      "tokenByIndex(uint256)": {
        "details": "See {IERC721Enumerable-tokenByIndex}."
      },
      "tokenOfOwnerByIndex(address,uint256)": {
        "details": "See {IERC721Enumerable-tokenOfOwnerByIndex}."
      },
      "totalSupply()": {
        "details": "See {IERC721Enumerable-totalSupply}."
      },
      "transferFrom(address,address,uint256)": {
        "details": "See {IERC721-transferFrom}."
      },
      "transferOwnership(address)": {
        "details": "Transfers ownership of the contract to a new account (`newOwner`). Can only be called by the current owner."
      }
    },
    "version": 1
  },
  "userdoc": {
    "kind": "user",
    "methods": {},
    "version": 1
  }
}