{
  "contractName": "StateGovernment",
  "abi": [
    {
      "inputs": [],
      "stateMutability": "nonpayable",
      "type": "constructor"
    },
    {
      "anonymous": false,
      "inputs": [
        {
          "indexed": false,
          "internalType": "uint256",
          "name": "billId",
          "type": "uint256"
        },
        {
          "indexed": false,
          "internalType": "address",
          "name": "sponsor",
          "type": "address"
        },
        {
          "indexed": false,
          "internalType": "string",
          "name": "title",
          "type": "string"
        }
      ],
      "name": "BillIntroduced",
      "type": "event"
    },
    {
      "anonymous": false,
      "inputs": [
        {
          "indexed": false,
          "internalType": "uint256",
          "name": "billId",
          "type": "uint256"
        },
        {
          "indexed": false,
          "internalType": "enum StateGovernment.BillStatus",
          "name": "status",
          "type": "uint8"
        }
      ],
      "name": "BillStatusChange",
      "type": "event"
    },
    {
      "inputs": [],
      "name": "billCounter",
      "outputs": [
        {
          "internalType": "uint256",
          "name": "",
          "type": "uint256"
        }
      ],
      "stateMutability": "view",
      "type": "function"
    },
    {
      "inputs": [
        {
          "internalType": "uint256",
          "name": "",
          "type": "uint256"
        }
      ],
      "name": "bills",
      "outputs": [
        {
          "internalType": "uint256",
          "name": "billId",
          "type": "uint256"
        },
        {
          "internalType": "address",
          "name": "sponsor",
          "type": "address"
        },
        {
          "internalType": "string",
          "name": "title",
          "type": "string"
        },
        {
          "internalType": "enum StateGovernment.BillStatus",
          "name": "status",
          "type": "uint8"
        }
      ],
      "stateMutability": "view",
      "type": "function"
    },
    {
      "inputs": [],
      "name": "governor",
      "outputs": [
        {
          "internalType": "address",
          "name": "",
          "type": "address"
        }
      ],
      "stateMutability": "view",
      "type": "function"
    },
    {
      "inputs": [
        {
          "internalType": "uint256",
          "name": "",
          "type": "uint256"
        }
      ],
      "name": "houseMembers",
      "outputs": [
        {
          "internalType": "address",
          "name": "",
          "type": "address"
        }
      ],
      "stateMutability": "view",
      "type": "function"
    },
    {
      "inputs": [
        {
          "internalType": "uint256",
          "name": "",
          "type": "uint256"
        }
      ],
      "name": "senateMembers",
      "outputs": [
        {
          "internalType": "address",
          "name": "",
          "type": "address"
        }
      ],
      "stateMutability": "view",
      "type": "function"
    },
    {
      "inputs": [
        {
          "internalType": "address",
          "name": "account",
          "type": "address"
        }
      ],
      "name": "isSenateMember",
      "outputs": [
        {
          "internalType": "bool",
          "name": "",
          "type": "bool"
        }
      ],
      "stateMutability": "view",
      "type": "function"
    },
    {
      "inputs": [
        {
          "internalType": "address",
          "name": "account",
          "type": "address"
        }
      ],
      "name": "isHouseMember",
      "outputs": [
        {
          "internalType": "bool",
          "name": "",
          "type": "bool"
        }
      ],
      "stateMutability": "view",
      "type": "function"
    },
    {
      "inputs": [
        {
          "internalType": "address",
          "name": "newMember",
          "type": "address"
        }
      ],
      "name": "addSenateMember",
      "outputs": [],
      "stateMutability": "nonpayable",
      "type": "function"
    },
    {
      "inputs": [
        {
          "internalType": "address",
          "name": "newMember",
          "type": "address"
        }
      ],
      "name": "addHouseMember",
      "outputs": [],
      "stateMutability": "nonpayable",
      "type": "function"
    },
    {
      "inputs": [
        {
          "internalType": "string",
          "name": "title",
          "type": "string"
        }
      ],
      "name": "introduceBill",
      "outputs": [],
      "stateMutability": "nonpayable",
      "type": "function"
    },
    {
      "inputs": [
        {
          "internalType": "uint256",
          "name": "billId",
          "type": "uint256"
        },
        {
          "internalType": "enum StateGovernment.BillStatus",
          "name": "status",
          "type": "uint8"
        }
      ],
      "name": "passBill",
      "outputs": [],
      "stateMutability": "nonpayable",
      "type": "function"
    }
  ],
  "bytecode": "0x608060405234801561001057600080fd5b5060008054600160a060020a03199081163390811783556001805480820182557fb10e2d527612073b26eecdfd717e6a320cf44b4afac2b0732d9fcbe2b7fa0cf601805484168317905560028054918201815584527f405787fa12a823e0f2b7631cc41b3ba8828b3321ca811111fa75cd3aa3bb5ace018054909216179055600455610b5c806100a16000396000f3fe608060405234801561001057600080fd5b506004361061009c5760e060020a60003504630c340a2481146100a157806328bdcde8146100d157806339ee3c17146100f45780633eac18241461010757806346c28a081461011c5780634ed89ab61461012f578063779d5fda146101525780637c9e64c7146101655780639d7a033914610178578063ba3addc91461018f578063c226aedb146101a2575b600080fd5b6000546100b490600160a060020a031681565b604051600160a060020a0390911681526020015b60405180910390f35b6100e46100df3660046106f5565b6101b5565b6040516100c89493929190610794565b6100b46101023660046106f5565b610273565b61011a6101153660046107d6565b61029d565b005b61011a61012a366004610820565b610325565b61014261013d3660046107d6565b61048a565b60405190151581526020016100c8565b6101426101603660046107d6565b6104f3565b6100b46101733660046106f5565b610553565b61018160045481565b6040519081526020016100c8565b61011a61019d3660046108d0565b610563565b61011a6101b03660046107d6565b610677565b6003602052600090815260409020805460018201546002830180549293600160a060020a03909216926101e790610904565b80601f016020809104026020016040519081016040528092919081815260200182805461021390610904565b80156102605780601f1061023557610100808354040283529160200191610260565b820191906000526020600020905b81548152906001019060200180831161024357829003601f168201915b5050506003909301549192505060ff1684565b6002818154811061028357600080fd5b600091825260209091200154600160a060020a0316905081565b600054600160a060020a031633146102d35760405160e560020a62461bcd0281526004016102ca90610942565b60405180910390fd5b600280546001810182556000919091527f405787fa12a823e0f2b7631cc41b3ba8828b3321ca811111fa75cd3aa3bb5ace018054600160a060020a031916600160a060020a0392909216919091179055565b61032e336104f3565b6103955760405160e560020a62461bcd02815260206004820152602c60248201527f4f6e6c792053656e617465206d656d626572732063616e20706572666f726d20604482015260a160020a6b3a3434b99030b1ba34b7b7170260648201526084016102ca565b600480549060006103a58361098f565b909155505060408051608081018252600454815233602082015290810182905260608101600090526004546000908152600360209081526040918290208351815590830151600182018054600160a060020a031916600160a060020a0390921691909117905590820151600282019061041e9082610a09565b50606082015160038201805460ff1916600183600481111561044257610442610754565b02179055509050507f37857be678fc43a22c7cce89173b9ca3e4d048fd6c0fca4854aeec4a3a0e2f69600454338360405161047f93929190610ace565b60405180910390a150565b6000805b6002548110156104ea5782600160a060020a0316600282815481106104b5576104b5610af8565b600091825260209091200154600160a060020a0316036104d85750600192915050565b806104e28161098f565b91505061048e565b50600092915050565b6000805b6001548110156104ea5782600160a060020a03166001828154811061051e5761051e610af8565b600091825260209091200154600160a060020a0316036105415750600192915050565b8061054b8161098f565b9150506104f7565b6001818154811061028357600080fd5b600054600160a060020a031633146105905760405160e560020a62461bcd0281526004016102ca90610942565b60008281526003602081905260408220015460ff1660048111156105b6576105b6610754565b146106065760405160e560020a62461bcd02815260206004820152601c60248201527f546869732062696c6c2063616e6e6f74206265206368616e6765642e0000000060448201526064016102ca565b600082815260036020819052604090912001805482919060ff1916600183600481111561063557610635610754565b02179055507fcb2f5d9b75374e2f47d0fb8fb90447b80c7e9a633b7272375579232228b1e6a4828260405161066b929190610b12565b60405180910390a15050565b600054600160a060020a031633146106a45760405160e560020a62461bcd0281526004016102ca90610942565b6001805480820182556000919091527fb10e2d527612073b26eecdfd717e6a320cf44b4afac2b0732d9fcbe2b7fa0cf6018054600160a060020a031916600160a060020a0392909216919091179055565b60006020828403121561070757600080fd5b5035919050565b6000815180845260005b8181101561073457602081850181015186830182015201610718565b506000602082860101526020601f19601f83011685010191505092915050565b60e060020a634e487b710260009081526021600452602490fd5b600581106107905760e060020a634e487b710260009081526021600452602490fd5b9052565b848152600160a060020a03841660208201526080604082018190526000906107be9083018561070e565b90506107cd606083018461076e565b95945050505050565b6000602082840312156107e857600080fd5b8135600160a060020a03811681146107ff57600080fd5b9392505050565b60e060020a634e487b710260009081526041600452602490fd5b60006020828403121561083257600080fd5b81356001604060020a038082111561084957600080fd5b818401915084601f83011261085d57600080fd5b81358181111561086f5761086f610806565b604051601f8201601f19908116603f0116810190838211818310171561089757610897610806565b816040528281528760208487010111156108b057600080fd5b826020860160208301376000928101602001929092525095945050505050565b600080604083850312156108e357600080fd5b823591506020830135600581106108f957600080fd5b809150509250929050565b60028104600182168061091857607f821691505b60208210810361093c5760e060020a634e487b710260009081526022600452602490fd5b50919050565b6020808252602a908201527f4f6e6c792074686520476f7665726e6f722063616e20706572666f726d207468604082015260b160020a6934b99030b1ba34b7b71702606082015260800190565b6000600182016109b35760e060020a634e487b710260009081526011600452602490fd5b5060010190565b601f821115610a04576000818152602081206020601f860104810160208610156109e15750805b6020601f860104820191505b81811015610a00578281556001016109ed565b5050505b505050565b81516001604060020a03811115610a2257610a22610806565b610a3681610a308454610904565b846109ba565b602080601f831160018114610a6f5760008415610a535750858301515b60028086026008870290910a6000190419821617865550610a00565b600085815260208120601f198616915b82811015610a9e57888601518255948401946001909101908401610a7f565b5085821015610abe57878501516008601f88160260020a60001904191681555b5050505050600202600101905550565b838152600160a060020a03831660208201526060604082018190526000906107cd9083018461070e565b60e060020a634e487b710260009081526032600452602490fd5b828152604081016107ff602083018461076e56fea2646970667358221220a400e377391a8fbc8093ed896079065adc5b93e1daf3a079a2cd01f1036d05bd64736f6c63430008120033",
  "immutableReferences": {},
  "source": "// SPDX-License-Identifier: BSL-1.1\npragma solidity >=0.4.22 <0.9.0;\n\ncontract StateGovernment {\n    address public governor;\n    address[] public senateMembers;\n    address[] public houseMembers;\n\n    enum BillStatus { Introduced, PassedSenate, PassedHouse, SignedIntoLaw, Vetoed }\n\n    struct Bill {\n        uint256 billId;\n        address sponsor;\n        string title;\n        BillStatus status;\n    }\n\n    mapping(uint256 => Bill) public bills;\n    uint256 public billCounter;\n\n    event BillIntroduced(uint256 billId, address sponsor, string title);\n    event BillStatusChange(uint256 billId, BillStatus status);\n\n    modifier onlyGovernor() {\n        require(msg.sender == governor, \"Only the Governor can perform this action.\");\n        _;\n    }\n\n    modifier onlySenateMember() {\n        require(isSenateMember(msg.sender), \"Only Senate members can perform this action.\");\n        _;\n    }\n\n    modifier onlyHouseMember() {\n        require(isHouseMember(msg.sender), \"Only House members can perform this action.\");\n        _;\n    }\n\n    constructor() {\n        governor = msg.sender;\n        senateMembers.push(msg.sender);\n        houseMembers.push(msg.sender);\n        billCounter = 0;\n    }\n\n    function isSenateMember(address account) public view returns (bool) {\n        for (uint256 i = 0; i < senateMembers.length; i++) {\n            if (senateMembers[i] == account) {\n                return true;\n            }\n        }\n        return false;\n    }\n\n    function isHouseMember(address account) public view returns (bool) {\n        for (uint256 i = 0; i < houseMembers.length; i++) {\n            if (houseMembers[i] == account) {\n                return true;\n            }\n        }\n        return false;\n    }\n\n    function addSenateMember(address newMember) public onlyGovernor {\n        senateMembers.push(newMember);\n    }\n\n    function addHouseMember(address newMember) public onlyGovernor {\n        houseMembers.push(newMember);\n    }\n\n    function introduceBill(string memory title) public onlySenateMember {\n        billCounter++;\n        bills[billCounter] = Bill(billCounter, msg.sender, title, BillStatus.Introduced);\n        emit BillIntroduced(billCounter, msg.sender, title);\n    }\n\n    function passBill(uint256 billId, BillStatus status) public onlyGovernor {\n        require(bills[billId].status == BillStatus.Introduced, \"This bill cannot be changed.\");\n        bills[billId].status = status;\n        emit BillStatusChange(billId, status);\n    }\n}\n",
  "sourcePath": "/Volumes/My Book/projects/pingleware-contracts/contracts/government/state/StateGovernment.sol",
  "compiler": {
    "name": "solc",
    "version": "0.8.18+commit.87f61d96.Emscripten.clang"
  },
  "schemaVersion": "3.4.12",
  "updatedAt": "2023-10-22T00:31:38.991Z",
  "devdoc": {
    "kind": "dev",
    "methods": {},
    "version": 1
  },
  "userdoc": {
    "kind": "user",
    "methods": {},
    "version": 1
  }
}