{
  "contractName": "StateGovernment",
  "abi": [
    {
      "inputs": [
        {
          "internalType": "string",
          "name": "name",
          "type": "string"
        }
      ],
      "stateMutability": "nonpayable",
      "type": "constructor"
    },
    {
      "anonymous": false,
      "inputs": [
        {
          "indexed": false,
          "internalType": "uint256",
          "name": "billId",
          "type": "uint256"
        },
        {
          "indexed": false,
          "internalType": "address",
          "name": "sponsor",
          "type": "address"
        },
        {
          "indexed": false,
          "internalType": "string",
          "name": "title",
          "type": "string"
        }
      ],
      "name": "BillIntroduced",
      "type": "event"
    },
    {
      "anonymous": false,
      "inputs": [
        {
          "indexed": false,
          "internalType": "uint256",
          "name": "billId",
          "type": "uint256"
        },
        {
          "indexed": false,
          "internalType": "enum StateGovernment.BillStatus",
          "name": "status",
          "type": "uint8"
        }
      ],
      "name": "BillStatusChange",
      "type": "event"
    },
    {
      "inputs": [],
      "name": "billCounter",
      "outputs": [
        {
          "internalType": "uint256",
          "name": "",
          "type": "uint256"
        }
      ],
      "stateMutability": "view",
      "type": "function"
    },
    {
      "inputs": [
        {
          "internalType": "uint256",
          "name": "",
          "type": "uint256"
        }
      ],
      "name": "bills",
      "outputs": [
        {
          "internalType": "uint256",
          "name": "billId",
          "type": "uint256"
        },
        {
          "internalType": "address",
          "name": "sponsor",
          "type": "address"
        },
        {
          "internalType": "string",
          "name": "title",
          "type": "string"
        },
        {
          "internalType": "enum StateGovernment.BillStatus",
          "name": "status",
          "type": "uint8"
        }
      ],
      "stateMutability": "view",
      "type": "function"
    },
    {
      "inputs": [],
      "name": "governor",
      "outputs": [
        {
          "internalType": "address",
          "name": "",
          "type": "address"
        }
      ],
      "stateMutability": "view",
      "type": "function"
    },
    {
      "inputs": [
        {
          "internalType": "uint256",
          "name": "",
          "type": "uint256"
        }
      ],
      "name": "houseMembers",
      "outputs": [
        {
          "internalType": "address",
          "name": "",
          "type": "address"
        }
      ],
      "stateMutability": "view",
      "type": "function"
    },
    {
      "inputs": [
        {
          "internalType": "uint256",
          "name": "",
          "type": "uint256"
        }
      ],
      "name": "senateMembers",
      "outputs": [
        {
          "internalType": "address",
          "name": "",
          "type": "address"
        }
      ],
      "stateMutability": "view",
      "type": "function"
    },
    {
      "inputs": [],
      "name": "stateName",
      "outputs": [
        {
          "internalType": "string",
          "name": "",
          "type": "string"
        }
      ],
      "stateMutability": "view",
      "type": "function"
    },
    {
      "inputs": [
        {
          "internalType": "address",
          "name": "account",
          "type": "address"
        }
      ],
      "name": "isSenateMember",
      "outputs": [
        {
          "internalType": "bool",
          "name": "",
          "type": "bool"
        }
      ],
      "stateMutability": "view",
      "type": "function"
    },
    {
      "inputs": [
        {
          "internalType": "address",
          "name": "account",
          "type": "address"
        }
      ],
      "name": "isHouseMember",
      "outputs": [
        {
          "internalType": "bool",
          "name": "",
          "type": "bool"
        }
      ],
      "stateMutability": "view",
      "type": "function"
    },
    {
      "inputs": [
        {
          "internalType": "address",
          "name": "newMember",
          "type": "address"
        }
      ],
      "name": "addSenateMember",
      "outputs": [],
      "stateMutability": "nonpayable",
      "type": "function"
    },
    {
      "inputs": [
        {
          "internalType": "address",
          "name": "newMember",
          "type": "address"
        }
      ],
      "name": "addHouseMember",
      "outputs": [],
      "stateMutability": "nonpayable",
      "type": "function"
    },
    {
      "inputs": [
        {
          "internalType": "string",
          "name": "title",
          "type": "string"
        }
      ],
      "name": "introduceBill",
      "outputs": [],
      "stateMutability": "nonpayable",
      "type": "function"
    },
    {
      "inputs": [
        {
          "internalType": "uint256",
          "name": "billId",
          "type": "uint256"
        },
        {
          "internalType": "enum StateGovernment.BillStatus",
          "name": "status",
          "type": "uint8"
        }
      ],
      "name": "passBill",
      "outputs": [],
      "stateMutability": "nonpayable",
      "type": "function"
    }
  ],
  "bytecode": "0x608060405234620002f55762000e1b803803806200001d81620002fa565b9283398101906020918282820312620002f55781516001604060020a0392838211620002f5570192601f92828486011215620002f5578451818111620001b457601f19956200007282870188168501620002fa565b94828652848383010111620002f557839060005b838110620002e0575050600091850101528251908111620001b457600054946002938487049560018098168015620002d5575b85881014620002a6578087116200025b575b83949596508592818511600114620001ef575050600092620001e3575b505060088202840a600019041916908302176000555b600160a060020a03199233848254161781558254680100000000000000009384821015620001b45782820180825582101562000185576000528260002001338582541617905560035492831015620001b45782018060035582101562000185576003600052600020019033908254161790556000600555604051610afa9081620003218239f35b7f4e487b7100000000000000000000000000000000000000000000000000000000600052603260045260246000fd5b7f4e487b7100000000000000000000000000000000000000000000000000000000600052604160045260246000fd5b015190503880620000e8565b928895938895169260008052876000209360005b8982821062000241575050851162000225575b505050500201600055620000fe565b0151908316600802840a60001904191690553880808062000216565b8385015187558c998c995090960195938401930162000203565b600080528460002085828601048101978686106200029b575b9086838b93010401975b8881106200028e575050620000cb565b600081550188906200027e565b909750879062000274565b7f4e487b7100000000000000000000000000000000000000000000000000000000600052602260045260246000fd5b96607f1696620000b9565b81810183015187820184015285920162000086565b600080fd5b6040519190601f01601f191682016001604060020a03811183821017620001b45760405256fe608080604052600436101561001357600080fd5b60e060020a6000350490630c340a2482146108535750806328bdcde81461075057806339ee3c17146107275780633eac1824146106d257806346c28a08146103f35780634ed89ab6146103c4578063779d5fda1461038b5780637c9e64c7146103465780639d7a033914610328578063ba3addc91461021b578063c127d9a2146101385763c226aedb146100a657600080fd5b3461013357602036600319011261013357600435600160a060020a0381811691829003610133576100dc81600154163314610a47565b600254604060020a811015610119578060016100fb920160025561095b565b909260088454920260020a8093029283910216911916179055600080f35b60e060020a634e487b710260009081526041600452602490fd5b600080fd5b346101335760003660031901126101335760405160009060005461015b81610877565b8083526001918083169081156101f4575060011461019c575b61019883610184818703826108b6565b6040519182916020835260208301906108d9565b0390f35b600080805260209450917f290decd9548b62a8d60345a988386fc84ba6bc95484008f6362f93160ef3e5635b8284106101e15750505081019091019061018481610174565b80548585018701529285019281016101c8565b610198955061018493506020915091849260ff191682840152151581028201019350610174565b3461013357604036600319011261013357600435602435600581101561013357610251600160a060020a03600154163314610a47565b81600052600460205260ff60036040600020015416600581101561030e576102c657816102c36040927fcb2f5d9b75374e2f47d0fb8fb90447b80c7e9a633b7272375579232228b1e6a49460005260046020526102b48160038660002001610aac565b83519283526020830190610919565ba1005b60405160e560020a62461bcd02815260206004820152601c60248201527f546869732062696c6c2063616e6e6f74206265206368616e6765642e000000006044820152606490fd5b60e060020a634e487b710260009081526021600452602490fd5b34610133576000366003190112610133576020600554604051908152f35b34610133576020366003190112610133576004356002548110156101335761036f60209161095b565b9054604051600890920260020a9004600160a060020a03168152f35b3461013357602036600319011261013357600435600160a060020a0381168103610133576103ba60209161099f565b6040519015158152f35b3461013357602036600319011261013357600435600160a060020a0381168103610133576103ba6020916109f4565b34610133576020366003190112610133576004356001604060020a038082116101335736602383011215610133578160040135918183116101195760405191601f1993601f9261044a6020878685011601866108b6565b8185523660248383010111610133578160009260246020930183880137850101526104743361099f565b1561067257610484600554610976565b93846005556040519260808401848110848211176101195760405285845260208401953387526040850190868252600060608701526000526004602052604060002096855188556001880190600160a060020a03905116600160a060020a031982541617905551908151938411610119576105026002880154610877565b818111610628575b506020928185116001146105b2575050918091606094936000926105a7575b5050816002029160080260020a6000190419161760028501555b015191600583101561030e577f37857be678fc43a22c7cce89173b9ca3e4d048fd6c0fca4854aeec4a3a0e2f6992600361057d9201610aac565b6005546105a260405192839283523360208401526060604084015260608301906108d9565b0390a1005b015190508680610529565b849391929316926002880160005260206000209360005b81811061061057509285926001959260609897600296106105f5575b5050505002016002850155610543565b0151908316600802840a6000190419169055878080806105e5565b929460206001819288860151815501960193016105c9565b6002880160005260206000208260208188010482019260208810610668575b602091010401905b81811061065c575061050a565b6000815560010161064f565b9192508291610647565b60405160e560020a62461bcd02815260206004820152602c60248201527f4f6e6c792053656e617465206d656d626572732063616e20706572666f726d20604482015260a160020a6b3a3434b99030b1ba34b7b717026064820152608490fd5b3461013357602036600319011261013357600435600160a060020a03818116918290036101335761070881600154163314610a47565b600354604060020a811015610119578060016100fb9201600355610926565b34610133576020366003190112610133576004356003548110156101335761036f602091610926565b34610133576020806003193601126101335760043560005260048152604060002080549060018060a060020a038183015416916002810191856040519360009281549161079c83610877565b8088529282811690811561083357506001146107fa575b505050509160ff60036107ef936107cf846101989703856108b6565b0154169360405196879687528601526080604086015260808501906108d9565b916060840190610919565b6000908152838120939450925b82841061082057505050830101856003836107cf6107b3565b8054878501860152928401928101610807565b60ff191685890152505050151581028401019050856003836107cf6107b3565b3461013357600036600319011261013357600154600160a060020a03168152602090f35b90600160028304921680156108ac575b602083101461089257565b60e060020a634e487b710260009081526022600452602490fd5b91607f1691610887565b601f909101601f19168101906001604060020a0382119082101761011957604052565b919082519283825260005b848110610905575050826000602080949584010152601f8019910116010190565b6020818301810151848301820152016108e4565b90600582101561030e5752565b60035481101561094157600360005260206000200190600090565b60e060020a634e487b710260009081526032600452602490fd5b60025481101561094157600260005260206000200190600090565b60001981146109855760010190565b60e060020a634e487b710260009081526011600452602490fd5b600280549160005b8381106109b75750505050600090565b6109c08161095b565b9054600160a060020a038481166008909302860a90910416146109eb576109e690610976565b6109a7565b50505050600190565b6003549060005b828110610a0a57505050600090565b610a1381610926565b9054600160a060020a03848116600890930260020a9091041614610a3f57610a3a90610976565b6109fb565b505050600190565b15610a4e57565b60405160e560020a62461bcd02815260206004820152602a60248201527f4f6e6c792074686520476f7665726e6f722063616e20706572666f726d207468604482015260b160020a6934b99030b1ba34b7b717026064820152608490fd5b90600581101561030e5760ff8019835416911617905556fea264697066735822122059b151141536ba0f500eb94cee46e7e745d20deacf8804c22674318241bc8ab364736f6c63430008120033",
  "immutableReferences": {},
  "source": "// SPDX-License-Identifier: BSL-1.1\npragma solidity >=0.4.22 <0.9.0;\n\ncontract StateGovernment {\n    string public stateName;\n    address public governor;\n    address[] public senateMembers;\n    address[] public houseMembers;\n\n    enum BillStatus { Introduced, PassedSenate, PassedHouse, SignedIntoLaw, Vetoed }\n\n    struct Bill {\n        uint256 billId;\n        address sponsor;\n        string title;\n        BillStatus status;\n    }\n\n    mapping(uint256 => Bill) public bills;\n    uint256 public billCounter;\n\n    event BillIntroduced(uint256 billId, address sponsor, string title);\n    event BillStatusChange(uint256 billId, BillStatus status);\n\n    modifier onlyGovernor() {\n        require(msg.sender == governor, \"Only the Governor can perform this action.\");\n        _;\n    }\n\n    modifier onlySenateMember() {\n        require(isSenateMember(msg.sender), \"Only Senate members can perform this action.\");\n        _;\n    }\n\n    modifier onlyHouseMember() {\n        require(isHouseMember(msg.sender), \"Only House members can perform this action.\");\n        _;\n    }\n\n    constructor(string memory name) {\n        stateName = name;\n        governor = msg.sender;\n        senateMembers.push(msg.sender);\n        houseMembers.push(msg.sender);\n        billCounter = 0;\n    }\n\n    function isSenateMember(address account) public view returns (bool) {\n        for (uint256 i = 0; i < senateMembers.length; i++) {\n            if (senateMembers[i] == account) {\n                return true;\n            }\n        }\n        return false;\n    }\n\n    function isHouseMember(address account) public view returns (bool) {\n        for (uint256 i = 0; i < houseMembers.length; i++) {\n            if (houseMembers[i] == account) {\n                return true;\n            }\n        }\n        return false;\n    }\n\n    function addSenateMember(address newMember) public onlyGovernor {\n        senateMembers.push(newMember);\n    }\n\n    function addHouseMember(address newMember) public onlyGovernor {\n        houseMembers.push(newMember);\n    }\n\n    function introduceBill(string memory title) public onlySenateMember {\n        billCounter++;\n        bills[billCounter] = Bill(billCounter, msg.sender, title, BillStatus.Introduced);\n        emit BillIntroduced(billCounter, msg.sender, title);\n    }\n\n    function passBill(uint256 billId, BillStatus status) public onlyGovernor {\n        require(bills[billId].status == BillStatus.Introduced, \"This bill cannot be changed.\");\n        bills[billId].status = status;\n        emit BillStatusChange(billId, status);\n    }\n}\n",
  "sourcePath": "/Volumes/HOME/pingleware-contracts/contracts/government/state/StateGovernment.sol",
  "compiler": {
    "name": "solc",
    "version": "0.8.18+commit.87f61d96.Emscripten.clang"
  },
  "schemaVersion": "3.4.12",
  "updatedAt": "2024-05-23T18:56:26.338Z",
  "devdoc": {
    "kind": "dev",
    "methods": {},
    "version": 1
  },
  "userdoc": {
    "kind": "user",
    "methods": {},
    "version": 1
  }
}