{
  "contractName": "StateGovernment",
  "abi": [
    {
      "inputs": [
        {
          "internalType": "string",
          "name": "name",
          "type": "string"
        }
      ],
      "stateMutability": "nonpayable",
      "type": "constructor"
    },
    {
      "anonymous": false,
      "inputs": [
        {
          "indexed": false,
          "internalType": "uint256",
          "name": "billId",
          "type": "uint256"
        },
        {
          "indexed": false,
          "internalType": "address",
          "name": "sponsor",
          "type": "address"
        },
        {
          "indexed": false,
          "internalType": "string",
          "name": "title",
          "type": "string"
        }
      ],
      "name": "BillIntroduced",
      "type": "event"
    },
    {
      "anonymous": false,
      "inputs": [
        {
          "indexed": false,
          "internalType": "uint256",
          "name": "billId",
          "type": "uint256"
        },
        {
          "indexed": false,
          "internalType": "enum StateGovernment.BillStatus",
          "name": "status",
          "type": "uint8"
        }
      ],
      "name": "BillStatusChange",
      "type": "event"
    },
    {
      "inputs": [],
      "name": "billCounter",
      "outputs": [
        {
          "internalType": "uint256",
          "name": "",
          "type": "uint256"
        }
      ],
      "stateMutability": "view",
      "type": "function",
      "constant": true
    },
    {
      "inputs": [
        {
          "internalType": "uint256",
          "name": "",
          "type": "uint256"
        }
      ],
      "name": "bills",
      "outputs": [
        {
          "internalType": "uint256",
          "name": "billId",
          "type": "uint256"
        },
        {
          "internalType": "address",
          "name": "sponsor",
          "type": "address"
        },
        {
          "internalType": "string",
          "name": "title",
          "type": "string"
        },
        {
          "internalType": "enum StateGovernment.BillStatus",
          "name": "status",
          "type": "uint8"
        }
      ],
      "stateMutability": "view",
      "type": "function",
      "constant": true
    },
    {
      "inputs": [],
      "name": "governor",
      "outputs": [
        {
          "internalType": "address",
          "name": "",
          "type": "address"
        }
      ],
      "stateMutability": "view",
      "type": "function",
      "constant": true
    },
    {
      "inputs": [
        {
          "internalType": "uint256",
          "name": "",
          "type": "uint256"
        }
      ],
      "name": "houseMembers",
      "outputs": [
        {
          "internalType": "address",
          "name": "",
          "type": "address"
        }
      ],
      "stateMutability": "view",
      "type": "function",
      "constant": true
    },
    {
      "inputs": [
        {
          "internalType": "uint256",
          "name": "",
          "type": "uint256"
        }
      ],
      "name": "senateMembers",
      "outputs": [
        {
          "internalType": "address",
          "name": "",
          "type": "address"
        }
      ],
      "stateMutability": "view",
      "type": "function",
      "constant": true
    },
    {
      "inputs": [],
      "name": "stateName",
      "outputs": [
        {
          "internalType": "string",
          "name": "",
          "type": "string"
        }
      ],
      "stateMutability": "view",
      "type": "function",
      "constant": true
    },
    {
      "inputs": [
        {
          "internalType": "address",
          "name": "account",
          "type": "address"
        }
      ],
      "name": "isSenateMember",
      "outputs": [
        {
          "internalType": "bool",
          "name": "",
          "type": "bool"
        }
      ],
      "stateMutability": "view",
      "type": "function",
      "constant": true
    },
    {
      "inputs": [
        {
          "internalType": "address",
          "name": "account",
          "type": "address"
        }
      ],
      "name": "isHouseMember",
      "outputs": [
        {
          "internalType": "bool",
          "name": "",
          "type": "bool"
        }
      ],
      "stateMutability": "view",
      "type": "function",
      "constant": true
    },
    {
      "inputs": [
        {
          "internalType": "address",
          "name": "newMember",
          "type": "address"
        }
      ],
      "name": "addSenateMember",
      "outputs": [],
      "stateMutability": "nonpayable",
      "type": "function"
    },
    {
      "inputs": [
        {
          "internalType": "address",
          "name": "newMember",
          "type": "address"
        }
      ],
      "name": "addHouseMember",
      "outputs": [],
      "stateMutability": "nonpayable",
      "type": "function"
    },
    {
      "inputs": [
        {
          "internalType": "string",
          "name": "title",
          "type": "string"
        }
      ],
      "name": "introduceBill",
      "outputs": [],
      "stateMutability": "nonpayable",
      "type": "function"
    },
    {
      "inputs": [
        {
          "internalType": "uint256",
          "name": "billId",
          "type": "uint256"
        },
        {
          "internalType": "enum StateGovernment.BillStatus",
          "name": "status",
          "type": "uint8"
        }
      ],
      "name": "passBill",
      "outputs": [],
      "stateMutability": "nonpayable",
      "type": "function"
    }
  ],
  "bytecode": "0x60806040523480156200001157600080fd5b5060405162000f8138038062000f818339810160408190526200003491620000ff565b60006200004282826200027c565b50506001805433600160a060020a031991821681178355600280548085019091557f405787fa12a823e0f2b7631cc41b3ba8828b3321ca811111fa75cd3aa3bb5ace01805483168217905560038054938401815560009081527fc2575a0e9e593c00f959f8c92f12db2869c3395a3b0502d05e2516446f71f85b90930180549092161790556005556200034e565b7f4e487b7100000000000000000000000000000000000000000000000000000000600052604160045260246000fd5b600060208083850312156200011357600080fd5b82516001604060020a03808211156200012b57600080fd5b818501915085601f8301126200014057600080fd5b815181811115620001555762000155620000d0565b604051601f8201601f19908116603f01168101908382118183101715620001805762000180620000d0565b8160405282815288868487010111156200019957600080fd5b600093505b82841015620001bd57848401860151818501870152928501926200019e565b600086848301015280965050505050505092915050565b600281046001821680620001e957607f821691505b60208210810362000223577f4e487b7100000000000000000000000000000000000000000000000000000000600052602260045260246000fd5b50919050565b601f82111562000277576000818152602081206020601f86010481016020861015620002525750805b6020601f860104820191505b8181101562000273578281556001016200025e565b5050505b505050565b81516001604060020a03811115620002985762000298620000d0565b620002b081620002a98454620001d4565b8462000229565b602080601f831160018114620002ec5760008415620002cf5750858301515b60028086026008870290910a600019041982161786555062000273565b600085815260208120601f198616915b828110156200031d57888601518255948401946001909101908401620002fc565b50858210156200033e57878501516008601f88160260020a60001904191681555b5050505050600202600101905550565b610c23806200035e6000396000f3fe608060405234801561001057600080fd5b50600436106100a75760e060020a60003504630c340a2481146100ac57806328bdcde8146100dc57806339ee3c17146100ff5780633eac18241461011257806346c28a08146101275780634ed89ab61461013a578063779d5fda1461015d5780637c9e64c7146101705780639d7a033914610183578063ba3addc91461019a578063c127d9a2146101ad578063c226aedb146101c2575b600080fd5b6001546100bf90600160a060020a031681565b604051600160a060020a0390911681526020015b60405180910390f35b6100ef6100ea3660046107a9565b6101d5565b6040516100d39493929190610848565b6100bf61010d3660046107a9565b610293565b61012561012036600461088a565b6102bd565b005b6101256101353660046108d4565b610345565b61014d61014836600461088a565b6104aa565b60405190151581526020016100d3565b61014d61016b36600461088a565b610513565b6100bf61017e3660046107a9565b610573565b61018c60055481565b6040519081526020016100d3565b6101256101a8366004610984565b610583565b6101b561069c565b6040516100d391906109b8565b6101256101d036600461088a565b61072a565b6004602052600090815260409020805460018201546002830180549293600160a060020a0390921692610207906109cb565b80601f0160208091040260200160405190810160405280929190818152602001828054610233906109cb565b80156102805780601f1061025557610100808354040283529160200191610280565b820191906000526020600020905b81548152906001019060200180831161026357829003601f168201915b5050506003909301549192505060ff1684565b600381815481106102a357600080fd5b600091825260209091200154600160a060020a0316905081565b600154600160a060020a031633146102f35760405160e560020a62461bcd0281526004016102ea90610a09565b60405180910390fd5b600380546001810182556000919091527fc2575a0e9e593c00f959f8c92f12db2869c3395a3b0502d05e2516446f71f85b018054600160a060020a031916600160a060020a0392909216919091179055565b61034e33610513565b6103b55760405160e560020a62461bcd02815260206004820152602c60248201527f4f6e6c792053656e617465206d656d626572732063616e20706572666f726d20604482015260a160020a6b3a3434b99030b1ba34b7b7170260648201526084016102ea565b600580549060006103c583610a56565b909155505060408051608081018252600554815233602082015290810182905260608101600090526005546000908152600460209081526040918290208351815590830151600182018054600160a060020a031916600160a060020a0390921691909117905590820151600282019061043e9082610ad0565b50606082015160038201805460ff1916600183600481111561046257610462610808565b02179055509050507f37857be678fc43a22c7cce89173b9ca3e4d048fd6c0fca4854aeec4a3a0e2f69600554338360405161049f93929190610b95565b60405180910390a150565b6000805b60035481101561050a5782600160a060020a0316600382815481106104d5576104d5610bbf565b600091825260209091200154600160a060020a0316036104f85750600192915050565b8061050281610a56565b9150506104ae565b50600092915050565b6000805b60025481101561050a5782600160a060020a03166002828154811061053e5761053e610bbf565b600091825260209091200154600160a060020a0316036105615750600192915050565b8061056b81610a56565b915050610517565b600281815481106102a357600080fd5b600154600160a060020a031633146105b05760405160e560020a62461bcd0281526004016102ea90610a09565b600082815260046020819052604082206003015460ff16908111156105d7576105d7610808565b146106275760405160e560020a62461bcd02815260206004820152601c60248201527f546869732062696c6c2063616e6e6f74206265206368616e6765642e0000000060448201526064016102ea565b60008281526004602081905260409091206003018054839260ff1990911690600190849081111561065a5761065a610808565b02179055507fcb2f5d9b75374e2f47d0fb8fb90447b80c7e9a633b7272375579232228b1e6a48282604051610690929190610bd9565b60405180910390a15050565b600080546106a9906109cb565b80601f01602080910402602001604051908101604052809291908181526020018280546106d5906109cb565b80156107225780601f106106f757610100808354040283529160200191610722565b820191906000526020600020905b81548152906001019060200180831161070557829003601f168201915b505050505081565b600154600160a060020a031633146107575760405160e560020a62461bcd0281526004016102ea90610a09565b600280546001810182556000919091527f405787fa12a823e0f2b7631cc41b3ba8828b3321ca811111fa75cd3aa3bb5ace018054600160a060020a031916600160a060020a0392909216919091179055565b6000602082840312156107bb57600080fd5b5035919050565b6000815180845260005b818110156107e8576020818501810151868301820152016107cc565b506000602082860101526020601f19601f83011685010191505092915050565b60e060020a634e487b710260009081526021600452602490fd5b600581106108445760e060020a634e487b710260009081526021600452602490fd5b9052565b848152600160a060020a0384166020820152608060408201819052600090610872908301856107c2565b90506108816060830184610822565b95945050505050565b60006020828403121561089c57600080fd5b8135600160a060020a03811681146108b357600080fd5b9392505050565b60e060020a634e487b710260009081526041600452602490fd5b6000602082840312156108e657600080fd5b81356001604060020a03808211156108fd57600080fd5b818401915084601f83011261091157600080fd5b813581811115610923576109236108ba565b604051601f8201601f19908116603f0116810190838211818310171561094b5761094b6108ba565b8160405282815287602084870101111561096457600080fd5b826020860160208301376000928101602001929092525095945050505050565b6000806040838503121561099757600080fd5b823591506020830135600581106109ad57600080fd5b809150509250929050565b6020815260006108b360208301846107c2565b6002810460018216806109df57607f821691505b602082108103610a035760e060020a634e487b710260009081526022600452602490fd5b50919050565b6020808252602a908201527f4f6e6c792074686520476f7665726e6f722063616e20706572666f726d207468604082015260b160020a6934b99030b1ba34b7b71702606082015260800190565b600060018201610a7a5760e060020a634e487b710260009081526011600452602490fd5b5060010190565b601f821115610acb576000818152602081206020601f86010481016020861015610aa85750805b6020601f860104820191505b81811015610ac757828155600101610ab4565b5050505b505050565b81516001604060020a03811115610ae957610ae96108ba565b610afd81610af784546109cb565b84610a81565b602080601f831160018114610b365760008415610b1a5750858301515b60028086026008870290910a6000190419821617865550610ac7565b600085815260208120601f198616915b82811015610b6557888601518255948401946001909101908401610b46565b5085821015610b8557878501516008601f88160260020a60001904191681555b5050505050600202600101905550565b838152600160a060020a0383166020820152606060408201819052600090610881908301846107c2565b60e060020a634e487b710260009081526032600452602490fd5b828152604081016108b3602083018461082256fea26469706673582212203e4fb21d7e61e3e42604bf8465aec012ec1cf3df0b62e54f142ad505be5e046e64736f6c63430008120033",
  "immutableReferences": {},
  "source": "// SPDX-License-Identifier: BSL-1.1\npragma solidity >=0.4.22 <0.9.0;\n\ncontract StateGovernment {\n    string public stateName;\n    address public governor;\n    address[] public senateMembers;\n    address[] public houseMembers;\n\n    enum BillStatus { Introduced, PassedSenate, PassedHouse, SignedIntoLaw, Vetoed }\n\n    struct Bill {\n        uint256 billId;\n        address sponsor;\n        string title;\n        BillStatus status;\n    }\n\n    mapping(uint256 => Bill) public bills;\n    uint256 public billCounter;\n\n    event BillIntroduced(uint256 billId, address sponsor, string title);\n    event BillStatusChange(uint256 billId, BillStatus status);\n\n    modifier onlyGovernor() {\n        require(msg.sender == governor, \"Only the Governor can perform this action.\");\n        _;\n    }\n\n    modifier onlySenateMember() {\n        require(isSenateMember(msg.sender), \"Only Senate members can perform this action.\");\n        _;\n    }\n\n    modifier onlyHouseMember() {\n        require(isHouseMember(msg.sender), \"Only House members can perform this action.\");\n        _;\n    }\n\n    constructor(string memory name) {\n        stateName = name;\n        governor = msg.sender;\n        senateMembers.push(msg.sender);\n        houseMembers.push(msg.sender);\n        billCounter = 0;\n    }\n\n    function isSenateMember(address account) public view returns (bool) {\n        for (uint256 i = 0; i < senateMembers.length; i++) {\n            if (senateMembers[i] == account) {\n                return true;\n            }\n        }\n        return false;\n    }\n\n    function isHouseMember(address account) public view returns (bool) {\n        for (uint256 i = 0; i < houseMembers.length; i++) {\n            if (houseMembers[i] == account) {\n                return true;\n            }\n        }\n        return false;\n    }\n\n    function addSenateMember(address newMember) public onlyGovernor {\n        senateMembers.push(newMember);\n    }\n\n    function addHouseMember(address newMember) public onlyGovernor {\n        houseMembers.push(newMember);\n    }\n\n    function introduceBill(string memory title) public onlySenateMember {\n        billCounter++;\n        bills[billCounter] = Bill(billCounter, msg.sender, title, BillStatus.Introduced);\n        emit BillIntroduced(billCounter, msg.sender, title);\n    }\n\n    function passBill(uint256 billId, BillStatus status) public onlyGovernor {\n        require(bills[billId].status == BillStatus.Introduced, \"This bill cannot be changed.\");\n        bills[billId].status = status;\n        emit BillStatusChange(billId, status);\n    }\n}\n",
  "sourcePath": "/Volumes/My Book/projects/pingleware-contracts/contracts/government/state/StateGovernment.sol",
  "compiler": {
    "name": "solc",
    "version": "0.8.18+commit.87f61d96.Emscripten.clang"
  },
  "schemaVersion": "3.4.12",
  "updatedAt": "2023-10-24T18:53:36.059Z",
  "networkType": "ethereum",
  "devdoc": {
    "kind": "dev",
    "methods": {},
    "version": 1
  },
  "userdoc": {
    "kind": "user",
    "methods": {},
    "version": 1
  }
}