{
  "contractName": "StockCertificate",
  "abi": [
    {
      "anonymous": false,
      "inputs": [
        {
          "indexed": false,
          "internalType": "address",
          "name": "_sender",
          "type": "address"
        }
      ],
      "name": "Sender",
      "type": "event"
    },
    {
      "inputs": [],
      "name": "getOwner",
      "outputs": [
        {
          "internalType": "address",
          "name": "",
          "type": "address"
        }
      ],
      "stateMutability": "view",
      "type": "function"
    },
    {
      "inputs": [
        {
          "internalType": "address",
          "name": "tokenAddress",
          "type": "address"
        },
        {
          "internalType": "string",
          "name": "symbol",
          "type": "string"
        },
        {
          "internalType": "address",
          "name": "_investor",
          "type": "address"
        },
        {
          "internalType": "uint256",
          "name": "_initialBalance",
          "type": "uint256"
        }
      ],
      "name": "issueCertificate",
      "outputs": [
        {
          "internalType": "uint256",
          "name": "",
          "type": "uint256"
        }
      ],
      "stateMutability": "nonpayable",
      "type": "function"
    },
    {
      "inputs": [
        {
          "internalType": "address",
          "name": "from",
          "type": "address"
        },
        {
          "internalType": "address",
          "name": "tokenAddress",
          "type": "address"
        },
        {
          "internalType": "uint256",
          "name": "_certificateId",
          "type": "uint256"
        },
        {
          "internalType": "address",
          "name": "_to",
          "type": "address"
        },
        {
          "internalType": "uint256",
          "name": "_amount",
          "type": "uint256"
        }
      ],
      "name": "transferCertificate",
      "outputs": [],
      "stateMutability": "nonpayable",
      "type": "function"
    },
    {
      "inputs": [
        {
          "internalType": "address",
          "name": "tokenAddress",
          "type": "address"
        },
        {
          "internalType": "uint256",
          "name": "_certificateId",
          "type": "uint256"
        }
      ],
      "name": "getCertificateBalance",
      "outputs": [
        {
          "internalType": "uint256",
          "name": "",
          "type": "uint256"
        }
      ],
      "stateMutability": "view",
      "type": "function"
    },
    {
      "inputs": [
        {
          "internalType": "address",
          "name": "_investor",
          "type": "address"
        }
      ],
      "name": "getInvestorCertificates",
      "outputs": [
        {
          "internalType": "uint256[]",
          "name": "",
          "type": "uint256[]"
        }
      ],
      "stateMutability": "view",
      "type": "function"
    },
    {
      "inputs": [
        {
          "internalType": "address",
          "name": "tokenAddress",
          "type": "address"
        },
        {
          "internalType": "address",
          "name": "wallet",
          "type": "address"
        },
        {
          "internalType": "uint256",
          "name": "_certificateId",
          "type": "uint256"
        }
      ],
      "name": "isCertificateValid",
      "outputs": [
        {
          "internalType": "bool",
          "name": "",
          "type": "bool"
        }
      ],
      "stateMutability": "view",
      "type": "function"
    }
  ],
  "bytecode": "0x6080604052600160035534801561001557600080fd5b5060008054600160a060020a031916331790556109c4806100376000396000f3fe608060405234801561001057600080fd5b50600436106100655760e060020a600035046307ec10bd811461006a5780636fdc79921461007f578063893d20e8146100d1578063a990e4e0146100ec578063d1c083ab1461010d578063fc52d54514610120575b600080fd5b61007d610078366004610620565b610140565b005b6100bc61008d366004610675565b600160a060020a0392831660009081526001602090815260408083209383529290522060020154821691161490565b60405190151581526020015b60405180910390f35b600054604051600160a060020a0390911681526020016100c8565b6100ff6100fa3660046106b1565b610393565b6040519081526020016100c8565b6100ff61011b3660046106db565b6103c1565b61013361012e366004610776565b610598565b6040516100c89190610798565b600160a060020a03821661019d5760405160e560020a62461bcd0281526020600482015260196024820152603860020a78496e76616c696420726563697069656e7420616464726573730260448201526064015b60405180910390fd5b600081116101f05760405160e560020a62461bcd02815260206004820181905260248201527f416d6f756e74206d7573742062652067726561746572207468616e207a65726f6044820152606401610194565b600160a060020a0384811660009081526001602090815260408083208784529091529020600201548116908616146102845760405160e560020a62461bcd02815260206004820152602b60248201527f53656e646572206973206e6f742074686520686f6c646572206f662074686520604482015260a860020a6a6365727469666963617465026064820152608401610194565b600160a060020a03841660009081526001602090815260408083208684529091529020600301548111156102fd5760405160e560020a62461bcd02815260206004820181905260248201527f496e73756666696369656e742063657274696669636174652062616c616e63656044820152606401610194565b600160a060020a0384166000908152600160209081526040808320868452909152812060030180548392906103339084906107f6565b909155505050600160a060020a03928316600090815260016020818152604080842086855282528084206002908101805498909616600160a060020a03199098168817909555958352928352938120805494850181558152209091015550565b600160a060020a03821660009081526001602090815260408083208484529091529020600301545b92915050565b6000600160a060020a03831661041a5760405160e560020a62461bcd0281526020600482015260186024820152604060020a77496e76616c696420696e766573746f722061646472657373026044820152606401610194565b600082116104825760405160e560020a62461bcd02815260206004820152602960248201527f496e697469616c2062616c616e6365206d757374206265206772656174657220604482015260b860020a687468616e207a65726f026064820152608401610194565b6040518060800160405280600354815260200186868080601f0160208091040260200160405190810160405280939291908181526020018383808284376000920182905250938552505050600160a060020a038087166020808501919091526040938401879052908a168252600180825283832060035484528252929091208351815590830151909182019061051890826108b0565b5060408281015160028381018054600160a060020a031916600160a060020a0393841617905560609094015160039384015586166000908152602093845290812082548154600181018355918352938220019290925580549161057a83610975565b9190505550600160035461058e91906107f6565b9695505050505050565b600160a060020a0381166000908152600260209081526040918290208054835181840281018401909452808452606093928301828280156105f857602002820191906000526020600020905b8154815260200190600101908083116105e4575b50505050509050919050565b8035600160a060020a038116811461061b57600080fd5b919050565b600080600080600060a0868803121561063857600080fd5b61064186610604565b945061064f60208701610604565b93506040860135925061066460608701610604565b949793965091946080013592915050565b60008060006060848603121561068a57600080fd5b61069384610604565b92506106a160208501610604565b9150604084013590509250925092565b600080604083850312156106c457600080fd5b6106cd83610604565b946020939093013593505050565b6000806000806000608086880312156106f357600080fd5b6106fc86610604565b945060208601356001604060020a038082111561071857600080fd5b818801915088601f83011261072c57600080fd5b81358181111561073b57600080fd5b89602082850101111561074d57600080fd5b60208301965080955050505061076560408701610604565b949793965091946060013592915050565b60006020828403121561078857600080fd5b61079182610604565b9392505050565b6020808252825182820181905260009190848201906040850190845b818110156107d0578351835292840192918401916001016107b4565b50909695505050505050565b60e060020a634e487b710260009081526011600452602490fd5b818103818111156103bb576103bb6107dc565b60e060020a634e487b710260009081526041600452602490fd5b60028104600182168061083757607f821691505b60208210810361085b5760e060020a634e487b710260009081526022600452602490fd5b50919050565b601f8211156108ab576000818152602081206020601f860104810160208610156108885750805b6020601f860104820191505b818110156108a757828155600101610894565b5050505b505050565b81516001604060020a038111156108c9576108c9610809565b6108dd816108d78454610823565b84610861565b602080601f83116001811461091657600084156108fa5750858301515b60028086026008870290910a60001904198216178655506108a7565b600085815260208120601f198616915b8281101561094557888601518255948401946001909101908401610926565b508582101561096557878501516008601f88160260020a60001904191681555b5050505050600202600101905550565b600060018201610987576109876107dc565b506001019056fea26469706673582212204fbe043e692c6b29802db101f412c2bcc87d6a6b6f4d9fd2e89bd19eaa5887a864736f6c63430008120033",
  "immutableReferences": {},
  "source": "// SPDX-License-Identifier: BSL-1.1\npragma solidity >=0.4.22 <0.9.0;\n\nimport \"./AccessControl.sol\";\n\ncontract StockCertificate is AccessControl {\n    // Struct to represent a certificate\n    struct StockCertificateMeta {\n        uint256 id;\n        string symbol;\n        address holder;\n        uint256 balance;\n    }\n\n    // Mapping from certificate ID to its data\n    mapping(address => mapping(uint256 => StockCertificateMeta)) private certificates;\n\n    // Mapping from investor wallet address to a list of certificate IDs they hold\n    mapping(address => uint256[]) private investorCertificates;\n\n    uint256 private nextCertificateId = 1; // Next available certificate ID\n\n\n    // Function to issue a certificate to an investor\n    function issueCertificate(address tokenAddress, string calldata symbol, address _investor, uint256 _initialBalance) external returns(uint256) {\n        require(_investor != address(0), \"Invalid investor address\");\n        require(_initialBalance > 0, \"Initial balance must be greater than zero\");\n\n        // Create a new certificate and add it to the mapping\n        certificates[tokenAddress][nextCertificateId] = StockCertificateMeta(nextCertificateId, symbol, _investor, _initialBalance);\n\n        // Add the certificate ID to the investor's list of certificates\n        investorCertificates[_investor].push(nextCertificateId);\n\n        // Increment the next available certificate ID\n        nextCertificateId++;\n\n        return nextCertificateId - 1;\n    }\n\n    // Function to transfer certificates (shares sold) from one investor to another\n    function transferCertificate(address from, address tokenAddress, uint256 _certificateId, address _to, uint256 _amount) external  {\n        require(_to != address(0), \"Invalid recipient address\");\n        require(_amount > 0, \"Amount must be greater than zero\");\n        require(certificates[tokenAddress][_certificateId].holder == from, \"Sender is not the holder of the certificate\");\n        require(certificates[tokenAddress][_certificateId].balance >= _amount, \"Insufficient certificate balance\");\n\n        // Update the balances of the sender and recipient\n        certificates[tokenAddress][_certificateId].balance -= _amount;\n        certificates[tokenAddress][_certificateId].holder = _to;\n\n        // Add the certificate ID to the recipient's list of certificates\n        investorCertificates[_to].push(_certificateId);\n    }\n\n    // Function to check the balance of a specific certificate\n    function getCertificateBalance(address tokenAddress, uint256 _certificateId) external view  returns (uint256) {\n        return certificates[tokenAddress][_certificateId].balance;\n    }\n\n    // Function to retrieve a list of certificate IDs held by an investor\n    function getInvestorCertificates(address _investor) external view  returns (uint256[] memory) {\n        return investorCertificates[_investor];\n    }\n\n    function isCertificateValid(address tokenAddress,address wallet,uint256 _certificateId) external view  returns (bool) {\n        return (certificates[tokenAddress][_certificateId].holder == wallet);\n    }\n}\n",
  "sourcePath": "/Volumes/My Book/projects/pingleware-contracts/contracts/finance/elmx/StockCertificate.sol",
  "compiler": {
    "name": "solc",
    "version": "0.8.18+commit.87f61d96.Emscripten.clang"
  },
  "schemaVersion": "3.4.12",
  "updatedAt": "2023-10-24T05:51:13.407Z",
  "networkType": "ethereum",
  "devdoc": {
    "kind": "dev",
    "methods": {},
    "version": 1
  },
  "userdoc": {
    "kind": "user",
    "methods": {},
    "version": 1
  }
}