{
  "contractName": "StockCertificate",
  "abi": [
    {
      "anonymous": false,
      "inputs": [
        {
          "indexed": false,
          "internalType": "address",
          "name": "_sender",
          "type": "address"
        }
      ],
      "name": "Sender",
      "type": "event"
    },
    {
      "anonymous": false,
      "inputs": [
        {
          "indexed": false,
          "internalType": "uint256",
          "name": "certificateNumber",
          "type": "uint256"
        },
        {
          "indexed": false,
          "internalType": "address",
          "name": "owner",
          "type": "address"
        },
        {
          "indexed": false,
          "internalType": "string",
          "name": "symbol",
          "type": "string"
        }
      ],
      "name": "StockCertificateCreated",
      "type": "event"
    },
    {
      "anonymous": false,
      "inputs": [
        {
          "indexed": false,
          "internalType": "uint256",
          "name": "certificateNumber",
          "type": "uint256"
        },
        {
          "indexed": false,
          "internalType": "address",
          "name": "from",
          "type": "address"
        },
        {
          "indexed": false,
          "internalType": "address",
          "name": "to",
          "type": "address"
        }
      ],
      "name": "StockCertificateTransferred",
      "type": "event"
    },
    {
      "inputs": [],
      "name": "getOwner",
      "outputs": [
        {
          "internalType": "address",
          "name": "",
          "type": "address"
        }
      ],
      "stateMutability": "view",
      "type": "function",
      "constant": true
    },
    {
      "inputs": [
        {
          "internalType": "address",
          "name": "tokenAddress",
          "type": "address"
        },
        {
          "internalType": "string",
          "name": "symbol",
          "type": "string"
        },
        {
          "internalType": "address",
          "name": "_investor",
          "type": "address"
        },
        {
          "internalType": "uint256",
          "name": "_initialBalance",
          "type": "uint256"
        }
      ],
      "name": "issueCertificate",
      "outputs": [
        {
          "internalType": "uint256",
          "name": "",
          "type": "uint256"
        }
      ],
      "stateMutability": "nonpayable",
      "type": "function"
    },
    {
      "inputs": [
        {
          "internalType": "address",
          "name": "from",
          "type": "address"
        },
        {
          "internalType": "address",
          "name": "tokenAddress",
          "type": "address"
        },
        {
          "internalType": "uint256",
          "name": "_certificateId",
          "type": "uint256"
        },
        {
          "internalType": "address",
          "name": "_to",
          "type": "address"
        },
        {
          "internalType": "uint256",
          "name": "_amount",
          "type": "uint256"
        }
      ],
      "name": "transferCertificate",
      "outputs": [],
      "stateMutability": "nonpayable",
      "type": "function"
    },
    {
      "inputs": [
        {
          "internalType": "address",
          "name": "tokenAddress",
          "type": "address"
        },
        {
          "internalType": "uint256",
          "name": "_certificateId",
          "type": "uint256"
        }
      ],
      "name": "getCertificateBalance",
      "outputs": [
        {
          "internalType": "uint256",
          "name": "",
          "type": "uint256"
        }
      ],
      "stateMutability": "view",
      "type": "function",
      "constant": true
    },
    {
      "inputs": [
        {
          "internalType": "address",
          "name": "_investor",
          "type": "address"
        }
      ],
      "name": "getInvestorCertificates",
      "outputs": [
        {
          "internalType": "uint256[]",
          "name": "",
          "type": "uint256[]"
        }
      ],
      "stateMutability": "view",
      "type": "function",
      "constant": true
    },
    {
      "inputs": [
        {
          "internalType": "address",
          "name": "tokenAddress",
          "type": "address"
        },
        {
          "internalType": "address",
          "name": "wallet",
          "type": "address"
        },
        {
          "internalType": "uint256",
          "name": "_certificateId",
          "type": "uint256"
        }
      ],
      "name": "isCertificateValid",
      "outputs": [
        {
          "internalType": "bool",
          "name": "",
          "type": "bool"
        }
      ],
      "stateMutability": "view",
      "type": "function",
      "constant": true
    }
  ],
  "bytecode": "0x6080604052600160035534801561001557600080fd5b5060008054600160a060020a03191633179055610a98806100376000396000f3fe608060405234801561001057600080fd5b50600436106100655760e060020a600035046307ec10bd811461006a5780636fdc79921461007f578063893d20e8146100d1578063a990e4e0146100ec578063d1c083ab1461010d578063fc52d54514610120575b600080fd5b61007d6100783660046106ad565b610140565b005b6100bc61008d366004610702565b600160a060020a0392831660009081526001602090815260408083209383529290522060020154821691161490565b60405190151581526020015b60405180910390f35b600054604051600160a060020a0390911681526020016100c8565b6100ff6100fa36600461073e565b6103d5565b6040519081526020016100c8565b6100ff61011b366004610768565b610403565b61013361012e366004610803565b610625565b6040516100c89190610825565b600160a060020a03821661019d5760405160e560020a62461bcd0281526020600482015260196024820152603860020a78496e76616c696420726563697069656e7420616464726573730260448201526064015b60405180910390fd5b600081116101f05760405160e560020a62461bcd02815260206004820181905260248201527f416d6f756e74206d7573742062652067726561746572207468616e207a65726f6044820152606401610194565b600160a060020a0384811660009081526001602090815260408083208784529091529020600201548116908616146102845760405160e560020a62461bcd02815260206004820152602b60248201527f53656e646572206973206e6f742074686520686f6c646572206f662074686520604482015260a860020a6a6365727469666963617465026064820152608401610194565b600160a060020a03841660009081526001602090815260408083208684529091529020600301548111156102fd5760405160e560020a62461bcd02815260206004820181905260248201527f496e73756666696369656e742063657274696669636174652062616c616e63656044820152606401610194565b600160a060020a038416600090815260016020908152604080832086845290915281206003018054839290610333908490610883565b9091555050600160a060020a038481166000908152600160208181526040808420888552825280842060029081018054600160a060020a031916898816908117909155808652908352818520805494850181558552938290209092018790558151878152938916908401528201527f78ade1884f452b6c783d4d808321c820814b3a2b0e99cd94fa8399ff442c7fa99060600160405180910390a15050505050565b600160a060020a03821660009081526001602090815260408083208484529091529020600301545b92915050565b6000600160a060020a03831661045c5760405160e560020a62461bcd0281526020600482015260186024820152604060020a77496e76616c696420696e766573746f722061646472657373026044820152606401610194565b600082116104c45760405160e560020a62461bcd02815260206004820152602960248201527f496e697469616c2062616c616e6365206d757374206265206772656174657220604482015260b860020a687468616e207a65726f026064820152608401610194565b6040518060800160405280600354815260200186868080601f0160208091040260200160405190810160405280939291908181526020018383808284376000920182905250938552505050600160a060020a038087166020808501919091526040938401879052908a168252600180825283832060035484528252929091208351815590830151909182019061055a908261093d565b5060408281015160028381018054600160a060020a031916600160a060020a039384161790556060909401516003938401558616600090815260209384529081208254815460018101835591835293822001929092558054916105bc83610a02565b91905055507f57c3ec90bcc657902743dc6588a2f104c56614303c2163e8576ed771415e107760016003546105f19190610883565b8487876040516106049493929190610a1b565b60405180910390a1600160035461061b9190610883565b9695505050505050565b600160a060020a03811660009081526002602090815260409182902080548351818402810184019094528084526060939283018282801561068557602002820191906000526020600020905b815481526020019060010190808311610671575b50505050509050919050565b8035600160a060020a03811681146106a857600080fd5b919050565b600080600080600060a086880312156106c557600080fd5b6106ce86610691565b94506106dc60208701610691565b9350604086013592506106f160608701610691565b949793965091946080013592915050565b60008060006060848603121561071757600080fd5b61072084610691565b925061072e60208501610691565b9150604084013590509250925092565b6000806040838503121561075157600080fd5b61075a83610691565b946020939093013593505050565b60008060008060006080868803121561078057600080fd5b61078986610691565b945060208601356001604060020a03808211156107a557600080fd5b818801915088601f8301126107b957600080fd5b8135818111156107c857600080fd5b8960208285010111156107da57600080fd5b6020830196508095505050506107f260408701610691565b949793965091946060013592915050565b60006020828403121561081557600080fd5b61081e82610691565b9392505050565b6020808252825182820181905260009190848201906040850190845b8181101561085d57835183529284019291840191600101610841565b50909695505050505050565b60e060020a634e487b710260009081526011600452602490fd5b818103818111156103fd576103fd610869565b60e060020a634e487b710260009081526041600452602490fd5b6002810460018216806108c457607f821691505b6020821081036108e85760e060020a634e487b710260009081526022600452602490fd5b50919050565b601f821115610938576000818152602081206020601f860104810160208610156109155750805b6020601f860104820191505b8181101561093457828155600101610921565b5050505b505050565b81516001604060020a0381111561095657610956610896565b61096a8161096484546108b0565b846108ee565b602080601f8311600181146109a357600084156109875750858301515b60028086026008870290910a6000190419821617865550610934565b600085815260208120601f198616915b828110156109d2578886015182559484019460019091019084016109b3565b50858210156109f257878501516008601f88160260020a60001904191681555b5050505050600202600101905550565b600060018201610a1457610a14610869565b5060010190565b848152600160a060020a03841660208201526060604082018190528101829052818360808301376000818301608090810191909152601f909201601f19160101939250505056fea264697066735822122051af7f2491b90ec337eb9f599a51ba370eaafa4f237b5a39646b887c6aabb46364736f6c63430008120033",
  "immutableReferences": {},
  "source": "// SPDX-License-Identifier: BSL-1.1\npragma solidity >=0.4.22 <0.9.0;\n\nimport \"./AccessControl.sol\";\n\ncontract StockCertificate is AccessControl {\n    // Struct to represent a certificate\n    struct StockCertificateMeta {\n        uint256 id;\n        string symbol;\n        address holder;\n        uint256 balance;\n    }\n\n    // Mapping from certificate ID to its data\n    mapping(address => mapping(uint256 => StockCertificateMeta)) private certificates;\n\n    // Mapping from investor wallet address to a list of certificate IDs they hold\n    mapping(address => uint256[]) private investorCertificates;\n\n    uint256 private nextCertificateId = 1; // Next available certificate ID\n\n    // Events to log certificate creation and transfer\n    event StockCertificateCreated(uint certificateNumber, address owner, string symbol);\n    event StockCertificateTransferred(uint certificateNumber, address from, address to);\n\n\n    // Function to issue a certificate to an investor\n    function issueCertificate(address tokenAddress, string calldata symbol, address _investor, uint256 _initialBalance) external returns(uint256) {\n        require(_investor != address(0), \"Invalid investor address\");\n        require(_initialBalance > 0, \"Initial balance must be greater than zero\");\n\n        // Create a new certificate and add it to the mapping\n        certificates[tokenAddress][nextCertificateId] = StockCertificateMeta(nextCertificateId, symbol, _investor, _initialBalance);\n\n        // Add the certificate ID to the investor's list of certificates\n        investorCertificates[_investor].push(nextCertificateId);\n\n        // Increment the next available certificate ID\n        nextCertificateId++;\n\n        emit StockCertificateCreated((nextCertificateId - 1),_investor,symbol);\n\n        return nextCertificateId - 1;\n    }\n\n    // Function to transfer certificates (shares sold) from one investor to another\n    function transferCertificate(address from, address tokenAddress, uint256 _certificateId, address _to, uint256 _amount) external  {\n        require(_to != address(0), \"Invalid recipient address\");\n        require(_amount > 0, \"Amount must be greater than zero\");\n        require(certificates[tokenAddress][_certificateId].holder == from, \"Sender is not the holder of the certificate\");\n        require(certificates[tokenAddress][_certificateId].balance >= _amount, \"Insufficient certificate balance\");\n\n        // Update the balances of the sender and recipient\n        certificates[tokenAddress][_certificateId].balance -= _amount;\n        certificates[tokenAddress][_certificateId].holder = _to;\n\n        // Add the certificate ID to the recipient's list of certificates\n        investorCertificates[_to].push(_certificateId);\n\n        emit StockCertificateTransferred(_certificateId,from,_to);\n    }\n\n    // Function to check the balance of a specific certificate\n    function getCertificateBalance(address tokenAddress, uint256 _certificateId) external view  returns (uint256) {\n        return certificates[tokenAddress][_certificateId].balance;\n    }\n\n    // Function to retrieve a list of certificate IDs held by an investor\n    function getInvestorCertificates(address _investor) external view  returns (uint256[] memory) {\n        return investorCertificates[_investor];\n    }\n\n    function isCertificateValid(address tokenAddress,address wallet,uint256 _certificateId) external view  returns (bool) {\n        return (certificates[tokenAddress][_certificateId].holder == wallet);\n    }\n}\n",
  "sourcePath": "/Volumes/My Book/projects/pingleware-contracts/contracts/finance/elmx/StockCertificate.sol",
  "compiler": {
    "name": "solc",
    "version": "0.8.18+commit.87f61d96.Emscripten.clang"
  },
  "schemaVersion": "3.4.12",
  "updatedAt": "2023-10-28T05:06:40.151Z",
  "networkType": "ethereum",
  "devdoc": {
    "kind": "dev",
    "methods": {},
    "version": 1
  },
  "userdoc": {
    "kind": "user",
    "methods": {},
    "version": 1
  }
}