{
  "contractName": "Store",
  "abi": [
    {
      "inputs": [],
      "stateMutability": "nonpayable",
      "type": "constructor"
    },
    {
      "anonymous": false,
      "inputs": [
        {
          "indexed": false,
          "internalType": "address",
          "name": "customer",
          "type": "address"
        },
        {
          "indexed": false,
          "internalType": "uint256",
          "name": "paymentSum",
          "type": "uint256"
        }
      ],
      "name": "CartCheckoutCompleted",
      "type": "event"
    },
    {
      "anonymous": false,
      "inputs": [
        {
          "indexed": false,
          "internalType": "address",
          "name": "customer",
          "type": "address"
        },
        {
          "indexed": false,
          "internalType": "uint256",
          "name": "customerBalance",
          "type": "uint256"
        },
        {
          "indexed": false,
          "internalType": "uint256",
          "name": "paymentSum",
          "type": "uint256"
        }
      ],
      "name": "CartCheckoutFailed",
      "type": "event"
    },
    {
      "anonymous": false,
      "inputs": [
        {
          "indexed": false,
          "internalType": "address",
          "name": "customer",
          "type": "address"
        }
      ],
      "name": "CartEmptied",
      "type": "event"
    },
    {
      "anonymous": false,
      "inputs": [
        {
          "indexed": false,
          "internalType": "address",
          "name": "customer",
          "type": "address"
        },
        {
          "indexed": false,
          "internalType": "uint256",
          "name": "prodId",
          "type": "uint256"
        },
        {
          "indexed": false,
          "internalType": "uint256",
          "name": "prodPrice",
          "type": "uint256"
        },
        {
          "indexed": false,
          "internalType": "uint256",
          "name": "completeSum",
          "type": "uint256"
        }
      ],
      "name": "CartProductInserted",
      "type": "event"
    },
    {
      "anonymous": false,
      "inputs": [
        {
          "indexed": false,
          "internalType": "address",
          "name": "customer",
          "type": "address"
        },
        {
          "indexed": false,
          "internalType": "uint256",
          "name": "prodId",
          "type": "uint256"
        }
      ],
      "name": "CartProductInsertionFailed",
      "type": "event"
    },
    {
      "anonymous": false,
      "inputs": [
        {
          "indexed": false,
          "internalType": "address",
          "name": "customer",
          "type": "address"
        },
        {
          "indexed": false,
          "internalType": "uint256",
          "name": "prodId",
          "type": "uint256"
        }
      ],
      "name": "CartProductRemoved",
      "type": "event"
    },
    {
      "anonymous": false,
      "inputs": [
        {
          "indexed": false,
          "internalType": "address",
          "name": "customer",
          "type": "address"
        }
      ],
      "name": "CustomerDeregistered",
      "type": "event"
    },
    {
      "anonymous": false,
      "inputs": [
        {
          "indexed": false,
          "internalType": "address",
          "name": "customer",
          "type": "address"
        }
      ],
      "name": "CustomerDeregistrationFailed",
      "type": "event"
    },
    {
      "anonymous": false,
      "inputs": [
        {
          "indexed": false,
          "internalType": "address",
          "name": "customer",
          "type": "address"
        }
      ],
      "name": "CustomerRegistered",
      "type": "event"
    },
    {
      "anonymous": false,
      "inputs": [
        {
          "indexed": false,
          "internalType": "address",
          "name": "customer",
          "type": "address"
        }
      ],
      "name": "CustomerRegistrationFailed",
      "type": "event"
    },
    {
      "anonymous": false,
      "inputs": [
        {
          "indexed": false,
          "internalType": "address",
          "name": "sender",
          "type": "address"
        },
        {
          "indexed": false,
          "internalType": "uint256",
          "name": "amount",
          "type": "uint256"
        }
      ],
      "name": "FallbackEvent",
      "type": "event"
    },
    {
      "anonymous": false,
      "inputs": [
        {
          "indexed": true,
          "internalType": "address",
          "name": "previousOwner",
          "type": "address"
        },
        {
          "indexed": true,
          "internalType": "address",
          "name": "newOwner",
          "type": "address"
        }
      ],
      "name": "OwnershipTransferred",
      "type": "event"
    },
    {
      "anonymous": false,
      "inputs": [
        {
          "indexed": false,
          "internalType": "uint256",
          "name": "productId",
          "type": "uint256"
        }
      ],
      "name": "ProductDeregistered",
      "type": "event"
    },
    {
      "anonymous": false,
      "inputs": [
        {
          "indexed": false,
          "internalType": "uint256",
          "name": "productId",
          "type": "uint256"
        }
      ],
      "name": "ProductDeregistrationFaled",
      "type": "event"
    },
    {
      "anonymous": false,
      "inputs": [
        {
          "indexed": false,
          "internalType": "uint256",
          "name": "productId",
          "type": "uint256"
        }
      ],
      "name": "ProductRegistered",
      "type": "event"
    },
    {
      "anonymous": false,
      "inputs": [
        {
          "indexed": false,
          "internalType": "uint256",
          "name": "productId",
          "type": "uint256"
        }
      ],
      "name": "ProductRegistrationFailed",
      "type": "event"
    },
    {
      "anonymous": false,
      "inputs": [
        {
          "indexed": false,
          "internalType": "address",
          "name": "sender",
          "type": "address"
        },
        {
          "indexed": false,
          "internalType": "uint256",
          "name": "amount",
          "type": "uint256"
        }
      ],
      "name": "ReceiveEvent",
      "type": "event"
    },
    {
      "stateMutability": "payable",
      "type": "fallback"
    },
    {
      "inputs": [],
      "name": "VERSION",
      "outputs": [
        {
          "internalType": "string",
          "name": "",
          "type": "string"
        }
      ],
      "stateMutability": "view",
      "type": "function"
    },
    {
      "inputs": [],
      "name": "WAIT",
      "outputs": [
        {
          "internalType": "uint256",
          "name": "",
          "type": "uint256"
        }
      ],
      "stateMutability": "view",
      "type": "function"
    },
    {
      "inputs": [],
      "name": "getOwner",
      "outputs": [
        {
          "internalType": "address",
          "name": "",
          "type": "address"
        }
      ],
      "stateMutability": "payable",
      "type": "function"
    },
    {
      "inputs": [],
      "name": "renounceOwnership",
      "outputs": [],
      "stateMutability": "payable",
      "type": "function"
    },
    {
      "inputs": [],
      "name": "store_name",
      "outputs": [
        {
          "internalType": "bytes32",
          "name": "",
          "type": "bytes32"
        }
      ],
      "stateMutability": "view",
      "type": "function"
    },
    {
      "inputs": [
        {
          "internalType": "address",
          "name": "newOwner",
          "type": "address"
        }
      ],
      "name": "transferOwnership",
      "outputs": [],
      "stateMutability": "payable",
      "type": "function"
    },
    {
      "stateMutability": "payable",
      "type": "receive"
    },
    {
      "inputs": [
        {
          "internalType": "uint256",
          "name": "id",
          "type": "uint256"
        },
        {
          "internalType": "bytes32",
          "name": "name",
          "type": "bytes32"
        },
        {
          "internalType": "bytes32",
          "name": "description",
          "type": "bytes32"
        },
        {
          "internalType": "uint256",
          "name": "price",
          "type": "uint256"
        },
        {
          "internalType": "uint256",
          "name": "default_amount",
          "type": "uint256"
        }
      ],
      "name": "registerProduct",
      "outputs": [
        {
          "internalType": "bool",
          "name": "success",
          "type": "bool"
        }
      ],
      "stateMutability": "payable",
      "type": "function"
    },
    {
      "inputs": [
        {
          "internalType": "uint256",
          "name": "id",
          "type": "uint256"
        }
      ],
      "name": "deregisterProduct",
      "outputs": [
        {
          "internalType": "bool",
          "name": "success",
          "type": "bool"
        }
      ],
      "stateMutability": "payable",
      "type": "function"
    },
    {
      "inputs": [
        {
          "internalType": "address",
          "name": "_address",
          "type": "address"
        },
        {
          "internalType": "bytes32",
          "name": "_name",
          "type": "bytes32"
        },
        {
          "internalType": "uint256",
          "name": "_balance",
          "type": "uint256"
        }
      ],
      "name": "registerCustomer",
      "outputs": [
        {
          "internalType": "bool",
          "name": "success",
          "type": "bool"
        }
      ],
      "stateMutability": "payable",
      "type": "function"
    },
    {
      "inputs": [
        {
          "internalType": "address",
          "name": "_address",
          "type": "address"
        }
      ],
      "name": "deregisterCustomer",
      "outputs": [
        {
          "internalType": "bool",
          "name": "success",
          "type": "bool"
        }
      ],
      "stateMutability": "payable",
      "type": "function"
    },
    {
      "inputs": [
        {
          "internalType": "uint256",
          "name": "id",
          "type": "uint256"
        }
      ],
      "name": "insertProductIntoCart",
      "outputs": [
        {
          "internalType": "bool",
          "name": "success",
          "type": "bool"
        },
        {
          "internalType": "uint256",
          "name": "pos_in_prod_mapping",
          "type": "uint256"
        }
      ],
      "stateMutability": "nonpayable",
      "type": "function"
    },
    {
      "inputs": [
        {
          "internalType": "uint256",
          "name": "prod_pos_in_mapping",
          "type": "uint256"
        }
      ],
      "name": "removeProductFromCart",
      "outputs": [],
      "stateMutability": "pure",
      "type": "function"
    },
    {
      "inputs": [],
      "name": "checkoutCart",
      "outputs": [
        {
          "internalType": "bool",
          "name": "success",
          "type": "bool"
        }
      ],
      "stateMutability": "nonpayable",
      "type": "function"
    },
    {
      "inputs": [],
      "name": "emptyCart",
      "outputs": [
        {
          "internalType": "bool",
          "name": "success",
          "type": "bool"
        }
      ],
      "stateMutability": "nonpayable",
      "type": "function"
    },
    {
      "inputs": [
        {
          "internalType": "bytes32",
          "name": "new_store_name",
          "type": "bytes32"
        }
      ],
      "name": "renameStoreTo",
      "outputs": [
        {
          "internalType": "bool",
          "name": "success",
          "type": "bool"
        }
      ],
      "stateMutability": "payable",
      "type": "function"
    },
    {
      "inputs": [
        {
          "internalType": "uint256",
          "name": "id",
          "type": "uint256"
        }
      ],
      "name": "getProduct",
      "outputs": [
        {
          "internalType": "bytes32",
          "name": "name",
          "type": "bytes32"
        },
        {
          "internalType": "bytes32",
          "name": "description",
          "type": "bytes32"
        },
        {
          "internalType": "uint256",
          "name": "price",
          "type": "uint256"
        },
        {
          "internalType": "uint256",
          "name": "default_amount",
          "type": "uint256"
        }
      ],
      "stateMutability": "view",
      "type": "function"
    },
    {
      "inputs": [],
      "name": "getCart",
      "outputs": [
        {
          "internalType": "uint256[]",
          "name": "product_ids",
          "type": "uint256[]"
        },
        {
          "internalType": "uint256",
          "name": "complete_sum",
          "type": "uint256"
        }
      ],
      "stateMutability": "view",
      "type": "function"
    },
    {
      "inputs": [],
      "name": "getBalance",
      "outputs": [
        {
          "internalType": "uint256",
          "name": "_balance",
          "type": "uint256"
        }
      ],
      "stateMutability": "view",
      "type": "function"
    },
    {
      "inputs": [],
      "name": "getStoreBalance",
      "outputs": [
        {
          "internalType": "uint256",
          "name": "",
          "type": "uint256"
        }
      ],
      "stateMutability": "payable",
      "type": "function"
    }
  ],
  "bytecode": "0x6080806040523461007a5760008054600160a060020a03191633908117825542600155817f8be0079c531659141344cd1fd0a4f28419497f9722a3daafe3b4186f6b6457e08180a37f6d792d73746f72652d6e616d650000000000000000000000000000000000000060035560045561123990816100808239f35b600080fdfe6080604090808252600490813610156100c8575b50361561009957333203610055577f26875833861a2b006512a11f1b86edf95df96131040f3caeed72989ee9858083825180610050343383610999565b0390a1005b6020606492519160e560020a62461bcd02835282015260196024820152603860020a787068697368696e672061747461636b2064657465637465643f026044820152fd5b7fcc85d09d309785db93d6df19917f2e6cc07fe27cd01c08c8279145deb5cf4526825180610050343383610999565b60009060e060020a823504906312065fe082146108425750806312d72e99146108115780631bdbabdd146107d057806321527090146107a457806321627dad146106105780636ebdac12146105fb578063713be000146105de578063715018a6146105995780637e6b867f1461056e578063893d20e81461050b57806391814577146104d9578063a0c8c156146103d7578063b8fb3a51146103bb578063b9db15b414610370578063dd198e0414610331578063f05fae6814610303578063f2663f18146102e4578063f2fde38b146102275763ffa1ad740361001357823461022357816003193601126102235780516101c1816108b9565b600a815260209060b060020a69312e362e342d62657461028282015282519382859384528251928382860152825b84811061020d57505050828201840152601f01601f19168101030190f35b81810183015188820188015287955082016101ef565b5080fd5b50919060203660031901126102e05761023e610869565b835491600160a060020a03808416926102583385146109b4565b1693841561028657505082906000805160206111e48339815191528580a3600160a060020a03191617815580f35b5160e560020a62461bcd028152602091810191909152602660248201527f4f776e61626c653a206e6577206f776e657220697320746865207a65726f2061604482015260d060020a65646472657373026064820152608490fd5b8280fd5b5082346102235781600319360112610223576020906003549051908152f35b509190826003193601126102e057610329602093600160a060020a0390541633146109b4565b549051908152f35b5082602036600319011261022357610367602092610362610350610869565b9154600160a060020a031633146109b4565b610d40565b90519015158152f35b509190346102e05760203660031901126102e0578160809382358152600660205220600181015492600282015492600383015492015492815194855260208501528301526060820152f35b50823461022357816003193601126102235760209051601e8152f35b5091346102e057826003193601126102e0578290338252602092600584528382842093835161040581610884565b600160a060020a039182875416825260019687810154858401526002810154878401526003810195875191610439836108b9565b8851885480825298855287852088820199865b8d8282106104c45750505050610485817f69dad80af5bbf467deb57c60ff8e39e3aacc707b1aa1c5b240aab4982f946fee9a038261090a565b8352015485820152606083019081528651916104a0836108ef565b8083528751926104af846108b9565b8352858301525251168351908152a151908152f35b83548d529a909b019a8e9a928301920161044c565b50919060203660031901126102e057610500602093600160a060020a0390541633146109b4565b356003555160018152f35b5080839160031936011261056b5760015492601e8401809411610555575061053f602093421161053a81610954565b610954565b42600155549051600160a060020a039091168152f35b60e060020a634e487b7102825260119052602490fd5b80fd5b503461056b57602036600319011261056b575061058b9035610e93565b825191151582526020820152f35b508060031936011261056b57805481600160a060020a0382166105bd3382146109b4565b6000805160206111e48339815191528280a3600160a060020a031916815580f35b508234610223578160031936011261022357602090610367611047565b503461056b57602036600319011261056b5780f35b5090346102235781600319360112610223578290338352602091600583528084209281519461063e86610884565b8454600160a060020a0316865260018581015483880152600286015484880152835190969095859060038101610673896108b9565b865190818782549182815201918752878720908c885b82811061078e5750505050906106a681606096959493038261090a565b895201548488015201948086525151946106bf86610b96565b956106cc8551978861090a565b8087526106d881610b96565b8785019690601f1901368837835b82811061073157505050829051015192805195818701918752518091526060860194915b81811061071e575050508380955001520390f35b825186529483019491830191870161070a565b808597955260068652848720548951821015610778578187028a0187015260001981146107625789019593956106e6565b60e060020a634e487b7102875260118252602487fd5b60e060020a634e487b7102885260328352602488fd5b835485528c9750938a0193928101928101610689565b50826060366003190112610223576103676020926107c3610350610869565b6044359060243590610bad565b50919060a03660031901126102e057610367906107fb602094600160a060020a0390541633146109b4565b6084359060643590604435906024359035610a00565b50919060203660031901126102e0576103679061083c602094600160a060020a0390541633146109b4565b35610ac9565b905083346102e057826003193601126102e057600290602093338152600585522001548152f35b60043590600160a060020a038216820361087f57565b600080fd5b608081019081106001604060020a0382111761089f57604052565b60e060020a634e487b710260009081526041600452602490fd5b604081019081106001604060020a0382111761089f57604052565b60a081019081106001604060020a0382111761089f57604052565b602081019081106001604060020a0382111761089f57604052565b601f909101601f19168101906001604060020a0382119082101761089f57604052565b9190820180921161093a57565b60e060020a634e487b710260009081526011600452602490fd5b1561095b57565b60405160e560020a62461bcd0281526020600482015260106024820152608160020a6f3930ba32903634b6b4ba1032b93937b9026044820152606490fd5b600160a060020a039091168152602081019190915260400190565b156109bb57565b60405160e560020a62461bcd0281526020600482015260176024820152604960020a7630b1b1b2b9b9903232b734b2b2103337b91037bbb732b9026044820152606490fd5b939192909260405193610a12856108d4565b8585526020850190815260408501918252606085019280845260808601948552610a6b57505050505060207fde3fcea9436a4548b1b926b143172c5d997c422c62fb19f04247322e494aecec91604051908152a1600090565b926020949260049287957fbcc0e36116309da282dcf13bde248ef63930f4114b68999c8570a86ffb3ab305986000526006885260406000209551865551600186015551600285015551600384015551910155604051908152a1600190565b60009080825260066020526040818184208251610ae5816108d4565b608060048354938484526001810154602085015260028101548785015260038101546060850152015491015214610b43577fb532f97e05a9e1e6dc6e6370474a37711a249c3feefa8de769c660c99179a6669160209151908152a190565b9060209183827fb92ba9be82f279c48f5a918781a57960f85466ce5e13c17518afbf5eaab12cb19552600684526004828220828155826001820155826002820155826003820155015551908152a1600190565b6001604060020a03811161089f5760208091020190565b600160a060020a0390811692909183610bf35750505060207f7c66b00fc05577d946381dc5b311ac0e6f93dbdc6f1b7b6a570ccdd7dbed6a0391604051908152a1600090565b909193926040805195610c05876108ef565b6000808852825197610c16896108b9565b885260209481868a0152835192610c2c84610884565b85845286840191825284840197885260608401998a528583526005875284832093518454600160a060020a03191691161783555160018084019190915595516002830155965180518051919860038401916001604060020a038411610d2957604060020a8411610d295787908354858555808610610cff575b5001918152868120905b838110610cee57505050506004847f155e8619f4d23b96769599cb9af87da3e06a360082869c18578011da9a06e670969798015191015551908152a190565b825182820155918701918801610caf565b8484528a8684862092830192015b828110610d1b575050610ca5565b8581558b94508c9101610d0d565b60e060020a634e487b710282526041600452602482fd5b90600160a060020a0380921660009080825260209060058252604094858420908651610d6b81610884565b825482168152600180840154868301526002840154898301528851909360038101610d95836108b9565b8a5190818982549182815201918b52898b20908b5b898c838310610e8157505050505090610dc88160049493038261090a565b835201548682015260608201525116610e0857507f82f89e1291aa3a9806447cdbb4216419b107869075e74a5c0036a897a94c946b92939451908152a190565b92948186526005835280862086815586858201558660028201556003810180549088815581610e65575b50509560047f98106f8805b0ce455829ffa96d3025c1dbf9b72f0c7425f51365abc9b3d8d631959697015551908152a190565b8852848820908101905b81811015610e32578881558601610e6f565b84548652909401939283019201610daa565b90600091338352602060058152604090818520825191610eb283610884565b8154600160a060020a031683526001828101548285015260028301548585015284519093909260038101610ee5856108b9565b865190818582549182815201918c52858c20908c5b89888383106110355750505050509181610f1b60049360609695038261090a565b86520154838501520191825284875260068152838720845190610f3d826108d4565b8054825284810154838301526002810154868301526003810154916080600460608301938585520154910152610f7b8451928484515194015161092d565b838551015283519182515111610fc85750505050507f5f187c44b1528b1d93b313a10cf6038ff514e59499f6790e1e2da2f7d1cfdd3091610fc191519182913383610999565b0390a18190565b9060809395837f1e862ddcab5a3222c811c44ecc1c4a46d3da57dde0e884ad6e7e070a8ece237796989351920151928151943386528501528301526060820152a151515160001981019390841161101e57509190565b60e060020a634e487b710281526011600452602490fd5b84548652909401939283019201610efa565b60003381526020906005825260409182822083519361106585610884565b8154600160a060020a031685526001828101548487015260028301548287019081528251909690936003810161109a866108b9565b845190818882549182815201918a52888a20908a5b878b8383106111d157505050505091816110cf600493606095038261090a565b8752015491868601928352019084825251938751908582101590816111c5575b506111305750505090606092917fbd7548a105d5b3428c738a41df9789068d12a18b0f74dc9032b553e253e5d63f949551815193338552840152820152a190565b909294939591968682039182116111ae57916111a89593917f8068f12c6f872a8083325d2bfebb318eb0378ba88e7012c368a8156893a236e197959352835192611179846108ef565b818452845193611188856108b9565b84528301525261119a8260045461092d565b600455519182913383610999565b0390a190565b60e060020a634e487b710283526011600452602483fd5b905051511515386110ef565b845486529094019392830192016110af56fe8be0079c531659141344cd1fd0a4f28419497f9722a3daafe3b4186f6b6457e0a26469706673582212207a12809a2432ef050ace5395de7453bcd60b07fd03b9878c81a45e7955507f3064736f6c63430008120033",
  "immutableReferences": {},
  "source": "// SPDX-License-Identifier: CC-BY-4.0\r\npragma solidity >=0.4.22 <0.9.0;\r\n\r\n// See https://github.com/brakmic/BlockchainStore\r\n\r\nimport \"../common/Version.sol\";\r\nimport \"../common/Owned.sol\";\r\n\r\n/**\r\n    @notice This contract implements a simple store that can interact with registered customers. Every customer has its own shopping cart.\r\n    @title Retail Store Contract\r\n    @author Harris Brakmic\r\n*/\r\ncontract Store is Version, Owned {\r\n\r\n    /* Store internals */\r\n    bytes32 public store_name; // store name\r\n    uint256 private store_balance;  // store balance\r\n\r\n    mapping (address => Customer) customers;\r\n    mapping (uint256 => Product) products;\r\n\r\n    /* Store Events */\r\n    event CustomerRegistered(address customer);\r\n    event CustomerRegistrationFailed(address customer);\r\n    event CustomerDeregistered(address customer);\r\n    event CustomerDeregistrationFailed(address customer);\r\n\r\n    event ProductRegistered(uint256 productId);\r\n    event ProductDeregistered(uint256 productId);\r\n    event ProductRegistrationFailed(uint256 productId);\r\n    event ProductDeregistrationFaled(uint256 productId);\r\n\r\n    event CartProductInserted(address customer, uint256 prodId, uint256 prodPrice, uint256 completeSum);\r\n    event CartProductInsertionFailed(address customer, uint256 prodId);\r\n    event CartProductRemoved(address customer, uint256 prodId);\r\n    event CartCheckoutCompleted(address customer, uint256 paymentSum);\r\n    event CartCheckoutFailed(address customer, uint256 customerBalance, uint256 paymentSum);\r\n    event CartEmptied(address customer);\r\n\r\n    /**\r\n        @notice A shopping cart contains an array of product ids: @products\r\n        and a sum of product prices: @completeSum\r\n        The @completeSum gets automatically updated when customer\r\n        adds or removes products.\r\n    */\r\n    struct Cart {\r\n      uint256[] products;\r\n      uint256 completeSum;\r\n    }\r\n\r\n    /**\r\n        @notice every customer has an address, name,\r\n        balance and a shopping cart\r\n    */\r\n    struct Customer {\r\n        address adr;\r\n        bytes32 name;\r\n        uint256 balance;\r\n        Cart cart;\r\n    }\r\n\r\n    /**\r\n        @notice Represents a product:\r\n        Product id: @id\r\n        Product name: @name\r\n        Decription: @description\r\n        Amount of items in a single product: @default_amount\r\n    */\r\n    struct Product {\r\n        uint256 id;\r\n        bytes32 name;\r\n        bytes32 description;\r\n        uint256 price;\r\n        uint256 default_amount;\r\n    }\r\n\r\n    /**\r\n        @notice Represents a receipt [NOT IN USE]\r\n    */\r\n    struct Receipt {\r\n        InvoiceLine[] lines;\r\n        address customer_address;\r\n    }\r\n\r\n    /**\r\n        @notice Represents a single entry describing a single product [NOT IN USE]\r\n    */\r\n    struct InvoiceLine {\r\n        bytes product_id;\r\n        uint256 amount;\r\n        uint256 product_price;\r\n        uint256 total_price;\r\n    }\r\n\r\n    /**\r\n        @notice Default constructor\r\n    */\r\n    constructor() {\r\n        store_name = 'my-store-name';\r\n        store_balance = 0;\r\n    }\r\n\r\n    /**\r\n          @notice Register a single product\r\n          @param id Product ID\r\n          @param name Product Name\r\n          @param description Product Description\r\n          @param price Product Price\r\n          @param default_amount Default amount of items in a single product\r\n          @return success\r\n    */\r\n    function registerProduct(uint256 id, bytes32 name, bytes32 description, uint256 price, uint256 default_amount)\r\n        public\r\n        payable\r\n        onlyOwner\r\n        returns (bool success)\r\n    {\r\n        Product memory product = Product(id, name, description, price, default_amount);\r\n        if (checkProductValidity(product)) {\r\n            products[id] = product;\r\n            emit ProductRegistered(id);\r\n            return true;\r\n        }\r\n        emit ProductRegistrationFailed(id);\r\n        return false;\r\n    }\r\n\r\n    /**\r\n          @notice Removes a product from the list\r\n          @param id Product ID\r\n          @return success\r\n    */\r\n    function deregisterProduct(uint256 id)\r\n        public\r\n        payable\r\n        onlyOwner\r\n        returns (bool success)\r\n    {\r\n        Product memory product = products[id];\r\n        if (product.id == id) {\r\n            delete products[id];\r\n            emit ProductDeregistered(id);\r\n            return true;\r\n        }\r\n        emit ProductDeregistrationFaled(id);\r\n        return false;\r\n    }\r\n\r\n    /**\r\n          @notice Registers a new customer (only store owners)\r\n          @param _address Customer's address\r\n          @param _name Customer's name\r\n          @param _balance Customer's balance\r\n          @return success\r\n    */\r\n    function registerCustomer(address _address, bytes32 _name, uint256 _balance)\r\n        public\r\n        payable\r\n        onlyOwner\r\n        returns (bool success)\r\n    {\r\n        if (_address != address(0)) {\r\n            Customer memory customer = Customer({\r\n                                                    adr: _address,\r\n                                                    name: _name,\r\n                                                    balance: _balance,\r\n                                                    cart: Cart(new uint256[](0), 0)\r\n                                                });\r\n            customers[_address] = customer;\r\n            emit CustomerRegistered(_address);\r\n            return true;\r\n        }\r\n        emit CustomerRegistrationFailed(_address);\r\n        return false;\r\n    }\r\n\r\n    /**\r\n        @notice Removes a customer (only store owners)\r\n        @param _address Customer's address\r\n        @return success\r\n    */\r\n    function deregisterCustomer(address _address)\r\n        public\r\n        payable\r\n        onlyOwner\r\n        returns (bool success)\r\n    {\r\n        Customer memory customer = customers[_address];\r\n        if (customer.adr != address(0)) {\r\n            delete customers[_address];\r\n            emit CustomerDeregistered(_address);\r\n            return true;\r\n        }\r\n        emit CustomerDeregistrationFailed(_address);\r\n        return false;\r\n    }\r\n\r\n    function insertProductIntoCart(uint256 id)\r\n        public\r\n        returns (bool success, uint256 pos_in_prod_mapping)\r\n    {\r\n        Customer memory cust = customers[msg.sender];\r\n        Product memory prod = products[id];\r\n        uint256 prods_prev_len = cust.cart.products.length;\r\n        // TODO fix TypeError: Member \"push\" is not available in uint256[] memory outside of storage.\r\n        // cust.cart.products.push(prod.id);\r\n        uint256 current_sum = cust.cart.completeSum;\r\n        cust.cart.completeSum = current_sum + prod.price;\r\n        if (cust.cart.products.length > prods_prev_len) {\r\n          emit CartProductInserted(msg.sender, id, prod.price, cust.cart.completeSum);\r\n          return (true, cust.cart.products.length - 1);\r\n        }\r\n        emit CartProductInsertionFailed(msg.sender, id);\r\n        return (false, 0);\r\n    }\r\n\r\n    function removeProductFromCart(uint256 prod_pos_in_mapping)\r\n        public\r\n        pure\r\n    {\r\n        prod_pos_in_mapping;\r\n        // Uncomment next line when TODO's are completed?\r\n        // uint256[] memory new_product_list = new uint256[](customers[msg.sender].cart.products.length - 1);\r\n        // TODO fix TypeError: Member \"push\" is not available in uint256[] memory outside of storage.\r\n        // Product memory customerProds = customers[msg.sender].cart.products;\r\n        // TODO fix TypeError: Member \"length\" not found or not visible after argument-dependent lookup in struct Store.Product memory.\r\n        /*\r\n        for (uint256 i = 0; i < customerProds.length; i++) {\r\n          if (i != prod_pos_in_mapping) {\r\n            new_product_list[i] = customerProds[i];\r\n          } else {\r\n            customers[msg.sender].cart.completeSum -= products[customerProds[i]].price;\r\n            emit CartProductRemoved(msg.sender, customerProds[i]);\r\n          }\r\n        }\r\n        customers[msg.sender].cart.products = new_product_list;\r\n        */\r\n    }\r\n\r\n    function checkoutCart()\r\n        public\r\n        returns (bool success)\r\n    {\r\n        Customer memory customer = customers[msg.sender];\r\n        uint256 paymentSum = customer.cart.completeSum;\r\n        if ((customer.balance >= paymentSum) &&\r\n            customer.cart.products.length > 0) {\r\n            customer.balance -= paymentSum;\r\n            customer.cart = Cart(new uint256[](0), 0);\r\n            store_balance += paymentSum;\r\n            emit CartCheckoutCompleted(msg.sender, paymentSum);\r\n            return true;\r\n        }\r\n        emit CartCheckoutFailed(msg.sender, customer.balance, paymentSum);\r\n        return false;\r\n    }\r\n\r\n    function emptyCart()\r\n        public\r\n        returns (bool success)\r\n    {\r\n      /*if (msg.sender != owner) {*/\r\n        Customer memory customer = customers[msg.sender];\r\n        customer.cart = Cart(new uint256[](0), 0);\r\n        emit CartEmptied(customer.adr);\r\n        return true;\r\n      /*}*/\r\n      /*return false;*/\r\n    }\r\n\r\n    function renameStoreTo(bytes32 new_store_name)\r\n        public\r\n        payable\r\n        onlyOwner\r\n        returns (bool success)\r\n    {\r\n        if (new_store_name.length != 0 &&\r\n            new_store_name.length <= 32) {\r\n            store_name = new_store_name;\r\n            return true;\r\n        }\r\n        return false;\r\n    }\r\n\r\n    function getProduct(uint256 id)\r\n        public\r\n        view\r\n        returns (bytes32 name, bytes32 description, uint256 price, uint256 default_amount)\r\n    {\r\n       return (products[id].name,\r\n               products[id].description,\r\n               products[id].price,\r\n               products[id].default_amount);\r\n    }\r\n\r\n    function getCart()\r\n        public\r\n        view\r\n        returns (uint256[] memory product_ids, uint256 complete_sum)\r\n    {\r\n      Customer memory customer = customers[msg.sender];\r\n      uint256 len = customer.cart.products.length;\r\n      uint256[] memory ids = new uint256[](len);\r\n      for (uint256 i = 0; i < len; i++) {\r\n        ids[i] = products[i].id;\r\n      }\r\n      return (ids, customer.cart.completeSum);\r\n    }\r\n\r\n    function getBalance()\r\n        public\r\n        view\r\n        returns (uint256 _balance)\r\n    {\r\n      return customers[msg.sender].balance;\r\n    }\r\n\r\n    function getStoreBalance()\r\n        public\r\n        payable\r\n        onlyOwner\r\n        returns (uint256)\r\n    {\r\n      return store_balance;\r\n    }\r\n\r\n    function checkProductValidity(Product memory product)\r\n        private\r\n        pure\r\n        returns (bool valid)\r\n    {\r\n       return (product.price > 0);\r\n    }\r\n}",
  "sourcePath": "/Volumes/HOME/pingleware-contracts/contracts/retail/Store.sol",
  "compiler": {
    "name": "solc",
    "version": "0.8.18+commit.87f61d96.Emscripten.clang"
  },
  "schemaVersion": "3.4.12",
  "updatedAt": "2024-05-23T18:56:27.113Z",
  "devdoc": {
    "author": "Harris Brakmic",
    "kind": "dev",
    "methods": {
      "deregisterCustomer(address)": {
        "params": {
          "_address": "Customer's address"
        },
        "returns": {
          "success": "success"
        }
      },
      "deregisterProduct(uint256)": {
        "params": {
          "id": "Product ID"
        },
        "returns": {
          "success": "success"
        }
      },
      "registerCustomer(address,bytes32,uint256)": {
        "params": {
          "_address": "Customer's address",
          "_balance": "Customer's balance",
          "_name": "Customer's name"
        },
        "returns": {
          "success": "success"
        }
      },
      "registerProduct(uint256,bytes32,bytes32,uint256,uint256)": {
        "params": {
          "default_amount": "Default amount of items in a single product",
          "description": "Product Description",
          "id": "Product ID",
          "name": "Product Name",
          "price": "Product Price"
        },
        "returns": {
          "success": "success"
        }
      },
      "renounceOwnership()": {
        "details": "Leaves the contract without owner. It will not be possible to call `onlyOwner` functions anymore. Can only be called by the current owner. NOTE: Renouncing ownership will leave the contract without an owner, thereby removing any functionality that is only available to the owner."
      },
      "transferOwnership(address)": {
        "details": "Transfers ownership of the contract to a new account (`newOwner`). Can only be called by the current owner."
      }
    },
    "title": "Retail Store Contract",
    "version": 1
  },
  "userdoc": {
    "kind": "user",
    "methods": {
      "constructor": {
        "notice": "Default constructor"
      },
      "deregisterCustomer(address)": {
        "notice": "Removes a customer (only store owners)"
      },
      "deregisterProduct(uint256)": {
        "notice": "Removes a product from the list"
      },
      "registerCustomer(address,bytes32,uint256)": {
        "notice": "Registers a new customer (only store owners)"
      },
      "registerProduct(uint256,bytes32,bytes32,uint256,uint256)": {
        "notice": "Register a single product"
      }
    },
    "notice": "This contract implements a simple store that can interact with registered customers. Every customer has its own shopping cart.",
    "version": 1
  }
}