{
  "contractName": "Store",
  "abi": [
    {
      "inputs": [],
      "stateMutability": "nonpayable",
      "type": "constructor"
    },
    {
      "anonymous": false,
      "inputs": [
        {
          "indexed": false,
          "internalType": "address",
          "name": "customer",
          "type": "address"
        },
        {
          "indexed": false,
          "internalType": "uint256",
          "name": "paymentSum",
          "type": "uint256"
        }
      ],
      "name": "CartCheckoutCompleted",
      "type": "event"
    },
    {
      "anonymous": false,
      "inputs": [
        {
          "indexed": false,
          "internalType": "address",
          "name": "customer",
          "type": "address"
        },
        {
          "indexed": false,
          "internalType": "uint256",
          "name": "customerBalance",
          "type": "uint256"
        },
        {
          "indexed": false,
          "internalType": "uint256",
          "name": "paymentSum",
          "type": "uint256"
        }
      ],
      "name": "CartCheckoutFailed",
      "type": "event"
    },
    {
      "anonymous": false,
      "inputs": [
        {
          "indexed": false,
          "internalType": "address",
          "name": "customer",
          "type": "address"
        }
      ],
      "name": "CartEmptied",
      "type": "event"
    },
    {
      "anonymous": false,
      "inputs": [
        {
          "indexed": false,
          "internalType": "address",
          "name": "customer",
          "type": "address"
        },
        {
          "indexed": false,
          "internalType": "uint256",
          "name": "prodId",
          "type": "uint256"
        },
        {
          "indexed": false,
          "internalType": "uint256",
          "name": "prodPrice",
          "type": "uint256"
        },
        {
          "indexed": false,
          "internalType": "uint256",
          "name": "completeSum",
          "type": "uint256"
        }
      ],
      "name": "CartProductInserted",
      "type": "event"
    },
    {
      "anonymous": false,
      "inputs": [
        {
          "indexed": false,
          "internalType": "address",
          "name": "customer",
          "type": "address"
        },
        {
          "indexed": false,
          "internalType": "uint256",
          "name": "prodId",
          "type": "uint256"
        }
      ],
      "name": "CartProductInsertionFailed",
      "type": "event"
    },
    {
      "anonymous": false,
      "inputs": [
        {
          "indexed": false,
          "internalType": "address",
          "name": "customer",
          "type": "address"
        },
        {
          "indexed": false,
          "internalType": "uint256",
          "name": "prodId",
          "type": "uint256"
        }
      ],
      "name": "CartProductRemoved",
      "type": "event"
    },
    {
      "anonymous": false,
      "inputs": [
        {
          "indexed": false,
          "internalType": "address",
          "name": "customer",
          "type": "address"
        }
      ],
      "name": "CustomerDeregistered",
      "type": "event"
    },
    {
      "anonymous": false,
      "inputs": [
        {
          "indexed": false,
          "internalType": "address",
          "name": "customer",
          "type": "address"
        }
      ],
      "name": "CustomerDeregistrationFailed",
      "type": "event"
    },
    {
      "anonymous": false,
      "inputs": [
        {
          "indexed": false,
          "internalType": "address",
          "name": "customer",
          "type": "address"
        }
      ],
      "name": "CustomerRegistered",
      "type": "event"
    },
    {
      "anonymous": false,
      "inputs": [
        {
          "indexed": false,
          "internalType": "address",
          "name": "customer",
          "type": "address"
        }
      ],
      "name": "CustomerRegistrationFailed",
      "type": "event"
    },
    {
      "anonymous": false,
      "inputs": [
        {
          "indexed": false,
          "internalType": "address",
          "name": "sender",
          "type": "address"
        },
        {
          "indexed": false,
          "internalType": "uint256",
          "name": "amount",
          "type": "uint256"
        }
      ],
      "name": "FallbackEvent",
      "type": "event"
    },
    {
      "anonymous": false,
      "inputs": [
        {
          "indexed": true,
          "internalType": "address",
          "name": "previousOwner",
          "type": "address"
        },
        {
          "indexed": true,
          "internalType": "address",
          "name": "newOwner",
          "type": "address"
        }
      ],
      "name": "OwnershipTransferred",
      "type": "event"
    },
    {
      "anonymous": false,
      "inputs": [
        {
          "indexed": false,
          "internalType": "uint256",
          "name": "productId",
          "type": "uint256"
        }
      ],
      "name": "ProductDeregistered",
      "type": "event"
    },
    {
      "anonymous": false,
      "inputs": [
        {
          "indexed": false,
          "internalType": "uint256",
          "name": "productId",
          "type": "uint256"
        }
      ],
      "name": "ProductDeregistrationFaled",
      "type": "event"
    },
    {
      "anonymous": false,
      "inputs": [
        {
          "indexed": false,
          "internalType": "uint256",
          "name": "productId",
          "type": "uint256"
        }
      ],
      "name": "ProductRegistered",
      "type": "event"
    },
    {
      "anonymous": false,
      "inputs": [
        {
          "indexed": false,
          "internalType": "uint256",
          "name": "productId",
          "type": "uint256"
        }
      ],
      "name": "ProductRegistrationFailed",
      "type": "event"
    },
    {
      "anonymous": false,
      "inputs": [
        {
          "indexed": false,
          "internalType": "address",
          "name": "sender",
          "type": "address"
        },
        {
          "indexed": false,
          "internalType": "uint256",
          "name": "amount",
          "type": "uint256"
        }
      ],
      "name": "ReceiveEvent",
      "type": "event"
    },
    {
      "stateMutability": "payable",
      "type": "fallback",
      "payable": true
    },
    {
      "inputs": [],
      "name": "VERSION",
      "outputs": [
        {
          "internalType": "string",
          "name": "",
          "type": "string"
        }
      ],
      "stateMutability": "view",
      "type": "function",
      "constant": true
    },
    {
      "inputs": [],
      "name": "WAIT",
      "outputs": [
        {
          "internalType": "uint256",
          "name": "",
          "type": "uint256"
        }
      ],
      "stateMutability": "view",
      "type": "function",
      "constant": true
    },
    {
      "inputs": [],
      "name": "getOwner",
      "outputs": [
        {
          "internalType": "address",
          "name": "",
          "type": "address"
        }
      ],
      "stateMutability": "payable",
      "type": "function",
      "payable": true
    },
    {
      "inputs": [],
      "name": "renounceOwnership",
      "outputs": [],
      "stateMutability": "payable",
      "type": "function",
      "payable": true
    },
    {
      "inputs": [],
      "name": "store_name",
      "outputs": [
        {
          "internalType": "bytes32",
          "name": "",
          "type": "bytes32"
        }
      ],
      "stateMutability": "view",
      "type": "function",
      "constant": true
    },
    {
      "inputs": [
        {
          "internalType": "address",
          "name": "newOwner",
          "type": "address"
        }
      ],
      "name": "transferOwnership",
      "outputs": [],
      "stateMutability": "payable",
      "type": "function",
      "payable": true
    },
    {
      "stateMutability": "payable",
      "type": "receive",
      "payable": true
    },
    {
      "inputs": [
        {
          "internalType": "uint256",
          "name": "id",
          "type": "uint256"
        },
        {
          "internalType": "bytes32",
          "name": "name",
          "type": "bytes32"
        },
        {
          "internalType": "bytes32",
          "name": "description",
          "type": "bytes32"
        },
        {
          "internalType": "uint256",
          "name": "price",
          "type": "uint256"
        },
        {
          "internalType": "uint256",
          "name": "default_amount",
          "type": "uint256"
        }
      ],
      "name": "registerProduct",
      "outputs": [
        {
          "internalType": "bool",
          "name": "success",
          "type": "bool"
        }
      ],
      "stateMutability": "payable",
      "type": "function",
      "payable": true
    },
    {
      "inputs": [
        {
          "internalType": "uint256",
          "name": "id",
          "type": "uint256"
        }
      ],
      "name": "deregisterProduct",
      "outputs": [
        {
          "internalType": "bool",
          "name": "success",
          "type": "bool"
        }
      ],
      "stateMutability": "payable",
      "type": "function",
      "payable": true
    },
    {
      "inputs": [
        {
          "internalType": "address",
          "name": "_address",
          "type": "address"
        },
        {
          "internalType": "bytes32",
          "name": "_name",
          "type": "bytes32"
        },
        {
          "internalType": "uint256",
          "name": "_balance",
          "type": "uint256"
        }
      ],
      "name": "registerCustomer",
      "outputs": [
        {
          "internalType": "bool",
          "name": "success",
          "type": "bool"
        }
      ],
      "stateMutability": "payable",
      "type": "function",
      "payable": true
    },
    {
      "inputs": [
        {
          "internalType": "address",
          "name": "_address",
          "type": "address"
        }
      ],
      "name": "deregisterCustomer",
      "outputs": [
        {
          "internalType": "bool",
          "name": "success",
          "type": "bool"
        }
      ],
      "stateMutability": "payable",
      "type": "function",
      "payable": true
    },
    {
      "inputs": [
        {
          "internalType": "uint256",
          "name": "id",
          "type": "uint256"
        }
      ],
      "name": "insertProductIntoCart",
      "outputs": [
        {
          "internalType": "bool",
          "name": "success",
          "type": "bool"
        },
        {
          "internalType": "uint256",
          "name": "pos_in_prod_mapping",
          "type": "uint256"
        }
      ],
      "stateMutability": "nonpayable",
      "type": "function"
    },
    {
      "inputs": [
        {
          "internalType": "uint256",
          "name": "prod_pos_in_mapping",
          "type": "uint256"
        }
      ],
      "name": "removeProductFromCart",
      "outputs": [],
      "stateMutability": "pure",
      "type": "function",
      "constant": true
    },
    {
      "inputs": [],
      "name": "checkoutCart",
      "outputs": [
        {
          "internalType": "bool",
          "name": "success",
          "type": "bool"
        }
      ],
      "stateMutability": "nonpayable",
      "type": "function"
    },
    {
      "inputs": [],
      "name": "emptyCart",
      "outputs": [
        {
          "internalType": "bool",
          "name": "success",
          "type": "bool"
        }
      ],
      "stateMutability": "nonpayable",
      "type": "function"
    },
    {
      "inputs": [
        {
          "internalType": "bytes32",
          "name": "new_store_name",
          "type": "bytes32"
        }
      ],
      "name": "renameStoreTo",
      "outputs": [
        {
          "internalType": "bool",
          "name": "success",
          "type": "bool"
        }
      ],
      "stateMutability": "payable",
      "type": "function",
      "payable": true
    },
    {
      "inputs": [
        {
          "internalType": "uint256",
          "name": "id",
          "type": "uint256"
        }
      ],
      "name": "getProduct",
      "outputs": [
        {
          "internalType": "bytes32",
          "name": "name",
          "type": "bytes32"
        },
        {
          "internalType": "bytes32",
          "name": "description",
          "type": "bytes32"
        },
        {
          "internalType": "uint256",
          "name": "price",
          "type": "uint256"
        },
        {
          "internalType": "uint256",
          "name": "default_amount",
          "type": "uint256"
        }
      ],
      "stateMutability": "view",
      "type": "function",
      "constant": true
    },
    {
      "inputs": [],
      "name": "getCart",
      "outputs": [
        {
          "internalType": "uint256[]",
          "name": "product_ids",
          "type": "uint256[]"
        },
        {
          "internalType": "uint256",
          "name": "complete_sum",
          "type": "uint256"
        }
      ],
      "stateMutability": "view",
      "type": "function",
      "constant": true
    },
    {
      "inputs": [],
      "name": "getBalance",
      "outputs": [
        {
          "internalType": "uint256",
          "name": "_balance",
          "type": "uint256"
        }
      ],
      "stateMutability": "view",
      "type": "function",
      "constant": true
    },
    {
      "inputs": [],
      "name": "getStoreBalance",
      "outputs": [
        {
          "internalType": "uint256",
          "name": "",
          "type": "uint256"
        }
      ],
      "stateMutability": "payable",
      "type": "function",
      "payable": true
    }
  ],
  "bytecode": "0x6080604052600060015534801561001557600080fd5b5060008054600160a060020a031916339081178255426001556040519091907f8be0079c531659141344cd1fd0a4f28419497f9722a3daafe3b4186f6b6457e0908290a37f6d792d73746f72652d6e616d65000000000000000000000000000000000000006003556000600455611542806100916000396000f3fe6080604052600436106100eb5760e060020a600035046312065fe081146101b257806312d72e99146101e65780631bdbabdd14610209578063215270901461021c57806321627dad1461022f5780636ebdac1214610252578063713be00014610272578063715018a6146102875780637e6b867f1461028f578063893d20e8146102c657806391814577146102db578063a0c8c156146102ee578063b8fb3a5114610303578063b9db15b414610318578063dd198e041461037e578063f05fae6814610391578063f2663f1814610399578063f2fde38b146103af578063ffa1ad74146103c25761012b565b3661012b577fcc85d09d309785db93d6df19917f2e6cc07fe27cd01c08c8279145deb5cf4526333460405161012192919061127c565b60405180910390a1005b3233146101815760405160e560020a62461bcd0281526020600482015260196024820152603860020a787068697368696e672061747461636b2064657465637465643f0260448201526064015b60405180910390fd5b7f26875833861a2b006512a11f1b86edf95df96131040f3caeed72989ee9858083333460405161012192919061127c565b3480156101be57600080fd5b50336000908152600560205260409020600201545b6040519081526020015b60405180910390f35b6101f96101f4366004611295565b610408565b60405190151581526020016101dd565b6101f96102173660046112ae565b610535565b6101f961022a366004611300565b61064a565b34801561023b57600080fd5b50610244610804565b6040516101dd929190611333565b34801561025e57600080fd5b5061027061026d366004611295565b50565b005b34801561027e57600080fd5b506101f9610961565b610270610b12565b34801561029b57600080fd5b506102af6102aa366004611295565b610b77565b6040805192151583526020830191909152016101dd565b6102ce610d5c565b6040516101dd919061137b565b6101f96102e9366004611295565b610dd2565b3480156102fa57600080fd5b506101f9610e09565b34801561030f57600080fd5b506101d3601e81565b34801561032457600080fd5b5061035e610333366004611295565b6000908152600660205260409020600181015460028201546003830154600490930154919390929190565b6040805194855260208501939093529183015260608201526080016101dd565b6101f961038c36600461138f565b610f4d565b6101d36110ec565b3480156103a557600080fd5b506101d360035481565b6102706103bd36600461138f565b611121565b3480156103ce57600080fd5b506103fb6040518060400160405280600a815260200160b060020a69312e362e342d626574610281525081565b6040516101dd91906113aa565b60008054600160a060020a031633146104365760405160e560020a62461bcd028152600401610178906113f8565b600082815260066020908152604091829020825160a0810184528154808252600183015493820193909352600282015493810193909352600381015460608401526004015460808301528390036104f65760008381526006602052604080822082815560018101839055600281018390556003810183905560040191909155517fb92ba9be82f279c48f5a918781a57960f85466ce5e13c17518afbf5eaab12cb1906104e59085815260200190565b60405180910390a150600192915050565b6040518381527fb532f97e05a9e1e6dc6e6370474a37711a249c3feefa8de769c660c99179a666906020015b60405180910390a160009150505b919050565b60008054600160a060020a031633146105635760405160e560020a62461bcd028152600401610178906113f8565b6040805160a0810182528781526020810187905290810185905260608101849052608081018390528315610608576000878152600660209081526040918290208351815583820151600182015583830151600282015560608401516003820155608084015160049091015590518881527fbcc0e36116309da282dcf13bde248ef63930f4114b68999c8570a86ffb3ab305910160405180910390a16001915050610641565b6040518781527fde3fcea9436a4548b1b926b143172c5d997c422c62fb19f04247322e494aecec9060200160405180910390a160009150505b95945050505050565b60008054600160a060020a031633146106785760405160e560020a62461bcd028152600401610178906113f8565b600160a060020a038416156107c2576000604051806080016040528086600160a060020a03168152602001858152602001848152602001604051806040016040528060006001604060020a038111156106d3576106d361142c565b6040519080825280602002602001820160405280156106fc578160200160208202803683370190505b5081526000602091820181905291909252600160a060020a0388811682526005835260409182902084518154600160a060020a03191692169190911781558383015160018201559083015160028201556060830151805180519495508594929391926003850192610771928492910190611202565b506020820151816001015550509050507f155e8619f4d23b96769599cb9af87da3e06a360082869c18578011da9a06e670856040516107b0919061137b565b60405180910390a160019150506107fd565b7f7c66b00fc05577d946381dc5b311ac0e6f93dbdc6f1b7b6a570ccdd7dbed6a03846040516107f1919061137b565b60405180910390a15060005b9392505050565b33600090815260056020908152604080832081516080810183528154600160a060020a03168152600182015481850152600282015481840152825160038301805460609681028301870186529482018581529596958695939493888601939291839183908b84018282801561089857602002820191906000526020600020905b815481526020019060010190808311610884575b505050918352505060019190910154602090910152905250606081015151519091506000816001604060020a038111156108d4576108d461142c565b6040519080825280602002602001820160405280156108fd578160200160208202803683370190505b50905060005b8281101561094b57600081815260066020526040902054825183908390811061092e5761092e611446565b6020908102919091010152806109438161147a565b915050610903565b5080836060015160200151945094505050509091565b33600090815260056020908152604080832081516080810183528154600160a060020a0316815260018201548185015260028201548184015282516003830180546060968102830187018652948201858152879693958487019484929184918401828280156109ef57602002820191906000526020600020905b8154815260200190600101908083116109db575b505050505081526020016001820154815250508152505090506000816060015160200151905080826040015110158015610a2e57506060820151515115155b15610ac3578082604001818151610a459190611493565b90525060408051600081830181815260608084019094528252602082018190529184015260048054839290610a7b9084906114ac565b90915550506040517f8068f12c6f872a8083325d2bfebb318eb0378ba88e7012c368a8156893a236e190610ab2903390849061127c565b60405180910390a160019250505090565b604080830151815133815260208101919091529081018290527fbd7548a105d5b3428c738a41df9789068d12a18b0f74dc9032b553e253e5d63f9060600160405180910390a160009250505090565b600054600160a060020a03163314610b3f5760405160e560020a62461bcd028152600401610178906113f8565b60008054604051600160a060020a03909116906000805160206114ed833981519152908390a360008054600160a060020a0319169055565b33600090815260056020908152604080832081516080810183528154600160a060020a031681526001820154818501526002820154818401528251600383018054606096810283018701865294820185815287968796949594818701949392849290918491840182828015610c0b57602002820191906000526020600020905b815481526020019060010190808311610bf7575b505050918352505060019182015460209182015291909252600088815260068252604090819020815160a08101835281548152938101548484015260028101549184019190915260038101546060808501829052600490920154608085015290850151805151920151949550919390925090610c8790826114ac565b60608501805160200191909152515151821015610d145760608084015185820151602090810151604080513381529283018c9052820192909252918201527f1e862ddcab5a3222c811c44ecc1c4a46d3da57dde0e884ad6e7e070a8ece23779060800160405180910390a160608401515151600190610d07908290611493565b9550955050505050915091565b7f5f187c44b1528b1d93b313a10cf6038ff514e59499f6790e1e2da2f7d1cfdd303388604051610d4592919061127c565b60405180910390a150600096879650945050505050565b6000601e600154610d6d91906114ac565b4211610d8e5760405160e560020a62461bcd028152600401610178906114bf565b601e600154610d9d91906114ac565b4211610dbe5760405160e560020a62461bcd028152600401610178906114bf565b5042600155600054600160a060020a031690565b60008054600160a060020a03163314610e005760405160e560020a62461bcd028152600401610178906113f8565b50600355600190565b33600090815260056020908152604080832081516080810183528154600160a060020a031681526001820154818501526002820154818401528251600383018054606096810283018701865294820185815287969395848701948492918491840182828015610e9757602002820191906000526020600020905b815481526020019060010190808311610e83575b50505050508152602001600182015481525050815250509050604051806040016040528060006001604060020a03811115610ed457610ed461142c565b604051908082528060200260200182016040528015610efd578160200160208202803683370190505b5081526000602090910152606082015280516040517f69dad80af5bbf467deb57c60ff8e39e3aacc707b1aa1c5b240aab4982f946fee91610f3d9161137b565b60405180910390a1600191505090565b60008054600160a060020a03163314610f7b5760405160e560020a62461bcd028152600401610178906113f8565b600160a060020a038083166000908152600560209081526040808320815160808101835281549095168552600181015485840152600281015485830152815160038201805494850282016060908101855293820185815295969592948487019492939192849291849184018282801561101357602002820191906000526020600020905b815481526020019060010190808311610fff575b5050509183525050600191909101546020909101529052508051909150600160a060020a0316156110bd57600160a060020a03831660009081526005602052604081208054600160a060020a03191681556001810182905560028101829055906003820181611082828261124d565b6001820160009055505050507f98106f8805b0ce455829ffa96d3025c1dbf9b72f0c7425f51365abc9b3d8d631836040516104e5919061137b565b7f82f89e1291aa3a9806447cdbb4216419b107869075e74a5c0036a897a94c946b83604051610522919061137b565b60008054600160a060020a0316331461111a5760405160e560020a62461bcd028152600401610178906113f8565b5060045490565b600054600160a060020a0316331461114e5760405160e560020a62461bcd028152600401610178906113f8565b600160a060020a0381166111b95760405160e560020a62461bcd02815260206004820152602660248201527f4f776e61626c653a206e6577206f776e657220697320746865207a65726f2061604482015260d060020a65646472657373026064820152608401610178565b60008054604051600160a060020a03808516939216916000805160206114ed83398151915291a360008054600160a060020a031916600160a060020a0392909216919091179055565b82805482825590600052602060002090810192821561123d579160200282015b8281111561123d578251825591602001919060010190611222565b50611249929150611267565b5090565b508054600082559060005260206000209081019061026d91905b5b808211156112495760008155600101611268565b600160a060020a03929092168252602082015260400190565b6000602082840312156112a757600080fd5b5035919050565b600080600080600060a086880312156112c657600080fd5b505083359560208501359550604085013594606081013594506080013592509050565b8035600160a060020a038116811461053057600080fd5b60008060006060848603121561131557600080fd5b61131e846112e9565b95602085013595506040909401359392505050565b604080825283519082018190526000906020906060840190828701845b8281101561136c57815184529284019290840190600101611350565b50505092019290925292915050565b600160a060020a0391909116815260200190565b6000602082840312156113a157600080fd5b6107fd826112e9565b600060208083528351808285015260005b818110156113d7578581018301518582016040015282016113bb565b506000604082860101526040601f19601f8301168501019250505092915050565b6020808252601790820152604960020a7630b1b1b2b9b9903232b734b2b2103337b91037bbb732b902604082015260600190565b60e060020a634e487b710260009081526041600452602490fd5b60e060020a634e487b710260009081526032600452602490fd5b60e060020a634e487b710260009081526011600452602490fd5b60006001820161148c5761148c611460565b5060010190565b818103818111156114a6576114a6611460565b92915050565b808201808211156114a6576114a6611460565b6020808252601090820152608160020a6f3930ba32903634b6b4ba1032b93937b90260408201526060019056fe8be0079c531659141344cd1fd0a4f28419497f9722a3daafe3b4186f6b6457e0a26469706673582212207f37922c237379a8ce709e883781708b990cfe0f806d8026468f4d83da9ede0f64736f6c63430008120033",
  "immutableReferences": {},
  "source": "// SPDX-License-Identifier: CC-BY-4.0\r\npragma solidity >=0.4.22 <0.9.0;\r\n\r\n// See https://github.com/brakmic/BlockchainStore\r\n\r\nimport \"../common/Version.sol\";\r\nimport \"../common/Owned.sol\";\r\n\r\n/**\r\n    @notice This contract implements a simple store that can interact with\r\n    registered customers. Every customer has its own shopping cart.\r\n    @title Retail Store Contract\r\n    @author Harris Brakmic\r\n*/\r\ncontract Store is Version, Owned {\r\n\r\n    /* Store internals */\r\n    bytes32 public store_name; // store name\r\n    uint256 private store_balance;  // store balance\r\n\r\n    mapping (address => Customer) customers;\r\n    mapping (uint256 => Product) products;\r\n\r\n    /* Store Events */\r\n    event CustomerRegistered(address customer);\r\n    event CustomerRegistrationFailed(address customer);\r\n    event CustomerDeregistered(address customer);\r\n    event CustomerDeregistrationFailed(address customer);\r\n\r\n    event ProductRegistered(uint256 productId);\r\n    event ProductDeregistered(uint256 productId);\r\n    event ProductRegistrationFailed(uint256 productId);\r\n    event ProductDeregistrationFaled(uint256 productId);\r\n\r\n    event CartProductInserted(address customer, uint256 prodId, uint256 prodPrice, uint256 completeSum);\r\n    event CartProductInsertionFailed(address customer, uint256 prodId);\r\n    event CartProductRemoved(address customer, uint256 prodId);\r\n    event CartCheckoutCompleted(address customer, uint256 paymentSum);\r\n    event CartCheckoutFailed(address customer, uint256 customerBalance, uint256 paymentSum);\r\n    event CartEmptied(address customer);\r\n\r\n    /**\r\n        @notice A shopping cart contains an array of product ids: @products\r\n        and a sum of product prices: @completeSum\r\n        The @completeSum gets automatically updated when customer\r\n        adds or removes products.\r\n    */\r\n    struct Cart {\r\n      uint256[] products;\r\n      uint256 completeSum;\r\n    }\r\n\r\n    /**\r\n        @notice every customer has an address, name,\r\n        balance and a shopping cart\r\n    */\r\n    struct Customer {\r\n        address adr;\r\n        bytes32 name;\r\n        uint256 balance;\r\n        Cart cart;\r\n    }\r\n\r\n    /**\r\n        @notice Represents a product:\r\n        Product id: @id\r\n        Product name: @name\r\n        Decription: @description\r\n        Amount of items in a single product: @default_amount\r\n    */\r\n    struct Product {\r\n        uint256 id;\r\n        bytes32 name;\r\n        bytes32 description;\r\n        uint256 price;\r\n        uint256 default_amount;\r\n    }\r\n\r\n    /**\r\n        @notice Represents a receipt [NOT IN USE]\r\n    */\r\n    struct Receipt {\r\n        InvoiceLine[] lines;\r\n        address customer_address;\r\n    }\r\n\r\n    /**\r\n        @notice Represents a single entry describing a single product [NOT IN USE]\r\n    */\r\n    struct InvoiceLine {\r\n        bytes product_id;\r\n        uint256 amount;\r\n        uint256 product_price;\r\n        uint256 total_price;\r\n    }\r\n\r\n    /**\r\n        @notice Default constructor\r\n    */\r\n    constructor() {\r\n        store_name = 'my-store-name';\r\n        store_balance = 0;\r\n    }\r\n\r\n    /**\r\n          @notice Register a single product\r\n          @param id Product ID\r\n          @param name Product Name\r\n          @param description Product Description\r\n          @param price Product Price\r\n          @param default_amount Default amount of items in a single product\r\n          @return success\r\n    */\r\n    function registerProduct(uint256 id, bytes32 name, bytes32 description, uint256 price, uint256 default_amount)\r\n        public\r\n        payable\r\n        onlyOwner\r\n        returns (bool success)\r\n    {\r\n        Product memory product = Product(id, name, description, price, default_amount);\r\n        if (checkProductValidity(product)) {\r\n            products[id] = product;\r\n            emit ProductRegistered(id);\r\n            return true;\r\n        }\r\n        emit ProductRegistrationFailed(id);\r\n        return false;\r\n    }\r\n\r\n    /**\r\n          @notice Removes a product from the list\r\n          @param id Product ID\r\n          @return success\r\n    */\r\n    function deregisterProduct(uint256 id)\r\n        public\r\n        payable\r\n        onlyOwner\r\n        returns (bool success)\r\n    {\r\n        Product memory product = products[id];\r\n        if (product.id == id) {\r\n            delete products[id];\r\n            emit ProductDeregistered(id);\r\n            return true;\r\n        }\r\n        emit ProductDeregistrationFaled(id);\r\n        return false;\r\n    }\r\n\r\n    /**\r\n          @notice Registers a new customer (only store owners)\r\n          @param _address Customer's address\r\n          @param _name Customer's name\r\n          @param _balance Customer's balance\r\n          @return success\r\n    */\r\n    function registerCustomer(address _address, bytes32 _name, uint256 _balance)\r\n        public\r\n        payable\r\n        onlyOwner\r\n        returns (bool success)\r\n    {\r\n        if (_address != address(0)) {\r\n            Customer memory customer = Customer({\r\n                                                    adr: _address,\r\n                                                    name: _name,\r\n                                                    balance: _balance,\r\n                                                    cart: Cart(new uint256[](0), 0)\r\n                                                });\r\n            customers[_address] = customer;\r\n            emit CustomerRegistered(_address);\r\n            return true;\r\n        }\r\n        emit CustomerRegistrationFailed(_address);\r\n        return false;\r\n    }\r\n\r\n    /**\r\n        @notice Removes a customer (only store owners)\r\n        @param _address Customer's address\r\n        @return success\r\n    */\r\n    function deregisterCustomer(address _address)\r\n        public\r\n        payable\r\n        onlyOwner\r\n        returns (bool success)\r\n    {\r\n        Customer memory customer = customers[_address];\r\n        if (customer.adr != address(0)) {\r\n            delete customers[_address];\r\n            emit CustomerDeregistered(_address);\r\n            return true;\r\n        }\r\n        emit CustomerDeregistrationFailed(_address);\r\n        return false;\r\n    }\r\n\r\n    function insertProductIntoCart(uint256 id)\r\n        public\r\n        returns (bool success, uint256 pos_in_prod_mapping)\r\n    {\r\n        Customer memory cust = customers[msg.sender];\r\n        Product memory prod = products[id];\r\n        uint256 prods_prev_len = cust.cart.products.length;\r\n        // TODO fix TypeError: Member \"push\" is not available in uint256[] memory outside of storage.\r\n        // cust.cart.products.push(prod.id);\r\n        uint256 current_sum = cust.cart.completeSum;\r\n        cust.cart.completeSum = current_sum + prod.price;\r\n        if (cust.cart.products.length > prods_prev_len) {\r\n          emit CartProductInserted(msg.sender, id, prod.price, cust.cart.completeSum);\r\n          return (true, cust.cart.products.length - 1);\r\n        }\r\n        emit CartProductInsertionFailed(msg.sender, id);\r\n        return (false, 0);\r\n    }\r\n\r\n    function removeProductFromCart(uint256 prod_pos_in_mapping)\r\n        public\r\n        pure\r\n    {\r\n        prod_pos_in_mapping;\r\n        // Uncomment next line when TODO's are completed?\r\n        // uint256[] memory new_product_list = new uint256[](customers[msg.sender].cart.products.length - 1);\r\n        // TODO fix TypeError: Member \"push\" is not available in uint256[] memory outside of storage.\r\n        // Product memory customerProds = customers[msg.sender].cart.products;\r\n        // TODO fix TypeError: Member \"length\" not found or not visible after argument-dependent lookup in struct Store.Product memory.\r\n        /*\r\n        for (uint256 i = 0; i < customerProds.length; i++) {\r\n          if (i != prod_pos_in_mapping) {\r\n            new_product_list[i] = customerProds[i];\r\n          } else {\r\n            customers[msg.sender].cart.completeSum -= products[customerProds[i]].price;\r\n            emit CartProductRemoved(msg.sender, customerProds[i]);\r\n          }\r\n        }\r\n        customers[msg.sender].cart.products = new_product_list;\r\n        */\r\n    }\r\n\r\n    function checkoutCart()\r\n        public\r\n        returns (bool success)\r\n    {\r\n        Customer memory customer = customers[msg.sender];\r\n        uint256 paymentSum = customer.cart.completeSum;\r\n        if ((customer.balance >= paymentSum) &&\r\n            customer.cart.products.length > 0) {\r\n            customer.balance -= paymentSum;\r\n            customer.cart = Cart(new uint256[](0), 0);\r\n            store_balance += paymentSum;\r\n            emit CartCheckoutCompleted(msg.sender, paymentSum);\r\n            return true;\r\n        }\r\n        emit CartCheckoutFailed(msg.sender, customer.balance, paymentSum);\r\n        return false;\r\n    }\r\n\r\n    function emptyCart()\r\n        public\r\n        returns (bool success)\r\n    {\r\n      /*if (msg.sender != owner) {*/\r\n        Customer memory customer = customers[msg.sender];\r\n        customer.cart = Cart(new uint256[](0), 0);\r\n        emit CartEmptied(customer.adr);\r\n        return true;\r\n      /*}*/\r\n      /*return false;*/\r\n    }\r\n\r\n    function renameStoreTo(bytes32 new_store_name)\r\n        public\r\n        payable\r\n        onlyOwner\r\n        returns (bool success)\r\n    {\r\n        if (new_store_name.length != 0 &&\r\n            new_store_name.length <= 32) {\r\n            store_name = new_store_name;\r\n            return true;\r\n        }\r\n        return false;\r\n    }\r\n\r\n    function getProduct(uint256 id)\r\n        public\r\n        view\r\n        returns (bytes32 name, bytes32 description, uint256 price, uint256 default_amount)\r\n    {\r\n       return (products[id].name,\r\n               products[id].description,\r\n               products[id].price,\r\n               products[id].default_amount);\r\n    }\r\n\r\n    function getCart()\r\n        public\r\n        view\r\n        returns (uint256[] memory product_ids, uint256 complete_sum)\r\n    {\r\n      Customer memory customer = customers[msg.sender];\r\n      uint256 len = customer.cart.products.length;\r\n      uint256[] memory ids = new uint256[](len);\r\n      for (uint256 i = 0; i < len; i++) {\r\n        ids[i] = products[i].id;\r\n      }\r\n      return (ids, customer.cart.completeSum);\r\n    }\r\n\r\n    function getBalance()\r\n        public\r\n        view\r\n        returns (uint256 _balance)\r\n    {\r\n      return customers[msg.sender].balance;\r\n    }\r\n\r\n    function getStoreBalance()\r\n        public\r\n        payable\r\n        onlyOwner\r\n        returns (uint256)\r\n    {\r\n      return store_balance;\r\n    }\r\n\r\n    function checkProductValidity(Product memory product)\r\n        private\r\n        pure\r\n        returns (bool valid)\r\n    {\r\n       return (product.price > 0);\r\n    }\r\n}",
  "sourcePath": "/Volumes/My Book/projects/pingleware-contracts/contracts/retail/Store.sol",
  "compiler": {
    "name": "solc",
    "version": "0.8.18+commit.87f61d96.Emscripten.clang"
  },
  "schemaVersion": "3.4.12",
  "updatedAt": "2023-10-24T20:04:47.268Z",
  "networkType": "ethereum",
  "devdoc": {
    "author": "Harris Brakmic",
    "kind": "dev",
    "methods": {
      "deregisterCustomer(address)": {
        "params": {
          "_address": "Customer's address"
        },
        "returns": {
          "success": "success"
        }
      },
      "deregisterProduct(uint256)": {
        "params": {
          "id": "Product ID"
        },
        "returns": {
          "success": "success"
        }
      },
      "registerCustomer(address,bytes32,uint256)": {
        "params": {
          "_address": "Customer's address",
          "_balance": "Customer's balance",
          "_name": "Customer's name"
        },
        "returns": {
          "success": "success"
        }
      },
      "registerProduct(uint256,bytes32,bytes32,uint256,uint256)": {
        "params": {
          "default_amount": "Default amount of items in a single product",
          "description": "Product Description",
          "id": "Product ID",
          "name": "Product Name",
          "price": "Product Price"
        },
        "returns": {
          "success": "success"
        }
      },
      "renounceOwnership()": {
        "details": "Leaves the contract without owner. It will not be possible to call `onlyOwner` functions anymore. Can only be called by the current owner. NOTE: Renouncing ownership will leave the contract without an owner, thereby removing any functionality that is only available to the owner."
      },
      "transferOwnership(address)": {
        "details": "Transfers ownership of the contract to a new account (`newOwner`). Can only be called by the current owner."
      }
    },
    "title": "Retail Store Contract",
    "version": 1
  },
  "userdoc": {
    "kind": "user",
    "methods": {
      "constructor": {
        "notice": "Default constructor"
      },
      "deregisterCustomer(address)": {
        "notice": "Removes a customer (only store owners)"
      },
      "deregisterProduct(uint256)": {
        "notice": "Removes a product from the list"
      },
      "registerCustomer(address,bytes32,uint256)": {
        "notice": "Registers a new customer (only store owners)"
      },
      "registerProduct(uint256,bytes32,bytes32,uint256,uint256)": {
        "notice": "Register a single product"
      }
    },
    "notice": "This contract implements a simple store that can interact with registered customers. Every customer has its own shopping cart.",
    "version": 1
  }
}