{
  "contractName": "StringUtils",
  "abi": [
    {
      "inputs": [
        {
          "internalType": "string",
          "name": "_a",
          "type": "string"
        },
        {
          "internalType": "string",
          "name": "_b",
          "type": "string"
        }
      ],
      "name": "equal",
      "outputs": [
        {
          "internalType": "bool",
          "name": "",
          "type": "bool"
        }
      ],
      "stateMutability": "pure",
      "type": "function",
      "constant": true
    },
    {
      "inputs": [
        {
          "internalType": "string",
          "name": "_haystack",
          "type": "string"
        },
        {
          "internalType": "string",
          "name": "_needle",
          "type": "string"
        }
      ],
      "name": "indexOf",
      "outputs": [
        {
          "internalType": "int256",
          "name": "",
          "type": "int256"
        }
      ],
      "stateMutability": "pure",
      "type": "function",
      "constant": true
    }
  ],
  "bytecode": "0x61052b610053600b82828239805160001a607314610046577f4e487b7100000000000000000000000000000000000000000000000000000000600052600060045260246000fd5b30600052607381538281f3fe73000000000000000000000000000000000000000030146080604052600436106100435760e060020a600035046346bdca9a81146100485780638a0807b714610070575b600080fd5b61005b610056366004610432565b610091565b60405190151581526020015b60405180910390f35b61008361007e366004610432565b6100a7565b604051908152602001610067565b600061009d838361023f565b1590505b92915050565b815160009083908390600111806100bf575060018151105b806100cb575081518151115b156100dc57600019925050506100a1565b6001608060020a03825111156100f857600019925050506100a1565b6000805b8351811015610231578260008151811061011857610118610495565b602001015160f860020a900460f860020a02600160f860020a03191684828151811061014657610146610495565b602001015160f860020a900460f860020a02600160f860020a0319160361021f57600191505b8251821080156101855750835161018383836104c9565b105b80156101f5575082828151811061019e5761019e610495565b602001015160f860020a900460f860020a02600160f860020a0319168483836101c791906104c9565b815181106101d7576101d7610495565b602001015160f860020a900460f860020a02600160f860020a031916145b1561020c5781610204816104dc565b92505061016c565b8251820361021f5793506100a192505050565b80610229816104dc565b9150506100fc565b5060001993505050506100a1565b815181516000918491849190811115610256575080515b60005b818110156103525782818151811061027357610273610495565b602001015160f860020a900460f860020a02600160f860020a0319168482815181106102a1576102a1610495565b602001015160f860020a900460f860020a02600160f860020a03191610156102d1576000199450505050506100a1565b8281815181106102e3576102e3610495565b602001015160f860020a900460f860020a02600160f860020a03191684828151811061031157610311610495565b602001015160f860020a900460f860020a02600160f860020a03191611156103405760019450505050506100a1565b8061034a816104dc565b915050610259565b5081518351101561036a5760001993505050506100a1565b81518351111561038057600193505050506100a1565b600093505050506100a1565b60e060020a634e487b710260009081526041600452602490fd5b600082601f8301126103b757600080fd5b81356001604060020a03808211156103d1576103d161038c565b604051601f8301601f19908116603f011681019082821181831017156103f9576103f961038c565b8160405283815286602085880101111561041257600080fd5b836020870160208301376000602085830101528094505050505092915050565b6000806040838503121561044557600080fd5b82356001604060020a038082111561045c57600080fd5b610468868387016103a6565b9350602085013591508082111561047e57600080fd5b5061048b858286016103a6565b9150509250929050565b60e060020a634e487b710260009081526032600452602490fd5b60e060020a634e487b710260009081526011600452602490fd5b808201808211156100a1576100a16104af565b6000600182016104ee576104ee6104af565b506001019056fea2646970667358221220f78d708e6d6ea0a4f87eab3277fe0d49572e9c410e8ec19392ed13c86d33e94864736f6c63430008120033",
  "immutableReferences": {},
  "source": "// SPDX-License-Identifier: CC-BY-4.0\r\npragma solidity >=0.4.22 <0.9.0;\r\n\r\nlibrary StringUtils {\r\n    /// @dev Does a byte-by-byte lexicographical comparison of two strings.\r\n    /// @return a negative number if `_a` is smaller, zero if they are equal\r\n    /// and a positive numbe if `_b` is smaller.\r\n    function compare(string memory _a, string memory _b)\r\n        internal\r\n        pure\r\n        returns (int)\r\n    {\r\n        bytes memory a = bytes(_a);\r\n        bytes memory b = bytes(_b);\r\n        uint minLength = a.length;\r\n        if (b.length < minLength) minLength = b.length;\r\n        //@todo unroll the loop into increments of 32 and do full 32 byte comparisons\r\n        for (uint i = 0; i < minLength; i ++)\r\n            if (a[i] < b[i])\r\n                return -1;\r\n            else if (a[i] > b[i])\r\n                return 1;\r\n        if (a.length < b.length)\r\n            return -1;\r\n        else if (a.length > b.length)\r\n            return 1;\r\n        else\r\n            return 0;\r\n    }\r\n    /// @dev Compares two strings and returns true iff they are equal.\r\n    function equal(string memory _a, string memory _b)\r\n        external\r\n        pure\r\n        returns (bool)\r\n    {\r\n        return compare(_a, _b) == 0;\r\n    }\r\n    /// @dev Finds the index of the first occurrence of _needle in _haystack\r\n    function indexOf(string memory _haystack, string memory _needle)\r\n        external\r\n        pure\r\n        returns (int)\r\n    {\r\n    \tbytes memory h = bytes(_haystack);\r\n    \tbytes memory n = bytes(_needle);\r\n    \tif (h.length < 1 || n.length < 1 || (n.length > h.length)) {\r\n    \t\treturn -1;\r\n        } else if(h.length > (2**128 - 1)) {\r\n            // since we have to be able to return -1 (if the char isn't found or input error), this function must return an \"int\" type with a max length of (2^128 - 1)\r\n    \t\treturn -1;\r\n        } else {\r\n    \t\tuint subindex = 0;\r\n    \t\tfor (uint i = 0; i < h.length; i ++)\r\n    \t\t{\r\n    \t\t\tif (h[i] == n[0]) // found the first char of b\r\n    \t\t\t{\r\n    \t\t\t\tsubindex = 1;\r\n    \t\t\t\twhile(subindex < n.length && (i + subindex) < h.length && h[i + subindex] == n[subindex]) // search until the chars don't match or until we reach the end of a or b\r\n    \t\t\t\t{\r\n    \t\t\t\t\tsubindex++;\r\n    \t\t\t\t}\r\n    \t\t\t\tif(subindex == n.length)\r\n    \t\t\t\t\treturn int(i);\r\n    \t\t\t}\r\n    \t\t}\r\n    \t\treturn -1;\r\n    \t}\r\n    }\r\n}",
  "sourcePath": "/Volumes/My Book/projects/pingleware-contracts/contracts/libs/StringUtils.sol",
  "compiler": {
    "name": "solc",
    "version": "0.8.18+commit.87f61d96.Emscripten.clang"
  },
  "schemaVersion": "3.4.12",
  "updatedAt": "2023-10-24T05:53:39.652Z",
  "networkType": "ethereum",
  "devdoc": {
    "kind": "dev",
    "methods": {
      "equal(string,string)": {
        "details": "Compares two strings and returns true iff they are equal."
      },
      "indexOf(string,string)": {
        "details": "Finds the index of the first occurrence of _needle in _haystack"
      }
    },
    "version": 1
  },
  "userdoc": {
    "kind": "user",
    "methods": {},
    "version": 1
  }
}