{
  "contractName": "StringUtils",
  "abi": [
    {
      "inputs": [
        {
          "internalType": "string",
          "name": "_a",
          "type": "string"
        },
        {
          "internalType": "string",
          "name": "_b",
          "type": "string"
        }
      ],
      "name": "equal",
      "outputs": [
        {
          "internalType": "bool",
          "name": "",
          "type": "bool"
        }
      ],
      "stateMutability": "pure",
      "type": "function"
    },
    {
      "inputs": [
        {
          "internalType": "string",
          "name": "_haystack",
          "type": "string"
        },
        {
          "internalType": "string",
          "name": "_needle",
          "type": "string"
        }
      ],
      "name": "indexOf",
      "outputs": [
        {
          "internalType": "int256",
          "name": "",
          "type": "int256"
        }
      ],
      "stateMutability": "pure",
      "type": "function"
    }
  ],
  "bytecode": "0x6080806040523461001a576103b19081610020823930815050f35b600080fdfe6080604052600436101561001257600080fd5b60e060020a600035046346bdca9a811461005157638a0807b71461003557600080fd5b6020610049610043366100f0565b90610246565b604051908152f35b602061006561005f366100f0565b9061018a565b15604051908152f35b81601f820112156100d1576001604060020a0391813591908383116100d65760405193601f8401601f19908116603f01168501908111858210176100d657604052828452602083830101116100d157816000926020809301838601378301015290565b600080fd5b60e060020a634e487b710260009081526041600452602490fd5b9060406003198301126100d1576001604060020a036004358181116100d1578361011c9160040161006e565b926024359182116100d1576101339160040161006e565b90565b60001981146101455760010190565b60e060020a634e487b710260009081526011600452602490fd5b908151811015610170570160200190565b60e060020a634e487b710260009081526032600452602490fd5b80518251818110610231575b5060005b8181106101c757505051905190818110156101b757505060001990565b11156101c257600190565b600090565b600160f860020a0319806101db838661015f565b5116816101e8848861015f565b511611156101fb57505050505060001990565b80610206838661015f565b511690610213838761015f565b5116106102285761022390610136565b61019a565b50505050600190565b905038610196565b9190820180921161014557565b8051916001928381108015610371575b8015610367575b1561026c575050505060001990565b6001608060020a0310156102835750505060001990565b82916000935b610298575b5050505060001990565b805184101561036257600160f860020a0319806102b5868461015f565b51168351156101705781602085015116146102dc575b506102d68394610136565b93610289565b8390815b6102f9575b508251146102f357386102cb565b50505090565b90835181108061034f575b80610325575b1561031f5761031890610136565b90846102e0565b906102e5565b508161033a6103348389610239565b8561015f565b511682610347838761015f565b51161461030a565b5061035a8187610239565b835111610304565b61028e565b508082511161025d565b508382511061025656fea2646970667358221220a57c680694a170712694ea4d62654ba5e75ceaccc8f9a87f2527ad20869cb3c164736f6c63430008120033",
  "immutableReferences": {},
  "source": "// SPDX-License-Identifier: CC-BY-4.0\r\npragma solidity >=0.4.22 <0.9.0;\r\n\r\nlibrary StringUtils {\r\n    /// @dev Does a byte-by-byte lexicographical comparison of two strings.\r\n    /// @return a negative number if `_a` is smaller, zero if they are equal\r\n    /// and a positive numbe if `_b` is smaller.\r\n    function compare(string memory _a, string memory _b)\r\n        internal\r\n        pure\r\n        returns (int)\r\n    {\r\n        bytes memory a = bytes(_a);\r\n        bytes memory b = bytes(_b);\r\n        uint minLength = a.length;\r\n        if (b.length < minLength) minLength = b.length;\r\n        //@todo unroll the loop into increments of 32 and do full 32 byte comparisons\r\n        for (uint i = 0; i < minLength; i ++)\r\n            if (a[i] < b[i])\r\n                return -1;\r\n            else if (a[i] > b[i])\r\n                return 1;\r\n        if (a.length < b.length)\r\n            return -1;\r\n        else if (a.length > b.length)\r\n            return 1;\r\n        else\r\n            return 0;\r\n    }\r\n    /// @dev Compares two strings and returns true iff they are equal.\r\n    function equal(string memory _a, string memory _b)\r\n        external\r\n        pure\r\n        returns (bool)\r\n    {\r\n        return compare(_a, _b) == 0;\r\n    }\r\n    /// @dev Finds the index of the first occurrence of _needle in _haystack\r\n    function indexOf(string memory _haystack, string memory _needle)\r\n        external\r\n        pure\r\n        returns (int)\r\n    {\r\n    \tbytes memory h = bytes(_haystack);\r\n    \tbytes memory n = bytes(_needle);\r\n    \tif (h.length < 1 || n.length < 1 || (n.length > h.length)) {\r\n    \t\treturn -1;\r\n        } else if(h.length > (2**128 - 1)) {\r\n            // since we have to be able to return -1 (if the char isn't found or input error), this function must return an \"int\" type with a max length of (2^128 - 1)\r\n    \t\treturn -1;\r\n        } else {\r\n    \t\tuint subindex = 0;\r\n    \t\tfor (uint i = 0; i < h.length; i ++)\r\n    \t\t{\r\n    \t\t\tif (h[i] == n[0]) // found the first char of b\r\n    \t\t\t{\r\n    \t\t\t\tsubindex = 1;\r\n    \t\t\t\twhile(subindex < n.length && (i + subindex) < h.length && h[i + subindex] == n[subindex]) // search until the chars don't match or until we reach the end of a or b\r\n    \t\t\t\t{\r\n    \t\t\t\t\tsubindex++;\r\n    \t\t\t\t}\r\n    \t\t\t\tif(subindex == n.length)\r\n    \t\t\t\t\treturn int(i);\r\n    \t\t\t}\r\n    \t\t}\r\n    \t\treturn -1;\r\n    \t}\r\n    }\r\n}",
  "sourcePath": "/Volumes/HOME/pingleware-contracts/contracts/libs/StringUtils.sol",
  "compiler": {
    "name": "solc",
    "version": "0.8.18+commit.87f61d96.Emscripten.clang"
  },
  "schemaVersion": "3.4.12",
  "updatedAt": "2024-05-23T18:56:26.897Z",
  "devdoc": {
    "kind": "dev",
    "methods": {
      "equal(string,string)": {
        "details": "Compares two strings and returns true iff they are equal."
      },
      "indexOf(string,string)": {
        "details": "Finds the index of the first occurrence of _needle in _haystack"
      }
    },
    "version": 1
  },
  "userdoc": {
    "kind": "user",
    "methods": {},
    "version": 1
  }
}