{
  "contractName": "Subscriber",
  "abi": [
    {
      "inputs": [],
      "name": "onlySubscriber",
      "outputs": [
        {
          "internalType": "bool",
          "name": "",
          "type": "bool"
        }
      ],
      "stateMutability": "view",
      "type": "function"
    },
    {
      "inputs": [
        {
          "internalType": "address",
          "name": "addr",
          "type": "address"
        }
      ],
      "name": "isSubscriber",
      "outputs": [
        {
          "internalType": "bool",
          "name": "",
          "type": "bool"
        }
      ],
      "stateMutability": "view",
      "type": "function"
    },
    {
      "inputs": [],
      "name": "getSubscribers",
      "outputs": [
        {
          "internalType": "address[]",
          "name": "",
          "type": "address[]"
        }
      ],
      "stateMutability": "view",
      "type": "function"
    }
  ],
  "bytecode": "0x610281610053600b82828239805160001a607314610046577f4e487b7100000000000000000000000000000000000000000000000000000000600052600060045260246000fd5b30600052607381538281f3fe7300000000000000000000000000000000000000003014608060405260043610610067577c0100000000000000000000000000000000000000000000000000000000600035046305cc61ad811461006c5780635ec9df5b1461008a578063c4804ef0146100cc575b600080fd5b610074610123565b60405161008191906101b4565b60405180910390f35b3360009081527f4317346ae582bd8e389df457fdce80980031cc45c7f93fb7267b8465e659af72602052604090205415155b6040519015158152602001610081565b6100bc6100da36600461020e565b73ffffffffffffffffffffffffffffffffffffffff1660009081527f4317346ae582bd8e389df457fdce80980031cc45c7f93fb7267b8465e659af726020526040902054151590565b60607f4317346ae582bd8e389df457fdce80980031cc45c7f93fb7267b8465e659af726001018054806020026020016040519081016040528092919081815260200182805480156101aa57602002820191906000526020600020905b815473ffffffffffffffffffffffffffffffffffffffff16815260019091019060200180831161017f575b5050505050905090565b6020808252825182820181905260009190848201906040850190845b8181101561020257835173ffffffffffffffffffffffffffffffffffffffff16835292840192918401916001016101d0565b50909695505050505050565b60006020828403121561022057600080fd5b813573ffffffffffffffffffffffffffffffffffffffff8116811461024457600080fd5b939250505056fea2646970667358221220e5f0efbb90b114e0e7f7779622aa03a478273fa173c3b8cb971b4b769954fe4564736f6c634300080a0033",
  "immutableReferences": {},
  "source": "// SPDX-License-Identifier: CC-BY-4.0\r\npragma solidity >=0.4.22 <0.9.0;\r\n\r\n\r\nlibrary Subscriber {\r\n    bytes32 constant private ZERO_BYTES = bytes32(0);\r\n    address constant private ZERO_ADDRESS = address(0);\r\n\r\n    struct SubscriberStorage {\r\n        mapping(address => uint256) subscribers;\r\n        address[] _subscribers;\r\n    }\r\n\r\n    function subscriberStorage() internal pure returns (SubscriberStorage storage ds)\r\n    {\r\n        bytes32 position = keccak256(\"subscriber.storage\");\r\n        assembly { ds.slot := position }\r\n    }\r\n\r\n\r\n    function onlySubscriber()\r\n        external\r\n        view\r\n        returns (bool)\r\n    {\r\n        return (subscriberStorage().subscribers[msg.sender] != 0);\r\n    }\r\n\r\n    function isSubscriber(address addr)\r\n        external\r\n        view\r\n        returns (bool)\r\n    {\r\n        return (subscriberStorage().subscribers[addr] != 0);\r\n    }\r\n\r\n    function alreadySubscriber(address addr)\r\n        internal\r\n        view\r\n        returns (bool)\r\n    {\r\n        bool found = false;\r\n        for (uint i = 0; i < subscriberStorage()._subscribers.length; i++) {\r\n            if (subscriberStorage()._subscribers[i] == addr) {\r\n                found = true;\r\n            }\r\n        }\r\n        return found;\r\n    }\r\n\r\n    function addSubscriber(address addr, uint256 _type)\r\n        internal\r\n        returns (bool)\r\n    {\r\n        if (alreadySubscriber(addr) == false) {\r\n            subscriberStorage().subscribers[addr] = _type;\r\n            subscriberStorage()._subscribers.push(addr);\r\n            return true;\r\n        }\r\n        return false;\r\n    }\r\n\r\n    function getSubscribers()\r\n        external\r\n        view\r\n        returns (address[] memory)\r\n    {\r\n        return subscriberStorage()._subscribers;\r\n    }\r\n\r\n}",
  "sourcePath": "G:\\projects\\pingleware-contracts\\contracts\\credit\\Subscriber.sol",
  "compiler": {
    "name": "solc",
    "version": "0.8.10+commit.fc410830.Emscripten.clang"
  },
  "schemaVersion": "3.4.3",
  "updatedAt": "2021-12-25T15:51:03.652Z",
  "devdoc": {
    "kind": "dev",
    "methods": {},
    "version": 1
  },
  "userdoc": {
    "kind": "user",
    "methods": {},
    "version": 1
  }
}