{
  "contractName": "Subscriber",
  "abi": [
    {
      "inputs": [],
      "name": "onlySubscriber",
      "outputs": [
        {
          "internalType": "bool",
          "name": "",
          "type": "bool"
        }
      ],
      "stateMutability": "view",
      "type": "function",
      "constant": true
    },
    {
      "inputs": [
        {
          "internalType": "address",
          "name": "addr",
          "type": "address"
        }
      ],
      "name": "isSubscriber",
      "outputs": [
        {
          "internalType": "bool",
          "name": "",
          "type": "bool"
        }
      ],
      "stateMutability": "view",
      "type": "function",
      "constant": true
    },
    {
      "inputs": [],
      "name": "getSubscribers",
      "outputs": [
        {
          "internalType": "address[]",
          "name": "",
          "type": "address[]"
        }
      ],
      "stateMutability": "view",
      "type": "function",
      "constant": true
    }
  ],
  "bytecode": "0x61022b610053600b82828239805160001a607314610046577f4e487b7100000000000000000000000000000000000000000000000000000000600052600060045260246000fd5b30600052607381538281f3fe730000000000000000000000000000000000000000301460806040526004361061004e5760e060020a600035046305cc61ad81146100535780635ec9df5b14610071578063c4804ef014610089575b600080fd5b61005b61009c565b6040516100689190610178565b60405180910390f35b610079610107565b6040519015158152602001610068565b6100796100973660046101c5565b610129565b60606100a6610154565b6001018054806020026020016040519081016040528092919081815260200182805480156100fd57602002820191906000526020600020905b8154600160a060020a031681526001909101906020018083116100df575b5050505050905090565b6000610111610154565b33600090815260209190915260409020541515919050565b6000610133610154565b600160a060020a039092166000908152602092909252506040902054151590565b7f4317346ae582bd8e389df457fdce80980031cc45c7f93fb7267b8465e659af7290565b6020808252825182820181905260009190848201906040850190845b818110156101b9578351600160a060020a031683529284019291840191600101610194565b50909695505050505050565b6000602082840312156101d757600080fd5b8135600160a060020a03811681146101ee57600080fd5b939250505056fea26469706673582212206f3e6cf51c0823724a2cde33e9bc86ea39a2beb9201c661f37136e34bb3cebf064736f6c63430008120033",
  "immutableReferences": {},
  "source": "// SPDX-License-Identifier: CC-BY-4.0\r\npragma solidity >=0.4.22 <0.9.0;\r\n\r\n\r\nlibrary Subscriber {\r\n    bytes32 constant private ZERO_BYTES = bytes32(0);\r\n    address constant private ZERO_ADDRESS = address(0);\r\n\r\n    struct SubscriberStorage {\r\n        mapping(address => uint256) subscribers;\r\n        address[] _subscribers;\r\n    }\r\n\r\n    function subscriberStorage() internal pure returns (SubscriberStorage storage ds)\r\n    {\r\n        bytes32 position = keccak256(\"subscriber.storage\");\r\n        assembly { ds.slot := position }\r\n    }\r\n\r\n\r\n    function onlySubscriber()\r\n        external\r\n        view\r\n        returns (bool)\r\n    {\r\n        return (subscriberStorage().subscribers[msg.sender] != 0);\r\n    }\r\n\r\n    function isSubscriber(address addr)\r\n        external\r\n        view\r\n        returns (bool)\r\n    {\r\n        return (subscriberStorage().subscribers[addr] != 0);\r\n    }\r\n\r\n    function alreadySubscriber(address addr)\r\n        internal\r\n        view\r\n        returns (bool)\r\n    {\r\n        bool found = false;\r\n        for (uint i = 0; i < subscriberStorage()._subscribers.length; i++) {\r\n            if (subscriberStorage()._subscribers[i] == addr) {\r\n                found = true;\r\n            }\r\n        }\r\n        return found;\r\n    }\r\n\r\n    function addSubscriber(address addr, uint256 _type)\r\n        internal\r\n        returns (bool)\r\n    {\r\n        if (alreadySubscriber(addr) == false) {\r\n            subscriberStorage().subscribers[addr] = _type;\r\n            subscriberStorage()._subscribers.push(addr);\r\n            return true;\r\n        }\r\n        return false;\r\n    }\r\n\r\n    function getSubscribers()\r\n        external\r\n        view\r\n        returns (address[] memory)\r\n    {\r\n        return subscriberStorage()._subscribers;\r\n    }\r\n\r\n}",
  "sourcePath": "/Volumes/My Book/projects/pingleware-contracts/contracts/finance/credit/Subscriber.sol",
  "compiler": {
    "name": "solc",
    "version": "0.8.18+commit.87f61d96.Emscripten.clang"
  },
  "schemaVersion": "3.4.12",
  "updatedAt": "2023-10-24T13:09:56.617Z",
  "networkType": "ethereum",
  "devdoc": {
    "kind": "dev",
    "methods": {},
    "version": 1
  },
  "userdoc": {
    "kind": "user",
    "methods": {},
    "version": 1
  }
}