{
  "contractName": "SupplyChain",
  "abi": [
    {
      "inputs": [],
      "stateMutability": "payable",
      "type": "constructor"
    },
    {
      "anonymous": false,
      "inputs": [
        {
          "indexed": true,
          "internalType": "address",
          "name": "account",
          "type": "address"
        }
      ],
      "name": "DistributorAdded",
      "type": "event"
    },
    {
      "anonymous": false,
      "inputs": [
        {
          "indexed": true,
          "internalType": "address",
          "name": "account",
          "type": "address"
        }
      ],
      "name": "DistributorRemoved",
      "type": "event"
    },
    {
      "anonymous": false,
      "inputs": [
        {
          "indexed": true,
          "internalType": "address",
          "name": "account",
          "type": "address"
        }
      ],
      "name": "EndUserAdded",
      "type": "event"
    },
    {
      "anonymous": false,
      "inputs": [
        {
          "indexed": true,
          "internalType": "address",
          "name": "account",
          "type": "address"
        }
      ],
      "name": "EndUserRemoved",
      "type": "event"
    },
    {
      "anonymous": false,
      "inputs": [
        {
          "indexed": false,
          "internalType": "address",
          "name": "sender",
          "type": "address"
        },
        {
          "indexed": false,
          "internalType": "uint256",
          "name": "amount",
          "type": "uint256"
        }
      ],
      "name": "FallbackEvent",
      "type": "event"
    },
    {
      "anonymous": false,
      "inputs": [
        {
          "indexed": false,
          "internalType": "uint256",
          "name": "upc",
          "type": "uint256"
        }
      ],
      "name": "ForSaleByDistributor",
      "type": "event"
    },
    {
      "anonymous": false,
      "inputs": [
        {
          "indexed": false,
          "internalType": "uint256",
          "name": "upc",
          "type": "uint256"
        }
      ],
      "name": "ForSaleByManufacturer",
      "type": "event"
    },
    {
      "anonymous": false,
      "inputs": [
        {
          "indexed": false,
          "internalType": "uint256",
          "name": "upc",
          "type": "uint256"
        }
      ],
      "name": "ForSaleByReseller",
      "type": "event"
    },
    {
      "anonymous": false,
      "inputs": [
        {
          "indexed": true,
          "internalType": "address",
          "name": "account",
          "type": "address"
        }
      ],
      "name": "ManufacturerAdded",
      "type": "event"
    },
    {
      "anonymous": false,
      "inputs": [
        {
          "indexed": true,
          "internalType": "address",
          "name": "account",
          "type": "address"
        }
      ],
      "name": "ManufacturerRemoved",
      "type": "event"
    },
    {
      "anonymous": false,
      "inputs": [
        {
          "indexed": false,
          "internalType": "uint256",
          "name": "upc",
          "type": "uint256"
        }
      ],
      "name": "OrderedFromSupplier",
      "type": "event"
    },
    {
      "anonymous": false,
      "inputs": [
        {
          "indexed": true,
          "internalType": "address",
          "name": "previousOwner",
          "type": "address"
        },
        {
          "indexed": true,
          "internalType": "address",
          "name": "newOwner",
          "type": "address"
        }
      ],
      "name": "OwnershipTransferred",
      "type": "event"
    },
    {
      "anonymous": false,
      "inputs": [
        {
          "indexed": false,
          "internalType": "uint256",
          "name": "upc",
          "type": "uint256"
        }
      ],
      "name": "PackagedByDistributor",
      "type": "event"
    },
    {
      "anonymous": false,
      "inputs": [
        {
          "indexed": false,
          "internalType": "uint256",
          "name": "upc",
          "type": "uint256"
        }
      ],
      "name": "ProcessedByDistributor",
      "type": "event"
    },
    {
      "anonymous": false,
      "inputs": [
        {
          "indexed": false,
          "internalType": "uint256",
          "name": "upc",
          "type": "uint256"
        }
      ],
      "name": "ProduceByManufacturer",
      "type": "event"
    },
    {
      "anonymous": false,
      "inputs": [
        {
          "indexed": false,
          "internalType": "uint256",
          "name": "upc",
          "type": "uint256"
        }
      ],
      "name": "PurchasedByDistributor",
      "type": "event"
    },
    {
      "anonymous": false,
      "inputs": [
        {
          "indexed": false,
          "internalType": "uint256",
          "name": "upc",
          "type": "uint256"
        }
      ],
      "name": "PurchasedByEndUser",
      "type": "event"
    },
    {
      "anonymous": false,
      "inputs": [
        {
          "indexed": false,
          "internalType": "uint256",
          "name": "upc",
          "type": "uint256"
        }
      ],
      "name": "PurchasedByReseller",
      "type": "event"
    },
    {
      "anonymous": false,
      "inputs": [
        {
          "indexed": false,
          "internalType": "address",
          "name": "sender",
          "type": "address"
        },
        {
          "indexed": false,
          "internalType": "uint256",
          "name": "amount",
          "type": "uint256"
        }
      ],
      "name": "ReceiveEvent",
      "type": "event"
    },
    {
      "anonymous": false,
      "inputs": [
        {
          "indexed": false,
          "internalType": "uint256",
          "name": "upc",
          "type": "uint256"
        }
      ],
      "name": "ReceivedByDistributor",
      "type": "event"
    },
    {
      "anonymous": false,
      "inputs": [
        {
          "indexed": false,
          "internalType": "uint256",
          "name": "upc",
          "type": "uint256"
        }
      ],
      "name": "ReceivedByReseller",
      "type": "event"
    },
    {
      "anonymous": false,
      "inputs": [
        {
          "indexed": true,
          "internalType": "address",
          "name": "account",
          "type": "address"
        }
      ],
      "name": "ResellerAdded",
      "type": "event"
    },
    {
      "anonymous": false,
      "inputs": [
        {
          "indexed": true,
          "internalType": "address",
          "name": "account",
          "type": "address"
        }
      ],
      "name": "ResellerRemoved",
      "type": "event"
    },
    {
      "anonymous": false,
      "inputs": [
        {
          "indexed": false,
          "internalType": "uint256",
          "name": "upc",
          "type": "uint256"
        }
      ],
      "name": "ShippedByDistributor",
      "type": "event"
    },
    {
      "anonymous": false,
      "inputs": [
        {
          "indexed": false,
          "internalType": "uint256",
          "name": "upc",
          "type": "uint256"
        }
      ],
      "name": "ShippedByManufacturer",
      "type": "event"
    },
    {
      "anonymous": false,
      "inputs": [
        {
          "indexed": false,
          "internalType": "uint256",
          "name": "upc",
          "type": "uint256"
        }
      ],
      "name": "ShippedBySupplier",
      "type": "event"
    },
    {
      "anonymous": false,
      "inputs": [
        {
          "indexed": true,
          "internalType": "address",
          "name": "account",
          "type": "address"
        }
      ],
      "name": "SupplierAdded",
      "type": "event"
    },
    {
      "anonymous": false,
      "inputs": [
        {
          "indexed": true,
          "internalType": "address",
          "name": "account",
          "type": "address"
        }
      ],
      "name": "SupplierRemoved",
      "type": "event"
    },
    {
      "stateMutability": "payable",
      "type": "fallback"
    },
    {
      "inputs": [],
      "name": "WAIT",
      "outputs": [
        {
          "internalType": "uint256",
          "name": "",
          "type": "uint256"
        }
      ],
      "stateMutability": "view",
      "type": "function"
    },
    {
      "inputs": [
        {
          "internalType": "address",
          "name": "account",
          "type": "address"
        }
      ],
      "name": "addDistributor",
      "outputs": [],
      "stateMutability": "nonpayable",
      "type": "function"
    },
    {
      "inputs": [
        {
          "internalType": "address",
          "name": "account",
          "type": "address"
        }
      ],
      "name": "addEndUser",
      "outputs": [],
      "stateMutability": "nonpayable",
      "type": "function"
    },
    {
      "inputs": [
        {
          "internalType": "address",
          "name": "account",
          "type": "address"
        }
      ],
      "name": "addManufacturer",
      "outputs": [],
      "stateMutability": "nonpayable",
      "type": "function"
    },
    {
      "inputs": [
        {
          "internalType": "address",
          "name": "account",
          "type": "address"
        }
      ],
      "name": "addReseller",
      "outputs": [],
      "stateMutability": "nonpayable",
      "type": "function"
    },
    {
      "inputs": [
        {
          "internalType": "address",
          "name": "account",
          "type": "address"
        }
      ],
      "name": "addSupplier",
      "outputs": [],
      "stateMutability": "nonpayable",
      "type": "function"
    },
    {
      "inputs": [],
      "name": "getOwner",
      "outputs": [
        {
          "internalType": "address",
          "name": "",
          "type": "address"
        }
      ],
      "stateMutability": "payable",
      "type": "function"
    },
    {
      "inputs": [
        {
          "internalType": "address",
          "name": "account",
          "type": "address"
        }
      ],
      "name": "isDistributor",
      "outputs": [
        {
          "internalType": "bool",
          "name": "",
          "type": "bool"
        }
      ],
      "stateMutability": "view",
      "type": "function"
    },
    {
      "inputs": [
        {
          "internalType": "address",
          "name": "account",
          "type": "address"
        }
      ],
      "name": "isEndUser",
      "outputs": [
        {
          "internalType": "bool",
          "name": "",
          "type": "bool"
        }
      ],
      "stateMutability": "view",
      "type": "function"
    },
    {
      "inputs": [
        {
          "internalType": "address",
          "name": "account",
          "type": "address"
        }
      ],
      "name": "isManufacturer",
      "outputs": [
        {
          "internalType": "bool",
          "name": "",
          "type": "bool"
        }
      ],
      "stateMutability": "view",
      "type": "function"
    },
    {
      "inputs": [
        {
          "internalType": "address",
          "name": "account",
          "type": "address"
        }
      ],
      "name": "isReseller",
      "outputs": [
        {
          "internalType": "bool",
          "name": "",
          "type": "bool"
        }
      ],
      "stateMutability": "view",
      "type": "function"
    },
    {
      "inputs": [
        {
          "internalType": "address",
          "name": "account",
          "type": "address"
        }
      ],
      "name": "isSupplier",
      "outputs": [
        {
          "internalType": "bool",
          "name": "",
          "type": "bool"
        }
      ],
      "stateMutability": "view",
      "type": "function"
    },
    {
      "inputs": [],
      "name": "renounceDistributor",
      "outputs": [],
      "stateMutability": "nonpayable",
      "type": "function"
    },
    {
      "inputs": [],
      "name": "renounceEndUser",
      "outputs": [],
      "stateMutability": "nonpayable",
      "type": "function"
    },
    {
      "inputs": [],
      "name": "renounceManufacturer",
      "outputs": [],
      "stateMutability": "nonpayable",
      "type": "function"
    },
    {
      "inputs": [],
      "name": "renounceOwnership",
      "outputs": [],
      "stateMutability": "payable",
      "type": "function"
    },
    {
      "inputs": [],
      "name": "renounceReseller",
      "outputs": [],
      "stateMutability": "nonpayable",
      "type": "function"
    },
    {
      "inputs": [],
      "name": "renounceSupplier",
      "outputs": [],
      "stateMutability": "nonpayable",
      "type": "function"
    },
    {
      "inputs": [
        {
          "internalType": "address",
          "name": "newOwner",
          "type": "address"
        }
      ],
      "name": "transferOwnership",
      "outputs": [],
      "stateMutability": "payable",
      "type": "function"
    },
    {
      "stateMutability": "payable",
      "type": "receive"
    },
    {
      "inputs": [
        {
          "internalType": "uint256",
          "name": "_upc",
          "type": "uint256"
        },
        {
          "internalType": "string",
          "name": "_originName",
          "type": "string"
        },
        {
          "internalType": "string",
          "name": "_originInformation",
          "type": "string"
        },
        {
          "internalType": "string",
          "name": "_originLatitude",
          "type": "string"
        },
        {
          "internalType": "string",
          "name": "_originLongitude",
          "type": "string"
        },
        {
          "internalType": "string",
          "name": "_productNotes",
          "type": "string"
        },
        {
          "internalType": "uint256",
          "name": "_price",
          "type": "uint256"
        },
        {
          "internalType": "uint256",
          "name": "epoch",
          "type": "uint256"
        }
      ],
      "name": "produceProductByManufacturer",
      "outputs": [],
      "stateMutability": "payable",
      "type": "function"
    },
    {
      "inputs": [
        {
          "internalType": "uint256",
          "name": "_upc",
          "type": "uint256"
        },
        {
          "internalType": "uint256",
          "name": "_price",
          "type": "uint256"
        }
      ],
      "name": "sellProductByManufacturer",
      "outputs": [],
      "stateMutability": "nonpayable",
      "type": "function"
    },
    {
      "inputs": [
        {
          "internalType": "uint256",
          "name": "_upc",
          "type": "uint256"
        }
      ],
      "name": "purchaseProductByDistributor",
      "outputs": [],
      "stateMutability": "payable",
      "type": "function"
    },
    {
      "inputs": [
        {
          "internalType": "uint256",
          "name": "_upc",
          "type": "uint256"
        }
      ],
      "name": "shippedProductByManufacturer",
      "outputs": [],
      "stateMutability": "payable",
      "type": "function"
    },
    {
      "inputs": [
        {
          "internalType": "uint256",
          "name": "_upc",
          "type": "uint256"
        }
      ],
      "name": "receivedProductByDistributor",
      "outputs": [],
      "stateMutability": "nonpayable",
      "type": "function"
    },
    {
      "inputs": [
        {
          "internalType": "uint256",
          "name": "_upc",
          "type": "uint256"
        },
        {
          "internalType": "uint256",
          "name": "slices",
          "type": "uint256"
        }
      ],
      "name": "processedProductByDistributor",
      "outputs": [],
      "stateMutability": "nonpayable",
      "type": "function"
    },
    {
      "inputs": [
        {
          "internalType": "uint256",
          "name": "_upc",
          "type": "uint256"
        }
      ],
      "name": "packageProductByDistributor",
      "outputs": [],
      "stateMutability": "nonpayable",
      "type": "function"
    },
    {
      "inputs": [
        {
          "internalType": "uint256",
          "name": "_upc",
          "type": "uint256"
        },
        {
          "internalType": "uint256",
          "name": "_price",
          "type": "uint256"
        }
      ],
      "name": "sellProductByDistributor",
      "outputs": [],
      "stateMutability": "nonpayable",
      "type": "function"
    },
    {
      "inputs": [
        {
          "internalType": "uint256",
          "name": "_upc",
          "type": "uint256"
        }
      ],
      "name": "purchaseProductByReseller",
      "outputs": [],
      "stateMutability": "payable",
      "type": "function"
    },
    {
      "inputs": [
        {
          "internalType": "uint256",
          "name": "_upc",
          "type": "uint256"
        }
      ],
      "name": "shippedProductByDistributor",
      "outputs": [],
      "stateMutability": "nonpayable",
      "type": "function"
    },
    {
      "inputs": [
        {
          "internalType": "uint256",
          "name": "_upc",
          "type": "uint256"
        }
      ],
      "name": "receivedProductByReseller",
      "outputs": [],
      "stateMutability": "nonpayable",
      "type": "function"
    },
    {
      "inputs": [
        {
          "internalType": "uint256",
          "name": "_upc",
          "type": "uint256"
        },
        {
          "internalType": "uint256",
          "name": "_price",
          "type": "uint256"
        }
      ],
      "name": "sellProductByReseller",
      "outputs": [],
      "stateMutability": "nonpayable",
      "type": "function"
    },
    {
      "inputs": [
        {
          "internalType": "uint256",
          "name": "_upc",
          "type": "uint256"
        }
      ],
      "name": "purchaseProductByEndUser",
      "outputs": [],
      "stateMutability": "payable",
      "type": "function"
    },
    {
      "inputs": [
        {
          "internalType": "uint256",
          "name": "_upc",
          "type": "uint256"
        }
      ],
      "name": "fetchProductBufferOne",
      "outputs": [
        {
          "internalType": "uint256",
          "name": "itemSKU",
          "type": "uint256"
        },
        {
          "internalType": "uint256",
          "name": "itemUPC",
          "type": "uint256"
        },
        {
          "internalType": "address",
          "name": "ownerID",
          "type": "address"
        },
        {
          "internalType": "address",
          "name": "originManufacturerID",
          "type": "address"
        },
        {
          "internalType": "string",
          "name": "originName",
          "type": "string"
        },
        {
          "internalType": "string",
          "name": "originInformation",
          "type": "string"
        },
        {
          "internalType": "string",
          "name": "originLatitude",
          "type": "string"
        },
        {
          "internalType": "string",
          "name": "originLongitude",
          "type": "string"
        },
        {
          "internalType": "uint256",
          "name": "manufacturedDate",
          "type": "uint256"
        },
        {
          "internalType": "uint256",
          "name": "productSliced",
          "type": "uint256"
        }
      ],
      "stateMutability": "view",
      "type": "function"
    },
    {
      "inputs": [
        {
          "internalType": "uint256",
          "name": "_upc",
          "type": "uint256"
        }
      ],
      "name": "fetchProductBufferTwo",
      "outputs": [
        {
          "internalType": "uint256",
          "name": "itemSKU",
          "type": "uint256"
        },
        {
          "internalType": "uint256",
          "name": "itemUPC",
          "type": "uint256"
        },
        {
          "internalType": "uint256",
          "name": "productID",
          "type": "uint256"
        },
        {
          "internalType": "string",
          "name": "productNotes",
          "type": "string"
        },
        {
          "internalType": "uint256",
          "name": "productPrice",
          "type": "uint256"
        },
        {
          "internalType": "uint256",
          "name": "manufacturedDate",
          "type": "uint256"
        },
        {
          "internalType": "enum SupplyChain.State",
          "name": "itemState",
          "type": "uint8"
        },
        {
          "internalType": "address",
          "name": "distributorID",
          "type": "address"
        },
        {
          "internalType": "address",
          "name": "resellerID",
          "type": "address"
        },
        {
          "internalType": "address",
          "name": "enduserID",
          "type": "address"
        }
      ],
      "stateMutability": "view",
      "type": "function"
    },
    {
      "inputs": [
        {
          "internalType": "uint256",
          "name": "_upc",
          "type": "uint256"
        }
      ],
      "name": "fetchitemHistory",
      "outputs": [
        {
          "internalType": "uint256",
          "name": "blocksupplierToManufacturer",
          "type": "uint256"
        },
        {
          "internalType": "uint256",
          "name": "blockmanufacturerToDistributor",
          "type": "uint256"
        },
        {
          "internalType": "uint256",
          "name": "blockDistributorToReseller",
          "type": "uint256"
        },
        {
          "internalType": "uint256",
          "name": "blockResellerToEndUser",
          "type": "uint256"
        }
      ],
      "stateMutability": "view",
      "type": "function"
    }
  ],
  "bytecode": "0x6080604090815260008054600160a060020a031916339081178255426001908155919290837f8be0079c531659141344cd1fd0a4f28419497f9722a3daafe3b4186f6b6457e08180a3331515620000568162000263565b620000618162000263565b33845260076020600381526200007e60ff85882054161562000263565b33865260038152620002018487209360ff19948786825416179055337fa9f13e94f3f7dbf69ac8405e3aa6f43a6f162984687d099c7a5cd9b602552cc28980a2620000c98162000263565b620000d48162000263565b33885260048352620000ed60ff878a2054161562000263565b338852600483528588208786825416179055337f561138658ca49a8540dc70dcfe64c9026c1c5b9344642242dd6562970f9c12788980a26200012f8162000263565b6200013a8162000263565b338852600583526200015360ff878a2054161562000263565b338852600583528588208786825416179055337fddbf200aa634dc3fb81cfd68583dd1040d1c751d335e1d86b631bde3e977fea88980a2620001958162000263565b620001a08162000263565b33885260068352620001b960ff878a2054161562000263565b338852600683528588208786825416179055337ffb8f232b7a1d3d51060d32be9d6cf6808aa8f7dd043c8c20c4cfaf929ca9d4848980a2620001fb8162000263565b62000263565b3386528181526200021960ff85882054161562000263565b33865252828285209182541617905551917fc3f6032baab071079d5ea3936ce1a6802e40430628436f75d2905378cb9f3a36339180a2806008556009556127109081620002a48239f35b156200026b57565b60446040517f08c379a00000000000000000000000000000000000000000000000000000000081526020600482015260006024820152fdfe608060405260043610156100c7575b361561009757333203610050577f26875833861a2b006512a11f1b86edf95df96131040f3caeed72989ee98580836040518061004b343383612410565b0390a1005b60405160e560020a62461bcd0281526020600482015260196024820152603860020a787068697368696e672061747461636b2064657465637465643f026044820152606490fd5b7fcc85d09d309785db93d6df19917f2e6cc07fe27cd01c08c8279145deb5cf45266040518061004b343383612410565b60e060020a6000350463015b00dd811461196557806307e2ecde146118a157806309fd54f0146117de5780630d986b66146116915780631154501c1461166057806317d4a4911461162257806317df4745146115795780633912df4514611501578063412015e41461132d57806346336542146112ef5780634af076d814611246578063528356ed146111825780635f8a5afa146110d9578063644241db146110615780637139486414610f1c578063715018a614610ed55780637250e22414610e2c578063893d20e814610dc85780638f0c86fa14610d8a5780639202488814610d12578063a10d9c9e14610cd4578063b067db3a14610c11578063b8fb3a5114610bf5578063c13c9d5a14610a3c578063c4170cfd14610979578063c688a4781461092f578063cb10024c14610871578063cf1b9f1a146107ae578063d4ca649b14610653578063de07f34e146105db578063e72079ce14610518578063e7e8f5641461043a578063e93e4c151461038a578063eafe40241461030d5763f2fde38b0361000e57602036600319011261030857600435600160a060020a03818116918290036103085760005490811661028381331461242b565b82156102ae5782906000805160206126bb833981519152600080a3600160a060020a03191617600055005b60405160e560020a62461bcd02815260206004820152602660248201527f4f776e61626c653a206e6577206f776e657220697320746865207a65726f2061604482015260d060020a65646472657373026064820152608490fd5b600080fd5b346103085760003660031901126103085761033233151561032d816124e4565b6124e4565b33600052600660205261034c60ff604060002054166124e4565b336000526006602052604060002060ff198154169055337f74317ab44bd96a4b18c5f1eee4104ecd55c3eb0a69795f59fb4b3ebe550a8600600080a2005b3461030857602036600319011261030857600435600160a060020a03811690819003610308576103bb3315156124e4565b6103d060ff6103c933612575565b5416612477565b6103df81151561032d816124e4565b8060005260076020526103fa60ff60406000205416156124e4565b8060005260076020526040600020600160ff198254161790557fc3f6032baab071079d5ea3936ce1a6802e40430628436f75d2905378cb9f3a36600080a2005b346103085761044836612375565b906104543315156124e4565b61046260ff6103c93361250d565b80600052600a60205260ff6010604060002001541690600f8210156104fe577faec623c8803eb3c795344cb3d2178da45139e85d984a1dc348cf9dc8bd7ff160926104b16002602094146124e4565b81600052600a83526104d5600160a060020a036004604060002001541633146124e4565b81600052600a8352600d604060002060108101600360ff198254161790550155604051908152a1005b60e060020a634e487b710260009081526021600452602490fd5b34610308576020366003190112610308576004356105373315156124e4565b61054560ff6103c93361255b565b80600052600a60205260ff60106040600020015416600f8110156104fe577ff7ba2a93720e090c60941eca67734ec14eb4a000a3712f0171ab912718821f6f91610593600b602093146124e4565b80600052600a82526105b7600160a060020a036004604060002001541633146124e4565b80600052600a82526010604060002001600c60ff19825416179055604051908152a1005b34610308576000366003190112610308576105fb33151561032d816124e4565b33600052600460205261061560ff604060002054166124e4565b336000526004602052604060002060ff198154169055337f2fed5abf6a80d6dfe30b4895481b2fc5d7dce5f8f7b931832f4a2947d5040c7f600080a2005b602080600319360112610308576004359061066f3315156124e4565b61067d60ff6103c933612575565b81600052600a815260ff60106040600020015416600f8110156104fe57600d6106a691146124e4565b81600052600a81526106c2600d604060002001543410156124e4565b81600052600a815260008080806106e0600d60408320015434612608565b8181156107a5575b3390f1156107905781600052600a8152600080808060408120600d600160a060020a03610100601084015404169101549082821561079c575bf11561079057817f0c85109675015c429df3af4a1e438d016348076df467785ceb1b626a201baf6292600052600a82526010604060002060048101600160a060020a03199033828254161790556011820190339082541617905501600e60ff19825416179055604051908152a1005b6040513d6000823e3d90fd5b506108fc610721565b506108fc6106e8565b34610308576020366003190112610308576004356107cd3315156124e4565b6107db60ff6103c933612527565b80600052600a60205260ff60106040600020015416600f8110156104fe577fe66bb55f536a4cc96647dde6ff37b712c07348eaa88366931f491d93c0fcd981916108296007602093146124e4565b80600052600a825261084d600160a060020a036004604060002001541633146124e4565b80600052600a82526010604060002001600860ff19825416179055604051908152a1005b60203660031901126103085760043561088b3315156124e4565b61089960ff6103c93361250d565b80600052600a60205260ff60106040600020015416600f8110156104fe577f25727bef8a186dd95a062151451f2d651551b53124c18208d7653b1217ae31ba916108e76004602093146124e4565b80600052600a825261090b600160a060020a036006604060002001541633146124e4565b80600052600a82526010604060002001600560ff19825416179055604051908152a1005b3461030857602036600319011261030857600435600160a060020a038116908181036103085761096d60ff9161096860209415156124e4565b612575565b54166040519015158152f35b34610308576020366003190112610308576004356109983315156124e4565b6109a660ff6103c933612527565b80600052600a60205260ff60106040600020015416600f8110156104fe577fc8ca2150e6e1849a10ef5aa4932060fa353bcacdffeb150c9e1890c6ab9403cc916109f46005602093146124e4565b80600052600a8252610a18600160a060020a036004604060002001541633146124e4565b80600052600a82526010604060002001600660ff19825416179055604051908152a1005b3461030857602036600319011261030857600435600052600a602052604060002060405190610a6a826122c6565b80548252600181015460208301908152600282015460408401526003820154606084019081526004830154600160a060020a0390811660808601526005840154811660a086019081526006850154821660c0870152909492939192610ad160078401612615565b60e0820152610ae260088401612615565b6101009081830152610af660098501612615565b926101209384840152610b0b600a8601612615565b906101409182850152600b860154956101608501968752610b2e600c8201612615565b916101808601928352600d8201546101a08701908152600e8301546101c0880152600f8301546101e08801526010830154948c60116102008a0195610b7660ff8a168861258f565b828a6102208d019a04168952015416976102408101988952519b519951945191519a51935194600f8610156104fe578d8060209f610bd69651169851169951169a6040519e8f9e8f908152015260408d01528060608d01528b019061238b565b9760808a015260a089015260c088015260e08701528501528301520390f35b34610308576000366003190112610308576020604051601e8152f35b3461030857610c1f36612375565b90610c2b3315156124e4565b610c3960ff6103c93361255b565b80600052600a60205260ff6010604060002001541690600f8210156104fe577f047a56d0fceabe07f06dd52ce5d438eb196466aff0fb98215205619819b7363292610c88600c602094146124e4565b81600052600a8352610cac600160a060020a036004604060002001541633146124e4565b81600052600a8352600d6040600020601081018260ff198254161790550155604051908152a1005b3461030857602036600319011261030857600435600160a060020a038116908181036103085761096d60ff91610d0d60209415156124e4565b61255b565b3461030857600036600319011261030857610d3233151561032d816124e4565b336000526003602052610d4c60ff604060002054166124e4565b336000526003602052604060002060ff198154169055337f278a641d7aa9abcb166cd13a30fc6d7f21034d4c003ce509a84214e11faa77c0600080a2005b3461030857602036600319011261030857600435600160a060020a038116908181036103085761096d60ff91610dc360209415156124e4565b612527565b600036600319011261030857600154601e8101809111610e1257610df6904211610df1816123cb565b6123cb565b42600155600054604051600160a060020a039091168152602090f35b60e060020a634e487b710260009081526011600452602490fd5b3461030857602036600319011261030857600435600160a060020a0381169081900361030857610e5d3315156124e4565b610e6b60ff6103c933612527565b610e7a81151561032d816124e4565b806000526005602052610e9560ff60406000205416156124e4565b8060005260056020526040600020600160ff198254161790557fddbf200aa634dc3fb81cfd68583dd1040d1c751d335e1d86b631bde3e977fea8600080a2005b6000366003190112610308576000805490600160a060020a038216610efb33821461242b565b6000805160206126bb8339815191528280a3600160a060020a031916600055005b6020806003193601126103085760043590610f383315156124e4565b610f4660ff6103c93361255b565b81600052600a9182825260ff60106040600020015416600f8110156104fe576009610f7191146124e4565b80600052828252610f8c600d604060002001543410156124e4565b806000528282526000808080610fa9600d60408320015434612608565b818115611058575b3390f115610790576000818152838352604081206005810154600d90910154829182918291600160a060020a031682821561104f575bf115610790577f8eaafe1f9287b03a5bc69e2f31f40bf4a5f778e9be32c3ccbb205f0c85fea8cf9281600052808352601060406000206004810133600160a060020a0319825416179055019061103d33836125da565b815460ff1916179055604051908152a1005b506108fc610fe7565b506108fc610fb1565b346103085760003660031901126103085761108133151561032d816124e4565b33600052600560205261109b60ff604060002054166124e4565b336000526005602052604060002060ff198154169055337f126174f6cf49c81cdb4a9214c6b8f037bef55b4ec31e4fc776cea2a1c8a88d59600080a2005b3461030857602036600319011261030857600435600160a060020a038116908190036103085761110a3315156124e4565b61111860ff6103c93361250d565b61112781151561032d816124e4565b80600052600460205261114260ff60406000205416156124e4565b8060005260046020526040600020600160ff198254161790557f561138658ca49a8540dc70dcfe64c9026c1c5b9344642242dd6562970f9c1278600080a2005b346103085761119036612375565b9061119c3315156124e4565b6111aa60ff6103c933612527565b80600052600a60205260ff6010604060002001541690600f8210156104fe577f539b4a835a8a5d1bc5756a9f146e2bfeaa6bd6b1fa77a7631c0a5154c86cdd03926111f96008602094146124e4565b81600052600a835261121d600160a060020a036004604060002001541633146124e4565b81600052600a8352600d604060002060108101600960ff198254161790550155604051908152a1005b3461030857602036600319011261030857600435600160a060020a03811690819003610308576112773315156124e4565b61128560ff6103c93361255b565b61129481151561032d816124e4565b8060005260066020526112af60ff60406000205416156124e4565b8060005260066020526040600020600160ff198254161790557ffb8f232b7a1d3d51060d32be9d6cf6808aa8f7dd043c8c20c4cfaf929ca9d484600080a2005b3461030857602036600319011261030857600435600160a060020a038116908181036103085761096d60ff9161132860209415156124e4565b612541565b3461030857602036600319011261030857600435600052600a602052604060002060405161135a816122c6565b81548152600182015460208201908152600283015460408301526003830154606083019081526004840154600160a060020a03908116608085019081526005860154821660a08601526006860154821660c08601908152909593949390926113c460078301612615565b60e08601908152946113d860088401612615565b95610100968794858401918252600981016113f290612615565b926101209788860194855280600a840161140b90612615565b968161014095868301998a52600b810154610160840152600c810161142f90612615565b610180840152600d8101546101a0840152600e8101546101c084015281600f8201549c6101e085019d8e52601083015460ff81166102008701906114729161258f565b04166102208401526011015416610240820152519c519d5116995116905192519351945195519651986040519c8d9c8d5260208d015260408c015260608b01528060808b015289016114c39161238b565b88810360a08a01526114d49161238b565b87810360c08901526114e59161238b565b86810360e08801526114f69161238b565b938501528301520390f35b346103085760003660031901126103085761152133151561032d816124e4565b33600052600760205261153b60ff604060002054166124e4565b336000526007602052604060002060ff198154169055337f5e478ea50bfc31d2ddb8bd029e9d2304b9fde7e2041b22383845686d148da7ca600080a2005b3461030857602036600319011261030857600435600160a060020a03811690819003610308576115aa3315156124e4565b6115b860ff6103c933612541565b6115c781151561032d816124e4565b8060005260036020526115e260ff60406000205416156124e4565b8060005260036020526040600020600160ff198254161790557fa9f13e94f3f7dbf69ac8405e3aa6f43a6f162984687d099c7a5cd9b602552cc2600080a2005b3461030857602036600319011261030857600435600160a060020a038116908181036103085761096d60ff9161165b60209415156124e4565b61250d565b3461030857602036600319011261030857608060405160008152600060208201526000604082015260006060820152f35b60208060031936011261030857600435906116ad3315156124e4565b6116bb60ff6103c933612527565b81600052600a815260ff60106040600020015416600f8110156104fe5760036116e491146124e4565b81600052600a8152611700600d604060002001543410156124e4565b81600052600a8152600080808061171e600d60408320015434612608565b8181156117d5575b3390f115610790576000828152600a8252604081206006810154600d90910154829182918291600160a060020a03168282156117cc575bf11561079057817facd9402b9f9e8c15fa7c1819f8393ca56eb61316cc354fc6ac2150aed3ce793192600052600a82526010604060002060048101600160a060020a03199033828254161790556005820190339082541617905501600460ff19825416179055604051908152a1005b506108fc61175d565b506108fc611726565b34610308576020366003190112610308576004356117fd3315156124e4565b61180b60ff6103c933612527565b80600052600a60205260ff60106040600020015416600f8110156104fe577fc5c33776d405e5686e4386e1ef31a65cf6195e4f7ceb8808ab64d05b6ccbc2a691611859600a602093146124e4565b80600052600a825261187d600160a060020a036005604060002001541633146124e4565b80600052600a82526010604060002001600b60ff19825416179055604051908152a1005b34610308576118af36612375565b906118bb3315156124e4565b6118c960ff6103c933612527565b80600052600a60205260ff6010604060002001541690600f8210156104fe577f5725e53fd0efed5294b7db2af148f040264a63630b4deb0afbccf6e60830988a926119186006602094146124e4565b81600052600a835261193c600160a060020a036004604060002001541633146124e4565b81600052600a8352600f604060002060108101600760ff198254161790550155604051908152a1005b61010036600319011261030857602480356001604060020a0381116103085761199290369060040161231f565b6044356001604060020a038111610308576119b190369060040161231f565b906064356001604060020a038111610308576119d190369060040161231f565b906084356001604060020a038111610308576119f190369060040161231f565b60a4356001604060020a03811161030857611a1090369060040161231f565b92611a1c3315156124e4565b611a2a60ff6103c93361250d565b60405194611a37866122c6565b6000604087015260006060870152600060a08701526000610160870152606061018087015260006101a087015260006101c087015260006101e08701526000610200870152600061022087015260006102408701526008549384875260043560208801523360808801523360c088015260e08701526101008601526101208501526101408401528060043501600435116122ad576004803591820161016085015261018084019290925260c4356101a084015260e4356060840190815260006101e08501819052610200850181905260a0850181815261022086018290526102408601829052928152600a6020908152604091829020865181559086015160018201559085015160028201559051600382015560808401519281018054600160a060020a0319908116600160a060020a03958616179091559151600582018054841691851691909117905560c0840151600682018054909316931692909217905560e08201518051906001604060020a038211611f4c578190611bbd600785015461259b565b601f811161225a575b50602090601f83116001146121e6576000926121db575b5050816002029160080260020a6000190419161760078201555b6101008201518051906001604060020a038211611f4c578190611c1d600885015461259b565b601f8111612188575b50602090601f831160011461211457600092612109575b5050816002029160080260020a6000190419161760088201555b6101208201518051906001604060020a038211611f4c578190611c7d600985015461259b565b601f81116120b6575b50602090601f831160011461204257600092612037575b5050816002029160080260020a6000190419161760098201555b6101408201518051906001604060020a038211611f4c578190611cdd600a85015461259b565b601f8111611fe4575b50602090601f8311600114611f7057600092611f65575b5050816002029160080260020a60001904191617600a8201555b610160820151600b8201556101808201518051906001604060020a038211611f4c578190611d48600c85015461259b565b601f8111611ef9575b50602090601f8311600114611e8557600092611e7a575b5050816002029160080260020a60001904191617600c8201555b6101a0820151600d8201556101c0820151600e8201556101e0820151600f8201556010810190610200830151600f811015611e6157825460ff191660ff91909116178255610220830151601192611de291600160a060020a0316906125da565b6102409092015191018054600160a060020a031916600160a060020a03929092169190911790556008546001810191908210611e4a57506008557f450f0ca4d112999acf0af70e42b45b5e285434a386833a43e0cc3ce5279cfd0a60206040516004358152a1005b60e060020a634e487b710260009081526011600452fd5b60e060020a634e487b7102600090815260216004528590fd5b015190508580611d68565b9150600c840160005260206000209160005b601f1985168110611ee15750918391600293600195601f19811610611ec6575b5050500201600c820155611d82565b01516008601f841602840a6000190419169055868080611eb7565b91926020600181928685015181550194019201611e97565b909150600c840160005260206000206020601f850104810160208510611f45575b90849392915b6020601f84010482018110611f36575050611d51565b60008155859450600101611f20565b5080611f1a565b60e060020a634e487b7102600090815260416004528590fd5b015190508580611cfd565b9150600a840160005260206000209160005b601f1985168110611fcc5750918391600293600195601f19811610611fb1575b5050500201600a820155611d17565b01516008601f841602840a6000190419169055868080611fa2565b91926020600181928685015181550194019201611f82565b909150600a840160005260206000206020601f850104810160208510612030575b90849392915b6020601f84010482018110612021575050611ce6565b6000815585945060010161200b565b5080612005565b015190508580611c9d565b91506009840160005260206000209160005b601f198516811061209e5750918391600293600195601f19811610612083575b50505002016009820155611cb7565b01516008601f841602840a6000190419169055868080612074565b91926020600181928685015181550194019201612054565b9091506009840160005260206000206020601f850104810160208510612102575b90849392915b6020601f840104820181106120f3575050611c86565b600081558594506001016120dd565b50806120d7565b015190508580611c3d565b91506008840160005260206000209160005b601f19851681106121705750918391600293600195601f19811610612155575b50505002016008820155611c57565b01516008601f841602840a6000190419169055868080612146565b91926020600181928685015181550194019201612126565b9091506008840160005260206000206020601f8501048101602085106121d4575b90849392915b6020601f840104820181106121c5575050611c26565b600081558594506001016121af565b50806121a9565b015190508580611bdd565b91506007840160005260206000209160005b601f19851681106122425750918391600293600195601f19811610612227575b50505002016007820155611bf7565b01516008601f841602840a6000190419169055868080612218565b919260206001819286850151815501940192016121f8565b9091506007840160005260206000206020601f8501048101602085106122a6575b90849392915b6020601f84010482018110612297575050611bc6565b60008155859450600101612281565b508061227b565b60e060020a634e487b7102600090815260116004528490fd5b61026081019081106001604060020a038211176122e257604052565b60e060020a634e487b710260009081526041600452602490fd5b601f909101601f19168101906001604060020a038211908210176122e257604052565b81601f82011215610308578035906001604060020a0382116122e25760405192612353601f8401601f1916602001856122fc565b8284526020838301011161030857816000926020809301838601378301015290565b6040906003190112610308576004359060243590565b919082519283825260005b8481106123b7575050826000602080949584010152601f8019910116010190565b602081830181015184830182015201612396565b156123d257565b60405160e560020a62461bcd0281526020600482015260106024820152608160020a6f3930ba32903634b6b4ba1032b93937b9026044820152606490fd5b600160a060020a039091168152602081019190915260400190565b1561243257565b60405160e560020a62461bcd0281526020600482015260176024820152604960020a7630b1b1b2b9b9903232b734b2b2103337b91037bbb732b9026044820152606490fd5b1561247e57565b60405160e560020a62461bcd02815260206004820152603260248201527f596f75206e65656420746f20686176652074686520636f6e73756d657220726f6044820152607060020a716c6520746f20706572666f726d2074686973026064820152608490fd5b156124eb57565b60405160e560020a62461bcd0281526020600482015260006024820152604490fd5b600160a060020a0316600090815260046020526040902090565b600160a060020a0316600090815260056020526040902090565b600160a060020a0316600090815260036020526040902090565b600160a060020a0316600090815260066020526040902090565b600160a060020a0316600090815260076020526040902090565b600f8210156104fe5752565b90600160028304921680156125d0575b60208310146125b657565b60e060020a634e487b710260009081526022600452602490fd5b91607f16916125ab565b805461010060a860020a031916600160a060020a039092166101000261010060a860020a0316919091179055565b91908203918211610e1257565b90604051918260008254926126298461259b565b9081845260019485811690816000146126985750600114612655575b5050612653925003836122fc565b565b9093915060005260209081600020936000915b81831061268057505061265393508201013880612645565b85548884018501529485019487945091830191612668565b91505061265394506020925060ff19168284015215158102820101388061264556fe8be0079c531659141344cd1fd0a4f28419497f9722a3daafe3b4186f6b6457e0a26469706673582212209f39ad44212aeeb280a05479c792700e40714b5d8c40580649064e6c034ac09a64736f6c63430008120033",
  "immutableReferences": {},
  "source": "// SPDX-License-Identifier: CC-BY-4.0\r\npragma solidity >=0.4.22 <0.9.0;\r\n\r\nimport \"../common/Owned.sol\";\r\nimport \"../common/Version.sol\";\r\nimport \"./SupplierRole.sol\";\r\nimport \"./ManufacturerRole.sol\";\r\nimport \"./DistributorRole.sol\";\r\nimport \"./ResellerRole.sol\";\r\nimport \"./EndUserRole.sol\";\r\n\r\ncontract SupplyChain is Owned, SupplierRole, ManufacturerRole, DistributorRole, ResellerRole, EndUserRole {\r\n    // Define a variable called 'sku' for Stock Keeping Unit (SKU)\r\n    uint  sku;\r\n    uint  upc;\r\n\r\n    // Define a public mapping of the UPC to a Product.\r\n    mapping (uint => Product) products;\r\n\r\n    // Define a public mapping 'history' that maps the UPC to an array of TxHash,\r\n    // that track its journey through the supply chain -- to be sent from DApp.\r\n    //mapping (uint => Txblocks[]) history;\r\n\r\n    // Define enum 'State' with the following values:\r\n    enum State\r\n    {\r\n        OrderedFromSupplier,        // 0\r\n        ShippedBySupplier,          // 1\r\n        ProduceByManufacturer,      // 2\r\n        ForSaleByManufacturer,      // 3\r\n        PurchasedByDistributor,     // 4\r\n        ShippedByManufacturer,      // 5\r\n        ReceivedByDistributor,      // 6\r\n        ProcessedByDistributor,     // 7\r\n        PackageByDistributor,       // 8\r\n        ForSaleByDistributor,       // 9\r\n        PurchasedByReseller,        // 10\r\n        ShippedByDistributor,       // 11\r\n        ReceivedByReseller,         // 12\r\n        ForSaleByReseller,          // 13\r\n        PurchasedByEndUser          // 14\r\n    }\r\n\r\n\r\n    State constant defaultState = State.OrderedFromSupplier;\r\n\r\n    // Define a struct 'Product' with the following fields:\r\n    struct Product {\r\n        uint    sku;  // Stock Keeping Unit (SKU)\r\n        uint    upc; // Universal Product Code (UPC), generated by the Manufacturer, goes on the package, can be verified by the EndUser\r\n        uint    lot; // Lot number\r\n        uint    manufacturedDate; // The manufacturing date\r\n        address ownerID;  // Metamask-Ethereum address of the current owner as the product moves through 8 stages\r\n        address distributorID;\r\n        address payable originID; // Metamask-Ethereum address of the Manufacturer\r\n        string  originName; // Winemaker Name\r\n        string  originInformation;  // Winemaker Information\r\n        string  originLatitude; // Winemaker Latitude\r\n        string  originLongitude;  // Winemaker Longitude\r\n        uint    productID;  // Product ID potentially a combination of upc + sku\r\n        string  productNotes; // Product Notes\r\n        uint    productPrice; // Product Price\r\n        uint    productFinalPrice; // Final price pof the product when sales by the wine merchant\r\n        uint    productSliced;\r\n        State   productState;  // Product State as represented in the enum above\r\n        address payable resellerID;  // Metamask-Ethereum address of the Wine Merchant\r\n        address payable enduserID; // Metamask-Ethereum address of the EndUser\r\n    }\r\n\r\n    // Block number stuct\r\n    struct Txblocks {\r\n        uint STM; // blocksupplierToManufacturer\r\n        uint MTD; // blockmanufacturerToDistributor\r\n        uint DTR; // blockDistributorToReseller\r\n        uint RTC; // blockResellerToEnduser\r\n    }\r\n\r\n    event OrderedFromSupplier(uint upc);        //1\r\n    event ShippedBySupplier(uint upc);          //2\r\n    event ProduceByManufacturer(uint upc);      //2\r\n    event ForSaleByManufacturer(uint upc);      //3\r\n    event PurchasedByDistributor(uint upc);     //4\r\n    event ShippedByManufacturer(uint upc);      //5\r\n    event ReceivedByDistributor(uint upc);      //6\r\n    event ProcessedByDistributor(uint upc);     //7\r\n    event PackagedByDistributor(uint upc);      //8\r\n    event ForSaleByDistributor(uint upc);       //9\r\n    event PurchasedByReseller(uint upc);        //10\r\n    event ShippedByDistributor(uint upc);       //11\r\n    event ReceivedByReseller(uint upc);         //12\r\n    event ForSaleByReseller(uint upc);          //13\r\n    event PurchasedByEndUser(uint upc);         //14\r\n\r\n  // Define a modifer that verifies the Caller\r\n  modifier verifyCaller (address _address) {\r\n    require(msg.sender == _address, \"\");\r\n    _;\r\n  }\r\n\r\n  // Define a modifier that checks if the paid amount is sufficient to cover the price\r\n  modifier paidEnough(uint _price) {\r\n    require(msg.value >= _price, \"\");\r\n    _;\r\n  }\r\n\r\n  // Define a modifier that checks the price and refunds the remaining balance\r\n  modifier checkValue(uint _upc, address payable addressToFund) {\r\n    uint _price = products[_upc].productPrice;\r\n    uint  amountToReturn = msg.value - _price;\r\n    addressToFund.transfer(amountToReturn);\r\n    _;\r\n  }\r\n\r\n//Product State Modifiers\r\n  modifier producedByManufacturer(uint _upc) {\r\n    require(products[_upc].productState == State.ProduceByManufacturer, \"\");\r\n    _;\r\n  }\r\n\r\n  modifier forSaleByManufacturer(uint _upc) {\r\n    require(products[_upc].productState == State.ForSaleByManufacturer, \"\");\r\n    _;\r\n  }\r\n\r\n  modifier purchasedByDistributor(uint _upc) {\r\n    require(products[_upc].productState == State.PurchasedByDistributor, \"\");\r\n    _;\r\n  }\r\n\r\n  modifier shippedByManufacturer(uint _upc) {\r\n    require(products[_upc].productState == State.ShippedByManufacturer, \"\");\r\n    _;\r\n  }\r\n\r\n  modifier receivedByDistributor(uint _upc) {\r\n    require(products[_upc].productState == State.ReceivedByDistributor, \"\");\r\n    _;\r\n  }\r\n\r\n  modifier processByDistributor(uint _upc) {\r\n    require(products[_upc].productState == State.ProcessedByDistributor, \"\");\r\n    _;\r\n  }\r\n\r\n  modifier packagedByDistributor(uint _upc) {\r\n    require(products[_upc].productState == State.PackageByDistributor, \"\");\r\n    _;\r\n  }\r\n\r\n  modifier forSaleByDistributor(uint _upc) {\r\n    require(products[_upc].productState == State.ForSaleByDistributor, \"\");\r\n    _;\r\n  }\r\n\r\n\r\n  modifier shippedByDistributor(uint _upc) {\r\n    require(products[_upc].productState == State.ShippedByDistributor, \"\");\r\n    _;\r\n  }\r\n\r\n  modifier purchasedByReseller(uint _upc) {\r\n    require(products[_upc].productState == State.PurchasedByReseller, \"\");\r\n    _;\r\n  }\r\n\r\n  modifier receivedByReseller(uint _upc) {\r\n    require(products[_upc].productState == State.ReceivedByReseller, \"\");\r\n    _;\r\n  }\r\n\r\n  modifier forSaleByReseller(uint _upc) {\r\n    require(products[_upc].productState == State.ForSaleByReseller, \"\");\r\n    _;\r\n  }\r\n\r\n  modifier purchasedByEndUser(uint _upc) {\r\n    require(products[_upc].productState == State.PurchasedByEndUser, \"\");\r\n    _;\r\n  }\r\n\r\n  // constructor setup owner sku upc\r\n  constructor() payable {\r\n    sku = 1;\r\n    upc = 1;\r\n  }\r\n\r\n\r\n  // allows you to convert an address into a payable address\r\n  function _make_payable(address x) internal pure returns (address payable) {\r\n    return payable(x);\r\n  }\r\n\r\n/*\r\n 1st step in supplychain\r\n Allows manufacturer to create cheese\r\n*/\r\n  function produceProductByManufacturer(\r\n    uint _upc,\r\n    string memory _originName,\r\n    string memory _originInformation,\r\n    string memory _originLatitude,\r\n    string memory _originLongitude,\r\n    string memory _productNotes,\r\n    uint _price,\r\n    uint256 epoch)\r\n        public\r\n        payable\r\n        onlyManufacturer() // check address belongs to manufacturerRole\r\n    {\r\n\r\n    address distributorID; // Empty distributorID address\r\n    address resellerID; // Empty resellerID address\r\n    address enduserID; // Empty enduserID address\r\n    Product memory newProduce; // Create a new struct Product in memory\r\n    newProduce.sku = sku;  // Stock Keeping Unit (SKU)\r\n    newProduce.upc = _upc; // Universal Product Code (UPC), generated by the Manufacturer, goes on the package, can be verified by the EndUser\r\n    newProduce.ownerID = msg.sender;  // Metamask-Ethereum address of the current owner as the product moves through 8 stages\r\n    newProduce.originID = payable(msg.sender); // Metamask-Ethereum address of the Manufacturer\r\n    newProduce.originName = _originName;  // Manufacturer Name\r\n    newProduce.originInformation = _originInformation; // Manufacturer Information\r\n    newProduce.originLatitude = _originLatitude; // Farm Latitude\r\n    newProduce.originLongitude = _originLongitude;  // Farm Longitude\r\n    newProduce.productID = _upc+sku;  // Product ID\r\n    newProduce.productNotes = _productNotes; // Product Notes\r\n    newProduce.productPrice = _price;  // Product Price\r\n    newProduce.manufacturedDate = epoch;\r\n    newProduce.productSliced = 0;\r\n    newProduce.productState = defaultState; // Product State as represented in the enum above\r\n    newProduce.distributorID = distributorID; // Metamask-Ethereum address of the Distributor\r\n    newProduce.resellerID = payable(resellerID); // Metamask-Ethereum address of the Reseller\r\n    newProduce.enduserID = payable(enduserID); // Metamask-Ethereum address of the EndUser // ADDED payable\r\n    products[_upc] = newProduce; // Add newProduce to products struct by upc\r\n    //uint placeholder; // Block number place holder\r\n    //Txblocks memory txBlock; // create new txBlock struct\r\n    //txBlock.STM = placeholder;\r\n    //txBlock.MTD = placeholder; // assign placeholder values\r\n    //txBlock.DTR = placeholder;\r\n    //txBlock.RTC = placeholder;\r\n    //history[_upc] = txBlock; // add txBlock to history mapping by upc\r\n\r\n    // Increment sku\r\n    sku = sku + 1;\r\n\r\n    // Emit the appropriate event\r\n    emit ProduceByManufacturer(_upc);\r\n\r\n  }\r\n\r\n/*\r\n2nd step in supplychain\r\nAllows manufacturer to sell cheese\r\n*/\r\n  function sellProductByManufacturer(uint _upc, uint _price) public\r\n    onlyManufacturer() // check msg.sender belongs to manufacturerRole\r\n    producedByManufacturer(_upc) // check products state has been produced\r\n    verifyCaller(products[_upc].ownerID) // check msg.sender is owner\r\n    {\r\n      products[_upc].productState = State.ForSaleByManufacturer;\r\n      products[_upc].productPrice = _price;\r\n      emit ForSaleByManufacturer(_upc);\r\n  }\r\n\r\n/*\r\n3rd step in supplychain\r\nAllows distributor to purchase cheese\r\n*/\r\n  function purchaseProductByDistributor(uint _upc)\r\n    public\r\n    payable\r\n    onlyDistributor() // check msg.sender belongs to distributorRole\r\n    forSaleByManufacturer(_upc) // check products state is for ForSaleByManufacturer\r\n    paidEnough(products[_upc].productPrice) // check if distributor sent enough Ether for cheese\r\n    checkValue(_upc, payable(msg.sender)) // check if overpayed return remaing funds back to msg.sender\r\n    {\r\n    address payable ownerAddressPayable = _make_payable(products[_upc].originID); // make originFarmID payable\r\n    ownerAddressPayable.transfer(products[_upc].productPrice); // transfer funds from distributor to manufacturer\r\n    products[_upc].ownerID = msg.sender; // update owner\r\n    products[_upc].distributorID = msg.sender; // update distributor\r\n    products[_upc].productState = State.PurchasedByDistributor; // update state\r\n    //history[_upc].STM = block.number; // add block number\r\n    emit PurchasedByDistributor(_upc);\r\n\r\n  }\r\n\r\n  /*\r\n  4th step in supplychain\r\n  Allows manufacturer to ship cheese purchased by distributor\r\n  */\r\n  function shippedProductByManufacturer(uint _upc) public payable\r\n    onlyManufacturer() // check msg.sender belongs to ManufacturerRole\r\n    purchasedByDistributor(_upc)\r\n    verifyCaller(products[_upc].originID) // check msg.sender is originFarmID\r\n    {\r\n    products[_upc].productState = State.ShippedByManufacturer; // update state\r\n    emit ShippedByManufacturer(_upc);\r\n  }\r\n\r\n  /*\r\n  5th step in supplychain\r\n  Allows distributor to receive cheese\r\n  */\r\n  function receivedProductByDistributor(uint _upc) public\r\n    onlyDistributor() // check msg.sender belongs to DistributorRole\r\n    shippedByManufacturer(_upc)\r\n    verifyCaller(products[_upc].ownerID) // check msg.sender is owner\r\n    {\r\n    products[_upc].productState = State.ReceivedByDistributor; // update state\r\n    emit ReceivedByDistributor(_upc);\r\n  }\r\n\r\n  /*\r\n  6th step in supplychain\r\n  Allows distributor to process cheese\r\n  */\r\n  function processedProductByDistributor(uint _upc,uint slices) public\r\n    onlyDistributor() // check msg.sender belongs to DistributorRole\r\n    receivedByDistributor(_upc)\r\n    verifyCaller(products[_upc].ownerID) // check msg.sender is owner\r\n    {\r\n    products[_upc].productState = State.ProcessedByDistributor; // update state\r\n    products[_upc].productSliced = slices; // add slice amount\r\n    emit ProcessedByDistributor(_upc);\r\n  }\r\n\r\n  /*\r\n  7th step in supplychain\r\n  Allows distributor to package cheese\r\n  */\r\n  function packageProductByDistributor(uint _upc) public\r\n    onlyDistributor() // check msg.sender belongs to DistributorRole\r\n    processByDistributor(_upc)\r\n    verifyCaller(products[_upc].ownerID) // check msg.sender is owner\r\n    {\r\n    products[_upc].productState = State.PackageByDistributor;\r\n    emit PackagedByDistributor(_upc);\r\n  }\r\n\r\n  /*\r\n  8th step in supplychain\r\n  Allows distributor to sell cheese\r\n  */\r\n  function sellProductByDistributor(uint _upc, uint _price) public\r\n    onlyDistributor() // check msg.sender belongs to DistributorRole\r\n    packagedByDistributor(_upc)\r\n    verifyCaller(products[_upc].ownerID) // check msg.sender is owner\r\n    {\r\n        products[_upc].productState = State.ForSaleByDistributor;\r\n        products[_upc].productPrice = _price;\r\n        emit ForSaleByDistributor(_upc);\r\n  }\r\n\r\n  /*\r\n  9th step in supplychain\r\n  Allows reseller to purchase cheese\r\n  */\r\n  function purchaseProductByReseller(uint _upc) public payable\r\n    onlyReseller() // check msg.sender belongs to ResellerRole\r\n    forSaleByDistributor(_upc)\r\n    paidEnough(products[_upc].productPrice)\r\n    checkValue(_upc, payable(msg.sender))\r\n    {\r\n    address payable ownerAddressPayable = _make_payable(products[_upc].distributorID);\r\n    ownerAddressPayable.transfer(products[_upc].productPrice);\r\n    products[_upc].ownerID = msg.sender;\r\n    products[_upc].resellerID = payable(msg.sender);\r\n    products[_upc].productState = State.PurchasedByReseller;\r\n    //history[_upc].DTR = block.number;\r\n    emit PurchasedByReseller(_upc);\r\n  }\r\n\r\n  /*\r\n  10th step in supplychain\r\n  Allows Distributor to\r\n  */\r\n  function shippedProductByDistributor(uint _upc) public\r\n    onlyDistributor() // check msg.sender belongs to DistributorRole\r\n    purchasedByReseller(_upc)\r\n    verifyCaller(products[_upc].distributorID) // check msg.sender is distributorID\r\n    {\r\n      products[_upc].productState = State.ShippedByDistributor;\r\n      emit ShippedByDistributor(_upc);\r\n  }\r\n\r\n  /*\r\n  11th step in supplychain\r\n  */\r\n  function receivedProductByReseller(uint _upc) public\r\n    onlyReseller() // check msg.sender belongs to ResellerRole\r\n    shippedByDistributor(_upc)\r\n    verifyCaller(products[_upc].ownerID) // check msg.sender is ownerID\r\n    {\r\n      products[_upc].productState = State.ReceivedByReseller;\r\n      emit ReceivedByReseller(_upc);\r\n  }\r\n\r\n  /*\r\n  12th step in supplychain\r\n  */\r\n  function sellProductByReseller(uint _upc, uint _price) public\r\n    onlyReseller()  // check msg.sender belongs to ResellerRole\r\n    receivedByReseller(_upc)\r\n    verifyCaller(products[_upc].ownerID) // check msg.sender is ownerID\r\n    {\r\n      products[_upc].productState = State.ForSaleByReseller;\r\n      products[_upc].productPrice = _price;\r\n      emit ForSaleByReseller(_upc);\r\n  }\r\n\r\n  /*\r\n  13th step in supplychain\r\n  */\r\n  function purchaseProductByEndUser(uint _upc) public payable\r\n    onlyEndUser()  // check msg.sender belongs to EndUserRole\r\n    forSaleByReseller(_upc)\r\n    paidEnough(products[_upc].productPrice)\r\n    checkValue(_upc, payable(msg.sender))\r\n    {\r\n      address payable ownerAddressPayable = _make_payable(products[_upc].resellerID);\r\n      ownerAddressPayable.transfer(products[_upc].productPrice);\r\n      products[_upc].ownerID = msg.sender;\r\n      products[_upc].enduserID = payable(msg.sender);\r\n      products[_upc].productState = State.PurchasedByEndUser;\r\n      //history[_upc].RTC = block.number;\r\n    emit PurchasedByEndUser(_upc);\r\n  }\r\n\r\n  // Define a function 'fetchProductBufferOne' that fetches the data\r\n  function fetchProductBufferOne(uint _upc) public view returns\r\n    (\r\n    uint    itemSKU,\r\n    uint    itemUPC,\r\n    address ownerID,\r\n    address originManufacturerID,\r\n    string memory  originName,\r\n    string memory originInformation,\r\n    string memory originLatitude,\r\n    string memory originLongitude,\r\n    uint manufacturedDate,\r\n    uint productSliced\r\n    )\r\n    {\r\n    // Assign values to the 8 parameters\r\n    Product memory item = products[_upc];\r\n\r\n    return\r\n    (\r\n      item.sku,\r\n      item.upc,\r\n      item.ownerID,\r\n      item.originID,\r\n      item.originName,\r\n      item.originInformation,\r\n      item.originLatitude,\r\n      item.originLongitude,\r\n      item.manufacturedDate,\r\n      item.productSliced\r\n    );\r\n  }\r\n\r\n  // Define a function 'fetchProductBufferTwo' that fetches the data\r\n  function fetchProductBufferTwo(uint _upc) public view returns\r\n    (\r\n    uint    itemSKU,\r\n    uint    itemUPC,\r\n    uint    productID,\r\n    string  memory productNotes,\r\n    uint    productPrice,\r\n    uint256 manufacturedDate,\r\n    State   itemState,\r\n    address distributorID,\r\n    address resellerID,\r\n    address enduserID\r\n    )\r\n    {\r\n      // Assign values to the 9 parameters\r\n    Product memory item = products[_upc];\r\n\r\n    return\r\n    (\r\n      item.sku,\r\n      item.upc,\r\n      item.productID,\r\n      item.productNotes,\r\n      item.productPrice,\r\n      item.manufacturedDate,\r\n      item.productState,\r\n      item.distributorID,\r\n      item.resellerID,\r\n      item.enduserID\r\n    );\r\n\r\n  }\r\n\r\n  // Define a function 'fetchProductHistory' that fetaches the data\r\n  function fetchitemHistory(uint _upc) public view returns\r\n    (\r\n        uint blocksupplierToManufacturer,\r\n        uint blockmanufacturerToDistributor,\r\n        uint blockDistributorToReseller,\r\n        uint blockResellerToEndUser\r\n    )\r\n    {\r\n      // Assign value to the parameters\r\n      //Txblocks memory txblock = history[_upc];\r\n      //return\r\n      //(\r\n      //  txblock.STM,\r\n      //  txblock.MTD,\r\n      //  txblock.DTR,\r\n      //  txblock.RTC\r\n      //);\r\n\r\n    }\r\n\r\n}",
  "sourcePath": "/Volumes/HOME/pingleware-contracts/contracts/scm/SupplyChain.sol",
  "compiler": {
    "name": "solc",
    "version": "0.8.18+commit.87f61d96.Emscripten.clang"
  },
  "schemaVersion": "3.4.12",
  "updatedAt": "2024-05-23T18:56:27.194Z",
  "devdoc": {
    "kind": "dev",
    "methods": {
      "renounceOwnership()": {
        "details": "Leaves the contract without owner. It will not be possible to call `onlyOwner` functions anymore. Can only be called by the current owner. NOTE: Renouncing ownership will leave the contract without an owner, thereby removing any functionality that is only available to the owner."
      },
      "transferOwnership(address)": {
        "details": "Transfers ownership of the contract to a new account (`newOwner`). Can only be called by the current owner."
      }
    },
    "version": 1
  },
  "userdoc": {
    "kind": "user",
    "methods": {},
    "version": 1
  }
}