{
  "contractName": "SupplyChain",
  "abi": [
    {
      "inputs": [],
      "stateMutability": "payable",
      "type": "constructor"
    },
    {
      "anonymous": false,
      "inputs": [
        {
          "indexed": true,
          "internalType": "address",
          "name": "account",
          "type": "address"
        }
      ],
      "name": "DistributorAdded",
      "type": "event"
    },
    {
      "anonymous": false,
      "inputs": [
        {
          "indexed": true,
          "internalType": "address",
          "name": "account",
          "type": "address"
        }
      ],
      "name": "DistributorRemoved",
      "type": "event"
    },
    {
      "anonymous": false,
      "inputs": [
        {
          "indexed": true,
          "internalType": "address",
          "name": "account",
          "type": "address"
        }
      ],
      "name": "EndUserAdded",
      "type": "event"
    },
    {
      "anonymous": false,
      "inputs": [
        {
          "indexed": true,
          "internalType": "address",
          "name": "account",
          "type": "address"
        }
      ],
      "name": "EndUserRemoved",
      "type": "event"
    },
    {
      "anonymous": false,
      "inputs": [
        {
          "indexed": false,
          "internalType": "address",
          "name": "sender",
          "type": "address"
        },
        {
          "indexed": false,
          "internalType": "uint256",
          "name": "amount",
          "type": "uint256"
        }
      ],
      "name": "FallbackEvent",
      "type": "event"
    },
    {
      "anonymous": false,
      "inputs": [
        {
          "indexed": false,
          "internalType": "uint256",
          "name": "upc",
          "type": "uint256"
        }
      ],
      "name": "ForSaleByDistributor",
      "type": "event"
    },
    {
      "anonymous": false,
      "inputs": [
        {
          "indexed": false,
          "internalType": "uint256",
          "name": "upc",
          "type": "uint256"
        }
      ],
      "name": "ForSaleByManufacturer",
      "type": "event"
    },
    {
      "anonymous": false,
      "inputs": [
        {
          "indexed": false,
          "internalType": "uint256",
          "name": "upc",
          "type": "uint256"
        }
      ],
      "name": "ForSaleByReseller",
      "type": "event"
    },
    {
      "anonymous": false,
      "inputs": [
        {
          "indexed": true,
          "internalType": "address",
          "name": "account",
          "type": "address"
        }
      ],
      "name": "ManufacturerAdded",
      "type": "event"
    },
    {
      "anonymous": false,
      "inputs": [
        {
          "indexed": true,
          "internalType": "address",
          "name": "account",
          "type": "address"
        }
      ],
      "name": "ManufacturerRemoved",
      "type": "event"
    },
    {
      "anonymous": false,
      "inputs": [
        {
          "indexed": false,
          "internalType": "uint256",
          "name": "upc",
          "type": "uint256"
        }
      ],
      "name": "OrderedFromSupplier",
      "type": "event"
    },
    {
      "anonymous": false,
      "inputs": [
        {
          "indexed": true,
          "internalType": "address",
          "name": "previousOwner",
          "type": "address"
        },
        {
          "indexed": true,
          "internalType": "address",
          "name": "newOwner",
          "type": "address"
        }
      ],
      "name": "OwnershipTransferred",
      "type": "event"
    },
    {
      "anonymous": false,
      "inputs": [
        {
          "indexed": false,
          "internalType": "uint256",
          "name": "upc",
          "type": "uint256"
        }
      ],
      "name": "PackagedByDistributor",
      "type": "event"
    },
    {
      "anonymous": false,
      "inputs": [
        {
          "indexed": false,
          "internalType": "uint256",
          "name": "upc",
          "type": "uint256"
        }
      ],
      "name": "ProcessedByDistributor",
      "type": "event"
    },
    {
      "anonymous": false,
      "inputs": [
        {
          "indexed": false,
          "internalType": "uint256",
          "name": "upc",
          "type": "uint256"
        }
      ],
      "name": "ProduceByManufacturer",
      "type": "event"
    },
    {
      "anonymous": false,
      "inputs": [
        {
          "indexed": false,
          "internalType": "uint256",
          "name": "upc",
          "type": "uint256"
        }
      ],
      "name": "PurchasedByDistributor",
      "type": "event"
    },
    {
      "anonymous": false,
      "inputs": [
        {
          "indexed": false,
          "internalType": "uint256",
          "name": "upc",
          "type": "uint256"
        }
      ],
      "name": "PurchasedByEndUser",
      "type": "event"
    },
    {
      "anonymous": false,
      "inputs": [
        {
          "indexed": false,
          "internalType": "uint256",
          "name": "upc",
          "type": "uint256"
        }
      ],
      "name": "PurchasedByReseller",
      "type": "event"
    },
    {
      "anonymous": false,
      "inputs": [
        {
          "indexed": false,
          "internalType": "address",
          "name": "sender",
          "type": "address"
        },
        {
          "indexed": false,
          "internalType": "uint256",
          "name": "amount",
          "type": "uint256"
        }
      ],
      "name": "ReceiveEvent",
      "type": "event"
    },
    {
      "anonymous": false,
      "inputs": [
        {
          "indexed": false,
          "internalType": "uint256",
          "name": "upc",
          "type": "uint256"
        }
      ],
      "name": "ReceivedByDistributor",
      "type": "event"
    },
    {
      "anonymous": false,
      "inputs": [
        {
          "indexed": false,
          "internalType": "uint256",
          "name": "upc",
          "type": "uint256"
        }
      ],
      "name": "ReceivedByReseller",
      "type": "event"
    },
    {
      "anonymous": false,
      "inputs": [
        {
          "indexed": true,
          "internalType": "address",
          "name": "account",
          "type": "address"
        }
      ],
      "name": "ResellerAdded",
      "type": "event"
    },
    {
      "anonymous": false,
      "inputs": [
        {
          "indexed": true,
          "internalType": "address",
          "name": "account",
          "type": "address"
        }
      ],
      "name": "ResellerRemoved",
      "type": "event"
    },
    {
      "anonymous": false,
      "inputs": [
        {
          "indexed": false,
          "internalType": "uint256",
          "name": "upc",
          "type": "uint256"
        }
      ],
      "name": "ShippedByDistributor",
      "type": "event"
    },
    {
      "anonymous": false,
      "inputs": [
        {
          "indexed": false,
          "internalType": "uint256",
          "name": "upc",
          "type": "uint256"
        }
      ],
      "name": "ShippedByManufacturer",
      "type": "event"
    },
    {
      "anonymous": false,
      "inputs": [
        {
          "indexed": false,
          "internalType": "uint256",
          "name": "upc",
          "type": "uint256"
        }
      ],
      "name": "ShippedBySupplier",
      "type": "event"
    },
    {
      "anonymous": false,
      "inputs": [
        {
          "indexed": true,
          "internalType": "address",
          "name": "account",
          "type": "address"
        }
      ],
      "name": "SupplierAdded",
      "type": "event"
    },
    {
      "anonymous": false,
      "inputs": [
        {
          "indexed": true,
          "internalType": "address",
          "name": "account",
          "type": "address"
        }
      ],
      "name": "SupplierRemoved",
      "type": "event"
    },
    {
      "stateMutability": "payable",
      "type": "fallback"
    },
    {
      "inputs": [],
      "name": "WAIT",
      "outputs": [
        {
          "internalType": "uint256",
          "name": "",
          "type": "uint256"
        }
      ],
      "stateMutability": "view",
      "type": "function"
    },
    {
      "inputs": [
        {
          "internalType": "address",
          "name": "account",
          "type": "address"
        }
      ],
      "name": "addDistributor",
      "outputs": [],
      "stateMutability": "nonpayable",
      "type": "function"
    },
    {
      "inputs": [
        {
          "internalType": "address",
          "name": "account",
          "type": "address"
        }
      ],
      "name": "addEndUser",
      "outputs": [],
      "stateMutability": "nonpayable",
      "type": "function"
    },
    {
      "inputs": [
        {
          "internalType": "address",
          "name": "account",
          "type": "address"
        }
      ],
      "name": "addManufacturer",
      "outputs": [],
      "stateMutability": "nonpayable",
      "type": "function"
    },
    {
      "inputs": [
        {
          "internalType": "address",
          "name": "account",
          "type": "address"
        }
      ],
      "name": "addReseller",
      "outputs": [],
      "stateMutability": "nonpayable",
      "type": "function"
    },
    {
      "inputs": [
        {
          "internalType": "address",
          "name": "account",
          "type": "address"
        }
      ],
      "name": "addSupplier",
      "outputs": [],
      "stateMutability": "nonpayable",
      "type": "function"
    },
    {
      "inputs": [],
      "name": "getOwner",
      "outputs": [
        {
          "internalType": "address",
          "name": "",
          "type": "address"
        }
      ],
      "stateMutability": "payable",
      "type": "function"
    },
    {
      "inputs": [
        {
          "internalType": "address",
          "name": "account",
          "type": "address"
        }
      ],
      "name": "isDistributor",
      "outputs": [
        {
          "internalType": "bool",
          "name": "",
          "type": "bool"
        }
      ],
      "stateMutability": "view",
      "type": "function"
    },
    {
      "inputs": [
        {
          "internalType": "address",
          "name": "account",
          "type": "address"
        }
      ],
      "name": "isEndUser",
      "outputs": [
        {
          "internalType": "bool",
          "name": "",
          "type": "bool"
        }
      ],
      "stateMutability": "view",
      "type": "function"
    },
    {
      "inputs": [
        {
          "internalType": "address",
          "name": "account",
          "type": "address"
        }
      ],
      "name": "isManufacturer",
      "outputs": [
        {
          "internalType": "bool",
          "name": "",
          "type": "bool"
        }
      ],
      "stateMutability": "view",
      "type": "function"
    },
    {
      "inputs": [
        {
          "internalType": "address",
          "name": "account",
          "type": "address"
        }
      ],
      "name": "isReseller",
      "outputs": [
        {
          "internalType": "bool",
          "name": "",
          "type": "bool"
        }
      ],
      "stateMutability": "view",
      "type": "function"
    },
    {
      "inputs": [
        {
          "internalType": "address",
          "name": "account",
          "type": "address"
        }
      ],
      "name": "isSupplier",
      "outputs": [
        {
          "internalType": "bool",
          "name": "",
          "type": "bool"
        }
      ],
      "stateMutability": "view",
      "type": "function"
    },
    {
      "inputs": [],
      "name": "renounceDistributor",
      "outputs": [],
      "stateMutability": "nonpayable",
      "type": "function"
    },
    {
      "inputs": [],
      "name": "renounceEndUser",
      "outputs": [],
      "stateMutability": "nonpayable",
      "type": "function"
    },
    {
      "inputs": [],
      "name": "renounceManufacturer",
      "outputs": [],
      "stateMutability": "nonpayable",
      "type": "function"
    },
    {
      "inputs": [],
      "name": "renounceOwnership",
      "outputs": [],
      "stateMutability": "payable",
      "type": "function"
    },
    {
      "inputs": [],
      "name": "renounceReseller",
      "outputs": [],
      "stateMutability": "nonpayable",
      "type": "function"
    },
    {
      "inputs": [],
      "name": "renounceSupplier",
      "outputs": [],
      "stateMutability": "nonpayable",
      "type": "function"
    },
    {
      "inputs": [
        {
          "internalType": "address",
          "name": "newOwner",
          "type": "address"
        }
      ],
      "name": "transferOwnership",
      "outputs": [],
      "stateMutability": "payable",
      "type": "function"
    },
    {
      "stateMutability": "payable",
      "type": "receive"
    },
    {
      "inputs": [
        {
          "internalType": "uint256",
          "name": "_upc",
          "type": "uint256"
        },
        {
          "internalType": "string",
          "name": "_originName",
          "type": "string"
        },
        {
          "internalType": "string",
          "name": "_originInformation",
          "type": "string"
        },
        {
          "internalType": "string",
          "name": "_originLatitude",
          "type": "string"
        },
        {
          "internalType": "string",
          "name": "_originLongitude",
          "type": "string"
        },
        {
          "internalType": "string",
          "name": "_productNotes",
          "type": "string"
        },
        {
          "internalType": "uint256",
          "name": "_price",
          "type": "uint256"
        },
        {
          "internalType": "uint256",
          "name": "epoch",
          "type": "uint256"
        }
      ],
      "name": "produceProductByManufacturer",
      "outputs": [],
      "stateMutability": "payable",
      "type": "function"
    },
    {
      "inputs": [
        {
          "internalType": "uint256",
          "name": "_upc",
          "type": "uint256"
        },
        {
          "internalType": "uint256",
          "name": "_price",
          "type": "uint256"
        }
      ],
      "name": "sellProductByManufacturer",
      "outputs": [],
      "stateMutability": "nonpayable",
      "type": "function"
    },
    {
      "inputs": [
        {
          "internalType": "uint256",
          "name": "_upc",
          "type": "uint256"
        }
      ],
      "name": "purchaseProductByDistributor",
      "outputs": [],
      "stateMutability": "payable",
      "type": "function"
    },
    {
      "inputs": [
        {
          "internalType": "uint256",
          "name": "_upc",
          "type": "uint256"
        }
      ],
      "name": "shippedProductByManufacturer",
      "outputs": [],
      "stateMutability": "payable",
      "type": "function"
    },
    {
      "inputs": [
        {
          "internalType": "uint256",
          "name": "_upc",
          "type": "uint256"
        }
      ],
      "name": "receivedProductByDistributor",
      "outputs": [],
      "stateMutability": "nonpayable",
      "type": "function"
    },
    {
      "inputs": [
        {
          "internalType": "uint256",
          "name": "_upc",
          "type": "uint256"
        },
        {
          "internalType": "uint256",
          "name": "slices",
          "type": "uint256"
        }
      ],
      "name": "processedProductByDistributor",
      "outputs": [],
      "stateMutability": "nonpayable",
      "type": "function"
    },
    {
      "inputs": [
        {
          "internalType": "uint256",
          "name": "_upc",
          "type": "uint256"
        }
      ],
      "name": "packageProductByDistributor",
      "outputs": [],
      "stateMutability": "nonpayable",
      "type": "function"
    },
    {
      "inputs": [
        {
          "internalType": "uint256",
          "name": "_upc",
          "type": "uint256"
        },
        {
          "internalType": "uint256",
          "name": "_price",
          "type": "uint256"
        }
      ],
      "name": "sellProductByDistributor",
      "outputs": [],
      "stateMutability": "nonpayable",
      "type": "function"
    },
    {
      "inputs": [
        {
          "internalType": "uint256",
          "name": "_upc",
          "type": "uint256"
        }
      ],
      "name": "purchaseProductByReseller",
      "outputs": [],
      "stateMutability": "payable",
      "type": "function"
    },
    {
      "inputs": [
        {
          "internalType": "uint256",
          "name": "_upc",
          "type": "uint256"
        }
      ],
      "name": "shippedProductByDistributor",
      "outputs": [],
      "stateMutability": "nonpayable",
      "type": "function"
    },
    {
      "inputs": [
        {
          "internalType": "uint256",
          "name": "_upc",
          "type": "uint256"
        }
      ],
      "name": "receivedProductByReseller",
      "outputs": [],
      "stateMutability": "nonpayable",
      "type": "function"
    },
    {
      "inputs": [
        {
          "internalType": "uint256",
          "name": "_upc",
          "type": "uint256"
        },
        {
          "internalType": "uint256",
          "name": "_price",
          "type": "uint256"
        }
      ],
      "name": "sellProductByReseller",
      "outputs": [],
      "stateMutability": "nonpayable",
      "type": "function"
    },
    {
      "inputs": [
        {
          "internalType": "uint256",
          "name": "_upc",
          "type": "uint256"
        }
      ],
      "name": "purchaseProductByEndUser",
      "outputs": [],
      "stateMutability": "payable",
      "type": "function"
    },
    {
      "inputs": [
        {
          "internalType": "uint256",
          "name": "_upc",
          "type": "uint256"
        }
      ],
      "name": "fetchProductBufferOne",
      "outputs": [
        {
          "internalType": "uint256",
          "name": "itemSKU",
          "type": "uint256"
        },
        {
          "internalType": "uint256",
          "name": "itemUPC",
          "type": "uint256"
        },
        {
          "internalType": "address",
          "name": "ownerID",
          "type": "address"
        },
        {
          "internalType": "address",
          "name": "originManufacturerID",
          "type": "address"
        },
        {
          "internalType": "string",
          "name": "originName",
          "type": "string"
        },
        {
          "internalType": "string",
          "name": "originInformation",
          "type": "string"
        },
        {
          "internalType": "string",
          "name": "originLatitude",
          "type": "string"
        },
        {
          "internalType": "string",
          "name": "originLongitude",
          "type": "string"
        },
        {
          "internalType": "uint256",
          "name": "manufacturedDate",
          "type": "uint256"
        },
        {
          "internalType": "uint256",
          "name": "productSliced",
          "type": "uint256"
        }
      ],
      "stateMutability": "view",
      "type": "function"
    },
    {
      "inputs": [
        {
          "internalType": "uint256",
          "name": "_upc",
          "type": "uint256"
        }
      ],
      "name": "fetchProductBufferTwo",
      "outputs": [
        {
          "internalType": "uint256",
          "name": "itemSKU",
          "type": "uint256"
        },
        {
          "internalType": "uint256",
          "name": "itemUPC",
          "type": "uint256"
        },
        {
          "internalType": "uint256",
          "name": "productID",
          "type": "uint256"
        },
        {
          "internalType": "string",
          "name": "productNotes",
          "type": "string"
        },
        {
          "internalType": "uint256",
          "name": "productPrice",
          "type": "uint256"
        },
        {
          "internalType": "uint256",
          "name": "manufacturedDate",
          "type": "uint256"
        },
        {
          "internalType": "enum SupplyChain.State",
          "name": "itemState",
          "type": "uint8"
        },
        {
          "internalType": "address",
          "name": "distributorID",
          "type": "address"
        },
        {
          "internalType": "address",
          "name": "resellerID",
          "type": "address"
        },
        {
          "internalType": "address",
          "name": "enduserID",
          "type": "address"
        }
      ],
      "stateMutability": "view",
      "type": "function"
    },
    {
      "inputs": [
        {
          "internalType": "uint256",
          "name": "_upc",
          "type": "uint256"
        }
      ],
      "name": "fetchitemHistory",
      "outputs": [
        {
          "internalType": "uint256",
          "name": "blocksupplierToManufacturer",
          "type": "uint256"
        },
        {
          "internalType": "uint256",
          "name": "blockmanufacturerToDistributor",
          "type": "uint256"
        },
        {
          "internalType": "uint256",
          "name": "blockDistributorToReseller",
          "type": "uint256"
        },
        {
          "internalType": "uint256",
          "name": "blockResellerToEndUser",
          "type": "uint256"
        }
      ],
      "stateMutability": "view",
      "type": "function"
    }
  ],
  "bytecode": "0x6080604081905260008054600160a060020a03191633908117825542600155917f8be0079c531659141344cd1fd0a4f28419497f9722a3daafe3b4186f6b6457e0908290a36200005833640100000000620000b8810204565b6200006c336401000000006200010a810204565b62000080336401000000006200015c810204565b6200009433640100000000620001ae810204565b620000a83364010000000062000200810204565b6001600881905560095562000388565b620000d3600382640100000000620023c36200025282021704565b604051600160a060020a038216907fa9f13e94f3f7dbf69ac8405e3aa6f43a6f162984687d099c7a5cd9b602552cc290600090a250565b62000125600482640100000000620023c36200025282021704565b604051600160a060020a038216907f561138658ca49a8540dc70dcfe64c9026c1c5b9344642242dd6562970f9c127890600090a250565b62000177600582640100000000620023c36200025282021704565b604051600160a060020a038216907fddbf200aa634dc3fb81cfd68583dd1040d1c751d335e1d86b631bde3e977fea890600090a250565b620001c9600682640100000000620023c36200025282021704565b604051600160a060020a038216907ffb8f232b7a1d3d51060d32be9d6cf6808aa8f7dd043c8c20c4cfaf929ca9d48490600090a250565b6200021b600782640100000000620023c36200025282021704565b604051600160a060020a038216907fc3f6032baab071079d5ea3936ce1a6802e40430628436f75d2905378cb9f3a3690600090a250565b600160a060020a0381166200029e576040517f08c379a0000000000000000000000000000000000000000000000000000000008152600401620002959062000377565b60405180910390fd5b620002b3828264010000000062000312810204565b15620002ed576040517f08c379a0000000000000000000000000000000000000000000000000000000008152600401620002959062000377565b600160a060020a0316600090815260209190915260409020805460ff19166001179055565b6000600160a060020a03821662000357576040517f08c379a0000000000000000000000000000000000000000000000000000000008152600401620002959062000377565b50600160a060020a03166000908152602091909152604090205460ff1690565b602080825260009082015260400190565b612e9180620003986000396000f3fe60806040526004361061019b5760e060020a6000350463015b00dd811461026257806307e2ecde1461027757806309fd54f0146102975780630d986b66146102b75780631154501c146102ca57806317d4a4911461031757806317df4745146103475780633912df4514610367578063412015e41461037c57806346336542146103b25780634af076d8146103d2578063528356ed146103f25780635f8a5afa14610412578063644241db146104325780637139486414610447578063715018a61461045a5780637250e22414610462578063893d20e8146104825780638f0c86fa146104a257806392024888146104c2578063a10d9c9e146104d7578063b067db3a146104f7578063b8fb3a5114610517578063c13c9d5a1461053a578063c4170cfd14610570578063c688a47814610590578063cb10024c146105b0578063cf1b9f1a146105c3578063d4ca649b146105e3578063de07f34e146105f6578063e72079ce1461060b578063e7e8f5641461062b578063e93e4c151461064b578063eafe40241461066b578063f2fde38b14610680576101db565b366101db577fcc85d09d309785db93d6df19917f2e6cc07fe27cd01c08c8279145deb5cf452633346040516101d192919061284c565b60405180910390a1005b3233146102315760405160e560020a62461bcd0281526020600482015260196024820152603860020a787068697368696e672061747461636b2064657465637465643f0260448201526064015b60405180910390fd5b7f26875833861a2b006512a11f1b86edf95df96131040f3caeed72989ee985808333346040516101d192919061284c565b61027561027036600461290b565b610693565b005b34801561028357600080fd5b506102756102923660046129f9565b610938565b3480156102a357600080fd5b506102756102b2366004612a1b565b610a44565b6102756102c5366004612a1b565b610b48565b3480156102d657600080fd5b506102f26102e5366004612a1b565b6000806000809193509193565b6040805194855260208501939093529183015260608201526080015b60405180910390f35b34801561032357600080fd5b50610337610332366004612a34565b610d20565b604051901515815260200161030e565b34801561035357600080fd5b50610275610362366004612a34565b610d33565b34801561037357600080fd5b50610275610d67565b34801561038857600080fd5b5061039c610397366004612a1b565b610d72565b60405161030e9a99989796959493929190612aaa565b3480156103be57600080fd5b506103376103cd366004612a34565b6111e8565b3480156103de57600080fd5b506102756103ed366004612a34565b6111f5565b3480156103fe57600080fd5b5061027561040d3660046129f9565b611226565b34801561041e57600080fd5b5061027561042d366004612a34565b611328565b34801561043e57600080fd5b50610275611359565b610275610455366004612a1b565b611362565b610275611531565b34801561046e57600080fd5b5061027561047d366004612a34565b611596565b61048a6115c7565b604051600160a060020a03909116815260200161030e565b3480156104ae57600080fd5b506103376104bd366004612a34565b61163d565b3480156104ce57600080fd5b5061027561164a565b3480156104e357600080fd5b506103376104f2366004612a34565b611653565b34801561050357600080fd5b506102756105123660046129f9565b611660565b34801561052357600080fd5b5061052c601e81565b60405190815260200161030e565b34801561054657600080fd5b5061055a610555366004612a1b565b611763565b60405161030e9a99989796959493929190612b56565b34801561057c57600080fd5b5061027561058b366004612a1b565b611bda565b34801561059c57600080fd5b506103376105ab366004612a34565b611cd5565b6102756105be366004612a1b565b611ce2565b3480156105cf57600080fd5b506102756105de366004612a1b565b611ddd565b6102756105f1366004612a1b565b611ed8565b34801561060257600080fd5b506102756120a2565b34801561061757600080fd5b50610275610626366004612a1b565b6120ab565b34801561063757600080fd5b506102756106463660046129f9565b6121a6565b34801561065757600080fd5b50610275610666366004612a34565b6122a8565b34801561067757600080fd5b506102756122d9565b61027561068e366004612a34565b6122e2565b61069c33610d20565b6106bb5760405160e560020a62461bcd02815260040161022890612be2565b60008060006106c861278e565b600854808252602082018d9052336080830181905260c083015260e082018c905261010082018b905261012082018a9052610140820189905261070b908d612c51565b61016082015261018081018790526101a081018690526060810185815260006101e083018190526102008301819052600160a060020a0386811660a085019081528682166102208601528582166102408601528f8352600a602090815260409384902086518155908601516001820155928501516002840155925160038301556080840151600483018054600160a060020a03199081169284169290921790559251600583018054851691831691909117905560c084015160068301805490941691161790915560e082015182919060078201906107e99082612cf1565b5061010082015160088201906107ff9082612cf1565b5061012082015160098201906108159082612cf1565b50610140820151600a82019061082b9082612cf1565b50610160820151600b820155610180820151600c82019061084c9082612cf1565b506101a082015181600d01556101c082015181600e01556101e082015181600f01556102008201518160100160006101000a81548160ff0219169083600e81111561089957610899612b3c565b021790555061022082015160108201805461010060a860020a031916610100600160a060020a03938416021790556102409092015160119091018054600160a060020a031916919092161790556008546108f4906001612c51565b6008556040518c81527f450f0ca4d112999acf0af70e42b45b5e285434a386833a43e0cc3ce5279cfd0a9060200160405180910390a1505050505050505050505050565b6109413361163d565b6109605760405160e560020a62461bcd02815260040161022890612be2565b8160066000828152600a602052604090206010015460ff16600e81111561098957610989612b3c565b146109a95760405160e560020a62461bcd02815260040161022890612db6565b6000838152600a6020526040902060040154600160a060020a03163381146109e65760405160e560020a62461bcd02815260040161022890612db6565b6000848152600a602090815260409182902060108101805460ff19166007179055600f0185905590518581527f5725e53fd0efed5294b7db2af148f040264a63630b4deb0afbccf6e60830988a91015b60405180910390a150505050565b610a4d3361163d565b610a6c5760405160e560020a62461bcd02815260040161022890612be2565b80600a6000828152600a602052604090206010015460ff16600e811115610a9557610a95612b3c565b14610ab55760405160e560020a62461bcd02815260040161022890612db6565b6000828152600a6020526040902060050154600160a060020a0316338114610af25760405160e560020a62461bcd02815260040161022890612db6565b6000838152600a6020908152604091829020601001805460ff1916600b17905590518481527fc5c33776d405e5686e4386e1ef31a65cf6195e4f7ceb8808ab64d05b6ccbc2a691015b60405180910390a1505050565b610b513361163d565b610b705760405160e560020a62461bcd02815260040161022890612be2565b8060036000828152600a602052604090206010015460ff16600e811115610b9957610b99612b3c565b14610bb95760405160e560020a62461bcd02815260040161022890612db6565b6000828152600a60205260409020600d015434811115610bee5760405160e560020a62461bcd02815260040161022890612db6565b6000838152600a60205260408120600d01548491339190610c0f8234612dc7565b604051909150600160a060020a0384169082156108fc029083906000818181858888f19350505050158015610c48573d6000803e3d6000fd5b506000878152600a60205260408082206006810154600d909101549151600160a060020a039091169283926108fc811502929091818181858888f19350505050158015610c99573d6000803e3d6000fd5b506000888152600a602052604090206004808201805433600160a060020a0319918216811790925560058401805490911690911790556010909101805460ff191660018302179055506040518881527facd9402b9f9e8c15fa7c1819f8393ca56eb61316cc354fc6ac2150aed3ce7931906020015b60405180910390a15050505050505050565b6000610d2d60048361243b565b92915050565b610d3c336111e8565b610d5b5760405160e560020a62461bcd02815260040161022890612be2565b610d6481612486565b50565b610d70336124c8565b565b6000818152600a602090815260408083208151610260810183528154815260018201549381019390935260028101549183019190915260038101546060838101919091526004820154600160a060020a0390811660808501526005830154811660a085015260068301541660c084015260078201805485948594859493849384938493889384938493929160e0840191610e0b90612c64565b80601f0160208091040260200160405190810160405280929190818152602001828054610e3790612c64565b8015610e845780601f10610e5957610100808354040283529160200191610e84565b820191906000526020600020905b815481529060010190602001808311610e6757829003601f168201915b50505050508152602001600882018054610e9d90612c64565b80601f0160208091040260200160405190810160405280929190818152602001828054610ec990612c64565b8015610f165780601f10610eeb57610100808354040283529160200191610f16565b820191906000526020600020905b815481529060010190602001808311610ef957829003601f168201915b50505050508152602001600982018054610f2f90612c64565b80601f0160208091040260200160405190810160405280929190818152602001828054610f5b90612c64565b8015610fa85780601f10610f7d57610100808354040283529160200191610fa8565b820191906000526020600020905b815481529060010190602001808311610f8b57829003601f168201915b50505050508152602001600a82018054610fc190612c64565b80601f0160208091040260200160405190810160405280929190818152602001828054610fed90612c64565b801561103a5780601f1061100f5761010080835404028352916020019161103a565b820191906000526020600020905b81548152906001019060200180831161101d57829003601f168201915b50505050508152602001600b8201548152602001600c8201805461105d90612c64565b80601f016020809104026020016040519081016040528092919081815260200182805461108990612c64565b80156110d65780601f106110ab576101008083540402835291602001916110d6565b820191906000526020600020905b8154815290600101906020018083116110b957829003601f168201915b5050509183525050600d8201546020820152600e808301546040830152600f8301546060830152601083015460809092019160ff169081111561111b5761111b612b3c565b600e81111561112c5761112c612b3c565b81526020016010820160019054906101000a9004600160a060020a0316600160a060020a0316600160a060020a031681526020016011820160009054906101000a9004600160a060020a0316600160a060020a0316600160a060020a03168152505090508060000151816020015182608001518360c001518460e001518561010001518661012001518761014001518860600151896101e001519a509a509a509a509a509a509a509a509a509a50509193959799509193959799565b6000610d2d60038361243b565b6111fe33611653565b61121d5760405160e560020a62461bcd02815260040161022890612be2565b610d648161250a565b61122f3361163d565b61124e5760405160e560020a62461bcd02815260040161022890612be2565b8160086000828152600a602052604090206010015460ff16600e81111561127757611277612b3c565b146112975760405160e560020a62461bcd02815260040161022890612db6565b6000838152600a6020526040902060040154600160a060020a03163381146112d45760405160e560020a62461bcd02815260040161022890612db6565b6000848152600a602090815260409182902060108101805460ff19166009179055600d0185905590518581527f539b4a835a8a5d1bc5756a9f146e2bfeaa6bd6b1fa77a7631c0a5154c86cdd039101610a36565b61133133610d20565b6113505760405160e560020a62461bcd02815260040161022890612be2565b610d648161254c565b610d703361258e565b61136b33611653565b61138a5760405160e560020a62461bcd02815260040161022890612be2565b8060096000828152600a602052604090206010015460ff16600e8111156113b3576113b3612b3c565b146113d35760405160e560020a62461bcd02815260040161022890612db6565b6000828152600a60205260409020600d0154348111156114085760405160e560020a62461bcd02815260040161022890612db6565b6000838152600a60205260408120600d015484913391906114298234612dc7565b604051909150600160a060020a0384169082156108fc029083906000818181858888f19350505050158015611462573d6000803e3d6000fd5b506000878152600a60205260408082206005810154600d909101549151600160a060020a039091169283926108fc811502929091818181858888f193505050501580156114b3573d6000803e3d6000fd5b506000888152600a6020818152604092839020600481018054600160a060020a031916339081179091556010909101805461010090920260ff1916600160a860020a03199092169190911790921790915590518981527f8eaafe1f9287b03a5bc69e2f31f40bf4a5f778e9be32c3ccbb205f0c85fea8cf9101610d0e565b600054600160a060020a0316331461155e5760405160e560020a62461bcd02815260040161022890612dda565b60008054604051600160a060020a0390911690600080516020612e3c833981519152908390a360008054600160a060020a0319169055565b61159f3361163d565b6115be5760405160e560020a62461bcd02815260040161022890612be2565b610d64816125d0565b6000601e6001546115d89190612c51565b42116115f95760405160e560020a62461bcd02815260040161022890612e0e565b601e6001546116089190612c51565b42116116295760405160e560020a62461bcd02815260040161022890612e0e565b5042600155600054600160a060020a031690565b6000610d2d60058361243b565b610d7033612612565b6000610d2d60068361243b565b61166933611653565b6116885760405160e560020a62461bcd02815260040161022890612be2565b81600c6000828152600a602052604090206010015460ff16600e8111156116b1576116b1612b3c565b146116d15760405160e560020a62461bcd02815260040161022890612db6565b6000838152600a6020526040902060040154600160a060020a031633811461170e5760405160e560020a62461bcd02815260040161022890612db6565b6000848152600a602090815260409182902060108101805460ff1916600d9081179091550185905590518581527f047a56d0fceabe07f06dd52ce5d438eb196466aff0fb98215205619819b736329101610a36565b6000818152600a602090815260408083208151610260810183528154815260018201549381019390935260028101549183019190915260038101546060838101919091526004820154600160a060020a0390811660808501526005830154811660a085015260068301541660c0840152600782018054859485948593849384938493849384938493929160e08401916117fb90612c64565b80601f016020809104026020016040519081016040528092919081815260200182805461182790612c64565b80156118745780601f1061184957610100808354040283529160200191611874565b820191906000526020600020905b81548152906001019060200180831161185757829003601f168201915b5050505050815260200160088201805461188d90612c64565b80601f01602080910402602001604051908101604052809291908181526020018280546118b990612c64565b80156119065780601f106118db57610100808354040283529160200191611906565b820191906000526020600020905b8154815290600101906020018083116118e957829003601f168201915b5050505050815260200160098201805461191f90612c64565b80601f016020809104026020016040519081016040528092919081815260200182805461194b90612c64565b80156119985780601f1061196d57610100808354040283529160200191611998565b820191906000526020600020905b81548152906001019060200180831161197b57829003601f168201915b50505050508152602001600a820180546119b190612c64565b80601f01602080910402602001604051908101604052809291908181526020018280546119dd90612c64565b8015611a2a5780601f106119ff57610100808354040283529160200191611a2a565b820191906000526020600020905b815481529060010190602001808311611a0d57829003601f168201915b50505050508152602001600b8201548152602001600c82018054611a4d90612c64565b80601f0160208091040260200160405190810160405280929190818152602001828054611a7990612c64565b8015611ac65780601f10611a9b57610100808354040283529160200191611ac6565b820191906000526020600020905b815481529060010190602001808311611aa957829003601f168201915b5050509183525050600d8201546020820152600e808301546040830152600f8301546060830152601083015460809092019160ff1690811115611b0b57611b0b612b3c565b600e811115611b1c57611b1c612b3c565b81526020016010820160019054906101000a9004600160a060020a0316600160a060020a0316600160a060020a031681526020016011820160009054906101000a9004600160a060020a0316600160a060020a0316600160a060020a031681525050905080600001518160200151826101600151836101800151846101a0015185606001518661020001518760a001518861022001518961024001519a509a509a509a509a509a509a509a509a509a50509193959799509193959799565b611be33361163d565b611c025760405160e560020a62461bcd02815260040161022890612be2565b8060056000828152600a602052604090206010015460ff16600e811115611c2b57611c2b612b3c565b14611c4b5760405160e560020a62461bcd02815260040161022890612db6565b6000828152600a6020526040902060040154600160a060020a0316338114611c885760405160e560020a62461bcd02815260040161022890612db6565b6000838152600a6020908152604091829020601001805460ff1916600617905590518481527fc8ca2150e6e1849a10ef5aa4932060fa353bcacdffeb150c9e1890c6ab9403cc9101610b3b565b6000610d2d60078361243b565b611ceb33610d20565b611d0a5760405160e560020a62461bcd02815260040161022890612be2565b8060046000828152600a602052604090206010015460ff16600e811115611d3357611d33612b3c565b14611d535760405160e560020a62461bcd02815260040161022890612db6565b6000828152600a6020526040902060060154600160a060020a0316338114611d905760405160e560020a62461bcd02815260040161022890612db6565b6000838152600a6020908152604091829020601001805460ff1916600517905590518481527f25727bef8a186dd95a062151451f2d651551b53124c18208d7653b1217ae31ba9101610b3b565b611de63361163d565b611e055760405160e560020a62461bcd02815260040161022890612be2565b8060076000828152600a602052604090206010015460ff16600e811115611e2e57611e2e612b3c565b14611e4e5760405160e560020a62461bcd02815260040161022890612db6565b6000828152600a6020526040902060040154600160a060020a0316338114611e8b5760405160e560020a62461bcd02815260040161022890612db6565b6000838152600a6020908152604091829020601001805460ff1916600817905590518481527fe66bb55f536a4cc96647dde6ff37b712c07348eaa88366931f491d93c0fcd9819101610b3b565b611ee133611cd5565b611f005760405160e560020a62461bcd02815260040161022890612be2565b80600d6000828152600a602052604090206010015460ff16600e811115611f2957611f29612b3c565b14611f495760405160e560020a62461bcd02815260040161022890612db6565b6000828152600a60205260409020600d015434811115611f7e5760405160e560020a62461bcd02815260040161022890612db6565b6000838152600a60205260408120600d01548491339190611f9f8234612dc7565b604051909150600160a060020a0384169082156108fc029083906000818181858888f19350505050158015611fd8573d6000803e3d6000fd5b506000878152600a60205260408082206010810154600d909101549151610100909104600160a060020a031692839280156108fc02929091818181858888f1935050505015801561202d573d6000803e3d6000fd5b506000888152600a6020908152604091829020600481018054600160a060020a0319908116339081179092556011830180549091169091179055601001805460ff1916600e17905590518981527f0c85109675015c429df3af4a1e438d016348076df467785ceb1b626a201baf629101610d0e565b610d7033612654565b6120b433611653565b6120d35760405160e560020a62461bcd02815260040161022890612be2565b80600b6000828152600a602052604090206010015460ff16600e8111156120fc576120fc612b3c565b1461211c5760405160e560020a62461bcd02815260040161022890612db6565b6000828152600a6020526040902060040154600160a060020a03163381146121595760405160e560020a62461bcd02815260040161022890612db6565b6000838152600a6020908152604091829020601001805460ff1916600c17905590518481527ff7ba2a93720e090c60941eca67734ec14eb4a000a3712f0171ab912718821f6f9101610b3b565b6121af33610d20565b6121ce5760405160e560020a62461bcd02815260040161022890612be2565b8160026000828152600a602052604090206010015460ff16600e8111156121f7576121f7612b3c565b146122175760405160e560020a62461bcd02815260040161022890612db6565b6000838152600a6020526040902060040154600160a060020a03163381146122545760405160e560020a62461bcd02815260040161022890612db6565b6000848152600a602090815260409182902060108101805460ff19166003179055600d0185905590518581527faec623c8803eb3c795344cb3d2178da45139e85d984a1dc348cf9dc8bd7ff1609101610a36565b6122b133611cd5565b6122d05760405160e560020a62461bcd02815260040161022890612be2565b610d6481612696565b610d70336126d8565b600054600160a060020a0316331461230f5760405160e560020a62461bcd02815260040161022890612dda565b600160a060020a03811661237a5760405160e560020a62461bcd02815260206004820152602660248201527f4f776e61626c653a206e6577206f776e657220697320746865207a65726f2061604482015260d060020a65646472657373026064820152608401610228565b60008054604051600160a060020a0380851693921691600080516020612e3c83398151915291a360008054600160a060020a031916600160a060020a0392909216919091179055565b600160a060020a0381166123ec5760405160e560020a62461bcd02815260040161022890612db6565b6123f6828261243b565b156124165760405160e560020a62461bcd02815260040161022890612db6565b600160a060020a0316600090815260209190915260409020805460ff19166001179055565b6000600160a060020a0382166124665760405160e560020a62461bcd02815260040161022890612db6565b50600160a060020a03166000908152602091909152604090205460ff1690565b6124916003826123c3565b604051600160a060020a038216907fa9f13e94f3f7dbf69ac8405e3aa6f43a6f162984687d099c7a5cd9b602552cc290600090a250565b6124d360078261271a565b604051600160a060020a038216907f5e478ea50bfc31d2ddb8bd029e9d2304b9fde7e2041b22383845686d148da7ca90600090a250565b6125156006826123c3565b604051600160a060020a038216907ffb8f232b7a1d3d51060d32be9d6cf6808aa8f7dd043c8c20c4cfaf929ca9d48490600090a250565b6125576004826123c3565b604051600160a060020a038216907f561138658ca49a8540dc70dcfe64c9026c1c5b9344642242dd6562970f9c127890600090a250565b61259960058261271a565b604051600160a060020a038216907f126174f6cf49c81cdb4a9214c6b8f037bef55b4ec31e4fc776cea2a1c8a88d5990600090a250565b6125db6005826123c3565b604051600160a060020a038216907fddbf200aa634dc3fb81cfd68583dd1040d1c751d335e1d86b631bde3e977fea890600090a250565b61261d60038261271a565b604051600160a060020a038216907f278a641d7aa9abcb166cd13a30fc6d7f21034d4c003ce509a84214e11faa77c090600090a250565b61265f60048261271a565b604051600160a060020a038216907f2fed5abf6a80d6dfe30b4895481b2fc5d7dce5f8f7b931832f4a2947d5040c7f90600090a250565b6126a16007826123c3565b604051600160a060020a038216907fc3f6032baab071079d5ea3936ce1a6802e40430628436f75d2905378cb9f3a3690600090a250565b6126e360068261271a565b604051600160a060020a038216907f74317ab44bd96a4b18c5f1eee4104ecd55c3eb0a69795f59fb4b3ebe550a860090600090a250565b600160a060020a0381166127435760405160e560020a62461bcd02815260040161022890612db6565b61274d828261243b565b61276c5760405160e560020a62461bcd02815260040161022890612db6565b600160a060020a0316600090815260209190915260409020805460ff19169055565b604051806102600160405280600081526020016000815260200160008152602001600081526020016000600160a060020a031681526020016000600160a060020a031681526020016000600160a060020a031681526020016060815260200160608152602001606081526020016060815260200160008152602001606081526020016000815260200160008152602001600081526020016000600e81111561283857612838612b3c565b815260006020820181905260409091015290565b600160a060020a03929092168252602082015260400190565b60e060020a634e487b710260009081526041600452602490fd5b600082601f83011261289057600080fd5b81356001604060020a03808211156128aa576128aa612865565b604051601f8301601f19908116603f011681019082821181831017156128d2576128d2612865565b816040528381528660208588010111156128eb57600080fd5b836020870160208301376000602085830101528094505050505092915050565b600080600080600080600080610100898b03121561292857600080fd5b8835975060208901356001604060020a038082111561294657600080fd5b6129528c838d0161287f565b985060408b013591508082111561296857600080fd5b6129748c838d0161287f565b975060608b013591508082111561298a57600080fd5b6129968c838d0161287f565b965060808b01359150808211156129ac57600080fd5b6129b88c838d0161287f565b955060a08b01359150808211156129ce57600080fd5b506129db8b828c0161287f565b93505060c0890135915060e089013590509295985092959890939650565b60008060408385031215612a0c57600080fd5b50508035926020909101359150565b600060208284031215612a2d57600080fd5b5035919050565b600060208284031215612a4657600080fd5b8135600160a060020a0381168114612a5d57600080fd5b9392505050565b6000815180845260005b81811015612a8a57602081850181015186830182015201612a6e565b506000602082860101526020601f19601f83011685010191505092915050565b8a8152602081018a9052600160a060020a0389811660408301528816606082015261014060808201819052600090612ae48382018a612a64565b905082810360a0840152612af88189612a64565b905082810360c0840152612b0c8188612a64565b905082810360e0840152612b208187612a64565b6101008401959095525050610120015298975050505050505050565b60e060020a634e487b710260009081526021600452602490fd5b60006101408c83528b60208401528a6040840152806060840152612b7c8184018b612a64565b9150508760808301528660a0830152600f8610612bad5760e060020a634e487b710260009081526021600452602490fd5b60c0820195909552600160a060020a0393841660e0820152918316610100830152909116610120909101529695505050505050565b60208082526032908201527f596f75206e65656420746f20686176652074686520636f6e73756d657220726f6040820152607060020a716c6520746f20706572666f726d207468697302606082015260800190565b60e060020a634e487b710260009081526011600452602490fd5b80820180821115610d2d57610d2d612c37565b600281046001821680612c7857607f821691505b602082108103612c9c5760e060020a634e487b710260009081526022600452602490fd5b50919050565b601f821115612cec576000818152602081206020601f86010481016020861015612cc95750805b6020601f860104820191505b81811015612ce857828155600101612cd5565b5050505b505050565b81516001604060020a03811115612d0a57612d0a612865565b612d1e81612d188454612c64565b84612ca2565b602080601f831160018114612d575760008415612d3b5750858301515b60028086026008870290910a6000190419821617865550612ce8565b600085815260208120601f198616915b82811015612d8657888601518255948401946001909101908401612d67565b5085821015612da657878501516008601f88160260020a60001904191681555b5050505050600202600101905550565b602080825260009082015260400190565b81810381811115610d2d57610d2d612c37565b6020808252601790820152604960020a7630b1b1b2b9b9903232b734b2b2103337b91037bbb732b902604082015260600190565b6020808252601090820152608160020a6f3930ba32903634b6b4ba1032b93937b90260408201526060019056fe8be0079c531659141344cd1fd0a4f28419497f9722a3daafe3b4186f6b6457e0a26469706673582212204f8efdbd6916709950be729a4c3cdd5b66516841dea35fde48ef2bc9c0363bb064736f6c63430008120033",
  "immutableReferences": {},
  "source": "// SPDX-License-Identifier: CC-BY-4.0\r\npragma solidity >=0.4.22 <0.9.0;\r\n\r\nimport \"../common/Owned.sol\";\r\nimport \"../common/Version.sol\";\r\nimport \"./SupplierRole.sol\";\r\nimport \"./ManufacturerRole.sol\";\r\nimport \"./DistributorRole.sol\";\r\nimport \"./ResellerRole.sol\";\r\nimport \"./EndUserRole.sol\";\r\n\r\ncontract SupplyChain is Owned, SupplierRole, ManufacturerRole, DistributorRole, ResellerRole, EndUserRole {\r\n    // Define a variable called 'sku' for Stock Keeping Unit (SKU)\r\n    uint  sku;\r\n    uint  upc;\r\n\r\n    // Define a public mapping of the UPC to a Product.\r\n    mapping (uint => Product) products;\r\n\r\n    // Define a public mapping 'history' that maps the UPC to an array of TxHash,\r\n    // that track its journey through the supply chain -- to be sent from DApp.\r\n    //mapping (uint => Txblocks[]) history;\r\n\r\n    // Define enum 'State' with the following values:\r\n    enum State\r\n    {\r\n        OrderedFromSupplier,        // 0\r\n        ShippedBySupplier,          // 1\r\n        ProduceByManufacturer,      // 2\r\n        ForSaleByManufacturer,      // 3\r\n        PurchasedByDistributor,     // 4\r\n        ShippedByManufacturer,      // 5\r\n        ReceivedByDistributor,      // 6\r\n        ProcessedByDistributor,     // 7\r\n        PackageByDistributor,       // 8\r\n        ForSaleByDistributor,       // 9\r\n        PurchasedByReseller,        // 10\r\n        ShippedByDistributor,       // 11\r\n        ReceivedByReseller,         // 12\r\n        ForSaleByReseller,          // 13\r\n        PurchasedByEndUser          // 14\r\n    }\r\n\r\n\r\n    State constant defaultState = State.OrderedFromSupplier;\r\n\r\n    // Define a struct 'Product' with the following fields:\r\n    struct Product {\r\n        uint    sku;  // Stock Keeping Unit (SKU)\r\n        uint    upc; // Universal Product Code (UPC), generated by the Manufacturer, goes on the package, can be verified by the EndUser\r\n        uint    lot; // Lot number\r\n        uint    manufacturedDate; // The manufacturing date\r\n        address ownerID;  // Metamask-Ethereum address of the current owner as the product moves through 8 stages\r\n        address distributorID;\r\n        address payable originID; // Metamask-Ethereum address of the Manufacturer\r\n        string  originName; // Winemaker Name\r\n        string  originInformation;  // Winemaker Information\r\n        string  originLatitude; // Winemaker Latitude\r\n        string  originLongitude;  // Winemaker Longitude\r\n        uint    productID;  // Product ID potentially a combination of upc + sku\r\n        string  productNotes; // Product Notes\r\n        uint    productPrice; // Product Price\r\n        uint    productFinalPrice; // Final price pof the product when sales by the wine merchant\r\n        uint    productSliced;\r\n        State   productState;  // Product State as represented in the enum above\r\n        address payable resellerID;  // Metamask-Ethereum address of the Wine Merchant\r\n        address payable enduserID; // Metamask-Ethereum address of the EndUser\r\n    }\r\n\r\n    // Block number stuct\r\n    struct Txblocks {\r\n        uint STM; // blocksupplierToManufacturer\r\n        uint MTD; // blockmanufacturerToDistributor\r\n        uint DTR; // blockDistributorToReseller\r\n        uint RTC; // blockResellerToEnduser\r\n    }\r\n\r\n    event OrderedFromSupplier(uint upc);        //1\r\n    event ShippedBySupplier(uint upc);          //2\r\n    event ProduceByManufacturer(uint upc);      //2\r\n    event ForSaleByManufacturer(uint upc);      //3\r\n    event PurchasedByDistributor(uint upc);     //4\r\n    event ShippedByManufacturer(uint upc);      //5\r\n    event ReceivedByDistributor(uint upc);      //6\r\n    event ProcessedByDistributor(uint upc);     //7\r\n    event PackagedByDistributor(uint upc);      //8\r\n    event ForSaleByDistributor(uint upc);       //9\r\n    event PurchasedByReseller(uint upc);        //10\r\n    event ShippedByDistributor(uint upc);       //11\r\n    event ReceivedByReseller(uint upc);         //12\r\n    event ForSaleByReseller(uint upc);          //13\r\n    event PurchasedByEndUser(uint upc);         //14\r\n\r\n  // Define a modifer that verifies the Caller\r\n  modifier verifyCaller (address _address) {\r\n    require(msg.sender == _address, \"\");\r\n    _;\r\n  }\r\n\r\n  // Define a modifier that checks if the paid amount is sufficient to cover the price\r\n  modifier paidEnough(uint _price) {\r\n    require(msg.value >= _price, \"\");\r\n    _;\r\n  }\r\n\r\n  // Define a modifier that checks the price and refunds the remaining balance\r\n  modifier checkValue(uint _upc, address payable addressToFund) {\r\n    uint _price = products[_upc].productPrice;\r\n    uint  amountToReturn = msg.value - _price;\r\n    addressToFund.transfer(amountToReturn);\r\n    _;\r\n  }\r\n\r\n//Product State Modifiers\r\n  modifier producedByManufacturer(uint _upc) {\r\n    require(products[_upc].productState == State.ProduceByManufacturer, \"\");\r\n    _;\r\n  }\r\n\r\n  modifier forSaleByManufacturer(uint _upc) {\r\n    require(products[_upc].productState == State.ForSaleByManufacturer, \"\");\r\n    _;\r\n  }\r\n\r\n  modifier purchasedByDistributor(uint _upc) {\r\n    require(products[_upc].productState == State.PurchasedByDistributor, \"\");\r\n    _;\r\n  }\r\n\r\n  modifier shippedByManufacturer(uint _upc) {\r\n    require(products[_upc].productState == State.ShippedByManufacturer, \"\");\r\n    _;\r\n  }\r\n\r\n  modifier receivedByDistributor(uint _upc) {\r\n    require(products[_upc].productState == State.ReceivedByDistributor, \"\");\r\n    _;\r\n  }\r\n\r\n  modifier processByDistributor(uint _upc) {\r\n    require(products[_upc].productState == State.ProcessedByDistributor, \"\");\r\n    _;\r\n  }\r\n\r\n  modifier packagedByDistributor(uint _upc) {\r\n    require(products[_upc].productState == State.PackageByDistributor, \"\");\r\n    _;\r\n  }\r\n\r\n  modifier forSaleByDistributor(uint _upc) {\r\n    require(products[_upc].productState == State.ForSaleByDistributor, \"\");\r\n    _;\r\n  }\r\n\r\n\r\n  modifier shippedByDistributor(uint _upc) {\r\n    require(products[_upc].productState == State.ShippedByDistributor, \"\");\r\n    _;\r\n  }\r\n\r\n  modifier purchasedByReseller(uint _upc) {\r\n    require(products[_upc].productState == State.PurchasedByReseller, \"\");\r\n    _;\r\n  }\r\n\r\n  modifier receivedByReseller(uint _upc) {\r\n    require(products[_upc].productState == State.ReceivedByReseller, \"\");\r\n    _;\r\n  }\r\n\r\n  modifier forSaleByReseller(uint _upc) {\r\n    require(products[_upc].productState == State.ForSaleByReseller, \"\");\r\n    _;\r\n  }\r\n\r\n  modifier purchasedByEndUser(uint _upc) {\r\n    require(products[_upc].productState == State.PurchasedByEndUser, \"\");\r\n    _;\r\n  }\r\n\r\n  // constructor setup owner sku upc\r\n  constructor() payable {\r\n    sku = 1;\r\n    upc = 1;\r\n  }\r\n\r\n\r\n  // allows you to convert an address into a payable address\r\n  function _make_payable(address x) internal pure returns (address payable) {\r\n    return payable(x);\r\n  }\r\n\r\n/*\r\n 1st step in supplychain\r\n Allows manufacturer to create cheese\r\n*/\r\n  function produceProductByManufacturer(\r\n    uint _upc,\r\n    string memory _originName,\r\n    string memory _originInformation,\r\n    string memory _originLatitude,\r\n    string memory _originLongitude,\r\n    string memory _productNotes,\r\n    uint _price,\r\n    uint256 epoch)\r\n        public\r\n        payable\r\n        onlyManufacturer() // check address belongs to manufacturerRole\r\n    {\r\n\r\n    address distributorID; // Empty distributorID address\r\n    address resellerID; // Empty resellerID address\r\n    address enduserID; // Empty enduserID address\r\n    Product memory newProduce; // Create a new struct Product in memory\r\n    newProduce.sku = sku;  // Stock Keeping Unit (SKU)\r\n    newProduce.upc = _upc; // Universal Product Code (UPC), generated by the Manufacturer, goes on the package, can be verified by the EndUser\r\n    newProduce.ownerID = msg.sender;  // Metamask-Ethereum address of the current owner as the product moves through 8 stages\r\n    newProduce.originID = payable(msg.sender); // Metamask-Ethereum address of the Manufacturer\r\n    newProduce.originName = _originName;  // Manufacturer Name\r\n    newProduce.originInformation = _originInformation; // Manufacturer Information\r\n    newProduce.originLatitude = _originLatitude; // Farm Latitude\r\n    newProduce.originLongitude = _originLongitude;  // Farm Longitude\r\n    newProduce.productID = _upc+sku;  // Product ID\r\n    newProduce.productNotes = _productNotes; // Product Notes\r\n    newProduce.productPrice = _price;  // Product Price\r\n    newProduce.manufacturedDate = epoch;\r\n    newProduce.productSliced = 0;\r\n    newProduce.productState = defaultState; // Product State as represented in the enum above\r\n    newProduce.distributorID = distributorID; // Metamask-Ethereum address of the Distributor\r\n    newProduce.resellerID = payable(resellerID); // Metamask-Ethereum address of the Reseller\r\n    newProduce.enduserID = payable(enduserID); // Metamask-Ethereum address of the EndUser // ADDED payable\r\n    products[_upc] = newProduce; // Add newProduce to products struct by upc\r\n    //uint placeholder; // Block number place holder\r\n    //Txblocks memory txBlock; // create new txBlock struct\r\n    //txBlock.STM = placeholder;\r\n    //txBlock.MTD = placeholder; // assign placeholder values\r\n    //txBlock.DTR = placeholder;\r\n    //txBlock.RTC = placeholder;\r\n    //history[_upc] = txBlock; // add txBlock to history mapping by upc\r\n\r\n    // Increment sku\r\n    sku = sku + 1;\r\n\r\n    // Emit the appropriate event\r\n    emit ProduceByManufacturer(_upc);\r\n\r\n  }\r\n\r\n/*\r\n2nd step in supplychain\r\nAllows manufacturer to sell cheese\r\n*/\r\n  function sellProductByManufacturer(uint _upc, uint _price) public\r\n    onlyManufacturer() // check msg.sender belongs to manufacturerRole\r\n    producedByManufacturer(_upc) // check products state has been produced\r\n    verifyCaller(products[_upc].ownerID) // check msg.sender is owner\r\n    {\r\n      products[_upc].productState = State.ForSaleByManufacturer;\r\n      products[_upc].productPrice = _price;\r\n      emit ForSaleByManufacturer(_upc);\r\n  }\r\n\r\n/*\r\n3rd step in supplychain\r\nAllows distributor to purchase cheese\r\n*/\r\n  function purchaseProductByDistributor(uint _upc)\r\n    public\r\n    payable\r\n    onlyDistributor() // check msg.sender belongs to distributorRole\r\n    forSaleByManufacturer(_upc) // check products state is for ForSaleByManufacturer\r\n    paidEnough(products[_upc].productPrice) // check if distributor sent enough Ether for cheese\r\n    checkValue(_upc, payable(msg.sender)) // check if overpayed return remaing funds back to msg.sender\r\n    {\r\n    address payable ownerAddressPayable = _make_payable(products[_upc].originID); // make originFarmID payable\r\n    ownerAddressPayable.transfer(products[_upc].productPrice); // transfer funds from distributor to manufacturer\r\n    products[_upc].ownerID = msg.sender; // update owner\r\n    products[_upc].distributorID = msg.sender; // update distributor\r\n    products[_upc].productState = State.PurchasedByDistributor; // update state\r\n    //history[_upc].STM = block.number; // add block number\r\n    emit PurchasedByDistributor(_upc);\r\n\r\n  }\r\n\r\n  /*\r\n  4th step in supplychain\r\n  Allows manufacturer to ship cheese purchased by distributor\r\n  */\r\n  function shippedProductByManufacturer(uint _upc) public payable\r\n    onlyManufacturer() // check msg.sender belongs to ManufacturerRole\r\n    purchasedByDistributor(_upc)\r\n    verifyCaller(products[_upc].originID) // check msg.sender is originFarmID\r\n    {\r\n    products[_upc].productState = State.ShippedByManufacturer; // update state\r\n    emit ShippedByManufacturer(_upc);\r\n  }\r\n\r\n  /*\r\n  5th step in supplychain\r\n  Allows distributor to receive cheese\r\n  */\r\n  function receivedProductByDistributor(uint _upc) public\r\n    onlyDistributor() // check msg.sender belongs to DistributorRole\r\n    shippedByManufacturer(_upc)\r\n    verifyCaller(products[_upc].ownerID) // check msg.sender is owner\r\n    {\r\n    products[_upc].productState = State.ReceivedByDistributor; // update state\r\n    emit ReceivedByDistributor(_upc);\r\n  }\r\n\r\n  /*\r\n  6th step in supplychain\r\n  Allows distributor to process cheese\r\n  */\r\n  function processedProductByDistributor(uint _upc,uint slices) public\r\n    onlyDistributor() // check msg.sender belongs to DistributorRole\r\n    receivedByDistributor(_upc)\r\n    verifyCaller(products[_upc].ownerID) // check msg.sender is owner\r\n    {\r\n    products[_upc].productState = State.ProcessedByDistributor; // update state\r\n    products[_upc].productSliced = slices; // add slice amount\r\n    emit ProcessedByDistributor(_upc);\r\n  }\r\n\r\n  /*\r\n  7th step in supplychain\r\n  Allows distributor to package cheese\r\n  */\r\n  function packageProductByDistributor(uint _upc) public\r\n    onlyDistributor() // check msg.sender belongs to DistributorRole\r\n    processByDistributor(_upc)\r\n    verifyCaller(products[_upc].ownerID) // check msg.sender is owner\r\n    {\r\n    products[_upc].productState = State.PackageByDistributor;\r\n    emit PackagedByDistributor(_upc);\r\n  }\r\n\r\n  /*\r\n  8th step in supplychain\r\n  Allows distributor to sell cheese\r\n  */\r\n  function sellProductByDistributor(uint _upc, uint _price) public\r\n    onlyDistributor() // check msg.sender belongs to DistributorRole\r\n    packagedByDistributor(_upc)\r\n    verifyCaller(products[_upc].ownerID) // check msg.sender is owner\r\n    {\r\n        products[_upc].productState = State.ForSaleByDistributor;\r\n        products[_upc].productPrice = _price;\r\n        emit ForSaleByDistributor(_upc);\r\n  }\r\n\r\n  /*\r\n  9th step in supplychain\r\n  Allows reseller to purchase cheese\r\n  */\r\n  function purchaseProductByReseller(uint _upc) public payable\r\n    onlyReseller() // check msg.sender belongs to ResellerRole\r\n    forSaleByDistributor(_upc)\r\n    paidEnough(products[_upc].productPrice)\r\n    checkValue(_upc, payable(msg.sender))\r\n    {\r\n    address payable ownerAddressPayable = _make_payable(products[_upc].distributorID);\r\n    ownerAddressPayable.transfer(products[_upc].productPrice);\r\n    products[_upc].ownerID = msg.sender;\r\n    products[_upc].resellerID = payable(msg.sender);\r\n    products[_upc].productState = State.PurchasedByReseller;\r\n    //history[_upc].DTR = block.number;\r\n    emit PurchasedByReseller(_upc);\r\n  }\r\n\r\n  /*\r\n  10th step in supplychain\r\n  Allows Distributor to\r\n  */\r\n  function shippedProductByDistributor(uint _upc) public\r\n    onlyDistributor() // check msg.sender belongs to DistributorRole\r\n    purchasedByReseller(_upc)\r\n    verifyCaller(products[_upc].distributorID) // check msg.sender is distributorID\r\n    {\r\n      products[_upc].productState = State.ShippedByDistributor;\r\n      emit ShippedByDistributor(_upc);\r\n  }\r\n\r\n  /*\r\n  11th step in supplychain\r\n  */\r\n  function receivedProductByReseller(uint _upc) public\r\n    onlyReseller() // check msg.sender belongs to ResellerRole\r\n    shippedByDistributor(_upc)\r\n    verifyCaller(products[_upc].ownerID) // check msg.sender is ownerID\r\n    {\r\n      products[_upc].productState = State.ReceivedByReseller;\r\n      emit ReceivedByReseller(_upc);\r\n  }\r\n\r\n  /*\r\n  12th step in supplychain\r\n  */\r\n  function sellProductByReseller(uint _upc, uint _price) public\r\n    onlyReseller()  // check msg.sender belongs to ResellerRole\r\n    receivedByReseller(_upc)\r\n    verifyCaller(products[_upc].ownerID) // check msg.sender is ownerID\r\n    {\r\n      products[_upc].productState = State.ForSaleByReseller;\r\n      products[_upc].productPrice = _price;\r\n      emit ForSaleByReseller(_upc);\r\n  }\r\n\r\n  /*\r\n  13th step in supplychain\r\n  */\r\n  function purchaseProductByEndUser(uint _upc) public payable\r\n    onlyEndUser()  // check msg.sender belongs to EndUserRole\r\n    forSaleByReseller(_upc)\r\n    paidEnough(products[_upc].productPrice)\r\n    checkValue(_upc, payable(msg.sender))\r\n    {\r\n      address payable ownerAddressPayable = _make_payable(products[_upc].resellerID);\r\n      ownerAddressPayable.transfer(products[_upc].productPrice);\r\n      products[_upc].ownerID = msg.sender;\r\n      products[_upc].enduserID = payable(msg.sender);\r\n      products[_upc].productState = State.PurchasedByEndUser;\r\n      //history[_upc].RTC = block.number;\r\n    emit PurchasedByEndUser(_upc);\r\n  }\r\n\r\n  // Define a function 'fetchProductBufferOne' that fetches the data\r\n  function fetchProductBufferOne(uint _upc) public view returns\r\n    (\r\n    uint    itemSKU,\r\n    uint    itemUPC,\r\n    address ownerID,\r\n    address originManufacturerID,\r\n    string memory  originName,\r\n    string memory originInformation,\r\n    string memory originLatitude,\r\n    string memory originLongitude,\r\n    uint manufacturedDate,\r\n    uint productSliced\r\n    )\r\n    {\r\n    // Assign values to the 8 parameters\r\n    Product memory item = products[_upc];\r\n\r\n    return\r\n    (\r\n      item.sku,\r\n      item.upc,\r\n      item.ownerID,\r\n      item.originID,\r\n      item.originName,\r\n      item.originInformation,\r\n      item.originLatitude,\r\n      item.originLongitude,\r\n      item.manufacturedDate,\r\n      item.productSliced\r\n    );\r\n  }\r\n\r\n  // Define a function 'fetchProductBufferTwo' that fetches the data\r\n  function fetchProductBufferTwo(uint _upc) public view returns\r\n    (\r\n    uint    itemSKU,\r\n    uint    itemUPC,\r\n    uint    productID,\r\n    string  memory productNotes,\r\n    uint    productPrice,\r\n    uint256 manufacturedDate,\r\n    State   itemState,\r\n    address distributorID,\r\n    address resellerID,\r\n    address enduserID\r\n    )\r\n    {\r\n      // Assign values to the 9 parameters\r\n    Product memory item = products[_upc];\r\n\r\n    return\r\n    (\r\n      item.sku,\r\n      item.upc,\r\n      item.productID,\r\n      item.productNotes,\r\n      item.productPrice,\r\n      item.manufacturedDate,\r\n      item.productState,\r\n      item.distributorID,\r\n      item.resellerID,\r\n      item.enduserID\r\n    );\r\n\r\n  }\r\n\r\n  // Define a function 'fetchProductHistory' that fetaches the data\r\n  function fetchitemHistory(uint _upc) public view returns\r\n    (\r\n        uint blocksupplierToManufacturer,\r\n        uint blockmanufacturerToDistributor,\r\n        uint blockDistributorToReseller,\r\n        uint blockResellerToEndUser\r\n    )\r\n    {\r\n      // Assign value to the parameters\r\n      //Txblocks memory txblock = history[_upc];\r\n      //return\r\n      //(\r\n      //  txblock.STM,\r\n      //  txblock.MTD,\r\n      //  txblock.DTR,\r\n      //  txblock.RTC\r\n      //);\r\n\r\n    }\r\n\r\n}",
  "sourcePath": "/Volumes/My Book/projects/pingleware-contracts/contracts/scm/SupplyChain.sol",
  "compiler": {
    "name": "solc",
    "version": "0.8.18+commit.87f61d96.Emscripten.clang"
  },
  "schemaVersion": "3.4.12",
  "updatedAt": "2023-10-22T04:04:52.661Z",
  "devdoc": {
    "kind": "dev",
    "methods": {
      "renounceOwnership()": {
        "details": "Leaves the contract without owner. It will not be possible to call `onlyOwner` functions anymore. Can only be called by the current owner. NOTE: Renouncing ownership will leave the contract without an owner, thereby removing any functionality that is only available to the owner."
      },
      "transferOwnership(address)": {
        "details": "Transfers ownership of the contract to a new account (`newOwner`). Can only be called by the current owner."
      }
    },
    "version": 1
  },
  "userdoc": {
    "kind": "user",
    "methods": {},
    "version": 1
  }
}