{
  "contractName": "SupplierRole",
  "abi": [
    {
      "inputs": [],
      "stateMutability": "nonpayable",
      "type": "constructor"
    },
    {
      "anonymous": false,
      "inputs": [
        {
          "indexed": true,
          "internalType": "address",
          "name": "account",
          "type": "address"
        }
      ],
      "name": "SupplierAdded",
      "type": "event"
    },
    {
      "anonymous": false,
      "inputs": [
        {
          "indexed": true,
          "internalType": "address",
          "name": "account",
          "type": "address"
        }
      ],
      "name": "SupplierRemoved",
      "type": "event"
    },
    {
      "inputs": [
        {
          "internalType": "address",
          "name": "account",
          "type": "address"
        }
      ],
      "name": "isSupplier",
      "outputs": [
        {
          "internalType": "bool",
          "name": "",
          "type": "bool"
        }
      ],
      "stateMutability": "view",
      "type": "function"
    },
    {
      "inputs": [
        {
          "internalType": "address",
          "name": "account",
          "type": "address"
        }
      ],
      "name": "addSupplier",
      "outputs": [],
      "stateMutability": "nonpayable",
      "type": "function"
    },
    {
      "inputs": [],
      "name": "renounceSupplier",
      "outputs": [],
      "stateMutability": "nonpayable",
      "type": "function"
    }
  ],
  "bytecode": "0x6080604052346100825761001d33151561001881610087565b610087565b60003381528060205261003760ff60408320541615610087565b3381528060205260408120600160ff19825416179055604051907fa9f13e94f3f7dbf69ac8405e3aa6f43a6f162984687d099c7a5cd9b602552cc2339180a261027890816100c78239f35b600080fd5b1561008e57565b60446040517f08c379a00000000000000000000000000000000000000000000000000000000081526020600482015260006024820152fdfe604060808152600436101561001357600080fd5b60009060e060020a8235046317df474581146100ea57806346336542146100ac5763920248881461004357600080fd5b346100a857816003193601126100a85761005e3315156101f1565b61006f61006a3361021a565b6101f1565b33825281602052812060ff198154169055337f278a641d7aa9abcb166cd13a30fc6d7f21034d4c003ce509a84214e11faa77c08280a280f35b5080fd5b50346100a85760203660031901126100a85760043591600160a060020a03831683036100e757506100de60209261021a565b90519015158152f35b80fd5b50346100a85760203660031901126100a857600435600160a060020a03811691908281036101ed5761011d3315156101f1565b3384528360205260ff8285205416156101885761014761014d916101428515156101f1565b61021a565b156101f1565b818352826020528220600160ff198254161790557fa9f13e94f3f7dbf69ac8405e3aa6f43a6f162984687d099c7a5cd9b602552cc28280a280f35b815160e560020a62461bcd02815260206004820152603260248201527f596f75206e65656420746f20686176652074686520636f6e73756d657220726f6044820152607060020a716c6520746f20706572666f726d2074686973026064820152608490fd5b8380fd5b156101f857565b60405160e560020a62461bcd0281526020600482015260006024820152604490fd5b600160a060020a031661022e8115156101f1565b600052600060205260ff604060002054169056fea2646970667358221220e97a3a6269a09fef8ad13712ab27b17b69e751d111000f06257a0b1acb8530a364736f6c63430008120033",
  "immutableReferences": {},
  "source": "// SPDX-License-Identifier: CC-BY-4.0\r\npragma solidity >=0.4.22 <0.9.0;\r\n\r\n\r\n// Import the library 'Roles'\r\nimport \"./Roles.sol\";\r\n\r\n// Define a contract 'SupplierRole' to manage this role - add, remove, check\r\ncontract SupplierRole {\r\n  using Roles for Roles.Role;\r\n\r\n  // Define 2 events, one for Adding, and other for Removing\r\n  event SupplierAdded(address indexed account);\r\n  event SupplierRemoved(address indexed account);\r\n\r\n  // Define a struct 'suppliers' by inheriting from 'Roles' library, struct Role\r\n  Roles.Role private suppliers;\r\n\r\n  // In the constructor make the address that deploys this contract the 1st consumer\r\n  constructor() {\r\n      _addSupplier(msg.sender);\r\n  }\r\n\r\n  // Define a modifier that checks to see if msg.sender has the appropriate role\r\n  modifier onlySupplier() {\r\n    require(isSupplier(msg.sender), \"You need to have the consumer role to perform this\");\r\n    _;\r\n  }\r\n\r\n  // Define a function 'isSupplier' to check this role\r\n  function isSupplier(address account) public view returns (bool) {\r\n    return suppliers.has(account);\r\n  }\r\n\r\n  // Define a function 'addSupplier' that adds this role\r\n  function addSupplier(address account) public onlySupplier {\r\n    _addSupplier(account);\r\n  }\r\n\r\n  // Define a function 'renounceSupplier' to renounce this role\r\n  function renounceSupplier() public {\r\n    _removeSupplier(msg.sender);\r\n  }\r\n\r\n  // Define an internal function '_addSupplier' to add this role, called by 'addSupplier'\r\n  function _addSupplier(address account) internal {\r\n    suppliers.add(account);\r\n    emit SupplierAdded(account);\r\n  }\r\n\r\n  // Define an internal function '_removeSupplier' to remove this role, called by 'removeSupplier'\r\n  function _removeSupplier(address account) internal {\r\n    suppliers.remove(account);\r\n    emit SupplierRemoved(account);\r\n  }\r\n}",
  "sourcePath": "/Volumes/HOME/pingleware-contracts/contracts/scm/SupplierRole.sol",
  "compiler": {
    "name": "solc",
    "version": "0.8.18+commit.87f61d96.Emscripten.clang"
  },
  "schemaVersion": "3.4.12",
  "updatedAt": "2024-05-23T18:56:27.189Z",
  "devdoc": {
    "kind": "dev",
    "methods": {},
    "version": 1
  },
  "userdoc": {
    "kind": "user",
    "methods": {},
    "version": 1
  }
}