{
  "contractName": "SupplierRole",
  "abi": [
    {
      "inputs": [],
      "stateMutability": "nonpayable",
      "type": "constructor"
    },
    {
      "anonymous": false,
      "inputs": [
        {
          "indexed": true,
          "internalType": "address",
          "name": "account",
          "type": "address"
        }
      ],
      "name": "SupplierAdded",
      "type": "event"
    },
    {
      "anonymous": false,
      "inputs": [
        {
          "indexed": true,
          "internalType": "address",
          "name": "account",
          "type": "address"
        }
      ],
      "name": "SupplierRemoved",
      "type": "event"
    },
    {
      "inputs": [
        {
          "internalType": "address",
          "name": "account",
          "type": "address"
        }
      ],
      "name": "isSupplier",
      "outputs": [
        {
          "internalType": "bool",
          "name": "",
          "type": "bool"
        }
      ],
      "stateMutability": "view",
      "type": "function"
    },
    {
      "inputs": [
        {
          "internalType": "address",
          "name": "account",
          "type": "address"
        }
      ],
      "name": "addSupplier",
      "outputs": [],
      "stateMutability": "nonpayable",
      "type": "function"
    },
    {
      "inputs": [],
      "name": "renounceSupplier",
      "outputs": [],
      "stateMutability": "nonpayable",
      "type": "function"
    }
  ],
  "bytecode": "0x608060405234801561001057600080fd5b5061002333640100000000610028810204565b6101a2565b61004060008264010000000061013161007782021704565b604051600160a060020a038216907fa9f13e94f3f7dbf69ac8405e3aa6f43a6f162984687d099c7a5cd9b602552cc290600090a250565b600160a060020a0381166100c0576040517f08c379a00000000000000000000000000000000000000000000000000000000081526004016100b790610191565b60405180910390fd5b6100d3828264010000000061012f810204565b1561010a576040517f08c379a00000000000000000000000000000000000000000000000000000000081526004016100b790610191565b600160a060020a0316600090815260209190915260409020805460ff19166001179055565b6000600160a060020a038216610171576040517f08c379a00000000000000000000000000000000000000000000000000000000081526004016100b790610191565b50600160a060020a03166000908152602091909152604090205460ff1690565b602080825260009082015260400190565b610363806101b16000396000f3fe608060405234801561001057600080fd5b50600436106100445760e060020a600035046317df47458114610049578063463365421461005e5780639202488814610085575b600080fd5b61005c6100573660046102ec565b61008d565b005b61007161006c3660046102ec565b610114565b604051901515815260200160405180910390f35b61005c610126565b61009633610114565b6101085760405160e560020a62461bcd02815260206004820152603260248201527f596f75206e65656420746f20686176652074686520636f6e73756d657220726f6044820152607060020a716c6520746f20706572666f726d20746869730260648201526084015b60405180910390fd5b610111816101a9565b50565b600061012081836101eb565b92915050565b61012f33610236565b565b600160a060020a03811661015a5760405160e560020a62461bcd0281526004016100ff9061031c565b61016482826101eb565b156101845760405160e560020a62461bcd0281526004016100ff9061031c565b600160a060020a0316600090815260209190915260409020805460ff19166001179055565b6101b4600082610131565b604051600160a060020a038216907fa9f13e94f3f7dbf69ac8405e3aa6f43a6f162984687d099c7a5cd9b602552cc290600090a250565b6000600160a060020a0382166102165760405160e560020a62461bcd0281526004016100ff9061031c565b50600160a060020a03166000908152602091909152604090205460ff1690565b610241600082610278565b604051600160a060020a038216907f278a641d7aa9abcb166cd13a30fc6d7f21034d4c003ce509a84214e11faa77c090600090a250565b600160a060020a0381166102a15760405160e560020a62461bcd0281526004016100ff9061031c565b6102ab82826101eb565b6102ca5760405160e560020a62461bcd0281526004016100ff9061031c565b600160a060020a0316600090815260209190915260409020805460ff19169055565b6000602082840312156102fe57600080fd5b8135600160a060020a038116811461031557600080fd5b9392505050565b60208082526000908201526040019056fea264697066735822122007ad91049738b00eea4920bad562543eb723bfec1b867ea2153b9dbaba04990864736f6c63430008120033",
  "immutableReferences": {},
  "source": "// SPDX-License-Identifier: CC-BY-4.0\r\npragma solidity >=0.4.22 <0.9.0;\r\n\r\n\r\n// Import the library 'Roles'\r\nimport \"./Roles.sol\";\r\n\r\n// Define a contract 'SupplierRole' to manage this role - add, remove, check\r\ncontract SupplierRole {\r\n  using Roles for Roles.Role;\r\n\r\n  // Define 2 events, one for Adding, and other for Removing\r\n  event SupplierAdded(address indexed account);\r\n  event SupplierRemoved(address indexed account);\r\n\r\n  // Define a struct 'suppliers' by inheriting from 'Roles' library, struct Role\r\n  Roles.Role private suppliers;\r\n\r\n  // In the constructor make the address that deploys this contract the 1st consumer\r\n  constructor() {\r\n      _addSupplier(msg.sender);\r\n  }\r\n\r\n  // Define a modifier that checks to see if msg.sender has the appropriate role\r\n  modifier onlySupplier() {\r\n    require(isSupplier(msg.sender), \"You need to have the consumer role to perform this\");\r\n    _;\r\n  }\r\n\r\n  // Define a function 'isSupplier' to check this role\r\n  function isSupplier(address account) public view returns (bool) {\r\n    return suppliers.has(account);\r\n  }\r\n\r\n  // Define a function 'addSupplier' that adds this role\r\n  function addSupplier(address account) public onlySupplier {\r\n    _addSupplier(account);\r\n  }\r\n\r\n  // Define a function 'renounceSupplier' to renounce this role\r\n  function renounceSupplier() public {\r\n    _removeSupplier(msg.sender);\r\n  }\r\n\r\n  // Define an internal function '_addSupplier' to add this role, called by 'addSupplier'\r\n  function _addSupplier(address account) internal {\r\n    suppliers.add(account);\r\n    emit SupplierAdded(account);\r\n  }\r\n\r\n  // Define an internal function '_removeSupplier' to remove this role, called by 'removeSupplier'\r\n  function _removeSupplier(address account) internal {\r\n    suppliers.remove(account);\r\n    emit SupplierRemoved(account);\r\n  }\r\n}",
  "sourcePath": "/Volumes/My Book/projects/pingleware-contracts/contracts/scm/SupplierRole.sol",
  "compiler": {
    "name": "solc",
    "version": "0.8.18+commit.87f61d96.Emscripten.clang"
  },
  "schemaVersion": "3.4.12",
  "updatedAt": "2023-10-22T04:04:52.655Z",
  "devdoc": {
    "kind": "dev",
    "methods": {},
    "version": 1
  },
  "userdoc": {
    "kind": "user",
    "methods": {},
    "version": 1
  }
}