{
  "contractName": "Swap",
  "abi": [
    {
      "anonymous": false,
      "inputs": [
        {
          "indexed": false,
          "internalType": "address",
          "name": "sender",
          "type": "address"
        },
        {
          "indexed": false,
          "internalType": "address",
          "name": "recipient",
          "type": "address"
        }
      ],
      "name": "Destroyed",
      "type": "event"
    },
    {
      "anonymous": false,
      "inputs": [
        {
          "indexed": false,
          "internalType": "address",
          "name": "sender",
          "type": "address"
        },
        {
          "indexed": false,
          "internalType": "uint256",
          "name": "amount",
          "type": "uint256"
        }
      ],
      "name": "FallbackEvent",
      "type": "event"
    },
    {
      "anonymous": false,
      "inputs": [
        {
          "indexed": true,
          "internalType": "address",
          "name": "previousOwner",
          "type": "address"
        },
        {
          "indexed": true,
          "internalType": "address",
          "name": "newOwner",
          "type": "address"
        }
      ],
      "name": "OwnershipTransferred",
      "type": "event"
    },
    {
      "anonymous": false,
      "inputs": [
        {
          "indexed": false,
          "internalType": "address",
          "name": "sender",
          "type": "address"
        },
        {
          "indexed": false,
          "internalType": "uint256",
          "name": "amount",
          "type": "uint256"
        }
      ],
      "name": "ReceiveEvent",
      "type": "event"
    },
    {
      "anonymous": false,
      "inputs": [
        {
          "indexed": false,
          "internalType": "address",
          "name": "sender",
          "type": "address"
        },
        {
          "indexed": false,
          "internalType": "bytes",
          "name": "reason",
          "type": "bytes"
        }
      ],
      "name": "Started",
      "type": "event"
    },
    {
      "anonymous": false,
      "inputs": [
        {
          "indexed": false,
          "internalType": "address",
          "name": "sender",
          "type": "address"
        },
        {
          "indexed": false,
          "internalType": "bytes",
          "name": "reason",
          "type": "bytes"
        }
      ],
      "name": "Stopped",
      "type": "event"
    },
    {
      "anonymous": false,
      "inputs": [
        {
          "indexed": false,
          "internalType": "address",
          "name": "sender",
          "type": "address"
        },
        {
          "indexed": false,
          "internalType": "string",
          "name": "reason",
          "type": "string"
        }
      ],
      "name": "Termination",
      "type": "event"
    },
    {
      "stateMutability": "payable",
      "type": "fallback"
    },
    {
      "inputs": [],
      "name": "VERSION",
      "outputs": [
        {
          "internalType": "string",
          "name": "",
          "type": "string"
        }
      ],
      "stateMutability": "view",
      "type": "function"
    },
    {
      "inputs": [],
      "name": "WAIT",
      "outputs": [
        {
          "internalType": "uint256",
          "name": "",
          "type": "uint256"
        }
      ],
      "stateMutability": "view",
      "type": "function"
    },
    {
      "inputs": [],
      "name": "destroy",
      "outputs": [],
      "stateMutability": "nonpayable",
      "type": "function"
    },
    {
      "inputs": [
        {
          "internalType": "address",
          "name": "_recipient",
          "type": "address"
        }
      ],
      "name": "destroyAndSend",
      "outputs": [],
      "stateMutability": "nonpayable",
      "type": "function"
    },
    {
      "inputs": [],
      "name": "getOwner",
      "outputs": [
        {
          "internalType": "address",
          "name": "",
          "type": "address"
        }
      ],
      "stateMutability": "payable",
      "type": "function"
    },
    {
      "inputs": [],
      "name": "renounceOwnership",
      "outputs": [],
      "stateMutability": "payable",
      "type": "function"
    },
    {
      "inputs": [
        {
          "internalType": "address",
          "name": "newOwner",
          "type": "address"
        }
      ],
      "name": "transferOwnership",
      "outputs": [],
      "stateMutability": "payable",
      "type": "function"
    },
    {
      "stateMutability": "payable",
      "type": "receive"
    }
  ],
  "bytecode": "0x6080806040523461005d5760008054600160a060020a03191633908117825542600155907f8be0079c531659141344cd1fd0a4f28419497f9722a3daafe3b4186f6b6457e08180a360ff19600354166003556105a290816100638239f35b600080fdfe6040608081526004803610156100c4575b361561009557333203610051577f26875833861a2b006512a11f1b86edf95df96131040f3caeed72989ee985808382518061004c3433836104c5565b0390a1005b6020606492519160e560020a62461bcd02835282015260196024820152603860020a787068697368696e672061747461636b2064657465637465643f026044820152fd5b7fcc85d09d309785db93d6df19917f2e6cc07fe27cd01c08c8279145deb5cf452682518061004c3433836104c5565b600060e060020a81350463715018a6811461038057806383197ef014610332578063893d20e814610309578063b8fb3a51146102e9578063f2fde38b14610227578063f5074f41146101ca5763ffa1ad74146101205750610010565b9190346101c657826003193601126101c657815190818301906001604060020a038211838310176101b057508252600a815260209060b060020a69312e362e342d62657461028282015282519382859384528251928382860152825b84811061019a57505050828201840152601f01601f19168101030190f35b818101830151888201880152879550820161017c565b60e060020a634e487b7102855260419052602484fd5b8280fd5b509190346101c65760203660031901126101c657600160a060020a03903581811681036102235760008051602061052d8339815191529261021261021d9386541633146103c8565b519182913383610417565b0390a180f35b8380fd5b50919060203660031901126101c657600160a060020a038135818116939192908490036102e55784549283169161025f8333146104e0565b841561028b575050829060008051602061054d8339815191528580a3600160a060020a03191617815580f35b5160e560020a62461bcd028152602091810191909152602660248201527f4f776e61626c653a206e6577206f776e657220697320746865207a65726f2061604482015260d060020a65646472657373026064820152608490fd5b8480fd5b50823461030557816003193601126103055760209051601e8152f35b5080fd5b50828160031936011261030557602090610321610476565b9051600160a060020a039091168152f35b50823461030557816003193601126103055761021d60008051602061052d8339815191529161036c600160a060020a0385541633146103c8565b610374610476565b90519182913383610417565b50806003193601126103c557805481600160a060020a0382166103a43382146104e0565b60008051602061054d8339815191528280a3600160a060020a031916815580f35b80fd5b156103cf57565b60405160e560020a62461bcd02815260206004820152601b60248201527f756e617574686f72697a65642c206e6f7420746865206f776e657200000000006044820152606490fd5b600160a060020a0391821681529116602082015260400190565b1561043857565b60405160e560020a62461bcd0281526020600482015260106024820152608160020a6f3930ba32903634b6b4ba1032b93937b9026044820152606490fd5b600154601e81018091116104ab5761049890421161049381610431565b610431565b42600155600054600160a060020a031690565b60e060020a634e487b710260009081526011600452602490fd5b600160a060020a039091168152602081019190915260400190565b156104e757565b60405160e560020a62461bcd0281526020600482015260176024820152604960020a7630b1b1b2b9b9903232b734b2b2103337b91037bbb732b9026044820152606490fdfe91ca00fdf29069527d658f8dfc6d1c0bf9861780bb45ff36436f938d3595a8d68be0079c531659141344cd1fd0a4f28419497f9722a3daafe3b4186f6b6457e0a2646970667358221220de37b5765684f771cb45e3b33328c3c64c24224a7c1ce05788ec27428c30592564736f6c63430008120033",
  "immutableReferences": {},
  "source": "// SPDX-License-Identifier: CC-BY-4.0\r\npragma solidity >=0.4.22 <0.9.0;\r\n\r\n/**\r\n * A foreign exchange swap or currency swap is a contract under which two parties agree to exchange two currencies at a set rate and then to re-exchange those currencies\r\n * at an agreed upon rate at a fixed date in the future.\r\n *\r\n *\r\n * https://github.com/alanwhite1203/fxSwap\r\n */\r\nimport \"../../common/Version.sol\";\r\nimport \"../../common/Frozen.sol\";\r\n\r\n\r\ncontract Swap is Version, Frozen {\r\n\r\n}",
  "sourcePath": "/Volumes/HOME/pingleware-contracts/contracts/finance/currency/Swap.sol",
  "compiler": {
    "name": "solc",
    "version": "0.8.18+commit.87f61d96.Emscripten.clang"
  },
  "schemaVersion": "3.4.12",
  "updatedAt": "2024-05-23T18:56:25.544Z",
  "devdoc": {
    "kind": "dev",
    "methods": {
      "renounceOwnership()": {
        "details": "Leaves the contract without owner. It will not be possible to call `onlyOwner` functions anymore. Can only be called by the current owner. NOTE: Renouncing ownership will leave the contract without an owner, thereby removing any functionality that is only available to the owner."
      },
      "transferOwnership(address)": {
        "details": "Transfers ownership of the contract to a new account (`newOwner`). Can only be called by the current owner."
      }
    },
    "version": 1
  },
  "userdoc": {
    "kind": "user",
    "methods": {},
    "version": 1
  }
}