{
  "contractName": "TaxExemptBond",
  "abi": [
    {
      "inputs": [
        {
          "internalType": "string",
          "name": "_issuerName",
          "type": "string"
        },
        {
          "internalType": "address",
          "name": "_issuerAddress",
          "type": "address"
        },
        {
          "internalType": "uint256",
          "name": "_principalAmount",
          "type": "uint256"
        },
        {
          "internalType": "uint256",
          "name": "_couponRate",
          "type": "uint256"
        },
        {
          "internalType": "uint256",
          "name": "_maturityDate",
          "type": "uint256"
        },
        {
          "internalType": "uint256",
          "name": "_issuanceDate",
          "type": "uint256"
        },
        {
          "internalType": "address",
          "name": "_bondHolder",
          "type": "address"
        }
      ],
      "stateMutability": "nonpayable",
      "type": "constructor"
    },
    {
      "anonymous": false,
      "inputs": [
        {
          "indexed": false,
          "internalType": "string",
          "name": "issuerName",
          "type": "string"
        },
        {
          "indexed": false,
          "internalType": "address",
          "name": "issuerAddress",
          "type": "address"
        },
        {
          "indexed": false,
          "internalType": "uint256",
          "name": "principalAmount",
          "type": "uint256"
        },
        {
          "indexed": false,
          "internalType": "uint256",
          "name": "couponRate",
          "type": "uint256"
        },
        {
          "indexed": false,
          "internalType": "uint256",
          "name": "maturityDate",
          "type": "uint256"
        },
        {
          "indexed": false,
          "internalType": "uint256",
          "name": "issuanceDate",
          "type": "uint256"
        },
        {
          "indexed": false,
          "internalType": "address",
          "name": "bondHolder",
          "type": "address"
        }
      ],
      "name": "BondIssued",
      "type": "event"
    },
    {
      "anonymous": false,
      "inputs": [
        {
          "indexed": false,
          "internalType": "address",
          "name": "bondHolder",
          "type": "address"
        },
        {
          "indexed": false,
          "internalType": "uint256",
          "name": "redemptionDate",
          "type": "uint256"
        }
      ],
      "name": "BondRedeemed",
      "type": "event"
    },
    {
      "anonymous": false,
      "inputs": [
        {
          "indexed": false,
          "internalType": "address",
          "name": "sender",
          "type": "address"
        },
        {
          "indexed": false,
          "internalType": "address",
          "name": "recipient",
          "type": "address"
        }
      ],
      "name": "Destroyed",
      "type": "event"
    },
    {
      "anonymous": false,
      "inputs": [
        {
          "indexed": false,
          "internalType": "address",
          "name": "sender",
          "type": "address"
        },
        {
          "indexed": false,
          "internalType": "uint256",
          "name": "amount",
          "type": "uint256"
        }
      ],
      "name": "FallbackEvent",
      "type": "event"
    },
    {
      "anonymous": false,
      "inputs": [
        {
          "indexed": true,
          "internalType": "address",
          "name": "previousOwner",
          "type": "address"
        },
        {
          "indexed": true,
          "internalType": "address",
          "name": "newOwner",
          "type": "address"
        }
      ],
      "name": "OwnershipTransferred",
      "type": "event"
    },
    {
      "anonymous": false,
      "inputs": [
        {
          "indexed": false,
          "internalType": "address",
          "name": "sender",
          "type": "address"
        },
        {
          "indexed": false,
          "internalType": "uint256",
          "name": "amount",
          "type": "uint256"
        }
      ],
      "name": "ReceiveEvent",
      "type": "event"
    },
    {
      "anonymous": false,
      "inputs": [
        {
          "indexed": false,
          "internalType": "address",
          "name": "sender",
          "type": "address"
        },
        {
          "indexed": false,
          "internalType": "bytes",
          "name": "reason",
          "type": "bytes"
        }
      ],
      "name": "Started",
      "type": "event"
    },
    {
      "anonymous": false,
      "inputs": [
        {
          "indexed": false,
          "internalType": "address",
          "name": "sender",
          "type": "address"
        },
        {
          "indexed": false,
          "internalType": "bytes",
          "name": "reason",
          "type": "bytes"
        }
      ],
      "name": "Stopped",
      "type": "event"
    },
    {
      "anonymous": false,
      "inputs": [
        {
          "indexed": false,
          "internalType": "address",
          "name": "sender",
          "type": "address"
        },
        {
          "indexed": false,
          "internalType": "string",
          "name": "reason",
          "type": "string"
        }
      ],
      "name": "Termination",
      "type": "event"
    },
    {
      "stateMutability": "payable",
      "type": "fallback",
      "payable": true
    },
    {
      "inputs": [],
      "name": "VERSION",
      "outputs": [
        {
          "internalType": "string",
          "name": "",
          "type": "string"
        }
      ],
      "stateMutability": "view",
      "type": "function",
      "constant": true
    },
    {
      "inputs": [],
      "name": "WAIT",
      "outputs": [
        {
          "internalType": "uint256",
          "name": "",
          "type": "uint256"
        }
      ],
      "stateMutability": "view",
      "type": "function",
      "constant": true
    },
    {
      "inputs": [],
      "name": "bondHolder",
      "outputs": [
        {
          "internalType": "address",
          "name": "",
          "type": "address"
        }
      ],
      "stateMutability": "view",
      "type": "function",
      "constant": true
    },
    {
      "inputs": [],
      "name": "couponRate",
      "outputs": [
        {
          "internalType": "uint256",
          "name": "",
          "type": "uint256"
        }
      ],
      "stateMutability": "view",
      "type": "function",
      "constant": true
    },
    {
      "inputs": [],
      "name": "destroy",
      "outputs": [],
      "stateMutability": "nonpayable",
      "type": "function"
    },
    {
      "inputs": [
        {
          "internalType": "address",
          "name": "_recipient",
          "type": "address"
        }
      ],
      "name": "destroyAndSend",
      "outputs": [],
      "stateMutability": "nonpayable",
      "type": "function"
    },
    {
      "inputs": [],
      "name": "getOwner",
      "outputs": [
        {
          "internalType": "address",
          "name": "",
          "type": "address"
        }
      ],
      "stateMutability": "payable",
      "type": "function",
      "payable": true
    },
    {
      "inputs": [],
      "name": "isRedeemed",
      "outputs": [
        {
          "internalType": "bool",
          "name": "",
          "type": "bool"
        }
      ],
      "stateMutability": "view",
      "type": "function",
      "constant": true
    },
    {
      "inputs": [],
      "name": "issuanceDate",
      "outputs": [
        {
          "internalType": "uint256",
          "name": "",
          "type": "uint256"
        }
      ],
      "stateMutability": "view",
      "type": "function",
      "constant": true
    },
    {
      "inputs": [],
      "name": "issuerAddress",
      "outputs": [
        {
          "internalType": "address",
          "name": "",
          "type": "address"
        }
      ],
      "stateMutability": "view",
      "type": "function",
      "constant": true
    },
    {
      "inputs": [],
      "name": "issuerName",
      "outputs": [
        {
          "internalType": "string",
          "name": "",
          "type": "string"
        }
      ],
      "stateMutability": "view",
      "type": "function",
      "constant": true
    },
    {
      "inputs": [],
      "name": "maturityDate",
      "outputs": [
        {
          "internalType": "uint256",
          "name": "",
          "type": "uint256"
        }
      ],
      "stateMutability": "view",
      "type": "function",
      "constant": true
    },
    {
      "inputs": [],
      "name": "principalAmount",
      "outputs": [
        {
          "internalType": "uint256",
          "name": "",
          "type": "uint256"
        }
      ],
      "stateMutability": "view",
      "type": "function",
      "constant": true
    },
    {
      "inputs": [],
      "name": "redemptionDate",
      "outputs": [
        {
          "internalType": "uint256",
          "name": "",
          "type": "uint256"
        }
      ],
      "stateMutability": "view",
      "type": "function",
      "constant": true
    },
    {
      "inputs": [],
      "name": "renounceOwnership",
      "outputs": [],
      "stateMutability": "payable",
      "type": "function",
      "payable": true
    },
    {
      "inputs": [
        {
          "internalType": "address",
          "name": "newOwner",
          "type": "address"
        }
      ],
      "name": "transferOwnership",
      "outputs": [],
      "stateMutability": "payable",
      "type": "function",
      "payable": true
    },
    {
      "stateMutability": "payable",
      "type": "receive",
      "payable": true
    },
    {
      "inputs": [],
      "name": "redeemBond",
      "outputs": [],
      "stateMutability": "nonpayable",
      "type": "function"
    }
  ],
  "bytecode": "0x608060405260006001556003805460ff191690553480156200002057600080fd5b5060405162000ede38038062000ede8339810160408190526200004391620001ac565b60008054600160a060020a031916339081178255426001556040519091907f8be0079c531659141344cd1fd0a4f28419497f9722a3daafe3b4186f6b6457e0908290a360046200009488826200035a565b5060058054600160a060020a03808916600160a060020a0319909216919091179091556006869055600785905560088490556009839055600a8054600160a860020a0319169183169190911790556000600b556040517fb60d1e2d3e1525536072c43472c6decfd962c98b596ccbf7b866013ec208d84990620001259089908990899089908990899089906200042c565b60405180910390a15050505050505062000498565b7f4e487b7100000000000000000000000000000000000000000000000000000000600052604160045260246000fd5b60005b83811015620001865781810151838201526020016200016c565b50506000910152565b8051600160a060020a0381168114620001a757600080fd5b919050565b600080600080600080600060e0888a031215620001c857600080fd5b87516001604060020a0380821115620001e057600080fd5b818a0191508a601f830112620001f557600080fd5b8151818111156200020a576200020a6200013a565b604051601f8201601f19908116603f011681019083821181831017156200023557620002356200013a565b816040528281528d60208487010111156200024f57600080fd5b6200026283602083016020880162000169565b809b50505050505062000278602089016200018f565b955060408801519450606088015193506080880151925060a08801519150620002a460c089016200018f565b905092959891949750929550565b600281046001821680620002c757607f821691505b60208210810362000301577f4e487b7100000000000000000000000000000000000000000000000000000000600052602260045260246000fd5b50919050565b601f82111562000355576000818152602081206020601f86010481016020861015620003305750805b6020601f860104820191505b8181101562000351578281556001016200033c565b5050505b505050565b81516001604060020a038111156200037657620003766200013a565b6200038e81620003878454620002b2565b8462000307565b602080601f831160018114620003ca5760008415620003ad5750858301515b60028086026008870290910a600019041982161786555062000351565b600085815260208120601f198616915b82811015620003fb57888601518255948401946001909101908401620003da565b50858210156200041c57878501516008601f88160260020a60001904191681555b5050505050600202600101905550565b60e08152600088518060e08401526101006200044f8282860160208e0162000169565b600160a060020a03998a1660208501526040840198909852606083019690965250608081019390935260a083019190915290931660c0840152601f01601f191690910101919050565b610a3680620004a86000396000f3fe6080604052600436106100d55760e060020a6000350463034f6b21811461019c578063196e74a7146101d257806322ed80e8146101f65780632e9868f81461022e5780635049b278146102505780636666e49c14610267578063715018a61461027d57806383197ef014610285578063893d20e81461029a578063a63234e0146102a2578063a766bc98146102c2578063b8fb3a51146102d8578063c0bcb26f146102ed578063d59624b414610303578063f2fde38b14610319578063f5074f411461032c578063ffa1ad741461034c57610115565b36610115577fcc85d09d309785db93d6df19917f2e6cc07fe27cd01c08c8279145deb5cf4526333460405161010b92919061080e565b60405180910390a1005b32331461016b5760405160e560020a62461bcd0281526020600482015260196024820152603860020a787068697368696e672061747461636b2064657465637465643f0260448201526064015b60405180910390fd5b7f26875833861a2b006512a11f1b86edf95df96131040f3caeed72989ee9858083333460405161010b92919061080e565b3480156101a857600080fd5b50600a546101bd9060a060020a900460ff1681565b60405190151581526020015b60405180910390f35b3480156101de57600080fd5b506101e860065481565b6040519081526020016101c9565b34801561020257600080fd5b50600a5461021690600160a060020a031681565b604051600160a060020a0390911681526020016101c9565b34801561023a57600080fd5b50610243610385565b6040516101c99190610827565b34801561025c57600080fd5b50610265610413565b005b34801561027357600080fd5b506101e8600b5481565b6102656105a8565b34801561029157600080fd5b5061026561060d565b610216610660565b3480156102ae57600080fd5b5060055461021690600160a060020a031681565b3480156102ce57600080fd5b506101e860095481565b3480156102e457600080fd5b506101e8601e81565b3480156102f957600080fd5b506101e860075481565b34801561030f57600080fd5b506101e860085481565b610265610327366004610875565b6106d6565b34801561033857600080fd5b50610265610347366004610875565b6107b7565b34801561035857600080fd5b506102436040518060400160405280600a815260200160b060020a69312e362e342d626574610281525081565b60048054610392906108a5565b80601f01602080910402602001604051908101604052809291908181526020018280546103be906108a5565b801561040b5780601f106103e05761010080835404028352916020019161040b565b820191906000526020600020905b8154815290600101906020018083116103ee57829003601f168201915b505050505081565b600a54600160a060020a031633146104855760405160e560020a62461bcd02815260206004820152602960248201527f4f6e6c792074686520626f6e6420686f6c6465722063616e2072656465656d20604482015260b960020a683a3432903137b73217026064820152608401610162565b6008544210156104da5760405160e560020a62461bcd02815260206004820152601d60248201527f54686520626f6e6420686173206e6f74206d617475726564207965742e0000006044820152606401610162565b600a5460a060020a900460ff16156105465760405160e560020a62461bcd02815260206004820152602360248201527f54686520626f6e642068617320616c7265616479206265656e2072656465656d604482015260e960020a6232b217026064820152608401610162565b600a805460a060020a60ff0219811660a060020a1790915542600b8190556040517fbbb59c50b3cd05fe4982a9bc1fbab45bd421ac707f4fba6b080522e3a9cc03b39261059e92600160a060020a039091169161080e565b60405180910390a1565b600054600160a060020a031633146105d55760405160e560020a62461bcd028152600401610162906108e3565b60008054604051600160a060020a03909116906000805160206109e1833981519152908390a360008054600160a060020a0319169055565b600054600160a060020a0316331461063a5760405160e560020a62461bcd02815260040161016290610917565b6000805160206109c183398151915233610652610660565b60405161059e92919061094e565b6000601e6001546106719190610968565b42116106925760405160e560020a62461bcd02815260040161016290610993565b601e6001546106a19190610968565b42116106c25760405160e560020a62461bcd02815260040161016290610993565b5042600155600054600160a060020a031690565b600054600160a060020a031633146107035760405160e560020a62461bcd028152600401610162906108e3565b600160a060020a03811661076e5760405160e560020a62461bcd02815260206004820152602660248201527f4f776e61626c653a206e6577206f776e657220697320746865207a65726f2061604482015260d060020a65646472657373026064820152608401610162565b60008054604051600160a060020a03808516939216916000805160206109e183398151915291a360008054600160a060020a031916600160a060020a0392909216919091179055565b600054600160a060020a031633146107e45760405160e560020a62461bcd02815260040161016290610917565b6000805160206109c1833981519152338260405161080392919061094e565b60405180910390a150565b600160a060020a03929092168252602082015260400190565b600060208083528351808285015260005b8181101561085457858101830151858201604001528201610838565b506000604082860101526040601f19601f8301168501019250505092915050565b60006020828403121561088757600080fd5b8135600160a060020a038116811461089e57600080fd5b9392505050565b6002810460018216806108b957607f821691505b6020821081036108dd5760e060020a634e487b710260009081526022600452602490fd5b50919050565b6020808252601790820152604960020a7630b1b1b2b9b9903232b734b2b2103337b91037bbb732b902604082015260600190565b6020808252601b908201527f756e617574686f72697a65642c206e6f7420746865206f776e65720000000000604082015260600190565b600160a060020a0392831681529116602082015260400190565b8082018082111561098d5760e060020a634e487b710260009081526011600452602490fd5b92915050565b6020808252601090820152608160020a6f3930ba32903634b6b4ba1032b93937b90260408201526060019056fe91ca00fdf29069527d658f8dfc6d1c0bf9861780bb45ff36436f938d3595a8d68be0079c531659141344cd1fd0a4f28419497f9722a3daafe3b4186f6b6457e0a26469706673582212209053036689203e68eba65e3b0dae861d91184656c7ac028f7570be36ca70665464736f6c63430008120033",
  "immutableReferences": {},
  "source": "// SPDX-License-Identifier: CC-BY-4.0\npragma solidity >=0.4.22 <0.9.0;\n\nimport \"../common/Version.sol\";\nimport \"../common/Frozen.sol\";\n\ncontract TaxExemptBond is Version, Frozen {\n\nstring public issuerName;\n    address public issuerAddress;\n    uint256 public principalAmount;\n    uint256 public couponRate;\n    uint256 public maturityDate;\n    uint256 public issuanceDate;\n    address public bondHolder;\n    bool public isRedeemed;\n    uint256 public redemptionDate;\n\n    event BondIssued(\n        string issuerName,\n        address issuerAddress,\n        uint256 principalAmount,\n        uint256 couponRate,\n        uint256 maturityDate,\n        uint256 issuanceDate,\n        address bondHolder\n    );\n\n    event BondRedeemed(address bondHolder, uint256 redemptionDate);\n\n    constructor(\n        string memory _issuerName,\n        address _issuerAddress,\n        uint256 _principalAmount,\n        uint256 _couponRate,\n        uint256 _maturityDate,\n        uint256 _issuanceDate,\n        address _bondHolder\n    ) {\n        issuerName = _issuerName;\n        issuerAddress = _issuerAddress;\n        principalAmount = _principalAmount;\n        couponRate = _couponRate;\n        maturityDate = _maturityDate;\n        issuanceDate = _issuanceDate;\n        bondHolder = _bondHolder;\n        isRedeemed = false;\n        redemptionDate = 0;\n\n        emit BondIssued(\n            _issuerName,\n            _issuerAddress,\n            _principalAmount,\n            _couponRate,\n            _maturityDate,\n            _issuanceDate,\n            _bondHolder\n        );\n    }\n\n    function redeemBond() public {\n        require(msg.sender == bondHolder, \"Only the bond holder can redeem the bond.\");\n        require(block.timestamp >= maturityDate, \"The bond has not matured yet.\");\n        require(!isRedeemed, \"The bond has already been redeemed.\");\n\n        isRedeemed = true;\n        redemptionDate = block.timestamp;\n\n        emit BondRedeemed(bondHolder, redemptionDate);\n    }\n}",
  "sourcePath": "/Volumes/My Book/projects/pingleware-contracts/contracts/non-profit/TaxExemptBond.sol",
  "compiler": {
    "name": "solc",
    "version": "0.8.18+commit.87f61d96.Emscripten.clang"
  },
  "schemaVersion": "3.4.12",
  "updatedAt": "2023-10-24T12:20:32.072Z",
  "networkType": "ethereum",
  "devdoc": {
    "kind": "dev",
    "methods": {
      "renounceOwnership()": {
        "details": "Leaves the contract without owner. It will not be possible to call `onlyOwner` functions anymore. Can only be called by the current owner. NOTE: Renouncing ownership will leave the contract without an owner, thereby removing any functionality that is only available to the owner."
      },
      "transferOwnership(address)": {
        "details": "Transfers ownership of the contract to a new account (`newOwner`). Can only be called by the current owner."
      }
    },
    "version": 1
  },
  "userdoc": {
    "kind": "user",
    "methods": {},
    "version": 1
  }
}