{
  "contractName": "TaxExemptBond",
  "abi": [
    {
      "inputs": [
        {
          "internalType": "string",
          "name": "_issuerName",
          "type": "string"
        },
        {
          "internalType": "address",
          "name": "_issuerAddress",
          "type": "address"
        },
        {
          "internalType": "uint256",
          "name": "_principalAmount",
          "type": "uint256"
        },
        {
          "internalType": "uint256",
          "name": "_couponRate",
          "type": "uint256"
        },
        {
          "internalType": "uint256",
          "name": "_maturityDate",
          "type": "uint256"
        },
        {
          "internalType": "uint256",
          "name": "_issuanceDate",
          "type": "uint256"
        },
        {
          "internalType": "address",
          "name": "_bondHolder",
          "type": "address"
        }
      ],
      "stateMutability": "nonpayable",
      "type": "constructor"
    },
    {
      "anonymous": false,
      "inputs": [
        {
          "indexed": false,
          "internalType": "string",
          "name": "issuerName",
          "type": "string"
        },
        {
          "indexed": false,
          "internalType": "address",
          "name": "issuerAddress",
          "type": "address"
        },
        {
          "indexed": false,
          "internalType": "uint256",
          "name": "principalAmount",
          "type": "uint256"
        },
        {
          "indexed": false,
          "internalType": "uint256",
          "name": "couponRate",
          "type": "uint256"
        },
        {
          "indexed": false,
          "internalType": "uint256",
          "name": "maturityDate",
          "type": "uint256"
        },
        {
          "indexed": false,
          "internalType": "uint256",
          "name": "issuanceDate",
          "type": "uint256"
        },
        {
          "indexed": false,
          "internalType": "address",
          "name": "bondHolder",
          "type": "address"
        }
      ],
      "name": "BondIssued",
      "type": "event"
    },
    {
      "anonymous": false,
      "inputs": [
        {
          "indexed": false,
          "internalType": "address",
          "name": "bondHolder",
          "type": "address"
        },
        {
          "indexed": false,
          "internalType": "uint256",
          "name": "redemptionDate",
          "type": "uint256"
        }
      ],
      "name": "BondRedeemed",
      "type": "event"
    },
    {
      "anonymous": false,
      "inputs": [
        {
          "indexed": false,
          "internalType": "address",
          "name": "sender",
          "type": "address"
        },
        {
          "indexed": false,
          "internalType": "address",
          "name": "recipient",
          "type": "address"
        }
      ],
      "name": "Destroyed",
      "type": "event"
    },
    {
      "anonymous": false,
      "inputs": [
        {
          "indexed": false,
          "internalType": "address",
          "name": "sender",
          "type": "address"
        },
        {
          "indexed": false,
          "internalType": "uint256",
          "name": "amount",
          "type": "uint256"
        }
      ],
      "name": "FallbackEvent",
      "type": "event"
    },
    {
      "anonymous": false,
      "inputs": [
        {
          "indexed": true,
          "internalType": "address",
          "name": "previousOwner",
          "type": "address"
        },
        {
          "indexed": true,
          "internalType": "address",
          "name": "newOwner",
          "type": "address"
        }
      ],
      "name": "OwnershipTransferred",
      "type": "event"
    },
    {
      "anonymous": false,
      "inputs": [
        {
          "indexed": false,
          "internalType": "address",
          "name": "sender",
          "type": "address"
        },
        {
          "indexed": false,
          "internalType": "uint256",
          "name": "amount",
          "type": "uint256"
        }
      ],
      "name": "ReceiveEvent",
      "type": "event"
    },
    {
      "anonymous": false,
      "inputs": [
        {
          "indexed": false,
          "internalType": "address",
          "name": "sender",
          "type": "address"
        },
        {
          "indexed": false,
          "internalType": "bytes",
          "name": "reason",
          "type": "bytes"
        }
      ],
      "name": "Started",
      "type": "event"
    },
    {
      "anonymous": false,
      "inputs": [
        {
          "indexed": false,
          "internalType": "address",
          "name": "sender",
          "type": "address"
        },
        {
          "indexed": false,
          "internalType": "bytes",
          "name": "reason",
          "type": "bytes"
        }
      ],
      "name": "Stopped",
      "type": "event"
    },
    {
      "anonymous": false,
      "inputs": [
        {
          "indexed": false,
          "internalType": "address",
          "name": "sender",
          "type": "address"
        },
        {
          "indexed": false,
          "internalType": "string",
          "name": "reason",
          "type": "string"
        }
      ],
      "name": "Termination",
      "type": "event"
    },
    {
      "stateMutability": "payable",
      "type": "fallback"
    },
    {
      "inputs": [],
      "name": "VERSION",
      "outputs": [
        {
          "internalType": "string",
          "name": "",
          "type": "string"
        }
      ],
      "stateMutability": "view",
      "type": "function"
    },
    {
      "inputs": [],
      "name": "WAIT",
      "outputs": [
        {
          "internalType": "uint256",
          "name": "",
          "type": "uint256"
        }
      ],
      "stateMutability": "view",
      "type": "function"
    },
    {
      "inputs": [],
      "name": "bondHolder",
      "outputs": [
        {
          "internalType": "address",
          "name": "",
          "type": "address"
        }
      ],
      "stateMutability": "view",
      "type": "function"
    },
    {
      "inputs": [],
      "name": "couponRate",
      "outputs": [
        {
          "internalType": "uint256",
          "name": "",
          "type": "uint256"
        }
      ],
      "stateMutability": "view",
      "type": "function"
    },
    {
      "inputs": [],
      "name": "destroy",
      "outputs": [],
      "stateMutability": "nonpayable",
      "type": "function"
    },
    {
      "inputs": [
        {
          "internalType": "address",
          "name": "_recipient",
          "type": "address"
        }
      ],
      "name": "destroyAndSend",
      "outputs": [],
      "stateMutability": "nonpayable",
      "type": "function"
    },
    {
      "inputs": [],
      "name": "getOwner",
      "outputs": [
        {
          "internalType": "address",
          "name": "",
          "type": "address"
        }
      ],
      "stateMutability": "payable",
      "type": "function"
    },
    {
      "inputs": [],
      "name": "isRedeemed",
      "outputs": [
        {
          "internalType": "bool",
          "name": "",
          "type": "bool"
        }
      ],
      "stateMutability": "view",
      "type": "function"
    },
    {
      "inputs": [],
      "name": "issuanceDate",
      "outputs": [
        {
          "internalType": "uint256",
          "name": "",
          "type": "uint256"
        }
      ],
      "stateMutability": "view",
      "type": "function"
    },
    {
      "inputs": [],
      "name": "issuerAddress",
      "outputs": [
        {
          "internalType": "address",
          "name": "",
          "type": "address"
        }
      ],
      "stateMutability": "view",
      "type": "function"
    },
    {
      "inputs": [],
      "name": "issuerName",
      "outputs": [
        {
          "internalType": "string",
          "name": "",
          "type": "string"
        }
      ],
      "stateMutability": "view",
      "type": "function"
    },
    {
      "inputs": [],
      "name": "maturityDate",
      "outputs": [
        {
          "internalType": "uint256",
          "name": "",
          "type": "uint256"
        }
      ],
      "stateMutability": "view",
      "type": "function"
    },
    {
      "inputs": [],
      "name": "principalAmount",
      "outputs": [
        {
          "internalType": "uint256",
          "name": "",
          "type": "uint256"
        }
      ],
      "stateMutability": "view",
      "type": "function"
    },
    {
      "inputs": [],
      "name": "redemptionDate",
      "outputs": [
        {
          "internalType": "uint256",
          "name": "",
          "type": "uint256"
        }
      ],
      "stateMutability": "view",
      "type": "function"
    },
    {
      "inputs": [],
      "name": "renounceOwnership",
      "outputs": [],
      "stateMutability": "payable",
      "type": "function"
    },
    {
      "inputs": [
        {
          "internalType": "address",
          "name": "newOwner",
          "type": "address"
        }
      ],
      "name": "transferOwnership",
      "outputs": [],
      "stateMutability": "payable",
      "type": "function"
    },
    {
      "stateMutability": "payable",
      "type": "receive"
    },
    {
      "inputs": [],
      "name": "redeemBond",
      "outputs": [],
      "stateMutability": "nonpayable",
      "type": "function"
    }
  ],
  "bytecode": "0x608060405234620003705762000d9e803803806200001d8162000375565b92833981019060e08183031262000370578051916001604060020a03928381116200037057820181601f820112156200037057805184811162000341576200006f601f8201601f191660200162000375565b928184526020828401011162000370576200009191602080850191016200039b565b6200009f60208301620003c0565b604083015190606084015193608081015190620000c460c060a08301519201620003c0565b60008054600160a060020a03191633908117825542600155919491907f8be0079c531659141344cd1fd0a4f28419497f9722a3daafe3b4186f6b6457e08180a360ff1960035416600355855197881162000341576004546001600282049116801562000336575b60208210146200030757601f8111620002b8575b50602097601f811160011462000238578060008051602062000d7e833981519152996000916200022c575b50816002029160080260020a600019041916176004555b600160a060020a038091169384600160a060020a0319600554161760055585600655876007558360085582600955169182600160a860020a0319600a541617600a556000600b5560405196879560e087528751958660e0890152620001f1876101009a60208c8c0191016200039b565b602088015260408701526060860152608085015260a084015260c0830152601f01601f19168101030190a16040516109a89081620003d68239f35b9050870151386200016a565b6004600052602060002060005b601f19831681106200029f57508160029160008051602062000d7e8339815191529b600194601f1981161062000283575b5050020160045562000181565b8a01516008601f841602840a6000190419169055388062000276565b888b0151825560209a8b019a6001909201910162000245565b600460005260206000206020601f8b010481019160208b10620002fc575b601f602091010401905b818110620002ef57506200013f565b60008155600101620002e0565b9091508190620002d6565b7f4e487b7100000000000000000000000000000000000000000000000000000000600052602260045260246000fd5b90607f16906200012b565b7f4e487b7100000000000000000000000000000000000000000000000000000000600052604160045260246000fd5b600080fd5b6040519190601f01601f191682016001604060020a038111838210176200034157604052565b60005b838110620003af5750506000910152565b81810151838201526020016200039e565b5190600160a060020a0382168203620003705756fe6080604090808252600490813610156100c8575b50361561009957333203610055577f26875833861a2b006512a11f1b86edf95df96131040f3caeed72989ee98580838251806100503433836108cb565b0390a1005b6020606492519160e560020a62461bcd02835282015260196024820152603860020a787068697368696e672061747461636b2064657465637465643f026044820152fd5b7fcc85d09d309785db93d6df19917f2e6cc07fe27cd01c08c8279145deb5cf45268251806100503433836108cb565b60009060e060020a8235049063034f6b21821461075d57508063196e74a71461073e57806322ed80e8146107155780632e9868f8146106295780635049b278146104a65780636666e49c14610487578063715018a61461043f57806383197ef0146103f1578063893d20e8146103c8578063a63234e01461039f578063a766bc9814610380578063b8fb3a5114610364578063c0bcb26f14610345578063d59624b414610326578063f2fde38b14610264578063f5074f41146102035763ffa1ad74036100135782346101ff57816003193601126101ff57805191828201906001604060020a038211848310176101e957506101e593508152600a825260b060020a69312e362e342d626574610260208301525191829182610785565b0390f35b60e060020a634e487b7102815260418552602490fd5b5080fd5b5091903461026057602036600319011261026057600160a060020a039035818116810361025c576000805160206109338339815191529261024b6102569386541633146107ce565b51918291338361081d565b0390a180f35b8380fd5b8280fd5b509190602036600319011261026057600160a060020a038135818116939192908490036103225784549283169161029c8333146108e6565b84156102c857505082906000805160206109538339815191528580a3600160a060020a03191617815580f35b5160e560020a62461bcd028152602091810191909152602660248201527f4f776e61626c653a206e6577206f776e657220697320746865207a65726f2061604482015260d060020a65646472657373026064820152608490fd5b8480fd5b5082346101ff57816003193601126101ff576020906008549051908152f35b5082346101ff57816003193601126101ff576020906007549051908152f35b5082346101ff57816003193601126101ff5760209051601e8152f35b5082346101ff57816003193601126101ff576020906009549051908152f35b5082346101ff57816003193601126101ff576005549051600160a060020a039091168152602090f35b5082816003193601126101ff576020906103e061087c565b9051600160a060020a039091168152f35b5082346101ff57816003193601126101ff576102566000805160206109338339815191529161042b600160a060020a0385541633146107ce565b61043361087c565b9051918291338361081d565b508060031936011261048457805481600160a060020a0382166104633382146108e6565b6000805160206109538339815191528280a3600160a060020a031916815580f35b80fd5b5082346101ff57816003193601126101ff57602090600b549051908152f35b509134610260578260031936011261026057600a54600160a060020a0381169290338490036105ce5760085442106105885760a060020a9182820460ff16610530575060a060020a60ff02191617600a5542600b81905590517fbbb59c50b3cd05fe4982a9bc1fbab45bd421ac707f4fba6b080522e3a9cc03b392909182916102569190836108cb565b835160e560020a62461bcd028152602091810191909152602360248201527f54686520626f6e642068617320616c7265616479206265656e2072656465656d604482015260e960020a6232b217026064820152608490fd5b506020606492519160e560020a62461bcd028352820152601d60248201527f54686520626f6e6420686173206e6f74206d617475726564207965742e0000006044820152fd5b506020608492519160e560020a62461bcd028352820152602960248201527f4f6e6c792074686520626f6e6420686f6c6465722063616e2072656465656d20604482015260b960020a683a3432903137b73217026064820152fd5b5082346101ff57816003193601126101ff5780519082845460028104600180831692831561070b575b60209384841081146106f5578388529081156106da57506001146106a2575b505050829003601f01601f19168201926001604060020a038411838510176101e957508291826101e5925282610785565b919250868652828620918387935b8385106106c65750505050830101858080610671565b8054888601830152930192849082016106b0565b60ff1916878501525050151581028401019050858080610671565b60e060020a634e487b7102895260228a52602489fd5b91607f1691610652565b5082346101ff57816003193601126101ff57600a549051600160a060020a039091168152602090f35b5082346101ff57816003193601126101ff576020906006549051908152f35b9050346101ff57816003193601126101ff57600a5460a060020a900460ff1615158152602090f35b6020808252825181830181905290939260005b8281106107ba57505060409293506000838284010152601f8019910116010190565b818101860151848201604001528501610798565b156107d557565b60405160e560020a62461bcd02815260206004820152601b60248201527f756e617574686f72697a65642c206e6f7420746865206f776e657200000000006044820152606490fd5b600160a060020a0391821681529116602082015260400190565b1561083e57565b60405160e560020a62461bcd0281526020600482015260106024820152608160020a6f3930ba32903634b6b4ba1032b93937b9026044820152606490fd5b600154601e81018091116108b15761089e90421161089981610837565b610837565b42600155600054600160a060020a031690565b60e060020a634e487b710260009081526011600452602490fd5b600160a060020a039091168152602081019190915260400190565b156108ed57565b60405160e560020a62461bcd0281526020600482015260176024820152604960020a7630b1b1b2b9b9903232b734b2b2103337b91037bbb732b9026044820152606490fdfe91ca00fdf29069527d658f8dfc6d1c0bf9861780bb45ff36436f938d3595a8d68be0079c531659141344cd1fd0a4f28419497f9722a3daafe3b4186f6b6457e0a264697066735822122014339d651fc4fc9617a71b5049bbf9d29cd5ac0ee53f3b07f8c1a5bfd16cff5464736f6c63430008120033b60d1e2d3e1525536072c43472c6decfd962c98b596ccbf7b866013ec208d849",
  "immutableReferences": {},
  "source": "// SPDX-License-Identifier: CC-BY-4.0\npragma solidity >=0.4.22 <0.9.0;\n\nimport \"../common/Version.sol\";\nimport \"../common/Frozen.sol\";\n\ncontract TaxExemptBond is Version, Frozen {\n\nstring public issuerName;\n    address public issuerAddress;\n    uint256 public principalAmount;\n    uint256 public couponRate;\n    uint256 public maturityDate;\n    uint256 public issuanceDate;\n    address public bondHolder;\n    bool public isRedeemed;\n    uint256 public redemptionDate;\n\n    event BondIssued(\n        string issuerName,\n        address issuerAddress,\n        uint256 principalAmount,\n        uint256 couponRate,\n        uint256 maturityDate,\n        uint256 issuanceDate,\n        address bondHolder\n    );\n\n    event BondRedeemed(address bondHolder, uint256 redemptionDate);\n\n    constructor(\n        string memory _issuerName,\n        address _issuerAddress,\n        uint256 _principalAmount,\n        uint256 _couponRate,\n        uint256 _maturityDate,\n        uint256 _issuanceDate,\n        address _bondHolder\n    ) {\n        issuerName = _issuerName;\n        issuerAddress = _issuerAddress;\n        principalAmount = _principalAmount;\n        couponRate = _couponRate;\n        maturityDate = _maturityDate;\n        issuanceDate = _issuanceDate;\n        bondHolder = _bondHolder;\n        isRedeemed = false;\n        redemptionDate = 0;\n\n        emit BondIssued(\n            _issuerName,\n            _issuerAddress,\n            _principalAmount,\n            _couponRate,\n            _maturityDate,\n            _issuanceDate,\n            _bondHolder\n        );\n    }\n\n    function redeemBond() public {\n        require(msg.sender == bondHolder, \"Only the bond holder can redeem the bond.\");\n        require(block.timestamp >= maturityDate, \"The bond has not matured yet.\");\n        require(!isRedeemed, \"The bond has already been redeemed.\");\n\n        isRedeemed = true;\n        redemptionDate = block.timestamp;\n\n        emit BondRedeemed(bondHolder, redemptionDate);\n    }\n}",
  "sourcePath": "/Volumes/HOME/pingleware-contracts/contracts/non-profit/TaxExemptBond.sol",
  "compiler": {
    "name": "solc",
    "version": "0.8.18+commit.87f61d96.Emscripten.clang"
  },
  "schemaVersion": "3.4.12",
  "updatedAt": "2024-05-23T18:56:27.020Z",
  "devdoc": {
    "kind": "dev",
    "methods": {
      "renounceOwnership()": {
        "details": "Leaves the contract without owner. It will not be possible to call `onlyOwner` functions anymore. Can only be called by the current owner. NOTE: Renouncing ownership will leave the contract without an owner, thereby removing any functionality that is only available to the owner."
      },
      "transferOwnership(address)": {
        "details": "Transfers ownership of the contract to a new account (`newOwner`). Can only be called by the current owner."
      }
    },
    "version": 1
  },
  "userdoc": {
    "kind": "user",
    "methods": {},
    "version": 1
  }
}