{
  "contractName": "TicketSales",
  "abi": [
    {
      "inputs": [
        {
          "internalType": "uint256",
          "name": "_showTime",
          "type": "uint256"
        }
      ],
      "stateMutability": "nonpayable",
      "type": "constructor"
    },
    {
      "anonymous": false,
      "inputs": [
        {
          "indexed": true,
          "internalType": "address",
          "name": "purchaser",
          "type": "address"
        },
        {
          "indexed": false,
          "internalType": "string",
          "name": "section",
          "type": "string"
        },
        {
          "indexed": false,
          "internalType": "uint256",
          "name": "row",
          "type": "uint256"
        },
        {
          "indexed": false,
          "internalType": "uint256",
          "name": "seat",
          "type": "uint256"
        }
      ],
      "name": "TicketCheckedIn",
      "type": "event"
    },
    {
      "anonymous": false,
      "inputs": [
        {
          "indexed": true,
          "internalType": "address",
          "name": "purchaser",
          "type": "address"
        },
        {
          "indexed": false,
          "internalType": "string",
          "name": "section",
          "type": "string"
        },
        {
          "indexed": false,
          "internalType": "uint256",
          "name": "row",
          "type": "uint256"
        },
        {
          "indexed": false,
          "internalType": "uint256",
          "name": "seat",
          "type": "uint256"
        }
      ],
      "name": "TicketPurchased",
      "type": "event"
    },
    {
      "anonymous": false,
      "inputs": [
        {
          "indexed": true,
          "internalType": "address",
          "name": "purchaser",
          "type": "address"
        },
        {
          "indexed": false,
          "internalType": "string",
          "name": "section",
          "type": "string"
        },
        {
          "indexed": false,
          "internalType": "uint256",
          "name": "row",
          "type": "uint256"
        },
        {
          "indexed": false,
          "internalType": "uint256",
          "name": "seat",
          "type": "uint256"
        }
      ],
      "name": "TicketResale",
      "type": "event"
    },
    {
      "inputs": [],
      "name": "checkInDeadline",
      "outputs": [
        {
          "internalType": "uint256",
          "name": "",
          "type": "uint256"
        }
      ],
      "stateMutability": "view",
      "type": "function",
      "constant": true
    },
    {
      "inputs": [],
      "name": "isOpen",
      "outputs": [
        {
          "internalType": "bool",
          "name": "",
          "type": "bool"
        }
      ],
      "stateMutability": "view",
      "type": "function",
      "constant": true
    },
    {
      "inputs": [],
      "name": "owner",
      "outputs": [
        {
          "internalType": "address",
          "name": "",
          "type": "address"
        }
      ],
      "stateMutability": "view",
      "type": "function",
      "constant": true
    },
    {
      "inputs": [],
      "name": "showTime",
      "outputs": [
        {
          "internalType": "uint256",
          "name": "",
          "type": "uint256"
        }
      ],
      "stateMutability": "view",
      "type": "function",
      "constant": true
    },
    {
      "inputs": [
        {
          "internalType": "address",
          "name": "",
          "type": "address"
        },
        {
          "internalType": "uint256",
          "name": "",
          "type": "uint256"
        }
      ],
      "name": "ticketsPurchased",
      "outputs": [
        {
          "internalType": "string",
          "name": "section",
          "type": "string"
        },
        {
          "internalType": "uint256",
          "name": "row",
          "type": "uint256"
        },
        {
          "internalType": "uint256",
          "name": "seat",
          "type": "uint256"
        },
        {
          "internalType": "uint256",
          "name": "price",
          "type": "uint256"
        },
        {
          "internalType": "bool",
          "name": "isSold",
          "type": "bool"
        },
        {
          "internalType": "bool",
          "name": "isCheckedIn",
          "type": "bool"
        }
      ],
      "stateMutability": "view",
      "type": "function",
      "constant": true
    },
    {
      "inputs": [],
      "name": "totalTickets",
      "outputs": [
        {
          "internalType": "uint256",
          "name": "",
          "type": "uint256"
        }
      ],
      "stateMutability": "view",
      "type": "function",
      "constant": true
    },
    {
      "inputs": [
        {
          "internalType": "uint256",
          "name": "_newDeadline",
          "type": "uint256"
        }
      ],
      "name": "setCheckInDeadline",
      "outputs": [],
      "stateMutability": "nonpayable",
      "type": "function"
    },
    {
      "inputs": [
        {
          "internalType": "string",
          "name": "section",
          "type": "string"
        },
        {
          "internalType": "uint256",
          "name": "rows",
          "type": "uint256"
        },
        {
          "internalType": "uint256",
          "name": "seatsPerRow",
          "type": "uint256"
        },
        {
          "internalType": "uint256",
          "name": "pricePerSeat",
          "type": "uint256"
        }
      ],
      "name": "addTickets",
      "outputs": [],
      "stateMutability": "nonpayable",
      "type": "function"
    },
    {
      "inputs": [
        {
          "internalType": "string",
          "name": "section",
          "type": "string"
        },
        {
          "internalType": "uint256",
          "name": "row",
          "type": "uint256"
        },
        {
          "internalType": "uint256",
          "name": "seat",
          "type": "uint256"
        }
      ],
      "name": "purchaseTicket",
      "outputs": [],
      "stateMutability": "payable",
      "type": "function",
      "payable": true
    },
    {
      "inputs": [
        {
          "internalType": "string",
          "name": "section",
          "type": "string"
        },
        {
          "internalType": "uint256",
          "name": "row",
          "type": "uint256"
        },
        {
          "internalType": "uint256",
          "name": "seat",
          "type": "uint256"
        }
      ],
      "name": "checkIn",
      "outputs": [],
      "stateMutability": "nonpayable",
      "type": "function"
    },
    {
      "inputs": [],
      "name": "closeTicketSales",
      "outputs": [],
      "stateMutability": "nonpayable",
      "type": "function"
    },
    {
      "inputs": [],
      "name": "withdrawFunds",
      "outputs": [],
      "stateMutability": "nonpayable",
      "type": "function"
    },
    {
      "inputs": [],
      "name": "getContractBalance",
      "outputs": [
        {
          "internalType": "uint256",
          "name": "",
          "type": "uint256"
        }
      ],
      "stateMutability": "view",
      "type": "function",
      "constant": true
    },
    {
      "inputs": [
        {
          "internalType": "address",
          "name": "purchaser",
          "type": "address"
        }
      ],
      "name": "getPurchasedTickets",
      "outputs": [
        {
          "components": [
            {
              "internalType": "string",
              "name": "section",
              "type": "string"
            },
            {
              "internalType": "uint256",
              "name": "row",
              "type": "uint256"
            },
            {
              "internalType": "uint256",
              "name": "seat",
              "type": "uint256"
            },
            {
              "internalType": "uint256",
              "name": "price",
              "type": "uint256"
            },
            {
              "internalType": "bool",
              "name": "isSold",
              "type": "bool"
            },
            {
              "internalType": "bool",
              "name": "isCheckedIn",
              "type": "bool"
            }
          ],
          "internalType": "struct TicketSales.Ticket[]",
          "name": "",
          "type": "tuple[]"
        }
      ],
      "stateMutability": "view",
      "type": "function",
      "constant": true
    }
  ],
  "bytecode": "0x608060405234801561001057600080fd5b5060405161196f38038061196f83398101604081905261002f91610068565b60008054600160a060020a0319163317905560028190556005805460ff1916600117905561005f61070882610081565b600355506100c1565b60006020828403121561007a57600080fd5b5051919050565b818103818111156100bb577f4e487b7100000000000000000000000000000000000000000000000000000000600052601160045260246000fd5b92915050565b61189f806100d06000396000f3fe6080604052600436106100af5760e060020a6000350462c1e5cf81146100b457806324600fc3146100ef5780632863923714610106578063442971c31461012657806347535d7b1461014a5780634aaf8652146101745780636f9fb98a146101a157806382fb673e146101b55780638a6b607a146101d55780638da5cb5b146101eb578063b1dc205114610223578063ca16e40714610238578063dd11247e1461024b578063e167b71c14610261575b600080fd5b3480156100c057600080fd5b506100d46100cf366004611179565b610281565b6040516100e6969594939291906111e9565b60405180910390f35b3480156100fb57600080fd5b50610104610369565b005b34801561011257600080fd5b50610104610121366004611229565b6103dd565b34801561013257600080fd5b5061013c60035481565b6040519081526020016100e6565b34801561015657600080fd5b506005546101649060ff1681565b60405190151581526020016100e6565b34801561018057600080fd5b5061019461018f366004611242565b610434565b6040516100e69190611264565b3480156101ad57600080fd5b50303161013c565b3480156101c157600080fd5b506101046101d03660046113aa565b61057e565b3480156101e157600080fd5b5061013c60025481565b3480156101f757600080fd5b5060005461020b90600160a060020a031681565b604051600160a060020a0390911681526020016100e6565b34801561022f57600080fd5b5061010461076e565b6101046102463660046113aa565b6107a7565b34801561025757600080fd5b5061013c60015481565b34801561026d57600080fd5b5061010461027c3660046113f7565b610e47565b6004602052816000526040600020818154811061029d57600080fd5b9060005260206000209060050201600091509150508060000180546102c19061144a565b80601f01602080910402602001604051908101604052809291908181526020018280546102ed9061144a565b801561033a5780601f1061030f5761010080835404028352916020019161033a565b820191906000526020600020905b81548152906001019060200180831161031d57829003601f168201915b505050506001830154600284015460038501546004909501549394919390925060ff8082169161010090041686565b600054600160a060020a0316331461039f5760405160e560020a62461bcd02815260040161039690611488565b60405180910390fd5b60008054604051600160a060020a0390911691303180156108fc02929091818181858888f193505050501580156103da573d6000803e3d6000fd5b50565b600054600160a060020a0316331461040a5760405160e560020a62461bcd02815260040161039690611488565b60055460ff1661042f5760405160e560020a62461bcd028152600401610396906114da565b600355565b600160a060020a0381166000908152600460209081526040808320805482518185028101850190935280835260609492939192909184015b8282101561057357838290600052602060002090600502016040518060c001604052908160008201805461049f9061144a565b80601f01602080910402602001604051908101604052809291908181526020018280546104cb9061144a565b80156105185780601f106104ed57610100808354040283529160200191610518565b820191906000526020600020905b8154815290600101906020018083116104fb57829003601f168201915b5050509183525050600182810154602080840191909152600284015460408401526003840154606084015260049093015460ff8082161515608085015261010090910416151560a0909201919091529183529201910161046c565b505050509050919050565b60055460ff16801561059257506003544211155b6105d95760405160e560020a62461bcd0281526020600482015260126024820152607260020a7110da1958dacb5a5b881a5cc818db1bdcd959026044820152606401610396565b336000908152600460205260408120905b8154811015610767578181815481106106055761060561150e565b906000526020600020906005020160040160019054906101000a900460ff1615801561066e575084805190602001208282815481106106465761064661150e565b90600052602060002090600502016000016040516106649190611528565b6040518091039020145b801561069c5750838282815481106106885761068861150e565b906000526020600020906005020160010154145b80156106ca5750828282815481106106b6576106b661150e565b906000526020600020906005020160020154145b156107555760018282815481106106e3576106e361150e565b906000526020600020906005020160040160016101000a81548160ff02191690831515021790555033600160a060020a03167f6b10ded087b42d2cee7822559c48605163aefdb903c31952de9503233bf4e8038686866040516107489392919061159e565b60405180910390a2610767565b8061075f816115dd565b9150506105ea565b5050505050565b600054600160a060020a0316331461079b5760405160e560020a62461bcd02815260040161039690611488565b6005805460ff19169055565b60055460ff166107cc5760405160e560020a62461bcd028152600401610396906114da565b60008351116107f05760405160e560020a62461bcd028152600401610396906115f6565b600082116108525760405160e560020a62461bcd028152602060048201526024808201527f526f77206e756d626572206d7573742062652067726561746572207468616e20604482015260e060020a637a65726f026064820152608401610396565b600081116108b65760405160e560020a62461bcd02815260206004820152602560248201527f53656174206e756d626572206d7573742062652067726561746572207468616e604482015260d860020a64207a65726f026064820152608401610396565b60008054600160a060020a03168152600460205260409020805461091f5760405160e560020a62461bcd02815260206004820152601d60248201527f4e6f207469636b65747320617661696c61626c6520666f722073616c650000006044820152606401610396565b61095c6040518060c00160405280606081526020016000815260200160008152602001600081526020016000151581526020016000151581525090565b6000805b8354811015610cc35783818154811061097b5761097b61150e565b600091825260209091206004600590920201015460ff161580156109cd57508381815481106109ac576109ac61150e565b906000526020600020906005020160040160019054906101000a900460ff16155b8015610a16575086805190602001208482815481106109ee576109ee61150e565b9060005260206000209060050201600001604051610a0c9190611528565b6040518091039020145b8015610a44575085848281548110610a3057610a3061150e565b906000526020600020906005020160010154145b8015610a72575084848281548110610a5e57610a5e61150e565b906000526020600020906005020160020154145b15610cb157838181548110610a8957610a8961150e565b90600052602060002090600502016040518060c0016040529081600082018054610ab29061144a565b80601f0160208091040260200160405190810160405280929190818152602001828054610ade9061144a565b8015610b2b5780601f10610b0057610100808354040283529160200191610b2b565b820191906000526020600020905b815481529060010190602001808311610b0e57829003601f168201915b505050918352505060018281015460208084019190915260028401546040808501919091526003850154606085015260049485015460ff808216151560808088019190915261010090920416151560a0909501949094529285018290523360009081529381529183208054918201815583529120825192955092935083928592600590920201908190610bbe9082611693565b506020820151600180830191909155604083015160028301556060830151600383015560808301516004909201805460a09094015115156101000261ff00199315159390931661ffff1990941693909317919091179091558054906000610c248361174e565b9091555050600080546060850151604051600160a060020a039092169281156108fc029290818181858888f19350505050158015610c66573d6000803e3d6000fd5b5033600160a060020a03167f404ad2472e7dcbd273db1a1d856d2c8e59d65ed91f1def3dbe61e352a8450e01888888604051610ca49392919061159e565b60405180910390a2610cc3565b80610cbb816115dd565b915050610960565b508160800151610d185760405160e560020a62461bcd02815260206004820181905260248201527f53656c6563746564207469636b6574206973206e6f7420617661696c61626c656044820152606401610396565b8254610d2690600190611765565b811015610deb5782548390610d3d90600190611765565b81548110610d4d57610d4d61150e565b9060005260206000209060050201838281548110610d6d57610d6d61150e565b6000918252602090912060059091020180610d88838261177e565b506001828101549082015560028083015490820155600380830154908201556004918201805492909101805460ff938416151560ff19821681178355925461010090819004909416151590930261ff001990921661ffff19909316929092171790555b82805480610dfb57610dfb61184f565b60008281526020812060001990920191600583020190610e1b828261110f565b50600060018201819055600282018190556003820155600401805461ffff191690559055505050505050565b600054600160a060020a03163314610e745760405160e560020a62461bcd02815260040161039690611488565b60055460ff16610e995760405160e560020a62461bcd028152600401610396906114da565b6000845111610ebd5760405160e560020a62461bcd028152600401610396906115f6565b60008311610f245760405160e560020a62461bcd02815260206004820152602860248201527f4e756d626572206f6620726f7773206d75737420626520677265617465722074604482015260c060020a6768616e207a65726f026064820152608401610396565b60008211610f945760405160e560020a62461bcd02815260206004820152603160248201527f4e756d626572206f662073656174732070657220726f77206d757374206265206044820152607860020a7067726561746572207468616e207a65726f026064820152608401610396565b60008111610ffb5760405160e560020a62461bcd02815260206004820152602860248201527f5072696365207065722073656174206d75737420626520677265617465722074604482015260c060020a6768616e207a65726f026064820152608401610396565b60015b8381116107675760015b8381116110fc576040805160c08101825287815260208082018590528183018490526060820186905260006080830181905260a083018190528054600160a060020a031681526004825292832080546001810182559084529220815191928392600590910290910190819061107d9082611693565b506020820151600180830191909155604083015160028301556060830151600383015560808301516004909201805460a09094015115156101000261ff00199315159390931661ffff19909416939093179190911790915580549060006110e3836115dd565b91905055505080806110f4906115dd565b915050611008565b5080611107816115dd565b915050610ffe565b50805461111b9061144a565b6000825580601f1061112b575050565b601f0160209004906000526020600020908101906103da91905b808211156111595760008155600101611145565b5090565b8035600160a060020a038116811461117457600080fd5b919050565b6000806040838503121561118c57600080fd5b6111958361115d565b946020939093013593505050565b6000815180845260005b818110156111c9576020818501810151868301820152016111ad565b506000602082860101526020601f19601f83011685010191505092915050565b60c0815260006111fc60c08301896111a3565b6020830197909752506040810194909452606084019290925215156080830152151560a090910152919050565b60006020828403121561123b57600080fd5b5035919050565b60006020828403121561125457600080fd5b61125d8261115d565b9392505050565b60208082528251828201819052600091906040908185019080840286018301878501865b838110156112f657603f19898403018552815160c081518186526112ae828701826111a3565b838b0151878c0152898401518a8801526060808501519088015260808085015115159088015260a0938401511515939096019290925250509386019390860190600101611288565b509098975050505050505050565b60e060020a634e487b710260009081526041600452602490fd5b600082601f83011261132f57600080fd5b81356001604060020a038082111561134957611349611304565b604051601f8301601f19908116603f0116810190828211818310171561137157611371611304565b8160405283815286602085880101111561138a57600080fd5b836020870160208301376000602085830101528094505050505092915050565b6000806000606084860312156113bf57600080fd5b83356001604060020a038111156113d557600080fd5b6113e18682870161131e565b9660208601359650604090950135949350505050565b6000806000806080858703121561140d57600080fd5b84356001604060020a0381111561142357600080fd5b61142f8782880161131e565b97602087013597506040870135966060013595509350505050565b60028104600182168061145e57607f821691505b6020821081036114825760e060020a634e487b710260009081526022600452602490fd5b50919050565b6020808252602f908201527f4f6e6c792074686520636f6e7472616374206f776e65722063616e20706572666040820152608960020a6e37b936903a3434b99030b1ba34b7b702606082015260800190565b6020808252601790820152604a60020a76151a58dad95d081cd85b195cc8185c994818db1bdcd95902604082015260600190565b60e060020a634e487b710260009081526032600452602490fd5b60008083546115368161144a565b6001828116801561154e576001811461156357611592565b60ff1984168752821515830287019450611592565b8760005260208060002060005b858110156115895781548a820152908401908201611570565b50505082870194505b50929695505050505050565b6060815260006115b160608301866111a3565b60208301949094525060400152919050565b60e060020a634e487b710260009081526011600452602490fd5b6000600182016115ef576115ef6115c3565b5060010190565b6020808252601e908201527f53656374696f6e206e616d65206d757374206e6f7420626520656d7074790000604082015260600190565b601f821115611677576000818152602081206020601f860104810160208610156116545750805b6020601f860104820191505b8181101561167357828155600101611660565b5050505b505050565b6002808302600893909302900a6000190419161790565b81516001604060020a038111156116ac576116ac611304565b6116c0816116ba845461144a565b8461162d565b602080601f8311600181146116ef57600084156116dd5750858301515b6116e7858261167c565b865550611673565b600085815260208120601f198616915b8281101561171e578886015182559484019460019091019084016116ff565b508582101561173e57878501516008601f88160260020a60001904191681555b5050505050600202600101905550565b60008161175d5761175d6115c3565b506000190190565b81810381811115611778576117786115c3565b92915050565b818103611789575050565b611793825461144a565b6001604060020a038111156117aa576117aa611304565b6117b8816116ba845461144a565b6000601f8211600181146117e657600083156117d45750848201545b6117de848261167c565b855550610767565b600085815260209020601f19841690600086815260209020845b838110156118205782860154825560019586019590910190602001611800565b508583101561173e57818501546008601f88160260020a60001904191681555050505050600202600101905550565b60e060020a634e487b710260009081526031600452602490fdfea264697066735822122071e87ad12ccdb2514367bdfeebce45398b16f111e60f17a45745408aa296989364736f6c63430008120033",
  "immutableReferences": {},
  "source": "// SPDX-License-Identifier: CC-BY-4.0\npragma solidity >=0.4.22 <0.9.0;\n\ncontract TicketSales {\n    address public owner;  // The owner of the contract\n    \n    // Struct to represent a ticket\n    struct Ticket {\n        string section;\n        uint256 row;\n        uint256 seat;\n        uint256 price;\n        bool isSold;\n        bool isCheckedIn;\n    }\n    \n    uint256 public totalTickets;  // Total number of tickets available\n    uint256 public showTime;  // Show time in Unix timestamp\n    uint256 public checkInDeadline;  // Check-in deadline in Unix timestamp\n    mapping(address => Ticket[]) public ticketsPurchased;  // Tickets purchased by each address\n    bool public isOpen;  // Indicates if ticket sales are open\n    \n    event TicketPurchased(address indexed purchaser, string section, uint256 row, uint256 seat);\n    event TicketCheckedIn(address indexed purchaser, string section, uint256 row, uint256 seat);\n    event TicketResale(address indexed purchaser, string section, uint256 row, uint256 seat);\n\n    constructor(uint256 _showTime) {\n        owner = msg.sender;\n        showTime = _showTime;\n        isOpen = true;\n        checkInDeadline = _showTime - 1800;  // 30 minutes before show time\n    }\n\n    modifier onlyOwner() {\n        require(msg.sender == owner, \"Only the contract owner can perform this action\");\n        _;\n    }\n\n    modifier salesOpen() {\n        require(isOpen, \"Ticket sales are closed\");\n        _;\n    }\n    \n    modifier checkInOpen() {\n        require(isOpen && block.timestamp <= checkInDeadline, \"Check-in is closed\");\n        _;\n    }\n    \n    function setCheckInDeadline(uint256 _newDeadline) external onlyOwner salesOpen {\n        checkInDeadline = _newDeadline;\n    }\n\n    // Function to add tickets by section with different prices\n    function addTickets(string memory section, uint256 rows, uint256 seatsPerRow, uint256 pricePerSeat) external onlyOwner salesOpen {\n        require(bytes(section).length > 0, \"Section name must not be empty\");\n        require(rows > 0, \"Number of rows must be greater than zero\");\n        require(seatsPerRow > 0, \"Number of seats per row must be greater than zero\");\n        require(pricePerSeat > 0, \"Price per seat must be greater than zero\");\n        \n        for (uint256 row = 1; row <= rows; row++) {\n            for (uint256 seat = 1; seat <= seatsPerRow; seat++) {\n                Ticket memory newTicket = Ticket({\n                    section: section,\n                    row: row,\n                    seat: seat,\n                    price: pricePerSeat,\n                    isSold: false,\n                    isCheckedIn: false\n                });\n                ticketsPurchased[owner].push(newTicket);\n                totalTickets++;\n            }\n        }\n    }\n\n    function purchaseTicket(string memory section, uint256 row, uint256 seat) external payable salesOpen {\n        require(bytes(section).length > 0, \"Section name must not be empty\");\n        require(row > 0, \"Row number must be greater than zero\");\n        require(seat > 0, \"Seat number must be greater than zero\");\n        \n        Ticket[] storage availableTickets = ticketsPurchased[owner];\n        require(availableTickets.length > 0, \"No tickets available for sale\");\n\n        Ticket memory selectedTicket;\n        uint256 selectedTicketIndex;\n        for (uint256 i = 0; i < availableTickets.length; i++) {\n            if (!availableTickets[i].isSold &&\n                !availableTickets[i].isCheckedIn &&\n                keccak256(bytes(availableTickets[i].section)) == keccak256(bytes(section)) &&\n                availableTickets[i].row == row &&\n                availableTickets[i].seat == seat) {\n                selectedTicket = availableTickets[i];\n                selectedTicketIndex = i;\n                selectedTicket.isSold = true;\n                ticketsPurchased[msg.sender].push(selectedTicket);\n                totalTickets--;\n                payable(owner).transfer(selectedTicket.price);\n                emit TicketPurchased(msg.sender, section, row, seat);\n                break;\n            }\n        }\n\n        require(selectedTicket.isSold, \"Selected ticket is not available\");\n        \n        // Remove the purchased ticket from the available tickets\n        if (selectedTicketIndex < availableTickets.length - 1) {\n            availableTickets[selectedTicketIndex] = availableTickets[availableTickets.length - 1];\n        }\n        availableTickets.pop();\n    }\n\n    function checkIn(string memory section, uint256 row, uint256 seat) external checkInOpen {\n        Ticket[] storage purchasedTickets = ticketsPurchased[msg.sender];\n\n        for (uint256 i = 0; i < purchasedTickets.length; i++) {\n            if (!purchasedTickets[i].isCheckedIn &&\n                keccak256(bytes(purchasedTickets[i].section)) == keccak256(bytes(section)) &&\n                purchasedTickets[i].row == row &&\n                purchasedTickets[i].seat == seat) {\n                purchasedTickets[i].isCheckedIn = true;\n                emit TicketCheckedIn(msg.sender, section, row, seat);\n                break;\n            }\n        }\n    }\n\n    function closeTicketSales() external onlyOwner {\n        isOpen = false;\n    }\n\n    function withdrawFunds() external onlyOwner {\n        payable(owner).transfer(address(this).balance);\n    }\n\n    function getContractBalance() external view returns (uint256) {\n        return address(this).balance;\n    }\n\n    function getPurchasedTickets(address purchaser) external view returns (Ticket[] memory) {\n        return ticketsPurchased[purchaser];\n    }\n}\n",
  "sourcePath": "/Volumes/My Book/projects/pingleware-contracts/contracts/retail/TicketSales.sol",
  "compiler": {
    "name": "solc",
    "version": "0.8.18+commit.87f61d96.Emscripten.clang"
  },
  "schemaVersion": "3.4.12",
  "updatedAt": "2023-10-23T15:41:33.782Z",
  "networkType": "ethereum",
  "devdoc": {
    "kind": "dev",
    "methods": {},
    "version": 1
  },
  "userdoc": {
    "kind": "user",
    "methods": {},
    "version": 1
  }
}