{
  "contractName": "Token",
  "abi": [
    {
      "inputs": [
        {
          "internalType": "string",
          "name": "name_",
          "type": "string"
        },
        {
          "internalType": "string",
          "name": "symbol_",
          "type": "string"
        }
      ],
      "stateMutability": "nonpayable",
      "type": "constructor"
    },
    {
      "anonymous": false,
      "inputs": [
        {
          "indexed": true,
          "internalType": "address",
          "name": "tokenOwner",
          "type": "address"
        },
        {
          "indexed": true,
          "internalType": "address",
          "name": "spender",
          "type": "address"
        },
        {
          "indexed": false,
          "internalType": "uint256",
          "name": "tokens",
          "type": "uint256"
        }
      ],
      "name": "Approval",
      "type": "event"
    },
    {
      "anonymous": false,
      "inputs": [
        {
          "indexed": true,
          "internalType": "address",
          "name": "tokenHolder",
          "type": "address"
        }
      ],
      "name": "Buyerlist",
      "type": "event"
    },
    {
      "anonymous": false,
      "inputs": [
        {
          "indexed": true,
          "internalType": "address",
          "name": "from",
          "type": "address"
        },
        {
          "indexed": true,
          "internalType": "address",
          "name": "to",
          "type": "address"
        },
        {
          "indexed": false,
          "internalType": "uint256",
          "name": "tokens",
          "type": "uint256"
        }
      ],
      "name": "Transfer",
      "type": "event"
    },
    {
      "anonymous": false,
      "inputs": [
        {
          "indexed": true,
          "internalType": "address",
          "name": "tokenHolder",
          "type": "address"
        },
        {
          "indexed": false,
          "internalType": "uint256",
          "name": "amount",
          "type": "uint256"
        }
      ],
      "name": "issueDivi",
      "type": "event"
    },
    {
      "anonymous": false,
      "inputs": [
        {
          "indexed": false,
          "internalType": "uint256",
          "name": "fromtime",
          "type": "uint256"
        },
        {
          "indexed": false,
          "internalType": "uint256",
          "name": "totime",
          "type": "uint256"
        },
        {
          "indexed": false,
          "internalType": "uint256",
          "name": "rate",
          "type": "uint256"
        },
        {
          "indexed": false,
          "internalType": "uint256",
          "name": "supply",
          "type": "uint256"
        }
      ],
      "name": "startSale",
      "type": "event"
    },
    {
      "inputs": [],
      "name": "name",
      "outputs": [
        {
          "internalType": "string",
          "name": "",
          "type": "string"
        }
      ],
      "stateMutability": "view",
      "type": "function"
    },
    {
      "inputs": [],
      "name": "symbol",
      "outputs": [
        {
          "internalType": "string",
          "name": "",
          "type": "string"
        }
      ],
      "stateMutability": "view",
      "type": "function"
    },
    {
      "inputs": [],
      "name": "decimals",
      "outputs": [
        {
          "internalType": "uint8",
          "name": "",
          "type": "uint8"
        }
      ],
      "stateMutability": "view",
      "type": "function"
    },
    {
      "inputs": [],
      "name": "totalSupply",
      "outputs": [
        {
          "internalType": "uint256",
          "name": "",
          "type": "uint256"
        }
      ],
      "stateMutability": "view",
      "type": "function"
    },
    {
      "inputs": [
        {
          "internalType": "uint256",
          "name": "amount",
          "type": "uint256"
        }
      ],
      "name": "setTotalSupply",
      "outputs": [],
      "stateMutability": "nonpayable",
      "type": "function"
    },
    {
      "inputs": [
        {
          "internalType": "address",
          "name": "account",
          "type": "address"
        }
      ],
      "name": "balanceOf",
      "outputs": [
        {
          "internalType": "uint256",
          "name": "",
          "type": "uint256"
        }
      ],
      "stateMutability": "view",
      "type": "function"
    },
    {
      "inputs": [
        {
          "internalType": "address",
          "name": "account",
          "type": "address"
        },
        {
          "internalType": "uint256",
          "name": "amount",
          "type": "uint256"
        }
      ],
      "name": "setBalance",
      "outputs": [],
      "stateMutability": "nonpayable",
      "type": "function"
    },
    {
      "inputs": [
        {
          "internalType": "address",
          "name": "to",
          "type": "address"
        },
        {
          "internalType": "uint256",
          "name": "amount",
          "type": "uint256"
        }
      ],
      "name": "transfer",
      "outputs": [
        {
          "internalType": "bool",
          "name": "",
          "type": "bool"
        }
      ],
      "stateMutability": "nonpayable",
      "type": "function"
    },
    {
      "inputs": [
        {
          "internalType": "address",
          "name": "owner",
          "type": "address"
        },
        {
          "internalType": "address",
          "name": "spender",
          "type": "address"
        }
      ],
      "name": "allowance",
      "outputs": [
        {
          "internalType": "uint256",
          "name": "",
          "type": "uint256"
        }
      ],
      "stateMutability": "view",
      "type": "function"
    },
    {
      "inputs": [
        {
          "internalType": "address",
          "name": "spender",
          "type": "address"
        },
        {
          "internalType": "uint256",
          "name": "amount",
          "type": "uint256"
        }
      ],
      "name": "approve",
      "outputs": [
        {
          "internalType": "bool",
          "name": "",
          "type": "bool"
        }
      ],
      "stateMutability": "nonpayable",
      "type": "function"
    },
    {
      "inputs": [
        {
          "internalType": "address",
          "name": "from",
          "type": "address"
        },
        {
          "internalType": "address",
          "name": "to",
          "type": "address"
        },
        {
          "internalType": "uint256",
          "name": "amount",
          "type": "uint256"
        }
      ],
      "name": "transferFrom",
      "outputs": [
        {
          "internalType": "bool",
          "name": "",
          "type": "bool"
        }
      ],
      "stateMutability": "nonpayable",
      "type": "function"
    },
    {
      "inputs": [
        {
          "internalType": "address",
          "name": "spender",
          "type": "address"
        },
        {
          "internalType": "uint256",
          "name": "addedValue",
          "type": "uint256"
        }
      ],
      "name": "increaseAllowance",
      "outputs": [
        {
          "internalType": "bool",
          "name": "",
          "type": "bool"
        }
      ],
      "stateMutability": "nonpayable",
      "type": "function"
    },
    {
      "inputs": [
        {
          "internalType": "address",
          "name": "spender",
          "type": "address"
        },
        {
          "internalType": "uint256",
          "name": "subtractedValue",
          "type": "uint256"
        }
      ],
      "name": "decreaseAllowance",
      "outputs": [
        {
          "internalType": "bool",
          "name": "",
          "type": "bool"
        }
      ],
      "stateMutability": "nonpayable",
      "type": "function"
    }
  ],
  "bytecode": "0x60806040523480156200001157600080fd5b5060405162000c6c38038062000c6c833981016040819052620000349162000138565b60036200004283826200024a565b5060046200005182826200024a565b5050506200031c565b7f4e487b7100000000000000000000000000000000000000000000000000000000600052604160045260246000fd5b600082601f8301126200009b57600080fd5b81516001604060020a0380821115620000b857620000b86200005a565b604051601f8301601f19908116603f01168101908282118183101715620000e357620000e36200005a565b816040528381526020925086838588010111156200010057600080fd5b600091505b8382101562000124578582018301518183018401529082019062000105565b600093810190920192909252949350505050565b600080604083850312156200014c57600080fd5b82516001604060020a03808211156200016457600080fd5b620001728683870162000089565b935060208501519150808211156200018957600080fd5b50620001988582860162000089565b9150509250929050565b600281046001821680620001b757607f821691505b602082108103620001f1577f4e487b7100000000000000000000000000000000000000000000000000000000600052602260045260246000fd5b50919050565b601f82111562000245576000818152602081206020601f86010481016020861015620002205750805b6020601f860104820191505b8181101562000241578281556001016200022c565b5050505b505050565b81516001604060020a038111156200026657620002666200005a565b6200027e81620002778454620001a2565b84620001f7565b602080601f831160018114620002ba57600084156200029d5750858301515b60028086026008870290910a600019041982161786555062000241565b600085815260208120601f198616915b82811015620002eb57888601518255948401946001909101908401620002ca565b50858210156200030c57878501516008601f88160260020a60001904191681555b5050505050600202600101905550565b610940806200032c6000396000f3fe608060405234801561001057600080fd5b50600436106100b25760e060020a600035046306fdde0381146100b7578063095ea7b3146100d557806318160ddd146100f857806323b872dd1461010a578063313ce5671461011d578063395093511461012c57806370a082311461013f57806395d89b4114610168578063a457c2d714610170578063a9059cbb14610183578063dd62ed3e14610196578063e30443bc146101a9578063f7ea7a3d146101d5575b600080fd5b6100bf6101e8565b6040516100cc9190610769565b60405180910390f35b6100e86100e33660046107d3565b61027a565b60405190151581526020016100cc565b6002545b6040519081526020016100cc565b6100e86101183660046107fd565b610294565b604051601281526020016100cc565b6100e861013a3660046107d3565b6102b8565b6100fc61014d366004610839565b600160a060020a031660009081526020819052604090205490565b6100bf6102f7565b6100e861017e3660046107d3565b610306565b6100e86101913660046107d3565b6103a3565b6100fc6101a436600461085b565b6103b1565b6101d36101b73660046107d3565b600160a060020a03909116600090815260208190526040902055565b005b6101d36101e336600461088e565b600255565b6060600380546101f7906108a7565b80601f0160208091040260200160405190810160405280929190818152602001828054610223906108a7565b80156102705780601f1061024557610100808354040283529160200191610270565b820191906000526020600020905b81548152906001019060200180831161025357829003601f168201915b5050505050905090565b6000336102888185856103dc565b60019150505b92915050565b6000336102a285828561050c565b6102ad858585610589565b506001949350505050565b336000818152600160209081526040808320600160a060020a038716845290915281205490919061028890829086906102f29087906108e5565b6103dc565b6060600480546101f7906108a7565b336000818152600160209081526040808320600160a060020a0387168452909152812054909190838110156103965760405160e560020a62461bcd02815260206004820152602560248201527f45524332303a2064656372656173656420616c6c6f77616e63652062656c6f77604482015260d860020a64207a65726f0260648201526084015b60405180910390fd5b6102ad82868684036103dc565b600033610288818585610589565b600160a060020a03918216600090815260016020908152604080832093909416825291909152205490565b600160a060020a0383166104445760405160e560020a62461bcd028152602060048201526024808201527f45524332303a20617070726f76652066726f6d20746865207a65726f20616464604482015260e060020a637265737302606482015260840161038d565b600160a060020a0382166104ab5760405160e560020a62461bcd02815260206004820152602260248201527f45524332303a20617070726f766520746f20746865207a65726f206164647265604482015260f060020a61737302606482015260840161038d565b600160a060020a0383811660008181526001602090815260408083209487168084529482529182902085905590518481527f8c5be1e5ebec7d5bd14f71427d1e84f3dd0314c0f7b2291e5b200ac8c7c3b925910160405180910390a3505050565b600061051884846103b1565b9050600019811461058357818110156105765760405160e560020a62461bcd02815260206004820152601d60248201527f45524332303a20696e73756666696369656e7420616c6c6f77616e6365000000604482015260640161038d565b61058384848484036103dc565b50505050565b600160a060020a0383166105f35760405160e560020a62461bcd02815260206004820152602560248201527f45524332303a207472616e736665722066726f6d20746865207a65726f206164604482015260d860020a64647265737302606482015260840161038d565b600160a060020a03821661065b5760405160e560020a62461bcd02815260206004820152602360248201527f45524332303a207472616e7366657220746f20746865207a65726f2061646472604482015260e860020a6265737302606482015260840161038d565b600160a060020a038316600090815260208190526040902054818110156106d95760405160e560020a62461bcd02815260206004820152602660248201527f45524332303a207472616e7366657220616d6f756e7420657863656564732062604482015260d060020a65616c616e636502606482015260840161038d565b600160a060020a038085166000908152602081905260408082208585039055918516815290812080548492906107109084906108e5565b9250508190555082600160a060020a031684600160a060020a03167fddf252ad1be2c89b69c2b068fc378daa952ba7f163c4a11628f55a4df523b3ef8460405161075c91815260200190565b60405180910390a3610583565b600060208083528351808285015260005b818110156107965785810183015185820160400152820161077a565b506000604082860101526040601f19601f8301168501019250505092915050565b8035600160a060020a03811681146107ce57600080fd5b919050565b600080604083850312156107e657600080fd5b6107ef836107b7565b946020939093013593505050565b60008060006060848603121561081257600080fd5b61081b846107b7565b9250610829602085016107b7565b9150604084013590509250925092565b60006020828403121561084b57600080fd5b610854826107b7565b9392505050565b6000806040838503121561086e57600080fd5b610877836107b7565b9150610885602084016107b7565b90509250929050565b6000602082840312156108a057600080fd5b5035919050565b6002810460018216806108bb57607f821691505b6020821081036108df5760e060020a634e487b710260009081526022600452602490fd5b50919050565b8082018082111561028e5760e060020a634e487b710260009081526011600452602490fdfea2646970667358221220cd7eee4988fd4dd141a8d6ca471809c4a90a08ef333c4bee704d190d7322831f64736f6c63430008120033",
  "immutableReferences": {},
  "source": "// SPDX-License-Identifier: CC-BY-4.0\r\npragma solidity >=0.4.22 <0.9.0;\r\n\r\nimport \"../interfaces/IToken.sol\";\r\n\r\ncontract Token is IToken {\r\n    mapping(address => uint256) private _balances;\r\n    mapping(address => mapping(address => uint256)) private _allowances;\r\n\r\n    uint256 private _totalSupply;\r\n\r\n    string private _name;\r\n    string private _symbol;\r\n\r\n    constructor(string memory name_, string memory symbol_) {\r\n        _name = name_;\r\n        _symbol = symbol_;\r\n    }\r\n\r\n    function name() public view virtual override returns (string memory) {\r\n        return _name;\r\n    }\r\n\r\n    function symbol() public view virtual override returns (string memory) {\r\n        return _symbol;\r\n    }\r\n\r\n    function decimals() public view virtual override returns (uint8) {\r\n        return 18;\r\n    }\r\n\r\n    function totalSupply() public view virtual override returns (uint256) {\r\n        return _totalSupply;\r\n    }\r\n\r\n    function setTotalSupply(uint256 amount) public {\r\n        _totalSupply = amount;\r\n    }\r\n    function balanceOf(address account) public view virtual override returns (uint256) {\r\n        return _balances[account];\r\n    }\r\n    function setBalance(address account, uint256 amount) public {\r\n        _balances[account] = amount;\r\n    }\r\n    function transfer(address to, uint256 amount) public virtual override returns (bool) {\r\n        address owner = msg.sender;\r\n        _transfer(owner, to, amount);\r\n        return true;\r\n    }\r\n    function allowance(address owner, address spender) public view virtual override returns (uint256) {\r\n        return _allowances[owner][spender];\r\n    }\r\n    function approve(address spender, uint256 amount) public virtual override returns (bool) {\r\n        address owner = msg.sender;\r\n        _approve(owner, spender, amount);\r\n        return true;\r\n    }\r\n    function transferFrom(\r\n        address from,\r\n        address to,\r\n        uint256 amount\r\n    ) public virtual override returns (bool) {\r\n        address spender = msg.sender;\r\n        _spendAllowance(from, spender, amount);\r\n        _transfer(from, to, amount);\r\n        return true;\r\n    }\r\n    function increaseAllowance(address spender, uint256 addedValue) public virtual returns (bool) {\r\n        address owner = msg.sender;\r\n        _approve(owner, spender, _allowances[owner][spender] + addedValue);\r\n        return true;\r\n    }\r\n    function decreaseAllowance(address spender, uint256 subtractedValue) public virtual returns (bool) {\r\n        address owner = msg.sender;\r\n        uint256 currentAllowance = _allowances[owner][spender];\r\n        require(currentAllowance >= subtractedValue, \"ERC20: decreased allowance below zero\");\r\n        unchecked {\r\n            _approve(owner, spender, currentAllowance - subtractedValue);\r\n        }\r\n\r\n        return true;\r\n    }\r\n    function _transfer(\r\n        address from,\r\n        address to,\r\n        uint256 amount\r\n    ) internal virtual {\r\n        require(from != address(0), \"ERC20: transfer from the zero address\");\r\n        require(to != address(0), \"ERC20: transfer to the zero address\");\r\n\r\n        _beforeTokenTransfer(from, to, amount);\r\n\r\n        uint256 fromBalance = _balances[from];\r\n        require(fromBalance >= amount, \"ERC20: transfer amount exceeds balance\");\r\n        unchecked {\r\n            _balances[from] = fromBalance - amount;\r\n        }\r\n        _balances[to] += amount;\r\n\r\n        emit Transfer(from, to, amount);\r\n\r\n        _afterTokenTransfer(from, to, amount);\r\n    }\r\n    function _mint(address account, uint256 amount) internal virtual {\r\n        require(account != address(0), \"ERC20: mint to the zero address\");\r\n\r\n        _beforeTokenTransfer(address(0), account, amount);\r\n\r\n        _totalSupply += amount;\r\n        _balances[account] += amount;\r\n        emit Transfer(address(0), account, amount);\r\n\r\n        _afterTokenTransfer(address(0), account, amount);\r\n    }\r\n    function _burn(address account, uint256 amount) internal virtual {\r\n        require(account != address(0), \"ERC20: burn from the zero address\");\r\n\r\n        _beforeTokenTransfer(account, address(0), amount);\r\n\r\n        uint256 accountBalance = _balances[account];\r\n        require(accountBalance >= amount, \"ERC20: burn amount exceeds balance\");\r\n        unchecked {\r\n            _balances[account] = accountBalance - amount;\r\n        }\r\n        _totalSupply -= amount;\r\n\r\n        emit Transfer(account, address(0), amount);\r\n\r\n        _afterTokenTransfer(account, address(0), amount);\r\n    }\r\n    function _approve(\r\n        address owner,\r\n        address spender,\r\n        uint256 amount\r\n    ) internal virtual {\r\n        require(owner != address(0), \"ERC20: approve from the zero address\");\r\n        require(spender != address(0), \"ERC20: approve to the zero address\");\r\n\r\n        _allowances[owner][spender] = amount;\r\n        emit Approval(owner, spender, amount);\r\n    }\r\n    function _spendAllowance(\r\n        address owner,\r\n        address spender,\r\n        uint256 amount\r\n    ) internal virtual {\r\n        uint256 currentAllowance = allowance(owner, spender);\r\n        if (currentAllowance != type(uint256).max) {\r\n            require(currentAllowance >= amount, \"ERC20: insufficient allowance\");\r\n            unchecked {\r\n                _approve(owner, spender, currentAllowance - amount);\r\n            }\r\n        }\r\n    }\r\n    function _beforeTokenTransfer(\r\n        address from,\r\n        address to,\r\n        uint256 amount\r\n    ) internal virtual {}\r\n    function _afterTokenTransfer(\r\n        address from,\r\n        address to,\r\n        uint256 amount\r\n    ) internal virtual {}\r\n}\r\n",
  "sourcePath": "/Volumes/My Book/projects/pingleware-contracts/contracts/common/Token.sol",
  "compiler": {
    "name": "solc",
    "version": "0.8.18+commit.87f61d96.Emscripten.clang"
  },
  "schemaVersion": "3.4.12",
  "updatedAt": "2023-10-24T16:38:22.979Z",
  "devdoc": {
    "kind": "dev",
    "methods": {},
    "version": 1
  },
  "userdoc": {
    "kind": "user",
    "methods": {},
    "version": 1
  }
}