{
  "contractName": "TokenManager",
  "abi": [
    {
      "anonymous": false,
      "inputs": [
        {
          "indexed": false,
          "internalType": "address",
          "name": "",
          "type": "address"
        },
        {
          "indexed": false,
          "internalType": "string",
          "name": "",
          "type": "string"
        },
        {
          "indexed": false,
          "internalType": "string",
          "name": "",
          "type": "string"
        },
        {
          "indexed": false,
          "internalType": "uint256",
          "name": "",
          "type": "uint256"
        }
      ],
      "name": "AssignedOffering",
      "type": "event"
    },
    {
      "anonymous": false,
      "inputs": [
        {
          "indexed": false,
          "internalType": "string",
          "name": "",
          "type": "string"
        }
      ],
      "name": "DelistedToken",
      "type": "event"
    },
    {
      "anonymous": false,
      "inputs": [
        {
          "indexed": false,
          "internalType": "address",
          "name": "_sender",
          "type": "address"
        }
      ],
      "name": "Sender",
      "type": "event"
    },
    {
      "anonymous": false,
      "inputs": [
        {
          "indexed": false,
          "internalType": "address",
          "name": "",
          "type": "address"
        },
        {
          "indexed": false,
          "internalType": "address",
          "name": "",
          "type": "address"
        }
      ],
      "name": "UpdatedListingAddress",
      "type": "event"
    },
    {
      "anonymous": false,
      "inputs": [
        {
          "indexed": false,
          "internalType": "string",
          "name": "",
          "type": "string"
        },
        {
          "indexed": false,
          "internalType": "string",
          "name": "",
          "type": "string"
        }
      ],
      "name": "UpdatedListingName",
      "type": "event"
    },
    {
      "anonymous": false,
      "inputs": [
        {
          "indexed": false,
          "internalType": "string",
          "name": "",
          "type": "string"
        },
        {
          "indexed": false,
          "internalType": "string",
          "name": "",
          "type": "string"
        }
      ],
      "name": "UpdatedListingOfferingType",
      "type": "event"
    },
    {
      "inputs": [],
      "name": "getOwner",
      "outputs": [
        {
          "internalType": "address",
          "name": "",
          "type": "address"
        }
      ],
      "stateMutability": "view",
      "type": "function",
      "constant": true
    },
    {
      "inputs": [
        {
          "internalType": "address",
          "name": "tokenAddress",
          "type": "address"
        },
        {
          "internalType": "address",
          "name": "issuer",
          "type": "address"
        },
        {
          "internalType": "string",
          "name": "name",
          "type": "string"
        },
        {
          "internalType": "string",
          "name": "symbol",
          "type": "string"
        },
        {
          "internalType": "uint256",
          "name": "totalSupply",
          "type": "uint256"
        },
        {
          "internalType": "string",
          "name": "regulation",
          "type": "string"
        }
      ],
      "name": "assignToken",
      "outputs": [],
      "stateMutability": "nonpayable",
      "type": "function"
    },
    {
      "inputs": [
        {
          "internalType": "string",
          "name": "symbol",
          "type": "string"
        },
        {
          "internalType": "string",
          "name": "name",
          "type": "string"
        }
      ],
      "name": "updateTokenName",
      "outputs": [],
      "stateMutability": "nonpayable",
      "type": "function"
    },
    {
      "inputs": [
        {
          "internalType": "string",
          "name": "symbol",
          "type": "string"
        },
        {
          "internalType": "address",
          "name": "tokenAddress",
          "type": "address"
        }
      ],
      "name": "updateTokenAddress",
      "outputs": [],
      "stateMutability": "nonpayable",
      "type": "function"
    },
    {
      "inputs": [
        {
          "internalType": "string",
          "name": "symbol",
          "type": "string"
        },
        {
          "internalType": "string",
          "name": "regulation",
          "type": "string"
        }
      ],
      "name": "updateTokenOfferingType",
      "outputs": [],
      "stateMutability": "nonpayable",
      "type": "function"
    },
    {
      "inputs": [
        {
          "internalType": "string",
          "name": "symbol",
          "type": "string"
        }
      ],
      "name": "removeToken",
      "outputs": [],
      "stateMutability": "nonpayable",
      "type": "function"
    },
    {
      "inputs": [
        {
          "internalType": "string",
          "name": "symbol",
          "type": "string"
        }
      ],
      "name": "getToken",
      "outputs": [
        {
          "internalType": "address",
          "name": "",
          "type": "address"
        }
      ],
      "stateMutability": "view",
      "type": "function",
      "constant": true
    },
    {
      "inputs": [
        {
          "internalType": "string",
          "name": "symbol",
          "type": "string"
        }
      ],
      "name": "getTokenRegulation",
      "outputs": [
        {
          "internalType": "string",
          "name": "",
          "type": "string"
        }
      ],
      "stateMutability": "view",
      "type": "function",
      "constant": true
    }
  ],
  "bytecode": "0x608060405234801561001057600080fd5b5060008054600160a060020a0319163317905561103a806100326000396000f3fe608060405234801561001057600080fd5b506004361061007b5760e060020a60003504631f45592281146100805780632efc7a941461009557806333133069146100a8578063893d20e8146100bb578063a3524b71146100e5578063c1733f68146100f8578063dc03720e1461010b578063e559f2c61461011e575b600080fd5b61009361008e366004610a85565b61013e565b005b6100936100a3366004610ae2565b61023a565b6100936100b6366004610b35565b610345565b600054600160a060020a03165b604051600160a060020a0390911681526020015b60405180910390f35b6100936100f3366004610b35565b6104c3565b6100c8610106366004610a85565b61062d565b610093610119366004610ba0565b6106bd565b61013161012c366004610a85565b6108d8565b6040516100dc9190610cac565b6000600160a060020a03166001838360405161015b929190610cc6565b90815260405190819003602001902060020154600160a060020a0316036101a05760405160e560020a62461bcd02815260040161019790610cd6565b60405180910390fd5b600182826040516101b2929190610cc6565b90815260405190819003602001902060006101cd82826109e7565b6101db6001830160006109e7565b600282018054600160a060020a03191690556101fb6003830160006109e7565b50507f8da5b5de52f3c60dd5507e77a3fcef818b791b814b115210b395bf053ce61242828260405161022e929190610d36565b60405180910390a15050565b6000600160a060020a031660018484604051610257929190610cc6565b90815260405190819003602001902060020154600160a060020a0316036102935760405160e560020a62461bcd02815260040161019790610cd6565b6000600184846040516102a7929190610cc6565b90815260405190819003602001812060020154600160a060020a0316915082906001906102d79087908790610cc6565b90815260408051602092819003830181206002018054600160a060020a031916600160a060020a039586161790558484168152928516918301919091527f05785b3d34000b06be75c67a88250f4e28ef436d95282c0a4bbff94ce781d0df910160405180910390a150505050565b6000600160a060020a031660018585604051610362929190610cc6565b90815260405190819003602001902060020154600160a060020a03160361039e5760405160e560020a62461bcd02815260040161019790610cd6565b6000600185856040516103b2929190610cc6565b908152602001604051809103902060030180546103ce90610d52565b80601f01602080910402602001604051908101604052809291908181526020018280546103fa90610d52565b80156104475780601f1061041c57610100808354040283529160200191610447565b820191906000526020600020905b81548152906001019060200180831161042a57829003601f168201915b50505050509050828260018787604051610462929190610cc6565b90815260200160405180910390206003019182610480929190610e10565b507fda56e6d395fdbed66984eee5bbd3574d57c129f7b7bdcc5bd014d49d10ce0e818184846040516104b493929190610ecd565b60405180910390a15050505050565b6000600160a060020a0316600185856040516104e0929190610cc6565b90815260405190819003602001902060020154600160a060020a03160361051c5760405160e560020a62461bcd02815260040161019790610cd6565b600060018585604051610530929190610cc6565b908152604051908190036020019020805461054a90610d52565b80601f016020809104026020016040519081016040528092919081815260200182805461057690610d52565b80156105c35780601f10610598576101008083540402835291602001916105c3565b820191906000526020600020905b8154815290600101906020018083116105a657829003601f168201915b505050505090508282600187876040516105de929190610cc6565b908152604051908190036020019020916105f9919083610e10565b507fac2efe13b901975d517ba58c8f9b18fb0ae771d5fc3374f5b70277547d60b6ec8184846040516104b493929190610ecd565b600080600160a060020a03166001848460405161064b929190610cc6565b90815260405190819003602001902060020154600160a060020a0316036106875760405160e560020a62461bcd02815260040161019790610cd6565b60018383604051610699929190610cc6565b90815260405190819003602001902060020154600160a060020a0316905092915050565b6000600160a060020a0316600186866040516106da929190610cc6565b90815260405190819003602001902060020154600160a060020a0316146107405760405160e560020a62461bcd0281526020600482015260146024820152606060020a73546f6b656e20616c726561647920657869737473026044820152606401610197565b604051806080016040528088888080601f016020809104026020016040519081016040528093929190818152602001838380828437600092019190915250505090825250604080516020601f890181900481028201810190925287815291810191908890889081908401838280828437600092019190915250505090825250600160a060020a038b1660208083019190915260408051601f86018390048302810183018252858152920191908590859081908401838280828437600092019190915250505091525060405160019061081b9088908890610cc6565b908152604051908190036020019020815181906108389082610efd565b506020820151600182019061084d9082610efd565b506040820151600282018054600160a060020a031916600160a060020a03909216919091179055606082015160038201906108889082610efd565b509050507f2cf94463399a921af44bea76fefe33b27ec7737791c197a178dc19e6116231f98888888888886040516108c596959493929190610fb8565b60405180910390a1505050505050505050565b60606000600160a060020a0316600184846040516108f7929190610cc6565b90815260405190819003602001902060020154600160a060020a0316036109335760405160e560020a62461bcd02815260040161019790610cd6565b60018383604051610945929190610cc6565b9081526020016040518091039020600301805461096190610d52565b80601f016020809104026020016040519081016040528092919081815260200182805461098d90610d52565b80156109da5780601f106109af576101008083540402835291602001916109da565b820191906000526020600020905b8154815290600101906020018083116109bd57829003601f168201915b5050505050905092915050565b5080546109f390610d52565b6000825580601f10610a03575050565b601f016020900490600052602060002090810190610a219190610a24565b50565b5b80821115610a395760008155600101610a25565b5090565b60008083601f840112610a4f57600080fd5b5081356001604060020a03811115610a6657600080fd5b602083019150836020828501011115610a7e57600080fd5b9250929050565b60008060208385031215610a9857600080fd5b82356001604060020a03811115610aae57600080fd5b610aba85828601610a3d565b90969095509350505050565b8035600160a060020a0381168114610add57600080fd5b919050565b600080600060408486031215610af757600080fd5b83356001604060020a03811115610b0d57600080fd5b610b1986828701610a3d565b9094509250610b2c905060208501610ac6565b90509250925092565b60008060008060408587031215610b4b57600080fd5b84356001604060020a0380821115610b6257600080fd5b610b6e88838901610a3d565b90965094506020870135915080821115610b8757600080fd5b50610b9487828801610a3d565b95989497509550505050565b600080600080600080600080600060c08a8c031215610bbe57600080fd5b610bc78a610ac6565b9850610bd560208b01610ac6565b975060408a01356001604060020a0380821115610bf157600080fd5b610bfd8d838e01610a3d565b909950975060608c0135915080821115610c1657600080fd5b610c228d838e01610a3d565b909750955060808c0135945060a08c0135915080821115610c4257600080fd5b50610c4f8c828d01610a3d565b915080935050809150509295985092959850929598565b6000815180845260005b81811015610c8c57602081850181015186830182015201610c70565b506000602082860101526020601f19601f83011685010191505092915050565b602081526000610cbf6020830184610c66565b9392505050565b8183823760009101908152919050565b6020808252601a908201527f746f6b656e206e6f7420666f756e6420666f722073796d626f6c000000000000604082015260600190565b81835281816020850137506000828201602090810191909152601f909101601f19169091010190565b602081526000610d4a602083018486610d0d565b949350505050565b600281046001821680610d6657607f821691505b602082108103610d8a5760e060020a634e487b710260009081526022600452602490fd5b50919050565b60e060020a634e487b710260009081526041600452602490fd5b601f821115610df4576000818152602081206020601f86010481016020861015610dd15750805b6020601f860104820191505b81811015610df057828155600101610ddd565b5050505b505050565b6002808302600893909302900a6000190419161790565b6001604060020a03831115610e2757610e27610d90565b610e3b83610e358354610d52565b83610daa565b6000601f841160018114610e695760008515610e575750838201355b610e618682610df9565b845550610ec6565b600083815260209020601f19861690835b82811015610e9a5786850135825560209485019460019092019101610e7a565b5086821015610eba57858401356008601f89160260020a60001904191681555b50506001600286020183555b5050505050565b604081526000610ee06040830186610c66565b8281036020840152610ef3818587610d0d565b9695505050505050565b81516001604060020a03811115610f1657610f16610d90565b610f2a81610f248454610d52565b84610daa565b602080601f831160018114610f595760008415610f475750858301515b610f518582610df9565b865550610df0565b600085815260208120601f198616915b82811015610f8857888601518255948401946001909101908401610f69565b5085821015610fa857878501516008601f88160260020a60001904191681555b5050505050600202600101905550565b600160a060020a0387168152608060208201819052600090610fdd9083018789610d0d565b8281036040840152610ff0818688610d0d565b91505082606083015297965050505050505056fea26469706673582212203d2396245ada76e3590a8720c0aa26c42c8abcb39bd78ea6784127cfd03028b664736f6c63430008120033",
  "immutableReferences": {},
  "source": "// SPDX-License-Identifier: BSL-1.1\npragma solidity >=0.4.22 <0.9.0;\n\nimport \"../../interfaces/ITokenManager.sol\";\nimport \"./AccessControl.sol\";\n\ncontract TokenManager is ITokenManager, AccessControl {\n\n    mapping(string => TOKEN) private tokenContracts;\n\n\n    // Add functions for token management here\n    function assignToken(address tokenAddress, address issuer, string calldata name, string calldata symbol, uint256 totalSupply, string calldata regulation) external  {\n        require(tokenContracts[symbol].tokenAddress == address(0), \"Token already exists\");\n\n        tokenContracts[symbol] = TOKEN(name,symbol,tokenAddress,regulation);\n \n        emit AssignedOffering(issuer,name,symbol,totalSupply);\n    }\n    function updateTokenName(string calldata symbol,string calldata name)  external  {\n        require(tokenContracts[symbol].tokenAddress != address(0x0),\"token not found for symbol\");\n        string memory oldName = tokenContracts[symbol].name;\n        tokenContracts[symbol].name = name;\n\n        emit UpdatedListingName(oldName,name);\n    }\n    function updateTokenAddress(string calldata symbol,address tokenAddress)  external  {\n        require(tokenContracts[symbol].tokenAddress != address(0x0),\"token not found for symbol\");\n        address oldToken = tokenContracts[symbol].tokenAddress;\n        tokenContracts[symbol].tokenAddress = tokenAddress;\n\n        emit UpdatedListingAddress(oldToken,tokenAddress);\n    }\n    function updateTokenOfferingType(string calldata symbol,string calldata regulation)  external  {\n        require(tokenContracts[symbol].tokenAddress != address(0x0),\"token not found for symbol\");\n        string memory oldRegulation = tokenContracts[symbol].regulation;\n        tokenContracts[symbol].regulation = regulation;\n\n        emit UpdatedListingOfferingType(oldRegulation,regulation);\n    }\n    function removeToken(string calldata symbol)  external  {\n        require(tokenContracts[symbol].tokenAddress != address(0x0),\"token not found for symbol\");\n        delete tokenContracts[symbol];\n        emit DelistedToken(symbol);\n    }\n    function getToken(string calldata symbol)  external view  returns (address) {\n        require(tokenContracts[symbol].tokenAddress != address(0x0),\"token not found for symbol\");\n        return tokenContracts[symbol].tokenAddress;\n    }\n    function getTokenRegulation(string calldata symbol)  external view  returns (string memory) {\n        require(tokenContracts[symbol].tokenAddress != address(0x0),\"token not found for symbol\");\n        return tokenContracts[symbol].regulation;\n    }\n\n}\n",
  "sourcePath": "/Volumes/My Book/projects/pingleware-contracts/contracts/finance/elmx/TokenManager.sol",
  "compiler": {
    "name": "solc",
    "version": "0.8.18+commit.87f61d96.Emscripten.clang"
  },
  "schemaVersion": "3.4.12",
  "updatedAt": "2023-10-24T12:19:30.024Z",
  "networkType": "ethereum",
  "devdoc": {
    "kind": "dev",
    "methods": {},
    "version": 1
  },
  "userdoc": {
    "kind": "user",
    "methods": {},
    "version": 1
  }
}