{
  "contractName": "Token",
  "abi": [
    {
      "inputs": [
        {
          "internalType": "string",
          "name": "name_",
          "type": "string"
        },
        {
          "internalType": "string",
          "name": "symbol_",
          "type": "string"
        }
      ],
      "stateMutability": "nonpayable",
      "type": "constructor"
    },
    {
      "anonymous": false,
      "inputs": [
        {
          "indexed": true,
          "internalType": "address",
          "name": "tokenOwner",
          "type": "address"
        },
        {
          "indexed": true,
          "internalType": "address",
          "name": "spender",
          "type": "address"
        },
        {
          "indexed": false,
          "internalType": "uint256",
          "name": "tokens",
          "type": "uint256"
        }
      ],
      "name": "Approval",
      "type": "event"
    },
    {
      "anonymous": false,
      "inputs": [
        {
          "indexed": true,
          "internalType": "address",
          "name": "tokenHolder",
          "type": "address"
        }
      ],
      "name": "Buyerlist",
      "type": "event"
    },
    {
      "anonymous": false,
      "inputs": [
        {
          "indexed": true,
          "internalType": "address",
          "name": "from",
          "type": "address"
        },
        {
          "indexed": true,
          "internalType": "address",
          "name": "to",
          "type": "address"
        },
        {
          "indexed": false,
          "internalType": "uint256",
          "name": "tokens",
          "type": "uint256"
        }
      ],
      "name": "Transfer",
      "type": "event"
    },
    {
      "anonymous": false,
      "inputs": [
        {
          "indexed": true,
          "internalType": "address",
          "name": "tokenHolder",
          "type": "address"
        },
        {
          "indexed": false,
          "internalType": "uint256",
          "name": "amount",
          "type": "uint256"
        }
      ],
      "name": "issueDivi",
      "type": "event"
    },
    {
      "anonymous": false,
      "inputs": [
        {
          "indexed": false,
          "internalType": "uint256",
          "name": "fromtime",
          "type": "uint256"
        },
        {
          "indexed": false,
          "internalType": "uint256",
          "name": "totime",
          "type": "uint256"
        },
        {
          "indexed": false,
          "internalType": "uint256",
          "name": "rate",
          "type": "uint256"
        },
        {
          "indexed": false,
          "internalType": "uint256",
          "name": "supply",
          "type": "uint256"
        }
      ],
      "name": "startSale",
      "type": "event"
    },
    {
      "inputs": [],
      "name": "name",
      "outputs": [
        {
          "internalType": "string",
          "name": "",
          "type": "string"
        }
      ],
      "stateMutability": "view",
      "type": "function"
    },
    {
      "inputs": [],
      "name": "symbol",
      "outputs": [
        {
          "internalType": "string",
          "name": "",
          "type": "string"
        }
      ],
      "stateMutability": "view",
      "type": "function"
    },
    {
      "inputs": [],
      "name": "decimals",
      "outputs": [
        {
          "internalType": "uint8",
          "name": "",
          "type": "uint8"
        }
      ],
      "stateMutability": "view",
      "type": "function"
    },
    {
      "inputs": [],
      "name": "totalSupply",
      "outputs": [
        {
          "internalType": "uint256",
          "name": "",
          "type": "uint256"
        }
      ],
      "stateMutability": "view",
      "type": "function"
    },
    {
      "inputs": [
        {
          "internalType": "uint256",
          "name": "amount",
          "type": "uint256"
        }
      ],
      "name": "setTotalSupply",
      "outputs": [],
      "stateMutability": "nonpayable",
      "type": "function"
    },
    {
      "inputs": [
        {
          "internalType": "address",
          "name": "account",
          "type": "address"
        }
      ],
      "name": "balanceOf",
      "outputs": [
        {
          "internalType": "uint256",
          "name": "",
          "type": "uint256"
        }
      ],
      "stateMutability": "view",
      "type": "function"
    },
    {
      "inputs": [
        {
          "internalType": "address",
          "name": "account",
          "type": "address"
        },
        {
          "internalType": "uint256",
          "name": "amount",
          "type": "uint256"
        }
      ],
      "name": "setBalance",
      "outputs": [],
      "stateMutability": "nonpayable",
      "type": "function"
    },
    {
      "inputs": [
        {
          "internalType": "address",
          "name": "to",
          "type": "address"
        },
        {
          "internalType": "uint256",
          "name": "amount",
          "type": "uint256"
        }
      ],
      "name": "transfer",
      "outputs": [
        {
          "internalType": "bool",
          "name": "",
          "type": "bool"
        }
      ],
      "stateMutability": "nonpayable",
      "type": "function"
    },
    {
      "inputs": [
        {
          "internalType": "address",
          "name": "owner",
          "type": "address"
        },
        {
          "internalType": "address",
          "name": "spender",
          "type": "address"
        }
      ],
      "name": "allowance",
      "outputs": [
        {
          "internalType": "uint256",
          "name": "",
          "type": "uint256"
        }
      ],
      "stateMutability": "view",
      "type": "function"
    },
    {
      "inputs": [
        {
          "internalType": "address",
          "name": "spender",
          "type": "address"
        },
        {
          "internalType": "uint256",
          "name": "amount",
          "type": "uint256"
        }
      ],
      "name": "approve",
      "outputs": [
        {
          "internalType": "bool",
          "name": "",
          "type": "bool"
        }
      ],
      "stateMutability": "nonpayable",
      "type": "function"
    },
    {
      "inputs": [
        {
          "internalType": "address",
          "name": "from",
          "type": "address"
        },
        {
          "internalType": "address",
          "name": "to",
          "type": "address"
        },
        {
          "internalType": "uint256",
          "name": "amount",
          "type": "uint256"
        }
      ],
      "name": "transferFrom",
      "outputs": [
        {
          "internalType": "bool",
          "name": "",
          "type": "bool"
        }
      ],
      "stateMutability": "nonpayable",
      "type": "function"
    },
    {
      "inputs": [
        {
          "internalType": "address",
          "name": "spender",
          "type": "address"
        },
        {
          "internalType": "uint256",
          "name": "addedValue",
          "type": "uint256"
        }
      ],
      "name": "increaseAllowance",
      "outputs": [
        {
          "internalType": "bool",
          "name": "",
          "type": "bool"
        }
      ],
      "stateMutability": "nonpayable",
      "type": "function"
    },
    {
      "inputs": [
        {
          "internalType": "address",
          "name": "spender",
          "type": "address"
        },
        {
          "internalType": "uint256",
          "name": "subtractedValue",
          "type": "uint256"
        }
      ],
      "name": "decreaseAllowance",
      "outputs": [
        {
          "internalType": "bool",
          "name": "",
          "type": "bool"
        }
      ],
      "stateMutability": "nonpayable",
      "type": "function"
    }
  ],
  "bytecode": "0x6080604052346200037d5762000d3b803803806200001d8162000382565b9283398101906040818303126200037d578051906001604060020a03918281116200037d578362000050918301620003a8565b90602093848201518481116200037d576200006c9201620003a8565b908051918383116200024357600354600293848204936001809316801562000372575b8886101462000343578190601f95868111620002ed575b5088908683116001146200027e5760009262000272575b505060088202860a600019041916908502176003555b815194851162000243576004958654828682049116801562000238575b828210146200020a57848111620001c1575b50809380871160011462000151575050509083929160009362000145575b505082810292600802900a6000190419161790555b60405161092090816200041b8239f35b01519150388062000120565b919593909284601f1981168960005285600020956000905b8a838310620001a657505050106200018a575b505050500201905562000135565b0151908316600802840a6000190419169055388080806200017c565b85870151895590970196948501948893509081019062000169565b8760005281600020828681818b0104830193828b1062000200575b0104019083905b828110620001f357505062000102565b60008155018390620001e3565b93508293620001dc565b6022887f4e487b71000000000000000000000000000000000000000000000000000000006000525260246000fd5b90607f1690620000f0565b7f4e487b7100000000000000000000000000000000000000000000000000000000600052604160045260246000fd5b015190503880620000bd565b849350879291601f1983169160036000528b6000209260005b8d828210620002d35750508411620002b8575b5050500201600355620000d3565b0151600883891602840a6000190419169055388080620002aa565b84840151865589988d985090950194938401930162000297565b9091506003600052886000208987818187010483019382871062000339575b9186959493918893010401915b82811062000329575050620000a6565b6000815585945086910162000319565b935082936200030c565b7f4e487b7100000000000000000000000000000000000000000000000000000000600052602260045260246000fd5b94607f16946200008f565b600080fd5b6040519190601f01601f191682016001604060020a038111838210176200024357604052565b919080601f840112156200037d5782516001604060020a0381116200024357602090620003de601f8201601f1916830162000382565b928184528282870101116200037d5760005b8181106200040657508260009394955001015290565b8581018301518482018401528201620003f056fe60806040908082526004908136101561001757600080fd5b60009260e060020a843504916306fdde0383146104f557508163095ea7b3146104cb57816318160ddd146104ac57816323b872dd146103dc578163313ce567146103c0578163395093511461037057816370a082311461033957816395d89b4114610232578163a457c2d714610181578163a9059cbb14610150578163dd62ed3e14610107578163e30443bc146100d4575063f7ea7a3d146100b857600080fd5b346100d05760203660031901126100d0573560025580f35b5080fd5b8390346100d057806003193601126100d057600160a060020a036100f66105fd565b168252816020526024359082205580f35b8390346100d057806003193601126100d057806020926101256105fd565b61012d610618565b600160a060020a0391821683526001865283832091168252845220549051908152f35b8390346100d057806003193601126100d05760209061017a6101706105fd565b6024359033610655565b5160018152f35b82843461022f578260031936011261022f5761019b6105fd565b9183602435923381526001602052818120600160a060020a03861682526020522054908282106101d55760208561017a85850387336107dc565b845160e560020a62461bcd028152602091810191909152602560248201527f45524332303a2064656372656173656420616c6c6f77616e63652062656c6f77604482015260d860020a64207a65726f026064820152608490fd5b80fd5b839150346100d057816003193601126100d05780519082845460028104600180831692831561032f575b6020938484108114610319578388529081156102fe57506001146102c6575b505050829003601f01601f19168201926001604060020a038411838510176102b057508291826102ac9252826105b4565b0390f35b60e060020a634e487b7102815260418552602490fd5b919250868652828620918387935b8385106102ea575050505083010185808061027b565b8054888601830152930192849082016102d4565b60ff191687850152505015158102840101905085808061027b565b60e060020a634e487b7102895260228a52602489fd5b91607f169161025c565b8390346100d05760203660031901126100d0576020918190600160a060020a036103616105fd565b16815280845220549051908152f35b8390346100d057806003193601126100d05761017a6020926103b96103936105fd565b33835260018652848320600160a060020a0382168452865291849020546024359061062e565b90336107dc565b8390346100d057816003193601126100d0576020905160128152f35b8383346100d05760603660031901126100d0576103f76105fd565b6103ff610618565b918460443594600160a060020a03841681526001602052818120338252602052205490600019820361043a575b60208661017a878787610655565b84821061046357509183916104586020969561017a950333836107dc565b91939481935061042c565b855160e560020a62461bcd028152602091810191909152601d60248201527f45524332303a20696e73756666696369656e7420616c6c6f77616e63650000006044820152606490fd5b8390346100d057816003193601126100d0576020906002549051908152f35b8390346100d057806003193601126100d05760209061017a6104eb6105fd565b60243590336107dc565b90849250346105b057826003193601126105b057826003546002810460018083169283156105a6575b6020938484108114610319578388529081156102fe575060011461056d57505050829003601f01601f19168201926001604060020a038411838510176102b057508291826102ac9252826105b4565b91925060038652828620918387935b838510610592575050505083010185808061027b565b80548886018301529301928490820161057c565b91607f169161051e565b8280fd5b6020808252825181830181905290939260005b8281106105e957505060409293506000838284010152601f8019910116010190565b8181018601518482016040015285016105c7565b60043590600160a060020a038216820361061357565b600080fd5b60243590600160a060020a038216820361061357565b9190820180921161063b57565b60e060020a634e487b710260009081526011600452602490fd5b600160a060020a03908116918215610783571691821561072c576000828152806020526040812054918083106106d257604082827fddf252ad1be2c89b69c2b068fc378daa952ba7f163c4a11628f55a4df523b3ef9587602096528286520382822055868152206106c782825461062e565b9055604051908152a3565b60405160e560020a62461bcd02815260206004820152602660248201527f45524332303a207472616e7366657220616d6f756e7420657863656564732062604482015260d060020a65616c616e6365026064820152608490fd5b60405160e560020a62461bcd02815260206004820152602360248201527f45524332303a207472616e7366657220746f20746865207a65726f2061646472604482015260e860020a62657373026064820152608490fd5b60405160e560020a62461bcd02815260206004820152602560248201527f45524332303a207472616e736665722066726f6d20746865207a65726f206164604482015260d860020a646472657373026064820152608490fd5b600160a060020a03908116918215610893571691821561083d5760207f8c5be1e5ebec7d5bd14f71427d1e84f3dd0314c0f7b2291e5b200ac8c7c3b925918360005260018252604060002085600052825280604060002055604051908152a3565b60405160e560020a62461bcd02815260206004820152602260248201527f45524332303a20617070726f766520746f20746865207a65726f206164647265604482015260f060020a617373026064820152608490fd5b60405160e560020a62461bcd028152602060048201526024808201527f45524332303a20617070726f76652066726f6d20746865207a65726f20616464604482015260e060020a6372657373026064820152608490fdfea2646970667358221220621e26513e72ea6a49aae581fedee4c113ba45eb8a171f893a5e187c768ea09a64736f6c63430008120033",
  "immutableReferences": {},
  "source": "// SPDX-License-Identifier: CC-BY-4.0\r\npragma solidity >=0.4.22 <0.9.0;\r\n\r\nimport \"../interfaces/IToken.sol\";\r\n\r\ncontract Token is IToken {\r\n    mapping(address => uint256) private _balances;\r\n    mapping(address => mapping(address => uint256)) private _allowances;\r\n\r\n    uint256 private _totalSupply;\r\n\r\n    string private _name;\r\n    string private _symbol;\r\n\r\n    constructor(string memory name_, string memory symbol_) {\r\n        _name = name_;\r\n        _symbol = symbol_;\r\n    }\r\n\r\n    function name() public view virtual override returns (string memory) {\r\n        return _name;\r\n    }\r\n\r\n    function symbol() public view virtual override returns (string memory) {\r\n        return _symbol;\r\n    }\r\n\r\n    function decimals() public view virtual override returns (uint8) {\r\n        return 18;\r\n    }\r\n\r\n    function totalSupply() public view virtual override returns (uint256) {\r\n        return _totalSupply;\r\n    }\r\n\r\n    function setTotalSupply(uint256 amount) public {\r\n        _totalSupply = amount;\r\n    }\r\n    function balanceOf(address account) public view virtual override returns (uint256) {\r\n        return _balances[account];\r\n    }\r\n    function setBalance(address account, uint256 amount) public {\r\n        _balances[account] = amount;\r\n    }\r\n    function transfer(address to, uint256 amount) public virtual override returns (bool) {\r\n        address owner = msg.sender;\r\n        _transfer(owner, to, amount);\r\n        return true;\r\n    }\r\n    function allowance(address owner, address spender) public view virtual override returns (uint256) {\r\n        return _allowances[owner][spender];\r\n    }\r\n    function approve(address spender, uint256 amount) public virtual override returns (bool) {\r\n        address owner = msg.sender;\r\n        _approve(owner, spender, amount);\r\n        return true;\r\n    }\r\n    function transferFrom(\r\n        address from,\r\n        address to,\r\n        uint256 amount\r\n    ) public virtual override returns (bool) {\r\n        address spender = msg.sender;\r\n        _spendAllowance(from, spender, amount);\r\n        _transfer(from, to, amount);\r\n        return true;\r\n    }\r\n    function increaseAllowance(address spender, uint256 addedValue) public virtual returns (bool) {\r\n        address owner = msg.sender;\r\n        _approve(owner, spender, _allowances[owner][spender] + addedValue);\r\n        return true;\r\n    }\r\n    function decreaseAllowance(address spender, uint256 subtractedValue) public virtual returns (bool) {\r\n        address owner = msg.sender;\r\n        uint256 currentAllowance = _allowances[owner][spender];\r\n        require(currentAllowance >= subtractedValue, \"ERC20: decreased allowance below zero\");\r\n        unchecked {\r\n            _approve(owner, spender, currentAllowance - subtractedValue);\r\n        }\r\n\r\n        return true;\r\n    }\r\n    function _transfer(\r\n        address from,\r\n        address to,\r\n        uint256 amount\r\n    ) internal virtual {\r\n        require(from != address(0), \"ERC20: transfer from the zero address\");\r\n        require(to != address(0), \"ERC20: transfer to the zero address\");\r\n\r\n        _beforeTokenTransfer(from, to, amount);\r\n\r\n        uint256 fromBalance = _balances[from];\r\n        require(fromBalance >= amount, \"ERC20: transfer amount exceeds balance\");\r\n        unchecked {\r\n            _balances[from] = fromBalance - amount;\r\n        }\r\n        _balances[to] += amount;\r\n\r\n        emit Transfer(from, to, amount);\r\n\r\n        _afterTokenTransfer(from, to, amount);\r\n    }\r\n    function _mint(address account, uint256 amount) internal virtual {\r\n        require(account != address(0), \"ERC20: mint to the zero address\");\r\n\r\n        _beforeTokenTransfer(address(0), account, amount);\r\n\r\n        _totalSupply += amount;\r\n        _balances[account] += amount;\r\n        emit Transfer(address(0), account, amount);\r\n\r\n        _afterTokenTransfer(address(0), account, amount);\r\n    }\r\n    function _burn(address account, uint256 amount) internal virtual {\r\n        require(account != address(0), \"ERC20: burn from the zero address\");\r\n\r\n        _beforeTokenTransfer(account, address(0), amount);\r\n\r\n        uint256 accountBalance = _balances[account];\r\n        require(accountBalance >= amount, \"ERC20: burn amount exceeds balance\");\r\n        unchecked {\r\n            _balances[account] = accountBalance - amount;\r\n        }\r\n        _totalSupply -= amount;\r\n\r\n        emit Transfer(account, address(0), amount);\r\n\r\n        _afterTokenTransfer(account, address(0), amount);\r\n    }\r\n    function _approve(\r\n        address owner,\r\n        address spender,\r\n        uint256 amount\r\n    ) internal virtual {\r\n        require(owner != address(0), \"ERC20: approve from the zero address\");\r\n        require(spender != address(0), \"ERC20: approve to the zero address\");\r\n\r\n        _allowances[owner][spender] = amount;\r\n        emit Approval(owner, spender, amount);\r\n    }\r\n    function _spendAllowance(\r\n        address owner,\r\n        address spender,\r\n        uint256 amount\r\n    ) internal virtual {\r\n        uint256 currentAllowance = allowance(owner, spender);\r\n        if (currentAllowance != type(uint256).max) {\r\n            require(currentAllowance >= amount, \"ERC20: insufficient allowance\");\r\n            unchecked {\r\n                _approve(owner, spender, currentAllowance - amount);\r\n            }\r\n        }\r\n    }\r\n    function _beforeTokenTransfer(\r\n        address from,\r\n        address to,\r\n        uint256 amount\r\n    ) internal virtual {}\r\n    function _afterTokenTransfer(\r\n        address from,\r\n        address to,\r\n        uint256 amount\r\n    ) internal virtual {}\r\n}\r\n",
  "sourcePath": "/Volumes/HOME/pingleware-contracts/contracts/common/Token.sol",
  "compiler": {
    "name": "solc",
    "version": "0.8.18+commit.87f61d96.Emscripten.clang"
  },
  "schemaVersion": "3.4.12",
  "updatedAt": "2024-05-23T18:56:24.988Z",
  "devdoc": {
    "kind": "dev",
    "methods": {},
    "version": 1
  },
  "userdoc": {
    "kind": "user",
    "methods": {},
    "version": 1
  }
}