{
  "contractName": "TokenManager",
  "abi": [
    {
      "anonymous": false,
      "inputs": [
        {
          "indexed": false,
          "internalType": "address",
          "name": "",
          "type": "address"
        },
        {
          "indexed": false,
          "internalType": "string",
          "name": "",
          "type": "string"
        },
        {
          "indexed": false,
          "internalType": "string",
          "name": "",
          "type": "string"
        },
        {
          "indexed": false,
          "internalType": "uint256",
          "name": "",
          "type": "uint256"
        }
      ],
      "name": "AssignedOffering",
      "type": "event"
    },
    {
      "anonymous": false,
      "inputs": [
        {
          "indexed": false,
          "internalType": "string",
          "name": "",
          "type": "string"
        }
      ],
      "name": "DelistedToken",
      "type": "event"
    },
    {
      "anonymous": false,
      "inputs": [
        {
          "indexed": false,
          "internalType": "address",
          "name": "_sender",
          "type": "address"
        }
      ],
      "name": "Sender",
      "type": "event"
    },
    {
      "anonymous": false,
      "inputs": [
        {
          "indexed": false,
          "internalType": "address",
          "name": "",
          "type": "address"
        },
        {
          "indexed": false,
          "internalType": "address",
          "name": "",
          "type": "address"
        }
      ],
      "name": "UpdatedListingAddress",
      "type": "event"
    },
    {
      "anonymous": false,
      "inputs": [
        {
          "indexed": false,
          "internalType": "string",
          "name": "",
          "type": "string"
        },
        {
          "indexed": false,
          "internalType": "string",
          "name": "",
          "type": "string"
        }
      ],
      "name": "UpdatedListingName",
      "type": "event"
    },
    {
      "anonymous": false,
      "inputs": [
        {
          "indexed": false,
          "internalType": "string",
          "name": "",
          "type": "string"
        },
        {
          "indexed": false,
          "internalType": "string",
          "name": "",
          "type": "string"
        }
      ],
      "name": "UpdatedListingOfferingType",
      "type": "event"
    },
    {
      "inputs": [],
      "name": "getOwner",
      "outputs": [
        {
          "internalType": "address",
          "name": "",
          "type": "address"
        }
      ],
      "stateMutability": "view",
      "type": "function",
      "constant": true
    },
    {
      "inputs": [
        {
          "internalType": "address",
          "name": "tokenAddress",
          "type": "address"
        },
        {
          "internalType": "address",
          "name": "issuer",
          "type": "address"
        },
        {
          "internalType": "string",
          "name": "name",
          "type": "string"
        },
        {
          "internalType": "string",
          "name": "symbol",
          "type": "string"
        },
        {
          "internalType": "uint256",
          "name": "totalSupply",
          "type": "uint256"
        },
        {
          "internalType": "string",
          "name": "regulation",
          "type": "string"
        }
      ],
      "name": "assignToken",
      "outputs": [],
      "stateMutability": "nonpayable",
      "type": "function"
    },
    {
      "inputs": [
        {
          "internalType": "string",
          "name": "symbol",
          "type": "string"
        }
      ],
      "name": "isTokenActive",
      "outputs": [
        {
          "internalType": "bool",
          "name": "",
          "type": "bool"
        }
      ],
      "stateMutability": "view",
      "type": "function",
      "constant": true
    },
    {
      "inputs": [
        {
          "internalType": "string",
          "name": "symbol",
          "type": "string"
        },
        {
          "internalType": "string",
          "name": "name",
          "type": "string"
        }
      ],
      "name": "updateTokenName",
      "outputs": [],
      "stateMutability": "nonpayable",
      "type": "function"
    },
    {
      "inputs": [
        {
          "internalType": "string",
          "name": "symbol",
          "type": "string"
        },
        {
          "internalType": "address",
          "name": "tokenAddress",
          "type": "address"
        }
      ],
      "name": "updateTokenAddress",
      "outputs": [],
      "stateMutability": "nonpayable",
      "type": "function"
    },
    {
      "inputs": [
        {
          "internalType": "string",
          "name": "symbol",
          "type": "string"
        },
        {
          "internalType": "string",
          "name": "regulation",
          "type": "string"
        }
      ],
      "name": "updateTokenOfferingType",
      "outputs": [],
      "stateMutability": "nonpayable",
      "type": "function"
    },
    {
      "inputs": [
        {
          "internalType": "string",
          "name": "symbol",
          "type": "string"
        }
      ],
      "name": "removeToken",
      "outputs": [],
      "stateMutability": "nonpayable",
      "type": "function"
    },
    {
      "inputs": [
        {
          "internalType": "string",
          "name": "symbol",
          "type": "string"
        }
      ],
      "name": "getToken",
      "outputs": [
        {
          "internalType": "address",
          "name": "",
          "type": "address"
        }
      ],
      "stateMutability": "view",
      "type": "function",
      "constant": true
    },
    {
      "inputs": [
        {
          "internalType": "string",
          "name": "symbol",
          "type": "string"
        }
      ],
      "name": "getTokenRegulation",
      "outputs": [
        {
          "internalType": "string",
          "name": "",
          "type": "string"
        }
      ],
      "stateMutability": "view",
      "type": "function",
      "constant": true
    }
  ],
  "bytecode": "0x608060405234801561001057600080fd5b5060008054600160a060020a031916331790556110fc806100326000396000f3fe608060405234801561001057600080fd5b50600436106100865760e060020a60003504631f455922811461008b5780632efc7a94146100a057806333133069146100b3578063893d20e8146100c6578063a3524b71146100f0578063c1733f6814610103578063c3e64b3c14610116578063dc03720e14610139578063e559f2c61461014c575b600080fd5b61009e610099366004610b47565b61016c565b005b61009e6100ae366004610ba4565b6102a9565b61009e6100c1366004610bf7565b6103b4565b600054600160a060020a03165b604051600160a060020a0390911681526020015b60405180910390f35b61009e6100fe366004610bf7565b610532565b6100d3610111366004610b47565b61069c565b610129610124366004610b47565b61072c565b60405190151581526020016100e7565b61009e610147366004610c62565b61075e565b61015f61015a366004610b47565b61099a565b6040516100e79190610d6e565b6000600160a060020a031660018383604051610189929190610d88565b90815260405190819003602001902060020154600160a060020a0316036101ce5760405160e560020a62461bcd0281526004016101c590610d98565b60405180910390fd5b6000600183836040516101e2929190610d88565b908152604051908190036020018120600401805492151560ff19909316929092179091556001906102169084908490610d88565b90815260405190819003602001902060006102318282610aa9565b61023f600183016000610aa9565b600282018054600160a060020a031916905561025f600383016000610aa9565b50600401805460ff191690556040517f8da5b5de52f3c60dd5507e77a3fcef818b791b814b115210b395bf053ce612429061029d9084908490610df8565b60405180910390a15050565b6000600160a060020a0316600184846040516102c6929190610d88565b90815260405190819003602001902060020154600160a060020a0316036103025760405160e560020a62461bcd0281526004016101c590610d98565b600060018484604051610316929190610d88565b90815260405190819003602001812060020154600160a060020a0316915082906001906103469087908790610d88565b90815260408051602092819003830181206002018054600160a060020a031916600160a060020a039586161790558484168152928516918301919091527f05785b3d34000b06be75c67a88250f4e28ef436d95282c0a4bbff94ce781d0df910160405180910390a150505050565b6000600160a060020a0316600185856040516103d1929190610d88565b90815260405190819003602001902060020154600160a060020a03160361040d5760405160e560020a62461bcd0281526004016101c590610d98565b600060018585604051610421929190610d88565b9081526020016040518091039020600301805461043d90610e14565b80601f016020809104026020016040519081016040528092919081815260200182805461046990610e14565b80156104b65780601f1061048b576101008083540402835291602001916104b6565b820191906000526020600020905b81548152906001019060200180831161049957829003601f168201915b505050505090508282600187876040516104d1929190610d88565b908152602001604051809103902060030191826104ef929190610ed2565b507fda56e6d395fdbed66984eee5bbd3574d57c129f7b7bdcc5bd014d49d10ce0e8181848460405161052393929190610f8f565b60405180910390a15050505050565b6000600160a060020a03166001858560405161054f929190610d88565b90815260405190819003602001902060020154600160a060020a03160361058b5760405160e560020a62461bcd0281526004016101c590610d98565b60006001858560405161059f929190610d88565b90815260405190819003602001902080546105b990610e14565b80601f01602080910402602001604051908101604052809291908181526020018280546105e590610e14565b80156106325780601f1061060757610100808354040283529160200191610632565b820191906000526020600020905b81548152906001019060200180831161061557829003601f168201915b5050505050905082826001878760405161064d929190610d88565b90815260405190819003602001902091610668919083610ed2565b507fac2efe13b901975d517ba58c8f9b18fb0ae771d5fc3374f5b70277547d60b6ec81848460405161052393929190610f8f565b600080600160a060020a0316600184846040516106ba929190610d88565b90815260405190819003602001902060020154600160a060020a0316036106f65760405160e560020a62461bcd0281526004016101c590610d98565b60018383604051610708929190610d88565b90815260405190819003602001902060020154600160a060020a0316905092915050565b600060018383604051610740929190610d88565b9081526040519081900360200190206004015460ff16905092915050565b6000600160a060020a03166001868660405161077b929190610d88565b90815260405190819003602001902060020154600160a060020a0316146107e15760405160e560020a62461bcd0281526020600482015260146024820152606060020a73546f6b656e20616c7265616479206578697374730260448201526064016101c5565b6040518060a0016040528088888080601f016020809104026020016040519081016040528093929190818152602001838380828437600092019190915250505090825250604080516020601f890181900481028201810190925287815291810191908890889081908401838280828437600092019190915250505090825250600160a060020a038b1660208083019190915260408051601f86018390048302810183018252858152920191908590859081908401838280828437600092019190915250505090825250600160209091018190526040516108c49088908890610d88565b908152604051908190036020019020815181906108e19082610fbf565b50602082015160018201906108f69082610fbf565b506040820151600282018054600160a060020a031916600160a060020a03909216919091179055606082015160038201906109319082610fbf565b50608091909101516004909101805460ff19169115159190911790556040517f2cf94463399a921af44bea76fefe33b27ec7737791c197a178dc19e6116231f990610987908a908a908a908a908a908a9061107a565b60405180910390a1505050505050505050565b60606000600160a060020a0316600184846040516109b9929190610d88565b90815260405190819003602001902060020154600160a060020a0316036109f55760405160e560020a62461bcd0281526004016101c590610d98565b60018383604051610a07929190610d88565b90815260200160405180910390206003018054610a2390610e14565b80601f0160208091040260200160405190810160405280929190818152602001828054610a4f90610e14565b8015610a9c5780601f10610a7157610100808354040283529160200191610a9c565b820191906000526020600020905b815481529060010190602001808311610a7f57829003601f168201915b5050505050905092915050565b508054610ab590610e14565b6000825580601f10610ac5575050565b601f016020900490600052602060002090810190610ae39190610ae6565b50565b5b80821115610afb5760008155600101610ae7565b5090565b60008083601f840112610b1157600080fd5b5081356001604060020a03811115610b2857600080fd5b602083019150836020828501011115610b4057600080fd5b9250929050565b60008060208385031215610b5a57600080fd5b82356001604060020a03811115610b7057600080fd5b610b7c85828601610aff565b90969095509350505050565b8035600160a060020a0381168114610b9f57600080fd5b919050565b600080600060408486031215610bb957600080fd5b83356001604060020a03811115610bcf57600080fd5b610bdb86828701610aff565b9094509250610bee905060208501610b88565b90509250925092565b60008060008060408587031215610c0d57600080fd5b84356001604060020a0380821115610c2457600080fd5b610c3088838901610aff565b90965094506020870135915080821115610c4957600080fd5b50610c5687828801610aff565b95989497509550505050565b600080600080600080600080600060c08a8c031215610c8057600080fd5b610c898a610b88565b9850610c9760208b01610b88565b975060408a01356001604060020a0380821115610cb357600080fd5b610cbf8d838e01610aff565b909950975060608c0135915080821115610cd857600080fd5b610ce48d838e01610aff565b909750955060808c0135945060a08c0135915080821115610d0457600080fd5b50610d118c828d01610aff565b915080935050809150509295985092959850929598565b6000815180845260005b81811015610d4e57602081850181015186830182015201610d32565b506000602082860101526020601f19601f83011685010191505092915050565b602081526000610d816020830184610d28565b9392505050565b8183823760009101908152919050565b6020808252601a908201527f746f6b656e206e6f7420666f756e6420666f722073796d626f6c000000000000604082015260600190565b81835281816020850137506000828201602090810191909152601f909101601f19169091010190565b602081526000610e0c602083018486610dcf565b949350505050565b600281046001821680610e2857607f821691505b602082108103610e4c5760e060020a634e487b710260009081526022600452602490fd5b50919050565b60e060020a634e487b710260009081526041600452602490fd5b601f821115610eb6576000818152602081206020601f86010481016020861015610e935750805b6020601f860104820191505b81811015610eb257828155600101610e9f565b5050505b505050565b6002808302600893909302900a6000190419161790565b6001604060020a03831115610ee957610ee9610e52565b610efd83610ef78354610e14565b83610e6c565b6000601f841160018114610f2b5760008515610f195750838201355b610f238682610ebb565b845550610f88565b600083815260209020601f19861690835b82811015610f5c5786850135825560209485019460019092019101610f3c565b5086821015610f7c57858401356008601f89160260020a60001904191681555b50506001600286020183555b5050505050565b604081526000610fa26040830186610d28565b8281036020840152610fb5818587610dcf565b9695505050505050565b81516001604060020a03811115610fd857610fd8610e52565b610fec81610fe68454610e14565b84610e6c565b602080601f83116001811461101b57600084156110095750858301515b6110138582610ebb565b865550610eb2565b600085815260208120601f198616915b8281101561104a5788860151825594840194600190910190840161102b565b508582101561106a57878501516008601f88160260020a60001904191681555b5050505050600202600101905550565b600160a060020a038716815260806020820181905260009061109f9083018789610dcf565b82810360408401526110b2818688610dcf565b91505082606083015297965050505050505056fea2646970667358221220e231371e0dc0902598c0fa0d8762c9b88e660da2d8b49f7ce25ab7566ecd529b64736f6c63430008120033",
  "immutableReferences": {},
  "source": "// SPDX-License-Identifier: BSL-1.1\npragma solidity >=0.4.22 <0.9.0;\n\nimport \"../../interfaces/ITokenManager.sol\";\nimport \"./AccessControl.sol\";\n\ncontract TokenManager is ITokenManager, AccessControl {\n\n    mapping(string => TOKEN) private tokenContracts;\n\n\n    // Add functions for token management here\n    function assignToken(address tokenAddress, address issuer, string calldata name, string calldata symbol, uint256 totalSupply, string calldata regulation) external  {\n        require(tokenContracts[symbol].tokenAddress == address(0), \"Token already exists\");\n\n        tokenContracts[symbol] = TOKEN(name,symbol,tokenAddress,regulation,true);\n \n        emit AssignedOffering(issuer,name,symbol,totalSupply);\n    }\n    function isTokenActive(string calldata symbol) external view returns (bool) {\n        return tokenContracts[symbol].active;\n    }\n    function updateTokenName(string calldata symbol,string calldata name)  external  {\n        require(tokenContracts[symbol].tokenAddress != address(0x0),\"token not found for symbol\");\n        string memory oldName = tokenContracts[symbol].name;\n        tokenContracts[symbol].name = name;\n\n        emit UpdatedListingName(oldName,name);\n    }\n    function updateTokenAddress(string calldata symbol,address tokenAddress)  external  {\n        require(tokenContracts[symbol].tokenAddress != address(0x0),\"token not found for symbol\");\n        address oldToken = tokenContracts[symbol].tokenAddress;\n        tokenContracts[symbol].tokenAddress = tokenAddress;\n\n        emit UpdatedListingAddress(oldToken,tokenAddress);\n    }\n    function updateTokenOfferingType(string calldata symbol,string calldata regulation)  external  {\n        require(tokenContracts[symbol].tokenAddress != address(0x0),\"token not found for symbol\");\n        string memory oldRegulation = tokenContracts[symbol].regulation;\n        tokenContracts[symbol].regulation = regulation;\n\n        emit UpdatedListingOfferingType(oldRegulation,regulation);\n    }\n    function removeToken(string calldata symbol)  external  {\n        require(tokenContracts[symbol].tokenAddress != address(0x0),\"token not found for symbol\");\n        tokenContracts[symbol].active = false;\n        delete tokenContracts[symbol];\n        emit DelistedToken(symbol);\n    }\n    function getToken(string calldata symbol)  external view  returns (address) {\n        require(tokenContracts[symbol].tokenAddress != address(0x0),\"token not found for symbol\");\n        return tokenContracts[symbol].tokenAddress;\n    }\n    function getTokenRegulation(string calldata symbol)  external view  returns (string memory) {\n        require(tokenContracts[symbol].tokenAddress != address(0x0),\"token not found for symbol\");\n        return tokenContracts[symbol].regulation;\n    }\n\n}\n",
  "sourcePath": "/Volumes/My Book/projects/pingleware-contracts/contracts/finance/elmx/TokenManager.sol",
  "compiler": {
    "name": "solc",
    "version": "0.8.18+commit.87f61d96.Emscripten.clang"
  },
  "schemaVersion": "3.4.12",
  "updatedAt": "2023-10-25T20:11:35.970Z",
  "networkType": "ethereum",
  "devdoc": {
    "kind": "dev",
    "methods": {},
    "version": 1
  },
  "userdoc": {
    "kind": "user",
    "methods": {},
    "version": 1
  }
}