{
  "contractName": "Transaction",
  "abi": [
    {
      "inputs": [],
      "name": "year",
      "outputs": [
        {
          "internalType": "uint256",
          "name": "",
          "type": "uint256"
        }
      ],
      "stateMutability": "view",
      "type": "function",
      "constant": true
    },
    {
      "inputs": [
        {
          "internalType": "address",
          "name": "addr",
          "type": "address"
        }
      ],
      "name": "isHoldingPeriodOver",
      "outputs": [
        {
          "internalType": "bool",
          "name": "",
          "type": "bool"
        }
      ],
      "stateMutability": "view",
      "type": "function",
      "constant": true
    },
    {
      "inputs": [],
      "name": "getTransactions",
      "outputs": [
        {
          "components": [
            {
              "internalType": "address",
              "name": "addr",
              "type": "address"
            },
            {
              "internalType": "uint256",
              "name": "shares",
              "type": "uint256"
            },
            {
              "internalType": "uint256",
              "name": "amount",
              "type": "uint256"
            },
            {
              "internalType": "uint256",
              "name": "time",
              "type": "uint256"
            }
          ],
          "internalType": "struct Transaction.TransactionItem[]",
          "name": "",
          "type": "tuple[]"
        }
      ],
      "stateMutability": "view",
      "type": "function",
      "constant": true
    },
    {
      "inputs": [
        {
          "internalType": "address",
          "name": "_to",
          "type": "address"
        },
        {
          "internalType": "uint256",
          "name": "_shares",
          "type": "uint256"
        },
        {
          "internalType": "uint256",
          "name": "_amount",
          "type": "uint256"
        },
        {
          "internalType": "uint256",
          "name": "_epoch",
          "type": "uint256"
        }
      ],
      "name": "addTransaction",
      "outputs": [
        {
          "internalType": "uint256",
          "name": "",
          "type": "uint256"
        }
      ],
      "stateMutability": "nonpayable",
      "type": "function"
    }
  ],
  "bytecode": "0x608060405234801561001057600080fd5b506104d3806100206000396000f3fe608060405234801561001057600080fd5b506004361061004e5760e060020a6000350462ba40ae8114610053578063590c4ef91461007b57806383920e901461009c578063f3269716146100b1575b600080fd5b61006661006136600461036f565b6100bc565b60405190151581526020015b60405180910390f35b61008e610089366004610391565b6101a7565b604051908152602001610072565b6100a461029c565b60405161007291906103ca565b61008e6301dfe20081565b600080805b6100c961032f565b600160a060020a038516600090815260209190915260409020548110156101a0576301dfe2006100f761032f565b600160a060020a03861660009081526020919091526040902080548390811061012257610122610437565b90600052602060002090600402016003015461013e919061046b565b61014661032f565b600160a060020a03861660009081526020919091526040902080548390811061017157610171610437565b906000526020600020906004020160030154111561018e57600191505b8061019881610484565b9150506100c1565b5092915050565b600084600160a060020a0381166102075760405160e560020a62461bcd02815260206004820152601a60248201527f7a65726f2061646472657373206e6f74207065726d6974746564000000000000604482015260640160405180910390fd5b61020f61032f565b60408051608081018252600160a060020a03898116825260208083018a8152938301898152606084018981526001968701805480890182556000918252939020945160049093029094018054600160a060020a03191692909316919091178255925193810193909355905160028301555160039091015561028e61032f565b600101549695505050505050565b60606102a661032f565b600101805480602002602001604051908101604052809291908181526020016000905b8282101561032657600084815260209081902060408051608081018252600486029092018054600160a060020a031683526001808201548486015260028201549284019290925260030154606083015290835290920191016102c9565b50505050905090565b7f7e8346663d20df5943e523e74cafdfb6f0ed14b05b43e4c2d91177487b6e471290565b8035600160a060020a038116811461036a57600080fd5b919050565b60006020828403121561038157600080fd5b61038a82610353565b9392505050565b600080600080608085870312156103a757600080fd5b6103b085610353565b966020860135965060408601359560600135945092505050565b602080825282518282018190526000919060409081850190868401855b8281101561042a5781518051600160a060020a031685528681015187860152858101518686015260609081015190850152608090930192908501906001016103e7565b5091979650505050505050565b60e060020a634e487b710260009081526032600452602490fd5b60e060020a634e487b710260009081526011600452602490fd5b8082018082111561047e5761047e610451565b92915050565b60006001820161049657610496610451565b506001019056fea26469706673582212207275af20b2692279c5be6f1765a9ffa38d81672cc84e106cc57dcb0dd4d9231d64736f6c63430008120033",
  "immutableReferences": {},
  "source": "// SPDX-License-Identifier: CC-BY-4.0\r\npragma solidity >=0.4.22 <0.9.0;\r\n\r\n\r\ncontract Transaction {\r\n    uint constant public year = 52 weeks;\r\n\r\n    struct TransactionItem {\r\n        address addr;\r\n        uint256 shares;\r\n        uint256 amount;\r\n        uint256 time;\r\n    }\r\n\r\n    struct TransactionStorage {\r\n        mapping(address => TransactionItem[]) transactions;\r\n        TransactionItem[] _transactions;\r\n    }\r\n\r\n    function transactionStorage()\r\n        internal\r\n        pure\r\n        returns (TransactionStorage storage ds)\r\n    {\r\n        bytes32 position = keccak256(\"transaction.storage\");\r\n        assembly { ds.slot := position }\r\n    }\r\n    \r\n    modifier isValidAddress(address addr) {\r\n        require (addr != address(0), \"zero address not permitted\");\r\n        _;\r\n    }\r\n\r\n\r\n    function isHoldingPeriodOver(address addr)\r\n        external\r\n        view\r\n        returns (bool)\r\n    {\r\n        bool over = false;\r\n        for (uint i = 0; i < transactionStorage().transactions[addr].length; i++) {\r\n            if (transactionStorage().transactions[addr][i].time > (transactionStorage().transactions[addr][i].time + year)) {\r\n                over = true;\r\n            }\r\n        }\r\n        return over;\r\n    }\r\n\r\n    function getTransactions()\r\n        external\r\n        view\r\n        returns (TransactionItem[] memory)\r\n    {\r\n        return transactionStorage()._transactions;\r\n    }\r\n\r\n    function addTransaction(address _to, uint256 _shares, uint256 _amount, uint256 _epoch)\r\n        external\r\n        isValidAddress(_to)\r\n        returns (uint256)\r\n    {\r\n        //transactionStorage().transactions[_to] = TransactionItem(_to, _shares, _amount, _epoch);\r\n        transactionStorage()._transactions.push(TransactionItem(_to, _shares, _amount, _epoch));\r\n        return transactionStorage()._transactions.length;\r\n    }\r\n}\r\n",
  "sourcePath": "/Volumes/My Book/projects/pingleware-contracts/contracts/finance/Transaction.sol",
  "compiler": {
    "name": "solc",
    "version": "0.8.18+commit.87f61d96.Emscripten.clang"
  },
  "schemaVersion": "3.4.12",
  "updatedAt": "2023-10-24T03:00:57.417Z",
  "networkType": "ethereum",
  "devdoc": {
    "kind": "dev",
    "methods": {},
    "version": 1
  },
  "userdoc": {
    "kind": "user",
    "methods": {},
    "version": 1
  }
}