{
  "contractName": "Transaction",
  "abi": [
    {
      "inputs": [],
      "name": "year",
      "outputs": [
        {
          "internalType": "uint256",
          "name": "",
          "type": "uint256"
        }
      ],
      "stateMutability": "view",
      "type": "function"
    },
    {
      "inputs": [
        {
          "internalType": "address",
          "name": "addr",
          "type": "address"
        }
      ],
      "name": "isHoldingPeriodOver",
      "outputs": [
        {
          "internalType": "bool",
          "name": "",
          "type": "bool"
        }
      ],
      "stateMutability": "view",
      "type": "function"
    },
    {
      "inputs": [],
      "name": "getTransactions",
      "outputs": [
        {
          "components": [
            {
              "internalType": "address",
              "name": "addr",
              "type": "address"
            },
            {
              "internalType": "uint256",
              "name": "shares",
              "type": "uint256"
            },
            {
              "internalType": "uint256",
              "name": "amount",
              "type": "uint256"
            },
            {
              "internalType": "uint256",
              "name": "time",
              "type": "uint256"
            }
          ],
          "internalType": "struct Transaction.TransactionItem[]",
          "name": "",
          "type": "tuple[]"
        }
      ],
      "stateMutability": "view",
      "type": "function"
    },
    {
      "inputs": [
        {
          "internalType": "address",
          "name": "_to",
          "type": "address"
        },
        {
          "internalType": "uint256",
          "name": "_shares",
          "type": "uint256"
        },
        {
          "internalType": "uint256",
          "name": "_amount",
          "type": "uint256"
        },
        {
          "internalType": "uint256",
          "name": "_epoch",
          "type": "uint256"
        }
      ],
      "name": "addTransaction",
      "outputs": [
        {
          "internalType": "uint256",
          "name": "",
          "type": "uint256"
        }
      ],
      "stateMutability": "nonpayable",
      "type": "function"
    }
  ],
  "bytecode": "0x60808060405234610016576104c0908161001c8239f35b600080fdfe6040608081526004908136101561001557600080fd5b60009160e060020a8335049062ba40ae82146102ed578163590c4ef9146101bb57816383920e9014610072575063f32697161461005157600080fd5b3461006e578160031936011261006e57602090516301dfe2008152f35b5080fd5b8391503461006e578160031936011261006e5760008051602061046b83398151915280549091906001604060020a03908181116101a557855192602092828402603f01601f191685019081118582101761018f578796949396528183528583018095855286852085915b848310610144575050505050845193808501918186525180925285850193925b8281106101095785850386f35b83518051600160a060020a031686528083015186840152878101518887015260609081015190860152608090940193928101926001016100fc565b83896001926101559b98999b610431565b8460a060020a03865416815284860154838201528d60028701549082015260038601546060820152815201920192019190979594976100dc565b60e060020a634e487b7102875260418252602487fd5b60e060020a634e487b7102855260418352602485fd5b8284346102ea5760803660031901126102ea57600160a060020a03806101df6103e0565b169081156102a4576101ef610431565b9182526020820160243581528483019060443582526060840192606435845260008051602061046b83398151915295865490604060020a82101561028e576001820180895582101561027857906020998a838a600399989796955220910201955116600160a060020a031986541617855551600185015551600284015551910155549051908152f35b60e060020a634e487b7102815260328a52602490fd5b60e060020a634e487b7102815260418a52602490fd5b835160e560020a62461bcd028152602081870152601a60248201527f7a65726f2061646472657373206e6f74207065726d69747465640000000000006044820152606490fd5b80fd5b8391503461006e57602092836003193601126103dc579261030c6103e0565b92938493600160a060020a03169190845b8386527f7e8346663d20df5943e523e74cafdfb6f0ed14b05b43e4c2d91177487b6e471280845282872080548310156103d1578261035a916103fb565b5060038091015491868952855261037383858a206103fb565b500154906301dfe20082018092116103bb57116103b2575b600019811461039c5760010161031d565b60e060020a634e487b7102865260118552602486fd5b6001965061038b565b60e060020a634e487b7102885260118752602488fd5b848985519015158152f35b8280fd5b60043590600160a060020a03821682036103f657565b600080fd5b8054821015610417576000526004602060002091020190600090565b60e060020a634e487b710260009081526032600452602490fd5b60405190608082016001604060020a0381118382101761045057604052565b60e060020a634e487b710260009081526041600452602490fdfe7e8346663d20df5943e523e74cafdfb6f0ed14b05b43e4c2d91177487b6e4713a26469706673582212209181b51077151bfebdccb97d564965264a4809def9bca410a955057f44c115a864736f6c63430008120033",
  "immutableReferences": {},
  "source": "// SPDX-License-Identifier: CC-BY-4.0\r\npragma solidity >=0.4.22 <0.9.0;\r\n\r\n\r\ncontract Transaction {\r\n    uint constant public year = 52 weeks;\r\n\r\n    struct TransactionItem {\r\n        address addr;\r\n        uint256 shares;\r\n        uint256 amount;\r\n        uint256 time;\r\n    }\r\n\r\n    struct TransactionStorage {\r\n        mapping(address => TransactionItem[]) transactions;\r\n        TransactionItem[] _transactions;\r\n    }\r\n\r\n    function transactionStorage()\r\n        internal\r\n        pure\r\n        returns (TransactionStorage storage ds)\r\n    {\r\n        bytes32 position = keccak256(\"transaction.storage\");\r\n        assembly { ds.slot := position }\r\n    }\r\n    \r\n    modifier isValidAddress(address addr) {\r\n        require (addr != address(0), \"zero address not permitted\");\r\n        _;\r\n    }\r\n\r\n\r\n    function isHoldingPeriodOver(address addr)\r\n        external\r\n        view\r\n        returns (bool)\r\n    {\r\n        bool over = false;\r\n        for (uint i = 0; i < transactionStorage().transactions[addr].length; i++) {\r\n            if (transactionStorage().transactions[addr][i].time > (transactionStorage().transactions[addr][i].time + year)) {\r\n                over = true;\r\n            }\r\n        }\r\n        return over;\r\n    }\r\n\r\n    function getTransactions()\r\n        external\r\n        view\r\n        returns (TransactionItem[] memory)\r\n    {\r\n        return transactionStorage()._transactions;\r\n    }\r\n\r\n    function addTransaction(address _to, uint256 _shares, uint256 _amount, uint256 _epoch)\r\n        external\r\n        isValidAddress(_to)\r\n        returns (uint256)\r\n    {\r\n        //transactionStorage().transactions[_to] = TransactionItem(_to, _shares, _amount, _epoch);\r\n        transactionStorage()._transactions.push(TransactionItem(_to, _shares, _amount, _epoch));\r\n        return transactionStorage()._transactions.length;\r\n    }\r\n}\r\n",
  "sourcePath": "/Volumes/HOME/pingleware-contracts/contracts/finance/Transaction.sol",
  "compiler": {
    "name": "solc",
    "version": "0.8.18+commit.87f61d96.Emscripten.clang"
  },
  "schemaVersion": "3.4.12",
  "updatedAt": "2024-05-23T18:56:25.257Z",
  "devdoc": {
    "kind": "dev",
    "methods": {},
    "version": 1
  },
  "userdoc": {
    "kind": "user",
    "methods": {},
    "version": 1
  }
}