{
  "contractName": "Transport",
  "abi": [
    {
      "anonymous": false,
      "inputs": [
        {
          "indexed": false,
          "internalType": "string",
          "name": "message",
          "type": "string"
        },
        {
          "indexed": false,
          "internalType": "uint256",
          "name": "amount",
          "type": "uint256"
        }
      ],
      "name": "PaymentInfo",
      "type": "event"
    },
    {
      "anonymous": false,
      "inputs": [
        {
          "indexed": false,
          "internalType": "string",
          "name": "message",
          "type": "string"
        }
      ],
      "name": "PaymentMessage",
      "type": "event"
    },
    {
      "anonymous": false,
      "inputs": [
        {
          "indexed": false,
          "internalType": "string",
          "name": "_message",
          "type": "string"
        },
        {
          "indexed": false,
          "internalType": "uint256",
          "name": "_trackingNo",
          "type": "uint256"
        }
      ],
      "name": "TransportInfo",
      "type": "event"
    },
    {
      "anonymous": false,
      "inputs": [
        {
          "indexed": false,
          "internalType": "string",
          "name": "message",
          "type": "string"
        }
      ],
      "name": "TransportMessage",
      "type": "event"
    },
    {
      "anonymous": false,
      "inputs": [
        {
          "indexed": false,
          "internalType": "string",
          "name": "message",
          "type": "string"
        },
        {
          "indexed": false,
          "internalType": "string",
          "name": "m1",
          "type": "string"
        }
      ],
      "name": "TransportMessage1",
      "type": "event"
    },
    {
      "anonymous": false,
      "inputs": [
        {
          "indexed": false,
          "internalType": "string",
          "name": "s1",
          "type": "string"
        },
        {
          "indexed": false,
          "internalType": "string",
          "name": "s2",
          "type": "string"
        },
        {
          "indexed": false,
          "internalType": "string",
          "name": "s3",
          "type": "string"
        },
        {
          "indexed": false,
          "internalType": "address",
          "name": "s4",
          "type": "address"
        }
      ],
      "name": "add",
      "type": "event"
    },
    {
      "anonymous": false,
      "inputs": [
        {
          "indexed": false,
          "internalType": "uint256",
          "name": "value",
          "type": "uint256"
        }
      ],
      "name": "pop",
      "type": "event"
    },
    {
      "inputs": [
        {
          "internalType": "address",
          "name": "",
          "type": "address"
        }
      ],
      "name": "distributor",
      "outputs": [
        {
          "internalType": "address",
          "name": "distaddr",
          "type": "address"
        },
        {
          "internalType": "string",
          "name": "distname",
          "type": "string"
        }
      ],
      "stateMutability": "view",
      "type": "function"
    },
    {
      "inputs": [
        {
          "internalType": "address",
          "name": "_from",
          "type": "address"
        },
        {
          "internalType": "address",
          "name": "_to",
          "type": "address"
        },
        {
          "internalType": "uint256",
          "name": "_amount",
          "type": "uint256"
        }
      ],
      "name": "makePayment",
      "outputs": [
        {
          "internalType": "bool",
          "name": "",
          "type": "bool"
        },
        {
          "internalType": "uint256",
          "name": "",
          "type": "uint256"
        }
      ],
      "stateMutability": "nonpayable",
      "type": "function"
    },
    {
      "inputs": [
        {
          "internalType": "uint256",
          "name": "",
          "type": "uint256"
        }
      ],
      "name": "pro",
      "outputs": [
        {
          "internalType": "uint256",
          "name": "prodID",
          "type": "uint256"
        },
        {
          "internalType": "string",
          "name": "prodname",
          "type": "string"
        },
        {
          "internalType": "uint256",
          "name": "pricePerUnit",
          "type": "uint256"
        },
        {
          "internalType": "address",
          "name": "produceraddr",
          "type": "address"
        },
        {
          "internalType": "uint256",
          "name": "stock",
          "type": "uint256"
        }
      ],
      "stateMutability": "view",
      "type": "function"
    },
    {
      "inputs": [
        {
          "internalType": "address",
          "name": "",
          "type": "address"
        }
      ],
      "name": "producer",
      "outputs": [
        {
          "internalType": "address",
          "name": "produceraddr",
          "type": "address"
        },
        {
          "internalType": "string",
          "name": "producername",
          "type": "string"
        }
      ],
      "stateMutability": "view",
      "type": "function"
    },
    {
      "inputs": [
        {
          "internalType": "address",
          "name": "",
          "type": "address"
        }
      ],
      "name": "product",
      "outputs": [
        {
          "internalType": "uint256",
          "name": "prodID",
          "type": "uint256"
        },
        {
          "internalType": "string",
          "name": "prodname",
          "type": "string"
        },
        {
          "internalType": "uint256",
          "name": "pricePerUnit",
          "type": "uint256"
        },
        {
          "internalType": "address",
          "name": "produceraddr",
          "type": "address"
        },
        {
          "internalType": "uint256",
          "name": "stock",
          "type": "uint256"
        }
      ],
      "stateMutability": "view",
      "type": "function"
    },
    {
      "inputs": [
        {
          "internalType": "uint256",
          "name": "",
          "type": "uint256"
        }
      ],
      "name": "prostock",
      "outputs": [
        {
          "internalType": "address",
          "name": "produceraddr",
          "type": "address"
        },
        {
          "internalType": "string",
          "name": "producername",
          "type": "string"
        }
      ],
      "stateMutability": "view",
      "type": "function"
    },
    {
      "inputs": [
        {
          "internalType": "uint256",
          "name": "",
          "type": "uint256"
        }
      ],
      "name": "trackingorder",
      "outputs": [
        {
          "internalType": "bool",
          "name": "flag",
          "type": "bool"
        },
        {
          "internalType": "uint256",
          "name": "trackingNo",
          "type": "uint256"
        },
        {
          "internalType": "string",
          "name": "prodname",
          "type": "string"
        },
        {
          "internalType": "uint256",
          "name": "prodID",
          "type": "uint256"
        },
        {
          "internalType": "address",
          "name": "distaddr",
          "type": "address"
        },
        {
          "internalType": "address",
          "name": "produceraddr",
          "type": "address"
        },
        {
          "internalType": "uint256",
          "name": "quantity",
          "type": "uint256"
        },
        {
          "internalType": "uint256",
          "name": "amount",
          "type": "uint256"
        }
      ],
      "stateMutability": "view",
      "type": "function"
    },
    {
      "inputs": [
        {
          "internalType": "address",
          "name": "_produceraddr",
          "type": "address"
        },
        {
          "internalType": "string",
          "name": "_name",
          "type": "string"
        }
      ],
      "name": "addProducer",
      "outputs": [],
      "stateMutability": "nonpayable",
      "type": "function"
    },
    {
      "inputs": [
        {
          "internalType": "address",
          "name": "_distaddr",
          "type": "address"
        },
        {
          "internalType": "string",
          "name": "_name",
          "type": "string"
        }
      ],
      "name": "addDistributor",
      "outputs": [],
      "stateMutability": "nonpayable",
      "type": "function"
    },
    {
      "inputs": [
        {
          "internalType": "uint256",
          "name": "_prodID",
          "type": "uint256"
        }
      ],
      "name": "addProduct",
      "outputs": [],
      "stateMutability": "nonpayable",
      "type": "function"
    },
    {
      "inputs": [
        {
          "internalType": "address",
          "name": "_produceraddr",
          "type": "address"
        },
        {
          "internalType": "address",
          "name": "_distaddr",
          "type": "address"
        },
        {
          "internalType": "uint256",
          "name": "_quantity",
          "type": "uint256"
        },
        {
          "internalType": "uint256",
          "name": "_prodID",
          "type": "uint256"
        }
      ],
      "name": "createOrderByDistributor",
      "outputs": [
        {
          "internalType": "uint256",
          "name": "",
          "type": "uint256"
        }
      ],
      "stateMutability": "nonpayable",
      "type": "function"
    },
    {
      "inputs": [
        {
          "internalType": "address",
          "name": "_produceraddr",
          "type": "address"
        },
        {
          "internalType": "address",
          "name": "_distaddr",
          "type": "address"
        },
        {
          "internalType": "uint256",
          "name": "_trackingNo",
          "type": "uint256"
        },
        {
          "internalType": "uint256",
          "name": "_quantity",
          "type": "uint256"
        }
      ],
      "name": "sendOrderByDistributor",
      "outputs": [],
      "stateMutability": "nonpayable",
      "type": "function"
    },
    {
      "inputs": [
        {
          "internalType": "address",
          "name": "_produceraddr",
          "type": "address"
        },
        {
          "internalType": "uint256",
          "name": "_trackingNo",
          "type": "uint256"
        }
      ],
      "name": "acceptOrderByProducer",
      "outputs": [
        {
          "internalType": "uint256",
          "name": "",
          "type": "uint256"
        }
      ],
      "stateMutability": "nonpayable",
      "type": "function"
    },
    {
      "inputs": [
        {
          "internalType": "uint256",
          "name": "no",
          "type": "uint256"
        },
        {
          "internalType": "uint256",
          "name": "hrs",
          "type": "uint256"
        }
      ],
      "name": "randomtemperature",
      "outputs": [
        {
          "internalType": "uint256[]",
          "name": "",
          "type": "uint256[]"
        }
      ],
      "stateMutability": "nonpayable",
      "type": "function"
    },
    {
      "inputs": [
        {
          "internalType": "uint256",
          "name": "no",
          "type": "uint256"
        },
        {
          "internalType": "uint256",
          "name": "hrs",
          "type": "uint256"
        }
      ],
      "name": "randomaccelerometer",
      "outputs": [
        {
          "internalType": "uint256[]",
          "name": "",
          "type": "uint256[]"
        }
      ],
      "stateMutability": "nonpayable",
      "type": "function"
    },
    {
      "inputs": [
        {
          "internalType": "uint256",
          "name": "no",
          "type": "uint256"
        },
        {
          "internalType": "uint256",
          "name": "hrs",
          "type": "uint256"
        }
      ],
      "name": "randomluminosity",
      "outputs": [
        {
          "internalType": "uint256[]",
          "name": "",
          "type": "uint256[]"
        }
      ],
      "stateMutability": "nonpayable",
      "type": "function"
    },
    {
      "inputs": [
        {
          "internalType": "uint256",
          "name": "_trackingNo",
          "type": "uint256"
        },
        {
          "internalType": "address",
          "name": "_distaddr",
          "type": "address"
        },
        {
          "internalType": "address",
          "name": "_produceraddr",
          "type": "address"
        },
        {
          "internalType": "uint256",
          "name": "_amount",
          "type": "uint256"
        }
      ],
      "name": "acceptOrderByDistributor",
      "outputs": [],
      "stateMutability": "nonpayable",
      "type": "function"
    },
    {
      "inputs": [
        {
          "internalType": "uint256",
          "name": "_amount",
          "type": "uint256"
        }
      ],
      "name": "checkprice",
      "outputs": [
        {
          "internalType": "uint256",
          "name": "",
          "type": "uint256"
        }
      ],
      "stateMutability": "nonpayable",
      "type": "function"
    }
  ],
  "bytecode": "0x6080806040523461001657611a8c908161001c8239f35b600080fdfe6040608081526004908136101561001557600080fd5b60009060e060020a823504631214d2fd8114610dee57806317f7dad814610d91578063274f97c614610be05780632b69bae814610bc05780633024b81014610ad15780633261154c14610aa2578063327a48cc1461098b57806349163513146108115780636f1356011461074b578063724b2b0c146106f657806387e660d3146106b8578063e074839e14610677578063e29cefb314610549578063ee81ec431461050e578063f198c039146104bf578063f63c30751461041e578063f67a5d25146103275763f7e6500c146100ea57600080fd5b34610323576100f83661120d565b9093918251966020978881526024898201527f4f7264657220686173206265656e20706c61636564206279206469737472696285820152600080516020611997833981519152608060609260e160020a633aba37b90284820152a18451906001604060020a0360a083018181118482101761030d578752898352818b8401528987840152898284015289608084015260026101928a611550565b500191805191821161030d576101b2826101ac855461105f565b85611448565b8b90601f831160011461028e5791808c9d98969492600080516020611a378339815191529a98969461027f9e92610283575b5050816002029160080260020a6000190419161790555b88600161020782611550565b5001555160036102168a611550565b50015561022288611550565b50018054600160a060020a0319908116600160a060020a0393841617909155600561024c89611550565b500191871690825416179055600661026387611550565b500155600161027186611550565b5001549051908152a16115b2565b5080f35b0151905038806101e4565b838c528c8c209190601f1984168d5b8181106102f657509361027f9d9e9997959360019360029383600080516020611a378339815191529e9c9a98106102db575b505050020190556101fb565b01516008601f841602840a60001904191690553880806102cf565b92938f60018192878601518155019501930161029d565b60e060020a634e487b71028b526041855260248bfd5b5080fd5b50823461041a57608036600319011261041a573590610344610f6c565b60443592909190600160a060020a0384168403610416578085526005602052600182862061037a8260ff600b5416151514611589565b015414610385578380f35b6103da60609392849383516020815260106020820152608260020a6f141c9bd91d58dd081c9958d95a5d99590285820152600080516020611997833981519152968791a16103d46064356117c8565b91611292565b50507f5061796d656e742073656e74206279206469737472696275746f72000000000081519160208352601b6020840152820152a18180808380f35b8480fd5b8280fd5b5090346104bc5760203660031901126104bc578190833581526005602052209160ff835416916001840154936104566002820161109e565b60038201549361049e600160a060020a03809285015416916005850154169260076006860154950154958051998a9915158a5260208a015261010080918a0152880190611143565b946060870152608086015260a085015260c084015260e08301520390f35b80fd5b5090346104bc5760203660031901126104bc5761050a6104ff6001848160a060020a0394856104ec610f51565b168152826020522093845416930161109e565b925192839283611246565b0390f35b50823461041a57602036600319011261041a573582526002602052908190208054600160a060020a03169061050a906104ff9060010161109e565b50913461032357610559366111bc565b90835b8281106105d7578551600980548083529087526020808301929189917f6e1540171b6c0c960b71a7020d9f60077f6af931a8bbf590da0223dacf75c7af91908a905b8282106105c05761050a86866105b6828b0383610fb7565b51918291826111d2565b83548752958601956001938401939091019061059e565b855191600a602093848101908382528581526105f281610f82565b519020066009805490604060020a8210156106615792610638600080516020611a37833981519152936106328461065c9897600161063d970190556117ad565b906113ed565b611768565b93610647836117ad565b905460088b51920260020a90048152a1611768565b61055c565b60e060020a634e487b7102895260418852602489fd5b5090346104bc5760203660031901126104bc5761050a6104ff6001848160a060020a0394856106a4610f51565b16815260036020522093845416930161109e565b5090346104bc5760603660031901126104bc57506106e86106d7610f51565b6106df610f6c565b60443591611292565b825191151582526020820152f35b5090346104bc5760203660031901126104bc578161050a9184358152600660205220918254926107286001820161109e565b94600282015490600160a060020a03600384015416920154925195869586611183565b5090346104bc5781600661075e3661120d565b600160a060020a039384168088526001602090815289892095909416808952600385528989208654600160a060020a03199081169093179096558554909116179093558651808301938452828152919690939290916107bc81610f82565b5190209485815260058752208460018201550155600080516020611a1783398151915260808251838152600d84820152609960020a6c2a3930b1b5b4b733903737971d0260608201528486820152a151908152f35b50913461032357610821366111bc565b90835b828110610895578551600880548083529087526020808301929189917ff3f7a9fe364faab93b216da50a3214154f22a0a2b415b23a84c8169e8b636ee391908a905b82821061087e5761050a86866105b6828b0383610fb7565b835487529586019560019384019390910190610866565b85516064602091828101908582528381526108af81610f82565b51902006926008938454604060020a8110156106615761090692916106328260016108dc94018955611792565b6108e584611792565b929054600a6108f387611792565b9190928960029702870a900406916113ed565b8461091085611792565b9190549102830a90046003908181029181830414901517156109755791610952859492610638600080516020611a378339815191529561063261097099611792565b9561095c85611792565b929054918c519302900a90048152a1611768565b610824565b60e060020a634e487b7102895260118852602489fd5b50823461041a57602036600319011261041a576001908035828103610a1d5750610a176000805160206119b783398151915293838652600660205283818720016109de6109d8825461105f565b82611421565b601060c060020a675265642057696e65020190558386526006602052600a8187209381600286015585855584015551928392018261148d565b0390a180f35b600214610a2b575b50505080f35b610a976000805160206119b7833981519152936002865260066020528381872001610a596109d8825461105f565b601460b060020a6957686974652057696e6502019055600286526006602052601481872093600f60028601556002855584015551928392018261148d565b0390a1818080610a25565b5034610323578060031936011261032357602090610aca610ac1610f51565b602435906115b2565b9051908152f35b50913461032357610ae1366111bc565b90835b828110610b55578551600780548083529087526020808301929189917fa66cc928b5edb82af9bd49922954155ab7b0942694bea4ce44661d9a8736c68891908a905b828210610b3e5761050a86866105b6828b0383610fb7565b835487529586019560019384019390910190610b26565b8551916103e860209384810190838252858152610b7181610f82565b519020066007805490604060020a8210156106615792610638600080516020611a378339815191529361063284610bbb98976001610bb197019055611777565b9361064783611777565b610ae4565b5090346104bc5760203660031901126104bc5750610aca602092356117c8565b50913461032357610bf036610fda565b600160a060020a03909116808452600160208181528686208451949791959394919390830192906001604060020a038311610d7b5750610c34826101ac855461105f565b8590601f8311600114610cfd57508697610ce6938360c098979694610cbc946000805160206119d78339815191529b91610cf2575b50816002029160080260020a6000190419161790555b82519687966080885260146080890152606560020a730383937b23ab1b2b9103bb4ba34103730b6b29d10260a089015287015260c0860190611143565b9084820390850152600c815260a160020a6b30b7321030b2323932b9b99d02602082015260400190565b9060608301520390a180f35b905083015138610c69565b838852868820909291601f198316895b818110610d665750936002846000805160206119d78339815191529b9c94610ce69894610cbc9760c09d9c9b9910610d4b575b505002019055610c7f565b8601516008601f841602840a60001904191690553880610d40565b8b830151845592850192918901918901610d0d565b60e060020a634e487b7102885260419052602487fd5b503461032357602036600319011261032357600160a060020a039161050a9190819084610dbc610f51565b1681528560205220805493610dd36001830161109e565b95600283015491600384015416920154925195869586611183565b50913461032357610dfe36610fda565b9390600160a060020a031690818452602092600384526001908183872001918751916001604060020a038311610d7b5750610e3d826101ac855461105f565b8590601f8311600114610ed357508697610ce6938360c098979694610cbc946000805160206119d78339815191529b91610ec8575b50816002029160080260020a6000190419161790555b82519687966080885260176080890152604d60020a7603234b9ba3934b13aba37b9103bb4ba34103730b6b29d10260a089015287015260c0860190611143565b905083015138610e72565b838852868820909291601f198316895b818110610f3c5750936002846000805160206119d78339815191529b9c94610ce69894610cbc9760c09d9c9b9910610f21575b505002019055610e88565b8601516008601f841602840a60001904191690553880610f16565b8b830151845592850192918901918901610ee3565b60043590600160a060020a0382168203610f6757565b600080fd5b60243590600160a060020a0382168203610f6757565b604081019081106001604060020a03821117610f9d57604052565b60e060020a634e487b710260009081526041600452602490fd5b601f909101601f19168101906001604060020a03821190821017610f9d57604052565b906040600319830112610f6757600435600160a060020a0381168103610f6757916001604060020a03602435818111610f675782602382011215610f67578060040135918211610f9d576040519261103c601f8401601f191660200185610fb7565b82845260248383010111610f675781600092602460209301838601378301015290565b9060016002830492168015611094575b602083101461107a57565b60e060020a634e487b710260009081526022600452602490fd5b91607f169161106f565b90604051918260008254926110b28461105f565b90818452600194858116908160001461112157506001146110de575b50506110dc92500383610fb7565b565b9093915060005260209081600020936000915b8183106111095750506110dc935082010138806110ce565b855488840185015294850194879450918301916110f1565b9150506110dc94506020925060ff1916828401521515810282010138806110ce565b919082519283825260005b84811061116f575050826000602080949584010152601f8019910116010190565b60208183018101518483018201520161114e565b916111a29060809497969592845260a0602085015260a0840190611143565b6040830196909652600160a060020a031660608201520152565b6040906003190112610f67576004359060243590565b6020908160408183019282815285518094520193019160005b8281106111f9575050505090565b8351855293810193928101926001016111eb565b6080906003190112610f6757600160a060020a03906004358281168103610f6757916024359081168103610f6757906044359060643590565b600160a060020a03909116815260406020820181905261126892910190611143565b90565b9190820391821161127857565b60e060020a634e487b710260009081526011600452602490fd5b929192604090815192828452600a8385015260b160020a6930b6b7bab73a1034b99d0260608501527f5813616fa050686de3ec35855bc691f51a9f5a2f7429d4d4940994adc5b1eb7c60806020958887820152a18515806113cf575b61138757600160a060020a03908160009316835282855283832061131388825461126b565b905516815280835281812080549186830180931161137057506060926000805160206119f78339815191529492607260020a7114dd58d8d95cdcd99d5b081c185e5b595b9d0292556012815193808552840152820152a160019190565b60e060020a634e487b710281526011600452602490fd5b50506000805160206119f783398151915292935090607060020a71696e73756666696369656e742066756e6473028260126060945193808552840152820152a1600090600090565b50600160a060020a03821660009081528085528390205486116112ee565b919060088354910260020a91826000039283910216911916179055565b818110611415575050565b6000815560010161140a565b90601f811161142e575050565b6110dc916000526020601f8160002092010481019061140a565b9190601f811161145757505050565b6110dc92600052602060002090602080601f85010483019310611483575b601f6020910104019061140a565b9091508190611475565b9060408252600f6040830152608d60020a6e0283937b23ab1ba1030b23232b21d102606083015260209160808382015260009282546114cb8161105f565b93846080850152600191828116908160001461152d57506001146114f2575b505050505090565b6000908152828120949550935b8585106115195750505060a09250010138808080806114ea565b805485850160a001529382019381016114ff565b9250505060a0945060ff93919293191684840152151502010138808080806114ea565b600a5481101561156f57600a6000526008602060002091020190600090565b60e060020a634e487b710260009081526032600452602490fd5b1561159057565b60405160e560020a62461bcd0281526020600482015260006024820152604490fd5b600160a060020a0316906115c7338314611589565b6000918252602060048152604090818420926115e281611550565b5090806001830154600080516020611a37833981519152858751838152a11480611756575b156116fb578495916002916004608097019061162b6006835494019384549061126b565b809255845260058552866001878620015491875192888452600e89850152609560020a6d0383937b23ab1ba1039b2b73a1d102606085015287840152600080516020611a1783398151915280998194a1875190888252601089830152608560020a6f029ba37b1b5903932b6b0b4b732b21d102606083015287820152a1600160ff19600b541617600b55549501549485810295818704149015171561137057509083608092600d835193808552840152609d60020a6c020baba379030b6b7bab73a1d1026060840152820152a190565b505060008051602061199783398151915292507f496e73756666696369656e74207175616e74697479206f722077726f6e672070826026608094519380855284015282015260d260020a651c9bd91d58dd026060820152a190565b50600485015460068301541115611607565b60001981146112785760010190565b60075481101561156f57600760005260206000200190600090565b60085481101561156f57600860005260206000200190600090565b60095481101561156f57600960005260206000200190600090565b80600080600880549160075491600954915b848110611875575050505050600080516020611a1783398151915260806040516040815260156040820152605d60020a7402a3432902334b730b61020b6b7bab73a1034b99d1026060820152836020820152a1146118355790565b60008051602061199783398151915260606040516020815260116020820152607a60020a7010dd5cdd1bdb49dcc815995c9a599a5959026040820152a190565b9091929394506014955061188881611792565b9054600297918402880a9004111561198f57600a8088029088820414881517156112785760646118b991048861126b565b955b6000905b8582106118dd5750506118d190611768565b908695949392916117da565b9096506050836118ec84611777565b90549102830a9004111561198857600a80890290898204148915171561127857606461191991048961126b565b965b60005b858110611935575061192f90611768565b906118bf565b9750600184611943856117ad565b90549102840a9004101561197e57600a808a02908a8204148a15171561127857611973606461197992048b61126b565b98611768565b61191e565b6119798998611768565b879661191b565b86956118bb56fedd3992ab811c00ec01b51eb1e5cdde3ea345d77c6b3edb790710a46f696631a14d709b4bdf6932113001238501ce4e50b52f518c7f0d64c1e45fabe9a50baf388396392da1b5a882be9ee6fbe49517ea3e7153902dec4c01984e8edcd87b0705b6871ef893adcf210ef23c8a5897b726ecccd2ec16b829b33217e50da5832fb973d9f7a85e373e3d2ab325c69eca7fdfb9815c23a01e19a369b227e3fcec17f15dcfb4fa29f6237d65e4072a4337cd02c2f31b49da269ee511b613e22d25e314a26469706673582212202137543f6e204f8b26b8c9645962abede2c0c6d48d3b6808db582d70cbb551bd64736f6c63430008120033",
  "immutableReferences": {},
  "source": "// SPDX-License-Identifier: CC-BY-4.0\r\npragma solidity >=0.4.22 <0.9.0;\r\n\r\nimport \"./Payment.sol\";\r\n\r\ncontract Transport is Payment {\r\n\r\n    struct Producer {\r\n        address produceraddr;\r\n        string producername;\r\n    }\r\n\r\n    struct Distributor {\r\n        address distaddr;\r\n        string distname;\r\n    }\r\n\r\n    struct Product {\r\n        uint prodID;\r\n        string prodname;\r\n        uint pricePerUnit;\r\n        address produceraddr;\r\n        uint stock;\r\n    }\r\n\r\n    struct TrackingOrder {\r\n        bool flag;\r\n        uint trackingNo;\r\n        string prodname;\r\n        uint prodID;\r\n        address distaddr;\r\n        address produceraddr;\r\n        uint quantity;\r\n        uint amount;\r\n    }\r\n\r\n    mapping(address => Producer) public producer;\r\n    mapping(uint => Producer) public prostock;\r\n    mapping(address => Distributor) public distributor;\r\n    mapping(address => Product) public product;\r\n    mapping(uint => TrackingOrder) public trackingorder;\r\n    mapping( uint => Product) public pro;\r\n\r\n    //Arrays\r\n    uint[] luminosity;\r\n    uint[] temperature;\r\n    uint[] accelerometer;\r\n    TrackingOrder[] tracking ;\r\n    //Events\r\n    event pop(uint value);\r\n    event TransportMessage(string message);\r\n    event TransportMessage1(string message, string m1);\r\n    event TransportInfo(string _message,uint _trackingNo);\r\n    event add(string s1,string s2,string s3,address s4);\r\n    //addition functions\r\n\r\n    function addProducer(address _produceraddr, string memory _name) public {\r\n        producer[_produceraddr].producername = _name;\r\n        emit add(\"producer with name: \",_name,\"and address:\", _produceraddr);\r\n    }\r\n\r\n    function addDistributor(address _distaddr, string memory _name) public {\r\n        distributor[_distaddr].distname = _name;\r\n        emit add(\"distributor with name: \",_name,\"and address:\", _distaddr);\r\n    }\r\n\r\n    function addProduct(uint _prodID)\r\n        public\r\n    {\r\n\r\n        if(_prodID == 1) {\r\n            pro[1].prodname = \"Red Wine\";\r\n            pro[1].pricePerUnit = 10;\r\n            pro[1].prodID = 1;\r\n            pro[1].stock = 10;\r\n            emit TransportMessage1(\"Product added: \",pro[1].prodname);\r\n        } else if(_prodID == 2) {\r\n            pro[2].prodname = \"White Wine\";\r\n            pro[2].pricePerUnit = 15;\r\n            pro[2].prodID = 2;\r\n            pro[2].stock = 20;\r\n            emit TransportMessage1(\"Product added: \",pro[2].prodname);\r\n        }\r\n    }\r\n\r\n    //setupShipment is supposed to be called by Distributor\r\n    function createOrderByDistributor(address _produceraddr, address _distaddr,uint _quantity, uint _prodID)\r\n        public\r\n        returns(uint)\r\n    {\r\n            Producer storage p = producer [_produceraddr];\r\n            Distributor storage d = distributor[_distaddr];\r\n            p.produceraddr = _produceraddr;\r\n            d.distaddr = _distaddr;\r\n\r\n            uint _trackingNo = uint256(keccak256(abi.encodePacked(_prodID)));\r\n\r\n            TrackingOrder storage t = trackingorder[_trackingNo];\r\n            t.trackingNo = _trackingNo;\r\n            t.quantity = _quantity;\r\n            emit TransportInfo(\"Tracking no.:\",_trackingNo);\r\n            return _trackingNo;\r\n        }\r\n\r\n        function sendOrderByDistributor(address _produceraddr,address _distaddr,uint _trackingNo,uint _quantity)\r\n            public\r\n        {\r\n            emit TransportMessage(\"Order has been placed by distributor\");\r\n\r\n            Product memory p;\r\n            // tracking[_trackingNo]= ;\r\n            tracking[_trackingNo].prodname = p.prodname;\r\n            tracking[_trackingNo].trackingNo = _trackingNo;\r\n            tracking[_trackingNo].prodID = p.prodID;\r\n            tracking[_trackingNo].distaddr = _distaddr;\r\n            tracking[_trackingNo].produceraddr = _produceraddr;\r\n            tracking[_trackingNo].quantity = _quantity;\r\n\r\n            emit pop(tracking[_trackingNo].trackingNo);\r\n\r\n            acceptOrderByProducer(_produceraddr,_trackingNo); //producer accepts order and then sends the order\r\n        }\r\n\r\n        //structure object\r\n        TrackingOrder ord;\r\n        //acceptOrder is supposed to be called by producer\r\n        function acceptOrderByProducer(address _produceraddr,uint _trackingNo)\r\n            public\r\n            returns (uint)\r\n        {\r\n            require(msg.sender == _produceraddr,\"\");\r\n            Product storage prod = product[_produceraddr];\r\n            TrackingOrder storage t = tracking[_trackingNo];\r\n            emit pop(t.trackingNo);\r\n            if((t.trackingNo == _trackingNo) && (prod.stock >= t.quantity)) {\r\n                prod.stock = prod.stock - t.quantity;\r\n\r\n                emit TransportInfo(\"product sent: \",trackingorder[_trackingNo].trackingNo);\r\n                emit TransportInfo(\"Stock remained: \",prod.stock);\r\n                ord.flag = true;\r\n                uint amount = (t.quantity * prod.pricePerUnit);\r\n                emit TransportInfo(\"Auto amount: \",amount);\r\n                return amount;\r\n            } else {\r\n                emit TransportMessage(\"Insufficient quantity or wrong product\");\r\n            }\r\n            return 0;\r\n        }\r\n\r\n        function randomtemperature(uint no, uint hrs)\r\n            public\r\n            returns (uint[] memory)\r\n        {\r\n            uint _no = no;\r\n            for(uint i = 0 ; i < hrs ; i++) {\r\n                temperature.push((uint256(keccak256(abi.encodePacked(_no))) % 100));\r\n                temperature[i] = (temperature[i] % 10);\r\n                temperature[i] = (temperature[i] * 3);\r\n                _no++;\r\n                emit pop(temperature[i]);\r\n            }\r\n            return temperature;\r\n        }\r\n\r\n        function randomaccelerometer(uint no, uint hrs)\r\n            public\r\n            returns (uint[] memory)\r\n        {\r\n            uint _no = no;\r\n            for(uint i = 0 ; i<hrs ; i++) {\r\n                accelerometer.push((uint256(keccak256(abi.encodePacked(_no)))%10));\r\n                //accelerometer[i] =  accelerometer[i]/10;\r\n                _no++;\r\n                emit pop(accelerometer[i]);\r\n            }\r\n            return accelerometer;\r\n         }\r\n\r\n        function randomluminosity(uint no, uint hrs)\r\n            public\r\n            returns (uint[] memory)\r\n        {\r\n            uint _no = no;\r\n            for(uint i = 0 ; i<hrs ; i++) {\r\n                luminosity.push((uint256(keccak256(abi.encodePacked(_no)))%1000));\r\n                _no++;\r\n                emit pop(luminosity[i]);\r\n            }\r\n            return luminosity;\r\n        }\r\n\r\n        function acceptOrderByDistributor(uint _trackingNo, address _distaddr, address _produceraddr, uint _amount)\r\n            public\r\n        {\r\n            TrackingOrder storage t = trackingorder[_trackingNo];\r\n            require(ord.flag == true, \"\");\r\n\r\n            if(t.trackingNo == _trackingNo){\r\n                emit TransportMessage(\"Product received\");\r\n                uint amt = checkprice(_amount);\r\n                makePayment(_distaddr,_produceraddr, amt);\r\n                emit TransportMessage(\"Payment sent by distributor\");\r\n            }\r\n        }\r\n\r\n        function checkprice (uint _amount)\r\n            public\r\n            returns(uint)\r\n        {\r\n            uint amt;\r\n\r\n            for (uint i = 0;i < temperature.length; i++) {\r\n                if (temperature[i]>20) {\r\n                    amt = _amount - ((_amount*10) / 100);\r\n                } else {\r\n                    amt = _amount;\r\n                }\r\n\r\n                for (uint j = 0; j < luminosity.length; j++) {\r\n                    if (luminosity[i] > 80) {\r\n                        amt = _amount - ((_amount*10) / 100);\r\n                    } else {\r\n                        amt = _amount;\r\n                    }\r\n                    for (uint k = 0; k < accelerometer.length; k++) {\r\n                        if (accelerometer[i] < 1) {\r\n                            amt = _amount - ((_amount*10) / 100);\r\n                        } else {\r\n                            amt = _amount;\r\n                        }\r\n                    }\r\n                }\r\n            }\r\n\r\n            emit TransportInfo(\"The Final Amount is: \",amt);\r\n\r\n            if (amt == _amount) {\r\n                emit TransportMessage(\"Custom's Verified\");\r\n            }\r\n             return _amount;\r\n        }\r\n}\r\n",
  "sourcePath": "/Volumes/HOME/pingleware-contracts/contracts/transportation/Transport.sol",
  "compiler": {
    "name": "solc",
    "version": "0.8.18+commit.87f61d96.Emscripten.clang"
  },
  "schemaVersion": "3.4.12",
  "updatedAt": "2024-05-23T18:56:27.436Z",
  "devdoc": {
    "kind": "dev",
    "methods": {},
    "version": 1
  },
  "userdoc": {
    "kind": "user",
    "methods": {},
    "version": 1
  }
}