{
  "contractName": "TransferAgent",
  "abi": [
    {
      "inputs": [
        {
          "internalType": "address",
          "name": "account_contract",
          "type": "address"
        },
        {
          "internalType": "address",
          "name": "transaction_contract",
          "type": "address"
        },
        {
          "internalType": "address",
          "name": "activeoffering_contract",
          "type": "address"
        }
      ],
      "stateMutability": "nonpayable",
      "type": "constructor"
    },
    {
      "anonymous": false,
      "inputs": [
        {
          "indexed": false,
          "internalType": "address",
          "name": "sender",
          "type": "address"
        },
        {
          "indexed": false,
          "internalType": "address",
          "name": "offering",
          "type": "address"
        },
        {
          "indexed": false,
          "internalType": "uint256",
          "name": "value",
          "type": "uint256"
        }
      ],
      "name": "ExemptOffering",
      "type": "event"
    },
    {
      "anonymous": false,
      "inputs": [
        {
          "indexed": false,
          "internalType": "address",
          "name": "addr",
          "type": "address"
        },
        {
          "indexed": false,
          "internalType": "uint256",
          "name": "amount",
          "type": "uint256"
        }
      ],
      "name": "Minted",
      "type": "event"
    },
    {
      "anonymous": false,
      "inputs": [
        {
          "indexed": false,
          "internalType": "address",
          "name": "addr",
          "type": "address"
        }
      ],
      "name": "MinterAdded",
      "type": "event"
    },
    {
      "anonymous": false,
      "inputs": [
        {
          "indexed": false,
          "internalType": "address",
          "name": "sender",
          "type": "address"
        },
        {
          "indexed": false,
          "internalType": "address",
          "name": "offering",
          "type": "address"
        },
        {
          "indexed": false,
          "internalType": "uint256",
          "name": "timestamp",
          "type": "uint256"
        }
      ],
      "name": "OfferingDisabled",
      "type": "event"
    },
    {
      "anonymous": false,
      "inputs": [
        {
          "indexed": false,
          "internalType": "address",
          "name": "sender",
          "type": "address"
        },
        {
          "indexed": false,
          "internalType": "address",
          "name": "offering",
          "type": "address"
        },
        {
          "indexed": false,
          "internalType": "uint256",
          "name": "timestamp",
          "type": "uint256"
        }
      ],
      "name": "OfferingEnabled",
      "type": "event"
    },
    {
      "anonymous": false,
      "inputs": [
        {
          "indexed": false,
          "internalType": "address",
          "name": "addr",
          "type": "address"
        },
        {
          "indexed": false,
          "internalType": "uint256",
          "name": "amount",
          "type": "uint256"
        }
      ],
      "name": "Transfer",
      "type": "event"
    },
    {
      "anonymous": false,
      "inputs": [
        {
          "indexed": false,
          "internalType": "address",
          "name": "owner",
          "type": "address"
        },
        {
          "indexed": false,
          "internalType": "address",
          "name": "addr",
          "type": "address"
        }
      ],
      "name": "TransferAgentAdded",
      "type": "event"
    },
    {
      "anonymous": false,
      "inputs": [
        {
          "indexed": false,
          "internalType": "address",
          "name": "owner",
          "type": "address"
        },
        {
          "indexed": false,
          "internalType": "address",
          "name": "addr",
          "type": "address"
        }
      ],
      "name": "TransferAgentRemoved",
      "type": "event"
    },
    {
      "anonymous": false,
      "inputs": [
        {
          "indexed": false,
          "internalType": "address",
          "name": "from",
          "type": "address"
        },
        {
          "indexed": false,
          "internalType": "address",
          "name": "to",
          "type": "address"
        },
        {
          "indexed": false,
          "internalType": "uint256",
          "name": "value",
          "type": "uint256"
        }
      ],
      "name": "TransferFrom",
      "type": "event"
    },
    {
      "inputs": [
        {
          "internalType": "address",
          "name": "offering",
          "type": "address"
        }
      ],
      "name": "checkTransferAgent",
      "outputs": [
        {
          "internalType": "bool",
          "name": "",
          "type": "bool"
        }
      ],
      "stateMutability": "payable",
      "type": "function",
      "payable": true
    },
    {
      "inputs": [
        {
          "internalType": "address",
          "name": "offering",
          "type": "address"
        }
      ],
      "name": "getTransferAgent",
      "outputs": [
        {
          "internalType": "address",
          "name": "",
          "type": "address"
        }
      ],
      "stateMutability": "view",
      "type": "function",
      "constant": true
    },
    {
      "inputs": [
        {
          "internalType": "address",
          "name": "offering",
          "type": "address"
        },
        {
          "internalType": "address",
          "name": "addr",
          "type": "address"
        },
        {
          "internalType": "string",
          "name": "hash",
          "type": "string"
        }
      ],
      "name": "addVerified",
      "outputs": [],
      "stateMutability": "nonpayable",
      "type": "function"
    },
    {
      "inputs": [
        {
          "internalType": "address",
          "name": "offering",
          "type": "address"
        },
        {
          "internalType": "address",
          "name": "addr",
          "type": "address"
        }
      ],
      "name": "removeVerified",
      "outputs": [],
      "stateMutability": "nonpayable",
      "type": "function"
    },
    {
      "inputs": [
        {
          "internalType": "address",
          "name": "offering",
          "type": "address"
        },
        {
          "internalType": "address",
          "name": "addr",
          "type": "address"
        },
        {
          "internalType": "string",
          "name": "hash",
          "type": "string"
        }
      ],
      "name": "updateVerified",
      "outputs": [],
      "stateMutability": "nonpayable",
      "type": "function"
    },
    {
      "inputs": [
        {
          "internalType": "address",
          "name": "offering",
          "type": "address"
        },
        {
          "internalType": "address",
          "name": "addr",
          "type": "address"
        }
      ],
      "name": "isSuperseded",
      "outputs": [
        {
          "internalType": "bool",
          "name": "",
          "type": "bool"
        }
      ],
      "stateMutability": "view",
      "type": "function",
      "constant": true
    },
    {
      "inputs": [
        {
          "internalType": "address",
          "name": "offering",
          "type": "address"
        }
      ],
      "name": "holderCount",
      "outputs": [
        {
          "internalType": "uint256",
          "name": "",
          "type": "uint256"
        }
      ],
      "stateMutability": "view",
      "type": "function",
      "constant": true
    },
    {
      "inputs": [
        {
          "internalType": "address",
          "name": "offering",
          "type": "address"
        },
        {
          "internalType": "uint256",
          "name": "index",
          "type": "uint256"
        }
      ],
      "name": "holderAt",
      "outputs": [
        {
          "internalType": "address",
          "name": "",
          "type": "address"
        }
      ],
      "stateMutability": "view",
      "type": "function",
      "constant": true
    },
    {
      "inputs": [
        {
          "internalType": "address",
          "name": "offering",
          "type": "address"
        },
        {
          "internalType": "address",
          "name": "addr",
          "type": "address"
        },
        {
          "internalType": "enum Shareholder.InvestorType",
          "name": "level",
          "type": "uint8"
        }
      ],
      "name": "addShareholder",
      "outputs": [],
      "stateMutability": "nonpayable",
      "type": "function"
    },
    {
      "inputs": [
        {
          "internalType": "address",
          "name": "offering",
          "type": "address"
        },
        {
          "internalType": "address",
          "name": "original",
          "type": "address"
        },
        {
          "internalType": "address",
          "name": "replacement",
          "type": "address"
        }
      ],
      "name": "cancelAndReissue",
      "outputs": [],
      "stateMutability": "nonpayable",
      "type": "function"
    },
    {
      "inputs": [
        {
          "internalType": "address",
          "name": "offering",
          "type": "address"
        },
        {
          "internalType": "uint256",
          "name": "timestamp",
          "type": "uint256"
        },
        {
          "internalType": "bool",
          "name": "_active",
          "type": "bool"
        }
      ],
      "name": "toggleExemptOffering",
      "outputs": [],
      "stateMutability": "nonpayable",
      "type": "function"
    },
    {
      "inputs": [
        {
          "internalType": "address",
          "name": "_owner",
          "type": "address"
        },
        {
          "internalType": "address",
          "name": "spender",
          "type": "address"
        }
      ],
      "name": "allowance",
      "outputs": [
        {
          "internalType": "uint256",
          "name": "",
          "type": "uint256"
        }
      ],
      "stateMutability": "view",
      "type": "function",
      "constant": true
    },
    {
      "inputs": [
        {
          "internalType": "address",
          "name": "offering",
          "type": "address"
        },
        {
          "internalType": "address",
          "name": "addr",
          "type": "address"
        }
      ],
      "name": "addMinter",
      "outputs": [],
      "stateMutability": "nonpayable",
      "type": "function"
    },
    {
      "inputs": [
        {
          "internalType": "address",
          "name": "offering",
          "type": "address"
        },
        {
          "internalType": "address",
          "name": "addr",
          "type": "address"
        }
      ],
      "name": "addTransferAgent",
      "outputs": [],
      "stateMutability": "nonpayable",
      "type": "function"
    },
    {
      "inputs": [
        {
          "internalType": "address",
          "name": "offering",
          "type": "address"
        },
        {
          "internalType": "address",
          "name": "addr",
          "type": "address"
        }
      ],
      "name": "removeTransferAgent",
      "outputs": [],
      "stateMutability": "nonpayable",
      "type": "function"
    },
    {
      "inputs": [
        {
          "internalType": "address",
          "name": "addr",
          "type": "address"
        }
      ],
      "name": "isVerified",
      "outputs": [
        {
          "internalType": "bool",
          "name": "",
          "type": "bool"
        }
      ],
      "stateMutability": "view",
      "type": "function",
      "constant": true
    },
    {
      "inputs": [
        {
          "internalType": "address",
          "name": "offering",
          "type": "address"
        },
        {
          "internalType": "address",
          "name": "addr",
          "type": "address"
        }
      ],
      "name": "getCurrentFor",
      "outputs": [
        {
          "internalType": "address",
          "name": "",
          "type": "address"
        }
      ],
      "stateMutability": "nonpayable",
      "type": "function"
    },
    {
      "inputs": [
        {
          "internalType": "address",
          "name": "_contract",
          "type": "address"
        },
        {
          "internalType": "uint256",
          "name": "value",
          "type": "uint256"
        }
      ],
      "name": "setParValue",
      "outputs": [],
      "stateMutability": "nonpayable",
      "type": "function"
    },
    {
      "inputs": [
        {
          "internalType": "address",
          "name": "offering",
          "type": "address"
        },
        {
          "internalType": "address",
          "name": "_to",
          "type": "address"
        },
        {
          "internalType": "uint256",
          "name": "_amount",
          "type": "uint256"
        },
        {
          "internalType": "uint256",
          "name": "_epoch",
          "type": "uint256"
        },
        {
          "internalType": "uint256",
          "name": "_initial_supply",
          "type": "uint256"
        }
      ],
      "name": "mint",
      "outputs": [
        {
          "internalType": "bool",
          "name": "",
          "type": "bool"
        }
      ],
      "stateMutability": "nonpayable",
      "type": "function"
    },
    {
      "inputs": [
        {
          "internalType": "address",
          "name": "offering",
          "type": "address"
        },
        {
          "internalType": "address",
          "name": "to",
          "type": "address"
        },
        {
          "internalType": "uint256",
          "name": "value",
          "type": "uint256"
        },
        {
          "internalType": "uint256",
          "name": "epoch",
          "type": "uint256"
        }
      ],
      "name": "transfer",
      "outputs": [
        {
          "internalType": "bool",
          "name": "",
          "type": "bool"
        }
      ],
      "stateMutability": "nonpayable",
      "type": "function"
    },
    {
      "inputs": [
        {
          "internalType": "address",
          "name": "offering",
          "type": "address"
        },
        {
          "internalType": "address",
          "name": "from",
          "type": "address"
        },
        {
          "internalType": "address",
          "name": "to",
          "type": "address"
        },
        {
          "internalType": "uint256",
          "name": "value",
          "type": "uint256"
        },
        {
          "internalType": "uint256",
          "name": "epoch",
          "type": "uint256"
        }
      ],
      "name": "transferFrom",
      "outputs": [
        {
          "internalType": "bool",
          "name": "",
          "type": "bool"
        }
      ],
      "stateMutability": "nonpayable",
      "type": "function"
    }
  ],
  "bytecode": "0x60806040523480156200001157600080fd5b506040516200327238038062003272833981016040819052620000349162000094565b60008054600160a060020a03948516600160a060020a031991821617909155600180549385169382169390931790925560028054919093169116179055620000de565b8051600160a060020a03811681146200008f57600080fd5b919050565b600080600060608486031215620000aa57600080fd5b620000b58462000077565b9250620000c56020850162000077565b9150620000d56040850162000077565b90509250925092565b61318480620000ee6000396000f3fe6080604052600436106100fd5760e060020a60003504630411b2528114610102578063055f5540146101375780630b08058c1461016457806310f021131461018657806317c60814146101a657806324420c6d146101c65780633ae5a3c6146101e65780634d68618314610206578063547f4e39146102265780637813e7f51461024657806384a1a7d21461027457806394af8339146102945780639ceeaca7146102b4578063b45e1be4146102d4578063b5bb61b0146102f4578063b9209e3314610307578063ba0e6cc914610327578063dd62ed3e14610347578063ec58c95614610367578063fa188df214610387578063fd41975c146103a7575b600080fd5b34801561010e57600080fd5b5061012261011d3660046129d3565b6103c7565b60405190151581526020015b60405180910390f35b34801561014357600080fd5b50610157610152366004612a19565b610711565b60405161012e9190612a3d565b34801561017057600080fd5b5061018461017f366004612a51565b6107f6565b005b34801561019257600080fd5b506101226101a1366004612a7d565b610911565b3480156101b257600080fd5b506101846101c1366004612ad8565b610ca6565b3480156101d257600080fd5b506101846101e1366004612b31565b610f87565b3480156101f257600080fd5b50610184610201366004612b68565b611161565b34801561021257600080fd5b50610184610221366004612bbb565b611375565b34801561023257600080fd5b50610157610241366004612a51565b6114f0565b34801561025257600080fd5b50610266610261366004612a19565b6116e3565b60405190815260200161012e565b34801561028057600080fd5b5061018461028f366004612b68565b611811565b3480156102a057600080fd5b506101846102af366004612c90565b6119ba565b3480156102c057600080fd5b506101226102cf366004612cd4565b611aac565b3480156102e057600080fd5b506101226102ef366004612b68565b611e50565b610122610302366004612a19565b611f81565b34801561031357600080fd5b50610122610322366004612a19565b61201b565b34801561033357600080fd5b50610184610342366004612b68565b61202c565b34801561035357600080fd5b50610266610362366004612b68565b6121ab565b34801561037357600080fd5b50610184610382366004612bbb565b6121e5565b34801561039357600080fd5b506101846103a2366004612b68565b6123fd565b3480156103b357600080fd5b506101576103c2366004612b68565b612577565b6000600160a060020a0385166103fb5760405160e560020a62461bcd0281526004016103f290612d25565b60405180910390fd5b60025460405160e060020a639f8a13d7028152600160a060020a0390911690639f8a13d79061042e908890600401612a3d565b602060405180830381865afa15801561044b573d6000803e3d6000fd5b505050506040513d601f19601f8201168201806040525081019061046f9190612d5b565b61048e5760405160e560020a62461bcd0281526004016103f290612d78565b60015460405160e160020a625d2057028152600160a060020a039091169062ba40ae906104bf908790600401612a3d565b602060405180830381865afa1580156104dc573d6000803e3d6000fd5b505050506040513d601f19601f820116820180604052508101906105009190612d5b565b61051f5760405160e560020a62461bcd0281526004016103f290612dab565b60405160e460020a630ac8a2af02815273__Shareholder___________________________9063ac8a2af090610559908790600401612a3d565b60006040518083038186803b15801561057157600080fd5b505af4158015610585573d6000803e3d6000fd5b505060405160e260020a630395347f02815273__Shareholder___________________________9250630e54d1fc91506105c59033908790600401612de2565b60006040518083038186803b1580156105dd57600080fd5b505af41580156105f1573d6000803e3d6000fd5b5050505060006105ff612636565b600160a060020a038716600090815260049190910160205260409020546106269085612dfb565b60015460405160e060020a63590c4ef9028152919250600160a060020a03169063590c4ef990610660908890859089908990600401612e21565b600060405180830381600087803b15801561067a57600080fd5b505af115801561068e573d6000803e3d6000fd5b505060015460405160e060020a63590c4ef9028152600160a060020a03909116925063590c4ef991506106cb903390859089908990600401612e21565b600060405180830381600087803b1580156106e557600080fd5b505af11580156106f9573d6000803e3d6000fd5b50505050610707858561265a565b9695505050505050565b6000805b61071d612636565b600160a060020a038416600090815260209190915260409020548110156107ed5733610747612636565b600160a060020a03851660009081526020919091526040902080548390811061077257610772612e47565b600091825260209091200154600160a060020a0316036107db57610794612636565b600160a060020a0384166000908152602091909152604090208054829081106107bf576107bf612e47565b600091825260209091200154600160a060020a03169392505050565b806107e581612e61565b915050610715565b50600092915050565b816000805b610803612636565b600160a060020a03841660009081526020919091526040902054811015610889573361082d612636565b600160a060020a03851660009081526020919091526040902080548390811061085857610858612e47565b600091825260209091200154600160a060020a03160361087757600191505b8061088181612e61565b9150506107fb565b50806108aa5760405160e560020a62461bcd0281526004016103f290612e8c565b6108b2612636565b600501805460018101825560009182526020909120018054600160a060020a031916600160a060020a038616179055826108ea612636565b600160a060020a039095166000908152600495909501602052604090942093909355505050565b6000600160a060020a03861661093c5760405160e560020a62461bcd0281526004016103f290612d25565b600160a060020a0385166109655760405160e560020a62461bcd0281526004016103f290612ed6565b600160a060020a03841661098e5760405160e560020a62461bcd0281526004016103f290612ed6565b60025460405160e060020a639f8a13d7028152600160a060020a0390911690639f8a13d7906109c1908990600401612a3d565b602060405180830381865afa1580156109de573d6000803e3d6000fd5b505050506040513d601f19601f82011682018060405250810190610a029190612d5b565b610a215760405160e560020a62461bcd0281526004016103f290612d78565b60015460405160e160020a625d2057028152600160a060020a039091169062ba40ae90610a52908790600401612a3d565b602060405180830381865afa158015610a6f573d6000803e3d6000fd5b505050506040513d601f19601f82011682018060405250810190610a939190612d5b565b610ab25760405160e560020a62461bcd0281526004016103f290612dab565b60405160e460020a630ac8a2af02815273__Shareholder___________________________9063ac8a2af090610aec908790600401612a3d565b60006040518083038186803b158015610b0457600080fd5b505af4158015610b18573d6000803e3d6000fd5b505060405160e260020a630395347f02815273__Shareholder___________________________9250630e54d1fc9150610b589088908790600401612de2565b60006040518083038186803b158015610b7057600080fd5b505af4158015610b84573d6000803e3d6000fd5b505050506000610b92612636565b600160a060020a03881660009081526004919091016020526040902054610bb99085612dfb565b60015460405160e060020a63590c4ef9028152919250600160a060020a03169063590c4ef990610bf3908890859089908990600401612e21565b600060405180830381600087803b158015610c0d57600080fd5b505af1158015610c21573d6000803e3d6000fd5b505060015460405160e060020a63590c4ef9028152600160a060020a03909116925063590c4ef99150610c5e908990859089908990600401612e21565b600060405180830381600087803b158015610c7857600080fd5b505af1158015610c8c573d6000803e3d6000fd5b50505050610c9b868686612704565b979650505050505050565b826000805b610cb3612636565b600160a060020a03841660009081526020919091526040902054811015610d395733610cdd612636565b600160a060020a038516600090815260209190915260409020805483908110610d0857610d08612e47565b600091825260209091200154600160a060020a031603610d2757600191505b80610d3181612e61565b915050610cab565b5080610d5a5760405160e560020a62461bcd0281526004016103f290612e8c565b600160a060020a038516610dc05760405160e560020a62461bcd02815260206004820152602160248201527f696e76616c6964206f66666572696e6720636f6e747261637420616464726573604482015260f860020a60730260648201526084016103f2565b600160a060020a038416610e165760405160e560020a62461bcd0281526020600482015260176024820152604a60020a761a5b9d985b1a59081bdc9a59da5b985b081dd85b1b195d0260448201526064016103f2565b600160a060020a038316610e6f5760405160e560020a62461bcd02815260206004820152601a60248201527f696e76616c6964207265706c6163656d656e742077616c6c657400000000000060448201526064016103f2565b60025460405160e060020a639f8a13d7028152600160a060020a0390911690639f8a13d790610ea2908890600401612a3d565b602060405180830381865afa158015610ebf573d6000803e3d6000fd5b505050506040513d601f19601f82011682018060405250810190610ee39190612d5b565b610f025760405160e560020a62461bcd0281526004016103f290612d78565b60405160e560020a6303cfb23902815273__Shareholder___________________________906379f6472090610f3e9087908790600401612f01565b6040805180830381865af4158015610f5a573d6000803e3d6000fd5b505050506040513d601f19601f82011682018060405250810190610f7e9190612f1b565b50505050505050565b826000805b610f94612636565b600160a060020a0384166000908152602091909152604090205481101561101a5733610fbe612636565b600160a060020a038516600090815260209190915260409020805483908110610fe957610fe9612e47565b600091825260209091200154600160a060020a03160361100857600191505b8061101281612e61565b915050610f8c565b508061103b5760405160e560020a62461bcd0281526004016103f290612e8c565b60025460405160e160020a631af1d92d028152600160a060020a0387811660048301528515156024830152909116906335e3b25a90604401600060405180830381600087803b15801561108d57600080fd5b505af11580156110a1573d6000803e3d6000fd5b50505050821561111e57836110b4612636565b600201600087600160a060020a0316600160a060020a03168152602001908152602001600020819055507f50110c8f5da126ac6401d0cc2679b4b86af2510c53bd7b6572c713eb26d50fab33868660405161111193929190612f4a565b60405180910390a161115a565b7fc464c9cf33f0a256d3dc8075d34e1f0e3c69e1cd36503616a5093c3fd3e0f69533868660405161115193929190612f4a565b60405180910390a15b5050505050565b336111815760405160e560020a62461bcd0281526004016103f290612f6e565b600160a060020a038116156111ab5760405160e560020a62461bcd0281526004016103f290612fa0565b60038054600160a060020a031916600160a060020a0384169081179091556040805160e360020a631127a41d028152905163893d20e8916004808201926020929091908290030181865afa158015611207573d6000803e3d6000fd5b505050506040513d601f19601f8201168201806040525081019061122b9190612fd7565b600160a060020a031633036112555760405160e560020a62461bcd0281526004016103f290612ff4565b60005b611260612636565b600160a060020a038416600090815260209190915260409020548110156113375781600160a060020a0316611293612636565b600160a060020a0385166000908152602091909152604090208054839081106112be576112be612e47565b600091825260209091200154600160a060020a031603611325576112e0612636565b600160a060020a03841660009081526020919091526040902080548290811061130b5761130b612e47565b60009182526020909120018054600160a060020a03191690555b8061132f81612e61565b915050611258565b507faf389abc80f1ffdb9d047f10d61eaf63326aa6d693b982d133c6064c1d13d1793382604051611369929190612f01565b60405180910390a15050565b826000805b611382612636565b600160a060020a0384166000908152602091909152604090205481101561140857336113ac612636565b600160a060020a0385166000908152602091909152604090208054839081106113d7576113d7612e47565b600091825260209091200154600160a060020a0316036113f657600191505b8061140081612e61565b91505061137a565b50806114295760405160e560020a62461bcd0281526004016103f290612e8c565b825160000361147d5760405160e560020a62461bcd02815260206004820152601f60248201527f28757064617465566572696669656429202d2068617368206973207a65726f0060448201526064016103f2565b60405160e060020a63aa4a637b02815273__Shareholder___________________________9063aa4a637b906114b99087908790600401613024565b60006040518083038186803b1580156114d157600080fd5b505af41580156114e5573d6000803e3d6000fd5b505050505050505050565b6000826000805b6114ff612636565b600160a060020a038416600090815260209190915260409020548110156115855733611529612636565b600160a060020a03851660009081526020919091526040902080548390811061155457611554612e47565b600091825260209091200154600160a060020a03160361157357600191505b8061157d81612e61565b9150506114f7565b50806115a65760405160e560020a62461bcd0281526004016103f290612e8c565b73__Shareholder___________________________631aab9a9f6040518163ffffffff1660e060020a028152600401602060405180830381865af41580156115f2573d6000803e3d6000fd5b505050506040513d601f19601f820116820180604052508101906116169190613083565b84106116635760405160e560020a62461bcd0281526020600482015260166024820152605060020a75686f6c6465724174206f7574206f6620626f756e64730260448201526064016103f2565b60405160e160020a630cbde19b0281526004810185905273__Shareholder___________________________9063197bc33690602401602060405180830381865af41580156116b6573d6000803e3d6000fd5b505050506040513d601f19601f820116820180604052508101906116da9190612fd7565b95945050505050565b6000816000805b6116f2612636565b600160a060020a03841660009081526020919091526040902054811015611778573361171c612636565b600160a060020a03851660009081526020919091526040902080548390811061174757611747612e47565b600091825260209091200154600160a060020a03160361176657600191505b8061177081612e61565b9150506116ea565b50806117995760405160e560020a62461bcd0281526004016103f290612e8c565b73__Shareholder___________________________631aab9a9f6040518163ffffffff1660e060020a028152600401602060405180830381865af41580156117e5573d6000803e3d6000fd5b505050506040513d601f19601f820116820180604052508101906118099190613083565b949350505050565b336118315760405160e560020a62461bcd0281526004016103f290612f6e565b600160a060020a03811661185a5760405160e560020a62461bcd0281526004016103f290612fa0565b60038054600160a060020a031916600160a060020a0384169081179091556040805160e360020a631127a41d028152905163893d20e8916004808201926020929091908290030181865afa1580156118b6573d6000803e3d6000fd5b505050506040513d601f19601f820116820180604052508101906118da9190612fd7565b600160a060020a031633036119045760405160e560020a62461bcd0281526004016103f290612ff4565b61190c612636565b600160a060020a03838116600090815260209283526040812080546001810182559082529290209091018054600160a060020a03191691831691909117905533611954612636565b600160a060020a0384811660009081526006929092016020526040918290208054600160a060020a0319169390911692909217909155517f2e4cac6df140daa75de705aceea9de24b1ff332042e59f804e74bdc9b8559d6b906113699033908490612f01565b826000805b6119c7612636565b600160a060020a03841660009081526020919091526040902054811015611a4d57336119f1612636565b600160a060020a038516600090815260209190915260409020805483908110611a1c57611a1c612e47565b600091825260209091200154600160a060020a031603611a3b57600191505b80611a4581612e61565b9150506119bf565b5080611a6e5760405160e560020a62461bcd0281526004016103f290612e8c565b60405160e060020a6320dc478502815273__Shareholder___________________________906320dc4785906114b99088908890889060040161309c565b6000856000805b611abb612636565b600160a060020a03841660009081526020919091526040902054811015611b415733611ae5612636565b600160a060020a038516600090815260209190915260409020805483908110611b1057611b10612e47565b600091825260209091200154600160a060020a031603611b2f57600191505b80611b3981612e61565b915050611ab3565b5080611b625760405160e560020a62461bcd0281526004016103f290612e8c565b611b6a612636565b3360009081526003919091016020526040902054600114611bc25760405160e560020a62461bcd02815260206004820152600c602482015260a160020a6b3737ba10309036b4b73a32b90260448201526064016103f2565b600160a060020a038816611beb5760405160e560020a62461bcd0281526004016103f290612d25565b60025460405160e060020a639f8a13d7028152600160a060020a0390911690639f8a13d790611c1e908b90600401612a3d565b602060405180830381865afa158015611c3b573d6000803e3d6000fd5b505050506040513d601f19601f82011682018060405250810190611c5f9190612d5b565b611c7e5760405160e560020a62461bcd0281526004016103f290612d78565b42851015611cca5760405160e560020a62461bcd0281526020600482015260136024820152606960020a723a34b6b29039b837b7b334b7339032b93937b90260448201526064016103f2565b60405160e460020a630ac8a2af02815273__Shareholder___________________________9063ac8a2af090611d04908a90600401612a3d565b60006040518083038186803b158015611d1c57600080fd5b505af4158015611d30573d6000803e3d6000fd5b505050506000611d3e612636565b600160a060020a038a1660009081526004919091016020526040902054611d659088612dfb565b60015460405160e060020a63590c4ef9028152919250600160a060020a03169063590c4ef990611d9f908b9085908c908c90600401612e21565b600060405180830381600087803b158015611db957600080fd5b505af1158015611dcd573d6000803e3d6000fd5b505060005460405160e060020a63f5d82b6b028152600160a060020a03909116925063f5d82b6b9150611e06908c908590600401612de2565b600060405180830381600087803b158015611e2057600080fd5b505af1158015611e34573d6000803e3d6000fd5b50505050611e4388888761282a565b9998505050505050505050565b6000826000805b611e5f612636565b600160a060020a03841660009081526020919091526040902054811015611ee55733611e89612636565b600160a060020a038516600090815260209190915260409020805483908110611eb457611eb4612e47565b600091825260209091200154600160a060020a031603611ed357600191505b80611edd81612e61565b915050611e57565b5080611f065760405160e560020a62461bcd0281526004016103f290612e8c565b60405160e160020a6316d3949f02815273__Shareholder___________________________90632da7293e90611f40908790600401612a3d565b602060405180830381865af4158015611f5d573d6000803e3d6000fd5b505050506040513d601f19601f820116820180604052508101906116da9190612d5b565b600080805b611f8e612636565b600160a060020a038516600090815260209190915260409020548110156120145733611fb8612636565b600160a060020a038616600090815260209190915260409020805483908110611fe357611fe3612e47565b600091825260209091200154600160a060020a03160361200257600191505b8061200c81612e61565b915050611f86565b5092915050565b6000612026826128aa565b92915050565b816000805b612039612636565b600160a060020a038416600090815260209190915260409020548110156120bf5733612063612636565b600160a060020a03851660009081526020919091526040902080548390811061208e5761208e612e47565b600091825260209091200154600160a060020a0316036120ad57600191505b806120b781612e61565b915050612031565b50806120e05760405160e560020a62461bcd0281526004016103f290612e8c565b600160a060020a038316311561213b5760405160e560020a62461bcd02815260206004820152601b60248201527f6163636f756e742062616c616e6365206973206e6f74207a65726f000000000060448201526064016103f2565b60405160e160020a632243d9c902815273__Shareholder___________________________90634487b39290612175908690600401612a3d565b60006040518083038186803b15801561218d57600080fd5b505af41580156121a1573d6000803e3d6000fd5b5050505050505050565b60006121b5612636565b600160a060020a039384166000908152600191909101602090815260408083209490951682529290925250205490565b826000805b6121f2612636565b600160a060020a03841660009081526020919091526040902054811015612278573361221c612636565b600160a060020a03851660009081526020919091526040902080548390811061224757612247612e47565b600091825260209091200154600160a060020a03160361226657600191505b8061227081612e61565b9150506121ea565b50806122995760405160e560020a62461bcd0281526004016103f290612e8c565b600160a060020a0384166123005760405160e560020a62461bcd02815260206004820152602260248201527f28616464566572696669656429202d2061646472657373206973206d69737369604482015260f060020a616e670260648201526084016103f2565b82516000036123545760405160e560020a62461bcd02815260206004820152601f60248201527f28616464566572696669656429202d2068617368206973206d697373696e670060448201526064016103f2565b61235d846128aa565b6123c15760405160e560020a62461bcd02815260206004820152602960248201527f28616464566572696669656429202d20696e766573746f7220616c7265616479604482015260ba60020a68081d995c9a599a59590260648201526084016103f2565b60405160e060020a6355c904d302815273__Shareholder___________________________906355c904d3906114b99087908790600401613024565b816000805b61240a612636565b600160a060020a038416600090815260209190915260409020548110156124905733612434612636565b600160a060020a03851660009081526020919091526040902080548390811061245f5761245f612e47565b600091825260209091200154600160a060020a03160361247e57600191505b8061248881612e61565b915050612402565b50806124b15760405160e560020a62461bcd0281526004016103f290612e8c565b600160a060020a0383166125065760405160e560020a62461bcd0281526020600482015260166024820152605060020a756d697373696e67206d696e74657220616464726573730260448201526064016103f2565b6001612510612636565b600301600085600160a060020a0316600160a060020a03168152602001908152602001600020819055507f6ae172837ea30b801fbfcdd4108aa1d5bf8ff775444fd70256b44e6bf3dfc3f6836040516125699190612a3d565b60405180910390a150505050565b6000826000805b612586612636565b600160a060020a0384166000908152602091909152604090205481101561260c57336125b0612636565b600160a060020a0385166000908152602091909152604090208054839081106125db576125db612e47565b600091825260209091200154600160a060020a0316036125fa57600191505b8061260481612e61565b91505061257e565b508061262d5760405160e560020a62461bcd0281526004016103f290612e8c565b6116da84612910565b7f2953cfdd82d638aa0fb77c4bcef11ce740f241967cd71cdf80a7e6c6c6fa785b90565b6000805460405160e260020a6338c110ef028152600160a060020a039091169063e30443bc906126909086908690600401612de2565b600060405180830381600087803b1580156126aa57600080fd5b505af11580156126be573d6000803e3d6000fd5b505050507f69ca02dd4edd7bf0a4abb9ed3b7af3f14778db5d61921c7dc7cd545266326de283836040516126f3929190612de2565b60405180910390a150600192915050565b6000805460405160e260020a6311a18345028152600160a060020a03909116906346860d149061273a9087908690600401612de2565b602060405180830381865afa158015612757573d6000803e3d6000fd5b505050506040513d601f19601f8201168201806040525081019061277b9190612d5b565b5060005460405160e360020a6317d57599028152600160a060020a039091169063beabacc8906127b390879087908790600401612f4a565b600060405180830381600087803b1580156127cd57600080fd5b505af11580156127e1573d6000803e3d6000fd5b505050507fc0d84ce5c7ff9ca21adb0f8436ff3f4951b4bb78c4e2fae2b6837958b3946ffd84848460405161281893929190612f4a565b60405180910390a15060019392505050565b6000818311156128795760405160e560020a62461bcd0281526020600482015260146024820152606060020a736578636565647320746f74616c20737570706c790260448201526064016103f2565b7f30385c845b448a36257a6a1716e6ad2e1bc2cbe333cde1e69fe849ad6511adfe8484604051612818929190612de2565b6000600160a060020a0382166128d55760405160e560020a62461bcd0281526004016103f2906130e4565b60006128df61292d565b600160a060020a038416600090815260039190910160205260409020805461290690613110565b9050119050919050565b600061291b82612951565b15612924575090565b61202682612910565b7f84d6a4597c1933575f1026ccae683d8d7059c2fe21797bd5217915ddf82f909c90565b6000600160a060020a03821661297c5760405160e560020a62461bcd0281526004016103f2906130e4565b600061298661292d565b600160a060020a03808516600090815260019290920160205260409091205416036129b357506001919050565b506000919050565b600160a060020a03811681146129d057600080fd5b50565b600080600080608085870312156129e957600080fd5b84356129f4816129bb565b93506020850135612a04816129bb565b93969395505050506040820135916060013590565b600060208284031215612a2b57600080fd5b8135612a36816129bb565b9392505050565b600160a060020a0391909116815260200190565b60008060408385031215612a6457600080fd5b8235612a6f816129bb565b946020939093013593505050565b600080600080600060a08688031215612a9557600080fd5b8535612aa0816129bb565b94506020860135612ab0816129bb565b93506040860135612ac0816129bb565b94979396509394606081013594506080013592915050565b600080600060608486031215612aed57600080fd5b8335612af8816129bb565b92506020840135612b08816129bb565b91506040840135612b18816129bb565b809150509250925092565b80151581146129d057600080fd5b600080600060608486031215612b4657600080fd5b8335612b51816129bb565b9250602084013591506040840135612b1881612b23565b60008060408385031215612b7b57600080fd5b8235612b86816129bb565b91506020830135612b96816129bb565b809150509250929050565b60e060020a634e487b710260009081526041600452602490fd5b600080600060608486031215612bd057600080fd5b8335612bdb816129bb565b92506020840135612beb816129bb565b915060408401356001604060020a0380821115612c0757600080fd5b818601915086601f830112612c1b57600080fd5b813581811115612c2d57612c2d612ba1565b604051601f8201601f19908116603f01168101908382118183101715612c5557612c55612ba1565b81604052828152896020848701011115612c6e57600080fd5b8260208601602083013760006020848301015280955050505050509250925092565b600080600060608486031215612ca557600080fd5b8335612cb0816129bb565b92506020840135612cc0816129bb565b9150604084013560058110612b1857600080fd5b600080600080600060a08688031215612cec57600080fd5b8535612cf7816129bb565b94506020860135612d07816129bb565b94979496505050506040830135926060810135926080909101359150565b6020808252601990820152603a60020a781a5b9d985b1a59081bd999995c9a5b99c818dbdb9d1c9858dd02604082015260600190565b600060208284031215612d6d57600080fd5b8151612a3681612b23565b6020808252601690820152605060020a756f66666572696e67206973206e6f742061637469766502604082015260600190565b6020808252601e908201527f686f6c64696e6720706572696f6420686173206e6f7420657870697265640000604082015260600190565b600160a060020a03929092168252602082015260400190565b600082612e1c5760e060020a634e487b710260009081526012600452602490fd5b500490565b600160a060020a0394909416845260208401929092526040830152606082015260800190565b60e060020a634e487b710260009081526032600452602490fd5b600060018201612e855760e060020a634e487b710260009081526011600452602490fd5b5060010190565b60208082526027908201527f6163636573732064656e6965642c206e6f742076616c6964207472616e736665604082015260ca60020a661c881859d95b9d02606082015260800190565b6020808252600e90820152609260020a6d1a5b9d985b1a59081dd85b1b195d02604082015260600190565b600160a060020a0392831681529116602082015260400190565b60008060408385031215612f2e57600080fd5b8251612f39816129bb565b6020840151909250612b96816129bb565b600160a060020a039384168152919092166020820152604081019190915260600190565b6020808252601590820152605860020a746d697373696e67206f776e6572206164647265737302604082015260600190565b6020808252601e908201527f6d697373696e67207472616e73666572206167656e7420616464726573730000604082015260600190565b600060208284031215612fe957600080fd5b8151612a36816129bb565b6020808252601390820152606860020a72756e617574686f72697a65642061636365737302604082015260600190565b600160a060020a038316815260006020604081840152835180604085015260005b8181101561306157858101830151858201606001528201613045565b506000606082860101526060601f19601f830116850101925050509392505050565b60006020828403121561309557600080fd5b5051919050565b600160a060020a0384811682528316602082015260608101600583106130d65760e060020a634e487b710260009081526021600452602490fd5b826040830152949350505050565b6020808252600f90820152608860020a6e696e76616c6964206164647265737302604082015260600190565b60028104600182168061312457607f821691505b6020821081036131485760e060020a634e487b710260009081526022600452602490fd5b5091905056fea2646970667358221220ccf5f85401ca47fc02d5ffad7ebcdfd0bc4345f195039f26069eaea2e660b78d64736f6c63430008120033",
  "immutableReferences": {},
  "source": "// SPDX-License-Identifier: CC-BY-4.0\r\npragma solidity >=0.4.22 <0.9.0;\r\n\r\nimport \"../libs/ECVerify.sol\";\r\nimport \"./Shareholder.sol\";\r\n\r\nimport \"../interfaces/ITransaction.sol\";\r\nimport \"../interfaces/IAccount.sol\";\r\nimport \"../interfaces/IActiveOffering.sol\";\r\nimport \"../interfaces/IOfferingContract.sol\";\r\n\r\n\r\ncontract TransferAgent {\r\n    bytes32 constant private ZERO_BYTES = bytes32(0);\r\n    address constant private ZERO_ADDRESS = address(0);\r\n    //uint256 constant private negative = type(uint256).max;\r\n\r\n    event ExemptOffering(address sender,address offering, uint256 value);\r\n    event OfferingEnabled(address sender,address offering, uint256 timestamp);\r\n    event OfferingDisabled(address sender,address offering, uint256 timestamp);\r\n    event Minted(address addr, uint256 amount);\r\n\r\n    event TransferAgentAdded(address owner,address addr);\r\n    event TransferAgentRemoved(address owner,address addr);\r\n    event Transfer(address addr, uint256 amount);\r\n    event TransferFrom(address from,address to,uint256 value);\r\n    event MinterAdded(address addr);\r\n\r\n    IAccount Account;\r\n    ITransaction Transaction;\r\n    IActiveOffering ActiveOffering;\r\n    IOfferingContract private Offering;\r\n\r\n    struct TransferAgentStorage {\r\n        mapping(address => address[]) transferagents;\r\n        mapping(address => mapping(address => uint256)) _allowances;\r\n        mapping(address => uint256) start_timestamp; // maps offering contract address to startup timestamp\r\n        mapping(address => uint256) minters;\r\n        mapping(address => uint256) parValue;   // maps offering contract address to par value\r\n        address[] contract_address;\r\n        mapping(address => address) owners;\r\n    }\r\n\r\n    TransferAgentStorage taStorage;\r\n\r\n\r\n    constructor(address account_contract,\r\n                address transaction_contract,\r\n                address activeoffering_contract) {\r\n        Account = IAccount(account_contract);\r\n        Transaction = ITransaction(transaction_contract);\r\n        ActiveOffering = IActiveOffering(activeoffering_contract);\r\n    }\r\n\r\n    function transferAgentStorage()\r\n        internal\r\n        pure\r\n        returns (TransferAgentStorage storage ds)\r\n    {\r\n        bytes32 position = keccak256(\"TransferAgent.storage\");\r\n        assembly {\r\n            ds.slot := position\r\n        }\r\n    }\r\n\r\n    modifier isMinter() {\r\n      require(transferAgentStorage().minters[msg.sender] == 1,\"not a minter\");\r\n      _;\r\n    }\r\n\r\n     // Solving the onlyOwner sppofing: \r\n     // using web3.eth.sign() to generate a signed hash of the owner address and passing the hash and signature to this method\r\n    modifier onlyTransferAgent(address offering) {\r\n        bool found = false;\r\n        for (uint i = 0; i < transferAgentStorage().transferagents[offering].length; i++) {\r\n            if (transferAgentStorage().transferagents[offering][i] == msg.sender) {\r\n                found = true;\r\n            }\r\n        }\r\n        require(found, \"access denied, not valid transfer agent\");\r\n        _;\r\n    }\r\n\r\n    modifier isTransferAgent(address offering, address addr) {\r\n        bool found = false;\r\n        for (uint i = 0; i < transferAgentStorage().transferagents[offering].length; i++) {\r\n            if (transferAgentStorage().transferagents[offering][i] == msg.sender) {\r\n                found = true;\r\n            }\r\n        }\r\n        require(found, \"access denied, not valid transfer agent\");\r\n        _;\r\n    }\r\n\r\n    function checkTransferAgent(address offering)\r\n        external\r\n        payable\r\n        returns (bool)\r\n    {\r\n        bool found = false;\r\n        for (uint i = 0; i < transferAgentStorage().transferagents[offering].length; i++) {\r\n            if (transferAgentStorage().transferagents[offering][i] == msg.sender) {\r\n                found = true;\r\n            }\r\n        }\r\n        return found;\r\n    }\r\n\r\n    function getTransferAgent(address offering)\r\n        external\r\n        view\r\n        returns (address)\r\n    {\r\n        for (uint i = 0; i < transferAgentStorage().transferagents[offering].length; i++) {\r\n            if (transferAgentStorage().transferagents[offering][i] == msg.sender) {\r\n                return transferAgentStorage().transferagents[offering][i];\r\n            }\r\n        }\r\n        return ZERO_ADDRESS;\r\n    }\r\n\r\n    //function setMaxUnaccreditInvestors(address offering, uint256 value, uint256 nonce, byte signature)\r\n    //    external\r\n    //    onlyTransferAgent(offering)\r\n   // {\r\n    //    Shareholder.setMaxUnaccreditInvestors(value);\r\n    //}\r\n\r\n    // *  Add a verified address, along with an associated verification hash to the contract.\r\n    // *  Upon successful addition of a verified address, the contract must emit\r\n    // *  `VerifiedAddressAdded(addr, hash, msg.sender)`.\r\n    // *  It MUST throw if the supplied address or hash are zero, or if the address has already been supplied.\r\n    // *  @param addr The address of the person represented by the supplied hash.\r\n    // *  @param hash A cryptographic hash of the address holder's verified information.\r\n    function addVerified(address offering, address addr, string memory hash)\r\n        public\r\n        onlyTransferAgent(offering)\r\n    {\r\n        require(addr != ZERO_ADDRESS, \"(addVerified) - address is missing\");\r\n        require(bytes(hash).length != 0, \"(addVerified) - hash is missing\");\r\n        require(Shareholder.isVerifiedAddress(addr), \"(addVerified) - investor already verified\");\r\n        Shareholder.addVerified(addr, hash);\r\n    }\r\n\r\n    // *  Remove a verified address, and the associated verification hash. If the address is\r\n    // *  unkblock.timestampn to the contract then this does nothing. If the address is successfully removed, this\r\n    // *  function must emit `VerifiedAddressRemoved(addr, msg.sender)`.\r\n    // *  It MUST throw if an attempt is made to remove a verifiedAddress that owns Tokens.\r\n    // *  @param addr The verified address to be removed.\r\n    function removeVerified(address offering, address addr)\r\n        external\r\n        onlyTransferAgent(offering)\r\n    {\r\n        require(addr.balance == 0, \"account balance is not zero\");\r\n        Shareholder.removeVerified(addr);\r\n    }\r\n\r\n    // *  Update the hash for a verified address known to the contract.\r\n    // *  Upon successful update of a verified address the contract must emit\r\n    // *  `VerifiedAddressUpdated(addr, oldHash, hash, msg.sender)`.\r\n    // *  If the hash is the same as the value already stored then\r\n    // *  no `VerifiedAddressUpdated` event is to be emitted.\r\n    // *  It MUST throw if the hash is zero, or if the address is unverified.\r\n    // *  @param addr The verified address of the person represented by the supplied hash.\r\n    // *  @param hash A new cryptographic hash of the address holder's updated verified information.\r\n    function updateVerified(address offering, address addr, string memory hash)\r\n        external\r\n        onlyTransferAgent(offering)\r\n    {\r\n        require(bytes(hash).length != 0, \"(updateVerified) - hash is zero\");\r\n        Shareholder.updateVerified(addr, hash);\r\n    }\r\n\r\n    // *  Checks to see if the supplied address was superseded.\r\n    // *  @param addr The address to check.\r\n    // *  @return true if the supplied address was superseded by another address.\r\n    function isSuperseded(address offering, address addr)\r\n        external view\r\n        onlyTransferAgent(offering)\r\n        returns (bool)\r\n    {\r\n        return Shareholder.isSuperseded(addr);\r\n    }\r\n\r\n    // *  The number of addresses that own tokens.\r\n    // *  @return the number of unique addresses that own tokens.\r\n    function holderCount(address offering)\r\n        external view\r\n        onlyTransferAgent(offering)\r\n        returns (uint)\r\n    {\r\n        return Shareholder.holderCount();\r\n    }\r\n\r\n    // *  By counting the number of token holders using `holderCount`\r\n    // *  you can retrieve the complete list of token holders, one at a time.\r\n    // *  It MUST throw if `index >= holderCount()`.\r\n    // *  @param index The zero-based index of the holder.\r\n    // *  @return the address of the token holder with the given index.\r\n    function holderAt(address offering, uint256 index)\r\n        external view\r\n        onlyTransferAgent(offering)\r\n        returns (address)\r\n    {\r\n        require(index < Shareholder.holderCount(), \"holderAt out of bounds\");\r\n        return Shareholder.holderAt(index);\r\n    }\r\n    // * Shareholder level:\r\n    // *    1 = non-accredited shareholder\r\n    // *    2 = accredited shareholder\r\n    // *    3 = affiliate shareholder\r\n    function addShareholder(address offering, address addr, Shareholder.InvestorType level)\r\n        external\r\n        onlyTransferAgent(offering)\r\n    {\r\n        Shareholder.addShareholder(offering, addr, level);\r\n    }\r\n\r\n    // *  Cancel the original address and reissue the Tokens to the replacement address.\r\n    // *  Access to this function MUST be strictly controlled.\r\n    // *  The `original` address MUST be removed from the set of verified addresses.\r\n    // *  Throw if the `original` address supplied is not a shareholder.\r\n    // *  Throw if the replacement address is not a verified address.\r\n    // *  This function MUST emit the `VerifiedAddressSuperseded` event.\r\n    // *  @param original The address to be superseded. This address MUST NOT be reused.\r\n    // *  @param replacement The address  that supersedes the original. This address MUST be verified.\r\n    function cancelAndReissue(address offering, address original, address replacement)\r\n        external\r\n        onlyTransferAgent(offering)\r\n    {\r\n        require(offering != ZERO_ADDRESS,\"invalid offering contract address\");\r\n        require(original != ZERO_ADDRESS,\"invalid original wallet\");\r\n        require(replacement != ZERO_ADDRESS,\"invalid replacement wallet\");\r\n        require(ActiveOffering.isActive(offering),\"offering is not active\");\r\n        Shareholder.cancelAndReissue(original, replacement);\r\n    }\r\n\r\n    function toggleExemptOffering(address offering, uint256 timestamp, bool _active)\r\n        external\r\n        onlyTransferAgent(offering)\r\n    {\r\n        ActiveOffering.set(offering,_active);\r\n\r\n        if (_active) {\r\n            transferAgentStorage().start_timestamp[offering] = timestamp;\r\n            emit OfferingEnabled(msg.sender, offering, timestamp);\r\n        } else {\r\n            emit OfferingDisabled(msg.sender, offering, timestamp);\r\n        }\r\n    }\r\n\r\n    function _mint(address addr, uint256 amount, uint256 _initial_supply)\r\n      internal\r\n      returns (bool)\r\n    {\r\n      require(amount <= _initial_supply, \"exceeds total supply\");\r\n      emit Minted(addr, amount);\r\n      return true;\r\n    }\r\n\r\n\r\n    function allowance(address _owner, address spender)\r\n      external\r\n      view\r\n      returns (uint256)\r\n    {\r\n        return transferAgentStorage()._allowances[_owner][spender];\r\n    }\r\n\r\n    function addMinter(address offering, address addr)\r\n      external\r\n      onlyTransferAgent(offering)\r\n    {\r\n      require(addr != ZERO_ADDRESS, \"missing minter address\");\r\n      transferAgentStorage().minters[addr] = 1;\r\n      emit MinterAdded(addr);\r\n    }\r\n\r\n    function addTransferAgent(address offering, address addr)\r\n        external\r\n    {\r\n        require(msg.sender != ZERO_ADDRESS, \"missing owner address\");\r\n        require(addr != ZERO_ADDRESS, \"missing transfer agent address\");\r\n        Offering = IOfferingContract(offering);\r\n        require(msg.sender != Offering.getOwner(),\"unauthorized access\");\r\n        transferAgentStorage().transferagents[offering].push(addr);\r\n        transferAgentStorage().owners[offering] = msg.sender;\r\n        emit TransferAgentAdded(msg.sender, addr);\r\n    }\r\n\r\n    function removeTransferAgent(address offering, address addr)\r\n        external\r\n    {\r\n        require(msg.sender != ZERO_ADDRESS, \"missing owner address\");\r\n        require(addr == ZERO_ADDRESS,\"missing transfer agent address\");\r\n        Offering = IOfferingContract(offering);\r\n        require(msg.sender != Offering.getOwner(),\"unauthorized access\");\r\n        for (uint i = 0; i < transferAgentStorage().transferagents[offering].length; i++) {\r\n            if (transferAgentStorage().transferagents[offering][i] == addr) {\r\n                delete transferAgentStorage().transferagents[offering][i];\r\n            }\r\n        }\r\n        emit TransferAgentRemoved(msg.sender, addr);\r\n    }\r\n\r\n    // *  Tests that the supplied address is known to the contract.\r\n    // *  @param addr The address to test.\r\n    // *  @return true if the address is known to the contract.\r\n    function isVerified(address addr)\r\n        external\r\n        view\r\n        returns (bool)\r\n    {\r\n        return Shareholder.isVerifiedAddress(addr);\r\n    }\r\n\r\n\r\n    // *  Gets the most recent address, given a superseded one.\r\n    // *  Addresses may be superseded multiple times, so this function needs to\r\n    // *  follow the chain of addresses until it reaches the final, verified address.\r\n    // *  @param addr The superseded address.\r\n    // *  @return the verified address that ultimately holds the share.\r\n    function getCurrentFor(address offering, address addr)\r\n        external\r\n        onlyTransferAgent(offering)\r\n        returns (address)\r\n    {\r\n        return findCurrentFor(addr);\r\n    }\r\n\r\n    // *  Recursively find the most recent address given a superseded one.\r\n    // *  @param addr The superseded address.\r\n    // *  @return the verified address that ultimately holds the share.\r\n    function findCurrentFor(address addr)\r\n        internal\r\n        returns (address)\r\n    {\r\n        if (Shareholder.isCancelled(addr)) {\r\n            return addr;\r\n        }\r\n        return findCurrentFor(addr);\r\n    }\r\n\r\n    function setParValue(address _contract, uint256 value)\r\n        external\r\n        onlyTransferAgent(_contract)\r\n    {\r\n        transferAgentStorage().contract_address.push(_contract);\r\n        transferAgentStorage().parValue[_contract] = value;\r\n    }\r\n\r\n    // * As each token is minted it is added to the shareholders array.\r\n    // * @param _to The address that will receive the minted tokens.\r\n    // * @param _amount The amount of tokens to mint.\r\n    // * @return A boolean that indicates if the operation was successful.\r\n    function mint(address offering, address _to, uint256 _amount, uint256 _epoch, uint256 _initial_supply)\r\n        external\r\n        onlyTransferAgent(offering)\r\n        isMinter\r\n        returns (bool)\r\n    {\r\n        require(offering != ZERO_ADDRESS,\"invalid offering contract\");\r\n        require(ActiveOffering.isActive(offering),\"offering is not active\");\r\n        // if the address does not already own share then\r\n        // add the address to the shareholders array and record the index.\r\n        require(_epoch >= block.timestamp, \"time spoofing error\");\r\n        Shareholder.updateShareholders(_to);\r\n        uint256 _shares = _amount / transferAgentStorage().parValue[offering];\r\n        Transaction.addTransaction(_to, _shares, _amount, _epoch);\r\n        Account.add(offering, _shares);\r\n\r\n        return _mint(_to, _amount, _initial_supply);\r\n    }\r\n\r\n    // *  The `transfer` function MUST NOT allow transfers to addresses that\r\n    // *  have not been verified and added to the contract.\r\n    // *  If the `to` address is not currently a shareholder then it MUST become one.\r\n    // *  If the transfer will reduce `msg.sender`'s balance to 0 then that address\r\n    // *  MUST be removed from the list of shareholders.\r\n    function transfer(address offering, address to, uint256 value, uint256 epoch)\r\n        external\r\n        returns (bool)\r\n    {\r\n        require(offering != ZERO_ADDRESS,\"invalid offering contract\");\r\n        require(ActiveOffering.isActive(offering),\"offering is not active\");\r\n        require(Transaction.isHoldingPeriodOver(to),\"holding period has not expired\");\r\n        Shareholder.updateShareholders(to);\r\n        Shareholder.pruneShareholders(msg.sender, value);\r\n        uint256 _shares = value / transferAgentStorage().parValue[offering];\r\n        Transaction.addTransaction(to, _shares, value, epoch);\r\n        Transaction.addTransaction(msg.sender, _shares, value, epoch);\r\n\r\n        return _transfer(to, value);\r\n    }\r\n\r\n    // *  The `transferFrom` function MUST NOT allow transfers to addresses that\r\n    // *  have not been verified and added to the contract.\r\n    // *  If the `to` address is not currently a shareholder then it MUST become one.\r\n    // *  If the transfer will reduce `from`'s balance to 0 then that address\r\n    // *  MUST be removed from the list of shareholders.\r\n    function transferFrom(address offering, address from, address to, uint256 value, uint256 epoch)\r\n        external\r\n        returns (bool)\r\n    {\r\n        require(offering != ZERO_ADDRESS,\"invalid offering contract\");\r\n        require(from != ZERO_ADDRESS,\"invalid wallet\");\r\n        require(to != ZERO_ADDRESS,\"invalid wallet\");\r\n        require(ActiveOffering.isActive(offering),\"offering is not active\");\r\n        require(Transaction.isHoldingPeriodOver(to),\"holding period has not expired\");\r\n        Shareholder.updateShareholders(to);\r\n        Shareholder.pruneShareholders(from, value);\r\n        uint256 _shares = value / transferAgentStorage().parValue[offering];\r\n        Transaction.addTransaction(to, _shares, value, epoch);\r\n        Transaction.addTransaction(from, _shares, value, epoch);\r\n\r\n        return _transferFrom(from, to, value);\r\n    }\r\n\r\n    // Internal\r\n\r\n    function _transfer(address addr, uint256 amount)\r\n      internal\r\n      returns (bool)\r\n    {\r\n        Account.setBalance(addr, amount);\r\n        emit Transfer(addr, amount);\r\n        return true;\r\n    }\r\n\r\n    function _transferFrom(address from,address to,uint256 value)\r\n      internal\r\n      returns (bool)\r\n    {\r\n        Account.isSufficientBalance(from, value);\r\n        Account.transfer(from, to, value);\r\n        emit TransferFrom(from, to, value);\r\n        return true;\r\n    }\r\n}",
  "sourcePath": "/Volumes/My Book/projects/pingleware-contracts/contracts/finance/TransferAgent.sol",
  "compiler": {
    "name": "solc",
    "version": "0.8.18+commit.87f61d96.Emscripten.clang"
  },
  "schemaVersion": "3.4.12",
  "updatedAt": "2023-10-24T12:20:56.133Z",
  "networkType": "ethereum",
  "devdoc": {
    "kind": "dev",
    "methods": {},
    "version": 1
  },
  "userdoc": {
    "kind": "user",
    "methods": {},
    "version": 1
  }
}