{
  "contractName": "Transaction",
  "abi": [
    {
      "inputs": [],
      "name": "year",
      "outputs": [
        {
          "internalType": "uint256",
          "name": "",
          "type": "uint256"
        }
      ],
      "stateMutability": "view",
      "type": "function"
    },
    {
      "inputs": [
        {
          "internalType": "address",
          "name": "addr",
          "type": "address"
        }
      ],
      "name": "isHoldingPeriodOver",
      "outputs": [
        {
          "internalType": "bool",
          "name": "",
          "type": "bool"
        }
      ],
      "stateMutability": "view",
      "type": "function"
    },
    {
      "inputs": [],
      "name": "getTransactions",
      "outputs": [
        {
          "components": [
            {
              "internalType": "address",
              "name": "addr",
              "type": "address"
            },
            {
              "internalType": "uint256",
              "name": "shares",
              "type": "uint256"
            },
            {
              "internalType": "uint256",
              "name": "amount",
              "type": "uint256"
            },
            {
              "internalType": "uint256",
              "name": "time",
              "type": "uint256"
            }
          ],
          "internalType": "struct Transaction.TransactionItem[]",
          "name": "",
          "type": "tuple[]"
        }
      ],
      "stateMutability": "view",
      "type": "function"
    }
  ],
  "bytecode": "0x610560610053600b82828239805160001a607314610046577f4e487b7100000000000000000000000000000000000000000000000000000000600052600060045260246000fd5b30600052607381538281f3fe7300000000000000000000000000000000000000003014608060405260043610610071577c01000000000000000000000000000000000000000000000000000000006000350462ba40ae8114610076578063590c4ef91461009e57806383920e90146101e2578063f3269716146101f7575b600080fd5b6100896100843660046103b1565b610202565b60405190151581526020015b60405180910390f35b8180156100aa57600080fd5b506101d46100b93660046103d3565b60408051608081018252600160a060020a03958616815260208101948552908101928352606081019182527f7e8346663d20df5943e523e74cafdfb6f0ed14b05b43e4c2d91177487b6e47138054600181018255600082905291517f4692c05b05562e044689c0fded0203a4e4683ed9cb5307ebaa4fcb1d0d8dac176004909302928301805473ffffffffffffffffffffffffffffffffffffffff1916919097161790955592517f4692c05b05562e044689c0fded0203a4e4683ed9cb5307ebaa4fcb1d0d8dac1884015590517f4692c05b05562e044689c0fded0203a4e4683ed9cb5307ebaa4fcb1d0d8dac19830155517f4692c05b05562e044689c0fded0203a4e4683ed9cb5307ebaa4fcb1d0d8dac1a909101555490565b604051908152602001610095565b6101ea6102fb565b604051610095919061040c565b6101d46301dfe20081565b600080805b600160a060020a038416600090815260008051602061050b83398151915260205260409020548110156102f457600160a060020a038416600090815260008051602061050b8339815191526020526040902080546301dfe20091908390811061027257610272610479565b90600052602060002090600402016003015461028e91906104d7565b600160a060020a038516600090815260008051602061050b833981519152602052604090208054839081106102c5576102c5610479565b90600052602060002090600402016003015411156102e257600191505b806102ec816104ef565b915050610207565b5092915050565b606060008051602061050b833981519152600101805480602002602001604051908101604052809291908181526020016000905b8282101561038c57600084815260209081902060408051608081018252600486029092018054600160a060020a0316835260018082015484860152600282015492840192909252600301546060830152908352909201910161032f565b50505050905090565b8035600160a060020a03811681146103ac57600080fd5b919050565b6000602082840312156103c357600080fd5b6103cc82610395565b9392505050565b600080600080608085870312156103e957600080fd5b6103f285610395565b966020860135965060408601359560600135945092505050565b602080825282518282018190526000919060409081850190868401855b8281101561046c5781518051600160a060020a03168552868101518786015285810151868601526060908101519085015260809093019290850190600101610429565b5091979650505050505050565b7f4e487b7100000000000000000000000000000000000000000000000000000000600052603260045260246000fd5b7f4e487b7100000000000000000000000000000000000000000000000000000000600052601160045260246000fd5b600082198211156104ea576104ea6104a8565b500190565b6000600019821415610503576105036104a8565b506001019056fe7e8346663d20df5943e523e74cafdfb6f0ed14b05b43e4c2d91177487b6e4712a2646970667358221220f6ed29e8ce25e2eb886356b01fb4052c5d440e828f7110c7b19ee53741cf57bc64736f6c634300080a0033",
  "immutableReferences": {},
  "source": "// SPDX-License-Identifier: CC-BY-4.0\r\npragma solidity >=0.4.22 <0.9.0;\r\n\r\n\r\nlibrary Transaction {\r\n    uint constant public year = 52 weeks;\r\n\r\n    struct TransactionItem {\r\n        address addr;\r\n        uint256 shares;\r\n        uint256 amount;\r\n        uint256 time;\r\n    }\r\n\r\n    struct TransactionStorage {\r\n        mapping(address => TransactionItem[]) transactions;\r\n        TransactionItem[] _transactions;\r\n    }\r\n\r\n    function transactionStorage()\r\n        internal\r\n        pure\r\n        returns (TransactionStorage storage ds)\r\n    {\r\n        bytes32 position = keccak256(\"transaction.storage\");\r\n        assembly { ds.slot := position }\r\n    }\r\n    \r\n\r\n\r\n    function isHoldingPeriodOver(address addr)\r\n        external\r\n        view\r\n        returns (bool)\r\n    {\r\n        bool over = false;\r\n        for (uint i = 0; i < transactionStorage().transactions[addr].length; i++) {\r\n            if (transactionStorage().transactions[addr][i].time > (transactionStorage().transactions[addr][i].time + year)) {\r\n                over = true;\r\n            }\r\n        }\r\n        return over;\r\n    }\r\n\r\n    function getTransactions()\r\n        external\r\n        view\r\n        returns (TransactionItem[] memory)\r\n    {\r\n        return transactionStorage()._transactions;\r\n    }\r\n\r\n    function addTransaction(address _to,uint256 _shares,uint256 _amount,uint256 _epoch)\r\n        external\r\n        returns (uint256)\r\n    {\r\n        //transactionStorage().transactions[_to] = TransactionItem(_to, _shares, _amount, _epoch);\r\n        transactionStorage()._transactions.push(TransactionItem(_to, _shares, _amount, _epoch));\r\n        return transactionStorage()._transactions.length;\r\n    }\r\n}\r\n",
  "sourcePath": "G:\\projects\\pingleware-contracts\\contracts\\Transaction.sol",
  "compiler": {
    "name": "solc",
    "version": "0.8.10+commit.fc410830.Emscripten.clang"
  },
  "schemaVersion": "3.4.3",
  "updatedAt": "2021-12-24T16:15:19.871Z",
  "devdoc": {
    "kind": "dev",
    "methods": {},
    "version": 1
  },
  "userdoc": {
    "kind": "user",
    "methods": {},
    "version": 1
  }
}