{
  "contractName": "User",
  "abi": [
    {
      "anonymous": false,
      "inputs": [
        {
          "indexed": false,
          "internalType": "address",
          "name": "sender",
          "type": "address"
        }
      ],
      "name": "UserAdded",
      "type": "event"
    },
    {
      "inputs": [],
      "name": "userNotExist",
      "outputs": [
        {
          "internalType": "bool",
          "name": "",
          "type": "bool"
        }
      ],
      "stateMutability": "view",
      "type": "function"
    },
    {
      "inputs": [
        {
          "internalType": "address",
          "name": "user",
          "type": "address"
        }
      ],
      "name": "isUser",
      "outputs": [
        {
          "internalType": "bool",
          "name": "",
          "type": "bool"
        }
      ],
      "stateMutability": "view",
      "type": "function"
    },
    {
      "inputs": [
        {
          "internalType": "address",
          "name": "user",
          "type": "address"
        }
      ],
      "name": "notUser",
      "outputs": [
        {
          "internalType": "bool",
          "name": "",
          "type": "bool"
        }
      ],
      "stateMutability": "view",
      "type": "function"
    },
    {
      "inputs": [],
      "name": "getUsers",
      "outputs": [
        {
          "internalType": "address[]",
          "name": "",
          "type": "address[]"
        }
      ],
      "stateMutability": "view",
      "type": "function"
    },
    {
      "inputs": [],
      "name": "getTotalUsers",
      "outputs": [
        {
          "internalType": "uint256",
          "name": "",
          "type": "uint256"
        }
      ],
      "stateMutability": "view",
      "type": "function"
    },
    {
      "inputs": [],
      "name": "getUserMeta",
      "outputs": [
        {
          "components": [
            {
              "internalType": "string",
              "name": "fullname",
              "type": "string"
            },
            {
              "internalType": "string",
              "name": "profession",
              "type": "string"
            },
            {
              "internalType": "string",
              "name": "location",
              "type": "string"
            },
            {
              "internalType": "string",
              "name": "dob",
              "type": "string"
            },
            {
              "internalType": "string",
              "name": "interests",
              "type": "string"
            }
          ],
          "internalType": "struct User.UserMeta",
          "name": "",
          "type": "tuple"
        }
      ],
      "stateMutability": "view",
      "type": "function"
    }
  ],
  "bytecode": "0x610c17610053600b82828239805160001a607314610046577f4e487b7100000000000000000000000000000000000000000000000000000000600052600060045260246000fd5b30600052607381538281f3fe73000000000000000000000000000000000000000030146080604052600436106100ae576000357c0100000000000000000000000000000000000000000000000000000000900480637485dee7116100825780637485dee71461015c5780639025094c1461017c5780639be572f614610191578063d5f66187146101c157600080fd5b8062ce8e3e146100b35780632af18c52146100d15780634209fff114610100578063455c928c14610145575b600080fd5b6100bb610205565b6040516100c89190610860565b60405180910390f35b336000908152600080516020610bc28339815191526020526040902054155b60405190151581526020016100c8565b6100f061010e3660046108ba565b73ffffffffffffffffffffffffffffffffffffffff166000908152600080516020610bc28339815191526020526040902054151590565b81801561015157600080fd5b5061015a610284565b005b81801561016857600080fd5b5061015a6101773660046109b3565b61039b565b61018461047e565b6040516100c89190610ad2565b7f657628a550cd57488caa1cca477b7b4fbd68fa8798d79248ac0dc2d0089d2c2f546040519081526020016100c8565b6100f06101cf3660046108ba565b73ffffffffffffffffffffffffffffffffffffffff166000908152600080516020610bc283398151915260205260409020541590565b6060600080516020610bc283398151915260010180548060200260200160405190810160405280929190818152602001828054801561027a57602002820191906000526020600020905b815473ffffffffffffffffffffffffffffffffffffffff16815260019091019060200180831161024f575b5050505050905090565b336000908152600080516020610bc283398151915260205260409020541561030c576040517f08c379a000000000000000000000000000000000000000000000000000000000815260206004820152601360248201527f7573657220616c72656164792065786973747300000000000000000000000000604482015260640160405180910390fd5b336000818152600080516020610bc2833981519152602052604081206001908190557f657628a550cd57488caa1cca477b7b4fbd68fa8798d79248ac0dc2d0089d2c2f805491820181559091527f33eb6199c87604f0bf7856e6f29518371a9d771168c80f2b2063e664f9d6f59a01805473ffffffffffffffffffffffffffffffffffffffff19169091179055565b6040805160a081018252868152602080820187905281830186905260608201859052608082018490523360009081527f657628a550cd57488caa1cca477b7b4fbd68fa8798d79248ac0dc2d0089d2c30825292909220815180519293849361040692849201906107c7565b50602082810151805161041f92600185019201906107c7565b506040820151805161043b9160028401916020909101906107c7565b50606082015180516104579160038401916020909101906107c7565b50608082015180516104739160048401916020909101906107c7565b505050505050505050565b6104b06040518060a0016040528060608152602001606081526020016060815260200160608152602001606081525090565b3360009081527f657628a550cd57488caa1cca477b7b4fbd68fa8798d79248ac0dc2d0089d2c30602052604090819020815160a081019092528054829082906104f890610b6d565b80601f016020809104026020016040519081016040528092919081815260200182805461052490610b6d565b80156105715780601f1061054657610100808354040283529160200191610571565b820191906000526020600020905b81548152906001019060200180831161055457829003601f168201915b5050505050815260200160018201805461058a90610b6d565b80601f01602080910402602001604051908101604052809291908181526020018280546105b690610b6d565b80156106035780601f106105d857610100808354040283529160200191610603565b820191906000526020600020905b8154815290600101906020018083116105e657829003601f168201915b5050505050815260200160028201805461061c90610b6d565b80601f016020809104026020016040519081016040528092919081815260200182805461064890610b6d565b80156106955780601f1061066a57610100808354040283529160200191610695565b820191906000526020600020905b81548152906001019060200180831161067857829003601f168201915b505050505081526020016003820180546106ae90610b6d565b80601f01602080910402602001604051908101604052809291908181526020018280546106da90610b6d565b80156107275780601f106106fc57610100808354040283529160200191610727565b820191906000526020600020905b81548152906001019060200180831161070a57829003601f168201915b5050505050815260200160048201805461074090610b6d565b80601f016020809104026020016040519081016040528092919081815260200182805461076c90610b6d565b80156107b95780601f1061078e576101008083540402835291602001916107b9565b820191906000526020600020905b81548152906001019060200180831161079c57829003601f168201915b505050505081525050905090565b8280546107d390610b6d565b90600052602060002090601f0160209004810192826107f5576000855561083b565b82601f1061080e57805160ff191683800117855561083b565b8280016001018555821561083b579182015b8281111561083b578251825591602001919060010190610820565b5061084792915061084b565b5090565b5b80821115610847576000815560010161084c565b6020808252825182820181905260009190848201906040850190845b818110156108ae57835173ffffffffffffffffffffffffffffffffffffffff168352928401929184019160010161087c565b50909695505050505050565b6000602082840312156108cc57600080fd5b813573ffffffffffffffffffffffffffffffffffffffff811681146108f057600080fd5b9392505050565b7f4e487b7100000000000000000000000000000000000000000000000000000000600052604160045260246000fd5b600082601f83011261093757600080fd5b813567ffffffffffffffff80821115610952576109526108f7565b604051601f8301601f19908116603f0116810190828211818310171561097a5761097a6108f7565b8160405283815286602085880101111561099357600080fd5b836020870160208301376000602085830101528094505050505092915050565b600080600080600060a086880312156109cb57600080fd5b853567ffffffffffffffff808211156109e357600080fd5b6109ef89838a01610926565b96506020880135915080821115610a0557600080fd5b610a1189838a01610926565b95506040880135915080821115610a2757600080fd5b610a3389838a01610926565b94506060880135915080821115610a4957600080fd5b610a5589838a01610926565b93506080880135915080821115610a6b57600080fd5b50610a7888828901610926565b9150509295509295909350565b6000815180845260005b81811015610aab57602081850181015186830182015201610a8f565b81811115610abd576000602083870101525b50601f01601f19169290920160200192915050565b602081526000825160a06020840152610aee60c0840182610a85565b90506020840151601f1980858403016040860152610b0c8383610a85565b92506040860151915080858403016060860152610b298383610a85565b92506060860151915080858403016080860152610b468383610a85565b925060808601519150808584030160a086015250610b648282610a85565b95945050505050565b600281046001821680610b8157607f821691505b60208210811415610bbb577f4e487b7100000000000000000000000000000000000000000000000000000000600052602260045260246000fd5b5091905056fe657628a550cd57488caa1cca477b7b4fbd68fa8798d79248ac0dc2d0089d2c2ea2646970667358221220e92358a52d75cd225abc2f81314e861b37a548ac94d6943bb1c59749d1c636f564736f6c634300080a0033",
  "immutableReferences": {},
  "source": "// SPDX-License-Identifier: CC-BY-4.0\r\npragma solidity >=0.4.22 <0.9.0;\r\n\r\nlibrary User {\r\n\r\n    struct UserMeta {\r\n        string fullname;\r\n        string profession;\r\n        string location;\r\n        string dob;\r\n        string interests;\r\n    }\r\n\r\n    struct UserStorage {\r\n        mapping (address => uint256) users;\r\n        address[] _users;\r\n        mapping (address => UserMeta) user_meta;\r\n    }\r\n\r\n    function userStorage() internal pure returns (UserStorage storage ds)\r\n    {\r\n        bytes32 position = keccak256(\"advertiser.storage\");\r\n        assembly { ds.slot := position }\r\n    }\r\n\r\n    event UserAdded(address sender);\r\n\r\n    function userNotExist()\r\n        external\r\n        view\r\n        returns (bool)\r\n    {\r\n        return (userStorage().users[msg.sender] == 0);\r\n    }\r\n\r\n    function isUser(address user)\r\n        external\r\n        view\r\n        returns (bool)\r\n    {\r\n        return (userStorage().users[user] != 0);\r\n    }\r\n\r\n    function notUser(address user)\r\n        external\r\n        view\r\n        returns (bool)\r\n    {\r\n        return (userStorage().users[user] == 0);\r\n    }\r\n\r\n    function addUser()\r\n        external\r\n    {\r\n        require(userStorage().users[msg.sender] == 0,\"user already exists\");\r\n        userStorage().users[msg.sender] = 1;\r\n        userStorage()._users.push(msg.sender);\r\n    }\r\n\r\n    function getUsers()\r\n        external\r\n        view\r\n        returns (address[] memory)\r\n    {\r\n        return userStorage()._users;\r\n    }\r\n\r\n    function getTotalUsers()\r\n        external\r\n        view\r\n        returns (uint256)\r\n    {\r\n        return userStorage()._users.length;\r\n    }\r\n\r\n    /**\r\n    * interests is comma dellimited string, e.g. \"girls,technology,stage plays\"\r\n    */\r\n    function updateUserMeta(string memory fullname, string memory profession, string memory location, string memory dob, string memory interests)\r\n        external\r\n    {\r\n        UserMeta memory meta = UserMeta(fullname, profession, location, dob, interests);\r\n        userStorage().user_meta[msg.sender] = meta;\r\n    }\r\n\r\n    function getUserMeta()\r\n        external\r\n        view\r\n        returns (UserMeta memory)\r\n    {\r\n        return userStorage().user_meta[msg.sender];\r\n    }\r\n}",
  "sourcePath": "G:\\projects\\pingleware-contracts\\contracts\\social\\User.sol",
  "compiler": {
    "name": "solc",
    "version": "0.8.10+commit.fc410830.Emscripten.clang"
  },
  "schemaVersion": "3.4.3",
  "updatedAt": "2021-12-25T15:51:04.507Z",
  "devdoc": {
    "kind": "dev",
    "methods": {},
    "version": 1
  },
  "userdoc": {
    "kind": "user",
    "methods": {
      "updateUserMeta(string,string,string,string,string)": {
        "notice": "interests is comma dellimited string, e.g. \"girls,technology,stage plays\""
      }
    },
    "version": 1
  }
}