{
  "contractName": "User",
  "abi": [
    {
      "anonymous": false,
      "inputs": [
        {
          "indexed": false,
          "internalType": "string",
          "name": "reason",
          "type": "string"
        }
      ],
      "name": "ErrorOccurred",
      "type": "event"
    },
    {
      "anonymous": false,
      "inputs": [
        {
          "indexed": false,
          "internalType": "address",
          "name": "sender",
          "type": "address"
        }
      ],
      "name": "UserAdded",
      "type": "event"
    },
    {
      "anonymous": false,
      "inputs": [
        {
          "indexed": false,
          "internalType": "address",
          "name": "useraddress",
          "type": "address"
        }
      ],
      "name": "UserBlocked",
      "type": "event"
    },
    {
      "anonymous": false,
      "inputs": [
        {
          "indexed": false,
          "internalType": "address",
          "name": "useraddress",
          "type": "address"
        }
      ],
      "name": "UserDeleted",
      "type": "event"
    },
    {
      "anonymous": false,
      "inputs": [
        {
          "indexed": false,
          "internalType": "address",
          "name": "sender",
          "type": "address"
        },
        {
          "indexed": false,
          "internalType": "string",
          "name": "fullname",
          "type": "string"
        },
        {
          "indexed": false,
          "internalType": "string",
          "name": "profession",
          "type": "string"
        },
        {
          "indexed": false,
          "internalType": "string",
          "name": "location",
          "type": "string"
        },
        {
          "indexed": false,
          "internalType": "string",
          "name": "dob",
          "type": "string"
        },
        {
          "indexed": false,
          "internalType": "string",
          "name": "interests",
          "type": "string"
        },
        {
          "indexed": false,
          "internalType": "string",
          "name": "role",
          "type": "string"
        }
      ],
      "name": "UserMetaUpdated",
      "type": "event"
    },
    {
      "anonymous": false,
      "inputs": [
        {
          "indexed": false,
          "internalType": "address",
          "name": "useraddress",
          "type": "address"
        },
        {
          "indexed": false,
          "internalType": "string",
          "name": "role",
          "type": "string"
        }
      ],
      "name": "UserRoleRestored",
      "type": "event"
    },
    {
      "inputs": [],
      "name": "ADVERTISER_ROLE",
      "outputs": [
        {
          "internalType": "string",
          "name": "",
          "type": "string"
        }
      ],
      "stateMutability": "view",
      "type": "function"
    },
    {
      "inputs": [],
      "name": "COLLECTION_AGENT_ROLE",
      "outputs": [
        {
          "internalType": "string",
          "name": "",
          "type": "string"
        }
      ],
      "stateMutability": "view",
      "type": "function"
    },
    {
      "inputs": [],
      "name": "CONSUMER_ROLE",
      "outputs": [
        {
          "internalType": "string",
          "name": "",
          "type": "string"
        }
      ],
      "stateMutability": "view",
      "type": "function"
    },
    {
      "inputs": [],
      "name": "CREDITOR_ROLE",
      "outputs": [
        {
          "internalType": "string",
          "name": "",
          "type": "string"
        }
      ],
      "stateMutability": "view",
      "type": "function"
    },
    {
      "inputs": [],
      "name": "OWNER_ROLE",
      "outputs": [
        {
          "internalType": "string",
          "name": "",
          "type": "string"
        }
      ],
      "stateMutability": "view",
      "type": "function"
    },
    {
      "inputs": [],
      "name": "USER_ROLE",
      "outputs": [
        {
          "internalType": "string",
          "name": "",
          "type": "string"
        }
      ],
      "stateMutability": "view",
      "type": "function"
    },
    {
      "inputs": [],
      "name": "VERIFIER_ROLE",
      "outputs": [
        {
          "internalType": "string",
          "name": "",
          "type": "string"
        }
      ],
      "stateMutability": "view",
      "type": "function"
    },
    {
      "inputs": [],
      "name": "userNotExist",
      "outputs": [
        {
          "internalType": "bool",
          "name": "",
          "type": "bool"
        }
      ],
      "stateMutability": "view",
      "type": "function"
    },
    {
      "inputs": [
        {
          "internalType": "address",
          "name": "user",
          "type": "address"
        }
      ],
      "name": "isUser",
      "outputs": [
        {
          "internalType": "bool",
          "name": "",
          "type": "bool"
        }
      ],
      "stateMutability": "view",
      "type": "function"
    },
    {
      "inputs": [
        {
          "internalType": "address",
          "name": "user",
          "type": "address"
        }
      ],
      "name": "notUser",
      "outputs": [
        {
          "internalType": "bool",
          "name": "",
          "type": "bool"
        }
      ],
      "stateMutability": "view",
      "type": "function"
    },
    {
      "inputs": [],
      "name": "getUsers",
      "outputs": [
        {
          "internalType": "address[]",
          "name": "",
          "type": "address[]"
        }
      ],
      "stateMutability": "view",
      "type": "function"
    },
    {
      "inputs": [],
      "name": "getTotalUsers",
      "outputs": [
        {
          "internalType": "uint256",
          "name": "",
          "type": "uint256"
        }
      ],
      "stateMutability": "view",
      "type": "function"
    },
    {
      "inputs": [],
      "name": "getUserMeta",
      "outputs": [
        {
          "components": [
            {
              "internalType": "string",
              "name": "fullname",
              "type": "string"
            },
            {
              "internalType": "string",
              "name": "profession",
              "type": "string"
            },
            {
              "internalType": "string",
              "name": "location",
              "type": "string"
            },
            {
              "internalType": "string",
              "name": "dob",
              "type": "string"
            },
            {
              "internalType": "string",
              "name": "interests",
              "type": "string"
            },
            {
              "internalType": "string",
              "name": "role",
              "type": "string"
            },
            {
              "internalType": "bool",
              "name": "backup_withholding",
              "type": "bool"
            },
            {
              "internalType": "bool",
              "name": "verified",
              "type": "bool"
            }
          ],
          "internalType": "struct User.UserMeta",
          "name": "",
          "type": "tuple"
        }
      ],
      "stateMutability": "view",
      "type": "function"
    },
    {
      "inputs": [],
      "name": "getUserRole",
      "outputs": [
        {
          "internalType": "string",
          "name": "",
          "type": "string"
        }
      ],
      "stateMutability": "view",
      "type": "function"
    },
    {
      "inputs": [
        {
          "internalType": "address",
          "name": "_useraddress",
          "type": "address"
        }
      ],
      "name": "getUserRoleByAddress",
      "outputs": [
        {
          "internalType": "string",
          "name": "",
          "type": "string"
        }
      ],
      "stateMutability": "view",
      "type": "function"
    },
    {
      "inputs": [
        {
          "internalType": "string",
          "name": "role",
          "type": "string"
        },
        {
          "internalType": "address",
          "name": "_useraddress",
          "type": "address"
        }
      ],
      "name": "hasRole",
      "outputs": [
        {
          "internalType": "bool",
          "name": "",
          "type": "bool"
        }
      ],
      "stateMutability": "view",
      "type": "function"
    },
    {
      "inputs": [
        {
          "internalType": "address",
          "name": "_useraddress",
          "type": "address"
        }
      ],
      "name": "isBackupWithholding",
      "outputs": [
        {
          "internalType": "bool",
          "name": "",
          "type": "bool"
        }
      ],
      "stateMutability": "view",
      "type": "function"
    }
  ],
  "bytecode": "0x612926610053600b82828239805160001a607314610046577f4e487b7100000000000000000000000000000000000000000000000000000000600052600060045260246000fd5b30600052607381538281f3fe73000000000000000000000000000000000000000030146080604052600436106101605760e060020a6000350462ce8e3e81146101655780630617e2ec1461018357806313119161146101c25780632af18c52146101e857806338168550146102005780634209fff114610213578063455c928c146102265780634bc02da61461023d5780634be06a24146102675780634d813120146102875780635ba830fe146102a75780636c9cd097146102c7578063731f21a0146102da5780639025094c146102fa5780639be572f61461030f5780639d7300d214610325578063a1e6ab9f14610345578063b31deaf114610365578063b6644d091461038f578063bf04a10d146103af578063c19ae2ed146103b7578063d5f66187146103d7578063e58378bb146103ea578063e58c453414610411578063e7705db61461043d578063e7bf97cd14610467578063ecb3845614610487578063ee2962fe146104a7575b600080fd5b61016d6104ba565b60405161017a9190612036565b60405180910390f35b6101b5604051806040016040528060108152602001608260020a6f10dbdb1b1958dd1a5bdb881059d95b9d0281525081565b60405161017a91906120c9565b6101b560405180604001604052806004815260200160e160020a632ab9b2b90281525081565b6101f0610525565b604051901515815260200161017a565b6101b561020e3660046120f8565b610546565b6101f06102213660046120f8565b6105ff565b81801561023257600080fd5b5061023b61062a565b005b6101b560405180604001604052806008815260200160c160020a6721b7b739bab6b2b90281525081565b81801561027357600080fd5b5061023b6102823660046121b9565b6106f0565b81801561029357600080fd5b5061023b6102a23660046120f8565b6108f2565b8180156102b357600080fd5b5061023b6102c23660046122bf565b610aed565b6101f06102d53660046122bf565b610c2a565b8180156102e657600080fd5b5061023b6102f53660046122bf565b610ce0565b610302610eed565b60405161017a919061230c565b6103176112f1565b60405190815260200161017a565b81801561033157600080fd5b5061023b6103403660046123eb565b611304565b81801561035157600080fd5b5061023b6103603660046122bf565b611474565b6101b560405180604001604052806008815260200160c160020a6721b932b234ba37b90281525081565b81801561039b57600080fd5b5061023b6103aa3660046123eb565b6115cc565b6101b5611b15565b8180156103c357600080fd5b5061023b6103d23660046122bf565b611bba565b6101f06103e53660046120f8565b611d93565b6101b560405180604001604052806005815260200160d960020a6427bbb732b90281525081565b6101b56040518060400160405280600a815260200160b160020a6920b23b32b93a34b9b2b90281525081565b6101b560405180604001604052806008815260200160c160020a672b32b934b334b2b90281525081565b81801561047357600080fd5b5061023b6104823660046124ed565b611dbd565b81801561049357600080fd5b5061023b6104a23660046120f8565b611dfa565b6101f06104b53660046120f8565b611f8a565b60606104c4611fbc565b60010180548060200260200160405190810160405280929190818152602001828054801561051b57602002820191906000526020600020905b8154600160a060020a031681526001909101906020018083116104fd575b5050505050905090565b600061052f611fbc565b336000908152602091909152604090205415919050565b6060610550611fbc565b600160a060020a038316600090815260029190910160205260409020600501805461057a90612524565b80601f01602080910402602001604051908101604052809291908181526020018280546105a690612524565b80156105f35780601f106105c8576101008083540402835291602001916105f3565b820191906000526020600020905b8154815290600101906020018083116105d657829003601f168201915b50505050509050919050565b6000610609611fbc565b600160a060020a039092166000908152602092909252506040902054151590565b610632611fbc565b33600090815260209190915260409020541561066c5760405160e560020a62461bcd02815260040161066390612562565b60405180910390fd5b6001610676611fbc565b336000908152602091909152604090205561068f611fbc565b600190810180549182018155600090815260209020018054600160a060020a031916339081179091556040517f19ef9a4877199f89440a26acb26895ec02ed86f2df1aeaa90dc18041b892f71f916106e691612592565b60405180910390a1565b73__StringUtils___________________________6346bdca9a610712611fbc565b600201600033600160a060020a0316600160a060020a0316815260200190815260200160002060050160405180604001604052806005815260200160d960020a6427bbb732b9028152506040518363ffffffff1660e060020a02815260040161077c9291906125a6565b602060405180830381865af4158015610799573d6000803e3d6000fd5b505050506040513d601f19601f820116820180604052508101906107bd9190612645565b6107dc5760405160e560020a62461bcd02815260040161066390612662565b604080516101008101825287815260208101879052908101859052606081018490526080810183905260a08101829052600060c0820181905260e082015280610823611fbc565b600160a060020a038a166000908152600291909101602052604090208151819061084d90826126ea565b506020820151600182019061086290826126ea565b506040820151600282019061087790826126ea565b506060820151600382019061088c90826126ea565b50608082015160048201906108a190826126ea565b5060a082015160058201906108b690826126ea565b5060c08201516006909101805460e09093015115156101000261ff00199215159290921661ffff19909316929092171790555050505050505050565b73__StringUtils___________________________6346bdca9a610914611fbc565b600201600033600160a060020a0316600160a060020a0316815260200190815260200160002060050160405180604001604052806008815260200160c160020a672b32b934b334b2b9028152506040518363ffffffff1660e060020a0281526004016109819291906125a6565b602060405180830381865af415801561099e573d6000803e3d6000fd5b505050506040513d601f19601f820116820180604052508101906109c29190612645565b610a155760405160e560020a62461bcd02815260206004820152602a60248201526000805160206128d1833981519152604482015260b160020a6930903b32b934b334b2b9026064820152608401610663565b600160a060020a038116610a3e5760405160e560020a62461bcd028152600401610663906127af565b610a46611fbc565b600160a060020a038216600090815260209190915260408120549003610aaa5760405160e560020a62461bcd0281526020600482015260136024820152606a60020a721d5cd95c88191bd95cc81b9bdd08195e1a5cdd026044820152606401610663565b6001610ab4611fbc565b600160a060020a039092166000908152600292909201602052604090912060060180549115156101000261ff0019909216919091179055565b73__StringUtils___________________________6346bdca9a610b0f611fbc565b600201600084600160a060020a0316600160a060020a03168152602001908152602001600020600501846040518363ffffffff1660e060020a028152600401610b599291906125a6565b602060405180830381865af4158015610b76573d6000803e3d6000fd5b505050506040513d601f19601f82011682018060405250810190610b9a9190612645565b610bb95760405160e560020a62461bcd028152600401610663906127e0565b81610bc2611fbc565b600160a060020a03831660009081526002919091016020526040902060050190610bec90826126ea565b507f4669130a7616347337bd3b8b01d27f458dd7f831c1b845f1a0c2e406c999da878183604051610c1e929190612810565b60405180910390a15050565b600073__StringUtils___________________________6346bdca9a610c4e611fbc565b600201600085600160a060020a0316600160a060020a03168152602001908152602001600020600501856040518363ffffffff1660e060020a028152600401610c989291906125a6565b602060405180830381865af4158015610cb5573d6000803e3d6000fd5b505050506040513d601f19601f82011682018060405250810190610cd99190612645565b9392505050565b610ce8611fbc565b600160a060020a038216600090815260209190915260408120549003610d4d5760405160e560020a62461bcd0281526020600482015260146024820152606060020a737573657220646f6573206e6f7420657869737473026044820152606401610663565b73__StringUtils___________________________6346bdca9a610d6f611fbc565b600201600084600160a060020a0316600160a060020a03168152602001908152602001600020600501846040518363ffffffff1660e060020a028152600401610db99291906125a6565b602060405180830381865af4158015610dd6573d6000803e3d6000fd5b505050506040513d601f19601f82011682018060405250810190610dfa9190612645565b610e195760405160e560020a62461bcd028152600401610663906127e0565b610e21611fbc565b600160a060020a03821660009081526020919091526040812055610e43611fbc565b600160a060020a03821660009081526002919091016020526040812090610e6a8282611fe0565b610e78600183016000611fe0565b610e86600283016000611fe0565b610e94600383016000611fe0565b610ea2600483016000611fe0565b610eb0600583016000611fe0565b50600601805461ffff191690556040517f4bc56f1321288dfb5b416cb3a7fd188723979f9e866c91d88eccf7fca039d03990610c1e908390612592565b610f396040518061010001604052806060815260200160608152602001606081526020016060815260200160608152602001606081526020016000151581526020016000151581525090565b610f41611fbc565b33600090815260029190910160205260409081902081516101008101909252805482908290610f6f90612524565b80601f0160208091040260200160405190810160405280929190818152602001828054610f9b90612524565b8015610fe85780601f10610fbd57610100808354040283529160200191610fe8565b820191906000526020600020905b815481529060010190602001808311610fcb57829003601f168201915b5050505050815260200160018201805461100190612524565b80601f016020809104026020016040519081016040528092919081815260200182805461102d90612524565b801561107a5780601f1061104f5761010080835404028352916020019161107a565b820191906000526020600020905b81548152906001019060200180831161105d57829003601f168201915b5050505050815260200160028201805461109390612524565b80601f01602080910402602001604051908101604052809291908181526020018280546110bf90612524565b801561110c5780601f106110e15761010080835404028352916020019161110c565b820191906000526020600020905b8154815290600101906020018083116110ef57829003601f168201915b5050505050815260200160038201805461112590612524565b80601f016020809104026020016040519081016040528092919081815260200182805461115190612524565b801561119e5780601f106111735761010080835404028352916020019161119e565b820191906000526020600020905b81548152906001019060200180831161118157829003601f168201915b505050505081526020016004820180546111b790612524565b80601f01602080910402602001604051908101604052809291908181526020018280546111e390612524565b80156112305780601f1061120557610100808354040283529160200191611230565b820191906000526020600020905b81548152906001019060200180831161121357829003601f168201915b5050505050815260200160058201805461124990612524565b80601f016020809104026020016040519081016040528092919081815260200182805461127590612524565b80156112c25780601f10611297576101008083540402835291602001916112c2565b820191906000526020600020905b8154815290600101906020018083116112a557829003601f168201915b50505091835250506006919091015460ff80821615156020840152610100909104161515604090910152919050565b60006112fb611fbc565b60010154919050565b336113245760405160e560020a62461bcd028152600401610663906127af565b604080516101008101825287815260208101879052908101859052606081018490526080810183905260a08101829052600060c0820181905260e08201528061136b611fbc565b336000908152600291909101602052604090208151819061138c90826126ea565b50602082015160018201906113a190826126ea565b50604082015160028201906113b690826126ea565b50606082015160038201906113cb90826126ea565b50608082015160048201906113e090826126ea565b5060a082015160058201906113f590826126ea565b5060c08201516006909101805460e09093015115156101000261ff00199215159290921661ffff19909316929092171790556040517f9f0babf913953530ad591b81a4a18c45b9c1455bddb8dea4f50df500723d9a9b906114639033908a908a908a908a908a908a9061283c565b60405180910390a150505050505050565b73__StringUtils___________________________6346bdca9a611496611fbc565b600201600084600160a060020a0316600160a060020a03168152602001908152602001600020600501846040518363ffffffff1660e060020a0281526004016114e09291906125a6565b602060405180830381865af41580156114fd573d6000803e3d6000fd5b505050506040513d601f19601f820116820180604052508101906115219190612645565b6115405760405160e560020a62461bcd028152600401610663906127e0565b6040518060400160405280600e8152602001609060020a6d554e444546494e45445f524f4c4502815250611572611fbc565b600160a060020a0383166000908152600291909101602052604090206005019061159c90826126ea565b507fca86d8c91ca6d00afd863578cc633a0901fad724592f89649629fe65f61410d281604051610c1e9190612592565b73__StringUtils___________________________6346bdca9a6115ee611fbc565b600201600033600160a060020a0316600160a060020a0316815260200190815260200160002060050160405180604001604052806005815260200160d960020a6427bbb732b9028152506040518363ffffffff1660e060020a0281526004016116589291906125a6565b602060405180830381865af4158015611675573d6000803e3d6000fd5b505050506040513d601f19601f820116820180604052508101906116999190612645565b80611771575073__StringUtils___________________________6346bdca9a6116c1611fbc565b600201600033600160a060020a0316600160a060020a031681526020019081526020016000206005016040518060400160405280600a815260200160b160020a6920b23b32b93a34b9b2b9028152506040518363ffffffff1660e060020a0281526004016117309291906125a6565b602060405180830381865af415801561174d573d6000803e3d6000fd5b505050506040513d601f19601f820116820180604052508101906117719190612645565b80611843575073__StringUtils___________________________6346bdca9a611799611fbc565b600201600033600160a060020a0316600160a060020a0316815260200190815260200160002060050160405180604001604052806004815260200160e160020a632ab9b2b9028152506040518363ffffffff1660e060020a0281526004016118029291906125a6565b602060405180830381865af415801561181f573d6000803e3d6000fd5b505050506040513d601f19601f820116820180604052508101906118439190612645565b80611919575073__StringUtils___________________________6346bdca9a61186b611fbc565b600201600033600160a060020a0316600160a060020a0316815260200190815260200160002060050160405180604001604052806008815260200160c160020a6721b7b739bab6b2b9028152506040518363ffffffff1660e060020a0281526004016118d89291906125a6565b602060405180830381865af41580156118f5573d6000803e3d6000fd5b505050506040513d601f19601f820116820180604052508101906119199190612645565b806119ef575073__StringUtils___________________________6346bdca9a611941611fbc565b600201600033600160a060020a0316600160a060020a0316815260200190815260200160002060050160405180604001604052806008815260200160c160020a6721b932b234ba37b9028152506040518363ffffffff1660e060020a0281526004016119ae9291906125a6565b602060405180830381865af41580156119cb573d6000803e3d6000fd5b505050506040513d601f19601f820116820180604052508101906119ef9190612645565b80611acd575073__StringUtils___________________________6346bdca9a611a17611fbc565b600201600033600160a060020a0316600160a060020a03168152602001908152602001600020600501604051806040016040528060108152602001608260020a6f10dbdb1b1958dd1a5bdb881059d95b9d028152506040518363ffffffff1660e060020a028152600401611a8c9291906125a6565b602060405180830381865af4158015611aa9573d6000803e3d6000fd5b505050506040513d601f19601f82011682018060405250810190611acd9190612645565b6113245760405160e560020a62461bcd0281526020600482015260136024820152606860020a72756e617574686f72697a656420616363657373026044820152606401610663565b6060611b1f611fbc565b336000908152600291909101602052604090206005018054611b4090612524565b80601f0160208091040260200160405190810160405280929190818152602001828054611b6c90612524565b801561051b5780601f10611b8e5761010080835404028352916020019161051b565b820191906000526020600020905b815481529060010190602001808311611b9c57509395945050505050565b611bc2611fbc565b600160a060020a0382166000908152602091909152604090205415611bfc5760405160e560020a62461bcd02815260040161066390612562565b6001611c06611fbc565b600160a060020a03831660009081526020919091526040902055611c28611fbc565b600190810180549182018155600090815260208082209092018054600160a060020a031916600160a060020a038516179055604080516101208101825261010081018381528152815180850183528381528185015281518085018352838152818301528151808501835283815260608201528151938401909152818352608081019290925260a0820184905260c0820181905260e082015280611cc9611fbc565b600160a060020a03841660009081526002919091016020526040902081518190611cf390826126ea565b5060208201516001820190611d0890826126ea565b5060408201516002820190611d1d90826126ea565b5060608201516003820190611d3290826126ea565b5060808201516004820190611d4790826126ea565b5060a08201516005820190611d5c90826126ea565b5060c08201516006909101805460e09093015115156101000261ff00199215159290921661ffff1990931692909217179055505050565b6000611d9d611fbc565b600160a060020a0390921660009081526020929092525060409020541590565b80611dc6611fbc565b600160a060020a0393909316600090815260029093016020526040909220600601805460ff19169215159290921790915550565b73__StringUtils___________________________6346bdca9a611e1c611fbc565b600201600033600160a060020a0316600160a060020a0316815260200190815260200160002060050160405180604001604052806005815260200160d960020a6427bbb732b9028152506040518363ffffffff1660e060020a028152600401611e869291906125a6565b602060405180830381865af4158015611ea3573d6000803e3d6000fd5b505050506040513d601f19601f82011682018060405250810190611ec79190612645565b611ee65760405160e560020a62461bcd02815260040161066390612662565b611eee611fbc565b600160a060020a0382166000908152602091909152604090205415611f285760405160e560020a62461bcd02815260040161066390612562565b6001611f32611fbc565b600160a060020a03831660009081526020919091526040902055611f54611fbc565b600190810180549182018155600090815260209020018054600160a060020a031916600160a060020a0392909216919091179055565b6000611f94611fbc565b600160a060020a03909216600090815260029290920160205250604090206006015460ff1690565b7fd4cc9949969473d240648650cfdc666cf2236793e7cbbf8063c115959146547c90565b508054611fec90612524565b6000825580601f10611ffc575050565b601f01602090049060005260206000209081019061201a919061201d565b50565b5b80821115612032576000815560010161201e565b5090565b6020808252825182820181905260009190848201906040850190845b81811015612077578351600160a060020a031683529284019291840191600101612052565b50909695505050505050565b6000815180845260005b818110156120a95760208185018101518683018201520161208d565b506000602082860101526020601f19601f83011685010191505092915050565b602081526000610cd96020830184612083565b8035600160a060020a03811681146120f357600080fd5b919050565b60006020828403121561210a57600080fd5b610cd9826120dc565b60e060020a634e487b710260009081526041600452602490fd5b600082601f83011261213e57600080fd5b81356001604060020a038082111561215857612158612113565b604051601f8301601f19908116603f0116810190828211818310171561218057612180612113565b8160405283815286602085880101111561219957600080fd5b836020870160208301376000602085830101528094505050505092915050565b600080600080600080600060e0888a0312156121d457600080fd5b6121dd886120dc565b965060208801356001604060020a03808211156121f957600080fd5b6122058b838c0161212d565b975060408a013591508082111561221b57600080fd5b6122278b838c0161212d565b965060608a013591508082111561223d57600080fd5b6122498b838c0161212d565b955060808a013591508082111561225f57600080fd5b61226b8b838c0161212d565b945060a08a013591508082111561228157600080fd5b61228d8b838c0161212d565b935060c08a01359150808211156122a357600080fd5b506122b08a828b0161212d565b91505092959891949750929550565b600080604083850312156122d257600080fd5b82356001604060020a038111156122e857600080fd5b6122f48582860161212d565b925050612303602084016120dc565b90509250929050565b602081526000825161010080602085015261232b610120850183612083565b91506020850151601f19808685030160408701526123498483612083565b935060408701519150808685030160608701526123668483612083565b935060608701519150808685030160808701526123838483612083565b935060808701519150808685030160a08701526123a08483612083565b935060a08701519150808685030160c0870152506123be8382612083565b92505060c08501516123d460e086018215159052565b5060e0850151801515858301525090949350505050565b60008060008060008060c0878903121561240457600080fd5b86356001604060020a038082111561241b57600080fd5b6124278a838b0161212d565b9750602089013591508082111561243d57600080fd5b6124498a838b0161212d565b9650604089013591508082111561245f57600080fd5b61246b8a838b0161212d565b9550606089013591508082111561248157600080fd5b61248d8a838b0161212d565b945060808901359150808211156124a357600080fd5b6124af8a838b0161212d565b935060a08901359150808211156124c557600080fd5b506124d289828a0161212d565b9150509295509295509295565b801515811461201a57600080fd5b6000806040838503121561250057600080fd5b612509836120dc565b91506020830135612519816124df565b809150509250929050565b60028104600182168061253857607f821691505b60208210810361255c5760e060020a634e487b710260009081526022600452602490fd5b50919050565b6020808252601390820152606860020a727573657220616c72656164792065786973747302604082015260600190565b600160a060020a0391909116815260200190565b6040815260008084546125b881612524565b80604086015260606001808416600081146125da57600181146125f457612625565b60ff19851688840152602084151502880183019550612625565b8960005260208060002060005b8681101561261c5781548b8201870152908401908201612601565b8a018501975050505b5050505050828103602084015261263c8185612083565b95945050505050565b60006020828403121561265757600080fd5b8151610cd9816124df565b60208082526028908201526000805160206128d1833981519152604082015260c160020a6730b71037bbb732b902606082015260800190565b601f8211156126e5576000818152602081206020601f860104810160208610156126c25750805b6020601f860104820191505b818110156126e1578281556001016126ce565b5050505b505050565b81516001604060020a0381111561270357612703612113565b612717816127118454612524565b8461269b565b602080601f83116001811461275057600084156127345750858301515b60028086026008870290910a60001904198216178655506126e1565b600085815260208120601f198616915b8281101561277f57888601518255948401946001909101908401612760565b508582101561279f57878501516008601f88160260020a60001904191681555b5050505050600202600101905550565b6020808252601490820152606060020a73696e76616c69642075736572206164647265737302604082015260600190565b6020808252601390820152606b60020a720e4ded8ca40c8decae640dcdee840dac2e8c6d02604082015260600190565b600160a060020a038316815260406020820181905260009061283490830184612083565b949350505050565b600160a060020a038816815260e06020820181905260009061286090830189612083565b82810360408401526128728189612083565b905082810360608401526128868188612083565b9050828103608084015261289a8187612083565b905082810360a08401526128ae8186612083565b905082810360c08401526128c28185612083565b9a995050505050505050505056fe756e617574686f72697a6564206163636573732c2073656e646572206e6f7420a26469706673582212203903cb83e68a16b1edb211d145ae390a09013d20179d4810d64a348d3b25e7fc64736f6c63430008120033",
  "immutableReferences": {},
  "source": "// SPDX-License-Identifier: CC-BY-4.0\r\npragma solidity >=0.4.22 <0.9.0;\r\n\r\nimport \"./StringUtils.sol\";\r\n\r\nlibrary User {\r\n    string public constant OWNER_ROLE = string(\"Owner\");\r\n    string public constant ADVERTISER_ROLE = string(\"Advertiser\");\r\n    string public constant USER_ROLE = string(\"User\");\r\n    string public constant VERIFIER_ROLE = string(\"Verifier\");\r\n    string public constant CONSUMER_ROLE = string(\"Consumer\");\r\n    string public constant CREDITOR_ROLE = string(\"Creditor\");\r\n    string public constant COLLECTION_AGENT_ROLE = string(\"Collection Agent\");\r\n\r\n    struct UserMeta {\r\n        string  fullname;\r\n        string  profession;\r\n        string  location;\r\n        string  dob;\r\n        string  interests;\r\n        string  role;\r\n        bool    backup_withholding;\r\n        bool    verified;\r\n    }\r\n\r\n    /**\r\n     * The user's are scoped by the contract address which they are associated\r\n     */\r\n    struct UserStorage {\r\n        mapping (address => uint256) users;\r\n        address[] _users;\r\n        mapping (address => UserMeta) user_meta;\r\n        address contract_address;\r\n    }\r\n\r\n    function userStorage() internal pure returns (UserStorage storage ds)\r\n    {\r\n        bytes32 position = keccak256(\"user.storage\");\r\n        assembly { ds.slot := position }\r\n    }\r\n\r\n    event UserAdded(address sender);\r\n    event UserMetaUpdated(address sender,string fullname,string profession,string location,string dob,string interests,string role);\r\n    event UserDeleted(address useraddress);\r\n    event UserBlocked(address useraddress);\r\n    event UserRoleRestored(address useraddress,string role);\r\n    event ErrorOccurred(string reason);\r\n\r\n    function userNotExist()\r\n        external\r\n        view\r\n        returns (bool)\r\n    {\r\n        return (userStorage().users[msg.sender] == 0);\r\n    }\r\n\r\n    function isUser(address user)\r\n        external\r\n        view\r\n        returns (bool)\r\n    {\r\n        return (userStorage().users[user] != 0);\r\n    }\r\n\r\n    function notUser(address user)\r\n        external\r\n        view\r\n        returns (bool)\r\n    {\r\n        return (userStorage().users[user] == 0);\r\n    }\r\n\r\n    function addUser()\r\n        external\r\n    {\r\n        require(userStorage().users[msg.sender] == 0,\"user already exists\");\r\n        userStorage().users[msg.sender] = 1;\r\n        userStorage()._users.push(msg.sender);\r\n        emit UserAdded(msg.sender);\r\n    }\r\n\r\n    function addUserByAddress(address _useraddress)\r\n        external\r\n    {\r\n        require(StringUtils.equal(userStorage().user_meta[msg.sender].role, OWNER_ROLE),\"unauthorized access, sender not an owner\");\r\n        require(userStorage().users[_useraddress] == 0,\"user already exists\");\r\n        userStorage().users[_useraddress] = 1;\r\n        userStorage()._users.push(_useraddress);\r\n    }\r\n\r\n    function getUsers()\r\n        external\r\n        view\r\n        returns (address[] memory)\r\n    {\r\n        return userStorage()._users;\r\n    }\r\n\r\n    function getTotalUsers()\r\n        external\r\n        view\r\n        returns (uint256)\r\n    {\r\n        return userStorage()._users.length;\r\n    }\r\n\r\n    /**\r\n    * interests is comma dellimited string, e.g. \"girls,technology,stage plays\"\r\n    * use keccak256 to convert a string role to bytes32\r\n    */\r\n    function updateUserMeta(string memory fullname, string memory profession, string memory location, string memory dob, string memory interests, string memory role)\r\n        external\r\n    {\r\n        require(StringUtils.equal(userStorage().user_meta[msg.sender].role, OWNER_ROLE) ||\r\n                StringUtils.equal(userStorage().user_meta[msg.sender].role, ADVERTISER_ROLE) ||\r\n                StringUtils.equal(userStorage().user_meta[msg.sender].role, USER_ROLE) ||\r\n                StringUtils.equal(userStorage().user_meta[msg.sender].role, CONSUMER_ROLE) ||\r\n                StringUtils.equal(userStorage().user_meta[msg.sender].role, CREDITOR_ROLE) ||\r\n                StringUtils.equal(userStorage().user_meta[msg.sender].role, COLLECTION_AGENT_ROLE),\r\n                \"unauthorized access\");\r\n\r\n        UserMeta memory meta = UserMeta(fullname, profession, location, dob, interests, role, false, false);\r\n        userStorage().user_meta[msg.sender] = meta;\r\n        emit UserMetaUpdated(msg.sender,fullname, profession, location, dob, interests, role);\r\n    }\r\n\r\n    function addUserMeta(string memory fullname, string memory profession, string memory location, string memory dob, string memory interests, string memory role)\r\n        external\r\n    {\r\n        require(msg.sender != address(0x0),\"invalid user address\");\r\n        UserMeta memory meta = UserMeta(fullname, profession, location, dob, interests, role, false, false);\r\n        userStorage().user_meta[msg.sender] = meta;\r\n        emit UserMetaUpdated(msg.sender,fullname, profession, location, dob, interests, role);\r\n    }\r\n\r\n    function updateUserMetaByAddress(address _useraddress, string memory fullname, string memory profession, string memory location, string memory dob, string memory interests, string memory role)\r\n        external\r\n    {\r\n        require(StringUtils.equal(userStorage().user_meta[msg.sender].role, OWNER_ROLE),\"unauthorized access, sender not an owner\");\r\n        UserMeta memory meta = UserMeta(fullname, profession, location, dob, interests, role, false, false);\r\n        userStorage().user_meta[_useraddress] = meta;\r\n    }\r\n\r\n    function verifyUser(address _user)\r\n        external\r\n    {\r\n        require(StringUtils.equal(userStorage().user_meta[msg.sender].role, VERIFIER_ROLE),\"unauthorized access, sender not a verifier\");\r\n        require(_user != address(0x0),\"invalid user address\");\r\n        require(userStorage().users[_user] != 0,\"user does not exist\");\r\n        userStorage().user_meta[_user].verified = true;\r\n    }\r\n\r\n    function getUserMeta()\r\n        external\r\n        view\r\n        returns (UserMeta memory)\r\n    {\r\n        return userStorage().user_meta[msg.sender];\r\n    }\r\n\r\n    function getUserRole()\r\n        external\r\n        view\r\n        returns (string memory)\r\n    {\r\n        return userStorage().user_meta[msg.sender].role;\r\n    }\r\n\r\n    function getUserRoleByAddress(address _useraddress)\r\n        external\r\n        view\r\n        returns (string memory)\r\n    {\r\n        return userStorage().user_meta[_useraddress].role;\r\n    }\r\n\r\n    function hasRole(string memory role, address _useraddress)\r\n        external\r\n        view\r\n        returns (bool)\r\n    {\r\n        return (StringUtils.equal(userStorage().user_meta[_useraddress].role,role));\r\n    }\r\n\r\n    function grantRole(string memory role, address _useraddress)\r\n        external\r\n    {\r\n        require(userStorage().users[_useraddress] == 0,\"user already exists\");\r\n        userStorage().users[_useraddress] = 1;\r\n        userStorage()._users.push(_useraddress);\r\n        UserMeta memory meta = UserMeta(\"\", \"\", \"\", \"\", \"\", role, false,false);\r\n        userStorage().user_meta[_useraddress] = meta;\r\n    }\r\n\r\n    function revokeRole(string memory role, address _useraddress)\r\n        external\r\n    {\r\n        require(userStorage().users[_useraddress] != 0,\"user does not exists\");\r\n        require(StringUtils.equal(userStorage().user_meta[_useraddress].role, role),\"role does not match\");\r\n        delete userStorage().users[_useraddress];\r\n        delete userStorage().user_meta[_useraddress];\r\n        emit UserDeleted(_useraddress);\r\n    }\r\n\r\n    function renounceRole(string memory role, address _useraddress)\r\n        external\r\n    {\r\n        require(StringUtils.equal(userStorage().user_meta[_useraddress].role, role),\"role does not match\");\r\n        userStorage().user_meta[_useraddress].role = string(\"UNDEFINED_ROLE\");\r\n        emit UserBlocked(_useraddress);\r\n    }\r\n\r\n    function restoreRole(string memory role, address _useraddress)\r\n        external\r\n    {\r\n        require(StringUtils.equal(userStorage().user_meta[_useraddress].role, role),\"role does not match\");\r\n        userStorage().user_meta[_useraddress].role = role;\r\n        emit UserRoleRestored(_useraddress,role);\r\n    }\r\n\r\n    /**\r\n     * Required by the IRS for US-based wallets, when a notification is received from the IRS that a wallet address is\r\n     * subject to backup withholding?\r\n     */\r\n    function changeBackupWithholding(address _useraddress,bool backup_withholding)\r\n        external\r\n    {\r\n        userStorage().user_meta[_useraddress].backup_withholding = backup_withholding;\r\n    }\r\n\r\n    function isBackupWithholding(address _useraddress)\r\n        external\r\n        view\r\n        returns (bool)\r\n    {\r\n        return userStorage().user_meta[_useraddress].backup_withholding;\r\n    }\r\n}",
  "sourcePath": "/Volumes/My Book/projects/pingleware-contracts/contracts/libs/User.sol",
  "compiler": {
    "name": "solc",
    "version": "0.8.18+commit.87f61d96.Emscripten.clang"
  },
  "schemaVersion": "3.4.12",
  "updatedAt": "2023-10-22T04:05:08.317Z",
  "devdoc": {
    "kind": "dev",
    "methods": {},
    "version": 1
  },
  "userdoc": {
    "kind": "user",
    "methods": {
      "changeBackupWithholding(address,bool)": {
        "notice": "Required by the IRS for US-based wallets, when a notification is received from the IRS that a wallet address is subject to backup withholding?"
      },
      "updateUserMeta(string,string,string,string,string,string)": {
        "notice": "interests is comma dellimited string, e.g. \"girls,technology,stage plays\" use keccak256 to convert a string role to bytes32"
      }
    },
    "version": 1
  }
}