{
  "contractName": "UserAccount",
  "abi": [
    {
      "inputs": [],
      "stateMutability": "nonpayable",
      "type": "constructor"
    },
    {
      "inputs": [
        {
          "internalType": "address",
          "name": "addr",
          "type": "address"
        }
      ],
      "name": "balanceOf",
      "outputs": [
        {
          "internalType": "uint256",
          "name": "",
          "type": "uint256"
        }
      ],
      "stateMutability": "view",
      "type": "function"
    },
    {
      "inputs": [
        {
          "internalType": "address",
          "name": "addr",
          "type": "address"
        },
        {
          "internalType": "uint256",
          "name": "value",
          "type": "uint256"
        }
      ],
      "name": "isSufficientBalance",
      "outputs": [
        {
          "internalType": "bool",
          "name": "",
          "type": "bool"
        }
      ],
      "stateMutability": "view",
      "type": "function"
    },
    {
      "inputs": [
        {
          "internalType": "address",
          "name": "addr",
          "type": "address"
        },
        {
          "internalType": "uint256",
          "name": "amount",
          "type": "uint256"
        }
      ],
      "name": "setBalance",
      "outputs": [],
      "stateMutability": "payable",
      "type": "function"
    },
    {
      "inputs": [
        {
          "internalType": "address",
          "name": "addr",
          "type": "address"
        }
      ],
      "name": "getBalance",
      "outputs": [
        {
          "internalType": "uint256",
          "name": "",
          "type": "uint256"
        }
      ],
      "stateMutability": "view",
      "type": "function"
    },
    {
      "inputs": [
        {
          "internalType": "address",
          "name": "addr",
          "type": "address"
        },
        {
          "internalType": "uint256",
          "name": "amount",
          "type": "uint256"
        }
      ],
      "name": "add",
      "outputs": [],
      "stateMutability": "payable",
      "type": "function"
    },
    {
      "inputs": [
        {
          "internalType": "address",
          "name": "addr",
          "type": "address"
        },
        {
          "internalType": "uint256",
          "name": "amount",
          "type": "uint256"
        }
      ],
      "name": "sub",
      "outputs": [],
      "stateMutability": "payable",
      "type": "function"
    },
    {
      "inputs": [
        {
          "internalType": "address",
          "name": "sender",
          "type": "address"
        },
        {
          "internalType": "address",
          "name": "receiver",
          "type": "address"
        }
      ],
      "name": "transferBalances",
      "outputs": [],
      "stateMutability": "payable",
      "type": "function"
    },
    {
      "inputs": [
        {
          "internalType": "address",
          "name": "sender",
          "type": "address"
        },
        {
          "internalType": "address",
          "name": "receiver",
          "type": "address"
        },
        {
          "internalType": "uint256",
          "name": "amount",
          "type": "uint256"
        }
      ],
      "name": "transfer",
      "outputs": [],
      "stateMutability": "payable",
      "type": "function"
    }
  ],
  "bytecode": "0x60808060405234610016576102d4908161001c8239f35b600080fdfe604060808152600436101561001357600080fd5b600060e060020a813504918263080aa4e2146101a857826326ffee081461017757826346860d141461013e57826370a082311461007c578263beabacc8146100e7578263e30443bc146100bb578263f5d82b6b1461008157505063f8b2cb4f1461007c57600080fd5b610230565b806003193601126100b757600160a060020a0361009c6101ff565b1682528160205281206100b2602435825461026a565b905580f35b5080fd5b806003193601126100b757600160a060020a036100d66101ff565b168252816020526024359082205580f35b60603660031901126100b7576100b26100fe6101ff565b9161010761021a565b9260443593600160a060020a0380921686528560205282862061012b868254610291565b905516845283602052832091825461026a565b346100b757806003193601126100b757602091600160a060020a036101616101ff565b1681528083528160243591205410159051908152f35b806003193601126100b757600160a060020a036101926101ff565b1682528160205281206100b26024358254610291565b8082916003193601126101fc576101bd6101ff565b6101c561021a565b600160a060020a03809216918285528460205283852054911684526101ee83852091825461026a565b905582528160205281205580f35b50fd5b60043590600160a060020a038216820361021557565b600080fd5b60243590600160a060020a038216820361021557565b3461021557602036600319011261021557600160a060020a036102516101ff565b1660005260006020526020604060002054604051908152f35b9190820180921161027757565b60e060020a634e487b710260009081526011600452602490fd5b919082039182116102775756fea264697066735822122033c4ad665fb5d0056be4db13e4fb814c09ba4b3a3ebe4d47fa33f5e40918b51b64736f6c63430008120033",
  "immutableReferences": {},
  "source": "// SPDX-License-Identifier: CC-BY-4.0\r\npragma solidity >=0.4.22 <0.9.0;\r\n\r\ncontract UserAccount {\r\n\r\n    mapping(address => uint256) private balances;\r\n\r\n    constructor() {}\r\n\r\n    function balanceOf(address addr) public view returns (uint256) {\r\n        return balances[addr];\r\n    }\r\n    function isSufficientBalance(address addr, uint256 value) public view returns(bool) {\r\n        return (balances[addr] >= value);\r\n    }\r\n    function setBalance(address addr, uint256 amount) public payable {\r\n        balances[addr] = amount;\r\n    }\r\n    function getBalance(address addr) public view returns (uint256) {\r\n        return balances[addr];\r\n    }\r\n    function add(address addr, uint256 amount) public payable {\r\n        balances[addr] += amount;\r\n    }\r\n    function sub(address addr, uint256 amount) public payable {\r\n        balances[addr] -= amount;\r\n    }\r\n    function transferBalances(address sender,address receiver) public payable {\r\n        balances[receiver] += balances[sender];\r\n        balances[sender] = 0;\r\n    }\r\n    function transfer(address sender,address receiver, uint256 amount) public payable {\r\n        balances[sender] -= amount;\r\n        balances[receiver] += amount;\r\n    }\r\n}",
  "sourcePath": "/Volumes/HOME/pingleware-contracts/contracts/finance/UserAccount.sol",
  "compiler": {
    "name": "solc",
    "version": "0.8.18+commit.87f61d96.Emscripten.clang"
  },
  "schemaVersion": "3.4.12",
  "updatedAt": "2024-05-23T18:56:25.312Z",
  "devdoc": {
    "kind": "dev",
    "methods": {},
    "version": 1
  },
  "userdoc": {
    "kind": "user",
    "methods": {},
    "version": 1
  }
}