{
  "contractName": "User",
  "abi": [
    {
      "anonymous": false,
      "inputs": [
        {
          "indexed": false,
          "internalType": "string",
          "name": "reason",
          "type": "string"
        }
      ],
      "name": "ErrorOccurred",
      "type": "event"
    },
    {
      "anonymous": false,
      "inputs": [
        {
          "indexed": false,
          "internalType": "address",
          "name": "sender",
          "type": "address"
        }
      ],
      "name": "UserAdded",
      "type": "event"
    },
    {
      "anonymous": false,
      "inputs": [
        {
          "indexed": false,
          "internalType": "address",
          "name": "useraddress",
          "type": "address"
        }
      ],
      "name": "UserBlocked",
      "type": "event"
    },
    {
      "anonymous": false,
      "inputs": [
        {
          "indexed": false,
          "internalType": "address",
          "name": "useraddress",
          "type": "address"
        }
      ],
      "name": "UserDeleted",
      "type": "event"
    },
    {
      "anonymous": false,
      "inputs": [
        {
          "indexed": false,
          "internalType": "address",
          "name": "sender",
          "type": "address"
        },
        {
          "indexed": false,
          "internalType": "string",
          "name": "fullname",
          "type": "string"
        },
        {
          "indexed": false,
          "internalType": "string",
          "name": "profession",
          "type": "string"
        },
        {
          "indexed": false,
          "internalType": "string",
          "name": "location",
          "type": "string"
        },
        {
          "indexed": false,
          "internalType": "string",
          "name": "dob",
          "type": "string"
        },
        {
          "indexed": false,
          "internalType": "string",
          "name": "interests",
          "type": "string"
        },
        {
          "indexed": false,
          "internalType": "string",
          "name": "role",
          "type": "string"
        }
      ],
      "name": "UserMetaUpdated",
      "type": "event"
    },
    {
      "anonymous": false,
      "inputs": [
        {
          "indexed": false,
          "internalType": "address",
          "name": "useraddress",
          "type": "address"
        },
        {
          "indexed": false,
          "internalType": "string",
          "name": "role",
          "type": "string"
        }
      ],
      "name": "UserRoleRestored",
      "type": "event"
    },
    {
      "inputs": [],
      "name": "ADVERTISER_ROLE",
      "outputs": [
        {
          "internalType": "string",
          "name": "",
          "type": "string"
        }
      ],
      "stateMutability": "view",
      "type": "function"
    },
    {
      "inputs": [],
      "name": "COLLECTION_AGENT_ROLE",
      "outputs": [
        {
          "internalType": "string",
          "name": "",
          "type": "string"
        }
      ],
      "stateMutability": "view",
      "type": "function"
    },
    {
      "inputs": [],
      "name": "CONSUMER_ROLE",
      "outputs": [
        {
          "internalType": "string",
          "name": "",
          "type": "string"
        }
      ],
      "stateMutability": "view",
      "type": "function"
    },
    {
      "inputs": [],
      "name": "CREDITOR_ROLE",
      "outputs": [
        {
          "internalType": "string",
          "name": "",
          "type": "string"
        }
      ],
      "stateMutability": "view",
      "type": "function"
    },
    {
      "inputs": [],
      "name": "OWNER_ROLE",
      "outputs": [
        {
          "internalType": "string",
          "name": "",
          "type": "string"
        }
      ],
      "stateMutability": "view",
      "type": "function"
    },
    {
      "inputs": [],
      "name": "USER_ROLE",
      "outputs": [
        {
          "internalType": "string",
          "name": "",
          "type": "string"
        }
      ],
      "stateMutability": "view",
      "type": "function"
    },
    {
      "inputs": [],
      "name": "VERIFIER_ROLE",
      "outputs": [
        {
          "internalType": "string",
          "name": "",
          "type": "string"
        }
      ],
      "stateMutability": "view",
      "type": "function"
    },
    {
      "inputs": [],
      "name": "userNotExist",
      "outputs": [
        {
          "internalType": "bool",
          "name": "",
          "type": "bool"
        }
      ],
      "stateMutability": "view",
      "type": "function"
    },
    {
      "inputs": [
        {
          "internalType": "address",
          "name": "user",
          "type": "address"
        }
      ],
      "name": "isUser",
      "outputs": [
        {
          "internalType": "bool",
          "name": "",
          "type": "bool"
        }
      ],
      "stateMutability": "view",
      "type": "function"
    },
    {
      "inputs": [
        {
          "internalType": "address",
          "name": "user",
          "type": "address"
        }
      ],
      "name": "notUser",
      "outputs": [
        {
          "internalType": "bool",
          "name": "",
          "type": "bool"
        }
      ],
      "stateMutability": "view",
      "type": "function"
    },
    {
      "inputs": [],
      "name": "getUsers",
      "outputs": [
        {
          "internalType": "address[]",
          "name": "",
          "type": "address[]"
        }
      ],
      "stateMutability": "view",
      "type": "function"
    },
    {
      "inputs": [],
      "name": "getTotalUsers",
      "outputs": [
        {
          "internalType": "uint256",
          "name": "",
          "type": "uint256"
        }
      ],
      "stateMutability": "view",
      "type": "function"
    },
    {
      "inputs": [],
      "name": "getUserMeta",
      "outputs": [
        {
          "components": [
            {
              "internalType": "string",
              "name": "fullname",
              "type": "string"
            },
            {
              "internalType": "string",
              "name": "profession",
              "type": "string"
            },
            {
              "internalType": "string",
              "name": "location",
              "type": "string"
            },
            {
              "internalType": "string",
              "name": "dob",
              "type": "string"
            },
            {
              "internalType": "string",
              "name": "interests",
              "type": "string"
            },
            {
              "internalType": "string",
              "name": "role",
              "type": "string"
            },
            {
              "internalType": "bool",
              "name": "backup_withholding",
              "type": "bool"
            },
            {
              "internalType": "bool",
              "name": "verified",
              "type": "bool"
            }
          ],
          "internalType": "struct User.UserMeta",
          "name": "",
          "type": "tuple"
        }
      ],
      "stateMutability": "view",
      "type": "function"
    },
    {
      "inputs": [],
      "name": "getUserRole",
      "outputs": [
        {
          "internalType": "string",
          "name": "",
          "type": "string"
        }
      ],
      "stateMutability": "view",
      "type": "function"
    },
    {
      "inputs": [
        {
          "internalType": "address",
          "name": "_useraddress",
          "type": "address"
        }
      ],
      "name": "getUserRoleByAddress",
      "outputs": [
        {
          "internalType": "string",
          "name": "",
          "type": "string"
        }
      ],
      "stateMutability": "view",
      "type": "function"
    },
    {
      "inputs": [
        {
          "internalType": "string",
          "name": "role",
          "type": "string"
        },
        {
          "internalType": "address",
          "name": "_useraddress",
          "type": "address"
        }
      ],
      "name": "hasRole",
      "outputs": [
        {
          "internalType": "bool",
          "name": "",
          "type": "bool"
        }
      ],
      "stateMutability": "view",
      "type": "function"
    },
    {
      "inputs": [
        {
          "internalType": "address",
          "name": "_useraddress",
          "type": "address"
        }
      ],
      "name": "isBackupWithholding",
      "outputs": [
        {
          "internalType": "bool",
          "name": "",
          "type": "bool"
        }
      ],
      "stateMutability": "view",
      "type": "function"
    }
  ],
  "bytecode": "0x6080806040523461001c576137dc90816100228239308160080152f35b600080fdfe608080604052307f000000000000000000000000000000000000000000000000000000000000000014600436101561003657600080fd5b60e060020a600035049162ce8e3e8314612f10575081630617e2ec14612ef95781631311916114612ee25781632af18c5214612eaf5781633816855014612e8d5781634209fff114612e49578163455c928c14612cca5781634bc02da614612cb35781634be06a24146124e75781634d8131201461236d5781635ba830fe1461219b5781636c9cd0971461212e578163731f21a014611faa5781639025094c14611db65781639be572f614611d905781639d7300d2146116e8578163a1e6ab9f146114f5578163b31deaf1146114de578163b6644d0914610b3f578163bf04a10d14610b0b578163c19ae2ed1461038a578163d5f6618714610347578163e58378bb14610330578163e58c453414610319578163e7705db6146102ea578163e7bf97cd146102b2578163ecb38456146101ad575063ee2962fe1461017957600080fd5b60203660031901126101a857602060ff600661019b6101966130e6565b6132f7565b0154166040519015158152f35b600080fd5b6101a8576020806003193601126101a8576101ff906101ca6130e6565b908060056101d7336132f7565b016101e0613283565b60405160e160020a63235ee54d028152958692839290600484016134ea565b038173__StringUtils___________________________5af49283156102a6576102779361023591600091610279575b5061350f565b600160a060020a03821690816000526000805160206137678339815191529182825261026660406000205415613330565b6000525260016040600020556133ce565b005b6102999150833d851161029f575b6102918183613031565b81019061343d565b8561022f565b503d610287565b6040513d6000823e3d90fd5b6101a85760403660031901126101a8576102ca6130e6565b60243580151581036101a85760066102e4610277936132f7565b01613560565b60003660031901126101a8576103156103016132d0565b604051918291602083526020830190613083565b0390f35b60003660031901126101a8576103156103016132a7565b60003660031901126101a857610315610301613283565b60203660031901126101a857600160a060020a036103636130e6565b16600052600080516020613767833981519152602052602060406000205415604051908152f35b6101a85761047061039a36613179565b600160a060029493940a0381168060005260008051602061376783398151915290816020526103ce60406000205415613330565b60005260205260016040600020556103e5816133ce565b604051926103f284612fdf565b6040516103fe81613016565b60008152845260405161041081613016565b60008152602085015260405161042581613016565b60008152604085015260405161043a81613016565b60008152606085015260405161044f81613016565b60008152608085015260a0840152600060c0840152600060e08401526132f7565b81518051919291906001604060020a0382116107925781906104928554613378565b601f8111610ad8575b50602090601f8311600114610a6d57600092610a62575b5050816002029160080260020a6000190419161782555b60208101518051906001604060020a0382116107925781906104ee6001860154613378565b601f8111610a2c575b50602090601f83116001146109b8576000926109ad575b5050816002029160080260020a6000190419161760018301555b6040810151805160029184830191906001604060020a0382116107925781906105518454613378565b601f811161097a575b50602090601f831160011461090d57600092610902575b505060088202840a6000190419169083021790555b6060820151805160038501916001604060020a0382116107925781906105ac8454613378565b601f81116108cf575b50602090601f831160011461086257600092610857575b505060088202840a6000190419169083021790555b6080820151805160048501916001604060020a0382116107925781906106078454613378565b601f8111610824575b50602090601f83116001146107b7576000926107ac575b505060088202840a6000190419169083021790555b60a08201518051600585019290916001604060020a038311610792576106628454613378565b601f8111610754575b50602090601f84116001146106de579280610277979360e096936006966000936106d3575b505082810292600802900a6000190419161790555b01916106b760c0820151151584613560565b0151815461ff0019166101009115159190910261ff0016179055565b015191508980610690565b90601f939293198316918560005260206000209260005b81811061073c57509360e0969360019360069793836102779c9810610721575b505050020190556106a5565b01516008601f841602840a6000190419169055898080610715565b929360206001819287860151815501950193016106f5565b610782908560005260206000206020601f87010481019160208710610788575b601f602091010401906133b7565b8661066b565b9091508190610774565b60e060020a634e487b710260009081526041600452602490fd5b015190508680610627565b859250601f939193198216938560005260206000209160005b868110610809575083600196106107ee575b5050500201905561063c565b01516008601f841602840a60001904191690558780806107e2565b818301518455889550600190930192602092830192016107d0565b610851908560005260206000206020601f8601048101916020861061078857601f602091010401906133b7565b87610610565b0151905086806105cc565b859250601f939193198216938560005260206000209160005b8681106108b457508360019610610899575b505050020190556105e1565b01516008601f841602840a600019041916905587808061088d565b8183015184558895506001909301926020928301920161087b565b6108fc908560005260206000206020601f8601048101916020861061078857601f602091010401906133b7565b876105b5565b015190508680610571565b859250601f939193198216938560005260206000209160005b86811061095f57508360019610610944575b50505002019055610586565b01516008601f841602840a6000190419169055878080610938565b81830151845588955060019093019260209283019201610926565b6109a7908560005260206000206020601f8601048101916020861061078857601f602091010401906133b7565b8761055a565b01519050848061050e565b91506001850160005260206000209160005b601f1985168110610a145750918391600293600195601f198116106109f9575b50505002016001830155610528565b01516008601f841602840a60001904191690558580806109ea565b919260206001819286850151815501940192016109ca565b610a5c906001870160005260206000206020601f8601048101916020861061078857601f602091010401906133b7565b856104f7565b0151905084806104b2565b60008681526020812093505b601f1985168110610ac05750918391600293600195601f19811610610aa5575b505050020182556104c9565b01516008601f841602840a6000190419169055858080610a99565b91926020600181928685015181550194019201610a79565b610b05908660005260206000206020601f8601048101916020861061078857601f602091010401906133b7565b8561049b565b60003660031901126101a857610315610b386103016005610b2b336132f7565b0160405192838092613455565b0382613031565b6101a857610b4c366131ba565b9492610b896005610b5f949394336132f7565b01610b68613283565b60405160e160020a63235ee54d0280825290939092849290600484016134ea565b0360208373__StringUtils___________________________9281845af49283156102a6576000936114bd575b508215611468575b8215611413575b82156113be575b8215611354575b82156112e7575b5050156112a657604051610bed81612fdf565b8481528560208201528160408201528260608201528360808201528660a0820152600060c0820152600060e0820152610c25336132f7565b81518051906001604060020a038211610792578190610c448454613378565b601f8111611273575b50602090601f8311600114611208576000926111fd575b5050816002029160080260020a6000190419161781555b602082015180516001604060020a03811161079257806001840192610ca08454613378565b601f81116111ca575b50602090601f831160011461116157600092611156575b5050816002029160080260020a6000190419161790555b604082015180516001604060020a03811161079257806002840192610cfc8454613378565b601f8111611123575b50602090601f83116001146110ba576000926110af575b5050816002029160080260020a6000190419161790555b606082015180516001604060020a03811161079257806003840192610d588454613378565b601f811161107c575b50602090601f831160011461101357600092611008575b5050816002029160080260020a6000190419161790555b608082015180516001604060020a03811161079257806004840192610db48454613378565b601f8111610fd5575b50602090601f8311600114610f6c57600092610f61575b5050816002029160080260020a6000190419161790555b60a08201518051906001604060020a03821161079257610e0e6005840154613378565b601f8111610f2b575b50602090601f8311600114610e99576006610e8998969484610e7c956000805160206137078339815191529e9a989560e095600092610e8e575b5050816002029160080260020a60001904191617600582015501916106b760c0820151151584613560565b6040519687963388613571565b0390a1005b015190508f80610e51565b906005840160005260206000209160005b601f1985168110610f135750610e8998969460016002866000805160206137078339815191529f9b999660e096600696610e7c9a601f19811610610ef8575b505050020160058201556106a5565b01516008601f841602840a6000190419169055388080610ee9565b91926020600181928685015181550194019201610eaa565b610f5b906005850160005260206000206020601f8601048101916020861061078857601f602091010401906133b7565b8a610e17565b015190508b80610dd4565b6000858152602081209350601f198516905b818110610fbd57509160029391856001969410610fa2575b50505002019055610deb565b01516008601f841602840a60001904191690558c8080610f96565b92936020600181928786015181550195019301610f7e565b611002908560005260206000206020601f8601048101916020861061078857601f602091010401906133b7565b8c610dbd565b015190508b80610d78565b6000858152602081209350601f198516905b81811061106457509160029391856001969410611049575b50505002019055610d8f565b01516008601f841602840a60001904191690558c808061103d565b92936020600181928786015181550195019301611025565b6110a9908560005260206000206020601f8601048101916020861061078857601f602091010401906133b7565b8c610d61565b015190508b80610d1c565b6000858152602081209350601f198516905b81811061110b575091600293918560019694106110f0575b50505002019055610d33565b01516008601f841602840a60001904191690558c80806110e4565b929360206001819287860151815501950193016110cc565b611150908560005260206000206020601f8601048101916020861061078857601f602091010401906133b7565b8c610d05565b015190508b80610cc0565b6000858152602081209350601f198516905b8181106111b257509160029391856001969410611197575b50505002019055610cd7565b01516008601f841602840a60001904191690558c808061118b565b92936020600181928786015181550195019301611173565b6111f7908560005260206000206020601f8601048101916020861061078857601f602091010401906133b7565b8c610ca9565b015190508a80610c64565b60008581526020812093505b601f198516811061125b5750918391600293600195601f19811610611240575b50505002018155610c7b565b01516008601f841602840a60001904191690558b8080611234565b91926020600181928685015181550194019201611214565b6112a0908560005260206000206020601f8601048101916020861061078857601f602091010401906133b7565b8b610c4d565b60405160e560020a62461bcd0281526020600482015260136024820152606860020a72756e617574686f72697a656420616363657373026044820152606490fd5b61131a92509060209160056112fb336132f7565b01611304613054565b92604051958694859384938452600484016134ea565b03915af49081156102a657600091611335575b508780610bda565b61134e915060203d60201161029f576102918183613031565b8761132d565b915061138460206005611366336132f7565b0161136f61325c565b906040519384928392878452600484016134ea565b0381865af49081156102a65760009161139f575b5091610bd3565b6113b8915060203d60201161029f576102918183613031565b89611398565b91506113d9602060056113d0336132f7565b0161136f6130fc565b0381865af49081156102a6576000916113f4575b5091610bcc565b61140d915060203d60201161029f576102918183613031565b896113ed565b915061142e60206005611425336132f7565b0161136f6130c3565b0381865af49081156102a657600091611449575b5091610bc5565b611462915060203d60201161029f576102918183613031565b89611442565b91506114836020600561147a336132f7565b0161136f6132a7565b0381865af49081156102a65760009161149e575b5091610bbe565b6114b7915060203d60201161029f576102918183613031565b89611497565b6114d791935060203d60201161029f576102918183613031565b9189610bb6565b60003660031901126101a85761031561030161325c565b6101a85761150236613179565b90600561150e836132f7565b016040519060e160020a63235ee54d02825281806115336020958694600484016134ea565b038173__StringUtils___________________________5af480156102a657611564916000916116cb575b50613636565b6040519161157183612ffb565b600e8352609060020a6d554e444546494e45445f524f4c4502828401526005611599826132f7565b84519101906001604060020a038111610792576115b68254613378565b601f8111611692575b508394601f821160011461161b576000805160206136e78339815191529560009183611610575b5050816002029160080260020a6000190419161790555b604051600160a060020a039091168152a1005b0151905086806115e6565b601f1982169583600052856000209160005b88811061167b57509183916002936001956000805160206136e78339815191529a10611660575b505050020190556115fd565b01516008601f841602840a6000190419169055878080611654565b91928760018192868501518155019401920161162d565b6116bb9083600052856000208680601f8601048201928186106116c1575b601f010401906133b7565b856115bf565b91925082916116b0565b6116e29150833d851161029f576102918183613031565b8461155e565b6101a8576116f5366131ba565b94926117059291923315156135ed565b60405161171181612fdf565b8481528560208201528160408201528260608201528360808201528660a0820152600060c0820152600060e0820152611749336132f7565b81518051906001604060020a0382116107925781906117688454613378565b601f8111611d5d575b50602090601f8311600114611cf257600092611ce7575b5050816002029160080260020a6000190419161781555b602082015180516001604060020a038111610792578060018401926117c48454613378565b601f8111611cb4575b50602090601f8311600114611c4b57600092611c40575b5050816002029160080260020a6000190419161790555b604082015180516001604060020a038111610792578060028401926118208454613378565b601f8111611c0d575b50602090601f8311600114611ba457600092611b99575b5050816002029160080260020a6000190419161790555b606082015180516001604060020a0381116107925780600384019261187c8454613378565b601f8111611b66575b50602090601f8311600114611afd57600092611af2575b5050816002029160080260020a6000190419161790555b608082015180516001604060020a038111610792578060048401926118d88454613378565b601f8111611abf575b50602090601f8311600114611a5657600092611a4b575b5050816002029160080260020a6000190419161790555b60a08201518051906001604060020a038211610792576119326005840154613378565b601f8111611a15575b50602090601f831160011461199f576006610e8998969484610e7c956000805160206137078339815191529e9a989560e095600092610e8e575050816002029160080260020a60001904191617600582015501916106b760c0820151151584613560565b906005840160005260206000209160005b601f19851681106119fd5750610e8998969460016002866000805160206137078339815191529f9b999660e096600696610e7c9a601f19811610610ef857505050020160058201556106a5565b919260206001819286850151815501940192016119b0565b611a45906005850160005260206000206020601f8601048101916020861061078857601f602091010401906133b7565b8a61193b565b015190508b806118f8565b6000858152602081209350601f198516905b818110611aa757509160029391856001969410611a8c575b5050500201905561190f565b01516008601f841602840a60001904191690558c8080611a80565b92936020600181928786015181550195019301611a68565b611aec908560005260206000206020601f8601048101916020861061078857601f602091010401906133b7565b8c6118e1565b015190508b8061189c565b6000858152602081209350601f198516905b818110611b4e57509160029391856001969410611b33575b505050020190556118b3565b01516008601f841602840a60001904191690558c8080611b27565b92936020600181928786015181550195019301611b0f565b611b93908560005260206000206020601f8601048101916020861061078857601f602091010401906133b7565b8c611885565b015190508b80611840565b6000858152602081209350601f198516905b818110611bf557509160029391856001969410611bda575b50505002019055611857565b01516008601f841602840a60001904191690558c8080611bce565b92936020600181928786015181550195019301611bb6565b611c3a908560005260206000206020601f8601048101916020861061078857601f602091010401906133b7565b8c611829565b015190508b806117e4565b6000858152602081209350601f198516905b818110611c9c57509160029391856001969410611c81575b505050020190556117fb565b01516008601f841602840a60001904191690558c8080611c75565b92936020600181928786015181550195019301611c5d565b611ce1908560005260206000206020601f8601048101916020861061078857601f602091010401906133b7565b8c6117cd565b015190508a80611788565b60008581526020812093505b601f1985168110611d455750918391600293600195601f19811610611d2a575b5050500201815561179f565b01516008601f841602840a60001904191690558b8080611d1e565b91926020600181928685015181550194019201611cfe565b611d8a908560005260206000206020601f8601048101916020861061078857601f602091010401906133b7565b8b611771565b60003660031901126101a857602060008051602061372783398151915254604051908152f35b60003660031901126101a857604051611dce81612fdf565b60609081815281602082015281604082015281808201528160808201528160a082015260c081016000905260e0016000905233611e0a906132f7565b60405190611e1782612fdf565b60405180611e258184613455565b03611e309082613031565b82526040519081611e448160018401613455565b03611e4f9083613031565b602083019182526040519384611e688160028501613455565b03611e739086613031565b6040848101958652519283611e8b8160038601613455565b03611e969085613031565b8482019384526040519283611eae8160048401613455565b03611eb99085613031565b608086019384526040519081611ed28160058401613455565b03611edd9083613031565b60a08701918252600601549360c087019560ff86161515875260e088019461010080970460ff1615158652604051998a9960208b52518860208c01526101208b01611f2791613083565b9551601f1996878c82030160408d0152611f4091613083565b905191868b830301908b0152611f5591613083565b905190848982030160808a0152611f6b91613083565b905190838882030160a0890152611f8191613083565b9051918682030160c0870152611f9691613083565b9251151560e0850152511515908301520390f35b6101a857611fb736613179565b90600160a060020a03821680600052600080516020613767833981519152602092818452604060002054156120ec5783612015916005611ff6886132f7565b01604051938492839260e160020a63235ee54d028452600484016134ea565b038173__StringUtils___________________________5af480156102a6577f4bc56f1321288dfb5b416cb3a7fd188723979f9e866c91d88eccf7fca039d0399560009361206f61207f9360069587916120cf5750613636565b85855286528360408120556132f7565b6120888161367e565b6120946001820161367e565b6120a06002820161367e565b6120ac6003820161367e565b6120b86004820161367e565b6120c46005820161367e565b0155604051908152a1005b6120e69150893d8b1161029f576102918183613031565b8a61155e565b60405160e560020a62461bcd0281526004810185905260146024820152606060020a737573657220646f6573206e6f7420657869737473026044820152606490fd5b6121496020611ff6600561214136613179565b9290926132f7565b038173__StringUtils___________________________5af480156102a65760209160009161217e575b506040519015158152f35b6121959150823d811161029f576102918183613031565b82612173565b6101a8576121a836613179565b8060056121b584936132f7565b016040519060e160020a63235ee54d02825281806121da6020968794600484016134ea565b038173__StringUtils___________________________5af480156102a65761220a916000916123505750613636565b6005612215826132f7565b8451910193906001604060020a038111610792576122338554613378565b601f8111612322575b5083601f82116001146122a8579481610e8993926000805160206136c78339815191529760009161229d575b50816002029160080260020a6000190419161790555b60408051948594600160a060020a031685528401526040830190613083565b905083015188612268565b601f1982169086600052856000209160005b81811061230b5750836000805160206136c78339815191529893600193610e899796600294106122f0575b50500201905561227e565b8601516008601f841602840a600019041916905589806122e5565b9192876001819286890151815501940192016122ba565b61234a9086600052856000208680601f8601048201928186106116c157601f010401906133b7565b8561223c565b6123679150843d861161029f576102918183613031565b8561155e565b6101a8576020806003193601126101a8576123866130e6565b906123be816005612396336132f7565b0161239f6132d0565b60405160e160020a63235ee54d028152938492839290600484016134ea565b038173__StringUtils___________________________5af49081156102a6576000916124ca575b501561247d57600160a060020a0382166124018115156135ed565b60005260008051602061376783398151915281526040600020541561243b57600661242b836132f7565b01805461ff001916610100179055005b60405160e560020a62461bcd028152600481019190915260136024820152606a60020a721d5cd95c88191bd95cc81b9bdd08195e1a5cdd026044820152606490fd5b60405160e560020a62461bcd0281526004810191909152602a6024820152600080516020613787833981519152604482015260b160020a6930903b32b934b334b2b9026064820152608490fd5b6124e19150823d841161029f576102918183613031565b836123e6565b6101a85760e03660031901126101a8576124ff6130e6565b6024356001604060020a0381116101a85761251e903690600401613123565b6044356001604060020a0381116101a85761253d903690600401613123565b916064356001604060020a0381116101a85761255d903690600401613123565b906084356001604060020a0381116101a85761257d903690600401613123565b9060a4356001604060020a0381116101a85761259d903690600401613123565b60c43592906001604060020a0384116101a8576125c16125f7943690600401613123565b91602060056125cf336132f7565b016125d8613283565b60405160e160020a63235ee54d028152978892839290600484016134ea565b038173__StringUtils___________________________5af49485156102a65761266b9561262c91600091612c94575061350f565b6040519661263988612fdf565b875260208701978852604087019586526060870152608086015260a0850152600060c0850152600060e08501526132f7565b82518051919491906001604060020a03821161079257819061268d8754613378565b601f8111612c61575b50602090601f8311600114612bf657600092612beb575b5050816002029160080260020a6000190419161784555b5180516001604060020a038111610792578060018601926126e58454613378565b601f8111612bb8575b50602090601f8311600114612b4f57600092612b44575b5050816002029160080260020a6000190419161790555b518051906001604060020a03821161079257819061273d6002860154613378565b601f8111612b0e575b50602090601f8311600114612a9a57600092612a8f575b5050816002029160080260020a6000190419161760028301555b6060810151805160038401916001604060020a03821161079257819061279d8454613378565b601f8111612a5c575b50602090601f83116001146129f3576000926129e8575b5050816002029160080260020a6000190419161790555b6080810151805160048401916001604060020a0382116107925781906127fa8454613378565b601f81116129b5575b50602090601f831160011461294c57600092612941575b5050816002029160080260020a6000190419161790555b60a0810151805190929060058201906001604060020a038111610792576128588254613378565b601f811161290e575b506020601f82116001146128b757918160e09492600694610277986000926128ac575b5050816002029160080260020a60001904191617905501916106b760c0820151151584613560565b015190508880612884565b601f198216958360005260206000209660005b8181106128f6575083610277986006969460019460e099976002951061072157505050020190556106a5565b838301518955600190980197602093840193016128ca565b61293b908360005260206000206020601f8501048101916020851061078857601f602091010401906133b7565b85612861565b01519050858061281a565b6000858152602081209350601f198516905b81811061299d57509160029391856001969410612982575b50505002019055612831565b01516008601f841602840a6000190419169055868080612976565b9293602060018192878601518155019501930161295e565b6129e2908560005260206000206020601f8601048101916020861061078857601f602091010401906133b7565b86612803565b0151905085806127bd565b6000858152602081209350601f198516905b818110612a4457509160029391856001969410612a29575b505050020190556127d4565b01516008601f841602840a6000190419169055868080612a1d565b92936020600181928786015181550195019301612a05565b612a89908560005260206000206020601f8601048101916020861061078857601f602091010401906133b7565b866127a6565b01519050848061275d565b91506002850160005260206000209160005b601f1985168110612af65750918391600293600195601f19811610612adb575b50505002016002830155612777565b01516008601f841602840a6000190419169055858080612acc565b91926020600181928685015181550194019201612aac565b612b3e906002870160005260206000206020601f8601048101916020861061078857601f602091010401906133b7565b85612746565b015190508680612705565b6000858152602081209350601f198516905b818110612ba057509160029391856001969410612b85575b5050500201905561271c565b01516008601f841602840a6000190419169055878080612b79565b92936020600181928786015181550195019301612b61565b612be5908560005260206000206020601f8601048101916020861061078857601f602091010401906133b7565b876126ee565b0151905086806126ad565b60008881526020812093505b601f1985168110612c495750918391600293600195601f19811610612c2e575b505050020184556126c4565b01516008601f841602840a6000190419169055878080612c22565b91926020600181928685015181550194019201612c02565b612c8e908860005260206000206020601f8601048101916020861061078857601f602091010401906133b7565b87612696565b612cad915060203d60201161029f576102918183613031565b8a61022f565b60003660031901126101a8576103156103016130fc565b6101a85760003660031901126101a857336000526000805160206137678339815191526020818152612d0160406000205415613330565b612d09613283565b916005612d15336132f7565b84519101906001604060020a03811161079257612d328254613378565b601f8111612e1b575b508394601f8211600114612da4576000805160206137478339815191529560009183612d99575b5050816002029160080260020a6000190419161790555b3360005281526001604060002055612d90336133ce565b604051338152a1005b015190508680612d62565b601f1982169583600052856000209160005b888110612e0457509183916002936001956000805160206137478339815191529a10612de9575b50505002019055612d79565b01516008601f841602840a6000190419169055878080612ddd565b919287600181928685015181550194019201612db6565b612e439083600052856000208680601f8601048201928186106116c157601f010401906133b7565b85612d3b565b60203660031901126101a857600160a060020a03612e656130e6565b1660005260008051602061376783398151915260205260206040600020541515604051908152f35b60203660031901126101a857610315610b386103016005610b2b6101966130e6565b60003660031901126101a85733600052600080516020613767833981519152602052602060406000205415604051908152f35b60003660031901126101a8576103156103016130c3565b60003660031901126101a857610315610301613054565b60003660031901126101a85760008051602061372783398151915280548083526000918252602092918383019182917f7d08f005b81dd5e770de548a144392ff034b16e6a64d14fee14e2cf5dc6e03c391905b86828210612fc2578686612f7982880383613031565b604051928392818401908285525180915260408401929160005b828110612fa257505050500390f35b8351600160a060020a031685528695509381019392810192600101612f93565b8354600160a060020a031685529093019260019283019201612f63565b61010081019081106001604060020a0382111761079257604052565b604081019081106001604060020a0382111761079257604052565b602081019081106001604060020a0382111761079257604052565b601f909101601f19168101906001604060020a0382119082101761079257604052565b6040519061306182612ffb565b60108252608260020a6f10dbdb1b1958dd1a5bdb881059d95b9d026020830152565b919082519283825260005b8481106130af575050826000602080949584010152601f8019910116010190565b60208183018101518483018201520161308e565b604051906130d082612ffb565b6004825260e160020a632ab9b2b9026020830152565b60043590600160a060020a03821682036101a857565b6040519061310982612ffb565b6008825260c160020a6721b7b739bab6b2b9026020830152565b81601f820112156101a8578035906001604060020a0382116107925760405192613157601f8401601f191660200185613031565b828452602083830101116101a857816000926020809301838601378301015290565b60406003198201126101a857600435906001604060020a0382116101a8576131a391600401613123565b90602435600160a060020a03811681036101a85790565b9060c06003198301126101a8576001604060020a039160049081358481116101a857816131e8918401613123565b936024358181116101a857826131ff918501613123565b936044358281116101a85783613216918601613123565b936064358381116101a8578461322d918301613123565b936084358481116101a85781613244918401613123565b9360a4359081116101a8576132599201613123565b90565b6040519061326982612ffb565b6008825260c160020a6721b932b234ba37b9026020830152565b6040519061329082612ffb565b6005825260d960020a6427bbb732b9026020830152565b604051906132b482612ffb565b600a825260b160020a6920b23b32b93a34b9b2b9026020830152565b604051906132dd82612ffb565b6008825260c160020a672b32b934b334b2b9026020830152565b600160a060020a031660009081527fd4cc9949969473d240648650cfdc666cf2236793e7cbbf8063c115959146547e6020526040902090565b1561333757565b60405160e560020a62461bcd0281526020600482015260136024820152606860020a727573657220616c726561647920657869737473026044820152606490fd5b90600160028304921680156133ad575b602083101461339357565b60e060020a634e487b710260009081526022600452602490fd5b91607f1691613388565b8181106133c2575050565b600081556001016133b7565b600080516020613727833981519152805490604060020a821015610792576001820180825582101561342357600090815260209020018054600160a060020a031916600160a060020a03909216919091179055565b60e060020a634e487b710260009081526032600452602490fd5b908160209103126101a8575180151581036101a85790565b906000929180549161346683613378565b9182825260019384811690816000146134c85750600114613488575b50505050565b90919394506000526020928360002092846000945b8386106134b4575050505001019038808080613482565b80548587018301529401938590820161349d565b9294505050602093945060ff1916838301521515820201019038808080613482565b909161350161325993604084526040840190613455565b916020818403910152613083565b1561351657565b60405160e560020a62461bcd0281526020600482015260286024820152600080516020613787833981519152604482015260c160020a6730b71037bbb732b9026064820152608490fd5b9060ff801983541691151516179055565b95926135df946135b56135c3926135a76135d1966132599c9a96600160a060020a03168c5260e060208d015260e08c0190613083565b908a820360408c0152613083565b9088820360608a0152613083565b908682036080880152613083565b9084820360a0860152613083565b9160c0818403910152613083565b156135f457565b60405160e560020a62461bcd0281526020600482015260146024820152606060020a73696e76616c696420757365722061646472657373026044820152606490fd5b1561363d57565b60405160e560020a62461bcd0281526020600482015260136024820152606b60020a720e4ded8ca40c8decae640dcdee840dac2e8c6d026044820152606490fd5b6136888154613378565b9081613692575050565b81601f600093116001146136a4575055565b9080839182526136c26020601f8185209501048401600185016133b7565b555556fe4669130a7616347337bd3b8b01d27f458dd7f831c1b845f1a0c2e406c999da87ca86d8c91ca6d00afd863578cc633a0901fad724592f89649629fe65f61410d29f0babf913953530ad591b81a4a18c45b9c1455bddb8dea4f50df500723d9a9bd4cc9949969473d240648650cfdc666cf2236793e7cbbf8063c115959146547d19ef9a4877199f89440a26acb26895ec02ed86f2df1aeaa90dc18041b892f71fd4cc9949969473d240648650cfdc666cf2236793e7cbbf8063c115959146547c756e617574686f72697a6564206163636573732c2073656e646572206e6f7420a2646970667358221220a53966bff5f811f9441c688d961e4112517e1caa9dc0ce35b702002c00cd45f164736f6c63430008120033",
  "immutableReferences": {
    "library_deploy_address": [
      {
        "length": 32,
        "start": 8
      }
    ]
  },
  "source": "// SPDX-License-Identifier: CC-BY-4.0\r\npragma solidity >=0.4.22 <0.9.0;\r\n\r\nimport \"./StringUtils.sol\";\r\n\r\nlibrary User {\r\n    string public constant OWNER_ROLE = string(\"Owner\");\r\n    string public constant ADVERTISER_ROLE = string(\"Advertiser\");\r\n    string public constant USER_ROLE = string(\"User\");\r\n    string public constant VERIFIER_ROLE = string(\"Verifier\");\r\n    string public constant CONSUMER_ROLE = string(\"Consumer\");\r\n    string public constant CREDITOR_ROLE = string(\"Creditor\");\r\n    string public constant COLLECTION_AGENT_ROLE = string(\"Collection Agent\");\r\n\r\n    struct UserMeta {\r\n        string  fullname;\r\n        string  profession;\r\n        string  location;\r\n        string  dob;\r\n        string  interests;\r\n        string  role;\r\n        bool    backup_withholding;\r\n        bool    verified;\r\n    }\r\n\r\n    /**\r\n     * The user's are scoped by the contract address which they are associated\r\n     */\r\n    struct UserStorage {\r\n        mapping (address => uint256) users;\r\n        address[] _users;\r\n        mapping (address => UserMeta) user_meta;\r\n        address contract_address;\r\n    }\r\n\r\n    function userStorage() internal pure returns (UserStorage storage ds)\r\n    {\r\n        bytes32 position = keccak256(\"user.storage\");\r\n        assembly { ds.slot := position }\r\n    }\r\n\r\n    event UserAdded(address sender);\r\n    event UserMetaUpdated(address sender,string fullname,string profession,string location,string dob,string interests,string role);\r\n    event UserDeleted(address useraddress);\r\n    event UserBlocked(address useraddress);\r\n    event UserRoleRestored(address useraddress,string role);\r\n    event ErrorOccurred(string reason);\r\n\r\n    function userNotExist()\r\n        external\r\n        view\r\n        returns (bool)\r\n    {\r\n        return (userStorage().users[msg.sender] == 0);\r\n    }\r\n\r\n    function isUser(address user)\r\n        external\r\n        view\r\n        returns (bool)\r\n    {\r\n        return (userStorage().users[user] != 0);\r\n    }\r\n\r\n    function notUser(address user)\r\n        external\r\n        view\r\n        returns (bool)\r\n    {\r\n        return (userStorage().users[user] == 0);\r\n    }\r\n\r\n    function addUser()\r\n        external\r\n    {\r\n        require(userStorage().users[msg.sender] == 0,\"user already exists\");\r\n        userStorage().user_meta[msg.sender].role = OWNER_ROLE;\r\n        userStorage().users[msg.sender] = 1;\r\n        userStorage()._users.push(msg.sender);\r\n        emit UserAdded(msg.sender);\r\n    }\r\n\r\n    function addUserByAddress(address _useraddress)\r\n        external\r\n    {\r\n        require(StringUtils.equal(userStorage().user_meta[msg.sender].role, OWNER_ROLE),\"unauthorized access, sender not an owner\");\r\n        require(userStorage().users[_useraddress] == 0,\"user already exists\");\r\n        userStorage().users[_useraddress] = 1;\r\n        userStorage()._users.push(_useraddress);\r\n    }\r\n\r\n    function getUsers()\r\n        external\r\n        view\r\n        returns (address[] memory)\r\n    {\r\n        return userStorage()._users;\r\n    }\r\n\r\n    function getTotalUsers()\r\n        external\r\n        view\r\n        returns (uint256)\r\n    {\r\n        return userStorage()._users.length;\r\n    }\r\n\r\n    /**\r\n    * interests is comma dellimited string, e.g. \"girls,technology,stage plays\"\r\n    * use keccak256 to convert a string role to bytes32\r\n    */\r\n    function updateUserMeta(string memory fullname, string memory profession, string memory location, string memory dob, string memory interests, string memory role)\r\n        external\r\n    {\r\n        require(StringUtils.equal(userStorage().user_meta[msg.sender].role, OWNER_ROLE) ||\r\n                StringUtils.equal(userStorage().user_meta[msg.sender].role, ADVERTISER_ROLE) ||\r\n                StringUtils.equal(userStorage().user_meta[msg.sender].role, USER_ROLE) ||\r\n                StringUtils.equal(userStorage().user_meta[msg.sender].role, CONSUMER_ROLE) ||\r\n                StringUtils.equal(userStorage().user_meta[msg.sender].role, CREDITOR_ROLE) ||\r\n                StringUtils.equal(userStorage().user_meta[msg.sender].role, COLLECTION_AGENT_ROLE),\r\n                \"unauthorized access\");\r\n\r\n        UserMeta memory meta = UserMeta(fullname, profession, location, dob, interests, role, false, false);\r\n        userStorage().user_meta[msg.sender] = meta;\r\n        emit UserMetaUpdated(msg.sender,fullname, profession, location, dob, interests, role);\r\n    }\r\n\r\n    function addUserMeta(string memory fullname, string memory profession, string memory location, string memory dob, string memory interests, string memory role)\r\n        external\r\n    {\r\n        require(msg.sender != address(0x0),\"invalid user address\");\r\n        UserMeta memory meta = UserMeta(fullname, profession, location, dob, interests, role, false, false);\r\n        userStorage().user_meta[msg.sender] = meta;\r\n        emit UserMetaUpdated(msg.sender,fullname, profession, location, dob, interests, role);\r\n    }\r\n\r\n    function updateUserMetaByAddress(address _useraddress, string memory fullname, string memory profession, string memory location, string memory dob, string memory interests, string memory role)\r\n        external\r\n    {\r\n        require(StringUtils.equal(userStorage().user_meta[msg.sender].role, OWNER_ROLE),\"unauthorized access, sender not an owner\");\r\n        UserMeta memory meta = UserMeta(fullname, profession, location, dob, interests, role, false, false);\r\n        userStorage().user_meta[_useraddress] = meta;\r\n    }\r\n\r\n    function verifyUser(address _user)\r\n        external\r\n    {\r\n        require(StringUtils.equal(userStorage().user_meta[msg.sender].role, VERIFIER_ROLE),\"unauthorized access, sender not a verifier\");\r\n        require(_user != address(0x0),\"invalid user address\");\r\n        require(userStorage().users[_user] != 0,\"user does not exist\");\r\n        userStorage().user_meta[_user].verified = true;\r\n    }\r\n\r\n    function getUserMeta()\r\n        external\r\n        view\r\n        returns (UserMeta memory)\r\n    {\r\n        return userStorage().user_meta[msg.sender];\r\n    }\r\n\r\n    function getUserRole()\r\n        external\r\n        view\r\n        returns (string memory)\r\n    {\r\n        return userStorage().user_meta[msg.sender].role;\r\n    }\r\n\r\n    function getUserRoleByAddress(address _useraddress)\r\n        external\r\n        view\r\n        returns (string memory)\r\n    {\r\n        return userStorage().user_meta[_useraddress].role;\r\n    }\r\n\r\n    function hasRole(string memory role, address _useraddress)\r\n        external\r\n        view\r\n        returns (bool)\r\n    {\r\n        return (StringUtils.equal(userStorage().user_meta[_useraddress].role,role));\r\n    }\r\n\r\n    function grantRole(string memory role, address _useraddress)\r\n        external\r\n    {\r\n        require(userStorage().users[_useraddress] == 0,\"user already exists\");\r\n        userStorage().users[_useraddress] = 1;\r\n        userStorage()._users.push(_useraddress);\r\n        UserMeta memory meta = UserMeta(\"\", \"\", \"\", \"\", \"\", role, false,false);\r\n        userStorage().user_meta[_useraddress] = meta;\r\n    }\r\n\r\n    function revokeRole(string memory role, address _useraddress)\r\n        external\r\n    {\r\n        require(userStorage().users[_useraddress] != 0,\"user does not exists\");\r\n        require(StringUtils.equal(userStorage().user_meta[_useraddress].role, role),\"role does not match\");\r\n        delete userStorage().users[_useraddress];\r\n        delete userStorage().user_meta[_useraddress];\r\n        emit UserDeleted(_useraddress);\r\n    }\r\n\r\n    function renounceRole(string memory role, address _useraddress)\r\n        external\r\n    {\r\n        require(StringUtils.equal(userStorage().user_meta[_useraddress].role, role),\"role does not match\");\r\n        userStorage().user_meta[_useraddress].role = string(\"UNDEFINED_ROLE\");\r\n        emit UserBlocked(_useraddress);\r\n    }\r\n\r\n    function restoreRole(string memory role, address _useraddress)\r\n        external\r\n    {\r\n        require(StringUtils.equal(userStorage().user_meta[_useraddress].role, role),\"role does not match\");\r\n        userStorage().user_meta[_useraddress].role = role;\r\n        emit UserRoleRestored(_useraddress,role);\r\n    }\r\n\r\n    /**\r\n     * Required by the IRS for US-based wallets, when a notification is received from the IRS that a wallet address is\r\n     * subject to backup withholding?\r\n     */\r\n    function changeBackupWithholding(address _useraddress,bool backup_withholding)\r\n        external\r\n    {\r\n        userStorage().user_meta[_useraddress].backup_withholding = backup_withholding;\r\n    }\r\n\r\n    function isBackupWithholding(address _useraddress)\r\n        external\r\n        view\r\n        returns (bool)\r\n    {\r\n        return userStorage().user_meta[_useraddress].backup_withholding;\r\n    }\r\n}",
  "sourcePath": "/Volumes/HOME/pingleware-contracts/contracts/libs/User.sol",
  "compiler": {
    "name": "solc",
    "version": "0.8.18+commit.87f61d96.Emscripten.clang"
  },
  "schemaVersion": "3.4.12",
  "updatedAt": "2024-05-23T18:56:26.935Z",
  "devdoc": {
    "kind": "dev",
    "methods": {},
    "version": 1
  },
  "userdoc": {
    "kind": "user",
    "methods": {
      "changeBackupWithholding(address,bool)": {
        "notice": "Required by the IRS for US-based wallets, when a notification is received from the IRS that a wallet address is subject to backup withholding?"
      },
      "updateUserMeta(string,string,string,string,string,string)": {
        "notice": "interests is comma dellimited string, e.g. \"girls,technology,stage plays\" use keccak256 to convert a string role to bytes32"
      }
    },
    "version": 1
  }
}