{
  "contractName": "USSenate",
  "abi": [
    {
      "inputs": [],
      "stateMutability": "nonpayable",
      "type": "constructor"
    },
    {
      "anonymous": false,
      "inputs": [
        {
          "indexed": false,
          "internalType": "uint256",
          "name": "billId",
          "type": "uint256"
        },
        {
          "indexed": false,
          "internalType": "address",
          "name": "sponsor",
          "type": "address"
        },
        {
          "indexed": false,
          "internalType": "string",
          "name": "title",
          "type": "string"
        }
      ],
      "name": "BillIntroduced",
      "type": "event"
    },
    {
      "anonymous": false,
      "inputs": [
        {
          "indexed": false,
          "internalType": "uint256",
          "name": "billId",
          "type": "uint256"
        },
        {
          "indexed": false,
          "internalType": "enum USSenate.BillStatus",
          "name": "status",
          "type": "uint8"
        }
      ],
      "name": "BillStatusChange",
      "type": "event"
    },
    {
      "anonymous": false,
      "inputs": [
        {
          "indexed": false,
          "internalType": "uint256",
          "name": "nominationId",
          "type": "uint256"
        },
        {
          "indexed": false,
          "internalType": "enum USSenate.ConfirmationStatus",
          "name": "status",
          "type": "uint8"
        }
      ],
      "name": "NominationStatusChange",
      "type": "event"
    },
    {
      "anonymous": false,
      "inputs": [
        {
          "indexed": false,
          "internalType": "uint256",
          "name": "nominationId",
          "type": "uint256"
        },
        {
          "indexed": false,
          "internalType": "address",
          "name": "nominee",
          "type": "address"
        },
        {
          "indexed": false,
          "internalType": "string",
          "name": "position",
          "type": "string"
        }
      ],
      "name": "NominationSubmitted",
      "type": "event"
    },
    {
      "inputs": [],
      "name": "majorityLeader",
      "outputs": [
        {
          "internalType": "address",
          "name": "",
          "type": "address"
        }
      ],
      "stateMutability": "view",
      "type": "function",
      "constant": true
    },
    {
      "inputs": [
        {
          "internalType": "uint256",
          "name": "",
          "type": "uint256"
        }
      ],
      "name": "senators",
      "outputs": [
        {
          "internalType": "address",
          "name": "",
          "type": "address"
        }
      ],
      "stateMutability": "view",
      "type": "function",
      "constant": true
    },
    {
      "inputs": [
        {
          "internalType": "address",
          "name": "account",
          "type": "address"
        }
      ],
      "name": "isSenator",
      "outputs": [
        {
          "internalType": "bool",
          "name": "",
          "type": "bool"
        }
      ],
      "stateMutability": "view",
      "type": "function",
      "constant": true
    },
    {
      "inputs": [
        {
          "internalType": "address",
          "name": "newSenator",
          "type": "address"
        }
      ],
      "name": "addSenator",
      "outputs": [],
      "stateMutability": "nonpayable",
      "type": "function"
    },
    {
      "inputs": [
        {
          "internalType": "string",
          "name": "title",
          "type": "string"
        }
      ],
      "name": "introduceBill",
      "outputs": [],
      "stateMutability": "nonpayable",
      "type": "function"
    },
    {
      "inputs": [
        {
          "internalType": "uint256",
          "name": "billId",
          "type": "uint256"
        },
        {
          "internalType": "enum USSenate.BillStatus",
          "name": "status",
          "type": "uint8"
        }
      ],
      "name": "passBill",
      "outputs": [],
      "stateMutability": "nonpayable",
      "type": "function"
    },
    {
      "inputs": [
        {
          "internalType": "string",
          "name": "position",
          "type": "string"
        },
        {
          "internalType": "address",
          "name": "nominee",
          "type": "address"
        }
      ],
      "name": "submitNomination",
      "outputs": [],
      "stateMutability": "nonpayable",
      "type": "function"
    },
    {
      "inputs": [
        {
          "internalType": "uint256",
          "name": "nominationId",
          "type": "uint256"
        },
        {
          "internalType": "enum USSenate.ConfirmationStatus",
          "name": "status",
          "type": "uint8"
        }
      ],
      "name": "confirmNomination",
      "outputs": [],
      "stateMutability": "nonpayable",
      "type": "function"
    }
  ],
  "bytecode": "0x608060405234801561001057600080fd5b5060008054600160a060020a03199081163390811783556001805480820182559084527fb10e2d527612073b26eecdfd717e6a320cf44b4afac2b0732d9fcbe2b7fa0cf60180549092161790556004819055600555610ba8806100746000396000f3fe608060405234801561001057600080fd5b506004361061007b5760e060020a600035046346c28a088114610080578063490055c014610095578063518f77d0146100bd57806375d20cc5146100e85780637fe0d912146100fb578063856ebb061461010e578063ba3addc914610121578063d220dd4d14610134575b600080fd5b61009361008e36600461075f565b610147565b005b6100a86100a33660046107b7565b61026c565b60405190151581526020015b60405180910390f35b6000546100d090600160a060020a031681565b604051600160a060020a0390911681526020016100b4565b6100936100f63660046107b7565b6102d5565b6100936101093660046107e9565b610353565b6100d061011c366004610819565b610475565b61009361012f3660046107e9565b61049f565b610093610142366004610832565b6105ac565b6101503361026c565b6101785760405160e560020a62461bcd02815260040161016f9061087f565b60405180910390fd5b60048054906000610188836108c8565b909155505060408051608081018252600454815233602082015290810182905260608101600090526004546000908152600260208181526040928390208451815590840151600182018054600160a060020a031916600160a060020a039092169190911790559183015190820190610200908261099a565b50606082015160038201805460ff19166001836002811115610224576102246108f3565b02179055509050507f37857be678fc43a22c7cce89173b9ca3e4d048fd6c0fca4854aeec4a3a0e2f69600454338360405161026193929190610a5f565b60405180910390a150565b6000805b6001548110156102cc5782600160a060020a03166001828154811061029757610297610ac5565b600091825260209091200154600160a060020a0316036102ba5750600192915050565b806102c4816108c8565b915050610270565b50600092915050565b600054600160a060020a031633146103025760405160e560020a62461bcd02815260040161016f90610adf565b6001805480820182556000919091527fb10e2d527612073b26eecdfd717e6a320cf44b4afac2b0732d9fcbe2b7fa0cf6018054600160a060020a031916600160a060020a0392909216919091179055565b600054600160a060020a031633146103805760405160e560020a62461bcd02815260040161016f90610adf565b60008281526003602081905260408220015460ff1660028111156103a6576103a66108f3565b146104045760405160e560020a62461bcd02815260206004820152602260248201527f54686973206e6f6d696e6174696f6e2063616e6e6f74206265206368616e6765604482015260f160020a61321702606482015260840161016f565b600082815260036020819052604090912001805482919060ff19166001836002811115610433576104336108f3565b02179055507fe298e2722d969235bf155b93f035363f12489381ca1351402ce647fcd02bb3e48282604051610469929190610b55565b60405180910390a15050565b6001818154811061048557600080fd5b600091825260209091200154600160a060020a0316905081565b600054600160a060020a031633146104cc5760405160e560020a62461bcd02815260040161016f90610adf565b600082815260026020819052604082206003015460ff16908111156104f3576104f36108f3565b146105435760405160e560020a62461bcd02815260206004820152601c60248201527f546869732062696c6c2063616e6e6f74206265206368616e6765642e00000000604482015260640161016f565b60008281526002602081905260409091206003018054839260ff19909116906001908490811115610576576105766108f3565b02179055507fcb2f5d9b75374e2f47d0fb8fb90447b80c7e9a633b7272375579232228b1e6a48282604051610469929190610b55565b6105b53361026c565b6105d45760405160e560020a62461bcd02815260040161016f9061087f565b600580549060006105e4836108c8565b909155505060408051608081018252600554808252600160a060020a038481166020808501918252848601888152600060608701819052948552600390915294909220835181559151600183018054600160a060020a0319169190921617905591519091906002820190610658908261099a565b50606082015160038201805460ff1916600183600281111561067c5761067c6108f3565b02179055509050507f2d9b20d125dd3c824e785f40049fcb2e89e429c46b6a7888660271197e918851600554828460405161046993929190610a5f565b60e060020a634e487b710260009081526041600452602490fd5b600082601f8301126106e457600080fd5b81356001604060020a03808211156106fe576106fe6106b9565b604051601f8301601f19908116603f01168101908282118183101715610726576107266106b9565b8160405283815286602085880101111561073f57600080fd5b836020870160208301376000602085830101528094505050505092915050565b60006020828403121561077157600080fd5b81356001604060020a0381111561078757600080fd5b610793848285016106d3565b949350505050565b8035600160a060020a03811681146107b257600080fd5b919050565b6000602082840312156107c957600080fd5b6107d28261079b565b9392505050565b600381106107e657600080fd5b50565b600080604083850312156107fc57600080fd5b82359150602083013561080e816107d9565b809150509250929050565b60006020828403121561082b57600080fd5b5035919050565b6000806040838503121561084557600080fd5b82356001604060020a0381111561085b57600080fd5b610867858286016106d3565b9250506108766020840161079b565b90509250929050565b60208082526026908201527f4f6e6c792053656e61746f72732063616e20706572666f726d20746869732061604082015260d160020a6531ba34b7b71702606082015260800190565b6000600182016108ec5760e060020a634e487b710260009081526011600452602490fd5b5060010190565b60e060020a634e487b710260009081526021600452602490fd5b60028104600182168061092157607f821691505b6020821081036109455760e060020a634e487b710260009081526022600452602490fd5b50919050565b601f821115610995576000818152602081206020601f860104810160208610156109725750805b6020601f860104820191505b818110156109915782815560010161097e565b5050505b505050565b81516001604060020a038111156109b3576109b36106b9565b6109c7816109c1845461090d565b8461094b565b602080601f831160018114610a0057600084156109e45750858301515b60028086026008870290910a6000190419821617865550610991565b600085815260208120601f198616915b82811015610a2f57888601518255948401946001909101908401610a10565b5085821015610a4f57878501516008601f88160260020a60001904191681555b5050505050600202600101905550565b83815260006020600160a060020a0385168184015260606040840152835180606085015260005b81811015610aa257858101830151858201608001528201610a86565b506000608082860101526080601f19601f83011685010192505050949350505050565b60e060020a634e487b710260009081526032600452602490fd5b60208082526031908201527f4f6e6c7920746865204d616a6f72697479204c65616465722063616e207065726040820152607960020a703337b936903a3434b99030b1ba34b7b71702606082015260800190565b600381106107e65760e060020a634e487b710260009081526021600452602490fd5b82815260408101610b6583610b33565b826020830152939250505056fea2646970667358221220ff9a15f64cee80dde6a9eeda80e2514a72d431756e587f3026325a125935fb7a64736f6c63430008120033",
  "immutableReferences": {},
  "source": "// SPDX-License-Identifier: BSL-1.1\npragma solidity >=0.4.22 <0.9.0;\n\ncontract USSenate {\n    address public majorityLeader;\n    address[] public senators;\n\n    enum BillStatus { Introduced, Passed, Failed }\n    enum ConfirmationStatus { Pending, Confirmed, Rejected }\n\n    struct Bill {\n        uint256 billId;\n        address sponsor;\n        string title;\n        BillStatus status;\n    }\n\n    struct Nomination {\n        uint256 nominationId;\n        address nominee;\n        string position;\n        ConfirmationStatus status;\n    }\n\n    mapping(uint256 => Bill) private bills;\n    mapping(uint256 => Nomination) private nominations;\n    uint256 private billCounter;\n    uint256 private nominationCounter;\n\n    event BillIntroduced(uint256 billId, address sponsor, string title);\n    event BillStatusChange(uint256 billId, BillStatus status);\n    event NominationSubmitted(uint256 nominationId, address nominee, string position);\n    event NominationStatusChange(uint256 nominationId, ConfirmationStatus status);\n\n    modifier onlyMajorityLeader() {\n        require(msg.sender == majorityLeader, \"Only the Majority Leader can perform this action.\");\n        _;\n    }\n\n    modifier onlySenator() {\n        require(isSenator(msg.sender), \"Only Senators can perform this action.\");\n        _;\n    }\n\n    constructor() {\n        majorityLeader = msg.sender;\n        senators.push(msg.sender);\n        billCounter = 0;\n        nominationCounter = 0;\n    }\n\n    function isSenator(address account) public view returns (bool) {\n        for (uint256 i = 0; i < senators.length; i++) {\n            if (senators[i] == account) {\n                return true;\n            }\n        }\n        return false;\n    }\n\n    function addSenator(address newSenator) public onlyMajorityLeader {\n        senators.push(newSenator);\n    }\n\n    function introduceBill(string memory title) public virtual onlySenator {\n        billCounter++;\n        bills[billCounter] = Bill(billCounter, msg.sender, title, BillStatus.Introduced);\n        emit BillIntroduced(billCounter, msg.sender, title);\n    }\n\n    function passBill(uint256 billId, BillStatus status) public onlyMajorityLeader {\n        require(bills[billId].status == BillStatus.Introduced, \"This bill cannot be changed.\");\n        bills[billId].status = status;\n        emit BillStatusChange(billId, status);\n    }\n\n    function submitNomination(string memory position, address nominee) public onlySenator {\n        nominationCounter++;\n        nominations[nominationCounter] = Nomination(nominationCounter, nominee, position, ConfirmationStatus.Pending);\n        emit NominationSubmitted(nominationCounter, nominee, position);\n    }\n\n    function confirmNomination(uint256 nominationId, ConfirmationStatus status) public onlyMajorityLeader {\n        require(nominations[nominationId].status == ConfirmationStatus.Pending, \"This nomination cannot be changed.\");\n        nominations[nominationId].status = status;\n        emit NominationStatusChange(nominationId, status);\n    }\n}\n",
  "sourcePath": "/Volumes/My Book/projects/pingleware-contracts/contracts/government/federal/USSenate.sol",
  "compiler": {
    "name": "solc",
    "version": "0.8.18+commit.87f61d96.Emscripten.clang"
  },
  "schemaVersion": "3.4.12",
  "updatedAt": "2023-10-23T18:13:27.282Z",
  "networkType": "ethereum",
  "devdoc": {
    "kind": "dev",
    "methods": {},
    "version": 1
  },
  "userdoc": {
    "kind": "user",
    "methods": {},
    "version": 1
  }
}