{
  "contractName": "USSenate",
  "abi": [
    {
      "inputs": [],
      "stateMutability": "nonpayable",
      "type": "constructor"
    },
    {
      "anonymous": false,
      "inputs": [
        {
          "indexed": false,
          "internalType": "uint256",
          "name": "billId",
          "type": "uint256"
        },
        {
          "indexed": false,
          "internalType": "address",
          "name": "sponsor",
          "type": "address"
        },
        {
          "indexed": false,
          "internalType": "string",
          "name": "title",
          "type": "string"
        }
      ],
      "name": "BillIntroduced",
      "type": "event"
    },
    {
      "anonymous": false,
      "inputs": [
        {
          "indexed": false,
          "internalType": "uint256",
          "name": "billId",
          "type": "uint256"
        },
        {
          "indexed": false,
          "internalType": "enum USSenate.BillStatus",
          "name": "status",
          "type": "uint8"
        }
      ],
      "name": "BillStatusChange",
      "type": "event"
    },
    {
      "anonymous": false,
      "inputs": [
        {
          "indexed": false,
          "internalType": "uint256",
          "name": "nominationId",
          "type": "uint256"
        },
        {
          "indexed": false,
          "internalType": "enum USSenate.ConfirmationStatus",
          "name": "status",
          "type": "uint8"
        }
      ],
      "name": "NominationStatusChange",
      "type": "event"
    },
    {
      "anonymous": false,
      "inputs": [
        {
          "indexed": false,
          "internalType": "uint256",
          "name": "nominationId",
          "type": "uint256"
        },
        {
          "indexed": false,
          "internalType": "address",
          "name": "nominee",
          "type": "address"
        },
        {
          "indexed": false,
          "internalType": "string",
          "name": "position",
          "type": "string"
        }
      ],
      "name": "NominationSubmitted",
      "type": "event"
    },
    {
      "anonymous": false,
      "inputs": [
        {
          "indexed": false,
          "internalType": "string",
          "name": "certificate",
          "type": "string"
        }
      ],
      "name": "SenateCertificateSet",
      "type": "event"
    },
    {
      "inputs": [],
      "name": "majorityLeader",
      "outputs": [
        {
          "internalType": "address",
          "name": "",
          "type": "address"
        }
      ],
      "stateMutability": "view",
      "type": "function"
    },
    {
      "inputs": [
        {
          "internalType": "string",
          "name": "",
          "type": "string"
        }
      ],
      "name": "presidentElect",
      "outputs": [
        {
          "internalType": "string",
          "name": "",
          "type": "string"
        }
      ],
      "stateMutability": "view",
      "type": "function"
    },
    {
      "inputs": [
        {
          "internalType": "string",
          "name": "",
          "type": "string"
        }
      ],
      "name": "senateCertificate",
      "outputs": [
        {
          "internalType": "string",
          "name": "",
          "type": "string"
        }
      ],
      "stateMutability": "view",
      "type": "function"
    },
    {
      "inputs": [
        {
          "internalType": "uint256",
          "name": "",
          "type": "uint256"
        }
      ],
      "name": "senators",
      "outputs": [
        {
          "internalType": "address",
          "name": "",
          "type": "address"
        }
      ],
      "stateMutability": "view",
      "type": "function"
    },
    {
      "inputs": [
        {
          "internalType": "address",
          "name": "account",
          "type": "address"
        }
      ],
      "name": "isSenator",
      "outputs": [
        {
          "internalType": "bool",
          "name": "",
          "type": "bool"
        }
      ],
      "stateMutability": "view",
      "type": "function"
    },
    {
      "inputs": [
        {
          "internalType": "address",
          "name": "newSenator",
          "type": "address"
        }
      ],
      "name": "addSenator",
      "outputs": [],
      "stateMutability": "nonpayable",
      "type": "function"
    },
    {
      "inputs": [
        {
          "internalType": "string",
          "name": "title",
          "type": "string"
        }
      ],
      "name": "introduceBill",
      "outputs": [],
      "stateMutability": "nonpayable",
      "type": "function"
    },
    {
      "inputs": [
        {
          "internalType": "uint256",
          "name": "billId",
          "type": "uint256"
        },
        {
          "internalType": "enum USSenate.BillStatus",
          "name": "status",
          "type": "uint8"
        }
      ],
      "name": "passBill",
      "outputs": [],
      "stateMutability": "nonpayable",
      "type": "function"
    },
    {
      "inputs": [
        {
          "internalType": "string",
          "name": "position",
          "type": "string"
        },
        {
          "internalType": "address",
          "name": "nominee",
          "type": "address"
        }
      ],
      "name": "submitNomination",
      "outputs": [],
      "stateMutability": "nonpayable",
      "type": "function"
    },
    {
      "inputs": [
        {
          "internalType": "uint256",
          "name": "nominationId",
          "type": "uint256"
        },
        {
          "internalType": "enum USSenate.ConfirmationStatus",
          "name": "status",
          "type": "uint8"
        }
      ],
      "name": "confirmNomination",
      "outputs": [],
      "stateMutability": "nonpayable",
      "type": "function"
    },
    {
      "inputs": [
        {
          "internalType": "string",
          "name": "electionYear",
          "type": "string"
        },
        {
          "internalType": "string",
          "name": "name",
          "type": "string"
        }
      ],
      "name": "setPresidentElect",
      "outputs": [],
      "stateMutability": "nonpayable",
      "type": "function"
    },
    {
      "inputs": [
        {
          "internalType": "string",
          "name": "electionYear",
          "type": "string"
        },
        {
          "internalType": "string",
          "name": "certificate",
          "type": "string"
        }
      ],
      "name": "setSenateCertificate",
      "outputs": [],
      "stateMutability": "nonpayable",
      "type": "function"
    },
    {
      "inputs": [
        {
          "internalType": "string",
          "name": "electionYear",
          "type": "string"
        }
      ],
      "name": "getSenateCertificate",
      "outputs": [
        {
          "internalType": "string",
          "name": "",
          "type": "string"
        }
      ],
      "stateMutability": "view",
      "type": "function"
    }
  ],
  "bytecode": "0x608080604052346100de5760008054600160a060020a031990811633178255600154680100000000000000008110156100b157600181018060015581101561008457600183527fb10e2d527612073b26eecdfd717e6a320cf44b4afac2b0732d9fcbe2b7fa0cf601805490911633179055600481905560055561108290816100e48239f35b6024837f4e487b710000000000000000000000000000000000000000000000000000000081526032600452fd5b6024837f4e487b710000000000000000000000000000000000000000000000000000000081526041600452fd5b600080fdfe6040608081526004908136101561001557600080fd5b600060e060020a813504632c816fa68114610a3157806346c28a081461082e578063490055c0146107ff5780634a76fa39146105d1578063518f77d0146107d757806375d20cc51461074e5780637fe0d91214610667578063856ebb061461061c5780638dd617c2146105d1578063ba3addc9146104e1578063d220dd4d146102a1578063e7b96ce5146101285763f2d8afb0146100b257600080fd5b34610125576020366003190112610125578235906001604060020a03821161012557506100ff60206100ed6101219561010e94369101610c26565b81855193828580945193849201610cdd565b81016007815203019020610d3f565b9051918291602083526020830190610de4565b0390f35b80fd5b50903461029d5761013836610c81565b909161014f600160a060020a038554163314610ebb565b5182818094516101658160209788809601610cdd565b81016007815203019020918151916001604060020a0383116102875790829161018e8554610d00565b601f8111610237575b5081601f84116001146101d0575085926101c5575b5050816002029160080260020a60001904191617905580f35b0151905084806101ac565b8587528087209350601f1985169087905b82821061021f5750509160029391856001969410610204575b5050500201905580f35b01516008601f841602840a60001904191690558580806101fa565b806001869782949787015181550196019401906101e1565b909192508486528286208380601f87010482019281871061027d575b94601f87969594939295010401905b81811061026f5750610197565b878155859450600101610262565b9192508291610253565b60e060020a634e487b7102855260418652602485fd5b5080fd5b50903461029d578060031936011261029d576001604060020a039083358281116104dd576102d29036908601610c26565b9360243592600160a060020a0390818516908186036104d9576102fc6102f733610e67565b610f27565b610307600554610e3e565b928360055585519461031886610bce565b848652602091828701948552878701948b865260608801968b88528b5260038452888b2097518855600191828901915116600160a060020a03198254161790556002870194519182519485116104c357506103738554610d00565b601f811161047f575b5082601f85116001146103f9575050936103da93836103e897946003948c9d9860008051602061102d8339815191529d926103ee575b5050816002029160080260020a6000190419161790555b51916103d483610f88565b01610fac565b600554925193849384610fc4565b0390a180f35b0151905038806103b2565b91601f94939194198416868c52838c20938c905b8282106104685750508460008051602061102d8339815191529c9d98946103da98946103e89b98946003986002951061044d575b505050020190556103c9565b01516008601f841602840a6000190419169055388080610441565b80888697829497870151815501960194019061040d565b858b52838b208480601f8801048201928188106104b9575b601f0104019082905b8281106104ae57505061037c565b8c81550182906104a0565b9192508291610497565b60e060020a634e487b71028b526041905260248afd5b8680fd5b8380fd5b50903461029d578060031936011261029d5782356024359360038510156104dd57610517600160a060020a038554163314610ebb565b818452600260205260ff600384862001541661053281610f88565b61058857508293817fcb2f5d9b75374e2f47d0fb8fb90447b80c7e9a633b7272375579232228b1e6a49452600260205261057181600385882001610fac565b825191825261057f81610f88565b6020820152a180f35b825160e560020a62461bcd028152602091810191909152601c60248201527f546869732062696c6c2063616e6e6f74206265206368616e6765642e000000006044820152606490fd5b5034610125576020366003190112610125578235906001604060020a038211610125575061060d60206100ed6101219561010e94369101610c26565b81016006815203019020610d3f565b5091346106635760203660031901126106635735916001548310156101255750610647602092610e09565b90549151600890910260020a909104600160a060020a03168152f35b8280fd5b50903461029d578060031936011261029d5782356024359360038510156104dd5761069d600160a060020a038554163314610ebb565b818452600360205260ff60038486200154166106b881610f88565b6106f757508293817fe298e2722d969235bf155b93f035363f12489381ca1351402ce647fcd02bb3e49452600360205261057181600385882001610fac565b825160e560020a62461bcd028152602091810191909152602260248201527f54686973206e6f6d696e6174696f6e2063616e6e6f74206265206368616e6765604482015260f160020a613217026064820152608490fd5b50823461029d57602036600319011261029d57610769610cc7565b82549091600160a060020a03916107839083163314610ebb565b60015490604060020a8210156107c157508060016107a49201600155610e09565b909260088454920260020a80840293849216021691191617905580f35b60e060020a634e487b7102855260419052602484fd5b50903461029d578160031936011261029d5790549051600160a060020a039091168152602090f35b50903461029d57602036600319011261029d57602090610825610820610cc7565b610e67565b90519015158152f35b50903461029d5760209081600319360112610663576001604060020a03938035858111610a2d576108629036908301610c26565b9261086f6102f733610e67565b6108798254610e3e565b9081835583519661088988610bce565b8288523382890190815285890187815260608a018981529489526002808552878a209a518b5591516001808c018054600160a060020a031916600160a060020a039390931692909217909155905180518b84019590949092908511610a17576108f28654610d00565b601f81116109d3575b5082601f861160011461096a57505093838a9b946003946103e899989461095198600080516020610fed8339815191529e9361095f575b505082810292600802900a60001904191617905551916103d483610f88565b549151928392339084610fc4565b015191503880610932565b91601f95939195198416878d52838d20938d905b8282106109bc575050936109519793600080516020610fed8339815191529d9e979360039793836103e89d9c981061044d57505050020190556103c9565b80898697829497870151815501960194019061097e565b868c52838c208480601f890104820192818910610a0d575b601f0104019082905b828110610a025750506108fb565b8d81550182906109f4565b91925082916109eb565b60e060020a634e487b71028b526041885260248bfd5b8480fd5b50903461029d57610a4136610c81565b919093610a59600160a060020a038554163314610ebb565b81518581809751610a708160209a8b809601610cdd565b600690820190815203019020835190916001604060020a038211610bb85750610a998254610d00565b601f8111610b77575b5085601f8211600114610aff579181869794926103e89460008051602061100d8339815191529891610af4575b50816002029160080260020a6000190419161790555b51928284938452830190610de4565b905086015138610acf565b82865286862090601f198316875b818110610b605750836103e8959360019360008051602061100d8339815191529a9b989660029410610b45575b505002019055610ae5565b8901516008601f841602840a60001904191690553880610b3a565b91928960018192868b015181550194019201610b0d565b8286528686208780601f850104820192818510610bae575b601f010401905b818110610ba35750610aa2565b868155600101610b96565b9192508291610b8f565b60e060020a634e487b7102865260419052602485fd5b608081019081106001604060020a03821117610be957604052565b60e060020a634e487b710260009081526041600452602490fd5b601f909101601f19168101906001604060020a03821190821017610be957604052565b81601f82011215610c7c578035906001604060020a038211610be95760405192610c5a601f8401601f191660200185610c03565b82845260208383010111610c7c57816000926020809301838601378301015290565b600080fd5b906040600319830112610c7c576001604060020a03600435818111610c7c5783610cad91600401610c26565b92602435918211610c7c57610cc491600401610c26565b90565b60043590600160a060020a0382168203610c7c57565b60005b838110610cf05750506000910152565b8181015183820152602001610ce0565b9060016002830492168015610d35575b6020831014610d1b57565b60e060020a634e487b710260009081526022600452602490fd5b91607f1691610d10565b9060405191826000825492610d5384610d00565b908184526001948581169081600014610dc25750600114610d7f575b5050610d7d92500383610c03565b565b9093915060005260209081600020936000915b818310610daa575050610d7d93508201013880610d6f565b85548884018501529485019487945091830191610d92565b915050610d7d94506020925060ff191682840152151581028201013880610d6f565b90602091610dfd81518092818552858086019101610cdd565b601f01601f1916010190565b600154811015610e2457600160005260206000200190600090565b60e060020a634e487b710260009081526032600452602490fd5b6000198114610e4d5760010190565b60e060020a634e487b710260009081526011600452602490fd5b600180549160005b838110610e7f5750505050600090565b610e8881610e09565b9054600160a060020a03848116600890930260020a9091041614610eb457610eaf90610e3e565b610e6f565b5050905090565b15610ec257565b60405160e560020a62461bcd02815260206004820152603160248201527f4f6e6c7920746865204d616a6f72697479204c65616465722063616e207065726044820152607960020a703337b936903a3434b99030b1ba34b7b717026064820152608490fd5b15610f2e57565b60405160e560020a62461bcd02815260206004820152602660248201527f4f6e6c792053656e61746f72732063616e20706572666f726d20746869732061604482015260d160020a6531ba34b7b717026064820152608490fd5b60031115610f9257565b60e060020a634e487b710260009081526021600452602490fd5b90610fb681610f88565b60ff80198354169116179055565b908152600160a060020a039091166020820152606060408201819052610cc492910190610de456fe37857be678fc43a22c7cce89173b9ca3e4d048fd6c0fca4854aeec4a3a0e2f69e0dfd32aa38693fbb4526b44a3308a677f1e4fb9cd946ac68c42c5e2d59876fa2d9b20d125dd3c824e785f40049fcb2e89e429c46b6a7888660271197e918851a2646970667358221220dd12c2811f734a1f030d75d896366361229e4c85b0d78e30afc3aee654962d9664736f6c63430008120033",
  "immutableReferences": {},
  "source": "// SPDX-License-Identifier: BSL-1.1\npragma solidity >=0.4.22 <0.9.0;\n\ncontract USSenate {\n    address public majorityLeader;\n    address[] public senators;\n\n    enum BillStatus { Introduced, Passed, Failed }\n    enum ConfirmationStatus { Pending, Confirmed, Rejected }\n\n    struct Bill {\n        uint256 billId;\n        address sponsor;\n        string title;\n        BillStatus status;\n    }\n\n    struct Nomination {\n        uint256 nominationId;\n        address nominee;\n        string position;\n        ConfirmationStatus status;\n    }\n\n    mapping(uint256 => Bill) private bills;\n    mapping(uint256 => Nomination) private nominations;\n    uint256 private billCounter;\n    uint256 private nominationCounter;\n\n    mapping(string => string) public senateCertificate;\n    mapping(string => string) public presidentElect;\n\n    event BillIntroduced(uint256 billId, address sponsor, string title);\n    event BillStatusChange(uint256 billId, BillStatus status);\n    event NominationSubmitted(uint256 nominationId, address nominee, string position);\n    event NominationStatusChange(uint256 nominationId, ConfirmationStatus status);\n    event SenateCertificateSet(string certificate);\n\n    modifier onlyMajorityLeader() {\n        require(msg.sender == majorityLeader, \"Only the Majority Leader can perform this action.\");\n        _;\n    }\n\n    modifier onlySenator() {\n        require(isSenator(msg.sender), \"Only Senators can perform this action.\");\n        _;\n    }\n\n    constructor() {\n        majorityLeader = msg.sender;\n        senators.push(msg.sender);\n        billCounter = 0;\n        nominationCounter = 0;\n    }\n\n    function isSenator(address account) public view returns (bool) {\n        for (uint256 i = 0; i < senators.length; i++) {\n            if (senators[i] == account) {\n                return true;\n            }\n        }\n        return false;\n    }\n\n    function addSenator(address newSenator) public onlyMajorityLeader {\n        senators.push(newSenator);\n    }\n\n    function introduceBill(string memory title) public virtual onlySenator {\n        billCounter++;\n        bills[billCounter] = Bill(billCounter, msg.sender, title, BillStatus.Introduced);\n        emit BillIntroduced(billCounter, msg.sender, title);\n    }\n\n    function passBill(uint256 billId, BillStatus status) public onlyMajorityLeader {\n        require(bills[billId].status == BillStatus.Introduced, \"This bill cannot be changed.\");\n        bills[billId].status = status;\n        emit BillStatusChange(billId, status);\n    }\n\n    function submitNomination(string memory position, address nominee) public onlySenator {\n        nominationCounter++;\n        nominations[nominationCounter] = Nomination(nominationCounter, nominee, position, ConfirmationStatus.Pending);\n        emit NominationSubmitted(nominationCounter, nominee, position);\n    }\n\n    function confirmNomination(uint256 nominationId, ConfirmationStatus status) public onlyMajorityLeader {\n        require(nominations[nominationId].status == ConfirmationStatus.Pending, \"This nomination cannot be changed.\");\n        nominations[nominationId].status = status;\n        emit NominationStatusChange(nominationId, status);\n    }\n\n    function setPresidentElect(string memory electionYear,string memory name) public onlyMajorityLeader {\n        presidentElect[electionYear] = name;\n    }\n\n    // Only the owner (presumably a trusted authority) can set the Senate certificate\n    function setSenateCertificate(string memory electionYear, string memory certificate) public onlyMajorityLeader {\n        senateCertificate[electionYear] = certificate;\n        emit SenateCertificateSet(certificate);\n    }\n\n    function getSenateCertificate(string memory electionYear) public view returns (string memory) {\n        return senateCertificate[electionYear];\n    }\n}\n",
  "sourcePath": "/Volumes/HOME/pingleware-contracts/contracts/government/federal/USSenate.sol",
  "compiler": {
    "name": "solc",
    "version": "0.8.18+commit.87f61d96.Emscripten.clang"
  },
  "schemaVersion": "3.4.12",
  "updatedAt": "2024-05-23T18:56:26.218Z",
  "devdoc": {
    "kind": "dev",
    "methods": {},
    "version": 1
  },
  "userdoc": {
    "kind": "user",
    "methods": {},
    "version": 1
  }
}