{
  "contractName": "Version",
  "abi": [
    {
      "inputs": [],
      "name": "VERSION",
      "outputs": [
        {
          "internalType": "string",
          "name": "",
          "type": "string"
        }
      ],
      "stateMutability": "view",
      "type": "function"
    }
  ],
  "bytecode": "0x608060405234801561001057600080fd5b5060f18061001f6000396000f3fe6080604052348015600f57600080fd5b5060043610602b5760e060020a6000350463ffa1ad7481146030575b600080fd5b605b6040518060400160405280600a815260200160b060020a69312e362e342d626574610281525081565b60405160669190606f565b60405180910390f35b600060208083528351808285015260005b81811015609a578581018301518582016040015282016080565b506000604082860101526040601f19601f830116850101925050509291505056fea26469706673582212205b49b00fe101b13597b07afdf000be3b72ca01cdf718ebc4f8daaa9b208286a364736f6c63430008120033",
  "immutableReferences": {},
  "source": "// SPDX-License-Identifier: CC-BY-4.0\r\npragma solidity >=0.4.22 <0.9.0;\r\n\r\ncontract Version {\r\n    string public constant VERSION = \"1.6.4-beta\";\r\n}\r\n",
  "sourcePath": "/Volumes/My Book/projects/pingleware-contracts/contracts/common/Version.sol",
  "compiler": {
    "name": "solc",
    "version": "0.8.18+commit.87f61d96.Emscripten.clang"
  },
  "schemaVersion": "3.4.12",
  "updatedAt": "2023-10-22T04:05:44.129Z",
  "devdoc": {
    "kind": "dev",
    "methods": {},
    "version": 1
  },
  "userdoc": {
    "kind": "user",
    "methods": {},
    "version": 1
  }
}