{
  "contractName": "Version",
  "abi": [
    {
      "inputs": [],
      "name": "VERSION",
      "outputs": [
        {
          "internalType": "string",
          "name": "",
          "type": "string"
        }
      ],
      "stateMutability": "view",
      "type": "function"
    }
  ],
  "bytecode": "0x608080604052346100155760ff908161001b8239f35b600080fdfe60806004361015600e57600080fd5b60009063ffa1ad7460e060020a83350414602757600080fd5b3460c5578160031936011260c5576040908082016001604060020a0381118282101760ae578252600a815260209060b060020a69312e362e342d62657461028282015282519382859384528251928382860152825b848110609957505050828201840152601f01601f19168101030190f35b8181018301518882018801528795508201607c565b60e060020a634e487b710284526041600452602484fd5b5080fdfea2646970667358221220b055f147da52e03fcb9b6004af6b9ca985a7d7a8a922e455d8c3c391b4426ed764736f6c63430008120033",
  "immutableReferences": {},
  "source": "// SPDX-License-Identifier: CC-BY-4.0\r\npragma solidity >=0.4.22 <0.9.0;\r\n\r\ncontract Version {\r\n    string public constant VERSION = \"1.6.4-beta\";\r\n}\r\n",
  "sourcePath": "/Volumes/HOME/pingleware-contracts/contracts/common/Version.sol",
  "compiler": {
    "name": "solc",
    "version": "0.8.18+commit.87f61d96.Emscripten.clang"
  },
  "schemaVersion": "3.4.12",
  "updatedAt": "2024-05-23T18:56:25.002Z",
  "devdoc": {
    "kind": "dev",
    "methods": {},
    "version": 1
  },
  "userdoc": {
    "kind": "user",
    "methods": {},
    "version": 1
  }
}