{
  "contractName": "Whitelistable",
  "abi": [
    {
      "inputs": [],
      "stateMutability": "nonpayable",
      "type": "constructor"
    },
    {
      "anonymous": false,
      "inputs": [
        {
          "indexed": true,
          "internalType": "address",
          "name": "AuthorizedBy",
          "type": "address"
        },
        {
          "indexed": true,
          "internalType": "address",
          "name": "AddressAdded",
          "type": "address"
        }
      ],
      "name": "AddressAddedToWhitelist",
      "type": "event"
    },
    {
      "anonymous": false,
      "inputs": [
        {
          "indexed": true,
          "internalType": "address",
          "name": "AuthorizedBy",
          "type": "address"
        },
        {
          "indexed": true,
          "internalType": "address",
          "name": "AddressRemoved",
          "type": "address"
        }
      ],
      "name": "AddressRemovedFromWhitelist",
      "type": "event"
    },
    {
      "anonymous": false,
      "inputs": [
        {
          "indexed": false,
          "internalType": "address",
          "name": "sender",
          "type": "address"
        },
        {
          "indexed": false,
          "internalType": "uint256",
          "name": "amount",
          "type": "uint256"
        }
      ],
      "name": "FallbackEvent",
      "type": "event"
    },
    {
      "anonymous": false,
      "inputs": [
        {
          "indexed": true,
          "internalType": "address",
          "name": "previousOwner",
          "type": "address"
        },
        {
          "indexed": true,
          "internalType": "address",
          "name": "newOwner",
          "type": "address"
        }
      ],
      "name": "OwnershipTransferred",
      "type": "event"
    },
    {
      "anonymous": false,
      "inputs": [
        {
          "indexed": false,
          "internalType": "address",
          "name": "sender",
          "type": "address"
        },
        {
          "indexed": false,
          "internalType": "uint256",
          "name": "amount",
          "type": "uint256"
        }
      ],
      "name": "ReceiveEvent",
      "type": "event"
    },
    {
      "stateMutability": "payable",
      "type": "fallback"
    },
    {
      "inputs": [],
      "name": "VERSION",
      "outputs": [
        {
          "internalType": "string",
          "name": "",
          "type": "string"
        }
      ],
      "stateMutability": "view",
      "type": "function"
    },
    {
      "inputs": [],
      "name": "WAIT",
      "outputs": [
        {
          "internalType": "uint256",
          "name": "",
          "type": "uint256"
        }
      ],
      "stateMutability": "view",
      "type": "function"
    },
    {
      "inputs": [],
      "name": "getOwner",
      "outputs": [
        {
          "internalType": "address",
          "name": "",
          "type": "address"
        }
      ],
      "stateMutability": "payable",
      "type": "function"
    },
    {
      "inputs": [],
      "name": "renounceOwnership",
      "outputs": [],
      "stateMutability": "payable",
      "type": "function"
    },
    {
      "inputs": [
        {
          "internalType": "address",
          "name": "newOwner",
          "type": "address"
        }
      ],
      "name": "transferOwnership",
      "outputs": [],
      "stateMutability": "payable",
      "type": "function"
    },
    {
      "inputs": [
        {
          "internalType": "address",
          "name": "",
          "type": "address"
        }
      ],
      "name": "whitelist",
      "outputs": [
        {
          "internalType": "bool",
          "name": "",
          "type": "bool"
        }
      ],
      "stateMutability": "view",
      "type": "function"
    },
    {
      "stateMutability": "payable",
      "type": "receive"
    },
    {
      "inputs": [
        {
          "internalType": "address",
          "name": "_address",
          "type": "address"
        }
      ],
      "name": "isWhitelisted",
      "outputs": [
        {
          "internalType": "bool",
          "name": "",
          "type": "bool"
        }
      ],
      "stateMutability": "view",
      "type": "function"
    },
    {
      "inputs": [
        {
          "internalType": "address",
          "name": "_address",
          "type": "address"
        }
      ],
      "name": "addAddressToWhitelist",
      "outputs": [],
      "stateMutability": "nonpayable",
      "type": "function"
    },
    {
      "inputs": [
        {
          "internalType": "address",
          "name": "_address",
          "type": "address"
        }
      ],
      "name": "removeAddressFromWhitelist",
      "outputs": [],
      "stateMutability": "nonpayable",
      "type": "function"
    }
  ],
  "bytecode": "0x608080604052346100535760008054600160a060020a03191633908117825542600155907f8be0079c531659141344cd1fd0a4f28419497f9722a3daafe3b4186f6b6457e08180a36105f590816100598239f35b600080fdfe6040608081526004803610156100c4575b361561009557333203610051577f26875833861a2b006512a11f1b86edf95df96131040f3caeed72989ee985808382518061004c3433836104e9565b0390a1005b6020606492519160e560020a62461bcd02835282015260196024820152603860020a787068697368696e672061747461636b2064657465637465643f026044820152fd5b7fcc85d09d309785db93d6df19917f2e6cc07fe27cd01c08c8279145deb5cf452682518061004c3433836104e9565b600060e060020a81350463286dd3f5811461042a5780633af32abf146102c2578063715018a6146103e55780637b9417c814610365578063893d20e8146103025780639b19251a146102c2578063b8fb3a51146102a2578063f2fde38b146101e05763ffa1ad74146101365750610010565b9190346101dc57826003193601126101dc57815190818301906001604060020a038211838310176101c657508252600a815260209060b060020a69312e362e342d62657461028282015282519382859384528251928382860152825b8481106101b057505050828201840152601f01601f19168101030190f35b8181018301518882018801528795508201610192565b60e060020a634e487b7102855260419052602484fd5b8280fd5b50919060203660031901126101dc57600160a060020a0381358181169391929084900361029e57845492831691610218833314610504565b841561024457505082906000805160206105a08339815191528580a3600160a060020a03191617815580f35b5160e560020a62461bcd028152602091810191909152602660248201527f4f776e61626c653a206e6577206f776e657220697320746865207a65726f2061604482015260d060020a65646472657373026064820152608490fd5b8480fd5b5082346102be57816003193601126102be5760209051601e8152f35b5080fd5b509190346101dc5760203660031901126101dc5735600160a060020a038116908190036101dc57818360ff92602095526003855220541690519015158152f35b508083916003193601126103625760015492601e840180941161034c57506103366020934211610331816104a4565b6104a4565b42600155549051600160a060020a039091168152f35b60e060020a634e487b7102825260119052602490fd5b80fd5b509190346101dc5760203660031901126101dc5735600160a060020a0381811692918390036103e15761039c908454163314610550565b81835260036020528220805460ff81166103e15760ff19166001179055337f94d300f0803cc0af9991569051574a3dafd674f3b8d03f81c5ac017d5293afa68380a380f35b8380fd5b508060031936011261036257805481600160a060020a038216610409338214610504565b6000805160206105a08339815191528280a3600160a060020a031916815580f35b509190346101dc5760203660031901126101dc5735600160a060020a0381811692918390036103e157610461908454163314610550565b81835260036020528220805460ff8116156103e15760ff19169055337f5a76ef3d09a09d8a99c3d9ddddfb7770d906de670d79b5119a8c2cba903814bb8380a380f35b156104ab57565b60405160e560020a62461bcd0281526020600482015260106024820152608160020a6f3930ba32903634b6b4ba1032b93937b9026044820152606490fd5b600160a060020a039091168152602081019190915260400190565b1561050b57565b60405160e560020a62461bcd0281526020600482015260176024820152604960020a7630b1b1b2b9b9903232b734b2b2103337b91037bbb732b9026044820152606490fd5b1561055757565b60405160e560020a62461bcd02815260206004820152601b60248201527f756e617574686f72697a65642c206e6f7420746865206f776e657200000000006044820152606490fdfe8be0079c531659141344cd1fd0a4f28419497f9722a3daafe3b4186f6b6457e0a26469706673582212202e9bdf7b09bddd48e30e8adcf2bc8cf143fa1568316095a32c1829cc24b70fc064736f6c63430008120033",
  "immutableReferences": {},
  "source": "// SPDX-License-Identifier: CC-BY-4.0\r\npragma solidity >=0.4.22 <0.9.0;\r\n\r\nimport \"./Version.sol\";\r\nimport \"./Owned.sol\";\r\n\r\ncontract Whitelistable is Version, Owned {\r\n    mapping (address => bool) public whitelist;\r\n    \r\n    event AddressAddedToWhitelist(address indexed AuthorizedBy, address indexed AddressAdded);\r\n    event AddressRemovedFromWhitelist(address indexed AuthorizedBy, address indexed AddressRemoved);\r\n\r\n\r\n    constructor() {\r\n    }\r\n    \r\n    function isWhitelisted(address _address) public view returns(bool){ // function to check if address is whitelisted\r\n        return whitelist[_address];\r\n    }\r\n\r\n    function addAddressToWhitelist(address _address) okOwner public{ // add an address to the authorized mapping\r\n        require(!isWhitelisted(_address));\r\n        whitelist[_address] = true;\r\n        emit AddressAddedToWhitelist(msg.sender, _address);\r\n    }\r\n\r\n    function removeAddressFromWhitelist(address _address) okOwner public{\r\n        require(isWhitelisted(_address)); // check if address is whitelisted\r\n        whitelist[_address] = false;\r\n        emit AddressRemovedFromWhitelist(msg.sender, _address);\r\n    }\r\n}",
  "sourcePath": "/Volumes/HOME/pingleware-contracts/contracts/common/Whitelistable.sol",
  "compiler": {
    "name": "solc",
    "version": "0.8.18+commit.87f61d96.Emscripten.clang"
  },
  "schemaVersion": "3.4.12",
  "updatedAt": "2024-05-23T18:56:25.005Z",
  "devdoc": {
    "kind": "dev",
    "methods": {
      "renounceOwnership()": {
        "details": "Leaves the contract without owner. It will not be possible to call `onlyOwner` functions anymore. Can only be called by the current owner. NOTE: Renouncing ownership will leave the contract without an owner, thereby removing any functionality that is only available to the owner."
      },
      "transferOwnership(address)": {
        "details": "Transfers ownership of the contract to a new account (`newOwner`). Can only be called by the current owner."
      }
    },
    "version": 1
  },
  "userdoc": {
    "kind": "user",
    "methods": {},
    "version": 1
  }
}