{
  "contractName": "Whitelistable",
  "abi": [
    {
      "inputs": [],
      "stateMutability": "nonpayable",
      "type": "constructor"
    },
    {
      "anonymous": false,
      "inputs": [
        {
          "indexed": true,
          "internalType": "address",
          "name": "AuthorizedBy",
          "type": "address"
        },
        {
          "indexed": true,
          "internalType": "address",
          "name": "AddressAdded",
          "type": "address"
        }
      ],
      "name": "AddressAddedToWhitelist",
      "type": "event"
    },
    {
      "anonymous": false,
      "inputs": [
        {
          "indexed": true,
          "internalType": "address",
          "name": "AuthorizedBy",
          "type": "address"
        },
        {
          "indexed": true,
          "internalType": "address",
          "name": "AddressRemoved",
          "type": "address"
        }
      ],
      "name": "AddressRemovedFromWhitelist",
      "type": "event"
    },
    {
      "anonymous": false,
      "inputs": [
        {
          "indexed": false,
          "internalType": "address",
          "name": "sender",
          "type": "address"
        },
        {
          "indexed": false,
          "internalType": "uint256",
          "name": "amount",
          "type": "uint256"
        }
      ],
      "name": "FallbackEvent",
      "type": "event"
    },
    {
      "anonymous": false,
      "inputs": [
        {
          "indexed": true,
          "internalType": "address",
          "name": "previousOwner",
          "type": "address"
        },
        {
          "indexed": true,
          "internalType": "address",
          "name": "newOwner",
          "type": "address"
        }
      ],
      "name": "OwnershipTransferred",
      "type": "event"
    },
    {
      "anonymous": false,
      "inputs": [
        {
          "indexed": false,
          "internalType": "address",
          "name": "sender",
          "type": "address"
        },
        {
          "indexed": false,
          "internalType": "uint256",
          "name": "amount",
          "type": "uint256"
        }
      ],
      "name": "ReceiveEvent",
      "type": "event"
    },
    {
      "stateMutability": "payable",
      "type": "fallback"
    },
    {
      "inputs": [],
      "name": "VERSION",
      "outputs": [
        {
          "internalType": "string",
          "name": "",
          "type": "string"
        }
      ],
      "stateMutability": "view",
      "type": "function"
    },
    {
      "inputs": [],
      "name": "WAIT",
      "outputs": [
        {
          "internalType": "uint256",
          "name": "",
          "type": "uint256"
        }
      ],
      "stateMutability": "view",
      "type": "function"
    },
    {
      "inputs": [],
      "name": "getOwner",
      "outputs": [
        {
          "internalType": "address",
          "name": "",
          "type": "address"
        }
      ],
      "stateMutability": "payable",
      "type": "function"
    },
    {
      "inputs": [],
      "name": "renounceOwnership",
      "outputs": [],
      "stateMutability": "payable",
      "type": "function"
    },
    {
      "inputs": [
        {
          "internalType": "address",
          "name": "newOwner",
          "type": "address"
        }
      ],
      "name": "transferOwnership",
      "outputs": [],
      "stateMutability": "payable",
      "type": "function"
    },
    {
      "inputs": [
        {
          "internalType": "address",
          "name": "",
          "type": "address"
        }
      ],
      "name": "whitelist",
      "outputs": [
        {
          "internalType": "bool",
          "name": "",
          "type": "bool"
        }
      ],
      "stateMutability": "view",
      "type": "function"
    },
    {
      "stateMutability": "payable",
      "type": "receive"
    },
    {
      "inputs": [
        {
          "internalType": "address",
          "name": "_address",
          "type": "address"
        }
      ],
      "name": "isWhitelisted",
      "outputs": [
        {
          "internalType": "bool",
          "name": "",
          "type": "bool"
        }
      ],
      "stateMutability": "view",
      "type": "function"
    },
    {
      "inputs": [
        {
          "internalType": "address",
          "name": "_address",
          "type": "address"
        }
      ],
      "name": "addAddressToWhitelist",
      "outputs": [],
      "stateMutability": "nonpayable",
      "type": "function"
    },
    {
      "inputs": [
        {
          "internalType": "address",
          "name": "_address",
          "type": "address"
        }
      ],
      "name": "removeAddressFromWhitelist",
      "outputs": [],
      "stateMutability": "nonpayable",
      "type": "function"
    }
  ],
  "bytecode": "0x6080604052600060015534801561001557600080fd5b5060008054600160a060020a031916339081178255426001556040519091907f8be0079c531659141344cd1fd0a4f28419497f9722a3daafe3b4186f6b6457e0908290a361072f806100686000396000f3fe60806040526004361061007d5760e060020a6000350463286dd3f581146101445780633af32abf14610166578063715018a61461019b5780637b9417c8146101a3578063893d20e8146101c35780639b19251a146101e3578063b8fb3a5114610213578063f2fde38b14610236578063ffa1ad7414610249576100bd565b366100bd577fcc85d09d309785db93d6df19917f2e6cc07fe27cd01c08c8279145deb5cf452633346040516100b392919061057f565b60405180910390a1005b3233146101135760405160e560020a62461bcd0281526020600482015260196024820152603860020a787068697368696e672061747461636b2064657465637465643f0260448201526064015b60405180910390fd5b7f26875833861a2b006512a11f1b86edf95df96131040f3caeed72989ee985808333346040516100b392919061057f565b34801561015057600080fd5b5061016461015f366004610598565b61028f565b005b34801561017257600080fd5b50610186610181366004610598565b610318565b60405190151581526020015b60405180910390f35b610164610336565b3480156101af57600080fd5b506101646101be366004610598565b61039b565b6101cb610428565b604051600160a060020a039091168152602001610192565b3480156101ef57600080fd5b506101866101fe366004610598565b60036020526000908152604090205460ff1681565b34801561021f57600080fd5b50610228601e81565b604051908152602001610192565b610164610244366004610598565b61049e565b34801561025557600080fd5b506102826040518060400160405280600a815260200160b060020a69312e362e342d626574610281525081565b60405161019291906105c8565b600054600160a060020a031633146102bc5760405160e560020a62461bcd02815260040161010a90610616565b6102c581610318565b6102ce57600080fd5b600160a060020a038116600081815260036020526040808220805460ff191690555133917f5a76ef3d09a09d8a99c3d9ddddfb7770d906de670d79b5119a8c2cba903814bb91a350565b600160a060020a031660009081526003602052604090205460ff1690565b600054600160a060020a031633146103635760405160e560020a62461bcd02815260040161010a9061064d565b60008054604051600160a060020a03909116906000805160206106da833981519152908390a360008054600160a060020a0319169055565b600054600160a060020a031633146103c85760405160e560020a62461bcd02815260040161010a90610616565b6103d181610318565b156103db57600080fd5b600160a060020a038116600081815260036020526040808220805460ff191660011790555133917f94d300f0803cc0af9991569051574a3dafd674f3b8d03f81c5ac017d5293afa691a350565b6000601e6001546104399190610681565b421161045a5760405160e560020a62461bcd02815260040161010a906106ac565b601e6001546104699190610681565b421161048a5760405160e560020a62461bcd02815260040161010a906106ac565b5042600155600054600160a060020a031690565b600054600160a060020a031633146104cb5760405160e560020a62461bcd02815260040161010a9061064d565b600160a060020a0381166105365760405160e560020a62461bcd02815260206004820152602660248201527f4f776e61626c653a206e6577206f776e657220697320746865207a65726f2061604482015260d060020a6564647265737302606482015260840161010a565b60008054604051600160a060020a03808516939216916000805160206106da83398151915291a360008054600160a060020a031916600160a060020a0392909216919091179055565b600160a060020a03929092168252602082015260400190565b6000602082840312156105aa57600080fd5b8135600160a060020a03811681146105c157600080fd5b9392505050565b600060208083528351808285015260005b818110156105f5578581018301518582016040015282016105d9565b506000604082860101526040601f19601f8301168501019250505092915050565b6020808252601b908201527f756e617574686f72697a65642c206e6f7420746865206f776e65720000000000604082015260600190565b6020808252601790820152604960020a7630b1b1b2b9b9903232b734b2b2103337b91037bbb732b902604082015260600190565b808201808211156106a65760e060020a634e487b710260009081526011600452602490fd5b92915050565b6020808252601090820152608160020a6f3930ba32903634b6b4ba1032b93937b90260408201526060019056fe8be0079c531659141344cd1fd0a4f28419497f9722a3daafe3b4186f6b6457e0a26469706673582212204721f6ebe0a843e2fbe8c50c13b75d7d36edc36c5f6574029fe081d9c7da901564736f6c63430008120033",
  "immutableReferences": {},
  "source": "// SPDX-License-Identifier: CC-BY-4.0\r\npragma solidity >=0.4.22 <0.9.0;\r\n\r\nimport \"./Version.sol\";\r\nimport \"./Owned.sol\";\r\n\r\ncontract Whitelistable is Version, Owned {\r\n    mapping (address => bool) public whitelist;\r\n    \r\n    event AddressAddedToWhitelist(address indexed AuthorizedBy, address indexed AddressAdded);\r\n    event AddressRemovedFromWhitelist(address indexed AuthorizedBy, address indexed AddressRemoved);\r\n\r\n\r\n    constructor() {\r\n    }\r\n    \r\n    function isWhitelisted(address _address) public view returns(bool){ // function to check if address is whitelisted\r\n        return whitelist[_address];\r\n    }\r\n\r\n    function addAddressToWhitelist(address _address) okOwner public{ // add an address to the authorized mapping\r\n        require(!isWhitelisted(_address));\r\n        whitelist[_address] = true;\r\n        emit AddressAddedToWhitelist(msg.sender, _address);\r\n    }\r\n\r\n    function removeAddressFromWhitelist(address _address) okOwner public{\r\n        require(isWhitelisted(_address)); // check if address is whitelisted\r\n        whitelist[_address] = false;\r\n        emit AddressRemovedFromWhitelist(msg.sender, _address);\r\n    }\r\n}",
  "sourcePath": "/Volumes/My Book/projects/pingleware-contracts/contracts/common/Whitelistable.sol",
  "compiler": {
    "name": "solc",
    "version": "0.8.18+commit.87f61d96.Emscripten.clang"
  },
  "schemaVersion": "3.4.12",
  "updatedAt": "2023-10-22T14:23:00.822Z",
  "devdoc": {
    "kind": "dev",
    "methods": {
      "renounceOwnership()": {
        "details": "Leaves the contract without owner. It will not be possible to call `onlyOwner` functions anymore. Can only be called by the current owner. NOTE: Renouncing ownership will leave the contract without an owner, thereby removing any functionality that is only available to the owner."
      },
      "transferOwnership(address)": {
        "details": "Transfers ownership of the contract to a new account (`newOwner`). Can only be called by the current owner."
      }
    },
    "version": 1
  },
  "userdoc": {
    "kind": "user",
    "methods": {},
    "version": 1
  }
}