{
  "contractName": "WyomingDAO",
  "abi": [
    {
      "inputs": [
        {
          "internalType": "string",
          "name": "_name",
          "type": "string"
        }
      ],
      "stateMutability": "nonpayable",
      "type": "constructor"
    },
    {
      "anonymous": false,
      "inputs": [
        {
          "indexed": false,
          "internalType": "address",
          "name": "member",
          "type": "address"
        },
        {
          "indexed": false,
          "internalType": "uint256",
          "name": "shares",
          "type": "uint256"
        }
      ],
      "name": "MemberAdded",
      "type": "event"
    },
    {
      "anonymous": false,
      "inputs": [
        {
          "indexed": false,
          "internalType": "address",
          "name": "member",
          "type": "address"
        }
      ],
      "name": "MemberRemoved",
      "type": "event"
    },
    {
      "anonymous": false,
      "inputs": [
        {
          "indexed": false,
          "internalType": "uint256",
          "name": "proposalId",
          "type": "uint256"
        },
        {
          "indexed": false,
          "internalType": "string",
          "name": "description",
          "type": "string"
        }
      ],
      "name": "ProposalCreated",
      "type": "event"
    },
    {
      "anonymous": false,
      "inputs": [
        {
          "indexed": false,
          "internalType": "address",
          "name": "member",
          "type": "address"
        },
        {
          "indexed": false,
          "internalType": "uint256",
          "name": "proposalId",
          "type": "uint256"
        },
        {
          "indexed": false,
          "internalType": "bool",
          "name": "vote",
          "type": "bool"
        }
      ],
      "name": "VoteCasted",
      "type": "event"
    },
    {
      "inputs": [
        {
          "internalType": "address",
          "name": "",
          "type": "address"
        }
      ],
      "name": "memberShares",
      "outputs": [
        {
          "internalType": "uint256",
          "name": "",
          "type": "uint256"
        }
      ],
      "stateMutability": "view",
      "type": "function",
      "constant": true
    },
    {
      "inputs": [],
      "name": "name",
      "outputs": [
        {
          "internalType": "string",
          "name": "",
          "type": "string"
        }
      ],
      "stateMutability": "view",
      "type": "function",
      "constant": true
    },
    {
      "inputs": [],
      "name": "owner",
      "outputs": [
        {
          "internalType": "address",
          "name": "",
          "type": "address"
        }
      ],
      "stateMutability": "view",
      "type": "function",
      "constant": true
    },
    {
      "inputs": [
        {
          "internalType": "uint256",
          "name": "",
          "type": "uint256"
        }
      ],
      "name": "proposals",
      "outputs": [
        {
          "internalType": "string",
          "name": "description",
          "type": "string"
        },
        {
          "internalType": "uint256",
          "name": "votesFor",
          "type": "uint256"
        },
        {
          "internalType": "uint256",
          "name": "votesAgainst",
          "type": "uint256"
        },
        {
          "internalType": "bool",
          "name": "executed",
          "type": "bool"
        }
      ],
      "stateMutability": "view",
      "type": "function",
      "constant": true
    },
    {
      "inputs": [],
      "name": "totalShares",
      "outputs": [
        {
          "internalType": "uint256",
          "name": "",
          "type": "uint256"
        }
      ],
      "stateMutability": "view",
      "type": "function",
      "constant": true
    },
    {
      "inputs": [
        {
          "internalType": "address",
          "name": "member",
          "type": "address"
        },
        {
          "internalType": "uint256",
          "name": "shares",
          "type": "uint256"
        }
      ],
      "name": "addMember",
      "outputs": [],
      "stateMutability": "nonpayable",
      "type": "function"
    },
    {
      "inputs": [
        {
          "internalType": "address",
          "name": "member",
          "type": "address"
        }
      ],
      "name": "removeMember",
      "outputs": [],
      "stateMutability": "nonpayable",
      "type": "function"
    },
    {
      "inputs": [
        {
          "internalType": "string",
          "name": "description",
          "type": "string"
        }
      ],
      "name": "createProposal",
      "outputs": [],
      "stateMutability": "nonpayable",
      "type": "function"
    },
    {
      "inputs": [
        {
          "internalType": "uint256",
          "name": "proposalId",
          "type": "uint256"
        },
        {
          "internalType": "bool",
          "name": "inFavor",
          "type": "bool"
        }
      ],
      "name": "vote",
      "outputs": [],
      "stateMutability": "nonpayable",
      "type": "function"
    },
    {
      "inputs": [
        {
          "internalType": "uint256",
          "name": "proposalId",
          "type": "uint256"
        }
      ],
      "name": "executeProposal",
      "outputs": [],
      "stateMutability": "nonpayable",
      "type": "function"
    }
  ],
  "bytecode": "0x60806040523480156200001157600080fd5b5060405162000f1e38038062000f1e833981016040819052620000349162000090565b60006200004282826200020d565b505060018054600160a060020a031916331790556000600255620002df565b7f4e487b7100000000000000000000000000000000000000000000000000000000600052604160045260246000fd5b60006020808385031215620000a457600080fd5b82516001604060020a0380821115620000bc57600080fd5b818501915085601f830112620000d157600080fd5b815181811115620000e657620000e662000061565b604051601f8201601f19908116603f0116810190838211818310171562000111576200011162000061565b8160405282815288868487010111156200012a57600080fd5b600093505b828410156200014e57848401860151818501870152928501926200012f565b600086848301015280965050505050505092915050565b6002810460018216806200017a57607f821691505b602082108103620001b4577f4e487b7100000000000000000000000000000000000000000000000000000000600052602260045260246000fd5b50919050565b601f82111562000208576000818152602081206020601f86010481016020861015620001e35750805b6020601f860104820191505b818110156200020457828155600101620001ef565b5050505b505050565b81516001604060020a0381111562000229576200022962000061565b62000241816200023a845462000165565b84620001ba565b602080601f8311600181146200027d5760008415620002605750858301515b60028086026008870290910a600019041982161786555062000204565b600085815260208120601f198616915b82811015620002ae578886015182559484019460019091019084016200028d565b5085821015620002cf57878501516008601f88160260020a60001904191681555b5050505050600202600101905550565b610c2f80620002ef6000396000f3fe608060405234801561001057600080fd5b50600436106100915760e060020a6000350463013cf08b811461009657806306fdde03146100c25780630b1ca49a146100d75780630d61b519146100ec5780633a98ef39146100ff57806349c2a1a6146101165780638da5cb5b1461012957806398041ea314610149578063c9d27afe1461015c578063da4949541461016f575b600080fd5b6100a96100a436600461072b565b61018f565b6040516100b9949392919061078a565b60405180910390f35b6100ca61025c565b6040516100b991906107bb565b6100ea6100e53660046107f1565b6102ea565b005b6100ea6100fa36600461072b565b6103a7565b61010860025481565b6040519081526020016100b9565b6100ea610124366004610826565b610448565b60015461013c90600160a060020a031681565b6040516100b991906108d6565b6100ea6101573660046108ea565b61054c565b6100ea61016a366004610914565b610605565b61010861017d3660046107f1565b60036020526000908152604090205481565b6004818154811061019f57600080fd5b90600052602060002090600402016000915090508060000180546101c290610949565b80601f01602080910402602001604051908101604052809291908181526020018280546101ee90610949565b801561023b5780601f106102105761010080835404028352916020019161023b565b820191906000526020600020905b81548152906001019060200180831161021e57829003601f168201915b50505050600183015460028401546003909401549293909290915060ff1684565b6000805461026990610949565b80601f016020809104026020016040519081016040528092919081815260200182805461029590610949565b80156102e25780601f106102b7576101008083540402835291602001916102e2565b820191906000526020600020905b8154815290600101906020018083116102c557829003601f168201915b505050505081565b600154600160a060020a031633146103205760405160e560020a62461bcd02815260040161031790610987565b60405180910390fd5b600160a060020a038116600090815260036020526040812054600280549192909161034c9084906109eb565b9091555050600160a060020a03811660009081526003602052604080822091909155517f6e76fb4c77256006d9c38ec7d82b45a8c8f3c27b1d6766fffc42dfb8de6844929061039c9083906108d6565b60405180910390a150565b600154600160a060020a031633146103d45760405160e560020a62461bcd02815260040161031790610987565b6000600482815481106103e9576103e9610a04565b60009182526020909120600490910201600381015490915060ff16156104245760405160e560020a62461bcd02815260040161031790610a1e565b8060020154816001015411156104445760038101805460ff191660011790555b5050565b336000908152600360205260409020546104775760405160e560020a62461bcd02815260040161031790610a69565b6040805160808101825282815260006020820181905291810182905260608101829052600480546001810182559281905281519192027f8a35acfbc15ff81a39ae7d344fd709f28e8600b4aa8c65c6b64bfe7fe36bd19b019081906104dc9082610b00565b506020820151600182810191909155604083015160028301556060909201516003909101805460ff19169115159190911790556004547f9c770c289ab5bf7e57cb1d23c8ceae993aea46eb64847072fd3d78ca60d3e4329161053d916109eb565b8260405161039c929190610bc5565b600154600160a060020a031633146105795760405160e560020a62461bcd02815260040161031790610987565b600160a060020a038216600090815260036020526040812080548392906105a1908490610be6565b9250508190555080600260008282546105ba9190610be6565b909155505060408051600160a060020a0384168152602081018390527fede8eed4383e9241982619b94dd83e488b274cced0fd07b8c0092a393defd52f910160405180910390a15050565b336000908152600360205260409020546106345760405160e560020a62461bcd02815260040161031790610a69565b60006004838154811061064957610649610a04565b60009182526020909120600490910201600381015490915060ff16156106845760405160e560020a62461bcd02815260040161031790610a1e565b81156106ba5733600090815260036020526040812054600183018054919290916106af908490610be6565b909155506106e59050565b33600090815260036020526040812054600283018054919290916106df908490610be6565b90915550505b60408051338152602081018590528315158183015290517fe407334acb3e7927b72550847e6c9c4ead41f6f2b16820ad3953717b010f68189181900360600190a1505050565b60006020828403121561073d57600080fd5b5035919050565b6000815180845260005b8181101561076a5760208185018101518683018201520161074e565b506000602082860101526020601f19601f83011685010191505092915050565b60808152600061079d6080830187610744565b60208301959095525060408101929092521515606090910152919050565b6020815260006107ce6020830184610744565b9392505050565b8035600160a060020a03811681146107ec57600080fd5b919050565b60006020828403121561080357600080fd5b6107ce826107d5565b60e060020a634e487b710260009081526041600452602490fd5b60006020828403121561083857600080fd5b81356001604060020a038082111561084f57600080fd5b818401915084601f83011261086357600080fd5b8135818111156108755761087561080c565b604051601f8201601f19908116603f0116810190838211818310171561089d5761089d61080c565b816040528281528760208487010111156108b657600080fd5b826020860160208301376000928101602001929092525095945050505050565b600160a060020a0391909116815260200190565b600080604083850312156108fd57600080fd5b610906836107d5565b946020939093013593505050565b6000806040838503121561092757600080fd5b823591506020830135801515811461093e57600080fd5b809150509250929050565b60028104600182168061095d57607f821691505b6020821081036109815760e060020a634e487b710260009081526022600452602490fd5b50919050565b60208082526027908201527f4f6e6c7920746865206f776e65722063616e20706572666f726d207468697320604082015260c960020a6630b1ba34b7b71702606082015260800190565b60e060020a634e487b710260009081526011600452602490fd5b818103818111156109fe576109fe6109d1565b92915050565b60e060020a634e487b710260009081526032600452602490fd5b60208082526028908201527f546869732070726f706f73616c2068617320616c7265616479206265656e2065604082015260c160020a673c32b1baba32b21702606082015260800190565b60208082526025908201527f4f6e6c79206d656d626572732063616e20706572666f726d2074686973206163604082015260d960020a643a34b7b71702606082015260800190565b601f821115610afb576000818152602081206020601f86010481016020861015610ad85750805b6020601f860104820191505b81811015610af757828155600101610ae4565b5050505b505050565b81516001604060020a03811115610b1957610b1961080c565b610b2d81610b278454610949565b84610ab1565b602080601f831160018114610b665760008415610b4a5750858301515b60028086026008870290910a6000190419821617865550610af7565b600085815260208120601f198616915b82811015610b9557888601518255948401946001909101908401610b76565b5085821015610bb557878501516008601f88160260020a60001904191681555b5050505050600202600101905550565b828152604060208201526000610bde6040830184610744565b949350505050565b808201808211156109fe576109fe6109d156fea26469706673582212205025a894b4be0a3ec0895870083e27879270da7d2d99c7156eeeb8a8d8d8193764736f6c63430008120033",
  "immutableReferences": {},
  "source": "// SPDX-License-Identifier: CC-BY-4.0\npragma solidity >=0.4.22 <0.9.0;\n\ncontract WyomingDAO {\n    string public name;\n    address public owner;\n    uint256 public totalShares;\n    mapping(address => uint256) public memberShares;\n\n    event MemberAdded(address member, uint256 shares);\n    event MemberRemoved(address member);\n    event ProposalCreated(uint256 proposalId, string description);\n    event VoteCasted(address member, uint256 proposalId, bool vote);\n\n    struct Proposal {\n        string description;\n        uint256 votesFor;\n        uint256 votesAgainst;\n        bool executed;\n    }\n\n    Proposal[] public proposals;\n\n    modifier onlyOwner() {\n        require(msg.sender == owner, \"Only the owner can perform this action.\");\n        _;\n    }\n\n    modifier onlyMember() {\n        require(memberShares[msg.sender] > 0, \"Only members can perform this action.\");\n        _;\n    }\n\n    constructor(string memory _name) {\n        name = _name;\n        owner = msg.sender;\n        totalShares = 0;\n    }\n\n    function addMember(address member, uint256 shares) public onlyOwner {\n        memberShares[member] += shares;\n        totalShares += shares;\n        emit MemberAdded(member, shares);\n    }\n\n    function removeMember(address member) public onlyOwner {\n        totalShares -= memberShares[member];\n        memberShares[member] = 0;\n        emit MemberRemoved(member);\n    }\n\n    function createProposal(string memory description) public onlyMember {\n        proposals.push(Proposal(description, 0, 0, false));\n        emit ProposalCreated(proposals.length - 1, description);\n    }\n\n    function vote(uint256 proposalId, bool inFavor) public onlyMember {\n        Proposal storage proposal = proposals[proposalId];\n        require(!proposal.executed, \"This proposal has already been executed.\");\n\n        if (inFavor) {\n            proposal.votesFor += memberShares[msg.sender];\n        } else {\n            proposal.votesAgainst += memberShares[msg.sender];\n        }\n\n        emit VoteCasted(msg.sender, proposalId, inFavor);\n    }\n\n    function executeProposal(uint256 proposalId) public onlyOwner {\n        Proposal storage proposal = proposals[proposalId];\n        require(!proposal.executed, \"This proposal has already been executed.\");\n\n        if (proposal.votesFor > proposal.votesAgainst) {\n            // Execute the proposal here.\n            proposal.executed = true;\n        }\n    }\n}\n",
  "sourcePath": "/Volumes/My Book/projects/pingleware-contracts/contracts/finance/dao/WyomingDAO.sol",
  "compiler": {
    "name": "solc",
    "version": "0.8.18+commit.87f61d96.Emscripten.clang"
  },
  "schemaVersion": "3.4.12",
  "updatedAt": "2023-10-24T16:01:23.486Z",
  "networkType": "ethereum",
  "devdoc": {
    "kind": "dev",
    "methods": {},
    "version": 1
  },
  "userdoc": {
    "kind": "user",
    "methods": {},
    "version": 1
  }
}