{
  "contractName": "WyomingDAO",
  "abi": [
    {
      "inputs": [
        {
          "internalType": "string",
          "name": "_name",
          "type": "string"
        }
      ],
      "stateMutability": "nonpayable",
      "type": "constructor"
    },
    {
      "anonymous": false,
      "inputs": [
        {
          "indexed": false,
          "internalType": "address",
          "name": "member",
          "type": "address"
        },
        {
          "indexed": false,
          "internalType": "uint256",
          "name": "shares",
          "type": "uint256"
        }
      ],
      "name": "MemberAdded",
      "type": "event"
    },
    {
      "anonymous": false,
      "inputs": [
        {
          "indexed": false,
          "internalType": "address",
          "name": "member",
          "type": "address"
        }
      ],
      "name": "MemberRemoved",
      "type": "event"
    },
    {
      "anonymous": false,
      "inputs": [
        {
          "indexed": false,
          "internalType": "uint256",
          "name": "proposalId",
          "type": "uint256"
        },
        {
          "indexed": false,
          "internalType": "string",
          "name": "description",
          "type": "string"
        }
      ],
      "name": "ProposalCreated",
      "type": "event"
    },
    {
      "anonymous": false,
      "inputs": [
        {
          "indexed": false,
          "internalType": "address",
          "name": "member",
          "type": "address"
        },
        {
          "indexed": false,
          "internalType": "uint256",
          "name": "proposalId",
          "type": "uint256"
        },
        {
          "indexed": false,
          "internalType": "bool",
          "name": "vote",
          "type": "bool"
        }
      ],
      "name": "VoteCasted",
      "type": "event"
    },
    {
      "inputs": [
        {
          "internalType": "address",
          "name": "",
          "type": "address"
        }
      ],
      "name": "memberShares",
      "outputs": [
        {
          "internalType": "uint256",
          "name": "",
          "type": "uint256"
        }
      ],
      "stateMutability": "view",
      "type": "function"
    },
    {
      "inputs": [],
      "name": "name",
      "outputs": [
        {
          "internalType": "string",
          "name": "",
          "type": "string"
        }
      ],
      "stateMutability": "view",
      "type": "function"
    },
    {
      "inputs": [],
      "name": "owner",
      "outputs": [
        {
          "internalType": "address",
          "name": "",
          "type": "address"
        }
      ],
      "stateMutability": "view",
      "type": "function"
    },
    {
      "inputs": [
        {
          "internalType": "uint256",
          "name": "",
          "type": "uint256"
        }
      ],
      "name": "proposals",
      "outputs": [
        {
          "internalType": "string",
          "name": "description",
          "type": "string"
        },
        {
          "internalType": "uint256",
          "name": "votesFor",
          "type": "uint256"
        },
        {
          "internalType": "uint256",
          "name": "votesAgainst",
          "type": "uint256"
        },
        {
          "internalType": "bool",
          "name": "executed",
          "type": "bool"
        }
      ],
      "stateMutability": "view",
      "type": "function"
    },
    {
      "inputs": [],
      "name": "totalShares",
      "outputs": [
        {
          "internalType": "uint256",
          "name": "",
          "type": "uint256"
        }
      ],
      "stateMutability": "view",
      "type": "function"
    },
    {
      "inputs": [
        {
          "internalType": "address",
          "name": "member",
          "type": "address"
        },
        {
          "internalType": "uint256",
          "name": "shares",
          "type": "uint256"
        }
      ],
      "name": "addMember",
      "outputs": [],
      "stateMutability": "nonpayable",
      "type": "function"
    },
    {
      "inputs": [
        {
          "internalType": "address",
          "name": "member",
          "type": "address"
        }
      ],
      "name": "removeMember",
      "outputs": [],
      "stateMutability": "nonpayable",
      "type": "function"
    },
    {
      "inputs": [
        {
          "internalType": "string",
          "name": "description",
          "type": "string"
        }
      ],
      "name": "createProposal",
      "outputs": [],
      "stateMutability": "nonpayable",
      "type": "function"
    },
    {
      "inputs": [
        {
          "internalType": "uint256",
          "name": "proposalId",
          "type": "uint256"
        },
        {
          "internalType": "bool",
          "name": "inFavor",
          "type": "bool"
        }
      ],
      "name": "vote",
      "outputs": [],
      "stateMutability": "nonpayable",
      "type": "function"
    },
    {
      "inputs": [
        {
          "internalType": "uint256",
          "name": "proposalId",
          "type": "uint256"
        }
      ],
      "name": "executeProposal",
      "outputs": [],
      "stateMutability": "nonpayable",
      "type": "function"
    }
  ],
  "bytecode": "0x6080604052346200025d5762000d33803803806200001d8162000262565b928339810190602080828403126200025d5781516001604060020a03928382116200025d570191601f928484820112156200025d5780518281116200021957601f1991620000718287018416860162000262565b968288528583830101116200025d57849060005b83811062000248575050600091870101528451918211620002195760005492600294858504600180961680156200020e575b83821014620001df5781811162000196575b5081928185116001146200012857505050819060009586926200011c575b505081840291600802840a85190419161783555b8054600160a060020a0319163317905555604051610aaa9081620002898239f35b015190503880620000e7565b600080805283812091861698919492935b8982106200017e575050918693918593879660009a1062000163575b5050505002018355620000fb565b0151908316600802840a881904191690553880808062000155565b80888597829496860151815501960193019062000139565b600080528260002083838181890104830193828910620001d5575b0104019086905b828110620001c8575050620000c9565b60008155018690620001b8565b93508293620001b1565b7f4e487b7100000000000000000000000000000000000000000000000000000000600052602260045260246000fd5b90607f1690620000b7565b7f4e487b7100000000000000000000000000000000000000000000000000000000600052604160045260246000fd5b81810183015189820184015286920162000085565b600080fd5b6040519190601f01601f191682016001604060020a03811183821017620002195760405256fe6040608081526004908136101561001557600080fd5b60009160e060020a8335049063013cf08b821461070b57816306fdde03146106465781630b1ca49a146105a35781630d61b519146105385781633a98ef391461051957816349c2a1a61461025e5781638da5cb5b1461023557816398041ea3146101a5578163c9d27afe146100ce575063da4949541461009457600080fd5b346100ca5760203660031901126100ca576020918190600160a060020a036100ba61090d565b1681526003845220549051908152f35b5080fd5b9050346101a157816003193601126101a157356024359081151580830361019d577fe407334acb3e7927b72550847e6c9c4ead41f6f2b16820ad3953717b010f681893606093338752600360205261012a8288205415156109b1565b610133846107ff565b509061014660ff60038401541615610a11565b1561017b573387526003602052610166600183892054920191825461098a565b90555b8051923384526020840152820152a180f35b3387526003602052610196600283892054920191825461098a565b9055610169565b8480fd5b8280fd5b5050346100ca57806003193601126100ca577fede8eed4383e9241982619b94dd83e488b274cced0fd07b8c0092a393defd52f906101e161090d565b60015460243591600160a060020a03916101fe9083163314610928565b1690818552600360205282852061021682825461098a565b90556102248160025461098a565b60025582519182526020820152a180f35b5050346100ca57816003193601126100ca576001549051600160a060020a039091168152602090f35b839150346100ca57602090816003193601126101a1576001604060020a0393813585811161019d573660238201121561019d578083013595808711610503578251966102b3601f8201601f1916870189610890565b808852602492368483830101116104ff5781889285899301838c013789010152338652600385526102e88387205415156109b1565b825160808101818110838211176104ea5784528781528581018781528482019088825260608301938985528754604060020a8110156104c15780600161033092018a556107ff565b9490946104d6575180519182116104c15761034b8554610851565b601f8111610480575b508990601f831160011461041557600395949392918c918361040a575b5050816002029160080260020a6000190419161783555b516001830155516002820155019051151560ff8019835416911617905582549260001984019384116103f65750507f9c770c289ab5bf7e57cb1d23c8ceae993aea46eb64847072fd3d78ca60d3e432939481806103f0935195869586528501528301906108cd565b0390a180f35b60e060020a634e487b710286526011905284fd5b015190508d80610371565b858c528a8c209190601f1984168d5b8d82821061046a5750509260029285926003999897966001961061044f575b50505002018355610388565b01516008601f841602840a60001904191690558e8080610443565b6001859682939686015181550195019301610424565b858c528a8c208b80601f8601048201928186106104b7575b601f010401905b8181106104ac5750610354565b8c815560010161049f565b9192508291610498565b60e060020a634e487b71028b5260418952868bfd5b60e060020a634e487b71028b528a8952868bfd5b60e060020a634e487b71028852604186528388fd5b8780fd5b60e060020a634e487b7102865260418452602486fd5b5050346100ca57816003193601126100ca576020906002549051908152f35b8390346100ca5760203660031901126100ca5761056b90610565600160a060020a03600154163314610928565b356107ff565b50600381019081549061058160ff831615610a11565b6002600182015491015410610594578280f35b60ff1916600117905581808280f35b8383346100ca5760203660031901126100ca576105be61090d565b600154600160a060020a0391906105d89083163314610928565b169081835260036020528083205460025490810390811161063057916020917f6e76fb4c77256006d9c38ec7d82b45a8c8f3c27b1d6766fffc42dfb8de6844929360025581855260038352848181205551908152a180f35b60e060020a634e487b7102845260118552602484fd5b5050346100ca57816003193601126100ca5780519082805461066781610851565b808552906001908181169081156106e457506001146106a9575b505050610693826106a5940383610890565b519182916020835260208301906108cd565b0390f35b94508180526020948583205b8284106106d157505050826106a5946106939282010194610681565b80548685018801529286019281016106b5565b6106a597506106939450602092508693915060ff1916828401521515810282010194610681565b9050346101a157602090816003193601126107fb57803590548110156107fb57610734906107ff565b50918051928481549061074682610851565b9081875260019283811690816000146107de57506001146107aa575b505061077385610798970386610890565b8101549160ff60036002840154930154169281519687966080885260808801906108cd565b94860152840152151560608301520390f35b9096508281528481205b8782106107cb575085018401955061077385610762565b80548783018701529085019082016107b4565b60ff19168789015250501515840285018401955061077385610762565b8380fd5b600454811015610837576004600081815291027f8a35acfbc15ff81a39ae7d344fd709f28e8600b4aa8c65c6b64bfe7fe36bd19b0191565b60e060020a634e487b710260009081526032600452602490fd5b9060016002830492168015610886575b602083101461086c57565b60e060020a634e487b710260009081526022600452602490fd5b91607f1691610861565b601f909101601f19168101906001604060020a038211908210176108b357604052565b60e060020a634e487b710260009081526041600452602490fd5b919082519283825260005b8481106108f9575050826000602080949584010152601f8019910116010190565b6020818301810151848301820152016108d8565b60043590600160a060020a038216820361092357565b600080fd5b1561092f57565b60405160e560020a62461bcd02815260206004820152602760248201527f4f6e6c7920746865206f776e65722063616e20706572666f726d207468697320604482015260c960020a6630b1ba34b7b717026064820152608490fd5b9190820180921161099757565b60e060020a634e487b710260009081526011600452602490fd5b156109b857565b60405160e560020a62461bcd02815260206004820152602560248201527f4f6e6c79206d656d626572732063616e20706572666f726d2074686973206163604482015260d960020a643a34b7b717026064820152608490fd5b15610a1857565b60405160e560020a62461bcd02815260206004820152602860248201527f546869732070726f706f73616c2068617320616c7265616479206265656e2065604482015260c160020a673c32b1baba32b217026064820152608490fdfea2646970667358221220ce18fee25947e9c6ad6735dc2c36a07f7bafa90f0d37aa6c0ee0866861d84daf64736f6c63430008120033",
  "immutableReferences": {},
  "source": "// SPDX-License-Identifier: CC-BY-4.0\npragma solidity >=0.4.22 <0.9.0;\n\ncontract WyomingDAO {\n    string public name;\n    address public owner;\n    uint256 public totalShares;\n    mapping(address => uint256) public memberShares;\n\n    event MemberAdded(address member, uint256 shares);\n    event MemberRemoved(address member);\n    event ProposalCreated(uint256 proposalId, string description);\n    event VoteCasted(address member, uint256 proposalId, bool vote);\n\n    struct Proposal {\n        string description;\n        uint256 votesFor;\n        uint256 votesAgainst;\n        bool executed;\n    }\n\n    Proposal[] public proposals;\n\n    modifier onlyOwner() {\n        require(msg.sender == owner, \"Only the owner can perform this action.\");\n        _;\n    }\n\n    modifier onlyMember() {\n        require(memberShares[msg.sender] > 0, \"Only members can perform this action.\");\n        _;\n    }\n\n    constructor(string memory _name) {\n        name = _name;\n        owner = msg.sender;\n        totalShares = 0;\n    }\n\n    function addMember(address member, uint256 shares) public onlyOwner {\n        memberShares[member] += shares;\n        totalShares += shares;\n        emit MemberAdded(member, shares);\n    }\n\n    function removeMember(address member) public onlyOwner {\n        totalShares -= memberShares[member];\n        memberShares[member] = 0;\n        emit MemberRemoved(member);\n    }\n\n    function createProposal(string memory description) public onlyMember {\n        proposals.push(Proposal(description, 0, 0, false));\n        emit ProposalCreated(proposals.length - 1, description);\n    }\n\n    function vote(uint256 proposalId, bool inFavor) public onlyMember {\n        Proposal storage proposal = proposals[proposalId];\n        require(!proposal.executed, \"This proposal has already been executed.\");\n\n        if (inFavor) {\n            proposal.votesFor += memberShares[msg.sender];\n        } else {\n            proposal.votesAgainst += memberShares[msg.sender];\n        }\n\n        emit VoteCasted(msg.sender, proposalId, inFavor);\n    }\n\n    function executeProposal(uint256 proposalId) public onlyOwner {\n        Proposal storage proposal = proposals[proposalId];\n        require(!proposal.executed, \"This proposal has already been executed.\");\n\n        if (proposal.votesFor > proposal.votesAgainst) {\n            // Execute the proposal here.\n            proposal.executed = true;\n        }\n    }\n}\n",
  "sourcePath": "/Volumes/HOME/pingleware-contracts/contracts/finance/dao/WyomingDAO.sol",
  "compiler": {
    "name": "solc",
    "version": "0.8.18+commit.87f61d96.Emscripten.clang"
  },
  "schemaVersion": "3.4.12",
  "updatedAt": "2024-05-23T18:56:25.624Z",
  "devdoc": {
    "kind": "dev",
    "methods": {},
    "version": 1
  },
  "userdoc": {
    "kind": "user",
    "methods": {},
    "version": 1
  }
}